{
  "address": "0xB255D6A720BB7c39fee173cE22113397119cB930",
  "abi": [
    {
      "inputs": [
        {
          "internalType": "uint256",
          "name": "_roninChainId",
          "type": "uint256"
        },
        {
          "internalType": "address",
          "name": "_roleSetter",
          "type": "address"
        },
        {
          "internalType": "address",
          "name": "_roninTrustedOrganizationContract",
          "type": "address"
        },
        {
          "internalType": "address",
          "name": "_bridgeContract",
          "type": "address"
        },
        {
          "internalType": "address[]",
          "name": "_relayers",
          "type": "address[]"
        }
      ],
      "stateMutability": "nonpayable",
      "type": "constructor"
    },
    {
      "inputs": [],
      "name": "ErrCallerMustBeBridgeContract",
      "type": "error"
    },
    {
      "inputs": [],
      "name": "ErrCallerMustBeRoninTrustedOrgContract",
      "type": "error"
    },
    {
      "inputs": [
        {
          "internalType": "bytes4",
          "name": "methodSignature",
          "type": "bytes4"
        }
      ],
      "name": "ErrProxyCallFailed",
      "type": "error"
    },
    {
      "inputs": [],
      "name": "ErrZeroCodeContract",
      "type": "error"
    },
    {
      "anonymous": false,
      "inputs": [
        {
          "indexed": false,
          "internalType": "address",
          "name": "",
          "type": "address"
        }
      ],
      "name": "BridgeContractUpdated",
      "type": "event"
    },
    {
      "anonymous": false,
      "inputs": [
        {
          "indexed": true,
          "internalType": "uint256",
          "name": "round",
          "type": "uint256"
        },
        {
          "indexed": true,
          "internalType": "bytes32",
          "name": "proposalHash",
          "type": "bytes32"
        },
        {
          "components": [
            {
              "internalType": "uint256",
              "name": "nonce",
              "type": "uint256"
            },
            {
              "internalType": "uint256",
              "name": "chainId",
              "type": "uint256"
            },
            {
              "internalType": "uint256",
              "name": "expiryTimestamp",
              "type": "uint256"
            },
            {
              "internalType": "address[]",
              "name": "targets",
              "type": "address[]"
            },
            {
              "internalType": "uint256[]",
              "name": "values",
              "type": "uint256[]"
            },
            {
              "internalType": "bytes[]",
              "name": "calldatas",
              "type": "bytes[]"
            },
            {
              "internalType": "uint256[]",
              "name": "gasAmounts",
              "type": "uint256[]"
            }
          ],
          "indexed": false,
          "internalType": "struct Proposal.ProposalDetail",
          "name": "proposal",
          "type": "tuple"
        },
        {
          "indexed": false,
          "internalType": "bytes32",
          "name": "globalProposalHash",
          "type": "bytes32"
        },
        {
          "components": [
            {
              "internalType": "uint256",
              "name": "nonce",
              "type": "uint256"
            },
            {
              "internalType": "uint256",
              "name": "expiryTimestamp",
              "type": "uint256"
            },
            {
              "internalType": "enum GlobalProposal.TargetOption[]",
              "name": "targetOptions",
              "type": "uint8[]"
            },
            {
              "internalType": "uint256[]",
              "name": "values",
              "type": "uint256[]"
            },
            {
              "internalType": "bytes[]",
              "name": "calldatas",
              "type": "bytes[]"
            },
            {
              "internalType": "uint256[]",
              "name": "gasAmounts",
              "type": "uint256[]"
            }
          ],
          "indexed": false,
          "internalType": "struct GlobalProposal.GlobalProposalDetail",
          "name": "globalProposal",
          "type": "tuple"
        },
        {
          "indexed": false,
          "internalType": "address",
          "name": "creator",
          "type": "address"
        }
      ],
      "name": "GlobalProposalCreated",
      "type": "event"
    },
    {
      "anonymous": false,
      "inputs": [
        {
          "indexed": true,
          "internalType": "bytes32",
          "name": "proposalHash",
          "type": "bytes32"
        }
      ],
      "name": "ProposalApproved",
      "type": "event"
    },
    {
      "anonymous": false,
      "inputs": [
        {
          "indexed": true,
          "internalType": "uint256",
          "name": "chainId",
          "type": "uint256"
        },
        {
          "indexed": true,
          "internalType": "uint256",
          "name": "round",
          "type": "uint256"
        },
        {
          "indexed": true,
          "internalType": "bytes32",
          "name": "proposalHash",
          "type": "bytes32"
        },
        {
          "components": [
            {
              "internalType": "uint256",
              "name": "nonce",
              "type": "uint256"
            },
            {
              "internalType": "uint256",
              "name": "chainId",
              "type": "uint256"
            },
            {
              "internalType": "uint256",
              "name": "expiryTimestamp",
              "type": "uint256"
            },
            {
              "internalType": "address[]",
              "name": "targets",
              "type": "address[]"
            },
            {
              "internalType": "uint256[]",
              "name": "values",
              "type": "uint256[]"
            },
            {
              "internalType": "bytes[]",
              "name": "calldatas",
              "type": "bytes[]"
            },
            {
              "internalType": "uint256[]",
              "name": "gasAmounts",
              "type": "uint256[]"
            }
          ],
          "indexed": false,
          "internalType": "struct Proposal.ProposalDetail",
          "name": "proposal",
          "type": "tuple"
        },
        {
          "indexed": false,
          "internalType": "address",
          "name": "creator",
          "type": "address"
        }
      ],
      "name": "ProposalCreated",
      "type": "event"
    },
    {
      "anonymous": false,
      "inputs": [
        {
          "indexed": true,
          "internalType": "bytes32",
          "name": "proposalHash",
          "type": "bytes32"
        },
        {
          "indexed": false,
          "internalType": "bool[]",
          "name": "successCalls",
          "type": "bool[]"
        },
        {
          "indexed": false,
          "internalType": "bytes[]",
          "name": "returnDatas",
          "type": "bytes[]"
        }
      ],
      "name": "ProposalExecuted",
      "type": "event"
    },
    {
      "anonymous": false,
      "inputs": [
        {
          "indexed": true,
          "internalType": "bytes32",
          "name": "proposalHash",
          "type": "bytes32"
        }
      ],
      "name": "ProposalExpired",
      "type": "event"
    },
    {
      "anonymous": false,
      "inputs": [
        {
          "indexed": true,
          "internalType": "bytes32",
          "name": "proposalHash",
          "type": "bytes32"
        }
      ],
      "name": "ProposalRejected",
      "type": "event"
    },
    {
      "anonymous": false,
      "inputs": [
        {
          "indexed": true,
          "internalType": "bytes32",
          "name": "proposalHash",
          "type": "bytes32"
        },
        {
          "indexed": true,
          "internalType": "address",
          "name": "voter",
          "type": "address"
        },
        {
          "indexed": false,
          "internalType": "enum Ballot.VoteType",
          "name": "support",
          "type": "uint8"
        },
        {
          "indexed": false,
          "internalType": "uint256",
          "name": "weight",
          "type": "uint256"
        }
      ],
      "name": "ProposalVoted",
      "type": "event"
    },
    {
      "anonymous": false,
      "inputs": [
        {
          "indexed": true,
          "internalType": "bytes32",
          "name": "role",
          "type": "bytes32"
        },
        {
          "indexed": true,
          "internalType": "bytes32",
          "name": "previousAdminRole",
          "type": "bytes32"
        },
        {
          "indexed": true,
          "internalType": "bytes32",
          "name": "newAdminRole",
          "type": "bytes32"
        }
      ],
      "name": "RoleAdminChanged",
      "type": "event"
    },
    {
      "anonymous": false,
      "inputs": [
        {
          "indexed": true,
          "internalType": "bytes32",
          "name": "role",
          "type": "bytes32"
        },
        {
          "indexed": true,
          "internalType": "address",
          "name": "account",
          "type": "address"
        },
        {
          "indexed": true,
          "internalType": "address",
          "name": "sender",
          "type": "address"
        }
      ],
      "name": "RoleGranted",
      "type": "event"
    },
    {
      "anonymous": false,
      "inputs": [
        {
          "indexed": true,
          "internalType": "bytes32",
          "name": "role",
          "type": "bytes32"
        },
        {
          "indexed": true,
          "internalType": "address",
          "name": "account",
          "type": "address"
        },
        {
          "indexed": true,
          "internalType": "address",
          "name": "sender",
          "type": "address"
        }
      ],
      "name": "RoleRevoked",
      "type": "event"
    },
    {
      "anonymous": false,
      "inputs": [
        {
          "indexed": false,
          "internalType": "address",
          "name": "",
          "type": "address"
        }
      ],
      "name": "RoninTrustedOrganizationContractUpdated",
      "type": "event"
    },
    {
      "inputs": [],
      "name": "DEFAULT_ADMIN_ROLE",
      "outputs": [
        {
          "internalType": "bytes32",
          "name": "",
          "type": "bytes32"
        }
      ],
      "stateMutability": "view",
      "type": "function"
    },
    {
      "inputs": [],
      "name": "DOMAIN_SEPARATOR",
      "outputs": [
        {
          "internalType": "bytes32",
          "name": "",
          "type": "bytes32"
        }
      ],
      "stateMutability": "view",
      "type": "function"
    },
    {
      "inputs": [],
      "name": "RELAYER_ROLE",
      "outputs": [
        {
          "internalType": "bytes32",
          "name": "",
          "type": "bytes32"
        }
      ],
      "stateMutability": "view",
      "type": "function"
    },
    {
      "inputs": [],
      "name": "bridgeContract",
      "outputs": [
        {
          "internalType": "address",
          "name": "",
          "type": "address"
        }
      ],
      "stateMutability": "view",
      "type": "function"
    },
    {
      "inputs": [
        {
          "internalType": "uint256",
          "name": "_period",
          "type": "uint256"
        },
        {
          "internalType": "uint256",
          "name": "_epoch",
          "type": "uint256"
        }
      ],
      "name": "bridgeOperatorsRelayed",
      "outputs": [
        {
          "internalType": "bool",
          "name": "",
          "type": "bool"
        }
      ],
      "stateMutability": "view",
      "type": "function"
    },
    {
      "inputs": [
        {
          "internalType": "address",
          "name": "_proxy",
          "type": "address"
        },
        {
          "internalType": "address",
          "name": "_newAdmin",
          "type": "address"
        }
      ],
      "name": "changeProxyAdmin",
      "outputs": [],
      "stateMutability": "nonpayable",
      "type": "function"
    },
    {
      "inputs": [],
      "name": "getProposalExpiryDuration",
      "outputs": [
        {
          "internalType": "uint256",
          "name": "",
          "type": "uint256"
        }
      ],
      "stateMutability": "view",
      "type": "function"
    },
    {
      "inputs": [
        {
          "internalType": "address",
          "name": "_proxy",
          "type": "address"
        }
      ],
      "name": "getProxyAdmin",
      "outputs": [
        {
          "internalType": "address",
          "name": "",
          "type": "address"
        }
      ],
      "stateMutability": "view",
      "type": "function"
    },
    {
      "inputs": [
        {
          "internalType": "address",
          "name": "_proxy",
          "type": "address"
        }
      ],
      "name": "getProxyImplementation",
      "outputs": [
        {
          "internalType": "address",
          "name": "",
          "type": "address"
        }
      ],
      "stateMutability": "view",
      "type": "function"
    },
    {
      "inputs": [
        {
          "internalType": "bytes32",
          "name": "role",
          "type": "bytes32"
        }
      ],
      "name": "getRoleAdmin",
      "outputs": [
        {
          "internalType": "bytes32",
          "name": "",
          "type": "bytes32"
        }
      ],
      "stateMutability": "view",
      "type": "function"
    },
    {
      "inputs": [
        {
          "internalType": "bytes32",
          "name": "role",
          "type": "bytes32"
        },
        {
          "internalType": "uint256",
          "name": "index",
          "type": "uint256"
        }
      ],
      "name": "getRoleMember",
      "outputs": [
        {
          "internalType": "address",
          "name": "",
          "type": "address"
        }
      ],
      "stateMutability": "view",
      "type": "function"
    },
    {
      "inputs": [
        {
          "internalType": "bytes32",
          "name": "role",
          "type": "bytes32"
        }
      ],
      "name": "getRoleMemberCount",
      "outputs": [
        {
          "internalType": "uint256",
          "name": "",
          "type": "uint256"
        }
      ],
      "stateMutability": "view",
      "type": "function"
    },
    {
      "inputs": [
        {
          "internalType": "bytes32",
          "name": "role",
          "type": "bytes32"
        },
        {
          "internalType": "address",
          "name": "account",
          "type": "address"
        }
      ],
      "name": "grantRole",
      "outputs": [],
      "stateMutability": "nonpayable",
      "type": "function"
    },
    {
      "inputs": [
        {
          "internalType": "bytes32",
          "name": "role",
          "type": "bytes32"
        },
        {
          "internalType": "address",
          "name": "account",
          "type": "address"
        }
      ],
      "name": "hasRole",
      "outputs": [
        {
          "internalType": "bool",
          "name": "",
          "type": "bool"
        }
      ],
      "stateMutability": "view",
      "type": "function"
    },
    {
      "inputs": [],
      "name": "lastSyncedBridgeOperatorSetInfo",
      "outputs": [
        {
          "components": [
            {
              "internalType": "uint256",
              "name": "period",
              "type": "uint256"
            },
            {
              "internalType": "uint256",
              "name": "epoch",
              "type": "uint256"
            },
            {
              "internalType": "address[]",
              "name": "operators",
              "type": "address[]"
            }
          ],
          "internalType": "struct BridgeOperatorsBallot.BridgeOperatorSet",
          "name": "",
          "type": "tuple"
        }
      ],
      "stateMutability": "view",
      "type": "function"
    },
    {
      "inputs": [
        {
          "internalType": "uint256",
          "name": "_chainId",
          "type": "uint256"
        },
        {
          "internalType": "uint256",
          "name": "_round",
          "type": "uint256"
        }
      ],
      "name": "proposalRelayed",
      "outputs": [
        {
          "internalType": "bool",
          "name": "",
          "type": "bool"
        }
      ],
      "stateMutability": "view",
      "type": "function"
    },
    {
      "inputs": [
        {
          "components": [
            {
              "internalType": "uint256",
              "name": "period",
              "type": "uint256"
            },
            {
              "internalType": "uint256",
              "name": "epoch",
              "type": "uint256"
            },
            {
              "internalType": "address[]",
              "name": "operators",
              "type": "address[]"
            }
          ],
          "internalType": "struct BridgeOperatorsBallot.BridgeOperatorSet",
          "name": "_ballot",
          "type": "tuple"
        },
        {
          "components": [
            {
              "internalType": "uint8",
              "name": "v",
              "type": "uint8"
            },
            {
              "internalType": "bytes32",
              "name": "r",
              "type": "bytes32"
            },
            {
              "internalType": "bytes32",
              "name": "s",
              "type": "bytes32"
            }
          ],
          "internalType": "struct SignatureConsumer.Signature[]",
          "name": "_signatures",
          "type": "tuple[]"
        }
      ],
      "name": "relayBridgeOperators",
      "outputs": [],
      "stateMutability": "nonpayable",
      "type": "function"
    },
    {
      "inputs": [
        {
          "components": [
            {
              "internalType": "uint256",
              "name": "nonce",
              "type": "uint256"
            },
            {
              "internalType": "uint256",
              "name": "expiryTimestamp",
              "type": "uint256"
            },
            {
              "internalType": "enum GlobalProposal.TargetOption[]",
              "name": "targetOptions",
              "type": "uint8[]"
            },
            {
              "internalType": "uint256[]",
              "name": "values",
              "type": "uint256[]"
            },
            {
              "internalType": "bytes[]",
              "name": "calldatas",
              "type": "bytes[]"
            },
            {
              "internalType": "uint256[]",
              "name": "gasAmounts",
              "type": "uint256[]"
            }
          ],
          "internalType": "struct GlobalProposal.GlobalProposalDetail",
          "name": "_globalProposal",
          "type": "tuple"
        },
        {
          "internalType": "enum Ballot.VoteType[]",
          "name": "_supports",
          "type": "uint8[]"
        },
        {
          "components": [
            {
              "internalType": "uint8",
              "name": "v",
              "type": "uint8"
            },
            {
              "internalType": "bytes32",
              "name": "r",
              "type": "bytes32"
            },
            {
              "internalType": "bytes32",
              "name": "s",
              "type": "bytes32"
            }
          ],
          "internalType": "struct SignatureConsumer.Signature[]",
          "name": "_signatures",
          "type": "tuple[]"
        }
      ],
      "name": "relayGlobalProposal",
      "outputs": [],
      "stateMutability": "nonpayable",
      "type": "function"
    },
    {
      "inputs": [
        {
          "components": [
            {
              "internalType": "uint256",
              "name": "nonce",
              "type": "uint256"
            },
            {
              "internalType": "uint256",
              "name": "chainId",
              "type": "uint256"
            },
            {
              "internalType": "uint256",
              "name": "expiryTimestamp",
              "type": "uint256"
            },
            {
              "internalType": "address[]",
              "name": "targets",
              "type": "address[]"
            },
            {
              "internalType": "uint256[]",
              "name": "values",
              "type": "uint256[]"
            },
            {
              "internalType": "bytes[]",
              "name": "calldatas",
              "type": "bytes[]"
            },
            {
              "internalType": "uint256[]",
              "name": "gasAmounts",
              "type": "uint256[]"
            }
          ],
          "internalType": "struct Proposal.ProposalDetail",
          "name": "_proposal",
          "type": "tuple"
        },
        {
          "internalType": "enum Ballot.VoteType[]",
          "name": "_supports",
          "type": "uint8[]"
        },
        {
          "components": [
            {
              "internalType": "uint8",
              "name": "v",
              "type": "uint8"
            },
            {
              "internalType": "bytes32",
              "name": "r",
              "type": "bytes32"
            },
            {
              "internalType": "bytes32",
              "name": "s",
              "type": "bytes32"
            }
          ],
          "internalType": "struct SignatureConsumer.Signature[]",
          "name": "_signatures",
          "type": "tuple[]"
        }
      ],
      "name": "relayProposal",
      "outputs": [],
      "stateMutability": "nonpayable",
      "type": "function"
    },
    {
      "inputs": [
        {
          "internalType": "bytes32",
          "name": "role",
          "type": "bytes32"
        },
        {
          "internalType": "address",
          "name": "account",
          "type": "address"
        }
      ],
      "name": "renounceRole",
      "outputs": [],
      "stateMutability": "nonpayable",
      "type": "function"
    },
    {
      "inputs": [
        {
          "internalType": "bytes32",
          "name": "role",
          "type": "bytes32"
        },
        {
          "internalType": "address",
          "name": "account",
          "type": "address"
        }
      ],
      "name": "revokeRole",
      "outputs": [],
      "stateMutability": "nonpayable",
      "type": "function"
    },
    {
      "inputs": [],
      "name": "roninChainId",
      "outputs": [
        {
          "internalType": "uint256",
          "name": "",
          "type": "uint256"
        }
      ],
      "stateMutability": "view",
      "type": "function"
    },
    {
      "inputs": [],
      "name": "roninTrustedOrganizationContract",
      "outputs": [
        {
          "internalType": "address",
          "name": "",
          "type": "address"
        }
      ],
      "stateMutability": "view",
      "type": "function"
    },
    {
      "inputs": [
        {
          "internalType": "uint256",
          "name": "",
          "type": "uint256"
        }
      ],
      "name": "round",
      "outputs": [
        {
          "internalType": "uint256",
          "name": "",
          "type": "uint256"
        }
      ],
      "stateMutability": "view",
      "type": "function"
    },
    {
      "inputs": [
        {
          "internalType": "address",
          "name": "_addr",
          "type": "address"
        }
      ],
      "name": "setBridgeContract",
      "outputs": [],
      "stateMutability": "nonpayable",
      "type": "function"
    },
    {
      "inputs": [
        {
          "internalType": "uint256",
          "name": "_expiryDuration",
          "type": "uint256"
        }
      ],
      "name": "setProposalExpiryDuration",
      "outputs": [],
      "stateMutability": "nonpayable",
      "type": "function"
    },
    {
      "inputs": [
        {
          "internalType": "address",
          "name": "_addr",
          "type": "address"
        }
      ],
      "name": "setRoninTrustedOrganizationContract",
      "outputs": [],
      "stateMutability": "nonpayable",
      "type": "function"
    },
    {
      "inputs": [
        {
          "internalType": "bytes4",
          "name": "interfaceId",
          "type": "bytes4"
        }
      ],
      "name": "supportsInterface",
      "outputs": [
        {
          "internalType": "bool",
          "name": "",
          "type": "bool"
        }
      ],
      "stateMutability": "view",
      "type": "function"
    },
    {
      "inputs": [
        {
          "internalType": "uint256",
          "name": "",
          "type": "uint256"
        },
        {
          "internalType": "uint256",
          "name": "",
          "type": "uint256"
        }
      ],
      "name": "vote",
      "outputs": [
        {
          "internalType": "enum VoteStatusConsumer.VoteStatus",
          "name": "status",
          "type": "uint8"
        },
        {
          "internalType": "bytes32",
          "name": "hash",
          "type": "bytes32"
        },
        {
          "internalType": "uint256",
          "name": "againstVoteWeight",
          "type": "uint256"
        },
        {
          "internalType": "uint256",
          "name": "forVoteWeight",
          "type": "uint256"
        },
        {
          "internalType": "uint256",
          "name": "expiryTimestamp",
          "type": "uint256"
        }
      ],
      "stateMutability": "view",
      "type": "function"
    }
  ],
  "transactionHash": "0x1e9c63cefacab81103635a8f2a6be8550330e3e67168411fe1db1e125d2359f1",
  "args": [
    2020,
    "0x2DA02aC5f19Ae362a4121718d990e655eB628D96",
    "0x7D0556D55ca1a92708681e2e231733EBd922597D",
    "0x64192819ac13ef72bf6b5ae239ac672b43a9af08",
    [
      "0xbb772579dfe08f7c7c73daca0a414fca4c9e57ac",
      "0xE5EB222996967BE79468C28bA39D665fd96E8b30",
      "0x77Ab649Caa7B4b673C9f2cF069900DF48114d79D",
      "0xaaBD1f9bA401F4C56F7717c71C4fD9369Dacf7cE",
      "0x1FE5F98A40602Fc002d57EA803C2d6951649d637",
      "0x60c4b72fc62b3e3a74e283aa9ba20d61dd4d8f1b",
      "0xD5877c63744903a459CCBa94c909CDaAE90575f8",
      "0xD1cF86f5D3fB220730D8d9F06C940EFA8683a2af",
      "0x02201f9bfd2face1b9f9d30d776e77382213da1a",
      "0x58aBcBCAb52dEE942491700CD0DB67826BBAA8C6"
    ]
  ],
  "numDeployments": 1,
  "solcInputHash": "a50a3f056fa24c0b5a230a9cb29a1cb4",
  "bytecode": "0x60806040523480156200001157600080fd5b50604051620045f8380380620045f8833981016040819052620000349162000420565b848383600160ff1b806200004781600455565b506007849055604080516020808201839052601660608301527f524f4e494e5f474f5645524e414e43455f41444d494e000000000000000000006080808401919091528284018890528351808403909101815260a0830184528051908201207f599a80fcaa47b95e2323ab4d34d34e0cc9feda4b843edafcc30c7bdf60ea15bf60c08401527f7e7935007966eb860f4a2ee3dcc9fd53fb3205ce2aa86b0126d4893d4d4c14b960e08401527fad7c5bef027816a800da1736444fb58a807ef4c9603b7848673f7e3a68eb14a5610100840152610120808401919091528351808403909101815261014090920190925280519101206008556200014983620001e4565b620001548262000239565b506200016892506000915086905062000288565b60005b8151811015620001d857620001c37fe2b7fb3b832174769106daebcfd6d1970523240dda11281102db9363b83b0dc4838381518110620001af57620001af62000537565b60200260200101516200029860201b60201c565b80620001cf816200054d565b9150506200016b565b50505050505062000575565b600580546001600160a01b0319166001600160a01b0383169081179091556040519081527ffd6f5f93d69a07c593a09be0b208bff13ab4ffd6017df3b33433d63bdc59b4d7906020015b60405180910390a150565b600680546001600160a01b0319166001600160a01b0383169081179091556040519081527f5cbd8a0bb00196365d5eb3457c6734e7f06666c3c78e5469b4c9deec7edae048906020016200022e565b62000294828262000298565b5050565b620002af8282620002db60201b62000a9d1760201c565b6000828152600160209081526040909120620002d691839062000b216200037b821b17901c565b505050565b6000828152602081815260408083206001600160a01b038516845290915290205460ff1662000294576000828152602081815260408083206001600160a01b03851684529091529020805460ff19166001179055620003373390565b6001600160a01b0316816001600160a01b0316837f2f8788117e7eff1d82e926ec794901d17c78024a50270940304540a733656f0d60405160405180910390a45050565b600062000392836001600160a01b0384166200039b565b90505b92915050565b6000818152600183016020526040812054620003e45750815460018181018455600084815260208082209093018490558454848252828601909352604090209190915562000395565b50600062000395565b80516001600160a01b03811681146200040557600080fd5b919050565b634e487b7160e01b600052604160045260246000fd5b600080600080600060a086880312156200043957600080fd5b8551945060206200044c818801620003ed565b94506200045c60408801620003ed565b93506200046c60608801620003ed565b60808801519093506001600160401b03808211156200048a57600080fd5b818901915089601f8301126200049f57600080fd5b815181811115620004b457620004b46200040a565b8060051b604051601f19603f83011681018181108582111715620004dc57620004dc6200040a565b60405291825284820192508381018501918c831115620004fb57600080fd5b938501935b8285101562000524576200051485620003ed565b8452938501939285019262000500565b8096505050505050509295509295909350565b634e487b7160e01b600052603260045260246000fd5b6000600182016200056e57634e487b7160e01b600052601160045260246000fd5b5060010190565b61407380620005856000396000f3fe608060405234801561001057600080fd5b506004361061015f5760003560e01c806301ffc9a7146101645780630b26cf661461018c57806317ce2dd4146101a1578063204e1c7a146101b8578063248a9ca3146101d85780632e96a6fb146101eb5780632f2ff15d146101fe57806334d5f37b146102115780633644e5151461023157806336568abe1461023a5780635511cde11461024d5780635e05cf9e1461025557806362e52e5f146102685780637d465f791461027d5780637eff275e146102905780638fb7ac7c146102a35780639010d07c146102b657806391d14854146102c9578063926d7d7f146102dc578063a217fddf146102f1578063b384abef146102f9578063b5e337de14610354578063bc96180b14610367578063beb3a6a11461036f578063ca15c87314610382578063cd59658314610395578063d547741f1461039d578063f3b7dead146103b0578063f589262d146103c3575b600080fd5b610177610172366004613067565b6103d6565b60405190151581526020015b60405180910390f35b61019f61019a3660046130a6565b610401565b005b6101aa60075481565b604051908152602001610183565b6101cb6101c63660046130a6565b61045f565b60405161018391906130c3565b6101aa6101e63660046130d7565b61052b565b61019f6101f93660046130d7565b610540565b61019f61020c3660046130f0565b610568565b6101aa61021f3660046130d7565b60026020526000908152604090205481565b6101aa60085481565b61019f6102483660046130f0565b610589565b6101cb610607565b61019f6102633660046131af565b610616565b610270610647565b604051610183919061328f565b61019f61028b3660046132c6565b6106e9565b61019f61029e366004613309565b610722565b6101776102b1366004613337565b610815565b6101cb6102c4366004613337565b61084f565b6101776102d73660046130f0565b61086e565b6101aa60008051602061401e83398151915281565b6101aa600081565b610343610307366004613337565b600360208181526000938452604080852090915291835291208054600182015460028301549383015460069093015460ff909216939092909185565b60405161018395949392919061336f565b61019f6103623660046130a6565b610897565b6101aa6108e9565b61017761037d366004613337565b6108f9565b6101aa6103903660046130d7565b61092a565b6101cb610941565b61019f6103ab3660046130f0565b610950565b6101cb6103be3660046130a6565b61096c565b61019f6103d13660046133a4565b6109b6565b60006001600160e01b03198216635a05180f60e01b14806103fb57506103fb82610b36565b92915050565b3330146104295760405162461bcd60e51b815260040161042090613414565b60405180910390fd5b6000816001600160a01b03163b116104535760405162461bcd60e51b81526004016104209061345b565b61045c81610b6b565b50565b60408051600481526024810182526020810180516001600160e01b0316635c60da1b60e01b908117909152915160009291839182916001600160a01b038716916104a991906134c3565b600060405180830381855afa9150503d80600081146104e4576040519150601f19603f3d011682016040523d82523d6000602084013e6104e9565b606091505b50915091508161050e578260405163411471c360e11b815260040161042091906134df565b8080602001905181019061052291906134f4565b95945050505050565b60009081526020819052604090206001015490565b33301461055f5760405162461bcd60e51b815260040161042090613414565b61045c81600455565b6105718261052b565b61057a81610bc1565b6105848383610bcb565b505050565b6001600160a01b03811633146105f95760405162461bcd60e51b815260206004820152602f60248201527f416363657373436f6e74726f6c3a2063616e206f6e6c792072656e6f756e636560448201526e103937b632b9903337b91039b2b63360891b6064820152608401610420565b6106038282610bed565b5050565b6005546001600160a01b031690565b60008051602061401e83398151915261062e81610bc1565b61063f868686868660085433610c0f565b505050505050565b61066b60405180606001604052806000815260200160008152602001606081525090565b60408051606081018252600980548252600a54602080840191909152600b805485518184028101840187528181529495939493860193928301828280156106db57602002820191906000526020600020905b81546001600160a01b031681526001909101906020018083116106bd575b505050505081525050905090565b60008051602061401e83398151915261070181610bc1565b61063f8686868686600854610714610607565b61071c610941565b33610c6f565b3330146107415760405162461bcd60e51b815260040161042090613414565b6040516308f2839760e41b906000906001600160a01b03851690839061076b9086906024016130c3565b60408051601f198184030181529181526020820180516001600160e01b03166001600160e01b03199094169390931790925290516107a991906134c3565b6000604051808303816000865af19150503d80600081146107e6576040519150601f19603f3d011682016040523d82523d6000602084013e6107eb565b606091505b505090508061080f578160405163411471c360e11b815260040161042091906134df565b50505050565b600080600084815260036020908152604080832086845290915290205460ff16600481111561084657610846613359565b14159392505050565b60008281526001602052604081206108679083610ccf565b9392505050565b6000918252602082815260408084206001600160a01b0393909316845291905290205460ff1690565b3330146108b65760405162461bcd60e51b815260040161042090613414565b6000816001600160a01b03163b116108e05760405162461bcd60e51b81526004016104209061345b565b61045c81610cdb565b60006108f460045490565b905090565b6000806000848152600c6020908152604080832086845290915290205460ff16600481111561084657610846613359565b60008181526001602052604081206103fb90610d26565b6006546001600160a01b031690565b6109598261052b565b61096281610bc1565b6105848383610bed565b60408051600481526024810182526020810180516001600160e01b03166303e1469160e61b908117909152915160009291839182916001600160a01b038716916104a991906134c3565b60008051602061401e8339815191526109ce81610bc1565b6109e48484846109dc610d30565b600854610e4a565b6109ec610941565b6001600160a01b0316634bb5274a63901d627760e01b610a0f6040880188613511565b604051602401610a2092919061355a565b60408051601f198184030181529181526020820180516001600160e01b03166001600160e01b03199485161790525160e084901b9092168252610a65916004016135d4565b600060405180830381600087803b158015610a7f57600080fd5b505af1158015610a93573d6000803e3d6000fd5b5050505050505050565b610aa7828261086e565b610603576000828152602081815260408083206001600160a01b03851684529091529020805460ff19166001179055610add3390565b6001600160a01b0316816001600160a01b0316837f2f8788117e7eff1d82e926ec794901d17c78024a50270940304540a733656f0d60405160405180910390a45050565b6000610867836001600160a01b0384166112f3565b60006001600160e01b03198216637965db0b60e01b14806103fb57506301ffc9a760e01b6001600160e01b03198316146103fb565b600680546001600160a01b0319166001600160a01b0383161790556040517f5cbd8a0bb00196365d5eb3457c6734e7f06666c3c78e5469b4c9deec7edae04890610bb69083906130c3565b60405180910390a150565b61045c8133611342565b610bd58282610a9d565b60008281526001602052604090206105849082610b21565b610bf782826113a6565b6000828152600160205260409020610584908261140b565b610c21610c1b88613841565b82611420565b506000610c35610c3089613841565b61152d565b9050610a93610c4389613841565b88888888610c5b89610c568960006116cc565b611722565b610c6a8a610c568a60016116cc565b611749565b6000610c85610c7d8b613986565b858585611bd7565b90506000610c9a610c958c613986565b611cce565b9050610cc2828b8b8b8b610cb38c610c568960006116cc565b610c6a8d610c568a60016116cc565b5050505050505050505050565b60006108678383611e28565b600580546001600160a01b0319166001600160a01b0383161790556040517ffd6f5f93d69a07c593a09be0b208bff13ab4ffd6017df3b33433d63bdc59b4d790610bb69083906130c3565b60006103fb825490565b6000637de5dedd60e01b8180610d44610607565b6040805160048152602480820183526020820180516001600160e01b03166001600160e01b0319891617905291516001600160a01b039390931692634bb5274a92610d909291016135d4565b6040516020818303038152906040529060e01b6020820180516001600160e01b038381831617835250505050604051610dc991906134c3565b600060405180830381855afa9150503d8060008114610e04576040519150601f19603f3d011682016040523d82523d6000602084013e610e09565b606091505b509150915081610e2e578260405163411471c360e11b815260040161042091906134df565b80806020019051810190610e429190613a50565b935050505090565b600954853510801590610e625750600a546020860135115b610ed15760405162461bcd60e51b815260206004820152603a60248201527f424f73476f7665726e616e636552656c61793a20717565727920666f72206f756044820152791d19185d195908189c9a5919d9481bdc195c985d1bdc881cd95d60321b6064820152608401610420565b610eda85611e52565b610f8f610eea6040870187613511565b8080602002602001604051908101604052809392919081815260200183836020028082843760009201919091525050600b805460408051602080840282018101909252828152945091925090830182828015610f6f57602002820191906000526020600020905b81546001600160a01b03168152600190910190602001808311610f51575b505050505081516020908102928101929092208151830291909201201490565b15610ffd5760405162461bcd60e51b815260206004820152603860248201527f424f73476f7665726e616e636552656c61793a20627269646765206f706572616044820152771d1bdc881cd95d081a5cc8185b1c9958591e481d9bdd195960421b6064820152608401610420565b8261105b5760405162461bcd60e51b815260206004820152602860248201527f424f73476f7665726e616e636552656c61793a20696e76616c696420617272616044820152670f240d8cadccee8d60c31b6064820152608401610420565b366000846001600160401b03811115611076576110766135e7565b60405190808252806020026020018201604052801561109f578160200160208202803683370190505b5090506000806110ae8961200d565b905060006110bc8683611722565b905060005b888110156111eb578989828181106110db576110db613a69565b6060029190910196506111069050826110f76020890189613a7f565b886020013589604001356120bf565b85828151811061111857611118613a69565b60200260200101906001600160a01b031690816001600160a01b03168152505084818151811061114a5761114a613a69565b60200260200101516001600160a01b0316846001600160a01b0316106111bc5760405162461bcd60e51b815260206004820152602160248201527f424f73476f7665726e616e636552656c61793a20696e76616c6964206f7264656044820152603960f91b6064820152608401610420565b8481815181106111ce576111ce613a69565b6020026020010151935080806111e390613ab8565b9150506110c1565b5089356000908152600c60209081526040808320828e01358452909152812090611214866120e7565b90508881106112a4576000811161127d5760405162461bcd60e51b815260206004820152602760248201527f424f73476f7665726e616e636552656c61793a20696e76616c696420766f7465604482015266081dd95a59da1d60ca1b6064820152608401610420565b815460ff191660011782558b60096112958282613af5565b905050505050505050506112ec565b60405162461bcd60e51b815260206004820181905260248201527f424f73476f7665726e616e636552656c61793a2072656c6179206661696c65646044820152606401610420565b5050505050565b600081815260018301602052604081205461133a575081546001818101845560008481526020808220909301849055845484825282860190935260409020919091556103fb565b5060006103fb565b61134c828261086e565b61060357611364816001600160a01b0316601461220e565b61136f83602061220e565b604051602001611380929190613bc3565b60408051601f198184030181529082905262461bcd60e51b8252610420916004016135d4565b6113b0828261086e565b15610603576000828152602081815260408083206001600160a01b0385168085529252808320805460ff1916905551339285917ff6391f5c32d9c69d2a47ea670b442974b53935d1edc7fd64eb21e047a839171b9190a45050565b6000610867836001600160a01b0384166123a9565b60208201516000908082036114775760405162461bcd60e51b815260206004820181905260248201527f436f7265476f7665726e616e63653a20696e76616c696420636861696e2069646044820152606401610420565b60045461148590859061249c565b60006114908561152d565b905061149b82612598565b60008381526003602090815260408083208484529091529081902090870151600182018490556006909101559250845183146114e95760405162461bcd60e51b815260040161042090613c32565b8083837fa57d40f1496988cf60ab7c9d5ba4ff83647f67d3898d441a3aaf21b651678fd9888860405161151d929190613d7d565b60405180910390a4505092915050565b6000806000806000808660800151905060008760600151905060008860a00151516001600160401b03811115611565576115656135e7565b60405190808252806020026020018201604052801561158e578160200160208202803683370190505b5060c08a015190915060005b82518110156115f7578a60a0015181815181106115b9576115b9613a69565b6020026020010151805190602001208382815181106115da576115da613a69565b6020908102919091010152806115ef81613ab8565b91505061159a565b506020835102602084012097506020845102602085012096506020825102602083012095506020815102602082012094507fd051578048e6ff0bbc9fca3b65a42088dbde10f36ca841de566711087ad9b08a60001b8a600001518b602001518c604001518b8b8b8b6040516020016116a7989796959493929190978852602088019690965260408701949094526060860192909252608085015260a084015260c083015260e08201526101000190565b6040516020818303038152906040528051906020012098505050505050505050919050565b604051600090611704907fd900570327c4c0df8dd6bdd522b7da7e39145dd049d2fd4602276adcd511e3c29085908590602001613db7565b60405160208183030381529060405280519060200120905092915050565b60405161190160f01b60208201526022810183905260428101829052600090606201611704565b841580159061175757508483145b6117b15760405162461bcd60e51b815260206004820152602560248201527f476f7665726e616e636552656c61793a20696e76616c6964206172726179206c6044820152640cadccee8d60db1b6064820152608401610420565b60008080856001600160401b038111156117cd576117cd6135e7565b6040519080825280602002602001820160405280156117f6578160200160208202803683370190505b5090506000866001600160401b03811115611813576118136135e7565b60405190808252806020026020018201604052801561183c578160200160208202803683370190505b50905060008060003660005b8b811015611a32578c8c8281811061186257611862613a69565b90506060020191508e8e8281811061187c5761187c613a69565b90506020020160208101906118919190613ddc565b925060008360018111156118a7576118a7613359565b03611911576118cc8b6118bd6020850185613a7f565b846020013585604001356120bf565b945084878a6118da81613ab8565b9b50815181106118ec576118ec613a69565b60200260200101906001600160a01b031690816001600160a01b0316815250506119bc565b600183600181111561192557611925613359565b0361195b5761193b8a6118bd6020850185613a7f565b945084868961194981613ab8565b9a50815181106118ec576118ec613a69565b60405162461bcd60e51b815260206004820152603060248201527f476f7665726e616e636552656c61793a20717565727920666f7220756e73757060448201526f706f7274656420766f7465207479706560801b6064820152608401610420565b846001600160a01b0316846001600160a01b031610611a1d5760405162461bcd60e51b815260206004820152601e60248201527f476f7665726e616e636552656c61793a20696e76616c6964206f7264657200006044820152606401610420565b84935080611a2a81613ab8565b915050611848565b50505085845250508281526020808c015160009081526003825260408082208e51835290925290812090611a64610d30565b90506000611a7185612689565b9050818110611ae95760008111611a9a5760405162461bcd60e51b815260040161042090613df9565b825460ff1916600190811784558301546040517f5c819725ea53655a3b898f3df59b66489761935454e9212ca1e5ebd759953d0b90600090a2611add838f61269d565b50505050505050611bce565b600082611af461270a565b611afe9190613e3d565b611b09906001613e50565b90506000611b1686612689565b9050818110611b865760008111611b3f5760405162461bcd60e51b815260040161042090613df9565b845460ff1916600317855560018501546040517f55295d4ce992922fa2e5ffbf3a3dcdb367de0a15e125ace083456017fd22060f90600090a2505050505050505050611bce565b60405162461bcd60e51b815260206004820152601d60248201527f476f7665726e616e636552656c61793a2072656c6179206661696c65640000006044820152606401610420565b50505050505050565b611bdf612ff8565b611bea85858561271e565b9050611c016004548261249c90919063ffffffff16565b6000611c0c8261152d565b90506000611c1a6000612598565b60008181527f3617319a054d772f909f7c479a2cebe5066e836a939412e32403c99029b92eff602090815260409091209089015160018201859055600690910155905082518114611c7d5760405162461bcd60e51b815260040161042090613c32565b81817f771d78ae9e5fca95a532fb0971d575d0ce9b59d14823c063e08740137e0e0eca85611caa8b611cce565b8b89604051611cbc9493929190613e63565b60405180910390a35050949350505050565b6000806000806000808660600151905060008760400151905060008860800151516001600160401b03811115611d0657611d066135e7565b604051908082528060200260200182016040528015611d2f578160200160208202803683370190505b5060a08a015190915060005b8251811015611d98578a608001518181518110611d5a57611d5a613a69565b602002602001015180519060200120838281518110611d7b57611d7b613a69565b602090810291909101015280611d9081613ab8565b915050611d3b565b5082516020908102848201208551820286830120845183028584012084518402858501208e518f860151604080517f1463f426c05aff2c1a7a0957a71c9898bc8b47142540538e79ee25ee911413509881019890985287019190915260608601526080850184905260a0850183905260c0850182905260e08501819052929b5090995097509550610100016116a7565b6000826000018281548110611e3f57611e3f613a69565b9060005260206000200154905092915050565b6000611e616040830183613511565b905011611ec45760405162461bcd60e51b815260206004820152602b60248201527f4272696467654f70657261746f727342616c6c6f743a20696e76616c6964206160448201526a0e4e4c2f240d8cadccee8d60ab1b6064820152608401610420565b6000611ed36040830183613511565b6000818110611ee457611ee4613a69565b9050602002016020810190611ef991906130a6565b905060015b611f0b6040840184613511565b905081101561058457611f216040840184613511565b82818110611f3157611f31613a69565b9050602002016020810190611f4691906130a6565b6001600160a01b0316826001600160a01b031610611fc75760405162461bcd60e51b815260206004820152603860248201527f4272696467654f70657261746f727342616c6c6f743a20696e76616c6964206f60448201527772646572206f6620627269646765206f70657261746f727360401b6064820152608401610420565b611fd46040840184613511565b82818110611fe457611fe4613a69565b9050602002016020810190611ff991906130a6565b91508061200581613ab8565b915050611efe565b6000808061201e6040850185613511565b80806020026020016040519081016040528093929190818152602001838360200280828437600092019190915250508251602090810293810193909320604080517fd679a49e9e099fa9ed83a5446aaec83e746b03ec6723d6f5efb29d37d7f0b78a818701528935818301529885013560608a01526080808a01929092528051808a03909201825260a0909801909752505084519401939093209392505050565b60008060006120d0878787876128ec565b915091506120dd816129cf565b5095945050505050565b600063d9d5dadb60e01b81806120fb610607565b6001600160a01b0316634bb5274a848760405160240161211b9190613f4a565b60408051601f198184030181529181526020820180516001600160e01b03166001600160e01b031990941693909317909252905161215c91906024016135d4565b6040516020818303038152906040529060e01b6020820180516001600160e01b03838183161783525050505060405161219591906134c3565b600060405180830381855afa9150503d80600081146121d0576040519150601f19603f3d011682016040523d82523d6000602084013e6121d5565b606091505b5091509150816121fa578260405163411471c360e11b815260040161042091906134df565b808060200190518101906105229190613a50565b6060600061221d836002613ad1565b612228906002613e50565b6001600160401b0381111561223f5761223f6135e7565b6040519080825280601f01601f191660200182016040528015612269576020820181803683370190505b509050600360fc1b8160008151811061228457612284613a69565b60200101906001600160f81b031916908160001a905350600f60fb1b816001815181106122b3576122b3613a69565b60200101906001600160f81b031916908160001a90535060006122d7846002613ad1565b6122e2906001613e50565b90505b600181111561235a576f181899199a1a9b1b9c1cb0b131b232b360811b85600f166010811061231657612316613a69565b1a60f81b82828151811061232c5761232c613a69565b60200101906001600160f81b031916908160001a90535060049490941c9361235381613f97565b90506122e5565b5083156108675760405162461bcd60e51b815260206004820181905260248201527f537472696e67733a20686578206c656e67746820696e73756666696369656e746044820152606401610420565b600081815260018301602052604081205480156124925760006123cd600183613e3d565b85549091506000906123e190600190613e3d565b905081811461244657600086600001828154811061240157612401613a69565b906000526020600020015490508087600001848154811061242457612424613a69565b6000918252602080832090910192909255918252600188019052604090208390555b855486908061245757612457613fae565b6001900381819060005260206000200160009055905585600101600086815260200190815260200160002060009055600193505050506103fb565b60009150506103fb565b60008260600151511180156124ba5750816080015151826060015151145b80156124cf57508160a0015151826060015151145b80156124e457508160c0015151826060015151145b6125305760405162461bcd60e51b815260206004820152601e60248201527f50726f706f73616c3a20696e76616c6964206172726179206c656e67746800006044820152606401610420565b61253a8142613e50565b826040015111156106035760405162461bcd60e51b815260206004820152602260248201527f50726f706f73616c3a20696e76616c6964206578706972792074696d6573746160448201526106d760f41b6064820152608401610420565b600081815260026020526040812054908190036125c75750600090815260026020526040902060019081905590565b60008281526003602090815260408083208484529091528120906000825460ff1660048111156125f9576125f9613359565b036126605760405162461bcd60e51b815260206004820152603160248201527f436f7265476f7665726e616e63653a2063757272656e742070726f706f73616c604482015270081a5cc81b9bdd0818dbdb5c1b195d1959607a1b6064820152608401610420565b6000848152600260205260408120805490919061267c90613ab8565b9182905550949350505050565b6000635f14a1c360e01b81806120fb610607565b6126a681612d3e565b1561060357815460ff191660021782556000806126c283612d58565b9150915083600101547fe134987599ae266ec90edeff1b26125b287dbb57b10822649432d1bb26537fba83836040516126fc929190613fc4565b60405180910390a250505050565b600063926323d560e01b8180610d44610607565b612726612ff8565b83518152602080850151604080840191909152600091830191909152840151516001600160401b0381111561275d5761275d6135e7565b604051908082528060200260200182016040528015612786578160200160208202803683370190505b5060608083019190915284015160808083019190915284015160a08083019190915284015160c082015260005b8460400151518110156128e4576001856040015182815181106127d8576127d8613a69565b602002602001015160018111156127f1576127f1613359565b0361283257828260600151828151811061280d5761280d613a69565b60200260200101906001600160a01b031690816001600160a01b0316815250506128d2565b60008560400151828151811061284a5761284a613a69565b6020026020010151600181111561286357612863613359565b0361287f57838260600151828151811061280d5761280d613a69565b60405162461bcd60e51b815260206004820152602260248201527f476c6f62616c50726f706f73616c3a20756e737570706f727465642074617267604482015261195d60f21b6064820152608401610420565b806128dc81613ab8565b9150506127b3565b509392505050565b6000806fa2a8918ca85bafe22016d0b997e4df60600160ff1b0383111561291957506000905060036129c6565b8460ff16601b1415801561293157508460ff16601c14155b1561294257506000905060046129c6565b6040805160008082526020820180845289905260ff881692820192909252606081018690526080810185905260019060a0016020604051602081039080840390855afa158015612996573d6000803e3d6000fd5b5050604051601f1901519150506001600160a01b0381166129bf576000600192509250506129c6565b9150600090505b94509492505050565b60008160048111156129e3576129e3613359565b036129eb5750565b60018160048111156129ff576129ff613359565b03612a475760405162461bcd60e51b815260206004820152601860248201527745434453413a20696e76616c6964207369676e617475726560401b6044820152606401610420565b6002816004811115612a5b57612a5b613359565b03612aa85760405162461bcd60e51b815260206004820152601f60248201527f45434453413a20696e76616c6964207369676e6174757265206c656e677468006044820152606401610420565b6003816004811115612abc57612abc613359565b03612b145760405162461bcd60e51b815260206004820152602260248201527f45434453413a20696e76616c6964207369676e6174757265202773272076616c604482015261756560f01b6064820152608401610420565b6004816004811115612b2857612b28613359565b0361045c5760405162461bcd60e51b815260206004820152602260248201527f45434453413a20696e76616c6964207369676e6174757265202776272076616c604482015261756560f01b6064820152608401610420565b6004830154811015612c3957826008016000846004018381548110612ba757612ba7613a69565b60009182526020808320909101546001600160a01b031683528201929092526040018120805460ff191690556004840180546007860192919084908110612bf057612bf0613a69565b60009182526020808320909101546001600160a01b031683528201929092526040018120805460ff19168155600181018290556002015580612c3181613ab8565b915050612b80565b5060005b6005830154811015612cf657826008016000846005018381548110612c6457612c64613a69565b60009182526020808320909101546001600160a01b031683528201929092526040018120805460ff191690556005840180546007860192919084908110612cad57612cad613a69565b60009182526020808320909101546001600160a01b031683528201929092526040018120805460ff19168155600181018290556002015580612cee81613ab8565b915050612c3d565b50815460ff191682556000600183018190556002830181905560038301819055612d24906004840190613035565b612d32600583016000613035565b60006006830155919050565b60008160200151600014806103fb57505060200151461490565b606080612d6483612d3e565b612dbc5760405162461bcd60e51b815260206004820152602360248201527f50726f706f73616c3a20717565727920666f7220696e76616c696420636861696044820152621b925960ea1b6064820152608401610420565b8260600151516001600160401b03811115612dd957612dd96135e7565b604051908082528060200260200182016040528015612e02578160200160208202803683370190505b5091508260600151516001600160401b03811115612e2257612e226135e7565b604051908082528060200260200182016040528015612e5557816020015b6060815260200190600190039081612e405790505b50905060005b836060015151811015612ff2578360c001518181518110612e7e57612e7e613a69565b60200260200101515a11612ed15760405162461bcd60e51b815260206004820152601a60248201527950726f706f73616c3a20696e73756666696369656e742067617360301b6044820152606401610420565b83606001518181518110612ee757612ee7613a69565b60200260200101516001600160a01b031684608001518281518110612f0e57612f0e613a69565b60200260200101518560c001518381518110612f2c57612f2c613a69565b6020026020010151908660a001518481518110612f4b57612f4b613a69565b6020026020010151604051612f6091906134c3565b600060405180830381858888f193505050503d8060008114612f9e576040519150601f19603f3d011682016040523d82523d6000602084013e612fa3565b606091505b50848381518110612fb657612fb6613a69565b60200260200101848481518110612fcf57612fcf613a69565b60209081029190910101919091529015159052612feb81613ab8565b9050612e5b565b50915091565b6040518060e00160405280600081526020016000815260200160008152602001606081526020016060815260200160608152602001606081525090565b508054600082559060005260206000209081019061045c91905b80821115613063576000815560010161304f565b5090565b60006020828403121561307957600080fd5b81356001600160e01b03198116811461086757600080fd5b6001600160a01b038116811461045c57600080fd5b6000602082840312156130b857600080fd5b813561086781613091565b6001600160a01b0391909116815260200190565b6000602082840312156130e957600080fd5b5035919050565b6000806040838503121561310357600080fd5b82359150602083013561311581613091565b809150509250929050565b60008083601f84011261313257600080fd5b5081356001600160401b0381111561314957600080fd5b6020830191508360208260051b850101111561316457600080fd5b9250929050565b60008083601f84011261317d57600080fd5b5081356001600160401b0381111561319457600080fd5b60208301915083602060608302850101111561316457600080fd5b6000806000806000606086880312156131c757600080fd5b85356001600160401b03808211156131de57600080fd5b9087019060e0828a0312156131f257600080fd5b9095506020870135908082111561320857600080fd5b61321489838a01613120565b9096509450604088013591508082111561322d57600080fd5b5061323a8882890161316b565b969995985093965092949392505050565b600081518084526020808501945080840160005b838110156132845781516001600160a01b03168752958201959082019060010161325f565b509495945050505050565b602081528151602082015260208201516040820152600060408301516060808401526132be608084018261324b565b949350505050565b6000806000806000606086880312156132de57600080fd5b85356001600160401b03808211156132f557600080fd5b9087019060c0828a0312156131f257600080fd5b6000806040838503121561331c57600080fd5b823561332781613091565b9150602083013561311581613091565b6000806040838503121561334a57600080fd5b50508035926020909101359150565b634e487b7160e01b600052602160045260246000fd5b60a081016005871061338357613383613359565b95815260208101949094526040840192909252606083015260809091015290565b6000806000604084860312156133b957600080fd5b83356001600160401b03808211156133d057600080fd5b90850190606082880312156133e457600080fd5b909350602085013590808211156133fa57600080fd5b506134078682870161316b565b9497909650939450505050565b60208082526027908201527f476f7665726e616e636541646d696e3a206f6e6c7920616c6c6f7765642073656040820152661b198b58d85b1b60ca1b606082015260800190565b60208082526024908201527f476f7665726e616e636541646d696e3a2073657420746f206e6f6e2d636f6e746040820152631c9858dd60e21b606082015260800190565b60005b838110156134ba5781810151838201526020016134a2565b50506000910152565b600082516134d581846020870161349f565b9190910192915050565b6001600160e01b031991909116815260200190565b60006020828403121561350657600080fd5b815161086781613091565b6000808335601e1984360301811261352857600080fd5b8301803591506001600160401b0382111561354257600080fd5b6020019150600581901b360382131561316457600080fd5b60208082528181018390526000908460408401835b8681101561359d57823561358281613091565b6001600160a01b03168252918301919083019060010161356f565b509695505050505050565b600081518084526135c081602086016020860161349f565b601f01601f19169290920160200192915050565b60208152600061086760208301846135a8565b634e487b7160e01b600052604160045260246000fd5b60405160e081016001600160401b038111828210171561361f5761361f6135e7565b60405290565b60405160c081016001600160401b038111828210171561361f5761361f6135e7565b604051601f8201601f191681016001600160401b038111828210171561366f5761366f6135e7565b604052919050565b60006001600160401b03821115613690576136906135e7565b5060051b60200190565b600082601f8301126136ab57600080fd5b813560206136c06136bb83613677565b613647565b82815260059290921b840181019181810190868411156136df57600080fd5b8286015b8481101561359d5780356136f681613091565b83529183019183016136e3565b600082601f83011261371457600080fd5b813560206137246136bb83613677565b82815260059290921b8401810191818101908684111561374357600080fd5b8286015b8481101561359d5780358352918301918301613747565b6000601f838184011261377057600080fd5b823560206137806136bb83613677565b82815260059290921b8501810191818101908784111561379f57600080fd5b8287015b848110156138355780356001600160401b03808211156137c35760008081fd5b818a0191508a603f8301126137d85760008081fd5b858201356040828211156137ee576137ee6135e7565b6137ff828b01601f19168901613647565b92508183528c818386010111156138165760008081fd5b81818501898501375060009082018701528452509183019183016137a3565b50979650505050505050565b600060e0823603121561385357600080fd5b61385b6135fd565b82358152602080840135908201526040808401359082015260608301356001600160401b038082111561388d57600080fd5b6138993683870161369a565b606084015260808501359150808211156138b257600080fd5b6138be36838701613703565b608084015260a08501359150808211156138d757600080fd5b6138e33683870161375e565b60a084015260c08501359150808211156138fc57600080fd5b5061390936828601613703565b60c08301525092915050565b6002811061045c57600080fd5b600082601f83011261393357600080fd5b813560206139436136bb83613677565b82815260059290921b8401810191818101908684111561396257600080fd5b8286015b8481101561359d57803561397981613915565b8352918301918301613966565b600060c0823603121561399857600080fd5b6139a0613625565b823581526020808401359082015260408301356001600160401b03808211156139c857600080fd5b6139d436838701613922565b604084015260608501359150808211156139ed57600080fd5b6139f936838701613703565b60608401526080850135915080821115613a1257600080fd5b613a1e3683870161375e565b608084015260a0850135915080821115613a3757600080fd5b50613a4436828601613703565b60a08301525092915050565b600060208284031215613a6257600080fd5b5051919050565b634e487b7160e01b600052603260045260246000fd5b600060208284031215613a9157600080fd5b813560ff8116811461086757600080fd5b634e487b7160e01b600052601160045260246000fd5b600060018201613aca57613aca613aa2565b5060010190565b80820281158282048414176103fb576103fb613aa2565b600081356103fb81613091565b81358155600160208084013582840155600283016040850135601e19863603018112613b2057600080fd5b850180356001600160401b03811115613b3857600080fd5b83820191508060051b3603821315613b4f57600080fd5b600160401b811115613b6357613b636135e7565b825481845580821015613b975760008481528581208381019083015b80821015613b935782825590880190613b7f565b5050505b50600092835260208320925b81811015610a9357613bb483613ae8565b84820155918401918501613ba3565b76020b1b1b2b9b9a1b7b73a3937b61d1030b1b1b7bab73a1604d1b815260008351613bf581601785016020880161349f565b7001034b99036b4b9b9b4b733903937b6329607d1b6017918401918201528351613c2681602884016020880161349f565b01602801949350505050565b60208082526026908201527f436f7265476f7665726e616e63653a20696e76616c69642070726f706f73616c604082015265206e6f6e636560d01b606082015260800190565b600081518084526020808501945080840160005b8381101561328457815187529582019590820190600101613c8c565b600081518084526020808501808196508360051b8101915082860160005b85811015613cf0578284038952613cde8483516135a8565b98850198935090840190600101613cc6565b5091979650505050505050565b8051825260208101516020830152604081015160408301526000606082015160e06060850152613d3060e085018261324b565b905060808301518482036080860152613d498282613c78565b91505060a083015184820360a0860152613d638282613ca8565b91505060c083015184820360c08601526105228282613c78565b604081526000613d906040830185613cfd565b905060018060a01b03831660208301529392505050565b6002811061045c5761045c613359565b8381526020810183905260608101613dce83613da7565b826040830152949350505050565b600060208284031215613dee57600080fd5b813561086781613915565b60208082526024908201527f476f7665726e616e636552656c61793a20696e76616c696420766f74652077656040820152631a59da1d60e21b606082015260800190565b818103818111156103fb576103fb613aa2565b808201808211156103fb576103fb613aa2565b608081526000613e766080830187613cfd565b60208681850152838203604085015260c08201865183528187015182840152604087015160c0604085015281815180845260e0860191508483019350600092505b80831015613ee0578351613eca81613da7565b8252928401926001929092019190840190613eb7565b50606089015193508481036060860152613efa8185613c78565b935050505060808601518282036080840152613f168282613ca8565b91505060a086015182820360a0840152613f308282613c78565b935050505061052260608301846001600160a01b03169052565b6020808252825182820181905260009190848201906040850190845b81811015613f8b5783516001600160a01b031683529284019291840191600101613f66565b50909695505050505050565b600081613fa657613fa6613aa2565b506000190190565b634e487b7160e01b600052603160045260246000fd5b604080825283519082018190526000906020906060840190828701845b82811015613fff578151151584529284019290840190600101613fe1565b505050838103828501526140138186613ca8565b969550505050505056fee2b7fb3b832174769106daebcfd6d1970523240dda11281102db9363b83b0dc4a26469706673582212200a3e1e2c8354bcb14a5213b1347f50f3d071b26b5f1e5bbec4222f9c75e70f0c64736f6c63430008110033",
  "devdoc": {
    "errors": {
      "ErrCallerMustBeBridgeContract()": [
        {
          "details": "Error of method caller must be bridge contract."
        }
      ],
      "ErrCallerMustBeRoninTrustedOrgContract()": [
        {
          "details": "Error of method caller must be Ronin trusted org contract."
        }
      ],
      "ErrZeroCodeContract()": [
        {
          "details": "Error of set to non-contract."
        }
      ]
    },
    "kind": "dev",
    "methods": {
      "bridgeContract()": {
        "details": "Returns the bridge contract."
      },
      "bridgeOperatorsRelayed(uint256,uint256)": {
        "details": "Returns whether the voter `_voter` casted vote for bridge operators at a specific period."
      },
      "changeProxyAdmin(address,address)": {
        "details": "Changes the admin of `_proxy` to `newAdmin`. Requirements: - This contract must be the current admin of `_proxy`."
      },
      "getProposalExpiryDuration()": {
        "details": "Returns the proposal expiry duration."
      },
      "getProxyAdmin(address)": {
        "details": "Returns the current admin of `_proxy`. Requirements: - This contract must be the admin of `_proxy`."
      },
      "getProxyImplementation(address)": {
        "details": "Returns the current implementation of `_proxy`. Requirements: - This contract must be the admin of `_proxy`."
      },
      "getRoleAdmin(bytes32)": {
        "details": "Returns the admin role that controls `role`. See {grantRole} and {revokeRole}. To change a role's admin, use {_setRoleAdmin}."
      },
      "getRoleMember(bytes32,uint256)": {
        "details": "Returns one of the accounts that have `role`. `index` must be a value between 0 and {getRoleMemberCount}, non-inclusive. Role bearers are not sorted in any particular way, and their ordering may change at any point. WARNING: When using {getRoleMember} and {getRoleMemberCount}, make sure you perform all queries on the same block. See the following https://forum.openzeppelin.com/t/iterating-over-elements-on-enumerableset-in-openzeppelin-contracts/2296[forum post] for more information."
      },
      "getRoleMemberCount(bytes32)": {
        "details": "Returns the number of accounts that have `role`. Can be used together with {getRoleMember} to enumerate all bearers of a role."
      },
      "grantRole(bytes32,address)": {
        "details": "Grants `role` to `account`. If `account` had not been already granted `role`, emits a {RoleGranted} event. Requirements: - the caller must have ``role``'s admin role. May emit a {RoleGranted} event."
      },
      "hasRole(bytes32,address)": {
        "details": "Returns `true` if `account` has been granted `role`."
      },
      "lastSyncedBridgeOperatorSetInfo()": {
        "details": "Returns the synced bridge operator set info."
      },
      "proposalRelayed(uint256,uint256)": {
        "details": "Returns whether the voter `_voter` casted vote for the proposal."
      },
      "relayBridgeOperators((uint256,uint256,address[]),(uint8,bytes32,bytes32)[])": {
        "details": "See `BOsGovernanceRelay-_relayVotesBySignatures`. Requirements: - The method caller is relayer."
      },
      "relayGlobalProposal((uint256,uint256,uint8[],uint256[],bytes[],uint256[]),uint8[],(uint8,bytes32,bytes32)[])": {
        "details": "See `GovernanceRelay-_relayGlobalProposal`. Requirements: - The method caller is relayer."
      },
      "relayProposal((uint256,uint256,uint256,address[],uint256[],bytes[],uint256[]),uint8[],(uint8,bytes32,bytes32)[])": {
        "details": "See `GovernanceRelay-_relayProposal`. Requirements: - The method caller is relayer."
      },
      "renounceRole(bytes32,address)": {
        "details": "Revokes `role` from the calling account. Roles are often managed via {grantRole} and {revokeRole}: this function's purpose is to provide a mechanism for accounts to lose their privileges if they are compromised (such as when a trusted device is misplaced). If the calling account had been revoked `role`, emits a {RoleRevoked} event. Requirements: - the caller must be `account`. May emit a {RoleRevoked} event."
      },
      "revokeRole(bytes32,address)": {
        "details": "Revokes `role` from `account`. If `account` had been granted `role`, emits a {RoleRevoked} event. Requirements: - the caller must have ``role``'s admin role. May emit a {RoleRevoked} event."
      },
      "roninTrustedOrganizationContract()": {
        "details": "Returns the ronin trusted organization contract."
      },
      "setBridgeContract(address)": {
        "details": "Sets the bridge contract. Requirements: - The method caller is admin. - The new address is a contract. Emits the event `BridgeContractUpdated`."
      },
      "setProposalExpiryDuration(uint256)": {
        "details": "Sets the expiry duration for a new proposal. Requirements: - Only allowing self-call to this method, since this contract does not have admin."
      },
      "setRoninTrustedOrganizationContract(address)": {
        "details": "Sets the ronin trusted organization contract. Requirements: - The method caller is admin. - The new address is a contract. Emits the event `RoninTrustedOrganizationContractUpdated`."
      },
      "supportsInterface(bytes4)": {
        "details": "See {IERC165-supportsInterface}."
      }
    },
    "version": 1
  },
  "userdoc": {
    "kind": "user",
    "methods": {
      "round(uint256)": {
        "notice": "chain id = 0 for global proposal"
      }
    },
    "version": 1
  },
  "storageLayout": {
    "storage": [
      {
        "astId": 24,
        "contract": "contracts/mainchain/MainchainGovernanceAdmin.sol:MainchainGovernanceAdmin",
        "label": "_roles",
        "offset": 0,
        "slot": "0",
        "type": "t_mapping(t_bytes32,t_struct(RoleData)19_storage)"
      },
      {
        "astId": 338,
        "contract": "contracts/mainchain/MainchainGovernanceAdmin.sol:MainchainGovernanceAdmin",
        "label": "_roleMembers",
        "offset": 0,
        "slot": "1",
        "type": "t_mapping(t_bytes32,t_struct(AddressSet)4026_storage)"
      },
      {
        "astId": 7413,
        "contract": "contracts/mainchain/MainchainGovernanceAdmin.sol:MainchainGovernanceAdmin",
        "label": "round",
        "offset": 0,
        "slot": "2",
        "type": "t_mapping(t_uint256,t_uint256)"
      },
      {
        "astId": 7421,
        "contract": "contracts/mainchain/MainchainGovernanceAdmin.sol:MainchainGovernanceAdmin",
        "label": "vote",
        "offset": 0,
        "slot": "3",
        "type": "t_mapping(t_uint256,t_mapping(t_uint256,t_struct(ProposalVote)7339_storage))"
      },
      {
        "astId": 7423,
        "contract": "contracts/mainchain/MainchainGovernanceAdmin.sol:MainchainGovernanceAdmin",
        "label": "_proposalExpiryDuration",
        "offset": 0,
        "slot": "4",
        "type": "t_uint256"
      },
      {
        "astId": 6735,
        "contract": "contracts/mainchain/MainchainGovernanceAdmin.sol:MainchainGovernanceAdmin",
        "label": "_roninTrustedOrganizationContract",
        "offset": 0,
        "slot": "5",
        "type": "t_contract(IRoninTrustedOrganization)10182"
      },
      {
        "astId": 6386,
        "contract": "contracts/mainchain/MainchainGovernanceAdmin.sol:MainchainGovernanceAdmin",
        "label": "_bridgeContract",
        "offset": 0,
        "slot": "6",
        "type": "t_contract(IBridge)9212"
      },
      {
        "astId": 4545,
        "contract": "contracts/mainchain/MainchainGovernanceAdmin.sol:MainchainGovernanceAdmin",
        "label": "roninChainId",
        "offset": 0,
        "slot": "7",
        "type": "t_uint256"
      },
      {
        "astId": 4548,
        "contract": "contracts/mainchain/MainchainGovernanceAdmin.sol:MainchainGovernanceAdmin",
        "label": "DOMAIN_SEPARATOR",
        "offset": 0,
        "slot": "8",
        "type": "t_bytes32"
      },
      {
        "astId": 6158,
        "contract": "contracts/mainchain/MainchainGovernanceAdmin.sol:MainchainGovernanceAdmin",
        "label": "_lastSyncedBridgeOperatorSetInfo",
        "offset": 0,
        "slot": "9",
        "type": "t_struct(BridgeOperatorSet)12478_storage"
      },
      {
        "astId": 6166,
        "contract": "contracts/mainchain/MainchainGovernanceAdmin.sol:MainchainGovernanceAdmin",
        "label": "_vote",
        "offset": 0,
        "slot": "12",
        "type": "t_mapping(t_uint256,t_mapping(t_uint256,t_struct(Vote)12979_storage))"
      }
    ],
    "types": {
      "t_address": {
        "encoding": "inplace",
        "label": "address",
        "numberOfBytes": "20"
      },
      "t_array(t_address)dyn_storage": {
        "base": "t_address",
        "encoding": "dynamic_array",
        "label": "address[]",
        "numberOfBytes": "32"
      },
      "t_array(t_bytes32)dyn_storage": {
        "base": "t_bytes32",
        "encoding": "dynamic_array",
        "label": "bytes32[]",
        "numberOfBytes": "32"
      },
      "t_bool": {
        "encoding": "inplace",
        "label": "bool",
        "numberOfBytes": "1"
      },
      "t_bytes32": {
        "encoding": "inplace",
        "label": "bytes32",
        "numberOfBytes": "32"
      },
      "t_contract(IBridge)9212": {
        "encoding": "inplace",
        "label": "contract IBridge",
        "numberOfBytes": "20"
      },
      "t_contract(IRoninTrustedOrganization)10182": {
        "encoding": "inplace",
        "label": "contract IRoninTrustedOrganization",
        "numberOfBytes": "20"
      },
      "t_enum(VoteStatus)10571": {
        "encoding": "inplace",
        "label": "enum VoteStatusConsumer.VoteStatus",
        "numberOfBytes": "1"
      },
      "t_mapping(t_address,t_bool)": {
        "encoding": "mapping",
        "key": "t_address",
        "label": "mapping(address => bool)",
        "numberOfBytes": "32",
        "value": "t_bool"
      },
      "t_mapping(t_address,t_bytes32)": {
        "encoding": "mapping",
        "key": "t_address",
        "label": "mapping(address => bytes32)",
        "numberOfBytes": "32",
        "value": "t_bytes32"
      },
      "t_mapping(t_address,t_struct(Signature)10562_storage)": {
        "encoding": "mapping",
        "key": "t_address",
        "label": "mapping(address => struct SignatureConsumer.Signature)",
        "numberOfBytes": "32",
        "value": "t_struct(Signature)10562_storage"
      },
      "t_mapping(t_bytes32,t_struct(AddressSet)4026_storage)": {
        "encoding": "mapping",
        "key": "t_bytes32",
        "label": "mapping(bytes32 => struct EnumerableSet.AddressSet)",
        "numberOfBytes": "32",
        "value": "t_struct(AddressSet)4026_storage"
      },
      "t_mapping(t_bytes32,t_struct(RoleData)19_storage)": {
        "encoding": "mapping",
        "key": "t_bytes32",
        "label": "mapping(bytes32 => struct AccessControl.RoleData)",
        "numberOfBytes": "32",
        "value": "t_struct(RoleData)19_storage"
      },
      "t_mapping(t_bytes32,t_uint256)": {
        "encoding": "mapping",
        "key": "t_bytes32",
        "label": "mapping(bytes32 => uint256)",
        "numberOfBytes": "32",
        "value": "t_uint256"
      },
      "t_mapping(t_uint256,t_mapping(t_uint256,t_struct(ProposalVote)7339_storage))": {
        "encoding": "mapping",
        "key": "t_uint256",
        "label": "mapping(uint256 => mapping(uint256 => struct CoreGovernance.ProposalVote))",
        "numberOfBytes": "32",
        "value": "t_mapping(t_uint256,t_struct(ProposalVote)7339_storage)"
      },
      "t_mapping(t_uint256,t_mapping(t_uint256,t_struct(Vote)12979_storage))": {
        "encoding": "mapping",
        "key": "t_uint256",
        "label": "mapping(uint256 => mapping(uint256 => struct IsolatedGovernance.Vote))",
        "numberOfBytes": "32",
        "value": "t_mapping(t_uint256,t_struct(Vote)12979_storage)"
      },
      "t_mapping(t_uint256,t_struct(ProposalVote)7339_storage)": {
        "encoding": "mapping",
        "key": "t_uint256",
        "label": "mapping(uint256 => struct CoreGovernance.ProposalVote)",
        "numberOfBytes": "32",
        "value": "t_struct(ProposalVote)7339_storage"
      },
      "t_mapping(t_uint256,t_struct(Vote)12979_storage)": {
        "encoding": "mapping",
        "key": "t_uint256",
        "label": "mapping(uint256 => struct IsolatedGovernance.Vote)",
        "numberOfBytes": "32",
        "value": "t_struct(Vote)12979_storage"
      },
      "t_mapping(t_uint256,t_uint256)": {
        "encoding": "mapping",
        "key": "t_uint256",
        "label": "mapping(uint256 => uint256)",
        "numberOfBytes": "32",
        "value": "t_uint256"
      },
      "t_struct(AddressSet)4026_storage": {
        "encoding": "inplace",
        "label": "struct EnumerableSet.AddressSet",
        "members": [
          {
            "astId": 4025,
            "contract": "contracts/mainchain/MainchainGovernanceAdmin.sol:MainchainGovernanceAdmin",
            "label": "_inner",
            "offset": 0,
            "slot": "0",
            "type": "t_struct(Set)3725_storage"
          }
        ],
        "numberOfBytes": "64"
      },
      "t_struct(BridgeOperatorSet)12478_storage": {
        "encoding": "inplace",
        "label": "struct BridgeOperatorsBallot.BridgeOperatorSet",
        "members": [
          {
            "astId": 12472,
            "contract": "contracts/mainchain/MainchainGovernanceAdmin.sol:MainchainGovernanceAdmin",
            "label": "period",
            "offset": 0,
            "slot": "0",
            "type": "t_uint256"
          },
          {
            "astId": 12474,
            "contract": "contracts/mainchain/MainchainGovernanceAdmin.sol:MainchainGovernanceAdmin",
            "label": "epoch",
            "offset": 0,
            "slot": "1",
            "type": "t_uint256"
          },
          {
            "astId": 12477,
            "contract": "contracts/mainchain/MainchainGovernanceAdmin.sol:MainchainGovernanceAdmin",
            "label": "operators",
            "offset": 0,
            "slot": "2",
            "type": "t_array(t_address)dyn_storage"
          }
        ],
        "numberOfBytes": "96"
      },
      "t_struct(ProposalVote)7339_storage": {
        "encoding": "inplace",
        "label": "struct CoreGovernance.ProposalVote",
        "members": [
          {
            "astId": 7315,
            "contract": "contracts/mainchain/MainchainGovernanceAdmin.sol:MainchainGovernanceAdmin",
            "label": "status",
            "offset": 0,
            "slot": "0",
            "type": "t_enum(VoteStatus)10571"
          },
          {
            "astId": 7317,
            "contract": "contracts/mainchain/MainchainGovernanceAdmin.sol:MainchainGovernanceAdmin",
            "label": "hash",
            "offset": 0,
            "slot": "1",
            "type": "t_bytes32"
          },
          {
            "astId": 7319,
            "contract": "contracts/mainchain/MainchainGovernanceAdmin.sol:MainchainGovernanceAdmin",
            "label": "againstVoteWeight",
            "offset": 0,
            "slot": "2",
            "type": "t_uint256"
          },
          {
            "astId": 7321,
            "contract": "contracts/mainchain/MainchainGovernanceAdmin.sol:MainchainGovernanceAdmin",
            "label": "forVoteWeight",
            "offset": 0,
            "slot": "3",
            "type": "t_uint256"
          },
          {
            "astId": 7324,
            "contract": "contracts/mainchain/MainchainGovernanceAdmin.sol:MainchainGovernanceAdmin",
            "label": "forVoteds",
            "offset": 0,
            "slot": "4",
            "type": "t_array(t_address)dyn_storage"
          },
          {
            "astId": 7327,
            "contract": "contracts/mainchain/MainchainGovernanceAdmin.sol:MainchainGovernanceAdmin",
            "label": "againstVoteds",
            "offset": 0,
            "slot": "5",
            "type": "t_array(t_address)dyn_storage"
          },
          {
            "astId": 7329,
            "contract": "contracts/mainchain/MainchainGovernanceAdmin.sol:MainchainGovernanceAdmin",
            "label": "expiryTimestamp",
            "offset": 0,
            "slot": "6",
            "type": "t_uint256"
          },
          {
            "astId": 7334,
            "contract": "contracts/mainchain/MainchainGovernanceAdmin.sol:MainchainGovernanceAdmin",
            "label": "sig",
            "offset": 0,
            "slot": "7",
            "type": "t_mapping(t_address,t_struct(Signature)10562_storage)"
          },
          {
            "astId": 7338,
            "contract": "contracts/mainchain/MainchainGovernanceAdmin.sol:MainchainGovernanceAdmin",
            "label": "voted",
            "offset": 0,
            "slot": "8",
            "type": "t_mapping(t_address,t_bool)"
          }
        ],
        "numberOfBytes": "288"
      },
      "t_struct(RoleData)19_storage": {
        "encoding": "inplace",
        "label": "struct AccessControl.RoleData",
        "members": [
          {
            "astId": 16,
            "contract": "contracts/mainchain/MainchainGovernanceAdmin.sol:MainchainGovernanceAdmin",
            "label": "members",
            "offset": 0,
            "slot": "0",
            "type": "t_mapping(t_address,t_bool)"
          },
          {
            "astId": 18,
            "contract": "contracts/mainchain/MainchainGovernanceAdmin.sol:MainchainGovernanceAdmin",
            "label": "adminRole",
            "offset": 0,
            "slot": "1",
            "type": "t_bytes32"
          }
        ],
        "numberOfBytes": "64"
      },
      "t_struct(Set)3725_storage": {
        "encoding": "inplace",
        "label": "struct EnumerableSet.Set",
        "members": [
          {
            "astId": 3720,
            "contract": "contracts/mainchain/MainchainGovernanceAdmin.sol:MainchainGovernanceAdmin",
            "label": "_values",
            "offset": 0,
            "slot": "0",
            "type": "t_array(t_bytes32)dyn_storage"
          },
          {
            "astId": 3724,
            "contract": "contracts/mainchain/MainchainGovernanceAdmin.sol:MainchainGovernanceAdmin",
            "label": "_indexes",
            "offset": 0,
            "slot": "1",
            "type": "t_mapping(t_bytes32,t_uint256)"
          }
        ],
        "numberOfBytes": "64"
      },
      "t_struct(Signature)10562_storage": {
        "encoding": "inplace",
        "label": "struct SignatureConsumer.Signature",
        "members": [
          {
            "astId": 10557,
            "contract": "contracts/mainchain/MainchainGovernanceAdmin.sol:MainchainGovernanceAdmin",
            "label": "v",
            "offset": 0,
            "slot": "0",
            "type": "t_uint8"
          },
          {
            "astId": 10559,
            "contract": "contracts/mainchain/MainchainGovernanceAdmin.sol:MainchainGovernanceAdmin",
            "label": "r",
            "offset": 0,
            "slot": "1",
            "type": "t_bytes32"
          },
          {
            "astId": 10561,
            "contract": "contracts/mainchain/MainchainGovernanceAdmin.sol:MainchainGovernanceAdmin",
            "label": "s",
            "offset": 0,
            "slot": "2",
            "type": "t_bytes32"
          }
        ],
        "numberOfBytes": "96"
      },
      "t_struct(Vote)12979_storage": {
        "encoding": "inplace",
        "label": "struct IsolatedGovernance.Vote",
        "members": [
          {
            "astId": 12961,
            "contract": "contracts/mainchain/MainchainGovernanceAdmin.sol:MainchainGovernanceAdmin",
            "label": "status",
            "offset": 0,
            "slot": "0",
            "type": "t_enum(VoteStatus)10571"
          },
          {
            "astId": 12963,
            "contract": "contracts/mainchain/MainchainGovernanceAdmin.sol:MainchainGovernanceAdmin",
            "label": "finalHash",
            "offset": 0,
            "slot": "1",
            "type": "t_bytes32"
          },
          {
            "astId": 12968,
            "contract": "contracts/mainchain/MainchainGovernanceAdmin.sol:MainchainGovernanceAdmin",
            "label": "voteHashOf",
            "offset": 0,
            "slot": "2",
            "type": "t_mapping(t_address,t_bytes32)"
          },
          {
            "astId": 12971,
            "contract": "contracts/mainchain/MainchainGovernanceAdmin.sol:MainchainGovernanceAdmin",
            "label": "expiredAt",
            "offset": 0,
            "slot": "3",
            "type": "t_uint256"
          },
          {
            "astId": 12974,
            "contract": "contracts/mainchain/MainchainGovernanceAdmin.sol:MainchainGovernanceAdmin",
            "label": "createdAt",
            "offset": 0,
            "slot": "4",
            "type": "t_uint256"
          },
          {
            "astId": 12978,
            "contract": "contracts/mainchain/MainchainGovernanceAdmin.sol:MainchainGovernanceAdmin",
            "label": "voters",
            "offset": 0,
            "slot": "5",
            "type": "t_array(t_address)dyn_storage"
          }
        ],
        "numberOfBytes": "192"
      },
      "t_uint256": {
        "encoding": "inplace",
        "label": "uint256",
        "numberOfBytes": "32"
      },
      "t_uint8": {
        "encoding": "inplace",
        "label": "uint8",
        "numberOfBytes": "1"
      }
    }
  }
}