{
  "address": "0xa71456fA88a5f6a4696D0446E690Db4a5913fab0",
  "abi": [
    {
      "inputs": [
        {
          "internalType": "uint256",
          "name": "num",
          "type": "uint256"
        },
        {
          "internalType": "uint256",
          "name": "denom",
          "type": "uint256"
        },
        {
          "internalType": "uint256",
          "name": "roninChainId",
          "type": "uint256"
        },
        {
          "internalType": "address",
          "name": "bridgeContract",
          "type": "address"
        },
        {
          "internalType": "address[]",
          "name": "callbackRegisters",
          "type": "address[]"
        },
        {
          "internalType": "address[]",
          "name": "bridgeOperators",
          "type": "address[]"
        },
        {
          "internalType": "address[]",
          "name": "governors",
          "type": "address[]"
        },
        {
          "internalType": "uint96[]",
          "name": "voteWeights",
          "type": "uint96[]"
        },
        {
          "internalType": "enum GlobalProposal.TargetOption[]",
          "name": "targetOptions",
          "type": "uint8[]"
        },
        {
          "internalType": "address[]",
          "name": "targets",
          "type": "address[]"
        }
      ],
      "stateMutability": "payable",
      "type": "constructor"
    },
    {
      "inputs": [
        {
          "internalType": "address",
          "name": "bridgeOperator",
          "type": "address"
        }
      ],
      "name": "ErrBridgeOperatorAlreadyExisted",
      "type": "error"
    },
    {
      "inputs": [
        {
          "internalType": "address",
          "name": "bridgeOperator",
          "type": "address"
        }
      ],
      "name": "ErrBridgeOperatorUpdateFailed",
      "type": "error"
    },
    {
      "inputs": [
        {
          "internalType": "enum ContractType",
          "name": "contractType",
          "type": "uint8"
        }
      ],
      "name": "ErrContractTypeNotFound",
      "type": "error"
    },
    {
      "inputs": [],
      "name": "ErrCurrentProposalIsNotCompleted",
      "type": "error"
    },
    {
      "inputs": [
        {
          "internalType": "bytes4",
          "name": "msgSig",
          "type": "bytes4"
        }
      ],
      "name": "ErrDuplicated",
      "type": "error"
    },
    {
      "inputs": [
        {
          "internalType": "bytes32",
          "name": "proposalHash",
          "type": "bytes32"
        }
      ],
      "name": "ErrInsufficientGas",
      "type": "error"
    },
    {
      "inputs": [
        {
          "internalType": "bytes4",
          "name": "msgSig",
          "type": "bytes4"
        }
      ],
      "name": "ErrInvalidArguments",
      "type": "error"
    },
    {
      "inputs": [
        {
          "internalType": "bytes4",
          "name": "msgSig",
          "type": "bytes4"
        },
        {
          "internalType": "uint256",
          "name": "actual",
          "type": "uint256"
        },
        {
          "internalType": "uint256",
          "name": "expected",
          "type": "uint256"
        }
      ],
      "name": "ErrInvalidChainId",
      "type": "error"
    },
    {
      "inputs": [],
      "name": "ErrInvalidExpiryTimestamp",
      "type": "error"
    },
    {
      "inputs": [
        {
          "internalType": "bytes4",
          "name": "msgSig",
          "type": "bytes4"
        }
      ],
      "name": "ErrInvalidOrder",
      "type": "error"
    },
    {
      "inputs": [
        {
          "internalType": "bytes4",
          "name": "msgSig",
          "type": "bytes4"
        }
      ],
      "name": "ErrInvalidProposalNonce",
      "type": "error"
    },
    {
      "inputs": [
        {
          "internalType": "bytes4",
          "name": "msgSig",
          "type": "bytes4"
        }
      ],
      "name": "ErrInvalidThreshold",
      "type": "error"
    },
    {
      "inputs": [
        {
          "internalType": "bytes4",
          "name": "msgSig",
          "type": "bytes4"
        }
      ],
      "name": "ErrInvalidVoteWeight",
      "type": "error"
    },
    {
      "inputs": [
        {
          "internalType": "bytes4",
          "name": "msgSig",
          "type": "bytes4"
        }
      ],
      "name": "ErrLengthMismatch",
      "type": "error"
    },
    {
      "inputs": [
        {
          "internalType": "bytes4",
          "name": "msgSig",
          "type": "bytes4"
        }
      ],
      "name": "ErrOnlySelfCall",
      "type": "error"
    },
    {
      "inputs": [
        {
          "internalType": "bytes4",
          "name": "msgSig",
          "type": "bytes4"
        }
      ],
      "name": "ErrRelayFailed",
      "type": "error"
    },
    {
      "inputs": [
        {
          "internalType": "bytes4",
          "name": "msgSig",
          "type": "bytes4"
        },
        {
          "internalType": "enum RoleAccess",
          "name": "expectedRole",
          "type": "uint8"
        }
      ],
      "name": "ErrUnauthorized",
      "type": "error"
    },
    {
      "inputs": [
        {
          "internalType": "bytes4",
          "name": "interfaceId",
          "type": "bytes4"
        },
        {
          "internalType": "address",
          "name": "addr",
          "type": "address"
        }
      ],
      "name": "ErrUnsupportedInterface",
      "type": "error"
    },
    {
      "inputs": [
        {
          "internalType": "bytes4",
          "name": "msgSig",
          "type": "bytes4"
        }
      ],
      "name": "ErrUnsupportedVoteType",
      "type": "error"
    },
    {
      "inputs": [],
      "name": "ErrVoteIsFinalized",
      "type": "error"
    },
    {
      "inputs": [
        {
          "internalType": "bytes4",
          "name": "msgSig",
          "type": "bytes4"
        }
      ],
      "name": "ErrZeroAddress",
      "type": "error"
    },
    {
      "inputs": [
        {
          "internalType": "address",
          "name": "addr",
          "type": "address"
        }
      ],
      "name": "ErrZeroCodeContract",
      "type": "error"
    },
    {
      "anonymous": false,
      "inputs": [
        {
          "indexed": true,
          "internalType": "address",
          "name": "governor",
          "type": "address"
        },
        {
          "indexed": true,
          "internalType": "address",
          "name": "fromBridgeOperator",
          "type": "address"
        },
        {
          "indexed": true,
          "internalType": "address",
          "name": "toBridgeOperator",
          "type": "address"
        }
      ],
      "name": "BridgeOperatorUpdated",
      "type": "event"
    },
    {
      "anonymous": false,
      "inputs": [
        {
          "indexed": false,
          "internalType": "bool[]",
          "name": "statuses",
          "type": "bool[]"
        },
        {
          "indexed": false,
          "internalType": "uint96[]",
          "name": "voteWeights",
          "type": "uint96[]"
        },
        {
          "indexed": false,
          "internalType": "address[]",
          "name": "governors",
          "type": "address[]"
        },
        {
          "indexed": false,
          "internalType": "address[]",
          "name": "bridgeOperators",
          "type": "address[]"
        }
      ],
      "name": "BridgeOperatorsAdded",
      "type": "event"
    },
    {
      "anonymous": false,
      "inputs": [
        {
          "indexed": false,
          "internalType": "bool[]",
          "name": "statuses",
          "type": "bool[]"
        },
        {
          "indexed": false,
          "internalType": "address[]",
          "name": "bridgeOperators",
          "type": "address[]"
        }
      ],
      "name": "BridgeOperatorsRemoved",
      "type": "event"
    },
    {
      "anonymous": false,
      "inputs": [
        {
          "indexed": true,
          "internalType": "enum ContractType",
          "name": "contractType",
          "type": "uint8"
        },
        {
          "indexed": true,
          "internalType": "address",
          "name": "addr",
          "type": "address"
        }
      ],
      "name": "ContractUpdated",
      "type": "event"
    },
    {
      "anonymous": false,
      "inputs": [
        {
          "indexed": true,
          "internalType": "uint256",
          "name": "round",
          "type": "uint256"
        },
        {
          "indexed": true,
          "internalType": "bytes32",
          "name": "proposalHash",
          "type": "bytes32"
        },
        {
          "components": [
            {
              "internalType": "uint256",
              "name": "nonce",
              "type": "uint256"
            },
            {
              "internalType": "uint256",
              "name": "chainId",
              "type": "uint256"
            },
            {
              "internalType": "uint256",
              "name": "expiryTimestamp",
              "type": "uint256"
            },
            {
              "internalType": "address[]",
              "name": "targets",
              "type": "address[]"
            },
            {
              "internalType": "uint256[]",
              "name": "values",
              "type": "uint256[]"
            },
            {
              "internalType": "bytes[]",
              "name": "calldatas",
              "type": "bytes[]"
            },
            {
              "internalType": "uint256[]",
              "name": "gasAmounts",
              "type": "uint256[]"
            }
          ],
          "indexed": false,
          "internalType": "struct Proposal.ProposalDetail",
          "name": "proposal",
          "type": "tuple"
        },
        {
          "indexed": false,
          "internalType": "bytes32",
          "name": "globalProposalHash",
          "type": "bytes32"
        },
        {
          "components": [
            {
              "internalType": "uint256",
              "name": "nonce",
              "type": "uint256"
            },
            {
              "internalType": "uint256",
              "name": "expiryTimestamp",
              "type": "uint256"
            },
            {
              "internalType": "enum GlobalProposal.TargetOption[]",
              "name": "targetOptions",
              "type": "uint8[]"
            },
            {
              "internalType": "uint256[]",
              "name": "values",
              "type": "uint256[]"
            },
            {
              "internalType": "bytes[]",
              "name": "calldatas",
              "type": "bytes[]"
            },
            {
              "internalType": "uint256[]",
              "name": "gasAmounts",
              "type": "uint256[]"
            }
          ],
          "indexed": false,
          "internalType": "struct GlobalProposal.GlobalProposalDetail",
          "name": "globalProposal",
          "type": "tuple"
        },
        {
          "indexed": false,
          "internalType": "address",
          "name": "creator",
          "type": "address"
        }
      ],
      "name": "GlobalProposalCreated",
      "type": "event"
    },
    {
      "anonymous": false,
      "inputs": [
        {
          "indexed": false,
          "internalType": "bytes",
          "name": "callData",
          "type": "bytes"
        },
        {
          "indexed": false,
          "internalType": "address[]",
          "name": "registers",
          "type": "address[]"
        },
        {
          "indexed": false,
          "internalType": "bool[]",
          "name": "statuses",
          "type": "bool[]"
        },
        {
          "indexed": false,
          "internalType": "bytes[]",
          "name": "returnDatas",
          "type": "bytes[]"
        }
      ],
      "name": "Notified",
      "type": "event"
    },
    {
      "anonymous": false,
      "inputs": [
        {
          "indexed": true,
          "internalType": "bytes32",
          "name": "proposalHash",
          "type": "bytes32"
        }
      ],
      "name": "ProposalApproved",
      "type": "event"
    },
    {
      "anonymous": false,
      "inputs": [
        {
          "indexed": true,
          "internalType": "uint256",
          "name": "chainId",
          "type": "uint256"
        },
        {
          "indexed": true,
          "internalType": "uint256",
          "name": "round",
          "type": "uint256"
        },
        {
          "indexed": true,
          "internalType": "bytes32",
          "name": "proposalHash",
          "type": "bytes32"
        },
        {
          "components": [
            {
              "internalType": "uint256",
              "name": "nonce",
              "type": "uint256"
            },
            {
              "internalType": "uint256",
              "name": "chainId",
              "type": "uint256"
            },
            {
              "internalType": "uint256",
              "name": "expiryTimestamp",
              "type": "uint256"
            },
            {
              "internalType": "address[]",
              "name": "targets",
              "type": "address[]"
            },
            {
              "internalType": "uint256[]",
              "name": "values",
              "type": "uint256[]"
            },
            {
              "internalType": "bytes[]",
              "name": "calldatas",
              "type": "bytes[]"
            },
            {
              "internalType": "uint256[]",
              "name": "gasAmounts",
              "type": "uint256[]"
            }
          ],
          "indexed": false,
          "internalType": "struct Proposal.ProposalDetail",
          "name": "proposal",
          "type": "tuple"
        },
        {
          "indexed": false,
          "internalType": "address",
          "name": "creator",
          "type": "address"
        }
      ],
      "name": "ProposalCreated",
      "type": "event"
    },
    {
      "anonymous": false,
      "inputs": [
        {
          "indexed": true,
          "internalType": "bytes32",
          "name": "proposalHash",
          "type": "bytes32"
        },
        {
          "indexed": false,
          "internalType": "bool[]",
          "name": "successCalls",
          "type": "bool[]"
        },
        {
          "indexed": false,
          "internalType": "bytes[]",
          "name": "returnDatas",
          "type": "bytes[]"
        }
      ],
      "name": "ProposalExecuted",
      "type": "event"
    },
    {
      "anonymous": false,
      "inputs": [
        {
          "indexed": true,
          "internalType": "bytes32",
          "name": "proposalHash",
          "type": "bytes32"
        }
      ],
      "name": "ProposalExpired",
      "type": "event"
    },
    {
      "anonymous": false,
      "inputs": [
        {
          "indexed": true,
          "internalType": "uint256",
          "name": "duration",
          "type": "uint256"
        }
      ],
      "name": "ProposalExpiryDurationChanged",
      "type": "event"
    },
    {
      "anonymous": false,
      "inputs": [
        {
          "indexed": true,
          "internalType": "bytes32",
          "name": "proposalHash",
          "type": "bytes32"
        }
      ],
      "name": "ProposalRejected",
      "type": "event"
    },
    {
      "anonymous": false,
      "inputs": [
        {
          "indexed": true,
          "internalType": "bytes32",
          "name": "proposalHash",
          "type": "bytes32"
        },
        {
          "indexed": true,
          "internalType": "address",
          "name": "voter",
          "type": "address"
        },
        {
          "indexed": false,
          "internalType": "enum Ballot.VoteType",
          "name": "support",
          "type": "uint8"
        },
        {
          "indexed": false,
          "internalType": "uint256",
          "name": "weight",
          "type": "uint256"
        }
      ],
      "name": "ProposalVoted",
      "type": "event"
    },
    {
      "anonymous": false,
      "inputs": [
        {
          "indexed": true,
          "internalType": "enum GlobalProposal.TargetOption",
          "name": "targetOption",
          "type": "uint8"
        },
        {
          "indexed": true,
          "internalType": "address",
          "name": "addr",
          "type": "address"
        }
      ],
      "name": "TargetOptionUpdated",
      "type": "event"
    },
    {
      "anonymous": false,
      "inputs": [
        {
          "indexed": true,
          "internalType": "uint256",
          "name": "nonce",
          "type": "uint256"
        },
        {
          "indexed": true,
          "internalType": "uint256",
          "name": "numerator",
          "type": "uint256"
        },
        {
          "indexed": true,
          "internalType": "uint256",
          "name": "denominator",
          "type": "uint256"
        },
        {
          "indexed": false,
          "internalType": "uint256",
          "name": "previousNumerator",
          "type": "uint256"
        },
        {
          "indexed": false,
          "internalType": "uint256",
          "name": "previousDenominator",
          "type": "uint256"
        }
      ],
      "name": "ThresholdUpdated",
      "type": "event"
    },
    {
      "inputs": [],
      "name": "DOMAIN_SEPARATOR",
      "outputs": [
        {
          "internalType": "bytes32",
          "name": "",
          "type": "bytes32"
        }
      ],
      "stateMutability": "view",
      "type": "function"
    },
    {
      "inputs": [
        {
          "internalType": "uint96[]",
          "name": "voteWeights",
          "type": "uint96[]"
        },
        {
          "internalType": "address[]",
          "name": "governors",
          "type": "address[]"
        },
        {
          "internalType": "address[]",
          "name": "bridgeOperators",
          "type": "address[]"
        }
      ],
      "name": "addBridgeOperators",
      "outputs": [
        {
          "internalType": "bool[]",
          "name": "addeds",
          "type": "bool[]"
        }
      ],
      "stateMutability": "nonpayable",
      "type": "function"
    },
    {
      "inputs": [
        {
          "internalType": "uint256",
          "name": "_voteWeight",
          "type": "uint256"
        }
      ],
      "name": "checkThreshold",
      "outputs": [
        {
          "internalType": "bool",
          "name": "",
          "type": "bool"
        }
      ],
      "stateMutability": "view",
      "type": "function"
    },
    {
      "inputs": [
        {
          "internalType": "address[]",
          "name": "governors",
          "type": "address[]"
        }
      ],
      "name": "getBridgeOperatorOf",
      "outputs": [
        {
          "internalType": "address[]",
          "name": "bridgeOperators",
          "type": "address[]"
        }
      ],
      "stateMutability": "view",
      "type": "function"
    },
    {
      "inputs": [
        {
          "internalType": "address",
          "name": "bridgeOperator",
          "type": "address"
        }
      ],
      "name": "getBridgeOperatorWeight",
      "outputs": [
        {
          "internalType": "uint96",
          "name": "weight",
          "type": "uint96"
        }
      ],
      "stateMutability": "view",
      "type": "function"
    },
    {
      "inputs": [],
      "name": "getBridgeOperators",
      "outputs": [
        {
          "internalType": "address[]",
          "name": "",
          "type": "address[]"
        }
      ],
      "stateMutability": "view",
      "type": "function"
    },
    {
      "inputs": [],
      "name": "getCallbackRegisters",
      "outputs": [
        {
          "internalType": "address[]",
          "name": "registers",
          "type": "address[]"
        }
      ],
      "stateMutability": "view",
      "type": "function"
    },
    {
      "inputs": [
        {
          "internalType": "enum ContractType",
          "name": "contractType",
          "type": "uint8"
        }
      ],
      "name": "getContract",
      "outputs": [
        {
          "internalType": "address",
          "name": "contract_",
          "type": "address"
        }
      ],
      "stateMutability": "view",
      "type": "function"
    },
    {
      "inputs": [],
      "name": "getFullBridgeOperatorInfos",
      "outputs": [
        {
          "internalType": "address[]",
          "name": "governors",
          "type": "address[]"
        },
        {
          "internalType": "address[]",
          "name": "bridgeOperators",
          "type": "address[]"
        },
        {
          "internalType": "uint96[]",
          "name": "weights",
          "type": "uint96[]"
        }
      ],
      "stateMutability": "view",
      "type": "function"
    },
    {
      "inputs": [
        {
          "internalType": "address",
          "name": "governor",
          "type": "address"
        }
      ],
      "name": "getGovernorWeight",
      "outputs": [
        {
          "internalType": "uint96",
          "name": "weight",
          "type": "uint96"
        }
      ],
      "stateMutability": "view",
      "type": "function"
    },
    {
      "inputs": [
        {
          "internalType": "address[]",
          "name": "governors",
          "type": "address[]"
        }
      ],
      "name": "getGovernorWeights",
      "outputs": [
        {
          "internalType": "uint96[]",
          "name": "weights",
          "type": "uint96[]"
        }
      ],
      "stateMutability": "view",
      "type": "function"
    },
    {
      "inputs": [],
      "name": "getGovernors",
      "outputs": [
        {
          "internalType": "address[]",
          "name": "",
          "type": "address[]"
        }
      ],
      "stateMutability": "view",
      "type": "function"
    },
    {
      "inputs": [
        {
          "internalType": "address[]",
          "name": "bridgeOperators",
          "type": "address[]"
        }
      ],
      "name": "getGovernorsOf",
      "outputs": [
        {
          "internalType": "address[]",
          "name": "governors",
          "type": "address[]"
        }
      ],
      "stateMutability": "view",
      "type": "function"
    },
    {
      "inputs": [],
      "name": "getProposalExpiryDuration",
      "outputs": [
        {
          "internalType": "uint256",
          "name": "",
          "type": "uint256"
        }
      ],
      "stateMutability": "view",
      "type": "function"
    },
    {
      "inputs": [],
      "name": "getThreshold",
      "outputs": [
        {
          "internalType": "uint256",
          "name": "num_",
          "type": "uint256"
        },
        {
          "internalType": "uint256",
          "name": "denom_",
          "type": "uint256"
        }
      ],
      "stateMutability": "view",
      "type": "function"
    },
    {
      "inputs": [],
      "name": "getTotalWeight",
      "outputs": [
        {
          "internalType": "uint256",
          "name": "",
          "type": "uint256"
        }
      ],
      "stateMutability": "view",
      "type": "function"
    },
    {
      "inputs": [
        {
          "internalType": "uint256",
          "name": "_round",
          "type": "uint256"
        }
      ],
      "name": "globalProposalRelayed",
      "outputs": [
        {
          "internalType": "bool",
          "name": "",
          "type": "bool"
        }
      ],
      "stateMutability": "view",
      "type": "function"
    },
    {
      "inputs": [
        {
          "internalType": "address",
          "name": "addr",
          "type": "address"
        }
      ],
      "name": "isBridgeOperator",
      "outputs": [
        {
          "internalType": "bool",
          "name": "",
          "type": "bool"
        }
      ],
      "stateMutability": "view",
      "type": "function"
    },
    {
      "inputs": [],
      "name": "minimumVoteWeight",
      "outputs": [
        {
          "internalType": "uint256",
          "name": "",
          "type": "uint256"
        }
      ],
      "stateMutability": "view",
      "type": "function"
    },
    {
      "inputs": [
        {
          "internalType": "address[]",
          "name": "registers",
          "type": "address[]"
        }
      ],
      "name": "registerCallbacks",
      "outputs": [
        {
          "internalType": "bool[]",
          "name": "registereds",
          "type": "bool[]"
        }
      ],
      "stateMutability": "nonpayable",
      "type": "function"
    },
    {
      "inputs": [
        {
          "components": [
            {
              "internalType": "uint256",
              "name": "nonce",
              "type": "uint256"
            },
            {
              "internalType": "uint256",
              "name": "expiryTimestamp",
              "type": "uint256"
            },
            {
              "internalType": "enum GlobalProposal.TargetOption[]",
              "name": "targetOptions",
              "type": "uint8[]"
            },
            {
              "internalType": "uint256[]",
              "name": "values",
              "type": "uint256[]"
            },
            {
              "internalType": "bytes[]",
              "name": "calldatas",
              "type": "bytes[]"
            },
            {
              "internalType": "uint256[]",
              "name": "gasAmounts",
              "type": "uint256[]"
            }
          ],
          "internalType": "struct GlobalProposal.GlobalProposalDetail",
          "name": "globalProposal",
          "type": "tuple"
        },
        {
          "internalType": "enum Ballot.VoteType[]",
          "name": "supports_",
          "type": "uint8[]"
        },
        {
          "components": [
            {
              "internalType": "uint8",
              "name": "v",
              "type": "uint8"
            },
            {
              "internalType": "bytes32",
              "name": "r",
              "type": "bytes32"
            },
            {
              "internalType": "bytes32",
              "name": "s",
              "type": "bytes32"
            }
          ],
          "internalType": "struct SignatureConsumer.Signature[]",
          "name": "signatures",
          "type": "tuple[]"
        }
      ],
      "name": "relayGlobalProposal",
      "outputs": [],
      "stateMutability": "nonpayable",
      "type": "function"
    },
    {
      "inputs": [
        {
          "components": [
            {
              "internalType": "uint256",
              "name": "nonce",
              "type": "uint256"
            },
            {
              "internalType": "uint256",
              "name": "chainId",
              "type": "uint256"
            },
            {
              "internalType": "uint256",
              "name": "expiryTimestamp",
              "type": "uint256"
            },
            {
              "internalType": "address[]",
              "name": "targets",
              "type": "address[]"
            },
            {
              "internalType": "uint256[]",
              "name": "values",
              "type": "uint256[]"
            },
            {
              "internalType": "bytes[]",
              "name": "calldatas",
              "type": "bytes[]"
            },
            {
              "internalType": "uint256[]",
              "name": "gasAmounts",
              "type": "uint256[]"
            }
          ],
          "internalType": "struct Proposal.ProposalDetail",
          "name": "proposal",
          "type": "tuple"
        },
        {
          "internalType": "enum Ballot.VoteType[]",
          "name": "supports_",
          "type": "uint8[]"
        },
        {
          "components": [
            {
              "internalType": "uint8",
              "name": "v",
              "type": "uint8"
            },
            {
              "internalType": "bytes32",
              "name": "r",
              "type": "bytes32"
            },
            {
              "internalType": "bytes32",
              "name": "s",
              "type": "bytes32"
            }
          ],
          "internalType": "struct SignatureConsumer.Signature[]",
          "name": "signatures",
          "type": "tuple[]"
        }
      ],
      "name": "relayProposal",
      "outputs": [],
      "stateMutability": "nonpayable",
      "type": "function"
    },
    {
      "inputs": [
        {
          "internalType": "address[]",
          "name": "bridgeOperators",
          "type": "address[]"
        }
      ],
      "name": "removeBridgeOperators",
      "outputs": [
        {
          "internalType": "bool[]",
          "name": "removeds",
          "type": "bool[]"
        }
      ],
      "stateMutability": "nonpayable",
      "type": "function"
    },
    {
      "inputs": [
        {
          "internalType": "enum GlobalProposal.TargetOption[]",
          "name": "targetOptions",
          "type": "uint8[]"
        }
      ],
      "name": "resolveTargets",
      "outputs": [
        {
          "internalType": "address[]",
          "name": "targets",
          "type": "address[]"
        }
      ],
      "stateMutability": "view",
      "type": "function"
    },
    {
      "inputs": [
        {
          "internalType": "uint256",
          "name": "",
          "type": "uint256"
        }
      ],
      "name": "round",
      "outputs": [
        {
          "internalType": "uint256",
          "name": "",
          "type": "uint256"
        }
      ],
      "stateMutability": "view",
      "type": "function"
    },
    {
      "inputs": [
        {
          "internalType": "enum ContractType",
          "name": "contractType",
          "type": "uint8"
        },
        {
          "internalType": "address",
          "name": "addr",
          "type": "address"
        }
      ],
      "name": "setContract",
      "outputs": [],
      "stateMutability": "nonpayable",
      "type": "function"
    },
    {
      "inputs": [
        {
          "internalType": "uint256",
          "name": "numerator",
          "type": "uint256"
        },
        {
          "internalType": "uint256",
          "name": "denominator",
          "type": "uint256"
        }
      ],
      "name": "setThreshold",
      "outputs": [
        {
          "internalType": "uint256",
          "name": "",
          "type": "uint256"
        },
        {
          "internalType": "uint256",
          "name": "",
          "type": "uint256"
        }
      ],
      "stateMutability": "nonpayable",
      "type": "function"
    },
    {
      "inputs": [
        {
          "internalType": "address[]",
          "name": "governors",
          "type": "address[]"
        }
      ],
      "name": "sumGovernorsWeight",
      "outputs": [
        {
          "internalType": "uint256",
          "name": "sum",
          "type": "uint256"
        }
      ],
      "stateMutability": "view",
      "type": "function"
    },
    {
      "inputs": [],
      "name": "totalBridgeOperator",
      "outputs": [
        {
          "internalType": "uint256",
          "name": "",
          "type": "uint256"
        }
      ],
      "stateMutability": "view",
      "type": "function"
    },
    {
      "inputs": [
        {
          "internalType": "address[]",
          "name": "registers",
          "type": "address[]"
        }
      ],
      "name": "unregisterCallbacks",
      "outputs": [
        {
          "internalType": "bool[]",
          "name": "unregistereds",
          "type": "bool[]"
        }
      ],
      "stateMutability": "nonpayable",
      "type": "function"
    },
    {
      "inputs": [
        {
          "internalType": "address",
          "name": "newBridgeOperator",
          "type": "address"
        }
      ],
      "name": "updateBridgeOperator",
      "outputs": [],
      "stateMutability": "nonpayable",
      "type": "function"
    },
    {
      "inputs": [
        {
          "internalType": "enum GlobalProposal.TargetOption[]",
          "name": "targetOptions",
          "type": "uint8[]"
        },
        {
          "internalType": "address[]",
          "name": "targets",
          "type": "address[]"
        }
      ],
      "name": "updateManyTargetOption",
      "outputs": [],
      "stateMutability": "nonpayable",
      "type": "function"
    },
    {
      "inputs": [
        {
          "internalType": "uint256",
          "name": "",
          "type": "uint256"
        },
        {
          "internalType": "uint256",
          "name": "",
          "type": "uint256"
        }
      ],
      "name": "vote",
      "outputs": [
        {
          "internalType": "enum VoteStatusConsumer.VoteStatus",
          "name": "status",
          "type": "uint8"
        },
        {
          "internalType": "bytes32",
          "name": "hash",
          "type": "bytes32"
        },
        {
          "internalType": "uint256",
          "name": "againstVoteWeight",
          "type": "uint256"
        },
        {
          "internalType": "uint256",
          "name": "forVoteWeight",
          "type": "uint256"
        },
        {
          "internalType": "uint256",
          "name": "expiryTimestamp",
          "type": "uint256"
        }
      ],
      "stateMutability": "view",
      "type": "function"
    }
  ],
  "transactionHash": "0x32eecd93f9c09035bc4a6f9ed5e78da877b9918d50137b13820668e48f059485",
  "args": [
    70,
    100,
    2020,
    "0x64192819ac13ef72bf6b5ae239ac672b43a9af08",
    [],
    [
      "0x32015E8B982c61bc8a593816FdBf03A603EEC823"
    ],
    [
      "0x3200A8eb56767c3760e108Aa27C65bfFF036d8E6"
    ],
    [
      100
    ],
    [
      1
    ],
    [
      "0x64192819ac13ef72bf6b5ae239ac672b43a9af08"
    ]
  ],
  "numDeployments": 1,
  "solcInputHash": "d5751a51f1eb067d18a7dec1633f85eb",
  "bytecode": "0x60a06040526040516200668038038062006680833981016040819052620000269162001625565b8181600160ff1b8c8c8c8c8c8c8c8c836200004181620001bd565b50506200007060016000805160206200666083398151915260001b620002da60201b62000ed61790919060201c565b6200007c8888620002de565b506200008c90506002866200044e565b604080516020808201839052600c60608301526b212924a223a2afa0a226a4a760a11b6080808401919091528284018a905283518084038201815260a0840185528051908301207f599a80fcaa47b95e2323ab4d34d34e0cc9feda4b843edafcc30c7bdf60ea15bf60c08501527f9d3fa1662ea89365eb7af36506f0ad5413bd7e078960d8481ff4718763aaa8e960e08501527fad7c5bef027816a800da1736444fb58a807ef4c9603b7848673f7e3a68eb14a561010085015261012080850191909152845180850390910181526101409093019093528151910120905262000177818385620004f8565b50505050505050505062000191816200098b60201b60201c565b506200019f600030620009be565b620001ab828262000a5a565b50505050505050505050505062001a6e565b606081620001cb8162000b1d565b8251806001600160401b03811115620001e857620001e862001444565b60405190808252806020026020018201604052801562000212578160200160208202803683370190505b50925080600003620002255750620002d4565b6000805160206200662083398151915260006314d72edb60e21b815b84811015620002ce578781815181106200025f576200025f62001760565b602002602001015192506200027a8362000b6460201b60201c565b62000286838362000b9c565b620002a0838562000d7b60201b62000eda1790919060201c565b878281518110620002b557620002b562001760565b9115156020928302919091019091015260010162000241565b50505050505b50919050565b9055565b6000808284111562000316576040516387f6f09560e01b81526001600160e01b03196000351660048201526024015b60405180910390fd5b6200033e6000805160206200664083398151915260001b62000d9b60201b62000eef1760201c565b9150620003797fac1ff16a4f04f2a37a9ba5252a69baa100b460e517d1f8019c054a5ad698f9ff60001b62000d9b60201b62000eef1760201c565b9050620003a7846000805160206200664083398151915260001b620002da60201b62000ed61790919060201c565b620003e4837fac1ff16a4f04f2a37a9ba5252a69baa100b460e517d1f8019c054a5ad698f9ff60001b620002da60201b62000ed61790919060201c565b82846200040e6000805160206200666083398151915260001b62000d9f60201b62000ef31760201c565b60408051868152602081018690527f976f8a9c5bdf8248dec172376d6e2b80a8e3df2f0328e381c6db8e1cf138c0f8910160405180910390a49250929050565b807fdea3103d22025c269050bea94c0c84688877f12fa22b7e6d2d5d78a9a49aa1cb600084600f81111562000487576200048762001776565b60ff168152602081019190915260400160002080546001600160a01b0319166001600160a01b03928316179055811682600f811115620004cb57620004cb62001776565b6040517f865d1c228a8ea13709cfe61f346f7ff67f1bbd4a18ff31ad3e7147350d317c5990600090a35050565b606062000514828462000dc360201b62000f0e1790919060201c565b6200051f8162000b1d565b8251855181148015620005325750845181145b6200055f576040516306b5667560e21b81526001600160e01b03196000351660048201526024016200030d565b806001600160401b038111156200057a576200057a62001444565b604051908082528060200260200182016040528015620005a4578160200160208202803683370190505b50925080600003620005b7575062000983565b604080518082019091526000808252602082018190527f546f6b46ab35b030b6816596b352aef78857377176c8b24baa2046a62cf1998c917f8400683eb2cb350596d73644c0c89fe45f108600003457374f4ab3e87b4f3aa3917fd38c234075fde25875da8a6b7e36b58b86681d483271a99eeeee1d78e258a24d917f88547008e60f5748911f2e59feb3093b7e4c2e87b2dd69d61f112fcc932de8e3919081908190815b89811015620008c4578d81815181106200067a576200067a62001760565b602002602001015194508c818151811062000699576200069962001760565b60200260200101519350620006b48562000ee160201b60201c565b620006bf8462000ee1565b8e8181518110620006d457620006d462001760565b60200260200101516001600160601b03166000036200071557604051637f11b8a360e11b81526001600160e01b03196000351660048201526024016200030d565b6200072f858a62000f1860201b620010181790919060201c565b8062000750575062000750848a62000f1860201b620010181790919060201c565b8062000771575062000771858862000f1860201b620010181790919060201c565b8062000792575062000792848862000f1860201b620010181790919060201c565b158c8281518110620007a857620007a862001760565b6020026020010190151590811515815250508b8181518110620007cf57620007cf62001760565b602002602001015115620008bb57620007f7858a62000d7b60201b62000eda1790919060201c565b5062000812848862000d7b60201b62000eda1790919060201c565b506001600160a01b03848116600081815260208b90526040902080546001600160a01b0319169288169290921790915582528e518f90829081106200085b576200085b62001760565b6020908102919091018101516001600160601b03169083018190526200088290846200178c565b6001600160a01b038087166000908152602089815260409091208551918601516001600160601b0316600160a01b029190921617905592505b6001016200065c565b5062000902827f6924fe71b0c8b61aea02ca498b5f53b29bd95726278b1fe4eb791bb24a42644c60001b62000f3b60201b6200103a1790919060201c565b506200093a635ebae8a060e01b8d8d6040516020016200092492919062001828565b60408051601f1981840301815291905262000f55565b7f897810999654e525e272b5909785c4d0ceaee1bbf9c87d9091a37558b0423b788b8f8f8f6040516200097194939291906200185a565b60405180910390a15050505050505050505b509392505050565b600281905560405181907fe5cd1c123a8cf63fa1b7229678db61fe8ae99dbbd27889370b6667c8cae97da190600090a250565b8060036000846004811115620009d857620009d862001776565b6004811115620009ec57620009ec62001776565b8152602081019190915260400160002080546001600160a01b0319166001600160a01b03928316179055811682600481111562000a2d5762000a2d62001776565b6040517f356c8c57e9e84b99b1cb58b13c985b2c979f78cbdf4d0fa70fe2a98bb09a099d90600090a35050565b60005b825181101562000b1857306001600160a01b031682828151811062000a865762000a8662001760565b60200260200101516001600160a01b03160362000ac55760405163053265f160e01b81526001600160e01b03196000351660048201526024016200030d565b62000b0f83828151811062000ade5762000ade62001760565b602002602001015183838151811062000afb5762000afb62001760565b6020026020010151620009be60201b60201c565b60010162000a5d565b505050565b62000b33816200129b60201b620010511760201c565b1562000b6157604051630d697db160e11b81526001600160e01b03196000351660048201526024016200030d565b50565b806001600160a01b03163b60000362000b6157604051630bfc64a360e21b81526001600160a01b03821660048201526024016200030d565b6040516001600160e01b03198216602482015260009060440160408051601f198184030181529181526020820180516001600160e01b03166301ffc9a760e01b1790525190915060009081906001600160a01b0386169062000c0090859062001910565b600060405180830381855afa9150503d806000811462000c3d576040519150601f19603f3d011682016040523d82523d6000602084013e62000c42565b606091505b50915091508162000d2457846001600160a01b03168360405160240162000c6a91906200195c565b60408051601f198184030181529181526020820180516001600160e01b03166325da93a560e11b1790525162000ca1919062001910565b600060405180830381855afa9150503d806000811462000cde576040519150601f19603f3d011682016040523d82523d6000602084013e62000ce3565b606091505b5090925090508162000d245760405163069d427960e11b81526001600160e01b0319851660048201526001600160a01b03861660248201526044016200030d565b8080602001905181019062000d3a919062001971565b62000d745760405163069d427960e11b81526001600160e01b0319851660048201526001600160a01b03861660248201526044016200030d565b5050505050565b600062000d92836001600160a01b03841662001346565b90505b92915050565b5490565b600062000daa825490565b905062000dbe82620002da8360016200178c565b919050565b81518151606091908082016001600160401b0381111562000de85762000de862001444565b60405190808252806020026020018201604052801562000e12578160200160208202803683370190505b50925060005b8281101562000e745785818151811062000e365762000e3662001760565b602002602001015184828151811062000e535762000e5362001760565b6001600160a01b039092166020928302919091019091015260010162000e18565b60005b8281101562000ed75785818151811062000e955762000e9562001760565b602002602001015185838151811062000eb25762000eb262001760565b6001600160a01b03909216602092830291909101909101526001918201910162000e77565b5050505092915050565b6001600160a01b03811662000b615760405163104c66df60e31b81526001600160e01b03196000351660048201526024016200030d565b6001600160a01b0381166000908152600183016020526040812054151562000d92565b600062000d958362000f4e818562001398565b9250829055565b600062000f7c60008051602062006620833981519152620013b860201b620010f01760201c565b8051909150600081900362000f915750505050565b6000816001600160401b0381111562000fae5762000fae62001444565b60405190808252806020026020018201604052801562000fd8578160200160208202803683370190505b5090506000826001600160401b0381111562000ff85762000ff862001444565b6040519080825280602002602001820160405280156200102d57816020015b6060815260200190600190039081620010175790505b509050600086866040516020016200104792919062001995565b60405160208183030381529060405290506000816040516024016200106d91906200195c565b60408051601f198184030181529190526020810180516001600160e01b03166325da93a560e11b179052905060005b858110156200125157868181518110620010ba57620010ba62001760565b60200260200101516001600160a01b031683604051620010db919062001910565b6000604051808303816000865af19150503d80600081146200111a576040519150601f19603f3d011682016040523d82523d6000602084013e6200111f565b606091505b5086838151811062001135576200113562001760565b6020026020010186848151811062001151576200115162001760565b60200260200101829052821515151581525050508481815181106200117a576200117a62001760565b602002602001015162001248578681815181106200119c576200119c62001760565b60200260200101516001600160a01b031682604051620011bd919062001910565b6000604051808303816000865af19150503d8060008114620011fc576040519150601f19603f3d011682016040523d82523d6000602084013e62001201565b606091505b5086838151811062001217576200121762001760565b6020026020010186848151811062001233576200123362001760565b60200260200101829052821515151581525050505b6001016200109c565b507fc0b07a27e66788f39cc91405f012f34066b16f31b4bda9438c52f2dae0cc5b6382878686604051620012899493929190620019c8565b60405180910390a15050505050505050565b60008151600003620012af57506000919050565b60005b60018351038110156200133d57600181015b83518110156200133357838181518110620012e357620012e362001760565b60200260200101516001600160a01b031684838151811062001309576200130962001760565b60200260200101516001600160a01b0316036200132a575060019392505050565b600101620012c4565b50600101620012b2565b50600092915050565b60008181526001830160205260408120546200138f5750815460018181018455600084815260208082209093018490558454848252828601909352604090209190915562000d95565b50600062000d95565b815481018181101562000d9557634e487b7160005260116020526024601cfd5b60606000620013c783620013ce565b9392505050565b6060816000018054806020026020016040519081016040528092919081815260200182805480156200142057602002820191906000526020600020905b8154815260200190600101908083116200140b575b50505050509050919050565b80516001600160a01b038116811462000dbe57600080fd5b634e487b7160e01b600052604160045260246000fd5b604051601f8201601f191681016001600160401b038111828210171562001485576200148562001444565b604052919050565b60006001600160401b03821115620014a957620014a962001444565b5060051b60200190565b600082601f830112620014c557600080fd5b81516020620014de620014d8836200148d565b6200145a565b82815260059290921b84018101918181019086841115620014fe57600080fd5b8286015b84811015620015245762001516816200142c565b835291830191830162001502565b509695505050505050565b600082601f8301126200154157600080fd5b8151602062001554620014d8836200148d565b82815260059290921b840181019181810190868411156200157457600080fd5b8286015b84811015620015245780516001600160601b03811681146200159a5760008081fd5b835291830191830162001578565b600082601f830112620015ba57600080fd5b81516020620015cd620014d8836200148d565b828152600592831b8501820192828201919087851115620015ed57600080fd5b8387015b85811015620016185780518281106200160a5760008081fd5b8452928401928401620015f1565b5090979650505050505050565b6000806000806000806000806000806101408b8d0312156200164657600080fd5b8a51995060208b0151985060408b015197506200166660608c016200142c565b60808c01519097506001600160401b03808211156200168457600080fd5b620016928e838f01620014b3565b975060a08d0151915080821115620016a957600080fd5b620016b78e838f01620014b3565b965060c08d0151915080821115620016ce57600080fd5b620016dc8e838f01620014b3565b955060e08d0151915080821115620016f357600080fd5b620017018e838f016200152f565b94506101008d01519150808211156200171957600080fd5b620017278e838f01620015a8565b93506101208d01519150808211156200173f57600080fd5b506200174e8d828e01620014b3565b9150509295989b9194979a5092959850565b634e487b7160e01b600052603260045260246000fd5b634e487b7160e01b600052602160045260246000fd5b8082018082111562000d9557634e487b7160e01b600052601160045260246000fd5b600081518084526020808501945080840160005b83811015620017e95781516001600160a01b031687529582019590820190600101620017c2565b509495945050505050565b600081518084526020808501945080840160005b83811015620017e957815115158752958201959082019060010162001808565b6040815260006200183d6040830185620017ae565b8281036020840152620018518185620017f4565b95945050505050565b6080815260006200186f6080830187620017f4565b82810360208481019190915286518083528782019282019060005b81811015620018b15784516001600160601b0316835293830193918301916001016200188a565b50508481036040860152620018c78188620017ae565b925050508281036060840152620018df8185620017ae565b979650505050505050565b60005b8381101562001907578181015183820152602001620018ed565b50506000910152565b6000825162001924818460208701620018ea565b9190910192915050565b6000815180845262001948816020860160208601620018ea565b601f01601f19169290920160200192915050565b60208152600062000d9260208301846200192e565b6000602082840312156200198457600080fd5b81518015158114620013c757600080fd5b6001600160e01b0319831681528151600090620019ba816004850160208701620018ea565b919091016004019392505050565b608081526000620019dd60808301876200192e565b602083820381850152620019f28288620017ae565b9150838203604085015262001a088287620017f4565b915083820360608501528185518084528284019150828160051b85010183880160005b8381101562001a5d57601f1987840301855262001a4a8383516200192e565b9486019492509085019060010162001a2b565b50909b9a5050505050505050505050565b608051614b8862001a98600039600081816102c5015281816107c501526108510152614b886000f3fe608060405234801561001057600080fd5b50600436106101fb5760003560e01c80639b19dbfd1161011a578063cc7e6b3b116100ad578063de981f1b1161007c578063de981f1b1461050c578063e75235b814610537578063e9c034981461053f578063f80b535214610552578063fdc4fa471461055a57600080fd5b8063cc7e6b3b146104be578063d0a50db0146104de578063d78392f8146104e6578063dafae408146104f957600080fd5b8063b9c36209116100e9578063b9c3620914610464578063bc9182fd1461048c578063bc96180b1461049f578063c441c4a8146104a757600080fd5b80639b19dbfd146103db5780639b2ee437146103e3578063b384abef146103f6578063b405aaf21461045157600080fd5b80633644e515116101925780637de5dedd116101615780637de5dedd14610332578063800eaab31461033a578063865e6fd31461034d578063901979d51461036057600080fd5b80633644e515146102c05780635e05cf9e146102e7578063776fb1ec146102fc5780637d465f791461031f57600080fd5b80631f425338116101ce5780631f425338146102675780632d6d7d731461027a57806334d5f37b1461028d57806335da8121146102ad57600080fd5b806301a5f43f1461020057806306aba0e1146102295780630a44fa431461023f5780630f7c318914610252575b600080fd5b61021361020e366004613b7d565b61056d565b6040516102209190613c53565b60405180910390f35b610231610620565b604051908152602001610220565b61023161024d366004613c66565b61063d565b61025a6106c2565b6040516102209190613ce0565b610213610275366004613c66565b6106db565b61025a610288366004613c66565b610728565b61023161029b366004613cf3565b60006020819052908152604090205481565b6102136102bb366004613c66565b61076c565b6102317f000000000000000000000000000000000000000000000000000000000000000081565b6102fa6102f5366004613d50565b6107b2565b005b61030f61030a366004613cf3565b6107f1565b6040519015158152602001610220565b6102fa61032d366004613dec565b61083e565b610231610876565b6102fa610348366004613fe0565b6108f2565b6102fa61035b366004614052565b610937565b6103c361036e366004614085565b6001600160a01b039081166000908152600080516020614af383398151915260209081526040808320549093168252600080516020614ad383398151915290522054600160a01b90046001600160601b031690565b6040516001600160601b039091168152602001610220565b61025a610952565b6102fa6103f1366004614085565b61095c565b6104406104043660046140a0565b600160208181526000938452604080852090915291835291208054918101546002820154600383015460069093015460ff909416939192909185565b6040516102209594939291906140e8565b61030f61045f366004614085565b610af3565b6104776104723660046140a0565b610b0d565b60408051928352602083019190915201610220565b61025a61049a366004614116565b610b2e565b610231610c1f565b6104af610c2a565b60405161022093929190614183565b6104d16104cc366004613c66565b610c54565b60405161022091906141c6565b610231610c92565b6103c36104f4366004614085565b610cab565b61030f610507366004613cf3565b610cb6565b61051f61051a3660046141d9565b610cf3565b6040516001600160a01b039091168152602001610220565b610477610d6e565b61021361054d366004613c66565b610d9f565b61025a610de5565b61025a610568366004613c66565b610def565b60606105776110fd565b61061587878080602002602001604051908101604052809392919081815260200183836020028082843760009201919091525050604080516020808b0282810182019093528a82529093508a92508991829185019084908082843760009201919091525050604080516020808a0282810182019093528982529093508992508891829185019084908082843760009201919091525061112d92505050565b979650505050505050565b6000610638600080516020614b338339815191525490565b905090565b600082828080602002602001604051908101604052809392919081815260200183836020028082843760009201919091525061067e92508391506114a99050565b6106ba8484808060200260200160405190810160405280939291908181526020018383602002808284376000920191909152506114e192505050565b949350505050565b6060610638600080516020614a738339815191526110f0565b60606106e56110fd565b61072183838080602002602001604051908101604052809392919081815260200183836020028082843760009201919091525061156592505050565b9392505050565b606061072183838080602002602001604051908101604052809392919081815260200183836020028082843760009201829052509250611630915050565b92915050565b60606107766110fd565b61072183838080602002602001604051908101604052809392919081815260200183836020028082843760009201919091525061178a92505050565b6107bb3361187c565b6107ea85858585857f0000000000000000000000000000000000000000000000000000000000000000336118be565b5050505050565b60008060008381527fa6eef7e35abe7026729641147f7915573c7e97b47efa546f5f6e3230263bcb49602052604090205460ff166004811115610836576108366140c2565b141592915050565b6108473361187c565b6107ea85858585857f000000000000000000000000000000000000000000000000000000000000000033611963565b600061088e600080516020614a938339815191525490565b60016108a6600080516020614a938339815191525490565b6108d46108bf600080516020614b338339815191525490565b600080516020614ab3833981519152906119bf565b6108de919061420a565b6108e8919061421d565b6106389190614230565b333014610929576000356001600160e01b0319166040516307337e1960e41b81526004016109209190614252565b60405180910390fd5b61093382826119ea565b5050565b61093f6110fd565b61094881611a98565b6109338282611ace565b6060610638611b72565b6109653361187c565b61096e81611b8b565b336000908152600080516020614ad383398151915260208190526040909120546001600160a01b0390811690831681036109c657604051630669b93360e31b81526001600160a01b0384166004820152602401610920565b600080516020614b1383398151915260006109e18284611bc0565b80156109f257506109f28286610eda565b905080610a1d5760405163080fab4b60e31b81526001600160a01b0386166004820152602401610920565b6001600160a01b038381166000818152600080516020614af38339815191526020818152604080842080546001600160a01b0319908116909155958b16808552818520805488163390811790915585528a8352938190208054909616841790955584519081019390935292820152610ab0906364b18d0960e11b906060015b604051602081830303815290604052611bd5565b6040516001600160a01b03808816919086169033907fcef34cd748f30a1b7a2f214fd1651779f79bc6c1be02785cad5c1f0ee877213d90600090a4505050505050565b6000610766600080516020614b1383398151915283611018565b600080610b186110fd565b610b228484611edd565b915091505b9250929050565b8051606090806001600160401b03811115610b4b57610b4b613e2f565b604051908082528060200260200182016040528015610b74578160200160208202803683370190505b509150600080516020614ad383398151915260005b82811015610c1757816000868381518110610ba657610ba6614267565b60200260200101516001600160a01b03166001600160a01b0316815260200190815260200160002060000160009054906101000a90046001600160a01b0316848281518110610bf757610bf7614267565b6001600160a01b0390921660209283029190910190910152600101610b89565b505050919050565b600061063860025490565b6060806060610c37611fd2565b9250610c4283610b2e565b9150610c4d83611ffd565b9050909192565b6060610721838380806020026020016040519081016040528093929190818152602001838360200280828437600092019190915250611ffd92505050565b6000610638600080516020614b138339815191526120e6565b6000610766826120f0565b6000610cd16108bf600080516020614b338339815191525490565b600080516020614a9383398151915254610ceb908461427d565b101592915050565b60007fdea3103d22025c269050bea94c0c84688877f12fa22b7e6d2d5d78a9a49aa1cb600083600f811115610d2a57610d2a6140c2565b60ff1681526020810191909152604001600020546001600160a01b0316905080610d69578160405163409140df60e11b81526004016109209190614294565b919050565b600080610d87600080516020614ab38339815191525490565b600080516020614a9383398151915254915091509091565b6060610da96110fd565b61072183838080602002602001604051908101604052809392919081815260200183836020028082843760009201919091525061212892505050565b6060610638611fd2565b606081806001600160401b03811115610e0a57610e0a613e2f565b604051908082528060200260200182016040528015610e33578160200160208202803683370190505b509150600080516020614af383398151915260005b82811015610ecd57816000878784818110610e6557610e65614267565b9050602002016020810190610e7a9190614085565b6001600160a01b0390811682526020820192909252604001600020548551911690859083908110610ead57610ead614267565b6001600160a01b0390921660209283029190910190910152600101610e48565b50505092915050565b9055565b6000610721836001600160a01b03841661240d565b5490565b6000610efd825490565b9050610d6982610ed683600161420a565b81518151606091908082016001600160401b03811115610f3057610f30613e2f565b604051908082528060200260200182016040528015610f59578160200160208202803683370190505b50925060005b82811015610fb357858181518110610f7957610f79614267565b6020026020010151848281518110610f9357610f93614267565b6001600160a01b0390921660209283029190910190910152600101610f5f565b60005b8281101561100e57858181518110610fd057610fd0614267565b6020026020010151858381518110610fea57610fea614267565b6001600160a01b039092166020928302919091019091015260019182019101610fb6565b5050505092915050565b6001600160a01b03811660009081526001830160205260408120541515610721565b60006107668361104a858561245c565b9250829055565b6000815160000361106457506000919050565b60005b60018351038110156110e757600181015b83518110156110de5783818151811061109357611093614267565b60200260200101516001600160a01b03168483815181106110b6576110b6614267565b60200260200101516001600160a01b0316036110d6575060019392505050565b600101611078565b50600101611067565b50600092915050565b606060006107218361247b565b33301461112b576000356001600160e01b0319166040516307337e1960e41b81526004016109209190614252565b565b60606111398383610f0e565b611142816114a9565b82518551811480156111545750845181145b61117f576000356001600160e01b0319166040516306b5667560e21b81526004016109209190614252565b806001600160401b0381111561119757611197613e2f565b6040519080825280602002602001820160405280156111c0578160200160208202803683370190505b509250806000036111d157506114a1565b604080518082019091526000808252602082018190527f546f6b46ab35b030b6816596b352aef78857377176c8b24baa2046a62cf1998c91600080516020614af383398151915291600080516020614b1383398151915291600080516020614ad3833981519152919081908190815b89811015611422578d818151811061125a5761125a614267565b602002602001015194508c818151811061127657611276614267565b6020026020010151935061128985611b8b565b61129284611b8b565b8e81815181106112a4576112a4614267565b60200260200101516001600160601b03166000036112e3576000356001600160e01b031916604051637f11b8a360e11b81526004016109209190614252565b6112ed8986611018565b806112fd57506112fd8985611018565b8061130d575061130d8786611018565b8061131d575061131d8785611018565b158c828151811061133057611330614267565b6020026020010190151590811515815250508b818151811061135457611354614267565b60200260200101511561141a5761136b8986610eda565b506113768785610eda565b506001600160a01b03848116600081815260208b90526040902080546001600160a01b0319169288169290921790915582528e518f90829081106113bc576113bc614267565b6020908102919091018101516001600160601b03169083018190526113e1908461420a565b6001600160a01b038087166000908152602089815260409091208551918601516001600160601b0316600160a01b029190921617905592505b600101611240565b5061143b600080516020614b338339815191528361103a565b5061145a635ebae8a060e01b8d8d604051602001610a9c9291906142ae565b7f897810999654e525e272b5909785c4d0ceaee1bbf9c87d9091a37558b0423b788b8f8f8f60405161148f94939291906142dc565b60405180910390a15050505050505050505b509392505050565b6114b281611051565b156114de576000356001600160e01b031916604051630d697db160e11b81526004016109209190614252565b50565b6000816114ed816114a9565b600080516020614ad383398151915260005b8451811015610c175781600086838151811061151d5761151d614267565b6020908102919091018101516001600160a01b031682528101919091526040016000205461155b90600160a01b90046001600160601b03168561420a565b93506001016114ff565b606081611571816114a9565b8251806001600160401b0381111561158b5761158b613e2f565b6040519080825280602002602001820160405280156115b4578160200160208202803683370190505b509250600080516020614a7383398151915260005b82811015611627576115fd8682815181106115e6576115e6614267565b602002602001015183611bc090919063ffffffff16565b85828151811061160f5761160f614267565b911515602092830291909101909101526001016115c9565b50505050919050565b606082516001600160401b0381111561164b5761164b613e2f565b604051908082528060200260200182016040528015611674578160200160208202803683370190505b50905060005b8351811015611783576003600085838151811061169957611699614267565b602002602001015160048111156116b2576116b26140c2565b60048111156116c3576116c36140c2565b815260200190815260200160002060009054906101000a90046001600160a01b03168282815181106116f7576116f7614267565b60200260200101906001600160a01b031690816001600160a01b03168152505082801561174f575060006001600160a01b031682828151811061173c5761173c614267565b60200260200101516001600160a01b0316145b1561177b576000356001600160e01b03191660405163053265f160e01b81526004016109209190614252565b60010161167a565b5092915050565b606081611796816114a9565b8251806001600160401b038111156117b0576117b0613e2f565b6040519080825280602002602001820160405280156117d9578160200160208202803683370190505b509250806000036117ea5750611876565b600080516020614a7383398151915260006314d72edb60e21b815b848110156118705787818151811061181f5761181f614267565b6020026020010151925061183283611a98565b61183c83836124d7565b6118468484610eda565b87828151811061185857611858614267565b91151560209283029190910190910152600101611805565b50505050505b50919050565b611885816120f0565b6001600160601b03166000036114de576000356001600160e01b0319166003604051620f948f60ea1b8152600401610920929190614329565b6118d06118ca88614495565b8261266a565b5060006118e46118df89614495565b612770565b90506119596118f289614495565b88888888611945896119058960006128af565b60405161190160f01b6020820152602281018390526042810182905260009060620160405160208183030381529060405280519060200120905092915050565b6119548a6119058a60016128af565b6128e8565b5050505050505050565b600061197761197189614569565b83612cdf565b9050600061198c6119878a614569565b612e29565b90506119b482898989896119a58a6119058960006128af565b6119548b6119058a60016128af565b505050505050505050565b600082548015611783578281029150808204831461178357634e487b7160005260116020526024601cfd5b60005b8251811015611a9357306001600160a01b0316828281518110611a1257611a12614267565b60200260200101516001600160a01b031603611a4f576000356001600160e01b03191660405163053265f160e01b81526004016109209190614252565b611a8b838281518110611a6457611a64614267565b6020026020010151838381518110611a7e57611a7e614267565b6020026020010151612f60565b6001016119ed565b505050565b806001600160a01b03163b6000036114de57604051630bfc64a360e21b81526001600160a01b0382166004820152602401610920565b807fdea3103d22025c269050bea94c0c84688877f12fa22b7e6d2d5d78a9a49aa1cb600084600f811115611b0457611b046140c2565b60ff168152602081019190915260400160002080546001600160a01b0319166001600160a01b03928316179055811682600f811115611b4557611b456140c2565b6040517f865d1c228a8ea13709cfe61f346f7ff67f1bbd4a18ff31ad3e7147350d317c5990600090a35050565b6060610638600080516020614b138339815191526110f0565b6001600160a01b0381166114de576000356001600160e01b03191660405163104c66df60e31b81526004016109209190614252565b6000610721836001600160a01b038416612ff3565b6000611bee600080516020614a738339815191526110f0565b80519091506000819003611c025750505050565b6000816001600160401b03811115611c1c57611c1c613e2f565b604051908082528060200260200182016040528015611c45578160200160208202803683370190505b5090506000826001600160401b03811115611c6257611c62613e2f565b604051908082528060200260200182016040528015611c9557816020015b6060815260200190600190039081611c805790505b50905060008686604051602001611cad929190614657565b6040516020818303038152906040529050600081604051602401611cd191906146b4565b60408051601f198184030181529190526020810180516001600160e01b03166325da93a560e11b179052905060005b85811015611e9557868181518110611d1a57611d1a614267565b60200260200101516001600160a01b031683604051611d3991906146c7565b6000604051808303816000865af19150503d8060008114611d76576040519150601f19603f3d011682016040523d82523d6000602084013e611d7b565b606091505b50868381518110611d8e57611d8e614267565b60200260200101868481518110611da757611da7614267565b6020026020010182905282151515158152505050848181518110611dcd57611dcd614267565b6020026020010151611e8d57868181518110611deb57611deb614267565b60200260200101516001600160a01b031682604051611e0a91906146c7565b6000604051808303816000865af19150503d8060008114611e47576040519150601f19603f3d011682016040523d82523d6000602084013e611e4c565b606091505b50868381518110611e5f57611e5f614267565b60200260200101868481518110611e7857611e78614267565b60200260200101829052821515151581525050505b600101611d00565b507fc0b07a27e66788f39cc91405f012f34066b16f31b4bda9438c52f2dae0cc5b6382878686604051611ecb9493929190614728565b60405180910390a15050505050505050565b60008082841115611f0f576000356001600160e01b0319166040516387f6f09560e01b81526004016109209190614252565b600080516020614ab3833981519152549150611f37600080516020614a938339815191525490565b9050611f50600080516020614ab3833981519152859055565b611f67600080516020614a93833981519152849055565b8284611f927f92872d32822c9d44b36a2537d3e0d4c46fc4de1ce154ccfaed560a8a58445f1d610ef3565b60408051868152602081018690527f976f8a9c5bdf8248dec172376d6e2b80a8e3df2f0328e381c6db8e1cf138c0f8910160405180910390a49250929050565b60606106387f546f6b46ab35b030b6816596b352aef78857377176c8b24baa2046a62cf1998c6110f0565b8051606090806001600160401b0381111561201a5761201a613e2f565b604051908082528060200260200182016040528015612043578160200160208202803683370190505b509150600080516020614ad383398151915260005b82811015610c175781600086838151811061207557612075614267565b60200260200101516001600160a01b03166001600160a01b0316815260200190815260200160002060000160149054906101000a90046001600160601b03168482815181106120c6576120c6614267565b6001600160601b0390921660209283029190910190910152600101612058565b6000610766825490565b6001600160a01b03166000908152600080516020614ad38339815191526020526040902054600160a01b90046001600160601b031690565b606081612134816114a9565b8251806001600160401b0381111561214e5761214e613e2f565b604051908082528060200260200182016040528015612177578160200160208202803683370190505b509250806000036121885750611876565b60408051808201909152600080825260208201819052600080516020614af3833981519152917f546f6b46ab35b030b6816596b352aef78857377176c8b24baa2046a62cf1998c91600080516020614b1383398151915291600080516020614ad3833981519152919081908190815b8981101561238d578c818151811061221157612211614267565b6020908102919091018101516001600160a01b038082166000908152928c90526040909220549091169550935061224785611b8b565b61225084611b8b565b6001600160a01b0385811660009081526020888152604091829020825180840190935254808416808452600160a01b9091046001600160601b031691830191909152909350908516146122c4576000356001600160e01b03191660405163053265f160e01b81526004016109209190614252565b6122ce8785611018565b80156122df57506122df8886611018565b8c82815181106122f1576122f1614267565b6020026020010190151590811515815250508b818151811061231557612315614267565b6020026020010151156123855761232c8886611bc0565b506123378785611bc0565b506001600160a01b03808516600090815260208b8152604080832080546001600160a01b0319169055928816825288815291812055820151612382906001600160601b03168461420a565b92505b6001016121f7565b506123a6600080516020614b33833981519152836130e6565b506123c563c48549de60e01b8d8d604051602001610a9c9291906142ae565b7fdf3dcd7987202f64648f3acdbf12401e3a2bb23e77e19f99826b5475cbb863698b8d6040516123f6929190614775565b60405180910390a150505050505050505050919050565b600081815260018301602052604081205461245457508154600181810184556000848152602080822090930184905584548482528286019093526040902091909155610766565b506000610766565b815481018181101561076657634e487b7160005260116020526024601cfd5b6060816000018054806020026020016040519081016040528092919081815260200182805480156124cb57602002820191906000526020600020905b8154815260200190600101908083116124b7575b50505050509050919050565b6000816040516024016124ea9190614252565b60408051601f198184030181529181526020820180516001600160e01b03166301ffc9a760e01b1790525190915060009081906001600160a01b038616906125339085906146c7565b600060405180830381855afa9150503d806000811461256e576040519150601f19603f3d011682016040523d82523d6000602084013e612573565b606091505b50915091508161263557846001600160a01b03168360405160240161259891906146b4565b60408051601f198184030181529181526020820180516001600160e01b03166325da93a560e11b179052516125cd91906146c7565b600060405180830381855afa9150503d8060008114612608576040519150601f19603f3d011682016040523d82523d6000602084013e61260d565b606091505b5090925090508161263557838560405163069d427960e11b815260040161092092919061479a565b8080602001905181019061264991906147bd565b6107ea57838560405163069d427960e11b815260040161092092919061479a565b60208201516000908082036126ac5760405163092048d160e11b8152600080356001600160e01b03191660048301526024820152466044820152606401610920565b6002546126ba9085906130f6565b60006126c585612770565b90506126d082613197565b6000838152600160208181526040808420858552909152918290209188015190820184905560069091015592508451831461272c576000356001600160e01b03191660405163d4cec26960e01b81526004016109209190614252565b8083837fa57d40f1496988cf60ab7c9d5ba4ff83647f67d3898d441a3aaf21b651678fd988886040516127609291906148c9565b60405180910390a4505092915050565b6080810151606082015160a083015151600092919083906001600160401b0381111561279e5761279e613e2f565b6040519080825280602002602001820160405280156127c7578160200160208202803683370190505b5060c086015190915060005b8251811015612826578660a0015181815181106127f2576127f2614267565b60200260200101518051906020012083828151811061281357612813614267565b60209081029190910101526001016127d3565b50604080517fd051578048e6ff0bbc9fca3b65a42088dbde10f36ca841de566711087ad9b08a8152875160208083019190915280890151828401529790910151606082015283518702938701939093206080840152835186029386019390932060a0830152805185029085012060c082015281518402919093012060e083015250610100902090565b604080517fd900570327c4c0df8dd6bdd522b7da7e39145dd049d2fd4602276adcd511e3c2815260208101939093528201526060902090565b84158015906128f657508483145b612921576000356001600160e01b0319166040516306b5667560e21b81526004016109209190614252565b60008080856001600160401b0381111561293d5761293d613e2f565b604051908082528060200260200182016040528015612966578160200160208202803683370190505b5090506000866001600160401b0381111561298357612983613e2f565b6040519080825280602002602001820160405280156129ac578160200160208202803683370190505b50905060008060003660005b8b811015612b3d578c8c828181106129d2576129d2614267565b90506060020191508e8e828181106129ec576129ec614267565b9050602002016020810190612a0191906148f3565b92506000836001811115612a1757612a176140c2565b03612a8157612a3c8b612a2d6020850185614914565b84602001358560400135613233565b945084878a612a4a81614937565b9b5081518110612a5c57612a5c614267565b60200260200101906001600160a01b031690816001600160a01b031681525050612af2565b6001836001811115612a9557612a956140c2565b03612acb57612aab8a612a2d6020850185614914565b9450848689612ab981614937565b9a5081518110612a5c57612a5c614267565b6000356001600160e01b031916604051630612418f60e11b81526004016109209190614252565b846001600160a01b0316846001600160a01b031610612b32576000356001600160e01b031916604051635d3dcd3160e01b81526004016109209190614252565b8493506001016129b8565b50505085845250508281526020808c015160009081526001825260408082208e51835290925290812090612b6f61325b565b90506000612b7c85613265565b9050818110612c035780600003612bb4576000356001600160e01b031916604051637f11b8a360e11b81526004016109209190614252565b825460ff1916600190811784558301546040517f5c819725ea53655a3b898f3df59b66489761935454e9212ca1e5ebd759953d0b90600090a2612bf7838f613270565b50505050505050612cd6565b600082612c0e6132dd565b612c18919061421d565b612c2390600161420a565b90506000612c3086613265565b9050818110612caf5780600003612c68576000356001600160e01b031916604051637f11b8a360e11b81526004016109209190614252565b845460ff1916600317855560018501546040517f55295d4ce992922fa2e5ffbf3a3dcdb367de0a15e125ace083456017fd22060f90600090a2505050505050505050612cd6565b6000356001600160e01b031916604051634ccfe64360e11b81526004016109209190614252565b50505050505050565b612d1f6040518060e00160405280600081526020016000815260200160008152602001606081526020016060815260200160608152602001606081525090565b612d38612d3184604001516001611630565b84906132e7565b9050612d4f600254826130f690919063ffffffff16565b6000612d5a82612770565b90506000612d686000613197565b60008181527fa6eef7e35abe7026729641147f7915573c7e97b47efa546f5f6e3230263bcb49602090815260409091209087015160018201859055600690910155905082518114612dda576000356001600160e01b03191660405163d4cec26960e01b81526004016109209190614252565b81817f771d78ae9e5fca95a532fb0971d575d0ce9b59d14823c063e08740137e0e0eca85612e0789612e29565b8989604051612e199493929190614950565b60405180910390a3505092915050565b60608101516040820151608083015151600092919083906001600160401b03811115612e5757612e57613e2f565b604051908082528060200260200182016040528015612e80578160200160208202803683370190505b5060a086015190915060005b8251811015612edf5786608001518181518110612eab57612eab614267565b602002602001015180519060200120838281518110612ecc57612ecc614267565b6020908102919091010152600101612e8c565b50604080517f1463f426c05aff2c1a7a0957a71c9898bc8b47142540538e79ee25ee911413508152875160208083019190915297880151918101919091528351870293870193909320606084015283518602938601939093206080830152805185029085012060a082015281518402919093012060c08301525060e0902090565b8060036000846004811115612f7757612f776140c2565b6004811115612f8857612f886140c2565b8152602081019190915260400160002080546001600160a01b0319166001600160a01b039283161790558116826004811115612fc657612fc66140c2565b6040517f356c8c57e9e84b99b1cb58b13c985b2c979f78cbdf4d0fa70fe2a98bb09a099d90600090a35050565b600081815260018301602052604081205480156130dc57600061301760018361421d565b855490915060009061302b9060019061421d565b905081811461309057600086600001828154811061304b5761304b614267565b906000526020600020015490508087600001848154811061306e5761306e614267565b6000918252602080832090910192909255918252600188019052604090208390555b85548690806130a1576130a1614a37565b600190038181906000526020600020016000905590558560010160008681526020019081526020016000206000905560019350505050610766565b6000915050610766565b60006107668361104a8585613411565b60008260600151511180156131145750816080015151826060015151145b801561312957508160a0015151826060015151145b801561313e57508160c0015151826060015151145b613169576000356001600160e01b0319166040516306b5667560e21b81526004016109209190614252565b613173814261420a565b826040015111156109335760405163ad89be9d60e01b815260040160405180910390fd5b600081815260208190526040812054908190036131c65750600090815260208190526040902060019081905590565b60008281526001602090815260408083208484529091528120906000825460ff1660048111156131f8576131f86140c2565b036132165760405163757a436360e01b815260040160405180910390fd5b505050600090815260208190526040902080546001019081905590565b6000806000613244878787876135ec565b91509150613251816136d9565b5095945050505050565b6000610638610876565b6000610766826114e1565b6132798161388f565b1561093357815460ff19166002178255600080613295836138a9565b9150915083600101547fe134987599ae266ec90edeff1b26125b287dbb57b10822649432d1bb26537fba83836040516132cf929190614a4d565b60405180910390a250505050565b6000610638610620565b6133276040518060e00160405280600081526020016000815260200160008152602001606081526020016060815260200160608152602001606081525090565b82518152602080840151604080840191909152600091830191909152830151516001600160401b0381111561335e5761335e613e2f565b604051908082528060200260200182016040528015613387578160200160208202803683370190505b5060608083019190915283015160808083019190915283015160a08083019190915283015160c082015260005b836040015151811015611783578281815181106133d3576133d3614267565b6020026020010151826060015182815181106133f1576133f1614267565b6001600160a01b03909216602092830291909101909101526001016133b4565b600082548281101561343057634e487b7160005260116020526024601cfd5b9190910392915050565b60048301548110156134ed5782600801600084600401838154811061346157613461614267565b60009182526020808320909101546001600160a01b031683528201929092526040018120805460ff1916905560048401805460078601929190849081106134aa576134aa614267565b60009182526020808320909101546001600160a01b031683528201929092526040018120805460ff1916815560018181018390556002909101919091550161343a565b5060005b60058301548110156135a45782600801600084600501838154811061351857613518614267565b60009182526020808320909101546001600160a01b031683528201929092526040018120805460ff19169055600584018054600786019291908490811061356157613561614267565b60009182526020808320909101546001600160a01b031683528201929092526040018120805460ff191681556001818101839055600290910191909155016134f1565b50815460ff1916825560006001830181905560028301819055600383018190556135d2906004840190613b07565b6135e0600583016000613b07565b60006006830155919050565b6000807f7fffffffffffffffffffffffffffffff5d576e7357a4501ddfe92f46681b20a083111561362357506000905060036136d0565b8460ff16601b1415801561363b57508460ff16601c14155b1561364c57506000905060046136d0565b6040805160008082526020820180845289905260ff881692820192909252606081018690526080810185905260019060a0016020604051602081039080840390855afa1580156136a0573d6000803e3d6000fd5b5050604051601f1901519150506001600160a01b0381166136c9576000600192509250506136d0565b9150600090505b94509492505050565b60008160048111156136ed576136ed6140c2565b036136f55750565b6001816004811115613709576137096140c2565b036137565760405162461bcd60e51b815260206004820152601860248201527f45434453413a20696e76616c6964207369676e617475726500000000000000006044820152606401610920565b600281600481111561376a5761376a6140c2565b036137b75760405162461bcd60e51b815260206004820152601f60248201527f45434453413a20696e76616c6964207369676e6174757265206c656e677468006044820152606401610920565b60038160048111156137cb576137cb6140c2565b036138235760405162461bcd60e51b815260206004820152602260248201527f45434453413a20696e76616c6964207369676e6174757265202773272076616c604482015261756560f01b6064820152608401610920565b6004816004811115613837576138376140c2565b036114de5760405162461bcd60e51b815260206004820152602260248201527f45434453413a20696e76616c6964207369676e6174757265202776272076616c604482015261756560f01b6064820152608401610920565b600081602001516000148061076657505060200151461490565b6060806138b58361388f565b6138f357602083015160405163092048d160e11b81526000356001600160e01b03191660048201526024810191909152466044820152606401610920565b8260600151516001600160401b0381111561391057613910613e2f565b604051908082528060200260200182016040528015613939578160200160208202803683370190505b5091508260600151516001600160401b0381111561395957613959613e2f565b60405190808252806020026020018201604052801561398c57816020015b60608152602001906001900390816139775790505b50905060005b836060015151811015613b01578360c0015181815181106139b5576139b5614267565b60200260200101515a116139e8576139cc84612770565b6040516307aec4ab60e21b815260040161092091815260200190565b836060015181815181106139fe576139fe614267565b60200260200101516001600160a01b031684608001518281518110613a2557613a25614267565b60200260200101518560c001518381518110613a4357613a43614267565b6020026020010151908660a001518481518110613a6257613a62614267565b6020026020010151604051613a7791906146c7565b600060405180830381858888f193505050503d8060008114613ab5576040519150601f19603f3d011682016040523d82523d6000602084013e613aba565b606091505b50848381518110613acd57613acd614267565b60200260200101848481518110613ae657613ae6614267565b60209081029190910101919091529015159052600101613992565b50915091565b50805460008255906000526020600020908101906114de91905b80821115613b355760008155600101613b21565b5090565b60008083601f840112613b4b57600080fd5b5081356001600160401b03811115613b6257600080fd5b6020830191508360208260051b8501011115610b2757600080fd5b60008060008060008060608789031215613b9657600080fd5b86356001600160401b0380821115613bad57600080fd5b613bb98a838b01613b39565b90985096506020890135915080821115613bd257600080fd5b613bde8a838b01613b39565b90965094506040890135915080821115613bf757600080fd5b50613c0489828a01613b39565b979a9699509497509295939492505050565b600081518084526020808501945080840160005b83811015613c48578151151587529582019590820190600101613c2a565b509495945050505050565b6020815260006107216020830184613c16565b60008060208385031215613c7957600080fd5b82356001600160401b03811115613c8f57600080fd5b613c9b85828601613b39565b90969095509350505050565b600081518084526020808501945080840160005b83811015613c485781516001600160a01b031687529582019590820190600101613cbb565b6020815260006107216020830184613ca7565b600060208284031215613d0557600080fd5b5035919050565b60008083601f840112613d1e57600080fd5b5081356001600160401b03811115613d3557600080fd5b602083019150836020606083028501011115610b2757600080fd5b600080600080600060608688031215613d6857600080fd5b85356001600160401b0380821115613d7f57600080fd5b9087019060e0828a031215613d9357600080fd5b90955060208701359080821115613da957600080fd5b613db589838a01613b39565b90965094506040880135915080821115613dce57600080fd5b50613ddb88828901613d0c565b969995985093965092949392505050565b600080600080600060608688031215613e0457600080fd5b85356001600160401b0380821115613e1b57600080fd5b9087019060c0828a031215613d9357600080fd5b634e487b7160e01b600052604160045260246000fd5b60405160e081016001600160401b0381118282101715613e6757613e67613e2f565b60405290565b60405160c081016001600160401b0381118282101715613e6757613e67613e2f565b604051601f8201601f191681016001600160401b0381118282101715613eb757613eb7613e2f565b604052919050565b60006001600160401b03821115613ed857613ed8613e2f565b5060051b60200190565b600082601f830112613ef357600080fd5b81356020613f08613f0383613ebf565b613e8f565b828152600592831b8501820192828201919087851115613f2757600080fd5b8387015b85811015613f4f578035828110613f425760008081fd5b8452928401928401613f2b565b5090979650505050505050565b80356001600160a01b0381168114610d6957600080fd5b600082601f830112613f8457600080fd5b81356020613f94613f0383613ebf565b82815260059290921b84018101918181019086841115613fb357600080fd5b8286015b84811015613fd557613fc881613f5c565b8352918301918301613fb7565b509695505050505050565b60008060408385031215613ff357600080fd5b82356001600160401b038082111561400a57600080fd5b61401686838701613ee2565b9350602085013591508082111561402c57600080fd5b5061403985828601613f73565b9150509250929050565b803560108110610d6957600080fd5b6000806040838503121561406557600080fd5b61406e83614043565b915061407c60208401613f5c565b90509250929050565b60006020828403121561409757600080fd5b61072182613f5c565b600080604083850312156140b357600080fd5b50508035926020909101359150565b634e487b7160e01b600052602160045260246000fd5b600581106114de576114de6140c2565b60a081016140f5876140d8565b95815260208101949094526040840192909252606083015260809091015290565b60006020828403121561412857600080fd5b81356001600160401b0381111561413e57600080fd5b6106ba84828501613f73565b600081518084526020808501945080840160005b83811015613c485781516001600160601b03168752958201959082019060010161415e565b6060815260006141966060830186613ca7565b82810360208401526141a88186613ca7565b905082810360408401526141bc818561414a565b9695505050505050565b602081526000610721602083018461414a565b6000602082840312156141eb57600080fd5b61072182614043565b634e487b7160e01b600052601160045260246000fd5b80820180821115610766576107666141f4565b81810381811115610766576107666141f4565b60008261424d57634e487b7160e01b600052601260045260246000fd5b500490565b6001600160e01b031991909116815260200190565b634e487b7160e01b600052603260045260246000fd5b8082028115828204841417610766576107666141f4565b60208101601083106142a8576142a86140c2565b91905290565b6040815260006142c16040830185613ca7565b82810360208401526142d38185613c16565b95945050505050565b6080815260006142ef6080830187613c16565b8281036020840152614301818761414a565b905082810360408401526143158186613ca7565b905082810360608401526106158185613ca7565b6001600160e01b03198316815260408101600b831061434a5761434a6140c2565b8260208301529392505050565b600082601f83011261436857600080fd5b81356020614378613f0383613ebf565b82815260059290921b8401810191818101908684111561439757600080fd5b8286015b84811015613fd5578035835291830191830161439b565b6000601f83818401126143c457600080fd5b823560206143d4613f0383613ebf565b82815260059290921b850181019181810190878411156143f357600080fd5b8287015b848110156144895780356001600160401b03808211156144175760008081fd5b818a0191508a603f83011261442c5760008081fd5b8582013560408282111561444257614442613e2f565b614453828b01601f19168901613e8f565b92508183528c8183860101111561446a5760008081fd5b81818501898501375060009082018701528452509183019183016143f7565b50979650505050505050565b600060e082360312156144a757600080fd5b6144af613e45565b82358152602083013560208201526040830135604082015260608301356001600160401b03808211156144e157600080fd5b6144ed36838701613f73565b6060840152608085013591508082111561450657600080fd5b61451236838701614357565b608084015260a085013591508082111561452b57600080fd5b614537368387016143b2565b60a084015260c085013591508082111561455057600080fd5b5061455d36828601614357565b60c08301525092915050565b600060c0823603121561457b57600080fd5b614583613e6d565b823581526020830135602082015260408301356001600160401b03808211156145ab57600080fd5b6145b736838701613ee2565b604084015260608501359150808211156145d057600080fd5b6145dc36838701614357565b606084015260808501359150808211156145f557600080fd5b614601368387016143b2565b608084015260a085013591508082111561461a57600080fd5b5061462736828601614357565b60a08301525092915050565b60005b8381101561464e578181015183820152602001614636565b50506000910152565b6001600160e01b031983168152815160009061467a816004850160208701614633565b919091016004019392505050565b600081518084526146a0816020860160208601614633565b601f01601f19169290920160200192915050565b6020815260006107216020830184614688565b600082516146d9818460208701614633565b9190910192915050565b6000815180845260208085019450848260051b860182860160005b85811015613f4f578383038952614716838351614688565b988501989250908401906001016146fe565b60808152600061473b6080830187614688565b828103602084015261474d8187613ca7565b905082810360408401526147618186613c16565b9050828103606084015261061581856146e3565b6040815260006147886040830185613c16565b82810360208401526142d38185613ca7565b6001600160e01b03199290921682526001600160a01b0316602082015260400190565b6000602082840312156147cf57600080fd5b8151801515811461072157600080fd5b600081518084526020808501945080840160005b83811015613c48578151875295820195908201906001016147f3565b600060e08301825184526020808401518186015260408401516040860152606084015160e06060870152828151808552610100880191508383019450600092505b808310156148795784516001600160a01b03168252938301936001929092019190830190614850565b5060808601519350868103608088015261489381856147df565b935050505060a083015184820360a08601526148af82826146e3565b91505060c083015184820360c08601526142d382826147df565b6040815260006148dc604083018561480f565b905060018060a01b03831660208301529392505050565b60006020828403121561490557600080fd5b81356002811061072157600080fd5b60006020828403121561492657600080fd5b813560ff8116811461072157600080fd5b600060018201614949576149496141f4565b5060010190565b608081526000614963608083018761480f565b60208681850152838203604085015260c08201865183528187015182840152604087015160c0604085015281815180845260e0860191508483019350600092505b808310156149cd5783516149b7816140d8565b82529284019260019290920191908401906149a4565b506060890151935084810360608601526149e781856147df565b935050505060808601518282036080840152614a0382826146e3565b91505060a086015182820360a0840152614a1d82826147df565b93505050506142d360608301846001600160a01b03169052565b634e487b7160e01b600052603160045260246000fd5b604081526000614a606040830185613c16565b82810360208401526142d381856146e356fe5da136eb38f8d8e354915fc8a767c0dc81d49de5fb65d5477122a82ddd976240ac1ff16a4f04f2a37a9ba5252a69baa100b460e517d1f8019c054a5ad698f9ffc55405a488814eaa0e2a685a0131142785b8d033d311c8c8244e34a7c12ca40f88547008e60f5748911f2e59feb3093b7e4c2e87b2dd69d61f112fcc932de8e38400683eb2cb350596d73644c0c89fe45f108600003457374f4ab3e87b4f3aa3d38c234075fde25875da8a6b7e36b58b86681d483271a99eeeee1d78e258a24d6924fe71b0c8b61aea02ca498b5f53b29bd95726278b1fe4eb791bb24a42644ca2646970667358221220e24c473cb9b7f8fce5e9e8b7bcf5aa6cef6921786fda11dfa2a2fe81c2fbf42764736f6c634300081100335da136eb38f8d8e354915fc8a767c0dc81d49de5fb65d5477122a82ddd976240c55405a488814eaa0e2a685a0131142785b8d033d311c8c8244e34a7c12ca40f92872d32822c9d44b36a2537d3e0d4c46fc4de1ce154ccfaed560a8a58445f1d",
  "devdoc": {
    "errors": {
      "ErrBridgeOperatorAlreadyExisted(address)": [
        {
          "details": "Error thrown when attempting to add a bridge operator that already exists in the contract. This error indicates that the provided bridge operator address is already registered as a bridge operator in the contract."
        }
      ],
      "ErrBridgeOperatorUpdateFailed(address)": [
        {
          "details": "Error raised when a bridge operator update operation fails.",
          "params": {
            "bridgeOperator": "The address of the bridge operator that failed to update."
          }
        }
      ],
      "ErrContractTypeNotFound(uint8)": [
        {
          "details": "Error of invalid role."
        }
      ],
      "ErrCurrentProposalIsNotCompleted()": [
        {
          "details": "Error thrown when the current proposal is not completed."
        }
      ],
      "ErrDuplicated(bytes4)": [
        {
          "details": "Error thrown when a duplicated element is detected in an array.",
          "params": {
            "msgSig": "The function signature that invoke the error."
          }
        }
      ],
      "ErrInsufficientGas(bytes32)": [
        {
          "details": "Error thrown when there is insufficient gas to execute a function."
        }
      ],
      "ErrInvalidArguments(bytes4)": [
        {
          "details": "Error indicating that arguments are invalid."
        }
      ],
      "ErrInvalidChainId(bytes4,uint256,uint256)": [
        {
          "details": "Error indicating that the chain ID is invalid.",
          "params": {
            "actual": "Current chain ID that executing function.",
            "expected": "Expected chain ID required for the tx to success.",
            "msgSig": "The function signature (bytes4) of the operation that encountered an invalid chain ID."
          }
        }
      ],
      "ErrInvalidExpiryTimestamp()": [
        {
          "details": "Error thrown when an invalid expiry timestamp is provided."
        }
      ],
      "ErrInvalidOrder(bytes4)": [
        {
          "details": "Error indicating that an order is invalid.",
          "params": {
            "msgSig": "The function signature (bytes4) of the operation that encountered an invalid order."
          }
        }
      ],
      "ErrInvalidProposalNonce(bytes4)": [
        {
          "details": "Error indicating that the proposal nonce is invalid.",
          "params": {
            "msgSig": "The function signature (bytes4) of the operation that encountered an invalid proposal nonce."
          }
        }
      ],
      "ErrInvalidThreshold(bytes4)": [
        {
          "details": "Error indicating that the provided threshold is invalid for a specific function signature.",
          "params": {
            "msgSig": "The function signature (bytes4) that the invalid threshold applies to."
          }
        }
      ],
      "ErrInvalidVoteWeight(bytes4)": [
        {
          "details": "Error indicating that a vote weight is invalid for a specific function signature.",
          "params": {
            "msgSig": "The function signature (bytes4) that encountered an invalid vote weight."
          }
        }
      ],
      "ErrLengthMismatch(bytes4)": [
        {
          "details": "Error indicating a mismatch in the length of input parameters or arrays for a specific function.",
          "params": {
            "msgSig": "The function signature (bytes4) that has a length mismatch."
          }
        }
      ],
      "ErrOnlySelfCall(bytes4)": [
        {
          "details": "Error indicating that a function can only be called by the contract itself.",
          "params": {
            "msgSig": "The function signature (bytes4) that can only be called by the contract itself."
          }
        }
      ],
      "ErrRelayFailed(bytes4)": [
        {
          "details": "Error indicating that a relay call has failed.",
          "params": {
            "msgSig": "The function signature (bytes4) of the relay call that failed."
          }
        }
      ],
      "ErrUnauthorized(bytes4,uint8)": [
        {
          "details": "Error indicating that the caller is unauthorized to perform a specific function.",
          "params": {
            "expectedRole": "The role required to perform the function.",
            "msgSig": "The function signature (bytes4) that the caller is unauthorized to perform."
          }
        }
      ],
      "ErrUnsupportedInterface(bytes4,address)": [
        {
          "details": "The error indicating an unsupported interface.",
          "params": {
            "addr": "The address where the unsupported interface was encountered.",
            "interfaceId": "The bytes4 interface identifier that is not supported."
          }
        }
      ],
      "ErrUnsupportedVoteType(bytes4)": [
        {
          "details": "Error indicating that a vote type is not supported.",
          "params": {
            "msgSig": "The function signature (bytes4) of the operation that encountered an unsupported vote type."
          }
        }
      ],
      "ErrVoteIsFinalized()": [
        {
          "details": "Error thrown when attempting to interact with a finalized vote."
        }
      ],
      "ErrZeroAddress(bytes4)": [
        {
          "details": "Error indicating that given address is null when it should not."
        }
      ],
      "ErrZeroCodeContract(address)": [
        {
          "details": "Error of set to non-contract."
        }
      ]
    },
    "kind": "dev",
    "methods": {
      "addBridgeOperators(uint96[],address[],address[])": {
        "details": "Adds multiple bridge operators.",
        "params": {
          "bridgeOperators": "An array of addresses representing the bridge operators to add.",
          "governors": "An array of addresses of hot/cold wallets for bridge operator to update their node address."
        },
        "returns": {
          "addeds": "An array of booleans indicating whether each bridge operator was added successfully. Note: return boolean array `addeds` indicates whether a group (voteWeight, governor, operator) are recorded. It is expected that FE/BE staticcall to the function first to get the return values and handle it correctly. Governors are expected to see the outcome of this function and decide if they want to vote for the proposal or not. Example Usage: Making an `eth_call` in ethers.js ``` const {addeds} = await bridgeManagerContract.callStatic.addBridgeOperators(  voteWeights,  governors,  bridgeOperators,  // overriding the caller to the contract itself since we use `onlySelfCall` guard  {from: bridgeManagerContract.address} ) const filteredOperators = bridgeOperators.filter((_, index) => addeds[index]); const filteredWeights = weights.filter((_, index) => addeds[index]); const filteredGovernors = governors.filter((_, index) => addeds[index]); // ... (Process or use the information as required) ... ```"
        }
      },
      "checkThreshold(uint256)": {
        "details": "Checks whether the `_voteWeight` passes the threshold."
      },
      "getBridgeOperatorOf(address[])": {
        "details": "Returns an array of bridge operators correspoding to governor addresses.",
        "returns": {
          "bridgeOperators": "An array containing the addresses of all bridge operators."
        }
      },
      "getBridgeOperatorWeight(address)": {
        "details": "External function to retrieve the vote weight of a specific bridge operator.",
        "params": {
          "bridgeOperator": "The address of the bridge operator to get the vote weight for."
        },
        "returns": {
          "weight": "The vote weight of the specified bridge operator."
        }
      },
      "getBridgeOperators()": {
        "details": "Returns an array of all bridge operators.",
        "returns": {
          "_0": "An array containing the addresses of all bridge operators."
        }
      },
      "getCallbackRegisters()": {
        "details": "Retrieves the addresses of registered callbacks.",
        "returns": {
          "registers": "An array containing the addresses of registered callbacks."
        }
      },
      "getContract(uint8)": {
        "details": "Returns the address of a contract with a specific role. Throws an error if no contract is set for the specified role.",
        "params": {
          "contractType": "The role of the contract to retrieve."
        },
        "returns": {
          "contract_": "The address of the contract with the specified role."
        }
      },
      "getFullBridgeOperatorInfos()": {
        "details": "Retrieves the full information of all registered bridge operators. This external function allows external callers to obtain the full information of all the registered bridge operators. The returned arrays include the addresses of governors, bridge operators, and their corresponding vote weights.",
        "returns": {
          "bridgeOperators": "An array of addresses representing the registered bridge operators.",
          "governors": "An array of addresses representing the governors of each bridge operator.",
          "weights": "An array of uint256 values representing the vote weights of each bridge operator. Note: The length of each array will be the same, and the order of elements corresponds to the same bridge operator. Example Usage: ``` (address[] memory governors, address[] memory bridgeOperators, uint256[] memory weights) = getFullBridgeOperatorInfos(); for (uint256 i = 0; i < bridgeOperators.length; i++) {     // Access individual information for each bridge operator.     address governor = governors[i];     address bridgeOperator = bridgeOperators[i];     uint256 weight = weights[i];     // ... (Process or use the information as required) ... } ```"
        }
      },
      "getGovernorWeight(address)": {
        "details": "External function to retrieve the vote weight of a specific governor.",
        "params": {
          "governor": "The address of the governor to get the vote weight for."
        },
        "returns": {
          "weight": "voteWeight The vote weight of the specified governor."
        }
      },
      "getGovernorWeights(address[])": {
        "details": "Returns the weights of a list of governor addresses."
      },
      "getGovernors()": {
        "details": "Returns an array of all governors.",
        "returns": {
          "_0": "An array containing the addresses of all governors."
        }
      },
      "getGovernorsOf(address[])": {
        "details": "Retrieves the governors corresponding to a given array of bridge operators. This external function allows external callers to obtain the governors associated with a given array of bridge operators. The function takes an input array `bridgeOperators` containing bridge operator addresses and returns an array of corresponding governors.",
        "params": {
          "bridgeOperators": "An array of bridge operator addresses for which governors are to be retrieved."
        },
        "returns": {
          "governors": "An array of addresses representing the governors corresponding to the provided bridge operators."
        }
      },
      "getProposalExpiryDuration()": {
        "details": "Returns the expiry duration for a new proposal."
      },
      "getThreshold()": {
        "details": "Returns the threshold."
      },
      "getTotalWeight()": {
        "details": "Returns total weights."
      },
      "globalProposalRelayed(uint256)": {
        "details": "Returns whether the voter `_voter` casted vote for the proposal."
      },
      "isBridgeOperator(address)": {
        "details": "Checks if the given address is a bridge operator.",
        "params": {
          "addr": "The address to check."
        },
        "returns": {
          "_0": "A boolean indicating whether the address is a bridge operator."
        }
      },
      "minimumVoteWeight()": {
        "details": "Returns the minimum vote weight to pass the threshold."
      },
      "registerCallbacks(address[])": {
        "details": "Registers multiple callbacks with the bridge.",
        "params": {
          "registers": "The array of callback addresses to register."
        },
        "returns": {
          "registereds": "An array indicating the success status of each registration."
        }
      },
      "relayGlobalProposal((uint256,uint256,uint8[],uint256[],bytes[],uint256[]),uint8[],(uint8,bytes32,bytes32)[])": {
        "details": "See `GovernanceRelay-_relayGlobalProposal`.  Requirements: - The method caller is governor."
      },
      "relayProposal((uint256,uint256,uint256,address[],uint256[],bytes[],uint256[]),uint8[],(uint8,bytes32,bytes32)[])": {
        "details": "See `GovernanceRelay-_relayProposal`. Requirements: - The method caller is governor."
      },
      "removeBridgeOperators(address[])": {
        "details": "Removes multiple bridge operators.",
        "params": {
          "bridgeOperators": "An array of addresses representing the bridge operators to remove."
        },
        "returns": {
          "removeds": "An array of booleans indicating whether each bridge operator was removed successfully. * Note: return boolean array `removeds` indicates whether a group (voteWeight, governor, operator) are recorded. It is expected that FE/BE staticcall to the function first to get the return values and handle it correctly. Governors are expected to see the outcome of this function and decide if they want to vote for the proposal or not. Example Usage: Making an `eth_call` in ethers.js ``` const {removeds} = await bridgeManagerContract.callStatic.removeBridgeOperators(  bridgeOperators,  // overriding the caller to the contract itself since we use `onlySelfCall` guard  {from: bridgeManagerContract.address} ) const filteredOperators = bridgeOperators.filter((_, index) => removeds[index]); // ... (Process or use the information as required) ... ```"
        }
      },
      "resolveTargets(uint8[])": {
        "details": "Returns corresponding address of target options. Return address(0) on non-existent target."
      },
      "setContract(uint8,address)": {
        "details": "Sets the address of a contract with a specific role. Emits the event {ContractUpdated}.",
        "params": {
          "addr": "The address of the contract to set.",
          "contractType": "The role of the contract to set."
        }
      },
      "setThreshold(uint256,uint256)": {
        "details": "Sets the threshold. Requirements: - The method caller is admin. Emits the `ThresholdUpdated` event."
      },
      "sumGovernorsWeight(address[])": {
        "details": "Returns total weights of the governor list."
      },
      "totalBridgeOperator()": {
        "details": "Returns the total number of bridge operators.",
        "returns": {
          "_0": "The total number of bridge operators."
        }
      },
      "unregisterCallbacks(address[])": {
        "details": "Unregisters multiple callbacks from the bridge.",
        "params": {
          "registers": "The array of callback addresses to unregister."
        },
        "returns": {
          "unregistereds": "An array indicating the success status of each unregistration."
        }
      },
      "updateBridgeOperator(address)": {
        "details": "Governor updates their corresponding governor and/or operator address. Requirements: - The caller must the governor of the operator that is requested changes.",
        "params": {
          "bridgeOperator": "The address of the bridge operator to update."
        }
      },
      "updateManyTargetOption(uint8[],address[])": {
        "details": "Updates list of `targetOptions` to `targets`. Requirement: - Only allow self-call through proposal. "
      }
    },
    "version": 1
  },
  "userdoc": {
    "kind": "user",
    "methods": {
      "round(uint256)": {
        "notice": "chain id = 0 for global proposal"
      },
      "updateBridgeOperator(address)": {
        "notice": "This method checks authorization by querying the corresponding operator of the msg.sender and then attempts to remove it from the `_bridgeOperatorSet` for gas optimization. In case we allow a governor can leave their operator address blank null `address(0)`, consider add authorization check."
      }
    },
    "version": 1
  },
  "storageLayout": {
    "storage": [
      {
        "astId": 8181,
        "contract": "contracts/mainchain/MainchainBridgeManager.sol:MainchainBridgeManager",
        "label": "round",
        "offset": 0,
        "slot": "0",
        "type": "t_mapping(t_uint256,t_uint256)"
      },
      {
        "astId": 8189,
        "contract": "contracts/mainchain/MainchainBridgeManager.sol:MainchainBridgeManager",
        "label": "vote",
        "offset": 0,
        "slot": "1",
        "type": "t_mapping(t_uint256,t_mapping(t_uint256,t_struct(ProposalVote)8119_storage))"
      },
      {
        "astId": 8191,
        "contract": "contracts/mainchain/MainchainBridgeManager.sol:MainchainBridgeManager",
        "label": "_proposalExpiryDuration",
        "offset": 0,
        "slot": "2",
        "type": "t_uint256"
      },
      {
        "astId": 8928,
        "contract": "contracts/mainchain/MainchainBridgeManager.sol:MainchainBridgeManager",
        "label": "_targetOptionsMap",
        "offset": 0,
        "slot": "3",
        "type": "t_mapping(t_enum(TargetOption)15426,t_address)"
      }
    ],
    "types": {
      "t_address": {
        "encoding": "inplace",
        "label": "address",
        "numberOfBytes": "20"
      },
      "t_array(t_address)dyn_storage": {
        "base": "t_address",
        "encoding": "dynamic_array",
        "label": "address[]",
        "numberOfBytes": "32"
      },
      "t_bool": {
        "encoding": "inplace",
        "label": "bool",
        "numberOfBytes": "1"
      },
      "t_bytes32": {
        "encoding": "inplace",
        "label": "bytes32",
        "numberOfBytes": "32"
      },
      "t_enum(TargetOption)15426": {
        "encoding": "inplace",
        "label": "enum GlobalProposal.TargetOption",
        "numberOfBytes": "1"
      },
      "t_enum(VoteStatus)13030": {
        "encoding": "inplace",
        "label": "enum VoteStatusConsumer.VoteStatus",
        "numberOfBytes": "1"
      },
      "t_mapping(t_address,t_bool)": {
        "encoding": "mapping",
        "key": "t_address",
        "label": "mapping(address => bool)",
        "numberOfBytes": "32",
        "value": "t_bool"
      },
      "t_mapping(t_address,t_struct(Signature)13021_storage)": {
        "encoding": "mapping",
        "key": "t_address",
        "label": "mapping(address => struct SignatureConsumer.Signature)",
        "numberOfBytes": "32",
        "value": "t_struct(Signature)13021_storage"
      },
      "t_mapping(t_enum(TargetOption)15426,t_address)": {
        "encoding": "mapping",
        "key": "t_enum(TargetOption)15426",
        "label": "mapping(enum GlobalProposal.TargetOption => address)",
        "numberOfBytes": "32",
        "value": "t_address"
      },
      "t_mapping(t_uint256,t_mapping(t_uint256,t_struct(ProposalVote)8119_storage))": {
        "encoding": "mapping",
        "key": "t_uint256",
        "label": "mapping(uint256 => mapping(uint256 => struct CoreGovernance.ProposalVote))",
        "numberOfBytes": "32",
        "value": "t_mapping(t_uint256,t_struct(ProposalVote)8119_storage)"
      },
      "t_mapping(t_uint256,t_struct(ProposalVote)8119_storage)": {
        "encoding": "mapping",
        "key": "t_uint256",
        "label": "mapping(uint256 => struct CoreGovernance.ProposalVote)",
        "numberOfBytes": "32",
        "value": "t_struct(ProposalVote)8119_storage"
      },
      "t_mapping(t_uint256,t_uint256)": {
        "encoding": "mapping",
        "key": "t_uint256",
        "label": "mapping(uint256 => uint256)",
        "numberOfBytes": "32",
        "value": "t_uint256"
      },
      "t_struct(ProposalVote)8119_storage": {
        "encoding": "inplace",
        "label": "struct CoreGovernance.ProposalVote",
        "members": [
          {
            "astId": 8095,
            "contract": "contracts/mainchain/MainchainBridgeManager.sol:MainchainBridgeManager",
            "label": "status",
            "offset": 0,
            "slot": "0",
            "type": "t_enum(VoteStatus)13030"
          },
          {
            "astId": 8097,
            "contract": "contracts/mainchain/MainchainBridgeManager.sol:MainchainBridgeManager",
            "label": "hash",
            "offset": 0,
            "slot": "1",
            "type": "t_bytes32"
          },
          {
            "astId": 8099,
            "contract": "contracts/mainchain/MainchainBridgeManager.sol:MainchainBridgeManager",
            "label": "againstVoteWeight",
            "offset": 0,
            "slot": "2",
            "type": "t_uint256"
          },
          {
            "astId": 8101,
            "contract": "contracts/mainchain/MainchainBridgeManager.sol:MainchainBridgeManager",
            "label": "forVoteWeight",
            "offset": 0,
            "slot": "3",
            "type": "t_uint256"
          },
          {
            "astId": 8104,
            "contract": "contracts/mainchain/MainchainBridgeManager.sol:MainchainBridgeManager",
            "label": "forVoteds",
            "offset": 0,
            "slot": "4",
            "type": "t_array(t_address)dyn_storage"
          },
          {
            "astId": 8107,
            "contract": "contracts/mainchain/MainchainBridgeManager.sol:MainchainBridgeManager",
            "label": "againstVoteds",
            "offset": 0,
            "slot": "5",
            "type": "t_array(t_address)dyn_storage"
          },
          {
            "astId": 8109,
            "contract": "contracts/mainchain/MainchainBridgeManager.sol:MainchainBridgeManager",
            "label": "expiryTimestamp",
            "offset": 0,
            "slot": "6",
            "type": "t_uint256"
          },
          {
            "astId": 8114,
            "contract": "contracts/mainchain/MainchainBridgeManager.sol:MainchainBridgeManager",
            "label": "sig",
            "offset": 0,
            "slot": "7",
            "type": "t_mapping(t_address,t_struct(Signature)13021_storage)"
          },
          {
            "astId": 8118,
            "contract": "contracts/mainchain/MainchainBridgeManager.sol:MainchainBridgeManager",
            "label": "voted",
            "offset": 0,
            "slot": "8",
            "type": "t_mapping(t_address,t_bool)"
          }
        ],
        "numberOfBytes": "288"
      },
      "t_struct(Signature)13021_storage": {
        "encoding": "inplace",
        "label": "struct SignatureConsumer.Signature",
        "members": [
          {
            "astId": 13016,
            "contract": "contracts/mainchain/MainchainBridgeManager.sol:MainchainBridgeManager",
            "label": "v",
            "offset": 0,
            "slot": "0",
            "type": "t_uint8"
          },
          {
            "astId": 13018,
            "contract": "contracts/mainchain/MainchainBridgeManager.sol:MainchainBridgeManager",
            "label": "r",
            "offset": 0,
            "slot": "1",
            "type": "t_bytes32"
          },
          {
            "astId": 13020,
            "contract": "contracts/mainchain/MainchainBridgeManager.sol:MainchainBridgeManager",
            "label": "s",
            "offset": 0,
            "slot": "2",
            "type": "t_bytes32"
          }
        ],
        "numberOfBytes": "96"
      },
      "t_uint256": {
        "encoding": "inplace",
        "label": "uint256",
        "numberOfBytes": "32"
      },
      "t_uint8": {
        "encoding": "inplace",
        "label": "uint8",
        "numberOfBytes": "1"
      }
    }
  }
}