{
  "address": "0xb290E3276E86327AF217eA0F40fEf53f1b34D3Ac",
  "abi": [
    {
      "inputs": [
        {
          "internalType": "uint256",
          "name": "_roninChainId",
          "type": "uint256"
        },
        {
          "internalType": "address",
          "name": "_roleSetter",
          "type": "address"
        },
        {
          "internalType": "address",
          "name": "_roninTrustedOrganizationContract",
          "type": "address"
        },
        {
          "internalType": "address",
          "name": "_bridgeContract",
          "type": "address"
        },
        {
          "internalType": "address[]",
          "name": "_relayers",
          "type": "address[]"
        }
      ],
      "stateMutability": "nonpayable",
      "type": "constructor"
    },
    {
      "inputs": [],
      "name": "ErrCallerMustBeBridgeContract",
      "type": "error"
    },
    {
      "inputs": [],
      "name": "ErrCallerMustBeRoninTrustedOrgContract",
      "type": "error"
    },
    {
      "inputs": [],
      "name": "ErrZeroCodeContract",
      "type": "error"
    },
    {
      "anonymous": false,
      "inputs": [
        {
          "indexed": false,
          "internalType": "address",
          "name": "",
          "type": "address"
        }
      ],
      "name": "BridgeContractUpdated",
      "type": "event"
    },
    {
      "anonymous": false,
      "inputs": [
        {
          "indexed": true,
          "internalType": "uint256",
          "name": "round",
          "type": "uint256"
        },
        {
          "indexed": true,
          "internalType": "bytes32",
          "name": "proposalHash",
          "type": "bytes32"
        },
        {
          "components": [
            {
              "internalType": "uint256",
              "name": "nonce",
              "type": "uint256"
            },
            {
              "internalType": "uint256",
              "name": "chainId",
              "type": "uint256"
            },
            {
              "internalType": "uint256",
              "name": "expiryTimestamp",
              "type": "uint256"
            },
            {
              "internalType": "address[]",
              "name": "targets",
              "type": "address[]"
            },
            {
              "internalType": "uint256[]",
              "name": "values",
              "type": "uint256[]"
            },
            {
              "internalType": "bytes[]",
              "name": "calldatas",
              "type": "bytes[]"
            },
            {
              "internalType": "uint256[]",
              "name": "gasAmounts",
              "type": "uint256[]"
            }
          ],
          "indexed": false,
          "internalType": "struct Proposal.ProposalDetail",
          "name": "proposal",
          "type": "tuple"
        },
        {
          "indexed": false,
          "internalType": "bytes32",
          "name": "globalProposalHash",
          "type": "bytes32"
        },
        {
          "components": [
            {
              "internalType": "uint256",
              "name": "nonce",
              "type": "uint256"
            },
            {
              "internalType": "uint256",
              "name": "expiryTimestamp",
              "type": "uint256"
            },
            {
              "internalType": "enum GlobalProposal.TargetOption[]",
              "name": "targetOptions",
              "type": "uint8[]"
            },
            {
              "internalType": "uint256[]",
              "name": "values",
              "type": "uint256[]"
            },
            {
              "internalType": "bytes[]",
              "name": "calldatas",
              "type": "bytes[]"
            },
            {
              "internalType": "uint256[]",
              "name": "gasAmounts",
              "type": "uint256[]"
            }
          ],
          "indexed": false,
          "internalType": "struct GlobalProposal.GlobalProposalDetail",
          "name": "globalProposal",
          "type": "tuple"
        },
        {
          "indexed": false,
          "internalType": "address",
          "name": "creator",
          "type": "address"
        }
      ],
      "name": "GlobalProposalCreated",
      "type": "event"
    },
    {
      "anonymous": false,
      "inputs": [
        {
          "indexed": true,
          "internalType": "bytes32",
          "name": "proposalHash",
          "type": "bytes32"
        }
      ],
      "name": "ProposalApproved",
      "type": "event"
    },
    {
      "anonymous": false,
      "inputs": [
        {
          "indexed": true,
          "internalType": "uint256",
          "name": "chainId",
          "type": "uint256"
        },
        {
          "indexed": true,
          "internalType": "uint256",
          "name": "round",
          "type": "uint256"
        },
        {
          "indexed": true,
          "internalType": "bytes32",
          "name": "proposalHash",
          "type": "bytes32"
        },
        {
          "components": [
            {
              "internalType": "uint256",
              "name": "nonce",
              "type": "uint256"
            },
            {
              "internalType": "uint256",
              "name": "chainId",
              "type": "uint256"
            },
            {
              "internalType": "uint256",
              "name": "expiryTimestamp",
              "type": "uint256"
            },
            {
              "internalType": "address[]",
              "name": "targets",
              "type": "address[]"
            },
            {
              "internalType": "uint256[]",
              "name": "values",
              "type": "uint256[]"
            },
            {
              "internalType": "bytes[]",
              "name": "calldatas",
              "type": "bytes[]"
            },
            {
              "internalType": "uint256[]",
              "name": "gasAmounts",
              "type": "uint256[]"
            }
          ],
          "indexed": false,
          "internalType": "struct Proposal.ProposalDetail",
          "name": "proposal",
          "type": "tuple"
        },
        {
          "indexed": false,
          "internalType": "address",
          "name": "creator",
          "type": "address"
        }
      ],
      "name": "ProposalCreated",
      "type": "event"
    },
    {
      "anonymous": false,
      "inputs": [
        {
          "indexed": true,
          "internalType": "bytes32",
          "name": "proposalHash",
          "type": "bytes32"
        },
        {
          "indexed": false,
          "internalType": "bool[]",
          "name": "successCalls",
          "type": "bool[]"
        },
        {
          "indexed": false,
          "internalType": "bytes[]",
          "name": "returnDatas",
          "type": "bytes[]"
        }
      ],
      "name": "ProposalExecuted",
      "type": "event"
    },
    {
      "anonymous": false,
      "inputs": [
        {
          "indexed": true,
          "internalType": "bytes32",
          "name": "proposalHash",
          "type": "bytes32"
        }
      ],
      "name": "ProposalExpired",
      "type": "event"
    },
    {
      "anonymous": false,
      "inputs": [
        {
          "indexed": true,
          "internalType": "bytes32",
          "name": "proposalHash",
          "type": "bytes32"
        }
      ],
      "name": "ProposalRejected",
      "type": "event"
    },
    {
      "anonymous": false,
      "inputs": [
        {
          "indexed": true,
          "internalType": "bytes32",
          "name": "proposalHash",
          "type": "bytes32"
        },
        {
          "indexed": true,
          "internalType": "address",
          "name": "voter",
          "type": "address"
        },
        {
          "indexed": false,
          "internalType": "enum Ballot.VoteType",
          "name": "support",
          "type": "uint8"
        },
        {
          "indexed": false,
          "internalType": "uint256",
          "name": "weight",
          "type": "uint256"
        }
      ],
      "name": "ProposalVoted",
      "type": "event"
    },
    {
      "anonymous": false,
      "inputs": [
        {
          "indexed": true,
          "internalType": "bytes32",
          "name": "role",
          "type": "bytes32"
        },
        {
          "indexed": true,
          "internalType": "bytes32",
          "name": "previousAdminRole",
          "type": "bytes32"
        },
        {
          "indexed": true,
          "internalType": "bytes32",
          "name": "newAdminRole",
          "type": "bytes32"
        }
      ],
      "name": "RoleAdminChanged",
      "type": "event"
    },
    {
      "anonymous": false,
      "inputs": [
        {
          "indexed": true,
          "internalType": "bytes32",
          "name": "role",
          "type": "bytes32"
        },
        {
          "indexed": true,
          "internalType": "address",
          "name": "account",
          "type": "address"
        },
        {
          "indexed": true,
          "internalType": "address",
          "name": "sender",
          "type": "address"
        }
      ],
      "name": "RoleGranted",
      "type": "event"
    },
    {
      "anonymous": false,
      "inputs": [
        {
          "indexed": true,
          "internalType": "bytes32",
          "name": "role",
          "type": "bytes32"
        },
        {
          "indexed": true,
          "internalType": "address",
          "name": "account",
          "type": "address"
        },
        {
          "indexed": true,
          "internalType": "address",
          "name": "sender",
          "type": "address"
        }
      ],
      "name": "RoleRevoked",
      "type": "event"
    },
    {
      "anonymous": false,
      "inputs": [
        {
          "indexed": false,
          "internalType": "address",
          "name": "",
          "type": "address"
        }
      ],
      "name": "RoninTrustedOrganizationContractUpdated",
      "type": "event"
    },
    {
      "inputs": [],
      "name": "DEFAULT_ADMIN_ROLE",
      "outputs": [
        {
          "internalType": "bytes32",
          "name": "",
          "type": "bytes32"
        }
      ],
      "stateMutability": "view",
      "type": "function"
    },
    {
      "inputs": [],
      "name": "DOMAIN_SEPARATOR",
      "outputs": [
        {
          "internalType": "bytes32",
          "name": "",
          "type": "bytes32"
        }
      ],
      "stateMutability": "view",
      "type": "function"
    },
    {
      "inputs": [],
      "name": "RELAYER_ROLE",
      "outputs": [
        {
          "internalType": "bytes32",
          "name": "",
          "type": "bytes32"
        }
      ],
      "stateMutability": "view",
      "type": "function"
    },
    {
      "inputs": [],
      "name": "bridgeContract",
      "outputs": [
        {
          "internalType": "address",
          "name": "",
          "type": "address"
        }
      ],
      "stateMutability": "view",
      "type": "function"
    },
    {
      "inputs": [
        {
          "internalType": "uint256",
          "name": "_period",
          "type": "uint256"
        },
        {
          "internalType": "uint256",
          "name": "_epoch",
          "type": "uint256"
        }
      ],
      "name": "bridgeOperatorsRelayed",
      "outputs": [
        {
          "internalType": "bool",
          "name": "",
          "type": "bool"
        }
      ],
      "stateMutability": "view",
      "type": "function"
    },
    {
      "inputs": [
        {
          "internalType": "address",
          "name": "_proxy",
          "type": "address"
        },
        {
          "internalType": "address",
          "name": "_newAdmin",
          "type": "address"
        }
      ],
      "name": "changeProxyAdmin",
      "outputs": [],
      "stateMutability": "nonpayable",
      "type": "function"
    },
    {
      "inputs": [],
      "name": "getProposalExpiryDuration",
      "outputs": [
        {
          "internalType": "uint256",
          "name": "",
          "type": "uint256"
        }
      ],
      "stateMutability": "view",
      "type": "function"
    },
    {
      "inputs": [
        {
          "internalType": "address",
          "name": "_proxy",
          "type": "address"
        }
      ],
      "name": "getProxyAdmin",
      "outputs": [
        {
          "internalType": "address",
          "name": "",
          "type": "address"
        }
      ],
      "stateMutability": "view",
      "type": "function"
    },
    {
      "inputs": [
        {
          "internalType": "address",
          "name": "_proxy",
          "type": "address"
        }
      ],
      "name": "getProxyImplementation",
      "outputs": [
        {
          "internalType": "address",
          "name": "",
          "type": "address"
        }
      ],
      "stateMutability": "view",
      "type": "function"
    },
    {
      "inputs": [
        {
          "internalType": "bytes32",
          "name": "role",
          "type": "bytes32"
        }
      ],
      "name": "getRoleAdmin",
      "outputs": [
        {
          "internalType": "bytes32",
          "name": "",
          "type": "bytes32"
        }
      ],
      "stateMutability": "view",
      "type": "function"
    },
    {
      "inputs": [
        {
          "internalType": "bytes32",
          "name": "role",
          "type": "bytes32"
        },
        {
          "internalType": "uint256",
          "name": "index",
          "type": "uint256"
        }
      ],
      "name": "getRoleMember",
      "outputs": [
        {
          "internalType": "address",
          "name": "",
          "type": "address"
        }
      ],
      "stateMutability": "view",
      "type": "function"
    },
    {
      "inputs": [
        {
          "internalType": "bytes32",
          "name": "role",
          "type": "bytes32"
        }
      ],
      "name": "getRoleMemberCount",
      "outputs": [
        {
          "internalType": "uint256",
          "name": "",
          "type": "uint256"
        }
      ],
      "stateMutability": "view",
      "type": "function"
    },
    {
      "inputs": [
        {
          "internalType": "bytes32",
          "name": "role",
          "type": "bytes32"
        },
        {
          "internalType": "address",
          "name": "account",
          "type": "address"
        }
      ],
      "name": "grantRole",
      "outputs": [],
      "stateMutability": "nonpayable",
      "type": "function"
    },
    {
      "inputs": [
        {
          "internalType": "bytes32",
          "name": "role",
          "type": "bytes32"
        },
        {
          "internalType": "address",
          "name": "account",
          "type": "address"
        }
      ],
      "name": "hasRole",
      "outputs": [
        {
          "internalType": "bool",
          "name": "",
          "type": "bool"
        }
      ],
      "stateMutability": "view",
      "type": "function"
    },
    {
      "inputs": [],
      "name": "lastSyncedBridgeOperatorSetInfo",
      "outputs": [
        {
          "components": [
            {
              "internalType": "uint256",
              "name": "period",
              "type": "uint256"
            },
            {
              "internalType": "uint256",
              "name": "epoch",
              "type": "uint256"
            },
            {
              "internalType": "address[]",
              "name": "operators",
              "type": "address[]"
            }
          ],
          "internalType": "struct BridgeOperatorsBallot.BridgeOperatorSet",
          "name": "",
          "type": "tuple"
        }
      ],
      "stateMutability": "view",
      "type": "function"
    },
    {
      "inputs": [
        {
          "internalType": "uint256",
          "name": "_chainId",
          "type": "uint256"
        },
        {
          "internalType": "uint256",
          "name": "_round",
          "type": "uint256"
        }
      ],
      "name": "proposalRelayed",
      "outputs": [
        {
          "internalType": "bool",
          "name": "",
          "type": "bool"
        }
      ],
      "stateMutability": "view",
      "type": "function"
    },
    {
      "inputs": [
        {
          "components": [
            {
              "internalType": "uint256",
              "name": "period",
              "type": "uint256"
            },
            {
              "internalType": "uint256",
              "name": "epoch",
              "type": "uint256"
            },
            {
              "internalType": "address[]",
              "name": "operators",
              "type": "address[]"
            }
          ],
          "internalType": "struct BridgeOperatorsBallot.BridgeOperatorSet",
          "name": "_ballot",
          "type": "tuple"
        },
        {
          "components": [
            {
              "internalType": "uint8",
              "name": "v",
              "type": "uint8"
            },
            {
              "internalType": "bytes32",
              "name": "r",
              "type": "bytes32"
            },
            {
              "internalType": "bytes32",
              "name": "s",
              "type": "bytes32"
            }
          ],
          "internalType": "struct SignatureConsumer.Signature[]",
          "name": "_signatures",
          "type": "tuple[]"
        }
      ],
      "name": "relayBridgeOperators",
      "outputs": [],
      "stateMutability": "nonpayable",
      "type": "function"
    },
    {
      "inputs": [
        {
          "components": [
            {
              "internalType": "uint256",
              "name": "nonce",
              "type": "uint256"
            },
            {
              "internalType": "uint256",
              "name": "expiryTimestamp",
              "type": "uint256"
            },
            {
              "internalType": "enum GlobalProposal.TargetOption[]",
              "name": "targetOptions",
              "type": "uint8[]"
            },
            {
              "internalType": "uint256[]",
              "name": "values",
              "type": "uint256[]"
            },
            {
              "internalType": "bytes[]",
              "name": "calldatas",
              "type": "bytes[]"
            },
            {
              "internalType": "uint256[]",
              "name": "gasAmounts",
              "type": "uint256[]"
            }
          ],
          "internalType": "struct GlobalProposal.GlobalProposalDetail",
          "name": "_globalProposal",
          "type": "tuple"
        },
        {
          "internalType": "enum Ballot.VoteType[]",
          "name": "_supports",
          "type": "uint8[]"
        },
        {
          "components": [
            {
              "internalType": "uint8",
              "name": "v",
              "type": "uint8"
            },
            {
              "internalType": "bytes32",
              "name": "r",
              "type": "bytes32"
            },
            {
              "internalType": "bytes32",
              "name": "s",
              "type": "bytes32"
            }
          ],
          "internalType": "struct SignatureConsumer.Signature[]",
          "name": "_signatures",
          "type": "tuple[]"
        }
      ],
      "name": "relayGlobalProposal",
      "outputs": [],
      "stateMutability": "nonpayable",
      "type": "function"
    },
    {
      "inputs": [
        {
          "components": [
            {
              "internalType": "uint256",
              "name": "nonce",
              "type": "uint256"
            },
            {
              "internalType": "uint256",
              "name": "chainId",
              "type": "uint256"
            },
            {
              "internalType": "uint256",
              "name": "expiryTimestamp",
              "type": "uint256"
            },
            {
              "internalType": "address[]",
              "name": "targets",
              "type": "address[]"
            },
            {
              "internalType": "uint256[]",
              "name": "values",
              "type": "uint256[]"
            },
            {
              "internalType": "bytes[]",
              "name": "calldatas",
              "type": "bytes[]"
            },
            {
              "internalType": "uint256[]",
              "name": "gasAmounts",
              "type": "uint256[]"
            }
          ],
          "internalType": "struct Proposal.ProposalDetail",
          "name": "_proposal",
          "type": "tuple"
        },
        {
          "internalType": "enum Ballot.VoteType[]",
          "name": "_supports",
          "type": "uint8[]"
        },
        {
          "components": [
            {
              "internalType": "uint8",
              "name": "v",
              "type": "uint8"
            },
            {
              "internalType": "bytes32",
              "name": "r",
              "type": "bytes32"
            },
            {
              "internalType": "bytes32",
              "name": "s",
              "type": "bytes32"
            }
          ],
          "internalType": "struct SignatureConsumer.Signature[]",
          "name": "_signatures",
          "type": "tuple[]"
        }
      ],
      "name": "relayProposal",
      "outputs": [],
      "stateMutability": "nonpayable",
      "type": "function"
    },
    {
      "inputs": [
        {
          "internalType": "bytes32",
          "name": "role",
          "type": "bytes32"
        },
        {
          "internalType": "address",
          "name": "account",
          "type": "address"
        }
      ],
      "name": "renounceRole",
      "outputs": [],
      "stateMutability": "nonpayable",
      "type": "function"
    },
    {
      "inputs": [
        {
          "internalType": "bytes32",
          "name": "role",
          "type": "bytes32"
        },
        {
          "internalType": "address",
          "name": "account",
          "type": "address"
        }
      ],
      "name": "revokeRole",
      "outputs": [],
      "stateMutability": "nonpayable",
      "type": "function"
    },
    {
      "inputs": [],
      "name": "roninChainId",
      "outputs": [
        {
          "internalType": "uint256",
          "name": "",
          "type": "uint256"
        }
      ],
      "stateMutability": "view",
      "type": "function"
    },
    {
      "inputs": [],
      "name": "roninTrustedOrganizationContract",
      "outputs": [
        {
          "internalType": "address",
          "name": "",
          "type": "address"
        }
      ],
      "stateMutability": "view",
      "type": "function"
    },
    {
      "inputs": [
        {
          "internalType": "uint256",
          "name": "",
          "type": "uint256"
        }
      ],
      "name": "round",
      "outputs": [
        {
          "internalType": "uint256",
          "name": "",
          "type": "uint256"
        }
      ],
      "stateMutability": "view",
      "type": "function"
    },
    {
      "inputs": [
        {
          "internalType": "address",
          "name": "_addr",
          "type": "address"
        }
      ],
      "name": "setBridgeContract",
      "outputs": [],
      "stateMutability": "nonpayable",
      "type": "function"
    },
    {
      "inputs": [
        {
          "internalType": "uint256",
          "name": "_expiryDuration",
          "type": "uint256"
        }
      ],
      "name": "setProposalExpiryDuration",
      "outputs": [],
      "stateMutability": "nonpayable",
      "type": "function"
    },
    {
      "inputs": [
        {
          "internalType": "address",
          "name": "_addr",
          "type": "address"
        }
      ],
      "name": "setRoninTrustedOrganizationContract",
      "outputs": [],
      "stateMutability": "nonpayable",
      "type": "function"
    },
    {
      "inputs": [
        {
          "internalType": "bytes4",
          "name": "interfaceId",
          "type": "bytes4"
        }
      ],
      "name": "supportsInterface",
      "outputs": [
        {
          "internalType": "bool",
          "name": "",
          "type": "bool"
        }
      ],
      "stateMutability": "view",
      "type": "function"
    },
    {
      "inputs": [
        {
          "internalType": "uint256",
          "name": "",
          "type": "uint256"
        },
        {
          "internalType": "uint256",
          "name": "",
          "type": "uint256"
        }
      ],
      "name": "vote",
      "outputs": [
        {
          "internalType": "enum VoteStatusConsumer.VoteStatus",
          "name": "status",
          "type": "uint8"
        },
        {
          "internalType": "bytes32",
          "name": "hash",
          "type": "bytes32"
        },
        {
          "internalType": "uint256",
          "name": "againstVoteWeight",
          "type": "uint256"
        },
        {
          "internalType": "uint256",
          "name": "forVoteWeight",
          "type": "uint256"
        },
        {
          "internalType": "uint256",
          "name": "expiryTimestamp",
          "type": "uint256"
        }
      ],
      "stateMutability": "view",
      "type": "function"
    }
  ],
  "transactionHash": "0x8b1c9e837cca2b387fefa8e9bffe02bb812355398af95c0cb4d2234cd1a1e5bc",
  "args": [
    2022,
    "0xC37b5d7891D73F2064B0eE044844e053872Ef941",
    "0xA53D0a2dAC70D1fD3D9677c40636A7b50da4aB49",
    "0x10bdC48820E0853472A9c6f96e2c0819486ec0de",
    [
      "0xC37b5d7891D73F2064B0eE044844e053872Ef941"
    ]
  ],
  "numDeployments": 1,
  "solcInputHash": "a595501ecf8849639d4423c21e560992",
  "bytecode": "0x60806040523480156200001157600080fd5b5060405162004acb38038062004acb833981016040819052620000349162000420565b848383600160ff1b806200004781600455565b506007849055604080516020808201839052601660608301527f524f4e494e5f474f5645524e414e43455f41444d494e000000000000000000006080808401919091528284018890528351808403909101815260a0830184528051908201207f599a80fcaa47b95e2323ab4d34d34e0cc9feda4b843edafcc30c7bdf60ea15bf60c08401527f7e7935007966eb860f4a2ee3dcc9fd53fb3205ce2aa86b0126d4893d4d4c14b960e08401527fad7c5bef027816a800da1736444fb58a807ef4c9603b7848673f7e3a68eb14a5610100840152610120808401919091528351808403909101815261014090920190925280519101206008556200014983620001e4565b620001548262000239565b506200016892506000915086905062000288565b60005b8151811015620001d857620001c37fe2b7fb3b832174769106daebcfd6d1970523240dda11281102db9363b83b0dc4838381518110620001af57620001af62000537565b60200260200101516200029860201b60201c565b80620001cf816200054d565b9150506200016b565b50505050505062000575565b600580546001600160a01b0319166001600160a01b0383169081179091556040519081527ffd6f5f93d69a07c593a09be0b208bff13ab4ffd6017df3b33433d63bdc59b4d7906020015b60405180910390a150565b600680546001600160a01b0319166001600160a01b0383169081179091556040519081527f5cbd8a0bb00196365d5eb3457c6734e7f06666c3c78e5469b4c9deec7edae048906020016200022e565b62000294828262000298565b5050565b620002af8282620002db60201b62000c041760201c565b6000828152600160209081526040909120620002d691839062000c886200037b821b17901c565b505050565b6000828152602081815260408083206001600160a01b038516845290915290205460ff1662000294576000828152602081815260408083206001600160a01b03851684529091529020805460ff19166001179055620003373390565b6001600160a01b0316816001600160a01b0316837f2f8788117e7eff1d82e926ec794901d17c78024a50270940304540a733656f0d60405160405180910390a45050565b600062000392836001600160a01b0384166200039b565b90505b92915050565b6000818152600183016020526040812054620003e45750815460018181018455600084815260208082209093018490558454848252828601909352604090209190915562000395565b50600062000395565b80516001600160a01b03811681146200040557600080fd5b919050565b634e487b7160e01b600052604160045260246000fd5b600080600080600060a086880312156200043957600080fd5b8551945060206200044c818801620003ed565b94506200045c60408801620003ed565b93506200046c60608801620003ed565b60808801519093506001600160401b03808211156200048a57600080fd5b818901915089601f8301126200049f57600080fd5b815181811115620004b457620004b46200040a565b8060051b604051601f19603f83011681018181108582111715620004dc57620004dc6200040a565b60405291825284820192508381018501918c831115620004fb57600080fd5b938501935b8285101562000524576200051485620003ed565b8452938501939285019262000500565b8096505050505050509295509295909350565b634e487b7160e01b600052603260045260246000fd5b6000600182016200056e57634e487b7160e01b600052601160045260246000fd5b5060010190565b61454680620005856000396000f3fe608060405234801561001057600080fd5b50600436106101cf5760003560e01c80637eff275e11610104578063b5e337de116100a2578063cd59658311610071578063cd59658314610429578063d547741f1461043a578063f3b7dead1461044d578063f589262d1461046057600080fd5b8063b5e337de146103e8578063bc96180b146103fb578063beb3a6a114610403578063ca15c8731461041657600080fd5b806391d14854116100de57806391d148541461035d578063926d7d7f14610370578063a217fddf14610385578063b384abef1461038d57600080fd5b80637eff275e146103245780638fb7ac7c146103375780639010d07c1461034a57600080fd5b806334d5f37b116101715780635511cde11161014b5780635511cde1146102d85780635e05cf9e146102e957806362e52e5f146102fc5780637d465f791461031157600080fd5b806334d5f37b1461029c5780633644e515146102bc57806336568abe146102c557600080fd5b8063204e1c7a116101ad578063204e1c7a14610228578063248a9ca3146102535780632e96a6fb146102765780632f2ff15d1461028957600080fd5b806301ffc9a7146101d45780630b26cf66146101fc57806317ce2dd414610211575b600080fd5b6101e76101e2366004613557565b610473565b60405190151581526020015b60405180910390f35b61020f61020a366004613596565b61049e565b005b61021a60075481565b6040519081526020016101f3565b61023b610236366004613596565b6104fc565b6040516001600160a01b0390911681526020016101f3565b61021a6102613660046135b3565b60009081526020819052604090206001015490565b61020f6102843660046135b3565b6105ee565b61020f6102973660046135cc565b610616565b61021a6102aa3660046135b3565b60026020526000908152604090205481565b61021a60085481565b61020f6102d33660046135cc565b610640565b6005546001600160a01b031661023b565b61020f6102f736600461368b565b6106be565b6103046106ef565b6040516101f3919061376b565b61020f61031f36600461379a565b610791565b61020f6103323660046137dd565b6107d8565b6101e761034536600461380b565b610904565b61023b61035836600461380b565b61093e565b6101e761036b3660046135cc565b61095d565b61021a6000805160206144f183398151915281565b61021a600081565b6103d761039b36600461380b565b600360208181526000938452604080852090915291835291208054600182015460028301549383015460069093015460ff909216939092909185565b6040516101f3959493929190613843565b61020f6103f6366004613596565b610986565b61021a6109d8565b6101e761041136600461380b565b6109e8565b61021a6104243660046135b3565b610a19565b6006546001600160a01b031661023b565b61020f6104483660046135cc565b610a30565b61023b61045b366004613596565b610a55565b61020f61046e366004613878565b610b22565b60006001600160e01b03198216635a05180f60e01b1480610498575061049882610c9d565b92915050565b3330146104c65760405162461bcd60e51b81526004016104bd906138e8565b60405180910390fd5b6000816001600160a01b03163b116104f05760405162461bcd60e51b81526004016104bd9061392f565b6104f981610cd2565b50565b6000806000836001600160a01b031660405161052290635c60da1b60e01b815260040190565b600060405180830381855afa9150503d806000811461055d576040519150601f19603f3d011682016040523d82523d6000602084013e610562565b606091505b5091509150816105d25760405162461bcd60e51b815260206004820152603560248201527f476f7665726e616e636541646d696e3a2070726f78792063616c6c2060696d706044820152741b195b595b9d185d1a5bdb8a0a580819985a5b1959605a1b60648201526084016104bd565b808060200190518101906105e69190613973565b949350505050565b33301461060d5760405162461bcd60e51b81526004016104bd906138e8565b6104f981600455565b60008281526020819052604090206001015461063181610d27565b61063b8383610d31565b505050565b6001600160a01b03811633146106b05760405162461bcd60e51b815260206004820152602f60248201527f416363657373436f6e74726f6c3a2063616e206f6e6c792072656e6f756e636560448201526e103937b632b9903337b91039b2b63360891b60648201526084016104bd565b6106ba8282610d53565b5050565b6000805160206144f18339815191526106d681610d27565b6106e7868686868660085433610d75565b505050505050565b61071360405180606001604052806000815260200160008152602001606081525090565b60408051606081018252600980548252600a54602080840191909152600b8054855181840281018401875281815294959394938601939283018282801561078357602002820191906000526020600020905b81546001600160a01b03168152600190910190602001808311610765575b505050505081525050905090565b6000805160206144f18339815191526107a981610d27565b6106e786868686866008546107c66005546001600160a01b031690565b6006546001600160a01b031633610dd5565b3330146107f75760405162461bcd60e51b81526004016104bd906138e8565b604080516001600160a01b0383811660248084019190915283518084039091018152604490920183526020820180516001600160e01b03166308f2839760e41b179052915160009285169161084b916139b4565b6000604051808303816000865af19150503d8060008114610888576040519150601f19603f3d011682016040523d82523d6000602084013e61088d565b606091505b505090508061063b5760405162461bcd60e51b815260206004820152603960248201527f476f7665726e616e636541646d696e3a2070726f78792063616c6c206063686160448201527f6e676541646d696e28616464726573732960206661696c65640000000000000060648201526084016104bd565b600080600084815260036020908152604080832086845290915290205460ff1660048111156109355761093561382d565b14159392505050565b60008281526001602052604081206109569083610e36565b9392505050565b6000918252602082815260408084206001600160a01b0393909316845291905290205460ff1690565b3330146109a55760405162461bcd60e51b81526004016104bd906138e8565b6000816001600160a01b03163b116109cf5760405162461bcd60e51b81526004016104bd9061392f565b6104f981610e42565b60006109e360045490565b905090565b6000806000848152600c6020908152604080832086845290915290205460ff1660048111156109355761093561382d565b600081815260016020526040812061049890610e90565b600082815260208190526040902060010154610a4b81610d27565b61063b8383610d53565b6000806000836001600160a01b0316604051610a7b906303e1469160e61b815260040190565b600060405180830381855afa9150503d8060008114610ab6576040519150601f19603f3d011682016040523d82523d6000602084013e610abb565b606091505b5091509150816105d25760405162461bcd60e51b815260206004820152602c60248201527f476f7665726e616e636541646d696e3a2070726f78792063616c6c206061646d60448201526b1a5b8a0a580819985a5b195960a21b60648201526084016104bd565b6000805160206144f1833981519152610b3a81610d27565b610b50848484610b48610e9a565b600854611006565b6006546001600160a01b0316634bb5274a63901d627760e01b610b7660408801886139d0565b604051602401610b87929190613a19565b60408051601f198184030181529181526020820180516001600160e01b03166001600160e01b03199485161790525160e084901b9092168252610bcc91600401613a93565b600060405180830381600087803b158015610be657600080fd5b505af1158015610bfa573d6000803e3d6000fd5b5050505050505050565b610c0e828261095d565b6106ba576000828152602081815260408083206001600160a01b03851684529091529020805460ff19166001179055610c443390565b6001600160a01b0316816001600160a01b0316837f2f8788117e7eff1d82e926ec794901d17c78024a50270940304540a733656f0d60405160405180910390a45050565b6000610956836001600160a01b0384166114b7565b60006001600160e01b03198216637965db0b60e01b148061049857506301ffc9a760e01b6001600160e01b0319831614610498565b600680546001600160a01b0319166001600160a01b0383169081179091556040519081527f5cbd8a0bb00196365d5eb3457c6734e7f06666c3c78e5469b4c9deec7edae048906020015b60405180910390a150565b6104f98133611506565b610d3b8282610c04565b600082815260016020526040902061063b9082610c88565b610d5d828261156a565b600082815260016020526040902061063b90826115cf565b610d87610d8188613d00565b826115e4565b506000610d9b610d9689613d00565b6116cc565b9050610bfa610da989613d00565b88888888610dc189610dbc89600061186b565b6118c1565b610dd08a610dbc8a600161186b565b6118e8565b6000610deb610de38b613e45565b858585611d76565b5090506000610e01610dfc8c613e45565b611e6b565b9050610e29828b8b8b8b610e1a8c610dbc89600061186b565b610dd08d610dbc8a600161186b565b5050505050505050505050565b60006109568383611fc5565b600580546001600160a01b0319166001600160a01b0383169081179091556040519081527ffd6f5f93d69a07c593a09be0b208bff13ab4ffd6017df3b33433d63bdc59b4d790602001610d1c565b6000610498825490565b6000806000610eb16005546001600160a01b031690565b6040805160048152602480820183526020820180516001600160e01b0316637de5dedd60e01b17905291516001600160a01b039390931692634bb5274a92610efa929101613a93565b6040516020818303038152906040529060e01b6020820180516001600160e01b038381831617835250505050604051610f3391906139b4565b600060405180830381855afa9150503d8060008114610f6e576040519150601f19603f3d011682016040523d82523d6000602084013e610f73565b606091505b509150915081610feb5760405162461bcd60e51b815260206004820152603860248201527f476f7665726e616e636541646d696e3a2070726f78792063616c6c20606d696e60448201527f696d756d566f7465576569676874282960206661696c6564000000000000000060648201526084016104bd565b80806020019051810190610fff9190613f0f565b9250505090565b60095485351080159061101e5750600a546020860135115b6110905760405162461bcd60e51b815260206004820152603a60248201527f424f73476f7665726e616e636552656c61793a20717565727920666f72206f7560448201527f74646174656420627269646765206f70657261746f722073657400000000000060648201526084016104bd565b61109985611fef565b61114e6110a960408701876139d0565b8080602002602001604051908101604052809392919081815260200183836020028082843760009201919091525050600b80546040805160208084028201810190925282815294509192509083018282801561112e57602002820191906000526020600020905b81546001600160a01b03168152600190910190602001808311611110575b505050505081516020908102928101929092208151830291909201201490565b156111c15760405162461bcd60e51b815260206004820152603860248201527f424f73476f7665726e616e636552656c61793a20627269646765206f7065726160448201527f746f722073657420697320616c726561647920766f746564000000000000000060648201526084016104bd565b8261121f5760405162461bcd60e51b815260206004820152602860248201527f424f73476f7665726e616e636552656c61793a20696e76616c696420617272616044820152670f240d8cadccee8d60c31b60648201526084016104bd565b366000846001600160401b0381111561123a5761123a613aa6565b604051908082528060200260200182016040528015611263578160200160208202803683370190505b509050600080611272896121af565b9050600061128086836118c1565b905060005b888110156113af5789898281811061129f5761129f613f28565b6060029190910196506112ca9050826112bb6020890189613f3e565b88602001358960400135612261565b8582815181106112dc576112dc613f28565b60200260200101906001600160a01b031690816001600160a01b03168152505084818151811061130e5761130e613f28565b60200260200101516001600160a01b0316846001600160a01b0316106113805760405162461bcd60e51b815260206004820152602160248201527f424f73476f7665726e616e636552656c61793a20696e76616c6964206f7264656044820152603960f91b60648201526084016104bd565b84818151811061139257611392613f28565b6020026020010151935080806113a790613f77565b915050611285565b5089356000908152600c60209081526040808320828e013584529091528120906113d886612289565b905088811061146857600081116114415760405162461bcd60e51b815260206004820152602760248201527f424f73476f7665726e616e636552656c61793a20696e76616c696420766f7465604482015266081dd95a59da1d60ca1b60648201526084016104bd565b815460ff191660011782558b60096114598282613fb4565b905050505050505050506114b0565b60405162461bcd60e51b815260206004820181905260248201527f424f73476f7665726e616e636552656c61793a2072656c6179206661696c656460448201526064016104bd565b5050505050565b60008181526001830160205260408120546114fe57508154600181810184556000848152602080822090930184905584548482528286019093526040902091909155610498565b506000610498565b611510828261095d565b6106ba57611528816001600160a01b03166014612424565b611533836020612424565b604051602001611544929190614087565b60408051601f198184030181529082905262461bcd60e51b82526104bd91600401613a93565b611574828261095d565b156106ba576000828152602081815260408083206001600160a01b0385168085529252808320805460ff1916905551339285917ff6391f5c32d9c69d2a47ea670b442974b53935d1edc7fd64eb21e047a839171b9190a45050565b6000610956836001600160a01b0384166125bf565b602082015160009080820361163b5760405162461bcd60e51b815260206004820181905260248201527f436f7265476f7665726e616e63653a20696e76616c696420636861696e20696460448201526064016104bd565b6004546116499085906126b2565b6000611654856116cc565b9050611665828287604001516127ae565b855190935083146116885760405162461bcd60e51b81526004016104bd906140fc565b8083837fa57d40f1496988cf60ab7c9d5ba4ff83647f67d3898d441a3aaf21b651678fd988886040516116bc929190614250565b60405180910390a4505092915050565b6000806000806000808660800151905060008760600151905060008860a00151516001600160401b0381111561170457611704613aa6565b60405190808252806020026020018201604052801561172d578160200160208202803683370190505b5060c08a015190915060005b8251811015611796578a60a00151818151811061175857611758613f28565b60200260200101518051906020012083828151811061177957611779613f28565b60209081029190910101528061178e81613f77565b915050611739565b506020835102602084012097506020845102602085012096506020825102602083012095506020815102602082012094507fd051578048e6ff0bbc9fca3b65a42088dbde10f36ca841de566711087ad9b08a60001b8a600001518b602001518c604001518b8b8b8b604051602001611846989796959493929190978852602088019690965260408701949094526060860192909252608085015260a084015260c083015260e08201526101000190565b6040516020818303038152906040528051906020012098505050505050505050919050565b6040516000906118a3907fd900570327c4c0df8dd6bdd522b7da7e39145dd049d2fd4602276adcd511e3c2908590859060200161428a565b60405160208183030381529060405280519060200120905092915050565b60405161190160f01b602082015260228101839052604281018290526000906062016118a3565b84158015906118f657508483145b6119505760405162461bcd60e51b815260206004820152602560248201527f476f7665726e616e636552656c61793a20696e76616c6964206172726179206c6044820152640cadccee8d60db1b60648201526084016104bd565b60008080856001600160401b0381111561196c5761196c613aa6565b604051908082528060200260200182016040528015611995578160200160208202803683370190505b5090506000866001600160401b038111156119b2576119b2613aa6565b6040519080825280602002602001820160405280156119db578160200160208202803683370190505b50905060008060003660005b8b811015611bd1578c8c82818110611a0157611a01613f28565b90506060020191508e8e82818110611a1b57611a1b613f28565b9050602002016020810190611a3091906142af565b92506000836001811115611a4657611a4661382d565b03611ab057611a6b8b611a5c6020850185613f3e565b84602001358560400135612261565b945084878a611a7981613f77565b9b5081518110611a8b57611a8b613f28565b60200260200101906001600160a01b031690816001600160a01b031681525050611b5b565b6001836001811115611ac457611ac461382d565b03611afa57611ada8a611a5c6020850185613f3e565b9450848689611ae881613f77565b9a5081518110611a8b57611a8b613f28565b60405162461bcd60e51b815260206004820152603060248201527f476f7665726e616e636552656c61793a20717565727920666f7220756e73757060448201526f706f7274656420766f7465207479706560801b60648201526084016104bd565b846001600160a01b0316846001600160a01b031610611bbc5760405162461bcd60e51b815260206004820152601e60248201527f476f7665726e616e636552656c61793a20696e76616c6964206f72646572000060448201526064016104bd565b84935080611bc981613f77565b9150506119e7565b50505085845250508281526020808c015160009081526003825260408082208e51835290925290812090611c03610e9a565b90506000611c10856128c9565b9050818110611c885760008111611c395760405162461bcd60e51b81526004016104bd906142cc565b825460ff1916600190811784558301546040517f5c819725ea53655a3b898f3df59b66489761935454e9212ca1e5ebd759953d0b90600090a2611c7c838f612a4d565b50505050505050611d6d565b600082611c93612aba565b611c9d9190614310565b611ca8906001614323565b90506000611cb5866128c9565b9050818110611d255760008111611cde5760405162461bcd60e51b81526004016104bd906142cc565b845460ff1916600317855560018501546040517f55295d4ce992922fa2e5ffbf3a3dcdb367de0a15e125ace083456017fd22060f90600090a2505050505050505050611d6d565b60405162461bcd60e51b815260206004820152601d60248201527f476f7665726e616e636552656c61793a2072656c6179206661696c656400000060448201526064016104bd565b50505050505050565b611db66040518060e00160405280600081526020016000815260200160008152602001606081526020016060815260200160608152602001606081525090565b6000611dc3868686612c01565b9150611dda600454836126b290919063ffffffff16565b6000611de5836116cc565b9050611df760008289602001516127ae565b83519092508214611e1a5760405162461bcd60e51b81526004016104bd906140fc565b80827f771d78ae9e5fca95a532fb0971d575d0ce9b59d14823c063e08740137e0e0eca85611e478b611e6b565b8b89604051611e599493929190614336565b60405180910390a35094509492505050565b6000806000806000808660600151905060008760400151905060008860800151516001600160401b03811115611ea357611ea3613aa6565b604051908082528060200260200182016040528015611ecc578160200160208202803683370190505b5060a08a015190915060005b8251811015611f35578a608001518181518110611ef757611ef7613f28565b602002602001015180519060200120838281518110611f1857611f18613f28565b602090810291909101015280611f2d81613f77565b915050611ed8565b5082516020908102848201208551820286830120845183028584012084518402858501208e518f860151604080517f1463f426c05aff2c1a7a0957a71c9898bc8b47142540538e79ee25ee911413509881019890985287019190915260608601526080850184905260a0850183905260c0850182905260e08501819052929b509099509750955061010001611846565b6000826000018281548110611fdc57611fdc613f28565b9060005260206000200154905092915050565b6000611ffe60408301836139d0565b9050116120615760405162461bcd60e51b815260206004820152602b60248201527f4272696467654f70657261746f727342616c6c6f743a20696e76616c6964206160448201526a0e4e4c2f240d8cadccee8d60ab1b60648201526084016104bd565b600061207060408301836139d0565b600081811061208157612081613f28565b90506020020160208101906120969190613596565b905060015b6120a860408401846139d0565b905081101561063b576120be60408401846139d0565b828181106120ce576120ce613f28565b90506020020160208101906120e39190613596565b6001600160a01b0316826001600160a01b0316106121695760405162461bcd60e51b815260206004820152603860248201527f4272696467654f70657261746f727342616c6c6f743a20696e76616c6964206f60448201527f72646572206f6620627269646765206f70657261746f7273000000000000000060648201526084016104bd565b61217660408401846139d0565b8281811061218657612186613f28565b905060200201602081019061219b9190613596565b9150806121a781613f77565b91505061209b565b600080806121c060408501856139d0565b80806020026020016040519081016040528093929190818152602001838360200280828437600092019190915250508251602090810293810193909320604080517fd679a49e9e099fa9ed83a5446aaec83e746b03ec6723d6f5efb29d37d7f0b78a818701528935818301529885013560608a01526080808a01929092528051808a03909201825260a0909801909752505084519401939093209392505050565b600080600061227287878787612e07565b9150915061227f81612ef4565b5095945050505050565b60008060006122a06005546001600160a01b031690565b6001600160a01b0316634bb5274a63d9d5dadb60e01b866040516024016122c7919061441d565b60408051601f198184030181529181526020820180516001600160e01b03166001600160e01b03199094169390931790925290516123089190602401613a93565b6040516020818303038152906040529060e01b6020820180516001600160e01b03838183161783525050505060405161234191906139b4565b600060405180830381855afa9150503d806000811461237c576040519150601f19603f3d011682016040523d82523d6000602084013e612381565b606091505b5091509150816124105760405162461bcd60e51b815260206004820152604e60248201527f4d61696e636861696e476f7665726e616e636541646d696e3a2070726f78792060448201527f63616c6c206073756d427269646765566f74657257656967687473286164647260648201526d195cdcd6d74a580819985a5b195960921b608482015260a4016104bd565b808060200190518101906105e69190613f0f565b60606000612433836002613f90565b61243e906002614323565b6001600160401b0381111561245557612455613aa6565b6040519080825280601f01601f19166020018201604052801561247f576020820181803683370190505b509050600360fc1b8160008151811061249a5761249a613f28565b60200101906001600160f81b031916908160001a905350600f60fb1b816001815181106124c9576124c9613f28565b60200101906001600160f81b031916908160001a90535060006124ed846002613f90565b6124f8906001614323565b90505b6001811115612570576f181899199a1a9b1b9c1cb0b131b232b360811b85600f166010811061252c5761252c613f28565b1a60f81b82828151811061254257612542613f28565b60200101906001600160f81b031916908160001a90535060049490941c936125698161446a565b90506124fb565b5083156109565760405162461bcd60e51b815260206004820181905260248201527f537472696e67733a20686578206c656e67746820696e73756666696369656e7460448201526064016104bd565b600081815260018301602052604081205480156126a85760006125e3600183614310565b85549091506000906125f790600190614310565b905081811461265c57600086600001828154811061261757612617613f28565b906000526020600020015490508087600001848154811061263a5761263a613f28565b6000918252602080832090910192909255918252600188019052604090208390555b855486908061266d5761266d614481565b600190038181906000526020600020016000905590558560010160008681526020019081526020016000206000905560019350505050610498565b6000915050610498565b60008260600151511180156126d05750816080015151826060015151145b80156126e557508160a0015151826060015151145b80156126fa57508160c0015151826060015151145b6127465760405162461bcd60e51b815260206004820152601e60248201527f50726f706f73616c3a20696e76616c6964206172726179206c656e677468000060448201526064016104bd565b6127508142614323565b826040015111156106ba5760405162461bcd60e51b815260206004820152602260248201527f50726f706f73616c3a20696e76616c6964206578706972792074696d6573746160448201526106d760f41b60648201526084016104bd565b600083815260026020526040812054908190036127df5750600083815260026020526040902060019081905561289e565b60008481526003602090815260408083208484529091528120906000825460ff1660048111156128115761281161382d565b036128785760405162461bcd60e51b815260206004820152603160248201527f436f7265476f7665726e616e63653a2063757272656e742070726f706f73616c604482015270081a5cc81b9bdd0818dbdb5c1b195d1959607a1b60648201526084016104bd565b6000868152600260205260408120805490919061289490613f77565b9182905550925050505b6000938452600360209081526040808620838752909152909320600181019290925560069091015590565b60008060006128e06005546001600160a01b031690565b6001600160a01b0316634bb5274a635f14a1c360e01b86604051602401612907919061441d565b60408051601f198184030181529181526020820180516001600160e01b03166001600160e01b03199094169390931790925290516129489190602401613a93565b6040516020818303038152906040529060e01b6020820180516001600160e01b03838183161783525050505060405161298191906139b4565b600060405180830381855afa9150503d80600081146129bc576040519150601f19603f3d011682016040523d82523d6000602084013e6129c1565b606091505b5091509150816124105760405162461bcd60e51b815260206004820152604b60248201527f4d61696e636861696e476f7665726e616e636541646d696e3a2070726f78792060448201527f63616c6c206073756d476f7665726e6f7257656967687473286164647265737360648201526a16d74a580819985a5b195960aa1b608482015260a4016104bd565b612a5681613268565b156106ba57815460ff19166002178255600080612a7283613282565b9150915083600101547fe134987599ae266ec90edeff1b26125b287dbb57b10822649432d1bb26537fba8383604051612aac929190614497565b60405180910390a250505050565b6000806000612ad16005546001600160a01b031690565b6040805160048152602480820183526020820180516001600160e01b031663926323d560e01b17905291516001600160a01b039390931692634bb5274a92612b1a929101613a93565b6040516020818303038152906040529060e01b6020820180516001600160e01b038381831617835250505050604051612b5391906139b4565b600060405180830381855afa9150503d8060008114612b8e576040519150601f19603f3d011682016040523d82523d6000602084013e612b93565b606091505b509150915081610feb5760405162461bcd60e51b815260206004820152603360248201527f476f7665726e616e636541646d696e3a2070726f78792063616c6c2060746f74604482015272185b15d95a59da1d1cca0a580819985a5b1959606a1b60648201526084016104bd565b612c416040518060e00160405280600081526020016000815260200160008152602001606081526020016060815260200160608152602001606081525090565b83518152602080850151604080840191909152600091830191909152840151516001600160401b03811115612c7857612c78613aa6565b604051908082528060200260200182016040528015612ca1578160200160208202803683370190505b5060608083019190915284015160808083019190915284015160a08083019190915284015160c082015260005b846040015151811015612dff57600185604001518281518110612cf357612cf3613f28565b60200260200101516001811115612d0c57612d0c61382d565b03612d4d578282606001518281518110612d2857612d28613f28565b60200260200101906001600160a01b031690816001600160a01b031681525050612ded565b600085604001518281518110612d6557612d65613f28565b60200260200101516001811115612d7e57612d7e61382d565b03612d9a578382606001518281518110612d2857612d28613f28565b60405162461bcd60e51b815260206004820152602260248201527f476c6f62616c50726f706f73616c3a20756e737570706f727465642074617267604482015261195d60f21b60648201526084016104bd565b80612df781613f77565b915050612cce565b509392505050565b6000807f7fffffffffffffffffffffffffffffff5d576e7357a4501ddfe92f46681b20a0831115612e3e5750600090506003612eeb565b8460ff16601b14158015612e5657508460ff16601c14155b15612e675750600090506004612eeb565b6040805160008082526020820180845289905260ff881692820192909252606081018690526080810185905260019060a0016020604051602081039080840390855afa158015612ebb573d6000803e3d6000fd5b5050604051601f1901519150506001600160a01b038116612ee457600060019250925050612eeb565b9150600090505b94509492505050565b6000816004811115612f0857612f0861382d565b03612f105750565b6001816004811115612f2457612f2461382d565b03612f715760405162461bcd60e51b815260206004820152601860248201527f45434453413a20696e76616c6964207369676e6174757265000000000000000060448201526064016104bd565b6002816004811115612f8557612f8561382d565b03612fd25760405162461bcd60e51b815260206004820152601f60248201527f45434453413a20696e76616c6964207369676e6174757265206c656e6774680060448201526064016104bd565b6003816004811115612fe657612fe661382d565b0361303e5760405162461bcd60e51b815260206004820152602260248201527f45434453413a20696e76616c6964207369676e6174757265202773272076616c604482015261756560f01b60648201526084016104bd565b60048160048111156130525761305261382d565b036104f95760405162461bcd60e51b815260206004820152602260248201527f45434453413a20696e76616c6964207369676e6174757265202776272076616c604482015261756560f01b60648201526084016104bd565b6004830154811015613163578260080160008460040183815481106130d1576130d1613f28565b60009182526020808320909101546001600160a01b031683528201929092526040018120805460ff19169055600484018054600786019291908490811061311a5761311a613f28565b60009182526020808320909101546001600160a01b031683528201929092526040018120805460ff1916815560018101829055600201558061315b81613f77565b9150506130aa565b5060005b60058301548110156132205782600801600084600501838154811061318e5761318e613f28565b60009182526020808320909101546001600160a01b031683528201929092526040018120805460ff1916905560058401805460078601929190849081106131d7576131d7613f28565b60009182526020808320909101546001600160a01b031683528201929092526040018120805460ff1916815560018101829055600201558061321881613f77565b915050613167565b50815460ff19168255600060018301819055600283018190556003830181905561324e906004840190613525565b61325c600583016000613525565b60006006830155919050565b600081602001516000148061049857505060200151461490565b60608061328e83613268565b6132e65760405162461bcd60e51b815260206004820152602360248201527f50726f706f73616c3a20717565727920666f7220696e76616c696420636861696044820152621b925960ea1b60648201526084016104bd565b8260600151516001600160401b0381111561330357613303613aa6565b60405190808252806020026020018201604052801561332c578160200160208202803683370190505b5091508260600151516001600160401b0381111561334c5761334c613aa6565b60405190808252806020026020018201604052801561337f57816020015b606081526020019060019003908161336a5790505b50905060005b83606001515181101561351f578360c0015181815181106133a8576133a8613f28565b60200260200101515a116133fe5760405162461bcd60e51b815260206004820152601a60248201527f50726f706f73616c3a20696e73756666696369656e742067617300000000000060448201526064016104bd565b8360600151818151811061341457613414613f28565b60200260200101516001600160a01b03168460800151828151811061343b5761343b613f28565b60200260200101518560c00151838151811061345957613459613f28565b6020026020010151908660a00151848151811061347857613478613f28565b602002602001015160405161348d91906139b4565b600060405180830381858888f193505050503d80600081146134cb576040519150601f19603f3d011682016040523d82523d6000602084013e6134d0565b606091505b508483815181106134e3576134e3613f28565b602002602001018484815181106134fc576134fc613f28565b6020908102919091010191909152901515905261351881613f77565b9050613385565b50915091565b50805460008255906000526020600020908101906104f991905b80821115613553576000815560010161353f565b5090565b60006020828403121561356957600080fd5b81356001600160e01b03198116811461095657600080fd5b6001600160a01b03811681146104f957600080fd5b6000602082840312156135a857600080fd5b813561095681613581565b6000602082840312156135c557600080fd5b5035919050565b600080604083850312156135df57600080fd5b8235915060208301356135f181613581565b809150509250929050565b60008083601f84011261360e57600080fd5b5081356001600160401b0381111561362557600080fd5b6020830191508360208260051b850101111561364057600080fd5b9250929050565b60008083601f84011261365957600080fd5b5081356001600160401b0381111561367057600080fd5b60208301915083602060608302850101111561364057600080fd5b6000806000806000606086880312156136a357600080fd5b85356001600160401b03808211156136ba57600080fd5b9087019060e0828a0312156136ce57600080fd5b909550602087013590808211156136e457600080fd5b6136f089838a016135fc565b9096509450604088013591508082111561370957600080fd5b5061371688828901613647565b969995985093965092949392505050565b600081518084526020808501945080840160005b838110156137605781516001600160a01b03168752958201959082019060010161373b565b509495945050505050565b602081528151602082015260208201516040820152600060408301516060808401526105e66080840182613727565b6000806000806000606086880312156137b257600080fd5b85356001600160401b03808211156137c957600080fd5b9087019060c0828a0312156136ce57600080fd5b600080604083850312156137f057600080fd5b82356137fb81613581565b915060208301356135f181613581565b6000806040838503121561381e57600080fd5b50508035926020909101359150565b634e487b7160e01b600052602160045260246000fd5b60a08101600587106138575761385761382d565b95815260208101949094526040840192909252606083015260809091015290565b60008060006040848603121561388d57600080fd5b83356001600160401b03808211156138a457600080fd5b90850190606082880312156138b857600080fd5b909350602085013590808211156138ce57600080fd5b506138db86828701613647565b9497909650939450505050565b60208082526027908201527f476f7665726e616e636541646d696e3a206f6e6c7920616c6c6f7765642073656040820152661b198b58d85b1b60ca1b606082015260800190565b60208082526024908201527f476f7665726e616e636541646d696e3a2073657420746f206e6f6e2d636f6e746040820152631c9858dd60e21b606082015260800190565b60006020828403121561398557600080fd5b815161095681613581565b60005b838110156139ab578181015183820152602001613993565b50506000910152565b600082516139c6818460208701613990565b9190910192915050565b6000808335601e198436030181126139e757600080fd5b8301803591506001600160401b03821115613a0157600080fd5b6020019150600581901b360382131561364057600080fd5b60208082528181018390526000908460408401835b86811015613a5c578235613a4181613581565b6001600160a01b031682529183019190830190600101613a2e565b509695505050505050565b60008151808452613a7f816020860160208601613990565b601f01601f19169290920160200192915050565b6020815260006109566020830184613a67565b634e487b7160e01b600052604160045260246000fd5b60405160e081016001600160401b0381118282101715613ade57613ade613aa6565b60405290565b60405160c081016001600160401b0381118282101715613ade57613ade613aa6565b604051601f8201601f191681016001600160401b0381118282101715613b2e57613b2e613aa6565b604052919050565b60006001600160401b03821115613b4f57613b4f613aa6565b5060051b60200190565b600082601f830112613b6a57600080fd5b81356020613b7f613b7a83613b36565b613b06565b82815260059290921b84018101918181019086841115613b9e57600080fd5b8286015b84811015613a5c578035613bb581613581565b8352918301918301613ba2565b600082601f830112613bd357600080fd5b81356020613be3613b7a83613b36565b82815260059290921b84018101918181019086841115613c0257600080fd5b8286015b84811015613a5c5780358352918301918301613c06565b6000601f8381840112613c2f57600080fd5b82356020613c3f613b7a83613b36565b82815260059290921b85018101918181019087841115613c5e57600080fd5b8287015b84811015613cf45780356001600160401b0380821115613c825760008081fd5b818a0191508a603f830112613c975760008081fd5b85820135604082821115613cad57613cad613aa6565b613cbe828b01601f19168901613b06565b92508183528c81838601011115613cd55760008081fd5b8181850189850137506000908201870152845250918301918301613c62565b50979650505050505050565b600060e08236031215613d1257600080fd5b613d1a613abc565b82358152602083013560208201526040830135604082015260608301356001600160401b0380821115613d4c57600080fd5b613d5836838701613b59565b60608401526080850135915080821115613d7157600080fd5b613d7d36838701613bc2565b608084015260a0850135915080821115613d9657600080fd5b613da236838701613c1d565b60a084015260c0850135915080821115613dbb57600080fd5b50613dc836828601613bc2565b60c08301525092915050565b600281106104f957600080fd5b600082601f830112613df257600080fd5b81356020613e02613b7a83613b36565b82815260059290921b84018101918181019086841115613e2157600080fd5b8286015b84811015613a5c578035613e3881613dd4565b8352918301918301613e25565b600060c08236031215613e5757600080fd5b613e5f613ae4565b823581526020830135602082015260408301356001600160401b0380821115613e8757600080fd5b613e9336838701613de1565b60408401526060850135915080821115613eac57600080fd5b613eb836838701613bc2565b60608401526080850135915080821115613ed157600080fd5b613edd36838701613c1d565b608084015260a0850135915080821115613ef657600080fd5b50613f0336828601613bc2565b60a08301525092915050565b600060208284031215613f2157600080fd5b5051919050565b634e487b7160e01b600052603260045260246000fd5b600060208284031215613f5057600080fd5b813560ff8116811461095657600080fd5b634e487b7160e01b600052601160045260246000fd5b600060018201613f8957613f89613f61565b5060010190565b808202811582820484141761049857610498613f61565b6000813561049881613581565b81358155600160208084013582840155600283016040850135601e19863603018112613fdf57600080fd5b850180356001600160401b03811115613ff757600080fd5b83820191508060051b360382131561400e57600080fd5b6801000000000000000081111561402757614027613aa6565b82548184558082101561405b5760008481528581208381019083015b808210156140575782825590880190614043565b5050505b50600092835260208320925b81811015610bfa5761407883613fa7565b84820155918401918501614067565b7f416363657373436f6e74726f6c3a206163636f756e74200000000000000000008152600083516140bf816017850160208801613990565b7001034b99036b4b9b9b4b733903937b6329607d1b60179184019182015283516140f0816028840160208801613990565b01602801949350505050565b60208082526026908201527f436f7265476f7665726e616e63653a20696e76616c69642070726f706f73616c604082015265206e6f6e636560d01b606082015260800190565b600081518084526020808501945080840160005b8381101561376057815187529582019590820190600101614156565b600081518084526020808501808196508360051b8101915082860160005b858110156141ba5782840389526141a8848351613a67565b98850198935090840190600101614190565b5091979650505050505050565b8051825260208101516020830152604081015160408301526000606082015160e060608501526141fa60e0850182613727565b9050608083015184820360808601526142138282614142565b91505060a083015184820360a086015261422d8282614172565b91505060c083015184820360c08601526142478282614142565b95945050505050565b60408152600061426360408301856141c7565b905060018060a01b03831660208301529392505050565b600281106104f9576104f961382d565b83815260208101839052606081016142a18361427a565b826040830152949350505050565b6000602082840312156142c157600080fd5b813561095681613dd4565b60208082526024908201527f476f7665726e616e636552656c61793a20696e76616c696420766f74652077656040820152631a59da1d60e21b606082015260800190565b8181038181111561049857610498613f61565b8082018082111561049857610498613f61565b60808152600061434960808301876141c7565b60208681850152838203604085015260c08201865183528187015182840152604087015160c0604085015281815180845260e0860191508483019350600092505b808310156143b357835161439d8161427a565b825292840192600192909201919084019061438a565b506060890151935084810360608601526143cd8185614142565b9350505050608086015182820360808401526143e98282614172565b91505060a086015182820360a08401526144038282614142565b935050505061424760608301846001600160a01b03169052565b6020808252825182820181905260009190848201906040850190845b8181101561445e5783516001600160a01b031683529284019291840191600101614439565b50909695505050505050565b60008161447957614479613f61565b506000190190565b634e487b7160e01b600052603160045260246000fd5b604080825283519082018190526000906020906060840190828701845b828110156144d25781511515845292840192908401906001016144b4565b505050838103828501526144e68186614172565b969550505050505056fee2b7fb3b832174769106daebcfd6d1970523240dda11281102db9363b83b0dc4a2646970667358221220a83afd5b06d0413b16b474a7c5329e6e2d39b5511777f91e449ffa60a30c8fdb64736f6c63430008110033",
  "devdoc": {
    "errors": {
      "ErrCallerMustBeBridgeContract()": [
        {
          "details": "Error of method caller must be bridge contract."
        }
      ],
      "ErrCallerMustBeRoninTrustedOrgContract()": [
        {
          "details": "Error of method caller must be Ronin trusted org contract."
        }
      ],
      "ErrZeroCodeContract()": [
        {
          "details": "Error of set to non-contract."
        }
      ]
    },
    "kind": "dev",
    "methods": {
      "bridgeContract()": {
        "details": "Returns the bridge contract."
      },
      "bridgeOperatorsRelayed(uint256,uint256)": {
        "details": "Returns whether the voter `_voter` casted vote for bridge operators at a specific period."
      },
      "changeProxyAdmin(address,address)": {
        "details": "Changes the admin of `_proxy` to `newAdmin`. Requirements: - This contract must be the current admin of `_proxy`."
      },
      "getProposalExpiryDuration()": {
        "details": "Returns the proposal expiry duration."
      },
      "getProxyAdmin(address)": {
        "details": "Returns the current admin of `_proxy`. Requirements: - This contract must be the admin of `_proxy`."
      },
      "getProxyImplementation(address)": {
        "details": "Returns the current implementation of `_proxy`. Requirements: - This contract must be the admin of `_proxy`."
      },
      "getRoleAdmin(bytes32)": {
        "details": "Returns the admin role that controls `role`. See {grantRole} and {revokeRole}. To change a role's admin, use {_setRoleAdmin}."
      },
      "getRoleMember(bytes32,uint256)": {
        "details": "Returns one of the accounts that have `role`. `index` must be a value between 0 and {getRoleMemberCount}, non-inclusive. Role bearers are not sorted in any particular way, and their ordering may change at any point. WARNING: When using {getRoleMember} and {getRoleMemberCount}, make sure you perform all queries on the same block. See the following https://forum.openzeppelin.com/t/iterating-over-elements-on-enumerableset-in-openzeppelin-contracts/2296[forum post] for more information."
      },
      "getRoleMemberCount(bytes32)": {
        "details": "Returns the number of accounts that have `role`. Can be used together with {getRoleMember} to enumerate all bearers of a role."
      },
      "grantRole(bytes32,address)": {
        "details": "Grants `role` to `account`. If `account` had not been already granted `role`, emits a {RoleGranted} event. Requirements: - the caller must have ``role``'s admin role. May emit a {RoleGranted} event."
      },
      "hasRole(bytes32,address)": {
        "details": "Returns `true` if `account` has been granted `role`."
      },
      "lastSyncedBridgeOperatorSetInfo()": {
        "details": "Returns the synced bridge operator set info."
      },
      "proposalRelayed(uint256,uint256)": {
        "details": "Returns whether the voter `_voter` casted vote for the proposal."
      },
      "relayBridgeOperators((uint256,uint256,address[]),(uint8,bytes32,bytes32)[])": {
        "details": "See `BOsGovernanceRelay-_relayVotesBySignatures`. Requirements: - The method caller is relayer."
      },
      "relayGlobalProposal((uint256,uint256,uint8[],uint256[],bytes[],uint256[]),uint8[],(uint8,bytes32,bytes32)[])": {
        "details": "See `GovernanceRelay-_relayGlobalProposal`. Requirements: - The method caller is relayer."
      },
      "relayProposal((uint256,uint256,uint256,address[],uint256[],bytes[],uint256[]),uint8[],(uint8,bytes32,bytes32)[])": {
        "details": "See `GovernanceRelay-_relayProposal`. Requirements: - The method caller is relayer."
      },
      "renounceRole(bytes32,address)": {
        "details": "Revokes `role` from the calling account. Roles are often managed via {grantRole} and {revokeRole}: this function's purpose is to provide a mechanism for accounts to lose their privileges if they are compromised (such as when a trusted device is misplaced). If the calling account had been revoked `role`, emits a {RoleRevoked} event. Requirements: - the caller must be `account`. May emit a {RoleRevoked} event."
      },
      "revokeRole(bytes32,address)": {
        "details": "Revokes `role` from `account`. If `account` had been granted `role`, emits a {RoleRevoked} event. Requirements: - the caller must have ``role``'s admin role. May emit a {RoleRevoked} event."
      },
      "roninTrustedOrganizationContract()": {
        "details": "Returns the ronin trusted organization contract."
      },
      "setBridgeContract(address)": {
        "details": "Sets the bridge contract. Requirements: - The method caller is admin. - The new address is a contract. Emits the event `BridgeContractUpdated`."
      },
      "setProposalExpiryDuration(uint256)": {
        "details": "Sets the expiry duration for a new proposal. Requirements: - Only allowing self-call to this method, since this contract does not have admin."
      },
      "setRoninTrustedOrganizationContract(address)": {
        "details": "Sets the ronin trusted organization contract. Requirements: - The method caller is admin. - The new address is a contract. Emits the event `RoninTrustedOrganizationContractUpdated`."
      },
      "supportsInterface(bytes4)": {
        "details": "See {IERC165-supportsInterface}."
      }
    },
    "version": 1
  },
  "userdoc": {
    "kind": "user",
    "methods": {
      "round(uint256)": {
        "notice": "chain id = 0 for global proposal"
      }
    },
    "version": 1
  },
  "storageLayout": {
    "storage": [
      {
        "astId": 24,
        "contract": "contracts/mainchain/MainchainGovernanceAdmin.sol:MainchainGovernanceAdmin",
        "label": "_roles",
        "offset": 0,
        "slot": "0",
        "type": "t_mapping(t_bytes32,t_struct(RoleData)19_storage)"
      },
      {
        "astId": 338,
        "contract": "contracts/mainchain/MainchainGovernanceAdmin.sol:MainchainGovernanceAdmin",
        "label": "_roleMembers",
        "offset": 0,
        "slot": "1",
        "type": "t_mapping(t_bytes32,t_struct(AddressSet)4026_storage)"
      },
      {
        "astId": 7476,
        "contract": "contracts/mainchain/MainchainGovernanceAdmin.sol:MainchainGovernanceAdmin",
        "label": "round",
        "offset": 0,
        "slot": "2",
        "type": "t_mapping(t_uint256,t_uint256)"
      },
      {
        "astId": 7484,
        "contract": "contracts/mainchain/MainchainGovernanceAdmin.sol:MainchainGovernanceAdmin",
        "label": "vote",
        "offset": 0,
        "slot": "3",
        "type": "t_mapping(t_uint256,t_mapping(t_uint256,t_struct(ProposalVote)7402_storage))"
      },
      {
        "astId": 7486,
        "contract": "contracts/mainchain/MainchainGovernanceAdmin.sol:MainchainGovernanceAdmin",
        "label": "_proposalExpiryDuration",
        "offset": 0,
        "slot": "4",
        "type": "t_uint256"
      },
      {
        "astId": 6146,
        "contract": "contracts/mainchain/MainchainGovernanceAdmin.sol:MainchainGovernanceAdmin",
        "label": "_roninTrustedOrganizationContract",
        "offset": 0,
        "slot": "5",
        "type": "t_contract(IRoninTrustedOrganization)10177"
      },
      {
        "astId": 5797,
        "contract": "contracts/mainchain/MainchainGovernanceAdmin.sol:MainchainGovernanceAdmin",
        "label": "_bridgeContract",
        "offset": 0,
        "slot": "6",
        "type": "t_contract(IBridge)9276"
      },
      {
        "astId": 4506,
        "contract": "contracts/mainchain/MainchainGovernanceAdmin.sol:MainchainGovernanceAdmin",
        "label": "roninChainId",
        "offset": 0,
        "slot": "7",
        "type": "t_uint256"
      },
      {
        "astId": 4509,
        "contract": "contracts/mainchain/MainchainGovernanceAdmin.sol:MainchainGovernanceAdmin",
        "label": "DOMAIN_SEPARATOR",
        "offset": 0,
        "slot": "8",
        "type": "t_bytes32"
      },
      {
        "astId": 7138,
        "contract": "contracts/mainchain/MainchainGovernanceAdmin.sol:MainchainGovernanceAdmin",
        "label": "_lastSyncedBridgeOperatorSetInfo",
        "offset": 0,
        "slot": "9",
        "type": "t_struct(BridgeOperatorSet)12403_storage"
      },
      {
        "astId": 7146,
        "contract": "contracts/mainchain/MainchainGovernanceAdmin.sol:MainchainGovernanceAdmin",
        "label": "_vote",
        "offset": 0,
        "slot": "12",
        "type": "t_mapping(t_uint256,t_mapping(t_uint256,t_struct(IsolatedVote)6717_storage))"
      }
    ],
    "types": {
      "t_address": {
        "encoding": "inplace",
        "label": "address",
        "numberOfBytes": "20"
      },
      "t_array(t_address)dyn_storage": {
        "base": "t_address",
        "encoding": "dynamic_array",
        "label": "address[]",
        "numberOfBytes": "32"
      },
      "t_array(t_bytes32)dyn_storage": {
        "base": "t_bytes32",
        "encoding": "dynamic_array",
        "label": "bytes32[]",
        "numberOfBytes": "32"
      },
      "t_bool": {
        "encoding": "inplace",
        "label": "bool",
        "numberOfBytes": "1"
      },
      "t_bytes32": {
        "encoding": "inplace",
        "label": "bytes32",
        "numberOfBytes": "32"
      },
      "t_contract(IBridge)9276": {
        "encoding": "inplace",
        "label": "contract IBridge",
        "numberOfBytes": "20"
      },
      "t_contract(IRoninTrustedOrganization)10177": {
        "encoding": "inplace",
        "label": "contract IRoninTrustedOrganization",
        "numberOfBytes": "20"
      },
      "t_enum(VoteStatus)10566": {
        "encoding": "inplace",
        "label": "enum VoteStatusConsumer.VoteStatus",
        "numberOfBytes": "1"
      },
      "t_mapping(t_address,t_bool)": {
        "encoding": "mapping",
        "key": "t_address",
        "label": "mapping(address => bool)",
        "numberOfBytes": "32",
        "value": "t_bool"
      },
      "t_mapping(t_address,t_bytes32)": {
        "encoding": "mapping",
        "key": "t_address",
        "label": "mapping(address => bytes32)",
        "numberOfBytes": "32",
        "value": "t_bytes32"
      },
      "t_mapping(t_address,t_struct(Signature)10557_storage)": {
        "encoding": "mapping",
        "key": "t_address",
        "label": "mapping(address => struct SignatureConsumer.Signature)",
        "numberOfBytes": "32",
        "value": "t_struct(Signature)10557_storage"
      },
      "t_mapping(t_bytes32,t_struct(AddressSet)4026_storage)": {
        "encoding": "mapping",
        "key": "t_bytes32",
        "label": "mapping(bytes32 => struct EnumerableSet.AddressSet)",
        "numberOfBytes": "32",
        "value": "t_struct(AddressSet)4026_storage"
      },
      "t_mapping(t_bytes32,t_struct(RoleData)19_storage)": {
        "encoding": "mapping",
        "key": "t_bytes32",
        "label": "mapping(bytes32 => struct AccessControl.RoleData)",
        "numberOfBytes": "32",
        "value": "t_struct(RoleData)19_storage"
      },
      "t_mapping(t_bytes32,t_uint256)": {
        "encoding": "mapping",
        "key": "t_bytes32",
        "label": "mapping(bytes32 => uint256)",
        "numberOfBytes": "32",
        "value": "t_uint256"
      },
      "t_mapping(t_uint256,t_mapping(t_uint256,t_struct(IsolatedVote)6717_storage))": {
        "encoding": "mapping",
        "key": "t_uint256",
        "label": "mapping(uint256 => mapping(uint256 => struct IsolatedGovernance.IsolatedVote))",
        "numberOfBytes": "32",
        "value": "t_mapping(t_uint256,t_struct(IsolatedVote)6717_storage)"
      },
      "t_mapping(t_uint256,t_mapping(t_uint256,t_struct(ProposalVote)7402_storage))": {
        "encoding": "mapping",
        "key": "t_uint256",
        "label": "mapping(uint256 => mapping(uint256 => struct CoreGovernance.ProposalVote))",
        "numberOfBytes": "32",
        "value": "t_mapping(t_uint256,t_struct(ProposalVote)7402_storage)"
      },
      "t_mapping(t_uint256,t_struct(IsolatedVote)6717_storage)": {
        "encoding": "mapping",
        "key": "t_uint256",
        "label": "mapping(uint256 => struct IsolatedGovernance.IsolatedVote)",
        "numberOfBytes": "32",
        "value": "t_struct(IsolatedVote)6717_storage"
      },
      "t_mapping(t_uint256,t_struct(ProposalVote)7402_storage)": {
        "encoding": "mapping",
        "key": "t_uint256",
        "label": "mapping(uint256 => struct CoreGovernance.ProposalVote)",
        "numberOfBytes": "32",
        "value": "t_struct(ProposalVote)7402_storage"
      },
      "t_mapping(t_uint256,t_uint256)": {
        "encoding": "mapping",
        "key": "t_uint256",
        "label": "mapping(uint256 => uint256)",
        "numberOfBytes": "32",
        "value": "t_uint256"
      },
      "t_struct(AddressSet)4026_storage": {
        "encoding": "inplace",
        "label": "struct EnumerableSet.AddressSet",
        "members": [
          {
            "astId": 4025,
            "contract": "contracts/mainchain/MainchainGovernanceAdmin.sol:MainchainGovernanceAdmin",
            "label": "_inner",
            "offset": 0,
            "slot": "0",
            "type": "t_struct(Set)3725_storage"
          }
        ],
        "numberOfBytes": "64"
      },
      "t_struct(BridgeOperatorSet)12403_storage": {
        "encoding": "inplace",
        "label": "struct BridgeOperatorsBallot.BridgeOperatorSet",
        "members": [
          {
            "astId": 12397,
            "contract": "contracts/mainchain/MainchainGovernanceAdmin.sol:MainchainGovernanceAdmin",
            "label": "period",
            "offset": 0,
            "slot": "0",
            "type": "t_uint256"
          },
          {
            "astId": 12399,
            "contract": "contracts/mainchain/MainchainGovernanceAdmin.sol:MainchainGovernanceAdmin",
            "label": "epoch",
            "offset": 0,
            "slot": "1",
            "type": "t_uint256"
          },
          {
            "astId": 12402,
            "contract": "contracts/mainchain/MainchainGovernanceAdmin.sol:MainchainGovernanceAdmin",
            "label": "operators",
            "offset": 0,
            "slot": "2",
            "type": "t_array(t_address)dyn_storage"
          }
        ],
        "numberOfBytes": "96"
      },
      "t_struct(IsolatedVote)6717_storage": {
        "encoding": "inplace",
        "label": "struct IsolatedGovernance.IsolatedVote",
        "members": [
          {
            "astId": 6698,
            "contract": "contracts/mainchain/MainchainGovernanceAdmin.sol:MainchainGovernanceAdmin",
            "label": "status",
            "offset": 0,
            "slot": "0",
            "type": "t_enum(VoteStatus)10566"
          },
          {
            "astId": 6700,
            "contract": "contracts/mainchain/MainchainGovernanceAdmin.sol:MainchainGovernanceAdmin",
            "label": "finalHash",
            "offset": 0,
            "slot": "1",
            "type": "t_bytes32"
          },
          {
            "astId": 6705,
            "contract": "contracts/mainchain/MainchainGovernanceAdmin.sol:MainchainGovernanceAdmin",
            "label": "voteHashOf",
            "offset": 0,
            "slot": "2",
            "type": "t_mapping(t_address,t_bytes32)"
          },
          {
            "astId": 6710,
            "contract": "contracts/mainchain/MainchainGovernanceAdmin.sol:MainchainGovernanceAdmin",
            "label": "weight",
            "offset": 0,
            "slot": "3",
            "type": "t_mapping(t_bytes32,t_uint256)"
          },
          {
            "astId": 6713,
            "contract": "contracts/mainchain/MainchainGovernanceAdmin.sol:MainchainGovernanceAdmin",
            "label": "expiredAt",
            "offset": 0,
            "slot": "4",
            "type": "t_uint256"
          },
          {
            "astId": 6716,
            "contract": "contracts/mainchain/MainchainGovernanceAdmin.sol:MainchainGovernanceAdmin",
            "label": "createdAt",
            "offset": 0,
            "slot": "5",
            "type": "t_uint256"
          }
        ],
        "numberOfBytes": "192"
      },
      "t_struct(ProposalVote)7402_storage": {
        "encoding": "inplace",
        "label": "struct CoreGovernance.ProposalVote",
        "members": [
          {
            "astId": 7378,
            "contract": "contracts/mainchain/MainchainGovernanceAdmin.sol:MainchainGovernanceAdmin",
            "label": "status",
            "offset": 0,
            "slot": "0",
            "type": "t_enum(VoteStatus)10566"
          },
          {
            "astId": 7380,
            "contract": "contracts/mainchain/MainchainGovernanceAdmin.sol:MainchainGovernanceAdmin",
            "label": "hash",
            "offset": 0,
            "slot": "1",
            "type": "t_bytes32"
          },
          {
            "astId": 7382,
            "contract": "contracts/mainchain/MainchainGovernanceAdmin.sol:MainchainGovernanceAdmin",
            "label": "againstVoteWeight",
            "offset": 0,
            "slot": "2",
            "type": "t_uint256"
          },
          {
            "astId": 7384,
            "contract": "contracts/mainchain/MainchainGovernanceAdmin.sol:MainchainGovernanceAdmin",
            "label": "forVoteWeight",
            "offset": 0,
            "slot": "3",
            "type": "t_uint256"
          },
          {
            "astId": 7387,
            "contract": "contracts/mainchain/MainchainGovernanceAdmin.sol:MainchainGovernanceAdmin",
            "label": "forVoteds",
            "offset": 0,
            "slot": "4",
            "type": "t_array(t_address)dyn_storage"
          },
          {
            "astId": 7390,
            "contract": "contracts/mainchain/MainchainGovernanceAdmin.sol:MainchainGovernanceAdmin",
            "label": "againstVoteds",
            "offset": 0,
            "slot": "5",
            "type": "t_array(t_address)dyn_storage"
          },
          {
            "astId": 7392,
            "contract": "contracts/mainchain/MainchainGovernanceAdmin.sol:MainchainGovernanceAdmin",
            "label": "expiryTimestamp",
            "offset": 0,
            "slot": "6",
            "type": "t_uint256"
          },
          {
            "astId": 7397,
            "contract": "contracts/mainchain/MainchainGovernanceAdmin.sol:MainchainGovernanceAdmin",
            "label": "sig",
            "offset": 0,
            "slot": "7",
            "type": "t_mapping(t_address,t_struct(Signature)10557_storage)"
          },
          {
            "astId": 7401,
            "contract": "contracts/mainchain/MainchainGovernanceAdmin.sol:MainchainGovernanceAdmin",
            "label": "voted",
            "offset": 0,
            "slot": "8",
            "type": "t_mapping(t_address,t_bool)"
          }
        ],
        "numberOfBytes": "288"
      },
      "t_struct(RoleData)19_storage": {
        "encoding": "inplace",
        "label": "struct AccessControl.RoleData",
        "members": [
          {
            "astId": 16,
            "contract": "contracts/mainchain/MainchainGovernanceAdmin.sol:MainchainGovernanceAdmin",
            "label": "members",
            "offset": 0,
            "slot": "0",
            "type": "t_mapping(t_address,t_bool)"
          },
          {
            "astId": 18,
            "contract": "contracts/mainchain/MainchainGovernanceAdmin.sol:MainchainGovernanceAdmin",
            "label": "adminRole",
            "offset": 0,
            "slot": "1",
            "type": "t_bytes32"
          }
        ],
        "numberOfBytes": "64"
      },
      "t_struct(Set)3725_storage": {
        "encoding": "inplace",
        "label": "struct EnumerableSet.Set",
        "members": [
          {
            "astId": 3720,
            "contract": "contracts/mainchain/MainchainGovernanceAdmin.sol:MainchainGovernanceAdmin",
            "label": "_values",
            "offset": 0,
            "slot": "0",
            "type": "t_array(t_bytes32)dyn_storage"
          },
          {
            "astId": 3724,
            "contract": "contracts/mainchain/MainchainGovernanceAdmin.sol:MainchainGovernanceAdmin",
            "label": "_indexes",
            "offset": 0,
            "slot": "1",
            "type": "t_mapping(t_bytes32,t_uint256)"
          }
        ],
        "numberOfBytes": "64"
      },
      "t_struct(Signature)10557_storage": {
        "encoding": "inplace",
        "label": "struct SignatureConsumer.Signature",
        "members": [
          {
            "astId": 10552,
            "contract": "contracts/mainchain/MainchainGovernanceAdmin.sol:MainchainGovernanceAdmin",
            "label": "v",
            "offset": 0,
            "slot": "0",
            "type": "t_uint8"
          },
          {
            "astId": 10554,
            "contract": "contracts/mainchain/MainchainGovernanceAdmin.sol:MainchainGovernanceAdmin",
            "label": "r",
            "offset": 0,
            "slot": "1",
            "type": "t_bytes32"
          },
          {
            "astId": 10556,
            "contract": "contracts/mainchain/MainchainGovernanceAdmin.sol:MainchainGovernanceAdmin",
            "label": "s",
            "offset": 0,
            "slot": "2",
            "type": "t_bytes32"
          }
        ],
        "numberOfBytes": "96"
      },
      "t_uint256": {
        "encoding": "inplace",
        "label": "uint256",
        "numberOfBytes": "32"
      },
      "t_uint8": {
        "encoding": "inplace",
        "label": "uint8",
        "numberOfBytes": "1"
      }
    }
  }
}