{
  "address": "0x0AaDA85A2b3c9fb1be158D43e71cdcca6Fe85e02",
  "abi": [
    {
      "inputs": [
        {
          "internalType": "address",
          "name": "voter",
          "type": "address"
        }
      ],
      "name": "ErrBridgeVoterIsAlreadyAdded",
      "type": "error"
    },
    {
      "inputs": [
        {
          "internalType": "address",
          "name": "addr",
          "type": "address"
        }
      ],
      "name": "ErrConsensusAddressIsAlreadyAdded",
      "type": "error"
    },
    {
      "inputs": [
        {
          "internalType": "address",
          "name": "addr",
          "type": "address"
        }
      ],
      "name": "ErrConsensusAddressIsNotAdded",
      "type": "error"
    },
    {
      "inputs": [
        {
          "internalType": "bytes4",
          "name": "msgSig",
          "type": "bytes4"
        }
      ],
      "name": "ErrDuplicated",
      "type": "error"
    },
    {
      "inputs": [],
      "name": "ErrEmptyArray",
      "type": "error"
    },
    {
      "inputs": [
        {
          "internalType": "address",
          "name": "addr",
          "type": "address"
        }
      ],
      "name": "ErrGovernorAddressIsAlreadyAdded",
      "type": "error"
    },
    {
      "inputs": [],
      "name": "ErrInvalidRequest",
      "type": "error"
    },
    {
      "inputs": [
        {
          "internalType": "bytes4",
          "name": "msgSig",
          "type": "bytes4"
        }
      ],
      "name": "ErrInvalidThreshold",
      "type": "error"
    },
    {
      "inputs": [
        {
          "internalType": "bytes4",
          "name": "msgSig",
          "type": "bytes4"
        }
      ],
      "name": "ErrInvalidVoteWeight",
      "type": "error"
    },
    {
      "inputs": [],
      "name": "ErrQueryForDupplicated",
      "type": "error"
    },
    {
      "inputs": [],
      "name": "ErrQueryForNonExistentConsensusAddress",
      "type": "error"
    },
    {
      "inputs": [
        {
          "internalType": "bytes4",
          "name": "msgSig",
          "type": "bytes4"
        },
        {
          "internalType": "enum RoleAccess",
          "name": "expectedRole",
          "type": "uint8"
        }
      ],
      "name": "ErrUnauthorized",
      "type": "error"
    },
    {
      "anonymous": false,
      "inputs": [
        {
          "indexed": false,
          "internalType": "uint8",
          "name": "version",
          "type": "uint8"
        }
      ],
      "name": "Initialized",
      "type": "event"
    },
    {
      "anonymous": false,
      "inputs": [
        {
          "indexed": true,
          "internalType": "uint256",
          "name": "nonce",
          "type": "uint256"
        },
        {
          "indexed": true,
          "internalType": "uint256",
          "name": "numerator",
          "type": "uint256"
        },
        {
          "indexed": true,
          "internalType": "uint256",
          "name": "denominator",
          "type": "uint256"
        },
        {
          "indexed": false,
          "internalType": "uint256",
          "name": "previousNumerator",
          "type": "uint256"
        },
        {
          "indexed": false,
          "internalType": "uint256",
          "name": "previousDenominator",
          "type": "uint256"
        }
      ],
      "name": "ThresholdUpdated",
      "type": "event"
    },
    {
      "anonymous": false,
      "inputs": [
        {
          "components": [
            {
              "internalType": "address",
              "name": "consensusAddr",
              "type": "address"
            },
            {
              "internalType": "address",
              "name": "governor",
              "type": "address"
            },
            {
              "internalType": "address",
              "name": "bridgeVoter",
              "type": "address"
            },
            {
              "internalType": "uint256",
              "name": "weight",
              "type": "uint256"
            },
            {
              "internalType": "uint256",
              "name": "addedBlock",
              "type": "uint256"
            }
          ],
          "indexed": false,
          "internalType": "struct IRoninTrustedOrganization.TrustedOrganization[]",
          "name": "orgs",
          "type": "tuple[]"
        }
      ],
      "name": "TrustedOrganizationsAdded",
      "type": "event"
    },
    {
      "anonymous": false,
      "inputs": [
        {
          "indexed": false,
          "internalType": "address[]",
          "name": "orgs",
          "type": "address[]"
        }
      ],
      "name": "TrustedOrganizationsRemoved",
      "type": "event"
    },
    {
      "anonymous": false,
      "inputs": [
        {
          "components": [
            {
              "internalType": "address",
              "name": "consensusAddr",
              "type": "address"
            },
            {
              "internalType": "address",
              "name": "governor",
              "type": "address"
            },
            {
              "internalType": "address",
              "name": "bridgeVoter",
              "type": "address"
            },
            {
              "internalType": "uint256",
              "name": "weight",
              "type": "uint256"
            },
            {
              "internalType": "uint256",
              "name": "addedBlock",
              "type": "uint256"
            }
          ],
          "indexed": false,
          "internalType": "struct IRoninTrustedOrganization.TrustedOrganization[]",
          "name": "orgs",
          "type": "tuple[]"
        }
      ],
      "name": "TrustedOrganizationsUpdated",
      "type": "event"
    },
    {
      "inputs": [
        {
          "components": [
            {
              "internalType": "address",
              "name": "consensusAddr",
              "type": "address"
            },
            {
              "internalType": "address",
              "name": "governor",
              "type": "address"
            },
            {
              "internalType": "address",
              "name": "bridgeVoter",
              "type": "address"
            },
            {
              "internalType": "uint256",
              "name": "weight",
              "type": "uint256"
            },
            {
              "internalType": "uint256",
              "name": "addedBlock",
              "type": "uint256"
            }
          ],
          "internalType": "struct IRoninTrustedOrganization.TrustedOrganization[]",
          "name": "_list",
          "type": "tuple[]"
        }
      ],
      "name": "addTrustedOrganizations",
      "outputs": [],
      "stateMutability": "nonpayable",
      "type": "function"
    },
    {
      "inputs": [
        {
          "internalType": "uint256",
          "name": "_voteWeight",
          "type": "uint256"
        }
      ],
      "name": "checkThreshold",
      "outputs": [
        {
          "internalType": "bool",
          "name": "",
          "type": "bool"
        }
      ],
      "stateMutability": "view",
      "type": "function"
    },
    {
      "inputs": [],
      "name": "countTrustedOrganization",
      "outputs": [
        {
          "internalType": "uint256",
          "name": "",
          "type": "uint256"
        }
      ],
      "stateMutability": "view",
      "type": "function"
    },
    {
      "inputs": [],
      "name": "getAllTrustedOrganizations",
      "outputs": [
        {
          "components": [
            {
              "internalType": "address",
              "name": "consensusAddr",
              "type": "address"
            },
            {
              "internalType": "address",
              "name": "governor",
              "type": "address"
            },
            {
              "internalType": "address",
              "name": "bridgeVoter",
              "type": "address"
            },
            {
              "internalType": "uint256",
              "name": "weight",
              "type": "uint256"
            },
            {
              "internalType": "uint256",
              "name": "addedBlock",
              "type": "uint256"
            }
          ],
          "internalType": "struct IRoninTrustedOrganization.TrustedOrganization[]",
          "name": "_list",
          "type": "tuple[]"
        }
      ],
      "stateMutability": "view",
      "type": "function"
    },
    {
      "inputs": [
        {
          "internalType": "address",
          "name": "_addr",
          "type": "address"
        }
      ],
      "name": "getBridgeVoterWeight",
      "outputs": [
        {
          "internalType": "uint256",
          "name": "",
          "type": "uint256"
        }
      ],
      "stateMutability": "view",
      "type": "function"
    },
    {
      "inputs": [
        {
          "internalType": "address[]",
          "name": "_list",
          "type": "address[]"
        }
      ],
      "name": "getBridgeVoterWeights",
      "outputs": [
        {
          "internalType": "uint256[]",
          "name": "_res",
          "type": "uint256[]"
        }
      ],
      "stateMutability": "view",
      "type": "function"
    },
    {
      "inputs": [
        {
          "internalType": "address",
          "name": "_consensusAddr",
          "type": "address"
        }
      ],
      "name": "getConsensusWeight",
      "outputs": [
        {
          "internalType": "uint256",
          "name": "",
          "type": "uint256"
        }
      ],
      "stateMutability": "view",
      "type": "function"
    },
    {
      "inputs": [
        {
          "internalType": "address[]",
          "name": "_list",
          "type": "address[]"
        }
      ],
      "name": "getConsensusWeights",
      "outputs": [
        {
          "internalType": "uint256[]",
          "name": "_res",
          "type": "uint256[]"
        }
      ],
      "stateMutability": "view",
      "type": "function"
    },
    {
      "inputs": [
        {
          "internalType": "address",
          "name": "_governor",
          "type": "address"
        }
      ],
      "name": "getGovernorWeight",
      "outputs": [
        {
          "internalType": "uint256",
          "name": "",
          "type": "uint256"
        }
      ],
      "stateMutability": "view",
      "type": "function"
    },
    {
      "inputs": [
        {
          "internalType": "address[]",
          "name": "_list",
          "type": "address[]"
        }
      ],
      "name": "getGovernorWeights",
      "outputs": [
        {
          "internalType": "uint256[]",
          "name": "_res",
          "type": "uint256[]"
        }
      ],
      "stateMutability": "view",
      "type": "function"
    },
    {
      "inputs": [],
      "name": "getThreshold",
      "outputs": [
        {
          "internalType": "uint256",
          "name": "num_",
          "type": "uint256"
        },
        {
          "internalType": "uint256",
          "name": "denom_",
          "type": "uint256"
        }
      ],
      "stateMutability": "view",
      "type": "function"
    },
    {
      "inputs": [
        {
          "internalType": "address",
          "name": "_consensusAddr",
          "type": "address"
        }
      ],
      "name": "getTrustedOrganization",
      "outputs": [
        {
          "components": [
            {
              "internalType": "address",
              "name": "consensusAddr",
              "type": "address"
            },
            {
              "internalType": "address",
              "name": "governor",
              "type": "address"
            },
            {
              "internalType": "address",
              "name": "bridgeVoter",
              "type": "address"
            },
            {
              "internalType": "uint256",
              "name": "weight",
              "type": "uint256"
            },
            {
              "internalType": "uint256",
              "name": "addedBlock",
              "type": "uint256"
            }
          ],
          "internalType": "struct IRoninTrustedOrganization.TrustedOrganization",
          "name": "",
          "type": "tuple"
        }
      ],
      "stateMutability": "view",
      "type": "function"
    },
    {
      "inputs": [
        {
          "internalType": "uint256",
          "name": "_idx",
          "type": "uint256"
        }
      ],
      "name": "getTrustedOrganizationAt",
      "outputs": [
        {
          "components": [
            {
              "internalType": "address",
              "name": "consensusAddr",
              "type": "address"
            },
            {
              "internalType": "address",
              "name": "governor",
              "type": "address"
            },
            {
              "internalType": "address",
              "name": "bridgeVoter",
              "type": "address"
            },
            {
              "internalType": "uint256",
              "name": "weight",
              "type": "uint256"
            },
            {
              "internalType": "uint256",
              "name": "addedBlock",
              "type": "uint256"
            }
          ],
          "internalType": "struct IRoninTrustedOrganization.TrustedOrganization",
          "name": "",
          "type": "tuple"
        }
      ],
      "stateMutability": "view",
      "type": "function"
    },
    {
      "inputs": [
        {
          "components": [
            {
              "internalType": "address",
              "name": "consensusAddr",
              "type": "address"
            },
            {
              "internalType": "address",
              "name": "governor",
              "type": "address"
            },
            {
              "internalType": "address",
              "name": "bridgeVoter",
              "type": "address"
            },
            {
              "internalType": "uint256",
              "name": "weight",
              "type": "uint256"
            },
            {
              "internalType": "uint256",
              "name": "addedBlock",
              "type": "uint256"
            }
          ],
          "internalType": "struct IRoninTrustedOrganization.TrustedOrganization[]",
          "name": "_trustedOrgs",
          "type": "tuple[]"
        },
        {
          "internalType": "uint256",
          "name": "__num",
          "type": "uint256"
        },
        {
          "internalType": "uint256",
          "name": "__denom",
          "type": "uint256"
        }
      ],
      "name": "initialize",
      "outputs": [],
      "stateMutability": "nonpayable",
      "type": "function"
    },
    {
      "inputs": [],
      "name": "minimumVoteWeight",
      "outputs": [
        {
          "internalType": "uint256",
          "name": "",
          "type": "uint256"
        }
      ],
      "stateMutability": "view",
      "type": "function"
    },
    {
      "inputs": [
        {
          "internalType": "address[]",
          "name": "_list",
          "type": "address[]"
        }
      ],
      "name": "removeTrustedOrganizations",
      "outputs": [],
      "stateMutability": "nonpayable",
      "type": "function"
    },
    {
      "inputs": [
        {
          "internalType": "uint256",
          "name": "_numerator",
          "type": "uint256"
        },
        {
          "internalType": "uint256",
          "name": "_denominator",
          "type": "uint256"
        }
      ],
      "name": "setThreshold",
      "outputs": [
        {
          "internalType": "uint256",
          "name": "",
          "type": "uint256"
        },
        {
          "internalType": "uint256",
          "name": "",
          "type": "uint256"
        }
      ],
      "stateMutability": "nonpayable",
      "type": "function"
    },
    {
      "inputs": [
        {
          "internalType": "address[]",
          "name": "_list",
          "type": "address[]"
        }
      ],
      "name": "sumBridgeVoterWeight",
      "outputs": [
        {
          "internalType": "uint256",
          "name": "_res",
          "type": "uint256"
        }
      ],
      "stateMutability": "view",
      "type": "function"
    },
    {
      "inputs": [
        {
          "internalType": "address[]",
          "name": "_list",
          "type": "address[]"
        }
      ],
      "name": "sumConsensusWeight",
      "outputs": [
        {
          "internalType": "uint256",
          "name": "_res",
          "type": "uint256"
        }
      ],
      "stateMutability": "view",
      "type": "function"
    },
    {
      "inputs": [
        {
          "internalType": "address[]",
          "name": "_list",
          "type": "address[]"
        }
      ],
      "name": "sumGovernorWeight",
      "outputs": [
        {
          "internalType": "uint256",
          "name": "_res",
          "type": "uint256"
        }
      ],
      "stateMutability": "view",
      "type": "function"
    },
    {
      "inputs": [],
      "name": "totalWeight",
      "outputs": [
        {
          "internalType": "uint256",
          "name": "",
          "type": "uint256"
        }
      ],
      "stateMutability": "view",
      "type": "function"
    },
    {
      "inputs": [
        {
          "components": [
            {
              "internalType": "address",
              "name": "consensusAddr",
              "type": "address"
            },
            {
              "internalType": "address",
              "name": "governor",
              "type": "address"
            },
            {
              "internalType": "address",
              "name": "bridgeVoter",
              "type": "address"
            },
            {
              "internalType": "uint256",
              "name": "weight",
              "type": "uint256"
            },
            {
              "internalType": "uint256",
              "name": "addedBlock",
              "type": "uint256"
            }
          ],
          "internalType": "struct IRoninTrustedOrganization.TrustedOrganization[]",
          "name": "_list",
          "type": "tuple[]"
        }
      ],
      "name": "updateTrustedOrganizations",
      "outputs": [],
      "stateMutability": "nonpayable",
      "type": "function"
    }
  ],
  "transactionHash": "0xa02a9cb84db06e4d277bfd8eebcda2bdd6ea3dc1e98670bf7f4b526ffc5cfca5",
  "args": [],
  "numDeployments": 2,
  "solcInputHash": "0e13282b1de32a862f3ea9c3dc0543e9",
  "bytecode": "0x608060405234801561001057600080fd5b50611eaf806100206000396000f3fe608060405234801561001057600080fd5b50600436106101425760003560e01c806396c82e57116100b8578063cc7e6b3b1161007c578063cc7e6b3b146102bb578063d78392f8146102ce578063dafae408146102f7578063db6693a21461031a578063e75235b81461033a578063f09267c21461034557600080fd5b806396c82e571461025d578063a85c7d6e14610265578063b505a07c14610278578063b7f67e971461028b578063b9c362091461029357600080fd5b8063562419111161010a57806356241911146101e0578063691845a914610209578063708236251461021c5780637c37103c1461022f5780637de5dedd14610242578063903bb3c51461024a57600080fd5b80630e777c06146101475780630ed285df1461016d578063150740051461018257806341feed1c14610197578063520fce62146101c0575b600080fd5b61015a61015536600461198a565b610358565b6040519081526020015b60405180910390f35b61018061017b366004611a44565b6103c4565b005b61018a6103da565b6040516101649190611ac3565b61015a6101a5366004611b2d565b6001600160a01b031660009081526005602052604090205490565b6101d36101ce36600461198a565b6105c6565b6040516101649190611b48565b61015a6101ee366004611b2d565b6001600160a01b031660009081526007602052604090205490565b61015a61021736600461198a565b61068a565b6101d361022a36600461198a565b6106ef565b61018061023d366004611b80565b6107b3565b61015a6108e1565b61015a61025836600461198a565b61091e565b60035461015a565b61018061027336600461198a565b610983565b610180610286366004611a44565b610a2d565b60095461015a565b6102a66102a1366004611bd1565b610acc565b60408051928352602083019190915201610164565b6101d36102c936600461198a565b610aed565b61015a6102dc366004611b2d565b6001600160a01b031660009081526006602052604090205490565b61030a610305366004611bf3565b610bb1565b6040519015158152602001610164565b61032d610328366004611b2d565b610bd8565b6040516101649190611c0c565b6001546002546102a6565b61032d610353366004611bf3565b610c77565b6000805b828110156103bd576007600085858481811061037a5761037a611c20565b905060200201602081019061038f9190611b2d565b6001600160a01b031681526020810191909152604001600020546103b39083611c4c565b915060010161035c565b5092915050565b6103cc610d7d565b6103d68282610dd9565b5050565b60095460609067ffffffffffffffff8111156103f8576103f8611c5f565b60405190808252806020026020018201604052801561045157816020015b6040805160a0810182526000808252602080830182905292820181905260608201819052608082015282526000199092019101816104165790505b5090506000805b82518110156105c1576009818154811061047457610474611c20565b9060005260206000200160009054906101000a90046001600160a01b03169150818382815181106104a7576104a7611c20565b60209081029190910101516001600160a01b039091169052600a8054829081106104d3576104d3611c20565b9060005260206000200160009054906101000a90046001600160a01b031683828151811061050357610503611c20565b6020026020010151602001906001600160a01b031690816001600160a01b031681525050600b818154811061053a5761053a611c20565b9060005260206000200160009054906101000a90046001600160a01b031683828151811061056a5761056a611c20565b6020908102919091018101516001600160a01b0392831660409182015291841660009081526005909152205483518490839081106105aa576105aa611c20565b602090810291909101015160600152600101610458565b505090565b60608167ffffffffffffffff8111156105e1576105e1611c5f565b60405190808252806020026020018201604052801561060a578160200160208202803683370190505b50905060005b81518110156103bd576005600085858481811061062f5761062f611c20565b90506020020160208101906106449190611b2d565b6001600160a01b03166001600160a01b031681526020019081526020016000205482828151811061067757610677611c20565b6020908102919091010152600101610610565b6000805b828110156103bd57600560008585848181106106ac576106ac611c20565b90506020020160208101906106c19190611b2d565b6001600160a01b031681526020810191909152604001600020546106e59083611c4c565b915060010161068e565b60608167ffffffffffffffff81111561070a5761070a611c5f565b604051908082528060200260200182016040528015610733578160200160208202803683370190505b50905060005b81518110156103bd576007600085858481811061075857610758611c20565b905060200201602081019061076d9190611b2d565b6001600160a01b03166001600160a01b03168152602001908152602001600020548282815181106107a0576107a0611c20565b6020908102919091010152600101610739565b600054610100900460ff16158080156107d35750600054600160ff909116105b806107ed5750303b1580156107ed575060005460ff166001145b6108555760405162461bcd60e51b815260206004820152602e60248201527f496e697469616c697a61626c653a20636f6e747261637420697320616c72656160448201526d191e481a5b9a5d1a585b1a5e995960921b60648201526084015b60405180910390fd5b6000805460ff191660011790558015610878576000805461ff0019166101001790555b8315610888576108888585610dd9565b6108928383610e4e565b505080156108da576000805461ff0019169055604051600181527f7f26b83ff96e1f2b6a682f133852f6798a09c465da95921460cefb38474024989060200160405180910390a15b5050505050565b600060025460016002546003546001546108fb9190611c75565b6109059190611c4c565b61090f9190611c8c565b6109199190611c9f565b905090565b6000805b828110156103bd576006600085858481811061094057610940611c20565b90506020020160208101906109559190611b2d565b6001600160a01b031681526020810191909152604001600020546109799083611c4c565b9150600101610922565b61098b610d7d565b60008190036109ad576040516316ee9d3b60e11b815260040160405180910390fd5b60005b818110156109ef576109e78383838181106109cd576109cd611c20565b90506020020160208101906109e29190611b2d565b610ee4565b6001016109b0565b507f121945697ac30ee0fc67821492cb685c65f0ea4d7f1b710fde44d6e2237f43a78282604051610a21929190611cc1565b60405180910390a15050565b610a35610d7d565b6000819003610a57576040516316ee9d3b60e11b815260040160405180910390fd5b60005b81811015610a9a57610a92838383818110610a7757610a77611c20565b905060a00201803603810190610a8d9190611d0d565b611246565b600101610a5a565b507fe887c8106c09d1770c0ef0bf8ca62c54766f18b07506801865501783376cbeda8282604051610a21929190611d9e565b600080610ad7610d7d565b610ae18484610e4e565b915091505b9250929050565b60608167ffffffffffffffff811115610b0857610b08611c5f565b604051908082528060200260200182016040528015610b31578160200160208202803683370190505b50905060005b81518110156103bd5760066000858584818110610b5657610b56611c20565b9050602002016020810190610b6b9190611b2d565b6001600160a01b03166001600160a01b0316815260200190815260200160002054828281518110610b9e57610b9e611c20565b6020908102919091010152600101610b37565b6000600354600154610bc39190611c75565b600254610bd09084611c75565b101592915050565b6040805160a0810182526000808252602082018190529181018290526060810182905260808101829052905b600954811015610c5d57826001600160a01b031660098281548110610c2b57610c2b611c20565b6000918252602090912001546001600160a01b031603610c5557610c4e81610c77565b9392505050565b600101610c04565b5060405163e57fdbef60e01b815260040160405180910390fd5b6040805160a081018252600080825260208201819052918101829052606081018290526080810191909152600060098381548110610cb757610cb7611c20565b9060005260206000200160009054906101000a90046001600160a01b031690506040518060a00160405280826001600160a01b03168152602001600a8581548110610d0457610d04611c20565b600091825260209182902001546001600160a01b03168252600b8054929091019186908110610d3557610d35611c20565b60009182526020808320909101546001600160a01b03908116845294909416808252600585526040808320548487015290825260089094528390205492019190915292915050565b7fb53127684a568b3173ae13b9f8a6016e243e63b6e8ee1178d6a717850b5d6103546001600160a01b03163314610dd7576000356001600160e01b0319166001604051620f948f60ea1b815260040161084c929190611e27565b565b60005b81811015610e1c57610e14838383818110610df957610df9611c20565b905060a00201803603810190610e0f9190611d0d565b61156d565b600101610ddc565b507fc753dbf7952c70ff6b9fa7b626403aa1d2230d97136b635bd5e85bec72bcca6c8282604051610a21929190611d9e565b60008082841115610e80576040516387f6f09560e01b81526001600160e01b031960003516600482015260240161084c565b50506001805460028054858455908490556004805493840190556040805183815260208101839052929391928592879290917f976f8a9c5bdf8248dec172376d6e2b80a8e3df2f0328e381c6db8e1cf138c0f8910160405180910390a49250929050565b6001600160a01b03811660009081526005602052604081205490819003610f29576040516349f748eb60e01b81526001600160a01b038316600482015260240161084c565b600954600090815b81811015610f8057846001600160a01b031660098281548110610f5657610f56611c20565b6000918252602090912001546001600160a01b031603610f7857809250610f80565b600101610f31565b508260036000828254610f939190611c8c565b90915550506001600160a01b038416600090815260086020908152604080832083905560059091528120556009610fcb600183611c8c565b81548110610fdb57610fdb611c20565b600091825260209091200154600980546001600160a01b03909216918490811061100757611007611c20565b9060005260206000200160006101000a8154816001600160a01b0302191690836001600160a01b03160217905550600980548061104657611046611e63565b6001900381819060005260206000200160006101000a8154906001600160a01b030219169055905560066000600a848154811061108557611085611c20565b60009182526020808320909101546001600160a01b03168352820192909252604001812055600a6110b7600183611c8c565b815481106110c7576110c7611c20565b600091825260209091200154600a80546001600160a01b0390921691849081106110f3576110f3611c20565b9060005260206000200160006101000a8154816001600160a01b0302191690836001600160a01b03160217905550600a80548061113257611132611e63565b6001900381819060005260206000200160006101000a8154906001600160a01b030219169055905560076000600b848154811061117157611171611c20565b60009182526020808320909101546001600160a01b03168352820192909252604001812055600b6111a3600183611c8c565b815481106111b3576111b3611c20565b600091825260209091200154600b80546001600160a01b0390921691849081106111df576111df611c20565b9060005260206000200160006101000a8154816001600160a01b0302191690836001600160a01b03160217905550600b80548061121e5761121e611e63565b600082815260209020810160001990810180546001600160a01b031916905501905550505050565b61124f816117b8565b80516001600160a01b0316600090815260056020526040812054908190036112985781516040516349f748eb60e01b81526001600160a01b03909116600482015260240161084c565b60095460005b818110156115675783600001516001600160a01b0316600982815481106112c7576112c7611c20565b6000918252602090912001546001600160a01b03160361155f5782600360008282546112f39190611c8c565b909155505060608401516003805460009061130f908490611c4c565b9250508190555083602001516001600160a01b0316600a828154811061133757611337611c20565b6000918252602090912001546001600160a01b031614611412576020808501516001600160a01b03166000908152600690915260409020541561138d576040516346da180960e01b815260040160405180910390fd5b60066000600a83815481106113a4576113a4611c20565b60009182526020808320909101546001600160a01b03168352828101939093526040909101812055840151600a8054839081106113e3576113e3611c20565b9060005260206000200160006101000a8154816001600160a01b0302191690836001600160a01b031602179055505b83604001516001600160a01b0316600b828154811061143357611433611c20565b6000918252602090912001546001600160a01b03161461150d576040808501516001600160a01b031660009081526007602052205415611486576040516346da180960e01b815260040160405180910390fd5b60076000600b838154811061149d5761149d611c20565b60009182526020808320909101546001600160a01b031683528201929092526040908101822091909155840151600b8054839081106114de576114de611c20565b9060005260206000200160006101000a8154816001600160a01b0302191690836001600160a01b031602179055505b50505060608101805182516001600160a01b0390811660009081526005602090815260408083209490945584518187015184168352600682528483205593519483015190911681526007909252902055565b60010161129e565b50505050565b6080810151156115905760405163129c2ce160e31b815260040160405180910390fd5b611599816117b8565b80516001600160a01b0316600090815260056020526040902054156115df57805160405163ada9a35360e01b81526001600160a01b03909116600482015260240161084c565b6020808201516001600160a01b03166000908152600690915260409020541561162c576020810151604051637f5e2f5960e11b81526001600160a01b03909116600482015260240161084c565b6040808201516001600160a01b031660009081526007602052205415611676576040808201519051630f69702d60e01b81526001600160a01b03909116600482015260240161084c565b8051600980546001808201835560009283527f6e1540171b6c0c960b71a7020d9f60077f6af931a8bbf590da0223dacf75c7af90910180546001600160a01b03199081166001600160a01b0395861617909155606085018051865186168552600560209081526040808720929092558088018051600a805480890182559089527fc65a7bb8d6351c1cf70c95a316cc6a92839c986682d98bc35f958f4883f9d2a80180548716918a16919091179055835190518816875260068252828720558188018051600b8054978801815588527f0175b7a638427703f0dbe7bb9bbf987a2551717b34e79f33b5b1008d1fa01db99096018054909516958816959095179093558151935186168552600783528085209390935585519094168352600890528120439055905160038054919290916117b0908490611c4c565b909155505050565b80606001516000036117eb57604051637f11b8a360e11b81526001600160e01b031960003516600482015260240161084c565b604080516003808252608082019092526000916020820160608036833701905050905081600001518160008151811061182657611826611c20565b60200260200101906001600160a01b031690816001600160a01b03168152505081602001518160018151811061185e5761185e611c20565b60200260200101906001600160a01b031690816001600160a01b03168152505081604001518160028151811061189657611896611c20565b60200260200101906001600160a01b031690816001600160a01b0316815250506118bf816118eb565b156103d657604051630d697db160e11b81526001600160e01b031960003516600482015260240161084c565b600081516000036118fe57506000919050565b60005b600183510381101561198157600181015b83518110156119785783818151811061192d5761192d611c20565b60200260200101516001600160a01b031684838151811061195057611950611c20565b60200260200101516001600160a01b031603611970575060019392505050565b600101611912565b50600101611901565b50600092915050565b6000806020838503121561199d57600080fd5b823567ffffffffffffffff808211156119b557600080fd5b818501915085601f8301126119c957600080fd5b8135818111156119d857600080fd5b8660208260051b85010111156119ed57600080fd5b60209290920196919550909350505050565b60008083601f840112611a1157600080fd5b50813567ffffffffffffffff811115611a2957600080fd5b60208301915083602060a083028501011115610ae657600080fd5b60008060208385031215611a5757600080fd5b823567ffffffffffffffff811115611a6e57600080fd5b611a7a858286016119ff565b90969095509350505050565b80516001600160a01b0390811683526020808301518216908401526040808301519091169083015260608082015190830152608090810151910152565b6020808252825182820181905260009190848201906040850190845b81811015611b0557611af2838551611a86565b9284019260a09290920191600101611adf565b50909695505050505050565b80356001600160a01b0381168114611b2857600080fd5b919050565b600060208284031215611b3f57600080fd5b610c4e82611b11565b6020808252825182820181905260009190848201906040850190845b81811015611b0557835183529284019291840191600101611b64565b60008060008060608587031215611b9657600080fd5b843567ffffffffffffffff811115611bad57600080fd5b611bb9878288016119ff565b90989097506020870135966040013595509350505050565b60008060408385031215611be457600080fd5b50508035926020909101359150565b600060208284031215611c0557600080fd5b5035919050565b60a08101611c1a8284611a86565b92915050565b634e487b7160e01b600052603260045260246000fd5b634e487b7160e01b600052601160045260246000fd5b80820180821115611c1a57611c1a611c36565b634e487b7160e01b600052604160045260246000fd5b8082028115828204841417611c1a57611c1a611c36565b81810381811115611c1a57611c1a611c36565b600082611cbc57634e487b7160e01b600052601260045260246000fd5b500490565b60208082528181018390526000908460408401835b86811015611d02576001600160a01b03611cef84611b11565b1682529183019190830190600101611cd6565b509695505050505050565b600060a08284031215611d1f57600080fd5b60405160a0810181811067ffffffffffffffff82111715611d5057634e487b7160e01b600052604160045260246000fd5b604052611d5c83611b11565b8152611d6a60208401611b11565b6020820152611d7b60408401611b11565b604082015260608301356060820152608083013560808201528091505092915050565b6020808252818101839052600090604080840186845b87811015611e1a576001600160a01b0380611dce84611b11565b16845280611ddd878501611b11565b168685015280611dee868501611b11565b168486015250606082810135908401526080808301359084015260a09283019290910190600101611db4565b5090979650505050505050565b6001600160e01b03198316815260408101600b8310611e5657634e487b7160e01b600052602160045260246000fd5b8260208301529392505050565b634e487b7160e01b600052603160045260246000fdfea26469706673582212203139d5d9c469856b74824d5818781b74262f9a82086d9f97e25b722de869ded564736f6c63430008110033",
  "devdoc": {
    "errors": {
      "ErrBridgeVoterIsAlreadyAdded(address)": [
        {
          "details": "Error indicating that a bridge voter has already been added.",
          "params": {
            "voter": "The address of the bridge voter that is already added."
          }
        }
      ],
      "ErrConsensusAddressIsAlreadyAdded(address)": [
        {
          "details": "Error indicating that a consensus address is already added.",
          "params": {
            "addr": "The address of the consensus contract that is already added."
          }
        }
      ],
      "ErrConsensusAddressIsNotAdded(address)": [
        {
          "details": "Error indicating that a consensus address is not added.",
          "params": {
            "addr": "The address of the consensus contract that is not added."
          }
        }
      ],
      "ErrDuplicated(bytes4)": [
        {
          "details": "Error thrown when a duplicated element is detected in an array.",
          "params": {
            "msgSig": "The function signature that invoke the error."
          }
        }
      ],
      "ErrEmptyArray()": [
        {
          "details": "Error indicating that an array is empty when it should contain elements."
        }
      ],
      "ErrGovernorAddressIsAlreadyAdded(address)": [
        {
          "details": "Error indicating that a governor address has already been added.",
          "params": {
            "addr": "The address of the governor that is already added."
          }
        }
      ],
      "ErrInvalidRequest()": [
        {
          "details": "Error indicating that a request is invalid."
        }
      ],
      "ErrInvalidThreshold(bytes4)": [
        {
          "details": "Error indicating that the provided threshold is invalid for a specific function signature.",
          "params": {
            "msgSig": "The function signature (bytes4) that the invalid threshold applies to."
          }
        }
      ],
      "ErrInvalidVoteWeight(bytes4)": [
        {
          "details": "Error indicating that a vote weight is invalid for a specific function signature.",
          "params": {
            "msgSig": "The function signature (bytes4) that encountered an invalid vote weight."
          }
        }
      ],
      "ErrQueryForDupplicated()": [
        {
          "details": "Error indicating that a query for a duplicate entry was made."
        }
      ],
      "ErrQueryForNonExistentConsensusAddress()": [
        {
          "details": "Error indicating that a query was made for a non-existent consensus address."
        }
      ],
      "ErrUnauthorized(bytes4,uint8)": [
        {
          "details": "Error indicating that the caller is unauthorized to perform a specific function.",
          "params": {
            "expectedRole": "The role required to perform the function.",
            "msgSig": "The function signature (bytes4) that the caller is unauthorized to perform."
          }
        }
      ]
    },
    "kind": "dev",
    "methods": {
      "addTrustedOrganizations((address,address,address,uint256,uint256)[])": {
        "details": "Adds a list of addresses into the trusted organization. Requirements: - The weights should larger than 0. - The method caller is admin. - The field `addedBlock` should be blank. Emits the event `TrustedOrganizationAdded` once an organization is added."
      },
      "checkThreshold(uint256)": {
        "details": "Checks whether the `_voteWeight` passes the threshold."
      },
      "countTrustedOrganization()": {
        "details": "Returns the number of trusted organizations."
      },
      "getAllTrustedOrganizations()": {
        "details": "Returns all of the trusted organizations."
      },
      "getBridgeVoterWeight(address)": {
        "details": "Returns the weight of a bridge voter."
      },
      "getBridgeVoterWeights(address[])": {
        "details": "Returns the weights of a list of bridge voter addresses."
      },
      "getConsensusWeight(address)": {
        "details": "Returns the weight of a consensus."
      },
      "getConsensusWeights(address[])": {
        "details": "Returns the weights of a list of consensus addresses."
      },
      "getGovernorWeight(address)": {
        "details": "Returns the weight of a governor."
      },
      "getGovernorWeights(address[])": {
        "details": "Returns the weights of a list of governor addresses."
      },
      "getThreshold()": {
        "details": "Returns the threshold."
      },
      "getTrustedOrganization(address)": {
        "details": "Returns the trusted organization by consensus address. Reverts once the consensus address is non-existent."
      },
      "getTrustedOrganizationAt(uint256)": {
        "details": "Returns the trusted organization at `_index`."
      },
      "initialize((address,address,address,uint256,uint256)[],uint256,uint256)": {
        "details": "Initializes the contract storage."
      },
      "minimumVoteWeight()": {
        "details": "Returns the minimum vote weight to pass the threshold."
      },
      "removeTrustedOrganizations(address[])": {
        "details": "Removes a list of addresses from the trusted organization. Requirements: - The method caller is admin. Emits the event `TrustedOrganizationRemoved` once an organization is removed.",
        "params": {
          "_consensusAddrs": "The list of consensus addresses linked to corresponding trusted organization that to be removed."
        }
      },
      "setThreshold(uint256,uint256)": {
        "details": "Sets the threshold. Requirements: - The method caller is admin. Emits the `ThresholdUpdated` event."
      },
      "sumBridgeVoterWeight(address[])": {
        "details": "Returns total weights of the bridge voter list."
      },
      "sumConsensusWeight(address[])": {
        "details": "Returns total weights of the consensus list."
      },
      "sumGovernorWeight(address[])": {
        "details": "Returns total weights of the governor list."
      },
      "totalWeight()": {
        "details": "Returns total weights."
      },
      "updateTrustedOrganizations((address,address,address,uint256,uint256)[])": {
        "details": "Updates weights for a list of existent trusted organization. Requirements: - The weights should larger than 0. - The method caller is admin. Emits the `TrustedOrganizationUpdated` event."
      }
    },
    "stateVariables": {
      "_addedBlock": {
        "details": "Mapping from consensus address => added block"
      },
      "_bridgeVoterList": {
        "details": "Bridge voters array"
      },
      "_bridgeVoterWeight": {
        "details": "Mapping from bridge voter address => weight"
      },
      "_consensusList": {
        "details": "Consensus array"
      },
      "_consensusWeight": {
        "details": "Mapping from consensus address => weight"
      },
      "_governorList": {
        "details": "Governors array"
      },
      "_governorWeight": {
        "details": "Mapping from governor address => weight"
      }
    },
    "version": 1
  },
  "userdoc": {
    "kind": "user",
    "methods": {},
    "version": 1
  },
  "storageLayout": {
    "storage": [
      {
        "astId": 1373,
        "contract": "contracts/multi-chains/RoninTrustedOrganization.sol:RoninTrustedOrganization",
        "label": "_initialized",
        "offset": 0,
        "slot": "0",
        "type": "t_uint8"
      },
      {
        "astId": 1376,
        "contract": "contracts/multi-chains/RoninTrustedOrganization.sol:RoninTrustedOrganization",
        "label": "_initializing",
        "offset": 1,
        "slot": "0",
        "type": "t_bool"
      },
      {
        "astId": 22746,
        "contract": "contracts/multi-chains/RoninTrustedOrganization.sol:RoninTrustedOrganization",
        "label": "_num",
        "offset": 0,
        "slot": "1",
        "type": "t_uint256"
      },
      {
        "astId": 22748,
        "contract": "contracts/multi-chains/RoninTrustedOrganization.sol:RoninTrustedOrganization",
        "label": "_denom",
        "offset": 0,
        "slot": "2",
        "type": "t_uint256"
      },
      {
        "astId": 22750,
        "contract": "contracts/multi-chains/RoninTrustedOrganization.sol:RoninTrustedOrganization",
        "label": "_totalWeight",
        "offset": 0,
        "slot": "3",
        "type": "t_uint256"
      },
      {
        "astId": 22752,
        "contract": "contracts/multi-chains/RoninTrustedOrganization.sol:RoninTrustedOrganization",
        "label": "_nonce",
        "offset": 0,
        "slot": "4",
        "type": "t_uint256"
      },
      {
        "astId": 22757,
        "contract": "contracts/multi-chains/RoninTrustedOrganization.sol:RoninTrustedOrganization",
        "label": "_consensusWeight",
        "offset": 0,
        "slot": "5",
        "type": "t_mapping(t_address,t_uint256)"
      },
      {
        "astId": 22762,
        "contract": "contracts/multi-chains/RoninTrustedOrganization.sol:RoninTrustedOrganization",
        "label": "_governorWeight",
        "offset": 0,
        "slot": "6",
        "type": "t_mapping(t_address,t_uint256)"
      },
      {
        "astId": 22767,
        "contract": "contracts/multi-chains/RoninTrustedOrganization.sol:RoninTrustedOrganization",
        "label": "_bridgeVoterWeight",
        "offset": 0,
        "slot": "7",
        "type": "t_mapping(t_address,t_uint256)"
      },
      {
        "astId": 22772,
        "contract": "contracts/multi-chains/RoninTrustedOrganization.sol:RoninTrustedOrganization",
        "label": "_addedBlock",
        "offset": 0,
        "slot": "8",
        "type": "t_mapping(t_address,t_uint256)"
      },
      {
        "astId": 22776,
        "contract": "contracts/multi-chains/RoninTrustedOrganization.sol:RoninTrustedOrganization",
        "label": "_consensusList",
        "offset": 0,
        "slot": "9",
        "type": "t_array(t_address)dyn_storage"
      },
      {
        "astId": 22780,
        "contract": "contracts/multi-chains/RoninTrustedOrganization.sol:RoninTrustedOrganization",
        "label": "_governorList",
        "offset": 0,
        "slot": "10",
        "type": "t_array(t_address)dyn_storage"
      },
      {
        "astId": 22784,
        "contract": "contracts/multi-chains/RoninTrustedOrganization.sol:RoninTrustedOrganization",
        "label": "_bridgeVoterList",
        "offset": 0,
        "slot": "11",
        "type": "t_array(t_address)dyn_storage"
      }
    ],
    "types": {
      "t_address": {
        "encoding": "inplace",
        "label": "address",
        "numberOfBytes": "20"
      },
      "t_array(t_address)dyn_storage": {
        "base": "t_address",
        "encoding": "dynamic_array",
        "label": "address[]",
        "numberOfBytes": "32"
      },
      "t_bool": {
        "encoding": "inplace",
        "label": "bool",
        "numberOfBytes": "1"
      },
      "t_mapping(t_address,t_uint256)": {
        "encoding": "mapping",
        "key": "t_address",
        "label": "mapping(address => uint256)",
        "numberOfBytes": "32",
        "value": "t_uint256"
      },
      "t_uint256": {
        "encoding": "inplace",
        "label": "uint256",
        "numberOfBytes": "32"
      },
      "t_uint8": {
        "encoding": "inplace",
        "label": "uint8",
        "numberOfBytes": "1"
      }
    }
  }
}