{
  "address": "0x1477DB6bF449B0eb1191a1F4023867ddCEadc504",
  "abi": [
    {
      "inputs": [
        {
          "internalType": "address",
          "name": "voter",
          "type": "address"
        }
      ],
      "name": "ErrAlreadyVoted",
      "type": "error"
    },
    {
      "inputs": [
        {
          "internalType": "enum ContractType",
          "name": "contractType",
          "type": "uint8"
        }
      ],
      "name": "ErrContractTypeNotFound",
      "type": "error"
    },
    {
      "inputs": [],
      "name": "ErrERC20MintingFailed",
      "type": "error"
    },
    {
      "inputs": [],
      "name": "ErrERC721MintingFailed",
      "type": "error"
    },
    {
      "inputs": [],
      "name": "ErrEmptyArray",
      "type": "error"
    },
    {
      "inputs": [
        {
          "internalType": "bytes4",
          "name": "msgSig",
          "type": "bytes4"
        },
        {
          "internalType": "uint256",
          "name": "actual",
          "type": "uint256"
        },
        {
          "internalType": "uint256",
          "name": "expected",
          "type": "uint256"
        }
      ],
      "name": "ErrInvalidChainId",
      "type": "error"
    },
    {
      "inputs": [],
      "name": "ErrInvalidInfo",
      "type": "error"
    },
    {
      "inputs": [],
      "name": "ErrInvalidReceipt",
      "type": "error"
    },
    {
      "inputs": [],
      "name": "ErrInvalidReceiptKind",
      "type": "error"
    },
    {
      "inputs": [],
      "name": "ErrInvalidRequest",
      "type": "error"
    },
    {
      "inputs": [
        {
          "internalType": "bytes4",
          "name": "msgSig",
          "type": "bytes4"
        }
      ],
      "name": "ErrInvalidThreshold",
      "type": "error"
    },
    {
      "inputs": [],
      "name": "ErrInvalidTokenStandard",
      "type": "error"
    },
    {
      "inputs": [],
      "name": "ErrInvalidTrustedThreshold",
      "type": "error"
    },
    {
      "inputs": [
        {
          "internalType": "bytes4",
          "name": "msgSig",
          "type": "bytes4"
        }
      ],
      "name": "ErrLengthMismatch",
      "type": "error"
    },
    {
      "inputs": [],
      "name": "ErrQueryForTooSmallQuantity",
      "type": "error"
    },
    {
      "inputs": [
        {
          "components": [
            {
              "internalType": "enum Token.Standard",
              "name": "erc",
              "type": "uint8"
            },
            {
              "internalType": "uint256",
              "name": "id",
              "type": "uint256"
            },
            {
              "internalType": "uint256",
              "name": "quantity",
              "type": "uint256"
            }
          ],
          "internalType": "struct Token.Info",
          "name": "tokenInfo",
          "type": "tuple"
        },
        {
          "internalType": "address",
          "name": "to",
          "type": "address"
        },
        {
          "internalType": "address",
          "name": "token",
          "type": "address"
        }
      ],
      "name": "ErrTokenCouldNotTransfer",
      "type": "error"
    },
    {
      "inputs": [
        {
          "components": [
            {
              "internalType": "enum Token.Standard",
              "name": "erc",
              "type": "uint8"
            },
            {
              "internalType": "uint256",
              "name": "id",
              "type": "uint256"
            },
            {
              "internalType": "uint256",
              "name": "quantity",
              "type": "uint256"
            }
          ],
          "internalType": "struct Token.Info",
          "name": "tokenInfo",
          "type": "tuple"
        },
        {
          "internalType": "address",
          "name": "from",
          "type": "address"
        },
        {
          "internalType": "address",
          "name": "to",
          "type": "address"
        },
        {
          "internalType": "address",
          "name": "token",
          "type": "address"
        }
      ],
      "name": "ErrTokenCouldNotTransferFrom",
      "type": "error"
    },
    {
      "inputs": [
        {
          "internalType": "bytes4",
          "name": "msgSig",
          "type": "bytes4"
        },
        {
          "internalType": "enum RoleAccess",
          "name": "expectedRole",
          "type": "uint8"
        }
      ],
      "name": "ErrUnauthorized",
      "type": "error"
    },
    {
      "inputs": [],
      "name": "ErrUnsupportedStandard",
      "type": "error"
    },
    {
      "inputs": [],
      "name": "ErrUnsupportedToken",
      "type": "error"
    },
    {
      "inputs": [],
      "name": "ErrWithdrawalsMigrated",
      "type": "error"
    },
    {
      "inputs": [],
      "name": "ErrWithdrawnOnMainchainAlready",
      "type": "error"
    },
    {
      "inputs": [
        {
          "internalType": "address",
          "name": "addr",
          "type": "address"
        }
      ],
      "name": "ErrZeroCodeContract",
      "type": "error"
    },
    {
      "anonymous": false,
      "inputs": [
        {
          "indexed": true,
          "internalType": "enum ContractType",
          "name": "contractType",
          "type": "uint8"
        },
        {
          "indexed": true,
          "internalType": "address",
          "name": "addr",
          "type": "address"
        }
      ],
      "name": "ContractUpdated",
      "type": "event"
    },
    {
      "anonymous": false,
      "inputs": [
        {
          "indexed": true,
          "internalType": "address",
          "name": "bridgeOperator",
          "type": "address"
        },
        {
          "indexed": true,
          "internalType": "uint256",
          "name": "id",
          "type": "uint256"
        },
        {
          "indexed": true,
          "internalType": "uint256",
          "name": "chainId",
          "type": "uint256"
        },
        {
          "indexed": false,
          "internalType": "bytes32",
          "name": "receiptHash",
          "type": "bytes32"
        }
      ],
      "name": "DepositVoted",
      "type": "event"
    },
    {
      "anonymous": false,
      "inputs": [
        {
          "indexed": false,
          "internalType": "bytes32",
          "name": "receiptHash",
          "type": "bytes32"
        },
        {
          "components": [
            {
              "internalType": "uint256",
              "name": "id",
              "type": "uint256"
            },
            {
              "internalType": "enum Transfer.Kind",
              "name": "kind",
              "type": "uint8"
            },
            {
              "components": [
                {
                  "internalType": "address",
                  "name": "addr",
                  "type": "address"
                },
                {
                  "internalType": "address",
                  "name": "tokenAddr",
                  "type": "address"
                },
                {
                  "internalType": "uint256",
                  "name": "chainId",
                  "type": "uint256"
                }
              ],
              "internalType": "struct Token.Owner",
              "name": "mainchain",
              "type": "tuple"
            },
            {
              "components": [
                {
                  "internalType": "address",
                  "name": "addr",
                  "type": "address"
                },
                {
                  "internalType": "address",
                  "name": "tokenAddr",
                  "type": "address"
                },
                {
                  "internalType": "uint256",
                  "name": "chainId",
                  "type": "uint256"
                }
              ],
              "internalType": "struct Token.Owner",
              "name": "ronin",
              "type": "tuple"
            },
            {
              "components": [
                {
                  "internalType": "enum Token.Standard",
                  "name": "erc",
                  "type": "uint8"
                },
                {
                  "internalType": "uint256",
                  "name": "id",
                  "type": "uint256"
                },
                {
                  "internalType": "uint256",
                  "name": "quantity",
                  "type": "uint256"
                }
              ],
              "internalType": "struct Token.Info",
              "name": "info",
              "type": "tuple"
            }
          ],
          "indexed": false,
          "internalType": "struct Transfer.Receipt",
          "name": "receipt",
          "type": "tuple"
        }
      ],
      "name": "Deposited",
      "type": "event"
    },
    {
      "anonymous": false,
      "inputs": [
        {
          "indexed": false,
          "internalType": "uint8",
          "name": "version",
          "type": "uint8"
        }
      ],
      "name": "Initialized",
      "type": "event"
    },
    {
      "anonymous": false,
      "inputs": [
        {
          "indexed": false,
          "internalType": "bytes32",
          "name": "receiptHash",
          "type": "bytes32"
        },
        {
          "components": [
            {
              "internalType": "uint256",
              "name": "id",
              "type": "uint256"
            },
            {
              "internalType": "enum Transfer.Kind",
              "name": "kind",
              "type": "uint8"
            },
            {
              "components": [
                {
                  "internalType": "address",
                  "name": "addr",
                  "type": "address"
                },
                {
                  "internalType": "address",
                  "name": "tokenAddr",
                  "type": "address"
                },
                {
                  "internalType": "uint256",
                  "name": "chainId",
                  "type": "uint256"
                }
              ],
              "internalType": "struct Token.Owner",
              "name": "mainchain",
              "type": "tuple"
            },
            {
              "components": [
                {
                  "internalType": "address",
                  "name": "addr",
                  "type": "address"
                },
                {
                  "internalType": "address",
                  "name": "tokenAddr",
                  "type": "address"
                },
                {
                  "internalType": "uint256",
                  "name": "chainId",
                  "type": "uint256"
                }
              ],
              "internalType": "struct Token.Owner",
              "name": "ronin",
              "type": "tuple"
            },
            {
              "components": [
                {
                  "internalType": "enum Token.Standard",
                  "name": "erc",
                  "type": "uint8"
                },
                {
                  "internalType": "uint256",
                  "name": "id",
                  "type": "uint256"
                },
                {
                  "internalType": "uint256",
                  "name": "quantity",
                  "type": "uint256"
                }
              ],
              "internalType": "struct Token.Info",
              "name": "info",
              "type": "tuple"
            }
          ],
          "indexed": false,
          "internalType": "struct Transfer.Receipt",
          "name": "receipt",
          "type": "tuple"
        }
      ],
      "name": "MainchainWithdrew",
      "type": "event"
    },
    {
      "anonymous": false,
      "inputs": [
        {
          "indexed": false,
          "internalType": "address[]",
          "name": "tokens",
          "type": "address[]"
        },
        {
          "indexed": false,
          "internalType": "uint256[]",
          "name": "threshold",
          "type": "uint256[]"
        }
      ],
      "name": "MinimumThresholdsUpdated",
      "type": "event"
    },
    {
      "anonymous": false,
      "inputs": [
        {
          "indexed": false,
          "internalType": "address",
          "name": "account",
          "type": "address"
        }
      ],
      "name": "Paused",
      "type": "event"
    },
    {
      "anonymous": false,
      "inputs": [
        {
          "indexed": true,
          "internalType": "bytes32",
          "name": "role",
          "type": "bytes32"
        },
        {
          "indexed": true,
          "internalType": "bytes32",
          "name": "previousAdminRole",
          "type": "bytes32"
        },
        {
          "indexed": true,
          "internalType": "bytes32",
          "name": "newAdminRole",
          "type": "bytes32"
        }
      ],
      "name": "RoleAdminChanged",
      "type": "event"
    },
    {
      "anonymous": false,
      "inputs": [
        {
          "indexed": true,
          "internalType": "bytes32",
          "name": "role",
          "type": "bytes32"
        },
        {
          "indexed": true,
          "internalType": "address",
          "name": "account",
          "type": "address"
        },
        {
          "indexed": true,
          "internalType": "address",
          "name": "sender",
          "type": "address"
        }
      ],
      "name": "RoleGranted",
      "type": "event"
    },
    {
      "anonymous": false,
      "inputs": [
        {
          "indexed": true,
          "internalType": "bytes32",
          "name": "role",
          "type": "bytes32"
        },
        {
          "indexed": true,
          "internalType": "address",
          "name": "account",
          "type": "address"
        },
        {
          "indexed": true,
          "internalType": "address",
          "name": "sender",
          "type": "address"
        }
      ],
      "name": "RoleRevoked",
      "type": "event"
    },
    {
      "anonymous": false,
      "inputs": [
        {
          "indexed": true,
          "internalType": "uint256",
          "name": "nonce",
          "type": "uint256"
        },
        {
          "indexed": true,
          "internalType": "uint256",
          "name": "numerator",
          "type": "uint256"
        },
        {
          "indexed": true,
          "internalType": "uint256",
          "name": "denominator",
          "type": "uint256"
        },
        {
          "indexed": false,
          "internalType": "uint256",
          "name": "previousNumerator",
          "type": "uint256"
        },
        {
          "indexed": false,
          "internalType": "uint256",
          "name": "previousDenominator",
          "type": "uint256"
        }
      ],
      "name": "ThresholdUpdated",
      "type": "event"
    },
    {
      "anonymous": false,
      "inputs": [
        {
          "indexed": false,
          "internalType": "address[]",
          "name": "roninTokens",
          "type": "address[]"
        },
        {
          "indexed": false,
          "internalType": "address[]",
          "name": "mainchainTokens",
          "type": "address[]"
        },
        {
          "indexed": false,
          "internalType": "uint256[]",
          "name": "chainIds",
          "type": "uint256[]"
        },
        {
          "indexed": false,
          "internalType": "enum Token.Standard[]",
          "name": "standards",
          "type": "uint8[]"
        }
      ],
      "name": "TokenMapped",
      "type": "event"
    },
    {
      "anonymous": false,
      "inputs": [
        {
          "indexed": true,
          "internalType": "uint256",
          "name": "nonce",
          "type": "uint256"
        },
        {
          "indexed": true,
          "internalType": "uint256",
          "name": "numerator",
          "type": "uint256"
        },
        {
          "indexed": true,
          "internalType": "uint256",
          "name": "denominator",
          "type": "uint256"
        },
        {
          "indexed": false,
          "internalType": "uint256",
          "name": "previousNumerator",
          "type": "uint256"
        },
        {
          "indexed": false,
          "internalType": "uint256",
          "name": "previousDenominator",
          "type": "uint256"
        }
      ],
      "name": "TrustedThresholdUpdated",
      "type": "event"
    },
    {
      "anonymous": false,
      "inputs": [
        {
          "indexed": false,
          "internalType": "address",
          "name": "account",
          "type": "address"
        }
      ],
      "name": "Unpaused",
      "type": "event"
    },
    {
      "anonymous": false,
      "inputs": [
        {
          "indexed": false,
          "internalType": "bytes32",
          "name": "receiptHash",
          "type": "bytes32"
        },
        {
          "components": [
            {
              "internalType": "uint256",
              "name": "id",
              "type": "uint256"
            },
            {
              "internalType": "enum Transfer.Kind",
              "name": "kind",
              "type": "uint8"
            },
            {
              "components": [
                {
                  "internalType": "address",
                  "name": "addr",
                  "type": "address"
                },
                {
                  "internalType": "address",
                  "name": "tokenAddr",
                  "type": "address"
                },
                {
                  "internalType": "uint256",
                  "name": "chainId",
                  "type": "uint256"
                }
              ],
              "internalType": "struct Token.Owner",
              "name": "mainchain",
              "type": "tuple"
            },
            {
              "components": [
                {
                  "internalType": "address",
                  "name": "addr",
                  "type": "address"
                },
                {
                  "internalType": "address",
                  "name": "tokenAddr",
                  "type": "address"
                },
                {
                  "internalType": "uint256",
                  "name": "chainId",
                  "type": "uint256"
                }
              ],
              "internalType": "struct Token.Owner",
              "name": "ronin",
              "type": "tuple"
            },
            {
              "components": [
                {
                  "internalType": "enum Token.Standard",
                  "name": "erc",
                  "type": "uint8"
                },
                {
                  "internalType": "uint256",
                  "name": "id",
                  "type": "uint256"
                },
                {
                  "internalType": "uint256",
                  "name": "quantity",
                  "type": "uint256"
                }
              ],
              "internalType": "struct Token.Info",
              "name": "info",
              "type": "tuple"
            }
          ],
          "indexed": false,
          "internalType": "struct Transfer.Receipt",
          "name": "",
          "type": "tuple"
        }
      ],
      "name": "WithdrawalRequested",
      "type": "event"
    },
    {
      "anonymous": false,
      "inputs": [
        {
          "indexed": false,
          "internalType": "bytes32",
          "name": "receiptHash",
          "type": "bytes32"
        },
        {
          "components": [
            {
              "internalType": "uint256",
              "name": "id",
              "type": "uint256"
            },
            {
              "internalType": "enum Transfer.Kind",
              "name": "kind",
              "type": "uint8"
            },
            {
              "components": [
                {
                  "internalType": "address",
                  "name": "addr",
                  "type": "address"
                },
                {
                  "internalType": "address",
                  "name": "tokenAddr",
                  "type": "address"
                },
                {
                  "internalType": "uint256",
                  "name": "chainId",
                  "type": "uint256"
                }
              ],
              "internalType": "struct Token.Owner",
              "name": "mainchain",
              "type": "tuple"
            },
            {
              "components": [
                {
                  "internalType": "address",
                  "name": "addr",
                  "type": "address"
                },
                {
                  "internalType": "address",
                  "name": "tokenAddr",
                  "type": "address"
                },
                {
                  "internalType": "uint256",
                  "name": "chainId",
                  "type": "uint256"
                }
              ],
              "internalType": "struct Token.Owner",
              "name": "ronin",
              "type": "tuple"
            },
            {
              "components": [
                {
                  "internalType": "enum Token.Standard",
                  "name": "erc",
                  "type": "uint8"
                },
                {
                  "internalType": "uint256",
                  "name": "id",
                  "type": "uint256"
                },
                {
                  "internalType": "uint256",
                  "name": "quantity",
                  "type": "uint256"
                }
              ],
              "internalType": "struct Token.Info",
              "name": "info",
              "type": "tuple"
            }
          ],
          "indexed": false,
          "internalType": "struct Transfer.Receipt",
          "name": "",
          "type": "tuple"
        }
      ],
      "name": "WithdrawalSignaturesRequested",
      "type": "event"
    },
    {
      "stateMutability": "payable",
      "type": "fallback"
    },
    {
      "inputs": [],
      "name": "DEFAULT_ADMIN_ROLE",
      "outputs": [
        {
          "internalType": "bytes32",
          "name": "",
          "type": "bytes32"
        }
      ],
      "stateMutability": "view",
      "type": "function"
    },
    {
      "inputs": [
        {
          "components": [
            {
              "internalType": "address",
              "name": "recipientAddr",
              "type": "address"
            },
            {
              "internalType": "address",
              "name": "tokenAddr",
              "type": "address"
            },
            {
              "components": [
                {
                  "internalType": "enum Token.Standard",
                  "name": "erc",
                  "type": "uint8"
                },
                {
                  "internalType": "uint256",
                  "name": "id",
                  "type": "uint256"
                },
                {
                  "internalType": "uint256",
                  "name": "quantity",
                  "type": "uint256"
                }
              ],
              "internalType": "struct Token.Info",
              "name": "info",
              "type": "tuple"
            }
          ],
          "internalType": "struct Transfer.Request[]",
          "name": "_requests",
          "type": "tuple[]"
        },
        {
          "internalType": "uint256",
          "name": "_chainId",
          "type": "uint256"
        }
      ],
      "name": "bulkRequestWithdrawalFor",
      "outputs": [],
      "stateMutability": "nonpayable",
      "type": "function"
    },
    {
      "inputs": [
        {
          "internalType": "uint256[]",
          "name": "withdrawals",
          "type": "uint256[]"
        },
        {
          "internalType": "bytes[]",
          "name": "signatures",
          "type": "bytes[]"
        }
      ],
      "name": "bulkSubmitWithdrawalSignatures",
      "outputs": [],
      "stateMutability": "nonpayable",
      "type": "function"
    },
    {
      "inputs": [
        {
          "internalType": "uint256",
          "name": "_voteWeight",
          "type": "uint256"
        }
      ],
      "name": "checkThreshold",
      "outputs": [
        {
          "internalType": "bool",
          "name": "",
          "type": "bool"
        }
      ],
      "stateMutability": "view",
      "type": "function"
    },
    {
      "inputs": [
        {
          "components": [
            {
              "internalType": "uint256",
              "name": "id",
              "type": "uint256"
            },
            {
              "internalType": "enum Transfer.Kind",
              "name": "kind",
              "type": "uint8"
            },
            {
              "components": [
                {
                  "internalType": "address",
                  "name": "addr",
                  "type": "address"
                },
                {
                  "internalType": "address",
                  "name": "tokenAddr",
                  "type": "address"
                },
                {
                  "internalType": "uint256",
                  "name": "chainId",
                  "type": "uint256"
                }
              ],
              "internalType": "struct Token.Owner",
              "name": "mainchain",
              "type": "tuple"
            },
            {
              "components": [
                {
                  "internalType": "address",
                  "name": "addr",
                  "type": "address"
                },
                {
                  "internalType": "address",
                  "name": "tokenAddr",
                  "type": "address"
                },
                {
                  "internalType": "uint256",
                  "name": "chainId",
                  "type": "uint256"
                }
              ],
              "internalType": "struct Token.Owner",
              "name": "ronin",
              "type": "tuple"
            },
            {
              "components": [
                {
                  "internalType": "enum Token.Standard",
                  "name": "erc",
                  "type": "uint8"
                },
                {
                  "internalType": "uint256",
                  "name": "id",
                  "type": "uint256"
                },
                {
                  "internalType": "uint256",
                  "name": "quantity",
                  "type": "uint256"
                }
              ],
              "internalType": "struct Token.Info",
              "name": "info",
              "type": "tuple"
            }
          ],
          "internalType": "struct Transfer.Receipt",
          "name": "_receipt",
          "type": "tuple"
        }
      ],
      "name": "depositFor",
      "outputs": [],
      "stateMutability": "nonpayable",
      "type": "function"
    },
    {
      "inputs": [
        {
          "internalType": "uint256",
          "name": "",
          "type": "uint256"
        },
        {
          "internalType": "uint256",
          "name": "",
          "type": "uint256"
        }
      ],
      "name": "depositVote",
      "outputs": [
        {
          "internalType": "enum VoteStatusConsumer.VoteStatus",
          "name": "status",
          "type": "uint8"
        },
        {
          "internalType": "bytes32",
          "name": "finalHash",
          "type": "bytes32"
        },
        {
          "internalType": "uint256",
          "name": "expiredAt",
          "type": "uint256"
        },
        {
          "internalType": "uint256",
          "name": "createdAt",
          "type": "uint256"
        }
      ],
      "stateMutability": "view",
      "type": "function"
    },
    {
      "inputs": [
        {
          "internalType": "uint256",
          "name": "_chainId",
          "type": "uint256"
        },
        {
          "internalType": "uint256",
          "name": "_depositId",
          "type": "uint256"
        },
        {
          "internalType": "address",
          "name": "_voter",
          "type": "address"
        }
      ],
      "name": "depositVoted",
      "outputs": [
        {
          "internalType": "bool",
          "name": "",
          "type": "bool"
        }
      ],
      "stateMutability": "view",
      "type": "function"
    },
    {
      "inputs": [],
      "name": "emergencyPauser",
      "outputs": [
        {
          "internalType": "address",
          "name": "",
          "type": "address"
        }
      ],
      "stateMutability": "view",
      "type": "function"
    },
    {
      "inputs": [
        {
          "internalType": "enum ContractType",
          "name": "contractType",
          "type": "uint8"
        }
      ],
      "name": "getContract",
      "outputs": [
        {
          "internalType": "address",
          "name": "contract_",
          "type": "address"
        }
      ],
      "stateMutability": "view",
      "type": "function"
    },
    {
      "inputs": [
        {
          "internalType": "address",
          "name": "_roninToken",
          "type": "address"
        },
        {
          "internalType": "uint256",
          "name": "_chainId",
          "type": "uint256"
        }
      ],
      "name": "getMainchainToken",
      "outputs": [
        {
          "components": [
            {
              "internalType": "enum Token.Standard",
              "name": "erc",
              "type": "uint8"
            },
            {
              "internalType": "address",
              "name": "tokenAddr",
              "type": "address"
            }
          ],
          "internalType": "struct MappedTokenConsumer.MappedToken",
          "name": "_token",
          "type": "tuple"
        }
      ],
      "stateMutability": "view",
      "type": "function"
    },
    {
      "inputs": [
        {
          "internalType": "bytes32",
          "name": "role",
          "type": "bytes32"
        }
      ],
      "name": "getRoleAdmin",
      "outputs": [
        {
          "internalType": "bytes32",
          "name": "",
          "type": "bytes32"
        }
      ],
      "stateMutability": "view",
      "type": "function"
    },
    {
      "inputs": [
        {
          "internalType": "bytes32",
          "name": "role",
          "type": "bytes32"
        },
        {
          "internalType": "uint256",
          "name": "index",
          "type": "uint256"
        }
      ],
      "name": "getRoleMember",
      "outputs": [
        {
          "internalType": "address",
          "name": "",
          "type": "address"
        }
      ],
      "stateMutability": "view",
      "type": "function"
    },
    {
      "inputs": [
        {
          "internalType": "bytes32",
          "name": "role",
          "type": "bytes32"
        }
      ],
      "name": "getRoleMemberCount",
      "outputs": [
        {
          "internalType": "uint256",
          "name": "",
          "type": "uint256"
        }
      ],
      "stateMutability": "view",
      "type": "function"
    },
    {
      "inputs": [],
      "name": "getThreshold",
      "outputs": [
        {
          "internalType": "uint256",
          "name": "num_",
          "type": "uint256"
        },
        {
          "internalType": "uint256",
          "name": "denom_",
          "type": "uint256"
        }
      ],
      "stateMutability": "view",
      "type": "function"
    },
    {
      "inputs": [],
      "name": "getTrustedThreshold",
      "outputs": [
        {
          "internalType": "uint256",
          "name": "trustedNum_",
          "type": "uint256"
        },
        {
          "internalType": "uint256",
          "name": "trustedDenom_",
          "type": "uint256"
        }
      ],
      "stateMutability": "view",
      "type": "function"
    },
    {
      "inputs": [
        {
          "internalType": "uint256",
          "name": "withdrawalId",
          "type": "uint256"
        },
        {
          "internalType": "address[]",
          "name": "operators",
          "type": "address[]"
        }
      ],
      "name": "getWithdrawalSignatures",
      "outputs": [
        {
          "internalType": "bytes[]",
          "name": "_signatures",
          "type": "bytes[]"
        }
      ],
      "stateMutability": "view",
      "type": "function"
    },
    {
      "inputs": [
        {
          "internalType": "bytes32",
          "name": "role",
          "type": "bytes32"
        },
        {
          "internalType": "address",
          "name": "account",
          "type": "address"
        }
      ],
      "name": "grantRole",
      "outputs": [],
      "stateMutability": "nonpayable",
      "type": "function"
    },
    {
      "inputs": [
        {
          "internalType": "bytes32",
          "name": "role",
          "type": "bytes32"
        },
        {
          "internalType": "address",
          "name": "account",
          "type": "address"
        }
      ],
      "name": "hasRole",
      "outputs": [
        {
          "internalType": "bool",
          "name": "",
          "type": "bool"
        }
      ],
      "stateMutability": "view",
      "type": "function"
    },
    {
      "inputs": [
        {
          "internalType": "address",
          "name": "_roleSetter",
          "type": "address"
        },
        {
          "internalType": "uint256",
          "name": "_numerator",
          "type": "uint256"
        },
        {
          "internalType": "uint256",
          "name": "_denominator",
          "type": "uint256"
        },
        {
          "internalType": "uint256",
          "name": "_trustedNumerator",
          "type": "uint256"
        },
        {
          "internalType": "uint256",
          "name": "_trustedDenominator",
          "type": "uint256"
        },
        {
          "internalType": "address[]",
          "name": "",
          "type": "address[]"
        },
        {
          "internalType": "address[][2]",
          "name": "_packedAddresses",
          "type": "address[][2]"
        },
        {
          "internalType": "uint256[][2]",
          "name": "_packedNumbers",
          "type": "uint256[][2]"
        },
        {
          "internalType": "enum Token.Standard[]",
          "name": "_standards",
          "type": "uint8[]"
        }
      ],
      "name": "initialize",
      "outputs": [],
      "stateMutability": "nonpayable",
      "type": "function"
    },
    {
      "inputs": [],
      "name": "initializeV2",
      "outputs": [],
      "stateMutability": "nonpayable",
      "type": "function"
    },
    {
      "inputs": [
        {
          "internalType": "address",
          "name": "bridgeAdmin",
          "type": "address"
        }
      ],
      "name": "initializeV3",
      "outputs": [],
      "stateMutability": "nonpayable",
      "type": "function"
    },
    {
      "inputs": [
        {
          "internalType": "uint256",
          "name": "_withdrawalId",
          "type": "uint256"
        }
      ],
      "name": "mainchainWithdrew",
      "outputs": [
        {
          "internalType": "bool",
          "name": "",
          "type": "bool"
        }
      ],
      "stateMutability": "view",
      "type": "function"
    },
    {
      "inputs": [
        {
          "internalType": "uint256",
          "name": "",
          "type": "uint256"
        }
      ],
      "name": "mainchainWithdrewVote",
      "outputs": [
        {
          "internalType": "enum VoteStatusConsumer.VoteStatus",
          "name": "status",
          "type": "uint8"
        },
        {
          "internalType": "bytes32",
          "name": "finalHash",
          "type": "bytes32"
        },
        {
          "internalType": "uint256",
          "name": "expiredAt",
          "type": "uint256"
        },
        {
          "internalType": "uint256",
          "name": "createdAt",
          "type": "uint256"
        }
      ],
      "stateMutability": "view",
      "type": "function"
    },
    {
      "inputs": [
        {
          "internalType": "uint256",
          "name": "_withdrawalId",
          "type": "uint256"
        },
        {
          "internalType": "address",
          "name": "_voter",
          "type": "address"
        }
      ],
      "name": "mainchainWithdrewVoted",
      "outputs": [
        {
          "internalType": "bool",
          "name": "",
          "type": "bool"
        }
      ],
      "stateMutability": "view",
      "type": "function"
    },
    {
      "inputs": [
        {
          "internalType": "address[]",
          "name": "_roninTokens",
          "type": "address[]"
        },
        {
          "internalType": "address[]",
          "name": "_mainchainTokens",
          "type": "address[]"
        },
        {
          "internalType": "uint256[]",
          "name": "_chainIds",
          "type": "uint256[]"
        },
        {
          "internalType": "enum Token.Standard[]",
          "name": "_standards",
          "type": "uint8[]"
        }
      ],
      "name": "mapTokens",
      "outputs": [],
      "stateMutability": "nonpayable",
      "type": "function"
    },
    {
      "inputs": [
        {
          "internalType": "address",
          "name": "",
          "type": "address"
        }
      ],
      "name": "minimumThreshold",
      "outputs": [
        {
          "internalType": "uint256",
          "name": "",
          "type": "uint256"
        }
      ],
      "stateMutability": "view",
      "type": "function"
    },
    {
      "inputs": [],
      "name": "minimumVoteWeight",
      "outputs": [
        {
          "internalType": "uint256",
          "name": "",
          "type": "uint256"
        }
      ],
      "stateMutability": "view",
      "type": "function"
    },
    {
      "inputs": [],
      "name": "nonce",
      "outputs": [
        {
          "internalType": "uint256",
          "name": "",
          "type": "uint256"
        }
      ],
      "stateMutability": "view",
      "type": "function"
    },
    {
      "inputs": [],
      "name": "pause",
      "outputs": [],
      "stateMutability": "nonpayable",
      "type": "function"
    },
    {
      "inputs": [],
      "name": "paused",
      "outputs": [
        {
          "internalType": "bool",
          "name": "",
          "type": "bool"
        }
      ],
      "stateMutability": "view",
      "type": "function"
    },
    {
      "inputs": [
        {
          "internalType": "bytes32",
          "name": "role",
          "type": "bytes32"
        },
        {
          "internalType": "address",
          "name": "account",
          "type": "address"
        }
      ],
      "name": "renounceRole",
      "outputs": [],
      "stateMutability": "nonpayable",
      "type": "function"
    },
    {
      "inputs": [
        {
          "components": [
            {
              "internalType": "address",
              "name": "recipientAddr",
              "type": "address"
            },
            {
              "internalType": "address",
              "name": "tokenAddr",
              "type": "address"
            },
            {
              "components": [
                {
                  "internalType": "enum Token.Standard",
                  "name": "erc",
                  "type": "uint8"
                },
                {
                  "internalType": "uint256",
                  "name": "id",
                  "type": "uint256"
                },
                {
                  "internalType": "uint256",
                  "name": "quantity",
                  "type": "uint256"
                }
              ],
              "internalType": "struct Token.Info",
              "name": "info",
              "type": "tuple"
            }
          ],
          "internalType": "struct Transfer.Request",
          "name": "_request",
          "type": "tuple"
        },
        {
          "internalType": "uint256",
          "name": "_chainId",
          "type": "uint256"
        }
      ],
      "name": "requestWithdrawalFor",
      "outputs": [],
      "stateMutability": "nonpayable",
      "type": "function"
    },
    {
      "inputs": [
        {
          "internalType": "uint256",
          "name": "_withdrawalId",
          "type": "uint256"
        }
      ],
      "name": "requestWithdrawalSignatures",
      "outputs": [],
      "stateMutability": "nonpayable",
      "type": "function"
    },
    {
      "inputs": [
        {
          "internalType": "bytes32",
          "name": "role",
          "type": "bytes32"
        },
        {
          "internalType": "address",
          "name": "account",
          "type": "address"
        }
      ],
      "name": "revokeRole",
      "outputs": [],
      "stateMutability": "nonpayable",
      "type": "function"
    },
    {
      "inputs": [
        {
          "internalType": "enum ContractType",
          "name": "contractType",
          "type": "uint8"
        },
        {
          "internalType": "address",
          "name": "addr",
          "type": "address"
        }
      ],
      "name": "setContract",
      "outputs": [],
      "stateMutability": "nonpayable",
      "type": "function"
    },
    {
      "inputs": [
        {
          "internalType": "address",
          "name": "_addr",
          "type": "address"
        }
      ],
      "name": "setEmergencyPauser",
      "outputs": [],
      "stateMutability": "nonpayable",
      "type": "function"
    },
    {
      "inputs": [
        {
          "internalType": "address[]",
          "name": "_tokens",
          "type": "address[]"
        },
        {
          "internalType": "uint256[]",
          "name": "_thresholds",
          "type": "uint256[]"
        }
      ],
      "name": "setMinimumThresholds",
      "outputs": [],
      "stateMutability": "nonpayable",
      "type": "function"
    },
    {
      "inputs": [
        {
          "internalType": "uint256",
          "name": "_numerator",
          "type": "uint256"
        },
        {
          "internalType": "uint256",
          "name": "_denominator",
          "type": "uint256"
        }
      ],
      "name": "setThreshold",
      "outputs": [
        {
          "internalType": "uint256",
          "name": "",
          "type": "uint256"
        },
        {
          "internalType": "uint256",
          "name": "",
          "type": "uint256"
        }
      ],
      "stateMutability": "nonpayable",
      "type": "function"
    },
    {
      "inputs": [
        {
          "internalType": "uint256",
          "name": "_trustedNumerator",
          "type": "uint256"
        },
        {
          "internalType": "uint256",
          "name": "_trustedDenominator",
          "type": "uint256"
        }
      ],
      "name": "setTrustedThreshold",
      "outputs": [
        {
          "internalType": "uint256",
          "name": "",
          "type": "uint256"
        },
        {
          "internalType": "uint256",
          "name": "",
          "type": "uint256"
        }
      ],
      "stateMutability": "nonpayable",
      "type": "function"
    },
    {
      "inputs": [
        {
          "internalType": "bytes4",
          "name": "interfaceId",
          "type": "bytes4"
        }
      ],
      "name": "supportsInterface",
      "outputs": [
        {
          "internalType": "bool",
          "name": "",
          "type": "bool"
        }
      ],
      "stateMutability": "view",
      "type": "function"
    },
    {
      "inputs": [
        {
          "internalType": "uint256[]",
          "name": "_withdrawalIds",
          "type": "uint256[]"
        }
      ],
      "name": "tryBulkAcknowledgeMainchainWithdrew",
      "outputs": [
        {
          "internalType": "bool[]",
          "name": "_executedReceipts",
          "type": "bool[]"
        }
      ],
      "stateMutability": "nonpayable",
      "type": "function"
    },
    {
      "inputs": [
        {
          "components": [
            {
              "internalType": "uint256",
              "name": "id",
              "type": "uint256"
            },
            {
              "internalType": "enum Transfer.Kind",
              "name": "kind",
              "type": "uint8"
            },
            {
              "components": [
                {
                  "internalType": "address",
                  "name": "addr",
                  "type": "address"
                },
                {
                  "internalType": "address",
                  "name": "tokenAddr",
                  "type": "address"
                },
                {
                  "internalType": "uint256",
                  "name": "chainId",
                  "type": "uint256"
                }
              ],
              "internalType": "struct Token.Owner",
              "name": "mainchain",
              "type": "tuple"
            },
            {
              "components": [
                {
                  "internalType": "address",
                  "name": "addr",
                  "type": "address"
                },
                {
                  "internalType": "address",
                  "name": "tokenAddr",
                  "type": "address"
                },
                {
                  "internalType": "uint256",
                  "name": "chainId",
                  "type": "uint256"
                }
              ],
              "internalType": "struct Token.Owner",
              "name": "ronin",
              "type": "tuple"
            },
            {
              "components": [
                {
                  "internalType": "enum Token.Standard",
                  "name": "erc",
                  "type": "uint8"
                },
                {
                  "internalType": "uint256",
                  "name": "id",
                  "type": "uint256"
                },
                {
                  "internalType": "uint256",
                  "name": "quantity",
                  "type": "uint256"
                }
              ],
              "internalType": "struct Token.Info",
              "name": "info",
              "type": "tuple"
            }
          ],
          "internalType": "struct Transfer.Receipt[]",
          "name": "_receipts",
          "type": "tuple[]"
        }
      ],
      "name": "tryBulkDepositFor",
      "outputs": [
        {
          "internalType": "bool[]",
          "name": "_executedReceipts",
          "type": "bool[]"
        }
      ],
      "stateMutability": "nonpayable",
      "type": "function"
    },
    {
      "inputs": [],
      "name": "unpause",
      "outputs": [],
      "stateMutability": "nonpayable",
      "type": "function"
    },
    {
      "inputs": [
        {
          "internalType": "uint256",
          "name": "",
          "type": "uint256"
        }
      ],
      "name": "withdrawal",
      "outputs": [
        {
          "internalType": "uint256",
          "name": "id",
          "type": "uint256"
        },
        {
          "internalType": "enum Transfer.Kind",
          "name": "kind",
          "type": "uint8"
        },
        {
          "components": [
            {
              "internalType": "address",
              "name": "addr",
              "type": "address"
            },
            {
              "internalType": "address",
              "name": "tokenAddr",
              "type": "address"
            },
            {
              "internalType": "uint256",
              "name": "chainId",
              "type": "uint256"
            }
          ],
          "internalType": "struct Token.Owner",
          "name": "mainchain",
          "type": "tuple"
        },
        {
          "components": [
            {
              "internalType": "address",
              "name": "addr",
              "type": "address"
            },
            {
              "internalType": "address",
              "name": "tokenAddr",
              "type": "address"
            },
            {
              "internalType": "uint256",
              "name": "chainId",
              "type": "uint256"
            }
          ],
          "internalType": "struct Token.Owner",
          "name": "ronin",
          "type": "tuple"
        },
        {
          "components": [
            {
              "internalType": "enum Token.Standard",
              "name": "erc",
              "type": "uint8"
            },
            {
              "internalType": "uint256",
              "name": "id",
              "type": "uint256"
            },
            {
              "internalType": "uint256",
              "name": "quantity",
              "type": "uint256"
            }
          ],
          "internalType": "struct Token.Info",
          "name": "info",
          "type": "tuple"
        }
      ],
      "stateMutability": "view",
      "type": "function"
    },
    {
      "inputs": [],
      "name": "withdrawalCount",
      "outputs": [
        {
          "internalType": "uint256",
          "name": "",
          "type": "uint256"
        }
      ],
      "stateMutability": "view",
      "type": "function"
    },
    {
      "inputs": [
        {
          "internalType": "uint256",
          "name": "",
          "type": "uint256"
        }
      ],
      "name": "withdrawalStatVote",
      "outputs": [
        {
          "internalType": "enum VoteStatusConsumer.VoteStatus",
          "name": "status",
          "type": "uint8"
        },
        {
          "internalType": "bytes32",
          "name": "finalHash",
          "type": "bytes32"
        },
        {
          "internalType": "uint256",
          "name": "expiredAt",
          "type": "uint256"
        },
        {
          "internalType": "uint256",
          "name": "createdAt",
          "type": "uint256"
        }
      ],
      "stateMutability": "view",
      "type": "function"
    },
    {
      "stateMutability": "payable",
      "type": "receive"
    }
  ],
  "transactionHash": "0xbd0e0924e2b2d2a95610852713adb452357c372d48f11b865ff133a59b4d1384",
  "args": [],
  "numDeployments": 1,
  "solcInputHash": "8a10de68ec323e5be85b46f42143fc19",
  "bytecode": "0x608060405234801561001057600080fd5b506000805460ff19169055614d2b8061002a6000396000f3fe6080604052600436106102815760003560e01c8063835fc6ca1161014f578063c28f7894116100c1578063e75235b81161007a578063e75235b814610838578063ecc8364914610850578063f0ce418e1461087d578063f668214a146108c3578063fa389659146108e3578063fc6574bc1461090357610290565b8063c28f789414610752578063ca15c87314610798578063d547741f146107b8578063dafae408146107d8578063dbd2ef6c146107f8578063de981f1b1461081857610290565b80639584a592116101135780639584a5921461069a578063a217fddf146106ba578063affed0e0146106cf578063b9afa177146106e5578063b9c3620914610705578063bc7f03861461072557610290565b8063835fc6ca146105f45780638456cb5914610625578063865e6fd31461063a5780639010d07c1461065a57806391d148541461067a57610290565b80633e70838b116101f35780635cd8a76b116101ac5780635cd8a76b146105475780635d6a9a901461055c57806364363f781461058957806371706cbe146105a957806375535f86146105bf5780637de5dedd146105df57610290565b80633e70838b146104595780633f4ba83a1461047957806347b56b2c1461048e5780634d92c4f0146104ae5780635a7dd06a1461050f5780635c975abb1461052f57610290565b806317fa2ea11161024557806317fa2ea11461036e578063248a9ca31461039b5780632f2ff15d146103d95780633101cfcb146103f957806336568abe146104195780633e4574ec1461043957610290565b806301ffc9a714610298578063065b3adf146102cd5780630b1ff17f14610305578063109679ef1461032557806317892f961461034557610290565b366102905761028e610955565b005b61028e610955565b3480156102a457600080fd5b506102b86102b3366004613afa565b61096e565b60405190151581526020015b60405180910390f35b3480156102d957600080fd5b506005546102ed906001600160a01b031681565b6040516001600160a01b0390911681526020016102c4565b34801561031157600080fd5b5061028e610320366004613b24565b610999565b34801561033157600080fd5b5061028e610340366004613b55565b6109b0565b34801561035157600080fd5b506078546079545b604080519283526020830191909152016102c4565b34801561037a57600080fd5b5061038e610389366004613bb2565b610a55565b6040516102c49190613bf3565b3480156103a757600080fd5b506103cb6103b6366004613c39565b6000908152606b602052604090206001015490565b6040519081526020016102c4565b3480156103e557600080fd5b5061028e6103f4366004613c72565b610d92565b34801561040557600080fd5b5061028e610414366004613ca2565b610dbc565b34801561042557600080fd5b5061028e610434366004613c72565b610e68565b34801561044557600080fd5b506102b8610454366004613c72565b610ee2565b34801561046557600080fd5b5061028e610474366004613ca2565b610f12565b34801561048557600080fd5b5061028e610f3c565b34801561049a57600080fd5b5061028e6104a9366004613c39565b610f4e565b3480156104ba57600080fd5b506104ff6104c9366004613cbf565b606f602090815260009283526040808420909152908252902080546001820154600383015460049093015460ff90921692909184565b6040516102c49493929190613cf7565b34801561051b57600080fd5b5061028e61052a366004613d27565b611119565b34801561053b57600080fd5b5060005460ff166102b8565b34801561055357600080fd5b5061028e61117e565b34801561056857600080fd5b5061057c610577366004613da1565b611280565b6040516102c49190613ddd565b34801561059557600080fd5b5061028e6105a4366004613e09565b611324565b3480156105b557600080fd5b506103cb606e5481565b3480156105cb57600080fd5b506103596105da366004613cbf565b61135a565b3480156105eb57600080fd5b506103cb61137b565b34801561060057600080fd5b5061061461060f366004613c39565b611392565b6040516102c4959493929190613ebd565b34801561063157600080fd5b5061028e611464565b34801561064657600080fd5b5061028e610655366004613f0b565b611474565b34801561066657600080fd5b506102ed610675366004613cbf565b61148f565b34801561068657600080fd5b506102b8610695366004613c72565b6114a7565b3480156106a657600080fd5b5061028e6106b5366004613f48565b6114d2565b3480156106c657600080fd5b506103cb600081565b3480156106db57600080fd5b506103cb60045481565b3480156106f157600080fd5b5061038e610700366004614041565b611621565b34801561071157600080fd5b50610359610720366004613cbf565b6117b3565b34801561073157600080fd5b506103cb610740366004613ca2565b60386020526000908152604090205481565b34801561075e57600080fd5b506104ff61076d366004613c39565b607660205260009081526040902080546001820154600383015460049093015460ff90921692909184565b3480156107a457600080fd5b506103cb6107b3366004613c39565b6117c8565b3480156107c457600080fd5b5061028e6107d3366004613c72565b6117df565b3480156107e457600080fd5b506102b86107f3366004613c39565b611804565b34801561080457600080fd5b5061028e6108133660046140b6565b611830565b34801561082457600080fd5b506102ed610833366004614179565b611882565b34801561084457600080fd5b50600154600254610359565b34801561085c57600080fd5b5061087061086b366004614194565b6118fd565b6040516102c4919061422f565b34801561088957600080fd5b506104ff610898366004613c39565b607060205260009081526040902080546001820154600383015460049093015460ff90921692909184565b3480156108cf57600080fd5b506102b86108de366004613c39565b611a64565b3480156108ef57600080fd5b5061028e6108fe366004613e09565b611a92565b34801561090f57600080fd5b506102b861091e366004614291565b6000928352606f602090815260408085209385529281528284206001600160a01b0392909216845260029091019052902054151590565b60405163129c2ce160e31b815260040160405180910390fd5b60006001600160e01b03198216635a05180f60e01b1480610993575061099382611c8b565b92915050565b6109a1611cc0565b6109ac823383611d06565b5050565b6109b8611cc0565b6109c0611dde565b336109e16109d3368490038401846143d8565b826109dc61137b565b611e7f565b6109eb6003611882565b60405163c7c4fea960e01b81526001600160a01b03919091169063c7c4fea990610a1f906000908635908690600401614479565b600060405180830381600087803b158015610a3957600080fd5b505af1158015610a4d573d6000803e3d6000fd5b505050505050565b6060610a5f611dde565b336000610a6a61137b565b90506000846001600160401b03811115610a8657610a866142ca565b604051908082528060200260200182016040528015610aaf578160200160208202803683370190505b5093506000610abe6003611882565b905060005b86811015610d8757878782818110610add57610add6144a6565b905060200201359250816001600160a01b031663c7c4fea9600285886040518463ffffffff1660e01b8152600401610b1793929190614479565b600060405180830381600087803b158015610b3157600080fd5b505af1158015610b45573d6000803e3d6000fd5b50505050610b5283611a64565b15610b80576001868281518110610b6b57610b6b6144a6565b91151560209283029190910190910152610d7f565b600083815260706020908152604080832060718352818420825160a081019093528054835260018082015492959491929184019160ff1690811115610bc757610bc7613ce1565b6001811115610bd857610bd8613ce1565b8152604080516060808201835260028501546001600160a01b039081168352600386015481166020848101919091526004870154848601528086019390935283518083018552600587015482168152600687015490911692810192909252600785015482840152828401919091528151808201909252600884018054919093019290829060ff166001811115610c7057610c70613ce1565b6001811115610c8157610c81613ce1565b81526001820154602082015260029091015460409091015290525090506000610ca982612120565b90506000610cb9848a8a856121ea565b90506001816004811115610ccf57610ccf613ce1565b03610d7a57835460ff19166002908117855560405163114fc47560e11b81526001600160a01b0388169163229f88ea91610d0e91908b906004016144bc565b600060405180830381600087803b158015610d2857600080fd5b505af1158015610d3c573d6000803e3d6000fd5b505050507f62520d049932cdee872e9b3c59c0f6073637147e5e9bc8b050b062430eaf5c9f8284604051610d719291906144d7565b60405180910390a15b505050505b600101610ac3565b505050505092915050565b6000828152606b6020526040902060010154610dad8161221b565b610db78383612228565b505050565b603754600390610100900460ff16158015610dde575060375460ff8083169116105b610e035760405162461bcd60e51b8152600401610dfa90614538565b60405180910390fd5b6037805461ffff191660ff831617610100179055610e22600b8361224a565b6037805461ff001916905560405160ff821681527f7f26b83ff96e1f2b6a682f133852f6798a09c465da95921460cefb3847402498906020015b60405180910390a15050565b6001600160a01b0381163314610ed85760405162461bcd60e51b815260206004820152602f60248201527f416363657373436f6e74726f6c3a2063616e206f6e6c792072656e6f756e636560448201526e103937b632b9903337b91039b2b63360891b6064820152608401610dfa565b6109ac82826122ee565b60008281526070602090815260408083206001600160a01b038516845260020190915281205415155b9392505050565b610f1a612310565b600580546001600160a01b0319166001600160a01b0392909216919091179055565b610f4461236a565b610f4c6123d9565b565b610f56611cc0565b610f5f81611a64565b15610f7d576040516327ddf84960e11b815260040160405180910390fd5b6000818152607160209081526040808320815160a0810190925280548252600180820154929391929184019160ff1690811115610fbc57610fbc613ce1565b6001811115610fcd57610fcd613ce1565b8152604080516060808201835260028501546001600160a01b039081168352600386015481166020848101919091526004870154848601528086019390935283518083018552600587015482168152600687015490911692810192909252600785015482840152828401919091528151808201909252600884018054919093019290829060ff16600181111561106557611065613ce1565b600181111561107657611076613ce1565b8152600182015460208201526002909101546040918201529152606083015101519192505046146110e0576060810151604090810151905163092048d160e11b81526001600160e01b03196000351660048201526024810191909152466044820152606401610dfa565b7f04e8cbd836dea43a2dc7eb19de345cca3a8e6978a2ef5225d924775500f67c7c61110a82612120565b82604051610e5c9291906144d7565b611121611cc0565b6000829003611143576040516316ee9d3b60e11b815260040160405180910390fd5b60005b8281101561117857611170848483818110611163576111636144a6565b905060a002013384611d06565b600101611146565b50505050565b603754600290610100900460ff161580156111a0575060375460ff8083169116105b6111bc5760405162461bcd60e51b8152600401610dfa90614538565b6037805461ffff191660ff8316176101001790556074546111e8906008906001600160a01b031661224a565b607554611200906003906001600160a01b031661224a565b60775461121890600a906001600160a01b031661224a565b607480546001600160a01b031990811690915560758054821690556077805490911690556037805461ff001916905560405160ff821681527f7f26b83ff96e1f2b6a682f133852f6798a09c465da95921460cefb38474024989060200160405180910390a150565b604080518082018252600080825260208083018290526001600160a01b038616825260738152838220858352905282902082518084019093528054919291829060ff1660018111156112d4576112d4613ce1565b60018111156112e5576112e5613ce1565b815290546001600160a01b036101009091048116602092830152908201519192501661099357604051631b79f53b60e21b815260040160405180910390fd5b61132c612310565b600083900361134e576040516316ee9d3b60e11b815260040160405180910390fd5b6111788484848461242b565b600080611365612310565b61136f848461250e565b915091505b9250929050565b600061138d611388612599565b612606565b905090565b607160209081526000918252604091829020805460018083015485516060808201885260028601546001600160a01b03908116835260038701548116838901526004870154838a015288518083018a526005880154821681526006880154909116978101979097526007860154878901528751908101909752600885018054949760ff93841697929692959294909391928492169081111561143657611436613ce1565b600181111561144757611447613ce1565b815260200160018201548152602001600282015481525050905085565b61146c61236a565b610f4c61263c565b61147c612310565b61148581612679565b6109ac828261224a565b6000828152606c60205260408120610f0b90836126af565b6000918252606b602090815260408084206001600160a01b0393909316845291905290205460ff1690565b603754610100900460ff16158080156114f25750603754600160ff909116105b8061150c5750303b15801561150c575060375460ff166001145b6115285760405162461bcd60e51b8152600401610dfa90614538565b6037805460ff19166001179055801561154b576037805461ff0019166101001790555b61155660008d6126bb565b6115608b8b6126c5565b505061156c898961250e565b506000905061157b8680614586565b905011156115cd576115ae6115908680614586565b61159d6020890189614586565b6115a78980614586565b8989612751565b6115cd6115bb8680614586565b6115c86020880188614586565b61242b565b8015611613576037805461ff0019169055604051600181527f7f26b83ff96e1f2b6a682f133852f6798a09c465da95921460cefb38474024989060200160405180910390a15b505050505050505050505050565b606061162b611cc0565b611633611dde565b3361163c613a8d565b836001600160401b03811115611654576116546142ca565b60405190808252806020026020018201604052801561167d578160200160208202803683370190505b509250600061168a61137b565b905060006116986003611882565b905060005b86811015610d87578787828181106116b7576116b76144a6565b905061016002018036038101906116ce91906143d8565b805160405163c7c4fea960e01b81529195506001600160a01b0384169163c7c4fea99161170391600091908a90600401614479565b600060405180830381600087803b15801561171d57600080fd5b505af1158015611731573d6000803e3d6000fd5b506002925061173e915050565b6040808601518101516000908152606f6020908152828220885183529052205460ff16600481111561177257611772613ce1565b036117a057600186828151811061178b5761178b6144a6565b911515602092830291909101909101526117ab565b6117ab848685611e7f565b60010161169d565b6000806117be612310565b61136f84846126c5565b6000818152606c602052604081206109939061295a565b6000828152606b60205260409020600101546117fa8161221b565b610db783836122ee565b600061180e612599565b60015461181b91906145e5565b60025461182890846145e5565b101592915050565b611838612310565b6000879003611868576000356001600160e01b0319166040516306b5667560e21b8152600401610dfa91906145fc565b6118788888888888888888612751565b5050505050505050565b60007fdea3103d22025c269050bea94c0c84688877f12fa22b7e6d2d5d78a9a49aa1cb600083600f8111156118b9576118b9613ce1565b60ff1681526020810191909152604001600020546001600160a01b03169050806118f8578160405163409140df60e11b8152600401610dfa9190614611565b919050565b6060816001600160401b03811115611917576119176142ca565b60405190808252806020026020018201604052801561194a57816020015b60608152602001906001900390816119355790505b50905060005b82811015611a5c57600085815260726020526040812090858584818110611979576119796144a6565b905060200201602081019061198e9190613ca2565b6001600160a01b03166001600160a01b0316815260200190815260200160002080546119b99061462b565b80601f01602080910402602001604051908101604052809291908181526020018280546119e59061462b565b8015611a325780601f10611a0757610100808354040283529160200191611a32565b820191906000526020600020905b815481529060010190602001808311611a1557829003601f168201915b5050505050828281518110611a4957611a496144a6565b6020908102919091010152600101611950565b509392505050565b6000600260008381526070602052604090205460ff166004811115611a8b57611a8b613ce1565b1492915050565b611a9a611cc0565b611aa2611dde565b338315801590611ab157508382145b611adc576000356001600160e01b0319166040516306b5667560e21b8152600401610dfa91906145fc565b6000611ae661137b565b9050600080611af56003611882565b905060005b87811015611c8057888882818110611b1457611b146144a6565b905060200201359250868682818110611b2f57611b2f6144a6565b9050602002810190611b41919061465f565b60008581526072602090815260408083206001600160a01b038b168452909152902091611b6f9190836146eb565b5060405163c7c4fea960e01b81526001600160a01b0383169063c7c4fea990611ba19060019087908a90600401614479565b600060405180830381600087803b158015611bbb57600080fd5b505af1158015611bcf573d6000803e3d6000fd5b50505060008481526076602052604081209150611bee828888886121ea565b90506001816004811115611c0457611c04613ce1565b03611c7657815460ff1916600217825560405163114fc47560e11b81526001600160a01b0385169063229f88ea90611c439060019089906004016144bc565b600060405180830381600087803b158015611c5d57600080fd5b505af1158015611c71573d6000803e3d6000fd5b505050505b5050600101611afa565b505050505050505050565b60006001600160e01b03198216637965db0b60e01b148061099357506301ffc9a760e01b6001600160e01b0319831614610993565b60005460ff1615610f4c5760405162461bcd60e51b815260206004820152601060248201526f14185d5cd8589b194e881c185d5cd95960821b6044820152606401610dfa565b611d20611d1b368590038501604086016147aa565b612964565b611d29836129df565b6000611d44611d3e6040860160208701613ca2565b83611280565b80519091506001811115611d5a57611d5a613ce1565b611d6a60608601604087016147c6565b6001811115611d7b57611d7b613ce1565b14611d985760405162035e2b60ea1b815260040160405180910390fd5b611dc78330611dad6040880160208901613ca2565b611dbf36899003890160408a016147aa565b929190612a5d565b611dd78483858460200151612c5c565b5050505050565b611de8600b611882565b604051635a02d57960e11b81523360048201526001600160a01b03919091169063b405aaf290602401602060405180830381865afa158015611e2e573d6000803e3d6000fd5b505050506040513d601f19601f82011682018060405250810190611e5291906147e3565b610f4c576000356001600160e01b0319166006604051620f948f60ea1b8152600401610dfa929190614805565b82516080840151611e8f90612964565b600084602001516001811115611ea757611ea7613ce1565b14611ec55760405163182f3d8760e11b815260040160405180910390fd5b4684606001516040015114611f13576060840151604090810151905163092048d160e11b81526001600160e01b03196000351660048201526024810191909152466044820152606401610dfa565b6000611f2f856060015160200151866040015160400151611280565b6080860151519091506001811115611f4957611f49613ce1565b81516001811115611f5c57611f5c613ce1565b148015611f8657508460400151602001516001600160a01b031681602001516001600160a01b0316145b611fa35760405163f4b8742f60e01b815260040160405180910390fd5b6040808601518101516000908152606f6020908152828220858352905290812090611fcd87612120565b90506000611fdd838888856121ea565b905087604001516040015185886001600160a01b03167f48c4262ed68beb92fe5d7d48d70772e49cd50c317937dea60a99f15f794b64598560405161202491815260200190565b60405180910390a4600181600481111561204057612040613ce1565b0361187857825460ff191660021783556060880151805160209091015160808a015161206f9290916000612de6565b6120796003611882565b885160405163114fc47560e11b81526001600160a01b03929092169163229f88ea916120ab91600091906004016144bc565b600060405180830381600087803b1580156120c557600080fd5b505af11580156120d9573d6000803e3d6000fd5b505050507f8d20d8121a34dded9035ff5b43e901c142824f7a22126392992c353c37890524828960405161210e9291906144d7565b60405180910390a15050505050505050565b6000806121308360400151613102565b905060006121418460600151613102565b905060006121958560800151604080517f1e2b74b2a792d5c0f0b6e59b037fa9d43d84fbb759337f0112fcc15ca414fc8d815282516020808301919091528301518183015291015160608201526080902090565b604080517fb9d1fe7c9deeec5dc90a2f47ff1684239519f2545b2228d3d91fb27df3189eea815287516020808301919091529097015190870152606086019390935250608084015260a08301525060c0902090565b60006121f785858461314a565b60006122038684613200565b90506122118685838661330e565b9695505050505050565b612225813361335a565b50565b61223282826133be565b6000828152606c60205260409020610db79082613444565b807fdea3103d22025c269050bea94c0c84688877f12fa22b7e6d2d5d78a9a49aa1cb600084600f81111561228057612280613ce1565b60ff168152602081019190915260400160002080546001600160a01b0319166001600160a01b03928316179055811682600f8111156122c1576122c1613ce1565b6040517f865d1c228a8ea13709cfe61f346f7ff67f1bbd4a18ff31ad3e7147350d317c5990600090a35050565b6122f88282613459565b6000828152606c60205260409020610db790826134c0565b7fb53127684a568b3173ae13b9f8a6016e243e63b6e8ee1178d6a717850b5d6103546001600160a01b03163314610f4c576000356001600160e01b0319166001604051620f948f60ea1b8152600401610dfa929190614805565b7fb53127684a568b3173ae13b9f8a6016e243e63b6e8ee1178d6a717850b5d6103546001600160a01b03163314806123ac57506005546001600160a01b031633145b610f4c576000356001600160e01b0319166001604051620f948f60ea1b8152600401610dfa929190614805565b6123e16134d5565b6000805460ff191690557f5db9ee0a495bf2e6ff9c91a7834c1ba4fdd244a5e8aa4e537bd38aeae4b073aa335b6040516001600160a01b03909116815260200160405180910390a1565b828114612459576000356001600160e01b0319166040516306b5667560e21b8152600401610dfa91906145fc565b60005b838110156124ca57828282818110612476576124766144a6565b9050602002013560386000878785818110612493576124936144a6565b90506020020160208101906124a89190613ca2565b6001600160a01b0316815260208101919091526040016000205560010161245c565b507f6f52f53a938df83439fa4c6055c7df0a6906d621aa6dfa4708187037fdfc41da8484848460405161250094939291906148a1565b60405180910390a150505050565b600080828411156125325760405163964a4d2760e01b815260040160405180910390fd5b505060018054600254607885905560798490556004805493840190556040805183815260208101839052929391928592879290917feac82d4d949d2d4f77f96aa68ab6b1bb750da73f14e55d41a1b93f387471ecba91015b60405180910390a49250929050565b60006125a5600b611882565b6001600160a01b03166306aba0e16040518163ffffffff1660e01b8152600401602060405180830381865afa1580156125e2573d6000803e3d6000fd5b505050506040513d601f19601f8201168201806040525081019061138d91906148d3565b600060025460016002548460015461261e91906145e5565b61262891906148ec565b61263291906148ff565b6109939190614912565b612644611cc0565b6000805460ff191660011790557f62e78cea01bee320cd4e420270b5ea74000d11b0c9f74754ebdbfc544b05a25861240e3390565b806001600160a01b03163b60000361222557604051630bfc64a360e21b81526001600160a01b0382166004820152602401610dfa565b6000610f0b838361351e565b6109ac8282612228565b600080828411156126f7576000356001600160e01b0319166040516387f6f09560e01b8152600401610dfa91906145fc565b50506001805460028054858455908490556004805493840190556040805183815260208101839052929391928592879290917f976f8a9c5bdf8248dec172376d6e2b80a8e3df2f0328e381c6db8e1cf138c0f8910161258a565b868514801561275f57508683145b61278a576000356001600160e01b0319166040516306b5667560e21b8152600401610dfa91906145fc565b60005b8781101561291c578686828181106127a7576127a76144a6565b90506020020160208101906127bc9190613ca2565b607360008b8b858181106127d2576127d26144a6565b90506020020160208101906127e79190613ca2565b6001600160a01b03166001600160a01b03168152602001908152602001600020600087878581811061281b5761281b6144a6565b90506020020135815260200190815260200160002060000160016101000a8154816001600160a01b0302191690836001600160a01b03160217905550828282818110612869576128696144a6565b905060200201602081019061287e91906147c6565b607360008b8b85818110612894576128946144a6565b90506020020160208101906128a99190613ca2565b6001600160a01b03166001600160a01b0316815260200190815260200160002060008787858181106128dd576128dd6144a6565b60209081029290920135835250810191909152604001600020805460ff19166001838181111561290f5761290f613ce1565b021790555060010161278d565b507f2544bff60c6d5b84946e06804af9f84e150bbee85238dbdee79efca4e0adf401888888888888888860405161210e989796959493929190614934565b6000610993825490565b60008151600181111561297957612979613ce1565b14801561298a575060008160400151115b801561299857506020810151155b806129c257506001815160018111156129b3576129b3613ce1565b1480156129c257506040810151155b6122255760405163034992a760e51b815260040160405180910390fd5b60006129f160608301604084016147c6565b6001811115612a0257612a02613ce1565b148015612a3f575060386000612a1e6040840160208501613ca2565b6001600160a01b031681526020810191909152604001600020546080820135105b1561222557604051636eff4a8560e11b815260040160405180910390fd5b600060608186516001811115612a7557612a75613ce1565b03612b525760408681015181516001600160a01b038881166024830152878116604483015260648083019390935283518083039093018352608490910183526020820180516001600160e01b03166323b872dd60e01b179052915191851691612ade91906149c3565b6000604051808303816000865af19150503d8060008114612b1b576040519150601f19603f3d011682016040523d82523d6000602084013e612b20565b606091505b509092509050818015612b4b575080511580612b4b575080806020019051810190612b4b91906147e3565b9150612c36565b600186516001811115612b6757612b67613ce1565b03612c1d57602086810151604080516001600160a01b0389811660248301528881166044830152606480830194909452825180830390940184526084909101825292820180516001600160e01b03166323b872dd60e01b1790525191851691612bd091906149c3565b6000604051808303816000865af19150503d8060008114612c0d576040519150601f19603f3d011682016040523d82523d6000602084013e612c12565b606091505b505080925050612c36565b6040516361e411a760e11b815260040160405180910390fd5b81610a4d5785858585604051639d2e4c6760e01b8152600401610dfa94939291906149df565b606e805460009182612c6d83614a15565b9091555090506000612c9484838588612c8b368c90038c018c614a2e565b93929190613548565b60008381526071602090815260409091208251815590820151600180830180549495508594909160ff19909116908381811115612cd357612cd3613ce1565b021790555060408281015180516002840180546001600160a01b039283166001600160a01b03199182161790915560208084015160038701805491851691841691909117905592840151600486015560608601518051600587018054918516918416919091179055928301516006860180549190931691161790550151600782015560808201518051600883018054909190829060ff191660018381811115612d7e57612d7e613ce1565b0217905550602082015181600101556040820151816002015550509050507ff313c253a5be72c29d0deb2c8768a9543744ac03d6b3cafd50cc976f1c2632fc612dc682612120565b82604051612dd59291906144d7565b60405180910390a150949350505050565b6000816001600160a01b0316836001600160a01b031603612e955760408086015190516001600160a01b0386169180156108fc02916000818181858888f19350505050612e9057816001600160a01b031663d0e30db086604001516040518263ffffffff1660e01b81526004016000604051808303818588803b158015612e6c57600080fd5b505af1158015612e80573d6000803e3d6000fd5b5050505050612e908585856135b4565b611dd7565b600085516001811115612eaa57612eaa613ce1565b03613013576040516370a0823160e01b81523060048201526000906001600160a01b038516906370a0823190602401602060405180830381865afa158015612ef6573d6000803e3d6000fd5b505050506040513d601f19601f82011682018060405250810190612f1a91906148d3565b9050856040015181101561300257836001600160a01b03166340c10f1930838960400151612f4891906148ff565b6040516001600160a01b03909216602483015260448201526064016040516020818303038152906040529060e01b6020820180516001600160e01b038381831617835250505050604051612f9c91906149c3565b6000604051808303816000865af19150503d8060008114612fd9576040519150601f19603f3d011682016040523d82523d6000602084013e612fde565b606091505b5050809250508161300257604051632f739fff60e11b815260040160405180910390fd5b61300d8686866135b4565b50611dd7565b60018551600181111561302857613028613ce1565b03612c1d5761303c83858760200151613632565b612e9057602085810151604080516001600160a01b038881166024830152604480830194909452825180830390940184526064909101825292820180516001600160e01b03166340c10f1960e01b179052519185169161309c91906149c3565b6000604051808303816000865af19150503d80600081146130d9576040519150601f19603f3d011682016040523d82523d6000602084013e6130de565b606091505b50508091505080612e905760405163c8e3a09f60e01b815260040160405180910390fd5b604080517f353bdd8d69b9e3185b3972e08b03845c0c14a21a390215302776a7a34b0e8764815282516020808301919091528301518183015291015160608201526080902090565b60008360030154118015613162575042836003015411155b1561317357825460ff191660041783555b6001600160a01b0382166000908152600284016020526040902054156131b75760405163025fd59560e41b81526001600160a01b0383166004820152602401610dfa565b6001600160a01b039091166000818152600284016020908152604082209390935560059093018054600181018255908452919092200180546001600160a01b0319169091179055565b600080600061320f600b611882565b6001600160a01b031663c441c4a86040518163ffffffff1660e01b8152600401600060405180830381865afa15801561324c573d6000803e3d6000fd5b505050506040513d6000823e601f3d908101601f191682016040526132749190810190614b18565b81519194509250905060005b8181101561330457858760020160008684815181106132a1576132a16144a6565b60200260200101516001600160a01b03166001600160a01b0316815260200190815260200160002054036132fc578281815181106132e1576132e16144a6565b60200260200101516bffffffffffffffffffffffff16850194505b600101613280565b5050505092915050565b600083831015801561333557506000855460ff16600481111561333357613333613ce1565b145b1561334d57845460ff19166001908117865585018290555b5050915460ff1692915050565b61336482826114a7565b6109ac5761337c816001600160a01b031660146136dd565b6133878360206136dd565b604051602001613398929190614c10565b60408051601f198184030181529082905262461bcd60e51b8252610dfa91600401614c85565b6133c882826114a7565b6109ac576000828152606b602090815260408083206001600160a01b03851684529091529020805460ff191660011790556134003390565b6001600160a01b0316816001600160a01b0316837f2f8788117e7eff1d82e926ec794901d17c78024a50270940304540a733656f0d60405160405180910390a45050565b6000610f0b836001600160a01b038416613878565b61346382826114a7565b156109ac576000828152606b602090815260408083206001600160a01b0385168085529252808320805460ff1916905551339285917ff6391f5c32d9c69d2a47ea670b442974b53935d1edc7fd64eb21e047a839171b9190a45050565b6000610f0b836001600160a01b0384166138c7565b60005460ff16610f4c5760405162461bcd60e51b815260206004820152601460248201527314185d5cd8589b194e881b9bdd081c185d5cd95960621b6044820152606401610dfa565b6000826000018281548110613535576135356144a6565b9060005260206000200154905092915050565b613550613a8d565b92835260016020808501919091526060840180516001600160a01b0396871690528682015181519087169083015251466040918201528651818601805191881690915280519490961693909101929092529251810192909252910151608082015290565b600080845160018111156135ca576135ca613ce1565b036135e5576135de828486604001516139ba565b905061360e565b6001845160018111156135fa576135fa613ce1565b03612c1d576135de82848660200151613632565b80611178578383836040516341bd7d9160e11b8152600401610dfa93929190614c98565b604080513060248201526001600160a01b038481166044830152606480830185905283518084039091018152608490920183526020820180516001600160e01b03166323b872dd60e01b1790529151600092861691613690916149c3565b6000604051808303816000865af19150503d80600081146136cd576040519150601f19603f3d011682016040523d82523d6000602084013e6136d2565b606091505b509095945050505050565b606060006136ec8360026145e5565b6136f79060026148ec565b6001600160401b0381111561370e5761370e6142ca565b6040519080825280601f01601f191660200182016040528015613738576020820181803683370190505b509050600360fc1b81600081518110613753576137536144a6565b60200101906001600160f81b031916908160001a905350600f60fb1b81600181518110613782576137826144a6565b60200101906001600160f81b031916908160001a90535060006137a68460026145e5565b6137b19060016148ec565b90505b6001811115613829576f181899199a1a9b1b9c1cb0b131b232b360811b85600f16601081106137e5576137e56144a6565b1a60f81b8282815181106137fb576137fb6144a6565b60200101906001600160f81b031916908160001a90535060049490941c9361382281614cc8565b90506137b4565b508315610f0b5760405162461bcd60e51b815260206004820181905260248201527f537472696e67733a20686578206c656e67746820696e73756666696369656e746044820152606401610dfa565b60008181526001830160205260408120546138bf57508154600181810184556000848152602080822090930184905584548482528286019093526040902091909155610993565b506000610993565b600081815260018301602052604081205480156139b05760006138eb6001836148ff565b85549091506000906138ff906001906148ff565b905081811461396457600086600001828154811061391f5761391f6144a6565b9060005260206000200154905080876000018481548110613942576139426144a6565b6000918252602080832090910192909255918252600188019052604090208390555b855486908061397557613975614cdf565b600190038181906000526020600020016000905590558560010160008681526020019081526020016000206000905560019350505050610993565b6000915050610993565b604080516001600160a01b038481166024830152604480830185905283518084039091018152606490920183526020820180516001600160e01b031663a9059cbb60e01b179052915160009260609290871691613a1791906149c3565b6000604051808303816000865af19150503d8060008114613a54576040519150601f19603f3d011682016040523d82523d6000602084013e613a59565b606091505b509092509050818015613a84575080511580613a84575080806020019051810190613a8491906147e3565b95945050505050565b6040805160a08101825260008082526020808301829052835160608082018652838252818301849052818601849052848601919091528451808201865283815280830184905280860184905281850152845190810185528281529081018290529283015290608082015290565b600060208284031215613b0c57600080fd5b81356001600160e01b031981168114610f0b57600080fd5b60008082840360c0811215613b3857600080fd5b60a0811215613b4657600080fd5b50919360a08501359350915050565b60006101608284031215613b6857600080fd5b50919050565b60008083601f840112613b8057600080fd5b5081356001600160401b03811115613b9757600080fd5b6020830191508360208260051b850101111561137457600080fd5b60008060208385031215613bc557600080fd5b82356001600160401b03811115613bdb57600080fd5b613be785828601613b6e565b90969095509350505050565b6020808252825182820181905260009190848201906040850190845b81811015613c2d578351151583529284019291840191600101613c0f565b50909695505050505050565b600060208284031215613c4b57600080fd5b5035919050565b6001600160a01b038116811461222557600080fd5b80356118f881613c52565b60008060408385031215613c8557600080fd5b823591506020830135613c9781613c52565b809150509250929050565b600060208284031215613cb457600080fd5b8135610f0b81613c52565b60008060408385031215613cd257600080fd5b50508035926020909101359150565b634e487b7160e01b600052602160045260246000fd5b6080810160058610613d0b57613d0b613ce1565b9481526020810193909352604083019190915260609091015290565b600080600060408486031215613d3c57600080fd5b83356001600160401b0380821115613d5357600080fd5b818601915086601f830112613d6757600080fd5b813581811115613d7657600080fd5b87602060a083028501011115613d8b57600080fd5b6020928301989097509590910135949350505050565b60008060408385031215613db457600080fd5b8235613dbf81613c52565b946020939093013593505050565b6002811061222557612225613ce1565b81516040820190613ded81613dcd565b82526020928301516001600160a01b0316929091019190915290565b60008060008060408587031215613e1f57600080fd5b84356001600160401b0380821115613e3657600080fd5b613e4288838901613b6e565b90965094506020870135915080821115613e5b57600080fd5b50613e6887828801613b6e565b95989497509550505050565b80516001600160a01b03908116835260208083015190911690830152604090810151910152565b8051613ea681613dcd565b825260208181015190830152604090810151910152565b8581526101608101613ece86613dcd565b856020830152613ee16040830186613e74565b613eee60a0830185613e74565b612211610100830184613e9b565b8035601081106118f857600080fd5b60008060408385031215613f1e57600080fd5b613f2783613efc565b91506020830135613c9781613c52565b806040810183101561099357600080fd5b60008060008060008060008060008060006101208c8e031215613f6a57600080fd5b613f738c613c67565b9a5060208c0135995060408c0135985060608c0135975060808c013596506001600160401b038060a08e01351115613faa57600080fd5b613fba8e60a08f01358f01613b6e565b909750955060c08d0135811015613fd057600080fd5b613fe08e60c08f01358f01613f37565b94508060e08e01351115613ff357600080fd5b6140038e60e08f01358f01613f37565b9350806101008e0135111561401757600080fd5b506140298d6101008e01358e01613b6e565b81935080925050509295989b509295989b9093969950565b6000806020838503121561405457600080fd5b82356001600160401b038082111561406b57600080fd5b818501915085601f83011261407f57600080fd5b81358181111561408e57600080fd5b866020610160830285010111156140a457600080fd5b60209290920196919550909350505050565b6000806000806000806000806080898b0312156140d257600080fd5b88356001600160401b03808211156140e957600080fd5b6140f58c838d01613b6e565b909a50985060208b013591508082111561410e57600080fd5b61411a8c838d01613b6e565b909850965060408b013591508082111561413357600080fd5b61413f8c838d01613b6e565b909650945060608b013591508082111561415857600080fd5b506141658b828c01613b6e565b999c989b5096995094979396929594505050565b60006020828403121561418b57600080fd5b610f0b82613efc565b6000806000604084860312156141a957600080fd5b8335925060208401356001600160401b038111156141c657600080fd5b6141d286828701613b6e565b9497909650939450505050565b60005b838110156141fa5781810151838201526020016141e2565b50506000910152565b6000815180845261421b8160208601602086016141df565b601f01601f19169290920160200192915050565b6000602080830181845280855180835260408601915060408160051b870101925083870160005b8281101561428457603f19888603018452614272858351614203565b94509285019290850190600101614256565b5092979650505050505050565b6000806000606084860312156142a657600080fd5b833592506020840135915060408401356142bf81613c52565b809150509250925092565b634e487b7160e01b600052604160045260246000fd5b604051606081016001600160401b0381118282101715614302576143026142ca565b60405290565b604051601f8201601f191681016001600160401b0381118282101715614330576143306142ca565b604052919050565b6002811061222557600080fd5b60006060828403121561435757600080fd5b61435f6142e0565b9050813561436c81613c52565b8152602082013561437c81613c52565b806020830152506040820135604082015292915050565b6000606082840312156143a557600080fd5b6143ad6142e0565b905081356143ba81614338565b80825250602082013560208201526040820135604082015292915050565b600061016082840312156143eb57600080fd5b60405160a081018181106001600160401b038211171561440d5761440d6142ca565b60405282358152602083013561442281614338565b60208201526144348460408501614345565b60408201526144468460a08501614345565b6060820152614459846101008501614393565b60808201529392505050565b6003811061447557614475613ce1565b9052565b606081016144878286614465565b60208201939093526001600160a01b0391909116604090910152919050565b634e487b7160e01b600052603260045260246000fd5b604081016144ca8285614465565b8260208301529392505050565b6000610180820190508382528251602083015260208301516144f881613dcd565b8060408401525060408301516145116060840182613e74565b50606083015161452460c0840182613e74565b506080830151611a5c610120840182613e9b565b6020808252602e908201527f496e697469616c697a61626c653a20636f6e747261637420697320616c72656160408201526d191e481a5b9a5d1a585b1a5e995960921b606082015260800190565b6000808335601e1984360301811261459d57600080fd5b8301803591506001600160401b038211156145b757600080fd5b6020019150600581901b360382131561137457600080fd5b634e487b7160e01b600052601160045260246000fd5b8082028115828204841417610993576109936145cf565b6001600160e01b031991909116815260200190565b602081016010831061462557614625613ce1565b91905290565b600181811c9082168061463f57607f821691505b602082108103613b6857634e487b7160e01b600052602260045260246000fd5b6000808335601e1984360301811261467657600080fd5b8301803591506001600160401b0382111561469057600080fd5b60200191503681900382131561137457600080fd5b601f821115610db757600081815260208120601f850160051c810160208610156146cc5750805b601f850160051c820191505b81811015610a4d578281556001016146d8565b6001600160401b03831115614702576147026142ca565b61471683614710835461462b565b836146a5565b6000601f84116001811461474a57600085156147325750838201355b600019600387901b1c1916600186901b178355611dd7565b600083815260209020601f19861690835b8281101561477b578685013582556020948501946001909201910161475b565b50868210156147985760001960f88860031b161c19848701351681555b505060018560011b0183555050505050565b6000606082840312156147bc57600080fd5b610f0b8383614393565b6000602082840312156147d857600080fd5b8135610f0b81614338565b6000602082840312156147f557600080fd5b81518015158114610f0b57600080fd5b6001600160e01b03198316815260408101600b83106144ca576144ca613ce1565b8183526000602080850194508260005b8581101561486457813561484981613c52565b6001600160a01b031687529582019590820190600101614836565b509495945050505050565b81835260006001600160fb1b0383111561488857600080fd5b8260051b80836020870137939093016020019392505050565b6040815260006148b5604083018688614826565b82810360208401526148c881858761486f565b979650505050505050565b6000602082840312156148e557600080fd5b5051919050565b80820180821115610993576109936145cf565b81810381811115610993576109936145cf565b60008261492f57634e487b7160e01b600052601260045260246000fd5b500490565b608081526000614948608083018a8c614826565b60208382038185015261495c828a8c614826565b9150838203604085015261497182888a61486f565b8481036060860152858152869250810160005b868110156149b257833561499781614338565b6149a081613dcd565b82529282019290820190600101614984565b509c9b505050505050505050505050565b600082516149d58184602087016141df565b9190910192915050565b60c081016149ed8287613e9b565b6001600160a01b0394851660608301529284166080820152921660a090920191909152919050565b600060018201614a2757614a276145cf565b5060010190565b600060a08284031215614a4057600080fd5b614a486142e0565b8235614a5381613c52565b81526020830135614a6381613c52565b6020820152614a758460408501614393565b60408201529392505050565b60006001600160401b03821115614a9a57614a9a6142ca565b5060051b60200190565b600082601f830112614ab557600080fd5b81516020614aca614ac583614a81565b614308565b82815260059290921b84018101918181019086841115614ae957600080fd5b8286015b84811015614b0d578051614b0081613c52565b8352918301918301614aed565b509695505050505050565b600080600060608486031215614b2d57600080fd5b83516001600160401b0380821115614b4457600080fd5b614b5087838801614aa4565b9450602091508186015181811115614b6757600080fd5b614b7388828901614aa4565b945050604086015181811115614b8857600080fd5b86019050601f81018713614b9b57600080fd5b8051614ba9614ac582614a81565b81815260059190911b82018301908381019089831115614bc857600080fd5b928401925b82841015614c015783516bffffffffffffffffffffffff81168114614bf25760008081fd5b82529284019290840190614bcd565b80955050505050509250925092565b7f416363657373436f6e74726f6c3a206163636f756e7420000000000000000000815260008351614c488160178501602088016141df565b7001034b99036b4b9b9b4b733903937b6329607d1b6017918401918201528351614c798160288401602088016141df565b01602801949350505050565b602081526000610f0b6020830184614203565b60a08101614ca68286613e9b565b6001600160a01b03938416606083015291909216608090920191909152919050565b600081614cd757614cd76145cf565b506000190190565b634e487b7160e01b600052603160045260246000fdfea2646970667358221220ec5e4d67a54601fd535977c8db3ac6acad4decf9c225f2e4583ebaf312358ccc64736f6c63430008110033",
  "devdoc": {
    "errors": {
      "ErrAlreadyVoted(address)": [
        {
          "details": "Error indicating that a voter has already voted.",
          "params": {
            "voter": "The address of the voter who has already voted."
          }
        }
      ],
      "ErrContractTypeNotFound(uint8)": [
        {
          "details": "Error of invalid role."
        }
      ],
      "ErrERC20MintingFailed()": [
        {
          "details": "Error indicating that the minting of ERC20 tokens has failed."
        }
      ],
      "ErrERC721MintingFailed()": [
        {
          "details": "Error indicating that the minting of ERC721 tokens has failed."
        }
      ],
      "ErrEmptyArray()": [
        {
          "details": "Error indicating that an array is empty when it should contain elements."
        }
      ],
      "ErrInvalidChainId(bytes4,uint256,uint256)": [
        {
          "details": "Error indicating that the chain ID is invalid.",
          "params": {
            "actual": "Current chain ID that executing function.",
            "expected": "Expected chain ID required for the tx to success.",
            "msgSig": "The function signature (bytes4) of the operation that encountered an invalid chain ID."
          }
        }
      ],
      "ErrInvalidInfo()": [
        {
          "details": "Error indicating that the provided information is invalid."
        }
      ],
      "ErrInvalidReceipt()": [
        {
          "details": "Error indicating that a receipt is invalid."
        }
      ],
      "ErrInvalidReceiptKind()": [
        {
          "details": "Error indicating that a receipt kind is invalid."
        }
      ],
      "ErrInvalidRequest()": [
        {
          "details": "Error indicating that a request is invalid."
        }
      ],
      "ErrInvalidThreshold(bytes4)": [
        {
          "details": "Error indicating that the provided threshold is invalid for a specific function signature.",
          "params": {
            "msgSig": "The function signature (bytes4) that the invalid threshold applies to."
          }
        }
      ],
      "ErrInvalidTokenStandard()": [
        {
          "details": "Error indicating that a token standard is invalid."
        }
      ],
      "ErrInvalidTrustedThreshold()": [
        {
          "details": "Error thrown when an invalid trusted threshold is specified."
        }
      ],
      "ErrLengthMismatch(bytes4)": [
        {
          "details": "Error indicating a mismatch in the length of input parameters or arrays for a specific function.",
          "params": {
            "msgSig": "The function signature (bytes4) that has a length mismatch."
          }
        }
      ],
      "ErrQueryForTooSmallQuantity()": [
        {
          "details": "Throwed when the ERC20 withdrawal quantity is less than the minimum threshold."
        }
      ],
      "ErrTokenCouldNotTransfer((uint8,uint256,uint256),address,address)": [
        {
          "details": "Error indicating that the `transfer` has failed.",
          "params": {
            "to": "Receiver of the token value.",
            "token": "Address of the token.",
            "tokenInfo": "Info of the token including ERC standard, id or quantity."
          }
        }
      ],
      "ErrTokenCouldNotTransferFrom((uint8,uint256,uint256),address,address,address)": [
        {
          "details": "Error indicating that the `transferFrom` has failed.",
          "params": {
            "from": "Owner of the token value.",
            "to": "Receiver of the token value.",
            "token": "Address of the token.",
            "tokenInfo": "Info of the token including ERC standard, id or quantity."
          }
        }
      ],
      "ErrUnauthorized(bytes4,uint8)": [
        {
          "details": "Error indicating that the caller is unauthorized to perform a specific function.",
          "params": {
            "expectedRole": "The role required to perform the function.",
            "msgSig": "The function signature (bytes4) that the caller is unauthorized to perform."
          }
        }
      ],
      "ErrUnsupportedStandard()": [
        {
          "details": "Error indicating that an unsupported standard is encountered."
        }
      ],
      "ErrUnsupportedToken()": [
        {
          "details": "Error indicating that a token is not supported."
        }
      ],
      "ErrWithdrawalsMigrated()": [
        {
          "details": "Error thrown when attempting to withdraw funds that have already been migrated."
        }
      ],
      "ErrWithdrawnOnMainchainAlready()": [
        {
          "details": "Error thrown when attempting to withdraw funds that have already been withdrawn on the mainchain."
        }
      ],
      "ErrZeroCodeContract(address)": [
        {
          "details": "Error of set to non-contract."
        }
      ]
    },
    "kind": "dev",
    "methods": {
      "bulkRequestWithdrawalFor((address,address,(uint8,uint256,uint256))[],uint256)": {
        "details": "Bulk requests withdrawals. Emits the `WithdrawalRequested` events."
      },
      "bulkSubmitWithdrawalSignatures(uint256[],bytes[])": {
        "details": "Submits withdrawal signatures. Requirements: - The method caller is a validator."
      },
      "checkThreshold(uint256)": {
        "details": "Checks whether the `_voteWeight` passes the threshold."
      },
      "depositFor((uint256,uint8,(address,address,uint256),(address,address,uint256),(uint8,uint256,uint256)))": {
        "details": "Deposits based on the receipt. Requirements: - The method caller is a validator. Emits the `Deposited` once the assets are released."
      },
      "depositVoted(uint256,uint256,address)": {
        "details": "Returns whether the deposit is casted by the voter."
      },
      "getContract(uint8)": {
        "details": "Returns the address of a contract with a specific role. Throws an error if no contract is set for the specified role.",
        "params": {
          "contractType": "The role of the contract to retrieve."
        },
        "returns": {
          "contract_": "The address of the contract with the specified role."
        }
      },
      "getMainchainToken(address,uint256)": {
        "details": "Returns mainchain token address. Reverts for unsupported token."
      },
      "getRoleAdmin(bytes32)": {
        "details": "Returns the admin role that controls `role`. See {grantRole} and {revokeRole}. To change a role's admin, use {_setRoleAdmin}."
      },
      "getRoleMember(bytes32,uint256)": {
        "details": "Returns one of the accounts that have `role`. `index` must be a value between 0 and {getRoleMemberCount}, non-inclusive. Role bearers are not sorted in any particular way, and their ordering may change at any point. WARNING: When using {getRoleMember} and {getRoleMemberCount}, make sure you perform all queries on the same block. See the following https://forum.openzeppelin.com/t/iterating-over-elements-on-enumerableset-in-openzeppelin-contracts/2296[forum post] for more information."
      },
      "getRoleMemberCount(bytes32)": {
        "details": "Returns the number of accounts that have `role`. Can be used together with {getRoleMember} to enumerate all bearers of a role."
      },
      "getThreshold()": {
        "details": "Returns the threshold."
      },
      "getTrustedThreshold()": {
        "details": "Returns the threshold about trusted org."
      },
      "getWithdrawalSignatures(uint256,address[])": {
        "details": "Returns withdrawal signatures."
      },
      "grantRole(bytes32,address)": {
        "details": "Grants `role` to `account`. If `account` had not been already granted `role`, emits a {RoleGranted} event. Requirements: - the caller must have ``role``'s admin role. May emit a {RoleGranted} event."
      },
      "hasRole(bytes32,address)": {
        "details": "Returns `true` if `account` has been granted `role`."
      },
      "initialize(address,uint256,uint256,uint256,uint256,address[],address[][2],uint256[][2],uint8[])": {
        "details": "Initializes contract storage."
      },
      "mainchainWithdrew(uint256)": {
        "details": "Returns whether the withdrawal is done on mainchain."
      },
      "mainchainWithdrewVoted(uint256,address)": {
        "details": "Returns whether the mainchain withdrew is casted by the voter."
      },
      "mapTokens(address[],address[],uint256[],uint8[])": {
        "details": "Maps Ronin tokens to mainchain networks. Requirement: - The method caller is admin. - The arrays have the same length and its length larger than 0. Emits the `TokenMapped` event."
      },
      "minimumVoteWeight()": {
        "details": "Returns the minimum vote weight to pass the threshold."
      },
      "pause()": {
        "details": "Triggers paused state."
      },
      "paused()": {
        "details": "Returns true if the contract is paused, and false otherwise."
      },
      "renounceRole(bytes32,address)": {
        "details": "Revokes `role` from the calling account. Roles are often managed via {grantRole} and {revokeRole}: this function's purpose is to provide a mechanism for accounts to lose their privileges if they are compromised (such as when a trusted device is misplaced). If the calling account had been revoked `role`, emits a {RoleRevoked} event. Requirements: - the caller must be `account`. May emit a {RoleRevoked} event."
      },
      "requestWithdrawalFor((address,address,(uint8,uint256,uint256)),uint256)": {
        "details": "Locks the assets and request withdrawal. Emits the `WithdrawalRequested` event."
      },
      "requestWithdrawalSignatures(uint256)": {
        "details": "Requests withdrawal signatures for a specific withdrawal. Emits the `WithdrawalSignaturesRequested` event."
      },
      "revokeRole(bytes32,address)": {
        "details": "Revokes `role` from `account`. If `account` had been granted `role`, emits a {RoleRevoked} event. Requirements: - the caller must have ``role``'s admin role. May emit a {RoleRevoked} event."
      },
      "setContract(uint8,address)": {
        "details": "Sets the address of a contract with a specific role. Emits the event {ContractUpdated}.",
        "params": {
          "addr": "The address of the contract to set.",
          "contractType": "The role of the contract to set."
        }
      },
      "setEmergencyPauser(address)": {
        "details": "Grant emergency pauser role for `_addr`."
      },
      "setMinimumThresholds(address[],uint256[])": {
        "details": "Sets the minimum thresholds to withdraw. Requirements: - The method caller is admin. - The arrays have the same length and its length larger than 0. Emits the `MinimumThresholdsUpdated` event."
      },
      "setThreshold(uint256,uint256)": {
        "details": "Sets the threshold. Requirements: - The method caller is admin. Emits the `ThresholdUpdated` event."
      },
      "supportsInterface(bytes4)": {
        "details": "See {IERC165-supportsInterface}."
      },
      "tryBulkAcknowledgeMainchainWithdrew(uint256[])": {
        "details": "Marks the withdrawals are done on mainchain and returns the boolean array indicating whether the withdrawal vote is already done before. Requirements: - The method caller is a validator. Emits the `MainchainWithdrew` once the valid call passes the quorum threshold."
      },
      "tryBulkDepositFor((uint256,uint8,(address,address,uint256),(address,address,uint256),(uint8,uint256,uint256))[])": {
        "details": "Tries bulk deposits based on the receipts and returns the boolean array indicating whether the deposit vote is already done before. Reverts if the deposit is invalid or is voted by the validator again. Requirements: - The method caller is a validator. Emits the `Deposited` once the assets are released."
      },
      "unpause()": {
        "details": "Triggers unpaused state."
      }
    },
    "stateVariables": {
      "____deprecated0": {
        "custom:deprecated": "Previously `_validatorContract` (non-zero value)"
      },
      "____deprecated1": {
        "custom:deprecated": "Previously `_bridgeTrackingContract` (non-zero value)"
      },
      "____deprecated2": {
        "custom:deprecated": "Previously `_trustedOrgContract` (non-zero value)"
      },
      "___deprecated4": {
        "custom:deprecated": "Previously `withdrawalMigrated` (non-zero value)"
      },
      "_mainchainToken": {
        "details": "Mapping from token address => chain id => mainchain token address"
      },
      "_withdrawalSig": {
        "details": "Mapping from withdrawal id => validator address => signatures"
      },
      "depositVote": {
        "details": "Mapping from chain id => deposit id => deposit vote"
      },
      "mainchainWithdrewVote": {
        "details": "Mapping from withdrawal id => mainchain withdrew vote"
      },
      "withdrawal": {
        "details": "Mapping from withdrawal id => withdrawal receipt"
      },
      "withdrawalCount": {
        "details": "Total withdrawal"
      },
      "withdrawalStatVote": {
        "details": "Mapping from withdrawal id => vote for recording withdrawal stats"
      }
    },
    "version": 1
  },
  "userdoc": {
    "kind": "user",
    "methods": {
      "depositFor((uint256,uint8,(address,address,uint256),(address,address,uint256),(uint8,uint256,uint256)))": {
        "notice": "The assets will be transferred whenever the valid call passes the quorum threshold."
      },
      "tryBulkAcknowledgeMainchainWithdrew(uint256[])": {
        "notice": "Not reverting to avoid unnecessary failed transactions because the validators can send transactions at the same time."
      },
      "tryBulkDepositFor((uint256,uint8,(address,address,uint256),(address,address,uint256),(uint8,uint256,uint256))[])": {
        "notice": "The assets will be transferred whenever the valid call for the receipt passes the quorum threshold. Not reverting to avoid unnecessary failed transactions because the validators can send transactions at the same time."
      }
    },
    "version": 1
  },
  "storageLayout": {
    "storage": [
      {
        "astId": 1286,
        "contract": "contracts/ronin/gateway/RoninGatewayV3.sol:RoninGatewayV3",
        "label": "_paused",
        "offset": 0,
        "slot": "0",
        "type": "t_bool"
      },
      {
        "astId": 3249,
        "contract": "contracts/ronin/gateway/RoninGatewayV3.sol:RoninGatewayV3",
        "label": "_num",
        "offset": 0,
        "slot": "1",
        "type": "t_uint256"
      },
      {
        "astId": 3251,
        "contract": "contracts/ronin/gateway/RoninGatewayV3.sol:RoninGatewayV3",
        "label": "_denom",
        "offset": 0,
        "slot": "2",
        "type": "t_uint256"
      },
      {
        "astId": 3253,
        "contract": "contracts/ronin/gateway/RoninGatewayV3.sol:RoninGatewayV3",
        "label": "______deprecated",
        "offset": 0,
        "slot": "3",
        "type": "t_address"
      },
      {
        "astId": 3255,
        "contract": "contracts/ronin/gateway/RoninGatewayV3.sol:RoninGatewayV3",
        "label": "nonce",
        "offset": 0,
        "slot": "4",
        "type": "t_uint256"
      },
      {
        "astId": 3257,
        "contract": "contracts/ronin/gateway/RoninGatewayV3.sol:RoninGatewayV3",
        "label": "emergencyPauser",
        "offset": 0,
        "slot": "5",
        "type": "t_address"
      },
      {
        "astId": 3262,
        "contract": "contracts/ronin/gateway/RoninGatewayV3.sol:RoninGatewayV3",
        "label": "______gap",
        "offset": 0,
        "slot": "6",
        "type": "t_array(t_uint256)49_storage"
      },
      {
        "astId": 1124,
        "contract": "contracts/ronin/gateway/RoninGatewayV3.sol:RoninGatewayV3",
        "label": "_initialized",
        "offset": 0,
        "slot": "55",
        "type": "t_uint8"
      },
      {
        "astId": 1127,
        "contract": "contracts/ronin/gateway/RoninGatewayV3.sol:RoninGatewayV3",
        "label": "_initializing",
        "offset": 1,
        "slot": "55",
        "type": "t_bool"
      },
      {
        "astId": 3791,
        "contract": "contracts/ronin/gateway/RoninGatewayV3.sol:RoninGatewayV3",
        "label": "minimumThreshold",
        "offset": 0,
        "slot": "56",
        "type": "t_mapping(t_address,t_uint256)"
      },
      {
        "astId": 3796,
        "contract": "contracts/ronin/gateway/RoninGatewayV3.sol:RoninGatewayV3",
        "label": "______gap",
        "offset": 0,
        "slot": "57",
        "type": "t_array(t_uint256)50_storage"
      },
      {
        "astId": 24,
        "contract": "contracts/ronin/gateway/RoninGatewayV3.sol:RoninGatewayV3",
        "label": "_roles",
        "offset": 0,
        "slot": "107",
        "type": "t_mapping(t_bytes32,t_struct(RoleData)19_storage)"
      },
      {
        "astId": 338,
        "contract": "contracts/ronin/gateway/RoninGatewayV3.sol:RoninGatewayV3",
        "label": "_roleMembers",
        "offset": 0,
        "slot": "108",
        "type": "t_mapping(t_bytes32,t_struct(AddressSet)2949_storage)"
      },
      {
        "astId": 26899,
        "contract": "contracts/ronin/gateway/RoninGatewayV3.sol:RoninGatewayV3",
        "label": "___deprecated4",
        "offset": 0,
        "slot": "109",
        "type": "t_bool"
      },
      {
        "astId": 26902,
        "contract": "contracts/ronin/gateway/RoninGatewayV3.sol:RoninGatewayV3",
        "label": "withdrawalCount",
        "offset": 0,
        "slot": "110",
        "type": "t_uint256"
      },
      {
        "astId": 26910,
        "contract": "contracts/ronin/gateway/RoninGatewayV3.sol:RoninGatewayV3",
        "label": "depositVote",
        "offset": 0,
        "slot": "111",
        "type": "t_mapping(t_uint256,t_mapping(t_uint256,t_struct(Vote)14520_storage))"
      },
      {
        "astId": 26916,
        "contract": "contracts/ronin/gateway/RoninGatewayV3.sol:RoninGatewayV3",
        "label": "mainchainWithdrewVote",
        "offset": 0,
        "slot": "112",
        "type": "t_mapping(t_uint256,t_struct(Vote)14520_storage)"
      },
      {
        "astId": 26922,
        "contract": "contracts/ronin/gateway/RoninGatewayV3.sol:RoninGatewayV3",
        "label": "withdrawal",
        "offset": 0,
        "slot": "113",
        "type": "t_mapping(t_uint256,t_struct(Receipt)15871_storage)"
      },
      {
        "astId": 26929,
        "contract": "contracts/ronin/gateway/RoninGatewayV3.sol:RoninGatewayV3",
        "label": "_withdrawalSig",
        "offset": 0,
        "slot": "114",
        "type": "t_mapping(t_uint256,t_mapping(t_address,t_bytes_storage))"
      },
      {
        "astId": 26937,
        "contract": "contracts/ronin/gateway/RoninGatewayV3.sol:RoninGatewayV3",
        "label": "_mainchainToken",
        "offset": 0,
        "slot": "115",
        "type": "t_mapping(t_address,t_mapping(t_uint256,t_struct(MappedToken)11895_storage))"
      },
      {
        "astId": 26940,
        "contract": "contracts/ronin/gateway/RoninGatewayV3.sol:RoninGatewayV3",
        "label": "____deprecated0",
        "offset": 0,
        "slot": "116",
        "type": "t_address"
      },
      {
        "astId": 26943,
        "contract": "contracts/ronin/gateway/RoninGatewayV3.sol:RoninGatewayV3",
        "label": "____deprecated1",
        "offset": 0,
        "slot": "117",
        "type": "t_address"
      },
      {
        "astId": 26949,
        "contract": "contracts/ronin/gateway/RoninGatewayV3.sol:RoninGatewayV3",
        "label": "withdrawalStatVote",
        "offset": 0,
        "slot": "118",
        "type": "t_mapping(t_uint256,t_struct(Vote)14520_storage)"
      },
      {
        "astId": 26952,
        "contract": "contracts/ronin/gateway/RoninGatewayV3.sol:RoninGatewayV3",
        "label": "____deprecated2",
        "offset": 0,
        "slot": "119",
        "type": "t_address"
      },
      {
        "astId": 26954,
        "contract": "contracts/ronin/gateway/RoninGatewayV3.sol:RoninGatewayV3",
        "label": "_trustedNum",
        "offset": 0,
        "slot": "120",
        "type": "t_uint256"
      },
      {
        "astId": 26956,
        "contract": "contracts/ronin/gateway/RoninGatewayV3.sol:RoninGatewayV3",
        "label": "_trustedDenom",
        "offset": 0,
        "slot": "121",
        "type": "t_uint256"
      }
    ],
    "types": {
      "t_address": {
        "encoding": "inplace",
        "label": "address",
        "numberOfBytes": "20"
      },
      "t_array(t_address)dyn_storage": {
        "base": "t_address",
        "encoding": "dynamic_array",
        "label": "address[]",
        "numberOfBytes": "32"
      },
      "t_array(t_bytes32)dyn_storage": {
        "base": "t_bytes32",
        "encoding": "dynamic_array",
        "label": "bytes32[]",
        "numberOfBytes": "32"
      },
      "t_array(t_uint256)49_storage": {
        "base": "t_uint256",
        "encoding": "inplace",
        "label": "uint256[49]",
        "numberOfBytes": "1568"
      },
      "t_array(t_uint256)50_storage": {
        "base": "t_uint256",
        "encoding": "inplace",
        "label": "uint256[50]",
        "numberOfBytes": "1600"
      },
      "t_bool": {
        "encoding": "inplace",
        "label": "bool",
        "numberOfBytes": "1"
      },
      "t_bytes32": {
        "encoding": "inplace",
        "label": "bytes32",
        "numberOfBytes": "32"
      },
      "t_bytes_storage": {
        "encoding": "bytes",
        "label": "bytes",
        "numberOfBytes": "32"
      },
      "t_enum(Kind)15668": {
        "encoding": "inplace",
        "label": "enum Transfer.Kind",
        "numberOfBytes": "1"
      },
      "t_enum(Standard)15187": {
        "encoding": "inplace",
        "label": "enum Token.Standard",
        "numberOfBytes": "1"
      },
      "t_enum(VoteStatus)11922": {
        "encoding": "inplace",
        "label": "enum VoteStatusConsumer.VoteStatus",
        "numberOfBytes": "1"
      },
      "t_mapping(t_address,t_bool)": {
        "encoding": "mapping",
        "key": "t_address",
        "label": "mapping(address => bool)",
        "numberOfBytes": "32",
        "value": "t_bool"
      },
      "t_mapping(t_address,t_bytes32)": {
        "encoding": "mapping",
        "key": "t_address",
        "label": "mapping(address => bytes32)",
        "numberOfBytes": "32",
        "value": "t_bytes32"
      },
      "t_mapping(t_address,t_bytes_storage)": {
        "encoding": "mapping",
        "key": "t_address",
        "label": "mapping(address => bytes)",
        "numberOfBytes": "32",
        "value": "t_bytes_storage"
      },
      "t_mapping(t_address,t_mapping(t_uint256,t_struct(MappedToken)11895_storage))": {
        "encoding": "mapping",
        "key": "t_address",
        "label": "mapping(address => mapping(uint256 => struct MappedTokenConsumer.MappedToken))",
        "numberOfBytes": "32",
        "value": "t_mapping(t_uint256,t_struct(MappedToken)11895_storage)"
      },
      "t_mapping(t_address,t_uint256)": {
        "encoding": "mapping",
        "key": "t_address",
        "label": "mapping(address => uint256)",
        "numberOfBytes": "32",
        "value": "t_uint256"
      },
      "t_mapping(t_bytes32,t_struct(AddressSet)2949_storage)": {
        "encoding": "mapping",
        "key": "t_bytes32",
        "label": "mapping(bytes32 => struct EnumerableSet.AddressSet)",
        "numberOfBytes": "32",
        "value": "t_struct(AddressSet)2949_storage"
      },
      "t_mapping(t_bytes32,t_struct(RoleData)19_storage)": {
        "encoding": "mapping",
        "key": "t_bytes32",
        "label": "mapping(bytes32 => struct AccessControl.RoleData)",
        "numberOfBytes": "32",
        "value": "t_struct(RoleData)19_storage"
      },
      "t_mapping(t_bytes32,t_uint256)": {
        "encoding": "mapping",
        "key": "t_bytes32",
        "label": "mapping(bytes32 => uint256)",
        "numberOfBytes": "32",
        "value": "t_uint256"
      },
      "t_mapping(t_uint256,t_mapping(t_address,t_bytes_storage))": {
        "encoding": "mapping",
        "key": "t_uint256",
        "label": "mapping(uint256 => mapping(address => bytes))",
        "numberOfBytes": "32",
        "value": "t_mapping(t_address,t_bytes_storage)"
      },
      "t_mapping(t_uint256,t_mapping(t_uint256,t_struct(Vote)14520_storage))": {
        "encoding": "mapping",
        "key": "t_uint256",
        "label": "mapping(uint256 => mapping(uint256 => struct IsolatedGovernance.Vote))",
        "numberOfBytes": "32",
        "value": "t_mapping(t_uint256,t_struct(Vote)14520_storage)"
      },
      "t_mapping(t_uint256,t_struct(MappedToken)11895_storage)": {
        "encoding": "mapping",
        "key": "t_uint256",
        "label": "mapping(uint256 => struct MappedTokenConsumer.MappedToken)",
        "numberOfBytes": "32",
        "value": "t_struct(MappedToken)11895_storage"
      },
      "t_mapping(t_uint256,t_struct(Receipt)15871_storage)": {
        "encoding": "mapping",
        "key": "t_uint256",
        "label": "mapping(uint256 => struct Transfer.Receipt)",
        "numberOfBytes": "32",
        "value": "t_struct(Receipt)15871_storage"
      },
      "t_mapping(t_uint256,t_struct(Vote)14520_storage)": {
        "encoding": "mapping",
        "key": "t_uint256",
        "label": "mapping(uint256 => struct IsolatedGovernance.Vote)",
        "numberOfBytes": "32",
        "value": "t_struct(Vote)14520_storage"
      },
      "t_struct(AddressSet)2949_storage": {
        "encoding": "inplace",
        "label": "struct EnumerableSet.AddressSet",
        "members": [
          {
            "astId": 2948,
            "contract": "contracts/ronin/gateway/RoninGatewayV3.sol:RoninGatewayV3",
            "label": "_inner",
            "offset": 0,
            "slot": "0",
            "type": "t_struct(Set)2648_storage"
          }
        ],
        "numberOfBytes": "64"
      },
      "t_struct(Info)15195_storage": {
        "encoding": "inplace",
        "label": "struct Token.Info",
        "members": [
          {
            "astId": 15190,
            "contract": "contracts/ronin/gateway/RoninGatewayV3.sol:RoninGatewayV3",
            "label": "erc",
            "offset": 0,
            "slot": "0",
            "type": "t_enum(Standard)15187"
          },
          {
            "astId": 15192,
            "contract": "contracts/ronin/gateway/RoninGatewayV3.sol:RoninGatewayV3",
            "label": "id",
            "offset": 0,
            "slot": "1",
            "type": "t_uint256"
          },
          {
            "astId": 15194,
            "contract": "contracts/ronin/gateway/RoninGatewayV3.sol:RoninGatewayV3",
            "label": "quantity",
            "offset": 0,
            "slot": "2",
            "type": "t_uint256"
          }
        ],
        "numberOfBytes": "96"
      },
      "t_struct(MappedToken)11895_storage": {
        "encoding": "inplace",
        "label": "struct MappedTokenConsumer.MappedToken",
        "members": [
          {
            "astId": 11892,
            "contract": "contracts/ronin/gateway/RoninGatewayV3.sol:RoninGatewayV3",
            "label": "erc",
            "offset": 0,
            "slot": "0",
            "type": "t_enum(Standard)15187"
          },
          {
            "astId": 11894,
            "contract": "contracts/ronin/gateway/RoninGatewayV3.sol:RoninGatewayV3",
            "label": "tokenAddr",
            "offset": 1,
            "slot": "0",
            "type": "t_address"
          }
        ],
        "numberOfBytes": "32"
      },
      "t_struct(Owner)15642_storage": {
        "encoding": "inplace",
        "label": "struct Token.Owner",
        "members": [
          {
            "astId": 15637,
            "contract": "contracts/ronin/gateway/RoninGatewayV3.sol:RoninGatewayV3",
            "label": "addr",
            "offset": 0,
            "slot": "0",
            "type": "t_address"
          },
          {
            "astId": 15639,
            "contract": "contracts/ronin/gateway/RoninGatewayV3.sol:RoninGatewayV3",
            "label": "tokenAddr",
            "offset": 0,
            "slot": "1",
            "type": "t_address"
          },
          {
            "astId": 15641,
            "contract": "contracts/ronin/gateway/RoninGatewayV3.sol:RoninGatewayV3",
            "label": "chainId",
            "offset": 0,
            "slot": "2",
            "type": "t_uint256"
          }
        ],
        "numberOfBytes": "96"
      },
      "t_struct(Receipt)15871_storage": {
        "encoding": "inplace",
        "label": "struct Transfer.Receipt",
        "members": [
          {
            "astId": 15858,
            "contract": "contracts/ronin/gateway/RoninGatewayV3.sol:RoninGatewayV3",
            "label": "id",
            "offset": 0,
            "slot": "0",
            "type": "t_uint256"
          },
          {
            "astId": 15861,
            "contract": "contracts/ronin/gateway/RoninGatewayV3.sol:RoninGatewayV3",
            "label": "kind",
            "offset": 0,
            "slot": "1",
            "type": "t_enum(Kind)15668"
          },
          {
            "astId": 15864,
            "contract": "contracts/ronin/gateway/RoninGatewayV3.sol:RoninGatewayV3",
            "label": "mainchain",
            "offset": 0,
            "slot": "2",
            "type": "t_struct(Owner)15642_storage"
          },
          {
            "astId": 15867,
            "contract": "contracts/ronin/gateway/RoninGatewayV3.sol:RoninGatewayV3",
            "label": "ronin",
            "offset": 0,
            "slot": "5",
            "type": "t_struct(Owner)15642_storage"
          },
          {
            "astId": 15870,
            "contract": "contracts/ronin/gateway/RoninGatewayV3.sol:RoninGatewayV3",
            "label": "info",
            "offset": 0,
            "slot": "8",
            "type": "t_struct(Info)15195_storage"
          }
        ],
        "numberOfBytes": "352"
      },
      "t_struct(RoleData)19_storage": {
        "encoding": "inplace",
        "label": "struct AccessControl.RoleData",
        "members": [
          {
            "astId": 16,
            "contract": "contracts/ronin/gateway/RoninGatewayV3.sol:RoninGatewayV3",
            "label": "members",
            "offset": 0,
            "slot": "0",
            "type": "t_mapping(t_address,t_bool)"
          },
          {
            "astId": 18,
            "contract": "contracts/ronin/gateway/RoninGatewayV3.sol:RoninGatewayV3",
            "label": "adminRole",
            "offset": 0,
            "slot": "1",
            "type": "t_bytes32"
          }
        ],
        "numberOfBytes": "64"
      },
      "t_struct(Set)2648_storage": {
        "encoding": "inplace",
        "label": "struct EnumerableSet.Set",
        "members": [
          {
            "astId": 2643,
            "contract": "contracts/ronin/gateway/RoninGatewayV3.sol:RoninGatewayV3",
            "label": "_values",
            "offset": 0,
            "slot": "0",
            "type": "t_array(t_bytes32)dyn_storage"
          },
          {
            "astId": 2647,
            "contract": "contracts/ronin/gateway/RoninGatewayV3.sol:RoninGatewayV3",
            "label": "_indexes",
            "offset": 0,
            "slot": "1",
            "type": "t_mapping(t_bytes32,t_uint256)"
          }
        ],
        "numberOfBytes": "64"
      },
      "t_struct(Vote)14520_storage": {
        "encoding": "inplace",
        "label": "struct IsolatedGovernance.Vote",
        "members": [
          {
            "astId": 14502,
            "contract": "contracts/ronin/gateway/RoninGatewayV3.sol:RoninGatewayV3",
            "label": "status",
            "offset": 0,
            "slot": "0",
            "type": "t_enum(VoteStatus)11922"
          },
          {
            "astId": 14504,
            "contract": "contracts/ronin/gateway/RoninGatewayV3.sol:RoninGatewayV3",
            "label": "finalHash",
            "offset": 0,
            "slot": "1",
            "type": "t_bytes32"
          },
          {
            "astId": 14509,
            "contract": "contracts/ronin/gateway/RoninGatewayV3.sol:RoninGatewayV3",
            "label": "voteHashOf",
            "offset": 0,
            "slot": "2",
            "type": "t_mapping(t_address,t_bytes32)"
          },
          {
            "astId": 14512,
            "contract": "contracts/ronin/gateway/RoninGatewayV3.sol:RoninGatewayV3",
            "label": "expiredAt",
            "offset": 0,
            "slot": "3",
            "type": "t_uint256"
          },
          {
            "astId": 14515,
            "contract": "contracts/ronin/gateway/RoninGatewayV3.sol:RoninGatewayV3",
            "label": "createdAt",
            "offset": 0,
            "slot": "4",
            "type": "t_uint256"
          },
          {
            "astId": 14519,
            "contract": "contracts/ronin/gateway/RoninGatewayV3.sol:RoninGatewayV3",
            "label": "voters",
            "offset": 0,
            "slot": "5",
            "type": "t_array(t_address)dyn_storage"
          }
        ],
        "numberOfBytes": "192"
      },
      "t_uint256": {
        "encoding": "inplace",
        "label": "uint256",
        "numberOfBytes": "32"
      },
      "t_uint8": {
        "encoding": "inplace",
        "label": "uint8",
        "numberOfBytes": "1"
      }
    }
  }
}