{
  "address": "0x5a6073071F151FE282AA1267870cdE1AFF85ff28",
  "abi": [
    {
      "inputs": [
        {
          "internalType": "uint256",
          "name": "num",
          "type": "uint256"
        },
        {
          "internalType": "uint256",
          "name": "denom",
          "type": "uint256"
        },
        {
          "internalType": "uint256",
          "name": "roninChainId",
          "type": "uint256"
        },
        {
          "internalType": "uint256",
          "name": "expiryDuration",
          "type": "uint256"
        },
        {
          "internalType": "address",
          "name": "bridgeContract",
          "type": "address"
        },
        {
          "internalType": "address[]",
          "name": "callbackRegisters",
          "type": "address[]"
        },
        {
          "internalType": "address[]",
          "name": "bridgeOperators",
          "type": "address[]"
        },
        {
          "internalType": "address[]",
          "name": "governors",
          "type": "address[]"
        },
        {
          "internalType": "uint96[]",
          "name": "voteWeights",
          "type": "uint96[]"
        },
        {
          "internalType": "enum GlobalProposal.TargetOption[]",
          "name": "targetOptions",
          "type": "uint8[]"
        },
        {
          "internalType": "address[]",
          "name": "targets",
          "type": "address[]"
        }
      ],
      "stateMutability": "payable",
      "type": "constructor"
    },
    {
      "inputs": [
        {
          "internalType": "address",
          "name": "voter",
          "type": "address"
        }
      ],
      "name": "ErrAlreadyVoted",
      "type": "error"
    },
    {
      "inputs": [
        {
          "internalType": "address",
          "name": "bridgeOperator",
          "type": "address"
        }
      ],
      "name": "ErrBridgeOperatorAlreadyExisted",
      "type": "error"
    },
    {
      "inputs": [
        {
          "internalType": "address",
          "name": "bridgeOperator",
          "type": "address"
        }
      ],
      "name": "ErrBridgeOperatorUpdateFailed",
      "type": "error"
    },
    {
      "inputs": [
        {
          "internalType": "enum ContractType",
          "name": "contractType",
          "type": "uint8"
        }
      ],
      "name": "ErrContractTypeNotFound",
      "type": "error"
    },
    {
      "inputs": [],
      "name": "ErrCurrentProposalIsNotCompleted",
      "type": "error"
    },
    {
      "inputs": [
        {
          "internalType": "bytes4",
          "name": "msgSig",
          "type": "bytes4"
        }
      ],
      "name": "ErrDuplicated",
      "type": "error"
    },
    {
      "inputs": [
        {
          "internalType": "bytes32",
          "name": "proposalHash",
          "type": "bytes32"
        }
      ],
      "name": "ErrInsufficientGas",
      "type": "error"
    },
    {
      "inputs": [
        {
          "internalType": "bytes4",
          "name": "msgSig",
          "type": "bytes4"
        }
      ],
      "name": "ErrInvalidArguments",
      "type": "error"
    },
    {
      "inputs": [
        {
          "internalType": "bytes4",
          "name": "msgSig",
          "type": "bytes4"
        },
        {
          "internalType": "uint256",
          "name": "actual",
          "type": "uint256"
        },
        {
          "internalType": "uint256",
          "name": "expected",
          "type": "uint256"
        }
      ],
      "name": "ErrInvalidChainId",
      "type": "error"
    },
    {
      "inputs": [],
      "name": "ErrInvalidExpiryTimestamp",
      "type": "error"
    },
    {
      "inputs": [
        {
          "internalType": "bytes4",
          "name": "msgSig",
          "type": "bytes4"
        }
      ],
      "name": "ErrInvalidOrder",
      "type": "error"
    },
    {
      "inputs": [
        {
          "internalType": "bytes32",
          "name": "actual",
          "type": "bytes32"
        },
        {
          "internalType": "bytes32",
          "name": "expected",
          "type": "bytes32"
        }
      ],
      "name": "ErrInvalidProposal",
      "type": "error"
    },
    {
      "inputs": [
        {
          "internalType": "bytes4",
          "name": "msgSig",
          "type": "bytes4"
        }
      ],
      "name": "ErrInvalidProposalNonce",
      "type": "error"
    },
    {
      "inputs": [
        {
          "internalType": "bytes4",
          "name": "msgSig",
          "type": "bytes4"
        }
      ],
      "name": "ErrInvalidSignatures",
      "type": "error"
    },
    {
      "inputs": [
        {
          "internalType": "bytes4",
          "name": "msgSig",
          "type": "bytes4"
        }
      ],
      "name": "ErrInvalidThreshold",
      "type": "error"
    },
    {
      "inputs": [
        {
          "internalType": "bytes4",
          "name": "msgSig",
          "type": "bytes4"
        }
      ],
      "name": "ErrInvalidVoteWeight",
      "type": "error"
    },
    {
      "inputs": [
        {
          "internalType": "bytes4",
          "name": "msgSig",
          "type": "bytes4"
        }
      ],
      "name": "ErrLengthMismatch",
      "type": "error"
    },
    {
      "inputs": [
        {
          "internalType": "bytes4",
          "name": "msgSig",
          "type": "bytes4"
        }
      ],
      "name": "ErrOnlySelfCall",
      "type": "error"
    },
    {
      "inputs": [],
      "name": "ErrQueryForEmptyVote",
      "type": "error"
    },
    {
      "inputs": [
        {
          "internalType": "bytes4",
          "name": "msgSig",
          "type": "bytes4"
        },
        {
          "internalType": "enum RoleAccess",
          "name": "expectedRole",
          "type": "uint8"
        }
      ],
      "name": "ErrUnauthorized",
      "type": "error"
    },
    {
      "inputs": [
        {
          "internalType": "bytes4",
          "name": "interfaceId",
          "type": "bytes4"
        },
        {
          "internalType": "address",
          "name": "addr",
          "type": "address"
        }
      ],
      "name": "ErrUnsupportedInterface",
      "type": "error"
    },
    {
      "inputs": [
        {
          "internalType": "bytes4",
          "name": "msgSig",
          "type": "bytes4"
        }
      ],
      "name": "ErrUnsupportedVoteType",
      "type": "error"
    },
    {
      "inputs": [],
      "name": "ErrVoteIsFinalized",
      "type": "error"
    },
    {
      "inputs": [
        {
          "internalType": "bytes4",
          "name": "msgSig",
          "type": "bytes4"
        }
      ],
      "name": "ErrZeroAddress",
      "type": "error"
    },
    {
      "inputs": [
        {
          "internalType": "address",
          "name": "addr",
          "type": "address"
        }
      ],
      "name": "ErrZeroCodeContract",
      "type": "error"
    },
    {
      "anonymous": false,
      "inputs": [
        {
          "indexed": true,
          "internalType": "address",
          "name": "governor",
          "type": "address"
        },
        {
          "indexed": true,
          "internalType": "address",
          "name": "fromBridgeOperator",
          "type": "address"
        },
        {
          "indexed": true,
          "internalType": "address",
          "name": "toBridgeOperator",
          "type": "address"
        }
      ],
      "name": "BridgeOperatorUpdated",
      "type": "event"
    },
    {
      "anonymous": false,
      "inputs": [
        {
          "indexed": false,
          "internalType": "bool[]",
          "name": "statuses",
          "type": "bool[]"
        },
        {
          "indexed": false,
          "internalType": "uint96[]",
          "name": "voteWeights",
          "type": "uint96[]"
        },
        {
          "indexed": false,
          "internalType": "address[]",
          "name": "governors",
          "type": "address[]"
        },
        {
          "indexed": false,
          "internalType": "address[]",
          "name": "bridgeOperators",
          "type": "address[]"
        }
      ],
      "name": "BridgeOperatorsAdded",
      "type": "event"
    },
    {
      "anonymous": false,
      "inputs": [
        {
          "indexed": false,
          "internalType": "bool[]",
          "name": "statuses",
          "type": "bool[]"
        },
        {
          "indexed": false,
          "internalType": "address[]",
          "name": "bridgeOperators",
          "type": "address[]"
        }
      ],
      "name": "BridgeOperatorsRemoved",
      "type": "event"
    },
    {
      "anonymous": false,
      "inputs": [
        {
          "indexed": true,
          "internalType": "enum ContractType",
          "name": "contractType",
          "type": "uint8"
        },
        {
          "indexed": true,
          "internalType": "address",
          "name": "addr",
          "type": "address"
        }
      ],
      "name": "ContractUpdated",
      "type": "event"
    },
    {
      "anonymous": false,
      "inputs": [
        {
          "indexed": true,
          "internalType": "uint256",
          "name": "round",
          "type": "uint256"
        },
        {
          "indexed": true,
          "internalType": "bytes32",
          "name": "proposalHash",
          "type": "bytes32"
        },
        {
          "components": [
            {
              "internalType": "uint256",
              "name": "nonce",
              "type": "uint256"
            },
            {
              "internalType": "uint256",
              "name": "chainId",
              "type": "uint256"
            },
            {
              "internalType": "uint256",
              "name": "expiryTimestamp",
              "type": "uint256"
            },
            {
              "internalType": "address[]",
              "name": "targets",
              "type": "address[]"
            },
            {
              "internalType": "uint256[]",
              "name": "values",
              "type": "uint256[]"
            },
            {
              "internalType": "bytes[]",
              "name": "calldatas",
              "type": "bytes[]"
            },
            {
              "internalType": "uint256[]",
              "name": "gasAmounts",
              "type": "uint256[]"
            }
          ],
          "indexed": false,
          "internalType": "struct Proposal.ProposalDetail",
          "name": "proposal",
          "type": "tuple"
        },
        {
          "indexed": false,
          "internalType": "bytes32",
          "name": "globalProposalHash",
          "type": "bytes32"
        },
        {
          "components": [
            {
              "internalType": "uint256",
              "name": "nonce",
              "type": "uint256"
            },
            {
              "internalType": "uint256",
              "name": "expiryTimestamp",
              "type": "uint256"
            },
            {
              "internalType": "enum GlobalProposal.TargetOption[]",
              "name": "targetOptions",
              "type": "uint8[]"
            },
            {
              "internalType": "uint256[]",
              "name": "values",
              "type": "uint256[]"
            },
            {
              "internalType": "bytes[]",
              "name": "calldatas",
              "type": "bytes[]"
            },
            {
              "internalType": "uint256[]",
              "name": "gasAmounts",
              "type": "uint256[]"
            }
          ],
          "indexed": false,
          "internalType": "struct GlobalProposal.GlobalProposalDetail",
          "name": "globalProposal",
          "type": "tuple"
        },
        {
          "indexed": false,
          "internalType": "address",
          "name": "creator",
          "type": "address"
        }
      ],
      "name": "GlobalProposalCreated",
      "type": "event"
    },
    {
      "anonymous": false,
      "inputs": [
        {
          "indexed": false,
          "internalType": "bytes",
          "name": "callData",
          "type": "bytes"
        },
        {
          "indexed": false,
          "internalType": "address[]",
          "name": "registers",
          "type": "address[]"
        },
        {
          "indexed": false,
          "internalType": "bool[]",
          "name": "statuses",
          "type": "bool[]"
        },
        {
          "indexed": false,
          "internalType": "bytes[]",
          "name": "returnDatas",
          "type": "bytes[]"
        }
      ],
      "name": "Notified",
      "type": "event"
    },
    {
      "anonymous": false,
      "inputs": [
        {
          "indexed": true,
          "internalType": "bytes32",
          "name": "proposalHash",
          "type": "bytes32"
        }
      ],
      "name": "ProposalApproved",
      "type": "event"
    },
    {
      "anonymous": false,
      "inputs": [
        {
          "indexed": true,
          "internalType": "uint256",
          "name": "chainId",
          "type": "uint256"
        },
        {
          "indexed": true,
          "internalType": "uint256",
          "name": "round",
          "type": "uint256"
        },
        {
          "indexed": true,
          "internalType": "bytes32",
          "name": "proposalHash",
          "type": "bytes32"
        },
        {
          "components": [
            {
              "internalType": "uint256",
              "name": "nonce",
              "type": "uint256"
            },
            {
              "internalType": "uint256",
              "name": "chainId",
              "type": "uint256"
            },
            {
              "internalType": "uint256",
              "name": "expiryTimestamp",
              "type": "uint256"
            },
            {
              "internalType": "address[]",
              "name": "targets",
              "type": "address[]"
            },
            {
              "internalType": "uint256[]",
              "name": "values",
              "type": "uint256[]"
            },
            {
              "internalType": "bytes[]",
              "name": "calldatas",
              "type": "bytes[]"
            },
            {
              "internalType": "uint256[]",
              "name": "gasAmounts",
              "type": "uint256[]"
            }
          ],
          "indexed": false,
          "internalType": "struct Proposal.ProposalDetail",
          "name": "proposal",
          "type": "tuple"
        },
        {
          "indexed": false,
          "internalType": "address",
          "name": "creator",
          "type": "address"
        }
      ],
      "name": "ProposalCreated",
      "type": "event"
    },
    {
      "anonymous": false,
      "inputs": [
        {
          "indexed": true,
          "internalType": "bytes32",
          "name": "proposalHash",
          "type": "bytes32"
        },
        {
          "indexed": false,
          "internalType": "bool[]",
          "name": "successCalls",
          "type": "bool[]"
        },
        {
          "indexed": false,
          "internalType": "bytes[]",
          "name": "returnDatas",
          "type": "bytes[]"
        }
      ],
      "name": "ProposalExecuted",
      "type": "event"
    },
    {
      "anonymous": false,
      "inputs": [
        {
          "indexed": true,
          "internalType": "bytes32",
          "name": "proposalHash",
          "type": "bytes32"
        }
      ],
      "name": "ProposalExpired",
      "type": "event"
    },
    {
      "anonymous": false,
      "inputs": [
        {
          "indexed": true,
          "internalType": "uint256",
          "name": "duration",
          "type": "uint256"
        }
      ],
      "name": "ProposalExpiryDurationChanged",
      "type": "event"
    },
    {
      "anonymous": false,
      "inputs": [
        {
          "indexed": true,
          "internalType": "bytes32",
          "name": "proposalHash",
          "type": "bytes32"
        }
      ],
      "name": "ProposalRejected",
      "type": "event"
    },
    {
      "anonymous": false,
      "inputs": [
        {
          "indexed": true,
          "internalType": "bytes32",
          "name": "proposalHash",
          "type": "bytes32"
        },
        {
          "indexed": true,
          "internalType": "address",
          "name": "voter",
          "type": "address"
        },
        {
          "indexed": false,
          "internalType": "enum Ballot.VoteType",
          "name": "support",
          "type": "uint8"
        },
        {
          "indexed": false,
          "internalType": "uint256",
          "name": "weight",
          "type": "uint256"
        }
      ],
      "name": "ProposalVoted",
      "type": "event"
    },
    {
      "anonymous": false,
      "inputs": [
        {
          "indexed": true,
          "internalType": "enum GlobalProposal.TargetOption",
          "name": "targetOption",
          "type": "uint8"
        },
        {
          "indexed": true,
          "internalType": "address",
          "name": "addr",
          "type": "address"
        }
      ],
      "name": "TargetOptionUpdated",
      "type": "event"
    },
    {
      "anonymous": false,
      "inputs": [
        {
          "indexed": true,
          "internalType": "uint256",
          "name": "nonce",
          "type": "uint256"
        },
        {
          "indexed": true,
          "internalType": "uint256",
          "name": "numerator",
          "type": "uint256"
        },
        {
          "indexed": true,
          "internalType": "uint256",
          "name": "denominator",
          "type": "uint256"
        },
        {
          "indexed": false,
          "internalType": "uint256",
          "name": "previousNumerator",
          "type": "uint256"
        },
        {
          "indexed": false,
          "internalType": "uint256",
          "name": "previousDenominator",
          "type": "uint256"
        }
      ],
      "name": "ThresholdUpdated",
      "type": "event"
    },
    {
      "inputs": [],
      "name": "DOMAIN_SEPARATOR",
      "outputs": [
        {
          "internalType": "bytes32",
          "name": "",
          "type": "bytes32"
        }
      ],
      "stateMutability": "view",
      "type": "function"
    },
    {
      "inputs": [
        {
          "internalType": "uint96[]",
          "name": "voteWeights",
          "type": "uint96[]"
        },
        {
          "internalType": "address[]",
          "name": "governors",
          "type": "address[]"
        },
        {
          "internalType": "address[]",
          "name": "bridgeOperators",
          "type": "address[]"
        }
      ],
      "name": "addBridgeOperators",
      "outputs": [
        {
          "internalType": "bool[]",
          "name": "addeds",
          "type": "bool[]"
        }
      ],
      "stateMutability": "nonpayable",
      "type": "function"
    },
    {
      "inputs": [
        {
          "components": [
            {
              "internalType": "uint256",
              "name": "nonce",
              "type": "uint256"
            },
            {
              "internalType": "uint256",
              "name": "expiryTimestamp",
              "type": "uint256"
            },
            {
              "internalType": "enum GlobalProposal.TargetOption[]",
              "name": "targetOptions",
              "type": "uint8[]"
            },
            {
              "internalType": "uint256[]",
              "name": "values",
              "type": "uint256[]"
            },
            {
              "internalType": "bytes[]",
              "name": "calldatas",
              "type": "bytes[]"
            },
            {
              "internalType": "uint256[]",
              "name": "gasAmounts",
              "type": "uint256[]"
            }
          ],
          "internalType": "struct GlobalProposal.GlobalProposalDetail",
          "name": "globalProposal",
          "type": "tuple"
        },
        {
          "internalType": "enum Ballot.VoteType[]",
          "name": "supports_",
          "type": "uint8[]"
        },
        {
          "components": [
            {
              "internalType": "uint8",
              "name": "v",
              "type": "uint8"
            },
            {
              "internalType": "bytes32",
              "name": "r",
              "type": "bytes32"
            },
            {
              "internalType": "bytes32",
              "name": "s",
              "type": "bytes32"
            }
          ],
          "internalType": "struct SignatureConsumer.Signature[]",
          "name": "signatures",
          "type": "tuple[]"
        }
      ],
      "name": "castGlobalProposalBySignatures",
      "outputs": [],
      "stateMutability": "nonpayable",
      "type": "function"
    },
    {
      "inputs": [
        {
          "components": [
            {
              "internalType": "uint256",
              "name": "nonce",
              "type": "uint256"
            },
            {
              "internalType": "uint256",
              "name": "chainId",
              "type": "uint256"
            },
            {
              "internalType": "uint256",
              "name": "expiryTimestamp",
              "type": "uint256"
            },
            {
              "internalType": "address[]",
              "name": "targets",
              "type": "address[]"
            },
            {
              "internalType": "uint256[]",
              "name": "values",
              "type": "uint256[]"
            },
            {
              "internalType": "bytes[]",
              "name": "calldatas",
              "type": "bytes[]"
            },
            {
              "internalType": "uint256[]",
              "name": "gasAmounts",
              "type": "uint256[]"
            }
          ],
          "internalType": "struct Proposal.ProposalDetail",
          "name": "proposal",
          "type": "tuple"
        },
        {
          "internalType": "enum Ballot.VoteType[]",
          "name": "supports_",
          "type": "uint8[]"
        },
        {
          "components": [
            {
              "internalType": "uint8",
              "name": "v",
              "type": "uint8"
            },
            {
              "internalType": "bytes32",
              "name": "r",
              "type": "bytes32"
            },
            {
              "internalType": "bytes32",
              "name": "s",
              "type": "bytes32"
            }
          ],
          "internalType": "struct SignatureConsumer.Signature[]",
          "name": "signatures",
          "type": "tuple[]"
        }
      ],
      "name": "castProposalBySignatures",
      "outputs": [],
      "stateMutability": "nonpayable",
      "type": "function"
    },
    {
      "inputs": [
        {
          "components": [
            {
              "internalType": "uint256",
              "name": "nonce",
              "type": "uint256"
            },
            {
              "internalType": "uint256",
              "name": "chainId",
              "type": "uint256"
            },
            {
              "internalType": "uint256",
              "name": "expiryTimestamp",
              "type": "uint256"
            },
            {
              "internalType": "address[]",
              "name": "targets",
              "type": "address[]"
            },
            {
              "internalType": "uint256[]",
              "name": "values",
              "type": "uint256[]"
            },
            {
              "internalType": "bytes[]",
              "name": "calldatas",
              "type": "bytes[]"
            },
            {
              "internalType": "uint256[]",
              "name": "gasAmounts",
              "type": "uint256[]"
            }
          ],
          "internalType": "struct Proposal.ProposalDetail",
          "name": "proposal",
          "type": "tuple"
        },
        {
          "internalType": "enum Ballot.VoteType",
          "name": "support",
          "type": "uint8"
        }
      ],
      "name": "castProposalVoteForCurrentNetwork",
      "outputs": [],
      "stateMutability": "nonpayable",
      "type": "function"
    },
    {
      "inputs": [
        {
          "internalType": "uint256",
          "name": "_voteWeight",
          "type": "uint256"
        }
      ],
      "name": "checkThreshold",
      "outputs": [
        {
          "internalType": "bool",
          "name": "",
          "type": "bool"
        }
      ],
      "stateMutability": "view",
      "type": "function"
    },
    {
      "inputs": [
        {
          "internalType": "uint256",
          "name": "_chainId",
          "type": "uint256"
        },
        {
          "internalType": "uint256",
          "name": "_round",
          "type": "uint256"
        }
      ],
      "name": "deleteExpired",
      "outputs": [],
      "stateMutability": "nonpayable",
      "type": "function"
    },
    {
      "inputs": [
        {
          "internalType": "address[]",
          "name": "governors",
          "type": "address[]"
        }
      ],
      "name": "getBridgeOperatorOf",
      "outputs": [
        {
          "internalType": "address[]",
          "name": "bridgeOperators",
          "type": "address[]"
        }
      ],
      "stateMutability": "view",
      "type": "function"
    },
    {
      "inputs": [
        {
          "internalType": "address",
          "name": "bridgeOperator",
          "type": "address"
        }
      ],
      "name": "getBridgeOperatorWeight",
      "outputs": [
        {
          "internalType": "uint96",
          "name": "weight",
          "type": "uint96"
        }
      ],
      "stateMutability": "view",
      "type": "function"
    },
    {
      "inputs": [],
      "name": "getBridgeOperators",
      "outputs": [
        {
          "internalType": "address[]",
          "name": "",
          "type": "address[]"
        }
      ],
      "stateMutability": "view",
      "type": "function"
    },
    {
      "inputs": [],
      "name": "getCallbackRegisters",
      "outputs": [
        {
          "internalType": "address[]",
          "name": "registers",
          "type": "address[]"
        }
      ],
      "stateMutability": "view",
      "type": "function"
    },
    {
      "inputs": [
        {
          "internalType": "enum ContractType",
          "name": "contractType",
          "type": "uint8"
        }
      ],
      "name": "getContract",
      "outputs": [
        {
          "internalType": "address",
          "name": "contract_",
          "type": "address"
        }
      ],
      "stateMutability": "view",
      "type": "function"
    },
    {
      "inputs": [],
      "name": "getFullBridgeOperatorInfos",
      "outputs": [
        {
          "internalType": "address[]",
          "name": "governors",
          "type": "address[]"
        },
        {
          "internalType": "address[]",
          "name": "bridgeOperators",
          "type": "address[]"
        },
        {
          "internalType": "uint96[]",
          "name": "weights",
          "type": "uint96[]"
        }
      ],
      "stateMutability": "view",
      "type": "function"
    },
    {
      "inputs": [
        {
          "internalType": "uint256",
          "name": "round_",
          "type": "uint256"
        }
      ],
      "name": "getGlobalProposalSignatures",
      "outputs": [
        {
          "internalType": "address[]",
          "name": "voters",
          "type": "address[]"
        },
        {
          "internalType": "enum Ballot.VoteType[]",
          "name": "supports_",
          "type": "uint8[]"
        },
        {
          "components": [
            {
              "internalType": "uint8",
              "name": "v",
              "type": "uint8"
            },
            {
              "internalType": "bytes32",
              "name": "r",
              "type": "bytes32"
            },
            {
              "internalType": "bytes32",
              "name": "s",
              "type": "bytes32"
            }
          ],
          "internalType": "struct SignatureConsumer.Signature[]",
          "name": "signatures",
          "type": "tuple[]"
        }
      ],
      "stateMutability": "view",
      "type": "function"
    },
    {
      "inputs": [
        {
          "internalType": "address",
          "name": "governor",
          "type": "address"
        }
      ],
      "name": "getGovernorWeight",
      "outputs": [
        {
          "internalType": "uint96",
          "name": "weight",
          "type": "uint96"
        }
      ],
      "stateMutability": "view",
      "type": "function"
    },
    {
      "inputs": [
        {
          "internalType": "address[]",
          "name": "governors",
          "type": "address[]"
        }
      ],
      "name": "getGovernorWeights",
      "outputs": [
        {
          "internalType": "uint96[]",
          "name": "weights",
          "type": "uint96[]"
        }
      ],
      "stateMutability": "view",
      "type": "function"
    },
    {
      "inputs": [],
      "name": "getGovernors",
      "outputs": [
        {
          "internalType": "address[]",
          "name": "",
          "type": "address[]"
        }
      ],
      "stateMutability": "view",
      "type": "function"
    },
    {
      "inputs": [
        {
          "internalType": "address[]",
          "name": "bridgeOperators",
          "type": "address[]"
        }
      ],
      "name": "getGovernorsOf",
      "outputs": [
        {
          "internalType": "address[]",
          "name": "governors",
          "type": "address[]"
        }
      ],
      "stateMutability": "view",
      "type": "function"
    },
    {
      "inputs": [],
      "name": "getProposalExpiryDuration",
      "outputs": [
        {
          "internalType": "uint256",
          "name": "",
          "type": "uint256"
        }
      ],
      "stateMutability": "view",
      "type": "function"
    },
    {
      "inputs": [
        {
          "internalType": "uint256",
          "name": "_chainId",
          "type": "uint256"
        },
        {
          "internalType": "uint256",
          "name": "_round",
          "type": "uint256"
        }
      ],
      "name": "getProposalSignatures",
      "outputs": [
        {
          "internalType": "address[]",
          "name": "_voters",
          "type": "address[]"
        },
        {
          "internalType": "enum Ballot.VoteType[]",
          "name": "_supports",
          "type": "uint8[]"
        },
        {
          "components": [
            {
              "internalType": "uint8",
              "name": "v",
              "type": "uint8"
            },
            {
              "internalType": "bytes32",
              "name": "r",
              "type": "bytes32"
            },
            {
              "internalType": "bytes32",
              "name": "s",
              "type": "bytes32"
            }
          ],
          "internalType": "struct SignatureConsumer.Signature[]",
          "name": "_signatures",
          "type": "tuple[]"
        }
      ],
      "stateMutability": "view",
      "type": "function"
    },
    {
      "inputs": [],
      "name": "getThreshold",
      "outputs": [
        {
          "internalType": "uint256",
          "name": "num_",
          "type": "uint256"
        },
        {
          "internalType": "uint256",
          "name": "denom_",
          "type": "uint256"
        }
      ],
      "stateMutability": "view",
      "type": "function"
    },
    {
      "inputs": [],
      "name": "getTotalWeight",
      "outputs": [
        {
          "internalType": "uint256",
          "name": "",
          "type": "uint256"
        }
      ],
      "stateMutability": "view",
      "type": "function"
    },
    {
      "inputs": [
        {
          "internalType": "uint256",
          "name": "round_",
          "type": "uint256"
        },
        {
          "internalType": "address",
          "name": "voter",
          "type": "address"
        }
      ],
      "name": "globalProposalVoted",
      "outputs": [
        {
          "internalType": "bool",
          "name": "",
          "type": "bool"
        }
      ],
      "stateMutability": "view",
      "type": "function"
    },
    {
      "inputs": [
        {
          "internalType": "address",
          "name": "addr",
          "type": "address"
        }
      ],
      "name": "isBridgeOperator",
      "outputs": [
        {
          "internalType": "bool",
          "name": "",
          "type": "bool"
        }
      ],
      "stateMutability": "view",
      "type": "function"
    },
    {
      "inputs": [],
      "name": "minimumVoteWeight",
      "outputs": [
        {
          "internalType": "uint256",
          "name": "",
          "type": "uint256"
        }
      ],
      "stateMutability": "view",
      "type": "function"
    },
    {
      "inputs": [
        {
          "internalType": "uint256",
          "name": "_chainId",
          "type": "uint256"
        },
        {
          "internalType": "uint256",
          "name": "_round",
          "type": "uint256"
        },
        {
          "internalType": "address",
          "name": "_voter",
          "type": "address"
        }
      ],
      "name": "proposalVoted",
      "outputs": [
        {
          "internalType": "bool",
          "name": "",
          "type": "bool"
        }
      ],
      "stateMutability": "view",
      "type": "function"
    },
    {
      "inputs": [
        {
          "internalType": "uint256",
          "name": "_chainId",
          "type": "uint256"
        },
        {
          "internalType": "uint256",
          "name": "_expiryTimestamp",
          "type": "uint256"
        },
        {
          "internalType": "address[]",
          "name": "_targets",
          "type": "address[]"
        },
        {
          "internalType": "uint256[]",
          "name": "_values",
          "type": "uint256[]"
        },
        {
          "internalType": "bytes[]",
          "name": "_calldatas",
          "type": "bytes[]"
        },
        {
          "internalType": "uint256[]",
          "name": "_gasAmounts",
          "type": "uint256[]"
        }
      ],
      "name": "propose",
      "outputs": [],
      "stateMutability": "nonpayable",
      "type": "function"
    },
    {
      "inputs": [
        {
          "internalType": "uint256",
          "name": "expiryTimestamp",
          "type": "uint256"
        },
        {
          "internalType": "enum GlobalProposal.TargetOption[]",
          "name": "targetOptions",
          "type": "uint8[]"
        },
        {
          "internalType": "uint256[]",
          "name": "values",
          "type": "uint256[]"
        },
        {
          "internalType": "bytes[]",
          "name": "calldatas",
          "type": "bytes[]"
        },
        {
          "internalType": "uint256[]",
          "name": "gasAmounts",
          "type": "uint256[]"
        }
      ],
      "name": "proposeGlobal",
      "outputs": [],
      "stateMutability": "nonpayable",
      "type": "function"
    },
    {
      "inputs": [
        {
          "components": [
            {
              "internalType": "uint256",
              "name": "nonce",
              "type": "uint256"
            },
            {
              "internalType": "uint256",
              "name": "expiryTimestamp",
              "type": "uint256"
            },
            {
              "internalType": "enum GlobalProposal.TargetOption[]",
              "name": "targetOptions",
              "type": "uint8[]"
            },
            {
              "internalType": "uint256[]",
              "name": "values",
              "type": "uint256[]"
            },
            {
              "internalType": "bytes[]",
              "name": "calldatas",
              "type": "bytes[]"
            },
            {
              "internalType": "uint256[]",
              "name": "gasAmounts",
              "type": "uint256[]"
            }
          ],
          "internalType": "struct GlobalProposal.GlobalProposalDetail",
          "name": "globalProposal",
          "type": "tuple"
        },
        {
          "internalType": "enum Ballot.VoteType[]",
          "name": "supports_",
          "type": "uint8[]"
        },
        {
          "components": [
            {
              "internalType": "uint8",
              "name": "v",
              "type": "uint8"
            },
            {
              "internalType": "bytes32",
              "name": "r",
              "type": "bytes32"
            },
            {
              "internalType": "bytes32",
              "name": "s",
              "type": "bytes32"
            }
          ],
          "internalType": "struct SignatureConsumer.Signature[]",
          "name": "signatures",
          "type": "tuple[]"
        }
      ],
      "name": "proposeGlobalProposalStructAndCastVotes",
      "outputs": [],
      "stateMutability": "nonpayable",
      "type": "function"
    },
    {
      "inputs": [
        {
          "internalType": "uint256",
          "name": "expiryTimestamp",
          "type": "uint256"
        },
        {
          "internalType": "address[]",
          "name": "targets",
          "type": "address[]"
        },
        {
          "internalType": "uint256[]",
          "name": "values",
          "type": "uint256[]"
        },
        {
          "internalType": "bytes[]",
          "name": "calldatas",
          "type": "bytes[]"
        },
        {
          "internalType": "uint256[]",
          "name": "gasAmounts",
          "type": "uint256[]"
        },
        {
          "internalType": "enum Ballot.VoteType",
          "name": "support",
          "type": "uint8"
        }
      ],
      "name": "proposeProposalForCurrentNetwork",
      "outputs": [],
      "stateMutability": "nonpayable",
      "type": "function"
    },
    {
      "inputs": [
        {
          "components": [
            {
              "internalType": "uint256",
              "name": "nonce",
              "type": "uint256"
            },
            {
              "internalType": "uint256",
              "name": "chainId",
              "type": "uint256"
            },
            {
              "internalType": "uint256",
              "name": "expiryTimestamp",
              "type": "uint256"
            },
            {
              "internalType": "address[]",
              "name": "targets",
              "type": "address[]"
            },
            {
              "internalType": "uint256[]",
              "name": "values",
              "type": "uint256[]"
            },
            {
              "internalType": "bytes[]",
              "name": "calldatas",
              "type": "bytes[]"
            },
            {
              "internalType": "uint256[]",
              "name": "gasAmounts",
              "type": "uint256[]"
            }
          ],
          "internalType": "struct Proposal.ProposalDetail",
          "name": "_proposal",
          "type": "tuple"
        },
        {
          "internalType": "enum Ballot.VoteType[]",
          "name": "_supports",
          "type": "uint8[]"
        },
        {
          "components": [
            {
              "internalType": "uint8",
              "name": "v",
              "type": "uint8"
            },
            {
              "internalType": "bytes32",
              "name": "r",
              "type": "bytes32"
            },
            {
              "internalType": "bytes32",
              "name": "s",
              "type": "bytes32"
            }
          ],
          "internalType": "struct SignatureConsumer.Signature[]",
          "name": "_signatures",
          "type": "tuple[]"
        }
      ],
      "name": "proposeProposalStructAndCastVotes",
      "outputs": [],
      "stateMutability": "nonpayable",
      "type": "function"
    },
    {
      "inputs": [
        {
          "internalType": "address[]",
          "name": "registers",
          "type": "address[]"
        }
      ],
      "name": "registerCallbacks",
      "outputs": [
        {
          "internalType": "bool[]",
          "name": "registereds",
          "type": "bool[]"
        }
      ],
      "stateMutability": "nonpayable",
      "type": "function"
    },
    {
      "inputs": [
        {
          "internalType": "address[]",
          "name": "bridgeOperators",
          "type": "address[]"
        }
      ],
      "name": "removeBridgeOperators",
      "outputs": [
        {
          "internalType": "bool[]",
          "name": "removeds",
          "type": "bool[]"
        }
      ],
      "stateMutability": "nonpayable",
      "type": "function"
    },
    {
      "inputs": [
        {
          "internalType": "enum GlobalProposal.TargetOption[]",
          "name": "targetOptions",
          "type": "uint8[]"
        }
      ],
      "name": "resolveTargets",
      "outputs": [
        {
          "internalType": "address[]",
          "name": "targets",
          "type": "address[]"
        }
      ],
      "stateMutability": "view",
      "type": "function"
    },
    {
      "inputs": [
        {
          "internalType": "uint256",
          "name": "",
          "type": "uint256"
        }
      ],
      "name": "round",
      "outputs": [
        {
          "internalType": "uint256",
          "name": "",
          "type": "uint256"
        }
      ],
      "stateMutability": "view",
      "type": "function"
    },
    {
      "inputs": [
        {
          "internalType": "enum ContractType",
          "name": "contractType",
          "type": "uint8"
        },
        {
          "internalType": "address",
          "name": "addr",
          "type": "address"
        }
      ],
      "name": "setContract",
      "outputs": [],
      "stateMutability": "nonpayable",
      "type": "function"
    },
    {
      "inputs": [
        {
          "internalType": "uint256",
          "name": "numerator",
          "type": "uint256"
        },
        {
          "internalType": "uint256",
          "name": "denominator",
          "type": "uint256"
        }
      ],
      "name": "setThreshold",
      "outputs": [
        {
          "internalType": "uint256",
          "name": "",
          "type": "uint256"
        },
        {
          "internalType": "uint256",
          "name": "",
          "type": "uint256"
        }
      ],
      "stateMutability": "nonpayable",
      "type": "function"
    },
    {
      "inputs": [
        {
          "internalType": "address[]",
          "name": "governors",
          "type": "address[]"
        }
      ],
      "name": "sumGovernorsWeight",
      "outputs": [
        {
          "internalType": "uint256",
          "name": "sum",
          "type": "uint256"
        }
      ],
      "stateMutability": "view",
      "type": "function"
    },
    {
      "inputs": [],
      "name": "totalBridgeOperator",
      "outputs": [
        {
          "internalType": "uint256",
          "name": "",
          "type": "uint256"
        }
      ],
      "stateMutability": "view",
      "type": "function"
    },
    {
      "inputs": [
        {
          "internalType": "address[]",
          "name": "registers",
          "type": "address[]"
        }
      ],
      "name": "unregisterCallbacks",
      "outputs": [
        {
          "internalType": "bool[]",
          "name": "unregistereds",
          "type": "bool[]"
        }
      ],
      "stateMutability": "nonpayable",
      "type": "function"
    },
    {
      "inputs": [
        {
          "internalType": "address",
          "name": "newBridgeOperator",
          "type": "address"
        }
      ],
      "name": "updateBridgeOperator",
      "outputs": [],
      "stateMutability": "nonpayable",
      "type": "function"
    },
    {
      "inputs": [
        {
          "internalType": "enum GlobalProposal.TargetOption[]",
          "name": "targetOptions",
          "type": "uint8[]"
        },
        {
          "internalType": "address[]",
          "name": "targets",
          "type": "address[]"
        }
      ],
      "name": "updateManyTargetOption",
      "outputs": [],
      "stateMutability": "nonpayable",
      "type": "function"
    },
    {
      "inputs": [
        {
          "internalType": "uint256",
          "name": "",
          "type": "uint256"
        },
        {
          "internalType": "uint256",
          "name": "",
          "type": "uint256"
        }
      ],
      "name": "vote",
      "outputs": [
        {
          "internalType": "enum VoteStatusConsumer.VoteStatus",
          "name": "status",
          "type": "uint8"
        },
        {
          "internalType": "bytes32",
          "name": "hash",
          "type": "bytes32"
        },
        {
          "internalType": "uint256",
          "name": "againstVoteWeight",
          "type": "uint256"
        },
        {
          "internalType": "uint256",
          "name": "forVoteWeight",
          "type": "uint256"
        },
        {
          "internalType": "uint256",
          "name": "expiryTimestamp",
          "type": "uint256"
        }
      ],
      "stateMutability": "view",
      "type": "function"
    }
  ],
  "transactionHash": "0x7ba4b031021384dd89c560cded5c90ea350724a61e00d48c45cf36004d5aa522",
  "args": [
    70,
    100,
    2020,
    1209600,
    "0x0cf8ff40a508bdbc39fbe1bb679dcba64e65c7df",
    [
      "0x323092aB0900281EFd0EF5954B0A612ce7755F9C"
    ],
    [
      "0x32015E8B982c61bc8a593816FdBf03A603EEC823"
    ],
    [
      "0x3200A8eb56767c3760e108Aa27C65bfFF036d8E6"
    ],
    [
      100
    ],
    [
      1,
      2,
      3,
      4
    ],
    [
      "0x0cf8ff40a508bdbc39fbe1bb679dcba64e65c7df",
      "0x1C952D6717eBFd2E92E5f43Ef7C1c3f7677F007D",
      "0x323092aB0900281EFd0EF5954B0A612ce7755F9C",
      "0x232974a8F8357027056B0A87f90fB5115baF0573"
    ]
  ],
  "numDeployments": 1,
  "solcInputHash": "03301f9cfaf1eb8782a7c2a7b1973053",
  "bytecode": "0x60a0604052604051620079f9380380620079f98339810160408190526200002691620015fd565b8181898d8d8d8c8c8c8c8c836200003d81620001ba565b50506200006c6001600080516020620079d983398151915260001b620002d760201b620012641790919060201c565b620000788888620002db565b5062000088905060028662000451565b604080516020808201839052600c60608301526b212924a223a2afa0a226a4a760a11b6080808401919091528284018a905283518084038201815260a0840185528051908301207f599a80fcaa47b95e2323ab4d34d34e0cc9feda4b843edafcc30c7bdf60ea15bf60c08501527f9d3fa1662ea89365eb7af36506f0ad5413bd7e078960d8481ff4718763aaa8e960e08501527fad7c5bef027816a800da1736444fb58a807ef4c9603b7848673f7e3a68eb14a561010085015261012080850191909152845180850390910181526101409093019093528151910120905262000173818385620004fb565b5050505050505050506200018d816200099060201b60201c565b506200019b600030620009c3565b620001a7828262000a5f565b5050505050505050505050505062001aaf565b606081620001c88162000b23565b8251806001600160401b03811115620001e557620001e56200141c565b6040519080825280602002602001820160405280156200020f578160200160208202803683370190505b50925080600003620002225750620002d1565b6000805160206200799983398151915260006314d72edb60e21b815b84811015620002cb578781815181106200025c576200025c62001769565b60200260200101519250620002778362000b6b60201b60201c565b62000283838362000ba3565b6200029d838562000d5260201b620012681790919060201c565b878281518110620002b257620002b262001769565b911515602092830291909101909101526001016200023e565b50505050505b50919050565b9055565b6000808284111562000319576000356001600160e01b0319166040516387f6f09560e01b81526004016200031091906200177f565b60405180910390fd5b62000341600080516020620079b983398151915260001b62000d7260201b6200127d1760201c565b91506200037c7fac1ff16a4f04f2a37a9ba5252a69baa100b460e517d1f8019c054a5ad698f9ff60001b62000d7260201b6200127d1760201c565b9050620003aa84600080516020620079b983398151915260001b620002d760201b620012641790919060201c565b620003e7837fac1ff16a4f04f2a37a9ba5252a69baa100b460e517d1f8019c054a5ad698f9ff60001b620002d760201b620012641790919060201c565b828462000411600080516020620079d983398151915260001b62000d7660201b620012811760201c565b60408051868152602081018690527f976f8a9c5bdf8248dec172376d6e2b80a8e3df2f0328e381c6db8e1cf138c0f8910160405180910390a49250929050565b807fdea3103d22025c269050bea94c0c84688877f12fa22b7e6d2d5d78a9a49aa1cb600084600f8111156200048a576200048a62001794565b60ff168152602081019190915260400160002080546001600160a01b0319166001600160a01b03928316179055811682600f811115620004ce57620004ce62001794565b6040517f865d1c228a8ea13709cfe61f346f7ff67f1bbd4a18ff31ad3e7147350d317c5990600090a35050565b606062000517828462000d9a60201b6200129c1790919060201c565b620005228162000b23565b8251855181148015620005355750845181145b62000563576000356001600160e01b0319166040516306b5667560e21b81526004016200031091906200177f565b806001600160401b038111156200057e576200057e6200141c565b604051908082528060200260200182016040528015620005a8578160200160208202803683370190505b50925080600003620005bb575062000988565b604080518082019091526000808252602082018190527f546f6b46ab35b030b6816596b352aef78857377176c8b24baa2046a62cf1998c917f8400683eb2cb350596d73644c0c89fe45f108600003457374f4ab3e87b4f3aa3917fd38c234075fde25875da8a6b7e36b58b86681d483271a99eeeee1d78e258a24d917f88547008e60f5748911f2e59feb3093b7e4c2e87b2dd69d61f112fcc932de8e3919081908190815b89811015620008c9578d81815181106200067e576200067e62001769565b602002602001015194508c81815181106200069d576200069d62001769565b60200260200101519350620006b88562000eb860201b60201c565b620006c38462000eb8565b8e8181518110620006d857620006d862001769565b60200260200101516001600160601b03166000036200071a576000356001600160e01b031916604051637f11b8a360e11b81526004016200031091906200177f565b62000734858a62000ef060201b620013a61790919060201c565b8062000755575062000755848a62000ef060201b620013a61790919060201c565b8062000776575062000776858862000ef060201b620013a61790919060201c565b8062000797575062000797848862000ef060201b620013a61790919060201c565b158c8281518110620007ad57620007ad62001769565b6020026020010190151590811515815250508b8181518110620007d457620007d462001769565b602002602001015115620008c057620007fc858a62000d5260201b620012681790919060201c565b5062000817848862000d5260201b620012681790919060201c565b506001600160a01b03848116600081815260208b90526040902080546001600160a01b0319169288169290921790915582528e518f908290811062000860576200086062001769565b6020908102919091018101516001600160601b0316908301819052620008879084620017aa565b6001600160a01b038087166000908152602089815260409091208551918601516001600160601b0316600160a01b029190921617905592505b60010162000660565b5062000907827f6924fe71b0c8b61aea02ca498b5f53b29bd95726278b1fe4eb791bb24a42644c60001b62000f1360201b620013bb1790919060201c565b506200093f635ebae8a060e01b8d8d6040516020016200092992919062001846565b60408051601f1981840301815291905262000f2d565b7f897810999654e525e272b5909785c4d0ceaee1bbf9c87d9091a37558b0423b788b8f8f8f60405162000976949392919062001878565b60405180910390a15050505050505050505b509392505050565b600281905560405181907fe5cd1c123a8cf63fa1b7229678db61fe8ae99dbbd27889370b6667c8cae97da190600090a250565b8060036000846004811115620009dd57620009dd62001794565b6004811115620009f157620009f162001794565b8152602081019190915260400160002080546001600160a01b0319166001600160a01b03928316179055811682600481111562000a325762000a3262001794565b6040517f356c8c57e9e84b99b1cb58b13c985b2c979f78cbdf4d0fa70fe2a98bb09a099d90600090a35050565b60005b825181101562000b1e57306001600160a01b031682828151811062000a8b5762000a8b62001769565b60200260200101516001600160a01b03160362000acb576000356001600160e01b03191660405163053265f160e01b81526004016200031091906200177f565b62000b1583828151811062000ae45762000ae462001769565b602002602001015183838151811062000b015762000b0162001769565b6020026020010151620009c360201b60201c565b60010162000a62565b505050565b62000b39816200127360201b620013d21760201c565b1562000b68576000356001600160e01b031916604051630d697db160e11b81526004016200031091906200177f565b50565b806001600160a01b03163b60000362000b6857604051630bfc64a360e21b81526001600160a01b038216600482015260240162000310565b60008160405160240162000bb891906200177f565b60408051601f198184030181529181526020820180516001600160e01b03166301ffc9a760e01b1790525190915060009081906001600160a01b0386169062000c039085906200192e565b600060405180830381855afa9150503d806000811462000c40576040519150601f19603f3d011682016040523d82523d6000602084013e62000c45565b606091505b50915091508162000d1157846001600160a01b03168360405160240162000c6d91906200197a565b60408051601f198184030181529181526020820180516001600160e01b03166325da93a560e11b1790525162000ca491906200192e565b600060405180830381855afa9150503d806000811462000ce1576040519150601f19603f3d011682016040523d82523d6000602084013e62000ce6565b606091505b5090925090508162000d1157838560405163069d427960e11b8152600401620003109291906200198f565b8080602001905181019062000d279190620019b2565b62000d4b57838560405163069d427960e11b8152600401620003109291906200198f565b5050505050565b600062000d69836001600160a01b0384166200131e565b90505b92915050565b5490565b600062000d81825490565b905062000d9582620002d7836001620017aa565b919050565b81518151606091908082016001600160401b0381111562000dbf5762000dbf6200141c565b60405190808252806020026020018201604052801562000de9578160200160208202803683370190505b50925060005b8281101562000e4b5785818151811062000e0d5762000e0d62001769565b602002602001015184828151811062000e2a5762000e2a62001769565b6001600160a01b039092166020928302919091019091015260010162000def565b60005b8281101562000eae5785818151811062000e6c5762000e6c62001769565b602002602001015185838151811062000e895762000e8962001769565b6001600160a01b03909216602092830291909101909101526001918201910162000e4e565b5050505092915050565b6001600160a01b03811662000b68576000356001600160e01b03191660405163104c66df60e31b81526004016200031091906200177f565b6001600160a01b0381166000908152600183016020526040812054151562000d69565b600062000d6c8362000f26818562001370565b9250829055565b600062000f54600080516020620079998339815191526200139060201b620014711760201c565b8051909150600081900362000f695750505050565b6000816001600160401b0381111562000f865762000f866200141c565b60405190808252806020026020018201604052801562000fb0578160200160208202803683370190505b5090506000826001600160401b0381111562000fd05762000fd06200141c565b6040519080825280602002602001820160405280156200100557816020015b606081526020019060019003908162000fef5790505b509050600086866040516020016200101f929190620019d6565b60405160208183030381529060405290506000816040516024016200104591906200197a565b60408051601f198184030181529190526020810180516001600160e01b03166325da93a560e11b179052905060005b85811015620012295786818151811062001092576200109262001769565b60200260200101516001600160a01b031683604051620010b391906200192e565b6000604051808303816000865af19150503d8060008114620010f2576040519150601f19603f3d011682016040523d82523d6000602084013e620010f7565b606091505b508683815181106200110d576200110d62001769565b6020026020010186848151811062001129576200112962001769565b602002602001018290528215151515815250505084818151811062001152576200115262001769565b6020026020010151620012205786818151811062001174576200117462001769565b60200260200101516001600160a01b0316826040516200119591906200192e565b6000604051808303816000865af19150503d8060008114620011d4576040519150601f19603f3d011682016040523d82523d6000602084013e620011d9565b606091505b50868381518110620011ef57620011ef62001769565b602002602001018684815181106200120b576200120b62001769565b60200260200101829052821515151581525050505b60010162001074565b507fc0b07a27e66788f39cc91405f012f34066b16f31b4bda9438c52f2dae0cc5b638287868660405162001261949392919062001a09565b60405180910390a15050505050505050565b600081516000036200128757506000919050565b60005b60018351038110156200131557600181015b83518110156200130b57838181518110620012bb57620012bb62001769565b60200260200101516001600160a01b0316848381518110620012e157620012e162001769565b60200260200101516001600160a01b03160362001302575060019392505050565b6001016200129c565b506001016200128a565b50600092915050565b6000818152600183016020526040812054620013675750815460018181018455600084815260208082209093018490558454848252828601909352604090209190915562000d6c565b50600062000d6c565b815481018181101562000d6c57634e487b7160005260116020526024601cfd5b606060006200139f83620013a6565b9392505050565b606081600001805480602002602001604051908101604052809291908181526020018280548015620013f857602002820191906000526020600020905b815481526020019060010190808311620013e3575b50505050509050919050565b80516001600160a01b038116811462000d9557600080fd5b634e487b7160e01b600052604160045260246000fd5b604051601f8201601f191681016001600160401b03811182821017156200145d576200145d6200141c565b604052919050565b60006001600160401b038211156200148157620014816200141c565b5060051b60200190565b600082601f8301126200149d57600080fd5b81516020620014b6620014b08362001465565b62001432565b82815260059290921b84018101918181019086841115620014d657600080fd5b8286015b84811015620014fc57620014ee8162001404565b8352918301918301620014da565b509695505050505050565b600082601f8301126200151957600080fd5b815160206200152c620014b08362001465565b82815260059290921b840181019181810190868411156200154c57600080fd5b8286015b84811015620014fc5780516001600160601b0381168114620015725760008081fd5b835291830191830162001550565b600082601f8301126200159257600080fd5b81516020620015a5620014b08362001465565b828152600592831b8501820192828201919087851115620015c557600080fd5b8387015b85811015620015f0578051828110620015e25760008081fd5b8452928401928401620015c9565b5090979650505050505050565b60008060008060008060008060008060006101608c8e0312156200162057600080fd5b8b519a5060208c0151995060408c0151985060608c015197506200164760808d0162001404565b60a08d01519097506001600160401b038111156200166457600080fd5b620016728e828f016200148b565b60c08e015190975090506001600160401b038111156200169157600080fd5b6200169f8e828f016200148b565b60e08e015190965090506001600160401b03811115620016be57600080fd5b620016cc8e828f016200148b565b6101008e015190955090506001600160401b03811115620016ec57600080fd5b620016fa8e828f0162001507565b6101208e015190945090506001600160401b038111156200171a57600080fd5b620017288e828f0162001580565b6101408e015190935090506001600160401b038111156200174857600080fd5b620017568e828f016200148b565b9150509295989b509295989b9093969950565b634e487b7160e01b600052603260045260246000fd5b6001600160e01b031991909116815260200190565b634e487b7160e01b600052602160045260246000fd5b8082018082111562000d6c57634e487b7160e01b600052601160045260246000fd5b600081518084526020808501945080840160005b83811015620018075781516001600160a01b031687529582019590820190600101620017e0565b509495945050505050565b600081518084526020808501945080840160005b838110156200180757815115158752958201959082019060010162001826565b6040815260006200185b6040830185620017cc565b82810360208401526200186f818562001812565b95945050505050565b6080815260006200188d608083018762001812565b82810360208481019190915286518083528782019282019060005b81811015620018cf5784516001600160601b031683529383019391830191600101620018a8565b50508481036040860152620018e58188620017cc565b925050508281036060840152620018fd8185620017cc565b979650505050505050565b60005b83811015620019255781810151838201526020016200190b565b50506000910152565b600082516200194281846020870162001908565b9190910192915050565b600081518084526200196681602086016020860162001908565b601f01601f19169290920160200192915050565b60208152600062000d6960208301846200194c565b6001600160e01b03199290921682526001600160a01b0316602082015260400190565b600060208284031215620019c557600080fd5b815180151581146200139f57600080fd5b6001600160e01b0319831681528151600090620019fb81600485016020870162001908565b919091016004019392505050565b60808152600062001a1e60808301876200194c565b60208382038185015262001a338288620017cc565b9150838203604085015262001a49828762001812565b915083820360608501528185518084528284019150828160051b85010183880160005b8381101562001a9e57601f1987840301855262001a8b8383516200194c565b9486019492509085019060010162001a6c565b50909b9a5050505050505050505050565b608051615eb262001ae760003960008181610355015281816105e8015281816108080152818161090201526111530152615eb26000f3fe608060405234801561001057600080fd5b50600436106101f85760003560e01c80624054b8146101fd57806301a5f43f1461021257806306aba0e11461023b57806309fcd8c7146102515780630a44fa43146102645780630b881830146102775780630f7c31891461028a5780631c905e391461029f5780631f425338146102c15780632c5e6520146102d45780632d6d7d73146102f75780632faf925d1461030a57806334d5f37b1461031d57806335da81211461033d5780633644e51514610350578063663ac011146103775780637de5dedd1461038a578063800eaab314610392578063828fc1a1146103a5578063865e6fd3146103b8578063901979d5146103cb5780639a7d3382146103f65780639b19dbfd146104095780639b2ee43714610411578063a1819f9a14610424578063a8a0e32c14610437578063b384abef1461044a578063b405aaf2146104a5578063b9c36209146104b8578063bc4e068f146104d9578063bc9182fd146104ec578063bc96180b146104ff578063c441c4a814610507578063cc7e6b3b1461051e578063d0a50db01461053e578063d78392f814610546578063dafae40814610559578063de981f1b1461056c578063e75235b81461058c578063e9c0349814610594578063f80b5352146105a7578063fb4f6371146105af578063fdc4fa47146105c2575b600080fd5b61021061020b366004614a6b565b6105d5565b005b610225610220366004614aff565b610614565b6040516102329190614bd5565b60405180910390f35b6102436106c7565b604051908152602001610232565b61021061025f366004614be8565b6106e4565b610243610272366004614cb7565b610779565b610210610285366004614a6b565b6107fe565b61029261082c565b6040516102329190614d31565b6102b26102ad366004614d44565b61083e565b60405161023293929190614d90565b6102256102cf366004614cb7565b61085a565b6102e76102e2366004614e58565b6108a7565b6040519015158152602001610232565b610292610305366004614cb7565b6108b4565b610210610318366004614e8d565b6108f8565b61024361032b366004614ee6565b60006020819052908152604090205481565b61022561034b366004614cb7565b610926565b6102437f000000000000000000000000000000000000000000000000000000000000000081565b610210610385366004614f0e565b61096c565b610243610a59565b6102106103a0366004615185565b610ad5565b6102e76103b33660046151e8565b610b1a565b6102106103c6366004615223565b610b28565b6103de6103d936600461524d565b610b43565b6040516001600160601b039091168152602001610232565b610210610404366004614d44565b610b97565b610292610be3565b61021061041f36600461524d565b610bed565b610210610432366004615268565b610d6d565b610210610445366004615341565b610e34565b610494610458366004614d44565b600160208181526000938452604080852090915291835291208054918101546002820154600383015460069093015460ff909416939192909185565b604051610232959493929190615395565b6102e76104b336600461524d565b610e50565b6104cb6104c6366004614d44565b610e64565b6040516102329291906153c3565b6102b26104e7366004614ee6565b610e85565b6102926104fa3660046153d1565b610ea2565b610243610f90565b61050f610f9b565b6040516102329392919061543e565b61053161052c366004614cb7565b610fc5565b6040516102329190615481565b610243611003565b6103de61055436600461524d565b611015565b6102e7610567366004614ee6565b611020565b61057f61057a366004615494565b61105d565b60405161023291906154af565b6104cb6110bf565b6102256105a2366004614cb7565b6110f0565b610292611136565b6102106105bd366004614e8d565b611140565b6102926105d0366004614cb7565b611180565b6105de3361147e565b61060d85858585857f0000000000000000000000000000000000000000000000000000000000000000336114c3565b5050505050565b606061061e611568565b6106bc87878080602002602001604051908101604052809392919081815260200183836020028082843760009201919091525050604080516020808b0282810182019093528a82529093508a92508991829185019084908082843760009201919091525050604080516020808a0282810182019093528982529093508992508891829185019084908082843760009201919091525061159892505050565b979650505050505050565b60006106df600080516020615e868339815191525490565b905090565b6106ed3361147e565b61076e89898989898080602002602001604051908101604052809392919081815260200183836020028082843760009201919091525061073392508a91508b905061558e565b8787808060200260200160405190810160405280939291908181526020018383602002808284376000920191909152503392506118e5915050565b505050505050505050565b60008282808060200260200160405190810160405280939291908181526020018383602002808284376000920191909152506107ba9250839150611a2f9050565b6107f6848480806020026020016040519081016040528093929190818152602001838360200280828437600092019190915250611a6492505050565b949350505050565b61060d85858585857f0000000000000000000000000000000000000000000000000000000000000000611ae5565b60606106df610839611b90565b611471565b606080606061084d8585611bb4565b9250925092509250925092565b6060610864611568565b6108a0838380806020026020016040519081016040528093929190818152602001838360200280828437600092019190915250611f8b92505050565b9392505050565b60006107f6848484612053565b60606108a083838080602002602001604051908101604052809392919081815260200183836020028082843760009201829052509250612076915050565b92915050565b61060d85858585857f00000000000000000000000000000000000000000000000000000000000000006121d0565b6060610930611568565b6108a08383808060200260200160405190810160405280939291908181526020018383602002808284376000920191909152506122ea92505050565b6109753361147e565b60003390506000610a3e468d8d8d80806020026020016040519081016040528093929190818152602001838360200280828437600081840152601f19601f820116905080830192505050505050508c8c80806020026020016040519081016040528093929190818152602001838360200280828437600092019190915250610a0392508d91508e905061558e565b8a8a808060200260200160405190810160405280939291908181526020018383602002808284376000920191909152508b92506123d9915050565b9050610a4b8282856124d5565b505050505050505050505050565b6000610a71600080516020615e268339815191525490565b6001610a89600080516020615e268339815191525490565b610ab7610aa2600080516020615e868339815191525490565b600080516020615e46833981519152906125cc565b610ac191906155b1565b610acb91906155c4565b6106df91906155d7565b333014610b0c576000356001600160e01b0319166040516307337e1960e41b8152600401610b0391906155f9565b60405180910390fd5b610b1682826125f7565b5050565b60006108a060008484612053565b610b30611568565b610b39816126a5565b610b1682826126d2565b600080610b4e61275d565b90506000610b5a612781565b6001600160a01b039485166000908152602093845260408082205490961681529252509190912054600160a01b90046001600160601b0316919050565b6000828152600160208181526040808420858552909152822090810154909103610bd45760405163713b099760e11b815260040160405180910390fd5b610bdd816127a5565b50505050565b60606106df6129ba565b610bf63361147e565b610bff816129c7565b6000610c09612781565b336000908152602082905260409020549091506001600160a01b039081169083168103610c4b5782604051630669b93360e31b8152600401610b0391906154af565b6000610c556129fc565b90506000610c638284612a20565b8015610c745750610c748286611268565b905080610c96578460405163080fab4b60e31b8152600401610b0391906154af565b6000610ca061275d565b6001600160a01b0385811660008181526020848152604080832080546001600160a01b0319908116909155948c16808452818420805433908816811790915584528b8352928190208054909516831790945583519081019290925291810191909152909150610d2a906364b18d0960e11b906060015b604051602081830303815290604052612a35565b6040516001600160a01b03808816919086169033907fcef34cd748f30a1b7a2f214fd1651779f79bc6c1be02785cad5c1f0ee877213d90600090a4505050505050565b610d763361147e565b610e278a8a8a8a8080602002602001604051908101604052809392919081815260200183836020028082843760009201919091525050604080516020808e0282810182019093528d82529093508d92508c918291850190849080828437600092019190915250610dec92508a91508b905061558e565b8787808060200260200160405190810160405280939291908181526020018383602002808284376000920191909152503392506123d9915050565b5050505050505050505050565b610e3d3361147e565b610b1633610e4a84615689565b836124d5565b60006108f282610e5e6129fc565b906113a6565b600080610e6f611568565b610e798484612d31565b915091505b9250929050565b6060806060610e95600085611bb4565b9250925092509193909250565b8051606090806001600160401b03811115610ebf57610ebf614feb565b604051908082528060200260200182016040528015610ee8578160200160208202803683370190505b5091506000610ef5612781565b905060005b82811015610f8857816000868381518110610f1757610f1761575d565b60200260200101516001600160a01b03166001600160a01b0316815260200190815260200160002060000160009054906101000a90046001600160a01b0316848281518110610f6857610f6861575d565b6001600160a01b0390921660209283029190910190910152600101610efa565b505050919050565b60006106df60025490565b6060806060610fa8612e26565b9250610fb383610ea2565b9150610fbe83612e33565b9050909192565b60606108a0838380806020026020016040519081016040528093929190818152602001838360200280828437600092019190915250612e3392505050565b60006106df6110106129fc565b612f19565b60006108f282612f23565b600061103b610aa2600080516020615e868339815191525490565b600080516020615e26833981519152546110559084615773565b101592915050565b6000611067612f5d565b600083600f81111561107b5761107b614d66565b60ff1681526020810191909152604001600020546001600160a01b03169050806110ba578160405163409140df60e11b8152600401610b03919061578a565b919050565b6000806110d8600080516020615e468339815191525490565b600080516020615e2683398151915254915091509091565b60606110fa611568565b6108a0838380806020026020016040519081016040528093929190818152602001838360200280828437600092019190915250612f8192505050565b60606106df612e26565b6111493361147e565b61117885858585857f000000000000000000000000000000000000000000000000000000000000000033613237565b505050505050565b606081806001600160401b0381111561119b5761119b614feb565b6040519080825280602002602001820160405280156111c4578160200160208202803683370190505b50915060006111d161275d565b905060005b8281101561125b578160008787848181106111f3576111f361575d565b9050602002016020810190611208919061524d565b6001600160a01b039081168252602082019290925260400160002054855191169085908390811061123b5761123b61575d565b6001600160a01b03909216602092830291909101909101526001016111d6565b50505092915050565b9055565b60006108a0836001600160a01b038416613286565b5490565b600061128b825490565b90506110ba826112648360016155b1565b81518151606091908082016001600160401b038111156112be576112be614feb565b6040519080825280602002602001820160405280156112e7578160200160208202803683370190505b50925060005b82811015611341578581815181106113075761130761575d565b60200260200101518482815181106113215761132161575d565b6001600160a01b03909216602092830291909101909101526001016112ed565b60005b8281101561139c5785818151811061135e5761135e61575d565b60200260200101518583815181106113785761137861575d565b6001600160a01b039092166020928302919091019091015260019182019101611344565b5050505092915050565b60006108a0836001600160a01b0384166132d0565b60006108f2836113cb85856132e8565b9250829055565b600081516000036113e557506000919050565b60005b600183510381101561146857600181015b835181101561145f578381815181106114145761141461575d565b60200260200101516001600160a01b03168483815181106114375761143761575d565b60200260200101516001600160a01b031603611457575060019392505050565b6001016113f9565b506001016113e8565b50600092915050565b606060006108a083613307565b61148781612f23565b6001600160601b03166000036114c0576000356001600160e01b0319166003604051620f948f60ea1b8152600401610b039291906157a4565b50565b6114d56114cf88615689565b82613363565b5060006114e96114e489615689565b613450565b905061155e6114f789615689565b8888888861154a8961150a89600061358f565b60405161190160f01b6020820152602281018390526042810182905260009060620160405160208183030381529060405280519060200120905092915050565b6115598a61150a8a600161358f565b6135c8565b5050505050505050565b333014611596576000356001600160e01b0319166040516307337e1960e41b8152600401610b0391906155f9565b565b60606115a4838361129c565b6115ad81611a2f565b82518551811480156115bf5750845181145b6115ea576000356001600160e01b0319166040516306b5667560e21b8152600401610b0391906155f9565b806001600160401b0381111561160257611602614feb565b60405190808252806020026020018201604052801561162b578160200160208202803683370190505b5092508060000361163c57506118dd565b600061164661382d565b9050600061165261275d565b9050600061165e6129fc565b9050600061166a612781565b9050600080600061167961492b565b60005b8981101561185e578d81815181106116965761169661575d565b602002602001015194508c81815181106116b2576116b261575d565b602002602001015193506116c5856129c7565b6116ce846129c7565b8e81815181106116e0576116e061575d565b60200260200101516001600160601b031660000361171f576000356001600160e01b031916604051637f11b8a360e11b8152600401610b0391906155f9565b61172989866113a6565b80611739575061173989856113a6565b80611749575061174987866113a6565b80611759575061175987856113a6565b158c828151811061176c5761176c61575d565b6020026020010190151590811515815250508b81815181106117905761179061575d565b602002602001015115611856576117a78986611268565b506117b28785611268565b506001600160a01b03848116600081815260208b90526040902080546001600160a01b0319169288169290921790915582528e518f90829081106117f8576117f861575d565b6020908102919091018101516001600160601b031690830181905261181d90846155b1565b6001600160a01b038087166000908152602089815260409091208551918601516001600160601b0316600160a01b029190921617905592505b60010161167c565b50611877600080516020615e86833981519152836113bb565b50611896635ebae8a060e01b8d8d604051602001610d169291906157d2565b7f897810999654e525e272b5909785c4d0ceaee1bbf9c87d9091a37558b0423b788b8f8f8f6040516118cb9493929190615800565b60405180910390a15050505050505050505b509392505050565b60006118f16000613851565b905060006040518060c001604052808381526020018a8152602001898980806020026020016040519081016040528093929190818152602001838360200280828437600092018290525093855250505060208083018a905260408084018a9052606090930188905282518b820281810183019094528b815293945090926119a29261199b928d918d9182919085019084908082843760009201919091525060019250612076915050565b8390613901565b90506119b9600254826139f390919063ffffffff16565b60006119c482613450565b6000858152600080516020615de6833981519152602052604090209091506119ed90828d613a94565b8084600080516020615e6683398151915284611a0887613aa4565b878a604051611a1a9493929190615998565b60405180910390a35050505050505050505050565b611a38816113d2565b156114c0576000356001600160e01b031916604051630d697db160e11b8152600401610b0391906155f9565b600081611a7081611a2f565b6000611a7a612781565b905060005b8451811015610f8857816000868381518110611a9d57611a9d61575d565b6020908102919091018101516001600160a01b0316825281019190915260400160002054611adb90600160a01b90046001600160601b0316856155b1565b9350600101611a7f565b6000611af36114e488615689565b6020808901356000908152600180835260408083208c35845290935291902001549091508114611b59576020808801356000908152600180835260408083208b3584529093529082902001549051632bee7fdb60e21b8152610b039183916004016153c3565b611b87611b6588615689565b87878787611b788861150a89600061358f565b6115598961150a8a600161358f565b50505050505050565b7f5da136eb38f8d8e354915fc8a767c0dc81d49de5fb65d5477122a82ddd97624090565b60008281526001602090815260408083208484529091528120600481015460058201546060938493849390929091611bec82846155b1565b9050806001600160401b03811115611c0657611c06614feb565b604051908082528060200260200182016040528015611c2f578160200160208202803683370190505b509550806001600160401b03811115611c4a57611c4a614feb565b604051908082528060200260200182016040528015611c8357816020015b611c70614942565b815260200190600190039081611c685790505b509450806001600160401b03811115611c9e57611c9e614feb565b604051908082528060200260200182016040528015611cc7578160200160208202803683370190505b50965060005b83811015611e1c576000878281518110611ce957611ce961575d565b60200260200101906001811115611d0257611d02614d66565b90816001811115611d1557611d15614d66565b90525060008a81526001602090815260408083208c845290915281206004870180546007909201929184908110611d4e57611d4e61575d565b60009182526020808320909101546001600160a01b0316835282810193909352604091820190208151606081018352815460ff16815260018201549381019390935260020154908201528651879083908110611dac57611dac61575d565b6020026020010181905250846004018181548110611dcc57611dcc61575d565b9060005260206000200160009054906101000a90046001600160a01b0316888281518110611dfc57611dfc61575d565b6001600160a01b0390921660209283029190910190910152600101611ccd565b5060005b82811015611f7f57600187611e3586846155b1565b81518110611e4557611e4561575d565b60200260200101906001811115611e5e57611e5e614d66565b90816001811115611e7157611e71614d66565b90525060008a81526001602090815260408083208c845290915281206005870180546007909201929184908110611eaa57611eaa61575d565b60009182526020808320909101546001600160a01b0316835282810193909352604091820190208151606081018352815460ff168152600182015493810193909352600201549082015286611eff86846155b1565b81518110611f0f57611f0f61575d565b6020026020010181905250846005018181548110611f2f57611f2f61575d565b6000918252602090912001546001600160a01b031688611f4f86846155b1565b81518110611f5f57611f5f61575d565b6001600160a01b0390921660209283029190910190910152600101611e20565b50505050509250925092565b606081611f9781611a2f565b8251806001600160401b03811115611fb157611fb1614feb565b604051908082528060200260200182016040528015611fda578160200160208202803683370190505b5092506000611fe7611b90565b905060005b8281101561204a576120208682815181106120095761200961575d565b602002602001015183612a2090919063ffffffff16565b8582815181106120325761203261575d565b91151560209283029190910190910152600101611fec565b50505050919050565b600083815260016020908152604080832085845290915281206107f69083613bdb565b606082516001600160401b0381111561209157612091614feb565b6040519080825280602002602001820160405280156120ba578160200160208202803683370190505b50905060005b83518110156121c957600360008583815181106120df576120df61575d565b602002602001015160048111156120f8576120f8614d66565b600481111561210957612109614d66565b815260200190815260200160002060009054906101000a90046001600160a01b031682828151811061213d5761213d61575d565b60200260200101906001600160a01b031690816001600160a01b031681525050828015612195575060006001600160a01b03168282815181106121825761218261575d565b60200260200101516001600160a01b0316145b156121c1576000356001600160e01b03191660405163053265f160e01b8152600401610b0391906155f9565b6001016120c0565b5092915050565b600061222e61221f6121e560408a018a615a7f565b8080602002602001604051908101604052809392919081815260200183836020028082843760009201919091525060019250612076915050565b61222889615ac8565b90613901565b9050600061223b82613450565b60008080526001602081815285518352600080516020615de683398151915290526040909120015490915081146122af5760008080526001602081815284518352600080516020615de6833981519152905260409182902001549051632bee7fdb60e21b8152610b039183916004016153c3565b60006122c26122bd8a615ac8565b613aa4565b905061076e83898989896122db8a61150a89600061358f565b6115598b61150a8a600161358f565b6060816122f681611a2f565b8251806001600160401b0381111561231057612310614feb565b604051908082528060200260200182016040528015612339578160200160208202803683370190505b5092508060000361234a57506123d3565b6000612354611b90565b905060006314d72edb60e21b815b848110156123cd5787818151811061237c5761237c61575d565b6020026020010151925061238f836126a5565b6123998383613bfd565b6123a38484611268565b8782815181106123b5576123b561575d565b91151560209283029190910190910152600101612362565b50505050505b50919050565b6123e1614962565b87600003612415576000356001600160e01b03191660004660405163092048d160e11b8152600401610b0393929190615b92565b600061242089613851565b90506040518060e001604052808281526020018a815260200189815260200188815260200187815260200186815260200185815250915061246c600254836139f390919063ffffffff16565b600061247783613450565b60008b8152600160209081526040808320868452909152902090915061249e90828b613a94565b80828b600080516020615e0683398151915286886040516124c0929190615bb4565b60405180910390a45050979650505050505050565b4682602001511461250e57602082015160405163092048d160e11b8152610b03916001600160e01b031960003516914690600401615b92565b600061251983613450565b602080850151600090815260018083526040808320885184529093529190200154909150811461257f57602080840151600090815260018083526040808320875184529093529082902001549051632bee7fdb60e21b8152610b039183916004016153c3565b6000612589613d90565b9050600081612596613d9a565b6125a091906155c4565b6125ab9060016155b1565b90506125b5614942565b61155e868685858b866125c78e613da4565b613dbe565b6000825480156121c957828102915080820483146121c957634e487b7160005260116020526024601cfd5b60005b82518110156126a057306001600160a01b031682828151811061261f5761261f61575d565b60200260200101516001600160a01b03160361265c576000356001600160e01b03191660405163053265f160e01b8152600401610b0391906155f9565b6126988382815181106126715761267161575d565b602002602001015183838151811061268b5761268b61575d565b60200260200101516140ea565b6001016125fa565b505050565b806001600160a01b03163b6000036114c05780604051630bfc64a360e21b8152600401610b0391906154af565b806126db612f5d565b600084600f8111156126ef576126ef614d66565b60ff168152602081019190915260400160002080546001600160a01b0319166001600160a01b03928316179055811682600f81111561273057612730614d66565b6040517f865d1c228a8ea13709cfe61f346f7ff67f1bbd4a18ff31ad3e7147350d317c5990600090a35050565b7f8400683eb2cb350596d73644c0c89fe45f108600003457374f4ab3e87b4f3aa390565b7f88547008e60f5748911f2e59feb3093b7e4c2e87b2dd69d61f112fcc932de8e390565b600080825460ff1660048111156127be576127be614d66565b1480156127cf575042826006015411155b905080156110ba5760018201546040517f58f98006a7f2f253f8ae8f8b7cec9008ca05359633561cd7c22f3005682d4a5590600090a260005b60048301548110156128bb5782600801600084600401838154811061282f5761282f61575d565b60009182526020808320909101546001600160a01b031683528201929092526040018120805460ff1916905560048401805460078601929190849081106128785761287861575d565b60009182526020808320909101546001600160a01b031683528201929092526040018120805460ff19168155600181810183905560029091019190915501612808565b5060005b6005830154811015612972578260080160008460050183815481106128e6576128e661575d565b60009182526020808320909101546001600160a01b031683528201929092526040018120805460ff19169055600584018054600786019291908490811061292f5761292f61575d565b60009182526020808320909101546001600160a01b031683528201929092526040018120805460ff191681556001818101839055600290910191909155016128bf565b50815460ff1916825560006001830181905560028301819055600383018190556129a090600484019061499f565b6129ae60058301600061499f565b60006006830155919050565b60606106df6108396129fc565b6001600160a01b0381166114c0576000356001600160e01b03191660405163104c66df60e31b8152600401610b0391906155f9565b7fd38c234075fde25875da8a6b7e36b58b86681d483271a99eeeee1d78e258a24d90565b60006108a0836001600160a01b03841661417d565b6000612a42610839611b90565b80519091506000819003612a565750505050565b6000816001600160401b03811115612a7057612a70614feb565b604051908082528060200260200182016040528015612a99578160200160208202803683370190505b5090506000826001600160401b03811115612ab657612ab6614feb565b604051908082528060200260200182016040528015612ae957816020015b6060815260200190600190039081612ad45790505b50905060008686604051602001612b01929190615bde565b6040516020818303038152906040529050600081604051602401612b259190615c0f565b60408051601f198184030181529190526020810180516001600160e01b03166325da93a560e11b179052905060005b85811015612ce957868181518110612b6e57612b6e61575d565b60200260200101516001600160a01b031683604051612b8d9190615c22565b6000604051808303816000865af19150503d8060008114612bca576040519150601f19603f3d011682016040523d82523d6000602084013e612bcf565b606091505b50868381518110612be257612be261575d565b60200260200101868481518110612bfb57612bfb61575d565b6020026020010182905282151515158152505050848181518110612c2157612c2161575d565b6020026020010151612ce157868181518110612c3f57612c3f61575d565b60200260200101516001600160a01b031682604051612c5e9190615c22565b6000604051808303816000865af19150503d8060008114612c9b576040519150601f19603f3d011682016040523d82523d6000602084013e612ca0565b606091505b50868381518110612cb357612cb361575d565b60200260200101868481518110612ccc57612ccc61575d565b60200260200101829052821515151581525050505b600101612b54565b507fc0b07a27e66788f39cc91405f012f34066b16f31b4bda9438c52f2dae0cc5b6382878686604051612d1f9493929190615c3e565b60405180910390a15050505050505050565b60008082841115612d63576000356001600160e01b0319166040516387f6f09560e01b8152600401610b0391906155f9565b600080516020615e46833981519152549150612d8b600080516020615e268339815191525490565b9050612da4600080516020615e46833981519152859055565b612dbb600080516020615e26833981519152849055565b8284612de67f92872d32822c9d44b36a2537d3e0d4c46fc4de1ce154ccfaed560a8a58445f1d611281565b7f976f8a9c5bdf8248dec172376d6e2b80a8e3df2f0328e381c6db8e1cf138c0f88585604051612e179291906153c3565b60405180910390a49250929050565b60606106df61083961382d565b8051606090806001600160401b03811115612e5057612e50614feb565b604051908082528060200260200182016040528015612e79578160200160208202803683370190505b5091506000612e86612781565b905060005b82811015610f8857816000868381518110612ea857612ea861575d565b60200260200101516001600160a01b03166001600160a01b0316815260200190815260200160002060000160149054906101000a90046001600160601b0316848281518110612ef957612ef961575d565b6001600160601b0390921660209283029190910190910152600101612e8b565b60006108f2825490565b6000612f2d612781565b6001600160a01b0390921660009081526020929092525060409020546001600160601b03600160a01b9091041690565b7fdea3103d22025c269050bea94c0c84688877f12fa22b7e6d2d5d78a9a49aa1cb90565b606081612f8d81611a2f565b8251806001600160401b03811115612fa757612fa7614feb565b604051908082528060200260200182016040528015612fd0578160200160208202803683370190505b50925080600003612fe157506123d3565b6000612feb61275d565b90506000612ff761382d565b905060006130036129fc565b9050600061300f612781565b9050600080600061301e61492b565b60005b898110156131b7578c818151811061303b5761303b61575d565b6020908102919091018101516001600160a01b038082166000908152928c905260409092205490911695509350613071856129c7565b61307a846129c7565b6001600160a01b0385811660009081526020888152604091829020825180840190935254808416808452600160a01b9091046001600160601b031691830191909152909350908516146130ee576000356001600160e01b03191660405163053265f160e01b8152600401610b0391906155f9565b6130f887856113a6565b8015613109575061310988866113a6565b8c828151811061311b5761311b61575d565b6020026020010190151590811515815250508b818151811061313f5761313f61575d565b6020026020010151156131af576131568886612a20565b506131618785612a20565b506001600160a01b03808516600090815260208b8152604080832080546001600160a01b03191690559288168252888152918120558201516131ac906001600160601b0316846155b1565b92505b600101613021565b506131d0600080516020615e8683398151915283614270565b506131ef63c48549de60e01b8d8d604051602001610d169291906157d2565b7fdf3dcd7987202f64648f3acdbf12401e3a2bb23e77e19f99826b5475cbb863698b8d604051613220929190615c8b565b60405180910390a150505050505050505050919050565b61323f614962565b61325161324b89615ac8565b83614280565b905060006132616122bd8a615ac8565b905061327a82898989896122db8a61150a89600061358f565b50979650505050505050565b600061329283836132d0565b6132c8575081546001818101845560008481526020808220909301849055845484825282860190935260409020919091556108f2565b5060006108f2565b60009081526001919091016020526040902054151590565b81548101818110156108f257634e487b7160005260116020526024601cfd5b60608160000180548060200260200160405190810160405280929190818152602001828054801561335757602002820191906000526020600020905b815481526020019060010190808311613343575b50505050509050919050565b602082015160009080820361339e576000356001600160e01b03191660004660405163092048d160e11b8152600401610b0393929190615b92565b6002546133ac9085906139f3565b60006133b785613450565b90506133c282613851565b600083815260016020908152604080832084845290915290819020908701519194506133ef918390613a94565b8451831461341e576000356001600160e01b03191660405163d4cec26960e01b8152600401610b0391906155f9565b808383600080516020615e068339815191528888604051613440929190615bb4565b60405180910390a4505092915050565b6080810151606082015160a083015151600092919083906001600160401b0381111561347e5761347e614feb565b6040519080825280602002602001820160405280156134a7578160200160208202803683370190505b5060c086015190915060005b8251811015613506578660a0015181815181106134d2576134d261575d565b6020026020010151805190602001208382815181106134f3576134f361575d565b60209081029190910101526001016134b3565b50604080517fd051578048e6ff0bbc9fca3b65a42088dbde10f36ca841de566711087ad9b08a8152875160208083019190915280890151828401529790910151606082015283518702938701939093206080840152835186029386019390932060a0830152805185029085012060c082015281518402919093012060e083015250610100902090565b604080517fd900570327c4c0df8dd6bdd522b7da7e39145dd049d2fd4602276adcd511e3c2815260208101939093528201526060902090565b84158015906135d657508483145b613601576000356001600160e01b0319166040516306b5667560e21b8152600401610b0391906155f9565b600061360b613d90565b9050600081613618613d9a565b61362291906155c4565b61362d9060016155b1565b9050600080366000805b898110156137f1578a8a828181106136515761365161575d565b606002919091019350600090508d8d838181106136705761367061575d565b90506020020160208101906136859190615cb0565b600181111561369657613696614d66565b036136c2576136bb896136ac6020860186615cdc565b8560200135866040013561436d565b9350613739565b60018d8d838181106136d6576136d661575d565b90506020020160208101906136eb9190615cb0565b60018111156136fc576136fc614d66565b03613712576136bb886136ac6020860186615cdc565b6000356001600160e01b031916604051630612418f60e11b8152600401610b0391906155f9565b836001600160a01b0316856001600160a01b031610613779576000356001600160e01b031916604051635d3dcd3160e01b8152600401610b0391906155f9565b839450600061378785613da4565b905080156137e857600192506137d68f8f8f858181106137a9576137a961575d565b90506020020160208101906137be9190615cb0565b8a8a896137d0368b90038b018b615cf7565b87613dbe565b156137e8575050505050505050611b87565b50600101613637565b508061381e576000356001600160e01b03191660405163726b3acb60e01b8152600401610b0391906155f9565b50505050505050505050505050565b7f546f6b46ab35b030b6816596b352aef78857377176c8b24baa2046a62cf1998c90565b600081815260208190526040812054908190036138805750600090815260208190526040902060019081905590565b60008281526001602090815260408083208484529091528120906138a3826127a5565b9050806138fa576000825460ff1660048111156138c2576138c2614d66565b036138e05760405163757a436360e01b815260040160405180910390fd5b600084815260208190526040902080546001019081905592505b5050919050565b613909614962565b82518152602080840151604080840191909152600091830191909152830151516001600160401b0381111561394057613940614feb565b604051908082528060200260200182016040528015613969578160200160208202803683370190505b5060608083019190915283015160808083019190915283015160a08083019190915283015160c082015260005b8360400151518110156121c9578281815181106139b5576139b561575d565b6020026020010151826060015182815181106139d3576139d361575d565b6001600160a01b0390921660209283029190910190910152600101613996565b6000826060015151118015613a115750816080015151826060015151145b8015613a2657508160a0015151826060015151145b8015613a3b57508160c0015151826060015151145b613a66576000356001600160e01b0319166040516306b5667560e21b8152600401610b0391906155f9565b613a7081426155b1565b82604001511115610b165760405163ad89be9d60e01b815260040160405180910390fd5b6001830191909155600690910155565b60608101516040820151608083015151600092919083906001600160401b03811115613ad257613ad2614feb565b604051908082528060200260200182016040528015613afb578160200160208202803683370190505b5060a086015190915060005b8251811015613b5a5786608001518181518110613b2657613b2661575d565b602002602001015180519060200120838281518110613b4757613b4761575d565b6020908102919091010152600101613b07565b50604080517f1463f426c05aff2c1a7a0957a71c9898bc8b47142540538e79ee25ee911413508152875160208083019190915297880151918101919091528351870293870193909320606084015283518602938601939093206080830152805185029085012060a082015281518402919093012060c08301525060e0902090565b6001600160a01b03166000908152600891909101602052604090205460ff1690565b600081604051602401613c1091906155f9565b60408051601f198184030181529181526020820180516001600160e01b03166301ffc9a760e01b1790525190915060009081906001600160a01b03861690613c59908590615c22565b600060405180830381855afa9150503d8060008114613c94576040519150601f19603f3d011682016040523d82523d6000602084013e613c99565b606091505b509150915081613d5b57846001600160a01b031683604051602401613cbe9190615c0f565b60408051601f198184030181529181526020820180516001600160e01b03166325da93a560e11b17905251613cf39190615c22565b600060405180830381855afa9150503d8060008114613d2e576040519150601f19603f3d011682016040523d82523d6000602084013e613d33565b606091505b50909250905081613d5b57838560405163069d427960e11b8152600401610b03929190615d57565b80806020019051810190613d6f9190615d7a565b61060d57838560405163069d427960e11b8152600401610b03929190615d57565b60006106df610a59565b60006106df6106c7565b6000613daf82612f23565b6001600160601b031692915050565b60208088015188516000828152600184526040808220838352909452928320613de6816127a5565b15613df757600193505050506106bc565b6020808c015160009081529081905260409020548214613e38576000356001600160e01b03191660405163d4cec26960e01b8152600401610b0391906155f9565b6000815460ff166004811115613e5057613e50614d66565b14613e6e576040516322de95ff60e21b815260040160405180910390fd5b613e788188613bdb565b15613e98578660405163025fd59560e41b8152600401610b0391906154af565b6001600160a01b03871660009081526008820160209081526040909120805460ff19166001179055860151151580613ed35750604086015115155b80613ee15750855160ff1615155b15613f28576001600160a01b03871660009081526007820160209081526040918290208851815460ff191660ff909116178155908801516001820155908701516002909101555b866001600160a01b031681600101547f1203f9e81c814a35f5f4cc24087b2a24c6fb7986a9f1406b68a9484882c93a238c88604051613f68929190615d9c565b60405180910390a3600080808c6001811115613f8657613f86614d66565b03613fdb576004830180546001810182556000918252602082200180546001600160a01b0319166001600160a01b038c16179055600384018054899290613fce9084906155b1565b9250508190559150614040565b60018c6001811115613fef57613fef614d66565b03613712576005830180546001810182556000918252602082200180546001600160a01b0319166001600160a01b038c161790556002840180548992906140379084906155b1565b92505081905590505b8a821061409457825460ff19166001908117845580840154604051919750907f5c819725ea53655a3b898f3df59b66489761935454e9212ca1e5ebd759953d0b90600090a261408f838e614395565b6140da565b8981106140da57825460ff19166003178355600180840154604051919750907f55295d4ce992922fa2e5ffbf3a3dcdb367de0a15e125ace083456017fd22060f90600090a25b5050505050979650505050505050565b806003600084600481111561410157614101614d66565b600481111561411257614112614d66565b8152602081019190915260400160002080546001600160a01b0319166001600160a01b03928316179055811682600481111561415057614150614d66565b6040517f356c8c57e9e84b99b1cb58b13c985b2c979f78cbdf4d0fa70fe2a98bb09a099d90600090a35050565b600081815260018301602052604081205480156142665760006141a16001836155c4565b85549091506000906141b5906001906155c4565b905081811461421a5760008660000182815481106141d5576141d561575d565b90600052602060002001549050808760000184815481106141f8576141f861575d565b6000918252602080832090910192909255918252600188019052604090208390555b855486908061422b5761422b615daa565b6001900381819060005260206000200160009055905585600101600086815260200190815260200160002060009055600193505050506108f2565b60009150506108f2565b60006108f2836113cb8585614402565b614288614962565b6142a161429a84604001516001612076565b8490613901565b90506142b8600254826139f390919063ffffffff16565b60006142c382613450565b905060006142d16000613851565b6000818152600080516020615de68339815191526020908152604090912090870151919250614301918490613a94565b82518114614330576000356001600160e01b03191660405163d4cec26960e01b8152600401610b0391906155f9565b8181600080516020615e668339815191528561434b89613aa4565b898960405161435d9493929190615998565b60405180910390a3505092915050565b600080600061437e8787878761442b565b9150915061438b8161450e565b5095945050505050565b61439e816146bf565b15610b1657815460ff191660021782556000806143ba836146d9565b9150915083600101547fe134987599ae266ec90edeff1b26125b287dbb57b10822649432d1bb26537fba83836040516143f4929190615dc0565b60405180910390a250505050565b600082548281101561442157634e487b7160005260116020526024601cfd5b9190910392915050565b6000806fa2a8918ca85bafe22016d0b997e4df60600160ff1b038311156144585750600090506003614505565b8460ff16601b1415801561447057508460ff16601c14155b156144815750600090506004614505565b6040805160008082526020820180845289905260ff881692820192909252606081018690526080810185905260019060a0016020604051602081039080840390855afa1580156144d5573d6000803e3d6000fd5b5050604051601f1901519150506001600160a01b0381166144fe57600060019250925050614505565b9150600090505b94509492505050565b600081600481111561452257614522614d66565b0361452a5750565b600181600481111561453e5761453e614d66565b036145865760405162461bcd60e51b815260206004820152601860248201527745434453413a20696e76616c6964207369676e617475726560401b6044820152606401610b03565b600281600481111561459a5761459a614d66565b036145e75760405162461bcd60e51b815260206004820152601f60248201527f45434453413a20696e76616c6964207369676e6174757265206c656e677468006044820152606401610b03565b60038160048111156145fb576145fb614d66565b036146535760405162461bcd60e51b815260206004820152602260248201527f45434453413a20696e76616c6964207369676e6174757265202773272076616c604482015261756560f01b6064820152608401610b03565b600481600481111561466757614667614d66565b036114c05760405162461bcd60e51b815260206004820152602260248201527f45434453413a20696e76616c6964207369676e6174757265202776272076616c604482015261756560f01b6064820152608401610b03565b60008160200151600014806108f257505060200151461490565b6060806146e5836146bf565b61471757602083015160405163092048d160e11b8152610b03916001600160e01b031960003516914690600401615b92565b8260600151516001600160401b0381111561473457614734614feb565b60405190808252806020026020018201604052801561475d578160200160208202803683370190505b5091508260600151516001600160401b0381111561477d5761477d614feb565b6040519080825280602002602001820160405280156147b057816020015b606081526020019060019003908161479b5790505b50905060005b836060015151811015614925578360c0015181815181106147d9576147d961575d565b60200260200101515a1161480c576147f084613450565b6040516307aec4ab60e21b8152600401610b0391815260200190565b836060015181815181106148225761482261575d565b60200260200101516001600160a01b0316846080015182815181106148495761484961575d565b60200260200101518560c0015183815181106148675761486761575d565b6020026020010151908660a0015184815181106148865761488661575d565b602002602001015160405161489b9190615c22565b600060405180830381858888f193505050503d80600081146148d9576040519150601f19603f3d011682016040523d82523d6000602084013e6148de565b606091505b508483815181106148f1576148f161575d565b6020026020010184848151811061490a5761490a61575d565b602090810291909101019190915290151590526001016147b6565b50915091565b604080518082019091526000808252602082015290565b604080516060810182526000808252602082018190529181019190915290565b6040518060e00160405280600081526020016000815260200160008152602001606081526020016060815260200160608152602001606081525090565b50805460008255906000526020600020908101906114c091905b808211156149cd57600081556001016149b9565b5090565b600060e082840312156123d357600080fd5b60008083601f8401126149f557600080fd5b5081356001600160401b03811115614a0c57600080fd5b6020830191508360208260051b8501011115610e7e57600080fd5b60008083601f840112614a3957600080fd5b5081356001600160401b03811115614a5057600080fd5b602083019150836020606083028501011115610e7e57600080fd5b600080600080600060608688031215614a8357600080fd5b85356001600160401b0380821115614a9a57600080fd5b614aa689838a016149d1565b96506020880135915080821115614abc57600080fd5b614ac889838a016149e3565b90965094506040880135915080821115614ae157600080fd5b50614aee88828901614a27565b969995985093965092949392505050565b60008060008060008060608789031215614b1857600080fd5b86356001600160401b0380821115614b2f57600080fd5b614b3b8a838b016149e3565b90985096506020890135915080821115614b5457600080fd5b614b608a838b016149e3565b90965094506040890135915080821115614b7957600080fd5b50614b8689828a016149e3565b979a9699509497509295939492505050565b600081518084526020808501945080840160005b83811015614bca578151151587529582019590820190600101614bac565b509495945050505050565b6020815260006108a06020830184614b98565b600080600080600080600080600060a08a8c031215614c0657600080fd5b8935985060208a01356001600160401b0380821115614c2457600080fd5b614c308d838e016149e3565b909a50985060408c0135915080821115614c4957600080fd5b614c558d838e016149e3565b909850965060608c0135915080821115614c6e57600080fd5b614c7a8d838e016149e3565b909650945060808c0135915080821115614c9357600080fd5b50614ca08c828d016149e3565b915080935050809150509295985092959850929598565b60008060208385031215614cca57600080fd5b82356001600160401b03811115614ce057600080fd5b614cec858286016149e3565b90969095509350505050565b600081518084526020808501945080840160005b83811015614bca5781516001600160a01b031687529582019590820190600101614d0c565b6020815260006108a06020830184614cf8565b60008060408385031215614d5757600080fd5b50508035926020909101359150565b634e487b7160e01b600052602160045260246000fd5b60028110614d8c57614d8c614d66565b9052565b60006060808352614da381840187614cf8565b83810360208581019190915286518083528782019282019060005b81811015614de157614dd1838651614d7c565b9383019391830191600101614dbe565b505060409250858103838701528087518083528383019150838901925060005b81811015614e31578351805160ff1684528581015186850152860151868401529284019291860191600101614e01565b50909a9950505050505050505050565b80356001600160a01b03811681146110ba57600080fd5b600080600060608486031215614e6d57600080fd5b8335925060208401359150614e8460408501614e41565b90509250925092565b600080600080600060608688031215614ea557600080fd5b85356001600160401b0380821115614ebc57600080fd5b9087019060c0828a031215614ed057600080fd5b90955060208701359080821115614abc57600080fd5b600060208284031215614ef857600080fd5b5035919050565b8035600281106110ba57600080fd5b60008060008060008060008060008060c08b8d031215614f2d57600080fd5b8a35995060208b01356001600160401b0380821115614f4b57600080fd5b614f578e838f016149e3565b909b50995060408d0135915080821115614f7057600080fd5b614f7c8e838f016149e3565b909950975060608d0135915080821115614f9557600080fd5b614fa18e838f016149e3565b909750955060808d0135915080821115614fba57600080fd5b50614fc78d828e016149e3565b9094509250614fda905060a08c01614eff565b90509295989b9194979a5092959850565b634e487b7160e01b600052604160045260246000fd5b60405160e081016001600160401b038111828210171561502357615023614feb565b60405290565b60405160c081016001600160401b038111828210171561502357615023614feb565b604051601f8201601f191681016001600160401b038111828210171561507357615073614feb565b604052919050565b60006001600160401b0382111561509457615094614feb565b5060051b60200190565b600082601f8301126150af57600080fd5b813560206150c46150bf8361507b565b61504b565b828152600592831b85018201928282019190878511156150e357600080fd5b8387015b8581101561510b5780358281106150fe5760008081fd5b84529284019284016150e7565b5090979650505050505050565b600082601f83011261512957600080fd5b813560206151396150bf8361507b565b82815260059290921b8401810191818101908684111561515857600080fd5b8286015b8481101561517a5761516d81614e41565b835291830191830161515c565b509695505050505050565b6000806040838503121561519857600080fd5b82356001600160401b03808211156151af57600080fd5b6151bb8683870161509e565b935060208501359150808211156151d157600080fd5b506151de85828601615118565b9150509250929050565b600080604083850312156151fb57600080fd5b8235915061520b60208401614e41565b90509250929050565b8035601081106110ba57600080fd5b6000806040838503121561523657600080fd5b61523f83615214565b915061520b60208401614e41565b60006020828403121561525f57600080fd5b6108a082614e41565b60008060008060008060008060008060c08b8d03121561528757600080fd5b8a35995060208b0135985060408b01356001600160401b03808211156152ac57600080fd5b6152b88e838f016149e3565b909a50985060608d01359150808211156152d157600080fd5b6152dd8e838f016149e3565b909850965060808d01359150808211156152f657600080fd5b6153028e838f016149e3565b909650945060a08d013591508082111561531b57600080fd5b506153288d828e016149e3565b915080935050809150509295989b9194979a5092959850565b6000806040838503121561535457600080fd5b82356001600160401b0381111561536a57600080fd5b615376858286016149d1565b92505061520b60208401614eff565b600581106114c0576114c0614d66565b60a081016153a287615385565b95815260208101949094526040840192909252606083015260809091015290565b918252602082015260400190565b6000602082840312156153e357600080fd5b81356001600160401b038111156153f957600080fd5b6107f684828501615118565b600081518084526020808501945080840160005b83811015614bca5781516001600160601b031687529582019590820190600101615419565b6060815260006154516060830186614cf8565b82810360208401526154638186614cf8565b905082810360408401526154778185615405565b9695505050505050565b6020815260006108a06020830184615405565b6000602082840312156154a657600080fd5b6108a082615214565b6001600160a01b0391909116815260200190565b60006154d16150bf8461507b565b8381529050602080820190600585901b8401868111156154f057600080fd5b845b818110156155835780356001600160401b03808211156155125760008081fd5b8188019150601f8a818401126155285760008081fd5b82358281111561553a5761553a614feb565b61554b818301601f1916880161504b565b92508083528b8782860101111561556457600091508182fd5b80878501888501376000908301870152508552509282019282016154f2565b505050509392505050565b60006108a03684846154c3565b634e487b7160e01b600052601160045260246000fd5b808201808211156108f2576108f261559b565b818103818111156108f2576108f261559b565b6000826155f457634e487b7160e01b600052601260045260246000fd5b500490565b6001600160e01b031991909116815260200190565b600082601f83011261561f57600080fd5b8135602061562f6150bf8361507b565b82815260059290921b8401810191818101908684111561564e57600080fd5b8286015b8481101561517a5780358352918301918301615652565b600082601f83011261567a57600080fd5b6108a0838335602085016154c3565b600060e0823603121561569b57600080fd5b6156a3615001565b82358152602080840135908201526040808401359082015260608301356001600160401b03808211156156d557600080fd5b6156e136838701615118565b606084015260808501359150808211156156fa57600080fd5b6157063683870161560e565b608084015260a085013591508082111561571f57600080fd5b61572b36838701615669565b60a084015260c085013591508082111561574457600080fd5b506157513682860161560e565b60c08301525092915050565b634e487b7160e01b600052603260045260246000fd5b80820281158282048414176108f2576108f261559b565b602081016010831061579e5761579e614d66565b91905290565b6001600160e01b03198316815260408101600b83106157c5576157c5614d66565b8260208301529392505050565b6040815260006157e56040830185614cf8565b82810360208401526157f78185614b98565b95945050505050565b6080815260006158136080830187614b98565b82810360208401526158258187615405565b905082810360408401526158398186614cf8565b905082810360608401526106bc8185614cf8565b600081518084526020808501945080840160005b83811015614bca57815187529582019590820190600101615861565b60005b83811015615898578181015183820152602001615880565b50506000910152565b600081518084526158b981602086016020860161587d565b601f01601f19169290920160200192915050565b600082825180855260208086019550808260051b84010181860160005b8481101561510b57601f198684030189526159068383516158a1565b988401989250908301906001016158ea565b8051825260208101516020830152604081015160408301526000606082015160e0606085015261594b60e0850182614cf8565b905060808301518482036080860152615964828261584d565b91505060a083015184820360a086015261597e82826158cd565b91505060c083015184820360c08601526157f7828261584d565b6080815260006159ab6080830187615918565b60208681850152838203604085015260c08201865183528187015182840152604087015160c0604085015281815180845260e0860191508483019350600092505b80831015615a155783516159ff81615385565b82529284019260019290920191908401906159ec565b50606089015193508481036060860152615a2f818561584d565b935050505060808601518282036080840152615a4b82826158cd565b91505060a086015182820360a0840152615a65828261584d565b93505050506157f760608301846001600160a01b03169052565b6000808335601e19843603018112615a9657600080fd5b8301803591506001600160401b03821115615ab057600080fd5b6020019150600581901b3603821315610e7e57600080fd5b600060c08236031215615ada57600080fd5b615ae2615029565b823581526020808401359082015260408301356001600160401b0380821115615b0a57600080fd5b615b163683870161509e565b60408401526060850135915080821115615b2f57600080fd5b615b3b3683870161560e565b60608401526080850135915080821115615b5457600080fd5b615b6036838701615669565b608084015260a0850135915080821115615b7957600080fd5b50615b863682860161560e565b60a08301525092915050565b6001600160e01b03199390931683526020830191909152604082015260600190565b604081526000615bc76040830185615918565b905060018060a01b03831660208301529392505050565b6001600160e01b0319831681528151600090615c0181600485016020870161587d565b919091016004019392505050565b6020815260006108a060208301846158a1565b60008251615c3481846020870161587d565b9190910192915050565b608081526000615c5160808301876158a1565b8281036020840152615c638187614cf8565b90508281036040840152615c778186614b98565b905082810360608401526106bc81856158cd565b604081526000615c9e6040830185614b98565b82810360208401526157f78185614cf8565b600060208284031215615cc257600080fd5b6108a082614eff565b803560ff811681146110ba57600080fd5b600060208284031215615cee57600080fd5b6108a082615ccb565b600060608284031215615d0957600080fd5b604051606081016001600160401b0381118282101715615d2b57615d2b614feb565b604052615d3783615ccb565b815260208301356020820152604083013560408201528091505092915050565b6001600160e01b03199290921682526001600160a01b0316602082015260400190565b600060208284031215615d8c57600080fd5b815180151581146108a057600080fd5b604081016157c58285614d7c565b634e487b7160e01b600052603160045260246000fd5b604081526000615dd36040830185614b98565b82810360208401526157f781856158cd56fea6eef7e35abe7026729641147f7915573c7e97b47efa546f5f6e3230263bcb49a57d40f1496988cf60ab7c9d5ba4ff83647f67d3898d441a3aaf21b651678fd9ac1ff16a4f04f2a37a9ba5252a69baa100b460e517d1f8019c054a5ad698f9ffc55405a488814eaa0e2a685a0131142785b8d033d311c8c8244e34a7c12ca40f771d78ae9e5fca95a532fb0971d575d0ce9b59d14823c063e08740137e0e0eca6924fe71b0c8b61aea02ca498b5f53b29bd95726278b1fe4eb791bb24a42644ca164736f6c6343000811000a5da136eb38f8d8e354915fc8a767c0dc81d49de5fb65d5477122a82ddd976240c55405a488814eaa0e2a685a0131142785b8d033d311c8c8244e34a7c12ca40f92872d32822c9d44b36a2537d3e0d4c46fc4de1ce154ccfaed560a8a58445f1d"
}