{
  "address": "0x91164adC15251B90EE713a9F62a9B2A09C593c22",
  "abi": [
    {
      "inputs": [
        {
          "internalType": "contract IPauseTarget",
          "name": "_target",
          "type": "address"
        },
        {
          "internalType": "address",
          "name": "_admin",
          "type": "address"
        },
        {
          "internalType": "address[]",
          "name": "_sentries",
          "type": "address[]"
        }
      ],
      "stateMutability": "nonpayable",
      "type": "constructor"
    },
    {
      "anonymous": false,
      "inputs": [
        {
          "indexed": false,
          "internalType": "address",
          "name": "account",
          "type": "address"
        }
      ],
      "name": "EmergencyPaused",
      "type": "event"
    },
    {
      "anonymous": false,
      "inputs": [
        {
          "indexed": false,
          "internalType": "address",
          "name": "account",
          "type": "address"
        }
      ],
      "name": "EmergencyUnpaused",
      "type": "event"
    },
    {
      "anonymous": false,
      "inputs": [
        {
          "indexed": true,
          "internalType": "bytes32",
          "name": "role",
          "type": "bytes32"
        },
        {
          "indexed": true,
          "internalType": "bytes32",
          "name": "previousAdminRole",
          "type": "bytes32"
        },
        {
          "indexed": true,
          "internalType": "bytes32",
          "name": "newAdminRole",
          "type": "bytes32"
        }
      ],
      "name": "RoleAdminChanged",
      "type": "event"
    },
    {
      "anonymous": false,
      "inputs": [
        {
          "indexed": true,
          "internalType": "bytes32",
          "name": "role",
          "type": "bytes32"
        },
        {
          "indexed": true,
          "internalType": "address",
          "name": "account",
          "type": "address"
        },
        {
          "indexed": true,
          "internalType": "address",
          "name": "sender",
          "type": "address"
        }
      ],
      "name": "RoleGranted",
      "type": "event"
    },
    {
      "anonymous": false,
      "inputs": [
        {
          "indexed": true,
          "internalType": "bytes32",
          "name": "role",
          "type": "bytes32"
        },
        {
          "indexed": true,
          "internalType": "address",
          "name": "account",
          "type": "address"
        },
        {
          "indexed": true,
          "internalType": "address",
          "name": "sender",
          "type": "address"
        }
      ],
      "name": "RoleRevoked",
      "type": "event"
    },
    {
      "inputs": [],
      "name": "DEFAULT_ADMIN_ROLE",
      "outputs": [
        {
          "internalType": "bytes32",
          "name": "",
          "type": "bytes32"
        }
      ],
      "stateMutability": "view",
      "type": "function"
    },
    {
      "inputs": [],
      "name": "SENTRY_ROLE",
      "outputs": [
        {
          "internalType": "bytes32",
          "name": "",
          "type": "bytes32"
        }
      ],
      "stateMutability": "view",
      "type": "function"
    },
    {
      "inputs": [],
      "name": "emergency",
      "outputs": [
        {
          "internalType": "bool",
          "name": "",
          "type": "bool"
        }
      ],
      "stateMutability": "view",
      "type": "function"
    },
    {
      "inputs": [
        {
          "internalType": "bytes32",
          "name": "role",
          "type": "bytes32"
        }
      ],
      "name": "getRoleAdmin",
      "outputs": [
        {
          "internalType": "bytes32",
          "name": "",
          "type": "bytes32"
        }
      ],
      "stateMutability": "view",
      "type": "function"
    },
    {
      "inputs": [
        {
          "internalType": "bytes32",
          "name": "role",
          "type": "bytes32"
        },
        {
          "internalType": "uint256",
          "name": "index",
          "type": "uint256"
        }
      ],
      "name": "getRoleMember",
      "outputs": [
        {
          "internalType": "address",
          "name": "",
          "type": "address"
        }
      ],
      "stateMutability": "view",
      "type": "function"
    },
    {
      "inputs": [
        {
          "internalType": "bytes32",
          "name": "role",
          "type": "bytes32"
        }
      ],
      "name": "getRoleMemberCount",
      "outputs": [
        {
          "internalType": "uint256",
          "name": "",
          "type": "uint256"
        }
      ],
      "stateMutability": "view",
      "type": "function"
    },
    {
      "inputs": [
        {
          "internalType": "bytes32",
          "name": "role",
          "type": "bytes32"
        },
        {
          "internalType": "address",
          "name": "account",
          "type": "address"
        }
      ],
      "name": "grantRole",
      "outputs": [],
      "stateMutability": "nonpayable",
      "type": "function"
    },
    {
      "inputs": [
        {
          "internalType": "address",
          "name": "_sentry",
          "type": "address"
        }
      ],
      "name": "grantSentry",
      "outputs": [],
      "stateMutability": "nonpayable",
      "type": "function"
    },
    {
      "inputs": [
        {
          "internalType": "bytes32",
          "name": "role",
          "type": "bytes32"
        },
        {
          "internalType": "address",
          "name": "account",
          "type": "address"
        }
      ],
      "name": "hasRole",
      "outputs": [
        {
          "internalType": "bool",
          "name": "",
          "type": "bool"
        }
      ],
      "stateMutability": "view",
      "type": "function"
    },
    {
      "inputs": [
        {
          "internalType": "bytes32",
          "name": "role",
          "type": "bytes32"
        },
        {
          "internalType": "address",
          "name": "account",
          "type": "address"
        }
      ],
      "name": "renounceRole",
      "outputs": [],
      "stateMutability": "nonpayable",
      "type": "function"
    },
    {
      "inputs": [],
      "name": "resetEmergency",
      "outputs": [],
      "stateMutability": "nonpayable",
      "type": "function"
    },
    {
      "inputs": [
        {
          "internalType": "bytes32",
          "name": "role",
          "type": "bytes32"
        },
        {
          "internalType": "address",
          "name": "account",
          "type": "address"
        }
      ],
      "name": "revokeRole",
      "outputs": [],
      "stateMutability": "nonpayable",
      "type": "function"
    },
    {
      "inputs": [
        {
          "internalType": "address",
          "name": "_sentry",
          "type": "address"
        }
      ],
      "name": "revokeSentry",
      "outputs": [],
      "stateMutability": "nonpayable",
      "type": "function"
    },
    {
      "inputs": [
        {
          "internalType": "bytes4",
          "name": "interfaceId",
          "type": "bytes4"
        }
      ],
      "name": "supportsInterface",
      "outputs": [
        {
          "internalType": "bool",
          "name": "",
          "type": "bool"
        }
      ],
      "stateMutability": "view",
      "type": "function"
    },
    {
      "inputs": [],
      "name": "target",
      "outputs": [
        {
          "internalType": "contract IPauseTarget",
          "name": "",
          "type": "address"
        }
      ],
      "stateMutability": "view",
      "type": "function"
    },
    {
      "inputs": [],
      "name": "triggerPause",
      "outputs": [],
      "stateMutability": "nonpayable",
      "type": "function"
    },
    {
      "inputs": [],
      "name": "triggerUnpause",
      "outputs": [],
      "stateMutability": "nonpayable",
      "type": "function"
    }
  ],
  "transactionHash": "0x317573ac95dd9c4f6c88a1fc72fddce0d27f82670b3ca625d7f35cbd58c1b745",
  "args": [
    "0x0cf8ff40a508bdbc39fbe1bb679dcba64e65c7df",
    "0x8417AC6838be147Ab0e201496B2E5eDf90A48cC5",
    [
      "0x8B35C5E273525a4Ca61025812f29C17727948f57"
    ]
  ],
  "numDeployments": 1,
  "solcInputHash": "a50a3f056fa24c0b5a230a9cb29a1cb4",
  "bytecode": "0x60806040523480156200001157600080fd5b50604051620013863803806200138683398101604081905262000034916200027c565b600280546001600160a01b0319166001600160a01b0385161790556200005c600083620000d6565b60005b8151811015620000cc57620000b77f5bea60102f2a7acc9e82b1af0e3bd4069661102bb5dd143a6051cd1980dded1c838381518110620000a357620000a36200037c565b6020026020010151620000e660201b60201c565b80620000c38162000392565b9150506200005f565b50505050620003ba565b620000e28282620000e6565b5050565b620000fd82826200012960201b620007dc1760201c565b60008281526001602090815260409091206200012491839062000860620001c9821b17901c565b505050565b6000828152602081815260408083206001600160a01b038516845290915290205460ff16620000e2576000828152602081815260408083206001600160a01b03851684529091529020805460ff19166001179055620001853390565b6001600160a01b0316816001600160a01b0316837f2f8788117e7eff1d82e926ec794901d17c78024a50270940304540a733656f0d60405160405180910390a45050565b6000620001e0836001600160a01b038416620001e9565b90505b92915050565b60008181526001830160205260408120546200023257508154600181810184556000848152602080822090930184905584548482528286019093526040902091909155620001e3565b506000620001e3565b6001600160a01b03811681146200025157600080fd5b50565b805162000261816200023b565b919050565b634e487b7160e01b600052604160045260246000fd5b6000806000606084860312156200029257600080fd5b83516200029f816200023b565b80935050602080850151620002b4816200023b565b60408601519093506001600160401b0380821115620002d257600080fd5b818701915087601f830112620002e757600080fd5b815181811115620002fc57620002fc62000266565b8060051b604051601f19603f8301168101818110858211171562000324576200032462000266565b60405291825284820192508381018501918a8311156200034357600080fd5b938501935b828510156200036c576200035c8562000254565b8452938501939285019262000348565b8096505050505050509250925092565b634e487b7160e01b600052603260045260246000fd5b600060018201620003b357634e487b7160e01b600052601160045260246000fd5b5060010190565b610fbc80620003ca6000396000f3fe608060405234801561001057600080fd5b50600436106100db5760003560e01c806301ffc9a7146100e0578063248a9ca3146101085780632f2ff15d1461012957806336568abe1461013e5780636833f60d1461015157806371dd4b64146101595780637a9ad019146101615780637d4f7fc9146101765780639010d07c1461018957806391d14854146101a9578063a217fddf146101bc578063b9f3163b146101c4578063ca15c873146101cc578063caa6fea4146101df578063d4b83992146101f3578063d547741f14610206578063f82ec70b14610219575b600080fd5b6100f36100ee366004610cf6565b61022c565b60405190151581526020015b60405180910390f35b61011b610116366004610d20565b610257565b6040519081526020016100ff565b61013c610137366004610d55565b61026c565b005b61013c61014c366004610d55565b61028d565b61013c610310565b61013c6104a6565b61011b600080516020610f6783398151915281565b61013c610184366004610d81565b610534565b61019c610197366004610d9c565b610557565b6040516100ff9190610dbe565b6100f36101b7366004610d55565b610576565b61011b600081565b61013c61059f565b61011b6101da366004610d20565b610786565b6002546100f390600160a01b900460ff1681565b60025461019c906001600160a01b031681565b61013c610214366004610d55565b61079d565b61013c610227366004610d81565b6107b9565b60006001600160e01b03198216635a05180f60e01b1480610251575061025182610875565b92915050565b60009081526020819052604090206001015490565b61027582610257565b61027e816108aa565b61028883836108b7565b505050565b6001600160a01b03811633146103025760405162461bcd60e51b815260206004820152602f60248201527f416363657373436f6e74726f6c3a2063616e206f6e6c792072656e6f756e636560448201526e103937b632b9903337b91039b2b63360891b60648201526084015b60405180910390fd5b61030c82826108d9565b5050565b600080516020610f67833981519152610328816108aa565b600260009054906101000a90046001600160a01b03166001600160a01b0316635c975abb6040518163ffffffff1660e01b81526004016020604051808303816000875af115801561037d573d6000803e3d6000fd5b505050506040513d601f19601f820116820180604052508101906103a19190610dd2565b156103fc5760405162461bcd60e51b815260206004820152602560248201527f5061757365456e666f726365723a20746172676574206973206e6f74206f6e20604482015264706175736560d81b60648201526084016102f9565b6002805460ff60a01b198116600160a01b1790915560408051638456cb5960e01b815290516001600160a01b0390921691638456cb599160048082019260009290919082900301818387803b15801561045457600080fd5b505af1158015610468573d6000803e3d6000fd5b505050507fb8fad2fa0ed7a383e747c309ef2c4391d7b65592a48893e57ccc1fab707914563360405161049b9190610dbe565b60405180910390a150565b6104b1600033610576565b806104cf57506104cf600080516020610f6783398151915233610576565b6105255760405162461bcd60e51b815260206004820152602160248201527f5061757365456e666f726365723a20556e617574686f72697a656420726573656044820152601d60fa1b60648201526084016102f9565b6002805460ff60a01b19169055565b600061053f816108aa565b61030c600080516020610f67833981519152836108b7565b600082815260016020526040812061056f90836108fb565b9392505050565b6000918252602082815260408084206001600160a01b0393909316845291905290205460ff1690565b600080516020610f678339815191526105b7816108aa565b600254600160a01b900460ff1661061e5760405162461bcd60e51b815260206004820152602560248201527f5061757365456e666f726365723a206e6f74206f6e20656d657267656e637920604482015264706175736560d81b60648201526084016102f9565b600260009054906101000a90046001600160a01b03166001600160a01b0316635c975abb6040518163ffffffff1660e01b81526004016020604051808303816000875af1158015610673573d6000803e3d6000fd5b505050506040513d601f19601f820116820180604052508101906106979190610dd2565b6106ed5760405162461bcd60e51b815260206004820152602160248201527f5061757365456e666f726365723a20746172676574206973206f6e20706175736044820152606560f81b60648201526084016102f9565b6002805460ff60a01b19811690915560408051631fa5d41d60e11b815290516001600160a01b0390921691633f4ba83a9160048082019260009290919082900301818387803b15801561073f57600080fd5b505af1158015610753573d6000803e3d6000fd5b505050507ff5cbf596165cc457b2cd92e8d8450827ee314968160a5696402d75766fc52caf3360405161049b9190610dbe565b600081815260016020526040812061025190610907565b6107a682610257565b6107af816108aa565b61028883836108d9565b60006107c4816108aa565b61030c600080516020610f67833981519152836108d9565b6107e68282610576565b61030c576000828152602081815260408083206001600160a01b03851684529091529020805460ff1916600117905561081c3390565b6001600160a01b0316816001600160a01b0316837f2f8788117e7eff1d82e926ec794901d17c78024a50270940304540a733656f0d60405160405180910390a45050565b600061056f836001600160a01b038416610911565b60006001600160e01b03198216637965db0b60e01b148061025157506301ffc9a760e01b6001600160e01b0319831614610251565b6108b48133610960565b50565b6108c182826107dc565b60008281526001602052604090206102889082610860565b6108e382826109c4565b60008281526001602052604090206102889082610a29565b600061056f8383610a3e565b6000610251825490565b600081815260018301602052604081205461095857508154600181810184556000848152602080822090930184905584548482528286019093526040902091909155610251565b506000610251565b61096a8282610576565b61030c57610982816001600160a01b03166014610a68565b61098d836020610a68565b60405160200161099e929190610e18565b60408051601f198184030181529082905262461bcd60e51b82526102f991600401610e87565b6109ce8282610576565b1561030c576000828152602081815260408083206001600160a01b0385168085529252808320805460ff1916905551339285917ff6391f5c32d9c69d2a47ea670b442974b53935d1edc7fd64eb21e047a839171b9190a45050565b600061056f836001600160a01b038416610c03565b6000826000018281548110610a5557610a55610eba565b9060005260206000200154905092915050565b60606000610a77836002610ee6565b610a82906002610efd565b6001600160401b03811115610a9957610a99610f10565b6040519080825280601f01601f191660200182016040528015610ac3576020820181803683370190505b509050600360fc1b81600081518110610ade57610ade610eba565b60200101906001600160f81b031916908160001a905350600f60fb1b81600181518110610b0d57610b0d610eba565b60200101906001600160f81b031916908160001a9053506000610b31846002610ee6565b610b3c906001610efd565b90505b6001811115610bb4576f181899199a1a9b1b9c1cb0b131b232b360811b85600f1660108110610b7057610b70610eba565b1a60f81b828281518110610b8657610b86610eba565b60200101906001600160f81b031916908160001a90535060049490941c93610bad81610f26565b9050610b3f565b50831561056f5760405162461bcd60e51b815260206004820181905260248201527f537472696e67733a20686578206c656e67746820696e73756666696369656e7460448201526064016102f9565b60008181526001830160205260408120548015610cec576000610c27600183610f3d565b8554909150600090610c3b90600190610f3d565b9050818114610ca0576000866000018281548110610c5b57610c5b610eba565b9060005260206000200154905080876000018481548110610c7e57610c7e610eba565b6000918252602080832090910192909255918252600188019052604090208390555b8554869080610cb157610cb1610f50565b600190038181906000526020600020016000905590558560010160008681526020019081526020016000206000905560019350505050610251565b6000915050610251565b600060208284031215610d0857600080fd5b81356001600160e01b03198116811461056f57600080fd5b600060208284031215610d3257600080fd5b5035919050565b80356001600160a01b0381168114610d5057600080fd5b919050565b60008060408385031215610d6857600080fd5b82359150610d7860208401610d39565b90509250929050565b600060208284031215610d9357600080fd5b61056f82610d39565b60008060408385031215610daf57600080fd5b50508035926020909101359150565b6001600160a01b0391909116815260200190565b600060208284031215610de457600080fd5b8151801515811461056f57600080fd5b60005b83811015610e0f578181015183820152602001610df7565b50506000910152565b76020b1b1b2b9b9a1b7b73a3937b61d1030b1b1b7bab73a1604d1b815260008351610e4a816017850160208801610df4565b7001034b99036b4b9b9b4b733903937b6329607d1b6017918401918201528351610e7b816028840160208801610df4565b01602801949350505050565b6020815260008251806020840152610ea6816040850160208701610df4565b601f01601f19169190910160400192915050565b634e487b7160e01b600052603260045260246000fd5b634e487b7160e01b600052601160045260246000fd5b808202811582820484141761025157610251610ed0565b8082018082111561025157610251610ed0565b634e487b7160e01b600052604160045260246000fd5b600081610f3557610f35610ed0565b506000190190565b8181038181111561025157610251610ed0565b634e487b7160e01b600052603160045260246000fdfe5bea60102f2a7acc9e82b1af0e3bd4069661102bb5dd143a6051cd1980dded1ca26469706673582212202ff3e2658510c3f2fbf885eec8bc3b84958efca30ac9130c1b8595e31a11794764736f6c63430008110033",
  "devdoc": {
    "events": {
      "EmergencyPaused(address)": {
        "details": "Emitted when the emergency ppause is triggered by `account`."
      },
      "EmergencyUnpaused(address)": {
        "details": "Emitted when the emergency unpause is triggered by `account`."
      }
    },
    "kind": "dev",
    "methods": {
      "getRoleAdmin(bytes32)": {
        "details": "Returns the admin role that controls `role`. See {grantRole} and {revokeRole}. To change a role's admin, use {_setRoleAdmin}."
      },
      "getRoleMember(bytes32,uint256)": {
        "details": "Returns one of the accounts that have `role`. `index` must be a value between 0 and {getRoleMemberCount}, non-inclusive. Role bearers are not sorted in any particular way, and their ordering may change at any point. WARNING: When using {getRoleMember} and {getRoleMemberCount}, make sure you perform all queries on the same block. See the following https://forum.openzeppelin.com/t/iterating-over-elements-on-enumerableset-in-openzeppelin-contracts/2296[forum post] for more information."
      },
      "getRoleMemberCount(bytes32)": {
        "details": "Returns the number of accounts that have `role`. Can be used together with {getRoleMember} to enumerate all bearers of a role."
      },
      "grantRole(bytes32,address)": {
        "details": "Grants `role` to `account`. If `account` had not been already granted `role`, emits a {RoleGranted} event. Requirements: - the caller must have ``role``'s admin role. May emit a {RoleGranted} event."
      },
      "grantSentry(address)": {
        "details": "Grants the SENTRY_ROLE to the specified address."
      },
      "hasRole(bytes32,address)": {
        "details": "Returns `true` if `account` has been granted `role`."
      },
      "renounceRole(bytes32,address)": {
        "details": "Revokes `role` from the calling account. Roles are often managed via {grantRole} and {revokeRole}: this function's purpose is to provide a mechanism for accounts to lose their privileges if they are compromised (such as when a trusted device is misplaced). If the calling account had been revoked `role`, emits a {RoleRevoked} event. Requirements: - the caller must be `account`. May emit a {RoleRevoked} event."
      },
      "resetEmergency()": {
        "details": "Helper function to reset emergency status."
      },
      "revokeRole(bytes32,address)": {
        "details": "Revokes `role` from `account`. If `account` had been granted `role`, emits a {RoleRevoked} event. Requirements: - the caller must have ``role``'s admin role. May emit a {RoleRevoked} event."
      },
      "revokeSentry(address)": {
        "details": "Revokes the SENTRY_ROLE from the specified address."
      },
      "supportsInterface(bytes4)": {
        "details": "See {IERC165-supportsInterface}."
      },
      "triggerPause()": {
        "details": "Triggers a pause on the target contract. Requirements: - Only be called by accounts with the SENTRY_ROLE, - The target contract is not already paused."
      },
      "triggerUnpause()": {
        "details": "Triggers an unpause on the target contract. Requirements: - Only be called by accounts with the SENTRY_ROLE, - The target contract is already paused. - The target contract is paused in emergency mode."
      }
    },
    "stateVariables": {
      "emergency": {
        "details": "Indicating whether or not the target contract is paused in emergency mode."
      },
      "target": {
        "details": "The contract that can be paused or unpaused by the SENTRY_ROLE."
      }
    },
    "version": 1
  },
  "userdoc": {
    "kind": "user",
    "methods": {},
    "version": 1
  },
  "storageLayout": {
    "storage": [
      {
        "astId": 24,
        "contract": "contracts/ronin/gateway/PauseEnforcer.sol:PauseEnforcer",
        "label": "_roles",
        "offset": 0,
        "slot": "0",
        "type": "t_mapping(t_bytes32,t_struct(RoleData)19_storage)"
      },
      {
        "astId": 338,
        "contract": "contracts/ronin/gateway/PauseEnforcer.sol:PauseEnforcer",
        "label": "_roleMembers",
        "offset": 0,
        "slot": "1",
        "type": "t_mapping(t_bytes32,t_struct(AddressSet)4026_storage)"
      },
      {
        "astId": 23767,
        "contract": "contracts/ronin/gateway/PauseEnforcer.sol:PauseEnforcer",
        "label": "target",
        "offset": 0,
        "slot": "2",
        "type": "t_contract(IPauseTarget)9671"
      },
      {
        "astId": 23770,
        "contract": "contracts/ronin/gateway/PauseEnforcer.sol:PauseEnforcer",
        "label": "emergency",
        "offset": 20,
        "slot": "2",
        "type": "t_bool"
      }
    ],
    "types": {
      "t_address": {
        "encoding": "inplace",
        "label": "address",
        "numberOfBytes": "20"
      },
      "t_array(t_bytes32)dyn_storage": {
        "base": "t_bytes32",
        "encoding": "dynamic_array",
        "label": "bytes32[]",
        "numberOfBytes": "32"
      },
      "t_bool": {
        "encoding": "inplace",
        "label": "bool",
        "numberOfBytes": "1"
      },
      "t_bytes32": {
        "encoding": "inplace",
        "label": "bytes32",
        "numberOfBytes": "32"
      },
      "t_contract(IPauseTarget)9671": {
        "encoding": "inplace",
        "label": "contract IPauseTarget",
        "numberOfBytes": "20"
      },
      "t_mapping(t_address,t_bool)": {
        "encoding": "mapping",
        "key": "t_address",
        "label": "mapping(address => bool)",
        "numberOfBytes": "32",
        "value": "t_bool"
      },
      "t_mapping(t_bytes32,t_struct(AddressSet)4026_storage)": {
        "encoding": "mapping",
        "key": "t_bytes32",
        "label": "mapping(bytes32 => struct EnumerableSet.AddressSet)",
        "numberOfBytes": "32",
        "value": "t_struct(AddressSet)4026_storage"
      },
      "t_mapping(t_bytes32,t_struct(RoleData)19_storage)": {
        "encoding": "mapping",
        "key": "t_bytes32",
        "label": "mapping(bytes32 => struct AccessControl.RoleData)",
        "numberOfBytes": "32",
        "value": "t_struct(RoleData)19_storage"
      },
      "t_mapping(t_bytes32,t_uint256)": {
        "encoding": "mapping",
        "key": "t_bytes32",
        "label": "mapping(bytes32 => uint256)",
        "numberOfBytes": "32",
        "value": "t_uint256"
      },
      "t_struct(AddressSet)4026_storage": {
        "encoding": "inplace",
        "label": "struct EnumerableSet.AddressSet",
        "members": [
          {
            "astId": 4025,
            "contract": "contracts/ronin/gateway/PauseEnforcer.sol:PauseEnforcer",
            "label": "_inner",
            "offset": 0,
            "slot": "0",
            "type": "t_struct(Set)3725_storage"
          }
        ],
        "numberOfBytes": "64"
      },
      "t_struct(RoleData)19_storage": {
        "encoding": "inplace",
        "label": "struct AccessControl.RoleData",
        "members": [
          {
            "astId": 16,
            "contract": "contracts/ronin/gateway/PauseEnforcer.sol:PauseEnforcer",
            "label": "members",
            "offset": 0,
            "slot": "0",
            "type": "t_mapping(t_address,t_bool)"
          },
          {
            "astId": 18,
            "contract": "contracts/ronin/gateway/PauseEnforcer.sol:PauseEnforcer",
            "label": "adminRole",
            "offset": 0,
            "slot": "1",
            "type": "t_bytes32"
          }
        ],
        "numberOfBytes": "64"
      },
      "t_struct(Set)3725_storage": {
        "encoding": "inplace",
        "label": "struct EnumerableSet.Set",
        "members": [
          {
            "astId": 3720,
            "contract": "contracts/ronin/gateway/PauseEnforcer.sol:PauseEnforcer",
            "label": "_values",
            "offset": 0,
            "slot": "0",
            "type": "t_array(t_bytes32)dyn_storage"
          },
          {
            "astId": 3724,
            "contract": "contracts/ronin/gateway/PauseEnforcer.sol:PauseEnforcer",
            "label": "_indexes",
            "offset": 0,
            "slot": "1",
            "type": "t_mapping(t_bytes32,t_uint256)"
          }
        ],
        "numberOfBytes": "64"
      },
      "t_uint256": {
        "encoding": "inplace",
        "label": "uint256",
        "numberOfBytes": "32"
      }
    }
  }
}