{
  "address": "0x3036EB56e7e28851a56B87F037101aB3630933ab",
  "abi": [
    {
      "inputs": [],
      "name": "ErrCallerMustBeBridgeTrackingContract",
      "type": "error"
    },
    {
      "inputs": [],
      "name": "ErrCallerMustBeRoninTrustedOrgContract",
      "type": "error"
    },
    {
      "inputs": [],
      "name": "ErrCallerMustBeValidatorContract",
      "type": "error"
    },
    {
      "inputs": [],
      "name": "ErrZeroCodeContract",
      "type": "error"
    },
    {
      "anonymous": false,
      "inputs": [
        {
          "indexed": false,
          "internalType": "address",
          "name": "",
          "type": "address"
        }
      ],
      "name": "BridgeTrackingContractUpdated",
      "type": "event"
    },
    {
      "anonymous": false,
      "inputs": [
        {
          "indexed": true,
          "internalType": "address",
          "name": "bridgeOperator",
          "type": "address"
        },
        {
          "indexed": true,
          "internalType": "uint256",
          "name": "id",
          "type": "uint256"
        },
        {
          "indexed": true,
          "internalType": "uint256",
          "name": "chainId",
          "type": "uint256"
        },
        {
          "indexed": false,
          "internalType": "bytes32",
          "name": "receiptHash",
          "type": "bytes32"
        }
      ],
      "name": "DepositVoted",
      "type": "event"
    },
    {
      "anonymous": false,
      "inputs": [
        {
          "indexed": false,
          "internalType": "bytes32",
          "name": "receiptHash",
          "type": "bytes32"
        },
        {
          "components": [
            {
              "internalType": "uint256",
              "name": "id",
              "type": "uint256"
            },
            {
              "internalType": "enum Transfer.Kind",
              "name": "kind",
              "type": "uint8"
            },
            {
              "components": [
                {
                  "internalType": "address",
                  "name": "addr",
                  "type": "address"
                },
                {
                  "internalType": "address",
                  "name": "tokenAddr",
                  "type": "address"
                },
                {
                  "internalType": "uint256",
                  "name": "chainId",
                  "type": "uint256"
                }
              ],
              "internalType": "struct Token.Owner",
              "name": "mainchain",
              "type": "tuple"
            },
            {
              "components": [
                {
                  "internalType": "address",
                  "name": "addr",
                  "type": "address"
                },
                {
                  "internalType": "address",
                  "name": "tokenAddr",
                  "type": "address"
                },
                {
                  "internalType": "uint256",
                  "name": "chainId",
                  "type": "uint256"
                }
              ],
              "internalType": "struct Token.Owner",
              "name": "ronin",
              "type": "tuple"
            },
            {
              "components": [
                {
                  "internalType": "enum Token.Standard",
                  "name": "erc",
                  "type": "uint8"
                },
                {
                  "internalType": "uint256",
                  "name": "id",
                  "type": "uint256"
                },
                {
                  "internalType": "uint256",
                  "name": "quantity",
                  "type": "uint256"
                }
              ],
              "internalType": "struct Token.Info",
              "name": "info",
              "type": "tuple"
            }
          ],
          "indexed": false,
          "internalType": "struct Transfer.Receipt",
          "name": "receipt",
          "type": "tuple"
        }
      ],
      "name": "Deposited",
      "type": "event"
    },
    {
      "anonymous": false,
      "inputs": [
        {
          "indexed": false,
          "internalType": "uint8",
          "name": "version",
          "type": "uint8"
        }
      ],
      "name": "Initialized",
      "type": "event"
    },
    {
      "anonymous": false,
      "inputs": [
        {
          "indexed": false,
          "internalType": "bytes32",
          "name": "receiptHash",
          "type": "bytes32"
        },
        {
          "components": [
            {
              "internalType": "uint256",
              "name": "id",
              "type": "uint256"
            },
            {
              "internalType": "enum Transfer.Kind",
              "name": "kind",
              "type": "uint8"
            },
            {
              "components": [
                {
                  "internalType": "address",
                  "name": "addr",
                  "type": "address"
                },
                {
                  "internalType": "address",
                  "name": "tokenAddr",
                  "type": "address"
                },
                {
                  "internalType": "uint256",
                  "name": "chainId",
                  "type": "uint256"
                }
              ],
              "internalType": "struct Token.Owner",
              "name": "mainchain",
              "type": "tuple"
            },
            {
              "components": [
                {
                  "internalType": "address",
                  "name": "addr",
                  "type": "address"
                },
                {
                  "internalType": "address",
                  "name": "tokenAddr",
                  "type": "address"
                },
                {
                  "internalType": "uint256",
                  "name": "chainId",
                  "type": "uint256"
                }
              ],
              "internalType": "struct Token.Owner",
              "name": "ronin",
              "type": "tuple"
            },
            {
              "components": [
                {
                  "internalType": "enum Token.Standard",
                  "name": "erc",
                  "type": "uint8"
                },
                {
                  "internalType": "uint256",
                  "name": "id",
                  "type": "uint256"
                },
                {
                  "internalType": "uint256",
                  "name": "quantity",
                  "type": "uint256"
                }
              ],
              "internalType": "struct Token.Info",
              "name": "info",
              "type": "tuple"
            }
          ],
          "indexed": false,
          "internalType": "struct Transfer.Receipt",
          "name": "receipt",
          "type": "tuple"
        }
      ],
      "name": "MainchainWithdrew",
      "type": "event"
    },
    {
      "anonymous": false,
      "inputs": [
        {
          "indexed": false,
          "internalType": "address[]",
          "name": "tokens",
          "type": "address[]"
        },
        {
          "indexed": false,
          "internalType": "uint256[]",
          "name": "threshold",
          "type": "uint256[]"
        }
      ],
      "name": "MinimumThresholdsUpdated",
      "type": "event"
    },
    {
      "anonymous": false,
      "inputs": [
        {
          "indexed": false,
          "internalType": "address",
          "name": "account",
          "type": "address"
        }
      ],
      "name": "Paused",
      "type": "event"
    },
    {
      "anonymous": false,
      "inputs": [
        {
          "indexed": true,
          "internalType": "bytes32",
          "name": "role",
          "type": "bytes32"
        },
        {
          "indexed": true,
          "internalType": "bytes32",
          "name": "previousAdminRole",
          "type": "bytes32"
        },
        {
          "indexed": true,
          "internalType": "bytes32",
          "name": "newAdminRole",
          "type": "bytes32"
        }
      ],
      "name": "RoleAdminChanged",
      "type": "event"
    },
    {
      "anonymous": false,
      "inputs": [
        {
          "indexed": true,
          "internalType": "bytes32",
          "name": "role",
          "type": "bytes32"
        },
        {
          "indexed": true,
          "internalType": "address",
          "name": "account",
          "type": "address"
        },
        {
          "indexed": true,
          "internalType": "address",
          "name": "sender",
          "type": "address"
        }
      ],
      "name": "RoleGranted",
      "type": "event"
    },
    {
      "anonymous": false,
      "inputs": [
        {
          "indexed": true,
          "internalType": "bytes32",
          "name": "role",
          "type": "bytes32"
        },
        {
          "indexed": true,
          "internalType": "address",
          "name": "account",
          "type": "address"
        },
        {
          "indexed": true,
          "internalType": "address",
          "name": "sender",
          "type": "address"
        }
      ],
      "name": "RoleRevoked",
      "type": "event"
    },
    {
      "anonymous": false,
      "inputs": [
        {
          "indexed": false,
          "internalType": "address",
          "name": "",
          "type": "address"
        }
      ],
      "name": "RoninTrustedOrganizationContractUpdated",
      "type": "event"
    },
    {
      "anonymous": false,
      "inputs": [
        {
          "indexed": true,
          "internalType": "uint256",
          "name": "nonce",
          "type": "uint256"
        },
        {
          "indexed": true,
          "internalType": "uint256",
          "name": "numerator",
          "type": "uint256"
        },
        {
          "indexed": true,
          "internalType": "uint256",
          "name": "denominator",
          "type": "uint256"
        },
        {
          "indexed": false,
          "internalType": "uint256",
          "name": "previousNumerator",
          "type": "uint256"
        },
        {
          "indexed": false,
          "internalType": "uint256",
          "name": "previousDenominator",
          "type": "uint256"
        }
      ],
      "name": "ThresholdUpdated",
      "type": "event"
    },
    {
      "anonymous": false,
      "inputs": [
        {
          "indexed": false,
          "internalType": "address[]",
          "name": "roninTokens",
          "type": "address[]"
        },
        {
          "indexed": false,
          "internalType": "address[]",
          "name": "mainchainTokens",
          "type": "address[]"
        },
        {
          "indexed": false,
          "internalType": "uint256[]",
          "name": "chainIds",
          "type": "uint256[]"
        },
        {
          "indexed": false,
          "internalType": "enum Token.Standard[]",
          "name": "standards",
          "type": "uint8[]"
        }
      ],
      "name": "TokenMapped",
      "type": "event"
    },
    {
      "anonymous": false,
      "inputs": [
        {
          "indexed": true,
          "internalType": "uint256",
          "name": "nonce",
          "type": "uint256"
        },
        {
          "indexed": true,
          "internalType": "uint256",
          "name": "numerator",
          "type": "uint256"
        },
        {
          "indexed": true,
          "internalType": "uint256",
          "name": "denominator",
          "type": "uint256"
        },
        {
          "indexed": false,
          "internalType": "uint256",
          "name": "previousNumerator",
          "type": "uint256"
        },
        {
          "indexed": false,
          "internalType": "uint256",
          "name": "previousDenominator",
          "type": "uint256"
        }
      ],
      "name": "TrustedThresholdUpdated",
      "type": "event"
    },
    {
      "anonymous": false,
      "inputs": [
        {
          "indexed": false,
          "internalType": "address",
          "name": "account",
          "type": "address"
        }
      ],
      "name": "Unpaused",
      "type": "event"
    },
    {
      "anonymous": false,
      "inputs": [
        {
          "indexed": false,
          "internalType": "address",
          "name": "",
          "type": "address"
        }
      ],
      "name": "ValidatorContractUpdated",
      "type": "event"
    },
    {
      "anonymous": false,
      "inputs": [
        {
          "indexed": false,
          "internalType": "bytes32",
          "name": "receiptHash",
          "type": "bytes32"
        },
        {
          "components": [
            {
              "internalType": "uint256",
              "name": "id",
              "type": "uint256"
            },
            {
              "internalType": "enum Transfer.Kind",
              "name": "kind",
              "type": "uint8"
            },
            {
              "components": [
                {
                  "internalType": "address",
                  "name": "addr",
                  "type": "address"
                },
                {
                  "internalType": "address",
                  "name": "tokenAddr",
                  "type": "address"
                },
                {
                  "internalType": "uint256",
                  "name": "chainId",
                  "type": "uint256"
                }
              ],
              "internalType": "struct Token.Owner",
              "name": "mainchain",
              "type": "tuple"
            },
            {
              "components": [
                {
                  "internalType": "address",
                  "name": "addr",
                  "type": "address"
                },
                {
                  "internalType": "address",
                  "name": "tokenAddr",
                  "type": "address"
                },
                {
                  "internalType": "uint256",
                  "name": "chainId",
                  "type": "uint256"
                }
              ],
              "internalType": "struct Token.Owner",
              "name": "ronin",
              "type": "tuple"
            },
            {
              "components": [
                {
                  "internalType": "enum Token.Standard",
                  "name": "erc",
                  "type": "uint8"
                },
                {
                  "internalType": "uint256",
                  "name": "id",
                  "type": "uint256"
                },
                {
                  "internalType": "uint256",
                  "name": "quantity",
                  "type": "uint256"
                }
              ],
              "internalType": "struct Token.Info",
              "name": "info",
              "type": "tuple"
            }
          ],
          "indexed": false,
          "internalType": "struct Transfer.Receipt",
          "name": "",
          "type": "tuple"
        }
      ],
      "name": "WithdrawalRequested",
      "type": "event"
    },
    {
      "anonymous": false,
      "inputs": [
        {
          "indexed": false,
          "internalType": "bytes32",
          "name": "receiptHash",
          "type": "bytes32"
        },
        {
          "components": [
            {
              "internalType": "uint256",
              "name": "id",
              "type": "uint256"
            },
            {
              "internalType": "enum Transfer.Kind",
              "name": "kind",
              "type": "uint8"
            },
            {
              "components": [
                {
                  "internalType": "address",
                  "name": "addr",
                  "type": "address"
                },
                {
                  "internalType": "address",
                  "name": "tokenAddr",
                  "type": "address"
                },
                {
                  "internalType": "uint256",
                  "name": "chainId",
                  "type": "uint256"
                }
              ],
              "internalType": "struct Token.Owner",
              "name": "mainchain",
              "type": "tuple"
            },
            {
              "components": [
                {
                  "internalType": "address",
                  "name": "addr",
                  "type": "address"
                },
                {
                  "internalType": "address",
                  "name": "tokenAddr",
                  "type": "address"
                },
                {
                  "internalType": "uint256",
                  "name": "chainId",
                  "type": "uint256"
                }
              ],
              "internalType": "struct Token.Owner",
              "name": "ronin",
              "type": "tuple"
            },
            {
              "components": [
                {
                  "internalType": "enum Token.Standard",
                  "name": "erc",
                  "type": "uint8"
                },
                {
                  "internalType": "uint256",
                  "name": "id",
                  "type": "uint256"
                },
                {
                  "internalType": "uint256",
                  "name": "quantity",
                  "type": "uint256"
                }
              ],
              "internalType": "struct Token.Info",
              "name": "info",
              "type": "tuple"
            }
          ],
          "indexed": false,
          "internalType": "struct Transfer.Receipt",
          "name": "",
          "type": "tuple"
        }
      ],
      "name": "WithdrawalSignaturesRequested",
      "type": "event"
    },
    {
      "stateMutability": "payable",
      "type": "fallback"
    },
    {
      "inputs": [],
      "name": "DEFAULT_ADMIN_ROLE",
      "outputs": [
        {
          "internalType": "bytes32",
          "name": "",
          "type": "bytes32"
        }
      ],
      "stateMutability": "view",
      "type": "function"
    },
    {
      "inputs": [],
      "name": "WITHDRAWAL_MIGRATOR",
      "outputs": [
        {
          "internalType": "bytes32",
          "name": "",
          "type": "bytes32"
        }
      ],
      "stateMutability": "view",
      "type": "function"
    },
    {
      "inputs": [],
      "name": "bridgeTrackingContract",
      "outputs": [
        {
          "internalType": "address",
          "name": "",
          "type": "address"
        }
      ],
      "stateMutability": "view",
      "type": "function"
    },
    {
      "inputs": [
        {
          "components": [
            {
              "internalType": "address",
              "name": "recipientAddr",
              "type": "address"
            },
            {
              "internalType": "address",
              "name": "tokenAddr",
              "type": "address"
            },
            {
              "components": [
                {
                  "internalType": "enum Token.Standard",
                  "name": "erc",
                  "type": "uint8"
                },
                {
                  "internalType": "uint256",
                  "name": "id",
                  "type": "uint256"
                },
                {
                  "internalType": "uint256",
                  "name": "quantity",
                  "type": "uint256"
                }
              ],
              "internalType": "struct Token.Info",
              "name": "info",
              "type": "tuple"
            }
          ],
          "internalType": "struct Transfer.Request[]",
          "name": "_requests",
          "type": "tuple[]"
        },
        {
          "internalType": "uint256",
          "name": "_chainId",
          "type": "uint256"
        }
      ],
      "name": "bulkRequestWithdrawalFor",
      "outputs": [],
      "stateMutability": "nonpayable",
      "type": "function"
    },
    {
      "inputs": [
        {
          "internalType": "uint256[]",
          "name": "_withdrawals",
          "type": "uint256[]"
        },
        {
          "internalType": "bytes[]",
          "name": "_signatures",
          "type": "bytes[]"
        }
      ],
      "name": "bulkSubmitWithdrawalSignatures",
      "outputs": [],
      "stateMutability": "nonpayable",
      "type": "function"
    },
    {
      "inputs": [
        {
          "internalType": "uint256",
          "name": "_voteWeight",
          "type": "uint256"
        }
      ],
      "name": "checkThreshold",
      "outputs": [
        {
          "internalType": "bool",
          "name": "",
          "type": "bool"
        }
      ],
      "stateMutability": "view",
      "type": "function"
    },
    {
      "inputs": [
        {
          "components": [
            {
              "internalType": "uint256",
              "name": "id",
              "type": "uint256"
            },
            {
              "internalType": "enum Transfer.Kind",
              "name": "kind",
              "type": "uint8"
            },
            {
              "components": [
                {
                  "internalType": "address",
                  "name": "addr",
                  "type": "address"
                },
                {
                  "internalType": "address",
                  "name": "tokenAddr",
                  "type": "address"
                },
                {
                  "internalType": "uint256",
                  "name": "chainId",
                  "type": "uint256"
                }
              ],
              "internalType": "struct Token.Owner",
              "name": "mainchain",
              "type": "tuple"
            },
            {
              "components": [
                {
                  "internalType": "address",
                  "name": "addr",
                  "type": "address"
                },
                {
                  "internalType": "address",
                  "name": "tokenAddr",
                  "type": "address"
                },
                {
                  "internalType": "uint256",
                  "name": "chainId",
                  "type": "uint256"
                }
              ],
              "internalType": "struct Token.Owner",
              "name": "ronin",
              "type": "tuple"
            },
            {
              "components": [
                {
                  "internalType": "enum Token.Standard",
                  "name": "erc",
                  "type": "uint8"
                },
                {
                  "internalType": "uint256",
                  "name": "id",
                  "type": "uint256"
                },
                {
                  "internalType": "uint256",
                  "name": "quantity",
                  "type": "uint256"
                }
              ],
              "internalType": "struct Token.Info",
              "name": "info",
              "type": "tuple"
            }
          ],
          "internalType": "struct Transfer.Receipt",
          "name": "_receipt",
          "type": "tuple"
        }
      ],
      "name": "depositFor",
      "outputs": [],
      "stateMutability": "nonpayable",
      "type": "function"
    },
    {
      "inputs": [
        {
          "internalType": "uint256",
          "name": "",
          "type": "uint256"
        },
        {
          "internalType": "uint256",
          "name": "",
          "type": "uint256"
        }
      ],
      "name": "depositVote",
      "outputs": [
        {
          "internalType": "enum VoteStatusConsumer.VoteStatus",
          "name": "status",
          "type": "uint8"
        },
        {
          "internalType": "bytes32",
          "name": "finalHash",
          "type": "bytes32"
        },
        {
          "internalType": "uint256",
          "name": "expiredAt",
          "type": "uint256"
        },
        {
          "internalType": "uint256",
          "name": "createdAt",
          "type": "uint256"
        }
      ],
      "stateMutability": "view",
      "type": "function"
    },
    {
      "inputs": [
        {
          "internalType": "uint256",
          "name": "_chainId",
          "type": "uint256"
        },
        {
          "internalType": "uint256",
          "name": "_depositId",
          "type": "uint256"
        },
        {
          "internalType": "address",
          "name": "_voter",
          "type": "address"
        }
      ],
      "name": "depositVoted",
      "outputs": [
        {
          "internalType": "bool",
          "name": "",
          "type": "bool"
        }
      ],
      "stateMutability": "view",
      "type": "function"
    },
    {
      "inputs": [],
      "name": "emergencyPauser",
      "outputs": [
        {
          "internalType": "address",
          "name": "",
          "type": "address"
        }
      ],
      "stateMutability": "view",
      "type": "function"
    },
    {
      "inputs": [
        {
          "internalType": "address",
          "name": "_roninToken",
          "type": "address"
        },
        {
          "internalType": "uint256",
          "name": "_chainId",
          "type": "uint256"
        }
      ],
      "name": "getMainchainToken",
      "outputs": [
        {
          "components": [
            {
              "internalType": "enum Token.Standard",
              "name": "erc",
              "type": "uint8"
            },
            {
              "internalType": "address",
              "name": "tokenAddr",
              "type": "address"
            }
          ],
          "internalType": "struct MappedTokenConsumer.MappedToken",
          "name": "_token",
          "type": "tuple"
        }
      ],
      "stateMutability": "view",
      "type": "function"
    },
    {
      "inputs": [
        {
          "internalType": "bytes32",
          "name": "role",
          "type": "bytes32"
        }
      ],
      "name": "getRoleAdmin",
      "outputs": [
        {
          "internalType": "bytes32",
          "name": "",
          "type": "bytes32"
        }
      ],
      "stateMutability": "view",
      "type": "function"
    },
    {
      "inputs": [
        {
          "internalType": "bytes32",
          "name": "role",
          "type": "bytes32"
        },
        {
          "internalType": "uint256",
          "name": "index",
          "type": "uint256"
        }
      ],
      "name": "getRoleMember",
      "outputs": [
        {
          "internalType": "address",
          "name": "",
          "type": "address"
        }
      ],
      "stateMutability": "view",
      "type": "function"
    },
    {
      "inputs": [
        {
          "internalType": "bytes32",
          "name": "role",
          "type": "bytes32"
        }
      ],
      "name": "getRoleMemberCount",
      "outputs": [
        {
          "internalType": "uint256",
          "name": "",
          "type": "uint256"
        }
      ],
      "stateMutability": "view",
      "type": "function"
    },
    {
      "inputs": [],
      "name": "getThreshold",
      "outputs": [
        {
          "internalType": "uint256",
          "name": "num_",
          "type": "uint256"
        },
        {
          "internalType": "uint256",
          "name": "denom_",
          "type": "uint256"
        }
      ],
      "stateMutability": "view",
      "type": "function"
    },
    {
      "inputs": [],
      "name": "getTrustedThreshold",
      "outputs": [
        {
          "internalType": "uint256",
          "name": "trustedNum_",
          "type": "uint256"
        },
        {
          "internalType": "uint256",
          "name": "trustedDenom_",
          "type": "uint256"
        }
      ],
      "stateMutability": "view",
      "type": "function"
    },
    {
      "inputs": [
        {
          "internalType": "uint256",
          "name": "_withdrawalId",
          "type": "uint256"
        },
        {
          "internalType": "address[]",
          "name": "_validators",
          "type": "address[]"
        }
      ],
      "name": "getWithdrawalSignatures",
      "outputs": [
        {
          "internalType": "bytes[]",
          "name": "_signatures",
          "type": "bytes[]"
        }
      ],
      "stateMutability": "view",
      "type": "function"
    },
    {
      "inputs": [
        {
          "internalType": "bytes32",
          "name": "role",
          "type": "bytes32"
        },
        {
          "internalType": "address",
          "name": "account",
          "type": "address"
        }
      ],
      "name": "grantRole",
      "outputs": [],
      "stateMutability": "nonpayable",
      "type": "function"
    },
    {
      "inputs": [
        {
          "internalType": "bytes32",
          "name": "role",
          "type": "bytes32"
        },
        {
          "internalType": "address",
          "name": "account",
          "type": "address"
        }
      ],
      "name": "hasRole",
      "outputs": [
        {
          "internalType": "bool",
          "name": "",
          "type": "bool"
        }
      ],
      "stateMutability": "view",
      "type": "function"
    },
    {
      "inputs": [
        {
          "internalType": "address",
          "name": "_roleSetter",
          "type": "address"
        },
        {
          "internalType": "uint256",
          "name": "_numerator",
          "type": "uint256"
        },
        {
          "internalType": "uint256",
          "name": "_denominator",
          "type": "uint256"
        },
        {
          "internalType": "uint256",
          "name": "_trustedNumerator",
          "type": "uint256"
        },
        {
          "internalType": "uint256",
          "name": "_trustedDenominator",
          "type": "uint256"
        },
        {
          "internalType": "address[]",
          "name": "_withdrawalMigrators",
          "type": "address[]"
        },
        {
          "internalType": "address[][2]",
          "name": "_packedAddresses",
          "type": "address[][2]"
        },
        {
          "internalType": "uint256[][2]",
          "name": "_packedNumbers",
          "type": "uint256[][2]"
        },
        {
          "internalType": "enum Token.Standard[]",
          "name": "_standards",
          "type": "uint8[]"
        }
      ],
      "name": "initialize",
      "outputs": [],
      "stateMutability": "nonpayable",
      "type": "function"
    },
    {
      "inputs": [
        {
          "internalType": "uint256",
          "name": "_withdrawalId",
          "type": "uint256"
        }
      ],
      "name": "mainchainWithdrew",
      "outputs": [
        {
          "internalType": "bool",
          "name": "",
          "type": "bool"
        }
      ],
      "stateMutability": "view",
      "type": "function"
    },
    {
      "inputs": [
        {
          "internalType": "uint256",
          "name": "",
          "type": "uint256"
        }
      ],
      "name": "mainchainWithdrewVote",
      "outputs": [
        {
          "internalType": "enum VoteStatusConsumer.VoteStatus",
          "name": "status",
          "type": "uint8"
        },
        {
          "internalType": "bytes32",
          "name": "finalHash",
          "type": "bytes32"
        },
        {
          "internalType": "uint256",
          "name": "expiredAt",
          "type": "uint256"
        },
        {
          "internalType": "uint256",
          "name": "createdAt",
          "type": "uint256"
        }
      ],
      "stateMutability": "view",
      "type": "function"
    },
    {
      "inputs": [
        {
          "internalType": "uint256",
          "name": "_withdrawalId",
          "type": "uint256"
        },
        {
          "internalType": "address",
          "name": "_voter",
          "type": "address"
        }
      ],
      "name": "mainchainWithdrewVoted",
      "outputs": [
        {
          "internalType": "bool",
          "name": "",
          "type": "bool"
        }
      ],
      "stateMutability": "view",
      "type": "function"
    },
    {
      "inputs": [
        {
          "internalType": "address[]",
          "name": "_roninTokens",
          "type": "address[]"
        },
        {
          "internalType": "address[]",
          "name": "_mainchainTokens",
          "type": "address[]"
        },
        {
          "internalType": "uint256[]",
          "name": "_chainIds",
          "type": "uint256[]"
        },
        {
          "internalType": "enum Token.Standard[]",
          "name": "_standards",
          "type": "uint8[]"
        }
      ],
      "name": "mapTokens",
      "outputs": [],
      "stateMutability": "nonpayable",
      "type": "function"
    },
    {
      "inputs": [],
      "name": "markWithdrawalMigrated",
      "outputs": [],
      "stateMutability": "nonpayable",
      "type": "function"
    },
    {
      "inputs": [
        {
          "components": [
            {
              "internalType": "address",
              "name": "recipientAddr",
              "type": "address"
            },
            {
              "internalType": "address",
              "name": "tokenAddr",
              "type": "address"
            },
            {
              "components": [
                {
                  "internalType": "enum Token.Standard",
                  "name": "erc",
                  "type": "uint8"
                },
                {
                  "internalType": "uint256",
                  "name": "id",
                  "type": "uint256"
                },
                {
                  "internalType": "uint256",
                  "name": "quantity",
                  "type": "uint256"
                }
              ],
              "internalType": "struct Token.Info",
              "name": "info",
              "type": "tuple"
            }
          ],
          "internalType": "struct Transfer.Request[]",
          "name": "_requests",
          "type": "tuple[]"
        },
        {
          "internalType": "address[]",
          "name": "_requesters",
          "type": "address[]"
        }
      ],
      "name": "migrateWithdrawals",
      "outputs": [],
      "stateMutability": "nonpayable",
      "type": "function"
    },
    {
      "inputs": [
        {
          "internalType": "address",
          "name": "",
          "type": "address"
        }
      ],
      "name": "minimumThreshold",
      "outputs": [
        {
          "internalType": "uint256",
          "name": "",
          "type": "uint256"
        }
      ],
      "stateMutability": "view",
      "type": "function"
    },
    {
      "inputs": [],
      "name": "minimumTrustedVoteWeight",
      "outputs": [
        {
          "internalType": "uint256",
          "name": "",
          "type": "uint256"
        }
      ],
      "stateMutability": "view",
      "type": "function"
    },
    {
      "inputs": [],
      "name": "minimumVoteWeight",
      "outputs": [
        {
          "internalType": "uint256",
          "name": "",
          "type": "uint256"
        }
      ],
      "stateMutability": "view",
      "type": "function"
    },
    {
      "inputs": [],
      "name": "nonce",
      "outputs": [
        {
          "internalType": "uint256",
          "name": "",
          "type": "uint256"
        }
      ],
      "stateMutability": "view",
      "type": "function"
    },
    {
      "inputs": [],
      "name": "pause",
      "outputs": [],
      "stateMutability": "nonpayable",
      "type": "function"
    },
    {
      "inputs": [],
      "name": "paused",
      "outputs": [
        {
          "internalType": "bool",
          "name": "",
          "type": "bool"
        }
      ],
      "stateMutability": "view",
      "type": "function"
    },
    {
      "inputs": [
        {
          "internalType": "bytes32",
          "name": "role",
          "type": "bytes32"
        },
        {
          "internalType": "address",
          "name": "account",
          "type": "address"
        }
      ],
      "name": "renounceRole",
      "outputs": [],
      "stateMutability": "nonpayable",
      "type": "function"
    },
    {
      "inputs": [
        {
          "components": [
            {
              "internalType": "address",
              "name": "recipientAddr",
              "type": "address"
            },
            {
              "internalType": "address",
              "name": "tokenAddr",
              "type": "address"
            },
            {
              "components": [
                {
                  "internalType": "enum Token.Standard",
                  "name": "erc",
                  "type": "uint8"
                },
                {
                  "internalType": "uint256",
                  "name": "id",
                  "type": "uint256"
                },
                {
                  "internalType": "uint256",
                  "name": "quantity",
                  "type": "uint256"
                }
              ],
              "internalType": "struct Token.Info",
              "name": "info",
              "type": "tuple"
            }
          ],
          "internalType": "struct Transfer.Request",
          "name": "_request",
          "type": "tuple"
        },
        {
          "internalType": "uint256",
          "name": "_chainId",
          "type": "uint256"
        }
      ],
      "name": "requestWithdrawalFor",
      "outputs": [],
      "stateMutability": "nonpayable",
      "type": "function"
    },
    {
      "inputs": [
        {
          "internalType": "uint256",
          "name": "_withdrawalId",
          "type": "uint256"
        }
      ],
      "name": "requestWithdrawalSignatures",
      "outputs": [],
      "stateMutability": "nonpayable",
      "type": "function"
    },
    {
      "inputs": [
        {
          "internalType": "bytes32",
          "name": "role",
          "type": "bytes32"
        },
        {
          "internalType": "address",
          "name": "account",
          "type": "address"
        }
      ],
      "name": "revokeRole",
      "outputs": [],
      "stateMutability": "nonpayable",
      "type": "function"
    },
    {
      "inputs": [],
      "name": "roninTrustedOrganizationContract",
      "outputs": [
        {
          "internalType": "address",
          "name": "",
          "type": "address"
        }
      ],
      "stateMutability": "view",
      "type": "function"
    },
    {
      "inputs": [
        {
          "internalType": "address",
          "name": "_addr",
          "type": "address"
        }
      ],
      "name": "setBridgeTrackingContract",
      "outputs": [],
      "stateMutability": "nonpayable",
      "type": "function"
    },
    {
      "inputs": [
        {
          "internalType": "address",
          "name": "_addr",
          "type": "address"
        }
      ],
      "name": "setEmergencyPauser",
      "outputs": [],
      "stateMutability": "nonpayable",
      "type": "function"
    },
    {
      "inputs": [
        {
          "internalType": "address[]",
          "name": "_tokens",
          "type": "address[]"
        },
        {
          "internalType": "uint256[]",
          "name": "_thresholds",
          "type": "uint256[]"
        }
      ],
      "name": "setMinimumThresholds",
      "outputs": [],
      "stateMutability": "nonpayable",
      "type": "function"
    },
    {
      "inputs": [
        {
          "internalType": "address",
          "name": "_addr",
          "type": "address"
        }
      ],
      "name": "setRoninTrustedOrganizationContract",
      "outputs": [],
      "stateMutability": "nonpayable",
      "type": "function"
    },
    {
      "inputs": [
        {
          "internalType": "uint256",
          "name": "_numerator",
          "type": "uint256"
        },
        {
          "internalType": "uint256",
          "name": "_denominator",
          "type": "uint256"
        }
      ],
      "name": "setThreshold",
      "outputs": [
        {
          "internalType": "uint256",
          "name": "",
          "type": "uint256"
        },
        {
          "internalType": "uint256",
          "name": "",
          "type": "uint256"
        }
      ],
      "stateMutability": "nonpayable",
      "type": "function"
    },
    {
      "inputs": [
        {
          "internalType": "uint256",
          "name": "_trustedNumerator",
          "type": "uint256"
        },
        {
          "internalType": "uint256",
          "name": "_trustedDenominator",
          "type": "uint256"
        }
      ],
      "name": "setTrustedThreshold",
      "outputs": [
        {
          "internalType": "uint256",
          "name": "",
          "type": "uint256"
        },
        {
          "internalType": "uint256",
          "name": "",
          "type": "uint256"
        }
      ],
      "stateMutability": "nonpayable",
      "type": "function"
    },
    {
      "inputs": [
        {
          "internalType": "address",
          "name": "_addr",
          "type": "address"
        }
      ],
      "name": "setValidatorContract",
      "outputs": [],
      "stateMutability": "nonpayable",
      "type": "function"
    },
    {
      "inputs": [
        {
          "internalType": "bytes4",
          "name": "interfaceId",
          "type": "bytes4"
        }
      ],
      "name": "supportsInterface",
      "outputs": [
        {
          "internalType": "bool",
          "name": "",
          "type": "bool"
        }
      ],
      "stateMutability": "view",
      "type": "function"
    },
    {
      "inputs": [
        {
          "internalType": "uint256[]",
          "name": "_withdrawalIds",
          "type": "uint256[]"
        }
      ],
      "name": "tryBulkAcknowledgeMainchainWithdrew",
      "outputs": [
        {
          "internalType": "bool[]",
          "name": "_executedReceipts",
          "type": "bool[]"
        }
      ],
      "stateMutability": "nonpayable",
      "type": "function"
    },
    {
      "inputs": [
        {
          "components": [
            {
              "internalType": "uint256",
              "name": "id",
              "type": "uint256"
            },
            {
              "internalType": "enum Transfer.Kind",
              "name": "kind",
              "type": "uint8"
            },
            {
              "components": [
                {
                  "internalType": "address",
                  "name": "addr",
                  "type": "address"
                },
                {
                  "internalType": "address",
                  "name": "tokenAddr",
                  "type": "address"
                },
                {
                  "internalType": "uint256",
                  "name": "chainId",
                  "type": "uint256"
                }
              ],
              "internalType": "struct Token.Owner",
              "name": "mainchain",
              "type": "tuple"
            },
            {
              "components": [
                {
                  "internalType": "address",
                  "name": "addr",
                  "type": "address"
                },
                {
                  "internalType": "address",
                  "name": "tokenAddr",
                  "type": "address"
                },
                {
                  "internalType": "uint256",
                  "name": "chainId",
                  "type": "uint256"
                }
              ],
              "internalType": "struct Token.Owner",
              "name": "ronin",
              "type": "tuple"
            },
            {
              "components": [
                {
                  "internalType": "enum Token.Standard",
                  "name": "erc",
                  "type": "uint8"
                },
                {
                  "internalType": "uint256",
                  "name": "id",
                  "type": "uint256"
                },
                {
                  "internalType": "uint256",
                  "name": "quantity",
                  "type": "uint256"
                }
              ],
              "internalType": "struct Token.Info",
              "name": "info",
              "type": "tuple"
            }
          ],
          "internalType": "struct Transfer.Receipt[]",
          "name": "_receipts",
          "type": "tuple[]"
        }
      ],
      "name": "tryBulkDepositFor",
      "outputs": [
        {
          "internalType": "bool[]",
          "name": "_executedReceipts",
          "type": "bool[]"
        }
      ],
      "stateMutability": "nonpayable",
      "type": "function"
    },
    {
      "inputs": [],
      "name": "unpause",
      "outputs": [],
      "stateMutability": "nonpayable",
      "type": "function"
    },
    {
      "inputs": [],
      "name": "validatorContract",
      "outputs": [
        {
          "internalType": "address",
          "name": "",
          "type": "address"
        }
      ],
      "stateMutability": "view",
      "type": "function"
    },
    {
      "inputs": [
        {
          "internalType": "uint256",
          "name": "",
          "type": "uint256"
        }
      ],
      "name": "withdrawal",
      "outputs": [
        {
          "internalType": "uint256",
          "name": "id",
          "type": "uint256"
        },
        {
          "internalType": "enum Transfer.Kind",
          "name": "kind",
          "type": "uint8"
        },
        {
          "components": [
            {
              "internalType": "address",
              "name": "addr",
              "type": "address"
            },
            {
              "internalType": "address",
              "name": "tokenAddr",
              "type": "address"
            },
            {
              "internalType": "uint256",
              "name": "chainId",
              "type": "uint256"
            }
          ],
          "internalType": "struct Token.Owner",
          "name": "mainchain",
          "type": "tuple"
        },
        {
          "components": [
            {
              "internalType": "address",
              "name": "addr",
              "type": "address"
            },
            {
              "internalType": "address",
              "name": "tokenAddr",
              "type": "address"
            },
            {
              "internalType": "uint256",
              "name": "chainId",
              "type": "uint256"
            }
          ],
          "internalType": "struct Token.Owner",
          "name": "ronin",
          "type": "tuple"
        },
        {
          "components": [
            {
              "internalType": "enum Token.Standard",
              "name": "erc",
              "type": "uint8"
            },
            {
              "internalType": "uint256",
              "name": "id",
              "type": "uint256"
            },
            {
              "internalType": "uint256",
              "name": "quantity",
              "type": "uint256"
            }
          ],
          "internalType": "struct Token.Info",
          "name": "info",
          "type": "tuple"
        }
      ],
      "stateMutability": "view",
      "type": "function"
    },
    {
      "inputs": [],
      "name": "withdrawalCount",
      "outputs": [
        {
          "internalType": "uint256",
          "name": "",
          "type": "uint256"
        }
      ],
      "stateMutability": "view",
      "type": "function"
    },
    {
      "inputs": [],
      "name": "withdrawalMigrated",
      "outputs": [
        {
          "internalType": "bool",
          "name": "",
          "type": "bool"
        }
      ],
      "stateMutability": "view",
      "type": "function"
    },
    {
      "inputs": [
        {
          "internalType": "uint256",
          "name": "",
          "type": "uint256"
        }
      ],
      "name": "withdrawalStatVote",
      "outputs": [
        {
          "internalType": "enum VoteStatusConsumer.VoteStatus",
          "name": "status",
          "type": "uint8"
        },
        {
          "internalType": "bytes32",
          "name": "finalHash",
          "type": "bytes32"
        },
        {
          "internalType": "uint256",
          "name": "expiredAt",
          "type": "uint256"
        },
        {
          "internalType": "uint256",
          "name": "createdAt",
          "type": "uint256"
        }
      ],
      "stateMutability": "view",
      "type": "function"
    },
    {
      "stateMutability": "payable",
      "type": "receive"
    }
  ],
  "transactionHash": "0x14771c49cd47fa9ee9ffa222c03c3d35866729a597df2d10e8258a65ededd66b",
  "args": [],
  "numDeployments": 2,
  "solcInputHash": "e5a25d4d8d73a1ea3c0b389e9873eeb5",
  "bytecode": "0x608060405234801561001057600080fd5b506000805460ff19169055615c7b806200002b6000396000f3fe60806040526004361061025e5760003560e01c806301ffc9a714610275578063065b3adf146102aa5780630b1ff17f146102d7578063109679ef146102f757806317892f961461031757806317fa2ea114610340578063248a9ca31461036d5780632f2ff15d1461039b57806336568abe146103bb5780633b5afc22146103db5780633e4574ec146103f05780633e70838b146104105780633f4ba83a146104305780634493421e1461044557806347b56b2c146104635780634d92c4f0146104835780634f2717c7146104e45780635511cde1146104fe5780635a7dd06a1461051c5780635c975abb1461053c5780635d6a9a901461055457806364363f781461058157806371706cbe146105a157806375535f86146105b75780637657990e146105d75780637de5dedd146105ec578063835fc6ca146106015780638456cb59146106325780639010d07c1461064757806391d1485414610667578063931ec987146106875780639584a592146106a757806399439089146106c75780639c8d98da146106e5578063a217fddf14610705578063affed0e01461071a578063b5e337de14610730578063b9afa17714610750578063b9c3620914610770578063bc7f038614610790578063c28f7894146107bd578063ca15c87314610803578063cdf64a7614610823578063d547741f14610843578063dafae40814610863578063dbd2ef6c14610883578063e75235b8146108a3578063ecc83649146108bb578063f0ce418e146108e8578063f668214a1461092e578063fa3896591461094e578063fc6574bc1461096e578063fe90d9c21461098e5761026d565b3661026d5761026b6109b0565b005b61026b6109b0565b34801561028157600080fd5b50610295610290366004614592565b6109fd565b60405190151581526020015b60405180910390f35b3480156102b657600080fd5b506005546102ca906001600160a01b031681565b6040516102a191906145bc565b3480156102e357600080fd5b5061026b6102f23660046145d0565b610a28565b34801561030357600080fd5b5061026b610312366004614601565b610a3f565b34801561032357600080fd5b506078546079545b604080519283526020830191909152016102a1565b34801561034c57600080fd5b5061036061035b36600461465e565b610b69565b6040516102a1919061469f565b34801561037957600080fd5b5061038d6103883660046146e5565b610f3f565b6040519081526020016102a1565b3480156103a757600080fd5b5061026b6103b6366004614723565b610f54565b3480156103c757600080fd5b5061026b6103d6366004614723565b610f75565b3480156103e757600080fd5b5061026b610fef565b3480156103fc57600080fd5b5061029561040b366004614723565b611066565b34801561041c57600080fd5b5061026b61042b366004614753565b611085565b34801561043c57600080fd5b5061026b6110df565b34801561045157600080fd5b506075546001600160a01b03166102ca565b34801561046f57600080fd5b5061026b61047e3660046146e5565b611136565b34801561048f57600080fd5b506104d461049e366004614770565b606f602090815260009283526040808420909152908252902080546001820154600383015460049093015460ff90921692909184565b6040516102a194939291906147a8565b3480156104f057600080fd5b50606d546102959060ff1681565b34801561050a57600080fd5b506077546001600160a01b03166102ca565b34801561052857600080fd5b5061026b61053736600461481c565b611370565b34801561054857600080fd5b5060005460ff16610295565b34801561056057600080fd5b5061057461056f366004614867565b611408565b6040516102a191906148a3565b34801561058d57600080fd5b5061026b61059c3660046148cf565b6114e5565b3480156105ad57600080fd5b5061038d606e5481565b3480156105c357600080fd5b5061032b6105d2366004614770565b611546565b3480156105e357600080fd5b5061038d611597565b3480156105f857600080fd5b5061038d6115ae565b34801561060d57600080fd5b5061062161061c3660046146e5565b6115c0565b6040516102a1959493929190614983565b34801561063e57600080fd5b5061026b611692565b34801561065357600080fd5b506102ca610662366004614770565b6116e7565b34801561067357600080fd5b50610295610682366004614723565b6116ff565b34801561069357600080fd5b5061026b6106a23660046149c2565b61172a565b3480156106b357600080fd5b5061026b6106c2366004614a0c565b6118ce565b3480156106d357600080fd5b506074546001600160a01b03166102ca565b3480156106f157600080fd5b5061026b610700366004614753565b611ac0565b34801561071157600080fd5b5061038d600081565b34801561072657600080fd5b5061038d60045481565b34801561073c57600080fd5b5061026b61074b366004614753565b611b2e565b34801561075c57600080fd5b5061036061076b366004614b05565b611b99565b34801561077c57600080fd5b5061032b61078b366004614770565b611dbd565b34801561079c57600080fd5b5061038d6107ab366004614753565b60386020526000908152604090205481565b3480156107c957600080fd5b506104d46107d83660046146e5565b607660205260009081526040902080546001820154600383015460049093015460ff90921692909184565b34801561080f57600080fd5b5061038d61081e3660046146e5565b611e02565b34801561082f57600080fd5b5061026b61083e366004614753565b611e19565b34801561084f57600080fd5b5061026b61085e366004614723565b611e84565b34801561086f57600080fd5b5061029561087e3660046146e5565b611ea0565b34801561088f57600080fd5b5061026b61089e366004614b7a565b611ecc565b3480156108af57600080fd5b5060015460025461032b565b3480156108c757600080fd5b506108db6108d6366004614c3d565b611f3b565b6040516102a19190614cd8565b3480156108f457600080fd5b506104d46109033660046146e5565b607060205260009081526040902080546001820154600383015460049093015460ff90921692909184565b34801561093a57600080fd5b506102956109493660046146e5565b6120ad565b34801561095a57600080fd5b5061026b6109693660046148cf565b6120db565b34801561097a57600080fd5b50610295610989366004614d3a565b61235c565b34801561099a57600080fd5b5061038d600080516020615c0683398151915281565b60405162461bcd60e51b815260206004820152601f60248201527f526f6e696e4761746577617956323a20696e76616c696420726571756573740060448201526064015b60405180910390fd5b60006001600160e01b03198216635a05180f60e01b1480610a225750610a2282612387565b92915050565b610a306123bc565b610a3b823383612402565b5050565b610a476123bc565b607454604051635a02d57960e11b81526001600160a01b039091169063b405aaf290610a779033906004016145bc565b602060405180830381865afa158015610a94573d6000803e3d6000fd5b505050506040513d601f19601f82011682018060405250810190610ab89190614d73565b610ad45760405162461bcd60e51b81526004016109f490614d95565b33610afd610ae736849003840184614ee6565b82610af06115ae565b610af8611597565b6124da565b60755460405163c7c4fea960e01b81526001600160a01b039091169063c7c4fea990610b33906000908635908690600401614f87565b600060405180830381600087803b158015610b4d57600080fd5b505af1158015610b61573d6000803e3d6000fd5b505050505050565b607454604051635a02d57960e11b81526060916001600160a01b03169063b405aaf290610b9a9033906004016145bc565b602060405180830381865afa158015610bb7573d6000803e3d6000fd5b505050506040513d601f19601f82011682018060405250810190610bdb9190614d73565b610bf75760405162461bcd60e51b81526004016109f490614d95565b336000610c026115ae565b90506000610c0e611597565b90506000856001600160401b03811115610c2a57610c2a614dd8565b604051908082528060200260200182016040528015610c53578160200160208202803683370190505b50945060005b86811015610f3457878782818110610c7357610c73614fb4565b60755460405163c7c4fea960e01b81526020909202939093013594506001600160a01b039092169163c7c4fea99150610cb59060029086908a90600401614f87565b600060405180830381600087803b158015610ccf57600080fd5b505af1158015610ce3573d6000803e3d6000fd5b50505050610cf0826120ad565b15610d1e576001868281518110610d0957610d09614fb4565b91151560209283029190910190910152610f22565b600082815260706020908152604080832060718352818420825160a081019093528054835260018082015492959491929184019160ff1690811115610d6557610d65614792565b6001811115610d7657610d76614792565b8152604080516060808201835260028501546001600160a01b039081168352600386015481166020848101919091526004870154848601528086019390935283518083018552600587015482168152600687015490911692810192909252600785015482840152828401919091528151808201909252600884018054919093019290829060ff166001811115610e0e57610e0e614792565b6001811115610e1f57610e1f614792565b81526001820154602082015260029091015460409091015290525090506000610e47826127e8565b90506000610e58848a8a8a86612871565b90506001816004811115610e6e57610e6e614792565b03610f1d57835460ff19166002908117855560755460405163114fc47560e11b81526001600160a01b039091169163229f88ea91610eb191908a90600401614fca565b600060405180830381600087803b158015610ecb57600080fd5b505af1158015610edf573d6000803e3d6000fd5b505050507f62520d049932cdee872e9b3c59c0f6073637147e5e9bc8b050b062430eaf5c9f8284604051610f14929190614fe5565b60405180910390a15b505050505b80610f2c8161505c565b915050610c59565b505050505092915050565b6000908152606b602052604090206001015490565b610f5d82610f3f565b610f66816128aa565b610f7083836128b4565b505050565b6001600160a01b0381163314610fe55760405162461bcd60e51b815260206004820152602f60248201527f416363657373436f6e74726f6c3a2063616e206f6e6c792072656e6f756e636560448201526e103937b632b9903337b91039b2b63360891b60648201526084016109f4565b610a3b82826128d6565b610ffa6000336116ff565b806110185750611018600080516020615c06833981519152336116ff565b6110345760405162461bcd60e51b81526004016109f490614d95565b606d5460ff16156110575760405162461bcd60e51b81526004016109f490615075565b606d805460ff19166001179055565b600082815260706020526040812061107e90836128f8565b9392505050565b61108d612919565b6001600160a01b0316336001600160a01b0316146110bd5760405162461bcd60e51b81526004016109f4906150b9565b600580546001600160a01b0319166001600160a01b0392909216919091179055565b6110e7612919565b6001600160a01b0316336001600160a01b0316148061111057506005546001600160a01b031633145b61112c5760405162461bcd60e51b81526004016109f4906150fb565b611134612947565b565b61113e6123bc565b611147816120ad565b156111aa5760405162461bcd60e51b815260206004820152602d60248201527f526f6e696e4761746577617956323a207769746864726577206f6e206d61696e60448201526c636861696e20616c726561647960981b60648201526084016109f4565b6000818152607160209081526040808320815160a0810190925280548252600180820154929391929184019160ff16908111156111e9576111e9614792565b60018111156111fa576111fa614792565b8152604080516060808201835260028501546001600160a01b039081168352600386015481166020848101919091526004870154848601528086019390935283518083018552600587015482168152600687015490911692810192909252600785015482840152828401919091528151808201909252600884018054919093019290829060ff16600181111561129257611292614792565b60018111156112a3576112a3614792565b81526001820154602082015260029091015460409182015291526060830151015191925050461461132b5760405162461bcd60e51b815260206004820152602c60248201527f526f6e696e4761746577617956323a20717565727920666f7220696e76616c6960448201526b19081dda5d1a191c985dd85b60a21b60648201526084016109f4565b7f04e8cbd836dea43a2dc7eb19de345cca3a8e6978a2ef5225d924775500f67c7c611355826127e8565b82604051611364929190614fe5565b60405180910390a15050565b6113786123bc565b816113c35760405162461bcd60e51b815260206004820152601b60248201527a526f6e696e4761746577617956323a20656d70747920617272617960281b60448201526064016109f4565b60005b82811015611402576113f08484838181106113e3576113e3614fb4565b905060a002013384612402565b806113fa8161505c565b9150506113c6565b50505050565b604080518082018252600080825260208083018290526001600160a01b038616825260738152838220858352905282902082518084019093528054919291829060ff16600181111561145c5761145c614792565b600181111561146d5761146d614792565b815290546001600160a01b0361010090910481166020928301529082015191925016610a225760405162461bcd60e51b815260206004820152602160248201527f526f6e696e4761746577617956323a20756e737570706f7274656420746f6b656044820152603760f91b60648201526084016109f4565b6114ed612919565b6001600160a01b0316336001600160a01b03161461151d5760405162461bcd60e51b81526004016109f4906150b9565b8261153a5760405162461bcd60e51b81526004016109f490615130565b61140284848484612993565b600080611551612919565b6001600160a01b0316336001600160a01b0316146115815760405162461bcd60e51b81526004016109f4906150b9565b61158b8484612a71565b915091505b9250929050565b60006115a96115a4612b3b565b612ba9565b905090565b60006115a96115bb612bdf565b612c29565b607160209081526000918252604091829020805460018083015485516060808201885260028601546001600160a01b03908116835260038701548116838901526004870154838a015288518083018a526005880154821681526006880154909116978101979097526007860154878901528751908101909752600885018054949760ff93841697929692959294909391928492169081111561166457611664614792565b600181111561167557611675614792565b815260200160018201548152602001600282015481525050905085565b61169a612919565b6001600160a01b0316336001600160a01b031614806116c357506005546001600160a01b031633145b6116df5760405162461bcd60e51b81526004016109f4906150fb565b611134612c41565b6000828152606c6020526040812061107e9083612c7e565b6000918252606b602090815260408084206001600160a01b0393909316845291905290205460ff1690565b600080516020615c06833981519152611742816128aa565b606d5460ff16156117655760405162461bcd60e51b81526004016109f490615075565b818414801561177357508315155b6117bb5760405162461bcd60e51b81526020600482015260256024820152600080516020615c268339815191526044820152646e6774687360d81b60648201526084016109f4565b60005b84811015610b615760006117fc8787848181106117dd576117dd614fb4565b905060a0020160200160208101906117f59190614753565b6001611408565b8051909150600181111561181257611812614792565b87878481811061182457611824614fb4565b61183d92606060a0909202019081019150604001615177565b600181111561184e5761184e614792565b1461186b5760405162461bcd60e51b81526004016109f490615194565b6118b987878481811061188057611880614fb4565b905060a00201600187878681811061189a5761189a614fb4565b90506020020160208101906118af9190614753565b8460200151612c8a565b505080806118c69061505c565b9150506117be565b603754610100900460ff16158080156118ee5750603754600160ff909116105b806119085750303b158015611908575060375460ff166001145b61196b5760405162461bcd60e51b815260206004820152602e60248201527f496e697469616c697a61626c653a20636f6e747261637420697320616c72656160448201526d191e481a5b9a5d1a585b1a5e995960921b60648201526084016109f4565b6037805460ff19166001179055801561198e576037805461ff0019166101001790555b61199960008d612e14565b6119a38b8b612e1e565b50506119af8989612a71565b50600090506119be86806151da565b90501115611a10576119f16119d386806151da565b6119e060208901896151da565b6119ea89806151da565b8989612ed2565b611a106119fe86806151da565b611a0b60208801886151da565b612993565b60005b86811015611a6b57611a59600080516020615c06833981519152898984818110611a3f57611a3f614fb4565b9050602002016020810190611a549190614753565b6128b4565b80611a638161505c565b915050611a13565b508015611ab2576037805461ff0019169055604051600181527f7f26b83ff96e1f2b6a682f133852f6798a09c465da95921460cefb38474024989060200160405180910390a15b505050505050505050505050565b611ac8612919565b6001600160a01b0316336001600160a01b031614611af85760405162461bcd60e51b81526004016109f4906150b9565b6000816001600160a01b03163b11611b225760405162461bcd60e51b81526004016109f490615223565b611b2b816130e8565b50565b611b36612919565b6001600160a01b0316336001600160a01b031614611b665760405162461bcd60e51b81526004016109f4906150b9565b6000816001600160a01b03163b11611b905760405162461bcd60e51b81526004016109f490615223565b611b2b8161313e565b6060611ba36123bc565b607454604051635a02d57960e11b81526001600160a01b039091169063b405aaf290611bd39033906004016145bc565b602060405180830381865afa158015611bf0573d6000803e3d6000fd5b505050506040513d601f19601f82011682018060405250810190611c149190614d73565b611c305760405162461bcd60e51b81526004016109f490614d95565b33611c39614523565b836001600160401b03811115611c5157611c51614dd8565b604051908082528060200260200182016040528015611c7a578160200160208202803683370190505b5092506000611c876115ae565b90506000611c93611597565b905060005b86811015610f3457878782818110611cb257611cb2614fb4565b90506101600201803603810190611cc99190614ee6565b607554815160405163c7c4fea960e01b81529296506001600160a01b039091169163c7c4fea991611d0291600091908a90600401614f87565b600060405180830381600087803b158015611d1c57600080fd5b505af1158015611d30573d6000803e3d6000fd5b5060029250611d3d915050565b6040808601518101516000908152606f6020908152828220885183529052205460ff166004811115611d7157611d71614792565b03611d9f576001868281518110611d8a57611d8a614fb4565b91151560209283029190910190910152611dab565b611dab848685856124da565b80611db58161505c565b915050611c98565b600080611dc8612919565b6001600160a01b0316336001600160a01b031614611df85760405162461bcd60e51b81526004016109f4906150b9565b61158b8484612e1e565b6000818152606c60205260408120610a2290613189565b611e21612919565b6001600160a01b0316336001600160a01b031614611e515760405162461bcd60e51b81526004016109f4906150b9565b6000816001600160a01b03163b11611e7b5760405162461bcd60e51b81526004016109f490615223565b611b2b81613193565b611e8d82610f3f565b611e96816128aa565b610f7083836128d6565b6000611eaa612bdf565b600154611eb79190615266565b600254611ec49084615266565b101592915050565b611ed4612919565b6001600160a01b0316336001600160a01b031614611f045760405162461bcd60e51b81526004016109f4906150b9565b86611f215760405162461bcd60e51b81526004016109f49061527d565b611f318888888888888888612ed2565b5050505050505050565b6060816001600160401b03811115611f5557611f55614dd8565b604051908082528060200260200182016040528015611f8857816020015b6060815260200190600190039081611f735790505b50905060005b828110156120a557600085815260726020526040812090858584818110611fb757611fb7614fb4565b9050602002016020810190611fcc9190614753565b6001600160a01b03166001600160a01b031681526020019081526020016000208054611ff7906152af565b80601f0160208091040260200160405190810160405280929190818152602001828054612023906152af565b80156120705780601f1061204557610100808354040283529160200191612070565b820191906000526020600020905b81548152906001019060200180831161205357829003601f168201915b505050505082828151811061208757612087614fb4565b6020026020010181905250808061209d9061505c565b915050611f8e565b509392505050565b6000600260008381526070602052604090205460ff1660048111156120d4576120d4614792565b1492915050565b6120e36123bc565b607454604051635a02d57960e11b81526001600160a01b039091169063b405aaf2906121139033906004016145bc565b602060405180830381865afa158015612130573d6000803e3d6000fd5b505050506040513d601f19601f820116820180604052508101906121549190614d73565b6121705760405162461bcd60e51b81526004016109f490614d95565b33831580159061217f57508382145b61219b5760405162461bcd60e51b81526004016109f49061527d565b60006121a56115ae565b905060006121b1611597565b90506000805b87811015612351578888828181106121d1576121d1614fb4565b9050602002013591508686828181106121ec576121ec614fb4565b90506020028101906121fe91906152e3565b60008481526072602090815260408083206001600160a01b038b16845290915290209161222c91908361536f565b5060755460405163c7c4fea960e01b81526001600160a01b039091169063c7c4fea9906122629060019086908a90600401614f87565b600060405180830381600087803b15801561227c57600080fd5b505af1158015612290573d6000803e3d6000fd5b505050600083815260766020526040812091506122b08288888888612871565b905060018160048111156122c6576122c6614792565b0361233c57815460ff1916600217825560755460405163114fc47560e11b81526001600160a01b039091169063229f88ea90612309906001908890600401614fca565b600060405180830381600087803b15801561232357600080fd5b505af1158015612337573d6000803e3d6000fd5b505050505b505080806123499061505c565b9150506121b7565b505050505050505050565b6000838152606f60209081526040808320858452909152812061237f90836128f8565b949350505050565b60006001600160e01b03198216637965db0b60e01b1480610a2257506301ffc9a760e01b6001600160e01b0319831614610a22565b60005460ff16156111345760405162461bcd60e51b815260206004820152601060248201526f14185d5cd8589b194e881c185d5cd95960821b60448201526064016109f4565b61241c6124173685900385016040860161542e565b6131de565b6124258361327e565b600061244061243a6040860160208701614753565b83611408565b8051909150600181111561245657612456614792565b6124666060860160408701615177565b600181111561247757612477614792565b146124945760405162461bcd60e51b81526004016109f490615194565b6124c383306124a96040880160208901614753565b6124bb36899003890160408a0161542e565b929190613343565b6124d38483858460200151612c8a565b5050505050565b835160808501516124ea906131de565b60008560200151600181111561250257612502614792565b1461255b5760405162461bcd60e51b8152602060048201526024808201527f526f6e696e4761746577617956323a20696e76616c69642072656365697074206044820152631ada5b9960e21b60648201526084016109f4565b46856060015160400151146125b25760405162461bcd60e51b815260206004820181905260248201527f526f6e696e4761746577617956323a20696e76616c696420636861696e20696460448201526064016109f4565b60006125ce866060015160200151876040015160400151611408565b60808701515190915060018111156125e8576125e8614792565b815160018111156125fb576125fb614792565b14801561262557508560400151602001516001600160a01b031681602001516001600160a01b0316145b6126715760405162461bcd60e51b815260206004820152601f60248201527f526f6e696e4761746577617956323a20696e76616c696420726563656970740060448201526064016109f4565b6040808701518101516000908152606f602090815282822085835290529081209061269b886127e8565b905060006126ac8389898986612871565b905088604001516040015185896001600160a01b03167f48c4262ed68beb92fe5d7d48d70772e49cd50c317937dea60a99f15f794b6459856040516126f391815260200190565b60405180910390a4600181600481111561270f5761270f614792565b0361235157825460ff191660021783556060890151805160209091015160808b015161273e92909160006135da565b607554895160405163114fc47560e11b81526001600160a01b039092169163229f88ea916127729160009190600401614fca565b600060405180830381600087803b15801561278c57600080fd5b505af11580156127a0573d6000803e3d6000fd5b505050507f8d20d8121a34dded9035ff5b43e901c142824f7a22126392992c353c37890524828a6040516127d5929190614fe5565b60405180910390a1505050505050505050565b60007fb9d1fe7c9deeec5dc90a2f47ff1684239519f2545b2228d3d91fb27df3189eea60001b82600001518360200151612825856040015161394f565b612832866060015161394f565b61283f87608001516139b2565b6040516020016128549695949392919061544a565b604051602081830303815290604052805190602001209050919050565b600061287e8686846139f5565b60008061288b8885613a9a565b909250905061289e888784888589613c8c565b98975050505050505050565b611b2b8133613ce8565b6128be8282613d26565b6000828152606c60205260409020610f709082613dac565b6128e08282613dc1565b6000828152606c60205260409020610f709082613e28565b6001600160a01b031660009081526002919091016020526040902054151590565b7fb53127684a568b3173ae13b9f8a6016e243e63b6e8ee1178d6a717850b5d6103546001600160a01b031690565b61294f613e3d565b6000805460ff191690557f5db9ee0a495bf2e6ff9c91a7834c1ba4fdd244a5e8aa4e537bd38aeae4b073aa335b60405161298991906145bc565b60405180910390a1565b8281146129b25760405162461bcd60e51b81526004016109f490615130565b60005b83811015612a2d578282828181106129cf576129cf614fb4565b90506020020135603860008787858181106129ec576129ec614fb4565b9050602002016020810190612a019190614753565b6001600160a01b0316815260208101919091526040016000205580612a258161505c565b9150506129b5565b507f6f52f53a938df83439fa4c6055c7df0a6906d621aa6dfa4708187037fdfc41da84848484604051612a6394939291906154ff565b60405180910390a150505050565b60008082841115612ad05760405162461bcd60e51b8152602060048201526024808201527f4761746577617956323a20696e76616c696420747275737465642074687265736044820152631a1bdb1960e21b60648201526084016109f4565b5050600154600254607884905560798390556004805484918691906000612af68361505c565b9091555060408051868152602081018690527feac82d4d949d2d4f77f96aa68ab6b1bb750da73f14e55d41a1b93f387471ecba91015b60405180910390a49250929050565b6077546040805163cacf8fb560e01b815290516000926001600160a01b03169163cacf8fb59160048083019260209291908290030181865afa158015612b85573d6000803e3d6000fd5b505050506040513d601f19601f820116820180604052508101906115a99190615531565b6000607954600160795484607854612bc19190615266565b612bcb919061554a565b612bd5919061555d565b610a229190615570565b6074546040805163158b54c160e21b815290516000926001600160a01b03169163562d53049160048083019260209291908290030181865afa158015612b85573d6000803e3d6000fd5b6000600254600160025484600154612bc19190615266565b612c496123bc565b6000805460ff191660011790557f62e78cea01bee320cd4e420270b5ea74000d11b0c9f74754ebdbfc544b05a25861297c3390565b600061107e8383613e86565b606e805460009182612c9b8361505c565b9091555090506000612cc284838588612cb9368c90038c018c615592565b93929190613eb0565b60008381526071602090815260409091208251815590820151600180830180549495508594909160ff19909116908381811115612d0157612d01614792565b021790555060408281015180516002840180546001600160a01b039283166001600160a01b03199182161790915560208084015160038701805491851691841691909117905592840151600486015560608601518051600587018054918516918416919091179055928301516006860180549190931691161790550151600782015560808201518051600883018054909190829060ff191660018381811115612dac57612dac614792565b0217905550602082015181600101556040820151816002015550509050507ff313c253a5be72c29d0deb2c8768a9543744ac03d6b3cafd50cc976f1c2632fc612df4826127e8565b82604051612e03929190614fe5565b60405180910390a150949350505050565b610a3b82826128b4565b60008082841115612e705760405162461bcd60e51b815260206004820152601c60248201527b11d85d195dd85e558c8e881a5b9d985b1a59081d1a1c995cda1bdb1960221b60448201526064016109f4565b50506001805460028054928590558390556004805491929184918691906000612e988361505c565b9091555060408051868152602081018690527f976f8a9c5bdf8248dec172376d6e2b80a8e3df2f0328e381c6db8e1cf138c0f89101612b2c565b8685148015612ee057508683145b612efc5760405162461bcd60e51b81526004016109f49061527d565b60005b8781101561309857868682818110612f1957612f19614fb4565b9050602002016020810190612f2e9190614753565b607360008b8b85818110612f4457612f44614fb4565b9050602002016020810190612f599190614753565b6001600160a01b03166001600160a01b031681526020019081526020016000206000878785818110612f8d57612f8d614fb4565b90506020020135815260200190815260200160002060000160016101000a8154816001600160a01b0302191690836001600160a01b03160217905550828282818110612fdb57612fdb614fb4565b9050602002016020810190612ff09190615177565b607360008b8b8581811061300657613006614fb4565b905060200201602081019061301b9190614753565b6001600160a01b03166001600160a01b03168152602001908152602001600020600087878581811061304f5761304f614fb4565b60209081029290920135835250810191909152604001600020805460ff19166001838181111561308157613081614792565b0217905550806130908161505c565b915050612eff565b507f2544bff60c6d5b84946e06804af9f84e150bbee85238dbdee79efca4e0adf40188888888888888886040516130d69897969594939291906155e5565b60405180910390a15050505050505050565b607580546001600160a01b0319166001600160a01b0383161790556040517f034c8da497df28467c79ddadbba1cc3cdd41f510ea73faae271e6f16a6111621906131339083906145bc565b60405180910390a150565b607780546001600160a01b0319166001600160a01b0383161790556040517ffd6f5f93d69a07c593a09be0b208bff13ab4ffd6017df3b33433d63bdc59b4d7906131339083906145bc565b6000610a22825490565b607480546001600160a01b0319166001600160a01b0383161790556040517fef40dc07567635f84f5edbd2f8dbc16b40d9d282dd8e7e6f4ff58236b6836169906131339083906145bc565b6000815160018111156131f3576131f3614792565b148015613204575060008160400151115b801561321257506020810151155b8061323c575060018151600181111561322d5761322d614792565b14801561323c57506040810151155b611b2b5760405162461bcd60e51b8152602060048201526013602482015272546f6b656e3a20696e76616c696420696e666f60681b60448201526064016109f4565b60006132906060830160408401615177565b60018111156132a1576132a1614792565b1415806132df5750603860006132bd6040840160208501614753565b6001600160a01b03168152602081019190915260400160002054608082013510155b611b2b5760405162461bcd60e51b815260206004820152602f60248201527f4d696e696d756d5769746864726177616c3a20717565727920666f7220746f6f60448201526e20736d616c6c207175616e7469747960881b60648201526084016109f4565b60006060818651600181111561335b5761335b614792565b0361343d57826001600160a01b03166323b872dd60e01b8686896040015160405160240161338b93929190615674565b60408051601f198184030181529181526020820180516001600160e01b03166001600160e01b03199094169390931790925290516133c99190615698565b6000604051808303816000865af19150503d8060008114613406576040519150601f19603f3d011682016040523d82523d6000602084013e61340b565b606091505b5090925090508180156134365750805115806134365750808060200190518101906134369190614d73565b9150613557565b60018651600181111561345257613452614792565b0361350557826001600160a01b03166323b872dd8686896020015160405160240161347f93929190615674565b6040516020818303038152906040529060e01b6020820180516001600160e01b0383818316178352505050506040516134b89190615698565b6000604051808303816000865af19150503d80600081146134f5576040519150601f19603f3d011682016040523d82523d6000602084013e6134fa565b606091505b505080925050613557565b60405162461bcd60e51b815260206004820152602160248201527f546f6b656e3a20756e737570706f7274656420746f6b656e207374616e6461726044820152601960fa1b60648201526084016109f4565b81610b615761356586613f1c565b613579866001600160a01b03166014613f89565b61358d866001600160a01b03166014613f89565b6135a1866001600160a01b03166014613f89565b6040516020016135b494939291906156b4565b60408051601f198184030181529082905262461bcd60e51b82526109f49160040161576a565b6000816001600160a01b0316836001600160a01b0316036136895760408086015190516001600160a01b0386169180156108fc02916000818181858888f1935050505061368457816001600160a01b031663d0e30db086604001516040518263ffffffff1660e01b81526004016000604051808303818588803b15801561366057600080fd5b505af1158015613674573d6000803e3d6000fd5b5050505050613684858585614124565b6124d3565b60008551600181111561369e5761369e614792565b0361382f576040516370a0823160e01b81526000906001600160a01b038516906370a08231906136d29030906004016145bc565b602060405180830381865afa1580156136ef573d6000803e3d6000fd5b505050506040513d601f19601f820116820180604052508101906137139190615531565b9050856040015181101561381e57836001600160a01b03166340c10f1930838960400151613741919061555d565b60405160240161375292919061577d565b6040516020818303038152906040529060e01b6020820180516001600160e01b03838183161783525050505060405161378b9190615698565b6000604051808303816000865af19150503d80600081146137c8576040519150601f19603f3d011682016040523d82523d6000602084013e6137cd565b606091505b5050809250508161381e5760405162461bcd60e51b815260206004820152601b60248201527a151bdad95b8e88115490cc8c081b5a5b9d1a5b99c819985a5b1959602a1b60448201526064016109f4565b613829868686614124565b506124d3565b60018551600181111561384457613844614792565b0361350557613858838587602001516141c6565b61368457826001600160a01b03166340c10f1985876020015160405160240161388292919061577d565b6040516020818303038152906040529060e01b6020820180516001600160e01b0383818316178352505050506040516138bb9190615698565b6000604051808303816000865af19150503d80600081146138f8576040519150601f19603f3d011682016040523d82523d6000602084013e6138fd565b606091505b505080915050806136845760405162461bcd60e51b815260206004820152601c60248201527b151bdad95b8e88115490cdcc8c481b5a5b9d1a5b99c819985a5b195960221b60448201526064016109f4565b80516020808301516040808501519051600094612854947f353bdd8d69b9e3185b3972e08b03845c0c14a21a390215302776a7a34b0e87649491939192019384526001600160a01b03928316602085015291166040830152606082015260800190565b80516020808301516040808501519051600094612854947f1e2b74b2a792d5c0f0b6e59b037fa9d43d84fbb759337f0112fcc15ca414fc8d949193919201615796565b60008360030154118015613a0d575042836003015411155b15613a1e57825460ff191660041783555b613a2883836128f8565b15613a5157613a41826001600160a01b03166014613f89565b6040516020016135b491906157c1565b6001600160a01b039091166000818152600284016020908152604082209390935560059093018054600181018255908452919092200180546001600160a01b0319169091179055565b6000806000806000607460009054906101000a90046001600160a01b03166001600160a01b031663b7ab4db56040518163ffffffff1660e01b8152600401600060405180830381865afa158015613af5573d6000803e3d6000fd5b505050506040513d6000823e601f3d908101601f19168201604052613b1d91908101906158ac565b607754604051632907e73160e11b815293965091945092506000916001600160a01b039091169063520fce6290613b58908790600401615997565b600060405180830381865afa158015613b75573d6000803e3d6000fd5b505050506040513d6000823e601f3d908101601f19168201604052613b9d91908101906159d8565b905060005b8351811015613c8057613be16002848381518110613bc257613bc2614fb4565b60200260200101516003811115613bdb57613bdb614792565b9061427a565b8015613c2c575087896002016000868481518110613c0157613c01614fb4565b60200260200101516001600160a01b03166001600160a01b0316815260200190815260200160002054145b15613c6e5786613c3b8161505c565b9750506000828281518110613c5257613c52614fb4565b60200260200101511115613c6e5785613c6a8161505c565b9650505b80613c788161505c565b915050613ba2565b50505050509250929050565b6000858510158015613c9e5750838310155b8015613cbf57506000875460ff166004811115613cbd57613cbd614792565b145b15613cd757865460ff19166001908117885587018290555b50855460ff165b9695505050505050565b613cf282826116ff565b610a3b57613d0a816001600160a01b03166014613f89565b613d15836020613f89565b6040516020016135b4929190615a5d565b613d3082826116ff565b610a3b576000828152606b602090815260408083206001600160a01b03851684529091529020805460ff19166001179055613d683390565b6001600160a01b0316816001600160a01b0316837f2f8788117e7eff1d82e926ec794901d17c78024a50270940304540a733656f0d60405160405180910390a45050565b600061107e836001600160a01b0384166142ad565b613dcb82826116ff565b15610a3b576000828152606b602090815260408083206001600160a01b0385168085529252808320805460ff1916905551339285917ff6391f5c32d9c69d2a47ea670b442974b53935d1edc7fd64eb21e047a839171b9190a45050565b600061107e836001600160a01b0384166142fc565b60005460ff166111345760405162461bcd60e51b815260206004820152601460248201527314185d5cd8589b194e881b9bdd081c185d5cd95960621b60448201526064016109f4565b6000826000018281548110613e9d57613e9d614fb4565b9060005260206000200154905092915050565b613eb8614523565b92835260016020808501919091526060840180516001600160a01b0396871690528682015181519087169083015251466040918201528651818601805191881690915280519490961693909101929092529251810192909252910151608082015290565b6060613f4782600001516001811115613f3757613f37614792565b6001600160a01b03166001613f89565b613f5483602001516143ef565b613f6184604001516143ef565b604051602001613f7393929190615acc565b6040516020818303038152906040529050919050565b60606000613f98836002615266565b613fa390600261554a565b6001600160401b03811115613fba57613fba614dd8565b6040519080825280601f01601f191660200182016040528015613fe4576020820181803683370190505b509050600360fc1b81600081518110613fff57613fff614fb4565b60200101906001600160f81b031916908160001a905350600f60fb1b8160018151811061402e5761402e614fb4565b60200101906001600160f81b031916908160001a9053506000614052846002615266565b61405d90600161554a565b90505b60018111156140d5576f181899199a1a9b1b9c1cb0b131b232b360811b85600f166010811061409157614091614fb4565b1a60f81b8282815181106140a7576140a7614fb4565b60200101906001600160f81b031916908160001a90535060049490941c936140ce81615b4a565b9050614060565b50831561107e5760405162461bcd60e51b815260206004820181905260248201527f537472696e67733a20686578206c656e67746820696e73756666696369656e7460448201526064016109f4565b6000808451600181111561413a5761413a614792565b036141555761414e82848660400151614446565b905061417e565b60018451600181111561416a5761416a614792565b036135055761414e828486602001516141c6565b806114025761418c84613f1c565b6141a0846001600160a01b03166014613f89565b6141b4846001600160a01b03166014613f89565b6040516020016135b493929190615b61565b6000836001600160a01b03166323b872dd60e01b3085856040516024016141ef93929190615674565b60408051601f198184030181529181526020820180516001600160e01b03166001600160e01b031990941693909317909252905161422d9190615698565b6000604051808303816000865af19150503d806000811461426a576040519150601f19603f3d011682016040523d82523d6000602084013e61426f565b606091505b509095945050505050565b600081600381111561428e5761428e614792565b8360038111156142a0576142a0614792565b1660ff1615159392505050565b60008181526001830160205260408120546142f457508154600181810184556000848152602080822090930184905584548482528286019093526040902091909155610a22565b506000610a22565b600081815260018301602052604081205480156143e557600061432060018361555d565b85549091506000906143349060019061555d565b905081811461439957600086600001828154811061435457614354614fb4565b906000526020600020015490508087600001848154811061437757614377614fb4565b6000918252602080832090910192909255918252600188019052604090208390555b85548690806143aa576143aa615bef565b600190038181906000526020600020016000905590558560010160008681526020019081526020016000206000905560019350505050610a22565b6000915050610a22565b6060816000036144195750506040805180820190915260048152630307830360e41b602082015290565b8160005b811561443c578061442d8161505c565b915050600882901c915061441d565b61237f8482613f89565b60006060846001600160a01b031663a9059cbb60e01b858560405160240161446f92919061577d565b60408051601f198184030181529181526020820180516001600160e01b03166001600160e01b03199094169390931790925290516144ad9190615698565b6000604051808303816000865af19150503d80600081146144ea576040519150601f19603f3d011682016040523d82523d6000602084013e6144ef565b606091505b50909250905081801561451a57508051158061451a57508080602001905181019061451a9190614d73565b95945050505050565b6040805160a08101825260008082526020820152908101614542614572565b815260200161454f614572565b815260408051606081018252600080825260208281018290529282015291015290565b604080516060810182526000808252602082018190529181019190915290565b6000602082840312156145a457600080fd5b81356001600160e01b03198116811461107e57600080fd5b6001600160a01b0391909116815260200190565b60008082840360c08112156145e457600080fd5b60a08112156145f257600080fd5b50919360a08501359350915050565b6000610160828403121561461457600080fd5b50919050565b60008083601f84011261462c57600080fd5b5081356001600160401b0381111561464357600080fd5b6020830191508360208260051b850101111561159057600080fd5b6000806020838503121561467157600080fd5b82356001600160401b0381111561468757600080fd5b6146938582860161461a565b90969095509350505050565b6020808252825182820181905260009190848201906040850190845b818110156146d95783511515835292840192918401916001016146bb565b50909695505050505050565b6000602082840312156146f757600080fd5b5035919050565b6001600160a01b0381168114611b2b57600080fd5b803561471e816146fe565b919050565b6000806040838503121561473657600080fd5b823591506020830135614748816146fe565b809150509250929050565b60006020828403121561476557600080fd5b813561107e816146fe565b6000806040838503121561478357600080fd5b50508035926020909101359150565b634e487b7160e01b600052602160045260246000fd5b60808101600586106147bc576147bc614792565b9481526020810193909352604083019190915260609091015290565b60008083601f8401126147ea57600080fd5b5081356001600160401b0381111561480157600080fd5b60208301915083602060a08302850101111561159057600080fd5b60008060006040848603121561483157600080fd5b83356001600160401b0381111561484757600080fd5b614853868287016147d8565b909790965060209590950135949350505050565b6000806040838503121561487a57600080fd5b8235614885816146fe565b946020939093013593505050565b60028110611b2b57611b2b614792565b815160408201906148b381614893565b82526020928301516001600160a01b0316929091019190915290565b600080600080604085870312156148e557600080fd5b84356001600160401b03808211156148fc57600080fd5b6149088883890161461a565b9096509450602087013591508082111561492157600080fd5b5061492e8782880161461a565b95989497509550505050565b80516001600160a01b03908116835260208083015190911690830152604090810151910152565b805161496c81614893565b825260208181015190830152604090810151910152565b858152610160810161499486614893565b8560208301526149a7604083018661493a565b6149b460a083018561493a565b613cde610100830184614961565b600080600080604085870312156149d857600080fd5b84356001600160401b03808211156149ef57600080fd5b614908888389016147d8565b8060408101831015610a2257600080fd5b60008060008060008060008060008060006101208c8e031215614a2e57600080fd5b614a378c614713565b9a5060208c0135995060408c0135985060608c0135975060808c013596506001600160401b0360a08d0135811015614a6e57600080fd5b614a7e8e60a08f01358f0161461a565b909750955060c08d0135811015614a9457600080fd5b614aa48e60c08f01358f016149fb565b94508060e08e01351115614ab757600080fd5b614ac78e60e08f01358f016149fb565b9350806101008e01351115614adb57600080fd5b50614aed8d6101008e01358e0161461a565b81935080925050509295989b509295989b9093969950565b60008060208385031215614b1857600080fd5b82356001600160401b0380821115614b2f57600080fd5b818501915085601f830112614b4357600080fd5b813581811115614b5257600080fd5b86602061016083028501011115614b6857600080fd5b60209290920196919550909350505050565b6000806000806000806000806080898b031215614b9657600080fd5b88356001600160401b0380821115614bad57600080fd5b614bb98c838d0161461a565b909a50985060208b0135915080821115614bd257600080fd5b614bde8c838d0161461a565b909850965060408b0135915080821115614bf757600080fd5b614c038c838d0161461a565b909650945060608b0135915080821115614c1c57600080fd5b50614c298b828c0161461a565b999c989b5096995094979396929594505050565b600080600060408486031215614c5257600080fd5b8335925060208401356001600160401b03811115614c6f57600080fd5b614c7b8682870161461a565b9497909650939450505050565b60005b83811015614ca3578181015183820152602001614c8b565b50506000910152565b60008151808452614cc4816020860160208601614c88565b601f01601f19169290920160200192915050565b6000602080830181845280855180835260408601915060408160051b870101925083870160005b82811015614d2d57603f19888603018452614d1b858351614cac565b94509285019290850190600101614cff565b5092979650505050505050565b600080600060608486031215614d4f57600080fd5b83359250602084013591506040840135614d68816146fe565b809150509250925092565b600060208284031215614d8557600080fd5b8151801515811461107e57600080fd5b60208082526023908201527f526f6e696e4761746577617956323a20756e617574686f72697a65642073656e6040820152623232b960e91b606082015260800190565b634e487b7160e01b600052604160045260246000fd5b604051606081016001600160401b0381118282101715614e1057614e10614dd8565b60405290565b604051601f8201601f191681016001600160401b0381118282101715614e3e57614e3e614dd8565b604052919050565b60028110611b2b57600080fd5b600060608284031215614e6557600080fd5b614e6d614dee565b90508135614e7a816146fe565b81526020820135614e8a816146fe565b806020830152506040820135604082015292915050565b600060608284031215614eb357600080fd5b614ebb614dee565b90508135614ec881614e46565b80825250602082013560208201526040820135604082015292915050565b60006101608284031215614ef957600080fd5b60405160a081016001600160401b0381118282101715614f1b57614f1b614dd8565b604052823581526020830135614f3081614e46565b6020820152614f428460408501614e53565b6040820152614f548460a08501614e53565b6060820152614f67846101008501614ea1565b60808201529392505050565b60038110614f8357614f83614792565b9052565b60608101614f958286614f73565b60208201939093526001600160a01b0391909116604090910152919050565b634e487b7160e01b600052603260045260246000fd5b60408101614fd88285614f73565b8260208301529392505050565b60006101808201905083825282516020830152602083015161500681614893565b80604084015250604083015161501f606084018261493a565b50606083015161503260c084018261493a565b5060808301516120a5610120840182614961565b634e487b7160e01b600052601160045260246000fd5b60006001820161506e5761506e615046565b5060010190565b60208082526024908201527f526f6e696e4761746577617956323a207769746864726177616c73206d696772604082015263185d195960e21b606082015260800190565b60208082526022908201527f48617350726f787941646d696e3a20756e617574686f72697a65642073656e6460408201526132b960f11b606082015260800190565b6020808252818101527f4761746577617956323a206e6f7420617574686f72697a656420706175736572604082015260600190565b60208082526027908201527f4d696e696d756d5769746864726177616c3a20696e76616c6964206172726179604082015266040d8cadccee8d60cb1b606082015260800190565b60006020828403121561518957600080fd5b813561107e81614e46565b60208082526026908201527f526f6e696e4761746577617956323a20696e76616c696420746f6b656e207374604082015265185b99185c9960d21b606082015260800190565b6000808335601e198436030181126151f157600080fd5b8301803591506001600160401b0382111561520b57600080fd5b6020019150600581901b360382131561159057600080fd5b60208082526023908201527f526f6e696e4761746577617956323a2073657420746f206e6f6e2d636f6e74726040820152621858dd60ea1b606082015260800190565b8082028115828204841417610a2257610a22615046565b6020808252602490820152600080516020615c268339815191526040820152630dccee8d60e31b606082015260800190565b600181811c908216806152c357607f821691505b60208210810361461457634e487b7160e01b600052602260045260246000fd5b6000808335601e198436030181126152fa57600080fd5b8301803591506001600160401b0382111561531457600080fd5b60200191503681900382131561159057600080fd5b601f821115610f7057600081815260208120601f850160051c810160208610156153505750805b601f850160051c820191505b81811015610b615782815560010161535c565b6001600160401b0383111561538657615386614dd8565b61539a8361539483546152af565b83615329565b6000601f8411600181146153ce57600085156153b65750838201355b600019600387901b1c1916600186901b1783556124d3565b600083815260209020601f19861690835b828110156153ff57868501358255602094850194600190920191016153df565b508682101561541c5760001960f88860031b161c19848701351681555b505060018560011b0183555050505050565b60006060828403121561544057600080fd5b61107e8383614ea1565b8681526020810186905260c0810161546186614893565b8560408301528460608301528360808301528260a0830152979650505050505050565b8183526000602080850194508260005b858110156154c25781356154a7816146fe565b6001600160a01b031687529582019590820190600101615494565b509495945050505050565b81835260006001600160fb1b038311156154e657600080fd5b8260051b80836020870137939093016020019392505050565b604081526000615513604083018688615484565b82810360208401526155268185876154cd565b979650505050505050565b60006020828403121561554357600080fd5b5051919050565b80820180821115610a2257610a22615046565b81810381811115610a2257610a22615046565b60008261558d57634e487b7160e01b600052601260045260246000fd5b500490565b600060a082840312156155a457600080fd5b6155ac614dee565b82356155b7816146fe565b815260208301356155c7816146fe565b60208201526155d98460408501614ea1565b60408201529392505050565b6080815260006155f9608083018a8c615484565b60208382038185015261560d828a8c615484565b9150838203604085015261562282888a6154cd565b8481036060860152858152869250810160005b8681101561566357833561564881614e46565b61565181614893565b82529282019290820190600101615635565b509c9b505050505050505050505050565b6001600160a01b039384168152919092166020820152604081019190915260600190565b600082516156aa818460208701614c88565b9190910192915050565b7902a37b5b2b71d1031b7bab632103737ba103a3930b739b332b9160351b81526000855160206156ea82601a8601838b01614c88565b65010333937b6960d51b601a92850192830152865161570e81838501848b01614c88565b630103a37960e51b92018181019290925285516157318160248501898501614c88565b660103a37b5b2b7160cd1b60249390910192830152845161575881602b8501848901614c88565b91909101602b01979650505050505050565b60208152600061107e6020830184614cac565b6001600160a01b03929092168252602082015260400190565b848152608081016157a685614893565b84602083015283604083015282606083015295945050505050565b73024b9b7b630ba32b223b7bb32b93730b731b29d160651b8152600082516157f0816014850160208701614c88565b6d08185b1c9958591e481d9bdd195960921b6014939091019283015250602201919050565b60006001600160401b0382111561582e5761582e614dd8565b5060051b60200190565b600082601f83011261584957600080fd5b8151602061585e61585983615815565b614e16565b82815260059290921b8401810191818101908684111561587d57600080fd5b8286015b848110156158a1578051615894816146fe565b8352918301918301615881565b509695505050505050565b6000806000606084860312156158c157600080fd5b83516001600160401b03808211156158d857600080fd5b6158e487838801615838565b94506020915081860151818111156158fb57600080fd5b61590788828901615838565b94505060408601518181111561591c57600080fd5b86019050601f8101871361592f57600080fd5b805161593d61585982615815565b81815260059190911b8201830190838101908983111561595c57600080fd5b928401925b82841015615988578351600481106159795760008081fd5b82529284019290840190615961565b80955050505050509250925092565b6020808252825182820181905260009190848201906040850190845b818110156146d95783516001600160a01b0316835292840192918401916001016159b3565b600060208083850312156159eb57600080fd5b82516001600160401b03811115615a0157600080fd5b8301601f81018513615a1257600080fd5b8051615a2061585982615815565b81815260059190911b82018301908381019087831115615a3f57600080fd5b928401925b8284101561552657835182529284019290840190615a44565b76020b1b1b2b9b9a1b7b73a3937b61d1030b1b1b7bab73a1604d1b815260008351615a8f816017850160208801614c88565b7001034b99036b4b9b9b4b733903937b6329607d1b6017918401918201528351615ac0816028840160208801614c88565b01602801949350505050565b690a8ded6cadc92dcccde560b31b815260008451615af181600a850160208901614c88565b8083019050600b60fa1b80600a8301528551615b1481600b850160208a01614c88565b600b9201918201528351615b2f81600c840160208801614c88565b602960f81b600c9290910191820152600d0195945050505050565b600081615b5957615b59615046565b506000190190565b7902a37b5b2b71d1031b7bab632103737ba103a3930b739b332b9160351b815260008451615b9681601a850160208901614c88565b630103a37960e51b601a918401918201528451615bba81601e840160208901614c88565b660103a37b5b2b7160cd1b601e92909101918201528351615be2816025840160208801614c88565b0160250195945050505050565b634e487b7160e01b600052603160045260246000fdfe384495a48d92b97cd9b9d199c73ed783dd1aa0076a6ebcf9156ca7fef7d2cc40526f6e696e4761746577617956323a20696e76616c6964206172726179206c65a26469706673582212208cd4d8292599ff0b8fe0d69fd71f8f54876d48cbe03af5472ba8a902dd3fad7964736f6c63430008110033",
  "devdoc": {
    "errors": {
      "ErrCallerMustBeBridgeTrackingContract()": [
        {
          "details": "Error of method caller must be bridge tracking contract."
        }
      ],
      "ErrCallerMustBeRoninTrustedOrgContract()": [
        {
          "details": "Error of method caller must be Ronin trusted org contract."
        }
      ],
      "ErrCallerMustBeValidatorContract()": [
        {
          "details": "Error of method caller must be validator contract."
        }
      ],
      "ErrZeroCodeContract()": [
        {
          "details": "Error of set to non-contract."
        }
      ]
    },
    "kind": "dev",
    "methods": {
      "bridgeTrackingContract()": {
        "details": "Returns the bridge tracking contract."
      },
      "bulkRequestWithdrawalFor((address,address,(uint8,uint256,uint256))[],uint256)": {
        "details": "Bulk requests withdrawals. Emits the `WithdrawalRequested` events."
      },
      "bulkSubmitWithdrawalSignatures(uint256[],bytes[])": {
        "details": "Submits withdrawal signatures. Requirements: - The method caller is a validator."
      },
      "checkThreshold(uint256)": {
        "details": "Checks whether the `_voteWeight` passes the threshold."
      },
      "depositFor((uint256,uint8,(address,address,uint256),(address,address,uint256),(uint8,uint256,uint256)))": {
        "details": "Deposits based on the receipt. Requirements: - The method caller is a validator. Emits the `Deposited` once the assets are released."
      },
      "depositVoted(uint256,uint256,address)": {
        "details": "Returns whether the deposit is casted by the voter."
      },
      "getMainchainToken(address,uint256)": {
        "details": "Returns mainchain token address. Reverts for unsupported token."
      },
      "getRoleAdmin(bytes32)": {
        "details": "Returns the admin role that controls `role`. See {grantRole} and {revokeRole}. To change a role's admin, use {_setRoleAdmin}."
      },
      "getRoleMember(bytes32,uint256)": {
        "details": "Returns one of the accounts that have `role`. `index` must be a value between 0 and {getRoleMemberCount}, non-inclusive. Role bearers are not sorted in any particular way, and their ordering may change at any point. WARNING: When using {getRoleMember} and {getRoleMemberCount}, make sure you perform all queries on the same block. See the following https://forum.openzeppelin.com/t/iterating-over-elements-on-enumerableset-in-openzeppelin-contracts/2296[forum post] for more information."
      },
      "getRoleMemberCount(bytes32)": {
        "details": "Returns the number of accounts that have `role`. Can be used together with {getRoleMember} to enumerate all bearers of a role."
      },
      "getThreshold()": {
        "details": "Returns the threshold."
      },
      "getTrustedThreshold()": {
        "details": "Returns the threshold about trusted org."
      },
      "getWithdrawalSignatures(uint256,address[])": {
        "details": "Returns withdrawal signatures."
      },
      "grantRole(bytes32,address)": {
        "details": "Grants `role` to `account`. If `account` had not been already granted `role`, emits a {RoleGranted} event. Requirements: - the caller must have ``role``'s admin role. May emit a {RoleGranted} event."
      },
      "hasRole(bytes32,address)": {
        "details": "Returns `true` if `account` has been granted `role`."
      },
      "initialize(address,uint256,uint256,uint256,uint256,address[],address[][2],uint256[][2],uint8[])": {
        "details": "Initializes contract storage."
      },
      "mainchainWithdrew(uint256)": {
        "details": "Returns whether the withdrawal is done on mainchain."
      },
      "mainchainWithdrewVoted(uint256,address)": {
        "details": "Returns whether the mainchain withdrew is casted by the voter."
      },
      "mapTokens(address[],address[],uint256[],uint8[])": {
        "details": "Maps Ronin tokens to mainchain networks. Requirement: - The method caller is admin. - The arrays have the same length and its length larger than 0. Emits the `TokenMapped` event."
      },
      "markWithdrawalMigrated()": {
        "details": "Mark the migration as done."
      },
      "migrateWithdrawals((address,address,(uint8,uint256,uint256))[],address[])": {
        "details": "Migrates withdrawals. Requirements: - The method caller is the migrator. - The arrays have the same length and its length larger than 0."
      },
      "minimumTrustedVoteWeight()": {
        "details": "Returns the minimum trusted vote weight to pass the threshold."
      },
      "minimumVoteWeight()": {
        "details": "Returns the minimum vote weight to pass the threshold."
      },
      "pause()": {
        "details": "Triggers paused state."
      },
      "paused()": {
        "details": "Returns true if the contract is paused, and false otherwise."
      },
      "renounceRole(bytes32,address)": {
        "details": "Revokes `role` from the calling account. Roles are often managed via {grantRole} and {revokeRole}: this function's purpose is to provide a mechanism for accounts to lose their privileges if they are compromised (such as when a trusted device is misplaced). If the calling account had been revoked `role`, emits a {RoleRevoked} event. Requirements: - the caller must be `account`. May emit a {RoleRevoked} event."
      },
      "requestWithdrawalFor((address,address,(uint8,uint256,uint256)),uint256)": {
        "details": "Locks the assets and request withdrawal. Emits the `WithdrawalRequested` event."
      },
      "requestWithdrawalSignatures(uint256)": {
        "details": "Requests withdrawal signatures for a specific withdrawal. Emits the `WithdrawalSignaturesRequested` event."
      },
      "revokeRole(bytes32,address)": {
        "details": "Revokes `role` from `account`. If `account` had been granted `role`, emits a {RoleRevoked} event. Requirements: - the caller must have ``role``'s admin role. May emit a {RoleRevoked} event."
      },
      "roninTrustedOrganizationContract()": {
        "details": "Returns the ronin trusted organization contract."
      },
      "setBridgeTrackingContract(address)": {
        "details": "Sets the bridge tracking contract. Requirements: - The method caller is admin. - The new address is a contract. Emits the event `BridgeTrackingContractUpdated`."
      },
      "setEmergencyPauser(address)": {
        "details": "Grant emergency pauser role for `_addr`."
      },
      "setMinimumThresholds(address[],uint256[])": {
        "details": "Sets the minimum thresholds to withdraw. Requirements: - The method caller is admin. - The arrays have the same length and its length larger than 0. Emits the `MinimumThresholdsUpdated` event."
      },
      "setRoninTrustedOrganizationContract(address)": {
        "details": "Sets the ronin trusted organization contract. Requirements: - The method caller is admin. - The new address is a contract. Emits the event `RoninTrustedOrganizationContractUpdated`."
      },
      "setThreshold(uint256,uint256)": {
        "details": "Sets the threshold. Requirements: - The method caller is admin. Emits the `ThresholdUpdated` event."
      },
      "setValidatorContract(address)": {
        "details": "Sets the validator contract. Requirements: - The method caller is admin. - The new address is a contract. Emits the event `ValidatorContractUpdated`."
      },
      "supportsInterface(bytes4)": {
        "details": "See {IERC165-supportsInterface}."
      },
      "tryBulkAcknowledgeMainchainWithdrew(uint256[])": {
        "details": "Marks the withdrawals are done on mainchain and returns the boolean array indicating whether the withdrawal vote is already done before. Requirements: - The method caller is a validator. Emits the `MainchainWithdrew` once the valid call passes the quorum threshold."
      },
      "tryBulkDepositFor((uint256,uint8,(address,address,uint256),(address,address,uint256),(uint8,uint256,uint256))[])": {
        "details": "Tries bulk deposits based on the receipts and returns the boolean array indicating whether the deposit vote is already done before. Reverts if the deposit is invalid or is voted by the validator again. Requirements: - The method caller is a validator. Emits the `Deposited` once the assets are released."
      },
      "unpause()": {
        "details": "Triggers unpaused state."
      },
      "validatorContract()": {
        "details": "Returns the validator contract."
      }
    },
    "stateVariables": {
      "WITHDRAWAL_MIGRATOR": {
        "details": "Withdrawal unlocker role hash"
      },
      "_bridgeTrackingContract": {
        "details": "The bridge tracking contract"
      },
      "_mainchainToken": {
        "details": "Mapping from token address => chain id => mainchain token address"
      },
      "_trustedOrgContract": {
        "details": "The trusted organization contract"
      },
      "_validatorContract": {
        "details": "The ronin validator contract"
      },
      "_withdrawalSig": {
        "details": "Mapping from withdrawal id => validator address => signatures"
      },
      "depositVote": {
        "details": "Mapping from chain id => deposit id => deposit vote"
      },
      "mainchainWithdrewVote": {
        "details": "Mapping from withdrawal id => mainchain withdrew vote"
      },
      "withdrawal": {
        "details": "Mapping from withdrawal id => withdrawal receipt"
      },
      "withdrawalCount": {
        "details": "Total withdrawal"
      },
      "withdrawalMigrated": {
        "details": "Flag indicating whether the withdrawal migrate progress is done"
      },
      "withdrawalStatVote": {
        "details": "Mapping from withdrawal id => vote for recording withdrawal stats"
      }
    },
    "version": 1
  },
  "userdoc": {
    "kind": "user",
    "methods": {
      "depositFor((uint256,uint8,(address,address,uint256),(address,address,uint256),(uint8,uint256,uint256)))": {
        "notice": "The assets will be transferred whenever the valid call passes the quorum threshold."
      },
      "tryBulkAcknowledgeMainchainWithdrew(uint256[])": {
        "notice": "Not reverting to avoid unnecessary failed transactions because the validators can send transactions at the same time."
      },
      "tryBulkDepositFor((uint256,uint8,(address,address,uint256),(address,address,uint256),(uint8,uint256,uint256))[])": {
        "notice": "The assets will be transferred whenever the valid call for the receipt passes the quorum threshold. Not reverting to avoid unnecessary failed transactions because the validators can send transactions at the same time."
      }
    },
    "version": 1
  },
  "storageLayout": {
    "storage": [
      {
        "astId": 1535,
        "contract": "contracts/ronin/gateway/RoninGatewayV2.sol:RoninGatewayV2",
        "label": "_paused",
        "offset": 0,
        "slot": "0",
        "type": "t_bool"
      },
      {
        "astId": 4326,
        "contract": "contracts/ronin/gateway/RoninGatewayV2.sol:RoninGatewayV2",
        "label": "_num",
        "offset": 0,
        "slot": "1",
        "type": "t_uint256"
      },
      {
        "astId": 4328,
        "contract": "contracts/ronin/gateway/RoninGatewayV2.sol:RoninGatewayV2",
        "label": "_denom",
        "offset": 0,
        "slot": "2",
        "type": "t_uint256"
      },
      {
        "astId": 4330,
        "contract": "contracts/ronin/gateway/RoninGatewayV2.sol:RoninGatewayV2",
        "label": "______deprecated",
        "offset": 0,
        "slot": "3",
        "type": "t_address"
      },
      {
        "astId": 4332,
        "contract": "contracts/ronin/gateway/RoninGatewayV2.sol:RoninGatewayV2",
        "label": "nonce",
        "offset": 0,
        "slot": "4",
        "type": "t_uint256"
      },
      {
        "astId": 4334,
        "contract": "contracts/ronin/gateway/RoninGatewayV2.sol:RoninGatewayV2",
        "label": "emergencyPauser",
        "offset": 0,
        "slot": "5",
        "type": "t_address"
      },
      {
        "astId": 4339,
        "contract": "contracts/ronin/gateway/RoninGatewayV2.sol:RoninGatewayV2",
        "label": "______gap",
        "offset": 0,
        "slot": "6",
        "type": "t_array(t_uint256)49_storage"
      },
      {
        "astId": 1373,
        "contract": "contracts/ronin/gateway/RoninGatewayV2.sol:RoninGatewayV2",
        "label": "_initialized",
        "offset": 0,
        "slot": "55",
        "type": "t_uint8"
      },
      {
        "astId": 1376,
        "contract": "contracts/ronin/gateway/RoninGatewayV2.sol:RoninGatewayV2",
        "label": "_initializing",
        "offset": 1,
        "slot": "55",
        "type": "t_bool"
      },
      {
        "astId": 4914,
        "contract": "contracts/ronin/gateway/RoninGatewayV2.sol:RoninGatewayV2",
        "label": "minimumThreshold",
        "offset": 0,
        "slot": "56",
        "type": "t_mapping(t_address,t_uint256)"
      },
      {
        "astId": 4919,
        "contract": "contracts/ronin/gateway/RoninGatewayV2.sol:RoninGatewayV2",
        "label": "______gap",
        "offset": 0,
        "slot": "57",
        "type": "t_array(t_uint256)50_storage"
      },
      {
        "astId": 24,
        "contract": "contracts/ronin/gateway/RoninGatewayV2.sol:RoninGatewayV2",
        "label": "_roles",
        "offset": 0,
        "slot": "107",
        "type": "t_mapping(t_bytes32,t_struct(RoleData)19_storage)"
      },
      {
        "astId": 338,
        "contract": "contracts/ronin/gateway/RoninGatewayV2.sol:RoninGatewayV2",
        "label": "_roleMembers",
        "offset": 0,
        "slot": "108",
        "type": "t_mapping(t_bytes32,t_struct(AddressSet)4026_storage)"
      },
      {
        "astId": 24021,
        "contract": "contracts/ronin/gateway/RoninGatewayV2.sol:RoninGatewayV2",
        "label": "withdrawalMigrated",
        "offset": 0,
        "slot": "109",
        "type": "t_bool"
      },
      {
        "astId": 24024,
        "contract": "contracts/ronin/gateway/RoninGatewayV2.sol:RoninGatewayV2",
        "label": "withdrawalCount",
        "offset": 0,
        "slot": "110",
        "type": "t_uint256"
      },
      {
        "astId": 24032,
        "contract": "contracts/ronin/gateway/RoninGatewayV2.sol:RoninGatewayV2",
        "label": "depositVote",
        "offset": 0,
        "slot": "111",
        "type": "t_mapping(t_uint256,t_mapping(t_uint256,t_struct(Vote)12979_storage))"
      },
      {
        "astId": 24038,
        "contract": "contracts/ronin/gateway/RoninGatewayV2.sol:RoninGatewayV2",
        "label": "mainchainWithdrewVote",
        "offset": 0,
        "slot": "112",
        "type": "t_mapping(t_uint256,t_struct(Vote)12979_storage)"
      },
      {
        "astId": 24044,
        "contract": "contracts/ronin/gateway/RoninGatewayV2.sol:RoninGatewayV2",
        "label": "withdrawal",
        "offset": 0,
        "slot": "113",
        "type": "t_mapping(t_uint256,t_struct(Receipt)14425_storage)"
      },
      {
        "astId": 24051,
        "contract": "contracts/ronin/gateway/RoninGatewayV2.sol:RoninGatewayV2",
        "label": "_withdrawalSig",
        "offset": 0,
        "slot": "114",
        "type": "t_mapping(t_uint256,t_mapping(t_address,t_bytes_storage))"
      },
      {
        "astId": 24059,
        "contract": "contracts/ronin/gateway/RoninGatewayV2.sol:RoninGatewayV2",
        "label": "_mainchainToken",
        "offset": 0,
        "slot": "115",
        "type": "t_mapping(t_address,t_mapping(t_uint256,t_struct(MappedToken)10544_storage))"
      },
      {
        "astId": 24063,
        "contract": "contracts/ronin/gateway/RoninGatewayV2.sol:RoninGatewayV2",
        "label": "_validatorContract",
        "offset": 0,
        "slot": "116",
        "type": "t_contract(IRoninValidatorSet)11967"
      },
      {
        "astId": 24067,
        "contract": "contracts/ronin/gateway/RoninGatewayV2.sol:RoninGatewayV2",
        "label": "_bridgeTrackingContract",
        "offset": 0,
        "slot": "117",
        "type": "t_contract(IBridgeTracking)9283"
      },
      {
        "astId": 24073,
        "contract": "contracts/ronin/gateway/RoninGatewayV2.sol:RoninGatewayV2",
        "label": "withdrawalStatVote",
        "offset": 0,
        "slot": "118",
        "type": "t_mapping(t_uint256,t_struct(Vote)12979_storage)"
      },
      {
        "astId": 24077,
        "contract": "contracts/ronin/gateway/RoninGatewayV2.sol:RoninGatewayV2",
        "label": "_trustedOrgContract",
        "offset": 0,
        "slot": "119",
        "type": "t_contract(IRoninTrustedOrganization)10182"
      },
      {
        "astId": 24079,
        "contract": "contracts/ronin/gateway/RoninGatewayV2.sol:RoninGatewayV2",
        "label": "_trustedNum",
        "offset": 0,
        "slot": "120",
        "type": "t_uint256"
      },
      {
        "astId": 24081,
        "contract": "contracts/ronin/gateway/RoninGatewayV2.sol:RoninGatewayV2",
        "label": "_trustedDenom",
        "offset": 0,
        "slot": "121",
        "type": "t_uint256"
      }
    ],
    "types": {
      "t_address": {
        "encoding": "inplace",
        "label": "address",
        "numberOfBytes": "20"
      },
      "t_array(t_address)dyn_storage": {
        "base": "t_address",
        "encoding": "dynamic_array",
        "label": "address[]",
        "numberOfBytes": "32"
      },
      "t_array(t_bytes32)dyn_storage": {
        "base": "t_bytes32",
        "encoding": "dynamic_array",
        "label": "bytes32[]",
        "numberOfBytes": "32"
      },
      "t_array(t_uint256)49_storage": {
        "base": "t_uint256",
        "encoding": "inplace",
        "label": "uint256[49]",
        "numberOfBytes": "1568"
      },
      "t_array(t_uint256)50_storage": {
        "base": "t_uint256",
        "encoding": "inplace",
        "label": "uint256[50]",
        "numberOfBytes": "1600"
      },
      "t_bool": {
        "encoding": "inplace",
        "label": "bool",
        "numberOfBytes": "1"
      },
      "t_bytes32": {
        "encoding": "inplace",
        "label": "bytes32",
        "numberOfBytes": "32"
      },
      "t_bytes_storage": {
        "encoding": "bytes",
        "label": "bytes",
        "numberOfBytes": "32"
      },
      "t_contract(IBridgeTracking)9283": {
        "encoding": "inplace",
        "label": "contract IBridgeTracking",
        "numberOfBytes": "20"
      },
      "t_contract(IRoninTrustedOrganization)10182": {
        "encoding": "inplace",
        "label": "contract IRoninTrustedOrganization",
        "numberOfBytes": "20"
      },
      "t_contract(IRoninValidatorSet)11967": {
        "encoding": "inplace",
        "label": "contract IRoninValidatorSet",
        "numberOfBytes": "20"
      },
      "t_enum(Kind)14222": {
        "encoding": "inplace",
        "label": "enum Transfer.Kind",
        "numberOfBytes": "1"
      },
      "t_enum(Standard)13614": {
        "encoding": "inplace",
        "label": "enum Token.Standard",
        "numberOfBytes": "1"
      },
      "t_enum(VoteStatus)10571": {
        "encoding": "inplace",
        "label": "enum VoteStatusConsumer.VoteStatus",
        "numberOfBytes": "1"
      },
      "t_mapping(t_address,t_bool)": {
        "encoding": "mapping",
        "key": "t_address",
        "label": "mapping(address => bool)",
        "numberOfBytes": "32",
        "value": "t_bool"
      },
      "t_mapping(t_address,t_bytes32)": {
        "encoding": "mapping",
        "key": "t_address",
        "label": "mapping(address => bytes32)",
        "numberOfBytes": "32",
        "value": "t_bytes32"
      },
      "t_mapping(t_address,t_bytes_storage)": {
        "encoding": "mapping",
        "key": "t_address",
        "label": "mapping(address => bytes)",
        "numberOfBytes": "32",
        "value": "t_bytes_storage"
      },
      "t_mapping(t_address,t_mapping(t_uint256,t_struct(MappedToken)10544_storage))": {
        "encoding": "mapping",
        "key": "t_address",
        "label": "mapping(address => mapping(uint256 => struct MappedTokenConsumer.MappedToken))",
        "numberOfBytes": "32",
        "value": "t_mapping(t_uint256,t_struct(MappedToken)10544_storage)"
      },
      "t_mapping(t_address,t_uint256)": {
        "encoding": "mapping",
        "key": "t_address",
        "label": "mapping(address => uint256)",
        "numberOfBytes": "32",
        "value": "t_uint256"
      },
      "t_mapping(t_bytes32,t_struct(AddressSet)4026_storage)": {
        "encoding": "mapping",
        "key": "t_bytes32",
        "label": "mapping(bytes32 => struct EnumerableSet.AddressSet)",
        "numberOfBytes": "32",
        "value": "t_struct(AddressSet)4026_storage"
      },
      "t_mapping(t_bytes32,t_struct(RoleData)19_storage)": {
        "encoding": "mapping",
        "key": "t_bytes32",
        "label": "mapping(bytes32 => struct AccessControl.RoleData)",
        "numberOfBytes": "32",
        "value": "t_struct(RoleData)19_storage"
      },
      "t_mapping(t_bytes32,t_uint256)": {
        "encoding": "mapping",
        "key": "t_bytes32",
        "label": "mapping(bytes32 => uint256)",
        "numberOfBytes": "32",
        "value": "t_uint256"
      },
      "t_mapping(t_uint256,t_mapping(t_address,t_bytes_storage))": {
        "encoding": "mapping",
        "key": "t_uint256",
        "label": "mapping(uint256 => mapping(address => bytes))",
        "numberOfBytes": "32",
        "value": "t_mapping(t_address,t_bytes_storage)"
      },
      "t_mapping(t_uint256,t_mapping(t_uint256,t_struct(Vote)12979_storage))": {
        "encoding": "mapping",
        "key": "t_uint256",
        "label": "mapping(uint256 => mapping(uint256 => struct IsolatedGovernance.Vote))",
        "numberOfBytes": "32",
        "value": "t_mapping(t_uint256,t_struct(Vote)12979_storage)"
      },
      "t_mapping(t_uint256,t_struct(MappedToken)10544_storage)": {
        "encoding": "mapping",
        "key": "t_uint256",
        "label": "mapping(uint256 => struct MappedTokenConsumer.MappedToken)",
        "numberOfBytes": "32",
        "value": "t_struct(MappedToken)10544_storage"
      },
      "t_mapping(t_uint256,t_struct(Receipt)14425_storage)": {
        "encoding": "mapping",
        "key": "t_uint256",
        "label": "mapping(uint256 => struct Transfer.Receipt)",
        "numberOfBytes": "32",
        "value": "t_struct(Receipt)14425_storage"
      },
      "t_mapping(t_uint256,t_struct(Vote)12979_storage)": {
        "encoding": "mapping",
        "key": "t_uint256",
        "label": "mapping(uint256 => struct IsolatedGovernance.Vote)",
        "numberOfBytes": "32",
        "value": "t_struct(Vote)12979_storage"
      },
      "t_struct(AddressSet)4026_storage": {
        "encoding": "inplace",
        "label": "struct EnumerableSet.AddressSet",
        "members": [
          {
            "astId": 4025,
            "contract": "contracts/ronin/gateway/RoninGatewayV2.sol:RoninGatewayV2",
            "label": "_inner",
            "offset": 0,
            "slot": "0",
            "type": "t_struct(Set)3725_storage"
          }
        ],
        "numberOfBytes": "64"
      },
      "t_struct(Info)13622_storage": {
        "encoding": "inplace",
        "label": "struct Token.Info",
        "members": [
          {
            "astId": 13617,
            "contract": "contracts/ronin/gateway/RoninGatewayV2.sol:RoninGatewayV2",
            "label": "erc",
            "offset": 0,
            "slot": "0",
            "type": "t_enum(Standard)13614"
          },
          {
            "astId": 13619,
            "contract": "contracts/ronin/gateway/RoninGatewayV2.sol:RoninGatewayV2",
            "label": "id",
            "offset": 0,
            "slot": "1",
            "type": "t_uint256"
          },
          {
            "astId": 13621,
            "contract": "contracts/ronin/gateway/RoninGatewayV2.sol:RoninGatewayV2",
            "label": "quantity",
            "offset": 0,
            "slot": "2",
            "type": "t_uint256"
          }
        ],
        "numberOfBytes": "96"
      },
      "t_struct(MappedToken)10544_storage": {
        "encoding": "inplace",
        "label": "struct MappedTokenConsumer.MappedToken",
        "members": [
          {
            "astId": 10541,
            "contract": "contracts/ronin/gateway/RoninGatewayV2.sol:RoninGatewayV2",
            "label": "erc",
            "offset": 0,
            "slot": "0",
            "type": "t_enum(Standard)13614"
          },
          {
            "astId": 10543,
            "contract": "contracts/ronin/gateway/RoninGatewayV2.sol:RoninGatewayV2",
            "label": "tokenAddr",
            "offset": 1,
            "slot": "0",
            "type": "t_address"
          }
        ],
        "numberOfBytes": "32"
      },
      "t_struct(Owner)14183_storage": {
        "encoding": "inplace",
        "label": "struct Token.Owner",
        "members": [
          {
            "astId": 14178,
            "contract": "contracts/ronin/gateway/RoninGatewayV2.sol:RoninGatewayV2",
            "label": "addr",
            "offset": 0,
            "slot": "0",
            "type": "t_address"
          },
          {
            "astId": 14180,
            "contract": "contracts/ronin/gateway/RoninGatewayV2.sol:RoninGatewayV2",
            "label": "tokenAddr",
            "offset": 0,
            "slot": "1",
            "type": "t_address"
          },
          {
            "astId": 14182,
            "contract": "contracts/ronin/gateway/RoninGatewayV2.sol:RoninGatewayV2",
            "label": "chainId",
            "offset": 0,
            "slot": "2",
            "type": "t_uint256"
          }
        ],
        "numberOfBytes": "96"
      },
      "t_struct(Receipt)14425_storage": {
        "encoding": "inplace",
        "label": "struct Transfer.Receipt",
        "members": [
          {
            "astId": 14412,
            "contract": "contracts/ronin/gateway/RoninGatewayV2.sol:RoninGatewayV2",
            "label": "id",
            "offset": 0,
            "slot": "0",
            "type": "t_uint256"
          },
          {
            "astId": 14415,
            "contract": "contracts/ronin/gateway/RoninGatewayV2.sol:RoninGatewayV2",
            "label": "kind",
            "offset": 0,
            "slot": "1",
            "type": "t_enum(Kind)14222"
          },
          {
            "astId": 14418,
            "contract": "contracts/ronin/gateway/RoninGatewayV2.sol:RoninGatewayV2",
            "label": "mainchain",
            "offset": 0,
            "slot": "2",
            "type": "t_struct(Owner)14183_storage"
          },
          {
            "astId": 14421,
            "contract": "contracts/ronin/gateway/RoninGatewayV2.sol:RoninGatewayV2",
            "label": "ronin",
            "offset": 0,
            "slot": "5",
            "type": "t_struct(Owner)14183_storage"
          },
          {
            "astId": 14424,
            "contract": "contracts/ronin/gateway/RoninGatewayV2.sol:RoninGatewayV2",
            "label": "info",
            "offset": 0,
            "slot": "8",
            "type": "t_struct(Info)13622_storage"
          }
        ],
        "numberOfBytes": "352"
      },
      "t_struct(RoleData)19_storage": {
        "encoding": "inplace",
        "label": "struct AccessControl.RoleData",
        "members": [
          {
            "astId": 16,
            "contract": "contracts/ronin/gateway/RoninGatewayV2.sol:RoninGatewayV2",
            "label": "members",
            "offset": 0,
            "slot": "0",
            "type": "t_mapping(t_address,t_bool)"
          },
          {
            "astId": 18,
            "contract": "contracts/ronin/gateway/RoninGatewayV2.sol:RoninGatewayV2",
            "label": "adminRole",
            "offset": 0,
            "slot": "1",
            "type": "t_bytes32"
          }
        ],
        "numberOfBytes": "64"
      },
      "t_struct(Set)3725_storage": {
        "encoding": "inplace",
        "label": "struct EnumerableSet.Set",
        "members": [
          {
            "astId": 3720,
            "contract": "contracts/ronin/gateway/RoninGatewayV2.sol:RoninGatewayV2",
            "label": "_values",
            "offset": 0,
            "slot": "0",
            "type": "t_array(t_bytes32)dyn_storage"
          },
          {
            "astId": 3724,
            "contract": "contracts/ronin/gateway/RoninGatewayV2.sol:RoninGatewayV2",
            "label": "_indexes",
            "offset": 0,
            "slot": "1",
            "type": "t_mapping(t_bytes32,t_uint256)"
          }
        ],
        "numberOfBytes": "64"
      },
      "t_struct(Vote)12979_storage": {
        "encoding": "inplace",
        "label": "struct IsolatedGovernance.Vote",
        "members": [
          {
            "astId": 12961,
            "contract": "contracts/ronin/gateway/RoninGatewayV2.sol:RoninGatewayV2",
            "label": "status",
            "offset": 0,
            "slot": "0",
            "type": "t_enum(VoteStatus)10571"
          },
          {
            "astId": 12963,
            "contract": "contracts/ronin/gateway/RoninGatewayV2.sol:RoninGatewayV2",
            "label": "finalHash",
            "offset": 0,
            "slot": "1",
            "type": "t_bytes32"
          },
          {
            "astId": 12968,
            "contract": "contracts/ronin/gateway/RoninGatewayV2.sol:RoninGatewayV2",
            "label": "voteHashOf",
            "offset": 0,
            "slot": "2",
            "type": "t_mapping(t_address,t_bytes32)"
          },
          {
            "astId": 12971,
            "contract": "contracts/ronin/gateway/RoninGatewayV2.sol:RoninGatewayV2",
            "label": "expiredAt",
            "offset": 0,
            "slot": "3",
            "type": "t_uint256"
          },
          {
            "astId": 12974,
            "contract": "contracts/ronin/gateway/RoninGatewayV2.sol:RoninGatewayV2",
            "label": "createdAt",
            "offset": 0,
            "slot": "4",
            "type": "t_uint256"
          },
          {
            "astId": 12978,
            "contract": "contracts/ronin/gateway/RoninGatewayV2.sol:RoninGatewayV2",
            "label": "voters",
            "offset": 0,
            "slot": "5",
            "type": "t_array(t_address)dyn_storage"
          }
        ],
        "numberOfBytes": "192"
      },
      "t_uint256": {
        "encoding": "inplace",
        "label": "uint256",
        "numberOfBytes": "32"
      },
      "t_uint8": {
        "encoding": "inplace",
        "label": "uint8",
        "numberOfBytes": "1"
      }
    }
  }
}