{
  "address": "0xe44b763dEb31b412c6c2b2Bd0FeDB7D12aCC9131",
  "abi": [
    {
      "inputs": [],
      "name": "ErrCallerMustBeBridgeTrackingContract",
      "type": "error"
    },
    {
      "inputs": [],
      "name": "ErrCallerMustBeRoninTrustedOrgContract",
      "type": "error"
    },
    {
      "inputs": [],
      "name": "ErrCallerMustBeValidatorContract",
      "type": "error"
    },
    {
      "inputs": [],
      "name": "ErrZeroCodeContract",
      "type": "error"
    },
    {
      "anonymous": false,
      "inputs": [
        {
          "indexed": false,
          "internalType": "address",
          "name": "",
          "type": "address"
        }
      ],
      "name": "BridgeTrackingContractUpdated",
      "type": "event"
    },
    {
      "anonymous": false,
      "inputs": [
        {
          "indexed": true,
          "internalType": "address",
          "name": "bridgeOperator",
          "type": "address"
        },
        {
          "indexed": true,
          "internalType": "uint256",
          "name": "id",
          "type": "uint256"
        },
        {
          "indexed": true,
          "internalType": "uint256",
          "name": "chainId",
          "type": "uint256"
        },
        {
          "indexed": false,
          "internalType": "bytes32",
          "name": "receiptHash",
          "type": "bytes32"
        }
      ],
      "name": "DepositVoted",
      "type": "event"
    },
    {
      "anonymous": false,
      "inputs": [
        {
          "indexed": false,
          "internalType": "bytes32",
          "name": "receiptHash",
          "type": "bytes32"
        },
        {
          "components": [
            {
              "internalType": "uint256",
              "name": "id",
              "type": "uint256"
            },
            {
              "internalType": "enum Transfer.Kind",
              "name": "kind",
              "type": "uint8"
            },
            {
              "components": [
                {
                  "internalType": "address",
                  "name": "addr",
                  "type": "address"
                },
                {
                  "internalType": "address",
                  "name": "tokenAddr",
                  "type": "address"
                },
                {
                  "internalType": "uint256",
                  "name": "chainId",
                  "type": "uint256"
                }
              ],
              "internalType": "struct Token.Owner",
              "name": "mainchain",
              "type": "tuple"
            },
            {
              "components": [
                {
                  "internalType": "address",
                  "name": "addr",
                  "type": "address"
                },
                {
                  "internalType": "address",
                  "name": "tokenAddr",
                  "type": "address"
                },
                {
                  "internalType": "uint256",
                  "name": "chainId",
                  "type": "uint256"
                }
              ],
              "internalType": "struct Token.Owner",
              "name": "ronin",
              "type": "tuple"
            },
            {
              "components": [
                {
                  "internalType": "enum Token.Standard",
                  "name": "erc",
                  "type": "uint8"
                },
                {
                  "internalType": "uint256",
                  "name": "id",
                  "type": "uint256"
                },
                {
                  "internalType": "uint256",
                  "name": "quantity",
                  "type": "uint256"
                }
              ],
              "internalType": "struct Token.Info",
              "name": "info",
              "type": "tuple"
            }
          ],
          "indexed": false,
          "internalType": "struct Transfer.Receipt",
          "name": "receipt",
          "type": "tuple"
        }
      ],
      "name": "Deposited",
      "type": "event"
    },
    {
      "anonymous": false,
      "inputs": [
        {
          "indexed": false,
          "internalType": "uint8",
          "name": "version",
          "type": "uint8"
        }
      ],
      "name": "Initialized",
      "type": "event"
    },
    {
      "anonymous": false,
      "inputs": [
        {
          "indexed": false,
          "internalType": "bytes32",
          "name": "receiptHash",
          "type": "bytes32"
        },
        {
          "components": [
            {
              "internalType": "uint256",
              "name": "id",
              "type": "uint256"
            },
            {
              "internalType": "enum Transfer.Kind",
              "name": "kind",
              "type": "uint8"
            },
            {
              "components": [
                {
                  "internalType": "address",
                  "name": "addr",
                  "type": "address"
                },
                {
                  "internalType": "address",
                  "name": "tokenAddr",
                  "type": "address"
                },
                {
                  "internalType": "uint256",
                  "name": "chainId",
                  "type": "uint256"
                }
              ],
              "internalType": "struct Token.Owner",
              "name": "mainchain",
              "type": "tuple"
            },
            {
              "components": [
                {
                  "internalType": "address",
                  "name": "addr",
                  "type": "address"
                },
                {
                  "internalType": "address",
                  "name": "tokenAddr",
                  "type": "address"
                },
                {
                  "internalType": "uint256",
                  "name": "chainId",
                  "type": "uint256"
                }
              ],
              "internalType": "struct Token.Owner",
              "name": "ronin",
              "type": "tuple"
            },
            {
              "components": [
                {
                  "internalType": "enum Token.Standard",
                  "name": "erc",
                  "type": "uint8"
                },
                {
                  "internalType": "uint256",
                  "name": "id",
                  "type": "uint256"
                },
                {
                  "internalType": "uint256",
                  "name": "quantity",
                  "type": "uint256"
                }
              ],
              "internalType": "struct Token.Info",
              "name": "info",
              "type": "tuple"
            }
          ],
          "indexed": false,
          "internalType": "struct Transfer.Receipt",
          "name": "receipt",
          "type": "tuple"
        }
      ],
      "name": "MainchainWithdrew",
      "type": "event"
    },
    {
      "anonymous": false,
      "inputs": [
        {
          "indexed": false,
          "internalType": "address[]",
          "name": "tokens",
          "type": "address[]"
        },
        {
          "indexed": false,
          "internalType": "uint256[]",
          "name": "threshold",
          "type": "uint256[]"
        }
      ],
      "name": "MinimumThresholdsUpdated",
      "type": "event"
    },
    {
      "anonymous": false,
      "inputs": [
        {
          "indexed": false,
          "internalType": "address",
          "name": "account",
          "type": "address"
        }
      ],
      "name": "Paused",
      "type": "event"
    },
    {
      "anonymous": false,
      "inputs": [
        {
          "indexed": true,
          "internalType": "bytes32",
          "name": "role",
          "type": "bytes32"
        },
        {
          "indexed": true,
          "internalType": "bytes32",
          "name": "previousAdminRole",
          "type": "bytes32"
        },
        {
          "indexed": true,
          "internalType": "bytes32",
          "name": "newAdminRole",
          "type": "bytes32"
        }
      ],
      "name": "RoleAdminChanged",
      "type": "event"
    },
    {
      "anonymous": false,
      "inputs": [
        {
          "indexed": true,
          "internalType": "bytes32",
          "name": "role",
          "type": "bytes32"
        },
        {
          "indexed": true,
          "internalType": "address",
          "name": "account",
          "type": "address"
        },
        {
          "indexed": true,
          "internalType": "address",
          "name": "sender",
          "type": "address"
        }
      ],
      "name": "RoleGranted",
      "type": "event"
    },
    {
      "anonymous": false,
      "inputs": [
        {
          "indexed": true,
          "internalType": "bytes32",
          "name": "role",
          "type": "bytes32"
        },
        {
          "indexed": true,
          "internalType": "address",
          "name": "account",
          "type": "address"
        },
        {
          "indexed": true,
          "internalType": "address",
          "name": "sender",
          "type": "address"
        }
      ],
      "name": "RoleRevoked",
      "type": "event"
    },
    {
      "anonymous": false,
      "inputs": [
        {
          "indexed": false,
          "internalType": "address",
          "name": "",
          "type": "address"
        }
      ],
      "name": "RoninTrustedOrganizationContractUpdated",
      "type": "event"
    },
    {
      "anonymous": false,
      "inputs": [
        {
          "indexed": true,
          "internalType": "uint256",
          "name": "nonce",
          "type": "uint256"
        },
        {
          "indexed": true,
          "internalType": "uint256",
          "name": "numerator",
          "type": "uint256"
        },
        {
          "indexed": true,
          "internalType": "uint256",
          "name": "denominator",
          "type": "uint256"
        },
        {
          "indexed": false,
          "internalType": "uint256",
          "name": "previousNumerator",
          "type": "uint256"
        },
        {
          "indexed": false,
          "internalType": "uint256",
          "name": "previousDenominator",
          "type": "uint256"
        }
      ],
      "name": "ThresholdUpdated",
      "type": "event"
    },
    {
      "anonymous": false,
      "inputs": [
        {
          "indexed": false,
          "internalType": "address[]",
          "name": "roninTokens",
          "type": "address[]"
        },
        {
          "indexed": false,
          "internalType": "address[]",
          "name": "mainchainTokens",
          "type": "address[]"
        },
        {
          "indexed": false,
          "internalType": "uint256[]",
          "name": "chainIds",
          "type": "uint256[]"
        },
        {
          "indexed": false,
          "internalType": "enum Token.Standard[]",
          "name": "standards",
          "type": "uint8[]"
        }
      ],
      "name": "TokenMapped",
      "type": "event"
    },
    {
      "anonymous": false,
      "inputs": [
        {
          "indexed": true,
          "internalType": "uint256",
          "name": "nonce",
          "type": "uint256"
        },
        {
          "indexed": true,
          "internalType": "uint256",
          "name": "numerator",
          "type": "uint256"
        },
        {
          "indexed": true,
          "internalType": "uint256",
          "name": "denominator",
          "type": "uint256"
        },
        {
          "indexed": false,
          "internalType": "uint256",
          "name": "previousNumerator",
          "type": "uint256"
        },
        {
          "indexed": false,
          "internalType": "uint256",
          "name": "previousDenominator",
          "type": "uint256"
        }
      ],
      "name": "TrustedThresholdUpdated",
      "type": "event"
    },
    {
      "anonymous": false,
      "inputs": [
        {
          "indexed": false,
          "internalType": "address",
          "name": "account",
          "type": "address"
        }
      ],
      "name": "Unpaused",
      "type": "event"
    },
    {
      "anonymous": false,
      "inputs": [
        {
          "indexed": false,
          "internalType": "address",
          "name": "",
          "type": "address"
        }
      ],
      "name": "ValidatorContractUpdated",
      "type": "event"
    },
    {
      "anonymous": false,
      "inputs": [
        {
          "indexed": false,
          "internalType": "bytes32",
          "name": "receiptHash",
          "type": "bytes32"
        },
        {
          "components": [
            {
              "internalType": "uint256",
              "name": "id",
              "type": "uint256"
            },
            {
              "internalType": "enum Transfer.Kind",
              "name": "kind",
              "type": "uint8"
            },
            {
              "components": [
                {
                  "internalType": "address",
                  "name": "addr",
                  "type": "address"
                },
                {
                  "internalType": "address",
                  "name": "tokenAddr",
                  "type": "address"
                },
                {
                  "internalType": "uint256",
                  "name": "chainId",
                  "type": "uint256"
                }
              ],
              "internalType": "struct Token.Owner",
              "name": "mainchain",
              "type": "tuple"
            },
            {
              "components": [
                {
                  "internalType": "address",
                  "name": "addr",
                  "type": "address"
                },
                {
                  "internalType": "address",
                  "name": "tokenAddr",
                  "type": "address"
                },
                {
                  "internalType": "uint256",
                  "name": "chainId",
                  "type": "uint256"
                }
              ],
              "internalType": "struct Token.Owner",
              "name": "ronin",
              "type": "tuple"
            },
            {
              "components": [
                {
                  "internalType": "enum Token.Standard",
                  "name": "erc",
                  "type": "uint8"
                },
                {
                  "internalType": "uint256",
                  "name": "id",
                  "type": "uint256"
                },
                {
                  "internalType": "uint256",
                  "name": "quantity",
                  "type": "uint256"
                }
              ],
              "internalType": "struct Token.Info",
              "name": "info",
              "type": "tuple"
            }
          ],
          "indexed": false,
          "internalType": "struct Transfer.Receipt",
          "name": "",
          "type": "tuple"
        }
      ],
      "name": "WithdrawalRequested",
      "type": "event"
    },
    {
      "anonymous": false,
      "inputs": [
        {
          "indexed": false,
          "internalType": "bytes32",
          "name": "receiptHash",
          "type": "bytes32"
        },
        {
          "components": [
            {
              "internalType": "uint256",
              "name": "id",
              "type": "uint256"
            },
            {
              "internalType": "enum Transfer.Kind",
              "name": "kind",
              "type": "uint8"
            },
            {
              "components": [
                {
                  "internalType": "address",
                  "name": "addr",
                  "type": "address"
                },
                {
                  "internalType": "address",
                  "name": "tokenAddr",
                  "type": "address"
                },
                {
                  "internalType": "uint256",
                  "name": "chainId",
                  "type": "uint256"
                }
              ],
              "internalType": "struct Token.Owner",
              "name": "mainchain",
              "type": "tuple"
            },
            {
              "components": [
                {
                  "internalType": "address",
                  "name": "addr",
                  "type": "address"
                },
                {
                  "internalType": "address",
                  "name": "tokenAddr",
                  "type": "address"
                },
                {
                  "internalType": "uint256",
                  "name": "chainId",
                  "type": "uint256"
                }
              ],
              "internalType": "struct Token.Owner",
              "name": "ronin",
              "type": "tuple"
            },
            {
              "components": [
                {
                  "internalType": "enum Token.Standard",
                  "name": "erc",
                  "type": "uint8"
                },
                {
                  "internalType": "uint256",
                  "name": "id",
                  "type": "uint256"
                },
                {
                  "internalType": "uint256",
                  "name": "quantity",
                  "type": "uint256"
                }
              ],
              "internalType": "struct Token.Info",
              "name": "info",
              "type": "tuple"
            }
          ],
          "indexed": false,
          "internalType": "struct Transfer.Receipt",
          "name": "",
          "type": "tuple"
        }
      ],
      "name": "WithdrawalSignaturesRequested",
      "type": "event"
    },
    {
      "stateMutability": "payable",
      "type": "fallback"
    },
    {
      "inputs": [],
      "name": "DEFAULT_ADMIN_ROLE",
      "outputs": [
        {
          "internalType": "bytes32",
          "name": "",
          "type": "bytes32"
        }
      ],
      "stateMutability": "view",
      "type": "function"
    },
    {
      "inputs": [],
      "name": "WITHDRAWAL_MIGRATOR",
      "outputs": [
        {
          "internalType": "bytes32",
          "name": "",
          "type": "bytes32"
        }
      ],
      "stateMutability": "view",
      "type": "function"
    },
    {
      "inputs": [],
      "name": "bridgeTrackingContract",
      "outputs": [
        {
          "internalType": "address",
          "name": "",
          "type": "address"
        }
      ],
      "stateMutability": "view",
      "type": "function"
    },
    {
      "inputs": [
        {
          "components": [
            {
              "internalType": "address",
              "name": "recipientAddr",
              "type": "address"
            },
            {
              "internalType": "address",
              "name": "tokenAddr",
              "type": "address"
            },
            {
              "components": [
                {
                  "internalType": "enum Token.Standard",
                  "name": "erc",
                  "type": "uint8"
                },
                {
                  "internalType": "uint256",
                  "name": "id",
                  "type": "uint256"
                },
                {
                  "internalType": "uint256",
                  "name": "quantity",
                  "type": "uint256"
                }
              ],
              "internalType": "struct Token.Info",
              "name": "info",
              "type": "tuple"
            }
          ],
          "internalType": "struct Transfer.Request[]",
          "name": "_requests",
          "type": "tuple[]"
        },
        {
          "internalType": "uint256",
          "name": "_chainId",
          "type": "uint256"
        }
      ],
      "name": "bulkRequestWithdrawalFor",
      "outputs": [],
      "stateMutability": "nonpayable",
      "type": "function"
    },
    {
      "inputs": [
        {
          "internalType": "uint256[]",
          "name": "_withdrawals",
          "type": "uint256[]"
        },
        {
          "internalType": "bytes[]",
          "name": "_signatures",
          "type": "bytes[]"
        }
      ],
      "name": "bulkSubmitWithdrawalSignatures",
      "outputs": [],
      "stateMutability": "nonpayable",
      "type": "function"
    },
    {
      "inputs": [
        {
          "internalType": "uint256",
          "name": "_voteWeight",
          "type": "uint256"
        }
      ],
      "name": "checkThreshold",
      "outputs": [
        {
          "internalType": "bool",
          "name": "",
          "type": "bool"
        }
      ],
      "stateMutability": "view",
      "type": "function"
    },
    {
      "inputs": [
        {
          "components": [
            {
              "internalType": "uint256",
              "name": "id",
              "type": "uint256"
            },
            {
              "internalType": "enum Transfer.Kind",
              "name": "kind",
              "type": "uint8"
            },
            {
              "components": [
                {
                  "internalType": "address",
                  "name": "addr",
                  "type": "address"
                },
                {
                  "internalType": "address",
                  "name": "tokenAddr",
                  "type": "address"
                },
                {
                  "internalType": "uint256",
                  "name": "chainId",
                  "type": "uint256"
                }
              ],
              "internalType": "struct Token.Owner",
              "name": "mainchain",
              "type": "tuple"
            },
            {
              "components": [
                {
                  "internalType": "address",
                  "name": "addr",
                  "type": "address"
                },
                {
                  "internalType": "address",
                  "name": "tokenAddr",
                  "type": "address"
                },
                {
                  "internalType": "uint256",
                  "name": "chainId",
                  "type": "uint256"
                }
              ],
              "internalType": "struct Token.Owner",
              "name": "ronin",
              "type": "tuple"
            },
            {
              "components": [
                {
                  "internalType": "enum Token.Standard",
                  "name": "erc",
                  "type": "uint8"
                },
                {
                  "internalType": "uint256",
                  "name": "id",
                  "type": "uint256"
                },
                {
                  "internalType": "uint256",
                  "name": "quantity",
                  "type": "uint256"
                }
              ],
              "internalType": "struct Token.Info",
              "name": "info",
              "type": "tuple"
            }
          ],
          "internalType": "struct Transfer.Receipt",
          "name": "_receipt",
          "type": "tuple"
        }
      ],
      "name": "depositFor",
      "outputs": [],
      "stateMutability": "nonpayable",
      "type": "function"
    },
    {
      "inputs": [
        {
          "internalType": "uint256",
          "name": "",
          "type": "uint256"
        },
        {
          "internalType": "uint256",
          "name": "",
          "type": "uint256"
        }
      ],
      "name": "depositVote",
      "outputs": [
        {
          "internalType": "enum VoteStatusConsumer.VoteStatus",
          "name": "status",
          "type": "uint8"
        },
        {
          "internalType": "bytes32",
          "name": "finalHash",
          "type": "bytes32"
        },
        {
          "internalType": "uint256",
          "name": "expiredAt",
          "type": "uint256"
        },
        {
          "internalType": "uint256",
          "name": "createdAt",
          "type": "uint256"
        }
      ],
      "stateMutability": "view",
      "type": "function"
    },
    {
      "inputs": [
        {
          "internalType": "uint256",
          "name": "_chainId",
          "type": "uint256"
        },
        {
          "internalType": "uint256",
          "name": "_depositId",
          "type": "uint256"
        },
        {
          "internalType": "address",
          "name": "_voter",
          "type": "address"
        }
      ],
      "name": "depositVoted",
      "outputs": [
        {
          "internalType": "bool",
          "name": "",
          "type": "bool"
        }
      ],
      "stateMutability": "view",
      "type": "function"
    },
    {
      "inputs": [],
      "name": "emergencyPauser",
      "outputs": [
        {
          "internalType": "address",
          "name": "",
          "type": "address"
        }
      ],
      "stateMutability": "view",
      "type": "function"
    },
    {
      "inputs": [
        {
          "internalType": "address",
          "name": "_roninToken",
          "type": "address"
        },
        {
          "internalType": "uint256",
          "name": "_chainId",
          "type": "uint256"
        }
      ],
      "name": "getMainchainToken",
      "outputs": [
        {
          "components": [
            {
              "internalType": "enum Token.Standard",
              "name": "erc",
              "type": "uint8"
            },
            {
              "internalType": "address",
              "name": "tokenAddr",
              "type": "address"
            }
          ],
          "internalType": "struct MappedTokenConsumer.MappedToken",
          "name": "_token",
          "type": "tuple"
        }
      ],
      "stateMutability": "view",
      "type": "function"
    },
    {
      "inputs": [
        {
          "internalType": "bytes32",
          "name": "role",
          "type": "bytes32"
        }
      ],
      "name": "getRoleAdmin",
      "outputs": [
        {
          "internalType": "bytes32",
          "name": "",
          "type": "bytes32"
        }
      ],
      "stateMutability": "view",
      "type": "function"
    },
    {
      "inputs": [
        {
          "internalType": "bytes32",
          "name": "role",
          "type": "bytes32"
        },
        {
          "internalType": "uint256",
          "name": "index",
          "type": "uint256"
        }
      ],
      "name": "getRoleMember",
      "outputs": [
        {
          "internalType": "address",
          "name": "",
          "type": "address"
        }
      ],
      "stateMutability": "view",
      "type": "function"
    },
    {
      "inputs": [
        {
          "internalType": "bytes32",
          "name": "role",
          "type": "bytes32"
        }
      ],
      "name": "getRoleMemberCount",
      "outputs": [
        {
          "internalType": "uint256",
          "name": "",
          "type": "uint256"
        }
      ],
      "stateMutability": "view",
      "type": "function"
    },
    {
      "inputs": [],
      "name": "getThreshold",
      "outputs": [
        {
          "internalType": "uint256",
          "name": "num_",
          "type": "uint256"
        },
        {
          "internalType": "uint256",
          "name": "denom_",
          "type": "uint256"
        }
      ],
      "stateMutability": "view",
      "type": "function"
    },
    {
      "inputs": [],
      "name": "getTrustedThreshold",
      "outputs": [
        {
          "internalType": "uint256",
          "name": "trustedNum_",
          "type": "uint256"
        },
        {
          "internalType": "uint256",
          "name": "trustedDenom_",
          "type": "uint256"
        }
      ],
      "stateMutability": "view",
      "type": "function"
    },
    {
      "inputs": [
        {
          "internalType": "uint256",
          "name": "_withdrawalId",
          "type": "uint256"
        },
        {
          "internalType": "address[]",
          "name": "_validators",
          "type": "address[]"
        }
      ],
      "name": "getWithdrawalSignatures",
      "outputs": [
        {
          "internalType": "bytes[]",
          "name": "_signatures",
          "type": "bytes[]"
        }
      ],
      "stateMutability": "view",
      "type": "function"
    },
    {
      "inputs": [
        {
          "internalType": "bytes32",
          "name": "role",
          "type": "bytes32"
        },
        {
          "internalType": "address",
          "name": "account",
          "type": "address"
        }
      ],
      "name": "grantRole",
      "outputs": [],
      "stateMutability": "nonpayable",
      "type": "function"
    },
    {
      "inputs": [
        {
          "internalType": "bytes32",
          "name": "role",
          "type": "bytes32"
        },
        {
          "internalType": "address",
          "name": "account",
          "type": "address"
        }
      ],
      "name": "hasRole",
      "outputs": [
        {
          "internalType": "bool",
          "name": "",
          "type": "bool"
        }
      ],
      "stateMutability": "view",
      "type": "function"
    },
    {
      "inputs": [
        {
          "internalType": "address",
          "name": "_roleSetter",
          "type": "address"
        },
        {
          "internalType": "uint256",
          "name": "_numerator",
          "type": "uint256"
        },
        {
          "internalType": "uint256",
          "name": "_denominator",
          "type": "uint256"
        },
        {
          "internalType": "uint256",
          "name": "_trustedNumerator",
          "type": "uint256"
        },
        {
          "internalType": "uint256",
          "name": "_trustedDenominator",
          "type": "uint256"
        },
        {
          "internalType": "address[]",
          "name": "_withdrawalMigrators",
          "type": "address[]"
        },
        {
          "internalType": "address[][2]",
          "name": "_packedAddresses",
          "type": "address[][2]"
        },
        {
          "internalType": "uint256[][2]",
          "name": "_packedNumbers",
          "type": "uint256[][2]"
        },
        {
          "internalType": "enum Token.Standard[]",
          "name": "_standards",
          "type": "uint8[]"
        }
      ],
      "name": "initialize",
      "outputs": [],
      "stateMutability": "nonpayable",
      "type": "function"
    },
    {
      "inputs": [
        {
          "internalType": "uint256",
          "name": "_withdrawalId",
          "type": "uint256"
        }
      ],
      "name": "mainchainWithdrew",
      "outputs": [
        {
          "internalType": "bool",
          "name": "",
          "type": "bool"
        }
      ],
      "stateMutability": "view",
      "type": "function"
    },
    {
      "inputs": [
        {
          "internalType": "uint256",
          "name": "",
          "type": "uint256"
        }
      ],
      "name": "mainchainWithdrewVote",
      "outputs": [
        {
          "internalType": "enum VoteStatusConsumer.VoteStatus",
          "name": "status",
          "type": "uint8"
        },
        {
          "internalType": "bytes32",
          "name": "finalHash",
          "type": "bytes32"
        },
        {
          "internalType": "uint256",
          "name": "expiredAt",
          "type": "uint256"
        },
        {
          "internalType": "uint256",
          "name": "createdAt",
          "type": "uint256"
        }
      ],
      "stateMutability": "view",
      "type": "function"
    },
    {
      "inputs": [
        {
          "internalType": "uint256",
          "name": "_withdrawalId",
          "type": "uint256"
        },
        {
          "internalType": "address",
          "name": "_voter",
          "type": "address"
        }
      ],
      "name": "mainchainWithdrewVoted",
      "outputs": [
        {
          "internalType": "bool",
          "name": "",
          "type": "bool"
        }
      ],
      "stateMutability": "view",
      "type": "function"
    },
    {
      "inputs": [
        {
          "internalType": "address[]",
          "name": "_roninTokens",
          "type": "address[]"
        },
        {
          "internalType": "address[]",
          "name": "_mainchainTokens",
          "type": "address[]"
        },
        {
          "internalType": "uint256[]",
          "name": "_chainIds",
          "type": "uint256[]"
        },
        {
          "internalType": "enum Token.Standard[]",
          "name": "_standards",
          "type": "uint8[]"
        }
      ],
      "name": "mapTokens",
      "outputs": [],
      "stateMutability": "nonpayable",
      "type": "function"
    },
    {
      "inputs": [],
      "name": "markWithdrawalMigrated",
      "outputs": [],
      "stateMutability": "nonpayable",
      "type": "function"
    },
    {
      "inputs": [
        {
          "components": [
            {
              "internalType": "address",
              "name": "recipientAddr",
              "type": "address"
            },
            {
              "internalType": "address",
              "name": "tokenAddr",
              "type": "address"
            },
            {
              "components": [
                {
                  "internalType": "enum Token.Standard",
                  "name": "erc",
                  "type": "uint8"
                },
                {
                  "internalType": "uint256",
                  "name": "id",
                  "type": "uint256"
                },
                {
                  "internalType": "uint256",
                  "name": "quantity",
                  "type": "uint256"
                }
              ],
              "internalType": "struct Token.Info",
              "name": "info",
              "type": "tuple"
            }
          ],
          "internalType": "struct Transfer.Request[]",
          "name": "_requests",
          "type": "tuple[]"
        },
        {
          "internalType": "address[]",
          "name": "_requesters",
          "type": "address[]"
        }
      ],
      "name": "migrateWithdrawals",
      "outputs": [],
      "stateMutability": "nonpayable",
      "type": "function"
    },
    {
      "inputs": [
        {
          "internalType": "address",
          "name": "",
          "type": "address"
        }
      ],
      "name": "minimumThreshold",
      "outputs": [
        {
          "internalType": "uint256",
          "name": "",
          "type": "uint256"
        }
      ],
      "stateMutability": "view",
      "type": "function"
    },
    {
      "inputs": [],
      "name": "minimumTrustedVoteWeight",
      "outputs": [
        {
          "internalType": "uint256",
          "name": "",
          "type": "uint256"
        }
      ],
      "stateMutability": "view",
      "type": "function"
    },
    {
      "inputs": [],
      "name": "minimumVoteWeight",
      "outputs": [
        {
          "internalType": "uint256",
          "name": "",
          "type": "uint256"
        }
      ],
      "stateMutability": "view",
      "type": "function"
    },
    {
      "inputs": [],
      "name": "nonce",
      "outputs": [
        {
          "internalType": "uint256",
          "name": "",
          "type": "uint256"
        }
      ],
      "stateMutability": "view",
      "type": "function"
    },
    {
      "inputs": [],
      "name": "pause",
      "outputs": [],
      "stateMutability": "nonpayable",
      "type": "function"
    },
    {
      "inputs": [],
      "name": "paused",
      "outputs": [
        {
          "internalType": "bool",
          "name": "",
          "type": "bool"
        }
      ],
      "stateMutability": "view",
      "type": "function"
    },
    {
      "inputs": [
        {
          "internalType": "bytes32",
          "name": "role",
          "type": "bytes32"
        },
        {
          "internalType": "address",
          "name": "account",
          "type": "address"
        }
      ],
      "name": "renounceRole",
      "outputs": [],
      "stateMutability": "nonpayable",
      "type": "function"
    },
    {
      "inputs": [
        {
          "components": [
            {
              "internalType": "address",
              "name": "recipientAddr",
              "type": "address"
            },
            {
              "internalType": "address",
              "name": "tokenAddr",
              "type": "address"
            },
            {
              "components": [
                {
                  "internalType": "enum Token.Standard",
                  "name": "erc",
                  "type": "uint8"
                },
                {
                  "internalType": "uint256",
                  "name": "id",
                  "type": "uint256"
                },
                {
                  "internalType": "uint256",
                  "name": "quantity",
                  "type": "uint256"
                }
              ],
              "internalType": "struct Token.Info",
              "name": "info",
              "type": "tuple"
            }
          ],
          "internalType": "struct Transfer.Request",
          "name": "_request",
          "type": "tuple"
        },
        {
          "internalType": "uint256",
          "name": "_chainId",
          "type": "uint256"
        }
      ],
      "name": "requestWithdrawalFor",
      "outputs": [],
      "stateMutability": "nonpayable",
      "type": "function"
    },
    {
      "inputs": [
        {
          "internalType": "uint256",
          "name": "_withdrawalId",
          "type": "uint256"
        }
      ],
      "name": "requestWithdrawalSignatures",
      "outputs": [],
      "stateMutability": "nonpayable",
      "type": "function"
    },
    {
      "inputs": [
        {
          "internalType": "bytes32",
          "name": "role",
          "type": "bytes32"
        },
        {
          "internalType": "address",
          "name": "account",
          "type": "address"
        }
      ],
      "name": "revokeRole",
      "outputs": [],
      "stateMutability": "nonpayable",
      "type": "function"
    },
    {
      "inputs": [],
      "name": "roninTrustedOrganizationContract",
      "outputs": [
        {
          "internalType": "address",
          "name": "",
          "type": "address"
        }
      ],
      "stateMutability": "view",
      "type": "function"
    },
    {
      "inputs": [
        {
          "internalType": "address",
          "name": "_addr",
          "type": "address"
        }
      ],
      "name": "setBridgeTrackingContract",
      "outputs": [],
      "stateMutability": "nonpayable",
      "type": "function"
    },
    {
      "inputs": [
        {
          "internalType": "address",
          "name": "_addr",
          "type": "address"
        }
      ],
      "name": "setEmergencyPauser",
      "outputs": [],
      "stateMutability": "nonpayable",
      "type": "function"
    },
    {
      "inputs": [
        {
          "internalType": "address[]",
          "name": "_tokens",
          "type": "address[]"
        },
        {
          "internalType": "uint256[]",
          "name": "_thresholds",
          "type": "uint256[]"
        }
      ],
      "name": "setMinimumThresholds",
      "outputs": [],
      "stateMutability": "nonpayable",
      "type": "function"
    },
    {
      "inputs": [
        {
          "internalType": "address",
          "name": "_addr",
          "type": "address"
        }
      ],
      "name": "setRoninTrustedOrganizationContract",
      "outputs": [],
      "stateMutability": "nonpayable",
      "type": "function"
    },
    {
      "inputs": [
        {
          "internalType": "uint256",
          "name": "_numerator",
          "type": "uint256"
        },
        {
          "internalType": "uint256",
          "name": "_denominator",
          "type": "uint256"
        }
      ],
      "name": "setThreshold",
      "outputs": [
        {
          "internalType": "uint256",
          "name": "",
          "type": "uint256"
        },
        {
          "internalType": "uint256",
          "name": "",
          "type": "uint256"
        }
      ],
      "stateMutability": "nonpayable",
      "type": "function"
    },
    {
      "inputs": [
        {
          "internalType": "uint256",
          "name": "_trustedNumerator",
          "type": "uint256"
        },
        {
          "internalType": "uint256",
          "name": "_trustedDenominator",
          "type": "uint256"
        }
      ],
      "name": "setTrustedThreshold",
      "outputs": [
        {
          "internalType": "uint256",
          "name": "",
          "type": "uint256"
        },
        {
          "internalType": "uint256",
          "name": "",
          "type": "uint256"
        }
      ],
      "stateMutability": "nonpayable",
      "type": "function"
    },
    {
      "inputs": [
        {
          "internalType": "address",
          "name": "_addr",
          "type": "address"
        }
      ],
      "name": "setValidatorContract",
      "outputs": [],
      "stateMutability": "nonpayable",
      "type": "function"
    },
    {
      "inputs": [
        {
          "internalType": "bytes4",
          "name": "interfaceId",
          "type": "bytes4"
        }
      ],
      "name": "supportsInterface",
      "outputs": [
        {
          "internalType": "bool",
          "name": "",
          "type": "bool"
        }
      ],
      "stateMutability": "view",
      "type": "function"
    },
    {
      "inputs": [
        {
          "internalType": "uint256[]",
          "name": "_withdrawalIds",
          "type": "uint256[]"
        }
      ],
      "name": "tryBulkAcknowledgeMainchainWithdrew",
      "outputs": [
        {
          "internalType": "bool[]",
          "name": "_executedReceipts",
          "type": "bool[]"
        }
      ],
      "stateMutability": "nonpayable",
      "type": "function"
    },
    {
      "inputs": [
        {
          "components": [
            {
              "internalType": "uint256",
              "name": "id",
              "type": "uint256"
            },
            {
              "internalType": "enum Transfer.Kind",
              "name": "kind",
              "type": "uint8"
            },
            {
              "components": [
                {
                  "internalType": "address",
                  "name": "addr",
                  "type": "address"
                },
                {
                  "internalType": "address",
                  "name": "tokenAddr",
                  "type": "address"
                },
                {
                  "internalType": "uint256",
                  "name": "chainId",
                  "type": "uint256"
                }
              ],
              "internalType": "struct Token.Owner",
              "name": "mainchain",
              "type": "tuple"
            },
            {
              "components": [
                {
                  "internalType": "address",
                  "name": "addr",
                  "type": "address"
                },
                {
                  "internalType": "address",
                  "name": "tokenAddr",
                  "type": "address"
                },
                {
                  "internalType": "uint256",
                  "name": "chainId",
                  "type": "uint256"
                }
              ],
              "internalType": "struct Token.Owner",
              "name": "ronin",
              "type": "tuple"
            },
            {
              "components": [
                {
                  "internalType": "enum Token.Standard",
                  "name": "erc",
                  "type": "uint8"
                },
                {
                  "internalType": "uint256",
                  "name": "id",
                  "type": "uint256"
                },
                {
                  "internalType": "uint256",
                  "name": "quantity",
                  "type": "uint256"
                }
              ],
              "internalType": "struct Token.Info",
              "name": "info",
              "type": "tuple"
            }
          ],
          "internalType": "struct Transfer.Receipt[]",
          "name": "_receipts",
          "type": "tuple[]"
        }
      ],
      "name": "tryBulkDepositFor",
      "outputs": [
        {
          "internalType": "bool[]",
          "name": "_executedReceipts",
          "type": "bool[]"
        }
      ],
      "stateMutability": "nonpayable",
      "type": "function"
    },
    {
      "inputs": [],
      "name": "unpause",
      "outputs": [],
      "stateMutability": "nonpayable",
      "type": "function"
    },
    {
      "inputs": [],
      "name": "validatorContract",
      "outputs": [
        {
          "internalType": "address",
          "name": "",
          "type": "address"
        }
      ],
      "stateMutability": "view",
      "type": "function"
    },
    {
      "inputs": [
        {
          "internalType": "uint256",
          "name": "",
          "type": "uint256"
        }
      ],
      "name": "withdrawal",
      "outputs": [
        {
          "internalType": "uint256",
          "name": "id",
          "type": "uint256"
        },
        {
          "internalType": "enum Transfer.Kind",
          "name": "kind",
          "type": "uint8"
        },
        {
          "components": [
            {
              "internalType": "address",
              "name": "addr",
              "type": "address"
            },
            {
              "internalType": "address",
              "name": "tokenAddr",
              "type": "address"
            },
            {
              "internalType": "uint256",
              "name": "chainId",
              "type": "uint256"
            }
          ],
          "internalType": "struct Token.Owner",
          "name": "mainchain",
          "type": "tuple"
        },
        {
          "components": [
            {
              "internalType": "address",
              "name": "addr",
              "type": "address"
            },
            {
              "internalType": "address",
              "name": "tokenAddr",
              "type": "address"
            },
            {
              "internalType": "uint256",
              "name": "chainId",
              "type": "uint256"
            }
          ],
          "internalType": "struct Token.Owner",
          "name": "ronin",
          "type": "tuple"
        },
        {
          "components": [
            {
              "internalType": "enum Token.Standard",
              "name": "erc",
              "type": "uint8"
            },
            {
              "internalType": "uint256",
              "name": "id",
              "type": "uint256"
            },
            {
              "internalType": "uint256",
              "name": "quantity",
              "type": "uint256"
            }
          ],
          "internalType": "struct Token.Info",
          "name": "info",
          "type": "tuple"
        }
      ],
      "stateMutability": "view",
      "type": "function"
    },
    {
      "inputs": [],
      "name": "withdrawalCount",
      "outputs": [
        {
          "internalType": "uint256",
          "name": "",
          "type": "uint256"
        }
      ],
      "stateMutability": "view",
      "type": "function"
    },
    {
      "inputs": [],
      "name": "withdrawalMigrated",
      "outputs": [
        {
          "internalType": "bool",
          "name": "",
          "type": "bool"
        }
      ],
      "stateMutability": "view",
      "type": "function"
    },
    {
      "inputs": [
        {
          "internalType": "uint256",
          "name": "",
          "type": "uint256"
        }
      ],
      "name": "withdrawalStatVote",
      "outputs": [
        {
          "internalType": "enum VoteStatusConsumer.VoteStatus",
          "name": "status",
          "type": "uint8"
        },
        {
          "internalType": "bytes32",
          "name": "finalHash",
          "type": "bytes32"
        },
        {
          "internalType": "uint256",
          "name": "expiredAt",
          "type": "uint256"
        },
        {
          "internalType": "uint256",
          "name": "createdAt",
          "type": "uint256"
        }
      ],
      "stateMutability": "view",
      "type": "function"
    },
    {
      "stateMutability": "payable",
      "type": "receive"
    }
  ],
  "transactionHash": "0x47987321f7b4b26784e0d6b7d63abf6f37274c7b6c2538789b0063738a218e34",
  "args": [],
  "numDeployments": 1,
  "solcInputHash": "a50a3f056fa24c0b5a230a9cb29a1cb4",
  "bytecode": "0x608060405234801561001057600080fd5b506000805460ff19169055615c5d806200002b6000396000f3fe60806040526004361061025e5760003560e01c806301ffc9a714610275578063065b3adf146102aa5780630b1ff17f146102d7578063109679ef146102f757806317892f961461031757806317fa2ea114610340578063248a9ca31461036d5780632f2ff15d1461039b57806336568abe146103bb5780633b5afc22146103db5780633e4574ec146103f05780633e70838b146104105780633f4ba83a146104305780634493421e1461044557806347b56b2c146104635780634d92c4f0146104835780634f2717c7146104e45780635511cde1146104455780635a7dd06a146104fe5780635c975abb1461051e5780635d6a9a901461053657806364363f781461056357806371706cbe1461058357806375535f86146105995780637657990e146105b95780637de5dedd146105ce578063835fc6ca146105e35780638456cb59146106145780639010d07c1461062957806391d1485414610649578063931ec987146106695780639584a5921461068957806399439089146106a95780639c8d98da146106c7578063a217fddf146106e7578063affed0e0146106fc578063b5e337de14610712578063b9afa17714610732578063b9c3620914610752578063bc7f038614610772578063c28f78941461079f578063ca15c873146107e5578063cdf64a7614610805578063d547741f14610825578063dafae40814610845578063dbd2ef6c14610865578063e75235b814610885578063ecc836491461089d578063f0ce418e146108ca578063f668214a14610910578063fa38965914610930578063fc6574bc14610950578063fe90d9c2146109705761026d565b3661026d5761026b610992565b005b61026b610992565b34801561028157600080fd5b50610295610290366004614574565b6109df565b60405190151581526020015b60405180910390f35b3480156102b657600080fd5b506005546102ca906001600160a01b031681565b6040516102a1919061459e565b3480156102e357600080fd5b5061026b6102f23660046145b2565b610a0a565b34801561030357600080fd5b5061026b6103123660046145e3565b610a21565b34801561032357600080fd5b506078546079545b604080519283526020830191909152016102a1565b34801561034c57600080fd5b5061036061035b366004614640565b610b4b565b6040516102a19190614681565b34801561037957600080fd5b5061038d6103883660046146c7565b610f21565b6040519081526020016102a1565b3480156103a757600080fd5b5061026b6103b6366004614705565b610f36565b3480156103c757600080fd5b5061026b6103d6366004614705565b610f57565b3480156103e757600080fd5b5061026b610fd1565b3480156103fc57600080fd5b5061029561040b366004614705565b611048565b34801561041c57600080fd5b5061026b61042b366004614735565b611067565b34801561043c57600080fd5b5061026b6110c1565b34801561045157600080fd5b506075546001600160a01b03166102ca565b34801561046f57600080fd5b5061026b61047e3660046146c7565b611118565b34801561048f57600080fd5b506104d461049e366004614752565b606f602090815260009283526040808420909152908252902080546001820154600383015460049093015460ff90921692909184565b6040516102a1949392919061478a565b3480156104f057600080fd5b50606d546102959060ff1681565b34801561050a57600080fd5b5061026b6105193660046147fe565b611352565b34801561052a57600080fd5b5060005460ff16610295565b34801561054257600080fd5b50610556610551366004614849565b6113ea565b6040516102a19190614885565b34801561056f57600080fd5b5061026b61057e3660046148b1565b6114c7565b34801561058f57600080fd5b5061038d606e5481565b3480156105a557600080fd5b5061032b6105b4366004614752565b611528565b3480156105c557600080fd5b5061038d611579565b3480156105da57600080fd5b5061038d611590565b3480156105ef57600080fd5b506106036105fe3660046146c7565b6115a2565b6040516102a1959493929190614965565b34801561062057600080fd5b5061026b611674565b34801561063557600080fd5b506102ca610644366004614752565b6116c9565b34801561065557600080fd5b50610295610664366004614705565b6116e1565b34801561067557600080fd5b5061026b6106843660046149a4565b61170c565b34801561069557600080fd5b5061026b6106a43660046149ee565b6118b0565b3480156106b557600080fd5b506074546001600160a01b03166102ca565b3480156106d357600080fd5b5061026b6106e2366004614735565b611aa2565b3480156106f357600080fd5b5061038d600081565b34801561070857600080fd5b5061038d60045481565b34801561071e57600080fd5b5061026b61072d366004614735565b611b10565b34801561073e57600080fd5b5061036061074d366004614ae7565b611b7b565b34801561075e57600080fd5b5061032b61076d366004614752565b611d9f565b34801561077e57600080fd5b5061038d61078d366004614735565b60386020526000908152604090205481565b3480156107ab57600080fd5b506104d46107ba3660046146c7565b607660205260009081526040902080546001820154600383015460049093015460ff90921692909184565b3480156107f157600080fd5b5061038d6108003660046146c7565b611de4565b34801561081157600080fd5b5061026b610820366004614735565b611dfb565b34801561083157600080fd5b5061026b610840366004614705565b611e66565b34801561085157600080fd5b506102956108603660046146c7565b611e82565b34801561087157600080fd5b5061026b610880366004614b5c565b611eae565b34801561089157600080fd5b5060015460025461032b565b3480156108a957600080fd5b506108bd6108b8366004614c1f565b611f1d565b6040516102a19190614cba565b3480156108d657600080fd5b506104d46108e53660046146c7565b607060205260009081526040902080546001820154600383015460049093015460ff90921692909184565b34801561091c57600080fd5b5061029561092b3660046146c7565b61208f565b34801561093c57600080fd5b5061026b61094b3660046148b1565b6120bd565b34801561095c57600080fd5b5061029561096b366004614d1c565b61233e565b34801561097c57600080fd5b5061038d600080516020615be883398151915281565b60405162461bcd60e51b815260206004820152601f60248201527f526f6e696e4761746577617956323a20696e76616c696420726571756573740060448201526064015b60405180910390fd5b60006001600160e01b03198216635a05180f60e01b1480610a045750610a0482612369565b92915050565b610a1261239e565b610a1d8233836123e4565b5050565b610a2961239e565b607454604051635a02d57960e11b81526001600160a01b039091169063b405aaf290610a5990339060040161459e565b602060405180830381865afa158015610a76573d6000803e3d6000fd5b505050506040513d601f19601f82011682018060405250810190610a9a9190614d55565b610ab65760405162461bcd60e51b81526004016109d690614d77565b33610adf610ac936849003840184614ec8565b82610ad2611590565b610ada611579565b6124bc565b60755460405163c7c4fea960e01b81526001600160a01b039091169063c7c4fea990610b15906000908635908690600401614f69565b600060405180830381600087803b158015610b2f57600080fd5b505af1158015610b43573d6000803e3d6000fd5b505050505050565b607454604051635a02d57960e11b81526060916001600160a01b03169063b405aaf290610b7c90339060040161459e565b602060405180830381865afa158015610b99573d6000803e3d6000fd5b505050506040513d601f19601f82011682018060405250810190610bbd9190614d55565b610bd95760405162461bcd60e51b81526004016109d690614d77565b336000610be4611590565b90506000610bf0611579565b90506000856001600160401b03811115610c0c57610c0c614dba565b604051908082528060200260200182016040528015610c35578160200160208202803683370190505b50945060005b86811015610f1657878782818110610c5557610c55614f96565b60755460405163c7c4fea960e01b81526020909202939093013594506001600160a01b039092169163c7c4fea99150610c979060029086908a90600401614f69565b600060405180830381600087803b158015610cb157600080fd5b505af1158015610cc5573d6000803e3d6000fd5b50505050610cd28261208f565b15610d00576001868281518110610ceb57610ceb614f96565b91151560209283029190910190910152610f04565b600082815260706020908152604080832060718352818420825160a081019093528054835260018082015492959491929184019160ff1690811115610d4757610d47614774565b6001811115610d5857610d58614774565b8152604080516060808201835260028501546001600160a01b039081168352600386015481166020848101919091526004870154848601528086019390935283518083018552600587015482168152600687015490911692810192909252600785015482840152828401919091528151808201909252600884018054919093019290829060ff166001811115610df057610df0614774565b6001811115610e0157610e01614774565b81526001820154602082015260029091015460409091015290525090506000610e29826127ca565b90506000610e3a848a8a8a86612853565b90506001816004811115610e5057610e50614774565b03610eff57835460ff19166002908117855560755460405163114fc47560e11b81526001600160a01b039091169163229f88ea91610e9391908a90600401614fac565b600060405180830381600087803b158015610ead57600080fd5b505af1158015610ec1573d6000803e3d6000fd5b505050507f62520d049932cdee872e9b3c59c0f6073637147e5e9bc8b050b062430eaf5c9f8284604051610ef6929190614fc7565b60405180910390a15b505050505b80610f0e8161503e565b915050610c3b565b505050505092915050565b6000908152606b602052604090206001015490565b610f3f82610f21565b610f488161288c565b610f528383612896565b505050565b6001600160a01b0381163314610fc75760405162461bcd60e51b815260206004820152602f60248201527f416363657373436f6e74726f6c3a2063616e206f6e6c792072656e6f756e636560448201526e103937b632b9903337b91039b2b63360891b60648201526084016109d6565b610a1d82826128b8565b610fdc6000336116e1565b80610ffa5750610ffa600080516020615be8833981519152336116e1565b6110165760405162461bcd60e51b81526004016109d690614d77565b606d5460ff16156110395760405162461bcd60e51b81526004016109d690615057565b606d805460ff19166001179055565b600082815260706020526040812061106090836128da565b9392505050565b61106f6128fb565b6001600160a01b0316336001600160a01b03161461109f5760405162461bcd60e51b81526004016109d69061509b565b600580546001600160a01b0319166001600160a01b0392909216919091179055565b6110c96128fb565b6001600160a01b0316336001600160a01b031614806110f257506005546001600160a01b031633145b61110e5760405162461bcd60e51b81526004016109d6906150dd565b611116612929565b565b61112061239e565b6111298161208f565b1561118c5760405162461bcd60e51b815260206004820152602d60248201527f526f6e696e4761746577617956323a207769746864726577206f6e206d61696e60448201526c636861696e20616c726561647960981b60648201526084016109d6565b6000818152607160209081526040808320815160a0810190925280548252600180820154929391929184019160ff16908111156111cb576111cb614774565b60018111156111dc576111dc614774565b8152604080516060808201835260028501546001600160a01b039081168352600386015481166020848101919091526004870154848601528086019390935283518083018552600587015482168152600687015490911692810192909252600785015482840152828401919091528151808201909252600884018054919093019290829060ff16600181111561127457611274614774565b600181111561128557611285614774565b81526001820154602082015260029091015460409182015291526060830151015191925050461461130d5760405162461bcd60e51b815260206004820152602c60248201527f526f6e696e4761746577617956323a20717565727920666f7220696e76616c6960448201526b19081dda5d1a191c985dd85b60a21b60648201526084016109d6565b7f04e8cbd836dea43a2dc7eb19de345cca3a8e6978a2ef5225d924775500f67c7c611337826127ca565b82604051611346929190614fc7565b60405180910390a15050565b61135a61239e565b816113a55760405162461bcd60e51b815260206004820152601b60248201527a526f6e696e4761746577617956323a20656d70747920617272617960281b60448201526064016109d6565b60005b828110156113e4576113d28484838181106113c5576113c5614f96565b905060a0020133846123e4565b806113dc8161503e565b9150506113a8565b50505050565b604080518082018252600080825260208083018290526001600160a01b038616825260738152838220858352905282902082518084019093528054919291829060ff16600181111561143e5761143e614774565b600181111561144f5761144f614774565b815290546001600160a01b0361010090910481166020928301529082015191925016610a045760405162461bcd60e51b815260206004820152602160248201527f526f6e696e4761746577617956323a20756e737570706f7274656420746f6b656044820152603760f91b60648201526084016109d6565b6114cf6128fb565b6001600160a01b0316336001600160a01b0316146114ff5760405162461bcd60e51b81526004016109d69061509b565b8261151c5760405162461bcd60e51b81526004016109d690615112565b6113e484848484612975565b6000806115336128fb565b6001600160a01b0316336001600160a01b0316146115635760405162461bcd60e51b81526004016109d69061509b565b61156d8484612a53565b915091505b9250929050565b600061158b611586612b1d565b612b8b565b905090565b600061158b61159d612bc1565b612c0b565b607160209081526000918252604091829020805460018083015485516060808201885260028601546001600160a01b03908116835260038701548116838901526004870154838a015288518083018a526005880154821681526006880154909116978101979097526007860154878901528751908101909752600885018054949760ff93841697929692959294909391928492169081111561164657611646614774565b600181111561165757611657614774565b815260200160018201548152602001600282015481525050905085565b61167c6128fb565b6001600160a01b0316336001600160a01b031614806116a557506005546001600160a01b031633145b6116c15760405162461bcd60e51b81526004016109d6906150dd565b611116612c23565b6000828152606c602052604081206110609083612c60565b6000918252606b602090815260408084206001600160a01b0393909316845291905290205460ff1690565b600080516020615be88339815191526117248161288c565b606d5460ff16156117475760405162461bcd60e51b81526004016109d690615057565b818414801561175557508315155b61179d5760405162461bcd60e51b81526020600482015260256024820152600080516020615c088339815191526044820152646e6774687360d81b60648201526084016109d6565b60005b84811015610b435760006117de8787848181106117bf576117bf614f96565b905060a0020160200160208101906117d79190614735565b60016113ea565b805190915060018111156117f4576117f4614774565b87878481811061180657611806614f96565b61181f92606060a0909202019081019150604001615159565b600181111561183057611830614774565b1461184d5760405162461bcd60e51b81526004016109d690615176565b61189b87878481811061186257611862614f96565b905060a00201600187878681811061187c5761187c614f96565b90506020020160208101906118919190614735565b8460200151612c6c565b505080806118a89061503e565b9150506117a0565b603754610100900460ff16158080156118d05750603754600160ff909116105b806118ea5750303b1580156118ea575060375460ff166001145b61194d5760405162461bcd60e51b815260206004820152602e60248201527f496e697469616c697a61626c653a20636f6e747261637420697320616c72656160448201526d191e481a5b9a5d1a585b1a5e995960921b60648201526084016109d6565b6037805460ff191660011790558015611970576037805461ff0019166101001790555b61197b60008d612df6565b6119858b8b612e00565b50506119918989612a53565b50600090506119a086806151bc565b905011156119f2576119d36119b586806151bc565b6119c260208901896151bc565b6119cc89806151bc565b8989612eb4565b6119f26119e086806151bc565b6119ed60208801886151bc565b612975565b60005b86811015611a4d57611a3b600080516020615be8833981519152898984818110611a2157611a21614f96565b9050602002016020810190611a369190614735565b612896565b80611a458161503e565b9150506119f5565b508015611a94576037805461ff0019169055604051600181527f7f26b83ff96e1f2b6a682f133852f6798a09c465da95921460cefb38474024989060200160405180910390a15b505050505050505050505050565b611aaa6128fb565b6001600160a01b0316336001600160a01b031614611ada5760405162461bcd60e51b81526004016109d69061509b565b6000816001600160a01b03163b11611b045760405162461bcd60e51b81526004016109d690615205565b611b0d816130ca565b50565b611b186128fb565b6001600160a01b0316336001600160a01b031614611b485760405162461bcd60e51b81526004016109d69061509b565b6000816001600160a01b03163b11611b725760405162461bcd60e51b81526004016109d690615205565b611b0d81613120565b6060611b8561239e565b607454604051635a02d57960e11b81526001600160a01b039091169063b405aaf290611bb590339060040161459e565b602060405180830381865afa158015611bd2573d6000803e3d6000fd5b505050506040513d601f19601f82011682018060405250810190611bf69190614d55565b611c125760405162461bcd60e51b81526004016109d690614d77565b33611c1b614505565b836001600160401b03811115611c3357611c33614dba565b604051908082528060200260200182016040528015611c5c578160200160208202803683370190505b5092506000611c69611590565b90506000611c75611579565b905060005b86811015610f1657878782818110611c9457611c94614f96565b90506101600201803603810190611cab9190614ec8565b607554815160405163c7c4fea960e01b81529296506001600160a01b039091169163c7c4fea991611ce491600091908a90600401614f69565b600060405180830381600087803b158015611cfe57600080fd5b505af1158015611d12573d6000803e3d6000fd5b5060029250611d1f915050565b6040808601518101516000908152606f6020908152828220885183529052205460ff166004811115611d5357611d53614774565b03611d81576001868281518110611d6c57611d6c614f96565b91151560209283029190910190910152611d8d565b611d8d848685856124bc565b80611d978161503e565b915050611c7a565b600080611daa6128fb565b6001600160a01b0316336001600160a01b031614611dda5760405162461bcd60e51b81526004016109d69061509b565b61156d8484612e00565b6000818152606c60205260408120610a049061316b565b611e036128fb565b6001600160a01b0316336001600160a01b031614611e335760405162461bcd60e51b81526004016109d69061509b565b6000816001600160a01b03163b11611e5d5760405162461bcd60e51b81526004016109d690615205565b611b0d81613175565b611e6f82610f21565b611e788161288c565b610f5283836128b8565b6000611e8c612bc1565b600154611e999190615248565b600254611ea69084615248565b101592915050565b611eb66128fb565b6001600160a01b0316336001600160a01b031614611ee65760405162461bcd60e51b81526004016109d69061509b565b86611f035760405162461bcd60e51b81526004016109d69061525f565b611f138888888888888888612eb4565b5050505050505050565b6060816001600160401b03811115611f3757611f37614dba565b604051908082528060200260200182016040528015611f6a57816020015b6060815260200190600190039081611f555790505b50905060005b8281101561208757600085815260726020526040812090858584818110611f9957611f99614f96565b9050602002016020810190611fae9190614735565b6001600160a01b03166001600160a01b031681526020019081526020016000208054611fd990615291565b80601f016020809104026020016040519081016040528092919081815260200182805461200590615291565b80156120525780601f1061202757610100808354040283529160200191612052565b820191906000526020600020905b81548152906001019060200180831161203557829003601f168201915b505050505082828151811061206957612069614f96565b6020026020010181905250808061207f9061503e565b915050611f70565b509392505050565b6000600260008381526070602052604090205460ff1660048111156120b6576120b6614774565b1492915050565b6120c561239e565b607454604051635a02d57960e11b81526001600160a01b039091169063b405aaf2906120f590339060040161459e565b602060405180830381865afa158015612112573d6000803e3d6000fd5b505050506040513d601f19601f820116820180604052508101906121369190614d55565b6121525760405162461bcd60e51b81526004016109d690614d77565b33831580159061216157508382145b61217d5760405162461bcd60e51b81526004016109d69061525f565b6000612187611590565b90506000612193611579565b90506000805b87811015612333578888828181106121b3576121b3614f96565b9050602002013591508686828181106121ce576121ce614f96565b90506020028101906121e091906152c5565b60008481526072602090815260408083206001600160a01b038b16845290915290209161220e919083615351565b5060755460405163c7c4fea960e01b81526001600160a01b039091169063c7c4fea9906122449060019086908a90600401614f69565b600060405180830381600087803b15801561225e57600080fd5b505af1158015612272573d6000803e3d6000fd5b505050600083815260766020526040812091506122928288888888612853565b905060018160048111156122a8576122a8614774565b0361231e57815460ff1916600217825560755460405163114fc47560e11b81526001600160a01b039091169063229f88ea906122eb906001908890600401614fac565b600060405180830381600087803b15801561230557600080fd5b505af1158015612319573d6000803e3d6000fd5b505050505b5050808061232b9061503e565b915050612199565b505050505050505050565b6000838152606f60209081526040808320858452909152812061236190836128da565b949350505050565b60006001600160e01b03198216637965db0b60e01b1480610a0457506301ffc9a760e01b6001600160e01b0319831614610a04565b60005460ff16156111165760405162461bcd60e51b815260206004820152601060248201526f14185d5cd8589b194e881c185d5cd95960821b60448201526064016109d6565b6123fe6123f936859003850160408601615410565b6131c0565b61240783613260565b600061242261241c6040860160208701614735565b836113ea565b8051909150600181111561243857612438614774565b6124486060860160408701615159565b600181111561245957612459614774565b146124765760405162461bcd60e51b81526004016109d690615176565b6124a5833061248b6040880160208901614735565b61249d36899003890160408a01615410565b929190613325565b6124b58483858460200151612c6c565b5050505050565b835160808501516124cc906131c0565b6000856020015160018111156124e4576124e4614774565b1461253d5760405162461bcd60e51b8152602060048201526024808201527f526f6e696e4761746577617956323a20696e76616c69642072656365697074206044820152631ada5b9960e21b60648201526084016109d6565b46856060015160400151146125945760405162461bcd60e51b815260206004820181905260248201527f526f6e696e4761746577617956323a20696e76616c696420636861696e20696460448201526064016109d6565b60006125b08660600151602001518760400151604001516113ea565b60808701515190915060018111156125ca576125ca614774565b815160018111156125dd576125dd614774565b14801561260757508560400151602001516001600160a01b031681602001516001600160a01b0316145b6126535760405162461bcd60e51b815260206004820152601f60248201527f526f6e696e4761746577617956323a20696e76616c696420726563656970740060448201526064016109d6565b6040808701518101516000908152606f602090815282822085835290529081209061267d886127ca565b9050600061268e8389898986612853565b905088604001516040015185896001600160a01b03167f48c4262ed68beb92fe5d7d48d70772e49cd50c317937dea60a99f15f794b6459856040516126d591815260200190565b60405180910390a460018160048111156126f1576126f1614774565b0361233357825460ff191660021783556060890151805160209091015160808b015161272092909160006135bc565b607554895160405163114fc47560e11b81526001600160a01b039092169163229f88ea916127549160009190600401614fac565b600060405180830381600087803b15801561276e57600080fd5b505af1158015612782573d6000803e3d6000fd5b505050507f8d20d8121a34dded9035ff5b43e901c142824f7a22126392992c353c37890524828a6040516127b7929190614fc7565b60405180910390a1505050505050505050565b60007fb9d1fe7c9deeec5dc90a2f47ff1684239519f2545b2228d3d91fb27df3189eea60001b826000015183602001516128078560400151613931565b6128148660600151613931565b6128218760800151613994565b6040516020016128369695949392919061542c565b604051602081830303815290604052805190602001209050919050565b60006128608686846139d7565b60008061286d8885613a7c565b9092509050612880888784888589613c6e565b98975050505050505050565b611b0d8133613cca565b6128a08282613d08565b6000828152606c60205260409020610f529082613d8e565b6128c28282613da3565b6000828152606c60205260409020610f529082613e0a565b6001600160a01b031660009081526002919091016020526040902054151590565b7fb53127684a568b3173ae13b9f8a6016e243e63b6e8ee1178d6a717850b5d6103546001600160a01b031690565b612931613e1f565b6000805460ff191690557f5db9ee0a495bf2e6ff9c91a7834c1ba4fdd244a5e8aa4e537bd38aeae4b073aa335b60405161296b919061459e565b60405180910390a1565b8281146129945760405162461bcd60e51b81526004016109d690615112565b60005b83811015612a0f578282828181106129b1576129b1614f96565b90506020020135603860008787858181106129ce576129ce614f96565b90506020020160208101906129e39190614735565b6001600160a01b0316815260208101919091526040016000205580612a078161503e565b915050612997565b507f6f52f53a938df83439fa4c6055c7df0a6906d621aa6dfa4708187037fdfc41da84848484604051612a4594939291906154e1565b60405180910390a150505050565b60008082841115612ab25760405162461bcd60e51b8152602060048201526024808201527f4761746577617956323a20696e76616c696420747275737465642074687265736044820152631a1bdb1960e21b60648201526084016109d6565b5050600154600254607884905560798390556004805484918691906000612ad88361503e565b9091555060408051868152602081018690527feac82d4d949d2d4f77f96aa68ab6b1bb750da73f14e55d41a1b93f387471ecba91015b60405180910390a49250929050565b6077546040805163cacf8fb560e01b815290516000926001600160a01b03169163cacf8fb59160048083019260209291908290030181865afa158015612b67573d6000803e3d6000fd5b505050506040513d601f19601f8201168201806040525081019061158b9190615513565b6000607954600160795484607854612ba39190615248565b612bad919061552c565b612bb7919061553f565b610a049190615552565b6074546040805163158b54c160e21b815290516000926001600160a01b03169163562d53049160048083019260209291908290030181865afa158015612b67573d6000803e3d6000fd5b6000600254600160025484600154612ba39190615248565b612c2b61239e565b6000805460ff191660011790557f62e78cea01bee320cd4e420270b5ea74000d11b0c9f74754ebdbfc544b05a25861295e3390565b60006110608383613e68565b606e805460009182612c7d8361503e565b9091555090506000612ca484838588612c9b368c90038c018c615574565b93929190613e92565b60008381526071602090815260409091208251815590820151600180830180549495508594909160ff19909116908381811115612ce357612ce3614774565b021790555060408281015180516002840180546001600160a01b039283166001600160a01b03199182161790915560208084015160038701805491851691841691909117905592840151600486015560608601518051600587018054918516918416919091179055928301516006860180549190931691161790550151600782015560808201518051600883018054909190829060ff191660018381811115612d8e57612d8e614774565b0217905550602082015181600101556040820151816002015550509050507ff313c253a5be72c29d0deb2c8768a9543744ac03d6b3cafd50cc976f1c2632fc612dd6826127ca565b82604051612de5929190614fc7565b60405180910390a150949350505050565b610a1d8282612896565b60008082841115612e525760405162461bcd60e51b815260206004820152601c60248201527b11d85d195dd85e558c8e881a5b9d985b1a59081d1a1c995cda1bdb1960221b60448201526064016109d6565b50506001805460028054928590558390556004805491929184918691906000612e7a8361503e565b9091555060408051868152602081018690527f976f8a9c5bdf8248dec172376d6e2b80a8e3df2f0328e381c6db8e1cf138c0f89101612b0e565b8685148015612ec257508683145b612ede5760405162461bcd60e51b81526004016109d69061525f565b60005b8781101561307a57868682818110612efb57612efb614f96565b9050602002016020810190612f109190614735565b607360008b8b85818110612f2657612f26614f96565b9050602002016020810190612f3b9190614735565b6001600160a01b03166001600160a01b031681526020019081526020016000206000878785818110612f6f57612f6f614f96565b90506020020135815260200190815260200160002060000160016101000a8154816001600160a01b0302191690836001600160a01b03160217905550828282818110612fbd57612fbd614f96565b9050602002016020810190612fd29190615159565b607360008b8b85818110612fe857612fe8614f96565b9050602002016020810190612ffd9190614735565b6001600160a01b03166001600160a01b03168152602001908152602001600020600087878581811061303157613031614f96565b60209081029290920135835250810191909152604001600020805460ff19166001838181111561306357613063614774565b0217905550806130728161503e565b915050612ee1565b507f2544bff60c6d5b84946e06804af9f84e150bbee85238dbdee79efca4e0adf40188888888888888886040516130b89897969594939291906155c7565b60405180910390a15050505050505050565b607580546001600160a01b0319166001600160a01b0383161790556040517f034c8da497df28467c79ddadbba1cc3cdd41f510ea73faae271e6f16a61116219061311590839061459e565b60405180910390a150565b607780546001600160a01b0319166001600160a01b0383161790556040517ffd6f5f93d69a07c593a09be0b208bff13ab4ffd6017df3b33433d63bdc59b4d79061311590839061459e565b6000610a04825490565b607480546001600160a01b0319166001600160a01b0383161790556040517fef40dc07567635f84f5edbd2f8dbc16b40d9d282dd8e7e6f4ff58236b68361699061311590839061459e565b6000815160018111156131d5576131d5614774565b1480156131e6575060008160400151115b80156131f457506020810151155b8061321e575060018151600181111561320f5761320f614774565b14801561321e57506040810151155b611b0d5760405162461bcd60e51b8152602060048201526013602482015272546f6b656e3a20696e76616c696420696e666f60681b60448201526064016109d6565b60006132726060830160408401615159565b600181111561328357613283614774565b1415806132c157506038600061329f6040840160208501614735565b6001600160a01b03168152602081019190915260400160002054608082013510155b611b0d5760405162461bcd60e51b815260206004820152602f60248201527f4d696e696d756d5769746864726177616c3a20717565727920666f7220746f6f60448201526e20736d616c6c207175616e7469747960881b60648201526084016109d6565b60006060818651600181111561333d5761333d614774565b0361341f57826001600160a01b03166323b872dd60e01b8686896040015160405160240161336d93929190615656565b60408051601f198184030181529181526020820180516001600160e01b03166001600160e01b03199094169390931790925290516133ab919061567a565b6000604051808303816000865af19150503d80600081146133e8576040519150601f19603f3d011682016040523d82523d6000602084013e6133ed565b606091505b5090925090508180156134185750805115806134185750808060200190518101906134189190614d55565b9150613539565b60018651600181111561343457613434614774565b036134e757826001600160a01b03166323b872dd8686896020015160405160240161346193929190615656565b6040516020818303038152906040529060e01b6020820180516001600160e01b03838183161783525050505060405161349a919061567a565b6000604051808303816000865af19150503d80600081146134d7576040519150601f19603f3d011682016040523d82523d6000602084013e6134dc565b606091505b505080925050613539565b60405162461bcd60e51b815260206004820152602160248201527f546f6b656e3a20756e737570706f7274656420746f6b656e207374616e6461726044820152601960fa1b60648201526084016109d6565b81610b435761354786613efe565b61355b866001600160a01b03166014613f6b565b61356f866001600160a01b03166014613f6b565b613583866001600160a01b03166014613f6b565b6040516020016135969493929190615696565b60408051601f198184030181529082905262461bcd60e51b82526109d69160040161574c565b6000816001600160a01b0316836001600160a01b03160361366b5760408086015190516001600160a01b0386169180156108fc02916000818181858888f1935050505061366657816001600160a01b031663d0e30db086604001516040518263ffffffff1660e01b81526004016000604051808303818588803b15801561364257600080fd5b505af1158015613656573d6000803e3d6000fd5b5050505050613666858585614106565b6124b5565b60008551600181111561368057613680614774565b03613811576040516370a0823160e01b81526000906001600160a01b038516906370a08231906136b490309060040161459e565b602060405180830381865afa1580156136d1573d6000803e3d6000fd5b505050506040513d601f19601f820116820180604052508101906136f59190615513565b9050856040015181101561380057836001600160a01b03166340c10f1930838960400151613723919061553f565b60405160240161373492919061575f565b6040516020818303038152906040529060e01b6020820180516001600160e01b03838183161783525050505060405161376d919061567a565b6000604051808303816000865af19150503d80600081146137aa576040519150601f19603f3d011682016040523d82523d6000602084013e6137af565b606091505b505080925050816138005760405162461bcd60e51b815260206004820152601b60248201527a151bdad95b8e88115490cc8c081b5a5b9d1a5b99c819985a5b1959602a1b60448201526064016109d6565b61380b868686614106565b506124b5565b60018551600181111561382657613826614774565b036134e75761383a838587602001516141a8565b61366657826001600160a01b03166340c10f1985876020015160405160240161386492919061575f565b6040516020818303038152906040529060e01b6020820180516001600160e01b03838183161783525050505060405161389d919061567a565b6000604051808303816000865af19150503d80600081146138da576040519150601f19603f3d011682016040523d82523d6000602084013e6138df565b606091505b505080915050806136665760405162461bcd60e51b815260206004820152601c60248201527b151bdad95b8e88115490cdcc8c481b5a5b9d1a5b99c819985a5b195960221b60448201526064016109d6565b80516020808301516040808501519051600094612836947f353bdd8d69b9e3185b3972e08b03845c0c14a21a390215302776a7a34b0e87649491939192019384526001600160a01b03928316602085015291166040830152606082015260800190565b80516020808301516040808501519051600094612836947f1e2b74b2a792d5c0f0b6e59b037fa9d43d84fbb759337f0112fcc15ca414fc8d949193919201615778565b600083600301541180156139ef575042836003015411155b15613a0057825460ff191660041783555b613a0a83836128da565b15613a3357613a23826001600160a01b03166014613f6b565b60405160200161359691906157a3565b6001600160a01b039091166000818152600284016020908152604082209390935560059093018054600181018255908452919092200180546001600160a01b0319169091179055565b6000806000806000607460009054906101000a90046001600160a01b03166001600160a01b031663b7ab4db56040518163ffffffff1660e01b8152600401600060405180830381865afa158015613ad7573d6000803e3d6000fd5b505050506040513d6000823e601f3d908101601f19168201604052613aff919081019061588e565b607754604051632907e73160e11b815293965091945092506000916001600160a01b039091169063520fce6290613b3a908790600401615979565b600060405180830381865afa158015613b57573d6000803e3d6000fd5b505050506040513d6000823e601f3d908101601f19168201604052613b7f91908101906159ba565b905060005b8351811015613c6257613bc36002848381518110613ba457613ba4614f96565b60200260200101516003811115613bbd57613bbd614774565b9061425c565b8015613c0e575087896002016000868481518110613be357613be3614f96565b60200260200101516001600160a01b03166001600160a01b0316815260200190815260200160002054145b15613c505786613c1d8161503e565b9750506000828281518110613c3457613c34614f96565b60200260200101511115613c505785613c4c8161503e565b9650505b80613c5a8161503e565b915050613b84565b50505050509250929050565b6000858510158015613c805750838310155b8015613ca157506000875460ff166004811115613c9f57613c9f614774565b145b15613cb957865460ff19166001908117885587018290555b50855460ff165b9695505050505050565b613cd482826116e1565b610a1d57613cec816001600160a01b03166014613f6b565b613cf7836020613f6b565b604051602001613596929190615a3f565b613d1282826116e1565b610a1d576000828152606b602090815260408083206001600160a01b03851684529091529020805460ff19166001179055613d4a3390565b6001600160a01b0316816001600160a01b0316837f2f8788117e7eff1d82e926ec794901d17c78024a50270940304540a733656f0d60405160405180910390a45050565b6000611060836001600160a01b03841661428f565b613dad82826116e1565b15610a1d576000828152606b602090815260408083206001600160a01b0385168085529252808320805460ff1916905551339285917ff6391f5c32d9c69d2a47ea670b442974b53935d1edc7fd64eb21e047a839171b9190a45050565b6000611060836001600160a01b0384166142de565b60005460ff166111165760405162461bcd60e51b815260206004820152601460248201527314185d5cd8589b194e881b9bdd081c185d5cd95960621b60448201526064016109d6565b6000826000018281548110613e7f57613e7f614f96565b9060005260206000200154905092915050565b613e9a614505565b92835260016020808501919091526060840180516001600160a01b0396871690528682015181519087169083015251466040918201528651818601805191881690915280519490961693909101929092529251810192909252910151608082015290565b6060613f2982600001516001811115613f1957613f19614774565b6001600160a01b03166001613f6b565b613f3683602001516143d1565b613f4384604001516143d1565b604051602001613f5593929190615aae565b6040516020818303038152906040529050919050565b60606000613f7a836002615248565b613f8590600261552c565b6001600160401b03811115613f9c57613f9c614dba565b6040519080825280601f01601f191660200182016040528015613fc6576020820181803683370190505b509050600360fc1b81600081518110613fe157613fe1614f96565b60200101906001600160f81b031916908160001a905350600f60fb1b8160018151811061401057614010614f96565b60200101906001600160f81b031916908160001a9053506000614034846002615248565b61403f90600161552c565b90505b60018111156140b7576f181899199a1a9b1b9c1cb0b131b232b360811b85600f166010811061407357614073614f96565b1a60f81b82828151811061408957614089614f96565b60200101906001600160f81b031916908160001a90535060049490941c936140b081615b2c565b9050614042565b5083156110605760405162461bcd60e51b815260206004820181905260248201527f537472696e67733a20686578206c656e67746820696e73756666696369656e7460448201526064016109d6565b6000808451600181111561411c5761411c614774565b036141375761413082848660400151614428565b9050614160565b60018451600181111561414c5761414c614774565b036134e757614130828486602001516141a8565b806113e45761416e84613efe565b614182846001600160a01b03166014613f6b565b614196846001600160a01b03166014613f6b565b60405160200161359693929190615b43565b6000836001600160a01b03166323b872dd60e01b3085856040516024016141d193929190615656565b60408051601f198184030181529181526020820180516001600160e01b03166001600160e01b031990941693909317909252905161420f919061567a565b6000604051808303816000865af19150503d806000811461424c576040519150601f19603f3d011682016040523d82523d6000602084013e614251565b606091505b509095945050505050565b600081600381111561427057614270614774565b83600381111561428257614282614774565b1660ff1615159392505050565b60008181526001830160205260408120546142d657508154600181810184556000848152602080822090930184905584548482528286019093526040902091909155610a04565b506000610a04565b600081815260018301602052604081205480156143c757600061430260018361553f565b85549091506000906143169060019061553f565b905081811461437b57600086600001828154811061433657614336614f96565b906000526020600020015490508087600001848154811061435957614359614f96565b6000918252602080832090910192909255918252600188019052604090208390555b855486908061438c5761438c615bd1565b600190038181906000526020600020016000905590558560010160008681526020019081526020016000206000905560019350505050610a04565b6000915050610a04565b6060816000036143fb5750506040805180820190915260048152630307830360e41b602082015290565b8160005b811561441e578061440f8161503e565b915050600882901c91506143ff565b6123618482613f6b565b60006060846001600160a01b031663a9059cbb60e01b858560405160240161445192919061575f565b60408051601f198184030181529181526020820180516001600160e01b03166001600160e01b031990941693909317909252905161448f919061567a565b6000604051808303816000865af19150503d80600081146144cc576040519150601f19603f3d011682016040523d82523d6000602084013e6144d1565b606091505b5090925090508180156144fc5750805115806144fc5750808060200190518101906144fc9190614d55565b95945050505050565b6040805160a08101825260008082526020820152908101614524614554565b8152602001614531614554565b815260408051606081018252600080825260208281018290529282015291015290565b604080516060810182526000808252602082018190529181019190915290565b60006020828403121561458657600080fd5b81356001600160e01b03198116811461106057600080fd5b6001600160a01b0391909116815260200190565b60008082840360c08112156145c657600080fd5b60a08112156145d457600080fd5b50919360a08501359350915050565b600061016082840312156145f657600080fd5b50919050565b60008083601f84011261460e57600080fd5b5081356001600160401b0381111561462557600080fd5b6020830191508360208260051b850101111561157257600080fd5b6000806020838503121561465357600080fd5b82356001600160401b0381111561466957600080fd5b614675858286016145fc565b90969095509350505050565b6020808252825182820181905260009190848201906040850190845b818110156146bb57835115158352928401929184019160010161469d565b50909695505050505050565b6000602082840312156146d957600080fd5b5035919050565b6001600160a01b0381168114611b0d57600080fd5b8035614700816146e0565b919050565b6000806040838503121561471857600080fd5b82359150602083013561472a816146e0565b809150509250929050565b60006020828403121561474757600080fd5b8135611060816146e0565b6000806040838503121561476557600080fd5b50508035926020909101359150565b634e487b7160e01b600052602160045260246000fd5b608081016005861061479e5761479e614774565b9481526020810193909352604083019190915260609091015290565b60008083601f8401126147cc57600080fd5b5081356001600160401b038111156147e357600080fd5b60208301915083602060a08302850101111561157257600080fd5b60008060006040848603121561481357600080fd5b83356001600160401b0381111561482957600080fd5b614835868287016147ba565b909790965060209590950135949350505050565b6000806040838503121561485c57600080fd5b8235614867816146e0565b946020939093013593505050565b60028110611b0d57611b0d614774565b8151604082019061489581614875565b82526020928301516001600160a01b0316929091019190915290565b600080600080604085870312156148c757600080fd5b84356001600160401b03808211156148de57600080fd5b6148ea888389016145fc565b9096509450602087013591508082111561490357600080fd5b50614910878288016145fc565b95989497509550505050565b80516001600160a01b03908116835260208083015190911690830152604090810151910152565b805161494e81614875565b825260208181015190830152604090810151910152565b858152610160810161497686614875565b856020830152614989604083018661491c565b61499660a083018561491c565b613cc0610100830184614943565b600080600080604085870312156149ba57600080fd5b84356001600160401b03808211156149d157600080fd5b6148ea888389016147ba565b8060408101831015610a0457600080fd5b60008060008060008060008060008060006101208c8e031215614a1057600080fd5b614a198c6146f5565b9a5060208c0135995060408c0135985060608c0135975060808c013596506001600160401b0360a08d0135811015614a5057600080fd5b614a608e60a08f01358f016145fc565b909750955060c08d0135811015614a7657600080fd5b614a868e60c08f01358f016149dd565b94508060e08e01351115614a9957600080fd5b614aa98e60e08f01358f016149dd565b9350806101008e01351115614abd57600080fd5b50614acf8d6101008e01358e016145fc565b81935080925050509295989b509295989b9093969950565b60008060208385031215614afa57600080fd5b82356001600160401b0380821115614b1157600080fd5b818501915085601f830112614b2557600080fd5b813581811115614b3457600080fd5b86602061016083028501011115614b4a57600080fd5b60209290920196919550909350505050565b6000806000806000806000806080898b031215614b7857600080fd5b88356001600160401b0380821115614b8f57600080fd5b614b9b8c838d016145fc565b909a50985060208b0135915080821115614bb457600080fd5b614bc08c838d016145fc565b909850965060408b0135915080821115614bd957600080fd5b614be58c838d016145fc565b909650945060608b0135915080821115614bfe57600080fd5b50614c0b8b828c016145fc565b999c989b5096995094979396929594505050565b600080600060408486031215614c3457600080fd5b8335925060208401356001600160401b03811115614c5157600080fd5b614c5d868287016145fc565b9497909650939450505050565b60005b83811015614c85578181015183820152602001614c6d565b50506000910152565b60008151808452614ca6816020860160208601614c6a565b601f01601f19169290920160200192915050565b6000602080830181845280855180835260408601915060408160051b870101925083870160005b82811015614d0f57603f19888603018452614cfd858351614c8e565b94509285019290850190600101614ce1565b5092979650505050505050565b600080600060608486031215614d3157600080fd5b83359250602084013591506040840135614d4a816146e0565b809150509250925092565b600060208284031215614d6757600080fd5b8151801515811461106057600080fd5b60208082526023908201527f526f6e696e4761746577617956323a20756e617574686f72697a65642073656e6040820152623232b960e91b606082015260800190565b634e487b7160e01b600052604160045260246000fd5b604051606081016001600160401b0381118282101715614df257614df2614dba565b60405290565b604051601f8201601f191681016001600160401b0381118282101715614e2057614e20614dba565b604052919050565b60028110611b0d57600080fd5b600060608284031215614e4757600080fd5b614e4f614dd0565b90508135614e5c816146e0565b81526020820135614e6c816146e0565b806020830152506040820135604082015292915050565b600060608284031215614e9557600080fd5b614e9d614dd0565b90508135614eaa81614e28565b80825250602082013560208201526040820135604082015292915050565b60006101608284031215614edb57600080fd5b60405160a081016001600160401b0381118282101715614efd57614efd614dba565b604052823581526020830135614f1281614e28565b6020820152614f248460408501614e35565b6040820152614f368460a08501614e35565b6060820152614f49846101008501614e83565b60808201529392505050565b60038110614f6557614f65614774565b9052565b60608101614f778286614f55565b60208201939093526001600160a01b0391909116604090910152919050565b634e487b7160e01b600052603260045260246000fd5b60408101614fba8285614f55565b8260208301529392505050565b600061018082019050838252825160208301526020830151614fe881614875565b806040840152506040830151615001606084018261491c565b50606083015161501460c084018261491c565b506080830151612087610120840182614943565b634e487b7160e01b600052601160045260246000fd5b60006001820161505057615050615028565b5060010190565b60208082526024908201527f526f6e696e4761746577617956323a207769746864726177616c73206d696772604082015263185d195960e21b606082015260800190565b60208082526022908201527f48617350726f787941646d696e3a20756e617574686f72697a65642073656e6460408201526132b960f11b606082015260800190565b6020808252818101527f4761746577617956323a206e6f7420617574686f72697a656420706175736572604082015260600190565b60208082526027908201527f4d696e696d756d5769746864726177616c3a20696e76616c6964206172726179604082015266040d8cadccee8d60cb1b606082015260800190565b60006020828403121561516b57600080fd5b813561106081614e28565b60208082526026908201527f526f6e696e4761746577617956323a20696e76616c696420746f6b656e207374604082015265185b99185c9960d21b606082015260800190565b6000808335601e198436030181126151d357600080fd5b8301803591506001600160401b038211156151ed57600080fd5b6020019150600581901b360382131561157257600080fd5b60208082526023908201527f526f6e696e4761746577617956323a2073657420746f206e6f6e2d636f6e74726040820152621858dd60ea1b606082015260800190565b8082028115828204841417610a0457610a04615028565b6020808252602490820152600080516020615c088339815191526040820152630dccee8d60e31b606082015260800190565b600181811c908216806152a557607f821691505b6020821081036145f657634e487b7160e01b600052602260045260246000fd5b6000808335601e198436030181126152dc57600080fd5b8301803591506001600160401b038211156152f657600080fd5b60200191503681900382131561157257600080fd5b601f821115610f5257600081815260208120601f850160051c810160208610156153325750805b601f850160051c820191505b81811015610b435782815560010161533e565b6001600160401b0383111561536857615368614dba565b61537c836153768354615291565b8361530b565b6000601f8411600181146153b057600085156153985750838201355b600019600387901b1c1916600186901b1783556124b5565b600083815260209020601f19861690835b828110156153e157868501358255602094850194600190920191016153c1565b50868210156153fe5760001960f88860031b161c19848701351681555b505060018560011b0183555050505050565b60006060828403121561542257600080fd5b6110608383614e83565b8681526020810186905260c0810161544386614875565b8560408301528460608301528360808301528260a0830152979650505050505050565b8183526000602080850194508260005b858110156154a4578135615489816146e0565b6001600160a01b031687529582019590820190600101615476565b509495945050505050565b81835260006001600160fb1b038311156154c857600080fd5b8260051b80836020870137939093016020019392505050565b6040815260006154f5604083018688615466565b82810360208401526155088185876154af565b979650505050505050565b60006020828403121561552557600080fd5b5051919050565b80820180821115610a0457610a04615028565b81810381811115610a0457610a04615028565b60008261556f57634e487b7160e01b600052601260045260246000fd5b500490565b600060a0828403121561558657600080fd5b61558e614dd0565b8235615599816146e0565b815260208301356155a9816146e0565b60208201526155bb8460408501614e83565b60408201529392505050565b6080815260006155db608083018a8c615466565b6020838203818501526155ef828a8c615466565b9150838203604085015261560482888a6154af565b8481036060860152858152869250810160005b8681101561564557833561562a81614e28565b61563381614875565b82529282019290820190600101615617565b509c9b505050505050505050505050565b6001600160a01b039384168152919092166020820152604081019190915260600190565b6000825161568c818460208701614c6a565b9190910192915050565b7902a37b5b2b71d1031b7bab632103737ba103a3930b739b332b9160351b81526000855160206156cc82601a8601838b01614c6a565b65010333937b6960d51b601a9285019283015286516156f081838501848b01614c6a565b630103a37960e51b92018181019290925285516157138160248501898501614c6a565b660103a37b5b2b7160cd1b60249390910192830152845161573a81602b8501848901614c6a565b91909101602b01979650505050505050565b6020815260006110606020830184614c8e565b6001600160a01b03929092168252602082015260400190565b8481526080810161578885614875565b84602083015283604083015282606083015295945050505050565b73024b9b7b630ba32b223b7bb32b93730b731b29d160651b8152600082516157d2816014850160208701614c6a565b6d08185b1c9958591e481d9bdd195960921b6014939091019283015250602201919050565b60006001600160401b0382111561581057615810614dba565b5060051b60200190565b600082601f83011261582b57600080fd5b8151602061584061583b836157f7565b614df8565b82815260059290921b8401810191818101908684111561585f57600080fd5b8286015b84811015615883578051615876816146e0565b8352918301918301615863565b509695505050505050565b6000806000606084860312156158a357600080fd5b83516001600160401b03808211156158ba57600080fd5b6158c68783880161581a565b94506020915081860151818111156158dd57600080fd5b6158e98882890161581a565b9450506040860151818111156158fe57600080fd5b86019050601f8101871361591157600080fd5b805161591f61583b826157f7565b81815260059190911b8201830190838101908983111561593e57600080fd5b928401925b8284101561596a5783516004811061595b5760008081fd5b82529284019290840190615943565b80955050505050509250925092565b6020808252825182820181905260009190848201906040850190845b818110156146bb5783516001600160a01b031683529284019291840191600101615995565b600060208083850312156159cd57600080fd5b82516001600160401b038111156159e357600080fd5b8301601f810185136159f457600080fd5b8051615a0261583b826157f7565b81815260059190911b82018301908381019087831115615a2157600080fd5b928401925b8284101561550857835182529284019290840190615a26565b76020b1b1b2b9b9a1b7b73a3937b61d1030b1b1b7bab73a1604d1b815260008351615a71816017850160208801614c6a565b7001034b99036b4b9b9b4b733903937b6329607d1b6017918401918201528351615aa2816028840160208801614c6a565b01602801949350505050565b690a8ded6cadc92dcccde560b31b815260008451615ad381600a850160208901614c6a565b8083019050600b60fa1b80600a8301528551615af681600b850160208a01614c6a565b600b9201918201528351615b1181600c840160208801614c6a565b602960f81b600c9290910191820152600d0195945050505050565b600081615b3b57615b3b615028565b506000190190565b7902a37b5b2b71d1031b7bab632103737ba103a3930b739b332b9160351b815260008451615b7881601a850160208901614c6a565b630103a37960e51b601a918401918201528451615b9c81601e840160208901614c6a565b660103a37b5b2b7160cd1b601e92909101918201528351615bc4816025840160208801614c6a565b0160250195945050505050565b634e487b7160e01b600052603160045260246000fdfe384495a48d92b97cd9b9d199c73ed783dd1aa0076a6ebcf9156ca7fef7d2cc40526f6e696e4761746577617956323a20696e76616c6964206172726179206c65a2646970667358221220b02b2e661c7c8644fe0550762b84d2a59ee4379e4701f29e52793b6ae409334264736f6c63430008110033",
  "devdoc": {
    "errors": {
      "ErrCallerMustBeBridgeTrackingContract()": [
        {
          "details": "Error of method caller must be bridge tracking contract."
        }
      ],
      "ErrCallerMustBeRoninTrustedOrgContract()": [
        {
          "details": "Error of method caller must be Ronin trusted org contract."
        }
      ],
      "ErrCallerMustBeValidatorContract()": [
        {
          "details": "Error of method caller must be validator contract."
        }
      ],
      "ErrZeroCodeContract()": [
        {
          "details": "Error of set to non-contract."
        }
      ]
    },
    "kind": "dev",
    "methods": {
      "bridgeTrackingContract()": {
        "details": "Returns the bridge tracking contract."
      },
      "bulkRequestWithdrawalFor((address,address,(uint8,uint256,uint256))[],uint256)": {
        "details": "Bulk requests withdrawals. Emits the `WithdrawalRequested` events."
      },
      "bulkSubmitWithdrawalSignatures(uint256[],bytes[])": {
        "details": "Submits withdrawal signatures. Requirements: - The method caller is a validator."
      },
      "checkThreshold(uint256)": {
        "details": "Checks whether the `_voteWeight` passes the threshold."
      },
      "depositFor((uint256,uint8,(address,address,uint256),(address,address,uint256),(uint8,uint256,uint256)))": {
        "details": "Deposits based on the receipt. Requirements: - The method caller is a validator. Emits the `Deposited` once the assets are released."
      },
      "depositVoted(uint256,uint256,address)": {
        "details": "Returns whether the deposit is casted by the voter."
      },
      "getMainchainToken(address,uint256)": {
        "details": "Returns mainchain token address. Reverts for unsupported token."
      },
      "getRoleAdmin(bytes32)": {
        "details": "Returns the admin role that controls `role`. See {grantRole} and {revokeRole}. To change a role's admin, use {_setRoleAdmin}."
      },
      "getRoleMember(bytes32,uint256)": {
        "details": "Returns one of the accounts that have `role`. `index` must be a value between 0 and {getRoleMemberCount}, non-inclusive. Role bearers are not sorted in any particular way, and their ordering may change at any point. WARNING: When using {getRoleMember} and {getRoleMemberCount}, make sure you perform all queries on the same block. See the following https://forum.openzeppelin.com/t/iterating-over-elements-on-enumerableset-in-openzeppelin-contracts/2296[forum post] for more information."
      },
      "getRoleMemberCount(bytes32)": {
        "details": "Returns the number of accounts that have `role`. Can be used together with {getRoleMember} to enumerate all bearers of a role."
      },
      "getThreshold()": {
        "details": "Returns the threshold."
      },
      "getTrustedThreshold()": {
        "details": "Returns the threshold about trusted org."
      },
      "getWithdrawalSignatures(uint256,address[])": {
        "details": "Returns withdrawal signatures."
      },
      "grantRole(bytes32,address)": {
        "details": "Grants `role` to `account`. If `account` had not been already granted `role`, emits a {RoleGranted} event. Requirements: - the caller must have ``role``'s admin role. May emit a {RoleGranted} event."
      },
      "hasRole(bytes32,address)": {
        "details": "Returns `true` if `account` has been granted `role`."
      },
      "initialize(address,uint256,uint256,uint256,uint256,address[],address[][2],uint256[][2],uint8[])": {
        "details": "Initializes contract storage."
      },
      "mainchainWithdrew(uint256)": {
        "details": "Returns whether the withdrawal is done on mainchain."
      },
      "mainchainWithdrewVoted(uint256,address)": {
        "details": "Returns whether the mainchain withdrew is casted by the voter."
      },
      "mapTokens(address[],address[],uint256[],uint8[])": {
        "details": "Maps Ronin tokens to mainchain networks. Requirement: - The method caller is admin. - The arrays have the same length and its length larger than 0. Emits the `TokenMapped` event."
      },
      "markWithdrawalMigrated()": {
        "details": "Mark the migration as done."
      },
      "migrateWithdrawals((address,address,(uint8,uint256,uint256))[],address[])": {
        "details": "Migrates withdrawals. Requirements: - The method caller is the migrator. - The arrays have the same length and its length larger than 0."
      },
      "minimumTrustedVoteWeight()": {
        "details": "Returns the minimum trusted vote weight to pass the threshold."
      },
      "minimumVoteWeight()": {
        "details": "Returns the minimum vote weight to pass the threshold."
      },
      "pause()": {
        "details": "Triggers paused state."
      },
      "paused()": {
        "details": "Returns true if the contract is paused, and false otherwise."
      },
      "renounceRole(bytes32,address)": {
        "details": "Revokes `role` from the calling account. Roles are often managed via {grantRole} and {revokeRole}: this function's purpose is to provide a mechanism for accounts to lose their privileges if they are compromised (such as when a trusted device is misplaced). If the calling account had been revoked `role`, emits a {RoleRevoked} event. Requirements: - the caller must be `account`. May emit a {RoleRevoked} event."
      },
      "requestWithdrawalFor((address,address,(uint8,uint256,uint256)),uint256)": {
        "details": "Locks the assets and request withdrawal. Emits the `WithdrawalRequested` event."
      },
      "requestWithdrawalSignatures(uint256)": {
        "details": "Requests withdrawal signatures for a specific withdrawal. Emits the `WithdrawalSignaturesRequested` event."
      },
      "revokeRole(bytes32,address)": {
        "details": "Revokes `role` from `account`. If `account` had been granted `role`, emits a {RoleRevoked} event. Requirements: - the caller must have ``role``'s admin role. May emit a {RoleRevoked} event."
      },
      "roninTrustedOrganizationContract()": {
        "details": "Returns the ronin trusted organization contract."
      },
      "setBridgeTrackingContract(address)": {
        "details": "Sets the bridge tracking contract. Requirements: - The method caller is admin. - The new address is a contract. Emits the event `BridgeTrackingContractUpdated`."
      },
      "setEmergencyPauser(address)": {
        "details": "Grant emergency pauser role for `_addr`."
      },
      "setMinimumThresholds(address[],uint256[])": {
        "details": "Sets the minimum thresholds to withdraw. Requirements: - The method caller is admin. - The arrays have the same length and its length larger than 0. Emits the `MinimumThresholdsUpdated` event."
      },
      "setRoninTrustedOrganizationContract(address)": {
        "details": "Sets the ronin trusted organization contract. Requirements: - The method caller is admin. - The new address is a contract. Emits the event `RoninTrustedOrganizationContractUpdated`."
      },
      "setThreshold(uint256,uint256)": {
        "details": "Sets the threshold. Requirements: - The method caller is admin. Emits the `ThresholdUpdated` event."
      },
      "setValidatorContract(address)": {
        "details": "Sets the validator contract. Requirements: - The method caller is admin. - The new address is a contract. Emits the event `ValidatorContractUpdated`."
      },
      "supportsInterface(bytes4)": {
        "details": "See {IERC165-supportsInterface}."
      },
      "tryBulkAcknowledgeMainchainWithdrew(uint256[])": {
        "details": "Marks the withdrawals are done on mainchain and returns the boolean array indicating whether the withdrawal vote is already done before. Requirements: - The method caller is a validator. Emits the `MainchainWithdrew` once the valid call passes the quorum threshold."
      },
      "tryBulkDepositFor((uint256,uint8,(address,address,uint256),(address,address,uint256),(uint8,uint256,uint256))[])": {
        "details": "Tries bulk deposits based on the receipts and returns the boolean array indicating whether the deposit vote is already done before. Reverts if the deposit is invalid or is voted by the validator again. Requirements: - The method caller is a validator. Emits the `Deposited` once the assets are released."
      },
      "unpause()": {
        "details": "Triggers unpaused state."
      },
      "validatorContract()": {
        "details": "Returns the validator contract."
      }
    },
    "stateVariables": {
      "WITHDRAWAL_MIGRATOR": {
        "details": "Withdrawal unlocker role hash"
      },
      "_bridgeTrackingContract": {
        "details": "The bridge tracking contract"
      },
      "_mainchainToken": {
        "details": "Mapping from token address => chain id => mainchain token address"
      },
      "_trustedOrgContract": {
        "details": "The trusted organization contract"
      },
      "_validatorContract": {
        "details": "The ronin validator contract"
      },
      "_withdrawalSig": {
        "details": "Mapping from withdrawal id => validator address => signatures"
      },
      "depositVote": {
        "details": "Mapping from chain id => deposit id => deposit vote"
      },
      "mainchainWithdrewVote": {
        "details": "Mapping from withdrawal id => mainchain withdrew vote"
      },
      "withdrawal": {
        "details": "Mapping from withdrawal id => withdrawal receipt"
      },
      "withdrawalCount": {
        "details": "Total withdrawal"
      },
      "withdrawalMigrated": {
        "details": "Flag indicating whether the withdrawal migrate progress is done"
      },
      "withdrawalStatVote": {
        "details": "Mapping from withdrawal id => vote for recording withdrawal stats"
      }
    },
    "version": 1
  },
  "userdoc": {
    "kind": "user",
    "methods": {
      "depositFor((uint256,uint8,(address,address,uint256),(address,address,uint256),(uint8,uint256,uint256)))": {
        "notice": "The assets will be transferred whenever the valid call passes the quorum threshold."
      },
      "tryBulkAcknowledgeMainchainWithdrew(uint256[])": {
        "notice": "Not reverting to avoid unnecessary failed transactions because the validators can send transactions at the same time."
      },
      "tryBulkDepositFor((uint256,uint8,(address,address,uint256),(address,address,uint256),(uint8,uint256,uint256))[])": {
        "notice": "The assets will be transferred whenever the valid call for the receipt passes the quorum threshold. Not reverting to avoid unnecessary failed transactions because the validators can send transactions at the same time."
      }
    },
    "version": 1
  },
  "storageLayout": {
    "storage": [
      {
        "astId": 1535,
        "contract": "contracts/ronin/gateway/RoninGatewayV2.sol:RoninGatewayV2",
        "label": "_paused",
        "offset": 0,
        "slot": "0",
        "type": "t_bool"
      },
      {
        "astId": 4326,
        "contract": "contracts/ronin/gateway/RoninGatewayV2.sol:RoninGatewayV2",
        "label": "_num",
        "offset": 0,
        "slot": "1",
        "type": "t_uint256"
      },
      {
        "astId": 4328,
        "contract": "contracts/ronin/gateway/RoninGatewayV2.sol:RoninGatewayV2",
        "label": "_denom",
        "offset": 0,
        "slot": "2",
        "type": "t_uint256"
      },
      {
        "astId": 4330,
        "contract": "contracts/ronin/gateway/RoninGatewayV2.sol:RoninGatewayV2",
        "label": "______deprecated",
        "offset": 0,
        "slot": "3",
        "type": "t_address"
      },
      {
        "astId": 4332,
        "contract": "contracts/ronin/gateway/RoninGatewayV2.sol:RoninGatewayV2",
        "label": "nonce",
        "offset": 0,
        "slot": "4",
        "type": "t_uint256"
      },
      {
        "astId": 4334,
        "contract": "contracts/ronin/gateway/RoninGatewayV2.sol:RoninGatewayV2",
        "label": "emergencyPauser",
        "offset": 0,
        "slot": "5",
        "type": "t_address"
      },
      {
        "astId": 4339,
        "contract": "contracts/ronin/gateway/RoninGatewayV2.sol:RoninGatewayV2",
        "label": "______gap",
        "offset": 0,
        "slot": "6",
        "type": "t_array(t_uint256)49_storage"
      },
      {
        "astId": 1373,
        "contract": "contracts/ronin/gateway/RoninGatewayV2.sol:RoninGatewayV2",
        "label": "_initialized",
        "offset": 0,
        "slot": "55",
        "type": "t_uint8"
      },
      {
        "astId": 1376,
        "contract": "contracts/ronin/gateway/RoninGatewayV2.sol:RoninGatewayV2",
        "label": "_initializing",
        "offset": 1,
        "slot": "55",
        "type": "t_bool"
      },
      {
        "astId": 4914,
        "contract": "contracts/ronin/gateway/RoninGatewayV2.sol:RoninGatewayV2",
        "label": "minimumThreshold",
        "offset": 0,
        "slot": "56",
        "type": "t_mapping(t_address,t_uint256)"
      },
      {
        "astId": 4919,
        "contract": "contracts/ronin/gateway/RoninGatewayV2.sol:RoninGatewayV2",
        "label": "______gap",
        "offset": 0,
        "slot": "57",
        "type": "t_array(t_uint256)50_storage"
      },
      {
        "astId": 24,
        "contract": "contracts/ronin/gateway/RoninGatewayV2.sol:RoninGatewayV2",
        "label": "_roles",
        "offset": 0,
        "slot": "107",
        "type": "t_mapping(t_bytes32,t_struct(RoleData)19_storage)"
      },
      {
        "astId": 338,
        "contract": "contracts/ronin/gateway/RoninGatewayV2.sol:RoninGatewayV2",
        "label": "_roleMembers",
        "offset": 0,
        "slot": "108",
        "type": "t_mapping(t_bytes32,t_struct(AddressSet)4026_storage)"
      },
      {
        "astId": 24021,
        "contract": "contracts/ronin/gateway/RoninGatewayV2.sol:RoninGatewayV2",
        "label": "withdrawalMigrated",
        "offset": 0,
        "slot": "109",
        "type": "t_bool"
      },
      {
        "astId": 24024,
        "contract": "contracts/ronin/gateway/RoninGatewayV2.sol:RoninGatewayV2",
        "label": "withdrawalCount",
        "offset": 0,
        "slot": "110",
        "type": "t_uint256"
      },
      {
        "astId": 24032,
        "contract": "contracts/ronin/gateway/RoninGatewayV2.sol:RoninGatewayV2",
        "label": "depositVote",
        "offset": 0,
        "slot": "111",
        "type": "t_mapping(t_uint256,t_mapping(t_uint256,t_struct(Vote)12979_storage))"
      },
      {
        "astId": 24038,
        "contract": "contracts/ronin/gateway/RoninGatewayV2.sol:RoninGatewayV2",
        "label": "mainchainWithdrewVote",
        "offset": 0,
        "slot": "112",
        "type": "t_mapping(t_uint256,t_struct(Vote)12979_storage)"
      },
      {
        "astId": 24044,
        "contract": "contracts/ronin/gateway/RoninGatewayV2.sol:RoninGatewayV2",
        "label": "withdrawal",
        "offset": 0,
        "slot": "113",
        "type": "t_mapping(t_uint256,t_struct(Receipt)14425_storage)"
      },
      {
        "astId": 24051,
        "contract": "contracts/ronin/gateway/RoninGatewayV2.sol:RoninGatewayV2",
        "label": "_withdrawalSig",
        "offset": 0,
        "slot": "114",
        "type": "t_mapping(t_uint256,t_mapping(t_address,t_bytes_storage))"
      },
      {
        "astId": 24059,
        "contract": "contracts/ronin/gateway/RoninGatewayV2.sol:RoninGatewayV2",
        "label": "_mainchainToken",
        "offset": 0,
        "slot": "115",
        "type": "t_mapping(t_address,t_mapping(t_uint256,t_struct(MappedToken)10544_storage))"
      },
      {
        "astId": 24063,
        "contract": "contracts/ronin/gateway/RoninGatewayV2.sol:RoninGatewayV2",
        "label": "_validatorContract",
        "offset": 0,
        "slot": "116",
        "type": "t_contract(IRoninValidatorSet)11967"
      },
      {
        "astId": 24067,
        "contract": "contracts/ronin/gateway/RoninGatewayV2.sol:RoninGatewayV2",
        "label": "_bridgeTrackingContract",
        "offset": 0,
        "slot": "117",
        "type": "t_contract(IBridgeTracking)9283"
      },
      {
        "astId": 24073,
        "contract": "contracts/ronin/gateway/RoninGatewayV2.sol:RoninGatewayV2",
        "label": "withdrawalStatVote",
        "offset": 0,
        "slot": "118",
        "type": "t_mapping(t_uint256,t_struct(Vote)12979_storage)"
      },
      {
        "astId": 24077,
        "contract": "contracts/ronin/gateway/RoninGatewayV2.sol:RoninGatewayV2",
        "label": "_trustedOrgContract",
        "offset": 0,
        "slot": "119",
        "type": "t_contract(IRoninTrustedOrganization)10182"
      },
      {
        "astId": 24079,
        "contract": "contracts/ronin/gateway/RoninGatewayV2.sol:RoninGatewayV2",
        "label": "_trustedNum",
        "offset": 0,
        "slot": "120",
        "type": "t_uint256"
      },
      {
        "astId": 24081,
        "contract": "contracts/ronin/gateway/RoninGatewayV2.sol:RoninGatewayV2",
        "label": "_trustedDenom",
        "offset": 0,
        "slot": "121",
        "type": "t_uint256"
      }
    ],
    "types": {
      "t_address": {
        "encoding": "inplace",
        "label": "address",
        "numberOfBytes": "20"
      },
      "t_array(t_address)dyn_storage": {
        "base": "t_address",
        "encoding": "dynamic_array",
        "label": "address[]",
        "numberOfBytes": "32"
      },
      "t_array(t_bytes32)dyn_storage": {
        "base": "t_bytes32",
        "encoding": "dynamic_array",
        "label": "bytes32[]",
        "numberOfBytes": "32"
      },
      "t_array(t_uint256)49_storage": {
        "base": "t_uint256",
        "encoding": "inplace",
        "label": "uint256[49]",
        "numberOfBytes": "1568"
      },
      "t_array(t_uint256)50_storage": {
        "base": "t_uint256",
        "encoding": "inplace",
        "label": "uint256[50]",
        "numberOfBytes": "1600"
      },
      "t_bool": {
        "encoding": "inplace",
        "label": "bool",
        "numberOfBytes": "1"
      },
      "t_bytes32": {
        "encoding": "inplace",
        "label": "bytes32",
        "numberOfBytes": "32"
      },
      "t_bytes_storage": {
        "encoding": "bytes",
        "label": "bytes",
        "numberOfBytes": "32"
      },
      "t_contract(IBridgeTracking)9283": {
        "encoding": "inplace",
        "label": "contract IBridgeTracking",
        "numberOfBytes": "20"
      },
      "t_contract(IRoninTrustedOrganization)10182": {
        "encoding": "inplace",
        "label": "contract IRoninTrustedOrganization",
        "numberOfBytes": "20"
      },
      "t_contract(IRoninValidatorSet)11967": {
        "encoding": "inplace",
        "label": "contract IRoninValidatorSet",
        "numberOfBytes": "20"
      },
      "t_enum(Kind)14222": {
        "encoding": "inplace",
        "label": "enum Transfer.Kind",
        "numberOfBytes": "1"
      },
      "t_enum(Standard)13614": {
        "encoding": "inplace",
        "label": "enum Token.Standard",
        "numberOfBytes": "1"
      },
      "t_enum(VoteStatus)10571": {
        "encoding": "inplace",
        "label": "enum VoteStatusConsumer.VoteStatus",
        "numberOfBytes": "1"
      },
      "t_mapping(t_address,t_bool)": {
        "encoding": "mapping",
        "key": "t_address",
        "label": "mapping(address => bool)",
        "numberOfBytes": "32",
        "value": "t_bool"
      },
      "t_mapping(t_address,t_bytes32)": {
        "encoding": "mapping",
        "key": "t_address",
        "label": "mapping(address => bytes32)",
        "numberOfBytes": "32",
        "value": "t_bytes32"
      },
      "t_mapping(t_address,t_bytes_storage)": {
        "encoding": "mapping",
        "key": "t_address",
        "label": "mapping(address => bytes)",
        "numberOfBytes": "32",
        "value": "t_bytes_storage"
      },
      "t_mapping(t_address,t_mapping(t_uint256,t_struct(MappedToken)10544_storage))": {
        "encoding": "mapping",
        "key": "t_address",
        "label": "mapping(address => mapping(uint256 => struct MappedTokenConsumer.MappedToken))",
        "numberOfBytes": "32",
        "value": "t_mapping(t_uint256,t_struct(MappedToken)10544_storage)"
      },
      "t_mapping(t_address,t_uint256)": {
        "encoding": "mapping",
        "key": "t_address",
        "label": "mapping(address => uint256)",
        "numberOfBytes": "32",
        "value": "t_uint256"
      },
      "t_mapping(t_bytes32,t_struct(AddressSet)4026_storage)": {
        "encoding": "mapping",
        "key": "t_bytes32",
        "label": "mapping(bytes32 => struct EnumerableSet.AddressSet)",
        "numberOfBytes": "32",
        "value": "t_struct(AddressSet)4026_storage"
      },
      "t_mapping(t_bytes32,t_struct(RoleData)19_storage)": {
        "encoding": "mapping",
        "key": "t_bytes32",
        "label": "mapping(bytes32 => struct AccessControl.RoleData)",
        "numberOfBytes": "32",
        "value": "t_struct(RoleData)19_storage"
      },
      "t_mapping(t_bytes32,t_uint256)": {
        "encoding": "mapping",
        "key": "t_bytes32",
        "label": "mapping(bytes32 => uint256)",
        "numberOfBytes": "32",
        "value": "t_uint256"
      },
      "t_mapping(t_uint256,t_mapping(t_address,t_bytes_storage))": {
        "encoding": "mapping",
        "key": "t_uint256",
        "label": "mapping(uint256 => mapping(address => bytes))",
        "numberOfBytes": "32",
        "value": "t_mapping(t_address,t_bytes_storage)"
      },
      "t_mapping(t_uint256,t_mapping(t_uint256,t_struct(Vote)12979_storage))": {
        "encoding": "mapping",
        "key": "t_uint256",
        "label": "mapping(uint256 => mapping(uint256 => struct IsolatedGovernance.Vote))",
        "numberOfBytes": "32",
        "value": "t_mapping(t_uint256,t_struct(Vote)12979_storage)"
      },
      "t_mapping(t_uint256,t_struct(MappedToken)10544_storage)": {
        "encoding": "mapping",
        "key": "t_uint256",
        "label": "mapping(uint256 => struct MappedTokenConsumer.MappedToken)",
        "numberOfBytes": "32",
        "value": "t_struct(MappedToken)10544_storage"
      },
      "t_mapping(t_uint256,t_struct(Receipt)14425_storage)": {
        "encoding": "mapping",
        "key": "t_uint256",
        "label": "mapping(uint256 => struct Transfer.Receipt)",
        "numberOfBytes": "32",
        "value": "t_struct(Receipt)14425_storage"
      },
      "t_mapping(t_uint256,t_struct(Vote)12979_storage)": {
        "encoding": "mapping",
        "key": "t_uint256",
        "label": "mapping(uint256 => struct IsolatedGovernance.Vote)",
        "numberOfBytes": "32",
        "value": "t_struct(Vote)12979_storage"
      },
      "t_struct(AddressSet)4026_storage": {
        "encoding": "inplace",
        "label": "struct EnumerableSet.AddressSet",
        "members": [
          {
            "astId": 4025,
            "contract": "contracts/ronin/gateway/RoninGatewayV2.sol:RoninGatewayV2",
            "label": "_inner",
            "offset": 0,
            "slot": "0",
            "type": "t_struct(Set)3725_storage"
          }
        ],
        "numberOfBytes": "64"
      },
      "t_struct(Info)13622_storage": {
        "encoding": "inplace",
        "label": "struct Token.Info",
        "members": [
          {
            "astId": 13617,
            "contract": "contracts/ronin/gateway/RoninGatewayV2.sol:RoninGatewayV2",
            "label": "erc",
            "offset": 0,
            "slot": "0",
            "type": "t_enum(Standard)13614"
          },
          {
            "astId": 13619,
            "contract": "contracts/ronin/gateway/RoninGatewayV2.sol:RoninGatewayV2",
            "label": "id",
            "offset": 0,
            "slot": "1",
            "type": "t_uint256"
          },
          {
            "astId": 13621,
            "contract": "contracts/ronin/gateway/RoninGatewayV2.sol:RoninGatewayV2",
            "label": "quantity",
            "offset": 0,
            "slot": "2",
            "type": "t_uint256"
          }
        ],
        "numberOfBytes": "96"
      },
      "t_struct(MappedToken)10544_storage": {
        "encoding": "inplace",
        "label": "struct MappedTokenConsumer.MappedToken",
        "members": [
          {
            "astId": 10541,
            "contract": "contracts/ronin/gateway/RoninGatewayV2.sol:RoninGatewayV2",
            "label": "erc",
            "offset": 0,
            "slot": "0",
            "type": "t_enum(Standard)13614"
          },
          {
            "astId": 10543,
            "contract": "contracts/ronin/gateway/RoninGatewayV2.sol:RoninGatewayV2",
            "label": "tokenAddr",
            "offset": 1,
            "slot": "0",
            "type": "t_address"
          }
        ],
        "numberOfBytes": "32"
      },
      "t_struct(Owner)14183_storage": {
        "encoding": "inplace",
        "label": "struct Token.Owner",
        "members": [
          {
            "astId": 14178,
            "contract": "contracts/ronin/gateway/RoninGatewayV2.sol:RoninGatewayV2",
            "label": "addr",
            "offset": 0,
            "slot": "0",
            "type": "t_address"
          },
          {
            "astId": 14180,
            "contract": "contracts/ronin/gateway/RoninGatewayV2.sol:RoninGatewayV2",
            "label": "tokenAddr",
            "offset": 0,
            "slot": "1",
            "type": "t_address"
          },
          {
            "astId": 14182,
            "contract": "contracts/ronin/gateway/RoninGatewayV2.sol:RoninGatewayV2",
            "label": "chainId",
            "offset": 0,
            "slot": "2",
            "type": "t_uint256"
          }
        ],
        "numberOfBytes": "96"
      },
      "t_struct(Receipt)14425_storage": {
        "encoding": "inplace",
        "label": "struct Transfer.Receipt",
        "members": [
          {
            "astId": 14412,
            "contract": "contracts/ronin/gateway/RoninGatewayV2.sol:RoninGatewayV2",
            "label": "id",
            "offset": 0,
            "slot": "0",
            "type": "t_uint256"
          },
          {
            "astId": 14415,
            "contract": "contracts/ronin/gateway/RoninGatewayV2.sol:RoninGatewayV2",
            "label": "kind",
            "offset": 0,
            "slot": "1",
            "type": "t_enum(Kind)14222"
          },
          {
            "astId": 14418,
            "contract": "contracts/ronin/gateway/RoninGatewayV2.sol:RoninGatewayV2",
            "label": "mainchain",
            "offset": 0,
            "slot": "2",
            "type": "t_struct(Owner)14183_storage"
          },
          {
            "astId": 14421,
            "contract": "contracts/ronin/gateway/RoninGatewayV2.sol:RoninGatewayV2",
            "label": "ronin",
            "offset": 0,
            "slot": "5",
            "type": "t_struct(Owner)14183_storage"
          },
          {
            "astId": 14424,
            "contract": "contracts/ronin/gateway/RoninGatewayV2.sol:RoninGatewayV2",
            "label": "info",
            "offset": 0,
            "slot": "8",
            "type": "t_struct(Info)13622_storage"
          }
        ],
        "numberOfBytes": "352"
      },
      "t_struct(RoleData)19_storage": {
        "encoding": "inplace",
        "label": "struct AccessControl.RoleData",
        "members": [
          {
            "astId": 16,
            "contract": "contracts/ronin/gateway/RoninGatewayV2.sol:RoninGatewayV2",
            "label": "members",
            "offset": 0,
            "slot": "0",
            "type": "t_mapping(t_address,t_bool)"
          },
          {
            "astId": 18,
            "contract": "contracts/ronin/gateway/RoninGatewayV2.sol:RoninGatewayV2",
            "label": "adminRole",
            "offset": 0,
            "slot": "1",
            "type": "t_bytes32"
          }
        ],
        "numberOfBytes": "64"
      },
      "t_struct(Set)3725_storage": {
        "encoding": "inplace",
        "label": "struct EnumerableSet.Set",
        "members": [
          {
            "astId": 3720,
            "contract": "contracts/ronin/gateway/RoninGatewayV2.sol:RoninGatewayV2",
            "label": "_values",
            "offset": 0,
            "slot": "0",
            "type": "t_array(t_bytes32)dyn_storage"
          },
          {
            "astId": 3724,
            "contract": "contracts/ronin/gateway/RoninGatewayV2.sol:RoninGatewayV2",
            "label": "_indexes",
            "offset": 0,
            "slot": "1",
            "type": "t_mapping(t_bytes32,t_uint256)"
          }
        ],
        "numberOfBytes": "64"
      },
      "t_struct(Vote)12979_storage": {
        "encoding": "inplace",
        "label": "struct IsolatedGovernance.Vote",
        "members": [
          {
            "astId": 12961,
            "contract": "contracts/ronin/gateway/RoninGatewayV2.sol:RoninGatewayV2",
            "label": "status",
            "offset": 0,
            "slot": "0",
            "type": "t_enum(VoteStatus)10571"
          },
          {
            "astId": 12963,
            "contract": "contracts/ronin/gateway/RoninGatewayV2.sol:RoninGatewayV2",
            "label": "finalHash",
            "offset": 0,
            "slot": "1",
            "type": "t_bytes32"
          },
          {
            "astId": 12968,
            "contract": "contracts/ronin/gateway/RoninGatewayV2.sol:RoninGatewayV2",
            "label": "voteHashOf",
            "offset": 0,
            "slot": "2",
            "type": "t_mapping(t_address,t_bytes32)"
          },
          {
            "astId": 12971,
            "contract": "contracts/ronin/gateway/RoninGatewayV2.sol:RoninGatewayV2",
            "label": "expiredAt",
            "offset": 0,
            "slot": "3",
            "type": "t_uint256"
          },
          {
            "astId": 12974,
            "contract": "contracts/ronin/gateway/RoninGatewayV2.sol:RoninGatewayV2",
            "label": "createdAt",
            "offset": 0,
            "slot": "4",
            "type": "t_uint256"
          },
          {
            "astId": 12978,
            "contract": "contracts/ronin/gateway/RoninGatewayV2.sol:RoninGatewayV2",
            "label": "voters",
            "offset": 0,
            "slot": "5",
            "type": "t_array(t_address)dyn_storage"
          }
        ],
        "numberOfBytes": "192"
      },
      "t_uint256": {
        "encoding": "inplace",
        "label": "uint256",
        "numberOfBytes": "32"
      },
      "t_uint8": {
        "encoding": "inplace",
        "label": "uint8",
        "numberOfBytes": "1"
      }
    }
  }
}