{
  "address": "0x42Ee6A9aeC14Ca09f9d4F3eC44cd88f76b9b11F1",
  "abi": [
    {
      "inputs": [],
      "stateMutability": "nonpayable",
      "type": "constructor"
    },
    {
      "inputs": [],
      "name": "ErrAlreadyRequestedEmergencyExit",
      "type": "error"
    },
    {
      "inputs": [],
      "name": "ErrAlreadyRequestedRevokingCandidate",
      "type": "error"
    },
    {
      "inputs": [],
      "name": "ErrAlreadyRequestedUpdatingCommissionRate",
      "type": "error"
    },
    {
      "inputs": [],
      "name": "ErrAlreadyWrappedEpoch",
      "type": "error"
    },
    {
      "inputs": [],
      "name": "ErrAtEndOfEpochOnly",
      "type": "error"
    },
    {
      "inputs": [],
      "name": "ErrCallPrecompiled",
      "type": "error"
    },
    {
      "inputs": [],
      "name": "ErrCallerMustBeBridgeTrackingContract",
      "type": "error"
    },
    {
      "inputs": [],
      "name": "ErrCallerMustBeCoinbase",
      "type": "error"
    },
    {
      "inputs": [],
      "name": "ErrCallerMustBeMaintenanceContract",
      "type": "error"
    },
    {
      "inputs": [],
      "name": "ErrCallerMustBeRoninTrustedOrgContract",
      "type": "error"
    },
    {
      "inputs": [],
      "name": "ErrCallerMustBeSlashIndicatorContract",
      "type": "error"
    },
    {
      "inputs": [],
      "name": "ErrCallerMustBeStakingContract",
      "type": "error"
    },
    {
      "inputs": [],
      "name": "ErrCallerMustBeStakingVestingContract",
      "type": "error"
    },
    {
      "inputs": [
        {
          "internalType": "address",
          "name": "validator",
          "type": "address"
        }
      ],
      "name": "ErrCannotBailout",
      "type": "error"
    },
    {
      "inputs": [],
      "name": "ErrExceedsMaxNumberOfCandidate",
      "type": "error"
    },
    {
      "inputs": [
        {
          "internalType": "address",
          "name": "_bridgeOperatorAddr",
          "type": "address"
        }
      ],
      "name": "ErrExistentBridgeOperator",
      "type": "error"
    },
    {
      "inputs": [],
      "name": "ErrExistentCandidate",
      "type": "error"
    },
    {
      "inputs": [
        {
          "internalType": "address",
          "name": "_candidateAdminAddr",
          "type": "address"
        }
      ],
      "name": "ErrExistentCandidateAdmin",
      "type": "error"
    },
    {
      "inputs": [
        {
          "internalType": "address",
          "name": "_treasuryAddr",
          "type": "address"
        }
      ],
      "name": "ErrExistentTreasury",
      "type": "error"
    },
    {
      "inputs": [],
      "name": "ErrInsufficientBalance",
      "type": "error"
    },
    {
      "inputs": [],
      "name": "ErrInvalidCommissionRate",
      "type": "error"
    },
    {
      "inputs": [],
      "name": "ErrInvalidEffectiveDaysOnwards",
      "type": "error"
    },
    {
      "inputs": [],
      "name": "ErrInvalidMaxPrioritizedValidatorNumber",
      "type": "error"
    },
    {
      "inputs": [],
      "name": "ErrInvalidMinEffectiveDaysOnwards",
      "type": "error"
    },
    {
      "inputs": [],
      "name": "ErrNonExistentCandidate",
      "type": "error"
    },
    {
      "inputs": [],
      "name": "ErrRecipientRevert",
      "type": "error"
    },
    {
      "inputs": [],
      "name": "ErrTrustedOrgCannotRenounce",
      "type": "error"
    },
    {
      "inputs": [],
      "name": "ErrUnauthorizedReceiveRON",
      "type": "error"
    },
    {
      "inputs": [],
      "name": "ErrZeroCodeContract",
      "type": "error"
    },
    {
      "inputs": [],
      "name": "NonExistentRecyclingInfo",
      "type": "error"
    },
    {
      "anonymous": false,
      "inputs": [
        {
          "indexed": true,
          "internalType": "uint256",
          "name": "period",
          "type": "uint256"
        },
        {
          "indexed": true,
          "internalType": "uint256",
          "name": "epoch",
          "type": "uint256"
        },
        {
          "indexed": false,
          "internalType": "address[]",
          "name": "consensusAddrs",
          "type": "address[]"
        }
      ],
      "name": "BlockProducerSetUpdated",
      "type": "event"
    },
    {
      "anonymous": false,
      "inputs": [
        {
          "indexed": true,
          "internalType": "address",
          "name": "coinbaseAddr",
          "type": "address"
        },
        {
          "indexed": false,
          "internalType": "uint256",
          "name": "rewardAmount",
          "type": "uint256"
        },
        {
          "indexed": false,
          "internalType": "enum ICoinbaseExecution.BlockRewardDeprecatedType",
          "name": "deprecatedType",
          "type": "uint8"
        }
      ],
      "name": "BlockRewardDeprecated",
      "type": "event"
    },
    {
      "anonymous": false,
      "inputs": [
        {
          "indexed": true,
          "internalType": "address",
          "name": "coinbaseAddr",
          "type": "address"
        },
        {
          "indexed": false,
          "internalType": "uint256",
          "name": "submittedAmount",
          "type": "uint256"
        },
        {
          "indexed": false,
          "internalType": "uint256",
          "name": "bonusAmount",
          "type": "uint256"
        }
      ],
      "name": "BlockRewardSubmitted",
      "type": "event"
    },
    {
      "anonymous": false,
      "inputs": [
        {
          "indexed": true,
          "internalType": "address",
          "name": "consensusAddr",
          "type": "address"
        },
        {
          "indexed": true,
          "internalType": "address",
          "name": "bridgeOperator",
          "type": "address"
        },
        {
          "indexed": true,
          "internalType": "address",
          "name": "recipientAddr",
          "type": "address"
        },
        {
          "indexed": false,
          "internalType": "uint256",
          "name": "amount",
          "type": "uint256"
        }
      ],
      "name": "BridgeOperatorRewardDistributed",
      "type": "event"
    },
    {
      "anonymous": false,
      "inputs": [
        {
          "indexed": true,
          "internalType": "address",
          "name": "consensusAddr",
          "type": "address"
        },
        {
          "indexed": true,
          "internalType": "address",
          "name": "bridgeOperator",
          "type": "address"
        },
        {
          "indexed": true,
          "internalType": "address",
          "name": "recipient",
          "type": "address"
        },
        {
          "indexed": false,
          "internalType": "uint256",
          "name": "amount",
          "type": "uint256"
        },
        {
          "indexed": false,
          "internalType": "uint256",
          "name": "contractBalance",
          "type": "uint256"
        }
      ],
      "name": "BridgeOperatorRewardDistributionFailed",
      "type": "event"
    },
    {
      "anonymous": false,
      "inputs": [
        {
          "indexed": true,
          "internalType": "uint256",
          "name": "period",
          "type": "uint256"
        },
        {
          "indexed": true,
          "internalType": "uint256",
          "name": "epoch",
          "type": "uint256"
        },
        {
          "indexed": false,
          "internalType": "address[]",
          "name": "bridgeOperators",
          "type": "address[]"
        }
      ],
      "name": "BridgeOperatorSetUpdated",
      "type": "event"
    },
    {
      "anonymous": false,
      "inputs": [
        {
          "indexed": false,
          "internalType": "address",
          "name": "",
          "type": "address"
        }
      ],
      "name": "BridgeTrackingContractUpdated",
      "type": "event"
    },
    {
      "anonymous": false,
      "inputs": [],
      "name": "BridgeTrackingIncorrectlyResponded",
      "type": "event"
    },
    {
      "anonymous": false,
      "inputs": [
        {
          "indexed": true,
          "internalType": "address",
          "name": "consensusAddr",
          "type": "address"
        },
        {
          "indexed": true,
          "internalType": "address",
          "name": "treasuryAddr",
          "type": "address"
        },
        {
          "indexed": true,
          "internalType": "address",
          "name": "admin",
          "type": "address"
        },
        {
          "indexed": false,
          "internalType": "address",
          "name": "bridgeOperator",
          "type": "address"
        }
      ],
      "name": "CandidateGranted",
      "type": "event"
    },
    {
      "anonymous": false,
      "inputs": [
        {
          "indexed": true,
          "internalType": "address",
          "name": "consensusAddr",
          "type": "address"
        },
        {
          "indexed": false,
          "internalType": "uint256",
          "name": "revokingTimestamp",
          "type": "uint256"
        }
      ],
      "name": "CandidateRevokingTimestampUpdated",
      "type": "event"
    },
    {
      "anonymous": false,
      "inputs": [
        {
          "indexed": true,
          "internalType": "address",
          "name": "consensusAddr",
          "type": "address"
        },
        {
          "indexed": false,
          "internalType": "uint256",
          "name": "topupDeadline",
          "type": "uint256"
        }
      ],
      "name": "CandidateTopupDeadlineUpdated",
      "type": "event"
    },
    {
      "anonymous": false,
      "inputs": [
        {
          "indexed": false,
          "internalType": "address[]",
          "name": "consensusAddrs",
          "type": "address[]"
        }
      ],
      "name": "CandidatesRevoked",
      "type": "event"
    },
    {
      "anonymous": false,
      "inputs": [
        {
          "indexed": true,
          "internalType": "address",
          "name": "consensusAddr",
          "type": "address"
        },
        {
          "indexed": false,
          "internalType": "uint256",
          "name": "effectiveTimestamp",
          "type": "uint256"
        },
        {
          "indexed": false,
          "internalType": "uint256",
          "name": "rate",
          "type": "uint256"
        }
      ],
      "name": "CommissionRateUpdateScheduled",
      "type": "event"
    },
    {
      "anonymous": false,
      "inputs": [
        {
          "indexed": true,
          "internalType": "address",
          "name": "consensusAddr",
          "type": "address"
        },
        {
          "indexed": false,
          "internalType": "uint256",
          "name": "rate",
          "type": "uint256"
        }
      ],
      "name": "CommissionRateUpdated",
      "type": "event"
    },
    {
      "anonymous": false,
      "inputs": [
        {
          "indexed": true,
          "internalType": "address",
          "name": "recipientAddr",
          "type": "address"
        },
        {
          "indexed": false,
          "internalType": "uint256",
          "name": "amount",
          "type": "uint256"
        },
        {
          "indexed": false,
          "internalType": "uint256",
          "name": "balance",
          "type": "uint256"
        }
      ],
      "name": "DeprecatedRewardRecycleFailed",
      "type": "event"
    },
    {
      "anonymous": false,
      "inputs": [
        {
          "indexed": true,
          "internalType": "address",
          "name": "recipientAddr",
          "type": "address"
        },
        {
          "indexed": false,
          "internalType": "uint256",
          "name": "amount",
          "type": "uint256"
        }
      ],
      "name": "DeprecatedRewardRecycled",
      "type": "event"
    },
    {
      "anonymous": false,
      "inputs": [
        {
          "indexed": false,
          "internalType": "uint256",
          "name": "amount",
          "type": "uint256"
        }
      ],
      "name": "EmergencyExitLockedAmountUpdated",
      "type": "event"
    },
    {
      "anonymous": false,
      "inputs": [
        {
          "indexed": true,
          "internalType": "address",
          "name": "consensusAddr",
          "type": "address"
        },
        {
          "indexed": true,
          "internalType": "address",
          "name": "recipient",
          "type": "address"
        },
        {
          "indexed": false,
          "internalType": "uint256",
          "name": "unlockedAmount",
          "type": "uint256"
        }
      ],
      "name": "EmergencyExitLockedFundReleased",
      "type": "event"
    },
    {
      "anonymous": false,
      "inputs": [
        {
          "indexed": true,
          "internalType": "address",
          "name": "consensusAddr",
          "type": "address"
        },
        {
          "indexed": true,
          "internalType": "address",
          "name": "recipient",
          "type": "address"
        },
        {
          "indexed": false,
          "internalType": "uint256",
          "name": "unlockedAmount",
          "type": "uint256"
        },
        {
          "indexed": false,
          "internalType": "uint256",
          "name": "contractBalance",
          "type": "uint256"
        }
      ],
      "name": "EmergencyExitLockedFundReleasingFailed",
      "type": "event"
    },
    {
      "anonymous": false,
      "inputs": [
        {
          "indexed": true,
          "internalType": "address",
          "name": "consensusAddr",
          "type": "address"
        },
        {
          "indexed": false,
          "internalType": "uint256",
          "name": "lockedAmount",
          "type": "uint256"
        }
      ],
      "name": "EmergencyExitRequested",
      "type": "event"
    },
    {
      "anonymous": false,
      "inputs": [
        {
          "indexed": false,
          "internalType": "uint256",
          "name": "amount",
          "type": "uint256"
        }
      ],
      "name": "EmergencyExpiryDurationUpdated",
      "type": "event"
    },
    {
      "anonymous": false,
      "inputs": [
        {
          "indexed": false,
          "internalType": "uint8",
          "name": "version",
          "type": "uint8"
        }
      ],
      "name": "Initialized",
      "type": "event"
    },
    {
      "anonymous": false,
      "inputs": [
        {
          "indexed": false,
          "internalType": "address",
          "name": "",
          "type": "address"
        }
      ],
      "name": "MaintenanceContractUpdated",
      "type": "event"
    },
    {
      "anonymous": false,
      "inputs": [
        {
          "indexed": false,
          "internalType": "uint256",
          "name": "",
          "type": "uint256"
        }
      ],
      "name": "MaxPrioritizedValidatorNumberUpdated",
      "type": "event"
    },
    {
      "anonymous": false,
      "inputs": [
        {
          "indexed": false,
          "internalType": "uint256",
          "name": "threshold",
          "type": "uint256"
        }
      ],
      "name": "MaxValidatorCandidateUpdated",
      "type": "event"
    },
    {
      "anonymous": false,
      "inputs": [
        {
          "indexed": false,
          "internalType": "uint256",
          "name": "",
          "type": "uint256"
        }
      ],
      "name": "MaxValidatorNumberUpdated",
      "type": "event"
    },
    {
      "anonymous": false,
      "inputs": [
        {
          "indexed": false,
          "internalType": "uint256",
          "name": "numOfDays",
          "type": "uint256"
        }
      ],
      "name": "MinEffectiveDaysOnwardsUpdated",
      "type": "event"
    },
    {
      "anonymous": false,
      "inputs": [
        {
          "indexed": true,
          "internalType": "address",
          "name": "consensusAddr",
          "type": "address"
        },
        {
          "indexed": true,
          "internalType": "address",
          "name": "recipient",
          "type": "address"
        },
        {
          "indexed": false,
          "internalType": "uint256",
          "name": "amount",
          "type": "uint256"
        }
      ],
      "name": "MiningRewardDistributed",
      "type": "event"
    },
    {
      "anonymous": false,
      "inputs": [
        {
          "indexed": true,
          "internalType": "address",
          "name": "consensusAddr",
          "type": "address"
        },
        {
          "indexed": true,
          "internalType": "address",
          "name": "recipient",
          "type": "address"
        },
        {
          "indexed": false,
          "internalType": "uint256",
          "name": "amount",
          "type": "uint256"
        },
        {
          "indexed": false,
          "internalType": "uint256",
          "name": "contractBalance",
          "type": "uint256"
        }
      ],
      "name": "MiningRewardDistributionFailed",
      "type": "event"
    },
    {
      "anonymous": false,
      "inputs": [
        {
          "indexed": false,
          "internalType": "address",
          "name": "",
          "type": "address"
        }
      ],
      "name": "RoninTrustedOrganizationContractUpdated",
      "type": "event"
    },
    {
      "anonymous": false,
      "inputs": [
        {
          "indexed": false,
          "internalType": "address",
          "name": "",
          "type": "address"
        }
      ],
      "name": "SlashIndicatorContractUpdated",
      "type": "event"
    },
    {
      "anonymous": false,
      "inputs": [
        {
          "indexed": false,
          "internalType": "address",
          "name": "",
          "type": "address"
        }
      ],
      "name": "StakingContractUpdated",
      "type": "event"
    },
    {
      "anonymous": false,
      "inputs": [
        {
          "indexed": false,
          "internalType": "uint256",
          "name": "totalAmount",
          "type": "uint256"
        },
        {
          "indexed": false,
          "internalType": "address[]",
          "name": "consensusAddrs",
          "type": "address[]"
        },
        {
          "indexed": false,
          "internalType": "uint256[]",
          "name": "amounts",
          "type": "uint256[]"
        }
      ],
      "name": "StakingRewardDistributed",
      "type": "event"
    },
    {
      "anonymous": false,
      "inputs": [
        {
          "indexed": false,
          "internalType": "uint256",
          "name": "totalAmount",
          "type": "uint256"
        },
        {
          "indexed": false,
          "internalType": "address[]",
          "name": "consensusAddrs",
          "type": "address[]"
        },
        {
          "indexed": false,
          "internalType": "uint256[]",
          "name": "amounts",
          "type": "uint256[]"
        },
        {
          "indexed": false,
          "internalType": "uint256",
          "name": "contractBalance",
          "type": "uint256"
        }
      ],
      "name": "StakingRewardDistributionFailed",
      "type": "event"
    },
    {
      "anonymous": false,
      "inputs": [
        {
          "indexed": false,
          "internalType": "address",
          "name": "",
          "type": "address"
        }
      ],
      "name": "StakingVestingContractUpdated",
      "type": "event"
    },
    {
      "anonymous": false,
      "inputs": [
        {
          "indexed": true,
          "internalType": "address",
          "name": "consensusAddr",
          "type": "address"
        },
        {
          "indexed": true,
          "internalType": "uint256",
          "name": "period",
          "type": "uint256"
        },
        {
          "indexed": false,
          "internalType": "uint256",
          "name": "jailedUntil",
          "type": "uint256"
        },
        {
          "indexed": false,
          "internalType": "uint256",
          "name": "deductedStakingAmount",
          "type": "uint256"
        },
        {
          "indexed": false,
          "internalType": "bool",
          "name": "blockProducerRewardDeprecated",
          "type": "bool"
        },
        {
          "indexed": false,
          "internalType": "bool",
          "name": "bridgeOperatorRewardDeprecated",
          "type": "bool"
        }
      ],
      "name": "ValidatorPunished",
      "type": "event"
    },
    {
      "anonymous": false,
      "inputs": [
        {
          "indexed": true,
          "internalType": "uint256",
          "name": "period",
          "type": "uint256"
        },
        {
          "indexed": false,
          "internalType": "address[]",
          "name": "consensusAddrs",
          "type": "address[]"
        }
      ],
      "name": "ValidatorSetUpdated",
      "type": "event"
    },
    {
      "anonymous": false,
      "inputs": [
        {
          "indexed": true,
          "internalType": "address",
          "name": "validator",
          "type": "address"
        },
        {
          "indexed": false,
          "internalType": "uint256",
          "name": "period",
          "type": "uint256"
        }
      ],
      "name": "ValidatorUnjailed",
      "type": "event"
    },
    {
      "anonymous": false,
      "inputs": [
        {
          "indexed": true,
          "internalType": "uint256",
          "name": "periodNumber",
          "type": "uint256"
        },
        {
          "indexed": true,
          "internalType": "uint256",
          "name": "epochNumber",
          "type": "uint256"
        },
        {
          "indexed": false,
          "internalType": "bool",
          "name": "periodEnding",
          "type": "bool"
        }
      ],
      "name": "WrappedUpEpoch",
      "type": "event"
    },
    {
      "stateMutability": "payable",
      "type": "fallback"
    },
    {
      "inputs": [],
      "name": "DEFAULT_ADDITION_GAS",
      "outputs": [
        {
          "internalType": "uint256",
          "name": "",
          "type": "uint256"
        }
      ],
      "stateMutability": "view",
      "type": "function"
    },
    {
      "inputs": [],
      "name": "PERIOD_DURATION",
      "outputs": [
        {
          "internalType": "uint256",
          "name": "",
          "type": "uint256"
        }
      ],
      "stateMutability": "view",
      "type": "function"
    },
    {
      "inputs": [],
      "name": "bridgeTrackingContract",
      "outputs": [
        {
          "internalType": "address",
          "name": "",
          "type": "address"
        }
      ],
      "stateMutability": "view",
      "type": "function"
    },
    {
      "inputs": [
        {
          "internalType": "address",
          "name": "_consensusAddr",
          "type": "address"
        }
      ],
      "name": "checkBridgeRewardDeprecatedAtLatestPeriod",
      "outputs": [
        {
          "internalType": "bool",
          "name": "_result",
          "type": "bool"
        }
      ],
      "stateMutability": "view",
      "type": "function"
    },
    {
      "inputs": [
        {
          "internalType": "address",
          "name": "_consensusAddr",
          "type": "address"
        },
        {
          "internalType": "uint256",
          "name": "_period",
          "type": "uint256"
        }
      ],
      "name": "checkBridgeRewardDeprecatedAtPeriod",
      "outputs": [
        {
          "internalType": "bool",
          "name": "_result",
          "type": "bool"
        }
      ],
      "stateMutability": "view",
      "type": "function"
    },
    {
      "inputs": [
        {
          "internalType": "address",
          "name": "_addr",
          "type": "address"
        }
      ],
      "name": "checkJailed",
      "outputs": [
        {
          "internalType": "bool",
          "name": "",
          "type": "bool"
        }
      ],
      "stateMutability": "view",
      "type": "function"
    },
    {
      "inputs": [
        {
          "internalType": "address",
          "name": "_addr",
          "type": "address"
        },
        {
          "internalType": "uint256",
          "name": "_blockNum",
          "type": "uint256"
        }
      ],
      "name": "checkJailedAtBlock",
      "outputs": [
        {
          "internalType": "bool",
          "name": "",
          "type": "bool"
        }
      ],
      "stateMutability": "view",
      "type": "function"
    },
    {
      "inputs": [
        {
          "internalType": "address[]",
          "name": "_addrList",
          "type": "address[]"
        }
      ],
      "name": "checkManyJailed",
      "outputs": [
        {
          "internalType": "bool[]",
          "name": "_result",
          "type": "bool[]"
        }
      ],
      "stateMutability": "view",
      "type": "function"
    },
    {
      "inputs": [
        {
          "internalType": "address",
          "name": "_blockProducer",
          "type": "address"
        }
      ],
      "name": "checkMiningRewardDeprecated",
      "outputs": [
        {
          "internalType": "bool",
          "name": "_result",
          "type": "bool"
        }
      ],
      "stateMutability": "view",
      "type": "function"
    },
    {
      "inputs": [
        {
          "internalType": "address",
          "name": "_blockProducer",
          "type": "address"
        },
        {
          "internalType": "uint256",
          "name": "_period",
          "type": "uint256"
        }
      ],
      "name": "checkMiningRewardDeprecatedAtPeriod",
      "outputs": [
        {
          "internalType": "bool",
          "name": "_result",
          "type": "bool"
        }
      ],
      "stateMutability": "view",
      "type": "function"
    },
    {
      "inputs": [],
      "name": "currentPeriod",
      "outputs": [
        {
          "internalType": "uint256",
          "name": "",
          "type": "uint256"
        }
      ],
      "stateMutability": "view",
      "type": "function"
    },
    {
      "inputs": [],
      "name": "currentPeriodStartAtBlock",
      "outputs": [
        {
          "internalType": "uint256",
          "name": "",
          "type": "uint256"
        }
      ],
      "stateMutability": "view",
      "type": "function"
    },
    {
      "inputs": [],
      "name": "emergencyExitLockedAmount",
      "outputs": [
        {
          "internalType": "uint256",
          "name": "",
          "type": "uint256"
        }
      ],
      "stateMutability": "view",
      "type": "function"
    },
    {
      "inputs": [],
      "name": "emergencyExpiryDuration",
      "outputs": [
        {
          "internalType": "uint256",
          "name": "",
          "type": "uint256"
        }
      ],
      "stateMutability": "view",
      "type": "function"
    },
    {
      "inputs": [
        {
          "internalType": "uint256",
          "name": "_block",
          "type": "uint256"
        }
      ],
      "name": "epochEndingAt",
      "outputs": [
        {
          "internalType": "bool",
          "name": "",
          "type": "bool"
        }
      ],
      "stateMutability": "view",
      "type": "function"
    },
    {
      "inputs": [
        {
          "internalType": "uint256",
          "name": "_block",
          "type": "uint256"
        }
      ],
      "name": "epochOf",
      "outputs": [
        {
          "internalType": "uint256",
          "name": "",
          "type": "uint256"
        }
      ],
      "stateMutability": "view",
      "type": "function"
    },
    {
      "inputs": [
        {
          "internalType": "address",
          "name": "_candidateAdmin",
          "type": "address"
        },
        {
          "internalType": "address",
          "name": "_consensusAddr",
          "type": "address"
        },
        {
          "internalType": "address payable",
          "name": "_treasuryAddr",
          "type": "address"
        },
        {
          "internalType": "address",
          "name": "_bridgeOperatorAddr",
          "type": "address"
        },
        {
          "internalType": "uint256",
          "name": "_commissionRate",
          "type": "uint256"
        }
      ],
      "name": "execApplyValidatorCandidate",
      "outputs": [],
      "stateMutability": "nonpayable",
      "type": "function"
    },
    {
      "inputs": [
        {
          "internalType": "address",
          "name": "_validatorAddr",
          "type": "address"
        },
        {
          "internalType": "uint256",
          "name": "_period",
          "type": "uint256"
        }
      ],
      "name": "execBailOut",
      "outputs": [],
      "stateMutability": "nonpayable",
      "type": "function"
    },
    {
      "inputs": [
        {
          "internalType": "address",
          "name": "_consensusAddr",
          "type": "address"
        },
        {
          "internalType": "uint256",
          "name": "_secLeftToRevoke",
          "type": "uint256"
        }
      ],
      "name": "execEmergencyExit",
      "outputs": [],
      "stateMutability": "nonpayable",
      "type": "function"
    },
    {
      "inputs": [
        {
          "internalType": "address",
          "name": "_consensusAddr",
          "type": "address"
        },
        {
          "internalType": "address payable",
          "name": "_recipient",
          "type": "address"
        }
      ],
      "name": "execReleaseLockedFundForEmergencyExitRequest",
      "outputs": [],
      "stateMutability": "nonpayable",
      "type": "function"
    },
    {
      "inputs": [
        {
          "internalType": "address",
          "name": "_consensusAddr",
          "type": "address"
        },
        {
          "internalType": "uint256",
          "name": "_secsLeft",
          "type": "uint256"
        }
      ],
      "name": "execRequestRenounceCandidate",
      "outputs": [],
      "stateMutability": "nonpayable",
      "type": "function"
    },
    {
      "inputs": [
        {
          "internalType": "address",
          "name": "_consensusAddr",
          "type": "address"
        },
        {
          "internalType": "uint256",
          "name": "_effectiveDaysOnwards",
          "type": "uint256"
        },
        {
          "internalType": "uint256",
          "name": "_commissionRate",
          "type": "uint256"
        }
      ],
      "name": "execRequestUpdateCommissionRate",
      "outputs": [],
      "stateMutability": "nonpayable",
      "type": "function"
    },
    {
      "inputs": [
        {
          "internalType": "address",
          "name": "_validatorAddr",
          "type": "address"
        },
        {
          "internalType": "uint256",
          "name": "_newJailedUntil",
          "type": "uint256"
        },
        {
          "internalType": "uint256",
          "name": "_slashAmount",
          "type": "uint256"
        },
        {
          "internalType": "bool",
          "name": "_cannotBailout",
          "type": "bool"
        }
      ],
      "name": "execSlash",
      "outputs": [],
      "stateMutability": "nonpayable",
      "type": "function"
    },
    {
      "inputs": [],
      "name": "getBlockProducers",
      "outputs": [
        {
          "internalType": "address[]",
          "name": "_result",
          "type": "address[]"
        }
      ],
      "stateMutability": "view",
      "type": "function"
    },
    {
      "inputs": [],
      "name": "getBridgeOperators",
      "outputs": [
        {
          "internalType": "address[]",
          "name": "_result",
          "type": "address[]"
        }
      ],
      "stateMutability": "view",
      "type": "function"
    },
    {
      "inputs": [
        {
          "internalType": "address[]",
          "name": "_validatorAddrs",
          "type": "address[]"
        }
      ],
      "name": "getBridgeOperatorsOf",
      "outputs": [
        {
          "internalType": "address[]",
          "name": "_result",
          "type": "address[]"
        }
      ],
      "stateMutability": "view",
      "type": "function"
    },
    {
      "inputs": [
        {
          "internalType": "address",
          "name": "_candidate",
          "type": "address"
        }
      ],
      "name": "getCandidateInfo",
      "outputs": [
        {
          "components": [
            {
              "internalType": "address",
              "name": "admin",
              "type": "address"
            },
            {
              "internalType": "address",
              "name": "consensusAddr",
              "type": "address"
            },
            {
              "internalType": "address payable",
              "name": "treasuryAddr",
              "type": "address"
            },
            {
              "internalType": "address",
              "name": "bridgeOperatorAddr",
              "type": "address"
            },
            {
              "internalType": "uint256",
              "name": "commissionRate",
              "type": "uint256"
            },
            {
              "internalType": "uint256",
              "name": "revokingTimestamp",
              "type": "uint256"
            },
            {
              "internalType": "uint256",
              "name": "topupDeadline",
              "type": "uint256"
            }
          ],
          "internalType": "struct ICandidateManager.ValidatorCandidate",
          "name": "",
          "type": "tuple"
        }
      ],
      "stateMutability": "view",
      "type": "function"
    },
    {
      "inputs": [],
      "name": "getCandidateInfos",
      "outputs": [
        {
          "components": [
            {
              "internalType": "address",
              "name": "admin",
              "type": "address"
            },
            {
              "internalType": "address",
              "name": "consensusAddr",
              "type": "address"
            },
            {
              "internalType": "address payable",
              "name": "treasuryAddr",
              "type": "address"
            },
            {
              "internalType": "address",
              "name": "bridgeOperatorAddr",
              "type": "address"
            },
            {
              "internalType": "uint256",
              "name": "commissionRate",
              "type": "uint256"
            },
            {
              "internalType": "uint256",
              "name": "revokingTimestamp",
              "type": "uint256"
            },
            {
              "internalType": "uint256",
              "name": "topupDeadline",
              "type": "uint256"
            }
          ],
          "internalType": "struct ICandidateManager.ValidatorCandidate[]",
          "name": "_list",
          "type": "tuple[]"
        }
      ],
      "stateMutability": "view",
      "type": "function"
    },
    {
      "inputs": [
        {
          "internalType": "address",
          "name": "_candidate",
          "type": "address"
        }
      ],
      "name": "getCommissionChangeSchedule",
      "outputs": [
        {
          "components": [
            {
              "internalType": "uint256",
              "name": "effectiveTimestamp",
              "type": "uint256"
            },
            {
              "internalType": "uint256",
              "name": "commissionRate",
              "type": "uint256"
            }
          ],
          "internalType": "struct ICandidateManager.CommissionSchedule",
          "name": "",
          "type": "tuple"
        }
      ],
      "stateMutability": "view",
      "type": "function"
    },
    {
      "inputs": [
        {
          "internalType": "address",
          "name": "_consensusAddr",
          "type": "address"
        }
      ],
      "name": "getEmergencyExitInfo",
      "outputs": [
        {
          "components": [
            {
              "internalType": "uint256",
              "name": "lockedAmount",
              "type": "uint256"
            },
            {
              "internalType": "uint256",
              "name": "recyclingAt",
              "type": "uint256"
            }
          ],
          "internalType": "struct ICommonInfo.EmergencyExitInfo",
          "name": "_info",
          "type": "tuple"
        }
      ],
      "stateMutability": "view",
      "type": "function"
    },
    {
      "inputs": [
        {
          "internalType": "address",
          "name": "_addr",
          "type": "address"
        }
      ],
      "name": "getJailedTimeLeft",
      "outputs": [
        {
          "internalType": "bool",
          "name": "isJailed_",
          "type": "bool"
        },
        {
          "internalType": "uint256",
          "name": "blockLeft_",
          "type": "uint256"
        },
        {
          "internalType": "uint256",
          "name": "epochLeft_",
          "type": "uint256"
        }
      ],
      "stateMutability": "view",
      "type": "function"
    },
    {
      "inputs": [
        {
          "internalType": "address",
          "name": "_addr",
          "type": "address"
        },
        {
          "internalType": "uint256",
          "name": "_blockNum",
          "type": "uint256"
        }
      ],
      "name": "getJailedTimeLeftAtBlock",
      "outputs": [
        {
          "internalType": "bool",
          "name": "isJailed_",
          "type": "bool"
        },
        {
          "internalType": "uint256",
          "name": "blockLeft_",
          "type": "uint256"
        },
        {
          "internalType": "uint256",
          "name": "epochLeft_",
          "type": "uint256"
        }
      ],
      "stateMutability": "view",
      "type": "function"
    },
    {
      "inputs": [],
      "name": "getLastUpdatedBlock",
      "outputs": [
        {
          "internalType": "uint256",
          "name": "",
          "type": "uint256"
        }
      ],
      "stateMutability": "view",
      "type": "function"
    },
    {
      "inputs": [],
      "name": "getValidatorCandidates",
      "outputs": [
        {
          "internalType": "address[]",
          "name": "",
          "type": "address[]"
        }
      ],
      "stateMutability": "view",
      "type": "function"
    },
    {
      "inputs": [],
      "name": "getValidators",
      "outputs": [
        {
          "internalType": "address[]",
          "name": "_validatorList",
          "type": "address[]"
        },
        {
          "internalType": "address[]",
          "name": "_bridgeOperators",
          "type": "address[]"
        },
        {
          "internalType": "enum EnumFlags.ValidatorFlag[]",
          "name": "_flags",
          "type": "uint8[]"
        }
      ],
      "stateMutability": "view",
      "type": "function"
    },
    {
      "inputs": [
        {
          "internalType": "address",
          "name": "__slashIndicatorContract",
          "type": "address"
        },
        {
          "internalType": "address",
          "name": "__stakingContract",
          "type": "address"
        },
        {
          "internalType": "address",
          "name": "__stakingVestingContract",
          "type": "address"
        },
        {
          "internalType": "address",
          "name": "__maintenanceContract",
          "type": "address"
        },
        {
          "internalType": "address",
          "name": "__roninTrustedOrganizationContract",
          "type": "address"
        },
        {
          "internalType": "address",
          "name": "__bridgeTrackingContract",
          "type": "address"
        },
        {
          "internalType": "uint256",
          "name": "__maxValidatorNumber",
          "type": "uint256"
        },
        {
          "internalType": "uint256",
          "name": "__maxValidatorCandidate",
          "type": "uint256"
        },
        {
          "internalType": "uint256",
          "name": "__maxPrioritizedValidatorNumber",
          "type": "uint256"
        },
        {
          "internalType": "uint256",
          "name": "__minEffectiveDaysOnwards",
          "type": "uint256"
        },
        {
          "internalType": "uint256",
          "name": "__numberOfBlocksInEpoch",
          "type": "uint256"
        },
        {
          "internalType": "uint256[2]",
          "name": "__emergencyExitConfigs",
          "type": "uint256[2]"
        }
      ],
      "name": "initialize",
      "outputs": [],
      "stateMutability": "nonpayable",
      "type": "function"
    },
    {
      "inputs": [
        {
          "internalType": "address",
          "name": "_addr",
          "type": "address"
        }
      ],
      "name": "isBlockProducer",
      "outputs": [
        {
          "internalType": "bool",
          "name": "",
          "type": "bool"
        }
      ],
      "stateMutability": "view",
      "type": "function"
    },
    {
      "inputs": [
        {
          "internalType": "address",
          "name": "_bridgeOperatorAddr",
          "type": "address"
        }
      ],
      "name": "isBridgeOperator",
      "outputs": [
        {
          "internalType": "bool",
          "name": "_isOperator",
          "type": "bool"
        }
      ],
      "stateMutability": "view",
      "type": "function"
    },
    {
      "inputs": [
        {
          "internalType": "address",
          "name": "_candidate",
          "type": "address"
        },
        {
          "internalType": "address",
          "name": "_admin",
          "type": "address"
        }
      ],
      "name": "isCandidateAdmin",
      "outputs": [
        {
          "internalType": "bool",
          "name": "",
          "type": "bool"
        }
      ],
      "stateMutability": "view",
      "type": "function"
    },
    {
      "inputs": [
        {
          "internalType": "address",
          "name": "_consensusAddr",
          "type": "address"
        }
      ],
      "name": "isOperatingBridge",
      "outputs": [
        {
          "internalType": "bool",
          "name": "",
          "type": "bool"
        }
      ],
      "stateMutability": "view",
      "type": "function"
    },
    {
      "inputs": [],
      "name": "isPeriodEnding",
      "outputs": [
        {
          "internalType": "bool",
          "name": "",
          "type": "bool"
        }
      ],
      "stateMutability": "view",
      "type": "function"
    },
    {
      "inputs": [
        {
          "internalType": "address",
          "name": "_addr",
          "type": "address"
        }
      ],
      "name": "isValidator",
      "outputs": [
        {
          "internalType": "bool",
          "name": "",
          "type": "bool"
        }
      ],
      "stateMutability": "view",
      "type": "function"
    },
    {
      "inputs": [
        {
          "internalType": "address",
          "name": "_addr",
          "type": "address"
        }
      ],
      "name": "isValidatorCandidate",
      "outputs": [
        {
          "internalType": "bool",
          "name": "",
          "type": "bool"
        }
      ],
      "stateMutability": "view",
      "type": "function"
    },
    {
      "inputs": [],
      "name": "maintenanceContract",
      "outputs": [
        {
          "internalType": "address",
          "name": "",
          "type": "address"
        }
      ],
      "stateMutability": "view",
      "type": "function"
    },
    {
      "inputs": [],
      "name": "maxPrioritizedValidatorNumber",
      "outputs": [
        {
          "internalType": "uint256",
          "name": "_maximumPrioritizedValidatorNumber",
          "type": "uint256"
        }
      ],
      "stateMutability": "view",
      "type": "function"
    },
    {
      "inputs": [],
      "name": "maxValidatorCandidate",
      "outputs": [
        {
          "internalType": "uint256",
          "name": "",
          "type": "uint256"
        }
      ],
      "stateMutability": "view",
      "type": "function"
    },
    {
      "inputs": [],
      "name": "maxValidatorNumber",
      "outputs": [
        {
          "internalType": "uint256",
          "name": "_maximumValidatorNumber",
          "type": "uint256"
        }
      ],
      "stateMutability": "view",
      "type": "function"
    },
    {
      "inputs": [],
      "name": "minEffectiveDaysOnwards",
      "outputs": [
        {
          "internalType": "uint256",
          "name": "",
          "type": "uint256"
        }
      ],
      "stateMutability": "view",
      "type": "function"
    },
    {
      "inputs": [],
      "name": "numberOfBlocksInEpoch",
      "outputs": [
        {
          "internalType": "uint256",
          "name": "_numberOfBlocks",
          "type": "uint256"
        }
      ],
      "stateMutability": "view",
      "type": "function"
    },
    {
      "inputs": [],
      "name": "precompilePickValidatorSetAddress",
      "outputs": [
        {
          "internalType": "address",
          "name": "",
          "type": "address"
        }
      ],
      "stateMutability": "view",
      "type": "function"
    },
    {
      "inputs": [],
      "name": "precompileSortValidatorsAddress",
      "outputs": [
        {
          "internalType": "address",
          "name": "",
          "type": "address"
        }
      ],
      "stateMutability": "view",
      "type": "function"
    },
    {
      "inputs": [],
      "name": "roninTrustedOrganizationContract",
      "outputs": [
        {
          "internalType": "address",
          "name": "",
          "type": "address"
        }
      ],
      "stateMutability": "view",
      "type": "function"
    },
    {
      "inputs": [
        {
          "internalType": "address",
          "name": "_addr",
          "type": "address"
        }
      ],
      "name": "setBridgeTrackingContract",
      "outputs": [],
      "stateMutability": "nonpayable",
      "type": "function"
    },
    {
      "inputs": [
        {
          "internalType": "uint256",
          "name": "_emergencyExitLockedAmount",
          "type": "uint256"
        }
      ],
      "name": "setEmergencyExitLockedAmount",
      "outputs": [],
      "stateMutability": "nonpayable",
      "type": "function"
    },
    {
      "inputs": [
        {
          "internalType": "uint256",
          "name": "_emergencyExpiryDuration",
          "type": "uint256"
        }
      ],
      "name": "setEmergencyExpiryDuration",
      "outputs": [],
      "stateMutability": "nonpayable",
      "type": "function"
    },
    {
      "inputs": [
        {
          "internalType": "address",
          "name": "_addr",
          "type": "address"
        }
      ],
      "name": "setMaintenanceContract",
      "outputs": [],
      "stateMutability": "nonpayable",
      "type": "function"
    },
    {
      "inputs": [
        {
          "internalType": "uint256",
          "name": "_number",
          "type": "uint256"
        }
      ],
      "name": "setMaxPrioritizedValidatorNumber",
      "outputs": [],
      "stateMutability": "nonpayable",
      "type": "function"
    },
    {
      "inputs": [
        {
          "internalType": "uint256",
          "name": "_number",
          "type": "uint256"
        }
      ],
      "name": "setMaxValidatorCandidate",
      "outputs": [],
      "stateMutability": "nonpayable",
      "type": "function"
    },
    {
      "inputs": [
        {
          "internalType": "uint256",
          "name": "_max",
          "type": "uint256"
        }
      ],
      "name": "setMaxValidatorNumber",
      "outputs": [],
      "stateMutability": "nonpayable",
      "type": "function"
    },
    {
      "inputs": [
        {
          "internalType": "uint256",
          "name": "_numOfDays",
          "type": "uint256"
        }
      ],
      "name": "setMinEffectiveDaysOnwards",
      "outputs": [],
      "stateMutability": "nonpayable",
      "type": "function"
    },
    {
      "inputs": [
        {
          "internalType": "address",
          "name": "_addr",
          "type": "address"
        }
      ],
      "name": "setRoninTrustedOrganizationContract",
      "outputs": [],
      "stateMutability": "nonpayable",
      "type": "function"
    },
    {
      "inputs": [
        {
          "internalType": "address",
          "name": "_addr",
          "type": "address"
        }
      ],
      "name": "setSlashIndicatorContract",
      "outputs": [],
      "stateMutability": "nonpayable",
      "type": "function"
    },
    {
      "inputs": [
        {
          "internalType": "address",
          "name": "_addr",
          "type": "address"
        }
      ],
      "name": "setStakingContract",
      "outputs": [],
      "stateMutability": "nonpayable",
      "type": "function"
    },
    {
      "inputs": [
        {
          "internalType": "address",
          "name": "_addr",
          "type": "address"
        }
      ],
      "name": "setStakingVestingContract",
      "outputs": [],
      "stateMutability": "nonpayable",
      "type": "function"
    },
    {
      "inputs": [],
      "name": "slashIndicatorContract",
      "outputs": [
        {
          "internalType": "address",
          "name": "",
          "type": "address"
        }
      ],
      "stateMutability": "view",
      "type": "function"
    },
    {
      "inputs": [],
      "name": "stakingContract",
      "outputs": [
        {
          "internalType": "address",
          "name": "",
          "type": "address"
        }
      ],
      "stateMutability": "view",
      "type": "function"
    },
    {
      "inputs": [],
      "name": "stakingVestingContract",
      "outputs": [
        {
          "internalType": "address",
          "name": "",
          "type": "address"
        }
      ],
      "stateMutability": "view",
      "type": "function"
    },
    {
      "inputs": [],
      "name": "submitBlockReward",
      "outputs": [],
      "stateMutability": "payable",
      "type": "function"
    },
    {
      "inputs": [],
      "name": "totalBlockProducers",
      "outputs": [
        {
          "internalType": "uint256",
          "name": "_total",
          "type": "uint256"
        }
      ],
      "stateMutability": "view",
      "type": "function"
    },
    {
      "inputs": [],
      "name": "totalBridgeOperators",
      "outputs": [
        {
          "internalType": "uint256",
          "name": "_total",
          "type": "uint256"
        }
      ],
      "stateMutability": "view",
      "type": "function"
    },
    {
      "inputs": [],
      "name": "totalDeprecatedReward",
      "outputs": [
        {
          "internalType": "uint256",
          "name": "",
          "type": "uint256"
        }
      ],
      "stateMutability": "view",
      "type": "function"
    },
    {
      "inputs": [
        {
          "internalType": "uint256",
          "name": "_epoch",
          "type": "uint256"
        }
      ],
      "name": "tryGetPeriodOfEpoch",
      "outputs": [
        {
          "internalType": "bool",
          "name": "_filled",
          "type": "bool"
        },
        {
          "internalType": "uint256",
          "name": "_periodNumber",
          "type": "uint256"
        }
      ],
      "stateMutability": "view",
      "type": "function"
    },
    {
      "inputs": [],
      "name": "validatorCount",
      "outputs": [
        {
          "internalType": "uint256",
          "name": "",
          "type": "uint256"
        }
      ],
      "stateMutability": "view",
      "type": "function"
    },
    {
      "inputs": [],
      "name": "wrapUpEpoch",
      "outputs": [],
      "stateMutability": "payable",
      "type": "function"
    },
    {
      "stateMutability": "payable",
      "type": "receive"
    }
  ],
  "transactionHash": "0x47f8413470f0f37599d3564f9d77984021807ff3da8966fee0650f5a80744542",
  "args": [],
  "numDeployments": 1,
  "solcInputHash": "a50a3f056fa24c0b5a230a9cb29a1cb4",
  "bytecode": "0x60806040523480156200001157600080fd5b506200001c62000022565b620000e4565b600054610100900460ff16156200008f5760405162461bcd60e51b815260206004820152602760248201527f496e697469616c697a61626c653a20636f6e747261637420697320696e697469604482015266616c697a696e6760c81b606482015260840160405180910390fd5b60005460ff9081161015620000e2576000805460ff191660ff9081179091556040519081527f7f26b83ff96e1f2b6a682f133852f6798a09c465da95921460cefb38474024989060200160405180910390a15b565b615fcc80620000f46000396000f3fe6080604052600436106103555760003560e01c806365244ece116101b957806365244ece146108075780636558954f146108275780636611f8431461083e578063690b75361461085e5780636aa1c2ef1461087357806372e46810146108885780637593ff7114610890578063823a7b9c146108b0578063873a5a70146108d057806387c891bd146108f05780638d559c381461090557806396585fc2146109195780639b19dbfd146109395780639c8d98da1461094e5780639dd373b91461096e5780639e94b9ec1461098e578063a0c3f2d2146109a3578063a3d545f5146109c3578063a66c0f77146109e3578063a7c2f119146109f8578063ad29578314610a18578063b405aaf214610a38578063b5e337de14610a58578063b7ab4db514610a78578063ba77b06c14610a9c578063c3c8b5d614610ab1578063c94aaa0214610ad1578063cba44de914610af1578063d09f1ab414610b06578063d2cb215e14610b1b578063d5a0744f14610b39578063dd716ad314610b59578063e5125a1d14610b79578063edb194bb14610b99578063ee99205c14610bfb578063eeb629a814610c10578063facd743b14610c2557610364565b8063038278841461036c57806304d971ab1461039557806306040618146103c55780630f43a677146103da5780631104e528146103f057806311662dc2146104105780631196ab661461044d57806315b5ebde1461046d5780631ab4a34c1461048d5780631f628801146104ad578063217f35c2146104cd57806323c65eb0146104e257806328bde1e1146105025780632924de711461052f578063297a8fca1461054f5780632bcf3d15146105645780632d784a98146105845780632f78204c146105b157806331a8aef5146105d15780633529214b146105f1578063367ec12b146106135780633b3159b6146106335780634244d4c9146106475780634493421e14610674578063468c96ae1461069257806346fe9311146106c957806349096d26146106e95780634d8df063146106fe5780634de2b7351461071e5780634ee4d72b1461074b5780634f2a693f1461076057806352091f17146107805780635248184a146107885780635511cde1146107aa578063562d5304146107c85780635a08482d146107dd578063605239a1146107f257610364565b3661036457610362610c45565b005b610362610c45565b34801561037857600080fd5b506103826104b081565b6040519081526020015b60405180910390f35b3480156103a157600080fd5b506103b56103b036600461542e565b610caa565b604051901515815260200161038c565b3480156103d157600080fd5b50610382610cd1565b3480156103e657600080fd5b5061038260aa5481565b3480156103fc57600080fd5b5061036261040b366004615467565b610ce1565b34801561041c57600080fd5b5061043061042b3660046154cb565b610f6c565b60408051931515845260208401929092529082015260600161038c565b34801561045957600080fd5b506103626104683660046154f7565b610fef565b34801561047957600080fd5b506103626104883660046154cb565b611033565b34801561049957600080fd5b506103b56104a8366004615510565b61114f565b3480156104b957600080fd5b506103b56104c8366004615510565b611179565b3480156104d957600080fd5b506103b56111b3565b3480156104ee57600080fd5b506103b56104fd3660046154cb565b6111c8565b34801561050e57600080fd5b5061052261051d366004615510565b6111d4565b60405161038c9190615581565b34801561053b57600080fd5b506103b561054a366004615510565b611277565b34801561055b57600080fd5b50600454610382565b34801561057057600080fd5b5061036261057f366004615510565b611283565b34801561059057600080fd5b506105a461059f366004615510565b6112ef565b60405161038c919061558f565b3480156105bd57600080fd5b506103626105cc3660046155b4565b611351565b3480156105dd57600080fd5b506103b56105ec3660046154cb565b61156d565b3480156105fd57600080fd5b50610606611579565b60405161038c91906155fe565b34801561061f57600080fd5b5061036261062e366004615623565b611588565b34801561063f57600080fd5b506068610606565b34801561065357600080fd5b50610667610662366004615752565b611713565b60405161038c9190615834565b34801561068057600080fd5b50606e546001600160a01b0316610606565b34801561069e57600080fd5b506106b26106ad3660046154f7565b6117ca565b60408051921515835260208301919091520161038c565b3480156106d557600080fd5b506103626106e4366004615510565b611808565b3480156106f557600080fd5b50610667611874565b34801561070a57600080fd5b506103626107193660046154f7565b61195d565b34801561072a57600080fd5b5061073e610739366004615847565b61199e565b60405161038c91906158bb565b34801561075757600080fd5b5060e454610382565b34801561076c57600080fd5b5061036261077b3660046154f7565b611a59565b610362611a9a565b34801561079457600080fd5b5061079d611e57565b60405161038c9190615901565b3480156107b657600080fd5b5060a8546001600160a01b0316610606565b3480156107d457600080fd5b50610382611f87565b3480156107e957600080fd5b50610606611fdb565b3480156107fe57600080fd5b50607254610382565b34801561081357600080fd5b506103b5610822366004615510565b611fea565b34801561083357600080fd5b506103826201518081565b34801561084a57600080fd5b506103626108593660046154f7565b61201e565b34801561086a57600080fd5b5060e554610382565b34801561087f57600080fd5b50600154610382565b61036261205f565b34801561089c57600080fd5b506103b56108ab3660046154f7565b6122bf565b3480156108bc57600080fd5b506103626108cb3660046154f7565b6122e3565b3480156108dc57600080fd5b506103b56108eb366004615510565b612324565b3480156108fc57600080fd5b50600254610382565b34801561091157600080fd5b506066610606565b34801561092557600080fd5b50610430610934366004615510565b61233b565b34801561094557600080fd5b50610667612357565b34801561095a57600080fd5b50610362610969366004615510565b612443565b34801561097a57600080fd5b50610362610989366004615510565b6124af565b34801561099a57600080fd5b5061038261251b565b3480156109af57600080fd5b506103b56109be366004615510565b61256f565b3480156109cf57600080fd5b506103826109de3660046154f7565b61258c565b3480156109ef57600080fd5b5060e654610382565b348015610a0457600080fd5b50610362610a133660046154cb565b612597565b348015610a2457600080fd5b50610362610a33366004615510565b612843565b348015610a4457600080fd5b506103b5610a53366004615510565b6128af565b348015610a6457600080fd5b50610362610a73366004615510565b612934565b348015610a8457600080fd5b50610a8d6129a0565b60405161038c93929190615959565b348015610aa857600080fd5b50610667612b7e565b348015610abd57600080fd5b50610362610acc36600461542e565b612be0565b348015610add57600080fd5b50610362610aec3660046154f7565b612e63565b348015610afd57600080fd5b50607654610382565b348015610b1257600080fd5b5060a954610382565b348015610b2757600080fd5b50606f546001600160a01b0316610606565b348015610b4557600080fd5b506103b5610b543660046154cb565b612ea4565b348015610b6557600080fd5b50610362610b743660046154cb565b612eb0565b348015610b8557600080fd5b50610362610b943660046159d2565b612f5a565b348015610ba557600080fd5b506105a4610bb4366004615510565b6040805180820190915260008082526020820152506001600160a01b0316600090815260776020908152604091829020825180840190935280548352600101549082015290565b348015610c0757600080fd5b5061060661308d565b348015610c1c57600080fd5b5060ad54610382565b348015610c3157600080fd5b506103b5610c40366004615510565b61309c565b610c4d611579565b6001600160a01b0316336001600160a01b031614158015610c875750610c7161308d565b6001600160a01b0316336001600160a01b031614155b15610ca85760405160016234baed60e01b0319815260040160405180910390fd5b565b6001600160a01b038281166000908152607560205260409020548116908216145b92915050565b6000610cdc60035490565b905090565b33610cea61308d565b6001600160a01b031614610d1157604051638aaf4a0760e01b815260040160405180910390fd5b6073546072548110610d3657604051638616841b60e01b815260040160405180910390fd5b610d3f8561256f565b15610d5d57604051638ad9cdf960e01b815260040160405180910390fd5b612710821115610d8057604051631b8454a360e21b815260040160405180910390fd5b60005b607354811015610e7b5760006075600060738481548110610da657610da6615a07565b60009182526020808320909101546001600160a01b03908116845290830193909352604090910190208054909250811690891603610e02578760405163fc3d8c7560e01b8152600401610df991906155fe565b60405180910390fd5b60028101546001600160a01b0390811690871603610e355785604051632d33a7e760e11b8152600401610df991906155fe565b60038101546001600160a01b0390811690861603610e6857846040516350e1263b60e01b8152600401610df991906155fe565b5080610e7381615a33565b915050610d83565b506001600160a01b038581166000818152607460209081526040808320861990556073805460018082019092557ff79bde9ddd17963ebce6f7d021d60de7c2bd0db944d23c900c0c0e775f5300520180546001600160a01b03199081168717909155607590935292819020805483168c87169081178255938101805484168617905560028101805484168b8816908117909155600382018054909416968a1696909617909255600482018790555190939192907fd690f592ed983cfbc05717fbcf06c4e10ae328432c309fe49246cf4a4be69fcd90610f5b9089906155fe565b60405180910390a450505050505050565b6001600160a01b0382166000908152603a60205260408120548190819084811015610fa257600080600093509350935050610fe8565b60019350610fb08582615a4c565b610fbb906001615a5f565b9250610fc68561258c565b610fcf8261258c565b610fd99190615a4c565b610fe4906001615a5f565b9150505b9250925092565b610ff76130d9565b6001600160a01b0316336001600160a01b0316146110275760405162461bcd60e51b8152600401610df990615a72565b61103081613107565b50565b3361103c611fdb565b6001600160a01b031614611063576040516328b9c24b60e21b815260040160405180910390fd5b6001600160a01b0382166000908152603c6020526040902054431161109d57816040516353e0424d60e01b8152600401610df991906155fe565b6001600160a01b038216600081815260386020908152604080832085845282528083208054600160ff1991821681179092559484526037835281842086855290925290912080549092169091556110f49043615a4c565b6001600160a01b0383166000818152603a6020526040908190209290925590517f6bb2436cb6b6eb65d5a52fac2ae0373a77ade6661e523ef3004ee2d5524e6c6e906111439084815260200190565b60405180910390a25050565b600080600161115c610cd1565b6111669190615a4c565b90506111728382613165565b9392505050565b6001600160a01b038116600090815260ac6020526040812054610ccb9060029060ff1660038111156111ad576111ad615943565b90613190565b6000610cdc6111c1426131c3565b6003541090565b600061117283836131d2565b6111dc6153dd565b6111e58261256f565b6112025760405163a64b34ad60e01b815260040160405180910390fd5b506001600160a01b03908116600090815260756020908152604091829020825160e081018452815485168152600182015485169281019290925260028101548416928201929092526003820154909216606083015260048101546080830152600581015460a08301526006015460c082015290565b6000610ccb82436111c8565b61128b6130d9565b6001600160a01b0316336001600160a01b0316146112bb5760405162461bcd60e51b8152600401610df990615a72565b806001600160a01b03163b6000036112e657604051637bcd509160e01b815260040160405180910390fd5b611030816131f2565b604080518082018252600080825260209182018190526001600160a01b038416815260e88252828120835180850190945280548452600101549183018290520361134c576040516370fdd4f160e11b815260040160405180910390fd5b919050565b3361135a611fdb565b6001600160a01b031614611381576040516328b9c24b60e21b815260040160405180910390fd5b600061138b610cd1565b6001600160a01b03861660008181526037602090815260408083208584528252808320805460ff1916600117905592825260e181528282205460e0909152919020549192506113d991615a5f565b60e460008282546113ea9190615a5f565b90915550506001600160a01b038516600090815260e06020908152604080832083905560e18252808320839055603a90915290205461142a90859061323d565b6001600160a01b0386166000908152603a602052604090205582156114da5760715460405163138ac02f60e11b81526000916001600160a01b031690632715805e9061147c9089908890600401615ab4565b6020604051808303816000875af115801561149b573d6000803e3d6000fd5b505050506040513d601f19601f820116820180604052508101906114bf9190615acd565b90508060e460008282546114d39190615a5f565b9091555050505b811561151e576001600160a01b0385166000908152603c602052604090205461150490859061323d565b6001600160a01b0386166000908152603c60205260409020555b6001600160a01b0385166000818152603a6020526040808220549051849392600080516020615f778339815191529261155e929091899160019190615ae6565b60405180910390a35050505050565b60006111728383613254565b606d546001600160a01b031690565b600054610100900460ff16158080156115a85750600054600160ff909116105b806115c25750303b1580156115c2575060005460ff166001145b6116255760405162461bcd60e51b815260206004820152602e60248201527f496e697469616c697a61626c653a20636f6e747261637420697320616c72656160448201526d191e481a5b9a5d1a585b1a5e995960921b6064820152608401610df9565b6000805460ff191660011790558015611648576000805461ff0019166101001790555b6116518d6131f2565b61165a8c61327f565b6116638b6132ca565b61166c8a613315565b61167588613360565b61167e896133ab565b611687876133f6565b6116908661342b565b61169985613460565b6116a284613107565b6116ac82356134b8565b6116b960208301356134ed565b60018390558015611704576000805461ff0019169055604051600181527f7f26b83ff96e1f2b6a682f133852f6798a09c465da95921460cefb38474024989060200160405180910390a15b50505050505050505050505050565b606081516001600160401b0381111561172e5761172e6156e9565b604051908082528060200260200182016040528015611757578160200160208202803683370190505b50905060005b81518110156117c45761178883828151811061177b5761177b615a07565b6020026020010151613522565b82828151811061179a5761179a615a07565b6001600160a01b0390921660209283029190910190910152806117bc81615a33565b91505061175d565b50919050565b6000806117d64361258c565b831115806117f1575060008381526005602052604090205415155b600093845260056020526040909320549293915050565b6118106130d9565b6001600160a01b0316336001600160a01b0316146118405760405162461bcd60e51b8152600401610df990615a72565b806001600160a01b03163b60000361186b57604051637bcd509160e01b815260040160405180910390fd5b61103081613315565b606060aa546001600160401b03811115611890576118906156e9565b6040519080825280602002602001820160405280156118b9578160200160208202803683370190505b5090506000805b825181101561195757600081815260ab60205260409020546118ea906001600160a01b0316611fea565b1561194557600081815260ab60205260409020546001600160a01b0316838361191281615a33565b94508151811061192457611924615a07565b60200260200101906001600160a01b031690816001600160a01b0316815250505b8061194f81615a33565b9150506118c0565b50815290565b6119656130d9565b6001600160a01b0316336001600160a01b0316146119955760405162461bcd60e51b8152600401610df990615a72565b611030816134ed565b6060816001600160401b038111156119b8576119b86156e9565b6040519080825280602002602001820160405280156119e1578160200160208202803683370190505b50905060005b82811015611a5257611a1e848483818110611a0457611a04615a07565b9050602002016020810190611a199190615510565b61352d565b828281518110611a3057611a30615a07565b9115156020928302919091019091015280611a4a81615a33565b9150506119e7565b5092915050565b611a616130d9565b6001600160a01b0316336001600160a01b031614611a915760405162461bcd60e51b8152600401610df990615a72565b6110308161342b565b334114611aba576040516309f358fd60e01b815260040160405180910390fd5b6000611ac533611fea565b8015611ad75750611ad53361352d565b155b8015611af15750611aef33611aea610cd1565b613254565b155b606d54604051630634f5b960e01b815282151560048201526001602482015291925060009182916001600160a01b031690630634f5b9906044016060604051808303816000875af1158015611b4a573d6000803e3d6000fd5b505050506040513d601f19601f82011682018060405250810190611b6e9190615b05565b92509250508060e26000828254611b859190615a5f565b90915550839050611bd7573460e46000828254611ba29190615a5f565b90915550506040513390600080516020615f5783398151915290611bca903490600190615b3c565b60405180910390a2505050565b336001600160a01b03167f0ede5c3be8625943fa64003cd4b91230089411249f3059bac6500873543ca9b13484604051611c12929190615b60565b60405180910390a26000611c24610cd1565b90506000611c328434615a5f565b3360009081526038602090815260408083208684529091528120549192509060ff1615611d2b576070546040805163631c8fd160e11b815290516000926001600160a01b03169163c6391fa29160048083019260809291908290030181865afa158015611ca3573d6000803e3d6000fd5b505050506040513d601f19601f82011682018060405250810190611cc79190615b6e565b93505050506127108184611cdb9190615ba4565b611ce59190615bd1565b91508160e46000828254611cf99190615a5f565b90915550506040513390600080516020615f5783398151915290611d21908590600290615b3c565b60405180910390a2505b611d358183615a4c565b91506000607160009054906101000a90046001600160a01b03166001600160a01b031663c673316c6040518163ffffffff1660e01b8152600401602060405180830381865afa158015611d8c573d6000803e3d6000fd5b505050506040513d601f19601f82011682018060405250810190611db09190615acd565b3360009081526075602052604081206004015491925090611dd19083613539565b90506000612710611de28684615ba4565b611dec9190615bd1565b33600090815260e06020526040812080549293508392909190611e10908490615a5f565b9091555060009050611e228287615a4c565b33600090815260e16020526040812080549293508392909190611e46908490615a5f565b909155505050505050505050505050565b6073546060906001600160401b03811115611e7457611e746156e9565b604051908082528060200260200182016040528015611ead57816020015b611e9a6153dd565b815260200190600190039081611e925790505b50905060005b8151811015611f83576075600060738381548110611ed357611ed3615a07565b60009182526020808320909101546001600160a01b039081168452838201949094526040928301909120825160e081018452815485168152600182015485169281019290925260028101548416928201929092526003820154909216606083015260048101546080830152600581015460a08301526006015460c08201528251839083908110611f6557611f65615a07565b60200260200101819052508080611f7b90615a33565b915050611eb3565b5090565b6000805b60aa54811015611f8357600081815260ab6020526040902054611fb6906001600160a01b0316611179565b15611fc95781611fc581615a33565b9250505b80611fd381615a33565b915050611f8b565b6070546001600160a01b031690565b6001600160a01b038116600090815260ac6020526040812054610ccb9060019060ff1660038111156111ad576111ad615943565b6120266130d9565b6001600160a01b0316336001600160a01b0316146120565760405162461bcd60e51b8152600401610df990615a72565b611030816134b8565b33411461207f576040516309f358fd60e01b815260040160405180910390fd5b612088436122bf565b6120a557604051636c74eecf60e01b815260040160405180910390fd5b6120ae4361258c565b6120b960025461258c565b106120d757604051632458f64160e01b815260040160405180910390fd5b4360025560006120e6426131c3565b905060006120f5826003541090565b905060006121016129a0565b50509050606060006121124361258c565b90506000612121826001615a5f565b9050600061212d610cd1565b905085156122595761213f8186613548565b60008061214c83886138d3565b9150915061215c83888484613b05565b612164613c0e565b61216c613d69565b607054604051631da0214360e21b81526001600160a01b0390911690637680850c9061219e908a908790600401615be5565b600060405180830381600087803b1580156121b857600080fd5b505af11580156121cc573d6000803e3d6000fd5b505050506121d989613e8b565b8051919850965015612248576070546040516303e1697b60e11b81526001600160a01b03909116906307c2d2f690612215908990600401615834565b600060405180830381600087803b15801561222f57600080fd5b505af1158015612243573d6000803e3d6000fd5b505050505b612253436001615a5f565b60045550505b612264878387614016565b82817f0195462033384fec211477c56217da64a58bd405e0bed331ba4ded67e4ae4ce788604051612299911515815260200190565b60405180910390a350600090815260056020526040902085905550505060039190915550565b6000600180546122cf9190615a4c565b6001546122dc9084615c07565b1492915050565b6122eb6130d9565b6001600160a01b0316336001600160a01b03161461231b5760405162461bcd60e51b8152600401610df990615a72565b611030816133f6565b60008061232f610cd1565b90506111728382613254565b600080600061234a8443610f6c565b9250925092509193909250565b606060aa546001600160401b03811115612373576123736156e9565b60405190808252806020026020018201604052801561239c578160200160208202803683370190505b5090506000805b825181101561195757600081815260ab60205260409020546123cd906001600160a01b0316611179565b1561243157600081815260ab60205260409020546123f3906001600160a01b0316613522565b83836123fe81615a33565b94508151811061241057612410615a07565b60200260200101906001600160a01b031690816001600160a01b0316815250505b8061243b81615a33565b9150506123a3565b61244b6130d9565b6001600160a01b0316336001600160a01b03161461247b5760405162461bcd60e51b8152600401610df990615a72565b806001600160a01b03163b6000036124a657604051637bcd509160e01b815260040160405180910390fd5b61103081613360565b6124b76130d9565b6001600160a01b0316336001600160a01b0316146124e75760405162461bcd60e51b8152600401610df990615a72565b806001600160a01b03163b60000361251257604051637bcd509160e01b815260040160405180910390fd5b6110308161327f565b6000805b60aa54811015611f8357600081815260ab602052604090205461254a906001600160a01b0316611fea565b1561255d578161255981615a33565b9250505b8061256781615a33565b91505061251f565b6001600160a01b0316600090815260746020526040902054151590565b6000610ccb826143db565b336125a061308d565b6001600160a01b0316146125c757604051638aaf4a0760e01b815260040160405180910390fd5b6001600160a01b038216600090815260e8602052604090206001810154156126025760405163057aab3160e31b815260040160405180910390fd5b600061260e8342615a5f565b6001600160a01b038516600090815260756020526040902090915061263390826143f6565b6001600160a01b0384166000908152603b6020908152604080832084905560399091528120600191612663610cd1565b8152602081019190915260409081016000908120805460ff19169315159390931790925560715460e554915163138ac02f60e11b81526001600160a01b0390911691632715805e916126b9918991600401615ab4565b6020604051808303816000875af11580156126d8573d6000803e3d6000fd5b505050506040513d601f19601f820116820180604052508101906126fc9190615acd565b905080156127f957600060e654426127149190615a5f565b60e78054600180820183556000929092527f6cb0db1d7354dfb4a1464318006df0643cafe2002a86a29ff8560f900fef28a10180546001600160a01b0319166001600160a01b038a16179055838655850181905590506127726130d9565b6001600160a01b0387811660008181526075602052604090819020600201549051630a2fae5760e41b81526004810192909252821660248201524260448201526064810184905291169063a2fae57090608401600060405180830381600087803b1580156127df57600080fd5b505af11580156127f3573d6000803e3d6000fd5b50505050505b846001600160a01b03167f77a1a819870c0f4d04c3ca4cc2881a0393136abc28bd651af50aedade94a27c48260405161283491815260200190565b60405180910390a25050505050565b61284b6130d9565b6001600160a01b0316336001600160a01b03161461287b5760405162461bcd60e51b8152600401610df990615a72565b806001600160a01b03163b6000036128a657604051637bcd509160e01b815260040160405180910390fd5b611030816132ca565b6000805b60aa548110156117c457600081815260ab60205260409020546001600160a01b03808516916128e29116613522565b6001600160a01b03161480156129145750600081815260ab6020526040902054612914906001600160a01b0316611179565b1561292257600191506117c4565b8061292c81615a33565b9150506128b3565b61293c6130d9565b6001600160a01b0316336001600160a01b03161461296c5760405162461bcd60e51b8152600401610df990615a72565b806001600160a01b03163b60000361299757604051637bcd509160e01b815260040160405180910390fd5b611030816133ab565b606080606060aa546001600160401b038111156129bf576129bf6156e9565b6040519080825280602002602001820160405280156129e8578160200160208202803683370190505b50925060aa546001600160401b03811115612a0557612a056156e9565b604051908082528060200260200182016040528015612a2e578160200160208202803683370190505b50915060aa546001600160401b03811115612a4b57612a4b6156e9565b604051908082528060200260200182016040528015612a74578160200160208202803683370190505b50905060005b8351811015612b7857600081815260ab602052604090205484516001600160a01b03909116908190869084908110612ab457612ab4615a07565b60200260200101906001600160a01b031690816001600160a01b031681525050612add81613522565b848381518110612aef57612aef615a07565b6001600160a01b03928316602091820292909201810191909152908216600090815260ac9091526040902054835160ff90911690849084908110612b3557612b35615a07565b60200260200101906003811115612b4e57612b4e615943565b90816003811115612b6157612b61615943565b905250819050612b7081615a33565b915050612a7a565b50909192565b60606073805480602002602001604051908101604052809291908181526020018280548015612bd657602002820191906000526020600020905b81546001600160a01b03168152600190910190602001808311612bb8575b5050505050905090565b612be86130d9565b6001600160a01b0316336001600160a01b031614612c185760405162461bcd60e51b8152600401610df990615a72565b6001600160a01b038216600090815260e8602052604090206001015415612e5f5760e7548060005b82811015612c9957846001600160a01b031660e78281548110612c6557612c65615a07565b6000918252602090912001546001600160a01b031603612c8757809150612c99565b80612c9181615a33565b915050612c40565b50818103612ca75750505050565b6001600160a01b038416600090815260e860205260409020548015612e5b576001600160a01b038516600090815260e860205260408120818155600190810191909155831115612d695760e7612cfe600185615a4c565b81548110612d0e57612d0e615a07565b60009182526020909120015460e780546001600160a01b039092169184908110612d3a57612d3a615a07565b9060005260206000200160006101000a8154816001600160a01b0302191690836001600160a01b031602179055505b60e7805480612d7a57612d7a615c1b565b60008281526020808220830160001990810180546001600160a01b03191690559092019092556001600160a01b038716825260e9905260409020805460ff19166001179055612dcc84826104b0614472565b15612e1657836001600160a01b0316856001600160a01b03167f7229136a18186c71a86246c012af3bb1df6460ef163934bbdccd6368abdd41e48360405161155e91815260200190565b836001600160a01b0316856001600160a01b03167f3747d14eb72ad3e35cba9c3e00dab3b8d15b40cac6bdbd08402356e4f69f30a1834760405161155e929190615b60565b5050505b5050565b612e6b6130d9565b6001600160a01b0316336001600160a01b031614612e9b5760405162461bcd60e51b8152600401610df990615a72565b61103081613460565b60006111728383613165565b33612eb961308d565b6001600160a01b031614612ee057604051638aaf4a0760e01b815260040160405180910390fd5b612ee9826144d2565b15612f075760405163030081e760e01b815260040160405180910390fd5b6001600160a01b0382166000908152607560205260409020600581015415612f425760405163fab9167360e01b815260040160405180910390fd5b612f5581612f508442615a5f565b6143f6565b505050565b33612f6361308d565b6001600160a01b031614612f8a57604051638aaf4a0760e01b815260040160405180910390fd5b6001600160a01b03831660009081526077602052604090205415612fc157604051632f32dcdd60e11b815260040160405180910390fd5b612710811115612fe457604051631b8454a360e21b815260040160405180910390fd5b6076548210156130075760405163fa0ae69360e01b815260040160405180910390fd5b6001600160a01b038316600090815260776020526040812090620151808461302f8242615bd1565b6130399190615a5f565b6130439190615ba4565b808355600183018490556040519091506001600160a01b038616907f6ebafd1bb6316b2f63198a81b05cff2149c6eaae1784466a6d062b4391900f21906128349084908790615b60565b6071546001600160a01b031690565b6001600160a01b038116600090815260ac60205260408120546130d29060ff1660038111156130cd576130cd615943565b61454f565b1592915050565b7fb53127684a568b3173ae13b9f8a6016e243e63b6e8ee1178d6a717850b5d6103546001600160a01b031690565b6001811015613129576040516317b8970f60e01b815260040160405180910390fd5b60768190556040518181527f266d432ffe659e3565750d26ec685b822a58041eee724b67a5afec3168a25267906020015b60405180910390a150565b6001600160a01b03919091166000908152603960209081526040808320938352929052205460ff1690565b60008160038111156131a4576131a4615943565b8360038111156131b6576131b6615943565b1660ff1615159392505050565b6000610ccb6201518083615bd1565b6001600160a01b03919091166000908152603a6020526040902054101590565b607080546001600160a01b0319166001600160a01b0383161790556040517faa5b07dd43aa44c69b70a6a2b9c3fcfed12b6e5f6323596ba7ac91035ab80a4f9061315a9083906155fe565b60008183101561324d5781611172565b5090919050565b6001600160a01b03919091166000908152603760209081526040808320938352929052205460ff1690565b607180546001600160a01b0319166001600160a01b0383161790556040517f6397f5b135542bb3f477cb346cfab5abdec1251d08dc8f8d4efb4ffe122ea0bf9061315a9083906155fe565b606d80546001600160a01b0319166001600160a01b0383161790556040517fc328090a37d855191ab58469296f98f87a851ca57d5cdfd1e9ac3c83e9e7096d9061315a9083906155fe565b606f80546001600160a01b0319166001600160a01b0383161790556040517f31a33f126a5bae3c5bdf6cfc2cd6dcfffe2fe9634bdb09e21c44762993889e3b9061315a9083906155fe565b606e80546001600160a01b0319166001600160a01b0383161790556040517f034c8da497df28467c79ddadbba1cc3cdd41f510ea73faae271e6f16a61116219061315a9083906155fe565b60a880546001600160a01b0319166001600160a01b0383161790556040517ffd6f5f93d69a07c593a09be0b208bff13ab4ffd6017df3b33433d63bdc59b4d79061315a9083906155fe565b60a98190556040518181527fb5464c05fd0e0f000c535850116cda2742ee1f7b34384cb920ad7b8e802138b59060200161315a565b60728190556040518181527f82d5dc32d1b741512ad09c32404d7e7921e8934c6222343d95f55f7a2b9b2ab49060200161315a565b60a954811115613483576040516355408ce960e11b815260040160405180910390fd5b60ad8190556040518181527fa9588dc77416849bd922605ce4fc806712281ad8a8f32d4238d6c8cca548e15e9060200161315a565b60e58190556040518181527f17a6c3eb965cdd7439982da25abf85be88f0f772ca33198f548e2f99fee0289a9060200161315a565b60e68190556040518181527f0a50c66137118f386332efb949231ddd3946100dbf880003daca37ddd9e0662b9060200161315a565b6000610ccb8261456d565b6000610ccb82436131d2565b600081831061324d5781611172565b606e5460405163889998ef60e01b8152600481018490526000916001600160a01b03169063889998ef90602401602060405180830381865afa158015613592573d6000803e3d6000fd5b505050506040513d601f19601f820116820180604052508101906135b69190615acd565b606e5460405163033cdc2b60e31b8152600481018690529192506000916001600160a01b03909116906319e6e15890602401602060405180830381865afa158015613605573d6000803e3d6000fd5b505050506040513d601f19601f820116820180604052508101906136299190615acd565b606e549091506000906001600160a01b031663f67e81528661364a87611713565b6040518363ffffffff1660e01b8152600401613667929190615c31565b600060405180830381865afa158015613684573d6000803e3d6000fd5b505050506040513d6000823e601f3d908101601f191682016040526136ac9190810190615c52565b90506136b9838383614592565b15806136c3575081155b156137405760005b845181101561373857845160e2546136e39190615bd1565b60e360008784815181106136f9576136f9615a07565b60200260200101516001600160a01b03166001600160a01b0316815260200190815260200160002081905550808061373090615a33565b9150506136cb565b505050505050565b600080600080607060009054906101000a90046001600160a01b03166001600160a01b0316631079402a6040518163ffffffff1660e01b8152600401608060405180830381865afa158015613799573d6000803e3d6000fd5b505050506040513d601f19601f820116820180604052508101906137bd9190615b6e565b9296509094509250905080861160005b89518110156138c657888782815181106137e9576137e9615a07565b602002602001015160e2546137fe9190615ba4565b6138089190615bd1565b60e360008c848151811061381e5761381e615a07565b60200260200101516001600160a01b03166001600160a01b031681526020019081526020016000208190555081156138b4576138b48b8b838151811061386657613866615a07565b60200260200101518a6127108b868151811061388457613884615a07565b60200260200101516138969190615ba4565b6138a09190615bd1565b6138ac90612710615a4c565b878a8a61464b565b806138be81615a33565b9150506137cd565b5050505050505050505050565b6000606060008084516001600160401b038111156138f3576138f36156e9565b60405190808252806020026020018201604052801561391c578160200160208202803683370190505b50925060005b8551811015613af55785818151811061393d5761393d615a07565b6020908102919091018101516001600160a01b03808216600090815260759093526040909220600201549094501691506139778388613165565b6139aa576001600160a01b038084166000908152607560205260409020600301546139a591859116846148b8565b6139dc565b6001600160a01b038316600090815260e3602052604081205460e48054919290916139d6908490615a5f565b90915550505b6139e58361352d565b1580156139f957506139f78388613254565b155b15613a6d576001600160a01b038316600090815260e16020526040902054613a219086615a5f565b6001600160a01b038416600090815260e16020526040902054855191965090859083908110613a5257613a52615a07565b602002602001018181525050613a688383614995565b613ab3565b6001600160a01b038316600090815260e1602090815260408083205460e090925290912054613a9c9190615a5f565b60e46000828254613aad9190615a5f565b90915550505b6001600160a01b038316600090815260e16020908152604080832083905560e0825280832083905560e390915281205580613aed81615a33565b915050613922565b5060e26000905550509250929050565b6071546001600160a01b03168215612e5b57613b218184614a5d565b15613bc95760405163566bce2360e11b81526001600160a01b0382169063acd79c4690613b5690879086908a90600401615d07565b600060405180830381600087803b158015613b7057600080fd5b505af1158015613b84573d6000803e3d6000fd5b505050507f9e242ca1ef9dde96eb71ef8d19a3f0f6a619b63e4c0d3998771387103656d087838584604051613bbb93929190615d3d565b60405180910390a150613c08565b7fe5668ec1bb2b6bb144a50f810e388da4b1d7d3fc05fcb9d588a1aac59d248f8983858447604051613bfe9493929190615d72565b60405180910390a1505b50505050565b60e754600080805b83831015613c085760e78381548110613c3157613c31615a07565b60009182526020808320909101546001600160a01b031680835260e89091526040909120600181015491935091504210613d5757805460e48054600090613c79908490615a5f565b90915550506001600160a01b038216600090815260e860205260408120818155600101819055613ca885615daf565b9450841115613d1f5760e78481548110613cc457613cc4615a07565b60009182526020909120015460e780546001600160a01b039092169185908110613cf057613cf0615a07565b9060005260206000200160006101000a8154816001600160a01b0302191690836001600160a01b031602179055505b60e7805480613d3057613d30615c1b565b600082815260209020810160001990810180546001600160a01b0319169055019055613c16565b82613d6181615a33565b935050613c16565b60e4548015611030576000613d7c611579565b600060e481905560408051600481526024810182526020810180516001600160e01b03166359f778df60e01b179052905192935090916001600160a01b038416918591613dc99190615dc6565b60006040518083038185875af1925050503d8060008114613e06576040519150601f19603f3d011682016040523d82523d6000602084013e613e0b565b606091505b505090508015613e5057816001600160a01b03167fc447c884574da5878be39c403db2245c22530c99b579ea7bcbb3720e1d110dc884604051611bca91815260200190565b816001600160a01b03167fa0561a59abed308fcd0556834574739d778cc6229018039a24ddda0f86aa0b738447604051611bca929190615b60565b606080613e9783614ab9565b6071546040516391f8723f60e01b81529192506000916001600160a01b03909116906391f8723f90613ece90607390600401615df5565b600060405180830381865afa158015613eeb573d6000803e3d6000fd5b505050506040513d6000823e601f3d908101601f19168201604052613f139190810190615c52565b60a854604051632907e73160e11b81529192506000916001600160a01b039091169063520fce6290613f4a90607390600401615df5565b600060405180830381865afa158015613f67573d6000803e3d6000fd5b505050506040513d6000823e601f3d908101601f19168201604052613f8f9190810190615c52565b90506000613ffe6073805480602002602001604051908101604052809291908181526020018280548015613fec57602002820191906000526020600020905b81546001600160a01b03168152600190910190602001808311613fce575b5050505050848460a95460ad54614fac565b909550905061400e858288615076565b505050915091565b606f546000906001600160a01b031663fdadda8183614036436001615a5f565b6040518363ffffffff1660e01b8152600401614053929190615be5565b600060405180830381865afa158015614070573d6000803e3d6000fd5b505050506040513d6000823e601f3d908101601f191682016040526140989190810190615e39565b905060005b82518110156143545760008382815181106140ba576140ba615a07565b6020908102919091018101516001600160a01b0381166000908152603b9092526040822054909250421115906140ef83611fea565b905060006140fc8461352d565b8061411d575085858151811061411457614114615a07565b60200260200101515b806141255750825b159050811580156141335750805b156141ae576001600160a01b038416600090815260ac60205260409020546141729060019060ff16600381111561416c5761416c615943565b906151d4565b6001600160a01b038516600090815260ac60205260409020805460ff191660018360038111156141a4576141a4615943565b0217905550614230565b8180156141b9575080155b15614230576001600160a01b038416600090815260ac60205260409020546141f89060019060ff1660038111156141f2576141f2615943565b9061520f565b6001600160a01b038516600090815260ac60205260409020805460ff1916600183600381111561422a5761422a615943565b02179055505b600061423b85611179565b905083158115801561424a5750805b156142bf576001600160a01b038616600090815260ac60205260409020546142839060029060ff16600381111561416c5761416c615943565b6001600160a01b038716600090815260ac60205260409020805460ff191660018360038111156142b5576142b5615943565b021790555061433b565b8180156142ca575080155b1561433b576001600160a01b038616600090815260ac60205260409020546143039060029060ff1660038111156141f2576141f2615943565b6001600160a01b038716600090815260ac60205260409020805460ff1916600183600381111561433557614335615943565b02179055505b505050505050808061434c90615a33565b91505061409d565b5082847f283b50d76057d5f828df85bc87724c6af604e9b55c363a07c9faa2a2cd688b82614380611874565b60405161438d9190615834565b60405180910390a382847f773d1888df530d69716b183a92450d45f97fba49f2a4bb34fae3b23da0e2cc6f6143c0612357565b6040516143cd9190615834565b60405180910390a350505050565b6000600154826143eb9190615bd1565b610ccb906001615a5f565b600182015461440d906001600160a01b031661256f565b61442a5760405163a64b34ad60e01b815260040160405180910390fd5b6005820181905560018201546040518281526001600160a01b03909116907fb9a1e33376bfbda9092f2d1e37662c1b435aab0d3fa8da3acc8f37ee222f99e790602001611143565b6000836001600160a01b0316838390604051600060405180830381858888f193505050503d80600081146144c2576040519150601f19603f3d011682016040523d82523d6000602084013e6144c7565b606091505b509095945050505050565b60a85460405163107fbb4760e21b815260009182916001600160a01b03909116906341feed1c906145079086906004016155fe565b602060405180830381865afa158015614524573d6000803e3d6000fd5b505050506040513d601f19601f820116820180604052508101906145489190615acd565b1192915050565b600081600381111561456357614563615943565b60ff161592915050565b6001600160a01b03808216600090815260756020526040812060030154909116610ccb565b60016000805b835181101561460457848482815181106145b4576145b4615a07565b602002602001015111156145cb5760009250614604565b8381815181106145dd576145dd615a07565b6020026020010151826145f09190615a5f565b9150806145fc81615a33565b915050614598565b508180156146125750848111155b915081614643576040517f64ba7143ea5a17abea37667aa9ae137e3afba5033c5f504770c02829c128189c90600090a15b509392505050565b8084106147d4576001600160a01b03851660008181526039602090815260408083208a845282528083208054600160ff199182168117909255948452603783528184208b855290925290912080549092161790556146ca6146ac8443615a5f565b6001600160a01b0387166000908152603a602052604090205461323d565b6001600160a01b0386166000908152603a602052604090205561470e6146f08443615a5f565b6001600160a01b0387166000908152603c602052604090205461323d565b6001600160a01b038087166000908152603c60205260409081902092909255607054915163c008ce3960e01b815291169063c008ce39906147589088906002908b90600401615ec7565b600060405180830381600087803b15801561477257600080fd5b505af1158015614786573d6000803e3d6000fd5b5050506001600160a01b0386166000818152603a60205260408082205490518a9450600080516020615f77833981519152926147c792916001908190615ae6565b60405180910390a3613738565b818410613738576001600160a01b0380861660009081526039602090815260408083208a845290915290819020805460ff19166001908117909155607054915163c008ce3960e01b8152919092169163c008ce39916148399189918b90600401615ec7565b600060405180830381600087803b15801561485357600080fd5b505af1158015614867573d6000803e3d6000fd5b5050506001600160a01b0386166000818152603a60205260408082205490518a9450600080516020615f77833981519152926148a892918190600190615ae6565b60405180910390a3505050505050565b6001600160a01b038316600090815260e360205260409020548015613c08576148e482826104b0614472565b1561494657816001600160a01b0316836001600160a01b0316856001600160a01b03167f72a57dc38837a1cba7881b7b1a5594d9e6b65cec6a985b54e2cee3e89369691c8460405161493891815260200190565b60405180910390a450505050565b816001600160a01b0316836001600160a01b0316856001600160a01b03167fd35d76d87d51ed89407fc7ceaaccf32cf72784b94530892ce33546540e141b728447604051614938929190615b60565b6001600160a01b038216600090815260e060205260409020548015612f55576149c182826104b0614472565b15614a1857816001600160a01b0316836001600160a01b03167f1ce7a1c4702402cd393500acb1de5bd927727a54e144a587d328f1b679abe4ec83604051614a0b91815260200190565b60405180910390a3505050565b816001600160a01b0316836001600160a01b03167f6c69e09ee5c5ac33c0cd57787261c5bade070a392ab34a4b5487c6868f723f6e8347604051614a0b929190615b60565b6000826001600160a01b03168260405160006040518083038185875af1925050503d8060008114614aaa576040519150601f19603f3d011682016040523d82523d6000602084013e614aaf565b606091505b5090949350505050565b6071546040805163af24542960e01b815290516060926001600160a01b031691600091839163af2454299160048083019260209291908290030181865afa158015614b08573d6000803e3d6000fd5b505050506040513d601f19601f82011682018060405250810190614b2c9190615acd565b90506000826001600160a01b031663909791dd6040518163ffffffff1660e01b8152600401602060405180830381865afa158015614b6e573d6000803e3d6000fd5b505050506040513d601f19601f82011682018060405250810190614b929190615acd565b90506000836001600160a01b03166342ef3c3460736040518263ffffffff1660e01b8152600401614bc39190615df5565b600060405180830381865afa158015614be0573d6000803e3d6000fd5b505050506040513d6000823e601f3d908101601f19168201604052614c089190810190615c52565b6073549091506000816001600160401b03811115614c2857614c286156e9565b604051908082528060200260200182016040528015614c51578160200160208202803683370190505b50965060008060005b84831015614efd5760738381548110614c7557614c75615a07565b60009182526020808320909101546001600160a01b031680835260759091526040909120600681015488519294509092501515908890889086908110614cbd57614cbd615a07565b60200260200101511015614d195780614d14576000614cdc8a42615a5f565b600684018190556040518181529091506001600160a01b03851690600080516020615f378339815191529060200160405180910390a2505b614d5a565b8015614d5a578160060160009055826001600160a01b0316600080516020615f378339815191526000604051614d5191815260200190565b60405180910390a25b60008260050154600014158015614d75575042836005015411155b80614d9857506001600160a01b038416600090815260e9602052604090205460ff165b905060008360060154600014158015614db5575042846006015411155b90508180614dc05750805b15614e565788614dcf89615daf565b98508881518110614de257614de2615a07565b6020026020010151898781518110614dfc57614dfc615a07565b6020908102919091010152848d88614e1381615a33565b995081518110614e2557614e25615a07565b60200260200101906001600160a01b031690816001600160a01b031681525050614e4e8561524b565b505050614c5a565b6001600160a01b0385166000908152607760205260409020548015801590614e7e5750428111155b15614ee7576001600160a01b0386166000818152607760209081526040808320600181018054918590559390935560048901839055518281529192917f86d576c20e383fc2413ef692209cc48ddad5e52f25db5b32f8f7ec5076461ae9910160405180910390a2505b86614ef181615a33565b97505050505050614c5a565b5050508087528015614fa1577f4eaf233b9dc25a5552c1927feee1412eea69add17c2485c831c2e60e234f3c9187604051614f389190615834565b60405180910390a160405163e22d1c9d60e01b81526001600160a01b0387169063e22d1c9d90614f6e908a908c90600401615be5565b600060405180830381600087803b158015614f8857600080fd5b505af1158015614f9c573d6000803e3d6000fd5b505050505b505050505050919050565b60606000806068905060008888888888604051602401614fd0959493929190615ee8565b60408051601f19818403018152919052602080820180516001600160e01b0316633bca0a8960e11b17905281518b51929350600192909160009161501391615ba4565b61501e906040615a5f565b90506020840181888483895afa61503457600093505b503d61503f57600092505b6020870196508261506357604051630fc2632160e01b815260040160405180910390fd5b8651955050505050509550959350505050565b815b60aa548110156150d457600081815260ab6020818152604080842080546001600160a01b0316855260ac8352908420805460ff19169055928490525280546001600160a01b0319169055806150cc81615a33565b915050615078565b5060005b8281101561511e57600081815260ab60209081526040808320546001600160a01b0316835260ac9091529020805460ff191690558061511681615a33565b9150506150d8565b5060005b8281101561519c57600084828151811061513e5761513e615a07565b6020908102919091018101516001600160a01b0316600081815260ac83526040808220805460ff1916600317905585825260ab9093529190912080546001600160a01b0319169091179055508061519481615a33565b915050615122565b508160aa81905550807f3d0eea40644a206ec25781dd5bb3b60eb4fa1264b993c3bddf3c73b14f29ef5e84604051611bca9190615834565b60008160038111156151e8576151e8615943565b8360038111156151fa576151fa615943565b1760ff16600381111561117257611172615943565b600081600381111561522357615223615943565b1983600381111561523657615236615943565b1660ff16600381111561117257611172615943565b6001600160a01b038116600090815260e960209081526040808320805460ff19169055607490915281205461103091839190819003615288575050565b6001600160a01b038216600090815260756020908152604080832080546001600160a01b03199081168255600180830180548316905560028301805483169055600383018054909216909155600482018590556005820185905560069091018490556074835281842084905560779092528220828155810182905560738054909161531291615a4c565b8154811061532257615322615a07565b6000918252602090912001546001600160a01b039081169150831681146153a5576001600160a01b038116600090815260746020526040902082905560738054829190841990811061537657615376615a07565b9060005260206000200160006101000a8154816001600160a01b0302191690836001600160a01b031602179055505b60738054806153b6576153b6615c1b565b600082815260209020810160001990810180546001600160a01b0319169055019055505050565b6040805160e081018252600080825260208201819052918101829052606081018290526080810182905260a0810182905260c081019190915290565b6001600160a01b038116811461103057600080fd5b6000806040838503121561544157600080fd5b823561544c81615419565b9150602083013561545c81615419565b809150509250929050565b600080600080600060a0868803121561547f57600080fd5b853561548a81615419565b9450602086013561549a81615419565b935060408601356154aa81615419565b925060608601356154ba81615419565b949793965091946080013592915050565b600080604083850312156154de57600080fd5b82356154e981615419565b946020939093013593505050565b60006020828403121561550957600080fd5b5035919050565b60006020828403121561552257600080fd5b813561117281615419565b60018060a01b03808251168352806020830151166020840152806040830151166040840152806060830151166060840152506080810151608083015260a081015160a083015260c081015160c08301525050565b60e08101610ccb828461552d565b815181526020808301519082015260408101610ccb565b801515811461103057600080fd5b600080600080608085870312156155ca57600080fd5b84356155d581615419565b9350602085013592506040850135915060608501356155f3816155a6565b939692955090935050565b6001600160a01b0391909116815260200190565b8060408101831015610ccb57600080fd5b6000806000806000806000806000806000806101a08d8f03121561564657600080fd5b8c3561565181615419565b9b5060208d013561566181615419565b9a5060408d013561567181615419565b995060608d013561568181615419565b985060808d013561569181615419565b975060a08d01356156a181615419565b965060c08d0135955060e08d013594506101008d013593506101208d013592506101408d013591506156d78e6101608f01615612565b90509295989b509295989b509295989b565b634e487b7160e01b600052604160045260246000fd5b604051601f8201601f191681016001600160401b0381118282101715615727576157276156e9565b604052919050565b60006001600160401b03821115615748576157486156e9565b5060051b60200190565b6000602080838503121561576557600080fd5b82356001600160401b0381111561577b57600080fd5b8301601f8101851361578c57600080fd5b803561579f61579a8261572f565b6156ff565b81815260059190911b820183019083810190878311156157be57600080fd5b928401925b828410156157e55783356157d681615419565b825292840192908401906157c3565b979650505050505050565b600081518084526020808501945080840160005b838110156158295781516001600160a01b031687529582019590820190600101615804565b509495945050505050565b60208152600061117260208301846157f0565b6000806020838503121561585a57600080fd5b82356001600160401b038082111561587157600080fd5b818501915085601f83011261588557600080fd5b81358181111561589457600080fd5b8660208260051b85010111156158a957600080fd5b60209290920196919550909350505050565b6020808252825182820181905260009190848201906040850190845b818110156158f55783511515835292840192918401916001016158d7565b50909695505050505050565b6020808252825182820181905260009190848201906040850190845b818110156158f55761593083855161552d565b9284019260e0929092019160010161591d565b634e487b7160e01b600052602160045260246000fd5b60608152600061596c60608301866157f0565b60208382038185015261597f82876157f0565b8481036040860152855180825282870193509082019060005b818110156159c4578451600481106159b2576159b2615943565b83529383019391830191600101615998565b509098975050505050505050565b6000806000606084860312156159e757600080fd5b83356159f281615419565b95602085013595506040909401359392505050565b634e487b7160e01b600052603260045260246000fd5b634e487b7160e01b600052601160045260246000fd5b600060018201615a4557615a45615a1d565b5060010190565b81810381811115610ccb57610ccb615a1d565b80820180821115610ccb57610ccb615a1d565b60208082526022908201527f48617350726f787941646d696e3a20756e617574686f72697a65642073656e6460408201526132b960f11b606082015260800190565b6001600160a01b03929092168252602082015260400190565b600060208284031215615adf57600080fd5b5051919050565b9384526020840192909252151560408301521515606082015260800190565b600080600060608486031215615b1a57600080fd5b8351615b25816155a6565b602085015160409095015190969495509392505050565b8281526040810160038310615b5357615b53615943565b8260208301529392505050565b918252602082015260400190565b60008060008060808587031215615b8457600080fd5b505082516020840151604085015160609095015191969095509092509050565b8082028115828204841417610ccb57610ccb615a1d565b634e487b7160e01b600052601260045260246000fd5b600082615be057615be0615bbb565b500490565b604081526000615bf860408301856157f0565b90508260208301529392505050565b600082615c1657615c16615bbb565b500690565b634e487b7160e01b600052603160045260246000fd5b828152604060208201526000615c4a60408301846157f0565b949350505050565b60006020808385031215615c6557600080fd5b82516001600160401b03811115615c7b57600080fd5b8301601f81018513615c8c57600080fd5b8051615c9a61579a8261572f565b81815260059190911b82018301908381019087831115615cb957600080fd5b928401925b828410156157e557835182529284019290840190615cbe565b600081518084526020808501945080840160005b8381101561582957815187529582019590820190600101615ceb565b606081526000615d1a60608301866157f0565b8281036020840152615d2c8186615cd7565b915050826040830152949350505050565b838152606060208201526000615d5660608301856157f0565b8281036040840152615d688185615cd7565b9695505050505050565b848152608060208201526000615d8b60808301866157f0565b8281036040840152615d9d8186615cd7565b91505082606083015295945050505050565b600081615dbe57615dbe615a1d565b506000190190565b6000825160005b81811015615de75760208186018101518583015201615dcd565b506000920191825250919050565b6020808252825482820181905260008481528281209092916040850190845b818110156158f55783546001600160a01b031683526001938401939285019201615e14565b60006020808385031215615e4c57600080fd5b82516001600160401b03811115615e6257600080fd5b8301601f81018513615e7357600080fd5b8051615e8161579a8261572f565b81815260059190911b82018301908381019087831115615ea057600080fd5b928401925b828410156157e5578351615eb8816155a6565b82529284019290840190615ea5565b6001600160a01b039390931683526020830191909152604082015260600190565b60a081526000615efb60a08301886157f0565b8281036020840152615f0d8188615cd7565b90508281036040840152615f218187615cd7565b6060840195909552505060800152939250505056fe88f854e137380c14d63f6ed99781bf13402167cf55bac49bcd44d4f2d6a342754042bb9a70998f80a86d9963f0d2132e9b11c8ad94d207c6141c8e34b05ce53e54ce99c5ce1fc9f61656d4a0fb2697974d0c973ac32eecaefe06fcf18b8ef68aa264697066735822122056ba1e30ea69f53e18ae0fcc8fb00b1ee0eb05eb676c1c7bf5666f712fa8752264736f6c63430008110033",
  "devdoc": {
    "errors": {
      "ErrAlreadyRequestedEmergencyExit()": [
        {
          "details": "Error of already requested emergency exit before."
        }
      ],
      "ErrAlreadyRequestedRevokingCandidate()": [
        {
          "details": "Error of already requested revoking candidate before."
        }
      ],
      "ErrAlreadyRequestedUpdatingCommissionRate()": [
        {
          "details": "Error of commission change schedule exists."
        }
      ],
      "ErrAlreadyWrappedEpoch()": [
        {
          "details": "Error of query for already wrapped up epoch"
        }
      ],
      "ErrAtEndOfEpochOnly()": [
        {
          "details": "Error of only allowed at the end of epoch"
        }
      ],
      "ErrCallPrecompiled()": [
        {
          "details": "Error of call to precompile fails."
        }
      ],
      "ErrCallerMustBeBridgeTrackingContract()": [
        {
          "details": "Error of method caller must be bridge tracking contract."
        }
      ],
      "ErrCallerMustBeCoinbase()": [
        {
          "details": "Error of method caller must be coinbase"
        }
      ],
      "ErrCallerMustBeMaintenanceContract()": [
        {
          "details": "Error of method caller must be maintenance contract."
        }
      ],
      "ErrCallerMustBeRoninTrustedOrgContract()": [
        {
          "details": "Error of method caller must be Ronin trusted org contract."
        }
      ],
      "ErrCallerMustBeSlashIndicatorContract()": [
        {
          "details": "Error of method caller must be slash indicator contract."
        }
      ],
      "ErrCallerMustBeStakingContract()": [
        {
          "details": "Error of method caller must be staking contract."
        }
      ],
      "ErrCallerMustBeStakingVestingContract()": [
        {
          "details": "Error of method caller must be staking vesting contract."
        }
      ],
      "ErrCannotBailout(address)": [
        {
          "details": "Error of cannot bailout due to high tier slash."
        }
      ],
      "ErrExceedsMaxNumberOfCandidate()": [
        {
          "details": "Error of exceeding maximum number of candidates."
        }
      ],
      "ErrExistentBridgeOperator(address)": [
        {
          "details": "Error of bridge operator already exists."
        }
      ],
      "ErrExistentCandidate()": [
        {
          "details": "Error of querying for already existent candidate."
        }
      ],
      "ErrExistentCandidateAdmin(address)": [
        {
          "details": "Error of candidate admin already exists."
        }
      ],
      "ErrExistentTreasury(address)": [
        {
          "details": "Error of treasury already exists."
        }
      ],
      "ErrInsufficientBalance()": [
        {
          "details": "Error of sender has insufficient balance."
        }
      ],
      "ErrInvalidCommissionRate()": [
        {
          "details": "Error of invalid commission rate."
        }
      ],
      "ErrInvalidEffectiveDaysOnwards()": [
        {
          "details": "Error of invalid effective days onwards."
        }
      ],
      "ErrInvalidMaxPrioritizedValidatorNumber()": [
        {
          "details": "Error of number of prioritized greater than number of max validators."
        }
      ],
      "ErrInvalidMinEffectiveDaysOnwards()": [
        {
          "details": "Error of invalid min effective days onwards."
        }
      ],
      "ErrNonExistentCandidate()": [
        {
          "details": "Error of querying for non-existent candidate."
        }
      ],
      "ErrRecipientRevert()": [
        {
          "details": "Error of recipient not accepting RON when transfer RON."
        }
      ],
      "ErrTrustedOrgCannotRenounce()": [
        {
          "details": "Error of trusted org cannot renounce."
        }
      ],
      "ErrUnauthorizedReceiveRON()": [
        {
          "details": "Error thrown when receives RON from neither staking vesting contract nor staking contract"
        }
      ],
      "ErrZeroCodeContract()": [
        {
          "details": "Error of set to non-contract."
        }
      ],
      "NonExistentRecyclingInfo()": [
        {
          "details": "Error thrown when queries for a non existent info."
        }
      ]
    },
    "kind": "dev",
    "methods": {
      "bridgeTrackingContract()": {
        "details": "Returns the bridge tracking contract."
      },
      "checkBridgeRewardDeprecatedAtLatestPeriod(address)": {
        "details": "Because the information of deprecating bridge reward of a period is only determined at the end of that period, this method will return the deprecating info of the latest period. A method for querying that info of current period is no need."
      },
      "checkBridgeRewardDeprecatedAtPeriod(address,uint256)": {
        "details": "Returns whether the incoming reward of the validator with `_consensusAddr` is deprecated in the  `_period`."
      },
      "checkJailed(address)": {
        "details": "Returns whether the validator are put in jail (cannot join the set of validators) during the current period."
      },
      "checkJailedAtBlock(address,uint256)": {
        "details": "Returns whether the validator are put in jail (cannot join the set of validators) at a specific block."
      },
      "checkManyJailed(address[])": {
        "details": "Returns whether the validators are put in jail (cannot join the set of validators) during the current period."
      },
      "checkMiningRewardDeprecated(address)": {
        "details": "Returns whether the incoming reward of the block producer is deprecated during the current period."
      },
      "checkMiningRewardDeprecatedAtPeriod(address,uint256)": {
        "details": "Returns whether the incoming reward of the block producer is deprecated during a specific period."
      },
      "currentPeriod()": {
        "details": "Returns the period index from the current block."
      },
      "currentPeriodStartAtBlock()": {
        "details": "Returns the block number that the current period starts at."
      },
      "emergencyExitLockedAmount()": {
        "details": "Returns the amount of RON to lock from a consensus address."
      },
      "emergencyExpiryDuration()": {
        "details": "Returns the duration that an emergency request is expired and the fund will be recycled."
      },
      "epochEndingAt(uint256)": {
        "details": "Returns whether the epoch ending is at the block number `_block`."
      },
      "epochOf(uint256)": {
        "details": "Returns the epoch index from the block number."
      },
      "execApplyValidatorCandidate(address,address,address,address,uint256)": {
        "details": "Grants a validator candidate. Requirements: - The method caller is staking contract. Emits the event `CandidateGranted`."
      },
      "execBailOut(address,uint256)": {
        "details": "Finalize the bailout request from slash indicator contract. Requirements: - The method caller is slash indicator contract. Emits the event `ValidatorUnjailed`."
      },
      "execEmergencyExit(address,uint256)": {
        "details": "Fallback function of `IStaking-requestEmergencyExit`. Requirements: - The method caller is staking contract."
      },
      "execReleaseLockedFundForEmergencyExitRequest(address,address)": {
        "details": "Unlocks fund for emergency exit request. Requirements: - The method caller is admin. Emits the event `EmergencyExitLockedFundReleased` if the fund is successfully unlocked. Emits the event `EmergencyExitLockedFundReleasingFailed` if the fund is failed to unlock."
      },
      "execRequestRenounceCandidate(address,uint256)": {
        "details": "Requests to revoke a validator candidate in next `_secsLeft` seconds. Requirements: - The method caller is staking contract. Emits the event `CandidateRevokingTimestampUpdated`."
      },
      "execRequestUpdateCommissionRate(address,uint256,uint256)": {
        "details": "Fallback function of `CandidateStaking-requestUpdateCommissionRate`. Requirements: - The method caller is the staking contract. - The `_effectiveTimestamp` must be the beginning of a UTC day, and at least from 7 days onwards - The `_rate` must be in range of [0_00; 100_00]. Emits the event `CommissionRateUpdateScheduled`."
      },
      "execSlash(address,uint256,uint256,bool)": {
        "details": "Finalize the slash request from slash indicator contract. Requirements: - The method caller is slash indicator contract. Emits the event `ValidatorPunished`."
      },
      "getBlockProducers()": {
        "details": "Returns the current block producer list."
      },
      "getBridgeOperators()": {
        "details": "Returns the current bridge operator list."
      },
      "getBridgeOperatorsOf(address[])": {
        "details": "Returns the bridge operator list corresponding to validator address list."
      },
      "getCandidateInfo(address)": {
        "details": "Returns the info of a candidate."
      },
      "getCandidateInfos()": {
        "details": "Returns all candidate info."
      },
      "getCommissionChangeSchedule(address)": {
        "details": "Returns the schedule of changing commission rate of a candidate address."
      },
      "getEmergencyExitInfo(address)": {
        "details": "Returns the emergency exit request."
      },
      "getJailedTimeLeft(address)": {
        "details": "Returns whether the validator are put in jail and the number of block and epoch that he still is in the jail."
      },
      "getJailedTimeLeftAtBlock(address,uint256)": {
        "details": "Returns whether the validator are put in jail at a specific block and the number of block and epoch that he still is in the jail."
      },
      "getLastUpdatedBlock()": {
        "details": "Returns the block that validator set was updated."
      },
      "getValidatorCandidates()": {
        "details": "Returns the validator candidate."
      },
      "getValidators()": {
        "details": "Returns the current validator list."
      },
      "initialize(address,address,address,address,address,address,uint256,uint256,uint256,uint256,uint256,uint256[2])": {
        "details": "Initializes the contract storage."
      },
      "isBlockProducer(address)": {
        "details": "Returns whether the address is block producer or not."
      },
      "isBridgeOperator(address)": {
        "details": "Returns whether the address is bridge operator."
      },
      "isCandidateAdmin(address,address)": {
        "details": "Returns whether the address is the candidate admin."
      },
      "isOperatingBridge(address)": {
        "details": "Returns whether the consensus address is operating the bridge or not."
      },
      "isPeriodEnding()": {
        "details": "Returns whether the period ending at the current block number."
      },
      "isValidator(address)": {
        "details": "Returns whether the address is either a bridge operator or a block producer."
      },
      "isValidatorCandidate(address)": {
        "details": "Returns whether the address is a validator (candidate)."
      },
      "maintenanceContract()": {
        "details": "Returns the maintenance contract."
      },
      "maxPrioritizedValidatorNumber()": {
        "details": "Returns the number of reserved slots for prioritized validators."
      },
      "maxValidatorCandidate()": {
        "details": "Returns the maximum number of validator candidate."
      },
      "maxValidatorNumber()": {
        "details": "Returns the maximum number of validators in the epoch."
      },
      "minEffectiveDaysOnwards()": {
        "details": "Returns the minimum number of days to the effective date of commission rate change."
      },
      "numberOfBlocksInEpoch()": {
        "details": "Returns the number of blocks in a epoch."
      },
      "precompilePickValidatorSetAddress()": {
        "details": "Gets the address of the precompile of picking validator set"
      },
      "precompileSortValidatorsAddress()": {
        "details": "Gets the address of the precompile of sorting validators"
      },
      "roninTrustedOrganizationContract()": {
        "details": "Returns the ronin trusted organization contract."
      },
      "setBridgeTrackingContract(address)": {
        "details": "Sets the bridge tracking contract. Requirements: - The method caller is admin. - The new address is a contract. Emits the event `BridgeTrackingContractUpdated`."
      },
      "setEmergencyExitLockedAmount(uint256)": {
        "details": "Sets the amount of RON to lock from a consensus address. Requirements: - The method caller is admin. Emits the event `EmergencyExitLockedAmountUpdated`."
      },
      "setEmergencyExpiryDuration(uint256)": {
        "details": "Sets the duration that an emergency request is expired and the fund will be recycled. Requirements: - The method caller is admin. Emits the event `EmergencyExpiryDurationUpdated`."
      },
      "setMaintenanceContract(address)": {
        "details": "Sets the maintenance contract. Requirements: - The method caller is admin. - The new address is a contract. Emits the event `MaintenanceContractUpdated`."
      },
      "setMaxPrioritizedValidatorNumber(uint256)": {
        "details": "Updates the number of reserved slots for prioritized validators Requirements: - The method caller is admin Emits the event `MaxPrioritizedValidatorNumberUpdated`"
      },
      "setMaxValidatorCandidate(uint256)": {
        "details": "Sets the maximum number of validator candidate. Requirements: - The method caller is admin. Emits the `MaxValidatorCandidateUpdated` event."
      },
      "setMaxValidatorNumber(uint256)": {
        "details": "Updates the max validator number Requirements: - The method caller is admin Emits the event `MaxValidatorNumberUpdated`"
      },
      "setMinEffectiveDaysOnwards(uint256)": {
        "details": "Sets the minimum number of days to the effective date of commision rate change. Requirements: - The method caller is admin. Emits the `MinEffectiveDaysOnwardsUpdated` event."
      },
      "setRoninTrustedOrganizationContract(address)": {
        "details": "Sets the ronin trusted organization contract. Requirements: - The method caller is admin. - The new address is a contract. Emits the event `RoninTrustedOrganizationContractUpdated`."
      },
      "setSlashIndicatorContract(address)": {
        "details": "Sets the slash indicator contract. Requirements: - The method caller is admin. - The new address is a contract. Emits the event `SlashIndicatorContractUpdated`."
      },
      "setStakingContract(address)": {
        "details": "Sets the staking contract. Requirements: - The method caller is admin. - The new address is a contract. Emits the event `StakingContractUpdated`."
      },
      "setStakingVestingContract(address)": {
        "details": "Sets the staking vesting contract. Requirements: - The method caller is admin. - The new address is a contract. Emits the event `StakingVestingContractUpdated`."
      },
      "slashIndicatorContract()": {
        "details": "Returns the slash indicator contract."
      },
      "stakingContract()": {
        "details": "Returns the staking contract."
      },
      "stakingVestingContract()": {
        "details": "Returns the staking vesting contract."
      },
      "submitBlockReward()": {
        "details": "Submits reward of the current block. Requirements: - The method caller is coinbase. Emits the event `MiningRewardDeprecated` if the coinbase is slashed or no longer be a block producer. Emits the event `BlockRewardSubmitted` for the valid call."
      },
      "totalBlockProducers()": {
        "details": "Returns total numbers of the block producers."
      },
      "totalBridgeOperators()": {
        "details": "Returns total numbers of the bridge operators."
      },
      "totalDeprecatedReward()": {
        "details": "Returns the total deprecated reward, which includes reward that is not sent for slashed validators and unsastified bridge operators"
      },
      "tryGetPeriodOfEpoch(uint256)": {
        "details": "Tries to get the period index from the epoch number."
      },
      "wrapUpEpoch()": {
        "details": "Wraps up the current epoch. Requirements: - The method must be called when the current epoch is ending. - The epoch is not wrapped yet. - The method caller is coinbase. Emits the event `MiningRewardDistributed` when some validator has reward distributed. Emits the event `StakingRewardDistributed` when some staking pool has reward distributed. Emits the event `BlockProducerSetUpdated` when the epoch is wrapped up. Emits the event `BridgeOperatorSetUpdated` when the epoch is wrapped up at period ending. Emits the event `ValidatorSetUpdated` when the epoch is wrapped up at period ending, and the validator set gets updated. Emits the event `WrappedUpEpoch`."
      }
    },
    "version": 1
  },
  "userdoc": {
    "kind": "user",
    "methods": {},
    "version": 1
  },
  "storageLayout": {
    "storage": [
      {
        "astId": 1373,
        "contract": "contracts/ronin/validator/RoninValidatorSet.sol:RoninValidatorSet",
        "label": "_initialized",
        "offset": 0,
        "slot": "0",
        "type": "t_uint8"
      },
      {
        "astId": 1376,
        "contract": "contracts/ronin/validator/RoninValidatorSet.sol:RoninValidatorSet",
        "label": "_initializing",
        "offset": 1,
        "slot": "0",
        "type": "t_bool"
      },
      {
        "astId": 33622,
        "contract": "contracts/ronin/validator/RoninValidatorSet.sol:RoninValidatorSet",
        "label": "_numberOfBlocksInEpoch",
        "offset": 0,
        "slot": "1",
        "type": "t_uint256"
      },
      {
        "astId": 33625,
        "contract": "contracts/ronin/validator/RoninValidatorSet.sol:RoninValidatorSet",
        "label": "_lastUpdatedBlock",
        "offset": 0,
        "slot": "2",
        "type": "t_uint256"
      },
      {
        "astId": 33628,
        "contract": "contracts/ronin/validator/RoninValidatorSet.sol:RoninValidatorSet",
        "label": "_lastUpdatedPeriod",
        "offset": 0,
        "slot": "3",
        "type": "t_uint256"
      },
      {
        "astId": 33631,
        "contract": "contracts/ronin/validator/RoninValidatorSet.sol:RoninValidatorSet",
        "label": "_currentPeriodStartAtBlock",
        "offset": 0,
        "slot": "4",
        "type": "t_uint256"
      },
      {
        "astId": 33636,
        "contract": "contracts/ronin/validator/RoninValidatorSet.sol:RoninValidatorSet",
        "label": "_periodOf",
        "offset": 0,
        "slot": "5",
        "type": "t_mapping(t_uint256,t_uint256)"
      },
      {
        "astId": 33641,
        "contract": "contracts/ronin/validator/RoninValidatorSet.sol:RoninValidatorSet",
        "label": "______gap",
        "offset": 0,
        "slot": "6",
        "type": "t_array(t_uint256)49_storage"
      },
      {
        "astId": 33268,
        "contract": "contracts/ronin/validator/RoninValidatorSet.sol:RoninValidatorSet",
        "label": "_miningRewardDeprecatedAtPeriod",
        "offset": 0,
        "slot": "55",
        "type": "t_mapping(t_address,t_mapping(t_uint256,t_bool))"
      },
      {
        "astId": 33275,
        "contract": "contracts/ronin/validator/RoninValidatorSet.sol:RoninValidatorSet",
        "label": "_miningRewardBailoutCutOffAtPeriod",
        "offset": 0,
        "slot": "56",
        "type": "t_mapping(t_address,t_mapping(t_uint256,t_bool))"
      },
      {
        "astId": 33282,
        "contract": "contracts/ronin/validator/RoninValidatorSet.sol:RoninValidatorSet",
        "label": "_bridgeRewardDeprecatedAtPeriod",
        "offset": 0,
        "slot": "57",
        "type": "t_mapping(t_address,t_mapping(t_uint256,t_bool))"
      },
      {
        "astId": 33287,
        "contract": "contracts/ronin/validator/RoninValidatorSet.sol:RoninValidatorSet",
        "label": "_blockProducerJailedBlock",
        "offset": 0,
        "slot": "58",
        "type": "t_mapping(t_address,t_uint256)"
      },
      {
        "astId": 33292,
        "contract": "contracts/ronin/validator/RoninValidatorSet.sol:RoninValidatorSet",
        "label": "_emergencyExitJailedTimestamp",
        "offset": 0,
        "slot": "59",
        "type": "t_mapping(t_address,t_uint256)"
      },
      {
        "astId": 33297,
        "contract": "contracts/ronin/validator/RoninValidatorSet.sol:RoninValidatorSet",
        "label": "_cannotBailoutUntilBlock",
        "offset": 0,
        "slot": "60",
        "type": "t_mapping(t_address,t_uint256)"
      },
      {
        "astId": 33302,
        "contract": "contracts/ronin/validator/RoninValidatorSet.sol:RoninValidatorSet",
        "label": "______gap",
        "offset": 0,
        "slot": "61",
        "type": "t_array(t_uint256)48_storage"
      },
      {
        "astId": 6972,
        "contract": "contracts/ronin/validator/RoninValidatorSet.sol:RoninValidatorSet",
        "label": "_stakingVestingContract",
        "offset": 0,
        "slot": "109",
        "type": "t_contract(IStakingVesting)10271"
      },
      {
        "astId": 6465,
        "contract": "contracts/ronin/validator/RoninValidatorSet.sol:RoninValidatorSet",
        "label": "_bridgeTrackingContract",
        "offset": 0,
        "slot": "110",
        "type": "t_contract(IBridgeTracking)9283"
      },
      {
        "astId": 6544,
        "contract": "contracts/ronin/validator/RoninValidatorSet.sol:RoninValidatorSet",
        "label": "_maintenanceContract",
        "offset": 0,
        "slot": "111",
        "type": "t_contract(IMaintenance)9657"
      },
      {
        "astId": 6814,
        "contract": "contracts/ronin/validator/RoninValidatorSet.sol:RoninValidatorSet",
        "label": "_slashIndicatorContract",
        "offset": 0,
        "slot": "112",
        "type": "t_contract(ISlashIndicator)10849"
      },
      {
        "astId": 6893,
        "contract": "contracts/ronin/validator/RoninValidatorSet.sol:RoninValidatorSet",
        "label": "_stakingContract",
        "offset": 0,
        "slot": "113",
        "type": "t_contract(IStaking)11483"
      },
      {
        "astId": 30031,
        "contract": "contracts/ronin/validator/RoninValidatorSet.sol:RoninValidatorSet",
        "label": "_maxValidatorCandidate",
        "offset": 0,
        "slot": "114",
        "type": "t_uint256"
      },
      {
        "astId": 30035,
        "contract": "contracts/ronin/validator/RoninValidatorSet.sol:RoninValidatorSet",
        "label": "_candidates",
        "offset": 0,
        "slot": "115",
        "type": "t_array(t_address)dyn_storage"
      },
      {
        "astId": 30040,
        "contract": "contracts/ronin/validator/RoninValidatorSet.sol:RoninValidatorSet",
        "label": "_candidateIndex",
        "offset": 0,
        "slot": "116",
        "type": "t_mapping(t_address,t_uint256)"
      },
      {
        "astId": 30046,
        "contract": "contracts/ronin/validator/RoninValidatorSet.sol:RoninValidatorSet",
        "label": "_candidateInfo",
        "offset": 0,
        "slot": "117",
        "type": "t_mapping(t_address,t_struct(ValidatorCandidate)11500_storage)"
      },
      {
        "astId": 30049,
        "contract": "contracts/ronin/validator/RoninValidatorSet.sol:RoninValidatorSet",
        "label": "_minEffectiveDaysOnwards",
        "offset": 0,
        "slot": "118",
        "type": "t_uint256"
      },
      {
        "astId": 30055,
        "contract": "contracts/ronin/validator/RoninValidatorSet.sol:RoninValidatorSet",
        "label": "_candidateCommissionChangeSchedule",
        "offset": 0,
        "slot": "119",
        "type": "t_mapping(t_address,t_struct(CommissionSchedule)11505_storage)"
      },
      {
        "astId": 30060,
        "contract": "contracts/ronin/validator/RoninValidatorSet.sol:RoninValidatorSet",
        "label": "______gap",
        "offset": 0,
        "slot": "120",
        "type": "t_array(t_uint256)48_storage"
      },
      {
        "astId": 6735,
        "contract": "contracts/ronin/validator/RoninValidatorSet.sol:RoninValidatorSet",
        "label": "_roninTrustedOrganizationContract",
        "offset": 0,
        "slot": "168",
        "type": "t_contract(IRoninTrustedOrganization)10182"
      },
      {
        "astId": 33801,
        "contract": "contracts/ronin/validator/RoninValidatorSet.sol:RoninValidatorSet",
        "label": "_maxValidatorNumber",
        "offset": 0,
        "slot": "169",
        "type": "t_uint256"
      },
      {
        "astId": 33804,
        "contract": "contracts/ronin/validator/RoninValidatorSet.sol:RoninValidatorSet",
        "label": "validatorCount",
        "offset": 0,
        "slot": "170",
        "type": "t_uint256"
      },
      {
        "astId": 33809,
        "contract": "contracts/ronin/validator/RoninValidatorSet.sol:RoninValidatorSet",
        "label": "_validators",
        "offset": 0,
        "slot": "171",
        "type": "t_mapping(t_uint256,t_address)"
      },
      {
        "astId": 33815,
        "contract": "contracts/ronin/validator/RoninValidatorSet.sol:RoninValidatorSet",
        "label": "_validatorMap",
        "offset": 0,
        "slot": "172",
        "type": "t_mapping(t_address,t_enum(ValidatorFlag)12612)"
      },
      {
        "astId": 33818,
        "contract": "contracts/ronin/validator/RoninValidatorSet.sol:RoninValidatorSet",
        "label": "_maxPrioritizedValidatorNumber",
        "offset": 0,
        "slot": "173",
        "type": "t_uint256"
      },
      {
        "astId": 33823,
        "contract": "contracts/ronin/validator/RoninValidatorSet.sol:RoninValidatorSet",
        "label": "______gap",
        "offset": 0,
        "slot": "174",
        "type": "t_array(t_uint256)50_storage"
      },
      {
        "astId": 33144,
        "contract": "contracts/ronin/validator/RoninValidatorSet.sol:RoninValidatorSet",
        "label": "_miningReward",
        "offset": 0,
        "slot": "224",
        "type": "t_mapping(t_address,t_uint256)"
      },
      {
        "astId": 33149,
        "contract": "contracts/ronin/validator/RoninValidatorSet.sol:RoninValidatorSet",
        "label": "_delegatingReward",
        "offset": 0,
        "slot": "225",
        "type": "t_mapping(t_address,t_uint256)"
      },
      {
        "astId": 33152,
        "contract": "contracts/ronin/validator/RoninValidatorSet.sol:RoninValidatorSet",
        "label": "_totalBridgeReward",
        "offset": 0,
        "slot": "226",
        "type": "t_uint256"
      },
      {
        "astId": 33157,
        "contract": "contracts/ronin/validator/RoninValidatorSet.sol:RoninValidatorSet",
        "label": "_bridgeOperatingReward",
        "offset": 0,
        "slot": "227",
        "type": "t_mapping(t_address,t_uint256)"
      },
      {
        "astId": 33160,
        "contract": "contracts/ronin/validator/RoninValidatorSet.sol:RoninValidatorSet",
        "label": "_totalDeprecatedReward",
        "offset": 0,
        "slot": "228",
        "type": "t_uint256"
      },
      {
        "astId": 33163,
        "contract": "contracts/ronin/validator/RoninValidatorSet.sol:RoninValidatorSet",
        "label": "_emergencyExitLockedAmount",
        "offset": 0,
        "slot": "229",
        "type": "t_uint256"
      },
      {
        "astId": 33166,
        "contract": "contracts/ronin/validator/RoninValidatorSet.sol:RoninValidatorSet",
        "label": "_emergencyExpiryDuration",
        "offset": 0,
        "slot": "230",
        "type": "t_uint256"
      },
      {
        "astId": 33170,
        "contract": "contracts/ronin/validator/RoninValidatorSet.sol:RoninValidatorSet",
        "label": "_lockedConsensusList",
        "offset": 0,
        "slot": "231",
        "type": "t_array(t_address)dyn_storage"
      },
      {
        "astId": 33176,
        "contract": "contracts/ronin/validator/RoninValidatorSet.sol:RoninValidatorSet",
        "label": "_exitInfo",
        "offset": 0,
        "slot": "232",
        "type": "t_mapping(t_address,t_struct(EmergencyExitInfo)12033_storage)"
      },
      {
        "astId": 33181,
        "contract": "contracts/ronin/validator/RoninValidatorSet.sol:RoninValidatorSet",
        "label": "_lockedFundReleased",
        "offset": 0,
        "slot": "233",
        "type": "t_mapping(t_address,t_bool)"
      },
      {
        "astId": 33186,
        "contract": "contracts/ronin/validator/RoninValidatorSet.sol:RoninValidatorSet",
        "label": "______gap",
        "offset": 0,
        "slot": "234",
        "type": "t_array(t_uint256)44_storage"
      }
    ],
    "types": {
      "t_address": {
        "encoding": "inplace",
        "label": "address",
        "numberOfBytes": "20"
      },
      "t_address_payable": {
        "encoding": "inplace",
        "label": "address payable",
        "numberOfBytes": "20"
      },
      "t_array(t_address)dyn_storage": {
        "base": "t_address",
        "encoding": "dynamic_array",
        "label": "address[]",
        "numberOfBytes": "32"
      },
      "t_array(t_uint256)44_storage": {
        "base": "t_uint256",
        "encoding": "inplace",
        "label": "uint256[44]",
        "numberOfBytes": "1408"
      },
      "t_array(t_uint256)48_storage": {
        "base": "t_uint256",
        "encoding": "inplace",
        "label": "uint256[48]",
        "numberOfBytes": "1536"
      },
      "t_array(t_uint256)49_storage": {
        "base": "t_uint256",
        "encoding": "inplace",
        "label": "uint256[49]",
        "numberOfBytes": "1568"
      },
      "t_array(t_uint256)50_storage": {
        "base": "t_uint256",
        "encoding": "inplace",
        "label": "uint256[50]",
        "numberOfBytes": "1600"
      },
      "t_bool": {
        "encoding": "inplace",
        "label": "bool",
        "numberOfBytes": "1"
      },
      "t_contract(IBridgeTracking)9283": {
        "encoding": "inplace",
        "label": "contract IBridgeTracking",
        "numberOfBytes": "20"
      },
      "t_contract(IMaintenance)9657": {
        "encoding": "inplace",
        "label": "contract IMaintenance",
        "numberOfBytes": "20"
      },
      "t_contract(IRoninTrustedOrganization)10182": {
        "encoding": "inplace",
        "label": "contract IRoninTrustedOrganization",
        "numberOfBytes": "20"
      },
      "t_contract(ISlashIndicator)10849": {
        "encoding": "inplace",
        "label": "contract ISlashIndicator",
        "numberOfBytes": "20"
      },
      "t_contract(IStaking)11483": {
        "encoding": "inplace",
        "label": "contract IStaking",
        "numberOfBytes": "20"
      },
      "t_contract(IStakingVesting)10271": {
        "encoding": "inplace",
        "label": "contract IStakingVesting",
        "numberOfBytes": "20"
      },
      "t_enum(ValidatorFlag)12612": {
        "encoding": "inplace",
        "label": "enum EnumFlags.ValidatorFlag",
        "numberOfBytes": "1"
      },
      "t_mapping(t_address,t_bool)": {
        "encoding": "mapping",
        "key": "t_address",
        "label": "mapping(address => bool)",
        "numberOfBytes": "32",
        "value": "t_bool"
      },
      "t_mapping(t_address,t_enum(ValidatorFlag)12612)": {
        "encoding": "mapping",
        "key": "t_address",
        "label": "mapping(address => enum EnumFlags.ValidatorFlag)",
        "numberOfBytes": "32",
        "value": "t_enum(ValidatorFlag)12612"
      },
      "t_mapping(t_address,t_mapping(t_uint256,t_bool))": {
        "encoding": "mapping",
        "key": "t_address",
        "label": "mapping(address => mapping(uint256 => bool))",
        "numberOfBytes": "32",
        "value": "t_mapping(t_uint256,t_bool)"
      },
      "t_mapping(t_address,t_struct(CommissionSchedule)11505_storage)": {
        "encoding": "mapping",
        "key": "t_address",
        "label": "mapping(address => struct ICandidateManager.CommissionSchedule)",
        "numberOfBytes": "32",
        "value": "t_struct(CommissionSchedule)11505_storage"
      },
      "t_mapping(t_address,t_struct(EmergencyExitInfo)12033_storage)": {
        "encoding": "mapping",
        "key": "t_address",
        "label": "mapping(address => struct ICommonInfo.EmergencyExitInfo)",
        "numberOfBytes": "32",
        "value": "t_struct(EmergencyExitInfo)12033_storage"
      },
      "t_mapping(t_address,t_struct(ValidatorCandidate)11500_storage)": {
        "encoding": "mapping",
        "key": "t_address",
        "label": "mapping(address => struct ICandidateManager.ValidatorCandidate)",
        "numberOfBytes": "32",
        "value": "t_struct(ValidatorCandidate)11500_storage"
      },
      "t_mapping(t_address,t_uint256)": {
        "encoding": "mapping",
        "key": "t_address",
        "label": "mapping(address => uint256)",
        "numberOfBytes": "32",
        "value": "t_uint256"
      },
      "t_mapping(t_uint256,t_address)": {
        "encoding": "mapping",
        "key": "t_uint256",
        "label": "mapping(uint256 => address)",
        "numberOfBytes": "32",
        "value": "t_address"
      },
      "t_mapping(t_uint256,t_bool)": {
        "encoding": "mapping",
        "key": "t_uint256",
        "label": "mapping(uint256 => bool)",
        "numberOfBytes": "32",
        "value": "t_bool"
      },
      "t_mapping(t_uint256,t_uint256)": {
        "encoding": "mapping",
        "key": "t_uint256",
        "label": "mapping(uint256 => uint256)",
        "numberOfBytes": "32",
        "value": "t_uint256"
      },
      "t_struct(CommissionSchedule)11505_storage": {
        "encoding": "inplace",
        "label": "struct ICandidateManager.CommissionSchedule",
        "members": [
          {
            "astId": 11502,
            "contract": "contracts/ronin/validator/RoninValidatorSet.sol:RoninValidatorSet",
            "label": "effectiveTimestamp",
            "offset": 0,
            "slot": "0",
            "type": "t_uint256"
          },
          {
            "astId": 11504,
            "contract": "contracts/ronin/validator/RoninValidatorSet.sol:RoninValidatorSet",
            "label": "commissionRate",
            "offset": 0,
            "slot": "1",
            "type": "t_uint256"
          }
        ],
        "numberOfBytes": "64"
      },
      "t_struct(EmergencyExitInfo)12033_storage": {
        "encoding": "inplace",
        "label": "struct ICommonInfo.EmergencyExitInfo",
        "members": [
          {
            "astId": 12030,
            "contract": "contracts/ronin/validator/RoninValidatorSet.sol:RoninValidatorSet",
            "label": "lockedAmount",
            "offset": 0,
            "slot": "0",
            "type": "t_uint256"
          },
          {
            "astId": 12032,
            "contract": "contracts/ronin/validator/RoninValidatorSet.sol:RoninValidatorSet",
            "label": "recyclingAt",
            "offset": 0,
            "slot": "1",
            "type": "t_uint256"
          }
        ],
        "numberOfBytes": "64"
      },
      "t_struct(ValidatorCandidate)11500_storage": {
        "encoding": "inplace",
        "label": "struct ICandidateManager.ValidatorCandidate",
        "members": [
          {
            "astId": 11487,
            "contract": "contracts/ronin/validator/RoninValidatorSet.sol:RoninValidatorSet",
            "label": "admin",
            "offset": 0,
            "slot": "0",
            "type": "t_address"
          },
          {
            "astId": 11489,
            "contract": "contracts/ronin/validator/RoninValidatorSet.sol:RoninValidatorSet",
            "label": "consensusAddr",
            "offset": 0,
            "slot": "1",
            "type": "t_address"
          },
          {
            "astId": 11491,
            "contract": "contracts/ronin/validator/RoninValidatorSet.sol:RoninValidatorSet",
            "label": "treasuryAddr",
            "offset": 0,
            "slot": "2",
            "type": "t_address_payable"
          },
          {
            "astId": 11493,
            "contract": "contracts/ronin/validator/RoninValidatorSet.sol:RoninValidatorSet",
            "label": "bridgeOperatorAddr",
            "offset": 0,
            "slot": "3",
            "type": "t_address"
          },
          {
            "astId": 11495,
            "contract": "contracts/ronin/validator/RoninValidatorSet.sol:RoninValidatorSet",
            "label": "commissionRate",
            "offset": 0,
            "slot": "4",
            "type": "t_uint256"
          },
          {
            "astId": 11497,
            "contract": "contracts/ronin/validator/RoninValidatorSet.sol:RoninValidatorSet",
            "label": "revokingTimestamp",
            "offset": 0,
            "slot": "5",
            "type": "t_uint256"
          },
          {
            "astId": 11499,
            "contract": "contracts/ronin/validator/RoninValidatorSet.sol:RoninValidatorSet",
            "label": "topupDeadline",
            "offset": 0,
            "slot": "6",
            "type": "t_uint256"
          }
        ],
        "numberOfBytes": "224"
      },
      "t_uint256": {
        "encoding": "inplace",
        "label": "uint256",
        "numberOfBytes": "32"
      },
      "t_uint8": {
        "encoding": "inplace",
        "label": "uint8",
        "numberOfBytes": "1"
      }
    }
  }
}