{
  "address": "0x2367cD5468c2b3cD18aA74AdB7e14E43426aF837",
  "abi": [
    {
      "inputs": [
        {
          "internalType": "contract IPauseTarget",
          "name": "_target",
          "type": "address"
        },
        {
          "internalType": "address",
          "name": "_admin",
          "type": "address"
        },
        {
          "internalType": "address[]",
          "name": "_sentries",
          "type": "address[]"
        }
      ],
      "stateMutability": "nonpayable",
      "type": "constructor"
    },
    {
      "anonymous": false,
      "inputs": [
        {
          "indexed": false,
          "internalType": "address",
          "name": "account",
          "type": "address"
        }
      ],
      "name": "EmergencyPaused",
      "type": "event"
    },
    {
      "anonymous": false,
      "inputs": [
        {
          "indexed": false,
          "internalType": "address",
          "name": "account",
          "type": "address"
        }
      ],
      "name": "EmergencyUnpaused",
      "type": "event"
    },
    {
      "anonymous": false,
      "inputs": [
        {
          "indexed": true,
          "internalType": "bytes32",
          "name": "role",
          "type": "bytes32"
        },
        {
          "indexed": true,
          "internalType": "bytes32",
          "name": "previousAdminRole",
          "type": "bytes32"
        },
        {
          "indexed": true,
          "internalType": "bytes32",
          "name": "newAdminRole",
          "type": "bytes32"
        }
      ],
      "name": "RoleAdminChanged",
      "type": "event"
    },
    {
      "anonymous": false,
      "inputs": [
        {
          "indexed": true,
          "internalType": "bytes32",
          "name": "role",
          "type": "bytes32"
        },
        {
          "indexed": true,
          "internalType": "address",
          "name": "account",
          "type": "address"
        },
        {
          "indexed": true,
          "internalType": "address",
          "name": "sender",
          "type": "address"
        }
      ],
      "name": "RoleGranted",
      "type": "event"
    },
    {
      "anonymous": false,
      "inputs": [
        {
          "indexed": true,
          "internalType": "bytes32",
          "name": "role",
          "type": "bytes32"
        },
        {
          "indexed": true,
          "internalType": "address",
          "name": "account",
          "type": "address"
        },
        {
          "indexed": true,
          "internalType": "address",
          "name": "sender",
          "type": "address"
        }
      ],
      "name": "RoleRevoked",
      "type": "event"
    },
    {
      "anonymous": false,
      "inputs": [
        {
          "indexed": false,
          "internalType": "contract IPauseTarget",
          "name": "target",
          "type": "address"
        }
      ],
      "name": "TargetChanged",
      "type": "event"
    },
    {
      "inputs": [],
      "name": "DEFAULT_ADMIN_ROLE",
      "outputs": [
        {
          "internalType": "bytes32",
          "name": "",
          "type": "bytes32"
        }
      ],
      "stateMutability": "view",
      "type": "function"
    },
    {
      "inputs": [],
      "name": "SENTRY_ROLE",
      "outputs": [
        {
          "internalType": "bytes32",
          "name": "",
          "type": "bytes32"
        }
      ],
      "stateMutability": "view",
      "type": "function"
    },
    {
      "inputs": [
        {
          "internalType": "contract IPauseTarget",
          "name": "_target",
          "type": "address"
        }
      ],
      "name": "changeTarget",
      "outputs": [],
      "stateMutability": "nonpayable",
      "type": "function"
    },
    {
      "inputs": [],
      "name": "emergency",
      "outputs": [
        {
          "internalType": "bool",
          "name": "",
          "type": "bool"
        }
      ],
      "stateMutability": "view",
      "type": "function"
    },
    {
      "inputs": [
        {
          "internalType": "bytes32",
          "name": "role",
          "type": "bytes32"
        }
      ],
      "name": "getRoleAdmin",
      "outputs": [
        {
          "internalType": "bytes32",
          "name": "",
          "type": "bytes32"
        }
      ],
      "stateMutability": "view",
      "type": "function"
    },
    {
      "inputs": [
        {
          "internalType": "bytes32",
          "name": "role",
          "type": "bytes32"
        },
        {
          "internalType": "uint256",
          "name": "index",
          "type": "uint256"
        }
      ],
      "name": "getRoleMember",
      "outputs": [
        {
          "internalType": "address",
          "name": "",
          "type": "address"
        }
      ],
      "stateMutability": "view",
      "type": "function"
    },
    {
      "inputs": [
        {
          "internalType": "bytes32",
          "name": "role",
          "type": "bytes32"
        }
      ],
      "name": "getRoleMemberCount",
      "outputs": [
        {
          "internalType": "uint256",
          "name": "",
          "type": "uint256"
        }
      ],
      "stateMutability": "view",
      "type": "function"
    },
    {
      "inputs": [
        {
          "internalType": "bytes32",
          "name": "role",
          "type": "bytes32"
        },
        {
          "internalType": "address",
          "name": "account",
          "type": "address"
        }
      ],
      "name": "grantRole",
      "outputs": [],
      "stateMutability": "nonpayable",
      "type": "function"
    },
    {
      "inputs": [
        {
          "internalType": "address",
          "name": "_sentry",
          "type": "address"
        }
      ],
      "name": "grantSentry",
      "outputs": [],
      "stateMutability": "nonpayable",
      "type": "function"
    },
    {
      "inputs": [
        {
          "internalType": "bytes32",
          "name": "role",
          "type": "bytes32"
        },
        {
          "internalType": "address",
          "name": "account",
          "type": "address"
        }
      ],
      "name": "hasRole",
      "outputs": [
        {
          "internalType": "bool",
          "name": "",
          "type": "bool"
        }
      ],
      "stateMutability": "view",
      "type": "function"
    },
    {
      "inputs": [
        {
          "internalType": "bytes32",
          "name": "role",
          "type": "bytes32"
        },
        {
          "internalType": "address",
          "name": "account",
          "type": "address"
        }
      ],
      "name": "renounceRole",
      "outputs": [],
      "stateMutability": "nonpayable",
      "type": "function"
    },
    {
      "inputs": [
        {
          "internalType": "bytes32",
          "name": "role",
          "type": "bytes32"
        },
        {
          "internalType": "address",
          "name": "account",
          "type": "address"
        }
      ],
      "name": "revokeRole",
      "outputs": [],
      "stateMutability": "nonpayable",
      "type": "function"
    },
    {
      "inputs": [
        {
          "internalType": "address",
          "name": "_sentry",
          "type": "address"
        }
      ],
      "name": "revokeSentry",
      "outputs": [],
      "stateMutability": "nonpayable",
      "type": "function"
    },
    {
      "inputs": [
        {
          "internalType": "bytes4",
          "name": "interfaceId",
          "type": "bytes4"
        }
      ],
      "name": "supportsInterface",
      "outputs": [
        {
          "internalType": "bool",
          "name": "",
          "type": "bool"
        }
      ],
      "stateMutability": "view",
      "type": "function"
    },
    {
      "inputs": [],
      "name": "target",
      "outputs": [
        {
          "internalType": "contract IPauseTarget",
          "name": "",
          "type": "address"
        }
      ],
      "stateMutability": "view",
      "type": "function"
    },
    {
      "inputs": [],
      "name": "triggerPause",
      "outputs": [],
      "stateMutability": "nonpayable",
      "type": "function"
    },
    {
      "inputs": [],
      "name": "triggerUnpause",
      "outputs": [],
      "stateMutability": "nonpayable",
      "type": "function"
    }
  ],
  "transactionHash": "0xc2068866d8ad83c00810606cde71575e6eda2c3f2fed826160e71fb19fed5892",
  "args": [
    "0x0cf8ff40a508bdbc39fbe1bb679dcba64e65c7df",
    "0x8417AC6838be147Ab0e201496B2E5eDf90A48cC5",
    [
      "0x8B35C5E273525a4Ca61025812f29C17727948f57"
    ]
  ],
  "numDeployments": 3,
  "solcInputHash": "85b953b22882c536a643bf4b61b3153b",
  "bytecode": "0x60806040523480156200001157600080fd5b50604051620013a5380380620013a58339810160408190526200003491620002c0565b6200003f83620000c6565b6200004c6000836200011a565b60005b8151811015620000bc57620000a77f5bea60102f2a7acc9e82b1af0e3bd4069661102bb5dd143a6051cd1980dded1c838381518110620000935762000093620003c0565b60200260200101516200012a60201b60201c565b80620000b381620003d6565b9150506200004f565b50505050620003fe565b600280546001600160a01b0319166001600160a01b0383169081179091556040519081527f7f8cffd58ac96898bdd25ab64868bd933141d15ad1cd4a0df228fd3fcba2a26d9060200160405180910390a150565b6200012682826200012a565b5050565b6200014182826200016d60201b6200076d1760201c565b600082815260016020908152604090912062000168918390620007f16200020d821b17901c565b505050565b6000828152602081815260408083206001600160a01b038516845290915290205460ff1662000126576000828152602081815260408083206001600160a01b03851684529091529020805460ff19166001179055620001c93390565b6001600160a01b0316816001600160a01b0316837f2f8788117e7eff1d82e926ec794901d17c78024a50270940304540a733656f0d60405160405180910390a45050565b600062000224836001600160a01b0384166200022d565b90505b92915050565b6000818152600183016020526040812054620002765750815460018181018455600084815260208082209093018490558454848252828601909352604090209190915562000227565b50600062000227565b6001600160a01b03811681146200029557600080fd5b50565b8051620002a5816200027f565b919050565b634e487b7160e01b600052604160045260246000fd5b600080600060608486031215620002d657600080fd5b8351620002e3816200027f565b80935050602080850151620002f8816200027f565b60408601519093506001600160401b03808211156200031657600080fd5b818701915087601f8301126200032b57600080fd5b815181811115620003405762000340620002aa565b8060051b604051601f19603f83011681018181108582111715620003685762000368620002aa565b60405291825284820192508381018501918a8311156200038757600080fd5b938501935b82851015620003b057620003a08562000298565b845293850193928501926200038c565b8096505050505050509250925092565b634e487b7160e01b600052603260045260246000fd5b600060018201620003f757634e487b7160e01b600052601160045260246000fd5b5060010190565b610f97806200040e6000396000f3fe608060405234801561001057600080fd5b50600436106100db5760003560e01c806301ffc9a7146100e0578063248a9ca3146101085780632f2ff15d1461012957806336568abe1461013e5780636833f60d146101515780637a9ad019146101595780637d4f7fc91461016e5780639010d07c1461018157806391d14854146101a1578063a217fddf146101b4578063b9f3163b146101bc578063ca15c873146101c4578063caa6fea4146101d7578063d4b83992146101eb578063d547741f146101fe578063dcf7bb5c14610211578063f82ec70b14610224575b600080fd5b6100f36100ee366004610cd2565b610237565b60405190151581526020015b60405180910390f35b61011b610116366004610cfc565b610262565b6040519081526020016100ff565b61013c610137366004610d2a565b610277565b005b61013c61014c366004610d2a565b610298565b61013c61031b565b61011b600080516020610f4283398151915281565b61013c61017c366004610d5a565b6104b1565b61019461018f366004610d77565b6104d4565b6040516100ff9190610d99565b6100f36101af366004610d2a565b6104f3565b61011b600081565b61013c61051c565b61011b6101d2366004610cfc565b610703565b6002546100f390600160a01b900460ff1681565b600254610194906001600160a01b031681565b61013c61020c366004610d2a565b61071a565b61013c61021f366004610d5a565b610736565b61013c610232366004610d5a565b61074a565b60006001600160e01b03198216635a05180f60e01b148061025c575061025c82610806565b92915050565b60009081526020819052604090206001015490565b61028082610262565b6102898161083b565b6102938383610848565b505050565b6001600160a01b038116331461030d5760405162461bcd60e51b815260206004820152602f60248201527f416363657373436f6e74726f6c3a2063616e206f6e6c792072656e6f756e636560448201526e103937b632b9903337b91039b2b63360891b60648201526084015b60405180910390fd5b610317828261086a565b5050565b600080516020610f428339815191526103338161083b565b600260009054906101000a90046001600160a01b03166001600160a01b0316635c975abb6040518163ffffffff1660e01b81526004016020604051808303816000875af1158015610388573d6000803e3d6000fd5b505050506040513d601f19601f820116820180604052508101906103ac9190610dad565b156104075760405162461bcd60e51b815260206004820152602560248201527f5061757365456e666f726365723a20746172676574206973206e6f74206f6e20604482015264706175736560d81b6064820152608401610304565b6002805460ff60a01b198116600160a01b1790915560408051638456cb5960e01b815290516001600160a01b0390921691638456cb599160048082019260009290919082900301818387803b15801561045f57600080fd5b505af1158015610473573d6000803e3d6000fd5b505050507fb8fad2fa0ed7a383e747c309ef2c4391d7b65592a48893e57ccc1fab70791456336040516104a69190610d99565b60405180910390a150565b60006104bc8161083b565b610317600080516020610f4283398151915283610848565b60008281526001602052604081206104ec908361088c565b9392505050565b6000918252602082815260408084206001600160a01b0393909316845291905290205460ff1690565b600080516020610f428339815191526105348161083b565b600254600160a01b900460ff1661059b5760405162461bcd60e51b815260206004820152602560248201527f5061757365456e666f726365723a206e6f74206f6e20656d657267656e637920604482015264706175736560d81b6064820152608401610304565b600260009054906101000a90046001600160a01b03166001600160a01b0316635c975abb6040518163ffffffff1660e01b81526004016020604051808303816000875af11580156105f0573d6000803e3d6000fd5b505050506040513d601f19601f820116820180604052508101906106149190610dad565b61066a5760405162461bcd60e51b815260206004820152602160248201527f5061757365456e666f726365723a20746172676574206973206f6e20706175736044820152606560f81b6064820152608401610304565b6002805460ff60a01b19811690915560408051631fa5d41d60e11b815290516001600160a01b0390921691633f4ba83a9160048082019260009290919082900301818387803b1580156106bc57600080fd5b505af11580156106d0573d6000803e3d6000fd5b505050507ff5cbf596165cc457b2cd92e8d8450827ee314968160a5696402d75766fc52caf336040516104a69190610d99565b600081815260016020526040812061025c90610898565b61072382610262565b61072c8161083b565b610293838361086a565b60006107418161083b565b610317826108a2565b60006107558161083b565b610317600080516020610f428339815191528361086a565b61077782826104f3565b610317576000828152602081815260408083206001600160a01b03851684529091529020805460ff191660011790556107ad3390565b6001600160a01b0316816001600160a01b0316837f2f8788117e7eff1d82e926ec794901d17c78024a50270940304540a733656f0d60405160405180910390a45050565b60006104ec836001600160a01b0384166108ed565b60006001600160e01b03198216637965db0b60e01b148061025c57506301ffc9a760e01b6001600160e01b031983161461025c565b610845813361093c565b50565b610852828261076d565b600082815260016020526040902061029390826107f1565b61087482826109a0565b60008281526001602052604090206102939082610a05565b60006104ec8383610a1a565b600061025c825490565b600280546001600160a01b0319166001600160a01b0383161790556040517f7f8cffd58ac96898bdd25ab64868bd933141d15ad1cd4a0df228fd3fcba2a26d906104a6908390610d99565b60008181526001830160205260408120546109345750815460018181018455600084815260208082209093018490558454848252828601909352604090209190915561025c565b50600061025c565b61094682826104f3565b6103175761095e816001600160a01b03166014610a44565b610969836020610a44565b60405160200161097a929190610df3565b60408051601f198184030181529082905262461bcd60e51b825261030491600401610e62565b6109aa82826104f3565b15610317576000828152602081815260408083206001600160a01b0385168085529252808320805460ff1916905551339285917ff6391f5c32d9c69d2a47ea670b442974b53935d1edc7fd64eb21e047a839171b9190a45050565b60006104ec836001600160a01b038416610bdf565b6000826000018281548110610a3157610a31610e95565b9060005260206000200154905092915050565b60606000610a53836002610ec1565b610a5e906002610ed8565b6001600160401b03811115610a7557610a75610eeb565b6040519080825280601f01601f191660200182016040528015610a9f576020820181803683370190505b509050600360fc1b81600081518110610aba57610aba610e95565b60200101906001600160f81b031916908160001a905350600f60fb1b81600181518110610ae957610ae9610e95565b60200101906001600160f81b031916908160001a9053506000610b0d846002610ec1565b610b18906001610ed8565b90505b6001811115610b90576f181899199a1a9b1b9c1cb0b131b232b360811b85600f1660108110610b4c57610b4c610e95565b1a60f81b828281518110610b6257610b62610e95565b60200101906001600160f81b031916908160001a90535060049490941c93610b8981610f01565b9050610b1b565b5083156104ec5760405162461bcd60e51b815260206004820181905260248201527f537472696e67733a20686578206c656e67746820696e73756666696369656e746044820152606401610304565b60008181526001830160205260408120548015610cc8576000610c03600183610f18565b8554909150600090610c1790600190610f18565b9050818114610c7c576000866000018281548110610c3757610c37610e95565b9060005260206000200154905080876000018481548110610c5a57610c5a610e95565b6000918252602080832090910192909255918252600188019052604090208390555b8554869080610c8d57610c8d610f2b565b60019003818190600052602060002001600090559055856001016000868152602001908152602001600020600090556001935050505061025c565b600091505061025c565b600060208284031215610ce457600080fd5b81356001600160e01b0319811681146104ec57600080fd5b600060208284031215610d0e57600080fd5b5035919050565b6001600160a01b038116811461084557600080fd5b60008060408385031215610d3d57600080fd5b823591506020830135610d4f81610d15565b809150509250929050565b600060208284031215610d6c57600080fd5b81356104ec81610d15565b60008060408385031215610d8a57600080fd5b50508035926020909101359150565b6001600160a01b0391909116815260200190565b600060208284031215610dbf57600080fd5b815180151581146104ec57600080fd5b60005b83811015610dea578181015183820152602001610dd2565b50506000910152565b76020b1b1b2b9b9a1b7b73a3937b61d1030b1b1b7bab73a1604d1b815260008351610e25816017850160208801610dcf565b7001034b99036b4b9b9b4b733903937b6329607d1b6017918401918201528351610e56816028840160208801610dcf565b01602801949350505050565b6020815260008251806020840152610e81816040850160208701610dcf565b601f01601f19169190910160400192915050565b634e487b7160e01b600052603260045260246000fd5b634e487b7160e01b600052601160045260246000fd5b808202811582820484141761025c5761025c610eab565b8082018082111561025c5761025c610eab565b634e487b7160e01b600052604160045260246000fd5b600081610f1057610f10610eab565b506000190190565b8181038181111561025c5761025c610eab565b634e487b7160e01b600052603160045260246000fdfe5bea60102f2a7acc9e82b1af0e3bd4069661102bb5dd143a6051cd1980dded1ca2646970667358221220d7cda1774ab5f67a7fa38fb1cdf0a94a16b6f23ab5987705c19f73349817c1c964736f6c63430008110033",
  "devdoc": {
    "events": {
      "EmergencyPaused(address)": {
        "details": "Emitted when the emergency ppause is triggered by `account`."
      },
      "EmergencyUnpaused(address)": {
        "details": "Emitted when the emergency unpause is triggered by `account`."
      },
      "TargetChanged(address)": {
        "details": "Emitted when the target is changed."
      }
    },
    "kind": "dev",
    "methods": {
      "changeTarget(address)": {
        "details": "Setter for `target`. Requirements: - Only admin can call this method."
      },
      "getRoleAdmin(bytes32)": {
        "details": "Returns the admin role that controls `role`. See {grantRole} and {revokeRole}. To change a role's admin, use {_setRoleAdmin}."
      },
      "getRoleMember(bytes32,uint256)": {
        "details": "Returns one of the accounts that have `role`. `index` must be a value between 0 and {getRoleMemberCount}, non-inclusive. Role bearers are not sorted in any particular way, and their ordering may change at any point. WARNING: When using {getRoleMember} and {getRoleMemberCount}, make sure you perform all queries on the same block. See the following https://forum.openzeppelin.com/t/iterating-over-elements-on-enumerableset-in-openzeppelin-contracts/2296[forum post] for more information."
      },
      "getRoleMemberCount(bytes32)": {
        "details": "Returns the number of accounts that have `role`. Can be used together with {getRoleMember} to enumerate all bearers of a role."
      },
      "grantRole(bytes32,address)": {
        "details": "Grants `role` to `account`. If `account` had not been already granted `role`, emits a {RoleGranted} event. Requirements: - the caller must have ``role``'s admin role. May emit a {RoleGranted} event."
      },
      "grantSentry(address)": {
        "details": "Grants the SENTRY_ROLE to the specified address."
      },
      "hasRole(bytes32,address)": {
        "details": "Returns `true` if `account` has been granted `role`."
      },
      "renounceRole(bytes32,address)": {
        "details": "Revokes `role` from the calling account. Roles are often managed via {grantRole} and {revokeRole}: this function's purpose is to provide a mechanism for accounts to lose their privileges if they are compromised (such as when a trusted device is misplaced). If the calling account had been revoked `role`, emits a {RoleRevoked} event. Requirements: - the caller must be `account`. May emit a {RoleRevoked} event."
      },
      "revokeRole(bytes32,address)": {
        "details": "Revokes `role` from `account`. If `account` had been granted `role`, emits a {RoleRevoked} event. Requirements: - the caller must have ``role``'s admin role. May emit a {RoleRevoked} event."
      },
      "revokeSentry(address)": {
        "details": "Revokes the SENTRY_ROLE from the specified address."
      },
      "supportsInterface(bytes4)": {
        "details": "See {IERC165-supportsInterface}."
      },
      "triggerPause()": {
        "details": "Triggers a pause on the target contract. Requirements: - Only be called by accounts with the SENTRY_ROLE, - The target contract is not already paused."
      },
      "triggerUnpause()": {
        "details": "Triggers an unpause on the target contract. Requirements: - Only be called by accounts with the SENTRY_ROLE, - The target contract is already paused. - The target contract is paused in emergency mode."
      }
    },
    "stateVariables": {
      "emergency": {
        "details": "Indicating whether or not the target contract is paused in emergency mode."
      },
      "target": {
        "details": "The contract that can be paused or unpaused by the SENTRY_ROLE."
      }
    },
    "version": 1
  },
  "userdoc": {
    "kind": "user",
    "methods": {},
    "version": 1
  },
  "storageLayout": {
    "storage": [
      {
        "astId": 24,
        "contract": "contracts/ronin/gateway/PauseEnforcer.sol:PauseEnforcer",
        "label": "_roles",
        "offset": 0,
        "slot": "0",
        "type": "t_mapping(t_bytes32,t_struct(RoleData)19_storage)"
      },
      {
        "astId": 338,
        "contract": "contracts/ronin/gateway/PauseEnforcer.sol:PauseEnforcer",
        "label": "_roleMembers",
        "offset": 0,
        "slot": "1",
        "type": "t_mapping(t_bytes32,t_struct(AddressSet)4026_storage)"
      },
      {
        "astId": 23797,
        "contract": "contracts/ronin/gateway/PauseEnforcer.sol:PauseEnforcer",
        "label": "target",
        "offset": 0,
        "slot": "2",
        "type": "t_contract(IPauseTarget)9671"
      },
      {
        "astId": 23800,
        "contract": "contracts/ronin/gateway/PauseEnforcer.sol:PauseEnforcer",
        "label": "emergency",
        "offset": 20,
        "slot": "2",
        "type": "t_bool"
      }
    ],
    "types": {
      "t_address": {
        "encoding": "inplace",
        "label": "address",
        "numberOfBytes": "20"
      },
      "t_array(t_bytes32)dyn_storage": {
        "base": "t_bytes32",
        "encoding": "dynamic_array",
        "label": "bytes32[]",
        "numberOfBytes": "32"
      },
      "t_bool": {
        "encoding": "inplace",
        "label": "bool",
        "numberOfBytes": "1"
      },
      "t_bytes32": {
        "encoding": "inplace",
        "label": "bytes32",
        "numberOfBytes": "32"
      },
      "t_contract(IPauseTarget)9671": {
        "encoding": "inplace",
        "label": "contract IPauseTarget",
        "numberOfBytes": "20"
      },
      "t_mapping(t_address,t_bool)": {
        "encoding": "mapping",
        "key": "t_address",
        "label": "mapping(address => bool)",
        "numberOfBytes": "32",
        "value": "t_bool"
      },
      "t_mapping(t_bytes32,t_struct(AddressSet)4026_storage)": {
        "encoding": "mapping",
        "key": "t_bytes32",
        "label": "mapping(bytes32 => struct EnumerableSet.AddressSet)",
        "numberOfBytes": "32",
        "value": "t_struct(AddressSet)4026_storage"
      },
      "t_mapping(t_bytes32,t_struct(RoleData)19_storage)": {
        "encoding": "mapping",
        "key": "t_bytes32",
        "label": "mapping(bytes32 => struct AccessControl.RoleData)",
        "numberOfBytes": "32",
        "value": "t_struct(RoleData)19_storage"
      },
      "t_mapping(t_bytes32,t_uint256)": {
        "encoding": "mapping",
        "key": "t_bytes32",
        "label": "mapping(bytes32 => uint256)",
        "numberOfBytes": "32",
        "value": "t_uint256"
      },
      "t_struct(AddressSet)4026_storage": {
        "encoding": "inplace",
        "label": "struct EnumerableSet.AddressSet",
        "members": [
          {
            "astId": 4025,
            "contract": "contracts/ronin/gateway/PauseEnforcer.sol:PauseEnforcer",
            "label": "_inner",
            "offset": 0,
            "slot": "0",
            "type": "t_struct(Set)3725_storage"
          }
        ],
        "numberOfBytes": "64"
      },
      "t_struct(RoleData)19_storage": {
        "encoding": "inplace",
        "label": "struct AccessControl.RoleData",
        "members": [
          {
            "astId": 16,
            "contract": "contracts/ronin/gateway/PauseEnforcer.sol:PauseEnforcer",
            "label": "members",
            "offset": 0,
            "slot": "0",
            "type": "t_mapping(t_address,t_bool)"
          },
          {
            "astId": 18,
            "contract": "contracts/ronin/gateway/PauseEnforcer.sol:PauseEnforcer",
            "label": "adminRole",
            "offset": 0,
            "slot": "1",
            "type": "t_bytes32"
          }
        ],
        "numberOfBytes": "64"
      },
      "t_struct(Set)3725_storage": {
        "encoding": "inplace",
        "label": "struct EnumerableSet.Set",
        "members": [
          {
            "astId": 3720,
            "contract": "contracts/ronin/gateway/PauseEnforcer.sol:PauseEnforcer",
            "label": "_values",
            "offset": 0,
            "slot": "0",
            "type": "t_array(t_bytes32)dyn_storage"
          },
          {
            "astId": 3724,
            "contract": "contracts/ronin/gateway/PauseEnforcer.sol:PauseEnforcer",
            "label": "_indexes",
            "offset": 0,
            "slot": "1",
            "type": "t_mapping(t_bytes32,t_uint256)"
          }
        ],
        "numberOfBytes": "64"
      },
      "t_uint256": {
        "encoding": "inplace",
        "label": "uint256",
        "numberOfBytes": "32"
      }
    }
  }
}