{
  "address": "0x0C1Dee1b435C464b4E94781f94F991Cb90e3399d",
  "abi": [
    {
      "inputs": [],
      "stateMutability": "nonpayable",
      "type": "constructor"
    },
    {
      "inputs": [],
      "name": "ErrAlreadyRequestedEmergencyExit",
      "type": "error"
    },
    {
      "inputs": [],
      "name": "ErrAlreadyRequestedRevokingCandidate",
      "type": "error"
    },
    {
      "inputs": [],
      "name": "ErrAlreadyRequestedUpdatingCommissionRate",
      "type": "error"
    },
    {
      "inputs": [],
      "name": "ErrAlreadyWrappedEpoch",
      "type": "error"
    },
    {
      "inputs": [],
      "name": "ErrAtEndOfEpochOnly",
      "type": "error"
    },
    {
      "inputs": [],
      "name": "ErrCallPrecompiled",
      "type": "error"
    },
    {
      "inputs": [],
      "name": "ErrCallerMustBeCoinbase",
      "type": "error"
    },
    {
      "inputs": [
        {
          "internalType": "address",
          "name": "validator",
          "type": "address"
        }
      ],
      "name": "ErrCannotBailout",
      "type": "error"
    },
    {
      "inputs": [
        {
          "internalType": "enum ContractType",
          "name": "contractType",
          "type": "uint8"
        }
      ],
      "name": "ErrContractTypeNotFound",
      "type": "error"
    },
    {
      "inputs": [],
      "name": "ErrExceedsMaxNumberOfCandidate",
      "type": "error"
    },
    {
      "inputs": [],
      "name": "ErrExistentCandidate",
      "type": "error"
    },
    {
      "inputs": [
        {
          "internalType": "address",
          "name": "_candidateAdminAddr",
          "type": "address"
        }
      ],
      "name": "ErrExistentCandidateAdmin",
      "type": "error"
    },
    {
      "inputs": [
        {
          "internalType": "address",
          "name": "_treasuryAddr",
          "type": "address"
        }
      ],
      "name": "ErrExistentTreasury",
      "type": "error"
    },
    {
      "inputs": [
        {
          "internalType": "bytes4",
          "name": "msgSig",
          "type": "bytes4"
        },
        {
          "internalType": "uint256",
          "name": "currentBalance",
          "type": "uint256"
        },
        {
          "internalType": "uint256",
          "name": "sendAmount",
          "type": "uint256"
        }
      ],
      "name": "ErrInsufficientBalance",
      "type": "error"
    },
    {
      "inputs": [],
      "name": "ErrInvalidCommissionRate",
      "type": "error"
    },
    {
      "inputs": [],
      "name": "ErrInvalidEffectiveDaysOnwards",
      "type": "error"
    },
    {
      "inputs": [],
      "name": "ErrInvalidMaxPrioritizedValidatorNumber",
      "type": "error"
    },
    {
      "inputs": [],
      "name": "ErrInvalidMinEffectiveDaysOnwards",
      "type": "error"
    },
    {
      "inputs": [],
      "name": "ErrNonExistentCandidate",
      "type": "error"
    },
    {
      "inputs": [
        {
          "internalType": "bytes4",
          "name": "msgSig",
          "type": "bytes4"
        }
      ],
      "name": "ErrRecipientRevert",
      "type": "error"
    },
    {
      "inputs": [],
      "name": "ErrTrustedOrgCannotRenounce",
      "type": "error"
    },
    {
      "inputs": [
        {
          "internalType": "bytes4",
          "name": "msgSig",
          "type": "bytes4"
        },
        {
          "internalType": "enum RoleAccess",
          "name": "expectedRole",
          "type": "uint8"
        }
      ],
      "name": "ErrUnauthorized",
      "type": "error"
    },
    {
      "inputs": [],
      "name": "ErrUnauthorizedReceiveRON",
      "type": "error"
    },
    {
      "inputs": [
        {
          "internalType": "bytes4",
          "name": "msgSig",
          "type": "bytes4"
        },
        {
          "internalType": "enum ContractType",
          "name": "expectedContractType",
          "type": "uint8"
        },
        {
          "internalType": "address",
          "name": "actual",
          "type": "address"
        }
      ],
      "name": "ErrUnexpectedInternalCall",
      "type": "error"
    },
    {
      "inputs": [
        {
          "internalType": "address",
          "name": "addr",
          "type": "address"
        }
      ],
      "name": "ErrZeroCodeContract",
      "type": "error"
    },
    {
      "inputs": [],
      "name": "NonExistentRecyclingInfo",
      "type": "error"
    },
    {
      "anonymous": false,
      "inputs": [
        {
          "indexed": true,
          "internalType": "uint256",
          "name": "period",
          "type": "uint256"
        },
        {
          "indexed": true,
          "internalType": "uint256",
          "name": "epoch",
          "type": "uint256"
        },
        {
          "indexed": false,
          "internalType": "address[]",
          "name": "consensusAddrs",
          "type": "address[]"
        }
      ],
      "name": "BlockProducerSetUpdated",
      "type": "event"
    },
    {
      "anonymous": false,
      "inputs": [
        {
          "indexed": true,
          "internalType": "address",
          "name": "coinbaseAddr",
          "type": "address"
        },
        {
          "indexed": false,
          "internalType": "uint256",
          "name": "rewardAmount",
          "type": "uint256"
        },
        {
          "indexed": false,
          "internalType": "enum ICoinbaseExecution.BlockRewardDeprecatedType",
          "name": "deprecatedType",
          "type": "uint8"
        }
      ],
      "name": "BlockRewardDeprecated",
      "type": "event"
    },
    {
      "anonymous": false,
      "inputs": [
        {
          "indexed": true,
          "internalType": "address",
          "name": "coinbaseAddr",
          "type": "address"
        },
        {
          "indexed": false,
          "internalType": "uint256",
          "name": "submittedAmount",
          "type": "uint256"
        },
        {
          "indexed": false,
          "internalType": "uint256",
          "name": "bonusAmount",
          "type": "uint256"
        }
      ],
      "name": "BlockRewardSubmitted",
      "type": "event"
    },
    {
      "anonymous": false,
      "inputs": [
        {
          "indexed": true,
          "internalType": "address",
          "name": "consensusAddr",
          "type": "address"
        },
        {
          "indexed": true,
          "internalType": "address",
          "name": "bridgeOperator",
          "type": "address"
        },
        {
          "indexed": true,
          "internalType": "address",
          "name": "recipientAddr",
          "type": "address"
        },
        {
          "indexed": false,
          "internalType": "uint256",
          "name": "amount",
          "type": "uint256"
        }
      ],
      "name": "BridgeOperatorRewardDistributed",
      "type": "event"
    },
    {
      "anonymous": false,
      "inputs": [
        {
          "indexed": true,
          "internalType": "address",
          "name": "consensusAddr",
          "type": "address"
        },
        {
          "indexed": true,
          "internalType": "address",
          "name": "bridgeOperator",
          "type": "address"
        },
        {
          "indexed": true,
          "internalType": "address",
          "name": "recipient",
          "type": "address"
        },
        {
          "indexed": false,
          "internalType": "uint256",
          "name": "amount",
          "type": "uint256"
        },
        {
          "indexed": false,
          "internalType": "uint256",
          "name": "contractBalance",
          "type": "uint256"
        }
      ],
      "name": "BridgeOperatorRewardDistributionFailed",
      "type": "event"
    },
    {
      "anonymous": false,
      "inputs": [
        {
          "indexed": true,
          "internalType": "uint256",
          "name": "period",
          "type": "uint256"
        },
        {
          "indexed": true,
          "internalType": "uint256",
          "name": "epoch",
          "type": "uint256"
        },
        {
          "indexed": false,
          "internalType": "address[]",
          "name": "bridgeOperators",
          "type": "address[]"
        }
      ],
      "name": "BridgeOperatorSetUpdated",
      "type": "event"
    },
    {
      "anonymous": false,
      "inputs": [
        {
          "indexed": true,
          "internalType": "address",
          "name": "consensusAddr",
          "type": "address"
        },
        {
          "indexed": true,
          "internalType": "address",
          "name": "treasuryAddr",
          "type": "address"
        },
        {
          "indexed": true,
          "internalType": "address",
          "name": "admin",
          "type": "address"
        }
      ],
      "name": "CandidateGranted",
      "type": "event"
    },
    {
      "anonymous": false,
      "inputs": [
        {
          "indexed": true,
          "internalType": "address",
          "name": "consensusAddr",
          "type": "address"
        },
        {
          "indexed": false,
          "internalType": "uint256",
          "name": "revokingTimestamp",
          "type": "uint256"
        }
      ],
      "name": "CandidateRevokingTimestampUpdated",
      "type": "event"
    },
    {
      "anonymous": false,
      "inputs": [
        {
          "indexed": true,
          "internalType": "address",
          "name": "consensusAddr",
          "type": "address"
        },
        {
          "indexed": false,
          "internalType": "uint256",
          "name": "topupDeadline",
          "type": "uint256"
        }
      ],
      "name": "CandidateTopupDeadlineUpdated",
      "type": "event"
    },
    {
      "anonymous": false,
      "inputs": [
        {
          "indexed": false,
          "internalType": "address[]",
          "name": "consensusAddrs",
          "type": "address[]"
        }
      ],
      "name": "CandidatesRevoked",
      "type": "event"
    },
    {
      "anonymous": false,
      "inputs": [
        {
          "indexed": true,
          "internalType": "address",
          "name": "consensusAddr",
          "type": "address"
        },
        {
          "indexed": false,
          "internalType": "uint256",
          "name": "effectiveTimestamp",
          "type": "uint256"
        },
        {
          "indexed": false,
          "internalType": "uint256",
          "name": "rate",
          "type": "uint256"
        }
      ],
      "name": "CommissionRateUpdateScheduled",
      "type": "event"
    },
    {
      "anonymous": false,
      "inputs": [
        {
          "indexed": true,
          "internalType": "address",
          "name": "consensusAddr",
          "type": "address"
        },
        {
          "indexed": false,
          "internalType": "uint256",
          "name": "rate",
          "type": "uint256"
        }
      ],
      "name": "CommissionRateUpdated",
      "type": "event"
    },
    {
      "anonymous": false,
      "inputs": [
        {
          "indexed": true,
          "internalType": "enum ContractType",
          "name": "contractType",
          "type": "uint8"
        },
        {
          "indexed": true,
          "internalType": "address",
          "name": "addr",
          "type": "address"
        }
      ],
      "name": "ContractUpdated",
      "type": "event"
    },
    {
      "anonymous": false,
      "inputs": [
        {
          "indexed": true,
          "internalType": "address",
          "name": "recipientAddr",
          "type": "address"
        },
        {
          "indexed": false,
          "internalType": "uint256",
          "name": "amount",
          "type": "uint256"
        },
        {
          "indexed": false,
          "internalType": "uint256",
          "name": "balance",
          "type": "uint256"
        }
      ],
      "name": "DeprecatedRewardRecycleFailed",
      "type": "event"
    },
    {
      "anonymous": false,
      "inputs": [
        {
          "indexed": true,
          "internalType": "address",
          "name": "recipientAddr",
          "type": "address"
        },
        {
          "indexed": false,
          "internalType": "uint256",
          "name": "amount",
          "type": "uint256"
        }
      ],
      "name": "DeprecatedRewardRecycled",
      "type": "event"
    },
    {
      "anonymous": false,
      "inputs": [
        {
          "indexed": false,
          "internalType": "uint256",
          "name": "amount",
          "type": "uint256"
        }
      ],
      "name": "EmergencyExitLockedAmountUpdated",
      "type": "event"
    },
    {
      "anonymous": false,
      "inputs": [
        {
          "indexed": true,
          "internalType": "address",
          "name": "consensusAddr",
          "type": "address"
        },
        {
          "indexed": true,
          "internalType": "address",
          "name": "recipient",
          "type": "address"
        },
        {
          "indexed": false,
          "internalType": "uint256",
          "name": "unlockedAmount",
          "type": "uint256"
        }
      ],
      "name": "EmergencyExitLockedFundReleased",
      "type": "event"
    },
    {
      "anonymous": false,
      "inputs": [
        {
          "indexed": true,
          "internalType": "address",
          "name": "consensusAddr",
          "type": "address"
        },
        {
          "indexed": true,
          "internalType": "address",
          "name": "recipient",
          "type": "address"
        },
        {
          "indexed": false,
          "internalType": "uint256",
          "name": "unlockedAmount",
          "type": "uint256"
        },
        {
          "indexed": false,
          "internalType": "uint256",
          "name": "contractBalance",
          "type": "uint256"
        }
      ],
      "name": "EmergencyExitLockedFundReleasingFailed",
      "type": "event"
    },
    {
      "anonymous": false,
      "inputs": [
        {
          "indexed": true,
          "internalType": "address",
          "name": "consensusAddr",
          "type": "address"
        },
        {
          "indexed": false,
          "internalType": "uint256",
          "name": "lockedAmount",
          "type": "uint256"
        }
      ],
      "name": "EmergencyExitRequested",
      "type": "event"
    },
    {
      "anonymous": false,
      "inputs": [
        {
          "indexed": false,
          "internalType": "uint256",
          "name": "amount",
          "type": "uint256"
        }
      ],
      "name": "EmergencyExpiryDurationUpdated",
      "type": "event"
    },
    {
      "anonymous": false,
      "inputs": [
        {
          "indexed": true,
          "internalType": "address",
          "name": "consensusAddr",
          "type": "address"
        },
        {
          "indexed": true,
          "internalType": "address",
          "name": "recipient",
          "type": "address"
        },
        {
          "indexed": false,
          "internalType": "uint256",
          "name": "amount",
          "type": "uint256"
        }
      ],
      "name": "FastFinalityRewardDistributed",
      "type": "event"
    },
    {
      "anonymous": false,
      "inputs": [
        {
          "indexed": true,
          "internalType": "address",
          "name": "consensusAddr",
          "type": "address"
        },
        {
          "indexed": true,
          "internalType": "address",
          "name": "recipient",
          "type": "address"
        },
        {
          "indexed": false,
          "internalType": "uint256",
          "name": "amount",
          "type": "uint256"
        },
        {
          "indexed": false,
          "internalType": "uint256",
          "name": "contractBalance",
          "type": "uint256"
        }
      ],
      "name": "FastFinalityRewardDistributionFailed",
      "type": "event"
    },
    {
      "anonymous": false,
      "inputs": [
        {
          "indexed": false,
          "internalType": "uint8",
          "name": "version",
          "type": "uint8"
        }
      ],
      "name": "Initialized",
      "type": "event"
    },
    {
      "anonymous": false,
      "inputs": [
        {
          "indexed": false,
          "internalType": "uint256",
          "name": "",
          "type": "uint256"
        }
      ],
      "name": "MaxPrioritizedValidatorNumberUpdated",
      "type": "event"
    },
    {
      "anonymous": false,
      "inputs": [
        {
          "indexed": false,
          "internalType": "uint256",
          "name": "threshold",
          "type": "uint256"
        }
      ],
      "name": "MaxValidatorCandidateUpdated",
      "type": "event"
    },
    {
      "anonymous": false,
      "inputs": [
        {
          "indexed": false,
          "internalType": "uint256",
          "name": "",
          "type": "uint256"
        }
      ],
      "name": "MaxValidatorNumberUpdated",
      "type": "event"
    },
    {
      "anonymous": false,
      "inputs": [
        {
          "indexed": false,
          "internalType": "uint256",
          "name": "numOfDays",
          "type": "uint256"
        }
      ],
      "name": "MinEffectiveDaysOnwardsUpdated",
      "type": "event"
    },
    {
      "anonymous": false,
      "inputs": [
        {
          "indexed": true,
          "internalType": "address",
          "name": "consensusAddr",
          "type": "address"
        },
        {
          "indexed": true,
          "internalType": "address",
          "name": "recipient",
          "type": "address"
        },
        {
          "indexed": false,
          "internalType": "uint256",
          "name": "amount",
          "type": "uint256"
        }
      ],
      "name": "MiningRewardDistributed",
      "type": "event"
    },
    {
      "anonymous": false,
      "inputs": [
        {
          "indexed": true,
          "internalType": "address",
          "name": "consensusAddr",
          "type": "address"
        },
        {
          "indexed": true,
          "internalType": "address",
          "name": "recipient",
          "type": "address"
        },
        {
          "indexed": false,
          "internalType": "uint256",
          "name": "amount",
          "type": "uint256"
        },
        {
          "indexed": false,
          "internalType": "uint256",
          "name": "contractBalance",
          "type": "uint256"
        }
      ],
      "name": "MiningRewardDistributionFailed",
      "type": "event"
    },
    {
      "anonymous": false,
      "inputs": [
        {
          "indexed": false,
          "internalType": "uint256",
          "name": "totalAmount",
          "type": "uint256"
        },
        {
          "indexed": false,
          "internalType": "address[]",
          "name": "consensusAddrs",
          "type": "address[]"
        },
        {
          "indexed": false,
          "internalType": "uint256[]",
          "name": "amounts",
          "type": "uint256[]"
        }
      ],
      "name": "StakingRewardDistributed",
      "type": "event"
    },
    {
      "anonymous": false,
      "inputs": [
        {
          "indexed": false,
          "internalType": "uint256",
          "name": "totalAmount",
          "type": "uint256"
        },
        {
          "indexed": false,
          "internalType": "address[]",
          "name": "consensusAddrs",
          "type": "address[]"
        },
        {
          "indexed": false,
          "internalType": "uint256[]",
          "name": "amounts",
          "type": "uint256[]"
        },
        {
          "indexed": false,
          "internalType": "uint256",
          "name": "contractBalance",
          "type": "uint256"
        }
      ],
      "name": "StakingRewardDistributionFailed",
      "type": "event"
    },
    {
      "anonymous": false,
      "inputs": [
        {
          "indexed": true,
          "internalType": "address",
          "name": "consensusAddr",
          "type": "address"
        },
        {
          "indexed": true,
          "internalType": "uint256",
          "name": "period",
          "type": "uint256"
        },
        {
          "indexed": false,
          "internalType": "uint256",
          "name": "jailedUntil",
          "type": "uint256"
        },
        {
          "indexed": false,
          "internalType": "uint256",
          "name": "deductedStakingAmount",
          "type": "uint256"
        },
        {
          "indexed": false,
          "internalType": "bool",
          "name": "blockProducerRewardDeprecated",
          "type": "bool"
        },
        {
          "indexed": false,
          "internalType": "bool",
          "name": "bridgeOperatorRewardDeprecated",
          "type": "bool"
        }
      ],
      "name": "ValidatorPunished",
      "type": "event"
    },
    {
      "anonymous": false,
      "inputs": [
        {
          "indexed": true,
          "internalType": "uint256",
          "name": "period",
          "type": "uint256"
        },
        {
          "indexed": false,
          "internalType": "address[]",
          "name": "consensusAddrs",
          "type": "address[]"
        }
      ],
      "name": "ValidatorSetUpdated",
      "type": "event"
    },
    {
      "anonymous": false,
      "inputs": [
        {
          "indexed": true,
          "internalType": "address",
          "name": "validator",
          "type": "address"
        },
        {
          "indexed": false,
          "internalType": "uint256",
          "name": "period",
          "type": "uint256"
        }
      ],
      "name": "ValidatorUnjailed",
      "type": "event"
    },
    {
      "anonymous": false,
      "inputs": [
        {
          "indexed": true,
          "internalType": "uint256",
          "name": "periodNumber",
          "type": "uint256"
        },
        {
          "indexed": true,
          "internalType": "uint256",
          "name": "epochNumber",
          "type": "uint256"
        },
        {
          "indexed": false,
          "internalType": "bool",
          "name": "periodEnding",
          "type": "bool"
        }
      ],
      "name": "WrappedUpEpoch",
      "type": "event"
    },
    {
      "stateMutability": "payable",
      "type": "fallback"
    },
    {
      "inputs": [],
      "name": "DEFAULT_ADDITION_GAS",
      "outputs": [
        {
          "internalType": "uint256",
          "name": "",
          "type": "uint256"
        }
      ],
      "stateMutability": "view",
      "type": "function"
    },
    {
      "inputs": [],
      "name": "PERIOD_DURATION",
      "outputs": [
        {
          "internalType": "uint256",
          "name": "",
          "type": "uint256"
        }
      ],
      "stateMutability": "view",
      "type": "function"
    },
    {
      "inputs": [
        {
          "internalType": "address",
          "name": "_addr",
          "type": "address"
        }
      ],
      "name": "checkJailed",
      "outputs": [
        {
          "internalType": "bool",
          "name": "",
          "type": "bool"
        }
      ],
      "stateMutability": "view",
      "type": "function"
    },
    {
      "inputs": [
        {
          "internalType": "address",
          "name": "_addr",
          "type": "address"
        },
        {
          "internalType": "uint256",
          "name": "_blockNum",
          "type": "uint256"
        }
      ],
      "name": "checkJailedAtBlock",
      "outputs": [
        {
          "internalType": "bool",
          "name": "",
          "type": "bool"
        }
      ],
      "stateMutability": "view",
      "type": "function"
    },
    {
      "inputs": [
        {
          "internalType": "address[]",
          "name": "_addrList",
          "type": "address[]"
        }
      ],
      "name": "checkManyJailed",
      "outputs": [
        {
          "internalType": "bool[]",
          "name": "_result",
          "type": "bool[]"
        }
      ],
      "stateMutability": "view",
      "type": "function"
    },
    {
      "inputs": [
        {
          "internalType": "address",
          "name": "_blockProducer",
          "type": "address"
        }
      ],
      "name": "checkMiningRewardDeprecated",
      "outputs": [
        {
          "internalType": "bool",
          "name": "_result",
          "type": "bool"
        }
      ],
      "stateMutability": "view",
      "type": "function"
    },
    {
      "inputs": [
        {
          "internalType": "address",
          "name": "_blockProducer",
          "type": "address"
        },
        {
          "internalType": "uint256",
          "name": "_period",
          "type": "uint256"
        }
      ],
      "name": "checkMiningRewardDeprecatedAtPeriod",
      "outputs": [
        {
          "internalType": "bool",
          "name": "_result",
          "type": "bool"
        }
      ],
      "stateMutability": "view",
      "type": "function"
    },
    {
      "inputs": [],
      "name": "currentPeriod",
      "outputs": [
        {
          "internalType": "uint256",
          "name": "",
          "type": "uint256"
        }
      ],
      "stateMutability": "view",
      "type": "function"
    },
    {
      "inputs": [],
      "name": "currentPeriodStartAtBlock",
      "outputs": [
        {
          "internalType": "uint256",
          "name": "",
          "type": "uint256"
        }
      ],
      "stateMutability": "view",
      "type": "function"
    },
    {
      "inputs": [],
      "name": "emergencyExitLockedAmount",
      "outputs": [
        {
          "internalType": "uint256",
          "name": "",
          "type": "uint256"
        }
      ],
      "stateMutability": "view",
      "type": "function"
    },
    {
      "inputs": [],
      "name": "emergencyExpiryDuration",
      "outputs": [
        {
          "internalType": "uint256",
          "name": "",
          "type": "uint256"
        }
      ],
      "stateMutability": "view",
      "type": "function"
    },
    {
      "inputs": [
        {
          "internalType": "uint256",
          "name": "_block",
          "type": "uint256"
        }
      ],
      "name": "epochEndingAt",
      "outputs": [
        {
          "internalType": "bool",
          "name": "",
          "type": "bool"
        }
      ],
      "stateMutability": "view",
      "type": "function"
    },
    {
      "inputs": [
        {
          "internalType": "uint256",
          "name": "_block",
          "type": "uint256"
        }
      ],
      "name": "epochOf",
      "outputs": [
        {
          "internalType": "uint256",
          "name": "",
          "type": "uint256"
        }
      ],
      "stateMutability": "view",
      "type": "function"
    },
    {
      "inputs": [
        {
          "internalType": "address",
          "name": "_candidateAdmin",
          "type": "address"
        },
        {
          "internalType": "address",
          "name": "_consensusAddr",
          "type": "address"
        },
        {
          "internalType": "address payable",
          "name": "_treasuryAddr",
          "type": "address"
        },
        {
          "internalType": "uint256",
          "name": "_commissionRate",
          "type": "uint256"
        }
      ],
      "name": "execApplyValidatorCandidate",
      "outputs": [],
      "stateMutability": "nonpayable",
      "type": "function"
    },
    {
      "inputs": [
        {
          "internalType": "address",
          "name": "validatorAddr",
          "type": "address"
        },
        {
          "internalType": "uint256",
          "name": "period",
          "type": "uint256"
        }
      ],
      "name": "execBailOut",
      "outputs": [],
      "stateMutability": "nonpayable",
      "type": "function"
    },
    {
      "inputs": [
        {
          "internalType": "address",
          "name": "_consensusAddr",
          "type": "address"
        },
        {
          "internalType": "uint256",
          "name": "_secLeftToRevoke",
          "type": "uint256"
        }
      ],
      "name": "execEmergencyExit",
      "outputs": [],
      "stateMutability": "nonpayable",
      "type": "function"
    },
    {
      "inputs": [
        {
          "internalType": "address",
          "name": "_consensusAddr",
          "type": "address"
        },
        {
          "internalType": "address payable",
          "name": "_recipient",
          "type": "address"
        }
      ],
      "name": "execReleaseLockedFundForEmergencyExitRequest",
      "outputs": [],
      "stateMutability": "nonpayable",
      "type": "function"
    },
    {
      "inputs": [
        {
          "internalType": "address",
          "name": "_consensusAddr",
          "type": "address"
        },
        {
          "internalType": "uint256",
          "name": "_secsLeft",
          "type": "uint256"
        }
      ],
      "name": "execRequestRenounceCandidate",
      "outputs": [],
      "stateMutability": "nonpayable",
      "type": "function"
    },
    {
      "inputs": [
        {
          "internalType": "address",
          "name": "_consensusAddr",
          "type": "address"
        },
        {
          "internalType": "uint256",
          "name": "_effectiveDaysOnwards",
          "type": "uint256"
        },
        {
          "internalType": "uint256",
          "name": "_commissionRate",
          "type": "uint256"
        }
      ],
      "name": "execRequestUpdateCommissionRate",
      "outputs": [],
      "stateMutability": "nonpayable",
      "type": "function"
    },
    {
      "inputs": [
        {
          "internalType": "address",
          "name": "validatorAddr",
          "type": "address"
        },
        {
          "internalType": "uint256",
          "name": "newJailedUntil",
          "type": "uint256"
        },
        {
          "internalType": "uint256",
          "name": "slashAmount",
          "type": "uint256"
        },
        {
          "internalType": "bool",
          "name": "cannotBailout",
          "type": "bool"
        }
      ],
      "name": "execSlash",
      "outputs": [],
      "stateMutability": "nonpayable",
      "type": "function"
    },
    {
      "inputs": [],
      "name": "getBlockProducers",
      "outputs": [
        {
          "internalType": "address[]",
          "name": "_result",
          "type": "address[]"
        }
      ],
      "stateMutability": "view",
      "type": "function"
    },
    {
      "inputs": [
        {
          "internalType": "address",
          "name": "_candidate",
          "type": "address"
        }
      ],
      "name": "getCandidateInfo",
      "outputs": [
        {
          "components": [
            {
              "internalType": "address",
              "name": "admin",
              "type": "address"
            },
            {
              "internalType": "address",
              "name": "consensusAddr",
              "type": "address"
            },
            {
              "internalType": "address payable",
              "name": "treasuryAddr",
              "type": "address"
            },
            {
              "internalType": "address",
              "name": "______deprecatedbridgeOperatorAddr",
              "type": "address"
            },
            {
              "internalType": "uint256",
              "name": "commissionRate",
              "type": "uint256"
            },
            {
              "internalType": "uint256",
              "name": "revokingTimestamp",
              "type": "uint256"
            },
            {
              "internalType": "uint256",
              "name": "topupDeadline",
              "type": "uint256"
            }
          ],
          "internalType": "struct ICandidateManager.ValidatorCandidate",
          "name": "",
          "type": "tuple"
        }
      ],
      "stateMutability": "view",
      "type": "function"
    },
    {
      "inputs": [],
      "name": "getCandidateInfos",
      "outputs": [
        {
          "components": [
            {
              "internalType": "address",
              "name": "admin",
              "type": "address"
            },
            {
              "internalType": "address",
              "name": "consensusAddr",
              "type": "address"
            },
            {
              "internalType": "address payable",
              "name": "treasuryAddr",
              "type": "address"
            },
            {
              "internalType": "address",
              "name": "______deprecatedbridgeOperatorAddr",
              "type": "address"
            },
            {
              "internalType": "uint256",
              "name": "commissionRate",
              "type": "uint256"
            },
            {
              "internalType": "uint256",
              "name": "revokingTimestamp",
              "type": "uint256"
            },
            {
              "internalType": "uint256",
              "name": "topupDeadline",
              "type": "uint256"
            }
          ],
          "internalType": "struct ICandidateManager.ValidatorCandidate[]",
          "name": "_list",
          "type": "tuple[]"
        }
      ],
      "stateMutability": "view",
      "type": "function"
    },
    {
      "inputs": [
        {
          "internalType": "address",
          "name": "_candidate",
          "type": "address"
        }
      ],
      "name": "getCommissionChangeSchedule",
      "outputs": [
        {
          "components": [
            {
              "internalType": "uint256",
              "name": "effectiveTimestamp",
              "type": "uint256"
            },
            {
              "internalType": "uint256",
              "name": "commissionRate",
              "type": "uint256"
            }
          ],
          "internalType": "struct ICandidateManager.CommissionSchedule",
          "name": "",
          "type": "tuple"
        }
      ],
      "stateMutability": "view",
      "type": "function"
    },
    {
      "inputs": [
        {
          "internalType": "enum ContractType",
          "name": "contractType",
          "type": "uint8"
        }
      ],
      "name": "getContract",
      "outputs": [
        {
          "internalType": "address",
          "name": "contract_",
          "type": "address"
        }
      ],
      "stateMutability": "view",
      "type": "function"
    },
    {
      "inputs": [
        {
          "internalType": "address",
          "name": "_consensusAddr",
          "type": "address"
        }
      ],
      "name": "getEmergencyExitInfo",
      "outputs": [
        {
          "components": [
            {
              "internalType": "uint256",
              "name": "lockedAmount",
              "type": "uint256"
            },
            {
              "internalType": "uint256",
              "name": "recyclingAt",
              "type": "uint256"
            }
          ],
          "internalType": "struct ICommonInfo.EmergencyExitInfo",
          "name": "_info",
          "type": "tuple"
        }
      ],
      "stateMutability": "view",
      "type": "function"
    },
    {
      "inputs": [
        {
          "internalType": "address",
          "name": "_addr",
          "type": "address"
        }
      ],
      "name": "getJailedTimeLeft",
      "outputs": [
        {
          "internalType": "bool",
          "name": "isJailed_",
          "type": "bool"
        },
        {
          "internalType": "uint256",
          "name": "blockLeft_",
          "type": "uint256"
        },
        {
          "internalType": "uint256",
          "name": "epochLeft_",
          "type": "uint256"
        }
      ],
      "stateMutability": "view",
      "type": "function"
    },
    {
      "inputs": [
        {
          "internalType": "address",
          "name": "_addr",
          "type": "address"
        },
        {
          "internalType": "uint256",
          "name": "_blockNum",
          "type": "uint256"
        }
      ],
      "name": "getJailedTimeLeftAtBlock",
      "outputs": [
        {
          "internalType": "bool",
          "name": "isJailed_",
          "type": "bool"
        },
        {
          "internalType": "uint256",
          "name": "blockLeft_",
          "type": "uint256"
        },
        {
          "internalType": "uint256",
          "name": "epochLeft_",
          "type": "uint256"
        }
      ],
      "stateMutability": "view",
      "type": "function"
    },
    {
      "inputs": [],
      "name": "getLastUpdatedBlock",
      "outputs": [
        {
          "internalType": "uint256",
          "name": "",
          "type": "uint256"
        }
      ],
      "stateMutability": "view",
      "type": "function"
    },
    {
      "inputs": [],
      "name": "getValidatorCandidates",
      "outputs": [
        {
          "internalType": "address[]",
          "name": "",
          "type": "address[]"
        }
      ],
      "stateMutability": "view",
      "type": "function"
    },
    {
      "inputs": [],
      "name": "getValidators",
      "outputs": [
        {
          "internalType": "address[]",
          "name": "_validatorList",
          "type": "address[]"
        }
      ],
      "stateMutability": "view",
      "type": "function"
    },
    {
      "inputs": [
        {
          "internalType": "address",
          "name": "__slashIndicatorContract",
          "type": "address"
        },
        {
          "internalType": "address",
          "name": "__stakingContract",
          "type": "address"
        },
        {
          "internalType": "address",
          "name": "__stakingVestingContract",
          "type": "address"
        },
        {
          "internalType": "address",
          "name": "__maintenanceContract",
          "type": "address"
        },
        {
          "internalType": "address",
          "name": "__roninTrustedOrganizationContract",
          "type": "address"
        },
        {
          "internalType": "address",
          "name": "",
          "type": "address"
        },
        {
          "internalType": "uint256",
          "name": "__maxValidatorNumber",
          "type": "uint256"
        },
        {
          "internalType": "uint256",
          "name": "__maxValidatorCandidate",
          "type": "uint256"
        },
        {
          "internalType": "uint256",
          "name": "__maxPrioritizedValidatorNumber",
          "type": "uint256"
        },
        {
          "internalType": "uint256",
          "name": "__minEffectiveDaysOnwards",
          "type": "uint256"
        },
        {
          "internalType": "uint256",
          "name": "__numberOfBlocksInEpoch",
          "type": "uint256"
        },
        {
          "internalType": "uint256[2]",
          "name": "__emergencyExitConfigs",
          "type": "uint256[2]"
        }
      ],
      "name": "initialize",
      "outputs": [],
      "stateMutability": "nonpayable",
      "type": "function"
    },
    {
      "inputs": [],
      "name": "initializeV2",
      "outputs": [],
      "stateMutability": "nonpayable",
      "type": "function"
    },
    {
      "inputs": [
        {
          "internalType": "address",
          "name": "fastFinalityTrackingContract",
          "type": "address"
        }
      ],
      "name": "initializeV3",
      "outputs": [],
      "stateMutability": "nonpayable",
      "type": "function"
    },
    {
      "inputs": [
        {
          "internalType": "address",
          "name": "_addr",
          "type": "address"
        }
      ],
      "name": "isBlockProducer",
      "outputs": [
        {
          "internalType": "bool",
          "name": "",
          "type": "bool"
        }
      ],
      "stateMutability": "view",
      "type": "function"
    },
    {
      "inputs": [
        {
          "internalType": "address",
          "name": "_candidate",
          "type": "address"
        },
        {
          "internalType": "address",
          "name": "_admin",
          "type": "address"
        }
      ],
      "name": "isCandidateAdmin",
      "outputs": [
        {
          "internalType": "bool",
          "name": "",
          "type": "bool"
        }
      ],
      "stateMutability": "view",
      "type": "function"
    },
    {
      "inputs": [],
      "name": "isPeriodEnding",
      "outputs": [
        {
          "internalType": "bool",
          "name": "",
          "type": "bool"
        }
      ],
      "stateMutability": "view",
      "type": "function"
    },
    {
      "inputs": [
        {
          "internalType": "address",
          "name": "_addr",
          "type": "address"
        }
      ],
      "name": "isValidatorCandidate",
      "outputs": [
        {
          "internalType": "bool",
          "name": "",
          "type": "bool"
        }
      ],
      "stateMutability": "view",
      "type": "function"
    },
    {
      "inputs": [],
      "name": "maxPrioritizedValidatorNumber",
      "outputs": [
        {
          "internalType": "uint256",
          "name": "_maximumPrioritizedValidatorNumber",
          "type": "uint256"
        }
      ],
      "stateMutability": "view",
      "type": "function"
    },
    {
      "inputs": [],
      "name": "maxValidatorCandidate",
      "outputs": [
        {
          "internalType": "uint256",
          "name": "",
          "type": "uint256"
        }
      ],
      "stateMutability": "view",
      "type": "function"
    },
    {
      "inputs": [],
      "name": "maxValidatorNumber",
      "outputs": [
        {
          "internalType": "uint256",
          "name": "_maximumValidatorNumber",
          "type": "uint256"
        }
      ],
      "stateMutability": "view",
      "type": "function"
    },
    {
      "inputs": [],
      "name": "minEffectiveDaysOnward",
      "outputs": [
        {
          "internalType": "uint256",
          "name": "",
          "type": "uint256"
        }
      ],
      "stateMutability": "view",
      "type": "function"
    },
    {
      "inputs": [],
      "name": "numberOfBlocksInEpoch",
      "outputs": [
        {
          "internalType": "uint256",
          "name": "_numberOfBlocks",
          "type": "uint256"
        }
      ],
      "stateMutability": "view",
      "type": "function"
    },
    {
      "inputs": [],
      "name": "precompilePickValidatorSetAddress",
      "outputs": [
        {
          "internalType": "address",
          "name": "",
          "type": "address"
        }
      ],
      "stateMutability": "view",
      "type": "function"
    },
    {
      "inputs": [],
      "name": "precompileSortValidatorsAddress",
      "outputs": [
        {
          "internalType": "address",
          "name": "",
          "type": "address"
        }
      ],
      "stateMutability": "view",
      "type": "function"
    },
    {
      "inputs": [
        {
          "internalType": "enum ContractType",
          "name": "contractType",
          "type": "uint8"
        },
        {
          "internalType": "address",
          "name": "addr",
          "type": "address"
        }
      ],
      "name": "setContract",
      "outputs": [],
      "stateMutability": "nonpayable",
      "type": "function"
    },
    {
      "inputs": [
        {
          "internalType": "uint256",
          "name": "_emergencyExitLockedAmount",
          "type": "uint256"
        }
      ],
      "name": "setEmergencyExitLockedAmount",
      "outputs": [],
      "stateMutability": "nonpayable",
      "type": "function"
    },
    {
      "inputs": [
        {
          "internalType": "uint256",
          "name": "_emergencyExpiryDuration",
          "type": "uint256"
        }
      ],
      "name": "setEmergencyExpiryDuration",
      "outputs": [],
      "stateMutability": "nonpayable",
      "type": "function"
    },
    {
      "inputs": [
        {
          "internalType": "uint256",
          "name": "_number",
          "type": "uint256"
        }
      ],
      "name": "setMaxPrioritizedValidatorNumber",
      "outputs": [],
      "stateMutability": "nonpayable",
      "type": "function"
    },
    {
      "inputs": [
        {
          "internalType": "uint256",
          "name": "_number",
          "type": "uint256"
        }
      ],
      "name": "setMaxValidatorCandidate",
      "outputs": [],
      "stateMutability": "nonpayable",
      "type": "function"
    },
    {
      "inputs": [
        {
          "internalType": "uint256",
          "name": "_max",
          "type": "uint256"
        }
      ],
      "name": "setMaxValidatorNumber",
      "outputs": [],
      "stateMutability": "nonpayable",
      "type": "function"
    },
    {
      "inputs": [
        {
          "internalType": "uint256",
          "name": "_numOfDays",
          "type": "uint256"
        }
      ],
      "name": "setMinEffectiveDaysOnwards",
      "outputs": [],
      "stateMutability": "nonpayable",
      "type": "function"
    },
    {
      "inputs": [],
      "name": "submitBlockReward",
      "outputs": [],
      "stateMutability": "payable",
      "type": "function"
    },
    {
      "inputs": [],
      "name": "totalBlockProducer",
      "outputs": [
        {
          "internalType": "uint256",
          "name": "_total",
          "type": "uint256"
        }
      ],
      "stateMutability": "view",
      "type": "function"
    },
    {
      "inputs": [],
      "name": "totalDeprecatedReward",
      "outputs": [
        {
          "internalType": "uint256",
          "name": "",
          "type": "uint256"
        }
      ],
      "stateMutability": "view",
      "type": "function"
    },
    {
      "inputs": [
        {
          "internalType": "uint256",
          "name": "_epoch",
          "type": "uint256"
        }
      ],
      "name": "tryGetPeriodOfEpoch",
      "outputs": [
        {
          "internalType": "bool",
          "name": "_filled",
          "type": "bool"
        },
        {
          "internalType": "uint256",
          "name": "_periodNumber",
          "type": "uint256"
        }
      ],
      "stateMutability": "view",
      "type": "function"
    },
    {
      "inputs": [],
      "name": "validatorCount",
      "outputs": [
        {
          "internalType": "uint256",
          "name": "",
          "type": "uint256"
        }
      ],
      "stateMutability": "view",
      "type": "function"
    },
    {
      "inputs": [],
      "name": "wrapUpEpoch",
      "outputs": [],
      "stateMutability": "payable",
      "type": "function"
    },
    {
      "stateMutability": "payable",
      "type": "receive"
    }
  ],
  "transactionHash": "0xcb39bb6b4871d96f9ceb62bffc4bdae2c7a479a5a428375b9517e8e4a0db5753",
  "args": [],
  "numDeployments": 4,
  "solcInputHash": "20f35804d80bd26382f04e7db0eee067",
  "bytecode": "0x60806040523480156200001157600080fd5b506200001c62000022565b620000e4565b600054610100900460ff16156200008f5760405162461bcd60e51b815260206004820152602760248201527f496e697469616c697a61626c653a20636f6e747261637420697320696e697469604482015266616c697a696e6760c81b606482015260840160405180910390fd5b60005460ff9081161015620000e2576000805460ff191660ff9081179091556040519081527f7f26b83ff96e1f2b6a682f133852f6798a09c465da95921460cefb38474024989060200160405180910390a15b565b614cdc80620000f46000396000f3fe6080604052600436106102955760003560e01c806303827884146102ac57806304d971ab146102d557806306040618146103055780630f43a6771461031a57806311662dc2146103305780631196ab661461036d57806315b5ebde1461038d578063217f35c2146103ad57806323c65eb0146103c257806328bde1e1146103e25780632924de711461040f578063297a8fca1461042f5780632d784a98146104445780632f78204c146104715780633101cfcb1461049157806331a8aef5146104b1578063367ec12b146104d15780633b3159b6146104f1578063468c96ae1461050e57806349096d26146105455780634d8df063146105675780634de2b735146105875780634ee4d72b146105b45780634f2a693f146105c957806352091f17146105e95780635248184a146105f15780635cd8a76b14610613578063605239a114610628578063612c8d981461063d57806365244ece146106525780636558954f146106725780636611f84314610689578063690b7536146106a95780636aa1c2ef146106be57806372e46810146106d35780637593ff71146106db578063823a7b9c146106fb578063865e6fd31461071b578063873a5a701461073b57806387c891bd1461075b5780638d559c381461077057806396585fc214610784578063a0c3f2d2146107a4578063a3d545f5146107c4578063a66c0f77146107e4578063a7c2f119146107f9578063afc69d7314610819578063b7ab4db51461082e578063ba77b06c14610843578063c3c8b5d614610858578063c94aaa0214610878578063d09f1ab414610898578063dd716ad3146108ad578063de981f1b146108cd578063e5125a1d146108ed578063edb194bb1461090d578063eeb629a81461096f578063f883afaf14610984576102a4565b366102a4576102a26109a4565b005b6102a26109a4565b3480156102b857600080fd5b506102c26104b081565b6040519081526020015b60405180910390f35b3480156102e157600080fd5b506102f56102f03660046141c9565b610a0d565b60405190151581526020016102cc565b34801561031157600080fd5b506102c2610a34565b34801561032657600080fd5b506102c260aa5481565b34801561033c57600080fd5b5061035061034b366004614202565b610a44565b6040805193151584526020840192909252908201526060016102cc565b34801561037957600080fd5b506102a261038836600461422e565b610ac7565b34801561039957600080fd5b506102a26103a8366004614202565b610adb565b3480156103b957600080fd5b506102f5610bdc565b3480156103ce57600080fd5b506102f56103dd366004614202565b610bf1565b3480156103ee57600080fd5b506104026103fd366004614247565b610c04565b6040516102cc91906142b8565b34801561041b57600080fd5b506102f561042a366004614247565b610ca7565b34801561043b57600080fd5b506004546102c2565b34801561045057600080fd5b5061046461045f366004614247565b610cb3565b6040516102cc91906142c6565b34801561047d57600080fd5b506102a261048c3660046142eb565b610d15565b34801561049d57600080fd5b506102a26104ac366004614247565b610f30565b3480156104bd57600080fd5b506102f56104cc366004614202565b610fc0565b3480156104dd57600080fd5b506102a26104ec366004614346565b610fcc565b3480156104fd57600080fd5b5060685b6040516102cc919061440c565b34801561051a57600080fd5b5061052e61052936600461422e565b6110ff565b6040805192151583526020830191909152016102cc565b34801561055157600080fd5b5061055a61113d565b6040516102cc9190614464565b34801561057357600080fd5b506102a261058236600461422e565b61121c565b34801561059357600080fd5b506105a76105a2366004614477565b61122d565b6040516102cc91906144eb565b3480156105c057600080fd5b5060e4546102c2565b3480156105d557600080fd5b506102a26105e436600461422e565b6112de565b6102a26112ef565b3480156105fd57600080fd5b506106066116ba565b6040516102cc9190614531565b34801561061f57600080fd5b506102a26117df565b34801561063457600080fd5b506072546102c2565b34801561064957600080fd5b506076546102c2565b34801561065e57600080fd5b506102f561066d366004614247565b611918565b34801561067e57600080fd5b506102c26201518081565b34801561069557600080fd5b506102a26106a436600461422e565b611952565b3480156106b557600080fd5b5060e5546102c2565b3480156106ca57600080fd5b506001546102c2565b6102a2611963565b3480156106e757600080fd5b506102f56106f636600461422e565b611bb1565b34801561070757600080fd5b506102a261071636600461422e565b611bd5565b34801561072757600080fd5b506102a2610736366004614582565b611be6565b34801561074757600080fd5b506102f5610756366004614247565b611c05565b34801561076757600080fd5b506002546102c2565b34801561077c57600080fd5b506066610501565b34801561079057600080fd5b5061035061079f366004614247565b611c1c565b3480156107b057600080fd5b506102f56107bf366004614247565b611c38565b3480156107d057600080fd5b506102c26107df36600461422e565b611c55565b3480156107f057600080fd5b5060e6546102c2565b34801561080557600080fd5b506102a2610814366004614202565b611c60565b34801561082557600080fd5b506102c2611ea3565b34801561083a57600080fd5b5061055a611ee6565b34801561084f57600080fd5b5061055a611f8c565b34801561086457600080fd5b506102a26108733660046141c9565b611fee565b34801561088457600080fd5b506102a261089336600461422e565b612245565b3480156108a457600080fd5b5060a9546102c2565b3480156108b957600080fd5b506102a26108c8366004614202565b612256565b3480156108d957600080fd5b506105016108e836600461459e565b6122dc565b3480156108f957600080fd5b506102a26109083660046145b9565b612339565b34801561091957600080fd5b50610464610928366004614247565b6040805180820190915260008082526020820152506001600160a01b0316600090815260776020908152604091829020825180840190935280548352600101549082015290565b34801561097b57600080fd5b5060ad546102c2565b34801561099057600080fd5b506102a261099f3660046145ee565b612447565b6109ae60076122dc565b6001600160a01b0316336001600160a01b0316141580156109ea57506109d460096122dc565b6001600160a01b0316336001600160a01b031614155b15610a0b5760405160016234baed60e01b0319815260040160405180910390fd5b565b6001600160a01b038281166000908152607560205260409020548116908216145b92915050565b6000610a3f60035490565b905090565b6001600160a01b0382166000908152603a60205260408120548190819084811015610a7a57600080600093509350935050610ac0565b60019350610a888582614655565b610a93906001614668565b9250610a9e85611c55565b610aa782611c55565b610ab19190614655565b610abc906001614668565b9150505b9250925092565b610acf612647565b610ad881612690565b50565b6006610ae6816126e7565b6001600160a01b0383166000908152603c60205260409020544311610b2957826040516353e0424d60e01b8152600401610b20919061440c565b60405180910390fd5b6001600160a01b038316600081815260386020908152604080832086845282528083208054600160ff199182168117909255948452603783528184208785529092529091208054909216909155610b809043614655565b6001600160a01b0384166000818152603a6020526040908190209290925590517f6bb2436cb6b6eb65d5a52fac2ae0373a77ade6661e523ef3004ee2d5524e6c6e90610bcf9085815260200190565b60405180910390a2505050565b6000610a3f610bea42612733565b6003541090565b6000610bfd8383612742565b9392505050565b610c0c614178565b610c1582611c38565b610c325760405163a64b34ad60e01b815260040160405180910390fd5b506001600160a01b03908116600090815260756020908152604091829020825160e081018452815485168152600182015485169281019290925260028101548416928201929092526003820154909216606083015260048101546080830152600581015460a08301526006015460c082015290565b6000610a2e8243610bf1565b604080518082018252600080825260209182018190526001600160a01b038416815260e882528281208351808501909452805484526001015491830182905203610d10576040516370fdd4f160e11b815260040160405180910390fd5b919050565b6006610d20816126e7565b6000610d2a610a34565b6001600160a01b03871660008181526037602090815260408083208584528252808320805460ff1916600117905592825260e181528282205460e090915291902054919250610d7891614668565b60e46000828254610d899190614668565b90915550506001600160a01b038616600090815260e06020908152604080832083905560e18252808320839055603a909152902054610dc9908690612762565b6001600160a01b0387166000908152603a60205260409020558315610e7f576000610df460096122dc565b6001600160a01b0316632715805e88876040518363ffffffff1660e01b8152600401610e2192919061467b565b6020604051808303816000875af1158015610e40573d6000803e3d6000fd5b505050506040513d601f19601f82011682018060405250810190610e649190614694565b90508060e46000828254610e789190614668565b9091555050505b8215610ec3576001600160a01b0386166000908152603c6020526040902054610ea9908690612762565b6001600160a01b0387166000908152603c60205260409020555b6001600160a01b0386166000818152603a6020908152604080832054815190815291820188905260019082015260608101919091528291907f54ce99c5ce1fc9f61656d4a0fb2697974d0c973ac32eecaefe06fcf18b8ef68a9060800160405180910390a3505050505050565b600054600390610100900460ff16158015610f52575060005460ff8083169116105b610f6e5760405162461bcd60e51b8152600401610b20906146ad565b6000805461ffff191660ff831617610100179055610f8d600e83612779565b6000805461ff001916905560405160ff82168152600080516020614cb08339815191529060200160405180910390a15050565b6000610bfd8383612804565b600054610100900460ff1615808015610fec5750600054600160ff909116105b806110065750303b158015611006575060005460ff166001145b6110225760405162461bcd60e51b8152600401610b20906146ad565b6000805460ff191660011790558015611045576000805461ff0019166101001790555b61105060068e612779565b61105b60098d612779565b61106660078c612779565b61107160058b612779565b61107c600a8a612779565b6110858761282f565b61108e86612864565b61109785612899565b6110a084612690565b6110aa82356128f1565b6110b76020830135612926565b600183905580156110f0576000805461ff001916905560405160018152600080516020614cb08339815191529060200160405180910390a15b50505050505050505050505050565b60008061110b43611c55565b83111580611126575060008381526005602052604090205415155b600093845260056020526040909320549293915050565b606060aa546001600160401b0381111561115957611159614711565b604051908082528060200260200182016040528015611182578160200160208202803683370190505b5090506000805b825181101561121657600081815260ab60205260409020546111b3906001600160a01b0316611918565b1561120e57600081815260ab60205260409020546001600160a01b031683836111db81614727565b9450815181106111ed576111ed6146fb565b60200260200101906001600160a01b031690816001600160a01b0316815250505b600101611189565b50815290565b611224612647565b610ad881612926565b6060816001600160401b0381111561124757611247614711565b604051908082528060200260200182016040528015611270578160200160208202803683370190505b50905060005b828110156112d7576112ad848483818110611293576112936146fb565b90506020020160208101906112a89190614247565b61295b565b8282815181106112bf576112bf6146fb565b91151560209283029190910190910152600101611276565b5092915050565b6112e6612647565b610ad881612864565b6112f7612967565b600061130233611918565b801561131457506113123361295b565b155b801561132e575061132c33611327610a34565b612804565b155b905060008061133d60076122dc565b604051630634f5b960e01b81528415156004820152600060248201526001600160a01b039190911690630634f5b9906044016080604051808303816000875af115801561138e573d6000803e3d6000fd5b505050506040513d601f19601f820116820180604052508101906113b29190614740565b935050925050826113f7573460e460008282546113cf9190614668565b90915550506040513390600080516020614c9083398151915290610bcf903490600190614795565b336001600160a01b03167f0ede5c3be8625943fa64003cd4b91230089411249f3059bac6500873543ca9b134846040516114329291906147b9565b60405180910390a26000611444610a34565b905060006114528434614668565b9050600061271061146385846147c7565b61146d91906147f4565b9050600061147b8284614655565b905060008260e260008282546114919190614668565b909155505033600090815260386020908152604080832088845290915290205460ff161561158a5760006114c560066122dc565b6001600160a01b031663c6391fa26040518163ffffffff1660e01b8152600401608060405180830381865afa158015611502573d6000803e3d6000fd5b505050506040513d601f19601f820116820180604052508101906115269190614808565b9350505050612710818461153a91906147c7565b61154491906147f4565b91508160e460008282546115589190614668565b90915550506040513390600080516020614c9083398151915290611580908590600290614795565b60405180910390a2505b6115948183614655565b91506000806115a360096122dc565b6001600160a01b0316634530d2026040518163ffffffff1660e01b81526004016040805180830381865afa1580156115df573d6000803e3d6000fd5b505050506040513d601f19601f82011682018060405250810190611603919061483e565b33600090815260756020526040812060040154929450909250906116319061162b9084612987565b84612762565b9050600061271061164287846147c7565b61164c91906147f4565b33600090815260e06020526040812080549293508392909190611670908490614668565b90915550600090506116828288614655565b33600090815260e160205260408120805492935083929091906116a6908490614668565b909155505050505050505050505050505050565b6073546060906001600160401b038111156116d7576116d7614711565b60405190808252806020026020018201604052801561171057816020015b6116fd614178565b8152602001906001900390816116f55790505b50905060005b81518110156117db576075600060738381548110611736576117366146fb565b60009182526020808320909101546001600160a01b039081168452838201949094526040928301909120825160e081018452815485168152600182015485169281019290925260028101548416928201929092526003820154909216606083015260048101546080830152600581015460a08301526006015460c082015282518390839081106117c8576117c86146fb565b6020908102919091010152600101611716565b5090565b600054600290610100900460ff16158015611801575060005460ff8083169116105b61181d5760405162461bcd60e51b8152600401610b20906146ad565b6000805461ffff191660ff831617610100179055607154611849906009906001600160a01b0316612779565b606f54611861906005906001600160a01b0316612779565b607054611879906006906001600160a01b0316612779565b606d54611891906007906001600160a01b0316612779565b60a8546118a990600a906001600160a01b0316612779565b607180546001600160a01b0319908116909155606f8054821690556070805482169055606d805482169055606e80548216905560a8805490911690556000805461ff001916905560405160ff82168152600080516020614cb0833981519152906020015b60405180910390a150565b6001600160a01b038116600090815260ac6020526040812054610a2e9060019060ff16600381111561194c5761194c61477f565b90612996565b61195a612647565b610ad8816128f1565b61196b612967565b61197443611bb1565b61199157604051636c74eecf60e01b815260040160405180910390fd5b61199a43611c55565b6119a5600254611c55565b106119c357604051632458f64160e01b815260040160405180910390fd5b4360025560006119d242612733565b905060006119e1826003541090565b905060006119ed611ee6565b9050606060006119fc43611c55565b90506000611a0b826001614668565b90506000611a17610a34565b9050611a2383866129c9565b8515611b4b57600080611a368388612b38565b91509150611a4683888484612d06565b611a4e612e10565b611a56612f64565b6000611a6260066122dc565b604051631da0214360e21b81529091506001600160a01b03821690637680850c90611a93908b908890600401614862565b600060405180830381600087803b158015611aad57600080fd5b505af1158015611ac1573d6000803e3d6000fd5b50505050611ace8a61308d565b8051919950975015611b39576040516303e1697b60e11b81526001600160a01b038216906307c2d2f690611b06908a90600401614464565b600060405180830381600087803b158015611b2057600080fd5b505af1158015611b34573d6000803e3d6000fd5b505050505b611b44436001614668565b6004555050505b611b5687838761321e565b82817f0195462033384fec211477c56217da64a58bd405e0bed331ba4ded67e4ae4ce788604051611b8b911515815260200190565b60405180910390a350600090815260056020526040902085905550505060039190915550565b600060018054611bc19190614655565b600154611bce9084614884565b1492915050565b611bdd612647565b610ad88161282f565b611bee612647565b611bf78161349f565b611c018282612779565b5050565b600080611c10610a34565b9050610bfd8382612804565b6000806000611c2b8443610a44565b9250925092509193909250565b6001600160a01b0316600090815260746020526040902054151590565b6000610a2e826134cc565b6009611c6b816126e7565b6001600160a01b038316600090815260e860205260409020600181015415611ca65760405163057aab3160e31b815260040160405180910390fd5b6000611cb28442614668565b6001600160a01b0386166000908152607560205260409020909150611cd790826134e7565b6001600160a01b0385166000908152603b602052604080822083905560e554905163138ac02f60e11b81523391632715805e91611d18918a9160040161467b565b6020604051808303816000875af1158015611d37573d6000803e3d6000fd5b505050506040513d601f19601f82011682018060405250810190611d5b9190614694565b90508015611e5857600060e65442611d739190614668565b60e78054600180820183556000929092527f6cb0db1d7354dfb4a1464318006df0643cafe2002a86a29ff8560f900fef28a10180546001600160a01b0319166001600160a01b038b1617905583865585018190559050611dd161356a565b6001600160a01b0388811660008181526075602052604090819020600201549051630a2fae5760e41b81526004810192909252821660248201524260448201526064810184905291169063a2fae57090608401600060405180830381600087803b158015611e3e57600080fd5b505af1158015611e52573d6000803e3d6000fd5b50505050505b856001600160a01b03167f77a1a819870c0f4d04c3ca4cc2881a0393136abc28bd651af50aedade94a27c482604051611e9391815260200190565b60405180910390a2505050505050565b6000805b60aa548110156117db57600081815260ab6020526040902054611ed2906001600160a01b0316611918565b15611ede576001909101905b600101611ea7565b606060aa546001600160401b03811115611f0257611f02614711565b604051908082528060200260200182016040528015611f2b578160200160208202803683370190505b50905060005b81518110156117db57600081815260ab602052604090205482516001600160a01b03909116908190849084908110611f6b57611f6b6146fb565b6001600160a01b039092166020928302919091019091015250600101611f31565b60606073805480602002602001604051908101604052809291908181526020018280548015611fe457602002820191906000526020600020905b81546001600160a01b03168152600190910190602001808311611fc6575b5050505050905090565b611ff6612647565b6001600160a01b038216600090815260e8602052604090206001015415611c015760e7548060005b8281101561206d57846001600160a01b031660e78281548110612043576120436146fb565b6000918252602090912001546001600160a01b0316036120655780915061206d565b60010161201e565b5081810361207b5750505050565b6001600160a01b038416600090815260e86020526040902054801561223e576001600160a01b038516600090815260e86020526040812081815560019081019190915583111561213d5760e76120d2600185614655565b815481106120e2576120e26146fb565b60009182526020909120015460e780546001600160a01b03909216918490811061210e5761210e6146fb565b9060005260206000200160006101000a8154816001600160a01b0302191690836001600160a01b031602179055505b60e780548061214e5761214e614898565b60008281526020808220830160001990810180546001600160a01b03191690559092019092556001600160a01b038716825260e9905260409020805460ff191660011790556121a084826104b0613598565b156121f957836001600160a01b0316856001600160a01b03167f7229136a18186c71a86246c012af3bb1df6460ef163934bbdccd6368abdd41e4836040516121ea91815260200190565b60405180910390a35050505050565b836001600160a01b0316856001600160a01b03167f3747d14eb72ad3e35cba9c3e00dab3b8d15b40cac6bdbd08402356e4f69f30a183476040516121ea9291906147b9565b5050505050565b61224d612647565b610ad881612899565b6009612261816126e7565b61226a836135f8565b156122885760405163030081e760e01b815260040160405180910390fd5b6001600160a01b03831660009081526075602052604090206005810154156122c35760405163fab9167360e01b815260040160405180910390fd5b6122d6816122d18542614668565b6134e7565b50505050565b60006122e6613678565b600083600f8111156122fa576122fa61477f565b60ff1681526020810191909152604001600020546001600160a01b0316905080610d10578160405163409140df60e11b8152600401610b2091906148c2565b6009612344816126e7565b6001600160a01b0384166000908152607760205260409020541561237b57604051632f32dcdd60e11b815260040160405180910390fd5b61271082111561239e57604051631b8454a360e21b815260040160405180910390fd5b6076548310156123c15760405163fa0ae69360e01b815260040160405180910390fd5b6001600160a01b03841660009081526077602052604081209062015180856123e982426147f4565b6123f39190614668565b6123fd91906147c7565b808355600183018590556040519091506001600160a01b038716907f6ebafd1bb6316b2f63198a81b05cff2149c6eaae1784466a6d062b4391900f2190611e9390849088906147b9565b6009612452816126e7565b607354607254811061247757604051638616841b60e01b815260040160405180910390fd5b61248085611c38565b1561249e57604051638ad9cdf960e01b815260040160405180910390fd5b6127108311156124c157604051631b8454a360e21b815260040160405180910390fd5b60005b60735481101561257657600060756000607384815481106124e7576124e76146fb565b60009182526020808320909101546001600160a01b0390811684529083019390935260409091019020805490925081169089160361253a578760405163fc3d8c7560e01b8152600401610b20919061440c565b60028101546001600160a01b039081169087160361256d5785604051632d33a7e760e11b8152600401610b20919061440c565b506001016124c4565b506001600160a01b038581166000818152607460209081526040808320861990556073805460018082019092557ff79bde9ddd17963ebce6f7d021d60de7c2bd0db944d23c900c0c0e775f5300520180546001600160a01b031990811687179091556075909352818420805484168d881690811782559181018054851687179055600281018054909416968b1696871790935560048301899055905191949093909290917f1ca451a9920472b99355a9cf74185bf017604a7849c113f020888ecec9db93669190a450505050505050565b61264f61356a565b6001600160a01b0316336001600160a01b031614610a0b576000356001600160e01b0319166001604051620f948f60ea1b8152600401610b209291906148d0565b60018110156126b2576040516317b8970f60e01b815260040160405180910390fd5b60768190556040518181527f266d432ffe659e3565750d26ec685b822a58041eee724b67a5afec3168a252679060200161190d565b6126f0816122dc565b6001600160a01b0316336001600160a01b031614610ad8576000356001600160e01b03191681336040516320e0f98d60e21b8152600401610b20939291906148f1565b6000610a2e62015180836147f4565b6001600160a01b03919091166000908152603a6020526040902054101590565b6000818310156127725781610bfd565b5090919050565b80612782613678565b600084600f8111156127965761279661477f565b60ff168152602081019190915260400160002080546001600160a01b0319166001600160a01b03928316179055811682600f8111156127d7576127d761477f565b6040517f865d1c228a8ea13709cfe61f346f7ff67f1bbd4a18ff31ad3e7147350d317c5990600090a35050565b6001600160a01b03919091166000908152603760209081526040808320938352929052205460ff1690565b60a98190556040518181527fb5464c05fd0e0f000c535850116cda2742ee1f7b34384cb920ad7b8e802138b59060200161190d565b60728190556040518181527f82d5dc32d1b741512ad09c32404d7e7921e8934c6222343d95f55f7a2b9b2ab49060200161190d565b60a9548111156128bc576040516355408ce960e11b815260040160405180910390fd5b60ad8190556040518181527fa9588dc77416849bd922605ce4fc806712281ad8a8f32d4238d6c8cca548e15e9060200161190d565b60e58190556040518181527f17a6c3eb965cdd7439982da25abf85be88f0f772ca33198f548e2f99fee0289a9060200161190d565b60e68190556040518181527f0a50c66137118f386332efb949231ddd3946100dbf880003daca37ddd9e0662b9060200161190d565b6000610a2e8243612742565b334114610a0b576040516309f358fd60e01b815260040160405180910390fd5b60008183106127725781610bfd565b60008160038111156129aa576129aa61477f565b8360038111156129bc576129bc61477f565b1660ff1615159392505050565b60006129d5600e6122dc565b6001600160a01b031663468d24be84846040518363ffffffff1660e01b8152600401612a02929190614928565b600060405180830381865afa158015612a1f573d6000803e3d6000fd5b505050506040513d6000823e601f3d908101601f19168201604052612a47919081019061499c565b905060008251600154612a5a91906147c7565b60e25490915060009081805b8651811015612b095784868281518110612a8257612a826146fb565b602002602001015184612a9591906147c7565b612a9f91906147f4565b93508360e36000898481518110612ab857612ab86146fb565b60200260200101516001600160a01b03166001600160a01b031681526020019081526020016000206000828254612aef9190614668565b90915550612aff90508483614668565b9150600101612a66565b50612b148183614655565b60e46000828254612b259190614668565b9091555050600060e25550505050505050565b6000606060008084516001600160401b03811115612b5857612b58614711565b604051908082528060200260200182016040528015612b81578160200160208202803683370190505b50925060005b8551811015612cfc57858181518110612ba257612ba26146fb565b6020908102919091018101516001600160a01b0380821660009081526075909352604090922060020154909450169150612bdb8361295b565b158015612bef5750612bed8388612804565b155b15612c6d576001600160a01b038316600090815260e16020526040902054612c179086614668565b6001600160a01b038416600090815260e16020526040902054855191965090859083908110612c4857612c486146fb565b602002602001018181525050612c5e838361369c565b612c688383613764565b612cc4565b6001600160a01b038316600090815260e3602090815260408083205460e183528184205460e0909352922054612ca39190614668565b612cad9190614668565b60e46000828254612cbe9190614668565b90915550505b6001600160a01b038316600090815260e16020908152604080832083905560e0825280832083905560e3909152812055600101612b87565b5050509250929050565b6000612d1260096122dc565b9050821561223e57612d24818461381f565b15612dcc5760405163566bce2360e11b81526001600160a01b0382169063acd79c4690612d5990879086908a90600401614a61565b600060405180830381600087803b158015612d7357600080fd5b505af1158015612d87573d6000803e3d6000fd5b505050507f9e242ca1ef9dde96eb71ef8d19a3f0f6a619b63e4c0d3998771387103656d087838584604051612dbe93929190614a97565b60405180910390a1506122d6565b7fe5668ec1bb2b6bb144a50f810e388da4b1d7d3fc05fcb9d588a1aac59d248f8983858447604051612e019493929190614acc565b60405180910390a15050505050565b60e754600080805b838310156122d65760e78381548110612e3357612e336146fb565b60009182526020808320909101546001600160a01b031680835260e89091526040909120600181015491935091504210612f5957805460e48054600090612e7b908490614668565b90915550506001600160a01b038216600090815260e860205260408120818155600101819055612eaa85614b09565b9450841115612f215760e78481548110612ec657612ec66146fb565b60009182526020909120015460e780546001600160a01b039092169185908110612ef257612ef26146fb565b9060005260206000200160006101000a8154816001600160a01b0302191690836001600160a01b031602179055505b60e7805480612f3257612f32614898565b600082815260209020810160001990810180546001600160a01b0319169055019055612e18565b600190920191612e18565b60e4548015610ad8576000612f7960076122dc565b600060e481905560408051600481526024810182526020810180516001600160e01b03166359f778df60e01b179052905192935090916001600160a01b038416918591612fc69190614b20565b60006040518083038185875af1925050503d8060008114613003576040519150601f19603f3d011682016040523d82523d6000602084013e613008565b606091505b50509050801561304d57816001600160a01b03167fc447c884574da5878be39c403db2245c22530c99b579ea7bcbb3720e1d110dc884604051610bcf91815260200190565b816001600160a01b03167fa0561a59abed308fcd0556834574739d778cc6229018039a24ddda0f86aa0b738447604051610bcf9291906147b9565b505050565b6060806130998361387b565b905060006130a760096122dc565b6001600160a01b03166391f8723f60736040518263ffffffff1660e01b81526004016130d39190614b4f565b600060405180830381865afa1580156130f0573d6000803e3d6000fd5b505050506040513d6000823e601f3d908101601f19168201604052613118919081019061499c565b90506000613126600a6122dc565b6001600160a01b031663520fce6260736040518263ffffffff1660e01b81526004016131529190614b4f565b600060405180830381865afa15801561316f573d6000803e3d6000fd5b505050506040513d6000823e601f3d908101601f19168201604052613197919081019061499c565b9050600061320660738054806020026020016040519081016040528092919081815260200182805480156131f457602002820191906000526020600020905b81546001600160a01b031681526001909101906020018083116131d6575b5050505050848460a95460ad54613d65565b9095509050613216858288613e2f565b505050915091565b600061322a60056122dc565b6001600160a01b031663fdadda8183613244436001614668565b6040518363ffffffff1660e01b8152600401613261929190614862565b600060405180830381865afa15801561327e573d6000803e3d6000fd5b505050506040513d6000823e601f3d908101601f191682016040526132a69190810190614b93565b905060005b82518110156134585760008382815181106132c8576132c86146fb565b6020908102919091018101516001600160a01b0381166000908152603b9092526040822054909250421115906132fd83611918565b9050600061331584613310436001614668565b612742565b80613336575085858151811061332d5761332d6146fb565b60200260200101515b8061333e5750825b1590508115801561334c5750805b156133c7576001600160a01b038416600090815260ac602052604090205461338b9060019060ff1660038111156133855761338561477f565b90613f6f565b6001600160a01b038516600090815260ac60205260409020805460ff191660018360038111156133bd576133bd61477f565b0217905550613449565b8180156133d2575080155b15613449576001600160a01b038416600090815260ac60205260409020546134119060019060ff16600381111561340b5761340b61477f565b90613faa565b6001600160a01b038516600090815260ac60205260409020805460ff191660018360038111156134435761344361477f565b02179055505b846001019450505050506132ab565b5082847f283b50d76057d5f828df85bc87724c6af604e9b55c363a07c9faa2a2cd688b8261348461113d565b6040516134919190614464565b60405180910390a350505050565b806001600160a01b03163b600003610ad85780604051630bfc64a360e21b8152600401610b20919061440c565b6000600154826134dc91906147f4565b610a2e906001614668565b60018201546134fe906001600160a01b0316611c38565b61351b5760405163a64b34ad60e01b815260040160405180910390fd5b6005820181905560018201546040518281526001600160a01b03909116907fb9a1e33376bfbda9092f2d1e37662c1b435aab0d3fa8da3acc8f37ee222f99e79060200160405180910390a25050565b7fb53127684a568b3173ae13b9f8a6016e243e63b6e8ee1178d6a717850b5d6103546001600160a01b031690565b6000836001600160a01b0316838390604051600060405180830381858888f193505050503d80600081146135e8576040519150601f19603f3d011682016040523d82523d6000602084013e6135ed565b606091505b509095945050505050565b600080613605600a6122dc565b6001600160a01b03166341feed1c846040518263ffffffff1660e01b8152600401613630919061440c565b602060405180830381865afa15801561364d573d6000803e3d6000fd5b505050506040513d601f19601f820116820180604052508101906136719190614694565b1192915050565b7fdea3103d22025c269050bea94c0c84688877f12fa22b7e6d2d5d78a9a49aa1cb90565b6001600160a01b038216600090815260e060205260409020548015613088576136c882826104b0613598565b1561371f57816001600160a01b0316836001600160a01b03167f1ce7a1c4702402cd393500acb1de5bd927727a54e144a587d328f1b679abe4ec8360405161371291815260200190565b60405180910390a3505050565b816001600160a01b0316836001600160a01b03167f6c69e09ee5c5ac33c0cd57787261c5bade070a392ab34a4b5487c6868f723f6e83476040516137129291906147b9565b6001600160a01b038216600090815260e3602052604090205480156130885761379082826104b0613598565b156137da57816001600160a01b0316836001600160a01b03167f0c4d6a43fc8470dee97db74874b5685e412cc517d9bdecfde1623c5e835b18e48360405161371291815260200190565b816001600160a01b0316836001600160a01b03167f98697ee35f04a599a814432016fff3968c483d2d88dacb484926b9358f8e7cf983476040516137129291906147b9565b6000826001600160a01b03168260405160006040518083038185875af1925050503d806000811461386c576040519150601f19603f3d011682016040523d82523d6000602084013e613871565b606091505b5090949350505050565b6060600061388960096122dc565b90506000816001600160a01b031663af2454296040518163ffffffff1660e01b8152600401602060405180830381865afa1580156138cb573d6000803e3d6000fd5b505050506040513d601f19601f820116820180604052508101906138ef9190614694565b90506000826001600160a01b031663909791dd6040518163ffffffff1660e01b8152600401602060405180830381865afa158015613931573d6000803e3d6000fd5b505050506040513d601f19601f820116820180604052508101906139559190614694565b90506000836001600160a01b03166342ef3c3460736040518263ffffffff1660e01b81526004016139869190614b4f565b600060405180830381865afa1580156139a3573d6000803e3d6000fd5b505050506040513d6000823e601f3d908101601f191682016040526139cb919081019061499c565b6073549091506000816001600160401b038111156139eb576139eb614711565b604051908082528060200260200182016040528015613a14578160200160208202803683370190505b50965060008060005b84831015613cb65760738381548110613a3857613a386146fb565b60009182526020808320909101546001600160a01b031680835260759091526040909120600681015488519294509092501515908890889086908110613a8057613a806146fb565b60200260200101511015613adc5780613ad7576000613a9f8a42614668565b600684018190556040518181529091506001600160a01b03851690600080516020614c708339815191529060200160405180910390a2505b613b1d565b8015613b1d578160060160009055826001600160a01b0316600080516020614c708339815191526000604051613b1491815260200190565b60405180910390a25b60008260050154600014158015613b38575042836005015411155b80613b5b57506001600160a01b038416600090815260e9602052604090205460ff165b905060008360060154600014158015613b78575042846006015411155b90508180613b835750805b15613c155788613b9289614b09565b98508881518110613ba557613ba56146fb565b6020026020010151898781518110613bbf57613bbf6146fb565b602002602001018181525050848d8880600101995081518110613be457613be46146fb565b60200260200101906001600160a01b031690816001600160a01b031681525050613c0d85613fe6565b505050613a1d565b6001600160a01b0385166000908152607760205260409020548015801590613c3d5750428111155b15613ca6576001600160a01b0386166000818152607760209081526040808320600181018054918590559390935560048901839055518281529192917f86d576c20e383fc2413ef692209cc48ddad5e52f25db5b32f8f7ec5076461ae9910160405180910390a2505b505060019094019350613a1d9050565b5050508087528015613d5a577f4eaf233b9dc25a5552c1927feee1412eea69add17c2485c831c2e60e234f3c9187604051613cf19190614464565b60405180910390a160405163e22d1c9d60e01b81526001600160a01b0387169063e22d1c9d90613d27908a908c90600401614862565b600060405180830381600087803b158015613d4157600080fd5b505af1158015613d55573d6000803e3d6000fd5b505050505b505050505050919050565b60606000806068905060008888888888604051602401613d89959493929190614c21565b60408051601f19818403018152919052602080820180516001600160e01b0316633bca0a8960e11b17905281518b519293506001929091600091613dcc916147c7565b613dd7906040614668565b90506020840181888483895afa613ded57600093505b503d613df857600092505b60208701965082613e1c57604051630fc2632160e01b815260040160405180910390fd5b8651955050505050509550959350505050565b815b60aa54811015613e8357600081815260ab6020818152604080842080546001600160a01b0316855260ac8352908420805460ff19169055928490525280546001600160a01b0319169055600101613e31565b5060005b82811015613ec357600081815260ab60209081526040808320546001600160a01b0316835260ac9091529020805460ff19169055600101613e87565b5060005b82811015613f37576000848281518110613ee357613ee36146fb565b6020908102919091018101516001600160a01b0316600081815260ac83526040808220805460ff1916600317905585825260ab9093529190912080546001600160a01b031916909117905550600101613ec7565b508160aa81905550807f3d0eea40644a206ec25781dd5bb3b60eb4fa1264b993c3bddf3c73b14f29ef5e84604051610bcf9190614464565b6000816003811115613f8357613f8361477f565b836003811115613f9557613f9561477f565b1760ff166003811115610bfd57610bfd61477f565b6000816003811115613fbe57613fbe61477f565b19836003811115613fd157613fd161477f565b1660ff166003811115610bfd57610bfd61477f565b6001600160a01b038116600090815260e960209081526040808320805460ff191690556074909152812054610ad891839190819003614023575050565b6001600160a01b038216600090815260756020908152604080832080546001600160a01b0319908116825560018083018054831690556002830180548316905560038301805490921690915560048201859055600582018590556006909101849055607483528184208490556077909252822082815581018290556073805490916140ad91614655565b815481106140bd576140bd6146fb565b6000918252602090912001546001600160a01b03908116915083168114614140576001600160a01b0381166000908152607460205260409020829055607380548291908419908110614111576141116146fb565b9060005260206000200160006101000a8154816001600160a01b0302191690836001600160a01b031602179055505b607380548061415157614151614898565b600082815260209020810160001990810180546001600160a01b0319169055019055505050565b6040805160e081018252600080825260208201819052918101829052606081018290526080810182905260a0810182905260c081019190915290565b6001600160a01b0381168114610ad857600080fd5b600080604083850312156141dc57600080fd5b82356141e7816141b4565b915060208301356141f7816141b4565b809150509250929050565b6000806040838503121561421557600080fd5b8235614220816141b4565b946020939093013593505050565b60006020828403121561424057600080fd5b5035919050565b60006020828403121561425957600080fd5b8135610bfd816141b4565b60018060a01b03808251168352806020830151166020840152806040830151166040840152806060830151166060840152506080810151608083015260a081015160a083015260c081015160c08301525050565b60e08101610a2e8284614264565b815181526020808301519082015260408101610a2e565b8015158114610ad857600080fd5b6000806000806080858703121561430157600080fd5b843561430c816141b4565b93506020850135925060408501359150606085013561432a816142dd565b939692955090935050565b8060408101831015610a2e57600080fd5b6000806000806000806000806000806000806101a08d8f03121561436957600080fd5b8c35614374816141b4565b9b5060208d0135614384816141b4565b9a5060408d0135614394816141b4565b995060608d01356143a4816141b4565b985060808d01356143b4816141b4565b975060a08d01356143c4816141b4565b965060c08d0135955060e08d013594506101008d013593506101208d013592506101408d013591506143fa8e6101608f01614335565b90509295989b509295989b509295989b565b6001600160a01b0391909116815260200190565b600081518084526020808501945080840160005b838110156144595781516001600160a01b031687529582019590820190600101614434565b509495945050505050565b602081526000610bfd6020830184614420565b6000806020838503121561448a57600080fd5b82356001600160401b03808211156144a157600080fd5b818501915085601f8301126144b557600080fd5b8135818111156144c457600080fd5b8660208260051b85010111156144d957600080fd5b60209290920196919550909350505050565b6020808252825182820181905260009190848201906040850190845b81811015614525578351151583529284019291840191600101614507565b50909695505050505050565b6020808252825182820181905260009190848201906040850190845b8181101561452557614560838551614264565b9284019260e0929092019160010161454d565b803560108110610d1057600080fd5b6000806040838503121561459557600080fd5b6141e783614573565b6000602082840312156145b057600080fd5b610bfd82614573565b6000806000606084860312156145ce57600080fd5b83356145d9816141b4565b95602085013595506040909401359392505050565b6000806000806080858703121561460457600080fd5b843561460f816141b4565b9350602085013561461f816141b4565b9250604085013561462f816141b4565b9396929550929360600135925050565b634e487b7160e01b600052601160045260246000fd5b81810381811115610a2e57610a2e61463f565b80820180821115610a2e57610a2e61463f565b6001600160a01b03929092168252602082015260400190565b6000602082840312156146a657600080fd5b5051919050565b6020808252602e908201527f496e697469616c697a61626c653a20636f6e747261637420697320616c72656160408201526d191e481a5b9a5d1a585b1a5e995960921b606082015260800190565b634e487b7160e01b600052603260045260246000fd5b634e487b7160e01b600052604160045260246000fd5b6000600182016147395761473961463f565b5060010190565b6000806000806080858703121561475657600080fd5b8451614761816142dd565b60208601516040870151606090970151919890975090945092505050565b634e487b7160e01b600052602160045260246000fd5b82815260408101600383106147ac576147ac61477f565b8260208301529392505050565b918252602082015260400190565b8082028115828204841417610a2e57610a2e61463f565b634e487b7160e01b600052601260045260246000fd5b600082614803576148036147de565b500490565b6000806000806080858703121561481e57600080fd5b505082516020840151604085015160609095015191969095509092509050565b6000806040838503121561485157600080fd5b505080516020909101519092909150565b6040815260006148756040830185614420565b90508260208301529392505050565b600082614893576148936147de565b500690565b634e487b7160e01b600052603160045260246000fd5b601081106148be576148be61477f565b9052565b60208101610a2e82846148ae565b6001600160e01b03198316815260408101600b83106147ac576147ac61477f565b6001600160e01b0319841681526060810161490f60208301856148ae565b6001600160a01b03929092166040919091015292915050565b8281526040602082015260006149416040830184614420565b949350505050565b604051601f8201601f191681016001600160401b038111828210171561497157614971614711565b604052919050565b60006001600160401b0382111561499257614992614711565b5060051b60200190565b600060208083850312156149af57600080fd5b82516001600160401b038111156149c557600080fd5b8301601f810185136149d657600080fd5b80516149e96149e482614979565b614949565b81815260059190911b82018301908381019087831115614a0857600080fd5b928401925b82841015614a2657835182529284019290840190614a0d565b979650505050505050565b600081518084526020808501945080840160005b8381101561445957815187529582019590820190600101614a45565b606081526000614a746060830186614420565b8281036020840152614a868186614a31565b915050826040830152949350505050565b838152606060208201526000614ab06060830185614420565b8281036040840152614ac28185614a31565b9695505050505050565b848152608060208201526000614ae56080830186614420565b8281036040840152614af78186614a31565b91505082606083015295945050505050565b600081614b1857614b1861463f565b506000190190565b6000825160005b81811015614b415760208186018101518583015201614b27565b506000920191825250919050565b6020808252825482820181905260008481528281209092916040850190845b818110156145255783546001600160a01b031683526001938401939285019201614b6e565b60006020808385031215614ba657600080fd5b82516001600160401b03811115614bbc57600080fd5b8301601f81018513614bcd57600080fd5b8051614bdb6149e482614979565b81815260059190911b82018301908381019087831115614bfa57600080fd5b928401925b82841015614a26578351614c12816142dd565b82529284019290840190614bff565b60a081526000614c3460a0830188614420565b8281036020840152614c468188614a31565b90508281036040840152614c5a8187614a31565b6060840195909552505060800152939250505056fe88f854e137380c14d63f6ed99781bf13402167cf55bac49bcd44d4f2d6a342754042bb9a70998f80a86d9963f0d2132e9b11c8ad94d207c6141c8e34b05ce53e7f26b83ff96e1f2b6a682f133852f6798a09c465da95921460cefb3847402498a164736f6c6343000811000a"
}