{
  "address": "0x056500E6028048dB7FCA81Ac307008A9042605f3",
  "abi": [
    {
      "inputs": [],
      "stateMutability": "nonpayable",
      "type": "constructor"
    },
    {
      "inputs": [],
      "name": "ErrCallPrecompiled",
      "type": "error"
    },
    {
      "inputs": [],
      "name": "ErrCallerMustBeGovernanceAdminContract",
      "type": "error"
    },
    {
      "inputs": [],
      "name": "ErrCallerMustBeMaintenanceContract",
      "type": "error"
    },
    {
      "inputs": [],
      "name": "ErrCallerMustBeRoninTrustedOrgContract",
      "type": "error"
    },
    {
      "inputs": [],
      "name": "ErrCallerMustBeValidatorContract",
      "type": "error"
    },
    {
      "inputs": [],
      "name": "ErrZeroCodeContract",
      "type": "error"
    },
    {
      "anonymous": false,
      "inputs": [
        {
          "indexed": true,
          "internalType": "address",
          "name": "validator",
          "type": "address"
        },
        {
          "indexed": false,
          "internalType": "uint256",
          "name": "period",
          "type": "uint256"
        },
        {
          "indexed": false,
          "internalType": "uint256",
          "name": "usedCreditScore",
          "type": "uint256"
        }
      ],
      "name": "BailedOut",
      "type": "event"
    },
    {
      "anonymous": false,
      "inputs": [
        {
          "indexed": false,
          "internalType": "uint256",
          "name": "missingVotesRatioTier1",
          "type": "uint256"
        },
        {
          "indexed": false,
          "internalType": "uint256",
          "name": "missingVotesRatioTier2",
          "type": "uint256"
        },
        {
          "indexed": false,
          "internalType": "uint256",
          "name": "jailDurationForMissingVotesRatioTier2",
          "type": "uint256"
        },
        {
          "indexed": false,
          "internalType": "uint256",
          "name": "skipBridgeOperatorSlashingThreshold",
          "type": "uint256"
        }
      ],
      "name": "BridgeOperatorSlashingConfigsUpdated",
      "type": "event"
    },
    {
      "anonymous": false,
      "inputs": [
        {
          "indexed": false,
          "internalType": "uint256",
          "name": "bridgeVotingThreshold",
          "type": "uint256"
        },
        {
          "indexed": false,
          "internalType": "uint256",
          "name": "bridgeVotingSlashAmount",
          "type": "uint256"
        }
      ],
      "name": "BridgeVotingSlashingConfigsUpdated",
      "type": "event"
    },
    {
      "anonymous": false,
      "inputs": [
        {
          "indexed": false,
          "internalType": "uint256",
          "name": "gainCreditScore",
          "type": "uint256"
        },
        {
          "indexed": false,
          "internalType": "uint256",
          "name": "maxCreditScore",
          "type": "uint256"
        },
        {
          "indexed": false,
          "internalType": "uint256",
          "name": "bailOutCostMultiplier",
          "type": "uint256"
        },
        {
          "indexed": false,
          "internalType": "uint256",
          "name": "cutOffPercentageAfterBailout",
          "type": "uint256"
        }
      ],
      "name": "CreditScoreConfigsUpdated",
      "type": "event"
    },
    {
      "anonymous": false,
      "inputs": [
        {
          "indexed": false,
          "internalType": "address[]",
          "name": "validators",
          "type": "address[]"
        },
        {
          "indexed": false,
          "internalType": "uint256[]",
          "name": "creditScores",
          "type": "uint256[]"
        }
      ],
      "name": "CreditScoresUpdated",
      "type": "event"
    },
    {
      "anonymous": false,
      "inputs": [
        {
          "indexed": false,
          "internalType": "uint256",
          "name": "slashDoubleSignAmount",
          "type": "uint256"
        },
        {
          "indexed": false,
          "internalType": "uint256",
          "name": "doubleSigningJailUntilBlock",
          "type": "uint256"
        },
        {
          "indexed": false,
          "internalType": "uint256",
          "name": "doubleSigningOffsetLimitBlock",
          "type": "uint256"
        }
      ],
      "name": "DoubleSignSlashingConfigsUpdated",
      "type": "event"
    },
    {
      "anonymous": false,
      "inputs": [
        {
          "indexed": false,
          "internalType": "uint8",
          "name": "version",
          "type": "uint8"
        }
      ],
      "name": "Initialized",
      "type": "event"
    },
    {
      "anonymous": false,
      "inputs": [
        {
          "indexed": false,
          "internalType": "address",
          "name": "",
          "type": "address"
        }
      ],
      "name": "MaintenanceContractUpdated",
      "type": "event"
    },
    {
      "anonymous": false,
      "inputs": [
        {
          "indexed": false,
          "internalType": "address",
          "name": "",
          "type": "address"
        }
      ],
      "name": "RoninGovernanceAdminContractUpdated",
      "type": "event"
    },
    {
      "anonymous": false,
      "inputs": [
        {
          "indexed": false,
          "internalType": "address",
          "name": "",
          "type": "address"
        }
      ],
      "name": "RoninTrustedOrganizationContractUpdated",
      "type": "event"
    },
    {
      "anonymous": false,
      "inputs": [
        {
          "indexed": true,
          "internalType": "address",
          "name": "validator",
          "type": "address"
        },
        {
          "indexed": false,
          "internalType": "enum IBaseSlash.SlashType",
          "name": "slashType",
          "type": "uint8"
        },
        {
          "indexed": false,
          "internalType": "uint256",
          "name": "period",
          "type": "uint256"
        }
      ],
      "name": "Slashed",
      "type": "event"
    },
    {
      "anonymous": false,
      "inputs": [
        {
          "indexed": false,
          "internalType": "uint256",
          "name": "unavailabilityTier1Threshold",
          "type": "uint256"
        },
        {
          "indexed": false,
          "internalType": "uint256",
          "name": "unavailabilityTier2Threshold",
          "type": "uint256"
        },
        {
          "indexed": false,
          "internalType": "uint256",
          "name": "slashAmountForUnavailabilityTier2Threshold",
          "type": "uint256"
        },
        {
          "indexed": false,
          "internalType": "uint256",
          "name": "jailDurationForUnavailabilityTier2Threshold",
          "type": "uint256"
        }
      ],
      "name": "UnavailabilitySlashingConfigsUpdated",
      "type": "event"
    },
    {
      "anonymous": false,
      "inputs": [
        {
          "indexed": false,
          "internalType": "address",
          "name": "",
          "type": "address"
        }
      ],
      "name": "ValidatorContractUpdated",
      "type": "event"
    },
    {
      "inputs": [
        {
          "internalType": "address",
          "name": "_consensusAddr",
          "type": "address"
        }
      ],
      "name": "bailOut",
      "outputs": [],
      "stateMutability": "nonpayable",
      "type": "function"
    },
    {
      "inputs": [
        {
          "internalType": "address",
          "name": "_validator",
          "type": "address"
        },
        {
          "internalType": "uint256",
          "name": "_period",
          "type": "uint256"
        }
      ],
      "name": "checkBailedOutAtPeriod",
      "outputs": [
        {
          "internalType": "bool",
          "name": "",
          "type": "bool"
        }
      ],
      "stateMutability": "view",
      "type": "function"
    },
    {
      "inputs": [
        {
          "internalType": "address",
          "name": "_validator",
          "type": "address"
        }
      ],
      "name": "currentUnavailabilityIndicator",
      "outputs": [
        {
          "internalType": "uint256",
          "name": "",
          "type": "uint256"
        }
      ],
      "stateMutability": "view",
      "type": "function"
    },
    {
      "inputs": [
        {
          "internalType": "address[]",
          "name": "_validators",
          "type": "address[]"
        }
      ],
      "name": "execResetCreditScores",
      "outputs": [],
      "stateMutability": "nonpayable",
      "type": "function"
    },
    {
      "inputs": [
        {
          "internalType": "address",
          "name": "_consensusAddr",
          "type": "address"
        },
        {
          "internalType": "uint256",
          "name": "_tier",
          "type": "uint256"
        },
        {
          "internalType": "uint256",
          "name": "_period",
          "type": "uint256"
        }
      ],
      "name": "execSlashBridgeOperator",
      "outputs": [],
      "stateMutability": "nonpayable",
      "type": "function"
    },
    {
      "inputs": [],
      "name": "getBridgeOperatorSlashingConfigs",
      "outputs": [
        {
          "internalType": "uint256",
          "name": "missingVotesRatioTier1_",
          "type": "uint256"
        },
        {
          "internalType": "uint256",
          "name": "missingVotesRatioTier2_",
          "type": "uint256"
        },
        {
          "internalType": "uint256",
          "name": "jailDurationForMissingVotesRatioTier2_",
          "type": "uint256"
        },
        {
          "internalType": "uint256",
          "name": "skipBridgeOperatorSlashingThreshold_",
          "type": "uint256"
        }
      ],
      "stateMutability": "view",
      "type": "function"
    },
    {
      "inputs": [],
      "name": "getBridgeVotingSlashingConfigs",
      "outputs": [
        {
          "internalType": "uint256",
          "name": "bridgeVotingThreshold_",
          "type": "uint256"
        },
        {
          "internalType": "uint256",
          "name": "bridgeVotingSlashAmount_",
          "type": "uint256"
        }
      ],
      "stateMutability": "view",
      "type": "function"
    },
    {
      "inputs": [
        {
          "internalType": "address",
          "name": "_validator",
          "type": "address"
        }
      ],
      "name": "getCreditScore",
      "outputs": [
        {
          "internalType": "uint256",
          "name": "",
          "type": "uint256"
        }
      ],
      "stateMutability": "view",
      "type": "function"
    },
    {
      "inputs": [],
      "name": "getCreditScoreConfigs",
      "outputs": [
        {
          "internalType": "uint256",
          "name": "gainCreditScore_",
          "type": "uint256"
        },
        {
          "internalType": "uint256",
          "name": "maxCreditScore_",
          "type": "uint256"
        },
        {
          "internalType": "uint256",
          "name": "bailOutCostMultiplier_",
          "type": "uint256"
        },
        {
          "internalType": "uint256",
          "name": "cutOffPercentageAfterBailout_",
          "type": "uint256"
        }
      ],
      "stateMutability": "view",
      "type": "function"
    },
    {
      "inputs": [],
      "name": "getDoubleSignSlashingConfigs",
      "outputs": [
        {
          "internalType": "uint256",
          "name": "slashDoubleSignAmount_",
          "type": "uint256"
        },
        {
          "internalType": "uint256",
          "name": "doubleSigningJailUntilBlock_",
          "type": "uint256"
        },
        {
          "internalType": "uint256",
          "name": "doubleSigningOffsetLimitBlock_",
          "type": "uint256"
        }
      ],
      "stateMutability": "view",
      "type": "function"
    },
    {
      "inputs": [
        {
          "internalType": "address[]",
          "name": "_validators",
          "type": "address[]"
        }
      ],
      "name": "getManyCreditScores",
      "outputs": [
        {
          "internalType": "uint256[]",
          "name": "_resultList",
          "type": "uint256[]"
        }
      ],
      "stateMutability": "view",
      "type": "function"
    },
    {
      "inputs": [
        {
          "internalType": "address",
          "name": "_validator",
          "type": "address"
        },
        {
          "internalType": "uint256",
          "name": "_period",
          "type": "uint256"
        }
      ],
      "name": "getUnavailabilityIndicator",
      "outputs": [
        {
          "internalType": "uint256",
          "name": "",
          "type": "uint256"
        }
      ],
      "stateMutability": "view",
      "type": "function"
    },
    {
      "inputs": [],
      "name": "getUnavailabilitySlashingConfigs",
      "outputs": [
        {
          "internalType": "uint256",
          "name": "unavailabilityTier1Threshold_",
          "type": "uint256"
        },
        {
          "internalType": "uint256",
          "name": "unavailabilityTier2Threshold_",
          "type": "uint256"
        },
        {
          "internalType": "uint256",
          "name": "slashAmountForUnavailabilityTier2Threshold_",
          "type": "uint256"
        },
        {
          "internalType": "uint256",
          "name": "jailDurationForUnavailabilityTier2Threshold_",
          "type": "uint256"
        }
      ],
      "stateMutability": "view",
      "type": "function"
    },
    {
      "inputs": [
        {
          "internalType": "address",
          "name": "__validatorContract",
          "type": "address"
        },
        {
          "internalType": "address",
          "name": "__maintenanceContract",
          "type": "address"
        },
        {
          "internalType": "address",
          "name": "__roninTrustedOrganizationContract",
          "type": "address"
        },
        {
          "internalType": "address",
          "name": "__roninGovernanceAdminContract",
          "type": "address"
        },
        {
          "internalType": "uint256[4]",
          "name": "_bridgeOperatorSlashingConfigs",
          "type": "uint256[4]"
        },
        {
          "internalType": "uint256[2]",
          "name": "_bridgeVotingSlashingConfigs",
          "type": "uint256[2]"
        },
        {
          "internalType": "uint256[3]",
          "name": "_doubleSignSlashingConfigs",
          "type": "uint256[3]"
        },
        {
          "internalType": "uint256[4]",
          "name": "_unavailabilitySlashingConfigs",
          "type": "uint256[4]"
        },
        {
          "internalType": "uint256[4]",
          "name": "_creditScoreConfigs",
          "type": "uint256[4]"
        }
      ],
      "name": "initialize",
      "outputs": [],
      "stateMutability": "nonpayable",
      "type": "function"
    },
    {
      "inputs": [],
      "name": "lastUnavailabilitySlashedBlock",
      "outputs": [
        {
          "internalType": "uint256",
          "name": "",
          "type": "uint256"
        }
      ],
      "stateMutability": "view",
      "type": "function"
    },
    {
      "inputs": [],
      "name": "maintenanceContract",
      "outputs": [
        {
          "internalType": "address",
          "name": "",
          "type": "address"
        }
      ],
      "stateMutability": "view",
      "type": "function"
    },
    {
      "inputs": [],
      "name": "precompileValidateDoubleSignAddress",
      "outputs": [
        {
          "internalType": "address",
          "name": "",
          "type": "address"
        }
      ],
      "stateMutability": "view",
      "type": "function"
    },
    {
      "inputs": [],
      "name": "roninGovernanceAdminContract",
      "outputs": [
        {
          "internalType": "address",
          "name": "",
          "type": "address"
        }
      ],
      "stateMutability": "view",
      "type": "function"
    },
    {
      "inputs": [],
      "name": "roninTrustedOrganizationContract",
      "outputs": [
        {
          "internalType": "address",
          "name": "",
          "type": "address"
        }
      ],
      "stateMutability": "view",
      "type": "function"
    },
    {
      "inputs": [
        {
          "internalType": "uint256",
          "name": "_ratioTier1",
          "type": "uint256"
        },
        {
          "internalType": "uint256",
          "name": "_ratioTier2",
          "type": "uint256"
        },
        {
          "internalType": "uint256",
          "name": "_jailDurationTier2",
          "type": "uint256"
        },
        {
          "internalType": "uint256",
          "name": "_skipSlashingThreshold",
          "type": "uint256"
        }
      ],
      "name": "setBridgeOperatorSlashingConfigs",
      "outputs": [],
      "stateMutability": "nonpayable",
      "type": "function"
    },
    {
      "inputs": [
        {
          "internalType": "uint256",
          "name": "_threshold",
          "type": "uint256"
        },
        {
          "internalType": "uint256",
          "name": "_slashAmount",
          "type": "uint256"
        }
      ],
      "name": "setBridgeVotingSlashingConfigs",
      "outputs": [],
      "stateMutability": "nonpayable",
      "type": "function"
    },
    {
      "inputs": [
        {
          "internalType": "uint256",
          "name": "_gainScore",
          "type": "uint256"
        },
        {
          "internalType": "uint256",
          "name": "_maxScore",
          "type": "uint256"
        },
        {
          "internalType": "uint256",
          "name": "_bailOutMultiplier",
          "type": "uint256"
        },
        {
          "internalType": "uint256",
          "name": "_cutOffPercentage",
          "type": "uint256"
        }
      ],
      "name": "setCreditScoreConfigs",
      "outputs": [],
      "stateMutability": "nonpayable",
      "type": "function"
    },
    {
      "inputs": [
        {
          "internalType": "uint256",
          "name": "_slashAmount",
          "type": "uint256"
        },
        {
          "internalType": "uint256",
          "name": "_jailUntilBlock",
          "type": "uint256"
        },
        {
          "internalType": "uint256",
          "name": "_offsetLimitBlock",
          "type": "uint256"
        }
      ],
      "name": "setDoubleSignSlashingConfigs",
      "outputs": [],
      "stateMutability": "nonpayable",
      "type": "function"
    },
    {
      "inputs": [
        {
          "internalType": "address",
          "name": "_addr",
          "type": "address"
        }
      ],
      "name": "setMaintenanceContract",
      "outputs": [],
      "stateMutability": "nonpayable",
      "type": "function"
    },
    {
      "inputs": [
        {
          "internalType": "address",
          "name": "_addr",
          "type": "address"
        }
      ],
      "name": "setRoninGovernanceAdminContract",
      "outputs": [],
      "stateMutability": "nonpayable",
      "type": "function"
    },
    {
      "inputs": [
        {
          "internalType": "address",
          "name": "_addr",
          "type": "address"
        }
      ],
      "name": "setRoninTrustedOrganizationContract",
      "outputs": [],
      "stateMutability": "nonpayable",
      "type": "function"
    },
    {
      "inputs": [
        {
          "internalType": "uint256",
          "name": "_tier1Threshold",
          "type": "uint256"
        },
        {
          "internalType": "uint256",
          "name": "_tier2Threshold",
          "type": "uint256"
        },
        {
          "internalType": "uint256",
          "name": "_slashAmountForTier2Threshold",
          "type": "uint256"
        },
        {
          "internalType": "uint256",
          "name": "_jailDurationForTier2Threshold",
          "type": "uint256"
        }
      ],
      "name": "setUnavailabilitySlashingConfigs",
      "outputs": [],
      "stateMutability": "nonpayable",
      "type": "function"
    },
    {
      "inputs": [
        {
          "internalType": "address",
          "name": "_addr",
          "type": "address"
        }
      ],
      "name": "setValidatorContract",
      "outputs": [],
      "stateMutability": "nonpayable",
      "type": "function"
    },
    {
      "inputs": [
        {
          "internalType": "address",
          "name": "_consensusAddr",
          "type": "address"
        }
      ],
      "name": "slashBridgeVoting",
      "outputs": [],
      "stateMutability": "nonpayable",
      "type": "function"
    },
    {
      "inputs": [
        {
          "internalType": "address",
          "name": "_consensusAddr",
          "type": "address"
        },
        {
          "internalType": "bytes",
          "name": "_header1",
          "type": "bytes"
        },
        {
          "internalType": "bytes",
          "name": "_header2",
          "type": "bytes"
        }
      ],
      "name": "slashDoubleSign",
      "outputs": [],
      "stateMutability": "nonpayable",
      "type": "function"
    },
    {
      "inputs": [
        {
          "internalType": "address",
          "name": "_validatorAddr",
          "type": "address"
        }
      ],
      "name": "slashUnavailability",
      "outputs": [],
      "stateMutability": "nonpayable",
      "type": "function"
    },
    {
      "inputs": [
        {
          "internalType": "address[]",
          "name": "_validators",
          "type": "address[]"
        },
        {
          "internalType": "uint256",
          "name": "_period",
          "type": "uint256"
        }
      ],
      "name": "updateCreditScores",
      "outputs": [],
      "stateMutability": "nonpayable",
      "type": "function"
    },
    {
      "inputs": [],
      "name": "validatorContract",
      "outputs": [
        {
          "internalType": "address",
          "name": "",
          "type": "address"
        }
      ],
      "stateMutability": "view",
      "type": "function"
    }
  ],
  "transactionHash": "0x6ee00398d0a4bc945a69ac24f8d1b9564f3d268392dfa229794499d23cee5b5a",
  "args": [],
  "numDeployments": 3,
  "solcInputHash": "cee8587b26e080f856978a2f78dd6e87",
  "bytecode": "0x60806040523480156200001157600080fd5b506200001c62000022565b620000e7565b61011354610100900460ff1615620000905760405162461bcd60e51b815260206004820152602760248201527f496e697469616c697a61626c653a20636f6e747261637420697320696e697469604482015266616c697a696e6760c81b606482015260840160405180910390fd5b6101135460ff9081161015620000e557610113805460ff191660ff9081179091556040519081527f7f26b83ff96e1f2b6a682f133852f6798a09c465da95921460cefb38474024989060200160405180910390a15b565b612e0e80620000f76000396000f3fe608060405234801561001057600080fd5b506004361061018b5760003560e01c806307c2d2f614610190578063082e7420146101a55780630e1512ac146101cb5780631079402a146101de5780631a697341146101fb5780631e90b2a01461020e57806323368e471461022157806329ddc3c01461023b5780633d48fd7d1461025e57806346fe93111461026f5780635511cde11461028257806362ffe6cb146102935780637680850c146102a65780637c2b55a0146102b9578063853af1b7146102c057806399103f7b146102d357806399439089146102e6578063b5e337de146102ee578063c008ce3914610301578063c2e524dc14610314578063c6391fa21461032f578063ccbb72ed14610340578063cdf64a7614610353578063cf39d13c14610366578063d1737e2714610379578063d1f992f71461038c578063d2cb215e1461039f578063d3dd2bdf146103b0578063d73e81b8146103d9578063df4b6ee0146103ec578063f1001e7814610410578063f562b3c414610430578063fd422cd014610439575b600080fd5b6101a361019e3660046125a2565b61044c565b005b6101b86101b33660046125f8565b610575565b6040519081526020015b60405180910390f35b6101a36101d9366004612615565b6105f6565b606d54606e54606f546070545b6040516101c29493929190612647565b6101a36102093660046125f8565b610649565b6101a361021c3660046126a3565b610947565b6036546001600160a01b03165b6040516101c29190612725565b61024e610249366004612739565b610bac565b60405190151581526020016101c2565b60a55460a65460a75460a8546101eb565b6101a361027d3660046125f8565b610bdb565b6035546001600160a01b031661022e565b6101b86102a1366004612739565b610c4a565b6101a36102b4366004612765565b610c73565b606761022e565b6101a36102ce3660046127b0565b610fb4565b6101a36102e13660046127e3565b610ffa565b61022e6111a4565b6101a36102fc3660046125f8565b6111b3565b6101a361030f3660046128a7565b61121f565b603854603954604080519283526020830191909152016101c2565b60dd5460de5460df5460e0546101eb565b6101a361034e366004612615565b6112c5565b6101a36103613660046125f8565b611309565b6101a36103743660046128dc565b611375565b6101a3610387366004612615565b6113b8565b6101a361039a3660046125f8565b6113fc565b606c546001600160a01b031661022e565b6101b86103be3660046125f8565b6001600160a01b0316600090815260dc602052604090205490565b6101a36103e73660046125f8565b61196d565b600154600254600354604080519384526020840192909252908201526060016101c2565b61042361041e3660046125a2565b6119d9565b6040516101c29190612943565b6101b860a35481565b6101a36104473660046125f8565b611aad565b336104556111a4565b6001600160a01b03161461047c57604051630e6444a160e31b815260040160405180910390fd5b6000816001600160401b0381111561049657610496612956565b6040519080825280602002602001820160405280156104bf578160200160208202803683370190505b50905060005b828110156105465760008484838181106104e1576104e161296c565b90506020020160208101906104f691906125f8565b6001600160a01b038116600090815260dc602052604081205583519091508390839081106105265761052661296c565b60200260200101600081525050808061053e90612998565b9150506104c5565b50600080516020612db9833981519152838383604051610568939291906129ef565b60405180910390a1505050565b60006105f08260008054906101000a90046001600160a01b03166001600160a01b031663060406186040518163ffffffff1660e01b8152600401602060405180830381865afa1580156105cc573d6000803e3d6000fd5b505050506040513d601f19601f820116820180604052508101906102a19190612a1f565b92915050565b6105fe611e91565b6001600160a01b0316336001600160a01b0316146106375760405162461bcd60e51b815260040161062e90612a38565b60405180910390fd5b61064384848484611ebf565b50505050565b610651611e91565b6001600160a01b0316336001600160a01b0316146106815760405162461bcd60e51b815260040161062e90612a38565b603554604051636db349d160e11b81526000916001600160a01b03169063db6693a2906106b2908590600401612725565b60a060405180830381865afa1580156106cf573d6000803e3d6000fd5b505050506040513d601f19601f820116820180604052508101906106f39190612aaa565b6036546040808301519051632623bd4f60e21b815292935060009261077a926001600160a01b03169163988ef53c9161072f9190600401612725565b602060405180830381865afa15801561074c573d6000803e3d6000fd5b505050506040513d601f19601f820116820180604052508101906107709190612a1f565b8360800151611f83565b905060008060009054906101000a90046001600160a01b03166001600160a01b031663060406186040518163ffffffff1660e01b8152600401602060405180830381865afa1580156107d0573d6000803e3d6000fd5b505050506040513d601f19601f820116820180604052508101906107f49190612a1f565b6038549091506108048343612b31565b11801561083557506001600160a01b038416600090815260376020908152604080832084845290915290205460ff16155b6108815760405162461bcd60e51b815260206004820181905260248201527f536c617368427269646765566f74696e673a20696e76616c696420736c617368604482015260640161062e565b6001600160a01b038416600081815260376020908152604080832085845290915290819020805460ff1916600117905551600080516020612d99833981519152906108d0906004908590612b44565b60405180910390a260008054603954604051630bde081360e21b81526001600160a01b0390921692632f78204c9261090f928992918290600401612b70565b600060405180830381600087803b15801561092957600080fd5b505af115801561093d573d6000803e3d6000fd5b5050505050505050565b61094f611e91565b6001600160a01b0316336001600160a01b03161461097f5760405162461bcd60e51b815260040161062e90612a38565b60008484604051610991929190612b98565b60405180910390209050600083836040516109ad929190612b98565b604080519182900390912060008481526004602052919091205490915060ff161580156109e9575060008181526004602052604090205460ff16155b610a495760405162461bcd60e51b815260206004820152602b60248201527f536c617368446f75626c655369676e3a2065766964656e636520616c7265616460448201526a1e481cdd589b5a5d1d195960aa1b606482015260840161062e565b610a568787878787611f9a565b15610ba35760008060009054906101000a90046001600160a01b03166001600160a01b031663060406186040518163ffffffff1660e01b8152600401602060405180830381865afa158015610aaf573d6000803e3d6000fd5b505050506040513d601f19601f82011682018060405250810190610ad39190612a1f565b6000848152600460205260408082208054600160ff19918216811790925586845292829020805490931617909155519091506001600160a01b03891690600080516020612d9983398151915290610b2e906003908590612b44565b60405180910390a260005460025460018054604051630bde081360e21b81526001600160a01b0390941693632f78204c93610b6f938e939192600401612b70565b600060405180830381600087803b158015610b8957600080fd5b505af1158015610b9d573d6000803e3d6000fd5b50505050505b50505050505050565b6001600160a01b038216600090815260db6020908152604080832084845290915281205460ff165b9392505050565b610be3611e91565b6001600160a01b0316336001600160a01b031614610c135760405162461bcd60e51b815260040161062e90612a38565b806001600160a01b03163b600003610c3e57604051637bcd509160e01b815260040160405180910390fd5b610c4781612044565b50565b6001600160a01b038216600090815260a460209081526040808320848452909152812054610bd4565b33610c7c6111a4565b6001600160a01b031614610ca357604051630e6444a160e31b815260040160405180910390fd5b60008060009054906101000a90046001600160a01b03166001600160a01b031663297a8fca6040518163ffffffff1660e01b8152600401602060405180830381865afa158015610cf7573d6000803e3d6000fd5b505050506040513d601f19601f82011682018060405250810190610d1b9190612a1f565b60008054604051634de2b73560e01b815292935090916001600160a01b0390911690634de2b73590610d539088908890600401612ba8565b600060405180830381865afa158015610d70573d6000803e3d6000fd5b505050506040513d6000823e601f3d908101601f19168201604052610d989190810190612bd1565b606c5460405163ba30375560e01b81529192506000916001600160a01b039091169063ba30375590610dd4908990899088904390600401612c7d565b600060405180830381865afa158015610df1573d6000803e3d6000fd5b505050506040513d6000823e601f3d908101601f19168201604052610e199190810190612bd1565b90506000856001600160401b03811115610e3557610e35612956565b604051908082528060200260200182016040528015610e5e578160200160208202803683370190505b50905060005b86811015610f81576000888883818110610e8057610e8061296c565b9050602002016020810190610e9591906125f8565b90506000610ea38289610c4a565b90506000868481518110610eb957610eb961296c565b602002602001015190506000868581518110610ed757610ed761296c565b6020026020010151905060008280610eec5750815b610f0157610efc60dd548561209a565b610f04565b60005b6001600160a01b038616600090815260dc602052604090205460de54919250610f2e9183906120b4565b6001600160a01b038616600090815260dc602052604090208190558751889088908110610f5d57610f5d61296c565b60200260200101818152505050505050508080610f7990612998565b915050610e64565b50600080516020612db9833981519152878783604051610fa3939291906129ef565b60405180910390a150505050505050565b610fbc611e91565b6001600160a01b0316336001600160a01b031614610fec5760405162461bcd60e51b815260040161062e90612a38565b610ff682826120d1565b5050565b61011354610100900460ff161580801561101c575061011354600160ff909116105b806110375750303b15801561103757506101135460ff166001145b61109a5760405162461bcd60e51b815260206004820152602e60248201527f496e697469616c697a61626c653a20636f6e747261637420697320616c72656160448201526d191e481a5b9a5d1a585b1a5e995960921b606482015260840161062e565b610113805460ff1916600117905580156110bf57610113805461ff0019166101001790555b6110c88a612118565b6110d189612044565b6110da88612163565b6110e3876121ae565b6110fc86356020880135604089013560608a0135611ebf565b61110b853560208701356120d1565b61111f8435602086013560408701356121f9565b6111388335602085013560408601356060870135612246565b61115182356020840135604085013560608601356122f3565b801561119857610113805461ff0019169055604051600181527f7f26b83ff96e1f2b6a682f133852f6798a09c465da95921460cefb38474024989060200160405180910390a15b50505050505050505050565b6000546001600160a01b031690565b6111bb611e91565b6001600160a01b0316336001600160a01b0316146111eb5760405162461bcd60e51b815260040161062e90612a38565b806001600160a01b03163b60000361121657604051637bcd509160e01b815260040160405180910390fd5b610c4781612163565b336112286111a4565b6001600160a01b03161461124f57604051630e6444a160e31b815260040160405180910390fd5b8160010361128e57826001600160a01b0316600080516020612d99833981519152600583604051611281929190612b44565b60405180910390a2505050565b816002036112c057826001600160a01b0316600080516020612d99833981519152600683604051611281929190612b44565b505050565b6112cd611e91565b6001600160a01b0316336001600160a01b0316146112fd5760405162461bcd60e51b815260040161062e90612a38565b610643848484846122f3565b611311611e91565b6001600160a01b0316336001600160a01b0316146113415760405162461bcd60e51b815260040161062e90612a38565b806001600160a01b03163b60000361136c57604051637bcd509160e01b815260040160405180910390fd5b610c4781612118565b61137d611e91565b6001600160a01b0316336001600160a01b0316146113ad5760405162461bcd60e51b815260040161062e90612a38565b6112c08383836121f9565b6113c0611e91565b6001600160a01b0316336001600160a01b0316146113f05760405162461bcd60e51b815260040161062e90612a38565b61064384848484612246565b600054604051635061f96960e11b81526001600160a01b039091169063a0c3f2d29061142c908490600401612725565b602060405180830381865afa158015611449573d6000803e3d6000fd5b505050506040513d601f19601f8201168201806040525081019061146d9190612ca4565b6114df5760405162461bcd60e51b815260206004820152603f60248201527f536c617368496e64696361746f723a20636f6e73656e7375732061646472657360448201527f73206d75737420626520612076616c696461746f722063616e64696461746500606482015260840161062e565b6000546040516304d971ab60e01b81526001600160a01b038381166004830152336024830152909116906304d971ab90604401602060405180830381865afa15801561152f573d6000803e3d6000fd5b505050506040513d601f19601f820116820180604052508101906115539190612ca4565b6115bf5760405162461bcd60e51b815260206004820152603760248201527f536c617368496e64696361746f723a206d6574686f642063616c6c6572206d7560448201527639ba10313290309031b0b73234b230ba329030b236b4b760491b606482015260840161062e565b60008054604051634b2c2fe160e11b815282916001600160a01b0316906396585fc2906115f0908690600401612725565b606060405180830381865afa15801561160d573d6000803e3d6000fd5b505050506040513d601f19601f820116820180604052508101906116319190612cbf565b9250509150816116a75760405162461bcd60e51b815260206004820152603b60248201527f536c617368496e64696361746f723a2063616c6c6572206d757374206265206a60448201527a185a5b1959081a5b881d1a194818dd5c9c995b9d081c195c9a5bd9602a1b606482015260840161062e565b60008060009054906101000a90046001600160a01b03166001600160a01b031663060406186040518163ffffffff1660e01b8152600401602060405180830381865afa1580156116fb573d6000803e3d6000fd5b505050506040513d601f19601f8201168201806040525081019061171f9190612a1f565b6001600160a01b038516600090815260db6020908152604080832084845290915290205490915060ff16156117b25760405162461bcd60e51b815260206004820152603360248201527f536c617368496e64696361746f723a2076616c696461746f7220686173206261604482015272696c6564206f75742070726576696f75736c7960681b606482015260840161062e565b6001600160a01b038416600090815260dc602052604081205460df549091906117db9085612cf4565b90508082101561184b5760405162461bcd60e51b815260206004820152603560248201527f536c617368496e64696361746f723a20696e73756666696369656e7420637265604482015274191a5d081cd8dbdc99481d1bc818985a5b081bdd5d605a1b606482015260840161062e565b600054604051630adaf5ef60e11b81526001600160a01b03909116906315b5ebde9061187d9089908790600401612d0b565b600060405180830381600087803b15801561189757600080fd5b505af11580156118ab573d6000803e3d6000fd5b505050506001600160a01b038616600090815260dc6020526040812080548392906118d7908490612b31565b90915550506001600160a01b038616600090815260a4602090815260408083208684529091528120556001600160a01b038616600081815260db60209081526040808320878452825291829020805460ff1916600117905581518681529081018490527f7ff9f7032d565c7e8919332964b2faa33c320b53604a65d9dd1f8112e12cd39d910160405180910390a2505050505050565b611975611e91565b6001600160a01b0316336001600160a01b0316146119a55760405162461bcd60e51b815260040161062e90612a38565b806001600160a01b03163b6000036119d057604051637bcd509160e01b815260040160405180910390fd5b610c47816121ae565b6060816001600160401b038111156119f3576119f3612956565b604051908082528060200260200182016040528015611a1c578160200160208202803683370190505b50905060005b8151811015611aa65760dc6000858584818110611a4157611a4161296c565b9050602002016020810190611a5691906125f8565b6001600160a01b03166001600160a01b0316815260200190815260200160002054828281518110611a8957611a8961296c565b602090810291909101015280611a9e81612998565b915050611a22565b5092915050565b60a3544311611b495760405162461bcd60e51b815260206004820152605c60248201527f536c617368496e64696361746f723a2063616e6e6f7420736c6173682061207660448201527f616c696461746f72207477696365206f7220736c617368206d6f72652074686160648201527b6e206f6e652076616c696461746f7220696e206f6e6520626c6f636b60201b608482015260a40161062e565b4360a355334114611bb85760405162461bcd60e51b815260206004820152603360248201527f536c617368556e617661696c6162696c6974793a206d6574686f642063616c6c6044820152726572206d75737420626520636f696e6261736560681b606482015260840161062e565b611bc181612407565b15610c475760008060009054906101000a90046001600160a01b03166001600160a01b031663060406186040518163ffffffff1660e01b8152600401602060405180830381865afa158015611c1a573d6000803e3d6000fd5b505050506040513d601f19601f82011682018060405250810190611c3e9190612a1f565b6001600160a01b038316600090815260a4602090815260408083208484529091528120805492935090918290611c7390612998565b91905081905590506000611c894360a85461250f565b905060a6548203611d3357836001600160a01b0316600080516020612d99833981519152600285604051611cbe929190612b44565b60405180910390a26000805460a754604051630bde081360e21b81526001600160a01b0390921692632f78204c92611cfc9289928792600401612b70565b600060405180830381600087803b158015611d1657600080fd5b505af1158015611d2a573d6000803e3d6000fd5b50505050610643565b60a5548203610643576000611d488585610bac565b905080611ded57846001600160a01b0316600080516020612d99833981519152600186604051611d79929190612b44565b60405180910390a260008054604051630bde081360e21b81526001600160a01b0390911691632f78204c91611db691899181908190600401612b70565b600060405180830381600087803b158015611dd057600080fd5b505af1158015611de4573d6000803e3d6000fd5b50505050611e8a565b846001600160a01b0316600080516020612d99833981519152600786604051611e17929190612b44565b60405180910390a260005460a754604051630bde081360e21b81526001600160a01b0390921691632f78204c91611e579189918791600190600401612b70565b600060405180830381600087803b158015611e7157600080fd5b505af1158015611e85573d6000803e3d6000fd5b505050505b5050505050565b7fb53127684a568b3173ae13b9f8a6016e243e63b6e8ee1178d6a717850b5d6103546001600160a01b031690565b828411158015611ed157506127108411155b8015611edf57506127108311155b611f2b5760405162461bcd60e51b815260206004820152601e60248201527f536c617368496e64696361746f723a20696e76616c696420726174696f730000604482015260640161062e565b606d849055606e839055606f82905560708190556040517fd24c671da2227c139fe1a5b34de15e5a67bef9b46e912916b9e0d025d51b3e3b90611f75908690869086908690612647565b60405180910390a150505050565b600081831015611f935781610bd4565b5090919050565b6040516000906067906001908390611fbe908a908a908a908a908a90602401612d4d565b60408051601f198184030181529190526020810180516001600160e01b0316637fc3567760e01b1790528051909150611ff5612539565b602083016020828483895afa61200a57600094505b503d61201557600093505b8361203357604051630fc2632160e01b815260040160405180910390fd5b5115159a9950505050505050505050565b606c80546001600160a01b0319166001600160a01b0383161790556040517f31a33f126a5bae3c5bdf6cfc2cd6dcfffe2fe9634bdb09e21c44762993889e3b9061208f908390612725565b60405180910390a150565b60008183116120aa576000610bd4565b610bd48284612b31565b60006120c96120c38486612d85565b8361252a565b949350505050565b6038829055603981905560408051838152602081018390527fbda9ec2980d7468ba6a9f363696315affca9f9770016396bdea2ac39c3e5d61a910160405180910390a15050565b600080546001600160a01b0319166001600160a01b0383161790556040517fef40dc07567635f84f5edbd2f8dbc16b40d9d282dd8e7e6f4ff58236b68361699061208f908390612725565b603580546001600160a01b0319166001600160a01b0383161790556040517ffd6f5f93d69a07c593a09be0b208bff13ab4ffd6017df3b33433d63bdc59b4d79061208f908390612725565b603680546001600160a01b0319166001600160a01b0383161790556040517f9125df97e014f5cc4f107fd784acd35e8e2188ca7c2a0f7caa478365747c1c839061208f908390612725565b60018390556002829055600381905560408051848152602081018490529081018290527f913da102149f952dde560cef3349db8e8002e9d580c41a7551d6d45329f4306b90606001610568565b60a65460a55411156122a95760405162461bcd60e51b815260206004820152602660248201527f536c617368556e617661696c6162696c6974793a20696e76616c696420746872604482015265195cda1bdb1960d21b606482015260840161062e565b60a584905560a683905560a782905560a88190556040517f442862e6143ad95854e7c13ff4947ec6e43bc87160e3b193e7c1abaf6e3aaa9890611f75908690869086908690612647565b828411156123545760405162461bcd60e51b815260206004820152602860248201527f43726564697453636f72653a20696e76616c6964206372656469742073636f726044820152676520636f6e66696760c01b606482015260840161062e565b6127108111156123bd5760405162461bcd60e51b815260206004820152602e60248201527f43726564697453636f72653a20696e76616c696420637574206f66662070657260448201526d63656e7461676520636f6e66696760901b606482015260840161062e565b60dd84905560de83905560df82905560e08190556040517fe1f9c6c73554b5fa140eead3cfd4ec3e6d4824f3ed26fb25e38376f65b95470b90611f75908690869086908690612647565b6000336001600160a01b0383161480159061248e5750600054604051633292276760e11b81526001600160a01b03909116906365244ece9061244d908590600401612725565b602060405180830381865afa15801561246a573d6000803e3d6000fd5b505050506040513d601f19601f8201168201806040525081019061248e9190612ca4565b80156105f05750606c54604051630fbeb37f60e01b81526001600160a01b0390911690630fbeb37f906124c79085904390600401612d0b565b602060405180830381865afa1580156124e4573d6000803e3d6000fd5b505050506040513d601f19601f820116820180604052508101906125089190612ca4565b1592915050565b600081600003612520576000610bd4565b610bd48284612d85565b6000818310611f935781610bd4565b60405180602001604052806001906020820280368337509192915050565b60008083601f84011261256957600080fd5b5081356001600160401b0381111561258057600080fd5b6020830191508360208260051b850101111561259b57600080fd5b9250929050565b600080602083850312156125b557600080fd5b82356001600160401b038111156125cb57600080fd5b6125d785828601612557565b90969095509350505050565b6001600160a01b0381168114610c4757600080fd5b60006020828403121561260a57600080fd5b8135610bd4816125e3565b6000806000806080858703121561262b57600080fd5b5050823594602084013594506040840135936060013592509050565b93845260208401929092526040830152606082015260800190565b60008083601f84011261267457600080fd5b5081356001600160401b0381111561268b57600080fd5b60208301915083602082850101111561259b57600080fd5b6000806000806000606086880312156126bb57600080fd5b85356126c6816125e3565b945060208601356001600160401b03808211156126e257600080fd5b6126ee89838a01612662565b9096509450604088013591508082111561270757600080fd5b5061271488828901612662565b969995985093965092949392505050565b6001600160a01b0391909116815260200190565b6000806040838503121561274c57600080fd5b8235612757816125e3565b946020939093013593505050565b60008060006040848603121561277a57600080fd5b83356001600160401b0381111561279057600080fd5b61279c86828701612557565b909790965060209590950135949350505050565b600080604083850312156127c357600080fd5b50508035926020909101359150565b80608081018310156105f057600080fd5b60008060008060008060008060006102a08a8c03121561280257600080fd5b893561280d816125e3565b985060208a013561281d816125e3565b975060408a013561282d816125e3565b965060608a013561283d816125e3565b955061284c8b60808c016127d2565b94506101408a018b81111561286057600080fd5b6101008b0194506101a08b018c81111561287957600080fd5b8194506128868d826127d2565b935050506128988b6102208c016127d2565b90509295985092959850929598565b6000806000606084860312156128bc57600080fd5b83356128c7816125e3565b95602085013595506040909401359392505050565b6000806000606084860312156128f157600080fd5b505081359360208301359350604090920135919050565b600081518084526020808501945080840160005b838110156129385781518752958201959082019060010161291c565b509495945050505050565b602081526000610bd46020830184612908565b634e487b7160e01b600052604160045260246000fd5b634e487b7160e01b600052603260045260246000fd5b634e487b7160e01b600052601160045260246000fd5b6000600182016129aa576129aa612982565b5060010190565b8183526000602080850194508260005b858110156129385781356129d4816125e3565b6001600160a01b0316875295820195908201906001016129c1565b604081526000612a036040830185876129b1565b8281036020840152612a158185612908565b9695505050505050565b600060208284031215612a3157600080fd5b5051919050565b60208082526022908201527f48617350726f787941646d696e3a20756e617574686f72697a65642073656e6460408201526132b960f11b606082015260800190565b604051601f8201601f191681016001600160401b0381118282101715612aa257612aa2612956565b604052919050565b600060a08284031215612abc57600080fd5b60405160a081016001600160401b0381118282101715612ade57612ade612956565b6040528251612aec816125e3565b81526020830151612afc816125e3565b60208201526040830151612b0f816125e3565b6040820152606083810151908201526080928301519281019290925250919050565b818103818111156105f0576105f0612982565b6040810160088410612b6657634e487b7160e01b600052602160045260246000fd5b9281526020015290565b6001600160a01b03949094168452602084019290925260408301521515606082015260800190565b8183823760009101908152919050565b6020815260006120c96020830184866129b1565b80518015158114612bcc57600080fd5b919050565b60006020808385031215612be457600080fd5b82516001600160401b0380821115612bfb57600080fd5b818501915085601f830112612c0f57600080fd5b815181811115612c2157612c21612956565b8060051b9150612c32848301612a7a565b8181529183018401918481019088841115612c4c57600080fd5b938501935b83851015612c7157612c6285612bbc565b82529385019390850190612c51565b98975050505050505050565b606081526000612c916060830186886129b1565b6020830194909452506040015292915050565b600060208284031215612cb657600080fd5b610bd482612bbc565b600080600060608486031215612cd457600080fd5b612cdd84612bbc565b925060208401519150604084015190509250925092565b80820281158282048414176105f0576105f0612982565b6001600160a01b03929092168252602082015260400190565b81835281816020850137506000828201602090810191909152601f909101601f19169091010190565b6001600160a01b0386168152606060208201819052600090612d729083018688612d24565b8281036040840152612c71818587612d24565b808201808211156105f0576105f061298256fe607adba66cff84b627e3537d1c17d088a98556bccd0536a2f3590c56329023d98c02b2ccee964dc50649a48bd0a0446f0f9e88ecdb72d099f4ace07c39c23480a2646970667358221220bbb9c8a18d14676fde8bc85398a11a7545f7fb8cce3da08ee81c2ef3b251559464736f6c63430008110033",
  "devdoc": {
    "errors": {
      "ErrCallPrecompiled()": [
        {
          "details": "Error of call to precompile fails."
        }
      ],
      "ErrCallerMustBeGovernanceAdminContract()": [
        {
          "details": "Error of method caller must be goverance admin contract."
        }
      ],
      "ErrCallerMustBeMaintenanceContract()": [
        {
          "details": "Error of method caller must be maintenance contract."
        }
      ],
      "ErrCallerMustBeRoninTrustedOrgContract()": [
        {
          "details": "Error of method caller must be Ronin trusted org contract."
        }
      ],
      "ErrCallerMustBeValidatorContract()": [
        {
          "details": "Error of method caller must be validator contract."
        }
      ],
      "ErrZeroCodeContract()": [
        {
          "details": "Error of set to non-contract."
        }
      ]
    },
    "kind": "dev",
    "methods": {
      "bailOut(address)": {
        "details": "A slashed validator use this method to get out of jail. Requirements: - The `_consensusAddr` must be a validator. - Only validator's admin can call this method. Emits the event `BailedOut`."
      },
      "checkBailedOutAtPeriod(address,uint256)": {
        "details": "Returns the whether the `_validator` has been bailed out at the `_period`."
      },
      "currentUnavailabilityIndicator(address)": {
        "details": "Returns the current unavailability indicator of a block producer."
      },
      "execResetCreditScores(address[])": {
        "details": "Resets the credit score for the revoked validators. Requirements: - Only validator contract can call this method. - This method is only called at the end of each period. Emits the event `CreditScoresUpdated`."
      },
      "execSlashBridgeOperator(address,uint256,uint256)": {
        "details": "Acknowledges bridge operator slash and emit `Slashed` event correspondingly.",
        "params": {
          "_tier": "The tier of the slash, in value of {1, 2}, corresponding to `SlashType.BRIDGE_OPERATOR_MISSING_VOTE_TIER_1` and `SlashType.BRIDGE_OPERATOR_MISSING_VOTE_TIER_2` Requirements: - Only validator contract can invoke this method. - Should be called only at the end of period. - Should be called only when there is slash of bridge operator. Emits the event `Slashed`."
        }
      },
      "getBridgeOperatorSlashingConfigs()": {
        "details": "Returns the configs related to bridge operator slashing.",
        "returns": {
          "jailDurationForMissingVotesRatioTier2_": "The number of blocks to jail the corresponding block producer when its bridge operator is slashed tier-2.",
          "missingVotesRatioTier1_": "The bridge reward will be deprecated if (s)he missed more than this ratio.",
          "missingVotesRatioTier2_": "The bridge reward and mining reward will be deprecated and the corresponding block producer will be put in jail if (s)he misses more than this ratio.",
          "skipBridgeOperatorSlashingThreshold_": "The threshold to skip slashing the bridge operator in case the total number of votes in the bridge is too small."
        }
      },
      "getBridgeVotingSlashingConfigs()": {
        "details": "Returns the configs related to bridge voting slashing.",
        "returns": {
          "bridgeVotingSlashAmount_": "The amount of RON to slash bridge voting.",
          "bridgeVotingThreshold_": "The threshold to slash when a trusted organization does not vote for bridge operators."
        }
      },
      "getCreditScore(address)": {
        "details": "Returns the current credit score of the validator."
      },
      "getCreditScoreConfigs()": {
        "details": "Returns the configs related to credit score.",
        "returns": {
          "bailOutCostMultiplier_": "The number that will be multiplied with the remaining jailed time to get the cost of bailing out.",
          "cutOffPercentageAfterBailout_": "The percentage of reward that the block producer will be cut off from until the end of the period after bailing out.",
          "gainCreditScore_": "The score to gain per period.",
          "maxCreditScore_": "The max number of credit score that a validator can hold."
        }
      },
      "getDoubleSignSlashingConfigs()": {
        "details": "Returns the configs related to block producer slashing.",
        "params": {
          "_doubleSigningOffsetLimitBlock": "The number of block that the current block is at most far from the double signing block."
        },
        "returns": {
          "doubleSigningJailUntilBlock_": "The block number that the punished validator will be jailed until, due to double signing.",
          "slashDoubleSignAmount_": "The amount of RON to slash double sign."
        }
      },
      "getManyCreditScores(address[])": {
        "details": "Returns the current credit score of a list of validators."
      },
      "getUnavailabilityIndicator(address,uint256)": {
        "details": "Helper for CreditScore contract to query indicator of the validator."
      },
      "getUnavailabilitySlashingConfigs()": {
        "details": "Returns the configs related to block producer slashing.",
        "returns": {
          "jailDurationForUnavailabilityTier2Threshold_": "The number of blocks to jail a block producer when (s)he is slashed with tier-2 or tier-3.",
          "slashAmountForUnavailabilityTier2Threshold_": "The amount of RON to deduct from self-staking of a block producer when (s)he is slashed with tier-2 or tier-3.",
          "unavailabilityTier1Threshold_": "The mining reward will be deprecated, if (s)he missed more than this threshold. This threshold is applied for tier-1 and tier-3 slash.",
          "unavailabilityTier2Threshold_": " The mining reward will be deprecated, (s)he will be put in jailed, and will be deducted self-staking if (s)he misses more than this threshold. This threshold is applied for tier-2 slash."
        }
      },
      "initialize(address,address,address,address,uint256[4],uint256[2],uint256[3],uint256[4],uint256[4])": {
        "details": "Initializes the contract storage."
      },
      "maintenanceContract()": {
        "details": "Returns the maintenance contract."
      },
      "precompileValidateDoubleSignAddress()": {
        "details": "Gets the address of the precompile of validating double sign evidence"
      },
      "roninGovernanceAdminContract()": {
        "details": "Returns the ronin governance admin contract."
      },
      "roninTrustedOrganizationContract()": {
        "details": "Returns the ronin trusted organization contract."
      },
      "setBridgeOperatorSlashingConfigs(uint256,uint256,uint256,uint256)": {
        "details": "Sets the configs to slash bridge operators. Requirements: - The method caller is admin. Emits the event `BridgeOperatorSlashingConfigsUpdated`.",
        "params": {
          "_jailDurationTier2": "The number of blocks to jail the corresponding block producer when its bridge operator is slashed tier-2.",
          "_ratioTier1": "The bridge reward will be deprecated if (s)he missed more than this ratio. Values 0-10,000 map to 0%-100%.",
          "_ratioTier2": "The bridge reward and mining reward will be deprecated and the corresponding block producer will be put in jail if (s)he misses more than this ratio. Values 0-10,000 map to 0%-100%.",
          "_skipSlashingThreshold": "The threshold to skip slashing the bridge operator in case the total number of votes in the bridge is too small."
        }
      },
      "setBridgeVotingSlashingConfigs(uint256,uint256)": {
        "details": "Sets the configs to slash bridge voting. Requirements: - The method caller is admin. Emits the event `BridgeVotingSlashingConfigsUpdated`.",
        "params": {
          "_slashAmount": "The amount of RON to slash bridge voting.",
          "_threshold": "The threshold to slash when a trusted organization does not vote for bridge operators."
        }
      },
      "setCreditScoreConfigs(uint256,uint256,uint256,uint256)": {
        "details": "Sets the configs to credit score. Requirements: - The method caller is admin. Emits the event `CreditScoreConfigsUpdated`.",
        "params": {
          "_bailOutMultiplier": "The number that will be multiplied with the remaining jailed time to get the cost of bailing out.",
          "_cutOffPercentage": "The percentage of reward that the block producer will be cut off from until the end of the period after bailing out.",
          "_gainScore": "The score to gain per period.",
          "_maxScore": "The max number of credit score that a validator can hold."
        }
      },
      "setDoubleSignSlashingConfigs(uint256,uint256,uint256)": {
        "details": "Sets the configs to slash block producers. Requirements: - The method caller is admin. Emits the event `DoubleSignSlashingConfigsUpdated`.",
        "params": {
          "_doubleSigningOffsetLimitBlock": "The number of block that the current block is at most far from the double signing block.",
          "_jailUntilBlock": "The block number that the punished validator will be jailed until, due to double signing.",
          "_slashAmount": "The amount of RON to slash double sign."
        }
      },
      "setMaintenanceContract(address)": {
        "details": "Sets the maintenance contract. Requirements: - The method caller is admin. - The new address is a contract. Emits the event `MaintenanceContractUpdated`."
      },
      "setRoninGovernanceAdminContract(address)": {
        "details": "Sets the ronin governance admin contract. Requirements: - The method caller is admin. - The new address is a contract. Emits the event `RoninGovernanceAdminContractUpdated`."
      },
      "setRoninTrustedOrganizationContract(address)": {
        "details": "Sets the ronin trusted organization contract. Requirements: - The method caller is admin. - The new address is a contract. Emits the event `RoninTrustedOrganizationContractUpdated`."
      },
      "setUnavailabilitySlashingConfigs(uint256,uint256,uint256,uint256)": {
        "details": "Sets the configs to slash block producers. Requirements: - The method caller is admin. Emits the event `BridgeOperatorSlashingConfigsUpdated`.",
        "params": {
          "_jailDurationForTier2Threshold": "The number of blocks to jail a block producer when (s)he is slashed tier-2.",
          "_slashAmountForTier2Threshold": "The amount of RON to deduct from self-staking of a block producer when (s)he is slashed tier-2.",
          "_tier1Threshold": "The mining reward will be deprecated, if (s)he missed more than this threshold.",
          "_tier2Threshold": "The mining reward will be deprecated, (s)he will be put in jailed, and will be deducted self-staking if (s)he misses more than this threshold."
        }
      },
      "setValidatorContract(address)": {
        "details": "Sets the validator contract. Requirements: - The method caller is admin. - The new address is a contract. Emits the event `ValidatorContractUpdated`."
      },
      "slashBridgeVoting(address)": {
        "details": "Slashes for bridge voter governance. Emits the event `Slashed`."
      },
      "slashDoubleSign(address,bytes,bytes)": {
        "details": "Slashes for double signing. Requirements: - The method caller is coinbase. Emits the event `Slashed` if the double signing evidence of the two headers valid."
      },
      "slashUnavailability(address)": {
        "details": "Slashes for unavailability by increasing the counter of block producer `_consensusAddr`. Requirements: - The method caller is coinbase. Emits the event `Slashed` when the threshold is reached."
      },
      "updateCreditScores(address[],uint256)": {
        "details": "Updates the credit score for the validators. Requirements: - Only validator contract can call this method. - This method is only called at the end of each period. Emits the event `CreditScoresUpdated`."
      },
      "validatorContract()": {
        "details": "Returns the validator contract."
      }
    },
    "version": 1
  },
  "userdoc": {
    "kind": "user",
    "methods": {},
    "version": 1
  },
  "storageLayout": {
    "storage": [
      {
        "astId": 7051,
        "contract": "contracts/ronin/slash-indicator/SlashIndicator.sol:SlashIndicator",
        "label": "_validatorContract",
        "offset": 0,
        "slot": "0",
        "type": "t_contract(IRoninValidatorSet)11967"
      },
      {
        "astId": 26721,
        "contract": "contracts/ronin/slash-indicator/SlashIndicator.sol:SlashIndicator",
        "label": "_slashDoubleSignAmount",
        "offset": 0,
        "slot": "1",
        "type": "t_uint256"
      },
      {
        "astId": 26724,
        "contract": "contracts/ronin/slash-indicator/SlashIndicator.sol:SlashIndicator",
        "label": "_doubleSigningJailUntilBlock",
        "offset": 0,
        "slot": "2",
        "type": "t_uint256"
      },
      {
        "astId": 26727,
        "contract": "contracts/ronin/slash-indicator/SlashIndicator.sol:SlashIndicator",
        "label": "_doubleSigningOffsetLimitBlock",
        "offset": 0,
        "slot": "3",
        "type": "t_uint256"
      },
      {
        "astId": 26732,
        "contract": "contracts/ronin/slash-indicator/SlashIndicator.sol:SlashIndicator",
        "label": "_submittedEvidence",
        "offset": 0,
        "slot": "4",
        "type": "t_mapping(t_bytes32,t_bool)"
      },
      {
        "astId": 26737,
        "contract": "contracts/ronin/slash-indicator/SlashIndicator.sol:SlashIndicator",
        "label": "______gap",
        "offset": 0,
        "slot": "5",
        "type": "t_array(t_uint256)48_storage"
      },
      {
        "astId": 6735,
        "contract": "contracts/ronin/slash-indicator/SlashIndicator.sol:SlashIndicator",
        "label": "_roninTrustedOrganizationContract",
        "offset": 0,
        "slot": "53",
        "type": "t_contract(IRoninTrustedOrganization)10182"
      },
      {
        "astId": 6656,
        "contract": "contracts/ronin/slash-indicator/SlashIndicator.sol:SlashIndicator",
        "label": "_roninGovernanceAdminContract",
        "offset": 0,
        "slot": "54",
        "type": "t_contract(IRoninGovernanceAdmin)10003"
      },
      {
        "astId": 26563,
        "contract": "contracts/ronin/slash-indicator/SlashIndicator.sol:SlashIndicator",
        "label": "_bridgeVotingSlashed",
        "offset": 0,
        "slot": "55",
        "type": "t_mapping(t_address,t_mapping(t_uint256,t_bool))"
      },
      {
        "astId": 26566,
        "contract": "contracts/ronin/slash-indicator/SlashIndicator.sol:SlashIndicator",
        "label": "_bridgeVotingThreshold",
        "offset": 0,
        "slot": "56",
        "type": "t_uint256"
      },
      {
        "astId": 26569,
        "contract": "contracts/ronin/slash-indicator/SlashIndicator.sol:SlashIndicator",
        "label": "_bridgeVotingSlashAmount",
        "offset": 0,
        "slot": "57",
        "type": "t_uint256"
      },
      {
        "astId": 26574,
        "contract": "contracts/ronin/slash-indicator/SlashIndicator.sol:SlashIndicator",
        "label": "______gap",
        "offset": 0,
        "slot": "58",
        "type": "t_array(t_uint256)50_storage"
      },
      {
        "astId": 6544,
        "contract": "contracts/ronin/slash-indicator/SlashIndicator.sol:SlashIndicator",
        "label": "_maintenanceContract",
        "offset": 0,
        "slot": "108",
        "type": "t_contract(IMaintenance)9657"
      },
      {
        "astId": 26395,
        "contract": "contracts/ronin/slash-indicator/SlashIndicator.sol:SlashIndicator",
        "label": "_missingVotesRatioTier1",
        "offset": 0,
        "slot": "109",
        "type": "t_uint256"
      },
      {
        "astId": 26398,
        "contract": "contracts/ronin/slash-indicator/SlashIndicator.sol:SlashIndicator",
        "label": "_missingVotesRatioTier2",
        "offset": 0,
        "slot": "110",
        "type": "t_uint256"
      },
      {
        "astId": 26401,
        "contract": "contracts/ronin/slash-indicator/SlashIndicator.sol:SlashIndicator",
        "label": "_jailDurationForMissingVotesRatioTier2",
        "offset": 0,
        "slot": "111",
        "type": "t_uint256"
      },
      {
        "astId": 26404,
        "contract": "contracts/ronin/slash-indicator/SlashIndicator.sol:SlashIndicator",
        "label": "_skipBridgeOperatorSlashingThreshold",
        "offset": 0,
        "slot": "112",
        "type": "t_uint256"
      },
      {
        "astId": 26409,
        "contract": "contracts/ronin/slash-indicator/SlashIndicator.sol:SlashIndicator",
        "label": "______gap",
        "offset": 0,
        "slot": "113",
        "type": "t_array(t_uint256)50_storage"
      },
      {
        "astId": 27147,
        "contract": "contracts/ronin/slash-indicator/SlashIndicator.sol:SlashIndicator",
        "label": "lastUnavailabilitySlashedBlock",
        "offset": 0,
        "slot": "163",
        "type": "t_uint256"
      },
      {
        "astId": 27154,
        "contract": "contracts/ronin/slash-indicator/SlashIndicator.sol:SlashIndicator",
        "label": "_unavailabilityIndicator",
        "offset": 0,
        "slot": "164",
        "type": "t_mapping(t_address,t_mapping(t_uint256,t_uint256))"
      },
      {
        "astId": 27157,
        "contract": "contracts/ronin/slash-indicator/SlashIndicator.sol:SlashIndicator",
        "label": "_unavailabilityTier1Threshold",
        "offset": 0,
        "slot": "165",
        "type": "t_uint256"
      },
      {
        "astId": 27160,
        "contract": "contracts/ronin/slash-indicator/SlashIndicator.sol:SlashIndicator",
        "label": "_unavailabilityTier2Threshold",
        "offset": 0,
        "slot": "166",
        "type": "t_uint256"
      },
      {
        "astId": 27163,
        "contract": "contracts/ronin/slash-indicator/SlashIndicator.sol:SlashIndicator",
        "label": "_slashAmountForUnavailabilityTier2Threshold",
        "offset": 0,
        "slot": "167",
        "type": "t_uint256"
      },
      {
        "astId": 27166,
        "contract": "contracts/ronin/slash-indicator/SlashIndicator.sol:SlashIndicator",
        "label": "_jailDurationForUnavailabilityTier2Threshold",
        "offset": 0,
        "slot": "168",
        "type": "t_uint256"
      },
      {
        "astId": 27171,
        "contract": "contracts/ronin/slash-indicator/SlashIndicator.sol:SlashIndicator",
        "label": "______gap",
        "offset": 0,
        "slot": "169",
        "type": "t_array(t_uint256)50_storage"
      },
      {
        "astId": 25870,
        "contract": "contracts/ronin/slash-indicator/SlashIndicator.sol:SlashIndicator",
        "label": "_checkBailedOutAtPeriod",
        "offset": 0,
        "slot": "219",
        "type": "t_mapping(t_address,t_mapping(t_uint256,t_bool))"
      },
      {
        "astId": 25875,
        "contract": "contracts/ronin/slash-indicator/SlashIndicator.sol:SlashIndicator",
        "label": "_creditScore",
        "offset": 0,
        "slot": "220",
        "type": "t_mapping(t_address,t_uint256)"
      },
      {
        "astId": 25878,
        "contract": "contracts/ronin/slash-indicator/SlashIndicator.sol:SlashIndicator",
        "label": "_gainCreditScore",
        "offset": 0,
        "slot": "221",
        "type": "t_uint256"
      },
      {
        "astId": 25881,
        "contract": "contracts/ronin/slash-indicator/SlashIndicator.sol:SlashIndicator",
        "label": "_maxCreditScore",
        "offset": 0,
        "slot": "222",
        "type": "t_uint256"
      },
      {
        "astId": 25884,
        "contract": "contracts/ronin/slash-indicator/SlashIndicator.sol:SlashIndicator",
        "label": "_bailOutCostMultiplier",
        "offset": 0,
        "slot": "223",
        "type": "t_uint256"
      },
      {
        "astId": 25887,
        "contract": "contracts/ronin/slash-indicator/SlashIndicator.sol:SlashIndicator",
        "label": "_cutOffPercentageAfterBailout",
        "offset": 0,
        "slot": "224",
        "type": "t_uint256"
      },
      {
        "astId": 25892,
        "contract": "contracts/ronin/slash-indicator/SlashIndicator.sol:SlashIndicator",
        "label": "______gap",
        "offset": 0,
        "slot": "225",
        "type": "t_array(t_uint256)50_storage"
      },
      {
        "astId": 1373,
        "contract": "contracts/ronin/slash-indicator/SlashIndicator.sol:SlashIndicator",
        "label": "_initialized",
        "offset": 0,
        "slot": "275",
        "type": "t_uint8"
      },
      {
        "astId": 1376,
        "contract": "contracts/ronin/slash-indicator/SlashIndicator.sol:SlashIndicator",
        "label": "_initializing",
        "offset": 1,
        "slot": "275",
        "type": "t_bool"
      }
    ],
    "types": {
      "t_address": {
        "encoding": "inplace",
        "label": "address",
        "numberOfBytes": "20"
      },
      "t_array(t_uint256)48_storage": {
        "base": "t_uint256",
        "encoding": "inplace",
        "label": "uint256[48]",
        "numberOfBytes": "1536"
      },
      "t_array(t_uint256)50_storage": {
        "base": "t_uint256",
        "encoding": "inplace",
        "label": "uint256[50]",
        "numberOfBytes": "1600"
      },
      "t_bool": {
        "encoding": "inplace",
        "label": "bool",
        "numberOfBytes": "1"
      },
      "t_bytes32": {
        "encoding": "inplace",
        "label": "bytes32",
        "numberOfBytes": "32"
      },
      "t_contract(IMaintenance)9657": {
        "encoding": "inplace",
        "label": "contract IMaintenance",
        "numberOfBytes": "20"
      },
      "t_contract(IRoninGovernanceAdmin)10003": {
        "encoding": "inplace",
        "label": "contract IRoninGovernanceAdmin",
        "numberOfBytes": "20"
      },
      "t_contract(IRoninTrustedOrganization)10182": {
        "encoding": "inplace",
        "label": "contract IRoninTrustedOrganization",
        "numberOfBytes": "20"
      },
      "t_contract(IRoninValidatorSet)11967": {
        "encoding": "inplace",
        "label": "contract IRoninValidatorSet",
        "numberOfBytes": "20"
      },
      "t_mapping(t_address,t_mapping(t_uint256,t_bool))": {
        "encoding": "mapping",
        "key": "t_address",
        "label": "mapping(address => mapping(uint256 => bool))",
        "numberOfBytes": "32",
        "value": "t_mapping(t_uint256,t_bool)"
      },
      "t_mapping(t_address,t_mapping(t_uint256,t_uint256))": {
        "encoding": "mapping",
        "key": "t_address",
        "label": "mapping(address => mapping(uint256 => uint256))",
        "numberOfBytes": "32",
        "value": "t_mapping(t_uint256,t_uint256)"
      },
      "t_mapping(t_address,t_uint256)": {
        "encoding": "mapping",
        "key": "t_address",
        "label": "mapping(address => uint256)",
        "numberOfBytes": "32",
        "value": "t_uint256"
      },
      "t_mapping(t_bytes32,t_bool)": {
        "encoding": "mapping",
        "key": "t_bytes32",
        "label": "mapping(bytes32 => bool)",
        "numberOfBytes": "32",
        "value": "t_bool"
      },
      "t_mapping(t_uint256,t_bool)": {
        "encoding": "mapping",
        "key": "t_uint256",
        "label": "mapping(uint256 => bool)",
        "numberOfBytes": "32",
        "value": "t_bool"
      },
      "t_mapping(t_uint256,t_uint256)": {
        "encoding": "mapping",
        "key": "t_uint256",
        "label": "mapping(uint256 => uint256)",
        "numberOfBytes": "32",
        "value": "t_uint256"
      },
      "t_uint256": {
        "encoding": "inplace",
        "label": "uint256",
        "numberOfBytes": "32"
      },
      "t_uint8": {
        "encoding": "inplace",
        "label": "uint8",
        "numberOfBytes": "1"
      }
    }
  }
}