{
  "address": "0xe84C84C1e6c488a7947d21027CDd6674821348A1",
  "abi": [
    {
      "inputs": [],
      "stateMutability": "nonpayable",
      "type": "constructor"
    },
    {
      "inputs": [
        {
          "internalType": "address",
          "name": "admin",
          "type": "address"
        }
      ],
      "name": "ErrAdminOfAnyActivePoolForbidden",
      "type": "error"
    },
    {
      "inputs": [],
      "name": "ErrCallerMustBeValidatorContract",
      "type": "error"
    },
    {
      "inputs": [
        {
          "internalType": "address",
          "name": "addr",
          "type": "address"
        },
        {
          "internalType": "string",
          "name": "extraInfo",
          "type": "string"
        }
      ],
      "name": "ErrCannotInitTransferRON",
      "type": "error"
    },
    {
      "inputs": [],
      "name": "ErrCannotTransferRON",
      "type": "error"
    },
    {
      "inputs": [
        {
          "internalType": "address",
          "name": "poolAddr",
          "type": "address"
        }
      ],
      "name": "ErrInactivePool",
      "type": "error"
    },
    {
      "inputs": [],
      "name": "ErrInsufficientBalance",
      "type": "error"
    },
    {
      "inputs": [],
      "name": "ErrInsufficientDelegatingAmount",
      "type": "error"
    },
    {
      "inputs": [],
      "name": "ErrInsufficientStakingAmount",
      "type": "error"
    },
    {
      "inputs": [],
      "name": "ErrInvalidArrays",
      "type": "error"
    },
    {
      "inputs": [],
      "name": "ErrInvalidCommissionRate",
      "type": "error"
    },
    {
      "inputs": [],
      "name": "ErrInvalidPoolShare",
      "type": "error"
    },
    {
      "inputs": [],
      "name": "ErrOnlyPoolAdminAllowed",
      "type": "error"
    },
    {
      "inputs": [],
      "name": "ErrPoolAdminForbidden",
      "type": "error"
    },
    {
      "inputs": [],
      "name": "ErrRecipientRevert",
      "type": "error"
    },
    {
      "inputs": [],
      "name": "ErrStakingAmountLeft",
      "type": "error"
    },
    {
      "inputs": [],
      "name": "ErrThreeInteractionAddrsNotEqual",
      "type": "error"
    },
    {
      "inputs": [],
      "name": "ErrThreeOperationAddrsNotDistinct",
      "type": "error"
    },
    {
      "inputs": [],
      "name": "ErrUndelegateTooEarly",
      "type": "error"
    },
    {
      "inputs": [],
      "name": "ErrUndelegateZeroAmount",
      "type": "error"
    },
    {
      "inputs": [],
      "name": "ErrUnstakeTooEarly",
      "type": "error"
    },
    {
      "inputs": [],
      "name": "ErrUnstakeZeroAmount",
      "type": "error"
    },
    {
      "inputs": [],
      "name": "ErrZeroCodeContract",
      "type": "error"
    },
    {
      "inputs": [],
      "name": "ErrZeroValue",
      "type": "error"
    },
    {
      "anonymous": false,
      "inputs": [
        {
          "indexed": false,
          "internalType": "uint256",
          "name": "minSecs",
          "type": "uint256"
        }
      ],
      "name": "CooldownSecsToUndelegateUpdated",
      "type": "event"
    },
    {
      "anonymous": false,
      "inputs": [
        {
          "indexed": true,
          "internalType": "address",
          "name": "delegator",
          "type": "address"
        },
        {
          "indexed": true,
          "internalType": "address",
          "name": "consensuAddr",
          "type": "address"
        },
        {
          "indexed": false,
          "internalType": "uint256",
          "name": "amount",
          "type": "uint256"
        }
      ],
      "name": "Delegated",
      "type": "event"
    },
    {
      "anonymous": false,
      "inputs": [
        {
          "indexed": false,
          "internalType": "uint8",
          "name": "version",
          "type": "uint8"
        }
      ],
      "name": "Initialized",
      "type": "event"
    },
    {
      "anonymous": false,
      "inputs": [
        {
          "indexed": false,
          "internalType": "uint256",
          "name": "maxRate",
          "type": "uint256"
        }
      ],
      "name": "MaxCommissionRateUpdated",
      "type": "event"
    },
    {
      "anonymous": false,
      "inputs": [
        {
          "indexed": false,
          "internalType": "uint256",
          "name": "threshold",
          "type": "uint256"
        }
      ],
      "name": "MinValidatorStakingAmountUpdated",
      "type": "event"
    },
    {
      "anonymous": false,
      "inputs": [
        {
          "indexed": true,
          "internalType": "address",
          "name": "validator",
          "type": "address"
        },
        {
          "indexed": true,
          "internalType": "address",
          "name": "admin",
          "type": "address"
        }
      ],
      "name": "PoolApproved",
      "type": "event"
    },
    {
      "anonymous": false,
      "inputs": [
        {
          "indexed": true,
          "internalType": "uint256",
          "name": "period",
          "type": "uint256"
        },
        {
          "indexed": true,
          "internalType": "address",
          "name": "poolAddr",
          "type": "address"
        },
        {
          "indexed": false,
          "internalType": "uint256",
          "name": "shares",
          "type": "uint256"
        }
      ],
      "name": "PoolSharesUpdated",
      "type": "event"
    },
    {
      "anonymous": false,
      "inputs": [
        {
          "indexed": false,
          "internalType": "address[]",
          "name": "validator",
          "type": "address[]"
        }
      ],
      "name": "PoolsDeprecated",
      "type": "event"
    },
    {
      "anonymous": false,
      "inputs": [
        {
          "indexed": true,
          "internalType": "uint256",
          "name": "period",
          "type": "uint256"
        },
        {
          "indexed": false,
          "internalType": "address[]",
          "name": "poolAddrs",
          "type": "address[]"
        }
      ],
      "name": "PoolsUpdateConflicted",
      "type": "event"
    },
    {
      "anonymous": false,
      "inputs": [
        {
          "indexed": true,
          "internalType": "uint256",
          "name": "period",
          "type": "uint256"
        },
        {
          "indexed": false,
          "internalType": "address[]",
          "name": "poolAddrs",
          "type": "address[]"
        },
        {
          "indexed": false,
          "internalType": "uint256[]",
          "name": "rewards",
          "type": "uint256[]"
        }
      ],
      "name": "PoolsUpdateFailed",
      "type": "event"
    },
    {
      "anonymous": false,
      "inputs": [
        {
          "indexed": true,
          "internalType": "uint256",
          "name": "period",
          "type": "uint256"
        },
        {
          "indexed": false,
          "internalType": "address[]",
          "name": "poolAddrs",
          "type": "address[]"
        },
        {
          "indexed": false,
          "internalType": "uint256[]",
          "name": "aRps",
          "type": "uint256[]"
        },
        {
          "indexed": false,
          "internalType": "uint256[]",
          "name": "shares",
          "type": "uint256[]"
        }
      ],
      "name": "PoolsUpdated",
      "type": "event"
    },
    {
      "anonymous": false,
      "inputs": [
        {
          "indexed": true,
          "internalType": "address",
          "name": "poolAddr",
          "type": "address"
        },
        {
          "indexed": true,
          "internalType": "address",
          "name": "user",
          "type": "address"
        },
        {
          "indexed": false,
          "internalType": "uint256",
          "name": "amount",
          "type": "uint256"
        }
      ],
      "name": "RewardClaimed",
      "type": "event"
    },
    {
      "anonymous": false,
      "inputs": [
        {
          "indexed": true,
          "internalType": "address",
          "name": "consensuAddr",
          "type": "address"
        },
        {
          "indexed": false,
          "internalType": "uint256",
          "name": "amount",
          "type": "uint256"
        }
      ],
      "name": "Staked",
      "type": "event"
    },
    {
      "anonymous": false,
      "inputs": [
        {
          "indexed": true,
          "internalType": "address",
          "name": "validator",
          "type": "address"
        },
        {
          "indexed": true,
          "internalType": "address",
          "name": "recipient",
          "type": "address"
        },
        {
          "indexed": false,
          "internalType": "uint256",
          "name": "amount",
          "type": "uint256"
        },
        {
          "indexed": false,
          "internalType": "uint256",
          "name": "contractBalance",
          "type": "uint256"
        }
      ],
      "name": "StakingAmountDeductFailed",
      "type": "event"
    },
    {
      "anonymous": false,
      "inputs": [
        {
          "indexed": true,
          "internalType": "address",
          "name": "validator",
          "type": "address"
        },
        {
          "indexed": true,
          "internalType": "address",
          "name": "admin",
          "type": "address"
        },
        {
          "indexed": false,
          "internalType": "uint256",
          "name": "amount",
          "type": "uint256"
        },
        {
          "indexed": false,
          "internalType": "uint256",
          "name": "contractBalance",
          "type": "uint256"
        }
      ],
      "name": "StakingAmountTransferFailed",
      "type": "event"
    },
    {
      "anonymous": false,
      "inputs": [
        {
          "indexed": true,
          "internalType": "address",
          "name": "delegator",
          "type": "address"
        },
        {
          "indexed": true,
          "internalType": "address",
          "name": "consensuAddr",
          "type": "address"
        },
        {
          "indexed": false,
          "internalType": "uint256",
          "name": "amount",
          "type": "uint256"
        }
      ],
      "name": "Undelegated",
      "type": "event"
    },
    {
      "anonymous": false,
      "inputs": [
        {
          "indexed": true,
          "internalType": "address",
          "name": "consensuAddr",
          "type": "address"
        },
        {
          "indexed": false,
          "internalType": "uint256",
          "name": "amount",
          "type": "uint256"
        }
      ],
      "name": "Unstaked",
      "type": "event"
    },
    {
      "anonymous": false,
      "inputs": [
        {
          "indexed": true,
          "internalType": "address",
          "name": "poolAddr",
          "type": "address"
        },
        {
          "indexed": true,
          "internalType": "address",
          "name": "user",
          "type": "address"
        },
        {
          "indexed": false,
          "internalType": "uint256",
          "name": "debited",
          "type": "uint256"
        }
      ],
      "name": "UserRewardUpdated",
      "type": "event"
    },
    {
      "anonymous": false,
      "inputs": [
        {
          "indexed": false,
          "internalType": "address",
          "name": "",
          "type": "address"
        }
      ],
      "name": "ValidatorContractUpdated",
      "type": "event"
    },
    {
      "anonymous": false,
      "inputs": [
        {
          "indexed": false,
          "internalType": "uint256",
          "name": "secs",
          "type": "uint256"
        }
      ],
      "name": "WaitingSecsToRevokeUpdated",
      "type": "event"
    },
    {
      "stateMutability": "payable",
      "type": "fallback"
    },
    {
      "inputs": [],
      "name": "DEFAULT_ADDITION_GAS",
      "outputs": [
        {
          "internalType": "uint256",
          "name": "",
          "type": "uint256"
        }
      ],
      "stateMutability": "view",
      "type": "function"
    },
    {
      "inputs": [],
      "name": "PERIOD_DURATION",
      "outputs": [
        {
          "internalType": "uint256",
          "name": "",
          "type": "uint256"
        }
      ],
      "stateMutability": "view",
      "type": "function"
    },
    {
      "inputs": [
        {
          "internalType": "address",
          "name": "_candidateAdmin",
          "type": "address"
        },
        {
          "internalType": "address",
          "name": "_consensusAddr",
          "type": "address"
        },
        {
          "internalType": "address payable",
          "name": "_treasuryAddr",
          "type": "address"
        },
        {
          "internalType": "address",
          "name": "_bridgeOperatorAddr",
          "type": "address"
        },
        {
          "internalType": "uint256",
          "name": "_commissionRate",
          "type": "uint256"
        }
      ],
      "name": "applyValidatorCandidate",
      "outputs": [],
      "stateMutability": "payable",
      "type": "function"
    },
    {
      "inputs": [
        {
          "internalType": "address[]",
          "name": "_consensusAddrs",
          "type": "address[]"
        },
        {
          "internalType": "uint256[]",
          "name": "_amounts",
          "type": "uint256[]"
        }
      ],
      "name": "bulkUndelegate",
      "outputs": [],
      "stateMutability": "nonpayable",
      "type": "function"
    },
    {
      "inputs": [
        {
          "internalType": "address[]",
          "name": "_consensusAddrList",
          "type": "address[]"
        }
      ],
      "name": "claimRewards",
      "outputs": [
        {
          "internalType": "uint256",
          "name": "_amount",
          "type": "uint256"
        }
      ],
      "stateMutability": "nonpayable",
      "type": "function"
    },
    {
      "inputs": [],
      "name": "cooldownSecsToUndelegate",
      "outputs": [
        {
          "internalType": "uint256",
          "name": "",
          "type": "uint256"
        }
      ],
      "stateMutability": "view",
      "type": "function"
    },
    {
      "inputs": [
        {
          "internalType": "address",
          "name": "_consensusAddr",
          "type": "address"
        }
      ],
      "name": "delegate",
      "outputs": [],
      "stateMutability": "payable",
      "type": "function"
    },
    {
      "inputs": [
        {
          "internalType": "address[]",
          "name": "_consensusAddrList",
          "type": "address[]"
        },
        {
          "internalType": "address",
          "name": "_consensusAddrDst",
          "type": "address"
        }
      ],
      "name": "delegateRewards",
      "outputs": [
        {
          "internalType": "uint256",
          "name": "_amount",
          "type": "uint256"
        }
      ],
      "stateMutability": "nonpayable",
      "type": "function"
    },
    {
      "inputs": [
        {
          "internalType": "address",
          "name": "_consensusAddr",
          "type": "address"
        },
        {
          "internalType": "uint256",
          "name": "_amount",
          "type": "uint256"
        }
      ],
      "name": "execDeductStakingAmount",
      "outputs": [
        {
          "internalType": "uint256",
          "name": "_actualDeductingAmount",
          "type": "uint256"
        }
      ],
      "stateMutability": "nonpayable",
      "type": "function"
    },
    {
      "inputs": [
        {
          "internalType": "address[]",
          "name": "_pools",
          "type": "address[]"
        },
        {
          "internalType": "uint256",
          "name": "_newPeriod",
          "type": "uint256"
        }
      ],
      "name": "execDeprecatePools",
      "outputs": [],
      "stateMutability": "nonpayable",
      "type": "function"
    },
    {
      "inputs": [
        {
          "internalType": "address[]",
          "name": "_consensusAddrs",
          "type": "address[]"
        },
        {
          "internalType": "uint256[]",
          "name": "_rewards",
          "type": "uint256[]"
        },
        {
          "internalType": "uint256",
          "name": "_period",
          "type": "uint256"
        }
      ],
      "name": "execRecordRewards",
      "outputs": [],
      "stateMutability": "payable",
      "type": "function"
    },
    {
      "inputs": [
        {
          "internalType": "address[]",
          "name": "_pools",
          "type": "address[]"
        }
      ],
      "name": "getManySelfStakings",
      "outputs": [
        {
          "internalType": "uint256[]",
          "name": "_selfStakings",
          "type": "uint256[]"
        }
      ],
      "stateMutability": "view",
      "type": "function"
    },
    {
      "inputs": [
        {
          "internalType": "address[]",
          "name": "_poolAddrs",
          "type": "address[]"
        },
        {
          "internalType": "address[]",
          "name": "_userList",
          "type": "address[]"
        }
      ],
      "name": "getManyStakingAmounts",
      "outputs": [
        {
          "internalType": "uint256[]",
          "name": "_stakingAmounts",
          "type": "uint256[]"
        }
      ],
      "stateMutability": "view",
      "type": "function"
    },
    {
      "inputs": [
        {
          "internalType": "address[]",
          "name": "_poolList",
          "type": "address[]"
        }
      ],
      "name": "getManyStakingTotals",
      "outputs": [
        {
          "internalType": "uint256[]",
          "name": "_stakingAmounts",
          "type": "uint256[]"
        }
      ],
      "stateMutability": "view",
      "type": "function"
    },
    {
      "inputs": [
        {
          "internalType": "address",
          "name": "_poolAdminAddr",
          "type": "address"
        }
      ],
      "name": "getPoolAddressOf",
      "outputs": [
        {
          "internalType": "address",
          "name": "",
          "type": "address"
        }
      ],
      "stateMutability": "view",
      "type": "function"
    },
    {
      "inputs": [
        {
          "internalType": "address",
          "name": "_poolAddr",
          "type": "address"
        }
      ],
      "name": "getPoolDetail",
      "outputs": [
        {
          "internalType": "address",
          "name": "_admin",
          "type": "address"
        },
        {
          "internalType": "uint256",
          "name": "_stakingAmount",
          "type": "uint256"
        },
        {
          "internalType": "uint256",
          "name": "_stakingTotal",
          "type": "uint256"
        }
      ],
      "stateMutability": "view",
      "type": "function"
    },
    {
      "inputs": [
        {
          "internalType": "address",
          "name": "_poolAddr",
          "type": "address"
        },
        {
          "internalType": "address",
          "name": "_user",
          "type": "address"
        }
      ],
      "name": "getReward",
      "outputs": [
        {
          "internalType": "uint256",
          "name": "",
          "type": "uint256"
        }
      ],
      "stateMutability": "view",
      "type": "function"
    },
    {
      "inputs": [
        {
          "internalType": "address",
          "name": "_user",
          "type": "address"
        },
        {
          "internalType": "address[]",
          "name": "_poolAddrList",
          "type": "address[]"
        }
      ],
      "name": "getRewards",
      "outputs": [
        {
          "internalType": "uint256[]",
          "name": "_rewards",
          "type": "uint256[]"
        }
      ],
      "stateMutability": "view",
      "type": "function"
    },
    {
      "inputs": [
        {
          "internalType": "address",
          "name": "_poolAddr",
          "type": "address"
        },
        {
          "internalType": "address",
          "name": "_user",
          "type": "address"
        }
      ],
      "name": "getStakingAmount",
      "outputs": [
        {
          "internalType": "uint256",
          "name": "",
          "type": "uint256"
        }
      ],
      "stateMutability": "view",
      "type": "function"
    },
    {
      "inputs": [
        {
          "internalType": "address",
          "name": "_poolAddr",
          "type": "address"
        }
      ],
      "name": "getStakingTotal",
      "outputs": [
        {
          "internalType": "uint256",
          "name": "",
          "type": "uint256"
        }
      ],
      "stateMutability": "view",
      "type": "function"
    },
    {
      "inputs": [
        {
          "internalType": "address",
          "name": "__validatorContract",
          "type": "address"
        },
        {
          "internalType": "uint256",
          "name": "__minValidatorStakingAmount",
          "type": "uint256"
        },
        {
          "internalType": "uint256",
          "name": "__maxCommissionRate",
          "type": "uint256"
        },
        {
          "internalType": "uint256",
          "name": "__cooldownSecsToUndelegate",
          "type": "uint256"
        },
        {
          "internalType": "uint256",
          "name": "__waitingSecsToRevoke",
          "type": "uint256"
        }
      ],
      "name": "initialize",
      "outputs": [],
      "stateMutability": "nonpayable",
      "type": "function"
    },
    {
      "inputs": [
        {
          "internalType": "address",
          "name": "_poolAdminAddr",
          "type": "address"
        }
      ],
      "name": "isAdminOfActivePool",
      "outputs": [
        {
          "internalType": "bool",
          "name": "",
          "type": "bool"
        }
      ],
      "stateMutability": "view",
      "type": "function"
    },
    {
      "inputs": [],
      "name": "maxCommissionRate",
      "outputs": [
        {
          "internalType": "uint256",
          "name": "",
          "type": "uint256"
        }
      ],
      "stateMutability": "view",
      "type": "function"
    },
    {
      "inputs": [],
      "name": "minValidatorStakingAmount",
      "outputs": [
        {
          "internalType": "uint256",
          "name": "",
          "type": "uint256"
        }
      ],
      "stateMutability": "view",
      "type": "function"
    },
    {
      "inputs": [
        {
          "internalType": "address",
          "name": "_consensusAddrSrc",
          "type": "address"
        },
        {
          "internalType": "address",
          "name": "_consensusAddrDst",
          "type": "address"
        },
        {
          "internalType": "uint256",
          "name": "_amount",
          "type": "uint256"
        }
      ],
      "name": "redelegate",
      "outputs": [],
      "stateMutability": "nonpayable",
      "type": "function"
    },
    {
      "inputs": [
        {
          "internalType": "address",
          "name": "_consensusAddr",
          "type": "address"
        }
      ],
      "name": "requestEmergencyExit",
      "outputs": [],
      "stateMutability": "nonpayable",
      "type": "function"
    },
    {
      "inputs": [
        {
          "internalType": "address",
          "name": "_consensusAddr",
          "type": "address"
        }
      ],
      "name": "requestRenounce",
      "outputs": [],
      "stateMutability": "nonpayable",
      "type": "function"
    },
    {
      "inputs": [
        {
          "internalType": "address",
          "name": "_consensusAddr",
          "type": "address"
        },
        {
          "internalType": "uint256",
          "name": "_effectiveDaysOnwards",
          "type": "uint256"
        },
        {
          "internalType": "uint256",
          "name": "_commissionRate",
          "type": "uint256"
        }
      ],
      "name": "requestUpdateCommissionRate",
      "outputs": [],
      "stateMutability": "nonpayable",
      "type": "function"
    },
    {
      "inputs": [
        {
          "internalType": "uint256",
          "name": "_cooldownSecs",
          "type": "uint256"
        }
      ],
      "name": "setCooldownSecsToUndelegate",
      "outputs": [],
      "stateMutability": "nonpayable",
      "type": "function"
    },
    {
      "inputs": [
        {
          "internalType": "uint256",
          "name": "_maxRate",
          "type": "uint256"
        }
      ],
      "name": "setMaxCommissionRate",
      "outputs": [],
      "stateMutability": "nonpayable",
      "type": "function"
    },
    {
      "inputs": [
        {
          "internalType": "uint256",
          "name": "_threshold",
          "type": "uint256"
        }
      ],
      "name": "setMinValidatorStakingAmount",
      "outputs": [],
      "stateMutability": "nonpayable",
      "type": "function"
    },
    {
      "inputs": [
        {
          "internalType": "address",
          "name": "_addr",
          "type": "address"
        }
      ],
      "name": "setValidatorContract",
      "outputs": [],
      "stateMutability": "nonpayable",
      "type": "function"
    },
    {
      "inputs": [
        {
          "internalType": "uint256",
          "name": "_secs",
          "type": "uint256"
        }
      ],
      "name": "setWaitingSecsToRevoke",
      "outputs": [],
      "stateMutability": "nonpayable",
      "type": "function"
    },
    {
      "inputs": [
        {
          "internalType": "address",
          "name": "_consensusAddr",
          "type": "address"
        }
      ],
      "name": "stake",
      "outputs": [],
      "stateMutability": "payable",
      "type": "function"
    },
    {
      "inputs": [
        {
          "internalType": "address",
          "name": "_consensusAddr",
          "type": "address"
        },
        {
          "internalType": "uint256",
          "name": "_amount",
          "type": "uint256"
        }
      ],
      "name": "undelegate",
      "outputs": [],
      "stateMutability": "nonpayable",
      "type": "function"
    },
    {
      "inputs": [
        {
          "internalType": "address",
          "name": "_consensusAddr",
          "type": "address"
        },
        {
          "internalType": "uint256",
          "name": "_amount",
          "type": "uint256"
        }
      ],
      "name": "unstake",
      "outputs": [],
      "stateMutability": "nonpayable",
      "type": "function"
    },
    {
      "inputs": [],
      "name": "validatorContract",
      "outputs": [
        {
          "internalType": "address",
          "name": "",
          "type": "address"
        }
      ],
      "stateMutability": "view",
      "type": "function"
    },
    {
      "inputs": [],
      "name": "waitingSecsToRevoke",
      "outputs": [
        {
          "internalType": "uint256",
          "name": "",
          "type": "uint256"
        }
      ],
      "stateMutability": "view",
      "type": "function"
    },
    {
      "stateMutability": "payable",
      "type": "receive"
    }
  ],
  "transactionHash": "0xec6aa9d9938342e29fe2640d7095a83fdc90822306bd5e85e1cc63fe5ee4f331",
  "args": [],
  "numDeployments": 1,
  "solcInputHash": "a50a3f056fa24c0b5a230a9cb29a1cb4",
  "bytecode": "0x60806040523480156200001157600080fd5b5060016000556200002162000027565b620000e9565b60d154610100900460ff1615620000945760405162461bcd60e51b815260206004820152602760248201527f496e697469616c697a61626c653a20636f6e747261637420697320696e697469604482015266616c697a696e6760c81b606482015260840160405180910390fd5b60d15460ff9081161015620000e75760d1805460ff191660ff9081179091556040519081527f7f26b83ff96e1f2b6a682f133852f6798a09c465da95921460cefb38474024989060200160405180910390a15b565b6139b180620000f96000396000f3fe6080604052600436106101b95760003560e01c806303827884146101f95780630682e8fa14610222578063095f647514610237578063097e4a9d146102645780631658c86e1461028457806326476204146102a45780632715805e146102b75780633d8e846e146102d757806342e0c408146102f757806342ef3c34146103275780634d99dd16146103475780635c19a95c146103675780636558954f1461037a578063679a6e43146103915780636b091695146103b15780636bd8f804146103d157806376664b65146103f1578063888b9ae914610411578063895ab74214610431578063909791dd1461045157806391f8723f14610466578063924f081e146104865780639488e4e9146104a6578063969ffc14146104c657806399439089146104e6578063aa15a6fd14610508578063acd79c4614610528578063af2454291461053b578063b78b5e4114610550578063c2a672e014610570578063c508700314610590578063c673316c146105c9578063cdf64a76146105de578063d01b8eed146105fe578063e22d1c9d14610659578063e5376f5414610679578063f92ad2191461068c578063f9f031df146106ac576101f0565b366101f057336101c76106cc565b6001600160a01b0316146101ee57604051630e6444a160e31b815260040160405180910390fd5b005b336101c76106cc565b34801561020557600080fd5b5061020f6104b081565b6040519081526020015b60405180910390f35b34801561022e57600080fd5b5060385461020f565b34801561024357600080fd5b50610257610252366004613221565b6106db565b60405161021991906132c7565b34801561027057600080fd5b5061020f61027f3660046132ef565b61081d565b34801561029057600080fd5b506101ee61029f366004613345565b610922565b6101ee6102b2366004613345565b610a60565b3480156102c357600080fd5b5061020f6102d2366004613369565b610b38565b3480156102e357600080fd5b506102576102f2366004613395565b610bf8565b34801561030357600080fd5b50610317610312366004613345565b610d3c565b6040519015158152602001610219565b34801561033357600080fd5b506102576103423660046133e9565b610d5c565b34801561035357600080fd5b506101ee610362366004613369565b610e2b565b6101ee610375366004613345565b610ea7565b34801561038657600080fd5b5061020f6201518081565b34801561039d57600080fd5b506101ee6103ac36600461342a565b610fa4565b3480156103bd57600080fd5b5061020f6103cc366004613443565b610fe8565b3480156103dd57600080fd5b506101ee6103ec36600461347c565b61100a565b3480156103fd57600080fd5b5061020f61040c366004613443565b611115565b34801561041d57600080fd5b506101ee61042c36600461342a565b611144565b34801561043d57600080fd5b5061020f61044c366004613345565b611185565b34801561045d57600080fd5b50606c5461020f565b34801561047257600080fd5b506102576104813660046133e9565b6111a3565b34801561049257600080fd5b506101ee6104a13660046134bd565b61124d565b3480156104b257600080fd5b506101ee6104c1366004613221565b6113b0565b3480156104d257600080fd5b506101ee6104e136600461342a565b6114e9565b3480156104f257600080fd5b506104fb6106cc565b60405161021991906134f2565b34801561051457600080fd5b506101ee610523366004613345565b61152a565b6101ee610536366004613506565b611630565b34801561054757600080fd5b5060395461020f565b34801561055c57600080fd5b506101ee61056b36600461342a565b6116a8565b34801561057c57600080fd5b506101ee61058b366004613369565b6116e9565b34801561059c57600080fd5b506104fb6105ab366004613345565b6001600160a01b039081166000908152603a60205260409020541690565b3480156105d557600080fd5b50606d5461020f565b3480156105ea57600080fd5b506101ee6105f9366004613345565b611829565b34801561060a57600080fd5b5061064a610619366004613345565b6001600160a01b03808216600090815260376020526040902060018101546002820154600390920154921693909250565b60405161021993929190613579565b34801561066557600080fd5b506101ee61067436600461359a565b611895565b6101ee6106873660046135e5565b611a85565b34801561069857600080fd5b506101ee6106a7366004613649565b611bba565b3480156106b857600080fd5b5061020f6106c73660046133e9565b611cf5565b6036546001600160a01b031690565b60608382146106fd576040516376081a7b60e11b815260040160405180910390fd5b836001600160401b038111156107155761071561368d565b60405190808252806020026020018201604052801561073e578160200160208202803683370190505b50905060005b81518110156108145760376000878784818110610763576107636136a3565b90506020020160208101906107789190613345565b6001600160a01b03166001600160a01b0316815260200190815260200160002060040160008585848181106107af576107af6136a3565b90506020020160208101906107c49190613345565b6001600160a01b03166001600160a01b03168152602001908152602001600020548282815181106107f7576107f76136a3565b60209081029190910101528061080c816136cf565b915050610744565b50949350505050565b600060026000540361084a5760405162461bcd60e51b8152600401610841906136e8565b60405180910390fd5b6002600055603654604051635061f96960e11b815283916001600160a01b03169063a0c3f2d29061087f9084906004016134f2565b602060405180830381865afa15801561089c573d6000803e3d6000fd5b505050506040513d601f19601f820116820180604052508101906108c0919061371f565b6108df5780604051630fd0c64560e11b815260040161084191906134f2565b6108e833610d3c565b156109085733604051632fc6bfb160e21b815260040161084191906134f2565b61091433868686611d75565b600160005595945050505050565b603654604051635061f96960e11b815282916001600160a01b03169063a0c3f2d2906109529084906004016134f2565b602060405180830381865afa15801561096f573d6000803e3d6000fd5b505050506040513d601f19601f82011682018060405250810190610993919061371f565b6109b25780604051630fd0c64560e11b815260040161084191906134f2565b6001600160a01b0380831660009081526037602052604090206001810154909133911681146109f457604051637bc65bd760e11b815260040160405180910390fd5b60365460395460405163dd716ad360e01b81526001600160a01b039092169163dd716ad391610a2891889190600401613741565b600060405180830381600087803b158015610a4257600080fd5b505af1158015610a56573d6000803e3d6000fd5b5050505050505050565b34600003610a8157604051636dfcbde560e11b815260040160405180910390fd5b603654604051635061f96960e11b815282916001600160a01b03169063a0c3f2d290610ab19084906004016134f2565b602060405180830381865afa158015610ace573d6000803e3d6000fd5b505050506040513d601f19601f82011682018060405250810190610af2919061371f565b610b115780604051630fd0c64560e11b815260040161084191906134f2565b6001600160a01b0382166000908152603760205260409020610b34903334611de2565b5050565b600033610b436106cc565b6001600160a01b031614610b6a57604051630e6444a160e31b815260040160405180910390fd5b6001600160a01b0383166000908152603760205260409020610b8c9083611eb5565b90506000610b986106cc565b9050610ba48183611f40565b610bf157604080518381524760208201526001600160a01b0380841692908716917f63701cd972aa3c7f87898aab145c972e52185beab07d6e39380a998d334cf6c8910160405180910390a35b5092915050565b6060600080603660009054906101000a90046001600160a01b03166001600160a01b031663060406186040518163ffffffff1660e01b8152600401602060405180830381865afa158015610c50573d6000803e3d6000fd5b505050506040513d601f19601f82011682018060405250810190610c74919061375a565b9050836001600160401b03811115610c8e57610c8e61368d565b604051908082528060200260200182016040528015610cb7578160200160208202803683370190505b50925060005b84811015610d3257858582818110610cd757610cd76136a3565b9050602002016020810190610cec9190613345565b9250610d03838884610cfe878c611115565b611f9c565b848281518110610d1557610d156136a3565b602090810291909101015280610d2a816136cf565b915050610cbd565b5050509392505050565b6001600160a01b039081166000908152603a602052604090205416151590565b6060816001600160401b03811115610d7657610d7661368d565b604051908082528060200260200182016040528015610d9f578160200160208202803683370190505b50905060005b82811015610bf15760376000858584818110610dc357610dc36136a3565b9050602002016020810190610dd89190613345565b6001600160a01b03166001600160a01b0316815260200190815260200160002060020154828281518110610e0e57610e0e6136a3565b602090810291909101015280610e23816136cf565b915050610da5565b600260005403610e4d5760405162461bcd60e51b8152600401610841906136e8565b600260009081556001600160a01b03831681526037602052604090203390610e76908284612098565b610e8081836121f9565b610e9d57604051635ff7115760e11b815260040160405180910390fd5b5050600160005550565b34600003610ec857604051636dfcbde560e11b815260040160405180910390fd5b603654604051635061f96960e11b815282916001600160a01b03169063a0c3f2d290610ef89084906004016134f2565b602060405180830381865afa158015610f15573d6000803e3d6000fd5b505050506040513d601f19601f82011682018060405250810190610f39919061371f565b610f585780604051630fd0c64560e11b815260040161084191906134f2565b610f6133610d3c565b15610f815733604051632fc6bfb160e21b815260040161084191906134f2565b6001600160a01b0382166000908152603760205260409020610b34903334612226565b610fac6122ee565b6001600160a01b0316336001600160a01b031614610fdc5760405162461bcd60e51b815260040161084190613773565b610fe58161231c565b50565b60006110018383610ff7612358565b610cfe8787611115565b90505b92915050565b60026000540361102c5760405162461bcd60e51b8152600401610841906136e8565b6002600055603654604051635061f96960e11b815283916001600160a01b03169063a0c3f2d2906110619084906004016134f2565b602060405180830381865afa15801561107e573d6000803e3d6000fd5b505050506040513d601f19601f820116820180604052508101906110a2919061371f565b6110c15780604051630fd0c64560e11b815260040161084191906134f2565b6001600160a01b038416600090815260376020526040902033906110e6908285612098565b6001600160a01b0384166000908152603760205260409020611109908285612226565b50506001600055505050565b6001600160a01b0391821660009081526037602090815260408083209390941682526004909201909152205490565b61114c6122ee565b6001600160a01b0316336001600160a01b03161461117c5760405162461bcd60e51b815260040161084190613773565b610fe5816123ca565b6001600160a01b031660009081526037602052604090206003015490565b6060816001600160401b038111156111bd576111bd61368d565b6040519080825280602002602001820160405280156111e6578160200160208202803683370190505b50905060005b82811015610bf15761121e848483818110611209576112096136a3565b905060200201602081019061044c9190613345565b828281518110611230576112306136a3565b602090810291909101015280611245816136cf565b9150506111ec565b603654604051635061f96960e11b815284916001600160a01b03169063a0c3f2d29061127d9084906004016134f2565b602060405180830381865afa15801561129a573d6000803e3d6000fd5b505050506040513d601f19601f820116820180604052508101906112be919061371f565b6112dd5780604051630fd0c64560e11b815260040161084191906134f2565b6001600160a01b03808516600090815260376020526040902060018101549091339116811461131f57604051637bc65bd760e11b815260040160405180910390fd5b606d5484111561134257604051631b8454a360e21b815260040160405180910390fd5b60365460405163e5125a1d60e01b81526001600160a01b039091169063e5125a1d9061137690899089908990600401613579565b600060405180830381600087803b15801561139057600080fd5b505af11580156113a4573d6000803e3d6000fd5b50505050505050505050565b6002600054036113d25760405162461bcd60e51b8152600401610841906136e8565b60026000558215806113e45750828114155b15611402576040516376081a7b60e11b815260040160405180910390fd5b336000805b858110156114b457848482818110611421576114216136a3565b905060200201358261143391906137b5565b91506114a26037600089898581811061144e5761144e6136a3565b90506020020160208101906114639190613345565b6001600160a01b03166001600160a01b0316815260200190815260200160002084878785818110611496576114966136a3565b90506020020135612098565b806114ac816136cf565b915050611407565b506114bf82826121f9565b6114dc57604051635ff7115760e11b815260040160405180910390fd5b5050600160005550505050565b6114f16122ee565b6001600160a01b0316336001600160a01b0316146115215760405162461bcd60e51b815260040161084190613773565b610fe5816123ff565b603654604051635061f96960e11b815282916001600160a01b03169063a0c3f2d29061155a9084906004016134f2565b602060405180830381865afa158015611577573d6000803e3d6000fd5b505050506040513d601f19601f8201168201806040525081019061159b919061371f565b6115ba5780604051630fd0c64560e11b815260040161084191906134f2565b6001600160a01b0380831660009081526037602052604090206001810154909133911681146115fc57604051637bc65bd760e11b815260040160405180910390fd5b60365460395460405163a7c2f11960e01b81526001600160a01b039092169163a7c2f11991610a2891889190600401613741565b336116396106cc565b6001600160a01b03161461166057604051630e6444a160e31b815260040160405180910390fd5b6116a1858580806020026020016040519081016040528093929190818152602001838360200280828437600092019190915250879250869150859050612434565b5050505050565b6116b06122ee565b6001600160a01b0316336001600160a01b0316146116e05760405162461bcd60e51b815260040161084190613773565b610fe581612872565b60026000540361170b5760405162461bcd60e51b8152600401610841906136e8565b6002600055603654604051635061f96960e11b815283916001600160a01b03169063a0c3f2d2906117409084906004016134f2565b602060405180830381865afa15801561175d573d6000803e3d6000fd5b505050506040513d601f19601f82011682018060405250810190611781919061371f565b6117a05780604051630fd0c64560e11b815260040161084191906134f2565b816000036117c1576040516331d9f7d760e01b815260040160405180910390fd5b6001600160a01b038316600090815260376020526040812060028101543392906117ec9086906137c8565b9050606c548110156118115760405163ef0a995760e01b815260040160405180910390fd5b61181c8284876128ca565b6114bf83866104b06129cc565b6118316122ee565b6001600160a01b0316336001600160a01b0316146118615760405162461bcd60e51b815260040161084190613773565b806001600160a01b03163b60000361188c57604051637bcd509160e01b815260040160405180910390fd5b610fe581612a2c565b3361189e6106cc565b6001600160a01b0316146118c557604051630e6444a160e31b815260040160405180910390fd5b8115611a805760005b82811015611a45576000603760008686858181106118ee576118ee6136a3565b90506020020160208101906119039190613345565b6001600160a01b0390811682526020808301939093526040918201600090812060018101549092168152603a909352912080546001600160a01b0319169055600281015490915080156119ca5761195a8282611eb5565b506001820154611976906001600160a01b0316826104b06129cc565b6119ca5760018201548254604080518481524760208201526001600160a01b0393841693909216917f7dc5115a5aba081f5a174f56a3d02eea582824783322a4ac03f7bd388f444194910160405180910390a35b6000611a0a8787868181106119e1576119e16136a3565b90506020020160208101906119f69190613345565b60018501546001600160a01b031687612a77565b90508015611a2f576001830154611a2d906001600160a01b0316826104b06129cc565b505b5050508080611a3d906136cf565b9150506118ce565b507f4f257d3ba23679d338f1d94296086bba5724af341b7fa31aa0ff297bfcdc62d88383604051611a779291906137db565b60405180910390a15b505050565b600260005403611aa75760405162461bcd60e51b8152600401610841906136e8565b6002600055611ab533610d3c565b15611ad55733604051632fc6bfb160e21b815260040161084191906134f2565b606d54811115611af857604051631b8454a360e21b815260040160405180910390fd5b3433611b0981888888888888612b77565b6001600160a01b0380871660008181526037602081815260408084206001810180549789166001600160a01b0319988916811790915581548816871782558552603a835290842080549096168517909555929091529052611b6b818385611de2565b816001600160a01b0316876001600160a01b03167ffc1f1e73948cbc47c5b7f90e5601b7daccd9ad7173218486ccc74bdd051d05e860405160405180910390a350506001600055505050505050565b60d154610100900460ff1615808015611bda575060d154600160ff909116105b80611bf45750303b158015611bf4575060d15460ff166001145b611c575760405162461bcd60e51b815260206004820152602e60248201527f496e697469616c697a61626c653a20636f6e747261637420697320616c72656160448201526d191e481a5b9a5d1a585b1a5e995960921b6064820152608401610841565b60d1805460ff191660011790558015611c7a5760d1805461ff0019166101001790555b611c8386612a2c565b611c8c8561231c565b611c9584612872565b611c9e836123ca565b611ca7826123ff565b8015611ced5760d1805461ff0019169055604051600181527f7f26b83ff96e1f2b6a682f133852f6798a09c465da95921460cefb38474024989060200160405180910390a15b505050505050565b6000600260005403611d195760405162461bcd60e51b8152600401610841906136e8565b6002600081905550611d5e33848480806020026020016040519081016040528093929190818152602001838360200280828437600092019190915250612e2692505050565b9050611d6a3382612e89565b600160005592915050565b6000611db485858580806020026020016040519081016040528093929190818152602001838360200280828437600092019190915250612e2692505050565b6001600160a01b0383166000908152603760205260409020909150611dda908683612226565b949350505050565b6001830154839083906001600160a01b03808316911614611e1657604051637bc65bd760e11b815260040160405180910390fd5b82856002016000828254611e2a91906137b5565b92505081905550611e5085858760020154868960030154611e4b91906137b5565b612eb0565b6001600160a01b03808516600090815260058701602052604090819020429055865490519116907f9e71bc8eea02a63969f509818f2dafb9254532904319f9dbda79b67bd34a5f3d90611ea69086815260200190565b60405180910390a25050505050565b6000611ec5836002015483612eeb565b905080836002016000828254611edb91906137c8565b9091555050600183015460028401546003850154611f0b9286926001600160a01b0390911691611e4b9086612f01565b82546040518281526001600160a01b039091169060008051602061393c8339815191529060200160405180910390a292915050565b6000826001600160a01b03168260405160006040518083038185875af1925050503d8060008114611f8d576040519150601f19603f3d011682016040523d82523d6000602084013e611f92565b606091505b5090949350505050565b6001600160a01b03808516600090815260026020908152604080832093871683529290529081206003810154849003611fd757549050611dda565b6001600160a01b03861660009081526003602081815260408084206001808452828620948701548652939092528320918201548392901561203c578054600186015490945061202690856137c8565b85600201546120359190613829565b9250612044565b846001015493505b81546000906120549086906137c8565b61205e9089613829565b9050670de0b6b3a764000061207382866137b5565b61207d9190613840565b865461208991906137b5565b9b9a5050505050505050505050565b6001830154839083906001600160a01b038083169116036120cc57604051639feb934760e01b815260040160405180910390fd5b826000036120ed57604051637ab0c6ad60e11b815260040160405180910390fd5b6001600160a01b038416600090815260048601602052604090205483111561212857604051630695534560e31b815260040160405180910390fd5b6038546001600160a01b03851660009081526005870160205260409020544291612151916137b5565b1061216f5760405163f19f52bd60e01b815260040160405180910390fd5b6001600160a01b03841660009081526004860160205260409020546121ad908690869061219d9087906137c8565b868960030154611e4b91906137c8565b84546040518481526001600160a01b03918216918616907f4d10bd049775c77bd7f255195afba5088028ecb3c7c277d393ccff7934f2f92c906020015b60405180910390a35050505050565b60008147101561221c576040516304611a4560e11b815260040160405180910390fd5b6110018383611f40565b6001830154839083906001600160a01b0380831691160361225a57604051639feb934760e01b815260040160405180910390fd5b6001600160a01b038416600090815260048601602052604090205461229890869086906122889087906137b5565b868960030154611e4b91906137b5565b6001600160a01b03808516600081815260058801602052604090819020429055875490519216917fe5541a6b6103d4fa7e021ed54fad39c66f27a76bd13d374cf6240ae6bd0bb72b906121ea9087815260200190565b7fb53127684a568b3173ae13b9f8a6016e243e63b6e8ee1178d6a717850b5d6103546001600160a01b031690565b606c8190556040518181527f372bbdb8d72373b0012f84ee5a11671e5fb72b8bea902ebca93a19cb45d32be2906020015b60405180910390a150565b6036546040805162c080c360e31b815290516000926001600160a01b03169163060406189160048083019260209291908290030181865afa1580156123a1573d6000803e3d6000fd5b505050506040513d601f19601f820116820180604052508101906123c5919061375a565b905090565b60388190556040518181527f4956b65267b8f1e642284bcb5037116c69a9c78d9ca576beeae0974737a4872a9060200161234d565b60398190556040518181527f02be0b73b597f2c0f138aebee162b3b0e25d5b5a26854c15dcf79176e9a1c6789060200161234d565b8351821461247d57807fae52c603227f64e4c6101dde593aa9790a16b3ac77546bd746d758511e9560a58585856040516124709392919061389b565b60405180910390a261286c565b600080600080600088516001600160401b0381111561249e5761249e61368d565b6040519080825280602002602001820160405280156124c7578160200160208202803683370190505b509050600089516001600160401b038111156124e5576124e561368d565b60405190808252806020026020018201604052801561250e578160200160208202803683370190505b50905060008a516001600160401b0381111561252c5761252c61368d565b604051908082528060200260200182016040528015612555578160200160208202803683370190505b50905060005b8b518110156127d7578b8181518110612576576125766136a3565b60200260200101519550600060036000886001600160a01b03166001600160a01b0316815260200190815260200160002090506125b287611185565b6001600160a01b03881660009081526001602081815260408084208f855290915290912001549096508a9003612626578683896125ee816136cf565b9a5081518110612600576126006136a3565b60200260200101906001600160a01b031690816001600160a01b031681525050506127c5565b60028101548a111561265457604080518082019091528681526020018a905260018101869055600281018a90555b60018101541561269e5760018101548c8c84818110612675576126756136a3565b90506020020135670de0b6b3a764000061268f9190613829565b6126999190613840565b6126a1565b60005b9850888160000160008282546126b791906137b5565b91829055509050856126c98a856137c8565b815181106126d9576126d96136a3565b6020026020010181815250506040518060400160405280826000015481526020018b81525060016000896001600160a01b03166001600160a01b0316815260200190815260200160002060008c81526020019081526020016000206000820151816000015560208201518160010155905050858160010160000181905550806001016000015484898461276c91906137c8565b8151811061277c5761277c6136a3565b6020908102919091010152868d6127938a856137c8565b815181106127a3576127a36136a3565b60200260200101906001600160a01b031690816001600160a01b031681525050505b806127cf816136cf565b91505061255b565b50851561282057858152858b51038b52877fee74f10cc50bf4b7e57fd36be7d46288795f3a9151dae97505b718b392ba14a38260405161281791906138e5565b60405180910390a25b8a511561286457877f0e54e0485f70f0f63bc25889ddbf01ce1269ad6f07fdb2df573a0fbdb4d66f888c858560405161285b939291906138f8565b60405180910390a25b505050505050505b50505050565b61271081111561289557604051631b8454a360e21b815260040160405180910390fd5b606d8190556040518181527f774069781371d65424b3b0b101c1d40014532cac040f979595b99a3fcf8ce08c9060200161234d565b6001830154839083906001600160a01b038083169116146128fe57604051637bc65bd760e11b815260040160405180910390fd5b846002015483111561292357604051630a8d7fa760e21b815260040160405180910390fd5b6038546001600160a01b0385166000908152600587016020526040902054429161294c916137b5565b111561296b576040516303db082960e11b815260040160405180910390fd5b8285600201600082825461297f91906137c8565b925050819055506129a085858760020154868960030154611e4b91906137c8565b84546040518481526001600160a01b039091169060008051602061393c83398151915290602001611ea6565b6000836001600160a01b0316838390604051600060405180830381858888f193505050503d8060008114612a1c576040519150601f19603f3d011682016040523d82523d6000602084013e612a21565b606091505b509095945050505050565b603680546001600160a01b0319166001600160a01b0383161790556040517fef40dc07567635f84f5edbd2f8dbc16b40d9d282dd8e7e6f4ff58236b68361699061234d9083906134f2565b600080612a848585611115565b9050612a9285858584611f9c565b9150836001600160a01b0316856001600160a01b03167f0aa4d283470c904c551d18bb894d37e17674920f3261a7f854be501e25f421b784604051612ad991815260200190565b60405180910390a36001600160a01b03808616600081815260026020908152604080832094891683529381528382208281559282526003905291909120612b239082868580612f17565b60038181018590556001600160a01b038781166000818152602093845260408082205460018701555190815291881692909160008051602061395c833981519152910160405180910390a350509392505050565b612b82876000611f40565b612bcd576040805163338f030160e01b81526001600160a01b03891660048201526024810191909152600a6044820152693837b7b61030b236b4b760b11b6064820152608401610841565b612bd8846000611f40565b612c21576040805163338f030160e01b81526001600160a01b038616600482015260248101919091526008604482015267747265617375727960c01b6064820152608401610841565b606c54811015612c4457604051630a8d7fa760e21b815260040160405180910390fd5b606d54821115612c6757604051631b8454a360e21b815260040160405180910390fd5b856001600160a01b0316876001600160a01b0316141580612c9a5750836001600160a01b0316866001600160a01b031614155b15612cb85760405163dc1d04ff60e01b815260040160405180910390fd5b60408051600380825260808201909252600091602082016060803683370190505090508781600081518110612cef57612cef6136a3565b60200260200101906001600160a01b031690816001600160a01b0316815250508581600181518110612d2357612d236136a3565b60200260200101906001600160a01b031690816001600160a01b0316815250508381600281518110612d5757612d576136a3565b60200260200101906001600160a01b031690816001600160a01b031681525050612d8081612fa9565b15612d9e576040516329d55f9360e11b815260040160405180910390fd5b6036546040516302209ca560e31b81526001600160a01b0389811660048301528881166024830152878116604483015286811660648301526084820186905290911690631104e5289060a401600060405180830381600087803b158015612e0457600080fd5b505af1158015612e18573d6000803e3d6000fd5b505050505050505050505050565b600080612e31612358565b905060005b8351811015612e8157612e63848281518110612e5457612e546136a3565b60200260200101518684612a77565b612e6d90846137b5565b925080612e79816136cf565b915050612e36565b505092915050565b612e9382826121f9565b610b3457604051630c3e69bb60e11b815260040160405180910390fd5b8354612ec6906001600160a01b03168484613070565b60038401556001600160a01b0390911660009081526004909201602052604090912055565b6000818310612efa5781611001565b5090919050565b6000612f0d8383612eeb565b61100190846137c8565b8284600301541015612f2b57600284018190555b6000612f3b856002015484612eeb565b90506000818660020154612f4f91906137c8565b90508015612fa057600286018290556001870154811115612f83576040516352e521bf60e11b815260040160405180910390fd5b80876001016000016000828254612f9a91906137c8565b90915550505b50505050505050565b60008151600003612fbc57506000919050565b60005b60018351612fcd91906137c8565b811015613067576000612fe18260016137b5565b90505b835181101561305457838181518110612fff57612fff6136a3565b60200260200101516001600160a01b0316848381518110613022576130226136a3565b60200260200101516001600160a01b031603613042575060019392505050565b8061304c816136cf565b915050612fe4565b508061305f816136cf565b915050612fbf565b50600092915050565b600061307a612358565b6001600160a01b03851660009081526003602052604090206001810154600282015492935090918311156130d55760405180604001604052806130bc88611185565b8152602090810185905281516001850155015160028301555b6001600160a01b0380871660009081526002602090815260408083209389168352929052908120906131078888611115565b9050600061311789898885611f9c565b83549091508114613157578083556040518181526001600160a01b0389811691908b169060008051602061395c8339815191529060200160405180910390a35b6131648584888a86612f17565b84546001808501919091556003840187905585015484146131cb57886001600160a01b0316867f81faf50e2aaf52eaba2ab841071efb9f6f0850a3e7d008b1336e6001d3d4963c87600101600001546040516131c291815260200190565b60405180910390a35b505050505050505050565b60008083601f8401126131e857600080fd5b5081356001600160401b038111156131ff57600080fd5b6020830191508360208260051b850101111561321a57600080fd5b9250929050565b6000806000806040858703121561323757600080fd5b84356001600160401b038082111561324e57600080fd5b61325a888389016131d6565b9096509450602087013591508082111561327357600080fd5b50613280878288016131d6565b95989497509550505050565b600081518084526020808501945080840160005b838110156132bc578151875295820195908201906001016132a0565b509495945050505050565b602081526000611001602083018461328c565b6001600160a01b0381168114610fe557600080fd5b60008060006040848603121561330457600080fd5b83356001600160401b0381111561331a57600080fd5b613326868287016131d6565b909450925050602084013561333a816132da565b809150509250925092565b60006020828403121561335757600080fd5b8135613362816132da565b9392505050565b6000806040838503121561337c57600080fd5b8235613387816132da565b946020939093013593505050565b6000806000604084860312156133aa57600080fd5b83356133b5816132da565b925060208401356001600160401b038111156133d057600080fd5b6133dc868287016131d6565b9497909650939450505050565b600080602083850312156133fc57600080fd5b82356001600160401b0381111561341257600080fd5b61341e858286016131d6565b90969095509350505050565b60006020828403121561343c57600080fd5b5035919050565b6000806040838503121561345657600080fd5b8235613461816132da565b91506020830135613471816132da565b809150509250929050565b60008060006060848603121561349157600080fd5b833561349c816132da565b925060208401356134ac816132da565b929592945050506040919091013590565b6000806000606084860312156134d257600080fd5b83356134dd816132da565b95602085013595506040909401359392505050565b6001600160a01b0391909116815260200190565b60008060008060006060868803121561351e57600080fd5b85356001600160401b038082111561353557600080fd5b61354189838a016131d6565b9097509550602088013591508082111561355a57600080fd5b50613567888289016131d6565b96999598509660400135949350505050565b6001600160a01b039390931683526020830191909152604082015260600190565b6000806000604084860312156135af57600080fd5b83356001600160401b038111156135c557600080fd5b6135d1868287016131d6565b909790965060209590950135949350505050565b600080600080600060a086880312156135fd57600080fd5b8535613608816132da565b94506020860135613618816132da565b93506040860135613628816132da565b92506060860135613638816132da565b949793965091946080013592915050565b600080600080600060a0868803121561366157600080fd5b853561366c816132da565b97602087013597506040870135966060810135965060800135945092505050565b634e487b7160e01b600052604160045260246000fd5b634e487b7160e01b600052603260045260246000fd5b634e487b7160e01b600052601160045260246000fd5b6000600182016136e1576136e16136b9565b5060010190565b6020808252601f908201527f5265656e7472616e637947756172643a207265656e7472616e742063616c6c00604082015260600190565b60006020828403121561373157600080fd5b8151801515811461336257600080fd5b6001600160a01b03929092168252602082015260400190565b60006020828403121561376c57600080fd5b5051919050565b60208082526022908201527f48617350726f787941646d696e3a20756e617574686f72697a65642073656e6460408201526132b960f11b606082015260800190565b80820180821115611004576110046136b9565b81810381811115611004576110046136b9565b60208082528181018390526000908460408401835b8681101561381e578235613803816132da565b6001600160a01b0316825291830191908301906001016137f0565b509695505050505050565b8082028115828204841417611004576110046136b9565b60008261385d57634e487b7160e01b600052601260045260246000fd5b500490565b600081518084526020808501945080840160005b838110156132bc5781516001600160a01b031687529582019590820190600101613876565b6040815260006138ae6040830186613862565b82810360208401528381526001600160fb1b038411156138cd57600080fd5b8360051b808660208401370160200195945050505050565b6020815260006110016020830184613862565b60608152600061390b6060830186613862565b828103602084015261391d818661328c565b90508281036040840152613931818561328c565b969550505050505056fe0f5bb82176feb1b5e747e28471aa92156a04d9f3ab9f45f28e2d704232b93f75aa7c29611027fd4be148712bb54960253b7a7d5998c17769bfc424c2f5f185ada2646970667358221220bc6c01b7b360a07ad68428236e0f2ad27b2e686168d0907c1141a3336c536d1c64736f6c63430008110033",
  "devdoc": {
    "errors": {
      "ErrAdminOfAnyActivePoolForbidden(address)": [
        {
          "details": "Error of admin of any active pool cannot delegate."
        }
      ],
      "ErrCallerMustBeValidatorContract()": [
        {
          "details": "Error of method caller must be validator contract."
        }
      ],
      "ErrCannotInitTransferRON(address,string)": [
        {
          "details": "Error of cannot transfer RON to specified target."
        }
      ],
      "ErrCannotTransferRON()": [
        {
          "details": "Error of cannot transfer RON."
        }
      ],
      "ErrInactivePool(address)": [
        {
          "details": "Error of querying inactive pool."
        }
      ],
      "ErrInsufficientBalance()": [
        {
          "details": "Error of sender has insufficient balance."
        }
      ],
      "ErrInsufficientDelegatingAmount()": [
        {
          "details": "Error of undelegating insufficient amount."
        }
      ],
      "ErrInsufficientStakingAmount()": [
        {
          "details": "Error of insufficient staking amount for unstaking."
        }
      ],
      "ErrInvalidArrays()": [
        {
          "details": "Error of length of input arrays are not of the same."
        }
      ],
      "ErrInvalidCommissionRate()": [
        {
          "details": "Error of setting commission rate exceeds max allowed."
        }
      ],
      "ErrInvalidPoolShare()": [
        {
          "details": "Error of invalid pool share."
        }
      ],
      "ErrOnlyPoolAdminAllowed()": [
        {
          "details": "Error of no one is allowed to call but the pool's admin."
        }
      ],
      "ErrPoolAdminForbidden()": [
        {
          "details": "Error of pool admin is not allowed to call."
        }
      ],
      "ErrRecipientRevert()": [
        {
          "details": "Error of recipient not accepting RON when transfer RON."
        }
      ],
      "ErrStakingAmountLeft()": [
        {
          "details": "Error of invalid staking amount left after deducted."
        }
      ],
      "ErrThreeInteractionAddrsNotEqual()": [
        {
          "details": "Error of three interaction addresses must be of the same in applying for validator candidate."
        }
      ],
      "ErrThreeOperationAddrsNotDistinct()": [
        {
          "details": "Error of three operation addresses must be distinct in applying for validator candidate."
        }
      ],
      "ErrUndelegateTooEarly()": [
        {
          "details": "Error of undelegating too early."
        }
      ],
      "ErrUndelegateZeroAmount()": [
        {
          "details": "Error of undelegating zero amount."
        }
      ],
      "ErrUnstakeTooEarly()": [
        {
          "details": "Error of unstaking too early."
        }
      ],
      "ErrUnstakeZeroAmount()": [
        {
          "details": "Error of unstaking zero amount."
        }
      ],
      "ErrZeroCodeContract()": [
        {
          "details": "Error of set to non-contract."
        }
      ],
      "ErrZeroValue()": [
        {
          "details": "Error of receiving zero message value."
        }
      ]
    },
    "kind": "dev",
    "methods": {
      "applyValidatorCandidate(address,address,address,address,uint256)": {
        "details": "Proposes a candidate to become a validator. Requirements: - The method caller is able to receive RON. - The treasury is able to receive RON. - The amount is larger than or equal to the minimum validator staking amount `minValidatorStakingAmount()`. Emits the event `PoolApproved`.",
        "params": {
          "_candidateAdmin": "the candidate admin will be stored in the validator contract, used for calling function that affects to its candidate, e.g. scheduling maintenance."
        }
      },
      "bulkUndelegate(address[],uint256[])": {
        "details": "Bulk unstakes from a list of candidates. Requirements: - The method caller is not the pool admin. Emits the events `Undelegated`."
      },
      "claimRewards(address[])": {
        "details": "Claims the reward of method caller. Emits the `RewardClaimed` event."
      },
      "cooldownSecsToUndelegate()": {
        "details": "Returns The cooldown time in seconds to undelegate from the last timestamp (s)he delegated."
      },
      "delegate(address)": {
        "details": "Stakes for a validator candidate `_consensusAddr`. Requirements: - The consensus address is a validator candidate. - The method caller is not the pool admin. Emits the `Delegated` event."
      },
      "delegateRewards(address[],address)": {
        "details": "Claims the rewards and delegates them to the consensus address. Requirements: - The method caller is not the pool admin. - The consensus address `_consensusAddrDst` is a validator candidate. Emits the `RewardClaimed` event and the `Delegated` event."
      },
      "execDeductStakingAmount(address,uint256)": {
        "details": "Deducts from staking amount of the validator `_consensusAddr` for `_amount`. Requirements: - The method caller must be validator contract. Emits the event `Unstaked`."
      },
      "execDeprecatePools(address[],uint256)": {
        "details": "Deprecates the pool. - Deduct self-staking amount of the pool admin to zero. - Transfer the deducted amount to the pool admin. - Deactivate the pool admin address in the mapping of active pool admins Requirements: - The method caller is validator contract. Emits the event `PoolsDeprecated` and `Unstaked` events. Emits the event `StakingAmountTransferFailed` if the contract cannot transfer RON back to the pool admin."
      },
      "execRecordRewards(address[],uint256[],uint256)": {
        "details": "Records the amount of rewards `_rewards` for the pools `_consensusAddrs`. Requirements: - The method caller must be validator contract. Emits the event `PoolsUpdated` once the contract recorded the rewards successfully. Emits the event `PoolsUpdateFailed` once the input array lengths are not equal. Emits the event `PoolsUpdateConflicted` when there are some pools which already updated in the period. Note: This method should be called once at the period ending."
      },
      "getManySelfStakings(address[])": {
        "details": "Returns the self-staking amounts of the pools."
      },
      "getManyStakingAmounts(address[],address[])": {
        "details": "Returns the staking amounts of the users."
      },
      "getManyStakingTotals(address[])": {
        "details": "Returns the total staking amounts of all users for the pools `_poolAddrs`."
      },
      "getPoolAddressOf(address)": {
        "details": "Returns the consensus address corresponding to the pool admin."
      },
      "getPoolDetail(address)": {
        "details": "Returns the staking pool detail."
      },
      "getReward(address,address)": {
        "details": "Returns the reward amount that user claimable."
      },
      "getRewards(address,address[])": {
        "details": "Returns the claimable reward of the user `_user`."
      },
      "getStakingAmount(address,address)": {
        "details": "Returns the staking amount of an user."
      },
      "getStakingTotal(address)": {
        "details": "Returns the total staking amount of all users for a pool."
      },
      "initialize(address,uint256,uint256,uint256,uint256)": {
        "details": "Initializes the contract storage."
      },
      "isAdminOfActivePool(address)": {
        "details": "Returns whether the `_poolAdminAddr` is currently active."
      },
      "maxCommissionRate()": {
        "details": "Returns the max commission rate that the candidate can set."
      },
      "minValidatorStakingAmount()": {
        "details": "Returns the minimum threshold for being a validator candidate."
      },
      "redelegate(address,address,uint256)": {
        "details": "Unstakes an amount of RON from the `_consensusAddrSrc` and stake for `_consensusAddrDst`. Requirements: - The method caller is not the pool admin. - The consensus address `_consensusAddrDst` is a validator candidate. Emits the `Undelegated` event and the `Delegated` event."
      },
      "requestEmergencyExit(address)": {
        "details": "Renounces being a validator candidate and takes back the delegating/staking amount. Requirements: - The consensus address is a validator candidate. - The method caller is the pool admin."
      },
      "requestRenounce(address)": {
        "details": "Renounces being a validator candidate and takes back the delegating/staking amount. Requirements: - The consensus address is a validator candidate. - The method caller is the pool admin."
      },
      "requestUpdateCommissionRate(address,uint256,uint256)": {
        "details": "Pool admin requests update validator commission rate. The request will be forwarded to the candidate manager contract, and the value is getting updated in {ICandidateManager-execRequestUpdateCommissionRate}. Requirements: - The consensus address is a validator candidate. - The method caller is the pool admin. - The `_effectiveDaysOnwards` must be equal to or larger than the {CandidateManager-_minEffectiveDaysOnwards}. - The `_rate` must be in range of [0_00; 100_00]. Emits the event `CommissionRateUpdated`."
      },
      "setCooldownSecsToUndelegate(uint256)": {
        "details": "Sets the cooldown time in seconds to undelegate from the last timestamp (s)he delegated. Requirements: - The method caller is admin. Emits the event `CooldownSecsToUndelegateUpdated`."
      },
      "setMaxCommissionRate(uint256)": {
        "details": "Sets the max commission rate that a candidate can set. Requirements: - The method caller is admin. Emits the `MaxCommissionRateUpdated` event."
      },
      "setMinValidatorStakingAmount(uint256)": {
        "details": "Sets the minimum threshold for being a validator candidate. Requirements: - The method caller is admin. Emits the `MinValidatorStakingAmountUpdated` event."
      },
      "setValidatorContract(address)": {
        "details": "Sets the validator contract. Requirements: - The method caller is admin. - The new address is a contract. Emits the event `ValidatorContractUpdated`."
      },
      "setWaitingSecsToRevoke(uint256)": {
        "details": "Sets the number of seconds that a candidate must wait to be revoked. Requirements: - The method caller is admin. Emits the event `WaitingSecsToRevokeUpdated`."
      },
      "stake(address)": {
        "details": "Self-delegates to the validator candidate `_consensusAddr`. Requirements: - The consensus address is a validator candidate. - The method caller is the pool admin. - The `msg.value` is larger than 0. Emits the event `Staked`."
      },
      "undelegate(address,uint256)": {
        "details": "Unstakes from a validator candidate `_consensusAddr` for `_amount`. Requirements: - The method caller is not the pool admin. Emits the `Undelegated` event."
      },
      "unstake(address,uint256)": {
        "details": "Unstakes from the validator candidate `_consensusAddr` for `_amount`. Requirements: - The consensus address is a validator candidate. - The method caller is the pool admin. Emits the event `Unstaked`."
      },
      "validatorContract()": {
        "details": "Returns the validator contract."
      },
      "waitingSecsToRevoke()": {
        "details": "Returns the number of seconds that a candidate must wait for the renounce request gets affected."
      }
    },
    "version": 1
  },
  "userdoc": {
    "kind": "user",
    "methods": {},
    "version": 1
  },
  "storageLayout": {
    "storage": [
      {
        "astId": 1636,
        "contract": "contracts/ronin/staking/Staking.sol:Staking",
        "label": "_status",
        "offset": 0,
        "slot": "0",
        "type": "t_uint256"
      },
      {
        "astId": 29125,
        "contract": "contracts/ronin/staking/Staking.sol:Staking",
        "label": "_accumulatedRps",
        "offset": 0,
        "slot": "1",
        "type": "t_mapping(t_address,t_mapping(t_uint256,t_struct(PeriodWrapper)10552_storage))"
      },
      {
        "astId": 29133,
        "contract": "contracts/ronin/staking/Staking.sol:Staking",
        "label": "_userReward",
        "offset": 0,
        "slot": "2",
        "type": "t_mapping(t_address,t_mapping(t_address,t_struct(UserRewardFields)11326_storage))"
      },
      {
        "astId": 29139,
        "contract": "contracts/ronin/staking/Staking.sol:Staking",
        "label": "_stakingPool",
        "offset": 0,
        "slot": "3",
        "type": "t_mapping(t_address,t_struct(PoolFields)11332_storage)"
      },
      {
        "astId": 29144,
        "contract": "contracts/ronin/staking/Staking.sol:Staking",
        "label": "______gap",
        "offset": 0,
        "slot": "4",
        "type": "t_array(t_uint256)50_storage"
      },
      {
        "astId": 7051,
        "contract": "contracts/ronin/staking/Staking.sol:Staking",
        "label": "_validatorContract",
        "offset": 0,
        "slot": "54",
        "type": "t_contract(IRoninValidatorSet)11967"
      },
      {
        "astId": 27429,
        "contract": "contracts/ronin/staking/Staking.sol:Staking",
        "label": "_stakingPool",
        "offset": 0,
        "slot": "55",
        "type": "t_mapping(t_address,t_struct(PoolDetail)10939_storage)"
      },
      {
        "astId": 27432,
        "contract": "contracts/ronin/staking/Staking.sol:Staking",
        "label": "_cooldownSecsToUndelegate",
        "offset": 0,
        "slot": "56",
        "type": "t_uint256"
      },
      {
        "astId": 27435,
        "contract": "contracts/ronin/staking/Staking.sol:Staking",
        "label": "_waitingSecsToRevoke",
        "offset": 0,
        "slot": "57",
        "type": "t_uint256"
      },
      {
        "astId": 27440,
        "contract": "contracts/ronin/staking/Staking.sol:Staking",
        "label": "_adminOfActivePoolMapping",
        "offset": 0,
        "slot": "58",
        "type": "t_mapping(t_address,t_address)"
      },
      {
        "astId": 27445,
        "contract": "contracts/ronin/staking/Staking.sol:Staking",
        "label": "______gap",
        "offset": 0,
        "slot": "59",
        "type": "t_array(t_uint256)49_storage"
      },
      {
        "astId": 27881,
        "contract": "contracts/ronin/staking/Staking.sol:Staking",
        "label": "_minValidatorStakingAmount",
        "offset": 0,
        "slot": "108",
        "type": "t_uint256"
      },
      {
        "astId": 27884,
        "contract": "contracts/ronin/staking/Staking.sol:Staking",
        "label": "_maxCommissionRate",
        "offset": 0,
        "slot": "109",
        "type": "t_uint256"
      },
      {
        "astId": 27889,
        "contract": "contracts/ronin/staking/Staking.sol:Staking",
        "label": "______gap",
        "offset": 0,
        "slot": "110",
        "type": "t_array(t_uint256)49_storage"
      },
      {
        "astId": 28612,
        "contract": "contracts/ronin/staking/Staking.sol:Staking",
        "label": "______gap",
        "offset": 0,
        "slot": "159",
        "type": "t_array(t_uint256)50_storage"
      },
      {
        "astId": 1373,
        "contract": "contracts/ronin/staking/Staking.sol:Staking",
        "label": "_initialized",
        "offset": 0,
        "slot": "209",
        "type": "t_uint8"
      },
      {
        "astId": 1376,
        "contract": "contracts/ronin/staking/Staking.sol:Staking",
        "label": "_initializing",
        "offset": 1,
        "slot": "209",
        "type": "t_bool"
      }
    ],
    "types": {
      "t_address": {
        "encoding": "inplace",
        "label": "address",
        "numberOfBytes": "20"
      },
      "t_array(t_uint256)49_storage": {
        "base": "t_uint256",
        "encoding": "inplace",
        "label": "uint256[49]",
        "numberOfBytes": "1568"
      },
      "t_array(t_uint256)50_storage": {
        "base": "t_uint256",
        "encoding": "inplace",
        "label": "uint256[50]",
        "numberOfBytes": "1600"
      },
      "t_bool": {
        "encoding": "inplace",
        "label": "bool",
        "numberOfBytes": "1"
      },
      "t_contract(IRoninValidatorSet)11967": {
        "encoding": "inplace",
        "label": "contract IRoninValidatorSet",
        "numberOfBytes": "20"
      },
      "t_mapping(t_address,t_address)": {
        "encoding": "mapping",
        "key": "t_address",
        "label": "mapping(address => address)",
        "numberOfBytes": "32",
        "value": "t_address"
      },
      "t_mapping(t_address,t_mapping(t_address,t_struct(UserRewardFields)11326_storage))": {
        "encoding": "mapping",
        "key": "t_address",
        "label": "mapping(address => mapping(address => struct IRewardPool.UserRewardFields))",
        "numberOfBytes": "32",
        "value": "t_mapping(t_address,t_struct(UserRewardFields)11326_storage)"
      },
      "t_mapping(t_address,t_mapping(t_uint256,t_struct(PeriodWrapper)10552_storage))": {
        "encoding": "mapping",
        "key": "t_address",
        "label": "mapping(address => mapping(uint256 => struct PeriodWrapperConsumer.PeriodWrapper))",
        "numberOfBytes": "32",
        "value": "t_mapping(t_uint256,t_struct(PeriodWrapper)10552_storage)"
      },
      "t_mapping(t_address,t_struct(PoolDetail)10939_storage)": {
        "encoding": "mapping",
        "key": "t_address",
        "label": "mapping(address => struct IBaseStaking.PoolDetail)",
        "numberOfBytes": "32",
        "value": "t_struct(PoolDetail)10939_storage"
      },
      "t_mapping(t_address,t_struct(PoolFields)11332_storage)": {
        "encoding": "mapping",
        "key": "t_address",
        "label": "mapping(address => struct IRewardPool.PoolFields)",
        "numberOfBytes": "32",
        "value": "t_struct(PoolFields)11332_storage"
      },
      "t_mapping(t_address,t_struct(UserRewardFields)11326_storage)": {
        "encoding": "mapping",
        "key": "t_address",
        "label": "mapping(address => struct IRewardPool.UserRewardFields)",
        "numberOfBytes": "32",
        "value": "t_struct(UserRewardFields)11326_storage"
      },
      "t_mapping(t_address,t_uint256)": {
        "encoding": "mapping",
        "key": "t_address",
        "label": "mapping(address => uint256)",
        "numberOfBytes": "32",
        "value": "t_uint256"
      },
      "t_mapping(t_uint256,t_struct(PeriodWrapper)10552_storage)": {
        "encoding": "mapping",
        "key": "t_uint256",
        "label": "mapping(uint256 => struct PeriodWrapperConsumer.PeriodWrapper)",
        "numberOfBytes": "32",
        "value": "t_struct(PeriodWrapper)10552_storage"
      },
      "t_struct(PeriodWrapper)10552_storage": {
        "encoding": "inplace",
        "label": "struct PeriodWrapperConsumer.PeriodWrapper",
        "members": [
          {
            "astId": 10549,
            "contract": "contracts/ronin/staking/Staking.sol:Staking",
            "label": "inner",
            "offset": 0,
            "slot": "0",
            "type": "t_uint256"
          },
          {
            "astId": 10551,
            "contract": "contracts/ronin/staking/Staking.sol:Staking",
            "label": "lastPeriod",
            "offset": 0,
            "slot": "1",
            "type": "t_uint256"
          }
        ],
        "numberOfBytes": "64"
      },
      "t_struct(PoolDetail)10939_storage": {
        "encoding": "inplace",
        "label": "struct IBaseStaking.PoolDetail",
        "members": [
          {
            "astId": 10924,
            "contract": "contracts/ronin/staking/Staking.sol:Staking",
            "label": "addr",
            "offset": 0,
            "slot": "0",
            "type": "t_address"
          },
          {
            "astId": 10926,
            "contract": "contracts/ronin/staking/Staking.sol:Staking",
            "label": "admin",
            "offset": 0,
            "slot": "1",
            "type": "t_address"
          },
          {
            "astId": 10928,
            "contract": "contracts/ronin/staking/Staking.sol:Staking",
            "label": "stakingAmount",
            "offset": 0,
            "slot": "2",
            "type": "t_uint256"
          },
          {
            "astId": 10930,
            "contract": "contracts/ronin/staking/Staking.sol:Staking",
            "label": "stakingTotal",
            "offset": 0,
            "slot": "3",
            "type": "t_uint256"
          },
          {
            "astId": 10934,
            "contract": "contracts/ronin/staking/Staking.sol:Staking",
            "label": "delegatingAmount",
            "offset": 0,
            "slot": "4",
            "type": "t_mapping(t_address,t_uint256)"
          },
          {
            "astId": 10938,
            "contract": "contracts/ronin/staking/Staking.sol:Staking",
            "label": "lastDelegatingTimestamp",
            "offset": 0,
            "slot": "5",
            "type": "t_mapping(t_address,t_uint256)"
          }
        ],
        "numberOfBytes": "192"
      },
      "t_struct(PoolFields)11332_storage": {
        "encoding": "inplace",
        "label": "struct IRewardPool.PoolFields",
        "members": [
          {
            "astId": 11328,
            "contract": "contracts/ronin/staking/Staking.sol:Staking",
            "label": "aRps",
            "offset": 0,
            "slot": "0",
            "type": "t_uint256"
          },
          {
            "astId": 11331,
            "contract": "contracts/ronin/staking/Staking.sol:Staking",
            "label": "shares",
            "offset": 0,
            "slot": "1",
            "type": "t_struct(PeriodWrapper)10552_storage"
          }
        ],
        "numberOfBytes": "96"
      },
      "t_struct(UserRewardFields)11326_storage": {
        "encoding": "inplace",
        "label": "struct IRewardPool.UserRewardFields",
        "members": [
          {
            "astId": 11319,
            "contract": "contracts/ronin/staking/Staking.sol:Staking",
            "label": "debited",
            "offset": 0,
            "slot": "0",
            "type": "t_uint256"
          },
          {
            "astId": 11321,
            "contract": "contracts/ronin/staking/Staking.sol:Staking",
            "label": "aRps",
            "offset": 0,
            "slot": "1",
            "type": "t_uint256"
          },
          {
            "astId": 11323,
            "contract": "contracts/ronin/staking/Staking.sol:Staking",
            "label": "lowestAmount",
            "offset": 0,
            "slot": "2",
            "type": "t_uint256"
          },
          {
            "astId": 11325,
            "contract": "contracts/ronin/staking/Staking.sol:Staking",
            "label": "lastPeriod",
            "offset": 0,
            "slot": "3",
            "type": "t_uint256"
          }
        ],
        "numberOfBytes": "128"
      },
      "t_uint256": {
        "encoding": "inplace",
        "label": "uint256",
        "numberOfBytes": "32"
      },
      "t_uint8": {
        "encoding": "inplace",
        "label": "uint8",
        "numberOfBytes": "1"
      }
    }
  }
}