{
  "address": "0x8Ae952d538e9c25120e9c75FBA0718750f81313a",
  "abi": [
    {
      "inputs": [],
      "stateMutability": "nonpayable",
      "type": "constructor"
    },
    {
      "inputs": [
        {
          "internalType": "address",
          "name": "admin",
          "type": "address"
        }
      ],
      "name": "ErrAdminOfAnyActivePoolForbidden",
      "type": "error"
    },
    {
      "inputs": [
        {
          "internalType": "address",
          "name": "addr",
          "type": "address"
        },
        {
          "internalType": "string",
          "name": "extraInfo",
          "type": "string"
        }
      ],
      "name": "ErrCannotInitTransferRON",
      "type": "error"
    },
    {
      "inputs": [],
      "name": "ErrCannotTransferRON",
      "type": "error"
    },
    {
      "inputs": [
        {
          "internalType": "enum ContractType",
          "name": "contractType",
          "type": "uint8"
        }
      ],
      "name": "ErrContractTypeNotFound",
      "type": "error"
    },
    {
      "inputs": [
        {
          "internalType": "bytes4",
          "name": "msgSig",
          "type": "bytes4"
        }
      ],
      "name": "ErrDuplicated",
      "type": "error"
    },
    {
      "inputs": [
        {
          "internalType": "address",
          "name": "poolAddr",
          "type": "address"
        }
      ],
      "name": "ErrInactivePool",
      "type": "error"
    },
    {
      "inputs": [
        {
          "internalType": "bytes4",
          "name": "msgSig",
          "type": "bytes4"
        },
        {
          "internalType": "uint256",
          "name": "currentBalance",
          "type": "uint256"
        },
        {
          "internalType": "uint256",
          "name": "sendAmount",
          "type": "uint256"
        }
      ],
      "name": "ErrInsufficientBalance",
      "type": "error"
    },
    {
      "inputs": [],
      "name": "ErrInsufficientDelegatingAmount",
      "type": "error"
    },
    {
      "inputs": [],
      "name": "ErrInsufficientStakingAmount",
      "type": "error"
    },
    {
      "inputs": [],
      "name": "ErrInvalidArrays",
      "type": "error"
    },
    {
      "inputs": [],
      "name": "ErrInvalidCommissionRate",
      "type": "error"
    },
    {
      "inputs": [],
      "name": "ErrInvalidPoolShare",
      "type": "error"
    },
    {
      "inputs": [],
      "name": "ErrOnlyPoolAdminAllowed",
      "type": "error"
    },
    {
      "inputs": [],
      "name": "ErrPoolAdminForbidden",
      "type": "error"
    },
    {
      "inputs": [
        {
          "internalType": "bytes4",
          "name": "msgSig",
          "type": "bytes4"
        }
      ],
      "name": "ErrRecipientRevert",
      "type": "error"
    },
    {
      "inputs": [],
      "name": "ErrStakingAmountLeft",
      "type": "error"
    },
    {
      "inputs": [],
      "name": "ErrThreeInteractionAddrsNotEqual",
      "type": "error"
    },
    {
      "inputs": [
        {
          "internalType": "bytes4",
          "name": "msgSig",
          "type": "bytes4"
        },
        {
          "internalType": "enum RoleAccess",
          "name": "expectedRole",
          "type": "uint8"
        }
      ],
      "name": "ErrUnauthorized",
      "type": "error"
    },
    {
      "inputs": [],
      "name": "ErrUndelegateTooEarly",
      "type": "error"
    },
    {
      "inputs": [],
      "name": "ErrUndelegateZeroAmount",
      "type": "error"
    },
    {
      "inputs": [
        {
          "internalType": "bytes4",
          "name": "msgSig",
          "type": "bytes4"
        },
        {
          "internalType": "enum ContractType",
          "name": "expectedContractType",
          "type": "uint8"
        },
        {
          "internalType": "address",
          "name": "actual",
          "type": "address"
        }
      ],
      "name": "ErrUnexpectedInternalCall",
      "type": "error"
    },
    {
      "inputs": [],
      "name": "ErrUnstakeTooEarly",
      "type": "error"
    },
    {
      "inputs": [],
      "name": "ErrUnstakeZeroAmount",
      "type": "error"
    },
    {
      "inputs": [
        {
          "internalType": "address",
          "name": "addr",
          "type": "address"
        }
      ],
      "name": "ErrZeroCodeContract",
      "type": "error"
    },
    {
      "inputs": [],
      "name": "ErrZeroValue",
      "type": "error"
    },
    {
      "anonymous": false,
      "inputs": [
        {
          "indexed": false,
          "internalType": "uint256",
          "name": "minRate",
          "type": "uint256"
        },
        {
          "indexed": false,
          "internalType": "uint256",
          "name": "maxRate",
          "type": "uint256"
        }
      ],
      "name": "CommissionRateRangeUpdated",
      "type": "event"
    },
    {
      "anonymous": false,
      "inputs": [
        {
          "indexed": true,
          "internalType": "enum ContractType",
          "name": "contractType",
          "type": "uint8"
        },
        {
          "indexed": true,
          "internalType": "address",
          "name": "addr",
          "type": "address"
        }
      ],
      "name": "ContractUpdated",
      "type": "event"
    },
    {
      "anonymous": false,
      "inputs": [
        {
          "indexed": false,
          "internalType": "uint256",
          "name": "minSecs",
          "type": "uint256"
        }
      ],
      "name": "CooldownSecsToUndelegateUpdated",
      "type": "event"
    },
    {
      "anonymous": false,
      "inputs": [
        {
          "indexed": true,
          "internalType": "address",
          "name": "delegator",
          "type": "address"
        },
        {
          "indexed": true,
          "internalType": "address",
          "name": "consensuAddr",
          "type": "address"
        },
        {
          "indexed": false,
          "internalType": "uint256",
          "name": "amount",
          "type": "uint256"
        }
      ],
      "name": "Delegated",
      "type": "event"
    },
    {
      "anonymous": false,
      "inputs": [
        {
          "indexed": false,
          "internalType": "uint8",
          "name": "version",
          "type": "uint8"
        }
      ],
      "name": "Initialized",
      "type": "event"
    },
    {
      "anonymous": false,
      "inputs": [
        {
          "indexed": false,
          "internalType": "uint256",
          "name": "threshold",
          "type": "uint256"
        }
      ],
      "name": "MinValidatorStakingAmountUpdated",
      "type": "event"
    },
    {
      "anonymous": false,
      "inputs": [
        {
          "indexed": true,
          "internalType": "address",
          "name": "validator",
          "type": "address"
        },
        {
          "indexed": true,
          "internalType": "address",
          "name": "admin",
          "type": "address"
        }
      ],
      "name": "PoolApproved",
      "type": "event"
    },
    {
      "anonymous": false,
      "inputs": [
        {
          "indexed": true,
          "internalType": "uint256",
          "name": "period",
          "type": "uint256"
        },
        {
          "indexed": true,
          "internalType": "address",
          "name": "poolAddr",
          "type": "address"
        },
        {
          "indexed": false,
          "internalType": "uint256",
          "name": "shares",
          "type": "uint256"
        }
      ],
      "name": "PoolSharesUpdated",
      "type": "event"
    },
    {
      "anonymous": false,
      "inputs": [
        {
          "indexed": false,
          "internalType": "address[]",
          "name": "validator",
          "type": "address[]"
        }
      ],
      "name": "PoolsDeprecated",
      "type": "event"
    },
    {
      "anonymous": false,
      "inputs": [
        {
          "indexed": true,
          "internalType": "uint256",
          "name": "period",
          "type": "uint256"
        },
        {
          "indexed": false,
          "internalType": "address[]",
          "name": "poolAddrs",
          "type": "address[]"
        }
      ],
      "name": "PoolsUpdateConflicted",
      "type": "event"
    },
    {
      "anonymous": false,
      "inputs": [
        {
          "indexed": true,
          "internalType": "uint256",
          "name": "period",
          "type": "uint256"
        },
        {
          "indexed": false,
          "internalType": "address[]",
          "name": "poolAddrs",
          "type": "address[]"
        },
        {
          "indexed": false,
          "internalType": "uint256[]",
          "name": "rewards",
          "type": "uint256[]"
        }
      ],
      "name": "PoolsUpdateFailed",
      "type": "event"
    },
    {
      "anonymous": false,
      "inputs": [
        {
          "indexed": true,
          "internalType": "uint256",
          "name": "period",
          "type": "uint256"
        },
        {
          "indexed": false,
          "internalType": "address[]",
          "name": "poolAddrs",
          "type": "address[]"
        },
        {
          "indexed": false,
          "internalType": "uint256[]",
          "name": "aRps",
          "type": "uint256[]"
        },
        {
          "indexed": false,
          "internalType": "uint256[]",
          "name": "shares",
          "type": "uint256[]"
        }
      ],
      "name": "PoolsUpdated",
      "type": "event"
    },
    {
      "anonymous": false,
      "inputs": [
        {
          "indexed": true,
          "internalType": "address",
          "name": "poolAddr",
          "type": "address"
        },
        {
          "indexed": true,
          "internalType": "address",
          "name": "user",
          "type": "address"
        },
        {
          "indexed": false,
          "internalType": "uint256",
          "name": "amount",
          "type": "uint256"
        }
      ],
      "name": "RewardClaimed",
      "type": "event"
    },
    {
      "anonymous": false,
      "inputs": [
        {
          "indexed": true,
          "internalType": "address",
          "name": "consensuAddr",
          "type": "address"
        },
        {
          "indexed": false,
          "internalType": "uint256",
          "name": "amount",
          "type": "uint256"
        }
      ],
      "name": "Staked",
      "type": "event"
    },
    {
      "anonymous": false,
      "inputs": [
        {
          "indexed": true,
          "internalType": "address",
          "name": "validator",
          "type": "address"
        },
        {
          "indexed": true,
          "internalType": "address",
          "name": "recipient",
          "type": "address"
        },
        {
          "indexed": false,
          "internalType": "uint256",
          "name": "amount",
          "type": "uint256"
        },
        {
          "indexed": false,
          "internalType": "uint256",
          "name": "contractBalance",
          "type": "uint256"
        }
      ],
      "name": "StakingAmountDeductFailed",
      "type": "event"
    },
    {
      "anonymous": false,
      "inputs": [
        {
          "indexed": true,
          "internalType": "address",
          "name": "validator",
          "type": "address"
        },
        {
          "indexed": true,
          "internalType": "address",
          "name": "admin",
          "type": "address"
        },
        {
          "indexed": false,
          "internalType": "uint256",
          "name": "amount",
          "type": "uint256"
        },
        {
          "indexed": false,
          "internalType": "uint256",
          "name": "contractBalance",
          "type": "uint256"
        }
      ],
      "name": "StakingAmountTransferFailed",
      "type": "event"
    },
    {
      "anonymous": false,
      "inputs": [
        {
          "indexed": true,
          "internalType": "address",
          "name": "delegator",
          "type": "address"
        },
        {
          "indexed": true,
          "internalType": "address",
          "name": "consensuAddr",
          "type": "address"
        },
        {
          "indexed": false,
          "internalType": "uint256",
          "name": "amount",
          "type": "uint256"
        }
      ],
      "name": "Undelegated",
      "type": "event"
    },
    {
      "anonymous": false,
      "inputs": [
        {
          "indexed": true,
          "internalType": "address",
          "name": "consensuAddr",
          "type": "address"
        },
        {
          "indexed": false,
          "internalType": "uint256",
          "name": "amount",
          "type": "uint256"
        }
      ],
      "name": "Unstaked",
      "type": "event"
    },
    {
      "anonymous": false,
      "inputs": [
        {
          "indexed": true,
          "internalType": "address",
          "name": "poolAddr",
          "type": "address"
        },
        {
          "indexed": true,
          "internalType": "address",
          "name": "user",
          "type": "address"
        },
        {
          "indexed": false,
          "internalType": "uint256",
          "name": "debited",
          "type": "uint256"
        }
      ],
      "name": "UserRewardUpdated",
      "type": "event"
    },
    {
      "anonymous": false,
      "inputs": [
        {
          "indexed": false,
          "internalType": "uint256",
          "name": "secs",
          "type": "uint256"
        }
      ],
      "name": "WaitingSecsToRevokeUpdated",
      "type": "event"
    },
    {
      "stateMutability": "payable",
      "type": "fallback"
    },
    {
      "inputs": [],
      "name": "DEFAULT_ADDITION_GAS",
      "outputs": [
        {
          "internalType": "uint256",
          "name": "",
          "type": "uint256"
        }
      ],
      "stateMutability": "view",
      "type": "function"
    },
    {
      "inputs": [],
      "name": "PERIOD_DURATION",
      "outputs": [
        {
          "internalType": "uint256",
          "name": "",
          "type": "uint256"
        }
      ],
      "stateMutability": "view",
      "type": "function"
    },
    {
      "inputs": [
        {
          "internalType": "address",
          "name": "_candidateAdmin",
          "type": "address"
        },
        {
          "internalType": "address",
          "name": "_consensusAddr",
          "type": "address"
        },
        {
          "internalType": "address payable",
          "name": "_treasuryAddr",
          "type": "address"
        },
        {
          "internalType": "uint256",
          "name": "_commissionRate",
          "type": "uint256"
        }
      ],
      "name": "applyValidatorCandidate",
      "outputs": [],
      "stateMutability": "payable",
      "type": "function"
    },
    {
      "inputs": [
        {
          "internalType": "address[]",
          "name": "_consensusAddrs",
          "type": "address[]"
        },
        {
          "internalType": "uint256[]",
          "name": "_amounts",
          "type": "uint256[]"
        }
      ],
      "name": "bulkUndelegate",
      "outputs": [],
      "stateMutability": "nonpayable",
      "type": "function"
    },
    {
      "inputs": [
        {
          "internalType": "address[]",
          "name": "_consensusAddrList",
          "type": "address[]"
        }
      ],
      "name": "claimRewards",
      "outputs": [
        {
          "internalType": "uint256",
          "name": "_amount",
          "type": "uint256"
        }
      ],
      "stateMutability": "nonpayable",
      "type": "function"
    },
    {
      "inputs": [],
      "name": "cooldownSecsToUndelegate",
      "outputs": [
        {
          "internalType": "uint256",
          "name": "",
          "type": "uint256"
        }
      ],
      "stateMutability": "view",
      "type": "function"
    },
    {
      "inputs": [
        {
          "internalType": "address",
          "name": "_consensusAddr",
          "type": "address"
        }
      ],
      "name": "delegate",
      "outputs": [],
      "stateMutability": "payable",
      "type": "function"
    },
    {
      "inputs": [
        {
          "internalType": "address[]",
          "name": "_consensusAddrList",
          "type": "address[]"
        },
        {
          "internalType": "address",
          "name": "_consensusAddrDst",
          "type": "address"
        }
      ],
      "name": "delegateRewards",
      "outputs": [
        {
          "internalType": "uint256",
          "name": "_amount",
          "type": "uint256"
        }
      ],
      "stateMutability": "nonpayable",
      "type": "function"
    },
    {
      "inputs": [
        {
          "internalType": "address",
          "name": "_consensusAddr",
          "type": "address"
        },
        {
          "internalType": "uint256",
          "name": "_amount",
          "type": "uint256"
        }
      ],
      "name": "execDeductStakingAmount",
      "outputs": [
        {
          "internalType": "uint256",
          "name": "_actualDeductingAmount",
          "type": "uint256"
        }
      ],
      "stateMutability": "nonpayable",
      "type": "function"
    },
    {
      "inputs": [
        {
          "internalType": "address[]",
          "name": "_pools",
          "type": "address[]"
        },
        {
          "internalType": "uint256",
          "name": "_newPeriod",
          "type": "uint256"
        }
      ],
      "name": "execDeprecatePools",
      "outputs": [],
      "stateMutability": "nonpayable",
      "type": "function"
    },
    {
      "inputs": [
        {
          "internalType": "address[]",
          "name": "_consensusAddrs",
          "type": "address[]"
        },
        {
          "internalType": "uint256[]",
          "name": "_rewards",
          "type": "uint256[]"
        },
        {
          "internalType": "uint256",
          "name": "_period",
          "type": "uint256"
        }
      ],
      "name": "execRecordRewards",
      "outputs": [],
      "stateMutability": "payable",
      "type": "function"
    },
    {
      "inputs": [],
      "name": "getCommissionRateRange",
      "outputs": [
        {
          "internalType": "uint256",
          "name": "",
          "type": "uint256"
        },
        {
          "internalType": "uint256",
          "name": "",
          "type": "uint256"
        }
      ],
      "stateMutability": "view",
      "type": "function"
    },
    {
      "inputs": [
        {
          "internalType": "enum ContractType",
          "name": "contractType",
          "type": "uint8"
        }
      ],
      "name": "getContract",
      "outputs": [
        {
          "internalType": "address",
          "name": "contract_",
          "type": "address"
        }
      ],
      "stateMutability": "view",
      "type": "function"
    },
    {
      "inputs": [
        {
          "internalType": "address[]",
          "name": "_pools",
          "type": "address[]"
        }
      ],
      "name": "getManySelfStakings",
      "outputs": [
        {
          "internalType": "uint256[]",
          "name": "_selfStakings",
          "type": "uint256[]"
        }
      ],
      "stateMutability": "view",
      "type": "function"
    },
    {
      "inputs": [
        {
          "internalType": "address[]",
          "name": "_poolAddrs",
          "type": "address[]"
        },
        {
          "internalType": "address[]",
          "name": "_userList",
          "type": "address[]"
        }
      ],
      "name": "getManyStakingAmounts",
      "outputs": [
        {
          "internalType": "uint256[]",
          "name": "_stakingAmounts",
          "type": "uint256[]"
        }
      ],
      "stateMutability": "view",
      "type": "function"
    },
    {
      "inputs": [
        {
          "internalType": "address[]",
          "name": "_poolList",
          "type": "address[]"
        }
      ],
      "name": "getManyStakingTotals",
      "outputs": [
        {
          "internalType": "uint256[]",
          "name": "_stakingAmounts",
          "type": "uint256[]"
        }
      ],
      "stateMutability": "view",
      "type": "function"
    },
    {
      "inputs": [
        {
          "internalType": "address",
          "name": "_poolAdminAddr",
          "type": "address"
        }
      ],
      "name": "getPoolAddressOf",
      "outputs": [
        {
          "internalType": "address",
          "name": "",
          "type": "address"
        }
      ],
      "stateMutability": "view",
      "type": "function"
    },
    {
      "inputs": [
        {
          "internalType": "address",
          "name": "_poolAddr",
          "type": "address"
        }
      ],
      "name": "getPoolDetail",
      "outputs": [
        {
          "internalType": "address",
          "name": "_admin",
          "type": "address"
        },
        {
          "internalType": "uint256",
          "name": "_stakingAmount",
          "type": "uint256"
        },
        {
          "internalType": "uint256",
          "name": "_stakingTotal",
          "type": "uint256"
        }
      ],
      "stateMutability": "view",
      "type": "function"
    },
    {
      "inputs": [
        {
          "internalType": "address",
          "name": "_poolAddr",
          "type": "address"
        },
        {
          "internalType": "address",
          "name": "_user",
          "type": "address"
        }
      ],
      "name": "getReward",
      "outputs": [
        {
          "internalType": "uint256",
          "name": "",
          "type": "uint256"
        }
      ],
      "stateMutability": "view",
      "type": "function"
    },
    {
      "inputs": [
        {
          "internalType": "address",
          "name": "_user",
          "type": "address"
        },
        {
          "internalType": "address[]",
          "name": "_poolAddrList",
          "type": "address[]"
        }
      ],
      "name": "getRewards",
      "outputs": [
        {
          "internalType": "uint256[]",
          "name": "_rewards",
          "type": "uint256[]"
        }
      ],
      "stateMutability": "view",
      "type": "function"
    },
    {
      "inputs": [
        {
          "internalType": "address",
          "name": "_poolAddr",
          "type": "address"
        },
        {
          "internalType": "address",
          "name": "_user",
          "type": "address"
        }
      ],
      "name": "getStakingAmount",
      "outputs": [
        {
          "internalType": "uint256",
          "name": "",
          "type": "uint256"
        }
      ],
      "stateMutability": "view",
      "type": "function"
    },
    {
      "inputs": [
        {
          "internalType": "address",
          "name": "_poolAddr",
          "type": "address"
        }
      ],
      "name": "getStakingTotal",
      "outputs": [
        {
          "internalType": "uint256",
          "name": "",
          "type": "uint256"
        }
      ],
      "stateMutability": "view",
      "type": "function"
    },
    {
      "inputs": [
        {
          "internalType": "address",
          "name": "__validatorContract",
          "type": "address"
        },
        {
          "internalType": "uint256",
          "name": "__minValidatorStakingAmount",
          "type": "uint256"
        },
        {
          "internalType": "uint256",
          "name": "__maxCommissionRate",
          "type": "uint256"
        },
        {
          "internalType": "uint256",
          "name": "__cooldownSecsToUndelegate",
          "type": "uint256"
        },
        {
          "internalType": "uint256",
          "name": "__waitingSecsToRevoke",
          "type": "uint256"
        }
      ],
      "name": "initialize",
      "outputs": [],
      "stateMutability": "nonpayable",
      "type": "function"
    },
    {
      "inputs": [],
      "name": "initializeV2",
      "outputs": [],
      "stateMutability": "nonpayable",
      "type": "function"
    },
    {
      "inputs": [
        {
          "internalType": "address",
          "name": "_poolAdminAddr",
          "type": "address"
        }
      ],
      "name": "isAdminOfActivePool",
      "outputs": [
        {
          "internalType": "bool",
          "name": "",
          "type": "bool"
        }
      ],
      "stateMutability": "view",
      "type": "function"
    },
    {
      "inputs": [],
      "name": "minValidatorStakingAmount",
      "outputs": [
        {
          "internalType": "uint256",
          "name": "",
          "type": "uint256"
        }
      ],
      "stateMutability": "view",
      "type": "function"
    },
    {
      "inputs": [
        {
          "internalType": "address",
          "name": "_consensusAddrSrc",
          "type": "address"
        },
        {
          "internalType": "address",
          "name": "_consensusAddrDst",
          "type": "address"
        },
        {
          "internalType": "uint256",
          "name": "_amount",
          "type": "uint256"
        }
      ],
      "name": "redelegate",
      "outputs": [],
      "stateMutability": "nonpayable",
      "type": "function"
    },
    {
      "inputs": [
        {
          "internalType": "address",
          "name": "_consensusAddr",
          "type": "address"
        }
      ],
      "name": "requestEmergencyExit",
      "outputs": [],
      "stateMutability": "nonpayable",
      "type": "function"
    },
    {
      "inputs": [
        {
          "internalType": "address",
          "name": "_consensusAddr",
          "type": "address"
        }
      ],
      "name": "requestRenounce",
      "outputs": [],
      "stateMutability": "nonpayable",
      "type": "function"
    },
    {
      "inputs": [
        {
          "internalType": "address",
          "name": "_consensusAddr",
          "type": "address"
        },
        {
          "internalType": "uint256",
          "name": "_effectiveDaysOnwards",
          "type": "uint256"
        },
        {
          "internalType": "uint256",
          "name": "_commissionRate",
          "type": "uint256"
        }
      ],
      "name": "requestUpdateCommissionRate",
      "outputs": [],
      "stateMutability": "nonpayable",
      "type": "function"
    },
    {
      "inputs": [
        {
          "internalType": "uint256",
          "name": "_minRate",
          "type": "uint256"
        },
        {
          "internalType": "uint256",
          "name": "_maxRate",
          "type": "uint256"
        }
      ],
      "name": "setCommissionRateRange",
      "outputs": [],
      "stateMutability": "nonpayable",
      "type": "function"
    },
    {
      "inputs": [
        {
          "internalType": "enum ContractType",
          "name": "contractType",
          "type": "uint8"
        },
        {
          "internalType": "address",
          "name": "addr",
          "type": "address"
        }
      ],
      "name": "setContract",
      "outputs": [],
      "stateMutability": "nonpayable",
      "type": "function"
    },
    {
      "inputs": [
        {
          "internalType": "uint256",
          "name": "_cooldownSecs",
          "type": "uint256"
        }
      ],
      "name": "setCooldownSecsToUndelegate",
      "outputs": [],
      "stateMutability": "nonpayable",
      "type": "function"
    },
    {
      "inputs": [
        {
          "internalType": "uint256",
          "name": "_threshold",
          "type": "uint256"
        }
      ],
      "name": "setMinValidatorStakingAmount",
      "outputs": [],
      "stateMutability": "nonpayable",
      "type": "function"
    },
    {
      "inputs": [
        {
          "internalType": "uint256",
          "name": "_secs",
          "type": "uint256"
        }
      ],
      "name": "setWaitingSecsToRevoke",
      "outputs": [],
      "stateMutability": "nonpayable",
      "type": "function"
    },
    {
      "inputs": [
        {
          "internalType": "address",
          "name": "_consensusAddr",
          "type": "address"
        }
      ],
      "name": "stake",
      "outputs": [],
      "stateMutability": "payable",
      "type": "function"
    },
    {
      "inputs": [
        {
          "internalType": "address",
          "name": "_candidateAdmin",
          "type": "address"
        },
        {
          "internalType": "address",
          "name": "_consensusAddr",
          "type": "address"
        },
        {
          "internalType": "address payable",
          "name": "_treasuryAddr",
          "type": "address"
        },
        {
          "internalType": "uint256",
          "name": "_commissionRate",
          "type": "uint256"
        }
      ],
      "name": "tmp_re_applyValidatorCandidate",
      "outputs": [],
      "stateMutability": "nonpayable",
      "type": "function"
    },
    {
      "inputs": [
        {
          "internalType": "address",
          "name": "_consensusAddr",
          "type": "address"
        },
        {
          "internalType": "uint256",
          "name": "_amount",
          "type": "uint256"
        }
      ],
      "name": "undelegate",
      "outputs": [],
      "stateMutability": "nonpayable",
      "type": "function"
    },
    {
      "inputs": [
        {
          "internalType": "address",
          "name": "_consensusAddr",
          "type": "address"
        },
        {
          "internalType": "uint256",
          "name": "_amount",
          "type": "uint256"
        }
      ],
      "name": "unstake",
      "outputs": [],
      "stateMutability": "nonpayable",
      "type": "function"
    },
    {
      "inputs": [],
      "name": "waitingSecsToRevoke",
      "outputs": [
        {
          "internalType": "uint256",
          "name": "",
          "type": "uint256"
        }
      ],
      "stateMutability": "view",
      "type": "function"
    },
    {
      "stateMutability": "payable",
      "type": "receive"
    }
  ],
  "transactionHash": "0xf995b41bfa786b6d7cb3c982b95b31f642776ab0a5d6ea385554ed9416105f66",
  "args": [],
  "numDeployments": 3,
  "solcInputHash": "0e13282b1de32a862f3ea9c3dc0543e9",
  "bytecode": "0x60806040523480156200001157600080fd5b5060016000556200002162000027565b620000e9565b60d154610100900460ff1615620000945760405162461bcd60e51b815260206004820152602760248201527f496e697469616c697a61626c653a20636f6e747261637420697320696e697469604482015266616c697a696e6760c81b606482015260840160405180910390fd5b60d15460ff9081161015620000e75760d1805460ff191660ff9081179091556040519081527f7f26b83ff96e1f2b6a682f133852f6798a09c465da95921460cefb38474024989060200160405180910390a15b565b6139b880620000f96000396000f3fe60806040526004361061023f5760003560e01c80636bd8f8041161012e578063aa15a6fd116100ab578063d01b8eed1161006f578063d01b8eed146106e6578063de981f1b14610757578063e22d1c9d14610777578063f92ad21914610797578063f9f031df146107b757610251565b8063aa15a6fd1461062d578063acd79c461461064d578063af24542914610660578063c2a672e014610675578063c50870031461069557610251565b8063909791dd116100f2578063909791dd1461059857806391f8723f146105ad578063924f081e146105cd5780639488e4e9146105ed578063969ffc141461060d57610251565b80636bd8f804146104df57806376664b65146104ff578063865e6fd31461051f578063888b9ae91461053f578063895ab7421461055f57610251565b806342e0c408116101bc5780635c19a95c116101805780635c19a95c146104605780635cd8a76b146104735780636558954f14610488578063679a6e431461049f5780636b091695146104bf57610251565b806342e0c4081461038d57806342ef3c34146103d85780634530d202146103f85780634d99dd1614610420578063574734471461044057610251565b80631658c86e116102035780631658c86e1461030757806326476204146103275780632715805e1461033a5780632baae1251461035a5780633d8e846e1461036d57610251565b8063038278841461025c5780630682e8fa14610285578063095f64751461029a578063097e4a9d146102c75780630dccaf46146102e757610251565b3661025157600861024f816107d7565b005b600861024f816107d7565b34801561026857600080fd5b506102726104b081565b6040519081526020015b60405180910390f35b34801561029157600080fd5b50603854610272565b3480156102a657600080fd5b506102ba6102b5366004613102565b61082f565b60405161027c91906131a8565b3480156102d357600080fd5b506102726102e23660046131d0565b610967565b3480156102f357600080fd5b5061024f610302366004613226565b6109ed565b34801561031357600080fd5b5061024f610322366004613277565b610af0565b61024f610335366004613277565b610b60565b34801561034657600080fd5b5061027261035536600461329b565b610b99565b61024f610368366004613226565b610c2a565b34801561037957600080fd5b506102ba6103883660046132c7565b610d78565b34801561039957600080fd5b506103c86103a8366004613277565b6001600160a01b039081166000908152603a602052604090205416151590565b604051901515815260200161027c565b3480156103e457600080fd5b506102ba6103f336600461331b565b610ea6565b34801561040457600080fd5b50606e54606d546040805192835260208301919091520161027c565b34801561042c57600080fd5b5061024f61043b36600461329b565b610f72565b34801561044c57600080fd5b5061024f61045b36600461335c565b610fee565b61024f61046e366004613277565b611000565b34801561047f57600080fd5b5061024f61106e565b34801561049457600080fd5b506102726201518081565b3480156104ab57600080fd5b5061024f6104ba36600461337e565b61112d565b3480156104cb57600080fd5b506102726104da366004613397565b61113e565b3480156104eb57600080fd5b5061024f6104fa3660046133d0565b611160565b34801561050b57600080fd5b5061027261051a366004613397565b6111e5565b34801561052b57600080fd5b5061024f61053a366004613420565b611214565b34801561054b57600080fd5b5061024f61055a36600461337e565b61122f565b34801561056b57600080fd5b5061027261057a366004613277565b6001600160a01b031660009081526037602052604090206003015490565b3480156105a457600080fd5b50606c54610272565b3480156105b957600080fd5b506102ba6105c836600461331b565b611240565b3480156105d957600080fd5b5061024f6105e836600461343c565b6112e0565b3480156105f957600080fd5b5061024f610608366004613102565b6113ba565b34801561061957600080fd5b5061024f61062836600461337e565b6114e9565b34801561063957600080fd5b5061024f610648366004613277565b6114fa565b61024f61065b366004613471565b61156a565b34801561066c57600080fd5b50603954610272565b34801561068157600080fd5b5061024f61069036600461329b565b6115be565b3480156106a157600080fd5b506106ce6106b0366004613277565b6001600160a01b039081166000908152603a60205260409020541690565b6040516001600160a01b03909116815260200161027c565b3480156106f257600080fd5b50610732610701366004613277565b6001600160a01b03808216600090815260376020526040902060018101546002820154600390920154921693909250565b604080516001600160a01b03909416845260208401929092529082015260600161027c565b34801561076357600080fd5b506106ce6107723660046134e4565b611678565b34801561078357600080fd5b5061024f6107923660046134ff565b6116f3565b3480156107a357600080fd5b5061024f6107b236600461354a565b6118b7565b3480156107c357600080fd5b506102726107d236600461331b565b6119ae565b6107e081611678565b6001600160a01b0316336001600160a01b03161461082c576000356001600160e01b03191681336040516320e0f98d60e21b8152600401610823939291906135b8565b60405180910390fd5b50565b6060838214610851576040516376081a7b60e11b815260040160405180910390fd5b836001600160401b03811115610869576108696135ef565b604051908082528060200260200182016040528015610892578160200160208202803683370190505b50905060005b815181101561095e57603760008787848181106108b7576108b7613605565b90506020020160208101906108cc9190613277565b6001600160a01b03166001600160a01b03168152602001908152602001600020600401600085858481811061090357610903613605565b90506020020160208101906109189190613277565b6001600160a01b03166001600160a01b031681526020019081526020016000205482828151811061094b5761094b613605565b6020908102919091010152600101610898565b50949350505050565b600060026000540361098b5760405162461bcd60e51b81526004016108239061361b565b60026000558161099a81611a2e565b336000908152603a60205260409020546001600160a01b0316156109d357604051632fc6bfb160e21b8152336004820152602401610823565b6109df33868686611acc565b600160005595945050505050565b466107e514610a235760405162461bcd60e51b8152602060048201526002602482015261453160f01b6044820152606401610823565b7357832a94810e18c84a5a5e2c4dd67d012ade574f3314610a6b5760405162461bcd60e51b8152602060048201526002602482015261229960f11b6044820152606401610823565b610a756008611678565b60405163f883afaf60e01b81526001600160a01b0386811660048301528581166024830152848116604483015260648201849052919091169063f883afaf906084015b600060405180830381600087803b158015610ad257600080fd5b505af1158015610ae6573d6000803e3d6000fd5b5050505050505050565b80610afa81611a2e565b6001600160a01b038216600090815260376020526040902033610b1d8282611b39565b610b276008611678565b60395460405163dd716ad360e01b81526001600160a01b038781166004830152602482019290925291169063dd716ad390604401610ab8565b610b68611b69565b80610b7281611a2e565b6001600160a01b0382166000908152603760205260409020610b95903334611b8c565b5050565b60006008610ba6816107d7565b6001600160a01b0384166000908152603760205260409020610bc89084611c37565b915033610bd58184611cd4565b610c2257604080518481524760208201526001600160a01b0380841692908816917f63701cd972aa3c7f87898aab145c972e52185beab07d6e39380a998d334cf6c8910160405180910390a35b505092915050565b600260005403610c4c5760405162461bcd60e51b81526004016108239061361b565b60026000908155338152603a60205260409020546001600160a01b031615610c8957604051632fc6bfb160e21b8152336004820152602401610823565b606d54811180610c9a5750606e5481105b15610cb857604051631b8454a360e21b815260040160405180910390fd5b3433610cc8818787878787611d30565b6001600160a01b0380861660008181526037602081815260408084206001810180549789166001600160a01b0319988916811790915581548816871782558552603a835290842080549096168517909555929091529052610d2a818385611b8c565b816001600160a01b0316866001600160a01b03167ffc1f1e73948cbc47c5b7f90e5601b7daccd9ad7173218486ccc74bdd051d05e860405160405180910390a3505060016000555050505050565b6060600080610d876008611678565b6001600160a01b031663060406186040518163ffffffff1660e01b8152600401602060405180830381865afa158015610dc4573d6000803e3d6000fd5b505050506040513d601f19601f82011682018060405250810190610de89190613652565b9050836001600160401b03811115610e0257610e026135ef565b604051908082528060200260200182016040528015610e2b578160200160208202803683370190505b50925060005b84811015610e9c57858582818110610e4b57610e4b613605565b9050602002016020810190610e609190613277565b9250610e77838884610e72878c6111e5565b611f64565b848281518110610e8957610e89613605565b6020908102919091010152600101610e31565b5050509392505050565b6060816001600160401b03811115610ec057610ec06135ef565b604051908082528060200260200182016040528015610ee9578160200160208202803683370190505b50905060005b82811015610f6b5760376000858584818110610f0d57610f0d613605565b9050602002016020810190610f229190613277565b6001600160a01b03166001600160a01b0316815260200190815260200160002060020154828281518110610f5857610f58613605565b6020908102919091010152600101610eef565b5092915050565b600260005403610f945760405162461bcd60e51b81526004016108239061361b565b600260009081556001600160a01b03831681526037602052604090203390610fbd908284612060565b610fc78183612298565b610fe457604051635ff7115760e11b815260040160405180910390fd5b5050600160005550565b610ff66122e0565b610b95828261233a565b611008611b69565b8061101281611a2e565b336000908152603a60205260409020546001600160a01b03161561104b57604051632fc6bfb160e21b8152336004820152602401610823565b6001600160a01b0382166000908152603760205260409020610b959033346123ae565b60d154600290610100900460ff16158015611090575060d15460ff8083169116105b6110ac5760405162461bcd60e51b81526004016108239061366b565b60d1805461ffff191660ff8316176101001790556036546110d8906008906001600160a01b031661245d565b603680546001600160a01b031916905560d1805461ff001916905560405160ff821681527f7f26b83ff96e1f2b6a682f133852f6798a09c465da95921460cefb3847402498906020015b60405180910390a150565b6111356122e0565b61082c81612501565b6000611157838361114d612536565b610e7287876111e5565b90505b92915050565b6002600054036111825760405162461bcd60e51b81526004016108239061361b565b60026000558161119181611a2e565b6001600160a01b038416600090815260376020526040902033906111b6908285612060565b6001600160a01b03841660009081526037602052604090206111d99082856123ae565b50506001600055505050565b6001600160a01b0391821660009081526037602090815260408083209390941682526004909201909152205490565b61121c6122e0565b611225816125a8565b610b95828261245d565b6112376122e0565b61082c816125de565b6060816001600160401b0381111561125a5761125a6135ef565b604051908082528060200260200182016040528015611283578160200160208202803683370190505b50905060005b82811015610f6b576112bb8484838181106112a6576112a6613605565b905060200201602081019061057a9190613277565b8282815181106112cd576112cd613605565b6020908102919091010152600101611289565b826112ea81611a2e565b6001600160a01b03841660009081526037602052604090203361130d8282611b39565b606d5484118061131e5750606e5484105b1561133c57604051631b8454a360e21b815260040160405180910390fd5b6113466008611678565b60405163e5125a1d60e01b81526001600160a01b0388811660048301526024820188905260448201879052919091169063e5125a1d906064015b600060405180830381600087803b15801561139a57600080fd5b505af11580156113ae573d6000803e3d6000fd5b50505050505050505050565b6002600054036113dc5760405162461bcd60e51b81526004016108239061361b565b60026000558215806113ee5750828114155b1561140c576040516376081a7b60e11b815260040160405180910390fd5b336000805b858110156114b45784848281811061142b5761142b613605565b905060200201358261143d91906136cf565b91506114ac6037600089898581811061145857611458613605565b905060200201602081019061146d9190613277565b6001600160a01b03166001600160a01b03168152602001908152602001600020848787858181106114a0576114a0613605565b90506020020135612060565b600101611411565b506114bf8282612298565b6114dc57604051635ff7115760e11b815260040160405180910390fd5b5050600160005550505050565b6114f16122e0565b61082c81612613565b8061150481611a2e565b6001600160a01b0382166000908152603760205260409020336115278282611b39565b6115316008611678565b60395460405163a7c2f11960e01b81526001600160a01b038781166004830152602482019290925291169063a7c2f11990604401610ab8565b6008611575816107d7565b6115b6868680806020026020016040519081016040528093929190818152602001838360200280828437600092019190915250889250879150869050612648565b505050505050565b6002600054036115e05760405162461bcd60e51b81526004016108239061361b565b6002600055816115ef81611a2e565b81600003611610576040516331d9f7d760e01b815260040160405180910390fd5b6001600160a01b0383166000908152603760205260408120600281015433929061163b9086906136e2565b9050606c548110156116605760405163ef0a995760e01b815260040160405180910390fd5b61166b828487612a76565b6114bf83866104b0612b62565b60007fdea3103d22025c269050bea94c0c84688877f12fa22b7e6d2d5d78a9a49aa1cb600083600f8111156116af576116af61358e565b60ff1681526020810191909152604001600020546001600160a01b03169050806116ee578160405163409140df60e11b815260040161082391906136f5565b919050565b60086116fe816107d7565b82156118b15760005b838110156118765760006037600087878581811061172757611727613605565b905060200201602081019061173c9190613277565b6001600160a01b0390811682526020808301939093526040918201600090812060018101549092168152603a909352912080546001600160a01b031916905560028101549091508015611803576117938282611c37565b5060018201546117af906001600160a01b0316826104b0612b62565b6118035760018201548254604080518481524760208201526001600160a01b0393841693909216917f7dc5115a5aba081f5a174f56a3d02eea582824783322a4ac03f7bd388f444194910160405180910390a35b600061184388888681811061181a5761181a613605565b905060200201602081019061182f9190613277565b60018501546001600160a01b031688612bc2565b90508015611868576001830154611866906001600160a01b0316826104b0612b62565b505b836001019350505050611707565b507f4f257d3ba23679d338f1d94296086bba5724af341b7fa31aa0ff297bfcdc62d884846040516118a8929190613703565b60405180910390a15b50505050565b60d154610100900460ff16158080156118d7575060d154600160ff909116105b806118f15750303b1580156118f1575060d15460ff166001145b61190d5760405162461bcd60e51b81526004016108239061366b565b60d1805460ff1916600117905580156119305760d1805461ff0019166101001790555b61193b60088761245d565b61194485612501565b61194f60008561233a565b611958836125de565b61196182612613565b80156115b65760d1805461ff0019169055604051600181527f7f26b83ff96e1f2b6a682f133852f6798a09c465da95921460cefb38474024989060200160405180910390a1505050505050565b60006002600054036119d25760405162461bcd60e51b81526004016108239061361b565b6002600081905550611a1733848480806020026020016040519081016040528093929190818152602001838360200280828437600092019190915250612cd492505050565b9050611a233382612d25565b600160005592915050565b611a386008611678565b604051635061f96960e11b81526001600160a01b038381166004830152919091169063a0c3f2d290602401602060405180830381865afa158015611a80573d6000803e3d6000fd5b505050506040513d601f19601f82011682018060405250810190611aa49190613751565b61082c57604051630fd0c64560e11b81526001600160a01b0382166004820152602401610823565b6000611b0b85858580806020026020016040519081016040528093929190818152602001838360200280828437600092019190915250612cd492505050565b6001600160a01b0383166000908152603760205260409020909150611b319086836123ae565b949350505050565b60018201546001600160a01b03828116911614610b9557604051637bc65bd760e11b815260040160405180910390fd5b34600003611b8a57604051636dfcbde560e11b815260040160405180910390fd5b565b8282611b988282611b39565b82856002016000828254611bac91906136cf565b92505081905550611bd285858760020154868960030154611bcd91906136cf565b612d5a565b6001600160a01b03808516600090815260058701602052604090819020429055865490519116907f9e71bc8eea02a63969f509818f2dafb9254532904319f9dbda79b67bd34a5f3d90611c289086815260200190565b60405180910390a25050505050565b6000611c47836002015483612d95565b905080836002016000828254611c5d91906136e2565b9091555050600183015460028401546003850154611c8d9286926001600160a01b0390911691611bcd9086612dab565b82546040518281526001600160a01b03909116907f0f5bb82176feb1b5e747e28471aa92156a04d9f3ab9f45f28e2d704232b93f759060200160405180910390a292915050565b6000826001600160a01b03168260405160006040518083038185875af1925050503d8060008114611d21576040519150601f19603f3d011682016040523d82523d6000602084013e611d26565b606091505b5090949350505050565b611d3e8660006104b0612b62565b611d89576040805163338f030160e01b81526001600160a01b03881660048201526024810191909152600a6044820152693837b7b61030b236b4b760b11b6064820152608401610823565b611d978360006104b0612b62565b611de0576040805163338f030160e01b81526001600160a01b038516600482015260248101919091526008604482015267747265617375727960c01b6064820152608401610823565b606c54811015611e0357604051630a8d7fa760e21b815260040160405180910390fd5b846001600160a01b0316866001600160a01b0316141580611e365750826001600160a01b0316856001600160a01b031614155b15611e545760405163dc1d04ff60e01b815260040160405180910390fd5b6040805160028082526060820183526000926020830190803683370190505090508681600081518110611e8957611e89613605565b60200260200101906001600160a01b031690816001600160a01b0316815250508481600181518110611ebd57611ebd613605565b60200260200101906001600160a01b031690816001600160a01b031681525050611ee681612dc5565b15611f1257604051630d697db160e11b81526001600160e01b0319600035166004820152602401610823565b50611f1d6008611678565b60405163f883afaf60e01b81526001600160a01b0387811660048301528681166024830152858116604483015260648201859052919091169063f883afaf90608401611380565b6001600160a01b03808516600090815260026020908152604080832093871683529290529081206003810154849003611f9f57549050611b31565b6001600160a01b0386166000908152600360208181526040808420600180845282862094870154865293909252832091820154839290156120045780546001860154909450611fee90856136e2565b8560020154611ffd9190613773565b925061200c565b846001015493505b815460009061201c9086906136e2565b6120269089613773565b9050670de0b6b3a764000061203b82866136cf565b612045919061378a565b865461205191906136cf565b9b9a5050505050505050505050565b828261206c8282612e64565b8260000361208d57604051637ab0c6ad60e11b815260040160405180910390fd5b6001600160a01b03841660009081526004860160205260409020548311156120c857604051630695534560e31b815260040160405180910390fd5b60006120d46008611678565b8654604051635061f96960e11b81526001600160a01b03918216600482015291925082169063a0c3f2d290602401602060405180830381865afa15801561211f573d6000803e3d6000fd5b505050506040513d601f19601f820116820180604052508101906121439190613751565b80156121bd575085546040516328bde1e160e01b81526001600160a01b039182166004820152908216906328bde1e19060240160e060405180830381865afa158015612193573d6000803e3d6000fd5b505050506040513d601f19601f820116820180604052508101906121b791906137b7565b60a00151155b80156121f057506038546001600160a01b038616600090815260058801602052604090205442916121ed916136cf565b10155b1561220e5760405163f19f52bd60e01b815260040160405180910390fd5b6001600160a01b038516600090815260048701602052604090205461224c908790879061223c9088906136e2565b878a60030154611bcd91906136e2565b85546040518581526001600160a01b03918216918716907f4d10bd049775c77bd7f255195afba5088028ecb3c7c277d393ccff7934f2f92c9060200160405180910390a3505050505050565b6000814710156122d6576040516302631c4f60e61b81526001600160e01b031960003516600482015247602482015260448101839052606401610823565b6111578383611cd4565b7fb53127684a568b3173ae13b9f8a6016e243e63b6e8ee1178d6a717850b5d6103546001600160a01b03163314611b8a576000356001600160e01b0319166001604051620f948f60ea1b8152600401610823929190613862565b61271081118061234957508082115b1561236757604051631b8454a360e21b815260040160405180910390fd5b606d819055606e82905560408051838152602081018390527f677752f5bf9541b14288833909e5ec5a478103131c1ec08c4638943be5826c14910160405180910390a15050565b82826123ba8282612e64565b6001600160a01b03841660009081526004860160205260409020546123f890869086906123e89087906136cf565b868960030154611bcd91906136cf565b6001600160a01b03808516600081815260058801602052604090819020429055875490519216917fe5541a6b6103d4fa7e021ed54fad39c66f27a76bd13d374cf6240ae6bd0bb72b9061244e9087815260200190565b60405180910390a35050505050565b807fdea3103d22025c269050bea94c0c84688877f12fa22b7e6d2d5d78a9a49aa1cb600084600f8111156124935761249361358e565b60ff168152602081019190915260400160002080546001600160a01b0319166001600160a01b03928316179055811682600f8111156124d4576124d461358e565b6040517f865d1c228a8ea13709cfe61f346f7ff67f1bbd4a18ff31ad3e7147350d317c5990600090a35050565b606c8190556040518181527f372bbdb8d72373b0012f84ee5a11671e5fb72b8bea902ebca93a19cb45d32be290602001611122565b60006125426008611678565b6001600160a01b031663060406186040518163ffffffff1660e01b8152600401602060405180830381865afa15801561257f573d6000803e3d6000fd5b505050506040513d601f19601f820116820180604052508101906125a39190613652565b905090565b806001600160a01b03163b60000361082c57604051630bfc64a360e21b81526001600160a01b0382166004820152602401610823565b60388190556040518181527f4956b65267b8f1e642284bcb5037116c69a9c78d9ca576beeae0974737a4872a90602001611122565b60398190556040518181527f02be0b73b597f2c0f138aebee162b3b0e25d5b5a26854c15dcf79176e9a1c67890602001611122565b8351821461269157807fae52c603227f64e4c6101dde593aa9790a16b3ac77546bd746d758511e9560a5858585604051612684939291906138c9565b60405180910390a26118b1565b600080600080600088516001600160401b038111156126b2576126b26135ef565b6040519080825280602002602001820160405280156126db578160200160208202803683370190505b509050600089516001600160401b038111156126f9576126f96135ef565b604051908082528060200260200182016040528015612722578160200160208202803683370190505b50905060008a516001600160401b03811115612740576127406135ef565b604051908082528060200260200182016040528015612769578160200160208202803683370190505b50905060005b8b518110156129dc578b818151811061278a5761278a613605565b6020908102919091018101516001600160a01b038116600090815260038084526040808320603790955290912001549097506001600160a01b03881660009081526001602081815260408084208f855290915290912001549096508a900361282b57868389806001019a508151811061280557612805613605565b60200260200101906001600160a01b031690816001600160a01b031681525050506129ca565b60028101548a111561285957604080518082019091528681526020018a905260018101869055600281018a90555b6001810154156128a35760018101548c8c8481811061287a5761287a613605565b90506020020135670de0b6b3a76400006128949190613773565b61289e919061378a565b6128a6565b60005b9850888160000160008282546128bc91906136cf565b91829055509050856128ce8a856136e2565b815181106128de576128de613605565b6020026020010181815250506040518060400160405280826000015481526020018b81525060016000896001600160a01b03166001600160a01b0316815260200190815260200160002060008c81526020019081526020016000206000820151816000015560208201518160010155905050858160010160000181905550806001016000015484898461297191906136e2565b8151811061298157612981613605565b6020908102919091010152868d6129988a856136e2565b815181106129a8576129a8613605565b60200260200101906001600160a01b031690816001600160a01b031681525050505b806129d481613913565b91505061276f565b508515612a2557858152858b51038b52877fee74f10cc50bf4b7e57fd36be7d46288795f3a9151dae97505b718b392ba14a382604051612a1c919061392c565b60405180910390a25b8a5115612a6957877f0e54e0485f70f0f63bc25889ddbf01ce1269ad6f07fdb2df573a0fbdb4d66f888c8585604051612a609392919061393f565b60405180910390a25b5050505050505050505050565b8282612a828282611b39565b8460020154831115612aa757604051630a8d7fa760e21b815260040160405180910390fd5b6038546001600160a01b03851660009081526005870160205260409020544291612ad0916136cf565b1115612aef576040516303db082960e11b815260040160405180910390fd5b82856002016000828254612b0391906136e2565b92505081905550612b2485858760020154868960030154611bcd91906136e2565b84546040518481526001600160a01b03909116907f0f5bb82176feb1b5e747e28471aa92156a04d9f3ab9f45f28e2d704232b93f7590602001611c28565b6000836001600160a01b0316838390604051600060405180830381858888f193505050503d8060008114612bb2576040519150601f19603f3d011682016040523d82523d6000602084013e612bb7565b606091505b509095945050505050565b600080612bcf85856111e5565b9050612bdd85858584611f64565b9150836001600160a01b0316856001600160a01b03167f0aa4d283470c904c551d18bb894d37e17674920f3261a7f854be501e25f421b784604051612c2491815260200190565b60405180910390a36001600160a01b03808616600081815260026020908152604080832094891683529381528382208281559282526003905291909120612c6e9082868580612e94565b60038181018590556001600160a01b03878116600081815260209384526040808220546001870155519081529188169290917faa7c29611027fd4be148712bb54960253b7a7d5998c17769bfc424c2f5f185ad910160405180910390a350509392505050565b600080612cdf612536565b905060005b8351811015610c2257612d11848281518110612d0257612d02613605565b60200260200101518684612bc2565b612d1b90846136cf565b9250600101612ce4565b612d2f8282612298565b610b95576040516303b97b7760e41b81526001600160e01b0319600035166004820152602401610823565b8354612d70906001600160a01b03168484612f26565b60038401556001600160a01b0390911660009081526004909201602052604090912055565b6000818310612da45781611157565b5090919050565b6000818311612dbb576000611157565b61115782846136e2565b60008151600003612dd857506000919050565b60005b6001835103811015612e5b57600181015b8351811015612e5257838181518110612e0757612e07613605565b60200260200101516001600160a01b0316848381518110612e2a57612e2a613605565b60200260200101516001600160a01b031603612e4a575060019392505050565b600101612dec565b50600101612ddb565b50600092915050565b60018201546001600160a01b03808316911603610b9557604051639feb934760e01b815260040160405180910390fd5b8284600301541015612ea857600284018190555b6000612eb8856002015484612d95565b90506000818660020154612ecc91906136e2565b90508015612f1d57600286018290556001870154811115612f00576040516352e521bf60e11b815260040160405180910390fd5b80876001016000016000828254612f1791906136e2565b90915550505b50505050505050565b6000612f30612536565b6001600160a01b0385166000908152600360205260409020600181015460028201549293509091831115612fa4576040518060400160405280612f8b886001600160a01b031660009081526037602052604090206003015490565b8152602090810185905281516001850155015160028301555b6001600160a01b038087166000908152600260209081526040808320938916835292905290812090612fd688886111e5565b90506000612fe689898885611f64565b83549091508114613038578083556040518181526001600160a01b0389811691908b16907faa7c29611027fd4be148712bb54960253b7a7d5998c17769bfc424c2f5f185ad9060200160405180910390a35b6130458584888a86612e94565b84546001808501919091556003840187905585015484146130ac57886001600160a01b0316867f81faf50e2aaf52eaba2ab841071efb9f6f0850a3e7d008b1336e6001d3d4963c87600101600001546040516130a391815260200190565b60405180910390a35b505050505050505050565b60008083601f8401126130c957600080fd5b5081356001600160401b038111156130e057600080fd5b6020830191508360208260051b85010111156130fb57600080fd5b9250929050565b6000806000806040858703121561311857600080fd5b84356001600160401b038082111561312f57600080fd5b61313b888389016130b7565b9096509450602087013591508082111561315457600080fd5b50613161878288016130b7565b95989497509550505050565b600081518084526020808501945080840160005b8381101561319d57815187529582019590820190600101613181565b509495945050505050565b602081526000611157602083018461316d565b6001600160a01b038116811461082c57600080fd5b6000806000604084860312156131e557600080fd5b83356001600160401b038111156131fb57600080fd5b613207868287016130b7565b909450925050602084013561321b816131bb565b809150509250925092565b6000806000806080858703121561323c57600080fd5b8435613247816131bb565b93506020850135613257816131bb565b92506040850135613267816131bb565b9396929550929360600135925050565b60006020828403121561328957600080fd5b8135613294816131bb565b9392505050565b600080604083850312156132ae57600080fd5b82356132b9816131bb565b946020939093013593505050565b6000806000604084860312156132dc57600080fd5b83356132e7816131bb565b925060208401356001600160401b0381111561330257600080fd5b61330e868287016130b7565b9497909650939450505050565b6000806020838503121561332e57600080fd5b82356001600160401b0381111561334457600080fd5b613350858286016130b7565b90969095509350505050565b6000806040838503121561336f57600080fd5b50508035926020909101359150565b60006020828403121561339057600080fd5b5035919050565b600080604083850312156133aa57600080fd5b82356133b5816131bb565b915060208301356133c5816131bb565b809150509250929050565b6000806000606084860312156133e557600080fd5b83356133f0816131bb565b92506020840135613400816131bb565b929592945050506040919091013590565b8035601081106116ee57600080fd5b6000806040838503121561343357600080fd5b6133b583613411565b60008060006060848603121561345157600080fd5b833561345c816131bb565b95602085013595506040909401359392505050565b60008060008060006060868803121561348957600080fd5b85356001600160401b03808211156134a057600080fd5b6134ac89838a016130b7565b909750955060208801359150808211156134c557600080fd5b506134d2888289016130b7565b96999598509660400135949350505050565b6000602082840312156134f657600080fd5b61115782613411565b60008060006040848603121561351457600080fd5b83356001600160401b0381111561352a57600080fd5b613536868287016130b7565b909790965060209590950135949350505050565b600080600080600060a0868803121561356257600080fd5b853561356d816131bb565b97602087013597506040870135966060810135965060800135945092505050565b634e487b7160e01b600052602160045260246000fd5b601081106135b4576135b461358e565b9052565b6001600160e01b031984168152606081016135d660208301856135a4565b6001600160a01b03929092166040919091015292915050565b634e487b7160e01b600052604160045260246000fd5b634e487b7160e01b600052603260045260246000fd5b6020808252601f908201527f5265656e7472616e637947756172643a207265656e7472616e742063616c6c00604082015260600190565b60006020828403121561366457600080fd5b5051919050565b6020808252602e908201527f496e697469616c697a61626c653a20636f6e747261637420697320616c72656160408201526d191e481a5b9a5d1a585b1a5e995960921b606082015260800190565b634e487b7160e01b600052601160045260246000fd5b8082018082111561115a5761115a6136b9565b8181038181111561115a5761115a6136b9565b6020810161115a82846135a4565b60208082528181018390526000908460408401835b8681101561374657823561372b816131bb565b6001600160a01b031682529183019190830190600101613718565b509695505050505050565b60006020828403121561376357600080fd5b8151801515811461329457600080fd5b808202811582820484141761115a5761115a6136b9565b6000826137a757634e487b7160e01b600052601260045260246000fd5b500490565b80516116ee816131bb565b600060e082840312156137c957600080fd5b60405160e081018181106001600160401b03821117156137f957634e487b7160e01b600052604160045260246000fd5b604052613805836137ac565b8152613813602084016137ac565b6020820152613824604084016137ac565b6040820152613835606084016137ac565b60608201526080830151608082015260a083015160a082015260c083015160c08201528091505092915050565b6001600160e01b03198316815260408101600b83106138835761388361358e565b8260208301529392505050565b600081518084526020808501945080840160005b8381101561319d5781516001600160a01b0316875295820195908201906001016138a4565b6040815260006138dc6040830186613890565b82810360208401528381526001600160fb1b038411156138fb57600080fd5b8360051b808660208401370160200195945050505050565b600060018201613925576139256136b9565b5060010190565b6020815260006111576020830184613890565b6060815260006139526060830186613890565b8281036020840152613964818661316d565b90508281036040840152613978818561316d565b969550505050505056fea26469706673582212207f5f44f90636203e47ed66d68d89757d8550e32bf28d21dd0cbada492905742f64736f6c63430008110033",
  "devdoc": {
    "errors": {
      "ErrAdminOfAnyActivePoolForbidden(address)": [
        {
          "details": "Error of admin of any active pool cannot delegate."
        }
      ],
      "ErrCannotInitTransferRON(address,string)": [
        {
          "details": "Error of cannot transfer RON to specified target."
        }
      ],
      "ErrCannotTransferRON()": [
        {
          "details": "Error of cannot transfer RON."
        }
      ],
      "ErrContractTypeNotFound(uint8)": [
        {
          "details": "Error of invalid role."
        }
      ],
      "ErrDuplicated(bytes4)": [
        {
          "details": "Error thrown when a duplicated element is detected in an array.",
          "params": {
            "msgSig": "The function signature that invoke the error."
          }
        }
      ],
      "ErrInactivePool(address)": [
        {
          "details": "Error of querying inactive pool."
        }
      ],
      "ErrInsufficientBalance(bytes4,uint256,uint256)": [
        {
          "details": "Error of sender has insufficient balance."
        }
      ],
      "ErrInsufficientDelegatingAmount()": [
        {
          "details": "Error of undelegating insufficient amount."
        }
      ],
      "ErrInsufficientStakingAmount()": [
        {
          "details": "Error of insufficient staking amount for unstaking."
        }
      ],
      "ErrInvalidArrays()": [
        {
          "details": "Error of length of input arrays are not of the same."
        }
      ],
      "ErrInvalidCommissionRate()": [
        {
          "details": "Error of setting commission rate exceeds max allowed."
        }
      ],
      "ErrInvalidPoolShare()": [
        {
          "details": "Error of invalid pool share."
        }
      ],
      "ErrOnlyPoolAdminAllowed()": [
        {
          "details": "Error of no one is allowed to call but the pool's admin."
        }
      ],
      "ErrPoolAdminForbidden()": [
        {
          "details": "Error of pool admin is not allowed to call."
        }
      ],
      "ErrRecipientRevert(bytes4)": [
        {
          "details": "Error of recipient not accepting RON when transfer RON."
        }
      ],
      "ErrStakingAmountLeft()": [
        {
          "details": "Error of invalid staking amount left after deducted."
        }
      ],
      "ErrThreeInteractionAddrsNotEqual()": [
        {
          "details": "Error of three interaction addresses must be of the same in applying for validator candidate."
        }
      ],
      "ErrUnauthorized(bytes4,uint8)": [
        {
          "details": "Error indicating that the caller is unauthorized to perform a specific function.",
          "params": {
            "expectedRole": "The role required to perform the function.",
            "msgSig": "The function signature (bytes4) that the caller is unauthorized to perform."
          }
        }
      ],
      "ErrUndelegateTooEarly()": [
        {
          "details": "Error of undelegating too early."
        }
      ],
      "ErrUndelegateZeroAmount()": [
        {
          "details": "Error of undelegating zero amount."
        }
      ],
      "ErrUnexpectedInternalCall(bytes4,uint8,address)": [
        {
          "details": "Error indicating that the caller is unauthorized to perform a specific function.",
          "params": {
            "actual": "The actual address that called to the function.",
            "expectedContractType": "The contract type required to perform the function.",
            "msgSig": "The function signature (bytes4)."
          }
        }
      ],
      "ErrUnstakeTooEarly()": [
        {
          "details": "Error of unstaking too early."
        }
      ],
      "ErrUnstakeZeroAmount()": [
        {
          "details": "Error of unstaking zero amount."
        }
      ],
      "ErrZeroCodeContract(address)": [
        {
          "details": "Error of set to non-contract."
        }
      ],
      "ErrZeroValue()": [
        {
          "details": "Error of receiving zero message value."
        }
      ]
    },
    "kind": "dev",
    "methods": {
      "applyValidatorCandidate(address,address,address,uint256)": {
        "details": "Proposes a candidate to become a validator. Requirements: - The method caller is able to receive RON. - The treasury is able to receive RON. - The amount is larger than or equal to the minimum validator staking amount `minValidatorStakingAmount()`. Emits the event `PoolApproved`.",
        "params": {
          "_candidateAdmin": "the candidate admin will be stored in the validator contract, used for calling function that affects to its candidate, e.g. scheduling maintenance."
        }
      },
      "bulkUndelegate(address[],uint256[])": {
        "details": "Bulk unstakes from a list of candidates. Requirements: - The method caller is not the pool admin. Emits the events `Undelegated`."
      },
      "claimRewards(address[])": {
        "details": "Claims the reward of method caller. Emits the `RewardClaimed` event."
      },
      "cooldownSecsToUndelegate()": {
        "details": "Returns The cooldown time in seconds to undelegate from the last timestamp (s)he delegated."
      },
      "delegate(address)": {
        "details": "Stakes for a validator candidate `_consensusAddr`. Requirements: - The consensus address is a validator candidate. - The method caller is not the pool admin. Emits the `Delegated` event."
      },
      "delegateRewards(address[],address)": {
        "details": "Claims the rewards and delegates them to the consensus address. Requirements: - The method caller is not the pool admin. - The consensus address `_consensusAddrDst` is a validator candidate. Emits the `RewardClaimed` event and the `Delegated` event."
      },
      "execDeductStakingAmount(address,uint256)": {
        "details": "Deducts from staking amount of the validator `_consensusAddr` for `_amount`. Requirements: - The method caller must be validator contract. Emits the event `Unstaked`."
      },
      "execDeprecatePools(address[],uint256)": {
        "details": "Deprecates the pool. - Deduct self-staking amount of the pool admin to zero. - Transfer the deducted amount to the pool admin. - Deactivate the pool admin address in the mapping of active pool admins Requirements: - The method caller is validator contract. Emits the event `PoolsDeprecated` and `Unstaked` events. Emits the event `StakingAmountTransferFailed` if the contract cannot transfer RON back to the pool admin."
      },
      "execRecordRewards(address[],uint256[],uint256)": {
        "details": "Records the amount of rewards `_rewards` for the pools `_consensusAddrs`. Requirements: - The method caller must be validator contract. Emits the event `PoolsUpdated` once the contract recorded the rewards successfully. Emits the event `PoolsUpdateFailed` once the input array lengths are not equal. Emits the event `PoolsUpdateConflicted` when there are some pools which already updated in the period. Note: This method should be called once at the period ending."
      },
      "getCommissionRateRange()": {
        "details": "Returns the commission rate range that the candidate can set."
      },
      "getContract(uint8)": {
        "details": "Returns the address of a contract with a specific role. Throws an error if no contract is set for the specified role.",
        "params": {
          "contractType": "The role of the contract to retrieve."
        },
        "returns": {
          "contract_": "The address of the contract with the specified role."
        }
      },
      "getManySelfStakings(address[])": {
        "details": "Returns the self-staking amounts of the pools."
      },
      "getManyStakingAmounts(address[],address[])": {
        "details": "Returns the staking amounts of the users."
      },
      "getManyStakingTotals(address[])": {
        "details": "Returns the total staking amounts of all users for the pools `_poolAddrs`."
      },
      "getPoolAddressOf(address)": {
        "details": "Returns the consensus address corresponding to the pool admin."
      },
      "getPoolDetail(address)": {
        "details": "Returns the staking pool detail."
      },
      "getReward(address,address)": {
        "details": "Returns the reward amount that user claimable."
      },
      "getRewards(address,address[])": {
        "details": "Returns the claimable reward of the user `_user`."
      },
      "getStakingAmount(address,address)": {
        "details": "Returns the staking amount of an user."
      },
      "getStakingTotal(address)": {
        "details": "Returns the total staking amount of all users for a pool."
      },
      "initialize(address,uint256,uint256,uint256,uint256)": {
        "details": "Initializes the contract storage."
      },
      "isAdminOfActivePool(address)": {
        "details": "Returns whether the `_poolAdminAddr` is currently active."
      },
      "minValidatorStakingAmount()": {
        "details": "Returns the minimum threshold for being a validator candidate."
      },
      "redelegate(address,address,uint256)": {
        "details": "Unstakes an amount of RON from the `_consensusAddrSrc` and stake for `_consensusAddrDst`. Requirements: - The method caller is not the pool admin. - The consensus address `_consensusAddrDst` is a validator candidate. Emits the `Undelegated` event and the `Delegated` event."
      },
      "requestEmergencyExit(address)": {
        "details": "Renounces being a validator candidate and takes back the delegating/staking amount. Requirements: - The consensus address is a validator candidate. - The method caller is the pool admin."
      },
      "requestRenounce(address)": {
        "details": "Renounces being a validator candidate and takes back the delegating/staking amount. Requirements: - The consensus address is a validator candidate. - The method caller is the pool admin."
      },
      "requestUpdateCommissionRate(address,uint256,uint256)": {
        "details": "Pool admin requests update validator commission rate. The request will be forwarded to the candidate manager contract, and the value is getting updated in {ICandidateManager-execRequestUpdateCommissionRate}. Requirements: - The consensus address is a validator candidate. - The method caller is the pool admin. - The `_effectiveDaysOnwards` must be equal to or larger than the {CandidateManager-_minEffectiveDaysOnwards}. - The `_rate` must be in range of [0_00; 100_00]. Emits the event `CommissionRateUpdated`."
      },
      "setCommissionRateRange(uint256,uint256)": {
        "details": "Sets the commission rate range that a candidate can set. Requirements: - The method caller is admin. Emits the `CommissionRateRangeUpdated` event."
      },
      "setContract(uint8,address)": {
        "details": "Sets the address of a contract with a specific role. Emits the event {ContractUpdated}.",
        "params": {
          "addr": "The address of the contract to set.",
          "contractType": "The role of the contract to set."
        }
      },
      "setCooldownSecsToUndelegate(uint256)": {
        "details": "Sets the cooldown time in seconds to undelegate from the last timestamp (s)he delegated. Requirements: - The method caller is admin. Emits the event `CooldownSecsToUndelegateUpdated`."
      },
      "setMinValidatorStakingAmount(uint256)": {
        "details": "Sets the minimum threshold for being a validator candidate. Requirements: - The method caller is admin. Emits the `MinValidatorStakingAmountUpdated` event."
      },
      "setWaitingSecsToRevoke(uint256)": {
        "details": "Sets the number of seconds that a candidate must wait to be revoked. Requirements: - The method caller is admin. Emits the event `WaitingSecsToRevokeUpdated`."
      },
      "stake(address)": {
        "details": "Self-delegates to the validator candidate `_consensusAddr`. Requirements: - The consensus address is a validator candidate. - The method caller is the pool admin. - The `msg.value` is larger than 0. Emits the event `Staked`."
      },
      "tmp_re_applyValidatorCandidate(address,address,address,uint256)": {
        "details": "This method only work on testnet, to hotfix the applied validator candidate that is failed. TODO: Should remove this method before deploying it on mainnet."
      },
      "undelegate(address,uint256)": {
        "details": "Unstakes from a validator candidate `_consensusAddr` for `_amount`. Requirements: - The method caller is not the pool admin. Emits the `Undelegated` event."
      },
      "unstake(address,uint256)": {
        "details": "Unstakes from the validator candidate `_consensusAddr` for `_amount`. Requirements: - The consensus address is a validator candidate. - The method caller is the pool admin. Emits the event `Unstaked`."
      },
      "waitingSecsToRevoke()": {
        "details": "Returns the number of seconds that a candidate must wait for the renounce request gets affected."
      }
    },
    "version": 1
  },
  "userdoc": {
    "kind": "user",
    "methods": {},
    "version": 1
  },
  "storageLayout": {
    "storage": [
      {
        "astId": 1636,
        "contract": "contracts/ronin/staking/Staking.sol:Staking",
        "label": "_status",
        "offset": 0,
        "slot": "0",
        "type": "t_uint256"
      },
      {
        "astId": 35885,
        "contract": "contracts/ronin/staking/Staking.sol:Staking",
        "label": "_accumulatedRps",
        "offset": 0,
        "slot": "1",
        "type": "t_mapping(t_address,t_mapping(t_uint256,t_struct(PeriodWrapper)13011_storage))"
      },
      {
        "astId": 35893,
        "contract": "contracts/ronin/staking/Staking.sol:Staking",
        "label": "_userReward",
        "offset": 0,
        "slot": "2",
        "type": "t_mapping(t_address,t_mapping(t_address,t_struct(UserRewardFields)13874_storage))"
      },
      {
        "astId": 35899,
        "contract": "contracts/ronin/staking/Staking.sol:Staking",
        "label": "_stakingPool",
        "offset": 0,
        "slot": "3",
        "type": "t_mapping(t_address,t_struct(PoolFields)13880_storage)"
      },
      {
        "astId": 35904,
        "contract": "contracts/ronin/staking/Staking.sol:Staking",
        "label": "______gap",
        "offset": 0,
        "slot": "4",
        "type": "t_array(t_uint256)50_storage"
      },
      {
        "astId": 41900,
        "contract": "contracts/ronin/staking/Staking.sol:Staking",
        "label": "______deprecatedValidator",
        "offset": 0,
        "slot": "54",
        "type": "t_address"
      },
      {
        "astId": 34068,
        "contract": "contracts/ronin/staking/Staking.sol:Staking",
        "label": "_stakingPool",
        "offset": 0,
        "slot": "55",
        "type": "t_mapping(t_address,t_struct(PoolDetail)13486_storage)"
      },
      {
        "astId": 34071,
        "contract": "contracts/ronin/staking/Staking.sol:Staking",
        "label": "_cooldownSecsToUndelegate",
        "offset": 0,
        "slot": "56",
        "type": "t_uint256"
      },
      {
        "astId": 34074,
        "contract": "contracts/ronin/staking/Staking.sol:Staking",
        "label": "_waitingSecsToRevoke",
        "offset": 0,
        "slot": "57",
        "type": "t_uint256"
      },
      {
        "astId": 34079,
        "contract": "contracts/ronin/staking/Staking.sol:Staking",
        "label": "_adminOfActivePoolMapping",
        "offset": 0,
        "slot": "58",
        "type": "t_mapping(t_address,t_address)"
      },
      {
        "astId": 34084,
        "contract": "contracts/ronin/staking/Staking.sol:Staking",
        "label": "______gap",
        "offset": 0,
        "slot": "59",
        "type": "t_array(t_uint256)49_storage"
      },
      {
        "astId": 34573,
        "contract": "contracts/ronin/staking/Staking.sol:Staking",
        "label": "_minValidatorStakingAmount",
        "offset": 0,
        "slot": "108",
        "type": "t_uint256"
      },
      {
        "astId": 34576,
        "contract": "contracts/ronin/staking/Staking.sol:Staking",
        "label": "_maxCommissionRate",
        "offset": 0,
        "slot": "109",
        "type": "t_uint256"
      },
      {
        "astId": 34579,
        "contract": "contracts/ronin/staking/Staking.sol:Staking",
        "label": "_minCommissionRate",
        "offset": 0,
        "slot": "110",
        "type": "t_uint256"
      },
      {
        "astId": 34584,
        "contract": "contracts/ronin/staking/Staking.sol:Staking",
        "label": "______gap",
        "offset": 0,
        "slot": "111",
        "type": "t_array(t_uint256)48_storage"
      },
      {
        "astId": 35340,
        "contract": "contracts/ronin/staking/Staking.sol:Staking",
        "label": "______gap",
        "offset": 0,
        "slot": "159",
        "type": "t_array(t_uint256)50_storage"
      },
      {
        "astId": 1373,
        "contract": "contracts/ronin/staking/Staking.sol:Staking",
        "label": "_initialized",
        "offset": 0,
        "slot": "209",
        "type": "t_uint8"
      },
      {
        "astId": 1376,
        "contract": "contracts/ronin/staking/Staking.sol:Staking",
        "label": "_initializing",
        "offset": 1,
        "slot": "209",
        "type": "t_bool"
      }
    ],
    "types": {
      "t_address": {
        "encoding": "inplace",
        "label": "address",
        "numberOfBytes": "20"
      },
      "t_array(t_uint256)48_storage": {
        "base": "t_uint256",
        "encoding": "inplace",
        "label": "uint256[48]",
        "numberOfBytes": "1536"
      },
      "t_array(t_uint256)49_storage": {
        "base": "t_uint256",
        "encoding": "inplace",
        "label": "uint256[49]",
        "numberOfBytes": "1568"
      },
      "t_array(t_uint256)50_storage": {
        "base": "t_uint256",
        "encoding": "inplace",
        "label": "uint256[50]",
        "numberOfBytes": "1600"
      },
      "t_bool": {
        "encoding": "inplace",
        "label": "bool",
        "numberOfBytes": "1"
      },
      "t_mapping(t_address,t_address)": {
        "encoding": "mapping",
        "key": "t_address",
        "label": "mapping(address => address)",
        "numberOfBytes": "32",
        "value": "t_address"
      },
      "t_mapping(t_address,t_mapping(t_address,t_struct(UserRewardFields)13874_storage))": {
        "encoding": "mapping",
        "key": "t_address",
        "label": "mapping(address => mapping(address => struct IRewardPool.UserRewardFields))",
        "numberOfBytes": "32",
        "value": "t_mapping(t_address,t_struct(UserRewardFields)13874_storage)"
      },
      "t_mapping(t_address,t_mapping(t_uint256,t_struct(PeriodWrapper)13011_storage))": {
        "encoding": "mapping",
        "key": "t_address",
        "label": "mapping(address => mapping(uint256 => struct PeriodWrapperConsumer.PeriodWrapper))",
        "numberOfBytes": "32",
        "value": "t_mapping(t_uint256,t_struct(PeriodWrapper)13011_storage)"
      },
      "t_mapping(t_address,t_struct(PoolDetail)13486_storage)": {
        "encoding": "mapping",
        "key": "t_address",
        "label": "mapping(address => struct IBaseStaking.PoolDetail)",
        "numberOfBytes": "32",
        "value": "t_struct(PoolDetail)13486_storage"
      },
      "t_mapping(t_address,t_struct(PoolFields)13880_storage)": {
        "encoding": "mapping",
        "key": "t_address",
        "label": "mapping(address => struct IRewardPool.PoolFields)",
        "numberOfBytes": "32",
        "value": "t_struct(PoolFields)13880_storage"
      },
      "t_mapping(t_address,t_struct(UserRewardFields)13874_storage)": {
        "encoding": "mapping",
        "key": "t_address",
        "label": "mapping(address => struct IRewardPool.UserRewardFields)",
        "numberOfBytes": "32",
        "value": "t_struct(UserRewardFields)13874_storage"
      },
      "t_mapping(t_address,t_uint256)": {
        "encoding": "mapping",
        "key": "t_address",
        "label": "mapping(address => uint256)",
        "numberOfBytes": "32",
        "value": "t_uint256"
      },
      "t_mapping(t_uint256,t_struct(PeriodWrapper)13011_storage)": {
        "encoding": "mapping",
        "key": "t_uint256",
        "label": "mapping(uint256 => struct PeriodWrapperConsumer.PeriodWrapper)",
        "numberOfBytes": "32",
        "value": "t_struct(PeriodWrapper)13011_storage"
      },
      "t_struct(PeriodWrapper)13011_storage": {
        "encoding": "inplace",
        "label": "struct PeriodWrapperConsumer.PeriodWrapper",
        "members": [
          {
            "astId": 13008,
            "contract": "contracts/ronin/staking/Staking.sol:Staking",
            "label": "inner",
            "offset": 0,
            "slot": "0",
            "type": "t_uint256"
          },
          {
            "astId": 13010,
            "contract": "contracts/ronin/staking/Staking.sol:Staking",
            "label": "lastPeriod",
            "offset": 0,
            "slot": "1",
            "type": "t_uint256"
          }
        ],
        "numberOfBytes": "64"
      },
      "t_struct(PoolDetail)13486_storage": {
        "encoding": "inplace",
        "label": "struct IBaseStaking.PoolDetail",
        "members": [
          {
            "astId": 13471,
            "contract": "contracts/ronin/staking/Staking.sol:Staking",
            "label": "addr",
            "offset": 0,
            "slot": "0",
            "type": "t_address"
          },
          {
            "astId": 13473,
            "contract": "contracts/ronin/staking/Staking.sol:Staking",
            "label": "admin",
            "offset": 0,
            "slot": "1",
            "type": "t_address"
          },
          {
            "astId": 13475,
            "contract": "contracts/ronin/staking/Staking.sol:Staking",
            "label": "stakingAmount",
            "offset": 0,
            "slot": "2",
            "type": "t_uint256"
          },
          {
            "astId": 13477,
            "contract": "contracts/ronin/staking/Staking.sol:Staking",
            "label": "stakingTotal",
            "offset": 0,
            "slot": "3",
            "type": "t_uint256"
          },
          {
            "astId": 13481,
            "contract": "contracts/ronin/staking/Staking.sol:Staking",
            "label": "delegatingAmount",
            "offset": 0,
            "slot": "4",
            "type": "t_mapping(t_address,t_uint256)"
          },
          {
            "astId": 13485,
            "contract": "contracts/ronin/staking/Staking.sol:Staking",
            "label": "lastDelegatingTimestamp",
            "offset": 0,
            "slot": "5",
            "type": "t_mapping(t_address,t_uint256)"
          }
        ],
        "numberOfBytes": "192"
      },
      "t_struct(PoolFields)13880_storage": {
        "encoding": "inplace",
        "label": "struct IRewardPool.PoolFields",
        "members": [
          {
            "astId": 13876,
            "contract": "contracts/ronin/staking/Staking.sol:Staking",
            "label": "aRps",
            "offset": 0,
            "slot": "0",
            "type": "t_uint256"
          },
          {
            "astId": 13879,
            "contract": "contracts/ronin/staking/Staking.sol:Staking",
            "label": "shares",
            "offset": 0,
            "slot": "1",
            "type": "t_struct(PeriodWrapper)13011_storage"
          }
        ],
        "numberOfBytes": "96"
      },
      "t_struct(UserRewardFields)13874_storage": {
        "encoding": "inplace",
        "label": "struct IRewardPool.UserRewardFields",
        "members": [
          {
            "astId": 13867,
            "contract": "contracts/ronin/staking/Staking.sol:Staking",
            "label": "debited",
            "offset": 0,
            "slot": "0",
            "type": "t_uint256"
          },
          {
            "astId": 13869,
            "contract": "contracts/ronin/staking/Staking.sol:Staking",
            "label": "aRps",
            "offset": 0,
            "slot": "1",
            "type": "t_uint256"
          },
          {
            "astId": 13871,
            "contract": "contracts/ronin/staking/Staking.sol:Staking",
            "label": "lowestAmount",
            "offset": 0,
            "slot": "2",
            "type": "t_uint256"
          },
          {
            "astId": 13873,
            "contract": "contracts/ronin/staking/Staking.sol:Staking",
            "label": "lastPeriod",
            "offset": 0,
            "slot": "3",
            "type": "t_uint256"
          }
        ],
        "numberOfBytes": "128"
      },
      "t_uint256": {
        "encoding": "inplace",
        "label": "uint256",
        "numberOfBytes": "32"
      },
      "t_uint8": {
        "encoding": "inplace",
        "label": "uint8",
        "numberOfBytes": "1"
      }
    }
  }
}