{
  "address": "0x9B0E61e629EB44875CFf534DE0c176078CaC502f",
  "abi": [
    {
      "inputs": [],
      "stateMutability": "nonpayable",
      "type": "constructor"
    },
    {
      "inputs": [
        {
          "internalType": "address",
          "name": "admin",
          "type": "address"
        }
      ],
      "name": "ErrAdminOfAnyActivePoolForbidden",
      "type": "error"
    },
    {
      "inputs": [],
      "name": "ErrCallerMustBeValidatorContract",
      "type": "error"
    },
    {
      "inputs": [
        {
          "internalType": "address",
          "name": "addr",
          "type": "address"
        },
        {
          "internalType": "string",
          "name": "extraInfo",
          "type": "string"
        }
      ],
      "name": "ErrCannotInitTransferRON",
      "type": "error"
    },
    {
      "inputs": [],
      "name": "ErrCannotTransferRON",
      "type": "error"
    },
    {
      "inputs": [
        {
          "internalType": "address",
          "name": "poolAddr",
          "type": "address"
        }
      ],
      "name": "ErrInactivePool",
      "type": "error"
    },
    {
      "inputs": [],
      "name": "ErrInsufficientBalance",
      "type": "error"
    },
    {
      "inputs": [],
      "name": "ErrInsufficientDelegatingAmount",
      "type": "error"
    },
    {
      "inputs": [],
      "name": "ErrInsufficientStakingAmount",
      "type": "error"
    },
    {
      "inputs": [],
      "name": "ErrInvalidArrays",
      "type": "error"
    },
    {
      "inputs": [],
      "name": "ErrInvalidCommissionRate",
      "type": "error"
    },
    {
      "inputs": [],
      "name": "ErrInvalidPoolShare",
      "type": "error"
    },
    {
      "inputs": [],
      "name": "ErrOnlyPoolAdminAllowed",
      "type": "error"
    },
    {
      "inputs": [],
      "name": "ErrPoolAdminForbidden",
      "type": "error"
    },
    {
      "inputs": [],
      "name": "ErrRecipientRevert",
      "type": "error"
    },
    {
      "inputs": [],
      "name": "ErrStakingAmountLeft",
      "type": "error"
    },
    {
      "inputs": [],
      "name": "ErrThreeInteractionAddrsNotEqual",
      "type": "error"
    },
    {
      "inputs": [],
      "name": "ErrThreeOperationAddrsNotDistinct",
      "type": "error"
    },
    {
      "inputs": [],
      "name": "ErrUndelegateTooEarly",
      "type": "error"
    },
    {
      "inputs": [],
      "name": "ErrUndelegateZeroAmount",
      "type": "error"
    },
    {
      "inputs": [],
      "name": "ErrUnstakeTooEarly",
      "type": "error"
    },
    {
      "inputs": [],
      "name": "ErrUnstakeZeroAmount",
      "type": "error"
    },
    {
      "inputs": [],
      "name": "ErrZeroCodeContract",
      "type": "error"
    },
    {
      "inputs": [],
      "name": "ErrZeroValue",
      "type": "error"
    },
    {
      "anonymous": false,
      "inputs": [
        {
          "indexed": false,
          "internalType": "uint256",
          "name": "minRate",
          "type": "uint256"
        },
        {
          "indexed": false,
          "internalType": "uint256",
          "name": "maxRate",
          "type": "uint256"
        }
      ],
      "name": "CommissionRateRangeUpdated",
      "type": "event"
    },
    {
      "anonymous": false,
      "inputs": [
        {
          "indexed": false,
          "internalType": "uint256",
          "name": "minSecs",
          "type": "uint256"
        }
      ],
      "name": "CooldownSecsToUndelegateUpdated",
      "type": "event"
    },
    {
      "anonymous": false,
      "inputs": [
        {
          "indexed": true,
          "internalType": "address",
          "name": "delegator",
          "type": "address"
        },
        {
          "indexed": true,
          "internalType": "address",
          "name": "consensuAddr",
          "type": "address"
        },
        {
          "indexed": false,
          "internalType": "uint256",
          "name": "amount",
          "type": "uint256"
        }
      ],
      "name": "Delegated",
      "type": "event"
    },
    {
      "anonymous": false,
      "inputs": [
        {
          "indexed": false,
          "internalType": "uint8",
          "name": "version",
          "type": "uint8"
        }
      ],
      "name": "Initialized",
      "type": "event"
    },
    {
      "anonymous": false,
      "inputs": [
        {
          "indexed": false,
          "internalType": "uint256",
          "name": "threshold",
          "type": "uint256"
        }
      ],
      "name": "MinValidatorStakingAmountUpdated",
      "type": "event"
    },
    {
      "anonymous": false,
      "inputs": [
        {
          "indexed": true,
          "internalType": "address",
          "name": "validator",
          "type": "address"
        },
        {
          "indexed": true,
          "internalType": "address",
          "name": "admin",
          "type": "address"
        }
      ],
      "name": "PoolApproved",
      "type": "event"
    },
    {
      "anonymous": false,
      "inputs": [
        {
          "indexed": true,
          "internalType": "uint256",
          "name": "period",
          "type": "uint256"
        },
        {
          "indexed": true,
          "internalType": "address",
          "name": "poolAddr",
          "type": "address"
        },
        {
          "indexed": false,
          "internalType": "uint256",
          "name": "shares",
          "type": "uint256"
        }
      ],
      "name": "PoolSharesUpdated",
      "type": "event"
    },
    {
      "anonymous": false,
      "inputs": [
        {
          "indexed": false,
          "internalType": "address[]",
          "name": "validator",
          "type": "address[]"
        }
      ],
      "name": "PoolsDeprecated",
      "type": "event"
    },
    {
      "anonymous": false,
      "inputs": [
        {
          "indexed": true,
          "internalType": "uint256",
          "name": "period",
          "type": "uint256"
        },
        {
          "indexed": false,
          "internalType": "address[]",
          "name": "poolAddrs",
          "type": "address[]"
        }
      ],
      "name": "PoolsUpdateConflicted",
      "type": "event"
    },
    {
      "anonymous": false,
      "inputs": [
        {
          "indexed": true,
          "internalType": "uint256",
          "name": "period",
          "type": "uint256"
        },
        {
          "indexed": false,
          "internalType": "address[]",
          "name": "poolAddrs",
          "type": "address[]"
        },
        {
          "indexed": false,
          "internalType": "uint256[]",
          "name": "rewards",
          "type": "uint256[]"
        }
      ],
      "name": "PoolsUpdateFailed",
      "type": "event"
    },
    {
      "anonymous": false,
      "inputs": [
        {
          "indexed": true,
          "internalType": "uint256",
          "name": "period",
          "type": "uint256"
        },
        {
          "indexed": false,
          "internalType": "address[]",
          "name": "poolAddrs",
          "type": "address[]"
        },
        {
          "indexed": false,
          "internalType": "uint256[]",
          "name": "aRps",
          "type": "uint256[]"
        },
        {
          "indexed": false,
          "internalType": "uint256[]",
          "name": "shares",
          "type": "uint256[]"
        }
      ],
      "name": "PoolsUpdated",
      "type": "event"
    },
    {
      "anonymous": false,
      "inputs": [
        {
          "indexed": true,
          "internalType": "address",
          "name": "poolAddr",
          "type": "address"
        },
        {
          "indexed": true,
          "internalType": "address",
          "name": "user",
          "type": "address"
        },
        {
          "indexed": false,
          "internalType": "uint256",
          "name": "amount",
          "type": "uint256"
        }
      ],
      "name": "RewardClaimed",
      "type": "event"
    },
    {
      "anonymous": false,
      "inputs": [
        {
          "indexed": true,
          "internalType": "address",
          "name": "consensuAddr",
          "type": "address"
        },
        {
          "indexed": false,
          "internalType": "uint256",
          "name": "amount",
          "type": "uint256"
        }
      ],
      "name": "Staked",
      "type": "event"
    },
    {
      "anonymous": false,
      "inputs": [
        {
          "indexed": true,
          "internalType": "address",
          "name": "validator",
          "type": "address"
        },
        {
          "indexed": true,
          "internalType": "address",
          "name": "recipient",
          "type": "address"
        },
        {
          "indexed": false,
          "internalType": "uint256",
          "name": "amount",
          "type": "uint256"
        },
        {
          "indexed": false,
          "internalType": "uint256",
          "name": "contractBalance",
          "type": "uint256"
        }
      ],
      "name": "StakingAmountDeductFailed",
      "type": "event"
    },
    {
      "anonymous": false,
      "inputs": [
        {
          "indexed": true,
          "internalType": "address",
          "name": "validator",
          "type": "address"
        },
        {
          "indexed": true,
          "internalType": "address",
          "name": "admin",
          "type": "address"
        },
        {
          "indexed": false,
          "internalType": "uint256",
          "name": "amount",
          "type": "uint256"
        },
        {
          "indexed": false,
          "internalType": "uint256",
          "name": "contractBalance",
          "type": "uint256"
        }
      ],
      "name": "StakingAmountTransferFailed",
      "type": "event"
    },
    {
      "anonymous": false,
      "inputs": [
        {
          "indexed": true,
          "internalType": "address",
          "name": "delegator",
          "type": "address"
        },
        {
          "indexed": true,
          "internalType": "address",
          "name": "consensuAddr",
          "type": "address"
        },
        {
          "indexed": false,
          "internalType": "uint256",
          "name": "amount",
          "type": "uint256"
        }
      ],
      "name": "Undelegated",
      "type": "event"
    },
    {
      "anonymous": false,
      "inputs": [
        {
          "indexed": true,
          "internalType": "address",
          "name": "consensuAddr",
          "type": "address"
        },
        {
          "indexed": false,
          "internalType": "uint256",
          "name": "amount",
          "type": "uint256"
        }
      ],
      "name": "Unstaked",
      "type": "event"
    },
    {
      "anonymous": false,
      "inputs": [
        {
          "indexed": true,
          "internalType": "address",
          "name": "poolAddr",
          "type": "address"
        },
        {
          "indexed": true,
          "internalType": "address",
          "name": "user",
          "type": "address"
        },
        {
          "indexed": false,
          "internalType": "uint256",
          "name": "debited",
          "type": "uint256"
        }
      ],
      "name": "UserRewardUpdated",
      "type": "event"
    },
    {
      "anonymous": false,
      "inputs": [
        {
          "indexed": false,
          "internalType": "address",
          "name": "",
          "type": "address"
        }
      ],
      "name": "ValidatorContractUpdated",
      "type": "event"
    },
    {
      "anonymous": false,
      "inputs": [
        {
          "indexed": false,
          "internalType": "uint256",
          "name": "secs",
          "type": "uint256"
        }
      ],
      "name": "WaitingSecsToRevokeUpdated",
      "type": "event"
    },
    {
      "stateMutability": "payable",
      "type": "fallback"
    },
    {
      "inputs": [],
      "name": "DEFAULT_ADDITION_GAS",
      "outputs": [
        {
          "internalType": "uint256",
          "name": "",
          "type": "uint256"
        }
      ],
      "stateMutability": "view",
      "type": "function"
    },
    {
      "inputs": [],
      "name": "PERIOD_DURATION",
      "outputs": [
        {
          "internalType": "uint256",
          "name": "",
          "type": "uint256"
        }
      ],
      "stateMutability": "view",
      "type": "function"
    },
    {
      "inputs": [
        {
          "internalType": "address",
          "name": "_candidateAdmin",
          "type": "address"
        },
        {
          "internalType": "address",
          "name": "_consensusAddr",
          "type": "address"
        },
        {
          "internalType": "address payable",
          "name": "_treasuryAddr",
          "type": "address"
        },
        {
          "internalType": "address",
          "name": "_bridgeOperatorAddr",
          "type": "address"
        },
        {
          "internalType": "uint256",
          "name": "_commissionRate",
          "type": "uint256"
        }
      ],
      "name": "applyValidatorCandidate",
      "outputs": [],
      "stateMutability": "payable",
      "type": "function"
    },
    {
      "inputs": [
        {
          "internalType": "address[]",
          "name": "_consensusAddrs",
          "type": "address[]"
        },
        {
          "internalType": "uint256[]",
          "name": "_amounts",
          "type": "uint256[]"
        }
      ],
      "name": "bulkUndelegate",
      "outputs": [],
      "stateMutability": "nonpayable",
      "type": "function"
    },
    {
      "inputs": [
        {
          "internalType": "address[]",
          "name": "_consensusAddrList",
          "type": "address[]"
        }
      ],
      "name": "claimRewards",
      "outputs": [
        {
          "internalType": "uint256",
          "name": "_amount",
          "type": "uint256"
        }
      ],
      "stateMutability": "nonpayable",
      "type": "function"
    },
    {
      "inputs": [],
      "name": "cooldownSecsToUndelegate",
      "outputs": [
        {
          "internalType": "uint256",
          "name": "",
          "type": "uint256"
        }
      ],
      "stateMutability": "view",
      "type": "function"
    },
    {
      "inputs": [
        {
          "internalType": "address",
          "name": "_consensusAddr",
          "type": "address"
        }
      ],
      "name": "delegate",
      "outputs": [],
      "stateMutability": "payable",
      "type": "function"
    },
    {
      "inputs": [
        {
          "internalType": "address[]",
          "name": "_consensusAddrList",
          "type": "address[]"
        },
        {
          "internalType": "address",
          "name": "_consensusAddrDst",
          "type": "address"
        }
      ],
      "name": "delegateRewards",
      "outputs": [
        {
          "internalType": "uint256",
          "name": "_amount",
          "type": "uint256"
        }
      ],
      "stateMutability": "nonpayable",
      "type": "function"
    },
    {
      "inputs": [
        {
          "internalType": "address",
          "name": "_consensusAddr",
          "type": "address"
        },
        {
          "internalType": "uint256",
          "name": "_amount",
          "type": "uint256"
        }
      ],
      "name": "execDeductStakingAmount",
      "outputs": [
        {
          "internalType": "uint256",
          "name": "_actualDeductingAmount",
          "type": "uint256"
        }
      ],
      "stateMutability": "nonpayable",
      "type": "function"
    },
    {
      "inputs": [
        {
          "internalType": "address[]",
          "name": "_pools",
          "type": "address[]"
        },
        {
          "internalType": "uint256",
          "name": "_newPeriod",
          "type": "uint256"
        }
      ],
      "name": "execDeprecatePools",
      "outputs": [],
      "stateMutability": "nonpayable",
      "type": "function"
    },
    {
      "inputs": [
        {
          "internalType": "address[]",
          "name": "_consensusAddrs",
          "type": "address[]"
        },
        {
          "internalType": "uint256[]",
          "name": "_rewards",
          "type": "uint256[]"
        },
        {
          "internalType": "uint256",
          "name": "_period",
          "type": "uint256"
        }
      ],
      "name": "execRecordRewards",
      "outputs": [],
      "stateMutability": "payable",
      "type": "function"
    },
    {
      "inputs": [],
      "name": "getCommissionRateRange",
      "outputs": [
        {
          "internalType": "uint256",
          "name": "",
          "type": "uint256"
        },
        {
          "internalType": "uint256",
          "name": "",
          "type": "uint256"
        }
      ],
      "stateMutability": "view",
      "type": "function"
    },
    {
      "inputs": [
        {
          "internalType": "address[]",
          "name": "_pools",
          "type": "address[]"
        }
      ],
      "name": "getManySelfStakings",
      "outputs": [
        {
          "internalType": "uint256[]",
          "name": "_selfStakings",
          "type": "uint256[]"
        }
      ],
      "stateMutability": "view",
      "type": "function"
    },
    {
      "inputs": [
        {
          "internalType": "address[]",
          "name": "_poolAddrs",
          "type": "address[]"
        },
        {
          "internalType": "address[]",
          "name": "_userList",
          "type": "address[]"
        }
      ],
      "name": "getManyStakingAmounts",
      "outputs": [
        {
          "internalType": "uint256[]",
          "name": "_stakingAmounts",
          "type": "uint256[]"
        }
      ],
      "stateMutability": "view",
      "type": "function"
    },
    {
      "inputs": [
        {
          "internalType": "address[]",
          "name": "_poolList",
          "type": "address[]"
        }
      ],
      "name": "getManyStakingTotals",
      "outputs": [
        {
          "internalType": "uint256[]",
          "name": "_stakingAmounts",
          "type": "uint256[]"
        }
      ],
      "stateMutability": "view",
      "type": "function"
    },
    {
      "inputs": [
        {
          "internalType": "address",
          "name": "_poolAdminAddr",
          "type": "address"
        }
      ],
      "name": "getPoolAddressOf",
      "outputs": [
        {
          "internalType": "address",
          "name": "",
          "type": "address"
        }
      ],
      "stateMutability": "view",
      "type": "function"
    },
    {
      "inputs": [
        {
          "internalType": "address",
          "name": "_poolAddr",
          "type": "address"
        }
      ],
      "name": "getPoolDetail",
      "outputs": [
        {
          "internalType": "address",
          "name": "_admin",
          "type": "address"
        },
        {
          "internalType": "uint256",
          "name": "_stakingAmount",
          "type": "uint256"
        },
        {
          "internalType": "uint256",
          "name": "_stakingTotal",
          "type": "uint256"
        }
      ],
      "stateMutability": "view",
      "type": "function"
    },
    {
      "inputs": [
        {
          "internalType": "address",
          "name": "_poolAddr",
          "type": "address"
        },
        {
          "internalType": "address",
          "name": "_user",
          "type": "address"
        }
      ],
      "name": "getReward",
      "outputs": [
        {
          "internalType": "uint256",
          "name": "",
          "type": "uint256"
        }
      ],
      "stateMutability": "view",
      "type": "function"
    },
    {
      "inputs": [
        {
          "internalType": "address",
          "name": "_user",
          "type": "address"
        },
        {
          "internalType": "address[]",
          "name": "_poolAddrList",
          "type": "address[]"
        }
      ],
      "name": "getRewards",
      "outputs": [
        {
          "internalType": "uint256[]",
          "name": "_rewards",
          "type": "uint256[]"
        }
      ],
      "stateMutability": "view",
      "type": "function"
    },
    {
      "inputs": [
        {
          "internalType": "address",
          "name": "_poolAddr",
          "type": "address"
        },
        {
          "internalType": "address",
          "name": "_user",
          "type": "address"
        }
      ],
      "name": "getStakingAmount",
      "outputs": [
        {
          "internalType": "uint256",
          "name": "",
          "type": "uint256"
        }
      ],
      "stateMutability": "view",
      "type": "function"
    },
    {
      "inputs": [
        {
          "internalType": "address",
          "name": "_poolAddr",
          "type": "address"
        }
      ],
      "name": "getStakingTotal",
      "outputs": [
        {
          "internalType": "uint256",
          "name": "",
          "type": "uint256"
        }
      ],
      "stateMutability": "view",
      "type": "function"
    },
    {
      "inputs": [
        {
          "internalType": "address",
          "name": "__validatorContract",
          "type": "address"
        },
        {
          "internalType": "uint256",
          "name": "__minValidatorStakingAmount",
          "type": "uint256"
        },
        {
          "internalType": "uint256",
          "name": "__maxCommissionRate",
          "type": "uint256"
        },
        {
          "internalType": "uint256",
          "name": "__cooldownSecsToUndelegate",
          "type": "uint256"
        },
        {
          "internalType": "uint256",
          "name": "__waitingSecsToRevoke",
          "type": "uint256"
        }
      ],
      "name": "initialize",
      "outputs": [],
      "stateMutability": "nonpayable",
      "type": "function"
    },
    {
      "inputs": [
        {
          "internalType": "address",
          "name": "_poolAdminAddr",
          "type": "address"
        }
      ],
      "name": "isAdminOfActivePool",
      "outputs": [
        {
          "internalType": "bool",
          "name": "",
          "type": "bool"
        }
      ],
      "stateMutability": "view",
      "type": "function"
    },
    {
      "inputs": [],
      "name": "minValidatorStakingAmount",
      "outputs": [
        {
          "internalType": "uint256",
          "name": "",
          "type": "uint256"
        }
      ],
      "stateMutability": "view",
      "type": "function"
    },
    {
      "inputs": [
        {
          "internalType": "address",
          "name": "_consensusAddrSrc",
          "type": "address"
        },
        {
          "internalType": "address",
          "name": "_consensusAddrDst",
          "type": "address"
        },
        {
          "internalType": "uint256",
          "name": "_amount",
          "type": "uint256"
        }
      ],
      "name": "redelegate",
      "outputs": [],
      "stateMutability": "nonpayable",
      "type": "function"
    },
    {
      "inputs": [
        {
          "internalType": "address",
          "name": "_consensusAddr",
          "type": "address"
        }
      ],
      "name": "requestEmergencyExit",
      "outputs": [],
      "stateMutability": "nonpayable",
      "type": "function"
    },
    {
      "inputs": [
        {
          "internalType": "address",
          "name": "_consensusAddr",
          "type": "address"
        }
      ],
      "name": "requestRenounce",
      "outputs": [],
      "stateMutability": "nonpayable",
      "type": "function"
    },
    {
      "inputs": [
        {
          "internalType": "address",
          "name": "_consensusAddr",
          "type": "address"
        },
        {
          "internalType": "uint256",
          "name": "_effectiveDaysOnwards",
          "type": "uint256"
        },
        {
          "internalType": "uint256",
          "name": "_commissionRate",
          "type": "uint256"
        }
      ],
      "name": "requestUpdateCommissionRate",
      "outputs": [],
      "stateMutability": "nonpayable",
      "type": "function"
    },
    {
      "inputs": [
        {
          "internalType": "uint256",
          "name": "_minRate",
          "type": "uint256"
        },
        {
          "internalType": "uint256",
          "name": "_maxRate",
          "type": "uint256"
        }
      ],
      "name": "setCommissionRateRange",
      "outputs": [],
      "stateMutability": "nonpayable",
      "type": "function"
    },
    {
      "inputs": [
        {
          "internalType": "uint256",
          "name": "_cooldownSecs",
          "type": "uint256"
        }
      ],
      "name": "setCooldownSecsToUndelegate",
      "outputs": [],
      "stateMutability": "nonpayable",
      "type": "function"
    },
    {
      "inputs": [
        {
          "internalType": "uint256",
          "name": "_threshold",
          "type": "uint256"
        }
      ],
      "name": "setMinValidatorStakingAmount",
      "outputs": [],
      "stateMutability": "nonpayable",
      "type": "function"
    },
    {
      "inputs": [
        {
          "internalType": "address",
          "name": "_addr",
          "type": "address"
        }
      ],
      "name": "setValidatorContract",
      "outputs": [],
      "stateMutability": "nonpayable",
      "type": "function"
    },
    {
      "inputs": [
        {
          "internalType": "uint256",
          "name": "_secs",
          "type": "uint256"
        }
      ],
      "name": "setWaitingSecsToRevoke",
      "outputs": [],
      "stateMutability": "nonpayable",
      "type": "function"
    },
    {
      "inputs": [
        {
          "internalType": "address",
          "name": "_consensusAddr",
          "type": "address"
        }
      ],
      "name": "stake",
      "outputs": [],
      "stateMutability": "payable",
      "type": "function"
    },
    {
      "inputs": [
        {
          "internalType": "address",
          "name": "_consensusAddr",
          "type": "address"
        },
        {
          "internalType": "uint256",
          "name": "_amount",
          "type": "uint256"
        }
      ],
      "name": "undelegate",
      "outputs": [],
      "stateMutability": "nonpayable",
      "type": "function"
    },
    {
      "inputs": [
        {
          "internalType": "address",
          "name": "_consensusAddr",
          "type": "address"
        },
        {
          "internalType": "uint256",
          "name": "_amount",
          "type": "uint256"
        }
      ],
      "name": "unstake",
      "outputs": [],
      "stateMutability": "nonpayable",
      "type": "function"
    },
    {
      "inputs": [],
      "name": "validatorContract",
      "outputs": [
        {
          "internalType": "address",
          "name": "",
          "type": "address"
        }
      ],
      "stateMutability": "view",
      "type": "function"
    },
    {
      "inputs": [],
      "name": "waitingSecsToRevoke",
      "outputs": [
        {
          "internalType": "uint256",
          "name": "",
          "type": "uint256"
        }
      ],
      "stateMutability": "view",
      "type": "function"
    },
    {
      "stateMutability": "payable",
      "type": "receive"
    }
  ],
  "transactionHash": "0x444895ac6c2bb77d6e40f8c5c62ac2ed1fb1035d50ebb54188e765f07bc92c3c",
  "args": [],
  "numDeployments": 2,
  "solcInputHash": "85b953b22882c536a643bf4b61b3153b",
  "bytecode": "0x60806040523480156200001157600080fd5b5060016000556200002162000027565b620000e9565b60d154610100900460ff1615620000945760405162461bcd60e51b815260206004820152602760248201527f496e697469616c697a61626c653a20636f6e747261637420697320696e697469604482015266616c697a696e6760c81b606482015260840160405180910390fd5b60d15460ff9081161015620000e75760d1805460ff191660ff9081179091556040519081527f7f26b83ff96e1f2b6a682f133852f6798a09c465da95921460cefb38474024989060200160405180910390a15b565b613bb880620000f96000396000f3fe6080604052600436106101b95760003560e01c806303827884146101f95780630682e8fa14610222578063095f647514610237578063097e4a9d146102645780631658c86e1461028457806326476204146102a45780632715805e146102b75780633d8e846e146102d757806342e0c408146102f757806342ef3c34146103275780634530d202146103475780634d99dd161461036f578063574734471461038f5780635c19a95c146103af5780636558954f146103c2578063679a6e43146103d95780636b091695146103f95780636bd8f8041461041957806376664b6514610439578063888b9ae914610459578063895ab74214610479578063909791dd1461049957806391f8723f146104ae578063924f081e146104ce5780639488e4e9146104ee578063969ffc141461050e578063994390891461052e578063aa15a6fd14610550578063acd79c4614610570578063af24542914610583578063c2a672e014610598578063c5087003146105b8578063cdf64a76146105f1578063d01b8eed14610611578063e22d1c9d1461066c578063e5376f541461068c578063f92ad2191461069f578063f9f031df146106bf576101f0565b366101f057336101c76106df565b6001600160a01b0316146101ee57604051630e6444a160e31b815260040160405180910390fd5b005b336101c76106df565b34801561020557600080fd5b5061020f6104b081565b6040519081526020015b60405180910390f35b34801561022e57600080fd5b5060385461020f565b34801561024357600080fd5b5061025761025236600461334b565b6106ee565b60405161021991906133f1565b34801561027057600080fd5b5061020f61027f366004613419565b610830565b34801561029057600080fd5b506101ee61029f36600461346f565b610935565b6101ee6102b236600461346f565b610a73565b3480156102c357600080fd5b5061020f6102d2366004613493565b610b4b565b3480156102e357600080fd5b506102576102f23660046134bf565b610c0b565b34801561030357600080fd5b5061031761031236600461346f565b610d4f565b6040519015158152602001610219565b34801561033357600080fd5b50610257610342366004613513565b610d6f565b34801561035357600080fd5b50606e54606d5460408051928352602083019190915201610219565b34801561037b57600080fd5b506101ee61038a366004613493565b610e3e565b34801561039b57600080fd5b506101ee6103aa366004613554565b610eba565b6101ee6103bd36600461346f565b610efc565b3480156103ce57600080fd5b5061020f6201518081565b3480156103e557600080fd5b506101ee6103f4366004613576565b610ff9565b34801561040557600080fd5b5061020f61041436600461358f565b61103d565b34801561042557600080fd5b506101ee6104343660046135c8565b61105f565b34801561044557600080fd5b5061020f61045436600461358f565b61116a565b34801561046557600080fd5b506101ee610474366004613576565b611199565b34801561048557600080fd5b5061020f61049436600461346f565b6111da565b3480156104a557600080fd5b50606c5461020f565b3480156104ba57600080fd5b506102576104c9366004613513565b6111f8565b3480156104da57600080fd5b506101ee6104e9366004613609565b6112a2565b3480156104fa57600080fd5b506101ee61050936600461334b565b611411565b34801561051a57600080fd5b506101ee610529366004613576565b61154a565b34801561053a57600080fd5b506105436106df565b604051610219919061363e565b34801561055c57600080fd5b506101ee61056b36600461346f565b61158b565b6101ee61057e366004613652565b611691565b34801561058f57600080fd5b5060395461020f565b3480156105a457600080fd5b506101ee6105b3366004613493565b611709565b3480156105c457600080fd5b506105436105d336600461346f565b6001600160a01b039081166000908152603a60205260409020541690565b3480156105fd57600080fd5b506101ee61060c36600461346f565b611849565b34801561061d57600080fd5b5061065d61062c36600461346f565b6001600160a01b03808216600090815260376020526040902060018101546002820154600390920154921693909250565b604051610219939291906136c5565b34801561067857600080fd5b506101ee6106873660046136e6565b6118b5565b6101ee61069a366004613731565b611aa5565b3480156106ab57600080fd5b506101ee6106ba366004613795565b611be6565b3480156106cb57600080fd5b5061020f6106da366004613513565b611d23565b6036546001600160a01b031690565b6060838214610710576040516376081a7b60e11b815260040160405180910390fd5b836001600160401b03811115610728576107286137d9565b604051908082528060200260200182016040528015610751578160200160208202803683370190505b50905060005b81518110156108275760376000878784818110610776576107766137ef565b905060200201602081019061078b919061346f565b6001600160a01b03166001600160a01b0316815260200190815260200160002060040160008585848181106107c2576107c26137ef565b90506020020160208101906107d7919061346f565b6001600160a01b03166001600160a01b031681526020019081526020016000205482828151811061080a5761080a6137ef565b60209081029190910101528061081f8161381b565b915050610757565b50949350505050565b600060026000540361085d5760405162461bcd60e51b815260040161085490613834565b60405180910390fd5b6002600055603654604051635061f96960e11b815283916001600160a01b03169063a0c3f2d29061089290849060040161363e565b602060405180830381865afa1580156108af573d6000803e3d6000fd5b505050506040513d601f19601f820116820180604052508101906108d3919061386b565b6108f25780604051630fd0c64560e11b8152600401610854919061363e565b6108fb33610d4f565b1561091b5733604051632fc6bfb160e21b8152600401610854919061363e565b61092733868686611da3565b600160005595945050505050565b603654604051635061f96960e11b815282916001600160a01b03169063a0c3f2d29061096590849060040161363e565b602060405180830381865afa158015610982573d6000803e3d6000fd5b505050506040513d601f19601f820116820180604052508101906109a6919061386b565b6109c55780604051630fd0c64560e11b8152600401610854919061363e565b6001600160a01b038083166000908152603760205260409020600181015490913391168114610a0757604051637bc65bd760e11b815260040160405180910390fd5b60365460395460405163dd716ad360e01b81526001600160a01b039092169163dd716ad391610a3b9188919060040161388d565b600060405180830381600087803b158015610a5557600080fd5b505af1158015610a69573d6000803e3d6000fd5b5050505050505050565b34600003610a9457604051636dfcbde560e11b815260040160405180910390fd5b603654604051635061f96960e11b815282916001600160a01b03169063a0c3f2d290610ac490849060040161363e565b602060405180830381865afa158015610ae1573d6000803e3d6000fd5b505050506040513d601f19601f82011682018060405250810190610b05919061386b565b610b245780604051630fd0c64560e11b8152600401610854919061363e565b6001600160a01b0382166000908152603760205260409020610b47903334611e10565b5050565b600033610b566106df565b6001600160a01b031614610b7d57604051630e6444a160e31b815260040160405180910390fd5b6001600160a01b0383166000908152603760205260409020610b9f9083611ee3565b90506000610bab6106df565b9050610bb78183611f6e565b610c0457604080518381524760208201526001600160a01b0380841692908716917f63701cd972aa3c7f87898aab145c972e52185beab07d6e39380a998d334cf6c8910160405180910390a35b5092915050565b6060600080603660009054906101000a90046001600160a01b03166001600160a01b031663060406186040518163ffffffff1660e01b8152600401602060405180830381865afa158015610c63573d6000803e3d6000fd5b505050506040513d601f19601f82011682018060405250810190610c8791906138a6565b9050836001600160401b03811115610ca157610ca16137d9565b604051908082528060200260200182016040528015610cca578160200160208202803683370190505b50925060005b84811015610d4557858582818110610cea57610cea6137ef565b9050602002016020810190610cff919061346f565b9250610d16838884610d11878c61116a565b611fca565b848281518110610d2857610d286137ef565b602090810291909101015280610d3d8161381b565b915050610cd0565b5050509392505050565b6001600160a01b039081166000908152603a602052604090205416151590565b6060816001600160401b03811115610d8957610d896137d9565b604051908082528060200260200182016040528015610db2578160200160208202803683370190505b50905060005b82811015610c045760376000858584818110610dd657610dd66137ef565b9050602002016020810190610deb919061346f565b6001600160a01b03166001600160a01b0316815260200190815260200160002060020154828281518110610e2157610e216137ef565b602090810291909101015280610e368161381b565b915050610db8565b600260005403610e605760405162461bcd60e51b815260040161085490613834565b600260009081556001600160a01b03831681526037602052604090203390610e899082846120c6565b610e938183612326565b610eb057604051635ff7115760e11b815260040160405180910390fd5b5050600160005550565b610ec2612353565b6001600160a01b0316336001600160a01b031614610ef25760405162461bcd60e51b8152600401610854906138bf565b610b478282612381565b34600003610f1d57604051636dfcbde560e11b815260040160405180910390fd5b603654604051635061f96960e11b815282916001600160a01b03169063a0c3f2d290610f4d90849060040161363e565b602060405180830381865afa158015610f6a573d6000803e3d6000fd5b505050506040513d601f19601f82011682018060405250810190610f8e919061386b565b610fad5780604051630fd0c64560e11b8152600401610854919061363e565b610fb633610d4f565b15610fd65733604051632fc6bfb160e21b8152600401610854919061363e565b6001600160a01b0382166000908152603760205260409020610b479033346123f5565b611001612353565b6001600160a01b0316336001600160a01b0316146110315760405162461bcd60e51b8152600401610854906138bf565b61103a816124bd565b50565b6000611056838361104c6124f9565b610d11878761116a565b90505b92915050565b6002600054036110815760405162461bcd60e51b815260040161085490613834565b6002600055603654604051635061f96960e11b815283916001600160a01b03169063a0c3f2d2906110b690849060040161363e565b602060405180830381865afa1580156110d3573d6000803e3d6000fd5b505050506040513d601f19601f820116820180604052508101906110f7919061386b565b6111165780604051630fd0c64560e11b8152600401610854919061363e565b6001600160a01b0384166000908152603760205260409020339061113b9082856120c6565b6001600160a01b038416600090815260376020526040902061115e9082856123f5565b50506001600055505050565b6001600160a01b0391821660009081526037602090815260408083209390941682526004909201909152205490565b6111a1612353565b6001600160a01b0316336001600160a01b0316146111d15760405162461bcd60e51b8152600401610854906138bf565b61103a8161256b565b6001600160a01b031660009081526037602052604090206003015490565b6060816001600160401b03811115611212576112126137d9565b60405190808252806020026020018201604052801561123b578160200160208202803683370190505b50905060005b82811015610c045761127384848381811061125e5761125e6137ef565b9050602002016020810190610494919061346f565b828281518110611285576112856137ef565b60209081029190910101528061129a8161381b565b915050611241565b603654604051635061f96960e11b815284916001600160a01b03169063a0c3f2d2906112d290849060040161363e565b602060405180830381865afa1580156112ef573d6000803e3d6000fd5b505050506040513d601f19601f82011682018060405250810190611313919061386b565b6113325780604051630fd0c64560e11b8152600401610854919061363e565b6001600160a01b03808516600090815260376020526040902060018101549091339116811461137457604051637bc65bd760e11b815260040160405180910390fd5b606d548411806113855750606e5484105b156113a357604051631b8454a360e21b815260040160405180910390fd5b60365460405163e5125a1d60e01b81526001600160a01b039091169063e5125a1d906113d7908990899089906004016136c5565b600060405180830381600087803b1580156113f157600080fd5b505af1158015611405573d6000803e3d6000fd5b50505050505050505050565b6002600054036114335760405162461bcd60e51b815260040161085490613834565b60026000558215806114455750828114155b15611463576040516376081a7b60e11b815260040160405180910390fd5b336000805b8581101561151557848482818110611482576114826137ef565b90506020020135826114949190613901565b9150611503603760008989858181106114af576114af6137ef565b90506020020160208101906114c4919061346f565b6001600160a01b03166001600160a01b03168152602001908152602001600020848787858181106114f7576114f76137ef565b905060200201356120c6565b8061150d8161381b565b915050611468565b506115208282612326565b61153d57604051635ff7115760e11b815260040160405180910390fd5b5050600160005550505050565b611552612353565b6001600160a01b0316336001600160a01b0316146115825760405162461bcd60e51b8152600401610854906138bf565b61103a816125a0565b603654604051635061f96960e11b815282916001600160a01b03169063a0c3f2d2906115bb90849060040161363e565b602060405180830381865afa1580156115d8573d6000803e3d6000fd5b505050506040513d601f19601f820116820180604052508101906115fc919061386b565b61161b5780604051630fd0c64560e11b8152600401610854919061363e565b6001600160a01b03808316600090815260376020526040902060018101549091339116811461165d57604051637bc65bd760e11b815260040160405180910390fd5b60365460395460405163a7c2f11960e01b81526001600160a01b039092169163a7c2f11991610a3b9188919060040161388d565b3361169a6106df565b6001600160a01b0316146116c157604051630e6444a160e31b815260040160405180910390fd5b6117028585808060200260200160405190810160405280939291908181526020018383602002808284376000920191909152508792508691508590506125d5565b5050505050565b60026000540361172b5760405162461bcd60e51b815260040161085490613834565b6002600055603654604051635061f96960e11b815283916001600160a01b03169063a0c3f2d29061176090849060040161363e565b602060405180830381865afa15801561177d573d6000803e3d6000fd5b505050506040513d601f19601f820116820180604052508101906117a1919061386b565b6117c05780604051630fd0c64560e11b8152600401610854919061363e565b816000036117e1576040516331d9f7d760e01b815260040160405180910390fd5b6001600160a01b0383166000908152603760205260408120600281015433929061180c908690613914565b9050606c548110156118315760405163ef0a995760e01b815260040160405180910390fd5b61183c828487612a13565b61152083866104b0612b15565b611851612353565b6001600160a01b0316336001600160a01b0316146118815760405162461bcd60e51b8152600401610854906138bf565b806001600160a01b03163b6000036118ac57604051637bcd509160e01b815260040160405180910390fd5b61103a81612b75565b336118be6106df565b6001600160a01b0316146118e557604051630e6444a160e31b815260040160405180910390fd5b8115611aa05760005b82811015611a655760006037600086868581811061190e5761190e6137ef565b9050602002016020810190611923919061346f565b6001600160a01b0390811682526020808301939093526040918201600090812060018101549092168152603a909352912080546001600160a01b0319169055600281015490915080156119ea5761197a8282611ee3565b506001820154611996906001600160a01b0316826104b0612b15565b6119ea5760018201548254604080518481524760208201526001600160a01b0393841693909216917f7dc5115a5aba081f5a174f56a3d02eea582824783322a4ac03f7bd388f444194910160405180910390a35b6000611a2a878786818110611a0157611a016137ef565b9050602002016020810190611a16919061346f565b60018501546001600160a01b031687612bc0565b90508015611a4f576001830154611a4d906001600160a01b0316826104b0612b15565b505b5050508080611a5d9061381b565b9150506118ee565b507f4f257d3ba23679d338f1d94296086bba5724af341b7fa31aa0ff297bfcdc62d88383604051611a97929190613927565b60405180910390a15b505050565b600260005403611ac75760405162461bcd60e51b815260040161085490613834565b6002600055611ad533610d4f565b15611af55733604051632fc6bfb160e21b8152600401610854919061363e565b606d54811180611b065750606e5481105b15611b2457604051631b8454a360e21b815260040160405180910390fd5b3433611b3581888888888888612cc0565b6001600160a01b0380871660008181526037602081815260408084206001810180549789166001600160a01b0319988916811790915581548816871782558552603a835290842080549096168517909555929091529052611b97818385611e10565b816001600160a01b0316876001600160a01b03167ffc1f1e73948cbc47c5b7f90e5601b7daccd9ad7173218486ccc74bdd051d05e860405160405180910390a350506001600055505050505050565b60d154610100900460ff1615808015611c06575060d154600160ff909116105b80611c205750303b158015611c20575060d15460ff166001145b611c835760405162461bcd60e51b815260206004820152602e60248201527f496e697469616c697a61626c653a20636f6e747261637420697320616c72656160448201526d191e481a5b9a5d1a585b1a5e995960921b6064820152608401610854565b60d1805460ff191660011790558015611ca65760d1805461ff0019166101001790555b611caf86612b75565b611cb8856124bd565b611cc3600085612381565b611ccc8361256b565b611cd5826125a0565b8015611d1b5760d1805461ff0019169055604051600181527f7f26b83ff96e1f2b6a682f133852f6798a09c465da95921460cefb38474024989060200160405180910390a15b505050505050565b6000600260005403611d475760405162461bcd60e51b815260040161085490613834565b6002600081905550611d8c33848480806020026020016040519081016040528093929190818152602001838360200280828437600092019190915250612f4c92505050565b9050611d983382612faf565b600160005592915050565b6000611de285858580806020026020016040519081016040528093929190818152602001838360200280828437600092019190915250612f4c92505050565b6001600160a01b0383166000908152603760205260409020909150611e089086836123f5565b949350505050565b6001830154839083906001600160a01b03808316911614611e4457604051637bc65bd760e11b815260040160405180910390fd5b82856002016000828254611e589190613901565b92505081905550611e7e85858760020154868960030154611e799190613901565b612fd6565b6001600160a01b03808516600090815260058701602052604090819020429055865490519116907f9e71bc8eea02a63969f509818f2dafb9254532904319f9dbda79b67bd34a5f3d90611ed49086815260200190565b60405180910390a25050505050565b6000611ef3836002015483613011565b905080836002016000828254611f099190613914565b9091555050600183015460028401546003850154611f399286926001600160a01b0390911691611e799086613027565b82546040518281526001600160a01b0390911690600080516020613b438339815191529060200160405180910390a292915050565b6000826001600160a01b03168260405160006040518083038185875af1925050503d8060008114611fbb576040519150601f19603f3d011682016040523d82523d6000602084013e611fc0565b606091505b5090949350505050565b6001600160a01b0380851660009081526002602090815260408083209387168352929052908120600381015484900361200557549050611e08565b6001600160a01b03861660009081526003602081815260408084206001808452828620948701548652939092528320918201548392901561206a57805460018601549094506120549085613914565b85600201546120639190613975565b9250612072565b846001015493505b8154600090612082908690613914565b61208c9089613975565b9050670de0b6b3a76400006120a18286613901565b6120ab919061398c565b86546120b79190613901565b9b9a5050505050505050505050565b6001830154839083906001600160a01b038083169116036120fa57604051639feb934760e01b815260040160405180910390fd5b8260000361211b57604051637ab0c6ad60e11b815260040160405180910390fd5b6001600160a01b038416600090815260048601602052604090205483111561215657604051630695534560e31b815260040160405180910390fd5b6036548554604051635061f96960e11b81526001600160a01b039283169263a0c3f2d2926121899291169060040161363e565b602060405180830381865afa1580156121a6573d6000803e3d6000fd5b505050506040513d601f19601f820116820180604052508101906121ca919061386b565b801561224b575060365485546040516328bde1e160e01b81526001600160a01b03928316926328bde1e1926122049291169060040161363e565b60e060405180830381865afa158015612221573d6000803e3d6000fd5b505050506040513d601f19601f8201168201806040525081019061224591906139be565b60a00151155b801561227e57506038546001600160a01b0385166000908152600587016020526040902054429161227b91613901565b10155b1561229c5760405163f19f52bd60e01b815260040160405180910390fd5b6001600160a01b03841660009081526004860160205260409020546122da90869086906122ca908790613914565b868960030154611e799190613914565b84546040518481526001600160a01b03918216918616907f4d10bd049775c77bd7f255195afba5088028ecb3c7c277d393ccff7934f2f92c906020015b60405180910390a35050505050565b600081471015612349576040516304611a4560e11b815260040160405180910390fd5b6110568383611f6e565b7fb53127684a568b3173ae13b9f8a6016e243e63b6e8ee1178d6a717850b5d6103546001600160a01b031690565b61271081118061239057508082115b156123ae57604051631b8454a360e21b815260040160405180910390fd5b606d819055606e82905560408051838152602081018390527f677752f5bf9541b14288833909e5ec5a478103131c1ec08c4638943be5826c14910160405180910390a15050565b6001830154839083906001600160a01b0380831691160361242957604051639feb934760e01b815260040160405180910390fd5b6001600160a01b03841660009081526004860160205260409020546124679086908690612457908790613901565b868960030154611e799190613901565b6001600160a01b03808516600081815260058801602052604090819020429055875490519216917fe5541a6b6103d4fa7e021ed54fad39c66f27a76bd13d374cf6240ae6bd0bb72b906123179087815260200190565b606c8190556040518181527f372bbdb8d72373b0012f84ee5a11671e5fb72b8bea902ebca93a19cb45d32be2906020015b60405180910390a150565b6036546040805162c080c360e31b815290516000926001600160a01b03169163060406189160048083019260209291908290030181865afa158015612542573d6000803e3d6000fd5b505050506040513d601f19601f8201168201806040525081019061256691906138a6565b905090565b60388190556040518181527f4956b65267b8f1e642284bcb5037116c69a9c78d9ca576beeae0974737a4872a906020016124ee565b60398190556040518181527f02be0b73b597f2c0f138aebee162b3b0e25d5b5a26854c15dcf79176e9a1c678906020016124ee565b8351821461261e57807fae52c603227f64e4c6101dde593aa9790a16b3ac77546bd746d758511e9560a585858560405161261193929190613aa2565b60405180910390a2612a0d565b600080600080600088516001600160401b0381111561263f5761263f6137d9565b604051908082528060200260200182016040528015612668578160200160208202803683370190505b509050600089516001600160401b03811115612686576126866137d9565b6040519080825280602002602001820160405280156126af578160200160208202803683370190505b50905060008a516001600160401b038111156126cd576126cd6137d9565b6040519080825280602002602001820160405280156126f6578160200160208202803683370190505b50905060005b8b51811015612978578b8181518110612717576127176137ef565b60200260200101519550600060036000886001600160a01b03166001600160a01b031681526020019081526020016000209050612753876111da565b6001600160a01b03881660009081526001602081815260408084208f855290915290912001549096508a90036127c75786838961278f8161381b565b9a50815181106127a1576127a16137ef565b60200260200101906001600160a01b031690816001600160a01b03168152505050612966565b60028101548a11156127f557604080518082019091528681526020018a905260018101869055600281018a90555b60018101541561283f5760018101548c8c84818110612816576128166137ef565b90506020020135670de0b6b3a76400006128309190613975565b61283a919061398c565b612842565b60005b9850888160000160008282546128589190613901565b918290555090508561286a8a85613914565b8151811061287a5761287a6137ef565b6020026020010181815250506040518060400160405280826000015481526020018b81525060016000896001600160a01b03166001600160a01b0316815260200190815260200160002060008c81526020019081526020016000206000820151816000015560208201518160010155905050858160010160000181905550806001016000015484898461290d9190613914565b8151811061291d5761291d6137ef565b6020908102919091010152868d6129348a85613914565b81518110612944576129446137ef565b60200260200101906001600160a01b031690816001600160a01b031681525050505b806129708161381b565b9150506126fc565b5085156129c157858152858b51038b52877fee74f10cc50bf4b7e57fd36be7d46288795f3a9151dae97505b718b392ba14a3826040516129b89190613aec565b60405180910390a25b8a5115612a0557877f0e54e0485f70f0f63bc25889ddbf01ce1269ad6f07fdb2df573a0fbdb4d66f888c85856040516129fc93929190613aff565b60405180910390a25b505050505050505b50505050565b6001830154839083906001600160a01b03808316911614612a4757604051637bc65bd760e11b815260040160405180910390fd5b8460020154831115612a6c57604051630a8d7fa760e21b815260040160405180910390fd5b6038546001600160a01b03851660009081526005870160205260409020544291612a9591613901565b1115612ab4576040516303db082960e11b815260040160405180910390fd5b82856002016000828254612ac89190613914565b92505081905550612ae985858760020154868960030154611e799190613914565b84546040518481526001600160a01b0390911690600080516020613b4383398151915290602001611ed4565b6000836001600160a01b0316838390604051600060405180830381858888f193505050503d8060008114612b65576040519150601f19603f3d011682016040523d82523d6000602084013e612b6a565b606091505b509095945050505050565b603680546001600160a01b0319166001600160a01b0383161790556040517fef40dc07567635f84f5edbd2f8dbc16b40d9d282dd8e7e6f4ff58236b6836169906124ee90839061363e565b600080612bcd858561116a565b9050612bdb85858584611fca565b9150836001600160a01b0316856001600160a01b03167f0aa4d283470c904c551d18bb894d37e17674920f3261a7f854be501e25f421b784604051612c2291815260200190565b60405180910390a36001600160a01b03808616600081815260026020908152604080832094891683529381528382208281559282526003905291909120612c6c9082868580613041565b60038181018590556001600160a01b0387811660008181526020938452604080822054600187015551908152918816929091600080516020613b63833981519152910160405180910390a350509392505050565b612ccb876000611f6e565b612d16576040805163338f030160e01b81526001600160a01b03891660048201526024810191909152600a6044820152693837b7b61030b236b4b760b11b6064820152608401610854565b612d21846000611f6e565b612d6a576040805163338f030160e01b81526001600160a01b038616600482015260248101919091526008604482015267747265617375727960c01b6064820152608401610854565b606c54811015612d8d57604051630a8d7fa760e21b815260040160405180910390fd5b856001600160a01b0316876001600160a01b0316141580612dc05750836001600160a01b0316866001600160a01b031614155b15612dde5760405163dc1d04ff60e01b815260040160405180910390fd5b60408051600380825260808201909252600091602082016060803683370190505090508781600081518110612e1557612e156137ef565b60200260200101906001600160a01b031690816001600160a01b0316815250508581600181518110612e4957612e496137ef565b60200260200101906001600160a01b031690816001600160a01b0316815250508381600281518110612e7d57612e7d6137ef565b60200260200101906001600160a01b031690816001600160a01b031681525050612ea6816130d3565b15612ec4576040516329d55f9360e11b815260040160405180910390fd5b6036546040516302209ca560e31b81526001600160a01b0389811660048301528881166024830152878116604483015286811660648301526084820186905290911690631104e5289060a401600060405180830381600087803b158015612f2a57600080fd5b505af1158015612f3e573d6000803e3d6000fd5b505050505050505050505050565b600080612f576124f9565b905060005b8351811015612fa757612f89848281518110612f7a57612f7a6137ef565b60200260200101518684612bc0565b612f939084613901565b925080612f9f8161381b565b915050612f5c565b505092915050565b612fb98282612326565b610b4757604051630c3e69bb60e11b815260040160405180910390fd5b8354612fec906001600160a01b0316848461319a565b60038401556001600160a01b0390911660009081526004909201602052604090912055565b60008183106130205781611056565b5090919050565b6000818311613037576000611056565b6110568284613914565b828460030154101561305557600284018190555b6000613065856002015484613011565b905060008186600201546130799190613914565b905080156130ca576002860182905560018701548111156130ad576040516352e521bf60e11b815260040160405180910390fd5b808760010160000160008282546130c49190613914565b90915550505b50505050505050565b600081516000036130e657506000919050565b60005b600183516130f79190613914565b81101561319157600061310b826001613901565b90505b835181101561317e57838181518110613129576131296137ef565b60200260200101516001600160a01b031684838151811061314c5761314c6137ef565b60200260200101516001600160a01b03160361316c575060019392505050565b806131768161381b565b91505061310e565b50806131898161381b565b9150506130e9565b50600092915050565b60006131a46124f9565b6001600160a01b03851660009081526003602052604090206001810154600282015492935090918311156131ff5760405180604001604052806131e6886111da565b8152602090810185905281516001850155015160028301555b6001600160a01b038087166000908152600260209081526040808320938916835292905290812090613231888861116a565b9050600061324189898885611fca565b83549091508114613281578083556040518181526001600160a01b0389811691908b1690600080516020613b638339815191529060200160405180910390a35b61328e8584888a86613041565b84546001808501919091556003840187905585015484146132f557886001600160a01b0316867f81faf50e2aaf52eaba2ab841071efb9f6f0850a3e7d008b1336e6001d3d4963c87600101600001546040516132ec91815260200190565b60405180910390a35b505050505050505050565b60008083601f84011261331257600080fd5b5081356001600160401b0381111561332957600080fd5b6020830191508360208260051b850101111561334457600080fd5b9250929050565b6000806000806040858703121561336157600080fd5b84356001600160401b038082111561337857600080fd5b61338488838901613300565b9096509450602087013591508082111561339d57600080fd5b506133aa87828801613300565b95989497509550505050565b600081518084526020808501945080840160005b838110156133e6578151875295820195908201906001016133ca565b509495945050505050565b60208152600061105660208301846133b6565b6001600160a01b038116811461103a57600080fd5b60008060006040848603121561342e57600080fd5b83356001600160401b0381111561344457600080fd5b61345086828701613300565b909450925050602084013561346481613404565b809150509250925092565b60006020828403121561348157600080fd5b813561348c81613404565b9392505050565b600080604083850312156134a657600080fd5b82356134b181613404565b946020939093013593505050565b6000806000604084860312156134d457600080fd5b83356134df81613404565b925060208401356001600160401b038111156134fa57600080fd5b61350686828701613300565b9497909650939450505050565b6000806020838503121561352657600080fd5b82356001600160401b0381111561353c57600080fd5b61354885828601613300565b90969095509350505050565b6000806040838503121561356757600080fd5b50508035926020909101359150565b60006020828403121561358857600080fd5b5035919050565b600080604083850312156135a257600080fd5b82356135ad81613404565b915060208301356135bd81613404565b809150509250929050565b6000806000606084860312156135dd57600080fd5b83356135e881613404565b925060208401356135f881613404565b929592945050506040919091013590565b60008060006060848603121561361e57600080fd5b833561362981613404565b95602085013595506040909401359392505050565b6001600160a01b0391909116815260200190565b60008060008060006060868803121561366a57600080fd5b85356001600160401b038082111561368157600080fd5b61368d89838a01613300565b909750955060208801359150808211156136a657600080fd5b506136b388828901613300565b96999598509660400135949350505050565b6001600160a01b039390931683526020830191909152604082015260600190565b6000806000604084860312156136fb57600080fd5b83356001600160401b0381111561371157600080fd5b61371d86828701613300565b909790965060209590950135949350505050565b600080600080600060a0868803121561374957600080fd5b853561375481613404565b9450602086013561376481613404565b9350604086013561377481613404565b9250606086013561378481613404565b949793965091946080013592915050565b600080600080600060a086880312156137ad57600080fd5b85356137b881613404565b97602087013597506040870135966060810135965060800135945092505050565b634e487b7160e01b600052604160045260246000fd5b634e487b7160e01b600052603260045260246000fd5b634e487b7160e01b600052601160045260246000fd5b60006001820161382d5761382d613805565b5060010190565b6020808252601f908201527f5265656e7472616e637947756172643a207265656e7472616e742063616c6c00604082015260600190565b60006020828403121561387d57600080fd5b8151801515811461348c57600080fd5b6001600160a01b03929092168252602082015260400190565b6000602082840312156138b857600080fd5b5051919050565b60208082526022908201527f48617350726f787941646d696e3a20756e617574686f72697a65642073656e6460408201526132b960f11b606082015260800190565b8082018082111561105957611059613805565b8181038181111561105957611059613805565b60208082528181018390526000908460408401835b8681101561396a57823561394f81613404565b6001600160a01b03168252918301919083019060010161393c565b509695505050505050565b808202811582820484141761105957611059613805565b6000826139a957634e487b7160e01b600052601260045260246000fd5b500490565b80516139b981613404565b919050565b600060e082840312156139d057600080fd5b60405160e081016001600160401b0381118282101715613a0057634e487b7160e01b600052604160045260246000fd5b604052613a0c836139ae565b8152613a1a602084016139ae565b6020820152613a2b604084016139ae565b6040820152613a3c606084016139ae565b60608201526080830151608082015260a083015160a082015260c083015160c08201528091505092915050565b600081518084526020808501945080840160005b838110156133e65781516001600160a01b031687529582019590820190600101613a7d565b604081526000613ab56040830186613a69565b82810360208401528381526001600160fb1b03841115613ad457600080fd5b8360051b808660208401370160200195945050505050565b6020815260006110566020830184613a69565b606081526000613b126060830186613a69565b8281036020840152613b2481866133b6565b90508281036040840152613b3881856133b6565b969550505050505056fe0f5bb82176feb1b5e747e28471aa92156a04d9f3ab9f45f28e2d704232b93f75aa7c29611027fd4be148712bb54960253b7a7d5998c17769bfc424c2f5f185ada264697066735822122084a2646a7e3b284e947649e3c4cea51c75829bcabae922a4d19175bd5ef9292564736f6c63430008110033",
  "devdoc": {
    "errors": {
      "ErrAdminOfAnyActivePoolForbidden(address)": [
        {
          "details": "Error of admin of any active pool cannot delegate."
        }
      ],
      "ErrCallerMustBeValidatorContract()": [
        {
          "details": "Error of method caller must be validator contract."
        }
      ],
      "ErrCannotInitTransferRON(address,string)": [
        {
          "details": "Error of cannot transfer RON to specified target."
        }
      ],
      "ErrCannotTransferRON()": [
        {
          "details": "Error of cannot transfer RON."
        }
      ],
      "ErrInactivePool(address)": [
        {
          "details": "Error of querying inactive pool."
        }
      ],
      "ErrInsufficientBalance()": [
        {
          "details": "Error of sender has insufficient balance."
        }
      ],
      "ErrInsufficientDelegatingAmount()": [
        {
          "details": "Error of undelegating insufficient amount."
        }
      ],
      "ErrInsufficientStakingAmount()": [
        {
          "details": "Error of insufficient staking amount for unstaking."
        }
      ],
      "ErrInvalidArrays()": [
        {
          "details": "Error of length of input arrays are not of the same."
        }
      ],
      "ErrInvalidCommissionRate()": [
        {
          "details": "Error of setting commission rate exceeds max allowed."
        }
      ],
      "ErrInvalidPoolShare()": [
        {
          "details": "Error of invalid pool share."
        }
      ],
      "ErrOnlyPoolAdminAllowed()": [
        {
          "details": "Error of no one is allowed to call but the pool's admin."
        }
      ],
      "ErrPoolAdminForbidden()": [
        {
          "details": "Error of pool admin is not allowed to call."
        }
      ],
      "ErrRecipientRevert()": [
        {
          "details": "Error of recipient not accepting RON when transfer RON."
        }
      ],
      "ErrStakingAmountLeft()": [
        {
          "details": "Error of invalid staking amount left after deducted."
        }
      ],
      "ErrThreeInteractionAddrsNotEqual()": [
        {
          "details": "Error of three interaction addresses must be of the same in applying for validator candidate."
        }
      ],
      "ErrThreeOperationAddrsNotDistinct()": [
        {
          "details": "Error of three operation addresses must be distinct in applying for validator candidate."
        }
      ],
      "ErrUndelegateTooEarly()": [
        {
          "details": "Error of undelegating too early."
        }
      ],
      "ErrUndelegateZeroAmount()": [
        {
          "details": "Error of undelegating zero amount."
        }
      ],
      "ErrUnstakeTooEarly()": [
        {
          "details": "Error of unstaking too early."
        }
      ],
      "ErrUnstakeZeroAmount()": [
        {
          "details": "Error of unstaking zero amount."
        }
      ],
      "ErrZeroCodeContract()": [
        {
          "details": "Error of set to non-contract."
        }
      ],
      "ErrZeroValue()": [
        {
          "details": "Error of receiving zero message value."
        }
      ]
    },
    "kind": "dev",
    "methods": {
      "applyValidatorCandidate(address,address,address,address,uint256)": {
        "details": "Proposes a candidate to become a validator. Requirements: - The method caller is able to receive RON. - The treasury is able to receive RON. - The amount is larger than or equal to the minimum validator staking amount `minValidatorStakingAmount()`. Emits the event `PoolApproved`.",
        "params": {
          "_candidateAdmin": "the candidate admin will be stored in the validator contract, used for calling function that affects to its candidate, e.g. scheduling maintenance."
        }
      },
      "bulkUndelegate(address[],uint256[])": {
        "details": "Bulk unstakes from a list of candidates. Requirements: - The method caller is not the pool admin. Emits the events `Undelegated`."
      },
      "claimRewards(address[])": {
        "details": "Claims the reward of method caller. Emits the `RewardClaimed` event."
      },
      "cooldownSecsToUndelegate()": {
        "details": "Returns The cooldown time in seconds to undelegate from the last timestamp (s)he delegated."
      },
      "delegate(address)": {
        "details": "Stakes for a validator candidate `_consensusAddr`. Requirements: - The consensus address is a validator candidate. - The method caller is not the pool admin. Emits the `Delegated` event."
      },
      "delegateRewards(address[],address)": {
        "details": "Claims the rewards and delegates them to the consensus address. Requirements: - The method caller is not the pool admin. - The consensus address `_consensusAddrDst` is a validator candidate. Emits the `RewardClaimed` event and the `Delegated` event."
      },
      "execDeductStakingAmount(address,uint256)": {
        "details": "Deducts from staking amount of the validator `_consensusAddr` for `_amount`. Requirements: - The method caller must be validator contract. Emits the event `Unstaked`."
      },
      "execDeprecatePools(address[],uint256)": {
        "details": "Deprecates the pool. - Deduct self-staking amount of the pool admin to zero. - Transfer the deducted amount to the pool admin. - Deactivate the pool admin address in the mapping of active pool admins Requirements: - The method caller is validator contract. Emits the event `PoolsDeprecated` and `Unstaked` events. Emits the event `StakingAmountTransferFailed` if the contract cannot transfer RON back to the pool admin."
      },
      "execRecordRewards(address[],uint256[],uint256)": {
        "details": "Records the amount of rewards `_rewards` for the pools `_consensusAddrs`. Requirements: - The method caller must be validator contract. Emits the event `PoolsUpdated` once the contract recorded the rewards successfully. Emits the event `PoolsUpdateFailed` once the input array lengths are not equal. Emits the event `PoolsUpdateConflicted` when there are some pools which already updated in the period. Note: This method should be called once at the period ending."
      },
      "getCommissionRateRange()": {
        "details": "Returns the commission rate range that the candidate can set."
      },
      "getManySelfStakings(address[])": {
        "details": "Returns the self-staking amounts of the pools."
      },
      "getManyStakingAmounts(address[],address[])": {
        "details": "Returns the staking amounts of the users."
      },
      "getManyStakingTotals(address[])": {
        "details": "Returns the total staking amounts of all users for the pools `_poolAddrs`."
      },
      "getPoolAddressOf(address)": {
        "details": "Returns the consensus address corresponding to the pool admin."
      },
      "getPoolDetail(address)": {
        "details": "Returns the staking pool detail."
      },
      "getReward(address,address)": {
        "details": "Returns the reward amount that user claimable."
      },
      "getRewards(address,address[])": {
        "details": "Returns the claimable reward of the user `_user`."
      },
      "getStakingAmount(address,address)": {
        "details": "Returns the staking amount of an user."
      },
      "getStakingTotal(address)": {
        "details": "Returns the total staking amount of all users for a pool."
      },
      "initialize(address,uint256,uint256,uint256,uint256)": {
        "details": "Initializes the contract storage."
      },
      "isAdminOfActivePool(address)": {
        "details": "Returns whether the `_poolAdminAddr` is currently active."
      },
      "minValidatorStakingAmount()": {
        "details": "Returns the minimum threshold for being a validator candidate."
      },
      "redelegate(address,address,uint256)": {
        "details": "Unstakes an amount of RON from the `_consensusAddrSrc` and stake for `_consensusAddrDst`. Requirements: - The method caller is not the pool admin. - The consensus address `_consensusAddrDst` is a validator candidate. Emits the `Undelegated` event and the `Delegated` event."
      },
      "requestEmergencyExit(address)": {
        "details": "Renounces being a validator candidate and takes back the delegating/staking amount. Requirements: - The consensus address is a validator candidate. - The method caller is the pool admin."
      },
      "requestRenounce(address)": {
        "details": "Renounces being a validator candidate and takes back the delegating/staking amount. Requirements: - The consensus address is a validator candidate. - The method caller is the pool admin."
      },
      "requestUpdateCommissionRate(address,uint256,uint256)": {
        "details": "Pool admin requests update validator commission rate. The request will be forwarded to the candidate manager contract, and the value is getting updated in {ICandidateManager-execRequestUpdateCommissionRate}. Requirements: - The consensus address is a validator candidate. - The method caller is the pool admin. - The `_effectiveDaysOnwards` must be equal to or larger than the {CandidateManager-_minEffectiveDaysOnwards}. - The `_rate` must be in range of [0_00; 100_00]. Emits the event `CommissionRateUpdated`."
      },
      "setCommissionRateRange(uint256,uint256)": {
        "details": "Sets the commission rate range that a candidate can set. Requirements: - The method caller is admin. Emits the `CommissionRateRangeUpdated` event."
      },
      "setCooldownSecsToUndelegate(uint256)": {
        "details": "Sets the cooldown time in seconds to undelegate from the last timestamp (s)he delegated. Requirements: - The method caller is admin. Emits the event `CooldownSecsToUndelegateUpdated`."
      },
      "setMinValidatorStakingAmount(uint256)": {
        "details": "Sets the minimum threshold for being a validator candidate. Requirements: - The method caller is admin. Emits the `MinValidatorStakingAmountUpdated` event."
      },
      "setValidatorContract(address)": {
        "details": "Sets the validator contract. Requirements: - The method caller is admin. - The new address is a contract. Emits the event `ValidatorContractUpdated`."
      },
      "setWaitingSecsToRevoke(uint256)": {
        "details": "Sets the number of seconds that a candidate must wait to be revoked. Requirements: - The method caller is admin. Emits the event `WaitingSecsToRevokeUpdated`."
      },
      "stake(address)": {
        "details": "Self-delegates to the validator candidate `_consensusAddr`. Requirements: - The consensus address is a validator candidate. - The method caller is the pool admin. - The `msg.value` is larger than 0. Emits the event `Staked`."
      },
      "undelegate(address,uint256)": {
        "details": "Unstakes from a validator candidate `_consensusAddr` for `_amount`. Requirements: - The method caller is not the pool admin. Emits the `Undelegated` event."
      },
      "unstake(address,uint256)": {
        "details": "Unstakes from the validator candidate `_consensusAddr` for `_amount`. Requirements: - The consensus address is a validator candidate. - The method caller is the pool admin. Emits the event `Unstaked`."
      },
      "validatorContract()": {
        "details": "Returns the validator contract."
      },
      "waitingSecsToRevoke()": {
        "details": "Returns the number of seconds that a candidate must wait for the renounce request gets affected."
      }
    },
    "version": 1
  },
  "userdoc": {
    "kind": "user",
    "methods": {},
    "version": 1
  },
  "storageLayout": {
    "storage": [
      {
        "astId": 1636,
        "contract": "contracts/ronin/staking/Staking.sol:Staking",
        "label": "_status",
        "offset": 0,
        "slot": "0",
        "type": "t_uint256"
      },
      {
        "astId": 29207,
        "contract": "contracts/ronin/staking/Staking.sol:Staking",
        "label": "_accumulatedRps",
        "offset": 0,
        "slot": "1",
        "type": "t_mapping(t_address,t_mapping(t_uint256,t_struct(PeriodWrapper)10552_storage))"
      },
      {
        "astId": 29215,
        "contract": "contracts/ronin/staking/Staking.sol:Staking",
        "label": "_userReward",
        "offset": 0,
        "slot": "2",
        "type": "t_mapping(t_address,t_mapping(t_address,t_struct(UserRewardFields)11332_storage))"
      },
      {
        "astId": 29221,
        "contract": "contracts/ronin/staking/Staking.sol:Staking",
        "label": "_stakingPool",
        "offset": 0,
        "slot": "3",
        "type": "t_mapping(t_address,t_struct(PoolFields)11338_storage)"
      },
      {
        "astId": 29226,
        "contract": "contracts/ronin/staking/Staking.sol:Staking",
        "label": "______gap",
        "offset": 0,
        "slot": "4",
        "type": "t_array(t_uint256)50_storage"
      },
      {
        "astId": 7051,
        "contract": "contracts/ronin/staking/Staking.sol:Staking",
        "label": "_validatorContract",
        "offset": 0,
        "slot": "54",
        "type": "t_contract(IRoninValidatorSet)11973"
      },
      {
        "astId": 27475,
        "contract": "contracts/ronin/staking/Staking.sol:Staking",
        "label": "_stakingPool",
        "offset": 0,
        "slot": "55",
        "type": "t_mapping(t_address,t_struct(PoolDetail)10939_storage)"
      },
      {
        "astId": 27478,
        "contract": "contracts/ronin/staking/Staking.sol:Staking",
        "label": "_cooldownSecsToUndelegate",
        "offset": 0,
        "slot": "56",
        "type": "t_uint256"
      },
      {
        "astId": 27481,
        "contract": "contracts/ronin/staking/Staking.sol:Staking",
        "label": "_waitingSecsToRevoke",
        "offset": 0,
        "slot": "57",
        "type": "t_uint256"
      },
      {
        "astId": 27486,
        "contract": "contracts/ronin/staking/Staking.sol:Staking",
        "label": "_adminOfActivePoolMapping",
        "offset": 0,
        "slot": "58",
        "type": "t_mapping(t_address,t_address)"
      },
      {
        "astId": 27491,
        "contract": "contracts/ronin/staking/Staking.sol:Staking",
        "label": "______gap",
        "offset": 0,
        "slot": "59",
        "type": "t_array(t_uint256)49_storage"
      },
      {
        "astId": 27927,
        "contract": "contracts/ronin/staking/Staking.sol:Staking",
        "label": "_minValidatorStakingAmount",
        "offset": 0,
        "slot": "108",
        "type": "t_uint256"
      },
      {
        "astId": 27930,
        "contract": "contracts/ronin/staking/Staking.sol:Staking",
        "label": "_maxCommissionRate",
        "offset": 0,
        "slot": "109",
        "type": "t_uint256"
      },
      {
        "astId": 27933,
        "contract": "contracts/ronin/staking/Staking.sol:Staking",
        "label": "_minCommissionRate",
        "offset": 0,
        "slot": "110",
        "type": "t_uint256"
      },
      {
        "astId": 27938,
        "contract": "contracts/ronin/staking/Staking.sol:Staking",
        "label": "______gap",
        "offset": 0,
        "slot": "111",
        "type": "t_array(t_uint256)48_storage"
      },
      {
        "astId": 28680,
        "contract": "contracts/ronin/staking/Staking.sol:Staking",
        "label": "______gap",
        "offset": 0,
        "slot": "159",
        "type": "t_array(t_uint256)50_storage"
      },
      {
        "astId": 1373,
        "contract": "contracts/ronin/staking/Staking.sol:Staking",
        "label": "_initialized",
        "offset": 0,
        "slot": "209",
        "type": "t_uint8"
      },
      {
        "astId": 1376,
        "contract": "contracts/ronin/staking/Staking.sol:Staking",
        "label": "_initializing",
        "offset": 1,
        "slot": "209",
        "type": "t_bool"
      }
    ],
    "types": {
      "t_address": {
        "encoding": "inplace",
        "label": "address",
        "numberOfBytes": "20"
      },
      "t_array(t_uint256)48_storage": {
        "base": "t_uint256",
        "encoding": "inplace",
        "label": "uint256[48]",
        "numberOfBytes": "1536"
      },
      "t_array(t_uint256)49_storage": {
        "base": "t_uint256",
        "encoding": "inplace",
        "label": "uint256[49]",
        "numberOfBytes": "1568"
      },
      "t_array(t_uint256)50_storage": {
        "base": "t_uint256",
        "encoding": "inplace",
        "label": "uint256[50]",
        "numberOfBytes": "1600"
      },
      "t_bool": {
        "encoding": "inplace",
        "label": "bool",
        "numberOfBytes": "1"
      },
      "t_contract(IRoninValidatorSet)11973": {
        "encoding": "inplace",
        "label": "contract IRoninValidatorSet",
        "numberOfBytes": "20"
      },
      "t_mapping(t_address,t_address)": {
        "encoding": "mapping",
        "key": "t_address",
        "label": "mapping(address => address)",
        "numberOfBytes": "32",
        "value": "t_address"
      },
      "t_mapping(t_address,t_mapping(t_address,t_struct(UserRewardFields)11332_storage))": {
        "encoding": "mapping",
        "key": "t_address",
        "label": "mapping(address => mapping(address => struct IRewardPool.UserRewardFields))",
        "numberOfBytes": "32",
        "value": "t_mapping(t_address,t_struct(UserRewardFields)11332_storage)"
      },
      "t_mapping(t_address,t_mapping(t_uint256,t_struct(PeriodWrapper)10552_storage))": {
        "encoding": "mapping",
        "key": "t_address",
        "label": "mapping(address => mapping(uint256 => struct PeriodWrapperConsumer.PeriodWrapper))",
        "numberOfBytes": "32",
        "value": "t_mapping(t_uint256,t_struct(PeriodWrapper)10552_storage)"
      },
      "t_mapping(t_address,t_struct(PoolDetail)10939_storage)": {
        "encoding": "mapping",
        "key": "t_address",
        "label": "mapping(address => struct IBaseStaking.PoolDetail)",
        "numberOfBytes": "32",
        "value": "t_struct(PoolDetail)10939_storage"
      },
      "t_mapping(t_address,t_struct(PoolFields)11338_storage)": {
        "encoding": "mapping",
        "key": "t_address",
        "label": "mapping(address => struct IRewardPool.PoolFields)",
        "numberOfBytes": "32",
        "value": "t_struct(PoolFields)11338_storage"
      },
      "t_mapping(t_address,t_struct(UserRewardFields)11332_storage)": {
        "encoding": "mapping",
        "key": "t_address",
        "label": "mapping(address => struct IRewardPool.UserRewardFields)",
        "numberOfBytes": "32",
        "value": "t_struct(UserRewardFields)11332_storage"
      },
      "t_mapping(t_address,t_uint256)": {
        "encoding": "mapping",
        "key": "t_address",
        "label": "mapping(address => uint256)",
        "numberOfBytes": "32",
        "value": "t_uint256"
      },
      "t_mapping(t_uint256,t_struct(PeriodWrapper)10552_storage)": {
        "encoding": "mapping",
        "key": "t_uint256",
        "label": "mapping(uint256 => struct PeriodWrapperConsumer.PeriodWrapper)",
        "numberOfBytes": "32",
        "value": "t_struct(PeriodWrapper)10552_storage"
      },
      "t_struct(PeriodWrapper)10552_storage": {
        "encoding": "inplace",
        "label": "struct PeriodWrapperConsumer.PeriodWrapper",
        "members": [
          {
            "astId": 10549,
            "contract": "contracts/ronin/staking/Staking.sol:Staking",
            "label": "inner",
            "offset": 0,
            "slot": "0",
            "type": "t_uint256"
          },
          {
            "astId": 10551,
            "contract": "contracts/ronin/staking/Staking.sol:Staking",
            "label": "lastPeriod",
            "offset": 0,
            "slot": "1",
            "type": "t_uint256"
          }
        ],
        "numberOfBytes": "64"
      },
      "t_struct(PoolDetail)10939_storage": {
        "encoding": "inplace",
        "label": "struct IBaseStaking.PoolDetail",
        "members": [
          {
            "astId": 10924,
            "contract": "contracts/ronin/staking/Staking.sol:Staking",
            "label": "addr",
            "offset": 0,
            "slot": "0",
            "type": "t_address"
          },
          {
            "astId": 10926,
            "contract": "contracts/ronin/staking/Staking.sol:Staking",
            "label": "admin",
            "offset": 0,
            "slot": "1",
            "type": "t_address"
          },
          {
            "astId": 10928,
            "contract": "contracts/ronin/staking/Staking.sol:Staking",
            "label": "stakingAmount",
            "offset": 0,
            "slot": "2",
            "type": "t_uint256"
          },
          {
            "astId": 10930,
            "contract": "contracts/ronin/staking/Staking.sol:Staking",
            "label": "stakingTotal",
            "offset": 0,
            "slot": "3",
            "type": "t_uint256"
          },
          {
            "astId": 10934,
            "contract": "contracts/ronin/staking/Staking.sol:Staking",
            "label": "delegatingAmount",
            "offset": 0,
            "slot": "4",
            "type": "t_mapping(t_address,t_uint256)"
          },
          {
            "astId": 10938,
            "contract": "contracts/ronin/staking/Staking.sol:Staking",
            "label": "lastDelegatingTimestamp",
            "offset": 0,
            "slot": "5",
            "type": "t_mapping(t_address,t_uint256)"
          }
        ],
        "numberOfBytes": "192"
      },
      "t_struct(PoolFields)11338_storage": {
        "encoding": "inplace",
        "label": "struct IRewardPool.PoolFields",
        "members": [
          {
            "astId": 11334,
            "contract": "contracts/ronin/staking/Staking.sol:Staking",
            "label": "aRps",
            "offset": 0,
            "slot": "0",
            "type": "t_uint256"
          },
          {
            "astId": 11337,
            "contract": "contracts/ronin/staking/Staking.sol:Staking",
            "label": "shares",
            "offset": 0,
            "slot": "1",
            "type": "t_struct(PeriodWrapper)10552_storage"
          }
        ],
        "numberOfBytes": "96"
      },
      "t_struct(UserRewardFields)11332_storage": {
        "encoding": "inplace",
        "label": "struct IRewardPool.UserRewardFields",
        "members": [
          {
            "astId": 11325,
            "contract": "contracts/ronin/staking/Staking.sol:Staking",
            "label": "debited",
            "offset": 0,
            "slot": "0",
            "type": "t_uint256"
          },
          {
            "astId": 11327,
            "contract": "contracts/ronin/staking/Staking.sol:Staking",
            "label": "aRps",
            "offset": 0,
            "slot": "1",
            "type": "t_uint256"
          },
          {
            "astId": 11329,
            "contract": "contracts/ronin/staking/Staking.sol:Staking",
            "label": "lowestAmount",
            "offset": 0,
            "slot": "2",
            "type": "t_uint256"
          },
          {
            "astId": 11331,
            "contract": "contracts/ronin/staking/Staking.sol:Staking",
            "label": "lastPeriod",
            "offset": 0,
            "slot": "3",
            "type": "t_uint256"
          }
        ],
        "numberOfBytes": "128"
      },
      "t_uint256": {
        "encoding": "inplace",
        "label": "uint256",
        "numberOfBytes": "32"
      },
      "t_uint8": {
        "encoding": "inplace",
        "label": "uint8",
        "numberOfBytes": "1"
      }
    }
  }
}