{
  "address": "0x64f4E02de01F967fFFB8B29b78fb3744584839C2",
  "abi": [
    {
      "inputs": [],
      "stateMutability": "nonpayable",
      "type": "constructor"
    },
    {
      "inputs": [
        {
          "internalType": "enum ContractType",
          "name": "contractType",
          "type": "uint8"
        }
      ],
      "name": "ErrContractTypeNotFound",
      "type": "error"
    },
    {
      "inputs": [],
      "name": "ErrExistentProfile",
      "type": "error"
    },
    {
      "inputs": [],
      "name": "ErrNonExistentProfile",
      "type": "error"
    },
    {
      "inputs": [
        {
          "internalType": "bytes4",
          "name": "msgSig",
          "type": "bytes4"
        },
        {
          "internalType": "enum RoleAccess",
          "name": "expectedRole",
          "type": "uint8"
        }
      ],
      "name": "ErrUnauthorized",
      "type": "error"
    },
    {
      "inputs": [
        {
          "internalType": "address",
          "name": "addr",
          "type": "address"
        }
      ],
      "name": "ErrZeroCodeContract",
      "type": "error"
    },
    {
      "anonymous": false,
      "inputs": [
        {
          "indexed": true,
          "internalType": "enum ContractType",
          "name": "contractType",
          "type": "uint8"
        },
        {
          "indexed": true,
          "internalType": "address",
          "name": "addr",
          "type": "address"
        }
      ],
      "name": "ContractUpdated",
      "type": "event"
    },
    {
      "anonymous": false,
      "inputs": [
        {
          "indexed": false,
          "internalType": "uint8",
          "name": "version",
          "type": "uint8"
        }
      ],
      "name": "Initialized",
      "type": "event"
    },
    {
      "anonymous": false,
      "inputs": [
        {
          "indexed": true,
          "internalType": "address",
          "name": "id",
          "type": "address"
        }
      ],
      "name": "ProfileAdded",
      "type": "event"
    },
    {
      "anonymous": false,
      "inputs": [
        {
          "indexed": true,
          "internalType": "address",
          "name": "id",
          "type": "address"
        },
        {
          "indexed": true,
          "internalType": "enum RoleAccess",
          "name": "addressType",
          "type": "uint8"
        }
      ],
      "name": "ProfileAddressChanged",
      "type": "event"
    },
    {
      "inputs": [
        {
          "components": [
            {
              "internalType": "address",
              "name": "id",
              "type": "address"
            },
            {
              "internalType": "address",
              "name": "consensus",
              "type": "address"
            },
            {
              "internalType": "address",
              "name": "admin",
              "type": "address"
            },
            {
              "internalType": "address payable",
              "name": "treasury",
              "type": "address"
            },
            {
              "internalType": "address",
              "name": "governor",
              "type": "address"
            },
            {
              "internalType": "bytes",
              "name": "pubkey",
              "type": "bytes"
            }
          ],
          "internalType": "struct IProfile.CandidateProfile",
          "name": "profile",
          "type": "tuple"
        }
      ],
      "name": "addNewProfile",
      "outputs": [],
      "stateMutability": "nonpayable",
      "type": "function"
    },
    {
      "inputs": [
        {
          "internalType": "enum ContractType",
          "name": "contractType",
          "type": "uint8"
        }
      ],
      "name": "getContract",
      "outputs": [
        {
          "internalType": "address",
          "name": "contract_",
          "type": "address"
        }
      ],
      "stateMutability": "view",
      "type": "function"
    },
    {
      "inputs": [
        {
          "internalType": "address",
          "name": "id",
          "type": "address"
        }
      ],
      "name": "getId2Profile",
      "outputs": [
        {
          "components": [
            {
              "internalType": "address",
              "name": "id",
              "type": "address"
            },
            {
              "internalType": "address",
              "name": "consensus",
              "type": "address"
            },
            {
              "internalType": "address",
              "name": "admin",
              "type": "address"
            },
            {
              "internalType": "address payable",
              "name": "treasury",
              "type": "address"
            },
            {
              "internalType": "address",
              "name": "governor",
              "type": "address"
            },
            {
              "internalType": "bytes",
              "name": "pubkey",
              "type": "bytes"
            }
          ],
          "internalType": "struct IProfile.CandidateProfile",
          "name": "",
          "type": "tuple"
        }
      ],
      "stateMutability": "view",
      "type": "function"
    },
    {
      "inputs": [
        {
          "internalType": "enum ContractType",
          "name": "contractType",
          "type": "uint8"
        },
        {
          "internalType": "address",
          "name": "addr",
          "type": "address"
        }
      ],
      "name": "setContract",
      "outputs": [],
      "stateMutability": "nonpayable",
      "type": "function"
    }
  ],
  "transactionHash": "0x3fb3f44aa46c7f503b4c47a9475c58e7d16be1090b9942651cf17b90862694cf",
  "args": [],
  "numDeployments": 1,
  "solcInputHash": "33a5e775040e895cdb45bd3122ed5a59",
  "bytecode": "0x608060405234801561001057600080fd5b5061001961001e565b6100de565b603354610100900460ff161561008a5760405162461bcd60e51b815260206004820152602760248201527f496e697469616c697a61626c653a20636f6e747261637420697320696e697469604482015266616c697a696e6760c81b606482015260840160405180910390fd5b60335460ff90811610156100dc576033805460ff191660ff9081179091556040519081527f7f26b83ff96e1f2b6a682f133852f6798a09c465da95921460cefb38474024989060200160405180910390a15b565b61096e806100ed6000396000f3fe608060405234801561001057600080fd5b506004361061004c5760003560e01c8063865e6fd31461005157806392d4875614610066578063de981f1b14610079578063f4660940146100a9575b600080fd5b61006461005f366004610512565b6100c9565b005b610064610074366004610615565b6100e8565b61008c6100873660046106dd565b610130565b6040516001600160a01b0390911681526020015b60405180910390f35b6100bc6100b73660046106ff565b6101b4565b6040516100a0919061071c565b6100d16102e4565b6100da81610340565b6100e48282610379565b5050565b80516001600160a01b0390811660009081526020819052604090208054909116156101265760405163249b38f960e01b815260040160405180910390fd5b6100e4818361041d565b60007fdea3103d22025c269050bea94c0c84688877f12fa22b7e6d2d5d78a9a49aa1cb600083600a811115610167576101676107ba565b60ff1681526020810191909152604001600020546001600160a01b03169050806101af578160405163409140df60e11b81526004016101a691906107d0565b60405180910390fd5b919050565b6040805160c0810182526000808252602082018190529181018290526060808201839052608082019290925260a08101919091526001600160a01b0380831660009081526020818152604091829020825160c081018452815485168152600182015485169281019290925260028101548416928201929092526003820154831660608201526004820154909216608083015260058101805460a08401919061025b906107ea565b80601f0160208091040260200160405190810160405280929190818152602001828054610287906107ea565b80156102d45780601f106102a9576101008083540402835291602001916102d4565b820191906000526020600020905b8154815290600101906020018083116102b757829003601f168201915b5050505050815250509050919050565b7fb53127684a568b3173ae13b9f8a6016e243e63b6e8ee1178d6a717850b5d6103546001600160a01b0316331461033e576000356001600160e01b0319166001604051620f948f60ea1b81526004016101a6929190610824565b565b806001600160a01b03163b60000361037657604051630bfc64a360e21b81526001600160a01b03821660048201526024016101a6565b50565b807fdea3103d22025c269050bea94c0c84688877f12fa22b7e6d2d5d78a9a49aa1cb600084600a8111156103af576103af6107ba565b60ff168152602081019190915260400160002080546001600160a01b0319166001600160a01b03928316179055811682600a8111156103f0576103f06107ba565b6040517f865d1c228a8ea13709cfe61f346f7ff67f1bbd4a18ff31ad3e7147350d317c5990600090a35050565b805182546001600160a01b03199081166001600160a01b039283161784556020830151600185018054831691841691909117905560408301516002850180548316918416919091179055606083015160038501805483169184169190911790556080830151600485018054909216921691909117905560a081015160058301906104a790826108a1565b5080516040516001600160a01b03909116907fc9da0ae38bd4761b72da1045c9b2618f0cd991dcac01e1f9bbf68474025f074390600090a25050565b8035600b81106101af57600080fd5b6001600160a01b038116811461037657600080fd5b80356101af816104f2565b6000806040838503121561052557600080fd5b61052e836104e3565b9150602083013561053e816104f2565b809150509250929050565b634e487b7160e01b600052604160045260246000fd5b60405160c0810167ffffffffffffffff8111828210171561058257610582610549565b60405290565b600082601f83011261059957600080fd5b813567ffffffffffffffff808211156105b4576105b4610549565b604051601f8301601f19908116603f011681019082821181831017156105dc576105dc610549565b816040528381528660208588010111156105f557600080fd5b836020870160208301376000602085830101528094505050505092915050565b60006020828403121561062757600080fd5b813567ffffffffffffffff8082111561063f57600080fd5b9083019060c0828603121561065357600080fd5b61065b61055f565b8235610666816104f2565b81526020830135610676816104f2565b60208201526040830135610689816104f2565b604082015261069a60608401610507565b60608201526106ab60808401610507565b608082015260a0830135828111156106c257600080fd5b6106ce87828601610588565b60a08301525095945050505050565b6000602082840312156106ef57600080fd5b6106f8826104e3565b9392505050565b60006020828403121561071157600080fd5b81356106f8816104f2565b6000602080835260018060a01b03808551168285015280828601511660408501528060408601511660608501528060608601511660808501528060808601511660a08501525060a084015160c08085015280518060e086015260005b818110156107955782810184015186820161010001528301610778565b506101009250600083828701015282601f19601f830116860101935050505092915050565b634e487b7160e01b600052602160045260246000fd5b60208101600b83106107e4576107e46107ba565b91905290565b600181811c908216806107fe57607f821691505b60208210810361081e57634e487b7160e01b600052602260045260246000fd5b50919050565b6001600160e01b0319831681526040810160098310610845576108456107ba565b8260208301529392505050565b601f82111561089c57600081815260208120601f850160051c810160208610156108795750805b601f850160051c820191505b8181101561089857828155600101610885565b5050505b505050565b815167ffffffffffffffff8111156108bb576108bb610549565b6108cf816108c984546107ea565b84610852565b602080601f83116001811461090457600084156108ec5750858301515b600019600386901b1c1916600185901b178555610898565b600085815260208120601f198616915b8281101561093357888601518255948401946001909101908401610914565b50858210156109515787850151600019600388901b60f8161c191681555b5050505050600190811b0190555056fea164736f6c6343000811000a",
  "devdoc": {
    "errors": {
      "ErrContractTypeNotFound(uint8)": [
        {
          "details": "Error of invalid role."
        }
      ],
      "ErrExistentProfile()": [
        {
          "details": "Error of already existed profile."
        }
      ],
      "ErrNonExistentProfile()": [
        {
          "details": "Error of non existed profile."
        }
      ],
      "ErrUnauthorized(bytes4,uint8)": [
        {
          "details": "Error indicating that the caller is unauthorized to perform a specific function.",
          "params": {
            "expectedRole": "The role required to perform the function.",
            "msgSig": "The function signature (bytes4) that the caller is unauthorized to perform."
          }
        }
      ],
      "ErrZeroCodeContract(address)": [
        {
          "details": "Error of set to non-contract."
        }
      ]
    },
    "kind": "dev",
    "methods": {
      "addNewProfile((address,address,address,address,address,bytes))": {
        "details": "Requirements: - The profile must not be existent before. - Only contract admin can call this method."
      },
      "getContract(uint8)": {
        "details": "Returns the address of a contract with a specific role. Throws an error if no contract is set for the specified role.",
        "params": {
          "contractType": "The role of the contract to retrieve."
        },
        "returns": {
          "contract_": "The address of the contract with the specified role."
        }
      },
      "getId2Profile(address)": {
        "details": "Getter to query full `profile` from `id` address."
      },
      "setContract(uint8,address)": {
        "details": "Sets the address of a contract with a specific role. Emits the event {ContractUpdated}.",
        "params": {
          "addr": "The address of the contract to set.",
          "contractType": "The role of the contract to set."
        }
      }
    },
    "version": 1
  },
  "userdoc": {
    "kind": "user",
    "methods": {
      "addNewProfile((address,address,address,address,address,bytes))": {
        "notice": "Add a new profile."
      }
    },
    "version": 1
  },
  "storageLayout": {
    "storage": [
      {
        "astId": 26478,
        "contract": "contracts/ronin/profile/Profile.sol:Profile",
        "label": "_id2Profile",
        "offset": 0,
        "slot": "0",
        "type": "t_mapping(t_address,t_struct(CandidateProfile)9610_storage)"
      },
      {
        "astId": 26483,
        "contract": "contracts/ronin/profile/Profile.sol:Profile",
        "label": "__gap",
        "offset": 0,
        "slot": "1",
        "type": "t_array(t_bytes32)50_storage"
      },
      {
        "astId": 1373,
        "contract": "contracts/ronin/profile/Profile.sol:Profile",
        "label": "_initialized",
        "offset": 0,
        "slot": "51",
        "type": "t_uint8"
      },
      {
        "astId": 1376,
        "contract": "contracts/ronin/profile/Profile.sol:Profile",
        "label": "_initializing",
        "offset": 1,
        "slot": "51",
        "type": "t_bool"
      }
    ],
    "types": {
      "t_address": {
        "encoding": "inplace",
        "label": "address",
        "numberOfBytes": "20"
      },
      "t_address_payable": {
        "encoding": "inplace",
        "label": "address payable",
        "numberOfBytes": "20"
      },
      "t_array(t_bytes32)50_storage": {
        "base": "t_bytes32",
        "encoding": "inplace",
        "label": "bytes32[50]",
        "numberOfBytes": "1600"
      },
      "t_bool": {
        "encoding": "inplace",
        "label": "bool",
        "numberOfBytes": "1"
      },
      "t_bytes32": {
        "encoding": "inplace",
        "label": "bytes32",
        "numberOfBytes": "32"
      },
      "t_bytes_storage": {
        "encoding": "bytes",
        "label": "bytes",
        "numberOfBytes": "32"
      },
      "t_mapping(t_address,t_struct(CandidateProfile)9610_storage)": {
        "encoding": "mapping",
        "key": "t_address",
        "label": "mapping(address => struct IProfile.CandidateProfile)",
        "numberOfBytes": "32",
        "value": "t_struct(CandidateProfile)9610_storage"
      },
      "t_struct(CandidateProfile)9610_storage": {
        "encoding": "inplace",
        "label": "struct IProfile.CandidateProfile",
        "members": [
          {
            "astId": 9594,
            "contract": "contracts/ronin/profile/Profile.sol:Profile",
            "label": "id",
            "offset": 0,
            "slot": "0",
            "type": "t_address"
          },
          {
            "astId": 9597,
            "contract": "contracts/ronin/profile/Profile.sol:Profile",
            "label": "consensus",
            "offset": 0,
            "slot": "1",
            "type": "t_address"
          },
          {
            "astId": 9600,
            "contract": "contracts/ronin/profile/Profile.sol:Profile",
            "label": "admin",
            "offset": 0,
            "slot": "2",
            "type": "t_address"
          },
          {
            "astId": 9603,
            "contract": "contracts/ronin/profile/Profile.sol:Profile",
            "label": "treasury",
            "offset": 0,
            "slot": "3",
            "type": "t_address_payable"
          },
          {
            "astId": 9606,
            "contract": "contracts/ronin/profile/Profile.sol:Profile",
            "label": "governor",
            "offset": 0,
            "slot": "4",
            "type": "t_address"
          },
          {
            "astId": 9609,
            "contract": "contracts/ronin/profile/Profile.sol:Profile",
            "label": "pubkey",
            "offset": 0,
            "slot": "5",
            "type": "t_bytes_storage"
          }
        ],
        "numberOfBytes": "192"
      },
      "t_uint8": {
        "encoding": "inplace",
        "label": "uint8",
        "numberOfBytes": "1"
      }
    }
  }
}