{
  "address": "0x4eAE6579953B57520Bb6d60a8161b04FBeAdeF4a",
  "abi": [
    {
      "inputs": [
        {
          "internalType": "address",
          "name": "_roleSetter",
          "type": "address"
        },
        {
          "internalType": "address",
          "name": "_roninTrustedOrganizationContract",
          "type": "address"
        },
        {
          "internalType": "address",
          "name": "_bridgeContract",
          "type": "address"
        },
        {
          "internalType": "address[]",
          "name": "_relayers",
          "type": "address[]"
        }
      ],
      "stateMutability": "nonpayable",
      "type": "constructor"
    },
    {
      "inputs": [],
      "name": "ErrCallerMustBeBridgeContract",
      "type": "error"
    },
    {
      "inputs": [],
      "name": "ErrCallerMustBeRoninTrustedOrgContract",
      "type": "error"
    },
    {
      "inputs": [],
      "name": "ErrZeroCodeContract",
      "type": "error"
    },
    {
      "anonymous": false,
      "inputs": [
        {
          "indexed": false,
          "internalType": "address",
          "name": "",
          "type": "address"
        }
      ],
      "name": "BridgeContractUpdated",
      "type": "event"
    },
    {
      "anonymous": false,
      "inputs": [
        {
          "indexed": true,
          "internalType": "uint256",
          "name": "round",
          "type": "uint256"
        },
        {
          "indexed": true,
          "internalType": "bytes32",
          "name": "proposalHash",
          "type": "bytes32"
        },
        {
          "components": [
            {
              "internalType": "uint256",
              "name": "nonce",
              "type": "uint256"
            },
            {
              "internalType": "uint256",
              "name": "chainId",
              "type": "uint256"
            },
            {
              "internalType": "uint256",
              "name": "expiryTimestamp",
              "type": "uint256"
            },
            {
              "internalType": "address[]",
              "name": "targets",
              "type": "address[]"
            },
            {
              "internalType": "uint256[]",
              "name": "values",
              "type": "uint256[]"
            },
            {
              "internalType": "bytes[]",
              "name": "calldatas",
              "type": "bytes[]"
            },
            {
              "internalType": "uint256[]",
              "name": "gasAmounts",
              "type": "uint256[]"
            }
          ],
          "indexed": false,
          "internalType": "struct Proposal.ProposalDetail",
          "name": "proposal",
          "type": "tuple"
        },
        {
          "indexed": false,
          "internalType": "bytes32",
          "name": "globalProposalHash",
          "type": "bytes32"
        },
        {
          "components": [
            {
              "internalType": "uint256",
              "name": "nonce",
              "type": "uint256"
            },
            {
              "internalType": "uint256",
              "name": "expiryTimestamp",
              "type": "uint256"
            },
            {
              "internalType": "enum GlobalProposal.TargetOption[]",
              "name": "targetOptions",
              "type": "uint8[]"
            },
            {
              "internalType": "uint256[]",
              "name": "values",
              "type": "uint256[]"
            },
            {
              "internalType": "bytes[]",
              "name": "calldatas",
              "type": "bytes[]"
            },
            {
              "internalType": "uint256[]",
              "name": "gasAmounts",
              "type": "uint256[]"
            }
          ],
          "indexed": false,
          "internalType": "struct GlobalProposal.GlobalProposalDetail",
          "name": "globalProposal",
          "type": "tuple"
        },
        {
          "indexed": false,
          "internalType": "address",
          "name": "creator",
          "type": "address"
        }
      ],
      "name": "GlobalProposalCreated",
      "type": "event"
    },
    {
      "anonymous": false,
      "inputs": [
        {
          "indexed": true,
          "internalType": "bytes32",
          "name": "proposalHash",
          "type": "bytes32"
        }
      ],
      "name": "ProposalApproved",
      "type": "event"
    },
    {
      "anonymous": false,
      "inputs": [
        {
          "indexed": true,
          "internalType": "uint256",
          "name": "chainId",
          "type": "uint256"
        },
        {
          "indexed": true,
          "internalType": "uint256",
          "name": "round",
          "type": "uint256"
        },
        {
          "indexed": true,
          "internalType": "bytes32",
          "name": "proposalHash",
          "type": "bytes32"
        },
        {
          "components": [
            {
              "internalType": "uint256",
              "name": "nonce",
              "type": "uint256"
            },
            {
              "internalType": "uint256",
              "name": "chainId",
              "type": "uint256"
            },
            {
              "internalType": "uint256",
              "name": "expiryTimestamp",
              "type": "uint256"
            },
            {
              "internalType": "address[]",
              "name": "targets",
              "type": "address[]"
            },
            {
              "internalType": "uint256[]",
              "name": "values",
              "type": "uint256[]"
            },
            {
              "internalType": "bytes[]",
              "name": "calldatas",
              "type": "bytes[]"
            },
            {
              "internalType": "uint256[]",
              "name": "gasAmounts",
              "type": "uint256[]"
            }
          ],
          "indexed": false,
          "internalType": "struct Proposal.ProposalDetail",
          "name": "proposal",
          "type": "tuple"
        },
        {
          "indexed": false,
          "internalType": "address",
          "name": "creator",
          "type": "address"
        }
      ],
      "name": "ProposalCreated",
      "type": "event"
    },
    {
      "anonymous": false,
      "inputs": [
        {
          "indexed": true,
          "internalType": "bytes32",
          "name": "proposalHash",
          "type": "bytes32"
        },
        {
          "indexed": false,
          "internalType": "bool[]",
          "name": "successCalls",
          "type": "bool[]"
        },
        {
          "indexed": false,
          "internalType": "bytes[]",
          "name": "returnDatas",
          "type": "bytes[]"
        }
      ],
      "name": "ProposalExecuted",
      "type": "event"
    },
    {
      "anonymous": false,
      "inputs": [
        {
          "indexed": true,
          "internalType": "bytes32",
          "name": "proposalHash",
          "type": "bytes32"
        }
      ],
      "name": "ProposalExpired",
      "type": "event"
    },
    {
      "anonymous": false,
      "inputs": [
        {
          "indexed": true,
          "internalType": "bytes32",
          "name": "proposalHash",
          "type": "bytes32"
        }
      ],
      "name": "ProposalRejected",
      "type": "event"
    },
    {
      "anonymous": false,
      "inputs": [
        {
          "indexed": true,
          "internalType": "bytes32",
          "name": "proposalHash",
          "type": "bytes32"
        },
        {
          "indexed": true,
          "internalType": "address",
          "name": "voter",
          "type": "address"
        },
        {
          "indexed": false,
          "internalType": "enum Ballot.VoteType",
          "name": "support",
          "type": "uint8"
        },
        {
          "indexed": false,
          "internalType": "uint256",
          "name": "weight",
          "type": "uint256"
        }
      ],
      "name": "ProposalVoted",
      "type": "event"
    },
    {
      "anonymous": false,
      "inputs": [
        {
          "indexed": true,
          "internalType": "bytes32",
          "name": "role",
          "type": "bytes32"
        },
        {
          "indexed": true,
          "internalType": "bytes32",
          "name": "previousAdminRole",
          "type": "bytes32"
        },
        {
          "indexed": true,
          "internalType": "bytes32",
          "name": "newAdminRole",
          "type": "bytes32"
        }
      ],
      "name": "RoleAdminChanged",
      "type": "event"
    },
    {
      "anonymous": false,
      "inputs": [
        {
          "indexed": true,
          "internalType": "bytes32",
          "name": "role",
          "type": "bytes32"
        },
        {
          "indexed": true,
          "internalType": "address",
          "name": "account",
          "type": "address"
        },
        {
          "indexed": true,
          "internalType": "address",
          "name": "sender",
          "type": "address"
        }
      ],
      "name": "RoleGranted",
      "type": "event"
    },
    {
      "anonymous": false,
      "inputs": [
        {
          "indexed": true,
          "internalType": "bytes32",
          "name": "role",
          "type": "bytes32"
        },
        {
          "indexed": true,
          "internalType": "address",
          "name": "account",
          "type": "address"
        },
        {
          "indexed": true,
          "internalType": "address",
          "name": "sender",
          "type": "address"
        }
      ],
      "name": "RoleRevoked",
      "type": "event"
    },
    {
      "anonymous": false,
      "inputs": [
        {
          "indexed": false,
          "internalType": "address",
          "name": "",
          "type": "address"
        }
      ],
      "name": "RoninTrustedOrganizationContractUpdated",
      "type": "event"
    },
    {
      "inputs": [],
      "name": "DEFAULT_ADMIN_ROLE",
      "outputs": [
        {
          "internalType": "bytes32",
          "name": "",
          "type": "bytes32"
        }
      ],
      "stateMutability": "view",
      "type": "function"
    },
    {
      "inputs": [],
      "name": "DOMAIN_SEPARATOR",
      "outputs": [
        {
          "internalType": "bytes32",
          "name": "",
          "type": "bytes32"
        }
      ],
      "stateMutability": "view",
      "type": "function"
    },
    {
      "inputs": [],
      "name": "RELAYER_ROLE",
      "outputs": [
        {
          "internalType": "bytes32",
          "name": "",
          "type": "bytes32"
        }
      ],
      "stateMutability": "view",
      "type": "function"
    },
    {
      "inputs": [],
      "name": "bridgeContract",
      "outputs": [
        {
          "internalType": "address",
          "name": "",
          "type": "address"
        }
      ],
      "stateMutability": "view",
      "type": "function"
    },
    {
      "inputs": [
        {
          "internalType": "uint256",
          "name": "_period",
          "type": "uint256"
        },
        {
          "internalType": "uint256",
          "name": "_epoch",
          "type": "uint256"
        }
      ],
      "name": "bridgeOperatorsRelayed",
      "outputs": [
        {
          "internalType": "bool",
          "name": "",
          "type": "bool"
        }
      ],
      "stateMutability": "view",
      "type": "function"
    },
    {
      "inputs": [
        {
          "internalType": "address",
          "name": "_proxy",
          "type": "address"
        },
        {
          "internalType": "address",
          "name": "_newAdmin",
          "type": "address"
        }
      ],
      "name": "changeProxyAdmin",
      "outputs": [],
      "stateMutability": "nonpayable",
      "type": "function"
    },
    {
      "inputs": [],
      "name": "getProposalExpiryDuration",
      "outputs": [
        {
          "internalType": "uint256",
          "name": "",
          "type": "uint256"
        }
      ],
      "stateMutability": "view",
      "type": "function"
    },
    {
      "inputs": [
        {
          "internalType": "address",
          "name": "_proxy",
          "type": "address"
        }
      ],
      "name": "getProxyAdmin",
      "outputs": [
        {
          "internalType": "address",
          "name": "",
          "type": "address"
        }
      ],
      "stateMutability": "view",
      "type": "function"
    },
    {
      "inputs": [
        {
          "internalType": "address",
          "name": "_proxy",
          "type": "address"
        }
      ],
      "name": "getProxyImplementation",
      "outputs": [
        {
          "internalType": "address",
          "name": "",
          "type": "address"
        }
      ],
      "stateMutability": "view",
      "type": "function"
    },
    {
      "inputs": [
        {
          "internalType": "bytes32",
          "name": "role",
          "type": "bytes32"
        }
      ],
      "name": "getRoleAdmin",
      "outputs": [
        {
          "internalType": "bytes32",
          "name": "",
          "type": "bytes32"
        }
      ],
      "stateMutability": "view",
      "type": "function"
    },
    {
      "inputs": [
        {
          "internalType": "bytes32",
          "name": "role",
          "type": "bytes32"
        },
        {
          "internalType": "uint256",
          "name": "index",
          "type": "uint256"
        }
      ],
      "name": "getRoleMember",
      "outputs": [
        {
          "internalType": "address",
          "name": "",
          "type": "address"
        }
      ],
      "stateMutability": "view",
      "type": "function"
    },
    {
      "inputs": [
        {
          "internalType": "bytes32",
          "name": "role",
          "type": "bytes32"
        }
      ],
      "name": "getRoleMemberCount",
      "outputs": [
        {
          "internalType": "uint256",
          "name": "",
          "type": "uint256"
        }
      ],
      "stateMutability": "view",
      "type": "function"
    },
    {
      "inputs": [
        {
          "internalType": "bytes32",
          "name": "role",
          "type": "bytes32"
        },
        {
          "internalType": "address",
          "name": "account",
          "type": "address"
        }
      ],
      "name": "grantRole",
      "outputs": [],
      "stateMutability": "nonpayable",
      "type": "function"
    },
    {
      "inputs": [
        {
          "internalType": "bytes32",
          "name": "role",
          "type": "bytes32"
        },
        {
          "internalType": "address",
          "name": "account",
          "type": "address"
        }
      ],
      "name": "hasRole",
      "outputs": [
        {
          "internalType": "bool",
          "name": "",
          "type": "bool"
        }
      ],
      "stateMutability": "view",
      "type": "function"
    },
    {
      "inputs": [],
      "name": "lastSyncedBridgeOperatorSetInfo",
      "outputs": [
        {
          "components": [
            {
              "internalType": "uint256",
              "name": "period",
              "type": "uint256"
            },
            {
              "internalType": "uint256",
              "name": "epoch",
              "type": "uint256"
            },
            {
              "internalType": "address[]",
              "name": "operators",
              "type": "address[]"
            }
          ],
          "internalType": "struct BridgeOperatorsBallot.BridgeOperatorSet",
          "name": "",
          "type": "tuple"
        }
      ],
      "stateMutability": "view",
      "type": "function"
    },
    {
      "inputs": [
        {
          "internalType": "uint256",
          "name": "_chainId",
          "type": "uint256"
        },
        {
          "internalType": "uint256",
          "name": "_round",
          "type": "uint256"
        }
      ],
      "name": "proposalRelayed",
      "outputs": [
        {
          "internalType": "bool",
          "name": "",
          "type": "bool"
        }
      ],
      "stateMutability": "view",
      "type": "function"
    },
    {
      "inputs": [
        {
          "components": [
            {
              "internalType": "uint256",
              "name": "period",
              "type": "uint256"
            },
            {
              "internalType": "uint256",
              "name": "epoch",
              "type": "uint256"
            },
            {
              "internalType": "address[]",
              "name": "operators",
              "type": "address[]"
            }
          ],
          "internalType": "struct BridgeOperatorsBallot.BridgeOperatorSet",
          "name": "_ballot",
          "type": "tuple"
        },
        {
          "components": [
            {
              "internalType": "uint8",
              "name": "v",
              "type": "uint8"
            },
            {
              "internalType": "bytes32",
              "name": "r",
              "type": "bytes32"
            },
            {
              "internalType": "bytes32",
              "name": "s",
              "type": "bytes32"
            }
          ],
          "internalType": "struct SignatureConsumer.Signature[]",
          "name": "_signatures",
          "type": "tuple[]"
        }
      ],
      "name": "relayBridgeOperators",
      "outputs": [],
      "stateMutability": "nonpayable",
      "type": "function"
    },
    {
      "inputs": [
        {
          "components": [
            {
              "internalType": "uint256",
              "name": "nonce",
              "type": "uint256"
            },
            {
              "internalType": "uint256",
              "name": "expiryTimestamp",
              "type": "uint256"
            },
            {
              "internalType": "enum GlobalProposal.TargetOption[]",
              "name": "targetOptions",
              "type": "uint8[]"
            },
            {
              "internalType": "uint256[]",
              "name": "values",
              "type": "uint256[]"
            },
            {
              "internalType": "bytes[]",
              "name": "calldatas",
              "type": "bytes[]"
            },
            {
              "internalType": "uint256[]",
              "name": "gasAmounts",
              "type": "uint256[]"
            }
          ],
          "internalType": "struct GlobalProposal.GlobalProposalDetail",
          "name": "_globalProposal",
          "type": "tuple"
        },
        {
          "internalType": "enum Ballot.VoteType[]",
          "name": "_supports",
          "type": "uint8[]"
        },
        {
          "components": [
            {
              "internalType": "uint8",
              "name": "v",
              "type": "uint8"
            },
            {
              "internalType": "bytes32",
              "name": "r",
              "type": "bytes32"
            },
            {
              "internalType": "bytes32",
              "name": "s",
              "type": "bytes32"
            }
          ],
          "internalType": "struct SignatureConsumer.Signature[]",
          "name": "_signatures",
          "type": "tuple[]"
        }
      ],
      "name": "relayGlobalProposal",
      "outputs": [],
      "stateMutability": "nonpayable",
      "type": "function"
    },
    {
      "inputs": [
        {
          "components": [
            {
              "internalType": "uint256",
              "name": "nonce",
              "type": "uint256"
            },
            {
              "internalType": "uint256",
              "name": "chainId",
              "type": "uint256"
            },
            {
              "internalType": "uint256",
              "name": "expiryTimestamp",
              "type": "uint256"
            },
            {
              "internalType": "address[]",
              "name": "targets",
              "type": "address[]"
            },
            {
              "internalType": "uint256[]",
              "name": "values",
              "type": "uint256[]"
            },
            {
              "internalType": "bytes[]",
              "name": "calldatas",
              "type": "bytes[]"
            },
            {
              "internalType": "uint256[]",
              "name": "gasAmounts",
              "type": "uint256[]"
            }
          ],
          "internalType": "struct Proposal.ProposalDetail",
          "name": "_proposal",
          "type": "tuple"
        },
        {
          "internalType": "enum Ballot.VoteType[]",
          "name": "_supports",
          "type": "uint8[]"
        },
        {
          "components": [
            {
              "internalType": "uint8",
              "name": "v",
              "type": "uint8"
            },
            {
              "internalType": "bytes32",
              "name": "r",
              "type": "bytes32"
            },
            {
              "internalType": "bytes32",
              "name": "s",
              "type": "bytes32"
            }
          ],
          "internalType": "struct SignatureConsumer.Signature[]",
          "name": "_signatures",
          "type": "tuple[]"
        }
      ],
      "name": "relayProposal",
      "outputs": [],
      "stateMutability": "nonpayable",
      "type": "function"
    },
    {
      "inputs": [
        {
          "internalType": "bytes32",
          "name": "role",
          "type": "bytes32"
        },
        {
          "internalType": "address",
          "name": "account",
          "type": "address"
        }
      ],
      "name": "renounceRole",
      "outputs": [],
      "stateMutability": "nonpayable",
      "type": "function"
    },
    {
      "inputs": [
        {
          "internalType": "bytes32",
          "name": "role",
          "type": "bytes32"
        },
        {
          "internalType": "address",
          "name": "account",
          "type": "address"
        }
      ],
      "name": "revokeRole",
      "outputs": [],
      "stateMutability": "nonpayable",
      "type": "function"
    },
    {
      "inputs": [],
      "name": "roninTrustedOrganizationContract",
      "outputs": [
        {
          "internalType": "address",
          "name": "",
          "type": "address"
        }
      ],
      "stateMutability": "view",
      "type": "function"
    },
    {
      "inputs": [
        {
          "internalType": "uint256",
          "name": "",
          "type": "uint256"
        }
      ],
      "name": "round",
      "outputs": [
        {
          "internalType": "uint256",
          "name": "",
          "type": "uint256"
        }
      ],
      "stateMutability": "view",
      "type": "function"
    },
    {
      "inputs": [
        {
          "internalType": "address",
          "name": "_addr",
          "type": "address"
        }
      ],
      "name": "setBridgeContract",
      "outputs": [],
      "stateMutability": "nonpayable",
      "type": "function"
    },
    {
      "inputs": [
        {
          "internalType": "uint256",
          "name": "_expiryDuration",
          "type": "uint256"
        }
      ],
      "name": "setProposalExpiryDuration",
      "outputs": [],
      "stateMutability": "nonpayable",
      "type": "function"
    },
    {
      "inputs": [
        {
          "internalType": "address",
          "name": "_addr",
          "type": "address"
        }
      ],
      "name": "setRoninTrustedOrganizationContract",
      "outputs": [],
      "stateMutability": "nonpayable",
      "type": "function"
    },
    {
      "inputs": [
        {
          "internalType": "bytes4",
          "name": "interfaceId",
          "type": "bytes4"
        }
      ],
      "name": "supportsInterface",
      "outputs": [
        {
          "internalType": "bool",
          "name": "",
          "type": "bool"
        }
      ],
      "stateMutability": "view",
      "type": "function"
    },
    {
      "inputs": [
        {
          "internalType": "uint256",
          "name": "",
          "type": "uint256"
        },
        {
          "internalType": "uint256",
          "name": "",
          "type": "uint256"
        }
      ],
      "name": "vote",
      "outputs": [
        {
          "internalType": "enum VoteStatusConsumer.VoteStatus",
          "name": "status",
          "type": "uint8"
        },
        {
          "internalType": "bytes32",
          "name": "hash",
          "type": "bytes32"
        },
        {
          "internalType": "uint256",
          "name": "againstVoteWeight",
          "type": "uint256"
        },
        {
          "internalType": "uint256",
          "name": "forVoteWeight",
          "type": "uint256"
        },
        {
          "internalType": "uint256",
          "name": "expiryTimestamp",
          "type": "uint256"
        }
      ],
      "stateMutability": "view",
      "type": "function"
    }
  ],
  "transactionHash": "0xc5b7c876c64a7de95f1d21527aabfe9cd956970cf8bce51d45477e434dd33491",
  "args": [
    "0xC37b5d7891D73F2064B0eE044844e053872Ef941",
    "0xA6edA3797569465B45dfca839F0A1454a449CD4e",
    "0xFc4319Ae9e6134C708b88D5Ad5Da1A4a83372502",
    [
      "0xC37b5d7891D73F2064B0eE044844e053872Ef941"
    ]
  ],
  "numDeployments": 4,
  "solcInputHash": "d00a46919a8595a1f6b347cca5808c82",
  "bytecode": "0x60806040523480156200001157600080fd5b5060405162004b1d38038062004b1d833981016040819052620000349162000488565b8282600160ff1b806200004681600455565b50604080516020808201839052601660608301527f524f4e494e5f474f5645524e414e43455f41444d494e000000000000000000006080808401919091526107e4838501528351808403909101815260a0830184528051908201207f599a80fcaa47b95e2323ab4d34d34e0cc9feda4b843edafcc30c7bdf60ea15bf60c08401527f7e7935007966eb860f4a2ee3dcc9fd53fb3205ce2aa86b0126d4893d4d4c14b960e08401527fc89efdaa54c0f20c7adf612882df0950f5a951637e0307cdcb4c672f298b8bc6610100840152610120808401919091528351808403909101815261014090920190925280519101207ff8704f8860d9e985bf6c52ec4738bd10fe31487599b36c0944f746ea09dc256b14620001a95760405162461bcd60e51b815260206004820152601f60248201527f476f7665726e616e636541646d696e3a20696e76616c696420646f6d61696e00604482015260640160405180910390fd5b620001b4836200024c565b620001bf82620002a1565b50620001d191506000905085620002f0565b60005b815181101562000241576200022c7fe2b7fb3b832174769106daebcfd6d1970523240dda11281102db9363b83b0dc483838151811062000218576200021862000593565b60200260200101516200030060201b60201c565b806200023881620005a9565b915050620001d4565b5050505050620005d1565b600580546001600160a01b0319166001600160a01b0383169081179091556040519081527ffd6f5f93d69a07c593a09be0b208bff13ab4ffd6017df3b33433d63bdc59b4d7906020015b60405180910390a150565b600680546001600160a01b0319166001600160a01b0383169081179091556040519081527f5cbd8a0bb00196365d5eb3457c6734e7f06666c3c78e5469b4c9deec7edae0489060200162000296565b620002fc828262000300565b5050565b6200031782826200034360201b62000c201760201c565b60008281526001602090815260409091206200033e91839062000ca4620003e3821b17901c565b505050565b6000828152602081815260408083206001600160a01b038516845290915290205460ff16620002fc576000828152602081815260408083206001600160a01b03851684529091529020805460ff191660011790556200039f3390565b6001600160a01b0316816001600160a01b0316837f2f8788117e7eff1d82e926ec794901d17c78024a50270940304540a733656f0d60405160405180910390a45050565b6000620003fa836001600160a01b03841662000403565b90505b92915050565b60008181526001830160205260408120546200044c57508154600181810184556000848152602080822090930184905584548482528286019093526040902091909155620003fd565b506000620003fd565b80516001600160a01b03811681146200046d57600080fd5b919050565b634e487b7160e01b600052604160045260246000fd5b600080600080608085870312156200049f57600080fd5b620004aa8562000455565b93506020620004bb81870162000455565b9350620004cb6040870162000455565b60608701519093506001600160401b0380821115620004e957600080fd5b818801915088601f830112620004fe57600080fd5b81518181111562000513576200051362000472565b8060051b604051601f19603f830116810181811085821117156200053b576200053b62000472565b60405291825284820192508381018501918b8311156200055a57600080fd5b938501935b828510156200058357620005738562000455565b845293850193928501926200055f565b989b979a50959850505050505050565b634e487b7160e01b600052603260045260246000fd5b600060018201620005ca57634e487b7160e01b600052601160045260246000fd5b5060010190565b61453c80620005e16000396000f3fe608060405234801561001057600080fd5b50600436106101c45760003560e01c80638fb7ac7c116100f9578063bc96180b11610097578063cd59658311610071578063cd59658314610421578063d547741f14610432578063f3b7dead14610445578063f589262d1461045857600080fd5b8063bc96180b146103f3578063beb3a6a1146103fb578063ca15c8731461040e57600080fd5b8063926d7d7f116100d3578063926d7d7f14610368578063a217fddf1461037d578063b384abef14610385578063b5e337de146103e057600080fd5b80638fb7ac7c1461032f5780639010d07c1461034257806391d148541461035557600080fd5b80633644e515116101665780635e05cf9e116101405780635e05cf9e146102e157806362e52e5f146102f45780637d465f79146103095780637eff275e1461031c57600080fd5b80633644e515146102a857806336568abe146102bd5780635511cde1146102d057600080fd5b8063248a9ca3116101a2578063248a9ca3146102315780632e96a6fb146102625780632f2ff15d1461027557806334d5f37b1461028857600080fd5b806301ffc9a7146101c95780630b26cf66146101f1578063204e1c7a14610206575b600080fd5b6101dc6101d736600461352d565b61046b565b60405190151581526020015b60405180910390f35b6102046101ff36600461356c565b610496565b005b61021961021436600461356c565b6104f4565b6040516001600160a01b0390911681526020016101e8565b61025461023f366004613589565b60009081526020819052604090206001015490565b6040519081526020016101e8565b610204610270366004613589565b6105e6565b6102046102833660046135a2565b61060e565b610254610296366004613589565b60026020526000908152604090205481565b6102546000805160206144e783398151915281565b6102046102cb3660046135a2565b610638565b6005546001600160a01b0316610219565b6102046102ef366004613661565b6106b6565b6102fc6106f3565b6040516101e89190613741565b610204610317366004613770565b610795565b61020461032a3660046137b3565b6107e8565b6101dc61033d3660046137e1565b610914565b6102196103503660046137e1565b61094e565b6101dc6103633660046135a2565b61096d565b6102546000805160206144c783398151915281565b610254600081565b6103cf6103933660046137e1565b600360208181526000938452604080852090915291835291208054600182015460028301549383015460069093015460ff909216939092909185565b6040516101e8959493929190613819565b6102046103ee36600461356c565b610996565b6102546109e8565b6101dc6104093660046137e1565b6109f8565b61025461041c366004613589565b610a29565b6006546001600160a01b0316610219565b6102046104403660046135a2565b610a40565b61021961045336600461356c565b610a65565b61020461046636600461384e565b610b32565b60006001600160e01b03198216635a05180f60e01b1480610490575061049082610cb9565b92915050565b3330146104be5760405162461bcd60e51b81526004016104b5906138be565b60405180910390fd5b6000816001600160a01b03163b116104e85760405162461bcd60e51b81526004016104b590613905565b6104f181610cee565b50565b6000806000836001600160a01b031660405161051a90635c60da1b60e01b815260040190565b600060405180830381855afa9150503d8060008114610555576040519150601f19603f3d011682016040523d82523d6000602084013e61055a565b606091505b5091509150816105ca5760405162461bcd60e51b815260206004820152603560248201527f476f7665726e616e636541646d696e3a2070726f78792063616c6c2060696d706044820152741b195b595b9d185d1a5bdb8a0a580819985a5b1959605a1b60648201526084016104b5565b808060200190518101906105de9190613949565b949350505050565b3330146106055760405162461bcd60e51b81526004016104b5906138be565b6104f181600455565b60008281526020819052604090206001015461062981610d43565b6106338383610d4d565b505050565b6001600160a01b03811633146106a85760405162461bcd60e51b815260206004820152602f60248201527f416363657373436f6e74726f6c3a2063616e206f6e6c792072656e6f756e636560448201526e103937b632b9903337b91039b2b63360891b60648201526084016104b5565b6106b28282610d6f565b5050565b6000805160206144c78339815191526106ce81610d43565b6106eb86868686866000805160206144e783398151915233610d91565b505050505050565b61071760405180606001604052806000815260200160008152602001606081525090565b6040805160608101825260078054825260085460208084019190915260098054855181840281018401875281815294959394938601939283018282801561078757602002820191906000526020600020905b81546001600160a01b03168152600190910190602001808311610769575b505050505081525050905090565b6000805160206144c78339815191526107ad81610d43565b6106eb86868686866000805160206144e78339815191526107d66005546001600160a01b031690565b6006546001600160a01b031633610df1565b3330146108075760405162461bcd60e51b81526004016104b5906138be565b604080516001600160a01b0383811660248084019190915283518084039091018152604490920183526020820180516001600160e01b03166308f2839760e41b179052915160009285169161085b9161398a565b6000604051808303816000865af19150503d8060008114610898576040519150601f19603f3d011682016040523d82523d6000602084013e61089d565b606091505b50509050806106335760405162461bcd60e51b815260206004820152603960248201527f476f7665726e616e636541646d696e3a2070726f78792063616c6c206063686160448201527f6e676541646d696e28616464726573732960206661696c65640000000000000060648201526084016104b5565b600080600084815260036020908152604080832086845290915290205460ff16600481111561094557610945613803565b14159392505050565b60008281526001602052604081206109669083610e52565b9392505050565b6000918252602082815260408084206001600160a01b0393909316845291905290205460ff1690565b3330146109b55760405162461bcd60e51b81526004016104b5906138be565b6000816001600160a01b03163b116109df5760405162461bcd60e51b81526004016104b590613905565b6104f181610e5e565b60006109f360045490565b905090565b6000806000848152600a6020908152604080832086845290915290205460ff16600481111561094557610945613803565b600081815260016020526040812061049090610eac565b600082815260208190526040902060010154610a5b81610d43565b6106338383610d6f565b6000806000836001600160a01b0316604051610a8b906303e1469160e61b815260040190565b600060405180830381855afa9150503d8060008114610ac6576040519150601f19603f3d011682016040523d82523d6000602084013e610acb565b606091505b5091509150816105ca5760405162461bcd60e51b815260206004820152602c60248201527f476f7665726e616e636541646d696e3a2070726f78792063616c6c206061646d60448201526b1a5b8a0a580819985a5b195960a21b60648201526084016104b5565b6000805160206144c7833981519152610b4a81610d43565b610b6c848484610b58610eb6565b6000805160206144e7833981519152611022565b6006546001600160a01b0316634bb5274a63901d627760e01b610b9260408801886139a6565b604051602401610ba39291906139ef565b60408051601f198184030181529181526020820180516001600160e01b03166001600160e01b03199485161790525160e084901b9092168252610be891600401613a69565b600060405180830381600087803b158015610c0257600080fd5b505af1158015610c16573d6000803e3d6000fd5b5050505050505050565b610c2a828261096d565b6106b2576000828152602081815260408083206001600160a01b03851684529091529020805460ff19166001179055610c603390565b6001600160a01b0316816001600160a01b0316837f2f8788117e7eff1d82e926ec794901d17c78024a50270940304540a733656f0d60405160405180910390a45050565b6000610966836001600160a01b0384166113ad565b60006001600160e01b03198216637965db0b60e01b148061049057506301ffc9a760e01b6001600160e01b0319831614610490565b600680546001600160a01b0319166001600160a01b0383169081179091556040519081527f5cbd8a0bb00196365d5eb3457c6734e7f06666c3c78e5469b4c9deec7edae048906020015b60405180910390a150565b6104f181336113fc565b610d578282610c20565b60008281526001602052604090206106339082610ca4565b610d798282611460565b600082815260016020526040902061063390826114c5565b610da3610d9d88613cd6565b826114da565b506000610db7610db289613cd6565b6115c2565b9050610c16610dc589613cd6565b88888888610ddd89610dd8896000611761565b6117b7565b610dec8a610dd88a6001611761565b6117de565b6000610e07610dff8b613e1b565b858585611c6c565b5090506000610e1d610e188c613e1b565b611d61565b9050610e45828b8b8b8b610e368c610dd8896000611761565b610dec8d610dd88a6001611761565b5050505050505050505050565b60006109668383611ebb565b600580546001600160a01b0319166001600160a01b0383169081179091556040519081527ffd6f5f93d69a07c593a09be0b208bff13ab4ffd6017df3b33433d63bdc59b4d790602001610d38565b6000610490825490565b6000806000610ecd6005546001600160a01b031690565b6040805160048152602480820183526020820180516001600160e01b0316637de5dedd60e01b17905291516001600160a01b039390931692634bb5274a92610f16929101613a69565b6040516020818303038152906040529060e01b6020820180516001600160e01b038381831617835250505050604051610f4f919061398a565b600060405180830381855afa9150503d8060008114610f8a576040519150601f19603f3d011682016040523d82523d6000602084013e610f8f565b606091505b5091509150816110075760405162461bcd60e51b815260206004820152603860248201527f476f7665726e616e636541646d696e3a2070726f78792063616c6c20606d696e60448201527f696d756d566f7465576569676874282960206661696c6564000000000000000060648201526084016104b5565b8080602001905181019061101b9190613ee5565b9250505090565b60075485351080159061103a57506008546020860135115b6110ac5760405162461bcd60e51b815260206004820152603a60248201527f424f73476f7665726e616e636552656c61793a20717565727920666f72206f7560448201527f74646174656420627269646765206f70657261746f722073657400000000000060648201526084016104b5565b6110b7856007611ee5565b826111155760405162461bcd60e51b815260206004820152602860248201527f424f73476f7665726e616e636552656c61793a20696e76616c696420617272616044820152670f240d8cadccee8d60c31b60648201526084016104b5565b366000846001600160401b0381111561113057611130613a7c565b604051908082528060200260200182016040528015611159578160200160208202803683370190505b50905060008061116889612185565b9050600061117686836117b7565b905060005b888110156112a55789898281811061119557611195613efe565b6060029190910196506111c09050826111b16020890189613f14565b88602001358960400135612237565b8582815181106111d2576111d2613efe565b60200260200101906001600160a01b031690816001600160a01b03168152505084818151811061120457611204613efe565b60200260200101516001600160a01b0316846001600160a01b0316106112765760405162461bcd60e51b815260206004820152602160248201527f424f73476f7665726e616e636552656c61793a20696e76616c6964206f7264656044820152603960f91b60648201526084016104b5565b84818151811061128857611288613efe565b60200260200101519350808061129d90613f4d565b91505061117b565b5089356000908152600a60209081526040808320828e013584529091528120906112ce8661225f565b905088811061135e57600081116113375760405162461bcd60e51b815260206004820152602760248201527f424f73476f7665726e616e636552656c61793a20696e76616c696420766f7465604482015266081dd95a59da1d60ca1b60648201526084016104b5565b815460ff191660011782558b600761134f8282613f8a565b905050505050505050506113a6565b60405162461bcd60e51b815260206004820181905260248201527f424f73476f7665726e616e636552656c61793a2072656c6179206661696c656460448201526064016104b5565b5050505050565b60008181526001830160205260408120546113f457508154600181810184556000848152602080822090930184905584548482528286019093526040902091909155610490565b506000610490565b611406828261096d565b6106b25761141e816001600160a01b031660146123fa565b6114298360206123fa565b60405160200161143a92919061405d565b60408051601f198184030181529082905262461bcd60e51b82526104b591600401613a69565b61146a828261096d565b156106b2576000828152602081815260408083206001600160a01b0385168085529252808320805460ff1916905551339285917ff6391f5c32d9c69d2a47ea670b442974b53935d1edc7fd64eb21e047a839171b9190a45050565b6000610966836001600160a01b038416612595565b60208201516000908082036115315760405162461bcd60e51b815260206004820181905260248201527f436f7265476f7665726e616e63653a20696e76616c696420636861696e20696460448201526064016104b5565b60045461153f908590612688565b600061154a856115c2565b905061155b82828760400151612784565b8551909350831461157e5760405162461bcd60e51b81526004016104b5906140d2565b8083837fa57d40f1496988cf60ab7c9d5ba4ff83647f67d3898d441a3aaf21b651678fd988886040516115b2929190614226565b60405180910390a4505092915050565b6000806000806000808660800151905060008760600151905060008860a00151516001600160401b038111156115fa576115fa613a7c565b604051908082528060200260200182016040528015611623578160200160208202803683370190505b5060c08a015190915060005b825181101561168c578a60a00151818151811061164e5761164e613efe565b60200260200101518051906020012083828151811061166f5761166f613efe565b60209081029190910101528061168481613f4d565b91505061162f565b506020835102602084012097506020845102602085012096506020825102602083012095506020815102602082012094507fd051578048e6ff0bbc9fca3b65a42088dbde10f36ca841de566711087ad9b08a60001b8a600001518b602001518c604001518b8b8b8b60405160200161173c989796959493929190978852602088019690965260408701949094526060860192909252608085015260a084015260c083015260e08201526101000190565b6040516020818303038152906040528051906020012098505050505050505050919050565b604051600090611799907fd900570327c4c0df8dd6bdd522b7da7e39145dd049d2fd4602276adcd511e3c29085908590602001614260565b60405160208183030381529060405280519060200120905092915050565b60405161190160f01b60208201526022810183905260428101829052600090606201611799565b84158015906117ec57508483145b6118465760405162461bcd60e51b815260206004820152602560248201527f476f7665726e616e636552656c61793a20696e76616c6964206172726179206c6044820152640cadccee8d60db1b60648201526084016104b5565b60008080856001600160401b0381111561186257611862613a7c565b60405190808252806020026020018201604052801561188b578160200160208202803683370190505b5090506000866001600160401b038111156118a8576118a8613a7c565b6040519080825280602002602001820160405280156118d1578160200160208202803683370190505b50905060008060003660005b8b811015611ac7578c8c828181106118f7576118f7613efe565b90506060020191508e8e8281811061191157611911613efe565b90506020020160208101906119269190614285565b9250600083600181111561193c5761193c613803565b036119a6576119618b6119526020850185613f14565b84602001358560400135612237565b945084878a61196f81613f4d565b9b508151811061198157611981613efe565b60200260200101906001600160a01b031690816001600160a01b031681525050611a51565b60018360018111156119ba576119ba613803565b036119f0576119d08a6119526020850185613f14565b94508486896119de81613f4d565b9a508151811061198157611981613efe565b60405162461bcd60e51b815260206004820152603060248201527f476f7665726e616e636552656c61793a20717565727920666f7220756e73757060448201526f706f7274656420766f7465207479706560801b60648201526084016104b5565b846001600160a01b0316846001600160a01b031610611ab25760405162461bcd60e51b815260206004820152601e60248201527f476f7665726e616e636552656c61793a20696e76616c6964206f72646572000060448201526064016104b5565b84935080611abf81613f4d565b9150506118dd565b50505085845250508281526020808c015160009081526003825260408082208e51835290925290812090611af9610eb6565b90506000611b068561289f565b9050818110611b7e5760008111611b2f5760405162461bcd60e51b81526004016104b5906142a2565b825460ff1916600190811784558301546040517f5c819725ea53655a3b898f3df59b66489761935454e9212ca1e5ebd759953d0b90600090a2611b72838f612a23565b50505050505050611c63565b600082611b89612a90565b611b9391906142e6565b611b9e9060016142f9565b90506000611bab8661289f565b9050818110611c1b5760008111611bd45760405162461bcd60e51b81526004016104b5906142a2565b845460ff1916600317855560018501546040517f55295d4ce992922fa2e5ffbf3a3dcdb367de0a15e125ace083456017fd22060f90600090a2505050505050505050611c63565b60405162461bcd60e51b815260206004820152601d60248201527f476f7665726e616e636552656c61793a2072656c6179206661696c656400000060448201526064016104b5565b50505050505050565b611cac6040518060e00160405280600081526020016000815260200160008152602001606081526020016060815260200160608152602001606081525090565b6000611cb9868686612bd7565b9150611cd06004548361268890919063ffffffff16565b6000611cdb836115c2565b9050611ced6000828960200151612784565b83519092508214611d105760405162461bcd60e51b81526004016104b5906140d2565b80827f771d78ae9e5fca95a532fb0971d575d0ce9b59d14823c063e08740137e0e0eca85611d3d8b611d61565b8b89604051611d4f949392919061430c565b60405180910390a35094509492505050565b6000806000806000808660600151905060008760400151905060008860800151516001600160401b03811115611d9957611d99613a7c565b604051908082528060200260200182016040528015611dc2578160200160208202803683370190505b5060a08a015190915060005b8251811015611e2b578a608001518181518110611ded57611ded613efe565b602002602001015180519060200120838281518110611e0e57611e0e613efe565b602090810291909101015280611e2381613f4d565b915050611dce565b5082516020908102848201208551820286830120845183028584012084518402858501208e518f860151604080517f1463f426c05aff2c1a7a0957a71c9898bc8b47142540538e79ee25ee911413509881019890985287019190915260608601526080850184905260a0850183905260c0850182905260e08501819052929b50909950975095506101000161173c565b6000826000018281548110611ed257611ed2613efe565b9060005260206000200154905092915050565b6000611ef460408401846139a6565b905011611f575760405162461bcd60e51b815260206004820152602b60248201527f4272696467654f70657261746f727342616c6c6f743a20696e76616c6964206160448201526a0e4e4c2f240d8cadccee8d60ab1b60648201526084016104b5565b60008080611f6860408601866139a6565b80806020026020016040519081016040528093929190818152602001838360200280828437600092018290525060028901805460408051602080840282018101909252828152979850929695509093509150830182828015611ff357602002820191906000526020600020905b81546001600160a01b03168152600190910190602001808311611fd5575b505050505090506020825102602083012093506020815102602082012092508284036120875760405162461bcd60e51b815260206004820152603b60248201527f4272696467654f70657261746f727342616c6c6f743a20627269646765206f7060448201527f657261746f722073657420697320616c726561647920766f746564000000000060648201526084016104b5565b60008260008151811061209c5761209c613efe565b602002602001015190506000600190505b8351811015610c16578381815181106120c8576120c8613efe565b60200260200101516001600160a01b0316826001600160a01b0316106121565760405162461bcd60e51b815260206004820152603860248201527f4272696467654f70657261746f727342616c6c6f743a20696e76616c6964206f60448201527f72646572206f6620627269646765206f70657261746f7273000000000000000060648201526084016104b5565b83818151811061216857612168613efe565b60200260200101519150808061217d90613f4d565b9150506120ad565b6000808061219660408501856139a6565b80806020026020016040519081016040528093929190818152602001838360200280828437600092019190915250508251602090810293810193909320604080517fd679a49e9e099fa9ed83a5446aaec83e746b03ec6723d6f5efb29d37d7f0b78a818701528935818301529885013560608a01526080808a01929092528051808a03909201825260a0909801909752505084519401939093209392505050565b600080600061224887878787612ddd565b9150915061225581612eca565b5095945050505050565b60008060006122766005546001600160a01b031690565b6001600160a01b0316634bb5274a63d9d5dadb60e01b8660405160240161229d91906143f3565b60408051601f198184030181529181526020820180516001600160e01b03166001600160e01b03199094169390931790925290516122de9190602401613a69565b6040516020818303038152906040529060e01b6020820180516001600160e01b038381831617835250505050604051612317919061398a565b600060405180830381855afa9150503d8060008114612352576040519150601f19603f3d011682016040523d82523d6000602084013e612357565b606091505b5091509150816123e65760405162461bcd60e51b815260206004820152604e60248201527f4d61696e636861696e476f7665726e616e636541646d696e3a2070726f78792060448201527f63616c6c206073756d427269646765566f74657257656967687473286164647260648201526d195cdcd6d74a580819985a5b195960921b608482015260a4016104b5565b808060200190518101906105de9190613ee5565b60606000612409836002613f66565b6124149060026142f9565b6001600160401b0381111561242b5761242b613a7c565b6040519080825280601f01601f191660200182016040528015612455576020820181803683370190505b509050600360fc1b8160008151811061247057612470613efe565b60200101906001600160f81b031916908160001a905350600f60fb1b8160018151811061249f5761249f613efe565b60200101906001600160f81b031916908160001a90535060006124c3846002613f66565b6124ce9060016142f9565b90505b6001811115612546576f181899199a1a9b1b9c1cb0b131b232b360811b85600f166010811061250257612502613efe565b1a60f81b82828151811061251857612518613efe565b60200101906001600160f81b031916908160001a90535060049490941c9361253f81614440565b90506124d1565b5083156109665760405162461bcd60e51b815260206004820181905260248201527f537472696e67733a20686578206c656e67746820696e73756666696369656e7460448201526064016104b5565b6000818152600183016020526040812054801561267e5760006125b96001836142e6565b85549091506000906125cd906001906142e6565b90508181146126325760008660000182815481106125ed576125ed613efe565b906000526020600020015490508087600001848154811061261057612610613efe565b6000918252602080832090910192909255918252600188019052604090208390555b855486908061264357612643614457565b600190038181906000526020600020016000905590558560010160008681526020019081526020016000206000905560019350505050610490565b6000915050610490565b60008260600151511180156126a65750816080015151826060015151145b80156126bb57508160a0015151826060015151145b80156126d057508160c0015151826060015151145b61271c5760405162461bcd60e51b815260206004820152601e60248201527f50726f706f73616c3a20696e76616c6964206172726179206c656e677468000060448201526064016104b5565b61272681426142f9565b826040015111156106b25760405162461bcd60e51b815260206004820152602260248201527f50726f706f73616c3a20696e76616c6964206578706972792074696d6573746160448201526106d760f41b60648201526084016104b5565b600083815260026020526040812054908190036127b557506000838152600260205260409020600190819055612874565b60008481526003602090815260408083208484529091528120906000825460ff1660048111156127e7576127e7613803565b0361284e5760405162461bcd60e51b815260206004820152603160248201527f436f7265476f7665726e616e63653a2063757272656e742070726f706f73616c604482015270081a5cc81b9bdd0818dbdb5c1b195d1959607a1b60648201526084016104b5565b6000868152600260205260408120805490919061286a90613f4d565b9182905550925050505b6000938452600360209081526040808620838752909152909320600181019290925560069091015590565b60008060006128b66005546001600160a01b031690565b6001600160a01b0316634bb5274a635f14a1c360e01b866040516024016128dd91906143f3565b60408051601f198184030181529181526020820180516001600160e01b03166001600160e01b031990941693909317909252905161291e9190602401613a69565b6040516020818303038152906040529060e01b6020820180516001600160e01b038381831617835250505050604051612957919061398a565b600060405180830381855afa9150503d8060008114612992576040519150601f19603f3d011682016040523d82523d6000602084013e612997565b606091505b5091509150816123e65760405162461bcd60e51b815260206004820152604b60248201527f4d61696e636861696e476f7665726e616e636541646d696e3a2070726f78792060448201527f63616c6c206073756d476f7665726e6f7257656967687473286164647265737360648201526a16d74a580819985a5b195960aa1b608482015260a4016104b5565b612a2c8161323e565b156106b257815460ff19166002178255600080612a4883613258565b9150915083600101547fe134987599ae266ec90edeff1b26125b287dbb57b10822649432d1bb26537fba8383604051612a8292919061446d565b60405180910390a250505050565b6000806000612aa76005546001600160a01b031690565b6040805160048152602480820183526020820180516001600160e01b031663926323d560e01b17905291516001600160a01b039390931692634bb5274a92612af0929101613a69565b6040516020818303038152906040529060e01b6020820180516001600160e01b038381831617835250505050604051612b29919061398a565b600060405180830381855afa9150503d8060008114612b64576040519150601f19603f3d011682016040523d82523d6000602084013e612b69565b606091505b5091509150816110075760405162461bcd60e51b815260206004820152603360248201527f476f7665726e616e636541646d696e3a2070726f78792063616c6c2060746f74604482015272185b15d95a59da1d1cca0a580819985a5b1959606a1b60648201526084016104b5565b612c176040518060e00160405280600081526020016000815260200160008152602001606081526020016060815260200160608152602001606081525090565b83518152602080850151604080840191909152600091830191909152840151516001600160401b03811115612c4e57612c4e613a7c565b604051908082528060200260200182016040528015612c77578160200160208202803683370190505b5060608083019190915284015160808083019190915284015160a08083019190915284015160c082015260005b846040015151811015612dd557600185604001518281518110612cc957612cc9613efe565b60200260200101516001811115612ce257612ce2613803565b03612d23578282606001518281518110612cfe57612cfe613efe565b60200260200101906001600160a01b031690816001600160a01b031681525050612dc3565b600085604001518281518110612d3b57612d3b613efe565b60200260200101516001811115612d5457612d54613803565b03612d70578382606001518281518110612cfe57612cfe613efe565b60405162461bcd60e51b815260206004820152602260248201527f476c6f62616c50726f706f73616c3a20756e737570706f727465642074617267604482015261195d60f21b60648201526084016104b5565b80612dcd81613f4d565b915050612ca4565b509392505050565b6000807f7fffffffffffffffffffffffffffffff5d576e7357a4501ddfe92f46681b20a0831115612e145750600090506003612ec1565b8460ff16601b14158015612e2c57508460ff16601c14155b15612e3d5750600090506004612ec1565b6040805160008082526020820180845289905260ff881692820192909252606081018690526080810185905260019060a0016020604051602081039080840390855afa158015612e91573d6000803e3d6000fd5b5050604051601f1901519150506001600160a01b038116612eba57600060019250925050612ec1565b9150600090505b94509492505050565b6000816004811115612ede57612ede613803565b03612ee65750565b6001816004811115612efa57612efa613803565b03612f475760405162461bcd60e51b815260206004820152601860248201527f45434453413a20696e76616c6964207369676e6174757265000000000000000060448201526064016104b5565b6002816004811115612f5b57612f5b613803565b03612fa85760405162461bcd60e51b815260206004820152601f60248201527f45434453413a20696e76616c6964207369676e6174757265206c656e6774680060448201526064016104b5565b6003816004811115612fbc57612fbc613803565b036130145760405162461bcd60e51b815260206004820152602260248201527f45434453413a20696e76616c6964207369676e6174757265202773272076616c604482015261756560f01b60648201526084016104b5565b600481600481111561302857613028613803565b036104f15760405162461bcd60e51b815260206004820152602260248201527f45434453413a20696e76616c6964207369676e6174757265202776272076616c604482015261756560f01b60648201526084016104b5565b6004830154811015613139578260080160008460040183815481106130a7576130a7613efe565b60009182526020808320909101546001600160a01b031683528201929092526040018120805460ff1916905560048401805460078601929190849081106130f0576130f0613efe565b60009182526020808320909101546001600160a01b031683528201929092526040018120805460ff1916815560018101829055600201558061313181613f4d565b915050613080565b5060005b60058301548110156131f65782600801600084600501838154811061316457613164613efe565b60009182526020808320909101546001600160a01b031683528201929092526040018120805460ff1916905560058401805460078601929190849081106131ad576131ad613efe565b60009182526020808320909101546001600160a01b031683528201929092526040018120805460ff191681556001810182905560020155806131ee81613f4d565b91505061313d565b50815460ff1916825560006001830181905560028301819055600383018190556132249060048401906134fb565b6132326005830160006134fb565b60006006830155919050565b600081602001516000148061049057505060200151461490565b6060806132648361323e565b6132bc5760405162461bcd60e51b815260206004820152602360248201527f50726f706f73616c3a20717565727920666f7220696e76616c696420636861696044820152621b925960ea1b60648201526084016104b5565b8260600151516001600160401b038111156132d9576132d9613a7c565b604051908082528060200260200182016040528015613302578160200160208202803683370190505b5091508260600151516001600160401b0381111561332257613322613a7c565b60405190808252806020026020018201604052801561335557816020015b60608152602001906001900390816133405790505b50905060005b8360600151518110156134f5578360c00151818151811061337e5761337e613efe565b60200260200101515a116133d45760405162461bcd60e51b815260206004820152601a60248201527f50726f706f73616c3a20696e73756666696369656e742067617300000000000060448201526064016104b5565b836060015181815181106133ea576133ea613efe565b60200260200101516001600160a01b03168460800151828151811061341157613411613efe565b60200260200101518560c00151838151811061342f5761342f613efe565b6020026020010151908660a00151848151811061344e5761344e613efe565b6020026020010151604051613463919061398a565b600060405180830381858888f193505050503d80600081146134a1576040519150601f19603f3d011682016040523d82523d6000602084013e6134a6565b606091505b508483815181106134b9576134b9613efe565b602002602001018484815181106134d2576134d2613efe565b602090810291909101019190915290151590526134ee81613f4d565b905061335b565b50915091565b50805460008255906000526020600020908101906104f191905b808211156135295760008155600101613515565b5090565b60006020828403121561353f57600080fd5b81356001600160e01b03198116811461096657600080fd5b6001600160a01b03811681146104f157600080fd5b60006020828403121561357e57600080fd5b813561096681613557565b60006020828403121561359b57600080fd5b5035919050565b600080604083850312156135b557600080fd5b8235915060208301356135c781613557565b809150509250929050565b60008083601f8401126135e457600080fd5b5081356001600160401b038111156135fb57600080fd5b6020830191508360208260051b850101111561361657600080fd5b9250929050565b60008083601f84011261362f57600080fd5b5081356001600160401b0381111561364657600080fd5b60208301915083602060608302850101111561361657600080fd5b60008060008060006060868803121561367957600080fd5b85356001600160401b038082111561369057600080fd5b9087019060e0828a0312156136a457600080fd5b909550602087013590808211156136ba57600080fd5b6136c689838a016135d2565b909650945060408801359150808211156136df57600080fd5b506136ec8882890161361d565b969995985093965092949392505050565b600081518084526020808501945080840160005b838110156137365781516001600160a01b031687529582019590820190600101613711565b509495945050505050565b602081528151602082015260208201516040820152600060408301516060808401526105de60808401826136fd565b60008060008060006060868803121561378857600080fd5b85356001600160401b038082111561379f57600080fd5b9087019060c0828a0312156136a457600080fd5b600080604083850312156137c657600080fd5b82356137d181613557565b915060208301356135c781613557565b600080604083850312156137f457600080fd5b50508035926020909101359150565b634e487b7160e01b600052602160045260246000fd5b60a081016005871061382d5761382d613803565b95815260208101949094526040840192909252606083015260809091015290565b60008060006040848603121561386357600080fd5b83356001600160401b038082111561387a57600080fd5b908501906060828803121561388e57600080fd5b909350602085013590808211156138a457600080fd5b506138b18682870161361d565b9497909650939450505050565b60208082526027908201527f476f7665726e616e636541646d696e3a206f6e6c7920616c6c6f7765642073656040820152661b198b58d85b1b60ca1b606082015260800190565b60208082526024908201527f476f7665726e616e636541646d696e3a2073657420746f206e6f6e2d636f6e746040820152631c9858dd60e21b606082015260800190565b60006020828403121561395b57600080fd5b815161096681613557565b60005b83811015613981578181015183820152602001613969565b50506000910152565b6000825161399c818460208701613966565b9190910192915050565b6000808335601e198436030181126139bd57600080fd5b8301803591506001600160401b038211156139d757600080fd5b6020019150600581901b360382131561361657600080fd5b60208082528181018390526000908460408401835b86811015613a32578235613a1781613557565b6001600160a01b031682529183019190830190600101613a04565b509695505050505050565b60008151808452613a55816020860160208601613966565b601f01601f19169290920160200192915050565b6020815260006109666020830184613a3d565b634e487b7160e01b600052604160045260246000fd5b60405160e081016001600160401b0381118282101715613ab457613ab4613a7c565b60405290565b60405160c081016001600160401b0381118282101715613ab457613ab4613a7c565b604051601f8201601f191681016001600160401b0381118282101715613b0457613b04613a7c565b604052919050565b60006001600160401b03821115613b2557613b25613a7c565b5060051b60200190565b600082601f830112613b4057600080fd5b81356020613b55613b5083613b0c565b613adc565b82815260059290921b84018101918181019086841115613b7457600080fd5b8286015b84811015613a32578035613b8b81613557565b8352918301918301613b78565b600082601f830112613ba957600080fd5b81356020613bb9613b5083613b0c565b82815260059290921b84018101918181019086841115613bd857600080fd5b8286015b84811015613a325780358352918301918301613bdc565b6000601f8381840112613c0557600080fd5b82356020613c15613b5083613b0c565b82815260059290921b85018101918181019087841115613c3457600080fd5b8287015b84811015613cca5780356001600160401b0380821115613c585760008081fd5b818a0191508a603f830112613c6d5760008081fd5b85820135604082821115613c8357613c83613a7c565b613c94828b01601f19168901613adc565b92508183528c81838601011115613cab5760008081fd5b8181850189850137506000908201870152845250918301918301613c38565b50979650505050505050565b600060e08236031215613ce857600080fd5b613cf0613a92565b82358152602083013560208201526040830135604082015260608301356001600160401b0380821115613d2257600080fd5b613d2e36838701613b2f565b60608401526080850135915080821115613d4757600080fd5b613d5336838701613b98565b608084015260a0850135915080821115613d6c57600080fd5b613d7836838701613bf3565b60a084015260c0850135915080821115613d9157600080fd5b50613d9e36828601613b98565b60c08301525092915050565b600281106104f157600080fd5b600082601f830112613dc857600080fd5b81356020613dd8613b5083613b0c565b82815260059290921b84018101918181019086841115613df757600080fd5b8286015b84811015613a32578035613e0e81613daa565b8352918301918301613dfb565b600060c08236031215613e2d57600080fd5b613e35613aba565b823581526020830135602082015260408301356001600160401b0380821115613e5d57600080fd5b613e6936838701613db7565b60408401526060850135915080821115613e8257600080fd5b613e8e36838701613b98565b60608401526080850135915080821115613ea757600080fd5b613eb336838701613bf3565b608084015260a0850135915080821115613ecc57600080fd5b50613ed936828601613b98565b60a08301525092915050565b600060208284031215613ef757600080fd5b5051919050565b634e487b7160e01b600052603260045260246000fd5b600060208284031215613f2657600080fd5b813560ff8116811461096657600080fd5b634e487b7160e01b600052601160045260246000fd5b600060018201613f5f57613f5f613f37565b5060010190565b808202811582820484141761049057610490613f37565b6000813561049081613557565b81358155600160208084013582840155600283016040850135601e19863603018112613fb557600080fd5b850180356001600160401b03811115613fcd57600080fd5b83820191508060051b3603821315613fe457600080fd5b68010000000000000000811115613ffd57613ffd613a7c565b8254818455808210156140315760008481528581208381019083015b8082101561402d5782825590880190614019565b5050505b50600092835260208320925b81811015610c165761404e83613f7d565b8482015591840191850161403d565b7f416363657373436f6e74726f6c3a206163636f756e7420000000000000000000815260008351614095816017850160208801613966565b7001034b99036b4b9b9b4b733903937b6329607d1b60179184019182015283516140c6816028840160208801613966565b01602801949350505050565b60208082526026908201527f436f7265476f7665726e616e63653a20696e76616c69642070726f706f73616c604082015265206e6f6e636560d01b606082015260800190565b600081518084526020808501945080840160005b838110156137365781518752958201959082019060010161412c565b600081518084526020808501808196508360051b8101915082860160005b8581101561419057828403895261417e848351613a3d565b98850198935090840190600101614166565b5091979650505050505050565b8051825260208101516020830152604081015160408301526000606082015160e060608501526141d060e08501826136fd565b9050608083015184820360808601526141e98282614118565b91505060a083015184820360a08601526142038282614148565b91505060c083015184820360c086015261421d8282614118565b95945050505050565b604081526000614239604083018561419d565b905060018060a01b03831660208301529392505050565b600281106104f1576104f1613803565b838152602081018390526060810161427783614250565b826040830152949350505050565b60006020828403121561429757600080fd5b813561096681613daa565b60208082526024908201527f476f7665726e616e636552656c61793a20696e76616c696420766f74652077656040820152631a59da1d60e21b606082015260800190565b8181038181111561049057610490613f37565b8082018082111561049057610490613f37565b60808152600061431f608083018761419d565b60208681850152838203604085015260c08201865183528187015182840152604087015160c0604085015281815180845260e0860191508483019350600092505b8083101561438957835161437381614250565b8252928401926001929092019190840190614360565b506060890151935084810360608601526143a38185614118565b9350505050608086015182820360808401526143bf8282614148565b91505060a086015182820360a08401526143d98282614118565b935050505061421d60608301846001600160a01b03169052565b6020808252825182820181905260009190848201906040850190845b818110156144345783516001600160a01b03168352928401929184019160010161440f565b50909695505050505050565b60008161444f5761444f613f37565b506000190190565b634e487b7160e01b600052603160045260246000fd5b604080825283519082018190526000906020906060840190828701845b828110156144a857815115158452928401929084019060010161448a565b505050838103828501526144bc8186614148565b969550505050505056fee2b7fb3b832174769106daebcfd6d1970523240dda11281102db9363b83b0dc4f8704f8860d9e985bf6c52ec4738bd10fe31487599b36c0944f746ea09dc256ba2646970667358221220f3434580bc75f62be6103aa148e625b272ef8ff5b3a67a6e8d346ba61184379e64736f6c63430008110033",
  "devdoc": {
    "errors": {
      "ErrCallerMustBeBridgeContract()": [
        {
          "details": "Error of method caller must be bridge contract."
        }
      ],
      "ErrCallerMustBeRoninTrustedOrgContract()": [
        {
          "details": "Error of method caller must be Ronin trusted org contract."
        }
      ],
      "ErrZeroCodeContract()": [
        {
          "details": "Error of set to non-contract."
        }
      ]
    },
    "kind": "dev",
    "methods": {
      "bridgeContract()": {
        "details": "Returns the bridge contract."
      },
      "bridgeOperatorsRelayed(uint256,uint256)": {
        "details": "Returns whether the voter `_voter` casted vote for bridge operators at a specific period."
      },
      "changeProxyAdmin(address,address)": {
        "details": "Changes the admin of `_proxy` to `newAdmin`. Requirements: - This contract must be the current admin of `_proxy`."
      },
      "getProposalExpiryDuration()": {
        "details": "Returns the proposal expiry duration."
      },
      "getProxyAdmin(address)": {
        "details": "Returns the current admin of `_proxy`. Requirements: - This contract must be the admin of `_proxy`."
      },
      "getProxyImplementation(address)": {
        "details": "Returns the current implementation of `_proxy`. Requirements: - This contract must be the admin of `_proxy`."
      },
      "getRoleAdmin(bytes32)": {
        "details": "Returns the admin role that controls `role`. See {grantRole} and {revokeRole}. To change a role's admin, use {_setRoleAdmin}."
      },
      "getRoleMember(bytes32,uint256)": {
        "details": "Returns one of the accounts that have `role`. `index` must be a value between 0 and {getRoleMemberCount}, non-inclusive. Role bearers are not sorted in any particular way, and their ordering may change at any point. WARNING: When using {getRoleMember} and {getRoleMemberCount}, make sure you perform all queries on the same block. See the following https://forum.openzeppelin.com/t/iterating-over-elements-on-enumerableset-in-openzeppelin-contracts/2296[forum post] for more information."
      },
      "getRoleMemberCount(bytes32)": {
        "details": "Returns the number of accounts that have `role`. Can be used together with {getRoleMember} to enumerate all bearers of a role."
      },
      "grantRole(bytes32,address)": {
        "details": "Grants `role` to `account`. If `account` had not been already granted `role`, emits a {RoleGranted} event. Requirements: - the caller must have ``role``'s admin role. May emit a {RoleGranted} event."
      },
      "hasRole(bytes32,address)": {
        "details": "Returns `true` if `account` has been granted `role`."
      },
      "lastSyncedBridgeOperatorSetInfo()": {
        "details": "Returns the synced bridge operator set info."
      },
      "proposalRelayed(uint256,uint256)": {
        "details": "Returns whether the voter `_voter` casted vote for the proposal."
      },
      "relayBridgeOperators((uint256,uint256,address[]),(uint8,bytes32,bytes32)[])": {
        "details": "See `BOsGovernanceRelay-_relayVotesBySignatures`. Requirements: - The method caller is relayer."
      },
      "relayGlobalProposal((uint256,uint256,uint8[],uint256[],bytes[],uint256[]),uint8[],(uint8,bytes32,bytes32)[])": {
        "details": "See `GovernanceRelay-_relayGlobalProposal`. Requirements: - The method caller is relayer."
      },
      "relayProposal((uint256,uint256,uint256,address[],uint256[],bytes[],uint256[]),uint8[],(uint8,bytes32,bytes32)[])": {
        "details": "See `GovernanceRelay-_relayProposal`. Requirements: - The method caller is relayer."
      },
      "renounceRole(bytes32,address)": {
        "details": "Revokes `role` from the calling account. Roles are often managed via {grantRole} and {revokeRole}: this function's purpose is to provide a mechanism for accounts to lose their privileges if they are compromised (such as when a trusted device is misplaced). If the calling account had been revoked `role`, emits a {RoleRevoked} event. Requirements: - the caller must be `account`. May emit a {RoleRevoked} event."
      },
      "revokeRole(bytes32,address)": {
        "details": "Revokes `role` from `account`. If `account` had been granted `role`, emits a {RoleRevoked} event. Requirements: - the caller must have ``role``'s admin role. May emit a {RoleRevoked} event."
      },
      "roninTrustedOrganizationContract()": {
        "details": "Returns the ronin trusted organization contract."
      },
      "setBridgeContract(address)": {
        "details": "Sets the bridge contract. Requirements: - The method caller is admin. - The new address is a contract. Emits the event `BridgeContractUpdated`."
      },
      "setProposalExpiryDuration(uint256)": {
        "details": "Sets the expiry duration for a new proposal. Requirements: - Only allowing self-call to this method, since this contract does not have admin."
      },
      "setRoninTrustedOrganizationContract(address)": {
        "details": "Sets the ronin trusted organization contract. Requirements: - The method caller is admin. - The new address is a contract. Emits the event `RoninTrustedOrganizationContractUpdated`."
      },
      "supportsInterface(bytes4)": {
        "details": "See {IERC165-supportsInterface}."
      }
    },
    "version": 1
  },
  "userdoc": {
    "kind": "user",
    "methods": {
      "round(uint256)": {
        "notice": "chain id = 0 for global proposal"
      }
    },
    "version": 1
  },
  "storageLayout": {
    "storage": [
      {
        "astId": 24,
        "contract": "contracts/mainchain/MainchainGovernanceAdmin.sol:MainchainGovernanceAdmin",
        "label": "_roles",
        "offset": 0,
        "slot": "0",
        "type": "t_mapping(t_bytes32,t_struct(RoleData)19_storage)"
      },
      {
        "astId": 338,
        "contract": "contracts/mainchain/MainchainGovernanceAdmin.sol:MainchainGovernanceAdmin",
        "label": "_roleMembers",
        "offset": 0,
        "slot": "1",
        "type": "t_mapping(t_bytes32,t_struct(AddressSet)4026_storage)"
      },
      {
        "astId": 7780,
        "contract": "contracts/mainchain/MainchainGovernanceAdmin.sol:MainchainGovernanceAdmin",
        "label": "round",
        "offset": 0,
        "slot": "2",
        "type": "t_mapping(t_uint256,t_uint256)"
      },
      {
        "astId": 7788,
        "contract": "contracts/mainchain/MainchainGovernanceAdmin.sol:MainchainGovernanceAdmin",
        "label": "vote",
        "offset": 0,
        "slot": "3",
        "type": "t_mapping(t_uint256,t_mapping(t_uint256,t_struct(ProposalVote)7706_storage))"
      },
      {
        "astId": 7790,
        "contract": "contracts/mainchain/MainchainGovernanceAdmin.sol:MainchainGovernanceAdmin",
        "label": "_proposalExpiryDuration",
        "offset": 0,
        "slot": "4",
        "type": "t_uint256"
      },
      {
        "astId": 6142,
        "contract": "contracts/mainchain/MainchainGovernanceAdmin.sol:MainchainGovernanceAdmin",
        "label": "_roninTrustedOrganizationContract",
        "offset": 0,
        "slot": "5",
        "type": "t_contract(IRoninTrustedOrganization)10481"
      },
      {
        "astId": 5793,
        "contract": "contracts/mainchain/MainchainGovernanceAdmin.sol:MainchainGovernanceAdmin",
        "label": "_bridgeContract",
        "offset": 0,
        "slot": "6",
        "type": "t_contract(IBridge)9580"
      },
      {
        "astId": 7453,
        "contract": "contracts/mainchain/MainchainGovernanceAdmin.sol:MainchainGovernanceAdmin",
        "label": "_lastSyncedBridgeOperatorSetInfo",
        "offset": 0,
        "slot": "7",
        "type": "t_struct(BridgeOperatorSet)12653_storage"
      },
      {
        "astId": 7461,
        "contract": "contracts/mainchain/MainchainGovernanceAdmin.sol:MainchainGovernanceAdmin",
        "label": "_vote",
        "offset": 0,
        "slot": "10",
        "type": "t_mapping(t_uint256,t_mapping(t_uint256,t_struct(IsolatedVote)7047_storage))"
      }
    ],
    "types": {
      "t_address": {
        "encoding": "inplace",
        "label": "address",
        "numberOfBytes": "20"
      },
      "t_array(t_address)dyn_storage": {
        "base": "t_address",
        "encoding": "dynamic_array",
        "label": "address[]",
        "numberOfBytes": "32"
      },
      "t_array(t_bytes32)dyn_storage": {
        "base": "t_bytes32",
        "encoding": "dynamic_array",
        "label": "bytes32[]",
        "numberOfBytes": "32"
      },
      "t_bool": {
        "encoding": "inplace",
        "label": "bool",
        "numberOfBytes": "1"
      },
      "t_bytes32": {
        "encoding": "inplace",
        "label": "bytes32",
        "numberOfBytes": "32"
      },
      "t_contract(IBridge)9580": {
        "encoding": "inplace",
        "label": "contract IBridge",
        "numberOfBytes": "20"
      },
      "t_contract(IRoninTrustedOrganization)10481": {
        "encoding": "inplace",
        "label": "contract IRoninTrustedOrganization",
        "numberOfBytes": "20"
      },
      "t_enum(VoteStatus)10870": {
        "encoding": "inplace",
        "label": "enum VoteStatusConsumer.VoteStatus",
        "numberOfBytes": "1"
      },
      "t_mapping(t_address,t_bool)": {
        "encoding": "mapping",
        "key": "t_address",
        "label": "mapping(address => bool)",
        "numberOfBytes": "32",
        "value": "t_bool"
      },
      "t_mapping(t_address,t_bytes32)": {
        "encoding": "mapping",
        "key": "t_address",
        "label": "mapping(address => bytes32)",
        "numberOfBytes": "32",
        "value": "t_bytes32"
      },
      "t_mapping(t_address,t_struct(Signature)10861_storage)": {
        "encoding": "mapping",
        "key": "t_address",
        "label": "mapping(address => struct SignatureConsumer.Signature)",
        "numberOfBytes": "32",
        "value": "t_struct(Signature)10861_storage"
      },
      "t_mapping(t_bytes32,t_struct(AddressSet)4026_storage)": {
        "encoding": "mapping",
        "key": "t_bytes32",
        "label": "mapping(bytes32 => struct EnumerableSet.AddressSet)",
        "numberOfBytes": "32",
        "value": "t_struct(AddressSet)4026_storage"
      },
      "t_mapping(t_bytes32,t_struct(RoleData)19_storage)": {
        "encoding": "mapping",
        "key": "t_bytes32",
        "label": "mapping(bytes32 => struct AccessControl.RoleData)",
        "numberOfBytes": "32",
        "value": "t_struct(RoleData)19_storage"
      },
      "t_mapping(t_bytes32,t_uint256)": {
        "encoding": "mapping",
        "key": "t_bytes32",
        "label": "mapping(bytes32 => uint256)",
        "numberOfBytes": "32",
        "value": "t_uint256"
      },
      "t_mapping(t_uint256,t_mapping(t_uint256,t_struct(IsolatedVote)7047_storage))": {
        "encoding": "mapping",
        "key": "t_uint256",
        "label": "mapping(uint256 => mapping(uint256 => struct IsolatedGovernance.IsolatedVote))",
        "numberOfBytes": "32",
        "value": "t_mapping(t_uint256,t_struct(IsolatedVote)7047_storage)"
      },
      "t_mapping(t_uint256,t_mapping(t_uint256,t_struct(ProposalVote)7706_storage))": {
        "encoding": "mapping",
        "key": "t_uint256",
        "label": "mapping(uint256 => mapping(uint256 => struct CoreGovernance.ProposalVote))",
        "numberOfBytes": "32",
        "value": "t_mapping(t_uint256,t_struct(ProposalVote)7706_storage)"
      },
      "t_mapping(t_uint256,t_struct(IsolatedVote)7047_storage)": {
        "encoding": "mapping",
        "key": "t_uint256",
        "label": "mapping(uint256 => struct IsolatedGovernance.IsolatedVote)",
        "numberOfBytes": "32",
        "value": "t_struct(IsolatedVote)7047_storage"
      },
      "t_mapping(t_uint256,t_struct(ProposalVote)7706_storage)": {
        "encoding": "mapping",
        "key": "t_uint256",
        "label": "mapping(uint256 => struct CoreGovernance.ProposalVote)",
        "numberOfBytes": "32",
        "value": "t_struct(ProposalVote)7706_storage"
      },
      "t_mapping(t_uint256,t_uint256)": {
        "encoding": "mapping",
        "key": "t_uint256",
        "label": "mapping(uint256 => uint256)",
        "numberOfBytes": "32",
        "value": "t_uint256"
      },
      "t_struct(AddressSet)4026_storage": {
        "encoding": "inplace",
        "label": "struct EnumerableSet.AddressSet",
        "members": [
          {
            "astId": 4025,
            "contract": "contracts/mainchain/MainchainGovernanceAdmin.sol:MainchainGovernanceAdmin",
            "label": "_inner",
            "offset": 0,
            "slot": "0",
            "type": "t_struct(Set)3725_storage"
          }
        ],
        "numberOfBytes": "64"
      },
      "t_struct(BridgeOperatorSet)12653_storage": {
        "encoding": "inplace",
        "label": "struct BridgeOperatorsBallot.BridgeOperatorSet",
        "members": [
          {
            "astId": 12647,
            "contract": "contracts/mainchain/MainchainGovernanceAdmin.sol:MainchainGovernanceAdmin",
            "label": "period",
            "offset": 0,
            "slot": "0",
            "type": "t_uint256"
          },
          {
            "astId": 12649,
            "contract": "contracts/mainchain/MainchainGovernanceAdmin.sol:MainchainGovernanceAdmin",
            "label": "epoch",
            "offset": 0,
            "slot": "1",
            "type": "t_uint256"
          },
          {
            "astId": 12652,
            "contract": "contracts/mainchain/MainchainGovernanceAdmin.sol:MainchainGovernanceAdmin",
            "label": "operators",
            "offset": 0,
            "slot": "2",
            "type": "t_array(t_address)dyn_storage"
          }
        ],
        "numberOfBytes": "96"
      },
      "t_struct(IsolatedVote)7047_storage": {
        "encoding": "inplace",
        "label": "struct IsolatedGovernance.IsolatedVote",
        "members": [
          {
            "astId": 7028,
            "contract": "contracts/mainchain/MainchainGovernanceAdmin.sol:MainchainGovernanceAdmin",
            "label": "status",
            "offset": 0,
            "slot": "0",
            "type": "t_enum(VoteStatus)10870"
          },
          {
            "astId": 7030,
            "contract": "contracts/mainchain/MainchainGovernanceAdmin.sol:MainchainGovernanceAdmin",
            "label": "finalHash",
            "offset": 0,
            "slot": "1",
            "type": "t_bytes32"
          },
          {
            "astId": 7035,
            "contract": "contracts/mainchain/MainchainGovernanceAdmin.sol:MainchainGovernanceAdmin",
            "label": "voteHashOf",
            "offset": 0,
            "slot": "2",
            "type": "t_mapping(t_address,t_bytes32)"
          },
          {
            "astId": 7040,
            "contract": "contracts/mainchain/MainchainGovernanceAdmin.sol:MainchainGovernanceAdmin",
            "label": "weight",
            "offset": 0,
            "slot": "3",
            "type": "t_mapping(t_bytes32,t_uint256)"
          },
          {
            "astId": 7043,
            "contract": "contracts/mainchain/MainchainGovernanceAdmin.sol:MainchainGovernanceAdmin",
            "label": "expiredAt",
            "offset": 0,
            "slot": "4",
            "type": "t_uint256"
          },
          {
            "astId": 7046,
            "contract": "contracts/mainchain/MainchainGovernanceAdmin.sol:MainchainGovernanceAdmin",
            "label": "createdAt",
            "offset": 0,
            "slot": "5",
            "type": "t_uint256"
          }
        ],
        "numberOfBytes": "192"
      },
      "t_struct(ProposalVote)7706_storage": {
        "encoding": "inplace",
        "label": "struct CoreGovernance.ProposalVote",
        "members": [
          {
            "astId": 7682,
            "contract": "contracts/mainchain/MainchainGovernanceAdmin.sol:MainchainGovernanceAdmin",
            "label": "status",
            "offset": 0,
            "slot": "0",
            "type": "t_enum(VoteStatus)10870"
          },
          {
            "astId": 7684,
            "contract": "contracts/mainchain/MainchainGovernanceAdmin.sol:MainchainGovernanceAdmin",
            "label": "hash",
            "offset": 0,
            "slot": "1",
            "type": "t_bytes32"
          },
          {
            "astId": 7686,
            "contract": "contracts/mainchain/MainchainGovernanceAdmin.sol:MainchainGovernanceAdmin",
            "label": "againstVoteWeight",
            "offset": 0,
            "slot": "2",
            "type": "t_uint256"
          },
          {
            "astId": 7688,
            "contract": "contracts/mainchain/MainchainGovernanceAdmin.sol:MainchainGovernanceAdmin",
            "label": "forVoteWeight",
            "offset": 0,
            "slot": "3",
            "type": "t_uint256"
          },
          {
            "astId": 7691,
            "contract": "contracts/mainchain/MainchainGovernanceAdmin.sol:MainchainGovernanceAdmin",
            "label": "forVoteds",
            "offset": 0,
            "slot": "4",
            "type": "t_array(t_address)dyn_storage"
          },
          {
            "astId": 7694,
            "contract": "contracts/mainchain/MainchainGovernanceAdmin.sol:MainchainGovernanceAdmin",
            "label": "againstVoteds",
            "offset": 0,
            "slot": "5",
            "type": "t_array(t_address)dyn_storage"
          },
          {
            "astId": 7696,
            "contract": "contracts/mainchain/MainchainGovernanceAdmin.sol:MainchainGovernanceAdmin",
            "label": "expiryTimestamp",
            "offset": 0,
            "slot": "6",
            "type": "t_uint256"
          },
          {
            "astId": 7701,
            "contract": "contracts/mainchain/MainchainGovernanceAdmin.sol:MainchainGovernanceAdmin",
            "label": "sig",
            "offset": 0,
            "slot": "7",
            "type": "t_mapping(t_address,t_struct(Signature)10861_storage)"
          },
          {
            "astId": 7705,
            "contract": "contracts/mainchain/MainchainGovernanceAdmin.sol:MainchainGovernanceAdmin",
            "label": "voted",
            "offset": 0,
            "slot": "8",
            "type": "t_mapping(t_address,t_bool)"
          }
        ],
        "numberOfBytes": "288"
      },
      "t_struct(RoleData)19_storage": {
        "encoding": "inplace",
        "label": "struct AccessControl.RoleData",
        "members": [
          {
            "astId": 16,
            "contract": "contracts/mainchain/MainchainGovernanceAdmin.sol:MainchainGovernanceAdmin",
            "label": "members",
            "offset": 0,
            "slot": "0",
            "type": "t_mapping(t_address,t_bool)"
          },
          {
            "astId": 18,
            "contract": "contracts/mainchain/MainchainGovernanceAdmin.sol:MainchainGovernanceAdmin",
            "label": "adminRole",
            "offset": 0,
            "slot": "1",
            "type": "t_bytes32"
          }
        ],
        "numberOfBytes": "64"
      },
      "t_struct(Set)3725_storage": {
        "encoding": "inplace",
        "label": "struct EnumerableSet.Set",
        "members": [
          {
            "astId": 3720,
            "contract": "contracts/mainchain/MainchainGovernanceAdmin.sol:MainchainGovernanceAdmin",
            "label": "_values",
            "offset": 0,
            "slot": "0",
            "type": "t_array(t_bytes32)dyn_storage"
          },
          {
            "astId": 3724,
            "contract": "contracts/mainchain/MainchainGovernanceAdmin.sol:MainchainGovernanceAdmin",
            "label": "_indexes",
            "offset": 0,
            "slot": "1",
            "type": "t_mapping(t_bytes32,t_uint256)"
          }
        ],
        "numberOfBytes": "64"
      },
      "t_struct(Signature)10861_storage": {
        "encoding": "inplace",
        "label": "struct SignatureConsumer.Signature",
        "members": [
          {
            "astId": 10856,
            "contract": "contracts/mainchain/MainchainGovernanceAdmin.sol:MainchainGovernanceAdmin",
            "label": "v",
            "offset": 0,
            "slot": "0",
            "type": "t_uint8"
          },
          {
            "astId": 10858,
            "contract": "contracts/mainchain/MainchainGovernanceAdmin.sol:MainchainGovernanceAdmin",
            "label": "r",
            "offset": 0,
            "slot": "1",
            "type": "t_bytes32"
          },
          {
            "astId": 10860,
            "contract": "contracts/mainchain/MainchainGovernanceAdmin.sol:MainchainGovernanceAdmin",
            "label": "s",
            "offset": 0,
            "slot": "2",
            "type": "t_bytes32"
          }
        ],
        "numberOfBytes": "96"
      },
      "t_uint256": {
        "encoding": "inplace",
        "label": "uint256",
        "numberOfBytes": "32"
      },
      "t_uint8": {
        "encoding": "inplace",
        "label": "uint8",
        "numberOfBytes": "1"
      }
    }
  }
}