{
  "address": "0x249e1aA055a8523883305CdA6C5166bc2f76a243",
  "abi": [
    {
      "inputs": [
        {
          "internalType": "uint256",
          "name": "_roninChainId",
          "type": "uint256"
        },
        {
          "internalType": "address",
          "name": "_roleSetter",
          "type": "address"
        },
        {
          "internalType": "address",
          "name": "_roninTrustedOrganizationContract",
          "type": "address"
        },
        {
          "internalType": "address",
          "name": "_bridgeContract",
          "type": "address"
        },
        {
          "internalType": "address[]",
          "name": "_relayers",
          "type": "address[]"
        }
      ],
      "stateMutability": "nonpayable",
      "type": "constructor"
    },
    {
      "inputs": [],
      "name": "ErrBridgeOperatorSetIsAlreadyVoted",
      "type": "error"
    },
    {
      "inputs": [
        {
          "internalType": "enum ContractType",
          "name": "contractType",
          "type": "uint8"
        }
      ],
      "name": "ErrContractTypeNotFound",
      "type": "error"
    },
    {
      "inputs": [],
      "name": "ErrCurrentProposalIsNotCompleted",
      "type": "error"
    },
    {
      "inputs": [],
      "name": "ErrEmptyArray",
      "type": "error"
    },
    {
      "inputs": [
        {
          "internalType": "bytes32",
          "name": "proposalHash",
          "type": "bytes32"
        }
      ],
      "name": "ErrInsufficientGas",
      "type": "error"
    },
    {
      "inputs": [
        {
          "internalType": "bytes4",
          "name": "msgSig",
          "type": "bytes4"
        },
        {
          "internalType": "uint256",
          "name": "actual",
          "type": "uint256"
        },
        {
          "internalType": "uint256",
          "name": "expected",
          "type": "uint256"
        }
      ],
      "name": "ErrInvalidChainId",
      "type": "error"
    },
    {
      "inputs": [],
      "name": "ErrInvalidExpiryTimestamp",
      "type": "error"
    },
    {
      "inputs": [
        {
          "internalType": "bytes4",
          "name": "msgSig",
          "type": "bytes4"
        }
      ],
      "name": "ErrInvalidOrder",
      "type": "error"
    },
    {
      "inputs": [],
      "name": "ErrInvalidOrderOfBridgeOperator",
      "type": "error"
    },
    {
      "inputs": [
        {
          "internalType": "bytes4",
          "name": "msgSig",
          "type": "bytes4"
        }
      ],
      "name": "ErrInvalidProposalNonce",
      "type": "error"
    },
    {
      "inputs": [
        {
          "internalType": "bytes4",
          "name": "msgSig",
          "type": "bytes4"
        }
      ],
      "name": "ErrInvalidVoteWeight",
      "type": "error"
    },
    {
      "inputs": [
        {
          "internalType": "bytes4",
          "name": "msgSig",
          "type": "bytes4"
        }
      ],
      "name": "ErrLengthMismatch",
      "type": "error"
    },
    {
      "inputs": [
        {
          "internalType": "bytes4",
          "name": "msgSig",
          "type": "bytes4"
        }
      ],
      "name": "ErrOnlySelfCall",
      "type": "error"
    },
    {
      "inputs": [],
      "name": "ErrQueryForOutdatedBridgeOperatorSet",
      "type": "error"
    },
    {
      "inputs": [
        {
          "internalType": "bytes4",
          "name": "msgSig",
          "type": "bytes4"
        }
      ],
      "name": "ErrRelayFailed",
      "type": "error"
    },
    {
      "inputs": [
        {
          "internalType": "bytes32",
          "name": "proposalHash",
          "type": "bytes32"
        },
        {
          "internalType": "uint256",
          "name": "targetNumber",
          "type": "uint256"
        }
      ],
      "name": "ErrUnsupportedTarget",
      "type": "error"
    },
    {
      "inputs": [
        {
          "internalType": "bytes4",
          "name": "msgSig",
          "type": "bytes4"
        }
      ],
      "name": "ErrUnsupportedVoteType",
      "type": "error"
    },
    {
      "inputs": [],
      "name": "ErrVoteIsFinalized",
      "type": "error"
    },
    {
      "inputs": [
        {
          "internalType": "address",
          "name": "addr",
          "type": "address"
        }
      ],
      "name": "ErrZeroCodeContract",
      "type": "error"
    },
    {
      "anonymous": false,
      "inputs": [
        {
          "indexed": true,
          "internalType": "enum ContractType",
          "name": "contractType",
          "type": "uint8"
        },
        {
          "indexed": true,
          "internalType": "address",
          "name": "addr",
          "type": "address"
        }
      ],
      "name": "ContractUpdated",
      "type": "event"
    },
    {
      "anonymous": false,
      "inputs": [
        {
          "indexed": true,
          "internalType": "uint256",
          "name": "round",
          "type": "uint256"
        },
        {
          "indexed": true,
          "internalType": "bytes32",
          "name": "proposalHash",
          "type": "bytes32"
        },
        {
          "components": [
            {
              "internalType": "uint256",
              "name": "nonce",
              "type": "uint256"
            },
            {
              "internalType": "uint256",
              "name": "chainId",
              "type": "uint256"
            },
            {
              "internalType": "uint256",
              "name": "expiryTimestamp",
              "type": "uint256"
            },
            {
              "internalType": "address[]",
              "name": "targets",
              "type": "address[]"
            },
            {
              "internalType": "uint256[]",
              "name": "values",
              "type": "uint256[]"
            },
            {
              "internalType": "bytes[]",
              "name": "calldatas",
              "type": "bytes[]"
            },
            {
              "internalType": "uint256[]",
              "name": "gasAmounts",
              "type": "uint256[]"
            }
          ],
          "indexed": false,
          "internalType": "struct Proposal.ProposalDetail",
          "name": "proposal",
          "type": "tuple"
        },
        {
          "indexed": false,
          "internalType": "bytes32",
          "name": "globalProposalHash",
          "type": "bytes32"
        },
        {
          "components": [
            {
              "internalType": "uint256",
              "name": "nonce",
              "type": "uint256"
            },
            {
              "internalType": "uint256",
              "name": "expiryTimestamp",
              "type": "uint256"
            },
            {
              "internalType": "enum GlobalProposal.TargetOption[]",
              "name": "targetOptions",
              "type": "uint8[]"
            },
            {
              "internalType": "uint256[]",
              "name": "values",
              "type": "uint256[]"
            },
            {
              "internalType": "bytes[]",
              "name": "calldatas",
              "type": "bytes[]"
            },
            {
              "internalType": "uint256[]",
              "name": "gasAmounts",
              "type": "uint256[]"
            }
          ],
          "indexed": false,
          "internalType": "struct GlobalProposal.GlobalProposalDetail",
          "name": "globalProposal",
          "type": "tuple"
        },
        {
          "indexed": false,
          "internalType": "address",
          "name": "creator",
          "type": "address"
        }
      ],
      "name": "GlobalProposalCreated",
      "type": "event"
    },
    {
      "anonymous": false,
      "inputs": [
        {
          "indexed": true,
          "internalType": "bytes32",
          "name": "proposalHash",
          "type": "bytes32"
        }
      ],
      "name": "ProposalApproved",
      "type": "event"
    },
    {
      "anonymous": false,
      "inputs": [
        {
          "indexed": true,
          "internalType": "uint256",
          "name": "chainId",
          "type": "uint256"
        },
        {
          "indexed": true,
          "internalType": "uint256",
          "name": "round",
          "type": "uint256"
        },
        {
          "indexed": true,
          "internalType": "bytes32",
          "name": "proposalHash",
          "type": "bytes32"
        },
        {
          "components": [
            {
              "internalType": "uint256",
              "name": "nonce",
              "type": "uint256"
            },
            {
              "internalType": "uint256",
              "name": "chainId",
              "type": "uint256"
            },
            {
              "internalType": "uint256",
              "name": "expiryTimestamp",
              "type": "uint256"
            },
            {
              "internalType": "address[]",
              "name": "targets",
              "type": "address[]"
            },
            {
              "internalType": "uint256[]",
              "name": "values",
              "type": "uint256[]"
            },
            {
              "internalType": "bytes[]",
              "name": "calldatas",
              "type": "bytes[]"
            },
            {
              "internalType": "uint256[]",
              "name": "gasAmounts",
              "type": "uint256[]"
            }
          ],
          "indexed": false,
          "internalType": "struct Proposal.ProposalDetail",
          "name": "proposal",
          "type": "tuple"
        },
        {
          "indexed": false,
          "internalType": "address",
          "name": "creator",
          "type": "address"
        }
      ],
      "name": "ProposalCreated",
      "type": "event"
    },
    {
      "anonymous": false,
      "inputs": [
        {
          "indexed": true,
          "internalType": "bytes32",
          "name": "proposalHash",
          "type": "bytes32"
        },
        {
          "indexed": false,
          "internalType": "bool[]",
          "name": "successCalls",
          "type": "bool[]"
        },
        {
          "indexed": false,
          "internalType": "bytes[]",
          "name": "returnDatas",
          "type": "bytes[]"
        }
      ],
      "name": "ProposalExecuted",
      "type": "event"
    },
    {
      "anonymous": false,
      "inputs": [
        {
          "indexed": true,
          "internalType": "bytes32",
          "name": "proposalHash",
          "type": "bytes32"
        }
      ],
      "name": "ProposalExpired",
      "type": "event"
    },
    {
      "anonymous": false,
      "inputs": [
        {
          "indexed": true,
          "internalType": "bytes32",
          "name": "proposalHash",
          "type": "bytes32"
        }
      ],
      "name": "ProposalRejected",
      "type": "event"
    },
    {
      "anonymous": false,
      "inputs": [
        {
          "indexed": true,
          "internalType": "bytes32",
          "name": "proposalHash",
          "type": "bytes32"
        },
        {
          "indexed": true,
          "internalType": "address",
          "name": "voter",
          "type": "address"
        },
        {
          "indexed": false,
          "internalType": "enum Ballot.VoteType",
          "name": "support",
          "type": "uint8"
        },
        {
          "indexed": false,
          "internalType": "uint256",
          "name": "weight",
          "type": "uint256"
        }
      ],
      "name": "ProposalVoted",
      "type": "event"
    },
    {
      "anonymous": false,
      "inputs": [
        {
          "indexed": true,
          "internalType": "bytes32",
          "name": "role",
          "type": "bytes32"
        },
        {
          "indexed": true,
          "internalType": "bytes32",
          "name": "previousAdminRole",
          "type": "bytes32"
        },
        {
          "indexed": true,
          "internalType": "bytes32",
          "name": "newAdminRole",
          "type": "bytes32"
        }
      ],
      "name": "RoleAdminChanged",
      "type": "event"
    },
    {
      "anonymous": false,
      "inputs": [
        {
          "indexed": true,
          "internalType": "bytes32",
          "name": "role",
          "type": "bytes32"
        },
        {
          "indexed": true,
          "internalType": "address",
          "name": "account",
          "type": "address"
        },
        {
          "indexed": true,
          "internalType": "address",
          "name": "sender",
          "type": "address"
        }
      ],
      "name": "RoleGranted",
      "type": "event"
    },
    {
      "anonymous": false,
      "inputs": [
        {
          "indexed": true,
          "internalType": "bytes32",
          "name": "role",
          "type": "bytes32"
        },
        {
          "indexed": true,
          "internalType": "address",
          "name": "account",
          "type": "address"
        },
        {
          "indexed": true,
          "internalType": "address",
          "name": "sender",
          "type": "address"
        }
      ],
      "name": "RoleRevoked",
      "type": "event"
    },
    {
      "inputs": [],
      "name": "DEFAULT_ADMIN_ROLE",
      "outputs": [
        {
          "internalType": "bytes32",
          "name": "",
          "type": "bytes32"
        }
      ],
      "stateMutability": "view",
      "type": "function"
    },
    {
      "inputs": [],
      "name": "DOMAIN_SEPARATOR",
      "outputs": [
        {
          "internalType": "bytes32",
          "name": "",
          "type": "bytes32"
        }
      ],
      "stateMutability": "view",
      "type": "function"
    },
    {
      "inputs": [],
      "name": "RELAYER_ROLE",
      "outputs": [
        {
          "internalType": "bytes32",
          "name": "",
          "type": "bytes32"
        }
      ],
      "stateMutability": "view",
      "type": "function"
    },
    {
      "inputs": [
        {
          "internalType": "uint256",
          "name": "_period",
          "type": "uint256"
        },
        {
          "internalType": "uint256",
          "name": "_epoch",
          "type": "uint256"
        }
      ],
      "name": "bridgeOperatorsRelayed",
      "outputs": [
        {
          "internalType": "bool",
          "name": "",
          "type": "bool"
        }
      ],
      "stateMutability": "view",
      "type": "function"
    },
    {
      "inputs": [
        {
          "internalType": "address",
          "name": "_proxy",
          "type": "address"
        },
        {
          "internalType": "address",
          "name": "_newAdmin",
          "type": "address"
        }
      ],
      "name": "changeProxyAdmin",
      "outputs": [],
      "stateMutability": "nonpayable",
      "type": "function"
    },
    {
      "inputs": [
        {
          "internalType": "enum ContractType",
          "name": "contractType",
          "type": "uint8"
        }
      ],
      "name": "getContract",
      "outputs": [
        {
          "internalType": "address",
          "name": "contract_",
          "type": "address"
        }
      ],
      "stateMutability": "view",
      "type": "function"
    },
    {
      "inputs": [],
      "name": "getProposalExpiryDuration",
      "outputs": [
        {
          "internalType": "uint256",
          "name": "",
          "type": "uint256"
        }
      ],
      "stateMutability": "view",
      "type": "function"
    },
    {
      "inputs": [
        {
          "internalType": "address",
          "name": "_proxy",
          "type": "address"
        }
      ],
      "name": "getProxyAdmin",
      "outputs": [
        {
          "internalType": "address",
          "name": "",
          "type": "address"
        }
      ],
      "stateMutability": "view",
      "type": "function"
    },
    {
      "inputs": [
        {
          "internalType": "address",
          "name": "_proxy",
          "type": "address"
        }
      ],
      "name": "getProxyImplementation",
      "outputs": [
        {
          "internalType": "address",
          "name": "",
          "type": "address"
        }
      ],
      "stateMutability": "view",
      "type": "function"
    },
    {
      "inputs": [
        {
          "internalType": "bytes32",
          "name": "role",
          "type": "bytes32"
        }
      ],
      "name": "getRoleAdmin",
      "outputs": [
        {
          "internalType": "bytes32",
          "name": "",
          "type": "bytes32"
        }
      ],
      "stateMutability": "view",
      "type": "function"
    },
    {
      "inputs": [
        {
          "internalType": "bytes32",
          "name": "role",
          "type": "bytes32"
        },
        {
          "internalType": "uint256",
          "name": "index",
          "type": "uint256"
        }
      ],
      "name": "getRoleMember",
      "outputs": [
        {
          "internalType": "address",
          "name": "",
          "type": "address"
        }
      ],
      "stateMutability": "view",
      "type": "function"
    },
    {
      "inputs": [
        {
          "internalType": "bytes32",
          "name": "role",
          "type": "bytes32"
        }
      ],
      "name": "getRoleMemberCount",
      "outputs": [
        {
          "internalType": "uint256",
          "name": "",
          "type": "uint256"
        }
      ],
      "stateMutability": "view",
      "type": "function"
    },
    {
      "inputs": [
        {
          "internalType": "bytes32",
          "name": "role",
          "type": "bytes32"
        },
        {
          "internalType": "address",
          "name": "account",
          "type": "address"
        }
      ],
      "name": "grantRole",
      "outputs": [],
      "stateMutability": "nonpayable",
      "type": "function"
    },
    {
      "inputs": [
        {
          "internalType": "bytes32",
          "name": "role",
          "type": "bytes32"
        },
        {
          "internalType": "address",
          "name": "account",
          "type": "address"
        }
      ],
      "name": "hasRole",
      "outputs": [
        {
          "internalType": "bool",
          "name": "",
          "type": "bool"
        }
      ],
      "stateMutability": "view",
      "type": "function"
    },
    {
      "inputs": [],
      "name": "lastSyncedBridgeOperatorSetInfo",
      "outputs": [
        {
          "components": [
            {
              "internalType": "uint256",
              "name": "period",
              "type": "uint256"
            },
            {
              "internalType": "uint256",
              "name": "epoch",
              "type": "uint256"
            },
            {
              "internalType": "address[]",
              "name": "operators",
              "type": "address[]"
            }
          ],
          "internalType": "struct BridgeOperatorsBallot.BridgeOperatorSet",
          "name": "",
          "type": "tuple"
        }
      ],
      "stateMutability": "view",
      "type": "function"
    },
    {
      "inputs": [
        {
          "internalType": "uint256",
          "name": "_chainId",
          "type": "uint256"
        },
        {
          "internalType": "uint256",
          "name": "_round",
          "type": "uint256"
        }
      ],
      "name": "proposalRelayed",
      "outputs": [
        {
          "internalType": "bool",
          "name": "",
          "type": "bool"
        }
      ],
      "stateMutability": "view",
      "type": "function"
    },
    {
      "inputs": [
        {
          "components": [
            {
              "internalType": "uint256",
              "name": "period",
              "type": "uint256"
            },
            {
              "internalType": "uint256",
              "name": "epoch",
              "type": "uint256"
            },
            {
              "internalType": "address[]",
              "name": "operators",
              "type": "address[]"
            }
          ],
          "internalType": "struct BridgeOperatorsBallot.BridgeOperatorSet",
          "name": "_ballot",
          "type": "tuple"
        },
        {
          "components": [
            {
              "internalType": "uint8",
              "name": "v",
              "type": "uint8"
            },
            {
              "internalType": "bytes32",
              "name": "r",
              "type": "bytes32"
            },
            {
              "internalType": "bytes32",
              "name": "s",
              "type": "bytes32"
            }
          ],
          "internalType": "struct SignatureConsumer.Signature[]",
          "name": "_signatures",
          "type": "tuple[]"
        }
      ],
      "name": "relayBridgeOperators",
      "outputs": [],
      "stateMutability": "nonpayable",
      "type": "function"
    },
    {
      "inputs": [
        {
          "components": [
            {
              "internalType": "uint256",
              "name": "nonce",
              "type": "uint256"
            },
            {
              "internalType": "uint256",
              "name": "expiryTimestamp",
              "type": "uint256"
            },
            {
              "internalType": "enum GlobalProposal.TargetOption[]",
              "name": "targetOptions",
              "type": "uint8[]"
            },
            {
              "internalType": "uint256[]",
              "name": "values",
              "type": "uint256[]"
            },
            {
              "internalType": "bytes[]",
              "name": "calldatas",
              "type": "bytes[]"
            },
            {
              "internalType": "uint256[]",
              "name": "gasAmounts",
              "type": "uint256[]"
            }
          ],
          "internalType": "struct GlobalProposal.GlobalProposalDetail",
          "name": "_globalProposal",
          "type": "tuple"
        },
        {
          "internalType": "enum Ballot.VoteType[]",
          "name": "_supports",
          "type": "uint8[]"
        },
        {
          "components": [
            {
              "internalType": "uint8",
              "name": "v",
              "type": "uint8"
            },
            {
              "internalType": "bytes32",
              "name": "r",
              "type": "bytes32"
            },
            {
              "internalType": "bytes32",
              "name": "s",
              "type": "bytes32"
            }
          ],
          "internalType": "struct SignatureConsumer.Signature[]",
          "name": "_signatures",
          "type": "tuple[]"
        }
      ],
      "name": "relayGlobalProposal",
      "outputs": [],
      "stateMutability": "nonpayable",
      "type": "function"
    },
    {
      "inputs": [
        {
          "components": [
            {
              "internalType": "uint256",
              "name": "nonce",
              "type": "uint256"
            },
            {
              "internalType": "uint256",
              "name": "chainId",
              "type": "uint256"
            },
            {
              "internalType": "uint256",
              "name": "expiryTimestamp",
              "type": "uint256"
            },
            {
              "internalType": "address[]",
              "name": "targets",
              "type": "address[]"
            },
            {
              "internalType": "uint256[]",
              "name": "values",
              "type": "uint256[]"
            },
            {
              "internalType": "bytes[]",
              "name": "calldatas",
              "type": "bytes[]"
            },
            {
              "internalType": "uint256[]",
              "name": "gasAmounts",
              "type": "uint256[]"
            }
          ],
          "internalType": "struct Proposal.ProposalDetail",
          "name": "_proposal",
          "type": "tuple"
        },
        {
          "internalType": "enum Ballot.VoteType[]",
          "name": "_supports",
          "type": "uint8[]"
        },
        {
          "components": [
            {
              "internalType": "uint8",
              "name": "v",
              "type": "uint8"
            },
            {
              "internalType": "bytes32",
              "name": "r",
              "type": "bytes32"
            },
            {
              "internalType": "bytes32",
              "name": "s",
              "type": "bytes32"
            }
          ],
          "internalType": "struct SignatureConsumer.Signature[]",
          "name": "_signatures",
          "type": "tuple[]"
        }
      ],
      "name": "relayProposal",
      "outputs": [],
      "stateMutability": "nonpayable",
      "type": "function"
    },
    {
      "inputs": [
        {
          "internalType": "bytes32",
          "name": "role",
          "type": "bytes32"
        },
        {
          "internalType": "address",
          "name": "account",
          "type": "address"
        }
      ],
      "name": "renounceRole",
      "outputs": [],
      "stateMutability": "nonpayable",
      "type": "function"
    },
    {
      "inputs": [
        {
          "internalType": "bytes32",
          "name": "role",
          "type": "bytes32"
        },
        {
          "internalType": "address",
          "name": "account",
          "type": "address"
        }
      ],
      "name": "revokeRole",
      "outputs": [],
      "stateMutability": "nonpayable",
      "type": "function"
    },
    {
      "inputs": [],
      "name": "roninChainId",
      "outputs": [
        {
          "internalType": "uint256",
          "name": "",
          "type": "uint256"
        }
      ],
      "stateMutability": "view",
      "type": "function"
    },
    {
      "inputs": [
        {
          "internalType": "uint256",
          "name": "",
          "type": "uint256"
        }
      ],
      "name": "round",
      "outputs": [
        {
          "internalType": "uint256",
          "name": "",
          "type": "uint256"
        }
      ],
      "stateMutability": "view",
      "type": "function"
    },
    {
      "inputs": [
        {
          "internalType": "enum ContractType",
          "name": "contractType",
          "type": "uint8"
        },
        {
          "internalType": "address",
          "name": "addr",
          "type": "address"
        }
      ],
      "name": "setContract",
      "outputs": [],
      "stateMutability": "nonpayable",
      "type": "function"
    },
    {
      "inputs": [
        {
          "internalType": "uint256",
          "name": "_expiryDuration",
          "type": "uint256"
        }
      ],
      "name": "setProposalExpiryDuration",
      "outputs": [],
      "stateMutability": "nonpayable",
      "type": "function"
    },
    {
      "inputs": [
        {
          "internalType": "bytes4",
          "name": "interfaceId",
          "type": "bytes4"
        }
      ],
      "name": "supportsInterface",
      "outputs": [
        {
          "internalType": "bool",
          "name": "",
          "type": "bool"
        }
      ],
      "stateMutability": "view",
      "type": "function"
    },
    {
      "inputs": [
        {
          "internalType": "uint256",
          "name": "",
          "type": "uint256"
        },
        {
          "internalType": "uint256",
          "name": "",
          "type": "uint256"
        }
      ],
      "name": "vote",
      "outputs": [
        {
          "internalType": "enum VoteStatusConsumer.VoteStatus",
          "name": "status",
          "type": "uint8"
        },
        {
          "internalType": "bytes32",
          "name": "hash",
          "type": "bytes32"
        },
        {
          "internalType": "uint256",
          "name": "againstVoteWeight",
          "type": "uint256"
        },
        {
          "internalType": "uint256",
          "name": "forVoteWeight",
          "type": "uint256"
        },
        {
          "internalType": "uint256",
          "name": "expiryTimestamp",
          "type": "uint256"
        }
      ],
      "stateMutability": "view",
      "type": "function"
    }
  ],
  "transactionHash": "0x6c178b0cb54bb6bbb1f4b2f0585a27578cdbeb9c52a60ccd5dbeac79d3729b6d",
  "args": [
    2021,
    "0xC37b5d7891D73F2064B0eE044844e053872Ef941",
    "0x1638be252438a97E6AeF7B6488AE4C9449e38F26",
    "0x8236498FE00254b2ED34711d73e816aA293459C5",
    [
      "0xC37b5d7891D73F2064B0eE044844e053872Ef941"
    ]
  ],
  "numDeployments": 7,
  "solcInputHash": "4a6c2d91e409e6ff92e726e537003433",
  "bytecode": "0x60806040523480156200001157600080fd5b50604051620041073803806200410783398101604081905262000034916200040d565b848383600160ff1b806200004781600455565b506007849055604080518181526020810186815260169282019283527f524f4e494e5f474f5645524e414e43455f41444d494e000000000000000000006060830190815260808084207f599a80fcaa47b95e2323ab4d34d34e0cc9feda4b843edafcc30c7bdf60ea15bf85527f7e7935007966eb860f4a2ee3dcc9fd53fb3205ce2aa86b0126d4893d4d4c14b99093527fad7c5bef027816a800da1736444fb58a807ef4c9603b7848673f7e3a68eb14a590945252206008556200010d600283620001cb565b6200011a600a84620001cb565b505060056000908152600260205260017fb98b78633099fa36ed8b8680c4f8092689e1e04080eb9cbb077ca38a14d7e384556200015b925090508562000275565b60005b8151811015620001bf57620001b67fe2b7fb3b832174769106daebcfd6d1970523240dda11281102db9363b83b0dc4838381518110620001a257620001a262000524565b60200260200101516200028560201b60201c565b6001016200015e565b50505050505062000550565b807fdea3103d22025c269050bea94c0c84688877f12fa22b7e6d2d5d78a9a49aa1cb600084600a8111156200020457620002046200053a565b60ff168152602081019190915260400160002080546001600160a01b0319166001600160a01b03928316179055811682600a8111156200024857620002486200053a565b6040517f865d1c228a8ea13709cfe61f346f7ff67f1bbd4a18ff31ad3e7147350d317c5990600090a35050565b62000281828262000285565b5050565b6200029c8282620002c860201b62000a671760201c565b6000828152600160209081526040909120620002c391839062000aeb62000368821b17901c565b505050565b6000828152602081815260408083206001600160a01b038516845290915290205460ff1662000281576000828152602081815260408083206001600160a01b03851684529091529020805460ff19166001179055620003243390565b6001600160a01b0316816001600160a01b0316837f2f8788117e7eff1d82e926ec794901d17c78024a50270940304540a733656f0d60405160405180910390a45050565b60006200037f836001600160a01b03841662000388565b90505b92915050565b6000818152600183016020526040812054620003d15750815460018181018455600084815260208082209093018490558454848252828601909352604090209190915562000382565b50600062000382565b80516001600160a01b0381168114620003f257600080fd5b919050565b634e487b7160e01b600052604160045260246000fd5b600080600080600060a086880312156200042657600080fd5b85519450602062000439818801620003da565b94506200044960408801620003da565b93506200045960608801620003da565b60808801519093506001600160401b03808211156200047757600080fd5b818901915089601f8301126200048c57600080fd5b815181811115620004a157620004a1620003f7565b8060051b604051601f19603f83011681018181108582111715620004c957620004c9620003f7565b60405291825284820192508381018501918c831115620004e857600080fd5b938501935b8285101562000511576200050185620003da565b84529385019392850192620004ed565b8096505050505050509295509295909350565b634e487b7160e01b600052603260045260246000fd5b634e487b7160e01b600052602160045260246000fd5b613ba780620005606000396000f3fe608060405234801561001057600080fd5b50600436106101a95760003560e01c8063865e6fd3116100f9578063bc96180b11610097578063d547741f11610071578063d547741f146103df578063de981f1b146103f2578063f3b7dead14610405578063f589262d1461041857600080fd5b8063bc96180b146103b1578063beb3a6a1146103b9578063ca15c873146103cc57600080fd5b806391d14854116100d357806391d1485414610326578063926d7d7f14610339578063a217fddf1461034e578063b384abef1461035657600080fd5b8063865e6fd3146102ed5780638fb7ac7c146103005780639010d07c1461031357600080fd5b806334d5f37b116101665780635e05cf9e116101405780635e05cf9e1461029f57806362e52e5f146102b25780637d465f79146102c75780637eff275e146102da57600080fd5b806334d5f37b146102635780633644e5151461028357806336568abe1461028c57600080fd5b806301ffc9a7146101ae57806317ce2dd4146101d6578063204e1c7a146101ed578063248a9ca3146102185780632e96a6fb1461023b5780632f2ff15d14610250575b600080fd5b6101c16101bc366004612c3c565b61042b565b60405190151581526020015b60405180910390f35b6101df60075481565b6040519081526020016101cd565b6102006101fb366004612c7b565b610456565b6040516001600160a01b0390911681526020016101cd565b6101df610226366004612c98565b60009081526020819052604090206001015490565b61024e610249366004612c98565b610510565b005b61024e61025e366004612cb1565b610524565b6101df610271366004612c98565b60026020526000908152604090205481565b6101df60085481565b61024e61029a366004612cb1565b61054e565b61024e6102ad366004612d70565b6105d1565b6102ba610602565b6040516101cd9190612e50565b61024e6102d5366004612e87565b6106a4565b61024e6102e8366004612eca565b6106e1565b61024e6102fb366004612f07565b61079f565b6101c161030e366004612f23565b6107ba565b610200610321366004612f23565b6107f4565b6101c1610334366004612cb1565b610813565b6101df600080516020613b7b83398151915281565b6101df600081565b6103a0610364366004612f23565b600360208181526000938452604080852090915291835291208054600182015460028301549383015460069093015460ff909216939092909185565b6040516101cd959493929190612f5b565b6101df61083c565b6101c16103c7366004612f23565b61084c565b6101df6103da366004612c98565b61087d565b61024e6103ed366004612cb1565b610894565b610200610400366004612f90565b6108b9565b610200610413366004612c7b565b610934565b61024e610426366004612fab565b61097e565b60006001600160e01b03198216635a05180f60e01b1480610450575061045082610b00565b92915050565b60408051600481526024810182526020810180516001600160e01b0316635c60da1b60e01b908117909152915160009291839182916001600160a01b038716916104a0919061303f565b600060405180830381855afa9150503d80600081146104db576040519150601f19603f3d011682016040523d82523d6000602084013e6104e0565b606091505b5090925090506104f38215158483610b35565b80806020019051810190610507919061305b565b95945050505050565b610518610b7b565b61052181600455565b50565b60008281526020819052604090206001015461053f81610bab565b6105498383610bb5565b505050565b6001600160a01b03811633146105c35760405162461bcd60e51b815260206004820152602f60248201527f416363657373436f6e74726f6c3a2063616e206f6e6c792072656e6f756e636560448201526e103937b632b9903337b91039b2b63360891b60648201526084015b60405180910390fd5b6105cd8282610bd7565b5050565b600080516020613b7b8339815191526105e981610bab565b6105fa868686868660085433610bf9565b505050505050565b61062660405180606001604052806000815260200160008152602001606081525090565b60408051606081018252600980548252600a54602080840191909152600b8054855181840281018401875281815294959394938601939283018282801561069657602002820191906000526020600020905b81546001600160a01b03168152600190910190602001808311610678575b505050505081525050905090565b600080516020613b7b8339815191526106bc81610bab565b6105fa86868686866008546106d1600a6108b9565b6106db60026108b9565b33610c59565b6106e9610b7b565b604080516001600160a01b0383811660248084019190915283518084039091018152604490920183526020820180516001600160e01b03166308f2839760e41b90811790915292516000928392871691610743919061303f565b6000604051808303816000865af19150503d8060008114610780576040519150601f19603f3d011682016040523d82523d6000602084013e610785565b606091505b5090925090506107988215158483610b35565b5050505050565b6107a7610b7b565b6107b081610cb9565b6105cd8282610cef565b600080600084815260036020908152604080832086845290915290205460ff1660048111156107eb576107eb612f45565b14159392505050565b600082815260016020526040812061080c9083610d93565b9392505050565b6000918252602082815260408084206001600160a01b0393909316845291905290205460ff1690565b600061084760045490565b905090565b6000806000848152600c6020908152604080832086845290915290205460ff1660048111156107eb576107eb612f45565b600081815260016020526040812061045090610d9f565b6000828152602081905260409020600101546108af81610bab565b6105498383610bd7565b60007fdea3103d22025c269050bea94c0c84688877f12fa22b7e6d2d5d78a9a49aa1cb600083600a8111156108f0576108f0612f45565b60ff1681526020810191909152604001600020546001600160a01b031690508061092f578160405163409140df60e11b81526004016105ba9190613078565b919050565b60408051600481526024810182526020810180516001600160e01b03166303e1469160e61b908117909152915160009291839182916001600160a01b038716916104a0919061303f565b600080516020613b7b83398151915261099681610bab565b6109ac8484846109a4610da9565b600854610eb3565b6109b660026108b9565b6001600160a01b0316634bb5274a63901d627760e01b6109d96040880188613092565b6040516024016109ea9291906130db565b60408051601f198184030181529181526020820180516001600160e01b03166001600160e01b03199485161790525160e084901b9092168252610a2f91600401613155565b600060405180830381600087803b158015610a4957600080fd5b505af1158015610a5d573d6000803e3d6000fd5b5050505050505050565b610a718282610813565b6105cd576000828152602081815260408083206001600160a01b03851684529091529020805460ff19166001179055610aa73390565b6001600160a01b0316816001600160a01b0316837f2f8788117e7eff1d82e926ec794901d17c78024a50270940304540a733656f0d60405160405180910390a45050565b600061080c836001600160a01b03841661124f565b60006001600160e01b03198216637965db0b60e01b148061045057506301ffc9a760e01b6001600160e01b0319831614610450565b6001600160e01b03196000351683610b755781518015610b56578060208401fd5b50604051638e3eda2b81528160208201528360408201526044601c8201fd5b50505050565b333014610ba9576000356001600160e01b0319166040516307337e1960e41b81526004016105ba9190613168565b565b610521813361129e565b610bbf8282610a67565b60008281526001602052604090206105499082610aeb565b610be18282611302565b60008281526001602052604090206105499082611367565b610c0b610c05886133d7565b8261137c565b506000610c1f610c1a896133d7565b611483565b9050610a5d610c2d896133d7565b88888888610c4589610c408960006115c2565b6115fb565b610c548a610c408a60016115c2565b61163b565b6000610c6f610c678b61351c565b858585611a07565b90506000610c84610c7f8c61351c565b611b45565b9050610cac828b8b8b8b610c9d8c610c408960006115c2565b610c548d610c408a60016115c2565b5050505050505050505050565b806001600160a01b03163b60000361052157604051630bfc64a360e21b81526001600160a01b03821660048201526024016105ba565b807fdea3103d22025c269050bea94c0c84688877f12fa22b7e6d2d5d78a9a49aa1cb600084600a811115610d2557610d25612f45565b60ff168152602081019190915260400160002080546001600160a01b0319166001600160a01b03928316179055811682600a811115610d6657610d66612f45565b6040517f865d1c228a8ea13709cfe61f346f7ff67f1bbd4a18ff31ad3e7147350d317c5990600090a35050565b600061080c8383611c7c565b6000610450825490565b6000637de5dedd60e01b8180610dbf600a6108b9565b6040805160048152602480820183526020820180516001600160e01b03166001600160e01b0319891617905291516001600160a01b039390931692634bb5274a92610e0b929101613155565b6040516020818303038152906040529060e01b6020820180516001600160e01b038381831617835250505050604051610e44919061303f565b600060405180830381855afa9150503d8060008114610e7f576040519150601f19603f3d011682016040523d82523d6000602084013e610e84565b606091505b509092509050610e978215158483610b35565b80806020019051810190610eab91906135e6565b935050505090565b60095485351080610eca5750600a54602086013511155b15610ee8576040516312a0efa360e31b815260040160405180910390fd5b610ef185611ca6565b610fa6610f016040870187613092565b8080602002602001604051908101604052809392919081815260200183836020028082843760009201919091525050600b805460408051602080840282018101909252828152945091925090830182828015610f8657602002820191906000526020600020905b81546001600160a01b03168152600190910190602001808311610f68575b505050505081516020908102928101929092208151830291909201201490565b15610fc457604051637dd0ee2f60e01b815260040160405180910390fd5b6000839003610fe6576040516316ee9d3b60e11b815260040160405180910390fd5b366000846001600160401b038111156110015761100161317d565b60405190808252806020026020018201604052801561102a578160200160208202803683370190505b50905060008061109661103c8a6135ff565b604080820151805160209081029181019190912082517fd679a49e9e099fa9ed83a5446aaec83e746b03ec6723d6f5efb29d37d7f0b78a815284518184015291909301519181019190915260608101919091526080902090565b905060006110a486836115fb565b905060005b888110156111a0578989828181106110c3576110c3613673565b6060029190910196506110ee9050826110df6020890189613689565b88602001358960400135611dc4565b85828151811061110057611100613673565b60200260200101906001600160a01b031690816001600160a01b03168152505084818151811061113257611132613673565b60200260200101516001600160a01b0316846001600160a01b031610611179576000356001600160e01b031916604051635d3dcd3160e01b81526004016105ba9190613168565b84818151811061118b5761118b613673565b602002602001015193508060010190506110a9565b5089356000908152600c60209081526040808320828e013584529091528120906111c986611dec565b90508881106112285780600003611201576000356001600160e01b031916604051637f11b8a360e11b81526004016105ba9190613168565b815460ff191660011782558b600961121982826136e6565b90505050505050505050610798565b6000356001600160e01b031916604051634ccfe64360e11b81526004016105ba9190613168565b600081815260018301602052604081205461129657508154600181810184556000848152602080822090930184905584548482528286019093526040902091909155610450565b506000610450565b6112a88282610813565b6105cd576112c0816001600160a01b03166014611f03565b6112cb836020611f03565b6040516020016112dc9291906137b9565b60408051601f198184030181529082905262461bcd60e51b82526105ba91600401613155565b61130c8282610813565b156105cd576000828152602081815260408083206001600160a01b0385168085529252808320805460ff1916905551339285917ff6391f5c32d9c69d2a47ea670b442974b53935d1edc7fd64eb21e047a839171b9190a45050565b600061080c836001600160a01b03841661209e565b60208201516000908082036113be5760405163092048d160e11b8152600080356001600160e01b031916600483015260248201524660448201526064016105ba565b6004546113cc908590612191565b60006113d785611483565b90506113e282612232565b600083815260036020908152604080832084845290915290819020908701516001820184905560069091015592508451831461143f576000356001600160e01b03191660405163d4cec26960e01b81526004016105ba9190613168565b8083837fa57d40f1496988cf60ab7c9d5ba4ff83647f67d3898d441a3aaf21b651678fd98888604051611473929190613933565b60405180910390a4505092915050565b6080810151606082015160a083015151600092919083906001600160401b038111156114b1576114b161317d565b6040519080825280602002602001820160405280156114da578160200160208202803683370190505b5060c086015190915060005b8251811015611539578660a00151818151811061150557611505613673565b60200260200101518051906020012083828151811061152657611526613673565b60209081029190910101526001016114e6565b50604080517fd051578048e6ff0bbc9fca3b65a42088dbde10f36ca841de566711087ad9b08a8152875160208083019190915280890151828401529790910151606082015283518702938701939093206080840152835186029386019390932060a0830152805185029085012060c082015281518402919093012060e083015250610100902090565b604080517fd900570327c4c0df8dd6bdd522b7da7e39145dd049d2fd4602276adcd511e3c2815260208101939093528201526060902090565b60405161190160f01b6020820152602281018390526042810182905260009060620160405160208183030381529060405280519060200120905092915050565b841580159061164957508483145b611674576000356001600160e01b0319166040516306b5667560e21b81526004016105ba9190613168565b60008080856001600160401b038111156116905761169061317d565b6040519080825280602002602001820160405280156116b9578160200160208202803683370190505b5090506000866001600160401b038111156116d6576116d661317d565b6040519080825280602002602001820160405280156116ff578160200160208202803683370190505b50905060008060003660005b8b811015611890578c8c8281811061172557611725613673565b90506060020191508e8e8281811061173f5761173f613673565b9050602002016020810190611754919061395d565b9250600083600181111561176a5761176a612f45565b036117d45761178f8b6117806020850185613689565b84602001358560400135611dc4565b945084878a61179d8161397a565b9b50815181106117af576117af613673565b60200260200101906001600160a01b031690816001600160a01b031681525050611845565b60018360018111156117e8576117e8612f45565b0361181e576117fe8a6117806020850185613689565b945084868961180c8161397a565b9a50815181106117af576117af613673565b6000356001600160e01b031916604051630612418f60e11b81526004016105ba9190613168565b846001600160a01b0316846001600160a01b031610611885576000356001600160e01b031916604051635d3dcd3160e01b81526004016105ba9190613168565b84935060010161170b565b50505085845250508281526020808c015160009081526003825260408082208e518352909252908120906118c2610da9565b905060006118cf856122ce565b90508181106119565780600003611907576000356001600160e01b031916604051637f11b8a360e11b81526004016105ba9190613168565b825460ff1916600190811784558301546040517f5c819725ea53655a3b898f3df59b66489761935454e9212ca1e5ebd759953d0b90600090a261194a838f6122e4565b505050505050506119fe565b600082611961612351565b61196b9190613993565b6119769060016139a6565b90506000611983866122ce565b905081811061122857806000036119bb576000356001600160e01b031916604051637f11b8a360e11b81526004016105ba9190613168565b845460ff1916600317855560018501546040517f55295d4ce992922fa2e5ffbf3a3dcdb367de0a15e125ace083456017fd22060f90600090a25050505050505050505b50505050505050565b611a476040518060e00160405280600081526020016000815260200160008152602001606081526020016060815260200160608152602001606081525090565b611a52858585612367565b9050611a696004548261219190919063ffffffff16565b6000611a7482611483565b90506000611a826000612232565b60008181527f3617319a054d772f909f7c479a2cebe5066e836a939412e32403c99029b92eff602090815260409091209089015160018201859055600690910155905082518114611af4576000356001600160e01b03191660405163d4cec26960e01b81526004016105ba9190613168565b81817f771d78ae9e5fca95a532fb0971d575d0ce9b59d14823c063e08740137e0e0eca85611b218b611b45565b8b89604051611b3394939291906139b9565b60405180910390a35050949350505050565b60608101516040820151608083015151600092919083906001600160401b03811115611b7357611b7361317d565b604051908082528060200260200182016040528015611b9c578160200160208202803683370190505b5060a086015190915060005b8251811015611bfb5786608001518181518110611bc757611bc7613673565b602002602001015180519060200120838281518110611be857611be8613673565b6020908102919091010152600101611ba8565b50604080517f1463f426c05aff2c1a7a0957a71c9898bc8b47142540538e79ee25ee911413508152875160208083019190915297880151918101919091528351870293870193909320606084015283518602938601939093206080830152805185029085012060a082015281518402919093012060c08301525060e0902090565b6000826000018281548110611c9357611c93613673565b9060005260206000200154905092915050565b611cb36040820182613092565b9050600003611cd5576040516316ee9d3b60e11b815260040160405180910390fd5b6000611ce46040830183613092565b6000818110611cf557611cf5613673565b9050602002016020810190611d0a9190612c7b565b905060015b611d1c6040840184613092565b905081101561054957611d326040840184613092565b82818110611d4257611d42613673565b9050602002016020810190611d579190612c7b565b6001600160a01b0316826001600160a01b031610611d8857604051630159959d60e01b815260040160405180910390fd5b611d956040840184613092565b82818110611da557611da5613673565b9050602002016020810190611dba9190612c7b565b9150600101611d0f565b6000806000611dd58787878761253d565b91509150611de28161262a565b5095945050505050565b600063d9d5dadb60e01b8180611e02600a6108b9565b6001600160a01b0316634bb5274a8487604051602401611e229190613aa7565b60408051601f198184030181529181526020820180516001600160e01b03166001600160e01b0319909416939093179092529051611e639190602401613155565b6040516020818303038152906040529060e01b6020820180516001600160e01b038381831617835250505050604051611e9c919061303f565b600060405180830381855afa9150503d8060008114611ed7576040519150601f19603f3d011682016040523d82523d6000602084013e611edc565b606091505b509092509050611eef8215158483610b35565b8080602001905181019061050791906135e6565b60606000611f128360026136c2565b611f1d9060026139a6565b6001600160401b03811115611f3457611f3461317d565b6040519080825280601f01601f191660200182016040528015611f5e576020820181803683370190505b509050600360fc1b81600081518110611f7957611f79613673565b60200101906001600160f81b031916908160001a905350600f60fb1b81600181518110611fa857611fa8613673565b60200101906001600160f81b031916908160001a9053506000611fcc8460026136c2565b611fd79060016139a6565b90505b600181111561204f576f181899199a1a9b1b9c1cb0b131b232b360811b85600f166010811061200b5761200b613673565b1a60f81b82828151811061202157612021613673565b60200101906001600160f81b031916908160001a90535060049490941c9361204881613af4565b9050611fda565b50831561080c5760405162461bcd60e51b815260206004820181905260248201527f537472696e67733a20686578206c656e67746820696e73756666696369656e7460448201526064016105ba565b600081815260018301602052604081205480156121875760006120c2600183613993565b85549091506000906120d690600190613993565b905081811461213b5760008660000182815481106120f6576120f6613673565b906000526020600020015490508087600001848154811061211957612119613673565b6000918252602080832090910192909255918252600188019052604090208390555b855486908061214c5761214c613b0b565b600190038181906000526020600020016000905590558560010160008681526020019081526020016000206000905560019350505050610450565b6000915050610450565b60008260600151511180156121af5750816080015151826060015151145b80156121c457508160a0015151826060015151145b80156121d957508160c0015151826060015151145b612204576000356001600160e01b0319166040516306b5667560e21b81526004016105ba9190613168565b61220e81426139a6565b826040015111156105cd5760405163ad89be9d60e01b815260040160405180910390fd5b600081815260026020526040812054908190036122615750600090815260026020526040902060019081905590565b60008281526003602090815260408083208484529091528120906000825460ff16600481111561229357612293612f45565b036122b15760405163757a436360e01b815260040160405180910390fd5b505050600090815260026020526040902080546001019081905590565b6000635f14a1c360e01b8180611e02600a6108b9565b6122ed81612992565b156105cd57815460ff19166002178255600080612309836129ac565b9150915083600101547fe134987599ae266ec90edeff1b26125b287dbb57b10822649432d1bb26537fba8383604051612343929190613b21565b60405180910390a250505050565b600063926323d560e01b8180610dbf600a6108b9565b6123a76040518060e00160405280600081526020016000815260200160008152602001606081526020016060815260200160608152602001606081525090565b83518152602080850151604080840191909152600091830191909152840151516001600160401b038111156123de576123de61317d565b604051908082528060200260200182016040528015612407578160200160208202803683370190505b5060608083019190915284015160808083019190915284015160a08083019190915284015160c082015260005b8460400151518110156125355760018560400151828151811061245957612459613673565b6020026020010151600181111561247257612472612f45565b036124b357828260600151828151811061248e5761248e613673565b60200260200101906001600160a01b031690816001600160a01b03168152505061252d565b6000856040015182815181106124cb576124cb613673565b602002602001015160018111156124e4576124e4612f45565b0361250057838260600151828151811061248e5761248e613673565b61250985611b45565b60405163612ee33160e01b81526004810191909152602481018290526044016105ba565b600101612434565b509392505050565b6000807f7fffffffffffffffffffffffffffffff5d576e7357a4501ddfe92f46681b20a08311156125745750600090506003612621565b8460ff16601b1415801561258c57508460ff16601c14155b1561259d5750600090506004612621565b6040805160008082526020820180845289905260ff881692820192909252606081018690526080810185905260019060a0016020604051602081039080840390855afa1580156125f1573d6000803e3d6000fd5b5050604051601f1901519150506001600160a01b03811661261a57600060019250925050612621565b9150600090505b94509492505050565b600081600481111561263e5761263e612f45565b036126465750565b600181600481111561265a5761265a612f45565b036126a75760405162461bcd60e51b815260206004820152601860248201527f45434453413a20696e76616c6964207369676e6174757265000000000000000060448201526064016105ba565b60028160048111156126bb576126bb612f45565b036127085760405162461bcd60e51b815260206004820152601f60248201527f45434453413a20696e76616c6964207369676e6174757265206c656e6774680060448201526064016105ba565b600381600481111561271c5761271c612f45565b036127745760405162461bcd60e51b815260206004820152602260248201527f45434453413a20696e76616c6964207369676e6174757265202773272076616c604482015261756560f01b60648201526084016105ba565b600481600481111561278857612788612f45565b036105215760405162461bcd60e51b815260206004820152602260248201527f45434453413a20696e76616c6964207369676e6174757265202776272076616c604482015261756560f01b60648201526084016105ba565b60048301548110156128935782600801600084600401838154811061280757612807613673565b60009182526020808320909101546001600160a01b031683528201929092526040018120805460ff19169055600484018054600786019291908490811061285057612850613673565b60009182526020808320909101546001600160a01b031683528201929092526040018120805460ff191681556001818101839055600290910191909155016127e0565b5060005b600583015481101561294a578260080160008460050183815481106128be576128be613673565b60009182526020808320909101546001600160a01b031683528201929092526040018120805460ff19169055600584018054600786019291908490811061290757612907613673565b60009182526020808320909101546001600160a01b031683528201929092526040018120805460ff19168155600181810183905560029091019190915501612897565b50815460ff191682556000600183018190556002830181905560038301819055612978906004840190612c0a565b612986600583016000612c0a565b60006006830155919050565b600081602001516000148061045057505060200151461490565b6060806129b883612992565b6129f657602083015160405163092048d160e11b81526000356001600160e01b031916600482015260248101919091524660448201526064016105ba565b8260600151516001600160401b03811115612a1357612a1361317d565b604051908082528060200260200182016040528015612a3c578160200160208202803683370190505b5091508260600151516001600160401b03811115612a5c57612a5c61317d565b604051908082528060200260200182016040528015612a8f57816020015b6060815260200190600190039081612a7a5790505b50905060005b836060015151811015612c04578360c001518181518110612ab857612ab8613673565b60200260200101515a11612aeb57612acf84611483565b6040516307aec4ab60e21b81526004016105ba91815260200190565b83606001518181518110612b0157612b01613673565b60200260200101516001600160a01b031684608001518281518110612b2857612b28613673565b60200260200101518560c001518381518110612b4657612b46613673565b6020026020010151908660a001518481518110612b6557612b65613673565b6020026020010151604051612b7a919061303f565b600060405180830381858888f193505050503d8060008114612bb8576040519150601f19603f3d011682016040523d82523d6000602084013e612bbd565b606091505b50848381518110612bd057612bd0613673565b60200260200101848481518110612be957612be9613673565b60209081029190910101919091529015159052600101612a95565b50915091565b508054600082559060005260206000209081019061052191905b80821115612c385760008155600101612c24565b5090565b600060208284031215612c4e57600080fd5b81356001600160e01b03198116811461080c57600080fd5b6001600160a01b038116811461052157600080fd5b600060208284031215612c8d57600080fd5b813561080c81612c66565b600060208284031215612caa57600080fd5b5035919050565b60008060408385031215612cc457600080fd5b823591506020830135612cd681612c66565b809150509250929050565b60008083601f840112612cf357600080fd5b5081356001600160401b03811115612d0a57600080fd5b6020830191508360208260051b8501011115612d2557600080fd5b9250929050565b60008083601f840112612d3e57600080fd5b5081356001600160401b03811115612d5557600080fd5b602083019150836020606083028501011115612d2557600080fd5b600080600080600060608688031215612d8857600080fd5b85356001600160401b0380821115612d9f57600080fd5b9087019060e0828a031215612db357600080fd5b90955060208701359080821115612dc957600080fd5b612dd589838a01612ce1565b90965094506040880135915080821115612dee57600080fd5b50612dfb88828901612d2c565b969995985093965092949392505050565b600081518084526020808501945080840160005b83811015612e455781516001600160a01b031687529582019590820190600101612e20565b509495945050505050565b60208152815160208201526020820151604082015260006040830151606080840152612e7f6080840182612e0c565b949350505050565b600080600080600060608688031215612e9f57600080fd5b85356001600160401b0380821115612eb657600080fd5b9087019060c0828a031215612db357600080fd5b60008060408385031215612edd57600080fd5b8235612ee881612c66565b91506020830135612cd681612c66565b8035600b811061092f57600080fd5b60008060408385031215612f1a57600080fd5b612ee883612ef8565b60008060408385031215612f3657600080fd5b50508035926020909101359150565b634e487b7160e01b600052602160045260246000fd5b60a0810160058710612f6f57612f6f612f45565b95815260208101949094526040840192909252606083015260809091015290565b600060208284031215612fa257600080fd5b61080c82612ef8565b600080600060408486031215612fc057600080fd5b83356001600160401b0380821115612fd757600080fd5b9085019060608288031215612feb57600080fd5b9093506020850135908082111561300157600080fd5b5061300e86828701612d2c565b9497909650939450505050565b60005b8381101561303657818101518382015260200161301e565b50506000910152565b6000825161305181846020870161301b565b9190910192915050565b60006020828403121561306d57600080fd5b815161080c81612c66565b60208101600b831061308c5761308c612f45565b91905290565b6000808335601e198436030181126130a957600080fd5b8301803591506001600160401b038211156130c357600080fd5b6020019150600581901b3603821315612d2557600080fd5b60208082528181018390526000908460408401835b8681101561311e57823561310381612c66565b6001600160a01b0316825291830191908301906001016130f0565b509695505050505050565b6000815180845261314181602086016020860161301b565b601f01601f19169290920160200192915050565b60208152600061080c6020830184613129565b6001600160e01b031991909116815260200190565b634e487b7160e01b600052604160045260246000fd5b60405160e081016001600160401b03811182821017156131b5576131b561317d565b60405290565b60405160c081016001600160401b03811182821017156131b5576131b561317d565b604051601f8201601f191681016001600160401b03811182821017156132055761320561317d565b604052919050565b60006001600160401b038211156132265761322661317d565b5060051b60200190565b600082601f83011261324157600080fd5b813560206132566132518361320d565b6131dd565b82815260059290921b8401810191818101908684111561327557600080fd5b8286015b8481101561311e57803561328c81612c66565b8352918301918301613279565b600082601f8301126132aa57600080fd5b813560206132ba6132518361320d565b82815260059290921b840181019181810190868411156132d957600080fd5b8286015b8481101561311e57803583529183019183016132dd565b6000601f838184011261330657600080fd5b823560206133166132518361320d565b82815260059290921b8501810191818101908784111561333557600080fd5b8287015b848110156133cb5780356001600160401b03808211156133595760008081fd5b818a0191508a603f83011261336e5760008081fd5b858201356040828211156133845761338461317d565b613395828b01601f191689016131dd565b92508183528c818386010111156133ac5760008081fd5b8181850189850137506000908201870152845250918301918301613339565b50979650505050505050565b600060e082360312156133e957600080fd5b6133f1613193565b82358152602083013560208201526040830135604082015260608301356001600160401b038082111561342357600080fd5b61342f36838701613230565b6060840152608085013591508082111561344857600080fd5b61345436838701613299565b608084015260a085013591508082111561346d57600080fd5b613479368387016132f4565b60a084015260c085013591508082111561349257600080fd5b5061349f36828601613299565b60c08301525092915050565b6002811061052157600080fd5b600082601f8301126134c957600080fd5b813560206134d96132518361320d565b82815260059290921b840181019181810190868411156134f857600080fd5b8286015b8481101561311e57803561350f816134ab565b83529183019183016134fc565b600060c0823603121561352e57600080fd5b6135366131bb565b823581526020830135602082015260408301356001600160401b038082111561355e57600080fd5b61356a368387016134b8565b6040840152606085013591508082111561358357600080fd5b61358f36838701613299565b606084015260808501359150808211156135a857600080fd5b6135b4368387016132f4565b608084015260a08501359150808211156135cd57600080fd5b506135da36828601613299565b60a08301525092915050565b6000602082840312156135f857600080fd5b5051919050565b60006060823603121561361157600080fd5b604051606081016001600160401b0382821081831117156136345761363461317d565b816040528435835260208501356020840152604085013591508082111561365a57600080fd5b5061366736828601613230565b60408301525092915050565b634e487b7160e01b600052603260045260246000fd5b60006020828403121561369b57600080fd5b813560ff8116811461080c57600080fd5b634e487b7160e01b600052601160045260246000fd5b8082028115828204841417610450576104506136ac565b6000813561045081612c66565b81358155600160208084013582840155600283016040850135601e1986360301811261371157600080fd5b850180356001600160401b0381111561372957600080fd5b83820191508060051b360382131561374057600080fd5b680100000000000000008111156137595761375961317d565b82548184558082101561378d5760008481528581208381019083015b808210156137895782825590880190613775565b5050505b50600092835260208320925b81811015610a5d576137aa836136d9565b84820155918401918501613799565b7f416363657373436f6e74726f6c3a206163636f756e74200000000000000000008152600083516137f181601785016020880161301b565b7001034b99036b4b9b9b4b733903937b6329607d1b601791840191820152835161382281602884016020880161301b565b01602801949350505050565b600081518084526020808501945080840160005b83811015612e4557815187529582019590820190600101613842565b600081518084526020808501808196508360051b8101915082860160005b858110156138a6578284038952613894848351613129565b9885019893509084019060010161387c565b5091979650505050505050565b8051825260208101516020830152604081015160408301526000606082015160e060608501526138e660e0850182612e0c565b9050608083015184820360808601526138ff828261382e565b91505060a083015184820360a0860152613919828261385e565b91505060c083015184820360c0860152610507828261382e565b60408152600061394660408301856138b3565b905060018060a01b03831660208301529392505050565b60006020828403121561396f57600080fd5b813561080c816134ab565b60006001820161398c5761398c6136ac565b5060010190565b81810381811115610450576104506136ac565b80820180821115610450576104506136ac565b6080815260006139cc60808301876138b3565b60208681850152838203604085015260c08201865183528187015182840152604087015160c0604085015281815180845260e0860191508483019350600092505b80831015613a3d57835160028110613a2757613a27612f45565b8252928401926001929092019190840190613a0d565b50606089015193508481036060860152613a57818561382e565b935050505060808601518282036080840152613a73828261385e565b91505060a086015182820360a0840152613a8d828261382e565b935050505061050760608301846001600160a01b03169052565b6020808252825182820181905260009190848201906040850190845b81811015613ae85783516001600160a01b031683529284019291840191600101613ac3565b50909695505050505050565b600081613b0357613b036136ac565b506000190190565b634e487b7160e01b600052603160045260246000fd5b604080825283519082018190526000906020906060840190828701845b82811015613b5c578151151584529284019290840190600101613b3e565b50505083810382850152613b70818661385e565b969550505050505056fee2b7fb3b832174769106daebcfd6d1970523240dda11281102db9363b83b0dc4a164736f6c6343000811000a",
  "devdoc": {
    "errors": {
      "ErrBridgeOperatorSetIsAlreadyVoted()": [
        {
          "details": "Error indicating that the bridge operator set has already been voted."
        }
      ],
      "ErrContractTypeNotFound(uint8)": [
        {
          "details": "Error of invalid role."
        }
      ],
      "ErrCurrentProposalIsNotCompleted()": [
        {
          "details": "Error thrown when the current proposal is not completed."
        }
      ],
      "ErrEmptyArray()": [
        {
          "details": "Error indicating that an array is empty when it should contain elements."
        }
      ],
      "ErrInsufficientGas(bytes32)": [
        {
          "details": "Error thrown when there is insufficient gas to execute a function."
        }
      ],
      "ErrInvalidChainId(bytes4,uint256,uint256)": [
        {
          "details": "Error indicating that the chain ID is invalid.",
          "params": {
            "actual": "Current chain ID that executing function.",
            "expected": "Expected chain ID required for the tx to success.",
            "msgSig": "The function signature (bytes4) of the operation that encountered an invalid chain ID."
          }
        }
      ],
      "ErrInvalidExpiryTimestamp()": [
        {
          "details": "Error thrown when an invalid expiry timestamp is provided."
        }
      ],
      "ErrInvalidOrder(bytes4)": [
        {
          "details": "Error indicating that an order is invalid.",
          "params": {
            "msgSig": "The function signature (bytes4) of the operation that encountered an invalid order."
          }
        }
      ],
      "ErrInvalidOrderOfBridgeOperator()": [
        {
          "details": "Error thrown when an invalid order of the bridge operator is detected."
        }
      ],
      "ErrInvalidProposalNonce(bytes4)": [
        {
          "details": "Error indicating that the proposal nonce is invalid.",
          "params": {
            "msgSig": "The function signature (bytes4) of the operation that encountered an invalid proposal nonce."
          }
        }
      ],
      "ErrInvalidVoteWeight(bytes4)": [
        {
          "details": "Error indicating that a vote weight is invalid for a specific function signature.",
          "params": {
            "msgSig": "The function signature (bytes4) that encountered an invalid vote weight."
          }
        }
      ],
      "ErrLengthMismatch(bytes4)": [
        {
          "details": "Error indicating a mismatch in the length of input parameters or arrays for a specific function.",
          "params": {
            "msgSig": "The function signature (bytes4) that has a length mismatch."
          }
        }
      ],
      "ErrOnlySelfCall(bytes4)": [
        {
          "details": "Error indicating that a function can only be called by the contract itself.",
          "params": {
            "msgSig": "The function signature (bytes4) that can only be called by the contract itself."
          }
        }
      ],
      "ErrQueryForOutdatedBridgeOperatorSet()": [
        {
          "details": "Error indicating that a query was made for an outdated bridge operator set."
        }
      ],
      "ErrRelayFailed(bytes4)": [
        {
          "details": "Error indicating that a relay call has failed.",
          "params": {
            "msgSig": "The function signature (bytes4) of the relay call that failed."
          }
        }
      ],
      "ErrUnsupportedTarget(bytes32,uint256)": [
        {
          "details": "Error thrown when attempting to interact with an unsupported target."
        }
      ],
      "ErrUnsupportedVoteType(bytes4)": [
        {
          "details": "Error indicating that a vote type is not supported.",
          "params": {
            "msgSig": "The function signature (bytes4) of the operation that encountered an unsupported vote type."
          }
        }
      ],
      "ErrVoteIsFinalized()": [
        {
          "details": "Error thrown when attempting to interact with a finalized vote."
        }
      ],
      "ErrZeroCodeContract(address)": [
        {
          "details": "Error of set to non-contract."
        }
      ]
    },
    "kind": "dev",
    "methods": {
      "bridgeOperatorsRelayed(uint256,uint256)": {
        "details": "Returns whether the voter `_voter` casted vote for bridge operators at a specific period."
      },
      "changeProxyAdmin(address,address)": {
        "details": "Changes the admin of `_proxy` to `newAdmin`. Requirements: - This contract must be the current admin of `_proxy`."
      },
      "getContract(uint8)": {
        "details": "Returns the address of a contract with a specific role. Throws an error if no contract is set for the specified role.",
        "params": {
          "contractType": "The role of the contract to retrieve."
        },
        "returns": {
          "contract_": "The address of the contract with the specified role."
        }
      },
      "getProposalExpiryDuration()": {
        "details": "Returns the proposal expiry duration."
      },
      "getProxyAdmin(address)": {
        "details": "Returns the current admin of `_proxy`. Requirements: - This contract must be the admin of `_proxy`."
      },
      "getProxyImplementation(address)": {
        "details": "Returns the current implementation of `_proxy`. Requirements: - This contract must be the admin of `_proxy`."
      },
      "getRoleAdmin(bytes32)": {
        "details": "Returns the admin role that controls `role`. See {grantRole} and {revokeRole}. To change a role's admin, use {_setRoleAdmin}."
      },
      "getRoleMember(bytes32,uint256)": {
        "details": "Returns one of the accounts that have `role`. `index` must be a value between 0 and {getRoleMemberCount}, non-inclusive. Role bearers are not sorted in any particular way, and their ordering may change at any point. WARNING: When using {getRoleMember} and {getRoleMemberCount}, make sure you perform all queries on the same block. See the following https://forum.openzeppelin.com/t/iterating-over-elements-on-enumerableset-in-openzeppelin-contracts/2296[forum post] for more information."
      },
      "getRoleMemberCount(bytes32)": {
        "details": "Returns the number of accounts that have `role`. Can be used together with {getRoleMember} to enumerate all bearers of a role."
      },
      "grantRole(bytes32,address)": {
        "details": "Grants `role` to `account`. If `account` had not been already granted `role`, emits a {RoleGranted} event. Requirements: - the caller must have ``role``'s admin role. May emit a {RoleGranted} event."
      },
      "hasRole(bytes32,address)": {
        "details": "Returns `true` if `account` has been granted `role`."
      },
      "lastSyncedBridgeOperatorSetInfo()": {
        "details": "Returns the synced bridge operator set info."
      },
      "proposalRelayed(uint256,uint256)": {
        "details": "Returns whether the voter `_voter` casted vote for the proposal."
      },
      "relayBridgeOperators((uint256,uint256,address[]),(uint8,bytes32,bytes32)[])": {
        "details": "See `BOsGovernanceRelay-_relayVotesBySignatures`. Requirements: - The method caller is relayer."
      },
      "relayGlobalProposal((uint256,uint256,uint8[],uint256[],bytes[],uint256[]),uint8[],(uint8,bytes32,bytes32)[])": {
        "details": "See `GovernanceRelay-_relayGlobalProposal`. Requirements: - The method caller is relayer."
      },
      "relayProposal((uint256,uint256,uint256,address[],uint256[],bytes[],uint256[]),uint8[],(uint8,bytes32,bytes32)[])": {
        "details": "See `GovernanceRelay-_relayProposal`. Requirements: - The method caller is relayer."
      },
      "renounceRole(bytes32,address)": {
        "details": "Revokes `role` from the calling account. Roles are often managed via {grantRole} and {revokeRole}: this function's purpose is to provide a mechanism for accounts to lose their privileges if they are compromised (such as when a trusted device is misplaced). If the calling account had been revoked `role`, emits a {RoleRevoked} event. Requirements: - the caller must be `account`. May emit a {RoleRevoked} event."
      },
      "revokeRole(bytes32,address)": {
        "details": "Revokes `role` from `account`. If `account` had been granted `role`, emits a {RoleRevoked} event. Requirements: - the caller must have ``role``'s admin role. May emit a {RoleRevoked} event."
      },
      "setContract(uint8,address)": {
        "details": "Sets the address of a contract with a specific role. Emits the event {ContractUpdated}.",
        "params": {
          "addr": "The address of the contract to set.",
          "contractType": "The role of the contract to set."
        }
      },
      "setProposalExpiryDuration(uint256)": {
        "details": "Sets the expiry duration for a new proposal. Requirements: - Only allowing self-call to this method, since this contract does not have admin."
      },
      "supportsInterface(bytes4)": {
        "details": "See {IERC165-supportsInterface}."
      }
    },
    "version": 1
  },
  "userdoc": {
    "kind": "user",
    "methods": {
      "round(uint256)": {
        "notice": "chain id = 0 for global proposal"
      }
    },
    "version": 1
  },
  "storageLayout": {
    "storage": [
      {
        "astId": 24,
        "contract": "contracts/mainchain/MainchainGovernanceAdmin.sol:MainchainGovernanceAdmin",
        "label": "_roles",
        "offset": 0,
        "slot": "0",
        "type": "t_mapping(t_bytes32,t_struct(RoleData)19_storage)"
      },
      {
        "astId": 338,
        "contract": "contracts/mainchain/MainchainGovernanceAdmin.sol:MainchainGovernanceAdmin",
        "label": "_roleMembers",
        "offset": 0,
        "slot": "1",
        "type": "t_mapping(t_bytes32,t_struct(AddressSet)2456_storage)"
      },
      {
        "astId": 3692,
        "contract": "contracts/mainchain/MainchainGovernanceAdmin.sol:MainchainGovernanceAdmin",
        "label": "round",
        "offset": 0,
        "slot": "2",
        "type": "t_mapping(t_uint256,t_uint256)"
      },
      {
        "astId": 3700,
        "contract": "contracts/mainchain/MainchainGovernanceAdmin.sol:MainchainGovernanceAdmin",
        "label": "vote",
        "offset": 0,
        "slot": "3",
        "type": "t_mapping(t_uint256,t_mapping(t_uint256,t_struct(ProposalVote)3618_storage))"
      },
      {
        "astId": 3702,
        "contract": "contracts/mainchain/MainchainGovernanceAdmin.sol:MainchainGovernanceAdmin",
        "label": "_proposalExpiryDuration",
        "offset": 0,
        "slot": "4",
        "type": "t_uint256"
      },
      {
        "astId": 6848,
        "contract": "contracts/mainchain/MainchainGovernanceAdmin.sol:MainchainGovernanceAdmin",
        "label": "______deprecatedGovernanceAdmin",
        "offset": 0,
        "slot": "5",
        "type": "t_address"
      },
      {
        "astId": 6828,
        "contract": "contracts/mainchain/MainchainGovernanceAdmin.sol:MainchainGovernanceAdmin",
        "label": "______deprecatedBridge",
        "offset": 0,
        "slot": "6",
        "type": "t_address"
      },
      {
        "astId": 2766,
        "contract": "contracts/mainchain/MainchainGovernanceAdmin.sol:MainchainGovernanceAdmin",
        "label": "roninChainId",
        "offset": 0,
        "slot": "7",
        "type": "t_uint256"
      },
      {
        "astId": 2769,
        "contract": "contracts/mainchain/MainchainGovernanceAdmin.sol:MainchainGovernanceAdmin",
        "label": "DOMAIN_SEPARATOR",
        "offset": 0,
        "slot": "8",
        "type": "t_bytes32"
      },
      {
        "astId": 3139,
        "contract": "contracts/mainchain/MainchainGovernanceAdmin.sol:MainchainGovernanceAdmin",
        "label": "_lastSyncedBridgeOperatorSetInfo",
        "offset": 0,
        "slot": "9",
        "type": "t_struct(BridgeOperatorSet)5480_storage"
      },
      {
        "astId": 3147,
        "contract": "contracts/mainchain/MainchainGovernanceAdmin.sol:MainchainGovernanceAdmin",
        "label": "_vote",
        "offset": 0,
        "slot": "12",
        "type": "t_mapping(t_uint256,t_mapping(t_uint256,t_struct(Vote)5840_storage))"
      }
    ],
    "types": {
      "t_address": {
        "encoding": "inplace",
        "label": "address",
        "numberOfBytes": "20"
      },
      "t_array(t_address)dyn_storage": {
        "base": "t_address",
        "encoding": "dynamic_array",
        "label": "address[]",
        "numberOfBytes": "32"
      },
      "t_array(t_bytes32)dyn_storage": {
        "base": "t_bytes32",
        "encoding": "dynamic_array",
        "label": "bytes32[]",
        "numberOfBytes": "32"
      },
      "t_bool": {
        "encoding": "inplace",
        "label": "bool",
        "numberOfBytes": "1"
      },
      "t_bytes32": {
        "encoding": "inplace",
        "label": "bytes32",
        "numberOfBytes": "32"
      },
      "t_enum(VoteStatus)5355": {
        "encoding": "inplace",
        "label": "enum VoteStatusConsumer.VoteStatus",
        "numberOfBytes": "1"
      },
      "t_mapping(t_address,t_bool)": {
        "encoding": "mapping",
        "key": "t_address",
        "label": "mapping(address => bool)",
        "numberOfBytes": "32",
        "value": "t_bool"
      },
      "t_mapping(t_address,t_bytes32)": {
        "encoding": "mapping",
        "key": "t_address",
        "label": "mapping(address => bytes32)",
        "numberOfBytes": "32",
        "value": "t_bytes32"
      },
      "t_mapping(t_address,t_struct(Signature)5346_storage)": {
        "encoding": "mapping",
        "key": "t_address",
        "label": "mapping(address => struct SignatureConsumer.Signature)",
        "numberOfBytes": "32",
        "value": "t_struct(Signature)5346_storage"
      },
      "t_mapping(t_bytes32,t_struct(AddressSet)2456_storage)": {
        "encoding": "mapping",
        "key": "t_bytes32",
        "label": "mapping(bytes32 => struct EnumerableSet.AddressSet)",
        "numberOfBytes": "32",
        "value": "t_struct(AddressSet)2456_storage"
      },
      "t_mapping(t_bytes32,t_struct(RoleData)19_storage)": {
        "encoding": "mapping",
        "key": "t_bytes32",
        "label": "mapping(bytes32 => struct AccessControl.RoleData)",
        "numberOfBytes": "32",
        "value": "t_struct(RoleData)19_storage"
      },
      "t_mapping(t_bytes32,t_uint256)": {
        "encoding": "mapping",
        "key": "t_bytes32",
        "label": "mapping(bytes32 => uint256)",
        "numberOfBytes": "32",
        "value": "t_uint256"
      },
      "t_mapping(t_uint256,t_mapping(t_uint256,t_struct(ProposalVote)3618_storage))": {
        "encoding": "mapping",
        "key": "t_uint256",
        "label": "mapping(uint256 => mapping(uint256 => struct CoreGovernance.ProposalVote))",
        "numberOfBytes": "32",
        "value": "t_mapping(t_uint256,t_struct(ProposalVote)3618_storage)"
      },
      "t_mapping(t_uint256,t_mapping(t_uint256,t_struct(Vote)5840_storage))": {
        "encoding": "mapping",
        "key": "t_uint256",
        "label": "mapping(uint256 => mapping(uint256 => struct IsolatedGovernance.Vote))",
        "numberOfBytes": "32",
        "value": "t_mapping(t_uint256,t_struct(Vote)5840_storage)"
      },
      "t_mapping(t_uint256,t_struct(ProposalVote)3618_storage)": {
        "encoding": "mapping",
        "key": "t_uint256",
        "label": "mapping(uint256 => struct CoreGovernance.ProposalVote)",
        "numberOfBytes": "32",
        "value": "t_struct(ProposalVote)3618_storage"
      },
      "t_mapping(t_uint256,t_struct(Vote)5840_storage)": {
        "encoding": "mapping",
        "key": "t_uint256",
        "label": "mapping(uint256 => struct IsolatedGovernance.Vote)",
        "numberOfBytes": "32",
        "value": "t_struct(Vote)5840_storage"
      },
      "t_mapping(t_uint256,t_uint256)": {
        "encoding": "mapping",
        "key": "t_uint256",
        "label": "mapping(uint256 => uint256)",
        "numberOfBytes": "32",
        "value": "t_uint256"
      },
      "t_struct(AddressSet)2456_storage": {
        "encoding": "inplace",
        "label": "struct EnumerableSet.AddressSet",
        "members": [
          {
            "astId": 2455,
            "contract": "contracts/mainchain/MainchainGovernanceAdmin.sol:MainchainGovernanceAdmin",
            "label": "_inner",
            "offset": 0,
            "slot": "0",
            "type": "t_struct(Set)2155_storage"
          }
        ],
        "numberOfBytes": "64"
      },
      "t_struct(BridgeOperatorSet)5480_storage": {
        "encoding": "inplace",
        "label": "struct BridgeOperatorsBallot.BridgeOperatorSet",
        "members": [
          {
            "astId": 5474,
            "contract": "contracts/mainchain/MainchainGovernanceAdmin.sol:MainchainGovernanceAdmin",
            "label": "period",
            "offset": 0,
            "slot": "0",
            "type": "t_uint256"
          },
          {
            "astId": 5476,
            "contract": "contracts/mainchain/MainchainGovernanceAdmin.sol:MainchainGovernanceAdmin",
            "label": "epoch",
            "offset": 0,
            "slot": "1",
            "type": "t_uint256"
          },
          {
            "astId": 5479,
            "contract": "contracts/mainchain/MainchainGovernanceAdmin.sol:MainchainGovernanceAdmin",
            "label": "operators",
            "offset": 0,
            "slot": "2",
            "type": "t_array(t_address)dyn_storage"
          }
        ],
        "numberOfBytes": "96"
      },
      "t_struct(ProposalVote)3618_storage": {
        "encoding": "inplace",
        "label": "struct CoreGovernance.ProposalVote",
        "members": [
          {
            "astId": 3594,
            "contract": "contracts/mainchain/MainchainGovernanceAdmin.sol:MainchainGovernanceAdmin",
            "label": "status",
            "offset": 0,
            "slot": "0",
            "type": "t_enum(VoteStatus)5355"
          },
          {
            "astId": 3596,
            "contract": "contracts/mainchain/MainchainGovernanceAdmin.sol:MainchainGovernanceAdmin",
            "label": "hash",
            "offset": 0,
            "slot": "1",
            "type": "t_bytes32"
          },
          {
            "astId": 3598,
            "contract": "contracts/mainchain/MainchainGovernanceAdmin.sol:MainchainGovernanceAdmin",
            "label": "againstVoteWeight",
            "offset": 0,
            "slot": "2",
            "type": "t_uint256"
          },
          {
            "astId": 3600,
            "contract": "contracts/mainchain/MainchainGovernanceAdmin.sol:MainchainGovernanceAdmin",
            "label": "forVoteWeight",
            "offset": 0,
            "slot": "3",
            "type": "t_uint256"
          },
          {
            "astId": 3603,
            "contract": "contracts/mainchain/MainchainGovernanceAdmin.sol:MainchainGovernanceAdmin",
            "label": "forVoteds",
            "offset": 0,
            "slot": "4",
            "type": "t_array(t_address)dyn_storage"
          },
          {
            "astId": 3606,
            "contract": "contracts/mainchain/MainchainGovernanceAdmin.sol:MainchainGovernanceAdmin",
            "label": "againstVoteds",
            "offset": 0,
            "slot": "5",
            "type": "t_array(t_address)dyn_storage"
          },
          {
            "astId": 3608,
            "contract": "contracts/mainchain/MainchainGovernanceAdmin.sol:MainchainGovernanceAdmin",
            "label": "expiryTimestamp",
            "offset": 0,
            "slot": "6",
            "type": "t_uint256"
          },
          {
            "astId": 3613,
            "contract": "contracts/mainchain/MainchainGovernanceAdmin.sol:MainchainGovernanceAdmin",
            "label": "sig",
            "offset": 0,
            "slot": "7",
            "type": "t_mapping(t_address,t_struct(Signature)5346_storage)"
          },
          {
            "astId": 3617,
            "contract": "contracts/mainchain/MainchainGovernanceAdmin.sol:MainchainGovernanceAdmin",
            "label": "voted",
            "offset": 0,
            "slot": "8",
            "type": "t_mapping(t_address,t_bool)"
          }
        ],
        "numberOfBytes": "288"
      },
      "t_struct(RoleData)19_storage": {
        "encoding": "inplace",
        "label": "struct AccessControl.RoleData",
        "members": [
          {
            "astId": 16,
            "contract": "contracts/mainchain/MainchainGovernanceAdmin.sol:MainchainGovernanceAdmin",
            "label": "members",
            "offset": 0,
            "slot": "0",
            "type": "t_mapping(t_address,t_bool)"
          },
          {
            "astId": 18,
            "contract": "contracts/mainchain/MainchainGovernanceAdmin.sol:MainchainGovernanceAdmin",
            "label": "adminRole",
            "offset": 0,
            "slot": "1",
            "type": "t_bytes32"
          }
        ],
        "numberOfBytes": "64"
      },
      "t_struct(Set)2155_storage": {
        "encoding": "inplace",
        "label": "struct EnumerableSet.Set",
        "members": [
          {
            "astId": 2150,
            "contract": "contracts/mainchain/MainchainGovernanceAdmin.sol:MainchainGovernanceAdmin",
            "label": "_values",
            "offset": 0,
            "slot": "0",
            "type": "t_array(t_bytes32)dyn_storage"
          },
          {
            "astId": 2154,
            "contract": "contracts/mainchain/MainchainGovernanceAdmin.sol:MainchainGovernanceAdmin",
            "label": "_indexes",
            "offset": 0,
            "slot": "1",
            "type": "t_mapping(t_bytes32,t_uint256)"
          }
        ],
        "numberOfBytes": "64"
      },
      "t_struct(Signature)5346_storage": {
        "encoding": "inplace",
        "label": "struct SignatureConsumer.Signature",
        "members": [
          {
            "astId": 5341,
            "contract": "contracts/mainchain/MainchainGovernanceAdmin.sol:MainchainGovernanceAdmin",
            "label": "v",
            "offset": 0,
            "slot": "0",
            "type": "t_uint8"
          },
          {
            "astId": 5343,
            "contract": "contracts/mainchain/MainchainGovernanceAdmin.sol:MainchainGovernanceAdmin",
            "label": "r",
            "offset": 0,
            "slot": "1",
            "type": "t_bytes32"
          },
          {
            "astId": 5345,
            "contract": "contracts/mainchain/MainchainGovernanceAdmin.sol:MainchainGovernanceAdmin",
            "label": "s",
            "offset": 0,
            "slot": "2",
            "type": "t_bytes32"
          }
        ],
        "numberOfBytes": "96"
      },
      "t_struct(Vote)5840_storage": {
        "encoding": "inplace",
        "label": "struct IsolatedGovernance.Vote",
        "members": [
          {
            "astId": 5822,
            "contract": "contracts/mainchain/MainchainGovernanceAdmin.sol:MainchainGovernanceAdmin",
            "label": "status",
            "offset": 0,
            "slot": "0",
            "type": "t_enum(VoteStatus)5355"
          },
          {
            "astId": 5824,
            "contract": "contracts/mainchain/MainchainGovernanceAdmin.sol:MainchainGovernanceAdmin",
            "label": "finalHash",
            "offset": 0,
            "slot": "1",
            "type": "t_bytes32"
          },
          {
            "astId": 5829,
            "contract": "contracts/mainchain/MainchainGovernanceAdmin.sol:MainchainGovernanceAdmin",
            "label": "voteHashOf",
            "offset": 0,
            "slot": "2",
            "type": "t_mapping(t_address,t_bytes32)"
          },
          {
            "astId": 5832,
            "contract": "contracts/mainchain/MainchainGovernanceAdmin.sol:MainchainGovernanceAdmin",
            "label": "expiredAt",
            "offset": 0,
            "slot": "3",
            "type": "t_uint256"
          },
          {
            "astId": 5835,
            "contract": "contracts/mainchain/MainchainGovernanceAdmin.sol:MainchainGovernanceAdmin",
            "label": "createdAt",
            "offset": 0,
            "slot": "4",
            "type": "t_uint256"
          },
          {
            "astId": 5839,
            "contract": "contracts/mainchain/MainchainGovernanceAdmin.sol:MainchainGovernanceAdmin",
            "label": "voters",
            "offset": 0,
            "slot": "5",
            "type": "t_array(t_address)dyn_storage"
          }
        ],
        "numberOfBytes": "192"
      },
      "t_uint256": {
        "encoding": "inplace",
        "label": "uint256",
        "numberOfBytes": "32"
      },
      "t_uint8": {
        "encoding": "inplace",
        "label": "uint8",
        "numberOfBytes": "1"
      }
    }
  }
}