{
  "address": "0x073de79499a1C7D474241755af8aa47e091f0664",
  "abi": [
    {
      "inputs": [
        {
          "internalType": "uint256",
          "name": "num",
          "type": "uint256"
        },
        {
          "internalType": "uint256",
          "name": "denom",
          "type": "uint256"
        },
        {
          "internalType": "uint256",
          "name": "roninChainId",
          "type": "uint256"
        },
        {
          "internalType": "address",
          "name": "bridgeContract",
          "type": "address"
        },
        {
          "internalType": "address[]",
          "name": "callbackRegisters",
          "type": "address[]"
        },
        {
          "internalType": "address[]",
          "name": "bridgeOperators",
          "type": "address[]"
        },
        {
          "internalType": "address[]",
          "name": "governors",
          "type": "address[]"
        },
        {
          "internalType": "uint96[]",
          "name": "voteWeights",
          "type": "uint96[]"
        },
        {
          "internalType": "enum GlobalProposal.TargetOption[]",
          "name": "targetOptions",
          "type": "uint8[]"
        },
        {
          "internalType": "address[]",
          "name": "targets",
          "type": "address[]"
        }
      ],
      "stateMutability": "payable",
      "type": "constructor"
    },
    {
      "inputs": [
        {
          "internalType": "address",
          "name": "bridgeOperator",
          "type": "address"
        }
      ],
      "name": "ErrBridgeOperatorAlreadyExisted",
      "type": "error"
    },
    {
      "inputs": [
        {
          "internalType": "address",
          "name": "bridgeOperator",
          "type": "address"
        }
      ],
      "name": "ErrBridgeOperatorUpdateFailed",
      "type": "error"
    },
    {
      "inputs": [
        {
          "internalType": "enum ContractType",
          "name": "contractType",
          "type": "uint8"
        }
      ],
      "name": "ErrContractTypeNotFound",
      "type": "error"
    },
    {
      "inputs": [],
      "name": "ErrCurrentProposalIsNotCompleted",
      "type": "error"
    },
    {
      "inputs": [
        {
          "internalType": "bytes4",
          "name": "msgSig",
          "type": "bytes4"
        }
      ],
      "name": "ErrDuplicated",
      "type": "error"
    },
    {
      "inputs": [
        {
          "internalType": "bytes32",
          "name": "proposalHash",
          "type": "bytes32"
        }
      ],
      "name": "ErrInsufficientGas",
      "type": "error"
    },
    {
      "inputs": [
        {
          "internalType": "bytes4",
          "name": "msgSig",
          "type": "bytes4"
        }
      ],
      "name": "ErrInvalidArguments",
      "type": "error"
    },
    {
      "inputs": [
        {
          "internalType": "bytes4",
          "name": "msgSig",
          "type": "bytes4"
        },
        {
          "internalType": "uint256",
          "name": "actual",
          "type": "uint256"
        },
        {
          "internalType": "uint256",
          "name": "expected",
          "type": "uint256"
        }
      ],
      "name": "ErrInvalidChainId",
      "type": "error"
    },
    {
      "inputs": [],
      "name": "ErrInvalidExpiryTimestamp",
      "type": "error"
    },
    {
      "inputs": [
        {
          "internalType": "bytes4",
          "name": "msgSig",
          "type": "bytes4"
        }
      ],
      "name": "ErrInvalidOrder",
      "type": "error"
    },
    {
      "inputs": [
        {
          "internalType": "bytes4",
          "name": "msgSig",
          "type": "bytes4"
        }
      ],
      "name": "ErrInvalidProposalNonce",
      "type": "error"
    },
    {
      "inputs": [
        {
          "internalType": "bytes4",
          "name": "msgSig",
          "type": "bytes4"
        }
      ],
      "name": "ErrInvalidThreshold",
      "type": "error"
    },
    {
      "inputs": [
        {
          "internalType": "bytes4",
          "name": "msgSig",
          "type": "bytes4"
        }
      ],
      "name": "ErrInvalidVoteWeight",
      "type": "error"
    },
    {
      "inputs": [
        {
          "internalType": "bytes4",
          "name": "msgSig",
          "type": "bytes4"
        }
      ],
      "name": "ErrLengthMismatch",
      "type": "error"
    },
    {
      "inputs": [
        {
          "internalType": "bytes4",
          "name": "msgSig",
          "type": "bytes4"
        }
      ],
      "name": "ErrOnlySelfCall",
      "type": "error"
    },
    {
      "inputs": [
        {
          "internalType": "bytes4",
          "name": "msgSig",
          "type": "bytes4"
        }
      ],
      "name": "ErrRelayFailed",
      "type": "error"
    },
    {
      "inputs": [
        {
          "internalType": "bytes4",
          "name": "msgSig",
          "type": "bytes4"
        },
        {
          "internalType": "enum RoleAccess",
          "name": "expectedRole",
          "type": "uint8"
        }
      ],
      "name": "ErrUnauthorized",
      "type": "error"
    },
    {
      "inputs": [
        {
          "internalType": "bytes4",
          "name": "interfaceId",
          "type": "bytes4"
        },
        {
          "internalType": "address",
          "name": "addr",
          "type": "address"
        }
      ],
      "name": "ErrUnsupportedInterface",
      "type": "error"
    },
    {
      "inputs": [
        {
          "internalType": "bytes4",
          "name": "msgSig",
          "type": "bytes4"
        }
      ],
      "name": "ErrUnsupportedVoteType",
      "type": "error"
    },
    {
      "inputs": [],
      "name": "ErrVoteIsFinalized",
      "type": "error"
    },
    {
      "inputs": [
        {
          "internalType": "bytes4",
          "name": "msgSig",
          "type": "bytes4"
        }
      ],
      "name": "ErrZeroAddress",
      "type": "error"
    },
    {
      "inputs": [
        {
          "internalType": "address",
          "name": "addr",
          "type": "address"
        }
      ],
      "name": "ErrZeroCodeContract",
      "type": "error"
    },
    {
      "anonymous": false,
      "inputs": [
        {
          "indexed": true,
          "internalType": "address",
          "name": "governor",
          "type": "address"
        },
        {
          "indexed": true,
          "internalType": "address",
          "name": "fromBridgeOperator",
          "type": "address"
        },
        {
          "indexed": true,
          "internalType": "address",
          "name": "toBridgeOperator",
          "type": "address"
        }
      ],
      "name": "BridgeOperatorUpdated",
      "type": "event"
    },
    {
      "anonymous": false,
      "inputs": [
        {
          "indexed": false,
          "internalType": "bool[]",
          "name": "statuses",
          "type": "bool[]"
        },
        {
          "indexed": false,
          "internalType": "uint96[]",
          "name": "voteWeights",
          "type": "uint96[]"
        },
        {
          "indexed": false,
          "internalType": "address[]",
          "name": "governors",
          "type": "address[]"
        },
        {
          "indexed": false,
          "internalType": "address[]",
          "name": "bridgeOperators",
          "type": "address[]"
        }
      ],
      "name": "BridgeOperatorsAdded",
      "type": "event"
    },
    {
      "anonymous": false,
      "inputs": [
        {
          "indexed": false,
          "internalType": "bool[]",
          "name": "statuses",
          "type": "bool[]"
        },
        {
          "indexed": false,
          "internalType": "address[]",
          "name": "bridgeOperators",
          "type": "address[]"
        }
      ],
      "name": "BridgeOperatorsRemoved",
      "type": "event"
    },
    {
      "anonymous": false,
      "inputs": [
        {
          "indexed": true,
          "internalType": "enum ContractType",
          "name": "contractType",
          "type": "uint8"
        },
        {
          "indexed": true,
          "internalType": "address",
          "name": "addr",
          "type": "address"
        }
      ],
      "name": "ContractUpdated",
      "type": "event"
    },
    {
      "anonymous": false,
      "inputs": [
        {
          "indexed": true,
          "internalType": "uint256",
          "name": "round",
          "type": "uint256"
        },
        {
          "indexed": true,
          "internalType": "bytes32",
          "name": "proposalHash",
          "type": "bytes32"
        },
        {
          "components": [
            {
              "internalType": "uint256",
              "name": "nonce",
              "type": "uint256"
            },
            {
              "internalType": "uint256",
              "name": "chainId",
              "type": "uint256"
            },
            {
              "internalType": "uint256",
              "name": "expiryTimestamp",
              "type": "uint256"
            },
            {
              "internalType": "address[]",
              "name": "targets",
              "type": "address[]"
            },
            {
              "internalType": "uint256[]",
              "name": "values",
              "type": "uint256[]"
            },
            {
              "internalType": "bytes[]",
              "name": "calldatas",
              "type": "bytes[]"
            },
            {
              "internalType": "uint256[]",
              "name": "gasAmounts",
              "type": "uint256[]"
            }
          ],
          "indexed": false,
          "internalType": "struct Proposal.ProposalDetail",
          "name": "proposal",
          "type": "tuple"
        },
        {
          "indexed": false,
          "internalType": "bytes32",
          "name": "globalProposalHash",
          "type": "bytes32"
        },
        {
          "components": [
            {
              "internalType": "uint256",
              "name": "nonce",
              "type": "uint256"
            },
            {
              "internalType": "uint256",
              "name": "expiryTimestamp",
              "type": "uint256"
            },
            {
              "internalType": "enum GlobalProposal.TargetOption[]",
              "name": "targetOptions",
              "type": "uint8[]"
            },
            {
              "internalType": "uint256[]",
              "name": "values",
              "type": "uint256[]"
            },
            {
              "internalType": "bytes[]",
              "name": "calldatas",
              "type": "bytes[]"
            },
            {
              "internalType": "uint256[]",
              "name": "gasAmounts",
              "type": "uint256[]"
            }
          ],
          "indexed": false,
          "internalType": "struct GlobalProposal.GlobalProposalDetail",
          "name": "globalProposal",
          "type": "tuple"
        },
        {
          "indexed": false,
          "internalType": "address",
          "name": "creator",
          "type": "address"
        }
      ],
      "name": "GlobalProposalCreated",
      "type": "event"
    },
    {
      "anonymous": false,
      "inputs": [
        {
          "indexed": false,
          "internalType": "bytes",
          "name": "callData",
          "type": "bytes"
        },
        {
          "indexed": false,
          "internalType": "address[]",
          "name": "registers",
          "type": "address[]"
        },
        {
          "indexed": false,
          "internalType": "bool[]",
          "name": "statuses",
          "type": "bool[]"
        },
        {
          "indexed": false,
          "internalType": "bytes[]",
          "name": "returnDatas",
          "type": "bytes[]"
        }
      ],
      "name": "Notified",
      "type": "event"
    },
    {
      "anonymous": false,
      "inputs": [
        {
          "indexed": true,
          "internalType": "bytes32",
          "name": "proposalHash",
          "type": "bytes32"
        }
      ],
      "name": "ProposalApproved",
      "type": "event"
    },
    {
      "anonymous": false,
      "inputs": [
        {
          "indexed": true,
          "internalType": "uint256",
          "name": "chainId",
          "type": "uint256"
        },
        {
          "indexed": true,
          "internalType": "uint256",
          "name": "round",
          "type": "uint256"
        },
        {
          "indexed": true,
          "internalType": "bytes32",
          "name": "proposalHash",
          "type": "bytes32"
        },
        {
          "components": [
            {
              "internalType": "uint256",
              "name": "nonce",
              "type": "uint256"
            },
            {
              "internalType": "uint256",
              "name": "chainId",
              "type": "uint256"
            },
            {
              "internalType": "uint256",
              "name": "expiryTimestamp",
              "type": "uint256"
            },
            {
              "internalType": "address[]",
              "name": "targets",
              "type": "address[]"
            },
            {
              "internalType": "uint256[]",
              "name": "values",
              "type": "uint256[]"
            },
            {
              "internalType": "bytes[]",
              "name": "calldatas",
              "type": "bytes[]"
            },
            {
              "internalType": "uint256[]",
              "name": "gasAmounts",
              "type": "uint256[]"
            }
          ],
          "indexed": false,
          "internalType": "struct Proposal.ProposalDetail",
          "name": "proposal",
          "type": "tuple"
        },
        {
          "indexed": false,
          "internalType": "address",
          "name": "creator",
          "type": "address"
        }
      ],
      "name": "ProposalCreated",
      "type": "event"
    },
    {
      "anonymous": false,
      "inputs": [
        {
          "indexed": true,
          "internalType": "bytes32",
          "name": "proposalHash",
          "type": "bytes32"
        },
        {
          "indexed": false,
          "internalType": "bool[]",
          "name": "successCalls",
          "type": "bool[]"
        },
        {
          "indexed": false,
          "internalType": "bytes[]",
          "name": "returnDatas",
          "type": "bytes[]"
        }
      ],
      "name": "ProposalExecuted",
      "type": "event"
    },
    {
      "anonymous": false,
      "inputs": [
        {
          "indexed": true,
          "internalType": "bytes32",
          "name": "proposalHash",
          "type": "bytes32"
        }
      ],
      "name": "ProposalExpired",
      "type": "event"
    },
    {
      "anonymous": false,
      "inputs": [
        {
          "indexed": true,
          "internalType": "uint256",
          "name": "duration",
          "type": "uint256"
        }
      ],
      "name": "ProposalExpiryDurationChanged",
      "type": "event"
    },
    {
      "anonymous": false,
      "inputs": [
        {
          "indexed": true,
          "internalType": "bytes32",
          "name": "proposalHash",
          "type": "bytes32"
        }
      ],
      "name": "ProposalRejected",
      "type": "event"
    },
    {
      "anonymous": false,
      "inputs": [
        {
          "indexed": true,
          "internalType": "bytes32",
          "name": "proposalHash",
          "type": "bytes32"
        },
        {
          "indexed": true,
          "internalType": "address",
          "name": "voter",
          "type": "address"
        },
        {
          "indexed": false,
          "internalType": "enum Ballot.VoteType",
          "name": "support",
          "type": "uint8"
        },
        {
          "indexed": false,
          "internalType": "uint256",
          "name": "weight",
          "type": "uint256"
        }
      ],
      "name": "ProposalVoted",
      "type": "event"
    },
    {
      "anonymous": false,
      "inputs": [
        {
          "indexed": true,
          "internalType": "enum GlobalProposal.TargetOption",
          "name": "targetOption",
          "type": "uint8"
        },
        {
          "indexed": true,
          "internalType": "address",
          "name": "addr",
          "type": "address"
        }
      ],
      "name": "TargetOptionUpdated",
      "type": "event"
    },
    {
      "anonymous": false,
      "inputs": [
        {
          "indexed": true,
          "internalType": "uint256",
          "name": "nonce",
          "type": "uint256"
        },
        {
          "indexed": true,
          "internalType": "uint256",
          "name": "numerator",
          "type": "uint256"
        },
        {
          "indexed": true,
          "internalType": "uint256",
          "name": "denominator",
          "type": "uint256"
        },
        {
          "indexed": false,
          "internalType": "uint256",
          "name": "previousNumerator",
          "type": "uint256"
        },
        {
          "indexed": false,
          "internalType": "uint256",
          "name": "previousDenominator",
          "type": "uint256"
        }
      ],
      "name": "ThresholdUpdated",
      "type": "event"
    },
    {
      "inputs": [],
      "name": "DOMAIN_SEPARATOR",
      "outputs": [
        {
          "internalType": "bytes32",
          "name": "",
          "type": "bytes32"
        }
      ],
      "stateMutability": "view",
      "type": "function"
    },
    {
      "inputs": [
        {
          "internalType": "uint96[]",
          "name": "voteWeights",
          "type": "uint96[]"
        },
        {
          "internalType": "address[]",
          "name": "governors",
          "type": "address[]"
        },
        {
          "internalType": "address[]",
          "name": "bridgeOperators",
          "type": "address[]"
        }
      ],
      "name": "addBridgeOperators",
      "outputs": [
        {
          "internalType": "bool[]",
          "name": "addeds",
          "type": "bool[]"
        }
      ],
      "stateMutability": "nonpayable",
      "type": "function"
    },
    {
      "inputs": [
        {
          "internalType": "uint256",
          "name": "_voteWeight",
          "type": "uint256"
        }
      ],
      "name": "checkThreshold",
      "outputs": [
        {
          "internalType": "bool",
          "name": "",
          "type": "bool"
        }
      ],
      "stateMutability": "view",
      "type": "function"
    },
    {
      "inputs": [
        {
          "internalType": "address[]",
          "name": "governors",
          "type": "address[]"
        }
      ],
      "name": "getBridgeOperatorOf",
      "outputs": [
        {
          "internalType": "address[]",
          "name": "bridgeOperators",
          "type": "address[]"
        }
      ],
      "stateMutability": "view",
      "type": "function"
    },
    {
      "inputs": [
        {
          "internalType": "address",
          "name": "bridgeOperator",
          "type": "address"
        }
      ],
      "name": "getBridgeOperatorWeight",
      "outputs": [
        {
          "internalType": "uint256",
          "name": "weight",
          "type": "uint256"
        }
      ],
      "stateMutability": "view",
      "type": "function"
    },
    {
      "inputs": [],
      "name": "getBridgeOperators",
      "outputs": [
        {
          "internalType": "address[]",
          "name": "",
          "type": "address[]"
        }
      ],
      "stateMutability": "view",
      "type": "function"
    },
    {
      "inputs": [],
      "name": "getCallbackRegisters",
      "outputs": [
        {
          "internalType": "address[]",
          "name": "registers",
          "type": "address[]"
        }
      ],
      "stateMutability": "view",
      "type": "function"
    },
    {
      "inputs": [
        {
          "internalType": "enum ContractType",
          "name": "contractType",
          "type": "uint8"
        }
      ],
      "name": "getContract",
      "outputs": [
        {
          "internalType": "address",
          "name": "contract_",
          "type": "address"
        }
      ],
      "stateMutability": "view",
      "type": "function"
    },
    {
      "inputs": [],
      "name": "getFullBridgeOperatorInfos",
      "outputs": [
        {
          "internalType": "address[]",
          "name": "governors",
          "type": "address[]"
        },
        {
          "internalType": "address[]",
          "name": "bridgeOperators",
          "type": "address[]"
        },
        {
          "internalType": "uint256[]",
          "name": "weights",
          "type": "uint256[]"
        }
      ],
      "stateMutability": "view",
      "type": "function"
    },
    {
      "inputs": [
        {
          "internalType": "address",
          "name": "governor",
          "type": "address"
        }
      ],
      "name": "getGovernorWeight",
      "outputs": [
        {
          "internalType": "uint256",
          "name": "weight",
          "type": "uint256"
        }
      ],
      "stateMutability": "view",
      "type": "function"
    },
    {
      "inputs": [
        {
          "internalType": "address[]",
          "name": "governors",
          "type": "address[]"
        }
      ],
      "name": "getGovernorWeights",
      "outputs": [
        {
          "internalType": "uint256[]",
          "name": "weights",
          "type": "uint256[]"
        }
      ],
      "stateMutability": "view",
      "type": "function"
    },
    {
      "inputs": [],
      "name": "getGovernors",
      "outputs": [
        {
          "internalType": "address[]",
          "name": "",
          "type": "address[]"
        }
      ],
      "stateMutability": "view",
      "type": "function"
    },
    {
      "inputs": [
        {
          "internalType": "address[]",
          "name": "bridgeOperators",
          "type": "address[]"
        }
      ],
      "name": "getGovernorsOf",
      "outputs": [
        {
          "internalType": "address[]",
          "name": "governors",
          "type": "address[]"
        }
      ],
      "stateMutability": "view",
      "type": "function"
    },
    {
      "inputs": [],
      "name": "getProposalExpiryDuration",
      "outputs": [
        {
          "internalType": "uint256",
          "name": "",
          "type": "uint256"
        }
      ],
      "stateMutability": "view",
      "type": "function"
    },
    {
      "inputs": [],
      "name": "getThreshold",
      "outputs": [
        {
          "internalType": "uint256",
          "name": "num_",
          "type": "uint256"
        },
        {
          "internalType": "uint256",
          "name": "denom_",
          "type": "uint256"
        }
      ],
      "stateMutability": "view",
      "type": "function"
    },
    {
      "inputs": [],
      "name": "getTotalWeights",
      "outputs": [
        {
          "internalType": "uint256",
          "name": "",
          "type": "uint256"
        }
      ],
      "stateMutability": "view",
      "type": "function"
    },
    {
      "inputs": [
        {
          "internalType": "uint256",
          "name": "_round",
          "type": "uint256"
        }
      ],
      "name": "globalProposalRelayed",
      "outputs": [
        {
          "internalType": "bool",
          "name": "",
          "type": "bool"
        }
      ],
      "stateMutability": "view",
      "type": "function"
    },
    {
      "inputs": [
        {
          "internalType": "address",
          "name": "addr",
          "type": "address"
        }
      ],
      "name": "isBridgeOperator",
      "outputs": [
        {
          "internalType": "bool",
          "name": "",
          "type": "bool"
        }
      ],
      "stateMutability": "view",
      "type": "function"
    },
    {
      "inputs": [],
      "name": "minimumVoteWeight",
      "outputs": [
        {
          "internalType": "uint256",
          "name": "",
          "type": "uint256"
        }
      ],
      "stateMutability": "view",
      "type": "function"
    },
    {
      "inputs": [
        {
          "internalType": "address[]",
          "name": "registers",
          "type": "address[]"
        }
      ],
      "name": "registerCallbacks",
      "outputs": [
        {
          "internalType": "bool[]",
          "name": "registereds",
          "type": "bool[]"
        }
      ],
      "stateMutability": "nonpayable",
      "type": "function"
    },
    {
      "inputs": [
        {
          "components": [
            {
              "internalType": "uint256",
              "name": "nonce",
              "type": "uint256"
            },
            {
              "internalType": "uint256",
              "name": "expiryTimestamp",
              "type": "uint256"
            },
            {
              "internalType": "enum GlobalProposal.TargetOption[]",
              "name": "targetOptions",
              "type": "uint8[]"
            },
            {
              "internalType": "uint256[]",
              "name": "values",
              "type": "uint256[]"
            },
            {
              "internalType": "bytes[]",
              "name": "calldatas",
              "type": "bytes[]"
            },
            {
              "internalType": "uint256[]",
              "name": "gasAmounts",
              "type": "uint256[]"
            }
          ],
          "internalType": "struct GlobalProposal.GlobalProposalDetail",
          "name": "globalProposal",
          "type": "tuple"
        },
        {
          "internalType": "enum Ballot.VoteType[]",
          "name": "supports_",
          "type": "uint8[]"
        },
        {
          "components": [
            {
              "internalType": "uint8",
              "name": "v",
              "type": "uint8"
            },
            {
              "internalType": "bytes32",
              "name": "r",
              "type": "bytes32"
            },
            {
              "internalType": "bytes32",
              "name": "s",
              "type": "bytes32"
            }
          ],
          "internalType": "struct SignatureConsumer.Signature[]",
          "name": "signatures",
          "type": "tuple[]"
        }
      ],
      "name": "relayGlobalProposal",
      "outputs": [],
      "stateMutability": "nonpayable",
      "type": "function"
    },
    {
      "inputs": [
        {
          "components": [
            {
              "internalType": "uint256",
              "name": "nonce",
              "type": "uint256"
            },
            {
              "internalType": "uint256",
              "name": "chainId",
              "type": "uint256"
            },
            {
              "internalType": "uint256",
              "name": "expiryTimestamp",
              "type": "uint256"
            },
            {
              "internalType": "address[]",
              "name": "targets",
              "type": "address[]"
            },
            {
              "internalType": "uint256[]",
              "name": "values",
              "type": "uint256[]"
            },
            {
              "internalType": "bytes[]",
              "name": "calldatas",
              "type": "bytes[]"
            },
            {
              "internalType": "uint256[]",
              "name": "gasAmounts",
              "type": "uint256[]"
            }
          ],
          "internalType": "struct Proposal.ProposalDetail",
          "name": "proposal",
          "type": "tuple"
        },
        {
          "internalType": "enum Ballot.VoteType[]",
          "name": "supports_",
          "type": "uint8[]"
        },
        {
          "components": [
            {
              "internalType": "uint8",
              "name": "v",
              "type": "uint8"
            },
            {
              "internalType": "bytes32",
              "name": "r",
              "type": "bytes32"
            },
            {
              "internalType": "bytes32",
              "name": "s",
              "type": "bytes32"
            }
          ],
          "internalType": "struct SignatureConsumer.Signature[]",
          "name": "signatures",
          "type": "tuple[]"
        }
      ],
      "name": "relayProposal",
      "outputs": [],
      "stateMutability": "nonpayable",
      "type": "function"
    },
    {
      "inputs": [
        {
          "internalType": "address[]",
          "name": "bridgeOperators",
          "type": "address[]"
        }
      ],
      "name": "removeBridgeOperators",
      "outputs": [
        {
          "internalType": "bool[]",
          "name": "removeds",
          "type": "bool[]"
        }
      ],
      "stateMutability": "nonpayable",
      "type": "function"
    },
    {
      "inputs": [
        {
          "internalType": "enum GlobalProposal.TargetOption[]",
          "name": "targetOptions",
          "type": "uint8[]"
        }
      ],
      "name": "resolveTargets",
      "outputs": [
        {
          "internalType": "address[]",
          "name": "targets",
          "type": "address[]"
        }
      ],
      "stateMutability": "view",
      "type": "function"
    },
    {
      "inputs": [
        {
          "internalType": "uint256",
          "name": "",
          "type": "uint256"
        }
      ],
      "name": "round",
      "outputs": [
        {
          "internalType": "uint256",
          "name": "",
          "type": "uint256"
        }
      ],
      "stateMutability": "view",
      "type": "function"
    },
    {
      "inputs": [
        {
          "internalType": "enum ContractType",
          "name": "contractType",
          "type": "uint8"
        },
        {
          "internalType": "address",
          "name": "addr",
          "type": "address"
        }
      ],
      "name": "setContract",
      "outputs": [],
      "stateMutability": "nonpayable",
      "type": "function"
    },
    {
      "inputs": [
        {
          "internalType": "uint256",
          "name": "numerator",
          "type": "uint256"
        },
        {
          "internalType": "uint256",
          "name": "denominator",
          "type": "uint256"
        }
      ],
      "name": "setThreshold",
      "outputs": [
        {
          "internalType": "uint256",
          "name": "",
          "type": "uint256"
        },
        {
          "internalType": "uint256",
          "name": "",
          "type": "uint256"
        }
      ],
      "stateMutability": "nonpayable",
      "type": "function"
    },
    {
      "inputs": [
        {
          "internalType": "address[]",
          "name": "governors",
          "type": "address[]"
        }
      ],
      "name": "sumGovernorsWeight",
      "outputs": [
        {
          "internalType": "uint256",
          "name": "sum",
          "type": "uint256"
        }
      ],
      "stateMutability": "view",
      "type": "function"
    },
    {
      "inputs": [],
      "name": "totalBridgeOperators",
      "outputs": [
        {
          "internalType": "uint256",
          "name": "",
          "type": "uint256"
        }
      ],
      "stateMutability": "view",
      "type": "function"
    },
    {
      "inputs": [
        {
          "internalType": "address[]",
          "name": "registers",
          "type": "address[]"
        }
      ],
      "name": "unregisterCallbacks",
      "outputs": [
        {
          "internalType": "bool[]",
          "name": "unregistereds",
          "type": "bool[]"
        }
      ],
      "stateMutability": "nonpayable",
      "type": "function"
    },
    {
      "inputs": [
        {
          "internalType": "address",
          "name": "newBridgeOperator",
          "type": "address"
        }
      ],
      "name": "updateBridgeOperator",
      "outputs": [],
      "stateMutability": "nonpayable",
      "type": "function"
    },
    {
      "inputs": [
        {
          "internalType": "enum GlobalProposal.TargetOption[]",
          "name": "targetOptions",
          "type": "uint8[]"
        },
        {
          "internalType": "address[]",
          "name": "targets",
          "type": "address[]"
        }
      ],
      "name": "updateManyTargetOption",
      "outputs": [],
      "stateMutability": "nonpayable",
      "type": "function"
    },
    {
      "inputs": [
        {
          "internalType": "uint256",
          "name": "",
          "type": "uint256"
        },
        {
          "internalType": "uint256",
          "name": "",
          "type": "uint256"
        }
      ],
      "name": "vote",
      "outputs": [
        {
          "internalType": "enum VoteStatusConsumer.VoteStatus",
          "name": "status",
          "type": "uint8"
        },
        {
          "internalType": "bytes32",
          "name": "hash",
          "type": "bytes32"
        },
        {
          "internalType": "uint256",
          "name": "againstVoteWeight",
          "type": "uint256"
        },
        {
          "internalType": "uint256",
          "name": "forVoteWeight",
          "type": "uint256"
        },
        {
          "internalType": "uint256",
          "name": "expiryTimestamp",
          "type": "uint256"
        }
      ],
      "stateMutability": "view",
      "type": "function"
    }
  ],
  "transactionHash": "0xf0bd91e99ca0f530503f8e50c5572ed569963a6a468b6fc043ff4c502d92729d",
  "args": [
    70,
    100,
    2021,
    "0x9e359F42cDDc84A386a2Ef1D9Ae06623f3970D1D",
    [],
    [
      "0x2e82D2b56f858f79DeeF11B160bFC4631873da2B",
      "0xBcb61783dd2403FE8cC9B89B27B1A9Bb03d040Cb",
      "0xB266Bf53Cf7EAc4E2065A404598DCB0E15E9462c",
      "0xcc5fc5b6c8595f56306da736f6cd02ed9141c84a"
    ],
    [
      "0xd24D87DDc1917165435b306aAC68D99e0F49A3Fa",
      "0xb033ba62EC622dC54D0ABFE0254e79692147CA26",
      "0x087D08e3ba42e64E3948962dd1371F906D1278b9",
      "0x52ec2e6BBcE45AfFF8955Da6410bb13812F4289F"
    ],
    [
      100,
      100,
      100,
      100
    ],
    [
      1
    ],
    [
      "0x9e359F42cDDc84A386a2Ef1D9Ae06623f3970D1D"
    ]
  ],
  "numDeployments": 2,
  "solcInputHash": "91c86e27ca97788283e420647ecde76c",
  "bytecode": "0x60a0604052604051620063e3380380620063e38339810160408190526200002691620014f3565b8181600160ff1b8c8c8c8c8c8c8c8c836200004181620001bd565b5050620000706001600080516020620063c383398151915260001b620002da60201b62000ebe1790919060201c565b6200007c8888620002de565b506200008c90506002866200044e565b604080516020808201839052600c60608301526b212924a223a2afa0a226a4a760a11b6080808401919091528284018a905283518084038201815260a0840185528051908301207f599a80fcaa47b95e2323ab4d34d34e0cc9feda4b843edafcc30c7bdf60ea15bf60c08501527f9d3fa1662ea89365eb7af36506f0ad5413bd7e078960d8481ff4718763aaa8e960e08501527fad7c5bef027816a800da1736444fb58a807ef4c9603b7848673f7e3a68eb14a561010085015261012080850191909152845180850390910181526101409093019093528151910120905262000177818385620004f8565b50505050505050505062000191816200098b60201b60201c565b506200019f600030620009be565b620001ab828262000a5a565b5050505050505050505050506200193c565b606081620001cb8162000b1d565b8251806001600160401b03811115620001e857620001e86200131e565b60405190808252806020026020018201604052801562000212578160200160208202803683370190505b50925080600003620002255750620002d4565b6000805160206200638383398151915260006314d72edb60e21b815b84811015620002ce578781815181106200025f576200025f6200162e565b602002602001015192506200027a8362000b6460201b60201c565b62000286838362000b9c565b620002a0838562000d7b60201b62000ec21790919060201c565b878281518110620002b557620002b56200162e565b9115156020928302919091019091015260010162000241565b50505050505b50919050565b9055565b6000808284111562000316576040516387f6f09560e01b81526001600160e01b03196000351660048201526024015b60405180910390fd5b6200033e600080516020620063a383398151915260001b62000d9b60201b62000ed71760201c565b9150620003797fac1ff16a4f04f2a37a9ba5252a69baa100b460e517d1f8019c054a5ad698f9ff60001b62000d9b60201b62000ed71760201c565b9050620003a784600080516020620063a383398151915260001b620002da60201b62000ebe1790919060201c565b620003e4837fac1ff16a4f04f2a37a9ba5252a69baa100b460e517d1f8019c054a5ad698f9ff60001b620002da60201b62000ebe1790919060201c565b82846200040e600080516020620063c383398151915260001b62000d9f60201b62000edb1760201c565b60408051868152602081018690527f976f8a9c5bdf8248dec172376d6e2b80a8e3df2f0328e381c6db8e1cf138c0f8910160405180910390a49250929050565b807fdea3103d22025c269050bea94c0c84688877f12fa22b7e6d2d5d78a9a49aa1cb600084600d81111562000487576200048762001644565b60ff168152602081019190915260400160002080546001600160a01b0319166001600160a01b03928316179055811682600d811115620004cb57620004cb62001644565b6040517f865d1c228a8ea13709cfe61f346f7ff67f1bbd4a18ff31ad3e7147350d317c5990600090a35050565b606062000514828462000dc360201b62000ef61790919060201c565b6200051f8162000b1d565b8251855181148015620005325750845181145b6200055f576040516306b5667560e21b81526001600160e01b03196000351660048201526024016200030d565b806001600160401b038111156200057a576200057a6200131e565b604051908082528060200260200182016040528015620005a4578160200160208202803683370190505b50925080600003620005b7575062000983565b604080518082019091526000808252602082018190527f546f6b46ab35b030b6816596b352aef78857377176c8b24baa2046a62cf1998c917f8400683eb2cb350596d73644c0c89fe45f108600003457374f4ab3e87b4f3aa3917fd38c234075fde25875da8a6b7e36b58b86681d483271a99eeeee1d78e258a24d917f88547008e60f5748911f2e59feb3093b7e4c2e87b2dd69d61f112fcc932de8e3919081908190815b89811015620008c4578d81815181106200067a576200067a6200162e565b602002602001015194508c81815181106200069957620006996200162e565b60200260200101519350620006b48562000ee160201b60201c565b620006bf8462000ee1565b8e8181518110620006d457620006d46200162e565b60200260200101516001600160601b03166000036200071557604051637f11b8a360e11b81526001600160e01b03196000351660048201526024016200030d565b6200072f858a62000f1860201b620010001790919060201c565b8062000750575062000750848a62000f1860201b620010001790919060201c565b8062000771575062000771858862000f1860201b620010001790919060201c565b8062000792575062000792848862000f1860201b620010001790919060201c565b158c8281518110620007a857620007a86200162e565b6020026020010190151590811515815250508b8181518110620007cf57620007cf6200162e565b602002602001015115620008bb57620007f7858a62000d7b60201b62000ec21790919060201c565b5062000812848862000d7b60201b62000ec21790919060201c565b506001600160a01b03848116600081815260208b90526040902080546001600160a01b0319169288169290921790915582528e518f90829081106200085b576200085b6200162e565b6020908102919091018101516001600160601b03169083018190526200088290846200165a565b6001600160a01b038087166000908152602089815260409091208551918601516001600160601b0316600160a01b029190921617905592505b6001016200065c565b5062000902827f6924fe71b0c8b61aea02ca498b5f53b29bd95726278b1fe4eb791bb24a42644c60001b62000f3b60201b620010221790919060201c565b506200093a635ebae8a060e01b8d8d60405160200162000924929190620016f6565b60408051601f1981840301815291905262000f55565b7f897810999654e525e272b5909785c4d0ceaee1bbf9c87d9091a37558b0423b788b8f8f8f60405162000971949392919062001728565b60405180910390a15050505050505050505b509392505050565b600281905560405181907fe5cd1c123a8cf63fa1b7229678db61fe8ae99dbbd27889370b6667c8cae97da190600090a250565b8060036000846003811115620009d857620009d862001644565b6003811115620009ec57620009ec62001644565b8152602081019190915260400160002080546001600160a01b0319166001600160a01b03928316179055811682600381111562000a2d5762000a2d62001644565b6040517f356c8c57e9e84b99b1cb58b13c985b2c979f78cbdf4d0fa70fe2a98bb09a099d90600090a35050565b60005b825181101562000b1857306001600160a01b031682828151811062000a865762000a866200162e565b60200260200101516001600160a01b03160362000ac55760405163053265f160e01b81526001600160e01b03196000351660048201526024016200030d565b62000b0f83828151811062000ade5762000ade6200162e565b602002602001015183838151811062000afb5762000afb6200162e565b6020026020010151620009be60201b60201c565b60010162000a5d565b505050565b62000b33816200117560201b620010391760201c565b1562000b6157604051630d697db160e11b81526001600160e01b03196000351660048201526024016200030d565b50565b806001600160a01b03163b60000362000b6157604051630bfc64a360e21b81526001600160a01b03821660048201526024016200030d565b6040516001600160e01b03198216602482015260009060440160408051601f198184030181529181526020820180516001600160e01b03166301ffc9a760e01b1790525190915060009081906001600160a01b0386169062000c00908590620017de565b600060405180830381855afa9150503d806000811462000c3d576040519150601f19603f3d011682016040523d82523d6000602084013e62000c42565b606091505b50915091508162000d2457846001600160a01b03168360405160240162000c6a91906200182a565b60408051601f198184030181529181526020820180516001600160e01b03166325da93a560e11b1790525162000ca19190620017de565b600060405180830381855afa9150503d806000811462000cde576040519150601f19603f3d011682016040523d82523d6000602084013e62000ce3565b606091505b5090925090508162000d245760405163069d427960e11b81526001600160e01b0319851660048201526001600160a01b03861660248201526044016200030d565b8080602001905181019062000d3a91906200183f565b62000d745760405163069d427960e11b81526001600160e01b0319851660048201526001600160a01b03861660248201526044016200030d565b5050505050565b600062000d92836001600160a01b03841662001220565b90505b92915050565b5490565b600062000daa825490565b905062000dbe82620002da8360016200165a565b919050565b81518151606091908082016001600160401b0381111562000de85762000de86200131e565b60405190808252806020026020018201604052801562000e12578160200160208202803683370190505b50925060005b8281101562000e745785818151811062000e365762000e366200162e565b602002602001015184828151811062000e535762000e536200162e565b6001600160a01b039092166020928302919091019091015260010162000e18565b60005b8281101562000ed75785818151811062000e955762000e956200162e565b602002602001015185838151811062000eb25762000eb26200162e565b6001600160a01b03909216602092830291909101909101526001918201910162000e77565b5050505092915050565b6001600160a01b03811662000b615760405163104c66df60e31b81526001600160e01b03196000351660048201526024016200030d565b6001600160a01b0381166000908152600183016020526040812054151562000d92565b600062000d958362000f4e818562001272565b9250829055565b600062000f7c600080516020620063838339815191526200129260201b620010d81760201c565b8051909150600081900362000f915750505050565b6000816001600160401b0381111562000fae5762000fae6200131e565b60405190808252806020026020018201604052801562000fd8578160200160208202803683370190505b5090506000826001600160401b0381111562000ff85762000ff86200131e565b6040519080825280602002602001820160405280156200102d57816020015b6060815260200190600190039081620010175790505b509050600086866040516020016200104792919062001863565b604051602081830303815290604052905060005b848110156200112c578581815181106200107957620010796200162e565b60200260200101516001600160a01b0316826040516200109a9190620017de565b6000604051808303816000865af19150503d8060008114620010d9576040519150601f19603f3d011682016040523d82523d6000602084013e620010de565b606091505b50858381518110620010f457620010f46200162e565b602002602001018584815181106200111057620011106200162e565b602090810291909101019190915290151590526001016200105b565b507fc0b07a27e66788f39cc91405f012f34066b16f31b4bda9438c52f2dae0cc5b638186858560405162001164949392919062001896565b60405180910390a150505050505050565b600081516000036200118957506000919050565b60005b60018351038110156200121757600181015b83518110156200120d57838181518110620011bd57620011bd6200162e565b60200260200101516001600160a01b0316848381518110620011e357620011e36200162e565b60200260200101516001600160a01b03160362001204575060019392505050565b6001016200119e565b506001016200118c565b50600092915050565b6000818152600183016020526040812054620012695750815460018181018455600084815260208082209093018490558454848252828601909352604090209190915562000d95565b50600062000d95565b815481018181101562000d9557634e487b7160005260116020526024601cfd5b60606000620012a183620012a8565b9392505050565b606081600001805480602002602001604051908101604052809291908181526020018280548015620012fa57602002820191906000526020600020905b815481526020019060010190808311620012e5575b50505050509050919050565b80516001600160a01b038116811462000dbe57600080fd5b634e487b7160e01b600052604160045260246000fd5b604051601f8201601f191681016001600160401b03811182821017156200135f576200135f6200131e565b604052919050565b60006001600160401b038211156200138357620013836200131e565b5060051b60200190565b600082601f8301126200139f57600080fd5b81516020620013b8620013b28362001367565b62001334565b82815260059290921b84018101918181019086841115620013d857600080fd5b8286015b84811015620013fe57620013f08162001306565b8352918301918301620013dc565b509695505050505050565b600082601f8301126200141b57600080fd5b815160206200142e620013b28362001367565b82815260059290921b840181019181810190868411156200144e57600080fd5b8286015b84811015620013fe5780516001600160601b0381168114620014745760008081fd5b835291830191830162001452565b600082601f8301126200149457600080fd5b81516020620014a7620013b28362001367565b82815260059290921b84018101918181019086841115620014c757600080fd5b8286015b84811015620013fe57805160048110620014e55760008081fd5b8352918301918301620014cb565b6000806000806000806000806000806101408b8d0312156200151457600080fd5b8a51995060208b0151985060408b015197506200153460608c0162001306565b60808c01519097506001600160401b03808211156200155257600080fd5b620015608e838f016200138d565b975060a08d01519150808211156200157757600080fd5b620015858e838f016200138d565b965060c08d01519150808211156200159c57600080fd5b620015aa8e838f016200138d565b955060e08d0151915080821115620015c157600080fd5b620015cf8e838f0162001409565b94506101008d0151915080821115620015e757600080fd5b620015f58e838f0162001482565b93506101208d01519150808211156200160d57600080fd5b506200161c8d828e016200138d565b9150509295989b9194979a5092959850565b634e487b7160e01b600052603260045260246000fd5b634e487b7160e01b600052602160045260246000fd5b8082018082111562000d9557634e487b7160e01b600052601160045260246000fd5b600081518084526020808501945080840160005b83811015620016b75781516001600160a01b03168752958201959082019060010162001690565b509495945050505050565b600081518084526020808501945080840160005b83811015620016b7578151151587529582019590820190600101620016d6565b6040815260006200170b60408301856200167c565b82810360208401526200171f8185620016c2565b95945050505050565b6080815260006200173d6080830187620016c2565b82810360208481019190915286518083528782019282019060005b818110156200177f5784516001600160601b03168352938301939183019160010162001758565b505084810360408601526200179581886200167c565b925050508281036060840152620017ad81856200167c565b979650505050505050565b60005b83811015620017d5578181015183820152602001620017bb565b50506000910152565b60008251620017f2818460208701620017b8565b9190910192915050565b6000815180845262001816816020860160208601620017b8565b601f01601f19169290920160200192915050565b60208152600062000d926020830184620017fc565b6000602082840312156200185257600080fd5b81518015158114620012a157600080fd5b6001600160e01b031983168152815160009062001888816004850160208701620017b8565b919091016004019392505050565b608081526000620018ab6080830187620017fc565b602083820381850152620018c082886200167c565b91508382036040850152620018d68287620016c2565b915083820360608501528185518084528284019150828160051b85010183880160005b838110156200192b57601f1987840301855262001918838351620017fc565b94860194925090850190600101620018f9565b50909b9a5050505050505050505050565b608051614a1d62001966600039600081816102bd015281816107ae015261083a0152614a1d6000f3fe608060405234801561001057600080fd5b50600436106101fb5760003560e01c80639b19dbfd1161011a578063c441c4a8116100ad578063de981f1b1161007c578063de981f1b146104f4578063e75235b81461051f578063e9c0349814610527578063f80b53521461053a578063fdc4fa471461054257600080fd5b8063c441c4a814610497578063cc7e6b3b146104ae578063d78392f8146104ce578063dafae408146104e157600080fd5b8063b405aaf2116100e9578063b405aaf214610441578063b9c3620914610454578063bc9182fd1461047c578063bc96180b1461048f57600080fd5b80639b19dbfd146103c35780639b2ee437146103cb578063ada86b24146103de578063b384abef146103e657600080fd5b8063562d5304116101925780637de5dedd116101615780637de5dedd14610332578063800eaab31461033a578063865e6fd31461034d578063901979d51461036057600080fd5b8063562d5304146102df5780635e05cf9e146102e7578063776fb1ec146102fc5780637d465f791461031f57600080fd5b80632d6d7d73116101ce5780632d6d7d731461027257806334d5f37b1461028557806335da8121146102a55780633644e515146102b857600080fd5b806301a5f43f146102005780630a44fa43146102295780630f7c31891461024a5780631f4253381461025f575b600080fd5b61021361020e366004613a45565b610555565b6040516102209190613b1b565b60405180910390f35b61023c610237366004613b2e565b610608565b604051908152602001610220565b61025261068d565b6040516102209190613ba8565b61021361026d366004613b2e565b6106ab565b610252610280366004613b2e565b6106f8565b61023c610293366004613bbb565b60006020819052908152604090205481565b6102136102b3366004613b2e565b61073c565b61023c7f000000000000000000000000000000000000000000000000000000000000000081565b61023c610782565b6102fa6102f5366004613c18565b61079b565b005b61030f61030a366004613bbb565b6107da565b6040519015158152602001610220565b6102fa61032d366004613cb4565b610827565b61023c61085f565b6102fa610348366004613e9c565b6108db565b6102fa61035b366004613f0e565b610920565b61023c61036e366004613f41565b6001600160a01b0390811660009081526000805160206149b18339815191526020908152604080832054909316825260008051602061499183398151915290522054600160a01b90046001600160601b031690565b61025261093b565b6102fa6103d9366004613f41565b610945565b61023c610adc565b6104306103f4366004613f5c565b600160208181526000938452604080852090915291835291208054918101546002820154600383015460069093015460ff909416939192909185565b604051610220959493929190613f94565b61030f61044f366004613f41565b610af4565b610467610462366004613f5c565b610b0e565b60408051928352602083019190915201610220565b61025261048a366004613fc9565b610b2f565b61023c610c20565b61049f610c2b565b6040516102209392919061402d565b6104c16104bc366004613b2e565b610c55565b6040516102209190614070565b61023c6104dc366004613f41565b610c93565b61030f6104ef366004613bbb565b610c9e565b610507610502366004614083565b610cdb565b6040516001600160a01b039091168152602001610220565b610467610d56565b610213610535366004613b2e565b610d87565b610252610dcd565b610252610550366004613b2e565b610dd7565b606061055f6110e5565b6105fd87878080602002602001604051908101604052809392919081815260200183836020028082843760009201919091525050604080516020808b0282810182019093528a82529093508a92508991829185019084908082843760009201919091525050604080516020808a0282810182019093528982529093508992508891829185019084908082843760009201919091525061111592505050565b979650505050505050565b600082828080602002602001604051908101604052809392919081815260200183836020028082843760009201919091525061064992508391506114919050565b6106858484808060200260200160405190810160405280939291908181526020018383602002808284376000920191909152506114c992505050565b949350505050565b60606106a66000805160206149318339815191526110d8565b905090565b60606106b56110e5565b6106f183838080602002602001604051908101604052809392919081815260200183836020028082843760009201919091525061154d92505050565b9392505050565b60606106f183838080602002602001604051908101604052809392919081815260200183836020028082843760009201829052509250611618915050565b92915050565b60606107466110e5565b6106f183838080602002602001604051908101604052809392919081815260200183836020028082843760009201919091525061177292505050565b60006106a66000805160206149d1833981519152611864565b6107a43361186e565b6107d385858585857f0000000000000000000000000000000000000000000000000000000000000000336118a7565b5050505050565b60008060008381527fa6eef7e35abe7026729641147f7915573c7e97b47efa546f5f6e3230263bcb49602052604090205460ff16600481111561081f5761081f613f7e565b141592915050565b6108303361186e565b6107d385858585857f00000000000000000000000000000000000000000000000000000000000000003361194c565b60006108776000805160206149518339815191525490565b600161088f6000805160206149518339815191525490565b6108bd6108a86000805160206149f18339815191525490565b600080516020614971833981519152906119a8565b6108c791906140b4565b6108d191906140c7565b6106a691906140da565b333014610912576000356001600160e01b0319166040516307337e1960e41b815260040161090991906140fc565b60405180910390fd5b61091c82826119d3565b5050565b6109286110e5565b61093181611a81565b61091c8282611ab7565b60606106a6611b5b565b61094e3361186e565b61095781611b74565b33600090815260008051602061499183398151915260208190526040909120546001600160a01b0390811690831681036109af57604051630669b93360e31b81526001600160a01b0384166004820152602401610909565b6000805160206149d183398151915260006109ca8284611ba9565b80156109db57506109db8286610ec2565b905080610a065760405163080fab4b60e31b81526001600160a01b0386166004820152602401610909565b6001600160a01b0383811660008181526000805160206149b18339815191526020818152604080842080546001600160a01b0319908116909155958b16808552818520805488163390811790915585528a8352938190208054909616841790955584519081019390935292820152610a99906364b18d0960e11b906060015b604051602081830303815290604052611bbe565b6040516001600160a01b03808816919086169033907fcef34cd748f30a1b7a2f214fd1651779f79bc6c1be02785cad5c1f0ee877213d90600090a4505050505050565b60006106a66000805160206149f18339815191525490565b60006107366000805160206149d183398151915283611000565b600080610b196110e5565b610b238484611db3565b915091505b9250929050565b8051606090806001600160401b03811115610b4c57610b4c613cf7565b604051908082528060200260200182016040528015610b75578160200160208202803683370190505b50915060008051602061499183398151915260005b82811015610c1857816000868381518110610ba757610ba7614111565b60200260200101516001600160a01b03166001600160a01b0316815260200190815260200160002060000160009054906101000a90046001600160a01b0316848281518110610bf857610bf8614111565b6001600160a01b0390921660209283029190910190910152600101610b8a565b505050919050565b60006106a660025490565b6060806060610c38611ea8565b9250610c4383610b2f565b9150610c4e83611ed3565b9050909192565b60606106f1838380806020026020016040519081016040528093929190818152602001838360200280828437600092019190915250611ed392505050565b600061073682611fb8565b6000610cb96108a86000805160206149f18339815191525490565b60008051602061495183398151915254610cd39084614127565b101592915050565b60007fdea3103d22025c269050bea94c0c84688877f12fa22b7e6d2d5d78a9a49aa1cb600083600d811115610d1257610d12613f7e565b60ff1681526020810191909152604001600020546001600160a01b0316905080610d51578160405163409140df60e11b8152600401610909919061413e565b919050565b600080610d6f6000805160206149718339815191525490565b60008051602061495183398151915254915091509091565b6060610d916110e5565b6106f1838380806020026020016040519081016040528093929190818152602001838360200280828437600092019190915250611ff092505050565b60606106a6611ea8565b606081806001600160401b03811115610df257610df2613cf7565b604051908082528060200260200182016040528015610e1b578160200160208202803683370190505b5091506000805160206149b183398151915260005b82811015610eb557816000878784818110610e4d57610e4d614111565b9050602002016020810190610e629190613f41565b6001600160a01b0390811682526020820192909252604001600020548551911690859083908110610e9557610e95614111565b6001600160a01b0390921660209283029190910190910152600101610e30565b50505092915050565b9055565b60006106f1836001600160a01b0384166122d5565b5490565b6000610ee5825490565b9050610d5182610ebe8360016140b4565b81518151606091908082016001600160401b03811115610f1857610f18613cf7565b604051908082528060200260200182016040528015610f41578160200160208202803683370190505b50925060005b82811015610f9b57858181518110610f6157610f61614111565b6020026020010151848281518110610f7b57610f7b614111565b6001600160a01b0390921660209283029190910190910152600101610f47565b60005b82811015610ff657858181518110610fb857610fb8614111565b6020026020010151858381518110610fd257610fd2614111565b6001600160a01b039092166020928302919091019091015260019182019101610f9e565b5050505092915050565b6001600160a01b038116600090815260018301602052604081205415156106f1565b6000610736836110328585612324565b9250829055565b6000815160000361104c57506000919050565b60005b60018351038110156110cf57600181015b83518110156110c65783818151811061107b5761107b614111565b60200260200101516001600160a01b031684838151811061109e5761109e614111565b60200260200101516001600160a01b0316036110be575060019392505050565b600101611060565b5060010161104f565b50600092915050565b606060006106f183612343565b333014611113576000356001600160e01b0319166040516307337e1960e41b815260040161090991906140fc565b565b60606111218383610ef6565b61112a81611491565b825185518114801561113c5750845181145b611167576000356001600160e01b0319166040516306b5667560e21b815260040161090991906140fc565b806001600160401b0381111561117f5761117f613cf7565b6040519080825280602002602001820160405280156111a8578160200160208202803683370190505b509250806000036111b95750611489565b604080518082019091526000808252602082018190527f546f6b46ab35b030b6816596b352aef78857377176c8b24baa2046a62cf1998c916000805160206149b1833981519152916000805160206149d183398151915291600080516020614991833981519152919081908190815b8981101561140a578d818151811061124257611242614111565b602002602001015194508c818151811061125e5761125e614111565b6020026020010151935061127185611b74565b61127a84611b74565b8e818151811061128c5761128c614111565b60200260200101516001600160601b03166000036112cb576000356001600160e01b031916604051637f11b8a360e11b815260040161090991906140fc565b6112d58986611000565b806112e557506112e58985611000565b806112f557506112f58786611000565b8061130557506113058785611000565b158c828151811061131857611318614111565b6020026020010190151590811515815250508b818151811061133c5761133c614111565b602002602001015115611402576113538986610ec2565b5061135e8785610ec2565b506001600160a01b03848116600081815260208b90526040902080546001600160a01b0319169288169290921790915582528e518f90829081106113a4576113a4614111565b6020908102919091018101516001600160601b03169083018190526113c990846140b4565b6001600160a01b038087166000908152602089815260409091208551918601516001600160601b0316600160a01b029190921617905592505b600101611228565b506114236000805160206149f183398151915283611022565b50611442635ebae8a060e01b8d8d604051602001610a85929190614158565b7f897810999654e525e272b5909785c4d0ceaee1bbf9c87d9091a37558b0423b788b8f8f8f6040516114779493929190614186565b60405180910390a15050505050505050505b509392505050565b61149a81611039565b156114c6576000356001600160e01b031916604051630d697db160e11b815260040161090991906140fc565b50565b6000816114d581611491565b60008051602061499183398151915260005b8451811015610c185781600086838151811061150557611505614111565b6020908102919091018101516001600160a01b031682528101919091526040016000205461154390600160a01b90046001600160601b0316856140b4565b93506001016114e7565b60608161155981611491565b8251806001600160401b0381111561157357611573613cf7565b60405190808252806020026020018201604052801561159c578160200160208202803683370190505b50925060008051602061493183398151915260005b8281101561160f576115e58682815181106115ce576115ce614111565b602002602001015183611ba990919063ffffffff16565b8582815181106115f7576115f7614111565b911515602092830291909101909101526001016115b1565b50505050919050565b606082516001600160401b0381111561163357611633613cf7565b60405190808252806020026020018201604052801561165c578160200160208202803683370190505b50905060005b835181101561176b576003600085838151811061168157611681614111565b6020026020010151600381111561169a5761169a613f7e565b60038111156116ab576116ab613f7e565b815260200190815260200160002060009054906101000a90046001600160a01b03168282815181106116df576116df614111565b60200260200101906001600160a01b031690816001600160a01b031681525050828015611737575060006001600160a01b031682828151811061172457611724614111565b60200260200101516001600160a01b0316145b15611763576000356001600160e01b03191660405163053265f160e01b815260040161090991906140fc565b600101611662565b5092915050565b60608161177e81611491565b8251806001600160401b0381111561179857611798613cf7565b6040519080825280602002602001820160405280156117c1578160200160208202803683370190505b509250806000036117d2575061185e565b60008051602061493183398151915260006314d72edb60e21b815b848110156118585787818151811061180757611807614111565b6020026020010151925061181a83611a81565b611824838361239f565b61182e8484610ec2565b87828151811061184057611840614111565b911515602092830291909101909101526001016117ed565b50505050505b50919050565b6000610736825490565b61187781611fb8565b6000036114c6576000356001600160e01b0319166003604051620f948f60ea1b8152600401610909929190614203565b6118b96118b38861436f565b82612532565b5060006118cd6118c88961436f565b612638565b90506119426118db8961436f565b8888888861192e896118ee896000612777565b60405161190160f01b6020820152602281018390526042810182905260009060620160405160208183030381529060405280519060200120905092915050565b61193d8a6118ee8a6001612777565b6127b0565b5050505050505050565b600061196061195a89614443565b83612ba7565b905060006119756119708a614443565b612cf1565b905061199d828989898961198e8a6118ee896000612777565b61193d8b6118ee8a6001612777565b505050505050505050565b60008254801561176b578281029150808204831461176b57634e487b7160005260116020526024601cfd5b60005b8251811015611a7c57306001600160a01b03168282815181106119fb576119fb614111565b60200260200101516001600160a01b031603611a38576000356001600160e01b03191660405163053265f160e01b815260040161090991906140fc565b611a74838281518110611a4d57611a4d614111565b6020026020010151838381518110611a6757611a67614111565b6020026020010151612e28565b6001016119d6565b505050565b806001600160a01b03163b6000036114c657604051630bfc64a360e21b81526001600160a01b0382166004820152602401610909565b807fdea3103d22025c269050bea94c0c84688877f12fa22b7e6d2d5d78a9a49aa1cb600084600d811115611aed57611aed613f7e565b60ff168152602081019190915260400160002080546001600160a01b0319166001600160a01b03928316179055811682600d811115611b2e57611b2e613f7e565b6040517f865d1c228a8ea13709cfe61f346f7ff67f1bbd4a18ff31ad3e7147350d317c5990600090a35050565b60606106a66000805160206149d18339815191526110d8565b6001600160a01b0381166114c6576000356001600160e01b03191660405163104c66df60e31b815260040161090991906140fc565b60006106f1836001600160a01b038416612ebb565b6000611bd76000805160206149318339815191526110d8565b80519091506000819003611beb5750505050565b6000816001600160401b03811115611c0557611c05613cf7565b604051908082528060200260200182016040528015611c2e578160200160208202803683370190505b5090506000826001600160401b03811115611c4b57611c4b613cf7565b604051908082528060200260200182016040528015611c7e57816020015b6060815260200190600190039081611c695790505b50905060008686604051602001611c96929190614531565b604051602081830303815290604052905060005b84811015611d6c57858181518110611cc457611cc4614111565b60200260200101516001600160a01b031682604051611ce39190614562565b6000604051808303816000865af19150503d8060008114611d20576040519150601f19603f3d011682016040523d82523d6000602084013e611d25565b606091505b50858381518110611d3857611d38614111565b60200260200101858481518110611d5157611d51614111565b60209081029190910101919091529015159052600101611caa565b507fc0b07a27e66788f39cc91405f012f34066b16f31b4bda9438c52f2dae0cc5b6381868585604051611da294939291906145fc565b60405180910390a150505050505050565b60008082841115611de5576000356001600160e01b0319166040516387f6f09560e01b815260040161090991906140fc565b600080516020614971833981519152549150611e0d6000805160206149518339815191525490565b9050611e26600080516020614971833981519152859055565b611e3d600080516020614951833981519152849055565b8284611e687f92872d32822c9d44b36a2537d3e0d4c46fc4de1ce154ccfaed560a8a58445f1d610edb565b60408051868152602081018690527f976f8a9c5bdf8248dec172376d6e2b80a8e3df2f0328e381c6db8e1cf138c0f8910160405180910390a49250929050565b60606106a67f546f6b46ab35b030b6816596b352aef78857377176c8b24baa2046a62cf1998c6110d8565b8051606090806001600160401b03811115611ef057611ef0613cf7565b604051908082528060200260200182016040528015611f19578160200160208202803683370190505b50915060008051602061499183398151915260005b82811015610c1857816000868381518110611f4b57611f4b614111565b60200260200101516001600160a01b03166001600160a01b0316815260200190815260200160002060000160149054906101000a90046001600160601b03166001600160601b0316848281518110611fa557611fa5614111565b6020908102919091010152600101611f2e565b6001600160a01b031660009081526000805160206149918339815191526020526040902054600160a01b90046001600160601b031690565b606081611ffc81611491565b8251806001600160401b0381111561201657612016613cf7565b60405190808252806020026020018201604052801561203f578160200160208202803683370190505b50925080600003612050575061185e565b604080518082019091526000808252602082018190526000805160206149b1833981519152917f546f6b46ab35b030b6816596b352aef78857377176c8b24baa2046a62cf1998c916000805160206149d183398151915291600080516020614991833981519152919081908190815b89811015612255578c81815181106120d9576120d9614111565b6020908102919091018101516001600160a01b038082166000908152928c90526040909220549091169550935061210f85611b74565b61211884611b74565b6001600160a01b0385811660009081526020888152604091829020825180840190935254808416808452600160a01b9091046001600160601b0316918301919091529093509085161461218c576000356001600160e01b03191660405163053265f160e01b815260040161090991906140fc565b6121968785611000565b80156121a757506121a78886611000565b8c82815181106121b9576121b9614111565b6020026020010190151590811515815250508b81815181106121dd576121dd614111565b60200260200101511561224d576121f48886611ba9565b506121ff8785611ba9565b506001600160a01b03808516600090815260208b8152604080832080546001600160a01b031916905592881682528881529181205582015161224a906001600160601b0316846140b4565b92505b6001016120bf565b5061226e6000805160206149f183398151915283612fae565b5061228d63c48549de60e01b8d8d604051602001610a85929190614158565b7fdf3dcd7987202f64648f3acdbf12401e3a2bb23e77e19f99826b5475cbb863698b8d6040516122be929190614649565b60405180910390a150505050505050505050919050565b600081815260018301602052604081205461231c57508154600181810184556000848152602080822090930184905584548482528286019093526040902091909155610736565b506000610736565b815481018181101561073657634e487b7160005260116020526024601cfd5b60608160000180548060200260200160405190810160405280929190818152602001828054801561239357602002820191906000526020600020905b81548152602001906001019080831161237f575b50505050509050919050565b6000816040516024016123b291906140fc565b60408051601f198184030181529181526020820180516001600160e01b03166301ffc9a760e01b1790525190915060009081906001600160a01b038616906123fb908590614562565b600060405180830381855afa9150503d8060008114612436576040519150601f19603f3d011682016040523d82523d6000602084013e61243b565b606091505b5091509150816124fd57846001600160a01b031683604051602401612460919061466e565b60408051601f198184030181529181526020820180516001600160e01b03166325da93a560e11b179052516124959190614562565b600060405180830381855afa9150503d80600081146124d0576040519150601f19603f3d011682016040523d82523d6000602084013e6124d5565b606091505b509092509050816124fd57838560405163069d427960e11b8152600401610909929190614681565b8080602001905181019061251191906146a4565b6107d357838560405163069d427960e11b8152600401610909929190614681565b60208201516000908082036125745760405163092048d160e11b8152600080356001600160e01b03191660048301526024820152466044820152606401610909565b600254612582908590612fbe565b600061258d85612638565b90506125988261305f565b600083815260016020818152604080842085855290915291829020918801519082018490556006909101559250845183146125f4576000356001600160e01b03191660405163d4cec26960e01b815260040161090991906140fc565b8083837fa57d40f1496988cf60ab7c9d5ba4ff83647f67d3898d441a3aaf21b651678fd98888604051612628929190614780565b60405180910390a4505092915050565b6080810151606082015160a083015151600092919083906001600160401b0381111561266657612666613cf7565b60405190808252806020026020018201604052801561268f578160200160208202803683370190505b5060c086015190915060005b82518110156126ee578660a0015181815181106126ba576126ba614111565b6020026020010151805190602001208382815181106126db576126db614111565b602090810291909101015260010161269b565b50604080517fd051578048e6ff0bbc9fca3b65a42088dbde10f36ca841de566711087ad9b08a8152875160208083019190915280890151828401529790910151606082015283518702938701939093206080840152835186029386019390932060a0830152805185029085012060c082015281518402919093012060e083015250610100902090565b604080517fd900570327c4c0df8dd6bdd522b7da7e39145dd049d2fd4602276adcd511e3c2815260208101939093528201526060902090565b84158015906127be57508483145b6127e9576000356001600160e01b0319166040516306b5667560e21b815260040161090991906140fc565b60008080856001600160401b0381111561280557612805613cf7565b60405190808252806020026020018201604052801561282e578160200160208202803683370190505b5090506000866001600160401b0381111561284b5761284b613cf7565b604051908082528060200260200182016040528015612874578160200160208202803683370190505b50905060008060003660005b8b811015612a05578c8c8281811061289a5761289a614111565b90506060020191508e8e828181106128b4576128b4614111565b90506020020160208101906128c991906147aa565b925060008360018111156128df576128df613f7e565b03612949576129048b6128f560208501856147cb565b846020013585604001356130fb565b945084878a612912816147ee565b9b508151811061292457612924614111565b60200260200101906001600160a01b031690816001600160a01b0316815250506129ba565b600183600181111561295d5761295d613f7e565b03612993576129738a6128f560208501856147cb565b9450848689612981816147ee565b9a508151811061292457612924614111565b6000356001600160e01b031916604051630612418f60e11b815260040161090991906140fc565b846001600160a01b0316846001600160a01b0316106129fa576000356001600160e01b031916604051635d3dcd3160e01b815260040161090991906140fc565b849350600101612880565b50505085845250508281526020808c015160009081526001825260408082208e51835290925290812090612a37613123565b90506000612a448561312d565b9050818110612acb5780600003612a7c576000356001600160e01b031916604051637f11b8a360e11b815260040161090991906140fc565b825460ff1916600190811784558301546040517f5c819725ea53655a3b898f3df59b66489761935454e9212ca1e5ebd759953d0b90600090a2612abf838f613138565b50505050505050612b9e565b600082612ad66131a5565b612ae091906140c7565b612aeb9060016140b4565b90506000612af88661312d565b9050818110612b775780600003612b30576000356001600160e01b031916604051637f11b8a360e11b815260040161090991906140fc565b845460ff1916600317855560018501546040517f55295d4ce992922fa2e5ffbf3a3dcdb367de0a15e125ace083456017fd22060f90600090a2505050505050505050612b9e565b6000356001600160e01b031916604051634ccfe64360e11b815260040161090991906140fc565b50505050505050565b612be76040518060e00160405280600081526020016000815260200160008152602001606081526020016060815260200160608152602001606081525090565b612c00612bf984604001516001611618565b84906131af565b9050612c1760025482612fbe90919063ffffffff16565b6000612c2282612638565b90506000612c30600061305f565b60008181527fa6eef7e35abe7026729641147f7915573c7e97b47efa546f5f6e3230263bcb49602090815260409091209087015160018201859055600690910155905082518114612ca2576000356001600160e01b03191660405163d4cec26960e01b815260040161090991906140fc565b81817f771d78ae9e5fca95a532fb0971d575d0ce9b59d14823c063e08740137e0e0eca85612ccf89612cf1565b8989604051612ce19493929190614807565b60405180910390a3505092915050565b60608101516040820151608083015151600092919083906001600160401b03811115612d1f57612d1f613cf7565b604051908082528060200260200182016040528015612d48578160200160208202803683370190505b5060a086015190915060005b8251811015612da75786608001518181518110612d7357612d73614111565b602002602001015180519060200120838281518110612d9457612d94614111565b6020908102919091010152600101612d54565b50604080517f1463f426c05aff2c1a7a0957a71c9898bc8b47142540538e79ee25ee911413508152875160208083019190915297880151918101919091528351870293870193909320606084015283518602938601939093206080830152805185029085012060a082015281518402919093012060c08301525060e0902090565b8060036000846003811115612e3f57612e3f613f7e565b6003811115612e5057612e50613f7e565b8152602081019190915260400160002080546001600160a01b0319166001600160a01b039283161790558116826003811115612e8e57612e8e613f7e565b6040517f356c8c57e9e84b99b1cb58b13c985b2c979f78cbdf4d0fa70fe2a98bb09a099d90600090a35050565b60008181526001830160205260408120548015612fa4576000612edf6001836140c7565b8554909150600090612ef3906001906140c7565b9050818114612f58576000866000018281548110612f1357612f13614111565b9060005260206000200154905080876000018481548110612f3657612f36614111565b6000918252602080832090910192909255918252600188019052604090208390555b8554869080612f6957612f696148f5565b600190038181906000526020600020016000905590558560010160008681526020019081526020016000206000905560019350505050610736565b6000915050610736565b60006107368361103285856132d9565b6000826060015151118015612fdc5750816080015151826060015151145b8015612ff157508160a0015151826060015151145b801561300657508160c0015151826060015151145b613031576000356001600160e01b0319166040516306b5667560e21b815260040161090991906140fc565b61303b81426140b4565b8260400151111561091c5760405163ad89be9d60e01b815260040160405180910390fd5b6000818152602081905260408120549081900361308e5750600090815260208190526040902060019081905590565b60008281526001602090815260408083208484529091528120906000825460ff1660048111156130c0576130c0613f7e565b036130de5760405163757a436360e01b815260040160405180910390fd5b505050600090815260208190526040902080546001019081905590565b600080600061310c878787876134b4565b91509150613119816135a1565b5095945050505050565b60006106a661085f565b6000610736826114c9565b61314181613757565b1561091c57815460ff1916600217825560008061315d83613771565b9150915083600101547fe134987599ae266ec90edeff1b26125b287dbb57b10822649432d1bb26537fba838360405161319792919061490b565b60405180910390a250505050565b60006106a6610adc565b6131ef6040518060e00160405280600081526020016000815260200160008152602001606081526020016060815260200160608152602001606081525090565b82518152602080840151604080840191909152600091830191909152830151516001600160401b0381111561322657613226613cf7565b60405190808252806020026020018201604052801561324f578160200160208202803683370190505b5060608083019190915283015160808083019190915283015160a08083019190915283015160c082015260005b83604001515181101561176b5782818151811061329b5761329b614111565b6020026020010151826060015182815181106132b9576132b9614111565b6001600160a01b039092166020928302919091019091015260010161327c565b60008254828110156132f857634e487b7160005260116020526024601cfd5b9190910392915050565b60048301548110156133b55782600801600084600401838154811061332957613329614111565b60009182526020808320909101546001600160a01b031683528201929092526040018120805460ff19169055600484018054600786019291908490811061337257613372614111565b60009182526020808320909101546001600160a01b031683528201929092526040018120805460ff19168155600181810183905560029091019190915501613302565b5060005b600583015481101561346c578260080160008460050183815481106133e0576133e0614111565b60009182526020808320909101546001600160a01b031683528201929092526040018120805460ff19169055600584018054600786019291908490811061342957613429614111565b60009182526020808320909101546001600160a01b031683528201929092526040018120805460ff191681556001818101839055600290910191909155016133b9565b50815460ff19168255600060018301819055600283018190556003830181905561349a9060048401906139cf565b6134a86005830160006139cf565b60006006830155919050565b6000807f7fffffffffffffffffffffffffffffff5d576e7357a4501ddfe92f46681b20a08311156134eb5750600090506003613598565b8460ff16601b1415801561350357508460ff16601c14155b156135145750600090506004613598565b6040805160008082526020820180845289905260ff881692820192909252606081018690526080810185905260019060a0016020604051602081039080840390855afa158015613568573d6000803e3d6000fd5b5050604051601f1901519150506001600160a01b03811661359157600060019250925050613598565b9150600090505b94509492505050565b60008160048111156135b5576135b5613f7e565b036135bd5750565b60018160048111156135d1576135d1613f7e565b0361361e5760405162461bcd60e51b815260206004820152601860248201527f45434453413a20696e76616c6964207369676e617475726500000000000000006044820152606401610909565b600281600481111561363257613632613f7e565b0361367f5760405162461bcd60e51b815260206004820152601f60248201527f45434453413a20696e76616c6964207369676e6174757265206c656e677468006044820152606401610909565b600381600481111561369357613693613f7e565b036136eb5760405162461bcd60e51b815260206004820152602260248201527f45434453413a20696e76616c6964207369676e6174757265202773272076616c604482015261756560f01b6064820152608401610909565b60048160048111156136ff576136ff613f7e565b036114c65760405162461bcd60e51b815260206004820152602260248201527f45434453413a20696e76616c6964207369676e6174757265202776272076616c604482015261756560f01b6064820152608401610909565b600081602001516000148061073657505060200151461490565b60608061377d83613757565b6137bb57602083015160405163092048d160e11b81526000356001600160e01b03191660048201526024810191909152466044820152606401610909565b8260600151516001600160401b038111156137d8576137d8613cf7565b604051908082528060200260200182016040528015613801578160200160208202803683370190505b5091508260600151516001600160401b0381111561382157613821613cf7565b60405190808252806020026020018201604052801561385457816020015b606081526020019060019003908161383f5790505b50905060005b8360600151518110156139c9578360c00151818151811061387d5761387d614111565b60200260200101515a116138b05761389484612638565b6040516307aec4ab60e21b815260040161090991815260200190565b836060015181815181106138c6576138c6614111565b60200260200101516001600160a01b0316846080015182815181106138ed576138ed614111565b60200260200101518560c00151838151811061390b5761390b614111565b6020026020010151908660a00151848151811061392a5761392a614111565b602002602001015160405161393f9190614562565b600060405180830381858888f193505050503d806000811461397d576040519150601f19603f3d011682016040523d82523d6000602084013e613982565b606091505b5084838151811061399557613995614111565b602002602001018484815181106139ae576139ae614111565b6020908102919091010191909152901515905260010161385a565b50915091565b50805460008255906000526020600020908101906114c691905b808211156139fd57600081556001016139e9565b5090565b60008083601f840112613a1357600080fd5b5081356001600160401b03811115613a2a57600080fd5b6020830191508360208260051b8501011115610b2857600080fd5b60008060008060008060608789031215613a5e57600080fd5b86356001600160401b0380821115613a7557600080fd5b613a818a838b01613a01565b90985096506020890135915080821115613a9a57600080fd5b613aa68a838b01613a01565b90965094506040890135915080821115613abf57600080fd5b50613acc89828a01613a01565b979a9699509497509295939492505050565b600081518084526020808501945080840160005b83811015613b10578151151587529582019590820190600101613af2565b509495945050505050565b6020815260006106f16020830184613ade565b60008060208385031215613b4157600080fd5b82356001600160401b03811115613b5757600080fd5b613b6385828601613a01565b90969095509350505050565b600081518084526020808501945080840160005b83811015613b105781516001600160a01b031687529582019590820190600101613b83565b6020815260006106f16020830184613b6f565b600060208284031215613bcd57600080fd5b5035919050565b60008083601f840112613be657600080fd5b5081356001600160401b03811115613bfd57600080fd5b602083019150836020606083028501011115610b2857600080fd5b600080600080600060608688031215613c3057600080fd5b85356001600160401b0380821115613c4757600080fd5b9087019060e0828a031215613c5b57600080fd5b90955060208701359080821115613c7157600080fd5b613c7d89838a01613a01565b90965094506040880135915080821115613c9657600080fd5b50613ca388828901613bd4565b969995985093965092949392505050565b600080600080600060608688031215613ccc57600080fd5b85356001600160401b0380821115613ce357600080fd5b9087019060c0828a031215613c5b57600080fd5b634e487b7160e01b600052604160045260246000fd5b60405160e081016001600160401b0381118282101715613d2f57613d2f613cf7565b60405290565b60405160c081016001600160401b0381118282101715613d2f57613d2f613cf7565b604051601f8201601f191681016001600160401b0381118282101715613d7f57613d7f613cf7565b604052919050565b60006001600160401b03821115613da057613da0613cf7565b5060051b60200190565b600082601f830112613dbb57600080fd5b81356020613dd0613dcb83613d87565b613d57565b82815260059290921b84018101918181019086841115613def57600080fd5b8286015b84811015613e1857803560048110613e0b5760008081fd5b8352918301918301613df3565b509695505050505050565b80356001600160a01b0381168114610d5157600080fd5b600082601f830112613e4b57600080fd5b81356020613e5b613dcb83613d87565b82815260059290921b84018101918181019086841115613e7a57600080fd5b8286015b84811015613e1857613e8f81613e23565b8352918301918301613e7e565b60008060408385031215613eaf57600080fd5b82356001600160401b0380821115613ec657600080fd5b613ed286838701613daa565b93506020850135915080821115613ee857600080fd5b50613ef585828601613e3a565b9150509250929050565b8035600e8110610d5157600080fd5b60008060408385031215613f2157600080fd5b613f2a83613eff565b9150613f3860208401613e23565b90509250929050565b600060208284031215613f5357600080fd5b6106f182613e23565b60008060408385031215613f6f57600080fd5b50508035926020909101359150565b634e487b7160e01b600052602160045260246000fd5b60a0810160058710613fa857613fa8613f7e565b95815260208101949094526040840192909252606083015260809091015290565b600060208284031215613fdb57600080fd5b81356001600160401b03811115613ff157600080fd5b61068584828501613e3a565b600081518084526020808501945080840160005b83811015613b1057815187529582019590820190600101614011565b6060815260006140406060830186613b6f565b82810360208401526140528186613b6f565b905082810360408401526140668185613ffd565b9695505050505050565b6020815260006106f16020830184613ffd565b60006020828403121561409557600080fd5b6106f182613eff565b634e487b7160e01b600052601160045260246000fd5b808201808211156107365761073661409e565b818103818111156107365761073661409e565b6000826140f757634e487b7160e01b600052601260045260246000fd5b500490565b6001600160e01b031991909116815260200190565b634e487b7160e01b600052603260045260246000fd5b80820281158282048414176107365761073661409e565b60208101600e831061415257614152613f7e565b91905290565b60408152600061416b6040830185613b6f565b828103602084015261417d8185613ade565b95945050505050565b6080815260006141996080830187613ade565b82810360208481019190915286518083528782019282019060005b818110156141d95784516001600160601b0316835293830193918301916001016141b4565b505084810360408601526141ed8188613b6f565b9250505082810360608401526105fd8185613b6f565b6001600160e01b031983168152604081016009831061422457614224613f7e565b8260208301529392505050565b600082601f83011261424257600080fd5b81356020614252613dcb83613d87565b82815260059290921b8401810191818101908684111561427157600080fd5b8286015b84811015613e185780358352918301918301614275565b6000601f838184011261429e57600080fd5b823560206142ae613dcb83613d87565b82815260059290921b850181019181810190878411156142cd57600080fd5b8287015b848110156143635780356001600160401b03808211156142f15760008081fd5b818a0191508a603f8301126143065760008081fd5b8582013560408282111561431c5761431c613cf7565b61432d828b01601f19168901613d57565b92508183528c818386010111156143445760008081fd5b81818501898501375060009082018701528452509183019183016142d1565b50979650505050505050565b600060e0823603121561438157600080fd5b614389613d0d565b82358152602083013560208201526040830135604082015260608301356001600160401b03808211156143bb57600080fd5b6143c736838701613e3a565b606084015260808501359150808211156143e057600080fd5b6143ec36838701614231565b608084015260a085013591508082111561440557600080fd5b6144113683870161428c565b60a084015260c085013591508082111561442a57600080fd5b5061443736828601614231565b60c08301525092915050565b600060c0823603121561445557600080fd5b61445d613d35565b823581526020830135602082015260408301356001600160401b038082111561448557600080fd5b61449136838701613daa565b604084015260608501359150808211156144aa57600080fd5b6144b636838701614231565b606084015260808501359150808211156144cf57600080fd5b6144db3683870161428c565b608084015260a08501359150808211156144f457600080fd5b5061450136828601614231565b60a08301525092915050565b60005b83811015614528578181015183820152602001614510565b50506000910152565b6001600160e01b031983168152815160009061455481600485016020870161450d565b919091016004019392505050565b6000825161457481846020870161450d565b9190910192915050565b6000815180845261459681602086016020860161450d565b601f01601f19169290920160200192915050565b6000815180845260208085019450848260051b860182860160005b858110156145ef5783830389526145dd83835161457e565b988501989250908401906001016145c5565b5090979650505050505050565b60808152600061460f608083018761457e565b82810360208401526146218187613b6f565b905082810360408401526146358186613ade565b905082810360608401526105fd81856145aa565b60408152600061465c6040830185613ade565b828103602084015261417d8185613b6f565b6020815260006106f1602083018461457e565b6001600160e01b03199290921682526001600160a01b0316602082015260400190565b6000602082840312156146b657600080fd5b815180151581146106f157600080fd5b600060e08301825184526020808401518186015260408401516040860152606084015160e06060870152828151808552610100880191508383019450600092505b808310156147305784516001600160a01b03168252938301936001929092019190830190614707565b5060808601519350868103608088015261474a8185613ffd565b935050505060a083015184820360a086015261476682826145aa565b91505060c083015184820360c086015261417d8282613ffd565b60408152600061479360408301856146c6565b905060018060a01b03831660208301529392505050565b6000602082840312156147bc57600080fd5b8135600281106106f157600080fd5b6000602082840312156147dd57600080fd5b813560ff811681146106f157600080fd5b6000600182016148005761480061409e565b5060010190565b60808152600061481a60808301876146c6565b60208681850152838203604085015260c08201865183528187015182840152604087015160c0604085015281815180845260e0860191508483019350600092505b8083101561488b5783516004811061487557614875613f7e565b825292840192600192909201919084019061485b565b506060890151935084810360608601526148a58185613ffd565b9350505050608086015182820360808401526148c182826145aa565b91505060a086015182820360a08401526148db8282613ffd565b935050505061417d60608301846001600160a01b03169052565b634e487b7160e01b600052603160045260246000fd5b60408152600061491e6040830185613ade565b828103602084015261417d81856145aa56fe5da136eb38f8d8e354915fc8a767c0dc81d49de5fb65d5477122a82ddd976240ac1ff16a4f04f2a37a9ba5252a69baa100b460e517d1f8019c054a5ad698f9ffc55405a488814eaa0e2a685a0131142785b8d033d311c8c8244e34a7c12ca40f88547008e60f5748911f2e59feb3093b7e4c2e87b2dd69d61f112fcc932de8e38400683eb2cb350596d73644c0c89fe45f108600003457374f4ab3e87b4f3aa3d38c234075fde25875da8a6b7e36b58b86681d483271a99eeeee1d78e258a24d6924fe71b0c8b61aea02ca498b5f53b29bd95726278b1fe4eb791bb24a42644ca164736f6c6343000811000a5da136eb38f8d8e354915fc8a767c0dc81d49de5fb65d5477122a82ddd976240c55405a488814eaa0e2a685a0131142785b8d033d311c8c8244e34a7c12ca40f92872d32822c9d44b36a2537d3e0d4c46fc4de1ce154ccfaed560a8a58445f1d",
  "devdoc": {
    "errors": {
      "ErrBridgeOperatorAlreadyExisted(address)": [
        {
          "details": "Error thrown when attempting to add a bridge operator that already exists in the contract. This error indicates that the provided bridge operator address is already registered as a bridge operator in the contract."
        }
      ],
      "ErrBridgeOperatorUpdateFailed(address)": [
        {
          "details": "Error raised when a bridge operator update operation fails.",
          "params": {
            "bridgeOperator": "The address of the bridge operator that failed to update."
          }
        }
      ],
      "ErrContractTypeNotFound(uint8)": [
        {
          "details": "Error of invalid role."
        }
      ],
      "ErrCurrentProposalIsNotCompleted()": [
        {
          "details": "Error thrown when the current proposal is not completed."
        }
      ],
      "ErrDuplicated(bytes4)": [
        {
          "details": "Error thrown when a duplicated element is detected in an array.",
          "params": {
            "msgSig": "The function signature that invoke the error."
          }
        }
      ],
      "ErrInsufficientGas(bytes32)": [
        {
          "details": "Error thrown when there is insufficient gas to execute a function."
        }
      ],
      "ErrInvalidArguments(bytes4)": [
        {
          "details": "Error indicating that arguments are invalid."
        }
      ],
      "ErrInvalidChainId(bytes4,uint256,uint256)": [
        {
          "details": "Error indicating that the chain ID is invalid.",
          "params": {
            "actual": "Current chain ID that executing function.",
            "expected": "Expected chain ID required for the tx to success.",
            "msgSig": "The function signature (bytes4) of the operation that encountered an invalid chain ID."
          }
        }
      ],
      "ErrInvalidExpiryTimestamp()": [
        {
          "details": "Error thrown when an invalid expiry timestamp is provided."
        }
      ],
      "ErrInvalidOrder(bytes4)": [
        {
          "details": "Error indicating that an order is invalid.",
          "params": {
            "msgSig": "The function signature (bytes4) of the operation that encountered an invalid order."
          }
        }
      ],
      "ErrInvalidProposalNonce(bytes4)": [
        {
          "details": "Error indicating that the proposal nonce is invalid.",
          "params": {
            "msgSig": "The function signature (bytes4) of the operation that encountered an invalid proposal nonce."
          }
        }
      ],
      "ErrInvalidThreshold(bytes4)": [
        {
          "details": "Error indicating that the provided threshold is invalid for a specific function signature.",
          "params": {
            "msgSig": "The function signature (bytes4) that the invalid threshold applies to."
          }
        }
      ],
      "ErrInvalidVoteWeight(bytes4)": [
        {
          "details": "Error indicating that a vote weight is invalid for a specific function signature.",
          "params": {
            "msgSig": "The function signature (bytes4) that encountered an invalid vote weight."
          }
        }
      ],
      "ErrLengthMismatch(bytes4)": [
        {
          "details": "Error indicating a mismatch in the length of input parameters or arrays for a specific function.",
          "params": {
            "msgSig": "The function signature (bytes4) that has a length mismatch."
          }
        }
      ],
      "ErrOnlySelfCall(bytes4)": [
        {
          "details": "Error indicating that a function can only be called by the contract itself.",
          "params": {
            "msgSig": "The function signature (bytes4) that can only be called by the contract itself."
          }
        }
      ],
      "ErrRelayFailed(bytes4)": [
        {
          "details": "Error indicating that a relay call has failed.",
          "params": {
            "msgSig": "The function signature (bytes4) of the relay call that failed."
          }
        }
      ],
      "ErrUnauthorized(bytes4,uint8)": [
        {
          "details": "Error indicating that the caller is unauthorized to perform a specific function.",
          "params": {
            "expectedRole": "The role required to perform the function.",
            "msgSig": "The function signature (bytes4) that the caller is unauthorized to perform."
          }
        }
      ],
      "ErrUnsupportedInterface(bytes4,address)": [
        {
          "details": "The error indicating an unsupported interface.",
          "params": {
            "addr": "The address where the unsupported interface was encountered.",
            "interfaceId": "The bytes4 interface identifier that is not supported."
          }
        }
      ],
      "ErrUnsupportedVoteType(bytes4)": [
        {
          "details": "Error indicating that a vote type is not supported.",
          "params": {
            "msgSig": "The function signature (bytes4) of the operation that encountered an unsupported vote type."
          }
        }
      ],
      "ErrVoteIsFinalized()": [
        {
          "details": "Error thrown when attempting to interact with a finalized vote."
        }
      ],
      "ErrZeroAddress(bytes4)": [
        {
          "details": "Error indicating that given address is null when it should not."
        }
      ],
      "ErrZeroCodeContract(address)": [
        {
          "details": "Error of set to non-contract."
        }
      ]
    },
    "kind": "dev",
    "methods": {
      "addBridgeOperators(uint96[],address[],address[])": {
        "details": "Adds multiple bridge operators.",
        "params": {
          "bridgeOperators": "An array of addresses representing the bridge operators to add.",
          "governors": "An array of addresses of hot/cold wallets for bridge operator to update their node address."
        },
        "returns": {
          "addeds": "An array of booleans indicating whether each bridge operator was added successfully. Note: return boolean array `addeds` indicates whether a group (voteWeight, governor, operator) are recorded. It is expected that FE/BE staticcall to the function first to get the return values and handle it correctly. Governors are expected to see the outcome of this function and decide if they want to vote for the proposal or not. Example Usage: Making an `eth_call` in ethers.js ``` const {addeds} = await bridgeManagerContract.callStatic.addBridgeOperators(  voteWeights,  governors,  bridgeOperators,  // overriding the caller to the contract itself since we use `onlySelfCall` guard  {from: bridgeManagerContract.address} ) const filteredOperators = bridgeOperators.filter((_, index) => addeds[index]); const filteredWeights = weights.filter((_, index) => addeds[index]); const filteredGovernors = governors.filter((_, index) => addeds[index]); // ... (Process or use the information as required) ... ```"
        }
      },
      "checkThreshold(uint256)": {
        "details": "Checks whether the `_voteWeight` passes the threshold."
      },
      "getBridgeOperatorOf(address[])": {
        "details": "Returns an array of bridge operators correspoding to governor addresses.",
        "returns": {
          "bridgeOperators": "An array containing the addresses of all bridge operators."
        }
      },
      "getBridgeOperatorWeight(address)": {
        "details": "External function to retrieve the vote weight of a specific bridge operator.",
        "params": {
          "bridgeOperator": "The address of the bridge operator to get the vote weight for."
        },
        "returns": {
          "weight": "The vote weight of the specified bridge operator."
        }
      },
      "getBridgeOperators()": {
        "details": "Returns an array of all bridge operators.",
        "returns": {
          "_0": "An array containing the addresses of all bridge operators."
        }
      },
      "getCallbackRegisters()": {
        "details": "Retrieves the addresses of registered callbacks.",
        "returns": {
          "registers": "An array containing the addresses of registered callbacks."
        }
      },
      "getContract(uint8)": {
        "details": "Returns the address of a contract with a specific role. Throws an error if no contract is set for the specified role.",
        "params": {
          "contractType": "The role of the contract to retrieve."
        },
        "returns": {
          "contract_": "The address of the contract with the specified role."
        }
      },
      "getFullBridgeOperatorInfos()": {
        "details": "Retrieves the full information of all registered bridge operators. This external function allows external callers to obtain the full information of all the registered bridge operators. The returned arrays include the addresses of governors, bridge operators, and their corresponding vote weights.",
        "returns": {
          "bridgeOperators": "An array of addresses representing the registered bridge operators.",
          "governors": "An array of addresses representing the governors of each bridge operator.",
          "weights": "An array of uint256 values representing the vote weights of each bridge operator. Note: The length of each array will be the same, and the order of elements corresponds to the same bridge operator. Example Usage: ``` (address[] memory governors, address[] memory bridgeOperators, uint256[] memory weights) = getFullBridgeOperatorInfos(); for (uint256 i = 0; i < bridgeOperators.length; i++) {     // Access individual information for each bridge operator.     address governor = governors[i];     address bridgeOperator = bridgeOperators[i];     uint256 weight = weights[i];     // ... (Process or use the information as required) ... } ```"
        }
      },
      "getGovernorWeight(address)": {
        "details": "External function to retrieve the vote weight of a specific governor.",
        "params": {
          "governor": "The address of the governor to get the vote weight for."
        },
        "returns": {
          "weight": "voteWeight The vote weight of the specified governor."
        }
      },
      "getGovernorWeights(address[])": {
        "details": "Returns the weights of a list of governor addresses."
      },
      "getGovernors()": {
        "details": "Returns an array of all governors.",
        "returns": {
          "_0": "An array containing the addresses of all governors."
        }
      },
      "getGovernorsOf(address[])": {
        "details": "Retrieves the governors corresponding to a given array of bridge operators. This external function allows external callers to obtain the governors associated with a given array of bridge operators. The function takes an input array `bridgeOperators` containing bridge operator addresses and returns an array of corresponding governors.",
        "params": {
          "bridgeOperators": "An array of bridge operator addresses for which governors are to be retrieved."
        },
        "returns": {
          "governors": "An array of addresses representing the governors corresponding to the provided bridge operators."
        }
      },
      "getProposalExpiryDuration()": {
        "details": "Returns the expiry duration for a new proposal."
      },
      "getThreshold()": {
        "details": "Returns the threshold."
      },
      "getTotalWeights()": {
        "details": "Returns total weights."
      },
      "globalProposalRelayed(uint256)": {
        "details": "Returns whether the voter `_voter` casted vote for the proposal."
      },
      "isBridgeOperator(address)": {
        "details": "Checks if the given address is a bridge operator.",
        "params": {
          "addr": "The address to check."
        },
        "returns": {
          "_0": "A boolean indicating whether the address is a bridge operator."
        }
      },
      "minimumVoteWeight()": {
        "details": "Returns the minimum vote weight to pass the threshold."
      },
      "registerCallbacks(address[])": {
        "details": "Registers multiple callbacks with the bridge.",
        "params": {
          "registers": "The array of callback addresses to register."
        },
        "returns": {
          "registereds": "An array indicating the success status of each registration."
        }
      },
      "relayGlobalProposal((uint256,uint256,uint8[],uint256[],bytes[],uint256[]),uint8[],(uint8,bytes32,bytes32)[])": {
        "details": "See `GovernanceRelay-_relayGlobalProposal`.  Requirements: - The method caller is governor."
      },
      "relayProposal((uint256,uint256,uint256,address[],uint256[],bytes[],uint256[]),uint8[],(uint8,bytes32,bytes32)[])": {
        "details": "See `GovernanceRelay-_relayProposal`. Requirements: - The method caller is governor."
      },
      "removeBridgeOperators(address[])": {
        "details": "Removes multiple bridge operators.",
        "params": {
          "bridgeOperators": "An array of addresses representing the bridge operators to remove."
        },
        "returns": {
          "removeds": "An array of booleans indicating whether each bridge operator was removed successfully. * Note: return boolean array `removeds` indicates whether a group (voteWeight, governor, operator) are recorded. It is expected that FE/BE staticcall to the function first to get the return values and handle it correctly. Governors are expected to see the outcome of this function and decide if they want to vote for the proposal or not. Example Usage: Making an `eth_call` in ethers.js ``` const {removeds} = await bridgeManagerContract.callStatic.removeBridgeOperators(  bridgeOperators,  // overriding the caller to the contract itself since we use `onlySelfCall` guard  {from: bridgeManagerContract.address} ) const filteredOperators = bridgeOperators.filter((_, index) => removeds[index]); // ... (Process or use the information as required) ... ```"
        }
      },
      "resolveTargets(uint8[])": {
        "details": "Returns corresponding address of target options. Return address(0) on non-existent target."
      },
      "setContract(uint8,address)": {
        "details": "Sets the address of a contract with a specific role. Emits the event {ContractUpdated}.",
        "params": {
          "addr": "The address of the contract to set.",
          "contractType": "The role of the contract to set."
        }
      },
      "setThreshold(uint256,uint256)": {
        "details": "Sets the threshold. Requirements: - The method caller is admin. Emits the `ThresholdUpdated` event."
      },
      "sumGovernorsWeight(address[])": {
        "details": "Returns total weights of the governor list."
      },
      "totalBridgeOperators()": {
        "details": "Returns the total number of bridge operators.",
        "returns": {
          "_0": "The total number of bridge operators."
        }
      },
      "unregisterCallbacks(address[])": {
        "details": "Unregisters multiple callbacks from the bridge.",
        "params": {
          "registers": "The array of callback addresses to unregister."
        },
        "returns": {
          "unregistereds": "An array indicating the success status of each unregistration."
        }
      },
      "updateBridgeOperator(address)": {
        "details": "Governor updates their corresponding governor and/or operator address. Requirements: - The caller must the governor of the operator that is requested changes.",
        "params": {
          "bridgeOperator": "The address of the bridge operator to update."
        }
      },
      "updateManyTargetOption(uint8[],address[])": {
        "details": "Updates list of `targetOptions` to `targets`. Requirement: - Only allow self-call through proposal. "
      }
    },
    "version": 1
  },
  "userdoc": {
    "kind": "user",
    "methods": {
      "round(uint256)": {
        "notice": "chain id = 0 for global proposal"
      },
      "updateBridgeOperator(address)": {
        "notice": "This method checks authorization by querying the corresponding operator of the msg.sender and then attempts to remove it from the `_bridgeOperatorSet` for gas optimization. In case we allow a governor can leave their operator address blank null `address(0)`, consider add authorization check."
      }
    },
    "version": 1
  },
  "storageLayout": {
    "storage": [
      {
        "astId": 8149,
        "contract": "contracts/mainchain/MainchainBridgeManager.sol:MainchainBridgeManager",
        "label": "round",
        "offset": 0,
        "slot": "0",
        "type": "t_mapping(t_uint256,t_uint256)"
      },
      {
        "astId": 8157,
        "contract": "contracts/mainchain/MainchainBridgeManager.sol:MainchainBridgeManager",
        "label": "vote",
        "offset": 0,
        "slot": "1",
        "type": "t_mapping(t_uint256,t_mapping(t_uint256,t_struct(ProposalVote)8087_storage))"
      },
      {
        "astId": 8159,
        "contract": "contracts/mainchain/MainchainBridgeManager.sol:MainchainBridgeManager",
        "label": "_proposalExpiryDuration",
        "offset": 0,
        "slot": "2",
        "type": "t_uint256"
      },
      {
        "astId": 8896,
        "contract": "contracts/mainchain/MainchainBridgeManager.sol:MainchainBridgeManager",
        "label": "_targetOptionsMap",
        "offset": 0,
        "slot": "3",
        "type": "t_mapping(t_enum(TargetOption)15051,t_address)"
      }
    ],
    "types": {
      "t_address": {
        "encoding": "inplace",
        "label": "address",
        "numberOfBytes": "20"
      },
      "t_array(t_address)dyn_storage": {
        "base": "t_address",
        "encoding": "dynamic_array",
        "label": "address[]",
        "numberOfBytes": "32"
      },
      "t_bool": {
        "encoding": "inplace",
        "label": "bool",
        "numberOfBytes": "1"
      },
      "t_bytes32": {
        "encoding": "inplace",
        "label": "bytes32",
        "numberOfBytes": "32"
      },
      "t_enum(TargetOption)15051": {
        "encoding": "inplace",
        "label": "enum GlobalProposal.TargetOption",
        "numberOfBytes": "1"
      },
      "t_enum(VoteStatus)12738": {
        "encoding": "inplace",
        "label": "enum VoteStatusConsumer.VoteStatus",
        "numberOfBytes": "1"
      },
      "t_mapping(t_address,t_bool)": {
        "encoding": "mapping",
        "key": "t_address",
        "label": "mapping(address => bool)",
        "numberOfBytes": "32",
        "value": "t_bool"
      },
      "t_mapping(t_address,t_struct(Signature)12729_storage)": {
        "encoding": "mapping",
        "key": "t_address",
        "label": "mapping(address => struct SignatureConsumer.Signature)",
        "numberOfBytes": "32",
        "value": "t_struct(Signature)12729_storage"
      },
      "t_mapping(t_enum(TargetOption)15051,t_address)": {
        "encoding": "mapping",
        "key": "t_enum(TargetOption)15051",
        "label": "mapping(enum GlobalProposal.TargetOption => address)",
        "numberOfBytes": "32",
        "value": "t_address"
      },
      "t_mapping(t_uint256,t_mapping(t_uint256,t_struct(ProposalVote)8087_storage))": {
        "encoding": "mapping",
        "key": "t_uint256",
        "label": "mapping(uint256 => mapping(uint256 => struct CoreGovernance.ProposalVote))",
        "numberOfBytes": "32",
        "value": "t_mapping(t_uint256,t_struct(ProposalVote)8087_storage)"
      },
      "t_mapping(t_uint256,t_struct(ProposalVote)8087_storage)": {
        "encoding": "mapping",
        "key": "t_uint256",
        "label": "mapping(uint256 => struct CoreGovernance.ProposalVote)",
        "numberOfBytes": "32",
        "value": "t_struct(ProposalVote)8087_storage"
      },
      "t_mapping(t_uint256,t_uint256)": {
        "encoding": "mapping",
        "key": "t_uint256",
        "label": "mapping(uint256 => uint256)",
        "numberOfBytes": "32",
        "value": "t_uint256"
      },
      "t_struct(ProposalVote)8087_storage": {
        "encoding": "inplace",
        "label": "struct CoreGovernance.ProposalVote",
        "members": [
          {
            "astId": 8063,
            "contract": "contracts/mainchain/MainchainBridgeManager.sol:MainchainBridgeManager",
            "label": "status",
            "offset": 0,
            "slot": "0",
            "type": "t_enum(VoteStatus)12738"
          },
          {
            "astId": 8065,
            "contract": "contracts/mainchain/MainchainBridgeManager.sol:MainchainBridgeManager",
            "label": "hash",
            "offset": 0,
            "slot": "1",
            "type": "t_bytes32"
          },
          {
            "astId": 8067,
            "contract": "contracts/mainchain/MainchainBridgeManager.sol:MainchainBridgeManager",
            "label": "againstVoteWeight",
            "offset": 0,
            "slot": "2",
            "type": "t_uint256"
          },
          {
            "astId": 8069,
            "contract": "contracts/mainchain/MainchainBridgeManager.sol:MainchainBridgeManager",
            "label": "forVoteWeight",
            "offset": 0,
            "slot": "3",
            "type": "t_uint256"
          },
          {
            "astId": 8072,
            "contract": "contracts/mainchain/MainchainBridgeManager.sol:MainchainBridgeManager",
            "label": "forVoteds",
            "offset": 0,
            "slot": "4",
            "type": "t_array(t_address)dyn_storage"
          },
          {
            "astId": 8075,
            "contract": "contracts/mainchain/MainchainBridgeManager.sol:MainchainBridgeManager",
            "label": "againstVoteds",
            "offset": 0,
            "slot": "5",
            "type": "t_array(t_address)dyn_storage"
          },
          {
            "astId": 8077,
            "contract": "contracts/mainchain/MainchainBridgeManager.sol:MainchainBridgeManager",
            "label": "expiryTimestamp",
            "offset": 0,
            "slot": "6",
            "type": "t_uint256"
          },
          {
            "astId": 8082,
            "contract": "contracts/mainchain/MainchainBridgeManager.sol:MainchainBridgeManager",
            "label": "sig",
            "offset": 0,
            "slot": "7",
            "type": "t_mapping(t_address,t_struct(Signature)12729_storage)"
          },
          {
            "astId": 8086,
            "contract": "contracts/mainchain/MainchainBridgeManager.sol:MainchainBridgeManager",
            "label": "voted",
            "offset": 0,
            "slot": "8",
            "type": "t_mapping(t_address,t_bool)"
          }
        ],
        "numberOfBytes": "288"
      },
      "t_struct(Signature)12729_storage": {
        "encoding": "inplace",
        "label": "struct SignatureConsumer.Signature",
        "members": [
          {
            "astId": 12724,
            "contract": "contracts/mainchain/MainchainBridgeManager.sol:MainchainBridgeManager",
            "label": "v",
            "offset": 0,
            "slot": "0",
            "type": "t_uint8"
          },
          {
            "astId": 12726,
            "contract": "contracts/mainchain/MainchainBridgeManager.sol:MainchainBridgeManager",
            "label": "r",
            "offset": 0,
            "slot": "1",
            "type": "t_bytes32"
          },
          {
            "astId": 12728,
            "contract": "contracts/mainchain/MainchainBridgeManager.sol:MainchainBridgeManager",
            "label": "s",
            "offset": 0,
            "slot": "2",
            "type": "t_bytes32"
          }
        ],
        "numberOfBytes": "96"
      },
      "t_uint256": {
        "encoding": "inplace",
        "label": "uint256",
        "numberOfBytes": "32"
      },
      "t_uint8": {
        "encoding": "inplace",
        "label": "uint8",
        "numberOfBytes": "1"
      }
    }
  }
}