{
  "address": "0x456327e8961B3Cd20ea41fF8b4FcE80EA3A8A5C9",
  "abi": [
    {
      "inputs": [
        {
          "internalType": "address",
          "name": "_roleSetter",
          "type": "address"
        },
        {
          "internalType": "address",
          "name": "_roninTrustedOrganizationContract",
          "type": "address"
        },
        {
          "internalType": "address",
          "name": "_bridgeContract",
          "type": "address"
        },
        {
          "internalType": "address[]",
          "name": "_relayers",
          "type": "address[]"
        }
      ],
      "stateMutability": "nonpayable",
      "type": "constructor"
    },
    {
      "anonymous": false,
      "inputs": [
        {
          "indexed": false,
          "internalType": "address",
          "name": "",
          "type": "address"
        }
      ],
      "name": "BridgeContractUpdated",
      "type": "event"
    },
    {
      "anonymous": false,
      "inputs": [
        {
          "indexed": true,
          "internalType": "uint256",
          "name": "round",
          "type": "uint256"
        },
        {
          "indexed": true,
          "internalType": "bytes32",
          "name": "proposalHash",
          "type": "bytes32"
        },
        {
          "components": [
            {
              "internalType": "uint256",
              "name": "nonce",
              "type": "uint256"
            },
            {
              "internalType": "uint256",
              "name": "chainId",
              "type": "uint256"
            },
            {
              "internalType": "address[]",
              "name": "targets",
              "type": "address[]"
            },
            {
              "internalType": "uint256[]",
              "name": "values",
              "type": "uint256[]"
            },
            {
              "internalType": "bytes[]",
              "name": "calldatas",
              "type": "bytes[]"
            },
            {
              "internalType": "uint256[]",
              "name": "gasAmounts",
              "type": "uint256[]"
            }
          ],
          "indexed": false,
          "internalType": "struct Proposal.ProposalDetail",
          "name": "proposal",
          "type": "tuple"
        },
        {
          "indexed": false,
          "internalType": "bytes32",
          "name": "globalProposalHash",
          "type": "bytes32"
        },
        {
          "components": [
            {
              "internalType": "uint256",
              "name": "nonce",
              "type": "uint256"
            },
            {
              "internalType": "enum GlobalProposal.TargetOption[]",
              "name": "targetOptions",
              "type": "uint8[]"
            },
            {
              "internalType": "uint256[]",
              "name": "values",
              "type": "uint256[]"
            },
            {
              "internalType": "bytes[]",
              "name": "calldatas",
              "type": "bytes[]"
            },
            {
              "internalType": "uint256[]",
              "name": "gasAmounts",
              "type": "uint256[]"
            }
          ],
          "indexed": false,
          "internalType": "struct GlobalProposal.GlobalProposalDetail",
          "name": "globalProposal",
          "type": "tuple"
        },
        {
          "indexed": false,
          "internalType": "address",
          "name": "creator",
          "type": "address"
        }
      ],
      "name": "GlobalProposalCreated",
      "type": "event"
    },
    {
      "anonymous": false,
      "inputs": [
        {
          "indexed": true,
          "internalType": "bytes32",
          "name": "proposalHash",
          "type": "bytes32"
        }
      ],
      "name": "ProposalApproved",
      "type": "event"
    },
    {
      "anonymous": false,
      "inputs": [
        {
          "indexed": true,
          "internalType": "uint256",
          "name": "chainId",
          "type": "uint256"
        },
        {
          "indexed": true,
          "internalType": "uint256",
          "name": "round",
          "type": "uint256"
        },
        {
          "indexed": true,
          "internalType": "bytes32",
          "name": "proposalHash",
          "type": "bytes32"
        },
        {
          "components": [
            {
              "internalType": "uint256",
              "name": "nonce",
              "type": "uint256"
            },
            {
              "internalType": "uint256",
              "name": "chainId",
              "type": "uint256"
            },
            {
              "internalType": "address[]",
              "name": "targets",
              "type": "address[]"
            },
            {
              "internalType": "uint256[]",
              "name": "values",
              "type": "uint256[]"
            },
            {
              "internalType": "bytes[]",
              "name": "calldatas",
              "type": "bytes[]"
            },
            {
              "internalType": "uint256[]",
              "name": "gasAmounts",
              "type": "uint256[]"
            }
          ],
          "indexed": false,
          "internalType": "struct Proposal.ProposalDetail",
          "name": "proposal",
          "type": "tuple"
        },
        {
          "indexed": false,
          "internalType": "address",
          "name": "creator",
          "type": "address"
        }
      ],
      "name": "ProposalCreated",
      "type": "event"
    },
    {
      "anonymous": false,
      "inputs": [
        {
          "indexed": true,
          "internalType": "bytes32",
          "name": "proposalHash",
          "type": "bytes32"
        },
        {
          "indexed": false,
          "internalType": "bool[]",
          "name": "successCalls",
          "type": "bool[]"
        },
        {
          "indexed": false,
          "internalType": "bytes[]",
          "name": "returnDatas",
          "type": "bytes[]"
        }
      ],
      "name": "ProposalExecuted",
      "type": "event"
    },
    {
      "anonymous": false,
      "inputs": [
        {
          "indexed": true,
          "internalType": "bytes32",
          "name": "proposalHash",
          "type": "bytes32"
        }
      ],
      "name": "ProposalRejected",
      "type": "event"
    },
    {
      "anonymous": false,
      "inputs": [
        {
          "indexed": true,
          "internalType": "bytes32",
          "name": "proposalHash",
          "type": "bytes32"
        },
        {
          "indexed": true,
          "internalType": "address",
          "name": "voter",
          "type": "address"
        },
        {
          "indexed": false,
          "internalType": "enum Ballot.VoteType",
          "name": "support",
          "type": "uint8"
        },
        {
          "indexed": false,
          "internalType": "uint256",
          "name": "weight",
          "type": "uint256"
        }
      ],
      "name": "ProposalVoted",
      "type": "event"
    },
    {
      "anonymous": false,
      "inputs": [
        {
          "indexed": true,
          "internalType": "bytes32",
          "name": "role",
          "type": "bytes32"
        },
        {
          "indexed": true,
          "internalType": "bytes32",
          "name": "previousAdminRole",
          "type": "bytes32"
        },
        {
          "indexed": true,
          "internalType": "bytes32",
          "name": "newAdminRole",
          "type": "bytes32"
        }
      ],
      "name": "RoleAdminChanged",
      "type": "event"
    },
    {
      "anonymous": false,
      "inputs": [
        {
          "indexed": true,
          "internalType": "bytes32",
          "name": "role",
          "type": "bytes32"
        },
        {
          "indexed": true,
          "internalType": "address",
          "name": "account",
          "type": "address"
        },
        {
          "indexed": true,
          "internalType": "address",
          "name": "sender",
          "type": "address"
        }
      ],
      "name": "RoleGranted",
      "type": "event"
    },
    {
      "anonymous": false,
      "inputs": [
        {
          "indexed": true,
          "internalType": "bytes32",
          "name": "role",
          "type": "bytes32"
        },
        {
          "indexed": true,
          "internalType": "address",
          "name": "account",
          "type": "address"
        },
        {
          "indexed": true,
          "internalType": "address",
          "name": "sender",
          "type": "address"
        }
      ],
      "name": "RoleRevoked",
      "type": "event"
    },
    {
      "anonymous": false,
      "inputs": [
        {
          "indexed": false,
          "internalType": "address",
          "name": "",
          "type": "address"
        }
      ],
      "name": "RoninTrustedOrganizationContractUpdated",
      "type": "event"
    },
    {
      "inputs": [],
      "name": "DEFAULT_ADMIN_ROLE",
      "outputs": [
        {
          "internalType": "bytes32",
          "name": "",
          "type": "bytes32"
        }
      ],
      "stateMutability": "view",
      "type": "function"
    },
    {
      "inputs": [],
      "name": "DOMAIN_SEPARATOR",
      "outputs": [
        {
          "internalType": "bytes32",
          "name": "",
          "type": "bytes32"
        }
      ],
      "stateMutability": "view",
      "type": "function"
    },
    {
      "inputs": [],
      "name": "RELAYER_ROLE",
      "outputs": [
        {
          "internalType": "bytes32",
          "name": "",
          "type": "bytes32"
        }
      ],
      "stateMutability": "view",
      "type": "function"
    },
    {
      "inputs": [],
      "name": "bridgeContract",
      "outputs": [
        {
          "internalType": "address",
          "name": "",
          "type": "address"
        }
      ],
      "stateMutability": "view",
      "type": "function"
    },
    {
      "inputs": [
        {
          "internalType": "address",
          "name": "_proxy",
          "type": "address"
        },
        {
          "internalType": "address",
          "name": "_newAdmin",
          "type": "address"
        }
      ],
      "name": "changeProxyAdmin",
      "outputs": [],
      "stateMutability": "nonpayable",
      "type": "function"
    },
    {
      "inputs": [
        {
          "internalType": "address",
          "name": "_proxy",
          "type": "address"
        }
      ],
      "name": "getProxyAdmin",
      "outputs": [
        {
          "internalType": "address",
          "name": "",
          "type": "address"
        }
      ],
      "stateMutability": "view",
      "type": "function"
    },
    {
      "inputs": [
        {
          "internalType": "address",
          "name": "_proxy",
          "type": "address"
        }
      ],
      "name": "getProxyImplementation",
      "outputs": [
        {
          "internalType": "address",
          "name": "",
          "type": "address"
        }
      ],
      "stateMutability": "view",
      "type": "function"
    },
    {
      "inputs": [
        {
          "internalType": "bytes32",
          "name": "role",
          "type": "bytes32"
        }
      ],
      "name": "getRoleAdmin",
      "outputs": [
        {
          "internalType": "bytes32",
          "name": "",
          "type": "bytes32"
        }
      ],
      "stateMutability": "view",
      "type": "function"
    },
    {
      "inputs": [
        {
          "internalType": "bytes32",
          "name": "role",
          "type": "bytes32"
        },
        {
          "internalType": "uint256",
          "name": "index",
          "type": "uint256"
        }
      ],
      "name": "getRoleMember",
      "outputs": [
        {
          "internalType": "address",
          "name": "",
          "type": "address"
        }
      ],
      "stateMutability": "view",
      "type": "function"
    },
    {
      "inputs": [
        {
          "internalType": "bytes32",
          "name": "role",
          "type": "bytes32"
        }
      ],
      "name": "getRoleMemberCount",
      "outputs": [
        {
          "internalType": "uint256",
          "name": "",
          "type": "uint256"
        }
      ],
      "stateMutability": "view",
      "type": "function"
    },
    {
      "inputs": [
        {
          "internalType": "bytes32",
          "name": "role",
          "type": "bytes32"
        },
        {
          "internalType": "address",
          "name": "account",
          "type": "address"
        }
      ],
      "name": "grantRole",
      "outputs": [],
      "stateMutability": "nonpayable",
      "type": "function"
    },
    {
      "inputs": [
        {
          "internalType": "bytes32",
          "name": "role",
          "type": "bytes32"
        },
        {
          "internalType": "address",
          "name": "account",
          "type": "address"
        }
      ],
      "name": "hasRole",
      "outputs": [
        {
          "internalType": "bool",
          "name": "",
          "type": "bool"
        }
      ],
      "stateMutability": "view",
      "type": "function"
    },
    {
      "inputs": [
        {
          "internalType": "uint256",
          "name": "_period",
          "type": "uint256"
        },
        {
          "internalType": "address[]",
          "name": "_operators",
          "type": "address[]"
        },
        {
          "components": [
            {
              "internalType": "uint8",
              "name": "v",
              "type": "uint8"
            },
            {
              "internalType": "bytes32",
              "name": "r",
              "type": "bytes32"
            },
            {
              "internalType": "bytes32",
              "name": "s",
              "type": "bytes32"
            }
          ],
          "internalType": "struct SignatureConsumer.Signature[]",
          "name": "_signatures",
          "type": "tuple[]"
        }
      ],
      "name": "relayBridgeOperators",
      "outputs": [],
      "stateMutability": "nonpayable",
      "type": "function"
    },
    {
      "inputs": [
        {
          "components": [
            {
              "internalType": "uint256",
              "name": "nonce",
              "type": "uint256"
            },
            {
              "internalType": "enum GlobalProposal.TargetOption[]",
              "name": "targetOptions",
              "type": "uint8[]"
            },
            {
              "internalType": "uint256[]",
              "name": "values",
              "type": "uint256[]"
            },
            {
              "internalType": "bytes[]",
              "name": "calldatas",
              "type": "bytes[]"
            },
            {
              "internalType": "uint256[]",
              "name": "gasAmounts",
              "type": "uint256[]"
            }
          ],
          "internalType": "struct GlobalProposal.GlobalProposalDetail",
          "name": "_globalProposal",
          "type": "tuple"
        },
        {
          "internalType": "enum Ballot.VoteType[]",
          "name": "_supports",
          "type": "uint8[]"
        },
        {
          "components": [
            {
              "internalType": "uint8",
              "name": "v",
              "type": "uint8"
            },
            {
              "internalType": "bytes32",
              "name": "r",
              "type": "bytes32"
            },
            {
              "internalType": "bytes32",
              "name": "s",
              "type": "bytes32"
            }
          ],
          "internalType": "struct SignatureConsumer.Signature[]",
          "name": "_signatures",
          "type": "tuple[]"
        }
      ],
      "name": "relayGlobalProposal",
      "outputs": [],
      "stateMutability": "nonpayable",
      "type": "function"
    },
    {
      "inputs": [
        {
          "components": [
            {
              "internalType": "uint256",
              "name": "nonce",
              "type": "uint256"
            },
            {
              "internalType": "uint256",
              "name": "chainId",
              "type": "uint256"
            },
            {
              "internalType": "address[]",
              "name": "targets",
              "type": "address[]"
            },
            {
              "internalType": "uint256[]",
              "name": "values",
              "type": "uint256[]"
            },
            {
              "internalType": "bytes[]",
              "name": "calldatas",
              "type": "bytes[]"
            },
            {
              "internalType": "uint256[]",
              "name": "gasAmounts",
              "type": "uint256[]"
            }
          ],
          "internalType": "struct Proposal.ProposalDetail",
          "name": "_proposal",
          "type": "tuple"
        },
        {
          "internalType": "enum Ballot.VoteType[]",
          "name": "_supports",
          "type": "uint8[]"
        },
        {
          "components": [
            {
              "internalType": "uint8",
              "name": "v",
              "type": "uint8"
            },
            {
              "internalType": "bytes32",
              "name": "r",
              "type": "bytes32"
            },
            {
              "internalType": "bytes32",
              "name": "s",
              "type": "bytes32"
            }
          ],
          "internalType": "struct SignatureConsumer.Signature[]",
          "name": "_signatures",
          "type": "tuple[]"
        }
      ],
      "name": "relayProposal",
      "outputs": [],
      "stateMutability": "nonpayable",
      "type": "function"
    },
    {
      "inputs": [
        {
          "internalType": "bytes32",
          "name": "role",
          "type": "bytes32"
        },
        {
          "internalType": "address",
          "name": "account",
          "type": "address"
        }
      ],
      "name": "renounceRole",
      "outputs": [],
      "stateMutability": "nonpayable",
      "type": "function"
    },
    {
      "inputs": [
        {
          "internalType": "bytes32",
          "name": "role",
          "type": "bytes32"
        },
        {
          "internalType": "address",
          "name": "account",
          "type": "address"
        }
      ],
      "name": "revokeRole",
      "outputs": [],
      "stateMutability": "nonpayable",
      "type": "function"
    },
    {
      "inputs": [],
      "name": "roninTrustedOrganizationContract",
      "outputs": [
        {
          "internalType": "address",
          "name": "",
          "type": "address"
        }
      ],
      "stateMutability": "view",
      "type": "function"
    },
    {
      "inputs": [
        {
          "internalType": "uint256",
          "name": "",
          "type": "uint256"
        }
      ],
      "name": "round",
      "outputs": [
        {
          "internalType": "uint256",
          "name": "",
          "type": "uint256"
        }
      ],
      "stateMutability": "view",
      "type": "function"
    },
    {
      "inputs": [
        {
          "internalType": "address",
          "name": "_addr",
          "type": "address"
        }
      ],
      "name": "setBridgeContract",
      "outputs": [],
      "stateMutability": "nonpayable",
      "type": "function"
    },
    {
      "inputs": [
        {
          "internalType": "address",
          "name": "_addr",
          "type": "address"
        }
      ],
      "name": "setRoninTrustedOrganizationContract",
      "outputs": [],
      "stateMutability": "nonpayable",
      "type": "function"
    },
    {
      "inputs": [
        {
          "internalType": "bytes4",
          "name": "interfaceId",
          "type": "bytes4"
        }
      ],
      "name": "supportsInterface",
      "outputs": [
        {
          "internalType": "bool",
          "name": "",
          "type": "bool"
        }
      ],
      "stateMutability": "view",
      "type": "function"
    },
    {
      "inputs": [
        {
          "internalType": "uint256",
          "name": "",
          "type": "uint256"
        },
        {
          "internalType": "uint256",
          "name": "",
          "type": "uint256"
        }
      ],
      "name": "vote",
      "outputs": [
        {
          "internalType": "enum VoteStatusConsumer.VoteStatus",
          "name": "status",
          "type": "uint8"
        },
        {
          "internalType": "bytes32",
          "name": "hash",
          "type": "bytes32"
        },
        {
          "internalType": "uint256",
          "name": "againstVoteWeight",
          "type": "uint256"
        },
        {
          "internalType": "uint256",
          "name": "forVoteWeight",
          "type": "uint256"
        }
      ],
      "stateMutability": "view",
      "type": "function"
    }
  ],
  "transactionHash": "0xa1f3e58c8e61e5a93cfaee1a4d9b92ee257a7c9d3f943abb8c2af9379fb514d7",
  "args": [
    "0xC37b5d7891D73F2064B0eE044844e053872Ef941",
    "0xA6edA3797569465B45dfca839F0A1454a449CD4e",
    "0xFc4319Ae9e6134C708b88D5Ad5Da1A4a83372502",
    [
      "0xC37b5d7891D73F2064B0eE044844e053872Ef941"
    ]
  ],
  "numDeployments": 3,
  "solcInputHash": "1d53902dd90cd91eebd679fc038e76a6",
  "bytecode": "0x60806040523480156200001157600080fd5b506040516200414c3803806200414c833981016040819052620000349162000489565b82827ff8704f8860d9e985bf6c52ec4738bd10fe31487599b36c0944f746ea09dc256b60001b7f599a80fcaa47b95e2323ab4d34d34e0cc9feda4b843edafcc30c7bdf60ea15bf7f7e7935007966eb860f4a2ee3dcc9fd53fb3205ce2aa86b0126d4893d4d4c14b97fc89efdaa54c0f20c7adf612882df0950f5a951637e0307cdcb4c672f298b8bc66107e46040516020016200010f919060408082526016908201527f524f4e494e5f474f5645524e414e43455f41444d494e00000000000000000000606082015261ffff91909116602082015260800190565b60408051601f198184030181528282528051602091820120908301959095528101929092526060820152608081019190915260a0016040516020818303038152906040528051906020012014620001ac5760405162461bcd60e51b815260206004820152601f60248201527f476f7665726e616e636541646d696e3a20696e76616c696420646f6d61696e00604482015260640160405180910390fd5b620001b7826200024d565b620001c281620002a2565b50620001d29050600085620002f1565b60005b815181101562000242576200022d7fe2b7fb3b832174769106daebcfd6d1970523240dda11281102db9363b83b0dc483838151811062000219576200021962000594565b60200260200101516200030160201b60201c565b806200023981620005aa565b915050620001d5565b5050505050620005d4565b600480546001600160a01b0319166001600160a01b0383169081179091556040519081527ffd6f5f93d69a07c593a09be0b208bff13ab4ffd6017df3b33433d63bdc59b4d7906020015b60405180910390a150565b600580546001600160a01b0319166001600160a01b0383169081179091556040519081527f5cbd8a0bb00196365d5eb3457c6734e7f06666c3c78e5469b4c9deec7edae0489060200162000297565b620002fd828262000301565b5050565b6200031882826200034460201b620009b41760201c565b60008281526001602090815260409091206200033f91839062000a38620003e4821b17901c565b505050565b6000828152602081815260408083206001600160a01b038516845290915290205460ff16620002fd576000828152602081815260408083206001600160a01b03851684529091529020805460ff19166001179055620003a03390565b6001600160a01b0316816001600160a01b0316837f2f8788117e7eff1d82e926ec794901d17c78024a50270940304540a733656f0d60405160405180910390a45050565b6000620003fb836001600160a01b03841662000404565b90505b92915050565b60008181526001830160205260408120546200044d57508154600181810184556000848152602080822090930184905584548482528286019093526040902091909155620003fe565b506000620003fe565b80516001600160a01b03811681146200046e57600080fd5b919050565b634e487b7160e01b600052604160045260246000fd5b60008060008060808587031215620004a057600080fd5b620004ab8562000456565b93506020620004bc81870162000456565b9350620004cc6040870162000456565b60608701519093506001600160401b0380821115620004ea57600080fd5b818801915088601f830112620004ff57600080fd5b81518181111562000514576200051462000473565b8060051b604051601f19603f830116810181811085821117156200053c576200053c62000473565b60405291825284820192508381018501918b8311156200055b57600080fd5b938501935b828510156200058457620005748562000456565b8452938501939285019262000560565b989b979a50959850505050505050565b634e487b7160e01b600052603260045260246000fd5b6000600019821415620005cd57634e487b7160e01b600052601160045260246000fd5b5060010190565b613b6880620005e46000396000f3fe608060405234801561001057600080fd5b506004361061014d5760003560e01c80639010d07c116100c3578063ca15c8731161007c578063ca15c87314610326578063cd59658314610339578063d547741f1461034a578063d5918e611461035d578063eeb6adda14610370578063f3b7dead1461038357600080fd5b80639010d07c1461027d57806391d1485414610290578063926d7d7f146102a3578063a217fddf146102b8578063b384abef146102c0578063b5e337de1461031357600080fd5b80632f2ff15d116101155780632f2ff15d146101fe57806334d5f37b146102115780633644e5151461023157806336568abe146102465780635511cde1146102595780637eff275e1461026a57600080fd5b806301ffc9a71461015257806309ff2cb61461017a5780630b26cf661461018f578063204e1c7a146101a2578063248a9ca3146101cd575b600080fd5b610165610160366004612d35565b610396565b60405190151581526020015b60405180910390f35b61018d610188366004612dee565b6103c1565b005b61018d61019d366004612e9f565b61041c565b6101b56101b0366004612e9f565b610450565b6040516001600160a01b039091168152602001610171565b6101f06101db366004612ebc565b60009081526020819052604090206001015490565b604051908152602001610171565b61018d61020c366004612ed5565b610542565b6101f061021f366004612ebc565b60026020526000908152604090205481565b6101f0600080516020613b1383398151915281565b61018d610254366004612ed5565b61056c565b6004546001600160a01b03166101b5565b61018d610278366004612f05565b6105ea565b6101b561028b366004612f33565b610716565b61016561029e366004612ed5565b610735565b6101f0600080516020613af383398151915281565b6101f0600081565b6103036102ce366004612f33565b60036020818152600093845260408085209091529183529120805460018201546002830154929093015460ff90911692919084565b6040516101719493929190612f6b565b61018d610321366004612e9f565b61075e565b6101f0610334366004612ebc565b610786565b6005546001600160a01b03166101b5565b61018d610358366004612ed5565b61079d565b61018d61036b366004612f9b565b6107c2565b61018d61037e366004612fd1565b6108b2565b6101b5610391366004612e9f565b6108e7565b60006001600160e01b03198216635a05180f60e01b14806103bb57506103bb82610a4d565b92915050565b600080516020613af38339815191526103d981610a82565b6104148686868686600080516020613b138339815191526104026004546001600160a01b031690565b6005546001600160a01b031633610a8c565b505050505050565b3330146104445760405162461bcd60e51b815260040161043b90613014565b60405180910390fd5b61044d81610af7565b50565b6000806000836001600160a01b031660405161047690635c60da1b60e01b815260040190565b600060405180830381855afa9150503d80600081146104b1576040519150601f19603f3d011682016040523d82523d6000602084013e6104b6565b606091505b5091509150816105265760405162461bcd60e51b815260206004820152603560248201527f476f7665726e616e636541646d696e3a2070726f78792063616c6c2060696d706044820152741b195b595b9d185d1a5bdb8a0a580819985a5b1959605a1b606482015260840161043b565b8080602001905181019061053a919061305b565b949350505050565b60008281526020819052604090206001015461055d81610a82565b6105678383610b4c565b505050565b6001600160a01b03811633146105dc5760405162461bcd60e51b815260206004820152602f60248201527f416363657373436f6e74726f6c3a2063616e206f6e6c792072656e6f756e636560448201526e103937b632b9903337b91039b2b63360891b606482015260840161043b565b6105e68282610b6e565b5050565b3330146106095760405162461bcd60e51b815260040161043b90613014565b604080516001600160a01b0383811660248084019190915283518084039091018152604490920183526020820180516001600160e01b03166308f2839760e41b179052915160009285169161065d916130a8565b6000604051808303816000865af19150503d806000811461069a576040519150601f19603f3d011682016040523d82523d6000602084013e61069f565b606091505b50509050806105675760405162461bcd60e51b815260206004820152603960248201527f476f7665726e616e636541646d696e3a2070726f78792063616c6c206063686160448201527f6e676541646d696e28616464726573732960206661696c656400000000000000606482015260840161043b565b600082815260016020526040812061072e9083610b90565b9392505050565b6000918252602082815260408084206001600160a01b0393909316845291905290205460ff1690565b33301461077d5760405162461bcd60e51b815260040161043b90613014565b61044d81610b9c565b60008181526001602052604081206103bb90610bea565b6000828152602081905260409020600101546107b881610a82565b6105678383610b6e565b600080516020613af38339815191526107da81610a82565b6107fe858585858a6107ea610bf4565b600080516020613b13833981519152610d60565b6005546001600160a01b03166001600160a01b0316634bb5274a63901d627760e01b87876040516024016108339291906130c4565b60408051601f198184030181529181526020820180516001600160e01b03166001600160e01b03199485161790525160e084901b90921682526108789160040161313e565b600060405180830381600087803b15801561089257600080fd5b505af11580156108a6573d6000803e3d6000fd5b50505050505050505050565b600080516020613af38339815191526108ca81610a82565b6104148686868686600080516020613b1383398151915233611104565b6000806000836001600160a01b031660405161090d906303e1469160e61b815260040190565b600060405180830381855afa9150503d8060008114610948576040519150601f19603f3d011682016040523d82523d6000602084013e61094d565b606091505b5091509150816105265760405162461bcd60e51b815260206004820152602c60248201527f476f7665726e616e636541646d696e3a2070726f78792063616c6c206061646d60448201526b1a5b8a0a580819985a5b195960a21b606482015260840161043b565b6109be8282610735565b6105e6576000828152602081815260408083206001600160a01b03851684529091529020805460ff191660011790556109f43390565b6001600160a01b0316816001600160a01b0316837f2f8788117e7eff1d82e926ec794901d17c78024a50270940304540a733656f0d60405160405180910390a45050565b600061072e836001600160a01b038416611164565b60006001600160e01b03198216637965db0b60e01b14806103bb57506301ffc9a760e01b6001600160e01b03198316146103bb565b61044d81336111b3565b6000610aa2610a9a8b6133b8565b858585611217565b5090506000610ab8610ab38c6133b8565b6112f4565b9050610aea828b8b8b8b610ad68c610ad1896000611462565b6114b8565b610ae58d610ad18a6001611462565b6114df565b5050505050505050505050565b600580546001600160a01b0319166001600160a01b0383169081179091556040519081527f5cbd8a0bb00196365d5eb3457c6734e7f06666c3c78e5469b4c9deec7edae048906020015b60405180910390a150565b610b5682826109b4565b60008281526001602052604090206105679082610a38565b610b788282611991565b600082815260016020526040902061056790826119f6565b600061072e8383611a0b565b600480546001600160a01b0319166001600160a01b0383169081179091556040519081527ffd6f5f93d69a07c593a09be0b208bff13ab4ffd6017df3b33433d63bdc59b4d790602001610b41565b60006103bb825490565b6000806000610c0b6004546001600160a01b031690565b6040805160048152602480820183526020820180516001600160e01b0316637de5dedd60e01b17905291516001600160a01b039390931692634bb5274a92610c5492910161313e565b6040516020818303038152906040529060e01b6020820180516001600160e01b038381831617835250505050604051610c8d91906130a8565b600060405180830381855afa9150503d8060008114610cc8576040519150601f19603f3d011682016040523d82523d6000602084013e610ccd565b606091505b509150915081610d455760405162461bcd60e51b815260206004820152603860248201527f476f7665726e616e636541646d696e3a2070726f78792063616c6c20606d696e60448201527f696d756d566f7465576569676874282960206661696c65640000000000000000606482015260840161043b565b80806020019051810190610d599190613478565b9250505090565b6006548311610dc75760405162461bcd60e51b815260206004820152602d60248201527f424f73476f7665726e616e636552656c61793a20717565727920666f72206f7560448201526c1d19185d1959081c195c9a5bd9609a1b606482015260840161043b565b8515801590610dd557508315155b610e325760405162461bcd60e51b815260206004820152602860248201527f424f73476f7665726e616e636552656c61793a20696e76616c696420617272616044820152670f240d8cadccee8d60c31b606482015260840161043b565b6040805160608101825260008082526020820181905291810182905290856001600160401b03811115610e6757610e67613151565b604051908082528060200260200182016040528015610e90578160200160208202803683370190505b509050600080610ed3878c8c80806020026020016040519081016040528093929190818152602001838360200280828437600092019190915250611a3592505050565b90506000610ee186836114b8565b905060005b89811015611015578a8a82818110610f0057610f00613491565b905060600201803603810190610f1691906134a7565b9550610f3082876000015188602001518960400151611a96565b858281518110610f4257610f42613491565b60200260200101906001600160a01b031690816001600160a01b031681525050848181518110610f7457610f74613491565b60200260200101516001600160a01b0316846001600160a01b031610610fe65760405162461bcd60e51b815260206004820152602160248201527f424f73476f7665726e616e636552656c61793a20696e76616c6964206f7264656044820152603960f91b606482015260840161043b565b848181518110610ff857610ff8613491565b60200260200101519350808061100d90613524565b915050610ee6565b5060008881526007602052604081209061102e86611abe565b90508881106110b357600081116110975760405162461bcd60e51b815260206004820152602760248201527f424f73476f7665726e616e636552656c61793a20696e76616c696420766f7465604482015266081dd95a59da1d60ca1b606482015260840161043b565b50805460ff191660011790555050506006859055506110fb9050565b60405162461bcd60e51b815260206004820181905260248201527f424f73476f7665726e616e636552656c61793a2072656c6179206661696c6564604482015260640161043b565b50505050505050565b611116611110886135a3565b82611c59565b50600061112a611125896135a3565b611d35565b905061115a611138896135a3565b8888888861114b89610ad1896000611462565b610ae58a610ad18a6001611462565b5050505050505050565b60008181526001830160205260408120546111ab575081546001818101845560008481526020808220909301849055845484825282860190935260409020919091556103bb565b5060006103bb565b6111bd8282610735565b6105e6576111d5816001600160a01b03166014611e8f565b6111e0836020611e8f565b6040516020016111f192919061366d565b60408051601f198184030181529082905262461bcd60e51b825261043b9160040161313e565b6112506040518060c001604052806000815260200160008152602001606081526020016060815260200160608152602001606081525090565b600061125d86868661202a565b91506112688261221e565b600061127383611d35565b90506112806000826122b2565b835190925082146112a35760405162461bcd60e51b815260040161043b906136e2565b80827fedacddc6fe3387cd527f9ac55848b2e48a439a02270ed36e053a8065169b99c2856112d08b6112f4565b8b896040516112e29493929190613880565b60405180910390a35094509492505050565b6000806000806000808660400151905060008760200151905060008860600151516001600160401b0381111561132c5761132c613151565b604051908082528060200260200182016040528015611355578160200160208202803683370190505b5060808a015190915060005b82518110156113be578a60600151818151811061138057611380613491565b6020026020010151805190602001208382815181106113a1576113a1613491565b6020908102919091010152806113b681613524565b915050611361565b5082516020908102818501208551820286830120845183028584012084518402858501208e51604080517fdb316eb400de2ddff92ab4255c0cd3cba634cd5236b93386ed9328b7d822d1c797810197909752860152606085018490526080850183905260a0850182905260c08501819052929b509099509750955060e0015b6040516020818303038152906040528051906020012098505050505050505050919050565b60405160009061149a907fd900570327c4c0df8dd6bdd522b7da7e39145dd049d2fd4602276adcd511e3c2908590859060200161395b565b60405160208183030381529060405280519060200120905092915050565b60405161190160f01b6020820152602281018390526042810182905260009060620161149a565b84158015906114ed57508483145b6115475760405162461bcd60e51b815260206004820152602560248201527f476f7665726e616e636552656c61793a20696e76616c6964206172726179206c6044820152640cadccee8d60db1b606482015260840161043b565b60008080856001600160401b0381111561156357611563613151565b60405190808252806020026020018201604052801561158c578160200160208202803683370190505b5090506000866001600160401b038111156115a9576115a9613151565b6040519080825280602002602001820160405280156115d2578160200160208202803683370190505b5060408051606081018252600080825260208201819052918101829052919250908190819060005b8b8110156117f5578c8c8281811061161457611614613491565b90506060020180360381019061162a91906134a7565b91508e8e8281811061163e5761163e613491565b90506020020160208101906116539190613980565b9250600083600181111561166957611669612f55565b14156116cc576116878b836000015184602001518560400151611a96565b945084878a61169581613524565b9b50815181106116a7576116a7613491565b60200260200101906001600160a01b031690816001600160a01b03168152505061177f565b60018360018111156116e0576116e0612f55565b141561171e576116fe8a836000015184602001518560400151611a96565b945084868961170c81613524565b9a50815181106116a7576116a7613491565b60405162461bcd60e51b815260206004820152603060248201527f476f7665726e616e636552656c61793a20717565727920666f7220756e73757060448201526f706f7274656420766f7465207479706560801b606482015260840161043b565b846001600160a01b0316846001600160a01b0316106117e05760405162461bcd60e51b815260206004820152601e60248201527f476f7665726e616e636552656c61793a20696e76616c6964206f726465720000604482015260640161043b565b849350806117ed81613524565b9150506115fa565b50505085845250508281526020808c015160009081526003825260408082208e51835290925290812090611827610bf4565b90506000611834856123a5565b90508181106118ac576000811161185d5760405162461bcd60e51b815260040161043b9061399d565b825460ff1916600190811784558301546040517f5c819725ea53655a3b898f3df59b66489761935454e9212ca1e5ebd759953d0b90600090a26118a0838f612529565b505050505050506110fb565b6000826118b7612596565b6118c191906139e1565b6118cc9060016139f8565b905060006118d9866123a5565b905081811061194957600081116119025760405162461bcd60e51b815260040161043b9061399d565b845460ff1916600317855560018501546040517f55295d4ce992922fa2e5ffbf3a3dcdb367de0a15e125ace083456017fd22060f90600090a25050505050505050506110fb565b60405162461bcd60e51b815260206004820152601d60248201527f476f7665726e616e636552656c61793a2072656c6179206661696c6564000000604482015260640161043b565b61199b8282610735565b156105e6576000828152602081815260408083206001600160a01b0385168085529252808320805460ff1916905551339285917ff6391f5c32d9c69d2a47ea670b442974b53935d1edc7fd64eb21e047a839171b9190a45050565b600061072e836001600160a01b0384166126dd565b6000826000018281548110611a2257611a22613491565b9060005260206000200154905092915050565b8051602090810291810191909120604080517feea5e3908ac28cbdbbce8853e49444c558a0a03597e98ef19e6ff86162ed9ae38185015280820194909452606080850192909252805180850390920182526080909301909252815191012090565b6000806000611aa7878787876127d0565b91509150611ab4816128bd565b5095945050505050565b6000806000611ad56004546001600160a01b031690565b6001600160a01b0316634bb5274a63d9d5dadb60e01b86604051602401611afc9190613a10565b60408051601f198184030181529181526020820180516001600160e01b03166001600160e01b0319909416939093179092529051611b3d919060240161313e565b6040516020818303038152906040529060e01b6020820180516001600160e01b038381831617835250505050604051611b7691906130a8565b600060405180830381855afa9150503d8060008114611bb1576040519150601f19603f3d011682016040523d82523d6000602084013e611bb6565b606091505b509150915081611c455760405162461bcd60e51b815260206004820152604e60248201527f4d61696e636861696e476f7665726e616e636541646d696e3a2070726f78792060448201527f63616c6c206073756d427269646765566f74657257656967687473286164647260648201526d195cdcd6d74a580819985a5b195960921b608482015260a40161043b565b8080602001905181019061053a9190613478565b602082015160009080611cae5760405162461bcd60e51b815260206004820181905260248201527f436f7265476f7665726e616e63653a20696e76616c696420636861696e206964604482015260640161043b565b611cb78461221e565b6000611cc285611d35565b9050611cce82826122b2565b85519093508314611cf15760405162461bcd60e51b815260040161043b906136e2565b8083837f0861aae3a90b957953a30ca9779a1e27af2feeca4205ae2e45cdd5842468a26d8888604051611d25929190613a23565b60405180910390a4505092915050565b6000806000806000808660600151905060008760400151905060008860800151516001600160401b03811115611d6d57611d6d613151565b604051908082528060200260200182016040528015611d96578160200160208202803683370190505b5060a08a015190915060005b8251811015611dff578a608001518181518110611dc157611dc1613491565b602002602001015180519060200120838281518110611de257611de2613491565b602090810291909101015280611df781613524565b915050611da2565b5082516020908102848201208551820286830120845183028584012084518402858501208e518f860151604080517f65526afa953b4e935ecd640e6905741252eedae157e79c37331ee8103c70019d9881019890985287019190915260608601526080850184905260a0850183905260c0850182905260e08501819052929b50909950975095506101000161143d565b60606000611e9e836002613a4d565b611ea99060026139f8565b6001600160401b03811115611ec057611ec0613151565b6040519080825280601f01601f191660200182016040528015611eea576020820181803683370190505b509050600360fc1b81600081518110611f0557611f05613491565b60200101906001600160f81b031916908160001a905350600f60fb1b81600181518110611f3457611f34613491565b60200101906001600160f81b031916908160001a9053506000611f58846002613a4d565b611f639060016139f8565b90505b6001811115611fdb576f181899199a1a9b1b9c1cb0b131b232b360811b85600f1660108110611f9757611f97613491565b1a60f81b828281518110611fad57611fad613491565b60200101906001600160f81b031916908160001a90535060049490941c93611fd481613a6c565b9050611f66565b50831561072e5760405162461bcd60e51b815260206004820181905260248201527f537472696e67733a20686578206c656e67746820696e73756666696369656e74604482015260640161043b565b6120636040518060c001604052806000815260200160008152602001606081526020016060815260200160608152602001606081525090565b835181526000602080830191909152840151516001600160401b0381111561208d5761208d613151565b6040519080825280602002602001820160405280156120b6578160200160208202803683370190505b5060408083019190915284015160608083019190915284015160808083019190915284015160a082015260005b8460200151518110156122165760018560200151828151811061210857612108613491565b6020026020010151600181111561212157612121612f55565b141561216357828260400151828151811061213e5761213e613491565b60200260200101906001600160a01b031690816001600160a01b031681525050612204565b60008560200151828151811061217b5761217b613491565b6020026020010151600181111561219457612194612f55565b14156121b157838260400151828151811061213e5761213e613491565b60405162461bcd60e51b815260206004820152602260248201527f476c6f62616c50726f706f73616c3a20756e737570706f727465642074617267604482015261195d60f21b606482015260840161043b565b8061220e81613524565b9150506120e3565b509392505050565b600081604001515111801561223c5750806060015151816040015151145b80156122515750806080015151816040015151145b801561226657508060a0015151816040015151145b61044d5760405162461bcd60e51b815260206004820152601e60248201527f50726f706f73616c3a20696e76616c6964206172726179206c656e6774680000604482015260640161043b565b6000828152600260205260408120805490826122cd83613524565b909155509050801561236e57600083815260036020818152604080842085855290915282205460ff169081111561230657612306612f55565b141561236e5760405162461bcd60e51b815260206004820152603160248201527f436f7265476f7665726e616e63653a2063757272656e742070726f706f73616c604482015270081a5cc81b9bdd0818dbdb5c1b195d1959607a1b606482015260840161043b565b6000838152600360205260408120839161238784613524565b93508381526020019081526020016000206001018190555092915050565b60008060006123bc6004546001600160a01b031690565b6001600160a01b0316634bb5274a635f14a1c360e01b866040516024016123e39190613a10565b60408051601f198184030181529181526020820180516001600160e01b03166001600160e01b0319909416939093179092529051612424919060240161313e565b6040516020818303038152906040529060e01b6020820180516001600160e01b03838183161783525050505060405161245d91906130a8565b600060405180830381855afa9150503d8060008114612498576040519150601f19603f3d011682016040523d82523d6000602084013e61249d565b606091505b509150915081611c455760405162461bcd60e51b815260206004820152604b60248201527f4d61696e636861696e476f7665726e616e636541646d696e3a2070726f78792060448201527f63616c6c206073756d476f7665726e6f7257656967687473286164647265737360648201526a16d74a580819985a5b195960aa1b608482015260a40161043b565b61253281612a78565b156105e657815460ff1916600217825560008061254e83612a92565b9150915083600101547fe134987599ae266ec90edeff1b26125b287dbb57b10822649432d1bb26537fba8383604051612588929190613a83565b60405180910390a250505050565b60008060006125ad6004546001600160a01b031690565b6040805160048152602480820183526020820180516001600160e01b031663926323d560e01b17905291516001600160a01b039390931692634bb5274a926125f692910161313e565b6040516020818303038152906040529060e01b6020820180516001600160e01b03838183161783525050505060405161262f91906130a8565b600060405180830381855afa9150503d806000811461266a576040519150601f19603f3d011682016040523d82523d6000602084013e61266f565b606091505b509150915081610d455760405162461bcd60e51b815260206004820152603360248201527f476f7665726e616e636541646d696e3a2070726f78792063616c6c2060746f74604482015272185b15d95a59da1d1cca0a580819985a5b1959606a1b606482015260840161043b565b600081815260018301602052604081205480156127c65760006127016001836139e1565b8554909150600090612715906001906139e1565b905081811461277a57600086600001828154811061273557612735613491565b906000526020600020015490508087600001848154811061275857612758613491565b6000918252602080832090910192909255918252600188019052604090208390555b855486908061278b5761278b613adc565b6001900381819060005260206000200160009055905585600101600086815260200190815260200160002060009055600193505050506103bb565b60009150506103bb565b6000807f7fffffffffffffffffffffffffffffff5d576e7357a4501ddfe92f46681b20a083111561280757506000905060036128b4565b8460ff16601b1415801561281f57508460ff16601c14155b1561283057506000905060046128b4565b6040805160008082526020820180845289905260ff881692820192909252606081018690526080810185905260019060a0016020604051602081039080840390855afa158015612884573d6000803e3d6000fd5b5050604051601f1901519150506001600160a01b0381166128ad576000600192509250506128b4565b9150600090505b94509492505050565b60008160048111156128d1576128d1612f55565b14156128da5750565b60018160048111156128ee576128ee612f55565b141561293c5760405162461bcd60e51b815260206004820152601860248201527f45434453413a20696e76616c6964207369676e61747572650000000000000000604482015260640161043b565b600281600481111561295057612950612f55565b141561299e5760405162461bcd60e51b815260206004820152601f60248201527f45434453413a20696e76616c6964207369676e6174757265206c656e67746800604482015260640161043b565b60038160048111156129b2576129b2612f55565b1415612a0b5760405162461bcd60e51b815260206004820152602260248201527f45434453413a20696e76616c6964207369676e6174757265202773272076616c604482015261756560f01b606482015260840161043b565b6004816004811115612a1f57612a1f612f55565b141561044d5760405162461bcd60e51b815260206004820152602260248201527f45434453413a20696e76616c6964207369676e6174757265202776272076616c604482015261756560f01b606482015260840161043b565b60008160200151600014806103bb57505060200151461490565b606080612a9e83612a78565b612af65760405162461bcd60e51b815260206004820152602360248201527f50726f706f73616c3a20717565727920666f7220696e76616c696420636861696044820152621b925960ea1b606482015260840161043b565b8260400151516001600160401b03811115612b1357612b13613151565b604051908082528060200260200182016040528015612b3c578160200160208202803683370190505b5091508260400151516001600160401b03811115612b5c57612b5c613151565b604051908082528060200260200182016040528015612b8f57816020015b6060815260200190600190039081612b7a5790505b50905060005b836040015151811015612d2f578360a001518181518110612bb857612bb8613491565b60200260200101515a11612c0e5760405162461bcd60e51b815260206004820152601a60248201527f50726f706f73616c3a20696e73756666696369656e7420676173000000000000604482015260640161043b565b83604001518181518110612c2457612c24613491565b60200260200101516001600160a01b031684606001518281518110612c4b57612c4b613491565b60200260200101518560a001518381518110612c6957612c69613491565b60200260200101519086608001518481518110612c8857612c88613491565b6020026020010151604051612c9d91906130a8565b600060405180830381858888f193505050503d8060008114612cdb576040519150601f19603f3d011682016040523d82523d6000602084013e612ce0565b606091505b50848381518110612cf357612cf3613491565b60200260200101848481518110612d0c57612d0c613491565b60209081029190910101919091529015159052612d2881613524565b9050612b95565b50915091565b600060208284031215612d4757600080fd5b81356001600160e01b03198116811461072e57600080fd5b60008083601f840112612d7157600080fd5b5081356001600160401b03811115612d8857600080fd5b6020830191508360208260051b8501011115612da357600080fd5b9250929050565b60008083601f840112612dbc57600080fd5b5081356001600160401b03811115612dd357600080fd5b602083019150836020606083028501011115612da357600080fd5b600080600080600060608688031215612e0657600080fd5b85356001600160401b0380821115612e1d57600080fd5b9087019060a0828a031215612e3157600080fd5b90955060208701359080821115612e4757600080fd5b612e5389838a01612d5f565b90965094506040880135915080821115612e6c57600080fd5b50612e7988828901612daa565b969995985093965092949392505050565b6001600160a01b038116811461044d57600080fd5b600060208284031215612eb157600080fd5b813561072e81612e8a565b600060208284031215612ece57600080fd5b5035919050565b60008060408385031215612ee857600080fd5b823591506020830135612efa81612e8a565b809150509250929050565b60008060408385031215612f1857600080fd5b8235612f2381612e8a565b91506020830135612efa81612e8a565b60008060408385031215612f4657600080fd5b50508035926020909101359150565b634e487b7160e01b600052602160045260246000fd5b6080810160048610612f7f57612f7f612f55565b9481526020810193909352604083019190915260609091015290565b600080600080600060608688031215612fb357600080fd5b8535945060208601356001600160401b0380821115612e4757600080fd5b600080600080600060608688031215612fe957600080fd5b85356001600160401b038082111561300057600080fd5b9087019060c0828a031215612e3157600080fd5b60208082526027908201527f476f7665726e616e636541646d696e3a206f6e6c7920616c6c6f7765642073656040820152661b198b58d85b1b60ca1b606082015260800190565b60006020828403121561306d57600080fd5b815161072e81612e8a565b60005b8381101561309357818101518382015260200161307b565b838111156130a2576000848401525b50505050565b600082516130ba818460208701613078565b9190910192915050565b60208082528181018390526000908460408401835b868110156131075782356130ec81612e8a565b6001600160a01b0316825291830191908301906001016130d9565b509695505050505050565b6000815180845261312a816020860160208601613078565b601f01601f19169290920160200192915050565b60208152600061072e6020830184613112565b634e487b7160e01b600052604160045260246000fd5b60405160a081016001600160401b038111828210171561318957613189613151565b60405290565b60405160c081016001600160401b038111828210171561318957613189613151565b604051601f8201601f191681016001600160401b03811182821017156131d9576131d9613151565b604052919050565b60006001600160401b038211156131fa576131fa613151565b5060051b60200190565b6002811061044d57600080fd5b600082601f83011261322257600080fd5b81356020613237613232836131e1565b6131b1565b82815260059290921b8401810191818101908684111561325657600080fd5b8286015b8481101561310757803561326d81613204565b835291830191830161325a565b600082601f83011261328b57600080fd5b8135602061329b613232836131e1565b82815260059290921b840181019181810190868411156132ba57600080fd5b8286015b8481101561310757803583529183019183016132be565b6000601f83818401126132e757600080fd5b823560206132f7613232836131e1565b82815260059290921b8501810191818101908784111561331657600080fd5b8287015b848110156133ac5780356001600160401b038082111561333a5760008081fd5b818a0191508a603f83011261334f5760008081fd5b8582013560408282111561336557613365613151565b613376828b01601f191689016131b1565b92508183528c8183860101111561338d5760008081fd5b818185018985013750600090820187015284525091830191830161331a565b50979650505050505050565b600060a082360312156133ca57600080fd5b6133d2613167565b8235815260208301356001600160401b03808211156133f057600080fd5b6133fc36838701613211565b6020840152604085013591508082111561341557600080fd5b6134213683870161327a565b6040840152606085013591508082111561343a57600080fd5b613446368387016132d5565b6060840152608085013591508082111561345f57600080fd5b5061346c3682860161327a565b60808301525092915050565b60006020828403121561348a57600080fd5b5051919050565b634e487b7160e01b600052603260045260246000fd5b6000606082840312156134b957600080fd5b604051606081018181106001600160401b03821117156134db576134db613151565b604052823560ff811681146134ef57600080fd5b8152602083810135908201526040928301359281019290925250919050565b634e487b7160e01b600052601160045260246000fd5b60006000198214156135385761353861350e565b5060010190565b600082601f83011261355057600080fd5b81356020613560613232836131e1565b82815260059290921b8401810191818101908684111561357f57600080fd5b8286015b8481101561310757803561359681612e8a565b8352918301918301613583565b600060c082360312156135b557600080fd5b6135bd61318f565b823581526020830135602082015260408301356001600160401b03808211156135e557600080fd5b6135f13683870161353f565b6040840152606085013591508082111561360a57600080fd5b6136163683870161327a565b6060840152608085013591508082111561362f57600080fd5b61363b368387016132d5565b608084015260a085013591508082111561365457600080fd5b506136613682860161327a565b60a08301525092915050565b7f416363657373436f6e74726f6c3a206163636f756e74200000000000000000008152600083516136a5816017850160208801613078565b7001034b99036b4b9b9b4b733903937b6329607d1b60179184019182015283516136d6816028840160208801613078565b01602801949350505050565b60208082526026908201527f436f7265476f7665726e616e63653a20696e76616c69642070726f706f73616c604082015265206e6f6e636560d01b606082015260800190565b600081518084526020808501945080840160005b838110156137615781516001600160a01b03168752958201959082019060010161373c565b509495945050505050565b600081518084526020808501945080840160005b8381101561376157815187529582019590820190600101613780565b600081518084526020808501808196508360051b8101915082860160005b858110156137e45782840389526137d2848351613112565b988501989350908401906001016137ba565b5091979650505050505050565b80518252602081015160208301526000604082015160c0604085015261381a60c0850182613728565b905060608301518482036060860152613833828261376c565b9150506080830151848203608086015261384d828261379c565b91505060a083015184820360a0860152613867828261376c565b95945050505050565b6002811061044d5761044d612f55565b60808152600061389360808301876137f1565b60208381018790528382036040850152855182528581015160a083830181905281519084018190529082019060009060c08501905b808310156138f15783516138db81613870565b82529284019260019290920191908401906138c8565b5060408901519350848103604086015261390b818561376c565b935050505060608601518282036060840152613927828261379c565b91505060808601518282036080840152613941828261376c565b935050505061386760608301846001600160a01b03169052565b838152602081018390526060810161397283613870565b826040830152949350505050565b60006020828403121561399257600080fd5b813561072e81613204565b60208082526024908201527f476f7665726e616e636552656c61793a20696e76616c696420766f74652077656040820152631a59da1d60e21b606082015260800190565b6000828210156139f3576139f361350e565b500390565b60008219821115613a0b57613a0b61350e565b500190565b60208152600061072e6020830184613728565b604081526000613a3660408301856137f1565b905060018060a01b03831660208301529392505050565b6000816000190483118215151615613a6757613a6761350e565b500290565b600081613a7b57613a7b61350e565b506000190190565b604080825283519082018190526000906020906060840190828701845b82811015613abe578151151584529284019290840190600101613aa0565b50505083810382850152613ad2818661379c565b9695505050505050565b634e487b7160e01b600052603160045260246000fdfee2b7fb3b832174769106daebcfd6d1970523240dda11281102db9363b83b0dc4f8704f8860d9e985bf6c52ec4738bd10fe31487599b36c0944f746ea09dc256ba2646970667358221220855481b345571e97728916ee4943ca5f6fb4286d1188a843240f1341a73046fa64736f6c63430008090033",
  "devdoc": {
    "kind": "dev",
    "methods": {
      "bridgeContract()": {
        "details": "Returns the bridge contract."
      },
      "changeProxyAdmin(address,address)": {
        "details": "Changes the admin of `_proxy` to `newAdmin`. Requirements: - This contract must be the current admin of `_proxy`."
      },
      "getProxyAdmin(address)": {
        "details": "Returns the current admin of `_proxy`. Requirements: - This contract must be the admin of `_proxy`."
      },
      "getProxyImplementation(address)": {
        "details": "Returns the current implementation of `_proxy`. Requirements: - This contract must be the admin of `_proxy`."
      },
      "getRoleAdmin(bytes32)": {
        "details": "Returns the admin role that controls `role`. See {grantRole} and {revokeRole}. To change a role's admin, use {_setRoleAdmin}."
      },
      "getRoleMember(bytes32,uint256)": {
        "details": "Returns one of the accounts that have `role`. `index` must be a value between 0 and {getRoleMemberCount}, non-inclusive. Role bearers are not sorted in any particular way, and their ordering may change at any point. WARNING: When using {getRoleMember} and {getRoleMemberCount}, make sure you perform all queries on the same block. See the following https://forum.openzeppelin.com/t/iterating-over-elements-on-enumerableset-in-openzeppelin-contracts/2296[forum post] for more information."
      },
      "getRoleMemberCount(bytes32)": {
        "details": "Returns the number of accounts that have `role`. Can be used together with {getRoleMember} to enumerate all bearers of a role."
      },
      "grantRole(bytes32,address)": {
        "details": "Grants `role` to `account`. If `account` had not been already granted `role`, emits a {RoleGranted} event. Requirements: - the caller must have ``role``'s admin role. May emit a {RoleGranted} event."
      },
      "hasRole(bytes32,address)": {
        "details": "Returns `true` if `account` has been granted `role`."
      },
      "relayBridgeOperators(uint256,address[],(uint8,bytes32,bytes32)[])": {
        "details": "See {BOsGovernanceRelay-_relayVotesBySignatures}. Requirements: - The method caller is relayer."
      },
      "relayGlobalProposal((uint256,uint8[],uint256[],bytes[],uint256[]),uint8[],(uint8,bytes32,bytes32)[])": {
        "details": "See {GovernanceRelay-_relayGlobalProposal}. Requirements: - The method caller is relayer."
      },
      "relayProposal((uint256,uint256,address[],uint256[],bytes[],uint256[]),uint8[],(uint8,bytes32,bytes32)[])": {
        "details": "See {GovernanceRelay-_relayProposal}. Requirements: - The method caller is relayer."
      },
      "renounceRole(bytes32,address)": {
        "details": "Revokes `role` from the calling account. Roles are often managed via {grantRole} and {revokeRole}: this function's purpose is to provide a mechanism for accounts to lose their privileges if they are compromised (such as when a trusted device is misplaced). If the calling account had been revoked `role`, emits a {RoleRevoked} event. Requirements: - the caller must be `account`. May emit a {RoleRevoked} event."
      },
      "revokeRole(bytes32,address)": {
        "details": "Revokes `role` from `account`. If `account` had been granted `role`, emits a {RoleRevoked} event. Requirements: - the caller must have ``role``'s admin role. May emit a {RoleRevoked} event."
      },
      "roninTrustedOrganizationContract()": {
        "details": "Returns the ronin trusted organization contract."
      },
      "setBridgeContract(address)": {
        "details": "Sets the bridge contract. Requirements: - The method caller is admin. - The new address is a contract. Emits the event `BridgeContractUpdated`."
      },
      "setRoninTrustedOrganizationContract(address)": {
        "details": "Sets the ronin trusted organization contract. Requirements: - The method caller is admin. - The new address is a contract. Emits the event `RoninTrustedOrganizationContractUpdated`."
      },
      "supportsInterface(bytes4)": {
        "details": "See {IERC165-supportsInterface}."
      }
    },
    "version": 1
  },
  "userdoc": {
    "kind": "user",
    "methods": {
      "round(uint256)": {
        "notice": "chain id = 0 for global proposal"
      }
    },
    "version": 1
  },
  "storageLayout": {
    "storage": [
      {
        "astId": 24,
        "contract": "contracts/mainchain/MainchainGovernanceAdmin.sol:MainchainGovernanceAdmin",
        "label": "_roles",
        "offset": 0,
        "slot": "0",
        "type": "t_mapping(t_bytes32,t_struct(RoleData)19_storage)"
      },
      {
        "astId": 338,
        "contract": "contracts/mainchain/MainchainGovernanceAdmin.sol:MainchainGovernanceAdmin",
        "label": "_roleMembers",
        "offset": 0,
        "slot": "1",
        "type": "t_mapping(t_bytes32,t_struct(AddressSet)4026_storage)"
      },
      {
        "astId": 7031,
        "contract": "contracts/mainchain/MainchainGovernanceAdmin.sol:MainchainGovernanceAdmin",
        "label": "round",
        "offset": 0,
        "slot": "2",
        "type": "t_mapping(t_uint256,t_uint256)"
      },
      {
        "astId": 7039,
        "contract": "contracts/mainchain/MainchainGovernanceAdmin.sol:MainchainGovernanceAdmin",
        "label": "vote",
        "offset": 0,
        "slot": "3",
        "type": "t_mapping(t_uint256,t_mapping(t_uint256,t_struct(ProposalVote)6962_storage))"
      },
      {
        "astId": 6028,
        "contract": "contracts/mainchain/MainchainGovernanceAdmin.sol:MainchainGovernanceAdmin",
        "label": "_roninTrustedOrganizationContract",
        "offset": 0,
        "slot": "4",
        "type": "t_contract(IRoninTrustedOrganization)9534"
      },
      {
        "astId": 5715,
        "contract": "contracts/mainchain/MainchainGovernanceAdmin.sol:MainchainGovernanceAdmin",
        "label": "_bridgeContract",
        "offset": 0,
        "slot": "5",
        "type": "t_contract(IBridge)8545"
      },
      {
        "astId": 6740,
        "contract": "contracts/mainchain/MainchainGovernanceAdmin.sol:MainchainGovernanceAdmin",
        "label": "_lastSyncedPeriod",
        "offset": 0,
        "slot": "6",
        "type": "t_uint256"
      },
      {
        "astId": 6746,
        "contract": "contracts/mainchain/MainchainGovernanceAdmin.sol:MainchainGovernanceAdmin",
        "label": "_vote",
        "offset": 0,
        "slot": "7",
        "type": "t_mapping(t_uint256,t_struct(IsolatedVote)6394_storage)"
      }
    ],
    "types": {
      "t_address": {
        "encoding": "inplace",
        "label": "address",
        "numberOfBytes": "20"
      },
      "t_array(t_bytes32)dyn_storage": {
        "base": "t_bytes32",
        "encoding": "dynamic_array",
        "label": "bytes32[]",
        "numberOfBytes": "32"
      },
      "t_bool": {
        "encoding": "inplace",
        "label": "bool",
        "numberOfBytes": "1"
      },
      "t_bytes32": {
        "encoding": "inplace",
        "label": "bytes32",
        "numberOfBytes": "32"
      },
      "t_contract(IBridge)8545": {
        "encoding": "inplace",
        "label": "contract IBridge",
        "numberOfBytes": "20"
      },
      "t_contract(IRoninTrustedOrganization)9534": {
        "encoding": "inplace",
        "label": "contract IRoninTrustedOrganization",
        "numberOfBytes": "20"
      },
      "t_enum(VoteStatus)10217": {
        "encoding": "inplace",
        "label": "enum VoteStatusConsumer.VoteStatus",
        "numberOfBytes": "1"
      },
      "t_mapping(t_address,t_bool)": {
        "encoding": "mapping",
        "key": "t_address",
        "label": "mapping(address => bool)",
        "numberOfBytes": "32",
        "value": "t_bool"
      },
      "t_mapping(t_address,t_bytes32)": {
        "encoding": "mapping",
        "key": "t_address",
        "label": "mapping(address => bytes32)",
        "numberOfBytes": "32",
        "value": "t_bytes32"
      },
      "t_mapping(t_address,t_struct(Signature)10209_storage)": {
        "encoding": "mapping",
        "key": "t_address",
        "label": "mapping(address => struct SignatureConsumer.Signature)",
        "numberOfBytes": "32",
        "value": "t_struct(Signature)10209_storage"
      },
      "t_mapping(t_bytes32,t_struct(AddressSet)4026_storage)": {
        "encoding": "mapping",
        "key": "t_bytes32",
        "label": "mapping(bytes32 => struct EnumerableSet.AddressSet)",
        "numberOfBytes": "32",
        "value": "t_struct(AddressSet)4026_storage"
      },
      "t_mapping(t_bytes32,t_struct(RoleData)19_storage)": {
        "encoding": "mapping",
        "key": "t_bytes32",
        "label": "mapping(bytes32 => struct AccessControl.RoleData)",
        "numberOfBytes": "32",
        "value": "t_struct(RoleData)19_storage"
      },
      "t_mapping(t_bytes32,t_uint256)": {
        "encoding": "mapping",
        "key": "t_bytes32",
        "label": "mapping(bytes32 => uint256)",
        "numberOfBytes": "32",
        "value": "t_uint256"
      },
      "t_mapping(t_uint256,t_mapping(t_uint256,t_struct(ProposalVote)6962_storage))": {
        "encoding": "mapping",
        "key": "t_uint256",
        "label": "mapping(uint256 => mapping(uint256 => struct CoreGovernance.ProposalVote))",
        "numberOfBytes": "32",
        "value": "t_mapping(t_uint256,t_struct(ProposalVote)6962_storage)"
      },
      "t_mapping(t_uint256,t_struct(IsolatedVote)6394_storage)": {
        "encoding": "mapping",
        "key": "t_uint256",
        "label": "mapping(uint256 => struct IsolatedGovernance.IsolatedVote)",
        "numberOfBytes": "32",
        "value": "t_struct(IsolatedVote)6394_storage"
      },
      "t_mapping(t_uint256,t_struct(ProposalVote)6962_storage)": {
        "encoding": "mapping",
        "key": "t_uint256",
        "label": "mapping(uint256 => struct CoreGovernance.ProposalVote)",
        "numberOfBytes": "32",
        "value": "t_struct(ProposalVote)6962_storage"
      },
      "t_mapping(t_uint256,t_uint256)": {
        "encoding": "mapping",
        "key": "t_uint256",
        "label": "mapping(uint256 => uint256)",
        "numberOfBytes": "32",
        "value": "t_uint256"
      },
      "t_struct(AddressSet)4026_storage": {
        "encoding": "inplace",
        "label": "struct EnumerableSet.AddressSet",
        "members": [
          {
            "astId": 4025,
            "contract": "contracts/mainchain/MainchainGovernanceAdmin.sol:MainchainGovernanceAdmin",
            "label": "_inner",
            "offset": 0,
            "slot": "0",
            "type": "t_struct(Set)3725_storage"
          }
        ],
        "numberOfBytes": "64"
      },
      "t_struct(IsolatedVote)6394_storage": {
        "encoding": "inplace",
        "label": "struct IsolatedGovernance.IsolatedVote",
        "members": [
          {
            "astId": 6381,
            "contract": "contracts/mainchain/MainchainGovernanceAdmin.sol:MainchainGovernanceAdmin",
            "label": "status",
            "offset": 0,
            "slot": "0",
            "type": "t_enum(VoteStatus)10217"
          },
          {
            "astId": 6383,
            "contract": "contracts/mainchain/MainchainGovernanceAdmin.sol:MainchainGovernanceAdmin",
            "label": "finalHash",
            "offset": 0,
            "slot": "1",
            "type": "t_bytes32"
          },
          {
            "astId": 6388,
            "contract": "contracts/mainchain/MainchainGovernanceAdmin.sol:MainchainGovernanceAdmin",
            "label": "voteHashOf",
            "offset": 0,
            "slot": "2",
            "type": "t_mapping(t_address,t_bytes32)"
          },
          {
            "astId": 6393,
            "contract": "contracts/mainchain/MainchainGovernanceAdmin.sol:MainchainGovernanceAdmin",
            "label": "weight",
            "offset": 0,
            "slot": "3",
            "type": "t_mapping(t_bytes32,t_uint256)"
          }
        ],
        "numberOfBytes": "128"
      },
      "t_struct(ProposalVote)6962_storage": {
        "encoding": "inplace",
        "label": "struct CoreGovernance.ProposalVote",
        "members": [
          {
            "astId": 6942,
            "contract": "contracts/mainchain/MainchainGovernanceAdmin.sol:MainchainGovernanceAdmin",
            "label": "status",
            "offset": 0,
            "slot": "0",
            "type": "t_enum(VoteStatus)10217"
          },
          {
            "astId": 6944,
            "contract": "contracts/mainchain/MainchainGovernanceAdmin.sol:MainchainGovernanceAdmin",
            "label": "hash",
            "offset": 0,
            "slot": "1",
            "type": "t_bytes32"
          },
          {
            "astId": 6946,
            "contract": "contracts/mainchain/MainchainGovernanceAdmin.sol:MainchainGovernanceAdmin",
            "label": "againstVoteWeight",
            "offset": 0,
            "slot": "2",
            "type": "t_uint256"
          },
          {
            "astId": 6948,
            "contract": "contracts/mainchain/MainchainGovernanceAdmin.sol:MainchainGovernanceAdmin",
            "label": "forVoteWeight",
            "offset": 0,
            "slot": "3",
            "type": "t_uint256"
          },
          {
            "astId": 6952,
            "contract": "contracts/mainchain/MainchainGovernanceAdmin.sol:MainchainGovernanceAdmin",
            "label": "forVoted",
            "offset": 0,
            "slot": "4",
            "type": "t_mapping(t_address,t_bool)"
          },
          {
            "astId": 6956,
            "contract": "contracts/mainchain/MainchainGovernanceAdmin.sol:MainchainGovernanceAdmin",
            "label": "againstVoted",
            "offset": 0,
            "slot": "5",
            "type": "t_mapping(t_address,t_bool)"
          },
          {
            "astId": 6961,
            "contract": "contracts/mainchain/MainchainGovernanceAdmin.sol:MainchainGovernanceAdmin",
            "label": "sig",
            "offset": 0,
            "slot": "6",
            "type": "t_mapping(t_address,t_struct(Signature)10209_storage)"
          }
        ],
        "numberOfBytes": "224"
      },
      "t_struct(RoleData)19_storage": {
        "encoding": "inplace",
        "label": "struct AccessControl.RoleData",
        "members": [
          {
            "astId": 16,
            "contract": "contracts/mainchain/MainchainGovernanceAdmin.sol:MainchainGovernanceAdmin",
            "label": "members",
            "offset": 0,
            "slot": "0",
            "type": "t_mapping(t_address,t_bool)"
          },
          {
            "astId": 18,
            "contract": "contracts/mainchain/MainchainGovernanceAdmin.sol:MainchainGovernanceAdmin",
            "label": "adminRole",
            "offset": 0,
            "slot": "1",
            "type": "t_bytes32"
          }
        ],
        "numberOfBytes": "64"
      },
      "t_struct(Set)3725_storage": {
        "encoding": "inplace",
        "label": "struct EnumerableSet.Set",
        "members": [
          {
            "astId": 3720,
            "contract": "contracts/mainchain/MainchainGovernanceAdmin.sol:MainchainGovernanceAdmin",
            "label": "_values",
            "offset": 0,
            "slot": "0",
            "type": "t_array(t_bytes32)dyn_storage"
          },
          {
            "astId": 3724,
            "contract": "contracts/mainchain/MainchainGovernanceAdmin.sol:MainchainGovernanceAdmin",
            "label": "_indexes",
            "offset": 0,
            "slot": "1",
            "type": "t_mapping(t_bytes32,t_uint256)"
          }
        ],
        "numberOfBytes": "64"
      },
      "t_struct(Signature)10209_storage": {
        "encoding": "inplace",
        "label": "struct SignatureConsumer.Signature",
        "members": [
          {
            "astId": 10204,
            "contract": "contracts/mainchain/MainchainGovernanceAdmin.sol:MainchainGovernanceAdmin",
            "label": "v",
            "offset": 0,
            "slot": "0",
            "type": "t_uint8"
          },
          {
            "astId": 10206,
            "contract": "contracts/mainchain/MainchainGovernanceAdmin.sol:MainchainGovernanceAdmin",
            "label": "r",
            "offset": 0,
            "slot": "1",
            "type": "t_bytes32"
          },
          {
            "astId": 10208,
            "contract": "contracts/mainchain/MainchainGovernanceAdmin.sol:MainchainGovernanceAdmin",
            "label": "s",
            "offset": 0,
            "slot": "2",
            "type": "t_bytes32"
          }
        ],
        "numberOfBytes": "96"
      },
      "t_uint256": {
        "encoding": "inplace",
        "label": "uint256",
        "numberOfBytes": "32"
      },
      "t_uint8": {
        "encoding": "inplace",
        "label": "uint8",
        "numberOfBytes": "1"
      }
    }
  }
}