{
  "address": "0x4a0F388c8E4b46B8F16cA279fAA49396cE4cFD17",
  "abi": [
    {
      "inputs": [
        {
          "internalType": "uint256",
          "name": "num",
          "type": "uint256"
        },
        {
          "internalType": "uint256",
          "name": "denom",
          "type": "uint256"
        },
        {
          "internalType": "uint256",
          "name": "roninChainId",
          "type": "uint256"
        },
        {
          "internalType": "address",
          "name": "bridgeContract",
          "type": "address"
        },
        {
          "internalType": "address[]",
          "name": "callbackRegisters",
          "type": "address[]"
        },
        {
          "internalType": "address[]",
          "name": "bridgeOperators",
          "type": "address[]"
        },
        {
          "internalType": "address[]",
          "name": "governors",
          "type": "address[]"
        },
        {
          "internalType": "uint96[]",
          "name": "voteWeights",
          "type": "uint96[]"
        },
        {
          "internalType": "enum GlobalProposal.TargetOption[]",
          "name": "targetOptions",
          "type": "uint8[]"
        },
        {
          "internalType": "address[]",
          "name": "targets",
          "type": "address[]"
        }
      ],
      "stateMutability": "payable",
      "type": "constructor"
    },
    {
      "inputs": [
        {
          "internalType": "address",
          "name": "bridgeOperator",
          "type": "address"
        }
      ],
      "name": "ErrBridgeOperatorAlreadyExisted",
      "type": "error"
    },
    {
      "inputs": [
        {
          "internalType": "address",
          "name": "bridgeOperator",
          "type": "address"
        }
      ],
      "name": "ErrBridgeOperatorUpdateFailed",
      "type": "error"
    },
    {
      "inputs": [
        {
          "internalType": "enum ContractType",
          "name": "contractType",
          "type": "uint8"
        }
      ],
      "name": "ErrContractTypeNotFound",
      "type": "error"
    },
    {
      "inputs": [],
      "name": "ErrCurrentProposalIsNotCompleted",
      "type": "error"
    },
    {
      "inputs": [
        {
          "internalType": "bytes4",
          "name": "msgSig",
          "type": "bytes4"
        }
      ],
      "name": "ErrDuplicated",
      "type": "error"
    },
    {
      "inputs": [
        {
          "internalType": "bytes32",
          "name": "proposalHash",
          "type": "bytes32"
        }
      ],
      "name": "ErrInsufficientGas",
      "type": "error"
    },
    {
      "inputs": [
        {
          "internalType": "bytes4",
          "name": "msgSig",
          "type": "bytes4"
        }
      ],
      "name": "ErrInvalidArguments",
      "type": "error"
    },
    {
      "inputs": [
        {
          "internalType": "bytes4",
          "name": "msgSig",
          "type": "bytes4"
        },
        {
          "internalType": "uint256",
          "name": "actual",
          "type": "uint256"
        },
        {
          "internalType": "uint256",
          "name": "expected",
          "type": "uint256"
        }
      ],
      "name": "ErrInvalidChainId",
      "type": "error"
    },
    {
      "inputs": [],
      "name": "ErrInvalidExpiryTimestamp",
      "type": "error"
    },
    {
      "inputs": [
        {
          "internalType": "bytes4",
          "name": "msgSig",
          "type": "bytes4"
        }
      ],
      "name": "ErrInvalidOrder",
      "type": "error"
    },
    {
      "inputs": [
        {
          "internalType": "bytes4",
          "name": "msgSig",
          "type": "bytes4"
        }
      ],
      "name": "ErrInvalidProposalNonce",
      "type": "error"
    },
    {
      "inputs": [
        {
          "internalType": "bytes4",
          "name": "msgSig",
          "type": "bytes4"
        }
      ],
      "name": "ErrInvalidThreshold",
      "type": "error"
    },
    {
      "inputs": [
        {
          "internalType": "bytes4",
          "name": "msgSig",
          "type": "bytes4"
        }
      ],
      "name": "ErrInvalidVoteWeight",
      "type": "error"
    },
    {
      "inputs": [
        {
          "internalType": "bytes4",
          "name": "msgSig",
          "type": "bytes4"
        }
      ],
      "name": "ErrLengthMismatch",
      "type": "error"
    },
    {
      "inputs": [
        {
          "internalType": "bytes4",
          "name": "msgSig",
          "type": "bytes4"
        }
      ],
      "name": "ErrOnlySelfCall",
      "type": "error"
    },
    {
      "inputs": [
        {
          "internalType": "bytes4",
          "name": "msgSig",
          "type": "bytes4"
        }
      ],
      "name": "ErrRelayFailed",
      "type": "error"
    },
    {
      "inputs": [
        {
          "internalType": "bytes4",
          "name": "msgSig",
          "type": "bytes4"
        },
        {
          "internalType": "enum RoleAccess",
          "name": "expectedRole",
          "type": "uint8"
        }
      ],
      "name": "ErrUnauthorized",
      "type": "error"
    },
    {
      "inputs": [
        {
          "internalType": "bytes4",
          "name": "interfaceId",
          "type": "bytes4"
        },
        {
          "internalType": "address",
          "name": "addr",
          "type": "address"
        }
      ],
      "name": "ErrUnsupportedInterface",
      "type": "error"
    },
    {
      "inputs": [
        {
          "internalType": "bytes4",
          "name": "msgSig",
          "type": "bytes4"
        }
      ],
      "name": "ErrUnsupportedVoteType",
      "type": "error"
    },
    {
      "inputs": [],
      "name": "ErrVoteIsFinalized",
      "type": "error"
    },
    {
      "inputs": [
        {
          "internalType": "bytes4",
          "name": "msgSig",
          "type": "bytes4"
        }
      ],
      "name": "ErrZeroAddress",
      "type": "error"
    },
    {
      "inputs": [
        {
          "internalType": "address",
          "name": "addr",
          "type": "address"
        }
      ],
      "name": "ErrZeroCodeContract",
      "type": "error"
    },
    {
      "anonymous": false,
      "inputs": [
        {
          "indexed": true,
          "internalType": "address",
          "name": "governor",
          "type": "address"
        },
        {
          "indexed": true,
          "internalType": "address",
          "name": "fromBridgeOperator",
          "type": "address"
        },
        {
          "indexed": true,
          "internalType": "address",
          "name": "toBridgeOperator",
          "type": "address"
        }
      ],
      "name": "BridgeOperatorUpdated",
      "type": "event"
    },
    {
      "anonymous": false,
      "inputs": [
        {
          "indexed": false,
          "internalType": "bool[]",
          "name": "statuses",
          "type": "bool[]"
        },
        {
          "indexed": false,
          "internalType": "uint96[]",
          "name": "voteWeights",
          "type": "uint96[]"
        },
        {
          "indexed": false,
          "internalType": "address[]",
          "name": "governors",
          "type": "address[]"
        },
        {
          "indexed": false,
          "internalType": "address[]",
          "name": "bridgeOperators",
          "type": "address[]"
        }
      ],
      "name": "BridgeOperatorsAdded",
      "type": "event"
    },
    {
      "anonymous": false,
      "inputs": [
        {
          "indexed": false,
          "internalType": "bool[]",
          "name": "statuses",
          "type": "bool[]"
        },
        {
          "indexed": false,
          "internalType": "address[]",
          "name": "bridgeOperators",
          "type": "address[]"
        }
      ],
      "name": "BridgeOperatorsRemoved",
      "type": "event"
    },
    {
      "anonymous": false,
      "inputs": [
        {
          "indexed": true,
          "internalType": "enum ContractType",
          "name": "contractType",
          "type": "uint8"
        },
        {
          "indexed": true,
          "internalType": "address",
          "name": "addr",
          "type": "address"
        }
      ],
      "name": "ContractUpdated",
      "type": "event"
    },
    {
      "anonymous": false,
      "inputs": [
        {
          "indexed": true,
          "internalType": "uint256",
          "name": "round",
          "type": "uint256"
        },
        {
          "indexed": true,
          "internalType": "bytes32",
          "name": "proposalHash",
          "type": "bytes32"
        },
        {
          "components": [
            {
              "internalType": "uint256",
              "name": "nonce",
              "type": "uint256"
            },
            {
              "internalType": "uint256",
              "name": "chainId",
              "type": "uint256"
            },
            {
              "internalType": "uint256",
              "name": "expiryTimestamp",
              "type": "uint256"
            },
            {
              "internalType": "address[]",
              "name": "targets",
              "type": "address[]"
            },
            {
              "internalType": "uint256[]",
              "name": "values",
              "type": "uint256[]"
            },
            {
              "internalType": "bytes[]",
              "name": "calldatas",
              "type": "bytes[]"
            },
            {
              "internalType": "uint256[]",
              "name": "gasAmounts",
              "type": "uint256[]"
            }
          ],
          "indexed": false,
          "internalType": "struct Proposal.ProposalDetail",
          "name": "proposal",
          "type": "tuple"
        },
        {
          "indexed": false,
          "internalType": "bytes32",
          "name": "globalProposalHash",
          "type": "bytes32"
        },
        {
          "components": [
            {
              "internalType": "uint256",
              "name": "nonce",
              "type": "uint256"
            },
            {
              "internalType": "uint256",
              "name": "expiryTimestamp",
              "type": "uint256"
            },
            {
              "internalType": "enum GlobalProposal.TargetOption[]",
              "name": "targetOptions",
              "type": "uint8[]"
            },
            {
              "internalType": "uint256[]",
              "name": "values",
              "type": "uint256[]"
            },
            {
              "internalType": "bytes[]",
              "name": "calldatas",
              "type": "bytes[]"
            },
            {
              "internalType": "uint256[]",
              "name": "gasAmounts",
              "type": "uint256[]"
            }
          ],
          "indexed": false,
          "internalType": "struct GlobalProposal.GlobalProposalDetail",
          "name": "globalProposal",
          "type": "tuple"
        },
        {
          "indexed": false,
          "internalType": "address",
          "name": "creator",
          "type": "address"
        }
      ],
      "name": "GlobalProposalCreated",
      "type": "event"
    },
    {
      "anonymous": false,
      "inputs": [
        {
          "indexed": false,
          "internalType": "bytes",
          "name": "callData",
          "type": "bytes"
        },
        {
          "indexed": false,
          "internalType": "address[]",
          "name": "registers",
          "type": "address[]"
        },
        {
          "indexed": false,
          "internalType": "bool[]",
          "name": "statuses",
          "type": "bool[]"
        },
        {
          "indexed": false,
          "internalType": "bytes[]",
          "name": "returnDatas",
          "type": "bytes[]"
        }
      ],
      "name": "Notified",
      "type": "event"
    },
    {
      "anonymous": false,
      "inputs": [
        {
          "indexed": true,
          "internalType": "bytes32",
          "name": "proposalHash",
          "type": "bytes32"
        }
      ],
      "name": "ProposalApproved",
      "type": "event"
    },
    {
      "anonymous": false,
      "inputs": [
        {
          "indexed": true,
          "internalType": "uint256",
          "name": "chainId",
          "type": "uint256"
        },
        {
          "indexed": true,
          "internalType": "uint256",
          "name": "round",
          "type": "uint256"
        },
        {
          "indexed": true,
          "internalType": "bytes32",
          "name": "proposalHash",
          "type": "bytes32"
        },
        {
          "components": [
            {
              "internalType": "uint256",
              "name": "nonce",
              "type": "uint256"
            },
            {
              "internalType": "uint256",
              "name": "chainId",
              "type": "uint256"
            },
            {
              "internalType": "uint256",
              "name": "expiryTimestamp",
              "type": "uint256"
            },
            {
              "internalType": "address[]",
              "name": "targets",
              "type": "address[]"
            },
            {
              "internalType": "uint256[]",
              "name": "values",
              "type": "uint256[]"
            },
            {
              "internalType": "bytes[]",
              "name": "calldatas",
              "type": "bytes[]"
            },
            {
              "internalType": "uint256[]",
              "name": "gasAmounts",
              "type": "uint256[]"
            }
          ],
          "indexed": false,
          "internalType": "struct Proposal.ProposalDetail",
          "name": "proposal",
          "type": "tuple"
        },
        {
          "indexed": false,
          "internalType": "address",
          "name": "creator",
          "type": "address"
        }
      ],
      "name": "ProposalCreated",
      "type": "event"
    },
    {
      "anonymous": false,
      "inputs": [
        {
          "indexed": true,
          "internalType": "bytes32",
          "name": "proposalHash",
          "type": "bytes32"
        },
        {
          "indexed": false,
          "internalType": "bool[]",
          "name": "successCalls",
          "type": "bool[]"
        },
        {
          "indexed": false,
          "internalType": "bytes[]",
          "name": "returnDatas",
          "type": "bytes[]"
        }
      ],
      "name": "ProposalExecuted",
      "type": "event"
    },
    {
      "anonymous": false,
      "inputs": [
        {
          "indexed": true,
          "internalType": "bytes32",
          "name": "proposalHash",
          "type": "bytes32"
        }
      ],
      "name": "ProposalExpired",
      "type": "event"
    },
    {
      "anonymous": false,
      "inputs": [
        {
          "indexed": true,
          "internalType": "uint256",
          "name": "duration",
          "type": "uint256"
        }
      ],
      "name": "ProposalExpiryDurationChanged",
      "type": "event"
    },
    {
      "anonymous": false,
      "inputs": [
        {
          "indexed": true,
          "internalType": "bytes32",
          "name": "proposalHash",
          "type": "bytes32"
        }
      ],
      "name": "ProposalRejected",
      "type": "event"
    },
    {
      "anonymous": false,
      "inputs": [
        {
          "indexed": true,
          "internalType": "bytes32",
          "name": "proposalHash",
          "type": "bytes32"
        },
        {
          "indexed": true,
          "internalType": "address",
          "name": "voter",
          "type": "address"
        },
        {
          "indexed": false,
          "internalType": "enum Ballot.VoteType",
          "name": "support",
          "type": "uint8"
        },
        {
          "indexed": false,
          "internalType": "uint256",
          "name": "weight",
          "type": "uint256"
        }
      ],
      "name": "ProposalVoted",
      "type": "event"
    },
    {
      "anonymous": false,
      "inputs": [
        {
          "indexed": true,
          "internalType": "enum GlobalProposal.TargetOption",
          "name": "targetOption",
          "type": "uint8"
        },
        {
          "indexed": true,
          "internalType": "address",
          "name": "addr",
          "type": "address"
        }
      ],
      "name": "TargetOptionUpdated",
      "type": "event"
    },
    {
      "anonymous": false,
      "inputs": [
        {
          "indexed": true,
          "internalType": "uint256",
          "name": "nonce",
          "type": "uint256"
        },
        {
          "indexed": true,
          "internalType": "uint256",
          "name": "numerator",
          "type": "uint256"
        },
        {
          "indexed": true,
          "internalType": "uint256",
          "name": "denominator",
          "type": "uint256"
        },
        {
          "indexed": false,
          "internalType": "uint256",
          "name": "previousNumerator",
          "type": "uint256"
        },
        {
          "indexed": false,
          "internalType": "uint256",
          "name": "previousDenominator",
          "type": "uint256"
        }
      ],
      "name": "ThresholdUpdated",
      "type": "event"
    },
    {
      "inputs": [],
      "name": "DOMAIN_SEPARATOR",
      "outputs": [
        {
          "internalType": "bytes32",
          "name": "",
          "type": "bytes32"
        }
      ],
      "stateMutability": "view",
      "type": "function"
    },
    {
      "inputs": [
        {
          "internalType": "uint96[]",
          "name": "voteWeights",
          "type": "uint96[]"
        },
        {
          "internalType": "address[]",
          "name": "governors",
          "type": "address[]"
        },
        {
          "internalType": "address[]",
          "name": "bridgeOperators",
          "type": "address[]"
        }
      ],
      "name": "addBridgeOperators",
      "outputs": [
        {
          "internalType": "bool[]",
          "name": "addeds",
          "type": "bool[]"
        }
      ],
      "stateMutability": "nonpayable",
      "type": "function"
    },
    {
      "inputs": [
        {
          "internalType": "uint256",
          "name": "_voteWeight",
          "type": "uint256"
        }
      ],
      "name": "checkThreshold",
      "outputs": [
        {
          "internalType": "bool",
          "name": "",
          "type": "bool"
        }
      ],
      "stateMutability": "view",
      "type": "function"
    },
    {
      "inputs": [
        {
          "internalType": "address[]",
          "name": "governors",
          "type": "address[]"
        }
      ],
      "name": "getBridgeOperatorOf",
      "outputs": [
        {
          "internalType": "address[]",
          "name": "bridgeOperators",
          "type": "address[]"
        }
      ],
      "stateMutability": "view",
      "type": "function"
    },
    {
      "inputs": [
        {
          "internalType": "address",
          "name": "bridgeOperator",
          "type": "address"
        }
      ],
      "name": "getBridgeOperatorWeight",
      "outputs": [
        {
          "internalType": "uint256",
          "name": "weight",
          "type": "uint256"
        }
      ],
      "stateMutability": "view",
      "type": "function"
    },
    {
      "inputs": [],
      "name": "getBridgeOperators",
      "outputs": [
        {
          "internalType": "address[]",
          "name": "",
          "type": "address[]"
        }
      ],
      "stateMutability": "view",
      "type": "function"
    },
    {
      "inputs": [],
      "name": "getCallbackRegisters",
      "outputs": [
        {
          "internalType": "address[]",
          "name": "registers",
          "type": "address[]"
        }
      ],
      "stateMutability": "view",
      "type": "function"
    },
    {
      "inputs": [
        {
          "internalType": "enum ContractType",
          "name": "contractType",
          "type": "uint8"
        }
      ],
      "name": "getContract",
      "outputs": [
        {
          "internalType": "address",
          "name": "contract_",
          "type": "address"
        }
      ],
      "stateMutability": "view",
      "type": "function"
    },
    {
      "inputs": [],
      "name": "getFullBridgeOperatorInfos",
      "outputs": [
        {
          "internalType": "address[]",
          "name": "governors",
          "type": "address[]"
        },
        {
          "internalType": "address[]",
          "name": "bridgeOperators",
          "type": "address[]"
        },
        {
          "internalType": "uint256[]",
          "name": "weights",
          "type": "uint256[]"
        }
      ],
      "stateMutability": "view",
      "type": "function"
    },
    {
      "inputs": [
        {
          "internalType": "address",
          "name": "governor",
          "type": "address"
        }
      ],
      "name": "getGovernorWeight",
      "outputs": [
        {
          "internalType": "uint256",
          "name": "weight",
          "type": "uint256"
        }
      ],
      "stateMutability": "view",
      "type": "function"
    },
    {
      "inputs": [
        {
          "internalType": "address[]",
          "name": "governors",
          "type": "address[]"
        }
      ],
      "name": "getGovernorWeights",
      "outputs": [
        {
          "internalType": "uint256[]",
          "name": "weights",
          "type": "uint256[]"
        }
      ],
      "stateMutability": "view",
      "type": "function"
    },
    {
      "inputs": [],
      "name": "getGovernors",
      "outputs": [
        {
          "internalType": "address[]",
          "name": "",
          "type": "address[]"
        }
      ],
      "stateMutability": "view",
      "type": "function"
    },
    {
      "inputs": [
        {
          "internalType": "address[]",
          "name": "bridgeOperators",
          "type": "address[]"
        }
      ],
      "name": "getGovernorsOf",
      "outputs": [
        {
          "internalType": "address[]",
          "name": "governors",
          "type": "address[]"
        }
      ],
      "stateMutability": "view",
      "type": "function"
    },
    {
      "inputs": [],
      "name": "getProposalExpiryDuration",
      "outputs": [
        {
          "internalType": "uint256",
          "name": "",
          "type": "uint256"
        }
      ],
      "stateMutability": "view",
      "type": "function"
    },
    {
      "inputs": [],
      "name": "getThreshold",
      "outputs": [
        {
          "internalType": "uint256",
          "name": "num_",
          "type": "uint256"
        },
        {
          "internalType": "uint256",
          "name": "denom_",
          "type": "uint256"
        }
      ],
      "stateMutability": "view",
      "type": "function"
    },
    {
      "inputs": [],
      "name": "getTotalWeights",
      "outputs": [
        {
          "internalType": "uint256",
          "name": "",
          "type": "uint256"
        }
      ],
      "stateMutability": "view",
      "type": "function"
    },
    {
      "inputs": [
        {
          "internalType": "uint256",
          "name": "_round",
          "type": "uint256"
        }
      ],
      "name": "globalProposalRelayed",
      "outputs": [
        {
          "internalType": "bool",
          "name": "",
          "type": "bool"
        }
      ],
      "stateMutability": "view",
      "type": "function"
    },
    {
      "inputs": [
        {
          "internalType": "address",
          "name": "addr",
          "type": "address"
        }
      ],
      "name": "isBridgeOperator",
      "outputs": [
        {
          "internalType": "bool",
          "name": "",
          "type": "bool"
        }
      ],
      "stateMutability": "view",
      "type": "function"
    },
    {
      "inputs": [],
      "name": "minimumVoteWeight",
      "outputs": [
        {
          "internalType": "uint256",
          "name": "",
          "type": "uint256"
        }
      ],
      "stateMutability": "view",
      "type": "function"
    },
    {
      "inputs": [
        {
          "internalType": "address[]",
          "name": "registers",
          "type": "address[]"
        }
      ],
      "name": "registerCallbacks",
      "outputs": [
        {
          "internalType": "bool[]",
          "name": "registereds",
          "type": "bool[]"
        }
      ],
      "stateMutability": "nonpayable",
      "type": "function"
    },
    {
      "inputs": [
        {
          "components": [
            {
              "internalType": "uint256",
              "name": "nonce",
              "type": "uint256"
            },
            {
              "internalType": "uint256",
              "name": "expiryTimestamp",
              "type": "uint256"
            },
            {
              "internalType": "enum GlobalProposal.TargetOption[]",
              "name": "targetOptions",
              "type": "uint8[]"
            },
            {
              "internalType": "uint256[]",
              "name": "values",
              "type": "uint256[]"
            },
            {
              "internalType": "bytes[]",
              "name": "calldatas",
              "type": "bytes[]"
            },
            {
              "internalType": "uint256[]",
              "name": "gasAmounts",
              "type": "uint256[]"
            }
          ],
          "internalType": "struct GlobalProposal.GlobalProposalDetail",
          "name": "globalProposal",
          "type": "tuple"
        },
        {
          "internalType": "enum Ballot.VoteType[]",
          "name": "supports_",
          "type": "uint8[]"
        },
        {
          "components": [
            {
              "internalType": "uint8",
              "name": "v",
              "type": "uint8"
            },
            {
              "internalType": "bytes32",
              "name": "r",
              "type": "bytes32"
            },
            {
              "internalType": "bytes32",
              "name": "s",
              "type": "bytes32"
            }
          ],
          "internalType": "struct SignatureConsumer.Signature[]",
          "name": "signatures",
          "type": "tuple[]"
        }
      ],
      "name": "relayGlobalProposal",
      "outputs": [],
      "stateMutability": "nonpayable",
      "type": "function"
    },
    {
      "inputs": [
        {
          "components": [
            {
              "internalType": "uint256",
              "name": "nonce",
              "type": "uint256"
            },
            {
              "internalType": "uint256",
              "name": "chainId",
              "type": "uint256"
            },
            {
              "internalType": "uint256",
              "name": "expiryTimestamp",
              "type": "uint256"
            },
            {
              "internalType": "address[]",
              "name": "targets",
              "type": "address[]"
            },
            {
              "internalType": "uint256[]",
              "name": "values",
              "type": "uint256[]"
            },
            {
              "internalType": "bytes[]",
              "name": "calldatas",
              "type": "bytes[]"
            },
            {
              "internalType": "uint256[]",
              "name": "gasAmounts",
              "type": "uint256[]"
            }
          ],
          "internalType": "struct Proposal.ProposalDetail",
          "name": "proposal",
          "type": "tuple"
        },
        {
          "internalType": "enum Ballot.VoteType[]",
          "name": "supports_",
          "type": "uint8[]"
        },
        {
          "components": [
            {
              "internalType": "uint8",
              "name": "v",
              "type": "uint8"
            },
            {
              "internalType": "bytes32",
              "name": "r",
              "type": "bytes32"
            },
            {
              "internalType": "bytes32",
              "name": "s",
              "type": "bytes32"
            }
          ],
          "internalType": "struct SignatureConsumer.Signature[]",
          "name": "signatures",
          "type": "tuple[]"
        }
      ],
      "name": "relayProposal",
      "outputs": [],
      "stateMutability": "nonpayable",
      "type": "function"
    },
    {
      "inputs": [
        {
          "internalType": "address[]",
          "name": "bridgeOperators",
          "type": "address[]"
        }
      ],
      "name": "removeBridgeOperators",
      "outputs": [
        {
          "internalType": "bool[]",
          "name": "removeds",
          "type": "bool[]"
        }
      ],
      "stateMutability": "nonpayable",
      "type": "function"
    },
    {
      "inputs": [
        {
          "internalType": "enum GlobalProposal.TargetOption[]",
          "name": "targetOptions",
          "type": "uint8[]"
        }
      ],
      "name": "resolveTargets",
      "outputs": [
        {
          "internalType": "address[]",
          "name": "targets",
          "type": "address[]"
        }
      ],
      "stateMutability": "view",
      "type": "function"
    },
    {
      "inputs": [
        {
          "internalType": "uint256",
          "name": "",
          "type": "uint256"
        }
      ],
      "name": "round",
      "outputs": [
        {
          "internalType": "uint256",
          "name": "",
          "type": "uint256"
        }
      ],
      "stateMutability": "view",
      "type": "function"
    },
    {
      "inputs": [
        {
          "internalType": "enum ContractType",
          "name": "contractType",
          "type": "uint8"
        },
        {
          "internalType": "address",
          "name": "addr",
          "type": "address"
        }
      ],
      "name": "setContract",
      "outputs": [],
      "stateMutability": "nonpayable",
      "type": "function"
    },
    {
      "inputs": [
        {
          "internalType": "uint256",
          "name": "numerator",
          "type": "uint256"
        },
        {
          "internalType": "uint256",
          "name": "denominator",
          "type": "uint256"
        }
      ],
      "name": "setThreshold",
      "outputs": [
        {
          "internalType": "uint256",
          "name": "",
          "type": "uint256"
        },
        {
          "internalType": "uint256",
          "name": "",
          "type": "uint256"
        }
      ],
      "stateMutability": "nonpayable",
      "type": "function"
    },
    {
      "inputs": [
        {
          "internalType": "address[]",
          "name": "governors",
          "type": "address[]"
        }
      ],
      "name": "sumGovernorsWeight",
      "outputs": [
        {
          "internalType": "uint256",
          "name": "sum",
          "type": "uint256"
        }
      ],
      "stateMutability": "view",
      "type": "function"
    },
    {
      "inputs": [],
      "name": "totalBridgeOperators",
      "outputs": [
        {
          "internalType": "uint256",
          "name": "",
          "type": "uint256"
        }
      ],
      "stateMutability": "view",
      "type": "function"
    },
    {
      "inputs": [
        {
          "internalType": "address[]",
          "name": "registers",
          "type": "address[]"
        }
      ],
      "name": "unregisterCallbacks",
      "outputs": [
        {
          "internalType": "bool[]",
          "name": "unregistereds",
          "type": "bool[]"
        }
      ],
      "stateMutability": "nonpayable",
      "type": "function"
    },
    {
      "inputs": [
        {
          "internalType": "address",
          "name": "newBridgeOperator",
          "type": "address"
        }
      ],
      "name": "updateBridgeOperator",
      "outputs": [],
      "stateMutability": "nonpayable",
      "type": "function"
    },
    {
      "inputs": [
        {
          "internalType": "enum GlobalProposal.TargetOption[]",
          "name": "targetOptions",
          "type": "uint8[]"
        },
        {
          "internalType": "address[]",
          "name": "targets",
          "type": "address[]"
        }
      ],
      "name": "updateManyTargetOption",
      "outputs": [],
      "stateMutability": "nonpayable",
      "type": "function"
    },
    {
      "inputs": [
        {
          "internalType": "uint256",
          "name": "",
          "type": "uint256"
        },
        {
          "internalType": "uint256",
          "name": "",
          "type": "uint256"
        }
      ],
      "name": "vote",
      "outputs": [
        {
          "internalType": "enum VoteStatusConsumer.VoteStatus",
          "name": "status",
          "type": "uint8"
        },
        {
          "internalType": "bytes32",
          "name": "hash",
          "type": "bytes32"
        },
        {
          "internalType": "uint256",
          "name": "againstVoteWeight",
          "type": "uint256"
        },
        {
          "internalType": "uint256",
          "name": "forVoteWeight",
          "type": "uint256"
        },
        {
          "internalType": "uint256",
          "name": "expiryTimestamp",
          "type": "uint256"
        }
      ],
      "stateMutability": "view",
      "type": "function"
    }
  ],
  "transactionHash": "0x7055758f7cfd56671d2a6f1a6ee1eb3faac19cdaabbd4a031cb4459e0edd3616",
  "args": [
    70,
    100,
    2021,
    "0xFc4319Ae9e6134C708b88D5Ad5Da1A4a83372502",
    [],
    [
      "0x2e82D2b56f858f79DeeF11B160bFC4631873da2B",
      "0xBcb61783dd2403FE8cC9B89B27B1A9Bb03d040Cb",
      "0xB266Bf53Cf7EAc4E2065A404598DCB0E15E9462c",
      "0xcc5fc5b6c8595f56306da736f6cd02ed9141c84a"
    ],
    [
      "0xd24D87DDc1917165435b306aAC68D99e0F49A3Fa",
      "0xb033ba62EC622dC54D0ABFE0254e79692147CA26",
      "0x087D08e3ba42e64E3948962dd1371F906D1278b9",
      "0x52ec2e6BBcE45AfFF8955Da6410bb13812F4289F"
    ],
    [
      100,
      100,
      100,
      100
    ],
    [
      1
    ],
    [
      "0xFc4319Ae9e6134C708b88D5Ad5Da1A4a83372502"
    ]
  ],
  "numDeployments": 1,
  "solcInputHash": "5bb29245382eed46bc25ba7e9a5b8468",
  "bytecode": "0x60a0604052604051620062a6380380620062a68339810160408190526200002691620013e0565b8181600160ff1b8c8c8c8c8c8c8c8c83620000418162000239565b50506200008160017f92872d32822c9d44b36a2537d3e0d4c46fc4de1ce154ccfaed560a8a58445f1d60001b6200035660201b62000ebe1790919060201c565b620000be887fc55405a488814eaa0e2a685a0131142785b8d033d311c8c8244e34a7c12ca40f60001b6200035660201b62000ebe1790919060201c565b620000fb877fac1ff16a4f04f2a37a9ba5252a69baa100b460e517d1f8019c054a5ad698f9ff60001b6200035660201b62000ebe1790919060201c565b620001086002866200035a565b604080516020808201839052600c60608301526b212924a223a2afa0a226a4a760a11b6080808401919091528284018a905283518084038201815260a0840185528051908301207f599a80fcaa47b95e2323ab4d34d34e0cc9feda4b843edafcc30c7bdf60ea15bf60c08501527f9d3fa1662ea89365eb7af36506f0ad5413bd7e078960d8481ff4718763aaa8e960e08501527fad7c5bef027816a800da1736444fb58a807ef4c9603b7848673f7e3a68eb14a5610100850152610120808501919091528451808503909101815261014090930190935281519101209052620001f381838562000404565b5050505050505050506200020d816200089b60201b60201c565b506200021b600030620008ce565b6200022782826200096a565b50505050505050505050505062001829565b606081620002478162000a2d565b8251806001600160401b038111156200026457620002646200120b565b6040519080825280602002602001820160405280156200028e578160200160208202803683370190505b50925080600003620002a1575062000350565b6000805160206200628683398151915260006314d72edb60e21b815b848110156200034a57878181518110620002db57620002db6200151b565b60200260200101519250620002f68362000a7460201b60201c565b62000302838362000aac565b6200031c838562000c8b60201b62000ec21790919060201c565b8782815181106200033157620003316200151b565b91151560209283029190910190910152600101620002bd565b50505050505b50919050565b9055565b807fdea3103d22025c269050bea94c0c84688877f12fa22b7e6d2d5d78a9a49aa1cb600084600d81111562000393576200039362001531565b60ff168152602081019190915260400160002080546001600160a01b0319166001600160a01b03928316179055811682600d811115620003d757620003d762001531565b6040517f865d1c228a8ea13709cfe61f346f7ff67f1bbd4a18ff31ad3e7147350d317c5990600090a35050565b606062000420828462000cab60201b62000ed71790919060201c565b6200042b8162000a2d565b82518551811480156200043e5750845181145b6200046f576040516306b5667560e21b81526001600160e01b03196000351660048201526024015b60405180910390fd5b806001600160401b038111156200048a576200048a6200120b565b604051908082528060200260200182016040528015620004b4578160200160208202803683370190505b50925080600003620004c7575062000893565b604080518082019091526000808252602082018190527f546f6b46ab35b030b6816596b352aef78857377176c8b24baa2046a62cf1998c917f8400683eb2cb350596d73644c0c89fe45f108600003457374f4ab3e87b4f3aa3917fd38c234075fde25875da8a6b7e36b58b86681d483271a99eeeee1d78e258a24d917f88547008e60f5748911f2e59feb3093b7e4c2e87b2dd69d61f112fcc932de8e3919081908190815b89811015620007d4578d81815181106200058a576200058a6200151b565b602002602001015194508c8181518110620005a957620005a96200151b565b60200260200101519350620005c48562000dc960201b60201c565b620005cf8462000dc9565b8e8181518110620005e457620005e46200151b565b60200260200101516001600160601b03166000036200062557604051637f11b8a360e11b81526001600160e01b031960003516600482015260240162000466565b6200063f858a62000e0060201b62000fe11790919060201c565b8062000660575062000660848a62000e0060201b62000fe11790919060201c565b8062000681575062000681858862000e0060201b62000fe11790919060201c565b80620006a25750620006a2848862000e0060201b62000fe11790919060201c565b158c8281518110620006b857620006b86200151b565b6020026020010190151590811515815250508b8181518110620006df57620006df6200151b565b602002602001015115620007cb5762000707858a62000c8b60201b62000ec21790919060201c565b5062000722848862000c8b60201b62000ec21790919060201c565b506001600160a01b03848116600081815260208b90526040902080546001600160a01b0319169288169290921790915582528e518f90829081106200076b576200076b6200151b565b6020908102919091018101516001600160601b031690830181905262000792908462001547565b6001600160a01b038087166000908152602089815260409091208551918601516001600160601b0316600160a01b029190921617905592505b6001016200056c565b5062000812827f6924fe71b0c8b61aea02ca498b5f53b29bd95726278b1fe4eb791bb24a42644c60001b62000e2360201b620010031790919060201c565b506200084a635ebae8a060e01b8d8d60405160200162000834929190620015e3565b60408051601f1981840301815291905262000e3d565b7f897810999654e525e272b5909785c4d0ceaee1bbf9c87d9091a37558b0423b788b8f8f8f60405162000881949392919062001615565b60405180910390a15050505050505050505b509392505050565b600281905560405181907fe5cd1c123a8cf63fa1b7229678db61fe8ae99dbbd27889370b6667c8cae97da190600090a250565b8060036000846003811115620008e857620008e862001531565b6003811115620008fc57620008fc62001531565b8152602081019190915260400160002080546001600160a01b0319166001600160a01b0392831617905581168260038111156200093d576200093d62001531565b6040517f356c8c57e9e84b99b1cb58b13c985b2c979f78cbdf4d0fa70fe2a98bb09a099d90600090a35050565b60005b825181101562000a2857306001600160a01b03168282815181106200099657620009966200151b565b60200260200101516001600160a01b031603620009d55760405163053265f160e01b81526001600160e01b031960003516600482015260240162000466565b62000a1f838281518110620009ee57620009ee6200151b565b602002602001015183838151811062000a0b5762000a0b6200151b565b6020026020010151620008ce60201b60201c565b6001016200096d565b505050565b62000a43816200105d60201b6200101a1760201c565b1562000a7157604051630d697db160e11b81526001600160e01b031960003516600482015260240162000466565b50565b806001600160a01b03163b60000362000a7157604051630bfc64a360e21b81526001600160a01b038216600482015260240162000466565b6040516001600160e01b03198216602482015260009060440160408051601f198184030181529181526020820180516001600160e01b03166301ffc9a760e01b1790525190915060009081906001600160a01b0386169062000b10908590620016cb565b600060405180830381855afa9150503d806000811462000b4d576040519150601f19603f3d011682016040523d82523d6000602084013e62000b52565b606091505b50915091508162000c3457846001600160a01b03168360405160240162000b7a919062001717565b60408051601f198184030181529181526020820180516001600160e01b03166325da93a560e11b1790525162000bb19190620016cb565b600060405180830381855afa9150503d806000811462000bee576040519150601f19603f3d011682016040523d82523d6000602084013e62000bf3565b606091505b5090925090508162000c345760405163069d427960e11b81526001600160e01b0319851660048201526001600160a01b038616602482015260440162000466565b8080602001905181019062000c4a91906200172c565b62000c845760405163069d427960e11b81526001600160e01b0319851660048201526001600160a01b038616602482015260440162000466565b5050505050565b600062000ca2836001600160a01b03841662001108565b90505b92915050565b81518151606091908082016001600160401b0381111562000cd05762000cd06200120b565b60405190808252806020026020018201604052801562000cfa578160200160208202803683370190505b50925060005b8281101562000d5c5785818151811062000d1e5762000d1e6200151b565b602002602001015184828151811062000d3b5762000d3b6200151b565b6001600160a01b039092166020928302919091019091015260010162000d00565b60005b8281101562000dbf5785818151811062000d7d5762000d7d6200151b565b602002602001015185838151811062000d9a5762000d9a6200151b565b6001600160a01b03909216602092830291909101909101526001918201910162000d5f565b5050505092915050565b6001600160a01b03811662000a715760405163104c66df60e31b81526001600160e01b031960003516600482015260240162000466565b6001600160a01b0381166000908152600183016020526040812054151562000ca2565b600062000ca58362000e3681856200115a565b9250829055565b600062000e64600080516020620062868339815191526200117a60201b620010b91760201c565b8051909150600081900362000e795750505050565b6000816001600160401b0381111562000e965762000e966200120b565b60405190808252806020026020018201604052801562000ec0578160200160208202803683370190505b5090506000826001600160401b0381111562000ee05762000ee06200120b565b60405190808252806020026020018201604052801562000f1557816020015b606081526020019060019003908162000eff5790505b5090506000868660405160200162000f2f92919062001750565b604051602081830303815290604052905060005b84811015620010145785818151811062000f615762000f616200151b565b60200260200101516001600160a01b03168260405162000f829190620016cb565b6000604051808303816000865af19150503d806000811462000fc1576040519150601f19603f3d011682016040523d82523d6000602084013e62000fc6565b606091505b5085838151811062000fdc5762000fdc6200151b565b6020026020010185848151811062000ff85762000ff86200151b565b6020908102919091010191909152901515905260010162000f43565b507fc0b07a27e66788f39cc91405f012f34066b16f31b4bda9438c52f2dae0cc5b63818685856040516200104c949392919062001783565b60405180910390a150505050505050565b600081516000036200107157506000919050565b60005b6001835103811015620010ff57600181015b8351811015620010f557838181518110620010a557620010a56200151b565b60200260200101516001600160a01b0316848381518110620010cb57620010cb6200151b565b60200260200101516001600160a01b031603620010ec575060019392505050565b60010162001086565b5060010162001074565b50600092915050565b6000818152600183016020526040812054620011515750815460018181018455600084815260208082209093018490558454848252828601909352604090209190915562000ca5565b50600062000ca5565b815481018181101562000ca557634e487b7160005260116020526024601cfd5b60606000620011898362001190565b9392505050565b606081600001805480602002602001604051908101604052809291908181526020018280548015620011e257602002820191906000526020600020905b815481526020019060010190808311620011cd575b50505050509050919050565b80516001600160a01b03811681146200120657600080fd5b919050565b634e487b7160e01b600052604160045260246000fd5b604051601f8201601f191681016001600160401b03811182821017156200124c576200124c6200120b565b604052919050565b60006001600160401b038211156200127057620012706200120b565b5060051b60200190565b600082601f8301126200128c57600080fd5b81516020620012a56200129f8362001254565b62001221565b82815260059290921b84018101918181019086841115620012c557600080fd5b8286015b84811015620012eb57620012dd81620011ee565b8352918301918301620012c9565b509695505050505050565b600082601f8301126200130857600080fd5b815160206200131b6200129f8362001254565b82815260059290921b840181019181810190868411156200133b57600080fd5b8286015b84811015620012eb5780516001600160601b0381168114620013615760008081fd5b83529183019183016200133f565b600082601f8301126200138157600080fd5b81516020620013946200129f8362001254565b82815260059290921b84018101918181019086841115620013b457600080fd5b8286015b84811015620012eb57805160048110620013d25760008081fd5b8352918301918301620013b8565b6000806000806000806000806000806101408b8d0312156200140157600080fd5b8a51995060208b0151985060408b015197506200142160608c01620011ee565b60808c01519097506001600160401b03808211156200143f57600080fd5b6200144d8e838f016200127a565b975060a08d01519150808211156200146457600080fd5b620014728e838f016200127a565b965060c08d01519150808211156200148957600080fd5b620014978e838f016200127a565b955060e08d0151915080821115620014ae57600080fd5b620014bc8e838f01620012f6565b94506101008d0151915080821115620014d457600080fd5b620014e28e838f016200136f565b93506101208d0151915080821115620014fa57600080fd5b50620015098d828e016200127a565b9150509295989b9194979a5092959850565b634e487b7160e01b600052603260045260246000fd5b634e487b7160e01b600052602160045260246000fd5b8082018082111562000ca557634e487b7160e01b600052601160045260246000fd5b600081518084526020808501945080840160005b83811015620015a45781516001600160a01b0316875295820195908201906001016200157d565b509495945050505050565b600081518084526020808501945080840160005b83811015620015a4578151151587529582019590820190600101620015c3565b604081526000620015f8604083018562001569565b82810360208401526200160c8185620015af565b95945050505050565b6080815260006200162a6080830187620015af565b82810360208481019190915286518083528782019282019060005b818110156200166c5784516001600160601b03168352938301939183019160010162001645565b5050848103604086015262001682818862001569565b9250505082810360608401526200169a818562001569565b979650505050505050565b60005b83811015620016c2578181015183820152602001620016a8565b50506000910152565b60008251620016df818460208701620016a5565b9190910192915050565b6000815180845262001703816020860160208601620016a5565b601f01601f19169290920160200192915050565b60208152600062000ca26020830184620016e9565b6000602082840312156200173f57600080fd5b815180151581146200118957600080fd5b6001600160e01b031983168152815160009062001775816004850160208701620016a5565b919091016004019392505050565b608081526000620017986080830187620016e9565b602083820381850152620017ad828862001569565b91508382036040850152620017c38287620015af565b915083820360608501528185518084528284019150828160051b85010183880160005b838110156200181857601f1987840301855262001805838351620016e9565b94860194925090850190600101620017e6565b50909b9a5050505050505050505050565b608051614a3362001853600039600081816102bd015281816107ae015261083a0152614a336000f3fe608060405234801561001057600080fd5b50600436106101fb5760003560e01c80639b19dbfd1161011a578063c441c4a8116100ad578063de981f1b1161007c578063de981f1b146104f4578063e75235b81461051f578063e9c0349814610527578063f80b53521461053a578063fdc4fa471461054257600080fd5b8063c441c4a814610497578063cc7e6b3b146104ae578063d78392f8146104ce578063dafae408146104e157600080fd5b8063b405aaf2116100e9578063b405aaf214610441578063b9c3620914610454578063bc9182fd1461047c578063bc96180b1461048f57600080fd5b80639b19dbfd146103c35780639b2ee437146103cb578063ada86b24146103de578063b384abef146103e657600080fd5b8063562d5304116101925780637de5dedd116101615780637de5dedd14610332578063800eaab31461033a578063865e6fd31461034d578063901979d51461036057600080fd5b8063562d5304146102df5780635e05cf9e146102e7578063776fb1ec146102fc5780637d465f791461031f57600080fd5b80632d6d7d73116101ce5780632d6d7d731461027257806334d5f37b1461028557806335da8121146102a55780633644e515146102b857600080fd5b806301a5f43f146102005780630a44fa43146102295780630f7c31891461024a5780631f4253381461025f575b600080fd5b61021361020e366004613a5b565b610555565b6040516102209190613b31565b60405180910390f35b61023c610237366004613b44565b610608565b604051908152602001610220565b61025261068d565b6040516102209190613bbe565b61021361026d366004613b44565b6106ab565b610252610280366004613b44565b6106f8565b61023c610293366004613bd1565b60006020819052908152604090205481565b6102136102b3366004613b44565b61073c565b61023c7f000000000000000000000000000000000000000000000000000000000000000081565b61023c610782565b6102fa6102f5366004613c2e565b61079b565b005b61030f61030a366004613bd1565b6107da565b6040519015158152602001610220565b6102fa61032d366004613cca565b610827565b61023c61085f565b6102fa610348366004613eb2565b6108db565b6102fa61035b366004613f24565b610920565b61023c61036e366004613f57565b6001600160a01b0390811660009081526000805160206149c7833981519152602090815260408083205490931682526000805160206149a783398151915290522054600160a01b90046001600160601b031690565b61025261093b565b6102fa6103d9366004613f57565b610945565b61023c610adc565b6104306103f4366004613f72565b600160208181526000938452604080852090915291835291208054918101546002820154600383015460069093015460ff909416939192909185565b604051610220959493929190613faa565b61030f61044f366004613f57565b610af4565b610467610462366004613f72565b610b0e565b60408051928352602083019190915201610220565b61025261048a366004613fdf565b610b2f565b61023c610c20565b61049f610c2b565b60405161022093929190614043565b6104c16104bc366004613b44565b610c55565b6040516102209190614086565b61023c6104dc366004613f57565b610c93565b61030f6104ef366004613bd1565b610c9e565b610507610502366004614099565b610cdb565b6040516001600160a01b039091168152602001610220565b610467610d56565b610213610535366004613b44565b610d87565b610252610dcd565b610252610550366004613b44565b610dd7565b606061055f6110c6565b6105fd87878080602002602001604051908101604052809392919081815260200183836020028082843760009201919091525050604080516020808b0282810182019093528a82529093508a92508991829185019084908082843760009201919091525050604080516020808a028281018201909352898252909350899250889182918501908490808284376000920191909152506110f692505050565b979650505050505050565b600082828080602002602001604051908101604052809392919081815260200183836020028082843760009201919091525061064992508391506114729050565b6106858484808060200260200160405190810160405280939291908181526020018383602002808284376000920191909152506114aa92505050565b949350505050565b60606106a66000805160206149478339815191526110b9565b905090565b60606106b56110c6565b6106f183838080602002602001604051908101604052809392919081815260200183836020028082843760009201919091525061155192505050565b9392505050565b60606106f183838080602002602001604051908101604052809392919081815260200183836020028082843760009201829052509250611613915050565b92915050565b60606107466110c6565b6106f183838080602002602001604051908101604052809392919081815260200183836020028082843760009201919091525061176d92505050565b60006106a66000805160206149e783398151915261185f565b6107a433611869565b6107d385858585857f0000000000000000000000000000000000000000000000000000000000000000336118a2565b5050505050565b60008060008381527fa6eef7e35abe7026729641147f7915573c7e97b47efa546f5f6e3230263bcb49602052604090205460ff16600481111561081f5761081f613f94565b141592915050565b61083033611869565b6107d385858585857f000000000000000000000000000000000000000000000000000000000000000033611947565b60006108776000805160206149678339815191525490565b600161088f6000805160206149678339815191525490565b6108bd6108a8600080516020614a078339815191525490565b600080516020614987833981519152906119a3565b6108c791906140ca565b6108d191906140dd565b6106a691906140f0565b333014610912576000356001600160e01b0319166040516307337e1960e41b81526004016109099190614112565b60405180910390fd5b61091c82826119ce565b5050565b6109286110c6565b61093181611a7c565b61091c8282611ab2565b60606106a6611b56565b61094e33611869565b61095781611b6f565b3360009081526000805160206149a783398151915260208190526040909120546001600160a01b0390811690831681036109af57604051630669b93360e31b81526001600160a01b0384166004820152602401610909565b6000805160206149e783398151915260006109ca8284611ba4565b80156109db57506109db8286610ec2565b905080610a065760405163080fab4b60e31b81526001600160a01b0386166004820152602401610909565b6001600160a01b0383811660008181526000805160206149c78339815191526020818152604080842080546001600160a01b0319908116909155958b16808552818520805488163390811790915585528a8352938190208054909616841790955584519081019390935292820152610a99906364b18d0960e11b906060015b604051602081830303815290604052611bb9565b6040516001600160a01b03808816919086169033907fcef34cd748f30a1b7a2f214fd1651779f79bc6c1be02785cad5c1f0ee877213d90600090a4505050505050565b60006106a6600080516020614a078339815191525490565b60006107366000805160206149e783398151915283610fe1565b600080610b196110c6565b610b238484611dae565b915091505b9250929050565b8051606090806001600160401b03811115610b4c57610b4c613d0d565b604051908082528060200260200182016040528015610b75578160200160208202803683370190505b5091506000805160206149a783398151915260005b82811015610c1857816000868381518110610ba757610ba7614127565b60200260200101516001600160a01b03166001600160a01b0316815260200190815260200160002060000160009054906101000a90046001600160a01b0316848281518110610bf857610bf8614127565b6001600160a01b0390921660209283029190910190910152600101610b8a565b505050919050565b60006106a660025490565b6060806060610c38611ea3565b9250610c4383610b2f565b9150610c4e83611ece565b9050909192565b60606106f1838380806020026020016040519081016040528093929190818152602001838360200280828437600092019190915250611ece92505050565b600061073682611fb3565b6000610cb96108a8600080516020614a078339815191525490565b60008051602061496783398151915254610cd3908461413d565b101592915050565b60007fdea3103d22025c269050bea94c0c84688877f12fa22b7e6d2d5d78a9a49aa1cb600083600d811115610d1257610d12613f94565b60ff1681526020810191909152604001600020546001600160a01b0316905080610d51578160405163409140df60e11b81526004016109099190614154565b919050565b600080610d6f6000805160206149878339815191525490565b60008051602061496783398151915254915091509091565b6060610d916110c6565b6106f1838380806020026020016040519081016040528093929190818152602001838360200280828437600092019190915250611feb92505050565b60606106a6611ea3565b606081806001600160401b03811115610df257610df2613d0d565b604051908082528060200260200182016040528015610e1b578160200160208202803683370190505b5091506000805160206149c783398151915260005b82811015610eb557816000878784818110610e4d57610e4d614127565b9050602002016020810190610e629190613f57565b6001600160a01b0390811682526020820192909252604001600020548551911690859083908110610e9557610e95614127565b6001600160a01b0390921660209283029190910190910152600101610e30565b50505092915050565b9055565b60006106f1836001600160a01b0384166122d0565b81518151606091908082016001600160401b03811115610ef957610ef9613d0d565b604051908082528060200260200182016040528015610f22578160200160208202803683370190505b50925060005b82811015610f7c57858181518110610f4257610f42614127565b6020026020010151848281518110610f5c57610f5c614127565b6001600160a01b0390921660209283029190910190910152600101610f28565b60005b82811015610fd757858181518110610f9957610f99614127565b6020026020010151858381518110610fb357610fb3614127565b6001600160a01b039092166020928302919091019091015260019182019101610f7f565b5050505092915050565b6001600160a01b038116600090815260018301602052604081205415156106f1565b600061073683611013858561231f565b9250829055565b6000815160000361102d57506000919050565b60005b60018351038110156110b057600181015b83518110156110a75783818151811061105c5761105c614127565b60200260200101516001600160a01b031684838151811061107f5761107f614127565b60200260200101516001600160a01b03160361109f575060019392505050565b600101611041565b50600101611030565b50600092915050565b606060006106f18361233e565b3330146110f4576000356001600160e01b0319166040516307337e1960e41b81526004016109099190614112565b565b60606111028383610ed7565b61110b81611472565b825185518114801561111d5750845181145b611148576000356001600160e01b0319166040516306b5667560e21b81526004016109099190614112565b806001600160401b0381111561116057611160613d0d565b604051908082528060200260200182016040528015611189578160200160208202803683370190505b5092508060000361119a575061146a565b604080518082019091526000808252602082018190527f546f6b46ab35b030b6816596b352aef78857377176c8b24baa2046a62cf1998c916000805160206149c7833981519152916000805160206149e7833981519152916000805160206149a7833981519152919081908190815b898110156113eb578d818151811061122357611223614127565b602002602001015194508c818151811061123f5761123f614127565b6020026020010151935061125285611b6f565b61125b84611b6f565b8e818151811061126d5761126d614127565b60200260200101516001600160601b03166000036112ac576000356001600160e01b031916604051637f11b8a360e11b81526004016109099190614112565b6112b68986610fe1565b806112c657506112c68985610fe1565b806112d657506112d68786610fe1565b806112e657506112e68785610fe1565b158c82815181106112f9576112f9614127565b6020026020010190151590811515815250508b818151811061131d5761131d614127565b6020026020010151156113e3576113348986610ec2565b5061133f8785610ec2565b506001600160a01b03848116600081815260208b90526040902080546001600160a01b0319169288169290921790915582528e518f908290811061138557611385614127565b6020908102919091018101516001600160601b03169083018190526113aa90846140ca565b6001600160a01b038087166000908152602089815260409091208551918601516001600160601b0316600160a01b029190921617905592505b600101611209565b50611404600080516020614a0783398151915283611003565b50611423635ebae8a060e01b8d8d604051602001610a8592919061416e565b7f897810999654e525e272b5909785c4d0ceaee1bbf9c87d9091a37558b0423b788b8f8f8f604051611458949392919061419c565b60405180910390a15050505050505050505b509392505050565b61147b8161101a565b156114a7576000356001600160e01b031916604051630d697db160e11b81526004016109099190614112565b50565b6000816114b681611472565b60006114cf6000805160206149e783398151915261185f565b90506000805160206149a783398151915260005b828110156115485781600087838151811061150057611500614127565b6020908102919091018101516001600160a01b031682528101919091526040016000205461153e90600160a01b90046001600160601b0316866140ca565b94506001016114e3565b50505050919050565b60608161155d81611472565b8251806001600160401b0381111561157757611577613d0d565b6040519080825280602002602001820160405280156115a0578160200160208202803683370190505b50925060008051602061494783398151915260005b82811015611548576115e98682815181106115d2576115d2614127565b602002602001015183611ba490919063ffffffff16565b8582815181106115fb576115fb614127565b911515602092830291909101909101526001016115b5565b606082516001600160401b0381111561162e5761162e613d0d565b604051908082528060200260200182016040528015611657578160200160208202803683370190505b50905060005b8351811015611766576003600085838151811061167c5761167c614127565b6020026020010151600381111561169557611695613f94565b60038111156116a6576116a6613f94565b815260200190815260200160002060009054906101000a90046001600160a01b03168282815181106116da576116da614127565b60200260200101906001600160a01b031690816001600160a01b031681525050828015611732575060006001600160a01b031682828151811061171f5761171f614127565b60200260200101516001600160a01b0316145b1561175e576000356001600160e01b03191660405163053265f160e01b81526004016109099190614112565b60010161165d565b5092915050565b60608161177981611472565b8251806001600160401b0381111561179357611793613d0d565b6040519080825280602002602001820160405280156117bc578160200160208202803683370190505b509250806000036117cd5750611859565b60008051602061494783398151915260006314d72edb60e21b815b848110156118535787818151811061180257611802614127565b6020026020010151925061181583611a7c565b61181f838361239a565b6118298484610ec2565b87828151811061183b5761183b614127565b911515602092830291909101909101526001016117e8565b50505050505b50919050565b6000610736825490565b61187281611fb3565b6000036114a7576000356001600160e01b0319166003604051620f948f60ea1b8152600401610909929190614219565b6118b46118ae88614385565b8261252d565b5060006118c86118c389614385565b612633565b905061193d6118d689614385565b88888888611929896118e9896000612772565b60405161190160f01b6020820152602281018390526042810182905260009060620160405160208183030381529060405280519060200120905092915050565b6119388a6118e98a6001612772565b6127ab565b5050505050505050565b600061195b61195589614459565b83612ba2565b9050600061197061196b8a614459565b612cec565b905061199882898989896119898a6118e9896000612772565b6119388b6118e98a6001612772565b505050505050505050565b600082548015611766578281029150808204831461176657634e487b7160005260116020526024601cfd5b60005b8251811015611a7757306001600160a01b03168282815181106119f6576119f6614127565b60200260200101516001600160a01b031603611a33576000356001600160e01b03191660405163053265f160e01b81526004016109099190614112565b611a6f838281518110611a4857611a48614127565b6020026020010151838381518110611a6257611a62614127565b6020026020010151612e23565b6001016119d1565b505050565b806001600160a01b03163b6000036114a757604051630bfc64a360e21b81526001600160a01b0382166004820152602401610909565b807fdea3103d22025c269050bea94c0c84688877f12fa22b7e6d2d5d78a9a49aa1cb600084600d811115611ae857611ae8613f94565b60ff168152602081019190915260400160002080546001600160a01b0319166001600160a01b03928316179055811682600d811115611b2957611b29613f94565b6040517f865d1c228a8ea13709cfe61f346f7ff67f1bbd4a18ff31ad3e7147350d317c5990600090a35050565b60606106a66000805160206149e78339815191526110b9565b6001600160a01b0381166114a7576000356001600160e01b03191660405163104c66df60e31b81526004016109099190614112565b60006106f1836001600160a01b038416612eb6565b6000611bd26000805160206149478339815191526110b9565b80519091506000819003611be65750505050565b6000816001600160401b03811115611c0057611c00613d0d565b604051908082528060200260200182016040528015611c29578160200160208202803683370190505b5090506000826001600160401b03811115611c4657611c46613d0d565b604051908082528060200260200182016040528015611c7957816020015b6060815260200190600190039081611c645790505b50905060008686604051602001611c91929190614547565b604051602081830303815290604052905060005b84811015611d6757858181518110611cbf57611cbf614127565b60200260200101516001600160a01b031682604051611cde9190614578565b6000604051808303816000865af19150503d8060008114611d1b576040519150601f19603f3d011682016040523d82523d6000602084013e611d20565b606091505b50858381518110611d3357611d33614127565b60200260200101858481518110611d4c57611d4c614127565b60209081029190910101919091529015159052600101611ca5565b507fc0b07a27e66788f39cc91405f012f34066b16f31b4bda9438c52f2dae0cc5b6381868585604051611d9d9493929190614612565b60405180910390a150505050505050565b60008082841115611de0576000356001600160e01b0319166040516387f6f09560e01b81526004016109099190614112565b600080516020614987833981519152549150611e086000805160206149678339815191525490565b9050611e21600080516020614987833981519152859055565b611e38600080516020614967833981519152849055565b8284611e637f92872d32822c9d44b36a2537d3e0d4c46fc4de1ce154ccfaed560a8a58445f1d612fa9565b60408051868152602081018690527f976f8a9c5bdf8248dec172376d6e2b80a8e3df2f0328e381c6db8e1cf138c0f8910160405180910390a49250929050565b60606106a67f546f6b46ab35b030b6816596b352aef78857377176c8b24baa2046a62cf1998c6110b9565b8051606090806001600160401b03811115611eeb57611eeb613d0d565b604051908082528060200260200182016040528015611f14578160200160208202803683370190505b5091506000805160206149a783398151915260005b82811015610c1857816000868381518110611f4657611f46614127565b60200260200101516001600160a01b03166001600160a01b0316815260200190815260200160002060000160149054906101000a90046001600160601b03166001600160601b0316848281518110611fa057611fa0614127565b6020908102919091010152600101611f29565b6001600160a01b031660009081526000805160206149a78339815191526020526040902054600160a01b90046001600160601b031690565b606081611ff781611472565b8251806001600160401b0381111561201157612011613d0d565b60405190808252806020026020018201604052801561203a578160200160208202803683370190505b5092508060000361204b5750611859565b604080518082019091526000808252602082018190526000805160206149c7833981519152917f546f6b46ab35b030b6816596b352aef78857377176c8b24baa2046a62cf1998c916000805160206149e7833981519152916000805160206149a7833981519152919081908190815b89811015612250578c81815181106120d4576120d4614127565b6020908102919091018101516001600160a01b038082166000908152928c90526040909220549091169550935061210a85611b6f565b61211384611b6f565b6001600160a01b0385811660009081526020888152604091829020825180840190935254808416808452600160a01b9091046001600160601b03169183019190915290935090851614612187576000356001600160e01b03191660405163053265f160e01b81526004016109099190614112565b6121918785610fe1565b80156121a257506121a28886610fe1565b8c82815181106121b4576121b4614127565b6020026020010190151590811515815250508b81815181106121d8576121d8614127565b602002602001015115612248576121ef8886611ba4565b506121fa8785611ba4565b506001600160a01b03808516600090815260208b8152604080832080546001600160a01b0319169055928816825288815291812055820151612245906001600160601b0316846140ca565b92505b6001016120ba565b50612269600080516020614a0783398151915283612fc4565b5061228863c48549de60e01b8d8d604051602001610a8592919061416e565b7fdf3dcd7987202f64648f3acdbf12401e3a2bb23e77e19f99826b5475cbb863698b8d6040516122b992919061465f565b60405180910390a150505050505050505050919050565b600081815260018301602052604081205461231757508154600181810184556000848152602080822090930184905584548482528286019093526040902091909155610736565b506000610736565b815481018181101561073657634e487b7160005260116020526024601cfd5b60608160000180548060200260200160405190810160405280929190818152602001828054801561238e57602002820191906000526020600020905b81548152602001906001019080831161237a575b50505050509050919050565b6000816040516024016123ad9190614112565b60408051601f198184030181529181526020820180516001600160e01b03166301ffc9a760e01b1790525190915060009081906001600160a01b038616906123f6908590614578565b600060405180830381855afa9150503d8060008114612431576040519150601f19603f3d011682016040523d82523d6000602084013e612436565b606091505b5091509150816124f857846001600160a01b03168360405160240161245b9190614684565b60408051601f198184030181529181526020820180516001600160e01b03166325da93a560e11b179052516124909190614578565b600060405180830381855afa9150503d80600081146124cb576040519150601f19603f3d011682016040523d82523d6000602084013e6124d0565b606091505b509092509050816124f857838560405163069d427960e11b8152600401610909929190614697565b8080602001905181019061250c91906146ba565b6107d357838560405163069d427960e11b8152600401610909929190614697565b602082015160009080820361256f5760405163092048d160e11b8152600080356001600160e01b03191660048301526024820152466044820152606401610909565b60025461257d908590612fd4565b600061258885612633565b905061259382613075565b600083815260016020818152604080842085855290915291829020918801519082018490556006909101559250845183146125ef576000356001600160e01b03191660405163d4cec26960e01b81526004016109099190614112565b8083837fa57d40f1496988cf60ab7c9d5ba4ff83647f67d3898d441a3aaf21b651678fd98888604051612623929190614796565b60405180910390a4505092915050565b6080810151606082015160a083015151600092919083906001600160401b0381111561266157612661613d0d565b60405190808252806020026020018201604052801561268a578160200160208202803683370190505b5060c086015190915060005b82518110156126e9578660a0015181815181106126b5576126b5614127565b6020026020010151805190602001208382815181106126d6576126d6614127565b6020908102919091010152600101612696565b50604080517fd051578048e6ff0bbc9fca3b65a42088dbde10f36ca841de566711087ad9b08a8152875160208083019190915280890151828401529790910151606082015283518702938701939093206080840152835186029386019390932060a0830152805185029085012060c082015281518402919093012060e083015250610100902090565b604080517fd900570327c4c0df8dd6bdd522b7da7e39145dd049d2fd4602276adcd511e3c2815260208101939093528201526060902090565b84158015906127b957508483145b6127e4576000356001600160e01b0319166040516306b5667560e21b81526004016109099190614112565b60008080856001600160401b0381111561280057612800613d0d565b604051908082528060200260200182016040528015612829578160200160208202803683370190505b5090506000866001600160401b0381111561284657612846613d0d565b60405190808252806020026020018201604052801561286f578160200160208202803683370190505b50905060008060003660005b8b811015612a00578c8c8281811061289557612895614127565b90506060020191508e8e828181106128af576128af614127565b90506020020160208101906128c491906147c0565b925060008360018111156128da576128da613f94565b03612944576128ff8b6128f060208501856147e1565b84602001358560400135613111565b945084878a61290d81614804565b9b508151811061291f5761291f614127565b60200260200101906001600160a01b031690816001600160a01b0316815250506129b5565b600183600181111561295857612958613f94565b0361298e5761296e8a6128f060208501856147e1565b945084868961297c81614804565b9a508151811061291f5761291f614127565b6000356001600160e01b031916604051630612418f60e11b81526004016109099190614112565b846001600160a01b0316846001600160a01b0316106129f5576000356001600160e01b031916604051635d3dcd3160e01b81526004016109099190614112565b84935060010161287b565b50505085845250508281526020808c015160009081526001825260408082208e51835290925290812090612a32613139565b90506000612a3f85613143565b9050818110612ac65780600003612a77576000356001600160e01b031916604051637f11b8a360e11b81526004016109099190614112565b825460ff1916600190811784558301546040517f5c819725ea53655a3b898f3df59b66489761935454e9212ca1e5ebd759953d0b90600090a2612aba838f61314e565b50505050505050612b99565b600082612ad16131bb565b612adb91906140dd565b612ae69060016140ca565b90506000612af386613143565b9050818110612b725780600003612b2b576000356001600160e01b031916604051637f11b8a360e11b81526004016109099190614112565b845460ff1916600317855560018501546040517f55295d4ce992922fa2e5ffbf3a3dcdb367de0a15e125ace083456017fd22060f90600090a2505050505050505050612b99565b6000356001600160e01b031916604051634ccfe64360e11b81526004016109099190614112565b50505050505050565b612be26040518060e00160405280600081526020016000815260200160008152602001606081526020016060815260200160608152602001606081525090565b612bfb612bf484604001516001611613565b84906131c5565b9050612c1260025482612fd490919063ffffffff16565b6000612c1d82612633565b90506000612c2b6000613075565b60008181527fa6eef7e35abe7026729641147f7915573c7e97b47efa546f5f6e3230263bcb49602090815260409091209087015160018201859055600690910155905082518114612c9d576000356001600160e01b03191660405163d4cec26960e01b81526004016109099190614112565b81817f771d78ae9e5fca95a532fb0971d575d0ce9b59d14823c063e08740137e0e0eca85612cca89612cec565b8989604051612cdc949392919061481d565b60405180910390a3505092915050565b60608101516040820151608083015151600092919083906001600160401b03811115612d1a57612d1a613d0d565b604051908082528060200260200182016040528015612d43578160200160208202803683370190505b5060a086015190915060005b8251811015612da25786608001518181518110612d6e57612d6e614127565b602002602001015180519060200120838281518110612d8f57612d8f614127565b6020908102919091010152600101612d4f565b50604080517f1463f426c05aff2c1a7a0957a71c9898bc8b47142540538e79ee25ee911413508152875160208083019190915297880151918101919091528351870293870193909320606084015283518602938601939093206080830152805185029085012060a082015281518402919093012060c08301525060e0902090565b8060036000846003811115612e3a57612e3a613f94565b6003811115612e4b57612e4b613f94565b8152602081019190915260400160002080546001600160a01b0319166001600160a01b039283161790558116826003811115612e8957612e89613f94565b6040517f356c8c57e9e84b99b1cb58b13c985b2c979f78cbdf4d0fa70fe2a98bb09a099d90600090a35050565b60008181526001830160205260408120548015612f9f576000612eda6001836140dd565b8554909150600090612eee906001906140dd565b9050818114612f53576000866000018281548110612f0e57612f0e614127565b9060005260206000200154905080876000018481548110612f3157612f31614127565b6000918252602080832090910192909255918252600188019052604090208390555b8554869080612f6457612f6461490b565b600190038181906000526020600020016000905590558560010160008681526020019081526020016000206000905560019350505050610736565b6000915050610736565b6000612fb3825490565b9050610d5182610ebe8360016140ca565b60006107368361101385856132ef565b6000826060015151118015612ff25750816080015151826060015151145b801561300757508160a0015151826060015151145b801561301c57508160c0015151826060015151145b613047576000356001600160e01b0319166040516306b5667560e21b81526004016109099190614112565b61305181426140ca565b8260400151111561091c5760405163ad89be9d60e01b815260040160405180910390fd5b600081815260208190526040812054908190036130a45750600090815260208190526040902060019081905590565b60008281526001602090815260408083208484529091528120906000825460ff1660048111156130d6576130d6613f94565b036130f45760405163757a436360e01b815260040160405180910390fd5b505050600090815260208190526040902080546001019081905590565b6000806000613122878787876134ca565b9150915061312f816135b7565b5095945050505050565b60006106a661085f565b6000610736826114aa565b6131578161376d565b1561091c57815460ff1916600217825560008061317383613787565b9150915083600101547fe134987599ae266ec90edeff1b26125b287dbb57b10822649432d1bb26537fba83836040516131ad929190614921565b60405180910390a250505050565b60006106a6610adc565b6132056040518060e00160405280600081526020016000815260200160008152602001606081526020016060815260200160608152602001606081525090565b82518152602080840151604080840191909152600091830191909152830151516001600160401b0381111561323c5761323c613d0d565b604051908082528060200260200182016040528015613265578160200160208202803683370190505b5060608083019190915283015160808083019190915283015160a08083019190915283015160c082015260005b836040015151811015611766578281815181106132b1576132b1614127565b6020026020010151826060015182815181106132cf576132cf614127565b6001600160a01b0390921660209283029190910190910152600101613292565b600082548281101561330e57634e487b7160005260116020526024601cfd5b9190910392915050565b60048301548110156133cb5782600801600084600401838154811061333f5761333f614127565b60009182526020808320909101546001600160a01b031683528201929092526040018120805460ff19169055600484018054600786019291908490811061338857613388614127565b60009182526020808320909101546001600160a01b031683528201929092526040018120805460ff19168155600181810183905560029091019190915501613318565b5060005b6005830154811015613482578260080160008460050183815481106133f6576133f6614127565b60009182526020808320909101546001600160a01b031683528201929092526040018120805460ff19169055600584018054600786019291908490811061343f5761343f614127565b60009182526020808320909101546001600160a01b031683528201929092526040018120805460ff191681556001818101839055600290910191909155016133cf565b50815460ff1916825560006001830181905560028301819055600383018190556134b09060048401906139e5565b6134be6005830160006139e5565b60006006830155919050565b6000807f7fffffffffffffffffffffffffffffff5d576e7357a4501ddfe92f46681b20a083111561350157506000905060036135ae565b8460ff16601b1415801561351957508460ff16601c14155b1561352a57506000905060046135ae565b6040805160008082526020820180845289905260ff881692820192909252606081018690526080810185905260019060a0016020604051602081039080840390855afa15801561357e573d6000803e3d6000fd5b5050604051601f1901519150506001600160a01b0381166135a7576000600192509250506135ae565b9150600090505b94509492505050565b60008160048111156135cb576135cb613f94565b036135d35750565b60018160048111156135e7576135e7613f94565b036136345760405162461bcd60e51b815260206004820152601860248201527f45434453413a20696e76616c6964207369676e617475726500000000000000006044820152606401610909565b600281600481111561364857613648613f94565b036136955760405162461bcd60e51b815260206004820152601f60248201527f45434453413a20696e76616c6964207369676e6174757265206c656e677468006044820152606401610909565b60038160048111156136a9576136a9613f94565b036137015760405162461bcd60e51b815260206004820152602260248201527f45434453413a20696e76616c6964207369676e6174757265202773272076616c604482015261756560f01b6064820152608401610909565b600481600481111561371557613715613f94565b036114a75760405162461bcd60e51b815260206004820152602260248201527f45434453413a20696e76616c6964207369676e6174757265202776272076616c604482015261756560f01b6064820152608401610909565b600081602001516000148061073657505060200151461490565b6060806137938361376d565b6137d157602083015160405163092048d160e11b81526000356001600160e01b03191660048201526024810191909152466044820152606401610909565b8260600151516001600160401b038111156137ee576137ee613d0d565b604051908082528060200260200182016040528015613817578160200160208202803683370190505b5091508260600151516001600160401b0381111561383757613837613d0d565b60405190808252806020026020018201604052801561386a57816020015b60608152602001906001900390816138555790505b50905060005b8360600151518110156139df578360c00151818151811061389357613893614127565b60200260200101515a116138c6576138aa84612633565b6040516307aec4ab60e21b815260040161090991815260200190565b836060015181815181106138dc576138dc614127565b60200260200101516001600160a01b03168460800151828151811061390357613903614127565b60200260200101518560c00151838151811061392157613921614127565b6020026020010151908660a00151848151811061394057613940614127565b60200260200101516040516139559190614578565b600060405180830381858888f193505050503d8060008114613993576040519150601f19603f3d011682016040523d82523d6000602084013e613998565b606091505b508483815181106139ab576139ab614127565b602002602001018484815181106139c4576139c4614127565b60209081029190910101919091529015159052600101613870565b50915091565b50805460008255906000526020600020908101906114a791905b80821115613a1357600081556001016139ff565b5090565b60008083601f840112613a2957600080fd5b5081356001600160401b03811115613a4057600080fd5b6020830191508360208260051b8501011115610b2857600080fd5b60008060008060008060608789031215613a7457600080fd5b86356001600160401b0380821115613a8b57600080fd5b613a978a838b01613a17565b90985096506020890135915080821115613ab057600080fd5b613abc8a838b01613a17565b90965094506040890135915080821115613ad557600080fd5b50613ae289828a01613a17565b979a9699509497509295939492505050565b600081518084526020808501945080840160005b83811015613b26578151151587529582019590820190600101613b08565b509495945050505050565b6020815260006106f16020830184613af4565b60008060208385031215613b5757600080fd5b82356001600160401b03811115613b6d57600080fd5b613b7985828601613a17565b90969095509350505050565b600081518084526020808501945080840160005b83811015613b265781516001600160a01b031687529582019590820190600101613b99565b6020815260006106f16020830184613b85565b600060208284031215613be357600080fd5b5035919050565b60008083601f840112613bfc57600080fd5b5081356001600160401b03811115613c1357600080fd5b602083019150836020606083028501011115610b2857600080fd5b600080600080600060608688031215613c4657600080fd5b85356001600160401b0380821115613c5d57600080fd5b9087019060e0828a031215613c7157600080fd5b90955060208701359080821115613c8757600080fd5b613c9389838a01613a17565b90965094506040880135915080821115613cac57600080fd5b50613cb988828901613bea565b969995985093965092949392505050565b600080600080600060608688031215613ce257600080fd5b85356001600160401b0380821115613cf957600080fd5b9087019060c0828a031215613c7157600080fd5b634e487b7160e01b600052604160045260246000fd5b60405160e081016001600160401b0381118282101715613d4557613d45613d0d565b60405290565b60405160c081016001600160401b0381118282101715613d4557613d45613d0d565b604051601f8201601f191681016001600160401b0381118282101715613d9557613d95613d0d565b604052919050565b60006001600160401b03821115613db657613db6613d0d565b5060051b60200190565b600082601f830112613dd157600080fd5b81356020613de6613de183613d9d565b613d6d565b82815260059290921b84018101918181019086841115613e0557600080fd5b8286015b84811015613e2e57803560048110613e215760008081fd5b8352918301918301613e09565b509695505050505050565b80356001600160a01b0381168114610d5157600080fd5b600082601f830112613e6157600080fd5b81356020613e71613de183613d9d565b82815260059290921b84018101918181019086841115613e9057600080fd5b8286015b84811015613e2e57613ea581613e39565b8352918301918301613e94565b60008060408385031215613ec557600080fd5b82356001600160401b0380821115613edc57600080fd5b613ee886838701613dc0565b93506020850135915080821115613efe57600080fd5b50613f0b85828601613e50565b9150509250929050565b8035600e8110610d5157600080fd5b60008060408385031215613f3757600080fd5b613f4083613f15565b9150613f4e60208401613e39565b90509250929050565b600060208284031215613f6957600080fd5b6106f182613e39565b60008060408385031215613f8557600080fd5b50508035926020909101359150565b634e487b7160e01b600052602160045260246000fd5b60a0810160058710613fbe57613fbe613f94565b95815260208101949094526040840192909252606083015260809091015290565b600060208284031215613ff157600080fd5b81356001600160401b0381111561400757600080fd5b61068584828501613e50565b600081518084526020808501945080840160005b83811015613b2657815187529582019590820190600101614027565b6060815260006140566060830186613b85565b82810360208401526140688186613b85565b9050828103604084015261407c8185614013565b9695505050505050565b6020815260006106f16020830184614013565b6000602082840312156140ab57600080fd5b6106f182613f15565b634e487b7160e01b600052601160045260246000fd5b80820180821115610736576107366140b4565b81810381811115610736576107366140b4565b60008261410d57634e487b7160e01b600052601260045260246000fd5b500490565b6001600160e01b031991909116815260200190565b634e487b7160e01b600052603260045260246000fd5b8082028115828204841417610736576107366140b4565b60208101600e831061416857614168613f94565b91905290565b6040815260006141816040830185613b85565b82810360208401526141938185613af4565b95945050505050565b6080815260006141af6080830187613af4565b82810360208481019190915286518083528782019282019060005b818110156141ef5784516001600160601b0316835293830193918301916001016141ca565b505084810360408601526142038188613b85565b9250505082810360608401526105fd8185613b85565b6001600160e01b031983168152604081016009831061423a5761423a613f94565b8260208301529392505050565b600082601f83011261425857600080fd5b81356020614268613de183613d9d565b82815260059290921b8401810191818101908684111561428757600080fd5b8286015b84811015613e2e578035835291830191830161428b565b6000601f83818401126142b457600080fd5b823560206142c4613de183613d9d565b82815260059290921b850181019181810190878411156142e357600080fd5b8287015b848110156143795780356001600160401b03808211156143075760008081fd5b818a0191508a603f83011261431c5760008081fd5b8582013560408282111561433257614332613d0d565b614343828b01601f19168901613d6d565b92508183528c8183860101111561435a5760008081fd5b81818501898501375060009082018701528452509183019183016142e7565b50979650505050505050565b600060e0823603121561439757600080fd5b61439f613d23565b82358152602083013560208201526040830135604082015260608301356001600160401b03808211156143d157600080fd5b6143dd36838701613e50565b606084015260808501359150808211156143f657600080fd5b61440236838701614247565b608084015260a085013591508082111561441b57600080fd5b614427368387016142a2565b60a084015260c085013591508082111561444057600080fd5b5061444d36828601614247565b60c08301525092915050565b600060c0823603121561446b57600080fd5b614473613d4b565b823581526020830135602082015260408301356001600160401b038082111561449b57600080fd5b6144a736838701613dc0565b604084015260608501359150808211156144c057600080fd5b6144cc36838701614247565b606084015260808501359150808211156144e557600080fd5b6144f1368387016142a2565b608084015260a085013591508082111561450a57600080fd5b5061451736828601614247565b60a08301525092915050565b60005b8381101561453e578181015183820152602001614526565b50506000910152565b6001600160e01b031983168152815160009061456a816004850160208701614523565b919091016004019392505050565b6000825161458a818460208701614523565b9190910192915050565b600081518084526145ac816020860160208601614523565b601f01601f19169290920160200192915050565b6000815180845260208085019450848260051b860182860160005b858110156146055783830389526145f3838351614594565b988501989250908401906001016145db565b5090979650505050505050565b6080815260006146256080830187614594565b82810360208401526146378187613b85565b9050828103604084015261464b8186613af4565b905082810360608401526105fd81856145c0565b6040815260006146726040830185613af4565b82810360208401526141938185613b85565b6020815260006106f16020830184614594565b6001600160e01b03199290921682526001600160a01b0316602082015260400190565b6000602082840312156146cc57600080fd5b815180151581146106f157600080fd5b600060e08301825184526020808401518186015260408401516040860152606084015160e06060870152828151808552610100880191508383019450600092505b808310156147465784516001600160a01b0316825293830193600192909201919083019061471d565b506080860151935086810360808801526147608185614013565b935050505060a083015184820360a086015261477c82826145c0565b91505060c083015184820360c08601526141938282614013565b6040815260006147a960408301856146dc565b905060018060a01b03831660208301529392505050565b6000602082840312156147d257600080fd5b8135600281106106f157600080fd5b6000602082840312156147f357600080fd5b813560ff811681146106f157600080fd5b600060018201614816576148166140b4565b5060010190565b60808152600061483060808301876146dc565b60208681850152838203604085015260c08201865183528187015182840152604087015160c0604085015281815180845260e0860191508483019350600092505b808310156148a15783516004811061488b5761488b613f94565b8252928401926001929092019190840190614871565b506060890151935084810360608601526148bb8185614013565b9350505050608086015182820360808401526148d782826145c0565b91505060a086015182820360a08401526148f18282614013565b935050505061419360608301846001600160a01b03169052565b634e487b7160e01b600052603160045260246000fd5b6040815260006149346040830185613af4565b828103602084015261419381856145c056fe5da136eb38f8d8e354915fc8a767c0dc81d49de5fb65d5477122a82ddd976240ac1ff16a4f04f2a37a9ba5252a69baa100b460e517d1f8019c054a5ad698f9ffc55405a488814eaa0e2a685a0131142785b8d033d311c8c8244e34a7c12ca40f88547008e60f5748911f2e59feb3093b7e4c2e87b2dd69d61f112fcc932de8e38400683eb2cb350596d73644c0c89fe45f108600003457374f4ab3e87b4f3aa3d38c234075fde25875da8a6b7e36b58b86681d483271a99eeeee1d78e258a24d6924fe71b0c8b61aea02ca498b5f53b29bd95726278b1fe4eb791bb24a42644ca164736f6c6343000811000a5da136eb38f8d8e354915fc8a767c0dc81d49de5fb65d5477122a82ddd976240",
  "devdoc": {
    "errors": {
      "ErrBridgeOperatorAlreadyExisted(address)": [
        {
          "details": "Error thrown when attempting to add a bridge operator that already exists in the contract. This error indicates that the provided bridge operator address is already registered as a bridge operator in the contract."
        }
      ],
      "ErrBridgeOperatorUpdateFailed(address)": [
        {
          "details": "Error raised when a bridge operator update operation fails.",
          "params": {
            "bridgeOperator": "The address of the bridge operator that failed to update."
          }
        }
      ],
      "ErrContractTypeNotFound(uint8)": [
        {
          "details": "Error of invalid role."
        }
      ],
      "ErrCurrentProposalIsNotCompleted()": [
        {
          "details": "Error thrown when the current proposal is not completed."
        }
      ],
      "ErrDuplicated(bytes4)": [
        {
          "details": "Error thrown when a duplicated element is detected in an array.",
          "params": {
            "msgSig": "The function signature that invoke the error."
          }
        }
      ],
      "ErrInsufficientGas(bytes32)": [
        {
          "details": "Error thrown when there is insufficient gas to execute a function."
        }
      ],
      "ErrInvalidArguments(bytes4)": [
        {
          "details": "Error indicating that arguments are invalid."
        }
      ],
      "ErrInvalidChainId(bytes4,uint256,uint256)": [
        {
          "details": "Error indicating that the chain ID is invalid.",
          "params": {
            "actual": "Current chain ID that executing function.",
            "expected": "Expected chain ID required for the tx to success.",
            "msgSig": "The function signature (bytes4) of the operation that encountered an invalid chain ID."
          }
        }
      ],
      "ErrInvalidExpiryTimestamp()": [
        {
          "details": "Error thrown when an invalid expiry timestamp is provided."
        }
      ],
      "ErrInvalidOrder(bytes4)": [
        {
          "details": "Error indicating that an order is invalid.",
          "params": {
            "msgSig": "The function signature (bytes4) of the operation that encountered an invalid order."
          }
        }
      ],
      "ErrInvalidProposalNonce(bytes4)": [
        {
          "details": "Error indicating that the proposal nonce is invalid.",
          "params": {
            "msgSig": "The function signature (bytes4) of the operation that encountered an invalid proposal nonce."
          }
        }
      ],
      "ErrInvalidThreshold(bytes4)": [
        {
          "details": "Error indicating that the provided threshold is invalid for a specific function signature.",
          "params": {
            "msgSig": "The function signature (bytes4) that the invalid threshold applies to."
          }
        }
      ],
      "ErrInvalidVoteWeight(bytes4)": [
        {
          "details": "Error indicating that a vote weight is invalid for a specific function signature.",
          "params": {
            "msgSig": "The function signature (bytes4) that encountered an invalid vote weight."
          }
        }
      ],
      "ErrLengthMismatch(bytes4)": [
        {
          "details": "Error indicating a mismatch in the length of input parameters or arrays for a specific function.",
          "params": {
            "msgSig": "The function signature (bytes4) that has a length mismatch."
          }
        }
      ],
      "ErrOnlySelfCall(bytes4)": [
        {
          "details": "Error indicating that a function can only be called by the contract itself.",
          "params": {
            "msgSig": "The function signature (bytes4) that can only be called by the contract itself."
          }
        }
      ],
      "ErrRelayFailed(bytes4)": [
        {
          "details": "Error indicating that a relay call has failed.",
          "params": {
            "msgSig": "The function signature (bytes4) of the relay call that failed."
          }
        }
      ],
      "ErrUnauthorized(bytes4,uint8)": [
        {
          "details": "Error indicating that the caller is unauthorized to perform a specific function.",
          "params": {
            "expectedRole": "The role required to perform the function.",
            "msgSig": "The function signature (bytes4) that the caller is unauthorized to perform."
          }
        }
      ],
      "ErrUnsupportedInterface(bytes4,address)": [
        {
          "details": "The error indicating an unsupported interface.",
          "params": {
            "addr": "The address where the unsupported interface was encountered.",
            "interfaceId": "The bytes4 interface identifier that is not supported."
          }
        }
      ],
      "ErrUnsupportedVoteType(bytes4)": [
        {
          "details": "Error indicating that a vote type is not supported.",
          "params": {
            "msgSig": "The function signature (bytes4) of the operation that encountered an unsupported vote type."
          }
        }
      ],
      "ErrVoteIsFinalized()": [
        {
          "details": "Error thrown when attempting to interact with a finalized vote."
        }
      ],
      "ErrZeroAddress(bytes4)": [
        {
          "details": "Error indicating that given address is null when it should not."
        }
      ],
      "ErrZeroCodeContract(address)": [
        {
          "details": "Error of set to non-contract."
        }
      ]
    },
    "kind": "dev",
    "methods": {
      "addBridgeOperators(uint96[],address[],address[])": {
        "details": "Adds multiple bridge operators.",
        "params": {
          "bridgeOperators": "An array of addresses representing the bridge operators to add.",
          "governors": "An array of addresses of hot/cold wallets for bridge operator to update their node address."
        },
        "returns": {
          "addeds": "An array of booleans indicating whether each bridge operator was added successfully. Note: return boolean array `addeds` indicates whether a group (voteWeight, governor, operator) are recorded. It is expected that FE/BE staticcall to the function first to get the return values and handle it correctly. Governors are expected to see the outcome of this function and decide if they want to vote for the proposal or not. Example Usage: Making an `eth_call` in ethers.js ``` const {addeds} = await bridgeManagerContract.callStatic.addBridgeOperators(  voteWeights,  governors,  bridgeOperators,  // overriding the caller to the contract itself since we use `onlySelfCall` guard  {from: bridgeManagerContract.address} ) const filteredOperators = bridgeOperators.filter((_, index) => addeds[index]); const filteredWeights = weights.filter((_, index) => addeds[index]); const filteredGovernors = governors.filter((_, index) => addeds[index]); // ... (Process or use the information as required) ... ```"
        }
      },
      "checkThreshold(uint256)": {
        "details": "Checks whether the `_voteWeight` passes the threshold."
      },
      "getBridgeOperatorOf(address[])": {
        "details": "Returns an array of bridge operators correspoding to governor addresses.",
        "returns": {
          "bridgeOperators": "An array containing the addresses of all bridge operators."
        }
      },
      "getBridgeOperatorWeight(address)": {
        "details": "External function to retrieve the vote weight of a specific bridge operator.",
        "params": {
          "bridgeOperator": "The address of the bridge operator to get the vote weight for."
        },
        "returns": {
          "weight": "The vote weight of the specified bridge operator."
        }
      },
      "getBridgeOperators()": {
        "details": "Returns an array of all bridge operators.",
        "returns": {
          "_0": "An array containing the addresses of all bridge operators."
        }
      },
      "getCallbackRegisters()": {
        "details": "Retrieves the addresses of registered callbacks.",
        "returns": {
          "registers": "An array containing the addresses of registered callbacks."
        }
      },
      "getContract(uint8)": {
        "details": "Returns the address of a contract with a specific role. Throws an error if no contract is set for the specified role.",
        "params": {
          "contractType": "The role of the contract to retrieve."
        },
        "returns": {
          "contract_": "The address of the contract with the specified role."
        }
      },
      "getFullBridgeOperatorInfos()": {
        "details": "Retrieves the full information of all registered bridge operators. This external function allows external callers to obtain the full information of all the registered bridge operators. The returned arrays include the addresses of governors, bridge operators, and their corresponding vote weights.",
        "returns": {
          "bridgeOperators": "An array of addresses representing the registered bridge operators.",
          "governors": "An array of addresses representing the governors of each bridge operator.",
          "weights": "An array of uint256 values representing the vote weights of each bridge operator. Note: The length of each array will be the same, and the order of elements corresponds to the same bridge operator. Example Usage: ``` (address[] memory governors, address[] memory bridgeOperators, uint256[] memory weights) = getFullBridgeOperatorInfos(); for (uint256 i = 0; i < bridgeOperators.length; i++) {     // Access individual information for each bridge operator.     address governor = governors[i];     address bridgeOperator = bridgeOperators[i];     uint256 weight = weights[i];     // ... (Process or use the information as required) ... } ```"
        }
      },
      "getGovernorWeight(address)": {
        "details": "External function to retrieve the vote weight of a specific governor.",
        "params": {
          "governor": "The address of the governor to get the vote weight for."
        },
        "returns": {
          "weight": "voteWeight The vote weight of the specified governor."
        }
      },
      "getGovernorWeights(address[])": {
        "details": "Returns the weights of a list of governor addresses."
      },
      "getGovernors()": {
        "details": "Returns an array of all governors.",
        "returns": {
          "_0": "An array containing the addresses of all governors."
        }
      },
      "getGovernorsOf(address[])": {
        "details": "Retrieves the governors corresponding to a given array of bridge operators. This external function allows external callers to obtain the governors associated with a given array of bridge operators. The function takes an input array `bridgeOperators` containing bridge operator addresses and returns an array of corresponding governors.",
        "params": {
          "bridgeOperators": "An array of bridge operator addresses for which governors are to be retrieved."
        },
        "returns": {
          "governors": "An array of addresses representing the governors corresponding to the provided bridge operators."
        }
      },
      "getProposalExpiryDuration()": {
        "details": "Returns the expiry duration for a new proposal."
      },
      "getThreshold()": {
        "details": "Returns the threshold."
      },
      "getTotalWeights()": {
        "details": "Returns total weights."
      },
      "globalProposalRelayed(uint256)": {
        "details": "Returns whether the voter `_voter` casted vote for the proposal."
      },
      "isBridgeOperator(address)": {
        "details": "Checks if the given address is a bridge operator.",
        "params": {
          "addr": "The address to check."
        },
        "returns": {
          "_0": "A boolean indicating whether the address is a bridge operator."
        }
      },
      "minimumVoteWeight()": {
        "details": "Returns the minimum vote weight to pass the threshold."
      },
      "registerCallbacks(address[])": {
        "details": "Registers multiple callbacks with the bridge.",
        "params": {
          "registers": "The array of callback addresses to register."
        },
        "returns": {
          "registereds": "An array indicating the success status of each registration."
        }
      },
      "relayGlobalProposal((uint256,uint256,uint8[],uint256[],bytes[],uint256[]),uint8[],(uint8,bytes32,bytes32)[])": {
        "details": "See `GovernanceRelay-_relayGlobalProposal`.  Requirements: - The method caller is governor."
      },
      "relayProposal((uint256,uint256,uint256,address[],uint256[],bytes[],uint256[]),uint8[],(uint8,bytes32,bytes32)[])": {
        "details": "See `GovernanceRelay-_relayProposal`. Requirements: - The method caller is governor."
      },
      "removeBridgeOperators(address[])": {
        "details": "Removes multiple bridge operators.",
        "params": {
          "bridgeOperators": "An array of addresses representing the bridge operators to remove."
        },
        "returns": {
          "removeds": "An array of booleans indicating whether each bridge operator was removed successfully. * Note: return boolean array `removeds` indicates whether a group (voteWeight, governor, operator) are recorded. It is expected that FE/BE staticcall to the function first to get the return values and handle it correctly. Governors are expected to see the outcome of this function and decide if they want to vote for the proposal or not. Example Usage: Making an `eth_call` in ethers.js ``` const {removeds} = await bridgeManagerContract.callStatic.removeBridgeOperators(  bridgeOperators,  // overriding the caller to the contract itself since we use `onlySelfCall` guard  {from: bridgeManagerContract.address} ) const filteredOperators = bridgeOperators.filter((_, index) => removeds[index]); // ... (Process or use the information as required) ... ```"
        }
      },
      "resolveTargets(uint8[])": {
        "details": "Returns corresponding address of target options. Return address(0) on non-existent target."
      },
      "setContract(uint8,address)": {
        "details": "Sets the address of a contract with a specific role. Emits the event {ContractUpdated}.",
        "params": {
          "addr": "The address of the contract to set.",
          "contractType": "The role of the contract to set."
        }
      },
      "setThreshold(uint256,uint256)": {
        "details": "Sets the threshold. Requirements: - The method caller is admin. Emits the `ThresholdUpdated` event."
      },
      "sumGovernorsWeight(address[])": {
        "details": "Returns total weights of the governor list."
      },
      "totalBridgeOperators()": {
        "details": "Returns the total number of bridge operators.",
        "returns": {
          "_0": "The total number of bridge operators."
        }
      },
      "unregisterCallbacks(address[])": {
        "details": "Unregisters multiple callbacks from the bridge.",
        "params": {
          "registers": "The array of callback addresses to unregister."
        },
        "returns": {
          "unregistereds": "An array indicating the success status of each unregistration."
        }
      },
      "updateBridgeOperator(address)": {
        "details": "Governor updates their corresponding governor and/or operator address. Requirements: - The caller must the governor of the operator that is requested changes.",
        "params": {
          "bridgeOperator": "The address of the bridge operator to update."
        }
      },
      "updateManyTargetOption(uint8[],address[])": {
        "details": "Updates list of `targetOptions` to `targets`. Requirement: - Only allow self-call through proposal. "
      }
    },
    "version": 1
  },
  "userdoc": {
    "kind": "user",
    "methods": {
      "round(uint256)": {
        "notice": "chain id = 0 for global proposal"
      },
      "updateBridgeOperator(address)": {
        "notice": "This method checks authorization by querying the corresponding operator of the msg.sender and then attempts to remove it from the `_bridgeOperatorSet` for gas optimization. In case we allow a governor can leave their operator address blank null `address(0)`, consider add authorization check."
      }
    },
    "version": 1
  },
  "storageLayout": {
    "storage": [
      {
        "astId": 8162,
        "contract": "contracts/mainchain/MainchainBridgeManager.sol:MainchainBridgeManager",
        "label": "round",
        "offset": 0,
        "slot": "0",
        "type": "t_mapping(t_uint256,t_uint256)"
      },
      {
        "astId": 8170,
        "contract": "contracts/mainchain/MainchainBridgeManager.sol:MainchainBridgeManager",
        "label": "vote",
        "offset": 0,
        "slot": "1",
        "type": "t_mapping(t_uint256,t_mapping(t_uint256,t_struct(ProposalVote)8100_storage))"
      },
      {
        "astId": 8172,
        "contract": "contracts/mainchain/MainchainBridgeManager.sol:MainchainBridgeManager",
        "label": "_proposalExpiryDuration",
        "offset": 0,
        "slot": "2",
        "type": "t_uint256"
      },
      {
        "astId": 8909,
        "contract": "contracts/mainchain/MainchainBridgeManager.sol:MainchainBridgeManager",
        "label": "_targetOptionsMap",
        "offset": 0,
        "slot": "3",
        "type": "t_mapping(t_enum(TargetOption)15064,t_address)"
      }
    ],
    "types": {
      "t_address": {
        "encoding": "inplace",
        "label": "address",
        "numberOfBytes": "20"
      },
      "t_array(t_address)dyn_storage": {
        "base": "t_address",
        "encoding": "dynamic_array",
        "label": "address[]",
        "numberOfBytes": "32"
      },
      "t_bool": {
        "encoding": "inplace",
        "label": "bool",
        "numberOfBytes": "1"
      },
      "t_bytes32": {
        "encoding": "inplace",
        "label": "bytes32",
        "numberOfBytes": "32"
      },
      "t_enum(TargetOption)15064": {
        "encoding": "inplace",
        "label": "enum GlobalProposal.TargetOption",
        "numberOfBytes": "1"
      },
      "t_enum(VoteStatus)12751": {
        "encoding": "inplace",
        "label": "enum VoteStatusConsumer.VoteStatus",
        "numberOfBytes": "1"
      },
      "t_mapping(t_address,t_bool)": {
        "encoding": "mapping",
        "key": "t_address",
        "label": "mapping(address => bool)",
        "numberOfBytes": "32",
        "value": "t_bool"
      },
      "t_mapping(t_address,t_struct(Signature)12742_storage)": {
        "encoding": "mapping",
        "key": "t_address",
        "label": "mapping(address => struct SignatureConsumer.Signature)",
        "numberOfBytes": "32",
        "value": "t_struct(Signature)12742_storage"
      },
      "t_mapping(t_enum(TargetOption)15064,t_address)": {
        "encoding": "mapping",
        "key": "t_enum(TargetOption)15064",
        "label": "mapping(enum GlobalProposal.TargetOption => address)",
        "numberOfBytes": "32",
        "value": "t_address"
      },
      "t_mapping(t_uint256,t_mapping(t_uint256,t_struct(ProposalVote)8100_storage))": {
        "encoding": "mapping",
        "key": "t_uint256",
        "label": "mapping(uint256 => mapping(uint256 => struct CoreGovernance.ProposalVote))",
        "numberOfBytes": "32",
        "value": "t_mapping(t_uint256,t_struct(ProposalVote)8100_storage)"
      },
      "t_mapping(t_uint256,t_struct(ProposalVote)8100_storage)": {
        "encoding": "mapping",
        "key": "t_uint256",
        "label": "mapping(uint256 => struct CoreGovernance.ProposalVote)",
        "numberOfBytes": "32",
        "value": "t_struct(ProposalVote)8100_storage"
      },
      "t_mapping(t_uint256,t_uint256)": {
        "encoding": "mapping",
        "key": "t_uint256",
        "label": "mapping(uint256 => uint256)",
        "numberOfBytes": "32",
        "value": "t_uint256"
      },
      "t_struct(ProposalVote)8100_storage": {
        "encoding": "inplace",
        "label": "struct CoreGovernance.ProposalVote",
        "members": [
          {
            "astId": 8076,
            "contract": "contracts/mainchain/MainchainBridgeManager.sol:MainchainBridgeManager",
            "label": "status",
            "offset": 0,
            "slot": "0",
            "type": "t_enum(VoteStatus)12751"
          },
          {
            "astId": 8078,
            "contract": "contracts/mainchain/MainchainBridgeManager.sol:MainchainBridgeManager",
            "label": "hash",
            "offset": 0,
            "slot": "1",
            "type": "t_bytes32"
          },
          {
            "astId": 8080,
            "contract": "contracts/mainchain/MainchainBridgeManager.sol:MainchainBridgeManager",
            "label": "againstVoteWeight",
            "offset": 0,
            "slot": "2",
            "type": "t_uint256"
          },
          {
            "astId": 8082,
            "contract": "contracts/mainchain/MainchainBridgeManager.sol:MainchainBridgeManager",
            "label": "forVoteWeight",
            "offset": 0,
            "slot": "3",
            "type": "t_uint256"
          },
          {
            "astId": 8085,
            "contract": "contracts/mainchain/MainchainBridgeManager.sol:MainchainBridgeManager",
            "label": "forVoteds",
            "offset": 0,
            "slot": "4",
            "type": "t_array(t_address)dyn_storage"
          },
          {
            "astId": 8088,
            "contract": "contracts/mainchain/MainchainBridgeManager.sol:MainchainBridgeManager",
            "label": "againstVoteds",
            "offset": 0,
            "slot": "5",
            "type": "t_array(t_address)dyn_storage"
          },
          {
            "astId": 8090,
            "contract": "contracts/mainchain/MainchainBridgeManager.sol:MainchainBridgeManager",
            "label": "expiryTimestamp",
            "offset": 0,
            "slot": "6",
            "type": "t_uint256"
          },
          {
            "astId": 8095,
            "contract": "contracts/mainchain/MainchainBridgeManager.sol:MainchainBridgeManager",
            "label": "sig",
            "offset": 0,
            "slot": "7",
            "type": "t_mapping(t_address,t_struct(Signature)12742_storage)"
          },
          {
            "astId": 8099,
            "contract": "contracts/mainchain/MainchainBridgeManager.sol:MainchainBridgeManager",
            "label": "voted",
            "offset": 0,
            "slot": "8",
            "type": "t_mapping(t_address,t_bool)"
          }
        ],
        "numberOfBytes": "288"
      },
      "t_struct(Signature)12742_storage": {
        "encoding": "inplace",
        "label": "struct SignatureConsumer.Signature",
        "members": [
          {
            "astId": 12737,
            "contract": "contracts/mainchain/MainchainBridgeManager.sol:MainchainBridgeManager",
            "label": "v",
            "offset": 0,
            "slot": "0",
            "type": "t_uint8"
          },
          {
            "astId": 12739,
            "contract": "contracts/mainchain/MainchainBridgeManager.sol:MainchainBridgeManager",
            "label": "r",
            "offset": 0,
            "slot": "1",
            "type": "t_bytes32"
          },
          {
            "astId": 12741,
            "contract": "contracts/mainchain/MainchainBridgeManager.sol:MainchainBridgeManager",
            "label": "s",
            "offset": 0,
            "slot": "2",
            "type": "t_bytes32"
          }
        ],
        "numberOfBytes": "96"
      },
      "t_uint256": {
        "encoding": "inplace",
        "label": "uint256",
        "numberOfBytes": "32"
      },
      "t_uint8": {
        "encoding": "inplace",
        "label": "uint8",
        "numberOfBytes": "1"
      }
    }
  }
}