{
  "address": "0x498E99B1B00e276944a22684D58d820A738cAEcD",
  "abi": [
    {
      "inputs": [],
      "name": "ErrERC20MintingFailed",
      "type": "error"
    },
    {
      "inputs": [],
      "name": "ErrERC721MintingFailed",
      "type": "error"
    },
    {
      "inputs": [],
      "name": "ErrEmptyArray",
      "type": "error"
    },
    {
      "inputs": [
        {
          "internalType": "bytes4",
          "name": "msgSig",
          "type": "bytes4"
        },
        {
          "internalType": "uint256",
          "name": "actual",
          "type": "uint256"
        },
        {
          "internalType": "uint256",
          "name": "expected",
          "type": "uint256"
        }
      ],
      "name": "ErrInvalidChainId",
      "type": "error"
    },
    {
      "inputs": [],
      "name": "ErrInvalidInfo",
      "type": "error"
    },
    {
      "inputs": [
        {
          "internalType": "bytes4",
          "name": "msgSig",
          "type": "bytes4"
        }
      ],
      "name": "ErrInvalidOrder",
      "type": "error"
    },
    {
      "inputs": [],
      "name": "ErrInvalidPercentage",
      "type": "error"
    },
    {
      "inputs": [],
      "name": "ErrInvalidReceipt",
      "type": "error"
    },
    {
      "inputs": [],
      "name": "ErrInvalidReceiptKind",
      "type": "error"
    },
    {
      "inputs": [],
      "name": "ErrInvalidRequest",
      "type": "error"
    },
    {
      "inputs": [
        {
          "internalType": "bytes4",
          "name": "msgSig",
          "type": "bytes4"
        }
      ],
      "name": "ErrInvalidThreshold",
      "type": "error"
    },
    {
      "inputs": [],
      "name": "ErrInvalidTokenStandard",
      "type": "error"
    },
    {
      "inputs": [
        {
          "internalType": "bytes4",
          "name": "msgSig",
          "type": "bytes4"
        }
      ],
      "name": "ErrLengthMismatch",
      "type": "error"
    },
    {
      "inputs": [],
      "name": "ErrQueryForApprovedWithdrawal",
      "type": "error"
    },
    {
      "inputs": [],
      "name": "ErrQueryForInsufficientVoteWeight",
      "type": "error"
    },
    {
      "inputs": [],
      "name": "ErrQueryForProcessedWithdrawal",
      "type": "error"
    },
    {
      "inputs": [],
      "name": "ErrReachedDailyWithdrawalLimit",
      "type": "error"
    },
    {
      "inputs": [
        {
          "components": [
            {
              "internalType": "enum Token.Standard",
              "name": "erc",
              "type": "uint8"
            },
            {
              "internalType": "uint256",
              "name": "id",
              "type": "uint256"
            },
            {
              "internalType": "uint256",
              "name": "quantity",
              "type": "uint256"
            }
          ],
          "internalType": "struct Token.Info",
          "name": "tokenInfo",
          "type": "tuple"
        },
        {
          "internalType": "address",
          "name": "to",
          "type": "address"
        },
        {
          "internalType": "address",
          "name": "token",
          "type": "address"
        }
      ],
      "name": "ErrTokenCouldNotTransfer",
      "type": "error"
    },
    {
      "inputs": [
        {
          "components": [
            {
              "internalType": "enum Token.Standard",
              "name": "erc",
              "type": "uint8"
            },
            {
              "internalType": "uint256",
              "name": "id",
              "type": "uint256"
            },
            {
              "internalType": "uint256",
              "name": "quantity",
              "type": "uint256"
            }
          ],
          "internalType": "struct Token.Info",
          "name": "tokenInfo",
          "type": "tuple"
        },
        {
          "internalType": "address",
          "name": "from",
          "type": "address"
        },
        {
          "internalType": "address",
          "name": "to",
          "type": "address"
        },
        {
          "internalType": "address",
          "name": "token",
          "type": "address"
        }
      ],
      "name": "ErrTokenCouldNotTransferFrom",
      "type": "error"
    },
    {
      "inputs": [
        {
          "internalType": "bytes4",
          "name": "msgSig",
          "type": "bytes4"
        },
        {
          "internalType": "enum RoleAccess",
          "name": "expectedRole",
          "type": "uint8"
        }
      ],
      "name": "ErrUnauthorized",
      "type": "error"
    },
    {
      "inputs": [],
      "name": "ErrUnsupportedStandard",
      "type": "error"
    },
    {
      "inputs": [],
      "name": "ErrUnsupportedToken",
      "type": "error"
    },
    {
      "anonymous": false,
      "inputs": [
        {
          "indexed": false,
          "internalType": "address[]",
          "name": "operators",
          "type": "address[]"
        }
      ],
      "name": "BridgeOperatorsReplaced",
      "type": "event"
    },
    {
      "anonymous": false,
      "inputs": [
        {
          "indexed": false,
          "internalType": "address[]",
          "name": "tokens",
          "type": "address[]"
        },
        {
          "indexed": false,
          "internalType": "uint256[]",
          "name": "limits",
          "type": "uint256[]"
        }
      ],
      "name": "DailyWithdrawalLimitsUpdated",
      "type": "event"
    },
    {
      "anonymous": false,
      "inputs": [
        {
          "indexed": false,
          "internalType": "bytes32",
          "name": "receiptHash",
          "type": "bytes32"
        },
        {
          "components": [
            {
              "internalType": "uint256",
              "name": "id",
              "type": "uint256"
            },
            {
              "internalType": "enum Transfer.Kind",
              "name": "kind",
              "type": "uint8"
            },
            {
              "components": [
                {
                  "internalType": "address",
                  "name": "addr",
                  "type": "address"
                },
                {
                  "internalType": "address",
                  "name": "tokenAddr",
                  "type": "address"
                },
                {
                  "internalType": "uint256",
                  "name": "chainId",
                  "type": "uint256"
                }
              ],
              "internalType": "struct Token.Owner",
              "name": "mainchain",
              "type": "tuple"
            },
            {
              "components": [
                {
                  "internalType": "address",
                  "name": "addr",
                  "type": "address"
                },
                {
                  "internalType": "address",
                  "name": "tokenAddr",
                  "type": "address"
                },
                {
                  "internalType": "uint256",
                  "name": "chainId",
                  "type": "uint256"
                }
              ],
              "internalType": "struct Token.Owner",
              "name": "ronin",
              "type": "tuple"
            },
            {
              "components": [
                {
                  "internalType": "enum Token.Standard",
                  "name": "erc",
                  "type": "uint8"
                },
                {
                  "internalType": "uint256",
                  "name": "id",
                  "type": "uint256"
                },
                {
                  "internalType": "uint256",
                  "name": "quantity",
                  "type": "uint256"
                }
              ],
              "internalType": "struct Token.Info",
              "name": "info",
              "type": "tuple"
            }
          ],
          "indexed": false,
          "internalType": "struct Transfer.Receipt",
          "name": "receipt",
          "type": "tuple"
        }
      ],
      "name": "DepositRequested",
      "type": "event"
    },
    {
      "anonymous": false,
      "inputs": [
        {
          "indexed": false,
          "internalType": "address[]",
          "name": "tokens",
          "type": "address[]"
        },
        {
          "indexed": false,
          "internalType": "uint256[]",
          "name": "thresholds",
          "type": "uint256[]"
        }
      ],
      "name": "HighTierThresholdsUpdated",
      "type": "event"
    },
    {
      "anonymous": false,
      "inputs": [
        {
          "indexed": true,
          "internalType": "uint256",
          "name": "nonce",
          "type": "uint256"
        },
        {
          "indexed": true,
          "internalType": "uint256",
          "name": "numerator",
          "type": "uint256"
        },
        {
          "indexed": true,
          "internalType": "uint256",
          "name": "denominator",
          "type": "uint256"
        },
        {
          "indexed": false,
          "internalType": "uint256",
          "name": "previousNumerator",
          "type": "uint256"
        },
        {
          "indexed": false,
          "internalType": "uint256",
          "name": "previousDenominator",
          "type": "uint256"
        }
      ],
      "name": "HighTierVoteWeightThresholdUpdated",
      "type": "event"
    },
    {
      "anonymous": false,
      "inputs": [
        {
          "indexed": false,
          "internalType": "uint8",
          "name": "version",
          "type": "uint8"
        }
      ],
      "name": "Initialized",
      "type": "event"
    },
    {
      "anonymous": false,
      "inputs": [
        {
          "indexed": false,
          "internalType": "address[]",
          "name": "tokens",
          "type": "address[]"
        },
        {
          "indexed": false,
          "internalType": "uint256[]",
          "name": "thresholds",
          "type": "uint256[]"
        }
      ],
      "name": "LockedThresholdsUpdated",
      "type": "event"
    },
    {
      "anonymous": false,
      "inputs": [
        {
          "indexed": false,
          "internalType": "address",
          "name": "account",
          "type": "address"
        }
      ],
      "name": "Paused",
      "type": "event"
    },
    {
      "anonymous": false,
      "inputs": [
        {
          "indexed": true,
          "internalType": "bytes32",
          "name": "role",
          "type": "bytes32"
        },
        {
          "indexed": true,
          "internalType": "bytes32",
          "name": "previousAdminRole",
          "type": "bytes32"
        },
        {
          "indexed": true,
          "internalType": "bytes32",
          "name": "newAdminRole",
          "type": "bytes32"
        }
      ],
      "name": "RoleAdminChanged",
      "type": "event"
    },
    {
      "anonymous": false,
      "inputs": [
        {
          "indexed": true,
          "internalType": "bytes32",
          "name": "role",
          "type": "bytes32"
        },
        {
          "indexed": true,
          "internalType": "address",
          "name": "account",
          "type": "address"
        },
        {
          "indexed": true,
          "internalType": "address",
          "name": "sender",
          "type": "address"
        }
      ],
      "name": "RoleGranted",
      "type": "event"
    },
    {
      "anonymous": false,
      "inputs": [
        {
          "indexed": true,
          "internalType": "bytes32",
          "name": "role",
          "type": "bytes32"
        },
        {
          "indexed": true,
          "internalType": "address",
          "name": "account",
          "type": "address"
        },
        {
          "indexed": true,
          "internalType": "address",
          "name": "sender",
          "type": "address"
        }
      ],
      "name": "RoleRevoked",
      "type": "event"
    },
    {
      "anonymous": false,
      "inputs": [
        {
          "indexed": true,
          "internalType": "uint256",
          "name": "nonce",
          "type": "uint256"
        },
        {
          "indexed": true,
          "internalType": "uint256",
          "name": "numerator",
          "type": "uint256"
        },
        {
          "indexed": true,
          "internalType": "uint256",
          "name": "denominator",
          "type": "uint256"
        },
        {
          "indexed": false,
          "internalType": "uint256",
          "name": "previousNumerator",
          "type": "uint256"
        },
        {
          "indexed": false,
          "internalType": "uint256",
          "name": "previousDenominator",
          "type": "uint256"
        }
      ],
      "name": "ThresholdUpdated",
      "type": "event"
    },
    {
      "anonymous": false,
      "inputs": [
        {
          "indexed": false,
          "internalType": "address[]",
          "name": "mainchainTokens",
          "type": "address[]"
        },
        {
          "indexed": false,
          "internalType": "address[]",
          "name": "roninTokens",
          "type": "address[]"
        },
        {
          "indexed": false,
          "internalType": "enum Token.Standard[]",
          "name": "standards",
          "type": "uint8[]"
        }
      ],
      "name": "TokenMapped",
      "type": "event"
    },
    {
      "anonymous": false,
      "inputs": [
        {
          "indexed": false,
          "internalType": "address[]",
          "name": "tokens",
          "type": "address[]"
        },
        {
          "indexed": false,
          "internalType": "uint256[]",
          "name": "percentages",
          "type": "uint256[]"
        }
      ],
      "name": "UnlockFeePercentagesUpdated",
      "type": "event"
    },
    {
      "anonymous": false,
      "inputs": [
        {
          "indexed": false,
          "internalType": "address",
          "name": "account",
          "type": "address"
        }
      ],
      "name": "Unpaused",
      "type": "event"
    },
    {
      "anonymous": false,
      "inputs": [
        {
          "indexed": false,
          "internalType": "bytes32",
          "name": "receiptHash",
          "type": "bytes32"
        },
        {
          "components": [
            {
              "internalType": "uint256",
              "name": "id",
              "type": "uint256"
            },
            {
              "internalType": "enum Transfer.Kind",
              "name": "kind",
              "type": "uint8"
            },
            {
              "components": [
                {
                  "internalType": "address",
                  "name": "addr",
                  "type": "address"
                },
                {
                  "internalType": "address",
                  "name": "tokenAddr",
                  "type": "address"
                },
                {
                  "internalType": "uint256",
                  "name": "chainId",
                  "type": "uint256"
                }
              ],
              "internalType": "struct Token.Owner",
              "name": "mainchain",
              "type": "tuple"
            },
            {
              "components": [
                {
                  "internalType": "address",
                  "name": "addr",
                  "type": "address"
                },
                {
                  "internalType": "address",
                  "name": "tokenAddr",
                  "type": "address"
                },
                {
                  "internalType": "uint256",
                  "name": "chainId",
                  "type": "uint256"
                }
              ],
              "internalType": "struct Token.Owner",
              "name": "ronin",
              "type": "tuple"
            },
            {
              "components": [
                {
                  "internalType": "enum Token.Standard",
                  "name": "erc",
                  "type": "uint8"
                },
                {
                  "internalType": "uint256",
                  "name": "id",
                  "type": "uint256"
                },
                {
                  "internalType": "uint256",
                  "name": "quantity",
                  "type": "uint256"
                }
              ],
              "internalType": "struct Token.Info",
              "name": "info",
              "type": "tuple"
            }
          ],
          "indexed": false,
          "internalType": "struct Transfer.Receipt",
          "name": "receipt",
          "type": "tuple"
        }
      ],
      "name": "WithdrawalLocked",
      "type": "event"
    },
    {
      "anonymous": false,
      "inputs": [
        {
          "indexed": false,
          "internalType": "bytes32",
          "name": "receiptHash",
          "type": "bytes32"
        },
        {
          "components": [
            {
              "internalType": "uint256",
              "name": "id",
              "type": "uint256"
            },
            {
              "internalType": "enum Transfer.Kind",
              "name": "kind",
              "type": "uint8"
            },
            {
              "components": [
                {
                  "internalType": "address",
                  "name": "addr",
                  "type": "address"
                },
                {
                  "internalType": "address",
                  "name": "tokenAddr",
                  "type": "address"
                },
                {
                  "internalType": "uint256",
                  "name": "chainId",
                  "type": "uint256"
                }
              ],
              "internalType": "struct Token.Owner",
              "name": "mainchain",
              "type": "tuple"
            },
            {
              "components": [
                {
                  "internalType": "address",
                  "name": "addr",
                  "type": "address"
                },
                {
                  "internalType": "address",
                  "name": "tokenAddr",
                  "type": "address"
                },
                {
                  "internalType": "uint256",
                  "name": "chainId",
                  "type": "uint256"
                }
              ],
              "internalType": "struct Token.Owner",
              "name": "ronin",
              "type": "tuple"
            },
            {
              "components": [
                {
                  "internalType": "enum Token.Standard",
                  "name": "erc",
                  "type": "uint8"
                },
                {
                  "internalType": "uint256",
                  "name": "id",
                  "type": "uint256"
                },
                {
                  "internalType": "uint256",
                  "name": "quantity",
                  "type": "uint256"
                }
              ],
              "internalType": "struct Token.Info",
              "name": "info",
              "type": "tuple"
            }
          ],
          "indexed": false,
          "internalType": "struct Transfer.Receipt",
          "name": "receipt",
          "type": "tuple"
        }
      ],
      "name": "WithdrawalUnlocked",
      "type": "event"
    },
    {
      "anonymous": false,
      "inputs": [
        {
          "indexed": false,
          "internalType": "bytes32",
          "name": "receiptHash",
          "type": "bytes32"
        },
        {
          "components": [
            {
              "internalType": "uint256",
              "name": "id",
              "type": "uint256"
            },
            {
              "internalType": "enum Transfer.Kind",
              "name": "kind",
              "type": "uint8"
            },
            {
              "components": [
                {
                  "internalType": "address",
                  "name": "addr",
                  "type": "address"
                },
                {
                  "internalType": "address",
                  "name": "tokenAddr",
                  "type": "address"
                },
                {
                  "internalType": "uint256",
                  "name": "chainId",
                  "type": "uint256"
                }
              ],
              "internalType": "struct Token.Owner",
              "name": "mainchain",
              "type": "tuple"
            },
            {
              "components": [
                {
                  "internalType": "address",
                  "name": "addr",
                  "type": "address"
                },
                {
                  "internalType": "address",
                  "name": "tokenAddr",
                  "type": "address"
                },
                {
                  "internalType": "uint256",
                  "name": "chainId",
                  "type": "uint256"
                }
              ],
              "internalType": "struct Token.Owner",
              "name": "ronin",
              "type": "tuple"
            },
            {
              "components": [
                {
                  "internalType": "enum Token.Standard",
                  "name": "erc",
                  "type": "uint8"
                },
                {
                  "internalType": "uint256",
                  "name": "id",
                  "type": "uint256"
                },
                {
                  "internalType": "uint256",
                  "name": "quantity",
                  "type": "uint256"
                }
              ],
              "internalType": "struct Token.Info",
              "name": "info",
              "type": "tuple"
            }
          ],
          "indexed": false,
          "internalType": "struct Transfer.Receipt",
          "name": "receipt",
          "type": "tuple"
        }
      ],
      "name": "Withdrew",
      "type": "event"
    },
    {
      "anonymous": false,
      "inputs": [
        {
          "indexed": false,
          "internalType": "contract IWETH",
          "name": "weth",
          "type": "address"
        }
      ],
      "name": "WrappedNativeTokenContractUpdated",
      "type": "event"
    },
    {
      "stateMutability": "payable",
      "type": "fallback"
    },
    {
      "inputs": [],
      "name": "DEFAULT_ADMIN_ROLE",
      "outputs": [
        {
          "internalType": "bytes32",
          "name": "",
          "type": "bytes32"
        }
      ],
      "stateMutability": "view",
      "type": "function"
    },
    {
      "inputs": [],
      "name": "DOMAIN_SEPARATOR",
      "outputs": [
        {
          "internalType": "bytes32",
          "name": "",
          "type": "bytes32"
        }
      ],
      "stateMutability": "view",
      "type": "function"
    },
    {
      "inputs": [],
      "name": "WITHDRAWAL_UNLOCKER_ROLE",
      "outputs": [
        {
          "internalType": "bytes32",
          "name": "",
          "type": "bytes32"
        }
      ],
      "stateMutability": "view",
      "type": "function"
    },
    {
      "inputs": [],
      "name": "_MAX_PERCENTAGE",
      "outputs": [
        {
          "internalType": "uint256",
          "name": "",
          "type": "uint256"
        }
      ],
      "stateMutability": "view",
      "type": "function"
    },
    {
      "inputs": [
        {
          "internalType": "uint256",
          "name": "_voteWeight",
          "type": "uint256"
        }
      ],
      "name": "checkHighTierVoteWeightThreshold",
      "outputs": [
        {
          "internalType": "bool",
          "name": "",
          "type": "bool"
        }
      ],
      "stateMutability": "view",
      "type": "function"
    },
    {
      "inputs": [
        {
          "internalType": "uint256",
          "name": "_voteWeight",
          "type": "uint256"
        }
      ],
      "name": "checkThreshold",
      "outputs": [
        {
          "internalType": "bool",
          "name": "",
          "type": "bool"
        }
      ],
      "stateMutability": "view",
      "type": "function"
    },
    {
      "inputs": [
        {
          "internalType": "address",
          "name": "",
          "type": "address"
        }
      ],
      "name": "dailyWithdrawalLimit",
      "outputs": [
        {
          "internalType": "uint256",
          "name": "",
          "type": "uint256"
        }
      ],
      "stateMutability": "view",
      "type": "function"
    },
    {
      "inputs": [],
      "name": "depositCount",
      "outputs": [
        {
          "internalType": "uint256",
          "name": "",
          "type": "uint256"
        }
      ],
      "stateMutability": "view",
      "type": "function"
    },
    {
      "inputs": [],
      "name": "emergencyPauser",
      "outputs": [
        {
          "internalType": "address",
          "name": "",
          "type": "address"
        }
      ],
      "stateMutability": "view",
      "type": "function"
    },
    {
      "inputs": [],
      "name": "getBridgeOperators",
      "outputs": [
        {
          "internalType": "address[]",
          "name": "",
          "type": "address[]"
        }
      ],
      "stateMutability": "view",
      "type": "function"
    },
    {
      "inputs": [],
      "name": "getHighTierVoteWeightThreshold",
      "outputs": [
        {
          "internalType": "uint256",
          "name": "",
          "type": "uint256"
        },
        {
          "internalType": "uint256",
          "name": "",
          "type": "uint256"
        }
      ],
      "stateMutability": "view",
      "type": "function"
    },
    {
      "inputs": [
        {
          "internalType": "bytes32",
          "name": "role",
          "type": "bytes32"
        }
      ],
      "name": "getRoleAdmin",
      "outputs": [
        {
          "internalType": "bytes32",
          "name": "",
          "type": "bytes32"
        }
      ],
      "stateMutability": "view",
      "type": "function"
    },
    {
      "inputs": [
        {
          "internalType": "bytes32",
          "name": "role",
          "type": "bytes32"
        },
        {
          "internalType": "uint256",
          "name": "index",
          "type": "uint256"
        }
      ],
      "name": "getRoleMember",
      "outputs": [
        {
          "internalType": "address",
          "name": "",
          "type": "address"
        }
      ],
      "stateMutability": "view",
      "type": "function"
    },
    {
      "inputs": [
        {
          "internalType": "bytes32",
          "name": "role",
          "type": "bytes32"
        }
      ],
      "name": "getRoleMemberCount",
      "outputs": [
        {
          "internalType": "uint256",
          "name": "",
          "type": "uint256"
        }
      ],
      "stateMutability": "view",
      "type": "function"
    },
    {
      "inputs": [
        {
          "internalType": "address",
          "name": "_mainchainToken",
          "type": "address"
        }
      ],
      "name": "getRoninToken",
      "outputs": [
        {
          "components": [
            {
              "internalType": "enum Token.Standard",
              "name": "erc",
              "type": "uint8"
            },
            {
              "internalType": "address",
              "name": "tokenAddr",
              "type": "address"
            }
          ],
          "internalType": "struct MappedTokenConsumer.MappedToken",
          "name": "_token",
          "type": "tuple"
        }
      ],
      "stateMutability": "view",
      "type": "function"
    },
    {
      "inputs": [],
      "name": "getThreshold",
      "outputs": [
        {
          "internalType": "uint256",
          "name": "num_",
          "type": "uint256"
        },
        {
          "internalType": "uint256",
          "name": "denom_",
          "type": "uint256"
        }
      ],
      "stateMutability": "view",
      "type": "function"
    },
    {
      "inputs": [
        {
          "internalType": "bytes32",
          "name": "role",
          "type": "bytes32"
        },
        {
          "internalType": "address",
          "name": "account",
          "type": "address"
        }
      ],
      "name": "grantRole",
      "outputs": [],
      "stateMutability": "nonpayable",
      "type": "function"
    },
    {
      "inputs": [
        {
          "internalType": "bytes32",
          "name": "role",
          "type": "bytes32"
        },
        {
          "internalType": "address",
          "name": "account",
          "type": "address"
        }
      ],
      "name": "hasRole",
      "outputs": [
        {
          "internalType": "bool",
          "name": "",
          "type": "bool"
        }
      ],
      "stateMutability": "view",
      "type": "function"
    },
    {
      "inputs": [
        {
          "internalType": "address",
          "name": "",
          "type": "address"
        }
      ],
      "name": "highTierThreshold",
      "outputs": [
        {
          "internalType": "uint256",
          "name": "",
          "type": "uint256"
        }
      ],
      "stateMutability": "view",
      "type": "function"
    },
    {
      "inputs": [
        {
          "internalType": "address",
          "name": "_roleSetter",
          "type": "address"
        },
        {
          "internalType": "contract IWETH",
          "name": "_wrappedToken",
          "type": "address"
        },
        {
          "internalType": "uint256",
          "name": "_roninChainId",
          "type": "uint256"
        },
        {
          "internalType": "uint256",
          "name": "_numerator",
          "type": "uint256"
        },
        {
          "internalType": "uint256",
          "name": "_highTierVWNumerator",
          "type": "uint256"
        },
        {
          "internalType": "uint256",
          "name": "_denominator",
          "type": "uint256"
        },
        {
          "internalType": "address[][3]",
          "name": "_addresses",
          "type": "address[][3]"
        },
        {
          "internalType": "uint256[][4]",
          "name": "_thresholds",
          "type": "uint256[][4]"
        },
        {
          "internalType": "enum Token.Standard[]",
          "name": "_standards",
          "type": "uint8[]"
        }
      ],
      "name": "initialize",
      "outputs": [],
      "stateMutability": "payable",
      "type": "function"
    },
    {
      "inputs": [
        {
          "internalType": "address",
          "name": "",
          "type": "address"
        }
      ],
      "name": "lastDateSynced",
      "outputs": [
        {
          "internalType": "uint256",
          "name": "",
          "type": "uint256"
        }
      ],
      "stateMutability": "view",
      "type": "function"
    },
    {
      "inputs": [
        {
          "internalType": "address",
          "name": "",
          "type": "address"
        }
      ],
      "name": "lastSyncedWithdrawal",
      "outputs": [
        {
          "internalType": "uint256",
          "name": "",
          "type": "uint256"
        }
      ],
      "stateMutability": "view",
      "type": "function"
    },
    {
      "inputs": [
        {
          "internalType": "address",
          "name": "",
          "type": "address"
        }
      ],
      "name": "lockedThreshold",
      "outputs": [
        {
          "internalType": "uint256",
          "name": "",
          "type": "uint256"
        }
      ],
      "stateMutability": "view",
      "type": "function"
    },
    {
      "inputs": [
        {
          "internalType": "address[]",
          "name": "_mainchainTokens",
          "type": "address[]"
        },
        {
          "internalType": "address[]",
          "name": "_roninTokens",
          "type": "address[]"
        },
        {
          "internalType": "enum Token.Standard[]",
          "name": "_standards",
          "type": "uint8[]"
        }
      ],
      "name": "mapTokens",
      "outputs": [],
      "stateMutability": "nonpayable",
      "type": "function"
    },
    {
      "inputs": [
        {
          "internalType": "address[]",
          "name": "_mainchainTokens",
          "type": "address[]"
        },
        {
          "internalType": "address[]",
          "name": "_roninTokens",
          "type": "address[]"
        },
        {
          "internalType": "enum Token.Standard[]",
          "name": "_standards",
          "type": "uint8[]"
        },
        {
          "internalType": "uint256[][4]",
          "name": "_thresholds",
          "type": "uint256[][4]"
        }
      ],
      "name": "mapTokensAndThresholds",
      "outputs": [],
      "stateMutability": "nonpayable",
      "type": "function"
    },
    {
      "inputs": [],
      "name": "minimumVoteWeight",
      "outputs": [
        {
          "internalType": "uint256",
          "name": "",
          "type": "uint256"
        }
      ],
      "stateMutability": "view",
      "type": "function"
    },
    {
      "inputs": [],
      "name": "nonce",
      "outputs": [
        {
          "internalType": "uint256",
          "name": "",
          "type": "uint256"
        }
      ],
      "stateMutability": "view",
      "type": "function"
    },
    {
      "inputs": [],
      "name": "pause",
      "outputs": [],
      "stateMutability": "nonpayable",
      "type": "function"
    },
    {
      "inputs": [],
      "name": "paused",
      "outputs": [
        {
          "internalType": "bool",
          "name": "",
          "type": "bool"
        }
      ],
      "stateMutability": "view",
      "type": "function"
    },
    {
      "inputs": [
        {
          "internalType": "address",
          "name": "_token",
          "type": "address"
        },
        {
          "internalType": "uint256",
          "name": "_quantity",
          "type": "uint256"
        }
      ],
      "name": "reachedWithdrawalLimit",
      "outputs": [
        {
          "internalType": "bool",
          "name": "",
          "type": "bool"
        }
      ],
      "stateMutability": "view",
      "type": "function"
    },
    {
      "inputs": [],
      "name": "receiveEther",
      "outputs": [],
      "stateMutability": "payable",
      "type": "function"
    },
    {
      "inputs": [
        {
          "internalType": "bytes32",
          "name": "role",
          "type": "bytes32"
        },
        {
          "internalType": "address",
          "name": "account",
          "type": "address"
        }
      ],
      "name": "renounceRole",
      "outputs": [],
      "stateMutability": "nonpayable",
      "type": "function"
    },
    {
      "inputs": [
        {
          "internalType": "address[]",
          "name": "_list",
          "type": "address[]"
        }
      ],
      "name": "replaceBridgeOperators",
      "outputs": [],
      "stateMutability": "nonpayable",
      "type": "function"
    },
    {
      "inputs": [
        {
          "components": [
            {
              "internalType": "address",
              "name": "recipientAddr",
              "type": "address"
            },
            {
              "internalType": "address",
              "name": "tokenAddr",
              "type": "address"
            },
            {
              "components": [
                {
                  "internalType": "enum Token.Standard",
                  "name": "erc",
                  "type": "uint8"
                },
                {
                  "internalType": "uint256",
                  "name": "id",
                  "type": "uint256"
                },
                {
                  "internalType": "uint256",
                  "name": "quantity",
                  "type": "uint256"
                }
              ],
              "internalType": "struct Token.Info",
              "name": "info",
              "type": "tuple"
            }
          ],
          "internalType": "struct Transfer.Request",
          "name": "_request",
          "type": "tuple"
        }
      ],
      "name": "requestDepositFor",
      "outputs": [],
      "stateMutability": "payable",
      "type": "function"
    },
    {
      "inputs": [
        {
          "internalType": "bytes32",
          "name": "role",
          "type": "bytes32"
        },
        {
          "internalType": "address",
          "name": "account",
          "type": "address"
        }
      ],
      "name": "revokeRole",
      "outputs": [],
      "stateMutability": "nonpayable",
      "type": "function"
    },
    {
      "inputs": [],
      "name": "roninChainId",
      "outputs": [
        {
          "internalType": "uint256",
          "name": "",
          "type": "uint256"
        }
      ],
      "stateMutability": "view",
      "type": "function"
    },
    {
      "inputs": [
        {
          "internalType": "address[]",
          "name": "_tokens",
          "type": "address[]"
        },
        {
          "internalType": "uint256[]",
          "name": "_limits",
          "type": "uint256[]"
        }
      ],
      "name": "setDailyWithdrawalLimits",
      "outputs": [],
      "stateMutability": "nonpayable",
      "type": "function"
    },
    {
      "inputs": [
        {
          "internalType": "address",
          "name": "_addr",
          "type": "address"
        }
      ],
      "name": "setEmergencyPauser",
      "outputs": [],
      "stateMutability": "nonpayable",
      "type": "function"
    },
    {
      "inputs": [
        {
          "internalType": "address[]",
          "name": "_tokens",
          "type": "address[]"
        },
        {
          "internalType": "uint256[]",
          "name": "_thresholds",
          "type": "uint256[]"
        }
      ],
      "name": "setHighTierThresholds",
      "outputs": [],
      "stateMutability": "nonpayable",
      "type": "function"
    },
    {
      "inputs": [
        {
          "internalType": "uint256",
          "name": "_numerator",
          "type": "uint256"
        },
        {
          "internalType": "uint256",
          "name": "_denominator",
          "type": "uint256"
        }
      ],
      "name": "setHighTierVoteWeightThreshold",
      "outputs": [
        {
          "internalType": "uint256",
          "name": "_previousNum",
          "type": "uint256"
        },
        {
          "internalType": "uint256",
          "name": "_previousDenom",
          "type": "uint256"
        }
      ],
      "stateMutability": "nonpayable",
      "type": "function"
    },
    {
      "inputs": [
        {
          "internalType": "address[]",
          "name": "_tokens",
          "type": "address[]"
        },
        {
          "internalType": "uint256[]",
          "name": "_thresholds",
          "type": "uint256[]"
        }
      ],
      "name": "setLockedThresholds",
      "outputs": [],
      "stateMutability": "nonpayable",
      "type": "function"
    },
    {
      "inputs": [
        {
          "internalType": "uint256",
          "name": "_numerator",
          "type": "uint256"
        },
        {
          "internalType": "uint256",
          "name": "_denominator",
          "type": "uint256"
        }
      ],
      "name": "setThreshold",
      "outputs": [
        {
          "internalType": "uint256",
          "name": "_previousNum",
          "type": "uint256"
        },
        {
          "internalType": "uint256",
          "name": "_previousDenom",
          "type": "uint256"
        }
      ],
      "stateMutability": "nonpayable",
      "type": "function"
    },
    {
      "inputs": [
        {
          "internalType": "address[]",
          "name": "_tokens",
          "type": "address[]"
        },
        {
          "internalType": "uint256[]",
          "name": "_percentages",
          "type": "uint256[]"
        }
      ],
      "name": "setUnlockFeePercentages",
      "outputs": [],
      "stateMutability": "nonpayable",
      "type": "function"
    },
    {
      "inputs": [
        {
          "internalType": "contract IWETH",
          "name": "_wrappedToken",
          "type": "address"
        }
      ],
      "name": "setWrappedNativeTokenContract",
      "outputs": [],
      "stateMutability": "nonpayable",
      "type": "function"
    },
    {
      "inputs": [
        {
          "components": [
            {
              "internalType": "uint256",
              "name": "id",
              "type": "uint256"
            },
            {
              "internalType": "enum Transfer.Kind",
              "name": "kind",
              "type": "uint8"
            },
            {
              "components": [
                {
                  "internalType": "address",
                  "name": "addr",
                  "type": "address"
                },
                {
                  "internalType": "address",
                  "name": "tokenAddr",
                  "type": "address"
                },
                {
                  "internalType": "uint256",
                  "name": "chainId",
                  "type": "uint256"
                }
              ],
              "internalType": "struct Token.Owner",
              "name": "mainchain",
              "type": "tuple"
            },
            {
              "components": [
                {
                  "internalType": "address",
                  "name": "addr",
                  "type": "address"
                },
                {
                  "internalType": "address",
                  "name": "tokenAddr",
                  "type": "address"
                },
                {
                  "internalType": "uint256",
                  "name": "chainId",
                  "type": "uint256"
                }
              ],
              "internalType": "struct Token.Owner",
              "name": "ronin",
              "type": "tuple"
            },
            {
              "components": [
                {
                  "internalType": "enum Token.Standard",
                  "name": "erc",
                  "type": "uint8"
                },
                {
                  "internalType": "uint256",
                  "name": "id",
                  "type": "uint256"
                },
                {
                  "internalType": "uint256",
                  "name": "quantity",
                  "type": "uint256"
                }
              ],
              "internalType": "struct Token.Info",
              "name": "info",
              "type": "tuple"
            }
          ],
          "internalType": "struct Transfer.Receipt",
          "name": "_receipt",
          "type": "tuple"
        },
        {
          "components": [
            {
              "internalType": "uint8",
              "name": "v",
              "type": "uint8"
            },
            {
              "internalType": "bytes32",
              "name": "r",
              "type": "bytes32"
            },
            {
              "internalType": "bytes32",
              "name": "s",
              "type": "bytes32"
            }
          ],
          "internalType": "struct SignatureConsumer.Signature[]",
          "name": "_signatures",
          "type": "tuple[]"
        }
      ],
      "name": "submitWithdrawal",
      "outputs": [
        {
          "internalType": "bool",
          "name": "_locked",
          "type": "bool"
        }
      ],
      "stateMutability": "nonpayable",
      "type": "function"
    },
    {
      "inputs": [
        {
          "internalType": "bytes4",
          "name": "interfaceId",
          "type": "bytes4"
        }
      ],
      "name": "supportsInterface",
      "outputs": [
        {
          "internalType": "bool",
          "name": "",
          "type": "bool"
        }
      ],
      "stateMutability": "view",
      "type": "function"
    },
    {
      "inputs": [
        {
          "internalType": "address",
          "name": "",
          "type": "address"
        }
      ],
      "name": "unlockFeePercentages",
      "outputs": [
        {
          "internalType": "uint256",
          "name": "",
          "type": "uint256"
        }
      ],
      "stateMutability": "view",
      "type": "function"
    },
    {
      "inputs": [
        {
          "components": [
            {
              "internalType": "uint256",
              "name": "id",
              "type": "uint256"
            },
            {
              "internalType": "enum Transfer.Kind",
              "name": "kind",
              "type": "uint8"
            },
            {
              "components": [
                {
                  "internalType": "address",
                  "name": "addr",
                  "type": "address"
                },
                {
                  "internalType": "address",
                  "name": "tokenAddr",
                  "type": "address"
                },
                {
                  "internalType": "uint256",
                  "name": "chainId",
                  "type": "uint256"
                }
              ],
              "internalType": "struct Token.Owner",
              "name": "mainchain",
              "type": "tuple"
            },
            {
              "components": [
                {
                  "internalType": "address",
                  "name": "addr",
                  "type": "address"
                },
                {
                  "internalType": "address",
                  "name": "tokenAddr",
                  "type": "address"
                },
                {
                  "internalType": "uint256",
                  "name": "chainId",
                  "type": "uint256"
                }
              ],
              "internalType": "struct Token.Owner",
              "name": "ronin",
              "type": "tuple"
            },
            {
              "components": [
                {
                  "internalType": "enum Token.Standard",
                  "name": "erc",
                  "type": "uint8"
                },
                {
                  "internalType": "uint256",
                  "name": "id",
                  "type": "uint256"
                },
                {
                  "internalType": "uint256",
                  "name": "quantity",
                  "type": "uint256"
                }
              ],
              "internalType": "struct Token.Info",
              "name": "info",
              "type": "tuple"
            }
          ],
          "internalType": "struct Transfer.Receipt",
          "name": "_receipt",
          "type": "tuple"
        }
      ],
      "name": "unlockWithdrawal",
      "outputs": [],
      "stateMutability": "nonpayable",
      "type": "function"
    },
    {
      "inputs": [],
      "name": "unpause",
      "outputs": [],
      "stateMutability": "nonpayable",
      "type": "function"
    },
    {
      "inputs": [
        {
          "internalType": "uint256",
          "name": "",
          "type": "uint256"
        }
      ],
      "name": "withdrawalHash",
      "outputs": [
        {
          "internalType": "bytes32",
          "name": "",
          "type": "bytes32"
        }
      ],
      "stateMutability": "view",
      "type": "function"
    },
    {
      "inputs": [
        {
          "internalType": "uint256",
          "name": "",
          "type": "uint256"
        }
      ],
      "name": "withdrawalLocked",
      "outputs": [
        {
          "internalType": "bool",
          "name": "",
          "type": "bool"
        }
      ],
      "stateMutability": "view",
      "type": "function"
    },
    {
      "inputs": [],
      "name": "wrappedNativeToken",
      "outputs": [
        {
          "internalType": "contract IWETH",
          "name": "",
          "type": "address"
        }
      ],
      "stateMutability": "view",
      "type": "function"
    },
    {
      "stateMutability": "payable",
      "type": "receive"
    }
  ],
  "transactionHash": "0x5ca06de834fa82b0c27f8abbdaf71ae8ff740b64e81162c563ee0d88a0789891",
  "args": [],
  "numDeployments": 2,
  "solcInputHash": "bc351f4dba527ae648ad8fe83fbf45f7",
  "bytecode": "0x608060405234801561001057600080fd5b506000805460ff1916905561468c8061002a6000396000f3fe6080604052600436106103035760003560e01c80639010d07c11610190578063b1d08a03116100dc578063d547741f11610095578063dafae4081161006f578063dafae40814610960578063dff525e114610980578063e400327c146109a0578063e75235b8146109c057610312565b8063d547741f146108f3578063d55ed10314610913578063d64af2a61461094057610312565b8063b1d08a0314610814578063b297579414610841578063b9c362091461086e578063ca15c8731461088e578063cdb67444146108ae578063d19773d2146108c657610312565b80639dcc4da311610149578063ab79656611610123578063ab79656614610791578063ac78dfe8146107be578063affed0e0146107de578063b1a2567e146107f457610312565b80639dcc4da314610747578063a217fddf1461077c578063a3912ec81461031057610312565b80639010d07c14610685578063901d6277146106a55780639157921c146106c557806391d14854146106e557806393c5678f146107055780639b19dbfd1461072557610312565b80633e70838b1161024f57806359122f6b116102085780636c1ce670116101e25780636c1ce670146106075780637de5dedd146106275780638456cb591461063c5780638f34e3471461065157610312565b806359122f6b146105955780635c975abb146105c25780636932be98146105da57610312565b80633e70838b146104ea5780633f4ba83a1461050a5780634b14557e1461051f5780634d0d6673146105325780634d493f4e14610552578063504af48c1461058257610312565b80631d4a7210116102bc5780632f2ff15d116102965780632f2ff15d1461047e578063302d12db1461049e5780633644e515146104b557806336568abe146104ca57610312565b80631d4a72101461040b578063248a9ca3146104385780632dfdf0b51461046857610312565b806301ffc9a71461031a578063065b3adf1461034f57806317ce2dd41461038757806317fcb39b146103ab5780631a8e55b0146103cb5780631b6e7594146103eb57610312565b36610312576103106109d8565b005b6103106109d8565b34801561032657600080fd5b5061033a6103353660046138b1565b610a18565b60405190151581526020015b60405180910390f35b34801561035b57600080fd5b5060055461036f906001600160a01b031681565b6040516001600160a01b039091168152602001610346565b34801561039357600080fd5b5061039d60755481565b604051908152602001610346565b3480156103b757600080fd5b5060745461036f906001600160a01b031681565b3480156103d757600080fd5b506103106103e6366004613920565b610a43565b3480156103f757600080fd5b5061031061040636600461398c565b610a7f565b34801561041757600080fd5b5061039d610426366004613a46565b603e6020526000908152604090205481565b34801561044457600080fd5b5061039d610453366004613a63565b60009081526072602052604090206001015490565b34801561047457600080fd5b5061039d60765481565b34801561048a57600080fd5b50610310610499366004613a7c565b610abf565b3480156104aa57600080fd5b5061039d620f424081565b3480156104c157600080fd5b5060775461039d565b3480156104d657600080fd5b506103106104e5366004613a7c565b610ae9565b3480156104f657600080fd5b50610310610505366004613a46565b610b6c565b34801561051657600080fd5b50610310610b96565b61031061052d366004613aac565b610ba6565b34801561053e57600080fd5b5061033a61054d366004613ad7565b610bc6565b34801561055e57600080fd5b5061033a61056d366004613a63565b607a6020526000908152604090205460ff1681565b610310610590366004613b82565b610c34565b3480156105a157600080fd5b5061039d6105b0366004613a46565b603a6020526000908152604090205481565b3480156105ce57600080fd5b5060005460ff1661033a565b3480156105e657600080fd5b5061039d6105f5366004613a63565b60796020526000908152604090205481565b34801561061357600080fd5b5061033a610622366004613c5d565b610f55565b34801561063357600080fd5b5061039d610f68565b34801561064857600080fd5b50610310610f80565b34801561065d57600080fd5b5061039d7f5e5712e902fff5e704bc4d506ad976718319e019e9d2a872528a01a85db433e481565b34801561069157600080fd5b5061036f6106a0366004613c89565b610f90565b3480156106b157600080fd5b506103106106c0366004613cab565b610fa8565b3480156106d157600080fd5b506103106106e0366004613ced565b6111d5565b3480156106f157600080fd5b5061033a610700366004613a7c565b611459565b34801561071157600080fd5b50610310610720366004613920565b611484565b34801561073157600080fd5b5061073a6114ba565b6040516103469190613d0a565b34801561075357600080fd5b50610767610762366004613c89565b61151c565b60408051928352602083019190915201610346565b34801561078857600080fd5b5061039d600081565b34801561079d57600080fd5b5061039d6107ac366004613a46565b603c6020526000908152604090205481565b3480156107ca57600080fd5b5061033a6107d9366004613a63565b611545565b3480156107ea57600080fd5b5061039d60045481565b34801561080057600080fd5b5061031061080f366004613920565b611572565b34801561082057600080fd5b5061039d61082f366004613a46565b60396020526000908152604090205481565b34801561084d57600080fd5b5061086161085c366004613a46565b6115a8565b6040516103469190613d7d565b34801561087a57600080fd5b50610767610889366004613c89565b61164b565b34801561089a57600080fd5b5061039d6108a9366004613a63565b611660565b3480156108ba57600080fd5b50603754603854610767565b3480156108d257600080fd5b5061039d6108e1366004613a46565b603b6020526000908152604090205481565b3480156108ff57600080fd5b5061031061090e366004613a7c565b611677565b34801561091f57600080fd5b5061039d61092e366004613a46565b603d6020526000908152604090205481565b34801561094c57600080fd5b5061031061095b366004613a46565b61169c565b34801561096c57600080fd5b5061033a61097b366004613a63565b6116ad565b34801561098c57600080fd5b5061031061099b366004613da9565b6116d2565b3480156109ac57600080fd5b506103106109bb366004613920565b611747565b3480156109cc57600080fd5b50600154600254610767565b6109e061177d565b6074546001600160a01b03163314610a16576109fa613870565b338152604080820151349101528051610a149082906117c3565b505b565b60006001600160e01b03198216635a05180f60e01b1480610a3d5750610a3d82611a24565b92915050565b610a4b611a59565b6000839003610a6d576040516316ee9d3b60e11b815260040160405180910390fd5b610a7984848484611ab3565b50505050565b610a87611a59565b6000859003610aa9576040516316ee9d3b60e11b815260040160405180910390fd5b610ab7868686868686611b88565b505050505050565b600082815260726020526040902060010154610ada81611d1f565b610ae48383611d29565b505050565b6001600160a01b0381163314610b5e5760405162461bcd60e51b815260206004820152602f60248201527f416363657373436f6e74726f6c3a2063616e206f6e6c792072656e6f756e636560448201526e103937b632b9903337b91039b2b63360891b60648201526084015b60405180910390fd5b610b688282611d4b565b5050565b610b74611a59565b600580546001600160a01b0319166001600160a01b0392909216919091179055565b610b9e611d6d565b610a16611ddc565b610bae61177d565b610a14610bc036839003830183613f06565b336117c3565b6000610bd061177d565b610c2c848484808060200260200160405190810160405280939291908181526020016000905b82821015610c2257610c1360608302860136819003810190613f59565b81526020019060010190610bf6565b5050505050611e2e565b949350505050565b607154610100900460ff1615808015610c545750607154600160ff909116105b80610c6e5750303b158015610c6e575060715460ff166001145b610cd15760405162461bcd60e51b815260206004820152602e60248201527f496e697469616c697a61626c653a20636f6e747261637420697320616c72656160448201526d191e481a5b9a5d1a585b1a5e995960921b6064820152608401610b55565b6071805460ff191660011790558015610cf4576071805461ff0019166101001790555b610cff60008c612298565b6075899055610d0d8a6122a2565b610d986040517f8b73c3c69bb8fe3d512ecc4cf759cc79239f7b179b0ffacaa9a75d522b39400f81527f159f52c1e3a2b6a6aad3950adf713516211484e0516dad685ea662a094b7c43b60208201527fad7c5bef027816a800da1736444fb58a807ef4c9603b7848673f7e3a68eb14a5604082015246606082015230608082015260a0812060775550565b610da288876122f6565b5050610dae878761238d565b5050610db861241a565b6000610dc48680613fe5565b90501115610e8557610ded610dd98680613fe5565b610de66020890189613fe5565b8787611b88565b610e13610dfa8680613fe5565b8660005b602002810190610e0e9190613fe5565b612467565b610e39610e208680613fe5565b8660015b602002810190610e349190613fe5565b611ab3565b610e5f610e468680613fe5565b8660025b602002810190610e5a9190613fe5565b61253c565b610e85610e6c8680613fe5565b8660035b602002810190610e809190613fe5565b61264d565b60005b610e956040870187613fe5565b9050811015610f0157610ef97f5e5712e902fff5e704bc4d506ad976718319e019e9d2a872528a01a85db433e4610ecf6040890189613fe5565b84818110610edf57610edf613fcf565b9050602002016020810190610ef49190613a46565b611d29565b600101610e88565b508015610f48576071805461ff0019169055604051600181527f7f26b83ff96e1f2b6a682f133852f6798a09c465da95921460cefb38474024989060200160405180910390a15b5050505050505050505050565b6000610f618383612722565b9392505050565b6000610f7b610f76607c5490565b6127e6565b905090565b610f88611d6d565b610a1661281c565b6000828152607360205260408120610f619083612859565b610fb0611a59565b6000805b8281101561107357838382818110610fce57610fce613fcf565b9050602002016020810190610fe39190613a46565b6001600160a01b0381166000908152607b60205260408120549193500361105057607c80546001810182556000919091527f9222cbf5d0ddc505a6f2f04716e22c226cee16a955fef88c618922096dae2fd00180546001600160a01b0319166001600160a01b0384161790555b6001600160a01b0382166000908152607b60205260409020439055600101610fb4565b5060005b607c5481101561119657607c818154811061109457611094613fcf565b60009182526020808320909101546001600160a01b0316808352607b90915260409091205490925043111561118e576001600160a01b0382166000908152607b6020526040812055607c80546110ec90600190614045565b815481106110fc576110fc613fcf565b600091825260209091200154607c80546001600160a01b03909216918390811061112857611128613fcf565b9060005260206000200160006101000a8154816001600160a01b0302191690836001600160a01b03160217905550607c80548061116757611167614058565b600082815260209020810160001990810180546001600160a01b0319169055019055611077565b600101611077565b507f13d4eff010663e07d8228b8c8d1c4788eb5d5d58be5cce74fd3eca72402d86dc83836040516111c89291906140b7565b60405180910390a1505050565b7f5e5712e902fff5e704bc4d506ad976718319e019e9d2a872528a01a85db433e46111ff81611d1f565b600061121861121336859003850185614119565b612865565b905061122c61121336859003850185614119565b83356000908152607960205260409020541461125b5760405163f4b8742f60e01b815260040160405180910390fd5b82356000908152607a602052604090205460ff1661128c5760405163147bfe0760e01b815260040160405180910390fd5b82356000908152607a602052604090819020805460ff19169055517fd639511b37b3b002cca6cfe6bca0d833945a5af5a045578a0627fc43b79b2630906112d690839086906141ed565b60405180910390a160006112f06080850160608601613a46565b905060006113066101208601610100870161427a565b600181111561131757611317613d57565b036113de5760006113313686900386016101008701614297565b6001600160a01b0383166000908152603b602052604090205490915061135d906101408701359061292f565b604082015260006113773687900387016101008801614297565b604083015190915061138e90610140880135614045565b60408201526074546113ae908390339086906001600160a01b0316612949565b6113d76113c16060880160408901613a46565b60745483919086906001600160a01b0316612949565b505061141a565b61141a6113f16060860160408701613a46565b60745483906001600160a01b03166114123689900389016101008a01614297565b929190612949565b7f21e88e956aa3e086f6388e899965cef814688f99ad8bb29b08d396571016372d828560405161144b9291906141ed565b60405180910390a150505050565b60009182526072602090815260408084206001600160a01b0393909316845291905290205460ff1690565b61148c611a59565b60008390036114ae576040516316ee9d3b60e11b815260040160405180910390fd5b610a7984848484612467565b6060607c80548060200260200160405190810160405280929190818152602001828054801561151257602002820191906000526020600020905b81546001600160a01b031681526001909101906020018083116114f4575b5050505050905090565b600080611527611a59565b611531848461238d565b909250905061153e61241a565b9250929050565b6000611550607c5490565b60375461155d91906142b3565b60385461156a90846142b3565b101592915050565b61157a611a59565b600083900361159c576040516316ee9d3b60e11b815260040160405180910390fd5b610a798484848461253c565b60408051808201909152600080825260208201526001600160a01b0382166000908152607860205260409081902081518083019092528054829060ff1660018111156115f6576115f6613d57565b600181111561160757611607613d57565b815290546001600160a01b036101009091048116602092830152908201519192501661164657604051631b79f53b60e21b815260040160405180910390fd5b919050565b600080611656611a59565b61153184846122f6565b6000818152607360205260408120610a3d90612c85565b60008281526072602052604090206001015461169281611d1f565b610ae48383611d4b565b6116a4611a59565b610a14816122a2565b60006116b8607c5490565b6001546116c591906142b3565b60025461156a90846142b3565b6116da611a59565b60008690036116fc576040516316ee9d3b60e11b815260040160405180910390fd5b61170a878787878787611b88565b6117178787836000610dfe565b6117248787836001610e24565b6117318787836002610e4a565b61173e8787836003610e70565b50505050505050565b61174f611a59565b6000839003611771576040516316ee9d3b60e11b815260040160405180910390fd5b610a798484848461264d565b60005460ff1615610a165760405162461bcd60e51b815260206004820152601060248201526f14185d5cd8589b194e881c185d5cd95960821b6044820152606401610b55565b604080518082018252600080825260208201526074549184015190916001600160a01b0316906117f290612c8f565b60208401516001600160a01b031661189357348460400151604001511461182c5760405163129c2ce160e31b815260040160405180910390fd5b611835816115a8565b604085015151909250600181111561184f5761184f613d57565b8251600181111561186257611862613d57565b1461187f5760405162035e2b60ea1b815260040160405180910390fd5b6001600160a01b03811660208501526119a1565b34156118b25760405163129c2ce160e31b815260040160405180910390fd5b6118bf84602001516115a8565b60408501515190925060018111156118d9576118d9613d57565b825160018111156118ec576118ec613d57565b146119095760405162035e2b60ea1b815260040160405180910390fd5b602084015160408501516119209185903090612d0a565b83602001516001600160a01b0316816001600160a01b0316036119a1576040848101518101519051632e1a7d4d60e01b815260048101919091526001600160a01b03821690632e1a7d4d90602401600060405180830381600087803b15801561198857600080fd5b505af115801561199c573d6000803e3d6000fd5b505050505b60768054600091826119b2836142ca565b91905055905060006119d9858386602001516075548a612eeb90949392919063ffffffff16565b90507fd7b25068d9dc8d00765254cfb7f5070f98d263c8d68931d937c7362fa738048b611a0582612865565b82604051611a14929190614305565b60405180910390a1505050505050565b60006001600160e01b03198216637965db0b60e01b1480610a3d57506301ffc9a760e01b6001600160e01b0319831614610a3d565b7fb53127684a568b3173ae13b9f8a6016e243e63b6e8ee1178d6a717850b5d6103546001600160a01b03163314610a16576000356001600160e01b0319166001604051620f948f60ea1b8152600401610b559291906143a3565b828114611ae1576000356001600160e01b0319166040516306b5667560e21b8152600401610b5591906143d1565b60005b83811015611b5257828282818110611afe57611afe613fcf565b90506020020135603a6000878785818110611b1b57611b1b613fcf565b9050602002016020810190611b309190613a46565b6001600160a01b03168152602081019190915260400160002055600101611ae4565b507f64557254143204d91ba2d95acb9fda1e5fea55f77efd028685765bc1e94dd4b58484848460405161144b94939291906143e6565b8483148015611b9657508481145b611bc1576000356001600160e01b0319166040516306b5667560e21b8152600401610b5591906143d1565b60005b85811015611ce557848482818110611bde57611bde613fcf565b9050602002016020810190611bf39190613a46565b60786000898985818110611c0957611c09613fcf565b9050602002016020810190611c1e9190613a46565b6001600160a01b03908116825260208201929092526040016000208054610100600160a81b0319166101009390921692909202179055828282818110611c6657611c66613fcf565b9050602002016020810190611c7b919061427a565b60786000898985818110611c9157611c91613fcf565b9050602002016020810190611ca69190613a46565b6001600160a01b031681526020810191909152604001600020805460ff191660018381811115611cd857611cd8613d57565b0217905550600101611bc4565b507fa4f03cc9c0e0aeb5b71b4ec800702753f65748c2cf3064695ba8e8b46be70444868686868686604051611a1496959493929190614432565b610a148133612fc0565b611d338282613024565b6000828152607360205260409020610ae490826130aa565b611d5582826130bf565b6000828152607360205260409020610ae49082613126565b7fb53127684a568b3173ae13b9f8a6016e243e63b6e8ee1178d6a717850b5d6103546001600160a01b0316331480611daf57506005546001600160a01b031633145b610a16576000356001600160e01b0319166001604051620f948f60ea1b8152600401610b559291906143a3565b611de461313b565b6000805460ff191690557f5db9ee0a495bf2e6ff9c91a7834c1ba4fdd244a5e8aa4e537bd38aeae4b073aa335b6040516001600160a01b03909116815260200160405180910390a1565b6000823561014084013582611e496080870160608801613a46565b9050611e66611e613688900388016101008901614297565b612c8f565b6001611e78604088016020890161427a565b6001811115611e8957611e89613d57565b14611ea75760405163182f3d8760e11b815260040160405180910390fd5b60808601354614611ee95760405163092048d160e11b81526000356001600160e01b031916600482015260808701356024820152466044820152606401610b55565b6000611efe61085c6080890160608a01613a46565b9050611f126101208801610100890161427a565b6001811115611f2357611f23613d57565b81516001811115611f3657611f36613d57565b148015611f675750611f4e60e0880160c08901613a46565b6001600160a01b031681602001516001600160a01b0316145b611f845760405163f4b8742f60e01b815260040160405180910390fd5b60008481526079602052604090205415611fb157604051634f13df6160e01b815260040160405180910390fd5b6001611fc561012089016101008a0161427a565b6001811115611fd657611fd6613d57565b1480611fe95750611fe78284612722565b155b6120065760405163c51297b760e01b815260040160405180910390fd5b600061201a611213368a90038a018a614119565b9050600061202a60775483613184565b9050600061204a6120436101208c016101008d0161427a565b86886131c5565b60408051606081018252600080825260208201819052918101829052919a50919250819081906000805b8e5181101561216f578e818151811061208f5761208f613fcf565b6020908102919091018101518051818301516040808401518151600081529586018083528e905260ff9093169085015260608401526080830152935060019060a0016020604051602081039080840390855afa1580156120f3573d6000803e3d6000fd5b505050602060405103519450846001600160a01b0316846001600160a01b03161061213f576000356001600160e01b031916604051635d3dcd3160e01b8152600401610b5591906143d1565b84935061214b8561324c565b61215590836144aa565b9150868210612167576001955061216f565b600101612074565b508461218e57604051639e8f5f6360e01b815260040160405180910390fd5b505050600089815260796020526040902085905550508715612209576000878152607a602052604090819020805460ff19166001179055517f89e52969465b1f1866fc5d46fd62de953962e9cb33552443cd999eba05bd20dc906121f59085908d906141ed565b60405180910390a150505050505050610a3d565b612213858761327c565b61225261222660608c0160408d01613a46565b86607460009054906101000a90046001600160a01b03168d610100018036038101906114129190614297565b7f21e88e956aa3e086f6388e899965cef814688f99ad8bb29b08d396571016372d838b6040516122839291906141ed565b60405180910390a15050505050505092915050565b610b688282611d29565b607480546001600160a01b0319166001600160a01b0383169081179091556040519081527f9d2334c23be647e994f27a72c5eee42a43d5bdcfe15bb88e939103c2b114cbaf9060200160405180910390a150565b60008082841115612328576000356001600160e01b0319166040516387f6f09560e01b8152600401610b5591906143d1565b50506001805460028054858455908490556004805493840190556040805183815260208101839052929391928592879290917f976f8a9c5bdf8248dec172376d6e2b80a8e3df2f0328e381c6db8e1cf138c0f891015b60405180910390a49250929050565b600080828411156123bf576000356001600160e01b0319166040516387f6f09560e01b8152600401610b5591906143d1565b5050603780546038805492859055839055600480546001810190915560408051838152602081018590529293928592879290917f31312c97b89cc751b832d98fd459b967a2c3eef3b49757d1cf5ebaa12bb6eee1910161237e565b60025460375461242a91906142b3565b60385460015461243a91906142b3565b1115610a16576000356001600160e01b0319166040516387f6f09560e01b8152600401610b5591906143d1565b828114612495576000356001600160e01b0319166040516306b5667560e21b8152600401610b5591906143d1565b60005b83811015612506578282828181106124b2576124b2613fcf565b90506020020135603960008787858181106124cf576124cf613fcf565b90506020020160208101906124e49190613a46565b6001600160a01b03168152602081019190915260400160002055600101612498565b507f80bc635c452ae67f12f9b6f12ad4daa6dbbc04eeb9ebb87d354ce10c0e210dc08484848460405161144b94939291906143e6565b82811461256a576000356001600160e01b0319166040516306b5667560e21b8152600401610b5591906143d1565b60005b8381101561261757620f424083838381811061258b5761258b613fcf565b9050602002013511156125b15760405163572d3bd360e11b815260040160405180910390fd5b8282828181106125c3576125c3613fcf565b90506020020135603b60008787858181106125e0576125e0613fcf565b90506020020160208101906125f59190613a46565b6001600160a01b0316815260208101919091526040016000205560010161256d565b507fb05f5de88ae0294ebb6f67c5af2fcbbd593cc6bdfe543e2869794a4c8ce3ea508484848460405161144b94939291906143e6565b82811461267b576000356001600160e01b0319166040516306b5667560e21b8152600401610b5591906143d1565b60005b838110156126ec5782828281811061269857612698613fcf565b90506020020135603c60008787858181106126b5576126b5613fcf565b90506020020160208101906126ca9190613a46565b6001600160a01b0316815260208101919091526040016000205560010161267e565b507fb5d2963614d72181b4df1f993d45b83edf42fa19710f0204217ba1b3e183bb738484848460405161144b94939291906143e6565b6001600160a01b0382166000908152603a6020526040812054821061274957506000610a3d565b600061275862015180426144bd565b6001600160a01b0385166000908152603e602052604090205490915081111561279e5750506001600160a01b0382166000908152603c6020526040902054811015610a3d565b6001600160a01b0384166000908152603d60205260409020546127c29084906144aa565b6001600160a01b0385166000908152603c602052604090205411159150610a3d9050565b60006002546001600254846001546127fe91906142b3565b61280891906144aa565b6128129190614045565b610a3d91906144bd565b61282461177d565b6000805460ff191660011790557f62e78cea01bee320cd4e420270b5ea74000d11b0c9f74754ebdbfc544b05a258611e113390565b6000610f61838361330c565b6000806128758360400151613336565b905060006128868460600151613336565b905060006128da8560800151604080517f1e2b74b2a792d5c0f0b6e59b037fa9d43d84fbb759337f0112fcc15ca414fc8d815282516020808301919091528301518183015291015160608201526080902090565b604080517fb9d1fe7c9deeec5dc90a2f47ff1684239519f2545b2228d3d91fb27df3189eea815287516020808301919091529097015190870152606086019390935250608084015260a08301525060c0902090565b6000620f424061293f83856142b3565b610f6191906144bd565b6000816001600160a01b0316836001600160a01b0316036129f85760408086015190516001600160a01b0386169180156108fc02916000818181858888f193505050506129f357816001600160a01b031663d0e30db086604001516040518263ffffffff1660e01b81526004016000604051808303818588803b1580156129cf57600080fd5b505af11580156129e3573d6000803e3d6000fd5b50505050506129f385858561337e565b612c7e565b600085516001811115612a0d57612a0d613d57565b03612b76576040516370a0823160e01b81523060048201526000906001600160a01b038516906370a0823190602401602060405180830381865afa158015612a59573d6000803e3d6000fd5b505050506040513d601f19601f82011682018060405250810190612a7d91906144df565b90508560400151811015612b6557836001600160a01b03166340c10f1930838960400151612aab9190614045565b6040516001600160a01b03909216602483015260448201526064016040516020818303038152906040529060e01b6020820180516001600160e01b038381831617835250505050604051612aff919061451c565b6000604051808303816000865af19150503d8060008114612b3c576040519150601f19603f3d011682016040523d82523d6000602084013e612b41565b606091505b50508092505081612b6557604051632f739fff60e11b815260040160405180910390fd5b612b7086868661337e565b50612c7e565b600185516001811115612b8b57612b8b613d57565b03612c6557612b9f838587602001516133fc565b6129f357602085810151604080516001600160a01b038881166024830152604480830194909452825180830390940184526064909101825292820180516001600160e01b03166340c10f1960e01b1790525191851691612bff919061451c565b6000604051808303816000865af19150503d8060008114612c3c576040519150601f19603f3d011682016040523d82523d6000602084013e612c41565b606091505b505080915050806129f35760405163c8e3a09f60e01b815260040160405180910390fd5b6040516361e411a760e11b815260040160405180910390fd5b5050505050565b6000610a3d825490565b600081516001811115612ca457612ca4613d57565b148015612cb5575060008160400151115b8015612cc357506020810151155b80612ced5750600181516001811115612cde57612cde613d57565b148015612ced57506040810151155b610a145760405163034992a760e51b815260040160405180910390fd5b600060608186516001811115612d2257612d22613d57565b03612dff5760408681015181516001600160a01b038881166024830152878116604483015260648083019390935283518083039093018352608490910183526020820180516001600160e01b03166323b872dd60e01b179052915191851691612d8b919061451c565b6000604051808303816000865af19150503d8060008114612dc8576040519150601f19603f3d011682016040523d82523d6000602084013e612dcd565b606091505b509092509050818015612df8575080511580612df8575080806020019051810190612df89190614538565b9150612ec5565b600186516001811115612e1457612e14613d57565b03612c6557602086810151604080516001600160a01b0389811660248301528881166044830152606480830194909452825180830390940184526084909101825292820180516001600160e01b03166323b872dd60e01b1790525191851691612e7d919061451c565b6000604051808303816000865af19150503d8060008114612eba576040519150601f19603f3d011682016040523d82523d6000602084013e612ebf565b606091505b50909250505b81610ab75785858585604051639d2e4c6760e01b8152600401610b55949392919061455a565b612f5b6040805160a08101825260008082526020808301829052835160608082018652838252818301849052818601849052848601919091528451808201865283815280830184905280860184905281850152845190810185528281529081018290529283015290608082015290565b83815260006020820181905250604080820180516001600160a01b039788169052602080890151825190891690820152905146908301528751606084018051918916909152805195909716940193909352935182015292909201516080820152919050565b612fca8282611459565b610b6857612fe2816001600160a01b031660146134a7565b612fed8360206134a7565b604051602001612ffe929190614590565b60408051601f198184030181529082905262461bcd60e51b8252610b5591600401614605565b61302e8282611459565b610b685760008281526072602090815260408083206001600160a01b03851684529091529020805460ff191660011790556130663390565b6001600160a01b0316816001600160a01b0316837f2f8788117e7eff1d82e926ec794901d17c78024a50270940304540a733656f0d60405160405180910390a45050565b6000610f61836001600160a01b038416613643565b6130c98282611459565b15610b685760008281526072602090815260408083206001600160a01b0385168085529252808320805460ff1916905551339285917ff6391f5c32d9c69d2a47ea670b442974b53935d1edc7fd64eb21e047a839171b9190a45050565b6000610f61836001600160a01b038416613692565b60005460ff16610a165760405162461bcd60e51b815260206004820152601460248201527314185d5cd8589b194e881b9bdd081c185d5cd95960621b6044820152606401610b55565b6040805161190160f01b6020808301919091526022820185905260428083018590528351808403909101815260629092019092528051910120600090610f61565b60008060006131d3607c5490565b90506131de816127e6565b925060008660018111156131f4576131f4613d57565b03613243576001600160a01b03851660009081526039602052604090205484106132245761322181613785565b92505b6001600160a01b0385166000908152603a602052604090205484101591505b50935093915050565b6001600160a01b0381166000908152607b6020526040812054613270576000613273565b60015b60ff1692915050565b600061328b62015180426144bd565b6001600160a01b0384166000908152603e60205260409020549091508111156132da576001600160a01b03929092166000908152603e6020908152604080832094909455603d90529190912055565b6001600160a01b0383166000908152603d6020526040812080548492906133029084906144aa565b9091555050505050565b600082600001828154811061332357613323613fcf565b9060005260206000200154905092915050565b604080517f353bdd8d69b9e3185b3972e08b03845c0c14a21a390215302776a7a34b0e8764815282516020808301919091528301518183015291015160608201526080902090565b6000808451600181111561339457613394613d57565b036133af576133a88284866040015161379d565b90506133d8565b6001845160018111156133c4576133c4613d57565b03612c65576133a8828486602001516133fc565b80610a79578383836040516341bd7d9160e11b8152600401610b5593929190614638565b604080513060248201526001600160a01b038481166044830152606480830185905283518084039091018152608490920183526020820180516001600160e01b03166323b872dd60e01b179052915160009286169161345a9161451c565b6000604051808303816000865af19150503d8060008114613497576040519150601f19603f3d011682016040523d82523d6000602084013e61349c565b606091505b509095945050505050565b606060006134b68360026142b3565b6134c19060026144aa565b67ffffffffffffffff8111156134d9576134d9613e67565b6040519080825280601f01601f191660200182016040528015613503576020820181803683370190505b509050600360fc1b8160008151811061351e5761351e613fcf565b60200101906001600160f81b031916908160001a905350600f60fb1b8160018151811061354d5761354d613fcf565b60200101906001600160f81b031916908160001a90535060006135718460026142b3565b61357c9060016144aa565b90505b60018111156135f4576f181899199a1a9b1b9c1cb0b131b232b360811b85600f16601081106135b0576135b0613fcf565b1a60f81b8282815181106135c6576135c6613fcf565b60200101906001600160f81b031916908160001a90535060049490941c936135ed81614668565b905061357f565b508315610f615760405162461bcd60e51b815260206004820181905260248201527f537472696e67733a20686578206c656e67746820696e73756666696369656e746044820152606401610b55565b600081815260018301602052604081205461368a57508154600181810184556000848152602080822090930184905584548482528286019093526040902091909155610a3d565b506000610a3d565b6000818152600183016020526040812054801561377b5760006136b6600183614045565b85549091506000906136ca90600190614045565b905081811461372f5760008660000182815481106136ea576136ea613fcf565b906000526020600020015490508087600001848154811061370d5761370d613fcf565b6000918252602080832090910192909255918252600188019052604090208390555b855486908061374057613740614058565b600190038181906000526020600020016000905590558560010160008681526020019081526020016000206000905560019350505050610a3d565b6000915050610a3d565b60006038546001603854846037546127fe91906142b3565b604080516001600160a01b038481166024830152604480830185905283518084039091018152606490920183526020820180516001600160e01b031663a9059cbb60e01b1790529151600092606092908716916137fa919061451c565b6000604051808303816000865af19150503d8060008114613837576040519150601f19603f3d011682016040523d82523d6000602084013e61383c565b606091505b5090925090508180156138675750805115806138675750808060200190518101906138679190614538565b95945050505050565b60408051606081018252600080825260208201529081016138ac6040805160608101909152806000815260200160008152602001600081525090565b905290565b6000602082840312156138c357600080fd5b81356001600160e01b031981168114610f6157600080fd5b60008083601f8401126138ed57600080fd5b50813567ffffffffffffffff81111561390557600080fd5b6020830191508360208260051b850101111561153e57600080fd5b6000806000806040858703121561393657600080fd5b843567ffffffffffffffff8082111561394e57600080fd5b61395a888389016138db565b9096509450602087013591508082111561397357600080fd5b50613980878288016138db565b95989497509550505050565b600080600080600080606087890312156139a557600080fd5b863567ffffffffffffffff808211156139bd57600080fd5b6139c98a838b016138db565b909850965060208901359150808211156139e257600080fd5b6139ee8a838b016138db565b90965094506040890135915080821115613a0757600080fd5b50613a1489828a016138db565b979a9699509497509295939492505050565b6001600160a01b0381168114610a1457600080fd5b803561164681613a26565b600060208284031215613a5857600080fd5b8135610f6181613a26565b600060208284031215613a7557600080fd5b5035919050565b60008060408385031215613a8f57600080fd5b823591506020830135613aa181613a26565b809150509250929050565b600060a08284031215613abe57600080fd5b50919050565b60006101608284031215613abe57600080fd5b60008060006101808486031215613aed57600080fd5b613af78585613ac4565b925061016084013567ffffffffffffffff80821115613b1557600080fd5b818601915086601f830112613b2957600080fd5b813581811115613b3857600080fd5b876020606083028501011115613b4d57600080fd5b6020830194508093505050509250925092565b8060608101831015610a3d57600080fd5b8060808101831015610a3d57600080fd5b6000806000806000806000806000806101208b8d031215613ba257600080fd5b613bab8b613a3b565b9950613bb960208c01613a3b565b985060408b0135975060608b0135965060808b0135955060a08b0135945060c08b013567ffffffffffffffff80821115613bf257600080fd5b613bfe8e838f01613b60565b955060e08d0135915080821115613c1457600080fd5b613c208e838f01613b71565b94506101008d0135915080821115613c3757600080fd5b50613c448d828e016138db565b915080935050809150509295989b9194979a5092959850565b60008060408385031215613c7057600080fd5b8235613c7b81613a26565b946020939093013593505050565b60008060408385031215613c9c57600080fd5b50508035926020909101359150565b60008060208385031215613cbe57600080fd5b823567ffffffffffffffff811115613cd557600080fd5b613ce1858286016138db565b90969095509350505050565b60006101608284031215613d0057600080fd5b610f618383613ac4565b6020808252825182820181905260009190848201906040850190845b81811015613d4b5783516001600160a01b031683529284019291840191600101613d26565b50909695505050505050565b634e487b7160e01b600052602160045260246000fd5b60028110610a1457610a14613d57565b81516040820190613d8d81613d6d565b82526020928301516001600160a01b0316929091019190915290565b60008060008060008060006080888a031215613dc457600080fd5b873567ffffffffffffffff80821115613ddc57600080fd5b613de88b838c016138db565b909950975060208a0135915080821115613e0157600080fd5b613e0d8b838c016138db565b909750955060408a0135915080821115613e2657600080fd5b613e328b838c016138db565b909550935060608a0135915080821115613e4b57600080fd5b50613e588a828b01613b71565b91505092959891949750929550565b634e487b7160e01b600052604160045260246000fd5b6040516060810167ffffffffffffffff81118282101715613eae57634e487b7160e01b600052604160045260246000fd5b60405290565b60028110610a1457600080fd5b600060608284031215613ed357600080fd5b613edb613e7d565b90508135613ee881613eb4565b80825250602082013560208201526040820135604082015292915050565b600060a08284031215613f1857600080fd5b613f20613e7d565b8235613f2b81613a26565b81526020830135613f3b81613a26565b6020820152613f4d8460408501613ec1565b60408201529392505050565b600060608284031215613f6b57600080fd5b6040516060810181811067ffffffffffffffff82111715613f9c57634e487b7160e01b600052604160045260246000fd5b604052823560ff81168114613fb057600080fd5b8152602083810135908201526040928301359281019290925250919050565b634e487b7160e01b600052603260045260246000fd5b6000808335601e19843603018112613ffc57600080fd5b83018035915067ffffffffffffffff82111561401757600080fd5b6020019150600581901b360382131561153e57600080fd5b634e487b7160e01b600052601160045260246000fd5b81810381811115610a3d57610a3d61402f565b634e487b7160e01b600052603160045260246000fd5b8183526000602080850194508260005b858110156140ac57813561409181613a26565b6001600160a01b03168752958201959082019060010161407e565b509495945050505050565b602081526000610c2c60208301848661406e565b6000606082840312156140dd57600080fd5b6140e5613e7d565b905081356140f281613a26565b8152602082013561410281613a26565b806020830152506040820135604082015292915050565b6000610160828403121561412c57600080fd5b60405160a0810181811067ffffffffffffffff8211171561415d57634e487b7160e01b600052604160045260246000fd5b60405282358152602083013561417281613eb4565b602082015261418484604085016140cb565b60408201526141968460a085016140cb565b60608201526141a9846101008501613ec1565b60808201529392505050565b80356141c081613a26565b6001600160a01b0390811683526020820135906141dc82613a26565b166020830152604090810135910152565b60006101808201905083825282356020830152602083013561420e81613eb4565b61421781613d6d565b8060408401525061422e60608301604085016141b5565b61423e60c0830160a085016141b5565b61012061010084013561425081613eb4565b61425981613d6d565b81840152830135610140808401919091529092013561016090910152919050565b60006020828403121561428c57600080fd5b8135610f6181613eb4565b6000606082840312156142a957600080fd5b610f618383613ec1565b8082028115828204841417610a3d57610a3d61402f565b6000600182016142dc576142dc61402f565b5060010190565b80516142ee81613d6d565b825260208181015190830152604090810151910152565b60006101808201905083825282516020830152602083015161432681613d6d565b6040838101919091528381015180516001600160a01b03908116606086015260208201511660808501529081015160a084015250606083015180516001600160a01b0390811660c085015260208201511660e0840152604081015161010084015250608083015161439b6101208401826142e3565b509392505050565b6001600160e01b03198316815260408101600983106143c4576143c4613d57565b8260208301529392505050565b6001600160e01b031991909116815260200190565b6040815260006143fa60408301868861406e565b82810360208401528381526001600160fb1b0384111561441957600080fd5b8360051b80866020840137016020019695505050505050565b60608152600061444660608301888a61406e565b60208382038185015261445a82888a61406e565b8481036040860152858152869250810160005b8681101561449b57833561448081613eb4565b61448981613d6d565b8252928201929082019060010161446d565b509a9950505050505050505050565b80820180821115610a3d57610a3d61402f565b6000826144da57634e487b7160e01b600052601260045260246000fd5b500490565b6000602082840312156144f157600080fd5b5051919050565b60005b838110156145135781810151838201526020016144fb565b50506000910152565b6000825161452e8184602087016144f8565b9190910192915050565b60006020828403121561454a57600080fd5b81518015158114610f6157600080fd5b60c0810161456882876142e3565b6001600160a01b0394851660608301529284166080820152921660a090920191909152919050565b7f416363657373436f6e74726f6c3a206163636f756e74200000000000000000008152600083516145c88160178501602088016144f8565b7001034b99036b4b9b9b4b733903937b6329607d1b60179184019182015283516145f98160288401602088016144f8565b01602801949350505050565b60208152600082518060208401526146248160408501602087016144f8565b601f01601f19169190910160400192915050565b60a0810161464682866142e3565b6001600160a01b03938416606083015291909216608090920191909152919050565b6000816146775761467761402f565b50600019019056fea164736f6c6343000811000a",
  "devdoc": {
    "errors": {
      "ErrERC20MintingFailed()": [
        {
          "details": "Error indicating that the minting of ERC20 tokens has failed."
        }
      ],
      "ErrERC721MintingFailed()": [
        {
          "details": "Error indicating that the minting of ERC721 tokens has failed."
        }
      ],
      "ErrEmptyArray()": [
        {
          "details": "Error indicating that an array is empty when it should contain elements."
        }
      ],
      "ErrInvalidChainId(bytes4,uint256,uint256)": [
        {
          "details": "Error indicating that the chain ID is invalid.",
          "params": {
            "actual": "Current chain ID that executing function.",
            "expected": "Expected chain ID required for the tx to success.",
            "msgSig": "The function signature (bytes4) of the operation that encountered an invalid chain ID."
          }
        }
      ],
      "ErrInvalidInfo()": [
        {
          "details": "Error indicating that the provided information is invalid."
        }
      ],
      "ErrInvalidOrder(bytes4)": [
        {
          "details": "Error indicating that an order is invalid.",
          "params": {
            "msgSig": "The function signature (bytes4) of the operation that encountered an invalid order."
          }
        }
      ],
      "ErrInvalidPercentage()": [
        {
          "details": "Error of invalid percentage."
        }
      ],
      "ErrInvalidReceipt()": [
        {
          "details": "Error indicating that a receipt is invalid."
        }
      ],
      "ErrInvalidReceiptKind()": [
        {
          "details": "Error indicating that a receipt kind is invalid."
        }
      ],
      "ErrInvalidRequest()": [
        {
          "details": "Error indicating that a request is invalid."
        }
      ],
      "ErrInvalidThreshold(bytes4)": [
        {
          "details": "Error indicating that the provided threshold is invalid for a specific function signature.",
          "params": {
            "msgSig": "The function signature (bytes4) that the invalid threshold applies to."
          }
        }
      ],
      "ErrInvalidTokenStandard()": [
        {
          "details": "Error indicating that a token standard is invalid."
        }
      ],
      "ErrLengthMismatch(bytes4)": [
        {
          "details": "Error indicating a mismatch in the length of input parameters or arrays for a specific function.",
          "params": {
            "msgSig": "The function signature (bytes4) that has a length mismatch."
          }
        }
      ],
      "ErrQueryForApprovedWithdrawal()": [
        {
          "details": "Error indicating that a query was made for an approved withdrawal."
        }
      ],
      "ErrQueryForInsufficientVoteWeight()": [
        {
          "details": "Error indicating that a query was made for insufficient vote weight."
        }
      ],
      "ErrQueryForProcessedWithdrawal()": [
        {
          "details": "Error indicating that a query was made for a processed withdrawal."
        }
      ],
      "ErrReachedDailyWithdrawalLimit()": [
        {
          "details": "Error indicating that the daily withdrawal limit has been reached."
        }
      ],
      "ErrTokenCouldNotTransfer((uint8,uint256,uint256),address,address)": [
        {
          "details": "Error indicating that the `transfer` has failed.",
          "params": {
            "to": "Receiver of the token value.",
            "token": "Address of the token.",
            "tokenInfo": "Info of the token including ERC standard, id or quantity."
          }
        }
      ],
      "ErrTokenCouldNotTransferFrom((uint8,uint256,uint256),address,address,address)": [
        {
          "details": "Error indicating that the `transferFrom` has failed.",
          "params": {
            "from": "Owner of the token value.",
            "to": "Receiver of the token value.",
            "token": "Address of the token.",
            "tokenInfo": "Info of the token including ERC standard, id or quantity."
          }
        }
      ],
      "ErrUnauthorized(bytes4,uint8)": [
        {
          "details": "Error indicating that the caller is unauthorized to perform a specific function.",
          "params": {
            "expectedRole": "The role required to perform the function.",
            "msgSig": "The function signature (bytes4) that the caller is unauthorized to perform."
          }
        }
      ],
      "ErrUnsupportedStandard()": [
        {
          "details": "Error indicating that an unsupported standard is encountered."
        }
      ],
      "ErrUnsupportedToken()": [
        {
          "details": "Error indicating that a token is not supported."
        }
      ]
    },
    "events": {
      "BridgeOperatorsReplaced(address[])": {
        "details": "Emitted when the bridge operators are replaced"
      }
    },
    "kind": "dev",
    "methods": {
      "DOMAIN_SEPARATOR()": {
        "details": "Returns the domain seperator."
      },
      "checkHighTierVoteWeightThreshold(uint256)": {
        "details": "Checks whether the `_voteWeight` passes the high-tier vote weight threshold."
      },
      "checkThreshold(uint256)": {
        "details": "Checks whether the `_voteWeight` passes the threshold."
      },
      "getBridgeOperators()": {
        "details": "Returns the bridge operator list."
      },
      "getHighTierVoteWeightThreshold()": {
        "details": "Returns the high-tier vote weight threshold."
      },
      "getRoleAdmin(bytes32)": {
        "details": "Returns the admin role that controls `role`. See {grantRole} and {revokeRole}. To change a role's admin, use {_setRoleAdmin}."
      },
      "getRoleMember(bytes32,uint256)": {
        "details": "Returns one of the accounts that have `role`. `index` must be a value between 0 and {getRoleMemberCount}, non-inclusive. Role bearers are not sorted in any particular way, and their ordering may change at any point. WARNING: When using {getRoleMember} and {getRoleMemberCount}, make sure you perform all queries on the same block. See the following https://forum.openzeppelin.com/t/iterating-over-elements-on-enumerableset-in-openzeppelin-contracts/2296[forum post] for more information."
      },
      "getRoleMemberCount(bytes32)": {
        "details": "Returns the number of accounts that have `role`. Can be used together with {getRoleMember} to enumerate all bearers of a role."
      },
      "getRoninToken(address)": {
        "details": "Returns token address on Ronin network. Note: Reverts for unsupported token."
      },
      "getThreshold()": {
        "details": "Returns the threshold."
      },
      "grantRole(bytes32,address)": {
        "details": "Grants `role` to `account`. If `account` had not been already granted `role`, emits a {RoleGranted} event. Requirements: - the caller must have ``role``'s admin role. May emit a {RoleGranted} event."
      },
      "hasRole(bytes32,address)": {
        "details": "Returns `true` if `account` has been granted `role`."
      },
      "initialize(address,address,uint256,uint256,uint256,uint256,address[][3],uint256[][4],uint8[])": {
        "details": "Initializes contract storage."
      },
      "mapTokens(address[],address[],uint8[])": {
        "details": "Maps mainchain tokens to Ronin network. Requirement: - The method caller is admin. - The arrays have the same length and its length larger than 0. Emits the `TokenMapped` event."
      },
      "mapTokensAndThresholds(address[],address[],uint8[],uint256[][4])": {
        "details": "Maps mainchain tokens to Ronin network and sets thresholds. Requirement: - The method caller is admin. - The arrays have the same length and its length larger than 0. Emits the `TokenMapped` event."
      },
      "minimumVoteWeight()": {
        "details": "Returns the minimum vote weight to pass the threshold."
      },
      "pause()": {
        "details": "Triggers paused state."
      },
      "paused()": {
        "details": "Returns true if the contract is paused, and false otherwise."
      },
      "reachedWithdrawalLimit(address,uint256)": {
        "details": "Checks whether the withdrawal reaches the limitation."
      },
      "receiveEther()": {
        "details": "Receives ether without doing anything. Use this function to topup native token."
      },
      "renounceRole(bytes32,address)": {
        "details": "Revokes `role` from the calling account. Roles are often managed via {grantRole} and {revokeRole}: this function's purpose is to provide a mechanism for accounts to lose their privileges if they are compromised (such as when a trusted device is misplaced). If the calling account had been revoked `role`, emits a {RoleRevoked} event. Requirements: - the caller must be `account`. May emit a {RoleRevoked} event."
      },
      "replaceBridgeOperators(address[])": {
        "details": "Replaces the old bridge operator list by the new one. Requirements: - The method caller is admin. Emitted the event `BridgeOperatorsReplaced`."
      },
      "requestDepositFor((address,address,(uint8,uint256,uint256)))": {
        "details": "Locks the assets and request deposit."
      },
      "revokeRole(bytes32,address)": {
        "details": "Revokes `role` from `account`. If `account` had been granted `role`, emits a {RoleRevoked} event. Requirements: - the caller must have ``role``'s admin role. May emit a {RoleRevoked} event."
      },
      "setDailyWithdrawalLimits(address[],uint256[])": {
        "details": "Sets daily limit amounts for the withdrawals. Requirements: - The method caller is admin. - The arrays have the same length and its length larger than 0. Emits the `DailyWithdrawalLimitsUpdated` event."
      },
      "setEmergencyPauser(address)": {
        "details": "Grant emergency pauser role for `_addr`."
      },
      "setHighTierThresholds(address[],uint256[])": {
        "details": "Sets the thresholds for high-tier withdrawals that requires high-tier vote weights. Requirements: - The method caller is admin. - The arrays have the same length and its length larger than 0. Emits the `HighTierThresholdsUpdated` event."
      },
      "setHighTierVoteWeightThreshold(uint256,uint256)": {
        "details": "Sets high-tier vote weight threshold and returns the old one. Requirements: - The method caller is admin. - The high-tier vote weight threshold must equal to or larger than the normal threshold. Emits the `HighTierVoteWeightThresholdUpdated` event."
      },
      "setLockedThresholds(address[],uint256[])": {
        "details": "Sets the amount thresholds to lock withdrawal. Requirements: - The method caller is admin. - The arrays have the same length and its length larger than 0. Emits the `LockedThresholdsUpdated` event."
      },
      "setThreshold(uint256,uint256)": {
        "details": "Override `GatewayV2-setThreshold`. Requirements: - The high-tier vote weight threshold must equal to or larger than the normal threshold."
      },
      "setUnlockFeePercentages(address[],uint256[])": {
        "details": "Sets fee percentages to unlock withdrawal. Requirements: - The method caller is admin. - The arrays have the same length and its length larger than 0. Emits the `UnlockFeePercentagesUpdated` event."
      },
      "setWrappedNativeTokenContract(address)": {
        "details": "Sets the wrapped native token contract. Requirements: - The method caller is admin. Emits the `WrappedNativeTokenContractUpdated` event."
      },
      "submitWithdrawal((uint256,uint8,(address,address,uint256),(address,address,uint256),(uint8,uint256,uint256)),(uint8,bytes32,bytes32)[])": {
        "details": "Withdraws based on the receipt and the validator signatures. Returns whether the withdrawal is locked. Emits the `Withdrew` once the assets are released."
      },
      "supportsInterface(bytes4)": {
        "details": "See {IERC165-supportsInterface}."
      },
      "unlockWithdrawal((uint256,uint8,(address,address,uint256),(address,address,uint256),(uint8,uint256,uint256)))": {
        "details": "Approves a specific withdrawal. Requirements: - The method caller is a validator. Emits the `Withdrew` once the assets are released."
      },
      "unpause()": {
        "details": "Triggers unpaused state."
      }
    },
    "stateVariables": {
      "WITHDRAWAL_UNLOCKER_ROLE": {
        "details": "Withdrawal unlocker role hash"
      },
      "_bridgeOperatorAddedBlock": {
        "details": "Mapping from validator address => last block that the bridge operator is added"
      },
      "_bridgeOperators": {
        "details": "Bridge operators array"
      },
      "_domainSeparator": {
        "details": "Domain seperator"
      },
      "_roninToken": {
        "details": "Mapping from mainchain token => token address on Ronin network"
      },
      "depositCount": {
        "details": "Total deposit"
      },
      "roninChainId": {
        "details": "Ronin network id"
      },
      "withdrawalHash": {
        "details": "Mapping from withdrawal id => withdrawal hash"
      },
      "withdrawalLocked": {
        "details": "Mapping from withdrawal id => locked"
      },
      "wrappedNativeToken": {
        "details": "Wrapped native token address"
      }
    },
    "version": 1
  },
  "userdoc": {
    "kind": "user",
    "methods": {
      "unlockFeePercentages(address)": {
        "notice": "Values 0-1,000,000 map to 0%-100%"
      }
    },
    "version": 1
  },
  "storageLayout": {
    "storage": [
      {
        "astId": 711,
        "contract": "contracts/mainchain/MainchainGatewayV2.sol:MainchainGatewayV2",
        "label": "_paused",
        "offset": 0,
        "slot": "0",
        "type": "t_bool"
      },
      {
        "astId": 2634,
        "contract": "contracts/mainchain/MainchainGatewayV2.sol:MainchainGatewayV2",
        "label": "_num",
        "offset": 0,
        "slot": "1",
        "type": "t_uint256"
      },
      {
        "astId": 2636,
        "contract": "contracts/mainchain/MainchainGatewayV2.sol:MainchainGatewayV2",
        "label": "_denom",
        "offset": 0,
        "slot": "2",
        "type": "t_uint256"
      },
      {
        "astId": 2638,
        "contract": "contracts/mainchain/MainchainGatewayV2.sol:MainchainGatewayV2",
        "label": "______deprecated",
        "offset": 0,
        "slot": "3",
        "type": "t_address"
      },
      {
        "astId": 2640,
        "contract": "contracts/mainchain/MainchainGatewayV2.sol:MainchainGatewayV2",
        "label": "nonce",
        "offset": 0,
        "slot": "4",
        "type": "t_uint256"
      },
      {
        "astId": 2642,
        "contract": "contracts/mainchain/MainchainGatewayV2.sol:MainchainGatewayV2",
        "label": "emergencyPauser",
        "offset": 0,
        "slot": "5",
        "type": "t_address"
      },
      {
        "astId": 2647,
        "contract": "contracts/mainchain/MainchainGatewayV2.sol:MainchainGatewayV2",
        "label": "______gap",
        "offset": 0,
        "slot": "6",
        "type": "t_array(t_uint256)49_storage"
      },
      {
        "astId": 2908,
        "contract": "contracts/mainchain/MainchainGatewayV2.sol:MainchainGatewayV2",
        "label": "_highTierVWNum",
        "offset": 0,
        "slot": "55",
        "type": "t_uint256"
      },
      {
        "astId": 2910,
        "contract": "contracts/mainchain/MainchainGatewayV2.sol:MainchainGatewayV2",
        "label": "_highTierVWDenom",
        "offset": 0,
        "slot": "56",
        "type": "t_uint256"
      },
      {
        "astId": 2915,
        "contract": "contracts/mainchain/MainchainGatewayV2.sol:MainchainGatewayV2",
        "label": "highTierThreshold",
        "offset": 0,
        "slot": "57",
        "type": "t_mapping(t_address,t_uint256)"
      },
      {
        "astId": 2920,
        "contract": "contracts/mainchain/MainchainGatewayV2.sol:MainchainGatewayV2",
        "label": "lockedThreshold",
        "offset": 0,
        "slot": "58",
        "type": "t_mapping(t_address,t_uint256)"
      },
      {
        "astId": 2925,
        "contract": "contracts/mainchain/MainchainGatewayV2.sol:MainchainGatewayV2",
        "label": "unlockFeePercentages",
        "offset": 0,
        "slot": "59",
        "type": "t_mapping(t_address,t_uint256)"
      },
      {
        "astId": 2930,
        "contract": "contracts/mainchain/MainchainGatewayV2.sol:MainchainGatewayV2",
        "label": "dailyWithdrawalLimit",
        "offset": 0,
        "slot": "60",
        "type": "t_mapping(t_address,t_uint256)"
      },
      {
        "astId": 2935,
        "contract": "contracts/mainchain/MainchainGatewayV2.sol:MainchainGatewayV2",
        "label": "lastSyncedWithdrawal",
        "offset": 0,
        "slot": "61",
        "type": "t_mapping(t_address,t_uint256)"
      },
      {
        "astId": 2940,
        "contract": "contracts/mainchain/MainchainGatewayV2.sol:MainchainGatewayV2",
        "label": "lastDateSynced",
        "offset": 0,
        "slot": "62",
        "type": "t_mapping(t_address,t_uint256)"
      },
      {
        "astId": 2945,
        "contract": "contracts/mainchain/MainchainGatewayV2.sol:MainchainGatewayV2",
        "label": "______gap",
        "offset": 0,
        "slot": "63",
        "type": "t_array(t_uint256)50_storage"
      },
      {
        "astId": 549,
        "contract": "contracts/mainchain/MainchainGatewayV2.sol:MainchainGatewayV2",
        "label": "_initialized",
        "offset": 0,
        "slot": "113",
        "type": "t_uint8"
      },
      {
        "astId": 552,
        "contract": "contracts/mainchain/MainchainGatewayV2.sol:MainchainGatewayV2",
        "label": "_initializing",
        "offset": 1,
        "slot": "113",
        "type": "t_bool"
      },
      {
        "astId": 24,
        "contract": "contracts/mainchain/MainchainGatewayV2.sol:MainchainGatewayV2",
        "label": "_roles",
        "offset": 0,
        "slot": "114",
        "type": "t_mapping(t_bytes32,t_struct(RoleData)19_storage)"
      },
      {
        "astId": 338,
        "contract": "contracts/mainchain/MainchainGatewayV2.sol:MainchainGatewayV2",
        "label": "_roleMembers",
        "offset": 0,
        "slot": "115",
        "type": "t_mapping(t_bytes32,t_struct(AddressSet)2334_storage)"
      },
      {
        "astId": 4732,
        "contract": "contracts/mainchain/MainchainGatewayV2.sol:MainchainGatewayV2",
        "label": "wrappedNativeToken",
        "offset": 0,
        "slot": "116",
        "type": "t_contract(IWETH)3885"
      },
      {
        "astId": 4735,
        "contract": "contracts/mainchain/MainchainGatewayV2.sol:MainchainGatewayV2",
        "label": "roninChainId",
        "offset": 0,
        "slot": "117",
        "type": "t_uint256"
      },
      {
        "astId": 4738,
        "contract": "contracts/mainchain/MainchainGatewayV2.sol:MainchainGatewayV2",
        "label": "depositCount",
        "offset": 0,
        "slot": "118",
        "type": "t_uint256"
      },
      {
        "astId": 4741,
        "contract": "contracts/mainchain/MainchainGatewayV2.sol:MainchainGatewayV2",
        "label": "_domainSeparator",
        "offset": 0,
        "slot": "119",
        "type": "t_bytes32"
      },
      {
        "astId": 4747,
        "contract": "contracts/mainchain/MainchainGatewayV2.sol:MainchainGatewayV2",
        "label": "_roninToken",
        "offset": 0,
        "slot": "120",
        "type": "t_mapping(t_address,t_struct(MappedToken)3894_storage)"
      },
      {
        "astId": 4752,
        "contract": "contracts/mainchain/MainchainGatewayV2.sol:MainchainGatewayV2",
        "label": "withdrawalHash",
        "offset": 0,
        "slot": "121",
        "type": "t_mapping(t_uint256,t_bytes32)"
      },
      {
        "astId": 4757,
        "contract": "contracts/mainchain/MainchainGatewayV2.sol:MainchainGatewayV2",
        "label": "withdrawalLocked",
        "offset": 0,
        "slot": "122",
        "type": "t_mapping(t_uint256,t_bool)"
      },
      {
        "astId": 4762,
        "contract": "contracts/mainchain/MainchainGatewayV2.sol:MainchainGatewayV2",
        "label": "_bridgeOperatorAddedBlock",
        "offset": 0,
        "slot": "123",
        "type": "t_mapping(t_address,t_uint256)"
      },
      {
        "astId": 4766,
        "contract": "contracts/mainchain/MainchainGatewayV2.sol:MainchainGatewayV2",
        "label": "_bridgeOperators",
        "offset": 0,
        "slot": "124",
        "type": "t_array(t_address)dyn_storage"
      }
    ],
    "types": {
      "t_address": {
        "encoding": "inplace",
        "label": "address",
        "numberOfBytes": "20"
      },
      "t_array(t_address)dyn_storage": {
        "base": "t_address",
        "encoding": "dynamic_array",
        "label": "address[]",
        "numberOfBytes": "32"
      },
      "t_array(t_bytes32)dyn_storage": {
        "base": "t_bytes32",
        "encoding": "dynamic_array",
        "label": "bytes32[]",
        "numberOfBytes": "32"
      },
      "t_array(t_uint256)49_storage": {
        "base": "t_uint256",
        "encoding": "inplace",
        "label": "uint256[49]",
        "numberOfBytes": "1568"
      },
      "t_array(t_uint256)50_storage": {
        "base": "t_uint256",
        "encoding": "inplace",
        "label": "uint256[50]",
        "numberOfBytes": "1600"
      },
      "t_bool": {
        "encoding": "inplace",
        "label": "bool",
        "numberOfBytes": "1"
      },
      "t_bytes32": {
        "encoding": "inplace",
        "label": "bytes32",
        "numberOfBytes": "32"
      },
      "t_contract(IWETH)3885": {
        "encoding": "inplace",
        "label": "contract IWETH",
        "numberOfBytes": "20"
      },
      "t_enum(Standard)3948": {
        "encoding": "inplace",
        "label": "enum Token.Standard",
        "numberOfBytes": "1"
      },
      "t_mapping(t_address,t_bool)": {
        "encoding": "mapping",
        "key": "t_address",
        "label": "mapping(address => bool)",
        "numberOfBytes": "32",
        "value": "t_bool"
      },
      "t_mapping(t_address,t_struct(MappedToken)3894_storage)": {
        "encoding": "mapping",
        "key": "t_address",
        "label": "mapping(address => struct MappedTokenConsumer.MappedToken)",
        "numberOfBytes": "32",
        "value": "t_struct(MappedToken)3894_storage"
      },
      "t_mapping(t_address,t_uint256)": {
        "encoding": "mapping",
        "key": "t_address",
        "label": "mapping(address => uint256)",
        "numberOfBytes": "32",
        "value": "t_uint256"
      },
      "t_mapping(t_bytes32,t_struct(AddressSet)2334_storage)": {
        "encoding": "mapping",
        "key": "t_bytes32",
        "label": "mapping(bytes32 => struct EnumerableSet.AddressSet)",
        "numberOfBytes": "32",
        "value": "t_struct(AddressSet)2334_storage"
      },
      "t_mapping(t_bytes32,t_struct(RoleData)19_storage)": {
        "encoding": "mapping",
        "key": "t_bytes32",
        "label": "mapping(bytes32 => struct AccessControl.RoleData)",
        "numberOfBytes": "32",
        "value": "t_struct(RoleData)19_storage"
      },
      "t_mapping(t_bytes32,t_uint256)": {
        "encoding": "mapping",
        "key": "t_bytes32",
        "label": "mapping(bytes32 => uint256)",
        "numberOfBytes": "32",
        "value": "t_uint256"
      },
      "t_mapping(t_uint256,t_bool)": {
        "encoding": "mapping",
        "key": "t_uint256",
        "label": "mapping(uint256 => bool)",
        "numberOfBytes": "32",
        "value": "t_bool"
      },
      "t_mapping(t_uint256,t_bytes32)": {
        "encoding": "mapping",
        "key": "t_uint256",
        "label": "mapping(uint256 => bytes32)",
        "numberOfBytes": "32",
        "value": "t_bytes32"
      },
      "t_struct(AddressSet)2334_storage": {
        "encoding": "inplace",
        "label": "struct EnumerableSet.AddressSet",
        "members": [
          {
            "astId": 2333,
            "contract": "contracts/mainchain/MainchainGatewayV2.sol:MainchainGatewayV2",
            "label": "_inner",
            "offset": 0,
            "slot": "0",
            "type": "t_struct(Set)2033_storage"
          }
        ],
        "numberOfBytes": "64"
      },
      "t_struct(MappedToken)3894_storage": {
        "encoding": "inplace",
        "label": "struct MappedTokenConsumer.MappedToken",
        "members": [
          {
            "astId": 3891,
            "contract": "contracts/mainchain/MainchainGatewayV2.sol:MainchainGatewayV2",
            "label": "erc",
            "offset": 0,
            "slot": "0",
            "type": "t_enum(Standard)3948"
          },
          {
            "astId": 3893,
            "contract": "contracts/mainchain/MainchainGatewayV2.sol:MainchainGatewayV2",
            "label": "tokenAddr",
            "offset": 1,
            "slot": "0",
            "type": "t_address"
          }
        ],
        "numberOfBytes": "32"
      },
      "t_struct(RoleData)19_storage": {
        "encoding": "inplace",
        "label": "struct AccessControl.RoleData",
        "members": [
          {
            "astId": 16,
            "contract": "contracts/mainchain/MainchainGatewayV2.sol:MainchainGatewayV2",
            "label": "members",
            "offset": 0,
            "slot": "0",
            "type": "t_mapping(t_address,t_bool)"
          },
          {
            "astId": 18,
            "contract": "contracts/mainchain/MainchainGatewayV2.sol:MainchainGatewayV2",
            "label": "adminRole",
            "offset": 0,
            "slot": "1",
            "type": "t_bytes32"
          }
        ],
        "numberOfBytes": "64"
      },
      "t_struct(Set)2033_storage": {
        "encoding": "inplace",
        "label": "struct EnumerableSet.Set",
        "members": [
          {
            "astId": 2028,
            "contract": "contracts/mainchain/MainchainGatewayV2.sol:MainchainGatewayV2",
            "label": "_values",
            "offset": 0,
            "slot": "0",
            "type": "t_array(t_bytes32)dyn_storage"
          },
          {
            "astId": 2032,
            "contract": "contracts/mainchain/MainchainGatewayV2.sol:MainchainGatewayV2",
            "label": "_indexes",
            "offset": 0,
            "slot": "1",
            "type": "t_mapping(t_bytes32,t_uint256)"
          }
        ],
        "numberOfBytes": "64"
      },
      "t_uint256": {
        "encoding": "inplace",
        "label": "uint256",
        "numberOfBytes": "32"
      },
      "t_uint8": {
        "encoding": "inplace",
        "label": "uint8",
        "numberOfBytes": "1"
      }
    }
  }
}