{
  "address": "0x60fb445De9Cb26Df5fdC175c0801C5E29bf4eB64",
  "abi": [
    {
      "inputs": [
        {
          "internalType": "enum ContractType",
          "name": "contractType",
          "type": "uint8"
        }
      ],
      "name": "ErrContractTypeNotFound",
      "type": "error"
    },
    {
      "inputs": [],
      "name": "ErrERC20MintingFailed",
      "type": "error"
    },
    {
      "inputs": [],
      "name": "ErrERC721MintingFailed",
      "type": "error"
    },
    {
      "inputs": [],
      "name": "ErrEmptyArray",
      "type": "error"
    },
    {
      "inputs": [
        {
          "internalType": "bytes4",
          "name": "msgSig",
          "type": "bytes4"
        },
        {
          "internalType": "uint256",
          "name": "actual",
          "type": "uint256"
        },
        {
          "internalType": "uint256",
          "name": "expected",
          "type": "uint256"
        }
      ],
      "name": "ErrInvalidChainId",
      "type": "error"
    },
    {
      "inputs": [],
      "name": "ErrInvalidInfo",
      "type": "error"
    },
    {
      "inputs": [
        {
          "internalType": "bytes4",
          "name": "msgSig",
          "type": "bytes4"
        }
      ],
      "name": "ErrInvalidOrder",
      "type": "error"
    },
    {
      "inputs": [],
      "name": "ErrInvalidPercentage",
      "type": "error"
    },
    {
      "inputs": [],
      "name": "ErrInvalidReceipt",
      "type": "error"
    },
    {
      "inputs": [],
      "name": "ErrInvalidReceiptKind",
      "type": "error"
    },
    {
      "inputs": [],
      "name": "ErrInvalidRequest",
      "type": "error"
    },
    {
      "inputs": [
        {
          "internalType": "bytes4",
          "name": "msgSig",
          "type": "bytes4"
        }
      ],
      "name": "ErrInvalidThreshold",
      "type": "error"
    },
    {
      "inputs": [],
      "name": "ErrInvalidTokenStandard",
      "type": "error"
    },
    {
      "inputs": [
        {
          "internalType": "bytes4",
          "name": "msgSig",
          "type": "bytes4"
        }
      ],
      "name": "ErrLengthMismatch",
      "type": "error"
    },
    {
      "inputs": [],
      "name": "ErrQueryForApprovedWithdrawal",
      "type": "error"
    },
    {
      "inputs": [],
      "name": "ErrQueryForInsufficientVoteWeight",
      "type": "error"
    },
    {
      "inputs": [],
      "name": "ErrQueryForProcessedWithdrawal",
      "type": "error"
    },
    {
      "inputs": [],
      "name": "ErrReachedDailyWithdrawalLimit",
      "type": "error"
    },
    {
      "inputs": [
        {
          "components": [
            {
              "internalType": "enum Token.Standard",
              "name": "erc",
              "type": "uint8"
            },
            {
              "internalType": "uint256",
              "name": "id",
              "type": "uint256"
            },
            {
              "internalType": "uint256",
              "name": "quantity",
              "type": "uint256"
            }
          ],
          "internalType": "struct Token.Info",
          "name": "tokenInfo",
          "type": "tuple"
        },
        {
          "internalType": "address",
          "name": "to",
          "type": "address"
        },
        {
          "internalType": "address",
          "name": "token",
          "type": "address"
        }
      ],
      "name": "ErrTokenCouldNotTransfer",
      "type": "error"
    },
    {
      "inputs": [
        {
          "components": [
            {
              "internalType": "enum Token.Standard",
              "name": "erc",
              "type": "uint8"
            },
            {
              "internalType": "uint256",
              "name": "id",
              "type": "uint256"
            },
            {
              "internalType": "uint256",
              "name": "quantity",
              "type": "uint256"
            }
          ],
          "internalType": "struct Token.Info",
          "name": "tokenInfo",
          "type": "tuple"
        },
        {
          "internalType": "address",
          "name": "from",
          "type": "address"
        },
        {
          "internalType": "address",
          "name": "to",
          "type": "address"
        },
        {
          "internalType": "address",
          "name": "token",
          "type": "address"
        }
      ],
      "name": "ErrTokenCouldNotTransferFrom",
      "type": "error"
    },
    {
      "inputs": [
        {
          "internalType": "bytes4",
          "name": "msgSig",
          "type": "bytes4"
        },
        {
          "internalType": "enum RoleAccess",
          "name": "expectedRole",
          "type": "uint8"
        }
      ],
      "name": "ErrUnauthorized",
      "type": "error"
    },
    {
      "inputs": [],
      "name": "ErrUnsupportedStandard",
      "type": "error"
    },
    {
      "inputs": [],
      "name": "ErrUnsupportedToken",
      "type": "error"
    },
    {
      "inputs": [
        {
          "internalType": "address",
          "name": "addr",
          "type": "address"
        }
      ],
      "name": "ErrZeroCodeContract",
      "type": "error"
    },
    {
      "anonymous": false,
      "inputs": [
        {
          "indexed": true,
          "internalType": "enum ContractType",
          "name": "contractType",
          "type": "uint8"
        },
        {
          "indexed": true,
          "internalType": "address",
          "name": "addr",
          "type": "address"
        }
      ],
      "name": "ContractUpdated",
      "type": "event"
    },
    {
      "anonymous": false,
      "inputs": [
        {
          "indexed": false,
          "internalType": "address[]",
          "name": "tokens",
          "type": "address[]"
        },
        {
          "indexed": false,
          "internalType": "uint256[]",
          "name": "limits",
          "type": "uint256[]"
        }
      ],
      "name": "DailyWithdrawalLimitsUpdated",
      "type": "event"
    },
    {
      "anonymous": false,
      "inputs": [
        {
          "indexed": false,
          "internalType": "bytes32",
          "name": "receiptHash",
          "type": "bytes32"
        },
        {
          "components": [
            {
              "internalType": "uint256",
              "name": "id",
              "type": "uint256"
            },
            {
              "internalType": "enum Transfer.Kind",
              "name": "kind",
              "type": "uint8"
            },
            {
              "components": [
                {
                  "internalType": "address",
                  "name": "addr",
                  "type": "address"
                },
                {
                  "internalType": "address",
                  "name": "tokenAddr",
                  "type": "address"
                },
                {
                  "internalType": "uint256",
                  "name": "chainId",
                  "type": "uint256"
                }
              ],
              "internalType": "struct Token.Owner",
              "name": "mainchain",
              "type": "tuple"
            },
            {
              "components": [
                {
                  "internalType": "address",
                  "name": "addr",
                  "type": "address"
                },
                {
                  "internalType": "address",
                  "name": "tokenAddr",
                  "type": "address"
                },
                {
                  "internalType": "uint256",
                  "name": "chainId",
                  "type": "uint256"
                }
              ],
              "internalType": "struct Token.Owner",
              "name": "ronin",
              "type": "tuple"
            },
            {
              "components": [
                {
                  "internalType": "enum Token.Standard",
                  "name": "erc",
                  "type": "uint8"
                },
                {
                  "internalType": "uint256",
                  "name": "id",
                  "type": "uint256"
                },
                {
                  "internalType": "uint256",
                  "name": "quantity",
                  "type": "uint256"
                }
              ],
              "internalType": "struct Token.Info",
              "name": "info",
              "type": "tuple"
            }
          ],
          "indexed": false,
          "internalType": "struct Transfer.Receipt",
          "name": "receipt",
          "type": "tuple"
        }
      ],
      "name": "DepositRequested",
      "type": "event"
    },
    {
      "anonymous": false,
      "inputs": [
        {
          "indexed": false,
          "internalType": "address[]",
          "name": "tokens",
          "type": "address[]"
        },
        {
          "indexed": false,
          "internalType": "uint256[]",
          "name": "thresholds",
          "type": "uint256[]"
        }
      ],
      "name": "HighTierThresholdsUpdated",
      "type": "event"
    },
    {
      "anonymous": false,
      "inputs": [
        {
          "indexed": true,
          "internalType": "uint256",
          "name": "nonce",
          "type": "uint256"
        },
        {
          "indexed": true,
          "internalType": "uint256",
          "name": "numerator",
          "type": "uint256"
        },
        {
          "indexed": true,
          "internalType": "uint256",
          "name": "denominator",
          "type": "uint256"
        },
        {
          "indexed": false,
          "internalType": "uint256",
          "name": "previousNumerator",
          "type": "uint256"
        },
        {
          "indexed": false,
          "internalType": "uint256",
          "name": "previousDenominator",
          "type": "uint256"
        }
      ],
      "name": "HighTierVoteWeightThresholdUpdated",
      "type": "event"
    },
    {
      "anonymous": false,
      "inputs": [
        {
          "indexed": false,
          "internalType": "uint8",
          "name": "version",
          "type": "uint8"
        }
      ],
      "name": "Initialized",
      "type": "event"
    },
    {
      "anonymous": false,
      "inputs": [
        {
          "indexed": false,
          "internalType": "address[]",
          "name": "tokens",
          "type": "address[]"
        },
        {
          "indexed": false,
          "internalType": "uint256[]",
          "name": "thresholds",
          "type": "uint256[]"
        }
      ],
      "name": "LockedThresholdsUpdated",
      "type": "event"
    },
    {
      "anonymous": false,
      "inputs": [
        {
          "indexed": false,
          "internalType": "address",
          "name": "account",
          "type": "address"
        }
      ],
      "name": "Paused",
      "type": "event"
    },
    {
      "anonymous": false,
      "inputs": [
        {
          "indexed": true,
          "internalType": "bytes32",
          "name": "role",
          "type": "bytes32"
        },
        {
          "indexed": true,
          "internalType": "bytes32",
          "name": "previousAdminRole",
          "type": "bytes32"
        },
        {
          "indexed": true,
          "internalType": "bytes32",
          "name": "newAdminRole",
          "type": "bytes32"
        }
      ],
      "name": "RoleAdminChanged",
      "type": "event"
    },
    {
      "anonymous": false,
      "inputs": [
        {
          "indexed": true,
          "internalType": "bytes32",
          "name": "role",
          "type": "bytes32"
        },
        {
          "indexed": true,
          "internalType": "address",
          "name": "account",
          "type": "address"
        },
        {
          "indexed": true,
          "internalType": "address",
          "name": "sender",
          "type": "address"
        }
      ],
      "name": "RoleGranted",
      "type": "event"
    },
    {
      "anonymous": false,
      "inputs": [
        {
          "indexed": true,
          "internalType": "bytes32",
          "name": "role",
          "type": "bytes32"
        },
        {
          "indexed": true,
          "internalType": "address",
          "name": "account",
          "type": "address"
        },
        {
          "indexed": true,
          "internalType": "address",
          "name": "sender",
          "type": "address"
        }
      ],
      "name": "RoleRevoked",
      "type": "event"
    },
    {
      "anonymous": false,
      "inputs": [
        {
          "indexed": true,
          "internalType": "uint256",
          "name": "nonce",
          "type": "uint256"
        },
        {
          "indexed": true,
          "internalType": "uint256",
          "name": "numerator",
          "type": "uint256"
        },
        {
          "indexed": true,
          "internalType": "uint256",
          "name": "denominator",
          "type": "uint256"
        },
        {
          "indexed": false,
          "internalType": "uint256",
          "name": "previousNumerator",
          "type": "uint256"
        },
        {
          "indexed": false,
          "internalType": "uint256",
          "name": "previousDenominator",
          "type": "uint256"
        }
      ],
      "name": "ThresholdUpdated",
      "type": "event"
    },
    {
      "anonymous": false,
      "inputs": [
        {
          "indexed": false,
          "internalType": "address[]",
          "name": "mainchainTokens",
          "type": "address[]"
        },
        {
          "indexed": false,
          "internalType": "address[]",
          "name": "roninTokens",
          "type": "address[]"
        },
        {
          "indexed": false,
          "internalType": "enum Token.Standard[]",
          "name": "standards",
          "type": "uint8[]"
        }
      ],
      "name": "TokenMapped",
      "type": "event"
    },
    {
      "anonymous": false,
      "inputs": [
        {
          "indexed": false,
          "internalType": "address[]",
          "name": "tokens",
          "type": "address[]"
        },
        {
          "indexed": false,
          "internalType": "uint256[]",
          "name": "percentages",
          "type": "uint256[]"
        }
      ],
      "name": "UnlockFeePercentagesUpdated",
      "type": "event"
    },
    {
      "anonymous": false,
      "inputs": [
        {
          "indexed": false,
          "internalType": "address",
          "name": "account",
          "type": "address"
        }
      ],
      "name": "Unpaused",
      "type": "event"
    },
    {
      "anonymous": false,
      "inputs": [
        {
          "indexed": false,
          "internalType": "bytes32",
          "name": "receiptHash",
          "type": "bytes32"
        },
        {
          "components": [
            {
              "internalType": "uint256",
              "name": "id",
              "type": "uint256"
            },
            {
              "internalType": "enum Transfer.Kind",
              "name": "kind",
              "type": "uint8"
            },
            {
              "components": [
                {
                  "internalType": "address",
                  "name": "addr",
                  "type": "address"
                },
                {
                  "internalType": "address",
                  "name": "tokenAddr",
                  "type": "address"
                },
                {
                  "internalType": "uint256",
                  "name": "chainId",
                  "type": "uint256"
                }
              ],
              "internalType": "struct Token.Owner",
              "name": "mainchain",
              "type": "tuple"
            },
            {
              "components": [
                {
                  "internalType": "address",
                  "name": "addr",
                  "type": "address"
                },
                {
                  "internalType": "address",
                  "name": "tokenAddr",
                  "type": "address"
                },
                {
                  "internalType": "uint256",
                  "name": "chainId",
                  "type": "uint256"
                }
              ],
              "internalType": "struct Token.Owner",
              "name": "ronin",
              "type": "tuple"
            },
            {
              "components": [
                {
                  "internalType": "enum Token.Standard",
                  "name": "erc",
                  "type": "uint8"
                },
                {
                  "internalType": "uint256",
                  "name": "id",
                  "type": "uint256"
                },
                {
                  "internalType": "uint256",
                  "name": "quantity",
                  "type": "uint256"
                }
              ],
              "internalType": "struct Token.Info",
              "name": "info",
              "type": "tuple"
            }
          ],
          "indexed": false,
          "internalType": "struct Transfer.Receipt",
          "name": "receipt",
          "type": "tuple"
        }
      ],
      "name": "WithdrawalLocked",
      "type": "event"
    },
    {
      "anonymous": false,
      "inputs": [
        {
          "indexed": false,
          "internalType": "bytes32",
          "name": "receiptHash",
          "type": "bytes32"
        },
        {
          "components": [
            {
              "internalType": "uint256",
              "name": "id",
              "type": "uint256"
            },
            {
              "internalType": "enum Transfer.Kind",
              "name": "kind",
              "type": "uint8"
            },
            {
              "components": [
                {
                  "internalType": "address",
                  "name": "addr",
                  "type": "address"
                },
                {
                  "internalType": "address",
                  "name": "tokenAddr",
                  "type": "address"
                },
                {
                  "internalType": "uint256",
                  "name": "chainId",
                  "type": "uint256"
                }
              ],
              "internalType": "struct Token.Owner",
              "name": "mainchain",
              "type": "tuple"
            },
            {
              "components": [
                {
                  "internalType": "address",
                  "name": "addr",
                  "type": "address"
                },
                {
                  "internalType": "address",
                  "name": "tokenAddr",
                  "type": "address"
                },
                {
                  "internalType": "uint256",
                  "name": "chainId",
                  "type": "uint256"
                }
              ],
              "internalType": "struct Token.Owner",
              "name": "ronin",
              "type": "tuple"
            },
            {
              "components": [
                {
                  "internalType": "enum Token.Standard",
                  "name": "erc",
                  "type": "uint8"
                },
                {
                  "internalType": "uint256",
                  "name": "id",
                  "type": "uint256"
                },
                {
                  "internalType": "uint256",
                  "name": "quantity",
                  "type": "uint256"
                }
              ],
              "internalType": "struct Token.Info",
              "name": "info",
              "type": "tuple"
            }
          ],
          "indexed": false,
          "internalType": "struct Transfer.Receipt",
          "name": "receipt",
          "type": "tuple"
        }
      ],
      "name": "WithdrawalUnlocked",
      "type": "event"
    },
    {
      "anonymous": false,
      "inputs": [
        {
          "indexed": false,
          "internalType": "bytes32",
          "name": "receiptHash",
          "type": "bytes32"
        },
        {
          "components": [
            {
              "internalType": "uint256",
              "name": "id",
              "type": "uint256"
            },
            {
              "internalType": "enum Transfer.Kind",
              "name": "kind",
              "type": "uint8"
            },
            {
              "components": [
                {
                  "internalType": "address",
                  "name": "addr",
                  "type": "address"
                },
                {
                  "internalType": "address",
                  "name": "tokenAddr",
                  "type": "address"
                },
                {
                  "internalType": "uint256",
                  "name": "chainId",
                  "type": "uint256"
                }
              ],
              "internalType": "struct Token.Owner",
              "name": "mainchain",
              "type": "tuple"
            },
            {
              "components": [
                {
                  "internalType": "address",
                  "name": "addr",
                  "type": "address"
                },
                {
                  "internalType": "address",
                  "name": "tokenAddr",
                  "type": "address"
                },
                {
                  "internalType": "uint256",
                  "name": "chainId",
                  "type": "uint256"
                }
              ],
              "internalType": "struct Token.Owner",
              "name": "ronin",
              "type": "tuple"
            },
            {
              "components": [
                {
                  "internalType": "enum Token.Standard",
                  "name": "erc",
                  "type": "uint8"
                },
                {
                  "internalType": "uint256",
                  "name": "id",
                  "type": "uint256"
                },
                {
                  "internalType": "uint256",
                  "name": "quantity",
                  "type": "uint256"
                }
              ],
              "internalType": "struct Token.Info",
              "name": "info",
              "type": "tuple"
            }
          ],
          "indexed": false,
          "internalType": "struct Transfer.Receipt",
          "name": "receipt",
          "type": "tuple"
        }
      ],
      "name": "Withdrew",
      "type": "event"
    },
    {
      "anonymous": false,
      "inputs": [
        {
          "indexed": false,
          "internalType": "contract IWETH",
          "name": "weth",
          "type": "address"
        }
      ],
      "name": "WrappedNativeTokenContractUpdated",
      "type": "event"
    },
    {
      "stateMutability": "payable",
      "type": "fallback"
    },
    {
      "inputs": [],
      "name": "DEFAULT_ADMIN_ROLE",
      "outputs": [
        {
          "internalType": "bytes32",
          "name": "",
          "type": "bytes32"
        }
      ],
      "stateMutability": "view",
      "type": "function"
    },
    {
      "inputs": [],
      "name": "DOMAIN_SEPARATOR",
      "outputs": [
        {
          "internalType": "bytes32",
          "name": "",
          "type": "bytes32"
        }
      ],
      "stateMutability": "view",
      "type": "function"
    },
    {
      "inputs": [],
      "name": "WITHDRAWAL_UNLOCKER_ROLE",
      "outputs": [
        {
          "internalType": "bytes32",
          "name": "",
          "type": "bytes32"
        }
      ],
      "stateMutability": "view",
      "type": "function"
    },
    {
      "inputs": [],
      "name": "_MAX_PERCENTAGE",
      "outputs": [
        {
          "internalType": "uint256",
          "name": "",
          "type": "uint256"
        }
      ],
      "stateMutability": "view",
      "type": "function"
    },
    {
      "inputs": [
        {
          "internalType": "uint256",
          "name": "_voteWeight",
          "type": "uint256"
        }
      ],
      "name": "checkHighTierVoteWeightThreshold",
      "outputs": [
        {
          "internalType": "bool",
          "name": "",
          "type": "bool"
        }
      ],
      "stateMutability": "view",
      "type": "function"
    },
    {
      "inputs": [
        {
          "internalType": "uint256",
          "name": "_voteWeight",
          "type": "uint256"
        }
      ],
      "name": "checkThreshold",
      "outputs": [
        {
          "internalType": "bool",
          "name": "",
          "type": "bool"
        }
      ],
      "stateMutability": "view",
      "type": "function"
    },
    {
      "inputs": [
        {
          "internalType": "address",
          "name": "",
          "type": "address"
        }
      ],
      "name": "dailyWithdrawalLimit",
      "outputs": [
        {
          "internalType": "uint256",
          "name": "",
          "type": "uint256"
        }
      ],
      "stateMutability": "view",
      "type": "function"
    },
    {
      "inputs": [],
      "name": "depositCount",
      "outputs": [
        {
          "internalType": "uint256",
          "name": "",
          "type": "uint256"
        }
      ],
      "stateMutability": "view",
      "type": "function"
    },
    {
      "inputs": [],
      "name": "emergencyPauser",
      "outputs": [
        {
          "internalType": "address",
          "name": "",
          "type": "address"
        }
      ],
      "stateMutability": "view",
      "type": "function"
    },
    {
      "inputs": [
        {
          "internalType": "enum ContractType",
          "name": "contractType",
          "type": "uint8"
        }
      ],
      "name": "getContract",
      "outputs": [
        {
          "internalType": "address",
          "name": "contract_",
          "type": "address"
        }
      ],
      "stateMutability": "view",
      "type": "function"
    },
    {
      "inputs": [],
      "name": "getHighTierVoteWeightThreshold",
      "outputs": [
        {
          "internalType": "uint256",
          "name": "",
          "type": "uint256"
        },
        {
          "internalType": "uint256",
          "name": "",
          "type": "uint256"
        }
      ],
      "stateMutability": "view",
      "type": "function"
    },
    {
      "inputs": [
        {
          "internalType": "bytes32",
          "name": "role",
          "type": "bytes32"
        }
      ],
      "name": "getRoleAdmin",
      "outputs": [
        {
          "internalType": "bytes32",
          "name": "",
          "type": "bytes32"
        }
      ],
      "stateMutability": "view",
      "type": "function"
    },
    {
      "inputs": [
        {
          "internalType": "bytes32",
          "name": "role",
          "type": "bytes32"
        },
        {
          "internalType": "uint256",
          "name": "index",
          "type": "uint256"
        }
      ],
      "name": "getRoleMember",
      "outputs": [
        {
          "internalType": "address",
          "name": "",
          "type": "address"
        }
      ],
      "stateMutability": "view",
      "type": "function"
    },
    {
      "inputs": [
        {
          "internalType": "bytes32",
          "name": "role",
          "type": "bytes32"
        }
      ],
      "name": "getRoleMemberCount",
      "outputs": [
        {
          "internalType": "uint256",
          "name": "",
          "type": "uint256"
        }
      ],
      "stateMutability": "view",
      "type": "function"
    },
    {
      "inputs": [
        {
          "internalType": "address",
          "name": "_mainchainToken",
          "type": "address"
        }
      ],
      "name": "getRoninToken",
      "outputs": [
        {
          "components": [
            {
              "internalType": "enum Token.Standard",
              "name": "erc",
              "type": "uint8"
            },
            {
              "internalType": "address",
              "name": "tokenAddr",
              "type": "address"
            }
          ],
          "internalType": "struct MappedTokenConsumer.MappedToken",
          "name": "_token",
          "type": "tuple"
        }
      ],
      "stateMutability": "view",
      "type": "function"
    },
    {
      "inputs": [],
      "name": "getThreshold",
      "outputs": [
        {
          "internalType": "uint256",
          "name": "num_",
          "type": "uint256"
        },
        {
          "internalType": "uint256",
          "name": "denom_",
          "type": "uint256"
        }
      ],
      "stateMutability": "view",
      "type": "function"
    },
    {
      "inputs": [
        {
          "internalType": "bytes32",
          "name": "role",
          "type": "bytes32"
        },
        {
          "internalType": "address",
          "name": "account",
          "type": "address"
        }
      ],
      "name": "grantRole",
      "outputs": [],
      "stateMutability": "nonpayable",
      "type": "function"
    },
    {
      "inputs": [
        {
          "internalType": "bytes32",
          "name": "role",
          "type": "bytes32"
        },
        {
          "internalType": "address",
          "name": "account",
          "type": "address"
        }
      ],
      "name": "hasRole",
      "outputs": [
        {
          "internalType": "bool",
          "name": "",
          "type": "bool"
        }
      ],
      "stateMutability": "view",
      "type": "function"
    },
    {
      "inputs": [
        {
          "internalType": "address",
          "name": "",
          "type": "address"
        }
      ],
      "name": "highTierThreshold",
      "outputs": [
        {
          "internalType": "uint256",
          "name": "",
          "type": "uint256"
        }
      ],
      "stateMutability": "view",
      "type": "function"
    },
    {
      "inputs": [
        {
          "internalType": "address",
          "name": "_roleSetter",
          "type": "address"
        },
        {
          "internalType": "contract IWETH",
          "name": "_wrappedToken",
          "type": "address"
        },
        {
          "internalType": "uint256",
          "name": "_roninChainId",
          "type": "uint256"
        },
        {
          "internalType": "uint256",
          "name": "_numerator",
          "type": "uint256"
        },
        {
          "internalType": "uint256",
          "name": "_highTierVWNumerator",
          "type": "uint256"
        },
        {
          "internalType": "uint256",
          "name": "_denominator",
          "type": "uint256"
        },
        {
          "internalType": "address[][3]",
          "name": "_addresses",
          "type": "address[][3]"
        },
        {
          "internalType": "uint256[][4]",
          "name": "_thresholds",
          "type": "uint256[][4]"
        },
        {
          "internalType": "enum Token.Standard[]",
          "name": "_standards",
          "type": "uint8[]"
        }
      ],
      "name": "initialize",
      "outputs": [],
      "stateMutability": "payable",
      "type": "function"
    },
    {
      "inputs": [
        {
          "internalType": "address",
          "name": "bridgeManagerContract",
          "type": "address"
        }
      ],
      "name": "initializeV2",
      "outputs": [],
      "stateMutability": "nonpayable",
      "type": "function"
    },
    {
      "inputs": [
        {
          "internalType": "address",
          "name": "",
          "type": "address"
        }
      ],
      "name": "lastDateSynced",
      "outputs": [
        {
          "internalType": "uint256",
          "name": "",
          "type": "uint256"
        }
      ],
      "stateMutability": "view",
      "type": "function"
    },
    {
      "inputs": [
        {
          "internalType": "address",
          "name": "",
          "type": "address"
        }
      ],
      "name": "lastSyncedWithdrawal",
      "outputs": [
        {
          "internalType": "uint256",
          "name": "",
          "type": "uint256"
        }
      ],
      "stateMutability": "view",
      "type": "function"
    },
    {
      "inputs": [
        {
          "internalType": "address",
          "name": "",
          "type": "address"
        }
      ],
      "name": "lockedThreshold",
      "outputs": [
        {
          "internalType": "uint256",
          "name": "",
          "type": "uint256"
        }
      ],
      "stateMutability": "view",
      "type": "function"
    },
    {
      "inputs": [
        {
          "internalType": "address[]",
          "name": "_mainchainTokens",
          "type": "address[]"
        },
        {
          "internalType": "address[]",
          "name": "_roninTokens",
          "type": "address[]"
        },
        {
          "internalType": "enum Token.Standard[]",
          "name": "_standards",
          "type": "uint8[]"
        }
      ],
      "name": "mapTokens",
      "outputs": [],
      "stateMutability": "nonpayable",
      "type": "function"
    },
    {
      "inputs": [
        {
          "internalType": "address[]",
          "name": "_mainchainTokens",
          "type": "address[]"
        },
        {
          "internalType": "address[]",
          "name": "_roninTokens",
          "type": "address[]"
        },
        {
          "internalType": "enum Token.Standard[]",
          "name": "_standards",
          "type": "uint8[]"
        },
        {
          "internalType": "uint256[][4]",
          "name": "_thresholds",
          "type": "uint256[][4]"
        }
      ],
      "name": "mapTokensAndThresholds",
      "outputs": [],
      "stateMutability": "nonpayable",
      "type": "function"
    },
    {
      "inputs": [],
      "name": "minimumVoteWeight",
      "outputs": [
        {
          "internalType": "uint256",
          "name": "",
          "type": "uint256"
        }
      ],
      "stateMutability": "view",
      "type": "function"
    },
    {
      "inputs": [],
      "name": "nonce",
      "outputs": [
        {
          "internalType": "uint256",
          "name": "",
          "type": "uint256"
        }
      ],
      "stateMutability": "view",
      "type": "function"
    },
    {
      "inputs": [],
      "name": "pause",
      "outputs": [],
      "stateMutability": "nonpayable",
      "type": "function"
    },
    {
      "inputs": [],
      "name": "paused",
      "outputs": [
        {
          "internalType": "bool",
          "name": "",
          "type": "bool"
        }
      ],
      "stateMutability": "view",
      "type": "function"
    },
    {
      "inputs": [
        {
          "internalType": "address",
          "name": "_token",
          "type": "address"
        },
        {
          "internalType": "uint256",
          "name": "_quantity",
          "type": "uint256"
        }
      ],
      "name": "reachedWithdrawalLimit",
      "outputs": [
        {
          "internalType": "bool",
          "name": "",
          "type": "bool"
        }
      ],
      "stateMutability": "view",
      "type": "function"
    },
    {
      "inputs": [],
      "name": "receiveEther",
      "outputs": [],
      "stateMutability": "payable",
      "type": "function"
    },
    {
      "inputs": [
        {
          "internalType": "bytes32",
          "name": "role",
          "type": "bytes32"
        },
        {
          "internalType": "address",
          "name": "account",
          "type": "address"
        }
      ],
      "name": "renounceRole",
      "outputs": [],
      "stateMutability": "nonpayable",
      "type": "function"
    },
    {
      "inputs": [
        {
          "components": [
            {
              "internalType": "address",
              "name": "recipientAddr",
              "type": "address"
            },
            {
              "internalType": "address",
              "name": "tokenAddr",
              "type": "address"
            },
            {
              "components": [
                {
                  "internalType": "enum Token.Standard",
                  "name": "erc",
                  "type": "uint8"
                },
                {
                  "internalType": "uint256",
                  "name": "id",
                  "type": "uint256"
                },
                {
                  "internalType": "uint256",
                  "name": "quantity",
                  "type": "uint256"
                }
              ],
              "internalType": "struct Token.Info",
              "name": "info",
              "type": "tuple"
            }
          ],
          "internalType": "struct Transfer.Request",
          "name": "_request",
          "type": "tuple"
        }
      ],
      "name": "requestDepositFor",
      "outputs": [],
      "stateMutability": "payable",
      "type": "function"
    },
    {
      "inputs": [
        {
          "internalType": "bytes32",
          "name": "role",
          "type": "bytes32"
        },
        {
          "internalType": "address",
          "name": "account",
          "type": "address"
        }
      ],
      "name": "revokeRole",
      "outputs": [],
      "stateMutability": "nonpayable",
      "type": "function"
    },
    {
      "inputs": [],
      "name": "roninChainId",
      "outputs": [
        {
          "internalType": "uint256",
          "name": "",
          "type": "uint256"
        }
      ],
      "stateMutability": "view",
      "type": "function"
    },
    {
      "inputs": [
        {
          "internalType": "enum ContractType",
          "name": "contractType",
          "type": "uint8"
        },
        {
          "internalType": "address",
          "name": "addr",
          "type": "address"
        }
      ],
      "name": "setContract",
      "outputs": [],
      "stateMutability": "nonpayable",
      "type": "function"
    },
    {
      "inputs": [
        {
          "internalType": "address[]",
          "name": "_tokens",
          "type": "address[]"
        },
        {
          "internalType": "uint256[]",
          "name": "_limits",
          "type": "uint256[]"
        }
      ],
      "name": "setDailyWithdrawalLimits",
      "outputs": [],
      "stateMutability": "nonpayable",
      "type": "function"
    },
    {
      "inputs": [
        {
          "internalType": "address",
          "name": "_addr",
          "type": "address"
        }
      ],
      "name": "setEmergencyPauser",
      "outputs": [],
      "stateMutability": "nonpayable",
      "type": "function"
    },
    {
      "inputs": [
        {
          "internalType": "address[]",
          "name": "_tokens",
          "type": "address[]"
        },
        {
          "internalType": "uint256[]",
          "name": "_thresholds",
          "type": "uint256[]"
        }
      ],
      "name": "setHighTierThresholds",
      "outputs": [],
      "stateMutability": "nonpayable",
      "type": "function"
    },
    {
      "inputs": [
        {
          "internalType": "uint256",
          "name": "_numerator",
          "type": "uint256"
        },
        {
          "internalType": "uint256",
          "name": "_denominator",
          "type": "uint256"
        }
      ],
      "name": "setHighTierVoteWeightThreshold",
      "outputs": [
        {
          "internalType": "uint256",
          "name": "_previousNum",
          "type": "uint256"
        },
        {
          "internalType": "uint256",
          "name": "_previousDenom",
          "type": "uint256"
        }
      ],
      "stateMutability": "nonpayable",
      "type": "function"
    },
    {
      "inputs": [
        {
          "internalType": "address[]",
          "name": "_tokens",
          "type": "address[]"
        },
        {
          "internalType": "uint256[]",
          "name": "_thresholds",
          "type": "uint256[]"
        }
      ],
      "name": "setLockedThresholds",
      "outputs": [],
      "stateMutability": "nonpayable",
      "type": "function"
    },
    {
      "inputs": [
        {
          "internalType": "uint256",
          "name": "_numerator",
          "type": "uint256"
        },
        {
          "internalType": "uint256",
          "name": "_denominator",
          "type": "uint256"
        }
      ],
      "name": "setThreshold",
      "outputs": [
        {
          "internalType": "uint256",
          "name": "_previousNum",
          "type": "uint256"
        },
        {
          "internalType": "uint256",
          "name": "_previousDenom",
          "type": "uint256"
        }
      ],
      "stateMutability": "nonpayable",
      "type": "function"
    },
    {
      "inputs": [
        {
          "internalType": "address[]",
          "name": "_tokens",
          "type": "address[]"
        },
        {
          "internalType": "uint256[]",
          "name": "_percentages",
          "type": "uint256[]"
        }
      ],
      "name": "setUnlockFeePercentages",
      "outputs": [],
      "stateMutability": "nonpayable",
      "type": "function"
    },
    {
      "inputs": [
        {
          "internalType": "contract IWETH",
          "name": "_wrappedToken",
          "type": "address"
        }
      ],
      "name": "setWrappedNativeTokenContract",
      "outputs": [],
      "stateMutability": "nonpayable",
      "type": "function"
    },
    {
      "inputs": [
        {
          "components": [
            {
              "internalType": "uint256",
              "name": "id",
              "type": "uint256"
            },
            {
              "internalType": "enum Transfer.Kind",
              "name": "kind",
              "type": "uint8"
            },
            {
              "components": [
                {
                  "internalType": "address",
                  "name": "addr",
                  "type": "address"
                },
                {
                  "internalType": "address",
                  "name": "tokenAddr",
                  "type": "address"
                },
                {
                  "internalType": "uint256",
                  "name": "chainId",
                  "type": "uint256"
                }
              ],
              "internalType": "struct Token.Owner",
              "name": "mainchain",
              "type": "tuple"
            },
            {
              "components": [
                {
                  "internalType": "address",
                  "name": "addr",
                  "type": "address"
                },
                {
                  "internalType": "address",
                  "name": "tokenAddr",
                  "type": "address"
                },
                {
                  "internalType": "uint256",
                  "name": "chainId",
                  "type": "uint256"
                }
              ],
              "internalType": "struct Token.Owner",
              "name": "ronin",
              "type": "tuple"
            },
            {
              "components": [
                {
                  "internalType": "enum Token.Standard",
                  "name": "erc",
                  "type": "uint8"
                },
                {
                  "internalType": "uint256",
                  "name": "id",
                  "type": "uint256"
                },
                {
                  "internalType": "uint256",
                  "name": "quantity",
                  "type": "uint256"
                }
              ],
              "internalType": "struct Token.Info",
              "name": "info",
              "type": "tuple"
            }
          ],
          "internalType": "struct Transfer.Receipt",
          "name": "_receipt",
          "type": "tuple"
        },
        {
          "components": [
            {
              "internalType": "uint8",
              "name": "v",
              "type": "uint8"
            },
            {
              "internalType": "bytes32",
              "name": "r",
              "type": "bytes32"
            },
            {
              "internalType": "bytes32",
              "name": "s",
              "type": "bytes32"
            }
          ],
          "internalType": "struct SignatureConsumer.Signature[]",
          "name": "_signatures",
          "type": "tuple[]"
        }
      ],
      "name": "submitWithdrawal",
      "outputs": [
        {
          "internalType": "bool",
          "name": "_locked",
          "type": "bool"
        }
      ],
      "stateMutability": "nonpayable",
      "type": "function"
    },
    {
      "inputs": [
        {
          "internalType": "bytes4",
          "name": "interfaceId",
          "type": "bytes4"
        }
      ],
      "name": "supportsInterface",
      "outputs": [
        {
          "internalType": "bool",
          "name": "",
          "type": "bool"
        }
      ],
      "stateMutability": "view",
      "type": "function"
    },
    {
      "inputs": [
        {
          "internalType": "address",
          "name": "",
          "type": "address"
        }
      ],
      "name": "unlockFeePercentages",
      "outputs": [
        {
          "internalType": "uint256",
          "name": "",
          "type": "uint256"
        }
      ],
      "stateMutability": "view",
      "type": "function"
    },
    {
      "inputs": [
        {
          "components": [
            {
              "internalType": "uint256",
              "name": "id",
              "type": "uint256"
            },
            {
              "internalType": "enum Transfer.Kind",
              "name": "kind",
              "type": "uint8"
            },
            {
              "components": [
                {
                  "internalType": "address",
                  "name": "addr",
                  "type": "address"
                },
                {
                  "internalType": "address",
                  "name": "tokenAddr",
                  "type": "address"
                },
                {
                  "internalType": "uint256",
                  "name": "chainId",
                  "type": "uint256"
                }
              ],
              "internalType": "struct Token.Owner",
              "name": "mainchain",
              "type": "tuple"
            },
            {
              "components": [
                {
                  "internalType": "address",
                  "name": "addr",
                  "type": "address"
                },
                {
                  "internalType": "address",
                  "name": "tokenAddr",
                  "type": "address"
                },
                {
                  "internalType": "uint256",
                  "name": "chainId",
                  "type": "uint256"
                }
              ],
              "internalType": "struct Token.Owner",
              "name": "ronin",
              "type": "tuple"
            },
            {
              "components": [
                {
                  "internalType": "enum Token.Standard",
                  "name": "erc",
                  "type": "uint8"
                },
                {
                  "internalType": "uint256",
                  "name": "id",
                  "type": "uint256"
                },
                {
                  "internalType": "uint256",
                  "name": "quantity",
                  "type": "uint256"
                }
              ],
              "internalType": "struct Token.Info",
              "name": "info",
              "type": "tuple"
            }
          ],
          "internalType": "struct Transfer.Receipt",
          "name": "_receipt",
          "type": "tuple"
        }
      ],
      "name": "unlockWithdrawal",
      "outputs": [],
      "stateMutability": "nonpayable",
      "type": "function"
    },
    {
      "inputs": [],
      "name": "unpause",
      "outputs": [],
      "stateMutability": "nonpayable",
      "type": "function"
    },
    {
      "inputs": [
        {
          "internalType": "uint256",
          "name": "",
          "type": "uint256"
        }
      ],
      "name": "withdrawalHash",
      "outputs": [
        {
          "internalType": "bytes32",
          "name": "",
          "type": "bytes32"
        }
      ],
      "stateMutability": "view",
      "type": "function"
    },
    {
      "inputs": [
        {
          "internalType": "uint256",
          "name": "",
          "type": "uint256"
        }
      ],
      "name": "withdrawalLocked",
      "outputs": [
        {
          "internalType": "bool",
          "name": "",
          "type": "bool"
        }
      ],
      "stateMutability": "view",
      "type": "function"
    },
    {
      "inputs": [],
      "name": "wrappedNativeToken",
      "outputs": [
        {
          "internalType": "contract IWETH",
          "name": "",
          "type": "address"
        }
      ],
      "stateMutability": "view",
      "type": "function"
    },
    {
      "stateMutability": "payable",
      "type": "receive"
    }
  ],
  "transactionHash": "0xfa51d53e412297b619d609e0ca97f6269e9b8173cde915f25a0e5d881baa9ec5",
  "args": [],
  "numDeployments": 3,
  "solcInputHash": "6c219cc499cc18168de5a543cc795d09",
  "bytecode": "0x608060405234801561001057600080fd5b506000805460ff191690556146cc8061002a6000396000f3fe60806040526004361061031e5760003560e01c8063865e6fd3116101ab578063b1d08a03116100f7578063d55ed10311610095578063de981f1b1161006f578063de981f1b14610999578063dff525e1146109b9578063e400327c146109d9578063e75235b8146109f95761032d565b8063d55ed1031461092c578063d64af2a614610959578063dafae408146109795761032d565b8063ca15c873116100d1578063ca15c873146108a7578063cdb67444146108c7578063d19773d2146108df578063d547741f1461090c5761032d565b8063b1d08a031461082d578063b29757941461085a578063b9c36209146108875761032d565b80639dcc4da311610164578063ab7965661161013e578063ab796566146107aa578063ac78dfe8146107d7578063affed0e0146107f7578063b1a2567e1461080d5761032d565b80639dcc4da314610760578063a217fddf14610795578063a3912ec81461032b5761032d565b8063865e6fd31461068c5780638f34e347146106ac5780639010d07c146106e05780639157921c1461070057806391d148541461072057806393c5678f146107405761032d565b806336568abe1161026a578063504af48c116102235780636932be98116101fd5780636932be98146106155780636c1ce670146106425780637de5dedd146106625780638456cb59146106775761032d565b8063504af48c146105bd57806359122f6b146105d05780635c975abb146105fd5761032d565b806336568abe146105055780633e70838b146105255780633f4ba83a146105455780634b14557e1461055a5780634d0d66731461056d5780634d493f4e1461058d5761032d565b80631d4a7210116102d75780632dfdf0b5116102b15780632dfdf0b5146104a35780632f2ff15d146104b9578063302d12db146104d95780633644e515146104f05761032d565b80631d4a721014610426578063248a9ca31461045357806329b6eca9146104835761032d565b806301ffc9a714610335578063065b3adf1461036a57806317ce2dd4146103a257806317fcb39b146103c65780631a8e55b0146103e65780631b6e7594146104065761032d565b3661032d5761032b610a11565b005b61032b610a11565b34801561034157600080fd5b506103556103503660046138d6565b610a51565b60405190151581526020015b60405180910390f35b34801561037657600080fd5b5060055461038a906001600160a01b031681565b6040516001600160a01b039091168152602001610361565b3480156103ae57600080fd5b506103b860755481565b604051908152602001610361565b3480156103d257600080fd5b5060745461038a906001600160a01b031681565b3480156103f257600080fd5b5061032b610401366004613945565b610a7c565b34801561041257600080fd5b5061032b6104213660046139b1565b610ab8565b34801561043257600080fd5b506103b8610441366004613a6b565b603e6020526000908152604090205481565b34801561045f57600080fd5b506103b861046e366004613a88565b60009081526072602052604090206001015490565b34801561048f57600080fd5b5061032b61049e366004613a6b565b610af8565b3480156104af57600080fd5b506103b860765481565b3480156104c557600080fd5b5061032b6104d4366004613aa1565b610ba3565b3480156104e557600080fd5b506103b8620f424081565b3480156104fc57600080fd5b506077546103b8565b34801561051157600080fd5b5061032b610520366004613aa1565b610bcd565b34801561053157600080fd5b5061032b610540366004613a6b565b610c4b565b34801561055157600080fd5b5061032b610c75565b61032b610568366004613ad1565b610c85565b34801561057957600080fd5b50610355610588366004613afc565b610ca5565b34801561059957600080fd5b506103556105a8366004613a88565b607a6020526000908152604090205460ff1681565b61032b6105cb366004613ba7565b610d13565b3480156105dc57600080fd5b506103b86105eb366004613a6b565b603a6020526000908152604090205481565b34801561060957600080fd5b5060005460ff16610355565b34801561062157600080fd5b506103b8610630366004613a88565b60796020526000908152604090205481565b34801561064e57600080fd5b5061035561065d366004613c82565b610fed565b34801561066e57600080fd5b506103b8611000565b34801561068357600080fd5b5061032b611017565b34801561069857600080fd5b5061032b6106a7366004613cbd565b611027565b3480156106b857600080fd5b506103b87f5e5712e902fff5e704bc4d506ad976718319e019e9d2a872528a01a85db433e481565b3480156106ec57600080fd5b5061038a6106fb366004613ce9565b611042565b34801561070c57600080fd5b5061032b61071b366004613d0b565b61105a565b34801561072c57600080fd5b5061035561073b366004613aa1565b6112de565b34801561074c57600080fd5b5061032b61075b366004613945565b611309565b34801561076c57600080fd5b5061078061077b366004613ce9565b61133f565b60408051928352602083019190915201610361565b3480156107a157600080fd5b506103b8600081565b3480156107b657600080fd5b506103b86107c5366004613a6b565b603c6020526000908152604090205481565b3480156107e357600080fd5b506103556107f2366004613a88565b611368565b34801561080357600080fd5b506103b860045481565b34801561081957600080fd5b5061032b610828366004613945565b611394565b34801561083957600080fd5b506103b8610848366004613a6b565b60396020526000908152604090205481565b34801561086657600080fd5b5061087a610875366004613a6b565b6113ca565b6040516103619190613d4e565b34801561089357600080fd5b506107806108a2366004613ce9565b61146d565b3480156108b357600080fd5b506103b86108c2366004613a88565b611482565b3480156108d357600080fd5b50603754603854610780565b3480156108eb57600080fd5b506103b86108fa366004613a6b565b603b6020526000908152604090205481565b34801561091857600080fd5b5061032b610927366004613aa1565b611499565b34801561093857600080fd5b506103b8610947366004613a6b565b603d6020526000908152604090205481565b34801561096557600080fd5b5061032b610974366004613a6b565b6114be565b34801561098557600080fd5b50610355610994366004613a88565b6114cf565b3480156109a557600080fd5b5061038a6109b4366004613d7a565b6114f3565b3480156109c557600080fd5b5061032b6109d4366004613d95565b611569565b3480156109e557600080fd5b5061032b6109f4366004613945565b6115de565b348015610a0557600080fd5b50600154600254610780565b610a19611614565b6074546001600160a01b03163314610a4f57610a33613895565b338152604080820151349101528051610a4d90829061165a565b505b565b60006001600160e01b03198216635a05180f60e01b1480610a765750610a76826118bb565b92915050565b610a846118f0565b6000839003610aa6576040516316ee9d3b60e11b815260040160405180910390fd5b610ab28484848461194a565b50505050565b610ac06118f0565b6000859003610ae2576040516316ee9d3b60e11b815260040160405180910390fd5b610af0868686868686611a1f565b505050505050565b607154600290610100900460ff16158015610b1a575060715460ff8083169116105b610b3f5760405162461bcd60e51b8152600401610b3690613e53565b60405180910390fd5b6071805461ffff191660ff831617610100179055610b5e600b83611bb6565b6071805461ff001916905560405160ff821681527f7f26b83ff96e1f2b6a682f133852f6798a09c465da95921460cefb38474024989060200160405180910390a15050565b600082815260726020526040902060010154610bbe81611c5a565b610bc88383611c64565b505050565b6001600160a01b0381163314610c3d5760405162461bcd60e51b815260206004820152602f60248201527f416363657373436f6e74726f6c3a2063616e206f6e6c792072656e6f756e636560448201526e103937b632b9903337b91039b2b63360891b6064820152608401610b36565b610c478282611c86565b5050565b610c536118f0565b600580546001600160a01b0319166001600160a01b0392909216919091179055565b610c7d611ca8565b610a4f611d17565b610c8d611614565b610a4d610c9f36839003830183613f40565b3361165a565b6000610caf611614565b610d0b848484808060200260200160405190810160405280939291908181526020016000905b82821015610d0157610cf260608302860136819003810190613f93565b81526020019060010190610cd5565b5050505050611d69565b949350505050565b607154610100900460ff1615808015610d335750607154600160ff909116105b80610d4d5750303b158015610d4d575060715460ff166001145b610d695760405162461bcd60e51b8152600401610b3690613e53565b6071805460ff191660011790558015610d8c576071805461ff0019166101001790555b610d9760008c6121d3565b6075899055610da58a6121dd565b610e306040517f8b73c3c69bb8fe3d512ecc4cf759cc79239f7b179b0ffacaa9a75d522b39400f81527f159f52c1e3a2b6a6aad3950adf713516211484e0516dad685ea662a094b7c43b60208201527fad7c5bef027816a800da1736444fb58a807ef4c9603b7848673f7e3a68eb14a5604082015246606082015230608082015260a0812060775550565b610e3a8887612231565b5050610e4687876122c8565b5050610e50612355565b6000610e5c868061401f565b90501115610f1d57610e85610e71868061401f565b610e7e602089018961401f565b8787611a1f565b610eab610e92868061401f565b8660005b602002810190610ea6919061401f565b6123a2565b610ed1610eb8868061401f565b8660015b602002810190610ecc919061401f565b61194a565b610ef7610ede868061401f565b8660025b602002810190610ef2919061401f565b612477565b610f1d610f04868061401f565b8660035b602002810190610f18919061401f565b612588565b60005b610f2d604087018761401f565b9050811015610f9957610f917f5e5712e902fff5e704bc4d506ad976718319e019e9d2a872528a01a85db433e4610f67604089018961401f565b84818110610f7757610f77614009565b9050602002016020810190610f8c9190613a6b565b611c64565b600101610f20565b508015610fe0576071805461ff0019169055604051600181527f7f26b83ff96e1f2b6a682f133852f6798a09c465da95921460cefb38474024989060200160405180910390a15b5050505050505050505050565b6000610ff9838361265d565b9392505050565b600061101261100d612721565b61278e565b905090565b61101f611ca8565b610a4f6127c4565b61102f6118f0565b61103881612801565b610c478282611bb6565b6000828152607360205260408120610ff99083612837565b7f5e5712e902fff5e704bc4d506ad976718319e019e9d2a872528a01a85db433e461108481611c5a565b600061109d611098368590038501856140b7565b612843565b90506110b1611098368590038501856140b7565b8335600090815260796020526040902054146110e05760405163f4b8742f60e01b815260040160405180910390fd5b82356000908152607a602052604090205460ff166111115760405163147bfe0760e01b815260040160405180910390fd5b82356000908152607a602052604090819020805460ff19169055517fd639511b37b3b002cca6cfe6bca0d833945a5af5a045578a0627fc43b79b26309061115b908390869061418b565b60405180910390a160006111756080850160608601613a6b565b9050600061118b61012086016101008701614218565b600181111561119c5761119c613d28565b036112635760006111b63686900386016101008701614235565b6001600160a01b0383166000908152603b60205260409020549091506111e2906101408701359061290d565b604082015260006111fc3687900387016101008801614235565b604083015190915061121390610140880135614267565b6040820152607454611233908390339086906001600160a01b0316612927565b61125c6112466060880160408901613a6b565b60745483919086906001600160a01b0316612927565b505061129f565b61129f6112766060860160408701613a6b565b60745483906001600160a01b03166112973689900389016101008a01614235565b929190612927565b7f21e88e956aa3e086f6388e899965cef814688f99ad8bb29b08d396571016372d82856040516112d092919061418b565b60405180910390a150505050565b60009182526072602090815260408084206001600160a01b0393909316845291905290205460ff1690565b6113116118f0565b6000839003611333576040516316ee9d3b60e11b815260040160405180910390fd5b610ab2848484846123a2565b60008061134a6118f0565b61135484846122c8565b9092509050611361612355565b9250929050565b6000611372612721565b60375461137f919061427a565b60385461138c908461427a565b101592915050565b61139c6118f0565b60008390036113be576040516316ee9d3b60e11b815260040160405180910390fd5b610ab284848484612477565b60408051808201909152600080825260208201526001600160a01b0382166000908152607860205260409081902081518083019092528054829060ff16600181111561141857611418613d28565b600181111561142957611429613d28565b815290546001600160a01b036101009091048116602092830152908201519192501661146857604051631b79f53b60e21b815260040160405180910390fd5b919050565b6000806114786118f0565b6113548484612231565b6000818152607360205260408120610a7690612c63565b6000828152607260205260409020600101546114b481611c5a565b610bc88383611c86565b6114c66118f0565b610a4d816121dd565b60006114d9612721565b6001546114e6919061427a565b60025461138c908461427a565b60007fdea3103d22025c269050bea94c0c84688877f12fa22b7e6d2d5d78a9a49aa1cb600083600d81111561152a5761152a613d28565b60ff1681526020810191909152604001600020546001600160a01b0316905080611468578160405163409140df60e11b8152600401610b369190614291565b6115716118f0565b6000869003611593576040516316ee9d3b60e11b815260040160405180910390fd5b6115a1878787878787611a1f565b6115ae8787836000610e96565b6115bb8787836001610ebc565b6115c88787836002610ee2565b6115d58787836003610f08565b50505050505050565b6115e66118f0565b6000839003611608576040516316ee9d3b60e11b815260040160405180910390fd5b610ab284848484612588565b60005460ff1615610a4f5760405162461bcd60e51b815260206004820152601060248201526f14185d5cd8589b194e881c185d5cd95960821b6044820152606401610b36565b604080518082018252600080825260208201526074549184015190916001600160a01b03169061168990612c6d565b60208401516001600160a01b031661172a5734846040015160400151146116c35760405163129c2ce160e31b815260040160405180910390fd5b6116cc816113ca565b60408501515190925060018111156116e6576116e6613d28565b825160018111156116f9576116f9613d28565b146117165760405162035e2b60ea1b815260040160405180910390fd5b6001600160a01b0381166020850152611838565b34156117495760405163129c2ce160e31b815260040160405180910390fd5b61175684602001516113ca565b604085015151909250600181111561177057611770613d28565b8251600181111561178357611783613d28565b146117a05760405162035e2b60ea1b815260040160405180910390fd5b602084015160408501516117b79185903090612ce8565b83602001516001600160a01b0316816001600160a01b031603611838576040848101518101519051632e1a7d4d60e01b815260048101919091526001600160a01b03821690632e1a7d4d90602401600060405180830381600087803b15801561181f57600080fd5b505af1158015611833573d6000803e3d6000fd5b505050505b6076805460009182611849836142ab565b9190505590506000611870858386602001516075548a612ec990949392919063ffffffff16565b90507fd7b25068d9dc8d00765254cfb7f5070f98d263c8d68931d937c7362fa738048b61189c82612843565b826040516118ab9291906142e6565b60405180910390a1505050505050565b60006001600160e01b03198216637965db0b60e01b1480610a7657506301ffc9a760e01b6001600160e01b0319831614610a76565b7fb53127684a568b3173ae13b9f8a6016e243e63b6e8ee1178d6a717850b5d6103546001600160a01b03163314610a4f576000356001600160e01b0319166001604051620f948f60ea1b8152600401610b36929190614384565b828114611978576000356001600160e01b0319166040516306b5667560e21b8152600401610b3691906143b2565b60005b838110156119e95782828281811061199557611995614009565b90506020020135603a60008787858181106119b2576119b2614009565b90506020020160208101906119c79190613a6b565b6001600160a01b0316815260208101919091526040016000205560010161197b565b507f64557254143204d91ba2d95acb9fda1e5fea55f77efd028685765bc1e94dd4b5848484846040516112d09493929190614410565b8483148015611a2d57508481145b611a58576000356001600160e01b0319166040516306b5667560e21b8152600401610b3691906143b2565b60005b85811015611b7c57848482818110611a7557611a75614009565b9050602002016020810190611a8a9190613a6b565b60786000898985818110611aa057611aa0614009565b9050602002016020810190611ab59190613a6b565b6001600160a01b03908116825260208201929092526040016000208054610100600160a81b0319166101009390921692909202179055828282818110611afd57611afd614009565b9050602002016020810190611b129190614218565b60786000898985818110611b2857611b28614009565b9050602002016020810190611b3d9190613a6b565b6001600160a01b031681526020810191909152604001600020805460ff191660018381811115611b6f57611b6f613d28565b0217905550600101611a5b565b507fa4f03cc9c0e0aeb5b71b4ec800702753f65748c2cf3064695ba8e8b46be704448686868686866040516118ab9695949392919061445c565b807fdea3103d22025c269050bea94c0c84688877f12fa22b7e6d2d5d78a9a49aa1cb600084600d811115611bec57611bec613d28565b60ff168152602081019190915260400160002080546001600160a01b0319166001600160a01b03928316179055811682600d811115611c2d57611c2d613d28565b6040517f865d1c228a8ea13709cfe61f346f7ff67f1bbd4a18ff31ad3e7147350d317c5990600090a35050565b610a4d8133612f9e565b611c6e8282613002565b6000828152607360205260409020610bc89082613088565b611c90828261309d565b6000828152607360205260409020610bc89082613104565b7fb53127684a568b3173ae13b9f8a6016e243e63b6e8ee1178d6a717850b5d6103546001600160a01b0316331480611cea57506005546001600160a01b031633145b610a4f576000356001600160e01b0319166001604051620f948f60ea1b8152600401610b36929190614384565b611d1f613119565b6000805460ff191690557f5db9ee0a495bf2e6ff9c91a7834c1ba4fdd244a5e8aa4e537bd38aeae4b073aa335b6040516001600160a01b03909116815260200160405180910390a1565b6000823561014084013582611d846080870160608801613a6b565b9050611da1611d9c3688900388016101008901614235565b612c6d565b6001611db36040880160208901614218565b6001811115611dc457611dc4613d28565b14611de25760405163182f3d8760e11b815260040160405180910390fd5b60808601354614611e245760405163092048d160e11b81526000356001600160e01b031916600482015260808701356024820152466044820152606401610b36565b6000611e396108756080890160608a01613a6b565b9050611e4d61012088016101008901614218565b6001811115611e5e57611e5e613d28565b81516001811115611e7157611e71613d28565b148015611ea25750611e8960e0880160c08901613a6b565b6001600160a01b031681602001516001600160a01b0316145b611ebf5760405163f4b8742f60e01b815260040160405180910390fd5b60008481526079602052604090205415611eec57604051634f13df6160e01b815260040160405180910390fd5b6001611f0061012089016101008a01614218565b6001811115611f1157611f11613d28565b1480611f245750611f22828461265d565b155b611f415760405163c51297b760e01b815260040160405180910390fd5b6000611f55611098368a90038a018a6140b7565b90506000611f6560775483613162565b90506000611f85611f7e6101208c016101008d01614218565b86886131a3565b60408051606081018252600080825260208201819052918101829052919a50919250819081906000805b8e518110156120aa578e8181518110611fca57611fca614009565b6020908102919091018101518051818301516040808401518151600081529586018083528e905260ff9093169085015260608401526080830152935060019060a0016020604051602081039080840390855afa15801561202e573d6000803e3d6000fd5b505050602060405103519450846001600160a01b0316846001600160a01b03161061207a576000356001600160e01b031916604051635d3dcd3160e01b8152600401610b3691906143b2565b84935061208685613229565b61209090836144d4565b91508682106120a257600195506120aa565b600101611faf565b50846120c957604051639e8f5f6360e01b815260040160405180910390fd5b505050600089815260796020526040902085905550508715612144576000878152607a602052604090819020805460ff19166001179055517f89e52969465b1f1866fc5d46fd62de953962e9cb33552443cd999eba05bd20dc906121309085908d9061418b565b60405180910390a150505050505050610a76565b61214e85876132a1565b61218d61216160608c0160408d01613a6b565b86607460009054906101000a90046001600160a01b03168d610100018036038101906112979190614235565b7f21e88e956aa3e086f6388e899965cef814688f99ad8bb29b08d396571016372d838b6040516121be92919061418b565b60405180910390a15050505050505092915050565b610c478282611c64565b607480546001600160a01b0319166001600160a01b0383169081179091556040519081527f9d2334c23be647e994f27a72c5eee42a43d5bdcfe15bb88e939103c2b114cbaf9060200160405180910390a150565b60008082841115612263576000356001600160e01b0319166040516387f6f09560e01b8152600401610b3691906143b2565b50506001805460028054858455908490556004805493840190556040805183815260208101839052929391928592879290917f976f8a9c5bdf8248dec172376d6e2b80a8e3df2f0328e381c6db8e1cf138c0f891015b60405180910390a49250929050565b600080828411156122fa576000356001600160e01b0319166040516387f6f09560e01b8152600401610b3691906143b2565b5050603780546038805492859055839055600480546001810190915560408051838152602081018590529293928592879290917f31312c97b89cc751b832d98fd459b967a2c3eef3b49757d1cf5ebaa12bb6eee191016122b9565b600254603754612365919061427a565b603854600154612375919061427a565b1115610a4f576000356001600160e01b0319166040516387f6f09560e01b8152600401610b3691906143b2565b8083036123d0576000356001600160e01b0319166040516306b5667560e21b8152600401610b3691906143b2565b60005b83811015612441578282828181106123ed576123ed614009565b905060200201356039600087878581811061240a5761240a614009565b905060200201602081019061241f9190613a6b565b6001600160a01b031681526020810191909152604001600020556001016123d3565b507f80bc635c452ae67f12f9b6f12ad4daa6dbbc04eeb9ebb87d354ce10c0e210dc0848484846040516112d09493929190614410565b8281146124a5576000356001600160e01b0319166040516306b5667560e21b8152600401610b3691906143b2565b60005b8381101561255257620f42408383838181106124c6576124c6614009565b9050602002013511156124ec5760405163572d3bd360e11b815260040160405180910390fd5b8282828181106124fe576124fe614009565b90506020020135603b600087878581811061251b5761251b614009565b90506020020160208101906125309190613a6b565b6001600160a01b031681526020810191909152604001600020556001016124a8565b507fb05f5de88ae0294ebb6f67c5af2fcbbd593cc6bdfe543e2869794a4c8ce3ea50848484846040516112d09493929190614410565b8281146125b6576000356001600160e01b0319166040516306b5667560e21b8152600401610b3691906143b2565b60005b83811015612627578282828181106125d3576125d3614009565b90506020020135603c60008787858181106125f0576125f0614009565b90506020020160208101906126059190613a6b565b6001600160a01b031681526020810191909152604001600020556001016125b9565b507fb5d2963614d72181b4df1f993d45b83edf42fa19710f0204217ba1b3e183bb73848484846040516112d09493929190614410565b6001600160a01b0382166000908152603a6020526040812054821061268457506000610a76565b600061269362015180426144e7565b6001600160a01b0385166000908152603e60205260409020549091508111156126d95750506001600160a01b0382166000908152603c6020526040902054811015610a76565b6001600160a01b0384166000908152603d60205260409020546126fd9084906144d4565b6001600160a01b0385166000908152603c602052604090205411159150610a769050565b600061272d600b6114f3565b6001600160a01b031663ada86b246040518163ffffffff1660e01b8152600401602060405180830381865afa15801561276a573d6000803e3d6000fd5b505050506040513d601f19601f820116820180604052508101906110129190614509565b60006002546001600254846001546127a6919061427a565b6127b091906144d4565b6127ba9190614267565b610a7691906144e7565b6127cc611614565b6000805460ff191660011790557f62e78cea01bee320cd4e420270b5ea74000d11b0c9f74754ebdbfc544b05a258611d4c3390565b806001600160a01b03163b600003610a4d57604051630bfc64a360e21b81526001600160a01b0382166004820152602401610b36565b6000610ff98383613331565b600080612853836040015161335b565b90506000612864846060015161335b565b905060006128b88560800151604080517f1e2b74b2a792d5c0f0b6e59b037fa9d43d84fbb759337f0112fcc15ca414fc8d815282516020808301919091528301518183015291015160608201526080902090565b604080517fb9d1fe7c9deeec5dc90a2f47ff1684239519f2545b2228d3d91fb27df3189eea815287516020808301919091529097015190870152606086019390935250608084015260a08301525060c0902090565b6000620f424061291d838561427a565b610ff991906144e7565b6000816001600160a01b0316836001600160a01b0316036129d65760408086015190516001600160a01b0386169180156108fc02916000818181858888f193505050506129d157816001600160a01b031663d0e30db086604001516040518263ffffffff1660e01b81526004016000604051808303818588803b1580156129ad57600080fd5b505af11580156129c1573d6000803e3d6000fd5b50505050506129d18585856133a3565b612c5c565b6000855160018111156129eb576129eb613d28565b03612b54576040516370a0823160e01b81523060048201526000906001600160a01b038516906370a0823190602401602060405180830381865afa158015612a37573d6000803e3d6000fd5b505050506040513d601f19601f82011682018060405250810190612a5b9190614509565b90508560400151811015612b4357836001600160a01b03166340c10f1930838960400151612a899190614267565b6040516001600160a01b03909216602483015260448201526064016040516020818303038152906040529060e01b6020820180516001600160e01b038381831617835250505050604051612add9190614546565b6000604051808303816000865af19150503d8060008114612b1a576040519150601f19603f3d011682016040523d82523d6000602084013e612b1f565b606091505b50508092505081612b4357604051632f739fff60e11b815260040160405180910390fd5b612b4e8686866133a3565b50612c5c565b600185516001811115612b6957612b69613d28565b03612c4357612b7d83858760200151613421565b6129d157602085810151604080516001600160a01b038881166024830152604480830194909452825180830390940184526064909101825292820180516001600160e01b03166340c10f1960e01b1790525191851691612bdd9190614546565b6000604051808303816000865af19150503d8060008114612c1a576040519150601f19603f3d011682016040523d82523d6000602084013e612c1f565b606091505b505080915050806129d15760405163c8e3a09f60e01b815260040160405180910390fd5b6040516361e411a760e11b815260040160405180910390fd5b5050505050565b6000610a76825490565b600081516001811115612c8257612c82613d28565b148015612c93575060008160400151115b8015612ca157506020810151155b80612ccb5750600181516001811115612cbc57612cbc613d28565b148015612ccb57506040810151155b610a4d5760405163034992a760e51b815260040160405180910390fd5b600060608186516001811115612d0057612d00613d28565b03612ddd5760408681015181516001600160a01b038881166024830152878116604483015260648083019390935283518083039093018352608490910183526020820180516001600160e01b03166323b872dd60e01b179052915191851691612d699190614546565b6000604051808303816000865af19150503d8060008114612da6576040519150601f19603f3d011682016040523d82523d6000602084013e612dab565b606091505b509092509050818015612dd6575080511580612dd6575080806020019051810190612dd69190614562565b9150612ea3565b600186516001811115612df257612df2613d28565b03612c4357602086810151604080516001600160a01b0389811660248301528881166044830152606480830194909452825180830390940184526084909101825292820180516001600160e01b03166323b872dd60e01b1790525191851691612e5b9190614546565b6000604051808303816000865af19150503d8060008114612e98576040519150601f19603f3d011682016040523d82523d6000602084013e612e9d565b606091505b50909250505b81610af05785858585604051639d2e4c6760e01b8152600401610b369493929190614584565b612f396040805160a08101825260008082526020808301829052835160608082018652838252818301849052818601849052848601919091528451808201865283815280830184905280860184905281850152845190810185528281529081018290529283015290608082015290565b83815260006020820181905250604080820180516001600160a01b039788169052602080890151825190891690820152905146908301528751606084018051918916909152805195909716940193909352935182015292909201516080820152919050565b612fa882826112de565b610c4757612fc0816001600160a01b031660146134cc565b612fcb8360206134cc565b604051602001612fdc9291906145ba565b60408051601f198184030181529082905262461bcd60e51b8252610b369160040161462f565b61300c82826112de565b610c475760008281526072602090815260408083206001600160a01b03851684529091529020805460ff191660011790556130443390565b6001600160a01b0316816001600160a01b0316837f2f8788117e7eff1d82e926ec794901d17c78024a50270940304540a733656f0d60405160405180910390a45050565b6000610ff9836001600160a01b038416613668565b6130a782826112de565b15610c475760008281526072602090815260408083206001600160a01b0385168085529252808320805460ff1916905551339285917ff6391f5c32d9c69d2a47ea670b442974b53935d1edc7fd64eb21e047a839171b9190a45050565b6000610ff9836001600160a01b0384166136b7565b60005460ff16610a4f5760405162461bcd60e51b815260206004820152601460248201527314185d5cd8589b194e881b9bdd081c185d5cd95960621b6044820152606401610b36565b6040805161190160f01b6020808301919091526022820185905260428083018590528351808403909101815260629092019092528051910120600090610ff9565b60008060006131b0612721565b90506131bb8161278e565b925060008660018111156131d1576131d1613d28565b03613220576001600160a01b0385166000908152603960205260409020548410613201576131fe816137aa565b92505b6001600160a01b0385166000908152603a602052604090205484101591505b50935093915050565b6000613235600b6114f3565b60405163901979d560e01b81526001600160a01b038481166004830152919091169063901979d590602401602060405180830381865afa15801561327d573d6000803e3d6000fd5b505050506040513d601f19601f82011682018060405250810190610a769190614509565b60006132b062015180426144e7565b6001600160a01b0384166000908152603e60205260409020549091508111156132ff576001600160a01b03929092166000908152603e6020908152604080832094909455603d90529190912055565b6001600160a01b0383166000908152603d6020526040812080548492906133279084906144d4565b9091555050505050565b600082600001828154811061334857613348614009565b9060005260206000200154905092915050565b604080517f353bdd8d69b9e3185b3972e08b03845c0c14a21a390215302776a7a34b0e8764815282516020808301919091528301518183015291015160608201526080902090565b600080845160018111156133b9576133b9613d28565b036133d4576133cd828486604001516137c2565b90506133fd565b6001845160018111156133e9576133e9613d28565b03612c43576133cd82848660200151613421565b80610ab2578383836040516341bd7d9160e11b8152600401610b3693929190614662565b604080513060248201526001600160a01b038481166044830152606480830185905283518084039091018152608490920183526020820180516001600160e01b03166323b872dd60e01b179052915160009286169161347f91614546565b6000604051808303816000865af19150503d80600081146134bc576040519150601f19603f3d011682016040523d82523d6000602084013e6134c1565b606091505b509095945050505050565b606060006134db83600261427a565b6134e69060026144d4565b67ffffffffffffffff8111156134fe576134fe613ea1565b6040519080825280601f01601f191660200182016040528015613528576020820181803683370190505b509050600360fc1b8160008151811061354357613543614009565b60200101906001600160f81b031916908160001a905350600f60fb1b8160018151811061357257613572614009565b60200101906001600160f81b031916908160001a905350600061359684600261427a565b6135a19060016144d4565b90505b6001811115613619576f181899199a1a9b1b9c1cb0b131b232b360811b85600f16601081106135d5576135d5614009565b1a60f81b8282815181106135eb576135eb614009565b60200101906001600160f81b031916908160001a90535060049490941c9361361281614692565b90506135a4565b508315610ff95760405162461bcd60e51b815260206004820181905260248201527f537472696e67733a20686578206c656e67746820696e73756666696369656e746044820152606401610b36565b60008181526001830160205260408120546136af57508154600181810184556000848152602080822090930184905584548482528286019093526040902091909155610a76565b506000610a76565b600081815260018301602052604081205480156137a05760006136db600183614267565b85549091506000906136ef90600190614267565b905081811461375457600086600001828154811061370f5761370f614009565b906000526020600020015490508087600001848154811061373257613732614009565b6000918252602080832090910192909255918252600188019052604090208390555b8554869080613765576137656146a9565b600190038181906000526020600020016000905590558560010160008681526020019081526020016000206000905560019350505050610a76565b6000915050610a76565b60006038546001603854846037546127a6919061427a565b604080516001600160a01b038481166024830152604480830185905283518084039091018152606490920183526020820180516001600160e01b031663a9059cbb60e01b17905291516000926060929087169161381f9190614546565b6000604051808303816000865af19150503d806000811461385c576040519150601f19603f3d011682016040523d82523d6000602084013e613861565b606091505b50909250905081801561388c57508051158061388c57508080602001905181019061388c9190614562565b95945050505050565b60408051606081018252600080825260208201529081016138d16040805160608101909152806000815260200160008152602001600081525090565b905290565b6000602082840312156138e857600080fd5b81356001600160e01b031981168114610ff957600080fd5b60008083601f84011261391257600080fd5b50813567ffffffffffffffff81111561392a57600080fd5b6020830191508360208260051b850101111561136157600080fd5b6000806000806040858703121561395b57600080fd5b843567ffffffffffffffff8082111561397357600080fd5b61397f88838901613900565b9096509450602087013591508082111561399857600080fd5b506139a587828801613900565b95989497509550505050565b600080600080600080606087890312156139ca57600080fd5b863567ffffffffffffffff808211156139e257600080fd5b6139ee8a838b01613900565b90985096506020890135915080821115613a0757600080fd5b613a138a838b01613900565b90965094506040890135915080821115613a2c57600080fd5b50613a3989828a01613900565b979a9699509497509295939492505050565b6001600160a01b0381168114610a4d57600080fd5b803561146881613a4b565b600060208284031215613a7d57600080fd5b8135610ff981613a4b565b600060208284031215613a9a57600080fd5b5035919050565b60008060408385031215613ab457600080fd5b823591506020830135613ac681613a4b565b809150509250929050565b600060a08284031215613ae357600080fd5b50919050565b60006101608284031215613ae357600080fd5b60008060006101808486031215613b1257600080fd5b613b1c8585613ae9565b925061016084013567ffffffffffffffff80821115613b3a57600080fd5b818601915086601f830112613b4e57600080fd5b813581811115613b5d57600080fd5b876020606083028501011115613b7257600080fd5b6020830194508093505050509250925092565b8060608101831015610a7657600080fd5b8060808101831015610a7657600080fd5b6000806000806000806000806000806101208b8d031215613bc757600080fd5b613bd08b613a60565b9950613bde60208c01613a60565b985060408b0135975060608b0135965060808b0135955060a08b0135945060c08b013567ffffffffffffffff80821115613c1757600080fd5b613c238e838f01613b85565b955060e08d0135915080821115613c3957600080fd5b613c458e838f01613b96565b94506101008d0135915080821115613c5c57600080fd5b50613c698d828e01613900565b915080935050809150509295989b9194979a5092959850565b60008060408385031215613c9557600080fd5b8235613ca081613a4b565b946020939093013593505050565b8035600e811061146857600080fd5b60008060408385031215613cd057600080fd5b613cd983613cae565b91506020830135613ac681613a4b565b60008060408385031215613cfc57600080fd5b50508035926020909101359150565b60006101608284031215613d1e57600080fd5b610ff98383613ae9565b634e487b7160e01b600052602160045260246000fd5b60028110610a4d57610a4d613d28565b81516040820190613d5e81613d3e565b82526020928301516001600160a01b0316929091019190915290565b600060208284031215613d8c57600080fd5b610ff982613cae565b60008060008060008060006080888a031215613db057600080fd5b873567ffffffffffffffff80821115613dc857600080fd5b613dd48b838c01613900565b909950975060208a0135915080821115613ded57600080fd5b613df98b838c01613900565b909750955060408a0135915080821115613e1257600080fd5b613e1e8b838c01613900565b909550935060608a0135915080821115613e3757600080fd5b50613e448a828b01613b96565b91505092959891949750929550565b6020808252602e908201527f496e697469616c697a61626c653a20636f6e747261637420697320616c72656160408201526d191e481a5b9a5d1a585b1a5e995960921b606082015260800190565b634e487b7160e01b600052604160045260246000fd5b6040516060810167ffffffffffffffff81118282101715613ee857634e487b7160e01b600052604160045260246000fd5b60405290565b60028110610a4d57600080fd5b600060608284031215613f0d57600080fd5b613f15613eb7565b90508135613f2281613eee565b80825250602082013560208201526040820135604082015292915050565b600060a08284031215613f5257600080fd5b613f5a613eb7565b8235613f6581613a4b565b81526020830135613f7581613a4b565b6020820152613f878460408501613efb565b60408201529392505050565b600060608284031215613fa557600080fd5b6040516060810181811067ffffffffffffffff82111715613fd657634e487b7160e01b600052604160045260246000fd5b604052823560ff81168114613fea57600080fd5b8152602083810135908201526040928301359281019290925250919050565b634e487b7160e01b600052603260045260246000fd5b6000808335601e1984360301811261403657600080fd5b83018035915067ffffffffffffffff82111561405157600080fd5b6020019150600581901b360382131561136157600080fd5b60006060828403121561407b57600080fd5b614083613eb7565b9050813561409081613a4b565b815260208201356140a081613a4b565b806020830152506040820135604082015292915050565b600061016082840312156140ca57600080fd5b60405160a0810181811067ffffffffffffffff821117156140fb57634e487b7160e01b600052604160045260246000fd5b60405282358152602083013561411081613eee565b60208201526141228460408501614069565b60408201526141348460a08501614069565b6060820152614147846101008501613efb565b60808201529392505050565b803561415e81613a4b565b6001600160a01b03908116835260208201359061417a82613a4b565b166020830152604090810135910152565b6000610180820190508382528235602083015260208301356141ac81613eee565b6141b581613d3e565b806040840152506141cc6060830160408501614153565b6141dc60c0830160a08501614153565b6101206101008401356141ee81613eee565b6141f781613d3e565b81840152830135610140808401919091529092013561016090910152919050565b60006020828403121561422a57600080fd5b8135610ff981613eee565b60006060828403121561424757600080fd5b610ff98383613efb565b634e487b7160e01b600052601160045260246000fd5b81810381811115610a7657610a76614251565b8082028115828204841417610a7657610a76614251565b60208101600e83106142a5576142a5613d28565b91905290565b6000600182016142bd576142bd614251565b5060010190565b80516142cf81613d3e565b825260208181015190830152604090810151910152565b60006101808201905083825282516020830152602083015161430781613d3e565b6040838101919091528381015180516001600160a01b03908116606086015260208201511660808501529081015160a084015250606083015180516001600160a01b0390811660c085015260208201511660e0840152604081015161010084015250608083015161437c6101208401826142c4565b509392505050565b6001600160e01b03198316815260408101600983106143a5576143a5613d28565b8260208301529392505050565b6001600160e01b031991909116815260200190565b8183526000602080850194508260005b858110156144055781356143ea81613a4b565b6001600160a01b0316875295820195908201906001016143d7565b509495945050505050565b6040815260006144246040830186886143c7565b82810360208401528381526001600160fb1b0384111561444357600080fd5b8360051b80866020840137016020019695505050505050565b60608152600061447060608301888a6143c7565b60208382038185015261448482888a6143c7565b8481036040860152858152869250810160005b868110156144c55783356144aa81613eee565b6144b381613d3e565b82529282019290820190600101614497565b509a9950505050505050505050565b80820180821115610a7657610a76614251565b60008261450457634e487b7160e01b600052601260045260246000fd5b500490565b60006020828403121561451b57600080fd5b5051919050565b60005b8381101561453d578181015183820152602001614525565b50506000910152565b60008251614558818460208701614522565b9190910192915050565b60006020828403121561457457600080fd5b81518015158114610ff957600080fd5b60c0810161459282876142c4565b6001600160a01b0394851660608301529284166080820152921660a090920191909152919050565b7f416363657373436f6e74726f6c3a206163636f756e74200000000000000000008152600083516145f2816017850160208801614522565b7001034b99036b4b9b9b4b733903937b6329607d1b6017918401918201528351614623816028840160208801614522565b01602801949350505050565b602081526000825180602084015261464e816040850160208701614522565b601f01601f19169190910160400192915050565b60a0810161467082866142c4565b6001600160a01b03938416606083015291909216608090920191909152919050565b6000816146a1576146a1614251565b506000190190565b634e487b7160e01b600052603160045260246000fdfea164736f6c6343000811000a",
  "devdoc": {
    "errors": {
      "ErrContractTypeNotFound(uint8)": [
        {
          "details": "Error of invalid role."
        }
      ],
      "ErrERC20MintingFailed()": [
        {
          "details": "Error indicating that the minting of ERC20 tokens has failed."
        }
      ],
      "ErrERC721MintingFailed()": [
        {
          "details": "Error indicating that the minting of ERC721 tokens has failed."
        }
      ],
      "ErrEmptyArray()": [
        {
          "details": "Error indicating that an array is empty when it should contain elements."
        }
      ],
      "ErrInvalidChainId(bytes4,uint256,uint256)": [
        {
          "details": "Error indicating that the chain ID is invalid.",
          "params": {
            "actual": "Current chain ID that executing function.",
            "expected": "Expected chain ID required for the tx to success.",
            "msgSig": "The function signature (bytes4) of the operation that encountered an invalid chain ID."
          }
        }
      ],
      "ErrInvalidInfo()": [
        {
          "details": "Error indicating that the provided information is invalid."
        }
      ],
      "ErrInvalidOrder(bytes4)": [
        {
          "details": "Error indicating that an order is invalid.",
          "params": {
            "msgSig": "The function signature (bytes4) of the operation that encountered an invalid order."
          }
        }
      ],
      "ErrInvalidPercentage()": [
        {
          "details": "Error of invalid percentage."
        }
      ],
      "ErrInvalidReceipt()": [
        {
          "details": "Error indicating that a receipt is invalid."
        }
      ],
      "ErrInvalidReceiptKind()": [
        {
          "details": "Error indicating that a receipt kind is invalid."
        }
      ],
      "ErrInvalidRequest()": [
        {
          "details": "Error indicating that a request is invalid."
        }
      ],
      "ErrInvalidThreshold(bytes4)": [
        {
          "details": "Error indicating that the provided threshold is invalid for a specific function signature.",
          "params": {
            "msgSig": "The function signature (bytes4) that the invalid threshold applies to."
          }
        }
      ],
      "ErrInvalidTokenStandard()": [
        {
          "details": "Error indicating that a token standard is invalid."
        }
      ],
      "ErrLengthMismatch(bytes4)": [
        {
          "details": "Error indicating a mismatch in the length of input parameters or arrays for a specific function.",
          "params": {
            "msgSig": "The function signature (bytes4) that has a length mismatch."
          }
        }
      ],
      "ErrQueryForApprovedWithdrawal()": [
        {
          "details": "Error indicating that a query was made for an approved withdrawal."
        }
      ],
      "ErrQueryForInsufficientVoteWeight()": [
        {
          "details": "Error indicating that a query was made for insufficient vote weight."
        }
      ],
      "ErrQueryForProcessedWithdrawal()": [
        {
          "details": "Error indicating that a query was made for a processed withdrawal."
        }
      ],
      "ErrReachedDailyWithdrawalLimit()": [
        {
          "details": "Error indicating that the daily withdrawal limit has been reached."
        }
      ],
      "ErrTokenCouldNotTransfer((uint8,uint256,uint256),address,address)": [
        {
          "details": "Error indicating that the `transfer` has failed.",
          "params": {
            "to": "Receiver of the token value.",
            "token": "Address of the token.",
            "tokenInfo": "Info of the token including ERC standard, id or quantity."
          }
        }
      ],
      "ErrTokenCouldNotTransferFrom((uint8,uint256,uint256),address,address,address)": [
        {
          "details": "Error indicating that the `transferFrom` has failed.",
          "params": {
            "from": "Owner of the token value.",
            "to": "Receiver of the token value.",
            "token": "Address of the token.",
            "tokenInfo": "Info of the token including ERC standard, id or quantity."
          }
        }
      ],
      "ErrUnauthorized(bytes4,uint8)": [
        {
          "details": "Error indicating that the caller is unauthorized to perform a specific function.",
          "params": {
            "expectedRole": "The role required to perform the function.",
            "msgSig": "The function signature (bytes4) that the caller is unauthorized to perform."
          }
        }
      ],
      "ErrUnsupportedStandard()": [
        {
          "details": "Error indicating that an unsupported standard is encountered."
        }
      ],
      "ErrUnsupportedToken()": [
        {
          "details": "Error indicating that a token is not supported."
        }
      ],
      "ErrZeroCodeContract(address)": [
        {
          "details": "Error of set to non-contract."
        }
      ]
    },
    "kind": "dev",
    "methods": {
      "DOMAIN_SEPARATOR()": {
        "details": "Returns the domain seperator."
      },
      "checkHighTierVoteWeightThreshold(uint256)": {
        "details": "Checks whether the `_voteWeight` passes the high-tier vote weight threshold."
      },
      "checkThreshold(uint256)": {
        "details": "Checks whether the `_voteWeight` passes the threshold."
      },
      "getContract(uint8)": {
        "details": "Returns the address of a contract with a specific role. Throws an error if no contract is set for the specified role.",
        "params": {
          "contractType": "The role of the contract to retrieve."
        },
        "returns": {
          "contract_": "The address of the contract with the specified role."
        }
      },
      "getHighTierVoteWeightThreshold()": {
        "details": "Returns the high-tier vote weight threshold."
      },
      "getRoleAdmin(bytes32)": {
        "details": "Returns the admin role that controls `role`. See {grantRole} and {revokeRole}. To change a role's admin, use {_setRoleAdmin}."
      },
      "getRoleMember(bytes32,uint256)": {
        "details": "Returns one of the accounts that have `role`. `index` must be a value between 0 and {getRoleMemberCount}, non-inclusive. Role bearers are not sorted in any particular way, and their ordering may change at any point. WARNING: When using {getRoleMember} and {getRoleMemberCount}, make sure you perform all queries on the same block. See the following https://forum.openzeppelin.com/t/iterating-over-elements-on-enumerableset-in-openzeppelin-contracts/2296[forum post] for more information."
      },
      "getRoleMemberCount(bytes32)": {
        "details": "Returns the number of accounts that have `role`. Can be used together with {getRoleMember} to enumerate all bearers of a role."
      },
      "getRoninToken(address)": {
        "details": "Returns token address on Ronin network. Note: Reverts for unsupported token."
      },
      "getThreshold()": {
        "details": "Returns the threshold."
      },
      "grantRole(bytes32,address)": {
        "details": "Grants `role` to `account`. If `account` had not been already granted `role`, emits a {RoleGranted} event. Requirements: - the caller must have ``role``'s admin role. May emit a {RoleGranted} event."
      },
      "hasRole(bytes32,address)": {
        "details": "Returns `true` if `account` has been granted `role`."
      },
      "initialize(address,address,uint256,uint256,uint256,uint256,address[][3],uint256[][4],uint8[])": {
        "details": "Initializes contract storage."
      },
      "mapTokens(address[],address[],uint8[])": {
        "details": "Maps mainchain tokens to Ronin network. Requirement: - The method caller is admin. - The arrays have the same length and its length larger than 0. Emits the `TokenMapped` event."
      },
      "mapTokensAndThresholds(address[],address[],uint8[],uint256[][4])": {
        "details": "Maps mainchain tokens to Ronin network and sets thresholds. Requirement: - The method caller is admin. - The arrays have the same length and its length larger than 0. Emits the `TokenMapped` event."
      },
      "minimumVoteWeight()": {
        "details": "Returns the minimum vote weight to pass the threshold."
      },
      "pause()": {
        "details": "Triggers paused state."
      },
      "paused()": {
        "details": "Returns true if the contract is paused, and false otherwise."
      },
      "reachedWithdrawalLimit(address,uint256)": {
        "details": "Checks whether the withdrawal reaches the limitation."
      },
      "receiveEther()": {
        "details": "Receives ether without doing anything. Use this function to topup native token."
      },
      "renounceRole(bytes32,address)": {
        "details": "Revokes `role` from the calling account. Roles are often managed via {grantRole} and {revokeRole}: this function's purpose is to provide a mechanism for accounts to lose their privileges if they are compromised (such as when a trusted device is misplaced). If the calling account had been revoked `role`, emits a {RoleRevoked} event. Requirements: - the caller must be `account`. May emit a {RoleRevoked} event."
      },
      "requestDepositFor((address,address,(uint8,uint256,uint256)))": {
        "details": "Locks the assets and request deposit."
      },
      "revokeRole(bytes32,address)": {
        "details": "Revokes `role` from `account`. If `account` had been granted `role`, emits a {RoleRevoked} event. Requirements: - the caller must have ``role``'s admin role. May emit a {RoleRevoked} event."
      },
      "setContract(uint8,address)": {
        "details": "Sets the address of a contract with a specific role. Emits the event {ContractUpdated}.",
        "params": {
          "addr": "The address of the contract to set.",
          "contractType": "The role of the contract to set."
        }
      },
      "setDailyWithdrawalLimits(address[],uint256[])": {
        "details": "Sets daily limit amounts for the withdrawals. Requirements: - The method caller is admin. - The arrays have the same length and its length larger than 0. Emits the `DailyWithdrawalLimitsUpdated` event."
      },
      "setEmergencyPauser(address)": {
        "details": "Grant emergency pauser role for `_addr`."
      },
      "setHighTierThresholds(address[],uint256[])": {
        "details": "Sets the thresholds for high-tier withdrawals that requires high-tier vote weights. Requirements: - The method caller is admin. - The arrays have the same length and its length larger than 0. Emits the `HighTierThresholdsUpdated` event."
      },
      "setHighTierVoteWeightThreshold(uint256,uint256)": {
        "details": "Sets high-tier vote weight threshold and returns the old one. Requirements: - The method caller is admin. - The high-tier vote weight threshold must equal to or larger than the normal threshold. Emits the `HighTierVoteWeightThresholdUpdated` event."
      },
      "setLockedThresholds(address[],uint256[])": {
        "details": "Sets the amount thresholds to lock withdrawal. Requirements: - The method caller is admin. - The arrays have the same length and its length larger than 0. Emits the `LockedThresholdsUpdated` event."
      },
      "setThreshold(uint256,uint256)": {
        "details": "Override `GatewayV2-setThreshold`. Requirements: - The high-tier vote weight threshold must equal to or larger than the normal threshold."
      },
      "setUnlockFeePercentages(address[],uint256[])": {
        "details": "Sets fee percentages to unlock withdrawal. Requirements: - The method caller is admin. - The arrays have the same length and its length larger than 0. Emits the `UnlockFeePercentagesUpdated` event."
      },
      "setWrappedNativeTokenContract(address)": {
        "details": "Sets the wrapped native token contract. Requirements: - The method caller is admin. Emits the `WrappedNativeTokenContractUpdated` event."
      },
      "submitWithdrawal((uint256,uint8,(address,address,uint256),(address,address,uint256),(uint8,uint256,uint256)),(uint8,bytes32,bytes32)[])": {
        "details": "Withdraws based on the receipt and the validator signatures. Returns whether the withdrawal is locked. Emits the `Withdrew` once the assets are released."
      },
      "supportsInterface(bytes4)": {
        "details": "See {IERC165-supportsInterface}."
      },
      "unlockWithdrawal((uint256,uint8,(address,address,uint256),(address,address,uint256),(uint8,uint256,uint256)))": {
        "details": "Approves a specific withdrawal. Requirements: - The method caller is a validator. Emits the `Withdrew` once the assets are released."
      },
      "unpause()": {
        "details": "Triggers unpaused state."
      }
    },
    "stateVariables": {
      "WITHDRAWAL_UNLOCKER_ROLE": {
        "details": "Withdrawal unlocker role hash"
      },
      "______deprecatedBridgeOperatorAddedBlock": {
        "custom:deprecated": "Previously `_bridgeOperatorAddedBlock` (mapping(address => uint256))"
      },
      "______deprecatedBridgeOperators": {
        "custom:deprecated": "Previously `_bridgeOperators` (uint256[])"
      },
      "_domainSeparator": {
        "details": "Domain seperator"
      },
      "_roninToken": {
        "details": "Mapping from mainchain token => token address on Ronin network"
      },
      "depositCount": {
        "details": "Total deposit"
      },
      "roninChainId": {
        "details": "Ronin network id"
      },
      "withdrawalHash": {
        "details": "Mapping from withdrawal id => withdrawal hash"
      },
      "withdrawalLocked": {
        "details": "Mapping from withdrawal id => locked"
      },
      "wrappedNativeToken": {
        "details": "Wrapped native token address"
      }
    },
    "version": 1
  },
  "userdoc": {
    "kind": "user",
    "methods": {
      "unlockFeePercentages(address)": {
        "notice": "Values 0-1,000,000 map to 0%-100%"
      }
    },
    "version": 1
  },
  "storageLayout": {
    "storage": [
      {
        "astId": 1535,
        "contract": "contracts/mainchain/MainchainGatewayV2.sol:MainchainGatewayV2",
        "label": "_paused",
        "offset": 0,
        "slot": "0",
        "type": "t_bool"
      },
      {
        "astId": 4326,
        "contract": "contracts/mainchain/MainchainGatewayV2.sol:MainchainGatewayV2",
        "label": "_num",
        "offset": 0,
        "slot": "1",
        "type": "t_uint256"
      },
      {
        "astId": 4328,
        "contract": "contracts/mainchain/MainchainGatewayV2.sol:MainchainGatewayV2",
        "label": "_denom",
        "offset": 0,
        "slot": "2",
        "type": "t_uint256"
      },
      {
        "astId": 4330,
        "contract": "contracts/mainchain/MainchainGatewayV2.sol:MainchainGatewayV2",
        "label": "______deprecated",
        "offset": 0,
        "slot": "3",
        "type": "t_address"
      },
      {
        "astId": 4332,
        "contract": "contracts/mainchain/MainchainGatewayV2.sol:MainchainGatewayV2",
        "label": "nonce",
        "offset": 0,
        "slot": "4",
        "type": "t_uint256"
      },
      {
        "astId": 4334,
        "contract": "contracts/mainchain/MainchainGatewayV2.sol:MainchainGatewayV2",
        "label": "emergencyPauser",
        "offset": 0,
        "slot": "5",
        "type": "t_address"
      },
      {
        "astId": 4339,
        "contract": "contracts/mainchain/MainchainGatewayV2.sol:MainchainGatewayV2",
        "label": "______gap",
        "offset": 0,
        "slot": "6",
        "type": "t_array(t_uint256)49_storage"
      },
      {
        "astId": 5194,
        "contract": "contracts/mainchain/MainchainGatewayV2.sol:MainchainGatewayV2",
        "label": "_highTierVWNum",
        "offset": 0,
        "slot": "55",
        "type": "t_uint256"
      },
      {
        "astId": 5196,
        "contract": "contracts/mainchain/MainchainGatewayV2.sol:MainchainGatewayV2",
        "label": "_highTierVWDenom",
        "offset": 0,
        "slot": "56",
        "type": "t_uint256"
      },
      {
        "astId": 5201,
        "contract": "contracts/mainchain/MainchainGatewayV2.sol:MainchainGatewayV2",
        "label": "highTierThreshold",
        "offset": 0,
        "slot": "57",
        "type": "t_mapping(t_address,t_uint256)"
      },
      {
        "astId": 5206,
        "contract": "contracts/mainchain/MainchainGatewayV2.sol:MainchainGatewayV2",
        "label": "lockedThreshold",
        "offset": 0,
        "slot": "58",
        "type": "t_mapping(t_address,t_uint256)"
      },
      {
        "astId": 5211,
        "contract": "contracts/mainchain/MainchainGatewayV2.sol:MainchainGatewayV2",
        "label": "unlockFeePercentages",
        "offset": 0,
        "slot": "59",
        "type": "t_mapping(t_address,t_uint256)"
      },
      {
        "astId": 5216,
        "contract": "contracts/mainchain/MainchainGatewayV2.sol:MainchainGatewayV2",
        "label": "dailyWithdrawalLimit",
        "offset": 0,
        "slot": "60",
        "type": "t_mapping(t_address,t_uint256)"
      },
      {
        "astId": 5221,
        "contract": "contracts/mainchain/MainchainGatewayV2.sol:MainchainGatewayV2",
        "label": "lastSyncedWithdrawal",
        "offset": 0,
        "slot": "61",
        "type": "t_mapping(t_address,t_uint256)"
      },
      {
        "astId": 5226,
        "contract": "contracts/mainchain/MainchainGatewayV2.sol:MainchainGatewayV2",
        "label": "lastDateSynced",
        "offset": 0,
        "slot": "62",
        "type": "t_mapping(t_address,t_uint256)"
      },
      {
        "astId": 5231,
        "contract": "contracts/mainchain/MainchainGatewayV2.sol:MainchainGatewayV2",
        "label": "______gap",
        "offset": 0,
        "slot": "63",
        "type": "t_array(t_uint256)50_storage"
      },
      {
        "astId": 1373,
        "contract": "contracts/mainchain/MainchainGatewayV2.sol:MainchainGatewayV2",
        "label": "_initialized",
        "offset": 0,
        "slot": "113",
        "type": "t_uint8"
      },
      {
        "astId": 1376,
        "contract": "contracts/mainchain/MainchainGatewayV2.sol:MainchainGatewayV2",
        "label": "_initializing",
        "offset": 1,
        "slot": "113",
        "type": "t_bool"
      },
      {
        "astId": 24,
        "contract": "contracts/mainchain/MainchainGatewayV2.sol:MainchainGatewayV2",
        "label": "_roles",
        "offset": 0,
        "slot": "114",
        "type": "t_mapping(t_bytes32,t_struct(RoleData)19_storage)"
      },
      {
        "astId": 338,
        "contract": "contracts/mainchain/MainchainGatewayV2.sol:MainchainGatewayV2",
        "label": "_roleMembers",
        "offset": 0,
        "slot": "115",
        "type": "t_mapping(t_bytes32,t_struct(AddressSet)4026_storage)"
      },
      {
        "astId": 16919,
        "contract": "contracts/mainchain/MainchainGatewayV2.sol:MainchainGatewayV2",
        "label": "wrappedNativeToken",
        "offset": 0,
        "slot": "116",
        "type": "t_contract(IWETH)12074"
      },
      {
        "astId": 16922,
        "contract": "contracts/mainchain/MainchainGatewayV2.sol:MainchainGatewayV2",
        "label": "roninChainId",
        "offset": 0,
        "slot": "117",
        "type": "t_uint256"
      },
      {
        "astId": 16925,
        "contract": "contracts/mainchain/MainchainGatewayV2.sol:MainchainGatewayV2",
        "label": "depositCount",
        "offset": 0,
        "slot": "118",
        "type": "t_uint256"
      },
      {
        "astId": 16928,
        "contract": "contracts/mainchain/MainchainGatewayV2.sol:MainchainGatewayV2",
        "label": "_domainSeparator",
        "offset": 0,
        "slot": "119",
        "type": "t_bytes32"
      },
      {
        "astId": 16934,
        "contract": "contracts/mainchain/MainchainGatewayV2.sol:MainchainGatewayV2",
        "label": "_roninToken",
        "offset": 0,
        "slot": "120",
        "type": "t_mapping(t_address,t_struct(MappedToken)12724_storage)"
      },
      {
        "astId": 16939,
        "contract": "contracts/mainchain/MainchainGatewayV2.sol:MainchainGatewayV2",
        "label": "withdrawalHash",
        "offset": 0,
        "slot": "121",
        "type": "t_mapping(t_uint256,t_bytes32)"
      },
      {
        "astId": 16944,
        "contract": "contracts/mainchain/MainchainGatewayV2.sol:MainchainGatewayV2",
        "label": "withdrawalLocked",
        "offset": 0,
        "slot": "122",
        "type": "t_mapping(t_uint256,t_bool)"
      },
      {
        "astId": 16947,
        "contract": "contracts/mainchain/MainchainGatewayV2.sol:MainchainGatewayV2",
        "label": "______deprecatedBridgeOperatorAddedBlock",
        "offset": 0,
        "slot": "123",
        "type": "t_uint256"
      },
      {
        "astId": 16950,
        "contract": "contracts/mainchain/MainchainGatewayV2.sol:MainchainGatewayV2",
        "label": "______deprecatedBridgeOperators",
        "offset": 0,
        "slot": "124",
        "type": "t_uint256"
      }
    ],
    "types": {
      "t_address": {
        "encoding": "inplace",
        "label": "address",
        "numberOfBytes": "20"
      },
      "t_array(t_bytes32)dyn_storage": {
        "base": "t_bytes32",
        "encoding": "dynamic_array",
        "label": "bytes32[]",
        "numberOfBytes": "32"
      },
      "t_array(t_uint256)49_storage": {
        "base": "t_uint256",
        "encoding": "inplace",
        "label": "uint256[49]",
        "numberOfBytes": "1568"
      },
      "t_array(t_uint256)50_storage": {
        "base": "t_uint256",
        "encoding": "inplace",
        "label": "uint256[50]",
        "numberOfBytes": "1600"
      },
      "t_bool": {
        "encoding": "inplace",
        "label": "bool",
        "numberOfBytes": "1"
      },
      "t_bytes32": {
        "encoding": "inplace",
        "label": "bytes32",
        "numberOfBytes": "32"
      },
      "t_contract(IWETH)12074": {
        "encoding": "inplace",
        "label": "contract IWETH",
        "numberOfBytes": "20"
      },
      "t_enum(Standard)15941": {
        "encoding": "inplace",
        "label": "enum Token.Standard",
        "numberOfBytes": "1"
      },
      "t_mapping(t_address,t_bool)": {
        "encoding": "mapping",
        "key": "t_address",
        "label": "mapping(address => bool)",
        "numberOfBytes": "32",
        "value": "t_bool"
      },
      "t_mapping(t_address,t_struct(MappedToken)12724_storage)": {
        "encoding": "mapping",
        "key": "t_address",
        "label": "mapping(address => struct MappedTokenConsumer.MappedToken)",
        "numberOfBytes": "32",
        "value": "t_struct(MappedToken)12724_storage"
      },
      "t_mapping(t_address,t_uint256)": {
        "encoding": "mapping",
        "key": "t_address",
        "label": "mapping(address => uint256)",
        "numberOfBytes": "32",
        "value": "t_uint256"
      },
      "t_mapping(t_bytes32,t_struct(AddressSet)4026_storage)": {
        "encoding": "mapping",
        "key": "t_bytes32",
        "label": "mapping(bytes32 => struct EnumerableSet.AddressSet)",
        "numberOfBytes": "32",
        "value": "t_struct(AddressSet)4026_storage"
      },
      "t_mapping(t_bytes32,t_struct(RoleData)19_storage)": {
        "encoding": "mapping",
        "key": "t_bytes32",
        "label": "mapping(bytes32 => struct AccessControl.RoleData)",
        "numberOfBytes": "32",
        "value": "t_struct(RoleData)19_storage"
      },
      "t_mapping(t_bytes32,t_uint256)": {
        "encoding": "mapping",
        "key": "t_bytes32",
        "label": "mapping(bytes32 => uint256)",
        "numberOfBytes": "32",
        "value": "t_uint256"
      },
      "t_mapping(t_uint256,t_bool)": {
        "encoding": "mapping",
        "key": "t_uint256",
        "label": "mapping(uint256 => bool)",
        "numberOfBytes": "32",
        "value": "t_bool"
      },
      "t_mapping(t_uint256,t_bytes32)": {
        "encoding": "mapping",
        "key": "t_uint256",
        "label": "mapping(uint256 => bytes32)",
        "numberOfBytes": "32",
        "value": "t_bytes32"
      },
      "t_struct(AddressSet)4026_storage": {
        "encoding": "inplace",
        "label": "struct EnumerableSet.AddressSet",
        "members": [
          {
            "astId": 4025,
            "contract": "contracts/mainchain/MainchainGatewayV2.sol:MainchainGatewayV2",
            "label": "_inner",
            "offset": 0,
            "slot": "0",
            "type": "t_struct(Set)3725_storage"
          }
        ],
        "numberOfBytes": "64"
      },
      "t_struct(MappedToken)12724_storage": {
        "encoding": "inplace",
        "label": "struct MappedTokenConsumer.MappedToken",
        "members": [
          {
            "astId": 12721,
            "contract": "contracts/mainchain/MainchainGatewayV2.sol:MainchainGatewayV2",
            "label": "erc",
            "offset": 0,
            "slot": "0",
            "type": "t_enum(Standard)15941"
          },
          {
            "astId": 12723,
            "contract": "contracts/mainchain/MainchainGatewayV2.sol:MainchainGatewayV2",
            "label": "tokenAddr",
            "offset": 1,
            "slot": "0",
            "type": "t_address"
          }
        ],
        "numberOfBytes": "32"
      },
      "t_struct(RoleData)19_storage": {
        "encoding": "inplace",
        "label": "struct AccessControl.RoleData",
        "members": [
          {
            "astId": 16,
            "contract": "contracts/mainchain/MainchainGatewayV2.sol:MainchainGatewayV2",
            "label": "members",
            "offset": 0,
            "slot": "0",
            "type": "t_mapping(t_address,t_bool)"
          },
          {
            "astId": 18,
            "contract": "contracts/mainchain/MainchainGatewayV2.sol:MainchainGatewayV2",
            "label": "adminRole",
            "offset": 0,
            "slot": "1",
            "type": "t_bytes32"
          }
        ],
        "numberOfBytes": "64"
      },
      "t_struct(Set)3725_storage": {
        "encoding": "inplace",
        "label": "struct EnumerableSet.Set",
        "members": [
          {
            "astId": 3720,
            "contract": "contracts/mainchain/MainchainGatewayV2.sol:MainchainGatewayV2",
            "label": "_values",
            "offset": 0,
            "slot": "0",
            "type": "t_array(t_bytes32)dyn_storage"
          },
          {
            "astId": 3724,
            "contract": "contracts/mainchain/MainchainGatewayV2.sol:MainchainGatewayV2",
            "label": "_indexes",
            "offset": 0,
            "slot": "1",
            "type": "t_mapping(t_bytes32,t_uint256)"
          }
        ],
        "numberOfBytes": "64"
      },
      "t_uint256": {
        "encoding": "inplace",
        "label": "uint256",
        "numberOfBytes": "32"
      },
      "t_uint8": {
        "encoding": "inplace",
        "label": "uint8",
        "numberOfBytes": "1"
      }
    }
  }
}