{
  "address": "0xCb60838d271E963031790905685fa9388c5Af095",
  "abi": [
    {
      "inputs": [],
      "stateMutability": "nonpayable",
      "type": "constructor"
    },
    {
      "anonymous": false,
      "inputs": [
        {
          "indexed": false,
          "internalType": "address",
          "name": "",
          "type": "address"
        }
      ],
      "name": "BridgeContractUpdated",
      "type": "event"
    },
    {
      "anonymous": false,
      "inputs": [
        {
          "indexed": false,
          "internalType": "uint8",
          "name": "version",
          "type": "uint8"
        }
      ],
      "name": "Initialized",
      "type": "event"
    },
    {
      "anonymous": false,
      "inputs": [
        {
          "indexed": false,
          "internalType": "address",
          "name": "",
          "type": "address"
        }
      ],
      "name": "ValidatorContractUpdated",
      "type": "event"
    },
    {
      "inputs": [],
      "name": "bridgeContract",
      "outputs": [
        {
          "internalType": "address",
          "name": "",
          "type": "address"
        }
      ],
      "stateMutability": "view",
      "type": "function"
    },
    {
      "inputs": [
        {
          "internalType": "uint256",
          "name": "_period",
          "type": "uint256"
        },
        {
          "internalType": "address[]",
          "name": "_bridgeOperators",
          "type": "address[]"
        }
      ],
      "name": "bulkTotalBallotsOf",
      "outputs": [
        {
          "internalType": "uint256[]",
          "name": "_res",
          "type": "uint256[]"
        }
      ],
      "stateMutability": "view",
      "type": "function"
    },
    {
      "inputs": [
        {
          "internalType": "enum IBridgeTracking.VoteKind",
          "name": "_kind",
          "type": "uint8"
        },
        {
          "internalType": "uint256",
          "name": "_requestId",
          "type": "uint256"
        }
      ],
      "name": "handleVoteApproved",
      "outputs": [],
      "stateMutability": "nonpayable",
      "type": "function"
    },
    {
      "inputs": [
        {
          "internalType": "address",
          "name": "_bridgeContract",
          "type": "address"
        },
        {
          "internalType": "address",
          "name": "_validatorContract",
          "type": "address"
        },
        {
          "internalType": "uint256",
          "name": "_startedAtBlock",
          "type": "uint256"
        }
      ],
      "name": "initialize",
      "outputs": [],
      "stateMutability": "nonpayable",
      "type": "function"
    },
    {
      "inputs": [
        {
          "internalType": "enum IBridgeTracking.VoteKind",
          "name": "_kind",
          "type": "uint8"
        },
        {
          "internalType": "uint256",
          "name": "_requestId",
          "type": "uint256"
        },
        {
          "internalType": "address",
          "name": "_operator",
          "type": "address"
        }
      ],
      "name": "recordVote",
      "outputs": [],
      "stateMutability": "nonpayable",
      "type": "function"
    },
    {
      "inputs": [
        {
          "internalType": "address",
          "name": "_addr",
          "type": "address"
        }
      ],
      "name": "setBridgeContract",
      "outputs": [],
      "stateMutability": "nonpayable",
      "type": "function"
    },
    {
      "inputs": [
        {
          "internalType": "address",
          "name": "_addr",
          "type": "address"
        }
      ],
      "name": "setValidatorContract",
      "outputs": [],
      "stateMutability": "nonpayable",
      "type": "function"
    },
    {
      "inputs": [],
      "name": "startedAtBlock",
      "outputs": [
        {
          "internalType": "uint256",
          "name": "",
          "type": "uint256"
        }
      ],
      "stateMutability": "view",
      "type": "function"
    },
    {
      "inputs": [
        {
          "internalType": "uint256",
          "name": "_period",
          "type": "uint256"
        }
      ],
      "name": "totalBallots",
      "outputs": [
        {
          "internalType": "uint256",
          "name": "",
          "type": "uint256"
        }
      ],
      "stateMutability": "view",
      "type": "function"
    },
    {
      "inputs": [
        {
          "internalType": "uint256",
          "name": "_period",
          "type": "uint256"
        },
        {
          "internalType": "address",
          "name": "_bridgeOperator",
          "type": "address"
        }
      ],
      "name": "totalBallotsOf",
      "outputs": [
        {
          "internalType": "uint256",
          "name": "",
          "type": "uint256"
        }
      ],
      "stateMutability": "view",
      "type": "function"
    },
    {
      "inputs": [
        {
          "internalType": "uint256",
          "name": "_period",
          "type": "uint256"
        }
      ],
      "name": "totalVotes",
      "outputs": [
        {
          "internalType": "uint256",
          "name": "",
          "type": "uint256"
        }
      ],
      "stateMutability": "view",
      "type": "function"
    },
    {
      "inputs": [],
      "name": "validatorContract",
      "outputs": [
        {
          "internalType": "address",
          "name": "",
          "type": "address"
        }
      ],
      "stateMutability": "view",
      "type": "function"
    }
  ],
  "transactionHash": "0xf8666cdd544066f2d273a94951cf8bb9bda9cfbc41cd591be3c7dd08160495a3",
  "args": [],
  "numDeployments": 1,
  "solcInputHash": "2dccd829348aefebbef587667549cd38",
  "bytecode": "0x608060405234801561001057600080fd5b5061001961001e565b6100eb565b600154600160a81b900460ff161561008c5760405162461bcd60e51b815260206004820152602760248201527f496e697469616c697a61626c653a20636f6e747261637420697320696e697469604482015266616c697a696e6760c81b606482015260840160405180910390fd5b60015460ff600160a01b909104811610156100e9576001805460ff60a01b191660ff60a01b17905560405160ff81527f7f26b83ff96e1f2b6a682f133852f6798a09c465da95921460cefb38474024989060200160405180910390a15b565b610eed806100fa6000396000f3fe608060405234801561001057600080fd5b50600436106100b45760003560e01c8063889998ef11610071578063889998ef1461017d578063994390891461019d578063c7c4fea9146101c2578063cd596583146101d5578063cdf64a76146101e6578063f84bd121146101f957600080fd5b806304375dcf146100b95780630b26cf66146101025780631794bb3c1461011757806319e6e1581461012a578063229f88ea1461014a57806357daa1701461015d575b600080fd5b6100ef6100c7366004610bb9565b60009182526004602090815260408084206001600160a01b0393909316845291905290205490565b6040519081526020015b60405180910390f35b610115610110366004610be5565b610202565b005b610115610125366004610c07565b6102c9565b6100ef610138366004610c43565b60009081526002602052604090205490565b610115610158366004610c6b565b610403565b61017061016b366004610c95565b610673565b6040516100f99190610d14565b6100ef61018b366004610c43565b60009081526003602052604090205490565b6001546001600160a01b03165b6040516001600160a01b0390911681526020016100f9565b6101156101d0366004610d58565b610727565b6000546001600160a01b03166101aa565b6101156101f4366004610be5565b6108e7565b6100ef60085481565b7fb53127684a568b3173ae13b9f8a6016e243e63b6e8ee1178d6a717850b5d6103546001600160a01b031633146102545760405162461bcd60e51b815260040161024b90610d94565b60405180910390fd5b6000816001600160a01b03163b116102bd5760405162461bcd60e51b815260206004820152602660248201527f486173427269646765436f6e74726163743a2073657420746f206e6f6e2d636f6044820152651b9d1c9858dd60d21b606482015260840161024b565b6102c6816109a5565b50565b600154600160a81b900460ff16158080156102ef575060018054600160a01b900460ff16105b8061030f5750303b15801561030f575060018054600160a01b900460ff16145b6103725760405162461bcd60e51b815260206004820152602e60248201527f496e697469616c697a61626c653a20636f6e747261637420697320616c72656160448201526d191e481a5b9a5d1a585b1a5e995960921b606482015260840161024b565b6001805460ff60a01b1916600160a01b179055801561039f576001805460ff60a81b1916600160a81b1790555b6103a8846109a5565b6103b1836109fa565b600882905580156103fd576001805460ff60a81b191681556040519081527f7f26b83ff96e1f2b6a682f133852f6798a09c465da95921460cefb38474024989060200160405180910390a15b50505050565b336104166000546001600160a01b031690565b6001600160a01b03161461043c5760405162461bcd60e51b815260040161024b90610dd6565b60085443101561044a575050565b6005600083600281111561046057610460610e33565b600281111561047157610471610e33565b81526020019081526020016000206000828152602001908152602001600020546000141561066f576001546040805162c080c360e31b815290516000926001600160a01b0316916306040618916004808301926020929190829003018186803b1580156104dd57600080fd5b505afa1580156104f1573d6000803e3d6000fd5b505050506040513d601f19601f820116820180604052508101906105159190610e49565b600081815260026020526040812080549293509061053283610e62565b9190505550806005600085600281111561054e5761054e610e33565b600281111561055f5761055f610e33565b815260200190815260200160002060008481526020019081526020016000208190555060006006600085600281111561059a5761059a610e33565b60028111156105ab576105ab610e33565b81526020019081526020016000206000848152602001908152602001600020905060005b815481101561061c5761060a85858484815481106105ef576105ef610e8b565b6000918252602090912001546001600160a01b031686610a48565b8061061481610e62565b9150506105cf565b506006600085600281111561063357610633610e33565b600281111561064457610644610e33565b8152602001908152602001600020600084815260200190815260200160002060006103fd9190610b6b565b5050565b60608167ffffffffffffffff81111561068e5761068e610ea1565b6040519080825280602002602001820160405280156106b7578160200160208202803683370190505b50905060005b8281101561071f576106f0858585848181106106db576106db610e8b565b90506020020160208101906100c79190610be5565b82828151811061070257610702610e8b565b60209081029190910101528061071781610e62565b9150506106bd565b509392505050565b3361073a6000546001600160a01b031690565b6001600160a01b0316146107605760405162461bcd60e51b815260040161024b90610dd6565b60085443101561076f57505050565b60006005600085600281111561078757610787610e33565b600281111561079857610798610e33565b81526020019081526020016000206000848152602001908152602001600020549050806000141561084e5760018460028111156107d7576107d7610e33565b146103fd57600660008560028111156107f2576107f2610e33565b600281111561080357610803610e33565b815260208082019290925260409081016000908120868252835290812080546001810182559082529190200180546001600160a01b0319166001600160a01b03841617905550505050565b6001546040805162c080c360e31b815290516000926001600160a01b0316916306040618916004808301926020929190829003018186803b15801561089257600080fd5b505afa1580156108a6573d6000803e3d6000fd5b505050506040513d601f19601f820116820180604052508101906108ca9190610e49565b9050808214156108e0576108e085858584610a48565b5050505050565b7fb53127684a568b3173ae13b9f8a6016e243e63b6e8ee1178d6a717850b5d6103546001600160a01b031633146109305760405162461bcd60e51b815260040161024b90610d94565b6000816001600160a01b03163b1161099c5760405162461bcd60e51b815260206004820152602960248201527f48617356616c696461746f72436f6e74726163743a2073657420746f206e6f6e6044820152680b58dbdb9d1c9858dd60ba1b606482015260840161024b565b6102c6816109fa565b600080546001600160a01b0319166001600160a01b0383169081179091556040519081527f5cbd8a0bb00196365d5eb3457c6734e7f06666c3c78e5469b4c9deec7edae048906020015b60405180910390a150565b600180546001600160a01b0319166001600160a01b0383169081179091556040519081527fef40dc07567635f84f5edbd2f8dbc16b40d9d282dd8e7e6f4ff58236b6836169906020016109ef565b60076000856002811115610a5e57610a5e610e33565b6002811115610a6f57610a6f610e33565b81526020808201929092526040908101600090812086825283528181206001600160a01b038616825290925290205460ff1615610aab576103fd565b6000818152600360205260408120805491610ac583610e62565b909155505060008181526004602090815260408083206001600160a01b03861684529091528120805491610af883610e62565b9190505550600160076000866002811115610b1557610b15610e33565b6002811115610b2657610b26610e33565b81526020808201929092526040908101600090812087825283528181206001600160a01b03871682529092529020805491151560ff1990921691909117905550505050565b50805460008255906000526020600020908101906102c691905b80821115610b995760008155600101610b85565b5090565b80356001600160a01b0381168114610bb457600080fd5b919050565b60008060408385031215610bcc57600080fd5b82359150610bdc60208401610b9d565b90509250929050565b600060208284031215610bf757600080fd5b610c0082610b9d565b9392505050565b600080600060608486031215610c1c57600080fd5b610c2584610b9d565b9250610c3360208501610b9d565b9150604084013590509250925092565b600060208284031215610c5557600080fd5b5035919050565b803560038110610bb457600080fd5b60008060408385031215610c7e57600080fd5b610c8783610c5c565b946020939093013593505050565b600080600060408486031215610caa57600080fd5b83359250602084013567ffffffffffffffff80821115610cc957600080fd5b818601915086601f830112610cdd57600080fd5b813581811115610cec57600080fd5b8760208260051b8501011115610d0157600080fd5b6020830194508093505050509250925092565b6020808252825182820181905260009190848201906040850190845b81811015610d4c57835183529284019291840191600101610d30565b50909695505050505050565b600080600060608486031215610d6d57600080fd5b610d7684610c5c565b925060208401359150610d8b60408501610b9d565b90509250925092565b60208082526022908201527f48617350726f787941646d696e3a20756e617574686f72697a65642073656e6460408201526132b960f11b606082015260800190565b60208082526038908201527f486173427269646765436f6e74726163743a206d6574686f642063616c6c657260408201527f206d7573742062652062726964676520636f6e74726163740000000000000000606082015260800190565b634e487b7160e01b600052602160045260246000fd5b600060208284031215610e5b57600080fd5b5051919050565b6000600019821415610e8457634e487b7160e01b600052601160045260246000fd5b5060010190565b634e487b7160e01b600052603260045260246000fd5b634e487b7160e01b600052604160045260246000fdfea264697066735822122045115f874c9d7bd478154ec303dfa976aa5c4f9a0e911b1ef70780c92cbd4f3764736f6c63430008090033",
  "devdoc": {
    "kind": "dev",
    "methods": {
      "bridgeContract()": {
        "details": "Returns the bridge contract."
      },
      "bulkTotalBallotsOf(uint256,address[])": {
        "details": "Returns the total number of ballots of bridge operators at the specific period `_period`."
      },
      "handleVoteApproved(uint8,uint256)": {
        "details": "Handles the request once it is approved. Requirements: - The method caller is the bridge contract."
      },
      "initialize(address,address,uint256)": {
        "details": "Initializes the contract storage."
      },
      "recordVote(uint8,uint256,address)": {
        "details": "Records vote for a receipt and a operator. Requirements: - The method caller is the bridge contract."
      },
      "setBridgeContract(address)": {
        "details": "Sets the bridge contract. Requirements: - The method caller is admin. - The new address is a contract. Emits the event `BridgeContractUpdated`."
      },
      "setValidatorContract(address)": {
        "details": "Sets the validator contract. Requirements: - The method caller is admin. - The new address is a contract. Emits the event `ValidatorContractUpdated`."
      },
      "totalBallots(uint256)": {
        "details": "Returns the total number of ballots at the specific period `_period`."
      },
      "totalBallotsOf(uint256,address)": {
        "details": "Returns the total number of ballots of a bridge operator at the specific period `_period`."
      },
      "totalVotes(uint256)": {
        "details": "Returns the total number of votes at the specific period `_period`."
      },
      "validatorContract()": {
        "details": "Returns the validator contract."
      }
    },
    "stateVariables": {
      "_receiptApprovedAt": {
        "details": "Mapping from vote kind => request id => the period that the receipt is approved"
      },
      "_receiptVoted": {
        "details": "Mapping from vote kind => request id => bridge operator address => flag indicating whether the operator voted or not"
      },
      "_receiptVoters": {
        "details": "Mapping from vote kind => request id => the voters"
      },
      "_totalBallots": {
        "details": "Mapping from period number => total number of all ballots"
      },
      "_totalBallotsOf": {
        "details": "Mapping from period number => bridge operator address => total number of ballots"
      },
      "_totalVotes": {
        "details": "Mapping from period number => total number of all votes"
      },
      "startedAtBlock": {
        "details": "The block that the contract allows incoming mutable calls."
      }
    },
    "version": 1
  },
  "userdoc": {
    "kind": "user",
    "methods": {},
    "version": 1
  },
  "storageLayout": {
    "storage": [
      {
        "astId": 5733,
        "contract": "contracts/ronin/BridgeTracking.sol:BridgeTracking",
        "label": "_bridgeContract",
        "offset": 0,
        "slot": "0",
        "type": "t_contract(IBridge)8661"
      },
      {
        "astId": 6398,
        "contract": "contracts/ronin/BridgeTracking.sol:BridgeTracking",
        "label": "_validatorContract",
        "offset": 0,
        "slot": "1",
        "type": "t_contract(IRoninValidatorSet)10851"
      },
      {
        "astId": 1373,
        "contract": "contracts/ronin/BridgeTracking.sol:BridgeTracking",
        "label": "_initialized",
        "offset": 20,
        "slot": "1",
        "type": "t_uint8"
      },
      {
        "astId": 1376,
        "contract": "contracts/ronin/BridgeTracking.sol:BridgeTracking",
        "label": "_initializing",
        "offset": 21,
        "slot": "1",
        "type": "t_bool"
      },
      {
        "astId": 18462,
        "contract": "contracts/ronin/BridgeTracking.sol:BridgeTracking",
        "label": "_totalVotes",
        "offset": 0,
        "slot": "2",
        "type": "t_mapping(t_uint256,t_uint256)"
      },
      {
        "astId": 18467,
        "contract": "contracts/ronin/BridgeTracking.sol:BridgeTracking",
        "label": "_totalBallots",
        "offset": 0,
        "slot": "3",
        "type": "t_mapping(t_uint256,t_uint256)"
      },
      {
        "astId": 18474,
        "contract": "contracts/ronin/BridgeTracking.sol:BridgeTracking",
        "label": "_totalBallotsOf",
        "offset": 0,
        "slot": "4",
        "type": "t_mapping(t_uint256,t_mapping(t_address,t_uint256))"
      },
      {
        "astId": 18482,
        "contract": "contracts/ronin/BridgeTracking.sol:BridgeTracking",
        "label": "_receiptApprovedAt",
        "offset": 0,
        "slot": "5",
        "type": "t_mapping(t_enum(VoteKind)8667,t_mapping(t_uint256,t_uint256))"
      },
      {
        "astId": 18491,
        "contract": "contracts/ronin/BridgeTracking.sol:BridgeTracking",
        "label": "_receiptVoters",
        "offset": 0,
        "slot": "6",
        "type": "t_mapping(t_enum(VoteKind)8667,t_mapping(t_uint256,t_array(t_address)dyn_storage))"
      },
      {
        "astId": 18501,
        "contract": "contracts/ronin/BridgeTracking.sol:BridgeTracking",
        "label": "_receiptVoted",
        "offset": 0,
        "slot": "7",
        "type": "t_mapping(t_enum(VoteKind)8667,t_mapping(t_uint256,t_mapping(t_address,t_bool)))"
      },
      {
        "astId": 18504,
        "contract": "contracts/ronin/BridgeTracking.sol:BridgeTracking",
        "label": "startedAtBlock",
        "offset": 0,
        "slot": "8",
        "type": "t_uint256"
      }
    ],
    "types": {
      "t_address": {
        "encoding": "inplace",
        "label": "address",
        "numberOfBytes": "20"
      },
      "t_array(t_address)dyn_storage": {
        "base": "t_address",
        "encoding": "dynamic_array",
        "label": "address[]",
        "numberOfBytes": "32"
      },
      "t_bool": {
        "encoding": "inplace",
        "label": "bool",
        "numberOfBytes": "1"
      },
      "t_contract(IBridge)8661": {
        "encoding": "inplace",
        "label": "contract IBridge",
        "numberOfBytes": "20"
      },
      "t_contract(IRoninValidatorSet)10851": {
        "encoding": "inplace",
        "label": "contract IRoninValidatorSet",
        "numberOfBytes": "20"
      },
      "t_enum(VoteKind)8667": {
        "encoding": "inplace",
        "label": "enum IBridgeTracking.VoteKind",
        "numberOfBytes": "1"
      },
      "t_mapping(t_address,t_bool)": {
        "encoding": "mapping",
        "key": "t_address",
        "label": "mapping(address => bool)",
        "numberOfBytes": "32",
        "value": "t_bool"
      },
      "t_mapping(t_address,t_uint256)": {
        "encoding": "mapping",
        "key": "t_address",
        "label": "mapping(address => uint256)",
        "numberOfBytes": "32",
        "value": "t_uint256"
      },
      "t_mapping(t_enum(VoteKind)8667,t_mapping(t_uint256,t_array(t_address)dyn_storage))": {
        "encoding": "mapping",
        "key": "t_enum(VoteKind)8667",
        "label": "mapping(enum IBridgeTracking.VoteKind => mapping(uint256 => address[]))",
        "numberOfBytes": "32",
        "value": "t_mapping(t_uint256,t_array(t_address)dyn_storage)"
      },
      "t_mapping(t_enum(VoteKind)8667,t_mapping(t_uint256,t_mapping(t_address,t_bool)))": {
        "encoding": "mapping",
        "key": "t_enum(VoteKind)8667",
        "label": "mapping(enum IBridgeTracking.VoteKind => mapping(uint256 => mapping(address => bool)))",
        "numberOfBytes": "32",
        "value": "t_mapping(t_uint256,t_mapping(t_address,t_bool))"
      },
      "t_mapping(t_enum(VoteKind)8667,t_mapping(t_uint256,t_uint256))": {
        "encoding": "mapping",
        "key": "t_enum(VoteKind)8667",
        "label": "mapping(enum IBridgeTracking.VoteKind => mapping(uint256 => uint256))",
        "numberOfBytes": "32",
        "value": "t_mapping(t_uint256,t_uint256)"
      },
      "t_mapping(t_uint256,t_array(t_address)dyn_storage)": {
        "encoding": "mapping",
        "key": "t_uint256",
        "label": "mapping(uint256 => address[])",
        "numberOfBytes": "32",
        "value": "t_array(t_address)dyn_storage"
      },
      "t_mapping(t_uint256,t_mapping(t_address,t_bool))": {
        "encoding": "mapping",
        "key": "t_uint256",
        "label": "mapping(uint256 => mapping(address => bool))",
        "numberOfBytes": "32",
        "value": "t_mapping(t_address,t_bool)"
      },
      "t_mapping(t_uint256,t_mapping(t_address,t_uint256))": {
        "encoding": "mapping",
        "key": "t_uint256",
        "label": "mapping(uint256 => mapping(address => uint256))",
        "numberOfBytes": "32",
        "value": "t_mapping(t_address,t_uint256)"
      },
      "t_mapping(t_uint256,t_uint256)": {
        "encoding": "mapping",
        "key": "t_uint256",
        "label": "mapping(uint256 => uint256)",
        "numberOfBytes": "32",
        "value": "t_uint256"
      },
      "t_uint256": {
        "encoding": "inplace",
        "label": "uint256",
        "numberOfBytes": "32"
      },
      "t_uint8": {
        "encoding": "inplace",
        "label": "uint8",
        "numberOfBytes": "1"
      }
    }
  }
}