{
  "address": "0x7CA05B9246CC6e3053D37219C87653041F72565e",
  "abi": [
    {
      "inputs": [],
      "stateMutability": "payable",
      "type": "constructor"
    },
    {
      "inputs": [
        {
          "internalType": "enum ContractType",
          "name": "contractType",
          "type": "uint8"
        }
      ],
      "name": "ErrContractTypeNotFound",
      "type": "error"
    },
    {
      "inputs": [
        {
          "internalType": "bytes4",
          "name": "msgSig",
          "type": "bytes4"
        }
      ],
      "name": "ErrLengthMismatch",
      "type": "error"
    },
    {
      "inputs": [
        {
          "internalType": "bytes4",
          "name": "msgSig",
          "type": "bytes4"
        },
        {
          "internalType": "enum RoleAccess",
          "name": "expectedRole",
          "type": "uint8"
        }
      ],
      "name": "ErrUnauthorized",
      "type": "error"
    },
    {
      "inputs": [
        {
          "internalType": "bytes4",
          "name": "msgSig",
          "type": "bytes4"
        },
        {
          "internalType": "enum ContractType",
          "name": "expectedContractType",
          "type": "uint8"
        },
        {
          "internalType": "address",
          "name": "actual",
          "type": "address"
        }
      ],
      "name": "ErrUnexpectedInternalCall",
      "type": "error"
    },
    {
      "inputs": [
        {
          "internalType": "address",
          "name": "addr",
          "type": "address"
        }
      ],
      "name": "ErrZeroCodeContract",
      "type": "error"
    },
    {
      "anonymous": false,
      "inputs": [],
      "name": "BridgeTrackingIncorrectlyResponded",
      "type": "event"
    },
    {
      "anonymous": false,
      "inputs": [
        {
          "indexed": true,
          "internalType": "enum ContractType",
          "name": "contractType",
          "type": "uint8"
        },
        {
          "indexed": true,
          "internalType": "address",
          "name": "addr",
          "type": "address"
        }
      ],
      "name": "ContractUpdated",
      "type": "event"
    },
    {
      "anonymous": false,
      "inputs": [
        {
          "indexed": false,
          "internalType": "uint8",
          "name": "version",
          "type": "uint8"
        }
      ],
      "name": "Initialized",
      "type": "event"
    },
    {
      "anonymous": false,
      "inputs": [
        {
          "indexed": true,
          "internalType": "uint256",
          "name": "period",
          "type": "uint256"
        },
        {
          "indexed": true,
          "internalType": "address",
          "name": "bridgeOperator",
          "type": "address"
        }
      ],
      "name": "RemovalRequested",
      "type": "event"
    },
    {
      "anonymous": false,
      "inputs": [
        {
          "indexed": true,
          "internalType": "enum IBridgeSlashEvents.Tier",
          "name": "tier",
          "type": "uint8"
        },
        {
          "indexed": true,
          "internalType": "address",
          "name": "bridgeOperator",
          "type": "address"
        },
        {
          "indexed": true,
          "internalType": "uint256",
          "name": "period",
          "type": "uint256"
        },
        {
          "indexed": false,
          "internalType": "uint256",
          "name": "slashUntilPeriod",
          "type": "uint256"
        }
      ],
      "name": "Slashed",
      "type": "event"
    },
    {
      "inputs": [],
      "name": "MINIMUM_VOTE_THRESHOLD",
      "outputs": [
        {
          "internalType": "uint256",
          "name": "",
          "type": "uint256"
        }
      ],
      "stateMutability": "view",
      "type": "function"
    },
    {
      "inputs": [],
      "name": "REMOVE_DURATION_THRESHOLD",
      "outputs": [
        {
          "internalType": "uint256",
          "name": "",
          "type": "uint256"
        }
      ],
      "stateMutability": "view",
      "type": "function"
    },
    {
      "inputs": [],
      "name": "TIER_1_PENALTY_DURATION",
      "outputs": [
        {
          "internalType": "uint256",
          "name": "",
          "type": "uint256"
        }
      ],
      "stateMutability": "view",
      "type": "function"
    },
    {
      "inputs": [],
      "name": "TIER_2_PENALTY_DURATION",
      "outputs": [
        {
          "internalType": "uint256",
          "name": "",
          "type": "uint256"
        }
      ],
      "stateMutability": "view",
      "type": "function"
    },
    {
      "inputs": [
        {
          "internalType": "address[]",
          "name": "allBridgeOperators",
          "type": "address[]"
        },
        {
          "internalType": "uint256[]",
          "name": "ballots",
          "type": "uint256[]"
        },
        {
          "internalType": "uint256",
          "name": "totalBallot",
          "type": "uint256"
        },
        {
          "internalType": "uint256",
          "name": "totalVote",
          "type": "uint256"
        },
        {
          "internalType": "uint256",
          "name": "period",
          "type": "uint256"
        }
      ],
      "name": "execSlashBridgeOperators",
      "outputs": [
        {
          "internalType": "bool",
          "name": "slashed",
          "type": "bool"
        }
      ],
      "stateMutability": "nonpayable",
      "type": "function"
    },
    {
      "inputs": [
        {
          "internalType": "address[]",
          "name": "bridgeOperators",
          "type": "address[]"
        }
      ],
      "name": "getAddedPeriodOf",
      "outputs": [
        {
          "internalType": "uint256[]",
          "name": "addedPeriods",
          "type": "uint256[]"
        }
      ],
      "stateMutability": "view",
      "type": "function"
    },
    {
      "inputs": [
        {
          "internalType": "enum ContractType",
          "name": "contractType",
          "type": "uint8"
        }
      ],
      "name": "getContract",
      "outputs": [
        {
          "internalType": "address",
          "name": "contract_",
          "type": "address"
        }
      ],
      "stateMutability": "view",
      "type": "function"
    },
    {
      "inputs": [],
      "name": "getPenaltyDurations",
      "outputs": [
        {
          "internalType": "uint256[]",
          "name": "penaltyDurations",
          "type": "uint256[]"
        }
      ],
      "stateMutability": "pure",
      "type": "function"
    },
    {
      "inputs": [
        {
          "internalType": "uint256",
          "name": "ballot",
          "type": "uint256"
        },
        {
          "internalType": "uint256",
          "name": "totalVote",
          "type": "uint256"
        }
      ],
      "name": "getSlashTier",
      "outputs": [
        {
          "internalType": "enum IBridgeSlashEvents.Tier",
          "name": "tier",
          "type": "uint8"
        }
      ],
      "stateMutability": "pure",
      "type": "function"
    },
    {
      "inputs": [
        {
          "internalType": "address[]",
          "name": "bridgeOperators",
          "type": "address[]"
        }
      ],
      "name": "getSlashUntilPeriodOf",
      "outputs": [
        {
          "internalType": "uint256[]",
          "name": "untilPeriods",
          "type": "uint256[]"
        }
      ],
      "stateMutability": "view",
      "type": "function"
    },
    {
      "inputs": [
        {
          "internalType": "address",
          "name": "validatorContract",
          "type": "address"
        },
        {
          "internalType": "address",
          "name": "bridgeManagerContract",
          "type": "address"
        },
        {
          "internalType": "address",
          "name": "bridgeTrackingContract",
          "type": "address"
        }
      ],
      "name": "initialize",
      "outputs": [],
      "stateMutability": "nonpayable",
      "type": "function"
    },
    {
      "inputs": [
        {
          "internalType": "address",
          "name": "currentBridgeOperator",
          "type": "address"
        },
        {
          "internalType": "address",
          "name": "newBridgeOperator",
          "type": "address"
        }
      ],
      "name": "onBridgeOperatorUpdated",
      "outputs": [
        {
          "internalType": "bytes4",
          "name": "",
          "type": "bytes4"
        }
      ],
      "stateMutability": "nonpayable",
      "type": "function"
    },
    {
      "inputs": [
        {
          "internalType": "address[]",
          "name": "bridgeOperators",
          "type": "address[]"
        },
        {
          "internalType": "bool[]",
          "name": "addeds",
          "type": "bool[]"
        }
      ],
      "name": "onBridgeOperatorsAdded",
      "outputs": [
        {
          "internalType": "bytes4",
          "name": "",
          "type": "bytes4"
        }
      ],
      "stateMutability": "nonpayable",
      "type": "function"
    },
    {
      "inputs": [
        {
          "internalType": "address[]",
          "name": "",
          "type": "address[]"
        },
        {
          "internalType": "bool[]",
          "name": "",
          "type": "bool[]"
        }
      ],
      "name": "onBridgeOperatorsRemoved",
      "outputs": [
        {
          "internalType": "bytes4",
          "name": "",
          "type": "bytes4"
        }
      ],
      "stateMutability": "view",
      "type": "function"
    },
    {
      "inputs": [
        {
          "internalType": "enum ContractType",
          "name": "contractType",
          "type": "uint8"
        },
        {
          "internalType": "address",
          "name": "addr",
          "type": "address"
        }
      ],
      "name": "setContract",
      "outputs": [],
      "stateMutability": "nonpayable",
      "type": "function"
    },
    {
      "inputs": [
        {
          "internalType": "bytes4",
          "name": "interfaceId",
          "type": "bytes4"
        }
      ],
      "name": "supportsInterface",
      "outputs": [
        {
          "internalType": "bool",
          "name": "",
          "type": "bool"
        }
      ],
      "stateMutability": "pure",
      "type": "function"
    }
  ],
  "transactionHash": "0xf2b67dcef68fefa08a8d696089607fc96689bc9d7d7581b0b87ee22332bb6cec",
  "args": [],
  "numDeployments": 1,
  "solcInputHash": "04a9bbd243a024f931581fbb384106a3",
  "bytecode": "0x608060405261000c610011565b6100d1565b600054610100900460ff161561007d5760405162461bcd60e51b815260206004820152602760248201527f496e697469616c697a61626c653a20636f6e747261637420697320696e697469604482015266616c697a696e6760c81b606482015260840160405180910390fd5b60005460ff90811610156100cf576000805460ff191660ff9081179091556040519081527f7f26b83ff96e1f2b6a682f133852f6798a09c465da95921460cefb38474024989060200160405180910390a15b565b6114d9806100e06000396000f3fe608060405234801561001057600080fd5b50600436106101005760003560e01c8063c0c53b8b11610097578063ddc3f7f611610066578063ddc3f7f614610213578063de981f1b1461021b578063f9f6087314610246578063fbb2f1941461024e57600080fd5b8063c0c53b8b146101d2578063c48549de146101e5578063c9631a12146101f8578063d1e1f2f81461020b57600080fd5b80635ebae8a0116100d35780635ebae8a0146101735780636dda44081461019f578063865e6fd3146101b55780639c2f4459146101ca57600080fd5b806301ffc9a7146101055780631288810a1461012d5780634dca59251461014d5780635311153b14610160575b600080fd5b610118610113366004610e59565b61026e565b60405190151581526020015b60405180910390f35b61014061013b366004610ecf565b6102a5565b6040516101249190610f11565b61011861015b366004611042565b61038d565b61014061016e366004610ecf565b61062d565b61018661018136600461111d565b610706565b6040516001600160e01b03199091168152602001610124565b6101a7600181565b604051908152602001610124565b6101c86101c33660046111fb565b610883565b005b6101a7603281565b6101c86101e036600461122e565b6108a2565b6101866101f3366004611271565b6109cf565b6101866102063660046112dd565b6109ee565b6101a7600581565b6101a7601e81565b61022e6102293660046112f9565b610a6d565b6040516001600160a01b039091168152602001610124565b610140610ae8565b61026161025c366004611314565b610af7565b604051610124919061134c565b60006001600160e01b031982166314d72edb60e21b148061029f57506001600160e01b031982166301ffc9a760e01b145b92915050565b6060818067ffffffffffffffff8111156102c1576102c1610f55565b6040519080825280602002602001820160405280156102ea578160200160208202803683370190505b5091506000805160206114ad83398151915260005b828110156103845781600087878481811061031c5761031c611366565b9050602002016020810190610331919061137c565b6001600160a01b031681526020810191909152604001600020548451600160801b9091046001600160801b03169085908390811061037157610371611366565b60209081029190910101526001016102ff565b50505092915050565b6000600361039a81610b0a565b836032811115610622578751875181146103da576040516306b5667560e21b81526001600160e01b03196000351660048201526024015b60405180910390fd5b806000036103ec576000935050610622565b6103f787878a610b59565b61042e576040517f64ba7143ea5a17abea37667aa9ae137e3afba5033c5f504770c02829c128189c90600090a16000935050610622565b6000610438610bd6565b604080518082019091526000808252602082018190529192506000805160206114ad833981519152918080805b87811015610619578f818151811061047f5761047f611366565b6020908102919091018101516001600160a01b03811660009081528883526040908190208151808301909252546001600160801b038082168352600160801b90910416928101839052965093508c1115610611576104f68f82815181106104e8576104e8611366565b60200260200101518e610c41565b9150610511828d87600001516001600160801b03168a610c93565b935061051d848d610cea565b15610563576040516001600160801b0394506001600160a01b038416908d907fb32a150b9737190a456d8b2b81dd7d592a799ab2933ea494e44351acd41f835d90600090a35b600082600281111561057757610577611336565b146106115760019a506001600160801b0384146105df578b836001600160a01b03168360028111156105ab576105ab611336565b6040518781527f14441e950b7f9ed959e16b2405dd1a9d163efd5d85027b222dcf78b902a00d759060200160405180910390a45b6001600160a01b038316600090815260208790526040902080546001600160801b0319166001600160801b0386161790555b600101610465565b50505050505050505b505095945050505050565b6060818067ffffffffffffffff81111561064957610649610f55565b604051908082528060200260200182016040528015610672578160200160208202803683370190505b5091506000805160206114ad83398151915260005b82811015610384578160008787848181106106a4576106a4611366565b90506020020160208101906106b9919061137c565b6001600160a01b0316815260208101919091526040016000205484516001600160801b03909116908590839081106106f3576106f3611366565b6020908102919091010152600101610687565b6000600b61071381610b0a565b825184908114610744576040516306b5667560e21b81526001600160e01b03196000351660048201526024016103d1565b8060000361075c57506302f5d74560e51b915061087b565b6000805160206114ad83398151915260006107776008610a6d565b6001600160a01b031663060406186040518163ffffffff1660e01b8152600401602060405180830381865afa1580156107b4573d6000803e3d6000fd5b505050506040513d601f19601f820116820180604052508101906107d89190611397565b905060005b8381101561086c578681815181106107f7576107f7611366565b60200260200101511561086457818360008b8b8581811061081a5761081a611366565b905060200201602081019061082f919061137c565b6001600160a01b03168152602081019190915260400160002080546001600160801b03928316600160801b0292169190911790555b6001016107dd565b506302f5d74560e51b94505050505b509392505050565b61088b610d0c565b61089481610d68565b61089e8282610d9e565b5050565b600054610100900460ff16158080156108c25750600054600160ff909116105b806108dc5750303b1580156108dc575060005460ff166001145b61093f5760405162461bcd60e51b815260206004820152602e60248201527f496e697469616c697a61626c653a20636f6e747261637420697320616c72656160448201526d191e481a5b9a5d1a585b1a5e995960921b60648201526084016103d1565b6000805460ff191660011790558015610962576000805461ff0019166101001790555b61096d600885610d9e565b610978600b84610d9e565b610983600383610d9e565b80156109c9576000805461ff0019169055604051600181527f7f26b83ff96e1f2b6a682f133852f6798a09c465da95921460cefb38474024989060200160405180910390a15b50505050565b6000600b6109dc81610b0a565b506302f5d74560e51b95945050505050565b6000600b6109fb81610b0a565b50506001600160a01b0391821660008181526000805160206114ad8339815191526020526040808220939094168152928320825481546001600160801b0319166001600160801b0391821690811783558454600160801b908190049092169091021790558252556364b18d0960e11b90565b60007fdea3103d22025c269050bea94c0c84688877f12fa22b7e6d2d5d78a9a49aa1cb600083600d811115610aa457610aa4611336565b60ff1681526020810191909152604001600020546001600160a01b0316905080610ae3578160405163409140df60e11b81526004016103d191906113c4565b919050565b6060610af2610bd6565b905090565b6000610b038383610c41565b9392505050565b610b1381610a6d565b6001600160a01b0316336001600160a01b031614610b56576000356001600160e01b03191681336040516320e0f98d60e21b81526004016103d1939291906113d2565b50565b8051600190600090815b81811015610bbe5785858281518110610b7e57610b7e611366565b60200260200101511115610b955760009350610bbe565b848181518110610ba757610ba7611366565b602002602001015183019250806001019050610b63565b50828015610bcc5750858211155b9695505050505050565b604080516003808252608082019092526060916020820183803683370190505090506001818160ff1681518110610c0f57610c0f611366565b6020908102919091010152600581600260ff1681518110610c3257610c32611366565b60200260200101818152505090565b60008082612710610c52868361141f565b610c5c9190611432565b610c669190611449565b9050610bb88111610c88576103e88111610c81576000610c8b565b6001610c8b565b60025b949350505050565b6000610ca9610ca360018661141f565b84610e42565b82866002811115610cbc57610cbc611336565b60ff1681518110610ccf57610ccf611366565b6020026020010151610ce1919061146b565b95945050505050565b6000601e610cf960018461141f565b610d03908561141f565b10159392505050565b7fb53127684a568b3173ae13b9f8a6016e243e63b6e8ee1178d6a717850b5d6103546001600160a01b03163314610d66576000356001600160e01b0319166001604051620f948f60ea1b81526004016103d192919061147e565b565b806001600160a01b03163b600003610b5657604051630bfc64a360e21b81526001600160a01b03821660048201526024016103d1565b807fdea3103d22025c269050bea94c0c84688877f12fa22b7e6d2d5d78a9a49aa1cb600084600d811115610dd457610dd4611336565b60ff168152602081019190915260400160002080546001600160a01b0319166001600160a01b03928316179055811682600d811115610e1557610e15611336565b6040517f865d1c228a8ea13709cfe61f346f7ff67f1bbd4a18ff31ad3e7147350d317c5990600090a35050565b600081831015610e525781610b03565b5090919050565b600060208284031215610e6b57600080fd5b81356001600160e01b031981168114610b0357600080fd5b60008083601f840112610e9557600080fd5b50813567ffffffffffffffff811115610ead57600080fd5b6020830191508360208260051b8501011115610ec857600080fd5b9250929050565b60008060208385031215610ee257600080fd5b823567ffffffffffffffff811115610ef957600080fd5b610f0585828601610e83565b90969095509350505050565b6020808252825182820181905260009190848201906040850190845b81811015610f4957835183529284019291840191600101610f2d565b50909695505050505050565b634e487b7160e01b600052604160045260246000fd5b604051601f8201601f1916810167ffffffffffffffff81118282101715610f9457610f94610f55565b604052919050565b600067ffffffffffffffff821115610fb657610fb6610f55565b5060051b60200190565b80356001600160a01b0381168114610ae357600080fd5b600082601f830112610fe857600080fd5b81356020610ffd610ff883610f9c565b610f6b565b82815260059290921b8401810191818101908684111561101c57600080fd5b8286015b848110156110375780358352918301918301611020565b509695505050505050565b600080600080600060a0868803121561105a57600080fd5b853567ffffffffffffffff8082111561107257600080fd5b818801915088601f83011261108657600080fd5b81356020611096610ff883610f9c565b82815260059290921b8401810191818101908c8411156110b557600080fd5b948201945b838610156110da576110cb86610fc0565b825294820194908201906110ba565b995050890135925050808211156110f057600080fd5b506110fd88828901610fd7565b959895975050505060408401359360608101359360809091013592509050565b60008060006040848603121561113257600080fd5b833567ffffffffffffffff8082111561114a57600080fd5b61115687838801610e83565b909550935060209150858201358181111561117057600080fd5b86019050601f8101871361118357600080fd5b8035611191610ff882610f9c565b81815260059190911b820183019083810190898311156111b057600080fd5b928401925b828410156111dd57833580151581146111ce5760008081fd5b825292840192908401906111b5565b80955050505050509250925092565b8035600e8110610ae357600080fd5b6000806040838503121561120e57600080fd5b611217836111ec565b915061122560208401610fc0565b90509250929050565b60008060006060848603121561124357600080fd5b61124c84610fc0565b925061125a60208501610fc0565b915061126860408501610fc0565b90509250925092565b6000806000806040858703121561128757600080fd5b843567ffffffffffffffff8082111561129f57600080fd5b6112ab88838901610e83565b909650945060208701359150808211156112c457600080fd5b506112d187828801610e83565b95989497509550505050565b600080604083850312156112f057600080fd5b61121783610fc0565b60006020828403121561130b57600080fd5b610b03826111ec565b6000806040838503121561132757600080fd5b50508035926020909101359150565b634e487b7160e01b600052602160045260246000fd5b602081016003831061136057611360611336565b91905290565b634e487b7160e01b600052603260045260246000fd5b60006020828403121561138e57600080fd5b610b0382610fc0565b6000602082840312156113a957600080fd5b5051919050565b600e81106113c0576113c0611336565b9052565b6020810161029f82846113b0565b6001600160e01b031984168152606081016113f060208301856113b0565b6001600160a01b03929092166040919091015292915050565b634e487b7160e01b600052601160045260246000fd5b8181038181111561029f5761029f611409565b808202811582820484141761029f5761029f611409565b60008261146657634e487b7160e01b600052601260045260246000fd5b500490565b8082018082111561029f5761029f611409565b6001600160e01b031983168152604081016009831061149f5761149f611336565b826020830152939250505056fed08d185790a07c7b9b721e2713c8580010a57f31c72c16f6e80b831d0ee45bfea164736f6c6343000811000a",
  "devdoc": {
    "details": "A contract that implements slashing functionality for bridge operators based on their availability.",
    "errors": {
      "ErrContractTypeNotFound(uint8)": [
        {
          "details": "Error of invalid role."
        }
      ],
      "ErrLengthMismatch(bytes4)": [
        {
          "details": "Error indicating a mismatch in the length of input parameters or arrays for a specific function.",
          "params": {
            "msgSig": "The function signature (bytes4) that has a length mismatch."
          }
        }
      ],
      "ErrUnauthorized(bytes4,uint8)": [
        {
          "details": "Error indicating that the caller is unauthorized to perform a specific function.",
          "params": {
            "expectedRole": "The role required to perform the function.",
            "msgSig": "The function signature (bytes4) that the caller is unauthorized to perform."
          }
        }
      ],
      "ErrUnexpectedInternalCall(bytes4,uint8,address)": [
        {
          "details": "Error indicating that the caller is unauthorized to perform a specific function.",
          "params": {
            "actual": "The actual address that called to the function.",
            "expectedContractType": "The contract type required to perform the function.",
            "msgSig": "The function signature (bytes4)."
          }
        }
      ],
      "ErrZeroCodeContract(address)": [
        {
          "details": "Error of set to non-contract."
        }
      ]
    },
    "kind": "dev",
    "methods": {
      "execSlashBridgeOperators(address[],uint256[],uint256,uint256,uint256)": {
        "details": "Slashes the unavailability of bridge operators during a specific period.",
        "params": {
          "period": "The period to slash the bridge operators for."
        }
      },
      "getAddedPeriodOf(address[])": {
        "details": "Retrieves the added periods of the specified bridge operators.",
        "params": {
          "bridgeOperators": "An array of bridge operator addresses."
        },
        "returns": {
          "addedPeriods": "An array of uint256 values representing the added periods for each bridge operator."
        }
      },
      "getContract(uint8)": {
        "details": "Returns the address of a contract with a specific role. Throws an error if no contract is set for the specified role.",
        "params": {
          "contractType": "The role of the contract to retrieve."
        },
        "returns": {
          "contract_": "The address of the contract with the specified role."
        }
      },
      "getPenaltyDurations()": {
        "details": "Retrieve the penalty durations for different slash tiers.",
        "returns": {
          "penaltyDurations": "The array of penalty durations for each slash tier."
        }
      },
      "getSlashTier(uint256,uint256)": {
        "details": "Gets the slash tier based on the given ballot and total ballots.",
        "params": {
          "ballot": "The ballot count for a bridge operator.",
          "totalVote": "The total vote count for the period."
        },
        "returns": {
          "tier": "The slash tier."
        }
      },
      "getSlashUntilPeriodOf(address[])": {
        "details": "Returns the penalize durations for the specified bridge operators.",
        "params": {
          "bridgeOperators": "The addresses of the bridge operators."
        },
        "returns": {
          "untilPeriods": "The penalized periods for the bridge operators."
        }
      },
      "onBridgeOperatorUpdated(address,address)": {
        "details": "Handles the event when a bridge operator is updated.",
        "params": {
          "currentBridgeOperator": "The address of the current bridge operator.",
          "newbridgeOperator": "The new address of the bridge operator."
        },
        "returns": {
          "_0": "The selector of the function being called."
        }
      },
      "onBridgeOperatorsAdded(address[],bool[])": {
        "details": "Handles the event when bridge operators are added.",
        "params": {
          "addeds": "The corresponding boolean values indicating whether the operators were added or not.",
          "bridgeOperators": "The addresses of the bridge operators."
        },
        "returns": {
          "_0": "The selector of the function being called."
        }
      },
      "onBridgeOperatorsRemoved(address[],bool[])": {
        "details": "Handles the event when bridge operators are removed.",
        "params": {
          "bridgeOperators": "The addresses of the bridge operators.",
          "removeds": "The corresponding boolean values indicating whether the operators were removed or not."
        },
        "returns": {
          "_0": "The selector of the function being called."
        }
      },
      "setContract(uint8,address)": {
        "details": "Sets the address of a contract with a specific role. Emits the event {ContractUpdated}.",
        "params": {
          "addr": "The address of the contract to set.",
          "contractType": "The role of the contract to set."
        }
      },
      "supportsInterface(bytes4)": {
        "details": "Returns true if this contract implements the interface defined by `interfaceId`. See the corresponding https://eips.ethereum.org/EIPS/eip-165#how-interfaces-are-identified[EIP section] to learn more about how these ids are created. This function call must use less than 30 000 gas."
      }
    },
    "stateVariables": {
      "BRIDGE_SLASH_INFOS_SLOT": {
        "details": "value is equal to keccak256(\"@ronin.dpos.gateway.BridgeSlash.bridgeSlashInfos.slot\") - 1"
      },
      "MINIMUM_VOTE_THRESHOLD": {
        "details": "External function to retrieve the value of the minimum vote threshold to execute slashing rule.",
        "return": "minimumVoteThreshold The minimum vote threshold value.",
        "returns": {
          "_0": "minimumVoteThreshold The minimum vote threshold value."
        }
      },
      "PERCENTAGE_FRACTION": {
        "details": "Max percentage 100%. Values [0; 100_00] reflexes [0; 100%]"
      },
      "REMOVE_DURATION_THRESHOLD": {
        "details": "Returns the threshold duration for removing bridge operators.",
        "return": "The duration in period number that exceeds which a bridge operator will be removed.",
        "returns": {
          "_0": "The duration in period number that exceeds which a bridge operator will be removed."
        }
      },
      "SLASH_PERMANENT_DURATION": {
        "details": "This value is set to the maximum value of uint128 to indicate a permanent slash duration."
      },
      "TIER_1_PENALTY_DURATION": {
        "details": "Returns the penalty duration for Tier 1 slashing.",
        "return": "The duration in period number for Tier 1 slashing.",
        "returns": {
          "_0": "The duration in period number for Tier 1 slashing."
        }
      },
      "TIER_1_THRESHOLD": {
        "details": "Tier 1 slashing threshold ratio is 10%"
      },
      "TIER_2_PENALTY_DURATION": {
        "details": "Returns the penalty duration for Tier 2 slashing.",
        "return": "The duration in period number for Tier 2 slashing.",
        "returns": {
          "_0": "The duration in period number for Tier 2 slashing."
        }
      },
      "TIER_2_THRESHOLD": {
        "details": "Tier 2 slashing threshold ratio is 30%"
      }
    },
    "title": "BridgeSlash",
    "version": 1
  },
  "userdoc": {
    "kind": "user",
    "methods": {},
    "version": 1
  },
  "storageLayout": {
    "storage": [
      {
        "astId": 1373,
        "contract": "contracts/ronin/gateway/BridgeSlash.sol:BridgeSlash",
        "label": "_initialized",
        "offset": 0,
        "slot": "0",
        "type": "t_uint8"
      },
      {
        "astId": 1376,
        "contract": "contracts/ronin/gateway/BridgeSlash.sol:BridgeSlash",
        "label": "_initializing",
        "offset": 1,
        "slot": "0",
        "type": "t_bool"
      }
    ],
    "types": {
      "t_bool": {
        "encoding": "inplace",
        "label": "bool",
        "numberOfBytes": "1"
      },
      "t_uint8": {
        "encoding": "inplace",
        "label": "uint8",
        "numberOfBytes": "1"
      }
    }
  }
}