{
  "address": "0xE9C6e1691Db4c75d48744F32CB80B9Bf0829A4f6",
  "abi": [
    {
      "inputs": [],
      "stateMutability": "nonpayable",
      "type": "constructor"
    },
    {
      "inputs": [
        {
          "internalType": "enum ContractType",
          "name": "contractType",
          "type": "uint8"
        }
      ],
      "name": "ErrContractTypeNotFound",
      "type": "error"
    },
    {
      "inputs": [
        {
          "internalType": "bytes4",
          "name": "msgSig",
          "type": "bytes4"
        },
        {
          "internalType": "enum RoleAccess",
          "name": "expectedRole",
          "type": "uint8"
        }
      ],
      "name": "ErrUnauthorized",
      "type": "error"
    },
    {
      "inputs": [
        {
          "internalType": "bytes4",
          "name": "msgSig",
          "type": "bytes4"
        },
        {
          "internalType": "enum ContractType",
          "name": "expectedContractType",
          "type": "uint8"
        },
        {
          "internalType": "address",
          "name": "actual",
          "type": "address"
        }
      ],
      "name": "ErrUnexpectedInternalCall",
      "type": "error"
    },
    {
      "inputs": [
        {
          "internalType": "address",
          "name": "addr",
          "type": "address"
        }
      ],
      "name": "ErrZeroCodeContract",
      "type": "error"
    },
    {
      "anonymous": false,
      "inputs": [
        {
          "indexed": true,
          "internalType": "enum ContractType",
          "name": "contractType",
          "type": "uint8"
        },
        {
          "indexed": true,
          "internalType": "address",
          "name": "addr",
          "type": "address"
        }
      ],
      "name": "ContractUpdated",
      "type": "event"
    },
    {
      "anonymous": false,
      "inputs": [
        {
          "indexed": true,
          "internalType": "address",
          "name": "to",
          "type": "address"
        },
        {
          "indexed": true,
          "internalType": "bytes4",
          "name": "msgSig",
          "type": "bytes4"
        },
        {
          "indexed": false,
          "internalType": "bytes",
          "name": "reason",
          "type": "bytes"
        }
      ],
      "name": "ExternalCallFailed",
      "type": "event"
    },
    {
      "anonymous": false,
      "inputs": [
        {
          "indexed": false,
          "internalType": "uint8",
          "name": "version",
          "type": "uint8"
        }
      ],
      "name": "Initialized",
      "type": "event"
    },
    {
      "inputs": [
        {
          "internalType": "enum ContractType",
          "name": "contractType",
          "type": "uint8"
        }
      ],
      "name": "getContract",
      "outputs": [
        {
          "internalType": "address",
          "name": "contract_",
          "type": "address"
        }
      ],
      "stateMutability": "view",
      "type": "function"
    },
    {
      "inputs": [
        {
          "internalType": "uint256",
          "name": "period",
          "type": "uint256"
        },
        {
          "internalType": "address[]",
          "name": "operators",
          "type": "address[]"
        }
      ],
      "name": "getManyTotalBallots",
      "outputs": [
        {
          "internalType": "uint256[]",
          "name": "_res",
          "type": "uint256[]"
        }
      ],
      "stateMutability": "view",
      "type": "function"
    },
    {
      "inputs": [
        {
          "internalType": "enum IBridgeTracking.VoteKind",
          "name": "kind",
          "type": "uint8"
        },
        {
          "internalType": "uint256",
          "name": "requestId",
          "type": "uint256"
        }
      ],
      "name": "handleVoteApproved",
      "outputs": [],
      "stateMutability": "nonpayable",
      "type": "function"
    },
    {
      "inputs": [
        {
          "internalType": "address",
          "name": "bridgeContract",
          "type": "address"
        },
        {
          "internalType": "address",
          "name": "validatorContract",
          "type": "address"
        },
        {
          "internalType": "uint256",
          "name": "startedAtBlock_",
          "type": "uint256"
        }
      ],
      "name": "initialize",
      "outputs": [],
      "stateMutability": "nonpayable",
      "type": "function"
    },
    {
      "inputs": [],
      "name": "initializeV2",
      "outputs": [],
      "stateMutability": "nonpayable",
      "type": "function"
    },
    {
      "inputs": [
        {
          "internalType": "address",
          "name": "bridgeManager",
          "type": "address"
        },
        {
          "internalType": "address",
          "name": "bridgeSlash",
          "type": "address"
        },
        {
          "internalType": "address",
          "name": "bridgeReward",
          "type": "address"
        }
      ],
      "name": "initializeV3",
      "outputs": [],
      "stateMutability": "nonpayable",
      "type": "function"
    },
    {
      "inputs": [
        {
          "internalType": "enum IBridgeTracking.VoteKind",
          "name": "kind",
          "type": "uint8"
        },
        {
          "internalType": "uint256",
          "name": "requestId",
          "type": "uint256"
        },
        {
          "internalType": "address",
          "name": "operator",
          "type": "address"
        }
      ],
      "name": "recordVote",
      "outputs": [],
      "stateMutability": "nonpayable",
      "type": "function"
    },
    {
      "inputs": [
        {
          "internalType": "enum ContractType",
          "name": "contractType",
          "type": "uint8"
        },
        {
          "internalType": "address",
          "name": "addr",
          "type": "address"
        }
      ],
      "name": "setContract",
      "outputs": [],
      "stateMutability": "nonpayable",
      "type": "function"
    },
    {
      "inputs": [],
      "name": "startedAtBlock",
      "outputs": [
        {
          "internalType": "uint256",
          "name": "",
          "type": "uint256"
        }
      ],
      "stateMutability": "view",
      "type": "function"
    },
    {
      "inputs": [
        {
          "internalType": "uint256",
          "name": "period",
          "type": "uint256"
        }
      ],
      "name": "totalBallot",
      "outputs": [
        {
          "internalType": "uint256",
          "name": "totalBallot_",
          "type": "uint256"
        }
      ],
      "stateMutability": "view",
      "type": "function"
    },
    {
      "inputs": [
        {
          "internalType": "uint256",
          "name": "period",
          "type": "uint256"
        },
        {
          "internalType": "address",
          "name": "bridgeOperator",
          "type": "address"
        }
      ],
      "name": "totalBallotOf",
      "outputs": [
        {
          "internalType": "uint256",
          "name": "",
          "type": "uint256"
        }
      ],
      "stateMutability": "view",
      "type": "function"
    },
    {
      "inputs": [
        {
          "internalType": "uint256",
          "name": "period",
          "type": "uint256"
        }
      ],
      "name": "totalVote",
      "outputs": [
        {
          "internalType": "uint256",
          "name": "totalVote_",
          "type": "uint256"
        }
      ],
      "stateMutability": "view",
      "type": "function"
    }
  ],
  "transactionHash": "0xe2cdb0009dc7ae5ddf05c63e5102501b8454a1f193fdef41fa3fcd8f1b2a659b",
  "args": [],
  "numDeployments": 8,
  "solcInputHash": "04a9bbd243a024f931581fbb384106a3",
  "bytecode": "0x608060405234801561001057600080fd5b5061001961001e565b6100eb565b600154600160a81b900460ff161561008c5760405162461bcd60e51b815260206004820152602760248201527f496e697469616c697a61626c653a20636f6e747261637420697320696e697469604482015266616c697a696e6760c81b606482015260840160405180910390fd5b60015460ff600160a01b909104811610156100e9576001805460ff60a01b191660ff60a01b17905560405160ff81527f7f26b83ff96e1f2b6a682f133852f6798a09c465da95921460cefb38474024989060200160405180910390a15b565b611a1f806100fa6000396000f3fe608060405234801561001057600080fd5b50600436106100b45760003560e01c8063d25ed4c611610071578063d25ed4c614610135578063de981f1b14610148578063e2a75f3614610173578063e7ec7b3914610186578063f67e815214610199578063f84bd121146101b957600080fd5b80631794bb3c146100b9578063229f88ea146100ce5780634ac0bcda146100e15780635cd8a76b14610107578063865e6fd31461010f578063c7c4fea914610122575b600080fd5b6100cc6100c7366004611455565b6101c1565b005b6100cc6100dc3660046114a5565b6102c2565b6100f46100ef3660046114cf565b61046a565b6040519081526020015b60405180910390f35b6100cc610488565b6100cc61011d36600461150e565b610581565b6100cc61013036600461153a565b6105a0565b6100f461014336600461157a565b61097f565b61015b610156366004611593565b6109b4565b6040516001600160a01b0390911681526020016100fe565b6100f461018136600461157a565b610a2a565b6100cc6101943660046115ae565b610a54565b6101ac6101a73660046115ee565b610b9e565b6040516100fe91906116a8565b6002546100f4565b600154600160a81b900460ff16158080156101e7575060018054600160a01b900460ff16105b806102075750303b158015610207575060018054600160a01b900460ff16145b61022c5760405162461bcd60e51b8152600401610223906116bb565b60405180910390fd5b6001805460ff60a01b1916600160a01b1790558015610259576001805460ff60a81b1916600160a81b1790555b610264600285610be5565b61026f600884610be5565b600282905580156102bc576001805460ff60a81b191681556040519081527f7f26b83ff96e1f2b6a682f133852f6798a09c465da95921460cefb3847402498906020015b60405180910390a15b50505050565b60026102cd81610c89565b6102d5610cd8565b6000600a60008560028111156102ed576102ed611709565b60028111156102fe576102fe611709565b81526020019081526020016000206000848152602001908152602001600020905080600001546000036102bc57610333610ce6565b600061033f60086109b4565b6001600160a01b031663060406186040518163ffffffff1660e01b8152600401602060405180830381865afa15801561037c573d6000803e3d6000fd5b505050506040513d601f19601f820116820180604052508101906103a0919061171f565b808355600480546001818101835560009290925260029081027f8a35acfbc15ff81a39ae7d344fd709f28e8600b4aa8c65c6b64bfe7fe36bd19b018054939450928892849260ff199092169184908111156103fd576103fd611709565b02179055506001808201869055830160005b81548110156104525761044a888884848154811061042f5761042f611738565b6000918252602090912001546001600160a01b031687610f88565b60010161040f565b506104616001850160006113c8565b50505050505050565b600061047f838361047a86611108565b61122e565b90505b92915050565b600154600290600160a81b900460ff161580156104b3575060015460ff808316600160a01b90920416105b6104cf5760405162461bcd60e51b8152600401610223906116bb565b6001805460ff60a81b1960ff8416600160a01b021661ffff60a01b1990911617600160a81b17905560005461050f906002906001600160a01b0316610be5565b600154610527906008906001600160a01b0316610be5565b600080546001600160a01b031916905560018054600161ff0160a01b031916905560405160ff821681527f7f26b83ff96e1f2b6a682f133852f6798a09c465da95921460cefb38474024989060200160405180910390a150565b610589611284565b610592816112de565b61059c8282610be5565b5050565b60026105ab81610c89565b6105b3610cd8565b60006105bf60086109b4565b6001600160a01b031663060406186040518163ffffffff1660e01b8152600401602060405180830381865afa1580156105fc573d6000803e3d6000fd5b505050506040513d601f19601f82011682018060405250810190610620919061171f565b905061062a610ce6565b6000600a600087600281111561064257610642611709565b600281111561065357610653611709565b81526020019081526020016000206000868152602001908152602001600020905080600001546000036106b5576001908101805491820181556000908152602090200180546001600160a01b0319166001600160a01b038516179055506102bc565b6106c186868685610f88565b600b548281101561046157600b8381556000906106dd906109b4565b6001600160a01b0316639b19dbfd6040518163ffffffff1660e01b8152600401600060405180830381865afa15801561071a573d6000803e3d6000fd5b505050506040513d6000823e601f3d908101601f19168201604052610742919081019061176f565b905060006107508383611314565b9050600061075d84610a2a565b9050600061076a8561097f565b90506000610778600c6109b4565b9050600080826001600160a01b0316878786888c6040516024016107a0959493929190611834565b60408051601f198184030181529181526020820180516001600160e01b0316634dca592560e01b179052516107d591906118cd565b6000604051808303816000865af19150503d8060008114610812576040519150601f19603f3d011682016040523d82523d6000602084013e610817565b606091505b50915091508161086e57604051634dca592560e01b906001600160a01b038516907feaa424ccc38ebcf22402729592dedf8315790e0128cb577cdeff1a3ee627f827906108659085906118e9565b60405180910390a35b600061087a600d6109b4565b9050806001600160a01b0316888887898d60405160240161089f959493929190611834565b60408051601f198184030181529181526020820180516001600160e01b03166335e5b7eb60e11b179052516108d491906118cd565b6000604051808303816000865af19150503d8060008114610911576040519150601f19603f3d011682016040523d82523d6000602084013e610916565b606091505b5090935091508261096e576040516335e5b7eb60e11b906001600160a01b038316907feaa424ccc38ebcf22402729592dedf8315790e0128cb577cdeff1a3ee627f827906109659086906118e9565b60405180910390a35b505050505050505050505050505050565b60008181526009602052604090206001015461099a82611108565b156109af576006546109ac9082611932565b90505b919050565b60007fdea3103d22025c269050bea94c0c84688877f12fa22b7e6d2d5d78a9a49aa1cb600083600d8111156109eb576109eb611709565b60ff1681526020810191909152604001600020546001600160a01b03169050806109af578160405163409140df60e11b81526004016102239190611959565b600081815260096020526040902054610a4282611108565b156109af576004546109ac9082611932565b600154600390600160a81b900460ff16158015610a7f575060015460ff808316600160a01b90920416105b610a9b5760405162461bcd60e51b8152600401610223906116bb565b6001805460ff60a81b1960ff8416600160a01b021661ffff60a01b1990911617600160a81b179055610ace600b85610be5565b610ad9600c84610be5565b610ae4600d83610be5565b6001610af060086109b4565b6001600160a01b031663060406186040518163ffffffff1660e01b8152600401602060405180830381865afa158015610b2d573d6000803e3d6000fd5b505050506040513d601f19601f82011682018060405250810190610b51919061171f565b610b5b9190611967565b600b556001805460ff60a81b1916905560405160ff821681527f7f26b83ff96e1f2b6a682f133852f6798a09c465da95921460cefb3847402498906020016102b3565b6060610bdd8484848080602002602001604051908101604052809392919081815260200183836020028082843760009201919091525061131492505050565b949350505050565b807fdea3103d22025c269050bea94c0c84688877f12fa22b7e6d2d5d78a9a49aa1cb600084600d811115610c1b57610c1b611709565b60ff168152602081019190915260400160002080546001600160a01b0319166001600160a01b03928316179055811682600d811115610c5c57610c5c611709565b6040517f865d1c228a8ea13709cfe61f346f7ff67f1bbd4a18ff31ad3e7147350d317c5990600090a35050565b610c92816109b4565b6001600160a01b0316336001600160a01b031614610cd5576000356001600160e01b03191681336040516320e0f98d60e21b81526004016102239392919061197a565b50565b600254431015610ce457005b565b6000610cf260086109b4565b60405163a3d545f560e01b81524360048201529091506000906001600160a01b0383169063a3d545f590602401602060405180830381865afa158015610d3c573d6000803e3d6000fd5b505050506040513d601f19601f82011682018060405250810190610d60919061171f565b905080600360000154101561059c576000826001600160a01b031663468c96ae6003600001546001610d929190611932565b6040518263ffffffff1660e01b8152600401610db091815260200190565b6040805180830381865afa158015610dcc573d6000803e3d6000fd5b505050506040513d601f19601f82011682018060405250810190610df091906119b1565b60038490556000818152600960205260408120600454815493955090935091839190610e1d908490611932565b9091555050600654600182018054600090610e39908490611932565b90915550600090505b600854811015610ec957600880546000919083908110610e6457610e64611738565b60009182526020808320909101546001600160a01b0316808352600782526040808420546002880190935283208054919450919290610ea4908490611932565b90915550506001600160a01b0316600090815260076020526040812055600101610e42565b5060005b600454811015610f5b57600060036001018281548110610eef57610eef611738565b6000918252602082206002918202018054909350600a91839160ff1690811115610f1b57610f1b611709565b6002811115610f2c57610f2c611709565b815260208082019290925260409081016000908120600195860154825290925290206003018590555001610ecd565b50610f68600460006113e6565b60006005818155600682905590610f806008826113c8565b505050505050565b6000600a6000866002811115610fa057610fa0611709565b6002811115610fb157610fb1611709565b81526020808201929092526040908101600090812087825283528181206001600160a01b038716825260028101909352205490915060ff1615610ff457506102bc565b6001600160a01b03831660009081526002820160205260408120805460ff191660011790556003820154908190036110c1576001600160a01b038416600090815260076020526040812054900361109157600880546001810182556000919091527ff3f7a9fe364faab93b216da50a3214154f22a0a2b415b23a84c8169e8b636ee30180546001600160a01b0319166001600160a01b0386161790555b6006805460019081019091556001600160a01b038516600090815260076020526040902080549091019055610f80565b828103610f8057600090815260096020908152604080832060018082018054820190556001600160a01b039790971684526002019091529020805490930190925550505050565b60008061111560086109b4565b60405163a3d545f560e01b81524360048201529091506000906001600160a01b0383169063a3d545f590602401602060405180830381865afa15801561115f573d6000803e3d6000fd5b505050506040513d601f19601f82011682018060405250810190611183919061171f565b9050600080836001600160a01b031663468c96ae60036000015460016111a99190611932565b6040518263ffffffff1660e01b81526004016111c791815260200190565b6040805180830381865afa1580156111e3573d6000803e3d6000fd5b505050506040513d601f19601f8201168201806040525081019061120791906119b1565b9150915081801561121757508086145b8015611224575060035483115b9695505050505050565b60008381526009602090815260408083206001600160a01b0386168452600201909152902054811561127d576001600160a01b038316600090815260076020526040902054610bdd9082611932565b9392505050565b7fb53127684a568b3173ae13b9f8a6016e243e63b6e8ee1178d6a717850b5d6103546001600160a01b03163314610ce4576000356001600160e01b0319166001604051620f948f60ea1b81526004016102239291906119e4565b806001600160a01b03163b600003610cd557604051630bfc64a360e21b81526001600160a01b0382166004820152602401610223565b80516060908067ffffffffffffffff8111156113325761133261174e565b60405190808252806020026020018201604052801561135b578160200160208202803683370190505b509150600061136985611108565b905060005b828110156113bf5761139a8686838151811061138c5761138c611738565b60200260200101518461122e565b8482815181106113ac576113ac611738565b602090810291909101015260010161136e565b50505092915050565b5080546000825590600052602060002090810190610cd59190611407565b5080546000825560020290600052602060002090810190610cd59190611420565b5b8082111561141c5760008155600101611408565b5090565b5b8082111561141c57805460ff1916815560006001820155600201611421565b6001600160a01b0381168114610cd557600080fd5b60008060006060848603121561146a57600080fd5b833561147581611440565b9250602084013561148581611440565b929592945050506040919091013590565b8035600381106109af57600080fd5b600080604083850312156114b857600080fd5b6114c183611496565b946020939093013593505050565b600080604083850312156114e257600080fd5b8235915060208301356114f481611440565b809150509250929050565b8035600e81106109af57600080fd5b6000806040838503121561152157600080fd5b61152a836114ff565b915060208301356114f481611440565b60008060006060848603121561154f57600080fd5b61155884611496565b925060208401359150604084013561156f81611440565b809150509250925092565b60006020828403121561158c57600080fd5b5035919050565b6000602082840312156115a557600080fd5b61047f826114ff565b6000806000606084860312156115c357600080fd5b83356115ce81611440565b925060208401356115de81611440565b9150604084013561156f81611440565b60008060006040848603121561160357600080fd5b83359250602084013567ffffffffffffffff8082111561162257600080fd5b818601915086601f83011261163657600080fd5b81358181111561164557600080fd5b8760208260051b850101111561165a57600080fd5b6020830194508093505050509250925092565b600081518084526020808501945080840160005b8381101561169d57815187529582019590820190600101611681565b509495945050505050565b60208152600061047f602083018461166d565b6020808252602e908201527f496e697469616c697a61626c653a20636f6e747261637420697320616c72656160408201526d191e481a5b9a5d1a585b1a5e995960921b606082015260800190565b634e487b7160e01b600052602160045260246000fd5b60006020828403121561173157600080fd5b5051919050565b634e487b7160e01b600052603260045260246000fd5b634e487b7160e01b600052604160045260246000fd5b80516109af81611440565b6000602080838503121561178257600080fd5b825167ffffffffffffffff8082111561179a57600080fd5b818501915085601f8301126117ae57600080fd5b8151818111156117c0576117c061174e565b8060051b604051601f19603f830116810181811085821117156117e5576117e561174e565b60405291825284820192508381018501918883111561180357600080fd5b938501935b828510156118285761181985611764565b84529385019392850192611808565b98975050505050505050565b60a0808252865190820181905260009060209060c0840190828a01845b828110156118765781516001600160a01b031684529284019290840190600101611851565b5050508381038285015261188a818961166d565b6040850197909752505050606081019290925260809091015292915050565b60005b838110156118c45781810151838201526020016118ac565b50506000910152565b600082516118df8184602087016118a9565b9190910192915050565b60208152600082518060208401526119088160408501602087016118a9565b601f01601f19169190910160400192915050565b634e487b7160e01b600052601160045260246000fd5b808201808211156104825761048261191c565b600e811061195557611955611709565b9052565b602081016104828284611945565b818103818111156104825761048261191c565b6001600160e01b031984168152606081016119986020830185611945565b6001600160a01b03929092166040919091015292915050565b600080604083850312156119c457600080fd5b825180151581146119d457600080fd5b6020939093015192949293505050565b6001600160e01b0319831681526040810160098310611a0557611a05611709565b826020830152939250505056fea164736f6c6343000811000a",
  "devdoc": {
    "errors": {
      "ErrContractTypeNotFound(uint8)": [
        {
          "details": "Error of invalid role."
        }
      ],
      "ErrUnauthorized(bytes4,uint8)": [
        {
          "details": "Error indicating that the caller is unauthorized to perform a specific function.",
          "params": {
            "expectedRole": "The role required to perform the function.",
            "msgSig": "The function signature (bytes4) that the caller is unauthorized to perform."
          }
        }
      ],
      "ErrUnexpectedInternalCall(bytes4,uint8,address)": [
        {
          "details": "Error indicating that the caller is unauthorized to perform a specific function.",
          "params": {
            "actual": "The actual address that called to the function.",
            "expectedContractType": "The contract type required to perform the function.",
            "msgSig": "The function signature (bytes4)."
          }
        }
      ],
      "ErrZeroCodeContract(address)": [
        {
          "details": "Error of set to non-contract."
        }
      ]
    },
    "kind": "dev",
    "methods": {
      "getContract(uint8)": {
        "details": "Returns the address of a contract with a specific role. Throws an error if no contract is set for the specified role.",
        "params": {
          "contractType": "The role of the contract to retrieve."
        },
        "returns": {
          "contract_": "The address of the contract with the specified role."
        }
      },
      "getManyTotalBallots(uint256,address[])": {
        "details": "Returns the total number of ballots of bridge operators at the specific period `_period`."
      },
      "handleVoteApproved(uint8,uint256)": {
        "details": "Handles the request once it is approved. Requirements: - The method caller is the bridge contract."
      },
      "initialize(address,address,uint256)": {
        "details": "Initializes the contract storage."
      },
      "recordVote(uint8,uint256,address)": {
        "details": "Records vote for a receipt and a operator. Requirements: - The method caller is the bridge contract."
      },
      "setContract(uint8,address)": {
        "details": "Sets the address of a contract with a specific role. Emits the event {ContractUpdated}.",
        "params": {
          "addr": "The address of the contract to set.",
          "contractType": "The role of the contract to set."
        }
      },
      "startedAtBlock()": {
        "details": "Returns the block that allow incomming mutable call."
      },
      "totalBallot(uint256)": {
        "details": "Returns the total number of ballots at the specific period `_period`."
      },
      "totalBallotOf(uint256,address)": {
        "details": "Returns the total number of ballots of a bridge operator at the specific period `_period`."
      },
      "totalVote(uint256)": {
        "details": "Returns the total number of votes at the specific period `_period`."
      }
    },
    "stateVariables": {
      "_bufferMetric": {
        "details": "The temporary info of votes and ballots"
      },
      "_lastSyncPeriod": {
        "details": "The latest period that get synced with bridge's slashing and rewarding contract"
      },
      "_periodMetric": {
        "details": "Mapping from period number => vote stats based on period"
      },
      "_receiptTrackingInfo": {
        "details": "Mapping from vote kind => receipt id => receipt stats"
      },
      "_startedAtBlock": {
        "details": "The block that the contract allows incoming mutable calls."
      }
    },
    "version": 1
  },
  "userdoc": {
    "kind": "user",
    "methods": {},
    "version": 1
  },
  "storageLayout": {
    "storage": [
      {
        "astId": 39592,
        "contract": "contracts/ronin/gateway/BridgeTracking.sol:BridgeTracking",
        "label": "______deprecatedBridge",
        "offset": 0,
        "slot": "0",
        "type": "t_address"
      },
      {
        "astId": 39596,
        "contract": "contracts/ronin/gateway/BridgeTracking.sol:BridgeTracking",
        "label": "______deprecatedValidator",
        "offset": 0,
        "slot": "1",
        "type": "t_address"
      },
      {
        "astId": 1373,
        "contract": "contracts/ronin/gateway/BridgeTracking.sol:BridgeTracking",
        "label": "_initialized",
        "offset": 20,
        "slot": "1",
        "type": "t_uint8"
      },
      {
        "astId": 1376,
        "contract": "contracts/ronin/gateway/BridgeTracking.sol:BridgeTracking",
        "label": "_initializing",
        "offset": 21,
        "slot": "1",
        "type": "t_bool"
      },
      {
        "astId": 26922,
        "contract": "contracts/ronin/gateway/BridgeTracking.sol:BridgeTracking",
        "label": "_startedAtBlock",
        "offset": 0,
        "slot": "2",
        "type": "t_uint256"
      },
      {
        "astId": 26926,
        "contract": "contracts/ronin/gateway/BridgeTracking.sol:BridgeTracking",
        "label": "_bufferMetric",
        "offset": 0,
        "slot": "3",
        "type": "t_struct(PeriodVotingMetricTimeWrapper)26903_storage"
      },
      {
        "astId": 26932,
        "contract": "contracts/ronin/gateway/BridgeTracking.sol:BridgeTracking",
        "label": "_periodMetric",
        "offset": 0,
        "slot": "9",
        "type": "t_mapping(t_uint256,t_struct(PeriodVotingMetric)26893_storage)"
      },
      {
        "astId": 26941,
        "contract": "contracts/ronin/gateway/BridgeTracking.sol:BridgeTracking",
        "label": "_receiptTrackingInfo",
        "offset": 0,
        "slot": "10",
        "type": "t_mapping(t_enum(VoteKind)12343,t_mapping(t_uint256,t_struct(ReceiptTrackingInfo)26919_storage))"
      },
      {
        "astId": 26944,
        "contract": "contracts/ronin/gateway/BridgeTracking.sol:BridgeTracking",
        "label": "_lastSyncPeriod",
        "offset": 0,
        "slot": "11",
        "type": "t_uint256"
      }
    ],
    "types": {
      "t_address": {
        "encoding": "inplace",
        "label": "address",
        "numberOfBytes": "20"
      },
      "t_array(t_address)dyn_storage": {
        "base": "t_address",
        "encoding": "dynamic_array",
        "label": "address[]",
        "numberOfBytes": "32"
      },
      "t_array(t_struct(Request)12339_storage)dyn_storage": {
        "base": "t_struct(Request)12339_storage",
        "encoding": "dynamic_array",
        "label": "struct IBridgeTracking.Request[]",
        "numberOfBytes": "32"
      },
      "t_bool": {
        "encoding": "inplace",
        "label": "bool",
        "numberOfBytes": "1"
      },
      "t_enum(VoteKind)12343": {
        "encoding": "inplace",
        "label": "enum IBridgeTracking.VoteKind",
        "numberOfBytes": "1"
      },
      "t_mapping(t_address,t_bool)": {
        "encoding": "mapping",
        "key": "t_address",
        "label": "mapping(address => bool)",
        "numberOfBytes": "32",
        "value": "t_bool"
      },
      "t_mapping(t_address,t_uint256)": {
        "encoding": "mapping",
        "key": "t_address",
        "label": "mapping(address => uint256)",
        "numberOfBytes": "32",
        "value": "t_uint256"
      },
      "t_mapping(t_enum(VoteKind)12343,t_mapping(t_uint256,t_struct(ReceiptTrackingInfo)26919_storage))": {
        "encoding": "mapping",
        "key": "t_enum(VoteKind)12343",
        "label": "mapping(enum IBridgeTracking.VoteKind => mapping(uint256 => struct BridgeTracking.ReceiptTrackingInfo))",
        "numberOfBytes": "32",
        "value": "t_mapping(t_uint256,t_struct(ReceiptTrackingInfo)26919_storage)"
      },
      "t_mapping(t_uint256,t_struct(PeriodVotingMetric)26893_storage)": {
        "encoding": "mapping",
        "key": "t_uint256",
        "label": "mapping(uint256 => struct BridgeTracking.PeriodVotingMetric)",
        "numberOfBytes": "32",
        "value": "t_struct(PeriodVotingMetric)26893_storage"
      },
      "t_mapping(t_uint256,t_struct(ReceiptTrackingInfo)26919_storage)": {
        "encoding": "mapping",
        "key": "t_uint256",
        "label": "mapping(uint256 => struct BridgeTracking.ReceiptTrackingInfo)",
        "numberOfBytes": "32",
        "value": "t_struct(ReceiptTrackingInfo)26919_storage"
      },
      "t_struct(PeriodVotingMetric)26893_storage": {
        "encoding": "inplace",
        "label": "struct BridgeTracking.PeriodVotingMetric",
        "members": [
          {
            "astId": 26883,
            "contract": "contracts/ronin/gateway/BridgeTracking.sol:BridgeTracking",
            "label": "totalRequest",
            "offset": 0,
            "slot": "0",
            "type": "t_uint256"
          },
          {
            "astId": 26885,
            "contract": "contracts/ronin/gateway/BridgeTracking.sol:BridgeTracking",
            "label": "totalBallot",
            "offset": 0,
            "slot": "1",
            "type": "t_uint256"
          },
          {
            "astId": 26889,
            "contract": "contracts/ronin/gateway/BridgeTracking.sol:BridgeTracking",
            "label": "totalBallotOf",
            "offset": 0,
            "slot": "2",
            "type": "t_mapping(t_address,t_uint256)"
          },
          {
            "astId": 26892,
            "contract": "contracts/ronin/gateway/BridgeTracking.sol:BridgeTracking",
            "label": "voters",
            "offset": 0,
            "slot": "3",
            "type": "t_array(t_address)dyn_storage"
          }
        ],
        "numberOfBytes": "128"
      },
      "t_struct(PeriodVotingMetricTimeWrapper)26903_storage": {
        "encoding": "inplace",
        "label": "struct BridgeTracking.PeriodVotingMetricTimeWrapper",
        "members": [
          {
            "astId": 26895,
            "contract": "contracts/ronin/gateway/BridgeTracking.sol:BridgeTracking",
            "label": "lastEpoch",
            "offset": 0,
            "slot": "0",
            "type": "t_uint256"
          },
          {
            "astId": 26899,
            "contract": "contracts/ronin/gateway/BridgeTracking.sol:BridgeTracking",
            "label": "requests",
            "offset": 0,
            "slot": "1",
            "type": "t_array(t_struct(Request)12339_storage)dyn_storage"
          },
          {
            "astId": 26902,
            "contract": "contracts/ronin/gateway/BridgeTracking.sol:BridgeTracking",
            "label": "data",
            "offset": 0,
            "slot": "2",
            "type": "t_struct(PeriodVotingMetric)26893_storage"
          }
        ],
        "numberOfBytes": "192"
      },
      "t_struct(ReceiptTrackingInfo)26919_storage": {
        "encoding": "inplace",
        "label": "struct BridgeTracking.ReceiptTrackingInfo",
        "members": [
          {
            "astId": 26906,
            "contract": "contracts/ronin/gateway/BridgeTracking.sol:BridgeTracking",
            "label": "approvedPeriod",
            "offset": 0,
            "slot": "0",
            "type": "t_uint256"
          },
          {
            "astId": 26910,
            "contract": "contracts/ronin/gateway/BridgeTracking.sol:BridgeTracking",
            "label": "voters",
            "offset": 0,
            "slot": "1",
            "type": "t_array(t_address)dyn_storage"
          },
          {
            "astId": 26915,
            "contract": "contracts/ronin/gateway/BridgeTracking.sol:BridgeTracking",
            "label": "voted",
            "offset": 0,
            "slot": "2",
            "type": "t_mapping(t_address,t_bool)"
          },
          {
            "astId": 26918,
            "contract": "contracts/ronin/gateway/BridgeTracking.sol:BridgeTracking",
            "label": "trackedPeriod",
            "offset": 0,
            "slot": "3",
            "type": "t_uint256"
          }
        ],
        "numberOfBytes": "128"
      },
      "t_struct(Request)12339_storage": {
        "encoding": "inplace",
        "label": "struct IBridgeTracking.Request",
        "members": [
          {
            "astId": 12336,
            "contract": "contracts/ronin/gateway/BridgeTracking.sol:BridgeTracking",
            "label": "kind",
            "offset": 0,
            "slot": "0",
            "type": "t_enum(VoteKind)12343"
          },
          {
            "astId": 12338,
            "contract": "contracts/ronin/gateway/BridgeTracking.sol:BridgeTracking",
            "label": "id",
            "offset": 0,
            "slot": "1",
            "type": "t_uint256"
          }
        ],
        "numberOfBytes": "64"
      },
      "t_uint256": {
        "encoding": "inplace",
        "label": "uint256",
        "numberOfBytes": "32"
      },
      "t_uint8": {
        "encoding": "inplace",
        "label": "uint8",
        "numberOfBytes": "1"
      }
    }
  }
}