{
  "address": "0xFE9E7D097F4493182308AC2Ad7CF88f21193fF4A",
  "abi": [
    {
      "inputs": [],
      "stateMutability": "nonpayable",
      "type": "constructor"
    },
    {
      "inputs": [
        {
          "internalType": "enum ContractType",
          "name": "contractType",
          "type": "uint8"
        }
      ],
      "name": "ErrContractTypeNotFound",
      "type": "error"
    },
    {
      "inputs": [
        {
          "internalType": "bytes4",
          "name": "msgSig",
          "type": "bytes4"
        },
        {
          "internalType": "enum RoleAccess",
          "name": "expectedRole",
          "type": "uint8"
        }
      ],
      "name": "ErrUnauthorized",
      "type": "error"
    },
    {
      "inputs": [
        {
          "internalType": "bytes4",
          "name": "msgSig",
          "type": "bytes4"
        },
        {
          "internalType": "enum ContractType",
          "name": "expectedContractType",
          "type": "uint8"
        },
        {
          "internalType": "address",
          "name": "actual",
          "type": "address"
        }
      ],
      "name": "ErrUnexpectedInternalCall",
      "type": "error"
    },
    {
      "inputs": [
        {
          "internalType": "address",
          "name": "addr",
          "type": "address"
        }
      ],
      "name": "ErrZeroCodeContract",
      "type": "error"
    },
    {
      "anonymous": false,
      "inputs": [
        {
          "indexed": true,
          "internalType": "enum ContractType",
          "name": "contractType",
          "type": "uint8"
        },
        {
          "indexed": true,
          "internalType": "address",
          "name": "addr",
          "type": "address"
        }
      ],
      "name": "ContractUpdated",
      "type": "event"
    },
    {
      "anonymous": false,
      "inputs": [
        {
          "indexed": false,
          "internalType": "uint8",
          "name": "version",
          "type": "uint8"
        }
      ],
      "name": "Initialized",
      "type": "event"
    },
    {
      "inputs": [
        {
          "internalType": "enum ContractType",
          "name": "contractType",
          "type": "uint8"
        }
      ],
      "name": "getContract",
      "outputs": [
        {
          "internalType": "address",
          "name": "contract_",
          "type": "address"
        }
      ],
      "stateMutability": "view",
      "type": "function"
    },
    {
      "inputs": [
        {
          "internalType": "uint256",
          "name": "_period",
          "type": "uint256"
        },
        {
          "internalType": "address[]",
          "name": "_bridgeOperators",
          "type": "address[]"
        }
      ],
      "name": "getManyTotalBallots",
      "outputs": [
        {
          "internalType": "uint256[]",
          "name": "_res",
          "type": "uint256[]"
        }
      ],
      "stateMutability": "view",
      "type": "function"
    },
    {
      "inputs": [
        {
          "internalType": "enum IBridgeTracking.VoteKind",
          "name": "_kind",
          "type": "uint8"
        },
        {
          "internalType": "uint256",
          "name": "_requestId",
          "type": "uint256"
        }
      ],
      "name": "handleVoteApproved",
      "outputs": [],
      "stateMutability": "nonpayable",
      "type": "function"
    },
    {
      "inputs": [
        {
          "internalType": "address",
          "name": "_bridgeContract",
          "type": "address"
        },
        {
          "internalType": "address",
          "name": "_validatorContract",
          "type": "address"
        },
        {
          "internalType": "uint256",
          "name": "_startedAtBlock",
          "type": "uint256"
        }
      ],
      "name": "initialize",
      "outputs": [],
      "stateMutability": "nonpayable",
      "type": "function"
    },
    {
      "inputs": [],
      "name": "initializeV2",
      "outputs": [],
      "stateMutability": "nonpayable",
      "type": "function"
    },
    {
      "inputs": [
        {
          "internalType": "enum IBridgeTracking.VoteKind",
          "name": "_kind",
          "type": "uint8"
        },
        {
          "internalType": "uint256",
          "name": "_requestId",
          "type": "uint256"
        },
        {
          "internalType": "address",
          "name": "_operator",
          "type": "address"
        }
      ],
      "name": "recordVote",
      "outputs": [],
      "stateMutability": "nonpayable",
      "type": "function"
    },
    {
      "inputs": [
        {
          "internalType": "enum ContractType",
          "name": "contractType",
          "type": "uint8"
        },
        {
          "internalType": "address",
          "name": "addr",
          "type": "address"
        }
      ],
      "name": "setContract",
      "outputs": [],
      "stateMutability": "nonpayable",
      "type": "function"
    },
    {
      "inputs": [],
      "name": "startedAtBlock",
      "outputs": [
        {
          "internalType": "uint256",
          "name": "",
          "type": "uint256"
        }
      ],
      "stateMutability": "view",
      "type": "function"
    },
    {
      "inputs": [
        {
          "internalType": "uint256",
          "name": "_period",
          "type": "uint256"
        }
      ],
      "name": "totalBallots",
      "outputs": [
        {
          "internalType": "uint256",
          "name": "_totalBallots",
          "type": "uint256"
        }
      ],
      "stateMutability": "view",
      "type": "function"
    },
    {
      "inputs": [
        {
          "internalType": "uint256",
          "name": "_period",
          "type": "uint256"
        },
        {
          "internalType": "address",
          "name": "_bridgeOperator",
          "type": "address"
        }
      ],
      "name": "totalBallotsOf",
      "outputs": [
        {
          "internalType": "uint256",
          "name": "",
          "type": "uint256"
        }
      ],
      "stateMutability": "view",
      "type": "function"
    },
    {
      "inputs": [
        {
          "internalType": "uint256",
          "name": "_period",
          "type": "uint256"
        }
      ],
      "name": "totalVotes",
      "outputs": [
        {
          "internalType": "uint256",
          "name": "_totalVotes",
          "type": "uint256"
        }
      ],
      "stateMutability": "view",
      "type": "function"
    }
  ],
  "transactionHash": "0xc1d8a9cc768aeabccc3f95690daf71bed092385119f06d0897ef8f30b694bb7d",
  "args": [],
  "numDeployments": 7,
  "solcInputHash": "6bc16cc8f779fe2f1f4f2733e87f867e",
  "bytecode": "0x608060405234801561001057600080fd5b5061001961001e565b6100eb565b600154600160a81b900460ff161561008c5760405162461bcd60e51b815260206004820152602760248201527f496e697469616c697a61626c653a20636f6e747261637420697320696e697469604482015266616c697a696e6760c81b606482015260840160405180910390fd5b60015460ff600160a01b909104811610156100e9576001805460ff60a01b191660ff60a01b17905560405160ff81527f7f26b83ff96e1f2b6a682f133852f6798a09c465da95921460cefb38474024989060200160405180910390a15b565b6113b0806100fa6000396000f3fe608060405234801561001057600080fd5b50600436106100a95760003560e01c8063865e6fd311610071578063865e6fd314610117578063889998ef1461012a578063c7c4fea91461013d578063de981f1b14610150578063f67e81521461017b578063f84bd1211461019b57600080fd5b806304375dcf146100ae5780631794bb3c146100d457806319e6e158146100e9578063229f88ea146100fc5780635cd8a76b1461010f575b600080fd5b6100c16100bc366004610ff7565b6101a4565b6040519081526020015b60405180910390f35b6100e76100e2366004611023565b6101c2565b005b6100c16100f736600461105f565b6102c2565b6100e761010a366004611087565b6102f4565b6100e761049c565b6100e76101253660046110c0565b610595565b6100c161013836600461105f565b6105b4565b6100e761014b3660046110ea565b6105e1565b61016361015e366004611126565b61070a565b6040516001600160a01b0390911681526020016100cb565b61018e610189366004611141565b610780565b6040516100cb91906111c0565b6100c160025481565b60006101b983836101b48661083e565b610964565b90505b92915050565b600154600160a81b900460ff16158080156101e8575060018054600160a01b900460ff16105b806102085750303b158015610208575060018054600160a01b900460ff16145b61022d5760405162461bcd60e51b815260040161022490611204565b60405180910390fd5b6001805460ff60a01b1916600160a01b179055801561025a576001805460ff60a81b1916600160a81b1790555b6102656002856109bd565b6102706008846109bd565b600282905580156102bc576001805460ff60a81b191681556040519081527f7f26b83ff96e1f2b6a682f133852f6798a09c465da95921460cefb38474024989060200160405180910390a15b50505050565b6000818152600960205260409020546102da8261083e565b156102ef576004546102ec9082611252565b90505b919050565b60026102ff81610a61565b610307610ab0565b6000600a600085600281111561031f5761031f611273565b600281111561033057610330611273565b81526020019081526020016000206000848152602001908152602001600020905080600001546000036102bc57610365610abe565b6000610371600861070a565b6001600160a01b031663060406186040518163ffffffff1660e01b8152600401602060405180830381865afa1580156103ae573d6000803e3d6000fd5b505050506040513d601f19601f820116820180604052508101906103d29190611289565b808355600480546001818101835560009290925260029081027f8a35acfbc15ff81a39ae7d344fd709f28e8600b4aa8c65c6b64bfe7fe36bd19b018054939450928892849260ff1990921691849081111561042f5761042f611273565b02179055506001808201869055830160005b81548110156104845761047c8888848481548110610461576104616112a2565b6000918252602090912001546001600160a01b031687610d58565b600101610441565b50610493600185016000610f68565b50505050505050565b600154600290600160a81b900460ff161580156104c7575060015460ff808316600160a01b90920416105b6104e35760405162461bcd60e51b815260040161022490611204565b6001805460ff60a81b1960ff8416600160a01b021661ffff60a01b1990911617600160a81b179055600054610523906002906001600160a01b03166109bd565b60015461053b906008906001600160a01b03166109bd565b600080546001600160a01b031916905560018054600161ff0160a01b031916905560405160ff821681527f7f26b83ff96e1f2b6a682f133852f6798a09c465da95921460cefb38474024989060200160405180910390a150565b61059d610ed8565b6105a681610f32565b6105b082826109bd565b5050565b6000818152600960205260409020600101546105cf8261083e565b156102ef576006546102ec9082611252565b60026105ec81610a61565b6105f4610ab0565b6000610600600861070a565b6001600160a01b031663060406186040518163ffffffff1660e01b8152600401602060405180830381865afa15801561063d573d6000803e3d6000fd5b505050506040513d601f19601f820116820180604052508101906106619190611289565b905061066b610abe565b6000600a600087600281111561068357610683611273565b600281111561069457610694611273565b81526020019081526020016000206000868152602001908152602001600020905080600001546000036106f6576001908101805491820181556000908152602090200180546001600160a01b0319166001600160a01b038516179055506102bc565b61070286868685610d58565b505050505050565b60007fdea3103d22025c269050bea94c0c84688877f12fa22b7e6d2d5d78a9a49aa1cb600083600a81111561074157610741611273565b60ff1681526020810191909152604001600020546001600160a01b03169050806102ef578160405163409140df60e11b815260040161022491906112cc565b60608167ffffffffffffffff81111561079b5761079b6112da565b6040519080825280602002602001820160405280156107c4578160200160208202803683370190505b50905060006107d28561083e565b905060005b8381101561083557610810868686848181106107f5576107f56112a2565b905060200201602081019061080a91906112f0565b84610964565b838281518110610822576108226112a2565b60209081029190910101526001016107d7565b50509392505050565b60008061084b600861070a565b60405163a3d545f560e01b81524360048201529091506000906001600160a01b0383169063a3d545f590602401602060405180830381865afa158015610895573d6000803e3d6000fd5b505050506040513d601f19601f820116820180604052508101906108b99190611289565b9050600080836001600160a01b031663468c96ae60036000015460016108df9190611252565b6040518263ffffffff1660e01b81526004016108fd91815260200190565b6040805180830381865afa158015610919573d6000803e3d6000fd5b505050506040513d601f19601f8201168201806040525081019061093d919061130b565b9150915081801561094d57508086145b801561095a575060035483115b9695505050505050565b60008381526009602090815260408083206001600160a01b038616845260020190915290205481156109b6576001600160a01b0383166000908152600760205260409020546109b39082611252565b90505b9392505050565b807fdea3103d22025c269050bea94c0c84688877f12fa22b7e6d2d5d78a9a49aa1cb600084600a8111156109f3576109f3611273565b60ff168152602081019190915260400160002080546001600160a01b0319166001600160a01b03928316179055811682600a811115610a3457610a34611273565b6040517f865d1c228a8ea13709cfe61f346f7ff67f1bbd4a18ff31ad3e7147350d317c5990600090a35050565b610a6a8161070a565b6001600160a01b0316336001600160a01b031614610aad576000356001600160e01b03191681336040516320e0f98d60e21b81526004016102249392919061133e565b50565b600254431015610abc57005b565b6000610aca600861070a565b60405163a3d545f560e01b81524360048201529091506000906001600160a01b0383169063a3d545f590602401602060405180830381865afa158015610b14573d6000803e3d6000fd5b505050506040513d601f19601f82011682018060405250810190610b389190611289565b90508060036000015410156105b0576000826001600160a01b031663468c96ae6003600001546001610b6a9190611252565b6040518263ffffffff1660e01b8152600401610b8891815260200190565b6040805180830381865afa158015610ba4573d6000803e3d6000fd5b505050506040513d601f19601f82011682018060405250810190610bc8919061130b565b60038490556000818152600960205260408120600454815493955090935091839190610bf5908490611252565b9091555050600654600182018054600090610c11908490611252565b90915550600090505b600854811015610ca157600880546000919083908110610c3c57610c3c6112a2565b60009182526020808320909101546001600160a01b0316808352600782526040808420546002880190935283208054919450919290610c7c908490611252565b90915550506001600160a01b0316600090815260076020526040812055600101610c1a565b5060005b600454811015610d3357600060036001018281548110610cc757610cc76112a2565b6000918252602082206002918202018054909350600a91839160ff1690811115610cf357610cf3611273565b6002811115610d0457610d04611273565b815260208082019290925260409081016000908120600195860154825290925290206003018590555001610ca5565b50610d4060046000610f86565b60006005818155600682905590610702600882610f68565b6000600a6000866002811115610d7057610d70611273565b6002811115610d8157610d81611273565b81526020808201929092526040908101600090812087825283528181206001600160a01b038716825260028101909352205490915060ff1615610dc457506102bc565b6001600160a01b03831660009081526002820160205260408120805460ff19166001179055600382015490819003610e91576001600160a01b0384166000908152600760205260408120549003610e6157600880546001810182556000919091527ff3f7a9fe364faab93b216da50a3214154f22a0a2b415b23a84c8169e8b636ee30180546001600160a01b0319166001600160a01b0386161790555b6006805460019081019091556001600160a01b038516600090815260076020526040902080549091019055610702565b82810361070257600090815260096020908152604080832060018082018054820190556001600160a01b039790971684526002019091529020805490930190925550505050565b7fb53127684a568b3173ae13b9f8a6016e243e63b6e8ee1178d6a717850b5d6103546001600160a01b03163314610abc576000356001600160e01b0319166001604051620f948f60ea1b8152600401610224929190611375565b806001600160a01b03163b600003610aad57604051630bfc64a360e21b81526001600160a01b0382166004820152602401610224565b5080546000825590600052602060002090810190610aad9190610fa7565b5080546000825560020290600052602060002090810190610aad9190610fc0565b5b80821115610fbc5760008155600101610fa8565b5090565b5b80821115610fbc57805460ff1916815560006001820155600201610fc1565b80356001600160a01b03811681146102ef57600080fd5b6000806040838503121561100a57600080fd5b8235915061101a60208401610fe0565b90509250929050565b60008060006060848603121561103857600080fd5b61104184610fe0565b925061104f60208501610fe0565b9150604084013590509250925092565b60006020828403121561107157600080fd5b5035919050565b8035600381106102ef57600080fd5b6000806040838503121561109a57600080fd5b6110a383611078565b946020939093013593505050565b8035600b81106102ef57600080fd5b600080604083850312156110d357600080fd5b6110dc836110b1565b915061101a60208401610fe0565b6000806000606084860312156110ff57600080fd5b61110884611078565b92506020840135915061111d60408501610fe0565b90509250925092565b60006020828403121561113857600080fd5b6101b9826110b1565b60008060006040848603121561115657600080fd5b83359250602084013567ffffffffffffffff8082111561117557600080fd5b818601915086601f83011261118957600080fd5b81358181111561119857600080fd5b8760208260051b85010111156111ad57600080fd5b6020830194508093505050509250925092565b6020808252825182820181905260009190848201906040850190845b818110156111f8578351835292840192918401916001016111dc565b50909695505050505050565b6020808252602e908201527f496e697469616c697a61626c653a20636f6e747261637420697320616c72656160408201526d191e481a5b9a5d1a585b1a5e995960921b606082015260800190565b808201808211156101bc57634e487b7160e01b600052601160045260246000fd5b634e487b7160e01b600052602160045260246000fd5b60006020828403121561129b57600080fd5b5051919050565b634e487b7160e01b600052603260045260246000fd5b600b81106112c8576112c8611273565b9052565b602081016101bc82846112b8565b634e487b7160e01b600052604160045260246000fd5b60006020828403121561130257600080fd5b6101b982610fe0565b6000806040838503121561131e57600080fd5b8251801515811461132e57600080fd5b6020939093015192949293505050565b6001600160e01b0319841681526060810161135c60208301856112b8565b6001600160a01b03929092166040919091015292915050565b6001600160e01b031983168152604081016009831061139657611396611273565b826020830152939250505056fea164736f6c6343000811000a",
  "devdoc": {
    "errors": {
      "ErrContractTypeNotFound(uint8)": [
        {
          "details": "Error of invalid role."
        }
      ],
      "ErrUnauthorized(bytes4,uint8)": [
        {
          "details": "Error indicating that the caller is unauthorized to perform a specific function.",
          "params": {
            "expectedRole": "The role required to perform the function.",
            "msgSig": "The function signature (bytes4) that the caller is unauthorized to perform."
          }
        }
      ],
      "ErrUnexpectedInternalCall(bytes4,uint8,address)": [
        {
          "details": "Error indicating that the caller is unauthorized to perform a specific function.",
          "params": {
            "actual": "The actual address that called to the function.",
            "expectedContractType": "The contract type required to perform the function.",
            "msgSig": "The function signature (bytes4)."
          }
        }
      ],
      "ErrZeroCodeContract(address)": [
        {
          "details": "Error of set to non-contract."
        }
      ]
    },
    "kind": "dev",
    "methods": {
      "getContract(uint8)": {
        "details": "Returns the address of a contract with a specific role. Throws an error if no contract is set for the specified role.",
        "params": {
          "contractType": "The role of the contract to retrieve."
        },
        "returns": {
          "contract_": "The address of the contract with the specified role."
        }
      },
      "getManyTotalBallots(uint256,address[])": {
        "details": "Returns the total number of ballots of bridge operators at the specific period `_period`."
      },
      "handleVoteApproved(uint8,uint256)": {
        "details": "Handles the request once it is approved. Requirements: - The method caller is the bridge contract."
      },
      "initialize(address,address,uint256)": {
        "details": "Initializes the contract storage."
      },
      "recordVote(uint8,uint256,address)": {
        "details": "Records vote for a receipt and a operator. Requirements: - The method caller is the bridge contract."
      },
      "setContract(uint8,address)": {
        "details": "Sets the address of a contract with a specific role. Emits the event {ContractUpdated}.",
        "params": {
          "addr": "The address of the contract to set.",
          "contractType": "The role of the contract to set."
        }
      },
      "totalBallots(uint256)": {
        "details": "Returns the total number of ballots at the specific period `_period`."
      },
      "totalBallotsOf(uint256,address)": {
        "details": "Returns the total number of ballots of a bridge operator at the specific period `_period`."
      },
      "totalVotes(uint256)": {
        "details": "Returns the total number of votes at the specific period `_period`."
      }
    },
    "stateVariables": {
      "_bufferMetric": {
        "details": "The temporary info of votes and ballots"
      },
      "_periodMetric": {
        "details": "Mapping from period number => vote stats based on period"
      },
      "_receiptTrackingInfo": {
        "details": "Mapping from vote kind => receipt id => receipt stats"
      },
      "startedAtBlock": {
        "details": "The block that the contract allows incoming mutable calls."
      }
    },
    "version": 1
  },
  "userdoc": {
    "kind": "user",
    "methods": {},
    "version": 1
  },
  "storageLayout": {
    "storage": [
      {
        "astId": 35460,
        "contract": "contracts/ronin/gateway/BridgeTracking.sol:BridgeTracking",
        "label": "______deprecatedBridge",
        "offset": 0,
        "slot": "0",
        "type": "t_address"
      },
      {
        "astId": 35464,
        "contract": "contracts/ronin/gateway/BridgeTracking.sol:BridgeTracking",
        "label": "______deprecatedValidator",
        "offset": 0,
        "slot": "1",
        "type": "t_address"
      },
      {
        "astId": 1373,
        "contract": "contracts/ronin/gateway/BridgeTracking.sol:BridgeTracking",
        "label": "_initialized",
        "offset": 20,
        "slot": "1",
        "type": "t_uint8"
      },
      {
        "astId": 1376,
        "contract": "contracts/ronin/gateway/BridgeTracking.sol:BridgeTracking",
        "label": "_initializing",
        "offset": 21,
        "slot": "1",
        "type": "t_bool"
      },
      {
        "astId": 23304,
        "contract": "contracts/ronin/gateway/BridgeTracking.sol:BridgeTracking",
        "label": "startedAtBlock",
        "offset": 0,
        "slot": "2",
        "type": "t_uint256"
      },
      {
        "astId": 23308,
        "contract": "contracts/ronin/gateway/BridgeTracking.sol:BridgeTracking",
        "label": "_bufferMetric",
        "offset": 0,
        "slot": "3",
        "type": "t_struct(PeriodVotingMetricTimeWrapper)23285_storage"
      },
      {
        "astId": 23314,
        "contract": "contracts/ronin/gateway/BridgeTracking.sol:BridgeTracking",
        "label": "_periodMetric",
        "offset": 0,
        "slot": "9",
        "type": "t_mapping(t_uint256,t_struct(PeriodVotingMetric)23275_storage)"
      },
      {
        "astId": 23323,
        "contract": "contracts/ronin/gateway/BridgeTracking.sol:BridgeTracking",
        "label": "_receiptTrackingInfo",
        "offset": 0,
        "slot": "10",
        "type": "t_mapping(t_enum(VoteKind)9099,t_mapping(t_uint256,t_struct(ReceiptTrackingInfo)23301_storage))"
      }
    ],
    "types": {
      "t_address": {
        "encoding": "inplace",
        "label": "address",
        "numberOfBytes": "20"
      },
      "t_array(t_address)dyn_storage": {
        "base": "t_address",
        "encoding": "dynamic_array",
        "label": "address[]",
        "numberOfBytes": "32"
      },
      "t_array(t_struct(Request)9095_storage)dyn_storage": {
        "base": "t_struct(Request)9095_storage",
        "encoding": "dynamic_array",
        "label": "struct IBridgeTracking.Request[]",
        "numberOfBytes": "32"
      },
      "t_bool": {
        "encoding": "inplace",
        "label": "bool",
        "numberOfBytes": "1"
      },
      "t_enum(VoteKind)9099": {
        "encoding": "inplace",
        "label": "enum IBridgeTracking.VoteKind",
        "numberOfBytes": "1"
      },
      "t_mapping(t_address,t_bool)": {
        "encoding": "mapping",
        "key": "t_address",
        "label": "mapping(address => bool)",
        "numberOfBytes": "32",
        "value": "t_bool"
      },
      "t_mapping(t_address,t_uint256)": {
        "encoding": "mapping",
        "key": "t_address",
        "label": "mapping(address => uint256)",
        "numberOfBytes": "32",
        "value": "t_uint256"
      },
      "t_mapping(t_enum(VoteKind)9099,t_mapping(t_uint256,t_struct(ReceiptTrackingInfo)23301_storage))": {
        "encoding": "mapping",
        "key": "t_enum(VoteKind)9099",
        "label": "mapping(enum IBridgeTracking.VoteKind => mapping(uint256 => struct BridgeTracking.ReceiptTrackingInfo))",
        "numberOfBytes": "32",
        "value": "t_mapping(t_uint256,t_struct(ReceiptTrackingInfo)23301_storage)"
      },
      "t_mapping(t_uint256,t_struct(PeriodVotingMetric)23275_storage)": {
        "encoding": "mapping",
        "key": "t_uint256",
        "label": "mapping(uint256 => struct BridgeTracking.PeriodVotingMetric)",
        "numberOfBytes": "32",
        "value": "t_struct(PeriodVotingMetric)23275_storage"
      },
      "t_mapping(t_uint256,t_struct(ReceiptTrackingInfo)23301_storage)": {
        "encoding": "mapping",
        "key": "t_uint256",
        "label": "mapping(uint256 => struct BridgeTracking.ReceiptTrackingInfo)",
        "numberOfBytes": "32",
        "value": "t_struct(ReceiptTrackingInfo)23301_storage"
      },
      "t_struct(PeriodVotingMetric)23275_storage": {
        "encoding": "inplace",
        "label": "struct BridgeTracking.PeriodVotingMetric",
        "members": [
          {
            "astId": 23265,
            "contract": "contracts/ronin/gateway/BridgeTracking.sol:BridgeTracking",
            "label": "totalRequests",
            "offset": 0,
            "slot": "0",
            "type": "t_uint256"
          },
          {
            "astId": 23267,
            "contract": "contracts/ronin/gateway/BridgeTracking.sol:BridgeTracking",
            "label": "totalBallots",
            "offset": 0,
            "slot": "1",
            "type": "t_uint256"
          },
          {
            "astId": 23271,
            "contract": "contracts/ronin/gateway/BridgeTracking.sol:BridgeTracking",
            "label": "totalBallotsOf",
            "offset": 0,
            "slot": "2",
            "type": "t_mapping(t_address,t_uint256)"
          },
          {
            "astId": 23274,
            "contract": "contracts/ronin/gateway/BridgeTracking.sol:BridgeTracking",
            "label": "voters",
            "offset": 0,
            "slot": "3",
            "type": "t_array(t_address)dyn_storage"
          }
        ],
        "numberOfBytes": "128"
      },
      "t_struct(PeriodVotingMetricTimeWrapper)23285_storage": {
        "encoding": "inplace",
        "label": "struct BridgeTracking.PeriodVotingMetricTimeWrapper",
        "members": [
          {
            "astId": 23277,
            "contract": "contracts/ronin/gateway/BridgeTracking.sol:BridgeTracking",
            "label": "lastEpoch",
            "offset": 0,
            "slot": "0",
            "type": "t_uint256"
          },
          {
            "astId": 23281,
            "contract": "contracts/ronin/gateway/BridgeTracking.sol:BridgeTracking",
            "label": "requests",
            "offset": 0,
            "slot": "1",
            "type": "t_array(t_struct(Request)9095_storage)dyn_storage"
          },
          {
            "astId": 23284,
            "contract": "contracts/ronin/gateway/BridgeTracking.sol:BridgeTracking",
            "label": "data",
            "offset": 0,
            "slot": "2",
            "type": "t_struct(PeriodVotingMetric)23275_storage"
          }
        ],
        "numberOfBytes": "192"
      },
      "t_struct(ReceiptTrackingInfo)23301_storage": {
        "encoding": "inplace",
        "label": "struct BridgeTracking.ReceiptTrackingInfo",
        "members": [
          {
            "astId": 23288,
            "contract": "contracts/ronin/gateway/BridgeTracking.sol:BridgeTracking",
            "label": "approvedPeriod",
            "offset": 0,
            "slot": "0",
            "type": "t_uint256"
          },
          {
            "astId": 23292,
            "contract": "contracts/ronin/gateway/BridgeTracking.sol:BridgeTracking",
            "label": "voters",
            "offset": 0,
            "slot": "1",
            "type": "t_array(t_address)dyn_storage"
          },
          {
            "astId": 23297,
            "contract": "contracts/ronin/gateway/BridgeTracking.sol:BridgeTracking",
            "label": "voted",
            "offset": 0,
            "slot": "2",
            "type": "t_mapping(t_address,t_bool)"
          },
          {
            "astId": 23300,
            "contract": "contracts/ronin/gateway/BridgeTracking.sol:BridgeTracking",
            "label": "trackedPeriod",
            "offset": 0,
            "slot": "3",
            "type": "t_uint256"
          }
        ],
        "numberOfBytes": "128"
      },
      "t_struct(Request)9095_storage": {
        "encoding": "inplace",
        "label": "struct IBridgeTracking.Request",
        "members": [
          {
            "astId": 9092,
            "contract": "contracts/ronin/gateway/BridgeTracking.sol:BridgeTracking",
            "label": "kind",
            "offset": 0,
            "slot": "0",
            "type": "t_enum(VoteKind)9099"
          },
          {
            "astId": 9094,
            "contract": "contracts/ronin/gateway/BridgeTracking.sol:BridgeTracking",
            "label": "id",
            "offset": 0,
            "slot": "1",
            "type": "t_uint256"
          }
        ],
        "numberOfBytes": "64"
      },
      "t_uint256": {
        "encoding": "inplace",
        "label": "uint256",
        "numberOfBytes": "32"
      },
      "t_uint8": {
        "encoding": "inplace",
        "label": "uint8",
        "numberOfBytes": "1"
      }
    }
  }
}