{
  "address": "0xCb47Efa4212d95AE8Fb7942bbEd4AA47083886eA",
  "abi": [
    {
      "inputs": [],
      "stateMutability": "nonpayable",
      "type": "constructor"
    },
    {
      "inputs": [],
      "name": "ErrCallerMustBeBridgeContract",
      "type": "error"
    },
    {
      "inputs": [],
      "name": "ErrCallerMustBeValidatorContract",
      "type": "error"
    },
    {
      "inputs": [],
      "name": "ErrZeroCodeContract",
      "type": "error"
    },
    {
      "anonymous": false,
      "inputs": [
        {
          "indexed": false,
          "internalType": "address",
          "name": "",
          "type": "address"
        }
      ],
      "name": "BridgeContractUpdated",
      "type": "event"
    },
    {
      "anonymous": false,
      "inputs": [
        {
          "indexed": false,
          "internalType": "uint8",
          "name": "version",
          "type": "uint8"
        }
      ],
      "name": "Initialized",
      "type": "event"
    },
    {
      "anonymous": false,
      "inputs": [
        {
          "indexed": false,
          "internalType": "address",
          "name": "",
          "type": "address"
        }
      ],
      "name": "ValidatorContractUpdated",
      "type": "event"
    },
    {
      "inputs": [],
      "name": "bridgeContract",
      "outputs": [
        {
          "internalType": "address",
          "name": "",
          "type": "address"
        }
      ],
      "stateMutability": "view",
      "type": "function"
    },
    {
      "inputs": [
        {
          "internalType": "uint256",
          "name": "_period",
          "type": "uint256"
        },
        {
          "internalType": "address[]",
          "name": "_bridgeOperators",
          "type": "address[]"
        }
      ],
      "name": "getManyTotalBallots",
      "outputs": [
        {
          "internalType": "uint256[]",
          "name": "_res",
          "type": "uint256[]"
        }
      ],
      "stateMutability": "view",
      "type": "function"
    },
    {
      "inputs": [
        {
          "internalType": "enum IBridgeTracking.VoteKind",
          "name": "_kind",
          "type": "uint8"
        },
        {
          "internalType": "uint256",
          "name": "_requestId",
          "type": "uint256"
        }
      ],
      "name": "handleVoteApproved",
      "outputs": [],
      "stateMutability": "nonpayable",
      "type": "function"
    },
    {
      "inputs": [
        {
          "internalType": "address",
          "name": "_bridgeContract",
          "type": "address"
        },
        {
          "internalType": "address",
          "name": "_validatorContract",
          "type": "address"
        },
        {
          "internalType": "uint256",
          "name": "_startedAtBlock",
          "type": "uint256"
        }
      ],
      "name": "initialize",
      "outputs": [],
      "stateMutability": "nonpayable",
      "type": "function"
    },
    {
      "inputs": [
        {
          "internalType": "enum IBridgeTracking.VoteKind",
          "name": "_kind",
          "type": "uint8"
        },
        {
          "internalType": "uint256",
          "name": "_requestId",
          "type": "uint256"
        },
        {
          "internalType": "address",
          "name": "_operator",
          "type": "address"
        }
      ],
      "name": "recordVote",
      "outputs": [],
      "stateMutability": "nonpayable",
      "type": "function"
    },
    {
      "inputs": [
        {
          "internalType": "address",
          "name": "_addr",
          "type": "address"
        }
      ],
      "name": "setBridgeContract",
      "outputs": [],
      "stateMutability": "nonpayable",
      "type": "function"
    },
    {
      "inputs": [
        {
          "internalType": "address",
          "name": "_addr",
          "type": "address"
        }
      ],
      "name": "setValidatorContract",
      "outputs": [],
      "stateMutability": "nonpayable",
      "type": "function"
    },
    {
      "inputs": [],
      "name": "startedAtBlock",
      "outputs": [
        {
          "internalType": "uint256",
          "name": "",
          "type": "uint256"
        }
      ],
      "stateMutability": "view",
      "type": "function"
    },
    {
      "inputs": [
        {
          "internalType": "uint256",
          "name": "_period",
          "type": "uint256"
        }
      ],
      "name": "totalBallots",
      "outputs": [
        {
          "internalType": "uint256",
          "name": "_totalBallots",
          "type": "uint256"
        }
      ],
      "stateMutability": "view",
      "type": "function"
    },
    {
      "inputs": [
        {
          "internalType": "uint256",
          "name": "_period",
          "type": "uint256"
        },
        {
          "internalType": "address",
          "name": "_bridgeOperator",
          "type": "address"
        }
      ],
      "name": "totalBallotsOf",
      "outputs": [
        {
          "internalType": "uint256",
          "name": "",
          "type": "uint256"
        }
      ],
      "stateMutability": "view",
      "type": "function"
    },
    {
      "inputs": [
        {
          "internalType": "uint256",
          "name": "_period",
          "type": "uint256"
        }
      ],
      "name": "totalVotes",
      "outputs": [
        {
          "internalType": "uint256",
          "name": "_totalVotes",
          "type": "uint256"
        }
      ],
      "stateMutability": "view",
      "type": "function"
    },
    {
      "inputs": [],
      "name": "validatorContract",
      "outputs": [
        {
          "internalType": "address",
          "name": "",
          "type": "address"
        }
      ],
      "stateMutability": "view",
      "type": "function"
    }
  ],
  "transactionHash": "0x235ce818ec5ed92c843da1126c2c58c288734a09dce3645c4cea72a48fcbcb80",
  "args": [],
  "numDeployments": 6,
  "solcInputHash": "2a8db5de0d3bfe0cb40ba15ae8460f16",
  "bytecode": "0x608060405234801561001057600080fd5b5061001961001e565b6100eb565b600154600160a81b900460ff161561008c5760405162461bcd60e51b815260206004820152602760248201527f496e697469616c697a61626c653a20636f6e747261637420697320696e697469604482015266616c697a696e6760c81b606482015260840160405180910390fd5b60015460ff600160a01b909104811610156100e9576001805460ff60a01b191660ff60a01b17905560405160ff81527f7f26b83ff96e1f2b6a682f133852f6798a09c465da95921460cefb38474024989060200160405180910390a15b565b611290806100fa6000396000f3fe608060405234801561001057600080fd5b50600436106100a45760003560e01c806304375dcf146100a95780630b26cf66146100cf5780631794bb3c146100e457806319e6e158146100f7578063229f88ea1461010a578063889998ef1461011d5780639943908914610130578063c7c4fea91461014a578063cd5965831461015d578063cdf64a7614610165578063f67e815214610178578063f84bd12114610198575b600080fd5b6100bc6100b7366004610f61565b6101a1565b6040519081526020015b60405180910390f35b6100e26100dd366004610f8d565b6101bf565b005b6100e26100f2366004610fa8565b610237565b6100bc610105366004610fe4565b610371565b6100e261011836600461100c565b6103a3565b6100bc61012b366004610fe4565b61057c565b6001546001600160a01b03165b6040516100c69190611036565b6100e261015836600461104a565b6105a9565b61013d6106f7565b6100e2610173366004610f8d565b610706565b61018b610186366004611086565b610772565b6040516100c69190611104565b6100bc60025481565b60006101b683836101b186610839565b610958565b90505b92915050565b6101c76109b1565b6001600160a01b0316336001600160a01b0316146102005760405162461bcd60e51b81526004016101f790611148565b60405180910390fd5b6000816001600160a01b03163b1161022b57604051637bcd509160e01b815260040160405180910390fd5b610234816109df565b50565b600154600160a81b900460ff161580801561025d575060018054600160a01b900460ff16105b8061027d5750303b15801561027d575060018054600160a01b900460ff16145b6102e05760405162461bcd60e51b815260206004820152602e60248201527f496e697469616c697a61626c653a20636f6e747261637420697320616c72656160448201526d191e481a5b9a5d1a585b1a5e995960921b60648201526084016101f7565b6001805460ff60a01b1916600160a01b179055801561030d576001805460ff60a81b1916600160a81b1790555b610316846109df565b61031f83610a35565b6002829055801561036b576001805460ff60a81b191681556040519081527f7f26b83ff96e1f2b6a682f133852f6798a09c465da95921460cefb38474024989060200160405180910390a15b50505050565b60008181526009602052604090205461038982610839565b1561039e5760045461039b90826111a0565b90505b919050565b336103ac6106f7565b6001600160a01b0316146103d357604051631812f26f60e11b815260040160405180910390fd5b6002544310610578576000600a60008460028111156103f4576103f46111b3565b6002811115610405576104056111b3565b81526020019081526020016000206000838152602001908152602001600020905080600001546000036105765761043a610a80565b6001546040805162c080c360e31b815290516000926001600160a01b03169163060406189160048083019260209291908290030181865afa158015610483573d6000803e3d6000fd5b505050506040513d601f19601f820116820180604052508101906104a791906111c9565b808355600480546001818101835560009290925260029081027f8a35acfbc15ff81a39ae7d344fd709f28e8600b4aa8c65c6b64bfe7fe36bd19b018054939450928792849260ff19909216918490811115610504576105046111b3565b02179055506001808201859055830160005b8154811015610563576105518787848481548110610536576105366111e2565b6000918252602090912001546001600160a01b031687610d27565b8061055b816111f8565b915050610516565b50610572600185016000610ed2565b5050505b505b5050565b60008181526009602052604090206001015461059782610839565b1561039e5760065461039b90826111a0565b336105b26106f7565b6001600160a01b0316146105d957604051631812f26f60e11b815260040160405180910390fd5b6002544310610576576001546040805162c080c360e31b815290516000926001600160a01b03169163060406189160048083019260209291908290030181865afa15801561062b573d6000803e3d6000fd5b505050506040513d601f19601f8201168201806040525081019061064f91906111c9565b9050610659610a80565b6000600a6000866002811115610671576106716111b3565b6002811115610682576106826111b3565b81526020019081526020016000206000858152602001908152602001600020905080600001546000036106e4576001908101805491820181556000908152602090200180546001600160a01b0319166001600160a01b03841617905550610576565b6106f085858585610d27565b5050505050565b6000546001600160a01b031690565b61070e6109b1565b6001600160a01b0316336001600160a01b03161461073e5760405162461bcd60e51b81526004016101f790611148565b806001600160a01b03163b60000361076957604051637bcd509160e01b815260040160405180910390fd5b61023481610a35565b6060816001600160401b0381111561078c5761078c611211565b6040519080825280602002602001820160405280156107b5578160200160208202803683370190505b50905060006107c385610839565b905060005b8381101561083057610801868686848181106107e6576107e66111e2565b90506020020160208101906107fb9190610f8d565b84610958565b838281518110610813576108136111e2565b602090810291909101015280610828816111f8565b9150506107c8565b50509392505050565b60015460405163a3d545f560e01b815243600482015260009182916001600160a01b039091169063a3d545f590602401602060405180830381865afa158015610886573d6000803e3d6000fd5b505050506040513d601f19601f820116820180604052508101906108aa91906111c9565b6001805460035492935060009283926001600160a01b039092169163468c96ae916108d4916111a0565b6040518263ffffffff1660e01b81526004016108f291815260200190565b6040805180830381865afa15801561090e573d6000803e3d6000fd5b505050506040513d601f19601f820116820180604052508101906109329190611227565b9150915081801561094257508085145b801561094f575060035483115b95945050505050565b60008381526009602090815260408083206001600160a01b038616845260020190915290205481156109aa576001600160a01b0383166000908152600760205260409020546109a790826111a0565b90505b9392505050565b7fb53127684a568b3173ae13b9f8a6016e243e63b6e8ee1178d6a717850b5d6103546001600160a01b031690565b600080546001600160a01b0319166001600160a01b0383161790556040517f5cbd8a0bb00196365d5eb3457c6734e7f06666c3c78e5469b4c9deec7edae04890610a2a908390611036565b60405180910390a150565b600180546001600160a01b0319166001600160a01b0383161790556040517fef40dc07567635f84f5edbd2f8dbc16b40d9d282dd8e7e6f4ff58236b683616990610a2a908390611036565b60015460405163a3d545f560e01b81524360048201526000916001600160a01b03169063a3d545f590602401602060405180830381865afa158015610ac9573d6000803e3d6000fd5b505050506040513d601f19601f82011682018060405250810190610aed91906111c9565b905080600360000154101561023457600180546003546000926001600160a01b039092169163468c96ae91610b21916111a0565b6040518263ffffffff1660e01b8152600401610b3f91815260200190565b6040805180830381865afa158015610b5b573d6000803e3d6000fd5b505050506040513d601f19601f82011682018060405250810190610b7f9190611227565b60038490556000818152600960205260408120600454815493955090935091839190610bac9084906111a0565b9091555050600654600182018054600090610bc89084906111a0565b90915550600090505b600854811015610c6257600880546000919083908110610bf357610bf36111e2565b60009182526020808320909101546001600160a01b0316808352600782526040808420546002880190935283208054919450919290610c339084906111a0565b90915550506001600160a01b031660009081526007602052604081205580610c5a816111f8565b915050610bd1565b5060005b600454811015610d0257600060036001018281548110610c8857610c886111e2565b6000918252602082206002918202018054909350600a91839160ff1690811115610cb457610cb46111b3565b6002811115610cc557610cc56111b3565b8152602080820192909252604090810160009081206001909501548152939091529091206003018490555080610cfa816111f8565b915050610c66565b50610d0f60046000610ef0565b600060058181556006829055906106f0600882610ed2565b6000600a6000866002811115610d3f57610d3f6111b3565b6002811115610d5057610d506111b3565b81526020808201929092526040908101600090812087825283528181206001600160a01b038716825260028101909352205490915060ff1615610d93575061036b565b6001600160a01b03831660009081526002820160205260408120805460ff19166001179055600382015490819003610e73576001600160a01b0384166000908152600760205260408120549003610e3057600880546001810182556000919091527ff3f7a9fe364faab93b216da50a3214154f22a0a2b415b23a84c8169e8b636ee30180546001600160a01b0319166001600160a01b0386161790555b60068054906000610e40836111f8565b90915550506001600160a01b0384166000908152600760205260408120805491610e69836111f8565b9190505550610572565b8281036105725760008181526009602052604081206001810180549192610e99836111f8565b90915550506001600160a01b03851660009081526002820160205260408120805491610ec4836111f8565b919050555050505050505050565b50805460008255906000526020600020908101906102349190610f11565b50805460008255600202906000526020600020908101906102349190610f2a565b5b80821115610f265760008155600101610f12565b5090565b5b80821115610f2657805460ff1916815560006001820155600201610f2b565b80356001600160a01b038116811461039e57600080fd5b60008060408385031215610f7457600080fd5b82359150610f8460208401610f4a565b90509250929050565b600060208284031215610f9f57600080fd5b6101b682610f4a565b600080600060608486031215610fbd57600080fd5b610fc684610f4a565b9250610fd460208501610f4a565b9150604084013590509250925092565b600060208284031215610ff657600080fd5b5035919050565b80356003811061039e57600080fd5b6000806040838503121561101f57600080fd5b61102883610ffd565b946020939093013593505050565b6001600160a01b0391909116815260200190565b60008060006060848603121561105f57600080fd5b61106884610ffd565b92506020840135915061107d60408501610f4a565b90509250925092565b60008060006040848603121561109b57600080fd5b8335925060208401356001600160401b03808211156110b957600080fd5b818601915086601f8301126110cd57600080fd5b8135818111156110dc57600080fd5b8760208260051b85010111156110f157600080fd5b6020830194508093505050509250925092565b6020808252825182820181905260009190848201906040850190845b8181101561113c57835183529284019291840191600101611120565b50909695505050505050565b60208082526022908201527f48617350726f787941646d696e3a20756e617574686f72697a65642073656e6460408201526132b960f11b606082015260800190565b634e487b7160e01b600052601160045260246000fd5b808201808211156101b9576101b961118a565b634e487b7160e01b600052602160045260246000fd5b6000602082840312156111db57600080fd5b5051919050565b634e487b7160e01b600052603260045260246000fd5b60006001820161120a5761120a61118a565b5060010190565b634e487b7160e01b600052604160045260246000fd5b6000806040838503121561123a57600080fd5b8251801515811461124a57600080fd5b602093909301519294929350505056fea264697066735822122022921d73a729b636012f19e59da68f098ee3e90169fe2832ab2bf0d9444f1df364736f6c63430008110033",
  "devdoc": {
    "errors": {
      "ErrCallerMustBeBridgeContract()": [
        {
          "details": "Error of method caller must be bridge contract."
        }
      ],
      "ErrCallerMustBeValidatorContract()": [
        {
          "details": "Error of method caller must be validator contract."
        }
      ],
      "ErrZeroCodeContract()": [
        {
          "details": "Error of set to non-contract."
        }
      ]
    },
    "kind": "dev",
    "methods": {
      "bridgeContract()": {
        "details": "Returns the bridge contract."
      },
      "getManyTotalBallots(uint256,address[])": {
        "details": "Returns the total number of ballots of bridge operators at the specific period `_period`."
      },
      "handleVoteApproved(uint8,uint256)": {
        "details": "Handles the request once it is approved. Requirements: - The method caller is the bridge contract."
      },
      "initialize(address,address,uint256)": {
        "details": "Initializes the contract storage."
      },
      "recordVote(uint8,uint256,address)": {
        "details": "Records vote for a receipt and a operator. Requirements: - The method caller is the bridge contract."
      },
      "setBridgeContract(address)": {
        "details": "Sets the bridge contract. Requirements: - The method caller is admin. - The new address is a contract. Emits the event `BridgeContractUpdated`."
      },
      "setValidatorContract(address)": {
        "details": "Sets the validator contract. Requirements: - The method caller is admin. - The new address is a contract. Emits the event `ValidatorContractUpdated`."
      },
      "totalBallots(uint256)": {
        "details": "Returns the total number of ballots at the specific period `_period`."
      },
      "totalBallotsOf(uint256,address)": {
        "details": "Returns the total number of ballots of a bridge operator at the specific period `_period`."
      },
      "totalVotes(uint256)": {
        "details": "Returns the total number of votes at the specific period `_period`."
      },
      "validatorContract()": {
        "details": "Returns the validator contract."
      }
    },
    "stateVariables": {
      "_bufferMetric": {
        "details": "The temporary info of votes and ballots"
      },
      "_periodMetric": {
        "details": "Mapping from period number => vote stats based on period"
      },
      "_receiptTrackingInfo": {
        "details": "Mapping from vote kind => receipt id => receipt stats"
      },
      "startedAtBlock": {
        "details": "The block that the contract allows incoming mutable calls."
      }
    },
    "version": 1
  },
  "userdoc": {
    "kind": "user",
    "methods": {},
    "version": 1
  },
  "storageLayout": {
    "storage": [
      {
        "astId": 6386,
        "contract": "contracts/ronin/gateway/BridgeTracking.sol:BridgeTracking",
        "label": "_bridgeContract",
        "offset": 0,
        "slot": "0",
        "type": "t_contract(IBridge)9212"
      },
      {
        "astId": 7051,
        "contract": "contracts/ronin/gateway/BridgeTracking.sol:BridgeTracking",
        "label": "_validatorContract",
        "offset": 0,
        "slot": "1",
        "type": "t_contract(IRoninValidatorSet)11973"
      },
      {
        "astId": 1373,
        "contract": "contracts/ronin/gateway/BridgeTracking.sol:BridgeTracking",
        "label": "_initialized",
        "offset": 20,
        "slot": "1",
        "type": "t_uint8"
      },
      {
        "astId": 1376,
        "contract": "contracts/ronin/gateway/BridgeTracking.sol:BridgeTracking",
        "label": "_initializing",
        "offset": 21,
        "slot": "1",
        "type": "t_bool"
      },
      {
        "astId": 23106,
        "contract": "contracts/ronin/gateway/BridgeTracking.sol:BridgeTracking",
        "label": "startedAtBlock",
        "offset": 0,
        "slot": "2",
        "type": "t_uint256"
      },
      {
        "astId": 23110,
        "contract": "contracts/ronin/gateway/BridgeTracking.sol:BridgeTracking",
        "label": "_bufferMetric",
        "offset": 0,
        "slot": "3",
        "type": "t_struct(PeriodVotingMetricTimeWrapper)23087_storage"
      },
      {
        "astId": 23116,
        "contract": "contracts/ronin/gateway/BridgeTracking.sol:BridgeTracking",
        "label": "_periodMetric",
        "offset": 0,
        "slot": "9",
        "type": "t_mapping(t_uint256,t_struct(PeriodVotingMetric)23077_storage)"
      },
      {
        "astId": 23125,
        "contract": "contracts/ronin/gateway/BridgeTracking.sol:BridgeTracking",
        "label": "_receiptTrackingInfo",
        "offset": 0,
        "slot": "10",
        "type": "t_mapping(t_enum(VoteKind)9224,t_mapping(t_uint256,t_struct(ReceiptTrackingInfo)23103_storage))"
      }
    ],
    "types": {
      "t_address": {
        "encoding": "inplace",
        "label": "address",
        "numberOfBytes": "20"
      },
      "t_array(t_address)dyn_storage": {
        "base": "t_address",
        "encoding": "dynamic_array",
        "label": "address[]",
        "numberOfBytes": "32"
      },
      "t_array(t_struct(Request)9220_storage)dyn_storage": {
        "base": "t_struct(Request)9220_storage",
        "encoding": "dynamic_array",
        "label": "struct IBridgeTracking.Request[]",
        "numberOfBytes": "32"
      },
      "t_bool": {
        "encoding": "inplace",
        "label": "bool",
        "numberOfBytes": "1"
      },
      "t_contract(IBridge)9212": {
        "encoding": "inplace",
        "label": "contract IBridge",
        "numberOfBytes": "20"
      },
      "t_contract(IRoninValidatorSet)11973": {
        "encoding": "inplace",
        "label": "contract IRoninValidatorSet",
        "numberOfBytes": "20"
      },
      "t_enum(VoteKind)9224": {
        "encoding": "inplace",
        "label": "enum IBridgeTracking.VoteKind",
        "numberOfBytes": "1"
      },
      "t_mapping(t_address,t_bool)": {
        "encoding": "mapping",
        "key": "t_address",
        "label": "mapping(address => bool)",
        "numberOfBytes": "32",
        "value": "t_bool"
      },
      "t_mapping(t_address,t_uint256)": {
        "encoding": "mapping",
        "key": "t_address",
        "label": "mapping(address => uint256)",
        "numberOfBytes": "32",
        "value": "t_uint256"
      },
      "t_mapping(t_enum(VoteKind)9224,t_mapping(t_uint256,t_struct(ReceiptTrackingInfo)23103_storage))": {
        "encoding": "mapping",
        "key": "t_enum(VoteKind)9224",
        "label": "mapping(enum IBridgeTracking.VoteKind => mapping(uint256 => struct BridgeTracking.ReceiptTrackingInfo))",
        "numberOfBytes": "32",
        "value": "t_mapping(t_uint256,t_struct(ReceiptTrackingInfo)23103_storage)"
      },
      "t_mapping(t_uint256,t_struct(PeriodVotingMetric)23077_storage)": {
        "encoding": "mapping",
        "key": "t_uint256",
        "label": "mapping(uint256 => struct BridgeTracking.PeriodVotingMetric)",
        "numberOfBytes": "32",
        "value": "t_struct(PeriodVotingMetric)23077_storage"
      },
      "t_mapping(t_uint256,t_struct(ReceiptTrackingInfo)23103_storage)": {
        "encoding": "mapping",
        "key": "t_uint256",
        "label": "mapping(uint256 => struct BridgeTracking.ReceiptTrackingInfo)",
        "numberOfBytes": "32",
        "value": "t_struct(ReceiptTrackingInfo)23103_storage"
      },
      "t_struct(PeriodVotingMetric)23077_storage": {
        "encoding": "inplace",
        "label": "struct BridgeTracking.PeriodVotingMetric",
        "members": [
          {
            "astId": 23067,
            "contract": "contracts/ronin/gateway/BridgeTracking.sol:BridgeTracking",
            "label": "totalRequests",
            "offset": 0,
            "slot": "0",
            "type": "t_uint256"
          },
          {
            "astId": 23069,
            "contract": "contracts/ronin/gateway/BridgeTracking.sol:BridgeTracking",
            "label": "totalBallots",
            "offset": 0,
            "slot": "1",
            "type": "t_uint256"
          },
          {
            "astId": 23073,
            "contract": "contracts/ronin/gateway/BridgeTracking.sol:BridgeTracking",
            "label": "totalBallotsOf",
            "offset": 0,
            "slot": "2",
            "type": "t_mapping(t_address,t_uint256)"
          },
          {
            "astId": 23076,
            "contract": "contracts/ronin/gateway/BridgeTracking.sol:BridgeTracking",
            "label": "voters",
            "offset": 0,
            "slot": "3",
            "type": "t_array(t_address)dyn_storage"
          }
        ],
        "numberOfBytes": "128"
      },
      "t_struct(PeriodVotingMetricTimeWrapper)23087_storage": {
        "encoding": "inplace",
        "label": "struct BridgeTracking.PeriodVotingMetricTimeWrapper",
        "members": [
          {
            "astId": 23079,
            "contract": "contracts/ronin/gateway/BridgeTracking.sol:BridgeTracking",
            "label": "lastEpoch",
            "offset": 0,
            "slot": "0",
            "type": "t_uint256"
          },
          {
            "astId": 23083,
            "contract": "contracts/ronin/gateway/BridgeTracking.sol:BridgeTracking",
            "label": "requests",
            "offset": 0,
            "slot": "1",
            "type": "t_array(t_struct(Request)9220_storage)dyn_storage"
          },
          {
            "astId": 23086,
            "contract": "contracts/ronin/gateway/BridgeTracking.sol:BridgeTracking",
            "label": "data",
            "offset": 0,
            "slot": "2",
            "type": "t_struct(PeriodVotingMetric)23077_storage"
          }
        ],
        "numberOfBytes": "192"
      },
      "t_struct(ReceiptTrackingInfo)23103_storage": {
        "encoding": "inplace",
        "label": "struct BridgeTracking.ReceiptTrackingInfo",
        "members": [
          {
            "astId": 23090,
            "contract": "contracts/ronin/gateway/BridgeTracking.sol:BridgeTracking",
            "label": "approvedPeriod",
            "offset": 0,
            "slot": "0",
            "type": "t_uint256"
          },
          {
            "astId": 23094,
            "contract": "contracts/ronin/gateway/BridgeTracking.sol:BridgeTracking",
            "label": "voters",
            "offset": 0,
            "slot": "1",
            "type": "t_array(t_address)dyn_storage"
          },
          {
            "astId": 23099,
            "contract": "contracts/ronin/gateway/BridgeTracking.sol:BridgeTracking",
            "label": "voted",
            "offset": 0,
            "slot": "2",
            "type": "t_mapping(t_address,t_bool)"
          },
          {
            "astId": 23102,
            "contract": "contracts/ronin/gateway/BridgeTracking.sol:BridgeTracking",
            "label": "trackedPeriod",
            "offset": 0,
            "slot": "3",
            "type": "t_uint256"
          }
        ],
        "numberOfBytes": "128"
      },
      "t_struct(Request)9220_storage": {
        "encoding": "inplace",
        "label": "struct IBridgeTracking.Request",
        "members": [
          {
            "astId": 9217,
            "contract": "contracts/ronin/gateway/BridgeTracking.sol:BridgeTracking",
            "label": "kind",
            "offset": 0,
            "slot": "0",
            "type": "t_enum(VoteKind)9224"
          },
          {
            "astId": 9219,
            "contract": "contracts/ronin/gateway/BridgeTracking.sol:BridgeTracking",
            "label": "id",
            "offset": 0,
            "slot": "1",
            "type": "t_uint256"
          }
        ],
        "numberOfBytes": "64"
      },
      "t_uint256": {
        "encoding": "inplace",
        "label": "uint256",
        "numberOfBytes": "32"
      },
      "t_uint8": {
        "encoding": "inplace",
        "label": "uint8",
        "numberOfBytes": "1"
      }
    }
  }
}