{
  "address": "0x966b9ED76a48c1d46A8FF8fa2F901FE62895EA80",
  "abi": [
    {
      "inputs": [],
      "stateMutability": "nonpayable",
      "type": "constructor"
    },
    {
      "inputs": [],
      "name": "ErrCallerMustBeBridgeContract",
      "type": "error"
    },
    {
      "inputs": [],
      "name": "ErrCallerMustBeValidatorContract",
      "type": "error"
    },
    {
      "inputs": [],
      "name": "ErrZeroCodeContract",
      "type": "error"
    },
    {
      "anonymous": false,
      "inputs": [
        {
          "indexed": false,
          "internalType": "address",
          "name": "",
          "type": "address"
        }
      ],
      "name": "BridgeContractUpdated",
      "type": "event"
    },
    {
      "anonymous": false,
      "inputs": [
        {
          "indexed": false,
          "internalType": "uint8",
          "name": "version",
          "type": "uint8"
        }
      ],
      "name": "Initialized",
      "type": "event"
    },
    {
      "anonymous": false,
      "inputs": [
        {
          "indexed": false,
          "internalType": "address",
          "name": "",
          "type": "address"
        }
      ],
      "name": "ValidatorContractUpdated",
      "type": "event"
    },
    {
      "inputs": [],
      "name": "bridgeContract",
      "outputs": [
        {
          "internalType": "address",
          "name": "",
          "type": "address"
        }
      ],
      "stateMutability": "view",
      "type": "function"
    },
    {
      "inputs": [
        {
          "internalType": "uint256",
          "name": "_period",
          "type": "uint256"
        },
        {
          "internalType": "address[]",
          "name": "_bridgeOperators",
          "type": "address[]"
        }
      ],
      "name": "getManyTotalBallots",
      "outputs": [
        {
          "internalType": "uint256[]",
          "name": "_res",
          "type": "uint256[]"
        }
      ],
      "stateMutability": "view",
      "type": "function"
    },
    {
      "inputs": [
        {
          "internalType": "enum IBridgeTracking.VoteKind",
          "name": "_kind",
          "type": "uint8"
        },
        {
          "internalType": "uint256",
          "name": "_requestId",
          "type": "uint256"
        }
      ],
      "name": "handleVoteApproved",
      "outputs": [],
      "stateMutability": "nonpayable",
      "type": "function"
    },
    {
      "inputs": [
        {
          "internalType": "address",
          "name": "_bridgeContract",
          "type": "address"
        },
        {
          "internalType": "address",
          "name": "_validatorContract",
          "type": "address"
        },
        {
          "internalType": "uint256",
          "name": "_startedAtBlock",
          "type": "uint256"
        }
      ],
      "name": "initialize",
      "outputs": [],
      "stateMutability": "nonpayable",
      "type": "function"
    },
    {
      "inputs": [
        {
          "internalType": "enum IBridgeTracking.VoteKind",
          "name": "_kind",
          "type": "uint8"
        },
        {
          "internalType": "uint256",
          "name": "_requestId",
          "type": "uint256"
        },
        {
          "internalType": "address",
          "name": "_operator",
          "type": "address"
        }
      ],
      "name": "recordVote",
      "outputs": [],
      "stateMutability": "nonpayable",
      "type": "function"
    },
    {
      "inputs": [
        {
          "internalType": "address",
          "name": "_addr",
          "type": "address"
        }
      ],
      "name": "setBridgeContract",
      "outputs": [],
      "stateMutability": "nonpayable",
      "type": "function"
    },
    {
      "inputs": [
        {
          "internalType": "address",
          "name": "_addr",
          "type": "address"
        }
      ],
      "name": "setValidatorContract",
      "outputs": [],
      "stateMutability": "nonpayable",
      "type": "function"
    },
    {
      "inputs": [],
      "name": "startedAtBlock",
      "outputs": [
        {
          "internalType": "uint256",
          "name": "",
          "type": "uint256"
        }
      ],
      "stateMutability": "view",
      "type": "function"
    },
    {
      "inputs": [
        {
          "internalType": "uint256",
          "name": "_period",
          "type": "uint256"
        }
      ],
      "name": "totalBallots",
      "outputs": [
        {
          "internalType": "uint256",
          "name": "_totalBallots",
          "type": "uint256"
        }
      ],
      "stateMutability": "view",
      "type": "function"
    },
    {
      "inputs": [
        {
          "internalType": "uint256",
          "name": "_period",
          "type": "uint256"
        },
        {
          "internalType": "address",
          "name": "_bridgeOperator",
          "type": "address"
        }
      ],
      "name": "totalBallotsOf",
      "outputs": [
        {
          "internalType": "uint256",
          "name": "",
          "type": "uint256"
        }
      ],
      "stateMutability": "view",
      "type": "function"
    },
    {
      "inputs": [
        {
          "internalType": "uint256",
          "name": "_period",
          "type": "uint256"
        }
      ],
      "name": "totalVotes",
      "outputs": [
        {
          "internalType": "uint256",
          "name": "_totalVotes",
          "type": "uint256"
        }
      ],
      "stateMutability": "view",
      "type": "function"
    },
    {
      "inputs": [],
      "name": "validatorContract",
      "outputs": [
        {
          "internalType": "address",
          "name": "",
          "type": "address"
        }
      ],
      "stateMutability": "view",
      "type": "function"
    }
  ],
  "transactionHash": "0xb99c2c20ef70841d292b2fd818e382cabcd038e60e850c984bf55d4e0c12fb05",
  "args": [],
  "numDeployments": 4,
  "solcInputHash": "3c352db0d062e062f7c0c18610e9070b",
  "bytecode": "0x608060405234801561001057600080fd5b5061001961001e565b6100eb565b600154600160a81b900460ff161561008c5760405162461bcd60e51b815260206004820152602760248201527f496e697469616c697a61626c653a20636f6e747261637420697320696e697469604482015266616c697a696e6760c81b606482015260840160405180910390fd5b60015460ff600160a01b909104811610156100e9576001805460ff60a01b191660ff60a01b17905560405160ff81527f7f26b83ff96e1f2b6a682f133852f6798a09c465da95921460cefb38474024989060200160405180910390a15b565b611108806100fa6000396000f3fe608060405234801561001057600080fd5b50600436106100b45760003560e01c806399439089116100715780639943908914610140578063c7c4fea914610165578063cd59658314610178578063cdf64a7614610189578063f67e81521461019c578063f84bd121146101bc57600080fd5b806304375dcf146100b95780630b26cf66146100df5780631794bb3c146100f457806319e6e15814610107578063229f88ea1461011a578063889998ef1461012d575b600080fd5b6100cc6100c7366004610dec565b6101c5565b6040519081526020015b60405180910390f35b6100f26100ed366004610e18565b6101e3565b005b6100f2610102366004610e33565b61026c565b6100cc610115366004610e6f565b6103a6565b6100f2610128366004610e97565b6103dd565b6100cc61013b366004610e6f565b610571565b6001546001600160a01b03165b6040516001600160a01b0390911681526020016100d6565b6100f2610173366004610ec1565b6105a2565b6000546001600160a01b031661014d565b6100f2610197366004610e18565b6106f3565b6101af6101aa366004610efd565b610770565b6040516100d69190610f7c565b6100cc60085481565b60006101da83836101d586610838565b610957565b90505b92915050565b7fb53127684a568b3173ae13b9f8a6016e243e63b6e8ee1178d6a717850b5d6103546001600160a01b031633146102355760405162461bcd60e51b815260040161022c90610fc0565b60405180910390fd5b6000816001600160a01b03163b1161026057604051637bcd509160e01b815260040160405180910390fd5b610269816109b0565b50565b600154600160a81b900460ff1615808015610292575060018054600160a01b900460ff16105b806102b25750303b1580156102b2575060018054600160a01b900460ff16145b6103155760405162461bcd60e51b815260206004820152602e60248201527f496e697469616c697a61626c653a20636f6e747261637420697320616c72656160448201526d191e481a5b9a5d1a585b1a5e995960921b606482015260840161022c565b6001805460ff60a01b1916600160a01b1790558015610342576001805460ff60a81b1916600160a81b1790555b61034b846109b0565b61035483610a05565b600882905580156103a0576001805460ff60a81b191681556040519081527f7f26b83ff96e1f2b6a682f133852f6798a09c465da95921460cefb38474024989060200160405180910390a15b50505050565b6000818152600e6020526040812054906103bf83610838565b905080156103d757600a546103d49083611018565b91505b50919050565b336103f06000546001600160a01b031690565b6001600160a01b03161461041757604051631812f26f60e11b815260040160405180910390fd5b600854431061056d576000600f60008460028111156104385761043861102b565b60028111156104495761044961102b565b815260200190815260200160002060008381526020019081526020016000209050806000015460000361056b5761047e610a53565b6001546040805162c080c360e31b815290516000926001600160a01b03169163060406189160048083019260209291908290030181865afa1580156104c7573d6000803e3d6000fd5b505050506040513d601f19601f820116820180604052508101906104eb9190611041565b600a805491925060006104fd8361105a565b90915550508082556001820160005b815481101561055957610547868684848154811061052c5761052c611073565b6000918252602090912001546001600160a01b031686610c54565b806105518161105a565b91505061050c565b50610568600184016000610d9e565b50505b505b5050565b6000818152600e60205260408120600101549061058d83610838565b905080156103d757600b546103d49083611018565b336105b56000546001600160a01b031690565b6001600160a01b0316146105dc57604051631812f26f60e11b815260040160405180910390fd5b600854431061056b576001546040805162c080c360e31b815290516000926001600160a01b03169163060406189160048083019260209291908290030181865afa15801561062e573d6000803e3d6000fd5b505050506040513d601f19601f820116820180604052508101906106529190611041565b905061065c610a53565b6000600f60008660028111156106745761067461102b565b60028111156106855761068561102b565b81526020019081526020016000206000858152602001908152602001600020905080600001546000036106e7576001908101805491820181556000908152602090200180546001600160a01b0319166001600160a01b0384161790555061056b565b61056885858585610c54565b7fb53127684a568b3173ae13b9f8a6016e243e63b6e8ee1178d6a717850b5d6103546001600160a01b0316331461073c5760405162461bcd60e51b815260040161022c90610fc0565b806001600160a01b03163b60000361076757604051637bcd509160e01b815260040160405180910390fd5b61026981610a05565b60608167ffffffffffffffff81111561078b5761078b611089565b6040519080825280602002602001820160405280156107b4578160200160208202803683370190505b50905060006107c285610838565b905060005b8381101561082f57610800868686848181106107e5576107e5611073565b90506020020160208101906107fa9190610e18565b84610957565b83828151811061081257610812611073565b6020908102919091010152806108278161105a565b9150506107c7565b50509392505050565b60015460405163a3d545f560e01b815243600482015260009182916001600160a01b039091169063a3d545f590602401602060405180830381865afa158015610885573d6000803e3d6000fd5b505050506040513d601f19601f820116820180604052508101906108a99190611041565b6001805460095492935060009283926001600160a01b039092169163468c96ae916108d391611018565b6040518263ffffffff1660e01b81526004016108f191815260200190565b6040805180830381865afa15801561090d573d6000803e3d6000fd5b505050506040513d601f19601f82011682018060405250810190610931919061109f565b9150915081801561094157508085145b801561094e575060095483115b95945050505050565b6000838152600e602090815260408083206001600160a01b038616845260020190915290205481156109a9576001600160a01b0383166000908152600c60205260409020546109a69082611018565b90505b9392505050565b600080546001600160a01b0319166001600160a01b0383169081179091556040519081527f5cbd8a0bb00196365d5eb3457c6734e7f06666c3c78e5469b4c9deec7edae048906020015b60405180910390a150565b600180546001600160a01b0319166001600160a01b0383169081179091556040519081527fef40dc07567635f84f5edbd2f8dbc16b40d9d282dd8e7e6f4ff58236b6836169906020016109fa565b60015460405163a3d545f560e01b81524360048201526000916001600160a01b03169063a3d545f590602401602060405180830381865afa158015610a9c573d6000803e3d6000fd5b505050506040513d601f19601f82011682018060405250810190610ac09190611041565b905080600960000154101561026957600180546009546000926001600160a01b039092169163468c96ae91610af491611018565b6040518263ffffffff1660e01b8152600401610b1291815260200190565b6040805180830381865afa158015610b2e573d6000803e3d6000fd5b505050506040513d601f19601f82011682018060405250810190610b52919061109f565b6000818152600e60205260408120600a54815493955090935091839190610b7a908490611018565b9091555050600b54600182018054600090610b96908490611018565b9091555060009050805b600d54811015610c2e57600d805482908110610bbe57610bbe611073565b60009182526020808320909101546001600160a01b0316808352600c82526040808420546002880190935283208054919550919290610bfe908490611018565b90915550506001600160a01b0382166000908152600c602052604081205580610c268161105a565b915050610ba0565b506000600a818155600b82905590610c47600d82610d9e565b5050506009839055505050565b6000600f6000866002811115610c6c57610c6c61102b565b6002811115610c7d57610c7d61102b565b81526020808201929092526040908101600090812087825283528181206001600160a01b038716825260028101909352205490915060ff1615610cc057506103a0565b6001600160a01b03831660009081526002820160205260409020805460ff191660011790558054829003610568576001600160a01b0383166000908152600c60205260408120549003610d5957600d80546001810182556000919091527fd7b6990105719101dabeb77144f2a3385c8033acd3af97e9423a695e81ad1eb50180546001600160a01b0319166001600160a01b0385161790555b600b8054906000610d698361105a565b90915550506001600160a01b0383166000908152600c60205260408120805491610d928361105a565b91905055505050505050565b508054600082559060005260206000209081019061026991905b80821115610dcc5760008155600101610db8565b5090565b80356001600160a01b0381168114610de757600080fd5b919050565b60008060408385031215610dff57600080fd5b82359150610e0f60208401610dd0565b90509250929050565b600060208284031215610e2a57600080fd5b6101da82610dd0565b600080600060608486031215610e4857600080fd5b610e5184610dd0565b9250610e5f60208501610dd0565b9150604084013590509250925092565b600060208284031215610e8157600080fd5b5035919050565b803560038110610de757600080fd5b60008060408385031215610eaa57600080fd5b610eb383610e88565b946020939093013593505050565b600080600060608486031215610ed657600080fd5b610edf84610e88565b925060208401359150610ef460408501610dd0565b90509250925092565b600080600060408486031215610f1257600080fd5b83359250602084013567ffffffffffffffff80821115610f3157600080fd5b818601915086601f830112610f4557600080fd5b813581811115610f5457600080fd5b8760208260051b8501011115610f6957600080fd5b6020830194508093505050509250925092565b6020808252825182820181905260009190848201906040850190845b81811015610fb457835183529284019291840191600101610f98565b50909695505050505050565b60208082526022908201527f48617350726f787941646d696e3a20756e617574686f72697a65642073656e6460408201526132b960f11b606082015260800190565b634e487b7160e01b600052601160045260246000fd5b808201808211156101dd576101dd611002565b634e487b7160e01b600052602160045260246000fd5b60006020828403121561105357600080fd5b5051919050565b60006001820161106c5761106c611002565b5060010190565b634e487b7160e01b600052603260045260246000fd5b634e487b7160e01b600052604160045260246000fd5b600080604083850312156110b257600080fd5b825180151581146110c257600080fd5b602093909301519294929350505056fea2646970667358221220034c5395fa269de01ab3a4178ecf422488f553e0593cc490248a294c0dad6add64736f6c63430008110033",
  "devdoc": {
    "errors": {
      "ErrCallerMustBeBridgeContract()": [
        {
          "details": "Error of method caller must be bridge contract."
        }
      ],
      "ErrCallerMustBeValidatorContract()": [
        {
          "details": "Error of method caller must be validator contract."
        }
      ],
      "ErrZeroCodeContract()": [
        {
          "details": "Error of set to non-contract."
        }
      ]
    },
    "kind": "dev",
    "methods": {
      "bridgeContract()": {
        "details": "Returns the bridge contract."
      },
      "getManyTotalBallots(uint256,address[])": {
        "details": "Returns the total number of ballots of bridge operators at the specific period `_period`."
      },
      "handleVoteApproved(uint8,uint256)": {
        "details": "Handles the request once it is approved. Requirements: - The method caller is the bridge contract."
      },
      "initialize(address,address,uint256)": {
        "details": "Initializes the contract storage."
      },
      "recordVote(uint8,uint256,address)": {
        "details": "Records vote for a receipt and a operator. Requirements: - The method caller is the bridge contract."
      },
      "setBridgeContract(address)": {
        "details": "Sets the bridge contract. Requirements: - The method caller is admin. - The new address is a contract. Emits the event `BridgeContractUpdated`."
      },
      "setValidatorContract(address)": {
        "details": "Sets the validator contract. Requirements: - The method caller is admin. - The new address is a contract. Emits the event `ValidatorContractUpdated`."
      },
      "totalBallots(uint256)": {
        "details": "Returns the total number of ballots at the specific period `_period`."
      },
      "totalBallotsOf(uint256,address)": {
        "details": "Returns the total number of ballots of a bridge operator at the specific period `_period`."
      },
      "totalVotes(uint256)": {
        "details": "Returns the total number of votes at the specific period `_period`."
      },
      "validatorContract()": {
        "details": "Returns the validator contract."
      }
    },
    "stateVariables": {
      "__deprecated": {
        "details": "Deprecated slots."
      },
      "_periodStats": {
        "details": "Mapping from period number => vote stats based on period"
      },
      "_receiptStats": {
        "details": "Mapping from vote kind => receipt id => receipt stats"
      },
      "_temporaryStats": {
        "details": "The temporary info of votes and ballots"
      },
      "startedAtBlock": {
        "details": "The block that the contract allows incoming mutable calls."
      }
    },
    "version": 1
  },
  "userdoc": {
    "kind": "user",
    "methods": {},
    "version": 1
  },
  "storageLayout": {
    "storage": [
      {
        "astId": 5797,
        "contract": "contracts/ronin/BridgeTracking.sol:BridgeTracking",
        "label": "_bridgeContract",
        "offset": 0,
        "slot": "0",
        "type": "t_contract(IBridge)9270"
      },
      {
        "astId": 6462,
        "contract": "contracts/ronin/BridgeTracking.sol:BridgeTracking",
        "label": "_validatorContract",
        "offset": 0,
        "slot": "1",
        "type": "t_contract(IRoninValidatorSet)11978"
      },
      {
        "astId": 1373,
        "contract": "contracts/ronin/BridgeTracking.sol:BridgeTracking",
        "label": "_initialized",
        "offset": 20,
        "slot": "1",
        "type": "t_uint8"
      },
      {
        "astId": 1376,
        "contract": "contracts/ronin/BridgeTracking.sol:BridgeTracking",
        "label": "_initializing",
        "offset": 21,
        "slot": "1",
        "type": "t_bool"
      },
      {
        "astId": 20352,
        "contract": "contracts/ronin/BridgeTracking.sol:BridgeTracking",
        "label": "__deprecated",
        "offset": 0,
        "slot": "2",
        "type": "t_array(t_uint256)6_storage"
      },
      {
        "astId": 20355,
        "contract": "contracts/ronin/BridgeTracking.sol:BridgeTracking",
        "label": "startedAtBlock",
        "offset": 0,
        "slot": "8",
        "type": "t_uint256"
      },
      {
        "astId": 20359,
        "contract": "contracts/ronin/BridgeTracking.sol:BridgeTracking",
        "label": "_temporaryStats",
        "offset": 0,
        "slot": "9",
        "type": "t_struct(VoteStatsTimeWrapper)20337_storage"
      },
      {
        "astId": 20365,
        "contract": "contracts/ronin/BridgeTracking.sol:BridgeTracking",
        "label": "_periodStats",
        "offset": 0,
        "slot": "14",
        "type": "t_mapping(t_uint256,t_struct(VoteStats)20331_storage)"
      },
      {
        "astId": 20374,
        "contract": "contracts/ronin/BridgeTracking.sol:BridgeTracking",
        "label": "_receiptStats",
        "offset": 0,
        "slot": "15",
        "type": "t_mapping(t_enum(VoteKind)9276,t_mapping(t_uint256,t_struct(ReceiptStats)20347_storage))"
      }
    ],
    "types": {
      "t_address": {
        "encoding": "inplace",
        "label": "address",
        "numberOfBytes": "20"
      },
      "t_array(t_address)dyn_storage": {
        "base": "t_address",
        "encoding": "dynamic_array",
        "label": "address[]",
        "numberOfBytes": "32"
      },
      "t_array(t_uint256)6_storage": {
        "base": "t_uint256",
        "encoding": "inplace",
        "label": "uint256[6]",
        "numberOfBytes": "192"
      },
      "t_bool": {
        "encoding": "inplace",
        "label": "bool",
        "numberOfBytes": "1"
      },
      "t_contract(IBridge)9270": {
        "encoding": "inplace",
        "label": "contract IBridge",
        "numberOfBytes": "20"
      },
      "t_contract(IRoninValidatorSet)11978": {
        "encoding": "inplace",
        "label": "contract IRoninValidatorSet",
        "numberOfBytes": "20"
      },
      "t_enum(VoteKind)9276": {
        "encoding": "inplace",
        "label": "enum IBridgeTracking.VoteKind",
        "numberOfBytes": "1"
      },
      "t_mapping(t_address,t_bool)": {
        "encoding": "mapping",
        "key": "t_address",
        "label": "mapping(address => bool)",
        "numberOfBytes": "32",
        "value": "t_bool"
      },
      "t_mapping(t_address,t_uint256)": {
        "encoding": "mapping",
        "key": "t_address",
        "label": "mapping(address => uint256)",
        "numberOfBytes": "32",
        "value": "t_uint256"
      },
      "t_mapping(t_enum(VoteKind)9276,t_mapping(t_uint256,t_struct(ReceiptStats)20347_storage))": {
        "encoding": "mapping",
        "key": "t_enum(VoteKind)9276",
        "label": "mapping(enum IBridgeTracking.VoteKind => mapping(uint256 => struct BridgeTracking.ReceiptStats))",
        "numberOfBytes": "32",
        "value": "t_mapping(t_uint256,t_struct(ReceiptStats)20347_storage)"
      },
      "t_mapping(t_uint256,t_struct(ReceiptStats)20347_storage)": {
        "encoding": "mapping",
        "key": "t_uint256",
        "label": "mapping(uint256 => struct BridgeTracking.ReceiptStats)",
        "numberOfBytes": "32",
        "value": "t_struct(ReceiptStats)20347_storage"
      },
      "t_mapping(t_uint256,t_struct(VoteStats)20331_storage)": {
        "encoding": "mapping",
        "key": "t_uint256",
        "label": "mapping(uint256 => struct BridgeTracking.VoteStats)",
        "numberOfBytes": "32",
        "value": "t_struct(VoteStats)20331_storage"
      },
      "t_struct(ReceiptStats)20347_storage": {
        "encoding": "inplace",
        "label": "struct BridgeTracking.ReceiptStats",
        "members": [
          {
            "astId": 20339,
            "contract": "contracts/ronin/BridgeTracking.sol:BridgeTracking",
            "label": "approvedPeriod",
            "offset": 0,
            "slot": "0",
            "type": "t_uint256"
          },
          {
            "astId": 20342,
            "contract": "contracts/ronin/BridgeTracking.sol:BridgeTracking",
            "label": "voters",
            "offset": 0,
            "slot": "1",
            "type": "t_array(t_address)dyn_storage"
          },
          {
            "astId": 20346,
            "contract": "contracts/ronin/BridgeTracking.sol:BridgeTracking",
            "label": "voted",
            "offset": 0,
            "slot": "2",
            "type": "t_mapping(t_address,t_bool)"
          }
        ],
        "numberOfBytes": "96"
      },
      "t_struct(VoteStats)20331_storage": {
        "encoding": "inplace",
        "label": "struct BridgeTracking.VoteStats",
        "members": [
          {
            "astId": 20321,
            "contract": "contracts/ronin/BridgeTracking.sol:BridgeTracking",
            "label": "totalVotes",
            "offset": 0,
            "slot": "0",
            "type": "t_uint256"
          },
          {
            "astId": 20323,
            "contract": "contracts/ronin/BridgeTracking.sol:BridgeTracking",
            "label": "totalBallots",
            "offset": 0,
            "slot": "1",
            "type": "t_uint256"
          },
          {
            "astId": 20327,
            "contract": "contracts/ronin/BridgeTracking.sol:BridgeTracking",
            "label": "totalBallotsOf",
            "offset": 0,
            "slot": "2",
            "type": "t_mapping(t_address,t_uint256)"
          },
          {
            "astId": 20330,
            "contract": "contracts/ronin/BridgeTracking.sol:BridgeTracking",
            "label": "voters",
            "offset": 0,
            "slot": "3",
            "type": "t_array(t_address)dyn_storage"
          }
        ],
        "numberOfBytes": "128"
      },
      "t_struct(VoteStatsTimeWrapper)20337_storage": {
        "encoding": "inplace",
        "label": "struct BridgeTracking.VoteStatsTimeWrapper",
        "members": [
          {
            "astId": 20333,
            "contract": "contracts/ronin/BridgeTracking.sol:BridgeTracking",
            "label": "lastEpoch",
            "offset": 0,
            "slot": "0",
            "type": "t_uint256"
          },
          {
            "astId": 20336,
            "contract": "contracts/ronin/BridgeTracking.sol:BridgeTracking",
            "label": "info",
            "offset": 0,
            "slot": "1",
            "type": "t_struct(VoteStats)20331_storage"
          }
        ],
        "numberOfBytes": "160"
      },
      "t_uint256": {
        "encoding": "inplace",
        "label": "uint256",
        "numberOfBytes": "32"
      },
      "t_uint8": {
        "encoding": "inplace",
        "label": "uint8",
        "numberOfBytes": "1"
      }
    }
  }
}