{
  "address": "0x366D5C95CE8Da388C7401b11Fd88C0bd1bCBc649",
  "abi": [
    {
      "inputs": [
        {
          "internalType": "address[]",
          "name": "_targets",
          "type": "address[]"
        },
        {
          "internalType": "address",
          "name": "_admin",
          "type": "address"
        },
        {
          "internalType": "address",
          "name": "_moderator",
          "type": "address"
        }
      ],
      "stateMutability": "payable",
      "type": "constructor"
    },
    {
      "anonymous": false,
      "inputs": [
        {
          "indexed": true,
          "internalType": "bytes32",
          "name": "role",
          "type": "bytes32"
        },
        {
          "indexed": true,
          "internalType": "bytes32",
          "name": "previousAdminRole",
          "type": "bytes32"
        },
        {
          "indexed": true,
          "internalType": "bytes32",
          "name": "newAdminRole",
          "type": "bytes32"
        }
      ],
      "name": "RoleAdminChanged",
      "type": "event"
    },
    {
      "anonymous": false,
      "inputs": [
        {
          "indexed": true,
          "internalType": "bytes32",
          "name": "role",
          "type": "bytes32"
        },
        {
          "indexed": true,
          "internalType": "address",
          "name": "account",
          "type": "address"
        },
        {
          "indexed": true,
          "internalType": "address",
          "name": "sender",
          "type": "address"
        }
      ],
      "name": "RoleGranted",
      "type": "event"
    },
    {
      "anonymous": false,
      "inputs": [
        {
          "indexed": true,
          "internalType": "bytes32",
          "name": "role",
          "type": "bytes32"
        },
        {
          "indexed": true,
          "internalType": "address",
          "name": "account",
          "type": "address"
        },
        {
          "indexed": true,
          "internalType": "address",
          "name": "sender",
          "type": "address"
        }
      ],
      "name": "RoleRevoked",
      "type": "event"
    },
    {
      "stateMutability": "payable",
      "type": "fallback"
    },
    {
      "inputs": [],
      "name": "DEFAULT_ADMIN_ROLE",
      "outputs": [
        {
          "internalType": "bytes32",
          "name": "",
          "type": "bytes32"
        }
      ],
      "stateMutability": "view",
      "type": "function"
    },
    {
      "inputs": [],
      "name": "MODERATOR_ROLE",
      "outputs": [
        {
          "internalType": "bytes32",
          "name": "",
          "type": "bytes32"
        }
      ],
      "stateMutability": "view",
      "type": "function"
    },
    {
      "inputs": [],
      "name": "TARGET_ROLE",
      "outputs": [
        {
          "internalType": "bytes32",
          "name": "",
          "type": "bytes32"
        }
      ],
      "stateMutability": "view",
      "type": "function"
    },
    {
      "inputs": [
        {
          "internalType": "address",
          "name": "_target",
          "type": "address"
        },
        {
          "internalType": "bytes",
          "name": "_data",
          "type": "bytes"
        },
        {
          "internalType": "uint256",
          "name": "_val",
          "type": "uint256"
        }
      ],
      "name": "functionCall",
      "outputs": [],
      "stateMutability": "payable",
      "type": "function"
    },
    {
      "inputs": [
        {
          "internalType": "bytes32",
          "name": "role",
          "type": "bytes32"
        }
      ],
      "name": "getRoleAdmin",
      "outputs": [
        {
          "internalType": "bytes32",
          "name": "",
          "type": "bytes32"
        }
      ],
      "stateMutability": "view",
      "type": "function"
    },
    {
      "inputs": [
        {
          "internalType": "bytes32",
          "name": "role",
          "type": "bytes32"
        },
        {
          "internalType": "uint256",
          "name": "index",
          "type": "uint256"
        }
      ],
      "name": "getRoleMember",
      "outputs": [
        {
          "internalType": "address",
          "name": "",
          "type": "address"
        }
      ],
      "stateMutability": "view",
      "type": "function"
    },
    {
      "inputs": [
        {
          "internalType": "bytes32",
          "name": "role",
          "type": "bytes32"
        }
      ],
      "name": "getRoleMemberCount",
      "outputs": [
        {
          "internalType": "uint256",
          "name": "",
          "type": "uint256"
        }
      ],
      "stateMutability": "view",
      "type": "function"
    },
    {
      "inputs": [
        {
          "internalType": "bytes32",
          "name": "role",
          "type": "bytes32"
        },
        {
          "internalType": "address",
          "name": "account",
          "type": "address"
        }
      ],
      "name": "grantRole",
      "outputs": [],
      "stateMutability": "nonpayable",
      "type": "function"
    },
    {
      "inputs": [
        {
          "internalType": "bytes32",
          "name": "role",
          "type": "bytes32"
        },
        {
          "internalType": "address",
          "name": "account",
          "type": "address"
        }
      ],
      "name": "hasRole",
      "outputs": [
        {
          "internalType": "bool",
          "name": "",
          "type": "bool"
        }
      ],
      "stateMutability": "view",
      "type": "function"
    },
    {
      "inputs": [
        {
          "internalType": "bytes32",
          "name": "role",
          "type": "bytes32"
        },
        {
          "internalType": "address",
          "name": "account",
          "type": "address"
        }
      ],
      "name": "renounceRole",
      "outputs": [],
      "stateMutability": "nonpayable",
      "type": "function"
    },
    {
      "inputs": [
        {
          "internalType": "bytes32",
          "name": "role",
          "type": "bytes32"
        },
        {
          "internalType": "address",
          "name": "account",
          "type": "address"
        }
      ],
      "name": "revokeRole",
      "outputs": [],
      "stateMutability": "nonpayable",
      "type": "function"
    },
    {
      "inputs": [
        {
          "internalType": "bytes4",
          "name": "interfaceId",
          "type": "bytes4"
        }
      ],
      "name": "supportsInterface",
      "outputs": [
        {
          "internalType": "bool",
          "name": "",
          "type": "bool"
        }
      ],
      "stateMutability": "view",
      "type": "function"
    },
    {
      "stateMutability": "payable",
      "type": "receive"
    }
  ],
  "transactionHash": "0x18fa35c329371b54180f80522674015e55b47b69d7c3081a190f410b62d92bd5",
  "args": [
    [
      "0x4016C80D97DDCbe4286140446759a3f0c1d20584",
      "0x9C245671791834daf3885533D24dce516B763B28"
    ],
    "0x968D0Cd7343f711216817E617d3f92a23dC91c07",
    "0x0000000000000000000000000000000000000000"
  ],
  "numDeployments": 1,
  "solcInputHash": "95f7f074e14fa276eae26f8589bbed19",
  "bytecode": "0x60806040526040516200118c3803806200118c833981016040819052620000269162000271565b60005b83518110156200009657620000817f7eae605229c67d878c4d7fbf24379ada222941e36ec4e2a7c261d740a528b16f8583815181106200006d576200006d62000369565b6020026020010151620000d960201b60201c565b806200008d816200037f565b91505062000029565b50620000a4600083620000d9565b620000d07f71f3d55856e4058ed06ee057d79ada615f65cdf5f9ee88181b914225088f834f82620000d9565b505050620003a7565b620000e58282620000e9565b5050565b6200010082826200012c60201b620004a81760201c565b6000828152600160209081526040909120620001279183906200052c620001cc821b17901c565b505050565b6000828152602081815260408083206001600160a01b038516845290915290205460ff16620000e5576000828152602081815260408083206001600160a01b03851684529091529020805460ff19166001179055620001883390565b6001600160a01b0316816001600160a01b0316837f2f8788117e7eff1d82e926ec794901d17c78024a50270940304540a733656f0d60405160405180910390a45050565b6000620001e3836001600160a01b038416620001ec565b90505b92915050565b60008181526001830160205260408120546200023557508154600181810184556000848152602080822090930184905584548482528286019093526040902091909155620001e6565b506000620001e6565b634e487b7160e01b600052604160045260246000fd5b80516001600160a01b03811681146200026c57600080fd5b919050565b6000806000606084860312156200028757600080fd5b83516001600160401b03808211156200029f57600080fd5b818601915086601f830112620002b457600080fd5b8151602082821115620002cb57620002cb6200023e565b8160051b604051601f19603f83011681018181108682111715620002f357620002f36200023e565b60405292835281830193508481018201928a8411156200031257600080fd5b948201945b838610156200033b576200032b8662000254565b8552948201949382019362000317565b97506200034c905088820162000254565b955050505050620003606040850162000254565b90509250925092565b634e487b7160e01b600052603260045260246000fd5b600060018201620003a057634e487b7160e01b600052601160045260246000fd5b5060010190565b610dd580620003b76000396000f3fe6080604052600436106100a55760003560e01c80638080d2a6116100615780638080d2a6146101a85780639010d07c146101dc57806391d1485414610214578063a217fddf14610234578063ca15c87314610249578063d547741f1461026957005b806301ffc9a7146100ae578063248a9ca3146100e35780632f2ff15d1461012157806336568abe146101415780634a94d48714610161578063797669c91461017457005b366100ac57005b005b3480156100ba57600080fd5b506100ce6100c9366004610a93565b610289565b60405190151581526020015b60405180910390f35b3480156100ef57600080fd5b506101136100fe366004610abd565b60009081526020819052604090206001015490565b6040519081526020016100da565b34801561012d57600080fd5b506100ac61013c366004610af2565b6102b4565b34801561014d57600080fd5b506100ac61015c366004610af2565b6102de565b6100ac61016f366004610b34565b610361565b34801561018057600080fd5b506101137f71f3d55856e4058ed06ee057d79ada615f65cdf5f9ee88181b914225088f834f81565b3480156101b457600080fd5b506101137f7eae605229c67d878c4d7fbf24379ada222941e36ec4e2a7c261d740a528b16f81565b3480156101e857600080fd5b506101fc6101f7366004610bff565b610424565b6040516001600160a01b0390911681526020016100da565b34801561022057600080fd5b506100ce61022f366004610af2565b610443565b34801561024057600080fd5b50610113600081565b34801561025557600080fd5b50610113610264366004610abd565b61046c565b34801561027557600080fd5b506100ac610284366004610af2565b610483565b60006001600160e01b03198216635a05180f60e01b14806102ae57506102ae82610541565b92915050565b6000828152602081905260409020600101546102cf81610576565b6102d98383610583565b505050565b6001600160a01b03811633146103535760405162461bcd60e51b815260206004820152602f60248201527f416363657373436f6e74726f6c3a2063616e206f6e6c792072656e6f756e636560448201526e103937b632b9903337b91039b2b63360891b60648201526084015b60405180910390fd5b61035d82826105a5565b5050565b8261038c7f7eae605229c67d878c4d7fbf24379ada222941e36ec4e2a7c261d740a528b16f826105c7565b7f71f3d55856e4058ed06ee057d79ada615f65cdf5f9ee88181b914225088f834f6103b681610576565b478311156104125760405162461bcd60e51b815260206004820152602360248201527f466f727761726465723a20696e76616c696420666f7277617264696e672076616044820152626c756560e81b606482015260840161034a565b61041d85858561062b565b5050505050565b600082815260016020526040812061043c90836106fb565b9392505050565b6000918252602082815260408084206001600160a01b0393909316845291905290205460ff1690565b60008181526001602052604081206102ae90610707565b60008281526020819052604090206001015461049e81610576565b6102d983836105a5565b6104b28282610443565b61035d576000828152602081815260408083206001600160a01b03851684529091529020805460ff191660011790556104e83390565b6001600160a01b0316816001600160a01b0316837f2f8788117e7eff1d82e926ec794901d17c78024a50270940304540a733656f0d60405160405180910390a45050565b600061043c836001600160a01b038416610711565b60006001600160e01b03198216637965db0b60e01b14806102ae57506301ffc9a760e01b6001600160e01b03198316146102ae565b61058081336105c7565b50565b61058d82826104a8565b60008281526001602052604090206102d9908261052c565b6105af8282610760565b60008281526001602052604090206102d990826107c5565b6105d18282610443565b61035d576105e9816001600160a01b031660146107da565b6105f48360206107da565b604051602001610605929190610c45565b60408051601f198184030181529082905262461bcd60e51b825261034a91600401610cba565b600080846001600160a01b031683856040516106479190610ced565b60006040518083038185875af1925050503d8060008114610684576040519150601f19603f3d011682016040523d82523d6000602084013e610689565b606091505b50915091508161041d57805160048110156106f15760405162461bcd60e51b815260206004820152602260248201527f466f727761726465723a2074617267657420726576657274732073696c656e746044820152616c7960f01b606482015260840161034a565b6020820191508082fd5b600061043c8383610976565b60006102ae825490565b6000818152600183016020526040812054610758575081546001818101845560008481526020808220909301849055845484825282860190935260409020919091556102ae565b5060006102ae565b61076a8282610443565b1561035d576000828152602081815260408083206001600160a01b0385168085529252808320805460ff1916905551339285917ff6391f5c32d9c69d2a47ea670b442974b53935d1edc7fd64eb21e047a839171b9190a45050565b600061043c836001600160a01b0384166109a0565b606060006107e9836002610d1f565b6107f4906002610d36565b67ffffffffffffffff81111561080c5761080c610b1e565b6040519080825280601f01601f191660200182016040528015610836576020820181803683370190505b509050600360fc1b8160008151811061085157610851610d49565b60200101906001600160f81b031916908160001a905350600f60fb1b8160018151811061088057610880610d49565b60200101906001600160f81b031916908160001a90535060006108a4846002610d1f565b6108af906001610d36565b90505b6001811115610927576f181899199a1a9b1b9c1cb0b131b232b360811b85600f16601081106108e3576108e3610d49565b1a60f81b8282815181106108f9576108f9610d49565b60200101906001600160f81b031916908160001a90535060049490941c9361092081610d5f565b90506108b2565b50831561043c5760405162461bcd60e51b815260206004820181905260248201527f537472696e67733a20686578206c656e67746820696e73756666696369656e74604482015260640161034a565b600082600001828154811061098d5761098d610d49565b9060005260206000200154905092915050565b60008181526001830160205260408120548015610a895760006109c4600183610d76565b85549091506000906109d890600190610d76565b9050818114610a3d5760008660000182815481106109f8576109f8610d49565b9060005260206000200154905080876000018481548110610a1b57610a1b610d49565b6000918252602080832090910192909255918252600188019052604090208390555b8554869080610a4e57610a4e610d89565b6001900381819060005260206000200160009055905585600101600086815260200190815260200160002060009055600193505050506102ae565b60009150506102ae565b600060208284031215610aa557600080fd5b81356001600160e01b03198116811461043c57600080fd5b600060208284031215610acf57600080fd5b5035919050565b80356001600160a01b0381168114610aed57600080fd5b919050565b60008060408385031215610b0557600080fd5b82359150610b1560208401610ad6565b90509250929050565b634e487b7160e01b600052604160045260246000fd5b600080600060608486031215610b4957600080fd5b610b5284610ad6565b9250602084013567ffffffffffffffff80821115610b6f57600080fd5b818601915086601f830112610b8357600080fd5b813581811115610b9557610b95610b1e565b604051601f8201601f19908116603f01168101908382118183101715610bbd57610bbd610b1e565b81604052828152896020848701011115610bd657600080fd5b826020860160208301376000602084830101528096505050505050604084013590509250925092565b60008060408385031215610c1257600080fd5b50508035926020909101359150565b60005b83811015610c3c578181015183820152602001610c24565b50506000910152565b7f416363657373436f6e74726f6c3a206163636f756e7420000000000000000000815260008351610c7d816017850160208801610c21565b7001034b99036b4b9b9b4b733903937b6329607d1b6017918401918201528351610cae816028840160208801610c21565b01602801949350505050565b6020815260008251806020840152610cd9816040850160208701610c21565b601f01601f19169190910160400192915050565b60008251610cff818460208701610c21565b9190910192915050565b634e487b7160e01b600052601160045260246000fd5b80820281158282048414176102ae576102ae610d09565b808201808211156102ae576102ae610d09565b634e487b7160e01b600052603260045260246000fd5b600081610d6e57610d6e610d09565b506000190190565b818103818111156102ae576102ae610d09565b634e487b7160e01b600052603160045260246000fdfea2646970667358221220499c2a8e942e2ff9a9a5d4a16768c4e28ac5625fe1aa96edb4bf9f22e1ba8c7164736f6c63430008110033",
  "devdoc": {
    "kind": "dev",
    "methods": {
      "constructor": {
        "details": "Initializes the forwarder with an initial target address and a contract admin."
      },
      "functionCall(address,bytes,uint256)": {
        "details": "Forwards the encoded call specified by `_data` to the target. The forwarder attachs `_val` value from the forwarder contract and sends along with the call. Requirements: - Only target with {TARGET_ROLE} can be called to. - Only user with {MODERATOR_ROLE} can call this method."
      },
      "getRoleAdmin(bytes32)": {
        "details": "Returns the admin role that controls `role`. See {grantRole} and {revokeRole}. To change a role's admin, use {_setRoleAdmin}."
      },
      "getRoleMember(bytes32,uint256)": {
        "details": "Returns one of the accounts that have `role`. `index` must be a value between 0 and {getRoleMemberCount}, non-inclusive. Role bearers are not sorted in any particular way, and their ordering may change at any point. WARNING: When using {getRoleMember} and {getRoleMemberCount}, make sure you perform all queries on the same block. See the following https://forum.openzeppelin.com/t/iterating-over-elements-on-enumerableset-in-openzeppelin-contracts/2296[forum post] for more information."
      },
      "getRoleMemberCount(bytes32)": {
        "details": "Returns the number of accounts that have `role`. Can be used together with {getRoleMember} to enumerate all bearers of a role."
      },
      "grantRole(bytes32,address)": {
        "details": "Grants `role` to `account`. If `account` had not been already granted `role`, emits a {RoleGranted} event. Requirements: - the caller must have ``role``'s admin role. May emit a {RoleGranted} event."
      },
      "hasRole(bytes32,address)": {
        "details": "Returns `true` if `account` has been granted `role`."
      },
      "renounceRole(bytes32,address)": {
        "details": "Revokes `role` from the calling account. Roles are often managed via {grantRole} and {revokeRole}: this function's purpose is to provide a mechanism for accounts to lose their privileges if they are compromised (such as when a trusted device is misplaced). If the calling account had been revoked `role`, emits a {RoleRevoked} event. Requirements: - the caller must be `account`. May emit a {RoleRevoked} event."
      },
      "revokeRole(bytes32,address)": {
        "details": "Revokes `role` from `account`. If `account` had been granted `role`, emits a {RoleRevoked} event. Requirements: - the caller must have ``role``'s admin role. May emit a {RoleRevoked} event."
      },
      "supportsInterface(bytes4)": {
        "details": "See {IERC165-supportsInterface}."
      }
    },
    "stateVariables": {
      "MODERATOR_ROLE": {
        "details": "Only user with moderator role can invoke {functionCall} method to forward the call to the target."
      },
      "TARGET_ROLE": {
        "details": "The target contracts must be registerred by the admin before called to. The admin can register the targets at the contract construction or by assigning {TARGET_ROLE} to the target addresses."
      }
    },
    "version": 1
  },
  "userdoc": {
    "kind": "user",
    "methods": {},
    "version": 1
  },
  "storageLayout": {
    "storage": [
      {
        "astId": 24,
        "contract": "contracts/extensions/forwarder/Forwarder.sol:Forwarder",
        "label": "_roles",
        "offset": 0,
        "slot": "0",
        "type": "t_mapping(t_bytes32,t_struct(RoleData)19_storage)"
      },
      {
        "astId": 338,
        "contract": "contracts/extensions/forwarder/Forwarder.sol:Forwarder",
        "label": "_roleMembers",
        "offset": 0,
        "slot": "1",
        "type": "t_mapping(t_bytes32,t_struct(AddressSet)4026_storage)"
      }
    ],
    "types": {
      "t_address": {
        "encoding": "inplace",
        "label": "address",
        "numberOfBytes": "20"
      },
      "t_array(t_bytes32)dyn_storage": {
        "base": "t_bytes32",
        "encoding": "dynamic_array",
        "label": "bytes32[]",
        "numberOfBytes": "32"
      },
      "t_bool": {
        "encoding": "inplace",
        "label": "bool",
        "numberOfBytes": "1"
      },
      "t_bytes32": {
        "encoding": "inplace",
        "label": "bytes32",
        "numberOfBytes": "32"
      },
      "t_mapping(t_address,t_bool)": {
        "encoding": "mapping",
        "key": "t_address",
        "label": "mapping(address => bool)",
        "numberOfBytes": "32",
        "value": "t_bool"
      },
      "t_mapping(t_bytes32,t_struct(AddressSet)4026_storage)": {
        "encoding": "mapping",
        "key": "t_bytes32",
        "label": "mapping(bytes32 => struct EnumerableSet.AddressSet)",
        "numberOfBytes": "32",
        "value": "t_struct(AddressSet)4026_storage"
      },
      "t_mapping(t_bytes32,t_struct(RoleData)19_storage)": {
        "encoding": "mapping",
        "key": "t_bytes32",
        "label": "mapping(bytes32 => struct AccessControl.RoleData)",
        "numberOfBytes": "32",
        "value": "t_struct(RoleData)19_storage"
      },
      "t_mapping(t_bytes32,t_uint256)": {
        "encoding": "mapping",
        "key": "t_bytes32",
        "label": "mapping(bytes32 => uint256)",
        "numberOfBytes": "32",
        "value": "t_uint256"
      },
      "t_struct(AddressSet)4026_storage": {
        "encoding": "inplace",
        "label": "struct EnumerableSet.AddressSet",
        "members": [
          {
            "astId": 4025,
            "contract": "contracts/extensions/forwarder/Forwarder.sol:Forwarder",
            "label": "_inner",
            "offset": 0,
            "slot": "0",
            "type": "t_struct(Set)3725_storage"
          }
        ],
        "numberOfBytes": "64"
      },
      "t_struct(RoleData)19_storage": {
        "encoding": "inplace",
        "label": "struct AccessControl.RoleData",
        "members": [
          {
            "astId": 16,
            "contract": "contracts/extensions/forwarder/Forwarder.sol:Forwarder",
            "label": "members",
            "offset": 0,
            "slot": "0",
            "type": "t_mapping(t_address,t_bool)"
          },
          {
            "astId": 18,
            "contract": "contracts/extensions/forwarder/Forwarder.sol:Forwarder",
            "label": "adminRole",
            "offset": 0,
            "slot": "1",
            "type": "t_bytes32"
          }
        ],
        "numberOfBytes": "64"
      },
      "t_struct(Set)3725_storage": {
        "encoding": "inplace",
        "label": "struct EnumerableSet.Set",
        "members": [
          {
            "astId": 3720,
            "contract": "contracts/extensions/forwarder/Forwarder.sol:Forwarder",
            "label": "_values",
            "offset": 0,
            "slot": "0",
            "type": "t_array(t_bytes32)dyn_storage"
          },
          {
            "astId": 3724,
            "contract": "contracts/extensions/forwarder/Forwarder.sol:Forwarder",
            "label": "_indexes",
            "offset": 0,
            "slot": "1",
            "type": "t_mapping(t_bytes32,t_uint256)"
          }
        ],
        "numberOfBytes": "64"
      },
      "t_uint256": {
        "encoding": "inplace",
        "label": "uint256",
        "numberOfBytes": "32"
      }
    }
  }
}