{
  "address": "0x4bb446b1523fA26fdBe06c4AE907AabBdBCaB7EE",
  "abi": [
    {
      "inputs": [],
      "stateMutability": "nonpayable",
      "type": "constructor"
    },
    {
      "inputs": [],
      "name": "ErrCallerMustBeValidatorContract",
      "type": "error"
    },
    {
      "inputs": [],
      "name": "ErrZeroCodeContract",
      "type": "error"
    },
    {
      "anonymous": false,
      "inputs": [
        {
          "indexed": false,
          "internalType": "uint8",
          "name": "version",
          "type": "uint8"
        }
      ],
      "name": "Initialized",
      "type": "event"
    },
    {
      "anonymous": false,
      "inputs": [
        {
          "indexed": false,
          "internalType": "uint256",
          "name": "minMaintenanceDurationInBlock",
          "type": "uint256"
        },
        {
          "indexed": false,
          "internalType": "uint256",
          "name": "maxMaintenanceDurationInBlock",
          "type": "uint256"
        },
        {
          "indexed": false,
          "internalType": "uint256",
          "name": "minOffsetToStartSchedule",
          "type": "uint256"
        },
        {
          "indexed": false,
          "internalType": "uint256",
          "name": "maxOffsetToStartSchedule",
          "type": "uint256"
        },
        {
          "indexed": false,
          "internalType": "uint256",
          "name": "maxSchedules",
          "type": "uint256"
        },
        {
          "indexed": false,
          "internalType": "uint256",
          "name": "cooldownSecsToMaintain",
          "type": "uint256"
        }
      ],
      "name": "MaintenanceConfigUpdated",
      "type": "event"
    },
    {
      "anonymous": false,
      "inputs": [
        {
          "indexed": true,
          "internalType": "address",
          "name": "consensusAddr",
          "type": "address"
        }
      ],
      "name": "MaintenanceScheduleCancelled",
      "type": "event"
    },
    {
      "anonymous": false,
      "inputs": [
        {
          "indexed": true,
          "internalType": "address",
          "name": "consensusAddr",
          "type": "address"
        },
        {
          "components": [
            {
              "internalType": "uint256",
              "name": "from",
              "type": "uint256"
            },
            {
              "internalType": "uint256",
              "name": "to",
              "type": "uint256"
            },
            {
              "internalType": "uint256",
              "name": "lastUpdatedBlock",
              "type": "uint256"
            },
            {
              "internalType": "uint256",
              "name": "requestTimestamp",
              "type": "uint256"
            }
          ],
          "indexed": false,
          "internalType": "struct IMaintenance.Schedule",
          "name": "",
          "type": "tuple"
        }
      ],
      "name": "MaintenanceScheduled",
      "type": "event"
    },
    {
      "anonymous": false,
      "inputs": [
        {
          "indexed": false,
          "internalType": "address",
          "name": "",
          "type": "address"
        }
      ],
      "name": "ValidatorContractUpdated",
      "type": "event"
    },
    {
      "inputs": [
        {
          "internalType": "address",
          "name": "_consensusAddr",
          "type": "address"
        }
      ],
      "name": "cancelSchedule",
      "outputs": [],
      "stateMutability": "nonpayable",
      "type": "function"
    },
    {
      "inputs": [
        {
          "internalType": "address",
          "name": "_consensusAddr",
          "type": "address"
        }
      ],
      "name": "checkCooldownEnds",
      "outputs": [
        {
          "internalType": "bool",
          "name": "",
          "type": "bool"
        }
      ],
      "stateMutability": "view",
      "type": "function"
    },
    {
      "inputs": [
        {
          "internalType": "address",
          "name": "_consensusAddr",
          "type": "address"
        },
        {
          "internalType": "uint256",
          "name": "_block",
          "type": "uint256"
        }
      ],
      "name": "checkMaintained",
      "outputs": [
        {
          "internalType": "bool",
          "name": "",
          "type": "bool"
        }
      ],
      "stateMutability": "view",
      "type": "function"
    },
    {
      "inputs": [
        {
          "internalType": "address",
          "name": "_consensusAddr",
          "type": "address"
        },
        {
          "internalType": "uint256",
          "name": "_fromBlock",
          "type": "uint256"
        },
        {
          "internalType": "uint256",
          "name": "_toBlock",
          "type": "uint256"
        }
      ],
      "name": "checkMaintainedInBlockRange",
      "outputs": [
        {
          "internalType": "bool",
          "name": "",
          "type": "bool"
        }
      ],
      "stateMutability": "view",
      "type": "function"
    },
    {
      "inputs": [
        {
          "internalType": "address[]",
          "name": "_addrList",
          "type": "address[]"
        },
        {
          "internalType": "uint256",
          "name": "_block",
          "type": "uint256"
        }
      ],
      "name": "checkManyMaintained",
      "outputs": [
        {
          "internalType": "bool[]",
          "name": "_resList",
          "type": "bool[]"
        }
      ],
      "stateMutability": "view",
      "type": "function"
    },
    {
      "inputs": [
        {
          "internalType": "address[]",
          "name": "_addrList",
          "type": "address[]"
        },
        {
          "internalType": "uint256",
          "name": "_fromBlock",
          "type": "uint256"
        },
        {
          "internalType": "uint256",
          "name": "_toBlock",
          "type": "uint256"
        }
      ],
      "name": "checkManyMaintainedInBlockRange",
      "outputs": [
        {
          "internalType": "bool[]",
          "name": "_resList",
          "type": "bool[]"
        }
      ],
      "stateMutability": "view",
      "type": "function"
    },
    {
      "inputs": [
        {
          "internalType": "address",
          "name": "_consensusAddr",
          "type": "address"
        }
      ],
      "name": "checkScheduled",
      "outputs": [
        {
          "internalType": "bool",
          "name": "",
          "type": "bool"
        }
      ],
      "stateMutability": "view",
      "type": "function"
    },
    {
      "inputs": [],
      "name": "cooldownSecsToMaintain",
      "outputs": [
        {
          "internalType": "uint256",
          "name": "",
          "type": "uint256"
        }
      ],
      "stateMutability": "view",
      "type": "function"
    },
    {
      "inputs": [
        {
          "internalType": "address",
          "name": "_consensusAddr",
          "type": "address"
        }
      ],
      "name": "getSchedule",
      "outputs": [
        {
          "components": [
            {
              "internalType": "uint256",
              "name": "from",
              "type": "uint256"
            },
            {
              "internalType": "uint256",
              "name": "to",
              "type": "uint256"
            },
            {
              "internalType": "uint256",
              "name": "lastUpdatedBlock",
              "type": "uint256"
            },
            {
              "internalType": "uint256",
              "name": "requestTimestamp",
              "type": "uint256"
            }
          ],
          "internalType": "struct IMaintenance.Schedule",
          "name": "",
          "type": "tuple"
        }
      ],
      "stateMutability": "view",
      "type": "function"
    },
    {
      "inputs": [
        {
          "internalType": "address",
          "name": "__validatorContract",
          "type": "address"
        },
        {
          "internalType": "uint256",
          "name": "_minMaintenanceDurationInBlock",
          "type": "uint256"
        },
        {
          "internalType": "uint256",
          "name": "_maxMaintenanceDurationInBlock",
          "type": "uint256"
        },
        {
          "internalType": "uint256",
          "name": "_minOffsetToStartSchedule",
          "type": "uint256"
        },
        {
          "internalType": "uint256",
          "name": "_maxOffsetToStartSchedule",
          "type": "uint256"
        },
        {
          "internalType": "uint256",
          "name": "_maxSchedules",
          "type": "uint256"
        },
        {
          "internalType": "uint256",
          "name": "_cooldownSecsToMaintain",
          "type": "uint256"
        }
      ],
      "name": "initialize",
      "outputs": [],
      "stateMutability": "nonpayable",
      "type": "function"
    },
    {
      "inputs": [],
      "name": "maxMaintenanceDurationInBlock",
      "outputs": [
        {
          "internalType": "uint256",
          "name": "",
          "type": "uint256"
        }
      ],
      "stateMutability": "view",
      "type": "function"
    },
    {
      "inputs": [],
      "name": "maxOffsetToStartSchedule",
      "outputs": [
        {
          "internalType": "uint256",
          "name": "",
          "type": "uint256"
        }
      ],
      "stateMutability": "view",
      "type": "function"
    },
    {
      "inputs": [],
      "name": "maxSchedules",
      "outputs": [
        {
          "internalType": "uint256",
          "name": "",
          "type": "uint256"
        }
      ],
      "stateMutability": "view",
      "type": "function"
    },
    {
      "inputs": [],
      "name": "minMaintenanceDurationInBlock",
      "outputs": [
        {
          "internalType": "uint256",
          "name": "",
          "type": "uint256"
        }
      ],
      "stateMutability": "view",
      "type": "function"
    },
    {
      "inputs": [],
      "name": "minOffsetToStartSchedule",
      "outputs": [
        {
          "internalType": "uint256",
          "name": "",
          "type": "uint256"
        }
      ],
      "stateMutability": "view",
      "type": "function"
    },
    {
      "inputs": [
        {
          "internalType": "address",
          "name": "_consensusAddr",
          "type": "address"
        },
        {
          "internalType": "uint256",
          "name": "_startedAtBlock",
          "type": "uint256"
        },
        {
          "internalType": "uint256",
          "name": "_endedAtBlock",
          "type": "uint256"
        }
      ],
      "name": "schedule",
      "outputs": [],
      "stateMutability": "nonpayable",
      "type": "function"
    },
    {
      "inputs": [
        {
          "internalType": "uint256",
          "name": "_minMaintenanceDurationInBlock",
          "type": "uint256"
        },
        {
          "internalType": "uint256",
          "name": "_maxMaintenanceDurationInBlock",
          "type": "uint256"
        },
        {
          "internalType": "uint256",
          "name": "_minOffsetToStartSchedule",
          "type": "uint256"
        },
        {
          "internalType": "uint256",
          "name": "_maxOffsetToStartSchedule",
          "type": "uint256"
        },
        {
          "internalType": "uint256",
          "name": "_maxSchedules",
          "type": "uint256"
        },
        {
          "internalType": "uint256",
          "name": "_cooldownSecsToMaintain",
          "type": "uint256"
        }
      ],
      "name": "setMaintenanceConfig",
      "outputs": [],
      "stateMutability": "nonpayable",
      "type": "function"
    },
    {
      "inputs": [
        {
          "internalType": "address",
          "name": "_addr",
          "type": "address"
        }
      ],
      "name": "setValidatorContract",
      "outputs": [],
      "stateMutability": "nonpayable",
      "type": "function"
    },
    {
      "inputs": [],
      "name": "totalSchedules",
      "outputs": [
        {
          "internalType": "uint256",
          "name": "_count",
          "type": "uint256"
        }
      ],
      "stateMutability": "view",
      "type": "function"
    },
    {
      "inputs": [],
      "name": "validatorContract",
      "outputs": [
        {
          "internalType": "address",
          "name": "",
          "type": "address"
        }
      ],
      "stateMutability": "view",
      "type": "function"
    }
  ],
  "transactionHash": "0x0e73323bd5926ceeba5bf933892862cced7e483565f4b029937cbe16405b59b1",
  "args": [],
  "numDeployments": 5,
  "solcInputHash": "85b953b22882c536a643bf4b61b3153b",
  "bytecode": "0x608060405234801561001057600080fd5b5061001961001e565b6100eb565b600054600160a81b900460ff161561008c5760405162461bcd60e51b815260206004820152602760248201527f496e697469616c697a61626c653a20636f6e747261637420697320696e697469604482015266616c697a696e6760c81b606482015260840160405180910390fd5b60005460ff600160a01b909104811610156100e9576000805460ff60a01b191660ff60a01b17905560405160ff81527f7f26b83ff96e1f2b6a682f133852f6798a09c465da95921460cefb38474024989060200160405180910390a15b565b61180e806100fa6000396000f3fe608060405234801561001057600080fd5b50600436106100fc5760003560e01c8063088e8de71461010157806309e34c38146101295780630fbeb37f146101405780632d538c2c146101535780632ddc08a2146101685780637a50802d1461017b5780638142951a14610184578063965720af14610197578063994390891461019f578063b59f403e146101b8578063ba303755146101cb578063bc1710e9146101eb578063bfa89b9b146101f4578063c09fe460146101fd578063c44cb23314610210578063cdf64a7614610219578063d39fee341461022c578063dec3628414610272578063f0caaafb1461027b578063fdadda811461028e575b600080fd5b61011461010f36600461128a565b6102a1565b60405190151581526020015b60405180910390f35b61013260025481565b604051908152602001610120565b61011461014e3660046112bf565b6102b6565b61016661016136600461128a565b6102ed565b005b6101146101763660046112eb565b61095f565b61013260055481565b61016661019236600461130f565b610981565b610132610ac3565b6000546001600160a01b03166040516101209190611364565b6101146101c63660046112eb565b610b90565b6101de6101d93660046113c3565b610bc2565b6040516101209190611413565b61013260045481565b61013260035481565b61016661020b366004611459565b610c81565b61013260065481565b6101666102273660046112eb565b610ccf565b61023f61023a3660046112eb565b610d3e565b60405161012091908151815260208083015190820152604080830151908201526060918201519181019190915260800190565b61013260075481565b6101666102893660046112eb565b610db6565b6101de61029c36600461149c565b610f8f565b60006102ae84848461104c565b949350505050565b6001600160a01b0382166000908152600160205260408120805483108015906102e3575080600101548311155b9150505b92915050565b600054604051633292276760e11b81526001600160a01b039091169081906365244ece9061031f908790600401611364565b602060405180830381865afa15801561033c573d6000803e3d6000fd5b505050506040513d601f19601f8201168201806040525081019061036091906114e7565b6103d15760405162461bcd60e51b815260206004820152603760248201527f4d61696e74656e616e63653a20636f6e73656e7375732061646472657373206d6044820152763ab9ba103132903090313637b1b590383937b23ab1b2b960491b60648201526084015b60405180910390fd5b6040516304d971ab60e01b81526001600160a01b038216906304d971ab906103ff9087903390600401611509565b602060405180830381865afa15801561041c573d6000803e3d6000fd5b505050506040513d601f19601f8201168201806040525081019061044091906114e7565b6104975760405162461bcd60e51b81526020600482015260346024820152600080516020611799833981519152604482015273313290309031b0b73234b230ba329030b236b4b760611b60648201526084016103c8565b6104a08461095f565b156104ed5760405162461bcd60e51b815260206004820152601e60248201527f4d61696e74656e616e63653a20616c7265616479207363686564756c6564000060448201526064016103c8565b6104f684610b90565b61054e5760405162461bcd60e51b815260206004820152602360248201527f4d61696e7461696e616e63653a20636f6f6c646f776e2074696d65206e6f7420604482015262195b9960ea1b60648201526084016103c8565b600654610559610ac3565b106105b65760405162461bcd60e51b815260206004820152602760248201527f4d61696e74656e616e63653a206578636565647320746f74616c206f66207363604482015266686564756c657360c81b60648201526084016103c8565b6105dc600454436105c79190611539565b6005546105d49043611539565b859190611084565b61063a5760405162461bcd60e51b815260206004820152602960248201527f4d61696e74656e616e63653a20737461727420626c6f636b206973206f7574206044820152681bd9881bd9999cd95d60ba1b60648201526084016103c8565b8183106106a65760405162461bcd60e51b815260206004820152603460248201527f4d61696e74656e616e63653a20737461727420626c6f636b206d757374206265604482015273206c657373207468616e20656e6420626c6f636b60601b60648201526084016103c8565b60006106b2848461154c565b6106bd906001611539565b90506106d8600254600354836110849092919063ffffffff16565b6107245760405162461bcd60e51b815260206004820152602960248201526000805160206117b983398151915260448201526810323ab930ba34b7b760b91b60648201526084016103c8565b6001600160a01b038216637593ff7161073e60018761154c565b6040518263ffffffff1660e01b815260040161075c91815260200190565b602060405180830381865afa158015610779573d6000803e3d6000fd5b505050506040513d601f19601f8201168201806040525081019061079d91906114e7565b61080a5760405162461bcd60e51b815260206004820152603860248201527f4d61696e74656e616e63653a20737461727420626c6f636b206973206e6f74206044820152770c2e840e8d0ca40e6e8c2e4e840decc40c2dc40cae0dec6d60431b60648201526084016103c8565b604051637593ff7160e01b8152600481018490526001600160a01b03831690637593ff7190602401602060405180830381865afa15801561084f573d6000803e3d6000fd5b505050506040513d601f19601f8201168201806040525081019061087391906114e7565b6108dc5760405162461bcd60e51b815260206004820152603460248201527f4d61696e74656e616e63653a20656e6420626c6f636b206973206e6f74206174604482015273040e8d0ca40cadcc840decc40c2dc40cae0dec6d60631b60648201526084016103c8565b6001600160a01b0385166000818152600160208181526040928390208881559182018790554360028301819055426003840181905584518a815292830189905293820152606081019290925291907f48e8b2f7348b1ec693bbb999258a8d6bd514732a19c6057b6e2a56a4c405253b9060800160405180910390a2505050505050565b6001600160a01b03166000908152600160208190526040909120015443111590565b600054600160a81b900460ff16158080156109a957506000546001600160a01b90910460ff16105b806109ca5750303b1580156109ca5750600054600160a01b900460ff166001145b610a2d5760405162461bcd60e51b815260206004820152602e60248201527f496e697469616c697a61626c653a20636f6e747261637420697320616c72656160448201526d191e481a5b9a5d1a585b1a5e995960921b60648201526084016103c8565b6000805460ff60a01b1916600160a01b1790558015610a5a576000805460ff60a81b1916600160a81b1790555b610a638861109b565b610a718787878787876110f1565b8015610ab9576000805460ff60a81b19169055604051600181527f7f26b83ff96e1f2b6a682f133852f6798a09c465da95921460cefb38474024989060200160405180910390a15b5050505050505050565b600080546040805163b7ab4db560e01b8152905183926001600160a01b03169163b7ab4db591600480830192869291908290030181865afa158015610b0c573d6000803e3d6000fd5b505050506040513d6000823e601f3d908101601f19168201604052610b34919081019061163c565b5050905060005b8151811015610b8b57610b66828281518110610b5957610b59611727565b602002602001015161095f565b15610b795782610b758161173d565b9350505b80610b838161173d565b915050610b3b565b505090565b6007546001600160a01b0382166000908152600160205260408120600301549091610bba91611539565b421192915050565b6060836001600160401b03811115610bdc57610bdc61155f565b604051908082528060200260200182016040528015610c05578160200160208202803683370190505b50905060005b84811015610c7857610c44868683818110610c2857610c28611727565b9050602002016020810190610c3d91906112eb565b858561104c565b828281518110610c5657610c56611727565b9115156020928302919091019091015280610c708161173d565b915050610c0b565b50949350505050565b610c89611231565b6001600160a01b0316336001600160a01b031614610cb95760405162461bcd60e51b81526004016103c890611756565b610cc78686868686866110f1565b505050505050565b610cd7611231565b6001600160a01b0316336001600160a01b031614610d075760405162461bcd60e51b81526004016103c890611756565b806001600160a01b03163b600003610d3257604051637bcd509160e01b815260040160405180910390fd5b610d3b8161109b565b50565b610d696040518060800160405280600081526020016000815260200160008152602001600081525090565b506001600160a01b03166000908152600160208181526040928390208351608081018552815481529281015491830191909152600281015492820192909252600390910154606082015290565b6000546040516304d971ab60e01b81526001600160a01b03909116906304d971ab90610de89084903390600401611509565b602060405180830381865afa158015610e05573d6000803e3d6000fd5b505050506040513d601f19601f82011682018060405250810190610e2991906114e7565b610e825760405162461bcd60e51b815260206004820152603660248201526000805160206117998339815191526044820152753132903a34329031b0b73234b230ba329030b236b4b760511b60648201526084016103c8565b610e8b8161095f565b610ed75760405162461bcd60e51b815260206004820152601f60248201527f4d61696e74656e616e63653a206e6f207363686564756c65206578697374730060448201526064016103c8565b610ee181436102b6565b15610f3a5760405162461bcd60e51b815260206004820152602360248201527f4d61696e74656e616e63653a20616c7265616479206f6e206d61696e74656e616044820152626e636560e81b60648201526084016103c8565b6001600160a01b0381166000818152600160208190526040808320838155918201839055436002830155519092917f72720a31deb222f77bbf95b88a540154648466770e5f41328ee1e25e5050737791a25050565b6060826001600160401b03811115610fa957610fa961155f565b604051908082528060200260200182016040528015610fd2578160200160208202803683370190505b50905060005b8381101561104457611010858583818110610ff557610ff5611727565b905060200201602081019061100a91906112eb565b846102b6565b82828151811061102257611022611727565b911515602092830291909101909101528061103c8161173d565b915050610fd8565b509392505050565b6001600160a01b03831660009081526001602081905260408220805491810154909161107b918691869161125f565b95945050505050565b60008383111580156102ae57505090911115919050565b600080546001600160a01b0319166001600160a01b0383161790556040517fef40dc07567635f84f5edbd2f8dbc16b40d9d282dd8e7e6f4ff58236b6836169906110e6908390611364565b60405180910390a150565b8486106111485760405162461bcd60e51b815260206004820152603160248201526000805160206117b9833981519152604482015270206475726174696f6e20636f6e6669677360781b60648201526084016103c8565b8284106111b55760405162461bcd60e51b815260206004820152603560248201527f4d61696e74656e616e63653a20696e76616c6964206f666673657420746f207360448201527474617274207363686564756c6520636f6e6669677360581b60648201526084016103c8565b6002869055600385905560048490556005839055600682905560078190556040805187815260208101879052908101859052606081018490526080810183905260a081018290527f4edb6adef66a4b8e1ffbc8c67640d4f244ce904193fd65e5cc316bbb74b2e59b9060c00160405180910390a1505050505050565b7fb53127684a568b3173ae13b9f8a6016e243e63b6e8ee1178d6a717850b5d6103546001600160a01b031690565b600081851115801561107b575050501115919050565b6001600160a01b0381168114610d3b57600080fd5b60008060006060848603121561129f57600080fd5b83356112aa81611275565b95602085013595506040909401359392505050565b600080604083850312156112d257600080fd5b82356112dd81611275565b946020939093013593505050565b6000602082840312156112fd57600080fd5b813561130881611275565b9392505050565b600080600080600080600060e0888a03121561132a57600080fd5b873561133581611275565b9960208901359950604089013598606081013598506080810135975060a0810135965060c00135945092505050565b6001600160a01b0391909116815260200190565b60008083601f84011261138a57600080fd5b5081356001600160401b038111156113a157600080fd5b6020830191508360208260051b85010111156113bc57600080fd5b9250929050565b600080600080606085870312156113d957600080fd5b84356001600160401b038111156113ef57600080fd5b6113fb87828801611378565b90989097506020870135966040013595509350505050565b6020808252825182820181905260009190848201906040850190845b8181101561144d57835115158352928401929184019160010161142f565b50909695505050505050565b60008060008060008060c0878903121561147257600080fd5b505084359660208601359650604086013595606081013595506080810135945060a0013592509050565b6000806000604084860312156114b157600080fd5b83356001600160401b038111156114c757600080fd5b6114d386828701611378565b909790965060209590950135949350505050565b6000602082840312156114f957600080fd5b8151801515811461130857600080fd5b6001600160a01b0392831681529116602082015260400190565b634e487b7160e01b600052601160045260246000fd5b808201808211156102e7576102e7611523565b818103818111156102e7576102e7611523565b634e487b7160e01b600052604160045260246000fd5b604051601f8201601f191681016001600160401b038111828210171561159d5761159d61155f565b604052919050565b60006001600160401b038211156115be576115be61155f565b5060051b60200190565b600082601f8301126115d957600080fd5b815160206115ee6115e9836115a5565b611575565b82815260059290921b8401810191818101908684111561160d57600080fd5b8286015b8481101561163157805161162481611275565b8352918301918301611611565b509695505050505050565b60008060006060848603121561165157600080fd5b83516001600160401b038082111561166857600080fd5b611674878388016115c8565b945060209150818601518181111561168b57600080fd5b611697888289016115c8565b9450506040860151818111156116ac57600080fd5b86019050601f810187136116bf57600080fd5b80516116cd6115e9826115a5565b81815260059190911b820183019083810190898311156116ec57600080fd5b928401925b82841015611718578351600481106117095760008081fd5b825292840192908401906116f1565b80955050505050509250925092565b634e487b7160e01b600052603260045260246000fd5b60006001820161174f5761174f611523565b5060010190565b60208082526022908201527f48617350726f787941646d696e3a20756e617574686f72697a65642073656e6460408201526132b960f11b60608201526080019056fe4d61696e74656e616e63653a206d6574686f642063616c6c6572206d757374204d61696e74656e616e63653a20696e76616c6964206d61696e74656e616e6365a264697066735822122020d6e85a401c7371df2c8089f2290dbc1b507fb37b62e12da5f11aacfead033d64736f6c63430008110033",
  "devdoc": {
    "errors": {
      "ErrCallerMustBeValidatorContract()": [
        {
          "details": "Error of method caller must be validator contract."
        }
      ],
      "ErrZeroCodeContract()": [
        {
          "details": "Error of set to non-contract."
        }
      ]
    },
    "kind": "dev",
    "methods": {
      "cancelSchedule(address)": {
        "details": "Cancel the schedule of maintenance for the `_consensusAddr`. Requirements: - The candidate `_consensusAddr` is the block producer. - The method caller is candidate admin of the candidate `_consensusAddr`. - A schedule for the `_consensusAddr` must be existent and not executed yet. Emits the event `MaintenanceScheduleCancelled`."
      },
      "checkCooldownEnds(address)": {
        "details": "Returns whether the validator `_consensusAddr`"
      },
      "checkMaintained(address,uint256)": {
        "details": "Returns whether the validator `_consensusAddr` maintained at the block number `_block`."
      },
      "checkMaintainedInBlockRange(address,uint256,uint256)": {
        "details": "Returns whether the validator `_consensusAddr` maintained in the inclusive range [`_fromBlock`, `_toBlock`] of blocks."
      },
      "checkManyMaintained(address[],uint256)": {
        "details": "Returns the bool array indicating the validators maintained at block number `_block` or not."
      },
      "checkManyMaintainedInBlockRange(address[],uint256,uint256)": {
        "details": "Returns a bool array indicating the validators maintained in the inclusive range [`_fromBlock`, `_toBlock`] of blocks or not."
      },
      "checkScheduled(address)": {
        "details": "Returns whether the validator `_consensusAddr` has scheduled."
      },
      "getSchedule(address)": {
        "details": "Returns the detailed schedule of the validator `_consensusAddr`."
      },
      "initialize(address,uint256,uint256,uint256,uint256,uint256,uint256)": {
        "details": "Initializes the contract storage."
      },
      "schedule(address,uint256,uint256)": {
        "details": "Schedules for maintenance from `_startedAtBlock` to `_startedAtBlock`. Requirements: - The candidate `_consensusAddr` is the block producer. - The method caller is candidate admin of the candidate `_consensusAddr`. - The candidate `_consensusAddr` has no schedule yet or the previous is done. - The total number of schedules is not larger than `maxSchedules()`. - The start block must be at least `minOffsetToStartSchedule()` and at most `maxOffsetToStartSchedule()` blocks from the current block. - The end block is larger than the start block. - The scheduled duration is larger than the `minMaintenanceDurationInBlock()` and less than the `maxMaintenanceDurationInBlock()`. - The start block is at the start of an epoch. - The end block is at the end of an epoch. Emits the event `MaintenanceScheduled`."
      },
      "setMaintenanceConfig(uint256,uint256,uint256,uint256,uint256,uint256)": {
        "details": "Sets the duration restriction, start time restriction, and max allowed for maintenance. Requirements: - The method caller is admin. - The max duration is larger than the min duration. - The max offset is larger than the min offset. Emits the event `MaintenanceConfigUpdated`."
      },
      "setValidatorContract(address)": {
        "details": "Sets the validator contract. Requirements: - The method caller is admin. - The new address is a contract. Emits the event `ValidatorContractUpdated`."
      },
      "totalSchedules()": {
        "details": "Returns the total of current schedules."
      },
      "validatorContract()": {
        "details": "Returns the validator contract."
      }
    },
    "stateVariables": {
      "_schedule": {
        "details": "Mapping from consensus address => maintenance schedule."
      },
      "cooldownSecsToMaintain": {
        "details": "The cooldown time to request new schedule."
      },
      "maxMaintenanceDurationInBlock": {
        "details": "The max duration to maintenance in blocks."
      },
      "maxOffsetToStartSchedule": {
        "details": "The offset to the max block number that the schedule can start."
      },
      "maxSchedules": {
        "details": "The max number of scheduled maintenances."
      },
      "minMaintenanceDurationInBlock": {
        "details": "The min duration to maintenance in blocks."
      },
      "minOffsetToStartSchedule": {
        "details": "The offset to the min block number that the schedule can start."
      }
    },
    "version": 1
  },
  "userdoc": {
    "kind": "user",
    "methods": {},
    "version": 1
  },
  "storageLayout": {
    "storage": [
      {
        "astId": 7051,
        "contract": "contracts/ronin/Maintenance.sol:Maintenance",
        "label": "_validatorContract",
        "offset": 0,
        "slot": "0",
        "type": "t_contract(IRoninValidatorSet)11973"
      },
      {
        "astId": 1373,
        "contract": "contracts/ronin/Maintenance.sol:Maintenance",
        "label": "_initialized",
        "offset": 20,
        "slot": "0",
        "type": "t_uint8"
      },
      {
        "astId": 1376,
        "contract": "contracts/ronin/Maintenance.sol:Maintenance",
        "label": "_initializing",
        "offset": 21,
        "slot": "0",
        "type": "t_bool"
      },
      {
        "astId": 20853,
        "contract": "contracts/ronin/Maintenance.sol:Maintenance",
        "label": "_schedule",
        "offset": 0,
        "slot": "1",
        "type": "t_mapping(t_address,t_struct(Schedule)9487_storage)"
      },
      {
        "astId": 20856,
        "contract": "contracts/ronin/Maintenance.sol:Maintenance",
        "label": "minMaintenanceDurationInBlock",
        "offset": 0,
        "slot": "2",
        "type": "t_uint256"
      },
      {
        "astId": 20859,
        "contract": "contracts/ronin/Maintenance.sol:Maintenance",
        "label": "maxMaintenanceDurationInBlock",
        "offset": 0,
        "slot": "3",
        "type": "t_uint256"
      },
      {
        "astId": 20862,
        "contract": "contracts/ronin/Maintenance.sol:Maintenance",
        "label": "minOffsetToStartSchedule",
        "offset": 0,
        "slot": "4",
        "type": "t_uint256"
      },
      {
        "astId": 20865,
        "contract": "contracts/ronin/Maintenance.sol:Maintenance",
        "label": "maxOffsetToStartSchedule",
        "offset": 0,
        "slot": "5",
        "type": "t_uint256"
      },
      {
        "astId": 20868,
        "contract": "contracts/ronin/Maintenance.sol:Maintenance",
        "label": "maxSchedules",
        "offset": 0,
        "slot": "6",
        "type": "t_uint256"
      },
      {
        "astId": 20871,
        "contract": "contracts/ronin/Maintenance.sol:Maintenance",
        "label": "cooldownSecsToMaintain",
        "offset": 0,
        "slot": "7",
        "type": "t_uint256"
      }
    ],
    "types": {
      "t_address": {
        "encoding": "inplace",
        "label": "address",
        "numberOfBytes": "20"
      },
      "t_bool": {
        "encoding": "inplace",
        "label": "bool",
        "numberOfBytes": "1"
      },
      "t_contract(IRoninValidatorSet)11973": {
        "encoding": "inplace",
        "label": "contract IRoninValidatorSet",
        "numberOfBytes": "20"
      },
      "t_mapping(t_address,t_struct(Schedule)9487_storage)": {
        "encoding": "mapping",
        "key": "t_address",
        "label": "mapping(address => struct IMaintenance.Schedule)",
        "numberOfBytes": "32",
        "value": "t_struct(Schedule)9487_storage"
      },
      "t_struct(Schedule)9487_storage": {
        "encoding": "inplace",
        "label": "struct IMaintenance.Schedule",
        "members": [
          {
            "astId": 9480,
            "contract": "contracts/ronin/Maintenance.sol:Maintenance",
            "label": "from",
            "offset": 0,
            "slot": "0",
            "type": "t_uint256"
          },
          {
            "astId": 9482,
            "contract": "contracts/ronin/Maintenance.sol:Maintenance",
            "label": "to",
            "offset": 0,
            "slot": "1",
            "type": "t_uint256"
          },
          {
            "astId": 9484,
            "contract": "contracts/ronin/Maintenance.sol:Maintenance",
            "label": "lastUpdatedBlock",
            "offset": 0,
            "slot": "2",
            "type": "t_uint256"
          },
          {
            "astId": 9486,
            "contract": "contracts/ronin/Maintenance.sol:Maintenance",
            "label": "requestTimestamp",
            "offset": 0,
            "slot": "3",
            "type": "t_uint256"
          }
        ],
        "numberOfBytes": "128"
      },
      "t_uint256": {
        "encoding": "inplace",
        "label": "uint256",
        "numberOfBytes": "32"
      },
      "t_uint8": {
        "encoding": "inplace",
        "label": "uint8",
        "numberOfBytes": "1"
      }
    }
  }
}