{
  "address": "0x4AE16F2CEA9B88a90E6F8FF9Faf5DA6bC72a3778",
  "abi": [
    {
      "inputs": [],
      "stateMutability": "nonpayable",
      "type": "constructor"
    },
    {
      "inputs": [],
      "name": "ErrAlreadyOnMaintenance",
      "type": "error"
    },
    {
      "inputs": [],
      "name": "ErrAlreadyScheduled",
      "type": "error"
    },
    {
      "inputs": [
        {
          "internalType": "enum ContractType",
          "name": "contractType",
          "type": "uint8"
        }
      ],
      "name": "ErrContractTypeNotFound",
      "type": "error"
    },
    {
      "inputs": [],
      "name": "ErrCooldownTimeNotYetEnded",
      "type": "error"
    },
    {
      "inputs": [],
      "name": "ErrEndBlockOutOfRange",
      "type": "error"
    },
    {
      "inputs": [],
      "name": "ErrInvalidMaintenanceDuration",
      "type": "error"
    },
    {
      "inputs": [],
      "name": "ErrInvalidMaintenanceDurationConfig",
      "type": "error"
    },
    {
      "inputs": [],
      "name": "ErrInvalidOffsetToStartScheduleConfigs",
      "type": "error"
    },
    {
      "inputs": [],
      "name": "ErrStartBlockOutOfRange",
      "type": "error"
    },
    {
      "inputs": [],
      "name": "ErrTotalOfSchedulesExceeded",
      "type": "error"
    },
    {
      "inputs": [
        {
          "internalType": "bytes4",
          "name": "msgSig",
          "type": "bytes4"
        },
        {
          "internalType": "enum RoleAccess",
          "name": "expectedRole",
          "type": "uint8"
        }
      ],
      "name": "ErrUnauthorized",
      "type": "error"
    },
    {
      "inputs": [],
      "name": "ErrUnexistedSchedule",
      "type": "error"
    },
    {
      "inputs": [
        {
          "internalType": "address",
          "name": "addr",
          "type": "address"
        }
      ],
      "name": "ErrZeroCodeContract",
      "type": "error"
    },
    {
      "anonymous": false,
      "inputs": [
        {
          "indexed": true,
          "internalType": "enum ContractType",
          "name": "contractType",
          "type": "uint8"
        },
        {
          "indexed": true,
          "internalType": "address",
          "name": "addr",
          "type": "address"
        }
      ],
      "name": "ContractUpdated",
      "type": "event"
    },
    {
      "anonymous": false,
      "inputs": [
        {
          "indexed": false,
          "internalType": "uint8",
          "name": "version",
          "type": "uint8"
        }
      ],
      "name": "Initialized",
      "type": "event"
    },
    {
      "anonymous": false,
      "inputs": [
        {
          "indexed": false,
          "internalType": "uint256",
          "name": "minMaintenanceDurationInBlock",
          "type": "uint256"
        },
        {
          "indexed": false,
          "internalType": "uint256",
          "name": "maxMaintenanceDurationInBlock",
          "type": "uint256"
        },
        {
          "indexed": false,
          "internalType": "uint256",
          "name": "minOffsetToStartSchedule",
          "type": "uint256"
        },
        {
          "indexed": false,
          "internalType": "uint256",
          "name": "maxOffsetToStartSchedule",
          "type": "uint256"
        },
        {
          "indexed": false,
          "internalType": "uint256",
          "name": "maxSchedules",
          "type": "uint256"
        },
        {
          "indexed": false,
          "internalType": "uint256",
          "name": "cooldownSecsToMaintain",
          "type": "uint256"
        }
      ],
      "name": "MaintenanceConfigUpdated",
      "type": "event"
    },
    {
      "anonymous": false,
      "inputs": [
        {
          "indexed": true,
          "internalType": "TConsensus",
          "name": "consensusAddr",
          "type": "address"
        }
      ],
      "name": "MaintenanceScheduleCancelled",
      "type": "event"
    },
    {
      "anonymous": false,
      "inputs": [
        {
          "indexed": true,
          "internalType": "TConsensus",
          "name": "consensusAddr",
          "type": "address"
        },
        {
          "components": [
            {
              "internalType": "uint256",
              "name": "from",
              "type": "uint256"
            },
            {
              "internalType": "uint256",
              "name": "to",
              "type": "uint256"
            },
            {
              "internalType": "uint256",
              "name": "lastUpdatedBlock",
              "type": "uint256"
            },
            {
              "internalType": "uint256",
              "name": "requestTimestamp",
              "type": "uint256"
            }
          ],
          "indexed": false,
          "internalType": "struct IMaintenance.Schedule",
          "name": "",
          "type": "tuple"
        }
      ],
      "name": "MaintenanceScheduled",
      "type": "event"
    },
    {
      "inputs": [
        {
          "internalType": "TConsensus",
          "name": "consensusAddr",
          "type": "address"
        }
      ],
      "name": "cancelSchedule",
      "outputs": [],
      "stateMutability": "nonpayable",
      "type": "function"
    },
    {
      "inputs": [
        {
          "internalType": "TConsensus",
          "name": "consensusAddr",
          "type": "address"
        }
      ],
      "name": "checkCooldownEnded",
      "outputs": [
        {
          "internalType": "bool",
          "name": "",
          "type": "bool"
        }
      ],
      "stateMutability": "view",
      "type": "function"
    },
    {
      "inputs": [
        {
          "internalType": "TConsensus",
          "name": "consensusAddr",
          "type": "address"
        },
        {
          "internalType": "uint256",
          "name": "atBlock",
          "type": "uint256"
        }
      ],
      "name": "checkMaintained",
      "outputs": [
        {
          "internalType": "bool",
          "name": "",
          "type": "bool"
        }
      ],
      "stateMutability": "view",
      "type": "function"
    },
    {
      "inputs": [
        {
          "internalType": "address",
          "name": "candidateId",
          "type": "address"
        },
        {
          "internalType": "uint256",
          "name": "atBlock",
          "type": "uint256"
        }
      ],
      "name": "checkMaintainedById",
      "outputs": [
        {
          "internalType": "bool",
          "name": "",
          "type": "bool"
        }
      ],
      "stateMutability": "view",
      "type": "function"
    },
    {
      "inputs": [
        {
          "internalType": "TConsensus",
          "name": "consensusAddr",
          "type": "address"
        },
        {
          "internalType": "uint256",
          "name": "fromBlock",
          "type": "uint256"
        },
        {
          "internalType": "uint256",
          "name": "toBlock",
          "type": "uint256"
        }
      ],
      "name": "checkMaintainedInBlockRange",
      "outputs": [
        {
          "internalType": "bool",
          "name": "",
          "type": "bool"
        }
      ],
      "stateMutability": "view",
      "type": "function"
    },
    {
      "inputs": [
        {
          "internalType": "TConsensus[]",
          "name": "addrList",
          "type": "address[]"
        },
        {
          "internalType": "uint256",
          "name": "atBlock",
          "type": "uint256"
        }
      ],
      "name": "checkManyMaintained",
      "outputs": [
        {
          "internalType": "bool[]",
          "name": "",
          "type": "bool[]"
        }
      ],
      "stateMutability": "view",
      "type": "function"
    },
    {
      "inputs": [
        {
          "internalType": "address[]",
          "name": "idList",
          "type": "address[]"
        },
        {
          "internalType": "uint256",
          "name": "atBlock",
          "type": "uint256"
        }
      ],
      "name": "checkManyMaintainedById",
      "outputs": [
        {
          "internalType": "bool[]",
          "name": "",
          "type": "bool[]"
        }
      ],
      "stateMutability": "view",
      "type": "function"
    },
    {
      "inputs": [
        {
          "internalType": "TConsensus[]",
          "name": "addrList",
          "type": "address[]"
        },
        {
          "internalType": "uint256",
          "name": "fromBlock",
          "type": "uint256"
        },
        {
          "internalType": "uint256",
          "name": "toBlock",
          "type": "uint256"
        }
      ],
      "name": "checkManyMaintainedInBlockRange",
      "outputs": [
        {
          "internalType": "bool[]",
          "name": "",
          "type": "bool[]"
        }
      ],
      "stateMutability": "view",
      "type": "function"
    },
    {
      "inputs": [
        {
          "internalType": "address[]",
          "name": "idList",
          "type": "address[]"
        },
        {
          "internalType": "uint256",
          "name": "fromBlock",
          "type": "uint256"
        },
        {
          "internalType": "uint256",
          "name": "toBlock",
          "type": "uint256"
        }
      ],
      "name": "checkManyMaintainedInBlockRangeById",
      "outputs": [
        {
          "internalType": "bool[]",
          "name": "",
          "type": "bool[]"
        }
      ],
      "stateMutability": "view",
      "type": "function"
    },
    {
      "inputs": [
        {
          "internalType": "TConsensus",
          "name": "consensusAddr",
          "type": "address"
        }
      ],
      "name": "checkScheduled",
      "outputs": [
        {
          "internalType": "bool",
          "name": "",
          "type": "bool"
        }
      ],
      "stateMutability": "view",
      "type": "function"
    },
    {
      "inputs": [],
      "name": "cooldownSecsToMaintain",
      "outputs": [
        {
          "internalType": "uint256",
          "name": "",
          "type": "uint256"
        }
      ],
      "stateMutability": "view",
      "type": "function"
    },
    {
      "inputs": [
        {
          "internalType": "enum ContractType",
          "name": "contractType",
          "type": "uint8"
        }
      ],
      "name": "getContract",
      "outputs": [
        {
          "internalType": "address",
          "name": "contract_",
          "type": "address"
        }
      ],
      "stateMutability": "view",
      "type": "function"
    },
    {
      "inputs": [
        {
          "internalType": "TConsensus",
          "name": "consensusAddr",
          "type": "address"
        }
      ],
      "name": "getSchedule",
      "outputs": [
        {
          "components": [
            {
              "internalType": "uint256",
              "name": "from",
              "type": "uint256"
            },
            {
              "internalType": "uint256",
              "name": "to",
              "type": "uint256"
            },
            {
              "internalType": "uint256",
              "name": "lastUpdatedBlock",
              "type": "uint256"
            },
            {
              "internalType": "uint256",
              "name": "requestTimestamp",
              "type": "uint256"
            }
          ],
          "internalType": "struct IMaintenance.Schedule",
          "name": "",
          "type": "tuple"
        }
      ],
      "stateMutability": "view",
      "type": "function"
    },
    {
      "inputs": [
        {
          "internalType": "address",
          "name": "validatorContract",
          "type": "address"
        },
        {
          "internalType": "uint256",
          "name": "minMaintenanceDurationInBlock_",
          "type": "uint256"
        },
        {
          "internalType": "uint256",
          "name": "maxMaintenanceDurationInBlock_",
          "type": "uint256"
        },
        {
          "internalType": "uint256",
          "name": "minOffsetToStartSchedule_",
          "type": "uint256"
        },
        {
          "internalType": "uint256",
          "name": "maxOffsetToStartSchedule_",
          "type": "uint256"
        },
        {
          "internalType": "uint256",
          "name": "maxSchedule_",
          "type": "uint256"
        },
        {
          "internalType": "uint256",
          "name": "cooldownSecsToMaintain_",
          "type": "uint256"
        }
      ],
      "name": "initialize",
      "outputs": [],
      "stateMutability": "nonpayable",
      "type": "function"
    },
    {
      "inputs": [],
      "name": "initializeV2",
      "outputs": [],
      "stateMutability": "nonpayable",
      "type": "function"
    },
    {
      "inputs": [
        {
          "internalType": "address",
          "name": "profileContract_",
          "type": "address"
        }
      ],
      "name": "initializeV3",
      "outputs": [],
      "stateMutability": "nonpayable",
      "type": "function"
    },
    {
      "inputs": [],
      "name": "maxMaintenanceDurationInBlock",
      "outputs": [
        {
          "internalType": "uint256",
          "name": "",
          "type": "uint256"
        }
      ],
      "stateMutability": "view",
      "type": "function"
    },
    {
      "inputs": [],
      "name": "maxOffsetToStartSchedule",
      "outputs": [
        {
          "internalType": "uint256",
          "name": "",
          "type": "uint256"
        }
      ],
      "stateMutability": "view",
      "type": "function"
    },
    {
      "inputs": [],
      "name": "maxSchedule",
      "outputs": [
        {
          "internalType": "uint256",
          "name": "",
          "type": "uint256"
        }
      ],
      "stateMutability": "view",
      "type": "function"
    },
    {
      "inputs": [],
      "name": "minMaintenanceDurationInBlock",
      "outputs": [
        {
          "internalType": "uint256",
          "name": "",
          "type": "uint256"
        }
      ],
      "stateMutability": "view",
      "type": "function"
    },
    {
      "inputs": [],
      "name": "minOffsetToStartSchedule",
      "outputs": [
        {
          "internalType": "uint256",
          "name": "",
          "type": "uint256"
        }
      ],
      "stateMutability": "view",
      "type": "function"
    },
    {
      "inputs": [
        {
          "internalType": "TConsensus",
          "name": "consensusAddr",
          "type": "address"
        },
        {
          "internalType": "uint256",
          "name": "startedAtBlock",
          "type": "uint256"
        },
        {
          "internalType": "uint256",
          "name": "endedAtBlock",
          "type": "uint256"
        }
      ],
      "name": "schedule",
      "outputs": [],
      "stateMutability": "nonpayable",
      "type": "function"
    },
    {
      "inputs": [
        {
          "internalType": "enum ContractType",
          "name": "contractType",
          "type": "uint8"
        },
        {
          "internalType": "address",
          "name": "addr",
          "type": "address"
        }
      ],
      "name": "setContract",
      "outputs": [],
      "stateMutability": "nonpayable",
      "type": "function"
    },
    {
      "inputs": [
        {
          "internalType": "uint256",
          "name": "minMaintenanceDurationInBlock_",
          "type": "uint256"
        },
        {
          "internalType": "uint256",
          "name": "maxMaintenanceDurationInBlock_",
          "type": "uint256"
        },
        {
          "internalType": "uint256",
          "name": "minOffsetToStartSchedule_",
          "type": "uint256"
        },
        {
          "internalType": "uint256",
          "name": "maxOffsetToStartSchedule_",
          "type": "uint256"
        },
        {
          "internalType": "uint256",
          "name": "maxSchedule_",
          "type": "uint256"
        },
        {
          "internalType": "uint256",
          "name": "cooldownSecsToMaintain_",
          "type": "uint256"
        }
      ],
      "name": "setMaintenanceConfig",
      "outputs": [],
      "stateMutability": "nonpayable",
      "type": "function"
    },
    {
      "inputs": [],
      "name": "totalSchedule",
      "outputs": [
        {
          "internalType": "uint256",
          "name": "count",
          "type": "uint256"
        }
      ],
      "stateMutability": "view",
      "type": "function"
    }
  ],
  "transactionHash": "0xb69d5b364bac11b8eb93d61880c963ea4ca09389a81e2f060873c40c9bcd2db9",
  "args": [],
  "numDeployments": 8,
  "solcInputHash": "b469203c60a069be0ec276c20622629d",
  "bytecode": "0x608060405234801561001057600080fd5b5061001961001e565b6100eb565b600054600160a81b900460ff161561008c5760405162461bcd60e51b815260206004820152602760248201527f496e697469616c697a61626c653a20636f6e747261637420697320696e697469604482015266616c697a696e6760c81b606482015260840160405180910390fd5b60005460ff600160a01b909104811610156100e9576000805460ff60a01b191660ff60a01b17905560405160ff81527f7f26b83ff96e1f2b6a682f133852f6798a09c465da95921460cefb38474024989060200160405180910390a15b565b611999806100fa6000396000f3fe608060405234801561001057600080fd5b50600436106101735760003560e01c80638b042a72116100de578063bfa89b9b11610097578063de981f1b11610071578063de981f1b1461031b578063dec3628414610346578063f0caaafb1461034e578063fdadda811461036157600080fd5b8063bfa89b9b146102ba578063c09fe460146102c2578063d39fee34146102d557600080fd5b80638b042a72146102515780638d5b675914610271578063ac57bd7614610284578063ba30375514610297578063ba7e57bb146102aa578063bc1710e9146102b257600080fd5b80633101cfcb116101305780633101cfcb146102005780635cd8a76b146102135780637a50802d1461021b5780638142951a1461022357806384a9573b14610236578063865e6fd31461023e57600080fd5b806301b5020914610178578063088e8de7146101a057806309e34c38146101b35780630fbeb37f146101c55780632d538c2c146101d85780632ddc08a2146101ed575b600080fd5b61018b610186366004611459565b610374565b60405190151581526020015b60405180910390f35b61018b6101ae366004611476565b61038d565b6002545b604051908152602001610197565b61018b6101d33660046114ab565b6103aa565b6101eb6101e6366004611476565b6103c5565b005b61018b6101fb366004611459565b6107ea565b6101eb61020e366004611459565b6107fd565b6101eb6108be565b6005546101b7565b6101eb6102313660046114d7565b61098e565b6101b7610a8b565b6101eb61024c36600461153b565b610b46565b61026461025f3660046115be565b610b65565b604051610197919061160f565b61018b61027f3660046114ab565b610bb0565b610264610292366004611655565b610bbc565b6102646102a53660046115be565b610bfc565b6006546101b7565b6004546101b7565b6003546101b7565b6101eb6102d03660046116a1565b610c53565b6102e86102e3366004611459565b610c71565b60405161019791908151815260208083015190820152604080830151908201526060918201519181019190915260800190565b61032e6103293660046116e4565b610d03565b6040516001600160a01b039091168152602001610197565b6007546101b7565b6101eb61035c366004611459565b610d7e565b61026461036f366004611655565b610edb565b600061038761038283610f27565b610f9f565b92915050565b60006103a261039b85610f27565b8484610fd1565b949350505050565b60006103be6103b884610f27565b83611000565b9392505050565b60006103d16008610d03565b905060006103de85610f27565b604051633292276760e11b81526001600160a01b038781166004830152919250908316906365244ece90602401602060405180830381865afa158015610428573d6000803e3d6000fd5b505050506040513d601f19601f8201168201806040525081019061044c91906116ff565b610482576000356001600160e01b0319166007604051620f948f60ea1b8152600401610479929190611737565b60405180910390fd5b6040516304d971ab60e01b81526001600160a01b0386811660048301523360248301528316906304d971ab90604401602060405180830381865afa1580156104ce573d6000803e3d6000fd5b505050506040513d601f19601f820116820180604052508101906104f291906116ff565b61051f576000356001600160e01b0319166004604051620f948f60ea1b8152600401610479929190611737565b61052881611032565b156105465760405163b194497760e01b815260040160405180910390fd5b61054f81610f9f565b61056c5760405163207dfd7760e11b815260040160405180910390fd5b600654610577610a8b565b106105955760405163437494d360e01b815260040160405180910390fd5b6105bb600454436105a6919061177b565b6005546105b3904361177b565b869190611054565b6105d8576040516301f19fb760e61b815260040160405180910390fd5b8284106105f8576040516301f19fb760e61b815260040160405180910390fd5b6000610604858561178e565b61060f90600161177b565b905061062a600254600354836110549092919063ffffffff16565b6106475760405163a1f1aaf560e01b815260040160405180910390fd5b6001600160a01b038316637593ff7161066160018861178e565b6040518263ffffffff1660e01b815260040161067f91815260200190565b602060405180830381865afa15801561069c573d6000803e3d6000fd5b505050506040513d601f19601f820116820180604052508101906106c091906116ff565b6106dd576040516301f19fb760e61b815260040160405180910390fd5b604051637593ff7160e01b8152600481018590526001600160a01b03841690637593ff7190602401602060405180830381865afa158015610722573d6000803e3d6000fd5b505050506040513d601f19601f8201168201806040525081019061074691906116ff565b6107635760405163ec67bbc560e01b815260040160405180910390fd5b6001600160a01b038281166000908152600160208181526040928390208981559182018890554360028301819055426003840181905584518b81529283018a9052938201526060810192909252918816907f48e8b2f7348b1ec693bbb999258a8d6bd514732a19c6057b6e2a56a4c405253b9060800160405180910390a250505050505050565b60006103876107f883610f27565b611032565b600054600390600160a81b900460ff16158015610828575060005460ff808316600160a01b90920416105b6108445760405162461bcd60e51b8152600401610479906117a1565b6000805460ff60a81b1960ff8416600160a01b021661ffff60a01b1990911617600160a81b179055610877600f8361106b565b6000805460ff60a81b1916905560405160ff821681527f7f26b83ff96e1f2b6a682f133852f6798a09c465da95921460cefb38474024989060200160405180910390a15050565b600054600290600160a81b900460ff161580156108e9575060005460ff808316600160a01b90920416105b6109055760405162461bcd60e51b8152600401610479906117a1565b6000805460ff60a81b1960ff8416600160a01b021661ffff60a01b1990911617600160a81b1790819055610944906008906001600160a01b031661106b565b60008054600161ff0160a01b031916905560405160ff821681527f7f26b83ff96e1f2b6a682f133852f6798a09c465da95921460cefb38474024989060200160405180910390a150565b600054600160a81b900460ff16158080156109b657506000546001600160a01b90910460ff16105b806109d75750303b1580156109d75750600054600160a01b900460ff166001145b6109f35760405162461bcd60e51b8152600401610479906117a1565b6000805460ff60a01b1916600160a01b1790558015610a20576000805460ff60a81b1916600160a81b1790555b610a2b60088961106b565b610a3987878787878761110f565b8015610a81576000805460ff60a81b19169055604051600181527f7f26b83ff96e1f2b6a682f133852f6798a09c465da95921460cefb38474024989060200160405180910390a15b5050505050505050565b600080610a986008610d03565b6001600160a01b031663b7ab4db56040518163ffffffff1660e01b8152600401600060405180830381865afa158015610ad5573d6000803e3d6000fd5b505050506040513d6000823e601f3d908101601f19168201604052610afd9190810190611810565b905060005b8151811015610b4157610b2d828281518110610b2057610b206118d5565b6020026020010151611032565b15610b39576001909201915b600101610b02565b505090565b610b4e6111cb565b610b5781611227565b610b61828261106b565b5050565b6060610ba78585808060200260200160405190810160405280939291908181526020018383602002808284376000920191909152508792508691506112609050565b95945050505050565b60006103be8383611000565b60606103a284848080602002602001604051908101604052809392919081815260200183836020028082843760009201919091525086925061130a915050565b60606000610c3c8686808060200260200160405190810160405280939291908181526020018383602002808284376000920191909152506113b292505050565b9050610c49818585611260565b9695505050505050565b610c5b6111cb565b610c6986868686868661110f565b505050505050565b610c9c6040518060800160405280600081526020016000815260200160008152602001600081525090565b60016000610ca984610f27565b6001600160a01b03166001600160a01b031681526020019081526020016000206040518060800160405290816000820154815260200160018201548152602001600282015481526020016003820154815250509050919050565b60007fdea3103d22025c269050bea94c0c84688877f12fa22b7e6d2d5d78a9a49aa1cb600083600f811115610d3a57610d3a611721565b60ff1681526020810191909152604001600020546001600160a01b0316905080610d79578160405163409140df60e11b815260040161047991906118eb565b919050565b610d886008610d03565b6040516304d971ab60e01b81526001600160a01b03838116600483015233602483015291909116906304d971ab90604401602060405180830381865afa158015610dd6573d6000803e3d6000fd5b505050506040513d601f19601f82011682018060405250810190610dfa91906116ff565b610e27576000356001600160e01b0319166004604051620f948f60ea1b8152600401610479929190611737565b6000610e3282610f27565b9050610e3d81611032565b610e5a5760405163f7050bef60e01b815260040160405180910390fd5b610e648143611000565b15610e825760405163070dff8360e01b815260040160405180910390fd5b6001600160a01b0380821660009081526001602081905260408083208381559182018390554360028301555190928516917f72720a31deb222f77bbf95b88a540154648466770e5f41328ee1e25e5050737791a2505050565b60606000610f1b8585808060200260200160405190810160405280939291908181526020018383602002808284376000920191909152506113b292505050565b9050610ba7818461130a565b6000610f33600f610d03565b6040516350a9fc2960e01b81526001600160a01b03848116600483015291909116906350a9fc2990602401602060405180830381865afa158015610f7b573d6000803e3d6000fd5b505050506040513d601f19601f820116820180604052508101906103879190611905565b6007546001600160a01b0382166000908152600160205260408120600301549091610fc99161177b565b421192915050565b6001600160a01b038316600090815260016020819052604082208054918101549091610ba7918691869161142e565b6001600160a01b0382166000908152600160205260408120805483108015906103a25750600101549091111592915050565b6001600160a01b03166000908152600160208190526040909120015443111590565b60008383111580156103a257505090911115919050565b807fdea3103d22025c269050bea94c0c84688877f12fa22b7e6d2d5d78a9a49aa1cb600084600f8111156110a1576110a1611721565b60ff168152602081019190915260400160002080546001600160a01b0319166001600160a01b03928316179055811682600f8111156110e2576110e2611721565b6040517f865d1c228a8ea13709cfe61f346f7ff67f1bbd4a18ff31ad3e7147350d317c5990600090a35050565b84861061112f576040516338f4062560e11b815260040160405180910390fd5b82841061114f576040516316c7c7ef60e31b815260040160405180910390fd5b6002869055600385905560048490556005839055600682905560078190556040805187815260208101879052908101859052606081018490526080810183905260a081018290527f4edb6adef66a4b8e1ffbc8c67640d4f244ce904193fd65e5cc316bbb74b2e59b9060c00160405180910390a1505050505050565b7fb53127684a568b3173ae13b9f8a6016e243e63b6e8ee1178d6a717850b5d6103546001600160a01b03163314611225576000356001600160e01b0319166001604051620f948f60ea1b8152600401610479929190611737565b565b806001600160a01b03163b60000361125d57604051630bfc64a360e21b81526001600160a01b0382166004820152602401610479565b50565b6060835167ffffffffffffffff81111561127c5761127c6117ef565b6040519080825280602002602001820160405280156112a5578160200160208202803683370190505b50905060005b8451811015611302576112d88582815181106112c9576112c96118d5565b60200260200101518585610fd1565b8282815181106112ea576112ea6118d5565b911515602092830291909101909101526001016112ab565b509392505050565b6060825167ffffffffffffffff811115611326576113266117ef565b60405190808252806020026020018201604052801561134f578160200160208202803683370190505b50905060005b83518110156113ab57611381848281518110611373576113736118d5565b602002602001015184611000565b828281518110611393576113936118d5565b91151560209283029190910190910152600101611355565b5092915050565b60606113be600f610d03565b6001600160a01b031663f9226b1a836040518263ffffffff1660e01b81526004016113e99190611922565b600060405180830381865afa158015611406573d6000803e3d6000fd5b505050506040513d6000823e601f3d908101601f191682016040526103879190810190611810565b6000818511158015610ba7575050501115919050565b6001600160a01b038116811461125d57600080fd5b60006020828403121561146b57600080fd5b81356103be81611444565b60008060006060848603121561148b57600080fd5b833561149681611444565b95602085013595506040909401359392505050565b600080604083850312156114be57600080fd5b82356114c981611444565b946020939093013593505050565b600080600080600080600060e0888a0312156114f257600080fd5b87356114fd81611444565b9960208901359950604089013598606081013598506080810135975060a0810135965060c00135945092505050565b803560108110610d7957600080fd5b6000806040838503121561154e57600080fd5b6115578361152c565b9150602083013561156781611444565b809150509250929050565b60008083601f84011261158457600080fd5b50813567ffffffffffffffff81111561159c57600080fd5b6020830191508360208260051b85010111156115b757600080fd5b9250929050565b600080600080606085870312156115d457600080fd5b843567ffffffffffffffff8111156115eb57600080fd5b6115f787828801611572565b90989097506020870135966040013595509350505050565b6020808252825182820181905260009190848201906040850190845b8181101561164957835115158352928401929184019160010161162b565b50909695505050505050565b60008060006040848603121561166a57600080fd5b833567ffffffffffffffff81111561168157600080fd5b61168d86828701611572565b909790965060209590950135949350505050565b60008060008060008060c087890312156116ba57600080fd5b505084359660208601359650604086013595606081013595506080810135945060a0013592509050565b6000602082840312156116f657600080fd5b6103be8261152c565b60006020828403121561171157600080fd5b815180151581146103be57600080fd5b634e487b7160e01b600052602160045260246000fd5b6001600160e01b03198316815260408101600b831061175857611758611721565b8260208301529392505050565b634e487b7160e01b600052601160045260246000fd5b8082018082111561038757610387611765565b8181038181111561038757610387611765565b6020808252602e908201527f496e697469616c697a61626c653a20636f6e747261637420697320616c72656160408201526d191e481a5b9a5d1a585b1a5e995960921b606082015260800190565b634e487b7160e01b600052604160045260246000fd5b8051610d7981611444565b6000602080838503121561182357600080fd5b825167ffffffffffffffff8082111561183b57600080fd5b818501915085601f83011261184f57600080fd5b815181811115611861576118616117ef565b8060051b604051601f19603f83011681018181108582111715611886576118866117ef565b6040529182528482019250838101850191888311156118a457600080fd5b938501935b828510156118c9576118ba85611805565b845293850193928501926118a9565b98975050505050505050565b634e487b7160e01b600052603260045260246000fd5b60208101601083106118ff576118ff611721565b91905290565b60006020828403121561191757600080fd5b81516103be81611444565b6020808252825182820181905260009190848201906040850190845b818110156116495783516001600160a01b03168352928401929184019160010161193e56fea2646970667358221220eb4830c25cce95c4682d927ba3336e871f37ea856d5e29b12099a2213116b9e464736f6c63430008130033",
  "devdoc": {
    "errors": {
      "ErrAlreadyOnMaintenance()": [
        {
          "details": "Error thrown when attempting to initiate maintenance while already in maintenance mode."
        }
      ],
      "ErrAlreadyScheduled()": [
        {
          "details": "Error thrown when attempting to schedule an already scheduled event."
        }
      ],
      "ErrContractTypeNotFound(uint8)": [
        {
          "details": "Error of invalid role."
        }
      ],
      "ErrCooldownTimeNotYetEnded()": [
        {
          "details": "Error thrown when attempting an action before the cooldown period has ended."
        }
      ],
      "ErrEndBlockOutOfRange()": [
        {
          "details": "Error thrown when the end block of a schedule is out of range."
        }
      ],
      "ErrInvalidMaintenanceDuration()": [
        {
          "details": "Error thrown when an invalid maintenance duration is specified."
        }
      ],
      "ErrInvalidMaintenanceDurationConfig()": [
        {
          "details": "Error thrown when an invalid maintenance duration configuration is provided."
        }
      ],
      "ErrInvalidOffsetToStartScheduleConfigs()": [
        {
          "details": "Error thrown when an invalid offset is specified to start the schedule configurations."
        }
      ],
      "ErrStartBlockOutOfRange()": [
        {
          "details": "Error thrown when the start block of a schedule is out of range."
        }
      ],
      "ErrTotalOfSchedulesExceeded()": [
        {
          "details": "Error thrown when the total number of schedules exceeds the limit."
        }
      ],
      "ErrUnauthorized(bytes4,uint8)": [
        {
          "details": "Error indicating that the caller is unauthorized to perform a specific function.",
          "params": {
            "expectedRole": "The role required to perform the function.",
            "msgSig": "The function signature (bytes4) that the caller is unauthorized to perform."
          }
        }
      ],
      "ErrUnexistedSchedule()": [
        {
          "details": "Error thrown when referring to a non-existent schedule."
        }
      ],
      "ErrZeroCodeContract(address)": [
        {
          "details": "Error of set to non-contract."
        }
      ]
    },
    "events": {
      "ContractUpdated(uint8,address)": {
        "details": "Emitted when a contract is updated."
      },
      "Initialized(uint8)": {
        "details": "Triggered when the contract has been initialized or reinitialized."
      },
      "MaintenanceConfigUpdated(uint256,uint256,uint256,uint256,uint256,uint256)": {
        "details": "Emitted when the maintenance config is updated."
      },
      "MaintenanceScheduleCancelled(address)": {
        "details": "Emitted when a schedule of maintenance is cancelled."
      },
      "MaintenanceScheduled(address,(uint256,uint256,uint256,uint256))": {
        "details": "Emitted when a maintenance is scheduled."
      }
    },
    "kind": "dev",
    "methods": {
      "cancelSchedule(address)": {
        "details": "Cancel the schedule of maintenance for the `consensusAddr`. Requirements: - The candidate `consensusAddr` is the block producer. - The method caller is candidate admin of the candidate `consensusAddr`. - A schedule for the `consensusAddr` must be existent and not executed yet. Emits the event `MaintenanceScheduleCancelled`."
      },
      "checkCooldownEnded(address)": {
        "details": "Returns whether the validator `consensusAddr` has finished cooldown."
      },
      "checkMaintained(address,uint256)": {
        "details": "Returns whether the validator `consensusAddr` maintained at the block number `_block`."
      },
      "checkMaintainedInBlockRange(address,uint256,uint256)": {
        "details": "Returns whether the validator `consensusAddr` maintained in the inclusive range [`_fromBlock`, `_toBlock`] of blocks."
      },
      "checkManyMaintained(address[],uint256)": {
        "details": "Returns the bool array indicating the validators maintained at block number `k` or not."
      },
      "checkManyMaintainedInBlockRange(address[],uint256,uint256)": {
        "details": "Returns a bool array indicating the validators maintained in the inclusive range [`_fromBlock`, `_toBlock`] of blocks or not."
      },
      "checkScheduled(address)": {
        "details": "Returns whether the validator `consensusAddr` has schedule."
      },
      "cooldownSecsToMaintain()": {
        "details": "Returns the cooldown to maintain in seconds."
      },
      "getContract(uint8)": {
        "details": "Returns the address of a contract with a specific role. Throws an error if no contract is set for the specified role.",
        "params": {
          "contractType": "The role of the contract to retrieve."
        },
        "returns": {
          "contract_": "The address of the contract with the specified role."
        }
      },
      "getSchedule(address)": {
        "details": "Returns the detailed schedule of the validator `consensusAddr`."
      },
      "initialize(address,uint256,uint256,uint256,uint256,uint256,uint256)": {
        "details": "Initializes the contract storage."
      },
      "maxMaintenanceDurationInBlock()": {
        "details": "Returns the max duration for maintenance in block."
      },
      "maxOffsetToStartSchedule()": {
        "details": "The offset to the max block number that the schedule can start"
      },
      "maxSchedule()": {
        "details": "Returns the max number of scheduled maintenances."
      },
      "minMaintenanceDurationInBlock()": {
        "details": "Returns the min duration for maintenance in block."
      },
      "minOffsetToStartSchedule()": {
        "details": "The offset to the min block number that the schedule can start"
      },
      "schedule(address,uint256,uint256)": {
        "details": "Schedules for maintenance from `startedAtBlock` to `endedAtBlock`. Requirements: - The candidate `consensusAddr` is the block producer. - The method caller is candidate admin of the candidate `consensusAddr`. - The candidate `consensusAddr` has no schedule yet or the previous is done. - The total number of schedules is not larger than `maxSchedules()`. - The start block must be at least `minOffsetToStartSchedule()` and at most `maxOffsetToStartSchedule()` blocks from the current block. - The end block is larger than the start block. - The scheduled duration is larger than the `minMaintenanceDurationInBlock()` and less than the `maxMaintenanceDurationInBlock()`. - The start block is at the start of an epoch. - The end block is at the end of an epoch. Emits the event `MaintenanceScheduled`."
      },
      "setContract(uint8,address)": {
        "details": "Sets the address of a contract with a specific role. Emits the event {ContractUpdated}.",
        "params": {
          "addr": "The address of the contract to set.",
          "contractType": "The role of the contract to set."
        }
      },
      "setMaintenanceConfig(uint256,uint256,uint256,uint256,uint256,uint256)": {
        "details": "Sets the duration restriction, start time restriction, and max allowed for maintenance. Requirements: - The method caller is admin. - The max duration is larger than the min duration. - The max offset is larger than the min offset. Emits the event `MaintenanceConfigUpdated`."
      },
      "totalSchedule()": {
        "details": "Returns the total of current schedules."
      }
    },
    "stateVariables": {
      "_cooldownSecsToMaintain": {
        "details": "The cooldown time to request new schedule."
      },
      "_maxMaintenanceDurationInBlock": {
        "details": "The max duration to maintenance in blocks."
      },
      "_maxOffsetToStartSchedule": {
        "details": "The offset to the max block number that the schedule can start."
      },
      "_maxSchedule": {
        "details": "The max number of scheduled maintenances."
      },
      "_minMaintenanceDurationInBlock": {
        "details": "The min duration to maintenance in blocks."
      },
      "_minOffsetToStartSchedule": {
        "details": "The offset to the min block number that the schedule can start."
      },
      "_schedule": {
        "details": "Mapping from candidate id => maintenance schedule."
      }
    },
    "version": 1
  },
  "userdoc": {
    "kind": "user",
    "methods": {},
    "version": 1
  },
  "storageLayout": {
    "storage": [
      {
        "astId": 31444,
        "contract": "contracts/ronin/Maintenance.sol:Maintenance",
        "label": "______deprecatedValidator",
        "offset": 0,
        "slot": "0",
        "type": "t_address"
      },
      {
        "astId": 1124,
        "contract": "contracts/ronin/Maintenance.sol:Maintenance",
        "label": "_initialized",
        "offset": 20,
        "slot": "0",
        "type": "t_uint8"
      },
      {
        "astId": 1127,
        "contract": "contracts/ronin/Maintenance.sol:Maintenance",
        "label": "_initializing",
        "offset": 21,
        "slot": "0",
        "type": "t_bool"
      },
      {
        "astId": 14251,
        "contract": "contracts/ronin/Maintenance.sol:Maintenance",
        "label": "_schedule",
        "offset": 0,
        "slot": "1",
        "type": "t_mapping(t_address,t_struct(Schedule)5940_storage)"
      },
      {
        "astId": 14254,
        "contract": "contracts/ronin/Maintenance.sol:Maintenance",
        "label": "_minMaintenanceDurationInBlock",
        "offset": 0,
        "slot": "2",
        "type": "t_uint256"
      },
      {
        "astId": 14257,
        "contract": "contracts/ronin/Maintenance.sol:Maintenance",
        "label": "_maxMaintenanceDurationInBlock",
        "offset": 0,
        "slot": "3",
        "type": "t_uint256"
      },
      {
        "astId": 14260,
        "contract": "contracts/ronin/Maintenance.sol:Maintenance",
        "label": "_minOffsetToStartSchedule",
        "offset": 0,
        "slot": "4",
        "type": "t_uint256"
      },
      {
        "astId": 14263,
        "contract": "contracts/ronin/Maintenance.sol:Maintenance",
        "label": "_maxOffsetToStartSchedule",
        "offset": 0,
        "slot": "5",
        "type": "t_uint256"
      },
      {
        "astId": 14266,
        "contract": "contracts/ronin/Maintenance.sol:Maintenance",
        "label": "_maxSchedule",
        "offset": 0,
        "slot": "6",
        "type": "t_uint256"
      },
      {
        "astId": 14269,
        "contract": "contracts/ronin/Maintenance.sol:Maintenance",
        "label": "_cooldownSecsToMaintain",
        "offset": 0,
        "slot": "7",
        "type": "t_uint256"
      }
    ],
    "types": {
      "t_address": {
        "encoding": "inplace",
        "label": "address",
        "numberOfBytes": "20"
      },
      "t_bool": {
        "encoding": "inplace",
        "label": "bool",
        "numberOfBytes": "1"
      },
      "t_mapping(t_address,t_struct(Schedule)5940_storage)": {
        "encoding": "mapping",
        "key": "t_address",
        "label": "mapping(address => struct IMaintenance.Schedule)",
        "numberOfBytes": "32",
        "value": "t_struct(Schedule)5940_storage"
      },
      "t_struct(Schedule)5940_storage": {
        "encoding": "inplace",
        "label": "struct IMaintenance.Schedule",
        "members": [
          {
            "astId": 5933,
            "contract": "contracts/ronin/Maintenance.sol:Maintenance",
            "label": "from",
            "offset": 0,
            "slot": "0",
            "type": "t_uint256"
          },
          {
            "astId": 5935,
            "contract": "contracts/ronin/Maintenance.sol:Maintenance",
            "label": "to",
            "offset": 0,
            "slot": "1",
            "type": "t_uint256"
          },
          {
            "astId": 5937,
            "contract": "contracts/ronin/Maintenance.sol:Maintenance",
            "label": "lastUpdatedBlock",
            "offset": 0,
            "slot": "2",
            "type": "t_uint256"
          },
          {
            "astId": 5939,
            "contract": "contracts/ronin/Maintenance.sol:Maintenance",
            "label": "requestTimestamp",
            "offset": 0,
            "slot": "3",
            "type": "t_uint256"
          }
        ],
        "numberOfBytes": "128"
      },
      "t_uint256": {
        "encoding": "inplace",
        "label": "uint256",
        "numberOfBytes": "32"
      },
      "t_uint8": {
        "encoding": "inplace",
        "label": "uint8",
        "numberOfBytes": "1"
      }
    }
  }
}