{
  "address": "0x4DAf93E7575e343Cc7DAC3462baB33db29703A29",
  "abi": [
    {
      "inputs": [],
      "stateMutability": "nonpayable",
      "type": "constructor"
    },
    {
      "anonymous": false,
      "inputs": [
        {
          "indexed": false,
          "internalType": "uint8",
          "name": "version",
          "type": "uint8"
        }
      ],
      "name": "Initialized",
      "type": "event"
    },
    {
      "anonymous": false,
      "inputs": [
        {
          "indexed": false,
          "internalType": "uint256",
          "name": "minMaintenanceDurationInBlock",
          "type": "uint256"
        },
        {
          "indexed": false,
          "internalType": "uint256",
          "name": "maxMaintenanceDurationInBlock",
          "type": "uint256"
        },
        {
          "indexed": false,
          "internalType": "uint256",
          "name": "minOffsetToStartSchedule",
          "type": "uint256"
        },
        {
          "indexed": false,
          "internalType": "uint256",
          "name": "maxOffsetToStartSchedule",
          "type": "uint256"
        },
        {
          "indexed": false,
          "internalType": "uint256",
          "name": "maxSchedules",
          "type": "uint256"
        }
      ],
      "name": "MaintenanceConfigUpdated",
      "type": "event"
    },
    {
      "anonymous": false,
      "inputs": [
        {
          "indexed": true,
          "internalType": "address",
          "name": "consensusAddr",
          "type": "address"
        },
        {
          "components": [
            {
              "internalType": "uint256",
              "name": "from",
              "type": "uint256"
            },
            {
              "internalType": "uint256",
              "name": "to",
              "type": "uint256"
            },
            {
              "internalType": "uint256",
              "name": "lastUpdatedBlock",
              "type": "uint256"
            }
          ],
          "indexed": false,
          "internalType": "struct IMaintenance.Schedule",
          "name": "",
          "type": "tuple"
        }
      ],
      "name": "MaintenanceScheduled",
      "type": "event"
    },
    {
      "anonymous": false,
      "inputs": [
        {
          "indexed": false,
          "internalType": "address",
          "name": "",
          "type": "address"
        }
      ],
      "name": "ValidatorContractUpdated",
      "type": "event"
    },
    {
      "inputs": [
        {
          "internalType": "address",
          "name": "_consensusAddr",
          "type": "address"
        },
        {
          "internalType": "uint256",
          "name": "_block",
          "type": "uint256"
        }
      ],
      "name": "checkMaintained",
      "outputs": [
        {
          "internalType": "bool",
          "name": "",
          "type": "bool"
        }
      ],
      "stateMutability": "view",
      "type": "function"
    },
    {
      "inputs": [
        {
          "internalType": "address",
          "name": "_consensusAddr",
          "type": "address"
        },
        {
          "internalType": "uint256",
          "name": "_fromBlock",
          "type": "uint256"
        },
        {
          "internalType": "uint256",
          "name": "_toBlock",
          "type": "uint256"
        }
      ],
      "name": "checkMaintainedInBlockRange",
      "outputs": [
        {
          "internalType": "bool",
          "name": "",
          "type": "bool"
        }
      ],
      "stateMutability": "view",
      "type": "function"
    },
    {
      "inputs": [
        {
          "internalType": "address[]",
          "name": "_addrList",
          "type": "address[]"
        },
        {
          "internalType": "uint256",
          "name": "_block",
          "type": "uint256"
        }
      ],
      "name": "checkManyMaintained",
      "outputs": [
        {
          "internalType": "bool[]",
          "name": "_resList",
          "type": "bool[]"
        }
      ],
      "stateMutability": "view",
      "type": "function"
    },
    {
      "inputs": [
        {
          "internalType": "address[]",
          "name": "_addrList",
          "type": "address[]"
        },
        {
          "internalType": "uint256",
          "name": "_fromBlock",
          "type": "uint256"
        },
        {
          "internalType": "uint256",
          "name": "_toBlock",
          "type": "uint256"
        }
      ],
      "name": "checkManyMaintainedInBlockRange",
      "outputs": [
        {
          "internalType": "bool[]",
          "name": "_resList",
          "type": "bool[]"
        }
      ],
      "stateMutability": "view",
      "type": "function"
    },
    {
      "inputs": [
        {
          "internalType": "address",
          "name": "_consensusAddr",
          "type": "address"
        }
      ],
      "name": "checkScheduled",
      "outputs": [
        {
          "internalType": "bool",
          "name": "",
          "type": "bool"
        }
      ],
      "stateMutability": "view",
      "type": "function"
    },
    {
      "inputs": [
        {
          "internalType": "address",
          "name": "_consensusAddr",
          "type": "address"
        }
      ],
      "name": "getSchedule",
      "outputs": [
        {
          "components": [
            {
              "internalType": "uint256",
              "name": "from",
              "type": "uint256"
            },
            {
              "internalType": "uint256",
              "name": "to",
              "type": "uint256"
            },
            {
              "internalType": "uint256",
              "name": "lastUpdatedBlock",
              "type": "uint256"
            }
          ],
          "internalType": "struct IMaintenance.Schedule",
          "name": "",
          "type": "tuple"
        }
      ],
      "stateMutability": "view",
      "type": "function"
    },
    {
      "inputs": [
        {
          "internalType": "address",
          "name": "__validatorContract",
          "type": "address"
        },
        {
          "internalType": "uint256",
          "name": "_minMaintenanceDurationInBlock",
          "type": "uint256"
        },
        {
          "internalType": "uint256",
          "name": "_maxMaintenanceDurationInBlock",
          "type": "uint256"
        },
        {
          "internalType": "uint256",
          "name": "_minOffsetToStartSchedule",
          "type": "uint256"
        },
        {
          "internalType": "uint256",
          "name": "_maxOffsetToStartSchedule",
          "type": "uint256"
        },
        {
          "internalType": "uint256",
          "name": "_maxSchedules",
          "type": "uint256"
        }
      ],
      "name": "initialize",
      "outputs": [],
      "stateMutability": "nonpayable",
      "type": "function"
    },
    {
      "inputs": [],
      "name": "maxMaintenanceDurationInBlock",
      "outputs": [
        {
          "internalType": "uint256",
          "name": "",
          "type": "uint256"
        }
      ],
      "stateMutability": "view",
      "type": "function"
    },
    {
      "inputs": [],
      "name": "maxOffsetToStartSchedule",
      "outputs": [
        {
          "internalType": "uint256",
          "name": "",
          "type": "uint256"
        }
      ],
      "stateMutability": "view",
      "type": "function"
    },
    {
      "inputs": [],
      "name": "maxSchedules",
      "outputs": [
        {
          "internalType": "uint256",
          "name": "",
          "type": "uint256"
        }
      ],
      "stateMutability": "view",
      "type": "function"
    },
    {
      "inputs": [],
      "name": "minMaintenanceDurationInBlock",
      "outputs": [
        {
          "internalType": "uint256",
          "name": "",
          "type": "uint256"
        }
      ],
      "stateMutability": "view",
      "type": "function"
    },
    {
      "inputs": [],
      "name": "minOffsetToStartSchedule",
      "outputs": [
        {
          "internalType": "uint256",
          "name": "",
          "type": "uint256"
        }
      ],
      "stateMutability": "view",
      "type": "function"
    },
    {
      "inputs": [
        {
          "internalType": "address",
          "name": "_consensusAddr",
          "type": "address"
        },
        {
          "internalType": "uint256",
          "name": "_startedAtBlock",
          "type": "uint256"
        },
        {
          "internalType": "uint256",
          "name": "_endedAtBlock",
          "type": "uint256"
        }
      ],
      "name": "schedule",
      "outputs": [],
      "stateMutability": "nonpayable",
      "type": "function"
    },
    {
      "inputs": [
        {
          "internalType": "uint256",
          "name": "_minMaintenanceDurationInBlock",
          "type": "uint256"
        },
        {
          "internalType": "uint256",
          "name": "_maxMaintenanceDurationInBlock",
          "type": "uint256"
        },
        {
          "internalType": "uint256",
          "name": "_minOffsetToStartSchedule",
          "type": "uint256"
        },
        {
          "internalType": "uint256",
          "name": "_maxOffsetToStartSchedule",
          "type": "uint256"
        },
        {
          "internalType": "uint256",
          "name": "_maxSchedules",
          "type": "uint256"
        }
      ],
      "name": "setMaintenanceConfig",
      "outputs": [],
      "stateMutability": "nonpayable",
      "type": "function"
    },
    {
      "inputs": [
        {
          "internalType": "address",
          "name": "_addr",
          "type": "address"
        }
      ],
      "name": "setValidatorContract",
      "outputs": [],
      "stateMutability": "nonpayable",
      "type": "function"
    },
    {
      "inputs": [],
      "name": "totalSchedules",
      "outputs": [
        {
          "internalType": "uint256",
          "name": "_count",
          "type": "uint256"
        }
      ],
      "stateMutability": "view",
      "type": "function"
    },
    {
      "inputs": [],
      "name": "validatorContract",
      "outputs": [
        {
          "internalType": "address",
          "name": "",
          "type": "address"
        }
      ],
      "stateMutability": "view",
      "type": "function"
    }
  ],
  "transactionHash": "0x974698a862bdfb06ebdc47252a5f00a9e88c941398db7cdf46dbc09f96e5b69c",
  "args": [],
  "numDeployments": 2,
  "solcInputHash": "7ee7c0f941167beb3dcb34451beb8d74",
  "bytecode": "0x608060405234801561001057600080fd5b5061001961001e565b6100eb565b600054600160a81b900460ff161561008c5760405162461bcd60e51b815260206004820152602760248201527f496e697469616c697a61626c653a20636f6e747261637420697320696e697469604482015266616c697a696e6760c81b606482015260840160405180910390fd5b60005460ff600160a01b909104811610156100e9576000805460ff60a01b191660ff60a01b17905560405160ff81527f7f26b83ff96e1f2b6a682f133852f6798a09c465da95921460cefb38474024989060200160405180910390a15b565b61147f806100fa6000396000f3fe608060405234801561001057600080fd5b506004361061010b5760003560e01c8063965720af116100a2578063bfa89b9b11610071578063bfa89b9b14610222578063c44cb2331461022b578063cdf64a7614610234578063d39fee3414610247578063fdadda811461027c57600080fd5b8063965720af146101d657806399439089146101de578063ba303755146101f9578063bc1710e91461021957600080fd5b80632d538c2c116100de5780632d538c2c146101775780632ddc08a21461018a57806345ff4c80146101ba5780637a50802d146101cd57600080fd5b8063088e8de71461011057806309e34c38146101385780630c4cea591461014f5780630fbeb37f14610164575b600080fd5b61012361011e366004611054565b61028f565b60405190151581526020015b60405180910390f35b61014160025481565b60405190815260200161012f565b61016261015d366004611089565b6102a4565b005b6101236101723660046110c4565b61030a565b610162610185366004611054565b610341565b6101236101983660046110f0565b6001600160a01b03166000908152600160208190526040909120015443111590565b6101626101c8366004611114565b610975565b61014160055481565b610141610ab5565b6000546040516001600160a01b03909116815260200161012f565b61020c6102073660046111ac565b610b9d565b60405161012f91906111fd565b61014160045481565b61014160035481565b61014160065481565b6101626102423660046110f0565b610c5d565b61025a6102553660046110f0565b610d1e565b604080518251815260208084015190820152918101519082015260600161012f565b61020c61028a366004611243565b610d83565b600061029c848484610e41565b949350505050565b7fb53127684a568b3173ae13b9f8a6016e243e63b6e8ee1178d6a717850b5d6103546001600160a01b031633146102f65760405162461bcd60e51b81526004016102ed9061128f565b60405180910390fd5b6103038585858585610e79565b5050505050565b6001600160a01b038216600090815260016020526040812080548310801590610337575080600101548311155b9150505b92915050565b600054604051633292276760e11b81526001600160a01b0385811660048301529091169081906365244ece90602401602060405180830381865afa15801561038d573d6000803e3d6000fd5b505050506040513d601f19601f820116820180604052508101906103b191906112d1565b6104235760405162461bcd60e51b815260206004820152603760248201527f4d61696e74656e616e63653a20636f6e73656e7375732061646472657373206d60448201527f757374206265206120626c6f636b2070726f647563657200000000000000000060648201526084016102ed565b6040516304d971ab60e01b81526001600160a01b0385811660048301523360248301528216906304d971ab90604401602060405180830381865afa15801561046f573d6000803e3d6000fd5b505050506040513d601f19601f8201168201806040525081019061049391906112d1565b6104fc5760405162461bcd60e51b815260206004820152603460248201527f4d61696e74656e616e63653a206d6574686f642063616c6c6572206d75737420604482015273313290309031b0b73234b230ba329030b236b4b760611b60648201526084016102ed565b6001600160a01b0384166000908152600160208190526040909120015443116105675760405162461bcd60e51b815260206004820152601e60248201527f4d61696e74656e616e63653a20616c7265616479207363686564756c6564000060448201526064016102ed565b600654610572610ab5565b106105cf5760405162461bcd60e51b815260206004820152602760248201527f4d61696e74656e616e63653a206578636565647320746f74616c206f66207363604482015266686564756c657360c81b60648201526084016102ed565b6105f5600454436105e09190611309565b6005546105ed9043611309565b859190610fbe565b6106535760405162461bcd60e51b815260206004820152602960248201527f4d61696e74656e616e63653a20737461727420626c6f636b206973206f7574206044820152681bd9881bd9999cd95d60ba1b60648201526084016102ed565b8183106106bf5760405162461bcd60e51b815260206004820152603460248201527f4d61696e74656e616e63653a20737461727420626c6f636b206d757374206265604482015273206c657373207468616e20656e6420626c6f636b60601b60648201526084016102ed565b60006106cb848461131c565b90506106e660025460035483610fbe9092919063ffffffff16565b6107445760405162461bcd60e51b815260206004820152602960248201527f4d61696e74656e616e63653a20696e76616c6964206d61696e74656e616e636560448201526810323ab930ba34b7b760b91b60648201526084016102ed565b6001600160a01b038216637593ff7161075e60018761131c565b6040518263ffffffff1660e01b815260040161077c91815260200190565b602060405180830381865afa158015610799573d6000803e3d6000fd5b505050506040513d601f19601f820116820180604052508101906107bd91906112d1565b61082f5760405162461bcd60e51b815260206004820152603860248201527f4d61696e74656e616e63653a20737461727420626c6f636b206973206e6f742060448201527f617420746865207374617274206f6620616e2065706f6368000000000000000060648201526084016102ed565b604051637593ff7160e01b8152600481018490526001600160a01b03831690637593ff7190602401602060405180830381865afa158015610874573d6000803e3d6000fd5b505050506040513d601f19601f8201168201806040525081019061089891906112d1565b6109015760405162461bcd60e51b815260206004820152603460248201527f4d61696e74656e616e63653a20656e6420626c6f636b206973206e6f74206174604482015273040e8d0ca40cadcc840decc40c2dc40cae0dec6d60631b60648201526084016102ed565b6001600160a01b038516600081815260016020818152604092839020888155918201879055436002830181905583518981529182018890528184015291519092917f3136fc9202ed1c3f8bc7ea3afb46704719833536485624cea83d7076f8785f43919081900360600190a2505050505050565b600054600160a81b900460ff161580801561099d57506000546001600160a01b90910460ff16105b806109be5750303b1580156109be5750600054600160a01b900460ff166001145b610a215760405162461bcd60e51b815260206004820152602e60248201527f496e697469616c697a61626c653a20636f6e747261637420697320616c72656160448201526d191e481a5b9a5d1a585b1a5e995960921b60648201526084016102ed565b6000805460ff60a01b1916600160a01b1790558015610a4e576000805460ff60a81b1916600160a81b1790555b610a5787610fd5565b610a648686868686610e79565b8015610aac576000805460ff60a81b19169055604051600181527f7f26b83ff96e1f2b6a682f133852f6798a09c465da95921460cefb38474024989060200160405180910390a15b50505050505050565b600080546040805163b7ab4db560e01b8152905183926001600160a01b03169163b7ab4db591600480830192869291908290030181865afa158015610afe573d6000803e3d6000fd5b505050506040513d6000823e601f3d908101601f19168201604052610b269190810190611355565b905060005b8151811015610b9857610b73828281518110610b4957610b4961141a565b60200260200101516001600160a01b03166000908152600160208190526040909120015443111590565b15610b865782610b8281611430565b9350505b80610b9081611430565b915050610b2b565b505090565b60608367ffffffffffffffff811115610bb857610bb861132f565b604051908082528060200260200182016040528015610be1578160200160208202803683370190505b50905060005b84811015610c5457610c20868683818110610c0457610c0461141a565b9050602002016020810190610c1991906110f0565b8585610e41565b828281518110610c3257610c3261141a565b9115156020928302919091019091015280610c4c81611430565b915050610be7565b50949350505050565b7fb53127684a568b3173ae13b9f8a6016e243e63b6e8ee1178d6a717850b5d6103546001600160a01b03163314610ca65760405162461bcd60e51b81526004016102ed9061128f565b6000816001600160a01b03163b11610d125760405162461bcd60e51b815260206004820152602960248201527f48617356616c696461746f72436f6e74726163743a2073657420746f206e6f6e6044820152680b58dbdb9d1c9858dd60ba1b60648201526084016102ed565b610d1b81610fd5565b50565b610d4260405180606001604052806000815260200160008152602001600081525090565b506001600160a01b03166000908152600160208181526040928390208351606081018552815481529281015491830191909152600201549181019190915290565b60608267ffffffffffffffff811115610d9e57610d9e61132f565b604051908082528060200260200182016040528015610dc7578160200160208202803683370190505b50905060005b83811015610e3957610e05858583818110610dea57610dea61141a565b9050602002016020810190610dff91906110f0565b8461030a565b828281518110610e1757610e1761141a565b9115156020928302919091019091015280610e3181611430565b915050610dcd565b509392505050565b6001600160a01b038316600090815260016020819052604082208054918101549091610e709186918691611029565b95945050505050565b838510610ee25760405162461bcd60e51b815260206004820152603160248201527f4d61696e74656e616e63653a20696e76616c6964206d61696e74656e616e6365604482015270206475726174696f6e20636f6e6669677360781b60648201526084016102ed565b818310610f4f5760405162461bcd60e51b815260206004820152603560248201527f4d61696e74656e616e63653a20696e76616c6964206f666673657420746f207360448201527474617274207363686564756c6520636f6e6669677360581b60648201526084016102ed565b60028590556003849055600483905560058290556006819055604080518681526020810186905290810184905260608101839052608081018290527fa95659ec997f7f4e9eb2cc9d46f0c1a257b876d8ebbb8938ff0bd4d5c7cce4fa9060a00160405180910390a15050505050565b600083831115801561029c57505090911115919050565b600080546001600160a01b0319166001600160a01b0383169081179091556040519081527fef40dc07567635f84f5edbd2f8dbc16b40d9d282dd8e7e6f4ff58236b68361699060200160405180910390a150565b6000818511158015610e70575050501115919050565b6001600160a01b0381168114610d1b57600080fd5b60008060006060848603121561106957600080fd5b83356110748161103f565b95602085013595506040909401359392505050565b600080600080600060a086880312156110a157600080fd5b505083359560208501359550604085013594606081013594506080013592509050565b600080604083850312156110d757600080fd5b82356110e28161103f565b946020939093013593505050565b60006020828403121561110257600080fd5b813561110d8161103f565b9392505050565b60008060008060008060c0878903121561112d57600080fd5b86356111388161103f565b9860208801359850604088013597606081013597506080810135965060a00135945092505050565b60008083601f84011261117257600080fd5b50813567ffffffffffffffff81111561118a57600080fd5b6020830191508360208260051b85010111156111a557600080fd5b9250929050565b600080600080606085870312156111c257600080fd5b843567ffffffffffffffff8111156111d957600080fd5b6111e587828801611160565b90989097506020870135966040013595509350505050565b6020808252825182820181905260009190848201906040850190845b81811015611237578351151583529284019291840191600101611219565b50909695505050505050565b60008060006040848603121561125857600080fd5b833567ffffffffffffffff81111561126f57600080fd5b61127b86828701611160565b909790965060209590950135949350505050565b60208082526022908201527f48617350726f787941646d696e3a20756e617574686f72697a65642073656e6460408201526132b960f11b606082015260800190565b6000602082840312156112e357600080fd5b8151801515811461110d57600080fd5b634e487b7160e01b600052601160045260246000fd5b8082018082111561033b5761033b6112f3565b8181038181111561033b5761033b6112f3565b634e487b7160e01b600052604160045260246000fd5b80516113508161103f565b919050565b6000602080838503121561136857600080fd5b825167ffffffffffffffff8082111561138057600080fd5b818501915085601f83011261139457600080fd5b8151818111156113a6576113a661132f565b8060051b604051601f19603f830116810181811085821117156113cb576113cb61132f565b6040529182528482019250838101850191888311156113e957600080fd5b938501935b8285101561140e576113ff85611345565b845293850193928501926113ee565b98975050505050505050565b634e487b7160e01b600052603260045260246000fd5b600060018201611442576114426112f3565b506001019056fea264697066735822122011721bdf44fb6e79730c9583dbffab8cf05a94281226050a280dbfdef64dbde364736f6c63430008110033",
  "devdoc": {
    "kind": "dev",
    "methods": {
      "checkMaintained(address,uint256)": {
        "details": "Returns whether the validator `_consensusAddr` maintained at the block number `_block`."
      },
      "checkMaintainedInBlockRange(address,uint256,uint256)": {
        "details": "Returns whether the validator `_consensusAddr` maintained in the inclusive range [`_fromBlock`, `_toBlock`] of blocks."
      },
      "checkManyMaintained(address[],uint256)": {
        "details": "Returns the bool array indicating the validators maintained at block number `_block` or not."
      },
      "checkManyMaintainedInBlockRange(address[],uint256,uint256)": {
        "details": "Returns a bool array indicating the validators maintained in the inclusive range [`_fromBlock`, `_toBlock`] of blocks or not."
      },
      "checkScheduled(address)": {
        "details": "Returns whether the validator `_consensusAddr` has scheduled."
      },
      "getSchedule(address)": {
        "details": "Returns the detailed schedule of the validator `_consensusAddr`."
      },
      "initialize(address,uint256,uint256,uint256,uint256,uint256)": {
        "details": "Initializes the contract storage."
      },
      "schedule(address,uint256,uint256)": {
        "details": "Schedules for maintenance from `_startedAtBlock` to `_startedAtBlock`. Requirements: - The candidate `_consensusAddr` is the block producer. - The method caller is candidate admin of the candidate `_consensusAddr`. - The candidate `_consensusAddr` has no schedule yet or the previous is done. - The total number of schedules is not larger than `maxSchedules()`. - The start block must be at least `minOffsetToStartSchedule()` and at most `maxOffsetToStartSchedule()` blocks from the current block. - The end block is larger than the start block. - The scheduled duration is larger than the `minMaintenanceDurationInBlock()` and less than the `maxMaintenanceDurationInBlock()`. - The start block is at the start of an epoch. - The end block is at the end of an epoch. Emits the event `MaintenanceScheduled`."
      },
      "setMaintenanceConfig(uint256,uint256,uint256,uint256,uint256)": {
        "details": "Sets the duration restriction, start time restriction, and max allowed for maintenance. Requirements: - The method caller is admin. - The max duration is larger than the min duration. - The max offset is larger than the min offset. Emits the event `MaintenanceConfigUpdated`."
      },
      "setValidatorContract(address)": {
        "details": "Sets the validator contract. Requirements: - The method caller is admin. - The new address is a contract. Emits the event `ValidatorContractUpdated`."
      },
      "totalSchedules()": {
        "details": "Returns the total of current schedules."
      },
      "validatorContract()": {
        "details": "Returns the validator contract."
      }
    },
    "stateVariables": {
      "_schedule": {
        "details": "Mapping from consensus address => maintenance schedule."
      },
      "maxMaintenanceDurationInBlock": {
        "details": "The max duration to maintenance in blocks."
      },
      "maxOffsetToStartSchedule": {
        "details": "The offset to the max block number that the schedule can start."
      },
      "maxSchedules": {
        "details": "The max number of scheduled maintenances."
      },
      "minMaintenanceDurationInBlock": {
        "details": "The min duration to maintenance in blocks."
      },
      "minOffsetToStartSchedule": {
        "details": "The offset to the min block number that the schedule can start."
      }
    },
    "version": 1
  },
  "userdoc": {
    "kind": "user",
    "methods": {},
    "version": 1
  },
  "storageLayout": {
    "storage": [
      {
        "astId": 6398,
        "contract": "contracts/ronin/Maintenance.sol:Maintenance",
        "label": "_validatorContract",
        "offset": 0,
        "slot": "0",
        "type": "t_contract(IRoninValidatorSet)10935"
      },
      {
        "astId": 1373,
        "contract": "contracts/ronin/Maintenance.sol:Maintenance",
        "label": "_initialized",
        "offset": 20,
        "slot": "0",
        "type": "t_uint8"
      },
      {
        "astId": 1376,
        "contract": "contracts/ronin/Maintenance.sol:Maintenance",
        "label": "_initializing",
        "offset": 21,
        "slot": "0",
        "type": "t_bool"
      },
      {
        "astId": 19083,
        "contract": "contracts/ronin/Maintenance.sol:Maintenance",
        "label": "_schedule",
        "offset": 0,
        "slot": "1",
        "type": "t_mapping(t_address,t_struct(Schedule)8928_storage)"
      },
      {
        "astId": 19086,
        "contract": "contracts/ronin/Maintenance.sol:Maintenance",
        "label": "minMaintenanceDurationInBlock",
        "offset": 0,
        "slot": "2",
        "type": "t_uint256"
      },
      {
        "astId": 19089,
        "contract": "contracts/ronin/Maintenance.sol:Maintenance",
        "label": "maxMaintenanceDurationInBlock",
        "offset": 0,
        "slot": "3",
        "type": "t_uint256"
      },
      {
        "astId": 19092,
        "contract": "contracts/ronin/Maintenance.sol:Maintenance",
        "label": "minOffsetToStartSchedule",
        "offset": 0,
        "slot": "4",
        "type": "t_uint256"
      },
      {
        "astId": 19095,
        "contract": "contracts/ronin/Maintenance.sol:Maintenance",
        "label": "maxOffsetToStartSchedule",
        "offset": 0,
        "slot": "5",
        "type": "t_uint256"
      },
      {
        "astId": 19098,
        "contract": "contracts/ronin/Maintenance.sol:Maintenance",
        "label": "maxSchedules",
        "offset": 0,
        "slot": "6",
        "type": "t_uint256"
      }
    ],
    "types": {
      "t_address": {
        "encoding": "inplace",
        "label": "address",
        "numberOfBytes": "20"
      },
      "t_bool": {
        "encoding": "inplace",
        "label": "bool",
        "numberOfBytes": "1"
      },
      "t_contract(IRoninValidatorSet)10935": {
        "encoding": "inplace",
        "label": "contract IRoninValidatorSet",
        "numberOfBytes": "20"
      },
      "t_mapping(t_address,t_struct(Schedule)8928_storage)": {
        "encoding": "mapping",
        "key": "t_address",
        "label": "mapping(address => struct IMaintenance.Schedule)",
        "numberOfBytes": "32",
        "value": "t_struct(Schedule)8928_storage"
      },
      "t_struct(Schedule)8928_storage": {
        "encoding": "inplace",
        "label": "struct IMaintenance.Schedule",
        "members": [
          {
            "astId": 8923,
            "contract": "contracts/ronin/Maintenance.sol:Maintenance",
            "label": "from",
            "offset": 0,
            "slot": "0",
            "type": "t_uint256"
          },
          {
            "astId": 8925,
            "contract": "contracts/ronin/Maintenance.sol:Maintenance",
            "label": "to",
            "offset": 0,
            "slot": "1",
            "type": "t_uint256"
          },
          {
            "astId": 8927,
            "contract": "contracts/ronin/Maintenance.sol:Maintenance",
            "label": "lastUpdatedBlock",
            "offset": 0,
            "slot": "2",
            "type": "t_uint256"
          }
        ],
        "numberOfBytes": "96"
      },
      "t_uint256": {
        "encoding": "inplace",
        "label": "uint256",
        "numberOfBytes": "32"
      },
      "t_uint8": {
        "encoding": "inplace",
        "label": "uint8",
        "numberOfBytes": "1"
      }
    }
  }
}