{
  "address": "0xeD2550669c015e26f5cf772764fd07e76D67b090",
  "abi": [
    {
      "inputs": [],
      "stateMutability": "nonpayable",
      "type": "constructor"
    },
    {
      "anonymous": false,
      "inputs": [
        {
          "indexed": false,
          "internalType": "uint8",
          "name": "version",
          "type": "uint8"
        }
      ],
      "name": "Initialized",
      "type": "event"
    },
    {
      "anonymous": false,
      "inputs": [
        {
          "indexed": false,
          "internalType": "uint256",
          "name": "minMaintenanceDurationInBlock",
          "type": "uint256"
        },
        {
          "indexed": false,
          "internalType": "uint256",
          "name": "maxMaintenanceDurationInBlock",
          "type": "uint256"
        },
        {
          "indexed": false,
          "internalType": "uint256",
          "name": "minOffsetToStartSchedule",
          "type": "uint256"
        },
        {
          "indexed": false,
          "internalType": "uint256",
          "name": "maxOffsetToStartSchedule",
          "type": "uint256"
        },
        {
          "indexed": false,
          "internalType": "uint256",
          "name": "maxSchedules",
          "type": "uint256"
        }
      ],
      "name": "MaintenanceConfigUpdated",
      "type": "event"
    },
    {
      "anonymous": false,
      "inputs": [
        {
          "indexed": true,
          "internalType": "address",
          "name": "consensusAddr",
          "type": "address"
        },
        {
          "components": [
            {
              "internalType": "uint256",
              "name": "from",
              "type": "uint256"
            },
            {
              "internalType": "uint256",
              "name": "to",
              "type": "uint256"
            },
            {
              "internalType": "uint256",
              "name": "lastUpdatedBlock",
              "type": "uint256"
            }
          ],
          "indexed": false,
          "internalType": "struct IMaintenance.Schedule",
          "name": "",
          "type": "tuple"
        }
      ],
      "name": "MaintenanceScheduled",
      "type": "event"
    },
    {
      "anonymous": false,
      "inputs": [
        {
          "indexed": false,
          "internalType": "address",
          "name": "",
          "type": "address"
        }
      ],
      "name": "ValidatorContractUpdated",
      "type": "event"
    },
    {
      "inputs": [
        {
          "internalType": "address[]",
          "name": "_addrList",
          "type": "address[]"
        },
        {
          "internalType": "uint256",
          "name": "_block",
          "type": "uint256"
        }
      ],
      "name": "bulkMaintaining",
      "outputs": [
        {
          "internalType": "bool[]",
          "name": "_resList",
          "type": "bool[]"
        }
      ],
      "stateMutability": "view",
      "type": "function"
    },
    {
      "inputs": [
        {
          "internalType": "address[]",
          "name": "_addrList",
          "type": "address[]"
        },
        {
          "internalType": "uint256",
          "name": "_fromBlock",
          "type": "uint256"
        },
        {
          "internalType": "uint256",
          "name": "_toBlock",
          "type": "uint256"
        }
      ],
      "name": "bulkMaintainingInBlockRange",
      "outputs": [
        {
          "internalType": "bool[]",
          "name": "_resList",
          "type": "bool[]"
        }
      ],
      "stateMutability": "view",
      "type": "function"
    },
    {
      "inputs": [
        {
          "internalType": "address",
          "name": "_consensusAddr",
          "type": "address"
        }
      ],
      "name": "getSchedule",
      "outputs": [
        {
          "components": [
            {
              "internalType": "uint256",
              "name": "from",
              "type": "uint256"
            },
            {
              "internalType": "uint256",
              "name": "to",
              "type": "uint256"
            },
            {
              "internalType": "uint256",
              "name": "lastUpdatedBlock",
              "type": "uint256"
            }
          ],
          "internalType": "struct IMaintenance.Schedule",
          "name": "",
          "type": "tuple"
        }
      ],
      "stateMutability": "view",
      "type": "function"
    },
    {
      "inputs": [
        {
          "internalType": "address",
          "name": "__validatorContract",
          "type": "address"
        },
        {
          "internalType": "uint256",
          "name": "_minMaintenanceDurationInBlock",
          "type": "uint256"
        },
        {
          "internalType": "uint256",
          "name": "_maxMaintenanceDurationInBlock",
          "type": "uint256"
        },
        {
          "internalType": "uint256",
          "name": "_minOffsetToStartSchedule",
          "type": "uint256"
        },
        {
          "internalType": "uint256",
          "name": "_maxOffsetToStartSchedule",
          "type": "uint256"
        },
        {
          "internalType": "uint256",
          "name": "_maxSchedules",
          "type": "uint256"
        }
      ],
      "name": "initialize",
      "outputs": [],
      "stateMutability": "nonpayable",
      "type": "function"
    },
    {
      "inputs": [
        {
          "internalType": "address",
          "name": "_consensusAddr",
          "type": "address"
        },
        {
          "internalType": "uint256",
          "name": "_block",
          "type": "uint256"
        }
      ],
      "name": "maintaining",
      "outputs": [
        {
          "internalType": "bool",
          "name": "",
          "type": "bool"
        }
      ],
      "stateMutability": "view",
      "type": "function"
    },
    {
      "inputs": [
        {
          "internalType": "address",
          "name": "_consensusAddr",
          "type": "address"
        },
        {
          "internalType": "uint256",
          "name": "_fromBlock",
          "type": "uint256"
        },
        {
          "internalType": "uint256",
          "name": "_toBlock",
          "type": "uint256"
        }
      ],
      "name": "maintainingInBlockRange",
      "outputs": [
        {
          "internalType": "bool",
          "name": "",
          "type": "bool"
        }
      ],
      "stateMutability": "view",
      "type": "function"
    },
    {
      "inputs": [],
      "name": "maxMaintenanceDurationInBlock",
      "outputs": [
        {
          "internalType": "uint256",
          "name": "",
          "type": "uint256"
        }
      ],
      "stateMutability": "view",
      "type": "function"
    },
    {
      "inputs": [],
      "name": "maxOffsetToStartSchedule",
      "outputs": [
        {
          "internalType": "uint256",
          "name": "",
          "type": "uint256"
        }
      ],
      "stateMutability": "view",
      "type": "function"
    },
    {
      "inputs": [],
      "name": "maxSchedules",
      "outputs": [
        {
          "internalType": "uint256",
          "name": "",
          "type": "uint256"
        }
      ],
      "stateMutability": "view",
      "type": "function"
    },
    {
      "inputs": [],
      "name": "minMaintenanceDurationInBlock",
      "outputs": [
        {
          "internalType": "uint256",
          "name": "",
          "type": "uint256"
        }
      ],
      "stateMutability": "view",
      "type": "function"
    },
    {
      "inputs": [],
      "name": "minOffsetToStartSchedule",
      "outputs": [
        {
          "internalType": "uint256",
          "name": "",
          "type": "uint256"
        }
      ],
      "stateMutability": "view",
      "type": "function"
    },
    {
      "inputs": [
        {
          "internalType": "address",
          "name": "_consensusAddr",
          "type": "address"
        },
        {
          "internalType": "uint256",
          "name": "_startedAtBlock",
          "type": "uint256"
        },
        {
          "internalType": "uint256",
          "name": "_endedAtBlock",
          "type": "uint256"
        }
      ],
      "name": "schedule",
      "outputs": [],
      "stateMutability": "nonpayable",
      "type": "function"
    },
    {
      "inputs": [
        {
          "internalType": "address",
          "name": "_consensusAddr",
          "type": "address"
        }
      ],
      "name": "scheduled",
      "outputs": [
        {
          "internalType": "bool",
          "name": "",
          "type": "bool"
        }
      ],
      "stateMutability": "view",
      "type": "function"
    },
    {
      "inputs": [
        {
          "internalType": "uint256",
          "name": "_minMaintenanceDurationInBlock",
          "type": "uint256"
        },
        {
          "internalType": "uint256",
          "name": "_maxMaintenanceDurationInBlock",
          "type": "uint256"
        },
        {
          "internalType": "uint256",
          "name": "_minOffsetToStartSchedule",
          "type": "uint256"
        },
        {
          "internalType": "uint256",
          "name": "_maxOffsetToStartSchedule",
          "type": "uint256"
        },
        {
          "internalType": "uint256",
          "name": "_maxSchedules",
          "type": "uint256"
        }
      ],
      "name": "setMaintenanceConfig",
      "outputs": [],
      "stateMutability": "nonpayable",
      "type": "function"
    },
    {
      "inputs": [
        {
          "internalType": "address",
          "name": "_addr",
          "type": "address"
        }
      ],
      "name": "setValidatorContract",
      "outputs": [],
      "stateMutability": "nonpayable",
      "type": "function"
    },
    {
      "inputs": [],
      "name": "totalSchedules",
      "outputs": [
        {
          "internalType": "uint256",
          "name": "_count",
          "type": "uint256"
        }
      ],
      "stateMutability": "view",
      "type": "function"
    },
    {
      "inputs": [],
      "name": "validatorContract",
      "outputs": [
        {
          "internalType": "address",
          "name": "",
          "type": "address"
        }
      ],
      "stateMutability": "view",
      "type": "function"
    }
  ],
  "transactionHash": "0x960cffcb15306f0267b14c779d597170f400cfab384f6ab38a8bcbca82ea93fe",
  "args": [],
  "numDeployments": 1,
  "solcInputHash": "2dccd829348aefebbef587667549cd38",
  "bytecode": "0x608060405234801561001057600080fd5b5061001961001e565b6100eb565b600054600160a81b900460ff161561008c5760405162461bcd60e51b815260206004820152602760248201527f496e697469616c697a61626c653a20636f6e747261637420697320696e697469604482015266616c697a696e6760c81b606482015260840160405180910390fd5b60005460ff600160a01b909104811610156100e9576000805460ff60a01b191660ff60a01b17905560405160ff81527f7f26b83ff96e1f2b6a682f133852f6798a09c465da95921460cefb38474024989060200160405180910390a15b565b6114d0806100fa6000396000f3fe608060405234801561001057600080fd5b506004361061010b5760003560e01c8063934e9a03116100a2578063bfa89b9b11610071578063bfa89b9b14610222578063c44cb2331461022b578063cdf64a7614610234578063d39fee3414610247578063f0a467091461027c57600080fd5b8063934e9a03146101e3578063965720af146101f657806399439089146101fe578063bc1710e91461021957600080fd5b8063374f6d0e116100de578063374f6d0e1461017457806345ff4c80146101b4578063799f3d4b146101c75780637a50802d146101da57600080fd5b806309e34c38146101105780630c4cea591461012c5780631033af36146101415780632d538c2c14610161575b600080fd5b61011960025481565b6040519081526020015b60405180910390f35b61013f61013a366004611085565b61028f565b005b61015461014f36600461110c565b6102f5565b604051610123919061115d565b61013f61016f3660046111b8565b6103b5565b6101a46101823660046111ed565b6001600160a01b03166000908152600160208190526040909120015443111590565b6040519015158152602001610123565b61013f6101c2366004611211565b610a25565b6101a46101d53660046111b8565b610b65565b61011960055481565b6101a46101f136600461125d565b610b7a565b610119610bac565b6000546040516001600160a01b039091168152602001610123565b61011960045481565b61011960035481565b61011960065481565b61013f6102423660046111ed565b610ca3565b61025a6102553660046111ed565b610d64565b6040805182518152602080840151908201529181015190820152606001610123565b61015461028a366004611289565b610dc9565b7fb53127684a568b3173ae13b9f8a6016e243e63b6e8ee1178d6a717850b5d6103546001600160a01b031633146102e15760405162461bcd60e51b81526004016102d8906112d5565b60405180910390fd5b6102ee8585858585610e87565b5050505050565b60608367ffffffffffffffff81111561031057610310611317565b604051908082528060200260200182016040528015610339578160200160208202803683370190505b50905060005b848110156103ac5761037886868381811061035c5761035c61132d565b905060200201602081019061037191906111ed565b8585610fcc565b82828151811061038a5761038a61132d565b91151560209283029190910190910152806103a481611359565b91505061033f565b50949350505050565b600054604051633292276760e11b81526001600160a01b0385811660048301529091169081906365244ece9060240160206040518083038186803b1580156103fc57600080fd5b505afa158015610410573d6000803e3d6000fd5b505050506040513d601f19601f820116820180604052508101906104349190611374565b6104a65760405162461bcd60e51b815260206004820152603760248201527f4d61696e74656e616e63653a20636f6e73656e7375732061646472657373206d60448201527f757374206265206120626c6f636b2070726f647563657200000000000000000060648201526084016102d8565b6040516304d971ab60e01b81526001600160a01b0385811660048301523360248301528216906304d971ab9060440160206040518083038186803b1580156104ed57600080fd5b505afa158015610501573d6000803e3d6000fd5b505050506040513d601f19601f820116820180604052508101906105259190611374565b61058e5760405162461bcd60e51b815260206004820152603460248201527f4d61696e74656e616e63653a206d6574686f642063616c6c6572206d75737420604482015273313290309031b0b73234b230ba329030b236b4b760611b60648201526084016102d8565b6001600160a01b0384166000908152600160208190526040909120015443116105f95760405162461bcd60e51b815260206004820152601e60248201527f4d61696e74656e616e63653a20616c7265616479207363686564756c6564000060448201526064016102d8565b600654610604610bac565b106106615760405162461bcd60e51b815260206004820152602760248201527f4d61696e74656e616e63653a206578636565647320746f74616c206f66207363604482015266686564756c657360c81b60648201526084016102d8565b610687600454436106729190611396565b60055461067f9043611396565b859190611004565b6106e55760405162461bcd60e51b815260206004820152602960248201527f4d61696e74656e616e63653a20737461727420626c6f636b206973206f7574206044820152681bd9881bd9999cd95d60ba1b60648201526084016102d8565b8183106107515760405162461bcd60e51b815260206004820152603460248201527f4d61696e74656e616e63653a20737461727420626c6f636b206d757374206265604482015273206c657373207468616e20656e6420626c6f636b60601b60648201526084016102d8565b600061075d84846113ae565b9050610778600254600354836110049092919063ffffffff16565b6107d65760405162461bcd60e51b815260206004820152602960248201527f4d61696e74656e616e63653a20696e76616c6964206d61696e74656e616e636560448201526810323ab930ba34b7b760b91b60648201526084016102d8565b6001600160a01b038216637593ff716107f06001876113ae565b6040518263ffffffff1660e01b815260040161080e91815260200190565b60206040518083038186803b15801561082657600080fd5b505afa15801561083a573d6000803e3d6000fd5b505050506040513d601f19601f8201168201806040525081019061085e9190611374565b6108d05760405162461bcd60e51b815260206004820152603860248201527f4d61696e74656e616e63653a20737461727420626c6f636b206973206e6f742060448201527f617420746865207374617274206f6620616e2065706f6368000000000000000060648201526084016102d8565b604051637593ff7160e01b8152600481018490526001600160a01b03831690637593ff719060240160206040518083038186803b15801561091057600080fd5b505afa158015610924573d6000803e3d6000fd5b505050506040513d601f19601f820116820180604052508101906109489190611374565b6109b15760405162461bcd60e51b815260206004820152603460248201527f4d61696e74656e616e63653a20656e6420626c6f636b206973206e6f74206174604482015273040e8d0ca40cadcc840decc40c2dc40cae0dec6d60631b60648201526084016102d8565b6001600160a01b038516600081815260016020818152604092839020888155918201879055436002830181905583518981529182018890528184015291519092917f3136fc9202ed1c3f8bc7ea3afb46704719833536485624cea83d7076f8785f43919081900360600190a2505050505050565b600054600160a81b900460ff1615808015610a4d57506000546001600160a01b90910460ff16105b80610a6e5750303b158015610a6e5750600054600160a01b900460ff166001145b610ad15760405162461bcd60e51b815260206004820152602e60248201527f496e697469616c697a61626c653a20636f6e747261637420697320616c72656160448201526d191e481a5b9a5d1a585b1a5e995960921b60648201526084016102d8565b6000805460ff60a01b1916600160a01b1790558015610afe576000805460ff60a81b1916600160a81b1790555b610b078761101b565b610b148686868686610e87565b8015610b5c576000805460ff60a81b19169055604051600181527f7f26b83ff96e1f2b6a682f133852f6798a09c465da95921460cefb38474024989060200160405180910390a15b50505050505050565b6000610b72848484610fcc565b949350505050565b6001600160a01b038216600090815260016020526040812080548310801590610b725750600101549091111592915050565b600080546040805163b7ab4db560e01b8152905183926001600160a01b03169163b7ab4db59160048083019286929190829003018186803b158015610bf057600080fd5b505afa158015610c04573d6000803e3d6000fd5b505050506040513d6000823e601f3d908101601f19168201604052610c2c91908101906113d5565b905060005b8151811015610c9e57610c79828281518110610c4f57610c4f61132d565b60200260200101516001600160a01b03166000908152600160208190526040909120015443111590565b15610c8c5782610c8881611359565b9350505b80610c9681611359565b915050610c31565b505090565b7fb53127684a568b3173ae13b9f8a6016e243e63b6e8ee1178d6a717850b5d6103546001600160a01b03163314610cec5760405162461bcd60e51b81526004016102d8906112d5565b6000816001600160a01b03163b11610d585760405162461bcd60e51b815260206004820152602960248201527f48617356616c696461746f72436f6e74726163743a2073657420746f206e6f6e6044820152680b58dbdb9d1c9858dd60ba1b60648201526084016102d8565b610d618161101b565b50565b610d8860405180606001604052806000815260200160008152602001600081525090565b506001600160a01b03166000908152600160208181526040928390208351606081018552815481529281015491830191909152600201549181019190915290565b60608267ffffffffffffffff811115610de457610de4611317565b604051908082528060200260200182016040528015610e0d578160200160208202803683370190505b50905060005b83811015610e7f57610e4b858583818110610e3057610e3061132d565b9050602002016020810190610e4591906111ed565b84610b7a565b828281518110610e5d57610e5d61132d565b9115156020928302919091019091015280610e7781611359565b915050610e13565b509392505050565b838510610ef05760405162461bcd60e51b815260206004820152603160248201527f4d61696e74656e616e63653a20696e76616c6964206d61696e74656e616e6365604482015270206475726174696f6e20636f6e6669677360781b60648201526084016102d8565b818310610f5d5760405162461bcd60e51b815260206004820152603560248201527f4d61696e74656e616e63653a20696e76616c6964206f666673657420746f207360448201527474617274207363686564756c6520636f6e6669677360581b60648201526084016102d8565b60028590556003849055600483905560058290556006819055604080518681526020810186905290810184905260608101839052608081018290527fa95659ec997f7f4e9eb2cc9d46f0c1a257b876d8ebbb8938ff0bd4d5c7cce4fa9060a00160405180910390a15050505050565b6001600160a01b038316600090815260016020819052604082208054918101549091610ffb918691869161106f565b95945050505050565b6000838311158015610b7257505090911115919050565b600080546001600160a01b0319166001600160a01b0383169081179091556040519081527fef40dc07567635f84f5edbd2f8dbc16b40d9d282dd8e7e6f4ff58236b68361699060200160405180910390a150565b6000818511158015610ffb575050501115919050565b600080600080600060a0868803121561109d57600080fd5b505083359560208501359550604085013594606081013594506080013592509050565b60008083601f8401126110d257600080fd5b50813567ffffffffffffffff8111156110ea57600080fd5b6020830191508360208260051b850101111561110557600080fd5b9250929050565b6000806000806060858703121561112257600080fd5b843567ffffffffffffffff81111561113957600080fd5b611145878288016110c0565b90989097506020870135966040013595509350505050565b6020808252825182820181905260009190848201906040850190845b81811015611197578351151583529284019291840191600101611179565b50909695505050505050565b6001600160a01b0381168114610d6157600080fd5b6000806000606084860312156111cd57600080fd5b83356111d8816111a3565b95602085013595506040909401359392505050565b6000602082840312156111ff57600080fd5b813561120a816111a3565b9392505050565b60008060008060008060c0878903121561122a57600080fd5b8635611235816111a3565b9860208801359850604088013597606081013597506080810135965060a00135945092505050565b6000806040838503121561127057600080fd5b823561127b816111a3565b946020939093013593505050565b60008060006040848603121561129e57600080fd5b833567ffffffffffffffff8111156112b557600080fd5b6112c1868287016110c0565b909790965060209590950135949350505050565b60208082526022908201527f48617350726f787941646d696e3a20756e617574686f72697a65642073656e6460408201526132b960f11b606082015260800190565b634e487b7160e01b600052604160045260246000fd5b634e487b7160e01b600052603260045260246000fd5b634e487b7160e01b600052601160045260246000fd5b600060001982141561136d5761136d611343565b5060010190565b60006020828403121561138657600080fd5b8151801515811461120a57600080fd5b600082198211156113a9576113a9611343565b500190565b6000828210156113c0576113c0611343565b500390565b80516113d0816111a3565b919050565b600060208083850312156113e857600080fd5b825167ffffffffffffffff8082111561140057600080fd5b818501915085601f83011261141457600080fd5b81518181111561142657611426611317565b8060051b604051601f19603f8301168101818110858211171561144b5761144b611317565b60405291825284820192508381018501918883111561146957600080fd5b938501935b8285101561148e5761147f856113c5565b8452938501939285019261146e565b9897505050505050505056fea264697066735822122085648eeb728f2e0e67be950bda4cb1ab8f145b82fa5b7f61800d825b1696348464736f6c63430008090033",
  "devdoc": {
    "kind": "dev",
    "methods": {
      "bulkMaintaining(address[],uint256)": {
        "details": "Returns the bool array indicating the validator is maintaining or not."
      },
      "bulkMaintainingInBlockRange(address[],uint256,uint256)": {
        "details": "Returns a bool array indicating the validator was maintaining in the inclusive range [`_fromBlock`, `_toBlock`] of blocks or not."
      },
      "getSchedule(address)": {
        "details": "Returns the detailed schedule of the validator `_consensusAddr`."
      },
      "initialize(address,uint256,uint256,uint256,uint256,uint256)": {
        "details": "Initializes the contract storage."
      },
      "maintaining(address,uint256)": {
        "details": "Returns whether the validator `_consensusAddr` is maintaining at the block number `_block`."
      },
      "maintainingInBlockRange(address,uint256,uint256)": {
        "details": "Returns whether the validator `_consensusAddr` was maintaining in the inclusive range [`_fromBlock`, `_toBlock`] of blocks."
      },
      "schedule(address,uint256,uint256)": {
        "details": "Schedules for maintenance from `_startedAtBlock` to `_startedAtBlock`. Requirements: - The candidate `_consensusAddr` is the block producer. - The method caller is candidate admin of the candidate `_consensusAddr`. - The candidate `_consensusAddr` has no schedule yet or the previous is done. - The total number of schedules is not larger than `maxSchedules()`. - The start block must be at least `minOffsetToStartSchedule()` and at most `maxOffsetToStartSchedule()` blocks from the current block. - The end block is larger than the start block. - The scheduled duration is larger than the `minMaintenanceDurationInBlock()` and less than the `maxMaintenanceDurationInBlock()`. - The start block is at the start of an epoch. - The end block is at the end of an epoch. Emits the event `MaintenanceScheduled`."
      },
      "scheduled(address)": {
        "details": "Returns whether the validator `_consensusAddr` has scheduled."
      },
      "setMaintenanceConfig(uint256,uint256,uint256,uint256,uint256)": {
        "details": "Sets the duration restriction, start time restriction, and max allowed for maintenance. Requirements: - The method caller is admin. - The max duration is larger than the min duration. - The max offset is larger than the min offset. Emits the event `MaintenanceConfigUpdated`."
      },
      "setValidatorContract(address)": {
        "details": "Sets the validator contract. Requirements: - The method caller is admin. - The new address is a contract. Emits the event `ValidatorContractUpdated`."
      },
      "totalSchedules()": {
        "details": "Returns the total of current schedules."
      },
      "validatorContract()": {
        "details": "Returns the validator contract."
      }
    },
    "stateVariables": {
      "_schedule": {
        "details": "Mapping from consensus address => maintenance schedule."
      },
      "maxMaintenanceDurationInBlock": {
        "details": "The max duration to maintenance in blocks."
      },
      "maxOffsetToStartSchedule": {
        "details": "The offset to the max block number that the schedule can start."
      },
      "maxSchedules": {
        "details": "The max number of scheduled maintenances."
      },
      "minMaintenanceDurationInBlock": {
        "details": "The min duration to maintenance in blocks."
      },
      "minOffsetToStartSchedule": {
        "details": "The offset to the min block number that the schedule can start."
      }
    },
    "version": 1
  },
  "userdoc": {
    "kind": "user",
    "methods": {},
    "version": 1
  },
  "storageLayout": {
    "storage": [
      {
        "astId": 6398,
        "contract": "contracts/ronin/Maintenance.sol:Maintenance",
        "label": "_validatorContract",
        "offset": 0,
        "slot": "0",
        "type": "t_contract(IRoninValidatorSet)10851"
      },
      {
        "astId": 1373,
        "contract": "contracts/ronin/Maintenance.sol:Maintenance",
        "label": "_initialized",
        "offset": 20,
        "slot": "0",
        "type": "t_uint8"
      },
      {
        "astId": 1376,
        "contract": "contracts/ronin/Maintenance.sol:Maintenance",
        "label": "_initializing",
        "offset": 21,
        "slot": "0",
        "type": "t_bool"
      },
      {
        "astId": 18856,
        "contract": "contracts/ronin/Maintenance.sol:Maintenance",
        "label": "_schedule",
        "offset": 0,
        "slot": "1",
        "type": "t_mapping(t_address,t_struct(Schedule)8928_storage)"
      },
      {
        "astId": 18859,
        "contract": "contracts/ronin/Maintenance.sol:Maintenance",
        "label": "minMaintenanceDurationInBlock",
        "offset": 0,
        "slot": "2",
        "type": "t_uint256"
      },
      {
        "astId": 18862,
        "contract": "contracts/ronin/Maintenance.sol:Maintenance",
        "label": "maxMaintenanceDurationInBlock",
        "offset": 0,
        "slot": "3",
        "type": "t_uint256"
      },
      {
        "astId": 18865,
        "contract": "contracts/ronin/Maintenance.sol:Maintenance",
        "label": "minOffsetToStartSchedule",
        "offset": 0,
        "slot": "4",
        "type": "t_uint256"
      },
      {
        "astId": 18868,
        "contract": "contracts/ronin/Maintenance.sol:Maintenance",
        "label": "maxOffsetToStartSchedule",
        "offset": 0,
        "slot": "5",
        "type": "t_uint256"
      },
      {
        "astId": 18871,
        "contract": "contracts/ronin/Maintenance.sol:Maintenance",
        "label": "maxSchedules",
        "offset": 0,
        "slot": "6",
        "type": "t_uint256"
      }
    ],
    "types": {
      "t_address": {
        "encoding": "inplace",
        "label": "address",
        "numberOfBytes": "20"
      },
      "t_bool": {
        "encoding": "inplace",
        "label": "bool",
        "numberOfBytes": "1"
      },
      "t_contract(IRoninValidatorSet)10851": {
        "encoding": "inplace",
        "label": "contract IRoninValidatorSet",
        "numberOfBytes": "20"
      },
      "t_mapping(t_address,t_struct(Schedule)8928_storage)": {
        "encoding": "mapping",
        "key": "t_address",
        "label": "mapping(address => struct IMaintenance.Schedule)",
        "numberOfBytes": "32",
        "value": "t_struct(Schedule)8928_storage"
      },
      "t_struct(Schedule)8928_storage": {
        "encoding": "inplace",
        "label": "struct IMaintenance.Schedule",
        "members": [
          {
            "astId": 8923,
            "contract": "contracts/ronin/Maintenance.sol:Maintenance",
            "label": "from",
            "offset": 0,
            "slot": "0",
            "type": "t_uint256"
          },
          {
            "astId": 8925,
            "contract": "contracts/ronin/Maintenance.sol:Maintenance",
            "label": "to",
            "offset": 0,
            "slot": "1",
            "type": "t_uint256"
          },
          {
            "astId": 8927,
            "contract": "contracts/ronin/Maintenance.sol:Maintenance",
            "label": "lastUpdatedBlock",
            "offset": 0,
            "slot": "2",
            "type": "t_uint256"
          }
        ],
        "numberOfBytes": "96"
      },
      "t_uint256": {
        "encoding": "inplace",
        "label": "uint256",
        "numberOfBytes": "32"
      },
      "t_uint8": {
        "encoding": "inplace",
        "label": "uint8",
        "numberOfBytes": "1"
      }
    }
  }
}