{
  "address": "0xD5640Fb85E6073a955D2Ed12A0f2ACFF153E4cab",
  "abi": [
    {
      "inputs": [],
      "stateMutability": "nonpayable",
      "type": "constructor"
    },
    {
      "inputs": [
        {
          "internalType": "enum ContractType",
          "name": "contractType",
          "type": "uint8"
        }
      ],
      "name": "ErrContractTypeNotFound",
      "type": "error"
    },
    {
      "inputs": [
        {
          "internalType": "enum RoleAccess",
          "name": "infoType",
          "type": "uint8"
        },
        {
          "internalType": "uint256",
          "name": "value",
          "type": "uint256"
        }
      ],
      "name": "ErrDuplicatedInfo",
      "type": "error"
    },
    {
      "inputs": [
        {
          "internalType": "bytes",
          "name": "pubkey",
          "type": "bytes"
        }
      ],
      "name": "ErrDuplicatedPubkey",
      "type": "error"
    },
    {
      "inputs": [],
      "name": "ErrExistentProfile",
      "type": "error"
    },
    {
      "inputs": [],
      "name": "ErrIdAndConsensusDiffer",
      "type": "error"
    },
    {
      "inputs": [],
      "name": "ErrNonExistentProfile",
      "type": "error"
    },
    {
      "inputs": [
        {
          "internalType": "bytes4",
          "name": "msgSig",
          "type": "bytes4"
        },
        {
          "internalType": "enum RoleAccess",
          "name": "expectedRole",
          "type": "uint8"
        }
      ],
      "name": "ErrUnauthorized",
      "type": "error"
    },
    {
      "inputs": [
        {
          "internalType": "bytes4",
          "name": "msgSig",
          "type": "bytes4"
        },
        {
          "internalType": "enum ContractType",
          "name": "expectedContractType",
          "type": "uint8"
        },
        {
          "internalType": "address",
          "name": "actual",
          "type": "address"
        }
      ],
      "name": "ErrUnexpectedInternalCall",
      "type": "error"
    },
    {
      "inputs": [
        {
          "internalType": "enum RoleAccess",
          "name": "infoType",
          "type": "uint8"
        }
      ],
      "name": "ErrZeroAddress",
      "type": "error"
    },
    {
      "inputs": [
        {
          "internalType": "address",
          "name": "addr",
          "type": "address"
        }
      ],
      "name": "ErrZeroCodeContract",
      "type": "error"
    },
    {
      "inputs": [],
      "name": "ErrZeroPubkey",
      "type": "error"
    },
    {
      "anonymous": false,
      "inputs": [
        {
          "indexed": true,
          "internalType": "enum ContractType",
          "name": "contractType",
          "type": "uint8"
        },
        {
          "indexed": true,
          "internalType": "address",
          "name": "addr",
          "type": "address"
        }
      ],
      "name": "ContractUpdated",
      "type": "event"
    },
    {
      "anonymous": false,
      "inputs": [
        {
          "indexed": false,
          "internalType": "uint8",
          "name": "version",
          "type": "uint8"
        }
      ],
      "name": "Initialized",
      "type": "event"
    },
    {
      "anonymous": false,
      "inputs": [
        {
          "indexed": true,
          "internalType": "address",
          "name": "id",
          "type": "address"
        }
      ],
      "name": "ProfileAdded",
      "type": "event"
    },
    {
      "anonymous": false,
      "inputs": [
        {
          "indexed": true,
          "internalType": "address",
          "name": "id",
          "type": "address"
        },
        {
          "indexed": true,
          "internalType": "enum RoleAccess",
          "name": "addressType",
          "type": "uint8"
        }
      ],
      "name": "ProfileAddressChanged",
      "type": "event"
    },
    {
      "anonymous": false,
      "inputs": [
        {
          "indexed": true,
          "internalType": "address",
          "name": "id",
          "type": "address"
        },
        {
          "indexed": false,
          "internalType": "bytes",
          "name": "pubkey",
          "type": "bytes"
        }
      ],
      "name": "PubkeyChanged",
      "type": "event"
    },
    {
      "inputs": [
        {
          "components": [
            {
              "internalType": "address",
              "name": "id",
              "type": "address"
            },
            {
              "internalType": "TConsensus",
              "name": "consensus",
              "type": "address"
            },
            {
              "internalType": "address",
              "name": "admin",
              "type": "address"
            },
            {
              "internalType": "address payable",
              "name": "treasury",
              "type": "address"
            },
            {
              "internalType": "address",
              "name": "__reservedGovernor",
              "type": "address"
            },
            {
              "internalType": "bytes",
              "name": "pubkey",
              "type": "bytes"
            }
          ],
          "internalType": "struct IProfile.CandidateProfile",
          "name": "profile",
          "type": "tuple"
        }
      ],
      "name": "addNewProfile",
      "outputs": [],
      "stateMutability": "nonpayable",
      "type": "function"
    },
    {
      "inputs": [
        {
          "internalType": "address",
          "name": "id",
          "type": "address"
        },
        {
          "internalType": "bytes",
          "name": "pubkey",
          "type": "bytes"
        }
      ],
      "name": "changePubkey",
      "outputs": [],
      "stateMutability": "nonpayable",
      "type": "function"
    },
    {
      "inputs": [
        {
          "internalType": "address",
          "name": "admin",
          "type": "address"
        },
        {
          "internalType": "address",
          "name": "id",
          "type": "address"
        },
        {
          "internalType": "address",
          "name": "treasury",
          "type": "address"
        },
        {
          "internalType": "bytes",
          "name": "pubkey",
          "type": "bytes"
        }
      ],
      "name": "execApplyValidatorCandidate",
      "outputs": [],
      "stateMutability": "nonpayable",
      "type": "function"
    },
    {
      "inputs": [
        {
          "internalType": "TConsensus",
          "name": "consensus",
          "type": "address"
        }
      ],
      "name": "getConsensus2Id",
      "outputs": [
        {
          "internalType": "address",
          "name": "id",
          "type": "address"
        }
      ],
      "stateMutability": "view",
      "type": "function"
    },
    {
      "inputs": [
        {
          "internalType": "enum ContractType",
          "name": "contractType",
          "type": "uint8"
        }
      ],
      "name": "getContract",
      "outputs": [
        {
          "internalType": "address",
          "name": "contract_",
          "type": "address"
        }
      ],
      "stateMutability": "view",
      "type": "function"
    },
    {
      "inputs": [
        {
          "internalType": "address",
          "name": "id",
          "type": "address"
        }
      ],
      "name": "getId2Profile",
      "outputs": [
        {
          "components": [
            {
              "internalType": "address",
              "name": "id",
              "type": "address"
            },
            {
              "internalType": "TConsensus",
              "name": "consensus",
              "type": "address"
            },
            {
              "internalType": "address",
              "name": "admin",
              "type": "address"
            },
            {
              "internalType": "address payable",
              "name": "treasury",
              "type": "address"
            },
            {
              "internalType": "address",
              "name": "__reservedGovernor",
              "type": "address"
            },
            {
              "internalType": "bytes",
              "name": "pubkey",
              "type": "bytes"
            }
          ],
          "internalType": "struct IProfile.CandidateProfile",
          "name": "",
          "type": "tuple"
        }
      ],
      "stateMutability": "view",
      "type": "function"
    },
    {
      "inputs": [
        {
          "internalType": "TConsensus[]",
          "name": "consensusList",
          "type": "address[]"
        }
      ],
      "name": "getManyConsensus2Id",
      "outputs": [
        {
          "internalType": "address[]",
          "name": "idList",
          "type": "address[]"
        }
      ],
      "stateMutability": "view",
      "type": "function"
    },
    {
      "inputs": [
        {
          "internalType": "address[]",
          "name": "idList",
          "type": "address[]"
        }
      ],
      "name": "getManyId2Consensus",
      "outputs": [
        {
          "internalType": "TConsensus[]",
          "name": "consensusList",
          "type": "address[]"
        }
      ],
      "stateMutability": "view",
      "type": "function"
    },
    {
      "inputs": [
        {
          "internalType": "address",
          "name": "validatorContract",
          "type": "address"
        }
      ],
      "name": "initialize",
      "outputs": [],
      "stateMutability": "nonpayable",
      "type": "function"
    },
    {
      "inputs": [
        {
          "internalType": "address",
          "name": "stakingContract",
          "type": "address"
        },
        {
          "internalType": "address",
          "name": "trustedOrgContract",
          "type": "address"
        }
      ],
      "name": "initializeV2",
      "outputs": [],
      "stateMutability": "nonpayable",
      "type": "function"
    },
    {
      "inputs": [
        {
          "internalType": "address",
          "name": "id",
          "type": "address"
        },
        {
          "internalType": "address",
          "name": "newAdminAddr",
          "type": "address"
        }
      ],
      "name": "requestChangeAdminAddress",
      "outputs": [],
      "stateMutability": "nonpayable",
      "type": "function"
    },
    {
      "inputs": [
        {
          "internalType": "address",
          "name": "id",
          "type": "address"
        },
        {
          "internalType": "TConsensus",
          "name": "newConsensusAddr",
          "type": "address"
        }
      ],
      "name": "requestChangeConsensusAddr",
      "outputs": [],
      "stateMutability": "nonpayable",
      "type": "function"
    },
    {
      "inputs": [
        {
          "internalType": "address",
          "name": "id",
          "type": "address"
        },
        {
          "internalType": "address payable",
          "name": "newTreasury",
          "type": "address"
        }
      ],
      "name": "requestChangeTreasuryAddr",
      "outputs": [],
      "stateMutability": "nonpayable",
      "type": "function"
    },
    {
      "inputs": [
        {
          "internalType": "enum ContractType",
          "name": "contractType",
          "type": "uint8"
        },
        {
          "internalType": "address",
          "name": "addr",
          "type": "address"
        }
      ],
      "name": "setContract",
      "outputs": [],
      "stateMutability": "nonpayable",
      "type": "function"
    }
  ],
  "transactionHash": "0x22eaa76d9fe83f586619605625b012f600716f41f2047ddc68c562b81ef4ea73",
  "args": [],
  "numDeployments": 7,
  "solcInputHash": "f5939ebe47e4086c92eac99ab2681ceb",
  "bytecode": "0x608060405234801561001057600080fd5b5061001961001e565b6100de565b603354610100900460ff161561008a5760405162461bcd60e51b815260206004820152602760248201527f496e697469616c697a61626c653a20636f6e747261637420697320696e697469604482015266616c697a696e6760c81b606482015260840160405180910390fd5b60335460ff90811610156100dc576033805460ff191660ff9081179091556040519081527f7f26b83ff96e1f2b6a682f133852f6798a09c465da95921460cefb38474024989060200160405180910390a15b565b611c0a806100ed6000396000f3fe608060405234801561001057600080fd5b50600436106100ea5760003560e01c806392d487561161008c578063de981f1b11610066578063de981f1b146101f2578063eed1e42014610205578063f466094014610218578063f9226b1a1461023857600080fd5b806392d48756146101ac578063b261596f146101bf578063c4d66de8146101df57600080fd5b806350a9fc29116100c857806350a9fc291461012a57806368a5c1231461017357806384cb101014610186578063865e6fd31461019957600080fd5b80630840ba72146100ef578063183584c1146101045780631f97bdb114610117575b600080fd5b6101026100fd366004611382565b61024b565b005b610102610112366004611382565b610412565b610102610125366004611382565b6104f3565b6101566101383660046113bb565b6001600160a01b039081166000908152600260205260409020541690565b6040516001600160a01b0390911681526020015b60405180910390f35b6101026101813660046114bf565b610657565b610102610194366004611382565b6106c6565b6101026101a736600461151e565b61081b565b6101026101ba36600461153a565b61083a565b6101d26101cd36600461164e565b61088a565b60405161016a9190611690565b6101026101ed3660046113bb565b610963565b6101566102003660046116dd565b610a30565b6101026102133660046116f8565b610aab565b61022b6102263660046113bb565b610ba2565b60405161016a91906117e6565b6101d261024636600461164e565b610cd2565b603354600290610100900460ff1615801561026d575060335460ff8083169116105b6102925760405162461bcd60e51b81526004016102899061184d565b60405180910390fd5b6033805461ffff191660ff8316176101001790556102b1600984610da2565b6102bc600a83610da2565b60006102c86008610a30565b6001600160a01b031663ba77b06c6040518163ffffffff1660e01b8152600401600060405180830381865afa158015610305573d6000803e3d6000fd5b505050506040513d6000823e601f3d908101601f1916820160405261032d919081019061189b565b90508060005b82518110156103c95782818151811061034e5761034e61194d565b60200260200101516002600084848151811061036c5761036c61194d565b60200260200101516001600160a01b03166001600160a01b0316815260200190815260200160002060006101000a8154816001600160a01b0302191690836001600160a01b03160217905550806103c290611963565b9050610333565b5050506033805461ff001916905560405160ff821681527f7f26b83ff96e1f2b6a682f133852f6798a09c465da95921460cefb38474024989060200160405180910390a1505050565b600061041d83610e48565b905061042881610e83565b610433600a83610f4c565b61043d8183610f7f565b60006104496008610a30565b604051633b36143360e21b81526001600160a01b03868116600483015285811660248301529192509082169063ecd850cc90604401600060405180830381600087803b15801561049857600080fd5b505af11580156104ac573d6000803e3d6000fd5b50600a92506104b9915050565b6040516001600160a01b038616907fcd0cc620b4e50fadef5cf27b85b178b85e7092c14fe563e1a31fe4afc9b7a72890600090a350505050565b60006104fe83610e48565b905061050981610e83565b610514600983610f4c565b60018101546001600160a01b031661052c8284610fbf565b60006105386008610a30565b604051636c9fd18360e11b81526001600160a01b03878116600483015286811660248301529192509082169063d93fa30690604401600060405180830381600087803b15801561058757600080fd5b505af115801561059b573d6000803e3d6000fd5b5050505060006105ab600a610a30565b60405163a0c302a760e01b81526001600160a01b03858116600483015287811660248301529192509082169063a0c302a790604401600060405180830381600087803b1580156105fa57600080fd5b505af115801561060e573d6000803e3d6000fd5b506009925061061b915050565b6040516001600160a01b038816907fcd0cc620b4e50fadef5cf27b85b178b85e7092c14fe563e1a31fe4afc9b7a72890600090a3505050505050565b600061066283610e48565b905061066d81610e83565b6106768261102c565b6106808183611055565b826001600160a01b03167fe13225a225fbfeebd9d707546f3d7adee5d72738ac686cc5b97266c49745a56b836040516106b991906119a0565b60405180910390a2505050565b60006106d183610e48565b90506106dc81610e83565b6106e7600183610f4c565b6106f1818361109b565b60006106fd6009610a30565b60405163ea80d67d60e01b81526001600160a01b03868116600483015285811660248301529192509082169063ea80d67d90604401600060405180830381600087803b15801561074c57600080fd5b505af1158015610760573d6000803e3d6000fd5b5050505060006107706008610a30565b60405163ea80d67d60e01b81526001600160a01b03878116600483015286811660248301529192509082169063ea80d67d90604401600060405180830381600087803b1580156107bf57600080fd5b505af11580156107d3573d6000803e3d6000fd5b50600192506107e0915050565b6040516001600160a01b038716907fcd0cc620b4e50fadef5cf27b85b178b85e7092c14fe563e1a31fe4afc9b7a72890600090a35050505050565b6108236110db565b61082c81611135565b6108368282610da2565b5050565b6108426110db565b80516001600160a01b0390811660009081526020819052604090208054909116156108805760405163249b38f960e01b815260040160405180910390fd5b610836818361116b565b60608167ffffffffffffffff8111156108a5576108a56113df565b6040519080825280602002602001820160405280156108ce578160200160208202803683370190505b50905060005b8281101561095c576000808585848181106108f1576108f161194d565b905060200201602081019061090691906113bb565b6001600160a01b039081168252602082019290925260400160002060010154835191169083908390811061093c5761093c61194d565b6001600160a01b03909216602092830291909101909101526001016108d4565b5092915050565b603354610100900460ff16158080156109835750603354600160ff909116105b8061099d5750303b15801561099d575060335460ff166001145b6109b95760405162461bcd60e51b81526004016102899061184d565b6033805460ff1916600117905580156109dc576033805461ff0019166101001790555b6109e7600883610da2565b8015610836576033805461ff0019169055604051600181527f7f26b83ff96e1f2b6a682f133852f6798a09c465da95921460cefb38474024989060200160405180910390a15050565b60007fdea3103d22025c269050bea94c0c84688877f12fa22b7e6d2d5d78a9a49aa1cb600083600f811115610a6757610a6761198a565b60ff1681526020810191909152604001600020546001600160a01b0316905080610aa6578160405163409140df60e11b815260040161028991906119c7565b919050565b6009610ab68161120a565b6001600160a01b038086166000908152602081905260409020805490911615610af25760405163249b38f960e01b815260040160405180910390fd5b60006040518060c00160405280886001600160a01b03168152602001886001600160a01b03168152602001896001600160a01b03168152602001876001600160a01b0316815260200160006001600160a01b0316815260200186868080601f01602080910402602001604051908101604052809392919081815260200183838082843760009201919091525050509152509050610b8e81611256565b610b98828261116b565b5050505050505050565b6040805160c0810182526000808252602082018190529181018290526060808201839052608082019290925260a08101919091526001600160a01b0380831660009081526020818152604091829020825160c081018452815485168152600182015485169281019290925260028101548416928201929092526003820154831660608201526004820154909216608083015260058101805460a084019190610c49906119db565b80601f0160208091040260200160405190810160405280929190818152602001828054610c75906119db565b8015610cc25780601f10610c9757610100808354040283529160200191610cc2565b820191906000526020600020905b815481529060010190602001808311610ca557829003601f168201915b5050505050815250509050919050565b60608167ffffffffffffffff811115610ced57610ced6113df565b604051908082528060200260200182016040528015610d16578160200160208202803683370190505b50905060005b8281101561095c5760026000858584818110610d3a57610d3a61194d565b9050602002016020810190610d4f91906113bb565b6001600160a01b0390811682526020820192909252604001600020548351911690839083908110610d8257610d8261194d565b6001600160a01b0390921660209283029190910190910152600101610d1c565b807fdea3103d22025c269050bea94c0c84688877f12fa22b7e6d2d5d78a9a49aa1cb600084600f811115610dd857610dd861198a565b60ff168152602081019190915260400160002080546001600160a01b0319166001600160a01b03928316179055811682600f811115610e1957610e1961198a565b6040517f865d1c228a8ea13709cfe61f346f7ff67f1bbd4a18ff31ad3e7147350d317c5990600090a35050565b565b6001600160a01b0380821660009081526020819052604090208054909116610aa6576040516334152acb60e11b815260040160405180910390fd5b60028101546001600160a01b031633141580610f1b5750610ea46008610a30565b60018201546040516304d971ab60e01b81526001600160a01b0391821660048201523360248201529116906304d971ab90604401602060405180830381865afa158015610ef5573d6000803e3d6000fd5b505050506040513d601f19601f82011682018060405250810190610f199190611a15565b155b15610f49576000356001600160e01b0319166001604051620f948f60ea1b8152600401610289929190611a47565b50565b6001600160a01b038116610f7557816040516315fb58b960e21b81526004016102899190611a65565b610836828261129f565b600390910180546001600160a01b039092166001600160a01b0319909216821790556000908152600160208190526040909120805460ff19169091179055565b600180830180546001600160a01b03908116600090815260026020908152604080832080546001600160a01b0319908116909155975496841680845281842080548a169890951697909717909355835490961690941790915592819052919020805460ff19169091179055565b611035816112e6565b15610f495780604051630f32bad960e31b815260040161028991906119a0565b600582016110638282611ac2565b50600180600061107884805160209091012090565b81526020810191909152604001600020805460ff19169115159190911790555050565b600290910180546001600160a01b039092166001600160a01b0319909216821790556000908152600160208190526040909120805460ff19169091179055565b7fb53127684a568b3173ae13b9f8a6016e243e63b6e8ee1178d6a717850b5d6103546001600160a01b03163314610e46576000356001600160e01b0319166001604051620f948f60ea1b8152600401610289929190611a47565b806001600160a01b03163b600003610f4957604051630bfc64a360e21b81526001600160a01b0382166004820152602401610289565b805182546001600160a01b0319166001600160a01b039091161782556020810151611197908390610fbf565b6111a582826040015161109b565b6111b3828260600151610f7f565b6111c1828260800151611315565b6111cf828260a00151611055565b80516040516001600160a01b03909116907fc9da0ae38bd4761b72da1045c9b2618f0cd991dcac01e1f9bbf68474025f074390600090a25050565b61121381610a30565b6001600160a01b0316336001600160a01b031614610f49576000356001600160e01b03191681336040516320e0f98d60e21b815260040161028993929190611b82565b61126560098260200151610f4c565b61127460048260400151610f4c565b611283600a8260600151610f4c565b611292600a826080015161129f565b610f498160a0015161102c565b6001600160a01b03811660009081526001602052604090205460ff16156108365781816001600160a01b031660405163720b355560e11b8152600401610289929190611bb9565b6000600160006112fb84805160209091012090565b815260208101919091526040016000205460ff1692915050565b6004820180546001600160a01b0319166001600160a01b03831690811790915515610836576001600160a01b03166000908152600160208190526040909120805460ff1916909117905550565b6001600160a01b0381168114610f4957600080fd5b8035610aa681611362565b6000806040838503121561139557600080fd5b82356113a081611362565b915060208301356113b081611362565b809150509250929050565b6000602082840312156113cd57600080fd5b81356113d881611362565b9392505050565b634e487b7160e01b600052604160045260246000fd5b60405160c0810167ffffffffffffffff81118282101715611418576114186113df565b60405290565b604051601f8201601f1916810167ffffffffffffffff81118282101715611447576114476113df565b604052919050565b600082601f83011261146057600080fd5b813567ffffffffffffffff81111561147a5761147a6113df565b61148d601f8201601f191660200161141e565b8181528460208386010111156114a257600080fd5b816020850160208301376000918101602001919091529392505050565b600080604083850312156114d257600080fd5b82356114dd81611362565b9150602083013567ffffffffffffffff8111156114f957600080fd5b6115058582860161144f565b9150509250929050565b803560108110610aa657600080fd5b6000806040838503121561153157600080fd5b6113a08361150f565b60006020828403121561154c57600080fd5b813567ffffffffffffffff8082111561156457600080fd5b9083019060c0828603121561157857600080fd5b6115806113f5565b823561158b81611362565b8152602083013561159b81611362565b602082015260408301356115ae81611362565b60408201526115bf60608401611377565b60608201526115d060808401611377565b608082015260a0830135828111156115e757600080fd5b6115f38782860161144f565b60a08301525095945050505050565b60008083601f84011261161457600080fd5b50813567ffffffffffffffff81111561162c57600080fd5b6020830191508360208260051b850101111561164757600080fd5b9250929050565b6000806020838503121561166157600080fd5b823567ffffffffffffffff81111561167857600080fd5b61168485828601611602565b90969095509350505050565b6020808252825182820181905260009190848201906040850190845b818110156116d15783516001600160a01b0316835292840192918401916001016116ac565b50909695505050505050565b6000602082840312156116ef57600080fd5b6113d88261150f565b60008060008060006080868803121561171057600080fd5b853561171b81611362565b9450602086013561172b81611362565b9350604086013561173b81611362565b9250606086013567ffffffffffffffff8082111561175857600080fd5b818801915088601f83011261176c57600080fd5b81358181111561177b57600080fd5b89602082850101111561178d57600080fd5b9699959850939650602001949392505050565b6000815180845260005b818110156117c6576020818501810151868301820152016117aa565b506000602082860101526020601f19601f83011685010191505092915050565b60208152600060018060a01b038084511660208401528060208501511660408401528060408501511660608401528060608501511660808401528060808501511660a08401525060a083015160c08084015261184560e08401826117a0565b949350505050565b6020808252602e908201527f496e697469616c697a61626c653a20636f6e747261637420697320616c72656160408201526d191e481a5b9a5d1a585b1a5e995960921b606082015260800190565b600060208083850312156118ae57600080fd5b825167ffffffffffffffff808211156118c657600080fd5b818501915085601f8301126118da57600080fd5b8151818111156118ec576118ec6113df565b8060051b91506118fd84830161141e565b818152918301840191848101908884111561191757600080fd5b938501935b83851015611941578451925061193183611362565b828252938501939085019061191c565b98975050505050505050565b634e487b7160e01b600052603260045260246000fd5b60006001820161198357634e487b7160e01b600052601160045260246000fd5b5060010190565b634e487b7160e01b600052602160045260246000fd5b6020815260006113d860208301846117a0565b601081106119c3576119c361198a565b9052565b602081016119d582846119b3565b92915050565b600181811c908216806119ef57607f821691505b602082108103611a0f57634e487b7160e01b600052602260045260246000fd5b50919050565b600060208284031215611a2757600080fd5b815180151581146113d857600080fd5b600b81106119c3576119c361198a565b6001600160e01b031983168152604081016113d86020830184611a37565b602081016119d58284611a37565b601f821115611abd57600081815260208120601f850160051c81016020861015611a9a5750805b601f850160051c820191505b81811015611ab957828155600101611aa6565b5050505b505050565b815167ffffffffffffffff811115611adc57611adc6113df565b611af081611aea84546119db565b84611a73565b602080601f831160018114611b255760008415611b0d5750858301515b600019600386901b1c1916600185901b178555611ab9565b600085815260208120601f198616915b82811015611b5457888601518255948401946001909101908401611b35565b5085821015611b725787850151600019600388901b60f8161c191681555b5050505050600190811b01905550565b6001600160e01b03198416815260608101611ba060208301856119b3565b6001600160a01b03929092166040919091015292915050565b60408101611bc78285611a37565b826020830152939250505056fea2646970667358221220c90a4d4b576f78c895cc54c97daea46daeb57c36d6a640e3f47655efcaa510b464736f6c63430008130033",
  "devdoc": {
    "errors": {
      "ErrContractTypeNotFound(uint8)": [
        {
          "details": "Error of invalid role."
        }
      ],
      "ErrDuplicatedInfo(uint8,uint256)": [
        {
          "details": "Error when there is a duplicated info of `value`, which is uin256-padding value of any address or hash of public key, and with value type of `infoType`."
        }
      ],
      "ErrExistentProfile()": [
        {
          "details": "Error of already existed profile."
        }
      ],
      "ErrIdAndConsensusDiffer()": [
        {
          "details": "Error when create a new profile whose id and consensus are not identical."
        }
      ],
      "ErrNonExistentProfile()": [
        {
          "details": "Error of non existed profile."
        }
      ],
      "ErrUnauthorized(bytes4,uint8)": [
        {
          "details": "Error indicating that the caller is unauthorized to perform a specific function.",
          "params": {
            "expectedRole": "The role required to perform the function.",
            "msgSig": "The function signature (bytes4) that the caller is unauthorized to perform."
          }
        }
      ],
      "ErrUnexpectedInternalCall(bytes4,uint8,address)": [
        {
          "details": "Error indicating that the caller is unauthorized to perform a specific function.",
          "params": {
            "actual": "The actual address that called to the function.",
            "expectedContractType": "The contract type required to perform the function.",
            "msgSig": "The function signature (bytes4)."
          }
        }
      ],
      "ErrZeroCodeContract(address)": [
        {
          "details": "Error of set to non-contract."
        }
      ]
    },
    "events": {
      "ContractUpdated(uint8,address)": {
        "details": "Emitted when a contract is updated."
      },
      "Initialized(uint8)": {
        "details": "Triggered when the contract has been initialized or reinitialized."
      },
      "ProfileAdded(address)": {
        "details": "Event emitted when a profile with `id` is added."
      },
      "ProfileAddressChanged(address,uint8)": {
        "details": "Event emitted when a address in a profile is changed."
      },
      "PubkeyChanged(address,bytes)": {
        "details": "Event emitted when the pubkey of the `id` is changed."
      }
    },
    "kind": "dev",
    "methods": {
      "addNewProfile((address,address,address,address,address,bytes))": {
        "details": "Requirements: - The profile must not be existent before. - Only contract admin can call this method."
      },
      "changePubkey(address,bytes)": {
        "details": "Requirements: - The profile must be existed. - Only user with candidate admin role can call this method. - New public key must not be duplicated."
      },
      "execApplyValidatorCandidate(address,address,address,bytes)": {
        "details": "Cross-contract function to add/update new profile of a validator candidate when they applying for candidate role. Requirements: - Only `stakingContract` can call this method."
      },
      "getConsensus2Id(address)": {
        "details": "Getter to backward query from `consensus` address to `id` address."
      },
      "getContract(uint8)": {
        "details": "Returns the address of a contract with a specific role. Throws an error if no contract is set for the specified role.",
        "params": {
          "contractType": "The role of the contract to retrieve."
        },
        "returns": {
          "contract_": "The address of the contract with the specified role."
        }
      },
      "getId2Profile(address)": {
        "details": "Getter to query full `profile` from `id` address."
      },
      "getManyConsensus2Id(address[])": {
        "details": "Getter to backward batch query from `consensus` address to `id` address."
      },
      "getManyId2Consensus(address[])": {
        "details": "Getter to batch query from `id` to `consensus`, return address(0) if the profile not exist."
      },
      "requestChangeAdminAddress(address,address)": {
        "details": "Side-effects on other contracts: - Update Staking contract:    + [x] Update (id => PoolDetail) mapping in {BaseStaking.sol}.    + [x] Update `_adminOfActivePoolMapping` in {BaseStaking.sol}. - Update Validator contract:    + [x] Update (id => ValidatorCandidate) mapping"
      },
      "requestChangeConsensusAddr(address,address)": {
        "details": "Side-effects on other contracts: - Update in Staking contract for Consensus address mapping:   + [x] Keep the same previous pool address. - Update in Validator contract for:   + [x] Consensus Address mapping   + [x] Bridge Address mapping   + [x] Jail mapping   + [x] Pending reward mapping   + [x] Schedule mapping - Update in Slashing contract for:   + [x] Handling slash indicator   + [x] Handling slash fast finality   + [x] Handling slash double sign - Update in Proposal contract for:   + [-] Preserve the consensus address and recipient target of locked amount of emergency exit - Update Trusted Org contracts:   + [x] Remove and delete weight of the old consensus   + [x] Replace and add weight for the new consensus"
      },
      "requestChangeTreasuryAddr(address,address)": {
        "details": "Side-effects on other contracts: - Update Validator contract:    + [x] Update (id => ValidatorCandidate) mapping - Update governance admin:    + [-] Update recipient in the EmergencyExitBallot to the newTreasury.          Cannot impl since we cannot cancel the previous the ballot and          create a new ballot on behalf of the validator contract."
      },
      "setContract(uint8,address)": {
        "details": "Sets the address of a contract with a specific role. Emits the event {ContractUpdated}.",
        "params": {
          "addr": "The address of the contract to set.",
          "contractType": "The role of the contract to set."
        }
      }
    },
    "version": 1
  },
  "userdoc": {
    "kind": "user",
    "methods": {
      "addNewProfile((address,address,address,address,address,bytes))": {
        "notice": "Add a new profile."
      },
      "changePubkey(address,bytes)": {
        "notice": "The candidate admin changes the public key."
      }
    },
    "version": 1
  },
  "storageLayout": {
    "storage": [
      {
        "astId": 7915,
        "contract": "contracts/ronin/profile/Profile.sol:Profile",
        "label": "_id2Profile",
        "offset": 0,
        "slot": "0",
        "type": "t_mapping(t_address,t_struct(CandidateProfile)1613_storage)"
      },
      {
        "astId": 7920,
        "contract": "contracts/ronin/profile/Profile.sol:Profile",
        "label": "_registry",
        "offset": 0,
        "slot": "1",
        "type": "t_mapping(t_uint256,t_bool)"
      },
      {
        "astId": 7926,
        "contract": "contracts/ronin/profile/Profile.sol:Profile",
        "label": "_consensus2Id",
        "offset": 0,
        "slot": "2",
        "type": "t_mapping(t_userDefinedValueType(TConsensus)10745,t_address)"
      },
      {
        "astId": 7931,
        "contract": "contracts/ronin/profile/Profile.sol:Profile",
        "label": "__gap",
        "offset": 0,
        "slot": "3",
        "type": "t_array(t_bytes32)48_storage"
      },
      {
        "astId": 581,
        "contract": "contracts/ronin/profile/Profile.sol:Profile",
        "label": "_initialized",
        "offset": 0,
        "slot": "51",
        "type": "t_uint8"
      },
      {
        "astId": 584,
        "contract": "contracts/ronin/profile/Profile.sol:Profile",
        "label": "_initializing",
        "offset": 1,
        "slot": "51",
        "type": "t_bool"
      }
    ],
    "types": {
      "t_address": {
        "encoding": "inplace",
        "label": "address",
        "numberOfBytes": "20"
      },
      "t_address_payable": {
        "encoding": "inplace",
        "label": "address payable",
        "numberOfBytes": "20"
      },
      "t_array(t_bytes32)48_storage": {
        "base": "t_bytes32",
        "encoding": "inplace",
        "label": "bytes32[48]",
        "numberOfBytes": "1536"
      },
      "t_bool": {
        "encoding": "inplace",
        "label": "bool",
        "numberOfBytes": "1"
      },
      "t_bytes32": {
        "encoding": "inplace",
        "label": "bytes32",
        "numberOfBytes": "32"
      },
      "t_bytes_storage": {
        "encoding": "bytes",
        "label": "bytes",
        "numberOfBytes": "32"
      },
      "t_mapping(t_address,t_struct(CandidateProfile)1613_storage)": {
        "encoding": "mapping",
        "key": "t_address",
        "label": "mapping(address => struct IProfile.CandidateProfile)",
        "numberOfBytes": "32",
        "value": "t_struct(CandidateProfile)1613_storage"
      },
      "t_mapping(t_uint256,t_bool)": {
        "encoding": "mapping",
        "key": "t_uint256",
        "label": "mapping(uint256 => bool)",
        "numberOfBytes": "32",
        "value": "t_bool"
      },
      "t_mapping(t_userDefinedValueType(TConsensus)10745,t_address)": {
        "encoding": "mapping",
        "key": "t_userDefinedValueType(TConsensus)10745",
        "label": "mapping(TConsensus => address)",
        "numberOfBytes": "32",
        "value": "t_address"
      },
      "t_struct(CandidateProfile)1613_storage": {
        "encoding": "inplace",
        "label": "struct IProfile.CandidateProfile",
        "members": [
          {
            "astId": 1596,
            "contract": "contracts/ronin/profile/Profile.sol:Profile",
            "label": "id",
            "offset": 0,
            "slot": "0",
            "type": "t_address"
          },
          {
            "astId": 1600,
            "contract": "contracts/ronin/profile/Profile.sol:Profile",
            "label": "consensus",
            "offset": 0,
            "slot": "1",
            "type": "t_userDefinedValueType(TConsensus)10745"
          },
          {
            "astId": 1603,
            "contract": "contracts/ronin/profile/Profile.sol:Profile",
            "label": "admin",
            "offset": 0,
            "slot": "2",
            "type": "t_address"
          },
          {
            "astId": 1606,
            "contract": "contracts/ronin/profile/Profile.sol:Profile",
            "label": "treasury",
            "offset": 0,
            "slot": "3",
            "type": "t_address_payable"
          },
          {
            "astId": 1609,
            "contract": "contracts/ronin/profile/Profile.sol:Profile",
            "label": "__reservedGovernor",
            "offset": 0,
            "slot": "4",
            "type": "t_address"
          },
          {
            "astId": 1612,
            "contract": "contracts/ronin/profile/Profile.sol:Profile",
            "label": "pubkey",
            "offset": 0,
            "slot": "5",
            "type": "t_bytes_storage"
          }
        ],
        "numberOfBytes": "192"
      },
      "t_uint256": {
        "encoding": "inplace",
        "label": "uint256",
        "numberOfBytes": "32"
      },
      "t_uint8": {
        "encoding": "inplace",
        "label": "uint8",
        "numberOfBytes": "1"
      },
      "t_userDefinedValueType(TConsensus)10745": {
        "encoding": "inplace",
        "label": "TConsensus",
        "numberOfBytes": "20"
      }
    }
  }
}