{
  "address": "0x4137D21D98f668d1c06E56B8C1b3C1550272deb7",
  "abi": [
    {
      "inputs": [],
      "stateMutability": "nonpayable",
      "type": "constructor"
    },
    {
      "inputs": [
        {
          "internalType": "enum ContractType",
          "name": "contractType",
          "type": "uint8"
        }
      ],
      "name": "ErrContractTypeNotFound",
      "type": "error"
    },
    {
      "inputs": [],
      "name": "ErrExistentProfile",
      "type": "error"
    },
    {
      "inputs": [],
      "name": "ErrNonExistentProfile",
      "type": "error"
    },
    {
      "inputs": [
        {
          "internalType": "bytes4",
          "name": "msgSig",
          "type": "bytes4"
        },
        {
          "internalType": "enum RoleAccess",
          "name": "expectedRole",
          "type": "uint8"
        }
      ],
      "name": "ErrUnauthorized",
      "type": "error"
    },
    {
      "inputs": [
        {
          "internalType": "address",
          "name": "addr",
          "type": "address"
        }
      ],
      "name": "ErrZeroCodeContract",
      "type": "error"
    },
    {
      "anonymous": false,
      "inputs": [
        {
          "indexed": true,
          "internalType": "enum ContractType",
          "name": "contractType",
          "type": "uint8"
        },
        {
          "indexed": true,
          "internalType": "address",
          "name": "addr",
          "type": "address"
        }
      ],
      "name": "ContractUpdated",
      "type": "event"
    },
    {
      "anonymous": false,
      "inputs": [
        {
          "indexed": false,
          "internalType": "uint8",
          "name": "version",
          "type": "uint8"
        }
      ],
      "name": "Initialized",
      "type": "event"
    },
    {
      "anonymous": false,
      "inputs": [
        {
          "indexed": true,
          "internalType": "address",
          "name": "id",
          "type": "address"
        }
      ],
      "name": "ProfileAdded",
      "type": "event"
    },
    {
      "anonymous": false,
      "inputs": [
        {
          "indexed": true,
          "internalType": "address",
          "name": "id",
          "type": "address"
        },
        {
          "indexed": true,
          "internalType": "enum RoleAccess",
          "name": "addressType",
          "type": "uint8"
        }
      ],
      "name": "ProfileAddressChanged",
      "type": "event"
    },
    {
      "inputs": [
        {
          "components": [
            {
              "internalType": "address",
              "name": "id",
              "type": "address"
            },
            {
              "internalType": "address",
              "name": "consensus",
              "type": "address"
            },
            {
              "internalType": "address",
              "name": "admin",
              "type": "address"
            },
            {
              "internalType": "address payable",
              "name": "treasury",
              "type": "address"
            },
            {
              "internalType": "address",
              "name": "governor",
              "type": "address"
            },
            {
              "internalType": "bytes",
              "name": "pubkey",
              "type": "bytes"
            }
          ],
          "internalType": "struct IProfile.CandidateProfile",
          "name": "profile",
          "type": "tuple"
        }
      ],
      "name": "addNewProfile",
      "outputs": [],
      "stateMutability": "nonpayable",
      "type": "function"
    },
    {
      "inputs": [
        {
          "internalType": "enum ContractType",
          "name": "contractType",
          "type": "uint8"
        }
      ],
      "name": "getContract",
      "outputs": [
        {
          "internalType": "address",
          "name": "contract_",
          "type": "address"
        }
      ],
      "stateMutability": "view",
      "type": "function"
    },
    {
      "inputs": [
        {
          "internalType": "address",
          "name": "id",
          "type": "address"
        }
      ],
      "name": "getId2Profile",
      "outputs": [
        {
          "components": [
            {
              "internalType": "address",
              "name": "id",
              "type": "address"
            },
            {
              "internalType": "address",
              "name": "consensus",
              "type": "address"
            },
            {
              "internalType": "address",
              "name": "admin",
              "type": "address"
            },
            {
              "internalType": "address payable",
              "name": "treasury",
              "type": "address"
            },
            {
              "internalType": "address",
              "name": "governor",
              "type": "address"
            },
            {
              "internalType": "bytes",
              "name": "pubkey",
              "type": "bytes"
            }
          ],
          "internalType": "struct IProfile.CandidateProfile",
          "name": "",
          "type": "tuple"
        }
      ],
      "stateMutability": "view",
      "type": "function"
    },
    {
      "inputs": [
        {
          "internalType": "enum ContractType",
          "name": "contractType",
          "type": "uint8"
        },
        {
          "internalType": "address",
          "name": "addr",
          "type": "address"
        }
      ],
      "name": "setContract",
      "outputs": [],
      "stateMutability": "nonpayable",
      "type": "function"
    }
  ],
  "transactionHash": "0x10af20e0be4f5e93c7a7ed402645eac2b962ac9ab46a6bf17ab7e83067f9a64d",
  "args": [],
  "numDeployments": 1,
  "solcInputHash": "a9bab0335465d2e01ea22d5aa6e9c8ee",
  "bytecode": "0x608060405234801561001057600080fd5b5061001961001e565b6100de565b603354610100900460ff161561008a5760405162461bcd60e51b815260206004820152602760248201527f496e697469616c697a61626c653a20636f6e747261637420697320696e697469604482015266616c697a696e6760c81b606482015260840160405180910390fd5b60335460ff90811610156100dc576033805460ff191660ff9081179091556040519081527f7f26b83ff96e1f2b6a682f133852f6798a09c465da95921460cefb38474024989060200160405180910390a15b565b610976806100ed6000396000f3fe608060405234801561001057600080fd5b506004361061004c5760003560e01c8063865e6fd31461005157806392d4875614610066578063de981f1b14610079578063f4660940146100a9575b600080fd5b61006461005f36600461051a565b6100c9565b005b61006461007436600461061d565b6100e8565b61008c6100873660046106e5565b610138565b6040516001600160a01b0390911681526020015b60405180910390f35b6100bc6100b7366004610707565b6101bc565b6040516100a09190610724565b6100d16102ec565b6100da81610348565b6100e48282610381565b5050565b6100f06102ec565b80516001600160a01b03908116600090815260208190526040902080549091161561012e5760405163249b38f960e01b815260040160405180910390fd5b6100e48183610425565b60007fdea3103d22025c269050bea94c0c84688877f12fa22b7e6d2d5d78a9a49aa1cb600083600f81111561016f5761016f6107c2565b60ff1681526020810191909152604001600020546001600160a01b03169050806101b7578160405163409140df60e11b81526004016101ae91906107d8565b60405180910390fd5b919050565b6040805160c0810182526000808252602082018190529181018290526060808201839052608082019290925260a08101919091526001600160a01b0380831660009081526020818152604091829020825160c081018452815485168152600182015485169281019290925260028101548416928201929092526003820154831660608201526004820154909216608083015260058101805460a084019190610263906107f2565b80601f016020809104026020016040519081016040528092919081815260200182805461028f906107f2565b80156102dc5780601f106102b1576101008083540402835291602001916102dc565b820191906000526020600020905b8154815290600101906020018083116102bf57829003601f168201915b5050505050815250509050919050565b7fb53127684a568b3173ae13b9f8a6016e243e63b6e8ee1178d6a717850b5d6103546001600160a01b03163314610346576000356001600160e01b0319166001604051620f948f60ea1b81526004016101ae92919061082c565b565b806001600160a01b03163b60000361037e57604051630bfc64a360e21b81526001600160a01b03821660048201526024016101ae565b50565b807fdea3103d22025c269050bea94c0c84688877f12fa22b7e6d2d5d78a9a49aa1cb600084600f8111156103b7576103b76107c2565b60ff168152602081019190915260400160002080546001600160a01b0319166001600160a01b03928316179055811682600f8111156103f8576103f86107c2565b6040517f865d1c228a8ea13709cfe61f346f7ff67f1bbd4a18ff31ad3e7147350d317c5990600090a35050565b805182546001600160a01b03199081166001600160a01b039283161784556020830151600185018054831691841691909117905560408301516002850180548316918416919091179055606083015160038501805483169184169190911790556080830151600485018054909216921691909117905560a081015160058301906104af90826108a9565b5080516040516001600160a01b03909116907fc9da0ae38bd4761b72da1045c9b2618f0cd991dcac01e1f9bbf68474025f074390600090a25050565b8035601081106101b757600080fd5b6001600160a01b038116811461037e57600080fd5b80356101b7816104fa565b6000806040838503121561052d57600080fd5b610536836104eb565b91506020830135610546816104fa565b809150509250929050565b634e487b7160e01b600052604160045260246000fd5b60405160c0810167ffffffffffffffff8111828210171561058a5761058a610551565b60405290565b600082601f8301126105a157600080fd5b813567ffffffffffffffff808211156105bc576105bc610551565b604051601f8301601f19908116603f011681019082821181831017156105e4576105e4610551565b816040528381528660208588010111156105fd57600080fd5b836020870160208301376000602085830101528094505050505092915050565b60006020828403121561062f57600080fd5b813567ffffffffffffffff8082111561064757600080fd5b9083019060c0828603121561065b57600080fd5b610663610567565b823561066e816104fa565b8152602083013561067e816104fa565b60208201526040830135610691816104fa565b60408201526106a26060840161050f565b60608201526106b36080840161050f565b608082015260a0830135828111156106ca57600080fd5b6106d687828601610590565b60a08301525095945050505050565b6000602082840312156106f757600080fd5b610700826104eb565b9392505050565b60006020828403121561071957600080fd5b8135610700816104fa565b6000602080835260018060a01b03808551168285015280828601511660408501528060408601511660608501528060608601511660808501528060808601511660a08501525060a084015160c08085015280518060e086015260005b8181101561079d5782810184015186820161010001528301610780565b506101009250600083828701015282601f19601f830116860101935050505092915050565b634e487b7160e01b600052602160045260246000fd5b60208101601083106107ec576107ec6107c2565b91905290565b600181811c9082168061080657607f821691505b60208210810361082657634e487b7160e01b600052602260045260246000fd5b50919050565b6001600160e01b031983168152604081016009831061084d5761084d6107c2565b8260208301529392505050565b601f8211156108a457600081815260208120601f850160051c810160208610156108815750805b601f850160051c820191505b818110156108a05782815560010161088d565b5050505b505050565b815167ffffffffffffffff8111156108c3576108c3610551565b6108d7816108d184546107f2565b8461085a565b602080601f83116001811461090c57600084156108f45750858301515b600019600386901b1c1916600185901b1785556108a0565b600085815260208120601f198616915b8281101561093b5788860151825594840194600190910190840161091c565b50858210156109595787850151600019600388901b60f8161c191681555b5050505050600190811b0190555056fea164736f6c6343000811000a",
  "devdoc": {
    "errors": {
      "ErrContractTypeNotFound(uint8)": [
        {
          "details": "Error of invalid role."
        }
      ],
      "ErrExistentProfile()": [
        {
          "details": "Error of already existed profile."
        }
      ],
      "ErrNonExistentProfile()": [
        {
          "details": "Error of non existed profile."
        }
      ],
      "ErrUnauthorized(bytes4,uint8)": [
        {
          "details": "Error indicating that the caller is unauthorized to perform a specific function.",
          "params": {
            "expectedRole": "The role required to perform the function.",
            "msgSig": "The function signature (bytes4) that the caller is unauthorized to perform."
          }
        }
      ],
      "ErrZeroCodeContract(address)": [
        {
          "details": "Error of set to non-contract."
        }
      ]
    },
    "kind": "dev",
    "methods": {
      "addNewProfile((address,address,address,address,address,bytes))": {
        "details": "Requirements: - The profile must not be existent before. - Only contract admin can call this method."
      },
      "getContract(uint8)": {
        "details": "Returns the address of a contract with a specific role. Throws an error if no contract is set for the specified role.",
        "params": {
          "contractType": "The role of the contract to retrieve."
        },
        "returns": {
          "contract_": "The address of the contract with the specified role."
        }
      },
      "getId2Profile(address)": {
        "details": "Getter to query full `profile` from `id` address."
      },
      "setContract(uint8,address)": {
        "details": "Sets the address of a contract with a specific role. Emits the event {ContractUpdated}.",
        "params": {
          "addr": "The address of the contract to set.",
          "contractType": "The role of the contract to set."
        }
      }
    },
    "version": 1
  },
  "userdoc": {
    "kind": "user",
    "methods": {
      "addNewProfile((address,address,address,address,address,bytes))": {
        "notice": "Add a new profile."
      }
    },
    "version": 1
  },
  "storageLayout": {
    "storage": [
      {
        "astId": 2229,
        "contract": "contracts/ronin/profile/Profile.sol:Profile",
        "label": "_id2Profile",
        "offset": 0,
        "slot": "0",
        "type": "t_mapping(t_address,t_struct(CandidateProfile)1339_storage)"
      },
      {
        "astId": 2234,
        "contract": "contracts/ronin/profile/Profile.sol:Profile",
        "label": "__gap",
        "offset": 0,
        "slot": "1",
        "type": "t_array(t_bytes32)50_storage"
      },
      {
        "astId": 581,
        "contract": "contracts/ronin/profile/Profile.sol:Profile",
        "label": "_initialized",
        "offset": 0,
        "slot": "51",
        "type": "t_uint8"
      },
      {
        "astId": 584,
        "contract": "contracts/ronin/profile/Profile.sol:Profile",
        "label": "_initializing",
        "offset": 1,
        "slot": "51",
        "type": "t_bool"
      }
    ],
    "types": {
      "t_address": {
        "encoding": "inplace",
        "label": "address",
        "numberOfBytes": "20"
      },
      "t_address_payable": {
        "encoding": "inplace",
        "label": "address payable",
        "numberOfBytes": "20"
      },
      "t_array(t_bytes32)50_storage": {
        "base": "t_bytes32",
        "encoding": "inplace",
        "label": "bytes32[50]",
        "numberOfBytes": "1600"
      },
      "t_bool": {
        "encoding": "inplace",
        "label": "bool",
        "numberOfBytes": "1"
      },
      "t_bytes32": {
        "encoding": "inplace",
        "label": "bytes32",
        "numberOfBytes": "32"
      },
      "t_bytes_storage": {
        "encoding": "bytes",
        "label": "bytes",
        "numberOfBytes": "32"
      },
      "t_mapping(t_address,t_struct(CandidateProfile)1339_storage)": {
        "encoding": "mapping",
        "key": "t_address",
        "label": "mapping(address => struct IProfile.CandidateProfile)",
        "numberOfBytes": "32",
        "value": "t_struct(CandidateProfile)1339_storage"
      },
      "t_struct(CandidateProfile)1339_storage": {
        "encoding": "inplace",
        "label": "struct IProfile.CandidateProfile",
        "members": [
          {
            "astId": 1323,
            "contract": "contracts/ronin/profile/Profile.sol:Profile",
            "label": "id",
            "offset": 0,
            "slot": "0",
            "type": "t_address"
          },
          {
            "astId": 1326,
            "contract": "contracts/ronin/profile/Profile.sol:Profile",
            "label": "consensus",
            "offset": 0,
            "slot": "1",
            "type": "t_address"
          },
          {
            "astId": 1329,
            "contract": "contracts/ronin/profile/Profile.sol:Profile",
            "label": "admin",
            "offset": 0,
            "slot": "2",
            "type": "t_address"
          },
          {
            "astId": 1332,
            "contract": "contracts/ronin/profile/Profile.sol:Profile",
            "label": "treasury",
            "offset": 0,
            "slot": "3",
            "type": "t_address_payable"
          },
          {
            "astId": 1335,
            "contract": "contracts/ronin/profile/Profile.sol:Profile",
            "label": "governor",
            "offset": 0,
            "slot": "4",
            "type": "t_address"
          },
          {
            "astId": 1338,
            "contract": "contracts/ronin/profile/Profile.sol:Profile",
            "label": "pubkey",
            "offset": 0,
            "slot": "5",
            "type": "t_bytes_storage"
          }
        ],
        "numberOfBytes": "192"
      },
      "t_uint8": {
        "encoding": "inplace",
        "label": "uint8",
        "numberOfBytes": "1"
      }
    }
  }
}