{
  "address": "0x39394AbCfBeA3D5829eB8b0995073BC48bBFF2cF",
  "abi": [
    {
      "inputs": [],
      "stateMutability": "nonpayable",
      "type": "constructor"
    },
    {
      "inputs": [],
      "name": "ErrNotOnEmergencyPause",
      "type": "error"
    },
    {
      "inputs": [],
      "name": "ErrTargetIsNotOnPaused",
      "type": "error"
    },
    {
      "inputs": [],
      "name": "ErrTargetIsOnPaused",
      "type": "error"
    },
    {
      "anonymous": false,
      "inputs": [
        {
          "indexed": false,
          "internalType": "address",
          "name": "account",
          "type": "address"
        }
      ],
      "name": "EmergencyPaused",
      "type": "event"
    },
    {
      "anonymous": false,
      "inputs": [
        {
          "indexed": false,
          "internalType": "address",
          "name": "account",
          "type": "address"
        }
      ],
      "name": "EmergencyUnpaused",
      "type": "event"
    },
    {
      "anonymous": false,
      "inputs": [
        {
          "indexed": false,
          "internalType": "uint8",
          "name": "version",
          "type": "uint8"
        }
      ],
      "name": "Initialized",
      "type": "event"
    },
    {
      "anonymous": false,
      "inputs": [
        {
          "indexed": true,
          "internalType": "bytes32",
          "name": "role",
          "type": "bytes32"
        },
        {
          "indexed": true,
          "internalType": "bytes32",
          "name": "previousAdminRole",
          "type": "bytes32"
        },
        {
          "indexed": true,
          "internalType": "bytes32",
          "name": "newAdminRole",
          "type": "bytes32"
        }
      ],
      "name": "RoleAdminChanged",
      "type": "event"
    },
    {
      "anonymous": false,
      "inputs": [
        {
          "indexed": true,
          "internalType": "bytes32",
          "name": "role",
          "type": "bytes32"
        },
        {
          "indexed": true,
          "internalType": "address",
          "name": "account",
          "type": "address"
        },
        {
          "indexed": true,
          "internalType": "address",
          "name": "sender",
          "type": "address"
        }
      ],
      "name": "RoleGranted",
      "type": "event"
    },
    {
      "anonymous": false,
      "inputs": [
        {
          "indexed": true,
          "internalType": "bytes32",
          "name": "role",
          "type": "bytes32"
        },
        {
          "indexed": true,
          "internalType": "address",
          "name": "account",
          "type": "address"
        },
        {
          "indexed": true,
          "internalType": "address",
          "name": "sender",
          "type": "address"
        }
      ],
      "name": "RoleRevoked",
      "type": "event"
    },
    {
      "anonymous": false,
      "inputs": [
        {
          "indexed": false,
          "internalType": "contract IPauseTarget",
          "name": "target",
          "type": "address"
        }
      ],
      "name": "TargetChanged",
      "type": "event"
    },
    {
      "inputs": [],
      "name": "DEFAULT_ADMIN_ROLE",
      "outputs": [
        {
          "internalType": "bytes32",
          "name": "",
          "type": "bytes32"
        }
      ],
      "stateMutability": "view",
      "type": "function"
    },
    {
      "inputs": [],
      "name": "SENTRY_ROLE",
      "outputs": [
        {
          "internalType": "bytes32",
          "name": "",
          "type": "bytes32"
        }
      ],
      "stateMutability": "view",
      "type": "function"
    },
    {
      "inputs": [
        {
          "internalType": "contract IPauseTarget",
          "name": "_target",
          "type": "address"
        }
      ],
      "name": "changeTarget",
      "outputs": [],
      "stateMutability": "nonpayable",
      "type": "function"
    },
    {
      "inputs": [],
      "name": "emergency",
      "outputs": [
        {
          "internalType": "bool",
          "name": "",
          "type": "bool"
        }
      ],
      "stateMutability": "view",
      "type": "function"
    },
    {
      "inputs": [
        {
          "internalType": "bytes32",
          "name": "role",
          "type": "bytes32"
        }
      ],
      "name": "getRoleAdmin",
      "outputs": [
        {
          "internalType": "bytes32",
          "name": "",
          "type": "bytes32"
        }
      ],
      "stateMutability": "view",
      "type": "function"
    },
    {
      "inputs": [
        {
          "internalType": "bytes32",
          "name": "role",
          "type": "bytes32"
        },
        {
          "internalType": "uint256",
          "name": "index",
          "type": "uint256"
        }
      ],
      "name": "getRoleMember",
      "outputs": [
        {
          "internalType": "address",
          "name": "",
          "type": "address"
        }
      ],
      "stateMutability": "view",
      "type": "function"
    },
    {
      "inputs": [
        {
          "internalType": "bytes32",
          "name": "role",
          "type": "bytes32"
        }
      ],
      "name": "getRoleMemberCount",
      "outputs": [
        {
          "internalType": "uint256",
          "name": "",
          "type": "uint256"
        }
      ],
      "stateMutability": "view",
      "type": "function"
    },
    {
      "inputs": [
        {
          "internalType": "bytes32",
          "name": "role",
          "type": "bytes32"
        },
        {
          "internalType": "address",
          "name": "account",
          "type": "address"
        }
      ],
      "name": "grantRole",
      "outputs": [],
      "stateMutability": "nonpayable",
      "type": "function"
    },
    {
      "inputs": [
        {
          "internalType": "address",
          "name": "_sentry",
          "type": "address"
        }
      ],
      "name": "grantSentry",
      "outputs": [],
      "stateMutability": "nonpayable",
      "type": "function"
    },
    {
      "inputs": [
        {
          "internalType": "bytes32",
          "name": "role",
          "type": "bytes32"
        },
        {
          "internalType": "address",
          "name": "account",
          "type": "address"
        }
      ],
      "name": "hasRole",
      "outputs": [
        {
          "internalType": "bool",
          "name": "",
          "type": "bool"
        }
      ],
      "stateMutability": "view",
      "type": "function"
    },
    {
      "inputs": [
        {
          "internalType": "contract IPauseTarget",
          "name": "_target",
          "type": "address"
        },
        {
          "internalType": "address",
          "name": "_admin",
          "type": "address"
        },
        {
          "internalType": "address[]",
          "name": "_sentries",
          "type": "address[]"
        }
      ],
      "name": "initialize",
      "outputs": [],
      "stateMutability": "nonpayable",
      "type": "function"
    },
    {
      "inputs": [
        {
          "internalType": "bytes32",
          "name": "role",
          "type": "bytes32"
        },
        {
          "internalType": "address",
          "name": "account",
          "type": "address"
        }
      ],
      "name": "renounceRole",
      "outputs": [],
      "stateMutability": "nonpayable",
      "type": "function"
    },
    {
      "inputs": [
        {
          "internalType": "bytes32",
          "name": "role",
          "type": "bytes32"
        },
        {
          "internalType": "address",
          "name": "account",
          "type": "address"
        }
      ],
      "name": "revokeRole",
      "outputs": [],
      "stateMutability": "nonpayable",
      "type": "function"
    },
    {
      "inputs": [
        {
          "internalType": "address",
          "name": "_sentry",
          "type": "address"
        }
      ],
      "name": "revokeSentry",
      "outputs": [],
      "stateMutability": "nonpayable",
      "type": "function"
    },
    {
      "inputs": [
        {
          "internalType": "bytes4",
          "name": "interfaceId",
          "type": "bytes4"
        }
      ],
      "name": "supportsInterface",
      "outputs": [
        {
          "internalType": "bool",
          "name": "",
          "type": "bool"
        }
      ],
      "stateMutability": "view",
      "type": "function"
    },
    {
      "inputs": [],
      "name": "target",
      "outputs": [
        {
          "internalType": "contract IPauseTarget",
          "name": "",
          "type": "address"
        }
      ],
      "stateMutability": "view",
      "type": "function"
    },
    {
      "inputs": [],
      "name": "triggerPause",
      "outputs": [],
      "stateMutability": "nonpayable",
      "type": "function"
    },
    {
      "inputs": [],
      "name": "triggerUnpause",
      "outputs": [],
      "stateMutability": "nonpayable",
      "type": "function"
    }
  ],
  "transactionHash": "0x71a23d976aeef588c14e34581ac5449358a01a15862420ea979fad26d8f9934a",
  "args": [],
  "numDeployments": 1,
  "solcInputHash": "1abe3fccfa260ef2553161b857d04cdf",
  "bytecode": "0x608060405234801561001057600080fd5b5061001961001e565b6100de565b600254610100900460ff161561008a5760405162461bcd60e51b815260206004820152602760248201527f496e697469616c697a61626c653a20636f6e747261637420697320696e697469604482015266616c697a696e6760c81b606482015260840160405180910390fd5b60025460ff90811610156100dc576002805460ff191660ff9081179091556040519081527f7f26b83ff96e1f2b6a682f133852f6798a09c465da95921460cefb38474024989060200160405180910390a15b565b61119b806100ed6000396000f3fe608060405234801561001057600080fd5b50600436106101165760003560e01c806391d14854116100a2578063caa6fea411610071578063caa6fea414610240578063d4b8399214610254578063d547741f1461026d578063dcf7bb5c14610280578063f82ec70b1461029357600080fd5b806391d148541461020a578063a217fddf1461021d578063b9f3163b14610225578063ca15c8731461022d57600080fd5b80636833f60d116100e95780636833f60d1461019c57806377a24f36146101a45780637a9ad019146101b75780637d4f7fc9146101cc5780639010d07c146101df57600080fd5b806301ffc9a71461011b578063248a9ca3146101435780632f2ff15d1461017457806336568abe14610189575b600080fd5b61012e610129366004610e11565b6102a6565b60405190151581526020015b60405180910390f35b610166610151366004610e3b565b60009081526020819052604090206001015490565b60405190815260200161013a565b610187610182366004610e79565b6102d1565b005b610187610197366004610e79565b6102fb565b61018761037e565b6101876101b2366004610ebf565b6104da565b61016660008051602061116f83398151915281565b6101876101da366004610fab565b610640565b6101f26101ed366004610fc8565b610663565b6040516001600160a01b03909116815260200161013a565b61012e610218366004610e79565b610682565b610166600081565b6101876106ab565b61016661023b366004610e3b565b610821565b60025461012e90600160b01b900460ff1681565b6002546101f2906201000090046001600160a01b031681565b61018761027b366004610e79565b610838565b61018761028e366004610fab565b61085d565b6101876102a1366004610fab565b610871565b60006001600160e01b03198216635a05180f60e01b14806102cb57506102cb82610894565b92915050565b6000828152602081905260409020600101546102ec816108c9565b6102f683836108d6565b505050565b6001600160a01b03811633146103705760405162461bcd60e51b815260206004820152602f60248201527f416363657373436f6e74726f6c3a2063616e206f6e6c792072656e6f756e636560448201526e103937b632b9903337b91039b2b63360891b60648201526084015b60405180910390fd5b61037a82826108f8565b5050565b60008051602061116f833981519152610396816108c9565b60028054906101000a90046001600160a01b03166001600160a01b0316635c975abb6040518163ffffffff1660e01b81526004016020604051808303816000875af11580156103e9573d6000803e3d6000fd5b505050506040513d601f19601f8201168201806040525081019061040d9190610fea565b1561042b576040516310067f7560e11b815260040160405180910390fd5b60028054600160b01b60ff60b01b19909116179081905560408051638456cb5960e01b81529051620100009092046001600160a01b031691638456cb599160048082019260009290919082900301818387803b15801561048a57600080fd5b505af115801561049e573d6000803e3d6000fd5b50506040513381527fb8fad2fa0ed7a383e747c309ef2c4391d7b65592a48893e57ccc1fab70791456925060200190505b60405180910390a150565b600254610100900460ff16158080156104fa5750600254600160ff909116105b806105145750303b158015610514575060025460ff166001145b6105775760405162461bcd60e51b815260206004820152602e60248201527f496e697469616c697a61626c653a20636f6e747261637420697320616c72656160448201526d191e481a5b9a5d1a585b1a5e995960921b6064820152608401610367565b6002805460ff19166001179055801561059a576002805461ff0019166101001790555b6105a38461091a565b6105ae600084610972565b60005b82518110156105f3576105eb60008051602061116f8339815191528483815181106105de576105de61100c565b60200260200101516108d6565b6001016105b1565b50801561063a576002805461ff0019169055604051600181527f7f26b83ff96e1f2b6a682f133852f6798a09c465da95921460cefb38474024989060200160405180910390a15b50505050565b600061064b816108c9565b61037a60008051602061116f833981519152836108d6565b600082815260016020526040812061067b908361097c565b9392505050565b6000918252602082815260408084206001600160a01b0393909316845291905290205460ff1690565b60008051602061116f8339815191526106c3816108c9565b600254600160b01b900460ff166106ed57604051631b2fd53f60e31b815260040160405180910390fd5b60028054906101000a90046001600160a01b03166001600160a01b0316635c975abb6040518163ffffffff1660e01b81526004016020604051808303816000875af1158015610740573d6000803e3d6000fd5b505050506040513d601f19601f820116820180604052508101906107649190610fea565b61078157604051631e87b57b60e31b815260040160405180910390fd5b6002805460ff60b01b19169081905560408051631fa5d41d60e11b81529051620100009092046001600160a01b031691633f4ba83a9160048082019260009290919082900301818387803b1580156107d857600080fd5b505af11580156107ec573d6000803e3d6000fd5b50506040513381527ff5cbf596165cc457b2cd92e8d8450827ee314968160a5696402d75766fc52caf925060200190506104cf565b60008181526001602052604081206102cb90610988565b600082815260208190526040902060010154610853816108c9565b6102f683836108f8565b6000610868816108c9565b61037a8261091a565b600061087c816108c9565b61037a60008051602061116f833981519152836108f8565b60006001600160e01b03198216637965db0b60e01b14806102cb57506301ffc9a760e01b6001600160e01b03198316146102cb565b6108d38133610992565b50565b6108e082826109f6565b60008281526001602052604090206102f69082610a7a565b6109028282610a8f565b60008281526001602052604090206102f69082610af4565b6002805462010000600160b01b031916620100006001600160a01b038416908102919091179091556040519081527f7f8cffd58ac96898bdd25ab64868bd933141d15ad1cd4a0df228fd3fcba2a26d906020016104cf565b61037a82826108d6565b600061067b8383610b09565b60006102cb825490565b61099c8282610682565b61037a576109b4816001600160a01b03166014610b33565b6109bf836020610b33565b6040516020016109d0929190611046565b60408051601f198184030181529082905262461bcd60e51b8252610367916004016110bb565b610a008282610682565b61037a576000828152602081815260408083206001600160a01b03851684529091529020805460ff19166001179055610a363390565b6001600160a01b0316816001600160a01b0316837f2f8788117e7eff1d82e926ec794901d17c78024a50270940304540a733656f0d60405160405180910390a45050565b600061067b836001600160a01b038416610ccf565b610a998282610682565b1561037a576000828152602081815260408083206001600160a01b0385168085529252808320805460ff1916905551339285917ff6391f5c32d9c69d2a47ea670b442974b53935d1edc7fd64eb21e047a839171b9190a45050565b600061067b836001600160a01b038416610d1e565b6000826000018281548110610b2057610b2061100c565b9060005260206000200154905092915050565b60606000610b42836002611104565b610b4d90600261111b565b67ffffffffffffffff811115610b6557610b65610ea9565b6040519080825280601f01601f191660200182016040528015610b8f576020820181803683370190505b509050600360fc1b81600081518110610baa57610baa61100c565b60200101906001600160f81b031916908160001a905350600f60fb1b81600181518110610bd957610bd961100c565b60200101906001600160f81b031916908160001a9053506000610bfd846002611104565b610c0890600161111b565b90505b6001811115610c80576f181899199a1a9b1b9c1cb0b131b232b360811b85600f1660108110610c3c57610c3c61100c565b1a60f81b828281518110610c5257610c5261100c565b60200101906001600160f81b031916908160001a90535060049490941c93610c798161112e565b9050610c0b565b50831561067b5760405162461bcd60e51b815260206004820181905260248201527f537472696e67733a20686578206c656e67746820696e73756666696369656e746044820152606401610367565b6000818152600183016020526040812054610d16575081546001818101845560008481526020808220909301849055845484825282860190935260409020919091556102cb565b5060006102cb565b60008181526001830160205260408120548015610e07576000610d42600183611145565b8554909150600090610d5690600190611145565b9050818114610dbb576000866000018281548110610d7657610d7661100c565b9060005260206000200154905080876000018481548110610d9957610d9961100c565b6000918252602080832090910192909255918252600188019052604090208390555b8554869080610dcc57610dcc611158565b6001900381819060005260206000200160009055905585600101600086815260200190815260200160002060009055600193505050506102cb565b60009150506102cb565b600060208284031215610e2357600080fd5b81356001600160e01b03198116811461067b57600080fd5b600060208284031215610e4d57600080fd5b5035919050565b6001600160a01b03811681146108d357600080fd5b8035610e7481610e54565b919050565b60008060408385031215610e8c57600080fd5b823591506020830135610e9e81610e54565b809150509250929050565b634e487b7160e01b600052604160045260246000fd5b600080600060608486031215610ed457600080fd5b8335610edf81610e54565b9250602084810135610ef081610e54565b9250604085013567ffffffffffffffff80821115610f0d57600080fd5b818701915087601f830112610f2157600080fd5b813581811115610f3357610f33610ea9565b8060051b604051601f19603f83011681018181108582111715610f5857610f58610ea9565b60405291825284820192508381018501918a831115610f7657600080fd5b938501935b82851015610f9b57610f8c85610e69565b84529385019392850192610f7b565b8096505050505050509250925092565b600060208284031215610fbd57600080fd5b813561067b81610e54565b60008060408385031215610fdb57600080fd5b50508035926020909101359150565b600060208284031215610ffc57600080fd5b8151801515811461067b57600080fd5b634e487b7160e01b600052603260045260246000fd5b60005b8381101561103d578181015183820152602001611025565b50506000910152565b7f416363657373436f6e74726f6c3a206163636f756e742000000000000000000081526000835161107e816017850160208801611022565b7001034b99036b4b9b9b4b733903937b6329607d1b60179184019182015283516110af816028840160208801611022565b01602801949350505050565b60208152600082518060208401526110da816040850160208701611022565b601f01601f19169190910160400192915050565b634e487b7160e01b600052601160045260246000fd5b80820281158282048414176102cb576102cb6110ee565b808201808211156102cb576102cb6110ee565b60008161113d5761113d6110ee565b506000190190565b818103818111156102cb576102cb6110ee565b634e487b7160e01b600052603160045260246000fdfe5bea60102f2a7acc9e82b1af0e3bd4069661102bb5dd143a6051cd1980dded1ca164736f6c6343000811000a",
  "devdoc": {
    "errors": {
      "ErrNotOnEmergencyPause()": [
        {
          "details": "Error thrown when the contract is not on emergency pause."
        }
      ],
      "ErrTargetIsNotOnPaused()": [
        {
          "details": "Error thrown when the target is not on paused state."
        }
      ],
      "ErrTargetIsOnPaused()": [
        {
          "details": "Error thrown when the target is already on paused state."
        }
      ]
    },
    "events": {
      "EmergencyPaused(address)": {
        "details": "Emitted when the emergency ppause is triggered by `account`."
      },
      "EmergencyUnpaused(address)": {
        "details": "Emitted when the emergency unpause is triggered by `account`."
      },
      "TargetChanged(address)": {
        "details": "Emitted when the target is changed."
      }
    },
    "kind": "dev",
    "methods": {
      "changeTarget(address)": {
        "details": "Setter for `target`. Requirements: - Only admin can call this method."
      },
      "getRoleAdmin(bytes32)": {
        "details": "Returns the admin role that controls `role`. See {grantRole} and {revokeRole}. To change a role's admin, use {_setRoleAdmin}."
      },
      "getRoleMember(bytes32,uint256)": {
        "details": "Returns one of the accounts that have `role`. `index` must be a value between 0 and {getRoleMemberCount}, non-inclusive. Role bearers are not sorted in any particular way, and their ordering may change at any point. WARNING: When using {getRoleMember} and {getRoleMemberCount}, make sure you perform all queries on the same block. See the following https://forum.openzeppelin.com/t/iterating-over-elements-on-enumerableset-in-openzeppelin-contracts/2296[forum post] for more information."
      },
      "getRoleMemberCount(bytes32)": {
        "details": "Returns the number of accounts that have `role`. Can be used together with {getRoleMember} to enumerate all bearers of a role."
      },
      "grantRole(bytes32,address)": {
        "details": "Grants `role` to `account`. If `account` had not been already granted `role`, emits a {RoleGranted} event. Requirements: - the caller must have ``role``'s admin role. May emit a {RoleGranted} event."
      },
      "grantSentry(address)": {
        "details": "Grants the SENTRY_ROLE to the specified address."
      },
      "hasRole(bytes32,address)": {
        "details": "Returns `true` if `account` has been granted `role`."
      },
      "initialize(address,address,address[])": {
        "details": "Initializes the contract storage."
      },
      "renounceRole(bytes32,address)": {
        "details": "Revokes `role` from the calling account. Roles are often managed via {grantRole} and {revokeRole}: this function's purpose is to provide a mechanism for accounts to lose their privileges if they are compromised (such as when a trusted device is misplaced). If the calling account had been revoked `role`, emits a {RoleRevoked} event. Requirements: - the caller must be `account`. May emit a {RoleRevoked} event."
      },
      "revokeRole(bytes32,address)": {
        "details": "Revokes `role` from `account`. If `account` had been granted `role`, emits a {RoleRevoked} event. Requirements: - the caller must have ``role``'s admin role. May emit a {RoleRevoked} event."
      },
      "revokeSentry(address)": {
        "details": "Revokes the SENTRY_ROLE from the specified address."
      },
      "supportsInterface(bytes4)": {
        "details": "See {IERC165-supportsInterface}."
      },
      "triggerPause()": {
        "details": "Triggers a pause on the target contract. Requirements: - Only be called by accounts with the SENTRY_ROLE, - The target contract is not already paused."
      },
      "triggerUnpause()": {
        "details": "Triggers an unpause on the target contract. Requirements: - Only be called by accounts with the SENTRY_ROLE, - The target contract is already paused. - The target contract is paused in emergency mode."
      }
    },
    "stateVariables": {
      "emergency": {
        "details": "Indicating whether or not the target contract is paused in emergency mode."
      },
      "target": {
        "details": "The contract that can be paused or unpaused by the SENTRY_ROLE."
      }
    },
    "version": 1
  },
  "userdoc": {
    "kind": "user",
    "methods": {},
    "version": 1
  },
  "storageLayout": {
    "storage": [
      {
        "astId": 24,
        "contract": "contracts/ronin/gateway/PauseEnforcer.sol:PauseEnforcer",
        "label": "_roles",
        "offset": 0,
        "slot": "0",
        "type": "t_mapping(t_bytes32,t_struct(RoleData)19_storage)"
      },
      {
        "astId": 338,
        "contract": "contracts/ronin/gateway/PauseEnforcer.sol:PauseEnforcer",
        "label": "_roleMembers",
        "offset": 0,
        "slot": "1",
        "type": "t_mapping(t_bytes32,t_struct(AddressSet)4026_storage)"
      },
      {
        "astId": 1373,
        "contract": "contracts/ronin/gateway/PauseEnforcer.sol:PauseEnforcer",
        "label": "_initialized",
        "offset": 0,
        "slot": "2",
        "type": "t_uint8"
      },
      {
        "astId": 1376,
        "contract": "contracts/ronin/gateway/PauseEnforcer.sol:PauseEnforcer",
        "label": "_initializing",
        "offset": 1,
        "slot": "2",
        "type": "t_bool"
      },
      {
        "astId": 24083,
        "contract": "contracts/ronin/gateway/PauseEnforcer.sol:PauseEnforcer",
        "label": "target",
        "offset": 2,
        "slot": "2",
        "type": "t_contract(IPauseTarget)9588"
      },
      {
        "astId": 24086,
        "contract": "contracts/ronin/gateway/PauseEnforcer.sol:PauseEnforcer",
        "label": "emergency",
        "offset": 22,
        "slot": "2",
        "type": "t_bool"
      }
    ],
    "types": {
      "t_address": {
        "encoding": "inplace",
        "label": "address",
        "numberOfBytes": "20"
      },
      "t_array(t_bytes32)dyn_storage": {
        "base": "t_bytes32",
        "encoding": "dynamic_array",
        "label": "bytes32[]",
        "numberOfBytes": "32"
      },
      "t_bool": {
        "encoding": "inplace",
        "label": "bool",
        "numberOfBytes": "1"
      },
      "t_bytes32": {
        "encoding": "inplace",
        "label": "bytes32",
        "numberOfBytes": "32"
      },
      "t_contract(IPauseTarget)9588": {
        "encoding": "inplace",
        "label": "contract IPauseTarget",
        "numberOfBytes": "20"
      },
      "t_mapping(t_address,t_bool)": {
        "encoding": "mapping",
        "key": "t_address",
        "label": "mapping(address => bool)",
        "numberOfBytes": "32",
        "value": "t_bool"
      },
      "t_mapping(t_bytes32,t_struct(AddressSet)4026_storage)": {
        "encoding": "mapping",
        "key": "t_bytes32",
        "label": "mapping(bytes32 => struct EnumerableSet.AddressSet)",
        "numberOfBytes": "32",
        "value": "t_struct(AddressSet)4026_storage"
      },
      "t_mapping(t_bytes32,t_struct(RoleData)19_storage)": {
        "encoding": "mapping",
        "key": "t_bytes32",
        "label": "mapping(bytes32 => struct AccessControl.RoleData)",
        "numberOfBytes": "32",
        "value": "t_struct(RoleData)19_storage"
      },
      "t_mapping(t_bytes32,t_uint256)": {
        "encoding": "mapping",
        "key": "t_bytes32",
        "label": "mapping(bytes32 => uint256)",
        "numberOfBytes": "32",
        "value": "t_uint256"
      },
      "t_struct(AddressSet)4026_storage": {
        "encoding": "inplace",
        "label": "struct EnumerableSet.AddressSet",
        "members": [
          {
            "astId": 4025,
            "contract": "contracts/ronin/gateway/PauseEnforcer.sol:PauseEnforcer",
            "label": "_inner",
            "offset": 0,
            "slot": "0",
            "type": "t_struct(Set)3725_storage"
          }
        ],
        "numberOfBytes": "64"
      },
      "t_struct(RoleData)19_storage": {
        "encoding": "inplace",
        "label": "struct AccessControl.RoleData",
        "members": [
          {
            "astId": 16,
            "contract": "contracts/ronin/gateway/PauseEnforcer.sol:PauseEnforcer",
            "label": "members",
            "offset": 0,
            "slot": "0",
            "type": "t_mapping(t_address,t_bool)"
          },
          {
            "astId": 18,
            "contract": "contracts/ronin/gateway/PauseEnforcer.sol:PauseEnforcer",
            "label": "adminRole",
            "offset": 0,
            "slot": "1",
            "type": "t_bytes32"
          }
        ],
        "numberOfBytes": "64"
      },
      "t_struct(Set)3725_storage": {
        "encoding": "inplace",
        "label": "struct EnumerableSet.Set",
        "members": [
          {
            "astId": 3720,
            "contract": "contracts/ronin/gateway/PauseEnforcer.sol:PauseEnforcer",
            "label": "_values",
            "offset": 0,
            "slot": "0",
            "type": "t_array(t_bytes32)dyn_storage"
          },
          {
            "astId": 3724,
            "contract": "contracts/ronin/gateway/PauseEnforcer.sol:PauseEnforcer",
            "label": "_indexes",
            "offset": 0,
            "slot": "1",
            "type": "t_mapping(t_bytes32,t_uint256)"
          }
        ],
        "numberOfBytes": "64"
      },
      "t_uint256": {
        "encoding": "inplace",
        "label": "uint256",
        "numberOfBytes": "32"
      },
      "t_uint8": {
        "encoding": "inplace",
        "label": "uint8",
        "numberOfBytes": "1"
      }
    }
  }
}