{
  "address": "0xc998920E55f68f631fc4fb1e0dA11A16c637044E",
  "abi": [
    {
      "inputs": [
        {
          "internalType": "address",
          "name": "proxyStorage",
          "type": "address"
        },
        {
          "internalType": "address",
          "name": "prevImpl",
          "type": "address"
        },
        {
          "internalType": "address",
          "name": "newImpl",
          "type": "address"
        }
      ],
      "stateMutability": "nonpayable",
      "type": "constructor"
    },
    {
      "inputs": [
        {
          "internalType": "address",
          "name": "addr",
          "type": "address"
        }
      ],
      "name": "ErrDelegateFromUnknownOrigin",
      "type": "error"
    },
    {
      "inputs": [
        {
          "internalType": "bytes4",
          "name": "msgSig",
          "type": "bytes4"
        }
      ],
      "name": "ErrDuplicated",
      "type": "error"
    },
    {
      "inputs": [
        {
          "internalType": "bytes4",
          "name": "msgSig",
          "type": "bytes4"
        }
      ],
      "name": "ErrOnlySelfCall",
      "type": "error"
    },
    {
      "inputs": [
        {
          "internalType": "address",
          "name": "addr",
          "type": "address"
        }
      ],
      "name": "ErrZeroCodeContract",
      "type": "error"
    },
    {
      "anonymous": false,
      "inputs": [
        {
          "indexed": false,
          "internalType": "address",
          "name": "previousAdmin",
          "type": "address"
        },
        {
          "indexed": false,
          "internalType": "address",
          "name": "newAdmin",
          "type": "address"
        }
      ],
      "name": "AdminChanged",
      "type": "event"
    },
    {
      "anonymous": false,
      "inputs": [
        {
          "indexed": true,
          "internalType": "address",
          "name": "beacon",
          "type": "address"
        }
      ],
      "name": "BeaconUpgraded",
      "type": "event"
    },
    {
      "anonymous": false,
      "inputs": [
        {
          "indexed": true,
          "internalType": "address",
          "name": "implementation",
          "type": "address"
        }
      ],
      "name": "Upgraded",
      "type": "event"
    },
    {
      "stateMutability": "payable",
      "type": "fallback"
    },
    {
      "inputs": [],
      "name": "NEW_IMPL",
      "outputs": [
        {
          "internalType": "address",
          "name": "",
          "type": "address"
        }
      ],
      "stateMutability": "view",
      "type": "function"
    },
    {
      "inputs": [],
      "name": "PREV_IMPL",
      "outputs": [
        {
          "internalType": "address",
          "name": "",
          "type": "address"
        }
      ],
      "stateMutability": "view",
      "type": "function"
    },
    {
      "inputs": [],
      "name": "PROXY_STORAGE",
      "outputs": [
        {
          "internalType": "address",
          "name": "",
          "type": "address"
        }
      ],
      "stateMutability": "view",
      "type": "function"
    },
    {
      "inputs": [],
      "name": "selfUpgrade",
      "outputs": [],
      "stateMutability": "nonpayable",
      "type": "function"
    },
    {
      "stateMutability": "payable",
      "type": "receive"
    }
  ],
  "transactionHash": "0xaa05709e7227bd9eabf3083e15c2e33e7f21b41f958cb16fbe6ac7b54addb45d",
  "args": [
    "0x54B3AC74a90E64E8dDE60671b6fE8F8DDf18eC9d",
    "0x089cf8744bfdd793b0c84537319b4de45785fb2c",
    "0x679f49c06ee7c0e6b7c4f0f869a534a3533c7dd2"
  ],
  "numDeployments": 1,
  "solcInputHash": "5bb29245382eed46bc25ba7e9a5b8468",
  "bytecode": "0x60e06040523480156200001157600080fd5b50604051620009a0380380620009a0833981016040819052620000349162000293565b82828282620000438162000190565b826200004f8162000190565b826200005b8162000190565b60408051600380825260808201909252600091602082016060803683370190505090508681600081518110620000955762000095620002dd565b60200260200101906001600160a01b031690816001600160a01b0316815250508581600181518110620000cc57620000cc620002dd565b60200260200101906001600160a01b031690816001600160a01b0316815250508481600281518110620001035762000103620002dd565b60200260200101906001600160a01b031690816001600160a01b0316815250506200013981620001cb60201b620001ef1760201c565b156200016b57604051630d697db160e11b81526001600160e01b03196000351660048201526024015b60405180910390fd5b5050506001600160a01b0393841660805250821660a0521660c05250620002f3915050565b806001600160a01b03163b600003620001c857604051630bfc64a360e21b81526001600160a01b038216600482015260240162000162565b50565b60008151600003620001df57506000919050565b60005b60018351038110156200026d57600181015b83518110156200026357838181518110620002135762000213620002dd565b60200260200101516001600160a01b0316848381518110620002395762000239620002dd565b60200260200101516001600160a01b0316036200025a575060019392505050565b600101620001f4565b50600101620001e2565b50600092915050565b80516001600160a01b03811681146200028e57600080fd5b919050565b600080600060608486031215620002a957600080fd5b620002b48462000276565b9250620002c46020850162000276565b9150620002d46040850162000276565b90509250925092565b634e487b7160e01b600052603260045260246000fd5b60805160a05160c0516106636200033d600039600081816074015261018801526000818160c401526101cb01526000818161010d0152818161013a015261042e01526106636000f3fe6080604052600436106100435760003560e01c8063014fdae61461006257806330b53157146100b2578063d39f5677146100e6578063f89360c2146100fb5761005a565b3661005a5761005061012f565b610058610181565b005b61005061012f565b34801561006e57600080fd5b506100967f000000000000000000000000000000000000000000000000000000000000000081565b6040516001600160a01b03909116815260200160405180910390f35b3480156100be57600080fd5b506100967f000000000000000000000000000000000000000000000000000000000000000081565b3480156100f257600080fd5b506100586101b6565b34801561010757600080fd5b506100967f000000000000000000000000000000000000000000000000000000000000000081565b306001600160a01b037f0000000000000000000000000000000000000000000000000000000000000000161461017f5760405163145be24560e01b81523060048201526024015b60405180910390fd5b565b60006101ac7f000000000000000000000000000000000000000000000000000000000000000061028e565b9050805160208201f35b6101be61012f565b6101c6610423565b61017f7f000000000000000000000000000000000000000000000000000000000000000061047a565b6000815160000361020257506000919050565b60005b600183510381101561028557600181015b835181101561027c5783818151811061023157610231610617565b60200260200101516001600160a01b031684838151811061025457610254610617565b60200260200101516001600160a01b031603610274575060019392505050565b600101610216565b50600101610205565b50600092915050565b60606308d1b97f60e41b6000356001600160e01b0319160161039f5760006102b46104ba565b9050600080846001600160a01b03166000366040516102d492919061062d565b600060405180830381855af49150503d806000811461030f576040519150601f19603f3d011682016040523d82523d6000602084013e610314565b606091505b5090925090506103338215156001600160e01b03196000351683610523565b925061033f90506104ba565b811461039957306001600160a01b031663d39f56776040518163ffffffff1660e01b8152600401600060405180830381600087803b15801561038057600080fd5b505af1158015610394573d6000803e3d6000fd5b505050505b50919050565b600080836001600160a01b03166000366040516103bd92919061062d565b600060405180830381855af49150503d80600081146103f8576040519150601f19603f3d011682016040523d82523d6000602084013e6103fd565b606091505b50909250905061041c8215156001600160e01b03196000351683610523565b9392505050565b336001600160a01b037f0000000000000000000000000000000000000000000000000000000000000000161461017f576040516307337e1960e41b81526001600160e01b0319600035166004820152602401610176565b61048381610569565b6040516001600160a01b038216907fbc7cd75a20ee27fd9adebab32041f755214dbc6bffa90cc0225b39da2e5c2d3b90600090a250565b6000306001600160a01b031663060406186040518163ffffffff1660e01b8152600401602060405180830381865afa1580156104fa573d6000803e3d6000fd5b505050506040513d601f19601f8201168201806040525081019061051e919061063d565b905090565b6001600160e01b031960003516836105635781518015610544578060208401fd5b50604051638e3eda2b81528160208201528360408201526044601c8201fd5b50505050565b6001600160a01b0381163b6105d65760405162461bcd60e51b815260206004820152602d60248201527f455243313936373a206e657720696d706c656d656e746174696f6e206973206e60448201526c1bdd08184818dbdb9d1c9858dd609a1b6064820152608401610176565b7f360894a13ba1a3210667c828492db98dca3e2076cc3735a920a3ca505d382bbc80546001600160a01b0319166001600160a01b0392909216919091179055565b634e487b7160e01b600052603260045260246000fd5b8183823760009101908152919050565b60006020828403121561064f57600080fd5b505191905056fea164736f6c6343000811000a",
  "devdoc": {
    "details": "A contract that facilitates timed migration of the Ronin validator set using conditional version control.",
    "errors": {
      "ErrDelegateFromUnknownOrigin(address)": [
        {
          "details": "Error when contract which delegate to this contract is not compatible with ERC1967"
        }
      ],
      "ErrDuplicated(bytes4)": [
        {
          "details": "Error thrown when a duplicated element is detected in an array.",
          "params": {
            "msgSig": "The function signature that invoke the error."
          }
        }
      ],
      "ErrOnlySelfCall(bytes4)": [
        {
          "details": "Error indicating that a function can only be called by the contract itself.",
          "params": {
            "msgSig": "The function signature (bytes4) that can only be called by the contract itself."
          }
        }
      ],
      "ErrZeroCodeContract(address)": [
        {
          "details": "Error of set to non-contract."
        }
      ]
    },
    "kind": "dev",
    "methods": {
      "constructor": {
        "details": "Constructs the {RoninValidatorSetTimedMigrator} contract.",
        "params": {
          "newImpl": "The address of the new contract implementation.",
          "prevImpl": "The address of the current contract implementation.",
          "proxyStorage": "The address of the proxy storage contract."
        }
      },
      "selfUpgrade()": {
        "details": "See {IConditionalImplementControl-selfUpgrade}."
      }
    },
    "title": "RoninValidatorSetTimedMigrator",
    "version": 1
  },
  "userdoc": {
    "kind": "user",
    "methods": {
      "PROXY_STORAGE()": {
        "notice": "immutable variables are directly stored in contract code. ensuring no storage writes are required. The values of immutable variables remain fixed and cannot be modified, regardless of any interactions, including delegations."
      }
    },
    "version": 1
  },
  "storageLayout": {
    "storage": [],
    "types": null
  }
}