{
  "address": "0xb65B875BE27E5E399FCbfc99c60574218DE2692B",
  "abi": [
    {
      "inputs": [],
      "stateMutability": "nonpayable",
      "type": "constructor"
    },
    {
      "inputs": [],
      "name": "ErrAlreadyRequestedEmergencyExit",
      "type": "error"
    },
    {
      "inputs": [],
      "name": "ErrAlreadyRequestedRevokingCandidate",
      "type": "error"
    },
    {
      "inputs": [],
      "name": "ErrAlreadyRequestedUpdatingCommissionRate",
      "type": "error"
    },
    {
      "inputs": [],
      "name": "ErrAlreadyWrappedEpoch",
      "type": "error"
    },
    {
      "inputs": [],
      "name": "ErrAtEndOfEpochOnly",
      "type": "error"
    },
    {
      "inputs": [],
      "name": "ErrCallPrecompiled",
      "type": "error"
    },
    {
      "inputs": [],
      "name": "ErrCallerMustBeCoinbase",
      "type": "error"
    },
    {
      "inputs": [
        {
          "internalType": "address",
          "name": "validator",
          "type": "address"
        }
      ],
      "name": "ErrCannotBailout",
      "type": "error"
    },
    {
      "inputs": [
        {
          "internalType": "enum ContractType",
          "name": "contractType",
          "type": "uint8"
        }
      ],
      "name": "ErrContractTypeNotFound",
      "type": "error"
    },
    {
      "inputs": [],
      "name": "ErrExceedsMaxNumberOfCandidate",
      "type": "error"
    },
    {
      "inputs": [],
      "name": "ErrExistentCandidate",
      "type": "error"
    },
    {
      "inputs": [
        {
          "internalType": "address",
          "name": "_candidateAdminAddr",
          "type": "address"
        }
      ],
      "name": "ErrExistentCandidateAdmin",
      "type": "error"
    },
    {
      "inputs": [
        {
          "internalType": "address",
          "name": "_treasuryAddr",
          "type": "address"
        }
      ],
      "name": "ErrExistentTreasury",
      "type": "error"
    },
    {
      "inputs": [
        {
          "internalType": "bytes4",
          "name": "msgSig",
          "type": "bytes4"
        },
        {
          "internalType": "uint256",
          "name": "currentBalance",
          "type": "uint256"
        },
        {
          "internalType": "uint256",
          "name": "sendAmount",
          "type": "uint256"
        }
      ],
      "name": "ErrInsufficientBalance",
      "type": "error"
    },
    {
      "inputs": [],
      "name": "ErrInvalidCommissionRate",
      "type": "error"
    },
    {
      "inputs": [],
      "name": "ErrInvalidEffectiveDaysOnwards",
      "type": "error"
    },
    {
      "inputs": [],
      "name": "ErrInvalidMaxPrioritizedValidatorNumber",
      "type": "error"
    },
    {
      "inputs": [],
      "name": "ErrInvalidMinEffectiveDaysOnwards",
      "type": "error"
    },
    {
      "inputs": [],
      "name": "ErrNonExistentCandidate",
      "type": "error"
    },
    {
      "inputs": [
        {
          "internalType": "bytes4",
          "name": "msgSig",
          "type": "bytes4"
        }
      ],
      "name": "ErrRecipientRevert",
      "type": "error"
    },
    {
      "inputs": [],
      "name": "ErrTrustedOrgCannotRenounce",
      "type": "error"
    },
    {
      "inputs": [
        {
          "internalType": "bytes4",
          "name": "msgSig",
          "type": "bytes4"
        },
        {
          "internalType": "enum RoleAccess",
          "name": "expectedRole",
          "type": "uint8"
        }
      ],
      "name": "ErrUnauthorized",
      "type": "error"
    },
    {
      "inputs": [],
      "name": "ErrUnauthorizedReceiveRON",
      "type": "error"
    },
    {
      "inputs": [
        {
          "internalType": "bytes4",
          "name": "msgSig",
          "type": "bytes4"
        },
        {
          "internalType": "enum ContractType",
          "name": "expectedContractType",
          "type": "uint8"
        },
        {
          "internalType": "address",
          "name": "actual",
          "type": "address"
        }
      ],
      "name": "ErrUnexpectedInternalCall",
      "type": "error"
    },
    {
      "inputs": [
        {
          "internalType": "address",
          "name": "addr",
          "type": "address"
        }
      ],
      "name": "ErrZeroCodeContract",
      "type": "error"
    },
    {
      "inputs": [],
      "name": "NonExistentRecyclingInfo",
      "type": "error"
    },
    {
      "anonymous": false,
      "inputs": [
        {
          "indexed": true,
          "internalType": "uint256",
          "name": "period",
          "type": "uint256"
        },
        {
          "indexed": true,
          "internalType": "uint256",
          "name": "epoch",
          "type": "uint256"
        },
        {
          "indexed": false,
          "internalType": "address[]",
          "name": "consensusAddrs",
          "type": "address[]"
        }
      ],
      "name": "BlockProducerSetUpdated",
      "type": "event"
    },
    {
      "anonymous": false,
      "inputs": [
        {
          "indexed": true,
          "internalType": "address",
          "name": "coinbaseAddr",
          "type": "address"
        },
        {
          "indexed": false,
          "internalType": "uint256",
          "name": "rewardAmount",
          "type": "uint256"
        },
        {
          "indexed": false,
          "internalType": "enum ICoinbaseExecution.BlockRewardDeprecatedType",
          "name": "deprecatedType",
          "type": "uint8"
        }
      ],
      "name": "BlockRewardDeprecated",
      "type": "event"
    },
    {
      "anonymous": false,
      "inputs": [
        {
          "indexed": true,
          "internalType": "address",
          "name": "coinbaseAddr",
          "type": "address"
        },
        {
          "indexed": false,
          "internalType": "uint256",
          "name": "submittedAmount",
          "type": "uint256"
        },
        {
          "indexed": false,
          "internalType": "uint256",
          "name": "bonusAmount",
          "type": "uint256"
        }
      ],
      "name": "BlockRewardSubmitted",
      "type": "event"
    },
    {
      "anonymous": false,
      "inputs": [
        {
          "indexed": true,
          "internalType": "address",
          "name": "consensusAddr",
          "type": "address"
        },
        {
          "indexed": true,
          "internalType": "address",
          "name": "bridgeOperator",
          "type": "address"
        },
        {
          "indexed": true,
          "internalType": "address",
          "name": "recipientAddr",
          "type": "address"
        },
        {
          "indexed": false,
          "internalType": "uint256",
          "name": "amount",
          "type": "uint256"
        }
      ],
      "name": "BridgeOperatorRewardDistributed",
      "type": "event"
    },
    {
      "anonymous": false,
      "inputs": [
        {
          "indexed": true,
          "internalType": "address",
          "name": "consensusAddr",
          "type": "address"
        },
        {
          "indexed": true,
          "internalType": "address",
          "name": "bridgeOperator",
          "type": "address"
        },
        {
          "indexed": true,
          "internalType": "address",
          "name": "recipient",
          "type": "address"
        },
        {
          "indexed": false,
          "internalType": "uint256",
          "name": "amount",
          "type": "uint256"
        },
        {
          "indexed": false,
          "internalType": "uint256",
          "name": "contractBalance",
          "type": "uint256"
        }
      ],
      "name": "BridgeOperatorRewardDistributionFailed",
      "type": "event"
    },
    {
      "anonymous": false,
      "inputs": [
        {
          "indexed": true,
          "internalType": "uint256",
          "name": "period",
          "type": "uint256"
        },
        {
          "indexed": true,
          "internalType": "uint256",
          "name": "epoch",
          "type": "uint256"
        },
        {
          "indexed": false,
          "internalType": "address[]",
          "name": "bridgeOperators",
          "type": "address[]"
        }
      ],
      "name": "BridgeOperatorSetUpdated",
      "type": "event"
    },
    {
      "anonymous": false,
      "inputs": [
        {
          "indexed": true,
          "internalType": "address",
          "name": "consensusAddr",
          "type": "address"
        },
        {
          "indexed": true,
          "internalType": "address",
          "name": "treasuryAddr",
          "type": "address"
        },
        {
          "indexed": true,
          "internalType": "address",
          "name": "admin",
          "type": "address"
        }
      ],
      "name": "CandidateGranted",
      "type": "event"
    },
    {
      "anonymous": false,
      "inputs": [
        {
          "indexed": true,
          "internalType": "address",
          "name": "consensusAddr",
          "type": "address"
        },
        {
          "indexed": false,
          "internalType": "uint256",
          "name": "revokingTimestamp",
          "type": "uint256"
        }
      ],
      "name": "CandidateRevokingTimestampUpdated",
      "type": "event"
    },
    {
      "anonymous": false,
      "inputs": [
        {
          "indexed": true,
          "internalType": "address",
          "name": "consensusAddr",
          "type": "address"
        },
        {
          "indexed": false,
          "internalType": "uint256",
          "name": "topupDeadline",
          "type": "uint256"
        }
      ],
      "name": "CandidateTopupDeadlineUpdated",
      "type": "event"
    },
    {
      "anonymous": false,
      "inputs": [
        {
          "indexed": false,
          "internalType": "address[]",
          "name": "consensusAddrs",
          "type": "address[]"
        }
      ],
      "name": "CandidatesRevoked",
      "type": "event"
    },
    {
      "anonymous": false,
      "inputs": [
        {
          "indexed": true,
          "internalType": "address",
          "name": "consensusAddr",
          "type": "address"
        },
        {
          "indexed": false,
          "internalType": "uint256",
          "name": "effectiveTimestamp",
          "type": "uint256"
        },
        {
          "indexed": false,
          "internalType": "uint256",
          "name": "rate",
          "type": "uint256"
        }
      ],
      "name": "CommissionRateUpdateScheduled",
      "type": "event"
    },
    {
      "anonymous": false,
      "inputs": [
        {
          "indexed": true,
          "internalType": "address",
          "name": "consensusAddr",
          "type": "address"
        },
        {
          "indexed": false,
          "internalType": "uint256",
          "name": "rate",
          "type": "uint256"
        }
      ],
      "name": "CommissionRateUpdated",
      "type": "event"
    },
    {
      "anonymous": false,
      "inputs": [
        {
          "indexed": true,
          "internalType": "enum ContractType",
          "name": "contractType",
          "type": "uint8"
        },
        {
          "indexed": true,
          "internalType": "address",
          "name": "addr",
          "type": "address"
        }
      ],
      "name": "ContractUpdated",
      "type": "event"
    },
    {
      "anonymous": false,
      "inputs": [
        {
          "indexed": true,
          "internalType": "address",
          "name": "recipientAddr",
          "type": "address"
        },
        {
          "indexed": false,
          "internalType": "uint256",
          "name": "amount",
          "type": "uint256"
        },
        {
          "indexed": false,
          "internalType": "uint256",
          "name": "balance",
          "type": "uint256"
        }
      ],
      "name": "DeprecatedRewardRecycleFailed",
      "type": "event"
    },
    {
      "anonymous": false,
      "inputs": [
        {
          "indexed": true,
          "internalType": "address",
          "name": "recipientAddr",
          "type": "address"
        },
        {
          "indexed": false,
          "internalType": "uint256",
          "name": "amount",
          "type": "uint256"
        }
      ],
      "name": "DeprecatedRewardRecycled",
      "type": "event"
    },
    {
      "anonymous": false,
      "inputs": [
        {
          "indexed": false,
          "internalType": "uint256",
          "name": "amount",
          "type": "uint256"
        }
      ],
      "name": "EmergencyExitLockedAmountUpdated",
      "type": "event"
    },
    {
      "anonymous": false,
      "inputs": [
        {
          "indexed": true,
          "internalType": "address",
          "name": "consensusAddr",
          "type": "address"
        },
        {
          "indexed": true,
          "internalType": "address",
          "name": "recipient",
          "type": "address"
        },
        {
          "indexed": false,
          "internalType": "uint256",
          "name": "unlockedAmount",
          "type": "uint256"
        }
      ],
      "name": "EmergencyExitLockedFundReleased",
      "type": "event"
    },
    {
      "anonymous": false,
      "inputs": [
        {
          "indexed": true,
          "internalType": "address",
          "name": "consensusAddr",
          "type": "address"
        },
        {
          "indexed": true,
          "internalType": "address",
          "name": "recipient",
          "type": "address"
        },
        {
          "indexed": false,
          "internalType": "uint256",
          "name": "unlockedAmount",
          "type": "uint256"
        },
        {
          "indexed": false,
          "internalType": "uint256",
          "name": "contractBalance",
          "type": "uint256"
        }
      ],
      "name": "EmergencyExitLockedFundReleasingFailed",
      "type": "event"
    },
    {
      "anonymous": false,
      "inputs": [
        {
          "indexed": true,
          "internalType": "address",
          "name": "consensusAddr",
          "type": "address"
        },
        {
          "indexed": false,
          "internalType": "uint256",
          "name": "lockedAmount",
          "type": "uint256"
        }
      ],
      "name": "EmergencyExitRequested",
      "type": "event"
    },
    {
      "anonymous": false,
      "inputs": [
        {
          "indexed": false,
          "internalType": "uint256",
          "name": "amount",
          "type": "uint256"
        }
      ],
      "name": "EmergencyExpiryDurationUpdated",
      "type": "event"
    },
    {
      "anonymous": false,
      "inputs": [
        {
          "indexed": false,
          "internalType": "uint8",
          "name": "version",
          "type": "uint8"
        }
      ],
      "name": "Initialized",
      "type": "event"
    },
    {
      "anonymous": false,
      "inputs": [
        {
          "indexed": false,
          "internalType": "uint256",
          "name": "",
          "type": "uint256"
        }
      ],
      "name": "MaxPrioritizedValidatorNumberUpdated",
      "type": "event"
    },
    {
      "anonymous": false,
      "inputs": [
        {
          "indexed": false,
          "internalType": "uint256",
          "name": "threshold",
          "type": "uint256"
        }
      ],
      "name": "MaxValidatorCandidateUpdated",
      "type": "event"
    },
    {
      "anonymous": false,
      "inputs": [
        {
          "indexed": false,
          "internalType": "uint256",
          "name": "",
          "type": "uint256"
        }
      ],
      "name": "MaxValidatorNumberUpdated",
      "type": "event"
    },
    {
      "anonymous": false,
      "inputs": [
        {
          "indexed": false,
          "internalType": "uint256",
          "name": "numOfDays",
          "type": "uint256"
        }
      ],
      "name": "MinEffectiveDaysOnwardsUpdated",
      "type": "event"
    },
    {
      "anonymous": false,
      "inputs": [
        {
          "indexed": true,
          "internalType": "address",
          "name": "consensusAddr",
          "type": "address"
        },
        {
          "indexed": true,
          "internalType": "address",
          "name": "recipient",
          "type": "address"
        },
        {
          "indexed": false,
          "internalType": "uint256",
          "name": "amount",
          "type": "uint256"
        }
      ],
      "name": "MiningRewardDistributed",
      "type": "event"
    },
    {
      "anonymous": false,
      "inputs": [
        {
          "indexed": true,
          "internalType": "address",
          "name": "consensusAddr",
          "type": "address"
        },
        {
          "indexed": true,
          "internalType": "address",
          "name": "recipient",
          "type": "address"
        },
        {
          "indexed": false,
          "internalType": "uint256",
          "name": "amount",
          "type": "uint256"
        },
        {
          "indexed": false,
          "internalType": "uint256",
          "name": "contractBalance",
          "type": "uint256"
        }
      ],
      "name": "MiningRewardDistributionFailed",
      "type": "event"
    },
    {
      "anonymous": false,
      "inputs": [
        {
          "indexed": false,
          "internalType": "uint256",
          "name": "totalAmount",
          "type": "uint256"
        },
        {
          "indexed": false,
          "internalType": "address[]",
          "name": "consensusAddrs",
          "type": "address[]"
        },
        {
          "indexed": false,
          "internalType": "uint256[]",
          "name": "amounts",
          "type": "uint256[]"
        }
      ],
      "name": "StakingRewardDistributed",
      "type": "event"
    },
    {
      "anonymous": false,
      "inputs": [
        {
          "indexed": false,
          "internalType": "uint256",
          "name": "totalAmount",
          "type": "uint256"
        },
        {
          "indexed": false,
          "internalType": "address[]",
          "name": "consensusAddrs",
          "type": "address[]"
        },
        {
          "indexed": false,
          "internalType": "uint256[]",
          "name": "amounts",
          "type": "uint256[]"
        },
        {
          "indexed": false,
          "internalType": "uint256",
          "name": "contractBalance",
          "type": "uint256"
        }
      ],
      "name": "StakingRewardDistributionFailed",
      "type": "event"
    },
    {
      "anonymous": false,
      "inputs": [
        {
          "indexed": true,
          "internalType": "address",
          "name": "consensusAddr",
          "type": "address"
        },
        {
          "indexed": true,
          "internalType": "uint256",
          "name": "period",
          "type": "uint256"
        },
        {
          "indexed": false,
          "internalType": "uint256",
          "name": "jailedUntil",
          "type": "uint256"
        },
        {
          "indexed": false,
          "internalType": "uint256",
          "name": "deductedStakingAmount",
          "type": "uint256"
        },
        {
          "indexed": false,
          "internalType": "bool",
          "name": "blockProducerRewardDeprecated",
          "type": "bool"
        },
        {
          "indexed": false,
          "internalType": "bool",
          "name": "bridgeOperatorRewardDeprecated",
          "type": "bool"
        }
      ],
      "name": "ValidatorPunished",
      "type": "event"
    },
    {
      "anonymous": false,
      "inputs": [
        {
          "indexed": true,
          "internalType": "uint256",
          "name": "period",
          "type": "uint256"
        },
        {
          "indexed": false,
          "internalType": "address[]",
          "name": "consensusAddrs",
          "type": "address[]"
        }
      ],
      "name": "ValidatorSetUpdated",
      "type": "event"
    },
    {
      "anonymous": false,
      "inputs": [
        {
          "indexed": true,
          "internalType": "address",
          "name": "validator",
          "type": "address"
        },
        {
          "indexed": false,
          "internalType": "uint256",
          "name": "period",
          "type": "uint256"
        }
      ],
      "name": "ValidatorUnjailed",
      "type": "event"
    },
    {
      "anonymous": false,
      "inputs": [
        {
          "indexed": true,
          "internalType": "uint256",
          "name": "periodNumber",
          "type": "uint256"
        },
        {
          "indexed": true,
          "internalType": "uint256",
          "name": "epochNumber",
          "type": "uint256"
        },
        {
          "indexed": false,
          "internalType": "bool",
          "name": "periodEnding",
          "type": "bool"
        }
      ],
      "name": "WrappedUpEpoch",
      "type": "event"
    },
    {
      "stateMutability": "payable",
      "type": "fallback"
    },
    {
      "inputs": [],
      "name": "DEFAULT_ADDITION_GAS",
      "outputs": [
        {
          "internalType": "uint256",
          "name": "",
          "type": "uint256"
        }
      ],
      "stateMutability": "view",
      "type": "function"
    },
    {
      "inputs": [],
      "name": "PERIOD_DURATION",
      "outputs": [
        {
          "internalType": "uint256",
          "name": "",
          "type": "uint256"
        }
      ],
      "stateMutability": "view",
      "type": "function"
    },
    {
      "inputs": [
        {
          "internalType": "address",
          "name": "_addr",
          "type": "address"
        }
      ],
      "name": "checkJailed",
      "outputs": [
        {
          "internalType": "bool",
          "name": "",
          "type": "bool"
        }
      ],
      "stateMutability": "view",
      "type": "function"
    },
    {
      "inputs": [
        {
          "internalType": "address",
          "name": "_addr",
          "type": "address"
        },
        {
          "internalType": "uint256",
          "name": "_blockNum",
          "type": "uint256"
        }
      ],
      "name": "checkJailedAtBlock",
      "outputs": [
        {
          "internalType": "bool",
          "name": "",
          "type": "bool"
        }
      ],
      "stateMutability": "view",
      "type": "function"
    },
    {
      "inputs": [
        {
          "internalType": "address[]",
          "name": "_addrList",
          "type": "address[]"
        }
      ],
      "name": "checkManyJailed",
      "outputs": [
        {
          "internalType": "bool[]",
          "name": "_result",
          "type": "bool[]"
        }
      ],
      "stateMutability": "view",
      "type": "function"
    },
    {
      "inputs": [
        {
          "internalType": "address",
          "name": "_blockProducer",
          "type": "address"
        }
      ],
      "name": "checkMiningRewardDeprecated",
      "outputs": [
        {
          "internalType": "bool",
          "name": "_result",
          "type": "bool"
        }
      ],
      "stateMutability": "view",
      "type": "function"
    },
    {
      "inputs": [
        {
          "internalType": "address",
          "name": "_blockProducer",
          "type": "address"
        },
        {
          "internalType": "uint256",
          "name": "_period",
          "type": "uint256"
        }
      ],
      "name": "checkMiningRewardDeprecatedAtPeriod",
      "outputs": [
        {
          "internalType": "bool",
          "name": "_result",
          "type": "bool"
        }
      ],
      "stateMutability": "view",
      "type": "function"
    },
    {
      "inputs": [],
      "name": "currentPeriod",
      "outputs": [
        {
          "internalType": "uint256",
          "name": "",
          "type": "uint256"
        }
      ],
      "stateMutability": "view",
      "type": "function"
    },
    {
      "inputs": [],
      "name": "currentPeriodStartAtBlock",
      "outputs": [
        {
          "internalType": "uint256",
          "name": "",
          "type": "uint256"
        }
      ],
      "stateMutability": "view",
      "type": "function"
    },
    {
      "inputs": [],
      "name": "emergencyExitLockedAmount",
      "outputs": [
        {
          "internalType": "uint256",
          "name": "",
          "type": "uint256"
        }
      ],
      "stateMutability": "view",
      "type": "function"
    },
    {
      "inputs": [],
      "name": "emergencyExpiryDuration",
      "outputs": [
        {
          "internalType": "uint256",
          "name": "",
          "type": "uint256"
        }
      ],
      "stateMutability": "view",
      "type": "function"
    },
    {
      "inputs": [
        {
          "internalType": "uint256",
          "name": "_block",
          "type": "uint256"
        }
      ],
      "name": "epochEndingAt",
      "outputs": [
        {
          "internalType": "bool",
          "name": "",
          "type": "bool"
        }
      ],
      "stateMutability": "view",
      "type": "function"
    },
    {
      "inputs": [
        {
          "internalType": "uint256",
          "name": "_block",
          "type": "uint256"
        }
      ],
      "name": "epochOf",
      "outputs": [
        {
          "internalType": "uint256",
          "name": "",
          "type": "uint256"
        }
      ],
      "stateMutability": "view",
      "type": "function"
    },
    {
      "inputs": [
        {
          "internalType": "address",
          "name": "_candidateAdmin",
          "type": "address"
        },
        {
          "internalType": "address",
          "name": "_consensusAddr",
          "type": "address"
        },
        {
          "internalType": "address payable",
          "name": "_treasuryAddr",
          "type": "address"
        },
        {
          "internalType": "uint256",
          "name": "_commissionRate",
          "type": "uint256"
        }
      ],
      "name": "execApplyValidatorCandidate",
      "outputs": [],
      "stateMutability": "nonpayable",
      "type": "function"
    },
    {
      "inputs": [
        {
          "internalType": "address",
          "name": "_validatorAddr",
          "type": "address"
        },
        {
          "internalType": "uint256",
          "name": "_period",
          "type": "uint256"
        }
      ],
      "name": "execBailOut",
      "outputs": [],
      "stateMutability": "nonpayable",
      "type": "function"
    },
    {
      "inputs": [
        {
          "internalType": "address",
          "name": "_consensusAddr",
          "type": "address"
        },
        {
          "internalType": "uint256",
          "name": "_secLeftToRevoke",
          "type": "uint256"
        }
      ],
      "name": "execEmergencyExit",
      "outputs": [],
      "stateMutability": "nonpayable",
      "type": "function"
    },
    {
      "inputs": [
        {
          "internalType": "address",
          "name": "_consensusAddr",
          "type": "address"
        },
        {
          "internalType": "address payable",
          "name": "_recipient",
          "type": "address"
        }
      ],
      "name": "execReleaseLockedFundForEmergencyExitRequest",
      "outputs": [],
      "stateMutability": "nonpayable",
      "type": "function"
    },
    {
      "inputs": [
        {
          "internalType": "address",
          "name": "_consensusAddr",
          "type": "address"
        },
        {
          "internalType": "uint256",
          "name": "_secsLeft",
          "type": "uint256"
        }
      ],
      "name": "execRequestRenounceCandidate",
      "outputs": [],
      "stateMutability": "nonpayable",
      "type": "function"
    },
    {
      "inputs": [
        {
          "internalType": "address",
          "name": "_consensusAddr",
          "type": "address"
        },
        {
          "internalType": "uint256",
          "name": "_effectiveDaysOnwards",
          "type": "uint256"
        },
        {
          "internalType": "uint256",
          "name": "_commissionRate",
          "type": "uint256"
        }
      ],
      "name": "execRequestUpdateCommissionRate",
      "outputs": [],
      "stateMutability": "nonpayable",
      "type": "function"
    },
    {
      "inputs": [
        {
          "internalType": "address",
          "name": "_validatorAddr",
          "type": "address"
        },
        {
          "internalType": "uint256",
          "name": "_newJailedUntil",
          "type": "uint256"
        },
        {
          "internalType": "uint256",
          "name": "_slashAmount",
          "type": "uint256"
        },
        {
          "internalType": "bool",
          "name": "_cannotBailout",
          "type": "bool"
        }
      ],
      "name": "execSlash",
      "outputs": [],
      "stateMutability": "nonpayable",
      "type": "function"
    },
    {
      "inputs": [],
      "name": "getBlockProducers",
      "outputs": [
        {
          "internalType": "address[]",
          "name": "_result",
          "type": "address[]"
        }
      ],
      "stateMutability": "view",
      "type": "function"
    },
    {
      "inputs": [
        {
          "internalType": "address",
          "name": "_candidate",
          "type": "address"
        }
      ],
      "name": "getCandidateInfo",
      "outputs": [
        {
          "components": [
            {
              "internalType": "address",
              "name": "admin",
              "type": "address"
            },
            {
              "internalType": "address",
              "name": "consensusAddr",
              "type": "address"
            },
            {
              "internalType": "address payable",
              "name": "treasuryAddr",
              "type": "address"
            },
            {
              "internalType": "address",
              "name": "______deprecatedbridgeOperatorAddr",
              "type": "address"
            },
            {
              "internalType": "uint256",
              "name": "commissionRate",
              "type": "uint256"
            },
            {
              "internalType": "uint256",
              "name": "revokingTimestamp",
              "type": "uint256"
            },
            {
              "internalType": "uint256",
              "name": "topupDeadline",
              "type": "uint256"
            }
          ],
          "internalType": "struct ICandidateManager.ValidatorCandidate",
          "name": "",
          "type": "tuple"
        }
      ],
      "stateMutability": "view",
      "type": "function"
    },
    {
      "inputs": [],
      "name": "getCandidateInfos",
      "outputs": [
        {
          "components": [
            {
              "internalType": "address",
              "name": "admin",
              "type": "address"
            },
            {
              "internalType": "address",
              "name": "consensusAddr",
              "type": "address"
            },
            {
              "internalType": "address payable",
              "name": "treasuryAddr",
              "type": "address"
            },
            {
              "internalType": "address",
              "name": "______deprecatedbridgeOperatorAddr",
              "type": "address"
            },
            {
              "internalType": "uint256",
              "name": "commissionRate",
              "type": "uint256"
            },
            {
              "internalType": "uint256",
              "name": "revokingTimestamp",
              "type": "uint256"
            },
            {
              "internalType": "uint256",
              "name": "topupDeadline",
              "type": "uint256"
            }
          ],
          "internalType": "struct ICandidateManager.ValidatorCandidate[]",
          "name": "_list",
          "type": "tuple[]"
        }
      ],
      "stateMutability": "view",
      "type": "function"
    },
    {
      "inputs": [
        {
          "internalType": "address",
          "name": "_candidate",
          "type": "address"
        }
      ],
      "name": "getCommissionChangeSchedule",
      "outputs": [
        {
          "components": [
            {
              "internalType": "uint256",
              "name": "effectiveTimestamp",
              "type": "uint256"
            },
            {
              "internalType": "uint256",
              "name": "commissionRate",
              "type": "uint256"
            }
          ],
          "internalType": "struct ICandidateManager.CommissionSchedule",
          "name": "",
          "type": "tuple"
        }
      ],
      "stateMutability": "view",
      "type": "function"
    },
    {
      "inputs": [
        {
          "internalType": "enum ContractType",
          "name": "contractType",
          "type": "uint8"
        }
      ],
      "name": "getContract",
      "outputs": [
        {
          "internalType": "address",
          "name": "contract_",
          "type": "address"
        }
      ],
      "stateMutability": "view",
      "type": "function"
    },
    {
      "inputs": [
        {
          "internalType": "address",
          "name": "_consensusAddr",
          "type": "address"
        }
      ],
      "name": "getEmergencyExitInfo",
      "outputs": [
        {
          "components": [
            {
              "internalType": "uint256",
              "name": "lockedAmount",
              "type": "uint256"
            },
            {
              "internalType": "uint256",
              "name": "recyclingAt",
              "type": "uint256"
            }
          ],
          "internalType": "struct ICommonInfo.EmergencyExitInfo",
          "name": "_info",
          "type": "tuple"
        }
      ],
      "stateMutability": "view",
      "type": "function"
    },
    {
      "inputs": [
        {
          "internalType": "address",
          "name": "_addr",
          "type": "address"
        }
      ],
      "name": "getJailedTimeLeft",
      "outputs": [
        {
          "internalType": "bool",
          "name": "isJailed_",
          "type": "bool"
        },
        {
          "internalType": "uint256",
          "name": "blockLeft_",
          "type": "uint256"
        },
        {
          "internalType": "uint256",
          "name": "epochLeft_",
          "type": "uint256"
        }
      ],
      "stateMutability": "view",
      "type": "function"
    },
    {
      "inputs": [
        {
          "internalType": "address",
          "name": "_addr",
          "type": "address"
        },
        {
          "internalType": "uint256",
          "name": "_blockNum",
          "type": "uint256"
        }
      ],
      "name": "getJailedTimeLeftAtBlock",
      "outputs": [
        {
          "internalType": "bool",
          "name": "isJailed_",
          "type": "bool"
        },
        {
          "internalType": "uint256",
          "name": "blockLeft_",
          "type": "uint256"
        },
        {
          "internalType": "uint256",
          "name": "epochLeft_",
          "type": "uint256"
        }
      ],
      "stateMutability": "view",
      "type": "function"
    },
    {
      "inputs": [],
      "name": "getLastUpdatedBlock",
      "outputs": [
        {
          "internalType": "uint256",
          "name": "",
          "type": "uint256"
        }
      ],
      "stateMutability": "view",
      "type": "function"
    },
    {
      "inputs": [],
      "name": "getValidatorCandidates",
      "outputs": [
        {
          "internalType": "address[]",
          "name": "",
          "type": "address[]"
        }
      ],
      "stateMutability": "view",
      "type": "function"
    },
    {
      "inputs": [],
      "name": "getValidators",
      "outputs": [
        {
          "internalType": "address[]",
          "name": "_validatorList",
          "type": "address[]"
        }
      ],
      "stateMutability": "view",
      "type": "function"
    },
    {
      "inputs": [
        {
          "internalType": "address",
          "name": "__slashIndicatorContract",
          "type": "address"
        },
        {
          "internalType": "address",
          "name": "__stakingContract",
          "type": "address"
        },
        {
          "internalType": "address",
          "name": "__stakingVestingContract",
          "type": "address"
        },
        {
          "internalType": "address",
          "name": "__maintenanceContract",
          "type": "address"
        },
        {
          "internalType": "address",
          "name": "__roninTrustedOrganizationContract",
          "type": "address"
        },
        {
          "internalType": "address",
          "name": "",
          "type": "address"
        },
        {
          "internalType": "uint256",
          "name": "__maxValidatorNumber",
          "type": "uint256"
        },
        {
          "internalType": "uint256",
          "name": "__maxValidatorCandidate",
          "type": "uint256"
        },
        {
          "internalType": "uint256",
          "name": "__maxPrioritizedValidatorNumber",
          "type": "uint256"
        },
        {
          "internalType": "uint256",
          "name": "__minEffectiveDaysOnwards",
          "type": "uint256"
        },
        {
          "internalType": "uint256",
          "name": "__numberOfBlocksInEpoch",
          "type": "uint256"
        },
        {
          "internalType": "uint256[2]",
          "name": "__emergencyExitConfigs",
          "type": "uint256[2]"
        }
      ],
      "name": "initialize",
      "outputs": [],
      "stateMutability": "nonpayable",
      "type": "function"
    },
    {
      "inputs": [],
      "name": "initializeV2",
      "outputs": [],
      "stateMutability": "nonpayable",
      "type": "function"
    },
    {
      "inputs": [
        {
          "internalType": "address",
          "name": "_addr",
          "type": "address"
        }
      ],
      "name": "isBlockProducer",
      "outputs": [
        {
          "internalType": "bool",
          "name": "",
          "type": "bool"
        }
      ],
      "stateMutability": "view",
      "type": "function"
    },
    {
      "inputs": [
        {
          "internalType": "address",
          "name": "_candidate",
          "type": "address"
        },
        {
          "internalType": "address",
          "name": "_admin",
          "type": "address"
        }
      ],
      "name": "isCandidateAdmin",
      "outputs": [
        {
          "internalType": "bool",
          "name": "",
          "type": "bool"
        }
      ],
      "stateMutability": "view",
      "type": "function"
    },
    {
      "inputs": [],
      "name": "isPeriodEnding",
      "outputs": [
        {
          "internalType": "bool",
          "name": "",
          "type": "bool"
        }
      ],
      "stateMutability": "view",
      "type": "function"
    },
    {
      "inputs": [
        {
          "internalType": "address",
          "name": "_addr",
          "type": "address"
        }
      ],
      "name": "isValidatorCandidate",
      "outputs": [
        {
          "internalType": "bool",
          "name": "",
          "type": "bool"
        }
      ],
      "stateMutability": "view",
      "type": "function"
    },
    {
      "inputs": [],
      "name": "maxPrioritizedValidatorNumber",
      "outputs": [
        {
          "internalType": "uint256",
          "name": "_maximumPrioritizedValidatorNumber",
          "type": "uint256"
        }
      ],
      "stateMutability": "view",
      "type": "function"
    },
    {
      "inputs": [],
      "name": "maxValidatorCandidate",
      "outputs": [
        {
          "internalType": "uint256",
          "name": "",
          "type": "uint256"
        }
      ],
      "stateMutability": "view",
      "type": "function"
    },
    {
      "inputs": [],
      "name": "maxValidatorNumber",
      "outputs": [
        {
          "internalType": "uint256",
          "name": "_maximumValidatorNumber",
          "type": "uint256"
        }
      ],
      "stateMutability": "view",
      "type": "function"
    },
    {
      "inputs": [],
      "name": "minEffectiveDaysOnwards",
      "outputs": [
        {
          "internalType": "uint256",
          "name": "",
          "type": "uint256"
        }
      ],
      "stateMutability": "view",
      "type": "function"
    },
    {
      "inputs": [],
      "name": "numberOfBlocksInEpoch",
      "outputs": [
        {
          "internalType": "uint256",
          "name": "_numberOfBlocks",
          "type": "uint256"
        }
      ],
      "stateMutability": "view",
      "type": "function"
    },
    {
      "inputs": [],
      "name": "precompilePickValidatorSetAddress",
      "outputs": [
        {
          "internalType": "address",
          "name": "",
          "type": "address"
        }
      ],
      "stateMutability": "view",
      "type": "function"
    },
    {
      "inputs": [],
      "name": "precompileSortValidatorsAddress",
      "outputs": [
        {
          "internalType": "address",
          "name": "",
          "type": "address"
        }
      ],
      "stateMutability": "view",
      "type": "function"
    },
    {
      "inputs": [
        {
          "internalType": "enum ContractType",
          "name": "contractType",
          "type": "uint8"
        },
        {
          "internalType": "address",
          "name": "addr",
          "type": "address"
        }
      ],
      "name": "setContract",
      "outputs": [],
      "stateMutability": "nonpayable",
      "type": "function"
    },
    {
      "inputs": [
        {
          "internalType": "uint256",
          "name": "_emergencyExitLockedAmount",
          "type": "uint256"
        }
      ],
      "name": "setEmergencyExitLockedAmount",
      "outputs": [],
      "stateMutability": "nonpayable",
      "type": "function"
    },
    {
      "inputs": [
        {
          "internalType": "uint256",
          "name": "_emergencyExpiryDuration",
          "type": "uint256"
        }
      ],
      "name": "setEmergencyExpiryDuration",
      "outputs": [],
      "stateMutability": "nonpayable",
      "type": "function"
    },
    {
      "inputs": [
        {
          "internalType": "uint256",
          "name": "_number",
          "type": "uint256"
        }
      ],
      "name": "setMaxPrioritizedValidatorNumber",
      "outputs": [],
      "stateMutability": "nonpayable",
      "type": "function"
    },
    {
      "inputs": [
        {
          "internalType": "uint256",
          "name": "_number",
          "type": "uint256"
        }
      ],
      "name": "setMaxValidatorCandidate",
      "outputs": [],
      "stateMutability": "nonpayable",
      "type": "function"
    },
    {
      "inputs": [
        {
          "internalType": "uint256",
          "name": "_max",
          "type": "uint256"
        }
      ],
      "name": "setMaxValidatorNumber",
      "outputs": [],
      "stateMutability": "nonpayable",
      "type": "function"
    },
    {
      "inputs": [
        {
          "internalType": "uint256",
          "name": "_numOfDays",
          "type": "uint256"
        }
      ],
      "name": "setMinEffectiveDaysOnwards",
      "outputs": [],
      "stateMutability": "nonpayable",
      "type": "function"
    },
    {
      "inputs": [],
      "name": "submitBlockReward",
      "outputs": [],
      "stateMutability": "payable",
      "type": "function"
    },
    {
      "inputs": [],
      "name": "totalBlockProducers",
      "outputs": [
        {
          "internalType": "uint256",
          "name": "_total",
          "type": "uint256"
        }
      ],
      "stateMutability": "view",
      "type": "function"
    },
    {
      "inputs": [],
      "name": "totalDeprecatedReward",
      "outputs": [
        {
          "internalType": "uint256",
          "name": "",
          "type": "uint256"
        }
      ],
      "stateMutability": "view",
      "type": "function"
    },
    {
      "inputs": [
        {
          "internalType": "uint256",
          "name": "_epoch",
          "type": "uint256"
        }
      ],
      "name": "tryGetPeriodOfEpoch",
      "outputs": [
        {
          "internalType": "bool",
          "name": "_filled",
          "type": "bool"
        },
        {
          "internalType": "uint256",
          "name": "_periodNumber",
          "type": "uint256"
        }
      ],
      "stateMutability": "view",
      "type": "function"
    },
    {
      "inputs": [],
      "name": "validatorCount",
      "outputs": [
        {
          "internalType": "uint256",
          "name": "",
          "type": "uint256"
        }
      ],
      "stateMutability": "view",
      "type": "function"
    },
    {
      "inputs": [],
      "name": "wrapUpEpoch",
      "outputs": [],
      "stateMutability": "payable",
      "type": "function"
    },
    {
      "stateMutability": "payable",
      "type": "receive"
    }
  ],
  "transactionHash": "0xe0fb7133540d74c3e1a4e706afcf21474236e1727d5d6c50b5d0caeb297f21a9",
  "args": [],
  "numDeployments": 11,
  "solcInputHash": "d85d6f97c6f4b4f4d9c883d9b13849c8",
  "bytecode": "0x60806040523480156200001157600080fd5b506200001c62000022565b620000e4565b600054610100900460ff16156200008f5760405162461bcd60e51b815260206004820152602760248201527f496e697469616c697a61626c653a20636f6e747261637420697320696e697469604482015266616c697a696e6760c81b606482015260840160405180910390fd5b60005460ff9081161015620000e2576000805460ff191660ff9081179091556040519081527f7f26b83ff96e1f2b6a682f133852f6798a09c465da95921460cefb38474024989060200160405180910390a15b565b61498780620000f46000396000f3fe60806040526004361061028a5760003560e01c806303827884146102a157806304d971ab146102ca57806306040618146102fa5780630f43a6771461030f57806311662dc2146103255780631196ab661461036257806315b5ebde14610382578063217f35c2146103a257806323c65eb0146103b757806328bde1e1146103d75780632924de7114610404578063297a8fca146104245780632d784a98146104395780632f78204c1461046657806331a8aef514610486578063367ec12b146104a65780633b3159b6146104c6578063468c96ae146104e357806349096d261461051a5780634d8df0631461053c5780634de2b7351461055c5780634ee4d72b146105895780634f2a693f1461059e57806352091f17146105be5780635248184a146105c65780635cd8a76b146105e8578063605239a1146105fd57806365244ece146106125780636558954f146106325780636611f84314610649578063690b7536146106695780636aa1c2ef1461067e57806372e46810146106935780637593ff711461069b578063823a7b9c146106bb578063865e6fd3146106db578063873a5a70146106fb57806387c891bd1461071b5780638d559c381461073057806396585fc2146107445780639e94b9ec14610764578063a0c3f2d214610779578063a3d545f514610799578063a66c0f77146107b9578063a7c2f119146107ce578063b7ab4db5146107ee578063ba77b06c14610803578063c3c8b5d614610818578063c94aaa0214610838578063cba44de914610858578063d09f1ab41461086d578063dd716ad314610882578063de981f1b146108a2578063e5125a1d146108c2578063edb194bb146108e2578063eeb629a814610944578063f883afaf1461095957610299565b3661029957610297610979565b005b610297610979565b3480156102ad57600080fd5b506102b76104b081565b6040519081526020015b60405180910390f35b3480156102d657600080fd5b506102ea6102e5366004613e74565b6109e2565b60405190151581526020016102c1565b34801561030657600080fd5b506102b7610a09565b34801561031b57600080fd5b506102b760aa5481565b34801561033157600080fd5b50610345610340366004613ead565b610a19565b6040805193151584526020840192909252908201526060016102c1565b34801561036e57600080fd5b5061029761037d366004613ed9565b610a9c565b34801561038e57600080fd5b5061029761039d366004613ead565b610ab0565b3480156103ae57600080fd5b506102ea610bb1565b3480156103c357600080fd5b506102ea6103d2366004613ead565b610bc6565b3480156103e357600080fd5b506103f76103f2366004613ef2565b610bd9565b6040516102c19190613f63565b34801561041057600080fd5b506102ea61041f366004613ef2565b610c7c565b34801561043057600080fd5b506004546102b7565b34801561044557600080fd5b50610459610454366004613ef2565b610c88565b6040516102c19190613f71565b34801561047257600080fd5b50610297610481366004613f96565b610cea565b34801561049257600080fd5b506102ea6104a1366004613ead565b610f05565b3480156104b257600080fd5b506102976104c1366004613ff1565b610f11565b3480156104d257600080fd5b5060685b6040516102c191906140b7565b3480156104ef57600080fd5b506105036104fe366004613ed9565b611044565b6040805192151583526020830191909152016102c1565b34801561052657600080fd5b5061052f611082565b6040516102c1919061410f565b34801561054857600080fd5b50610297610557366004613ed9565b611161565b34801561056857600080fd5b5061057c610577366004614122565b611172565b6040516102c19190614196565b34801561059557600080fd5b5060e4546102b7565b3480156105aa57600080fd5b506102976105b9366004613ed9565b611223565b610297611234565b3480156105d257600080fd5b506105db6115c5565b6040516102c191906141dc565b3480156105f457600080fd5b506102976116ea565b34801561060957600080fd5b506072546102b7565b34801561061e57600080fd5b506102ea61062d366004613ef2565b611823565b34801561063e57600080fd5b506102b76201518081565b34801561065557600080fd5b50610297610664366004613ed9565b61185d565b34801561067557600080fd5b5060e5546102b7565b34801561068a57600080fd5b506001546102b7565b61029761186e565b3480156106a757600080fd5b506102ea6106b6366004613ed9565b611ab2565b3480156106c757600080fd5b506102976106d6366004613ed9565b611ad6565b3480156106e757600080fd5b506102976106f636600461422d565b611ae7565b34801561070757600080fd5b506102ea610716366004613ef2565b611b06565b34801561072757600080fd5b506002546102b7565b34801561073c57600080fd5b5060666104d6565b34801561075057600080fd5b5061034561075f366004613ef2565b611b1d565b34801561077057600080fd5b506102b7611b39565b34801561078557600080fd5b506102ea610794366004613ef2565b611b7c565b3480156107a557600080fd5b506102b76107b4366004613ed9565b611b99565b3480156107c557600080fd5b5060e6546102b7565b3480156107da57600080fd5b506102976107e9366004613ead565b611ba4565b3480156107fa57600080fd5b5061052f611de7565b34801561080f57600080fd5b5061052f611e8d565b34801561082457600080fd5b50610297610833366004613e74565b611eef565b34801561084457600080fd5b50610297610853366004613ed9565b612146565b34801561086457600080fd5b506076546102b7565b34801561087957600080fd5b5060a9546102b7565b34801561088e57600080fd5b5061029761089d366004613ead565b612157565b3480156108ae57600080fd5b506104d66108bd366004614249565b6121dd565b3480156108ce57600080fd5b506102976108dd366004614264565b61223a565b3480156108ee57600080fd5b506104596108fd366004613ef2565b6040805180820190915260008082526020820152506001600160a01b0316600090815260776020908152604091829020825180840190935280548352600101549082015290565b34801561095057600080fd5b5060ad546102b7565b34801561096557600080fd5b50610297610974366004614299565b612348565b61098360076121dd565b6001600160a01b0316336001600160a01b0316141580156109bf57506109a960096121dd565b6001600160a01b0316336001600160a01b031614155b156109e05760405160016234baed60e01b0319815260040160405180910390fd5b565b6001600160a01b038281166000908152607560205260409020548116908216145b92915050565b6000610a1460035490565b905090565b6001600160a01b0382166000908152603a60205260408120548190819084811015610a4f57600080600093509350935050610a95565b60019350610a5d8582614300565b610a68906001614313565b9250610a7385611b99565b610a7c82611b99565b610a869190614300565b610a91906001614313565b9150505b9250925092565b610aa4612548565b610aad81612591565b50565b6006610abb816125e8565b6001600160a01b0383166000908152603c60205260409020544311610afe57826040516353e0424d60e01b8152600401610af591906140b7565b60405180910390fd5b6001600160a01b038316600081815260386020908152604080832086845282528083208054600160ff199182168117909255948452603783528184208785529092529091208054909216909155610b559043614300565b6001600160a01b0384166000818152603a6020526040908190209290925590517f6bb2436cb6b6eb65d5a52fac2ae0373a77ade6661e523ef3004ee2d5524e6c6e90610ba49085815260200190565b60405180910390a2505050565b6000610a14610bbf42612634565b6003541090565b6000610bd28383612643565b9392505050565b610be1613e23565b610bea82611b7c565b610c075760405163a64b34ad60e01b815260040160405180910390fd5b506001600160a01b03908116600090815260756020908152604091829020825160e081018452815485168152600182015485169281019290925260028101548416928201929092526003820154909216606083015260048101546080830152600581015460a08301526006015460c082015290565b6000610a038243610bc6565b604080518082018252600080825260209182018190526001600160a01b038416815260e882528281208351808501909452805484526001015491830182905203610ce5576040516370fdd4f160e11b815260040160405180910390fd5b919050565b6006610cf5816125e8565b6000610cff610a09565b6001600160a01b03871660008181526037602090815260408083208584528252808320805460ff1916600117905592825260e181528282205460e090915291902054919250610d4d91614313565b60e46000828254610d5e9190614313565b90915550506001600160a01b038616600090815260e06020908152604080832083905560e18252808320839055603a909152902054610d9e908690612663565b6001600160a01b0387166000908152603a60205260409020558315610e54576000610dc960096121dd565b6001600160a01b0316632715805e88876040518363ffffffff1660e01b8152600401610df6929190614326565b6020604051808303816000875af1158015610e15573d6000803e3d6000fd5b505050506040513d601f19601f82011682018060405250810190610e39919061433f565b90508060e46000828254610e4d9190614313565b9091555050505b8215610e98576001600160a01b0386166000908152603c6020526040902054610e7e908690612663565b6001600160a01b0387166000908152603c60205260409020555b6001600160a01b0386166000818152603a6020908152604080832054815190815291820188905260019082015260608101919091528291907f54ce99c5ce1fc9f61656d4a0fb2697974d0c973ac32eecaefe06fcf18b8ef68a9060800160405180910390a3505050505050565b6000610bd2838361267a565b600054610100900460ff1615808015610f315750600054600160ff909116105b80610f4b5750303b158015610f4b575060005460ff166001145b610f675760405162461bcd60e51b8152600401610af590614358565b6000805460ff191660011790558015610f8a576000805461ff0019166101001790555b610f9560068e6126a5565b610fa060098d6126a5565b610fab60078c6126a5565b610fb660058b6126a5565b610fc1600a8a6126a5565b610fca87612730565b610fd386612765565b610fdc8561279a565b610fe584612591565b610fef82356127f2565b610ffc6020830135612827565b60018390558015611035576000805461ff0019169055604051600181526000805160206149328339815191529060200160405180910390a15b50505050505050505050505050565b60008061105043611b99565b8311158061106b575060008381526005602052604090205415155b600093845260056020526040909320549293915050565b606060aa546001600160401b0381111561109e5761109e6143bc565b6040519080825280602002602001820160405280156110c7578160200160208202803683370190505b5090506000805b825181101561115b57600081815260ab60205260409020546110f8906001600160a01b0316611823565b1561115357600081815260ab60205260409020546001600160a01b03168383611120816143d2565b945081518110611132576111326143a6565b60200260200101906001600160a01b031690816001600160a01b0316815250505b6001016110ce565b50815290565b611169612548565b610aad81612827565b6060816001600160401b0381111561118c5761118c6143bc565b6040519080825280602002602001820160405280156111b5578160200160208202803683370190505b50905060005b8281101561121c576111f28484838181106111d8576111d86143a6565b90506020020160208101906111ed9190613ef2565b61285c565b828281518110611204576112046143a6565b911515602092830291909101909101526001016111bb565b5092915050565b61122b612548565b610aad81612765565b61123c612868565b600061124733611823565b801561125957506112573361285c565b155b801561127357506112713361126c610a09565b61267a565b155b9050600061128160076121dd565b604051630634f5b960e01b81528315156004820152600060248201526001600160a01b039190911690630634f5b9906044016060604051808303816000875af11580156112d2573d6000803e3d6000fd5b505050506040513d601f19601f820116820180604052508101906112f691906143eb565b5091505081611345573460e460008282546113119190614313565b9091555050604051339060008051602061491283398151915290611339903490600190614438565b60405180910390a25050565b336001600160a01b03167f0ede5c3be8625943fa64003cd4b91230089411249f3059bac6500873543ca9b1348360405161138092919061445c565b60405180910390a26000611392610a09565b905060006113a08334614313565b3360009081526038602090815260408083208684529091528120549192509060ff16156114985760006113d360066121dd565b6001600160a01b031663c6391fa26040518163ffffffff1660e01b8152600401608060405180830381865afa158015611410573d6000803e3d6000fd5b505050506040513d601f19601f82011682018060405250810190611434919061446a565b9350505050612710818461144891906144a0565b61145291906144cd565b91508160e460008282546114669190614313565b909155505060405133906000805160206149128339815191529061148e908590600290614438565b60405180910390a2505b6114a28183614300565b91506000806114b160096121dd565b6001600160a01b0316634530d2026040518163ffffffff1660e01b81526004016040805180830381865afa1580156114ed573d6000803e3d6000fd5b505050506040513d601f19601f8201168201806040525081019061151191906144e1565b336000908152607560205260408120600401549294509092509061153f906115399084612888565b84612663565b9050600061271061155087846144a0565b61155a91906144cd565b33600090815260e0602052604081208054929350839290919061157e908490614313565b90915550600090506115908288614300565b33600090815260e160205260408120805492935083929091906115b4908490614313565b909155505050505050505050505050565b6073546060906001600160401b038111156115e2576115e26143bc565b60405190808252806020026020018201604052801561161b57816020015b611608613e23565b8152602001906001900390816116005790505b50905060005b81518110156116e6576075600060738381548110611641576116416143a6565b60009182526020808320909101546001600160a01b039081168452838201949094526040928301909120825160e081018452815485168152600182015485169281019290925260028101548416928201929092526003820154909216606083015260048101546080830152600581015460a08301526006015460c082015282518390839081106116d3576116d36143a6565b6020908102919091010152600101611621565b5090565b600054600290610100900460ff1615801561170c575060005460ff8083169116105b6117285760405162461bcd60e51b8152600401610af590614358565b6000805461ffff191660ff831617610100179055607154611754906009906001600160a01b03166126a5565b606f5461176c906005906001600160a01b03166126a5565b607054611784906006906001600160a01b03166126a5565b606d5461179c906007906001600160a01b03166126a5565b60a8546117b490600a906001600160a01b03166126a5565b607180546001600160a01b0319908116909155606f8054821690556070805482169055606d805482169055606e80548216905560a8805490911690556000805461ff001916905560405160ff82168152600080516020614932833981519152906020015b60405180910390a150565b6001600160a01b038116600090815260ac6020526040812054610a039060019060ff16600381111561185757611857614422565b90612897565b611865612548565b610aad816127f2565b611876612868565b61187f43611ab2565b61189c57604051636c74eecf60e01b815260040160405180910390fd5b6118a543611b99565b6118b0600254611b99565b106118ce57604051632458f64160e01b815260040160405180910390fd5b4360025560006118dd42612634565b905060006118ec826003541090565b905060006118f8611de7565b90506060600061190743611b99565b90506000611916826001614313565b90506000611922610a09565b90508515611a4c5760008061193783886128ca565b9150915061194783888484612a73565b61194f612b7d565b611957612cd1565b600061196360066121dd565b604051631da0214360e21b81529091506001600160a01b03821690637680850c90611994908b908890600401614505565b600060405180830381600087803b1580156119ae57600080fd5b505af11580156119c2573d6000803e3d6000fd5b505050506119cf8a612dfa565b8051919950975015611a3a576040516303e1697b60e11b81526001600160a01b038216906307c2d2f690611a07908a9060040161410f565b600060405180830381600087803b158015611a2157600080fd5b505af1158015611a35573d6000803e3d6000fd5b505050505b611a45436001614313565b6004555050505b611a57878387612f8b565b82817f0195462033384fec211477c56217da64a58bd405e0bed331ba4ded67e4ae4ce788604051611a8c911515815260200190565b60405180910390a350600090815260056020526040902085905550505060039190915550565b600060018054611ac29190614300565b600154611acf9084614527565b1492915050565b611ade612548565b610aad81612730565b611aef612548565b611af88161320c565b611b0282826126a5565b5050565b600080611b11610a09565b9050610bd2838261267a565b6000806000611b2c8443610a19565b9250925092509193909250565b6000805b60aa548110156116e657600081815260ab6020526040902054611b68906001600160a01b0316611823565b15611b74576001909101905b600101611b3d565b6001600160a01b0316600090815260746020526040902054151590565b6000610a0382613239565b6009611baf816125e8565b6001600160a01b038316600090815260e860205260409020600181015415611bea5760405163057aab3160e31b815260040160405180910390fd5b6000611bf68442614313565b6001600160a01b0386166000908152607560205260409020909150611c1b9082613254565b6001600160a01b0385166000908152603b602052604080822083905560e554905163138ac02f60e11b81523391632715805e91611c5c918a91600401614326565b6020604051808303816000875af1158015611c7b573d6000803e3d6000fd5b505050506040513d601f19601f82011682018060405250810190611c9f919061433f565b90508015611d9c57600060e65442611cb79190614313565b60e78054600180820183556000929092527f6cb0db1d7354dfb4a1464318006df0643cafe2002a86a29ff8560f900fef28a10180546001600160a01b0319166001600160a01b038b1617905583865585018190559050611d156132d0565b6001600160a01b0388811660008181526075602052604090819020600201549051630a2fae5760e41b81526004810192909252821660248201524260448201526064810184905291169063a2fae57090608401600060405180830381600087803b158015611d8257600080fd5b505af1158015611d96573d6000803e3d6000fd5b50505050505b856001600160a01b03167f77a1a819870c0f4d04c3ca4cc2881a0393136abc28bd651af50aedade94a27c482604051611dd791815260200190565b60405180910390a2505050505050565b606060aa546001600160401b03811115611e0357611e036143bc565b604051908082528060200260200182016040528015611e2c578160200160208202803683370190505b50905060005b81518110156116e657600081815260ab602052604090205482516001600160a01b03909116908190849084908110611e6c57611e6c6143a6565b6001600160a01b039092166020928302919091019091015250600101611e32565b60606073805480602002602001604051908101604052809291908181526020018280548015611ee557602002820191906000526020600020905b81546001600160a01b03168152600190910190602001808311611ec7575b5050505050905090565b611ef7612548565b6001600160a01b038216600090815260e8602052604090206001015415611b025760e7548060005b82811015611f6e57846001600160a01b031660e78281548110611f4457611f446143a6565b6000918252602090912001546001600160a01b031603611f6657809150611f6e565b600101611f1f565b50818103611f7c5750505050565b6001600160a01b038416600090815260e86020526040902054801561213f576001600160a01b038516600090815260e86020526040812081815560019081019190915583111561203e5760e7611fd3600185614300565b81548110611fe357611fe36143a6565b60009182526020909120015460e780546001600160a01b03909216918490811061200f5761200f6143a6565b9060005260206000200160006101000a8154816001600160a01b0302191690836001600160a01b031602179055505b60e780548061204f5761204f61453b565b60008281526020808220830160001990810180546001600160a01b03191690559092019092556001600160a01b038716825260e9905260409020805460ff191660011790556120a184826104b06132fe565b156120fa57836001600160a01b0316856001600160a01b03167f7229136a18186c71a86246c012af3bb1df6460ef163934bbdccd6368abdd41e4836040516120eb91815260200190565b60405180910390a35050505050565b836001600160a01b0316856001600160a01b03167f3747d14eb72ad3e35cba9c3e00dab3b8d15b40cac6bdbd08402356e4f69f30a183476040516120eb92919061445c565b5050505050565b61214e612548565b610aad8161279a565b6009612162816125e8565b61216b8361335e565b156121895760405163030081e760e01b815260040160405180910390fd5b6001600160a01b03831660009081526075602052604090206005810154156121c45760405163fab9167360e01b815260040160405180910390fd5b6121d7816121d28542614313565b613254565b50505050565b60006121e76133de565b600083600d8111156121fb576121fb614422565b60ff1681526020810191909152604001600020546001600160a01b0316905080610ce5578160405163409140df60e11b8152600401610af59190614565565b6009612245816125e8565b6001600160a01b0384166000908152607760205260409020541561227c57604051632f32dcdd60e11b815260040160405180910390fd5b61271082111561229f57604051631b8454a360e21b815260040160405180910390fd5b6076548310156122c25760405163fa0ae69360e01b815260040160405180910390fd5b6001600160a01b03841660009081526077602052604081209062015180856122ea82426144cd565b6122f49190614313565b6122fe91906144a0565b808355600183018590556040519091506001600160a01b038716907f6ebafd1bb6316b2f63198a81b05cff2149c6eaae1784466a6d062b4391900f2190611dd7908490889061445c565b6009612353816125e8565b607354607254811061237857604051638616841b60e01b815260040160405180910390fd5b61238185611b7c565b1561239f57604051638ad9cdf960e01b815260040160405180910390fd5b6127108311156123c257604051631b8454a360e21b815260040160405180910390fd5b60005b60735481101561247757600060756000607384815481106123e8576123e86143a6565b60009182526020808320909101546001600160a01b0390811684529083019390935260409091019020805490925081169089160361243b578760405163fc3d8c7560e01b8152600401610af591906140b7565b60028101546001600160a01b039081169087160361246e5785604051632d33a7e760e11b8152600401610af591906140b7565b506001016123c5565b506001600160a01b038581166000818152607460209081526040808320861990556073805460018082019092557ff79bde9ddd17963ebce6f7d021d60de7c2bd0db944d23c900c0c0e775f5300520180546001600160a01b031990811687179091556075909352818420805484168d881690811782559181018054851687179055600281018054909416968b1696871790935560048301899055905191949093909290917f1ca451a9920472b99355a9cf74185bf017604a7849c113f020888ecec9db93669190a450505050505050565b6125506132d0565b6001600160a01b0316336001600160a01b0316146109e0576000356001600160e01b0319166001604051620f948f60ea1b8152600401610af5929190614573565b60018110156125b3576040516317b8970f60e01b815260040160405180910390fd5b60768190556040518181527f266d432ffe659e3565750d26ec685b822a58041eee724b67a5afec3168a2526790602001611818565b6125f1816121dd565b6001600160a01b0316336001600160a01b031614610aad576000356001600160e01b03191681336040516320e0f98d60e21b8152600401610af593929190614594565b6000610a0362015180836144cd565b6001600160a01b03919091166000908152603a6020526040902054101590565b6000818310156126735781610bd2565b5090919050565b6001600160a01b03919091166000908152603760209081526040808320938352929052205460ff1690565b806126ae6133de565b600084600d8111156126c2576126c2614422565b60ff168152602081019190915260400160002080546001600160a01b0319166001600160a01b03928316179055811682600d81111561270357612703614422565b6040517f865d1c228a8ea13709cfe61f346f7ff67f1bbd4a18ff31ad3e7147350d317c5990600090a35050565b60a98190556040518181527fb5464c05fd0e0f000c535850116cda2742ee1f7b34384cb920ad7b8e802138b590602001611818565b60728190556040518181527f82d5dc32d1b741512ad09c32404d7e7921e8934c6222343d95f55f7a2b9b2ab490602001611818565b60a9548111156127bd576040516355408ce960e11b815260040160405180910390fd5b60ad8190556040518181527fa9588dc77416849bd922605ce4fc806712281ad8a8f32d4238d6c8cca548e15e90602001611818565b60e58190556040518181527f17a6c3eb965cdd7439982da25abf85be88f0f772ca33198f548e2f99fee0289a90602001611818565b60e68190556040518181527f0a50c66137118f386332efb949231ddd3946100dbf880003daca37ddd9e0662b90602001611818565b6000610a038243612643565b3341146109e0576040516309f358fd60e01b815260040160405180910390fd5b60008183106126735781610bd2565b60008160038111156128ab576128ab614422565b8360038111156128bd576128bd614422565b1660ff1615159392505050565b6000606060008084516001600160401b038111156128ea576128ea6143bc565b604051908082528060200260200182016040528015612913578160200160208202803683370190505b50925060005b8551811015612a6957858181518110612934576129346143a6565b6020908102919091018101516001600160a01b038082166000908152607590935260409092206002015490945016915061296d8361285c565b158015612981575061297f838861267a565b155b156129f5576001600160a01b038316600090815260e160205260409020546129a99086614313565b6001600160a01b038416600090815260e160205260409020548551919650908590839081106129da576129da6143a6565b6020026020010181815250506129f08383613402565b612a3b565b6001600160a01b038316600090815260e1602090815260408083205460e090925290912054612a249190614313565b60e46000828254612a359190614313565b90915550505b6001600160a01b038316600090815260e16020908152604080832083905560e0909152812055600101612919565b5050509250929050565b6000612a7f60096121dd565b9050821561213f57612a9181846134ca565b15612b395760405163566bce2360e11b81526001600160a01b0382169063acd79c4690612ac690879086908a906004016145fb565b600060405180830381600087803b158015612ae057600080fd5b505af1158015612af4573d6000803e3d6000fd5b505050507f9e242ca1ef9dde96eb71ef8d19a3f0f6a619b63e4c0d3998771387103656d087838584604051612b2b93929190614631565b60405180910390a1506121d7565b7fe5668ec1bb2b6bb144a50f810e388da4b1d7d3fc05fcb9d588a1aac59d248f8983858447604051612b6e9493929190614666565b60405180910390a15050505050565b60e754600080805b838310156121d75760e78381548110612ba057612ba06143a6565b60009182526020808320909101546001600160a01b031680835260e89091526040909120600181015491935091504210612cc657805460e48054600090612be8908490614313565b90915550506001600160a01b038216600090815260e860205260408120818155600101819055612c17856146a3565b9450841115612c8e5760e78481548110612c3357612c336143a6565b60009182526020909120015460e780546001600160a01b039092169185908110612c5f57612c5f6143a6565b9060005260206000200160006101000a8154816001600160a01b0302191690836001600160a01b031602179055505b60e7805480612c9f57612c9f61453b565b600082815260209020810160001990810180546001600160a01b0319169055019055612b85565b600190920191612b85565b60e4548015610aad576000612ce660076121dd565b600060e481905560408051600481526024810182526020810180516001600160e01b03166359f778df60e01b179052905192935090916001600160a01b038416918591612d3391906146ba565b60006040518083038185875af1925050503d8060008114612d70576040519150601f19603f3d011682016040523d82523d6000602084013e612d75565b606091505b505090508015612dba57816001600160a01b03167fc447c884574da5878be39c403db2245c22530c99b579ea7bcbb3720e1d110dc884604051610ba491815260200190565b816001600160a01b03167fa0561a59abed308fcd0556834574739d778cc6229018039a24ddda0f86aa0b738447604051610ba492919061445c565b505050565b606080612e0683613526565b90506000612e1460096121dd565b6001600160a01b03166391f8723f60736040518263ffffffff1660e01b8152600401612e4091906146e9565b600060405180830381865afa158015612e5d573d6000803e3d6000fd5b505050506040513d6000823e601f3d908101601f19168201604052612e859190810190614780565b90506000612e93600a6121dd565b6001600160a01b031663520fce6260736040518263ffffffff1660e01b8152600401612ebf91906146e9565b600060405180830381865afa158015612edc573d6000803e3d6000fd5b505050506040513d6000823e601f3d908101601f19168201604052612f049190810190614780565b90506000612f736073805480602002602001604051908101604052809291908181526020018280548015612f6157602002820191906000526020600020905b81546001600160a01b03168152600190910190602001808311612f43575b5050505050848460a95460ad54613a10565b9095509050612f83858288613ada565b505050915091565b6000612f9760056121dd565b6001600160a01b031663fdadda8183612fb1436001614313565b6040518363ffffffff1660e01b8152600401612fce929190614505565b600060405180830381865afa158015612feb573d6000803e3d6000fd5b505050506040513d6000823e601f3d908101601f191682016040526130139190810190614815565b905060005b82518110156131c5576000838281518110613035576130356143a6565b6020908102919091018101516001600160a01b0381166000908152603b90925260408220549092504211159061306a83611823565b905060006130828461307d436001614313565b612643565b806130a3575085858151811061309a5761309a6143a6565b60200260200101515b806130ab5750825b159050811580156130b95750805b15613134576001600160a01b038416600090815260ac60205260409020546130f89060019060ff1660038111156130f2576130f2614422565b90613c1a565b6001600160a01b038516600090815260ac60205260409020805460ff1916600183600381111561312a5761312a614422565b02179055506131b6565b81801561313f575080155b156131b6576001600160a01b038416600090815260ac602052604090205461317e9060019060ff16600381111561317857613178614422565b90613c55565b6001600160a01b038516600090815260ac60205260409020805460ff191660018360038111156131b0576131b0614422565b02179055505b84600101945050505050613018565b5082847f283b50d76057d5f828df85bc87724c6af604e9b55c363a07c9faa2a2cd688b826131f1611082565b6040516131fe919061410f565b60405180910390a350505050565b806001600160a01b03163b600003610aad5780604051630bfc64a360e21b8152600401610af591906140b7565b60006001548261324991906144cd565b610a03906001614313565b600182015461326b906001600160a01b0316611b7c565b6132885760405163a64b34ad60e01b815260040160405180910390fd5b6005820181905560018201546040518281526001600160a01b03909116907fb9a1e33376bfbda9092f2d1e37662c1b435aab0d3fa8da3acc8f37ee222f99e790602001611339565b7fb53127684a568b3173ae13b9f8a6016e243e63b6e8ee1178d6a717850b5d6103546001600160a01b031690565b6000836001600160a01b0316838390604051600060405180830381858888f193505050503d806000811461334e576040519150601f19603f3d011682016040523d82523d6000602084013e613353565b606091505b509095945050505050565b60008061336b600a6121dd565b6001600160a01b03166341feed1c846040518263ffffffff1660e01b815260040161339691906140b7565b602060405180830381865afa1580156133b3573d6000803e3d6000fd5b505050506040513d601f19601f820116820180604052508101906133d7919061433f565b1192915050565b7fdea3103d22025c269050bea94c0c84688877f12fa22b7e6d2d5d78a9a49aa1cb90565b6001600160a01b038216600090815260e060205260409020548015612df55761342e82826104b06132fe565b1561348557816001600160a01b0316836001600160a01b03167f1ce7a1c4702402cd393500acb1de5bd927727a54e144a587d328f1b679abe4ec8360405161347891815260200190565b60405180910390a3505050565b816001600160a01b0316836001600160a01b03167f6c69e09ee5c5ac33c0cd57787261c5bade070a392ab34a4b5487c6868f723f6e834760405161347892919061445c565b6000826001600160a01b03168260405160006040518083038185875af1925050503d8060008114613517576040519150601f19603f3d011682016040523d82523d6000602084013e61351c565b606091505b5090949350505050565b6060600061353460096121dd565b90506000816001600160a01b031663af2454296040518163ffffffff1660e01b8152600401602060405180830381865afa158015613576573d6000803e3d6000fd5b505050506040513d601f19601f8201168201806040525081019061359a919061433f565b90506000826001600160a01b031663909791dd6040518163ffffffff1660e01b8152600401602060405180830381865afa1580156135dc573d6000803e3d6000fd5b505050506040513d601f19601f82011682018060405250810190613600919061433f565b90506000836001600160a01b03166342ef3c3460736040518263ffffffff1660e01b815260040161363191906146e9565b600060405180830381865afa15801561364e573d6000803e3d6000fd5b505050506040513d6000823e601f3d908101601f191682016040526136769190810190614780565b6073549091506000816001600160401b03811115613696576136966143bc565b6040519080825280602002602001820160405280156136bf578160200160208202803683370190505b50965060008060005b8483101561396157607383815481106136e3576136e36143a6565b60009182526020808320909101546001600160a01b03168083526075909152604090912060068101548851929450909250151590889088908690811061372b5761372b6143a6565b60200260200101511015613787578061378257600061374a8a42614313565b600684018190556040518181529091506001600160a01b038516906000805160206148f28339815191529060200160405180910390a2505b6137c8565b80156137c8578160060160009055826001600160a01b03166000805160206148f283398151915260006040516137bf91815260200190565b60405180910390a25b600082600501546000141580156137e3575042836005015411155b8061380657506001600160a01b038416600090815260e9602052604090205460ff165b905060008360060154600014158015613823575042846006015411155b9050818061382e5750805b156138c0578861383d896146a3565b98508881518110613850576138506143a6565b602002602001015189878151811061386a5761386a6143a6565b602002602001018181525050848d888060010199508151811061388f5761388f6143a6565b60200260200101906001600160a01b031690816001600160a01b0316815250506138b885613c91565b5050506136c8565b6001600160a01b03851660009081526077602052604090205480158015906138e85750428111155b15613951576001600160a01b0386166000818152607760209081526040808320600181018054918590559390935560048901839055518281529192917f86d576c20e383fc2413ef692209cc48ddad5e52f25db5b32f8f7ec5076461ae9910160405180910390a2505b5050600190940193506136c89050565b5050508087528015613a05577f4eaf233b9dc25a5552c1927feee1412eea69add17c2485c831c2e60e234f3c918760405161399c919061410f565b60405180910390a160405163e22d1c9d60e01b81526001600160a01b0387169063e22d1c9d906139d2908a908c90600401614505565b600060405180830381600087803b1580156139ec57600080fd5b505af1158015613a00573d6000803e3d6000fd5b505050505b505050505050919050565b60606000806068905060008888888888604051602401613a349594939291906148a3565b60408051601f19818403018152919052602080820180516001600160e01b0316633bca0a8960e11b17905281518b519293506001929091600091613a77916144a0565b613a82906040614313565b90506020840181888483895afa613a9857600093505b503d613aa357600092505b60208701965082613ac757604051630fc2632160e01b815260040160405180910390fd5b8651955050505050509550959350505050565b815b60aa54811015613b2e57600081815260ab6020818152604080842080546001600160a01b0316855260ac8352908420805460ff19169055928490525280546001600160a01b0319169055600101613adc565b5060005b82811015613b6e57600081815260ab60209081526040808320546001600160a01b0316835260ac9091529020805460ff19169055600101613b32565b5060005b82811015613be2576000848281518110613b8e57613b8e6143a6565b6020908102919091018101516001600160a01b0316600081815260ac83526040808220805460ff1916600317905585825260ab9093529190912080546001600160a01b031916909117905550600101613b72565b508160aa81905550807f3d0eea40644a206ec25781dd5bb3b60eb4fa1264b993c3bddf3c73b14f29ef5e84604051610ba4919061410f565b6000816003811115613c2e57613c2e614422565b836003811115613c4057613c40614422565b1760ff166003811115610bd257610bd2614422565b6000816003811115613c6957613c69614422565b19836003811115613c7c57613c7c614422565b1660ff166003811115610bd257610bd2614422565b6001600160a01b038116600090815260e960209081526040808320805460ff191690556074909152812054610aad91839190819003613cce575050565b6001600160a01b038216600090815260756020908152604080832080546001600160a01b031990811682556001808301805483169055600283018054831690556003830180549092169091556004820185905560058201859055600690910184905560748352818420849055607790925282208281558101829055607380549091613d5891614300565b81548110613d6857613d686143a6565b6000918252602090912001546001600160a01b03908116915083168114613deb576001600160a01b0381166000908152607460205260409020829055607380548291908419908110613dbc57613dbc6143a6565b9060005260206000200160006101000a8154816001600160a01b0302191690836001600160a01b031602179055505b6073805480613dfc57613dfc61453b565b600082815260209020810160001990810180546001600160a01b0319169055019055505050565b6040805160e081018252600080825260208201819052918101829052606081018290526080810182905260a0810182905260c081019190915290565b6001600160a01b0381168114610aad57600080fd5b60008060408385031215613e8757600080fd5b8235613e9281613e5f565b91506020830135613ea281613e5f565b809150509250929050565b60008060408385031215613ec057600080fd5b8235613ecb81613e5f565b946020939093013593505050565b600060208284031215613eeb57600080fd5b5035919050565b600060208284031215613f0457600080fd5b8135610bd281613e5f565b60018060a01b03808251168352806020830151166020840152806040830151166040840152806060830151166060840152506080810151608083015260a081015160a083015260c081015160c08301525050565b60e08101610a038284613f0f565b815181526020808301519082015260408101610a03565b8015158114610aad57600080fd5b60008060008060808587031215613fac57600080fd5b8435613fb781613e5f565b935060208501359250604085013591506060850135613fd581613f88565b939692955090935050565b8060408101831015610a0357600080fd5b6000806000806000806000806000806000806101a08d8f03121561401457600080fd5b8c3561401f81613e5f565b9b5060208d013561402f81613e5f565b9a5060408d013561403f81613e5f565b995060608d013561404f81613e5f565b985060808d013561405f81613e5f565b975060a08d013561406f81613e5f565b965060c08d0135955060e08d013594506101008d013593506101208d013592506101408d013591506140a58e6101608f01613fe0565b90509295989b509295989b509295989b565b6001600160a01b0391909116815260200190565b600081518084526020808501945080840160005b838110156141045781516001600160a01b0316875295820195908201906001016140df565b509495945050505050565b602081526000610bd260208301846140cb565b6000806020838503121561413557600080fd5b82356001600160401b038082111561414c57600080fd5b818501915085601f83011261416057600080fd5b81358181111561416f57600080fd5b8660208260051b850101111561418457600080fd5b60209290920196919550909350505050565b6020808252825182820181905260009190848201906040850190845b818110156141d05783511515835292840192918401916001016141b2565b50909695505050505050565b6020808252825182820181905260009190848201906040850190845b818110156141d05761420b838551613f0f565b9284019260e092909201916001016141f8565b8035600e8110610ce557600080fd5b6000806040838503121561424057600080fd5b613e928361421e565b60006020828403121561425b57600080fd5b610bd28261421e565b60008060006060848603121561427957600080fd5b833561428481613e5f565b95602085013595506040909401359392505050565b600080600080608085870312156142af57600080fd5b84356142ba81613e5f565b935060208501356142ca81613e5f565b925060408501356142da81613e5f565b9396929550929360600135925050565b634e487b7160e01b600052601160045260246000fd5b81810381811115610a0357610a036142ea565b80820180821115610a0357610a036142ea565b6001600160a01b03929092168252602082015260400190565b60006020828403121561435157600080fd5b5051919050565b6020808252602e908201527f496e697469616c697a61626c653a20636f6e747261637420697320616c72656160408201526d191e481a5b9a5d1a585b1a5e995960921b606082015260800190565b634e487b7160e01b600052603260045260246000fd5b634e487b7160e01b600052604160045260246000fd5b6000600182016143e4576143e46142ea565b5060010190565b60008060006060848603121561440057600080fd5b835161440b81613f88565b602085015160409095015190969495509392505050565b634e487b7160e01b600052602160045260246000fd5b828152604081016003831061444f5761444f614422565b8260208301529392505050565b918252602082015260400190565b6000806000806080858703121561448057600080fd5b505082516020840151604085015160609095015191969095509092509050565b8082028115828204841417610a0357610a036142ea565b634e487b7160e01b600052601260045260246000fd5b6000826144dc576144dc6144b7565b500490565b600080604083850312156144f457600080fd5b505080516020909101519092909150565b60408152600061451860408301856140cb565b90508260208301529392505050565b600082614536576145366144b7565b500690565b634e487b7160e01b600052603160045260246000fd5b600e811061456157614561614422565b9052565b60208101610a038284614551565b6001600160e01b031983168152604081016009831061444f5761444f614422565b6001600160e01b031984168152606081016145b26020830185614551565b6001600160a01b03929092166040919091015292915050565b600081518084526020808501945080840160005b83811015614104578151875295820195908201906001016145df565b60608152600061460e60608301866140cb565b828103602084015261462081866145cb565b915050826040830152949350505050565b83815260606020820152600061464a60608301856140cb565b828103604084015261465c81856145cb565b9695505050505050565b84815260806020820152600061467f60808301866140cb565b828103604084015261469181866145cb565b91505082606083015295945050505050565b6000816146b2576146b26142ea565b506000190190565b6000825160005b818110156146db57602081860181015185830152016146c1565b506000920191825250919050565b6020808252825482820181905260008481528281209092916040850190845b818110156141d05783546001600160a01b031683526001938401939285019201614708565b604051601f8201601f191681016001600160401b0381118282101715614755576147556143bc565b604052919050565b60006001600160401b03821115614776576147766143bc565b5060051b60200190565b6000602080838503121561479357600080fd5b82516001600160401b038111156147a957600080fd5b8301601f810185136147ba57600080fd5b80516147cd6147c88261475d565b61472d565b81815260059190911b820183019083810190878311156147ec57600080fd5b928401925b8284101561480a578351825292840192908401906147f1565b979650505050505050565b6000602080838503121561482857600080fd5b82516001600160401b0381111561483e57600080fd5b8301601f8101851361484f57600080fd5b805161485d6147c88261475d565b81815260059190911b8201830190838101908783111561487c57600080fd5b928401925b8284101561480a57835161489481613f88565b82529284019290840190614881565b60a0815260006148b660a08301886140cb565b82810360208401526148c881886145cb565b905082810360408401526148dc81876145cb565b6060840195909552505060800152939250505056fe88f854e137380c14d63f6ed99781bf13402167cf55bac49bcd44d4f2d6a342754042bb9a70998f80a86d9963f0d2132e9b11c8ad94d207c6141c8e34b05ce53e7f26b83ff96e1f2b6a682f133852f6798a09c465da95921460cefb3847402498a264697066735822122006f70ed3ab8a42966754c287a14456dd2468d1bb624bb77478de83b9c05dddc164736f6c63430008110033"
}