{
  "address": "0x2892a4038AcC924497E1081da24eA757F93D2ccB",
  "abi": [
    {
      "inputs": [
        {
          "internalType": "uint256",
          "name": "num",
          "type": "uint256"
        },
        {
          "internalType": "uint256",
          "name": "denom",
          "type": "uint256"
        },
        {
          "internalType": "uint256",
          "name": "roninChainId",
          "type": "uint256"
        },
        {
          "internalType": "uint256",
          "name": "expiryDuration",
          "type": "uint256"
        },
        {
          "internalType": "address",
          "name": "bridgeContract",
          "type": "address"
        },
        {
          "internalType": "address[]",
          "name": "callbackRegisters",
          "type": "address[]"
        },
        {
          "internalType": "address[]",
          "name": "bridgeOperators",
          "type": "address[]"
        },
        {
          "internalType": "address[]",
          "name": "governors",
          "type": "address[]"
        },
        {
          "internalType": "uint96[]",
          "name": "voteWeights",
          "type": "uint96[]"
        },
        {
          "internalType": "enum GlobalProposal.TargetOption[]",
          "name": "targetOptions",
          "type": "uint8[]"
        },
        {
          "internalType": "address[]",
          "name": "targets",
          "type": "address[]"
        }
      ],
      "stateMutability": "payable",
      "type": "constructor"
    },
    {
      "inputs": [
        {
          "internalType": "address",
          "name": "addr",
          "type": "address"
        },
        {
          "internalType": "bytes32",
          "name": "codehash",
          "type": "bytes32"
        }
      ],
      "name": "ErrAddressIsNotCreatedEOA",
      "type": "error"
    },
    {
      "inputs": [
        {
          "internalType": "address",
          "name": "voter",
          "type": "address"
        }
      ],
      "name": "ErrAlreadyVoted",
      "type": "error"
    },
    {
      "inputs": [
        {
          "internalType": "address",
          "name": "bridgeOperator",
          "type": "address"
        }
      ],
      "name": "ErrBridgeOperatorAlreadyExisted",
      "type": "error"
    },
    {
      "inputs": [
        {
          "internalType": "address",
          "name": "bridgeOperator",
          "type": "address"
        }
      ],
      "name": "ErrBridgeOperatorUpdateFailed",
      "type": "error"
    },
    {
      "inputs": [
        {
          "internalType": "enum ContractType",
          "name": "contractType",
          "type": "uint8"
        }
      ],
      "name": "ErrContractTypeNotFound",
      "type": "error"
    },
    {
      "inputs": [],
      "name": "ErrCurrentProposalIsNotCompleted",
      "type": "error"
    },
    {
      "inputs": [
        {
          "internalType": "bytes4",
          "name": "msgSig",
          "type": "bytes4"
        }
      ],
      "name": "ErrDuplicated",
      "type": "error"
    },
    {
      "inputs": [
        {
          "internalType": "bytes32",
          "name": "proposalHash",
          "type": "bytes32"
        }
      ],
      "name": "ErrInsufficientGas",
      "type": "error"
    },
    {
      "inputs": [
        {
          "internalType": "bytes4",
          "name": "msgSig",
          "type": "bytes4"
        }
      ],
      "name": "ErrInvalidArguments",
      "type": "error"
    },
    {
      "inputs": [
        {
          "internalType": "bytes4",
          "name": "msgSig",
          "type": "bytes4"
        },
        {
          "internalType": "uint256",
          "name": "actual",
          "type": "uint256"
        },
        {
          "internalType": "uint256",
          "name": "expected",
          "type": "uint256"
        }
      ],
      "name": "ErrInvalidChainId",
      "type": "error"
    },
    {
      "inputs": [],
      "name": "ErrInvalidExpiryTimestamp",
      "type": "error"
    },
    {
      "inputs": [
        {
          "internalType": "bytes4",
          "name": "msgSig",
          "type": "bytes4"
        }
      ],
      "name": "ErrInvalidOrder",
      "type": "error"
    },
    {
      "inputs": [
        {
          "internalType": "bytes32",
          "name": "actual",
          "type": "bytes32"
        },
        {
          "internalType": "bytes32",
          "name": "expected",
          "type": "bytes32"
        }
      ],
      "name": "ErrInvalidProposal",
      "type": "error"
    },
    {
      "inputs": [
        {
          "internalType": "bytes4",
          "name": "msgSig",
          "type": "bytes4"
        }
      ],
      "name": "ErrInvalidProposalNonce",
      "type": "error"
    },
    {
      "inputs": [
        {
          "internalType": "bytes4",
          "name": "msgSig",
          "type": "bytes4"
        }
      ],
      "name": "ErrInvalidSignatures",
      "type": "error"
    },
    {
      "inputs": [
        {
          "internalType": "bytes4",
          "name": "msgSig",
          "type": "bytes4"
        }
      ],
      "name": "ErrInvalidThreshold",
      "type": "error"
    },
    {
      "inputs": [
        {
          "internalType": "bytes4",
          "name": "msgSig",
          "type": "bytes4"
        }
      ],
      "name": "ErrInvalidVoteWeight",
      "type": "error"
    },
    {
      "inputs": [
        {
          "internalType": "bytes4",
          "name": "msgSig",
          "type": "bytes4"
        }
      ],
      "name": "ErrLengthMismatch",
      "type": "error"
    },
    {
      "inputs": [
        {
          "internalType": "bytes4",
          "name": "msgSig",
          "type": "bytes4"
        }
      ],
      "name": "ErrOnlySelfCall",
      "type": "error"
    },
    {
      "inputs": [],
      "name": "ErrQueryForEmptyVote",
      "type": "error"
    },
    {
      "inputs": [
        {
          "internalType": "bytes4",
          "name": "msgSig",
          "type": "bytes4"
        },
        {
          "internalType": "enum RoleAccess",
          "name": "expectedRole",
          "type": "uint8"
        }
      ],
      "name": "ErrUnauthorized",
      "type": "error"
    },
    {
      "inputs": [
        {
          "internalType": "bytes4",
          "name": "interfaceId",
          "type": "bytes4"
        },
        {
          "internalType": "address",
          "name": "addr",
          "type": "address"
        }
      ],
      "name": "ErrUnsupportedInterface",
      "type": "error"
    },
    {
      "inputs": [
        {
          "internalType": "bytes4",
          "name": "msgSig",
          "type": "bytes4"
        }
      ],
      "name": "ErrUnsupportedVoteType",
      "type": "error"
    },
    {
      "inputs": [],
      "name": "ErrVoteIsFinalized",
      "type": "error"
    },
    {
      "inputs": [
        {
          "internalType": "bytes4",
          "name": "msgSig",
          "type": "bytes4"
        }
      ],
      "name": "ErrZeroAddress",
      "type": "error"
    },
    {
      "inputs": [
        {
          "internalType": "address",
          "name": "addr",
          "type": "address"
        }
      ],
      "name": "ErrZeroCodeContract",
      "type": "error"
    },
    {
      "anonymous": false,
      "inputs": [
        {
          "indexed": true,
          "internalType": "address",
          "name": "governor",
          "type": "address"
        },
        {
          "indexed": true,
          "internalType": "address",
          "name": "fromBridgeOperator",
          "type": "address"
        },
        {
          "indexed": true,
          "internalType": "address",
          "name": "toBridgeOperator",
          "type": "address"
        }
      ],
      "name": "BridgeOperatorUpdated",
      "type": "event"
    },
    {
      "anonymous": false,
      "inputs": [
        {
          "indexed": false,
          "internalType": "bool[]",
          "name": "statuses",
          "type": "bool[]"
        },
        {
          "indexed": false,
          "internalType": "uint96[]",
          "name": "voteWeights",
          "type": "uint96[]"
        },
        {
          "indexed": false,
          "internalType": "address[]",
          "name": "governors",
          "type": "address[]"
        },
        {
          "indexed": false,
          "internalType": "address[]",
          "name": "bridgeOperators",
          "type": "address[]"
        }
      ],
      "name": "BridgeOperatorsAdded",
      "type": "event"
    },
    {
      "anonymous": false,
      "inputs": [
        {
          "indexed": false,
          "internalType": "bool[]",
          "name": "statuses",
          "type": "bool[]"
        },
        {
          "indexed": false,
          "internalType": "address[]",
          "name": "bridgeOperators",
          "type": "address[]"
        }
      ],
      "name": "BridgeOperatorsRemoved",
      "type": "event"
    },
    {
      "anonymous": false,
      "inputs": [
        {
          "indexed": true,
          "internalType": "enum ContractType",
          "name": "contractType",
          "type": "uint8"
        },
        {
          "indexed": true,
          "internalType": "address",
          "name": "addr",
          "type": "address"
        }
      ],
      "name": "ContractUpdated",
      "type": "event"
    },
    {
      "anonymous": false,
      "inputs": [
        {
          "indexed": true,
          "internalType": "uint256",
          "name": "round",
          "type": "uint256"
        },
        {
          "indexed": true,
          "internalType": "bytes32",
          "name": "proposalHash",
          "type": "bytes32"
        },
        {
          "components": [
            {
              "internalType": "uint256",
              "name": "nonce",
              "type": "uint256"
            },
            {
              "internalType": "uint256",
              "name": "chainId",
              "type": "uint256"
            },
            {
              "internalType": "uint256",
              "name": "expiryTimestamp",
              "type": "uint256"
            },
            {
              "internalType": "address[]",
              "name": "targets",
              "type": "address[]"
            },
            {
              "internalType": "uint256[]",
              "name": "values",
              "type": "uint256[]"
            },
            {
              "internalType": "bytes[]",
              "name": "calldatas",
              "type": "bytes[]"
            },
            {
              "internalType": "uint256[]",
              "name": "gasAmounts",
              "type": "uint256[]"
            }
          ],
          "indexed": false,
          "internalType": "struct Proposal.ProposalDetail",
          "name": "proposal",
          "type": "tuple"
        },
        {
          "indexed": false,
          "internalType": "bytes32",
          "name": "globalProposalHash",
          "type": "bytes32"
        },
        {
          "components": [
            {
              "internalType": "uint256",
              "name": "nonce",
              "type": "uint256"
            },
            {
              "internalType": "uint256",
              "name": "expiryTimestamp",
              "type": "uint256"
            },
            {
              "internalType": "enum GlobalProposal.TargetOption[]",
              "name": "targetOptions",
              "type": "uint8[]"
            },
            {
              "internalType": "uint256[]",
              "name": "values",
              "type": "uint256[]"
            },
            {
              "internalType": "bytes[]",
              "name": "calldatas",
              "type": "bytes[]"
            },
            {
              "internalType": "uint256[]",
              "name": "gasAmounts",
              "type": "uint256[]"
            }
          ],
          "indexed": false,
          "internalType": "struct GlobalProposal.GlobalProposalDetail",
          "name": "globalProposal",
          "type": "tuple"
        },
        {
          "indexed": false,
          "internalType": "address",
          "name": "creator",
          "type": "address"
        }
      ],
      "name": "GlobalProposalCreated",
      "type": "event"
    },
    {
      "anonymous": false,
      "inputs": [
        {
          "indexed": false,
          "internalType": "bytes",
          "name": "callData",
          "type": "bytes"
        },
        {
          "indexed": false,
          "internalType": "address[]",
          "name": "registers",
          "type": "address[]"
        },
        {
          "indexed": false,
          "internalType": "bool[]",
          "name": "statuses",
          "type": "bool[]"
        },
        {
          "indexed": false,
          "internalType": "bytes[]",
          "name": "returnDatas",
          "type": "bytes[]"
        }
      ],
      "name": "Notified",
      "type": "event"
    },
    {
      "anonymous": false,
      "inputs": [
        {
          "indexed": true,
          "internalType": "bytes32",
          "name": "proposalHash",
          "type": "bytes32"
        }
      ],
      "name": "ProposalApproved",
      "type": "event"
    },
    {
      "anonymous": false,
      "inputs": [
        {
          "indexed": true,
          "internalType": "uint256",
          "name": "chainId",
          "type": "uint256"
        },
        {
          "indexed": true,
          "internalType": "uint256",
          "name": "round",
          "type": "uint256"
        },
        {
          "indexed": true,
          "internalType": "bytes32",
          "name": "proposalHash",
          "type": "bytes32"
        },
        {
          "components": [
            {
              "internalType": "uint256",
              "name": "nonce",
              "type": "uint256"
            },
            {
              "internalType": "uint256",
              "name": "chainId",
              "type": "uint256"
            },
            {
              "internalType": "uint256",
              "name": "expiryTimestamp",
              "type": "uint256"
            },
            {
              "internalType": "address[]",
              "name": "targets",
              "type": "address[]"
            },
            {
              "internalType": "uint256[]",
              "name": "values",
              "type": "uint256[]"
            },
            {
              "internalType": "bytes[]",
              "name": "calldatas",
              "type": "bytes[]"
            },
            {
              "internalType": "uint256[]",
              "name": "gasAmounts",
              "type": "uint256[]"
            }
          ],
          "indexed": false,
          "internalType": "struct Proposal.ProposalDetail",
          "name": "proposal",
          "type": "tuple"
        },
        {
          "indexed": false,
          "internalType": "address",
          "name": "creator",
          "type": "address"
        }
      ],
      "name": "ProposalCreated",
      "type": "event"
    },
    {
      "anonymous": false,
      "inputs": [
        {
          "indexed": true,
          "internalType": "bytes32",
          "name": "proposalHash",
          "type": "bytes32"
        },
        {
          "indexed": false,
          "internalType": "bool[]",
          "name": "successCalls",
          "type": "bool[]"
        },
        {
          "indexed": false,
          "internalType": "bytes[]",
          "name": "returnDatas",
          "type": "bytes[]"
        }
      ],
      "name": "ProposalExecuted",
      "type": "event"
    },
    {
      "anonymous": false,
      "inputs": [
        {
          "indexed": true,
          "internalType": "bytes32",
          "name": "proposalHash",
          "type": "bytes32"
        }
      ],
      "name": "ProposalExpired",
      "type": "event"
    },
    {
      "anonymous": false,
      "inputs": [
        {
          "indexed": true,
          "internalType": "uint256",
          "name": "duration",
          "type": "uint256"
        }
      ],
      "name": "ProposalExpiryDurationChanged",
      "type": "event"
    },
    {
      "anonymous": false,
      "inputs": [
        {
          "indexed": true,
          "internalType": "bytes32",
          "name": "proposalHash",
          "type": "bytes32"
        }
      ],
      "name": "ProposalRejected",
      "type": "event"
    },
    {
      "anonymous": false,
      "inputs": [
        {
          "indexed": true,
          "internalType": "bytes32",
          "name": "proposalHash",
          "type": "bytes32"
        },
        {
          "indexed": true,
          "internalType": "address",
          "name": "voter",
          "type": "address"
        },
        {
          "indexed": false,
          "internalType": "enum Ballot.VoteType",
          "name": "support",
          "type": "uint8"
        },
        {
          "indexed": false,
          "internalType": "uint256",
          "name": "weight",
          "type": "uint256"
        }
      ],
      "name": "ProposalVoted",
      "type": "event"
    },
    {
      "anonymous": false,
      "inputs": [
        {
          "indexed": true,
          "internalType": "enum GlobalProposal.TargetOption[]",
          "name": "targetOptions",
          "type": "uint8[]"
        },
        {
          "indexed": true,
          "internalType": "address[]",
          "name": "addrs",
          "type": "address[]"
        }
      ],
      "name": "TargetOptionsUpdated",
      "type": "event"
    },
    {
      "anonymous": false,
      "inputs": [
        {
          "indexed": true,
          "internalType": "uint256",
          "name": "nonce",
          "type": "uint256"
        },
        {
          "indexed": true,
          "internalType": "uint256",
          "name": "numerator",
          "type": "uint256"
        },
        {
          "indexed": true,
          "internalType": "uint256",
          "name": "denominator",
          "type": "uint256"
        },
        {
          "indexed": false,
          "internalType": "uint256",
          "name": "previousNumerator",
          "type": "uint256"
        },
        {
          "indexed": false,
          "internalType": "uint256",
          "name": "previousDenominator",
          "type": "uint256"
        }
      ],
      "name": "ThresholdUpdated",
      "type": "event"
    },
    {
      "inputs": [],
      "name": "DOMAIN_SEPARATOR",
      "outputs": [
        {
          "internalType": "bytes32",
          "name": "",
          "type": "bytes32"
        }
      ],
      "stateMutability": "view",
      "type": "function"
    },
    {
      "inputs": [
        {
          "internalType": "uint96[]",
          "name": "voteWeights",
          "type": "uint96[]"
        },
        {
          "internalType": "address[]",
          "name": "governors",
          "type": "address[]"
        },
        {
          "internalType": "address[]",
          "name": "bridgeOperators",
          "type": "address[]"
        }
      ],
      "name": "addBridgeOperators",
      "outputs": [
        {
          "internalType": "bool[]",
          "name": "addeds",
          "type": "bool[]"
        }
      ],
      "stateMutability": "nonpayable",
      "type": "function"
    },
    {
      "inputs": [
        {
          "components": [
            {
              "internalType": "uint256",
              "name": "nonce",
              "type": "uint256"
            },
            {
              "internalType": "uint256",
              "name": "expiryTimestamp",
              "type": "uint256"
            },
            {
              "internalType": "enum GlobalProposal.TargetOption[]",
              "name": "targetOptions",
              "type": "uint8[]"
            },
            {
              "internalType": "uint256[]",
              "name": "values",
              "type": "uint256[]"
            },
            {
              "internalType": "bytes[]",
              "name": "calldatas",
              "type": "bytes[]"
            },
            {
              "internalType": "uint256[]",
              "name": "gasAmounts",
              "type": "uint256[]"
            }
          ],
          "internalType": "struct GlobalProposal.GlobalProposalDetail",
          "name": "globalProposal",
          "type": "tuple"
        },
        {
          "internalType": "enum Ballot.VoteType[]",
          "name": "supports_",
          "type": "uint8[]"
        },
        {
          "components": [
            {
              "internalType": "uint8",
              "name": "v",
              "type": "uint8"
            },
            {
              "internalType": "bytes32",
              "name": "r",
              "type": "bytes32"
            },
            {
              "internalType": "bytes32",
              "name": "s",
              "type": "bytes32"
            }
          ],
          "internalType": "struct SignatureConsumer.Signature[]",
          "name": "signatures",
          "type": "tuple[]"
        }
      ],
      "name": "castGlobalProposalBySignatures",
      "outputs": [],
      "stateMutability": "nonpayable",
      "type": "function"
    },
    {
      "inputs": [
        {
          "components": [
            {
              "internalType": "uint256",
              "name": "nonce",
              "type": "uint256"
            },
            {
              "internalType": "uint256",
              "name": "chainId",
              "type": "uint256"
            },
            {
              "internalType": "uint256",
              "name": "expiryTimestamp",
              "type": "uint256"
            },
            {
              "internalType": "address[]",
              "name": "targets",
              "type": "address[]"
            },
            {
              "internalType": "uint256[]",
              "name": "values",
              "type": "uint256[]"
            },
            {
              "internalType": "bytes[]",
              "name": "calldatas",
              "type": "bytes[]"
            },
            {
              "internalType": "uint256[]",
              "name": "gasAmounts",
              "type": "uint256[]"
            }
          ],
          "internalType": "struct Proposal.ProposalDetail",
          "name": "proposal",
          "type": "tuple"
        },
        {
          "internalType": "enum Ballot.VoteType[]",
          "name": "supports_",
          "type": "uint8[]"
        },
        {
          "components": [
            {
              "internalType": "uint8",
              "name": "v",
              "type": "uint8"
            },
            {
              "internalType": "bytes32",
              "name": "r",
              "type": "bytes32"
            },
            {
              "internalType": "bytes32",
              "name": "s",
              "type": "bytes32"
            }
          ],
          "internalType": "struct SignatureConsumer.Signature[]",
          "name": "signatures",
          "type": "tuple[]"
        }
      ],
      "name": "castProposalBySignatures",
      "outputs": [],
      "stateMutability": "nonpayable",
      "type": "function"
    },
    {
      "inputs": [
        {
          "components": [
            {
              "internalType": "uint256",
              "name": "nonce",
              "type": "uint256"
            },
            {
              "internalType": "uint256",
              "name": "chainId",
              "type": "uint256"
            },
            {
              "internalType": "uint256",
              "name": "expiryTimestamp",
              "type": "uint256"
            },
            {
              "internalType": "address[]",
              "name": "targets",
              "type": "address[]"
            },
            {
              "internalType": "uint256[]",
              "name": "values",
              "type": "uint256[]"
            },
            {
              "internalType": "bytes[]",
              "name": "calldatas",
              "type": "bytes[]"
            },
            {
              "internalType": "uint256[]",
              "name": "gasAmounts",
              "type": "uint256[]"
            }
          ],
          "internalType": "struct Proposal.ProposalDetail",
          "name": "proposal",
          "type": "tuple"
        },
        {
          "internalType": "enum Ballot.VoteType",
          "name": "support",
          "type": "uint8"
        }
      ],
      "name": "castProposalVoteForCurrentNetwork",
      "outputs": [],
      "stateMutability": "nonpayable",
      "type": "function"
    },
    {
      "inputs": [
        {
          "internalType": "uint256",
          "name": "_voteWeight",
          "type": "uint256"
        }
      ],
      "name": "checkThreshold",
      "outputs": [
        {
          "internalType": "bool",
          "name": "",
          "type": "bool"
        }
      ],
      "stateMutability": "view",
      "type": "function"
    },
    {
      "inputs": [
        {
          "internalType": "uint256",
          "name": "_chainId",
          "type": "uint256"
        },
        {
          "internalType": "uint256",
          "name": "_round",
          "type": "uint256"
        }
      ],
      "name": "deleteExpired",
      "outputs": [],
      "stateMutability": "nonpayable",
      "type": "function"
    },
    {
      "inputs": [
        {
          "internalType": "address[]",
          "name": "governors",
          "type": "address[]"
        }
      ],
      "name": "getBridgeOperatorOf",
      "outputs": [
        {
          "internalType": "address[]",
          "name": "bridgeOperators",
          "type": "address[]"
        }
      ],
      "stateMutability": "view",
      "type": "function"
    },
    {
      "inputs": [
        {
          "internalType": "address",
          "name": "bridgeOperator",
          "type": "address"
        }
      ],
      "name": "getBridgeOperatorWeight",
      "outputs": [
        {
          "internalType": "uint256",
          "name": "weight",
          "type": "uint256"
        }
      ],
      "stateMutability": "view",
      "type": "function"
    },
    {
      "inputs": [
        {
          "internalType": "address[]",
          "name": "bridgeOperators",
          "type": "address[]"
        }
      ],
      "name": "getBridgeOperatorWeights",
      "outputs": [
        {
          "internalType": "uint256[]",
          "name": "weights",
          "type": "uint256[]"
        }
      ],
      "stateMutability": "view",
      "type": "function"
    },
    {
      "inputs": [],
      "name": "getBridgeOperators",
      "outputs": [
        {
          "internalType": "address[]",
          "name": "",
          "type": "address[]"
        }
      ],
      "stateMutability": "view",
      "type": "function"
    },
    {
      "inputs": [],
      "name": "getCallbackRegisters",
      "outputs": [
        {
          "internalType": "address[]",
          "name": "registers",
          "type": "address[]"
        }
      ],
      "stateMutability": "view",
      "type": "function"
    },
    {
      "inputs": [
        {
          "internalType": "enum ContractType",
          "name": "contractType",
          "type": "uint8"
        }
      ],
      "name": "getContract",
      "outputs": [
        {
          "internalType": "address",
          "name": "contract_",
          "type": "address"
        }
      ],
      "stateMutability": "view",
      "type": "function"
    },
    {
      "inputs": [],
      "name": "getFullBridgeOperatorInfos",
      "outputs": [
        {
          "internalType": "address[]",
          "name": "governors",
          "type": "address[]"
        },
        {
          "internalType": "address[]",
          "name": "bridgeOperators",
          "type": "address[]"
        },
        {
          "internalType": "uint256[]",
          "name": "weights",
          "type": "uint256[]"
        }
      ],
      "stateMutability": "view",
      "type": "function"
    },
    {
      "inputs": [
        {
          "internalType": "uint256",
          "name": "round_",
          "type": "uint256"
        }
      ],
      "name": "getGlobalProposalSignatures",
      "outputs": [
        {
          "internalType": "address[]",
          "name": "voters",
          "type": "address[]"
        },
        {
          "internalType": "enum Ballot.VoteType[]",
          "name": "supports_",
          "type": "uint8[]"
        },
        {
          "components": [
            {
              "internalType": "uint8",
              "name": "v",
              "type": "uint8"
            },
            {
              "internalType": "bytes32",
              "name": "r",
              "type": "bytes32"
            },
            {
              "internalType": "bytes32",
              "name": "s",
              "type": "bytes32"
            }
          ],
          "internalType": "struct SignatureConsumer.Signature[]",
          "name": "signatures",
          "type": "tuple[]"
        }
      ],
      "stateMutability": "view",
      "type": "function"
    },
    {
      "inputs": [
        {
          "internalType": "address",
          "name": "governor",
          "type": "address"
        }
      ],
      "name": "getGovernorWeight",
      "outputs": [
        {
          "internalType": "uint256",
          "name": "weight",
          "type": "uint256"
        }
      ],
      "stateMutability": "view",
      "type": "function"
    },
    {
      "inputs": [
        {
          "internalType": "address[]",
          "name": "governors",
          "type": "address[]"
        }
      ],
      "name": "getGovernorWeights",
      "outputs": [
        {
          "internalType": "uint256[]",
          "name": "weights",
          "type": "uint256[]"
        }
      ],
      "stateMutability": "view",
      "type": "function"
    },
    {
      "inputs": [],
      "name": "getGovernors",
      "outputs": [
        {
          "internalType": "address[]",
          "name": "",
          "type": "address[]"
        }
      ],
      "stateMutability": "view",
      "type": "function"
    },
    {
      "inputs": [
        {
          "internalType": "address[]",
          "name": "bridgeOperators",
          "type": "address[]"
        }
      ],
      "name": "getGovernorsOf",
      "outputs": [
        {
          "internalType": "address[]",
          "name": "governors",
          "type": "address[]"
        }
      ],
      "stateMutability": "view",
      "type": "function"
    },
    {
      "inputs": [],
      "name": "getProposalExpiryDuration",
      "outputs": [
        {
          "internalType": "uint256",
          "name": "",
          "type": "uint256"
        }
      ],
      "stateMutability": "view",
      "type": "function"
    },
    {
      "inputs": [
        {
          "internalType": "uint256",
          "name": "_chainId",
          "type": "uint256"
        },
        {
          "internalType": "uint256",
          "name": "_round",
          "type": "uint256"
        }
      ],
      "name": "getProposalSignatures",
      "outputs": [
        {
          "internalType": "address[]",
          "name": "_voters",
          "type": "address[]"
        },
        {
          "internalType": "enum Ballot.VoteType[]",
          "name": "_supports",
          "type": "uint8[]"
        },
        {
          "components": [
            {
              "internalType": "uint8",
              "name": "v",
              "type": "uint8"
            },
            {
              "internalType": "bytes32",
              "name": "r",
              "type": "bytes32"
            },
            {
              "internalType": "bytes32",
              "name": "s",
              "type": "bytes32"
            }
          ],
          "internalType": "struct SignatureConsumer.Signature[]",
          "name": "_signatures",
          "type": "tuple[]"
        }
      ],
      "stateMutability": "view",
      "type": "function"
    },
    {
      "inputs": [],
      "name": "getThreshold",
      "outputs": [
        {
          "internalType": "uint256",
          "name": "num_",
          "type": "uint256"
        },
        {
          "internalType": "uint256",
          "name": "denom_",
          "type": "uint256"
        }
      ],
      "stateMutability": "view",
      "type": "function"
    },
    {
      "inputs": [],
      "name": "getTotalWeights",
      "outputs": [
        {
          "internalType": "uint256",
          "name": "",
          "type": "uint256"
        }
      ],
      "stateMutability": "view",
      "type": "function"
    },
    {
      "inputs": [
        {
          "internalType": "uint256",
          "name": "round_",
          "type": "uint256"
        },
        {
          "internalType": "address",
          "name": "voter",
          "type": "address"
        }
      ],
      "name": "globalProposalVoted",
      "outputs": [
        {
          "internalType": "bool",
          "name": "",
          "type": "bool"
        }
      ],
      "stateMutability": "view",
      "type": "function"
    },
    {
      "inputs": [
        {
          "internalType": "address",
          "name": "addr",
          "type": "address"
        }
      ],
      "name": "isBridgeOperator",
      "outputs": [
        {
          "internalType": "bool",
          "name": "",
          "type": "bool"
        }
      ],
      "stateMutability": "view",
      "type": "function"
    },
    {
      "inputs": [],
      "name": "minimumVoteWeight",
      "outputs": [
        {
          "internalType": "uint256",
          "name": "",
          "type": "uint256"
        }
      ],
      "stateMutability": "view",
      "type": "function"
    },
    {
      "inputs": [
        {
          "internalType": "uint256",
          "name": "_chainId",
          "type": "uint256"
        },
        {
          "internalType": "uint256",
          "name": "_round",
          "type": "uint256"
        },
        {
          "internalType": "address",
          "name": "_voter",
          "type": "address"
        }
      ],
      "name": "proposalVoted",
      "outputs": [
        {
          "internalType": "bool",
          "name": "",
          "type": "bool"
        }
      ],
      "stateMutability": "view",
      "type": "function"
    },
    {
      "inputs": [
        {
          "internalType": "uint256",
          "name": "_chainId",
          "type": "uint256"
        },
        {
          "internalType": "uint256",
          "name": "_expiryTimestamp",
          "type": "uint256"
        },
        {
          "internalType": "address[]",
          "name": "_targets",
          "type": "address[]"
        },
        {
          "internalType": "uint256[]",
          "name": "_values",
          "type": "uint256[]"
        },
        {
          "internalType": "bytes[]",
          "name": "_calldatas",
          "type": "bytes[]"
        },
        {
          "internalType": "uint256[]",
          "name": "_gasAmounts",
          "type": "uint256[]"
        }
      ],
      "name": "propose",
      "outputs": [],
      "stateMutability": "nonpayable",
      "type": "function"
    },
    {
      "inputs": [
        {
          "internalType": "uint256",
          "name": "expiryTimestamp",
          "type": "uint256"
        },
        {
          "internalType": "enum GlobalProposal.TargetOption[]",
          "name": "targetOptions",
          "type": "uint8[]"
        },
        {
          "internalType": "uint256[]",
          "name": "values",
          "type": "uint256[]"
        },
        {
          "internalType": "bytes[]",
          "name": "calldatas",
          "type": "bytes[]"
        },
        {
          "internalType": "uint256[]",
          "name": "gasAmounts",
          "type": "uint256[]"
        }
      ],
      "name": "proposeGlobal",
      "outputs": [],
      "stateMutability": "nonpayable",
      "type": "function"
    },
    {
      "inputs": [
        {
          "components": [
            {
              "internalType": "uint256",
              "name": "nonce",
              "type": "uint256"
            },
            {
              "internalType": "uint256",
              "name": "expiryTimestamp",
              "type": "uint256"
            },
            {
              "internalType": "enum GlobalProposal.TargetOption[]",
              "name": "targetOptions",
              "type": "uint8[]"
            },
            {
              "internalType": "uint256[]",
              "name": "values",
              "type": "uint256[]"
            },
            {
              "internalType": "bytes[]",
              "name": "calldatas",
              "type": "bytes[]"
            },
            {
              "internalType": "uint256[]",
              "name": "gasAmounts",
              "type": "uint256[]"
            }
          ],
          "internalType": "struct GlobalProposal.GlobalProposalDetail",
          "name": "globalProposal",
          "type": "tuple"
        },
        {
          "internalType": "enum Ballot.VoteType[]",
          "name": "supports_",
          "type": "uint8[]"
        },
        {
          "components": [
            {
              "internalType": "uint8",
              "name": "v",
              "type": "uint8"
            },
            {
              "internalType": "bytes32",
              "name": "r",
              "type": "bytes32"
            },
            {
              "internalType": "bytes32",
              "name": "s",
              "type": "bytes32"
            }
          ],
          "internalType": "struct SignatureConsumer.Signature[]",
          "name": "signatures",
          "type": "tuple[]"
        }
      ],
      "name": "proposeGlobalProposalStructAndCastVotes",
      "outputs": [],
      "stateMutability": "nonpayable",
      "type": "function"
    },
    {
      "inputs": [
        {
          "internalType": "uint256",
          "name": "expiryTimestamp",
          "type": "uint256"
        },
        {
          "internalType": "address[]",
          "name": "targets",
          "type": "address[]"
        },
        {
          "internalType": "uint256[]",
          "name": "values",
          "type": "uint256[]"
        },
        {
          "internalType": "bytes[]",
          "name": "calldatas",
          "type": "bytes[]"
        },
        {
          "internalType": "uint256[]",
          "name": "gasAmounts",
          "type": "uint256[]"
        },
        {
          "internalType": "enum Ballot.VoteType",
          "name": "support",
          "type": "uint8"
        }
      ],
      "name": "proposeProposalForCurrentNetwork",
      "outputs": [],
      "stateMutability": "nonpayable",
      "type": "function"
    },
    {
      "inputs": [
        {
          "components": [
            {
              "internalType": "uint256",
              "name": "nonce",
              "type": "uint256"
            },
            {
              "internalType": "uint256",
              "name": "chainId",
              "type": "uint256"
            },
            {
              "internalType": "uint256",
              "name": "expiryTimestamp",
              "type": "uint256"
            },
            {
              "internalType": "address[]",
              "name": "targets",
              "type": "address[]"
            },
            {
              "internalType": "uint256[]",
              "name": "values",
              "type": "uint256[]"
            },
            {
              "internalType": "bytes[]",
              "name": "calldatas",
              "type": "bytes[]"
            },
            {
              "internalType": "uint256[]",
              "name": "gasAmounts",
              "type": "uint256[]"
            }
          ],
          "internalType": "struct Proposal.ProposalDetail",
          "name": "_proposal",
          "type": "tuple"
        },
        {
          "internalType": "enum Ballot.VoteType[]",
          "name": "_supports",
          "type": "uint8[]"
        },
        {
          "components": [
            {
              "internalType": "uint8",
              "name": "v",
              "type": "uint8"
            },
            {
              "internalType": "bytes32",
              "name": "r",
              "type": "bytes32"
            },
            {
              "internalType": "bytes32",
              "name": "s",
              "type": "bytes32"
            }
          ],
          "internalType": "struct SignatureConsumer.Signature[]",
          "name": "_signatures",
          "type": "tuple[]"
        }
      ],
      "name": "proposeProposalStructAndCastVotes",
      "outputs": [],
      "stateMutability": "nonpayable",
      "type": "function"
    },
    {
      "inputs": [
        {
          "internalType": "address[]",
          "name": "registers",
          "type": "address[]"
        }
      ],
      "name": "registerCallbacks",
      "outputs": [
        {
          "internalType": "bool[]",
          "name": "registereds",
          "type": "bool[]"
        }
      ],
      "stateMutability": "nonpayable",
      "type": "function"
    },
    {
      "inputs": [
        {
          "internalType": "address[]",
          "name": "bridgeOperators",
          "type": "address[]"
        }
      ],
      "name": "removeBridgeOperators",
      "outputs": [
        {
          "internalType": "bool[]",
          "name": "removeds",
          "type": "bool[]"
        }
      ],
      "stateMutability": "nonpayable",
      "type": "function"
    },
    {
      "inputs": [
        {
          "internalType": "enum GlobalProposal.TargetOption[]",
          "name": "targetOptions",
          "type": "uint8[]"
        }
      ],
      "name": "resolveTargets",
      "outputs": [
        {
          "internalType": "address[]",
          "name": "targets",
          "type": "address[]"
        }
      ],
      "stateMutability": "view",
      "type": "function"
    },
    {
      "inputs": [
        {
          "internalType": "uint256",
          "name": "",
          "type": "uint256"
        }
      ],
      "name": "round",
      "outputs": [
        {
          "internalType": "uint256",
          "name": "",
          "type": "uint256"
        }
      ],
      "stateMutability": "view",
      "type": "function"
    },
    {
      "inputs": [
        {
          "internalType": "enum ContractType",
          "name": "contractType",
          "type": "uint8"
        },
        {
          "internalType": "address",
          "name": "addr",
          "type": "address"
        }
      ],
      "name": "setContract",
      "outputs": [],
      "stateMutability": "nonpayable",
      "type": "function"
    },
    {
      "inputs": [
        {
          "internalType": "uint256",
          "name": "numerator",
          "type": "uint256"
        },
        {
          "internalType": "uint256",
          "name": "denominator",
          "type": "uint256"
        }
      ],
      "name": "setThreshold",
      "outputs": [
        {
          "internalType": "uint256",
          "name": "",
          "type": "uint256"
        },
        {
          "internalType": "uint256",
          "name": "",
          "type": "uint256"
        }
      ],
      "stateMutability": "nonpayable",
      "type": "function"
    },
    {
      "inputs": [
        {
          "internalType": "address[]",
          "name": "governors",
          "type": "address[]"
        }
      ],
      "name": "sumGovernorsWeight",
      "outputs": [
        {
          "internalType": "uint256",
          "name": "sum",
          "type": "uint256"
        }
      ],
      "stateMutability": "view",
      "type": "function"
    },
    {
      "inputs": [],
      "name": "totalBridgeOperators",
      "outputs": [
        {
          "internalType": "uint256",
          "name": "",
          "type": "uint256"
        }
      ],
      "stateMutability": "view",
      "type": "function"
    },
    {
      "inputs": [
        {
          "internalType": "address[]",
          "name": "registers",
          "type": "address[]"
        }
      ],
      "name": "unregisterCallbacks",
      "outputs": [
        {
          "internalType": "bool[]",
          "name": "unregistereds",
          "type": "bool[]"
        }
      ],
      "stateMutability": "nonpayable",
      "type": "function"
    },
    {
      "inputs": [
        {
          "internalType": "address",
          "name": "newBridgeOperator",
          "type": "address"
        }
      ],
      "name": "updateBridgeOperator",
      "outputs": [],
      "stateMutability": "nonpayable",
      "type": "function"
    },
    {
      "inputs": [
        {
          "internalType": "uint256",
          "name": "",
          "type": "uint256"
        },
        {
          "internalType": "uint256",
          "name": "",
          "type": "uint256"
        }
      ],
      "name": "vote",
      "outputs": [
        {
          "internalType": "enum VoteStatusConsumer.VoteStatus",
          "name": "status",
          "type": "uint8"
        },
        {
          "internalType": "bytes32",
          "name": "hash",
          "type": "bytes32"
        },
        {
          "internalType": "uint256",
          "name": "againstVoteWeight",
          "type": "uint256"
        },
        {
          "internalType": "uint256",
          "name": "forVoteWeight",
          "type": "uint256"
        },
        {
          "internalType": "uint256",
          "name": "expiryTimestamp",
          "type": "uint256"
        }
      ],
      "stateMutability": "view",
      "type": "function"
    }
  ],
  "transactionHash": "0xcbf2dd8d3720b18a3a3336063b13cbc73a0b63c17848329b2c9c594648e6d25a",
  "args": [
    70,
    100,
    2021,
    1209600,
    "0xCee681C9108c42C710c6A8A949307D5F13C9F3ca",
    [
      "0xeD492d0bb712580a6d35b3466129e9AE95d8dEe7"
    ],
    [
      "0x2e82D2b56f858f79DeeF11B160bFC4631873da2B",
      "0xBcb61783dd2403FE8cC9B89B27B1A9Bb03d040Cb",
      "0xB266Bf53Cf7EAc4E2065A404598DCB0E15E9462c",
      "0xcc5fc5b6c8595f56306da736f6cd02ed9141c84a"
    ],
    [
      "0xd24D87DDc1917165435b306aAC68D99e0F49A3Fa",
      "0xb033ba62EC622dC54D0ABFE0254e79692147CA26",
      "0x087D08e3ba42e64E3948962dd1371F906D1278b9",
      "0x52ec2e6BBcE45AfFF8955Da6410bb13812F4289F"
    ],
    [
      100,
      100,
      100,
      100
    ],
    [
      0,
      1,
      2,
      3
    ],
    [
      "0x2892a4038AcC924497E1081da24eA757F93D2ccB",
      "0xCee681C9108c42C710c6A8A949307D5F13C9F3ca",
      "0xab9e09580bE154B14e34a8dE0d25780cF9688453",
      "0xeD492d0bb712580a6d35b3466129e9AE95d8dEe7"
    ]
  ],
  "numDeployments": 2,
  "solcInputHash": "28b4851e3868f34350c9d7d76cba2b15",
  "bytecode": "0x60a060405260405162007774380380620077748339810160408190526200002691620013e6565b8181898d8d8d8c8c8c8c8c836200003d8162000229565b50506200007d60017f92872d32822c9d44b36a2537d3e0d4c46fc4de1ce154ccfaed560a8a58445f1d60001b6200034660201b620013ea1790919060201c565b620000ba887fc55405a488814eaa0e2a685a0131142785b8d033d311c8c8244e34a7c12ca40f60001b6200034660201b620013ea1790919060201c565b620000f7877fac1ff16a4f04f2a37a9ba5252a69baa100b460e517d1f8019c054a5ad698f9ff60001b6200034660201b620013ea1790919060201c565b620001046002866200034a565b604080516020808201839052600c60608301526b212924a223a2afa0a226a4a760a11b6080808401919091528284018a905283518084038201815260a0840185528051908301207f599a80fcaa47b95e2323ab4d34d34e0cc9feda4b843edafcc30c7bdf60ea15bf60c08501527f9d3fa1662ea89365eb7af36506f0ad5413bd7e078960d8481ff4718763aaa8e960e08501527fad7c5bef027816a800da1736444fb58a807ef4c9603b7848673f7e3a68eb14a5610100850152610120808501919091528451808503909101815261014090930190935281519101209052620001ef818385620003f4565b50505050505050505062000209816200088b60201b60201c565b50620002168282620008be565b50505050505050505050505050620018f9565b6060816200023781620009c5565b8251806001600160401b0381111562000254576200025462001211565b6040519080825280602002602001820160405280156200027e578160200160208202803683370190505b5092508060000362000291575062000340565b6000805160206200775483398151915260006314d72edb60e21b815b848110156200033a57878181518110620002cb57620002cb62001552565b60200260200101519250620002e68362000a0c60201b60201c565b620002f2838362000a44565b6200030c838562000c2360201b620013ee1790919060201c565b87828151811062000321576200032162001552565b91151560209283029190910190910152600101620002ad565b50505050505b50919050565b9055565b807fdea3103d22025c269050bea94c0c84688877f12fa22b7e6d2d5d78a9a49aa1cb600084600d81111562000383576200038362001568565b60ff168152602081019190915260400160002080546001600160a01b0319166001600160a01b03928316179055811682600d811115620003c757620003c762001568565b6040517f865d1c228a8ea13709cfe61f346f7ff67f1bbd4a18ff31ad3e7147350d317c5990600090a35050565b606062000410828462000c4360201b620014031790919060201c565b6200041b81620009c5565b82518551811480156200042e5750845181145b6200045f576040516306b5667560e21b81526001600160e01b03196000351660048201526024015b60405180910390fd5b806001600160401b038111156200047a576200047a62001211565b604051908082528060200260200182016040528015620004a4578160200160208202803683370190505b50925080600003620004b7575062000883565b604080518082019091526000808252602082018190527f546f6b46ab35b030b6816596b352aef78857377176c8b24baa2046a62cf1998c917f8400683eb2cb350596d73644c0c89fe45f108600003457374f4ab3e87b4f3aa3917fd38c234075fde25875da8a6b7e36b58b86681d483271a99eeeee1d78e258a24d917f88547008e60f5748911f2e59feb3093b7e4c2e87b2dd69d61f112fcc932de8e3919081908190815b89811015620007c4578d81815181106200057a576200057a62001552565b602002602001015194508c818151811062000599576200059962001552565b60200260200101519350620005b48562000d6160201b60201c565b620005bf8462000d61565b8e8181518110620005d457620005d462001552565b60200260200101516001600160601b03166000036200061557604051637f11b8a360e11b81526001600160e01b031960003516600482015260240162000456565b6200062f858a62000dcf60201b620015031790919060201c565b8062000650575062000650848a62000dcf60201b620015031790919060201c565b8062000671575062000671858862000dcf60201b620015031790919060201c565b8062000692575062000692848862000dcf60201b620015031790919060201c565b158c8281518110620006a857620006a862001552565b6020026020010190151590811515815250508b8181518110620006cf57620006cf62001552565b602002602001015115620007bb57620006f7858a62000c2360201b620013ee1790919060201c565b5062000712848862000c2360201b620013ee1790919060201c565b506001600160a01b03848116600081815260208b90526040902080546001600160a01b0319169288169290921790915582528e518f90829081106200075b576200075b62001552565b6020908102919091018101516001600160601b03169083018190526200078290846200157e565b6001600160a01b038087166000908152602089815260409091208551918601516001600160601b0316600160a01b029190921617905592505b6001016200055c565b5062000802827f6924fe71b0c8b61aea02ca498b5f53b29bd95726278b1fe4eb791bb24a42644c60001b62000df260201b620015251790919060201c565b506200083a635ebae8a060e01b8d8d604051602001620008249291906200161a565b60408051601f1981840301815291905262000e0c565b7f897810999654e525e272b5909785c4d0ceaee1bbf9c87d9091a37558b0423b788b8f8f8f6040516200087194939291906200164c565b60405180910390a15050505050505050505b509392505050565b600281905560405181907fe5cd1c123a8cf63fa1b7229678db61fe8ae99dbbd27889370b6667c8cae97da190600090a250565b60005b82518110156200096857818181518110620008e057620008e062001552565b60200260200101516003600085848151811062000901576200090162001552565b602002602001015160038111156200091d576200091d62001568565b600381111562000931576200093162001568565b8152602081019190915260400160002080546001600160a01b0319166001600160a01b0392909216919091179055600101620008c1565b5080604051620009799190620016dc565b6040518091039020826040516200099191906200171d565b604051908190038120907f548a12551fc2aae80bb0c0d82b00ff51bccce1648420bb7e8b0f4f03d65531da90600090a35050565b620009db816200102c60201b6200153c1760201c565b1562000a0957604051630d697db160e11b81526001600160e01b031960003516600482015260240162000456565b50565b806001600160a01b03163b60000362000a0957604051630bfc64a360e21b81526001600160a01b038216600482015260240162000456565b6040516001600160e01b03198216602482015260009060440160408051601f198184030181529181526020820180516001600160e01b03166301ffc9a760e01b1790525190915060009081906001600160a01b0386169062000aa89085906200179b565b600060405180830381855afa9150503d806000811462000ae5576040519150601f19603f3d011682016040523d82523d6000602084013e62000aea565b606091505b50915091508162000bcc57846001600160a01b03168360405160240162000b129190620017e7565b60408051601f198184030181529181526020820180516001600160e01b03166325da93a560e11b1790525162000b4991906200179b565b600060405180830381855afa9150503d806000811462000b86576040519150601f19603f3d011682016040523d82523d6000602084013e62000b8b565b606091505b5090925090508162000bcc5760405163069d427960e11b81526001600160e01b0319851660048201526001600160a01b038616602482015260440162000456565b8080602001905181019062000be29190620017fc565b62000c1c5760405163069d427960e11b81526001600160e01b0319851660048201526001600160a01b038616602482015260440162000456565b5050505050565b600062000c3a836001600160a01b038416620010d7565b90505b92915050565b81518151606091908082016001600160401b0381111562000c685762000c6862001211565b60405190808252806020026020018201604052801562000c92578160200160208202803683370190505b50925060005b8281101562000cf45785818151811062000cb65762000cb662001552565b602002602001015184828151811062000cd35762000cd362001552565b6001600160a01b039092166020928302919091019091015260010162000c98565b60005b8281101562000d575785818151811062000d155762000d1562001552565b602002602001015185838151811062000d325762000d3262001552565b6001600160a01b03909216602092830291909101909101526001918201910162000cf7565b5050505092915050565b62000d6c8162001129565b6001600160a01b0381163f7fc5d2460186f7233c927e7db2dcc703c0e500b653ca82273b7bfad8045d85a470811462000dcb57604051633c88494760e01b81526001600160a01b03831660048201526024810182905260440162000456565b5050565b6001600160a01b0381166000908152600183016020526040812054151562000c3a565b600062000c3d8362000e05818562001160565b9250829055565b600062000e33600080516020620077548339815191526200118060201b620015db1760201c565b8051909150600081900362000e485750505050565b6000816001600160401b0381111562000e655762000e6562001211565b60405190808252806020026020018201604052801562000e8f578160200160208202803683370190505b5090506000826001600160401b0381111562000eaf5762000eaf62001211565b60405190808252806020026020018201604052801562000ee457816020015b606081526020019060019003908162000ece5790505b5090506000868660405160200162000efe92919062001820565b604051602081830303815290604052905060005b8481101562000fe35785818151811062000f305762000f3062001552565b60200260200101516001600160a01b03168260405162000f5191906200179b565b6000604051808303816000865af19150503d806000811462000f90576040519150601f19603f3d011682016040523d82523d6000602084013e62000f95565b606091505b5085838151811062000fab5762000fab62001552565b6020026020010185848151811062000fc75762000fc762001552565b6020908102919091010191909152901515905260010162000f12565b507fc0b07a27e66788f39cc91405f012f34066b16f31b4bda9438c52f2dae0cc5b63818685856040516200101b949392919062001853565b60405180910390a150505050505050565b600081516000036200104057506000919050565b60005b6001835103811015620010ce57600181015b8351811015620010c45783818151811062001074576200107462001552565b60200260200101516001600160a01b03168483815181106200109a576200109a62001552565b60200260200101516001600160a01b031603620010bb575060019392505050565b60010162001055565b5060010162001043565b50600092915050565b6000818152600183016020526040812054620011205750815460018181018455600084815260208082209093018490558454848252828601909352604090209190915562000c3d565b50600062000c3d565b6001600160a01b03811662000a095760405163104c66df60e31b81526001600160e01b031960003516600482015260240162000456565b815481018181101562000c3d57634e487b7160005260116020526024601cfd5b606060006200118f8362001196565b9392505050565b606081600001805480602002602001604051908101604052809291908181526020018280548015620011e857602002820191906000526020600020905b815481526020019060010190808311620011d3575b50505050509050919050565b80516001600160a01b03811681146200120c57600080fd5b919050565b634e487b7160e01b600052604160045260246000fd5b604051601f8201601f191681016001600160401b038111828210171562001252576200125262001211565b604052919050565b60006001600160401b0382111562001276576200127662001211565b5060051b60200190565b600082601f8301126200129257600080fd5b81516020620012ab620012a5836200125a565b62001227565b82815260059290921b84018101918181019086841115620012cb57600080fd5b8286015b84811015620012f157620012e381620011f4565b8352918301918301620012cf565b509695505050505050565b600082601f8301126200130e57600080fd5b8151602062001321620012a5836200125a565b82815260059290921b840181019181810190868411156200134157600080fd5b8286015b84811015620012f15780516001600160601b0381168114620013675760008081fd5b835291830191830162001345565b600082601f8301126200138757600080fd5b815160206200139a620012a5836200125a565b82815260059290921b84018101918181019086841115620013ba57600080fd5b8286015b84811015620012f157805160048110620013d85760008081fd5b8352918301918301620013be565b60008060008060008060008060008060006101608c8e0312156200140957600080fd5b8b519a5060208c0151995060408c0151985060608c015197506200143060808d01620011f4565b60a08d01519097506001600160401b038111156200144d57600080fd5b6200145b8e828f0162001280565b60c08e015190975090506001600160401b038111156200147a57600080fd5b620014888e828f0162001280565b60e08e015190965090506001600160401b03811115620014a757600080fd5b620014b58e828f0162001280565b6101008e015190955090506001600160401b03811115620014d557600080fd5b620014e38e828f01620012fc565b6101208e015190945090506001600160401b038111156200150357600080fd5b620015118e828f0162001375565b6101408e015190935090506001600160401b038111156200153157600080fd5b6200153f8e828f0162001280565b9150509295989b509295989b9093969950565b634e487b7160e01b600052603260045260246000fd5b634e487b7160e01b600052602160045260246000fd5b8082018082111562000c3d57634e487b7160e01b600052601160045260246000fd5b600081518084526020808501945080840160005b83811015620015db5781516001600160a01b031687529582019590820190600101620015b4565b509495945050505050565b600081518084526020808501945080840160005b83811015620015db578151151587529582019590820190600101620015fa565b6040815260006200162f6040830185620015a0565b8281036020840152620016438185620015e6565b95945050505050565b608081526000620016616080830187620015e6565b82810360208481019190915286518083528782019282019060005b81811015620016a35784516001600160601b0316835293830193918301916001016200167c565b50508481036040860152620016b98188620015a0565b925050508281036060840152620016d18185620015a0565b979650505050505050565b815160009082906020808601845b83811015620017115781516001600160a01b031685529382019390820190600101620016ea565b50929695505050505050565b81516000908290602080860184805b848110156200176857825160048082106200175457634e487b7160e01b845260218152602484fd5b50865294830194918301916001016200172c565b5093979650505050505050565b60005b838110156200179257818101518382015260200162001778565b50506000910152565b60008251620017af81846020870162001775565b9190910192915050565b60008151808452620017d381602086016020860162001775565b601f01601f19169290920160200192915050565b60208152600062000c3a6020830184620017b9565b6000602082840312156200180f57600080fd5b815180151581146200118f57600080fd5b6001600160e01b03198316815281516000906200184581600485016020870162001775565b919091016004019392505050565b608081526000620018686080830187620017b9565b6020838203818501526200187d8288620015a0565b91508382036040850152620018938287620015e6565b915083820360608501528185518084528284019150828160051b85010183880160005b83811015620018e857601f19878403018552620018d5838351620017b9565b94860194925090850190600101620018b6565b50909b9a5050505050505050505050565b608051615e2362001931600039600081816103bd015281816106a2015281816108a5015281816109ab01526112d60152615e236000f3fe608060405234801561001057600080fd5b50600436106102685760003560e01c80639a7d338211610151578063bc96180b116100c3578063de981f1b11610087578063de981f1b1461061b578063e75235b814610646578063e9c034981461064e578063f80b535214610661578063fb4f637114610669578063fdc4fa471461067c57600080fd5b8063bc96180b146105c3578063c441c4a8146105cb578063cc7e6b3b146105e2578063d78392f8146105f5578063dafae4081461060857600080fd5b8063ada86b2411610115578063ada86b24146104ff578063b384abef14610507578063b405aaf214610562578063b9c3620914610575578063bc4e068f1461059d578063bc9182fd146105b057600080fd5b80639a7d3382146104ab5780639b19dbfd146104be5780639b2ee437146104c6578063a1819f9a146104d9578063a8a0e32c146104ec57600080fd5b80632faf925d116101ea578063562d5304116101ae578063562d5304146103ff578063663ac011146104075780637de5dedd1461041a578063828fc1a114610422578063865e6fd314610435578063901979d51461044857600080fd5b80632faf925d1461037257806334d5f37b1461038557806335da8121146103a55780633644e515146103b857806341b02cc7146103df57600080fd5b80630f7c3189116102315780630f7c3189146102f25780631c905e39146103075780631f425338146103295780632c5e65201461033c5780632d6d7d731461035f57600080fd5b80624054b81461026d57806301a5f43f1461028257806309fcd8c7146102ab5780630a44fa43146102be5780630b881830146102df575b600080fd5b61028061027b366004614a2e565b61068f565b005b610295610290366004614ac2565b6106ce565b6040516102a29190614b98565b60405180910390f35b6102806102b9366004614bab565b610781565b6102d16102cc366004614c7a565b610816565b6040519081526020016102a2565b6102806102ed366004614a2e565b61089b565b6102fa6108c9565b6040516102a29190614cf4565b61031a610315366004614d07565b6108e7565b6040516102a293929190614d53565b610295610337366004614c7a565b610903565b61034f61034a366004614e1b565b610950565b60405190151581526020016102a2565b6102fa61036d366004614c7a565b61095d565b610280610380366004614e50565b6109a1565b6102d1610393366004614ea9565b60006020819052908152604090205481565b6102956103b3366004614c7a565b6109cf565b6102d17f000000000000000000000000000000000000000000000000000000000000000081565b6103f26103ed366004614c7a565b610a15565b6040516102a29190614ef2565b6102d1610b27565b610280610415366004614f14565b610b40565b6102d1610c2d565b61034f610430366004614ff1565b610ca9565b61028061044336600461502c565b610cb7565b6102d1610456366004615056565b6001600160a01b039081166000908152600080516020615db783398151915260209081526040808320549093168252600080516020615d9783398151915290522054600160a01b90046001600160601b031690565b6102806104b9366004614d07565b610cd6565b6102fa610d22565b6102806104d4366004615056565b610d2c565b6102806104e7366004615071565b610ec8565b6102806104fa36600461514a565b610f8f565b6102d1610fab565b610551610515366004614d07565b600160208181526000938452604080852090915291835291208054918101546002820154600383015460069093015460ff909416939192909185565b6040516102a295949392919061518e565b61034f610570366004615056565b610fc3565b610588610583366004614d07565b610fdd565b604080519283526020830191909152016102a2565b61031a6105ab366004614ea9565b610ffe565b6102fa6105be3660046152e8565b61101b565b6102d161110c565b6105d3611117565b6040516102a29392919061531c565b6103f26105f0366004614c7a565b611141565b6102d1610603366004615056565b61117f565b61034f610616366004614ea9565b61118a565b61062e61062936600461535f565b6111c7565b6040516001600160a01b0390911681526020016102a2565b610588611242565b61029561065c366004614c7a565b611273565b6102fa6112b9565b610280610677366004614e50565b6112c3565b6102fa61068a366004614c7a565b611303565b610698336115e8565b6106c785858585857f000000000000000000000000000000000000000000000000000000000000000033611624565b5050505050565b60606106d86116c9565b61077687878080602002602001604051908101604052809392919081815260200183836020028082843760009201919091525050604080516020808b0282810182019093528a82529093508a92508991829185019084908082843760009201919091525050604080516020808a028281018201909352898252909350899250889182918501908490808284376000920191909152506116f992505050565b979650505050505050565b61078a336115e8565b61080b8989898989808060200260200160405190810160405280939291908181526020018383602002808284376000920191909152506107d092508a91508b9050615445565b878780806020026020016040519081016040528093929190818152602001838360200280828437600092019190915250339250611a75915050565b505050505050505050565b60008282808060200260200160405190810160405280939291908181526020018383602002808284376000920191909152506108579250839150611bd29050565b610893848480806020026020016040519081016040528093929190818152602001838360200280828437600092019190915250611c0792505050565b949350505050565b6106c785858585857f0000000000000000000000000000000000000000000000000000000000000000611cae565b60606108e2600080516020615d378339815191526115db565b905090565b60608060606108f68585611d62565b9250925092509250925092565b606061090d6116c9565b61094983838080602002602001604051908101604052809392919081815260200183836020028082843760009201919091525061214b92505050565b9392505050565b600061089384848461220d565b606061094983838080602002602001604051908101604052809392919081815260200183836020028082843760009201829052509250612243915050565b92915050565b6106c785858585857f000000000000000000000000000000000000000000000000000000000000000061239d565b60606109d96116c9565b6109498383808060200260200160405190810160405280939291908181526020018383602002808284376000920191909152506124c092505050565b606081806001600160401b03811115610a3057610a306151c3565b604051908082528060200260200182016040528015610a59578160200160208202803683370190505b509150600080516020615db7833981519152600080516020615d9783398151915260005b83811015610b1d578160008460008a8a86818110610a9d57610a9d615452565b9050602002016020810190610ab29190615056565b6001600160a01b039081168252602080830193909352604091820160009081205490911684529183019390935291019020548551600160a01b9091046001600160601b031690869083908110610b0a57610b0a615452565b6020908102919091010152600101610a7d565b5050505092915050565b60006108e2600080516020615dd78339815191526125b2565b610b49336115e8565b60003390506000610c12468d8d8d80806020026020016040519081016040528093929190818152602001838360200280828437600081840152601f19601f820116905080830192505050505050508c8c80806020026020016040519081016040528093929190818152602001838360200280828437600092019190915250610bd792508d91508e9050615445565b8a8a808060200260200160405190810160405280939291908181526020018383602002808284376000920191909152508b92506125bc915050565b9050610c1f8282856126cb565b505050505050505050505050565b6000610c45600080516020615d578339815191525490565b6001610c5d600080516020615d578339815191525490565b610c8b610c76600080516020615df78339815191525490565b600080516020615d77833981519152906127e1565b610c95919061547e565b610c9f9190615491565b6108e291906154a4565b60006109496000848461220d565b610cbf6116c9565b610cc88161280c565b610cd28282612842565b5050565b6000828152600160208181526040808420858552909152822090810154909103610d135760405163713b099760e11b815260040160405180910390fd5b610d1c816128e6565b50505050565b60606108e2612afb565b610d35336115e8565b610d3e81612b14565b336000908152600080516020615d9783398151915260208190526040909120546001600160a01b039081169083168103610d9b57604051630669b93360e31b81526001600160a01b03841660048201526024015b60405180910390fd5b600080516020615dd78339815191526000610db68284612b7a565b8015610dc75750610dc782866113ee565b905080610df25760405163080fab4b60e31b81526001600160a01b0386166004820152602401610d92565b6001600160a01b038381166000818152600080516020615db78339815191526020818152604080842080546001600160a01b0319908116909155958b16808552818520805488163390811790915585528a8352938190208054909616841790955584519081019390935292820152610e85906364b18d0960e11b906060015b604051602081830303815290604052612b8f565b6040516001600160a01b03808816919086169033907fcef34cd748f30a1b7a2f214fd1651779f79bc6c1be02785cad5c1f0ee877213d90600090a4505050505050565b610ed1336115e8565b610f828a8a8a8a8080602002602001604051908101604052809392919081815260200183836020028082843760009201919091525050604080516020808e0282810182019093528d82529093508d92508c918291850190849080828437600092019190915250610f4792508a91508b9050615445565b8787808060200260200160405190810160405280939291908181526020018383602002808284376000920191909152503392506125bc915050565b5050505050505050505050565b610f98336115e8565b610cd233610fa584615541565b836126cb565b60006108e2600080516020615df78339815191525490565b600061099b600080516020615dd783398151915283611503565b600080610fe86116c9565b610ff28484612d84565b915091505b9250929050565b606080606061100e600085611d62565b9250925092509193909250565b8051606090806001600160401b03811115611038576110386151c3565b604051908082528060200260200182016040528015611061578160200160208202803683370190505b509150600080516020615d9783398151915260005b828110156111045781600086838151811061109357611093615452565b60200260200101516001600160a01b03166001600160a01b0316815260200190815260200160002060000160009054906101000a90046001600160a01b03168482815181106110e4576110e4615452565b6001600160a01b0390921660209283029190910190910152600101611076565b505050919050565b60006108e260025490565b6060806060611124612e79565b925061112f8361101b565b915061113a83612ea4565b9050909192565b6060610949838380806020026020016040519081016040528093929190818152602001838360200280828437600092019190915250612ea492505050565b600061099b82612f89565b60006111a5610c76600080516020615df78339815191525490565b600080516020615d57833981519152546111bf9084615615565b101592915050565b60007fdea3103d22025c269050bea94c0c84688877f12fa22b7e6d2d5d78a9a49aa1cb600083600d8111156111fe576111fe614d29565b60ff1681526020810191909152604001600020546001600160a01b031690508061123d578160405163409140df60e11b8152600401610d92919061562c565b919050565b60008061125b600080516020615d778339815191525490565b600080516020615d5783398151915254915091509091565b606061127d6116c9565b610949838380806020026020016040519081016040528093929190818152602001838360200280828437600092019190915250612fc192505050565b60606108e2612e79565b6112cc336115e8565b6112fb85858585857f0000000000000000000000000000000000000000000000000000000000000000336132a6565b505050505050565b606081806001600160401b0381111561131e5761131e6151c3565b604051908082528060200260200182016040528015611347578160200160208202803683370190505b509150600080516020615db783398151915260005b828110156113e15781600087878481811061137957611379615452565b905060200201602081019061138e9190615056565b6001600160a01b03908116825260208201929092526040016000205485519116908590839081106113c1576113c1615452565b6001600160a01b039092166020928302919091019091015260010161135c565b50505092915050565b9055565b6000610949836001600160a01b0384166132f5565b81518151606091908082016001600160401b03811115611425576114256151c3565b60405190808252806020026020018201604052801561144e578160200160208202803683370190505b50925060005b828110156114a85785818151811061146e5761146e615452565b602002602001015184828151811061148857611488615452565b6001600160a01b0390921660209283029190910190910152600101611454565b60005b82811015610b1d578581815181106114c5576114c5615452565b60200260200101518583815181106114df576114df615452565b6001600160a01b0390921660209283029190910190910152600191820191016114ab565b6001600160a01b03811660009081526001830160205260408120541515610949565b600061099b836115358585613344565b9250829055565b6000815160000361154f57506000919050565b60005b60018351038110156115d257600181015b83518110156115c95783818151811061157e5761157e615452565b60200260200101516001600160a01b03168483815181106115a1576115a1615452565b60200260200101516001600160a01b0316036115c1575060019392505050565b600101611563565b50600101611552565b50600092915050565b6060600061094983613363565b6115f181612f89565b600003611621576000356001600160e01b0319166003604051620f948f60ea1b8152600401610d92929190615646565b50565b61163661163088615541565b826133bf565b50600061164a61164589615541565b6134be565b90506116bf61165889615541565b888888886116ab8961166b8960006135fd565b60405161190160f01b6020820152602281018390526042810182905260009060620160405160208183030381529060405280519060200120905092915050565b6116ba8a61166b8a60016135fd565b613636565b5050505050505050565b3330146116f7576000356001600160e01b0319166040516307337e1960e41b8152600401610d929190615674565b565b60606117058383611403565b61170e81611bd2565b82518551811480156117205750845181145b61174b576000356001600160e01b0319166040516306b5667560e21b8152600401610d929190615674565b806001600160401b03811115611763576117636151c3565b60405190808252806020026020018201604052801561178c578160200160208202803683370190505b5092508060000361179d5750611a6d565b604080518082019091526000808252602082018190527f546f6b46ab35b030b6816596b352aef78857377176c8b24baa2046a62cf1998c91600080516020615db783398151915291600080516020615dd783398151915291600080516020615d97833981519152919081908190815b898110156119ee578d818151811061182657611826615452565b602002602001015194508c818151811061184257611842615452565b6020026020010151935061185585612b14565b61185e84612b14565b8e818151811061187057611870615452565b60200260200101516001600160601b03166000036118af576000356001600160e01b031916604051637f11b8a360e11b8152600401610d929190615674565b6118b98986611503565b806118c957506118c98985611503565b806118d957506118d98786611503565b806118e957506118e98785611503565b158c82815181106118fc576118fc615452565b6020026020010190151590811515815250508b818151811061192057611920615452565b6020026020010151156119e65761193789866113ee565b5061194287856113ee565b506001600160a01b03848116600081815260208b90526040902080546001600160a01b0319169288169290921790915582528e518f908290811061198857611988615452565b6020908102919091018101516001600160601b03169083018190526119ad908461547e565b6001600160a01b038087166000908152602089815260409091208551918601516001600160601b0316600160a01b029190921617905592505b60010161180c565b50611a07600080516020615df783398151915283611525565b50611a26635ebae8a060e01b8d8d604051602001610e71929190615689565b7f897810999654e525e272b5909785c4d0ceaee1bbf9c87d9091a37558b0423b788b8f8f8f604051611a5b94939291906156b7565b60405180910390a15050505050505050505b509392505050565b6000611a81600061389b565b905060006040518060c001604052808381526020018a8152602001898980806020026020016040519081016040528093929190818152602001838360200280828437600092018290525093855250505060208083018a905260408084018a9052606090930188905282518b820281810183019094528b81529394509092611b3292611b2b928d918d9182919085019084908082843760009201919091525060019250612243915050565b839061394b565b9050611b4960025482613a3d90919063ffffffff16565b6000611b54826134be565b6000858152600080516020615d1783398151915260205260409020600181018290556006018c9055905080847f771d78ae9e5fca95a532fb0971d575d0ce9b59d14823c063e08740137e0e0eca84611bab87613ade565b878a604051611bbd9493929190615859565b60405180910390a35050505050505050505050565b611bdb8161153c565b15611621576000356001600160e01b031916604051630d697db160e11b8152600401610d929190615674565b600081611c1381611bd2565b6000611c2c600080516020615dd78339815191526125b2565b9050600080516020615d9783398151915260005b82811015611ca557816000878381518110611c5d57611c5d615452565b6020908102919091018101516001600160a01b0316825281019190915260400160002054611c9b90600160a01b90046001600160601b03168661547e565b9450600101611c40565b50505050919050565b6000611cbc61164588615541565b6020808901356000908152600180835260408083208c35845290935291902001549091508114611d2b576020808801356000908152600180835260408083208b3584529093529082902001549051632bee7fdb60e21b8152610d92918391600401918252602082015260400190565b611d59611d3788615541565b87878787611d4a8861166b8960006135fd565b6116ba8961166b8a60016135fd565b50505050505050565b60008281526001602090815260408083208484529091528120600481015460058201546060938493849390929091611d9a828461547e565b9050806001600160401b03811115611db457611db46151c3565b604051908082528060200260200182016040528015611ddd578160200160208202803683370190505b509550806001600160401b03811115611df857611df86151c3565b604051908082528060200260200182016040528015611e4357816020015b6040805160608101825260008082526020808301829052928201528252600019909201910181611e165790505b509450806001600160401b03811115611e5e57611e5e6151c3565b604051908082528060200260200182016040528015611e87578160200160208202803683370190505b50965060005b83811015611fdc576000878281518110611ea957611ea9615452565b60200260200101906001811115611ec257611ec2614d29565b90816001811115611ed557611ed5614d29565b90525060008a81526001602090815260408083208c845290915281206004870180546007909201929184908110611f0e57611f0e615452565b60009182526020808320909101546001600160a01b0316835282810193909352604091820190208151606081018352815460ff16815260018201549381019390935260020154908201528651879083908110611f6c57611f6c615452565b6020026020010181905250846004018181548110611f8c57611f8c615452565b9060005260206000200160009054906101000a90046001600160a01b0316888281518110611fbc57611fbc615452565b6001600160a01b0390921660209283029190910190910152600101611e8d565b5060005b8281101561213f57600187611ff5868461547e565b8151811061200557612005615452565b6020026020010190600181111561201e5761201e614d29565b9081600181111561203157612031614d29565b90525060008a81526001602090815260408083208c84529091528120600587018054600790920192918490811061206a5761206a615452565b60009182526020808320909101546001600160a01b0316835282810193909352604091820190208151606081018352815460ff1681526001820154938101939093526002015490820152866120bf868461547e565b815181106120cf576120cf615452565b60200260200101819052508460050181815481106120ef576120ef615452565b6000918252602090912001546001600160a01b03168861210f868461547e565b8151811061211f5761211f615452565b6001600160a01b0390921660209283029190910190910152600101611fe0565b50505050509250925092565b60608161215781611bd2565b8251806001600160401b03811115612171576121716151c3565b60405190808252806020026020018201604052801561219a578160200160208202803683370190505b509250600080516020615d3783398151915260005b82811015611ca5576121e38682815181106121cc576121cc615452565b602002602001015183612b7a90919063ffffffff16565b8582815181106121f5576121f5615452565b911515602092830291909101909101526001016121af565b600083815260016020908152604080832085845282528083206001600160a01b038516845260080190915281205460ff16610893565b606082516001600160401b0381111561225e5761225e6151c3565b604051908082528060200260200182016040528015612287578160200160208202803683370190505b50905060005b835181101561239657600360008583815181106122ac576122ac615452565b602002602001015160038111156122c5576122c5614d29565b60038111156122d6576122d6614d29565b815260200190815260200160002060009054906101000a90046001600160a01b031682828151811061230a5761230a615452565b60200260200101906001600160a01b031690816001600160a01b031681525050828015612362575060006001600160a01b031682828151811061234f5761234f615452565b60200260200101516001600160a01b0316145b1561238e576000356001600160e01b03191660405163053265f160e01b8152600401610d929190615674565b60010161228d565b5092915050565b60006123fb6123ec6123b260408a018a615947565b8080602002602001604051908101604052809392919081815260200183836020028082843760009201919091525060019250612243915050565b6123f5896159f9565b9061394b565b90506000612408826134be565b60008080526001602081815285518352600080516020615d1783398151915290526040909120015490915081146124855760008080526001602081815284518352600080516020615d17833981519152905260409182902001549051632bee7fdb60e21b8152610d92918391600401918252602082015260400190565b60006124986124938a6159f9565b613ade565b905061080b83898989896124b18a61166b8960006135fd565b6116ba8b61166b8a60016135fd565b6060816124cc81611bd2565b8251806001600160401b038111156124e6576124e66151c3565b60405190808252806020026020018201604052801561250f578160200160208202803683370190505b5092508060000361252057506125ac565b600080516020615d3783398151915260006314d72edb60e21b815b848110156125a65787818151811061255557612555615452565b602002602001015192506125688361280c565b6125728383613c15565b61257c84846113ee565b87828151811061258e5761258e615452565b9115156020928302919091019091015260010161253b565b50505050505b50919050565b600061099b825490565b6125c4614925565b876000036125f8576000356001600160e01b03191660004660405163092048d160e11b8152600401610d9293929190615ac3565b60006126038961389b565b90506040518060e001604052808281526020018a815260200189815260200188815260200187815260200186815260200185815250915061264f60025483613a3d90919063ffffffff16565b600061265a836134be565b60008b81526001602081815260408084208785529091529091209081018290556006018a9055905080828b7fa57d40f1496988cf60ab7c9d5ba4ff83647f67d3898d441a3aaf21b651678fd986886040516126b6929190615ae5565b60405180910390a45050979650505050505050565b4682602001511461270457602082015160405163092048d160e11b8152610d92916001600160e01b031960003516914690600401615ac3565b600061270f836134be565b602080850151600090815260018083526040808320885184529093529190200154909150811461277e57602080840151600090815260018083526040808320875184529093529082902001549051632bee7fdb60e21b8152610d92918391600401918252602082015260400190565b6000612788613da8565b9050600081612795613db2565b61279f9190615491565b6127aa90600161547e565b60408051606081018252600080825260208201819052918101919091529091506116bf868685858b866127dc8e61117f565b613dbc565b600082548015612396578281029150808204831461239657634e487b7160005260116020526024601cfd5b806001600160a01b03163b60000361162157604051630bfc64a360e21b81526001600160a01b0382166004820152602401610d92565b807fdea3103d22025c269050bea94c0c84688877f12fa22b7e6d2d5d78a9a49aa1cb600084600d81111561287857612878614d29565b60ff168152602081019190915260400160002080546001600160a01b0319166001600160a01b03928316179055811682600d8111156128b9576128b9614d29565b6040517f865d1c228a8ea13709cfe61f346f7ff67f1bbd4a18ff31ad3e7147350d317c5990600090a35050565b600080825460ff1660048111156128ff576128ff614d29565b148015612910575042826006015411155b9050801561123d5760018201546040517f58f98006a7f2f253f8ae8f8b7cec9008ca05359633561cd7c22f3005682d4a5590600090a260005b60048301548110156129fc5782600801600084600401838154811061297057612970615452565b60009182526020808320909101546001600160a01b031683528201929092526040018120805460ff1916905560048401805460078601929190849081106129b9576129b9615452565b60009182526020808320909101546001600160a01b031683528201929092526040018120805460ff19168155600181810183905560029091019190915501612949565b5060005b6005830154811015612ab357826008016000846005018381548110612a2757612a27615452565b60009182526020808320909101546001600160a01b031683528201929092526040018120805460ff191690556005840180546007860192919084908110612a7057612a70615452565b60009182526020808320909101546001600160a01b031683528201929092526040018120805460ff19168155600181810183905560029091019190915501612a00565b50815460ff191682556000600183018190556002830181905560038301819055612ae1906004840190614962565b612aef600583016000614962565b60006006830155919050565b60606108e2600080516020615dd78339815191526115db565b612b1d81614105565b6001600160a01b0381163f7fc5d2460186f7233c927e7db2dcc703c0e500b653ca82273b7bfad8045d85a4708114610cd257604051633c88494760e01b81526001600160a01b038316600482015260248101829052604401610d92565b6000610949836001600160a01b03841661413a565b6000612ba8600080516020615d378339815191526115db565b80519091506000819003612bbc5750505050565b6000816001600160401b03811115612bd657612bd66151c3565b604051908082528060200260200182016040528015612bff578160200160208202803683370190505b5090506000826001600160401b03811115612c1c57612c1c6151c3565b604051908082528060200260200182016040528015612c4f57816020015b6060815260200190600190039081612c3a5790505b50905060008686604051602001612c67929190615b0f565b604051602081830303815290604052905060005b84811015612d3d57858181518110612c9557612c95615452565b60200260200101516001600160a01b031682604051612cb49190615b40565b6000604051808303816000865af19150503d8060008114612cf1576040519150601f19603f3d011682016040523d82523d6000602084013e612cf6565b606091505b50858381518110612d0957612d09615452565b60200260200101858481518110612d2257612d22615452565b60209081029190910101919091529015159052600101612c7b565b507fc0b07a27e66788f39cc91405f012f34066b16f31b4bda9438c52f2dae0cc5b6381868585604051612d739493929190615b5c565b60405180910390a150505050505050565b60008082841115612db6576000356001600160e01b0319166040516387f6f09560e01b8152600401610d929190615674565b600080516020615d77833981519152549150612dde600080516020615d578339815191525490565b9050612df7600080516020615d77833981519152859055565b612e0e600080516020615d57833981519152849055565b8284612e397f92872d32822c9d44b36a2537d3e0d4c46fc4de1ce154ccfaed560a8a58445f1d61422d565b60408051868152602081018690527f976f8a9c5bdf8248dec172376d6e2b80a8e3df2f0328e381c6db8e1cf138c0f8910160405180910390a49250929050565b60606108e27f546f6b46ab35b030b6816596b352aef78857377176c8b24baa2046a62cf1998c6115db565b8051606090806001600160401b03811115612ec157612ec16151c3565b604051908082528060200260200182016040528015612eea578160200160208202803683370190505b509150600080516020615d9783398151915260005b8281101561110457816000868381518110612f1c57612f1c615452565b60200260200101516001600160a01b03166001600160a01b0316815260200190815260200160002060000160149054906101000a90046001600160601b03166001600160601b0316848281518110612f7657612f76615452565b6020908102919091010152600101612eff565b6001600160a01b03166000908152600080516020615d978339815191526020526040902054600160a01b90046001600160601b031690565b606081612fcd81611bd2565b8251806001600160401b03811115612fe757612fe76151c3565b604051908082528060200260200182016040528015613010578160200160208202803683370190505b5092508060000361302157506125ac565b60408051808201909152600080825260208201819052600080516020615db7833981519152917f546f6b46ab35b030b6816596b352aef78857377176c8b24baa2046a62cf1998c91600080516020615dd783398151915291600080516020615d97833981519152919081908190815b89811015613226578c81815181106130aa576130aa615452565b6020908102919091018101516001600160a01b038082166000908152928c9052604090922054909116955093506130e085614105565b6130e984614105565b6001600160a01b0385811660009081526020888152604091829020825180840190935254808416808452600160a01b9091046001600160601b0316918301919091529093509085161461315d576000356001600160e01b03191660405163053265f160e01b8152600401610d929190615674565b6131678785611503565b801561317857506131788886611503565b8c828151811061318a5761318a615452565b6020026020010190151590811515815250508b81815181106131ae576131ae615452565b60200260200101511561321e576131c58886612b7a565b506131d08785612b7a565b506001600160a01b03808516600090815260208b8152604080832080546001600160a01b031916905592881682528881529181205582015161321b906001600160601b03168461547e565b92505b600101613090565b5061323f600080516020615df783398151915283614248565b5061325e63c48549de60e01b8d8d604051602001610e71929190615689565b7fdf3dcd7987202f64648f3acdbf12401e3a2bb23e77e19f99826b5475cbb863698b8d60405161328f929190615ba9565b60405180910390a150505050505050505050919050565b6132ae614925565b6132c06132ba896159f9565b83614258565b905060006132d06124938a6159f9565b90506132e982898989896124b18a61166b8960006135fd565b50979650505050505050565b600081815260018301602052604081205461333c5750815460018181018455600084815260208082209093018490558454848252828601909352604090209190915561099b565b50600061099b565b815481018181101561099b57634e487b7160005260116020526024601cfd5b6060816000018054806020026020016040519081016040528092919081815260200182805480156133b357602002820191906000526020600020905b81548152602001906001019080831161339f575b50505050509050919050565b60208201516000908082036133fa576000356001600160e01b03191660004660405163092048d160e11b8152600401610d9293929190615ac3565b600254613408908590613a3d565b6000613413856134be565b905061341e8261389b565b6000838152600160208181526040808420858552909152918290209188015190820184905560069091015592508451831461347a576000356001600160e01b03191660405163d4cec26960e01b8152600401610d929190615674565b8083837fa57d40f1496988cf60ab7c9d5ba4ff83647f67d3898d441a3aaf21b651678fd988886040516134ae929190615ae5565b60405180910390a4505092915050565b6080810151606082015160a083015151600092919083906001600160401b038111156134ec576134ec6151c3565b604051908082528060200260200182016040528015613515578160200160208202803683370190505b5060c086015190915060005b8251811015613574578660a00151818151811061354057613540615452565b60200260200101518051906020012083828151811061356157613561615452565b6020908102919091010152600101613521565b50604080517fd051578048e6ff0bbc9fca3b65a42088dbde10f36ca841de566711087ad9b08a8152875160208083019190915280890151828401529790910151606082015283518702938701939093206080840152835186029386019390932060a0830152805185029085012060c082015281518402919093012060e083015250610100902090565b604080517fd900570327c4c0df8dd6bdd522b7da7e39145dd049d2fd4602276adcd511e3c2815260208101939093528201526060902090565b841580159061364457508483145b61366f576000356001600160e01b0319166040516306b5667560e21b8152600401610d929190615674565b6000613679613da8565b9050600081613686613db2565b6136909190615491565b61369b90600161547e565b9050600080366000805b8981101561385f578a8a828181106136bf576136bf615452565b606002919091019350600090508d8d838181106136de576136de615452565b90506020020160208101906136f39190615bce565b600181111561370457613704614d29565b03613730576137298961371a6020860186615bfa565b85602001358660400135614358565b93506137a7565b60018d8d8381811061374457613744615452565b90506020020160208101906137599190615bce565b600181111561376a5761376a614d29565b03613780576137298861371a6020860186615bfa565b6000356001600160e01b031916604051630612418f60e11b8152600401610d929190615674565b836001600160a01b0316856001600160a01b0316106137e7576000356001600160e01b031916604051635d3dcd3160e01b8152600401610d929190615674565b83945060006137f58561117f565b9050801561385657600192506138448f8f8f8581811061381757613817615452565b905060200201602081019061382c9190615bce565b8a8a8961383e368b90038b018b615c15565b87613dbc565b15613856575050505050505050611d59565b506001016136a5565b508061388c576000356001600160e01b03191660405163726b3acb60e01b8152600401610d929190615674565b50505050505050505050505050565b600081815260208190526040812054908190036138ca5750600090815260208190526040902060019081905590565b60008281526001602090815260408083208484529091528120906138ed826128e6565b905080613944576000825460ff16600481111561390c5761390c614d29565b0361392a5760405163757a436360e01b815260040160405180910390fd5b600084815260208190526040902080546001019081905592505b5050919050565b613953614925565b82518152602080840151604080840191909152600091830191909152830151516001600160401b0381111561398a5761398a6151c3565b6040519080825280602002602001820160405280156139b3578160200160208202803683370190505b5060608083019190915283015160808083019190915283015160a08083019190915283015160c082015260005b836040015151811015612396578281815181106139ff576139ff615452565b602002602001015182606001518281518110613a1d57613a1d615452565b6001600160a01b03909216602092830291909101909101526001016139e0565b6000826060015151118015613a5b5750816080015151826060015151145b8015613a7057508160a0015151826060015151145b8015613a8557508160c0015151826060015151145b613ab0576000356001600160e01b0319166040516306b5667560e21b8152600401610d929190615674565b613aba814261547e565b82604001511115610cd25760405163ad89be9d60e01b815260040160405180910390fd5b60608101516040820151608083015151600092919083906001600160401b03811115613b0c57613b0c6151c3565b604051908082528060200260200182016040528015613b35578160200160208202803683370190505b5060a086015190915060005b8251811015613b945786608001518181518110613b6057613b60615452565b602002602001015180519060200120838281518110613b8157613b81615452565b6020908102919091010152600101613b41565b50604080517f1463f426c05aff2c1a7a0957a71c9898bc8b47142540538e79ee25ee911413508152875160208083019190915297880151918101919091528351870293870193909320606084015283518602938601939093206080830152805185029085012060a082015281518402919093012060c08301525060e0902090565b600081604051602401613c289190615674565b60408051601f198184030181529181526020820180516001600160e01b03166301ffc9a760e01b1790525190915060009081906001600160a01b03861690613c71908590615b40565b600060405180830381855afa9150503d8060008114613cac576040519150601f19603f3d011682016040523d82523d6000602084013e613cb1565b606091505b509150915081613d7357846001600160a01b031683604051602401613cd69190615c75565b60408051601f198184030181529181526020820180516001600160e01b03166325da93a560e11b17905251613d0b9190615b40565b600060405180830381855afa9150503d8060008114613d46576040519150601f19603f3d011682016040523d82523d6000602084013e613d4b565b606091505b50909250905081613d7357838560405163069d427960e11b8152600401610d92929190615c88565b80806020019051810190613d879190615cab565b6106c757838560405163069d427960e11b8152600401610d92929190615c88565b60006108e2610c2d565b60006108e2610fab565b60208088015188516000828152600184526040808220838352909452928320613de4816128e6565b15613df55760019350505050610776565b6020808c015160009081529081905260409020548214613e36576000356001600160e01b03191660405163d4cec26960e01b8152600401610d929190615674565b6000815460ff166004811115613e4e57613e4e614d29565b14613e6c576040516322de95ff60e21b815260040160405180910390fd5b6001600160a01b038716600090815260088201602052604090205460ff1615613eb35760405163025fd59560e41b81526001600160a01b0388166004820152602401610d92565b6001600160a01b03871660009081526008820160209081526040909120805460ff19166001179055860151151580613eee5750604086015115155b80613efc5750855160ff1615155b15613f43576001600160a01b03871660009081526007820160209081526040918290208851815460ff191660ff909116178155908801516001820155908701516002909101555b866001600160a01b031681600101547f1203f9e81c814a35f5f4cc24087b2a24c6fb7986a9f1406b68a9484882c93a238c88604051613f83929190615ccd565b60405180910390a3600080808c6001811115613fa157613fa1614d29565b03613ff6576004830180546001810182556000918252602082200180546001600160a01b0319166001600160a01b038c16179055600384018054899290613fe990849061547e565b925050819055915061405b565b60018c600181111561400a5761400a614d29565b03613780576005830180546001810182556000918252602082200180546001600160a01b0319166001600160a01b038c1617905560028401805489929061405290849061547e565b92505081905590505b8a82106140af57825460ff19166001908117845580840154604051919750907f5c819725ea53655a3b898f3df59b66489761935454e9212ca1e5ebd759953d0b90600090a26140aa838e614380565b6140f5565b8981106140f557825460ff19166003178355600180840154604051919750907f55295d4ce992922fa2e5ffbf3a3dcdb367de0a15e125ace083456017fd22060f90600090a25b5050505050979650505050505050565b6001600160a01b038116611621576000356001600160e01b03191660405163104c66df60e31b8152600401610d929190615674565b6000818152600183016020526040812054801561422357600061415e600183615491565b855490915060009061417290600190615491565b90508181146141d757600086600001828154811061419257614192615452565b90600052602060002001549050808760000184815481106141b5576141b5615452565b6000918252602080832090910192909255918252600188019052604090208390555b85548690806141e8576141e8615cdb565b60019003818190600052602060002001600090559055856001016000868152602001908152602001600020600090556001935050505061099b565b600091505061099b565b6000614237825490565b905061123d826113ea83600161547e565b600061099b8361153585856143ed565b614260614925565b61427961427284604001516001612243565b849061394b565b905061429060025482613a3d90919063ffffffff16565b600061429b826134be565b905060006142a9600061389b565b6000818152600080516020615d17833981519152602090815260409091209087015160018201859055600690910155905082518114614309576000356001600160e01b03191660405163d4cec26960e01b8152600401610d929190615674565b81817f771d78ae9e5fca95a532fb0971d575d0ce9b59d14823c063e08740137e0e0eca8561433689613ade565b89896040516143489493929190615859565b60405180910390a3505092915050565b600080600061436987878787614416565b9150915061437681614503565b5095945050505050565b614389816146b9565b15610cd257815460ff191660021782556000806143a5836146d3565b9150915083600101547fe134987599ae266ec90edeff1b26125b287dbb57b10822649432d1bb26537fba83836040516143df929190615cf1565b60405180910390a250505050565b600082548281101561440c57634e487b7160005260116020526024601cfd5b9190910392915050565b6000807f7fffffffffffffffffffffffffffffff5d576e7357a4501ddfe92f46681b20a083111561444d57506000905060036144fa565b8460ff16601b1415801561446557508460ff16601c14155b1561447657506000905060046144fa565b6040805160008082526020820180845289905260ff881692820192909252606081018690526080810185905260019060a0016020604051602081039080840390855afa1580156144ca573d6000803e3d6000fd5b5050604051601f1901519150506001600160a01b0381166144f3576000600192509250506144fa565b9150600090505b94509492505050565b600081600481111561451757614517614d29565b0361451f5750565b600181600481111561453357614533614d29565b036145805760405162461bcd60e51b815260206004820152601860248201527f45434453413a20696e76616c6964207369676e617475726500000000000000006044820152606401610d92565b600281600481111561459457614594614d29565b036145e15760405162461bcd60e51b815260206004820152601f60248201527f45434453413a20696e76616c6964207369676e6174757265206c656e677468006044820152606401610d92565b60038160048111156145f5576145f5614d29565b0361464d5760405162461bcd60e51b815260206004820152602260248201527f45434453413a20696e76616c6964207369676e6174757265202773272076616c604482015261756560f01b6064820152608401610d92565b600481600481111561466157614661614d29565b036116215760405162461bcd60e51b815260206004820152602260248201527f45434453413a20696e76616c6964207369676e6174757265202776272076616c604482015261756560f01b6064820152608401610d92565b600081602001516000148061099b57505060200151461490565b6060806146df836146b9565b61471157602083015160405163092048d160e11b8152610d92916001600160e01b031960003516914690600401615ac3565b8260600151516001600160401b0381111561472e5761472e6151c3565b604051908082528060200260200182016040528015614757578160200160208202803683370190505b5091508260600151516001600160401b03811115614777576147776151c3565b6040519080825280602002602001820160405280156147aa57816020015b60608152602001906001900390816147955790505b50905060005b83606001515181101561491f578360c0015181815181106147d3576147d3615452565b60200260200101515a11614806576147ea846134be565b6040516307aec4ab60e21b8152600401610d9291815260200190565b8360600151818151811061481c5761481c615452565b60200260200101516001600160a01b03168460800151828151811061484357614843615452565b60200260200101518560c00151838151811061486157614861615452565b6020026020010151908660a00151848151811061488057614880615452565b60200260200101516040516148959190615b40565b600060405180830381858888f193505050503d80600081146148d3576040519150601f19603f3d011682016040523d82523d6000602084013e6148d8565b606091505b508483815181106148eb576148eb615452565b6020026020010184848151811061490457614904615452565b602090810291909101019190915290151590526001016147b0565b50915091565b6040518060e00160405280600081526020016000815260200160008152602001606081526020016060815260200160608152602001606081525090565b508054600082559060005260206000209081019061162191905b80821115614990576000815560010161497c565b5090565b600060e082840312156125ac57600080fd5b60008083601f8401126149b857600080fd5b5081356001600160401b038111156149cf57600080fd5b6020830191508360208260051b8501011115610ff757600080fd5b60008083601f8401126149fc57600080fd5b5081356001600160401b03811115614a1357600080fd5b602083019150836020606083028501011115610ff757600080fd5b600080600080600060608688031215614a4657600080fd5b85356001600160401b0380821115614a5d57600080fd5b614a6989838a01614994565b96506020880135915080821115614a7f57600080fd5b614a8b89838a016149a6565b90965094506040880135915080821115614aa457600080fd5b50614ab1888289016149ea565b969995985093965092949392505050565b60008060008060008060608789031215614adb57600080fd5b86356001600160401b0380821115614af257600080fd5b614afe8a838b016149a6565b90985096506020890135915080821115614b1757600080fd5b614b238a838b016149a6565b90965094506040890135915080821115614b3c57600080fd5b50614b4989828a016149a6565b979a9699509497509295939492505050565b600081518084526020808501945080840160005b83811015614b8d578151151587529582019590820190600101614b6f565b509495945050505050565b6020815260006109496020830184614b5b565b600080600080600080600080600060a08a8c031215614bc957600080fd5b8935985060208a01356001600160401b0380821115614be757600080fd5b614bf38d838e016149a6565b909a50985060408c0135915080821115614c0c57600080fd5b614c188d838e016149a6565b909850965060608c0135915080821115614c3157600080fd5b614c3d8d838e016149a6565b909650945060808c0135915080821115614c5657600080fd5b50614c638c828d016149a6565b915080935050809150509295985092959850929598565b60008060208385031215614c8d57600080fd5b82356001600160401b03811115614ca357600080fd5b614caf858286016149a6565b90969095509350505050565b600081518084526020808501945080840160005b83811015614b8d5781516001600160a01b031687529582019590820190600101614ccf565b6020815260006109496020830184614cbb565b60008060408385031215614d1a57600080fd5b50508035926020909101359150565b634e487b7160e01b600052602160045260246000fd5b60028110614d4f57614d4f614d29565b9052565b60006060808352614d6681840187614cbb565b83810360208581019190915286518083528782019282019060005b81811015614da457614d94838651614d3f565b9383019391830191600101614d81565b505060409250858103838701528087518083528383019150838901925060005b81811015614df4578351805160ff1684528581015186850152860151868401529284019291860191600101614dc4565b50909a9950505050505050505050565b80356001600160a01b038116811461123d57600080fd5b600080600060608486031215614e3057600080fd5b8335925060208401359150614e4760408501614e04565b90509250925092565b600080600080600060608688031215614e6857600080fd5b85356001600160401b0380821115614e7f57600080fd5b9087019060c0828a031215614e9357600080fd5b90955060208701359080821115614a7f57600080fd5b600060208284031215614ebb57600080fd5b5035919050565b600081518084526020808501945080840160005b83811015614b8d57815187529582019590820190600101614ed6565b6020815260006109496020830184614ec2565b80356002811061123d57600080fd5b60008060008060008060008060008060c08b8d031215614f3357600080fd5b8a35995060208b01356001600160401b0380821115614f5157600080fd5b614f5d8e838f016149a6565b909b50995060408d0135915080821115614f7657600080fd5b614f828e838f016149a6565b909950975060608d0135915080821115614f9b57600080fd5b614fa78e838f016149a6565b909750955060808d0135915080821115614fc057600080fd5b50614fcd8d828e016149a6565b9094509250614fe0905060a08c01614f05565b90509295989b9194979a5092959850565b6000806040838503121561500457600080fd5b8235915061501460208401614e04565b90509250929050565b8035600e811061123d57600080fd5b6000806040838503121561503f57600080fd5b6150488361501d565b915061501460208401614e04565b60006020828403121561506857600080fd5b61094982614e04565b60008060008060008060008060008060c08b8d03121561509057600080fd5b8a35995060208b0135985060408b01356001600160401b03808211156150b557600080fd5b6150c18e838f016149a6565b909a50985060608d01359150808211156150da57600080fd5b6150e68e838f016149a6565b909850965060808d01359150808211156150ff57600080fd5b61510b8e838f016149a6565b909650945060a08d013591508082111561512457600080fd5b506151318d828e016149a6565b915080935050809150509295989b9194979a5092959850565b6000806040838503121561515d57600080fd5b82356001600160401b0381111561517357600080fd5b61517f85828601614994565b92505061501460208401614f05565b60a08101600587106151a2576151a2614d29565b95815260208101949094526040840192909252606083015260809091015290565b634e487b7160e01b600052604160045260246000fd5b60405160e081016001600160401b03811182821017156151fb576151fb6151c3565b60405290565b60405160c081016001600160401b03811182821017156151fb576151fb6151c3565b604051601f8201601f191681016001600160401b038111828210171561524b5761524b6151c3565b604052919050565b60006001600160401b0382111561526c5761526c6151c3565b5060051b60200190565b600082601f83011261528757600080fd5b8135602061529c61529783615253565b615223565b82815260059290921b840181019181810190868411156152bb57600080fd5b8286015b848110156152dd576152d081614e04565b83529183019183016152bf565b509695505050505050565b6000602082840312156152fa57600080fd5b81356001600160401b0381111561531057600080fd5b61089384828501615276565b60608152600061532f6060830186614cbb565b82810360208401526153418186614cbb565b905082810360408401526153558185614ec2565b9695505050505050565b60006020828403121561537157600080fd5b6109498261501d565b600061538861529784615253565b8381529050602080820190600585901b8401868111156153a757600080fd5b845b8181101561543a5780356001600160401b03808211156153c95760008081fd5b8188019150601f8a818401126153df5760008081fd5b8235828111156153f1576153f16151c3565b615402818301601f19168801615223565b92508083528b8782860101111561541b57600091508182fd5b80878501888501376000908301870152508552509282019282016153a9565b505050509392505050565b600061094936848461537a565b634e487b7160e01b600052603260045260246000fd5b634e487b7160e01b600052601160045260246000fd5b8082018082111561099b5761099b615468565b8181038181111561099b5761099b615468565b6000826154c157634e487b7160e01b600052601260045260246000fd5b500490565b600082601f8301126154d757600080fd5b813560206154e761529783615253565b82815260059290921b8401810191818101908684111561550657600080fd5b8286015b848110156152dd578035835291830191830161550a565b600082601f83011261553257600080fd5b6109498383356020850161537a565b600060e0823603121561555357600080fd5b61555b6151d9565b82358152602083013560208201526040830135604082015260608301356001600160401b038082111561558d57600080fd5b61559936838701615276565b606084015260808501359150808211156155b257600080fd5b6155be368387016154c6565b608084015260a08501359150808211156155d757600080fd5b6155e336838701615521565b60a084015260c08501359150808211156155fc57600080fd5b50615609368286016154c6565b60c08301525092915050565b808202811582820484141761099b5761099b615468565b60208101600e831061564057615640614d29565b91905290565b6001600160e01b031983168152604081016009831061566757615667614d29565b8260208301529392505050565b6001600160e01b031991909116815260200190565b60408152600061569c6040830185614cbb565b82810360208401526156ae8185614b5b565b95945050505050565b6080815260006156ca6080830187614b5b565b82810360208481019190915286518083528782019282019060005b8181101561570a5784516001600160601b0316835293830193918301916001016156e5565b5050848103604086015261571e8188614cbb565b9250505082810360608401526107768185614cbb565b60005b8381101561574f578181015183820152602001615737565b50506000910152565b60008151808452615770816020860160208601615734565b601f01601f19169290920160200192915050565b600081518084526020808501808196508360051b8101915082860160005b858110156157cc5782840389526157ba848351615758565b988501989350908401906001016157a2565b5091979650505050505050565b8051825260208101516020830152604081015160408301526000606082015160e0606085015261580c60e0850182614cbb565b9050608083015184820360808601526158258282614ec2565b91505060a083015184820360a086015261583f8282615784565b91505060c083015184820360c08601526156ae8282614ec2565b60808152600061586c60808301876157d9565b60208681850152838203604085015260c08201865183528187015182840152604087015160c0604085015281815180845260e0860191508483019350600092505b808310156158dd578351600481106158c7576158c7614d29565b82529284019260019290920191908401906158ad565b506060890151935084810360608601526158f78185614ec2565b9350505050608086015182820360808401526159138282615784565b91505060a086015182820360a084015261592d8282614ec2565b93505050506156ae60608301846001600160a01b03169052565b6000808335601e1984360301811261595e57600080fd5b8301803591506001600160401b0382111561597857600080fd5b6020019150600581901b3603821315610ff757600080fd5b600082601f8301126159a157600080fd5b813560206159b161529783615253565b82815260059290921b840181019181810190868411156159d057600080fd5b8286015b848110156152dd578035600481106159ec5760008081fd5b83529183019183016159d4565b600060c08236031215615a0b57600080fd5b615a13615201565b823581526020830135602082015260408301356001600160401b0380821115615a3b57600080fd5b615a4736838701615990565b60408401526060850135915080821115615a6057600080fd5b615a6c368387016154c6565b60608401526080850135915080821115615a8557600080fd5b615a9136838701615521565b608084015260a0850135915080821115615aaa57600080fd5b50615ab7368286016154c6565b60a08301525092915050565b6001600160e01b03199390931683526020830191909152604082015260600190565b604081526000615af860408301856157d9565b905060018060a01b03831660208301529392505050565b6001600160e01b0319831681528151600090615b32816004850160208701615734565b919091016004019392505050565b60008251615b52818460208701615734565b9190910192915050565b608081526000615b6f6080830187615758565b8281036020840152615b818187614cbb565b90508281036040840152615b958186614b5b565b905082810360608401526107768185615784565b604081526000615bbc6040830185614b5b565b82810360208401526156ae8185614cbb565b600060208284031215615be057600080fd5b61094982614f05565b803560ff8116811461123d57600080fd5b600060208284031215615c0c57600080fd5b61094982615be9565b600060608284031215615c2757600080fd5b604051606081018181106001600160401b0382111715615c4957615c496151c3565b604052615c5583615be9565b815260208301356020820152604083013560408201528091505092915050565b6020815260006109496020830184615758565b6001600160e01b03199290921682526001600160a01b0316602082015260400190565b600060208284031215615cbd57600080fd5b8151801515811461094957600080fd5b604081016156678285614d3f565b634e487b7160e01b600052603160045260246000fd5b604081526000615d046040830185614b5b565b82810360208401526156ae818561578456fea6eef7e35abe7026729641147f7915573c7e97b47efa546f5f6e3230263bcb495da136eb38f8d8e354915fc8a767c0dc81d49de5fb65d5477122a82ddd976240ac1ff16a4f04f2a37a9ba5252a69baa100b460e517d1f8019c054a5ad698f9ffc55405a488814eaa0e2a685a0131142785b8d033d311c8c8244e34a7c12ca40f88547008e60f5748911f2e59feb3093b7e4c2e87b2dd69d61f112fcc932de8e38400683eb2cb350596d73644c0c89fe45f108600003457374f4ab3e87b4f3aa3d38c234075fde25875da8a6b7e36b58b86681d483271a99eeeee1d78e258a24d6924fe71b0c8b61aea02ca498b5f53b29bd95726278b1fe4eb791bb24a42644ca164736f6c6343000811000a5da136eb38f8d8e354915fc8a767c0dc81d49de5fb65d5477122a82ddd976240",
  "devdoc": {
    "errors": {
      "ErrAddressIsNotCreatedEOA(address,bytes32)": [
        {
          "details": "Error thrown when an address is expected to be an already created externally owned account (EOA). This error indicates that the provided address is invalid for certain contract operations that require already created EOA."
        }
      ],
      "ErrAlreadyVoted(address)": [
        {
          "details": "Error indicating that a voter has already voted.",
          "params": {
            "voter": "The address of the voter who has already voted."
          }
        }
      ],
      "ErrBridgeOperatorAlreadyExisted(address)": [
        {
          "details": "Error thrown when attempting to add a bridge operator that already exists in the contract. This error indicates that the provided bridge operator address is already registered as a bridge operator in the contract."
        }
      ],
      "ErrBridgeOperatorUpdateFailed(address)": [
        {
          "details": "Error raised when a bridge operator update operation fails.",
          "params": {
            "bridgeOperator": "The address of the bridge operator that failed to update."
          }
        }
      ],
      "ErrContractTypeNotFound(uint8)": [
        {
          "details": "Error of invalid role."
        }
      ],
      "ErrCurrentProposalIsNotCompleted()": [
        {
          "details": "Error thrown when the current proposal is not completed."
        }
      ],
      "ErrDuplicated(bytes4)": [
        {
          "details": "Error thrown when a duplicated element is detected in an array.",
          "params": {
            "msgSig": "The function signature that invoke the error."
          }
        }
      ],
      "ErrInsufficientGas(bytes32)": [
        {
          "details": "Error thrown when there is insufficient gas to execute a function."
        }
      ],
      "ErrInvalidArguments(bytes4)": [
        {
          "details": "Error indicating that arguments are invalid."
        }
      ],
      "ErrInvalidChainId(bytes4,uint256,uint256)": [
        {
          "details": "Error indicating that the chain ID is invalid.",
          "params": {
            "actual": "Current chain ID that executing function.",
            "expected": "Expected chain ID required for the tx to success.",
            "msgSig": "The function signature (bytes4) of the operation that encountered an invalid chain ID."
          }
        }
      ],
      "ErrInvalidExpiryTimestamp()": [
        {
          "details": "Error thrown when an invalid expiry timestamp is provided."
        }
      ],
      "ErrInvalidOrder(bytes4)": [
        {
          "details": "Error indicating that an order is invalid.",
          "params": {
            "msgSig": "The function signature (bytes4) of the operation that encountered an invalid order."
          }
        }
      ],
      "ErrInvalidProposal(bytes32,bytes32)": [
        {
          "details": "Error thrown when an invalid proposal is encountered.",
          "params": {
            "actual": "The actual value of the proposal.",
            "expected": "The expected value of the proposal."
          }
        }
      ],
      "ErrInvalidProposalNonce(bytes4)": [
        {
          "details": "Error indicating that the proposal nonce is invalid.",
          "params": {
            "msgSig": "The function signature (bytes4) of the operation that encountered an invalid proposal nonce."
          }
        }
      ],
      "ErrInvalidSignatures(bytes4)": [
        {
          "details": "Error indicating that a signature is invalid for a specific function signature.",
          "params": {
            "msgSig": "The function signature (bytes4) that encountered an invalid signature."
          }
        }
      ],
      "ErrInvalidThreshold(bytes4)": [
        {
          "details": "Error indicating that the provided threshold is invalid for a specific function signature.",
          "params": {
            "msgSig": "The function signature (bytes4) that the invalid threshold applies to."
          }
        }
      ],
      "ErrInvalidVoteWeight(bytes4)": [
        {
          "details": "Error indicating that a vote weight is invalid for a specific function signature.",
          "params": {
            "msgSig": "The function signature (bytes4) that encountered an invalid vote weight."
          }
        }
      ],
      "ErrLengthMismatch(bytes4)": [
        {
          "details": "Error indicating a mismatch in the length of input parameters or arrays for a specific function.",
          "params": {
            "msgSig": "The function signature (bytes4) that has a length mismatch."
          }
        }
      ],
      "ErrOnlySelfCall(bytes4)": [
        {
          "details": "Error indicating that a function can only be called by the contract itself.",
          "params": {
            "msgSig": "The function signature (bytes4) that can only be called by the contract itself."
          }
        }
      ],
      "ErrQueryForEmptyVote()": [
        {
          "details": "Error thrown when querying for an empty vote."
        }
      ],
      "ErrUnauthorized(bytes4,uint8)": [
        {
          "details": "Error indicating that the caller is unauthorized to perform a specific function.",
          "params": {
            "expectedRole": "The role required to perform the function.",
            "msgSig": "The function signature (bytes4) that the caller is unauthorized to perform."
          }
        }
      ],
      "ErrUnsupportedInterface(bytes4,address)": [
        {
          "details": "The error indicating an unsupported interface.",
          "params": {
            "addr": "The address where the unsupported interface was encountered.",
            "interfaceId": "The bytes4 interface identifier that is not supported."
          }
        }
      ],
      "ErrUnsupportedVoteType(bytes4)": [
        {
          "details": "Error indicating that a vote type is not supported.",
          "params": {
            "msgSig": "The function signature (bytes4) of the operation that encountered an unsupported vote type."
          }
        }
      ],
      "ErrVoteIsFinalized()": [
        {
          "details": "Error thrown when attempting to interact with a finalized vote."
        }
      ],
      "ErrZeroAddress(bytes4)": [
        {
          "details": "Error indicating that given address is null when it should not."
        }
      ],
      "ErrZeroCodeContract(address)": [
        {
          "details": "Error of set to non-contract."
        }
      ]
    },
    "kind": "dev",
    "methods": {
      "addBridgeOperators(uint96[],address[],address[])": {
        "details": "Adds multiple bridge operators.",
        "params": {
          "bridgeOperators": "An array of addresses representing the bridge operators to add.",
          "governors": "An array of addresses of hot/cold wallets for bridge operator to update their node address."
        },
        "returns": {
          "addeds": "An array of booleans indicating whether each bridge operator was added successfully. Note: return boolean array `addeds` indicates whether a group (voteWeight, governor, operator) are recorded. It is expected that FE/BE staticcall to the function first to get the return values and handle it correctly. Governors are expected to see the outcome of this function and decide if they want to vote for the proposal or not. Example Usage: Making an `eth_call` in ethers.js ``` const {addeds} = await bridgeManagerContract.callStatic.addBridgeOperators(  voteWeights,  governors,  bridgeOperators,  // overriding the caller to the contract itself since we use `onlySelfCall` guard  {from: bridgeManagerContract.address} ) const filteredOperators = bridgeOperators.filter((_, index) => addeds[index]); const filteredWeights = weights.filter((_, index) => addeds[index]); const filteredGovernors = governors.filter((_, index) => addeds[index]); // ... (Process or use the information as required) ... ```"
        }
      },
      "castGlobalProposalBySignatures((uint256,uint256,uint8[],uint256[],bytes[],uint256[]),uint8[],(uint8,bytes32,bytes32)[])": {
        "details": "See `GovernanceProposal-_castGlobalProposalBySignatures`."
      },
      "castProposalBySignatures((uint256,uint256,uint256,address[],uint256[],bytes[],uint256[]),uint8[],(uint8,bytes32,bytes32)[])": {
        "details": "See `GovernanceProposal-_castProposalBySignatures`."
      },
      "castProposalVoteForCurrentNetwork((uint256,uint256,uint256,address[],uint256[],bytes[],uint256[]),uint8)": {
        "details": "Casts vote for a proposal on the current network. Requirements: - The method caller is governor."
      },
      "checkThreshold(uint256)": {
        "details": "Checks whether the `_voteWeight` passes the threshold."
      },
      "deleteExpired(uint256,uint256)": {
        "details": "Deletes the expired proposal by its chainId and nonce, without creating a new proposal. Requirements: - The proposal is already created."
      },
      "getBridgeOperatorOf(address[])": {
        "details": "Returns an array of bridge operators correspoding to governor addresses.",
        "returns": {
          "bridgeOperators": "An array containing the addresses of all bridge operators."
        }
      },
      "getBridgeOperatorWeight(address)": {
        "details": "External function to retrieve the vote weight of a specific bridge operator.",
        "params": {
          "bridgeOperator": "The address of the bridge operator to get the vote weight for."
        },
        "returns": {
          "weight": "The vote weight of the specified bridge operator."
        }
      },
      "getBridgeOperatorWeights(address[])": {
        "details": "External function to retrieve the vote weights of multiple bridge operators.",
        "params": {
          "bridgeOperators": "An array containing the addresses of bridge operators to get the vote weights for."
        },
        "returns": {
          "weights": "An array of vote weights corresponding to the provided bridge operators."
        }
      },
      "getBridgeOperators()": {
        "details": "Returns an array of all bridge operators.",
        "returns": {
          "_0": "An array containing the addresses of all bridge operators."
        }
      },
      "getCallbackRegisters()": {
        "details": "Retrieves the addresses of registered callbacks.",
        "returns": {
          "registers": "An array containing the addresses of registered callbacks."
        }
      },
      "getContract(uint8)": {
        "details": "Returns the address of a contract with a specific role. Throws an error if no contract is set for the specified role.",
        "params": {
          "contractType": "The role of the contract to retrieve."
        },
        "returns": {
          "contract_": "The address of the contract with the specified role."
        }
      },
      "getFullBridgeOperatorInfos()": {
        "details": "Retrieves the full information of all registered bridge operators. This external function allows external callers to obtain the full information of all the registered bridge operators. The returned arrays include the addresses of governors, bridge operators, and their corresponding vote weights.",
        "returns": {
          "bridgeOperators": "An array of addresses representing the registered bridge operators.",
          "governors": "An array of addresses representing the governors of each bridge operator.",
          "weights": "An array of uint256 values representing the vote weights of each bridge operator. Note: The length of each array will be the same, and the order of elements corresponds to the same bridge operator. Example Usage: ``` (address[] memory governors, address[] memory bridgeOperators, uint256[] memory weights) = getFullBridgeOperatorInfos(); for (uint256 i = 0; i < bridgeOperators.length; i++) {     // Access individual information for each bridge operator.     address governor = governors[i];     address bridgeOperator = bridgeOperators[i];     uint256 weight = weights[i];     // ... (Process or use the information as required) ... } ```"
        }
      },
      "getGlobalProposalSignatures(uint256)": {
        "details": "See {CommonGovernanceProposal-_getProposalSignatures}"
      },
      "getGovernorWeight(address)": {
        "details": "External function to retrieve the vote weight of a specific governor.",
        "params": {
          "governor": "The address of the governor to get the vote weight for."
        },
        "returns": {
          "weight": "voteWeight The vote weight of the specified governor."
        }
      },
      "getGovernorWeights(address[])": {
        "details": "Returns the weights of a list of governor addresses."
      },
      "getGovernors()": {
        "details": "Returns an array of all governors.",
        "returns": {
          "_0": "An array containing the addresses of all governors."
        }
      },
      "getGovernorsOf(address[])": {
        "details": "Retrieves the governors corresponding to a given array of bridge operators. This external function allows external callers to obtain the governors associated with a given array of bridge operators. The function takes an input array `bridgeOperators` containing bridge operator addresses and returns an array of corresponding governors.",
        "params": {
          "bridgeOperators": "An array of bridge operator addresses for which governors are to be retrieved."
        },
        "returns": {
          "governors": "An array of addresses representing the governors corresponding to the provided bridge operators."
        }
      },
      "getProposalExpiryDuration()": {
        "details": "Returns the expiry duration for a new proposal."
      },
      "getProposalSignatures(uint256,uint256)": {
        "details": "See {CommonGovernanceProposal-_getProposalSignatures}"
      },
      "getThreshold()": {
        "details": "Returns the threshold."
      },
      "getTotalWeights()": {
        "details": "Returns total weights."
      },
      "globalProposalVoted(uint256,address)": {
        "details": "See {CommonGovernanceProposal-_proposalVoted}"
      },
      "isBridgeOperator(address)": {
        "details": "Checks if the given address is a bridge operator.",
        "params": {
          "addr": "The address to check."
        },
        "returns": {
          "_0": "A boolean indicating whether the address is a bridge operator."
        }
      },
      "minimumVoteWeight()": {
        "details": "Returns the minimum vote weight to pass the threshold."
      },
      "proposalVoted(uint256,uint256,address)": {
        "details": "See {CommonGovernanceProposal-_proposalVoted}"
      },
      "propose(uint256,uint256,address[],uint256[],bytes[],uint256[])": {
        "details": "See `CoreGovernance-_proposeProposal`. Requirements: - The method caller is governor."
      },
      "proposeGlobal(uint256,uint8[],uint256[],bytes[],uint256[])": {
        "details": "See `CoreGovernance-_proposeGlobal`. Requirements: - The method caller is governor."
      },
      "proposeGlobalProposalStructAndCastVotes((uint256,uint256,uint8[],uint256[],bytes[],uint256[]),uint8[],(uint8,bytes32,bytes32)[])": {
        "details": "See `GovernanceProposal-_proposeGlobalProposalStructAndCastVotes`. Requirements: - The method caller is governor."
      },
      "proposeProposalForCurrentNetwork(uint256,address[],uint256[],bytes[],uint256[],uint8)": {
        "details": "Proposes and casts vote for a proposal on the current network. Requirements: - The method caller is governor. - The proposal is for the current network."
      },
      "proposeProposalStructAndCastVotes((uint256,uint256,uint256,address[],uint256[],bytes[],uint256[]),uint8[],(uint8,bytes32,bytes32)[])": {
        "details": "See `GovernanceProposal-_proposeProposalStructAndCastVotes`. Requirements: - The method caller is governor. - The proposal is for the current network."
      },
      "registerCallbacks(address[])": {
        "details": "Registers multiple callbacks with the bridge.",
        "params": {
          "registers": "The array of callback addresses to register."
        },
        "returns": {
          "registereds": "An array indicating the success status of each registration."
        }
      },
      "removeBridgeOperators(address[])": {
        "details": "Removes multiple bridge operators.",
        "params": {
          "bridgeOperators": "An array of addresses representing the bridge operators to remove."
        },
        "returns": {
          "removeds": "An array of booleans indicating whether each bridge operator was removed successfully. * Note: return boolean array `removeds` indicates whether a group (voteWeight, governor, operator) are recorded. It is expected that FE/BE staticcall to the function first to get the return values and handle it correctly. Governors are expected to see the outcome of this function and decide if they want to vote for the proposal or not. Example Usage: Making an `eth_call` in ethers.js ``` const {removeds} = await bridgeManagerContract.callStatic.removeBridgeOperators(  bridgeOperators,  // overriding the caller to the contract itself since we use `onlySelfCall` guard  {from: bridgeManagerContract.address} ) const filteredOperators = bridgeOperators.filter((_, index) => removeds[index]); // ... (Process or use the information as required) ... ```"
        }
      },
      "setContract(uint8,address)": {
        "details": "Sets the address of a contract with a specific role. Emits the event {ContractUpdated}.",
        "params": {
          "addr": "The address of the contract to set.",
          "contractType": "The role of the contract to set."
        }
      },
      "setThreshold(uint256,uint256)": {
        "details": "Sets the threshold. Requirements: - The method caller is admin. Emits the `ThresholdUpdated` event."
      },
      "sumGovernorsWeight(address[])": {
        "details": "Returns total weights of the governor list."
      },
      "totalBridgeOperators()": {
        "details": "Returns the total number of bridge operators.",
        "returns": {
          "_0": "The total number of bridge operators."
        }
      },
      "unregisterCallbacks(address[])": {
        "details": "Unregisters multiple callbacks from the bridge.",
        "params": {
          "registers": "The array of callback addresses to unregister."
        },
        "returns": {
          "unregistereds": "An array indicating the success status of each unregistration."
        }
      },
      "updateBridgeOperator(address)": {
        "details": "Governor updates their corresponding governor and/or operator address. Requirements: - The caller must the governor of the operator that is requested changes.",
        "params": {
          "bridgeOperator": "The address of the bridge operator to update."
        }
      }
    },
    "version": 1
  },
  "userdoc": {
    "kind": "user",
    "methods": {
      "round(uint256)": {
        "notice": "chain id = 0 for global proposal"
      },
      "updateBridgeOperator(address)": {
        "notice": "This method checks authorization by querying the corresponding operator of the msg.sender and then attempts to remove it from the `_bridgeOperatorSet` for gas optimization. In case we allow a governor can leave their operator address blank null `address(0)`, consider add authorization check."
      }
    },
    "version": 1
  },
  "storageLayout": {
    "storage": [
      {
        "astId": 8226,
        "contract": "contracts/ronin/gateway/RoninBridgeManager.sol:RoninBridgeManager",
        "label": "round",
        "offset": 0,
        "slot": "0",
        "type": "t_mapping(t_uint256,t_uint256)"
      },
      {
        "astId": 8234,
        "contract": "contracts/ronin/gateway/RoninBridgeManager.sol:RoninBridgeManager",
        "label": "vote",
        "offset": 0,
        "slot": "1",
        "type": "t_mapping(t_uint256,t_mapping(t_uint256,t_struct(ProposalVote)8164_storage))"
      },
      {
        "astId": 8236,
        "contract": "contracts/ronin/gateway/RoninBridgeManager.sol:RoninBridgeManager",
        "label": "_proposalExpiryDuration",
        "offset": 0,
        "slot": "2",
        "type": "t_uint256"
      },
      {
        "astId": 8973,
        "contract": "contracts/ronin/gateway/RoninBridgeManager.sol:RoninBridgeManager",
        "label": "_targetOptionsMap",
        "offset": 0,
        "slot": "3",
        "type": "t_mapping(t_enum(TargetOption)15068,t_address)"
      }
    ],
    "types": {
      "t_address": {
        "encoding": "inplace",
        "label": "address",
        "numberOfBytes": "20"
      },
      "t_array(t_address)dyn_storage": {
        "base": "t_address",
        "encoding": "dynamic_array",
        "label": "address[]",
        "numberOfBytes": "32"
      },
      "t_bool": {
        "encoding": "inplace",
        "label": "bool",
        "numberOfBytes": "1"
      },
      "t_bytes32": {
        "encoding": "inplace",
        "label": "bytes32",
        "numberOfBytes": "32"
      },
      "t_enum(TargetOption)15068": {
        "encoding": "inplace",
        "label": "enum GlobalProposal.TargetOption",
        "numberOfBytes": "1"
      },
      "t_enum(VoteStatus)12755": {
        "encoding": "inplace",
        "label": "enum VoteStatusConsumer.VoteStatus",
        "numberOfBytes": "1"
      },
      "t_mapping(t_address,t_bool)": {
        "encoding": "mapping",
        "key": "t_address",
        "label": "mapping(address => bool)",
        "numberOfBytes": "32",
        "value": "t_bool"
      },
      "t_mapping(t_address,t_struct(Signature)12746_storage)": {
        "encoding": "mapping",
        "key": "t_address",
        "label": "mapping(address => struct SignatureConsumer.Signature)",
        "numberOfBytes": "32",
        "value": "t_struct(Signature)12746_storage"
      },
      "t_mapping(t_enum(TargetOption)15068,t_address)": {
        "encoding": "mapping",
        "key": "t_enum(TargetOption)15068",
        "label": "mapping(enum GlobalProposal.TargetOption => address)",
        "numberOfBytes": "32",
        "value": "t_address"
      },
      "t_mapping(t_uint256,t_mapping(t_uint256,t_struct(ProposalVote)8164_storage))": {
        "encoding": "mapping",
        "key": "t_uint256",
        "label": "mapping(uint256 => mapping(uint256 => struct CoreGovernance.ProposalVote))",
        "numberOfBytes": "32",
        "value": "t_mapping(t_uint256,t_struct(ProposalVote)8164_storage)"
      },
      "t_mapping(t_uint256,t_struct(ProposalVote)8164_storage)": {
        "encoding": "mapping",
        "key": "t_uint256",
        "label": "mapping(uint256 => struct CoreGovernance.ProposalVote)",
        "numberOfBytes": "32",
        "value": "t_struct(ProposalVote)8164_storage"
      },
      "t_mapping(t_uint256,t_uint256)": {
        "encoding": "mapping",
        "key": "t_uint256",
        "label": "mapping(uint256 => uint256)",
        "numberOfBytes": "32",
        "value": "t_uint256"
      },
      "t_struct(ProposalVote)8164_storage": {
        "encoding": "inplace",
        "label": "struct CoreGovernance.ProposalVote",
        "members": [
          {
            "astId": 8140,
            "contract": "contracts/ronin/gateway/RoninBridgeManager.sol:RoninBridgeManager",
            "label": "status",
            "offset": 0,
            "slot": "0",
            "type": "t_enum(VoteStatus)12755"
          },
          {
            "astId": 8142,
            "contract": "contracts/ronin/gateway/RoninBridgeManager.sol:RoninBridgeManager",
            "label": "hash",
            "offset": 0,
            "slot": "1",
            "type": "t_bytes32"
          },
          {
            "astId": 8144,
            "contract": "contracts/ronin/gateway/RoninBridgeManager.sol:RoninBridgeManager",
            "label": "againstVoteWeight",
            "offset": 0,
            "slot": "2",
            "type": "t_uint256"
          },
          {
            "astId": 8146,
            "contract": "contracts/ronin/gateway/RoninBridgeManager.sol:RoninBridgeManager",
            "label": "forVoteWeight",
            "offset": 0,
            "slot": "3",
            "type": "t_uint256"
          },
          {
            "astId": 8149,
            "contract": "contracts/ronin/gateway/RoninBridgeManager.sol:RoninBridgeManager",
            "label": "forVoteds",
            "offset": 0,
            "slot": "4",
            "type": "t_array(t_address)dyn_storage"
          },
          {
            "astId": 8152,
            "contract": "contracts/ronin/gateway/RoninBridgeManager.sol:RoninBridgeManager",
            "label": "againstVoteds",
            "offset": 0,
            "slot": "5",
            "type": "t_array(t_address)dyn_storage"
          },
          {
            "astId": 8154,
            "contract": "contracts/ronin/gateway/RoninBridgeManager.sol:RoninBridgeManager",
            "label": "expiryTimestamp",
            "offset": 0,
            "slot": "6",
            "type": "t_uint256"
          },
          {
            "astId": 8159,
            "contract": "contracts/ronin/gateway/RoninBridgeManager.sol:RoninBridgeManager",
            "label": "sig",
            "offset": 0,
            "slot": "7",
            "type": "t_mapping(t_address,t_struct(Signature)12746_storage)"
          },
          {
            "astId": 8163,
            "contract": "contracts/ronin/gateway/RoninBridgeManager.sol:RoninBridgeManager",
            "label": "voted",
            "offset": 0,
            "slot": "8",
            "type": "t_mapping(t_address,t_bool)"
          }
        ],
        "numberOfBytes": "288"
      },
      "t_struct(Signature)12746_storage": {
        "encoding": "inplace",
        "label": "struct SignatureConsumer.Signature",
        "members": [
          {
            "astId": 12741,
            "contract": "contracts/ronin/gateway/RoninBridgeManager.sol:RoninBridgeManager",
            "label": "v",
            "offset": 0,
            "slot": "0",
            "type": "t_uint8"
          },
          {
            "astId": 12743,
            "contract": "contracts/ronin/gateway/RoninBridgeManager.sol:RoninBridgeManager",
            "label": "r",
            "offset": 0,
            "slot": "1",
            "type": "t_bytes32"
          },
          {
            "astId": 12745,
            "contract": "contracts/ronin/gateway/RoninBridgeManager.sol:RoninBridgeManager",
            "label": "s",
            "offset": 0,
            "slot": "2",
            "type": "t_bytes32"
          }
        ],
        "numberOfBytes": "96"
      },
      "t_uint256": {
        "encoding": "inplace",
        "label": "uint256",
        "numberOfBytes": "32"
      },
      "t_uint8": {
        "encoding": "inplace",
        "label": "uint8",
        "numberOfBytes": "1"
      }
    }
  }
}