{
  "address": "0x7eF866Cb4a917AfE4e8B415Bc1dE112e49217B90",
  "abi": [
    {
      "inputs": [],
      "stateMutability": "nonpayable",
      "type": "constructor"
    },
    {
      "inputs": [],
      "name": "ErrAlreadyRequestedEmergencyExit",
      "type": "error"
    },
    {
      "inputs": [],
      "name": "ErrAlreadyRequestedRevokingCandidate",
      "type": "error"
    },
    {
      "inputs": [],
      "name": "ErrAlreadyRequestedUpdatingCommissionRate",
      "type": "error"
    },
    {
      "inputs": [],
      "name": "ErrAlreadyWrappedEpoch",
      "type": "error"
    },
    {
      "inputs": [],
      "name": "ErrAtEndOfEpochOnly",
      "type": "error"
    },
    {
      "inputs": [],
      "name": "ErrCallPrecompiled",
      "type": "error"
    },
    {
      "inputs": [],
      "name": "ErrCallerMustBeBridgeTrackingContract",
      "type": "error"
    },
    {
      "inputs": [],
      "name": "ErrCallerMustBeCoinbase",
      "type": "error"
    },
    {
      "inputs": [],
      "name": "ErrCallerMustBeMaintenanceContract",
      "type": "error"
    },
    {
      "inputs": [],
      "name": "ErrCallerMustBeRoninTrustedOrgContract",
      "type": "error"
    },
    {
      "inputs": [],
      "name": "ErrCallerMustBeSlashIndicatorContract",
      "type": "error"
    },
    {
      "inputs": [],
      "name": "ErrCallerMustBeStakingContract",
      "type": "error"
    },
    {
      "inputs": [],
      "name": "ErrCallerMustBeStakingVestingContract",
      "type": "error"
    },
    {
      "inputs": [
        {
          "internalType": "address",
          "name": "validator",
          "type": "address"
        }
      ],
      "name": "ErrCannotBailout",
      "type": "error"
    },
    {
      "inputs": [],
      "name": "ErrExceedsMaxNumberOfCandidate",
      "type": "error"
    },
    {
      "inputs": [
        {
          "internalType": "address",
          "name": "_bridgeOperatorAddr",
          "type": "address"
        }
      ],
      "name": "ErrExistentBridgeOperator",
      "type": "error"
    },
    {
      "inputs": [],
      "name": "ErrExistentCandidate",
      "type": "error"
    },
    {
      "inputs": [
        {
          "internalType": "address",
          "name": "_candidateAdminAddr",
          "type": "address"
        }
      ],
      "name": "ErrExistentCandidateAdmin",
      "type": "error"
    },
    {
      "inputs": [
        {
          "internalType": "address",
          "name": "_treasuryAddr",
          "type": "address"
        }
      ],
      "name": "ErrExistentTreasury",
      "type": "error"
    },
    {
      "inputs": [],
      "name": "ErrInsufficientBalance",
      "type": "error"
    },
    {
      "inputs": [],
      "name": "ErrInvalidCommissionRate",
      "type": "error"
    },
    {
      "inputs": [],
      "name": "ErrInvalidEffectiveDaysOnwards",
      "type": "error"
    },
    {
      "inputs": [],
      "name": "ErrInvalidMaxPrioritizedValidatorNumber",
      "type": "error"
    },
    {
      "inputs": [],
      "name": "ErrInvalidMinEffectiveDaysOnwards",
      "type": "error"
    },
    {
      "inputs": [],
      "name": "ErrNonExistentCandidate",
      "type": "error"
    },
    {
      "inputs": [],
      "name": "ErrRecipientRevert",
      "type": "error"
    },
    {
      "inputs": [],
      "name": "ErrTrustedOrgCannotRenounce",
      "type": "error"
    },
    {
      "inputs": [],
      "name": "ErrUnauthorizedReceiveRON",
      "type": "error"
    },
    {
      "inputs": [],
      "name": "ErrZeroCodeContract",
      "type": "error"
    },
    {
      "anonymous": false,
      "inputs": [
        {
          "indexed": true,
          "internalType": "uint256",
          "name": "period",
          "type": "uint256"
        },
        {
          "indexed": true,
          "internalType": "uint256",
          "name": "epoch",
          "type": "uint256"
        },
        {
          "indexed": false,
          "internalType": "address[]",
          "name": "consensusAddrs",
          "type": "address[]"
        }
      ],
      "name": "BlockProducerSetUpdated",
      "type": "event"
    },
    {
      "anonymous": false,
      "inputs": [
        {
          "indexed": true,
          "internalType": "address",
          "name": "coinbaseAddr",
          "type": "address"
        },
        {
          "indexed": false,
          "internalType": "uint256",
          "name": "rewardAmount",
          "type": "uint256"
        },
        {
          "indexed": false,
          "internalType": "enum ICoinbaseExecution.BlockRewardDeprecatedType",
          "name": "deprecatedType",
          "type": "uint8"
        }
      ],
      "name": "BlockRewardDeprecated",
      "type": "event"
    },
    {
      "anonymous": false,
      "inputs": [
        {
          "indexed": true,
          "internalType": "address",
          "name": "coinbaseAddr",
          "type": "address"
        },
        {
          "indexed": false,
          "internalType": "uint256",
          "name": "submittedAmount",
          "type": "uint256"
        },
        {
          "indexed": false,
          "internalType": "uint256",
          "name": "bonusAmount",
          "type": "uint256"
        }
      ],
      "name": "BlockRewardSubmitted",
      "type": "event"
    },
    {
      "anonymous": false,
      "inputs": [
        {
          "indexed": true,
          "internalType": "address",
          "name": "consensusAddr",
          "type": "address"
        },
        {
          "indexed": true,
          "internalType": "address",
          "name": "bridgeOperator",
          "type": "address"
        },
        {
          "indexed": true,
          "internalType": "address",
          "name": "recipientAddr",
          "type": "address"
        },
        {
          "indexed": false,
          "internalType": "uint256",
          "name": "amount",
          "type": "uint256"
        }
      ],
      "name": "BridgeOperatorRewardDistributed",
      "type": "event"
    },
    {
      "anonymous": false,
      "inputs": [
        {
          "indexed": true,
          "internalType": "address",
          "name": "consensusAddr",
          "type": "address"
        },
        {
          "indexed": true,
          "internalType": "address",
          "name": "bridgeOperator",
          "type": "address"
        },
        {
          "indexed": true,
          "internalType": "address",
          "name": "recipient",
          "type": "address"
        },
        {
          "indexed": false,
          "internalType": "uint256",
          "name": "amount",
          "type": "uint256"
        },
        {
          "indexed": false,
          "internalType": "uint256",
          "name": "contractBalance",
          "type": "uint256"
        }
      ],
      "name": "BridgeOperatorRewardDistributionFailed",
      "type": "event"
    },
    {
      "anonymous": false,
      "inputs": [
        {
          "indexed": true,
          "internalType": "uint256",
          "name": "period",
          "type": "uint256"
        },
        {
          "indexed": true,
          "internalType": "uint256",
          "name": "epoch",
          "type": "uint256"
        },
        {
          "indexed": false,
          "internalType": "address[]",
          "name": "bridgeOperators",
          "type": "address[]"
        }
      ],
      "name": "BridgeOperatorSetUpdated",
      "type": "event"
    },
    {
      "anonymous": false,
      "inputs": [
        {
          "indexed": false,
          "internalType": "address",
          "name": "",
          "type": "address"
        }
      ],
      "name": "BridgeTrackingContractUpdated",
      "type": "event"
    },
    {
      "anonymous": false,
      "inputs": [
        {
          "indexed": true,
          "internalType": "address",
          "name": "consensusAddr",
          "type": "address"
        },
        {
          "indexed": true,
          "internalType": "address",
          "name": "treasuryAddr",
          "type": "address"
        },
        {
          "indexed": true,
          "internalType": "address",
          "name": "admin",
          "type": "address"
        },
        {
          "indexed": false,
          "internalType": "address",
          "name": "bridgeOperator",
          "type": "address"
        }
      ],
      "name": "CandidateGranted",
      "type": "event"
    },
    {
      "anonymous": false,
      "inputs": [
        {
          "indexed": true,
          "internalType": "address",
          "name": "consensusAddr",
          "type": "address"
        },
        {
          "indexed": false,
          "internalType": "uint256",
          "name": "revokingTimestamp",
          "type": "uint256"
        }
      ],
      "name": "CandidateRevokingTimestampUpdated",
      "type": "event"
    },
    {
      "anonymous": false,
      "inputs": [
        {
          "indexed": true,
          "internalType": "address",
          "name": "consensusAddr",
          "type": "address"
        },
        {
          "indexed": false,
          "internalType": "uint256",
          "name": "topupDeadline",
          "type": "uint256"
        }
      ],
      "name": "CandidateTopupDeadlineUpdated",
      "type": "event"
    },
    {
      "anonymous": false,
      "inputs": [
        {
          "indexed": false,
          "internalType": "address[]",
          "name": "consensusAddrs",
          "type": "address[]"
        }
      ],
      "name": "CandidatesRevoked",
      "type": "event"
    },
    {
      "anonymous": false,
      "inputs": [
        {
          "indexed": true,
          "internalType": "address",
          "name": "consensusAddr",
          "type": "address"
        },
        {
          "indexed": false,
          "internalType": "uint256",
          "name": "effectiveTimestamp",
          "type": "uint256"
        },
        {
          "indexed": false,
          "internalType": "uint256",
          "name": "rate",
          "type": "uint256"
        }
      ],
      "name": "CommissionRateUpdateScheduled",
      "type": "event"
    },
    {
      "anonymous": false,
      "inputs": [
        {
          "indexed": true,
          "internalType": "address",
          "name": "consensusAddr",
          "type": "address"
        },
        {
          "indexed": false,
          "internalType": "uint256",
          "name": "rate",
          "type": "uint256"
        }
      ],
      "name": "CommissionRateUpdated",
      "type": "event"
    },
    {
      "anonymous": false,
      "inputs": [
        {
          "indexed": true,
          "internalType": "address",
          "name": "recipientAddr",
          "type": "address"
        },
        {
          "indexed": false,
          "internalType": "uint256",
          "name": "amount",
          "type": "uint256"
        },
        {
          "indexed": false,
          "internalType": "uint256",
          "name": "balance",
          "type": "uint256"
        }
      ],
      "name": "DeprecatedRewardRecycleFailed",
      "type": "event"
    },
    {
      "anonymous": false,
      "inputs": [
        {
          "indexed": true,
          "internalType": "address",
          "name": "recipientAddr",
          "type": "address"
        },
        {
          "indexed": false,
          "internalType": "uint256",
          "name": "amount",
          "type": "uint256"
        }
      ],
      "name": "DeprecatedRewardRecycled",
      "type": "event"
    },
    {
      "anonymous": false,
      "inputs": [
        {
          "indexed": false,
          "internalType": "uint256",
          "name": "amount",
          "type": "uint256"
        }
      ],
      "name": "EmergencyExitLockedAmountUpdated",
      "type": "event"
    },
    {
      "anonymous": false,
      "inputs": [
        {
          "indexed": true,
          "internalType": "address",
          "name": "consensusAddr",
          "type": "address"
        },
        {
          "indexed": true,
          "internalType": "address",
          "name": "recipient",
          "type": "address"
        },
        {
          "indexed": false,
          "internalType": "uint256",
          "name": "unlockedAmount",
          "type": "uint256"
        }
      ],
      "name": "EmergencyExitLockedFundReleased",
      "type": "event"
    },
    {
      "anonymous": false,
      "inputs": [
        {
          "indexed": true,
          "internalType": "address",
          "name": "consensusAddr",
          "type": "address"
        },
        {
          "indexed": true,
          "internalType": "address",
          "name": "recipient",
          "type": "address"
        },
        {
          "indexed": false,
          "internalType": "uint256",
          "name": "unlockedAmount",
          "type": "uint256"
        },
        {
          "indexed": false,
          "internalType": "uint256",
          "name": "contractBalance",
          "type": "uint256"
        }
      ],
      "name": "EmergencyExitLockedFundReleasingFailed",
      "type": "event"
    },
    {
      "anonymous": false,
      "inputs": [
        {
          "indexed": true,
          "internalType": "address",
          "name": "consensusAddr",
          "type": "address"
        },
        {
          "indexed": false,
          "internalType": "uint256",
          "name": "lockedAmount",
          "type": "uint256"
        }
      ],
      "name": "EmergencyExitRequested",
      "type": "event"
    },
    {
      "anonymous": false,
      "inputs": [
        {
          "indexed": false,
          "internalType": "uint256",
          "name": "amount",
          "type": "uint256"
        }
      ],
      "name": "EmergencyExpiryDurationUpdated",
      "type": "event"
    },
    {
      "anonymous": false,
      "inputs": [
        {
          "indexed": false,
          "internalType": "uint8",
          "name": "version",
          "type": "uint8"
        }
      ],
      "name": "Initialized",
      "type": "event"
    },
    {
      "anonymous": false,
      "inputs": [
        {
          "indexed": false,
          "internalType": "address",
          "name": "",
          "type": "address"
        }
      ],
      "name": "MaintenanceContractUpdated",
      "type": "event"
    },
    {
      "anonymous": false,
      "inputs": [
        {
          "indexed": false,
          "internalType": "uint256",
          "name": "",
          "type": "uint256"
        }
      ],
      "name": "MaxPrioritizedValidatorNumberUpdated",
      "type": "event"
    },
    {
      "anonymous": false,
      "inputs": [
        {
          "indexed": false,
          "internalType": "uint256",
          "name": "threshold",
          "type": "uint256"
        }
      ],
      "name": "MaxValidatorCandidateUpdated",
      "type": "event"
    },
    {
      "anonymous": false,
      "inputs": [
        {
          "indexed": false,
          "internalType": "uint256",
          "name": "",
          "type": "uint256"
        }
      ],
      "name": "MaxValidatorNumberUpdated",
      "type": "event"
    },
    {
      "anonymous": false,
      "inputs": [
        {
          "indexed": false,
          "internalType": "uint256",
          "name": "numOfDays",
          "type": "uint256"
        }
      ],
      "name": "MinEffectiveDaysOnwardsUpdated",
      "type": "event"
    },
    {
      "anonymous": false,
      "inputs": [
        {
          "indexed": true,
          "internalType": "address",
          "name": "consensusAddr",
          "type": "address"
        },
        {
          "indexed": true,
          "internalType": "address",
          "name": "recipient",
          "type": "address"
        },
        {
          "indexed": false,
          "internalType": "uint256",
          "name": "amount",
          "type": "uint256"
        }
      ],
      "name": "MiningRewardDistributed",
      "type": "event"
    },
    {
      "anonymous": false,
      "inputs": [
        {
          "indexed": true,
          "internalType": "address",
          "name": "consensusAddr",
          "type": "address"
        },
        {
          "indexed": true,
          "internalType": "address",
          "name": "recipient",
          "type": "address"
        },
        {
          "indexed": false,
          "internalType": "uint256",
          "name": "amount",
          "type": "uint256"
        },
        {
          "indexed": false,
          "internalType": "uint256",
          "name": "contractBalance",
          "type": "uint256"
        }
      ],
      "name": "MiningRewardDistributionFailed",
      "type": "event"
    },
    {
      "anonymous": false,
      "inputs": [
        {
          "indexed": false,
          "internalType": "address",
          "name": "",
          "type": "address"
        }
      ],
      "name": "RoninTrustedOrganizationContractUpdated",
      "type": "event"
    },
    {
      "anonymous": false,
      "inputs": [
        {
          "indexed": false,
          "internalType": "address",
          "name": "",
          "type": "address"
        }
      ],
      "name": "SlashIndicatorContractUpdated",
      "type": "event"
    },
    {
      "anonymous": false,
      "inputs": [
        {
          "indexed": false,
          "internalType": "address",
          "name": "",
          "type": "address"
        }
      ],
      "name": "StakingContractUpdated",
      "type": "event"
    },
    {
      "anonymous": false,
      "inputs": [
        {
          "indexed": false,
          "internalType": "uint256",
          "name": "totalAmount",
          "type": "uint256"
        },
        {
          "indexed": false,
          "internalType": "address[]",
          "name": "consensusAddrs",
          "type": "address[]"
        },
        {
          "indexed": false,
          "internalType": "uint256[]",
          "name": "amounts",
          "type": "uint256[]"
        }
      ],
      "name": "StakingRewardDistributed",
      "type": "event"
    },
    {
      "anonymous": false,
      "inputs": [
        {
          "indexed": false,
          "internalType": "uint256",
          "name": "totalAmount",
          "type": "uint256"
        },
        {
          "indexed": false,
          "internalType": "address[]",
          "name": "consensusAddrs",
          "type": "address[]"
        },
        {
          "indexed": false,
          "internalType": "uint256[]",
          "name": "amounts",
          "type": "uint256[]"
        },
        {
          "indexed": false,
          "internalType": "uint256",
          "name": "contractBalance",
          "type": "uint256"
        }
      ],
      "name": "StakingRewardDistributionFailed",
      "type": "event"
    },
    {
      "anonymous": false,
      "inputs": [
        {
          "indexed": false,
          "internalType": "address",
          "name": "",
          "type": "address"
        }
      ],
      "name": "StakingVestingContractUpdated",
      "type": "event"
    },
    {
      "anonymous": false,
      "inputs": [
        {
          "indexed": true,
          "internalType": "address",
          "name": "consensusAddr",
          "type": "address"
        },
        {
          "indexed": true,
          "internalType": "uint256",
          "name": "period",
          "type": "uint256"
        },
        {
          "indexed": false,
          "internalType": "uint256",
          "name": "jailedUntil",
          "type": "uint256"
        },
        {
          "indexed": false,
          "internalType": "uint256",
          "name": "deductedStakingAmount",
          "type": "uint256"
        },
        {
          "indexed": false,
          "internalType": "bool",
          "name": "blockProducerRewardDeprecated",
          "type": "bool"
        },
        {
          "indexed": false,
          "internalType": "bool",
          "name": "bridgeOperatorRewardDeprecated",
          "type": "bool"
        }
      ],
      "name": "ValidatorPunished",
      "type": "event"
    },
    {
      "anonymous": false,
      "inputs": [
        {
          "indexed": true,
          "internalType": "uint256",
          "name": "period",
          "type": "uint256"
        },
        {
          "indexed": false,
          "internalType": "address[]",
          "name": "consensusAddrs",
          "type": "address[]"
        }
      ],
      "name": "ValidatorSetUpdated",
      "type": "event"
    },
    {
      "anonymous": false,
      "inputs": [
        {
          "indexed": true,
          "internalType": "address",
          "name": "validator",
          "type": "address"
        },
        {
          "indexed": false,
          "internalType": "uint256",
          "name": "period",
          "type": "uint256"
        }
      ],
      "name": "ValidatorUnjailed",
      "type": "event"
    },
    {
      "anonymous": false,
      "inputs": [
        {
          "indexed": true,
          "internalType": "uint256",
          "name": "periodNumber",
          "type": "uint256"
        },
        {
          "indexed": true,
          "internalType": "uint256",
          "name": "epochNumber",
          "type": "uint256"
        },
        {
          "indexed": false,
          "internalType": "bool",
          "name": "periodEnding",
          "type": "bool"
        }
      ],
      "name": "WrappedUpEpoch",
      "type": "event"
    },
    {
      "stateMutability": "payable",
      "type": "fallback"
    },
    {
      "inputs": [],
      "name": "bridgeTrackingContract",
      "outputs": [
        {
          "internalType": "address",
          "name": "",
          "type": "address"
        }
      ],
      "stateMutability": "view",
      "type": "function"
    },
    {
      "inputs": [
        {
          "internalType": "address",
          "name": "_consensusAddr",
          "type": "address"
        }
      ],
      "name": "checkBridgeRewardDeprecated",
      "outputs": [
        {
          "internalType": "bool",
          "name": "_result",
          "type": "bool"
        }
      ],
      "stateMutability": "view",
      "type": "function"
    },
    {
      "inputs": [
        {
          "internalType": "address",
          "name": "_addr",
          "type": "address"
        }
      ],
      "name": "checkJailed",
      "outputs": [
        {
          "internalType": "bool",
          "name": "",
          "type": "bool"
        }
      ],
      "stateMutability": "view",
      "type": "function"
    },
    {
      "inputs": [
        {
          "internalType": "address",
          "name": "_addr",
          "type": "address"
        },
        {
          "internalType": "uint256",
          "name": "_blockNum",
          "type": "uint256"
        }
      ],
      "name": "checkJailedAtBlock",
      "outputs": [
        {
          "internalType": "bool",
          "name": "",
          "type": "bool"
        }
      ],
      "stateMutability": "view",
      "type": "function"
    },
    {
      "inputs": [
        {
          "internalType": "address[]",
          "name": "_addrList",
          "type": "address[]"
        }
      ],
      "name": "checkManyJailed",
      "outputs": [
        {
          "internalType": "bool[]",
          "name": "_result",
          "type": "bool[]"
        }
      ],
      "stateMutability": "view",
      "type": "function"
    },
    {
      "inputs": [
        {
          "internalType": "address[]",
          "name": "_blockProducers",
          "type": "address[]"
        }
      ],
      "name": "checkMiningRewardDeprecated",
      "outputs": [
        {
          "internalType": "bool[]",
          "name": "_result",
          "type": "bool[]"
        }
      ],
      "stateMutability": "view",
      "type": "function"
    },
    {
      "inputs": [
        {
          "internalType": "address[]",
          "name": "_blockProducers",
          "type": "address[]"
        },
        {
          "internalType": "uint256",
          "name": "_period",
          "type": "uint256"
        }
      ],
      "name": "checkMiningRewardDeprecatedAtPeriod",
      "outputs": [
        {
          "internalType": "bool[]",
          "name": "_result",
          "type": "bool[]"
        }
      ],
      "stateMutability": "view",
      "type": "function"
    },
    {
      "inputs": [],
      "name": "currentPeriod",
      "outputs": [
        {
          "internalType": "uint256",
          "name": "",
          "type": "uint256"
        }
      ],
      "stateMutability": "view",
      "type": "function"
    },
    {
      "inputs": [],
      "name": "currentPeriodStartAtBlock",
      "outputs": [
        {
          "internalType": "uint256",
          "name": "",
          "type": "uint256"
        }
      ],
      "stateMutability": "view",
      "type": "function"
    },
    {
      "inputs": [],
      "name": "emergencyExitLockedAmount",
      "outputs": [
        {
          "internalType": "uint256",
          "name": "",
          "type": "uint256"
        }
      ],
      "stateMutability": "view",
      "type": "function"
    },
    {
      "inputs": [],
      "name": "emergencyExpiryDuration",
      "outputs": [
        {
          "internalType": "uint256",
          "name": "",
          "type": "uint256"
        }
      ],
      "stateMutability": "view",
      "type": "function"
    },
    {
      "inputs": [
        {
          "internalType": "uint256",
          "name": "_block",
          "type": "uint256"
        }
      ],
      "name": "epochEndingAt",
      "outputs": [
        {
          "internalType": "bool",
          "name": "",
          "type": "bool"
        }
      ],
      "stateMutability": "view",
      "type": "function"
    },
    {
      "inputs": [
        {
          "internalType": "uint256",
          "name": "_block",
          "type": "uint256"
        }
      ],
      "name": "epochOf",
      "outputs": [
        {
          "internalType": "uint256",
          "name": "",
          "type": "uint256"
        }
      ],
      "stateMutability": "view",
      "type": "function"
    },
    {
      "inputs": [
        {
          "internalType": "address",
          "name": "_candidateAdmin",
          "type": "address"
        },
        {
          "internalType": "address",
          "name": "_consensusAddr",
          "type": "address"
        },
        {
          "internalType": "address payable",
          "name": "_treasuryAddr",
          "type": "address"
        },
        {
          "internalType": "address",
          "name": "_bridgeOperatorAddr",
          "type": "address"
        },
        {
          "internalType": "uint256",
          "name": "_commissionRate",
          "type": "uint256"
        }
      ],
      "name": "execApplyValidatorCandidate",
      "outputs": [],
      "stateMutability": "nonpayable",
      "type": "function"
    },
    {
      "inputs": [
        {
          "internalType": "address",
          "name": "_validatorAddr",
          "type": "address"
        },
        {
          "internalType": "uint256",
          "name": "_period",
          "type": "uint256"
        }
      ],
      "name": "execBailOut",
      "outputs": [],
      "stateMutability": "nonpayable",
      "type": "function"
    },
    {
      "inputs": [
        {
          "internalType": "address",
          "name": "_consensusAddr",
          "type": "address"
        },
        {
          "internalType": "uint256",
          "name": "_secLeftToRevoke",
          "type": "uint256"
        }
      ],
      "name": "execEmergencyExit",
      "outputs": [],
      "stateMutability": "nonpayable",
      "type": "function"
    },
    {
      "inputs": [
        {
          "internalType": "address",
          "name": "_consensusAddr",
          "type": "address"
        },
        {
          "internalType": "address payable",
          "name": "_recipient",
          "type": "address"
        }
      ],
      "name": "execReleaseLockedFundForEmergencyExitRequest",
      "outputs": [],
      "stateMutability": "nonpayable",
      "type": "function"
    },
    {
      "inputs": [
        {
          "internalType": "address",
          "name": "_consensusAddr",
          "type": "address"
        },
        {
          "internalType": "uint256",
          "name": "_secsLeft",
          "type": "uint256"
        }
      ],
      "name": "execRequestRenounceCandidate",
      "outputs": [],
      "stateMutability": "nonpayable",
      "type": "function"
    },
    {
      "inputs": [
        {
          "internalType": "address",
          "name": "_consensusAddr",
          "type": "address"
        },
        {
          "internalType": "uint256",
          "name": "_effectiveDaysOnwards",
          "type": "uint256"
        },
        {
          "internalType": "uint256",
          "name": "_commissionRate",
          "type": "uint256"
        }
      ],
      "name": "execRequestUpdateCommissionRate",
      "outputs": [],
      "stateMutability": "nonpayable",
      "type": "function"
    },
    {
      "inputs": [
        {
          "internalType": "address",
          "name": "_validatorAddr",
          "type": "address"
        },
        {
          "internalType": "uint256",
          "name": "_newJailedUntil",
          "type": "uint256"
        },
        {
          "internalType": "uint256",
          "name": "_slashAmount",
          "type": "uint256"
        },
        {
          "internalType": "bool",
          "name": "_cannotBailout",
          "type": "bool"
        }
      ],
      "name": "execSlash",
      "outputs": [],
      "stateMutability": "nonpayable",
      "type": "function"
    },
    {
      "inputs": [],
      "name": "getBlockProducers",
      "outputs": [
        {
          "internalType": "address[]",
          "name": "_result",
          "type": "address[]"
        }
      ],
      "stateMutability": "view",
      "type": "function"
    },
    {
      "inputs": [],
      "name": "getBridgeOperators",
      "outputs": [
        {
          "internalType": "address[]",
          "name": "_result",
          "type": "address[]"
        }
      ],
      "stateMutability": "view",
      "type": "function"
    },
    {
      "inputs": [
        {
          "internalType": "address[]",
          "name": "_validatorAddrs",
          "type": "address[]"
        }
      ],
      "name": "getBridgeOperatorsOf",
      "outputs": [
        {
          "internalType": "address[]",
          "name": "_result",
          "type": "address[]"
        }
      ],
      "stateMutability": "view",
      "type": "function"
    },
    {
      "inputs": [
        {
          "internalType": "address",
          "name": "_candidate",
          "type": "address"
        }
      ],
      "name": "getCandidateInfo",
      "outputs": [
        {
          "components": [
            {
              "internalType": "address",
              "name": "admin",
              "type": "address"
            },
            {
              "internalType": "address",
              "name": "consensusAddr",
              "type": "address"
            },
            {
              "internalType": "address payable",
              "name": "treasuryAddr",
              "type": "address"
            },
            {
              "internalType": "address",
              "name": "bridgeOperatorAddr",
              "type": "address"
            },
            {
              "internalType": "uint256",
              "name": "commissionRate",
              "type": "uint256"
            },
            {
              "internalType": "uint256",
              "name": "revokingTimestamp",
              "type": "uint256"
            },
            {
              "internalType": "uint256",
              "name": "topupDeadline",
              "type": "uint256"
            }
          ],
          "internalType": "struct ICandidateManager.ValidatorCandidate",
          "name": "",
          "type": "tuple"
        }
      ],
      "stateMutability": "view",
      "type": "function"
    },
    {
      "inputs": [],
      "name": "getCandidateInfos",
      "outputs": [
        {
          "components": [
            {
              "internalType": "address",
              "name": "admin",
              "type": "address"
            },
            {
              "internalType": "address",
              "name": "consensusAddr",
              "type": "address"
            },
            {
              "internalType": "address payable",
              "name": "treasuryAddr",
              "type": "address"
            },
            {
              "internalType": "address",
              "name": "bridgeOperatorAddr",
              "type": "address"
            },
            {
              "internalType": "uint256",
              "name": "commissionRate",
              "type": "uint256"
            },
            {
              "internalType": "uint256",
              "name": "revokingTimestamp",
              "type": "uint256"
            },
            {
              "internalType": "uint256",
              "name": "topupDeadline",
              "type": "uint256"
            }
          ],
          "internalType": "struct ICandidateManager.ValidatorCandidate[]",
          "name": "_list",
          "type": "tuple[]"
        }
      ],
      "stateMutability": "view",
      "type": "function"
    },
    {
      "inputs": [
        {
          "internalType": "address",
          "name": "_candidate",
          "type": "address"
        }
      ],
      "name": "getCommissionChangeSchedule",
      "outputs": [
        {
          "components": [
            {
              "internalType": "uint256",
              "name": "effectiveTimestamp",
              "type": "uint256"
            },
            {
              "internalType": "uint256",
              "name": "commissionRate",
              "type": "uint256"
            }
          ],
          "internalType": "struct ICandidateManager.CommissionSchedule",
          "name": "",
          "type": "tuple"
        }
      ],
      "stateMutability": "view",
      "type": "function"
    },
    {
      "inputs": [
        {
          "internalType": "address",
          "name": "_consensusAddr",
          "type": "address"
        }
      ],
      "name": "getEmergencyExitInfo",
      "outputs": [
        {
          "components": [
            {
              "internalType": "uint256",
              "name": "lockedAmount",
              "type": "uint256"
            },
            {
              "internalType": "uint256",
              "name": "recyclingAt",
              "type": "uint256"
            }
          ],
          "internalType": "struct ICommonInfo.EmergencyExitInfo",
          "name": "_info",
          "type": "tuple"
        }
      ],
      "stateMutability": "view",
      "type": "function"
    },
    {
      "inputs": [
        {
          "internalType": "address",
          "name": "_addr",
          "type": "address"
        }
      ],
      "name": "getJailedTimeLeft",
      "outputs": [
        {
          "internalType": "bool",
          "name": "isJailed_",
          "type": "bool"
        },
        {
          "internalType": "uint256",
          "name": "blockLeft_",
          "type": "uint256"
        },
        {
          "internalType": "uint256",
          "name": "epochLeft_",
          "type": "uint256"
        }
      ],
      "stateMutability": "view",
      "type": "function"
    },
    {
      "inputs": [
        {
          "internalType": "address",
          "name": "_addr",
          "type": "address"
        },
        {
          "internalType": "uint256",
          "name": "_blockNum",
          "type": "uint256"
        }
      ],
      "name": "getJailedTimeLeftAtBlock",
      "outputs": [
        {
          "internalType": "bool",
          "name": "isJailed_",
          "type": "bool"
        },
        {
          "internalType": "uint256",
          "name": "blockLeft_",
          "type": "uint256"
        },
        {
          "internalType": "uint256",
          "name": "epochLeft_",
          "type": "uint256"
        }
      ],
      "stateMutability": "view",
      "type": "function"
    },
    {
      "inputs": [],
      "name": "getLastUpdatedBlock",
      "outputs": [
        {
          "internalType": "uint256",
          "name": "",
          "type": "uint256"
        }
      ],
      "stateMutability": "view",
      "type": "function"
    },
    {
      "inputs": [],
      "name": "getValidatorCandidates",
      "outputs": [
        {
          "internalType": "address[]",
          "name": "",
          "type": "address[]"
        }
      ],
      "stateMutability": "view",
      "type": "function"
    },
    {
      "inputs": [],
      "name": "getValidators",
      "outputs": [
        {
          "internalType": "address[]",
          "name": "_validatorList",
          "type": "address[]"
        }
      ],
      "stateMutability": "view",
      "type": "function"
    },
    {
      "inputs": [
        {
          "internalType": "address",
          "name": "__slashIndicatorContract",
          "type": "address"
        },
        {
          "internalType": "address",
          "name": "__stakingContract",
          "type": "address"
        },
        {
          "internalType": "address",
          "name": "__stakingVestingContract",
          "type": "address"
        },
        {
          "internalType": "address",
          "name": "__maintenanceContract",
          "type": "address"
        },
        {
          "internalType": "address",
          "name": "__roninTrustedOrganizationContract",
          "type": "address"
        },
        {
          "internalType": "address",
          "name": "__bridgeTrackingContract",
          "type": "address"
        },
        {
          "internalType": "uint256",
          "name": "__maxValidatorNumber",
          "type": "uint256"
        },
        {
          "internalType": "uint256",
          "name": "__maxValidatorCandidate",
          "type": "uint256"
        },
        {
          "internalType": "uint256",
          "name": "__maxPrioritizedValidatorNumber",
          "type": "uint256"
        },
        {
          "internalType": "uint256",
          "name": "__minEffectiveDaysOnwards",
          "type": "uint256"
        },
        {
          "internalType": "uint256",
          "name": "__numberOfBlocksInEpoch",
          "type": "uint256"
        },
        {
          "internalType": "uint256[2]",
          "name": "__emergencyExitConfigs",
          "type": "uint256[2]"
        }
      ],
      "name": "initialize",
      "outputs": [],
      "stateMutability": "nonpayable",
      "type": "function"
    },
    {
      "inputs": [
        {
          "internalType": "address",
          "name": "_addr",
          "type": "address"
        }
      ],
      "name": "isBlockProducer",
      "outputs": [
        {
          "internalType": "bool",
          "name": "",
          "type": "bool"
        }
      ],
      "stateMutability": "view",
      "type": "function"
    },
    {
      "inputs": [
        {
          "internalType": "address",
          "name": "_bridgeOperatorAddr",
          "type": "address"
        }
      ],
      "name": "isBridgeOperator",
      "outputs": [
        {
          "internalType": "bool",
          "name": "_result",
          "type": "bool"
        }
      ],
      "stateMutability": "view",
      "type": "function"
    },
    {
      "inputs": [
        {
          "internalType": "address",
          "name": "_candidate",
          "type": "address"
        },
        {
          "internalType": "address",
          "name": "_admin",
          "type": "address"
        }
      ],
      "name": "isCandidateAdmin",
      "outputs": [
        {
          "internalType": "bool",
          "name": "",
          "type": "bool"
        }
      ],
      "stateMutability": "view",
      "type": "function"
    },
    {
      "inputs": [
        {
          "internalType": "address",
          "name": "_consensusAddr",
          "type": "address"
        }
      ],
      "name": "isOperatingBridge",
      "outputs": [
        {
          "internalType": "bool",
          "name": "",
          "type": "bool"
        }
      ],
      "stateMutability": "view",
      "type": "function"
    },
    {
      "inputs": [],
      "name": "isPeriodEnding",
      "outputs": [
        {
          "internalType": "bool",
          "name": "",
          "type": "bool"
        }
      ],
      "stateMutability": "view",
      "type": "function"
    },
    {
      "inputs": [
        {
          "internalType": "address",
          "name": "_addr",
          "type": "address"
        }
      ],
      "name": "isValidator",
      "outputs": [
        {
          "internalType": "bool",
          "name": "",
          "type": "bool"
        }
      ],
      "stateMutability": "view",
      "type": "function"
    },
    {
      "inputs": [
        {
          "internalType": "address",
          "name": "_addr",
          "type": "address"
        }
      ],
      "name": "isValidatorCandidate",
      "outputs": [
        {
          "internalType": "bool",
          "name": "",
          "type": "bool"
        }
      ],
      "stateMutability": "view",
      "type": "function"
    },
    {
      "inputs": [],
      "name": "maintenanceContract",
      "outputs": [
        {
          "internalType": "address",
          "name": "",
          "type": "address"
        }
      ],
      "stateMutability": "view",
      "type": "function"
    },
    {
      "inputs": [],
      "name": "maxPrioritizedValidatorNumber",
      "outputs": [
        {
          "internalType": "uint256",
          "name": "_maximumPrioritizedValidatorNumber",
          "type": "uint256"
        }
      ],
      "stateMutability": "view",
      "type": "function"
    },
    {
      "inputs": [],
      "name": "maxValidatorCandidate",
      "outputs": [
        {
          "internalType": "uint256",
          "name": "",
          "type": "uint256"
        }
      ],
      "stateMutability": "view",
      "type": "function"
    },
    {
      "inputs": [],
      "name": "maxValidatorNumber",
      "outputs": [
        {
          "internalType": "uint256",
          "name": "_maximumValidatorNumber",
          "type": "uint256"
        }
      ],
      "stateMutability": "view",
      "type": "function"
    },
    {
      "inputs": [],
      "name": "minEffectiveDaysOnwards",
      "outputs": [
        {
          "internalType": "uint256",
          "name": "",
          "type": "uint256"
        }
      ],
      "stateMutability": "view",
      "type": "function"
    },
    {
      "inputs": [],
      "name": "numberOfBlocksInEpoch",
      "outputs": [
        {
          "internalType": "uint256",
          "name": "_numberOfBlocks",
          "type": "uint256"
        }
      ],
      "stateMutability": "view",
      "type": "function"
    },
    {
      "inputs": [],
      "name": "precompilePickValidatorSetAddress",
      "outputs": [
        {
          "internalType": "address",
          "name": "",
          "type": "address"
        }
      ],
      "stateMutability": "view",
      "type": "function"
    },
    {
      "inputs": [],
      "name": "precompileSortValidatorsAddress",
      "outputs": [
        {
          "internalType": "address",
          "name": "",
          "type": "address"
        }
      ],
      "stateMutability": "view",
      "type": "function"
    },
    {
      "inputs": [],
      "name": "roninTrustedOrganizationContract",
      "outputs": [
        {
          "internalType": "address",
          "name": "",
          "type": "address"
        }
      ],
      "stateMutability": "view",
      "type": "function"
    },
    {
      "inputs": [
        {
          "internalType": "address",
          "name": "_addr",
          "type": "address"
        }
      ],
      "name": "setBridgeTrackingContract",
      "outputs": [],
      "stateMutability": "nonpayable",
      "type": "function"
    },
    {
      "inputs": [
        {
          "internalType": "uint256",
          "name": "_emergencyExitLockedAmount",
          "type": "uint256"
        }
      ],
      "name": "setEmergencyExitLockedAmount",
      "outputs": [],
      "stateMutability": "nonpayable",
      "type": "function"
    },
    {
      "inputs": [
        {
          "internalType": "uint256",
          "name": "_emergencyExpiryDuration",
          "type": "uint256"
        }
      ],
      "name": "setEmergencyExpiryDuration",
      "outputs": [],
      "stateMutability": "nonpayable",
      "type": "function"
    },
    {
      "inputs": [
        {
          "internalType": "address",
          "name": "_addr",
          "type": "address"
        }
      ],
      "name": "setMaintenanceContract",
      "outputs": [],
      "stateMutability": "nonpayable",
      "type": "function"
    },
    {
      "inputs": [
        {
          "internalType": "uint256",
          "name": "_number",
          "type": "uint256"
        }
      ],
      "name": "setMaxPrioritizedValidatorNumber",
      "outputs": [],
      "stateMutability": "nonpayable",
      "type": "function"
    },
    {
      "inputs": [
        {
          "internalType": "uint256",
          "name": "_number",
          "type": "uint256"
        }
      ],
      "name": "setMaxValidatorCandidate",
      "outputs": [],
      "stateMutability": "nonpayable",
      "type": "function"
    },
    {
      "inputs": [
        {
          "internalType": "uint256",
          "name": "_max",
          "type": "uint256"
        }
      ],
      "name": "setMaxValidatorNumber",
      "outputs": [],
      "stateMutability": "nonpayable",
      "type": "function"
    },
    {
      "inputs": [
        {
          "internalType": "uint256",
          "name": "_numOfDays",
          "type": "uint256"
        }
      ],
      "name": "setMinEffectiveDaysOnwards",
      "outputs": [],
      "stateMutability": "nonpayable",
      "type": "function"
    },
    {
      "inputs": [
        {
          "internalType": "address",
          "name": "_addr",
          "type": "address"
        }
      ],
      "name": "setRoninTrustedOrganizationContract",
      "outputs": [],
      "stateMutability": "nonpayable",
      "type": "function"
    },
    {
      "inputs": [
        {
          "internalType": "address",
          "name": "_addr",
          "type": "address"
        }
      ],
      "name": "setSlashIndicatorContract",
      "outputs": [],
      "stateMutability": "nonpayable",
      "type": "function"
    },
    {
      "inputs": [
        {
          "internalType": "address",
          "name": "_addr",
          "type": "address"
        }
      ],
      "name": "setStakingContract",
      "outputs": [],
      "stateMutability": "nonpayable",
      "type": "function"
    },
    {
      "inputs": [
        {
          "internalType": "address",
          "name": "_addr",
          "type": "address"
        }
      ],
      "name": "setStakingVestingContract",
      "outputs": [],
      "stateMutability": "nonpayable",
      "type": "function"
    },
    {
      "inputs": [],
      "name": "slashIndicatorContract",
      "outputs": [
        {
          "internalType": "address",
          "name": "",
          "type": "address"
        }
      ],
      "stateMutability": "view",
      "type": "function"
    },
    {
      "inputs": [],
      "name": "stakingContract",
      "outputs": [
        {
          "internalType": "address",
          "name": "",
          "type": "address"
        }
      ],
      "stateMutability": "view",
      "type": "function"
    },
    {
      "inputs": [],
      "name": "stakingVestingContract",
      "outputs": [
        {
          "internalType": "address",
          "name": "",
          "type": "address"
        }
      ],
      "stateMutability": "view",
      "type": "function"
    },
    {
      "inputs": [],
      "name": "submitBlockReward",
      "outputs": [],
      "stateMutability": "payable",
      "type": "function"
    },
    {
      "inputs": [],
      "name": "totalBlockProducers",
      "outputs": [
        {
          "internalType": "uint256",
          "name": "_total",
          "type": "uint256"
        }
      ],
      "stateMutability": "view",
      "type": "function"
    },
    {
      "inputs": [],
      "name": "totalBridgeOperators",
      "outputs": [
        {
          "internalType": "uint256",
          "name": "_total",
          "type": "uint256"
        }
      ],
      "stateMutability": "view",
      "type": "function"
    },
    {
      "inputs": [],
      "name": "totalDeprecatedReward",
      "outputs": [
        {
          "internalType": "uint256",
          "name": "",
          "type": "uint256"
        }
      ],
      "stateMutability": "view",
      "type": "function"
    },
    {
      "inputs": [
        {
          "internalType": "uint256",
          "name": "_epoch",
          "type": "uint256"
        }
      ],
      "name": "tryGetPeriodOfEpoch",
      "outputs": [
        {
          "internalType": "bool",
          "name": "_filled",
          "type": "bool"
        },
        {
          "internalType": "uint256",
          "name": "_periodNumber",
          "type": "uint256"
        }
      ],
      "stateMutability": "view",
      "type": "function"
    },
    {
      "inputs": [],
      "name": "validatorCount",
      "outputs": [
        {
          "internalType": "uint256",
          "name": "",
          "type": "uint256"
        }
      ],
      "stateMutability": "view",
      "type": "function"
    },
    {
      "inputs": [],
      "name": "wrapUpEpoch",
      "outputs": [],
      "stateMutability": "payable",
      "type": "function"
    },
    {
      "stateMutability": "payable",
      "type": "receive"
    }
  ],
  "transactionHash": "0x0d946e371c19e5173bdfb4235dec1af229a6e298df27a6d2694dc2f4bbd284da",
  "args": [],
  "numDeployments": 7,
  "solcInputHash": "1fd2739e5c5a547bccbf26ee45f48ee5",
  "bytecode": "0x60806040523480156200001157600080fd5b506200001c62000022565b620000e4565b600054610100900460ff16156200008f5760405162461bcd60e51b815260206004820152602760248201527f496e697469616c697a61626c653a20636f6e747261637420697320696e697469604482015266616c697a696e6760c81b606482015260840160405180910390fd5b60005460ff9081161015620000e2576000805460ff191660ff9081179091556040519081527f7f26b83ff96e1f2b6a682f133852f6798a09c465da95921460cefb38474024989060200160405180910390a15b565b615f6b80620000f46000396000f3fe6080604052600436106103345760003560e01c8063605239a1116101ae578063605239a1146107bb57806365244ece146107d05780636611f843146107f0578063690b7536146108105780636aa1c2ef1461082557806372e468101461083a5780637593ff7114610842578063823a7b9c1461086257806387c891bd146108825780638d559c381461089757806396585fc2146108ab5780639b19dbfd146108cb5780639c8d98da146108e05780639dd373b9146109005780639e94b9ec14610920578063a0c3f2d214610935578063a3d545f514610955578063a66c0f7714610975578063a7c2f1191461098a578063ad295783146109aa578063b405aaf2146109ca578063b5e337de146109ea578063b7ab4db514610a0a578063ba77b06c14610a1f578063c3c8b5d614610a34578063c94aaa0214610a54578063cba44de914610a74578063d09f1ab414610a89578063d2cb215e14610a9e578063dd716ad314610abc578063e5125a1d14610adc578063edb194bb14610afc578063ee99205c14610b5e578063eeb629a814610b73578063f2811bcc14610b88578063facd743b14610ba857610343565b806303bbfb301461034b57806304d971ab1461038057806306040618146103a05780630f43a677146103c35780631104e528146103d957806311662dc2146103f95780631196ab661461043657806315b5ebde146104565780631b6e0a99146104765780631f628801146104a3578063217f35c2146104c357806323c65eb0146104d857806328bde1e1146104f85780632924de7114610525578063297a8fca146105455780632bcf3d151461055a5780632d784a981461057a5780632f78204c146105a75780633529214b146105c7578063367ec12b146105e95780633b3159b6146106095780634244d4c91461061d5780634493421e1461064a578063468c96ae1461066857806346fe93111461069f57806349096d26146106bf5780634d8df063146106d45780634de2b735146106f45780634ee4d72b146107145780634f2a693f1461072957806352091f17146107495780635248184a146107515780635511cde114610773578063562d5304146107915780635a08482d146107a657610343565b3661034357610341610bc8565b005b610341610bc8565b34801561035757600080fd5b5061036b6103663660046153d5565b610c2d565b60405190151581526020015b60405180910390f35b34801561038c57600080fd5b5061036b61039b3660046153f2565b610c4b565b3480156103ac57600080fd5b506103b5610c72565b604051908152602001610377565b3480156103cf57600080fd5b506103b560aa5481565b3480156103e557600080fd5b506103416103f436600461542b565b610c82565b34801561040557600080fd5b5061041961041436600461548f565b610f0d565b604080519315158452602084019290925290820152606001610377565b34801561044257600080fd5b506103416104513660046154bb565b610f90565b34801561046257600080fd5b5061034161047136600461548f565b610fd4565b34801561048257600080fd5b5061049661049136600461551f565b6110f0565b604051610377919061556a565b3480156104af57600080fd5b5061036b6104be3660046153d5565b6111ad565b3480156104cf57600080fd5b5061036b6111e7565b3480156104e457600080fd5b5061036b6104f336600461548f565b6111fc565b34801561050457600080fd5b506105186105133660046153d5565b611208565b6040516103779190615604565b34801561053157600080fd5b5061036b6105403660046153d5565b6112ab565b34801561055157600080fd5b506004546103b5565b34801561056657600080fd5b506103416105753660046153d5565b6112b7565b34801561058657600080fd5b5061059a6105953660046153d5565b611323565b6040516103779190615612565b3480156105b357600080fd5b506103416105c2366004615637565b6113b3565b3480156105d357600080fd5b506105dc6115cf565b6040516103779190615681565b3480156105f557600080fd5b506103416106043660046156a6565b6115de565b34801561061557600080fd5b5060686105dc565b34801561062957600080fd5b5061063d6106383660046157d5565b611769565b60405161037791906158b7565b34801561065657600080fd5b50606e546001600160a01b03166105dc565b34801561067457600080fd5b506106886106833660046154bb565b611820565b604080519215158352602083019190915201610377565b3480156106ab57600080fd5b506103416106ba3660046153d5565b61185e565b3480156106cb57600080fd5b5061063d6118ca565b3480156106e057600080fd5b506103416106ef3660046154bb565b6119b3565b34801561070057600080fd5b5061049661070f3660046158ca565b6119f4565b34801561072057600080fd5b5060e4546103b5565b34801561073557600080fd5b506103416107443660046154bb565b611aaf565b610341611af0565b34801561075d57600080fd5b50610766611eef565b604051610377919061590b565b34801561077f57600080fd5b5060a8546001600160a01b03166105dc565b34801561079d57600080fd5b506103b561201f565b3480156107b257600080fd5b506105dc612073565b3480156107c757600080fd5b506072546103b5565b3480156107dc57600080fd5b5061036b6107eb3660046153d5565b612082565b3480156107fc57600080fd5b5061034161080b3660046154bb565b6120b6565b34801561081c57600080fd5b5060e5546103b5565b34801561083157600080fd5b506001546103b5565b6103416120f7565b34801561084e57600080fd5b5061036b61085d3660046154bb565b612355565b34801561086e57600080fd5b5061034161087d3660046154bb565b612379565b34801561088e57600080fd5b506002546103b5565b3480156108a357600080fd5b5060666105dc565b3480156108b757600080fd5b506104196108c63660046153d5565b6123ba565b3480156108d757600080fd5b5061063d6123d6565b3480156108ec57600080fd5b506103416108fb3660046153d5565b6124c2565b34801561090c57600080fd5b5061034161091b3660046153d5565b61252e565b34801561092c57600080fd5b506103b561259a565b34801561094157600080fd5b5061036b6109503660046153d5565b6125ee565b34801561096157600080fd5b506103b56109703660046154bb565b61260b565b34801561098157600080fd5b5060e6546103b5565b34801561099657600080fd5b506103416109a536600461548f565b612616565b3480156109b657600080fd5b506103416109c53660046153d5565b612884565b3480156109d657600080fd5b5061036b6109e53660046153d5565b6128f0565b3480156109f657600080fd5b50610341610a053660046153d5565b612975565b348015610a1657600080fd5b5061063d6129e1565b348015610a2b57600080fd5b5061063d612a8e565b348015610a4057600080fd5b50610341610a4f3660046153f2565b612af0565b348015610a6057600080fd5b50610341610a6f3660046154bb565b612d73565b348015610a8057600080fd5b506076546103b5565b348015610a9557600080fd5b5060a9546103b5565b348015610aaa57600080fd5b50606f546001600160a01b03166105dc565b348015610ac857600080fd5b50610341610ad736600461548f565b612db4565b348015610ae857600080fd5b50610341610af736600461594d565b612e5e565b348015610b0857600080fd5b5061059a610b173660046153d5565b6040805180820190915260008082526020820152506001600160a01b0316600090815260776020908152604091829020825180840190935280548352600101549082015290565b348015610b6a57600080fd5b506105dc612f93565b348015610b7f57600080fd5b5060ad546103b5565b348015610b9457600080fd5b50610496610ba33660046158ca565b612fa2565b348015610bb457600080fd5b5061036b610bc33660046153d5565b61306b565b610bd06115cf565b6001600160a01b0316336001600160a01b031614158015610c0a5750610bf4612f93565b6001600160a01b0316336001600160a01b031614155b15610c2b5760405160016234baed60e01b0319815260040160405180910390fd5b565b600080610c38610c72565b9050610c4483826130a8565b9392505050565b6001600160a01b038281166000908152607560205260409020548116908216145b92915050565b6000610c7d60035490565b905090565b33610c8b612f93565b6001600160a01b031614610cb257604051638aaf4a0760e01b815260040160405180910390fd5b6073546072548110610cd757604051638616841b60e01b815260040160405180910390fd5b610ce0856125ee565b15610cfe57604051638ad9cdf960e01b815260040160405180910390fd5b612710821115610d2157604051631b8454a360e21b815260040160405180910390fd5b60005b607354811015610e1c5760006075600060738481548110610d4757610d47615982565b60009182526020808320909101546001600160a01b03908116845290830193909352604090910190208054909250811690891603610da3578760405163fc3d8c7560e01b8152600401610d9a9190615681565b60405180910390fd5b60028101546001600160a01b0390811690871603610dd65785604051632d33a7e760e11b8152600401610d9a9190615681565b60038101546001600160a01b0390811690861603610e0957846040516350e1263b60e01b8152600401610d9a9190615681565b5080610e14816159ae565b915050610d24565b506001600160a01b038581166000818152607460209081526040808320861990556073805460018082019092557ff79bde9ddd17963ebce6f7d021d60de7c2bd0db944d23c900c0c0e775f5300520180546001600160a01b03199081168717909155607590935292819020805483168c87169081178255938101805484168617905560028101805484168b8816908117909155600382018054909416968a1696909617909255600482018790555190939192907fd690f592ed983cfbc05717fbcf06c4e10ae328432c309fe49246cf4a4be69fcd90610efc908990615681565b60405180910390a450505050505050565b6001600160a01b0382166000908152603a60205260408120548190819084811015610f4357600080600093509350935050610f89565b60019350610f5185826159c7565b610f5c9060016159da565b9250610f678561260b565b610f708261260b565b610f7a91906159c7565b610f859060016159da565b9150505b9250925092565b610f986130d3565b6001600160a01b0316336001600160a01b031614610fc85760405162461bcd60e51b8152600401610d9a906159ed565b610fd181613101565b50565b33610fdd612073565b6001600160a01b031614611004576040516328b9c24b60e21b815260040160405180910390fd5b6001600160a01b0382166000908152603c6020526040902054431161103e57816040516353e0424d60e01b8152600401610d9a9190615681565b6001600160a01b038216600081815260386020908152604080832085845282528083208054600160ff19918216811790925594845260378352818420868552909252909120805490921690915561109590436159c7565b6001600160a01b0383166000818152603a6020526040908190209290925590517f6bb2436cb6b6eb65d5a52fac2ae0373a77ade6661e523ef3004ee2d5524e6c6e906110e49084815260200190565b60405180910390a25050565b6060826001600160401b0381111561110a5761110a61576c565b604051908082528060200260200182016040528015611133578160200160208202803683370190505b50905060005b838110156111a55761117185858381811061115657611156615982565b905060200201602081019061116b91906153d5565b8461315f565b82828151811061118357611183615982565b911515602092830291909101909101528061119d816159ae565b915050611139565b509392505050565b6001600160a01b038116600090815260ac6020526040812054610c6c9060029060ff1660038111156111e1576111e1615a2f565b9061318a565b6000610c7d6111f5426131bd565b6003541090565b6000610c4483836131cc565b611210615384565b611219826125ee565b6112365760405163a64b34ad60e01b815260040160405180910390fd5b506001600160a01b03908116600090815260756020908152604091829020825160e081018452815485168152600182015485169281019290925260028101548416928201929092526003820154909216606083015260048101546080830152600581015460a08301526006015460c082015290565b6000610c6c82436111fc565b6112bf6130d3565b6001600160a01b0316336001600160a01b0316146112ef5760405162461bcd60e51b8152600401610d9a906159ed565b806001600160a01b03163b60000361131a57604051637bcd509160e01b815260040160405180910390fd5b610fd1816131ec565b604080518082018252600080825260209182018190526001600160a01b038416815260e88252829020825180840190935280548352600101549082018190526113ae5760405162461bcd60e51b815260206004820181905260248201527f436f6d6d6f6e53746f726167653a206e6f6e2d6578697374656e7420696e666f6044820152606401610d9a565b919050565b336113bc612073565b6001600160a01b0316146113e3576040516328b9c24b60e21b815260040160405180910390fd5b60006113ed610c72565b6001600160a01b03861660008181526037602090815260408083208584528252808320805460ff1916600117905592825260e181528282205460e09091529190205491925061143b916159da565b60e4600082825461144c91906159da565b90915550506001600160a01b038516600090815260e06020908152604080832083905560e18252808320839055603a90915290205461148c908590613237565b6001600160a01b0386166000908152603a6020526040902055821561153c5760715460405163138ac02f60e11b81526000916001600160a01b031690632715805e906114de9089908890600401615a45565b6020604051808303816000875af11580156114fd573d6000803e3d6000fd5b505050506040513d601f19601f820116820180604052508101906115219190615a5e565b90508060e4600082825461153591906159da565b9091555050505b8115611580576001600160a01b0385166000908152603c6020526040902054611566908590613237565b6001600160a01b0386166000908152603c60205260409020555b6001600160a01b0385166000818152603a6020526040808220549051849392600080516020615f16833981519152926115c0929091899160019190615a77565b60405180910390a35050505050565b606d546001600160a01b031690565b600054610100900460ff16158080156115fe5750600054600160ff909116105b806116185750303b158015611618575060005460ff166001145b61167b5760405162461bcd60e51b815260206004820152602e60248201527f496e697469616c697a61626c653a20636f6e747261637420697320616c72656160448201526d191e481a5b9a5d1a585b1a5e995960921b6064820152608401610d9a565b6000805460ff19166001179055801561169e576000805461ff0019166101001790555b6116a78d6131ec565b6116b08c61324e565b6116b98b613299565b6116c28a6132e4565b6116cb8861332f565b6116d48961337a565b6116dd876133c5565b6116e6866133fa565b6116ef8561342f565b6116f884613101565b6117028235613487565b61170f60208301356134bc565b6001839055801561175a576000805461ff0019169055604051600181527f7f26b83ff96e1f2b6a682f133852f6798a09c465da95921460cefb38474024989060200160405180910390a15b50505050505050505050505050565b606081516001600160401b038111156117845761178461576c565b6040519080825280602002602001820160405280156117ad578160200160208202803683370190505b50905060005b815181101561181a576117de8382815181106117d1576117d1615982565b60200260200101516134f1565b8282815181106117f0576117f0615982565b6001600160a01b039092166020928302919091019091015280611812816159ae565b9150506117b3565b50919050565b60008061182c4361260b565b83111580611847575060008381526005602052604090205415155b600093845260056020526040909320549293915050565b6118666130d3565b6001600160a01b0316336001600160a01b0316146118965760405162461bcd60e51b8152600401610d9a906159ed565b806001600160a01b03163b6000036118c157604051637bcd509160e01b815260040160405180910390fd5b610fd1816132e4565b606060aa546001600160401b038111156118e6576118e661576c565b60405190808252806020026020018201604052801561190f578160200160208202803683370190505b5090506000805b82518110156119ad57600081815260ab6020526040902054611940906001600160a01b0316612082565b1561199b57600081815260ab60205260409020546001600160a01b03168383611968816159ae565b94508151811061197a5761197a615982565b60200260200101906001600160a01b031690816001600160a01b0316815250505b806119a5816159ae565b915050611916565b50815290565b6119bb6130d3565b6001600160a01b0316336001600160a01b0316146119eb5760405162461bcd60e51b8152600401610d9a906159ed565b610fd1816134bc565b6060816001600160401b03811115611a0e57611a0e61576c565b604051908082528060200260200182016040528015611a37578160200160208202803683370190505b50905060005b82811015611aa857611a74848483818110611a5a57611a5a615982565b9050602002016020810190611a6f91906153d5565b6134fc565b828281518110611a8657611a86615982565b9115156020928302919091019091015280611aa0816159ae565b915050611a3d565b5092915050565b611ab76130d3565b6001600160a01b0316336001600160a01b031614611ae75760405162461bcd60e51b8152600401610d9a906159ed565b610fd1816133fa565b334114611b10576040516309f358fd60e01b815260040160405180910390fd5b34336000611b1d82612082565b8015611b2f5750611b2d826134fc565b155b8015611b495750611b4782611b42610c72565b61315f565b155b606d54604051630634f5b960e01b8152821515600482015260016024820181905292935060009182916001600160a01b0390911690630634f5b9906044016060604051808303816000875af1158015611ba6573d6000803e3d6000fd5b505050506040513d601f19601f82011682018060405250810190611bca9190615a96565b92509250508060e26000828254611be191906159da565b90915550849050611c3f578560e46000828254611bfe91906159da565b92505081905550846001600160a01b0316600080516020615ef6833981519152876001604051611c2f929190615acd565b60405180910390a2505050505050565b846001600160a01b03167f0ede5c3be8625943fa64003cd4b91230089411249f3059bac6500873543ca9b18784604051611c7a929190615aff565b60405180910390a26000611c8c610c72565b90506000611c9a84896159da565b6001600160a01b03881660009081526038602090815260408083208684529091528120549192509060ff1615611da5576070546040805163631c8fd160e11b815290516000926001600160a01b03169163c6391fa29160048083019260809291908290030181865afa158015611d14573d6000803e3d6000fd5b505050506040513d601f19601f82011682018060405250810190611d389190615b0d565b93505050506127108184611d4c9190615b43565b611d569190615b70565b91508160e46000828254611d6a91906159da565b92505081905550886001600160a01b0316600080516020615ef6833981519152836002604051611d9b929190615acd565b60405180910390a2505b611daf81836159c7565b91506000607160009054906101000a90046001600160a01b03166001600160a01b031663c673316c6040518163ffffffff1660e01b8152600401602060405180830381865afa158015611e06573d6000803e3d6000fd5b505050506040513d601f19601f82011682018060405250810190611e2a9190615a5e565b6001600160a01b038a1660009081526075602052604081206004015491925090611e549083613508565b90506000612710611e658684615b43565b611e6f9190615b70565b6001600160a01b038c16600090815260e06020526040812080549293508392909190611e9c9084906159da565b9091555060009050611eae82876159c7565b6001600160a01b038d16600090815260e16020526040812080549293508392909190611edb9084906159da565b909155505050505050505050505050505050565b6073546060906001600160401b03811115611f0c57611f0c61576c565b604051908082528060200260200182016040528015611f4557816020015b611f32615384565b815260200190600190039081611f2a5790505b50905060005b815181101561201b576075600060738381548110611f6b57611f6b615982565b60009182526020808320909101546001600160a01b039081168452838201949094526040928301909120825160e081018452815485168152600182015485169281019290925260028101548416928201929092526003820154909216606083015260048101546080830152600581015460a08301526006015460c08201528251839083908110611ffd57611ffd615982565b60200260200101819052508080612013906159ae565b915050611f4b565b5090565b6000805b60aa5481101561201b57600081815260ab602052604090205461204e906001600160a01b03166111ad565b15612061578161205d816159ae565b9250505b8061206b816159ae565b915050612023565b6070546001600160a01b031690565b6001600160a01b038116600090815260ac6020526040812054610c6c9060019060ff1660038111156111e1576111e1615a2f565b6120be6130d3565b6001600160a01b0316336001600160a01b0316146120ee5760405162461bcd60e51b8152600401610d9a906159ed565b610fd181613487565b334114612117576040516309f358fd60e01b815260040160405180910390fd5b61212043612355565b61213d57604051636c74eecf60e01b815260040160405180910390fd5b6121464361260b565b61215160025461260b565b1061216f57604051632458f64160e01b815260040160405180910390fd5b43600255600061217e426131bd565b9050600061218d826003541090565b905060006121996129e1565b9050606060006121a84361260b565b905060006121b78260016159da565b905060006121c3610c72565b905085156122ef576121d58186613517565b6000806121e28388613772565b915091506121f2838884846139a4565b6121fa613aad565b612202613c08565b607054604051631da0214360e21b81526001600160a01b0390911690637680850c90612234908a908790600401615b84565b600060405180830381600087803b15801561224e57600080fd5b505af1158015612262573d6000803e3d6000fd5b5050505061226f89613d37565b80519198509650156122de576070546040516303e1697b60e11b81526001600160a01b03909116906307c2d2f6906122ab9089906004016158b7565b600060405180830381600087803b1580156122c557600080fd5b505af11580156122d9573d6000803e3d6000fd5b505050505b6122e94360016159da565b60045550505b6122fa878387613ec2565b82817f0195462033384fec211477c56217da64a58bd405e0bed331ba4ded67e4ae4ce78860405161232f911515815260200190565b60405180910390a350600090815260056020526040902085905550505060039190915550565b60006001805461236591906159c7565b6001546123729084615ba6565b1492915050565b6123816130d3565b6001600160a01b0316336001600160a01b0316146123b15760405162461bcd60e51b8152600401610d9a906159ed565b610fd1816133c5565b60008060006123c98443610f0d565b9250925092509193909250565b606060aa546001600160401b038111156123f2576123f261576c565b60405190808252806020026020018201604052801561241b578160200160208202803683370190505b5090506000805b82518110156119ad57600081815260ab602052604090205461244c906001600160a01b03166111ad565b156124b057600081815260ab6020526040902054612472906001600160a01b03166134f1565b838361247d816159ae565b94508151811061248f5761248f615982565b60200260200101906001600160a01b031690816001600160a01b0316815250505b806124ba816159ae565b915050612422565b6124ca6130d3565b6001600160a01b0316336001600160a01b0316146124fa5760405162461bcd60e51b8152600401610d9a906159ed565b806001600160a01b03163b60000361252557604051637bcd509160e01b815260040160405180910390fd5b610fd18161332f565b6125366130d3565b6001600160a01b0316336001600160a01b0316146125665760405162461bcd60e51b8152600401610d9a906159ed565b806001600160a01b03163b60000361259157604051637bcd509160e01b815260040160405180910390fd5b610fd18161324e565b6000805b60aa5481101561201b57600081815260ab60205260409020546125c9906001600160a01b0316612082565b156125dc57816125d8816159ae565b9250505b806125e6816159ae565b91505061259e565b6001600160a01b0316600090815260746020526040902054151590565b6000610c6c82614287565b3361261f612f93565b6001600160a01b03161461264657604051638aaf4a0760e01b815260040160405180910390fd5b6001600160a01b038216600090815260e8602052604090206001810154156126815760405163057aab3160e31b815260040160405180910390fd5b600061268d83426159da565b6001600160a01b03851660009081526075602052604090209091506126b290826142a2565b6001600160a01b038085166000908152603b602052604080822084905560715460e554915163138ac02f60e11b815292931691632715805e916126fa91899190600401615a45565b6020604051808303816000875af1158015612719573d6000803e3d6000fd5b505050506040513d601f19601f8201168201806040525081019061273d9190615a5e565b9050801561283a57600060e6544261275591906159da565b60e78054600180820183556000929092527f6cb0db1d7354dfb4a1464318006df0643cafe2002a86a29ff8560f900fef28a10180546001600160a01b0319166001600160a01b038a16179055838655850181905590506127b36130d3565b6001600160a01b0387811660008181526075602052604090819020600201549051630a2fae5760e41b81526004810192909252821660248201524260448201526064810184905291169063a2fae57090608401600060405180830381600087803b15801561282057600080fd5b505af1158015612834573d6000803e3d6000fd5b50505050505b846001600160a01b03167f77a1a819870c0f4d04c3ca4cc2881a0393136abc28bd651af50aedade94a27c48260405161287591815260200190565b60405180910390a25050505050565b61288c6130d3565b6001600160a01b0316336001600160a01b0316146128bc5760405162461bcd60e51b8152600401610d9a906159ed565b806001600160a01b03163b6000036128e757604051637bcd509160e01b815260040160405180910390fd5b610fd181613299565b6000805b60aa5481101561181a57600081815260ab60205260409020546001600160a01b038085169161292391166134f1565b6001600160a01b03161480156129555750600081815260ab6020526040902054612955906001600160a01b03166111ad565b15612963576001915061181a565b8061296d816159ae565b9150506128f4565b61297d6130d3565b6001600160a01b0316336001600160a01b0316146129ad5760405162461bcd60e51b8152600401610d9a906159ed565b806001600160a01b03163b6000036129d857604051637bcd509160e01b815260040160405180910390fd5b610fd18161337a565b606060aa546001600160401b038111156129fd576129fd61576c565b604051908082528060200260200182016040528015612a26578160200160208202803683370190505b50905060005b815181101561201b57600081815260ab602052604090205482516001600160a01b0390911690839083908110612a6457612a64615982565b6001600160a01b039092166020928302919091019091015280612a86816159ae565b915050612a2c565b60606073805480602002602001604051908101604052809291908181526020018280548015612ae657602002820191906000526020600020905b81546001600160a01b03168152600190910190602001808311612ac8575b5050505050905090565b612af86130d3565b6001600160a01b0316336001600160a01b031614612b285760405162461bcd60e51b8152600401610d9a906159ed565b6001600160a01b038216600090815260e8602052604090206001015415612d6f5760e7548060005b82811015612ba957846001600160a01b031660e78281548110612b7557612b75615982565b6000918252602090912001546001600160a01b031603612b9757809150612ba9565b80612ba1816159ae565b915050612b50565b50818103612bb75750505050565b6001600160a01b038416600090815260e860205260409020548015612d6b576001600160a01b038516600090815260e860205260408120818155600190810191909155831115612c795760e7612c0e6001856159c7565b81548110612c1e57612c1e615982565b60009182526020909120015460e780546001600160a01b039092169184908110612c4a57612c4a615982565b9060005260206000200160006101000a8154816001600160a01b0302191690836001600160a01b031602179055505b60e7805480612c8a57612c8a615bba565b60008281526020808220830160001990810180546001600160a01b03191690559092019092556001600160a01b038716825260e9905260409020805460ff19166001179055612cdc8482610dac61431e565b15612d2657836001600160a01b0316856001600160a01b03167f7229136a18186c71a86246c012af3bb1df6460ef163934bbdccd6368abdd41e4836040516115c091815260200190565b836001600160a01b0316856001600160a01b03167f3747d14eb72ad3e35cba9c3e00dab3b8d15b40cac6bdbd08402356e4f69f30a183476040516115c0929190615aff565b5050505b5050565b612d7b6130d3565b6001600160a01b0316336001600160a01b031614612dab5760405162461bcd60e51b8152600401610d9a906159ed565b610fd18161342f565b33612dbd612f93565b6001600160a01b031614612de457604051638aaf4a0760e01b815260040160405180910390fd5b612ded8261437e565b15612e0b5760405163030081e760e01b815260040160405180910390fd5b6001600160a01b0382166000908152607560205260409020600581015415612e465760405163fab9167360e01b815260040160405180910390fd5b612e5981612e5484426159da565b6142a2565b505050565b33612e67612f93565b6001600160a01b031614612e8e57604051638aaf4a0760e01b815260040160405180910390fd5b6001600160a01b03831660009081526077602052604090205415612ec557604051632f32dcdd60e11b815260040160405180910390fd5b612710811115612ee857604051631b8454a360e21b815260040160405180910390fd5b607654821015612f0b5760405163fa0ae69360e01b815260040160405180910390fd5b6001600160a01b03831660009081526077602052604081209083612f326201518042615b70565b612f3c91906159da565b612f499062015180615b43565b808355600183018490556040519091506001600160a01b038616907f6ebafd1bb6316b2f63198a81b05cff2149c6eaae1784466a6d062b4391900f21906128759084908790615aff565b6071546001600160a01b031690565b6060816001600160401b03811115612fbc57612fbc61576c565b604051908082528060200260200182016040528015612fe5578160200160208202803683370190505b5090506000612ff2610c72565b905060005b838110156130635761302f85858381811061301457613014615982565b905060200201602081019061302991906153d5565b8361315f565b83828151811061304157613041615982565b911515602092830291909101909101528061305b816159ae565b915050612ff7565b505092915050565b6001600160a01b038116600090815260ac60205260408120546130a19060ff16600381111561309c5761309c615a2f565b6143fb565b1592915050565b6001600160a01b03919091166000908152603960209081526040808320938352929052205460ff1690565b7fb53127684a568b3173ae13b9f8a6016e243e63b6e8ee1178d6a717850b5d6103546001600160a01b031690565b6001811015613123576040516317b8970f60e01b815260040160405180910390fd5b60768190556040518181527f266d432ffe659e3565750d26ec685b822a58041eee724b67a5afec3168a25267906020015b60405180910390a150565b6001600160a01b03919091166000908152603760209081526040808320938352929052205460ff1690565b600081600381111561319e5761319e615a2f565b8360038111156131b0576131b0615a2f565b1660ff1615159392505050565b6000610c6c6201518083615b70565b6001600160a01b03919091166000908152603a6020526040902054101590565b607080546001600160a01b0319166001600160a01b0383161790556040517faa5b07dd43aa44c69b70a6a2b9c3fcfed12b6e5f6323596ba7ac91035ab80a4f90613154908390615681565b6000818310156132475781610c44565b5090919050565b607180546001600160a01b0319166001600160a01b0383161790556040517f6397f5b135542bb3f477cb346cfab5abdec1251d08dc8f8d4efb4ffe122ea0bf90613154908390615681565b606d80546001600160a01b0319166001600160a01b0383161790556040517fc328090a37d855191ab58469296f98f87a851ca57d5cdfd1e9ac3c83e9e7096d90613154908390615681565b606f80546001600160a01b0319166001600160a01b0383161790556040517f31a33f126a5bae3c5bdf6cfc2cd6dcfffe2fe9634bdb09e21c44762993889e3b90613154908390615681565b606e80546001600160a01b0319166001600160a01b0383161790556040517f034c8da497df28467c79ddadbba1cc3cdd41f510ea73faae271e6f16a611162190613154908390615681565b60a880546001600160a01b0319166001600160a01b0383161790556040517ffd6f5f93d69a07c593a09be0b208bff13ab4ffd6017df3b33433d63bdc59b4d790613154908390615681565b60a98190556040518181527fb5464c05fd0e0f000c535850116cda2742ee1f7b34384cb920ad7b8e802138b590602001613154565b60728190556040518181527f82d5dc32d1b741512ad09c32404d7e7921e8934c6222343d95f55f7a2b9b2ab490602001613154565b60a954811115613452576040516355408ce960e11b815260040160405180910390fd5b60ad8190556040518181527fa9588dc77416849bd922605ce4fc806712281ad8a8f32d4238d6c8cca548e15e90602001613154565b60e58190556040518181527f17a6c3eb965cdd7439982da25abf85be88f0f772ca33198f548e2f99fee0289a90602001613154565b60e68190556040518181527f0a50c66137118f386332efb949231ddd3946100dbf880003daca37ddd9e0662b90602001613154565b6000610c6c82614419565b6000610c6c82436131cc565b60008183106132475781610c44565b606e5460405163889998ef60e01b8152600481018490526001600160a01b0390911690600090829063889998ef90602401602060405180830381865afa158015613565573d6000803e3d6000fd5b505050506040513d601f19601f820116820180604052508101906135899190615a5e565b60405163033cdc2b60e31b8152600481018690529091506000906001600160a01b038416906319e6e15890602401602060405180830381865afa1580156135d4573d6000803e3d6000fd5b505050506040513d601f19601f820116820180604052508101906135f89190615a5e565b9050600061360585611769565b90506000846001600160a01b031663f67e815288846040518363ffffffff1660e01b8152600401613637929190615bd0565b600060405180830381865afa158015613654573d6000803e3d6000fd5b505050506040513d6000823e601f3d908101601f1916820160405261367c9190810190615bf1565b9050600080600080607060009054906101000a90046001600160a01b03166001600160a01b0316631079402a6040518163ffffffff1660e01b8152600401608060405180830381865afa1580156136d7573d6000803e3d6000fd5b505050506040513d601f19601f820116820180604052508101906136fb9190615b0d565b935093509350935060005b8a51811015613764576137528c8c838151811061372557613725615982565b602002602001015188848151811061373f5761373f615982565b60200260200101518b8d8a8a8a8a61443e565b8061375c816159ae565b915050613706565b505050505050505050505050565b6000606060008084516001600160401b038111156137925761379261576c565b6040519080825280602002602001820160405280156137bb578160200160208202803683370190505b50925060005b8551811015613994578581815181106137dc576137dc615982565b6020908102919091018101516001600160a01b038082166000908152607590935260409092206002015490945016915061381683886130a8565b613849576001600160a01b03808416600090815260756020526040902060030154613844918591168461485e565b61387b565b6001600160a01b038316600090815260e3602052604081205460e48054919290916138759084906159da565b90915550505b613884836134fc565b1580156138985750613896838861315f565b155b1561390c576001600160a01b038316600090815260e160205260409020546138c090866159da565b6001600160a01b038416600090815260e160205260409020548551919650908590839081106138f1576138f1615982565b602002602001018181525050613907838361493b565b613952565b6001600160a01b038316600090815260e1602090815260408083205460e09092529091205461393b91906159da565b60e4600082825461394c91906159da565b90915550505b6001600160a01b038316600090815260e16020908152604080832083905560e0825280832083905560e39091528120558061398c816159ae565b9150506137c1565b5060e26000905550509250929050565b6071546001600160a01b03168215612d6b576139c08184614a03565b15613a685760405163566bce2360e11b81526001600160a01b0382169063acd79c46906139f590879086908a90600401615ca6565b600060405180830381600087803b158015613a0f57600080fd5b505af1158015613a23573d6000803e3d6000fd5b505050507f9e242ca1ef9dde96eb71ef8d19a3f0f6a619b63e4c0d3998771387103656d087838584604051613a5a93929190615cdc565b60405180910390a150613aa7565b7fe5668ec1bb2b6bb144a50f810e388da4b1d7d3fc05fcb9d588a1aac59d248f8983858447604051613a9d9493929190615d11565b60405180910390a1505b50505050565b60e754600080805b83831015613aa75760e78381548110613ad057613ad0615982565b60009182526020808320909101546001600160a01b031680835260e89091526040909120600181015491935091504210613bf657805460e48054600090613b189084906159da565b90915550506001600160a01b038216600090815260e860205260408120818155600101819055613b4785615d4e565b9450841115613bbe5760e78481548110613b6357613b63615982565b60009182526020909120015460e780546001600160a01b039092169185908110613b8f57613b8f615982565b9060005260206000200160006101000a8154816001600160a01b0302191690836001600160a01b031602179055505b60e7805480613bcf57613bcf615bba565b600082815260209020810160001990810180546001600160a01b0319169055019055613ab5565b82613c00816159ae565b935050613ab5565b60e4548015610fd1576000613c1b6115cf565b600060e481905560408051600481526024810182526020810180516001600160e01b03166359f778df60e01b179052905192935090916001600160a01b038416918591613c689190615d65565b60006040518083038185875af1925050503d8060008114613ca5576040519150601f19603f3d011682016040523d82523d6000602084013e613caa565b606091505b505090508015613cfc57816001600160a01b03167fc447c884574da5878be39c403db2245c22530c99b579ea7bcbb3720e1d110dc884604051613cef91815260200190565b60405180910390a2505050565b816001600160a01b03167fa0561a59abed308fcd0556834574739d778cc6229018039a24ddda0f86aa0b738447604051613cef929190615aff565b606080613d4383614a5f565b6071546040516391f8723f60e01b81529192506000916001600160a01b03909116906391f8723f90613d7a90607390600401615d94565b600060405180830381865afa158015613d97573d6000803e3d6000fd5b505050506040513d6000823e601f3d908101601f19168201604052613dbf9190810190615bf1565b60a854604051632907e73160e11b81529192506000916001600160a01b039091169063520fce6290613df690607390600401615d94565b600060405180830381865afa158015613e13573d6000803e3d6000fd5b505050506040513d6000823e601f3d908101601f19168201604052613e3b9190810190615bf1565b90506000613eaa6073805480602002602001604051908101604052809291908181526020018280548015613e9857602002820191906000526020600020905b81546001600160a01b03168152600190910190602001808311613e7a575b5050505050848460a95460ad54614f53565b9095509050613eba85828861501d565b505050915091565b606f546000906001600160a01b031663fdadda8183613ee24360016159da565b6040518363ffffffff1660e01b8152600401613eff929190615b84565b600060405180830381865afa158015613f1c573d6000803e3d6000fd5b505050506040513d6000823e601f3d908101601f19168201604052613f449190810190615dd8565b905060005b8251811015614200576000838281518110613f6657613f66615982565b6020908102919091018101516001600160a01b0381166000908152603b909252604082205490925042111590613f9b83612082565b90506000613fa8846134fc565b80613fc95750858581518110613fc057613fc0615982565b60200260200101515b80613fd15750825b15905081158015613fdf5750805b1561405a576001600160a01b038416600090815260ac602052604090205461401e9060019060ff16600381111561401857614018615a2f565b9061517b565b6001600160a01b038516600090815260ac60205260409020805460ff1916600183600381111561405057614050615a2f565b02179055506140dc565b818015614065575080155b156140dc576001600160a01b038416600090815260ac60205260409020546140a49060019060ff16600381111561409e5761409e615a2f565b906151b6565b6001600160a01b038516600090815260ac60205260409020805460ff191660018360038111156140d6576140d6615a2f565b02179055505b60006140e7856111ad565b90508315811580156140f65750805b1561416b576001600160a01b038616600090815260ac602052604090205461412f9060029060ff16600381111561401857614018615a2f565b6001600160a01b038716600090815260ac60205260409020805460ff1916600183600381111561416157614161615a2f565b02179055506141e7565b818015614176575080155b156141e7576001600160a01b038616600090815260ac60205260409020546141af9060029060ff16600381111561409e5761409e615a2f565b6001600160a01b038716600090815260ac60205260409020805460ff191660018360038111156141e1576141e1615a2f565b02179055505b50505050505080806141f8906159ae565b915050613f49565b5082847f283b50d76057d5f828df85bc87724c6af604e9b55c363a07c9faa2a2cd688b8261422c6118ca565b60405161423991906158b7565b60405180910390a382847f773d1888df530d69716b183a92450d45f97fba49f2a4bb34fae3b23da0e2cc6f61426c6123d6565b60405161427991906158b7565b60405180910390a350505050565b6000600154826142979190615b70565b610c6c9060016159da565b60018201546142b9906001600160a01b03166125ee565b6142d65760405163a64b34ad60e01b815260040160405180910390fd5b6005820181905560018201546040518281526001600160a01b03909116907fb9a1e33376bfbda9092f2d1e37662c1b435aab0d3fa8da3acc8f37ee222f99e7906020016110e4565b6000836001600160a01b0316838390604051600060405180830381858888f193505050503d806000811461436e576040519150601f19603f3d011682016040523d82523d6000602084013e614373565b606091505b509095945050505050565b60a85460405163107fbb4760e21b815260009182916001600160a01b03909116906341feed1c906143b3908690600401615681565b602060405180830381865afa1580156143d0573d6000803e3d6000fd5b505050506040513d601f19601f820116820180604052508101906143f49190615a5e565b1192915050565b600081600381111561440f5761440f615a2f565b60ff161592915050565b6001600160a01b03808216600090815260756020526040812060030154909116610c6c565b841580801561444b575086155b156144845761445861201f565b60e2546144659190615b70565b6001600160a01b038a16600090815260e3602052604090205550614853565b80156144905750614853565b8187116144b057858860e2546144a69190615b43565b6144659190615b70565b6000876144bf6127108b615b43565b6144c99190615b70565b905060006144d9826127106159c7565b90508581106146f4576001603960008d6001600160a01b03166001600160a01b0316815260200190815260200160002060008e815260200190815260200160002060006101000a81548160ff0219169083151502179055506001603760008d6001600160a01b03166001600160a01b0316815260200190815260200160002060008e815260200190815260200160002060006101000a81548160ff0219169083151502179055506145ad854361458f91906159da565b6001600160a01b038d166000908152603a6020526040902054613237565b6001600160a01b038c166000908152603a60205260409020556145f16145d386436159da565b6001600160a01b038d166000908152603c6020526040902054613237565b603c60008d6001600160a01b03166001600160a01b0316815260200190815260200160002081905550607060009054906101000a90046001600160a01b03166001600160a01b031663c008ce398c60028f6040518463ffffffff1660e01b815260040161466093929190615e66565b600060405180830381600087803b15801561467a57600080fd5b505af115801561468e573d6000803e3d6000fd5b505050508b8b6001600160a01b0316600080516020615f16833981519152603a60008f6001600160a01b03166001600160a01b031681526020019081526020016000205460006001806040516146e79493929190615a77565b60405180910390a3613764565b868110614817576001603960008d6001600160a01b03166001600160a01b0316815260200190815260200160002060008e815260200190815260200160002060006101000a81548160ff021916908315150217905550607060009054906101000a90046001600160a01b03166001600160a01b031663c008ce398c60018f6040518463ffffffff1660e01b815260040161479093929190615e66565b600060405180830381600087803b1580156147aa57600080fd5b505af11580156147be573d6000803e3d6000fd5b505050508b8b6001600160a01b0316600080516020615f16833981519152603a60008f6001600160a01b03166001600160a01b031681526020019081526020016000205460008060016040516146e79493929190615a77565b871561376457878a60e25461482c9190615b43565b6148369190615b70565b6001600160a01b038c16600090815260e360205260409020555050505b505050505050505050565b6001600160a01b038316600090815260e360205260409020548015613aa75761488a8282610dac61431e565b156148ec57816001600160a01b0316836001600160a01b0316856001600160a01b03167f72a57dc38837a1cba7881b7b1a5594d9e6b65cec6a985b54e2cee3e89369691c846040516148de91815260200190565b60405180910390a450505050565b816001600160a01b0316836001600160a01b0316856001600160a01b03167fd35d76d87d51ed89407fc7ceaaccf32cf72784b94530892ce33546540e141b7284476040516148de929190615aff565b6001600160a01b038216600090815260e060205260409020548015612e59576149678282610dac61431e565b156149be57816001600160a01b0316836001600160a01b03167f1ce7a1c4702402cd393500acb1de5bd927727a54e144a587d328f1b679abe4ec836040516149b191815260200190565b60405180910390a3505050565b816001600160a01b0316836001600160a01b03167f6c69e09ee5c5ac33c0cd57787261c5bade070a392ab34a4b5487c6868f723f6e83476040516149b1929190615aff565b6000826001600160a01b03168260405160006040518083038185875af1925050503d8060008114614a50576040519150601f19603f3d011682016040523d82523d6000602084013e614a55565b606091505b5090949350505050565b6071546040805163af24542960e01b815290516060926001600160a01b031691600091839163af2454299160048083019260209291908290030181865afa158015614aae573d6000803e3d6000fd5b505050506040513d601f19601f82011682018060405250810190614ad29190615a5e565b90506000826001600160a01b031663909791dd6040518163ffffffff1660e01b8152600401602060405180830381865afa158015614b14573d6000803e3d6000fd5b505050506040513d601f19601f82011682018060405250810190614b389190615a5e565b90506000836001600160a01b03166342ef3c3460736040518263ffffffff1660e01b8152600401614b699190615d94565b600060405180830381865afa158015614b86573d6000803e3d6000fd5b505050506040513d6000823e601f3d908101601f19168201604052614bae9190810190615bf1565b6073549091506000816001600160401b03811115614bce57614bce61576c565b604051908082528060200260200182016040528015614bf7578160200160208202803683370190505b50965060008060005b84831015614ea35760738381548110614c1b57614c1b615982565b60009182526020808320909101546001600160a01b031680835260759091526040909120600681015488519294509092501515908890889086908110614c6357614c63615982565b60200260200101511015614cbf5780614cba576000614c828a426159da565b600684018190556040518181529091506001600160a01b03851690600080516020615ed68339815191529060200160405180910390a2505b614d00565b8015614d00578160060160009055826001600160a01b0316600080516020615ed68339815191526000604051614cf791815260200190565b60405180910390a25b60008260050154600014158015614d1b575042836005015411155b80614d3e57506001600160a01b038416600090815260e9602052604090205460ff165b905060008360060154600014158015614d5b575042846006015411155b90508180614d665750805b15614dfc5788614d7589615d4e565b98508881518110614d8857614d88615982565b6020026020010151898781518110614da257614da2615982565b6020908102919091010152848d88614db9816159ae565b995081518110614dcb57614dcb615982565b60200260200101906001600160a01b031690816001600160a01b031681525050614df4856151f2565b505050614c00565b6001600160a01b0385166000908152607760205260409020548015801590614e245750428111155b15614e8d576001600160a01b0386166000818152607760209081526040808320600181018054918590559390935560048901839055518281529192917f86d576c20e383fc2413ef692209cc48ddad5e52f25db5b32f8f7ec5076461ae9910160405180910390a2505b86614e97816159ae565b97505050505050614c00565b505081159050614f48578087527f4eaf233b9dc25a5552c1927feee1412eea69add17c2485c831c2e60e234f3c9187604051614edf91906158b7565b60405180910390a160405163e22d1c9d60e01b81526001600160a01b0387169063e22d1c9d90614f15908a908c90600401615b84565b600060405180830381600087803b158015614f2f57600080fd5b505af1158015614f43573d6000803e3d6000fd5b505050505b505050505050919050565b60606000806068905060008888888888604051602401614f77959493929190615e87565b60408051601f19818403018152919052602080820180516001600160e01b0316633bca0a8960e11b17905281518b519293506001929091600091614fba91615b43565b614fc59060406159da565b90506020840181888483895afa614fdb57600093505b503d614fe657600092505b6020870196508261500a57604051630fc2632160e01b815260040160405180910390fd5b8651955050505050509550959350505050565b815b60aa5481101561507b57600081815260ab6020818152604080842080546001600160a01b0316855260ac8352908420805460ff19169055928490525280546001600160a01b031916905580615073816159ae565b91505061501f565b5060005b828110156150c557600081815260ab60209081526040808320546001600160a01b0316835260ac9091529020805460ff19169055806150bd816159ae565b91505061507f565b5060005b828110156151435760008482815181106150e5576150e5615982565b6020908102919091018101516001600160a01b0316600081815260ac83526040808220805460ff1916600317905585825260ab9093529190912080546001600160a01b0319169091179055508061513b816159ae565b9150506150c9565b508160aa81905550807f3d0eea40644a206ec25781dd5bb3b60eb4fa1264b993c3bddf3c73b14f29ef5e84604051613cef91906158b7565b600081600381111561518f5761518f615a2f565b8360038111156151a1576151a1615a2f565b1760ff166003811115610c4457610c44615a2f565b60008160038111156151ca576151ca615a2f565b198360038111156151dd576151dd615a2f565b1660ff166003811115610c4457610c44615a2f565b6001600160a01b038116600090815260e960209081526040808320805460ff191690556074909152812054610fd19183919081900361522f575050565b6001600160a01b038216600090815260756020908152604080832080546001600160a01b0319908116825560018083018054831690556002830180548316905560038301805490921690915560048201859055600582018590556006909101849055607483528184208490556077909252822082815581018290556073805490916152b9916159c7565b815481106152c9576152c9615982565b6000918252602090912001546001600160a01b0390811691508316811461534c576001600160a01b038116600090815260746020526040902082905560738054829190841990811061531d5761531d615982565b9060005260206000200160006101000a8154816001600160a01b0302191690836001600160a01b031602179055505b607380548061535d5761535d615bba565b600082815260209020810160001990810180546001600160a01b0319169055019055505050565b6040805160e081018252600080825260208201819052918101829052606081018290526080810182905260a0810182905260c081019190915290565b6001600160a01b0381168114610fd157600080fd5b6000602082840312156153e757600080fd5b8135610c44816153c0565b6000806040838503121561540557600080fd5b8235615410816153c0565b91506020830135615420816153c0565b809150509250929050565b600080600080600060a0868803121561544357600080fd5b853561544e816153c0565b9450602086013561545e816153c0565b9350604086013561546e816153c0565b9250606086013561547e816153c0565b949793965091946080013592915050565b600080604083850312156154a257600080fd5b82356154ad816153c0565b946020939093013593505050565b6000602082840312156154cd57600080fd5b5035919050565b60008083601f8401126154e657600080fd5b5081356001600160401b038111156154fd57600080fd5b6020830191508360208260051b850101111561551857600080fd5b9250929050565b60008060006040848603121561553457600080fd5b83356001600160401b0381111561554a57600080fd5b615556868287016154d4565b909790965060209590950135949350505050565b6020808252825182820181905260009190848201906040850190845b818110156155a4578351151583529284019291840191600101615586565b50909695505050505050565b60018060a01b03808251168352806020830151166020840152806040830151166040840152806060830151166060840152506080810151608083015260a081015160a083015260c081015160c08301525050565b60e08101610c6c82846155b0565b815181526020808301519082015260408101610c6c565b8015158114610fd157600080fd5b6000806000806080858703121561564d57600080fd5b8435615658816153c0565b93506020850135925060408501359150606085013561567681615629565b939692955090935050565b6001600160a01b0391909116815260200190565b8060408101831015610c6c57600080fd5b6000806000806000806000806000806000806101a08d8f0312156156c957600080fd5b8c356156d4816153c0565b9b5060208d01356156e4816153c0565b9a5060408d01356156f4816153c0565b995060608d0135615704816153c0565b985060808d0135615714816153c0565b975060a08d0135615724816153c0565b965060c08d0135955060e08d013594506101008d013593506101208d013592506101408d0135915061575a8e6101608f01615695565b90509295989b509295989b509295989b565b634e487b7160e01b600052604160045260246000fd5b604051601f8201601f191681016001600160401b03811182821017156157aa576157aa61576c565b604052919050565b60006001600160401b038211156157cb576157cb61576c565b5060051b60200190565b600060208083850312156157e857600080fd5b82356001600160401b038111156157fe57600080fd5b8301601f8101851361580f57600080fd5b803561582261581d826157b2565b615782565b81815260059190911b8201830190838101908783111561584157600080fd5b928401925b82841015615868578335615859816153c0565b82529284019290840190615846565b979650505050505050565b600081518084526020808501945080840160005b838110156158ac5781516001600160a01b031687529582019590820190600101615887565b509495945050505050565b602081526000610c446020830184615873565b600080602083850312156158dd57600080fd5b82356001600160401b038111156158f357600080fd5b6158ff858286016154d4565b90969095509350505050565b6020808252825182820181905260009190848201906040850190845b818110156155a45761593a8385516155b0565b9284019260e09290920191600101615927565b60008060006060848603121561596257600080fd5b833561596d816153c0565b95602085013595506040909401359392505050565b634e487b7160e01b600052603260045260246000fd5b634e487b7160e01b600052601160045260246000fd5b6000600182016159c0576159c0615998565b5060010190565b81810381811115610c6c57610c6c615998565b80820180821115610c6c57610c6c615998565b60208082526022908201527f48617350726f787941646d696e3a20756e617574686f72697a65642073656e6460408201526132b960f11b606082015260800190565b634e487b7160e01b600052602160045260246000fd5b6001600160a01b03929092168252602082015260400190565b600060208284031215615a7057600080fd5b5051919050565b9384526020840192909252151560408301521515606082015260800190565b600080600060608486031215615aab57600080fd5b8351615ab681615629565b602085015160409095015190969495509392505050565b8281526040810160038310615af257634e487b7160e01b600052602160045260246000fd5b8260208301529392505050565b918252602082015260400190565b60008060008060808587031215615b2357600080fd5b505082516020840151604085015160609095015191969095509092509050565b8082028115828204841417610c6c57610c6c615998565b634e487b7160e01b600052601260045260246000fd5b600082615b7f57615b7f615b5a565b500490565b604081526000615b976040830185615873565b90508260208301529392505050565b600082615bb557615bb5615b5a565b500690565b634e487b7160e01b600052603160045260246000fd5b828152604060208201526000615be96040830184615873565b949350505050565b60006020808385031215615c0457600080fd5b82516001600160401b03811115615c1a57600080fd5b8301601f81018513615c2b57600080fd5b8051615c3961581d826157b2565b81815260059190911b82018301908381019087831115615c5857600080fd5b928401925b8284101561586857835182529284019290840190615c5d565b600081518084526020808501945080840160005b838110156158ac57815187529582019590820190600101615c8a565b606081526000615cb96060830186615873565b8281036020840152615ccb8186615c76565b915050826040830152949350505050565b838152606060208201526000615cf56060830185615873565b8281036040840152615d078185615c76565b9695505050505050565b848152608060208201526000615d2a6080830186615873565b8281036040840152615d3c8186615c76565b91505082606083015295945050505050565b600081615d5d57615d5d615998565b506000190190565b6000825160005b81811015615d865760208186018101518583015201615d6c565b506000920191825250919050565b6020808252825482820181905260008481528281209092916040850190845b818110156155a45783546001600160a01b031683526001938401939285019201615db3565b60006020808385031215615deb57600080fd5b82516001600160401b03811115615e0157600080fd5b8301601f81018513615e1257600080fd5b8051615e2061581d826157b2565b81815260059190911b82018301908381019087831115615e3f57600080fd5b928401925b82841015615868578351615e5781615629565b82529284019290840190615e44565b6001600160a01b039390931683526020830191909152604082015260600190565b60a081526000615e9a60a0830188615873565b8281036020840152615eac8188615c76565b90508281036040840152615ec08187615c76565b6060840195909552505060800152939250505056fe88f854e137380c14d63f6ed99781bf13402167cf55bac49bcd44d4f2d6a342754042bb9a70998f80a86d9963f0d2132e9b11c8ad94d207c6141c8e34b05ce53e54ce99c5ce1fc9f61656d4a0fb2697974d0c973ac32eecaefe06fcf18b8ef68aa2646970667358221220c404751bdd0e38f9d7131910efc0fb8267dfc163279ad93e029aff6c6f812a0764736f6c63430008110033",
  "devdoc": {
    "errors": {
      "ErrAlreadyRequestedEmergencyExit()": [
        {
          "details": "Error of already requested emergency exit before."
        }
      ],
      "ErrAlreadyRequestedRevokingCandidate()": [
        {
          "details": "Error of already requested revoking candidate before."
        }
      ],
      "ErrAlreadyRequestedUpdatingCommissionRate()": [
        {
          "details": "Error of commission change schedule exists."
        }
      ],
      "ErrAlreadyWrappedEpoch()": [
        {
          "details": "Error of query for already wrapped up epoch"
        }
      ],
      "ErrAtEndOfEpochOnly()": [
        {
          "details": "Error of only allowed at the end of epoch"
        }
      ],
      "ErrCallPrecompiled()": [
        {
          "details": "Error of call to precompile fails."
        }
      ],
      "ErrCallerMustBeBridgeTrackingContract()": [
        {
          "details": "Error of method caller must be bridge tracking contract."
        }
      ],
      "ErrCallerMustBeCoinbase()": [
        {
          "details": "Error of method caller must be coinbase"
        }
      ],
      "ErrCallerMustBeMaintenanceContract()": [
        {
          "details": "Error of method caller must be maintenance contract."
        }
      ],
      "ErrCallerMustBeRoninTrustedOrgContract()": [
        {
          "details": "Error of method caller must be Ronin trusted org contract."
        }
      ],
      "ErrCallerMustBeSlashIndicatorContract()": [
        {
          "details": "Error of method caller must be slash indicator contract."
        }
      ],
      "ErrCallerMustBeStakingContract()": [
        {
          "details": "Error of method caller must be staking contract."
        }
      ],
      "ErrCallerMustBeStakingVestingContract()": [
        {
          "details": "Error of method caller must be staking vesting contract."
        }
      ],
      "ErrCannotBailout(address)": [
        {
          "details": "Error of cannot bailout due to high tier slash."
        }
      ],
      "ErrExceedsMaxNumberOfCandidate()": [
        {
          "details": "Error of exceeding maximum number of candidates."
        }
      ],
      "ErrExistentBridgeOperator(address)": [
        {
          "details": "Error of bridge operator already exists."
        }
      ],
      "ErrExistentCandidate()": [
        {
          "details": "Error of querying for already existent candidate."
        }
      ],
      "ErrExistentCandidateAdmin(address)": [
        {
          "details": "Error of candidate admin already exists."
        }
      ],
      "ErrExistentTreasury(address)": [
        {
          "details": "Error of treasury already exists."
        }
      ],
      "ErrInsufficientBalance()": [
        {
          "details": "Error of sender has insufficient balance."
        }
      ],
      "ErrInvalidCommissionRate()": [
        {
          "details": "Error of invalid commission rate."
        }
      ],
      "ErrInvalidEffectiveDaysOnwards()": [
        {
          "details": "Error of invalid effective days onwards."
        }
      ],
      "ErrInvalidMaxPrioritizedValidatorNumber()": [
        {
          "details": "Error of number of prioritized greater than number of max validators."
        }
      ],
      "ErrInvalidMinEffectiveDaysOnwards()": [
        {
          "details": "Error of invalid min effective days onwards."
        }
      ],
      "ErrNonExistentCandidate()": [
        {
          "details": "Error of querying for non-existent candidate."
        }
      ],
      "ErrRecipientRevert()": [
        {
          "details": "Error of recipient not accepting RON when transfer RON."
        }
      ],
      "ErrTrustedOrgCannotRenounce()": [
        {
          "details": "Error of trusted org cannot renounce."
        }
      ],
      "ErrZeroCodeContract()": [
        {
          "details": "Error of set to non-contract."
        }
      ]
    },
    "kind": "dev",
    "methods": {
      "bridgeTrackingContract()": {
        "details": "Returns the bridge tracking contract."
      },
      "checkBridgeRewardDeprecated(address)": {
        "details": "Returns whether the incoming reward of the validator with `_consensusAddr` is deprecated in the current period."
      },
      "checkJailed(address)": {
        "details": "Returns whether the validator are put in jail (cannot join the set of validators) during the current period."
      },
      "checkJailedAtBlock(address,uint256)": {
        "details": "Returns whether the validator are put in jail (cannot join the set of validators) at a specific block."
      },
      "checkManyJailed(address[])": {
        "details": "Returns whether the validators are put in jail (cannot join the set of validators) during the current period."
      },
      "checkMiningRewardDeprecated(address[])": {
        "details": "Returns whether the incoming reward of the block producers are deprecated during the current period."
      },
      "checkMiningRewardDeprecatedAtPeriod(address[],uint256)": {
        "details": "Returns whether the incoming reward of the block producers are deprecated during a specific period."
      },
      "currentPeriod()": {
        "details": "Returns the period index from the current block."
      },
      "currentPeriodStartAtBlock()": {
        "details": "Returns the block number that the current period starts at."
      },
      "emergencyExitLockedAmount()": {
        "details": "Returns the amount of RON to lock from a consensus address."
      },
      "emergencyExpiryDuration()": {
        "details": "Returns the duration that an emergency request is expired and the fund will be recycled."
      },
      "epochEndingAt(uint256)": {
        "details": "Returns whether the epoch ending is at the block number `_block`."
      },
      "epochOf(uint256)": {
        "details": "Returns the epoch index from the block number."
      },
      "execApplyValidatorCandidate(address,address,address,address,uint256)": {
        "details": "Grants a validator candidate. Requirements: - The method caller is staking contract. Emits the event `CandidateGranted`."
      },
      "execBailOut(address,uint256)": {
        "details": "Finalize the bailout request from slash indicator contract. Requirements: - The method caller is slash indicator contract. Emits the event `ValidatorUnjailed`."
      },
      "execEmergencyExit(address,uint256)": {
        "details": "Fallback function of `IStaking-requestEmergencyExit`. Requirements: - The method caller is staking contract."
      },
      "execReleaseLockedFundForEmergencyExitRequest(address,address)": {
        "details": "Unlocks fund for emergency exit request. Requirements: - The method caller is admin. Emits the event `EmergencyExitLockedFundReleased` if the fund is successfully unlocked. Emits the event `EmergencyExitLockedFundReleasingFailed` if the fund is failed to unlock."
      },
      "execRequestRenounceCandidate(address,uint256)": {
        "details": "Requests to revoke a validator candidate in next `_secsLeft` seconds. Requirements: - The method caller is staking contract. Emits the event `CandidateRevokingTimestampUpdated`."
      },
      "execRequestUpdateCommissionRate(address,uint256,uint256)": {
        "details": "Fallback function of `CandidateStaking-requestUpdateCommissionRate`. Requirements: - The method caller is the staking contract. - The `_effectiveTimestamp` must be the beginning of a UTC day, and at least from 7 days onwards - The `_rate` must be in range of [0_00; 100_00]. Emits the event `CommissionRateUpdateScheduled`."
      },
      "execSlash(address,uint256,uint256,bool)": {
        "details": "Finalize the slash request from slash indicator contract. Requirements: - The method caller is slash indicator contract. Emits the event `ValidatorPunished`."
      },
      "getBlockProducers()": {
        "details": "Returns the current block producer list."
      },
      "getBridgeOperators()": {
        "details": "Returns the current bridge operator list."
      },
      "getBridgeOperatorsOf(address[])": {
        "details": "Returns the bridge operator list corresponding to validator address list."
      },
      "getCandidateInfo(address)": {
        "details": "Returns the info of a candidate."
      },
      "getCandidateInfos()": {
        "details": "Returns all candidate info."
      },
      "getCommissionChangeSchedule(address)": {
        "details": "Returns the schedule of changing commission rate of a candidate address."
      },
      "getEmergencyExitInfo(address)": {
        "details": "Returns the emergency exit request."
      },
      "getJailedTimeLeft(address)": {
        "details": "Returns whether the validator are put in jail and the number of block and epoch that he still is in the jail."
      },
      "getJailedTimeLeftAtBlock(address,uint256)": {
        "details": "Returns whether the validator are put in jail at a specific block and the number of block and epoch that he still is in the jail."
      },
      "getLastUpdatedBlock()": {
        "details": "Returns the block that validator set was updated."
      },
      "getValidatorCandidates()": {
        "details": "Returns the validator candidate."
      },
      "getValidators()": {
        "details": "Returns the current validator list."
      },
      "initialize(address,address,address,address,address,address,uint256,uint256,uint256,uint256,uint256,uint256[2])": {
        "details": "Initializes the contract storage."
      },
      "isBlockProducer(address)": {
        "details": "Returns whether the address is block producer or not."
      },
      "isBridgeOperator(address)": {
        "details": "Returns whether the address is bridge operator or not."
      },
      "isCandidateAdmin(address,address)": {
        "details": "Returns whether the address is the candidate admin."
      },
      "isOperatingBridge(address)": {
        "details": "Returns whether the consensus address is operating the bridge or not."
      },
      "isPeriodEnding()": {
        "details": "Returns whether the period ending at the current block number."
      },
      "isValidator(address)": {
        "details": "Returns whether the address is either a bridge operator or a block producer."
      },
      "isValidatorCandidate(address)": {
        "details": "Returns whether the address is a validator (candidate)."
      },
      "maintenanceContract()": {
        "details": "Returns the maintenance contract."
      },
      "maxPrioritizedValidatorNumber()": {
        "details": "Returns the number of reserved slots for prioritized validators."
      },
      "maxValidatorCandidate()": {
        "details": "Returns the maximum number of validator candidate."
      },
      "maxValidatorNumber()": {
        "details": "Returns the maximum number of validators in the epoch."
      },
      "minEffectiveDaysOnwards()": {
        "details": "Returns the minimum number of days to the effective date of commission rate change."
      },
      "numberOfBlocksInEpoch()": {
        "details": "Returns the number of blocks in a epoch."
      },
      "precompilePickValidatorSetAddress()": {
        "details": "Gets the address of the precompile of picking validator set"
      },
      "precompileSortValidatorsAddress()": {
        "details": "Gets the address of the precompile of sorting validators"
      },
      "roninTrustedOrganizationContract()": {
        "details": "Returns the ronin trusted organization contract."
      },
      "setBridgeTrackingContract(address)": {
        "details": "Sets the bridge tracking contract. Requirements: - The method caller is admin. - The new address is a contract. Emits the event `BridgeTrackingContractUpdated`."
      },
      "setEmergencyExitLockedAmount(uint256)": {
        "details": "Sets the amount of RON to lock from a consensus address. Requirements: - The method caller is admin. Emits the event `EmergencyExitLockedAmountUpdated`."
      },
      "setEmergencyExpiryDuration(uint256)": {
        "details": "Sets the duration that an emergency request is expired and the fund will be recycled. Requirements: - The method caller is admin. Emits the event `EmergencyExpiryDurationUpdated`."
      },
      "setMaintenanceContract(address)": {
        "details": "Sets the maintenance contract. Requirements: - The method caller is admin. - The new address is a contract. Emits the event `MaintenanceContractUpdated`."
      },
      "setMaxPrioritizedValidatorNumber(uint256)": {
        "details": "Updates the number of reserved slots for prioritized validators Requirements: - The method caller is admin Emits the event `MaxPrioritizedValidatorNumberUpdated`"
      },
      "setMaxValidatorCandidate(uint256)": {
        "details": "Sets the maximum number of validator candidate. Requirements: - The method caller is admin. Emits the `MaxValidatorCandidateUpdated` event."
      },
      "setMaxValidatorNumber(uint256)": {
        "details": "Updates the max validator number Requirements: - The method caller is admin Emits the event `MaxValidatorNumberUpdated`"
      },
      "setMinEffectiveDaysOnwards(uint256)": {
        "details": "Sets the minimum number of days to the effective date of commision rate change. Requirements: - The method caller is admin. Emits the `MinEffectiveDaysOnwardsUpdated` event."
      },
      "setRoninTrustedOrganizationContract(address)": {
        "details": "Sets the ronin trusted organization contract. Requirements: - The method caller is admin. - The new address is a contract. Emits the event `RoninTrustedOrganizationContractUpdated`."
      },
      "setSlashIndicatorContract(address)": {
        "details": "Sets the slash indicator contract. Requirements: - The method caller is admin. - The new address is a contract. Emits the event `SlashIndicatorContractUpdated`."
      },
      "setStakingContract(address)": {
        "details": "Sets the staking contract. Requirements: - The method caller is admin. - The new address is a contract. Emits the event `StakingContractUpdated`."
      },
      "setStakingVestingContract(address)": {
        "details": "Sets the staking vesting contract. Requirements: - The method caller is admin. - The new address is a contract. Emits the event `StakingVestingContractUpdated`."
      },
      "slashIndicatorContract()": {
        "details": "Returns the slash indicator contract."
      },
      "stakingContract()": {
        "details": "Returns the staking contract."
      },
      "stakingVestingContract()": {
        "details": "Returns the staking vesting contract."
      },
      "submitBlockReward()": {
        "details": "Submits reward of the current block. Requirements: - The method caller is coinbase. Emits the event `MiningRewardDeprecated` if the coinbase is slashed or no longer be a block producer. Emits the event `BlockRewardSubmitted` for the valid call."
      },
      "totalBlockProducers()": {
        "details": "Returns total numbers of the block producers."
      },
      "totalBridgeOperators()": {
        "details": "Returns total numbers of the bridge operators."
      },
      "totalDeprecatedReward()": {
        "details": "Returns the total deprecated reward, which includes reward that is not sent for slashed validators and unsastified bridge operators"
      },
      "tryGetPeriodOfEpoch(uint256)": {
        "details": "Tries to get the period index from the epoch number."
      },
      "wrapUpEpoch()": {
        "details": "Wraps up the current epoch. Requirements: - The method must be called when the current epoch is ending. - The epoch is not wrapped yet. - The method caller is coinbase. Emits the event `MiningRewardDistributed` when some validator has reward distributed. Emits the event `StakingRewardDistributed` when some staking pool has reward distributed. Emits the event `BlockProducerSetUpdated` when the epoch is wrapped up. Emits the event `BridgeOperatorSetUpdated` when the epoch is wrapped up at period ending. Emits the event `ValidatorSetUpdated` when the epoch is wrapped up at period ending, and the validator set gets updated. Emits the event `WrappedUpEpoch`."
      }
    },
    "version": 1
  },
  "userdoc": {
    "kind": "user",
    "methods": {},
    "version": 1
  },
  "storageLayout": {
    "storage": [
      {
        "astId": 1373,
        "contract": "contracts/ronin/validator/RoninValidatorSet.sol:RoninValidatorSet",
        "label": "_initialized",
        "offset": 0,
        "slot": "0",
        "type": "t_uint8"
      },
      {
        "astId": 1376,
        "contract": "contracts/ronin/validator/RoninValidatorSet.sol:RoninValidatorSet",
        "label": "_initializing",
        "offset": 1,
        "slot": "0",
        "type": "t_bool"
      },
      {
        "astId": 32331,
        "contract": "contracts/ronin/validator/RoninValidatorSet.sol:RoninValidatorSet",
        "label": "_numberOfBlocksInEpoch",
        "offset": 0,
        "slot": "1",
        "type": "t_uint256"
      },
      {
        "astId": 32334,
        "contract": "contracts/ronin/validator/RoninValidatorSet.sol:RoninValidatorSet",
        "label": "_lastUpdatedBlock",
        "offset": 0,
        "slot": "2",
        "type": "t_uint256"
      },
      {
        "astId": 32337,
        "contract": "contracts/ronin/validator/RoninValidatorSet.sol:RoninValidatorSet",
        "label": "_lastUpdatedPeriod",
        "offset": 0,
        "slot": "3",
        "type": "t_uint256"
      },
      {
        "astId": 32340,
        "contract": "contracts/ronin/validator/RoninValidatorSet.sol:RoninValidatorSet",
        "label": "_currentPeriodStartAtBlock",
        "offset": 0,
        "slot": "4",
        "type": "t_uint256"
      },
      {
        "astId": 32345,
        "contract": "contracts/ronin/validator/RoninValidatorSet.sol:RoninValidatorSet",
        "label": "_periodOf",
        "offset": 0,
        "slot": "5",
        "type": "t_mapping(t_uint256,t_uint256)"
      },
      {
        "astId": 32350,
        "contract": "contracts/ronin/validator/RoninValidatorSet.sol:RoninValidatorSet",
        "label": "______gap",
        "offset": 0,
        "slot": "6",
        "type": "t_array(t_uint256)49_storage"
      },
      {
        "astId": 31937,
        "contract": "contracts/ronin/validator/RoninValidatorSet.sol:RoninValidatorSet",
        "label": "_miningRewardDeprecatedAtPeriod",
        "offset": 0,
        "slot": "55",
        "type": "t_mapping(t_address,t_mapping(t_uint256,t_bool))"
      },
      {
        "astId": 31944,
        "contract": "contracts/ronin/validator/RoninValidatorSet.sol:RoninValidatorSet",
        "label": "_miningRewardBailoutCutOffAtPeriod",
        "offset": 0,
        "slot": "56",
        "type": "t_mapping(t_address,t_mapping(t_uint256,t_bool))"
      },
      {
        "astId": 31951,
        "contract": "contracts/ronin/validator/RoninValidatorSet.sol:RoninValidatorSet",
        "label": "_bridgeRewardDeprecatedAtPeriod",
        "offset": 0,
        "slot": "57",
        "type": "t_mapping(t_address,t_mapping(t_uint256,t_bool))"
      },
      {
        "astId": 31956,
        "contract": "contracts/ronin/validator/RoninValidatorSet.sol:RoninValidatorSet",
        "label": "_blockProducerJailedBlock",
        "offset": 0,
        "slot": "58",
        "type": "t_mapping(t_address,t_uint256)"
      },
      {
        "astId": 31961,
        "contract": "contracts/ronin/validator/RoninValidatorSet.sol:RoninValidatorSet",
        "label": "_emergencyExitJailedTimestamp",
        "offset": 0,
        "slot": "59",
        "type": "t_mapping(t_address,t_uint256)"
      },
      {
        "astId": 31966,
        "contract": "contracts/ronin/validator/RoninValidatorSet.sol:RoninValidatorSet",
        "label": "_cannotBailoutUntilBlock",
        "offset": 0,
        "slot": "60",
        "type": "t_mapping(t_address,t_uint256)"
      },
      {
        "astId": 31971,
        "contract": "contracts/ronin/validator/RoninValidatorSet.sol:RoninValidatorSet",
        "label": "______gap",
        "offset": 0,
        "slot": "61",
        "type": "t_array(t_uint256)48_storage"
      },
      {
        "astId": 6383,
        "contract": "contracts/ronin/validator/RoninValidatorSet.sol:RoninValidatorSet",
        "label": "_stakingVestingContract",
        "offset": 0,
        "slot": "109",
        "type": "t_contract(IStakingVesting)10285"
      },
      {
        "astId": 5876,
        "contract": "contracts/ronin/validator/RoninValidatorSet.sol:RoninValidatorSet",
        "label": "_bridgeTrackingContract",
        "offset": 0,
        "slot": "110",
        "type": "t_contract(IBridgeTracking)9335"
      },
      {
        "astId": 5955,
        "contract": "contracts/ronin/validator/RoninValidatorSet.sol:RoninValidatorSet",
        "label": "_maintenanceContract",
        "offset": 0,
        "slot": "111",
        "type": "t_contract(IMaintenance)9709"
      },
      {
        "astId": 6225,
        "contract": "contracts/ronin/validator/RoninValidatorSet.sol:RoninValidatorSet",
        "label": "_slashIndicatorContract",
        "offset": 0,
        "slot": "112",
        "type": "t_contract(ISlashIndicator)10863"
      },
      {
        "astId": 6304,
        "contract": "contracts/ronin/validator/RoninValidatorSet.sol:RoninValidatorSet",
        "label": "_stakingContract",
        "offset": 0,
        "slot": "113",
        "type": "t_contract(IStaking)11497"
      },
      {
        "astId": 28739,
        "contract": "contracts/ronin/validator/RoninValidatorSet.sol:RoninValidatorSet",
        "label": "_maxValidatorCandidate",
        "offset": 0,
        "slot": "114",
        "type": "t_uint256"
      },
      {
        "astId": 28743,
        "contract": "contracts/ronin/validator/RoninValidatorSet.sol:RoninValidatorSet",
        "label": "_candidates",
        "offset": 0,
        "slot": "115",
        "type": "t_array(t_address)dyn_storage"
      },
      {
        "astId": 28748,
        "contract": "contracts/ronin/validator/RoninValidatorSet.sol:RoninValidatorSet",
        "label": "_candidateIndex",
        "offset": 0,
        "slot": "116",
        "type": "t_mapping(t_address,t_uint256)"
      },
      {
        "astId": 28754,
        "contract": "contracts/ronin/validator/RoninValidatorSet.sol:RoninValidatorSet",
        "label": "_candidateInfo",
        "offset": 0,
        "slot": "117",
        "type": "t_mapping(t_address,t_struct(ValidatorCandidate)11514_storage)"
      },
      {
        "astId": 28757,
        "contract": "contracts/ronin/validator/RoninValidatorSet.sol:RoninValidatorSet",
        "label": "_minEffectiveDaysOnwards",
        "offset": 0,
        "slot": "118",
        "type": "t_uint256"
      },
      {
        "astId": 28763,
        "contract": "contracts/ronin/validator/RoninValidatorSet.sol:RoninValidatorSet",
        "label": "_candidateCommissionChangeSchedule",
        "offset": 0,
        "slot": "119",
        "type": "t_mapping(t_address,t_struct(CommissionSchedule)11519_storage)"
      },
      {
        "astId": 28768,
        "contract": "contracts/ronin/validator/RoninValidatorSet.sol:RoninValidatorSet",
        "label": "______gap",
        "offset": 0,
        "slot": "120",
        "type": "t_array(t_uint256)48_storage"
      },
      {
        "astId": 6146,
        "contract": "contracts/ronin/validator/RoninValidatorSet.sol:RoninValidatorSet",
        "label": "_roninTrustedOrganizationContract",
        "offset": 0,
        "slot": "168",
        "type": "t_contract(IRoninTrustedOrganization)10196"
      },
      {
        "astId": 32510,
        "contract": "contracts/ronin/validator/RoninValidatorSet.sol:RoninValidatorSet",
        "label": "_maxValidatorNumber",
        "offset": 0,
        "slot": "169",
        "type": "t_uint256"
      },
      {
        "astId": 32513,
        "contract": "contracts/ronin/validator/RoninValidatorSet.sol:RoninValidatorSet",
        "label": "validatorCount",
        "offset": 0,
        "slot": "170",
        "type": "t_uint256"
      },
      {
        "astId": 32518,
        "contract": "contracts/ronin/validator/RoninValidatorSet.sol:RoninValidatorSet",
        "label": "_validators",
        "offset": 0,
        "slot": "171",
        "type": "t_mapping(t_uint256,t_address)"
      },
      {
        "astId": 32524,
        "contract": "contracts/ronin/validator/RoninValidatorSet.sol:RoninValidatorSet",
        "label": "_validatorMap",
        "offset": 0,
        "slot": "172",
        "type": "t_mapping(t_address,t_enum(ValidatorFlag)12605)"
      },
      {
        "astId": 32527,
        "contract": "contracts/ronin/validator/RoninValidatorSet.sol:RoninValidatorSet",
        "label": "_maxPrioritizedValidatorNumber",
        "offset": 0,
        "slot": "173",
        "type": "t_uint256"
      },
      {
        "astId": 32532,
        "contract": "contracts/ronin/validator/RoninValidatorSet.sol:RoninValidatorSet",
        "label": "______gap",
        "offset": 0,
        "slot": "174",
        "type": "t_array(t_uint256)50_storage"
      },
      {
        "astId": 31813,
        "contract": "contracts/ronin/validator/RoninValidatorSet.sol:RoninValidatorSet",
        "label": "_miningReward",
        "offset": 0,
        "slot": "224",
        "type": "t_mapping(t_address,t_uint256)"
      },
      {
        "astId": 31818,
        "contract": "contracts/ronin/validator/RoninValidatorSet.sol:RoninValidatorSet",
        "label": "_delegatingReward",
        "offset": 0,
        "slot": "225",
        "type": "t_mapping(t_address,t_uint256)"
      },
      {
        "astId": 31821,
        "contract": "contracts/ronin/validator/RoninValidatorSet.sol:RoninValidatorSet",
        "label": "_totalBridgeReward",
        "offset": 0,
        "slot": "226",
        "type": "t_uint256"
      },
      {
        "astId": 31826,
        "contract": "contracts/ronin/validator/RoninValidatorSet.sol:RoninValidatorSet",
        "label": "_bridgeOperatingReward",
        "offset": 0,
        "slot": "227",
        "type": "t_mapping(t_address,t_uint256)"
      },
      {
        "astId": 31829,
        "contract": "contracts/ronin/validator/RoninValidatorSet.sol:RoninValidatorSet",
        "label": "_totalDeprecatedReward",
        "offset": 0,
        "slot": "228",
        "type": "t_uint256"
      },
      {
        "astId": 31832,
        "contract": "contracts/ronin/validator/RoninValidatorSet.sol:RoninValidatorSet",
        "label": "_emergencyExitLockedAmount",
        "offset": 0,
        "slot": "229",
        "type": "t_uint256"
      },
      {
        "astId": 31835,
        "contract": "contracts/ronin/validator/RoninValidatorSet.sol:RoninValidatorSet",
        "label": "_emergencyExpiryDuration",
        "offset": 0,
        "slot": "230",
        "type": "t_uint256"
      },
      {
        "astId": 31839,
        "contract": "contracts/ronin/validator/RoninValidatorSet.sol:RoninValidatorSet",
        "label": "_lockedConsensusList",
        "offset": 0,
        "slot": "231",
        "type": "t_array(t_address)dyn_storage"
      },
      {
        "astId": 31845,
        "contract": "contracts/ronin/validator/RoninValidatorSet.sol:RoninValidatorSet",
        "label": "_exitInfo",
        "offset": 0,
        "slot": "232",
        "type": "t_mapping(t_address,t_struct(EmergencyExitInfo)12044_storage)"
      },
      {
        "astId": 31850,
        "contract": "contracts/ronin/validator/RoninValidatorSet.sol:RoninValidatorSet",
        "label": "_lockedFundReleased",
        "offset": 0,
        "slot": "233",
        "type": "t_mapping(t_address,t_bool)"
      },
      {
        "astId": 31855,
        "contract": "contracts/ronin/validator/RoninValidatorSet.sol:RoninValidatorSet",
        "label": "______gap",
        "offset": 0,
        "slot": "234",
        "type": "t_array(t_uint256)44_storage"
      }
    ],
    "types": {
      "t_address": {
        "encoding": "inplace",
        "label": "address",
        "numberOfBytes": "20"
      },
      "t_address_payable": {
        "encoding": "inplace",
        "label": "address payable",
        "numberOfBytes": "20"
      },
      "t_array(t_address)dyn_storage": {
        "base": "t_address",
        "encoding": "dynamic_array",
        "label": "address[]",
        "numberOfBytes": "32"
      },
      "t_array(t_uint256)44_storage": {
        "base": "t_uint256",
        "encoding": "inplace",
        "label": "uint256[44]",
        "numberOfBytes": "1408"
      },
      "t_array(t_uint256)48_storage": {
        "base": "t_uint256",
        "encoding": "inplace",
        "label": "uint256[48]",
        "numberOfBytes": "1536"
      },
      "t_array(t_uint256)49_storage": {
        "base": "t_uint256",
        "encoding": "inplace",
        "label": "uint256[49]",
        "numberOfBytes": "1568"
      },
      "t_array(t_uint256)50_storage": {
        "base": "t_uint256",
        "encoding": "inplace",
        "label": "uint256[50]",
        "numberOfBytes": "1600"
      },
      "t_bool": {
        "encoding": "inplace",
        "label": "bool",
        "numberOfBytes": "1"
      },
      "t_contract(IBridgeTracking)9335": {
        "encoding": "inplace",
        "label": "contract IBridgeTracking",
        "numberOfBytes": "20"
      },
      "t_contract(IMaintenance)9709": {
        "encoding": "inplace",
        "label": "contract IMaintenance",
        "numberOfBytes": "20"
      },
      "t_contract(IRoninTrustedOrganization)10196": {
        "encoding": "inplace",
        "label": "contract IRoninTrustedOrganization",
        "numberOfBytes": "20"
      },
      "t_contract(ISlashIndicator)10863": {
        "encoding": "inplace",
        "label": "contract ISlashIndicator",
        "numberOfBytes": "20"
      },
      "t_contract(IStaking)11497": {
        "encoding": "inplace",
        "label": "contract IStaking",
        "numberOfBytes": "20"
      },
      "t_contract(IStakingVesting)10285": {
        "encoding": "inplace",
        "label": "contract IStakingVesting",
        "numberOfBytes": "20"
      },
      "t_enum(ValidatorFlag)12605": {
        "encoding": "inplace",
        "label": "enum EnumFlags.ValidatorFlag",
        "numberOfBytes": "1"
      },
      "t_mapping(t_address,t_bool)": {
        "encoding": "mapping",
        "key": "t_address",
        "label": "mapping(address => bool)",
        "numberOfBytes": "32",
        "value": "t_bool"
      },
      "t_mapping(t_address,t_enum(ValidatorFlag)12605)": {
        "encoding": "mapping",
        "key": "t_address",
        "label": "mapping(address => enum EnumFlags.ValidatorFlag)",
        "numberOfBytes": "32",
        "value": "t_enum(ValidatorFlag)12605"
      },
      "t_mapping(t_address,t_mapping(t_uint256,t_bool))": {
        "encoding": "mapping",
        "key": "t_address",
        "label": "mapping(address => mapping(uint256 => bool))",
        "numberOfBytes": "32",
        "value": "t_mapping(t_uint256,t_bool)"
      },
      "t_mapping(t_address,t_struct(CommissionSchedule)11519_storage)": {
        "encoding": "mapping",
        "key": "t_address",
        "label": "mapping(address => struct ICandidateManager.CommissionSchedule)",
        "numberOfBytes": "32",
        "value": "t_struct(CommissionSchedule)11519_storage"
      },
      "t_mapping(t_address,t_struct(EmergencyExitInfo)12044_storage)": {
        "encoding": "mapping",
        "key": "t_address",
        "label": "mapping(address => struct ICommonInfo.EmergencyExitInfo)",
        "numberOfBytes": "32",
        "value": "t_struct(EmergencyExitInfo)12044_storage"
      },
      "t_mapping(t_address,t_struct(ValidatorCandidate)11514_storage)": {
        "encoding": "mapping",
        "key": "t_address",
        "label": "mapping(address => struct ICandidateManager.ValidatorCandidate)",
        "numberOfBytes": "32",
        "value": "t_struct(ValidatorCandidate)11514_storage"
      },
      "t_mapping(t_address,t_uint256)": {
        "encoding": "mapping",
        "key": "t_address",
        "label": "mapping(address => uint256)",
        "numberOfBytes": "32",
        "value": "t_uint256"
      },
      "t_mapping(t_uint256,t_address)": {
        "encoding": "mapping",
        "key": "t_uint256",
        "label": "mapping(uint256 => address)",
        "numberOfBytes": "32",
        "value": "t_address"
      },
      "t_mapping(t_uint256,t_bool)": {
        "encoding": "mapping",
        "key": "t_uint256",
        "label": "mapping(uint256 => bool)",
        "numberOfBytes": "32",
        "value": "t_bool"
      },
      "t_mapping(t_uint256,t_uint256)": {
        "encoding": "mapping",
        "key": "t_uint256",
        "label": "mapping(uint256 => uint256)",
        "numberOfBytes": "32",
        "value": "t_uint256"
      },
      "t_struct(CommissionSchedule)11519_storage": {
        "encoding": "inplace",
        "label": "struct ICandidateManager.CommissionSchedule",
        "members": [
          {
            "astId": 11516,
            "contract": "contracts/ronin/validator/RoninValidatorSet.sol:RoninValidatorSet",
            "label": "effectiveTimestamp",
            "offset": 0,
            "slot": "0",
            "type": "t_uint256"
          },
          {
            "astId": 11518,
            "contract": "contracts/ronin/validator/RoninValidatorSet.sol:RoninValidatorSet",
            "label": "commissionRate",
            "offset": 0,
            "slot": "1",
            "type": "t_uint256"
          }
        ],
        "numberOfBytes": "64"
      },
      "t_struct(EmergencyExitInfo)12044_storage": {
        "encoding": "inplace",
        "label": "struct ICommonInfo.EmergencyExitInfo",
        "members": [
          {
            "astId": 12041,
            "contract": "contracts/ronin/validator/RoninValidatorSet.sol:RoninValidatorSet",
            "label": "lockedAmount",
            "offset": 0,
            "slot": "0",
            "type": "t_uint256"
          },
          {
            "astId": 12043,
            "contract": "contracts/ronin/validator/RoninValidatorSet.sol:RoninValidatorSet",
            "label": "recyclingAt",
            "offset": 0,
            "slot": "1",
            "type": "t_uint256"
          }
        ],
        "numberOfBytes": "64"
      },
      "t_struct(ValidatorCandidate)11514_storage": {
        "encoding": "inplace",
        "label": "struct ICandidateManager.ValidatorCandidate",
        "members": [
          {
            "astId": 11501,
            "contract": "contracts/ronin/validator/RoninValidatorSet.sol:RoninValidatorSet",
            "label": "admin",
            "offset": 0,
            "slot": "0",
            "type": "t_address"
          },
          {
            "astId": 11503,
            "contract": "contracts/ronin/validator/RoninValidatorSet.sol:RoninValidatorSet",
            "label": "consensusAddr",
            "offset": 0,
            "slot": "1",
            "type": "t_address"
          },
          {
            "astId": 11505,
            "contract": "contracts/ronin/validator/RoninValidatorSet.sol:RoninValidatorSet",
            "label": "treasuryAddr",
            "offset": 0,
            "slot": "2",
            "type": "t_address_payable"
          },
          {
            "astId": 11507,
            "contract": "contracts/ronin/validator/RoninValidatorSet.sol:RoninValidatorSet",
            "label": "bridgeOperatorAddr",
            "offset": 0,
            "slot": "3",
            "type": "t_address"
          },
          {
            "astId": 11509,
            "contract": "contracts/ronin/validator/RoninValidatorSet.sol:RoninValidatorSet",
            "label": "commissionRate",
            "offset": 0,
            "slot": "4",
            "type": "t_uint256"
          },
          {
            "astId": 11511,
            "contract": "contracts/ronin/validator/RoninValidatorSet.sol:RoninValidatorSet",
            "label": "revokingTimestamp",
            "offset": 0,
            "slot": "5",
            "type": "t_uint256"
          },
          {
            "astId": 11513,
            "contract": "contracts/ronin/validator/RoninValidatorSet.sol:RoninValidatorSet",
            "label": "topupDeadline",
            "offset": 0,
            "slot": "6",
            "type": "t_uint256"
          }
        ],
        "numberOfBytes": "224"
      },
      "t_uint256": {
        "encoding": "inplace",
        "label": "uint256",
        "numberOfBytes": "32"
      },
      "t_uint8": {
        "encoding": "inplace",
        "label": "uint8",
        "numberOfBytes": "1"
      }
    }
  }
}