{
  "address": "0x9a4c6BAe92fc629D5F4554987eb5499ceA601B75",
  "abi": [
    {
      "inputs": [
        {
          "internalType": "address",
          "name": "_roninTrustedOrganizationContract",
          "type": "address"
        },
        {
          "internalType": "address",
          "name": "_bridgeContract",
          "type": "address"
        },
        {
          "internalType": "address",
          "name": "_validatorContract",
          "type": "address"
        },
        {
          "internalType": "uint256",
          "name": "_proposalExpiryDuration",
          "type": "uint256"
        }
      ],
      "stateMutability": "nonpayable",
      "type": "constructor"
    },
    {
      "inputs": [],
      "name": "ErrCallerMustBeBridgeContract",
      "type": "error"
    },
    {
      "inputs": [],
      "name": "ErrCallerMustBeRoninTrustedOrgContract",
      "type": "error"
    },
    {
      "inputs": [],
      "name": "ErrCallerMustBeValidatorContract",
      "type": "error"
    },
    {
      "inputs": [],
      "name": "ErrZeroCodeContract",
      "type": "error"
    },
    {
      "anonymous": false,
      "inputs": [
        {
          "indexed": false,
          "internalType": "address",
          "name": "",
          "type": "address"
        }
      ],
      "name": "BridgeContractUpdated",
      "type": "event"
    },
    {
      "anonymous": false,
      "inputs": [
        {
          "indexed": false,
          "internalType": "uint256",
          "name": "_period",
          "type": "uint256"
        },
        {
          "indexed": false,
          "internalType": "uint256",
          "name": "_epoch",
          "type": "uint256"
        },
        {
          "indexed": false,
          "internalType": "address[]",
          "name": "_operators",
          "type": "address[]"
        }
      ],
      "name": "BridgeOperatorsApproved",
      "type": "event"
    },
    {
      "anonymous": false,
      "inputs": [
        {
          "indexed": false,
          "internalType": "bytes32",
          "name": "_voteHash",
          "type": "bytes32"
        }
      ],
      "name": "EmergencyExitPollApproved",
      "type": "event"
    },
    {
      "anonymous": false,
      "inputs": [
        {
          "indexed": false,
          "internalType": "bytes32",
          "name": "_voteHash",
          "type": "bytes32"
        },
        {
          "indexed": false,
          "internalType": "address",
          "name": "_consensusAddr",
          "type": "address"
        },
        {
          "indexed": false,
          "internalType": "address",
          "name": "_recipientAfterUnlockedFund",
          "type": "address"
        },
        {
          "indexed": false,
          "internalType": "uint256",
          "name": "_requestedAt",
          "type": "uint256"
        },
        {
          "indexed": false,
          "internalType": "uint256",
          "name": "_expiredAt",
          "type": "uint256"
        }
      ],
      "name": "EmergencyExitPollCreated",
      "type": "event"
    },
    {
      "anonymous": false,
      "inputs": [
        {
          "indexed": false,
          "internalType": "bytes32",
          "name": "_voteHash",
          "type": "bytes32"
        }
      ],
      "name": "EmergencyExitPollExpired",
      "type": "event"
    },
    {
      "anonymous": false,
      "inputs": [
        {
          "indexed": true,
          "internalType": "uint256",
          "name": "round",
          "type": "uint256"
        },
        {
          "indexed": true,
          "internalType": "bytes32",
          "name": "proposalHash",
          "type": "bytes32"
        },
        {
          "components": [
            {
              "internalType": "uint256",
              "name": "nonce",
              "type": "uint256"
            },
            {
              "internalType": "uint256",
              "name": "chainId",
              "type": "uint256"
            },
            {
              "internalType": "uint256",
              "name": "expiryTimestamp",
              "type": "uint256"
            },
            {
              "internalType": "address[]",
              "name": "targets",
              "type": "address[]"
            },
            {
              "internalType": "uint256[]",
              "name": "values",
              "type": "uint256[]"
            },
            {
              "internalType": "bytes[]",
              "name": "calldatas",
              "type": "bytes[]"
            },
            {
              "internalType": "uint256[]",
              "name": "gasAmounts",
              "type": "uint256[]"
            }
          ],
          "indexed": false,
          "internalType": "struct Proposal.ProposalDetail",
          "name": "proposal",
          "type": "tuple"
        },
        {
          "indexed": false,
          "internalType": "bytes32",
          "name": "globalProposalHash",
          "type": "bytes32"
        },
        {
          "components": [
            {
              "internalType": "uint256",
              "name": "nonce",
              "type": "uint256"
            },
            {
              "internalType": "uint256",
              "name": "expiryTimestamp",
              "type": "uint256"
            },
            {
              "internalType": "enum GlobalProposal.TargetOption[]",
              "name": "targetOptions",
              "type": "uint8[]"
            },
            {
              "internalType": "uint256[]",
              "name": "values",
              "type": "uint256[]"
            },
            {
              "internalType": "bytes[]",
              "name": "calldatas",
              "type": "bytes[]"
            },
            {
              "internalType": "uint256[]",
              "name": "gasAmounts",
              "type": "uint256[]"
            }
          ],
          "indexed": false,
          "internalType": "struct GlobalProposal.GlobalProposalDetail",
          "name": "globalProposal",
          "type": "tuple"
        },
        {
          "indexed": false,
          "internalType": "address",
          "name": "creator",
          "type": "address"
        }
      ],
      "name": "GlobalProposalCreated",
      "type": "event"
    },
    {
      "anonymous": false,
      "inputs": [
        {
          "indexed": true,
          "internalType": "bytes32",
          "name": "proposalHash",
          "type": "bytes32"
        }
      ],
      "name": "ProposalApproved",
      "type": "event"
    },
    {
      "anonymous": false,
      "inputs": [
        {
          "indexed": true,
          "internalType": "uint256",
          "name": "chainId",
          "type": "uint256"
        },
        {
          "indexed": true,
          "internalType": "uint256",
          "name": "round",
          "type": "uint256"
        },
        {
          "indexed": true,
          "internalType": "bytes32",
          "name": "proposalHash",
          "type": "bytes32"
        },
        {
          "components": [
            {
              "internalType": "uint256",
              "name": "nonce",
              "type": "uint256"
            },
            {
              "internalType": "uint256",
              "name": "chainId",
              "type": "uint256"
            },
            {
              "internalType": "uint256",
              "name": "expiryTimestamp",
              "type": "uint256"
            },
            {
              "internalType": "address[]",
              "name": "targets",
              "type": "address[]"
            },
            {
              "internalType": "uint256[]",
              "name": "values",
              "type": "uint256[]"
            },
            {
              "internalType": "bytes[]",
              "name": "calldatas",
              "type": "bytes[]"
            },
            {
              "internalType": "uint256[]",
              "name": "gasAmounts",
              "type": "uint256[]"
            }
          ],
          "indexed": false,
          "internalType": "struct Proposal.ProposalDetail",
          "name": "proposal",
          "type": "tuple"
        },
        {
          "indexed": false,
          "internalType": "address",
          "name": "creator",
          "type": "address"
        }
      ],
      "name": "ProposalCreated",
      "type": "event"
    },
    {
      "anonymous": false,
      "inputs": [
        {
          "indexed": true,
          "internalType": "bytes32",
          "name": "proposalHash",
          "type": "bytes32"
        },
        {
          "indexed": false,
          "internalType": "bool[]",
          "name": "successCalls",
          "type": "bool[]"
        },
        {
          "indexed": false,
          "internalType": "bytes[]",
          "name": "returnDatas",
          "type": "bytes[]"
        }
      ],
      "name": "ProposalExecuted",
      "type": "event"
    },
    {
      "anonymous": false,
      "inputs": [
        {
          "indexed": true,
          "internalType": "bytes32",
          "name": "proposalHash",
          "type": "bytes32"
        }
      ],
      "name": "ProposalExpired",
      "type": "event"
    },
    {
      "anonymous": false,
      "inputs": [
        {
          "indexed": true,
          "internalType": "bytes32",
          "name": "proposalHash",
          "type": "bytes32"
        }
      ],
      "name": "ProposalRejected",
      "type": "event"
    },
    {
      "anonymous": false,
      "inputs": [
        {
          "indexed": true,
          "internalType": "bytes32",
          "name": "proposalHash",
          "type": "bytes32"
        },
        {
          "indexed": true,
          "internalType": "address",
          "name": "voter",
          "type": "address"
        },
        {
          "indexed": false,
          "internalType": "enum Ballot.VoteType",
          "name": "support",
          "type": "uint8"
        },
        {
          "indexed": false,
          "internalType": "uint256",
          "name": "weight",
          "type": "uint256"
        }
      ],
      "name": "ProposalVoted",
      "type": "event"
    },
    {
      "anonymous": false,
      "inputs": [
        {
          "indexed": false,
          "internalType": "address",
          "name": "",
          "type": "address"
        }
      ],
      "name": "RoninTrustedOrganizationContractUpdated",
      "type": "event"
    },
    {
      "anonymous": false,
      "inputs": [
        {
          "indexed": false,
          "internalType": "address",
          "name": "",
          "type": "address"
        }
      ],
      "name": "ValidatorContractUpdated",
      "type": "event"
    },
    {
      "inputs": [],
      "name": "DOMAIN_SEPARATOR",
      "outputs": [
        {
          "internalType": "bytes32",
          "name": "",
          "type": "bytes32"
        }
      ],
      "stateMutability": "view",
      "type": "function"
    },
    {
      "inputs": [],
      "name": "bridgeContract",
      "outputs": [
        {
          "internalType": "address",
          "name": "",
          "type": "address"
        }
      ],
      "stateMutability": "view",
      "type": "function"
    },
    {
      "inputs": [
        {
          "internalType": "uint256",
          "name": "_period",
          "type": "uint256"
        },
        {
          "internalType": "uint256",
          "name": "_epoch",
          "type": "uint256"
        },
        {
          "internalType": "address",
          "name": "_voter",
          "type": "address"
        }
      ],
      "name": "bridgeOperatorsVoted",
      "outputs": [
        {
          "internalType": "bool",
          "name": "",
          "type": "bool"
        }
      ],
      "stateMutability": "view",
      "type": "function"
    },
    {
      "inputs": [
        {
          "components": [
            {
              "internalType": "uint256",
              "name": "nonce",
              "type": "uint256"
            },
            {
              "internalType": "uint256",
              "name": "expiryTimestamp",
              "type": "uint256"
            },
            {
              "internalType": "enum GlobalProposal.TargetOption[]",
              "name": "targetOptions",
              "type": "uint8[]"
            },
            {
              "internalType": "uint256[]",
              "name": "values",
              "type": "uint256[]"
            },
            {
              "internalType": "bytes[]",
              "name": "calldatas",
              "type": "bytes[]"
            },
            {
              "internalType": "uint256[]",
              "name": "gasAmounts",
              "type": "uint256[]"
            }
          ],
          "internalType": "struct GlobalProposal.GlobalProposalDetail",
          "name": "_globalProposal",
          "type": "tuple"
        },
        {
          "internalType": "enum Ballot.VoteType[]",
          "name": "_supports",
          "type": "uint8[]"
        },
        {
          "components": [
            {
              "internalType": "uint8",
              "name": "v",
              "type": "uint8"
            },
            {
              "internalType": "bytes32",
              "name": "r",
              "type": "bytes32"
            },
            {
              "internalType": "bytes32",
              "name": "s",
              "type": "bytes32"
            }
          ],
          "internalType": "struct SignatureConsumer.Signature[]",
          "name": "_signatures",
          "type": "tuple[]"
        }
      ],
      "name": "castGlobalProposalBySignatures",
      "outputs": [],
      "stateMutability": "nonpayable",
      "type": "function"
    },
    {
      "inputs": [
        {
          "components": [
            {
              "internalType": "uint256",
              "name": "nonce",
              "type": "uint256"
            },
            {
              "internalType": "uint256",
              "name": "chainId",
              "type": "uint256"
            },
            {
              "internalType": "uint256",
              "name": "expiryTimestamp",
              "type": "uint256"
            },
            {
              "internalType": "address[]",
              "name": "targets",
              "type": "address[]"
            },
            {
              "internalType": "uint256[]",
              "name": "values",
              "type": "uint256[]"
            },
            {
              "internalType": "bytes[]",
              "name": "calldatas",
              "type": "bytes[]"
            },
            {
              "internalType": "uint256[]",
              "name": "gasAmounts",
              "type": "uint256[]"
            }
          ],
          "internalType": "struct Proposal.ProposalDetail",
          "name": "_proposal",
          "type": "tuple"
        },
        {
          "internalType": "enum Ballot.VoteType[]",
          "name": "_supports",
          "type": "uint8[]"
        },
        {
          "components": [
            {
              "internalType": "uint8",
              "name": "v",
              "type": "uint8"
            },
            {
              "internalType": "bytes32",
              "name": "r",
              "type": "bytes32"
            },
            {
              "internalType": "bytes32",
              "name": "s",
              "type": "bytes32"
            }
          ],
          "internalType": "struct SignatureConsumer.Signature[]",
          "name": "_signatures",
          "type": "tuple[]"
        }
      ],
      "name": "castProposalBySignatures",
      "outputs": [],
      "stateMutability": "nonpayable",
      "type": "function"
    },
    {
      "inputs": [
        {
          "components": [
            {
              "internalType": "uint256",
              "name": "nonce",
              "type": "uint256"
            },
            {
              "internalType": "uint256",
              "name": "chainId",
              "type": "uint256"
            },
            {
              "internalType": "uint256",
              "name": "expiryTimestamp",
              "type": "uint256"
            },
            {
              "internalType": "address[]",
              "name": "targets",
              "type": "address[]"
            },
            {
              "internalType": "uint256[]",
              "name": "values",
              "type": "uint256[]"
            },
            {
              "internalType": "bytes[]",
              "name": "calldatas",
              "type": "bytes[]"
            },
            {
              "internalType": "uint256[]",
              "name": "gasAmounts",
              "type": "uint256[]"
            }
          ],
          "internalType": "struct Proposal.ProposalDetail",
          "name": "_proposal",
          "type": "tuple"
        },
        {
          "internalType": "enum Ballot.VoteType",
          "name": "_support",
          "type": "uint8"
        }
      ],
      "name": "castProposalVoteForCurrentNetwork",
      "outputs": [],
      "stateMutability": "nonpayable",
      "type": "function"
    },
    {
      "inputs": [
        {
          "internalType": "address",
          "name": "_proxy",
          "type": "address"
        },
        {
          "internalType": "address",
          "name": "_newAdmin",
          "type": "address"
        }
      ],
      "name": "changeProxyAdmin",
      "outputs": [],
      "stateMutability": "nonpayable",
      "type": "function"
    },
    {
      "inputs": [
        {
          "internalType": "address",
          "name": "_consensusAddr",
          "type": "address"
        },
        {
          "internalType": "address",
          "name": "_recipientAfterUnlockedFund",
          "type": "address"
        },
        {
          "internalType": "uint256",
          "name": "_requestedAt",
          "type": "uint256"
        },
        {
          "internalType": "uint256",
          "name": "_expiredAt",
          "type": "uint256"
        }
      ],
      "name": "createEmergencyExitPoll",
      "outputs": [],
      "stateMutability": "nonpayable",
      "type": "function"
    },
    {
      "inputs": [
        {
          "internalType": "uint256",
          "name": "chainId",
          "type": "uint256"
        },
        {
          "internalType": "uint256",
          "name": "round",
          "type": "uint256"
        }
      ],
      "name": "deleteExpired",
      "outputs": [],
      "stateMutability": "nonpayable",
      "type": "function"
    },
    {
      "inputs": [
        {
          "internalType": "bytes32",
          "name": "_voteHash",
          "type": "bytes32"
        },
        {
          "internalType": "address",
          "name": "_voter",
          "type": "address"
        }
      ],
      "name": "emergencyPollVoted",
      "outputs": [
        {
          "internalType": "bool",
          "name": "",
          "type": "bool"
        }
      ],
      "stateMutability": "view",
      "type": "function"
    },
    {
      "inputs": [
        {
          "internalType": "uint256",
          "name": "_period",
          "type": "uint256"
        },
        {
          "internalType": "uint256",
          "name": "_epoch",
          "type": "uint256"
        },
        {
          "internalType": "address[]",
          "name": "_voters",
          "type": "address[]"
        }
      ],
      "name": "getBridgeOperatorVotingSignatures",
      "outputs": [
        {
          "components": [
            {
              "internalType": "uint8",
              "name": "v",
              "type": "uint8"
            },
            {
              "internalType": "bytes32",
              "name": "r",
              "type": "bytes32"
            },
            {
              "internalType": "bytes32",
              "name": "s",
              "type": "bytes32"
            }
          ],
          "internalType": "struct SignatureConsumer.Signature[]",
          "name": "_signatures",
          "type": "tuple[]"
        }
      ],
      "stateMutability": "view",
      "type": "function"
    },
    {
      "inputs": [],
      "name": "getProposalExpiryDuration",
      "outputs": [
        {
          "internalType": "uint256",
          "name": "",
          "type": "uint256"
        }
      ],
      "stateMutability": "view",
      "type": "function"
    },
    {
      "inputs": [
        {
          "internalType": "uint256",
          "name": "_chainId",
          "type": "uint256"
        },
        {
          "internalType": "uint256",
          "name": "_round",
          "type": "uint256"
        }
      ],
      "name": "getProposalSignatures",
      "outputs": [
        {
          "internalType": "address[]",
          "name": "_voters",
          "type": "address[]"
        },
        {
          "internalType": "enum Ballot.VoteType[]",
          "name": "_supports",
          "type": "uint8[]"
        },
        {
          "components": [
            {
              "internalType": "uint8",
              "name": "v",
              "type": "uint8"
            },
            {
              "internalType": "bytes32",
              "name": "r",
              "type": "bytes32"
            },
            {
              "internalType": "bytes32",
              "name": "s",
              "type": "bytes32"
            }
          ],
          "internalType": "struct SignatureConsumer.Signature[]",
          "name": "_signatures",
          "type": "tuple[]"
        }
      ],
      "stateMutability": "view",
      "type": "function"
    },
    {
      "inputs": [
        {
          "internalType": "address",
          "name": "_proxy",
          "type": "address"
        }
      ],
      "name": "getProxyAdmin",
      "outputs": [
        {
          "internalType": "address",
          "name": "",
          "type": "address"
        }
      ],
      "stateMutability": "view",
      "type": "function"
    },
    {
      "inputs": [
        {
          "internalType": "address",
          "name": "_proxy",
          "type": "address"
        }
      ],
      "name": "getProxyImplementation",
      "outputs": [
        {
          "internalType": "address",
          "name": "",
          "type": "address"
        }
      ],
      "stateMutability": "view",
      "type": "function"
    },
    {
      "inputs": [],
      "name": "lastSyncedBridgeOperatorSetInfo",
      "outputs": [
        {
          "components": [
            {
              "internalType": "uint256",
              "name": "period",
              "type": "uint256"
            },
            {
              "internalType": "uint256",
              "name": "epoch",
              "type": "uint256"
            },
            {
              "internalType": "address[]",
              "name": "operators",
              "type": "address[]"
            }
          ],
          "internalType": "struct BridgeOperatorsBallot.BridgeOperatorSet",
          "name": "",
          "type": "tuple"
        }
      ],
      "stateMutability": "view",
      "type": "function"
    },
    {
      "inputs": [
        {
          "internalType": "address",
          "name": "_bridgeVoter",
          "type": "address"
        }
      ],
      "name": "lastVotedBlock",
      "outputs": [
        {
          "internalType": "uint256",
          "name": "",
          "type": "uint256"
        }
      ],
      "stateMutability": "view",
      "type": "function"
    },
    {
      "inputs": [
        {
          "internalType": "uint256",
          "name": "_chainId",
          "type": "uint256"
        },
        {
          "internalType": "uint256",
          "name": "_round",
          "type": "uint256"
        },
        {
          "internalType": "address",
          "name": "_voter",
          "type": "address"
        }
      ],
      "name": "proposalVoted",
      "outputs": [
        {
          "internalType": "bool",
          "name": "",
          "type": "bool"
        }
      ],
      "stateMutability": "view",
      "type": "function"
    },
    {
      "inputs": [
        {
          "internalType": "uint256",
          "name": "_chainId",
          "type": "uint256"
        },
        {
          "internalType": "uint256",
          "name": "_expiryTimestamp",
          "type": "uint256"
        },
        {
          "internalType": "address[]",
          "name": "_targets",
          "type": "address[]"
        },
        {
          "internalType": "uint256[]",
          "name": "_values",
          "type": "uint256[]"
        },
        {
          "internalType": "bytes[]",
          "name": "_calldatas",
          "type": "bytes[]"
        },
        {
          "internalType": "uint256[]",
          "name": "_gasAmounts",
          "type": "uint256[]"
        }
      ],
      "name": "propose",
      "outputs": [],
      "stateMutability": "nonpayable",
      "type": "function"
    },
    {
      "inputs": [
        {
          "internalType": "uint256",
          "name": "_expiryTimestamp",
          "type": "uint256"
        },
        {
          "internalType": "enum GlobalProposal.TargetOption[]",
          "name": "_targetOptions",
          "type": "uint8[]"
        },
        {
          "internalType": "uint256[]",
          "name": "_values",
          "type": "uint256[]"
        },
        {
          "internalType": "bytes[]",
          "name": "_calldatas",
          "type": "bytes[]"
        },
        {
          "internalType": "uint256[]",
          "name": "_gasAmounts",
          "type": "uint256[]"
        }
      ],
      "name": "proposeGlobal",
      "outputs": [],
      "stateMutability": "nonpayable",
      "type": "function"
    },
    {
      "inputs": [
        {
          "components": [
            {
              "internalType": "uint256",
              "name": "nonce",
              "type": "uint256"
            },
            {
              "internalType": "uint256",
              "name": "expiryTimestamp",
              "type": "uint256"
            },
            {
              "internalType": "enum GlobalProposal.TargetOption[]",
              "name": "targetOptions",
              "type": "uint8[]"
            },
            {
              "internalType": "uint256[]",
              "name": "values",
              "type": "uint256[]"
            },
            {
              "internalType": "bytes[]",
              "name": "calldatas",
              "type": "bytes[]"
            },
            {
              "internalType": "uint256[]",
              "name": "gasAmounts",
              "type": "uint256[]"
            }
          ],
          "internalType": "struct GlobalProposal.GlobalProposalDetail",
          "name": "_globalProposal",
          "type": "tuple"
        },
        {
          "internalType": "enum Ballot.VoteType[]",
          "name": "_supports",
          "type": "uint8[]"
        },
        {
          "components": [
            {
              "internalType": "uint8",
              "name": "v",
              "type": "uint8"
            },
            {
              "internalType": "bytes32",
              "name": "r",
              "type": "bytes32"
            },
            {
              "internalType": "bytes32",
              "name": "s",
              "type": "bytes32"
            }
          ],
          "internalType": "struct SignatureConsumer.Signature[]",
          "name": "_signatures",
          "type": "tuple[]"
        }
      ],
      "name": "proposeGlobalProposalStructAndCastVotes",
      "outputs": [],
      "stateMutability": "nonpayable",
      "type": "function"
    },
    {
      "inputs": [
        {
          "internalType": "uint256",
          "name": "_expiryTimestamp",
          "type": "uint256"
        },
        {
          "internalType": "address[]",
          "name": "_targets",
          "type": "address[]"
        },
        {
          "internalType": "uint256[]",
          "name": "_values",
          "type": "uint256[]"
        },
        {
          "internalType": "bytes[]",
          "name": "_calldatas",
          "type": "bytes[]"
        },
        {
          "internalType": "uint256[]",
          "name": "_gasAmounts",
          "type": "uint256[]"
        },
        {
          "internalType": "enum Ballot.VoteType",
          "name": "_support",
          "type": "uint8"
        }
      ],
      "name": "proposeProposalForCurrentNetwork",
      "outputs": [],
      "stateMutability": "nonpayable",
      "type": "function"
    },
    {
      "inputs": [
        {
          "components": [
            {
              "internalType": "uint256",
              "name": "nonce",
              "type": "uint256"
            },
            {
              "internalType": "uint256",
              "name": "chainId",
              "type": "uint256"
            },
            {
              "internalType": "uint256",
              "name": "expiryTimestamp",
              "type": "uint256"
            },
            {
              "internalType": "address[]",
              "name": "targets",
              "type": "address[]"
            },
            {
              "internalType": "uint256[]",
              "name": "values",
              "type": "uint256[]"
            },
            {
              "internalType": "bytes[]",
              "name": "calldatas",
              "type": "bytes[]"
            },
            {
              "internalType": "uint256[]",
              "name": "gasAmounts",
              "type": "uint256[]"
            }
          ],
          "internalType": "struct Proposal.ProposalDetail",
          "name": "_proposal",
          "type": "tuple"
        },
        {
          "internalType": "enum Ballot.VoteType[]",
          "name": "_supports",
          "type": "uint8[]"
        },
        {
          "components": [
            {
              "internalType": "uint8",
              "name": "v",
              "type": "uint8"
            },
            {
              "internalType": "bytes32",
              "name": "r",
              "type": "bytes32"
            },
            {
              "internalType": "bytes32",
              "name": "s",
              "type": "bytes32"
            }
          ],
          "internalType": "struct SignatureConsumer.Signature[]",
          "name": "_signatures",
          "type": "tuple[]"
        }
      ],
      "name": "proposeProposalStructAndCastVotes",
      "outputs": [],
      "stateMutability": "nonpayable",
      "type": "function"
    },
    {
      "inputs": [],
      "name": "roninTrustedOrganizationContract",
      "outputs": [
        {
          "internalType": "address",
          "name": "",
          "type": "address"
        }
      ],
      "stateMutability": "view",
      "type": "function"
    },
    {
      "inputs": [
        {
          "internalType": "uint256",
          "name": "",
          "type": "uint256"
        }
      ],
      "name": "round",
      "outputs": [
        {
          "internalType": "uint256",
          "name": "",
          "type": "uint256"
        }
      ],
      "stateMutability": "view",
      "type": "function"
    },
    {
      "inputs": [
        {
          "internalType": "address",
          "name": "_addr",
          "type": "address"
        }
      ],
      "name": "setBridgeContract",
      "outputs": [],
      "stateMutability": "nonpayable",
      "type": "function"
    },
    {
      "inputs": [
        {
          "internalType": "uint256",
          "name": "_expiryDuration",
          "type": "uint256"
        }
      ],
      "name": "setProposalExpiryDuration",
      "outputs": [],
      "stateMutability": "nonpayable",
      "type": "function"
    },
    {
      "inputs": [
        {
          "internalType": "address",
          "name": "_addr",
          "type": "address"
        }
      ],
      "name": "setRoninTrustedOrganizationContract",
      "outputs": [],
      "stateMutability": "nonpayable",
      "type": "function"
    },
    {
      "inputs": [
        {
          "internalType": "address",
          "name": "_addr",
          "type": "address"
        }
      ],
      "name": "setValidatorContract",
      "outputs": [],
      "stateMutability": "nonpayable",
      "type": "function"
    },
    {
      "inputs": [],
      "name": "validatorContract",
      "outputs": [
        {
          "internalType": "address",
          "name": "",
          "type": "address"
        }
      ],
      "stateMutability": "view",
      "type": "function"
    },
    {
      "inputs": [
        {
          "internalType": "uint256",
          "name": "",
          "type": "uint256"
        },
        {
          "internalType": "uint256",
          "name": "",
          "type": "uint256"
        }
      ],
      "name": "vote",
      "outputs": [
        {
          "internalType": "enum VoteStatusConsumer.VoteStatus",
          "name": "status",
          "type": "uint8"
        },
        {
          "internalType": "bytes32",
          "name": "hash",
          "type": "bytes32"
        },
        {
          "internalType": "uint256",
          "name": "againstVoteWeight",
          "type": "uint256"
        },
        {
          "internalType": "uint256",
          "name": "forVoteWeight",
          "type": "uint256"
        },
        {
          "internalType": "uint256",
          "name": "expiryTimestamp",
          "type": "uint256"
        }
      ],
      "stateMutability": "view",
      "type": "function"
    },
    {
      "inputs": [
        {
          "components": [
            {
              "internalType": "uint256",
              "name": "period",
              "type": "uint256"
            },
            {
              "internalType": "uint256",
              "name": "epoch",
              "type": "uint256"
            },
            {
              "internalType": "address[]",
              "name": "operators",
              "type": "address[]"
            }
          ],
          "internalType": "struct BridgeOperatorsBallot.BridgeOperatorSet",
          "name": "_ballot",
          "type": "tuple"
        },
        {
          "components": [
            {
              "internalType": "uint8",
              "name": "v",
              "type": "uint8"
            },
            {
              "internalType": "bytes32",
              "name": "r",
              "type": "bytes32"
            },
            {
              "internalType": "bytes32",
              "name": "s",
              "type": "bytes32"
            }
          ],
          "internalType": "struct SignatureConsumer.Signature[]",
          "name": "_signatures",
          "type": "tuple[]"
        }
      ],
      "name": "voteBridgeOperatorsBySignatures",
      "outputs": [],
      "stateMutability": "nonpayable",
      "type": "function"
    },
    {
      "inputs": [
        {
          "internalType": "bytes32",
          "name": "_voteHash",
          "type": "bytes32"
        },
        {
          "internalType": "address",
          "name": "_consensusAddr",
          "type": "address"
        },
        {
          "internalType": "address",
          "name": "_recipientAfterUnlockedFund",
          "type": "address"
        },
        {
          "internalType": "uint256",
          "name": "_requestedAt",
          "type": "uint256"
        },
        {
          "internalType": "uint256",
          "name": "_expiredAt",
          "type": "uint256"
        }
      ],
      "name": "voteEmergencyExit",
      "outputs": [],
      "stateMutability": "nonpayable",
      "type": "function"
    }
  ],
  "transactionHash": "0x34a407f53ebe024a3584c78ea630538f90451fb3b85efdf80ece16c8255fa3f4",
  "args": [
    "0x7f46c5DD5f13FF0dd973317411d70800db248e7d",
    "0xCee681C9108c42C710c6A8A949307D5F13C9F3ca",
    "0x54B3AC74a90E64E8dDE60671b6fE8F8DDf18eC9d",
    1209600
  ],
  "numDeployments": 4,
  "solcInputHash": "d00a46919a8595a1f6b347cca5808c82",
  "bytecode": "0x60806040523480156200001157600080fd5b506040516200622c3803806200622c8339810160408190526200003491620002e9565b838382806200004281600255565b50604080516020808201839052601660608301527f524f4e494e5f474f5645524e414e43455f41444d494e000000000000000000006080808401919091526107e4838501528351808403909101815260a0830184528051908201207f599a80fcaa47b95e2323ab4d34d34e0cc9feda4b843edafcc30c7bdf60ea15bf60c08401527f7e7935007966eb860f4a2ee3dcc9fd53fb3205ce2aa86b0126d4893d4d4c14b960e08401527fc89efdaa54c0f20c7adf612882df0950f5a951637e0307cdcb4c672f298b8bc6610100840152610120808401919091528351808403909101815261014090920190925280519101207ff8704f8860d9e985bf6c52ec4738bd10fe31487599b36c0944f746ea09dc256b14620001a55760405162461bcd60e51b815260206004820152601f60248201527f476f7665726e616e636541646d696e3a20696e76616c696420646f6d61696e00604482015260640160405180910390fd5b620001b083620001d9565b620001bb826200022e565b505050620001cf826200027d60201b60201c565b505050506200033b565b600380546001600160a01b0319166001600160a01b0383169081179091556040519081527ffd6f5f93d69a07c593a09be0b208bff13ab4ffd6017df3b33433d63bdc59b4d7906020015b60405180910390a150565b600480546001600160a01b0319166001600160a01b0383169081179091556040519081527f5cbd8a0bb00196365d5eb3457c6734e7f06666c3c78e5469b4c9deec7edae0489060200162000223565b600b80546001600160a01b0319166001600160a01b0383169081179091556040519081527fef40dc07567635f84f5edbd2f8dbc16b40d9d282dd8e7e6f4ff58236b68361699060200162000223565b80516001600160a01b0381168114620002e457600080fd5b919050565b600080600080608085870312156200030057600080fd5b6200030b85620002cc565b93506200031b60208601620002cc565b92506200032b60408601620002cc565b6060959095015193969295505050565b615ee1806200034b6000396000f3fe608060405234801561001057600080fd5b50600436106101fa5760003560e01c8063663ac0111161011a578063a8a0e32c116100ad578063cd5965831161007c578063cd596583146104d0578063cdf64a76146104e1578063dcc3eb19146104f4578063f3b7dead14610507578063fb4f63711461051a57600080fd5b8063a8a0e32c14610447578063b384abef1461045a578063b5e337de146104b5578063bc96180b146104c857600080fd5b80639a7d3382116100e95780639a7d3382146103fb5780639e0dc0b31461040e578063a1819f9a14610421578063a2fae5701461043457600080fd5b8063663ac0111461039b5780637eff275e146103ae578063988ef53c146103c157806399439089146103ea57600080fd5b80632e96a6fb116101925780633e2c314f116101615780633e2c314f146103425780635511cde11461036257806360911e8e1461037357806362e52e5f1461038657600080fd5b80632e96a6fb146102d95780632faf925d146102ec57806334d5f37b146102ff5780633644e5151461032d57600080fd5b80631c905e39116101ce5780631c905e391461024d578063204e1c7a146102785780632b5df351146102a35780632c5e6520146102c657600080fd5b80624054b8146101ff57806309fcd8c7146102145780630b26cf66146102275780630b8818301461023a575b600080fd5b61021261020d36600461496a565b61052d565b005b6102126102223660046149fe565b610582565b610212610235366004614ae2565b61064b565b61021261024836600461496a565b6106a0565b61026061025b366004614aff565b6106bc565b60405161026f93929190614b9b565b60405180910390f35b61028b610286366004614ae2565b610ab9565b6040516001600160a01b03909116815260200161026f565b6102b66102b1366004614c3b565b610bab565b604051901515815260200161026f565b6102b66102d4366004614c3b565b610be0565b6102126102e7366004614c74565b610c16565b6102126102fa366004614c8d565b610c3e565b61031f61030d366004614c74565b60006020819052908152604090205481565b60405190815260200161026f565b61031f600080516020615e8c83398151915281565b610355610350366004614ce6565b610c78565b60405161026f9190614d38565b6003546001600160a01b031661028b565b610212610381366004614d4b565b610db5565b61038e610e81565b60405161026f9190614df4565b6102126103a9366004614e3b565b610f23565b6102126103bc366004614f18565b61102f565b61031f6103cf366004614ae2565b6001600160a01b031660009081526009602052604090205490565b600b546001600160a01b031661028b565b610212610409366004614aff565b611160565b61021261041c366004614f51565b61116e565b61021261042f366004614fa3565b6113d4565b61021261044236600461507c565b6114ba565b6102126104553660046150c2565b611586565b6104a4610468366004614aff565b600160208181526000938452604080852090915291835291208054918101546002820154600383015460069093015460ff909416939192909185565b60405161026f959493929190615108565b6102126104c3366004614ae2565b6115c1565b61031f611613565b6004546001600160a01b031661028b565b6102126104ef366004614ae2565b611623565b6102b661050236600461513d565b6116b7565b61028b610515366004614ae2565b6116e9565b610212610528366004614c8d565b6117b6565b600061053833611821565b1161055e5760405162461bcd60e51b815260040161055590615162565b60405180910390fd5b61057b8585858585600080516020615e8c83398151915233611995565b5050505050565b600061058d33611821565b116105aa5760405162461bcd60e51b815260040161055590615162565b61063f8989898989808060200260200160405190810160405280939291908181526020018383602002808284376000920191909152506105f092508a91508b9050615331565b87878080602002602001604051908101604052809392919081815260200183836020028082843760009201919091525061062d9250610da6915050565b6004546001600160a01b0316336119ff565b50505050505050505050565b33301461066a5760405162461bcd60e51b81526004016105559061533e565b6000816001600160a01b03163b116106945760405162461bcd60e51b815260040161055590615385565b61069d81611b34565b50565b61057b8585858585600080516020615e8c833981519152611b89565b600082815260016020908152604080832084845290915281206004810154600582015460609384938493909290916106f482846153df565b9050806001600160401b0381111561070e5761070e6151ae565b604051908082528060200260200182016040528015610737578160200160208202803683370190505b509550806001600160401b03811115610752576107526151ae565b60405190808252806020026020018201604052801561079d57816020015b60408051606081018252600080825260208083018290529282015282526000199092019101816107705790505b509450806001600160401b038111156107b8576107b86151ae565b6040519080825280602002602001820160405280156107e1578160200160208202803683370190505b50965060005b83811015610940576000878281518110610803576108036153f2565b6020026020010190600181111561081c5761081c614b21565b9081600181111561082f5761082f614b21565b90525060008a81526001602090815260408083208c845290915281206004870180546007909201929184908110610868576108686153f2565b60009182526020808320909101546001600160a01b0316835282810193909352604091820190208151606081018352815460ff168152600182015493810193909352600201549082015286518790839081106108c6576108c66153f2565b60200260200101819052508460040181815481106108e6576108e66153f2565b9060005260206000200160009054906101000a90046001600160a01b0316888281518110610916576109166153f2565b6001600160a01b03909216602092830291909101909101528061093881615408565b9150506107e7565b5060005b82811015610aad5760018761095986846153df565b81518110610969576109696153f2565b6020026020010190600181111561098257610982614b21565b9081600181111561099557610995614b21565b90525060008a81526001602090815260408083208c8452909152812060058701805460079092019291849081106109ce576109ce6153f2565b60009182526020808320909101546001600160a01b0316835282810193909352604091820190208151606081018352815460ff168152600182015493810193909352600201549082015286610a2386846153df565b81518110610a3357610a336153f2565b6020026020010181905250846005018181548110610a5357610a536153f2565b6000918252602090912001546001600160a01b031688610a7386846153df565b81518110610a8357610a836153f2565b6001600160a01b039092166020928302919091019091015280610aa581615408565b915050610944565b50505050509250925092565b6000806000836001600160a01b0316604051610adf90635c60da1b60e01b815260040190565b600060405180830381855afa9150503d8060008114610b1a576040519150601f19603f3d011682016040523d82523d6000602084013e610b1f565b606091505b509150915081610b8f5760405162461bcd60e51b815260206004820152603560248201527f476f7665726e616e636541646d696e3a2070726f78792063616c6c2060696d706044820152741b195b595b9d185d1a5bdb8a0a580819985a5b1959605a1b6064820152608401610555565b80806020019051810190610ba39190615421565b949350505050565b600083815260086020908152604080832085845282528083206001600160a01b03851684526002019091528120541515610ba3565b600083815260016020908152604080832085845282528083206001600160a01b038516845260080190915281205460ff16610ba3565b333014610c355760405162461bcd60e51b81526004016105559061533e565b61069d81600255565b61057b8585858585600080516020615e8c833981519152610c676003546001600160a01b031690565b6004546001600160a01b0316611c10565b6060816001600160401b03811115610c9257610c926151ae565b604051908082528060200260200182016040528015610cdd57816020015b6040805160608101825260008082526020808301829052928201528252600019909201910181610cb05790505b50905060005b82811015610d9d576000868152600a60209081526040808320888452909152812090858584818110610d1757610d176153f2565b9050602002016020810190610d2c9190614ae2565b6001600160a01b0316815260208082019290925260409081016000208151606081018352815460ff16815260018201549381019390935260020154908201528251839083908110610d7f57610d7f6153f2565b60200260200101819052508080610d9590615408565b915050610ce3565b50949350505050565b6003546001600160a01b031690565b610dd7838383610dc3611cc4565b600080516020615e8c833981519152611e30565b8235600090815260086020908152604080832082870135845290915290206001815460ff166004811115610e0d57610e0d614b21565b03610e7b57836005610e1f82826154ab565b507f7c45875370690698791a915954b9c69729cc5f9373edc5a2e04436c07589f30d905084356020860135610e57604088018861543e565b604051610e67949392919061557e565b60405180910390a1805460ff191660021781555b50505050565b610ea560405180606001604052806000815260200160008152602001606081525090565b60408051606081018252600580548252600654602080840191909152600780548551818402810184018752818152949593949386019392830182828015610f1557602002820191906000526020600020905b81546001600160a01b03168152600190910190602001808311610ef7575b505050505081525050905090565b6000610f2e33611821565b11610f4b5760405162461bcd60e51b815260040161055590615162565b60003390506000611014468d8d8d80806020026020016040519081016040528093929190818152602001838360200280828437600081840152601f19601f820116905080830192505050505050508c8c80806020026020016040519081016040528093929190818152602001838360200280828437600092019190915250610fd992508d91508e9050615331565b8a8a808060200260200160405190810160405280939291908181526020018383602002808284376000920191909152508b9250612161915050565b9050611021828285612282565b505050505050505050505050565b33301461104e5760405162461bcd60e51b81526004016105559061533e565b604080516001600160a01b0383811660248084019190915283518084039091018152604490920183526020820180516001600160e01b03166308f2839760e41b17905291516000928516916110a291615601565b6000604051808303816000865af19150503d80600081146110df576040519150601f19603f3d011682016040523d82523d6000602084013e6110e4565b606091505b505090508061115b5760405162461bcd60e51b815260206004820152603960248201527f476f7665726e616e636541646d696e3a2070726f78792063616c6c206063686160448201527f6e676541646d696e28616464726573732960206661696c6564000000000000006064820152608401610555565b505050565b61116a82826123db565b5050565b33600061117a82611821565b90506000811161119c5760405162461bcd60e51b815260040161055590615162565b60006111aa878787876123fd565b905080881461120b5760405162461bcd60e51b815260206004820152602760248201527f526f6e696e476f7665726e616e636541646d696e3a20696e76616c696420766f6044820152660e8ca40d0c2e6d60cb1b6064820152608401610555565b6000818152600c6020526040902060058101546112845760405162461bcd60e51b815260206004820152603160248201527f526f6e696e476f7665726e616e636541646d696e3a20717565727920666f72206044820152706e6f6e2d6578697374656e7420766f746560781b6064820152608401610555565b6004815460ff16600481111561129c5761129c614b21565b036112fe5760405162461bcd60e51b815260206004820152602c60248201527f526f6e696e476f7665726e616e636541646d696e3a20717565727920666f722060448201526b6578706972656420766f746560a01b6064820152608401610555565b600061131482868661130e611cc4565b8761246d565b9050600181600481111561132a5761132a614b21565b0361137c57611339898961259c565b6040518381527fd3500576a0d4923326fbb893cf2169273e0df93f3cb6b94b83f2ca2e0ecb681b9060200160405180910390a1815460ff1916600217825561063f565b600481600481111561139057611390614b21565b0361063f576040518381527feecb3148acc573548e89cb64eb5f2023a61171f1c413ed8bf0fe506c19aeebe49060200160405180910390a150505050505050505050565b60006113df33611821565b116113fc5760405162461bcd60e51b815260040161055590615162565b6114ad8a8a8a8a8080602002602001604051908101604052809392919081815260200183836020028082843760009201919091525050604080516020808e0282810182019093528d82529093508d92508c91829185019084908082843760009201919091525061147292508a91508b9050615331565b878780806020026020016040519081016040528093929190818152602001838360200280828437600092019190915250339250612161915050565b5050505050505050505050565b336114cd600b546001600160a01b031690565b6001600160a01b0316146114f457604051630e6444a160e31b815260040160405180910390fd5b6000611502858585856123fd565b6000818152600c60209081526040918290204260058201556004810186905582518481526001600160a01b038a811693820193909352918816828401526060820187905260808201869052915192935090917f18ea835340bb2973a31996158138f109e9c5b9cfdb2424e999e6b1a9ce565de89181900360a00190a1505050505050565b600061159133611821565b116115ae5760405162461bcd60e51b815260040161055590615162565b61116a336115bb84615707565b83612282565b3330146115e05760405162461bcd60e51b81526004016105559061533e565b6000816001600160a01b03163b1161160a5760405162461bcd60e51b815260040161055590615385565b61069d81612738565b600061161e60025490565b905090565b3330146116425760405162461bcd60e51b81526004016105559061533e565b6000816001600160a01b03163b116116ae5760405162461bcd60e51b815260206004820152602960248201527f526f6e696e476f7665726e616e636541646d696e3a2073657420746f206e6f6e6044820152680b58dbdb9d1c9858dd60ba1b6064820152608401610555565b61069d81612786565b6000828152600c602090815260408083206001600160a01b038516845260020190915281205415155b90505b92915050565b6000806000836001600160a01b031660405161170f906303e1469160e61b815260040190565b600060405180830381855afa9150503d806000811461174a576040519150601f19603f3d011682016040523d82523d6000602084013e61174f565b606091505b509150915081610b8f5760405162461bcd60e51b815260206004820152602c60248201527f476f7665726e616e636541646d696e3a2070726f78792063616c6c206061646d60448201526b1a5b8a0a580819985a5b195960a21b6064820152608401610555565b60006117c133611821565b116117de5760405162461bcd60e51b815260040161055590615162565b6118198585858585600080516020615e8c8339815191526118076003546001600160a01b031690565b6004546001600160a01b0316336127d4565b505050505050565b60008060006118386003546001600160a01b031690565b604080516001600160a01b03878116602480840191909152835180840382018152604490930184526020830180516001600160e01b0316631af0725f60e31b1790529251931692634bb5274a92611890929101615807565b6040516020818303038152906040529060e01b6020820180516001600160e01b0383818316178352505050506040516118c99190615601565b600060405180830381855afa9150503d8060008114611904576040519150601f19603f3d011682016040523d82523d6000602084013e611909565b606091505b5091509150816119815760405162461bcd60e51b815260206004820152603f60248201527f476f7665726e616e636541646d696e3a2070726f78792063616c6c206067657460448201527f476f7665726e6f7257656967687428616464726573732960206661696c6564006064820152608401610555565b80806020019051810190610ba3919061581a565b6119a76119a188615707565b82612837565b5060006119bb6119b689615707565b61291f565b90506119f56119c989615707565b888888886119e1896119dc896000612abe565b612b14565b6119f08a6119dc8a6001612abe565b612b3b565b5050505050505050565b6040805160c08101909152600080805260208190527fad3228b676f7d3cd4284a5443f17f1962b36e491b30a40b2405849e597ba5fb554909182918190611a479060016153df565b81526020018c81526020018b8b808060200260200160405190810160405280939291908181526020018383602002808284376000920182905250938552505050602082018b9052604082018a90526060909101889052909150611aab828787612e74565b9050611ac26002548261304290919063ffffffff16565b6000611acd8261291f565b9050611adb6000828f61313e565b935080847f771d78ae9e5fca95a532fb0971d575d0ce9b59d14823c063e08740137e0e0eca84611b0a8761326c565b878a604051611b1c9493929190615938565b60405180910390a35050509998505050505050505050565b600480546001600160a01b0319166001600160a01b0383169081179091556040519081527f5cbd8a0bb00196365d5eb3457c6734e7f06666c3c78e5469b4c9deec7edae048906020015b60405180910390a150565b6000611b976119b688615707565b6020808901356000908152600180835260408083208c35845290935291902001549091508114611bd95760405162461bcd60e51b815260040161055590615a1f565b611c07611be588615707565b87878787611bf8886119dc896000612abe565b6119f0896119dc8a6001612abe565b50505050505050565b6000611c278383611c208c615ad2565b9190612e74565b90506000611c3c611c378b615ad2565b61326c565b9050611c478261291f565b600080805260016020818152855183527fa6eef7e35abe7026729641147f7915573c7e97b47efa546f5f6e3230263bcb4990526040909120015414611c9e5760405162461bcd60e51b815260040161055590615a1f565b61063f828a8a8a8a611cb58b6119dc896000612abe565b6119f08c6119dc8a6001612abe565b6000806000611cdb6003546001600160a01b031690565b6040805160048152602480820183526020820180516001600160e01b0316637de5dedd60e01b17905291516001600160a01b039390931692634bb5274a92611d24929101615807565b6040516020818303038152906040529060e01b6020820180516001600160e01b038381831617835250505050604051611d5d9190615601565b600060405180830381855afa9150503d8060008114611d98576040519150601f19603f3d011682016040523d82523d6000602084013e611d9d565b606091505b509150915081611e155760405162461bcd60e51b815260206004820152603860248201527f476f7665726e616e636541646d696e3a2070726f78792063616c6c20606d696e60448201527f696d756d566f7465576569676874282960206661696c656400000000000000006064820152608401610555565b80806020019051810190611e29919061581a565b9250505090565b600554853510801590611e495750600654602086013510155b611ebb5760405162461bcd60e51b815260206004820152603d60248201527f424f73476f7665726e616e636550726f706f73616c3a20717565727920666f7260448201527f206f7574646174656420627269646765206f70657261746f72207365740000006064820152608401610555565b611ec68560056133c6565b82611f275760405162461bcd60e51b815260206004820152602b60248201527f424f73476f7665726e616e636550726f706f73616c3a20696e76616c6964206160448201526a0e4e4c2f240d8cadccee8d60ab1b6064820152608401610555565b6000806000611f3588613666565b90506000611f438583612b14565b89356000818152600860209081526040808320828f0135808552908352818420948452600a83528184209084529091528120929350909190805b8a81101561210157368c8c83818110611f9857611f986153f2565b606002919091019150611fc3905086611fb46020840184615bab565b83602001358460400135613718565b9850886001600160a01b0316886001600160a01b03161061203a5760405162461bcd60e51b815260206004820152602b60248201527f424f73476f7665726e616e636550726f706f73616c3a20696e76616c6964207360448201526a34b3b732b91037b93232b960a91b6064820152608401610555565b88975050600061204989613740565b905080156120ee576001600160a01b0389166000908152600960205260409020439055600192508c8c83818110612082576120826153f2565b9050606002018460008b6001600160a01b03166001600160a01b0316815260200190815260200160002081816120b89190615bc8565b50600190506120ca868b848f8c61246d565b60048111156120db576120db614b21565b036120ee5750505050505050505061057b565b50806120f981615408565b915050611f7d565b50806110215760405162461bcd60e51b815260206004820152602960248201527f424f73476f7665726e616e636550726f706f73616c3a20696e76616c6964207360448201526869676e61747572657360b81b6064820152608401610555565b612169614854565b876000036121b95760405162461bcd60e51b815260206004820181905260248201527f436f7265476f7665726e616e63653a20696e76616c696420636861696e2069646044820152606401610555565b6040805160e08101825260008a81526020819052919091205481906121df9060016153df565b815260200189815260200188815260200187815260200186815260200185815260200184815250905061221d6002548261304290919063ffffffff16565b60006122288261291f565b905060006122378a838b61313e565b905081818b7fa57d40f1496988cf60ab7c9d5ba4ff83647f67d3898d441a3aaf21b651678fd9868860405161226d929190615bf9565b60405180910390a45050979650505050505050565b468260200151146122e45760405162461bcd60e51b815260206004820152602660248201527f526f6e696e476f7665726e616e636541646d696e3a20696e76616c6964206368604482015265185a5b881a5960d21b6064820152608401610555565b6122ed8261291f565b602080840151600090815260018083526040808320875184529093529190200154146123785760405162461bcd60e51b815260206004820152603460248201527f526f6e696e476f7665726e616e636541646d696e3a206361737420766f746520604482015273199bdc881a5b9d985b1a59081c1c9bdc1bdcd85b60621b6064820152608401610555565b6000612382611cc4565b905060008161238f6138ab565b6123999190615c23565b6123a49060016153df565b6040805160608101825260008082526020820181905291810191909152909150611c07858585858a866123d68d611821565b6139f2565b60008281526001602090815260408083208484529091529020610e7b81613e0d565b604080517f697acba4deaf1a718d8c2d93e42860488cb7812696f28ca10eed17bac41e70276020808301919091526001600160a01b0396871682840152949095166060860152608085019290925260a0808501919091528151808503909101815260c09093019052815191012090565b6000808660040154118015612486575042866004015411155b1561249e5750845460ff191660049081178655612593565b6001600160a01b038516600090815260028701602052604090205415612508576124d2856001600160a01b0316601461402f565b6040516020016124e29190615c36565b60408051601f198184030181529082905262461bcd60e51b825261055591600401615807565b6001600160a01b03851660009081526002870160209081526040808320859055848352600389019091528120805486919083906125469084906153df565b925050819055905083811015801561257357506000875460ff16600481111561257157612571614b21565b145b1561258b57865460ff19166001908117885587018390555b5050845460ff165b95945050505050565b60006125b0600b546001600160a01b031690565b604080516001600160a01b0386811660248084019190915286821660448085019190915284518085039091018152606490930184526020830180516001600160e01b03166361e45aeb60e11b1790529251931692634bb5274a92612615929101615807565b6040516020818303038152906040529060e01b6020820180516001600160e01b03838183161783525050505060405161264e9190615601565b6000604051808303816000865af19150503d806000811461268b576040519150601f19603f3d011682016040523d82523d6000602084013e612690565b606091505b505090508061115b5760405162461bcd60e51b815260206004820152606260248201527f476f7665726e616e636541646d696e3a2070726f78792063616c6c206065786560448201527f6352656c656173654c6f636b656446756e64466f72456d657267656e6379457860648201527f69745265717565737428616464726573732c616464726573732960206661696c608482015261195960f21b60a482015260c401610555565b600380546001600160a01b0319166001600160a01b0383169081179091556040519081527ffd6f5f93d69a07c593a09be0b208bff13ab4ffd6017df3b33433d63bdc59b4d790602001611b7e565b600b80546001600160a01b0319166001600160a01b0383169081179091556040519081527fef40dc07567635f84f5edbd2f8dbc16b40d9d282dd8e7e6f4ff58236b683616990602001611b7e565b6127dc614854565b6127f06127e88b615ad2565b8585856141ca565b5090506000612801611c378c615ad2565b9050612829828b8b8b8b61281a8c6119dc896000612abe565b6119f08d6119dc8a6001612abe565b509998505050505050505050565b602082015160009080820361288e5760405162461bcd60e51b815260206004820181905260248201527f436f7265476f7665726e616e63653a20696e76616c696420636861696e2069646044820152606401610555565b60025461289c908590613042565b60006128a78561291f565b90506128b88282876040015161313e565b855190935083146128db5760405162461bcd60e51b815260040161055590615c8a565b8083837fa57d40f1496988cf60ab7c9d5ba4ff83647f67d3898d441a3aaf21b651678fd9888860405161290f929190615bf9565b60405180910390a4505092915050565b6000806000806000808660800151905060008760600151905060008860a00151516001600160401b03811115612957576129576151ae565b604051908082528060200260200182016040528015612980578160200160208202803683370190505b5060c08a015190915060005b82518110156129e9578a60a0015181815181106129ab576129ab6153f2565b6020026020010151805190602001208382815181106129cc576129cc6153f2565b6020908102919091010152806129e181615408565b91505061298c565b506020835102602084012097506020845102602085012096506020825102602083012095506020815102602082012094507fd051578048e6ff0bbc9fca3b65a42088dbde10f36ca841de566711087ad9b08a60001b8a600001518b602001518c604001518b8b8b8b604051602001612a99989796959493929190978852602088019690965260408701949094526060860192909252608085015260a084015260c083015260e08201526101000190565b6040516020818303038152906040528051906020012098505050505050505050919050565b604051600090612af6907fd900570327c4c0df8dd6bdd522b7da7e39145dd049d2fd4602276adcd511e3c29085908590602001615cd0565b60405160208183030381529060405280519060200120905092915050565b60405161190160f01b60208201526022810183905260428101829052600090606201612af6565b8415801590612b4957508483145b612ba65760405162461bcd60e51b815260206004820152602860248201527f476f7665726e616e636550726f706f73616c3a20696e76616c696420617272616044820152670f240d8cadccee8d60c31b6064820152608401610555565b6000612bb0611cc4565b9050600081612bbd6138ab565b612bc79190615c23565b612bd29060016153df565b9050600080366000805b89811015612e08578a8a82818110612bf657612bf66153f2565b606002919091019350600090508d8d83818110612c1557612c156153f2565b9050602002016020810190612c2a9190615cf5565b6001811115612c3b57612c3b614b21565b03612c6757612c6089612c516020860186615bab565b85602001358660400135613718565b9350612d1b565b60018d8d83818110612c7b57612c7b6153f2565b9050602002016020810190612c909190615cf5565b6001811115612ca157612ca1614b21565b03612cb757612c6088612c516020860186615bab565b60405162461bcd60e51b815260206004820152603360248201527f476f7665726e616e636550726f706f73616c3a20717565727920666f7220756e604482015272737570706f7274656420766f7465207479706560681b6064820152608401610555565b836001600160a01b0316856001600160a01b031610612d865760405162461bcd60e51b815260206004820152602160248201527f476f7665726e616e636550726f706f73616c3a20696e76616c6964206f7264656044820152603960f91b6064820152608401610555565b8394506000612d9485611821565b90508015612df55760019250612de38f8f8f85818110612db657612db66153f2565b9050602002016020810190612dcb9190615cf5565b8a8a89612ddd368b90038b018b615d12565b876139f2565b15612df5575050505050505050611c07565b5080612e0081615408565b915050612bdc565b5080612e655760405162461bcd60e51b815260206004820152602660248201527f476f7665726e616e636550726f706f73616c3a20696e76616c6964207369676e60448201526561747572657360d01b6064820152608401610555565b50505050505050505050505050565b612e7c614854565b83518152602080850151604080840191909152600091830191909152840151516001600160401b03811115612eb357612eb36151ae565b604051908082528060200260200182016040528015612edc578160200160208202803683370190505b5060608083019190915284015160808083019190915284015160a08083019190915284015160c082015260005b84604001515181101561303a57600185604001518281518110612f2e57612f2e6153f2565b60200260200101516001811115612f4757612f47614b21565b03612f88578282606001518281518110612f6357612f636153f2565b60200260200101906001600160a01b031690816001600160a01b031681525050613028565b600085604001518281518110612fa057612fa06153f2565b60200260200101516001811115612fb957612fb9614b21565b03612fd5578382606001518281518110612f6357612f636153f2565b60405162461bcd60e51b815260206004820152602260248201527f476c6f62616c50726f706f73616c3a20756e737570706f727465642074617267604482015261195d60f21b6064820152608401610555565b8061303281615408565b915050612f09565b509392505050565b60008260600151511180156130605750816080015151826060015151145b801561307557508160a0015151826060015151145b801561308a57508160c0015151826060015151145b6130d65760405162461bcd60e51b815260206004820152601e60248201527f50726f706f73616c3a20696e76616c6964206172726179206c656e67746800006044820152606401610555565b6130e081426153df565b8260400151111561116a5760405162461bcd60e51b815260206004820152602260248201527f50726f706f73616c3a20696e76616c6964206578706972792074696d6573746160448201526106d760f41b6064820152608401610555565b6000838152602081905260408120549081900361316f5750600083815260208190526040902060019081905561323f565b600084815260016020908152604080832084845290915281209061319282613e0d565b90508061323c576000825460ff1660048111156131b1576131b1614b21565b036132185760405162461bcd60e51b815260206004820152603160248201527f436f7265476f7665726e616e63653a2063757272656e742070726f706f73616c604482015270081a5cc81b9bdd0818dbdb5c1b195d1959607a1b6064820152608401610555565b6000868152602081905260408120805490919061323490615408565b918290555092505b50505b60009384526001602081815260408087208488529091529094209384019290925560069092019190915590565b6000806000806000808660600151905060008760400151905060008860800151516001600160401b038111156132a4576132a46151ae565b6040519080825280602002602001820160405280156132cd578160200160208202803683370190505b5060a08a015190915060005b8251811015613336578a6080015181815181106132f8576132f86153f2565b602002602001015180519060200120838281518110613319576133196153f2565b60209081029190910101528061332e81615408565b9150506132d9565b5082516020908102848201208551820286830120845183028584012084518402858501208e518f860151604080517f1463f426c05aff2c1a7a0957a71c9898bc8b47142540538e79ee25ee911413509881019890985287019190915260608601526080850184905260a0850183905260c0850182905260e08501819052929b509099509750955061010001612a99565b60006133d5604084018461543e565b9050116134385760405162461bcd60e51b815260206004820152602b60248201527f4272696467654f70657261746f727342616c6c6f743a20696e76616c6964206160448201526a0e4e4c2f240d8cadccee8d60ab1b6064820152608401610555565b60008080613449604086018661543e565b808060200260200160405190810160405280939291908181526020018383602002808284376000920182905250600289018054604080516020808402820181019092528281529798509296955090935091508301828280156134d457602002820191906000526020600020905b81546001600160a01b031681526001909101906020018083116134b6575b505050505090506020825102602083012093506020815102602082012092508284036135685760405162461bcd60e51b815260206004820152603b60248201527f4272696467654f70657261746f727342616c6c6f743a20627269646765206f7060448201527f657261746f722073657420697320616c726561647920766f74656400000000006064820152608401610555565b60008260008151811061357d5761357d6153f2565b602002602001015190506000600190505b83518110156119f5578381815181106135a9576135a96153f2565b60200260200101516001600160a01b0316826001600160a01b0316106136375760405162461bcd60e51b815260206004820152603860248201527f4272696467654f70657261746f727342616c6c6f743a20696e76616c6964206f60448201527f72646572206f6620627269646765206f70657261746f727300000000000000006064820152608401610555565b838181518110613649576136496153f2565b60200260200101519150808061365e90615408565b91505061358e565b60008080613677604085018561543e565b80806020026020016040519081016040528093929190818152602001838360200280828437600092019190915250508251602090810293810193909320604080517fd679a49e9e099fa9ed83a5446aaec83e746b03ec6723d6f5efb29d37d7f0b78a818701528935818301529885013560608a01526080808a01929092528051808a03909201825260a0909801909752505084519401939093209392505050565b600080600061372987878787614287565b9150915061373681614374565b5095945050505050565b60008060006137576003546001600160a01b031690565b604080516001600160a01b03878116602480840191909152835180840382018152604490930184526020830180516001600160e01b0316635624191160e01b1790529251931692634bb5274a926137af929101615807565b6040516020818303038152906040529060e01b6020820180516001600160e01b0383818316178352505050506040516137e89190615601565b600060405180830381855afa9150503d8060008114613823576040519150601f19603f3d011682016040523d82523d6000602084013e613828565b606091505b5091509150816119815760405162461bcd60e51b815260206004820152604260248201527f476f7665726e616e636541646d696e3a2070726f78792063616c6c206067657460448201527f427269646765566f74657257656967687428616464726573732960206661696c606482015261195960f21b608482015260a401610555565b60008060006138c26003546001600160a01b031690565b6040805160048152602480820183526020820180516001600160e01b031663926323d560e01b17905291516001600160a01b039390931692634bb5274a9261390b929101615807565b6040516020818303038152906040529060e01b6020820180516001600160e01b0383818316178352505050506040516139449190615601565b600060405180830381855afa9150503d806000811461397f576040519150601f19603f3d011682016040523d82523d6000602084013e613984565b606091505b509150915081611e155760405162461bcd60e51b815260206004820152603360248201527f476f7665726e616e636541646d696e3a2070726f78792063616c6c2060746f74604482015272185b15d95a59da1d1cca0a580819985a5b1959606a1b6064820152608401610555565b60208088015188516000828152600184526040808220838352909452928320613a1a81613e0d565b15613a2b5760019350505050613e02565b6020808c015160009081529081905260409020548214613aa65760405162461bcd60e51b815260206004820152603060248201527f436f7265476f7665726e616e63653a20717565727920666f7220696e76616c6960448201526f642070726f706f73616c206e6f6e636560801b6064820152608401610555565b6000815460ff166004811115613abe57613abe614b21565b14613b195760405162461bcd60e51b815260206004820152602560248201527f436f7265476f7665726e616e63653a2074686520766f74652069732066696e616044820152641b1a5e995960da1b6064820152608401610555565b6001600160a01b038716600090815260088201602052604090205460ff1615613b6057613b50876001600160a01b0316601461402f565b6040516020016124e29190615d73565b6001600160a01b03871660009081526008820160209081526040909120805460ff19166001179055860151151580613b9b5750604086015115155b80613ba95750855160ff1615155b15613bf0576001600160a01b03871660009081526007820160209081526040918290208851815460ff191660ff909116178155908801516001820155908701516002909101555b866001600160a01b031681600101547f1203f9e81c814a35f5f4cc24087b2a24c6fb7986a9f1406b68a9484882c93a238c88604051613c30929190615dc3565b60405180910390a3600080808c6001811115613c4e57613c4e614b21565b03613ca3576004830180546001810182556000918252602082200180546001600160a01b0319166001600160a01b038c16179055600384018054899290613c969084906153df565b9250508190559150613d62565b60018c6001811115613cb757613cb7614b21565b03613d0c576005830180546001810182556000918252602082200180546001600160a01b0319166001600160a01b038c16179055600284018054899290613cff9084906153df565b9250508190559050613d62565b60405162461bcd60e51b815260206004820152602560248201527f436f7265476f7665726e616e63653a20756e737570706f7274656420766f7465604482015264207479706560d81b6064820152608401610555565b8a8210613db657825460ff19166001908117845580840154604051919750907f5c819725ea53655a3b898f3df59b66489761935454e9212ca1e5ebd759953d0b90600090a2613db1838e61452a565b613dfc565b898110613dfc57825460ff19166003178355600180840154604051919750907f55295d4ce992922fa2e5ffbf3a3dcdb367de0a15e125ace083456017fd22060f90600090a25b50505050505b979650505050505050565b600080825460ff166004811115613e2657613e26614b21565b148015613e37575042826006015411155b9050801561402a5760018201546040517f58f98006a7f2f253f8ae8f8b7cec9008ca05359633561cd7c22f3005682d4a5590600090a260005b6004830154811015613f2957826008016000846004018381548110613e9757613e976153f2565b60009182526020808320909101546001600160a01b031683528201929092526040018120805460ff191690556004840180546007860192919084908110613ee057613ee06153f2565b60009182526020808320909101546001600160a01b031683528201929092526040018120805460ff19168155600181018290556002015580613f2181615408565b915050613e70565b5060005b6005830154811015613fe657826008016000846005018381548110613f5457613f546153f2565b60009182526020808320909101546001600160a01b031683528201929092526040018120805460ff191690556005840180546007860192919084908110613f9d57613f9d6153f2565b60009182526020808320909101546001600160a01b031683528201929092526040018120805460ff19168155600181018290556002015580613fde81615408565b915050613f2d565b50815460ff191682556000600183018190556002830181905560038301819055614014906004840190614891565b614022600583016000614891565b600060068301555b919050565b6060600061403e836002615487565b6140499060026153df565b6001600160401b03811115614060576140606151ae565b6040519080825280601f01601f19166020018201604052801561408a576020820181803683370190505b509050600360fc1b816000815181106140a5576140a56153f2565b60200101906001600160f81b031916908160001a905350600f60fb1b816001815181106140d4576140d46153f2565b60200101906001600160f81b031916908160001a90535060006140f8846002615487565b6141039060016153df565b90505b600181111561417b576f181899199a1a9b1b9c1cb0b131b232b360811b85600f1660108110614137576141376153f2565b1a60f81b82828151811061414d5761414d6153f2565b60200101906001600160f81b031916908160001a90535060049490941c9361417481615dda565b9050614106565b5083156116e05760405162461bcd60e51b815260206004820181905260248201527f537472696e67733a20686578206c656e67746820696e73756666696369656e746044820152606401610555565b6141d2614854565b60006141df868686612e74565b91506141f66002548361304290919063ffffffff16565b60006142018361291f565b9050614213600082896020015161313e565b835190925082146142365760405162461bcd60e51b815260040161055590615c8a565b80827f771d78ae9e5fca95a532fb0971d575d0ce9b59d14823c063e08740137e0e0eca856142638b61326c565b8b896040516142759493929190615938565b60405180910390a35094509492505050565b6000807f7fffffffffffffffffffffffffffffff5d576e7357a4501ddfe92f46681b20a08311156142be575060009050600361436b565b8460ff16601b141580156142d657508460ff16601c14155b156142e7575060009050600461436b565b6040805160008082526020820180845289905260ff881692820192909252606081018690526080810185905260019060a0016020604051602081039080840390855afa15801561433b573d6000803e3d6000fd5b5050604051601f1901519150506001600160a01b0381166143645760006001925092505061436b565b9150600090505b94509492505050565b600081600481111561438857614388614b21565b036143905750565b60018160048111156143a4576143a4614b21565b036143f15760405162461bcd60e51b815260206004820152601860248201527f45434453413a20696e76616c6964207369676e617475726500000000000000006044820152606401610555565b600281600481111561440557614405614b21565b036144525760405162461bcd60e51b815260206004820152601f60248201527f45434453413a20696e76616c6964207369676e6174757265206c656e677468006044820152606401610555565b600381600481111561446657614466614b21565b036144be5760405162461bcd60e51b815260206004820152602260248201527f45434453413a20696e76616c6964207369676e6174757265202773272076616c604482015261756560f01b6064820152608401610555565b60048160048111156144d2576144d2614b21565b0361069d5760405162461bcd60e51b815260206004820152602260248201527f45434453413a20696e76616c6964207369676e6174757265202776272076616c604482015261756560f01b6064820152608401610555565b61453381614597565b1561116a57815460ff1916600217825560008061454f836145b1565b9150915083600101547fe134987599ae266ec90edeff1b26125b287dbb57b10822649432d1bb26537fba8383604051614589929190615df1565b60405180910390a250505050565b60008160200151600014806116e357505060200151461490565b6060806145bd83614597565b6146155760405162461bcd60e51b815260206004820152602360248201527f50726f706f73616c3a20717565727920666f7220696e76616c696420636861696044820152621b925960ea1b6064820152608401610555565b8260600151516001600160401b03811115614632576146326151ae565b60405190808252806020026020018201604052801561465b578160200160208202803683370190505b5091508260600151516001600160401b0381111561467b5761467b6151ae565b6040519080825280602002602001820160405280156146ae57816020015b60608152602001906001900390816146995790505b50905060005b83606001515181101561484e578360c0015181815181106146d7576146d76153f2565b60200260200101515a1161472d5760405162461bcd60e51b815260206004820152601a60248201527f50726f706f73616c3a20696e73756666696369656e74206761730000000000006044820152606401610555565b83606001518181518110614743576147436153f2565b60200260200101516001600160a01b03168460800151828151811061476a5761476a6153f2565b60200260200101518560c001518381518110614788576147886153f2565b6020026020010151908660a0015184815181106147a7576147a76153f2565b60200260200101516040516147bc9190615601565b600060405180830381858888f193505050503d80600081146147fa576040519150601f19603f3d011682016040523d82523d6000602084013e6147ff565b606091505b50848381518110614812576148126153f2565b6020026020010184848151811061482b5761482b6153f2565b6020908102919091010191909152901515905261484781615408565b90506146b4565b50915091565b6040518060e00160405280600081526020016000815260200160008152602001606081526020016060815260200160608152602001606081525090565b508054600082559060005260206000209081019061069d91905b808211156148bf57600081556001016148ab565b5090565b600060e082840312156148d557600080fd5b50919050565b60008083601f8401126148ed57600080fd5b5081356001600160401b0381111561490457600080fd5b6020830191508360208260051b850101111561491f57600080fd5b9250929050565b60008083601f84011261493857600080fd5b5081356001600160401b0381111561494f57600080fd5b60208301915083602060608302850101111561491f57600080fd5b60008060008060006060868803121561498257600080fd5b85356001600160401b038082111561499957600080fd5b6149a589838a016148c3565b965060208801359150808211156149bb57600080fd5b6149c789838a016148db565b909650945060408801359150808211156149e057600080fd5b506149ed88828901614926565b969995985093965092949392505050565b600080600080600080600080600060a08a8c031215614a1c57600080fd5b8935985060208a01356001600160401b0380821115614a3a57600080fd5b614a468d838e016148db565b909a50985060408c0135915080821115614a5f57600080fd5b614a6b8d838e016148db565b909850965060608c0135915080821115614a8457600080fd5b614a908d838e016148db565b909650945060808c0135915080821115614aa957600080fd5b50614ab68c828d016148db565b915080935050809150509295985092959850929598565b6001600160a01b038116811461069d57600080fd5b600060208284031215614af457600080fd5b81356116e081614acd565b60008060408385031215614b1257600080fd5b50508035926020909101359150565b634e487b7160e01b600052602160045260246000fd5b6002811061069d5761069d614b21565b600081518084526020808501945080840160005b83811015614b90578151805160ff16885283810151848901526040908101519088015260609096019590820190600101614b5b565b509495945050505050565b606080825284519082018190526000906020906080840190828801845b82811015614bdd5781516001600160a01b031684529284019290840190600101614bb8565b5050508381038285015285518082528683019183019060005b81811015614c1b578351614c0981614b37565b83529284019291840191600101614bf6565b50508481036040860152614c2f8187614b47565b98975050505050505050565b600080600060608486031215614c5057600080fd5b83359250602084013591506040840135614c6981614acd565b809150509250925092565b600060208284031215614c8657600080fd5b5035919050565b600080600080600060608688031215614ca557600080fd5b85356001600160401b0380821115614cbc57600080fd5b9087019060c0828a031215614cd057600080fd5b909550602087013590808211156149bb57600080fd5b60008060008060608587031215614cfc57600080fd5b843593506020850135925060408501356001600160401b03811115614d2057600080fd5b614d2c878288016148db565b95989497509550505050565b6020815260006116e06020830184614b47565b600080600060408486031215614d6057600080fd5b83356001600160401b0380821115614d7757600080fd5b9085019060608288031215614d8b57600080fd5b90935060208501359080821115614da157600080fd5b50614dae86828701614926565b9497909650939450505050565b600081518084526020808501945080840160005b83811015614b905781516001600160a01b031687529582019590820190600101614dcf565b60208152815160208201526020820151604082015260006040830151606080840152610ba36080840182614dbb565b6002811061069d57600080fd5b803561402a81614e23565b60008060008060008060008060008060c08b8d031215614e5a57600080fd5b8a35995060208b01356001600160401b0380821115614e7857600080fd5b614e848e838f016148db565b909b50995060408d0135915080821115614e9d57600080fd5b614ea98e838f016148db565b909950975060608d0135915080821115614ec257600080fd5b614ece8e838f016148db565b909750955060808d0135915080821115614ee757600080fd5b50614ef48d828e016148db565b9094509250614f07905060a08c01614e30565b90509295989b9194979a5092959850565b60008060408385031215614f2b57600080fd5b8235614f3681614acd565b91506020830135614f4681614acd565b809150509250929050565b600080600080600060a08688031215614f6957600080fd5b853594506020860135614f7b81614acd565b93506040860135614f8b81614acd565b94979396509394606081013594506080013592915050565b60008060008060008060008060008060c08b8d031215614fc257600080fd5b8a35995060208b0135985060408b01356001600160401b0380821115614fe757600080fd5b614ff38e838f016148db565b909a50985060608d013591508082111561500c57600080fd5b6150188e838f016148db565b909850965060808d013591508082111561503157600080fd5b61503d8e838f016148db565b909650945060a08d013591508082111561505657600080fd5b506150638d828e016148db565b915080935050809150509295989b9194979a5092959850565b6000806000806080858703121561509257600080fd5b843561509d81614acd565b935060208501356150ad81614acd565b93969395505050506040820135916060013590565b600080604083850312156150d557600080fd5b82356001600160401b038111156150eb57600080fd5b6150f7858286016148c3565b9250506020830135614f4681614e23565b60a081016005871061511c5761511c614b21565b95815260208101949094526040840192909252606083015260809091015290565b6000806040838503121561515057600080fd5b823591506020830135614f4681614acd565b6020808252602c908201527f526f6e696e476f7665726e616e636541646d696e3a2073656e6465722069732060408201526b3737ba1033b7bb32b93737b960a11b606082015260800190565b634e487b7160e01b600052604160045260246000fd5b60405160e081016001600160401b03811182821017156151e6576151e66151ae565b60405290565b60405160c081016001600160401b03811182821017156151e6576151e66151ae565b604051601f8201601f191681016001600160401b0381118282101715615236576152366151ae565b604052919050565b60006001600160401b03821115615257576152576151ae565b5060051b60200190565b600061527461526f8461523e565b61520e565b8381529050602080820190600585901b84018681111561529357600080fd5b845b818110156153265780356001600160401b03808211156152b55760008081fd5b8188019150601f8a818401126152cb5760008081fd5b8235828111156152dd576152dd6151ae565b6152ee818301601f1916880161520e565b92508083528b8782860101111561530757600091508182fd5b8087850188850137600090830187015250855250928201928201615295565b505050509392505050565b60006116e0368484615261565b60208082526027908201527f476f7665726e616e636541646d696e3a206f6e6c7920616c6c6f7765642073656040820152661b198b58d85b1b60ca1b606082015260800190565b60208082526024908201527f476f7665726e616e636541646d696e3a2073657420746f206e6f6e2d636f6e746040820152631c9858dd60e21b606082015260800190565b634e487b7160e01b600052601160045260246000fd5b808201808211156116e3576116e36153c9565b634e487b7160e01b600052603260045260246000fd5b60006001820161541a5761541a6153c9565b5060010190565b60006020828403121561543357600080fd5b81516116e081614acd565b6000808335601e1984360301811261545557600080fd5b8301803591506001600160401b0382111561546f57600080fd5b6020019150600581901b360382131561491f57600080fd5b80820281158282048414176116e3576116e36153c9565b600081356116e381614acd565b81358155600160208084013582840155600283016040850135601e198636030181126154d657600080fd5b850180356001600160401b038111156154ee57600080fd5b83820191508060051b360382131561550557600080fd5b6801000000000000000081111561551e5761551e6151ae565b8254818455808210156155525760008481528581208381019083015b8082101561554e578282559088019061553a565b5050505b50600092835260208320925b818110156119f55761556f8361549e565b8482015591840191850161555e565b84815260208082018590526060604083018190528201839052600090849060808401835b868110156155d05783356155b581614acd565b6001600160a01b0316825292820192908201906001016155a2565b5098975050505050505050565b60005b838110156155f85781810151838201526020016155e0565b50506000910152565b600082516156138184602087016155dd565b9190910192915050565b600082601f83011261562e57600080fd5b8135602061563e61526f8361523e565b82815260059290921b8401810191818101908684111561565d57600080fd5b8286015b8481101561568157803561567481614acd565b8352918301918301615661565b509695505050505050565b600082601f83011261569d57600080fd5b813560206156ad61526f8361523e565b82815260059290921b840181019181810190868411156156cc57600080fd5b8286015b8481101561568157803583529183019183016156d0565b600082601f8301126156f857600080fd5b6116e083833560208501615261565b600060e0823603121561571957600080fd5b6157216151c4565b82358152602083013560208201526040830135604082015260608301356001600160401b038082111561575357600080fd5b61575f3683870161561d565b6060840152608085013591508082111561577857600080fd5b6157843683870161568c565b608084015260a085013591508082111561579d57600080fd5b6157a9368387016156e7565b60a084015260c08501359150808211156157c257600080fd5b506157cf3682860161568c565b60c08301525092915050565b600081518084526157f38160208601602086016155dd565b601f01601f19169290920160200192915050565b6020815260006116e060208301846157db565b60006020828403121561582c57600080fd5b5051919050565b600081518084526020808501945080840160005b83811015614b9057815187529582019590820190600101615847565b600081518084526020808501808196508360051b8101915082860160005b858110156158ab5782840389526158998483516157db565b98850198935090840190600101615881565b5091979650505050505050565b8051825260208101516020830152604081015160408301526000606082015160e060608501526158eb60e0850182614dbb565b9050608083015184820360808601526159048282615833565b91505060a083015184820360a086015261591e8282615863565b91505060c083015184820360c08601526125938282615833565b60808152600061594b60808301876158b8565b60208681850152838203604085015260c08201865183528187015182840152604087015160c0604085015281815180845260e0860191508483019350600092505b808310156159b557835161599f81614b37565b825292840192600192909201919084019061598c565b506060890151935084810360608601526159cf8185615833565b9350505050608086015182820360808401526159eb8282615863565b91505060a086015182820360a0840152615a058282615833565b935050505061259360608301846001600160a01b03169052565b6020808252602f908201527f476f7665726e616e636541646d696e3a206361737420766f746520666f72206960408201526e1b9d985b1a59081c1c9bdc1bdcd85b608a1b606082015260800190565b600082601f830112615a7f57600080fd5b81356020615a8f61526f8361523e565b82815260059290921b84018101918181019086841115615aae57600080fd5b8286015b84811015615681578035615ac581614e23565b8352918301918301615ab2565b600060c08236031215615ae457600080fd5b615aec6151ec565b823581526020830135602082015260408301356001600160401b0380821115615b1457600080fd5b615b2036838701615a6e565b60408401526060850135915080821115615b3957600080fd5b615b453683870161568c565b60608401526080850135915080821115615b5e57600080fd5b615b6a368387016156e7565b608084015260a0850135915080821115615b8357600080fd5b50615b903682860161568c565b60a08301525092915050565b60ff8116811461069d57600080fd5b600060208284031215615bbd57600080fd5b81356116e081615b9c565b8135615bd381615b9c565b60ff811660ff198354161782555060208201356001820155604082013560028201555050565b604081526000615c0c60408301856158b8565b905060018060a01b03831660208301529392505050565b818103818111156116e3576116e36153c9565b73024b9b7b630ba32b223b7bb32b93730b731b29d160651b815260008251615c658160148501602087016155dd565b6d08185b1c9958591e481d9bdd195960921b6014939091019283015250602201919050565b60208082526026908201527f436f7265476f7665726e616e63653a20696e76616c69642070726f706f73616c604082015265206e6f6e636560d01b606082015260800190565b8381526020810183905260608101615ce783614b37565b826040830152949350505050565b600060208284031215615d0757600080fd5b81356116e081614e23565b600060608284031215615d2457600080fd5b604051606081018181106001600160401b0382111715615d4657615d466151ae565b6040528235615d5481615b9c565b8152602083810135908201526040928301359281019290925250919050565b6f021b7b932a3b7bb32b93730b731b29d160851b815260008251615d9e8160108501602087016155dd565b6d08185b1c9958591e481d9bdd195960921b6010939091019283015250601e01919050565b60408101615dd084614b37565b9281526020015290565b600081615de957615de96153c9565b506000190190565b604080825283519082018190526000906020906060840190828701845b82811015615e2c578151151584529284019290840190600101615e0e565b50505083810382850152845180825282820190600581901b8301840187850160005b83811015615e7c57601f19868403018552615e6a8383516157db565b94870194925090860190600101615e4e565b5090999850505050505050505056fef8704f8860d9e985bf6c52ec4738bd10fe31487599b36c0944f746ea09dc256ba2646970667358221220ee77c769d7ff6af8196ab77fa62550cecd01bfbade9a22f7662d4273f7b1d37c64736f6c63430008110033",
  "devdoc": {
    "errors": {
      "ErrCallerMustBeBridgeContract()": [
        {
          "details": "Error of method caller must be bridge contract."
        }
      ],
      "ErrCallerMustBeRoninTrustedOrgContract()": [
        {
          "details": "Error of method caller must be Ronin trusted org contract."
        }
      ],
      "ErrCallerMustBeValidatorContract()": [
        {
          "details": "Error of method caller must be validator contract."
        }
      ],
      "ErrZeroCodeContract()": [
        {
          "details": "Error of set to non-contract."
        }
      ]
    },
    "kind": "dev",
    "methods": {
      "bridgeContract()": {
        "details": "Returns the bridge contract."
      },
      "bridgeOperatorsVoted(uint256,uint256,address)": {
        "details": "Returns whether the voter `_voter` casted vote for bridge operators at a specific period."
      },
      "castGlobalProposalBySignatures((uint256,uint256,uint8[],uint256[],bytes[],uint256[]),uint8[],(uint8,bytes32,bytes32)[])": {
        "details": "See `GovernanceProposal-_castGlobalProposalBySignatures`."
      },
      "castProposalBySignatures((uint256,uint256,uint256,address[],uint256[],bytes[],uint256[]),uint8[],(uint8,bytes32,bytes32)[])": {
        "details": "See `GovernanceProposal-_castProposalBySignatures`."
      },
      "castProposalVoteForCurrentNetwork((uint256,uint256,uint256,address[],uint256[],bytes[],uint256[]),uint8)": {
        "details": "Casts vote for a proposal on the current network. Requirements: - The method caller is governor."
      },
      "changeProxyAdmin(address,address)": {
        "details": "Changes the admin of `_proxy` to `newAdmin`. Requirements: - This contract must be the current admin of `_proxy`."
      },
      "createEmergencyExitPoll(address,address,uint256,uint256)": {
        "details": "Create a vote to agree that an emergency exit is valid and should return the locked funds back.a Requirements: - The method caller is validator contract."
      },
      "deleteExpired(uint256,uint256)": {
        "details": "See `CoreGovernance-_deleteExpiredProposal`"
      },
      "emergencyPollVoted(bytes32,address)": {
        "details": "Returns whether the voter casted vote for emergency exit poll."
      },
      "getBridgeOperatorVotingSignatures(uint256,uint256,address[])": {
        "details": "Returns the voted signatures for bridge operators at a specific period. Note: Does not verify whether the voter casted vote for the proposal and the returned signature can be empty. Please consider filtering for empty signatures after calling this function."
      },
      "getProposalExpiryDuration()": {
        "details": "Returns the proposal expiry duration."
      },
      "getProposalSignatures(uint256,uint256)": {
        "details": "Returns the voted signatures for the proposals. Note: The signatures can be empty in case the proposal is voted on the current network."
      },
      "getProxyAdmin(address)": {
        "details": "Returns the current admin of `_proxy`. Requirements: - This contract must be the admin of `_proxy`."
      },
      "getProxyImplementation(address)": {
        "details": "Returns the current implementation of `_proxy`. Requirements: - This contract must be the admin of `_proxy`."
      },
      "lastSyncedBridgeOperatorSetInfo()": {
        "details": "Returns the synced bridge operator set info."
      },
      "lastVotedBlock(address)": {
        "details": "Returns the last voted block of the bridge voter."
      },
      "proposalVoted(uint256,uint256,address)": {
        "details": "Returns whether the voter `_voter` casted vote for the proposal."
      },
      "propose(uint256,uint256,address[],uint256[],bytes[],uint256[])": {
        "details": "See `CoreGovernance-_proposeProposal`. Requirements: - The method caller is governor."
      },
      "proposeGlobal(uint256,uint8[],uint256[],bytes[],uint256[])": {
        "details": "See `CoreGovernance-_proposeGlobal`. Requirements: - The method caller is governor."
      },
      "proposeGlobalProposalStructAndCastVotes((uint256,uint256,uint8[],uint256[],bytes[],uint256[]),uint8[],(uint8,bytes32,bytes32)[])": {
        "details": "See `GovernanceProposal-_proposeGlobalProposalStructAndCastVotes`. Requirements: - The method caller is governor."
      },
      "proposeProposalForCurrentNetwork(uint256,address[],uint256[],bytes[],uint256[],uint8)": {
        "details": "Proposes and casts vote for a proposal on the current network. Requirements: - The method caller is governor. - The proposal is for the current network."
      },
      "proposeProposalStructAndCastVotes((uint256,uint256,uint256,address[],uint256[],bytes[],uint256[]),uint8[],(uint8,bytes32,bytes32)[])": {
        "details": "See `GovernanceProposal-_proposeProposalStructAndCastVotes`. Requirements: - The method caller is governor. - The proposal is for the current network."
      },
      "roninTrustedOrganizationContract()": {
        "details": "Returns the ronin trusted organization contract."
      },
      "setBridgeContract(address)": {
        "details": "Sets the bridge contract. Requirements: - The method caller is admin. - The new address is a contract. Emits the event `BridgeContractUpdated`."
      },
      "setProposalExpiryDuration(uint256)": {
        "details": "Sets the expiry duration for a new proposal. Requirements: - Only allowing self-call to this method, since this contract does not have admin."
      },
      "setRoninTrustedOrganizationContract(address)": {
        "details": "Sets the ronin trusted organization contract. Requirements: - The method caller is admin. - The new address is a contract. Emits the event `RoninTrustedOrganizationContractUpdated`."
      },
      "setValidatorContract(address)": {
        "details": "Sets the validator contract. Requirements: - The method caller is admin. - The new address is a contract. Emits the event `ValidatorContractUpdated`."
      },
      "validatorContract()": {
        "details": "Returns the validator contract."
      },
      "voteBridgeOperatorsBySignatures((uint256,uint256,address[]),(uint8,bytes32,bytes32)[])": {
        "details": "See `BOsGovernanceProposal-_castVotesBySignatures`."
      },
      "voteEmergencyExit(bytes32,address,address,uint256,uint256)": {
        "details": "Votes for an emergency exit. Executes to unlock fund for the emergency exit's requester. Requirements: - The voter is governor. - The voting is existent. - The voting is not expired yet."
      }
    },
    "stateVariables": {
      "_emergencyExitPoll": {
        "details": "Mapping from request hash => emergency poll"
      }
    },
    "version": 1
  },
  "userdoc": {
    "kind": "user",
    "methods": {
      "round(uint256)": {
        "notice": "chain id = 0 for global proposal"
      }
    },
    "version": 1
  },
  "storageLayout": {
    "storage": [
      {
        "astId": 7780,
        "contract": "contracts/ronin/RoninGovernanceAdmin.sol:RoninGovernanceAdmin",
        "label": "round",
        "offset": 0,
        "slot": "0",
        "type": "t_mapping(t_uint256,t_uint256)"
      },
      {
        "astId": 7788,
        "contract": "contracts/ronin/RoninGovernanceAdmin.sol:RoninGovernanceAdmin",
        "label": "vote",
        "offset": 0,
        "slot": "1",
        "type": "t_mapping(t_uint256,t_mapping(t_uint256,t_struct(ProposalVote)7706_storage))"
      },
      {
        "astId": 7790,
        "contract": "contracts/ronin/RoninGovernanceAdmin.sol:RoninGovernanceAdmin",
        "label": "_proposalExpiryDuration",
        "offset": 0,
        "slot": "2",
        "type": "t_uint256"
      },
      {
        "astId": 6142,
        "contract": "contracts/ronin/RoninGovernanceAdmin.sol:RoninGovernanceAdmin",
        "label": "_roninTrustedOrganizationContract",
        "offset": 0,
        "slot": "3",
        "type": "t_contract(IRoninTrustedOrganization)10481"
      },
      {
        "astId": 5793,
        "contract": "contracts/ronin/RoninGovernanceAdmin.sol:RoninGovernanceAdmin",
        "label": "_bridgeContract",
        "offset": 0,
        "slot": "4",
        "type": "t_contract(IBridge)9580"
      },
      {
        "astId": 7198,
        "contract": "contracts/ronin/RoninGovernanceAdmin.sol:RoninGovernanceAdmin",
        "label": "_lastSyncedBridgeOperatorSetInfo",
        "offset": 0,
        "slot": "5",
        "type": "t_struct(BridgeOperatorSet)12653_storage"
      },
      {
        "astId": 7206,
        "contract": "contracts/ronin/RoninGovernanceAdmin.sol:RoninGovernanceAdmin",
        "label": "_vote",
        "offset": 0,
        "slot": "8",
        "type": "t_mapping(t_uint256,t_mapping(t_uint256,t_struct(IsolatedVote)7047_storage))"
      },
      {
        "astId": 7211,
        "contract": "contracts/ronin/RoninGovernanceAdmin.sol:RoninGovernanceAdmin",
        "label": "_lastVotedBlock",
        "offset": 0,
        "slot": "9",
        "type": "t_mapping(t_address,t_uint256)"
      },
      {
        "astId": 7221,
        "contract": "contracts/ronin/RoninGovernanceAdmin.sol:RoninGovernanceAdmin",
        "label": "_votingSig",
        "offset": 0,
        "slot": "10",
        "type": "t_mapping(t_uint256,t_mapping(t_uint256,t_mapping(t_address,t_struct(Signature)10861_storage)))"
      },
      {
        "astId": 6458,
        "contract": "contracts/ronin/RoninGovernanceAdmin.sol:RoninGovernanceAdmin",
        "label": "_validatorContract",
        "offset": 0,
        "slot": "11",
        "type": "t_contract(IRoninValidatorSet)12209"
      },
      {
        "astId": 23180,
        "contract": "contracts/ronin/RoninGovernanceAdmin.sol:RoninGovernanceAdmin",
        "label": "_emergencyExitPoll",
        "offset": 0,
        "slot": "12",
        "type": "t_mapping(t_bytes32,t_struct(IsolatedVote)7047_storage)"
      }
    ],
    "types": {
      "t_address": {
        "encoding": "inplace",
        "label": "address",
        "numberOfBytes": "20"
      },
      "t_array(t_address)dyn_storage": {
        "base": "t_address",
        "encoding": "dynamic_array",
        "label": "address[]",
        "numberOfBytes": "32"
      },
      "t_bool": {
        "encoding": "inplace",
        "label": "bool",
        "numberOfBytes": "1"
      },
      "t_bytes32": {
        "encoding": "inplace",
        "label": "bytes32",
        "numberOfBytes": "32"
      },
      "t_contract(IBridge)9580": {
        "encoding": "inplace",
        "label": "contract IBridge",
        "numberOfBytes": "20"
      },
      "t_contract(IRoninTrustedOrganization)10481": {
        "encoding": "inplace",
        "label": "contract IRoninTrustedOrganization",
        "numberOfBytes": "20"
      },
      "t_contract(IRoninValidatorSet)12209": {
        "encoding": "inplace",
        "label": "contract IRoninValidatorSet",
        "numberOfBytes": "20"
      },
      "t_enum(VoteStatus)10870": {
        "encoding": "inplace",
        "label": "enum VoteStatusConsumer.VoteStatus",
        "numberOfBytes": "1"
      },
      "t_mapping(t_address,t_bool)": {
        "encoding": "mapping",
        "key": "t_address",
        "label": "mapping(address => bool)",
        "numberOfBytes": "32",
        "value": "t_bool"
      },
      "t_mapping(t_address,t_bytes32)": {
        "encoding": "mapping",
        "key": "t_address",
        "label": "mapping(address => bytes32)",
        "numberOfBytes": "32",
        "value": "t_bytes32"
      },
      "t_mapping(t_address,t_struct(Signature)10861_storage)": {
        "encoding": "mapping",
        "key": "t_address",
        "label": "mapping(address => struct SignatureConsumer.Signature)",
        "numberOfBytes": "32",
        "value": "t_struct(Signature)10861_storage"
      },
      "t_mapping(t_address,t_uint256)": {
        "encoding": "mapping",
        "key": "t_address",
        "label": "mapping(address => uint256)",
        "numberOfBytes": "32",
        "value": "t_uint256"
      },
      "t_mapping(t_bytes32,t_struct(IsolatedVote)7047_storage)": {
        "encoding": "mapping",
        "key": "t_bytes32",
        "label": "mapping(bytes32 => struct IsolatedGovernance.IsolatedVote)",
        "numberOfBytes": "32",
        "value": "t_struct(IsolatedVote)7047_storage"
      },
      "t_mapping(t_bytes32,t_uint256)": {
        "encoding": "mapping",
        "key": "t_bytes32",
        "label": "mapping(bytes32 => uint256)",
        "numberOfBytes": "32",
        "value": "t_uint256"
      },
      "t_mapping(t_uint256,t_mapping(t_address,t_struct(Signature)10861_storage))": {
        "encoding": "mapping",
        "key": "t_uint256",
        "label": "mapping(uint256 => mapping(address => struct SignatureConsumer.Signature))",
        "numberOfBytes": "32",
        "value": "t_mapping(t_address,t_struct(Signature)10861_storage)"
      },
      "t_mapping(t_uint256,t_mapping(t_uint256,t_mapping(t_address,t_struct(Signature)10861_storage)))": {
        "encoding": "mapping",
        "key": "t_uint256",
        "label": "mapping(uint256 => mapping(uint256 => mapping(address => struct SignatureConsumer.Signature)))",
        "numberOfBytes": "32",
        "value": "t_mapping(t_uint256,t_mapping(t_address,t_struct(Signature)10861_storage))"
      },
      "t_mapping(t_uint256,t_mapping(t_uint256,t_struct(IsolatedVote)7047_storage))": {
        "encoding": "mapping",
        "key": "t_uint256",
        "label": "mapping(uint256 => mapping(uint256 => struct IsolatedGovernance.IsolatedVote))",
        "numberOfBytes": "32",
        "value": "t_mapping(t_uint256,t_struct(IsolatedVote)7047_storage)"
      },
      "t_mapping(t_uint256,t_mapping(t_uint256,t_struct(ProposalVote)7706_storage))": {
        "encoding": "mapping",
        "key": "t_uint256",
        "label": "mapping(uint256 => mapping(uint256 => struct CoreGovernance.ProposalVote))",
        "numberOfBytes": "32",
        "value": "t_mapping(t_uint256,t_struct(ProposalVote)7706_storage)"
      },
      "t_mapping(t_uint256,t_struct(IsolatedVote)7047_storage)": {
        "encoding": "mapping",
        "key": "t_uint256",
        "label": "mapping(uint256 => struct IsolatedGovernance.IsolatedVote)",
        "numberOfBytes": "32",
        "value": "t_struct(IsolatedVote)7047_storage"
      },
      "t_mapping(t_uint256,t_struct(ProposalVote)7706_storage)": {
        "encoding": "mapping",
        "key": "t_uint256",
        "label": "mapping(uint256 => struct CoreGovernance.ProposalVote)",
        "numberOfBytes": "32",
        "value": "t_struct(ProposalVote)7706_storage"
      },
      "t_mapping(t_uint256,t_uint256)": {
        "encoding": "mapping",
        "key": "t_uint256",
        "label": "mapping(uint256 => uint256)",
        "numberOfBytes": "32",
        "value": "t_uint256"
      },
      "t_struct(BridgeOperatorSet)12653_storage": {
        "encoding": "inplace",
        "label": "struct BridgeOperatorsBallot.BridgeOperatorSet",
        "members": [
          {
            "astId": 12647,
            "contract": "contracts/ronin/RoninGovernanceAdmin.sol:RoninGovernanceAdmin",
            "label": "period",
            "offset": 0,
            "slot": "0",
            "type": "t_uint256"
          },
          {
            "astId": 12649,
            "contract": "contracts/ronin/RoninGovernanceAdmin.sol:RoninGovernanceAdmin",
            "label": "epoch",
            "offset": 0,
            "slot": "1",
            "type": "t_uint256"
          },
          {
            "astId": 12652,
            "contract": "contracts/ronin/RoninGovernanceAdmin.sol:RoninGovernanceAdmin",
            "label": "operators",
            "offset": 0,
            "slot": "2",
            "type": "t_array(t_address)dyn_storage"
          }
        ],
        "numberOfBytes": "96"
      },
      "t_struct(IsolatedVote)7047_storage": {
        "encoding": "inplace",
        "label": "struct IsolatedGovernance.IsolatedVote",
        "members": [
          {
            "astId": 7028,
            "contract": "contracts/ronin/RoninGovernanceAdmin.sol:RoninGovernanceAdmin",
            "label": "status",
            "offset": 0,
            "slot": "0",
            "type": "t_enum(VoteStatus)10870"
          },
          {
            "astId": 7030,
            "contract": "contracts/ronin/RoninGovernanceAdmin.sol:RoninGovernanceAdmin",
            "label": "finalHash",
            "offset": 0,
            "slot": "1",
            "type": "t_bytes32"
          },
          {
            "astId": 7035,
            "contract": "contracts/ronin/RoninGovernanceAdmin.sol:RoninGovernanceAdmin",
            "label": "voteHashOf",
            "offset": 0,
            "slot": "2",
            "type": "t_mapping(t_address,t_bytes32)"
          },
          {
            "astId": 7040,
            "contract": "contracts/ronin/RoninGovernanceAdmin.sol:RoninGovernanceAdmin",
            "label": "weight",
            "offset": 0,
            "slot": "3",
            "type": "t_mapping(t_bytes32,t_uint256)"
          },
          {
            "astId": 7043,
            "contract": "contracts/ronin/RoninGovernanceAdmin.sol:RoninGovernanceAdmin",
            "label": "expiredAt",
            "offset": 0,
            "slot": "4",
            "type": "t_uint256"
          },
          {
            "astId": 7046,
            "contract": "contracts/ronin/RoninGovernanceAdmin.sol:RoninGovernanceAdmin",
            "label": "createdAt",
            "offset": 0,
            "slot": "5",
            "type": "t_uint256"
          }
        ],
        "numberOfBytes": "192"
      },
      "t_struct(ProposalVote)7706_storage": {
        "encoding": "inplace",
        "label": "struct CoreGovernance.ProposalVote",
        "members": [
          {
            "astId": 7682,
            "contract": "contracts/ronin/RoninGovernanceAdmin.sol:RoninGovernanceAdmin",
            "label": "status",
            "offset": 0,
            "slot": "0",
            "type": "t_enum(VoteStatus)10870"
          },
          {
            "astId": 7684,
            "contract": "contracts/ronin/RoninGovernanceAdmin.sol:RoninGovernanceAdmin",
            "label": "hash",
            "offset": 0,
            "slot": "1",
            "type": "t_bytes32"
          },
          {
            "astId": 7686,
            "contract": "contracts/ronin/RoninGovernanceAdmin.sol:RoninGovernanceAdmin",
            "label": "againstVoteWeight",
            "offset": 0,
            "slot": "2",
            "type": "t_uint256"
          },
          {
            "astId": 7688,
            "contract": "contracts/ronin/RoninGovernanceAdmin.sol:RoninGovernanceAdmin",
            "label": "forVoteWeight",
            "offset": 0,
            "slot": "3",
            "type": "t_uint256"
          },
          {
            "astId": 7691,
            "contract": "contracts/ronin/RoninGovernanceAdmin.sol:RoninGovernanceAdmin",
            "label": "forVoteds",
            "offset": 0,
            "slot": "4",
            "type": "t_array(t_address)dyn_storage"
          },
          {
            "astId": 7694,
            "contract": "contracts/ronin/RoninGovernanceAdmin.sol:RoninGovernanceAdmin",
            "label": "againstVoteds",
            "offset": 0,
            "slot": "5",
            "type": "t_array(t_address)dyn_storage"
          },
          {
            "astId": 7696,
            "contract": "contracts/ronin/RoninGovernanceAdmin.sol:RoninGovernanceAdmin",
            "label": "expiryTimestamp",
            "offset": 0,
            "slot": "6",
            "type": "t_uint256"
          },
          {
            "astId": 7701,
            "contract": "contracts/ronin/RoninGovernanceAdmin.sol:RoninGovernanceAdmin",
            "label": "sig",
            "offset": 0,
            "slot": "7",
            "type": "t_mapping(t_address,t_struct(Signature)10861_storage)"
          },
          {
            "astId": 7705,
            "contract": "contracts/ronin/RoninGovernanceAdmin.sol:RoninGovernanceAdmin",
            "label": "voted",
            "offset": 0,
            "slot": "8",
            "type": "t_mapping(t_address,t_bool)"
          }
        ],
        "numberOfBytes": "288"
      },
      "t_struct(Signature)10861_storage": {
        "encoding": "inplace",
        "label": "struct SignatureConsumer.Signature",
        "members": [
          {
            "astId": 10856,
            "contract": "contracts/ronin/RoninGovernanceAdmin.sol:RoninGovernanceAdmin",
            "label": "v",
            "offset": 0,
            "slot": "0",
            "type": "t_uint8"
          },
          {
            "astId": 10858,
            "contract": "contracts/ronin/RoninGovernanceAdmin.sol:RoninGovernanceAdmin",
            "label": "r",
            "offset": 0,
            "slot": "1",
            "type": "t_bytes32"
          },
          {
            "astId": 10860,
            "contract": "contracts/ronin/RoninGovernanceAdmin.sol:RoninGovernanceAdmin",
            "label": "s",
            "offset": 0,
            "slot": "2",
            "type": "t_bytes32"
          }
        ],
        "numberOfBytes": "96"
      },
      "t_uint256": {
        "encoding": "inplace",
        "label": "uint256",
        "numberOfBytes": "32"
      },
      "t_uint8": {
        "encoding": "inplace",
        "label": "uint8",
        "numberOfBytes": "1"
      }
    }
  }
}