{
  "address": "0x06F4A12C7FF5a4db1b7f7847425Ff0FEE22a0E11",
  "abi": [
    {
      "inputs": [
        {
          "internalType": "address",
          "name": "voter",
          "type": "address"
        }
      ],
      "name": "ErrAlreadyVoted",
      "type": "error"
    },
    {
      "inputs": [
        {
          "internalType": "enum ContractType",
          "name": "contractType",
          "type": "uint8"
        }
      ],
      "name": "ErrContractTypeNotFound",
      "type": "error"
    },
    {
      "inputs": [],
      "name": "ErrERC20MintingFailed",
      "type": "error"
    },
    {
      "inputs": [],
      "name": "ErrERC721MintingFailed",
      "type": "error"
    },
    {
      "inputs": [],
      "name": "ErrEmptyArray",
      "type": "error"
    },
    {
      "inputs": [
        {
          "internalType": "bytes4",
          "name": "msgSig",
          "type": "bytes4"
        },
        {
          "internalType": "uint256",
          "name": "actual",
          "type": "uint256"
        },
        {
          "internalType": "uint256",
          "name": "expected",
          "type": "uint256"
        }
      ],
      "name": "ErrInvalidChainId",
      "type": "error"
    },
    {
      "inputs": [],
      "name": "ErrInvalidInfo",
      "type": "error"
    },
    {
      "inputs": [],
      "name": "ErrInvalidReceipt",
      "type": "error"
    },
    {
      "inputs": [],
      "name": "ErrInvalidReceiptKind",
      "type": "error"
    },
    {
      "inputs": [],
      "name": "ErrInvalidRequest",
      "type": "error"
    },
    {
      "inputs": [
        {
          "internalType": "bytes4",
          "name": "msgSig",
          "type": "bytes4"
        }
      ],
      "name": "ErrInvalidThreshold",
      "type": "error"
    },
    {
      "inputs": [],
      "name": "ErrInvalidTokenStandard",
      "type": "error"
    },
    {
      "inputs": [],
      "name": "ErrInvalidTrustedThreshold",
      "type": "error"
    },
    {
      "inputs": [
        {
          "internalType": "bytes4",
          "name": "msgSig",
          "type": "bytes4"
        }
      ],
      "name": "ErrLengthMismatch",
      "type": "error"
    },
    {
      "inputs": [],
      "name": "ErrQueryForTooSmallQuantity",
      "type": "error"
    },
    {
      "inputs": [
        {
          "components": [
            {
              "internalType": "enum Token.Standard",
              "name": "erc",
              "type": "uint8"
            },
            {
              "internalType": "uint256",
              "name": "id",
              "type": "uint256"
            },
            {
              "internalType": "uint256",
              "name": "quantity",
              "type": "uint256"
            }
          ],
          "internalType": "struct Token.Info",
          "name": "tokenInfo",
          "type": "tuple"
        },
        {
          "internalType": "address",
          "name": "to",
          "type": "address"
        },
        {
          "internalType": "address",
          "name": "token",
          "type": "address"
        }
      ],
      "name": "ErrTokenCouldNotTransfer",
      "type": "error"
    },
    {
      "inputs": [
        {
          "components": [
            {
              "internalType": "enum Token.Standard",
              "name": "erc",
              "type": "uint8"
            },
            {
              "internalType": "uint256",
              "name": "id",
              "type": "uint256"
            },
            {
              "internalType": "uint256",
              "name": "quantity",
              "type": "uint256"
            }
          ],
          "internalType": "struct Token.Info",
          "name": "tokenInfo",
          "type": "tuple"
        },
        {
          "internalType": "address",
          "name": "from",
          "type": "address"
        },
        {
          "internalType": "address",
          "name": "to",
          "type": "address"
        },
        {
          "internalType": "address",
          "name": "token",
          "type": "address"
        }
      ],
      "name": "ErrTokenCouldNotTransferFrom",
      "type": "error"
    },
    {
      "inputs": [
        {
          "internalType": "bytes4",
          "name": "msgSig",
          "type": "bytes4"
        },
        {
          "internalType": "enum RoleAccess",
          "name": "expectedRole",
          "type": "uint8"
        }
      ],
      "name": "ErrUnauthorized",
      "type": "error"
    },
    {
      "inputs": [],
      "name": "ErrUnsupportedStandard",
      "type": "error"
    },
    {
      "inputs": [],
      "name": "ErrUnsupportedToken",
      "type": "error"
    },
    {
      "inputs": [],
      "name": "ErrWithdrawalsMigrated",
      "type": "error"
    },
    {
      "inputs": [],
      "name": "ErrWithdrawnOnMainchainAlready",
      "type": "error"
    },
    {
      "inputs": [
        {
          "internalType": "address",
          "name": "addr",
          "type": "address"
        }
      ],
      "name": "ErrZeroCodeContract",
      "type": "error"
    },
    {
      "anonymous": false,
      "inputs": [
        {
          "indexed": true,
          "internalType": "enum ContractType",
          "name": "contractType",
          "type": "uint8"
        },
        {
          "indexed": true,
          "internalType": "address",
          "name": "addr",
          "type": "address"
        }
      ],
      "name": "ContractUpdated",
      "type": "event"
    },
    {
      "anonymous": false,
      "inputs": [
        {
          "indexed": true,
          "internalType": "address",
          "name": "bridgeOperator",
          "type": "address"
        },
        {
          "indexed": true,
          "internalType": "uint256",
          "name": "id",
          "type": "uint256"
        },
        {
          "indexed": true,
          "internalType": "uint256",
          "name": "chainId",
          "type": "uint256"
        },
        {
          "indexed": false,
          "internalType": "bytes32",
          "name": "receiptHash",
          "type": "bytes32"
        }
      ],
      "name": "DepositVoted",
      "type": "event"
    },
    {
      "anonymous": false,
      "inputs": [
        {
          "indexed": false,
          "internalType": "bytes32",
          "name": "receiptHash",
          "type": "bytes32"
        },
        {
          "components": [
            {
              "internalType": "uint256",
              "name": "id",
              "type": "uint256"
            },
            {
              "internalType": "enum Transfer.Kind",
              "name": "kind",
              "type": "uint8"
            },
            {
              "components": [
                {
                  "internalType": "address",
                  "name": "addr",
                  "type": "address"
                },
                {
                  "internalType": "address",
                  "name": "tokenAddr",
                  "type": "address"
                },
                {
                  "internalType": "uint256",
                  "name": "chainId",
                  "type": "uint256"
                }
              ],
              "internalType": "struct Token.Owner",
              "name": "mainchain",
              "type": "tuple"
            },
            {
              "components": [
                {
                  "internalType": "address",
                  "name": "addr",
                  "type": "address"
                },
                {
                  "internalType": "address",
                  "name": "tokenAddr",
                  "type": "address"
                },
                {
                  "internalType": "uint256",
                  "name": "chainId",
                  "type": "uint256"
                }
              ],
              "internalType": "struct Token.Owner",
              "name": "ronin",
              "type": "tuple"
            },
            {
              "components": [
                {
                  "internalType": "enum Token.Standard",
                  "name": "erc",
                  "type": "uint8"
                },
                {
                  "internalType": "uint256",
                  "name": "id",
                  "type": "uint256"
                },
                {
                  "internalType": "uint256",
                  "name": "quantity",
                  "type": "uint256"
                }
              ],
              "internalType": "struct Token.Info",
              "name": "info",
              "type": "tuple"
            }
          ],
          "indexed": false,
          "internalType": "struct Transfer.Receipt",
          "name": "receipt",
          "type": "tuple"
        }
      ],
      "name": "Deposited",
      "type": "event"
    },
    {
      "anonymous": false,
      "inputs": [
        {
          "indexed": false,
          "internalType": "uint8",
          "name": "version",
          "type": "uint8"
        }
      ],
      "name": "Initialized",
      "type": "event"
    },
    {
      "anonymous": false,
      "inputs": [
        {
          "indexed": false,
          "internalType": "bytes32",
          "name": "receiptHash",
          "type": "bytes32"
        },
        {
          "components": [
            {
              "internalType": "uint256",
              "name": "id",
              "type": "uint256"
            },
            {
              "internalType": "enum Transfer.Kind",
              "name": "kind",
              "type": "uint8"
            },
            {
              "components": [
                {
                  "internalType": "address",
                  "name": "addr",
                  "type": "address"
                },
                {
                  "internalType": "address",
                  "name": "tokenAddr",
                  "type": "address"
                },
                {
                  "internalType": "uint256",
                  "name": "chainId",
                  "type": "uint256"
                }
              ],
              "internalType": "struct Token.Owner",
              "name": "mainchain",
              "type": "tuple"
            },
            {
              "components": [
                {
                  "internalType": "address",
                  "name": "addr",
                  "type": "address"
                },
                {
                  "internalType": "address",
                  "name": "tokenAddr",
                  "type": "address"
                },
                {
                  "internalType": "uint256",
                  "name": "chainId",
                  "type": "uint256"
                }
              ],
              "internalType": "struct Token.Owner",
              "name": "ronin",
              "type": "tuple"
            },
            {
              "components": [
                {
                  "internalType": "enum Token.Standard",
                  "name": "erc",
                  "type": "uint8"
                },
                {
                  "internalType": "uint256",
                  "name": "id",
                  "type": "uint256"
                },
                {
                  "internalType": "uint256",
                  "name": "quantity",
                  "type": "uint256"
                }
              ],
              "internalType": "struct Token.Info",
              "name": "info",
              "type": "tuple"
            }
          ],
          "indexed": false,
          "internalType": "struct Transfer.Receipt",
          "name": "receipt",
          "type": "tuple"
        }
      ],
      "name": "MainchainWithdrew",
      "type": "event"
    },
    {
      "anonymous": false,
      "inputs": [
        {
          "indexed": false,
          "internalType": "address[]",
          "name": "tokens",
          "type": "address[]"
        },
        {
          "indexed": false,
          "internalType": "uint256[]",
          "name": "threshold",
          "type": "uint256[]"
        }
      ],
      "name": "MinimumThresholdsUpdated",
      "type": "event"
    },
    {
      "anonymous": false,
      "inputs": [
        {
          "indexed": false,
          "internalType": "address",
          "name": "account",
          "type": "address"
        }
      ],
      "name": "Paused",
      "type": "event"
    },
    {
      "anonymous": false,
      "inputs": [
        {
          "indexed": true,
          "internalType": "bytes32",
          "name": "role",
          "type": "bytes32"
        },
        {
          "indexed": true,
          "internalType": "bytes32",
          "name": "previousAdminRole",
          "type": "bytes32"
        },
        {
          "indexed": true,
          "internalType": "bytes32",
          "name": "newAdminRole",
          "type": "bytes32"
        }
      ],
      "name": "RoleAdminChanged",
      "type": "event"
    },
    {
      "anonymous": false,
      "inputs": [
        {
          "indexed": true,
          "internalType": "bytes32",
          "name": "role",
          "type": "bytes32"
        },
        {
          "indexed": true,
          "internalType": "address",
          "name": "account",
          "type": "address"
        },
        {
          "indexed": true,
          "internalType": "address",
          "name": "sender",
          "type": "address"
        }
      ],
      "name": "RoleGranted",
      "type": "event"
    },
    {
      "anonymous": false,
      "inputs": [
        {
          "indexed": true,
          "internalType": "bytes32",
          "name": "role",
          "type": "bytes32"
        },
        {
          "indexed": true,
          "internalType": "address",
          "name": "account",
          "type": "address"
        },
        {
          "indexed": true,
          "internalType": "address",
          "name": "sender",
          "type": "address"
        }
      ],
      "name": "RoleRevoked",
      "type": "event"
    },
    {
      "anonymous": false,
      "inputs": [
        {
          "indexed": true,
          "internalType": "uint256",
          "name": "nonce",
          "type": "uint256"
        },
        {
          "indexed": true,
          "internalType": "uint256",
          "name": "numerator",
          "type": "uint256"
        },
        {
          "indexed": true,
          "internalType": "uint256",
          "name": "denominator",
          "type": "uint256"
        },
        {
          "indexed": false,
          "internalType": "uint256",
          "name": "previousNumerator",
          "type": "uint256"
        },
        {
          "indexed": false,
          "internalType": "uint256",
          "name": "previousDenominator",
          "type": "uint256"
        }
      ],
      "name": "ThresholdUpdated",
      "type": "event"
    },
    {
      "anonymous": false,
      "inputs": [
        {
          "indexed": false,
          "internalType": "address[]",
          "name": "roninTokens",
          "type": "address[]"
        },
        {
          "indexed": false,
          "internalType": "address[]",
          "name": "mainchainTokens",
          "type": "address[]"
        },
        {
          "indexed": false,
          "internalType": "uint256[]",
          "name": "chainIds",
          "type": "uint256[]"
        },
        {
          "indexed": false,
          "internalType": "enum Token.Standard[]",
          "name": "standards",
          "type": "uint8[]"
        }
      ],
      "name": "TokenMapped",
      "type": "event"
    },
    {
      "anonymous": false,
      "inputs": [
        {
          "indexed": true,
          "internalType": "uint256",
          "name": "nonce",
          "type": "uint256"
        },
        {
          "indexed": true,
          "internalType": "uint256",
          "name": "numerator",
          "type": "uint256"
        },
        {
          "indexed": true,
          "internalType": "uint256",
          "name": "denominator",
          "type": "uint256"
        },
        {
          "indexed": false,
          "internalType": "uint256",
          "name": "previousNumerator",
          "type": "uint256"
        },
        {
          "indexed": false,
          "internalType": "uint256",
          "name": "previousDenominator",
          "type": "uint256"
        }
      ],
      "name": "TrustedThresholdUpdated",
      "type": "event"
    },
    {
      "anonymous": false,
      "inputs": [
        {
          "indexed": false,
          "internalType": "address",
          "name": "account",
          "type": "address"
        }
      ],
      "name": "Unpaused",
      "type": "event"
    },
    {
      "anonymous": false,
      "inputs": [
        {
          "indexed": false,
          "internalType": "bytes32",
          "name": "receiptHash",
          "type": "bytes32"
        },
        {
          "components": [
            {
              "internalType": "uint256",
              "name": "id",
              "type": "uint256"
            },
            {
              "internalType": "enum Transfer.Kind",
              "name": "kind",
              "type": "uint8"
            },
            {
              "components": [
                {
                  "internalType": "address",
                  "name": "addr",
                  "type": "address"
                },
                {
                  "internalType": "address",
                  "name": "tokenAddr",
                  "type": "address"
                },
                {
                  "internalType": "uint256",
                  "name": "chainId",
                  "type": "uint256"
                }
              ],
              "internalType": "struct Token.Owner",
              "name": "mainchain",
              "type": "tuple"
            },
            {
              "components": [
                {
                  "internalType": "address",
                  "name": "addr",
                  "type": "address"
                },
                {
                  "internalType": "address",
                  "name": "tokenAddr",
                  "type": "address"
                },
                {
                  "internalType": "uint256",
                  "name": "chainId",
                  "type": "uint256"
                }
              ],
              "internalType": "struct Token.Owner",
              "name": "ronin",
              "type": "tuple"
            },
            {
              "components": [
                {
                  "internalType": "enum Token.Standard",
                  "name": "erc",
                  "type": "uint8"
                },
                {
                  "internalType": "uint256",
                  "name": "id",
                  "type": "uint256"
                },
                {
                  "internalType": "uint256",
                  "name": "quantity",
                  "type": "uint256"
                }
              ],
              "internalType": "struct Token.Info",
              "name": "info",
              "type": "tuple"
            }
          ],
          "indexed": false,
          "internalType": "struct Transfer.Receipt",
          "name": "",
          "type": "tuple"
        }
      ],
      "name": "WithdrawalRequested",
      "type": "event"
    },
    {
      "anonymous": false,
      "inputs": [
        {
          "indexed": false,
          "internalType": "bytes32",
          "name": "receiptHash",
          "type": "bytes32"
        },
        {
          "components": [
            {
              "internalType": "uint256",
              "name": "id",
              "type": "uint256"
            },
            {
              "internalType": "enum Transfer.Kind",
              "name": "kind",
              "type": "uint8"
            },
            {
              "components": [
                {
                  "internalType": "address",
                  "name": "addr",
                  "type": "address"
                },
                {
                  "internalType": "address",
                  "name": "tokenAddr",
                  "type": "address"
                },
                {
                  "internalType": "uint256",
                  "name": "chainId",
                  "type": "uint256"
                }
              ],
              "internalType": "struct Token.Owner",
              "name": "mainchain",
              "type": "tuple"
            },
            {
              "components": [
                {
                  "internalType": "address",
                  "name": "addr",
                  "type": "address"
                },
                {
                  "internalType": "address",
                  "name": "tokenAddr",
                  "type": "address"
                },
                {
                  "internalType": "uint256",
                  "name": "chainId",
                  "type": "uint256"
                }
              ],
              "internalType": "struct Token.Owner",
              "name": "ronin",
              "type": "tuple"
            },
            {
              "components": [
                {
                  "internalType": "enum Token.Standard",
                  "name": "erc",
                  "type": "uint8"
                },
                {
                  "internalType": "uint256",
                  "name": "id",
                  "type": "uint256"
                },
                {
                  "internalType": "uint256",
                  "name": "quantity",
                  "type": "uint256"
                }
              ],
              "internalType": "struct Token.Info",
              "name": "info",
              "type": "tuple"
            }
          ],
          "indexed": false,
          "internalType": "struct Transfer.Receipt",
          "name": "",
          "type": "tuple"
        }
      ],
      "name": "WithdrawalSignaturesRequested",
      "type": "event"
    },
    {
      "stateMutability": "payable",
      "type": "fallback"
    },
    {
      "inputs": [],
      "name": "DEFAULT_ADMIN_ROLE",
      "outputs": [
        {
          "internalType": "bytes32",
          "name": "",
          "type": "bytes32"
        }
      ],
      "stateMutability": "view",
      "type": "function"
    },
    {
      "inputs": [],
      "name": "WITHDRAWAL_MIGRATOR",
      "outputs": [
        {
          "internalType": "bytes32",
          "name": "",
          "type": "bytes32"
        }
      ],
      "stateMutability": "view",
      "type": "function"
    },
    {
      "inputs": [
        {
          "components": [
            {
              "internalType": "address",
              "name": "recipientAddr",
              "type": "address"
            },
            {
              "internalType": "address",
              "name": "tokenAddr",
              "type": "address"
            },
            {
              "components": [
                {
                  "internalType": "enum Token.Standard",
                  "name": "erc",
                  "type": "uint8"
                },
                {
                  "internalType": "uint256",
                  "name": "id",
                  "type": "uint256"
                },
                {
                  "internalType": "uint256",
                  "name": "quantity",
                  "type": "uint256"
                }
              ],
              "internalType": "struct Token.Info",
              "name": "info",
              "type": "tuple"
            }
          ],
          "internalType": "struct Transfer.Request[]",
          "name": "_requests",
          "type": "tuple[]"
        },
        {
          "internalType": "uint256",
          "name": "_chainId",
          "type": "uint256"
        }
      ],
      "name": "bulkRequestWithdrawalFor",
      "outputs": [],
      "stateMutability": "nonpayable",
      "type": "function"
    },
    {
      "inputs": [
        {
          "internalType": "uint256[]",
          "name": "_withdrawals",
          "type": "uint256[]"
        },
        {
          "internalType": "bytes[]",
          "name": "_signatures",
          "type": "bytes[]"
        }
      ],
      "name": "bulkSubmitWithdrawalSignatures",
      "outputs": [],
      "stateMutability": "nonpayable",
      "type": "function"
    },
    {
      "inputs": [
        {
          "internalType": "uint256",
          "name": "_voteWeight",
          "type": "uint256"
        }
      ],
      "name": "checkThreshold",
      "outputs": [
        {
          "internalType": "bool",
          "name": "",
          "type": "bool"
        }
      ],
      "stateMutability": "view",
      "type": "function"
    },
    {
      "inputs": [
        {
          "components": [
            {
              "internalType": "uint256",
              "name": "id",
              "type": "uint256"
            },
            {
              "internalType": "enum Transfer.Kind",
              "name": "kind",
              "type": "uint8"
            },
            {
              "components": [
                {
                  "internalType": "address",
                  "name": "addr",
                  "type": "address"
                },
                {
                  "internalType": "address",
                  "name": "tokenAddr",
                  "type": "address"
                },
                {
                  "internalType": "uint256",
                  "name": "chainId",
                  "type": "uint256"
                }
              ],
              "internalType": "struct Token.Owner",
              "name": "mainchain",
              "type": "tuple"
            },
            {
              "components": [
                {
                  "internalType": "address",
                  "name": "addr",
                  "type": "address"
                },
                {
                  "internalType": "address",
                  "name": "tokenAddr",
                  "type": "address"
                },
                {
                  "internalType": "uint256",
                  "name": "chainId",
                  "type": "uint256"
                }
              ],
              "internalType": "struct Token.Owner",
              "name": "ronin",
              "type": "tuple"
            },
            {
              "components": [
                {
                  "internalType": "enum Token.Standard",
                  "name": "erc",
                  "type": "uint8"
                },
                {
                  "internalType": "uint256",
                  "name": "id",
                  "type": "uint256"
                },
                {
                  "internalType": "uint256",
                  "name": "quantity",
                  "type": "uint256"
                }
              ],
              "internalType": "struct Token.Info",
              "name": "info",
              "type": "tuple"
            }
          ],
          "internalType": "struct Transfer.Receipt",
          "name": "_receipt",
          "type": "tuple"
        }
      ],
      "name": "depositFor",
      "outputs": [],
      "stateMutability": "nonpayable",
      "type": "function"
    },
    {
      "inputs": [
        {
          "internalType": "uint256",
          "name": "",
          "type": "uint256"
        },
        {
          "internalType": "uint256",
          "name": "",
          "type": "uint256"
        }
      ],
      "name": "depositVote",
      "outputs": [
        {
          "internalType": "enum VoteStatusConsumer.VoteStatus",
          "name": "status",
          "type": "uint8"
        },
        {
          "internalType": "bytes32",
          "name": "finalHash",
          "type": "bytes32"
        },
        {
          "internalType": "uint256",
          "name": "expiredAt",
          "type": "uint256"
        },
        {
          "internalType": "uint256",
          "name": "createdAt",
          "type": "uint256"
        }
      ],
      "stateMutability": "view",
      "type": "function"
    },
    {
      "inputs": [
        {
          "internalType": "uint256",
          "name": "_chainId",
          "type": "uint256"
        },
        {
          "internalType": "uint256",
          "name": "_depositId",
          "type": "uint256"
        },
        {
          "internalType": "address",
          "name": "_voter",
          "type": "address"
        }
      ],
      "name": "depositVoted",
      "outputs": [
        {
          "internalType": "bool",
          "name": "",
          "type": "bool"
        }
      ],
      "stateMutability": "view",
      "type": "function"
    },
    {
      "inputs": [],
      "name": "emergencyPauser",
      "outputs": [
        {
          "internalType": "address",
          "name": "",
          "type": "address"
        }
      ],
      "stateMutability": "view",
      "type": "function"
    },
    {
      "inputs": [
        {
          "internalType": "enum ContractType",
          "name": "contractType",
          "type": "uint8"
        }
      ],
      "name": "getContract",
      "outputs": [
        {
          "internalType": "address",
          "name": "contract_",
          "type": "address"
        }
      ],
      "stateMutability": "view",
      "type": "function"
    },
    {
      "inputs": [
        {
          "internalType": "address",
          "name": "_roninToken",
          "type": "address"
        },
        {
          "internalType": "uint256",
          "name": "_chainId",
          "type": "uint256"
        }
      ],
      "name": "getMainchainToken",
      "outputs": [
        {
          "components": [
            {
              "internalType": "enum Token.Standard",
              "name": "erc",
              "type": "uint8"
            },
            {
              "internalType": "address",
              "name": "tokenAddr",
              "type": "address"
            }
          ],
          "internalType": "struct MappedTokenConsumer.MappedToken",
          "name": "_token",
          "type": "tuple"
        }
      ],
      "stateMutability": "view",
      "type": "function"
    },
    {
      "inputs": [
        {
          "internalType": "bytes32",
          "name": "role",
          "type": "bytes32"
        }
      ],
      "name": "getRoleAdmin",
      "outputs": [
        {
          "internalType": "bytes32",
          "name": "",
          "type": "bytes32"
        }
      ],
      "stateMutability": "view",
      "type": "function"
    },
    {
      "inputs": [
        {
          "internalType": "bytes32",
          "name": "role",
          "type": "bytes32"
        },
        {
          "internalType": "uint256",
          "name": "index",
          "type": "uint256"
        }
      ],
      "name": "getRoleMember",
      "outputs": [
        {
          "internalType": "address",
          "name": "",
          "type": "address"
        }
      ],
      "stateMutability": "view",
      "type": "function"
    },
    {
      "inputs": [
        {
          "internalType": "bytes32",
          "name": "role",
          "type": "bytes32"
        }
      ],
      "name": "getRoleMemberCount",
      "outputs": [
        {
          "internalType": "uint256",
          "name": "",
          "type": "uint256"
        }
      ],
      "stateMutability": "view",
      "type": "function"
    },
    {
      "inputs": [],
      "name": "getThreshold",
      "outputs": [
        {
          "internalType": "uint256",
          "name": "num_",
          "type": "uint256"
        },
        {
          "internalType": "uint256",
          "name": "denom_",
          "type": "uint256"
        }
      ],
      "stateMutability": "view",
      "type": "function"
    },
    {
      "inputs": [],
      "name": "getTrustedThreshold",
      "outputs": [
        {
          "internalType": "uint256",
          "name": "trustedNum_",
          "type": "uint256"
        },
        {
          "internalType": "uint256",
          "name": "trustedDenom_",
          "type": "uint256"
        }
      ],
      "stateMutability": "view",
      "type": "function"
    },
    {
      "inputs": [
        {
          "internalType": "uint256",
          "name": "_withdrawalId",
          "type": "uint256"
        },
        {
          "internalType": "address[]",
          "name": "_validators",
          "type": "address[]"
        }
      ],
      "name": "getWithdrawalSignatures",
      "outputs": [
        {
          "internalType": "bytes[]",
          "name": "_signatures",
          "type": "bytes[]"
        }
      ],
      "stateMutability": "view",
      "type": "function"
    },
    {
      "inputs": [
        {
          "internalType": "bytes32",
          "name": "role",
          "type": "bytes32"
        },
        {
          "internalType": "address",
          "name": "account",
          "type": "address"
        }
      ],
      "name": "grantRole",
      "outputs": [],
      "stateMutability": "nonpayable",
      "type": "function"
    },
    {
      "inputs": [
        {
          "internalType": "bytes32",
          "name": "role",
          "type": "bytes32"
        },
        {
          "internalType": "address",
          "name": "account",
          "type": "address"
        }
      ],
      "name": "hasRole",
      "outputs": [
        {
          "internalType": "bool",
          "name": "",
          "type": "bool"
        }
      ],
      "stateMutability": "view",
      "type": "function"
    },
    {
      "inputs": [
        {
          "internalType": "address",
          "name": "_roleSetter",
          "type": "address"
        },
        {
          "internalType": "uint256",
          "name": "_numerator",
          "type": "uint256"
        },
        {
          "internalType": "uint256",
          "name": "_denominator",
          "type": "uint256"
        },
        {
          "internalType": "uint256",
          "name": "_trustedNumerator",
          "type": "uint256"
        },
        {
          "internalType": "uint256",
          "name": "_trustedDenominator",
          "type": "uint256"
        },
        {
          "internalType": "address[]",
          "name": "_withdrawalMigrators",
          "type": "address[]"
        },
        {
          "internalType": "address[][2]",
          "name": "_packedAddresses",
          "type": "address[][2]"
        },
        {
          "internalType": "uint256[][2]",
          "name": "_packedNumbers",
          "type": "uint256[][2]"
        },
        {
          "internalType": "enum Token.Standard[]",
          "name": "_standards",
          "type": "uint8[]"
        }
      ],
      "name": "initialize",
      "outputs": [],
      "stateMutability": "nonpayable",
      "type": "function"
    },
    {
      "inputs": [],
      "name": "initializeV2",
      "outputs": [],
      "stateMutability": "nonpayable",
      "type": "function"
    },
    {
      "inputs": [
        {
          "internalType": "address",
          "name": "bridgeAdmin",
          "type": "address"
        }
      ],
      "name": "initializeV3",
      "outputs": [],
      "stateMutability": "nonpayable",
      "type": "function"
    },
    {
      "inputs": [
        {
          "internalType": "uint256",
          "name": "_withdrawalId",
          "type": "uint256"
        }
      ],
      "name": "mainchainWithdrew",
      "outputs": [
        {
          "internalType": "bool",
          "name": "",
          "type": "bool"
        }
      ],
      "stateMutability": "view",
      "type": "function"
    },
    {
      "inputs": [
        {
          "internalType": "uint256",
          "name": "",
          "type": "uint256"
        }
      ],
      "name": "mainchainWithdrewVote",
      "outputs": [
        {
          "internalType": "enum VoteStatusConsumer.VoteStatus",
          "name": "status",
          "type": "uint8"
        },
        {
          "internalType": "bytes32",
          "name": "finalHash",
          "type": "bytes32"
        },
        {
          "internalType": "uint256",
          "name": "expiredAt",
          "type": "uint256"
        },
        {
          "internalType": "uint256",
          "name": "createdAt",
          "type": "uint256"
        }
      ],
      "stateMutability": "view",
      "type": "function"
    },
    {
      "inputs": [
        {
          "internalType": "uint256",
          "name": "_withdrawalId",
          "type": "uint256"
        },
        {
          "internalType": "address",
          "name": "_voter",
          "type": "address"
        }
      ],
      "name": "mainchainWithdrewVoted",
      "outputs": [
        {
          "internalType": "bool",
          "name": "",
          "type": "bool"
        }
      ],
      "stateMutability": "view",
      "type": "function"
    },
    {
      "inputs": [
        {
          "internalType": "address[]",
          "name": "_roninTokens",
          "type": "address[]"
        },
        {
          "internalType": "address[]",
          "name": "_mainchainTokens",
          "type": "address[]"
        },
        {
          "internalType": "uint256[]",
          "name": "_chainIds",
          "type": "uint256[]"
        },
        {
          "internalType": "enum Token.Standard[]",
          "name": "_standards",
          "type": "uint8[]"
        }
      ],
      "name": "mapTokens",
      "outputs": [],
      "stateMutability": "nonpayable",
      "type": "function"
    },
    {
      "inputs": [],
      "name": "markWithdrawalMigrated",
      "outputs": [],
      "stateMutability": "nonpayable",
      "type": "function"
    },
    {
      "inputs": [
        {
          "components": [
            {
              "internalType": "address",
              "name": "recipientAddr",
              "type": "address"
            },
            {
              "internalType": "address",
              "name": "tokenAddr",
              "type": "address"
            },
            {
              "components": [
                {
                  "internalType": "enum Token.Standard",
                  "name": "erc",
                  "type": "uint8"
                },
                {
                  "internalType": "uint256",
                  "name": "id",
                  "type": "uint256"
                },
                {
                  "internalType": "uint256",
                  "name": "quantity",
                  "type": "uint256"
                }
              ],
              "internalType": "struct Token.Info",
              "name": "info",
              "type": "tuple"
            }
          ],
          "internalType": "struct Transfer.Request[]",
          "name": "_requests",
          "type": "tuple[]"
        },
        {
          "internalType": "address[]",
          "name": "_requesters",
          "type": "address[]"
        }
      ],
      "name": "migrateWithdrawals",
      "outputs": [],
      "stateMutability": "nonpayable",
      "type": "function"
    },
    {
      "inputs": [
        {
          "internalType": "address",
          "name": "",
          "type": "address"
        }
      ],
      "name": "minimumThreshold",
      "outputs": [
        {
          "internalType": "uint256",
          "name": "",
          "type": "uint256"
        }
      ],
      "stateMutability": "view",
      "type": "function"
    },
    {
      "inputs": [],
      "name": "minimumVoteWeight",
      "outputs": [
        {
          "internalType": "uint256",
          "name": "",
          "type": "uint256"
        }
      ],
      "stateMutability": "view",
      "type": "function"
    },
    {
      "inputs": [],
      "name": "nonce",
      "outputs": [
        {
          "internalType": "uint256",
          "name": "",
          "type": "uint256"
        }
      ],
      "stateMutability": "view",
      "type": "function"
    },
    {
      "inputs": [],
      "name": "pause",
      "outputs": [],
      "stateMutability": "nonpayable",
      "type": "function"
    },
    {
      "inputs": [],
      "name": "paused",
      "outputs": [
        {
          "internalType": "bool",
          "name": "",
          "type": "bool"
        }
      ],
      "stateMutability": "view",
      "type": "function"
    },
    {
      "inputs": [
        {
          "internalType": "bytes32",
          "name": "role",
          "type": "bytes32"
        },
        {
          "internalType": "address",
          "name": "account",
          "type": "address"
        }
      ],
      "name": "renounceRole",
      "outputs": [],
      "stateMutability": "nonpayable",
      "type": "function"
    },
    {
      "inputs": [
        {
          "components": [
            {
              "internalType": "address",
              "name": "recipientAddr",
              "type": "address"
            },
            {
              "internalType": "address",
              "name": "tokenAddr",
              "type": "address"
            },
            {
              "components": [
                {
                  "internalType": "enum Token.Standard",
                  "name": "erc",
                  "type": "uint8"
                },
                {
                  "internalType": "uint256",
                  "name": "id",
                  "type": "uint256"
                },
                {
                  "internalType": "uint256",
                  "name": "quantity",
                  "type": "uint256"
                }
              ],
              "internalType": "struct Token.Info",
              "name": "info",
              "type": "tuple"
            }
          ],
          "internalType": "struct Transfer.Request",
          "name": "_request",
          "type": "tuple"
        },
        {
          "internalType": "uint256",
          "name": "_chainId",
          "type": "uint256"
        }
      ],
      "name": "requestWithdrawalFor",
      "outputs": [],
      "stateMutability": "nonpayable",
      "type": "function"
    },
    {
      "inputs": [
        {
          "internalType": "uint256",
          "name": "_withdrawalId",
          "type": "uint256"
        }
      ],
      "name": "requestWithdrawalSignatures",
      "outputs": [],
      "stateMutability": "nonpayable",
      "type": "function"
    },
    {
      "inputs": [
        {
          "internalType": "bytes32",
          "name": "role",
          "type": "bytes32"
        },
        {
          "internalType": "address",
          "name": "account",
          "type": "address"
        }
      ],
      "name": "revokeRole",
      "outputs": [],
      "stateMutability": "nonpayable",
      "type": "function"
    },
    {
      "inputs": [
        {
          "internalType": "enum ContractType",
          "name": "contractType",
          "type": "uint8"
        },
        {
          "internalType": "address",
          "name": "addr",
          "type": "address"
        }
      ],
      "name": "setContract",
      "outputs": [],
      "stateMutability": "nonpayable",
      "type": "function"
    },
    {
      "inputs": [
        {
          "internalType": "address",
          "name": "_addr",
          "type": "address"
        }
      ],
      "name": "setEmergencyPauser",
      "outputs": [],
      "stateMutability": "nonpayable",
      "type": "function"
    },
    {
      "inputs": [
        {
          "internalType": "address[]",
          "name": "_tokens",
          "type": "address[]"
        },
        {
          "internalType": "uint256[]",
          "name": "_thresholds",
          "type": "uint256[]"
        }
      ],
      "name": "setMinimumThresholds",
      "outputs": [],
      "stateMutability": "nonpayable",
      "type": "function"
    },
    {
      "inputs": [
        {
          "internalType": "uint256",
          "name": "_numerator",
          "type": "uint256"
        },
        {
          "internalType": "uint256",
          "name": "_denominator",
          "type": "uint256"
        }
      ],
      "name": "setThreshold",
      "outputs": [
        {
          "internalType": "uint256",
          "name": "",
          "type": "uint256"
        },
        {
          "internalType": "uint256",
          "name": "",
          "type": "uint256"
        }
      ],
      "stateMutability": "nonpayable",
      "type": "function"
    },
    {
      "inputs": [
        {
          "internalType": "uint256",
          "name": "_trustedNumerator",
          "type": "uint256"
        },
        {
          "internalType": "uint256",
          "name": "_trustedDenominator",
          "type": "uint256"
        }
      ],
      "name": "setTrustedThreshold",
      "outputs": [
        {
          "internalType": "uint256",
          "name": "",
          "type": "uint256"
        },
        {
          "internalType": "uint256",
          "name": "",
          "type": "uint256"
        }
      ],
      "stateMutability": "nonpayable",
      "type": "function"
    },
    {
      "inputs": [
        {
          "internalType": "bytes4",
          "name": "interfaceId",
          "type": "bytes4"
        }
      ],
      "name": "supportsInterface",
      "outputs": [
        {
          "internalType": "bool",
          "name": "",
          "type": "bool"
        }
      ],
      "stateMutability": "view",
      "type": "function"
    },
    {
      "inputs": [
        {
          "internalType": "uint256[]",
          "name": "_withdrawalIds",
          "type": "uint256[]"
        }
      ],
      "name": "tryBulkAcknowledgeMainchainWithdrew",
      "outputs": [
        {
          "internalType": "bool[]",
          "name": "_executedReceipts",
          "type": "bool[]"
        }
      ],
      "stateMutability": "nonpayable",
      "type": "function"
    },
    {
      "inputs": [
        {
          "components": [
            {
              "internalType": "uint256",
              "name": "id",
              "type": "uint256"
            },
            {
              "internalType": "enum Transfer.Kind",
              "name": "kind",
              "type": "uint8"
            },
            {
              "components": [
                {
                  "internalType": "address",
                  "name": "addr",
                  "type": "address"
                },
                {
                  "internalType": "address",
                  "name": "tokenAddr",
                  "type": "address"
                },
                {
                  "internalType": "uint256",
                  "name": "chainId",
                  "type": "uint256"
                }
              ],
              "internalType": "struct Token.Owner",
              "name": "mainchain",
              "type": "tuple"
            },
            {
              "components": [
                {
                  "internalType": "address",
                  "name": "addr",
                  "type": "address"
                },
                {
                  "internalType": "address",
                  "name": "tokenAddr",
                  "type": "address"
                },
                {
                  "internalType": "uint256",
                  "name": "chainId",
                  "type": "uint256"
                }
              ],
              "internalType": "struct Token.Owner",
              "name": "ronin",
              "type": "tuple"
            },
            {
              "components": [
                {
                  "internalType": "enum Token.Standard",
                  "name": "erc",
                  "type": "uint8"
                },
                {
                  "internalType": "uint256",
                  "name": "id",
                  "type": "uint256"
                },
                {
                  "internalType": "uint256",
                  "name": "quantity",
                  "type": "uint256"
                }
              ],
              "internalType": "struct Token.Info",
              "name": "info",
              "type": "tuple"
            }
          ],
          "internalType": "struct Transfer.Receipt[]",
          "name": "_receipts",
          "type": "tuple[]"
        }
      ],
      "name": "tryBulkDepositFor",
      "outputs": [
        {
          "internalType": "bool[]",
          "name": "_executedReceipts",
          "type": "bool[]"
        }
      ],
      "stateMutability": "nonpayable",
      "type": "function"
    },
    {
      "inputs": [],
      "name": "unpause",
      "outputs": [],
      "stateMutability": "nonpayable",
      "type": "function"
    },
    {
      "inputs": [
        {
          "internalType": "uint256",
          "name": "",
          "type": "uint256"
        }
      ],
      "name": "withdrawal",
      "outputs": [
        {
          "internalType": "uint256",
          "name": "id",
          "type": "uint256"
        },
        {
          "internalType": "enum Transfer.Kind",
          "name": "kind",
          "type": "uint8"
        },
        {
          "components": [
            {
              "internalType": "address",
              "name": "addr",
              "type": "address"
            },
            {
              "internalType": "address",
              "name": "tokenAddr",
              "type": "address"
            },
            {
              "internalType": "uint256",
              "name": "chainId",
              "type": "uint256"
            }
          ],
          "internalType": "struct Token.Owner",
          "name": "mainchain",
          "type": "tuple"
        },
        {
          "components": [
            {
              "internalType": "address",
              "name": "addr",
              "type": "address"
            },
            {
              "internalType": "address",
              "name": "tokenAddr",
              "type": "address"
            },
            {
              "internalType": "uint256",
              "name": "chainId",
              "type": "uint256"
            }
          ],
          "internalType": "struct Token.Owner",
          "name": "ronin",
          "type": "tuple"
        },
        {
          "components": [
            {
              "internalType": "enum Token.Standard",
              "name": "erc",
              "type": "uint8"
            },
            {
              "internalType": "uint256",
              "name": "id",
              "type": "uint256"
            },
            {
              "internalType": "uint256",
              "name": "quantity",
              "type": "uint256"
            }
          ],
          "internalType": "struct Token.Info",
          "name": "info",
          "type": "tuple"
        }
      ],
      "stateMutability": "view",
      "type": "function"
    },
    {
      "inputs": [],
      "name": "withdrawalCount",
      "outputs": [
        {
          "internalType": "uint256",
          "name": "",
          "type": "uint256"
        }
      ],
      "stateMutability": "view",
      "type": "function"
    },
    {
      "inputs": [],
      "name": "withdrawalMigrated",
      "outputs": [
        {
          "internalType": "bool",
          "name": "",
          "type": "bool"
        }
      ],
      "stateMutability": "view",
      "type": "function"
    },
    {
      "inputs": [
        {
          "internalType": "uint256",
          "name": "",
          "type": "uint256"
        }
      ],
      "name": "withdrawalStatVote",
      "outputs": [
        {
          "internalType": "enum VoteStatusConsumer.VoteStatus",
          "name": "status",
          "type": "uint8"
        },
        {
          "internalType": "bytes32",
          "name": "finalHash",
          "type": "bytes32"
        },
        {
          "internalType": "uint256",
          "name": "expiredAt",
          "type": "uint256"
        },
        {
          "internalType": "uint256",
          "name": "createdAt",
          "type": "uint256"
        }
      ],
      "stateMutability": "view",
      "type": "function"
    },
    {
      "stateMutability": "payable",
      "type": "receive"
    }
  ],
  "transactionHash": "0xd877bc2a7fbbb773f97d71d3c68d8906f0ad9a9131baf4d8e41317618001572a",
  "args": [],
  "numDeployments": 2,
  "solcInputHash": "04a9bbd243a024f931581fbb384106a3",
  "bytecode": "0x608060405234801561001057600080fd5b506000805460ff1916905561505c8061002a6000396000f3fe6080604052600436106102cd5760003560e01c8063835fc6ca11610175578063c28f7894116100dc578063e75235b811610095578063f668214a1161006f578063f668214a1461095e578063fa3896591461097e578063fc6574bc1461099e578063fe90d9c2146109f0576102dc565b8063e75235b8146108d3578063ecc83649146108eb578063f0ce418e14610918576102dc565b8063c28f7894146107ed578063ca15c87314610833578063d547741f14610853578063dafae40814610873578063dbd2ef6c14610893578063de981f1b146108b3576102dc565b80639584a5921161012e5780639584a59214610735578063a217fddf14610755578063affed0e01461076a578063b9afa17714610780578063b9c36209146107a0578063bc7f0386146107c0576102dc565b8063835fc6ca1461066f5780638456cb59146106a0578063865e6fd3146106b55780639010d07c146106d557806391d14854146106f5578063931ec98714610715576102dc565b80633e70838b116102345780635c975abb116101ed57806364363f78116101c757806364363f781461060457806371706cbe1461062457806375535f861461063a5780637de5dedd1461065a576102dc565b80635c975abb146105aa5780635cd8a76b146105c25780635d6a9a90146105d7576102dc565b80633e70838b146104ba5780633f4ba83a146104da57806347b56b2c146104ef5780634d92c4f01461050f5780634f2717c7146105705780635a7dd06a1461058a576102dc565b8063248a9ca311610286578063248a9ca3146103e75780632f2ff15d146104255780633101cfcb1461044557806336568abe146104655780633b5afc22146104855780633e4574ec1461049a576102dc565b806301ffc9a7146102e4578063065b3adf146103195780630b1ff17f14610351578063109679ef1461037157806317892f961461039157806317fa2ea1146103ba576102dc565b366102dc576102da610a12565b005b6102da610a12565b3480156102f057600080fd5b506103046102ff366004613e01565b610a2b565b60405190151581526020015b60405180910390f35b34801561032557600080fd5b50600554610339906001600160a01b031681565b6040516001600160a01b039091168152602001610310565b34801561035d57600080fd5b506102da61036c366004613e2b565b610a56565b34801561037d57600080fd5b506102da61038c366004613e5c565b610a6d565b34801561039d57600080fd5b506078546079545b60408051928352602083019190915201610310565b3480156103c657600080fd5b506103da6103d5366004613eb9565b610b12565b6040516103109190613efa565b3480156103f357600080fd5b50610417610402366004613f40565b6000908152606b602052604090206001015490565b604051908152602001610310565b34801561043157600080fd5b506102da610440366004613f79565b610e4f565b34801561045157600080fd5b506102da610460366004613fa9565b610e79565b34801561047157600080fd5b506102da610480366004613f79565b610f25565b34801561049157600080fd5b506102da610f9f565b3480156104a657600080fd5b506103046104b5366004613f79565b611028565b3480156104c657600080fd5b506102da6104d5366004613fa9565b611058565b3480156104e657600080fd5b506102da611082565b3480156104fb57600080fd5b506102da61050a366004613f40565b611094565b34801561051b57600080fd5b5061056061052a366004613fc6565b606f602090815260009283526040808420909152908252902080546001820154600383015460049093015460ff90921692909184565b6040516103109493929190613ffe565b34801561057c57600080fd5b50606d546103049060ff1681565b34801561059657600080fd5b506102da6105a5366004614072565b61125f565b3480156105b657600080fd5b5060005460ff16610304565b3480156105ce57600080fd5b506102da6112c4565b3480156105e357600080fd5b506105f76105f23660046140bd565b6113c6565b60405161031091906140f9565b34801561061057600080fd5b506102da61061f366004614125565b61146a565b34801561063057600080fd5b50610417606e5481565b34801561064657600080fd5b506103a5610655366004613fc6565b6114a0565b34801561066657600080fd5b506104176114c1565b34801561067b57600080fd5b5061068f61068a366004613f40565b6114d8565b6040516103109594939291906141d9565b3480156106ac57600080fd5b506102da6115aa565b3480156106c157600080fd5b506102da6106d0366004614227565b6115ba565b3480156106e157600080fd5b506103396106f0366004613fc6565b6115d5565b34801561070157600080fd5b50610304610710366004613f79565b6115ed565b34801561072157600080fd5b506102da610730366004614253565b611618565b34801561074157600080fd5b506102da61075036600461429d565b611795565b34801561076157600080fd5b50610417600081565b34801561077657600080fd5b5061041760045481565b34801561078c57600080fd5b506103da61079b366004614396565b611936565b3480156107ac57600080fd5b506103a56107bb366004613fc6565b611ac8565b3480156107cc57600080fd5b506104176107db366004613fa9565b60386020526000908152604090205481565b3480156107f957600080fd5b50610560610808366004613f40565b607660205260009081526040902080546001820154600383015460049093015460ff90921692909184565b34801561083f57600080fd5b5061041761084e366004613f40565b611add565b34801561085f57600080fd5b506102da61086e366004613f79565b611af4565b34801561087f57600080fd5b5061030461088e366004613f40565b611b19565b34801561089f57600080fd5b506102da6108ae36600461440b565b611b45565b3480156108bf57600080fd5b506103396108ce3660046144ce565b611b97565b3480156108df57600080fd5b506001546002546103a5565b3480156108f757600080fd5b5061090b6109063660046144e9565b611c12565b6040516103109190614584565b34801561092457600080fd5b50610560610933366004613f40565b607060205260009081526040902080546001820154600383015460049093015460ff90921692909184565b34801561096a57600080fd5b50610304610979366004613f40565b611d79565b34801561098a57600080fd5b506102da610999366004614125565b611da7565b3480156109aa57600080fd5b506103046109b93660046145e6565b6000928352606f602090815260408085209385529281528284206001600160a01b0392909216845260029091019052902054151590565b3480156109fc57600080fd5b5061041760008051602061503083398151915281565b60405163129c2ce160e31b815260040160405180910390fd5b60006001600160e01b03198216635a05180f60e01b1480610a505750610a5082611fa0565b92915050565b610a5e611fd5565b610a6982338361201b565b5050565b610a75611fd5565b610a7d6120f3565b33610a9e610a903684900384018461472d565b82610a996114c1565b612194565b610aa86003611b97565b60405163c7c4fea960e01b81526001600160a01b03919091169063c7c4fea990610adc9060009086359086906004016147ce565b600060405180830381600087803b158015610af657600080fd5b505af1158015610b0a573d6000803e3d6000fd5b505050505050565b6060610b1c6120f3565b336000610b276114c1565b90506000846001600160401b03811115610b4357610b4361461f565b604051908082528060200260200182016040528015610b6c578160200160208202803683370190505b5093506000610b7b6003611b97565b905060005b86811015610e4457878782818110610b9a57610b9a6147fb565b905060200201359250816001600160a01b031663c7c4fea9600285886040518463ffffffff1660e01b8152600401610bd4939291906147ce565b600060405180830381600087803b158015610bee57600080fd5b505af1158015610c02573d6000803e3d6000fd5b50505050610c0f83611d79565b15610c3d576001868281518110610c2857610c286147fb565b91151560209283029190910190910152610e3c565b600083815260706020908152604080832060718352818420825160a081019093528054835260018082015492959491929184019160ff1690811115610c8457610c84613fe8565b6001811115610c9557610c95613fe8565b8152604080516060808201835260028501546001600160a01b039081168352600386015481166020848101919091526004870154848601528086019390935283518083018552600587015482168152600687015490911692810192909252600785015482840152828401919091528151808201909252600884018054919093019290829060ff166001811115610d2d57610d2d613fe8565b6001811115610d3e57610d3e613fe8565b81526001820154602082015260029091015460409091015290525090506000610d6682612435565b90506000610d76848a8a856124ff565b90506001816004811115610d8c57610d8c613fe8565b03610e3757835460ff19166002908117855560405163114fc47560e11b81526001600160a01b0388169163229f88ea91610dcb91908b90600401614811565b600060405180830381600087803b158015610de557600080fd5b505af1158015610df9573d6000803e3d6000fd5b505050507f62520d049932cdee872e9b3c59c0f6073637147e5e9bc8b050b062430eaf5c9f8284604051610e2e92919061482c565b60405180910390a15b505050505b600101610b80565b505050505092915050565b6000828152606b6020526040902060010154610e6a81612530565b610e74838361253d565b505050565b603754600390610100900460ff16158015610e9b575060375460ff8083169116105b610ec05760405162461bcd60e51b8152600401610eb79061488d565b60405180910390fd5b6037805461ffff191660ff831617610100179055610edf600b8361255f565b6037805461ff001916905560405160ff821681527f7f26b83ff96e1f2b6a682f133852f6798a09c465da95921460cefb3847402498906020015b60405180910390a15050565b6001600160a01b0381163314610f955760405162461bcd60e51b815260206004820152602f60248201527f416363657373436f6e74726f6c3a2063616e206f6e6c792072656e6f756e636560448201526e103937b632b9903337b91039b2b63360891b6064820152608401610eb7565b610a698282612603565b610faa6000336115ed565b80610fc85750610fc8600080516020615030833981519152336115ed565b610ff5576000356001600160e01b0319166005604051620f948f60ea1b8152600401610eb79291906148db565b606d5460ff16156110195760405163173492af60e31b815260040160405180910390fd5b606d805460ff19166001179055565b60008281526070602090815260408083206001600160a01b038516845260020190915281205415155b9392505050565b611060612625565b600580546001600160a01b0319166001600160a01b0392909216919091179055565b61108a61267f565b6110926126ee565b565b61109c611fd5565b6110a581611d79565b156110c3576040516327ddf84960e11b815260040160405180910390fd5b6000818152607160209081526040808320815160a0810190925280548252600180820154929391929184019160ff169081111561110257611102613fe8565b600181111561111357611113613fe8565b8152604080516060808201835260028501546001600160a01b039081168352600386015481166020848101919091526004870154848601528086019390935283518083018552600587015482168152600687015490911692810192909252600785015482840152828401919091528151808201909252600884018054919093019290829060ff1660018111156111ab576111ab613fe8565b60018111156111bc576111bc613fe8565b815260018201546020820152600290910154604091820152915260608301510151919250504614611226576060810151604090810151905163092048d160e11b81526001600160e01b03196000351660048201526024810191909152466044820152606401610eb7565b7f04e8cbd836dea43a2dc7eb19de345cca3a8e6978a2ef5225d924775500f67c7c61125082612435565b82604051610f1992919061482c565b611267611fd5565b6000829003611289576040516316ee9d3b60e11b815260040160405180910390fd5b60005b828110156112be576112b68484838181106112a9576112a96147fb565b905060a00201338461201b565b60010161128c565b50505050565b603754600290610100900460ff161580156112e6575060375460ff8083169116105b6113025760405162461bcd60e51b8152600401610eb79061488d565b6037805461ffff191660ff83161761010017905560745461132e906008906001600160a01b031661255f565b607554611346906003906001600160a01b031661255f565b60775461135e90600a906001600160a01b031661255f565b607480546001600160a01b031990811690915560758054821690556077805490911690556037805461ff001916905560405160ff821681527f7f26b83ff96e1f2b6a682f133852f6798a09c465da95921460cefb38474024989060200160405180910390a150565b604080518082018252600080825260208083018290526001600160a01b038616825260738152838220858352905282902082518084019093528054919291829060ff16600181111561141a5761141a613fe8565b600181111561142b5761142b613fe8565b815290546001600160a01b0361010090910481166020928301529082015191925016610a5057604051631b79f53b60e21b815260040160405180910390fd5b611472612625565b6000839003611494576040516316ee9d3b60e11b815260040160405180910390fd5b6112be84848484612740565b6000806114ab612625565b6114b58484612823565b915091505b9250929050565b60006114d36114ce6128ae565b61291b565b905090565b607160209081526000918252604091829020805460018083015485516060808201885260028601546001600160a01b03908116835260038701548116838901526004870154838a015288518083018a526005880154821681526006880154909116978101979097526007860154878901528751908101909752600885018054949760ff93841697929692959294909391928492169081111561157c5761157c613fe8565b600181111561158d5761158d613fe8565b815260200160018201548152602001600282015481525050905085565b6115b261267f565b611092612951565b6115c2612625565b6115cb8161298e565b610a69828261255f565b6000828152606c6020526040812061105190836129c4565b6000918252606b602090815260408084206001600160a01b0393909316845291905290205460ff1690565b60008051602061503083398151915261163081612530565b606d5460ff16156116545760405163173492af60e31b815260040160405180910390fd5b818414801561166257508315155b61168d576000356001600160e01b0319166040516306b5667560e21b8152600401610eb791906148fc565b60005b84811015610b0a5760006116ce8787848181106116af576116af6147fb565b905060a0020160200160208101906116c79190613fa9565b60016113c6565b805190915060018111156116e4576116e4613fe8565b8787848181106116f6576116f66147fb565b61170f92606060a0909202019081019150604001614911565b600181111561172057611720613fe8565b1461173d5760405162035e2b60ea1b815260040160405180910390fd5b61178b878784818110611752576117526147fb565b905060a00201600187878681811061176c5761176c6147fb565b90506020020160208101906117819190613fa9565b84602001516129d0565b5050600101611690565b603754610100900460ff16158080156117b55750603754600160ff909116105b806117cf5750303b1580156117cf575060375460ff166001145b6117eb5760405162461bcd60e51b8152600401610eb79061488d565b6037805460ff19166001179055801561180e576037805461ff0019166101001790555b61181960008d612b5a565b6118238b8b612b64565b505061182f8989612823565b506000905061183e868061492e565b9050111561189057611871611853868061492e565b611860602089018961492e565b61186a898061492e565b8989612bf0565b61189061187e868061492e565b61188b602088018861492e565b612740565b60005b868110156118e1576118d96000805160206150308339815191528989848181106118bf576118bf6147fb565b90506020020160208101906118d49190613fa9565b61253d565b600101611893565b508015611928576037805461ff0019169055604051600181527f7f26b83ff96e1f2b6a682f133852f6798a09c465da95921460cefb38474024989060200160405180910390a15b505050505050505050505050565b6060611940611fd5565b6119486120f3565b33611951613d94565b836001600160401b038111156119695761196961461f565b604051908082528060200260200182016040528015611992578160200160208202803683370190505b509250600061199f6114c1565b905060006119ad6003611b97565b905060005b86811015610e44578787828181106119cc576119cc6147fb565b905061016002018036038101906119e3919061472d565b805160405163c7c4fea960e01b81529195506001600160a01b0384169163c7c4fea991611a1891600091908a906004016147ce565b600060405180830381600087803b158015611a3257600080fd5b505af1158015611a46573d6000803e3d6000fd5b5060029250611a53915050565b6040808601518101516000908152606f6020908152828220885183529052205460ff166004811115611a8757611a87613fe8565b03611ab5576001868281518110611aa057611aa06147fb565b91151560209283029190910190910152611ac0565b611ac0848685612194565b6001016119b2565b600080611ad3612625565b6114b58484612b64565b6000818152606c60205260408120610a5090612df9565b6000828152606b6020526040902060010154611b0f81612530565b610e748383612603565b6000611b236128ae565b600154611b30919061498d565b600254611b3d908461498d565b101592915050565b611b4d612625565b6000879003611b7d576000356001600160e01b0319166040516306b5667560e21b8152600401610eb791906148fc565b611b8d8888888888888888612bf0565b5050505050505050565b60007fdea3103d22025c269050bea94c0c84688877f12fa22b7e6d2d5d78a9a49aa1cb600083600d811115611bce57611bce613fe8565b60ff1681526020810191909152604001600020546001600160a01b0316905080611c0d578160405163409140df60e11b8152600401610eb791906149a4565b919050565b6060816001600160401b03811115611c2c57611c2c61461f565b604051908082528060200260200182016040528015611c5f57816020015b6060815260200190600190039081611c4a5790505b50905060005b82811015611d7157600085815260726020526040812090858584818110611c8e57611c8e6147fb565b9050602002016020810190611ca39190613fa9565b6001600160a01b03166001600160a01b031681526020019081526020016000208054611cce906149be565b80601f0160208091040260200160405190810160405280929190818152602001828054611cfa906149be565b8015611d475780601f10611d1c57610100808354040283529160200191611d47565b820191906000526020600020905b815481529060010190602001808311611d2a57829003601f168201915b5050505050828281518110611d5e57611d5e6147fb565b6020908102919091010152600101611c65565b509392505050565b6000600260008381526070602052604090205460ff166004811115611da057611da0613fe8565b1492915050565b611daf611fd5565b611db76120f3565b338315801590611dc657508382145b611df1576000356001600160e01b0319166040516306b5667560e21b8152600401610eb791906148fc565b6000611dfb6114c1565b9050600080611e0a6003611b97565b905060005b87811015611f9557888882818110611e2957611e296147fb565b905060200201359250868682818110611e4457611e446147fb565b9050602002810190611e5691906149f2565b60008581526072602090815260408083206001600160a01b038b168452909152902091611e84919083614a7e565b5060405163c7c4fea960e01b81526001600160a01b0383169063c7c4fea990611eb69060019087908a906004016147ce565b600060405180830381600087803b158015611ed057600080fd5b505af1158015611ee4573d6000803e3d6000fd5b50505060008481526076602052604081209150611f03828888886124ff565b90506001816004811115611f1957611f19613fe8565b03611f8b57815460ff1916600217825560405163114fc47560e11b81526001600160a01b0385169063229f88ea90611f58906001908990600401614811565b600060405180830381600087803b158015611f7257600080fd5b505af1158015611f86573d6000803e3d6000fd5b505050505b5050600101611e0f565b505050505050505050565b60006001600160e01b03198216637965db0b60e01b1480610a5057506301ffc9a760e01b6001600160e01b0319831614610a50565b60005460ff16156110925760405162461bcd60e51b815260206004820152601060248201526f14185d5cd8589b194e881c185d5cd95960821b6044820152606401610eb7565b61203561203036859003850160408601614b3d565b612e03565b61203e83612e7e565b60006120596120536040860160208701613fa9565b836113c6565b8051909150600181111561206f5761206f613fe8565b61207f6060860160408701614911565b600181111561209057612090613fe8565b146120ad5760405162035e2b60ea1b815260040160405180910390fd5b6120dc83306120c26040880160208901613fa9565b6120d436899003890160408a01614b3d565b929190612efc565b6120ec84838584602001516129d0565b5050505050565b6120fd600b611b97565b604051635a02d57960e11b81523360048201526001600160a01b03919091169063b405aaf290602401602060405180830381865afa158015612143573d6000803e3d6000fd5b505050506040513d601f19601f820116820180604052508101906121679190614b59565b611092576000356001600160e01b0319166006604051620f948f60ea1b8152600401610eb79291906148db565b825160808401516121a490612e03565b6000846020015160018111156121bc576121bc613fe8565b146121da5760405163182f3d8760e11b815260040160405180910390fd5b4684606001516040015114612228576060840151604090810151905163092048d160e11b81526001600160e01b03196000351660048201526024810191909152466044820152606401610eb7565b60006122448560600151602001518660400151604001516113c6565b608086015151909150600181111561225e5761225e613fe8565b8151600181111561227157612271613fe8565b14801561229b57508460400151602001516001600160a01b031681602001516001600160a01b0316145b6122b85760405163f4b8742f60e01b815260040160405180910390fd5b6040808601518101516000908152606f60209081528282208583529052908120906122e287612435565b905060006122f2838888856124ff565b905087604001516040015185886001600160a01b03167f48c4262ed68beb92fe5d7d48d70772e49cd50c317937dea60a99f15f794b64598560405161233991815260200190565b60405180910390a4600181600481111561235557612355613fe8565b03611b8d57825460ff191660021783556060880151805160209091015160808a015161238492909160006130fb565b61238e6003611b97565b885160405163114fc47560e11b81526001600160a01b03929092169163229f88ea916123c09160009190600401614811565b600060405180830381600087803b1580156123da57600080fd5b505af11580156123ee573d6000803e3d6000fd5b505050507f8d20d8121a34dded9035ff5b43e901c142824f7a22126392992c353c37890524828960405161242392919061482c565b60405180910390a15050505050505050565b6000806124458360400151613417565b905060006124568460600151613417565b905060006124aa8560800151604080517f1e2b74b2a792d5c0f0b6e59b037fa9d43d84fbb759337f0112fcc15ca414fc8d815282516020808301919091528301518183015291015160608201526080902090565b604080517fb9d1fe7c9deeec5dc90a2f47ff1684239519f2545b2228d3d91fb27df3189eea815287516020808301919091529097015190870152606086019390935250608084015260a08301525060c0902090565b600061250c85858461345f565b60006125188684613515565b905061252686858386613615565b9695505050505050565b61253a8133613661565b50565b61254782826136c5565b6000828152606c60205260409020610e74908261374b565b807fdea3103d22025c269050bea94c0c84688877f12fa22b7e6d2d5d78a9a49aa1cb600084600d81111561259557612595613fe8565b60ff168152602081019190915260400160002080546001600160a01b0319166001600160a01b03928316179055811682600d8111156125d6576125d6613fe8565b6040517f865d1c228a8ea13709cfe61f346f7ff67f1bbd4a18ff31ad3e7147350d317c5990600090a35050565b61260d8282613760565b6000828152606c60205260409020610e7490826137c7565b7fb53127684a568b3173ae13b9f8a6016e243e63b6e8ee1178d6a717850b5d6103546001600160a01b03163314611092576000356001600160e01b0319166001604051620f948f60ea1b8152600401610eb79291906148db565b7fb53127684a568b3173ae13b9f8a6016e243e63b6e8ee1178d6a717850b5d6103546001600160a01b03163314806126c157506005546001600160a01b031633145b611092576000356001600160e01b0319166001604051620f948f60ea1b8152600401610eb79291906148db565b6126f66137dc565b6000805460ff191690557f5db9ee0a495bf2e6ff9c91a7834c1ba4fdd244a5e8aa4e537bd38aeae4b073aa335b6040516001600160a01b03909116815260200160405180910390a1565b82811461276e576000356001600160e01b0319166040516306b5667560e21b8152600401610eb791906148fc565b60005b838110156127df5782828281811061278b5761278b6147fb565b90506020020135603860008787858181106127a8576127a86147fb565b90506020020160208101906127bd9190613fa9565b6001600160a01b03168152602081019190915260400160002055600101612771565b507f6f52f53a938df83439fa4c6055c7df0a6906d621aa6dfa4708187037fdfc41da848484846040516128159493929190614bf6565b60405180910390a150505050565b600080828411156128475760405163964a4d2760e01b815260040160405180910390fd5b505060018054600254607885905560798490556004805493840190556040805183815260208101839052929391928592879290917feac82d4d949d2d4f77f96aa68ab6b1bb750da73f14e55d41a1b93f387471ecba91015b60405180910390a49250929050565b60006128ba600b611b97565b6001600160a01b031663ada86b246040518163ffffffff1660e01b8152600401602060405180830381865afa1580156128f7573d6000803e3d6000fd5b505050506040513d601f19601f820116820180604052508101906114d39190614c28565b6000600254600160025484600154612933919061498d565b61293d9190614c41565b6129479190614c54565b610a509190614c67565b612959611fd5565b6000805460ff191660011790557f62e78cea01bee320cd4e420270b5ea74000d11b0c9f74754ebdbfc544b05a2586127233390565b806001600160a01b03163b60000361253a57604051630bfc64a360e21b81526001600160a01b0382166004820152602401610eb7565b60006110518383613825565b606e8054600091826129e183614c89565b9091555090506000612a08848385886129ff368c90038c018c614ca2565b9392919061384f565b60008381526071602090815260409091208251815590820151600180830180549495508594909160ff19909116908381811115612a4757612a47613fe8565b021790555060408281015180516002840180546001600160a01b039283166001600160a01b03199182161790915560208084015160038701805491851691841691909117905592840151600486015560608601518051600587018054918516918416919091179055928301516006860180549190931691161790550151600782015560808201518051600883018054909190829060ff191660018381811115612af257612af2613fe8565b0217905550602082015181600101556040820151816002015550509050507ff313c253a5be72c29d0deb2c8768a9543744ac03d6b3cafd50cc976f1c2632fc612b3a82612435565b82604051612b4992919061482c565b60405180910390a150949350505050565b610a69828261253d565b60008082841115612b96576000356001600160e01b0319166040516387f6f09560e01b8152600401610eb791906148fc565b50506001805460028054858455908490556004805493840190556040805183815260208101839052929391928592879290917f976f8a9c5bdf8248dec172376d6e2b80a8e3df2f0328e381c6db8e1cf138c0f8910161289f565b8685148015612bfe57508683145b612c29576000356001600160e01b0319166040516306b5667560e21b8152600401610eb791906148fc565b60005b87811015612dbb57868682818110612c4657612c466147fb565b9050602002016020810190612c5b9190613fa9565b607360008b8b85818110612c7157612c716147fb565b9050602002016020810190612c869190613fa9565b6001600160a01b03166001600160a01b031681526020019081526020016000206000878785818110612cba57612cba6147fb565b90506020020135815260200190815260200160002060000160016101000a8154816001600160a01b0302191690836001600160a01b03160217905550828282818110612d0857612d086147fb565b9050602002016020810190612d1d9190614911565b607360008b8b85818110612d3357612d336147fb565b9050602002016020810190612d489190613fa9565b6001600160a01b03166001600160a01b031681526020019081526020016000206000878785818110612d7c57612d7c6147fb565b60209081029290920135835250810191909152604001600020805460ff191660018381811115612dae57612dae613fe8565b0217905550600101612c2c565b507f2544bff60c6d5b84946e06804af9f84e150bbee85238dbdee79efca4e0adf4018888888888888888604051612423989796959493929190614cf5565b6000610a50825490565b600081516001811115612e1857612e18613fe8565b148015612e29575060008160400151115b8015612e3757506020810151155b80612e615750600181516001811115612e5257612e52613fe8565b148015612e6157506040810151155b61253a5760405163034992a760e51b815260040160405180910390fd5b6000612e906060830160408401614911565b6001811115612ea157612ea1613fe8565b148015612ede575060386000612ebd6040840160208501613fa9565b6001600160a01b031681526020810191909152604001600020546080820135105b1561253a57604051636eff4a8560e11b815260040160405180910390fd5b600060608186516001811115612f1457612f14613fe8565b03612ff15760408681015181516001600160a01b038881166024830152878116604483015260648083019390935283518083039093018352608490910183526020820180516001600160e01b03166323b872dd60e01b179052915191851691612f7d9190614d84565b6000604051808303816000865af19150503d8060008114612fba576040519150601f19603f3d011682016040523d82523d6000602084013e612fbf565b606091505b509092509050818015612fea575080511580612fea575080806020019051810190612fea9190614b59565b91506130d5565b60018651600181111561300657613006613fe8565b036130bc57602086810151604080516001600160a01b0389811660248301528881166044830152606480830194909452825180830390940184526084909101825292820180516001600160e01b03166323b872dd60e01b179052519185169161306f9190614d84565b6000604051808303816000865af19150503d80600081146130ac576040519150601f19603f3d011682016040523d82523d6000602084013e6130b1565b606091505b5050809250506130d5565b6040516361e411a760e11b815260040160405180910390fd5b81610b0a5785858585604051639d2e4c6760e01b8152600401610eb79493929190614da0565b6000816001600160a01b0316836001600160a01b0316036131aa5760408086015190516001600160a01b0386169180156108fc02916000818181858888f193505050506131a557816001600160a01b031663d0e30db086604001516040518263ffffffff1660e01b81526004016000604051808303818588803b15801561318157600080fd5b505af1158015613195573d6000803e3d6000fd5b50505050506131a58585856138bb565b6120ec565b6000855160018111156131bf576131bf613fe8565b03613328576040516370a0823160e01b81523060048201526000906001600160a01b038516906370a0823190602401602060405180830381865afa15801561320b573d6000803e3d6000fd5b505050506040513d601f19601f8201168201806040525081019061322f9190614c28565b9050856040015181101561331757836001600160a01b03166340c10f193083896040015161325d9190614c54565b6040516001600160a01b03909216602483015260448201526064016040516020818303038152906040529060e01b6020820180516001600160e01b0383818316178352505050506040516132b19190614d84565b6000604051808303816000865af19150503d80600081146132ee576040519150601f19603f3d011682016040523d82523d6000602084013e6132f3565b606091505b5050809250508161331757604051632f739fff60e11b815260040160405180910390fd5b6133228686866138bb565b506120ec565b60018551600181111561333d5761333d613fe8565b036130bc5761335183858760200151613939565b6131a557602085810151604080516001600160a01b038881166024830152604480830194909452825180830390940184526064909101825292820180516001600160e01b03166340c10f1960e01b17905251918516916133b19190614d84565b6000604051808303816000865af19150503d80600081146133ee576040519150601f19603f3d011682016040523d82523d6000602084013e6133f3565b606091505b505080915050806131a55760405163c8e3a09f60e01b815260040160405180910390fd5b604080517f353bdd8d69b9e3185b3972e08b03845c0c14a21a390215302776a7a34b0e8764815282516020808301919091528301518183015291015160608201526080902090565b60008360030154118015613477575042836003015411155b1561348857825460ff191660041783555b6001600160a01b0382166000908152600284016020526040902054156134cc5760405163025fd59560e41b81526001600160a01b0383166004820152602401610eb7565b6001600160a01b039091166000818152600284016020908152604082209390935560059093018054600181018255908452919092200180546001600160a01b0319169091179055565b6000806000613524600b611b97565b6001600160a01b031663c441c4a86040518163ffffffff1660e01b8152600401600060405180830381865afa158015613561573d6000803e3d6000fd5b505050506040513d6000823e601f3d908101601f191682016040526135899190810190614e6d565b81519194509250905060005b8181101561360b57858760020160008684815181106135b6576135b66147fb565b60200260200101516001600160a01b03166001600160a01b031681526020019081526020016000205403613603578281815181106135f6576135f66147fb565b6020026020010151850194505b600101613595565b5050505092915050565b600083831015801561363c57506000855460ff16600481111561363a5761363a613fe8565b145b1561365457845460ff19166001908117865585018290555b5050915460ff1692915050565b61366b82826115ed565b610a6957613683816001600160a01b031660146139e4565b61368e8360206139e4565b60405160200161369f929190614f4a565b60408051601f198184030181529082905262461bcd60e51b8252610eb791600401614fbf565b6136cf82826115ed565b610a69576000828152606b602090815260408083206001600160a01b03851684529091529020805460ff191660011790556137073390565b6001600160a01b0316816001600160a01b0316837f2f8788117e7eff1d82e926ec794901d17c78024a50270940304540a733656f0d60405160405180910390a45050565b6000611051836001600160a01b038416613b7f565b61376a82826115ed565b15610a69576000828152606b602090815260408083206001600160a01b0385168085529252808320805460ff1916905551339285917ff6391f5c32d9c69d2a47ea670b442974b53935d1edc7fd64eb21e047a839171b9190a45050565b6000611051836001600160a01b038416613bce565b60005460ff166110925760405162461bcd60e51b815260206004820152601460248201527314185d5cd8589b194e881b9bdd081c185d5cd95960621b6044820152606401610eb7565b600082600001828154811061383c5761383c6147fb565b9060005260206000200154905092915050565b613857613d94565b92835260016020808501919091526060840180516001600160a01b0396871690528682015181519087169083015251466040918201528651818601805191881690915280519490961693909101929092529251810192909252910151608082015290565b600080845160018111156138d1576138d1613fe8565b036138ec576138e582848660400151613cc1565b9050613915565b60018451600181111561390157613901613fe8565b036130bc576138e582848660200151613939565b806112be578383836040516341bd7d9160e11b8152600401610eb793929190614fd2565b604080513060248201526001600160a01b038481166044830152606480830185905283518084039091018152608490920183526020820180516001600160e01b03166323b872dd60e01b179052915160009286169161399791614d84565b6000604051808303816000865af19150503d80600081146139d4576040519150601f19603f3d011682016040523d82523d6000602084013e6139d9565b606091505b509095945050505050565b606060006139f383600261498d565b6139fe906002614c41565b6001600160401b03811115613a1557613a1561461f565b6040519080825280601f01601f191660200182016040528015613a3f576020820181803683370190505b509050600360fc1b81600081518110613a5a57613a5a6147fb565b60200101906001600160f81b031916908160001a905350600f60fb1b81600181518110613a8957613a896147fb565b60200101906001600160f81b031916908160001a9053506000613aad84600261498d565b613ab8906001614c41565b90505b6001811115613b30576f181899199a1a9b1b9c1cb0b131b232b360811b85600f1660108110613aec57613aec6147fb565b1a60f81b828281518110613b0257613b026147fb565b60200101906001600160f81b031916908160001a90535060049490941c93613b2981615002565b9050613abb565b5083156110515760405162461bcd60e51b815260206004820181905260248201527f537472696e67733a20686578206c656e67746820696e73756666696369656e746044820152606401610eb7565b6000818152600183016020526040812054613bc657508154600181810184556000848152602080822090930184905584548482528286019093526040902091909155610a50565b506000610a50565b60008181526001830160205260408120548015613cb7576000613bf2600183614c54565b8554909150600090613c0690600190614c54565b9050818114613c6b576000866000018281548110613c2657613c266147fb565b9060005260206000200154905080876000018481548110613c4957613c496147fb565b6000918252602080832090910192909255918252600188019052604090208390555b8554869080613c7c57613c7c615019565b600190038181906000526020600020016000905590558560010160008681526020019081526020016000206000905560019350505050610a50565b6000915050610a50565b604080516001600160a01b038481166024830152604480830185905283518084039091018152606490920183526020820180516001600160e01b031663a9059cbb60e01b179052915160009260609290871691613d1e9190614d84565b6000604051808303816000865af19150503d8060008114613d5b576040519150601f19603f3d011682016040523d82523d6000602084013e613d60565b606091505b509092509050818015613d8b575080511580613d8b575080806020019051810190613d8b9190614b59565b95945050505050565b6040805160a08101825260008082526020808301829052835160608082018652838252818301849052818601849052848601919091528451808201865283815280830184905280860184905281850152845190810185528281529081018290529283015290608082015290565b600060208284031215613e1357600080fd5b81356001600160e01b03198116811461105157600080fd5b60008082840360c0811215613e3f57600080fd5b60a0811215613e4d57600080fd5b50919360a08501359350915050565b60006101608284031215613e6f57600080fd5b50919050565b60008083601f840112613e8757600080fd5b5081356001600160401b03811115613e9e57600080fd5b6020830191508360208260051b85010111156114ba57600080fd5b60008060208385031215613ecc57600080fd5b82356001600160401b03811115613ee257600080fd5b613eee85828601613e75565b90969095509350505050565b6020808252825182820181905260009190848201906040850190845b81811015613f34578351151583529284019291840191600101613f16565b50909695505050505050565b600060208284031215613f5257600080fd5b5035919050565b6001600160a01b038116811461253a57600080fd5b8035611c0d81613f59565b60008060408385031215613f8c57600080fd5b823591506020830135613f9e81613f59565b809150509250929050565b600060208284031215613fbb57600080fd5b813561105181613f59565b60008060408385031215613fd957600080fd5b50508035926020909101359150565b634e487b7160e01b600052602160045260246000fd5b608081016005861061401257614012613fe8565b9481526020810193909352604083019190915260609091015290565b60008083601f84011261404057600080fd5b5081356001600160401b0381111561405757600080fd5b60208301915083602060a0830285010111156114ba57600080fd5b60008060006040848603121561408757600080fd5b83356001600160401b0381111561409d57600080fd5b6140a98682870161402e565b909790965060209590950135949350505050565b600080604083850312156140d057600080fd5b82356140db81613f59565b946020939093013593505050565b6002811061253a5761253a613fe8565b81516040820190614109816140e9565b82526020928301516001600160a01b0316929091019190915290565b6000806000806040858703121561413b57600080fd5b84356001600160401b038082111561415257600080fd5b61415e88838901613e75565b9096509450602087013591508082111561417757600080fd5b5061418487828801613e75565b95989497509550505050565b80516001600160a01b03908116835260208083015190911690830152604090810151910152565b80516141c2816140e9565b825260208181015190830152604090810151910152565b85815261016081016141ea866140e9565b8560208301526141fd6040830186614190565b61420a60a0830185614190565b6125266101008301846141b7565b8035600e8110611c0d57600080fd5b6000806040838503121561423a57600080fd5b61424383614218565b91506020830135613f9e81613f59565b6000806000806040858703121561426957600080fd5b84356001600160401b038082111561428057600080fd5b61415e8883890161402e565b8060408101831015610a5057600080fd5b60008060008060008060008060008060006101208c8e0312156142bf57600080fd5b6142c88c613f6e565b9a5060208c0135995060408c0135985060608c0135975060808c013596506001600160401b038060a08e013511156142ff57600080fd5b61430f8e60a08f01358f01613e75565b909750955060c08d013581101561432557600080fd5b6143358e60c08f01358f0161428c565b94508060e08e0135111561434857600080fd5b6143588e60e08f01358f0161428c565b9350806101008e0135111561436c57600080fd5b5061437e8d6101008e01358e01613e75565b81935080925050509295989b509295989b9093969950565b600080602083850312156143a957600080fd5b82356001600160401b03808211156143c057600080fd5b818501915085601f8301126143d457600080fd5b8135818111156143e357600080fd5b866020610160830285010111156143f957600080fd5b60209290920196919550909350505050565b6000806000806000806000806080898b03121561442757600080fd5b88356001600160401b038082111561443e57600080fd5b61444a8c838d01613e75565b909a50985060208b013591508082111561446357600080fd5b61446f8c838d01613e75565b909850965060408b013591508082111561448857600080fd5b6144948c838d01613e75565b909650945060608b01359150808211156144ad57600080fd5b506144ba8b828c01613e75565b999c989b5096995094979396929594505050565b6000602082840312156144e057600080fd5b61105182614218565b6000806000604084860312156144fe57600080fd5b8335925060208401356001600160401b0381111561451b57600080fd5b61452786828701613e75565b9497909650939450505050565b60005b8381101561454f578181015183820152602001614537565b50506000910152565b60008151808452614570816020860160208601614534565b601f01601f19169290920160200192915050565b6000602080830181845280855180835260408601915060408160051b870101925083870160005b828110156145d957603f198886030184526145c7858351614558565b945092850192908501906001016145ab565b5092979650505050505050565b6000806000606084860312156145fb57600080fd5b8335925060208401359150604084013561461481613f59565b809150509250925092565b634e487b7160e01b600052604160045260246000fd5b604051606081016001600160401b03811182821017156146575761465761461f565b60405290565b604051601f8201601f191681016001600160401b03811182821017156146855761468561461f565b604052919050565b6002811061253a57600080fd5b6000606082840312156146ac57600080fd5b6146b4614635565b905081356146c181613f59565b815260208201356146d181613f59565b806020830152506040820135604082015292915050565b6000606082840312156146fa57600080fd5b614702614635565b9050813561470f8161468d565b80825250602082013560208201526040820135604082015292915050565b6000610160828403121561474057600080fd5b60405160a081018181106001600160401b03821117156147625761476261461f565b6040528235815260208301356147778161468d565b6020820152614789846040850161469a565b604082015261479b8460a0850161469a565b60608201526147ae8461010085016146e8565b60808201529392505050565b600381106147ca576147ca613fe8565b9052565b606081016147dc82866147ba565b60208201939093526001600160a01b0391909116604090910152919050565b634e487b7160e01b600052603260045260246000fd5b6040810161481f82856147ba565b8260208301529392505050565b60006101808201905083825282516020830152602083015161484d816140e9565b8060408401525060408301516148666060840182614190565b50606083015161487960c0840182614190565b506080830151611d716101208401826141b7565b6020808252602e908201527f496e697469616c697a61626c653a20636f6e747261637420697320616c72656160408201526d191e481a5b9a5d1a585b1a5e995960921b606082015260800190565b6001600160e01b031983168152604081016009831061481f5761481f613fe8565b6001600160e01b031991909116815260200190565b60006020828403121561492357600080fd5b81356110518161468d565b6000808335601e1984360301811261494557600080fd5b8301803591506001600160401b0382111561495f57600080fd5b6020019150600581901b36038213156114ba57600080fd5b634e487b7160e01b600052601160045260246000fd5b8082028115828204841417610a5057610a50614977565b60208101600e83106149b8576149b8613fe8565b91905290565b600181811c908216806149d257607f821691505b602082108103613e6f57634e487b7160e01b600052602260045260246000fd5b6000808335601e19843603018112614a0957600080fd5b8301803591506001600160401b03821115614a2357600080fd5b6020019150368190038213156114ba57600080fd5b601f821115610e7457600081815260208120601f850160051c81016020861015614a5f5750805b601f850160051c820191505b81811015610b0a57828155600101614a6b565b6001600160401b03831115614a9557614a9561461f565b614aa983614aa383546149be565b83614a38565b6000601f841160018114614add5760008515614ac55750838201355b600019600387901b1c1916600186901b1783556120ec565b600083815260209020601f19861690835b82811015614b0e5786850135825560209485019460019092019101614aee565b5086821015614b2b5760001960f88860031b161c19848701351681555b505060018560011b0183555050505050565b600060608284031215614b4f57600080fd5b61105183836146e8565b600060208284031215614b6b57600080fd5b8151801515811461105157600080fd5b8183526000602080850194508260005b85811015614bb9578135614b9e81613f59565b6001600160a01b031687529582019590820190600101614b8b565b509495945050505050565b81835260006001600160fb1b03831115614bdd57600080fd5b8260051b80836020870137939093016020019392505050565b604081526000614c0a604083018688614b7b565b8281036020840152614c1d818587614bc4565b979650505050505050565b600060208284031215614c3a57600080fd5b5051919050565b80820180821115610a5057610a50614977565b81810381811115610a5057610a50614977565b600082614c8457634e487b7160e01b600052601260045260246000fd5b500490565b600060018201614c9b57614c9b614977565b5060010190565b600060a08284031215614cb457600080fd5b614cbc614635565b8235614cc781613f59565b81526020830135614cd781613f59565b6020820152614ce984604085016146e8565b60408201529392505050565b608081526000614d09608083018a8c614b7b565b602083820381850152614d1d828a8c614b7b565b91508382036040850152614d3282888a614bc4565b8481036060860152858152869250810160005b86811015614d73578335614d588161468d565b614d61816140e9565b82529282019290820190600101614d45565b509c9b505050505050505050505050565b60008251614d96818460208701614534565b9190910192915050565b60c08101614dae82876141b7565b6001600160a01b0394851660608301529284166080820152921660a090920191909152919050565b60006001600160401b03821115614def57614def61461f565b5060051b60200190565b600082601f830112614e0a57600080fd5b81516020614e1f614e1a83614dd6565b61465d565b82815260059290921b84018101918181019086841115614e3e57600080fd5b8286015b84811015614e62578051614e5581613f59565b8352918301918301614e42565b509695505050505050565b600080600060608486031215614e8257600080fd5b83516001600160401b0380821115614e9957600080fd5b614ea587838801614df9565b9450602091508186015181811115614ebc57600080fd5b614ec888828901614df9565b945050604086015181811115614edd57600080fd5b86019050601f81018713614ef057600080fd5b8051614efe614e1a82614dd6565b81815260059190911b82018301908381019089831115614f1d57600080fd5b928401925b82841015614f3b57835182529284019290840190614f22565b80955050505050509250925092565b7f416363657373436f6e74726f6c3a206163636f756e7420000000000000000000815260008351614f82816017850160208801614534565b7001034b99036b4b9b9b4b733903937b6329607d1b6017918401918201528351614fb3816028840160208801614534565b01602801949350505050565b6020815260006110516020830184614558565b60a08101614fe082866141b7565b6001600160a01b03938416606083015291909216608090920191909152919050565b60008161501157615011614977565b506000190190565b634e487b7160e01b600052603160045260246000fdfe384495a48d92b97cd9b9d199c73ed783dd1aa0076a6ebcf9156ca7fef7d2cc40a164736f6c6343000811000a",
  "devdoc": {
    "errors": {
      "ErrAlreadyVoted(address)": [
        {
          "details": "Error indicating that a voter has already voted.",
          "params": {
            "voter": "The address of the voter who has already voted."
          }
        }
      ],
      "ErrContractTypeNotFound(uint8)": [
        {
          "details": "Error of invalid role."
        }
      ],
      "ErrERC20MintingFailed()": [
        {
          "details": "Error indicating that the minting of ERC20 tokens has failed."
        }
      ],
      "ErrERC721MintingFailed()": [
        {
          "details": "Error indicating that the minting of ERC721 tokens has failed."
        }
      ],
      "ErrEmptyArray()": [
        {
          "details": "Error indicating that an array is empty when it should contain elements."
        }
      ],
      "ErrInvalidChainId(bytes4,uint256,uint256)": [
        {
          "details": "Error indicating that the chain ID is invalid.",
          "params": {
            "actual": "Current chain ID that executing function.",
            "expected": "Expected chain ID required for the tx to success.",
            "msgSig": "The function signature (bytes4) of the operation that encountered an invalid chain ID."
          }
        }
      ],
      "ErrInvalidInfo()": [
        {
          "details": "Error indicating that the provided information is invalid."
        }
      ],
      "ErrInvalidReceipt()": [
        {
          "details": "Error indicating that a receipt is invalid."
        }
      ],
      "ErrInvalidReceiptKind()": [
        {
          "details": "Error indicating that a receipt kind is invalid."
        }
      ],
      "ErrInvalidRequest()": [
        {
          "details": "Error indicating that a request is invalid."
        }
      ],
      "ErrInvalidThreshold(bytes4)": [
        {
          "details": "Error indicating that the provided threshold is invalid for a specific function signature.",
          "params": {
            "msgSig": "The function signature (bytes4) that the invalid threshold applies to."
          }
        }
      ],
      "ErrInvalidTokenStandard()": [
        {
          "details": "Error indicating that a token standard is invalid."
        }
      ],
      "ErrInvalidTrustedThreshold()": [
        {
          "details": "Error thrown when an invalid trusted threshold is specified."
        }
      ],
      "ErrLengthMismatch(bytes4)": [
        {
          "details": "Error indicating a mismatch in the length of input parameters or arrays for a specific function.",
          "params": {
            "msgSig": "The function signature (bytes4) that has a length mismatch."
          }
        }
      ],
      "ErrQueryForTooSmallQuantity()": [
        {
          "details": "Throwed when the ERC20 withdrawal quantity is less than the minimum threshold."
        }
      ],
      "ErrTokenCouldNotTransfer((uint8,uint256,uint256),address,address)": [
        {
          "details": "Error indicating that the `transfer` has failed.",
          "params": {
            "to": "Receiver of the token value.",
            "token": "Address of the token.",
            "tokenInfo": "Info of the token including ERC standard, id or quantity."
          }
        }
      ],
      "ErrTokenCouldNotTransferFrom((uint8,uint256,uint256),address,address,address)": [
        {
          "details": "Error indicating that the `transferFrom` has failed.",
          "params": {
            "from": "Owner of the token value.",
            "to": "Receiver of the token value.",
            "token": "Address of the token.",
            "tokenInfo": "Info of the token including ERC standard, id or quantity."
          }
        }
      ],
      "ErrUnauthorized(bytes4,uint8)": [
        {
          "details": "Error indicating that the caller is unauthorized to perform a specific function.",
          "params": {
            "expectedRole": "The role required to perform the function.",
            "msgSig": "The function signature (bytes4) that the caller is unauthorized to perform."
          }
        }
      ],
      "ErrUnsupportedStandard()": [
        {
          "details": "Error indicating that an unsupported standard is encountered."
        }
      ],
      "ErrUnsupportedToken()": [
        {
          "details": "Error indicating that a token is not supported."
        }
      ],
      "ErrWithdrawalsMigrated()": [
        {
          "details": "Error thrown when attempting to withdraw funds that have already been migrated."
        }
      ],
      "ErrWithdrawnOnMainchainAlready()": [
        {
          "details": "Error thrown when attempting to withdraw funds that have already been withdrawn on the mainchain."
        }
      ],
      "ErrZeroCodeContract(address)": [
        {
          "details": "Error of set to non-contract."
        }
      ]
    },
    "kind": "dev",
    "methods": {
      "bulkRequestWithdrawalFor((address,address,(uint8,uint256,uint256))[],uint256)": {
        "details": "Bulk requests withdrawals. Emits the `WithdrawalRequested` events."
      },
      "bulkSubmitWithdrawalSignatures(uint256[],bytes[])": {
        "details": "Submits withdrawal signatures. Requirements: - The method caller is a validator."
      },
      "checkThreshold(uint256)": {
        "details": "Checks whether the `_voteWeight` passes the threshold."
      },
      "depositFor((uint256,uint8,(address,address,uint256),(address,address,uint256),(uint8,uint256,uint256)))": {
        "details": "Deposits based on the receipt. Requirements: - The method caller is a validator. Emits the `Deposited` once the assets are released."
      },
      "depositVoted(uint256,uint256,address)": {
        "details": "Returns whether the deposit is casted by the voter."
      },
      "getContract(uint8)": {
        "details": "Returns the address of a contract with a specific role. Throws an error if no contract is set for the specified role.",
        "params": {
          "contractType": "The role of the contract to retrieve."
        },
        "returns": {
          "contract_": "The address of the contract with the specified role."
        }
      },
      "getMainchainToken(address,uint256)": {
        "details": "Returns mainchain token address. Reverts for unsupported token."
      },
      "getRoleAdmin(bytes32)": {
        "details": "Returns the admin role that controls `role`. See {grantRole} and {revokeRole}. To change a role's admin, use {_setRoleAdmin}."
      },
      "getRoleMember(bytes32,uint256)": {
        "details": "Returns one of the accounts that have `role`. `index` must be a value between 0 and {getRoleMemberCount}, non-inclusive. Role bearers are not sorted in any particular way, and their ordering may change at any point. WARNING: When using {getRoleMember} and {getRoleMemberCount}, make sure you perform all queries on the same block. See the following https://forum.openzeppelin.com/t/iterating-over-elements-on-enumerableset-in-openzeppelin-contracts/2296[forum post] for more information."
      },
      "getRoleMemberCount(bytes32)": {
        "details": "Returns the number of accounts that have `role`. Can be used together with {getRoleMember} to enumerate all bearers of a role."
      },
      "getThreshold()": {
        "details": "Returns the threshold."
      },
      "getTrustedThreshold()": {
        "details": "Returns the threshold about trusted org."
      },
      "getWithdrawalSignatures(uint256,address[])": {
        "details": "Returns withdrawal signatures."
      },
      "grantRole(bytes32,address)": {
        "details": "Grants `role` to `account`. If `account` had not been already granted `role`, emits a {RoleGranted} event. Requirements: - the caller must have ``role``'s admin role. May emit a {RoleGranted} event."
      },
      "hasRole(bytes32,address)": {
        "details": "Returns `true` if `account` has been granted `role`."
      },
      "initialize(address,uint256,uint256,uint256,uint256,address[],address[][2],uint256[][2],uint8[])": {
        "details": "Initializes contract storage."
      },
      "mainchainWithdrew(uint256)": {
        "details": "Returns whether the withdrawal is done on mainchain."
      },
      "mainchainWithdrewVoted(uint256,address)": {
        "details": "Returns whether the mainchain withdrew is casted by the voter."
      },
      "mapTokens(address[],address[],uint256[],uint8[])": {
        "details": "Maps Ronin tokens to mainchain networks. Requirement: - The method caller is admin. - The arrays have the same length and its length larger than 0. Emits the `TokenMapped` event."
      },
      "markWithdrawalMigrated()": {
        "details": "Mark the migration as done."
      },
      "migrateWithdrawals((address,address,(uint8,uint256,uint256))[],address[])": {
        "details": "Migrates withdrawals. Requirements: - The method caller is the migrator. - The arrays have the same length and its length larger than 0."
      },
      "minimumVoteWeight()": {
        "details": "Returns the minimum vote weight to pass the threshold."
      },
      "pause()": {
        "details": "Triggers paused state."
      },
      "paused()": {
        "details": "Returns true if the contract is paused, and false otherwise."
      },
      "renounceRole(bytes32,address)": {
        "details": "Revokes `role` from the calling account. Roles are often managed via {grantRole} and {revokeRole}: this function's purpose is to provide a mechanism for accounts to lose their privileges if they are compromised (such as when a trusted device is misplaced). If the calling account had been revoked `role`, emits a {RoleRevoked} event. Requirements: - the caller must be `account`. May emit a {RoleRevoked} event."
      },
      "requestWithdrawalFor((address,address,(uint8,uint256,uint256)),uint256)": {
        "details": "Locks the assets and request withdrawal. Emits the `WithdrawalRequested` event."
      },
      "requestWithdrawalSignatures(uint256)": {
        "details": "Requests withdrawal signatures for a specific withdrawal. Emits the `WithdrawalSignaturesRequested` event."
      },
      "revokeRole(bytes32,address)": {
        "details": "Revokes `role` from `account`. If `account` had been granted `role`, emits a {RoleRevoked} event. Requirements: - the caller must have ``role``'s admin role. May emit a {RoleRevoked} event."
      },
      "setContract(uint8,address)": {
        "details": "Sets the address of a contract with a specific role. Emits the event {ContractUpdated}.",
        "params": {
          "addr": "The address of the contract to set.",
          "contractType": "The role of the contract to set."
        }
      },
      "setEmergencyPauser(address)": {
        "details": "Grant emergency pauser role for `_addr`."
      },
      "setMinimumThresholds(address[],uint256[])": {
        "details": "Sets the minimum thresholds to withdraw. Requirements: - The method caller is admin. - The arrays have the same length and its length larger than 0. Emits the `MinimumThresholdsUpdated` event."
      },
      "setThreshold(uint256,uint256)": {
        "details": "Sets the threshold. Requirements: - The method caller is admin. Emits the `ThresholdUpdated` event."
      },
      "supportsInterface(bytes4)": {
        "details": "See {IERC165-supportsInterface}."
      },
      "tryBulkAcknowledgeMainchainWithdrew(uint256[])": {
        "details": "Marks the withdrawals are done on mainchain and returns the boolean array indicating whether the withdrawal vote is already done before. Requirements: - The method caller is a validator. Emits the `MainchainWithdrew` once the valid call passes the quorum threshold."
      },
      "tryBulkDepositFor((uint256,uint8,(address,address,uint256),(address,address,uint256),(uint8,uint256,uint256))[])": {
        "details": "Tries bulk deposits based on the receipts and returns the boolean array indicating whether the deposit vote is already done before. Reverts if the deposit is invalid or is voted by the validator again. Requirements: - The method caller is a validator. Emits the `Deposited` once the assets are released."
      },
      "unpause()": {
        "details": "Triggers unpaused state."
      }
    },
    "stateVariables": {
      "WITHDRAWAL_MIGRATOR": {
        "details": "Withdrawal unlocker role hash"
      },
      "____deprecated0": {
        "custom:deprecated": "Previously `_validatorContract` (non-zero value)"
      },
      "____deprecated1": {
        "custom:deprecated": "Previously `_bridgeTrackingContract` (non-zero value)"
      },
      "____deprecated2": {
        "custom:deprecated": "Previously `_trustedOrgContract` (non-zero value)"
      },
      "_mainchainToken": {
        "details": "Mapping from token address => chain id => mainchain token address"
      },
      "_withdrawalSig": {
        "details": "Mapping from withdrawal id => validator address => signatures"
      },
      "depositVote": {
        "details": "Mapping from chain id => deposit id => deposit vote"
      },
      "mainchainWithdrewVote": {
        "details": "Mapping from withdrawal id => mainchain withdrew vote"
      },
      "withdrawal": {
        "details": "Mapping from withdrawal id => withdrawal receipt"
      },
      "withdrawalCount": {
        "details": "Total withdrawal"
      },
      "withdrawalMigrated": {
        "details": "Flag indicating whether the withdrawal migrate progress is done"
      },
      "withdrawalStatVote": {
        "details": "Mapping from withdrawal id => vote for recording withdrawal stats"
      }
    },
    "version": 1
  },
  "userdoc": {
    "kind": "user",
    "methods": {
      "depositFor((uint256,uint8,(address,address,uint256),(address,address,uint256),(uint8,uint256,uint256)))": {
        "notice": "The assets will be transferred whenever the valid call passes the quorum threshold."
      },
      "tryBulkAcknowledgeMainchainWithdrew(uint256[])": {
        "notice": "Not reverting to avoid unnecessary failed transactions because the validators can send transactions at the same time."
      },
      "tryBulkDepositFor((uint256,uint8,(address,address,uint256),(address,address,uint256),(uint8,uint256,uint256))[])": {
        "notice": "The assets will be transferred whenever the valid call for the receipt passes the quorum threshold. Not reverting to avoid unnecessary failed transactions because the validators can send transactions at the same time."
      }
    },
    "version": 1
  },
  "storageLayout": {
    "storage": [
      {
        "astId": 1535,
        "contract": "contracts/ronin/gateway/RoninGatewayV2.sol:RoninGatewayV2",
        "label": "_paused",
        "offset": 0,
        "slot": "0",
        "type": "t_bool"
      },
      {
        "astId": 4326,
        "contract": "contracts/ronin/gateway/RoninGatewayV2.sol:RoninGatewayV2",
        "label": "_num",
        "offset": 0,
        "slot": "1",
        "type": "t_uint256"
      },
      {
        "astId": 4328,
        "contract": "contracts/ronin/gateway/RoninGatewayV2.sol:RoninGatewayV2",
        "label": "_denom",
        "offset": 0,
        "slot": "2",
        "type": "t_uint256"
      },
      {
        "astId": 4330,
        "contract": "contracts/ronin/gateway/RoninGatewayV2.sol:RoninGatewayV2",
        "label": "______deprecated",
        "offset": 0,
        "slot": "3",
        "type": "t_address"
      },
      {
        "astId": 4332,
        "contract": "contracts/ronin/gateway/RoninGatewayV2.sol:RoninGatewayV2",
        "label": "nonce",
        "offset": 0,
        "slot": "4",
        "type": "t_uint256"
      },
      {
        "astId": 4334,
        "contract": "contracts/ronin/gateway/RoninGatewayV2.sol:RoninGatewayV2",
        "label": "emergencyPauser",
        "offset": 0,
        "slot": "5",
        "type": "t_address"
      },
      {
        "astId": 4339,
        "contract": "contracts/ronin/gateway/RoninGatewayV2.sol:RoninGatewayV2",
        "label": "______gap",
        "offset": 0,
        "slot": "6",
        "type": "t_array(t_uint256)49_storage"
      },
      {
        "astId": 1373,
        "contract": "contracts/ronin/gateway/RoninGatewayV2.sol:RoninGatewayV2",
        "label": "_initialized",
        "offset": 0,
        "slot": "55",
        "type": "t_uint8"
      },
      {
        "astId": 1376,
        "contract": "contracts/ronin/gateway/RoninGatewayV2.sol:RoninGatewayV2",
        "label": "_initializing",
        "offset": 1,
        "slot": "55",
        "type": "t_bool"
      },
      {
        "astId": 4868,
        "contract": "contracts/ronin/gateway/RoninGatewayV2.sol:RoninGatewayV2",
        "label": "minimumThreshold",
        "offset": 0,
        "slot": "56",
        "type": "t_mapping(t_address,t_uint256)"
      },
      {
        "astId": 4873,
        "contract": "contracts/ronin/gateway/RoninGatewayV2.sol:RoninGatewayV2",
        "label": "______gap",
        "offset": 0,
        "slot": "57",
        "type": "t_array(t_uint256)50_storage"
      },
      {
        "astId": 24,
        "contract": "contracts/ronin/gateway/RoninGatewayV2.sol:RoninGatewayV2",
        "label": "_roles",
        "offset": 0,
        "slot": "107",
        "type": "t_mapping(t_bytes32,t_struct(RoleData)19_storage)"
      },
      {
        "astId": 338,
        "contract": "contracts/ronin/gateway/RoninGatewayV2.sol:RoninGatewayV2",
        "label": "_roleMembers",
        "offset": 0,
        "slot": "108",
        "type": "t_mapping(t_bytes32,t_struct(AddressSet)4026_storage)"
      },
      {
        "astId": 28601,
        "contract": "contracts/ronin/gateway/RoninGatewayV2.sol:RoninGatewayV2",
        "label": "withdrawalMigrated",
        "offset": 0,
        "slot": "109",
        "type": "t_bool"
      },
      {
        "astId": 28604,
        "contract": "contracts/ronin/gateway/RoninGatewayV2.sol:RoninGatewayV2",
        "label": "withdrawalCount",
        "offset": 0,
        "slot": "110",
        "type": "t_uint256"
      },
      {
        "astId": 28612,
        "contract": "contracts/ronin/gateway/RoninGatewayV2.sol:RoninGatewayV2",
        "label": "depositVote",
        "offset": 0,
        "slot": "111",
        "type": "t_mapping(t_uint256,t_mapping(t_uint256,t_struct(Vote)15176_storage))"
      },
      {
        "astId": 28618,
        "contract": "contracts/ronin/gateway/RoninGatewayV2.sol:RoninGatewayV2",
        "label": "mainchainWithdrewVote",
        "offset": 0,
        "slot": "112",
        "type": "t_mapping(t_uint256,t_struct(Vote)15176_storage)"
      },
      {
        "astId": 28624,
        "contract": "contracts/ronin/gateway/RoninGatewayV2.sol:RoninGatewayV2",
        "label": "withdrawal",
        "offset": 0,
        "slot": "113",
        "type": "t_mapping(t_uint256,t_struct(Receipt)16527_storage)"
      },
      {
        "astId": 28631,
        "contract": "contracts/ronin/gateway/RoninGatewayV2.sol:RoninGatewayV2",
        "label": "_withdrawalSig",
        "offset": 0,
        "slot": "114",
        "type": "t_mapping(t_uint256,t_mapping(t_address,t_bytes_storage))"
      },
      {
        "astId": 28639,
        "contract": "contracts/ronin/gateway/RoninGatewayV2.sol:RoninGatewayV2",
        "label": "_mainchainToken",
        "offset": 0,
        "slot": "115",
        "type": "t_mapping(t_address,t_mapping(t_uint256,t_struct(MappedToken)12596_storage))"
      },
      {
        "astId": 28642,
        "contract": "contracts/ronin/gateway/RoninGatewayV2.sol:RoninGatewayV2",
        "label": "____deprecated0",
        "offset": 0,
        "slot": "116",
        "type": "t_address"
      },
      {
        "astId": 28645,
        "contract": "contracts/ronin/gateway/RoninGatewayV2.sol:RoninGatewayV2",
        "label": "____deprecated1",
        "offset": 0,
        "slot": "117",
        "type": "t_address"
      },
      {
        "astId": 28651,
        "contract": "contracts/ronin/gateway/RoninGatewayV2.sol:RoninGatewayV2",
        "label": "withdrawalStatVote",
        "offset": 0,
        "slot": "118",
        "type": "t_mapping(t_uint256,t_struct(Vote)15176_storage)"
      },
      {
        "astId": 28654,
        "contract": "contracts/ronin/gateway/RoninGatewayV2.sol:RoninGatewayV2",
        "label": "____deprecated2",
        "offset": 0,
        "slot": "119",
        "type": "t_address"
      },
      {
        "astId": 28656,
        "contract": "contracts/ronin/gateway/RoninGatewayV2.sol:RoninGatewayV2",
        "label": "_trustedNum",
        "offset": 0,
        "slot": "120",
        "type": "t_uint256"
      },
      {
        "astId": 28658,
        "contract": "contracts/ronin/gateway/RoninGatewayV2.sol:RoninGatewayV2",
        "label": "_trustedDenom",
        "offset": 0,
        "slot": "121",
        "type": "t_uint256"
      }
    ],
    "types": {
      "t_address": {
        "encoding": "inplace",
        "label": "address",
        "numberOfBytes": "20"
      },
      "t_array(t_address)dyn_storage": {
        "base": "t_address",
        "encoding": "dynamic_array",
        "label": "address[]",
        "numberOfBytes": "32"
      },
      "t_array(t_bytes32)dyn_storage": {
        "base": "t_bytes32",
        "encoding": "dynamic_array",
        "label": "bytes32[]",
        "numberOfBytes": "32"
      },
      "t_array(t_uint256)49_storage": {
        "base": "t_uint256",
        "encoding": "inplace",
        "label": "uint256[49]",
        "numberOfBytes": "1568"
      },
      "t_array(t_uint256)50_storage": {
        "base": "t_uint256",
        "encoding": "inplace",
        "label": "uint256[50]",
        "numberOfBytes": "1600"
      },
      "t_bool": {
        "encoding": "inplace",
        "label": "bool",
        "numberOfBytes": "1"
      },
      "t_bytes32": {
        "encoding": "inplace",
        "label": "bytes32",
        "numberOfBytes": "32"
      },
      "t_bytes_storage": {
        "encoding": "bytes",
        "label": "bytes",
        "numberOfBytes": "32"
      },
      "t_enum(Kind)16324": {
        "encoding": "inplace",
        "label": "enum Transfer.Kind",
        "numberOfBytes": "1"
      },
      "t_enum(Standard)15843": {
        "encoding": "inplace",
        "label": "enum Token.Standard",
        "numberOfBytes": "1"
      },
      "t_enum(VoteStatus)12623": {
        "encoding": "inplace",
        "label": "enum VoteStatusConsumer.VoteStatus",
        "numberOfBytes": "1"
      },
      "t_mapping(t_address,t_bool)": {
        "encoding": "mapping",
        "key": "t_address",
        "label": "mapping(address => bool)",
        "numberOfBytes": "32",
        "value": "t_bool"
      },
      "t_mapping(t_address,t_bytes32)": {
        "encoding": "mapping",
        "key": "t_address",
        "label": "mapping(address => bytes32)",
        "numberOfBytes": "32",
        "value": "t_bytes32"
      },
      "t_mapping(t_address,t_bytes_storage)": {
        "encoding": "mapping",
        "key": "t_address",
        "label": "mapping(address => bytes)",
        "numberOfBytes": "32",
        "value": "t_bytes_storage"
      },
      "t_mapping(t_address,t_mapping(t_uint256,t_struct(MappedToken)12596_storage))": {
        "encoding": "mapping",
        "key": "t_address",
        "label": "mapping(address => mapping(uint256 => struct MappedTokenConsumer.MappedToken))",
        "numberOfBytes": "32",
        "value": "t_mapping(t_uint256,t_struct(MappedToken)12596_storage)"
      },
      "t_mapping(t_address,t_uint256)": {
        "encoding": "mapping",
        "key": "t_address",
        "label": "mapping(address => uint256)",
        "numberOfBytes": "32",
        "value": "t_uint256"
      },
      "t_mapping(t_bytes32,t_struct(AddressSet)4026_storage)": {
        "encoding": "mapping",
        "key": "t_bytes32",
        "label": "mapping(bytes32 => struct EnumerableSet.AddressSet)",
        "numberOfBytes": "32",
        "value": "t_struct(AddressSet)4026_storage"
      },
      "t_mapping(t_bytes32,t_struct(RoleData)19_storage)": {
        "encoding": "mapping",
        "key": "t_bytes32",
        "label": "mapping(bytes32 => struct AccessControl.RoleData)",
        "numberOfBytes": "32",
        "value": "t_struct(RoleData)19_storage"
      },
      "t_mapping(t_bytes32,t_uint256)": {
        "encoding": "mapping",
        "key": "t_bytes32",
        "label": "mapping(bytes32 => uint256)",
        "numberOfBytes": "32",
        "value": "t_uint256"
      },
      "t_mapping(t_uint256,t_mapping(t_address,t_bytes_storage))": {
        "encoding": "mapping",
        "key": "t_uint256",
        "label": "mapping(uint256 => mapping(address => bytes))",
        "numberOfBytes": "32",
        "value": "t_mapping(t_address,t_bytes_storage)"
      },
      "t_mapping(t_uint256,t_mapping(t_uint256,t_struct(Vote)15176_storage))": {
        "encoding": "mapping",
        "key": "t_uint256",
        "label": "mapping(uint256 => mapping(uint256 => struct IsolatedGovernance.Vote))",
        "numberOfBytes": "32",
        "value": "t_mapping(t_uint256,t_struct(Vote)15176_storage)"
      },
      "t_mapping(t_uint256,t_struct(MappedToken)12596_storage)": {
        "encoding": "mapping",
        "key": "t_uint256",
        "label": "mapping(uint256 => struct MappedTokenConsumer.MappedToken)",
        "numberOfBytes": "32",
        "value": "t_struct(MappedToken)12596_storage"
      },
      "t_mapping(t_uint256,t_struct(Receipt)16527_storage)": {
        "encoding": "mapping",
        "key": "t_uint256",
        "label": "mapping(uint256 => struct Transfer.Receipt)",
        "numberOfBytes": "32",
        "value": "t_struct(Receipt)16527_storage"
      },
      "t_mapping(t_uint256,t_struct(Vote)15176_storage)": {
        "encoding": "mapping",
        "key": "t_uint256",
        "label": "mapping(uint256 => struct IsolatedGovernance.Vote)",
        "numberOfBytes": "32",
        "value": "t_struct(Vote)15176_storage"
      },
      "t_struct(AddressSet)4026_storage": {
        "encoding": "inplace",
        "label": "struct EnumerableSet.AddressSet",
        "members": [
          {
            "astId": 4025,
            "contract": "contracts/ronin/gateway/RoninGatewayV2.sol:RoninGatewayV2",
            "label": "_inner",
            "offset": 0,
            "slot": "0",
            "type": "t_struct(Set)3725_storage"
          }
        ],
        "numberOfBytes": "64"
      },
      "t_struct(Info)15851_storage": {
        "encoding": "inplace",
        "label": "struct Token.Info",
        "members": [
          {
            "astId": 15846,
            "contract": "contracts/ronin/gateway/RoninGatewayV2.sol:RoninGatewayV2",
            "label": "erc",
            "offset": 0,
            "slot": "0",
            "type": "t_enum(Standard)15843"
          },
          {
            "astId": 15848,
            "contract": "contracts/ronin/gateway/RoninGatewayV2.sol:RoninGatewayV2",
            "label": "id",
            "offset": 0,
            "slot": "1",
            "type": "t_uint256"
          },
          {
            "astId": 15850,
            "contract": "contracts/ronin/gateway/RoninGatewayV2.sol:RoninGatewayV2",
            "label": "quantity",
            "offset": 0,
            "slot": "2",
            "type": "t_uint256"
          }
        ],
        "numberOfBytes": "96"
      },
      "t_struct(MappedToken)12596_storage": {
        "encoding": "inplace",
        "label": "struct MappedTokenConsumer.MappedToken",
        "members": [
          {
            "astId": 12593,
            "contract": "contracts/ronin/gateway/RoninGatewayV2.sol:RoninGatewayV2",
            "label": "erc",
            "offset": 0,
            "slot": "0",
            "type": "t_enum(Standard)15843"
          },
          {
            "astId": 12595,
            "contract": "contracts/ronin/gateway/RoninGatewayV2.sol:RoninGatewayV2",
            "label": "tokenAddr",
            "offset": 1,
            "slot": "0",
            "type": "t_address"
          }
        ],
        "numberOfBytes": "32"
      },
      "t_struct(Owner)16298_storage": {
        "encoding": "inplace",
        "label": "struct Token.Owner",
        "members": [
          {
            "astId": 16293,
            "contract": "contracts/ronin/gateway/RoninGatewayV2.sol:RoninGatewayV2",
            "label": "addr",
            "offset": 0,
            "slot": "0",
            "type": "t_address"
          },
          {
            "astId": 16295,
            "contract": "contracts/ronin/gateway/RoninGatewayV2.sol:RoninGatewayV2",
            "label": "tokenAddr",
            "offset": 0,
            "slot": "1",
            "type": "t_address"
          },
          {
            "astId": 16297,
            "contract": "contracts/ronin/gateway/RoninGatewayV2.sol:RoninGatewayV2",
            "label": "chainId",
            "offset": 0,
            "slot": "2",
            "type": "t_uint256"
          }
        ],
        "numberOfBytes": "96"
      },
      "t_struct(Receipt)16527_storage": {
        "encoding": "inplace",
        "label": "struct Transfer.Receipt",
        "members": [
          {
            "astId": 16514,
            "contract": "contracts/ronin/gateway/RoninGatewayV2.sol:RoninGatewayV2",
            "label": "id",
            "offset": 0,
            "slot": "0",
            "type": "t_uint256"
          },
          {
            "astId": 16517,
            "contract": "contracts/ronin/gateway/RoninGatewayV2.sol:RoninGatewayV2",
            "label": "kind",
            "offset": 0,
            "slot": "1",
            "type": "t_enum(Kind)16324"
          },
          {
            "astId": 16520,
            "contract": "contracts/ronin/gateway/RoninGatewayV2.sol:RoninGatewayV2",
            "label": "mainchain",
            "offset": 0,
            "slot": "2",
            "type": "t_struct(Owner)16298_storage"
          },
          {
            "astId": 16523,
            "contract": "contracts/ronin/gateway/RoninGatewayV2.sol:RoninGatewayV2",
            "label": "ronin",
            "offset": 0,
            "slot": "5",
            "type": "t_struct(Owner)16298_storage"
          },
          {
            "astId": 16526,
            "contract": "contracts/ronin/gateway/RoninGatewayV2.sol:RoninGatewayV2",
            "label": "info",
            "offset": 0,
            "slot": "8",
            "type": "t_struct(Info)15851_storage"
          }
        ],
        "numberOfBytes": "352"
      },
      "t_struct(RoleData)19_storage": {
        "encoding": "inplace",
        "label": "struct AccessControl.RoleData",
        "members": [
          {
            "astId": 16,
            "contract": "contracts/ronin/gateway/RoninGatewayV2.sol:RoninGatewayV2",
            "label": "members",
            "offset": 0,
            "slot": "0",
            "type": "t_mapping(t_address,t_bool)"
          },
          {
            "astId": 18,
            "contract": "contracts/ronin/gateway/RoninGatewayV2.sol:RoninGatewayV2",
            "label": "adminRole",
            "offset": 0,
            "slot": "1",
            "type": "t_bytes32"
          }
        ],
        "numberOfBytes": "64"
      },
      "t_struct(Set)3725_storage": {
        "encoding": "inplace",
        "label": "struct EnumerableSet.Set",
        "members": [
          {
            "astId": 3720,
            "contract": "contracts/ronin/gateway/RoninGatewayV2.sol:RoninGatewayV2",
            "label": "_values",
            "offset": 0,
            "slot": "0",
            "type": "t_array(t_bytes32)dyn_storage"
          },
          {
            "astId": 3724,
            "contract": "contracts/ronin/gateway/RoninGatewayV2.sol:RoninGatewayV2",
            "label": "_indexes",
            "offset": 0,
            "slot": "1",
            "type": "t_mapping(t_bytes32,t_uint256)"
          }
        ],
        "numberOfBytes": "64"
      },
      "t_struct(Vote)15176_storage": {
        "encoding": "inplace",
        "label": "struct IsolatedGovernance.Vote",
        "members": [
          {
            "astId": 15158,
            "contract": "contracts/ronin/gateway/RoninGatewayV2.sol:RoninGatewayV2",
            "label": "status",
            "offset": 0,
            "slot": "0",
            "type": "t_enum(VoteStatus)12623"
          },
          {
            "astId": 15160,
            "contract": "contracts/ronin/gateway/RoninGatewayV2.sol:RoninGatewayV2",
            "label": "finalHash",
            "offset": 0,
            "slot": "1",
            "type": "t_bytes32"
          },
          {
            "astId": 15165,
            "contract": "contracts/ronin/gateway/RoninGatewayV2.sol:RoninGatewayV2",
            "label": "voteHashOf",
            "offset": 0,
            "slot": "2",
            "type": "t_mapping(t_address,t_bytes32)"
          },
          {
            "astId": 15168,
            "contract": "contracts/ronin/gateway/RoninGatewayV2.sol:RoninGatewayV2",
            "label": "expiredAt",
            "offset": 0,
            "slot": "3",
            "type": "t_uint256"
          },
          {
            "astId": 15171,
            "contract": "contracts/ronin/gateway/RoninGatewayV2.sol:RoninGatewayV2",
            "label": "createdAt",
            "offset": 0,
            "slot": "4",
            "type": "t_uint256"
          },
          {
            "astId": 15175,
            "contract": "contracts/ronin/gateway/RoninGatewayV2.sol:RoninGatewayV2",
            "label": "voters",
            "offset": 0,
            "slot": "5",
            "type": "t_array(t_address)dyn_storage"
          }
        ],
        "numberOfBytes": "192"
      },
      "t_uint256": {
        "encoding": "inplace",
        "label": "uint256",
        "numberOfBytes": "32"
      },
      "t_uint8": {
        "encoding": "inplace",
        "label": "uint8",
        "numberOfBytes": "1"
      }
    }
  }
}