{
  "address": "0x7937cd66D0B7b6fa2D042fc0279EC78ef3d7cC9b",
  "abi": [
    {
      "inputs": [],
      "name": "ErrCallerMustBeBridgeTrackingContract",
      "type": "error"
    },
    {
      "inputs": [],
      "name": "ErrCallerMustBeValidatorContract",
      "type": "error"
    },
    {
      "inputs": [],
      "name": "ErrZeroCodeContract",
      "type": "error"
    },
    {
      "anonymous": false,
      "inputs": [
        {
          "indexed": false,
          "internalType": "address",
          "name": "",
          "type": "address"
        }
      ],
      "name": "BridgeTrackingContractUpdated",
      "type": "event"
    },
    {
      "anonymous": false,
      "inputs": [
        {
          "indexed": false,
          "internalType": "bytes32",
          "name": "receiptHash",
          "type": "bytes32"
        },
        {
          "components": [
            {
              "internalType": "uint256",
              "name": "id",
              "type": "uint256"
            },
            {
              "internalType": "enum Transfer.Kind",
              "name": "kind",
              "type": "uint8"
            },
            {
              "components": [
                {
                  "internalType": "address",
                  "name": "addr",
                  "type": "address"
                },
                {
                  "internalType": "address",
                  "name": "tokenAddr",
                  "type": "address"
                },
                {
                  "internalType": "uint256",
                  "name": "chainId",
                  "type": "uint256"
                }
              ],
              "internalType": "struct Token.Owner",
              "name": "mainchain",
              "type": "tuple"
            },
            {
              "components": [
                {
                  "internalType": "address",
                  "name": "addr",
                  "type": "address"
                },
                {
                  "internalType": "address",
                  "name": "tokenAddr",
                  "type": "address"
                },
                {
                  "internalType": "uint256",
                  "name": "chainId",
                  "type": "uint256"
                }
              ],
              "internalType": "struct Token.Owner",
              "name": "ronin",
              "type": "tuple"
            },
            {
              "components": [
                {
                  "internalType": "enum Token.Standard",
                  "name": "erc",
                  "type": "uint8"
                },
                {
                  "internalType": "uint256",
                  "name": "id",
                  "type": "uint256"
                },
                {
                  "internalType": "uint256",
                  "name": "quantity",
                  "type": "uint256"
                }
              ],
              "internalType": "struct Token.Info",
              "name": "info",
              "type": "tuple"
            }
          ],
          "indexed": false,
          "internalType": "struct Transfer.Receipt",
          "name": "receipt",
          "type": "tuple"
        }
      ],
      "name": "Deposited",
      "type": "event"
    },
    {
      "anonymous": false,
      "inputs": [
        {
          "indexed": false,
          "internalType": "uint8",
          "name": "version",
          "type": "uint8"
        }
      ],
      "name": "Initialized",
      "type": "event"
    },
    {
      "anonymous": false,
      "inputs": [
        {
          "indexed": false,
          "internalType": "bytes32",
          "name": "receiptHash",
          "type": "bytes32"
        },
        {
          "components": [
            {
              "internalType": "uint256",
              "name": "id",
              "type": "uint256"
            },
            {
              "internalType": "enum Transfer.Kind",
              "name": "kind",
              "type": "uint8"
            },
            {
              "components": [
                {
                  "internalType": "address",
                  "name": "addr",
                  "type": "address"
                },
                {
                  "internalType": "address",
                  "name": "tokenAddr",
                  "type": "address"
                },
                {
                  "internalType": "uint256",
                  "name": "chainId",
                  "type": "uint256"
                }
              ],
              "internalType": "struct Token.Owner",
              "name": "mainchain",
              "type": "tuple"
            },
            {
              "components": [
                {
                  "internalType": "address",
                  "name": "addr",
                  "type": "address"
                },
                {
                  "internalType": "address",
                  "name": "tokenAddr",
                  "type": "address"
                },
                {
                  "internalType": "uint256",
                  "name": "chainId",
                  "type": "uint256"
                }
              ],
              "internalType": "struct Token.Owner",
              "name": "ronin",
              "type": "tuple"
            },
            {
              "components": [
                {
                  "internalType": "enum Token.Standard",
                  "name": "erc",
                  "type": "uint8"
                },
                {
                  "internalType": "uint256",
                  "name": "id",
                  "type": "uint256"
                },
                {
                  "internalType": "uint256",
                  "name": "quantity",
                  "type": "uint256"
                }
              ],
              "internalType": "struct Token.Info",
              "name": "info",
              "type": "tuple"
            }
          ],
          "indexed": false,
          "internalType": "struct Transfer.Receipt",
          "name": "receipt",
          "type": "tuple"
        }
      ],
      "name": "MainchainWithdrew",
      "type": "event"
    },
    {
      "anonymous": false,
      "inputs": [
        {
          "indexed": false,
          "internalType": "address[]",
          "name": "tokens",
          "type": "address[]"
        },
        {
          "indexed": false,
          "internalType": "uint256[]",
          "name": "threshold",
          "type": "uint256[]"
        }
      ],
      "name": "MinimumThresholdsUpdated",
      "type": "event"
    },
    {
      "anonymous": false,
      "inputs": [
        {
          "indexed": false,
          "internalType": "address",
          "name": "account",
          "type": "address"
        }
      ],
      "name": "Paused",
      "type": "event"
    },
    {
      "anonymous": false,
      "inputs": [
        {
          "indexed": true,
          "internalType": "bytes32",
          "name": "role",
          "type": "bytes32"
        },
        {
          "indexed": true,
          "internalType": "bytes32",
          "name": "previousAdminRole",
          "type": "bytes32"
        },
        {
          "indexed": true,
          "internalType": "bytes32",
          "name": "newAdminRole",
          "type": "bytes32"
        }
      ],
      "name": "RoleAdminChanged",
      "type": "event"
    },
    {
      "anonymous": false,
      "inputs": [
        {
          "indexed": true,
          "internalType": "bytes32",
          "name": "role",
          "type": "bytes32"
        },
        {
          "indexed": true,
          "internalType": "address",
          "name": "account",
          "type": "address"
        },
        {
          "indexed": true,
          "internalType": "address",
          "name": "sender",
          "type": "address"
        }
      ],
      "name": "RoleGranted",
      "type": "event"
    },
    {
      "anonymous": false,
      "inputs": [
        {
          "indexed": true,
          "internalType": "bytes32",
          "name": "role",
          "type": "bytes32"
        },
        {
          "indexed": true,
          "internalType": "address",
          "name": "account",
          "type": "address"
        },
        {
          "indexed": true,
          "internalType": "address",
          "name": "sender",
          "type": "address"
        }
      ],
      "name": "RoleRevoked",
      "type": "event"
    },
    {
      "anonymous": false,
      "inputs": [
        {
          "indexed": true,
          "internalType": "uint256",
          "name": "nonce",
          "type": "uint256"
        },
        {
          "indexed": true,
          "internalType": "uint256",
          "name": "numerator",
          "type": "uint256"
        },
        {
          "indexed": true,
          "internalType": "uint256",
          "name": "denominator",
          "type": "uint256"
        },
        {
          "indexed": false,
          "internalType": "uint256",
          "name": "previousNumerator",
          "type": "uint256"
        },
        {
          "indexed": false,
          "internalType": "uint256",
          "name": "previousDenominator",
          "type": "uint256"
        }
      ],
      "name": "ThresholdUpdated",
      "type": "event"
    },
    {
      "anonymous": false,
      "inputs": [
        {
          "indexed": false,
          "internalType": "address[]",
          "name": "roninTokens",
          "type": "address[]"
        },
        {
          "indexed": false,
          "internalType": "address[]",
          "name": "mainchainTokens",
          "type": "address[]"
        },
        {
          "indexed": false,
          "internalType": "uint256[]",
          "name": "chainIds",
          "type": "uint256[]"
        },
        {
          "indexed": false,
          "internalType": "enum Token.Standard[]",
          "name": "standards",
          "type": "uint8[]"
        }
      ],
      "name": "TokenMapped",
      "type": "event"
    },
    {
      "anonymous": false,
      "inputs": [
        {
          "indexed": false,
          "internalType": "address",
          "name": "account",
          "type": "address"
        }
      ],
      "name": "Unpaused",
      "type": "event"
    },
    {
      "anonymous": false,
      "inputs": [
        {
          "indexed": false,
          "internalType": "address",
          "name": "",
          "type": "address"
        }
      ],
      "name": "ValidatorContractUpdated",
      "type": "event"
    },
    {
      "anonymous": false,
      "inputs": [
        {
          "indexed": false,
          "internalType": "bytes32",
          "name": "receiptHash",
          "type": "bytes32"
        },
        {
          "components": [
            {
              "internalType": "uint256",
              "name": "id",
              "type": "uint256"
            },
            {
              "internalType": "enum Transfer.Kind",
              "name": "kind",
              "type": "uint8"
            },
            {
              "components": [
                {
                  "internalType": "address",
                  "name": "addr",
                  "type": "address"
                },
                {
                  "internalType": "address",
                  "name": "tokenAddr",
                  "type": "address"
                },
                {
                  "internalType": "uint256",
                  "name": "chainId",
                  "type": "uint256"
                }
              ],
              "internalType": "struct Token.Owner",
              "name": "mainchain",
              "type": "tuple"
            },
            {
              "components": [
                {
                  "internalType": "address",
                  "name": "addr",
                  "type": "address"
                },
                {
                  "internalType": "address",
                  "name": "tokenAddr",
                  "type": "address"
                },
                {
                  "internalType": "uint256",
                  "name": "chainId",
                  "type": "uint256"
                }
              ],
              "internalType": "struct Token.Owner",
              "name": "ronin",
              "type": "tuple"
            },
            {
              "components": [
                {
                  "internalType": "enum Token.Standard",
                  "name": "erc",
                  "type": "uint8"
                },
                {
                  "internalType": "uint256",
                  "name": "id",
                  "type": "uint256"
                },
                {
                  "internalType": "uint256",
                  "name": "quantity",
                  "type": "uint256"
                }
              ],
              "internalType": "struct Token.Info",
              "name": "info",
              "type": "tuple"
            }
          ],
          "indexed": false,
          "internalType": "struct Transfer.Receipt",
          "name": "",
          "type": "tuple"
        }
      ],
      "name": "WithdrawalRequested",
      "type": "event"
    },
    {
      "anonymous": false,
      "inputs": [
        {
          "indexed": false,
          "internalType": "bytes32",
          "name": "receiptHash",
          "type": "bytes32"
        },
        {
          "components": [
            {
              "internalType": "uint256",
              "name": "id",
              "type": "uint256"
            },
            {
              "internalType": "enum Transfer.Kind",
              "name": "kind",
              "type": "uint8"
            },
            {
              "components": [
                {
                  "internalType": "address",
                  "name": "addr",
                  "type": "address"
                },
                {
                  "internalType": "address",
                  "name": "tokenAddr",
                  "type": "address"
                },
                {
                  "internalType": "uint256",
                  "name": "chainId",
                  "type": "uint256"
                }
              ],
              "internalType": "struct Token.Owner",
              "name": "mainchain",
              "type": "tuple"
            },
            {
              "components": [
                {
                  "internalType": "address",
                  "name": "addr",
                  "type": "address"
                },
                {
                  "internalType": "address",
                  "name": "tokenAddr",
                  "type": "address"
                },
                {
                  "internalType": "uint256",
                  "name": "chainId",
                  "type": "uint256"
                }
              ],
              "internalType": "struct Token.Owner",
              "name": "ronin",
              "type": "tuple"
            },
            {
              "components": [
                {
                  "internalType": "enum Token.Standard",
                  "name": "erc",
                  "type": "uint8"
                },
                {
                  "internalType": "uint256",
                  "name": "id",
                  "type": "uint256"
                },
                {
                  "internalType": "uint256",
                  "name": "quantity",
                  "type": "uint256"
                }
              ],
              "internalType": "struct Token.Info",
              "name": "info",
              "type": "tuple"
            }
          ],
          "indexed": false,
          "internalType": "struct Transfer.Receipt",
          "name": "",
          "type": "tuple"
        }
      ],
      "name": "WithdrawalSignaturesRequested",
      "type": "event"
    },
    {
      "stateMutability": "payable",
      "type": "fallback"
    },
    {
      "inputs": [],
      "name": "DEFAULT_ADMIN_ROLE",
      "outputs": [
        {
          "internalType": "bytes32",
          "name": "",
          "type": "bytes32"
        }
      ],
      "stateMutability": "view",
      "type": "function"
    },
    {
      "inputs": [],
      "name": "WITHDRAWAL_MIGRATOR",
      "outputs": [
        {
          "internalType": "bytes32",
          "name": "",
          "type": "bytes32"
        }
      ],
      "stateMutability": "view",
      "type": "function"
    },
    {
      "inputs": [],
      "name": "bridgeTrackingContract",
      "outputs": [
        {
          "internalType": "address",
          "name": "",
          "type": "address"
        }
      ],
      "stateMutability": "view",
      "type": "function"
    },
    {
      "inputs": [
        {
          "components": [
            {
              "internalType": "address",
              "name": "recipientAddr",
              "type": "address"
            },
            {
              "internalType": "address",
              "name": "tokenAddr",
              "type": "address"
            },
            {
              "components": [
                {
                  "internalType": "enum Token.Standard",
                  "name": "erc",
                  "type": "uint8"
                },
                {
                  "internalType": "uint256",
                  "name": "id",
                  "type": "uint256"
                },
                {
                  "internalType": "uint256",
                  "name": "quantity",
                  "type": "uint256"
                }
              ],
              "internalType": "struct Token.Info",
              "name": "info",
              "type": "tuple"
            }
          ],
          "internalType": "struct Transfer.Request[]",
          "name": "_requests",
          "type": "tuple[]"
        },
        {
          "internalType": "uint256",
          "name": "_chainId",
          "type": "uint256"
        }
      ],
      "name": "bulkRequestWithdrawalFor",
      "outputs": [],
      "stateMutability": "nonpayable",
      "type": "function"
    },
    {
      "inputs": [
        {
          "internalType": "uint256[]",
          "name": "_withdrawals",
          "type": "uint256[]"
        },
        {
          "internalType": "bytes[]",
          "name": "_signatures",
          "type": "bytes[]"
        }
      ],
      "name": "bulkSubmitWithdrawalSignatures",
      "outputs": [],
      "stateMutability": "nonpayable",
      "type": "function"
    },
    {
      "inputs": [
        {
          "internalType": "uint256",
          "name": "_voteWeight",
          "type": "uint256"
        }
      ],
      "name": "checkThreshold",
      "outputs": [
        {
          "internalType": "bool",
          "name": "",
          "type": "bool"
        }
      ],
      "stateMutability": "view",
      "type": "function"
    },
    {
      "inputs": [
        {
          "components": [
            {
              "internalType": "uint256",
              "name": "id",
              "type": "uint256"
            },
            {
              "internalType": "enum Transfer.Kind",
              "name": "kind",
              "type": "uint8"
            },
            {
              "components": [
                {
                  "internalType": "address",
                  "name": "addr",
                  "type": "address"
                },
                {
                  "internalType": "address",
                  "name": "tokenAddr",
                  "type": "address"
                },
                {
                  "internalType": "uint256",
                  "name": "chainId",
                  "type": "uint256"
                }
              ],
              "internalType": "struct Token.Owner",
              "name": "mainchain",
              "type": "tuple"
            },
            {
              "components": [
                {
                  "internalType": "address",
                  "name": "addr",
                  "type": "address"
                },
                {
                  "internalType": "address",
                  "name": "tokenAddr",
                  "type": "address"
                },
                {
                  "internalType": "uint256",
                  "name": "chainId",
                  "type": "uint256"
                }
              ],
              "internalType": "struct Token.Owner",
              "name": "ronin",
              "type": "tuple"
            },
            {
              "components": [
                {
                  "internalType": "enum Token.Standard",
                  "name": "erc",
                  "type": "uint8"
                },
                {
                  "internalType": "uint256",
                  "name": "id",
                  "type": "uint256"
                },
                {
                  "internalType": "uint256",
                  "name": "quantity",
                  "type": "uint256"
                }
              ],
              "internalType": "struct Token.Info",
              "name": "info",
              "type": "tuple"
            }
          ],
          "internalType": "struct Transfer.Receipt",
          "name": "_receipt",
          "type": "tuple"
        }
      ],
      "name": "depositFor",
      "outputs": [],
      "stateMutability": "nonpayable",
      "type": "function"
    },
    {
      "inputs": [
        {
          "internalType": "uint256",
          "name": "",
          "type": "uint256"
        },
        {
          "internalType": "uint256",
          "name": "",
          "type": "uint256"
        }
      ],
      "name": "depositVote",
      "outputs": [
        {
          "internalType": "enum VoteStatusConsumer.VoteStatus",
          "name": "status",
          "type": "uint8"
        },
        {
          "internalType": "bytes32",
          "name": "finalHash",
          "type": "bytes32"
        },
        {
          "internalType": "uint256",
          "name": "expiredAt",
          "type": "uint256"
        },
        {
          "internalType": "uint256",
          "name": "createdAt",
          "type": "uint256"
        }
      ],
      "stateMutability": "view",
      "type": "function"
    },
    {
      "inputs": [
        {
          "internalType": "uint256",
          "name": "_chainId",
          "type": "uint256"
        },
        {
          "internalType": "uint256",
          "name": "_depositId",
          "type": "uint256"
        },
        {
          "internalType": "address",
          "name": "_voter",
          "type": "address"
        }
      ],
      "name": "depositVoted",
      "outputs": [
        {
          "internalType": "bool",
          "name": "",
          "type": "bool"
        }
      ],
      "stateMutability": "view",
      "type": "function"
    },
    {
      "inputs": [
        {
          "internalType": "address",
          "name": "_roninToken",
          "type": "address"
        },
        {
          "internalType": "uint256",
          "name": "_chainId",
          "type": "uint256"
        }
      ],
      "name": "getMainchainToken",
      "outputs": [
        {
          "components": [
            {
              "internalType": "enum Token.Standard",
              "name": "erc",
              "type": "uint8"
            },
            {
              "internalType": "address",
              "name": "tokenAddr",
              "type": "address"
            }
          ],
          "internalType": "struct MappedTokenConsumer.MappedToken",
          "name": "_token",
          "type": "tuple"
        }
      ],
      "stateMutability": "view",
      "type": "function"
    },
    {
      "inputs": [
        {
          "internalType": "bytes32",
          "name": "role",
          "type": "bytes32"
        }
      ],
      "name": "getRoleAdmin",
      "outputs": [
        {
          "internalType": "bytes32",
          "name": "",
          "type": "bytes32"
        }
      ],
      "stateMutability": "view",
      "type": "function"
    },
    {
      "inputs": [
        {
          "internalType": "bytes32",
          "name": "role",
          "type": "bytes32"
        },
        {
          "internalType": "uint256",
          "name": "index",
          "type": "uint256"
        }
      ],
      "name": "getRoleMember",
      "outputs": [
        {
          "internalType": "address",
          "name": "",
          "type": "address"
        }
      ],
      "stateMutability": "view",
      "type": "function"
    },
    {
      "inputs": [
        {
          "internalType": "bytes32",
          "name": "role",
          "type": "bytes32"
        }
      ],
      "name": "getRoleMemberCount",
      "outputs": [
        {
          "internalType": "uint256",
          "name": "",
          "type": "uint256"
        }
      ],
      "stateMutability": "view",
      "type": "function"
    },
    {
      "inputs": [],
      "name": "getThreshold",
      "outputs": [
        {
          "internalType": "uint256",
          "name": "num_",
          "type": "uint256"
        },
        {
          "internalType": "uint256",
          "name": "denom_",
          "type": "uint256"
        }
      ],
      "stateMutability": "view",
      "type": "function"
    },
    {
      "inputs": [
        {
          "internalType": "uint256",
          "name": "_withdrawalId",
          "type": "uint256"
        },
        {
          "internalType": "address[]",
          "name": "_validators",
          "type": "address[]"
        }
      ],
      "name": "getWithdrawalSignatures",
      "outputs": [
        {
          "internalType": "bytes[]",
          "name": "_signatures",
          "type": "bytes[]"
        }
      ],
      "stateMutability": "view",
      "type": "function"
    },
    {
      "inputs": [
        {
          "internalType": "bytes32",
          "name": "role",
          "type": "bytes32"
        },
        {
          "internalType": "address",
          "name": "account",
          "type": "address"
        }
      ],
      "name": "grantRole",
      "outputs": [],
      "stateMutability": "nonpayable",
      "type": "function"
    },
    {
      "inputs": [
        {
          "internalType": "bytes32",
          "name": "role",
          "type": "bytes32"
        },
        {
          "internalType": "address",
          "name": "account",
          "type": "address"
        }
      ],
      "name": "hasRole",
      "outputs": [
        {
          "internalType": "bool",
          "name": "",
          "type": "bool"
        }
      ],
      "stateMutability": "view",
      "type": "function"
    },
    {
      "inputs": [
        {
          "internalType": "address",
          "name": "_roleSetter",
          "type": "address"
        },
        {
          "internalType": "uint256",
          "name": "_numerator",
          "type": "uint256"
        },
        {
          "internalType": "uint256",
          "name": "_denominator",
          "type": "uint256"
        },
        {
          "internalType": "address[]",
          "name": "_withdrawalMigrators",
          "type": "address[]"
        },
        {
          "internalType": "address[][2]",
          "name": "_packedAddresses",
          "type": "address[][2]"
        },
        {
          "internalType": "uint256[][2]",
          "name": "_packedNumbers",
          "type": "uint256[][2]"
        },
        {
          "internalType": "enum Token.Standard[]",
          "name": "_standards",
          "type": "uint8[]"
        }
      ],
      "name": "initialize",
      "outputs": [],
      "stateMutability": "nonpayable",
      "type": "function"
    },
    {
      "inputs": [
        {
          "internalType": "uint256",
          "name": "_withdrawalId",
          "type": "uint256"
        }
      ],
      "name": "mainchainWithdrew",
      "outputs": [
        {
          "internalType": "bool",
          "name": "",
          "type": "bool"
        }
      ],
      "stateMutability": "view",
      "type": "function"
    },
    {
      "inputs": [
        {
          "internalType": "uint256",
          "name": "",
          "type": "uint256"
        }
      ],
      "name": "mainchainWithdrewVote",
      "outputs": [
        {
          "internalType": "enum VoteStatusConsumer.VoteStatus",
          "name": "status",
          "type": "uint8"
        },
        {
          "internalType": "bytes32",
          "name": "finalHash",
          "type": "bytes32"
        },
        {
          "internalType": "uint256",
          "name": "expiredAt",
          "type": "uint256"
        },
        {
          "internalType": "uint256",
          "name": "createdAt",
          "type": "uint256"
        }
      ],
      "stateMutability": "view",
      "type": "function"
    },
    {
      "inputs": [
        {
          "internalType": "uint256",
          "name": "_withdrawalId",
          "type": "uint256"
        },
        {
          "internalType": "address",
          "name": "_voter",
          "type": "address"
        }
      ],
      "name": "mainchainWithdrewVoted",
      "outputs": [
        {
          "internalType": "bool",
          "name": "",
          "type": "bool"
        }
      ],
      "stateMutability": "view",
      "type": "function"
    },
    {
      "inputs": [
        {
          "internalType": "address[]",
          "name": "_roninTokens",
          "type": "address[]"
        },
        {
          "internalType": "address[]",
          "name": "_mainchainTokens",
          "type": "address[]"
        },
        {
          "internalType": "uint256[]",
          "name": "_chainIds",
          "type": "uint256[]"
        },
        {
          "internalType": "enum Token.Standard[]",
          "name": "_standards",
          "type": "uint8[]"
        }
      ],
      "name": "mapTokens",
      "outputs": [],
      "stateMutability": "nonpayable",
      "type": "function"
    },
    {
      "inputs": [],
      "name": "markWithdrawalMigrated",
      "outputs": [],
      "stateMutability": "nonpayable",
      "type": "function"
    },
    {
      "inputs": [
        {
          "components": [
            {
              "internalType": "address",
              "name": "recipientAddr",
              "type": "address"
            },
            {
              "internalType": "address",
              "name": "tokenAddr",
              "type": "address"
            },
            {
              "components": [
                {
                  "internalType": "enum Token.Standard",
                  "name": "erc",
                  "type": "uint8"
                },
                {
                  "internalType": "uint256",
                  "name": "id",
                  "type": "uint256"
                },
                {
                  "internalType": "uint256",
                  "name": "quantity",
                  "type": "uint256"
                }
              ],
              "internalType": "struct Token.Info",
              "name": "info",
              "type": "tuple"
            }
          ],
          "internalType": "struct Transfer.Request[]",
          "name": "_requests",
          "type": "tuple[]"
        },
        {
          "internalType": "address[]",
          "name": "_requesters",
          "type": "address[]"
        }
      ],
      "name": "migrateWithdrawals",
      "outputs": [],
      "stateMutability": "nonpayable",
      "type": "function"
    },
    {
      "inputs": [
        {
          "internalType": "address",
          "name": "",
          "type": "address"
        }
      ],
      "name": "minimumThreshold",
      "outputs": [
        {
          "internalType": "uint256",
          "name": "",
          "type": "uint256"
        }
      ],
      "stateMutability": "view",
      "type": "function"
    },
    {
      "inputs": [],
      "name": "minimumVoteWeight",
      "outputs": [
        {
          "internalType": "uint256",
          "name": "",
          "type": "uint256"
        }
      ],
      "stateMutability": "view",
      "type": "function"
    },
    {
      "inputs": [],
      "name": "nonce",
      "outputs": [
        {
          "internalType": "uint256",
          "name": "",
          "type": "uint256"
        }
      ],
      "stateMutability": "view",
      "type": "function"
    },
    {
      "inputs": [],
      "name": "pause",
      "outputs": [],
      "stateMutability": "nonpayable",
      "type": "function"
    },
    {
      "inputs": [],
      "name": "paused",
      "outputs": [
        {
          "internalType": "bool",
          "name": "",
          "type": "bool"
        }
      ],
      "stateMutability": "view",
      "type": "function"
    },
    {
      "inputs": [
        {
          "internalType": "bytes32",
          "name": "role",
          "type": "bytes32"
        },
        {
          "internalType": "address",
          "name": "account",
          "type": "address"
        }
      ],
      "name": "renounceRole",
      "outputs": [],
      "stateMutability": "nonpayable",
      "type": "function"
    },
    {
      "inputs": [
        {
          "components": [
            {
              "internalType": "address",
              "name": "recipientAddr",
              "type": "address"
            },
            {
              "internalType": "address",
              "name": "tokenAddr",
              "type": "address"
            },
            {
              "components": [
                {
                  "internalType": "enum Token.Standard",
                  "name": "erc",
                  "type": "uint8"
                },
                {
                  "internalType": "uint256",
                  "name": "id",
                  "type": "uint256"
                },
                {
                  "internalType": "uint256",
                  "name": "quantity",
                  "type": "uint256"
                }
              ],
              "internalType": "struct Token.Info",
              "name": "info",
              "type": "tuple"
            }
          ],
          "internalType": "struct Transfer.Request",
          "name": "_request",
          "type": "tuple"
        },
        {
          "internalType": "uint256",
          "name": "_chainId",
          "type": "uint256"
        }
      ],
      "name": "requestWithdrawalFor",
      "outputs": [],
      "stateMutability": "nonpayable",
      "type": "function"
    },
    {
      "inputs": [
        {
          "internalType": "uint256",
          "name": "_withdrawalId",
          "type": "uint256"
        }
      ],
      "name": "requestWithdrawalSignatures",
      "outputs": [],
      "stateMutability": "nonpayable",
      "type": "function"
    },
    {
      "inputs": [
        {
          "internalType": "bytes32",
          "name": "role",
          "type": "bytes32"
        },
        {
          "internalType": "address",
          "name": "account",
          "type": "address"
        }
      ],
      "name": "revokeRole",
      "outputs": [],
      "stateMutability": "nonpayable",
      "type": "function"
    },
    {
      "inputs": [
        {
          "internalType": "address",
          "name": "_addr",
          "type": "address"
        }
      ],
      "name": "setBridgeTrackingContract",
      "outputs": [],
      "stateMutability": "nonpayable",
      "type": "function"
    },
    {
      "inputs": [
        {
          "internalType": "address[]",
          "name": "_tokens",
          "type": "address[]"
        },
        {
          "internalType": "uint256[]",
          "name": "_thresholds",
          "type": "uint256[]"
        }
      ],
      "name": "setMinimumThresholds",
      "outputs": [],
      "stateMutability": "nonpayable",
      "type": "function"
    },
    {
      "inputs": [
        {
          "internalType": "uint256",
          "name": "_numerator",
          "type": "uint256"
        },
        {
          "internalType": "uint256",
          "name": "_denominator",
          "type": "uint256"
        }
      ],
      "name": "setThreshold",
      "outputs": [
        {
          "internalType": "uint256",
          "name": "",
          "type": "uint256"
        },
        {
          "internalType": "uint256",
          "name": "",
          "type": "uint256"
        }
      ],
      "stateMutability": "nonpayable",
      "type": "function"
    },
    {
      "inputs": [
        {
          "internalType": "address",
          "name": "_addr",
          "type": "address"
        }
      ],
      "name": "setValidatorContract",
      "outputs": [],
      "stateMutability": "nonpayable",
      "type": "function"
    },
    {
      "inputs": [
        {
          "internalType": "bytes4",
          "name": "interfaceId",
          "type": "bytes4"
        }
      ],
      "name": "supportsInterface",
      "outputs": [
        {
          "internalType": "bool",
          "name": "",
          "type": "bool"
        }
      ],
      "stateMutability": "view",
      "type": "function"
    },
    {
      "inputs": [
        {
          "internalType": "uint256[]",
          "name": "_withdrawalIds",
          "type": "uint256[]"
        }
      ],
      "name": "tryBulkAcknowledgeMainchainWithdrew",
      "outputs": [
        {
          "internalType": "bool[]",
          "name": "_executedReceipts",
          "type": "bool[]"
        }
      ],
      "stateMutability": "nonpayable",
      "type": "function"
    },
    {
      "inputs": [
        {
          "components": [
            {
              "internalType": "uint256",
              "name": "id",
              "type": "uint256"
            },
            {
              "internalType": "enum Transfer.Kind",
              "name": "kind",
              "type": "uint8"
            },
            {
              "components": [
                {
                  "internalType": "address",
                  "name": "addr",
                  "type": "address"
                },
                {
                  "internalType": "address",
                  "name": "tokenAddr",
                  "type": "address"
                },
                {
                  "internalType": "uint256",
                  "name": "chainId",
                  "type": "uint256"
                }
              ],
              "internalType": "struct Token.Owner",
              "name": "mainchain",
              "type": "tuple"
            },
            {
              "components": [
                {
                  "internalType": "address",
                  "name": "addr",
                  "type": "address"
                },
                {
                  "internalType": "address",
                  "name": "tokenAddr",
                  "type": "address"
                },
                {
                  "internalType": "uint256",
                  "name": "chainId",
                  "type": "uint256"
                }
              ],
              "internalType": "struct Token.Owner",
              "name": "ronin",
              "type": "tuple"
            },
            {
              "components": [
                {
                  "internalType": "enum Token.Standard",
                  "name": "erc",
                  "type": "uint8"
                },
                {
                  "internalType": "uint256",
                  "name": "id",
                  "type": "uint256"
                },
                {
                  "internalType": "uint256",
                  "name": "quantity",
                  "type": "uint256"
                }
              ],
              "internalType": "struct Token.Info",
              "name": "info",
              "type": "tuple"
            }
          ],
          "internalType": "struct Transfer.Receipt[]",
          "name": "_receipts",
          "type": "tuple[]"
        }
      ],
      "name": "tryBulkDepositFor",
      "outputs": [
        {
          "internalType": "bool[]",
          "name": "_executedReceipts",
          "type": "bool[]"
        }
      ],
      "stateMutability": "nonpayable",
      "type": "function"
    },
    {
      "inputs": [],
      "name": "unpause",
      "outputs": [],
      "stateMutability": "nonpayable",
      "type": "function"
    },
    {
      "inputs": [],
      "name": "validatorContract",
      "outputs": [
        {
          "internalType": "address",
          "name": "",
          "type": "address"
        }
      ],
      "stateMutability": "view",
      "type": "function"
    },
    {
      "inputs": [
        {
          "internalType": "uint256",
          "name": "",
          "type": "uint256"
        }
      ],
      "name": "withdrawal",
      "outputs": [
        {
          "internalType": "uint256",
          "name": "id",
          "type": "uint256"
        },
        {
          "internalType": "enum Transfer.Kind",
          "name": "kind",
          "type": "uint8"
        },
        {
          "components": [
            {
              "internalType": "address",
              "name": "addr",
              "type": "address"
            },
            {
              "internalType": "address",
              "name": "tokenAddr",
              "type": "address"
            },
            {
              "internalType": "uint256",
              "name": "chainId",
              "type": "uint256"
            }
          ],
          "internalType": "struct Token.Owner",
          "name": "mainchain",
          "type": "tuple"
        },
        {
          "components": [
            {
              "internalType": "address",
              "name": "addr",
              "type": "address"
            },
            {
              "internalType": "address",
              "name": "tokenAddr",
              "type": "address"
            },
            {
              "internalType": "uint256",
              "name": "chainId",
              "type": "uint256"
            }
          ],
          "internalType": "struct Token.Owner",
          "name": "ronin",
          "type": "tuple"
        },
        {
          "components": [
            {
              "internalType": "enum Token.Standard",
              "name": "erc",
              "type": "uint8"
            },
            {
              "internalType": "uint256",
              "name": "id",
              "type": "uint256"
            },
            {
              "internalType": "uint256",
              "name": "quantity",
              "type": "uint256"
            }
          ],
          "internalType": "struct Token.Info",
          "name": "info",
          "type": "tuple"
        }
      ],
      "stateMutability": "view",
      "type": "function"
    },
    {
      "inputs": [],
      "name": "withdrawalCount",
      "outputs": [
        {
          "internalType": "uint256",
          "name": "",
          "type": "uint256"
        }
      ],
      "stateMutability": "view",
      "type": "function"
    },
    {
      "inputs": [],
      "name": "withdrawalMigrated",
      "outputs": [
        {
          "internalType": "bool",
          "name": "",
          "type": "bool"
        }
      ],
      "stateMutability": "view",
      "type": "function"
    },
    {
      "inputs": [
        {
          "internalType": "uint256",
          "name": "",
          "type": "uint256"
        }
      ],
      "name": "withdrawalStatVote",
      "outputs": [
        {
          "internalType": "enum VoteStatusConsumer.VoteStatus",
          "name": "status",
          "type": "uint8"
        },
        {
          "internalType": "bytes32",
          "name": "finalHash",
          "type": "bytes32"
        },
        {
          "internalType": "uint256",
          "name": "expiredAt",
          "type": "uint256"
        },
        {
          "internalType": "uint256",
          "name": "createdAt",
          "type": "uint256"
        }
      ],
      "stateMutability": "view",
      "type": "function"
    },
    {
      "stateMutability": "payable",
      "type": "receive"
    }
  ],
  "transactionHash": "0x224a6fdc59ee6fd4ab15616db752c14025fc20a5099baced052e6cb9dd4befc3",
  "args": [],
  "numDeployments": 3,
  "solcInputHash": "3c352db0d062e062f7c0c18610e9070b",
  "bytecode": "0x608060405234801561001057600080fd5b506000805460ff191690556151be8061002a6000396000f3fe6080604052600436106102815760003560e01c806391d148541161014f578063ca15c873116100c1578063ecc836491161007a578063ecc836491461082e578063f0ce418e1461085b578063f668214a146108a1578063fa389659146108c1578063fc6574bc146108e1578063fe90d9c21461090157610290565b8063ca15c87314610776578063cdf64a7614610796578063d547741f146107b6578063dafae408146107d6578063dbd2ef6c146107f6578063e75235b81461081657610290565b8063affed0e011610113578063affed0e014610678578063b11b767e1461068e578063b9afa177146106ae578063b9c36209146106ce578063bc7f038614610703578063c28f78941461073057610290565b806391d14854146105e5578063931ec9871461060557806399439089146106255780639c8d98da14610643578063a217fddf1461066357610290565b806347b56b2c116101f357806364363f78116101ac57806364363f781461053457806371706cbe146105545780637de5dedd1461056a578063835fc6ca1461057f5780638456cb59146105b05780639010d07c146105c557610290565b806347b56b2c146104345780634d92c4f0146104545780634f2717c7146104b55780635a7dd06a146104cf5780635c975abb146104ef5780635d6a9a901461050757610290565b80632f2ff15d116102455780632f2ff15d1461037857806336568abe146103985780633b5afc22146103b85780633e4574ec146103cd5780633f4ba83a146103ed5780634493421e1461040257610290565b806301ffc9a7146102985780630b1ff17f146102cd578063109679ef146102ed57806317fa2ea11461030d578063248a9ca31461033a57610290565b366102905761028e610923565b005b61028e610923565b3480156102a457600080fd5b506102b86102b3366004613e0c565b610970565b60405190151581526020015b60405180910390f35b3480156102d957600080fd5b5061028e6102e8366004613e36565b61099b565b3480156102f957600080fd5b5061028e610308366004613e67565b6109b2565b34801561031957600080fd5b5061032d610328366004613ec4565b610a4e565b6040516102c49190613f05565b34801561034657600080fd5b5061036a610355366004613f4b565b6000908152606b602052604090206001015490565b6040519081526020016102c4565b34801561038457600080fd5b5061028e610393366004613f7b565b610d99565b3480156103a457600080fd5b5061028e6103b3366004613f7b565b610dc3565b3480156103c457600080fd5b5061028e610e3d565b3480156103d957600080fd5b506102b86103e8366004613f7b565b610eb4565b3480156103f957600080fd5b5061028e610ee4565b34801561040e57600080fd5b506075546001600160a01b03165b6040516001600160a01b0390911681526020016102c4565b34801561044057600080fd5b5061028e61044f366004613f4b565b610f26565b34801561046057600080fd5b506104a561046f366004613fa7565b606f602090815260009283526040808420909152908252902080546001820154600483015460059093015460ff90921692909184565b6040516102c49493929190613fdf565b3480156104c157600080fd5b50606d546102b89060ff1681565b3480156104db57600080fd5b5061028e6104ea366004614053565b611160565b3480156104fb57600080fd5b5060005460ff166102b8565b34801561051357600080fd5b5061052761052236600461409e565b6111fa565b6040516102c491906140d8565b34801561054057600080fd5b5061028e61054f366004614104565b6112d7565b34801561056057600080fd5b5061036a606e5481565b34801561057657600080fd5b5061036a611338565b34801561058b57600080fd5b5061059f61059a366004613f4b565b61134f565b6040516102c49594939291906141b8565b3480156105bc57600080fd5b5061028e611421565b3480156105d157600080fd5b5061041c6105e0366004613fa7565b611461565b3480156105f157600080fd5b506102b8610600366004613f7b565b611479565b34801561061157600080fd5b5061028e610620366004614201565b6114a4565b34801561063157600080fd5b506074546001600160a01b031661041c565b34801561064f57600080fd5b5061028e61065e36600461423a565b611662565b34801561066f57600080fd5b5061036a600081565b34801561068457600080fd5b5061036a60045481565b34801561069a57600080fd5b5061028e6106a9366004614266565b6116d0565b3480156106ba57600080fd5b5061032d6106c9366004614344565b6118b4565b3480156106da57600080fd5b506106ee6106e9366004613fa7565b611a44565b604080519283526020830191909152016102c4565b34801561070f57600080fd5b5061036a61071e36600461423a565b60386020526000908152604090205481565b34801561073c57600080fd5b506104a561074b366004613f4b565b607660205260009081526040902080546001820154600483015460059093015460ff90921692909184565b34801561078257600080fd5b5061036a610791366004613f4b565b611a95565b3480156107a257600080fd5b5061028e6107b136600461423a565b611aac565b3480156107c257600080fd5b5061028e6107d1366004613f7b565b611b17565b3480156107e257600080fd5b506102b86107f1366004613f4b565b611b3c565b34801561080257600080fd5b5061028e6108113660046143b9565b611b68565b34801561082257600080fd5b506001546002546106ee565b34801561083a57600080fd5b5061084e61084936600461447c565b611bd7565b6040516102c49190614517565b34801561086757600080fd5b506104a5610876366004613f4b565b607060205260009081526040902080546001820154600483015460059093015460ff90921692909184565b3480156108ad57600080fd5b506102b86108bc366004613f4b565b611d49565b3480156108cd57600080fd5b5061028e6108dc366004614104565b611d77565b3480156108ed57600080fd5b506102b86108fc366004614579565b611f64565b34801561090d57600080fd5b5061036a60008051602061516983398151915281565b60405162461bcd60e51b815260206004820152601f60248201527f526f6e696e4761746577617956323a20696e76616c696420726571756573740060448201526064015b60405180910390fd5b60006001600160e01b03198216635a05180f60e01b1480610995575061099582611f9d565b92915050565b6109a3611fd2565b6109ae823383612018565b5050565b3360006109be826120f0565b90506109e16109d236859003850185614686565b83836109dc611338565b612197565b60755460405163c7c4fea960e01b81526001600160a01b039091169063c7c4fea990610a17906000908735908790600401614727565b600060405180830381600087803b158015610a3157600080fd5b505af1158015610a45573d6000803e3d6000fd5b50505050505050565b6060336000610a5c826120f0565b90506000610a68611338565b90506000856001600160401b03811115610a8457610a846145ae565b604051908082528060200260200182016040528015610aad578160200160208202803683370190505b50945060005b86811015610d8e57878782818110610acd57610acd614754565b60755460405163c7c4fea960e01b81526020909202939093013594506001600160a01b039092169163c7c4fea99150610b0f9060029086908a90600401614727565b600060405180830381600087803b158015610b2957600080fd5b505af1158015610b3d573d6000803e3d6000fd5b50505050610b4a82611d49565b15610b78576001868281518110610b6357610b63614754565b91151560209283029190910190910152610d7c565b600082815260706020908152604080832060718352818420825160a081019093528054835260018082015492959491929184019160ff1690811115610bbf57610bbf613fc9565b6001811115610bd057610bd0613fc9565b8152604080516060808201835260028501546001600160a01b039081168352600386015481166020848101919091526004870154848601528086019390935283518083018552600587015482168152600687015490911692810192909252600785015482840152828401919091528151808201909252600884018054919093019290829060ff166001811115610c6857610c68613fc9565b6001811115610c7957610c79613fc9565b81526001820154602082015260029091015460409091015290525090506000610ca182612458565b90506000610cb2848a8a8a866124e1565b90506001816004811115610cc857610cc8613fc9565b03610d7757835460ff19166002908117855560755460405163114fc47560e11b81526001600160a01b039091169163229f88ea91610d0b91908a9060040161476a565b600060405180830381600087803b158015610d2557600080fd5b505af1158015610d39573d6000803e3d6000fd5b505050507f62520d049932cdee872e9b3c59c0f6073637147e5e9bc8b050b062430eaf5c9f8284604051610d6e929190614785565b60405180910390a15b505050505b80610d86816147fc565b915050610ab3565b505050505092915050565b6000828152606b6020526040902060010154610db481612610565b610dbe838361261a565b505050565b6001600160a01b0381163314610e335760405162461bcd60e51b815260206004820152602f60248201527f416363657373436f6e74726f6c3a2063616e206f6e6c792072656e6f756e636560448201526e103937b632b9903337b91039b2b63360891b6064820152608401610967565b6109ae828261263c565b610e48600033611479565b80610e665750610e6660008051602061516983398151915233611479565b610e825760405162461bcd60e51b815260040161096790614815565b606d5460ff1615610ea55760405162461bcd60e51b815260040161096790614858565b606d805460ff19166001179055565b60008281526070602090815260408083206001600160a01b038516845260020190915281205415155b9392505050565b610eec61265e565b6001600160a01b0316336001600160a01b031614610f1c5760405162461bcd60e51b81526004016109679061489c565b610f2461268c565b565b610f2e611fd2565b610f3781611d49565b15610f9a5760405162461bcd60e51b815260206004820152602d60248201527f526f6e696e4761746577617956323a207769746864726577206f6e206d61696e60448201526c636861696e20616c726561647960981b6064820152608401610967565b6000818152607160209081526040808320815160a0810190925280548252600180820154929391929184019160ff1690811115610fd957610fd9613fc9565b6001811115610fea57610fea613fc9565b8152604080516060808201835260028501546001600160a01b039081168352600386015481166020848101919091526004870154848601528086019390935283518083018552600587015482168152600687015490911692810192909252600785015482840152828401919091528151808201909252600884018054919093019290829060ff16600181111561108257611082613fc9565b600181111561109357611093613fc9565b81526001820154602082015260029091015460409182015291526060830151015191925050461461111b5760405162461bcd60e51b815260206004820152602c60248201527f526f6e696e4761746577617956323a20717565727920666f7220696e76616c6960448201526b19081dda5d1a191c985dd85b60a21b6064820152608401610967565b7f04e8cbd836dea43a2dc7eb19de345cca3a8e6978a2ef5225d924775500f67c7c61114582612458565b82604051611154929190614785565b60405180910390a15050565b611168611fd2565b816111b55760405162461bcd60e51b815260206004820152601b60248201527f526f6e696e4761746577617956323a20656d70747920617272617900000000006044820152606401610967565b60005b828110156111f4576111e28484838181106111d5576111d5614754565b905060a002013384612018565b806111ec816147fc565b9150506111b8565b50505050565b604080518082018252600080825260208083018290526001600160a01b038616825260738152838220858352905282902082518084019093528054919291829060ff16600181111561124e5761124e613fc9565b600181111561125f5761125f613fc9565b815290546001600160a01b03610100909104811660209283015290820151919250166109955760405162461bcd60e51b815260206004820152602160248201527f526f6e696e4761746577617956323a20756e737570706f7274656420746f6b656044820152603760f91b6064820152608401610967565b6112df61265e565b6001600160a01b0316336001600160a01b03161461130f5760405162461bcd60e51b81526004016109679061489c565b8261132c5760405162461bcd60e51b8152600401610967906148de565b6111f4848484846126de565b600061134a6113456127bc565b61282a565b905090565b607160209081526000918252604091829020805460018083015485516060808201885260028601546001600160a01b03908116835260038701548116838901526004870154838a015288518083018a526005880154821681526006880154909116978101979097526007860154878901528751908101909752600885018054949760ff9384169792969295929490939192849216908111156113f3576113f3613fc9565b600181111561140457611404613fc9565b815260200160018201548152602001600282015481525050905085565b61142961265e565b6001600160a01b0316336001600160a01b0316146114595760405162461bcd60e51b81526004016109679061489c565b610f24612860565b6000828152606c60205260408120610edd908361289d565b6000918252606b602090815260408084206001600160a01b0393909316845291905290205460ff1690565b6000805160206151698339815191526114bc81612610565b606d5460ff16156114df5760405162461bcd60e51b815260040161096790614858565b81841480156114ed57508315155b6115475760405162461bcd60e51b815260206004820152602560248201527f526f6e696e4761746577617956323a20696e76616c6964206172726179206c656044820152646e6774687360d81b6064820152608401610967565b60005b8481101561165a57600061158887878481811061156957611569614754565b905060a002016020016020810190611581919061423a565b60016111fa565b8051909150600181111561159e5761159e613fc9565b8787848181106115b0576115b0614754565b6115c992606060a0909202019081019150604001614925565b60018111156115da576115da613fc9565b146115f75760405162461bcd60e51b815260040161096790614942565b61164587878481811061160c5761160c614754565b905060a00201600187878681811061162657611626614754565b905060200201602081019061163b919061423a565b84602001516128a9565b50508080611652906147fc565b91505061154a565b505050505050565b61166a61265e565b6001600160a01b0316336001600160a01b03161461169a5760405162461bcd60e51b81526004016109679061489c565b6000816001600160a01b03163b116116c45760405162461bcd60e51b815260040161096790614988565b6116cd81612a33565b50565b603754610100900460ff16158080156116f05750603754600160ff909116105b8061170a5750303b15801561170a575060375460ff166001145b61176d5760405162461bcd60e51b815260206004820152602e60248201527f496e697469616c697a61626c653a20636f6e747261637420697320616c72656160448201526d191e481a5b9a5d1a585b1a5e995960921b6064820152608401610967565b6037805460ff191660011790558015611790576037805461ff0019166101001790555b61179b60008b612a88565b6117a58989612a92565b50600090506117b486806149cb565b90501115611806576117e76117c986806149cb565b6117d660208901896149cb565b6117e089806149cb565b8989612b51565b6118066117f486806149cb565b61180160208801886149cb565b6126de565b60005b868110156118615761184f60008051602061516983398151915289898481811061183557611835614754565b905060200201602081019061184a919061423a565b61261a565b80611859816147fc565b915050611809565b5080156118a8576037805461ff0019169055604051600181527f7f26b83ff96e1f2b6a682f133852f6798a09c465da95921460cefb38474024989060200160405180910390a15b50505050505050505050565b60603360006118c2826120f0565b90506118cc613d9f565b846001600160401b038111156118e4576118e46145ae565b60405190808252806020026020018201604052801561190d578160200160208202803683370190505b509350600061191a611338565b905060005b86811015610d8e5787878281811061193957611939614754565b905061016002018036038101906119509190614686565b607554815160405163c7c4fea960e01b81529295506001600160a01b039091169163c7c4fea99161198991600091908a90600401614727565b600060405180830381600087803b1580156119a357600080fd5b505af11580156119b7573d6000803e3d6000fd5b50600292506119c4915050565b6040808501518101516000908152606f6020908152828220875183529052205460ff1660048111156119f8576119f8613fc9565b03611a26576001868281518110611a1157611a11614754565b91151560209283029190910190910152611a32565b611a3283868685612197565b80611a3c816147fc565b91505061191f565b600080611a4f61265e565b6001600160a01b0316336001600160a01b031614611a7f5760405162461bcd60e51b81526004016109679061489c565b611a898484612a92565b915091505b9250929050565b6000818152606c6020526040812061099590612d67565b611ab461265e565b6001600160a01b0316336001600160a01b031614611ae45760405162461bcd60e51b81526004016109679061489c565b6000816001600160a01b03163b11611b0e5760405162461bcd60e51b815260040161096790614988565b6116cd81612d71565b6000828152606b6020526040902060010154611b3281612610565b610dbe838361263c565b6000611b466127bc565b600154611b539190614a14565b600254611b609084614a14565b101592915050565b611b7061265e565b6001600160a01b0316336001600160a01b031614611ba05760405162461bcd60e51b81526004016109679061489c565b86611bbd5760405162461bcd60e51b815260040161096790614a2b565b611bcd8888888888888888612b51565b5050505050505050565b6060816001600160401b03811115611bf157611bf16145ae565b604051908082528060200260200182016040528015611c2457816020015b6060815260200190600190039081611c0f5790505b50905060005b82811015611d4157600085815260726020526040812090858584818110611c5357611c53614754565b9050602002016020810190611c68919061423a565b6001600160a01b03166001600160a01b031681526020019081526020016000208054611c9390614a6f565b80601f0160208091040260200160405190810160405280929190818152602001828054611cbf90614a6f565b8015611d0c5780601f10611ce157610100808354040283529160200191611d0c565b820191906000526020600020905b815481529060010190602001808311611cef57829003601f168201915b5050505050828281518110611d2357611d23614754565b60200260200101819052508080611d39906147fc565b915050611c2a565b509392505050565b6000600260008381526070602052604090205460ff166004811115611d7057611d70613fc9565b1492915050565b336000611d83826120f0565b90506000611d8f611338565b90508515801590611d9f57508584145b611dbb5760405162461bcd60e51b815260040161096790614a2b565b6000805b87811015611f5957888882818110611dd957611dd9614754565b905060200201359150868682818110611df457611df4614754565b9050602002810190611e069190614aa3565b60008481526072602090815260408083206001600160a01b038b168452909152902091611e34919083614b2f565b5060755460405163c7c4fea960e01b81526001600160a01b039091169063c7c4fea990611e6a9060019086908a90600401614727565b600060405180830381600087803b158015611e8457600080fd5b505af1158015611e98573d6000803e3d6000fd5b50505060008381526076602052604081209150611eb882888888886124e1565b90506001816004811115611ece57611ece613fc9565b03611f4457815460ff1916600217825560755460405163114fc47560e11b81526001600160a01b039091169063229f88ea90611f1190600190889060040161476a565b600060405180830381600087803b158015611f2b57600080fd5b505af1158015611f3f573d6000803e3d6000fd5b505050505b50508080611f51906147fc565b915050611dbf565b505050505050505050565b6000838152606f6020908152604080832085845282528083206001600160a01b038516845260020190915281205415155b949350505050565b60006001600160e01b03198216637965db0b60e01b148061099557506301ffc9a760e01b6001600160e01b0319831614610995565b60005460ff1615610f245760405162461bcd60e51b815260206004820152601060248201526f14185d5cd8589b194e881c185d5cd95960821b6044820152606401610967565b61203261202d36859003850160408601614bee565b612dbf565b61203b83612e5f565b6000612056612050604086016020870161423a565b836111fa565b8051909150600181111561206c5761206c613fc9565b61207c6060860160408701614925565b600181111561208d5761208d613fc9565b146120aa5760405162461bcd60e51b815260040161096790614942565b6120d983306120bf604088016020890161423a565b6120d136899003890160408a01614bee565b929190612f24565b6120e984838584602001516128a9565b5050505050565b607454604051635a02d57960e11b81526001600160a01b038381166004830152600092169063b405aaf290602401602060405180830381865afa15801561213b573d6000803e3d6000fd5b505050506040513d601f19601f8201168201806040525081019061215f9190614c0a565b61216a57600061216d565b60015b60ff169050600081116121925760405162461bcd60e51b815260040161096790614815565b919050565b835160808501516121a790612dbf565b6000856020015160018111156121bf576121bf613fc9565b146122185760405162461bcd60e51b8152602060048201526024808201527f526f6e696e4761746577617956323a20696e76616c69642072656365697074206044820152631ada5b9960e21b6064820152608401610967565b468560600151604001511461226f5760405162461bcd60e51b815260206004820181905260248201527f526f6e696e4761746577617956323a20696e76616c696420636861696e2069646044820152606401610967565b600061228b8660600151602001518760400151604001516111fa565b60808701515190915060018111156122a5576122a5613fc9565b815160018111156122b8576122b8613fc9565b1480156122e257508560400151602001516001600160a01b031681602001516001600160a01b0316145b61232e5760405162461bcd60e51b815260206004820152601f60248201527f526f6e696e4761746577617956323a20696e76616c69642072656365697074006044820152606401610967565b6040808701518101516000908152606f602090815282822085835290529081209061235888612458565b9050600061236983898989866124e1565b9050600181600481111561237f5761237f613fc9565b03611f5957825460ff191660021783556060890151805160209091015160808b01516123ae9290916000613193565b607554895160405163114fc47560e11b81526001600160a01b039092169163229f88ea916123e2916000919060040161476a565b600060405180830381600087803b1580156123fc57600080fd5b505af1158015612410573d6000803e3d6000fd5b505050507f8d20d8121a34dded9035ff5b43e901c142824f7a22126392992c353c37890524828a604051612445929190614785565b60405180910390a1505050505050505050565b60007fb9d1fe7c9deeec5dc90a2f47ff1684239519f2545b2228d3d91fb27df3189eea60001b82600001518360200151612495856040015161350d565b6124a2866060015161350d565b6124af8760800151613570565b6040516020016124c496959493929190614c2c565b604051602081830303815290604052805190602001209050919050565b60008086600401541180156124fa575042866004015411155b156125125750845460ff191660049081178655612607565b6001600160a01b03851660009081526002870160205260409020541561257c57612546856001600160a01b031660146135b3565b6040516020016125569190614c66565b60408051601f198184030181529082905262461bcd60e51b825261096791600401614cba565b6001600160a01b03851660009081526002870160209081526040808320859055848352600389019091528120805486919083906125ba908490614ccd565b92505081905590508381101580156125e757506000875460ff1660048111156125e5576125e5613fc9565b145b156125ff57865460ff19166001908117885587018390555b5050845460ff165b95945050505050565b6116cd813361374e565b612624828261378c565b6000828152606c60205260409020610dbe9082613812565b6126468282613827565b6000828152606c60205260409020610dbe908261388e565b7fb53127684a568b3173ae13b9f8a6016e243e63b6e8ee1178d6a717850b5d6103546001600160a01b031690565b6126946138a3565b6000805460ff191690557f5db9ee0a495bf2e6ff9c91a7834c1ba4fdd244a5e8aa4e537bd38aeae4b073aa335b6040516001600160a01b03909116815260200160405180910390a1565b8281146126fd5760405162461bcd60e51b8152600401610967906148de565b60005b838110156127785782828281811061271a5761271a614754565b905060200201356038600087878581811061273757612737614754565b905060200201602081019061274c919061423a565b6001600160a01b0316815260208101919091526040016000205580612770816147fc565b915050612700565b507f6f52f53a938df83439fa4c6055c7df0a6906d621aa6dfa4708187037fdfc41da848484846040516127ae9493929190614d59565b60405180910390a150505050565b6074546040805163158b54c160e21b815290516000926001600160a01b03169163562d53049160048083019260209291908290030181865afa158015612806573d6000803e3d6000fd5b505050506040513d601f19601f8201168201806040525081019061134a9190614d8b565b60006002546001600254846001546128429190614a14565b61284c9190614ccd565b6128569190614da4565b6109959190614db7565b612868611fd2565b6000805460ff191660011790557f62e78cea01bee320cd4e420270b5ea74000d11b0c9f74754ebdbfc544b05a2586126c13390565b6000610edd83836138ec565b606e8054600091826128ba836147fc565b90915550905060006128e1848385886128d8368c90038c018c614dd9565b93929190613916565b60008381526071602090815260409091208251815590820151600180830180549495508594909160ff1990911690838181111561292057612920613fc9565b021790555060408281015180516002840180546001600160a01b039283166001600160a01b03199182161790915560208084015160038701805491851691841691909117905592840151600486015560608601518051600587018054918516918416919091179055928301516006860180549190931691161790550151600782015560808201518051600883018054909190829060ff1916600183818111156129cb576129cb613fc9565b0217905550602082015181600101556040820151816002015550509050507ff313c253a5be72c29d0deb2c8768a9543744ac03d6b3cafd50cc976f1c2632fc612a1382612458565b82604051612a22929190614785565b60405180910390a150949350505050565b607580546001600160a01b0319166001600160a01b0383169081179091556040519081527f034c8da497df28467c79ddadbba1cc3cdd41f510ea73faae271e6f16a6111621906020015b60405180910390a150565b6109ae828261261a565b60008082841115612ae55760405162461bcd60e51b815260206004820152601c60248201527f4761746577617956323a20696e76616c6964207468726573686f6c64000000006044820152606401610967565b50506001805460028054928590558390556004805491929184918691906000612b0d836147fc565b9091555060408051868152602081018690527f976f8a9c5bdf8248dec172376d6e2b80a8e3df2f0328e381c6db8e1cf138c0f8910160405180910390a49250929050565b8685148015612b5f57508683145b612b7b5760405162461bcd60e51b815260040161096790614a2b565b60005b87811015612d1757868682818110612b9857612b98614754565b9050602002016020810190612bad919061423a565b607360008b8b85818110612bc357612bc3614754565b9050602002016020810190612bd8919061423a565b6001600160a01b03166001600160a01b031681526020019081526020016000206000878785818110612c0c57612c0c614754565b90506020020135815260200190815260200160002060000160016101000a8154816001600160a01b0302191690836001600160a01b03160217905550828282818110612c5a57612c5a614754565b9050602002016020810190612c6f9190614925565b607360008b8b85818110612c8557612c85614754565b9050602002016020810190612c9a919061423a565b6001600160a01b03166001600160a01b031681526020019081526020016000206000878785818110612cce57612cce614754565b60209081029290920135835250810191909152604001600020805460ff191660018381811115612d0057612d00613fc9565b021790555080612d0f816147fc565b915050612b7e565b507f2544bff60c6d5b84946e06804af9f84e150bbee85238dbdee79efca4e0adf4018888888888888888604051612d55989796959493929190614e28565b60405180910390a15050505050505050565b6000610995825490565b607480546001600160a01b0319166001600160a01b0383169081179091556040519081527fef40dc07567635f84f5edbd2f8dbc16b40d9d282dd8e7e6f4ff58236b683616990602001612a7d565b600081516001811115612dd457612dd4613fc9565b148015612de5575060008160400151115b8015612df357506020810151155b80612e1d5750600181516001811115612e0e57612e0e613fc9565b148015612e1d57506040810151155b6116cd5760405162461bcd60e51b8152602060048201526013602482015272546f6b656e3a20696e76616c696420696e666f60681b6044820152606401610967565b6000612e716060830160408401614925565b6001811115612e8257612e82613fc9565b141580612ec0575060386000612e9e604084016020850161423a565b6001600160a01b03168152602081019190915260400160002054608082013510155b6116cd5760405162461bcd60e51b815260206004820152602f60248201527f4d696e696d756d5769746864726177616c3a20717565727920666f7220746f6f60448201526e20736d616c6c207175616e7469747960881b6064820152608401610967565b600060608186516001811115612f3c57612f3c613fc9565b036130195760408681015181516001600160a01b038881166024830152878116604483015260648083019390935283518083039093018352608490910183526020820180516001600160e01b03166323b872dd60e01b179052915191851691612fa59190614eb7565b6000604051808303816000865af19150503d8060008114612fe2576040519150601f19603f3d011682016040523d82523d6000602084013e612fe7565b606091505b5090925090508180156130125750805115806130125750808060200190518101906130129190614c0a565b9150613136565b60018651600181111561302e5761302e613fc9565b036130e457602086810151604080516001600160a01b0389811660248301528881166044830152606480830194909452825180830390940184526084909101825292820180516001600160e01b03166323b872dd60e01b17905251918516916130979190614eb7565b6000604051808303816000865af19150503d80600081146130d4576040519150601f19603f3d011682016040523d82523d6000602084013e6130d9565b606091505b505080925050613136565b60405162461bcd60e51b815260206004820152602160248201527f546f6b656e3a20756e737570706f7274656420746f6b656e207374616e6461726044820152601960fa1b6064820152608401610967565b8161165a5761314486613982565b613158866001600160a01b031660146135b3565b61316c866001600160a01b031660146135b3565b613180866001600160a01b031660146135b3565b6040516020016125569493929190614ed3565b6000816001600160a01b0316836001600160a01b0316036132425760408086015190516001600160a01b0386169180156108fc02916000818181858888f1935050505061323d57816001600160a01b031663d0e30db086604001516040518263ffffffff1660e01b81526004016000604051808303818588803b15801561321957600080fd5b505af115801561322d573d6000803e3d6000fd5b505050505061323d8585856139ef565b6120e9565b60008551600181111561325757613257613fc9565b036133ef576040516370a0823160e01b81523060048201526000906001600160a01b038516906370a0823190602401602060405180830381865afa1580156132a3573d6000803e3d6000fd5b505050506040513d601f19601f820116820180604052508101906132c79190614d8b565b905085604001518110156133de57836001600160a01b03166340c10f19308389604001516132f59190614da4565b6040516001600160a01b03909216602483015260448201526064016040516020818303038152906040529060e01b6020820180516001600160e01b0383818316178352505050506040516133499190614eb7565b6000604051808303816000865af19150503d8060008114613386576040519150601f19603f3d011682016040523d82523d6000602084013e61338b565b606091505b505080925050816133de5760405162461bcd60e51b815260206004820152601b60248201527f546f6b656e3a204552433230206d696e74696e67206661696c656400000000006044820152606401610967565b6133e98686866139ef565b506120e9565b60018551600181111561340457613404613fc9565b036130e45761341883858760200151613a91565b61323d57602085810151604080516001600160a01b038881166024830152604480830194909452825180830390940184526064909101825292820180516001600160e01b03166340c10f1960e01b17905251918516916134789190614eb7565b6000604051808303816000865af19150503d80600081146134b5576040519150601f19603f3d011682016040523d82523d6000602084013e6134ba565b606091505b5050809150508061323d5760405162461bcd60e51b815260206004820152601c60248201527f546f6b656e3a20455243373231206d696e74696e67206661696c6564000000006044820152606401610967565b805160208083015160408085015190516000946124c4947f353bdd8d69b9e3185b3972e08b03845c0c14a21a390215302776a7a34b0e87649491939192019384526001600160a01b03928316602085015291166040830152606082015260800190565b805160208083015160408085015190516000946124c4947f1e2b74b2a792d5c0f0b6e59b037fa9d43d84fbb759337f0112fcc15ca414fc8d949193919201614f8c565b606060006135c2836002614a14565b6135cd906002614ccd565b6001600160401b038111156135e4576135e46145ae565b6040519080825280601f01601f19166020018201604052801561360e576020820181803683370190505b509050600360fc1b8160008151811061362957613629614754565b60200101906001600160f81b031916908160001a905350600f60fb1b8160018151811061365857613658614754565b60200101906001600160f81b031916908160001a905350600061367c846002614a14565b613687906001614ccd565b90505b60018111156136ff576f181899199a1a9b1b9c1cb0b131b232b360811b85600f16601081106136bb576136bb614754565b1a60f81b8282815181106136d1576136d1614754565b60200101906001600160f81b031916908160001a90535060049490941c936136f881614fb7565b905061368a565b508315610edd5760405162461bcd60e51b815260206004820181905260248201527f537472696e67733a20686578206c656e67746820696e73756666696369656e746044820152606401610967565b6137588282611479565b6109ae57613770816001600160a01b031660146135b3565b61377b8360206135b3565b604051602001612556929190614fce565b6137968282611479565b6109ae576000828152606b602090815260408083206001600160a01b03851684529091529020805460ff191660011790556137ce3390565b6001600160a01b0316816001600160a01b0316837f2f8788117e7eff1d82e926ec794901d17c78024a50270940304540a733656f0d60405160405180910390a45050565b6000610edd836001600160a01b038416613b3c565b6138318282611479565b156109ae576000828152606b602090815260408083206001600160a01b0385168085529252808320805460ff1916905551339285917ff6391f5c32d9c69d2a47ea670b442974b53935d1edc7fd64eb21e047a839171b9190a45050565b6000610edd836001600160a01b038416613b8b565b60005460ff16610f245760405162461bcd60e51b815260206004820152601460248201527314185d5cd8589b194e881b9bdd081c185d5cd95960621b6044820152606401610967565b600082600001828154811061390357613903614754565b9060005260206000200154905092915050565b61391e613d9f565b92835260016020808501919091526060840180516001600160a01b0396871690528682015181519087169083015251466040918201528651818601805191881690915280519490961693909101929092529251810192909252910151608082015290565b60606139ad8260000151600181111561399d5761399d613fc9565b6001600160a01b031660016135b3565b6139ba8360200151613c7e565b6139c78460400151613c7e565b6040516020016139d993929190615043565b6040516020818303038152906040529050919050565b60008084516001811115613a0557613a05613fc9565b03613a2057613a1982848660400151613cd5565b9050613a49565b600184516001811115613a3557613a35613fc9565b036130e457613a1982848660200151613a91565b806111f457613a5784613982565b613a6b846001600160a01b031660146135b3565b613a7f846001600160a01b031660146135b3565b604051602001612556939291906150c1565b604080513060248201526001600160a01b038481166044830152606480830185905283518084039091018152608490920183526020820180516001600160e01b03166323b872dd60e01b1790529151600092861691613aef91614eb7565b6000604051808303816000865af19150503d8060008114613b2c576040519150601f19603f3d011682016040523d82523d6000602084013e613b31565b606091505b509095945050505050565b6000818152600183016020526040812054613b8357508154600181810184556000848152602080822090930184905584548482528286019093526040902091909155610995565b506000610995565b60008181526001830160205260408120548015613c74576000613baf600183614da4565b8554909150600090613bc390600190614da4565b9050818114613c28576000866000018281548110613be357613be3614754565b9060005260206000200154905080876000018481548110613c0657613c06614754565b6000918252602080832090910192909255918252600188019052604090208390555b8554869080613c3957613c39615152565b600190038181906000526020600020016000905590558560010160008681526020019081526020016000206000905560019350505050610995565b6000915050610995565b606081600003613ca85750506040805180820190915260048152630307830360e41b602082015290565b8160005b8115613ccb5780613cbc816147fc565b915050600882901c9150613cac565b611f9584826135b3565b604080516001600160a01b038481166024830152604480830185905283518084039091018152606490920183526020820180516001600160e01b031663a9059cbb60e01b179052915160009260609290871691613d329190614eb7565b6000604051808303816000865af19150503d8060008114613d6f576040519150601f19603f3d011682016040523d82523d6000602084013e613d74565b606091505b5090925090508180156126075750805115806126075750808060200190518101906126079190614c0a565b6040805160a08101825260008082526020808301829052835160608082018652838252818301849052818601849052848601919091528451808201865283815280830184905280860184905281850152845190810185528281529081018290529283015290608082015290565b600060208284031215613e1e57600080fd5b81356001600160e01b031981168114610edd57600080fd5b60008082840360c0811215613e4a57600080fd5b60a0811215613e5857600080fd5b50919360a08501359350915050565b60006101608284031215613e7a57600080fd5b50919050565b60008083601f840112613e9257600080fd5b5081356001600160401b03811115613ea957600080fd5b6020830191508360208260051b8501011115611a8e57600080fd5b60008060208385031215613ed757600080fd5b82356001600160401b03811115613eed57600080fd5b613ef985828601613e80565b90969095509350505050565b6020808252825182820181905260009190848201906040850190845b81811015613f3f578351151583529284019291840191600101613f21565b50909695505050505050565b600060208284031215613f5d57600080fd5b5035919050565b80356001600160a01b038116811461219257600080fd5b60008060408385031215613f8e57600080fd5b82359150613f9e60208401613f64565b90509250929050565b60008060408385031215613fba57600080fd5b50508035926020909101359150565b634e487b7160e01b600052602160045260246000fd5b6080810160058610613ff357613ff3613fc9565b9481526020810193909352604083019190915260609091015290565b60008083601f84011261402157600080fd5b5081356001600160401b0381111561403857600080fd5b60208301915083602060a083028501011115611a8e57600080fd5b60008060006040848603121561406857600080fd5b83356001600160401b0381111561407e57600080fd5b61408a8682870161400f565b909790965060209590950135949350505050565b600080604083850312156140b157600080fd5b6140ba83613f64565b946020939093013593505050565b600281106116cd576116cd613fc9565b815160408201906140e8816140c8565b82526020928301516001600160a01b0316929091019190915290565b6000806000806040858703121561411a57600080fd5b84356001600160401b038082111561413157600080fd5b61413d88838901613e80565b9096509450602087013591508082111561415657600080fd5b5061416387828801613e80565b95989497509550505050565b80516001600160a01b03908116835260208083015190911690830152604090810151910152565b80516141a1816140c8565b825260208181015190830152604090810151910152565b85815261016081016141c9866140c8565b8560208301526141dc604083018661416f565b6141e960a083018561416f565b6141f7610100830184614196565b9695505050505050565b6000806000806040858703121561421757600080fd5b84356001600160401b038082111561422e57600080fd5b61413d8883890161400f565b60006020828403121561424c57600080fd5b610edd82613f64565b806040810183101561099557600080fd5b600080600080600080600080600060e08a8c03121561428457600080fd5b61428d8a613f64565b985060208a0135975060408a0135965060608a01356001600160401b03808211156142b757600080fd5b6142c38d838e01613e80565b909850965060808c01359150808211156142dc57600080fd5b6142e88d838e01614255565b955060a08c01359150808211156142fe57600080fd5b61430a8d838e01614255565b945060c08c013591508082111561432057600080fd5b5061432d8c828d01613e80565b915080935050809150509295985092959850929598565b6000806020838503121561435757600080fd5b82356001600160401b038082111561436e57600080fd5b818501915085601f83011261438257600080fd5b81358181111561439157600080fd5b866020610160830285010111156143a757600080fd5b60209290920196919550909350505050565b6000806000806000806000806080898b0312156143d557600080fd5b88356001600160401b03808211156143ec57600080fd5b6143f88c838d01613e80565b909a50985060208b013591508082111561441157600080fd5b61441d8c838d01613e80565b909850965060408b013591508082111561443657600080fd5b6144428c838d01613e80565b909650945060608b013591508082111561445b57600080fd5b506144688b828c01613e80565b999c989b5096995094979396929594505050565b60008060006040848603121561449157600080fd5b8335925060208401356001600160401b038111156144ae57600080fd5b6144ba86828701613e80565b9497909650939450505050565b60005b838110156144e25781810151838201526020016144ca565b50506000910152565b600081518084526145038160208601602086016144c7565b601f01601f19169290920160200192915050565b6000602080830181845280855180835260408601915060408160051b870101925083870160005b8281101561456c57603f1988860301845261455a8583516144eb565b9450928501929085019060010161453e565b5092979650505050505050565b60008060006060848603121561458e57600080fd5b83359250602084013591506145a560408501613f64565b90509250925092565b634e487b7160e01b600052604160045260246000fd5b604051606081016001600160401b03811182821017156145e6576145e66145ae565b60405290565b600281106116cd57600080fd5b60006060828403121561460b57600080fd5b6146136145c4565b905061461e82613f64565b815261462c60208301613f64565b60208201526040820135604082015292915050565b60006060828403121561465357600080fd5b61465b6145c4565b90508135614668816145ec565b80825250602082013560208201526040820135604082015292915050565b6000610160828403121561469957600080fd5b60405160a081018181106001600160401b03821117156146bb576146bb6145ae565b6040528235815260208301356146d0816145ec565b60208201526146e284604085016145f9565b60408201526146f48460a085016145f9565b6060820152614707846101008501614641565b60808201529392505050565b6003811061472357614723613fc9565b9052565b606081016147358286614713565b60208201939093526001600160a01b0391909116604090910152919050565b634e487b7160e01b600052603260045260246000fd5b604081016147788285614713565b8260208301529392505050565b6000610180820190508382528251602083015260208301516147a6816140c8565b8060408401525060408301516147bf606084018261416f565b5060608301516147d260c084018261416f565b506080830151611d41610120840182614196565b634e487b7160e01b600052601160045260246000fd5b60006001820161480e5761480e6147e6565b5060010190565b60208082526023908201527f526f6e696e4761746577617956323a20756e617574686f72697a65642073656e6040820152623232b960e91b606082015260800190565b60208082526024908201527f526f6e696e4761746577617956323a207769746864726177616c73206d696772604082015263185d195960e21b606082015260800190565b60208082526022908201527f48617350726f787941646d696e3a20756e617574686f72697a65642073656e6460408201526132b960f11b606082015260800190565b60208082526027908201527f4d696e696d756d5769746864726177616c3a20696e76616c6964206172726179604082015266040d8cadccee8d60cb1b606082015260800190565b60006020828403121561493757600080fd5b8135610edd816145ec565b60208082526026908201527f526f6e696e4761746577617956323a20696e76616c696420746f6b656e207374604082015265185b99185c9960d21b606082015260800190565b60208082526023908201527f526f6e696e4761746577617956323a2073657420746f206e6f6e2d636f6e74726040820152621858dd60ea1b606082015260800190565b6000808335601e198436030181126149e257600080fd5b8301803591506001600160401b038211156149fc57600080fd5b6020019150600581901b3603821315611a8e57600080fd5b8082028115828204841417610995576109956147e6565b60208082526024908201527f526f6e696e4761746577617956323a20696e76616c6964206172726179206c656040820152630dccee8d60e31b606082015260800190565b600181811c90821680614a8357607f821691505b602082108103613e7a57634e487b7160e01b600052602260045260246000fd5b6000808335601e19843603018112614aba57600080fd5b8301803591506001600160401b03821115614ad457600080fd5b602001915036819003821315611a8e57600080fd5b601f821115610dbe57600081815260208120601f850160051c81016020861015614b105750805b601f850160051c820191505b8181101561165a57828155600101614b1c565b6001600160401b03831115614b4657614b466145ae565b614b5a83614b548354614a6f565b83614ae9565b6000601f841160018114614b8e5760008515614b765750838201355b600019600387901b1c1916600186901b1783556120e9565b600083815260209020601f19861690835b82811015614bbf5786850135825560209485019460019092019101614b9f565b5086821015614bdc5760001960f88860031b161c19848701351681555b505060018560011b0183555050505050565b600060608284031215614c0057600080fd5b610edd8383614641565b600060208284031215614c1c57600080fd5b81518015158114610edd57600080fd5b8681526020810186905260c08101614c43866140c8565b8560408301528460608301528360808301528260a0830152979650505050505050565b73024b9b7b630ba32b223b7bb32b93730b731b29d160651b815260008251614c958160148501602087016144c7565b6d08185b1c9958591e481d9bdd195960921b6014939091019283015250602201919050565b602081526000610edd60208301846144eb565b80820180821115610995576109956147e6565b8183526000602080850194508260005b85811015614d1c576001600160a01b03614d0983613f64565b1687529582019590820190600101614cf0565b509495945050505050565b81835260006001600160fb1b03831115614d4057600080fd5b8260051b80836020870137939093016020019392505050565b604081526000614d6d604083018688614ce0565b8281036020840152614d80818587614d27565b979650505050505050565b600060208284031215614d9d57600080fd5b5051919050565b81810381811115610995576109956147e6565b600082614dd457634e487b7160e01b600052601260045260246000fd5b500490565b600060a08284031215614deb57600080fd5b614df36145c4565b614dfc83613f64565b8152614e0a60208401613f64565b6020820152614e1c8460408501614641565b60408201529392505050565b608081526000614e3c608083018a8c614ce0565b602083820381850152614e50828a8c614ce0565b91508382036040850152614e6582888a614d27565b8481036060860152858152869250810160005b86811015614ea6578335614e8b816145ec565b614e94816140c8565b82529282019290820190600101614e78565b509c9b505050505050505050505050565b60008251614ec98184602087016144c7565b9190910192915050565b7f546f6b656e3a20636f756c64206e6f74207472616e73666572200000000000008152600085516020614f0c82601a8601838b016144c7565b65010333937b6960d51b601a928501928301528651614f3081838501848b016144c7565b630103a37960e51b9201818101929092528551614f5381602485018985016144c7565b660103a37b5b2b7160cd1b602493909101928301528451614f7a81602b85018489016144c7565b91909101602b01979650505050505050565b84815260808101614f9c856140c8565b84602083015283604083015282606083015295945050505050565b600081614fc657614fc66147e6565b506000190190565b7f416363657373436f6e74726f6c3a206163636f756e74200000000000000000008152600083516150068160178501602088016144c7565b7001034b99036b4b9b9b4b733903937b6329607d1b60179184019182015283516150378160288401602088016144c7565b01602801949350505050565b690a8ded6cadc92dcccde560b31b81526000845161506881600a8501602089016144c7565b8083019050600b60fa1b80600a830152855161508b81600b850160208a016144c7565b600b92019182015283516150a681600c8401602088016144c7565b602960f81b600c9290910191820152600d0195945050505050565b7f546f6b656e3a20636f756c64206e6f74207472616e73666572200000000000008152600084516150f981601a8501602089016144c7565b630103a37960e51b601a91840191820152845161511d81601e8401602089016144c7565b660103a37b5b2b7160cd1b601e929091019182015283516151458160258401602088016144c7565b0160250195945050505050565b634e487b7160e01b600052603160045260246000fdfe384495a48d92b97cd9b9d199c73ed783dd1aa0076a6ebcf9156ca7fef7d2cc40a26469706673582212206f3a8735b2344a2af6f5c9674b234e03c719f969c28f8bccf96400466868addf64736f6c63430008110033",
  "devdoc": {
    "errors": {
      "ErrCallerMustBeBridgeTrackingContract()": [
        {
          "details": "Error of method caller must be bridge tracking contract."
        }
      ],
      "ErrCallerMustBeValidatorContract()": [
        {
          "details": "Error of method caller must be validator contract."
        }
      ],
      "ErrZeroCodeContract()": [
        {
          "details": "Error of set to non-contract."
        }
      ]
    },
    "kind": "dev",
    "methods": {
      "bridgeTrackingContract()": {
        "details": "Returns the bridge tracking contract."
      },
      "bulkRequestWithdrawalFor((address,address,(uint8,uint256,uint256))[],uint256)": {
        "details": "Bulk requests withdrawals. Emits the `WithdrawalRequested` events."
      },
      "bulkSubmitWithdrawalSignatures(uint256[],bytes[])": {
        "details": "Submits withdrawal signatures. Requirements: - The method caller is a validator."
      },
      "checkThreshold(uint256)": {
        "details": "Checks whether the `_voteWeight` passes the threshold."
      },
      "depositFor((uint256,uint8,(address,address,uint256),(address,address,uint256),(uint8,uint256,uint256)))": {
        "details": "Deposits based on the receipt. Requirements: - The method caller is a validator. Emits the `Deposited` once the assets are released."
      },
      "depositVoted(uint256,uint256,address)": {
        "details": "Returns whether the deposit is casted by the voter."
      },
      "getMainchainToken(address,uint256)": {
        "details": "Returns mainchain token address. Reverts for unsupported token."
      },
      "getRoleAdmin(bytes32)": {
        "details": "Returns the admin role that controls `role`. See {grantRole} and {revokeRole}. To change a role's admin, use {_setRoleAdmin}."
      },
      "getRoleMember(bytes32,uint256)": {
        "details": "Returns one of the accounts that have `role`. `index` must be a value between 0 and {getRoleMemberCount}, non-inclusive. Role bearers are not sorted in any particular way, and their ordering may change at any point. WARNING: When using {getRoleMember} and {getRoleMemberCount}, make sure you perform all queries on the same block. See the following https://forum.openzeppelin.com/t/iterating-over-elements-on-enumerableset-in-openzeppelin-contracts/2296[forum post] for more information."
      },
      "getRoleMemberCount(bytes32)": {
        "details": "Returns the number of accounts that have `role`. Can be used together with {getRoleMember} to enumerate all bearers of a role."
      },
      "getThreshold()": {
        "details": "Returns the threshold."
      },
      "getWithdrawalSignatures(uint256,address[])": {
        "details": "Returns withdrawal signatures."
      },
      "grantRole(bytes32,address)": {
        "details": "Grants `role` to `account`. If `account` had not been already granted `role`, emits a {RoleGranted} event. Requirements: - the caller must have ``role``'s admin role. May emit a {RoleGranted} event."
      },
      "hasRole(bytes32,address)": {
        "details": "Returns `true` if `account` has been granted `role`."
      },
      "initialize(address,uint256,uint256,address[],address[][2],uint256[][2],uint8[])": {
        "details": "Initializes contract storage."
      },
      "mainchainWithdrew(uint256)": {
        "details": "Returns whether the withdrawal is done on mainchain."
      },
      "mainchainWithdrewVoted(uint256,address)": {
        "details": "Returns whether the mainchain withdrew is casted by the voter."
      },
      "mapTokens(address[],address[],uint256[],uint8[])": {
        "details": "Maps Ronin tokens to mainchain networks. Requirement: - The method caller is admin. - The arrays have the same length and its length larger than 0. Emits the `TokenMapped` event."
      },
      "markWithdrawalMigrated()": {
        "details": "Mark the migration as done."
      },
      "migrateWithdrawals((address,address,(uint8,uint256,uint256))[],address[])": {
        "details": "Migrates withdrawals. Requirements: - The method caller is the migrator. - The arrays have the same length and its length larger than 0."
      },
      "minimumVoteWeight()": {
        "details": "Returns the minimum vote weight to pass the threshold."
      },
      "pause()": {
        "details": "Triggers paused state."
      },
      "paused()": {
        "details": "Returns true if the contract is paused, and false otherwise."
      },
      "renounceRole(bytes32,address)": {
        "details": "Revokes `role` from the calling account. Roles are often managed via {grantRole} and {revokeRole}: this function's purpose is to provide a mechanism for accounts to lose their privileges if they are compromised (such as when a trusted device is misplaced). If the calling account had been revoked `role`, emits a {RoleRevoked} event. Requirements: - the caller must be `account`. May emit a {RoleRevoked} event."
      },
      "requestWithdrawalFor((address,address,(uint8,uint256,uint256)),uint256)": {
        "details": "Locks the assets and request withdrawal. Emits the `WithdrawalRequested` event."
      },
      "requestWithdrawalSignatures(uint256)": {
        "details": "Requests withdrawal signatures for a specific withdrawal. Emits the `WithdrawalSignaturesRequested` event."
      },
      "revokeRole(bytes32,address)": {
        "details": "Revokes `role` from `account`. If `account` had been granted `role`, emits a {RoleRevoked} event. Requirements: - the caller must have ``role``'s admin role. May emit a {RoleRevoked} event."
      },
      "setBridgeTrackingContract(address)": {
        "details": "Sets the bridge tracking contract. Requirements: - The method caller is admin. - The new address is a contract. Emits the event `BridgeTrackingContractUpdated`."
      },
      "setMinimumThresholds(address[],uint256[])": {
        "details": "Sets the minimum thresholds to withdraw. Requirements: - The method caller is admin. - The arrays have the same length and its length larger than 0. Emits the `MinimumThresholdsUpdated` event."
      },
      "setThreshold(uint256,uint256)": {
        "details": "Sets the threshold. Requirements: - The method caller is admin. Emits the `ThresholdUpdated` event."
      },
      "setValidatorContract(address)": {
        "details": "Sets the validator contract. Requirements: - The method caller is admin. - The new address is a contract. Emits the event `ValidatorContractUpdated`."
      },
      "supportsInterface(bytes4)": {
        "details": "See {IERC165-supportsInterface}."
      },
      "tryBulkAcknowledgeMainchainWithdrew(uint256[])": {
        "details": "Marks the withdrawals are done on mainchain and returns the boolean array indicating whether the withdrawal vote is already done before. Requirements: - The method caller is a validator. Emits the `MainchainWithdrew` once the valid call passes the quorum threshold."
      },
      "tryBulkDepositFor((uint256,uint8,(address,address,uint256),(address,address,uint256),(uint8,uint256,uint256))[])": {
        "details": "Tries bulk deposits based on the receipts and returns the boolean array indicating whether the deposit vote is already done before. Reverts if the deposit is invalid or is voted by the validator again. Requirements: - The method caller is a validator. Emits the `Deposited` once the assets are released."
      },
      "unpause()": {
        "details": "Triggers unpaused state."
      },
      "validatorContract()": {
        "details": "Returns the validator contract."
      }
    },
    "stateVariables": {
      "WITHDRAWAL_MIGRATOR": {
        "details": "Withdrawal unlocker role hash"
      },
      "_bridgeTrackingContract": {
        "details": "The bridge tracking contract"
      },
      "_mainchainToken": {
        "details": "Mapping from token address => chain id => mainchain token address"
      },
      "_validatorContract": {
        "details": "The ronin validator contract"
      },
      "_withdrawalSig": {
        "details": "Mapping from withdrawal id => validator address => signatures"
      },
      "depositVote": {
        "details": "Mapping from chain id => deposit id => deposit vote"
      },
      "mainchainWithdrewVote": {
        "details": "Mapping from withdrawal id => mainchain withdrew vote"
      },
      "withdrawal": {
        "details": "Mapping from withdrawal id => withdrawal receipt"
      },
      "withdrawalCount": {
        "details": "Total withdrawal"
      },
      "withdrawalMigrated": {
        "details": "Flag indicating whether the withdrawal migrate progress is done"
      },
      "withdrawalStatVote": {
        "details": "Mapping from withdrawal id => vote for recording withdrawal stats"
      }
    },
    "version": 1
  },
  "userdoc": {
    "kind": "user",
    "methods": {
      "depositFor((uint256,uint8,(address,address,uint256),(address,address,uint256),(uint8,uint256,uint256)))": {
        "notice": "The assets will be transferred whenever the valid call passes the quorum threshold."
      },
      "tryBulkAcknowledgeMainchainWithdrew(uint256[])": {
        "notice": "Not reverting to avoid unnecessary failed transactions because the validators can send transactions at the same time."
      },
      "tryBulkDepositFor((uint256,uint8,(address,address,uint256),(address,address,uint256),(uint8,uint256,uint256))[])": {
        "notice": "The assets will be transferred whenever the valid call for the receipt passes the quorum threshold. Not reverting to avoid unnecessary failed transactions because the validators can send transactions at the same time."
      }
    },
    "version": 1
  },
  "storageLayout": {
    "storage": [
      {
        "astId": 1535,
        "contract": "contracts/ronin/RoninGatewayV2.sol:RoninGatewayV2",
        "label": "_paused",
        "offset": 0,
        "slot": "0",
        "type": "t_bool"
      },
      {
        "astId": 4326,
        "contract": "contracts/ronin/RoninGatewayV2.sol:RoninGatewayV2",
        "label": "_num",
        "offset": 0,
        "slot": "1",
        "type": "t_uint256"
      },
      {
        "astId": 4328,
        "contract": "contracts/ronin/RoninGatewayV2.sol:RoninGatewayV2",
        "label": "_denom",
        "offset": 0,
        "slot": "2",
        "type": "t_uint256"
      },
      {
        "astId": 4330,
        "contract": "contracts/ronin/RoninGatewayV2.sol:RoninGatewayV2",
        "label": "______deprecated",
        "offset": 0,
        "slot": "3",
        "type": "t_address"
      },
      {
        "astId": 4332,
        "contract": "contracts/ronin/RoninGatewayV2.sol:RoninGatewayV2",
        "label": "nonce",
        "offset": 0,
        "slot": "4",
        "type": "t_uint256"
      },
      {
        "astId": 4337,
        "contract": "contracts/ronin/RoninGatewayV2.sol:RoninGatewayV2",
        "label": "______gap",
        "offset": 0,
        "slot": "5",
        "type": "t_array(t_uint256)50_storage"
      },
      {
        "astId": 1373,
        "contract": "contracts/ronin/RoninGatewayV2.sol:RoninGatewayV2",
        "label": "_initialized",
        "offset": 0,
        "slot": "55",
        "type": "t_uint8"
      },
      {
        "astId": 1376,
        "contract": "contracts/ronin/RoninGatewayV2.sol:RoninGatewayV2",
        "label": "_initializing",
        "offset": 1,
        "slot": "55",
        "type": "t_bool"
      },
      {
        "astId": 4835,
        "contract": "contracts/ronin/RoninGatewayV2.sol:RoninGatewayV2",
        "label": "minimumThreshold",
        "offset": 0,
        "slot": "56",
        "type": "t_mapping(t_address,t_uint256)"
      },
      {
        "astId": 4840,
        "contract": "contracts/ronin/RoninGatewayV2.sol:RoninGatewayV2",
        "label": "______gap",
        "offset": 0,
        "slot": "57",
        "type": "t_array(t_uint256)50_storage"
      },
      {
        "astId": 24,
        "contract": "contracts/ronin/RoninGatewayV2.sol:RoninGatewayV2",
        "label": "_roles",
        "offset": 0,
        "slot": "107",
        "type": "t_mapping(t_bytes32,t_struct(RoleData)19_storage)"
      },
      {
        "astId": 338,
        "contract": "contracts/ronin/RoninGatewayV2.sol:RoninGatewayV2",
        "label": "_roleMembers",
        "offset": 0,
        "slot": "108",
        "type": "t_mapping(t_bytes32,t_struct(AddressSet)4026_storage)"
      },
      {
        "astId": 21664,
        "contract": "contracts/ronin/RoninGatewayV2.sol:RoninGatewayV2",
        "label": "withdrawalMigrated",
        "offset": 0,
        "slot": "109",
        "type": "t_bool"
      },
      {
        "astId": 21667,
        "contract": "contracts/ronin/RoninGatewayV2.sol:RoninGatewayV2",
        "label": "withdrawalCount",
        "offset": 0,
        "slot": "110",
        "type": "t_uint256"
      },
      {
        "astId": 21675,
        "contract": "contracts/ronin/RoninGatewayV2.sol:RoninGatewayV2",
        "label": "depositVote",
        "offset": 0,
        "slot": "111",
        "type": "t_mapping(t_uint256,t_mapping(t_uint256,t_struct(IsolatedVote)6717_storage))"
      },
      {
        "astId": 21681,
        "contract": "contracts/ronin/RoninGatewayV2.sol:RoninGatewayV2",
        "label": "mainchainWithdrewVote",
        "offset": 0,
        "slot": "112",
        "type": "t_mapping(t_uint256,t_struct(IsolatedVote)6717_storage)"
      },
      {
        "astId": 21687,
        "contract": "contracts/ronin/RoninGatewayV2.sol:RoninGatewayV2",
        "label": "withdrawal",
        "offset": 0,
        "slot": "113",
        "type": "t_mapping(t_uint256,t_struct(Receipt)14182_storage)"
      },
      {
        "astId": 21694,
        "contract": "contracts/ronin/RoninGatewayV2.sol:RoninGatewayV2",
        "label": "_withdrawalSig",
        "offset": 0,
        "slot": "114",
        "type": "t_mapping(t_uint256,t_mapping(t_address,t_bytes_storage))"
      },
      {
        "astId": 21702,
        "contract": "contracts/ronin/RoninGatewayV2.sol:RoninGatewayV2",
        "label": "_mainchainToken",
        "offset": 0,
        "slot": "115",
        "type": "t_mapping(t_address,t_mapping(t_uint256,t_struct(MappedToken)10558_storage))"
      },
      {
        "astId": 21706,
        "contract": "contracts/ronin/RoninGatewayV2.sol:RoninGatewayV2",
        "label": "_validatorContract",
        "offset": 0,
        "slot": "116",
        "type": "t_contract(IRoninValidatorSet)11978"
      },
      {
        "astId": 21710,
        "contract": "contracts/ronin/RoninGatewayV2.sol:RoninGatewayV2",
        "label": "_bridgeTrackingContract",
        "offset": 0,
        "slot": "117",
        "type": "t_contract(IBridgeTracking)9335"
      },
      {
        "astId": 21716,
        "contract": "contracts/ronin/RoninGatewayV2.sol:RoninGatewayV2",
        "label": "withdrawalStatVote",
        "offset": 0,
        "slot": "118",
        "type": "t_mapping(t_uint256,t_struct(IsolatedVote)6717_storage)"
      }
    ],
    "types": {
      "t_address": {
        "encoding": "inplace",
        "label": "address",
        "numberOfBytes": "20"
      },
      "t_array(t_bytes32)dyn_storage": {
        "base": "t_bytes32",
        "encoding": "dynamic_array",
        "label": "bytes32[]",
        "numberOfBytes": "32"
      },
      "t_array(t_uint256)50_storage": {
        "base": "t_uint256",
        "encoding": "inplace",
        "label": "uint256[50]",
        "numberOfBytes": "1600"
      },
      "t_bool": {
        "encoding": "inplace",
        "label": "bool",
        "numberOfBytes": "1"
      },
      "t_bytes32": {
        "encoding": "inplace",
        "label": "bytes32",
        "numberOfBytes": "32"
      },
      "t_bytes_storage": {
        "encoding": "bytes",
        "label": "bytes",
        "numberOfBytes": "32"
      },
      "t_contract(IBridgeTracking)9335": {
        "encoding": "inplace",
        "label": "contract IBridgeTracking",
        "numberOfBytes": "20"
      },
      "t_contract(IRoninValidatorSet)11978": {
        "encoding": "inplace",
        "label": "contract IRoninValidatorSet",
        "numberOfBytes": "20"
      },
      "t_enum(Kind)13979": {
        "encoding": "inplace",
        "label": "enum Transfer.Kind",
        "numberOfBytes": "1"
      },
      "t_enum(Standard)13371": {
        "encoding": "inplace",
        "label": "enum Token.Standard",
        "numberOfBytes": "1"
      },
      "t_enum(VoteStatus)10585": {
        "encoding": "inplace",
        "label": "enum VoteStatusConsumer.VoteStatus",
        "numberOfBytes": "1"
      },
      "t_mapping(t_address,t_bool)": {
        "encoding": "mapping",
        "key": "t_address",
        "label": "mapping(address => bool)",
        "numberOfBytes": "32",
        "value": "t_bool"
      },
      "t_mapping(t_address,t_bytes32)": {
        "encoding": "mapping",
        "key": "t_address",
        "label": "mapping(address => bytes32)",
        "numberOfBytes": "32",
        "value": "t_bytes32"
      },
      "t_mapping(t_address,t_bytes_storage)": {
        "encoding": "mapping",
        "key": "t_address",
        "label": "mapping(address => bytes)",
        "numberOfBytes": "32",
        "value": "t_bytes_storage"
      },
      "t_mapping(t_address,t_mapping(t_uint256,t_struct(MappedToken)10558_storage))": {
        "encoding": "mapping",
        "key": "t_address",
        "label": "mapping(address => mapping(uint256 => struct MappedTokenConsumer.MappedToken))",
        "numberOfBytes": "32",
        "value": "t_mapping(t_uint256,t_struct(MappedToken)10558_storage)"
      },
      "t_mapping(t_address,t_uint256)": {
        "encoding": "mapping",
        "key": "t_address",
        "label": "mapping(address => uint256)",
        "numberOfBytes": "32",
        "value": "t_uint256"
      },
      "t_mapping(t_bytes32,t_struct(AddressSet)4026_storage)": {
        "encoding": "mapping",
        "key": "t_bytes32",
        "label": "mapping(bytes32 => struct EnumerableSet.AddressSet)",
        "numberOfBytes": "32",
        "value": "t_struct(AddressSet)4026_storage"
      },
      "t_mapping(t_bytes32,t_struct(RoleData)19_storage)": {
        "encoding": "mapping",
        "key": "t_bytes32",
        "label": "mapping(bytes32 => struct AccessControl.RoleData)",
        "numberOfBytes": "32",
        "value": "t_struct(RoleData)19_storage"
      },
      "t_mapping(t_bytes32,t_uint256)": {
        "encoding": "mapping",
        "key": "t_bytes32",
        "label": "mapping(bytes32 => uint256)",
        "numberOfBytes": "32",
        "value": "t_uint256"
      },
      "t_mapping(t_uint256,t_mapping(t_address,t_bytes_storage))": {
        "encoding": "mapping",
        "key": "t_uint256",
        "label": "mapping(uint256 => mapping(address => bytes))",
        "numberOfBytes": "32",
        "value": "t_mapping(t_address,t_bytes_storage)"
      },
      "t_mapping(t_uint256,t_mapping(t_uint256,t_struct(IsolatedVote)6717_storage))": {
        "encoding": "mapping",
        "key": "t_uint256",
        "label": "mapping(uint256 => mapping(uint256 => struct IsolatedGovernance.IsolatedVote))",
        "numberOfBytes": "32",
        "value": "t_mapping(t_uint256,t_struct(IsolatedVote)6717_storage)"
      },
      "t_mapping(t_uint256,t_struct(IsolatedVote)6717_storage)": {
        "encoding": "mapping",
        "key": "t_uint256",
        "label": "mapping(uint256 => struct IsolatedGovernance.IsolatedVote)",
        "numberOfBytes": "32",
        "value": "t_struct(IsolatedVote)6717_storage"
      },
      "t_mapping(t_uint256,t_struct(MappedToken)10558_storage)": {
        "encoding": "mapping",
        "key": "t_uint256",
        "label": "mapping(uint256 => struct MappedTokenConsumer.MappedToken)",
        "numberOfBytes": "32",
        "value": "t_struct(MappedToken)10558_storage"
      },
      "t_mapping(t_uint256,t_struct(Receipt)14182_storage)": {
        "encoding": "mapping",
        "key": "t_uint256",
        "label": "mapping(uint256 => struct Transfer.Receipt)",
        "numberOfBytes": "32",
        "value": "t_struct(Receipt)14182_storage"
      },
      "t_struct(AddressSet)4026_storage": {
        "encoding": "inplace",
        "label": "struct EnumerableSet.AddressSet",
        "members": [
          {
            "astId": 4025,
            "contract": "contracts/ronin/RoninGatewayV2.sol:RoninGatewayV2",
            "label": "_inner",
            "offset": 0,
            "slot": "0",
            "type": "t_struct(Set)3725_storage"
          }
        ],
        "numberOfBytes": "64"
      },
      "t_struct(Info)13379_storage": {
        "encoding": "inplace",
        "label": "struct Token.Info",
        "members": [
          {
            "astId": 13374,
            "contract": "contracts/ronin/RoninGatewayV2.sol:RoninGatewayV2",
            "label": "erc",
            "offset": 0,
            "slot": "0",
            "type": "t_enum(Standard)13371"
          },
          {
            "astId": 13376,
            "contract": "contracts/ronin/RoninGatewayV2.sol:RoninGatewayV2",
            "label": "id",
            "offset": 0,
            "slot": "1",
            "type": "t_uint256"
          },
          {
            "astId": 13378,
            "contract": "contracts/ronin/RoninGatewayV2.sol:RoninGatewayV2",
            "label": "quantity",
            "offset": 0,
            "slot": "2",
            "type": "t_uint256"
          }
        ],
        "numberOfBytes": "96"
      },
      "t_struct(IsolatedVote)6717_storage": {
        "encoding": "inplace",
        "label": "struct IsolatedGovernance.IsolatedVote",
        "members": [
          {
            "astId": 6698,
            "contract": "contracts/ronin/RoninGatewayV2.sol:RoninGatewayV2",
            "label": "status",
            "offset": 0,
            "slot": "0",
            "type": "t_enum(VoteStatus)10585"
          },
          {
            "astId": 6700,
            "contract": "contracts/ronin/RoninGatewayV2.sol:RoninGatewayV2",
            "label": "finalHash",
            "offset": 0,
            "slot": "1",
            "type": "t_bytes32"
          },
          {
            "astId": 6705,
            "contract": "contracts/ronin/RoninGatewayV2.sol:RoninGatewayV2",
            "label": "voteHashOf",
            "offset": 0,
            "slot": "2",
            "type": "t_mapping(t_address,t_bytes32)"
          },
          {
            "astId": 6710,
            "contract": "contracts/ronin/RoninGatewayV2.sol:RoninGatewayV2",
            "label": "weight",
            "offset": 0,
            "slot": "3",
            "type": "t_mapping(t_bytes32,t_uint256)"
          },
          {
            "astId": 6713,
            "contract": "contracts/ronin/RoninGatewayV2.sol:RoninGatewayV2",
            "label": "expiredAt",
            "offset": 0,
            "slot": "4",
            "type": "t_uint256"
          },
          {
            "astId": 6716,
            "contract": "contracts/ronin/RoninGatewayV2.sol:RoninGatewayV2",
            "label": "createdAt",
            "offset": 0,
            "slot": "5",
            "type": "t_uint256"
          }
        ],
        "numberOfBytes": "192"
      },
      "t_struct(MappedToken)10558_storage": {
        "encoding": "inplace",
        "label": "struct MappedTokenConsumer.MappedToken",
        "members": [
          {
            "astId": 10555,
            "contract": "contracts/ronin/RoninGatewayV2.sol:RoninGatewayV2",
            "label": "erc",
            "offset": 0,
            "slot": "0",
            "type": "t_enum(Standard)13371"
          },
          {
            "astId": 10557,
            "contract": "contracts/ronin/RoninGatewayV2.sol:RoninGatewayV2",
            "label": "tokenAddr",
            "offset": 1,
            "slot": "0",
            "type": "t_address"
          }
        ],
        "numberOfBytes": "32"
      },
      "t_struct(Owner)13940_storage": {
        "encoding": "inplace",
        "label": "struct Token.Owner",
        "members": [
          {
            "astId": 13935,
            "contract": "contracts/ronin/RoninGatewayV2.sol:RoninGatewayV2",
            "label": "addr",
            "offset": 0,
            "slot": "0",
            "type": "t_address"
          },
          {
            "astId": 13937,
            "contract": "contracts/ronin/RoninGatewayV2.sol:RoninGatewayV2",
            "label": "tokenAddr",
            "offset": 0,
            "slot": "1",
            "type": "t_address"
          },
          {
            "astId": 13939,
            "contract": "contracts/ronin/RoninGatewayV2.sol:RoninGatewayV2",
            "label": "chainId",
            "offset": 0,
            "slot": "2",
            "type": "t_uint256"
          }
        ],
        "numberOfBytes": "96"
      },
      "t_struct(Receipt)14182_storage": {
        "encoding": "inplace",
        "label": "struct Transfer.Receipt",
        "members": [
          {
            "astId": 14169,
            "contract": "contracts/ronin/RoninGatewayV2.sol:RoninGatewayV2",
            "label": "id",
            "offset": 0,
            "slot": "0",
            "type": "t_uint256"
          },
          {
            "astId": 14172,
            "contract": "contracts/ronin/RoninGatewayV2.sol:RoninGatewayV2",
            "label": "kind",
            "offset": 0,
            "slot": "1",
            "type": "t_enum(Kind)13979"
          },
          {
            "astId": 14175,
            "contract": "contracts/ronin/RoninGatewayV2.sol:RoninGatewayV2",
            "label": "mainchain",
            "offset": 0,
            "slot": "2",
            "type": "t_struct(Owner)13940_storage"
          },
          {
            "astId": 14178,
            "contract": "contracts/ronin/RoninGatewayV2.sol:RoninGatewayV2",
            "label": "ronin",
            "offset": 0,
            "slot": "5",
            "type": "t_struct(Owner)13940_storage"
          },
          {
            "astId": 14181,
            "contract": "contracts/ronin/RoninGatewayV2.sol:RoninGatewayV2",
            "label": "info",
            "offset": 0,
            "slot": "8",
            "type": "t_struct(Info)13379_storage"
          }
        ],
        "numberOfBytes": "352"
      },
      "t_struct(RoleData)19_storage": {
        "encoding": "inplace",
        "label": "struct AccessControl.RoleData",
        "members": [
          {
            "astId": 16,
            "contract": "contracts/ronin/RoninGatewayV2.sol:RoninGatewayV2",
            "label": "members",
            "offset": 0,
            "slot": "0",
            "type": "t_mapping(t_address,t_bool)"
          },
          {
            "astId": 18,
            "contract": "contracts/ronin/RoninGatewayV2.sol:RoninGatewayV2",
            "label": "adminRole",
            "offset": 0,
            "slot": "1",
            "type": "t_bytes32"
          }
        ],
        "numberOfBytes": "64"
      },
      "t_struct(Set)3725_storage": {
        "encoding": "inplace",
        "label": "struct EnumerableSet.Set",
        "members": [
          {
            "astId": 3720,
            "contract": "contracts/ronin/RoninGatewayV2.sol:RoninGatewayV2",
            "label": "_values",
            "offset": 0,
            "slot": "0",
            "type": "t_array(t_bytes32)dyn_storage"
          },
          {
            "astId": 3724,
            "contract": "contracts/ronin/RoninGatewayV2.sol:RoninGatewayV2",
            "label": "_indexes",
            "offset": 0,
            "slot": "1",
            "type": "t_mapping(t_bytes32,t_uint256)"
          }
        ],
        "numberOfBytes": "64"
      },
      "t_uint256": {
        "encoding": "inplace",
        "label": "uint256",
        "numberOfBytes": "32"
      },
      "t_uint8": {
        "encoding": "inplace",
        "label": "uint8",
        "numberOfBytes": "1"
      }
    }
  }
}