{
  "address": "0x5a5E2e053D41c1B8FD19836b0df0FD19eE69eCC0",
  "abi": [
    {
      "inputs": [
        {
          "internalType": "address",
          "name": "voter",
          "type": "address"
        }
      ],
      "name": "ErrAlreadyVoted",
      "type": "error"
    },
    {
      "inputs": [
        {
          "internalType": "enum ContractType",
          "name": "contractType",
          "type": "uint8"
        }
      ],
      "name": "ErrContractTypeNotFound",
      "type": "error"
    },
    {
      "inputs": [],
      "name": "ErrERC20MintingFailed",
      "type": "error"
    },
    {
      "inputs": [],
      "name": "ErrERC721MintingFailed",
      "type": "error"
    },
    {
      "inputs": [],
      "name": "ErrEmptyArray",
      "type": "error"
    },
    {
      "inputs": [
        {
          "internalType": "bytes4",
          "name": "msgSig",
          "type": "bytes4"
        },
        {
          "internalType": "uint256",
          "name": "actual",
          "type": "uint256"
        },
        {
          "internalType": "uint256",
          "name": "expected",
          "type": "uint256"
        }
      ],
      "name": "ErrInvalidChainId",
      "type": "error"
    },
    {
      "inputs": [],
      "name": "ErrInvalidInfo",
      "type": "error"
    },
    {
      "inputs": [],
      "name": "ErrInvalidReceipt",
      "type": "error"
    },
    {
      "inputs": [],
      "name": "ErrInvalidReceiptKind",
      "type": "error"
    },
    {
      "inputs": [],
      "name": "ErrInvalidRequest",
      "type": "error"
    },
    {
      "inputs": [
        {
          "internalType": "bytes4",
          "name": "msgSig",
          "type": "bytes4"
        }
      ],
      "name": "ErrInvalidThreshold",
      "type": "error"
    },
    {
      "inputs": [],
      "name": "ErrInvalidTokenStandard",
      "type": "error"
    },
    {
      "inputs": [],
      "name": "ErrInvalidTrustedThreshold",
      "type": "error"
    },
    {
      "inputs": [
        {
          "internalType": "bytes4",
          "name": "msgSig",
          "type": "bytes4"
        }
      ],
      "name": "ErrLengthMismatch",
      "type": "error"
    },
    {
      "inputs": [],
      "name": "ErrQueryForTooSmallQuantity",
      "type": "error"
    },
    {
      "inputs": [
        {
          "components": [
            {
              "internalType": "enum Token.Standard",
              "name": "erc",
              "type": "uint8"
            },
            {
              "internalType": "uint256",
              "name": "id",
              "type": "uint256"
            },
            {
              "internalType": "uint256",
              "name": "quantity",
              "type": "uint256"
            }
          ],
          "internalType": "struct Token.Info",
          "name": "tokenInfo",
          "type": "tuple"
        },
        {
          "internalType": "address",
          "name": "to",
          "type": "address"
        },
        {
          "internalType": "address",
          "name": "token",
          "type": "address"
        }
      ],
      "name": "ErrTokenCouldNotTransfer",
      "type": "error"
    },
    {
      "inputs": [
        {
          "components": [
            {
              "internalType": "enum Token.Standard",
              "name": "erc",
              "type": "uint8"
            },
            {
              "internalType": "uint256",
              "name": "id",
              "type": "uint256"
            },
            {
              "internalType": "uint256",
              "name": "quantity",
              "type": "uint256"
            }
          ],
          "internalType": "struct Token.Info",
          "name": "tokenInfo",
          "type": "tuple"
        },
        {
          "internalType": "address",
          "name": "from",
          "type": "address"
        },
        {
          "internalType": "address",
          "name": "to",
          "type": "address"
        },
        {
          "internalType": "address",
          "name": "token",
          "type": "address"
        }
      ],
      "name": "ErrTokenCouldNotTransferFrom",
      "type": "error"
    },
    {
      "inputs": [
        {
          "internalType": "bytes4",
          "name": "msgSig",
          "type": "bytes4"
        },
        {
          "internalType": "enum RoleAccess",
          "name": "expectedRole",
          "type": "uint8"
        }
      ],
      "name": "ErrUnauthorized",
      "type": "error"
    },
    {
      "inputs": [],
      "name": "ErrUnsupportedStandard",
      "type": "error"
    },
    {
      "inputs": [],
      "name": "ErrUnsupportedToken",
      "type": "error"
    },
    {
      "inputs": [],
      "name": "ErrWithdrawalsMigrated",
      "type": "error"
    },
    {
      "inputs": [],
      "name": "ErrWithdrawnOnMainchainAlready",
      "type": "error"
    },
    {
      "inputs": [
        {
          "internalType": "address",
          "name": "addr",
          "type": "address"
        }
      ],
      "name": "ErrZeroCodeContract",
      "type": "error"
    },
    {
      "anonymous": false,
      "inputs": [
        {
          "indexed": true,
          "internalType": "enum ContractType",
          "name": "contractType",
          "type": "uint8"
        },
        {
          "indexed": true,
          "internalType": "address",
          "name": "addr",
          "type": "address"
        }
      ],
      "name": "ContractUpdated",
      "type": "event"
    },
    {
      "anonymous": false,
      "inputs": [
        {
          "indexed": true,
          "internalType": "address",
          "name": "bridgeOperator",
          "type": "address"
        },
        {
          "indexed": true,
          "internalType": "uint256",
          "name": "id",
          "type": "uint256"
        },
        {
          "indexed": true,
          "internalType": "uint256",
          "name": "chainId",
          "type": "uint256"
        },
        {
          "indexed": false,
          "internalType": "bytes32",
          "name": "receiptHash",
          "type": "bytes32"
        }
      ],
      "name": "DepositVoted",
      "type": "event"
    },
    {
      "anonymous": false,
      "inputs": [
        {
          "indexed": false,
          "internalType": "bytes32",
          "name": "receiptHash",
          "type": "bytes32"
        },
        {
          "components": [
            {
              "internalType": "uint256",
              "name": "id",
              "type": "uint256"
            },
            {
              "internalType": "enum Transfer.Kind",
              "name": "kind",
              "type": "uint8"
            },
            {
              "components": [
                {
                  "internalType": "address",
                  "name": "addr",
                  "type": "address"
                },
                {
                  "internalType": "address",
                  "name": "tokenAddr",
                  "type": "address"
                },
                {
                  "internalType": "uint256",
                  "name": "chainId",
                  "type": "uint256"
                }
              ],
              "internalType": "struct Token.Owner",
              "name": "mainchain",
              "type": "tuple"
            },
            {
              "components": [
                {
                  "internalType": "address",
                  "name": "addr",
                  "type": "address"
                },
                {
                  "internalType": "address",
                  "name": "tokenAddr",
                  "type": "address"
                },
                {
                  "internalType": "uint256",
                  "name": "chainId",
                  "type": "uint256"
                }
              ],
              "internalType": "struct Token.Owner",
              "name": "ronin",
              "type": "tuple"
            },
            {
              "components": [
                {
                  "internalType": "enum Token.Standard",
                  "name": "erc",
                  "type": "uint8"
                },
                {
                  "internalType": "uint256",
                  "name": "id",
                  "type": "uint256"
                },
                {
                  "internalType": "uint256",
                  "name": "quantity",
                  "type": "uint256"
                }
              ],
              "internalType": "struct Token.Info",
              "name": "info",
              "type": "tuple"
            }
          ],
          "indexed": false,
          "internalType": "struct Transfer.Receipt",
          "name": "receipt",
          "type": "tuple"
        }
      ],
      "name": "Deposited",
      "type": "event"
    },
    {
      "anonymous": false,
      "inputs": [
        {
          "indexed": false,
          "internalType": "uint8",
          "name": "version",
          "type": "uint8"
        }
      ],
      "name": "Initialized",
      "type": "event"
    },
    {
      "anonymous": false,
      "inputs": [
        {
          "indexed": false,
          "internalType": "bytes32",
          "name": "receiptHash",
          "type": "bytes32"
        },
        {
          "components": [
            {
              "internalType": "uint256",
              "name": "id",
              "type": "uint256"
            },
            {
              "internalType": "enum Transfer.Kind",
              "name": "kind",
              "type": "uint8"
            },
            {
              "components": [
                {
                  "internalType": "address",
                  "name": "addr",
                  "type": "address"
                },
                {
                  "internalType": "address",
                  "name": "tokenAddr",
                  "type": "address"
                },
                {
                  "internalType": "uint256",
                  "name": "chainId",
                  "type": "uint256"
                }
              ],
              "internalType": "struct Token.Owner",
              "name": "mainchain",
              "type": "tuple"
            },
            {
              "components": [
                {
                  "internalType": "address",
                  "name": "addr",
                  "type": "address"
                },
                {
                  "internalType": "address",
                  "name": "tokenAddr",
                  "type": "address"
                },
                {
                  "internalType": "uint256",
                  "name": "chainId",
                  "type": "uint256"
                }
              ],
              "internalType": "struct Token.Owner",
              "name": "ronin",
              "type": "tuple"
            },
            {
              "components": [
                {
                  "internalType": "enum Token.Standard",
                  "name": "erc",
                  "type": "uint8"
                },
                {
                  "internalType": "uint256",
                  "name": "id",
                  "type": "uint256"
                },
                {
                  "internalType": "uint256",
                  "name": "quantity",
                  "type": "uint256"
                }
              ],
              "internalType": "struct Token.Info",
              "name": "info",
              "type": "tuple"
            }
          ],
          "indexed": false,
          "internalType": "struct Transfer.Receipt",
          "name": "receipt",
          "type": "tuple"
        }
      ],
      "name": "MainchainWithdrew",
      "type": "event"
    },
    {
      "anonymous": false,
      "inputs": [
        {
          "indexed": false,
          "internalType": "address[]",
          "name": "tokens",
          "type": "address[]"
        },
        {
          "indexed": false,
          "internalType": "uint256[]",
          "name": "threshold",
          "type": "uint256[]"
        }
      ],
      "name": "MinimumThresholdsUpdated",
      "type": "event"
    },
    {
      "anonymous": false,
      "inputs": [
        {
          "indexed": false,
          "internalType": "address",
          "name": "account",
          "type": "address"
        }
      ],
      "name": "Paused",
      "type": "event"
    },
    {
      "anonymous": false,
      "inputs": [
        {
          "indexed": true,
          "internalType": "bytes32",
          "name": "role",
          "type": "bytes32"
        },
        {
          "indexed": true,
          "internalType": "bytes32",
          "name": "previousAdminRole",
          "type": "bytes32"
        },
        {
          "indexed": true,
          "internalType": "bytes32",
          "name": "newAdminRole",
          "type": "bytes32"
        }
      ],
      "name": "RoleAdminChanged",
      "type": "event"
    },
    {
      "anonymous": false,
      "inputs": [
        {
          "indexed": true,
          "internalType": "bytes32",
          "name": "role",
          "type": "bytes32"
        },
        {
          "indexed": true,
          "internalType": "address",
          "name": "account",
          "type": "address"
        },
        {
          "indexed": true,
          "internalType": "address",
          "name": "sender",
          "type": "address"
        }
      ],
      "name": "RoleGranted",
      "type": "event"
    },
    {
      "anonymous": false,
      "inputs": [
        {
          "indexed": true,
          "internalType": "bytes32",
          "name": "role",
          "type": "bytes32"
        },
        {
          "indexed": true,
          "internalType": "address",
          "name": "account",
          "type": "address"
        },
        {
          "indexed": true,
          "internalType": "address",
          "name": "sender",
          "type": "address"
        }
      ],
      "name": "RoleRevoked",
      "type": "event"
    },
    {
      "anonymous": false,
      "inputs": [
        {
          "indexed": true,
          "internalType": "uint256",
          "name": "nonce",
          "type": "uint256"
        },
        {
          "indexed": true,
          "internalType": "uint256",
          "name": "numerator",
          "type": "uint256"
        },
        {
          "indexed": true,
          "internalType": "uint256",
          "name": "denominator",
          "type": "uint256"
        },
        {
          "indexed": false,
          "internalType": "uint256",
          "name": "previousNumerator",
          "type": "uint256"
        },
        {
          "indexed": false,
          "internalType": "uint256",
          "name": "previousDenominator",
          "type": "uint256"
        }
      ],
      "name": "ThresholdUpdated",
      "type": "event"
    },
    {
      "anonymous": false,
      "inputs": [
        {
          "indexed": false,
          "internalType": "address[]",
          "name": "roninTokens",
          "type": "address[]"
        },
        {
          "indexed": false,
          "internalType": "address[]",
          "name": "mainchainTokens",
          "type": "address[]"
        },
        {
          "indexed": false,
          "internalType": "uint256[]",
          "name": "chainIds",
          "type": "uint256[]"
        },
        {
          "indexed": false,
          "internalType": "enum Token.Standard[]",
          "name": "standards",
          "type": "uint8[]"
        }
      ],
      "name": "TokenMapped",
      "type": "event"
    },
    {
      "anonymous": false,
      "inputs": [
        {
          "indexed": true,
          "internalType": "uint256",
          "name": "nonce",
          "type": "uint256"
        },
        {
          "indexed": true,
          "internalType": "uint256",
          "name": "numerator",
          "type": "uint256"
        },
        {
          "indexed": true,
          "internalType": "uint256",
          "name": "denominator",
          "type": "uint256"
        },
        {
          "indexed": false,
          "internalType": "uint256",
          "name": "previousNumerator",
          "type": "uint256"
        },
        {
          "indexed": false,
          "internalType": "uint256",
          "name": "previousDenominator",
          "type": "uint256"
        }
      ],
      "name": "TrustedThresholdUpdated",
      "type": "event"
    },
    {
      "anonymous": false,
      "inputs": [
        {
          "indexed": false,
          "internalType": "address",
          "name": "account",
          "type": "address"
        }
      ],
      "name": "Unpaused",
      "type": "event"
    },
    {
      "anonymous": false,
      "inputs": [
        {
          "indexed": false,
          "internalType": "bytes32",
          "name": "receiptHash",
          "type": "bytes32"
        },
        {
          "components": [
            {
              "internalType": "uint256",
              "name": "id",
              "type": "uint256"
            },
            {
              "internalType": "enum Transfer.Kind",
              "name": "kind",
              "type": "uint8"
            },
            {
              "components": [
                {
                  "internalType": "address",
                  "name": "addr",
                  "type": "address"
                },
                {
                  "internalType": "address",
                  "name": "tokenAddr",
                  "type": "address"
                },
                {
                  "internalType": "uint256",
                  "name": "chainId",
                  "type": "uint256"
                }
              ],
              "internalType": "struct Token.Owner",
              "name": "mainchain",
              "type": "tuple"
            },
            {
              "components": [
                {
                  "internalType": "address",
                  "name": "addr",
                  "type": "address"
                },
                {
                  "internalType": "address",
                  "name": "tokenAddr",
                  "type": "address"
                },
                {
                  "internalType": "uint256",
                  "name": "chainId",
                  "type": "uint256"
                }
              ],
              "internalType": "struct Token.Owner",
              "name": "ronin",
              "type": "tuple"
            },
            {
              "components": [
                {
                  "internalType": "enum Token.Standard",
                  "name": "erc",
                  "type": "uint8"
                },
                {
                  "internalType": "uint256",
                  "name": "id",
                  "type": "uint256"
                },
                {
                  "internalType": "uint256",
                  "name": "quantity",
                  "type": "uint256"
                }
              ],
              "internalType": "struct Token.Info",
              "name": "info",
              "type": "tuple"
            }
          ],
          "indexed": false,
          "internalType": "struct Transfer.Receipt",
          "name": "",
          "type": "tuple"
        }
      ],
      "name": "WithdrawalRequested",
      "type": "event"
    },
    {
      "anonymous": false,
      "inputs": [
        {
          "indexed": false,
          "internalType": "bytes32",
          "name": "receiptHash",
          "type": "bytes32"
        },
        {
          "components": [
            {
              "internalType": "uint256",
              "name": "id",
              "type": "uint256"
            },
            {
              "internalType": "enum Transfer.Kind",
              "name": "kind",
              "type": "uint8"
            },
            {
              "components": [
                {
                  "internalType": "address",
                  "name": "addr",
                  "type": "address"
                },
                {
                  "internalType": "address",
                  "name": "tokenAddr",
                  "type": "address"
                },
                {
                  "internalType": "uint256",
                  "name": "chainId",
                  "type": "uint256"
                }
              ],
              "internalType": "struct Token.Owner",
              "name": "mainchain",
              "type": "tuple"
            },
            {
              "components": [
                {
                  "internalType": "address",
                  "name": "addr",
                  "type": "address"
                },
                {
                  "internalType": "address",
                  "name": "tokenAddr",
                  "type": "address"
                },
                {
                  "internalType": "uint256",
                  "name": "chainId",
                  "type": "uint256"
                }
              ],
              "internalType": "struct Token.Owner",
              "name": "ronin",
              "type": "tuple"
            },
            {
              "components": [
                {
                  "internalType": "enum Token.Standard",
                  "name": "erc",
                  "type": "uint8"
                },
                {
                  "internalType": "uint256",
                  "name": "id",
                  "type": "uint256"
                },
                {
                  "internalType": "uint256",
                  "name": "quantity",
                  "type": "uint256"
                }
              ],
              "internalType": "struct Token.Info",
              "name": "info",
              "type": "tuple"
            }
          ],
          "indexed": false,
          "internalType": "struct Transfer.Receipt",
          "name": "",
          "type": "tuple"
        }
      ],
      "name": "WithdrawalSignaturesRequested",
      "type": "event"
    },
    {
      "stateMutability": "payable",
      "type": "fallback"
    },
    {
      "inputs": [],
      "name": "DEFAULT_ADMIN_ROLE",
      "outputs": [
        {
          "internalType": "bytes32",
          "name": "",
          "type": "bytes32"
        }
      ],
      "stateMutability": "view",
      "type": "function"
    },
    {
      "inputs": [],
      "name": "WITHDRAWAL_MIGRATOR",
      "outputs": [
        {
          "internalType": "bytes32",
          "name": "",
          "type": "bytes32"
        }
      ],
      "stateMutability": "view",
      "type": "function"
    },
    {
      "inputs": [
        {
          "components": [
            {
              "internalType": "address",
              "name": "recipientAddr",
              "type": "address"
            },
            {
              "internalType": "address",
              "name": "tokenAddr",
              "type": "address"
            },
            {
              "components": [
                {
                  "internalType": "enum Token.Standard",
                  "name": "erc",
                  "type": "uint8"
                },
                {
                  "internalType": "uint256",
                  "name": "id",
                  "type": "uint256"
                },
                {
                  "internalType": "uint256",
                  "name": "quantity",
                  "type": "uint256"
                }
              ],
              "internalType": "struct Token.Info",
              "name": "info",
              "type": "tuple"
            }
          ],
          "internalType": "struct Transfer.Request[]",
          "name": "_requests",
          "type": "tuple[]"
        },
        {
          "internalType": "uint256",
          "name": "_chainId",
          "type": "uint256"
        }
      ],
      "name": "bulkRequestWithdrawalFor",
      "outputs": [],
      "stateMutability": "nonpayable",
      "type": "function"
    },
    {
      "inputs": [
        {
          "internalType": "uint256[]",
          "name": "_withdrawals",
          "type": "uint256[]"
        },
        {
          "internalType": "bytes[]",
          "name": "_signatures",
          "type": "bytes[]"
        }
      ],
      "name": "bulkSubmitWithdrawalSignatures",
      "outputs": [],
      "stateMutability": "nonpayable",
      "type": "function"
    },
    {
      "inputs": [
        {
          "internalType": "uint256",
          "name": "_voteWeight",
          "type": "uint256"
        }
      ],
      "name": "checkThreshold",
      "outputs": [
        {
          "internalType": "bool",
          "name": "",
          "type": "bool"
        }
      ],
      "stateMutability": "view",
      "type": "function"
    },
    {
      "inputs": [
        {
          "components": [
            {
              "internalType": "uint256",
              "name": "id",
              "type": "uint256"
            },
            {
              "internalType": "enum Transfer.Kind",
              "name": "kind",
              "type": "uint8"
            },
            {
              "components": [
                {
                  "internalType": "address",
                  "name": "addr",
                  "type": "address"
                },
                {
                  "internalType": "address",
                  "name": "tokenAddr",
                  "type": "address"
                },
                {
                  "internalType": "uint256",
                  "name": "chainId",
                  "type": "uint256"
                }
              ],
              "internalType": "struct Token.Owner",
              "name": "mainchain",
              "type": "tuple"
            },
            {
              "components": [
                {
                  "internalType": "address",
                  "name": "addr",
                  "type": "address"
                },
                {
                  "internalType": "address",
                  "name": "tokenAddr",
                  "type": "address"
                },
                {
                  "internalType": "uint256",
                  "name": "chainId",
                  "type": "uint256"
                }
              ],
              "internalType": "struct Token.Owner",
              "name": "ronin",
              "type": "tuple"
            },
            {
              "components": [
                {
                  "internalType": "enum Token.Standard",
                  "name": "erc",
                  "type": "uint8"
                },
                {
                  "internalType": "uint256",
                  "name": "id",
                  "type": "uint256"
                },
                {
                  "internalType": "uint256",
                  "name": "quantity",
                  "type": "uint256"
                }
              ],
              "internalType": "struct Token.Info",
              "name": "info",
              "type": "tuple"
            }
          ],
          "internalType": "struct Transfer.Receipt",
          "name": "_receipt",
          "type": "tuple"
        }
      ],
      "name": "depositFor",
      "outputs": [],
      "stateMutability": "nonpayable",
      "type": "function"
    },
    {
      "inputs": [
        {
          "internalType": "uint256",
          "name": "",
          "type": "uint256"
        },
        {
          "internalType": "uint256",
          "name": "",
          "type": "uint256"
        }
      ],
      "name": "depositVote",
      "outputs": [
        {
          "internalType": "enum VoteStatusConsumer.VoteStatus",
          "name": "status",
          "type": "uint8"
        },
        {
          "internalType": "bytes32",
          "name": "finalHash",
          "type": "bytes32"
        },
        {
          "internalType": "uint256",
          "name": "expiredAt",
          "type": "uint256"
        },
        {
          "internalType": "uint256",
          "name": "createdAt",
          "type": "uint256"
        }
      ],
      "stateMutability": "view",
      "type": "function"
    },
    {
      "inputs": [
        {
          "internalType": "uint256",
          "name": "_chainId",
          "type": "uint256"
        },
        {
          "internalType": "uint256",
          "name": "_depositId",
          "type": "uint256"
        },
        {
          "internalType": "address",
          "name": "_voter",
          "type": "address"
        }
      ],
      "name": "depositVoted",
      "outputs": [
        {
          "internalType": "bool",
          "name": "",
          "type": "bool"
        }
      ],
      "stateMutability": "view",
      "type": "function"
    },
    {
      "inputs": [],
      "name": "emergencyPauser",
      "outputs": [
        {
          "internalType": "address",
          "name": "",
          "type": "address"
        }
      ],
      "stateMutability": "view",
      "type": "function"
    },
    {
      "inputs": [
        {
          "internalType": "enum ContractType",
          "name": "contractType",
          "type": "uint8"
        }
      ],
      "name": "getContract",
      "outputs": [
        {
          "internalType": "address",
          "name": "contract_",
          "type": "address"
        }
      ],
      "stateMutability": "view",
      "type": "function"
    },
    {
      "inputs": [
        {
          "internalType": "address",
          "name": "_roninToken",
          "type": "address"
        },
        {
          "internalType": "uint256",
          "name": "_chainId",
          "type": "uint256"
        }
      ],
      "name": "getMainchainToken",
      "outputs": [
        {
          "components": [
            {
              "internalType": "enum Token.Standard",
              "name": "erc",
              "type": "uint8"
            },
            {
              "internalType": "address",
              "name": "tokenAddr",
              "type": "address"
            }
          ],
          "internalType": "struct MappedTokenConsumer.MappedToken",
          "name": "_token",
          "type": "tuple"
        }
      ],
      "stateMutability": "view",
      "type": "function"
    },
    {
      "inputs": [
        {
          "internalType": "bytes32",
          "name": "role",
          "type": "bytes32"
        }
      ],
      "name": "getRoleAdmin",
      "outputs": [
        {
          "internalType": "bytes32",
          "name": "",
          "type": "bytes32"
        }
      ],
      "stateMutability": "view",
      "type": "function"
    },
    {
      "inputs": [
        {
          "internalType": "bytes32",
          "name": "role",
          "type": "bytes32"
        },
        {
          "internalType": "uint256",
          "name": "index",
          "type": "uint256"
        }
      ],
      "name": "getRoleMember",
      "outputs": [
        {
          "internalType": "address",
          "name": "",
          "type": "address"
        }
      ],
      "stateMutability": "view",
      "type": "function"
    },
    {
      "inputs": [
        {
          "internalType": "bytes32",
          "name": "role",
          "type": "bytes32"
        }
      ],
      "name": "getRoleMemberCount",
      "outputs": [
        {
          "internalType": "uint256",
          "name": "",
          "type": "uint256"
        }
      ],
      "stateMutability": "view",
      "type": "function"
    },
    {
      "inputs": [],
      "name": "getThreshold",
      "outputs": [
        {
          "internalType": "uint256",
          "name": "num_",
          "type": "uint256"
        },
        {
          "internalType": "uint256",
          "name": "denom_",
          "type": "uint256"
        }
      ],
      "stateMutability": "view",
      "type": "function"
    },
    {
      "inputs": [],
      "name": "getTrustedThreshold",
      "outputs": [
        {
          "internalType": "uint256",
          "name": "trustedNum_",
          "type": "uint256"
        },
        {
          "internalType": "uint256",
          "name": "trustedDenom_",
          "type": "uint256"
        }
      ],
      "stateMutability": "view",
      "type": "function"
    },
    {
      "inputs": [
        {
          "internalType": "uint256",
          "name": "_withdrawalId",
          "type": "uint256"
        },
        {
          "internalType": "address[]",
          "name": "_validators",
          "type": "address[]"
        }
      ],
      "name": "getWithdrawalSignatures",
      "outputs": [
        {
          "internalType": "bytes[]",
          "name": "_signatures",
          "type": "bytes[]"
        }
      ],
      "stateMutability": "view",
      "type": "function"
    },
    {
      "inputs": [
        {
          "internalType": "bytes32",
          "name": "role",
          "type": "bytes32"
        },
        {
          "internalType": "address",
          "name": "account",
          "type": "address"
        }
      ],
      "name": "grantRole",
      "outputs": [],
      "stateMutability": "nonpayable",
      "type": "function"
    },
    {
      "inputs": [
        {
          "internalType": "bytes32",
          "name": "role",
          "type": "bytes32"
        },
        {
          "internalType": "address",
          "name": "account",
          "type": "address"
        }
      ],
      "name": "hasRole",
      "outputs": [
        {
          "internalType": "bool",
          "name": "",
          "type": "bool"
        }
      ],
      "stateMutability": "view",
      "type": "function"
    },
    {
      "inputs": [
        {
          "internalType": "address",
          "name": "_roleSetter",
          "type": "address"
        },
        {
          "internalType": "uint256",
          "name": "_numerator",
          "type": "uint256"
        },
        {
          "internalType": "uint256",
          "name": "_denominator",
          "type": "uint256"
        },
        {
          "internalType": "uint256",
          "name": "_trustedNumerator",
          "type": "uint256"
        },
        {
          "internalType": "uint256",
          "name": "_trustedDenominator",
          "type": "uint256"
        },
        {
          "internalType": "address[]",
          "name": "_withdrawalMigrators",
          "type": "address[]"
        },
        {
          "internalType": "address[][2]",
          "name": "_packedAddresses",
          "type": "address[][2]"
        },
        {
          "internalType": "uint256[][2]",
          "name": "_packedNumbers",
          "type": "uint256[][2]"
        },
        {
          "internalType": "enum Token.Standard[]",
          "name": "_standards",
          "type": "uint8[]"
        }
      ],
      "name": "initialize",
      "outputs": [],
      "stateMutability": "nonpayable",
      "type": "function"
    },
    {
      "inputs": [
        {
          "internalType": "uint256",
          "name": "_withdrawalId",
          "type": "uint256"
        }
      ],
      "name": "mainchainWithdrew",
      "outputs": [
        {
          "internalType": "bool",
          "name": "",
          "type": "bool"
        }
      ],
      "stateMutability": "view",
      "type": "function"
    },
    {
      "inputs": [
        {
          "internalType": "uint256",
          "name": "",
          "type": "uint256"
        }
      ],
      "name": "mainchainWithdrewVote",
      "outputs": [
        {
          "internalType": "enum VoteStatusConsumer.VoteStatus",
          "name": "status",
          "type": "uint8"
        },
        {
          "internalType": "bytes32",
          "name": "finalHash",
          "type": "bytes32"
        },
        {
          "internalType": "uint256",
          "name": "expiredAt",
          "type": "uint256"
        },
        {
          "internalType": "uint256",
          "name": "createdAt",
          "type": "uint256"
        }
      ],
      "stateMutability": "view",
      "type": "function"
    },
    {
      "inputs": [
        {
          "internalType": "uint256",
          "name": "_withdrawalId",
          "type": "uint256"
        },
        {
          "internalType": "address",
          "name": "_voter",
          "type": "address"
        }
      ],
      "name": "mainchainWithdrewVoted",
      "outputs": [
        {
          "internalType": "bool",
          "name": "",
          "type": "bool"
        }
      ],
      "stateMutability": "view",
      "type": "function"
    },
    {
      "inputs": [
        {
          "internalType": "address[]",
          "name": "_roninTokens",
          "type": "address[]"
        },
        {
          "internalType": "address[]",
          "name": "_mainchainTokens",
          "type": "address[]"
        },
        {
          "internalType": "uint256[]",
          "name": "_chainIds",
          "type": "uint256[]"
        },
        {
          "internalType": "enum Token.Standard[]",
          "name": "_standards",
          "type": "uint8[]"
        }
      ],
      "name": "mapTokens",
      "outputs": [],
      "stateMutability": "nonpayable",
      "type": "function"
    },
    {
      "inputs": [],
      "name": "markWithdrawalMigrated",
      "outputs": [],
      "stateMutability": "nonpayable",
      "type": "function"
    },
    {
      "inputs": [
        {
          "components": [
            {
              "internalType": "address",
              "name": "recipientAddr",
              "type": "address"
            },
            {
              "internalType": "address",
              "name": "tokenAddr",
              "type": "address"
            },
            {
              "components": [
                {
                  "internalType": "enum Token.Standard",
                  "name": "erc",
                  "type": "uint8"
                },
                {
                  "internalType": "uint256",
                  "name": "id",
                  "type": "uint256"
                },
                {
                  "internalType": "uint256",
                  "name": "quantity",
                  "type": "uint256"
                }
              ],
              "internalType": "struct Token.Info",
              "name": "info",
              "type": "tuple"
            }
          ],
          "internalType": "struct Transfer.Request[]",
          "name": "_requests",
          "type": "tuple[]"
        },
        {
          "internalType": "address[]",
          "name": "_requesters",
          "type": "address[]"
        }
      ],
      "name": "migrateWithdrawals",
      "outputs": [],
      "stateMutability": "nonpayable",
      "type": "function"
    },
    {
      "inputs": [
        {
          "internalType": "address",
          "name": "",
          "type": "address"
        }
      ],
      "name": "minimumThreshold",
      "outputs": [
        {
          "internalType": "uint256",
          "name": "",
          "type": "uint256"
        }
      ],
      "stateMutability": "view",
      "type": "function"
    },
    {
      "inputs": [],
      "name": "minimumTrustedVoteWeight",
      "outputs": [
        {
          "internalType": "uint256",
          "name": "",
          "type": "uint256"
        }
      ],
      "stateMutability": "view",
      "type": "function"
    },
    {
      "inputs": [],
      "name": "minimumVoteWeight",
      "outputs": [
        {
          "internalType": "uint256",
          "name": "",
          "type": "uint256"
        }
      ],
      "stateMutability": "view",
      "type": "function"
    },
    {
      "inputs": [],
      "name": "nonce",
      "outputs": [
        {
          "internalType": "uint256",
          "name": "",
          "type": "uint256"
        }
      ],
      "stateMutability": "view",
      "type": "function"
    },
    {
      "inputs": [],
      "name": "pause",
      "outputs": [],
      "stateMutability": "nonpayable",
      "type": "function"
    },
    {
      "inputs": [],
      "name": "paused",
      "outputs": [
        {
          "internalType": "bool",
          "name": "",
          "type": "bool"
        }
      ],
      "stateMutability": "view",
      "type": "function"
    },
    {
      "inputs": [
        {
          "internalType": "bytes32",
          "name": "role",
          "type": "bytes32"
        },
        {
          "internalType": "address",
          "name": "account",
          "type": "address"
        }
      ],
      "name": "renounceRole",
      "outputs": [],
      "stateMutability": "nonpayable",
      "type": "function"
    },
    {
      "inputs": [
        {
          "components": [
            {
              "internalType": "address",
              "name": "recipientAddr",
              "type": "address"
            },
            {
              "internalType": "address",
              "name": "tokenAddr",
              "type": "address"
            },
            {
              "components": [
                {
                  "internalType": "enum Token.Standard",
                  "name": "erc",
                  "type": "uint8"
                },
                {
                  "internalType": "uint256",
                  "name": "id",
                  "type": "uint256"
                },
                {
                  "internalType": "uint256",
                  "name": "quantity",
                  "type": "uint256"
                }
              ],
              "internalType": "struct Token.Info",
              "name": "info",
              "type": "tuple"
            }
          ],
          "internalType": "struct Transfer.Request",
          "name": "_request",
          "type": "tuple"
        },
        {
          "internalType": "uint256",
          "name": "_chainId",
          "type": "uint256"
        }
      ],
      "name": "requestWithdrawalFor",
      "outputs": [],
      "stateMutability": "nonpayable",
      "type": "function"
    },
    {
      "inputs": [
        {
          "internalType": "uint256",
          "name": "_withdrawalId",
          "type": "uint256"
        }
      ],
      "name": "requestWithdrawalSignatures",
      "outputs": [],
      "stateMutability": "nonpayable",
      "type": "function"
    },
    {
      "inputs": [
        {
          "internalType": "bytes32",
          "name": "role",
          "type": "bytes32"
        },
        {
          "internalType": "address",
          "name": "account",
          "type": "address"
        }
      ],
      "name": "revokeRole",
      "outputs": [],
      "stateMutability": "nonpayable",
      "type": "function"
    },
    {
      "inputs": [
        {
          "internalType": "enum ContractType",
          "name": "contractType",
          "type": "uint8"
        },
        {
          "internalType": "address",
          "name": "addr",
          "type": "address"
        }
      ],
      "name": "setContract",
      "outputs": [],
      "stateMutability": "nonpayable",
      "type": "function"
    },
    {
      "inputs": [
        {
          "internalType": "address",
          "name": "_addr",
          "type": "address"
        }
      ],
      "name": "setEmergencyPauser",
      "outputs": [],
      "stateMutability": "nonpayable",
      "type": "function"
    },
    {
      "inputs": [
        {
          "internalType": "address[]",
          "name": "_tokens",
          "type": "address[]"
        },
        {
          "internalType": "uint256[]",
          "name": "_thresholds",
          "type": "uint256[]"
        }
      ],
      "name": "setMinimumThresholds",
      "outputs": [],
      "stateMutability": "nonpayable",
      "type": "function"
    },
    {
      "inputs": [
        {
          "internalType": "uint256",
          "name": "_numerator",
          "type": "uint256"
        },
        {
          "internalType": "uint256",
          "name": "_denominator",
          "type": "uint256"
        }
      ],
      "name": "setThreshold",
      "outputs": [
        {
          "internalType": "uint256",
          "name": "",
          "type": "uint256"
        },
        {
          "internalType": "uint256",
          "name": "",
          "type": "uint256"
        }
      ],
      "stateMutability": "nonpayable",
      "type": "function"
    },
    {
      "inputs": [
        {
          "internalType": "uint256",
          "name": "_trustedNumerator",
          "type": "uint256"
        },
        {
          "internalType": "uint256",
          "name": "_trustedDenominator",
          "type": "uint256"
        }
      ],
      "name": "setTrustedThreshold",
      "outputs": [
        {
          "internalType": "uint256",
          "name": "",
          "type": "uint256"
        },
        {
          "internalType": "uint256",
          "name": "",
          "type": "uint256"
        }
      ],
      "stateMutability": "nonpayable",
      "type": "function"
    },
    {
      "inputs": [
        {
          "internalType": "bytes4",
          "name": "interfaceId",
          "type": "bytes4"
        }
      ],
      "name": "supportsInterface",
      "outputs": [
        {
          "internalType": "bool",
          "name": "",
          "type": "bool"
        }
      ],
      "stateMutability": "view",
      "type": "function"
    },
    {
      "inputs": [
        {
          "internalType": "uint256[]",
          "name": "_withdrawalIds",
          "type": "uint256[]"
        }
      ],
      "name": "tryBulkAcknowledgeMainchainWithdrew",
      "outputs": [
        {
          "internalType": "bool[]",
          "name": "_executedReceipts",
          "type": "bool[]"
        }
      ],
      "stateMutability": "nonpayable",
      "type": "function"
    },
    {
      "inputs": [
        {
          "components": [
            {
              "internalType": "uint256",
              "name": "id",
              "type": "uint256"
            },
            {
              "internalType": "enum Transfer.Kind",
              "name": "kind",
              "type": "uint8"
            },
            {
              "components": [
                {
                  "internalType": "address",
                  "name": "addr",
                  "type": "address"
                },
                {
                  "internalType": "address",
                  "name": "tokenAddr",
                  "type": "address"
                },
                {
                  "internalType": "uint256",
                  "name": "chainId",
                  "type": "uint256"
                }
              ],
              "internalType": "struct Token.Owner",
              "name": "mainchain",
              "type": "tuple"
            },
            {
              "components": [
                {
                  "internalType": "address",
                  "name": "addr",
                  "type": "address"
                },
                {
                  "internalType": "address",
                  "name": "tokenAddr",
                  "type": "address"
                },
                {
                  "internalType": "uint256",
                  "name": "chainId",
                  "type": "uint256"
                }
              ],
              "internalType": "struct Token.Owner",
              "name": "ronin",
              "type": "tuple"
            },
            {
              "components": [
                {
                  "internalType": "enum Token.Standard",
                  "name": "erc",
                  "type": "uint8"
                },
                {
                  "internalType": "uint256",
                  "name": "id",
                  "type": "uint256"
                },
                {
                  "internalType": "uint256",
                  "name": "quantity",
                  "type": "uint256"
                }
              ],
              "internalType": "struct Token.Info",
              "name": "info",
              "type": "tuple"
            }
          ],
          "internalType": "struct Transfer.Receipt[]",
          "name": "_receipts",
          "type": "tuple[]"
        }
      ],
      "name": "tryBulkDepositFor",
      "outputs": [
        {
          "internalType": "bool[]",
          "name": "_executedReceipts",
          "type": "bool[]"
        }
      ],
      "stateMutability": "nonpayable",
      "type": "function"
    },
    {
      "inputs": [],
      "name": "unpause",
      "outputs": [],
      "stateMutability": "nonpayable",
      "type": "function"
    },
    {
      "inputs": [
        {
          "internalType": "uint256",
          "name": "",
          "type": "uint256"
        }
      ],
      "name": "withdrawal",
      "outputs": [
        {
          "internalType": "uint256",
          "name": "id",
          "type": "uint256"
        },
        {
          "internalType": "enum Transfer.Kind",
          "name": "kind",
          "type": "uint8"
        },
        {
          "components": [
            {
              "internalType": "address",
              "name": "addr",
              "type": "address"
            },
            {
              "internalType": "address",
              "name": "tokenAddr",
              "type": "address"
            },
            {
              "internalType": "uint256",
              "name": "chainId",
              "type": "uint256"
            }
          ],
          "internalType": "struct Token.Owner",
          "name": "mainchain",
          "type": "tuple"
        },
        {
          "components": [
            {
              "internalType": "address",
              "name": "addr",
              "type": "address"
            },
            {
              "internalType": "address",
              "name": "tokenAddr",
              "type": "address"
            },
            {
              "internalType": "uint256",
              "name": "chainId",
              "type": "uint256"
            }
          ],
          "internalType": "struct Token.Owner",
          "name": "ronin",
          "type": "tuple"
        },
        {
          "components": [
            {
              "internalType": "enum Token.Standard",
              "name": "erc",
              "type": "uint8"
            },
            {
              "internalType": "uint256",
              "name": "id",
              "type": "uint256"
            },
            {
              "internalType": "uint256",
              "name": "quantity",
              "type": "uint256"
            }
          ],
          "internalType": "struct Token.Info",
          "name": "info",
          "type": "tuple"
        }
      ],
      "stateMutability": "view",
      "type": "function"
    },
    {
      "inputs": [],
      "name": "withdrawalCount",
      "outputs": [
        {
          "internalType": "uint256",
          "name": "",
          "type": "uint256"
        }
      ],
      "stateMutability": "view",
      "type": "function"
    },
    {
      "inputs": [],
      "name": "withdrawalMigrated",
      "outputs": [
        {
          "internalType": "bool",
          "name": "",
          "type": "bool"
        }
      ],
      "stateMutability": "view",
      "type": "function"
    },
    {
      "inputs": [
        {
          "internalType": "uint256",
          "name": "",
          "type": "uint256"
        }
      ],
      "name": "withdrawalStatVote",
      "outputs": [
        {
          "internalType": "enum VoteStatusConsumer.VoteStatus",
          "name": "status",
          "type": "uint8"
        },
        {
          "internalType": "bytes32",
          "name": "finalHash",
          "type": "bytes32"
        },
        {
          "internalType": "uint256",
          "name": "expiredAt",
          "type": "uint256"
        },
        {
          "internalType": "uint256",
          "name": "createdAt",
          "type": "uint256"
        }
      ],
      "stateMutability": "view",
      "type": "function"
    },
    {
      "stateMutability": "payable",
      "type": "receive"
    }
  ],
  "transactionHash": "0x495917bd72f53d03dbbf4efeb3acb5af54378d726da37f6257a07219ce6752ca",
  "args": [],
  "numDeployments": 5,
  "solcInputHash": "6bc16cc8f779fe2f1f4f2733e87f867e",
  "bytecode": "0x608060405234801561001057600080fd5b506000805460ff191690556151278061002a6000396000f3fe6080604052600436106102b25760003560e01c8063835fc6ca11610175578063c28f7894116100dc578063e75235b811610095578063f668214a1161006f578063f668214a14610923578063fa38965914610943578063fc6574bc14610963578063fe90d9c2146109b5576102c1565b8063e75235b814610898578063ecc83649146108b0578063f0ce418e146108dd576102c1565b8063c28f7894146107b2578063ca15c873146107f8578063d547741f14610818578063dafae40814610838578063dbd2ef6c14610858578063de981f1b14610878576102c1565b80639584a5921161012e5780639584a592146106fa578063a217fddf1461071a578063affed0e01461072f578063b9afa17714610745578063b9c3620914610765578063bc7f038614610785576102c1565b8063835fc6ca146106345780638456cb5914610665578063865e6fd31461067a5780639010d07c1461069a57806391d14854146106ba578063931ec987146106da576102c1565b80633f4ba83a116102195780635d6a9a90116101d25780635d6a9a901461058757806364363f78146105b457806371706cbe146105d457806375535f86146105ea5780637657990e1461060a5780637de5dedd1461061f576102c1565b80633f4ba83a1461049f57806347b56b2c146104b45780634d92c4f0146104d45780634f2717c7146105355780635a7dd06a1461054f5780635c975abb1461056f576102c1565b8063248a9ca31161026b578063248a9ca3146103cc5780632f2ff15d1461040a57806336568abe1461042a5780633b5afc221461044a5780633e4574ec1461045f5780633e70838b1461047f576102c1565b806301ffc9a7146102c9578063065b3adf146102fe5780630b1ff17f14610336578063109679ef1461035657806317892f961461037657806317fa2ea11461039f576102c1565b366102c1576102bf6109d7565b005b6102bf6109d7565b3480156102d557600080fd5b506102e96102e4366004613e46565b6109f0565b60405190151581526020015b60405180910390f35b34801561030a57600080fd5b5060055461031e906001600160a01b031681565b6040516001600160a01b0390911681526020016102f5565b34801561034257600080fd5b506102bf610351366004613e70565b610a1b565b34801561036257600080fd5b506102bf610371366004613ea1565b610a32565b34801561038257600080fd5b506078546079545b604080519283526020830191909152016102f5565b3480156103ab57600080fd5b506103bf6103ba366004613efe565b610adf565b6040516102f59190613f3f565b3480156103d857600080fd5b506103fc6103e7366004613f85565b6000908152606b602052604090206001015490565b6040519081526020016102f5565b34801561041657600080fd5b506102bf610425366004613fbe565b610e2a565b34801561043657600080fd5b506102bf610445366004613fbe565b610e54565b34801561045657600080fd5b506102bf610ed3565b34801561046b57600080fd5b506102e961047a366004613fbe565b610f5c565b34801561048b57600080fd5b506102bf61049a366004613fee565b610f8c565b3480156104ab57600080fd5b506102bf610fb6565b3480156104c057600080fd5b506102bf6104cf366004613f85565b610fc8565b3480156104e057600080fd5b506105256104ef36600461400b565b606f602090815260009283526040808420909152908252902080546001820154600383015460049093015460ff90921692909184565b6040516102f59493929190614043565b34801561054157600080fd5b50606d546102e99060ff1681565b34801561055b57600080fd5b506102bf61056a3660046140b7565b61119f565b34801561057b57600080fd5b5060005460ff166102e9565b34801561059357600080fd5b506105a76105a2366004614102565b611204565b6040516102f5919061413e565b3480156105c057600080fd5b506102bf6105cf36600461416a565b6112a8565b3480156105e057600080fd5b506103fc606e5481565b3480156105f657600080fd5b5061038a61060536600461400b565b6112de565b34801561061657600080fd5b506103fc6112ff565b34801561062b57600080fd5b506103fc611316565b34801561064057600080fd5b5061065461064f366004613f85565b611328565b6040516102f595949392919061421e565b34801561067157600080fd5b506102bf6113fa565b34801561068657600080fd5b506102bf61069536600461426c565b61140a565b3480156106a657600080fd5b5061031e6106b536600461400b565b611425565b3480156106c657600080fd5b506102e96106d5366004613fbe565b61143d565b3480156106e657600080fd5b506102bf6106f5366004614298565b611468565b34801561070657600080fd5b506102bf6107153660046142e2565b6115e5565b34801561072657600080fd5b506103fc600081565b34801561073b57600080fd5b506103fc60045481565b34801561075157600080fd5b506103bf6107603660046143db565b6117cd565b34801561077157600080fd5b5061038a61078036600461400b565b61196c565b34801561079157600080fd5b506103fc6107a0366004613fee565b60386020526000908152604090205481565b3480156107be57600080fd5b506105256107cd366004613f85565b607660205260009081526040902080546001820154600383015460049093015460ff90921692909184565b34801561080457600080fd5b506103fc610813366004613f85565b611981565b34801561082457600080fd5b506102bf610833366004613fbe565b611998565b34801561084457600080fd5b506102e9610853366004613f85565b6119bd565b34801561086457600080fd5b506102bf610873366004614450565b6119e9565b34801561088457600080fd5b5061031e610893366004614513565b611a3b565b3480156108a457600080fd5b5060015460025461038a565b3480156108bc57600080fd5b506108d06108cb36600461452e565b611ab6565b6040516102f591906145c9565b3480156108e957600080fd5b506105256108f8366004613f85565b607060205260009081526040902080546001820154600383015460049093015460ff90921692909184565b34801561092f57600080fd5b506102e961093e366004613f85565b611c1d565b34801561094f57600080fd5b506102bf61095e36600461416a565b611c4b565b34801561096f57600080fd5b506102e961097e36600461462b565b6000928352606f602090815260408085209385529281528284206001600160a01b0392909216845260029091019052902054151590565b3480156109c157600080fd5b506103fc6000805160206150fb83398151915281565b60405163129c2ce160e31b815260040160405180910390fd5b60006001600160e01b03198216635a05180f60e01b1480610a155750610a1582611e52565b92915050565b610a23611e87565b610a2e823383611ecd565b5050565b610a3a611e87565b610a42611fa5565b33610a6b610a5536849003840184614772565b82610a5e611316565b610a666112ff565b612046565b610a756003611a3b565b60405163c7c4fea960e01b81526001600160a01b03919091169063c7c4fea990610aa9906000908635908690600401614813565b600060405180830381600087803b158015610ac357600080fd5b505af1158015610ad7573d6000803e3d6000fd5b505050505050565b6060610ae9611fa5565b336000610af4611316565b90506000610b006112ff565b90506000856001600160401b03811115610b1c57610b1c614664565b604051908082528060200260200182016040528015610b45578160200160208202803683370190505b5094506000610b546003611a3b565b905060005b87811015610e1e57888882818110610b7357610b73614840565b905060200201359250816001600160a01b031663c7c4fea9600285896040518463ffffffff1660e01b8152600401610bad93929190614813565b600060405180830381600087803b158015610bc757600080fd5b505af1158015610bdb573d6000803e3d6000fd5b50505050610be883611c1d565b15610c16576001878281518110610c0157610c01614840565b91151560209283029190910190910152610e16565b600083815260706020908152604080832060718352818420825160a081019093528054835260018082015492959491929184019160ff1690811115610c5d57610c5d61402d565b6001811115610c6e57610c6e61402d565b8152604080516060808201835260028501546001600160a01b039081168352600386015481166020848101919091526004870154848601528086019390935283518083018552600587015482168152600687015490911692810192909252600785015482840152828401919091528151808201909252600884018054919093019290829060ff166001811115610d0657610d0661402d565b6001811115610d1757610d1761402d565b81526001820154602082015260029091015460409091015290525090506000610d3f826122ea565b90506000610d50848b8b8b866123b4565b90506001816004811115610d6657610d6661402d565b03610e1157835460ff19166002908117855560405163114fc47560e11b81526001600160a01b0388169163229f88ea91610da591908b90600401614856565b600060405180830381600087803b158015610dbf57600080fd5b505af1158015610dd3573d6000803e3d6000fd5b505050507f62520d049932cdee872e9b3c59c0f6073637147e5e9bc8b050b062430eaf5c9f8284604051610e08929190614871565b60405180910390a15b505050505b600101610b59565b50505050505092915050565b6000828152606b6020526040902060010154610e45816123ed565b610e4f83836123fa565b505050565b6001600160a01b0381163314610ec95760405162461bcd60e51b815260206004820152602f60248201527f416363657373436f6e74726f6c3a2063616e206f6e6c792072656e6f756e636560448201526e103937b632b9903337b91039b2b63360891b60648201526084015b60405180910390fd5b610a2e828261241c565b610ede60003361143d565b80610efc5750610efc6000805160206150fb8339815191523361143d565b610f29576000356001600160e01b0319166005604051620f948f60ea1b8152600401610ec09291906148d2565b606d5460ff1615610f4d5760405163173492af60e31b815260040160405180910390fd5b606d805460ff19166001179055565b60008281526070602090815260408083206001600160a01b038516845260020190915281205415155b9392505050565b610f9461243e565b600580546001600160a01b0319166001600160a01b0392909216919091179055565b610fbe612498565b610fc6612507565b565b610fd0611e87565b610fd981611c1d565b15610ff7576040516327ddf84960e11b815260040160405180910390fd5b6000818152607160209081526040808320815160a0810190925280548252600180820154929391929184019160ff16908111156110365761103661402d565b60018111156110475761104761402d565b8152604080516060808201835260028501546001600160a01b039081168352600386015481166020848101919091526004870154848601528086019390935283518083018552600587015482168152600687015490911692810192909252600785015482840152828401919091528151808201909252600884018054919093019290829060ff1660018111156110df576110df61402d565b60018111156110f0576110f061402d565b81526001820154602082015260029091015460409182015291526060830151015191925050461461115a576060810151604090810151905163092048d160e11b81526001600160e01b03196000351660048201526024810191909152466044820152606401610ec0565b7f04e8cbd836dea43a2dc7eb19de345cca3a8e6978a2ef5225d924775500f67c7c611184826122ea565b82604051611193929190614871565b60405180910390a15050565b6111a7611e87565b60008290036111c9576040516316ee9d3b60e11b815260040160405180910390fd5b60005b828110156111fe576111f68484838181106111e9576111e9614840565b905060a002013384611ecd565b6001016111cc565b50505050565b604080518082018252600080825260208083018290526001600160a01b038616825260738152838220858352905282902082518084019093528054919291829060ff1660018111156112585761125861402d565b60018111156112695761126961402d565b815290546001600160a01b0361010090910481166020928301529082015191925016610a1557604051631b79f53b60e21b815260040160405180910390fd5b6112b061243e565b60008390036112d2576040516316ee9d3b60e11b815260040160405180910390fd5b6111fe84848484612559565b6000806112e961243e565b6112f3848461263c565b915091505b9250929050565b600061131161130c6126c7565b612734565b905090565b600061131161132361276a565b6127b3565b607160209081526000918252604091829020805460018083015485516060808201885260028601546001600160a01b03908116835260038701548116838901526004870154838a015288518083018a526005880154821681526006880154909116978101979097526007860154878901528751908101909752600885018054949760ff9384169792969295929490939192849216908111156113cc576113cc61402d565b60018111156113dd576113dd61402d565b815260200160018201548152602001600282015481525050905085565b611402612498565b610fc66127cb565b61141261243e565b61141b81612808565b610a2e828261283e565b6000828152606c60205260408120610f8590836128e2565b6000918252606b602090815260408084206001600160a01b0393909316845291905290205460ff1690565b6000805160206150fb833981519152611480816123ed565b606d5460ff16156114a45760405163173492af60e31b815260040160405180910390fd5b81841480156114b257508315155b6114dd576000356001600160e01b0319166040516306b5667560e21b8152600401610ec091906148f3565b60005b84811015610ad757600061151e8787848181106114ff576114ff614840565b905060a0020160200160208101906115179190613fee565b6001611204565b805190915060018111156115345761153461402d565b87878481811061154657611546614840565b61155f92606060a0909202019081019150604001614908565b60018111156115705761157061402d565b1461158d5760405162035e2b60ea1b815260040160405180910390fd5b6115db8787848181106115a2576115a2614840565b905060a0020160018787868181106115bc576115bc614840565b90506020020160208101906115d19190613fee565b84602001516128ee565b50506001016114e0565b603754610100900460ff16158080156116055750603754600160ff909116105b8061161f5750303b15801561161f575060375460ff166001145b6116825760405162461bcd60e51b815260206004820152602e60248201527f496e697469616c697a61626c653a20636f6e747261637420697320616c72656160448201526d191e481a5b9a5d1a585b1a5e995960921b6064820152608401610ec0565b6037805460ff1916600117905580156116a5576037805461ff0019166101001790555b6116b060008d612a78565b6116ba8b8b612a82565b50506116c6898961263c565b50600090506116d58680614925565b90501115611727576117086116ea8680614925565b6116f76020890189614925565b6117018980614925565b8989612b0e565b6117276117158680614925565b6117226020880188614925565b612559565b60005b86811015611778576117706000805160206150fb83398151915289898481811061175657611756614840565b905060200201602081019061176b9190613fee565b6123fa565b60010161172a565b5080156117bf576037805461ff0019169055604051600181527f7f26b83ff96e1f2b6a682f133852f6798a09c465da95921460cefb38474024989060200160405180910390a15b505050505050505050505050565b60606117d7611e87565b6117df611fa5565b336117e8613dd9565b836001600160401b0381111561180057611800614664565b604051908082528060200260200182016040528015611829578160200160208202803683370190505b5092506000611836611316565b905060006118426112ff565b905060006118506003611a3b565b905060005b87811015610e1e5788888281811061186f5761186f614840565b905061016002018036038101906118869190614772565b805160405163c7c4fea960e01b81529196506001600160a01b0384169163c7c4fea9916118bb91600091908b90600401614813565b600060405180830381600087803b1580156118d557600080fd5b505af11580156118e9573d6000803e3d6000fd5b50600292506118f6915050565b6040808701518101516000908152606f6020908152828220895183529052205460ff16600481111561192a5761192a61402d565b0361195857600187828151811061194357611943614840565b91151560209283029190910190910152611964565b61196485878686612046565b600101611855565b60008061197761243e565b6112f38484612a82565b6000818152606c60205260408120610a1590612d29565b6000828152606b60205260409020600101546119b3816123ed565b610e4f838361241c565b60006119c761276a565b6001546119d49190614984565b6002546119e19084614984565b101592915050565b6119f161243e565b6000879003611a21576000356001600160e01b0319166040516306b5667560e21b8152600401610ec091906148f3565b611a318888888888888888612b0e565b5050505050505050565b60007fdea3103d22025c269050bea94c0c84688877f12fa22b7e6d2d5d78a9a49aa1cb600083600a811115611a7257611a7261402d565b60ff1681526020810191909152604001600020546001600160a01b0316905080611ab1578160405163409140df60e11b8152600401610ec0919061499b565b919050565b6060816001600160401b03811115611ad057611ad0614664565b604051908082528060200260200182016040528015611b0357816020015b6060815260200190600190039081611aee5790505b50905060005b82811015611c1557600085815260726020526040812090858584818110611b3257611b32614840565b9050602002016020810190611b479190613fee565b6001600160a01b03166001600160a01b031681526020019081526020016000208054611b72906149b5565b80601f0160208091040260200160405190810160405280929190818152602001828054611b9e906149b5565b8015611beb5780601f10611bc057610100808354040283529160200191611beb565b820191906000526020600020905b815481529060010190602001808311611bce57829003601f168201915b5050505050828281518110611c0257611c02614840565b6020908102919091010152600101611b09565b509392505050565b6000600260008381526070602052604090205460ff166004811115611c4457611c4461402d565b1492915050565b611c53611e87565b611c5b611fa5565b338315801590611c6a57508382145b611c95576000356001600160e01b0319166040516306b5667560e21b8152600401610ec091906148f3565b6000611c9f611316565b90506000611cab6112ff565b9050600080611cba6003611a3b565b905060005b88811015611e4657898982818110611cd957611cd9614840565b905060200201359250878782818110611cf457611cf4614840565b9050602002810190611d0691906149e9565b60008581526072602090815260408083206001600160a01b038c168452909152902091611d34919083614a75565b5060405163c7c4fea960e01b81526001600160a01b0383169063c7c4fea990611d669060019087908b90600401614813565b600060405180830381600087803b158015611d8057600080fd5b505af1158015611d94573d6000803e3d6000fd5b50505060008481526076602052604081209150611db482898989896123b4565b90506001816004811115611dca57611dca61402d565b03611e3c57815460ff1916600217825560405163114fc47560e11b81526001600160a01b0385169063229f88ea90611e09906001908990600401614856565b600060405180830381600087803b158015611e2357600080fd5b505af1158015611e37573d6000803e3d6000fd5b505050505b5050600101611cbf565b50505050505050505050565b60006001600160e01b03198216637965db0b60e01b1480610a1557506301ffc9a760e01b6001600160e01b0319831614610a15565b60005460ff1615610fc65760405162461bcd60e51b815260206004820152601060248201526f14185d5cd8589b194e881c185d5cd95960821b6044820152606401610ec0565b611ee7611ee236859003850160408601614b34565b612d33565b611ef083612dae565b6000611f0b611f056040860160208701613fee565b83611204565b80519091506001811115611f2157611f2161402d565b611f316060860160408701614908565b6001811115611f4257611f4261402d565b14611f5f5760405162035e2b60ea1b815260040160405180910390fd5b611f8e8330611f746040880160208901613fee565b611f8636899003890160408a01614b34565b929190612e2c565b611f9e84838584602001516128ee565b5050505050565b611faf6008611a3b565b604051635a02d57960e11b81523360048201526001600160a01b03919091169063b405aaf290602401602060405180830381865afa158015611ff5573d6000803e3d6000fd5b505050506040513d601f19601f820116820180604052508101906120199190614b50565b610fc6576000356001600160e01b0319166006604051620f948f60ea1b8152600401610ec09291906148d2565b8351608085015161205690612d33565b60008560200151600181111561206e5761206e61402d565b1461208c5760405163182f3d8760e11b815260040160405180910390fd5b46856060015160400151146120da576060850151604090810151905163092048d160e11b81526001600160e01b03196000351660048201526024810191909152466044820152606401610ec0565b60006120f6866060015160200151876040015160400151611204565b60808701515190915060018111156121105761211061402d565b815160018111156121235761212361402d565b14801561214d57508560400151602001516001600160a01b031681602001516001600160a01b0316145b61216a5760405163f4b8742f60e01b815260040160405180910390fd5b6040808701518101516000908152606f6020908152828220858352905290812090612194886122ea565b905060006121a583898989866123b4565b905088604001516040015185896001600160a01b03167f48c4262ed68beb92fe5d7d48d70772e49cd50c317937dea60a99f15f794b6459856040516121ec91815260200190565b60405180910390a460018160048111156122085761220861402d565b036122df57825460ff191660021783556060890151805160209091015160808b0151612237929091600061302b565b6122416003611a3b565b895160405163114fc47560e11b81526001600160a01b03929092169163229f88ea916122739160009190600401614856565b600060405180830381600087803b15801561228d57600080fd5b505af11580156122a1573d6000803e3d6000fd5b505050507f8d20d8121a34dded9035ff5b43e901c142824f7a22126392992c353c37890524828a6040516122d6929190614871565b60405180910390a15b505050505050505050565b6000806122fa8360400151613347565b9050600061230b8460600151613347565b9050600061235f8560800151604080517f1e2b74b2a792d5c0f0b6e59b037fa9d43d84fbb759337f0112fcc15ca414fc8d815282516020808301919091528301518183015291015160608201526080902090565b604080517fb9d1fe7c9deeec5dc90a2f47ff1684239519f2545b2228d3d91fb27df3189eea815287516020808301919091529097015190870152606086019390935250608084015260a08301525060c0902090565b60006123c186868461338f565b6000806123ce8885613445565b90925090506123e1888784888589613617565b98975050505050505050565b6123f78133613673565b50565b61240482826136d7565b6000828152606c60205260409020610e4f908261375d565b6124268282613772565b6000828152606c60205260409020610e4f90826137d9565b7fb53127684a568b3173ae13b9f8a6016e243e63b6e8ee1178d6a717850b5d6103546001600160a01b03163314610fc6576000356001600160e01b0319166001604051620f948f60ea1b8152600401610ec09291906148d2565b7fb53127684a568b3173ae13b9f8a6016e243e63b6e8ee1178d6a717850b5d6103546001600160a01b03163314806124da57506005546001600160a01b031633145b610fc6576000356001600160e01b0319166001604051620f948f60ea1b8152600401610ec09291906148d2565b61250f6137ee565b6000805460ff191690557f5db9ee0a495bf2e6ff9c91a7834c1ba4fdd244a5e8aa4e537bd38aeae4b073aa335b6040516001600160a01b03909116815260200160405180910390a1565b828114612587576000356001600160e01b0319166040516306b5667560e21b8152600401610ec091906148f3565b60005b838110156125f8578282828181106125a4576125a4614840565b90506020020135603860008787858181106125c1576125c1614840565b90506020020160208101906125d69190613fee565b6001600160a01b0316815260208101919091526040016000205560010161258a565b507f6f52f53a938df83439fa4c6055c7df0a6906d621aa6dfa4708187037fdfc41da8484848460405161262e9493929190614bed565b60405180910390a150505050565b600080828411156126605760405163964a4d2760e01b815260040160405180910390fd5b505060018054600254607885905560798490556004805493840190556040805183815260208101839052929391928592879290917feac82d4d949d2d4f77f96aa68ab6b1bb750da73f14e55d41a1b93f387471ecba91015b60405180910390a49250929050565b60006126d3600a611a3b565b6001600160a01b031663cacf8fb56040518163ffffffff1660e01b8152600401602060405180830381865afa158015612710573d6000803e3d6000fd5b505050506040513d601f19601f820116820180604052508101906113119190614c1f565b600060795460016079548460785461274c9190614984565b6127569190614c38565b6127609190614c4b565b610a159190614c5e565b60006127766008611a3b565b6001600160a01b031663562d53046040518163ffffffff1660e01b8152600401602060405180830381865afa158015612710573d6000803e3d6000fd5b600060025460016002548460015461274c9190614984565b6127d3611e87565b6000805460ff191660011790557f62e78cea01bee320cd4e420270b5ea74000d11b0c9f74754ebdbfc544b05a25861253c3390565b806001600160a01b03163b6000036123f757604051630bfc64a360e21b81526001600160a01b0382166004820152602401610ec0565b807fdea3103d22025c269050bea94c0c84688877f12fa22b7e6d2d5d78a9a49aa1cb600084600a8111156128745761287461402d565b60ff168152602081019190915260400160002080546001600160a01b0319166001600160a01b03928316179055811682600a8111156128b5576128b561402d565b6040517f865d1c228a8ea13709cfe61f346f7ff67f1bbd4a18ff31ad3e7147350d317c5990600090a35050565b6000610f858383613837565b606e8054600091826128ff83614c80565b90915550905060006129268483858861291d368c90038c018c614c99565b93929190613861565b60008381526071602090815260409091208251815590820151600180830180549495508594909160ff199091169083818111156129655761296561402d565b021790555060408281015180516002840180546001600160a01b039283166001600160a01b03199182161790915560208084015160038701805491851691841691909117905592840151600486015560608601518051600587018054918516918416919091179055928301516006860180549190931691161790550151600782015560808201518051600883018054909190829060ff191660018381811115612a1057612a1061402d565b0217905550602082015181600101556040820151816002015550509050507ff313c253a5be72c29d0deb2c8768a9543744ac03d6b3cafd50cc976f1c2632fc612a58826122ea565b82604051612a67929190614871565b60405180910390a150949350505050565b610a2e82826123fa565b60008082841115612ab4576000356001600160e01b0319166040516387f6f09560e01b8152600401610ec091906148f3565b50506001805460028054858455908490556004805493840190556040805183815260208101839052929391928592879290917f976f8a9c5bdf8248dec172376d6e2b80a8e3df2f0328e381c6db8e1cf138c0f891016126b8565b8685148015612b1c57508683145b612b47576000356001600160e01b0319166040516306b5667560e21b8152600401610ec091906148f3565b60005b87811015612cd957868682818110612b6457612b64614840565b9050602002016020810190612b799190613fee565b607360008b8b85818110612b8f57612b8f614840565b9050602002016020810190612ba49190613fee565b6001600160a01b03166001600160a01b031681526020019081526020016000206000878785818110612bd857612bd8614840565b90506020020135815260200190815260200160002060000160016101000a8154816001600160a01b0302191690836001600160a01b03160217905550828282818110612c2657612c26614840565b9050602002016020810190612c3b9190614908565b607360008b8b85818110612c5157612c51614840565b9050602002016020810190612c669190613fee565b6001600160a01b03166001600160a01b031681526020019081526020016000206000878785818110612c9a57612c9a614840565b60209081029290920135835250810191909152604001600020805460ff191660018381811115612ccc57612ccc61402d565b0217905550600101612b4a565b507f2544bff60c6d5b84946e06804af9f84e150bbee85238dbdee79efca4e0adf4018888888888888888604051612d17989796959493929190614cec565b60405180910390a15050505050505050565b6000610a15825490565b600081516001811115612d4857612d4861402d565b148015612d59575060008160400151115b8015612d6757506020810151155b80612d915750600181516001811115612d8257612d8261402d565b148015612d9157506040810151155b6123f75760405163034992a760e51b815260040160405180910390fd5b6000612dc06060830160408401614908565b6001811115612dd157612dd161402d565b148015612e0e575060386000612ded6040840160208501613fee565b6001600160a01b031681526020810191909152604001600020546080820135105b156123f757604051636eff4a8560e11b815260040160405180910390fd5b600060608186516001811115612e4457612e4461402d565b03612f215760408681015181516001600160a01b038881166024830152878116604483015260648083019390935283518083039093018352608490910183526020820180516001600160e01b03166323b872dd60e01b179052915191851691612ead9190614d7b565b6000604051808303816000865af19150503d8060008114612eea576040519150601f19603f3d011682016040523d82523d6000602084013e612eef565b606091505b509092509050818015612f1a575080511580612f1a575080806020019051810190612f1a9190614b50565b9150613005565b600186516001811115612f3657612f3661402d565b03612fec57602086810151604080516001600160a01b0389811660248301528881166044830152606480830194909452825180830390940184526084909101825292820180516001600160e01b03166323b872dd60e01b1790525191851691612f9f9190614d7b565b6000604051808303816000865af19150503d8060008114612fdc576040519150601f19603f3d011682016040523d82523d6000602084013e612fe1565b606091505b505080925050613005565b6040516361e411a760e11b815260040160405180910390fd5b81610ad75785858585604051639d2e4c6760e01b8152600401610ec09493929190614d97565b6000816001600160a01b0316836001600160a01b0316036130da5760408086015190516001600160a01b0386169180156108fc02916000818181858888f193505050506130d557816001600160a01b031663d0e30db086604001516040518263ffffffff1660e01b81526004016000604051808303818588803b1580156130b157600080fd5b505af11580156130c5573d6000803e3d6000fd5b50505050506130d58585856138cd565b611f9e565b6000855160018111156130ef576130ef61402d565b03613258576040516370a0823160e01b81523060048201526000906001600160a01b038516906370a0823190602401602060405180830381865afa15801561313b573d6000803e3d6000fd5b505050506040513d601f19601f8201168201806040525081019061315f9190614c1f565b9050856040015181101561324757836001600160a01b03166340c10f193083896040015161318d9190614c4b565b6040516001600160a01b03909216602483015260448201526064016040516020818303038152906040529060e01b6020820180516001600160e01b0383818316178352505050506040516131e19190614d7b565b6000604051808303816000865af19150503d806000811461321e576040519150601f19603f3d011682016040523d82523d6000602084013e613223565b606091505b5050809250508161324757604051632f739fff60e11b815260040160405180910390fd5b6132528686866138cd565b50611f9e565b60018551600181111561326d5761326d61402d565b03612fec576132818385876020015161394b565b6130d557602085810151604080516001600160a01b038881166024830152604480830194909452825180830390940184526064909101825292820180516001600160e01b03166340c10f1960e01b17905251918516916132e19190614d7b565b6000604051808303816000865af19150503d806000811461331e576040519150601f19603f3d011682016040523d82523d6000602084013e613323565b606091505b505080915050806130d55760405163c8e3a09f60e01b815260040160405180910390fd5b604080517f353bdd8d69b9e3185b3972e08b03845c0c14a21a390215302776a7a34b0e8764815282516020808301919091528301518183015291015160608201526080902090565b600083600301541180156133a7575042836003015411155b156133b857825460ff191660041783555b6001600160a01b0382166000908152600284016020526040902054156133fc5760405163025fd59560e41b81526001600160a01b0383166004820152602401610ec0565b6001600160a01b039091166000818152600284016020908152604082209390935560059093018054600181018255908452919092200180546001600160a01b0319169091179055565b60008060008060006134576008611a3b565b6001600160a01b031663b7ab4db56040518163ffffffff1660e01b8152600401600060405180830381865afa158015613494573d6000803e3d6000fd5b505050506040513d6000823e601f3d908101601f191682016040526134bc9190810190614e64565b92509250925060006134ce600a611a3b565b6001600160a01b031663520fce62856040518263ffffffff1660e01b81526004016134f99190614f4f565b600060405180830381865afa158015613516573d6000803e3d6000fd5b505050506040513d6000823e601f3d908101601f1916820160405261353e9190810190614f90565b905060005b835181101561360b57613582600284838151811061356357613563614840565b6020026020010151600381111561357c5761357c61402d565b906139f6565b80156135cd5750878960020160008684815181106135a2576135a2614840565b60200260200101516001600160a01b03166001600160a01b0316815260200190815260200160002054145b1561360357868060010197505060008282815181106135ee576135ee614840565b60200260200101511115613603576001909501945b600101613543565b50505050509250929050565b60008585101580156136295750838310155b801561364a57506000875460ff1660048111156136485761364861402d565b145b1561366257865460ff19166001908117885587018290555b50855460ff165b9695505050505050565b61367d828261143d565b610a2e57613695816001600160a01b03166014613a29565b6136a0836020613a29565b6040516020016136b1929190615015565b60408051601f198184030181529082905262461bcd60e51b8252610ec09160040161508a565b6136e1828261143d565b610a2e576000828152606b602090815260408083206001600160a01b03851684529091529020805460ff191660011790556137193390565b6001600160a01b0316816001600160a01b0316837f2f8788117e7eff1d82e926ec794901d17c78024a50270940304540a733656f0d60405160405180910390a45050565b6000610f85836001600160a01b038416613bc4565b61377c828261143d565b15610a2e576000828152606b602090815260408083206001600160a01b0385168085529252808320805460ff1916905551339285917ff6391f5c32d9c69d2a47ea670b442974b53935d1edc7fd64eb21e047a839171b9190a45050565b6000610f85836001600160a01b038416613c13565b60005460ff16610fc65760405162461bcd60e51b815260206004820152601460248201527314185d5cd8589b194e881b9bdd081c185d5cd95960621b6044820152606401610ec0565b600082600001828154811061384e5761384e614840565b9060005260206000200154905092915050565b613869613dd9565b92835260016020808501919091526060840180516001600160a01b0396871690528682015181519087169083015251466040918201528651818601805191881690915280519490961693909101929092529251810192909252910151608082015290565b600080845160018111156138e3576138e361402d565b036138fe576138f782848660400151613d06565b9050613927565b6001845160018111156139135761391361402d565b03612fec576138f78284866020015161394b565b806111fe578383836040516341bd7d9160e11b8152600401610ec09392919061509d565b604080513060248201526001600160a01b038481166044830152606480830185905283518084039091018152608490920183526020820180516001600160e01b03166323b872dd60e01b17905291516000928616916139a991614d7b565b6000604051808303816000865af19150503d80600081146139e6576040519150601f19603f3d011682016040523d82523d6000602084013e6139eb565b606091505b509095945050505050565b6000816003811115613a0a57613a0a61402d565b836003811115613a1c57613a1c61402d565b1660ff1615159392505050565b60606000613a38836002614984565b613a43906002614c38565b6001600160401b03811115613a5a57613a5a614664565b6040519080825280601f01601f191660200182016040528015613a84576020820181803683370190505b509050600360fc1b81600081518110613a9f57613a9f614840565b60200101906001600160f81b031916908160001a905350600f60fb1b81600181518110613ace57613ace614840565b60200101906001600160f81b031916908160001a9053506000613af2846002614984565b613afd906001614c38565b90505b6001811115613b75576f181899199a1a9b1b9c1cb0b131b232b360811b85600f1660108110613b3157613b31614840565b1a60f81b828281518110613b4757613b47614840565b60200101906001600160f81b031916908160001a90535060049490941c93613b6e816150cd565b9050613b00565b508315610f855760405162461bcd60e51b815260206004820181905260248201527f537472696e67733a20686578206c656e67746820696e73756666696369656e746044820152606401610ec0565b6000818152600183016020526040812054613c0b57508154600181810184556000848152602080822090930184905584548482528286019093526040902091909155610a15565b506000610a15565b60008181526001830160205260408120548015613cfc576000613c37600183614c4b565b8554909150600090613c4b90600190614c4b565b9050818114613cb0576000866000018281548110613c6b57613c6b614840565b9060005260206000200154905080876000018481548110613c8e57613c8e614840565b6000918252602080832090910192909255918252600188019052604090208390555b8554869080613cc157613cc16150e4565b600190038181906000526020600020016000905590558560010160008681526020019081526020016000206000905560019350505050610a15565b6000915050610a15565b604080516001600160a01b038481166024830152604480830185905283518084039091018152606490920183526020820180516001600160e01b031663a9059cbb60e01b179052915160009260609290871691613d639190614d7b565b6000604051808303816000865af19150503d8060008114613da0576040519150601f19603f3d011682016040523d82523d6000602084013e613da5565b606091505b509092509050818015613dd0575080511580613dd0575080806020019051810190613dd09190614b50565b95945050505050565b6040805160a08101825260008082526020808301829052835160608082018652838252818301849052818601849052848601919091528451808201865283815280830184905280860184905281850152845190810185528281529081018290529283015290608082015290565b600060208284031215613e5857600080fd5b81356001600160e01b031981168114610f8557600080fd5b60008082840360c0811215613e8457600080fd5b60a0811215613e9257600080fd5b50919360a08501359350915050565b60006101608284031215613eb457600080fd5b50919050565b60008083601f840112613ecc57600080fd5b5081356001600160401b03811115613ee357600080fd5b6020830191508360208260051b85010111156112f857600080fd5b60008060208385031215613f1157600080fd5b82356001600160401b03811115613f2757600080fd5b613f3385828601613eba565b90969095509350505050565b6020808252825182820181905260009190848201906040850190845b81811015613f79578351151583529284019291840191600101613f5b565b50909695505050505050565b600060208284031215613f9757600080fd5b5035919050565b6001600160a01b03811681146123f757600080fd5b8035611ab181613f9e565b60008060408385031215613fd157600080fd5b823591506020830135613fe381613f9e565b809150509250929050565b60006020828403121561400057600080fd5b8135610f8581613f9e565b6000806040838503121561401e57600080fd5b50508035926020909101359150565b634e487b7160e01b600052602160045260246000fd5b60808101600586106140575761405761402d565b9481526020810193909352604083019190915260609091015290565b60008083601f84011261408557600080fd5b5081356001600160401b0381111561409c57600080fd5b60208301915083602060a0830285010111156112f857600080fd5b6000806000604084860312156140cc57600080fd5b83356001600160401b038111156140e257600080fd5b6140ee86828701614073565b909790965060209590950135949350505050565b6000806040838503121561411557600080fd5b823561412081613f9e565b946020939093013593505050565b600281106123f7576123f761402d565b8151604082019061414e8161412e565b82526020928301516001600160a01b0316929091019190915290565b6000806000806040858703121561418057600080fd5b84356001600160401b038082111561419757600080fd5b6141a388838901613eba565b909650945060208701359150808211156141bc57600080fd5b506141c987828801613eba565b95989497509550505050565b80516001600160a01b03908116835260208083015190911690830152604090810151910152565b80516142078161412e565b825260208181015190830152604090810151910152565b858152610160810161422f8661412e565b85602083015261424260408301866141d5565b61424f60a08301856141d5565b6136696101008301846141fc565b8035600b8110611ab157600080fd5b6000806040838503121561427f57600080fd5b6142888361425d565b91506020830135613fe381613f9e565b600080600080604085870312156142ae57600080fd5b84356001600160401b03808211156142c557600080fd5b6141a388838901614073565b8060408101831015610a1557600080fd5b60008060008060008060008060008060006101208c8e03121561430457600080fd5b61430d8c613fb3565b9a5060208c0135995060408c0135985060608c0135975060808c013596506001600160401b038060a08e0135111561434457600080fd5b6143548e60a08f01358f01613eba565b909750955060c08d013581101561436a57600080fd5b61437a8e60c08f01358f016142d1565b94508060e08e0135111561438d57600080fd5b61439d8e60e08f01358f016142d1565b9350806101008e013511156143b157600080fd5b506143c38d6101008e01358e01613eba565b81935080925050509295989b509295989b9093969950565b600080602083850312156143ee57600080fd5b82356001600160401b038082111561440557600080fd5b818501915085601f83011261441957600080fd5b81358181111561442857600080fd5b8660206101608302850101111561443e57600080fd5b60209290920196919550909350505050565b6000806000806000806000806080898b03121561446c57600080fd5b88356001600160401b038082111561448357600080fd5b61448f8c838d01613eba565b909a50985060208b01359150808211156144a857600080fd5b6144b48c838d01613eba565b909850965060408b01359150808211156144cd57600080fd5b6144d98c838d01613eba565b909650945060608b01359150808211156144f257600080fd5b506144ff8b828c01613eba565b999c989b5096995094979396929594505050565b60006020828403121561452557600080fd5b610f858261425d565b60008060006040848603121561454357600080fd5b8335925060208401356001600160401b0381111561456057600080fd5b61456c86828701613eba565b9497909650939450505050565b60005b8381101561459457818101518382015260200161457c565b50506000910152565b600081518084526145b5816020860160208601614579565b601f01601f19169290920160200192915050565b6000602080830181845280855180835260408601915060408160051b870101925083870160005b8281101561461e57603f1988860301845261460c85835161459d565b945092850192908501906001016145f0565b5092979650505050505050565b60008060006060848603121561464057600080fd5b8335925060208401359150604084013561465981613f9e565b809150509250925092565b634e487b7160e01b600052604160045260246000fd5b604051606081016001600160401b038111828210171561469c5761469c614664565b60405290565b604051601f8201601f191681016001600160401b03811182821017156146ca576146ca614664565b604052919050565b600281106123f757600080fd5b6000606082840312156146f157600080fd5b6146f961467a565b9050813561470681613f9e565b8152602082013561471681613f9e565b806020830152506040820135604082015292915050565b60006060828403121561473f57600080fd5b61474761467a565b90508135614754816146d2565b80825250602082013560208201526040820135604082015292915050565b6000610160828403121561478557600080fd5b60405160a081018181106001600160401b03821117156147a7576147a7614664565b6040528235815260208301356147bc816146d2565b60208201526147ce84604085016146df565b60408201526147e08460a085016146df565b60608201526147f384610100850161472d565b60808201529392505050565b6003811061480f5761480f61402d565b9052565b6060810161482182866147ff565b60208201939093526001600160a01b0391909116604090910152919050565b634e487b7160e01b600052603260045260246000fd5b6040810161486482856147ff565b8260208301529392505050565b6000610180820190508382528251602083015260208301516148928161412e565b8060408401525060408301516148ab60608401826141d5565b5060608301516148be60c08401826141d5565b506080830151611c156101208401826141fc565b6001600160e01b03198316815260408101600983106148645761486461402d565b6001600160e01b031991909116815260200190565b60006020828403121561491a57600080fd5b8135610f85816146d2565b6000808335601e1984360301811261493c57600080fd5b8301803591506001600160401b0382111561495657600080fd5b6020019150600581901b36038213156112f857600080fd5b634e487b7160e01b600052601160045260246000fd5b8082028115828204841417610a1557610a1561496e565b60208101600b83106149af576149af61402d565b91905290565b600181811c908216806149c957607f821691505b602082108103613eb457634e487b7160e01b600052602260045260246000fd5b6000808335601e19843603018112614a0057600080fd5b8301803591506001600160401b03821115614a1a57600080fd5b6020019150368190038213156112f857600080fd5b601f821115610e4f57600081815260208120601f850160051c81016020861015614a565750805b601f850160051c820191505b81811015610ad757828155600101614a62565b6001600160401b03831115614a8c57614a8c614664565b614aa083614a9a83546149b5565b83614a2f565b6000601f841160018114614ad45760008515614abc5750838201355b600019600387901b1c1916600186901b178355611f9e565b600083815260209020601f19861690835b82811015614b055786850135825560209485019460019092019101614ae5565b5086821015614b225760001960f88860031b161c19848701351681555b505060018560011b0183555050505050565b600060608284031215614b4657600080fd5b610f85838361472d565b600060208284031215614b6257600080fd5b81518015158114610f8557600080fd5b8183526000602080850194508260005b85811015614bb0578135614b9581613f9e565b6001600160a01b031687529582019590820190600101614b82565b509495945050505050565b81835260006001600160fb1b03831115614bd457600080fd5b8260051b80836020870137939093016020019392505050565b604081526000614c01604083018688614b72565b8281036020840152614c14818587614bbb565b979650505050505050565b600060208284031215614c3157600080fd5b5051919050565b80820180821115610a1557610a1561496e565b81810381811115610a1557610a1561496e565b600082614c7b57634e487b7160e01b600052601260045260246000fd5b500490565b600060018201614c9257614c9261496e565b5060010190565b600060a08284031215614cab57600080fd5b614cb361467a565b8235614cbe81613f9e565b81526020830135614cce81613f9e565b6020820152614ce0846040850161472d565b60408201529392505050565b608081526000614d00608083018a8c614b72565b602083820381850152614d14828a8c614b72565b91508382036040850152614d2982888a614bbb565b8481036060860152858152869250810160005b86811015614d6a578335614d4f816146d2565b614d588161412e565b82529282019290820190600101614d3c565b509c9b505050505050505050505050565b60008251614d8d818460208701614579565b9190910192915050565b60c08101614da582876141fc565b6001600160a01b0394851660608301529284166080820152921660a090920191909152919050565b60006001600160401b03821115614de657614de6614664565b5060051b60200190565b600082601f830112614e0157600080fd5b81516020614e16614e1183614dcd565b6146a2565b82815260059290921b84018101918181019086841115614e3557600080fd5b8286015b84811015614e59578051614e4c81613f9e565b8352918301918301614e39565b509695505050505050565b600080600060608486031215614e7957600080fd5b83516001600160401b0380821115614e9057600080fd5b614e9c87838801614df0565b9450602091508186015181811115614eb357600080fd5b614ebf88828901614df0565b945050604086015181811115614ed457600080fd5b86019050601f81018713614ee757600080fd5b8051614ef5614e1182614dcd565b81815260059190911b82018301908381019089831115614f1457600080fd5b928401925b82841015614f4057835160048110614f315760008081fd5b82529284019290840190614f19565b80955050505050509250925092565b6020808252825182820181905260009190848201906040850190845b81811015613f795783516001600160a01b031683529284019291840191600101614f6b565b60006020808385031215614fa357600080fd5b82516001600160401b03811115614fb957600080fd5b8301601f81018513614fca57600080fd5b8051614fd8614e1182614dcd565b81815260059190911b82018301908381019087831115614ff757600080fd5b928401925b82841015614c1457835182529284019290840190614ffc565b7f416363657373436f6e74726f6c3a206163636f756e742000000000000000000081526000835161504d816017850160208801614579565b7001034b99036b4b9b9b4b733903937b6329607d1b601791840191820152835161507e816028840160208801614579565b01602801949350505050565b602081526000610f85602083018461459d565b60a081016150ab82866141fc565b6001600160a01b03938416606083015291909216608090920191909152919050565b6000816150dc576150dc61496e565b506000190190565b634e487b7160e01b600052603160045260246000fdfe384495a48d92b97cd9b9d199c73ed783dd1aa0076a6ebcf9156ca7fef7d2cc40a164736f6c6343000811000a",
  "devdoc": {
    "errors": {
      "ErrAlreadyVoted(address)": [
        {
          "details": "Error indicating that a voter has already voted.",
          "params": {
            "voter": "The address of the voter who has already voted."
          }
        }
      ],
      "ErrContractTypeNotFound(uint8)": [
        {
          "details": "Error of invalid role."
        }
      ],
      "ErrERC20MintingFailed()": [
        {
          "details": "Error indicating that the minting of ERC20 tokens has failed."
        }
      ],
      "ErrERC721MintingFailed()": [
        {
          "details": "Error indicating that the minting of ERC721 tokens has failed."
        }
      ],
      "ErrEmptyArray()": [
        {
          "details": "Error indicating that an array is empty when it should contain elements."
        }
      ],
      "ErrInvalidChainId(bytes4,uint256,uint256)": [
        {
          "details": "Error indicating that the chain ID is invalid.",
          "params": {
            "actual": "Current chain ID that executing function.",
            "expected": "Expected chain ID required for the tx to success.",
            "msgSig": "The function signature (bytes4) of the operation that encountered an invalid chain ID."
          }
        }
      ],
      "ErrInvalidInfo()": [
        {
          "details": "Error indicating that the provided information is invalid."
        }
      ],
      "ErrInvalidReceipt()": [
        {
          "details": "Error indicating that a receipt is invalid."
        }
      ],
      "ErrInvalidReceiptKind()": [
        {
          "details": "Error indicating that a receipt kind is invalid."
        }
      ],
      "ErrInvalidRequest()": [
        {
          "details": "Error indicating that a request is invalid."
        }
      ],
      "ErrInvalidThreshold(bytes4)": [
        {
          "details": "Error indicating that the provided threshold is invalid for a specific function signature.",
          "params": {
            "msgSig": "The function signature (bytes4) that the invalid threshold applies to."
          }
        }
      ],
      "ErrInvalidTokenStandard()": [
        {
          "details": "Error indicating that a token standard is invalid."
        }
      ],
      "ErrInvalidTrustedThreshold()": [
        {
          "details": "Error thrown when an invalid trusted threshold is specified."
        }
      ],
      "ErrLengthMismatch(bytes4)": [
        {
          "details": "Error indicating a mismatch in the length of input parameters or arrays for a specific function.",
          "params": {
            "msgSig": "The function signature (bytes4) that has a length mismatch."
          }
        }
      ],
      "ErrQueryForTooSmallQuantity()": [
        {
          "details": "Throwed when the ERC20 withdrawal quantity is less than the minimum threshold."
        }
      ],
      "ErrTokenCouldNotTransfer((uint8,uint256,uint256),address,address)": [
        {
          "details": "Error indicating that the `transfer` has failed.",
          "params": {
            "to": "Receiver of the token value.",
            "token": "Address of the token.",
            "tokenInfo": "Info of the token including ERC standard, id or quantity."
          }
        }
      ],
      "ErrTokenCouldNotTransferFrom((uint8,uint256,uint256),address,address,address)": [
        {
          "details": "Error indicating that the `transferFrom` has failed.",
          "params": {
            "from": "Owner of the token value.",
            "to": "Receiver of the token value.",
            "token": "Address of the token.",
            "tokenInfo": "Info of the token including ERC standard, id or quantity."
          }
        }
      ],
      "ErrUnauthorized(bytes4,uint8)": [
        {
          "details": "Error indicating that the caller is unauthorized to perform a specific function.",
          "params": {
            "expectedRole": "The role required to perform the function.",
            "msgSig": "The function signature (bytes4) that the caller is unauthorized to perform."
          }
        }
      ],
      "ErrUnsupportedStandard()": [
        {
          "details": "Error indicating that an unsupported standard is encountered."
        }
      ],
      "ErrUnsupportedToken()": [
        {
          "details": "Error indicating that a token is not supported."
        }
      ],
      "ErrWithdrawalsMigrated()": [
        {
          "details": "Error thrown when attempting to withdraw funds that have already been migrated."
        }
      ],
      "ErrWithdrawnOnMainchainAlready()": [
        {
          "details": "Error thrown when attempting to withdraw funds that have already been withdrawn on the mainchain."
        }
      ],
      "ErrZeroCodeContract(address)": [
        {
          "details": "Error of set to non-contract."
        }
      ]
    },
    "kind": "dev",
    "methods": {
      "bulkRequestWithdrawalFor((address,address,(uint8,uint256,uint256))[],uint256)": {
        "details": "Bulk requests withdrawals. Emits the `WithdrawalRequested` events."
      },
      "bulkSubmitWithdrawalSignatures(uint256[],bytes[])": {
        "details": "Submits withdrawal signatures. Requirements: - The method caller is a validator."
      },
      "checkThreshold(uint256)": {
        "details": "Checks whether the `_voteWeight` passes the threshold."
      },
      "depositFor((uint256,uint8,(address,address,uint256),(address,address,uint256),(uint8,uint256,uint256)))": {
        "details": "Deposits based on the receipt. Requirements: - The method caller is a validator. Emits the `Deposited` once the assets are released."
      },
      "depositVoted(uint256,uint256,address)": {
        "details": "Returns whether the deposit is casted by the voter."
      },
      "getContract(uint8)": {
        "details": "Returns the address of a contract with a specific role. Throws an error if no contract is set for the specified role.",
        "params": {
          "contractType": "The role of the contract to retrieve."
        },
        "returns": {
          "contract_": "The address of the contract with the specified role."
        }
      },
      "getMainchainToken(address,uint256)": {
        "details": "Returns mainchain token address. Reverts for unsupported token."
      },
      "getRoleAdmin(bytes32)": {
        "details": "Returns the admin role that controls `role`. See {grantRole} and {revokeRole}. To change a role's admin, use {_setRoleAdmin}."
      },
      "getRoleMember(bytes32,uint256)": {
        "details": "Returns one of the accounts that have `role`. `index` must be a value between 0 and {getRoleMemberCount}, non-inclusive. Role bearers are not sorted in any particular way, and their ordering may change at any point. WARNING: When using {getRoleMember} and {getRoleMemberCount}, make sure you perform all queries on the same block. See the following https://forum.openzeppelin.com/t/iterating-over-elements-on-enumerableset-in-openzeppelin-contracts/2296[forum post] for more information."
      },
      "getRoleMemberCount(bytes32)": {
        "details": "Returns the number of accounts that have `role`. Can be used together with {getRoleMember} to enumerate all bearers of a role."
      },
      "getThreshold()": {
        "details": "Returns the threshold."
      },
      "getTrustedThreshold()": {
        "details": "Returns the threshold about trusted org."
      },
      "getWithdrawalSignatures(uint256,address[])": {
        "details": "Returns withdrawal signatures."
      },
      "grantRole(bytes32,address)": {
        "details": "Grants `role` to `account`. If `account` had not been already granted `role`, emits a {RoleGranted} event. Requirements: - the caller must have ``role``'s admin role. May emit a {RoleGranted} event."
      },
      "hasRole(bytes32,address)": {
        "details": "Returns `true` if `account` has been granted `role`."
      },
      "initialize(address,uint256,uint256,uint256,uint256,address[],address[][2],uint256[][2],uint8[])": {
        "details": "Initializes contract storage."
      },
      "mainchainWithdrew(uint256)": {
        "details": "Returns whether the withdrawal is done on mainchain."
      },
      "mainchainWithdrewVoted(uint256,address)": {
        "details": "Returns whether the mainchain withdrew is casted by the voter."
      },
      "mapTokens(address[],address[],uint256[],uint8[])": {
        "details": "Maps Ronin tokens to mainchain networks. Requirement: - The method caller is admin. - The arrays have the same length and its length larger than 0. Emits the `TokenMapped` event."
      },
      "markWithdrawalMigrated()": {
        "details": "Mark the migration as done."
      },
      "migrateWithdrawals((address,address,(uint8,uint256,uint256))[],address[])": {
        "details": "Migrates withdrawals. Requirements: - The method caller is the migrator. - The arrays have the same length and its length larger than 0."
      },
      "minimumTrustedVoteWeight()": {
        "details": "Returns the minimum trusted vote weight to pass the threshold."
      },
      "minimumVoteWeight()": {
        "details": "Returns the minimum vote weight to pass the threshold."
      },
      "pause()": {
        "details": "Triggers paused state."
      },
      "paused()": {
        "details": "Returns true if the contract is paused, and false otherwise."
      },
      "renounceRole(bytes32,address)": {
        "details": "Revokes `role` from the calling account. Roles are often managed via {grantRole} and {revokeRole}: this function's purpose is to provide a mechanism for accounts to lose their privileges if they are compromised (such as when a trusted device is misplaced). If the calling account had been revoked `role`, emits a {RoleRevoked} event. Requirements: - the caller must be `account`. May emit a {RoleRevoked} event."
      },
      "requestWithdrawalFor((address,address,(uint8,uint256,uint256)),uint256)": {
        "details": "Locks the assets and request withdrawal. Emits the `WithdrawalRequested` event."
      },
      "requestWithdrawalSignatures(uint256)": {
        "details": "Requests withdrawal signatures for a specific withdrawal. Emits the `WithdrawalSignaturesRequested` event."
      },
      "revokeRole(bytes32,address)": {
        "details": "Revokes `role` from `account`. If `account` had been granted `role`, emits a {RoleRevoked} event. Requirements: - the caller must have ``role``'s admin role. May emit a {RoleRevoked} event."
      },
      "setContract(uint8,address)": {
        "details": "Sets the address of a contract with a specific role. Emits the event {ContractUpdated}.",
        "params": {
          "addr": "The address of the contract to set.",
          "contractType": "The role of the contract to set."
        }
      },
      "setEmergencyPauser(address)": {
        "details": "Grant emergency pauser role for `_addr`."
      },
      "setMinimumThresholds(address[],uint256[])": {
        "details": "Sets the minimum thresholds to withdraw. Requirements: - The method caller is admin. - The arrays have the same length and its length larger than 0. Emits the `MinimumThresholdsUpdated` event."
      },
      "setThreshold(uint256,uint256)": {
        "details": "Sets the threshold. Requirements: - The method caller is admin. Emits the `ThresholdUpdated` event."
      },
      "supportsInterface(bytes4)": {
        "details": "See {IERC165-supportsInterface}."
      },
      "tryBulkAcknowledgeMainchainWithdrew(uint256[])": {
        "details": "Marks the withdrawals are done on mainchain and returns the boolean array indicating whether the withdrawal vote is already done before. Requirements: - The method caller is a validator. Emits the `MainchainWithdrew` once the valid call passes the quorum threshold."
      },
      "tryBulkDepositFor((uint256,uint8,(address,address,uint256),(address,address,uint256),(uint8,uint256,uint256))[])": {
        "details": "Tries bulk deposits based on the receipts and returns the boolean array indicating whether the deposit vote is already done before. Reverts if the deposit is invalid or is voted by the validator again. Requirements: - The method caller is a validator. Emits the `Deposited` once the assets are released."
      },
      "unpause()": {
        "details": "Triggers unpaused state."
      }
    },
    "stateVariables": {
      "WITHDRAWAL_MIGRATOR": {
        "details": "Withdrawal unlocker role hash"
      },
      "____deprecated0": {
        "custom:deprecated": "Previously `_validatorContract` (non-zero value)"
      },
      "____deprecated1": {
        "custom:deprecated": "Previously `_bridgeTrackingContract` (non-zero value)"
      },
      "____deprecated2": {
        "custom:deprecated": "Previously `_trustedOrgContract` (non-zero value)"
      },
      "_mainchainToken": {
        "details": "Mapping from token address => chain id => mainchain token address"
      },
      "_withdrawalSig": {
        "details": "Mapping from withdrawal id => validator address => signatures"
      },
      "depositVote": {
        "details": "Mapping from chain id => deposit id => deposit vote"
      },
      "mainchainWithdrewVote": {
        "details": "Mapping from withdrawal id => mainchain withdrew vote"
      },
      "withdrawal": {
        "details": "Mapping from withdrawal id => withdrawal receipt"
      },
      "withdrawalCount": {
        "details": "Total withdrawal"
      },
      "withdrawalMigrated": {
        "details": "Flag indicating whether the withdrawal migrate progress is done"
      },
      "withdrawalStatVote": {
        "details": "Mapping from withdrawal id => vote for recording withdrawal stats"
      }
    },
    "version": 1
  },
  "userdoc": {
    "kind": "user",
    "methods": {
      "depositFor((uint256,uint8,(address,address,uint256),(address,address,uint256),(uint8,uint256,uint256)))": {
        "notice": "The assets will be transferred whenever the valid call passes the quorum threshold."
      },
      "tryBulkAcknowledgeMainchainWithdrew(uint256[])": {
        "notice": "Not reverting to avoid unnecessary failed transactions because the validators can send transactions at the same time."
      },
      "tryBulkDepositFor((uint256,uint8,(address,address,uint256),(address,address,uint256),(uint8,uint256,uint256))[])": {
        "notice": "The assets will be transferred whenever the valid call for the receipt passes the quorum threshold. Not reverting to avoid unnecessary failed transactions because the validators can send transactions at the same time."
      }
    },
    "version": 1
  },
  "storageLayout": {
    "storage": [
      {
        "astId": 1535,
        "contract": "contracts/ronin/gateway/RoninGatewayV2.sol:RoninGatewayV2",
        "label": "_paused",
        "offset": 0,
        "slot": "0",
        "type": "t_bool"
      },
      {
        "astId": 4326,
        "contract": "contracts/ronin/gateway/RoninGatewayV2.sol:RoninGatewayV2",
        "label": "_num",
        "offset": 0,
        "slot": "1",
        "type": "t_uint256"
      },
      {
        "astId": 4328,
        "contract": "contracts/ronin/gateway/RoninGatewayV2.sol:RoninGatewayV2",
        "label": "_denom",
        "offset": 0,
        "slot": "2",
        "type": "t_uint256"
      },
      {
        "astId": 4330,
        "contract": "contracts/ronin/gateway/RoninGatewayV2.sol:RoninGatewayV2",
        "label": "______deprecated",
        "offset": 0,
        "slot": "3",
        "type": "t_address"
      },
      {
        "astId": 4332,
        "contract": "contracts/ronin/gateway/RoninGatewayV2.sol:RoninGatewayV2",
        "label": "nonce",
        "offset": 0,
        "slot": "4",
        "type": "t_uint256"
      },
      {
        "astId": 4334,
        "contract": "contracts/ronin/gateway/RoninGatewayV2.sol:RoninGatewayV2",
        "label": "emergencyPauser",
        "offset": 0,
        "slot": "5",
        "type": "t_address"
      },
      {
        "astId": 4339,
        "contract": "contracts/ronin/gateway/RoninGatewayV2.sol:RoninGatewayV2",
        "label": "______gap",
        "offset": 0,
        "slot": "6",
        "type": "t_array(t_uint256)49_storage"
      },
      {
        "astId": 1373,
        "contract": "contracts/ronin/gateway/RoninGatewayV2.sol:RoninGatewayV2",
        "label": "_initialized",
        "offset": 0,
        "slot": "55",
        "type": "t_uint8"
      },
      {
        "astId": 1376,
        "contract": "contracts/ronin/gateway/RoninGatewayV2.sol:RoninGatewayV2",
        "label": "_initializing",
        "offset": 1,
        "slot": "55",
        "type": "t_bool"
      },
      {
        "astId": 4902,
        "contract": "contracts/ronin/gateway/RoninGatewayV2.sol:RoninGatewayV2",
        "label": "minimumThreshold",
        "offset": 0,
        "slot": "56",
        "type": "t_mapping(t_address,t_uint256)"
      },
      {
        "astId": 4907,
        "contract": "contracts/ronin/gateway/RoninGatewayV2.sol:RoninGatewayV2",
        "label": "______gap",
        "offset": 0,
        "slot": "57",
        "type": "t_array(t_uint256)50_storage"
      },
      {
        "astId": 24,
        "contract": "contracts/ronin/gateway/RoninGatewayV2.sol:RoninGatewayV2",
        "label": "_roles",
        "offset": 0,
        "slot": "107",
        "type": "t_mapping(t_bytes32,t_struct(RoleData)19_storage)"
      },
      {
        "astId": 338,
        "contract": "contracts/ronin/gateway/RoninGatewayV2.sol:RoninGatewayV2",
        "label": "_roleMembers",
        "offset": 0,
        "slot": "108",
        "type": "t_mapping(t_bytes32,t_struct(AddressSet)4026_storage)"
      },
      {
        "astId": 24343,
        "contract": "contracts/ronin/gateway/RoninGatewayV2.sol:RoninGatewayV2",
        "label": "withdrawalMigrated",
        "offset": 0,
        "slot": "109",
        "type": "t_bool"
      },
      {
        "astId": 24346,
        "contract": "contracts/ronin/gateway/RoninGatewayV2.sol:RoninGatewayV2",
        "label": "withdrawalCount",
        "offset": 0,
        "slot": "110",
        "type": "t_uint256"
      },
      {
        "astId": 24354,
        "contract": "contracts/ronin/gateway/RoninGatewayV2.sol:RoninGatewayV2",
        "label": "depositVote",
        "offset": 0,
        "slot": "111",
        "type": "t_mapping(t_uint256,t_mapping(t_uint256,t_struct(Vote)12791_storage))"
      },
      {
        "astId": 24360,
        "contract": "contracts/ronin/gateway/RoninGatewayV2.sol:RoninGatewayV2",
        "label": "mainchainWithdrewVote",
        "offset": 0,
        "slot": "112",
        "type": "t_mapping(t_uint256,t_struct(Vote)12791_storage)"
      },
      {
        "astId": 24366,
        "contract": "contracts/ronin/gateway/RoninGatewayV2.sol:RoninGatewayV2",
        "label": "withdrawal",
        "offset": 0,
        "slot": "113",
        "type": "t_mapping(t_uint256,t_struct(Receipt)14152_storage)"
      },
      {
        "astId": 24373,
        "contract": "contracts/ronin/gateway/RoninGatewayV2.sol:RoninGatewayV2",
        "label": "_withdrawalSig",
        "offset": 0,
        "slot": "114",
        "type": "t_mapping(t_uint256,t_mapping(t_address,t_bytes_storage))"
      },
      {
        "astId": 24381,
        "contract": "contracts/ronin/gateway/RoninGatewayV2.sol:RoninGatewayV2",
        "label": "_mainchainToken",
        "offset": 0,
        "slot": "115",
        "type": "t_mapping(t_address,t_mapping(t_uint256,t_struct(MappedToken)10320_storage))"
      },
      {
        "astId": 24384,
        "contract": "contracts/ronin/gateway/RoninGatewayV2.sol:RoninGatewayV2",
        "label": "____deprecated0",
        "offset": 0,
        "slot": "116",
        "type": "t_address"
      },
      {
        "astId": 24387,
        "contract": "contracts/ronin/gateway/RoninGatewayV2.sol:RoninGatewayV2",
        "label": "____deprecated1",
        "offset": 0,
        "slot": "117",
        "type": "t_address"
      },
      {
        "astId": 24393,
        "contract": "contracts/ronin/gateway/RoninGatewayV2.sol:RoninGatewayV2",
        "label": "withdrawalStatVote",
        "offset": 0,
        "slot": "118",
        "type": "t_mapping(t_uint256,t_struct(Vote)12791_storage)"
      },
      {
        "astId": 24396,
        "contract": "contracts/ronin/gateway/RoninGatewayV2.sol:RoninGatewayV2",
        "label": "____deprecated2",
        "offset": 0,
        "slot": "119",
        "type": "t_address"
      },
      {
        "astId": 24398,
        "contract": "contracts/ronin/gateway/RoninGatewayV2.sol:RoninGatewayV2",
        "label": "_trustedNum",
        "offset": 0,
        "slot": "120",
        "type": "t_uint256"
      },
      {
        "astId": 24400,
        "contract": "contracts/ronin/gateway/RoninGatewayV2.sol:RoninGatewayV2",
        "label": "_trustedDenom",
        "offset": 0,
        "slot": "121",
        "type": "t_uint256"
      }
    ],
    "types": {
      "t_address": {
        "encoding": "inplace",
        "label": "address",
        "numberOfBytes": "20"
      },
      "t_array(t_address)dyn_storage": {
        "base": "t_address",
        "encoding": "dynamic_array",
        "label": "address[]",
        "numberOfBytes": "32"
      },
      "t_array(t_bytes32)dyn_storage": {
        "base": "t_bytes32",
        "encoding": "dynamic_array",
        "label": "bytes32[]",
        "numberOfBytes": "32"
      },
      "t_array(t_uint256)49_storage": {
        "base": "t_uint256",
        "encoding": "inplace",
        "label": "uint256[49]",
        "numberOfBytes": "1568"
      },
      "t_array(t_uint256)50_storage": {
        "base": "t_uint256",
        "encoding": "inplace",
        "label": "uint256[50]",
        "numberOfBytes": "1600"
      },
      "t_bool": {
        "encoding": "inplace",
        "label": "bool",
        "numberOfBytes": "1"
      },
      "t_bytes32": {
        "encoding": "inplace",
        "label": "bytes32",
        "numberOfBytes": "32"
      },
      "t_bytes_storage": {
        "encoding": "bytes",
        "label": "bytes",
        "numberOfBytes": "32"
      },
      "t_enum(Kind)13949": {
        "encoding": "inplace",
        "label": "enum Transfer.Kind",
        "numberOfBytes": "1"
      },
      "t_enum(Standard)13467": {
        "encoding": "inplace",
        "label": "enum Token.Standard",
        "numberOfBytes": "1"
      },
      "t_enum(VoteStatus)10347": {
        "encoding": "inplace",
        "label": "enum VoteStatusConsumer.VoteStatus",
        "numberOfBytes": "1"
      },
      "t_mapping(t_address,t_bool)": {
        "encoding": "mapping",
        "key": "t_address",
        "label": "mapping(address => bool)",
        "numberOfBytes": "32",
        "value": "t_bool"
      },
      "t_mapping(t_address,t_bytes32)": {
        "encoding": "mapping",
        "key": "t_address",
        "label": "mapping(address => bytes32)",
        "numberOfBytes": "32",
        "value": "t_bytes32"
      },
      "t_mapping(t_address,t_bytes_storage)": {
        "encoding": "mapping",
        "key": "t_address",
        "label": "mapping(address => bytes)",
        "numberOfBytes": "32",
        "value": "t_bytes_storage"
      },
      "t_mapping(t_address,t_mapping(t_uint256,t_struct(MappedToken)10320_storage))": {
        "encoding": "mapping",
        "key": "t_address",
        "label": "mapping(address => mapping(uint256 => struct MappedTokenConsumer.MappedToken))",
        "numberOfBytes": "32",
        "value": "t_mapping(t_uint256,t_struct(MappedToken)10320_storage)"
      },
      "t_mapping(t_address,t_uint256)": {
        "encoding": "mapping",
        "key": "t_address",
        "label": "mapping(address => uint256)",
        "numberOfBytes": "32",
        "value": "t_uint256"
      },
      "t_mapping(t_bytes32,t_struct(AddressSet)4026_storage)": {
        "encoding": "mapping",
        "key": "t_bytes32",
        "label": "mapping(bytes32 => struct EnumerableSet.AddressSet)",
        "numberOfBytes": "32",
        "value": "t_struct(AddressSet)4026_storage"
      },
      "t_mapping(t_bytes32,t_struct(RoleData)19_storage)": {
        "encoding": "mapping",
        "key": "t_bytes32",
        "label": "mapping(bytes32 => struct AccessControl.RoleData)",
        "numberOfBytes": "32",
        "value": "t_struct(RoleData)19_storage"
      },
      "t_mapping(t_bytes32,t_uint256)": {
        "encoding": "mapping",
        "key": "t_bytes32",
        "label": "mapping(bytes32 => uint256)",
        "numberOfBytes": "32",
        "value": "t_uint256"
      },
      "t_mapping(t_uint256,t_mapping(t_address,t_bytes_storage))": {
        "encoding": "mapping",
        "key": "t_uint256",
        "label": "mapping(uint256 => mapping(address => bytes))",
        "numberOfBytes": "32",
        "value": "t_mapping(t_address,t_bytes_storage)"
      },
      "t_mapping(t_uint256,t_mapping(t_uint256,t_struct(Vote)12791_storage))": {
        "encoding": "mapping",
        "key": "t_uint256",
        "label": "mapping(uint256 => mapping(uint256 => struct IsolatedGovernance.Vote))",
        "numberOfBytes": "32",
        "value": "t_mapping(t_uint256,t_struct(Vote)12791_storage)"
      },
      "t_mapping(t_uint256,t_struct(MappedToken)10320_storage)": {
        "encoding": "mapping",
        "key": "t_uint256",
        "label": "mapping(uint256 => struct MappedTokenConsumer.MappedToken)",
        "numberOfBytes": "32",
        "value": "t_struct(MappedToken)10320_storage"
      },
      "t_mapping(t_uint256,t_struct(Receipt)14152_storage)": {
        "encoding": "mapping",
        "key": "t_uint256",
        "label": "mapping(uint256 => struct Transfer.Receipt)",
        "numberOfBytes": "32",
        "value": "t_struct(Receipt)14152_storage"
      },
      "t_mapping(t_uint256,t_struct(Vote)12791_storage)": {
        "encoding": "mapping",
        "key": "t_uint256",
        "label": "mapping(uint256 => struct IsolatedGovernance.Vote)",
        "numberOfBytes": "32",
        "value": "t_struct(Vote)12791_storage"
      },
      "t_struct(AddressSet)4026_storage": {
        "encoding": "inplace",
        "label": "struct EnumerableSet.AddressSet",
        "members": [
          {
            "astId": 4025,
            "contract": "contracts/ronin/gateway/RoninGatewayV2.sol:RoninGatewayV2",
            "label": "_inner",
            "offset": 0,
            "slot": "0",
            "type": "t_struct(Set)3725_storage"
          }
        ],
        "numberOfBytes": "64"
      },
      "t_struct(Info)13475_storage": {
        "encoding": "inplace",
        "label": "struct Token.Info",
        "members": [
          {
            "astId": 13470,
            "contract": "contracts/ronin/gateway/RoninGatewayV2.sol:RoninGatewayV2",
            "label": "erc",
            "offset": 0,
            "slot": "0",
            "type": "t_enum(Standard)13467"
          },
          {
            "astId": 13472,
            "contract": "contracts/ronin/gateway/RoninGatewayV2.sol:RoninGatewayV2",
            "label": "id",
            "offset": 0,
            "slot": "1",
            "type": "t_uint256"
          },
          {
            "astId": 13474,
            "contract": "contracts/ronin/gateway/RoninGatewayV2.sol:RoninGatewayV2",
            "label": "quantity",
            "offset": 0,
            "slot": "2",
            "type": "t_uint256"
          }
        ],
        "numberOfBytes": "96"
      },
      "t_struct(MappedToken)10320_storage": {
        "encoding": "inplace",
        "label": "struct MappedTokenConsumer.MappedToken",
        "members": [
          {
            "astId": 10317,
            "contract": "contracts/ronin/gateway/RoninGatewayV2.sol:RoninGatewayV2",
            "label": "erc",
            "offset": 0,
            "slot": "0",
            "type": "t_enum(Standard)13467"
          },
          {
            "astId": 10319,
            "contract": "contracts/ronin/gateway/RoninGatewayV2.sol:RoninGatewayV2",
            "label": "tokenAddr",
            "offset": 1,
            "slot": "0",
            "type": "t_address"
          }
        ],
        "numberOfBytes": "32"
      },
      "t_struct(Owner)13922_storage": {
        "encoding": "inplace",
        "label": "struct Token.Owner",
        "members": [
          {
            "astId": 13917,
            "contract": "contracts/ronin/gateway/RoninGatewayV2.sol:RoninGatewayV2",
            "label": "addr",
            "offset": 0,
            "slot": "0",
            "type": "t_address"
          },
          {
            "astId": 13919,
            "contract": "contracts/ronin/gateway/RoninGatewayV2.sol:RoninGatewayV2",
            "label": "tokenAddr",
            "offset": 0,
            "slot": "1",
            "type": "t_address"
          },
          {
            "astId": 13921,
            "contract": "contracts/ronin/gateway/RoninGatewayV2.sol:RoninGatewayV2",
            "label": "chainId",
            "offset": 0,
            "slot": "2",
            "type": "t_uint256"
          }
        ],
        "numberOfBytes": "96"
      },
      "t_struct(Receipt)14152_storage": {
        "encoding": "inplace",
        "label": "struct Transfer.Receipt",
        "members": [
          {
            "astId": 14139,
            "contract": "contracts/ronin/gateway/RoninGatewayV2.sol:RoninGatewayV2",
            "label": "id",
            "offset": 0,
            "slot": "0",
            "type": "t_uint256"
          },
          {
            "astId": 14142,
            "contract": "contracts/ronin/gateway/RoninGatewayV2.sol:RoninGatewayV2",
            "label": "kind",
            "offset": 0,
            "slot": "1",
            "type": "t_enum(Kind)13949"
          },
          {
            "astId": 14145,
            "contract": "contracts/ronin/gateway/RoninGatewayV2.sol:RoninGatewayV2",
            "label": "mainchain",
            "offset": 0,
            "slot": "2",
            "type": "t_struct(Owner)13922_storage"
          },
          {
            "astId": 14148,
            "contract": "contracts/ronin/gateway/RoninGatewayV2.sol:RoninGatewayV2",
            "label": "ronin",
            "offset": 0,
            "slot": "5",
            "type": "t_struct(Owner)13922_storage"
          },
          {
            "astId": 14151,
            "contract": "contracts/ronin/gateway/RoninGatewayV2.sol:RoninGatewayV2",
            "label": "info",
            "offset": 0,
            "slot": "8",
            "type": "t_struct(Info)13475_storage"
          }
        ],
        "numberOfBytes": "352"
      },
      "t_struct(RoleData)19_storage": {
        "encoding": "inplace",
        "label": "struct AccessControl.RoleData",
        "members": [
          {
            "astId": 16,
            "contract": "contracts/ronin/gateway/RoninGatewayV2.sol:RoninGatewayV2",
            "label": "members",
            "offset": 0,
            "slot": "0",
            "type": "t_mapping(t_address,t_bool)"
          },
          {
            "astId": 18,
            "contract": "contracts/ronin/gateway/RoninGatewayV2.sol:RoninGatewayV2",
            "label": "adminRole",
            "offset": 0,
            "slot": "1",
            "type": "t_bytes32"
          }
        ],
        "numberOfBytes": "64"
      },
      "t_struct(Set)3725_storage": {
        "encoding": "inplace",
        "label": "struct EnumerableSet.Set",
        "members": [
          {
            "astId": 3720,
            "contract": "contracts/ronin/gateway/RoninGatewayV2.sol:RoninGatewayV2",
            "label": "_values",
            "offset": 0,
            "slot": "0",
            "type": "t_array(t_bytes32)dyn_storage"
          },
          {
            "astId": 3724,
            "contract": "contracts/ronin/gateway/RoninGatewayV2.sol:RoninGatewayV2",
            "label": "_indexes",
            "offset": 0,
            "slot": "1",
            "type": "t_mapping(t_bytes32,t_uint256)"
          }
        ],
        "numberOfBytes": "64"
      },
      "t_struct(Vote)12791_storage": {
        "encoding": "inplace",
        "label": "struct IsolatedGovernance.Vote",
        "members": [
          {
            "astId": 12773,
            "contract": "contracts/ronin/gateway/RoninGatewayV2.sol:RoninGatewayV2",
            "label": "status",
            "offset": 0,
            "slot": "0",
            "type": "t_enum(VoteStatus)10347"
          },
          {
            "astId": 12775,
            "contract": "contracts/ronin/gateway/RoninGatewayV2.sol:RoninGatewayV2",
            "label": "finalHash",
            "offset": 0,
            "slot": "1",
            "type": "t_bytes32"
          },
          {
            "astId": 12780,
            "contract": "contracts/ronin/gateway/RoninGatewayV2.sol:RoninGatewayV2",
            "label": "voteHashOf",
            "offset": 0,
            "slot": "2",
            "type": "t_mapping(t_address,t_bytes32)"
          },
          {
            "astId": 12783,
            "contract": "contracts/ronin/gateway/RoninGatewayV2.sol:RoninGatewayV2",
            "label": "expiredAt",
            "offset": 0,
            "slot": "3",
            "type": "t_uint256"
          },
          {
            "astId": 12786,
            "contract": "contracts/ronin/gateway/RoninGatewayV2.sol:RoninGatewayV2",
            "label": "createdAt",
            "offset": 0,
            "slot": "4",
            "type": "t_uint256"
          },
          {
            "astId": 12790,
            "contract": "contracts/ronin/gateway/RoninGatewayV2.sol:RoninGatewayV2",
            "label": "voters",
            "offset": 0,
            "slot": "5",
            "type": "t_array(t_address)dyn_storage"
          }
        ],
        "numberOfBytes": "192"
      },
      "t_uint256": {
        "encoding": "inplace",
        "label": "uint256",
        "numberOfBytes": "32"
      },
      "t_uint8": {
        "encoding": "inplace",
        "label": "uint8",
        "numberOfBytes": "1"
      }
    }
  }
}