{
  "address": "0x8632bAB71eB2d23F3f8FE49914E2dC33170c7B78",
  "abi": [
    {
      "inputs": [
        {
          "internalType": "TConsensus",
          "name": "addr",
          "type": "address"
        }
      ],
      "name": "ErrConsensusAddressIsAlreadyAdded",
      "type": "error"
    },
    {
      "inputs": [
        {
          "internalType": "TConsensus",
          "name": "addr",
          "type": "address"
        }
      ],
      "name": "ErrConsensusAddressIsNotAdded",
      "type": "error"
    },
    {
      "inputs": [
        {
          "internalType": "enum ContractType",
          "name": "contractType",
          "type": "uint8"
        }
      ],
      "name": "ErrContractTypeNotFound",
      "type": "error"
    },
    {
      "inputs": [
        {
          "internalType": "bytes4",
          "name": "msgSig",
          "type": "bytes4"
        }
      ],
      "name": "ErrDuplicated",
      "type": "error"
    },
    {
      "inputs": [],
      "name": "ErrEmptyArray",
      "type": "error"
    },
    {
      "inputs": [
        {
          "internalType": "address",
          "name": "addr",
          "type": "address"
        }
      ],
      "name": "ErrGovernorAddressIsAlreadyAdded",
      "type": "error"
    },
    {
      "inputs": [],
      "name": "ErrInvalidRequest",
      "type": "error"
    },
    {
      "inputs": [
        {
          "internalType": "bytes4",
          "name": "msgSig",
          "type": "bytes4"
        }
      ],
      "name": "ErrInvalidThreshold",
      "type": "error"
    },
    {
      "inputs": [
        {
          "internalType": "bytes4",
          "name": "msgSig",
          "type": "bytes4"
        }
      ],
      "name": "ErrInvalidVoteWeight",
      "type": "error"
    },
    {
      "inputs": [],
      "name": "ErrQueryForDupplicated",
      "type": "error"
    },
    {
      "inputs": [],
      "name": "ErrQueryForNonExistentConsensusAddress",
      "type": "error"
    },
    {
      "inputs": [
        {
          "internalType": "bytes4",
          "name": "msgSig",
          "type": "bytes4"
        },
        {
          "internalType": "enum RoleAccess",
          "name": "expectedRole",
          "type": "uint8"
        }
      ],
      "name": "ErrUnauthorized",
      "type": "error"
    },
    {
      "inputs": [
        {
          "internalType": "bytes4",
          "name": "msgSig",
          "type": "bytes4"
        },
        {
          "internalType": "enum ContractType",
          "name": "expectedContractType",
          "type": "uint8"
        },
        {
          "internalType": "address",
          "name": "actual",
          "type": "address"
        }
      ],
      "name": "ErrUnexpectedInternalCall",
      "type": "error"
    },
    {
      "inputs": [
        {
          "internalType": "address",
          "name": "addr",
          "type": "address"
        }
      ],
      "name": "ErrZeroCodeContract",
      "type": "error"
    },
    {
      "anonymous": false,
      "inputs": [
        {
          "components": [
            {
              "internalType": "TConsensus",
              "name": "consensusAddr",
              "type": "address"
            },
            {
              "internalType": "address",
              "name": "governor",
              "type": "address"
            },
            {
              "internalType": "address",
              "name": "__deprecatedBridgeVoter",
              "type": "address"
            },
            {
              "internalType": "uint256",
              "name": "weight",
              "type": "uint256"
            },
            {
              "internalType": "uint256",
              "name": "addedBlock",
              "type": "uint256"
            }
          ],
          "indexed": false,
          "internalType": "struct IRoninTrustedOrganization.TrustedOrganization",
          "name": "orgAfterChanged",
          "type": "tuple"
        },
        {
          "indexed": false,
          "internalType": "TConsensus",
          "name": "oldConsensus",
          "type": "address"
        }
      ],
      "name": "ConsensusAddressOfTrustedOrgChanged",
      "type": "event"
    },
    {
      "anonymous": false,
      "inputs": [
        {
          "indexed": true,
          "internalType": "enum ContractType",
          "name": "contractType",
          "type": "uint8"
        },
        {
          "indexed": true,
          "internalType": "address",
          "name": "addr",
          "type": "address"
        }
      ],
      "name": "ContractUpdated",
      "type": "event"
    },
    {
      "anonymous": false,
      "inputs": [
        {
          "indexed": false,
          "internalType": "uint8",
          "name": "version",
          "type": "uint8"
        }
      ],
      "name": "Initialized",
      "type": "event"
    },
    {
      "anonymous": false,
      "inputs": [
        {
          "indexed": true,
          "internalType": "uint256",
          "name": "nonce",
          "type": "uint256"
        },
        {
          "indexed": true,
          "internalType": "uint256",
          "name": "numerator",
          "type": "uint256"
        },
        {
          "indexed": true,
          "internalType": "uint256",
          "name": "denominator",
          "type": "uint256"
        },
        {
          "indexed": false,
          "internalType": "uint256",
          "name": "previousNumerator",
          "type": "uint256"
        },
        {
          "indexed": false,
          "internalType": "uint256",
          "name": "previousDenominator",
          "type": "uint256"
        }
      ],
      "name": "ThresholdUpdated",
      "type": "event"
    },
    {
      "anonymous": false,
      "inputs": [
        {
          "components": [
            {
              "internalType": "TConsensus",
              "name": "consensusAddr",
              "type": "address"
            },
            {
              "internalType": "address",
              "name": "governor",
              "type": "address"
            },
            {
              "internalType": "address",
              "name": "__deprecatedBridgeVoter",
              "type": "address"
            },
            {
              "internalType": "uint256",
              "name": "weight",
              "type": "uint256"
            },
            {
              "internalType": "uint256",
              "name": "addedBlock",
              "type": "uint256"
            }
          ],
          "indexed": false,
          "internalType": "struct IRoninTrustedOrganization.TrustedOrganization[]",
          "name": "orgs",
          "type": "tuple[]"
        }
      ],
      "name": "TrustedOrganizationsAdded",
      "type": "event"
    },
    {
      "anonymous": false,
      "inputs": [
        {
          "indexed": false,
          "internalType": "TConsensus[]",
          "name": "orgs",
          "type": "address[]"
        }
      ],
      "name": "TrustedOrganizationsRemoved",
      "type": "event"
    },
    {
      "anonymous": false,
      "inputs": [
        {
          "components": [
            {
              "internalType": "TConsensus",
              "name": "consensusAddr",
              "type": "address"
            },
            {
              "internalType": "address",
              "name": "governor",
              "type": "address"
            },
            {
              "internalType": "address",
              "name": "__deprecatedBridgeVoter",
              "type": "address"
            },
            {
              "internalType": "uint256",
              "name": "weight",
              "type": "uint256"
            },
            {
              "internalType": "uint256",
              "name": "addedBlock",
              "type": "uint256"
            }
          ],
          "indexed": false,
          "internalType": "struct IRoninTrustedOrganization.TrustedOrganization[]",
          "name": "orgs",
          "type": "tuple[]"
        }
      ],
      "name": "TrustedOrganizationsUpdated",
      "type": "event"
    },
    {
      "inputs": [
        {
          "components": [
            {
              "internalType": "TConsensus",
              "name": "consensusAddr",
              "type": "address"
            },
            {
              "internalType": "address",
              "name": "governor",
              "type": "address"
            },
            {
              "internalType": "address",
              "name": "__deprecatedBridgeVoter",
              "type": "address"
            },
            {
              "internalType": "uint256",
              "name": "weight",
              "type": "uint256"
            },
            {
              "internalType": "uint256",
              "name": "addedBlock",
              "type": "uint256"
            }
          ],
          "internalType": "struct IRoninTrustedOrganization.TrustedOrganization[]",
          "name": "_list",
          "type": "tuple[]"
        }
      ],
      "name": "addTrustedOrganizations",
      "outputs": [],
      "stateMutability": "nonpayable",
      "type": "function"
    },
    {
      "inputs": [
        {
          "internalType": "uint256",
          "name": "_voteWeight",
          "type": "uint256"
        }
      ],
      "name": "checkThreshold",
      "outputs": [
        {
          "internalType": "bool",
          "name": "",
          "type": "bool"
        }
      ],
      "stateMutability": "view",
      "type": "function"
    },
    {
      "inputs": [],
      "name": "countTrustedOrganization",
      "outputs": [
        {
          "internalType": "uint256",
          "name": "",
          "type": "uint256"
        }
      ],
      "stateMutability": "view",
      "type": "function"
    },
    {
      "inputs": [
        {
          "internalType": "TConsensus",
          "name": "oldAddr",
          "type": "address"
        },
        {
          "internalType": "TConsensus",
          "name": "newAddr",
          "type": "address"
        }
      ],
      "name": "execChangeConsensusAddressForTrustedOrg",
      "outputs": [],
      "stateMutability": "nonpayable",
      "type": "function"
    },
    {
      "inputs": [],
      "name": "getAllTrustedOrganizations",
      "outputs": [
        {
          "components": [
            {
              "internalType": "TConsensus",
              "name": "consensusAddr",
              "type": "address"
            },
            {
              "internalType": "address",
              "name": "governor",
              "type": "address"
            },
            {
              "internalType": "address",
              "name": "__deprecatedBridgeVoter",
              "type": "address"
            },
            {
              "internalType": "uint256",
              "name": "weight",
              "type": "uint256"
            },
            {
              "internalType": "uint256",
              "name": "addedBlock",
              "type": "uint256"
            }
          ],
          "internalType": "struct IRoninTrustedOrganization.TrustedOrganization[]",
          "name": "list",
          "type": "tuple[]"
        }
      ],
      "stateMutability": "view",
      "type": "function"
    },
    {
      "inputs": [
        {
          "internalType": "TConsensus",
          "name": "consensusAddr",
          "type": "address"
        }
      ],
      "name": "getConsensusWeight",
      "outputs": [
        {
          "internalType": "uint256",
          "name": "",
          "type": "uint256"
        }
      ],
      "stateMutability": "view",
      "type": "function"
    },
    {
      "inputs": [
        {
          "internalType": "address",
          "name": "cid",
          "type": "address"
        }
      ],
      "name": "getConsensusWeightById",
      "outputs": [
        {
          "internalType": "uint256",
          "name": "",
          "type": "uint256"
        }
      ],
      "stateMutability": "view",
      "type": "function"
    },
    {
      "inputs": [
        {
          "internalType": "TConsensus[]",
          "name": "list",
          "type": "address[]"
        }
      ],
      "name": "getConsensusWeights",
      "outputs": [
        {
          "internalType": "uint256[]",
          "name": "",
          "type": "uint256[]"
        }
      ],
      "stateMutability": "view",
      "type": "function"
    },
    {
      "inputs": [
        {
          "internalType": "address[]",
          "name": "cids",
          "type": "address[]"
        }
      ],
      "name": "getConsensusWeightsById",
      "outputs": [
        {
          "internalType": "uint256[]",
          "name": "",
          "type": "uint256[]"
        }
      ],
      "stateMutability": "view",
      "type": "function"
    },
    {
      "inputs": [
        {
          "internalType": "enum ContractType",
          "name": "contractType",
          "type": "uint8"
        }
      ],
      "name": "getContract",
      "outputs": [
        {
          "internalType": "address",
          "name": "contract_",
          "type": "address"
        }
      ],
      "stateMutability": "view",
      "type": "function"
    },
    {
      "inputs": [
        {
          "internalType": "address",
          "name": "_governor",
          "type": "address"
        }
      ],
      "name": "getGovernorWeight",
      "outputs": [
        {
          "internalType": "uint256",
          "name": "",
          "type": "uint256"
        }
      ],
      "stateMutability": "view",
      "type": "function"
    },
    {
      "inputs": [
        {
          "internalType": "address[]",
          "name": "_list",
          "type": "address[]"
        }
      ],
      "name": "getGovernorWeights",
      "outputs": [
        {
          "internalType": "uint256[]",
          "name": "_res",
          "type": "uint256[]"
        }
      ],
      "stateMutability": "view",
      "type": "function"
    },
    {
      "inputs": [],
      "name": "getThreshold",
      "outputs": [
        {
          "internalType": "uint256",
          "name": "num_",
          "type": "uint256"
        },
        {
          "internalType": "uint256",
          "name": "denom_",
          "type": "uint256"
        }
      ],
      "stateMutability": "view",
      "type": "function"
    },
    {
      "inputs": [
        {
          "internalType": "TConsensus",
          "name": "_consensusAddr",
          "type": "address"
        }
      ],
      "name": "getTrustedOrganization",
      "outputs": [
        {
          "components": [
            {
              "internalType": "TConsensus",
              "name": "consensusAddr",
              "type": "address"
            },
            {
              "internalType": "address",
              "name": "governor",
              "type": "address"
            },
            {
              "internalType": "address",
              "name": "__deprecatedBridgeVoter",
              "type": "address"
            },
            {
              "internalType": "uint256",
              "name": "weight",
              "type": "uint256"
            },
            {
              "internalType": "uint256",
              "name": "addedBlock",
              "type": "uint256"
            }
          ],
          "internalType": "struct IRoninTrustedOrganization.TrustedOrganization",
          "name": "",
          "type": "tuple"
        }
      ],
      "stateMutability": "view",
      "type": "function"
    },
    {
      "inputs": [
        {
          "internalType": "uint256",
          "name": "_idx",
          "type": "uint256"
        }
      ],
      "name": "getTrustedOrganizationAt",
      "outputs": [
        {
          "components": [
            {
              "internalType": "TConsensus",
              "name": "consensusAddr",
              "type": "address"
            },
            {
              "internalType": "address",
              "name": "governor",
              "type": "address"
            },
            {
              "internalType": "address",
              "name": "__deprecatedBridgeVoter",
              "type": "address"
            },
            {
              "internalType": "uint256",
              "name": "weight",
              "type": "uint256"
            },
            {
              "internalType": "uint256",
              "name": "addedBlock",
              "type": "uint256"
            }
          ],
          "internalType": "struct IRoninTrustedOrganization.TrustedOrganization",
          "name": "",
          "type": "tuple"
        }
      ],
      "stateMutability": "view",
      "type": "function"
    },
    {
      "inputs": [
        {
          "components": [
            {
              "internalType": "TConsensus",
              "name": "consensusAddr",
              "type": "address"
            },
            {
              "internalType": "address",
              "name": "governor",
              "type": "address"
            },
            {
              "internalType": "address",
              "name": "__deprecatedBridgeVoter",
              "type": "address"
            },
            {
              "internalType": "uint256",
              "name": "weight",
              "type": "uint256"
            },
            {
              "internalType": "uint256",
              "name": "addedBlock",
              "type": "uint256"
            }
          ],
          "internalType": "struct IRoninTrustedOrganization.TrustedOrganization[]",
          "name": "trustedOrgs",
          "type": "tuple[]"
        },
        {
          "internalType": "uint256",
          "name": "num",
          "type": "uint256"
        },
        {
          "internalType": "uint256",
          "name": "denom",
          "type": "uint256"
        }
      ],
      "name": "initialize",
      "outputs": [],
      "stateMutability": "nonpayable",
      "type": "function"
    },
    {
      "inputs": [
        {
          "internalType": "address",
          "name": "profileContract",
          "type": "address"
        }
      ],
      "name": "initializeV2",
      "outputs": [],
      "stateMutability": "nonpayable",
      "type": "function"
    },
    {
      "inputs": [],
      "name": "minimumVoteWeight",
      "outputs": [
        {
          "internalType": "uint256",
          "name": "",
          "type": "uint256"
        }
      ],
      "stateMutability": "view",
      "type": "function"
    },
    {
      "inputs": [
        {
          "internalType": "TConsensus[]",
          "name": "list",
          "type": "address[]"
        }
      ],
      "name": "removeTrustedOrganizations",
      "outputs": [],
      "stateMutability": "nonpayable",
      "type": "function"
    },
    {
      "inputs": [
        {
          "internalType": "enum ContractType",
          "name": "contractType",
          "type": "uint8"
        },
        {
          "internalType": "address",
          "name": "addr",
          "type": "address"
        }
      ],
      "name": "setContract",
      "outputs": [],
      "stateMutability": "nonpayable",
      "type": "function"
    },
    {
      "inputs": [
        {
          "internalType": "uint256",
          "name": "_numerator",
          "type": "uint256"
        },
        {
          "internalType": "uint256",
          "name": "_denominator",
          "type": "uint256"
        }
      ],
      "name": "setThreshold",
      "outputs": [
        {
          "internalType": "uint256",
          "name": "",
          "type": "uint256"
        },
        {
          "internalType": "uint256",
          "name": "",
          "type": "uint256"
        }
      ],
      "stateMutability": "nonpayable",
      "type": "function"
    },
    {
      "inputs": [
        {
          "internalType": "TConsensus[]",
          "name": "_list",
          "type": "address[]"
        }
      ],
      "name": "sumConsensusWeight",
      "outputs": [
        {
          "internalType": "uint256",
          "name": "_res",
          "type": "uint256"
        }
      ],
      "stateMutability": "view",
      "type": "function"
    },
    {
      "inputs": [
        {
          "internalType": "address[]",
          "name": "_list",
          "type": "address[]"
        }
      ],
      "name": "sumGovernorWeight",
      "outputs": [
        {
          "internalType": "uint256",
          "name": "_res",
          "type": "uint256"
        }
      ],
      "stateMutability": "view",
      "type": "function"
    },
    {
      "inputs": [],
      "name": "totalWeight",
      "outputs": [
        {
          "internalType": "uint256",
          "name": "",
          "type": "uint256"
        }
      ],
      "stateMutability": "view",
      "type": "function"
    },
    {
      "inputs": [
        {
          "components": [
            {
              "internalType": "TConsensus",
              "name": "consensusAddr",
              "type": "address"
            },
            {
              "internalType": "address",
              "name": "governor",
              "type": "address"
            },
            {
              "internalType": "address",
              "name": "__deprecatedBridgeVoter",
              "type": "address"
            },
            {
              "internalType": "uint256",
              "name": "weight",
              "type": "uint256"
            },
            {
              "internalType": "uint256",
              "name": "addedBlock",
              "type": "uint256"
            }
          ],
          "internalType": "struct IRoninTrustedOrganization.TrustedOrganization[]",
          "name": "_list",
          "type": "tuple[]"
        }
      ],
      "name": "updateTrustedOrganizations",
      "outputs": [],
      "stateMutability": "nonpayable",
      "type": "function"
    }
  ],
  "transactionHash": "0x65cd3feeb7c9e283108736051d95b78a4ed80c44cce1048e1587ea2f1f54a190",
  "args": [],
  "numDeployments": 7,
  "solcInputHash": "f5939ebe47e4086c92eac99ab2681ceb",
  "bytecode": "0x608060405234801561001057600080fd5b50612471806100206000396000f3fe608060405234801561001057600080fd5b50600436106101735760003560e01c8063a0c302a7116100de578063cc7e6b3b11610097578063db6693a211610071578063db6693a214610349578063de981f1b14610369578063e75235b814610394578063f09267c21461039f57600080fd5b8063cc7e6b3b146102ea578063d78392f8146102fd578063dafae4081461032657600080fd5b8063a0c302a71461026e578063a85c7d6e14610281578063b505a07c14610294578063b7f67e97146102a7578063b8cc3a50146102af578063b9c36209146102c257600080fd5b8063691845a911610130578063691845a9146102125780637c37103c146102255780637de5dedd14610238578063865e6fd314610240578063903bb3c51461025357806396c82e571461026657600080fd5b80630ed285df14610178578063150740051461018d57806329b6eca9146101ab5780632cccb53c146101be57806341feed1c146101de578063520fce62146101ff575b600080fd5b61018b610186366004611b8d565b6103b2565b005b6101956103c8565b6040516101a29190611c0b565b60405180910390f35b61018b6101b9366004611c6e565b610584565b6101d16101cc366004611ccf565b610696565b6040516101a29190611d04565b6101f16101ec366004611c6e565b6106eb565b6040519081526020016101a2565b6101d161020d366004611ccf565b610709565b6101f1610220366004611ccf565b61074e565b61018b610233366004611d3c565b6107ba565b6101f161089c565b61018b61024e366004611d9b565b6108d9565b6101f1610261366004611ccf565b6108f4565b6003546101f1565b61018b61027c366004611dd2565b610959565b61018b61028f366004611ccf565b610a29565b61018b6102a2366004611b8d565b610ac7565b6009546101f1565b6101f16102bd366004611c6e565b610b66565b6102d56102d0366004611df0565b610b8f565b604080519283526020830191909152016101a2565b6101d16102f8366004611ccf565b610bb0565b6101f161030b366004611c6e565b6001600160a01b031660009081526006602052604090205490565b610339610334366004611e12565b610c73565b60405190151581526020016101a2565b61035c610357366004611c6e565b610c9a565b6040516101a29190611e2b565b61037c610377366004611e39565b610d3b565b6040516001600160a01b0390911681526020016101a2565b6001546002546102d5565b61035c6103ad366004611e12565b610db6565b6103ba610e95565b6103c48282610ef1565b5050565b6009546060906001600160401b038111156103e5576103e5611e54565b60405190808252806020026020018201604052801561043e57816020015b6040805160a0810182526000808252602080830182905292820181905260608201819052608082015282526000199092019101816104035790505b5090506000805b825181101561057f576009818154811061046157610461611e6a565b9060005260206000200160009054906101000a90046001600160a01b031691508183828151811061049457610494611e6a565b60209081029190910101516001600160a01b039091169052600a8054829081106104c0576104c0611e6a565b9060005260206000200160009054906101000a90046001600160a01b03168382815181106104f0576104f0611e6a565b6020026020010151602001906001600160a01b031690816001600160a01b031681525050600083828151811061052857610528611e6a565b6020908102919091018101516001600160a01b03928316604091820152918416600090815260059091522054835184908390811061056857610568611e6a565b602090810291909101015160600152600101610445565b505090565b600054600290610100900460ff161580156105a6575060005460ff8083169116105b6105cb5760405162461bcd60e51b81526004016105c290611e80565b60405180910390fd5b6000805461ffff191660ff8316176101001790556105ea600f83610f66565b60005b600b548110156106435760076000600b838154811061060e5761060e611e6a565b60009182526020808320909101546001600160a01b0316835282019290925260400181205561063c81611ee4565b90506105ed565b50610650600b6000611b17565b6000805461ff001916905560405160ff821681527f7f26b83ff96e1f2b6a682f133852f6798a09c465da95921460cefb3847402498906020015b60405180910390a15050565b606060006106d684848080602002602001604051908101604052809392919081815260200183836020028082843760009201919091525061100a92505050565b90506106e181611086565b9150505b92915050565b6001600160a01b0381166000908152600560205260408120546106e5565b606061074783838080602002602001604051908101604052809392919081815260200183836020028082843760009201919091525061108692505050565b9392505050565b6000805b828110156107b3576005600085858481811061077057610770611e6a565b90506020020160208101906107859190611c6e565b6001600160a01b031681526020810191909152604001600020546107a99083611efd565b9150600101610752565b5092915050565b600054610100900460ff16158080156107da5750600054600160ff909116105b806107f45750303b1580156107f4575060005460ff166001145b6108105760405162461bcd60e51b81526004016105c290611e80565b6000805460ff191660011790558015610833576000805461ff0019166101001790555b8315610843576108438585610ef1565b61084d8383611144565b50508015610895576000805461ff0019169055604051600181527f7f26b83ff96e1f2b6a682f133852f6798a09c465da95921460cefb38474024989060200160405180910390a15b5050505050565b600060025460016002546003546001546108b69190611f10565b6108c09190611efd565b6108ca9190611f27565b6108d49190611f3a565b905090565b6108e1610e95565b6108ea816111da565b6103c48282610f66565b6000805b828110156107b3576006600085858481811061091657610916611e6a565b905060200201602081019061092b9190611c6e565b6001600160a01b0316815260208101919091526040016000205461094f9083611efd565b91506001016108f8565b600f61096481611213565b600061096f8461125f565b9050826009828154811061098557610985611e6a565b600091825260208083209190910180546001600160a01b0319166001600160a01b03948516179055868316808352600580835260408085208054968a1686528186209690965560088452808520439055918452908320839055905290557faf495cd00cf8595e5fc29a082a18b71cad844d97ab40237b7405693a910c50a2610a0c82610db6565b85604051610a1b929190611f5c565b60405180910390a150505050565b610a31610e95565b6000819003610a53576040516316ee9d3b60e11b815260040160405180910390fd5b60005b81811015610a9557610a8d838383818110610a7357610a73611e6a565b9050602002016020810190610a889190611c6e565b6112c7565b600101610a56565b507f121945697ac30ee0fc67821492cb685c65f0ea4d7f1b710fde44d6e2237f43a7828260405161068a929190611f82565b610acf610e95565b6000819003610af1576040516316ee9d3b60e11b815260040160405180910390fd5b60005b81811015610b3457610b2c838383818110610b1157610b11611e6a565b905060a00201803603810190610b279190612028565b6114f5565b600101610af4565b507fe887c8106c09d1770c0ef0bf8ca62c54766f18b07506801865501783376cbeda828260405161068a9291906120af565b60006106e5610b748361170e565b6001600160a01b031660009081526005602052604090205490565b600080610b9a610e95565b610ba48484611144565b915091505b9250929050565b6060816001600160401b03811115610bca57610bca611e54565b604051908082528060200260200182016040528015610bf3578160200160208202803683370190505b50905060005b81518110156107b35760066000858584818110610c1857610c18611e6a565b9050602002016020810190610c2d9190611c6e565b6001600160a01b03166001600160a01b0316815260200190815260200160002054828281518110610c6057610c60611e6a565b6020908102919091010152600101610bf9565b6000600354600154610c859190611f10565b600254610c929084611f10565b101592915050565b6040805160a0810182526000808252602082018190529181018290526060810182905260808101829052905b600954811015610d2157610d0360098281548110610ce657610ce6611e6a565b6000918252602090912001546001600160a01b0385811691161490565b15610d115761074781610db6565b610d1a81611ee4565b9050610cc6565b5060405163e57fdbef60e01b815260040160405180910390fd5b60007fdea3103d22025c269050bea94c0c84688877f12fa22b7e6d2d5d78a9a49aa1cb600083600f811115610d7257610d72612140565b60ff1681526020810191909152604001600020546001600160a01b0316905080610db1578160405163409140df60e11b81526004016105c2919061216a565b919050565b6040805160a081018252600080825260208201819052918101829052606081018290526080810191909152600060098381548110610df657610df6611e6a565b9060005260206000200160009054906101000a90046001600160a01b031690506040518060a00160405280826001600160a01b03168152602001600a8581548110610e4357610e43611e6a565b60009182526020808320909101546001600160a01b0390811684528382018390529490941680825260058552604080832054818501529082526008909452929092205460609092019190915292915050565b7fb53127684a568b3173ae13b9f8a6016e243e63b6e8ee1178d6a717850b5d6103546001600160a01b03163314610eef576000356001600160e01b0319166001604051620f948f60ea1b81526004016105c2929190612178565b565b60005b81811015610f3457610f2c838383818110610f1157610f11611e6a565b905060a00201803603810190610f279190612028565b611794565b600101610ef4565b507fc753dbf7952c70ff6b9fa7b626403aa1d2230d97136b635bd5e85bec72bcca6c828260405161068a9291906120af565b807fdea3103d22025c269050bea94c0c84688877f12fa22b7e6d2d5d78a9a49aa1cb600084600f811115610f9c57610f9c612140565b60ff168152602081019190915260400160002080546001600160a01b0319166001600160a01b03928316179055811682600f811115610fdd57610fdd612140565b6040517f865d1c228a8ea13709cfe61f346f7ff67f1bbd4a18ff31ad3e7147350d317c5990600090a35050565b6060611016600f610d3b565b6001600160a01b031663b261596f836040518263ffffffff1660e01b815260040161104191906121a6565b600060405180830381865afa15801561105e573d6000803e3d6000fd5b505050506040513d6000823e601f3d908101601f191682016040526106e591908101906121f2565b606081516001600160401b038111156110a1576110a1611e54565b6040519080825280602002602001820160405280156110ca578160200160208202803683370190505b50905060005b815181101561113e576111118382815181106110ee576110ee611e6a565b60200260200101516001600160a01b031660009081526005602052604090205490565b82828151811061112357611123611e6a565b602090810291909101015261113781611ee4565b90506110d0565b50919050565b60008082841115611176576040516387f6f09560e01b81526001600160e01b03196000351660048201526024016105c2565b50506001805460028054858455908490556004805493840190556040805183815260208101839052929391928592879290917f976f8a9c5bdf8248dec172376d6e2b80a8e3df2f0328e381c6db8e1cf138c0f8910160405180910390a49250929050565b806001600160a01b03163b60000361121057604051630bfc64a360e21b81526001600160a01b03821660048201526024016105c2565b50565b61121c81610d3b565b6001600160a01b0316336001600160a01b031614611210576000356001600160e01b03191681336040516320e0f98d60e21b81526004016105c2939291906122a3565b600954600090815b818110156112c0576112a26009828154811061128557611285611e6a565b6000918252602090912001546001600160a01b0386811691161490565b156112ae579392505050565b806112b881611ee4565b915050611267565b5050919050565b6001600160a01b0381166000908152600560205260408120549081900361130c576040516349f748eb60e01b81526001600160a01b03831660048201526024016105c2565b60006113178361125f565b9050816003600082825461132b9190611f27565b90915550506001600160a01b038316600090815260086020908152604080832083905560059091528120556009805490611366600183611f27565b8154811061137657611376611e6a565b600091825260209091200154600980546001600160a01b0390921691849081106113a2576113a2611e6a565b9060005260206000200160006101000a8154816001600160a01b0302191690836001600160a01b0316021790555060098054806113e1576113e16122da565b6001900381819060005260206000200160006101000a8154906001600160a01b030219169055905560066000600a848154811061142057611420611e6a565b60009182526020808320909101546001600160a01b03168352820192909252604001812055600a611452600183611f27565b8154811061146257611462611e6a565b600091825260209091200154600a80546001600160a01b03909216918490811061148e5761148e611e6a565b9060005260206000200160006101000a8154816001600160a01b0302191690836001600160a01b03160217905550600a8054806114cd576114cd6122da565b600082815260209020810160001990810180546001600160a01b031916905501905550505050565b6114fe81611945565b80516001600160a01b0316600090815260056020526040812054908190036115475781516040516349f748eb60e01b81526001600160a01b0390911660048201526024016105c2565b60095460005b818110156117085761158a6009828154811061156b5761156b611e6a565b60009182526020909120015485516001600160a01b0390811691161490565b156117005782600360008282546115a19190611f27565b90915550506060840151600380546000906115bd908490611efd565b9250508190555083602001516001600160a01b0316600a82815481106115e5576115e5611e6a565b6000918252602090912001546001600160a01b0316146116c0576020808501516001600160a01b03166000908152600690915260409020541561163b576040516346da180960e01b815260040160405180910390fd5b60066000600a838154811061165257611652611e6a565b60009182526020808320909101546001600160a01b03168352828101939093526040909101812055840151600a80548390811061169157611691611e6a565b9060005260206000200160006101000a8154816001600160a01b0302191690836001600160a01b031602179055505b50505060608101805182516001600160a01b0390811660009081526005602090815260408083209490945593519484015190911681526006909252902055565b60010161154d565b50505050565b600061171a600f610d3b565b6040516303d1982560e61b81526001600160a01b038481166004830152919091169063f466094090602401600060405180830381865afa158015611762573d6000803e3d6000fd5b505050506040513d6000823e601f3d908101601f1916820160405261178a9190810190612374565b6020015192915050565b6080810151156117b75760405163129c2ce160e31b815260040160405180910390fd5b6117c081611945565b80516001600160a01b03166000908152600560205260409020541561180657805160405163ada9a35360e01b81526001600160a01b0390911660048201526024016105c2565b6020808201516001600160a01b031660009081526006909152604090205415611853576020810151604051637f5e2f5960e11b81526001600160a01b0390911660048201526024016105c2565b8051600980546001808201835560009283527f6e1540171b6c0c960b71a7020d9f60077f6af931a8bbf590da0223dacf75c7af90910180546001600160a01b03199081166001600160a01b0395861617909155606085018051865186168552600560209081526040808720929092558088018051600a8054978801815588527fc65a7bb8d6351c1cf70c95a316cc6a92839c986682d98bc35f958f4883f9d2a890960180549095169588169590951790935581519351861685526006835280852093909355855190941683526008905281204390559051600380549192909161193d908490611efd565b909155505050565b806060015160000361197857604051637f11b8a360e11b81526001600160e01b03196000351660048201526024016105c2565b60408051600380825260808201909252600091602082016060803683370190505090508160000151816000815181106119b3576119b3611e6a565b60200260200101906001600160a01b031690816001600160a01b0316815250508160200151816001815181106119eb576119eb611e6a565b60200260200101906001600160a01b031690816001600160a01b031681525050816040015181600281518110611a2357611a23611e6a565b60200260200101906001600160a01b031690816001600160a01b031681525050611a4c81611a78565b156103c457604051630d697db160e11b81526001600160e01b03196000351660048201526024016105c2565b60008151600003611a8b57506000919050565b60005b6001835103811015611b0e57600181015b8351811015611b0557838181518110611aba57611aba611e6a565b60200260200101516001600160a01b0316848381518110611add57611add611e6a565b60200260200101516001600160a01b031603611afd575060019392505050565b600101611a9f565b50600101611a8e565b50600092915050565b508054600082559060005260206000209081019061121091905b80821115611b455760008155600101611b31565b5090565b60008083601f840112611b5b57600080fd5b5081356001600160401b03811115611b7257600080fd5b60208301915083602060a083028501011115610ba957600080fd5b60008060208385031215611ba057600080fd5b82356001600160401b03811115611bb657600080fd5b611bc285828601611b49565b90969095509350505050565b80516001600160a01b0390811683526020808301518216908401526040808301519091169083015260608082015190830152608090810151910152565b6020808252825182820181905260009190848201906040850190845b81811015611c4d57611c3a838551611bce565b9284019260a09290920191600101611c27565b50909695505050505050565b6001600160a01b038116811461121057600080fd5b600060208284031215611c8057600080fd5b813561074781611c59565b60008083601f840112611c9d57600080fd5b5081356001600160401b03811115611cb457600080fd5b6020830191508360208260051b8501011115610ba957600080fd5b60008060208385031215611ce257600080fd5b82356001600160401b03811115611cf857600080fd5b611bc285828601611c8b565b6020808252825182820181905260009190848201906040850190845b81811015611c4d57835183529284019291840191600101611d20565b60008060008060608587031215611d5257600080fd5b84356001600160401b03811115611d6857600080fd5b611d7487828801611b49565b90989097506020870135966040013595509350505050565b803560108110610db157600080fd5b60008060408385031215611dae57600080fd5b611db783611d8c565b91506020830135611dc781611c59565b809150509250929050565b60008060408385031215611de557600080fd5b8235611db781611c59565b60008060408385031215611e0357600080fd5b50508035926020909101359150565b600060208284031215611e2457600080fd5b5035919050565b60a081016106e58284611bce565b600060208284031215611e4b57600080fd5b61074782611d8c565b634e487b7160e01b600052604160045260246000fd5b634e487b7160e01b600052603260045260246000fd5b6020808252602e908201527f496e697469616c697a61626c653a20636f6e747261637420697320616c72656160408201526d191e481a5b9a5d1a585b1a5e995960921b606082015260800190565b634e487b7160e01b600052601160045260246000fd5b600060018201611ef657611ef6611ece565b5060010190565b808201808211156106e5576106e5611ece565b80820281158282048414176106e5576106e5611ece565b818103818111156106e5576106e5611ece565b600082611f5757634e487b7160e01b600052601260045260246000fd5b500490565b60c08101611f6a8285611bce565b6001600160a01b039290921660a09190910152919050565b60208082528181018390526000908460408401835b86811015611fc5578235611faa81611c59565b6001600160a01b031682529183019190830190600101611f97565b509695505050505050565b60405160c081016001600160401b0381118282101715611ff257611ff2611e54565b60405290565b604051601f8201601f191681016001600160401b038111828210171561202057612020611e54565b604052919050565b600060a0828403121561203a57600080fd5b60405160a081018181106001600160401b038211171561205c5761205c611e54565b604052823561206a81611c59565b8152602083013561207a81611c59565b6020820152604083013561208d81611c59565b6040820152606083810135908201526080928301359281019290925250919050565b6020808252818101839052600090604080840186845b878110156121335781356120d881611c59565b6001600160a01b03908116845282860135906120f382611c59565b90811684870152828501359061210882611c59565b1683850152606082810135908401526080808301359084015260a092830192909101906001016120c5565b5090979650505050505050565b634e487b7160e01b600052602160045260246000fd5b6010811061216657612166612140565b9052565b602081016106e58284612156565b6001600160e01b03198316815260408101600b831061219957612199612140565b8260208301529392505050565b6020808252825182820181905260009190848201906040850190845b81811015611c4d5783516001600160a01b0316835292840192918401916001016121c2565b8051610db181611c59565b6000602080838503121561220557600080fd5b82516001600160401b038082111561221c57600080fd5b818501915085601f83011261223057600080fd5b81518181111561224257612242611e54565b8060051b9150612253848301611ff8565b818152918301840191848101908884111561226d57600080fd5b938501935b83851015612297578451925061228783611c59565b8282529385019390850190612272565b98975050505050505050565b6001600160e01b031984168152606081016122c16020830185612156565b6001600160a01b03929092166040919091015292915050565b634e487b7160e01b600052603160045260246000fd5b600082601f83011261230157600080fd5b81516001600160401b0381111561231a5761231a611e54565b602061232e601f8301601f19168201611ff8565b828152858284870101111561234257600080fd5b60005b83811015612360578581018301518282018401528201612345565b506000928101909101919091529392505050565b60006020828403121561238657600080fd5b81516001600160401b038082111561239d57600080fd5b9083019060c082860312156123b157600080fd5b6123b9611fd0565b82516123c481611c59565b815260208301516123d481611c59565b602082015260408301516123e781611c59565b60408201526123f8606084016121e7565b6060820152612409608084016121e7565b608082015260a08301518281111561242057600080fd5b61242c878286016122f0565b60a0830152509594505050505056fea26469706673582212206d2b21c3330e8dd570a3e1f28604df1654a7715ea24a32adbd252de98c97f87564736f6c63430008130033",
  "devdoc": {
    "errors": {
      "ErrConsensusAddressIsAlreadyAdded(address)": [
        {
          "details": "Error indicating that a consensus address is already added.",
          "params": {
            "addr": "The address of the consensus contract that is already added."
          }
        }
      ],
      "ErrConsensusAddressIsNotAdded(address)": [
        {
          "details": "Error indicating that a consensus address is not added.",
          "params": {
            "addr": "The address of the consensus contract that is not added."
          }
        }
      ],
      "ErrContractTypeNotFound(uint8)": [
        {
          "details": "Error of invalid role."
        }
      ],
      "ErrDuplicated(bytes4)": [
        {
          "details": "Error thrown when a duplicated element is detected in an array.",
          "params": {
            "msgSig": "The function signature that invoke the error."
          }
        }
      ],
      "ErrEmptyArray()": [
        {
          "details": "Error indicating that an array is empty when it should contain elements."
        }
      ],
      "ErrGovernorAddressIsAlreadyAdded(address)": [
        {
          "details": "Error indicating that a governor address has already been added.",
          "params": {
            "addr": "The address of the governor that is already added."
          }
        }
      ],
      "ErrInvalidRequest()": [
        {
          "details": "Error indicating that a request is invalid."
        }
      ],
      "ErrInvalidThreshold(bytes4)": [
        {
          "details": "Error indicating that the provided threshold is invalid for a specific function signature.",
          "params": {
            "msgSig": "The function signature (bytes4) that the invalid threshold applies to."
          }
        }
      ],
      "ErrInvalidVoteWeight(bytes4)": [
        {
          "details": "Error indicating that a vote weight is invalid for a specific function signature.",
          "params": {
            "msgSig": "The function signature (bytes4) that encountered an invalid vote weight."
          }
        }
      ],
      "ErrQueryForDupplicated()": [
        {
          "details": "Error indicating that a query for a duplicate entry was made."
        }
      ],
      "ErrQueryForNonExistentConsensusAddress()": [
        {
          "details": "Error indicating that a query was made for a non-existent consensus address."
        }
      ],
      "ErrUnauthorized(bytes4,uint8)": [
        {
          "details": "Error indicating that the caller is unauthorized to perform a specific function.",
          "params": {
            "expectedRole": "The role required to perform the function.",
            "msgSig": "The function signature (bytes4) that the caller is unauthorized to perform."
          }
        }
      ],
      "ErrUnexpectedInternalCall(bytes4,uint8,address)": [
        {
          "details": "Error indicating that the caller is unauthorized to perform a specific function.",
          "params": {
            "actual": "The actual address that called to the function.",
            "expectedContractType": "The contract type required to perform the function.",
            "msgSig": "The function signature (bytes4)."
          }
        }
      ],
      "ErrZeroCodeContract(address)": [
        {
          "details": "Error of set to non-contract."
        }
      ]
    },
    "events": {
      "ConsensusAddressOfTrustedOrgChanged((address,address,address,uint256,uint256),address)": {
        "details": "Emitted when the consensus address of a trusted organization is changed."
      },
      "ContractUpdated(uint8,address)": {
        "details": "Emitted when a contract is updated."
      },
      "Initialized(uint8)": {
        "details": "Triggered when the contract has been initialized or reinitialized."
      },
      "ThresholdUpdated(uint256,uint256,uint256,uint256,uint256)": {
        "details": "Emitted when the threshold is updated"
      },
      "TrustedOrganizationsAdded((address,address,address,uint256,uint256)[])": {
        "details": "Emitted when the trusted organization is added."
      },
      "TrustedOrganizationsRemoved(address[])": {
        "details": "Emitted when the trusted organization is removed."
      },
      "TrustedOrganizationsUpdated((address,address,address,uint256,uint256)[])": {
        "details": "Emitted when the trusted organization is updated."
      }
    },
    "kind": "dev",
    "methods": {
      "addTrustedOrganizations((address,address,address,uint256,uint256)[])": {
        "details": "Adds a list of addresses into the trusted organization. Requirements: - The weights should larger than 0. - The method caller is admin. - The field `addedBlock` should be blank. Emits the event `TrustedOrganizationAdded` once an organization is added."
      },
      "checkThreshold(uint256)": {
        "details": "Checks whether the `_voteWeight` passes the threshold."
      },
      "countTrustedOrganization()": {
        "details": "Returns the number of trusted organizations."
      },
      "execChangeConsensusAddressForTrustedOrg(address,address)": {
        "details": "Fallback function of `Profile-requestChangeConsensusAddress`. Requirements: - The caller must be the Profile contract. Emits the event `ConsensusAddressOfTrustedOrgChanged` once an organization is removed."
      },
      "getAllTrustedOrganizations()": {
        "details": "Returns all of the trusted organizations."
      },
      "getConsensusWeight(address)": {
        "details": "Returns the weight of a consensus."
      },
      "getConsensusWeightById(address)": {
        "details": "Returns the weight of a consensus."
      },
      "getConsensusWeights(address[])": {
        "details": "Returns the weights of a list of consensus addresses."
      },
      "getConsensusWeightsById(address[])": {
        "details": "Returns the weights of a list of consensus addresses."
      },
      "getContract(uint8)": {
        "details": "Returns the address of a contract with a specific role. Throws an error if no contract is set for the specified role.",
        "params": {
          "contractType": "The role of the contract to retrieve."
        },
        "returns": {
          "contract_": "The address of the contract with the specified role."
        }
      },
      "getGovernorWeight(address)": {
        "details": "Returns the weight of a governor."
      },
      "getGovernorWeights(address[])": {
        "details": "Returns the weights of a list of governor addresses."
      },
      "getThreshold()": {
        "details": "Returns the threshold."
      },
      "getTrustedOrganization(address)": {
        "details": "Returns the trusted organization by consensus address. Reverts once the consensus address is non-existent."
      },
      "getTrustedOrganizationAt(uint256)": {
        "details": "Returns the trusted organization at `_index`."
      },
      "initialize((address,address,address,uint256,uint256)[],uint256,uint256)": {
        "details": "Initializes the contract storage."
      },
      "minimumVoteWeight()": {
        "details": "Returns the minimum vote weight to pass the threshold."
      },
      "removeTrustedOrganizations(address[])": {
        "details": "Removes a list of addresses from the trusted organization. Requirements: - The method caller is admin. Emits the event `TrustedOrganizationRemoved` once an organization is removed.",
        "params": {
          "consensusAddrs": "The list of consensus addresses linked to corresponding trusted organization that to be removed."
        }
      },
      "setContract(uint8,address)": {
        "details": "Sets the address of a contract with a specific role. Emits the event {ContractUpdated}.",
        "params": {
          "addr": "The address of the contract to set.",
          "contractType": "The role of the contract to set."
        }
      },
      "setThreshold(uint256,uint256)": {
        "details": "Sets the threshold. Requirements: - The method caller is admin. Emits the `ThresholdUpdated` event."
      },
      "sumConsensusWeight(address[])": {
        "details": "Returns total weights of the consensus list."
      },
      "sumGovernorWeight(address[])": {
        "details": "Returns total weights of the governor list."
      },
      "totalWeight()": {
        "details": "Returns total weights."
      },
      "updateTrustedOrganizations((address,address,address,uint256,uint256)[])": {
        "details": "Updates weights for a list of existent trusted organization. Requirements: - The weights should larger than 0. - The method caller is admin. Emits the `TrustedOrganizationUpdated` event."
      }
    },
    "stateVariables": {
      "__deprecatedBridgeVoterList": {
        "details": "Bridge voters array"
      },
      "__deprecatedBridgeVoterWeight": {
        "details": "Mapping from bridge voter address => weight"
      },
      "_addedBlock": {
        "details": "Mapping from consensus address => added block"
      },
      "_consensusList": {
        "details": "Consensus array"
      },
      "_consensusWeight": {
        "details": "Mapping from consensus address => weight"
      },
      "_governorList": {
        "details": "Governors array"
      },
      "_governorWeight": {
        "details": "Mapping from governor address => weight"
      }
    },
    "version": 1
  },
  "userdoc": {
    "kind": "user",
    "methods": {},
    "version": 1
  },
  "storageLayout": {
    "storage": [
      {
        "astId": 581,
        "contract": "contracts/multi-chains/RoninTrustedOrganization.sol:RoninTrustedOrganization",
        "label": "_initialized",
        "offset": 0,
        "slot": "0",
        "type": "t_uint8"
      },
      {
        "astId": 584,
        "contract": "contracts/multi-chains/RoninTrustedOrganization.sol:RoninTrustedOrganization",
        "label": "_initializing",
        "offset": 1,
        "slot": "0",
        "type": "t_bool"
      },
      {
        "astId": 5764,
        "contract": "contracts/multi-chains/RoninTrustedOrganization.sol:RoninTrustedOrganization",
        "label": "_num",
        "offset": 0,
        "slot": "1",
        "type": "t_uint256"
      },
      {
        "astId": 5766,
        "contract": "contracts/multi-chains/RoninTrustedOrganization.sol:RoninTrustedOrganization",
        "label": "_denom",
        "offset": 0,
        "slot": "2",
        "type": "t_uint256"
      },
      {
        "astId": 5768,
        "contract": "contracts/multi-chains/RoninTrustedOrganization.sol:RoninTrustedOrganization",
        "label": "_totalWeight",
        "offset": 0,
        "slot": "3",
        "type": "t_uint256"
      },
      {
        "astId": 5770,
        "contract": "contracts/multi-chains/RoninTrustedOrganization.sol:RoninTrustedOrganization",
        "label": "_nonce",
        "offset": 0,
        "slot": "4",
        "type": "t_uint256"
      },
      {
        "astId": 5776,
        "contract": "contracts/multi-chains/RoninTrustedOrganization.sol:RoninTrustedOrganization",
        "label": "_consensusWeight",
        "offset": 0,
        "slot": "5",
        "type": "t_mapping(t_userDefinedValueType(TConsensus)10745,t_uint256)"
      },
      {
        "astId": 5781,
        "contract": "contracts/multi-chains/RoninTrustedOrganization.sol:RoninTrustedOrganization",
        "label": "_governorWeight",
        "offset": 0,
        "slot": "6",
        "type": "t_mapping(t_address,t_uint256)"
      },
      {
        "astId": 5786,
        "contract": "contracts/multi-chains/RoninTrustedOrganization.sol:RoninTrustedOrganization",
        "label": "__deprecatedBridgeVoterWeight",
        "offset": 0,
        "slot": "7",
        "type": "t_mapping(t_address,t_uint256)"
      },
      {
        "astId": 5792,
        "contract": "contracts/multi-chains/RoninTrustedOrganization.sol:RoninTrustedOrganization",
        "label": "_addedBlock",
        "offset": 0,
        "slot": "8",
        "type": "t_mapping(t_userDefinedValueType(TConsensus)10745,t_uint256)"
      },
      {
        "astId": 5797,
        "contract": "contracts/multi-chains/RoninTrustedOrganization.sol:RoninTrustedOrganization",
        "label": "_consensusList",
        "offset": 0,
        "slot": "9",
        "type": "t_array(t_userDefinedValueType(TConsensus)10745)dyn_storage"
      },
      {
        "astId": 5801,
        "contract": "contracts/multi-chains/RoninTrustedOrganization.sol:RoninTrustedOrganization",
        "label": "_governorList",
        "offset": 0,
        "slot": "10",
        "type": "t_array(t_address)dyn_storage"
      },
      {
        "astId": 5805,
        "contract": "contracts/multi-chains/RoninTrustedOrganization.sol:RoninTrustedOrganization",
        "label": "__deprecatedBridgeVoterList",
        "offset": 0,
        "slot": "11",
        "type": "t_array(t_address)dyn_storage"
      }
    ],
    "types": {
      "t_address": {
        "encoding": "inplace",
        "label": "address",
        "numberOfBytes": "20"
      },
      "t_array(t_address)dyn_storage": {
        "base": "t_address",
        "encoding": "dynamic_array",
        "label": "address[]",
        "numberOfBytes": "32"
      },
      "t_array(t_userDefinedValueType(TConsensus)10745)dyn_storage": {
        "base": "t_userDefinedValueType(TConsensus)10745",
        "encoding": "dynamic_array",
        "label": "TConsensus[]",
        "numberOfBytes": "32"
      },
      "t_bool": {
        "encoding": "inplace",
        "label": "bool",
        "numberOfBytes": "1"
      },
      "t_mapping(t_address,t_uint256)": {
        "encoding": "mapping",
        "key": "t_address",
        "label": "mapping(address => uint256)",
        "numberOfBytes": "32",
        "value": "t_uint256"
      },
      "t_mapping(t_userDefinedValueType(TConsensus)10745,t_uint256)": {
        "encoding": "mapping",
        "key": "t_userDefinedValueType(TConsensus)10745",
        "label": "mapping(TConsensus => uint256)",
        "numberOfBytes": "32",
        "value": "t_uint256"
      },
      "t_uint256": {
        "encoding": "inplace",
        "label": "uint256",
        "numberOfBytes": "32"
      },
      "t_uint8": {
        "encoding": "inplace",
        "label": "uint8",
        "numberOfBytes": "1"
      },
      "t_userDefinedValueType(TConsensus)10745": {
        "encoding": "inplace",
        "label": "TConsensus",
        "numberOfBytes": "20"
      }
    }
  }
}