{
  "address": "0xF7837778b6E180Df6696C8Fa986d62f8b6186752",
  "abi": [
    {
      "inputs": [],
      "stateMutability": "nonpayable",
      "type": "constructor"
    },
    {
      "anonymous": false,
      "inputs": [
        {
          "indexed": true,
          "internalType": "uint256",
          "name": "period",
          "type": "uint256"
        },
        {
          "indexed": false,
          "internalType": "address[]",
          "name": "consensusAddrs",
          "type": "address[]"
        }
      ],
      "name": "BlockProducerSetUpdated",
      "type": "event"
    },
    {
      "anonymous": false,
      "inputs": [
        {
          "indexed": true,
          "internalType": "address",
          "name": "coinbaseAddr",
          "type": "address"
        },
        {
          "indexed": false,
          "internalType": "uint256",
          "name": "rewardAmount",
          "type": "uint256"
        },
        {
          "indexed": false,
          "internalType": "enum IRoninValidatorSet.BlockRewardDeprecatedType",
          "name": "deprecatedType",
          "type": "uint8"
        }
      ],
      "name": "BlockRewardDeprecated",
      "type": "event"
    },
    {
      "anonymous": false,
      "inputs": [
        {
          "indexed": true,
          "internalType": "address",
          "name": "coinbaseAddr",
          "type": "address"
        },
        {
          "indexed": false,
          "internalType": "uint256",
          "name": "submittedAmount",
          "type": "uint256"
        },
        {
          "indexed": false,
          "internalType": "uint256",
          "name": "bonusAmount",
          "type": "uint256"
        }
      ],
      "name": "BlockRewardSubmitted",
      "type": "event"
    },
    {
      "anonymous": false,
      "inputs": [
        {
          "indexed": true,
          "internalType": "address",
          "name": "consensusAddr",
          "type": "address"
        },
        {
          "indexed": true,
          "internalType": "address",
          "name": "bridgeOperator",
          "type": "address"
        },
        {
          "indexed": true,
          "internalType": "address",
          "name": "recipientAddr",
          "type": "address"
        },
        {
          "indexed": false,
          "internalType": "uint256",
          "name": "amount",
          "type": "uint256"
        }
      ],
      "name": "BridgeOperatorRewardDistributed",
      "type": "event"
    },
    {
      "anonymous": false,
      "inputs": [
        {
          "indexed": true,
          "internalType": "address",
          "name": "consensusAddr",
          "type": "address"
        },
        {
          "indexed": true,
          "internalType": "address",
          "name": "bridgeOperator",
          "type": "address"
        },
        {
          "indexed": true,
          "internalType": "address",
          "name": "recipient",
          "type": "address"
        },
        {
          "indexed": false,
          "internalType": "uint256",
          "name": "amount",
          "type": "uint256"
        },
        {
          "indexed": false,
          "internalType": "uint256",
          "name": "contractBalance",
          "type": "uint256"
        }
      ],
      "name": "BridgeOperatorRewardDistributionFailed",
      "type": "event"
    },
    {
      "anonymous": false,
      "inputs": [
        {
          "indexed": true,
          "internalType": "uint256",
          "name": "period",
          "type": "uint256"
        },
        {
          "indexed": false,
          "internalType": "address[]",
          "name": "bridgeOperators",
          "type": "address[]"
        }
      ],
      "name": "BridgeOperatorSetUpdated",
      "type": "event"
    },
    {
      "anonymous": false,
      "inputs": [
        {
          "indexed": false,
          "internalType": "address",
          "name": "",
          "type": "address"
        }
      ],
      "name": "BridgeTrackingContractUpdated",
      "type": "event"
    },
    {
      "anonymous": false,
      "inputs": [
        {
          "indexed": true,
          "internalType": "address",
          "name": "consensusAddr",
          "type": "address"
        },
        {
          "indexed": true,
          "internalType": "address",
          "name": "treasuryAddr",
          "type": "address"
        },
        {
          "indexed": true,
          "internalType": "address",
          "name": "admin",
          "type": "address"
        },
        {
          "indexed": false,
          "internalType": "address",
          "name": "bridgeOperator",
          "type": "address"
        }
      ],
      "name": "CandidateGranted",
      "type": "event"
    },
    {
      "anonymous": false,
      "inputs": [
        {
          "indexed": true,
          "internalType": "address",
          "name": "consensusAddr",
          "type": "address"
        },
        {
          "indexed": false,
          "internalType": "uint256",
          "name": "revokedTimestamp",
          "type": "uint256"
        }
      ],
      "name": "CandidateRevokedTimestampUpdated",
      "type": "event"
    },
    {
      "anonymous": false,
      "inputs": [
        {
          "indexed": false,
          "internalType": "address[]",
          "name": "consensusAddrs",
          "type": "address[]"
        }
      ],
      "name": "CandidatesRevoked",
      "type": "event"
    },
    {
      "anonymous": false,
      "inputs": [
        {
          "indexed": false,
          "internalType": "uint8",
          "name": "version",
          "type": "uint8"
        }
      ],
      "name": "Initialized",
      "type": "event"
    },
    {
      "anonymous": false,
      "inputs": [
        {
          "indexed": false,
          "internalType": "address",
          "name": "",
          "type": "address"
        }
      ],
      "name": "MaintenanceContractUpdated",
      "type": "event"
    },
    {
      "anonymous": false,
      "inputs": [
        {
          "indexed": false,
          "internalType": "uint256",
          "name": "",
          "type": "uint256"
        }
      ],
      "name": "MaxPrioritizedValidatorNumberUpdated",
      "type": "event"
    },
    {
      "anonymous": false,
      "inputs": [
        {
          "indexed": false,
          "internalType": "uint256",
          "name": "threshold",
          "type": "uint256"
        }
      ],
      "name": "MaxValidatorCandidateUpdated",
      "type": "event"
    },
    {
      "anonymous": false,
      "inputs": [
        {
          "indexed": false,
          "internalType": "uint256",
          "name": "",
          "type": "uint256"
        }
      ],
      "name": "MaxValidatorNumberUpdated",
      "type": "event"
    },
    {
      "anonymous": false,
      "inputs": [
        {
          "indexed": true,
          "internalType": "address",
          "name": "consensusAddr",
          "type": "address"
        },
        {
          "indexed": true,
          "internalType": "address",
          "name": "recipient",
          "type": "address"
        },
        {
          "indexed": false,
          "internalType": "uint256",
          "name": "amount",
          "type": "uint256"
        }
      ],
      "name": "MiningRewardDistributed",
      "type": "event"
    },
    {
      "anonymous": false,
      "inputs": [
        {
          "indexed": true,
          "internalType": "address",
          "name": "consensusAddr",
          "type": "address"
        },
        {
          "indexed": true,
          "internalType": "address",
          "name": "recipient",
          "type": "address"
        },
        {
          "indexed": false,
          "internalType": "uint256",
          "name": "amount",
          "type": "uint256"
        },
        {
          "indexed": false,
          "internalType": "uint256",
          "name": "contractBalance",
          "type": "uint256"
        }
      ],
      "name": "MiningRewardDistributionFailed",
      "type": "event"
    },
    {
      "anonymous": false,
      "inputs": [
        {
          "indexed": false,
          "internalType": "address",
          "name": "",
          "type": "address"
        }
      ],
      "name": "RoninTrustedOrganizationContractUpdated",
      "type": "event"
    },
    {
      "anonymous": false,
      "inputs": [
        {
          "indexed": false,
          "internalType": "address",
          "name": "",
          "type": "address"
        }
      ],
      "name": "SlashIndicatorContractUpdated",
      "type": "event"
    },
    {
      "anonymous": false,
      "inputs": [
        {
          "indexed": false,
          "internalType": "address",
          "name": "",
          "type": "address"
        }
      ],
      "name": "StakingContractUpdated",
      "type": "event"
    },
    {
      "anonymous": false,
      "inputs": [
        {
          "indexed": false,
          "internalType": "uint256",
          "name": "amount",
          "type": "uint256"
        }
      ],
      "name": "StakingRewardDistributed",
      "type": "event"
    },
    {
      "anonymous": false,
      "inputs": [
        {
          "indexed": false,
          "internalType": "uint256",
          "name": "amount",
          "type": "uint256"
        },
        {
          "indexed": false,
          "internalType": "uint256",
          "name": "contractBalance",
          "type": "uint256"
        }
      ],
      "name": "StakingRewardDistributionFailed",
      "type": "event"
    },
    {
      "anonymous": false,
      "inputs": [
        {
          "indexed": false,
          "internalType": "address",
          "name": "",
          "type": "address"
        }
      ],
      "name": "StakingVestingContractUpdated",
      "type": "event"
    },
    {
      "anonymous": false,
      "inputs": [
        {
          "indexed": true,
          "internalType": "address",
          "name": "consensusAddr",
          "type": "address"
        },
        {
          "indexed": true,
          "internalType": "uint256",
          "name": "period",
          "type": "uint256"
        },
        {
          "indexed": false,
          "internalType": "uint256",
          "name": "jailedUntil",
          "type": "uint256"
        },
        {
          "indexed": false,
          "internalType": "uint256",
          "name": "deductedStakingAmount",
          "type": "uint256"
        },
        {
          "indexed": false,
          "internalType": "bool",
          "name": "blockProducerRewardDeprecated",
          "type": "bool"
        },
        {
          "indexed": false,
          "internalType": "bool",
          "name": "bridgeOperatorRewardDeprecated",
          "type": "bool"
        }
      ],
      "name": "ValidatorPunished",
      "type": "event"
    },
    {
      "anonymous": false,
      "inputs": [
        {
          "indexed": true,
          "internalType": "uint256",
          "name": "period",
          "type": "uint256"
        },
        {
          "indexed": false,
          "internalType": "address[]",
          "name": "consensusAddrs",
          "type": "address[]"
        }
      ],
      "name": "ValidatorSetUpdated",
      "type": "event"
    },
    {
      "anonymous": false,
      "inputs": [
        {
          "indexed": true,
          "internalType": "address",
          "name": "validator",
          "type": "address"
        },
        {
          "indexed": false,
          "internalType": "uint256",
          "name": "period",
          "type": "uint256"
        }
      ],
      "name": "ValidatorUnjailed",
      "type": "event"
    },
    {
      "anonymous": false,
      "inputs": [
        {
          "indexed": true,
          "internalType": "uint256",
          "name": "periodNumber",
          "type": "uint256"
        },
        {
          "indexed": true,
          "internalType": "uint256",
          "name": "epochNumber",
          "type": "uint256"
        },
        {
          "indexed": false,
          "internalType": "bool",
          "name": "periodEnding",
          "type": "bool"
        }
      ],
      "name": "WrappedUpEpoch",
      "type": "event"
    },
    {
      "stateMutability": "payable",
      "type": "fallback"
    },
    {
      "inputs": [
        {
          "internalType": "uint256",
          "name": "_newPeriod",
          "type": "uint256"
        }
      ],
      "name": "_isPeriodEnding",
      "outputs": [
        {
          "internalType": "bool",
          "name": "",
          "type": "bool"
        }
      ],
      "stateMutability": "view",
      "type": "function"
    },
    {
      "inputs": [],
      "name": "bridgeTrackingContract",
      "outputs": [
        {
          "internalType": "address",
          "name": "",
          "type": "address"
        }
      ],
      "stateMutability": "view",
      "type": "function"
    },
    {
      "inputs": [
        {
          "internalType": "address[]",
          "name": "_addrList",
          "type": "address[]"
        }
      ],
      "name": "bulkJailed",
      "outputs": [
        {
          "internalType": "bool[]",
          "name": "_result",
          "type": "bool[]"
        }
      ],
      "stateMutability": "view",
      "type": "function"
    },
    {
      "inputs": [],
      "name": "currentPeriod",
      "outputs": [
        {
          "internalType": "uint256",
          "name": "",
          "type": "uint256"
        }
      ],
      "stateMutability": "view",
      "type": "function"
    },
    {
      "inputs": [],
      "name": "currentPeriodStartAtBlock",
      "outputs": [
        {
          "internalType": "uint256",
          "name": "",
          "type": "uint256"
        }
      ],
      "stateMutability": "view",
      "type": "function"
    },
    {
      "inputs": [
        {
          "internalType": "uint256",
          "name": "_block",
          "type": "uint256"
        }
      ],
      "name": "epochEndingAt",
      "outputs": [
        {
          "internalType": "bool",
          "name": "",
          "type": "bool"
        }
      ],
      "stateMutability": "view",
      "type": "function"
    },
    {
      "inputs": [
        {
          "internalType": "uint256",
          "name": "_block",
          "type": "uint256"
        }
      ],
      "name": "epochOf",
      "outputs": [
        {
          "internalType": "uint256",
          "name": "",
          "type": "uint256"
        }
      ],
      "stateMutability": "view",
      "type": "function"
    },
    {
      "inputs": [
        {
          "internalType": "address",
          "name": "_validatorAddr",
          "type": "address"
        },
        {
          "internalType": "uint256",
          "name": "_period",
          "type": "uint256"
        }
      ],
      "name": "execBailOut",
      "outputs": [],
      "stateMutability": "nonpayable",
      "type": "function"
    },
    {
      "inputs": [
        {
          "internalType": "address",
          "name": "_validatorAddr",
          "type": "address"
        },
        {
          "internalType": "uint256",
          "name": "_newJailedUntil",
          "type": "uint256"
        },
        {
          "internalType": "uint256",
          "name": "_slashAmount",
          "type": "uint256"
        }
      ],
      "name": "execSlash",
      "outputs": [],
      "stateMutability": "nonpayable",
      "type": "function"
    },
    {
      "inputs": [],
      "name": "getBlockProducers",
      "outputs": [
        {
          "internalType": "address[]",
          "name": "_result",
          "type": "address[]"
        }
      ],
      "stateMutability": "view",
      "type": "function"
    },
    {
      "inputs": [],
      "name": "getBridgeOperators",
      "outputs": [
        {
          "internalType": "address[]",
          "name": "_bridgeOperatorList",
          "type": "address[]"
        }
      ],
      "stateMutability": "view",
      "type": "function"
    },
    {
      "inputs": [
        {
          "internalType": "address",
          "name": "_candidate",
          "type": "address"
        }
      ],
      "name": "getCandidateInfo",
      "outputs": [
        {
          "components": [
            {
              "internalType": "address",
              "name": "admin",
              "type": "address"
            },
            {
              "internalType": "address",
              "name": "consensusAddr",
              "type": "address"
            },
            {
              "internalType": "address payable",
              "name": "treasuryAddr",
              "type": "address"
            },
            {
              "internalType": "address",
              "name": "bridgeOperatorAddr",
              "type": "address"
            },
            {
              "internalType": "uint256",
              "name": "commissionRate",
              "type": "uint256"
            },
            {
              "internalType": "uint256",
              "name": "revokedTimestamp",
              "type": "uint256"
            },
            {
              "internalType": "bytes",
              "name": "extraData",
              "type": "bytes"
            }
          ],
          "internalType": "struct ICandidateManager.ValidatorCandidate",
          "name": "",
          "type": "tuple"
        }
      ],
      "stateMutability": "view",
      "type": "function"
    },
    {
      "inputs": [],
      "name": "getCandidateInfos",
      "outputs": [
        {
          "components": [
            {
              "internalType": "address",
              "name": "admin",
              "type": "address"
            },
            {
              "internalType": "address",
              "name": "consensusAddr",
              "type": "address"
            },
            {
              "internalType": "address payable",
              "name": "treasuryAddr",
              "type": "address"
            },
            {
              "internalType": "address",
              "name": "bridgeOperatorAddr",
              "type": "address"
            },
            {
              "internalType": "uint256",
              "name": "commissionRate",
              "type": "uint256"
            },
            {
              "internalType": "uint256",
              "name": "revokedTimestamp",
              "type": "uint256"
            },
            {
              "internalType": "bytes",
              "name": "extraData",
              "type": "bytes"
            }
          ],
          "internalType": "struct ICandidateManager.ValidatorCandidate[]",
          "name": "_list",
          "type": "tuple[]"
        }
      ],
      "stateMutability": "view",
      "type": "function"
    },
    {
      "inputs": [],
      "name": "getLastUpdatedBlock",
      "outputs": [
        {
          "internalType": "uint256",
          "name": "",
          "type": "uint256"
        }
      ],
      "stateMutability": "view",
      "type": "function"
    },
    {
      "inputs": [],
      "name": "getValidatorCandidates",
      "outputs": [
        {
          "internalType": "address[]",
          "name": "",
          "type": "address[]"
        }
      ],
      "stateMutability": "view",
      "type": "function"
    },
    {
      "inputs": [],
      "name": "getValidators",
      "outputs": [
        {
          "internalType": "address[]",
          "name": "_validatorList",
          "type": "address[]"
        }
      ],
      "stateMutability": "view",
      "type": "function"
    },
    {
      "inputs": [
        {
          "internalType": "address",
          "name": "_admin",
          "type": "address"
        },
        {
          "internalType": "address",
          "name": "_consensusAddr",
          "type": "address"
        },
        {
          "internalType": "address payable",
          "name": "_treasuryAddr",
          "type": "address"
        },
        {
          "internalType": "address",
          "name": "_bridgeOperatorAddr",
          "type": "address"
        },
        {
          "internalType": "uint256",
          "name": "_commissionRate",
          "type": "uint256"
        }
      ],
      "name": "grantValidatorCandidate",
      "outputs": [],
      "stateMutability": "nonpayable",
      "type": "function"
    },
    {
      "inputs": [
        {
          "internalType": "address",
          "name": "__slashIndicatorContract",
          "type": "address"
        },
        {
          "internalType": "address",
          "name": "__stakingContract",
          "type": "address"
        },
        {
          "internalType": "address",
          "name": "__stakingVestingContract",
          "type": "address"
        },
        {
          "internalType": "address",
          "name": "__maintenanceContract",
          "type": "address"
        },
        {
          "internalType": "address",
          "name": "__roninTrustedOrganizationContract",
          "type": "address"
        },
        {
          "internalType": "address",
          "name": "__bridgeTrackingContract",
          "type": "address"
        },
        {
          "internalType": "uint256",
          "name": "__maxValidatorNumber",
          "type": "uint256"
        },
        {
          "internalType": "uint256",
          "name": "__maxValidatorCandidate",
          "type": "uint256"
        },
        {
          "internalType": "uint256",
          "name": "__maxPrioritizedValidatorNumber",
          "type": "uint256"
        },
        {
          "internalType": "uint256",
          "name": "__numberOfBlocksInEpoch",
          "type": "uint256"
        }
      ],
      "name": "initialize",
      "outputs": [],
      "stateMutability": "nonpayable",
      "type": "function"
    },
    {
      "inputs": [
        {
          "internalType": "address",
          "name": "_addr",
          "type": "address"
        }
      ],
      "name": "isBlockProducer",
      "outputs": [
        {
          "internalType": "bool",
          "name": "",
          "type": "bool"
        }
      ],
      "stateMutability": "view",
      "type": "function"
    },
    {
      "inputs": [
        {
          "internalType": "address",
          "name": "_bridgeOperatorAddr",
          "type": "address"
        }
      ],
      "name": "isBridgeOperator",
      "outputs": [
        {
          "internalType": "bool",
          "name": "_result",
          "type": "bool"
        }
      ],
      "stateMutability": "view",
      "type": "function"
    },
    {
      "inputs": [
        {
          "internalType": "address",
          "name": "_candidate",
          "type": "address"
        },
        {
          "internalType": "address",
          "name": "_admin",
          "type": "address"
        }
      ],
      "name": "isCandidateAdmin",
      "outputs": [
        {
          "internalType": "bool",
          "name": "",
          "type": "bool"
        }
      ],
      "stateMutability": "view",
      "type": "function"
    },
    {
      "inputs": [],
      "name": "isPeriodEnding",
      "outputs": [
        {
          "internalType": "bool",
          "name": "",
          "type": "bool"
        }
      ],
      "stateMutability": "view",
      "type": "function"
    },
    {
      "inputs": [
        {
          "internalType": "address",
          "name": "_addr",
          "type": "address"
        }
      ],
      "name": "isValidator",
      "outputs": [
        {
          "internalType": "bool",
          "name": "",
          "type": "bool"
        }
      ],
      "stateMutability": "view",
      "type": "function"
    },
    {
      "inputs": [
        {
          "internalType": "address",
          "name": "_addr",
          "type": "address"
        }
      ],
      "name": "isValidatorCandidate",
      "outputs": [
        {
          "internalType": "bool",
          "name": "",
          "type": "bool"
        }
      ],
      "stateMutability": "view",
      "type": "function"
    },
    {
      "inputs": [
        {
          "internalType": "address",
          "name": "_addr",
          "type": "address"
        }
      ],
      "name": "jailed",
      "outputs": [
        {
          "internalType": "bool",
          "name": "",
          "type": "bool"
        }
      ],
      "stateMutability": "view",
      "type": "function"
    },
    {
      "inputs": [
        {
          "internalType": "address",
          "name": "_addr",
          "type": "address"
        },
        {
          "internalType": "uint256",
          "name": "_blockNum",
          "type": "uint256"
        }
      ],
      "name": "jailedAtBlock",
      "outputs": [
        {
          "internalType": "bool",
          "name": "",
          "type": "bool"
        }
      ],
      "stateMutability": "view",
      "type": "function"
    },
    {
      "inputs": [
        {
          "internalType": "address",
          "name": "_addr",
          "type": "address"
        }
      ],
      "name": "jailedTimeLeft",
      "outputs": [
        {
          "internalType": "bool",
          "name": "isJailed_",
          "type": "bool"
        },
        {
          "internalType": "uint256",
          "name": "blockLeft_",
          "type": "uint256"
        },
        {
          "internalType": "uint256",
          "name": "epochLeft_",
          "type": "uint256"
        }
      ],
      "stateMutability": "view",
      "type": "function"
    },
    {
      "inputs": [
        {
          "internalType": "address",
          "name": "_addr",
          "type": "address"
        },
        {
          "internalType": "uint256",
          "name": "_blockNum",
          "type": "uint256"
        }
      ],
      "name": "jailedTimeLeftAtBlock",
      "outputs": [
        {
          "internalType": "bool",
          "name": "isJailed_",
          "type": "bool"
        },
        {
          "internalType": "uint256",
          "name": "blockLeft_",
          "type": "uint256"
        },
        {
          "internalType": "uint256",
          "name": "epochLeft_",
          "type": "uint256"
        }
      ],
      "stateMutability": "view",
      "type": "function"
    },
    {
      "inputs": [],
      "name": "maintenanceContract",
      "outputs": [
        {
          "internalType": "address",
          "name": "",
          "type": "address"
        }
      ],
      "stateMutability": "view",
      "type": "function"
    },
    {
      "inputs": [],
      "name": "maxPrioritizedValidatorNumber",
      "outputs": [
        {
          "internalType": "uint256",
          "name": "_maximumPrioritizedValidatorNumber",
          "type": "uint256"
        }
      ],
      "stateMutability": "view",
      "type": "function"
    },
    {
      "inputs": [],
      "name": "maxValidatorCandidate",
      "outputs": [
        {
          "internalType": "uint256",
          "name": "",
          "type": "uint256"
        }
      ],
      "stateMutability": "view",
      "type": "function"
    },
    {
      "inputs": [],
      "name": "maxValidatorNumber",
      "outputs": [
        {
          "internalType": "uint256",
          "name": "_maximumValidatorNumber",
          "type": "uint256"
        }
      ],
      "stateMutability": "view",
      "type": "function"
    },
    {
      "inputs": [
        {
          "internalType": "address[]",
          "name": "_blockProducers",
          "type": "address[]"
        }
      ],
      "name": "miningRewardDeprecated",
      "outputs": [
        {
          "internalType": "bool[]",
          "name": "_result",
          "type": "bool[]"
        }
      ],
      "stateMutability": "view",
      "type": "function"
    },
    {
      "inputs": [
        {
          "internalType": "address[]",
          "name": "_blockProducers",
          "type": "address[]"
        },
        {
          "internalType": "uint256",
          "name": "_period",
          "type": "uint256"
        }
      ],
      "name": "miningRewardDeprecatedAtPeriod",
      "outputs": [
        {
          "internalType": "bool[]",
          "name": "_result",
          "type": "bool[]"
        }
      ],
      "stateMutability": "view",
      "type": "function"
    },
    {
      "inputs": [],
      "name": "numberOfBlocksInEpoch",
      "outputs": [
        {
          "internalType": "uint256",
          "name": "_numberOfBlocks",
          "type": "uint256"
        }
      ],
      "stateMutability": "view",
      "type": "function"
    },
    {
      "inputs": [],
      "name": "precompilePickValidatorSetAddress",
      "outputs": [
        {
          "internalType": "address",
          "name": "",
          "type": "address"
        }
      ],
      "stateMutability": "view",
      "type": "function"
    },
    {
      "inputs": [],
      "name": "precompileSortValidatorsAddress",
      "outputs": [
        {
          "internalType": "address",
          "name": "",
          "type": "address"
        }
      ],
      "stateMutability": "view",
      "type": "function"
    },
    {
      "inputs": [
        {
          "internalType": "address",
          "name": "_consensusAddr",
          "type": "address"
        },
        {
          "internalType": "uint256",
          "name": "_secsLeft",
          "type": "uint256"
        }
      ],
      "name": "requestRevokeCandidate",
      "outputs": [],
      "stateMutability": "nonpayable",
      "type": "function"
    },
    {
      "inputs": [],
      "name": "roninTrustedOrganizationContract",
      "outputs": [
        {
          "internalType": "address",
          "name": "",
          "type": "address"
        }
      ],
      "stateMutability": "view",
      "type": "function"
    },
    {
      "inputs": [
        {
          "internalType": "address",
          "name": "_addr",
          "type": "address"
        }
      ],
      "name": "setBridgeTrackingContract",
      "outputs": [],
      "stateMutability": "nonpayable",
      "type": "function"
    },
    {
      "inputs": [
        {
          "internalType": "address",
          "name": "_addr",
          "type": "address"
        }
      ],
      "name": "setMaintenanceContract",
      "outputs": [],
      "stateMutability": "nonpayable",
      "type": "function"
    },
    {
      "inputs": [
        {
          "internalType": "uint256",
          "name": "_number",
          "type": "uint256"
        }
      ],
      "name": "setMaxPrioritizedValidatorNumber",
      "outputs": [],
      "stateMutability": "nonpayable",
      "type": "function"
    },
    {
      "inputs": [
        {
          "internalType": "uint256",
          "name": "_number",
          "type": "uint256"
        }
      ],
      "name": "setMaxValidatorCandidate",
      "outputs": [],
      "stateMutability": "nonpayable",
      "type": "function"
    },
    {
      "inputs": [
        {
          "internalType": "uint256",
          "name": "_max",
          "type": "uint256"
        }
      ],
      "name": "setMaxValidatorNumber",
      "outputs": [],
      "stateMutability": "nonpayable",
      "type": "function"
    },
    {
      "inputs": [
        {
          "internalType": "address",
          "name": "_addr",
          "type": "address"
        }
      ],
      "name": "setRoninTrustedOrganizationContract",
      "outputs": [],
      "stateMutability": "nonpayable",
      "type": "function"
    },
    {
      "inputs": [
        {
          "internalType": "address",
          "name": "_addr",
          "type": "address"
        }
      ],
      "name": "setSlashIndicatorContract",
      "outputs": [],
      "stateMutability": "nonpayable",
      "type": "function"
    },
    {
      "inputs": [
        {
          "internalType": "address",
          "name": "_addr",
          "type": "address"
        }
      ],
      "name": "setStakingContract",
      "outputs": [],
      "stateMutability": "nonpayable",
      "type": "function"
    },
    {
      "inputs": [
        {
          "internalType": "address",
          "name": "_addr",
          "type": "address"
        }
      ],
      "name": "setStakingVestingContract",
      "outputs": [],
      "stateMutability": "nonpayable",
      "type": "function"
    },
    {
      "inputs": [],
      "name": "slashIndicatorContract",
      "outputs": [
        {
          "internalType": "address",
          "name": "",
          "type": "address"
        }
      ],
      "stateMutability": "view",
      "type": "function"
    },
    {
      "inputs": [],
      "name": "stakingContract",
      "outputs": [
        {
          "internalType": "address",
          "name": "",
          "type": "address"
        }
      ],
      "stateMutability": "view",
      "type": "function"
    },
    {
      "inputs": [],
      "name": "stakingVestingContract",
      "outputs": [
        {
          "internalType": "address",
          "name": "",
          "type": "address"
        }
      ],
      "stateMutability": "view",
      "type": "function"
    },
    {
      "inputs": [],
      "name": "submitBlockReward",
      "outputs": [],
      "stateMutability": "payable",
      "type": "function"
    },
    {
      "inputs": [],
      "name": "totalBlockProducers",
      "outputs": [
        {
          "internalType": "uint256",
          "name": "_total",
          "type": "uint256"
        }
      ],
      "stateMutability": "view",
      "type": "function"
    },
    {
      "inputs": [],
      "name": "totalBridgeOperators",
      "outputs": [
        {
          "internalType": "uint256",
          "name": "",
          "type": "uint256"
        }
      ],
      "stateMutability": "view",
      "type": "function"
    },
    {
      "inputs": [],
      "name": "validatorCount",
      "outputs": [
        {
          "internalType": "uint256",
          "name": "",
          "type": "uint256"
        }
      ],
      "stateMutability": "view",
      "type": "function"
    },
    {
      "inputs": [],
      "name": "wrapUpEpoch",
      "outputs": [],
      "stateMutability": "payable",
      "type": "function"
    },
    {
      "stateMutability": "payable",
      "type": "receive"
    }
  ],
  "transactionHash": "0x1ef5c516cdfeda99ab2fbd244a5456dc0d419ea2e5708e5f06bdabd2368760c1",
  "args": [],
  "numDeployments": 1,
  "solcInputHash": "1d53902dd90cd91eebd679fc038e76a6",
  "bytecode": "0x60806040523480156200001157600080fd5b506200001c62000022565b620000e4565b603c54610100900460ff16156200008f5760405162461bcd60e51b815260206004820152602760248201527f496e697469616c697a61626c653a20636f6e747261637420697320696e697469604482015266616c697a696e6760c81b606482015260840160405180910390fd5b603c5460ff9081161015620000e257603c805460ff191660ff9081179091556040519081527f7f26b83ff96e1f2b6a682f133852f6798a09c465da95921460cefb38474024989060200160405180910390a15b565b614b8c80620000f46000396000f3fe60806040526004361061036f5760003560e01c80637043e5dd116101c65780639e94b9ec116100f7578063ba77b06c11610095578063d2cb215e1161006f578063d2cb215e146109cd578063ee99205c146109eb578063eeb629a814610a09578063facd743b14610a1e5761037e565b8063ba77b06c14610983578063c94aaa0214610998578063d09f1ab4146109b85761037e565b8063ad295783116100d1578063ad2957831461090e578063b405aaf21461092e578063b5e337de1461094e578063b7ab4db51461096e5761037e565b80639e94b9ec146108a1578063a0c3f2d2146108b6578063a3d545f5146108ee5761037e565b806387c891bd116101645780639b19dbfd1161013e5780639b19dbfd1461082a5780639b8c334b1461083f5780639c8d98da146108615780639dd373b9146108815761037e565b806387c891bd146107e15780638d559c38146107f657806392a8c2e81461080a5761037e565b80637593ff71116101a05780637593ff711461074457806381f9535f14610764578063823a7b9c146107a157806385ad5aec146107c15761037e565b80637043e5dd146106fc57806372e468101461071c578063733ec970146107245761037e565b806346fe9311116102a0578063562d53041161023e578063605239a111610218578063605239a11461069257806365244ece146106a75780636aa1c2ef146106c75780636efa12bd146106dc5761037e565b8063562d53041461063f578063570ccb13146106545780635a08482d146106745761037e565b80634f2a693f1161027a5780634f2a693f146105d757806352091f17146105f75780635248184a146105ff5780635511cde1146106215761037e565b806346fe93111461057557806349096d26146105955780634a68f8c6146105b75761037e565b8063297a8fca1161030d5780633986de6a116102e75780633986de6a146104f65780633b3159b614610516578063428483c31461052a5780634493421e146105575761037e565b8063297a8fca1461048f5780632bcf3d15146104a45780633529214b146104c45761037e565b806315b5ebde1161034957806315b5ebde1461040d578063217f35c21461042d5780632607d9191461044257806328bde1e1146104625761037e565b806304d971ab1461038657806306040618146103d85780630f43a677146103f75761037e565b3661037e5761037c610a3e565b005b61037c610a3e565b34801561039257600080fd5b506103c36103a136600461400d565b6001600160a01b03918216600090815260096020526040902054821691161490565b60405190151581526020015b60405180910390f35b3480156103e457600080fd5b506040545b6040519081526020016103cf565b34801561040357600080fd5b506103e960425481565b34801561041957600080fd5b5061037c610428366004614046565b610ad0565b34801561043957600080fd5b506103c3610bbb565b34801561044e57600080fd5b506103c361045d366004614046565b610bce565b34801561046e57600080fd5b5061048261047d366004614072565b610bf2565b6040516103cf9190614137565b34801561049b57600080fd5b506041546103e9565b3480156104b057600080fd5b5061037c6104bf366004614072565b610d35565b3480156104d057600080fd5b506001546001600160a01b03165b6040516001600160a01b0390911681526020016103cf565b34801561050257600080fd5b5061037c61051136600461414a565b610d79565b34801561052257600080fd5b5060686104de565b34801561053657600080fd5b5061054a61054536600461423f565b610ee2565b6040516103cf9190614280565b34801561056357600080fd5b506005546001600160a01b03166104de565b34801561058157600080fd5b5061037c610590366004614072565b610f9d565b3480156105a157600080fd5b506105aa610fde565b6040516103cf919061430a565b3480156105c357600080fd5b5061054a6105d236600461423f565b6110c7565b3480156105e357600080fd5b5061037c6105f236600461431d565b611191565b61037c6111d2565b34801561060b57600080fd5b50610614611559565b6040516103cf9190614336565b34801561062d57600080fd5b506004546001600160a01b03166104de565b34801561064b57600080fd5b506042546103e9565b34801561066057600080fd5b5061037c61066f366004614398565b611715565b34801561068057600080fd5b506002546001600160a01b03166104de565b34801561069e57600080fd5b506006546103e9565b3480156106b357600080fd5b506103c36106c2366004614072565b6118a2565b3480156106d357600080fd5b50603e546103e9565b3480156106e857600080fd5b5061037c6106f7366004614046565b6118e2565b34801561070857600080fd5b506103c3610717366004614072565b611a3a565b61037c611a46565b34801561073057600080fd5b5061037c61073f3660046143cd565b611c91565b34801561075057600080fd5b506103c361075f36600461431d565b611f96565b34801561077057600080fd5b5061078461077f366004614072565b611fbb565b6040805193151584526020840192909252908201526060016103cf565b3480156107ad57600080fd5b5061037c6107bc36600461431d565b611fd7565b3480156107cd57600080fd5b506107846107dc366004614046565b612018565b3480156107ed57600080fd5b50603f546103e9565b34801561080257600080fd5b5060666104de565b34801561081657600080fd5b5061054a610825366004614431565b61209b565b34801561083657600080fd5b506105aa612158565b34801561084b57600080fd5b506103c361085a36600461431d565b6040541090565b34801561086d57600080fd5b5061037c61087c366004614072565b612218565b34801561088d57600080fd5b5061037c61089c366004614072565b612259565b3480156108ad57600080fd5b506103e961229a565b3480156108c257600080fd5b506103c36108d1366004614072565b6001600160a01b0316600090815260086020526040902054151590565b3480156108fa57600080fd5b506103e961090936600461431d565b6122ee565b34801561091a57600080fd5b5061037c610929366004614072565b612309565b34801561093a57600080fd5b506103c3610949366004614072565b61234a565b34801561095a57600080fd5b5061037c610969366004614072565b6123af565b34801561097a57600080fd5b506105aa6123f0565b34801561098f57600080fd5b506105aa61249d565b3480156109a457600080fd5b5061037c6109b336600461431d565b6124ff565b3480156109c457600080fd5b50603d546103e9565b3480156109d957600080fd5b506003546001600160a01b03166104de565b3480156109f757600080fd5b506000546001600160a01b03166104de565b348015610a1557600080fd5b506045546103e9565b348015610a2a57600080fd5b506103c3610a39366004614072565b612540565b6001546001600160a01b03163314610ace5760405162461bcd60e51b815260206004820152604260248201527f526f6e696e56616c696461746f725365743a206f6e6c7920726563656976657360448201527f20524f4e2066726f6d207374616b696e672076657374696e6720636f6e74726160648201526118dd60f21b608482015260a4015b60405180910390fd5b565b33610ae36002546001600160a01b031690565b6001600160a01b031614610b095760405162461bcd60e51b8152600401610ac59061447c565b6001600160a01b038216600081815260476020908152604080832085845282528083208054600160ff199182168117909255948452604683528184208685529092529091208054909216909155610b609043614501565b6001600160a01b038316600081815260496020526040908190209290925590517f6bb2436cb6b6eb65d5a52fac2ae0373a77ade6661e523ef3004ee2d5524e6c6e90610baf9084815260200190565b60405180910390a25050565b6000610bc961085a4261257d565b905090565b6001600160a01b0382166000908152604960205260408120548211155b9392505050565b610bfa613ecc565b6001600160a01b038216600090815260086020526040902054610c2f5760405162461bcd60e51b8152600401610ac590614518565b6001600160a01b03808316600090815260096020908152604091829020825160e081018452815485168152600182015485169281019290925260028101548416928201929092526003820154909216606083015260048101546080830152600581015460a083015260068101805460c084019190610cac9061456a565b80601f0160208091040260200160405190810160405280929190818152602001828054610cd89061456a565b8015610d255780601f10610cfa57610100808354040283529160200191610d25565b820191906000526020600020905b815481529060010190602001808311610d0857829003601f168201915b5050505050815250509050919050565b610d3d61258c565b6001600160a01b0316336001600160a01b031614610d6d5760405162461bcd60e51b8152600401610ac59061459f565b610d76816125ba565b50565b603c54610100900460ff1615808015610d995750603c54600160ff909116105b80610db35750303b158015610db35750603c5460ff166001145b610e165760405162461bcd60e51b815260206004820152602e60248201527f496e697469616c697a61626c653a20636f6e747261637420697320616c72656160448201526d191e481a5b9a5d1a585b1a5e995960921b6064820152608401610ac5565b603c805460ff191660011790558015610e3957603c805461ff0019166101001790555b610e428b6125ba565b610e4b8a61260f565b610e548961265d565b610e5d886126ab565b610e66866126f9565b610e6f87612747565b610e7885612795565b610e81846127ca565b610e8a836127ff565b603e8290558015610ed557603c805461ff0019169055604051600181527f7f26b83ff96e1f2b6a682f133852f6798a09c465da95921460cefb38474024989060200160405180910390a15b5050505050505050505050565b6060816001600160401b03811115610efc57610efc6145e1565b604051908082528060200260200182016040528015610f25578160200160208202803683370190505b50905060005b82811015610f9657610f62848483818110610f4857610f486145f7565b9050602002016020810190610f5d9190614072565b6128d2565b828281518110610f7457610f746145f7565b9115156020928302919091019091015280610f8e8161460d565b915050610f2b565b5092915050565b610fa561258c565b6001600160a01b0316336001600160a01b031614610fd55760405162461bcd60e51b8152600401610ac59061459f565b610d76816126ab565b60606042546001600160401b03811115610ffa57610ffa6145e1565b604051908082528060200260200182016040528015611023578160200160208202803683370190505b5090506000805b82518110156110c157600081815260436020526040902054611054906001600160a01b03166118a2565b156110af576000818152604360205260409020546001600160a01b0316838361107c8161460d565b94508151811061108e5761108e6145f7565b60200260200101906001600160a01b031690816001600160a01b0316815250505b806110b98161460d565b91505061102a565b50815290565b6060816001600160401b038111156110e1576110e16145e1565b60405190808252806020026020018201604052801561110a578160200160208202803683370190505b509050600061111860405490565b905060005b838110156111895761115585858381811061113a5761113a6145f7565b905060200201602081019061114f9190614072565b836128f3565b838281518110611167576111676145f7565b91151560209283029190910190910152806111818161460d565b91505061111d565b505092915050565b61119961258c565b6001600160a01b0316336001600160a01b0316146111c95760405162461bcd60e51b8152600401610ac59061459f565b610d76816127ca565b3341146111f15760405162461bcd60e51b8152600401610ac590614628565b343360006111fe826118a2565b8015611210575061120e826128d2565b155b801561122b57506112298261122460405490565b6128f3565b155b60018054604051630634f5b960e01b8152831515600482015260248101839052929350909160009182916001600160a01b0390911690630634f5b990604401606060405180830381600087803b15801561128457600080fd5b505af1158015611298573d6000803e3d6000fd5b505050506040513d601f19601f820116820180604052508101906112bc919061468e565b925092505080604c60008282546112d391906146c3565b9091555084905061132a57846001600160a01b03167f4042bb9a70998f80a86d9963f0d2132e9b11c8ad94d207c6141c8e34b05ce53e87600160405161131a9291906146f1565b60405180910390a2505050505050565b60408051878152602081018490526001600160a01b038716917f0ede5c3be8625943fa64003cd4b91230089411249f3059bac6500873543ca9b1910160405180910390a2600061137960405490565b9050600061138784896146c3565b6001600160a01b03881660009081526047602090815260408083208684529091528120549192509060ff161561149a576002546040805163631c8fd160e11b815290516000926001600160a01b03169163c6391fa2916004808301926080929190829003018186803b1580156113fc57600080fd5b505afa158015611410573d6000803e3d6000fd5b505050506040513d601f19601f820116820180604052508101906114349190614723565b935050505061271081846114489190614759565b611452919061478e565b9150886001600160a01b03167f4042bb9a70998f80a86d9963f0d2132e9b11c8ad94d207c6141c8e34b05ce53e8360026040516114909291906146f1565b60405180910390a2505b6114a48183614501565b6001600160a01b0389166000908152600960205260408120600401549193506127106114d08584614759565b6114da919061478e565b6001600160a01b038b166000908152604a60205260408120805492935083929091906115079084906146c3565b90915550600090506115198286614501565b6001600160a01b038c166000908152604b60205260408120805492935083929091906115469084906146c3565b9091555050505050505050505050505050565b6007546060906001600160401b03811115611576576115766145e1565b6040519080825280602002602001820160405280156115af57816020015b61159c613ecc565b8152602001906001900390816115945790505b50905060005b81518110156117115760096000600783815481106115d5576115d56145f7565b60009182526020808320909101546001600160a01b039081168452838201949094526040928301909120825160e081018452815485168152600182015485169281019290925260028101548416928201929092526003820154909216606083015260048101546080830152600581015460a083015260068101805460c08401919061165f9061456a565b80601f016020809104026020016040519081016040528092919081815260200182805461168b9061456a565b80156116d85780601f106116ad576101008083540402835291602001916116d8565b820191906000526020600020905b8154815290600101906020018083116116bb57829003601f168201915b5050505050815250508282815181106116f3576116f36145f7565b602002602001018190525080806117099061460d565b9150506115b5565b5090565b336117286002546001600160a01b031690565b6001600160a01b03161461174e5760405162461bcd60e51b8152600401610ac59061447c565b600061175960405490565b6001600160a01b03851660008181526046602090815260408083208584528252808320805460ff19166001179055928252604a8152828220829055604b81528282208290556049905220549091508311156117ca576001600160a01b03841660009081526049602052604090208390555b81156118375760005460405163c905bb3560e01b81526001600160a01b038681166004830152602482018590529091169063c905bb3590604401600060405180830381600087803b15801561181e57600080fd5b505af1158015611832573d6000803e3d6000fd5b505050505b6001600160a01b038416600081815260496020908152604080832054815190815291820186905260019082015260608101919091528291907f54ce99c5ce1fc9f61656d4a0fb2697974d0c973ac32eecaefe06fcf18b8ef68a9060800160405180910390a350505050565b6001600160a01b0381166000908152604460205260408120546118dc9060019060ff1660038111156118d6576118d66146db565b9061291e565b92915050565b336118f56000546001600160a01b031690565b6001600160a01b03161461191b5760405162461bcd60e51b8152600401610ac5906147a2565b6001600160a01b0382166000908152600860205260409020546119505760405162461bcd60e51b8152600401610ac590614518565b600061195c82426146c3565b6001600160a01b03841660009081526009602052604090206005015490915081106119dd5760405162461bcd60e51b815260206004820152602b60248201527f43616e6469646174654d616e616765723a20696e76616c6964207265766f6b6560448201526a0642074696d657374616d760ac1b6064820152608401610ac5565b6001600160a01b03831660008181526009602052604090819020600501839055517fdb451f2c533d44367eeca766bcee562bfc473b8d3f5d34f7b87befe026434aaa90611a2d9084815260200190565b60405180910390a2505050565b60006118dc8243610bce565b334114611a655760405162461bcd60e51b8152600401610ac590614628565b611a6e43611f96565b611ad65760405162461bcd60e51b815260206004820152603360248201527f526f6e696e56616c696461746f725365743a206f6e6c7920616c6c6f776564206044820152720c2e840e8d0ca40cadcc840decc40cae0dec6d606b1b6064820152608401610ac5565b611adf436122ee565b611aea603f546122ee565b10611b555760405162461bcd60e51b815260206004820152603560248201527f526f6e696e56616c696461746f725365743a20717565727920666f7220616c726044820152740cac2c8f240eee4c2e0e0cac840eae040cae0dec6d605b1b6064820152608401610ac5565b43603f556000611b644261257d565b90506000611b73826040541090565b9050611b804360016146c3565b6041556000611b8d6123f0565b90506000611b9a436122ee565b90506000611ba760405490565b90508315611c3e57600080611bbc8386612951565b91509150611bcc83868484612d87565b60025460405163129fccc160e01b81526001600160a01b039091169063129fccc190611bfe90889087906004016147ff565b600060405180830381600087803b158015611c1857600080fd5b505af1158015611c2c573d6000803e3d6000fd5b50505050611c3987612e8a565b945050505b611c48858461306a565b81817f0195462033384fec211477c56217da64a58bd405e0bed331ba4ded67e4ae4ce786604051611c7d911515815260200190565b60405180910390a350505060409190915550565b33611ca46000546001600160a01b031690565b6001600160a01b031614611cca5760405162461bcd60e51b8152600401610ac5906147a2565b6007546006548110611d3d5760405162461bcd60e51b815260206004820152603660248201527f43616e6469646174654d616e616765723a2065786365656473206d6178696d756044820152756d206e756d626572206f662063616e6469646174657360501b6064820152608401610ac5565b6001600160a01b03851660009081526008602052604090205415611dc25760405162461bcd60e51b815260206004820152603660248201527f43616e6469646174654d616e616765723a20717565727920666f7220616c7265604482015275616479206578697374656e742063616e64696461746560501b6064820152608401610ac5565b612710821115611e255760405162461bcd60e51b815260206004820152602860248201527f43616e6469646174654d616e616765723a20696e76616c696420636f6d697373604482015267696f6e207261746560c01b6064820152608401610ac5565b6001600160a01b038581166000818152600860209081526040808320861990556007805460018082019092557fa66cc928b5edb82af9bd49922954155ab7b0942694bea4ce44661d9a8736c6880180546001600160a01b03199081168717909155825160e0810184528d881681528085018781528c89168286019081528c8a1660608401908152608084018d815260001960a0860190815288518b8152808b018a5260c087019081529b8b5260098a5297909920845181548716908d16178155925195830180548616968c1696909617909555516002820180548516918b169190911790559251600384018054909316981697909717905592516004840155516005830155915180519192611f4292600685019290910190613f2d565b50506040516001600160a01b038581168252808916925086811691908816907fd690f592ed983cfbc05717fbcf06c4e10ae328432c309fe49246cf4a4be69fcd9060200160405180910390a4505050505050565b60006001603e54611fa79190614501565b603e54611fb49084614821565b1492915050565b6000806000611fca8443612018565b9250925092509193909250565b611fdf61258c565b6001600160a01b0316336001600160a01b03161461200f5760405162461bcd60e51b8152600401610ac59061459f565b610d7681612795565b6001600160a01b038216600090815260496020526040812054819081908481101561204e57600080600093509350935050612094565b6001935061205c8582614501565b6120679060016146c3565b9250612072856122ee565b61207b826122ee565b6120859190614501565b6120909060016146c3565b9150505b9250925092565b6060826001600160401b038111156120b5576120b56145e1565b6040519080825280602002602001820160405280156120de578160200160208202803683370190505b50905060005b838110156121505761211c858583818110612101576121016145f7565b90506020020160208101906121169190614072565b846128f3565b82828151811061212e5761212e6145f7565b91151560209283029190910190910152806121488161460d565b9150506120e4565b509392505050565b60606042546001600160401b03811115612174576121746145e1565b60405190808252806020026020018201604052801561219d578160200160208202803683370190505b50905060005b8151811015611711576000818152604360209081526040808320546001600160a01b03908116845260099092529091206003015483519116908390839081106121ee576121ee6145f7565b6001600160a01b0390921660209283029190910190910152806122108161460d565b9150506121a3565b61222061258c565b6001600160a01b0316336001600160a01b0316146122505760405162461bcd60e51b8152600401610ac59061459f565b610d76816126f9565b61226161258c565b6001600160a01b0316336001600160a01b0316146122915760405162461bcd60e51b8152600401610ac59061459f565b610d768161260f565b6000805b604254811015611711576000818152604360205260409020546122c9906001600160a01b03166118a2565b156122dc57816122d88161460d565b9250505b806122e68161460d565b91505061229e565b6000603e54826122fe919061478e565b6118dc9060016146c3565b61231161258c565b6001600160a01b0316336001600160a01b0316146123415760405162461bcd60e51b8152600401610ac59061459f565b610d768161265d565b6000805b6042548110156123a9576000818152604360209081526040808320546001600160a01b0390811684526009909252909120600301548116908416141561239757600191506123a9565b806123a18161460d565b91505061234e565b50919050565b6123b761258c565b6001600160a01b0316336001600160a01b0316146123e75760405162461bcd60e51b8152600401610ac59061459f565b610d7681612747565b60606042546001600160401b0381111561240c5761240c6145e1565b604051908082528060200260200182016040528015612435578160200160208202803683370190505b50905060005b81518110156117115760008181526043602052604090205482516001600160a01b0390911690839083908110612473576124736145f7565b6001600160a01b0390921660209283029190910190910152806124958161460d565b91505061243b565b606060078054806020026020016040519081016040528092919081815260200182805480156124f557602002820191906000526020600020905b81546001600160a01b031681526001909101906020018083116124d7575b5050505050905090565b61250761258c565b6001600160a01b0316336001600160a01b0316146125375760405162461bcd60e51b8152600401610ac59061459f565b610d76816127ff565b6001600160a01b0381166000908152604460205260408120546125769060ff166003811115612571576125716146db565b6132bd565b1592915050565b60006118dc620151808361478e565b7fb53127684a568b3173ae13b9f8a6016e243e63b6e8ee1178d6a717850b5d6103546001600160a01b031690565b600280546001600160a01b0319166001600160a01b0383169081179091556040519081527faa5b07dd43aa44c69b70a6a2b9c3fcfed12b6e5f6323596ba7ac91035ab80a4f906020015b60405180910390a150565b600080546001600160a01b0319166001600160a01b0383169081179091556040519081527f6397f5b135542bb3f477cb346cfab5abdec1251d08dc8f8d4efb4ffe122ea0bf90602001612604565b600180546001600160a01b0319166001600160a01b0383169081179091556040519081527fc328090a37d855191ab58469296f98f87a851ca57d5cdfd1e9ac3c83e9e7096d90602001612604565b600380546001600160a01b0319166001600160a01b0383169081179091556040519081527f31a33f126a5bae3c5bdf6cfc2cd6dcfffe2fe9634bdb09e21c44762993889e3b90602001612604565b600580546001600160a01b0319166001600160a01b0383169081179091556040519081527f034c8da497df28467c79ddadbba1cc3cdd41f510ea73faae271e6f16a611162190602001612604565b600480546001600160a01b0319166001600160a01b0383169081179091556040519081527ffd6f5f93d69a07c593a09be0b208bff13ab4ffd6017df3b33433d63bdc59b4d790602001612604565b603d8190556040518181527fb5464c05fd0e0f000c535850116cda2742ee1f7b34384cb920ad7b8e802138b590602001612604565b60068190556040518181527f82d5dc32d1b741512ad09c32404d7e7921e8934c6222343d95f55f7a2b9b2ab490602001612604565b603d5481111561289d5760405162461bcd60e51b815260206004820152605960248201527f526f6e696e56616c696461746f725365743a2063616e6e6f7420736574206e7560448201527f6d626572206f66207072696f726974697a65642067726561746572207468616e60648201527f206e756d626572206f66206d61782076616c696461746f727300000000000000608482015260a401610ac5565b60458190556040518181527fa9588dc77416849bd922605ce4fc806712281ad8a8f32d4238d6c8cca548e15e90602001612604565b6001600160a01b0381166000908152604960205260408120544311156118dc565b6001600160a01b03919091166000908152604660209081526040808320938352929052205460ff1690565b6000816003811115612932576129326146db565b836003811115612944576129446146db565b1660ff1615159392505050565b6000606082516001600160401b0381111561296e5761296e6145e1565b604051908082528060200260200182016040528015612997578160200160208202803683370190505b5060055460405163889998ef60e01b81526004810187905291925060009182916001600160a01b0316908290829063889998ef9060240160206040518083038186803b1580156129e657600080fd5b505afa1580156129fa573d6000803e3d6000fd5b505050506040513d601f19601f82011682018060405250810190612a1e9190614835565b60405163033cdc2b60e31b8152600481018a90529091506000906001600160a01b038416906319e6e1589060240160206040518083038186803b158015612a6457600080fd5b505afa158015612a78573d6000803e3d6000fd5b505050506040513d601f19601f82011682018060405250810190612a9c9190614835565b90506000836001600160a01b03166357daa1708b8b6040518363ffffffff1660e01b8152600401612ace92919061484e565b60006040518083038186803b158015612ae657600080fd5b505afa158015612afa573d6000803e3d6000fd5b505050506040513d6000823e601f3d908101601f19168201604052612b2291908101906148c2565b90506000806000600260009054906101000a90046001600160a01b03166001600160a01b0316631079402a6040518163ffffffff1660e01b815260040160606040518083038186803b158015612b7757600080fd5b505afa158015612b8b573d6000803e3d6000fd5b505050506040513d601f19601f82011682018060405250810190612baf9190614957565b92509250925060005b8c51811015612d70578c8181518110612bd357612bd36145f7565b60200260200101519950600960008b6001600160a01b03166001600160a01b0316815260200190815260200160002060020160009054906101000a90046001600160a01b03169850612c448e8b878481518110612c3257612c326145f7565b6020026020010151898b8989896132db565b612c748a8f6001600160a01b03919091166000908152604860209081526040808320938352929052205460ff1690565b612ca2576001600160a01b03808b16600090815260096020526040902060030154612ca2918c91168b6134f7565b612cab8a6128d2565b158015612cbf5750612cbd8a8f6128f3565b155b15612d2e576001600160a01b038a166000908152604b6020526040902054612ce7908d6146c3565b6001600160a01b038b166000908152604b60205260409020548c51919d50908c9083908110612d1857612d186145f7565b602002602001018181525050612d2e8a8a6135da565b6001600160a01b038a166000908152604b60209081526040808320839055604a8252808320839055604d90915281205580612d688161460d565b915050612bb8565b50604c600090555050505050505050509250929050565b6000546001600160a01b03168215612e8257612da381846136a4565b15612e4957604051633b8cb16b60e01b81526001600160a01b03821690633b8cb16b90612dd890879086908a906004016149b5565b600060405180830381600087803b158015612df257600080fd5b505af1158015612e06573d6000803e3d6000fd5b505050507feb09b8cc1cefa77cd4ec30003e6364cf60afcedd20be8c09f26e717788baf13983604051612e3b91815260200190565b60405180910390a150612e84565b604080518481524760208201527f0752cb1e4b6fb7b2beb1cf423d908acaec7acfb7782e67a88d158351b1c0c4a5910160405180910390a15b505b50505050565b6060612e94613700565b600080546040516357e5970160e11b81526001600160a01b039091169063afcb2e0290612ec690600790600401614a29565b60006040518083038186803b158015612ede57600080fd5b505afa158015612ef2573d6000803e3d6000fd5b505050506040513d6000823e601f3d908101601f19168201604052612f1a91908101906148c2565b60048054604051632907e73160e11b81529293506000926001600160a01b039091169163520fce6291612f509160079101614a29565b60006040518083038186803b158015612f6857600080fd5b505afa158015612f7c573d6000803e3d6000fd5b505050506040513d6000823e601f3d908101601f19168201604052612fa491908101906148c2565b90506000613013600780548060200260200160405190810160405280929190818152602001828054801561300157602002820191906000526020600020905b81546001600160a01b03168152600190910190602001808311612fe3575b50505050508484603d54604554613a1c565b9094509050613023848287613b3b565b847f8d7d519e81c2b8dc67b44fd645fd2c8805110d9ab1d643e3dd68b622bde331ff61304d612158565b60405161305a919061430a565b60405180910390a2505050919050565b6003546000906001600160a01b031663f0a46709600761308b4360016146c3565b6040518363ffffffff1660e01b81526004016130a8929190614a3c565b60006040518083038186803b1580156130c057600080fd5b505afa1580156130d4573d6000803e3d6000fd5b505050506040513d6000823e601f3d908101601f191682016040526130fc9190810190614a4f565b905060005b825181101561328557600083828151811061311e5761311e6145f7565b602002602001015190506000613133826118a2565b90506000613140836128d2565b806131615750848481518110613158576131586145f7565b60200260200101515b1590508115801561316f5750805b156131ed576001600160a01b0383166000908152604460205260409020546131ae9060019060ff1660038111156131a8576131a86146db565b90613cc1565b6001600160a01b0384166000908152604460205260409020805460ff191660018360038111156131e0576131e06146db565b0217905550505050613273565b8180156131f8575080155b1561326f576001600160a01b0383166000908152604460205260409020546132379060019060ff166003811115613231576132316146db565b90613cfc565b6001600160a01b0384166000908152604460205260409020805460ff19166001836003811115613269576132696146db565b02179055505b5050505b8061327d8161460d565b915050613101565b50827f60324bb9c8b0d077621d76762c52d6cc937043427992a2f6a602b449315922ef6132b0610fde565b604051611a2d919061430a565b60008160038111156132d1576132d16146db565b60ff161592915050565b831580156132e7575084155b1561331a57604254604c546132fc919061478e565b6001600160a01b0388166000908152604d60205260409020556134ed565b60008561332961271089614759565b613333919061478e565b9050600061334382612710614501565b905083811115613431576001600160a01b03891660008181526048602090815260408083208e845282528083208054600160ff199182168117909255948452604683528184208f855290925290912080549092161790556133c56133a784436146c3565b6001600160a01b038b16600090815260496020526040902054613d38565b6001600160a01b038a166000818152604960209081526040808320859055805194855290840191909152600190830181905260608301528b917f54ce99c5ce1fc9f61656d4a0fb2697974d0c973ac32eecaefe06fcf18b8ef68a906080015b60405180910390a36134ea565b848111156134bc576001600160a01b03891660008181526048602090815260408083208e84528252808320805460ff19166001908117909155848452604983528184205482519081529283018490529082019290925260608101919091528b91907f54ce99c5ce1fc9f61656d4a0fb2697974d0c973ac32eecaefe06fcf18b8ef68a90608001613424565b85156134ea5785604c546134d0919061478e565b6001600160a01b038a166000908152604d60205260409020555b50505b5050505050505050565b6001600160a01b0383166000908152604d60205260409020548015612e845761352082826136a4565b1561358257816001600160a01b0316836001600160a01b0316856001600160a01b03167f72a57dc38837a1cba7881b7b1a5594d9e6b65cec6a985b54e2cee3e89369691c8460405161357491815260200190565b60405180910390a450505050565b816001600160a01b0316836001600160a01b0316856001600160a01b03167fd35d76d87d51ed89407fc7ceaaccf32cf72784b94530892ce33546540e141b728447604051613574929190918252602082015260400190565b6001600160a01b0382166000908152604a6020526040902054801561369f5761360382826136a4565b1561365a57816001600160a01b0316836001600160a01b03167f1ce7a1c4702402cd393500acb1de5bd927727a54e144a587d328f1b679abe4ec8360405161364d91815260200190565b60405180910390a3505050565b604080518281524760208201526001600160a01b0380851692908616917f6c69e09ee5c5ac33c0cd57787261c5bade070a392ab34a4b5487c6868f723f6e910161364d565b505050565b6000826001600160a01b03168260405160006040518083038185875af1925050503d80600081146136f1576040519150601f19603f3d011682016040523d82523d6000602084013e6136f6565b606091505b5090949350505050565b600080546040805163909791dd60e01b815290516001600160a01b039092169291839163909791dd916004808301926020929190829003018186803b15801561374857600080fd5b505afa15801561375c573d6000803e3d6000fd5b505050506040513d601f19601f820116820180604052508101906137809190614835565b90506000826001600160a01b031663017dd95060076040518263ffffffff1660e01b81526004016137b19190614a29565b60006040518083038186803b1580156137c957600080fd5b505afa1580156137dd573d6000803e3d6000fd5b505050506040513d6000823e601f3d908101601f1916820160405261380591908101906148c2565b600754909150600080826001600160401b03811115613826576138266145e1565b60405190808252806020026020018201604052801561384f578160200160208202803683370190505b5090506000805b848110156139785760078181548110613871576138716145f7565b9060005260206000200160009054906101000a90046001600160a01b03169150868682815181106138a4576138a46145f7565b602002602001015110806138d357506001600160a01b0382166000908152600960205260409020600501544210155b1561396657856138e286614adb565b955085815181106138f5576138f56145f7565b602002602001015186828151811061390f5761390f6145f7565b60209081029190910101528183856139268161460d565b965081518110613938576139386145f7565b60200260200101906001600160a01b031690816001600160a01b03168152505061396182613d4f565b613856565b806139708161460d565b915050613856565b50508115613a14578181527f4eaf233b9dc25a5552c1927feee1412eea69add17c2485c831c2e60e234f3c91816040516139b2919061430a565b60405180910390a16040516374d62f0360e11b81526001600160a01b0387169063e9ac5e06906139e690849060040161430a565b600060405180830381600087803b158015613a0057600080fd5b505af11580156134ea573d6000803e3d6000fd5b505050505050565b60606000806068905060008888888888604051602401613a40959493929190614af2565b60408051601f19818403018152919052602080820180516001600160e01b0316633bca0a8960e11b17905281518b519293506001929091600091613a8391614759565b613a8e9060406146c3565b90506020840181888483895afa613aa457600093505b503d613aaf57600092505b60208701965082613b285760405162461bcd60e51b815260206004820152603960248201527f507265636f6d70696c6555736167655069636b56616c696461746f725365743a60448201527f2063616c6c20746f20707265636f6d70696c65206661696c73000000000000006064820152608401610ac5565b8651955050505050509550959350505050565b815b604254811015613b9957600081815260436020818152604080842080546001600160a01b0316855260448352908420805460ff19169055928490525280546001600160a01b031916905580613b918161460d565b915050613b3d565b506000805b83811015613c7b576000858281518110613bba57613bba6145f7565b602090810291909101810151600085815260439092526040909120549091506001600160a01b0380831691161415613bff5782613bf68161460d565b93505050613c69565b600083815260436020818152604080842080546001600160a01b03908116865260448452828620805460ff19908116909155908716808752928620805490911660031790559387905291905281546001600160a01b03191617905582613c648161460d565b935050505b80613c738161460d565b915050613b9e565b5080604281905550817f3d0eea40644a206ec25781dd5bb3b60eb4fa1264b993c3bddf3c73b14f29ef5e85604051613cb3919061430a565b60405180910390a250505050565b6000816003811115613cd557613cd56146db565b836003811115613ce757613ce76146db565b1760ff166003811115610beb57610beb6146db565b6000816003811115613d1057613d106146db565b19836003811115613d2357613d236146db565b1660ff166003811115610beb57610beb6146db565b600081831015613d485781610beb565b5090919050565b6001600160a01b03811660009081526008602052604090205480613d71575050565b6001600160a01b038216600090815260096020526040812080546001600160a01b0319908116825560018201805482169055600282018054821690556003820180549091169055600481018290556005810182905590613dd46006830182613fad565b50506001600160a01b038216600090815260086020526040812081905560078054613e0190600190614501565b81548110613e1157613e116145f7565b6000918252602090912001546001600160a01b03908116915083168114613e94576001600160a01b0381166000908152600860205260409020829055600780548291908419908110613e6557613e656145f7565b9060005260206000200160006101000a8154816001600160a01b0302191690836001600160a01b031602179055505b6007805480613ea557613ea5614b40565b600082815260209020810160001990810180546001600160a01b0319169055019055505050565b6040518060e0016040528060006001600160a01b0316815260200160006001600160a01b0316815260200160006001600160a01b0316815260200160006001600160a01b031681526020016000815260200160008152602001606081525090565b828054613f399061456a565b90600052602060002090601f016020900481019282613f5b5760008555613fa1565b82601f10613f7457805160ff1916838001178555613fa1565b82800160010185558215613fa1579182015b82811115613fa1578251825591602001919060010190613f86565b50611711929150613fe3565b508054613fb99061456a565b6000825580601f10613fc9575050565b601f016020900490600052602060002090810190610d7691905b5b808211156117115760008155600101613fe4565b6001600160a01b0381168114610d7657600080fd5b6000806040838503121561402057600080fd5b823561402b81613ff8565b9150602083013561403b81613ff8565b809150509250929050565b6000806040838503121561405957600080fd5b823561406481613ff8565b946020939093013593505050565b60006020828403121561408457600080fd5b8135610beb81613ff8565b600060018060a01b038083511684526020818185015116818601528160408501511660408601528160608501511660608601526080840151608086015260a084015160a086015260c0840151915060e060c086015281518060e087015260005b8181101561410c57838101830151878201610100015282016140ef565b8181111561411f57600061010083890101525b50601f01601f19169490940161010001949350505050565b602081526000610beb602083018461408f565b6000806000806000806000806000806101408b8d03121561416a57600080fd5b8a3561417581613ff8565b995060208b013561418581613ff8565b985060408b013561419581613ff8565b975060608b01356141a581613ff8565b965060808b01356141b581613ff8565b955060a08b01356141c581613ff8565b999c989b5096999598949794965050505060c08301359260e08101359261010082013592506101209091013590565b60008083601f84011261420657600080fd5b5081356001600160401b0381111561421d57600080fd5b6020830191508360208260051b850101111561423857600080fd5b9250929050565b6000806020838503121561425257600080fd5b82356001600160401b0381111561426857600080fd5b614274858286016141f4565b90969095509350505050565b6020808252825182820181905260009190848201906040850190845b818110156142ba57835115158352928401929184019160010161429c565b50909695505050505050565b600081518084526020808501945080840160005b838110156142ff5781516001600160a01b0316875295820195908201906001016142da565b509495945050505050565b602081526000610beb60208301846142c6565b60006020828403121561432f57600080fd5b5035919050565b6000602080830181845280855180835260408601915060408160051b870101925083870160005b8281101561438b57603f1988860301845261437985835161408f565b9450928501929085019060010161435d565b5092979650505050505050565b6000806000606084860312156143ad57600080fd5b83356143b881613ff8565b95602085013595506040909401359392505050565b600080600080600060a086880312156143e557600080fd5b85356143f081613ff8565b9450602086013561440081613ff8565b9350604086013561441081613ff8565b9250606086013561442081613ff8565b949793965091946080013592915050565b60008060006040848603121561444657600080fd5b83356001600160401b0381111561445c57600080fd5b614468868287016141f4565b909790965060209590950135949350505050565b60208082526049908201527f486173536c617368496e64696361746f72436f6e74726163743a206d6574686f60408201527f642063616c6c6572206d75737420626520736c61736820696e64696361746f726060820152680818dbdb9d1c9858dd60ba1b608082015260a00190565b634e487b7160e01b600052601160045260246000fd5b600082821015614513576145136144eb565b500390565b60208082526032908201527f43616e6469646174654d616e616765723a20717565727920666f72206e6f6e2d6040820152716578697374656e742063616e64696461746560701b606082015260800190565b600181811c9082168061457e57607f821691505b602082108114156123a957634e487b7160e01b600052602260045260246000fd5b60208082526022908201527f48617350726f787941646d696e3a20756e617574686f72697a65642073656e6460408201526132b960f11b606082015260800190565b634e487b7160e01b600052604160045260246000fd5b634e487b7160e01b600052603260045260246000fd5b6000600019821415614621576146216144eb565b5060010190565b60208082526031908201527f526f6e696e56616c696461746f725365743a206d6574686f642063616c6c6572604082015270206d75737420626520636f696e6261736560781b606082015260800190565b8051801515811461468957600080fd5b919050565b6000806000606084860312156146a357600080fd5b6146ac84614679565b925060208401519150604084015190509250925092565b600082198211156146d6576146d66144eb565b500190565b634e487b7160e01b600052602160045260246000fd5b828152604081016003831061471657634e487b7160e01b600052602160045260246000fd5b8260208301529392505050565b6000806000806080858703121561473957600080fd5b505082516020840151604085015160609095015191969095509092509050565b6000816000190483118215151615614773576147736144eb565b500290565b634e487b7160e01b600052601260045260246000fd5b60008261479d5761479d614778565b500490565b60208082526039908201527f4861735374616b696e674d616e616765723a206d6574686f642063616c6c657260408201527f206d757374206265207374616b696e6720636f6e747261637400000000000000606082015260800190565b60408152600061481260408301856142c6565b90508260208301529392505050565b60008261483057614830614778565b500690565b60006020828403121561484757600080fd5b5051919050565b82815260406020820152600061486760408301846142c6565b949350505050565b604051601f8201601f191681016001600160401b0381118282101715614897576148976145e1565b604052919050565b60006001600160401b038211156148b8576148b86145e1565b5060051b60200190565b600060208083850312156148d557600080fd5b82516001600160401b038111156148eb57600080fd5b8301601f810185136148fc57600080fd5b805161490f61490a8261489f565b61486f565b81815260059190911b8201830190838101908783111561492e57600080fd5b928401925b8284101561494c57835182529284019290840190614933565b979650505050505050565b60008060006060848603121561496c57600080fd5b8351925060208401519150604084015190509250925092565b600081518084526020808501945080840160005b838110156142ff57815187529582019590820190600101614999565b6060815260006149c860608301866142c6565b82810360208401526149da8186614985565b915050826040830152949350505050565b6000815480845260208085019450836000528060002060005b838110156142ff5781546001600160a01b031687529582019560019182019101614a04565b602081526000610beb60208301846149eb565b60408152600061481260408301856149eb565b60006020808385031215614a6257600080fd5b82516001600160401b03811115614a7857600080fd5b8301601f81018513614a8957600080fd5b8051614a9761490a8261489f565b81815260059190911b82018301908381019087831115614ab657600080fd5b928401925b8284101561494c57614acc84614679565b82529284019290840190614abb565b600081614aea57614aea6144eb565b506000190190565b60a081526000614b0560a08301886142c6565b8281036020840152614b178188614985565b90508281036040840152614b2b8187614985565b60608401959095525050608001529392505050565b634e487b7160e01b600052603160045260246000fdfea2646970667358221220107d3aec95fa9ef67b0f26393d90289be8c579a54c095a1ddbab8117eefcd4da64736f6c63430008090033",
  "devdoc": {
    "kind": "dev",
    "methods": {
      "_isPeriodEnding(uint256)": {
        "details": "See {IRoninValidatorSet-isPeriodEnding}"
      },
      "bridgeTrackingContract()": {
        "details": "Returns the bridge tracking contract."
      },
      "bulkJailed(address[])": {
        "details": "Returns whether the validators are put in jail (cannot join the set of validators) during the current period."
      },
      "currentPeriod()": {
        "details": "Returns the period index from the current block."
      },
      "currentPeriodStartAtBlock()": {
        "details": "Returns the block number that the current period starts at."
      },
      "epochEndingAt(uint256)": {
        "details": "Returns whether the epoch ending is at the block number `_block`."
      },
      "epochOf(uint256)": {
        "details": "Returns the epoch index from the block number."
      },
      "execBailOut(address,uint256)": {
        "details": "Finalize the bailout request from slash indicator contract. Requirements: - The method caller is slash indicator contract. Emits the event `ValidatorUnjailed`."
      },
      "execSlash(address,uint256,uint256)": {
        "details": "Finalize the slash request from slash indicator contract. Requirements: - The method caller is slash indicator contract. Emits the event `ValidatorPunished`."
      },
      "getBlockProducers()": {
        "details": "Returns the current block producer list."
      },
      "getBridgeOperators()": {
        "details": "Returns the current bridge operator list."
      },
      "getCandidateInfo(address)": {
        "details": "Returns the info of a candidate."
      },
      "getCandidateInfos()": {
        "details": "Returns all candidate info."
      },
      "getLastUpdatedBlock()": {
        "details": "Returns the block that validator set was updated."
      },
      "getValidatorCandidates()": {
        "details": "Returns the validator candidate."
      },
      "getValidators()": {
        "details": "Returns the current validator list."
      },
      "grantValidatorCandidate(address,address,address,address,uint256)": {
        "details": "Grants a validator candidate. Requirements: - The method caller is staking contract. Emits the event `CandidateGranted`."
      },
      "initialize(address,address,address,address,address,address,uint256,uint256,uint256,uint256)": {
        "details": "Initializes the contract storage."
      },
      "isBlockProducer(address)": {
        "details": "Returns whether the address is block producer or not."
      },
      "isBridgeOperator(address)": {
        "details": "Returns whether the address is bridge operator or not."
      },
      "isCandidateAdmin(address,address)": {
        "details": "Returns whether the address is the candidate admin."
      },
      "isPeriodEnding()": {
        "details": "Returns whether the period ending at the current block number."
      },
      "isValidator(address)": {
        "details": "Returns whether the address is either a bridge operator or a block producer."
      },
      "isValidatorCandidate(address)": {
        "details": "Returns whether the address is a validator (candidate)."
      },
      "jailed(address)": {
        "details": "Returns whether the validator are put in jail (cannot join the set of validators) during the current period."
      },
      "jailedAtBlock(address,uint256)": {
        "details": "Returns whether the validator are put in jail (cannot join the set of validators) at a specific block."
      },
      "jailedTimeLeft(address)": {
        "details": "Returns whether the validator are put in jail and the number of block and epoch that he still is in the jail."
      },
      "jailedTimeLeftAtBlock(address,uint256)": {
        "details": "Returns whether the validator are put in jail at a specific block and the number of block and epoch that he still is in the jail."
      },
      "maintenanceContract()": {
        "details": "Returns the maintenance contract."
      },
      "maxPrioritizedValidatorNumber()": {
        "details": "Returns the number of reserved slots for prioritized validators"
      },
      "maxValidatorCandidate()": {
        "details": "Returns the maximum number of validator candidate."
      },
      "maxValidatorNumber()": {
        "details": "Returns the maximum number of validators in the epoch"
      },
      "miningRewardDeprecated(address[])": {
        "details": "Returns whether the incoming reward of the block producers are deprecated during the current period."
      },
      "miningRewardDeprecatedAtPeriod(address[],uint256)": {
        "details": "Returns whether the incoming reward of the block producers are deprecated during a specific period."
      },
      "numberOfBlocksInEpoch()": {
        "details": "Returns the number of blocks in a epoch."
      },
      "precompilePickValidatorSetAddress()": {
        "details": "Gets the address of the precompile of picking validator set"
      },
      "precompileSortValidatorsAddress()": {
        "details": "Gets the address of the precompile of sorting validators"
      },
      "requestRevokeCandidate(address,uint256)": {
        "details": "Requests to revoke a validator candidate in next `_secsLeft` seconds. Requirements: - The method caller is staking contract. Emits the event `CandidateRevokedTimestampUpdated`."
      },
      "roninTrustedOrganizationContract()": {
        "details": "Returns the ronin trusted organization contract."
      },
      "setBridgeTrackingContract(address)": {
        "details": "Sets the bridge tracking contract. Requirements: - The method caller is admin. - The new address is a contract. Emits the event `BridgeTrackingContractUpdated`."
      },
      "setMaintenanceContract(address)": {
        "details": "Sets the maintenance contract. Requirements: - The method caller is admin. - The new address is a contract. Emits the event `MaintenanceContractUpdated`."
      },
      "setMaxPrioritizedValidatorNumber(uint256)": {
        "details": "Updates the number of reserved slots for prioritized validators Requirements: - The method caller is admin Emits the event `MaxPrioritizedValidatorNumberUpdated`"
      },
      "setMaxValidatorCandidate(uint256)": {
        "details": "Sets the maximum number of validator candidate. Requirements: - The method caller is admin. Emits the `MaxValidatorCandidateUpdated` event."
      },
      "setMaxValidatorNumber(uint256)": {
        "details": "Updates the max validator number Requirements: - The method caller is admin Emits the event `MaxValidatorNumberUpdated`"
      },
      "setRoninTrustedOrganizationContract(address)": {
        "details": "Sets the ronin trusted organization contract. Requirements: - The method caller is admin. - The new address is a contract. Emits the event `RoninTrustedOrganizationContractUpdated`."
      },
      "setSlashIndicatorContract(address)": {
        "details": "Sets the slash indicator contract. Requirements: - The method caller is admin. - The new address is a contract. Emits the event `SlashIndicatorContractUpdated`."
      },
      "setStakingContract(address)": {
        "details": "Sets the staking contract. Requirements: - The method caller is admin. - The new address is a contract. Emits the event `StakingContractUpdated`."
      },
      "setStakingVestingContract(address)": {
        "details": "Sets the staking vesting contract. Requirements: - The method caller is admin. - The new address is a contract. Emits the event `StakingVestingContractUpdated`."
      },
      "slashIndicatorContract()": {
        "details": "Returns the slash indicator contract."
      },
      "stakingContract()": {
        "details": "Returns the staking contract."
      },
      "stakingVestingContract()": {
        "details": "Returns the staking vesting contract."
      },
      "submitBlockReward()": {
        "details": "Submits reward of the current block. Requirements: - The method caller is coinbase. Emits the event `MiningRewardDeprecated` if the coinbase is slashed or no longer be a block producer. Emits the event `BlockRewardSubmitted` for the valid call."
      },
      "totalBlockProducers()": {
        "details": "Returns total numbers of the block producers."
      },
      "totalBridgeOperators()": {
        "details": "Returns total numbers of the bridge operators."
      },
      "wrapUpEpoch()": {
        "details": "Wraps up the current epoch. Requirements: - The method must be called when the current epoch is ending. - The epoch is not wrapped yet. - The method caller is coinbase. Emits the event `MiningRewardDistributed` when some validator has reward distributed. Emits the event `StakingRewardDistributed` when some staking pool has reward distributed. Emits the event `BlockProducerSetUpdated` when the epoch is wrapped up. Emits the event `BridgeOperatorSetUpdated` when the epoch is wrapped up at period ending. Emits the event `ValidatorSetUpdated` when the epoch is wrapped up at period ending, and the validator set gets updated. Emits the event `WrappedUpEpoch`."
      }
    },
    "stateVariables": {
      "_bridgeOperatingReward": {
        "details": "Mapping from consensus address => pending reward for being bridge operator"
      },
      "_bridgeRewardDeprecatedAtPeriod": {
        "details": "Mapping from consensus address => period number => block operator has no pending reward"
      },
      "_currentPeriodStartAtBlock": {
        "details": "The starting block of the last updated period"
      },
      "_delegatingReward": {
        "details": "Mapping from consensus address => pending reward from delegating"
      },
      "_jailedUntil": {
        "details": "Mapping from consensus address => the last block that the validator is jailed"
      },
      "_lastUpdatedBlock": {
        "details": "The last updated block"
      },
      "_lastUpdatedPeriod": {
        "details": "The last updated period"
      },
      "_maxPrioritizedValidatorNumber": {
        "details": "The number of slot that is reserved for prioritized validators"
      },
      "_maxValidatorNumber": {
        "details": "The maximum number of validator."
      },
      "_miningReward": {
        "details": "Mapping from consensus address => pending reward from producing block"
      },
      "_miningRewardBailoutCutOffAtPeriod": {
        "details": "Mapping from consensus address => period number => whether the block producer get cut off reward, due to bailout"
      },
      "_miningRewardDeprecatedAtPeriod": {
        "details": "Mapping from consensus address => period number => block producer has no pending reward"
      },
      "_numberOfBlocksInEpoch": {
        "details": "The number of blocks in a epoch"
      },
      "_periodLength": {
        "details": "Length of period in seconds"
      },
      "_totalBridgeReward": {
        "details": "The total reward for bridge operators"
      },
      "_validatorMap": {
        "details": "Mapping from address => flag indicating the validator ability: producing block, operating bridge"
      },
      "_validators": {
        "details": "Mapping from validator index => validator address"
      },
      "validatorCount": {
        "details": "The total of validators"
      }
    },
    "version": 1
  },
  "userdoc": {
    "kind": "user",
    "methods": {
      "totalBridgeOperators()": {
        "notice": "Notice: A validator is always a bride operator"
      }
    },
    "version": 1
  },
  "storageLayout": {
    "storage": [
      {
        "astId": 6168,
        "contract": "contracts/ronin/validator/RoninValidatorSet.sol:RoninValidatorSet",
        "label": "_stakingContract",
        "offset": 0,
        "slot": "0",
        "type": "t_contract(IStaking)10973"
      },
      {
        "astId": 6238,
        "contract": "contracts/ronin/validator/RoninValidatorSet.sol:RoninValidatorSet",
        "label": "_stakingVestingContract",
        "offset": 0,
        "slot": "1",
        "type": "t_contract(IStakingVesting)9984"
      },
      {
        "astId": 6098,
        "contract": "contracts/ronin/validator/RoninValidatorSet.sol:RoninValidatorSet",
        "label": "_slashIndicatorContract",
        "offset": 0,
        "slot": "2",
        "type": "t_contract(ISlashIndicator)10468"
      },
      {
        "astId": 5855,
        "contract": "contracts/ronin/validator/RoninValidatorSet.sol:RoninValidatorSet",
        "label": "_maintenanceContract",
        "offset": 0,
        "slot": "3",
        "type": "t_contract(IMaintenance)9100"
      },
      {
        "astId": 6028,
        "contract": "contracts/ronin/validator/RoninValidatorSet.sol:RoninValidatorSet",
        "label": "_roninTrustedOrganizationContract",
        "offset": 0,
        "slot": "4",
        "type": "t_contract(IRoninTrustedOrganization)9534"
      },
      {
        "astId": 5785,
        "contract": "contracts/ronin/validator/RoninValidatorSet.sol:RoninValidatorSet",
        "label": "_bridgeTrackingContract",
        "offset": 0,
        "slot": "5",
        "type": "t_contract(IBridgeTracking)8610"
      },
      {
        "astId": 25025,
        "contract": "contracts/ronin/validator/RoninValidatorSet.sol:RoninValidatorSet",
        "label": "_maxValidatorCandidate",
        "offset": 0,
        "slot": "6",
        "type": "t_uint256"
      },
      {
        "astId": 25029,
        "contract": "contracts/ronin/validator/RoninValidatorSet.sol:RoninValidatorSet",
        "label": "_candidates",
        "offset": 0,
        "slot": "7",
        "type": "t_array(t_address)dyn_storage"
      },
      {
        "astId": 25034,
        "contract": "contracts/ronin/validator/RoninValidatorSet.sol:RoninValidatorSet",
        "label": "_candidateIndex",
        "offset": 0,
        "slot": "8",
        "type": "t_mapping(t_address,t_uint256)"
      },
      {
        "astId": 25040,
        "contract": "contracts/ronin/validator/RoninValidatorSet.sol:RoninValidatorSet",
        "label": "_candidateInfo",
        "offset": 0,
        "slot": "9",
        "type": "t_mapping(t_address,t_struct(ValidatorCandidate)8627_storage)"
      },
      {
        "astId": 25045,
        "contract": "contracts/ronin/validator/RoninValidatorSet.sol:RoninValidatorSet",
        "label": "______gap",
        "offset": 0,
        "slot": "10",
        "type": "t_array(t_uint256)50_storage"
      },
      {
        "astId": 1373,
        "contract": "contracts/ronin/validator/RoninValidatorSet.sol:RoninValidatorSet",
        "label": "_initialized",
        "offset": 0,
        "slot": "60",
        "type": "t_uint8"
      },
      {
        "astId": 1376,
        "contract": "contracts/ronin/validator/RoninValidatorSet.sol:RoninValidatorSet",
        "label": "_initializing",
        "offset": 1,
        "slot": "60",
        "type": "t_bool"
      },
      {
        "astId": 25574,
        "contract": "contracts/ronin/validator/RoninValidatorSet.sol:RoninValidatorSet",
        "label": "_maxValidatorNumber",
        "offset": 0,
        "slot": "61",
        "type": "t_uint256"
      },
      {
        "astId": 25577,
        "contract": "contracts/ronin/validator/RoninValidatorSet.sol:RoninValidatorSet",
        "label": "_numberOfBlocksInEpoch",
        "offset": 0,
        "slot": "62",
        "type": "t_uint256"
      },
      {
        "astId": 25580,
        "contract": "contracts/ronin/validator/RoninValidatorSet.sol:RoninValidatorSet",
        "label": "_lastUpdatedBlock",
        "offset": 0,
        "slot": "63",
        "type": "t_uint256"
      },
      {
        "astId": 25583,
        "contract": "contracts/ronin/validator/RoninValidatorSet.sol:RoninValidatorSet",
        "label": "_lastUpdatedPeriod",
        "offset": 0,
        "slot": "64",
        "type": "t_uint256"
      },
      {
        "astId": 25586,
        "contract": "contracts/ronin/validator/RoninValidatorSet.sol:RoninValidatorSet",
        "label": "_currentPeriodStartAtBlock",
        "offset": 0,
        "slot": "65",
        "type": "t_uint256"
      },
      {
        "astId": 25589,
        "contract": "contracts/ronin/validator/RoninValidatorSet.sol:RoninValidatorSet",
        "label": "validatorCount",
        "offset": 0,
        "slot": "66",
        "type": "t_uint256"
      },
      {
        "astId": 25594,
        "contract": "contracts/ronin/validator/RoninValidatorSet.sol:RoninValidatorSet",
        "label": "_validators",
        "offset": 0,
        "slot": "67",
        "type": "t_mapping(t_uint256,t_address)"
      },
      {
        "astId": 25600,
        "contract": "contracts/ronin/validator/RoninValidatorSet.sol:RoninValidatorSet",
        "label": "_validatorMap",
        "offset": 0,
        "slot": "68",
        "type": "t_mapping(t_address,t_enum(ValidatorFlag)11047)"
      },
      {
        "astId": 25603,
        "contract": "contracts/ronin/validator/RoninValidatorSet.sol:RoninValidatorSet",
        "label": "_maxPrioritizedValidatorNumber",
        "offset": 0,
        "slot": "69",
        "type": "t_uint256"
      },
      {
        "astId": 25610,
        "contract": "contracts/ronin/validator/RoninValidatorSet.sol:RoninValidatorSet",
        "label": "_miningRewardDeprecatedAtPeriod",
        "offset": 0,
        "slot": "70",
        "type": "t_mapping(t_address,t_mapping(t_uint256,t_bool))"
      },
      {
        "astId": 25617,
        "contract": "contracts/ronin/validator/RoninValidatorSet.sol:RoninValidatorSet",
        "label": "_miningRewardBailoutCutOffAtPeriod",
        "offset": 0,
        "slot": "71",
        "type": "t_mapping(t_address,t_mapping(t_uint256,t_bool))"
      },
      {
        "astId": 25624,
        "contract": "contracts/ronin/validator/RoninValidatorSet.sol:RoninValidatorSet",
        "label": "_bridgeRewardDeprecatedAtPeriod",
        "offset": 0,
        "slot": "72",
        "type": "t_mapping(t_address,t_mapping(t_uint256,t_bool))"
      },
      {
        "astId": 25629,
        "contract": "contracts/ronin/validator/RoninValidatorSet.sol:RoninValidatorSet",
        "label": "_jailedUntil",
        "offset": 0,
        "slot": "73",
        "type": "t_mapping(t_address,t_uint256)"
      },
      {
        "astId": 25634,
        "contract": "contracts/ronin/validator/RoninValidatorSet.sol:RoninValidatorSet",
        "label": "_miningReward",
        "offset": 0,
        "slot": "74",
        "type": "t_mapping(t_address,t_uint256)"
      },
      {
        "astId": 25639,
        "contract": "contracts/ronin/validator/RoninValidatorSet.sol:RoninValidatorSet",
        "label": "_delegatingReward",
        "offset": 0,
        "slot": "75",
        "type": "t_mapping(t_address,t_uint256)"
      },
      {
        "astId": 25642,
        "contract": "contracts/ronin/validator/RoninValidatorSet.sol:RoninValidatorSet",
        "label": "_totalBridgeReward",
        "offset": 0,
        "slot": "76",
        "type": "t_uint256"
      },
      {
        "astId": 25647,
        "contract": "contracts/ronin/validator/RoninValidatorSet.sol:RoninValidatorSet",
        "label": "_bridgeOperatingReward",
        "offset": 0,
        "slot": "77",
        "type": "t_mapping(t_address,t_uint256)"
      }
    ],
    "types": {
      "t_address": {
        "encoding": "inplace",
        "label": "address",
        "numberOfBytes": "20"
      },
      "t_address_payable": {
        "encoding": "inplace",
        "label": "address payable",
        "numberOfBytes": "20"
      },
      "t_array(t_address)dyn_storage": {
        "base": "t_address",
        "encoding": "dynamic_array",
        "label": "address[]",
        "numberOfBytes": "32"
      },
      "t_array(t_uint256)50_storage": {
        "base": "t_uint256",
        "encoding": "inplace",
        "label": "uint256[50]",
        "numberOfBytes": "1600"
      },
      "t_bool": {
        "encoding": "inplace",
        "label": "bool",
        "numberOfBytes": "1"
      },
      "t_bytes_storage": {
        "encoding": "bytes",
        "label": "bytes",
        "numberOfBytes": "32"
      },
      "t_contract(IBridgeTracking)8610": {
        "encoding": "inplace",
        "label": "contract IBridgeTracking",
        "numberOfBytes": "20"
      },
      "t_contract(IMaintenance)9100": {
        "encoding": "inplace",
        "label": "contract IMaintenance",
        "numberOfBytes": "20"
      },
      "t_contract(IRoninTrustedOrganization)9534": {
        "encoding": "inplace",
        "label": "contract IRoninTrustedOrganization",
        "numberOfBytes": "20"
      },
      "t_contract(ISlashIndicator)10468": {
        "encoding": "inplace",
        "label": "contract ISlashIndicator",
        "numberOfBytes": "20"
      },
      "t_contract(IStaking)10973": {
        "encoding": "inplace",
        "label": "contract IStaking",
        "numberOfBytes": "20"
      },
      "t_contract(IStakingVesting)9984": {
        "encoding": "inplace",
        "label": "contract IStakingVesting",
        "numberOfBytes": "20"
      },
      "t_enum(ValidatorFlag)11047": {
        "encoding": "inplace",
        "label": "enum EnumFlags.ValidatorFlag",
        "numberOfBytes": "1"
      },
      "t_mapping(t_address,t_enum(ValidatorFlag)11047)": {
        "encoding": "mapping",
        "key": "t_address",
        "label": "mapping(address => enum EnumFlags.ValidatorFlag)",
        "numberOfBytes": "32",
        "value": "t_enum(ValidatorFlag)11047"
      },
      "t_mapping(t_address,t_mapping(t_uint256,t_bool))": {
        "encoding": "mapping",
        "key": "t_address",
        "label": "mapping(address => mapping(uint256 => bool))",
        "numberOfBytes": "32",
        "value": "t_mapping(t_uint256,t_bool)"
      },
      "t_mapping(t_address,t_struct(ValidatorCandidate)8627_storage)": {
        "encoding": "mapping",
        "key": "t_address",
        "label": "mapping(address => struct ICandidateManager.ValidatorCandidate)",
        "numberOfBytes": "32",
        "value": "t_struct(ValidatorCandidate)8627_storage"
      },
      "t_mapping(t_address,t_uint256)": {
        "encoding": "mapping",
        "key": "t_address",
        "label": "mapping(address => uint256)",
        "numberOfBytes": "32",
        "value": "t_uint256"
      },
      "t_mapping(t_uint256,t_address)": {
        "encoding": "mapping",
        "key": "t_uint256",
        "label": "mapping(uint256 => address)",
        "numberOfBytes": "32",
        "value": "t_address"
      },
      "t_mapping(t_uint256,t_bool)": {
        "encoding": "mapping",
        "key": "t_uint256",
        "label": "mapping(uint256 => bool)",
        "numberOfBytes": "32",
        "value": "t_bool"
      },
      "t_struct(ValidatorCandidate)8627_storage": {
        "encoding": "inplace",
        "label": "struct ICandidateManager.ValidatorCandidate",
        "members": [
          {
            "astId": 8614,
            "contract": "contracts/ronin/validator/RoninValidatorSet.sol:RoninValidatorSet",
            "label": "admin",
            "offset": 0,
            "slot": "0",
            "type": "t_address"
          },
          {
            "astId": 8616,
            "contract": "contracts/ronin/validator/RoninValidatorSet.sol:RoninValidatorSet",
            "label": "consensusAddr",
            "offset": 0,
            "slot": "1",
            "type": "t_address"
          },
          {
            "astId": 8618,
            "contract": "contracts/ronin/validator/RoninValidatorSet.sol:RoninValidatorSet",
            "label": "treasuryAddr",
            "offset": 0,
            "slot": "2",
            "type": "t_address_payable"
          },
          {
            "astId": 8620,
            "contract": "contracts/ronin/validator/RoninValidatorSet.sol:RoninValidatorSet",
            "label": "bridgeOperatorAddr",
            "offset": 0,
            "slot": "3",
            "type": "t_address"
          },
          {
            "astId": 8622,
            "contract": "contracts/ronin/validator/RoninValidatorSet.sol:RoninValidatorSet",
            "label": "commissionRate",
            "offset": 0,
            "slot": "4",
            "type": "t_uint256"
          },
          {
            "astId": 8624,
            "contract": "contracts/ronin/validator/RoninValidatorSet.sol:RoninValidatorSet",
            "label": "revokedTimestamp",
            "offset": 0,
            "slot": "5",
            "type": "t_uint256"
          },
          {
            "astId": 8626,
            "contract": "contracts/ronin/validator/RoninValidatorSet.sol:RoninValidatorSet",
            "label": "extraData",
            "offset": 0,
            "slot": "6",
            "type": "t_bytes_storage"
          }
        ],
        "numberOfBytes": "224"
      },
      "t_uint256": {
        "encoding": "inplace",
        "label": "uint256",
        "numberOfBytes": "32"
      },
      "t_uint8": {
        "encoding": "inplace",
        "label": "uint8",
        "numberOfBytes": "1"
      }
    }
  }
}