{
  "address": "0x0362Ab3e6A48d363de1E8E4FdE7bfc3104ABE697",
  "abi": [
    {
      "inputs": [
        {
          "internalType": "uint256",
          "name": "_roninChainId",
          "type": "uint256"
        },
        {
          "internalType": "address",
          "name": "_roninTrustedOrganizationContract",
          "type": "address"
        },
        {
          "internalType": "address",
          "name": "_bridgeContract",
          "type": "address"
        },
        {
          "internalType": "address",
          "name": "_validatorContract",
          "type": "address"
        },
        {
          "internalType": "uint256",
          "name": "_proposalExpiryDuration",
          "type": "uint256"
        }
      ],
      "stateMutability": "nonpayable",
      "type": "constructor"
    },
    {
      "inputs": [],
      "name": "ErrCallerMustBeBridgeContract",
      "type": "error"
    },
    {
      "inputs": [],
      "name": "ErrCallerMustBeRoninTrustedOrgContract",
      "type": "error"
    },
    {
      "inputs": [],
      "name": "ErrCallerMustBeValidatorContract",
      "type": "error"
    },
    {
      "inputs": [
        {
          "internalType": "bytes4",
          "name": "methodSignature",
          "type": "bytes4"
        }
      ],
      "name": "ErrProxyCallFailed",
      "type": "error"
    },
    {
      "inputs": [],
      "name": "ErrZeroCodeContract",
      "type": "error"
    },
    {
      "anonymous": false,
      "inputs": [
        {
          "indexed": false,
          "internalType": "address",
          "name": "",
          "type": "address"
        }
      ],
      "name": "BridgeContractUpdated",
      "type": "event"
    },
    {
      "anonymous": false,
      "inputs": [
        {
          "indexed": false,
          "internalType": "uint256",
          "name": "_period",
          "type": "uint256"
        },
        {
          "indexed": false,
          "internalType": "uint256",
          "name": "_epoch",
          "type": "uint256"
        },
        {
          "indexed": false,
          "internalType": "address[]",
          "name": "_operators",
          "type": "address[]"
        }
      ],
      "name": "BridgeOperatorsApproved",
      "type": "event"
    },
    {
      "anonymous": false,
      "inputs": [
        {
          "indexed": false,
          "internalType": "bytes32",
          "name": "_voteHash",
          "type": "bytes32"
        }
      ],
      "name": "EmergencyExitPollApproved",
      "type": "event"
    },
    {
      "anonymous": false,
      "inputs": [
        {
          "indexed": false,
          "internalType": "bytes32",
          "name": "_voteHash",
          "type": "bytes32"
        },
        {
          "indexed": false,
          "internalType": "address",
          "name": "_consensusAddr",
          "type": "address"
        },
        {
          "indexed": false,
          "internalType": "address",
          "name": "_recipientAfterUnlockedFund",
          "type": "address"
        },
        {
          "indexed": false,
          "internalType": "uint256",
          "name": "_requestedAt",
          "type": "uint256"
        },
        {
          "indexed": false,
          "internalType": "uint256",
          "name": "_expiredAt",
          "type": "uint256"
        }
      ],
      "name": "EmergencyExitPollCreated",
      "type": "event"
    },
    {
      "anonymous": false,
      "inputs": [
        {
          "indexed": false,
          "internalType": "bytes32",
          "name": "_voteHash",
          "type": "bytes32"
        }
      ],
      "name": "EmergencyExitPollExpired",
      "type": "event"
    },
    {
      "anonymous": false,
      "inputs": [
        {
          "indexed": true,
          "internalType": "uint256",
          "name": "round",
          "type": "uint256"
        },
        {
          "indexed": true,
          "internalType": "bytes32",
          "name": "proposalHash",
          "type": "bytes32"
        },
        {
          "components": [
            {
              "internalType": "uint256",
              "name": "nonce",
              "type": "uint256"
            },
            {
              "internalType": "uint256",
              "name": "chainId",
              "type": "uint256"
            },
            {
              "internalType": "uint256",
              "name": "expiryTimestamp",
              "type": "uint256"
            },
            {
              "internalType": "address[]",
              "name": "targets",
              "type": "address[]"
            },
            {
              "internalType": "uint256[]",
              "name": "values",
              "type": "uint256[]"
            },
            {
              "internalType": "bytes[]",
              "name": "calldatas",
              "type": "bytes[]"
            },
            {
              "internalType": "uint256[]",
              "name": "gasAmounts",
              "type": "uint256[]"
            }
          ],
          "indexed": false,
          "internalType": "struct Proposal.ProposalDetail",
          "name": "proposal",
          "type": "tuple"
        },
        {
          "indexed": false,
          "internalType": "bytes32",
          "name": "globalProposalHash",
          "type": "bytes32"
        },
        {
          "components": [
            {
              "internalType": "uint256",
              "name": "nonce",
              "type": "uint256"
            },
            {
              "internalType": "uint256",
              "name": "expiryTimestamp",
              "type": "uint256"
            },
            {
              "internalType": "enum GlobalProposal.TargetOption[]",
              "name": "targetOptions",
              "type": "uint8[]"
            },
            {
              "internalType": "uint256[]",
              "name": "values",
              "type": "uint256[]"
            },
            {
              "internalType": "bytes[]",
              "name": "calldatas",
              "type": "bytes[]"
            },
            {
              "internalType": "uint256[]",
              "name": "gasAmounts",
              "type": "uint256[]"
            }
          ],
          "indexed": false,
          "internalType": "struct GlobalProposal.GlobalProposalDetail",
          "name": "globalProposal",
          "type": "tuple"
        },
        {
          "indexed": false,
          "internalType": "address",
          "name": "creator",
          "type": "address"
        }
      ],
      "name": "GlobalProposalCreated",
      "type": "event"
    },
    {
      "anonymous": false,
      "inputs": [
        {
          "indexed": true,
          "internalType": "bytes32",
          "name": "proposalHash",
          "type": "bytes32"
        }
      ],
      "name": "ProposalApproved",
      "type": "event"
    },
    {
      "anonymous": false,
      "inputs": [
        {
          "indexed": true,
          "internalType": "uint256",
          "name": "chainId",
          "type": "uint256"
        },
        {
          "indexed": true,
          "internalType": "uint256",
          "name": "round",
          "type": "uint256"
        },
        {
          "indexed": true,
          "internalType": "bytes32",
          "name": "proposalHash",
          "type": "bytes32"
        },
        {
          "components": [
            {
              "internalType": "uint256",
              "name": "nonce",
              "type": "uint256"
            },
            {
              "internalType": "uint256",
              "name": "chainId",
              "type": "uint256"
            },
            {
              "internalType": "uint256",
              "name": "expiryTimestamp",
              "type": "uint256"
            },
            {
              "internalType": "address[]",
              "name": "targets",
              "type": "address[]"
            },
            {
              "internalType": "uint256[]",
              "name": "values",
              "type": "uint256[]"
            },
            {
              "internalType": "bytes[]",
              "name": "calldatas",
              "type": "bytes[]"
            },
            {
              "internalType": "uint256[]",
              "name": "gasAmounts",
              "type": "uint256[]"
            }
          ],
          "indexed": false,
          "internalType": "struct Proposal.ProposalDetail",
          "name": "proposal",
          "type": "tuple"
        },
        {
          "indexed": false,
          "internalType": "address",
          "name": "creator",
          "type": "address"
        }
      ],
      "name": "ProposalCreated",
      "type": "event"
    },
    {
      "anonymous": false,
      "inputs": [
        {
          "indexed": true,
          "internalType": "bytes32",
          "name": "proposalHash",
          "type": "bytes32"
        },
        {
          "indexed": false,
          "internalType": "bool[]",
          "name": "successCalls",
          "type": "bool[]"
        },
        {
          "indexed": false,
          "internalType": "bytes[]",
          "name": "returnDatas",
          "type": "bytes[]"
        }
      ],
      "name": "ProposalExecuted",
      "type": "event"
    },
    {
      "anonymous": false,
      "inputs": [
        {
          "indexed": true,
          "internalType": "bytes32",
          "name": "proposalHash",
          "type": "bytes32"
        }
      ],
      "name": "ProposalExpired",
      "type": "event"
    },
    {
      "anonymous": false,
      "inputs": [
        {
          "indexed": true,
          "internalType": "bytes32",
          "name": "proposalHash",
          "type": "bytes32"
        }
      ],
      "name": "ProposalRejected",
      "type": "event"
    },
    {
      "anonymous": false,
      "inputs": [
        {
          "indexed": true,
          "internalType": "bytes32",
          "name": "proposalHash",
          "type": "bytes32"
        },
        {
          "indexed": true,
          "internalType": "address",
          "name": "voter",
          "type": "address"
        },
        {
          "indexed": false,
          "internalType": "enum Ballot.VoteType",
          "name": "support",
          "type": "uint8"
        },
        {
          "indexed": false,
          "internalType": "uint256",
          "name": "weight",
          "type": "uint256"
        }
      ],
      "name": "ProposalVoted",
      "type": "event"
    },
    {
      "anonymous": false,
      "inputs": [
        {
          "indexed": false,
          "internalType": "address",
          "name": "",
          "type": "address"
        }
      ],
      "name": "RoninTrustedOrganizationContractUpdated",
      "type": "event"
    },
    {
      "anonymous": false,
      "inputs": [
        {
          "indexed": false,
          "internalType": "address",
          "name": "",
          "type": "address"
        }
      ],
      "name": "ValidatorContractUpdated",
      "type": "event"
    },
    {
      "inputs": [],
      "name": "DOMAIN_SEPARATOR",
      "outputs": [
        {
          "internalType": "bytes32",
          "name": "",
          "type": "bytes32"
        }
      ],
      "stateMutability": "view",
      "type": "function"
    },
    {
      "inputs": [],
      "name": "bridgeContract",
      "outputs": [
        {
          "internalType": "address",
          "name": "",
          "type": "address"
        }
      ],
      "stateMutability": "view",
      "type": "function"
    },
    {
      "inputs": [
        {
          "internalType": "uint256",
          "name": "_period",
          "type": "uint256"
        },
        {
          "internalType": "uint256",
          "name": "_epoch",
          "type": "uint256"
        },
        {
          "internalType": "address",
          "name": "_voter",
          "type": "address"
        }
      ],
      "name": "bridgeOperatorsVoted",
      "outputs": [
        {
          "internalType": "bool",
          "name": "",
          "type": "bool"
        }
      ],
      "stateMutability": "view",
      "type": "function"
    },
    {
      "inputs": [
        {
          "components": [
            {
              "internalType": "uint256",
              "name": "nonce",
              "type": "uint256"
            },
            {
              "internalType": "uint256",
              "name": "expiryTimestamp",
              "type": "uint256"
            },
            {
              "internalType": "enum GlobalProposal.TargetOption[]",
              "name": "targetOptions",
              "type": "uint8[]"
            },
            {
              "internalType": "uint256[]",
              "name": "values",
              "type": "uint256[]"
            },
            {
              "internalType": "bytes[]",
              "name": "calldatas",
              "type": "bytes[]"
            },
            {
              "internalType": "uint256[]",
              "name": "gasAmounts",
              "type": "uint256[]"
            }
          ],
          "internalType": "struct GlobalProposal.GlobalProposalDetail",
          "name": "_globalProposal",
          "type": "tuple"
        },
        {
          "internalType": "enum Ballot.VoteType[]",
          "name": "_supports",
          "type": "uint8[]"
        },
        {
          "components": [
            {
              "internalType": "uint8",
              "name": "v",
              "type": "uint8"
            },
            {
              "internalType": "bytes32",
              "name": "r",
              "type": "bytes32"
            },
            {
              "internalType": "bytes32",
              "name": "s",
              "type": "bytes32"
            }
          ],
          "internalType": "struct SignatureConsumer.Signature[]",
          "name": "_signatures",
          "type": "tuple[]"
        }
      ],
      "name": "castGlobalProposalBySignatures",
      "outputs": [],
      "stateMutability": "nonpayable",
      "type": "function"
    },
    {
      "inputs": [
        {
          "components": [
            {
              "internalType": "uint256",
              "name": "nonce",
              "type": "uint256"
            },
            {
              "internalType": "uint256",
              "name": "chainId",
              "type": "uint256"
            },
            {
              "internalType": "uint256",
              "name": "expiryTimestamp",
              "type": "uint256"
            },
            {
              "internalType": "address[]",
              "name": "targets",
              "type": "address[]"
            },
            {
              "internalType": "uint256[]",
              "name": "values",
              "type": "uint256[]"
            },
            {
              "internalType": "bytes[]",
              "name": "calldatas",
              "type": "bytes[]"
            },
            {
              "internalType": "uint256[]",
              "name": "gasAmounts",
              "type": "uint256[]"
            }
          ],
          "internalType": "struct Proposal.ProposalDetail",
          "name": "_proposal",
          "type": "tuple"
        },
        {
          "internalType": "enum Ballot.VoteType[]",
          "name": "_supports",
          "type": "uint8[]"
        },
        {
          "components": [
            {
              "internalType": "uint8",
              "name": "v",
              "type": "uint8"
            },
            {
              "internalType": "bytes32",
              "name": "r",
              "type": "bytes32"
            },
            {
              "internalType": "bytes32",
              "name": "s",
              "type": "bytes32"
            }
          ],
          "internalType": "struct SignatureConsumer.Signature[]",
          "name": "_signatures",
          "type": "tuple[]"
        }
      ],
      "name": "castProposalBySignatures",
      "outputs": [],
      "stateMutability": "nonpayable",
      "type": "function"
    },
    {
      "inputs": [
        {
          "components": [
            {
              "internalType": "uint256",
              "name": "nonce",
              "type": "uint256"
            },
            {
              "internalType": "uint256",
              "name": "chainId",
              "type": "uint256"
            },
            {
              "internalType": "uint256",
              "name": "expiryTimestamp",
              "type": "uint256"
            },
            {
              "internalType": "address[]",
              "name": "targets",
              "type": "address[]"
            },
            {
              "internalType": "uint256[]",
              "name": "values",
              "type": "uint256[]"
            },
            {
              "internalType": "bytes[]",
              "name": "calldatas",
              "type": "bytes[]"
            },
            {
              "internalType": "uint256[]",
              "name": "gasAmounts",
              "type": "uint256[]"
            }
          ],
          "internalType": "struct Proposal.ProposalDetail",
          "name": "_proposal",
          "type": "tuple"
        },
        {
          "internalType": "enum Ballot.VoteType",
          "name": "_support",
          "type": "uint8"
        }
      ],
      "name": "castProposalVoteForCurrentNetwork",
      "outputs": [],
      "stateMutability": "nonpayable",
      "type": "function"
    },
    {
      "inputs": [
        {
          "internalType": "address",
          "name": "_proxy",
          "type": "address"
        },
        {
          "internalType": "address",
          "name": "_newAdmin",
          "type": "address"
        }
      ],
      "name": "changeProxyAdmin",
      "outputs": [],
      "stateMutability": "nonpayable",
      "type": "function"
    },
    {
      "inputs": [
        {
          "internalType": "address",
          "name": "_consensusAddr",
          "type": "address"
        },
        {
          "internalType": "address",
          "name": "_recipientAfterUnlockedFund",
          "type": "address"
        },
        {
          "internalType": "uint256",
          "name": "_requestedAt",
          "type": "uint256"
        },
        {
          "internalType": "uint256",
          "name": "_expiredAt",
          "type": "uint256"
        }
      ],
      "name": "createEmergencyExitPoll",
      "outputs": [],
      "stateMutability": "nonpayable",
      "type": "function"
    },
    {
      "inputs": [
        {
          "internalType": "uint256",
          "name": "_chainId",
          "type": "uint256"
        },
        {
          "internalType": "uint256",
          "name": "_round",
          "type": "uint256"
        }
      ],
      "name": "deleteExpired",
      "outputs": [],
      "stateMutability": "nonpayable",
      "type": "function"
    },
    {
      "inputs": [
        {
          "internalType": "bytes32",
          "name": "_voteHash",
          "type": "bytes32"
        },
        {
          "internalType": "address",
          "name": "_voter",
          "type": "address"
        }
      ],
      "name": "emergencyPollVoted",
      "outputs": [
        {
          "internalType": "bool",
          "name": "",
          "type": "bool"
        }
      ],
      "stateMutability": "view",
      "type": "function"
    },
    {
      "inputs": [
        {
          "internalType": "uint256",
          "name": "_period",
          "type": "uint256"
        },
        {
          "internalType": "uint256",
          "name": "_epoch",
          "type": "uint256"
        }
      ],
      "name": "getBridgeOperatorVotingSignatures",
      "outputs": [
        {
          "internalType": "address[]",
          "name": "_voters",
          "type": "address[]"
        },
        {
          "components": [
            {
              "internalType": "uint8",
              "name": "v",
              "type": "uint8"
            },
            {
              "internalType": "bytes32",
              "name": "r",
              "type": "bytes32"
            },
            {
              "internalType": "bytes32",
              "name": "s",
              "type": "bytes32"
            }
          ],
          "internalType": "struct SignatureConsumer.Signature[]",
          "name": "_signatures",
          "type": "tuple[]"
        }
      ],
      "stateMutability": "view",
      "type": "function"
    },
    {
      "inputs": [],
      "name": "getProposalExpiryDuration",
      "outputs": [
        {
          "internalType": "uint256",
          "name": "",
          "type": "uint256"
        }
      ],
      "stateMutability": "view",
      "type": "function"
    },
    {
      "inputs": [
        {
          "internalType": "uint256",
          "name": "_chainId",
          "type": "uint256"
        },
        {
          "internalType": "uint256",
          "name": "_round",
          "type": "uint256"
        }
      ],
      "name": "getProposalSignatures",
      "outputs": [
        {
          "internalType": "address[]",
          "name": "_voters",
          "type": "address[]"
        },
        {
          "internalType": "enum Ballot.VoteType[]",
          "name": "_supports",
          "type": "uint8[]"
        },
        {
          "components": [
            {
              "internalType": "uint8",
              "name": "v",
              "type": "uint8"
            },
            {
              "internalType": "bytes32",
              "name": "r",
              "type": "bytes32"
            },
            {
              "internalType": "bytes32",
              "name": "s",
              "type": "bytes32"
            }
          ],
          "internalType": "struct SignatureConsumer.Signature[]",
          "name": "_signatures",
          "type": "tuple[]"
        }
      ],
      "stateMutability": "view",
      "type": "function"
    },
    {
      "inputs": [
        {
          "internalType": "address",
          "name": "_proxy",
          "type": "address"
        }
      ],
      "name": "getProxyAdmin",
      "outputs": [
        {
          "internalType": "address",
          "name": "",
          "type": "address"
        }
      ],
      "stateMutability": "view",
      "type": "function"
    },
    {
      "inputs": [
        {
          "internalType": "address",
          "name": "_proxy",
          "type": "address"
        }
      ],
      "name": "getProxyImplementation",
      "outputs": [
        {
          "internalType": "address",
          "name": "",
          "type": "address"
        }
      ],
      "stateMutability": "view",
      "type": "function"
    },
    {
      "inputs": [],
      "name": "lastSyncedBridgeOperatorSetInfo",
      "outputs": [
        {
          "components": [
            {
              "internalType": "uint256",
              "name": "period",
              "type": "uint256"
            },
            {
              "internalType": "uint256",
              "name": "epoch",
              "type": "uint256"
            },
            {
              "internalType": "address[]",
              "name": "operators",
              "type": "address[]"
            }
          ],
          "internalType": "struct BridgeOperatorsBallot.BridgeOperatorSet",
          "name": "",
          "type": "tuple"
        }
      ],
      "stateMutability": "view",
      "type": "function"
    },
    {
      "inputs": [
        {
          "internalType": "address",
          "name": "_bridgeVoter",
          "type": "address"
        }
      ],
      "name": "lastVotedBlock",
      "outputs": [
        {
          "internalType": "uint256",
          "name": "",
          "type": "uint256"
        }
      ],
      "stateMutability": "view",
      "type": "function"
    },
    {
      "inputs": [
        {
          "internalType": "uint256",
          "name": "_chainId",
          "type": "uint256"
        },
        {
          "internalType": "uint256",
          "name": "_round",
          "type": "uint256"
        },
        {
          "internalType": "address",
          "name": "_voter",
          "type": "address"
        }
      ],
      "name": "proposalVoted",
      "outputs": [
        {
          "internalType": "bool",
          "name": "",
          "type": "bool"
        }
      ],
      "stateMutability": "view",
      "type": "function"
    },
    {
      "inputs": [
        {
          "internalType": "uint256",
          "name": "_chainId",
          "type": "uint256"
        },
        {
          "internalType": "uint256",
          "name": "_expiryTimestamp",
          "type": "uint256"
        },
        {
          "internalType": "address[]",
          "name": "_targets",
          "type": "address[]"
        },
        {
          "internalType": "uint256[]",
          "name": "_values",
          "type": "uint256[]"
        },
        {
          "internalType": "bytes[]",
          "name": "_calldatas",
          "type": "bytes[]"
        },
        {
          "internalType": "uint256[]",
          "name": "_gasAmounts",
          "type": "uint256[]"
        }
      ],
      "name": "propose",
      "outputs": [],
      "stateMutability": "nonpayable",
      "type": "function"
    },
    {
      "inputs": [
        {
          "internalType": "uint256",
          "name": "_expiryTimestamp",
          "type": "uint256"
        },
        {
          "internalType": "enum GlobalProposal.TargetOption[]",
          "name": "_targetOptions",
          "type": "uint8[]"
        },
        {
          "internalType": "uint256[]",
          "name": "_values",
          "type": "uint256[]"
        },
        {
          "internalType": "bytes[]",
          "name": "_calldatas",
          "type": "bytes[]"
        },
        {
          "internalType": "uint256[]",
          "name": "_gasAmounts",
          "type": "uint256[]"
        }
      ],
      "name": "proposeGlobal",
      "outputs": [],
      "stateMutability": "nonpayable",
      "type": "function"
    },
    {
      "inputs": [
        {
          "components": [
            {
              "internalType": "uint256",
              "name": "nonce",
              "type": "uint256"
            },
            {
              "internalType": "uint256",
              "name": "expiryTimestamp",
              "type": "uint256"
            },
            {
              "internalType": "enum GlobalProposal.TargetOption[]",
              "name": "targetOptions",
              "type": "uint8[]"
            },
            {
              "internalType": "uint256[]",
              "name": "values",
              "type": "uint256[]"
            },
            {
              "internalType": "bytes[]",
              "name": "calldatas",
              "type": "bytes[]"
            },
            {
              "internalType": "uint256[]",
              "name": "gasAmounts",
              "type": "uint256[]"
            }
          ],
          "internalType": "struct GlobalProposal.GlobalProposalDetail",
          "name": "_globalProposal",
          "type": "tuple"
        },
        {
          "internalType": "enum Ballot.VoteType[]",
          "name": "_supports",
          "type": "uint8[]"
        },
        {
          "components": [
            {
              "internalType": "uint8",
              "name": "v",
              "type": "uint8"
            },
            {
              "internalType": "bytes32",
              "name": "r",
              "type": "bytes32"
            },
            {
              "internalType": "bytes32",
              "name": "s",
              "type": "bytes32"
            }
          ],
          "internalType": "struct SignatureConsumer.Signature[]",
          "name": "_signatures",
          "type": "tuple[]"
        }
      ],
      "name": "proposeGlobalProposalStructAndCastVotes",
      "outputs": [],
      "stateMutability": "nonpayable",
      "type": "function"
    },
    {
      "inputs": [
        {
          "internalType": "uint256",
          "name": "_expiryTimestamp",
          "type": "uint256"
        },
        {
          "internalType": "address[]",
          "name": "_targets",
          "type": "address[]"
        },
        {
          "internalType": "uint256[]",
          "name": "_values",
          "type": "uint256[]"
        },
        {
          "internalType": "bytes[]",
          "name": "_calldatas",
          "type": "bytes[]"
        },
        {
          "internalType": "uint256[]",
          "name": "_gasAmounts",
          "type": "uint256[]"
        },
        {
          "internalType": "enum Ballot.VoteType",
          "name": "_support",
          "type": "uint8"
        }
      ],
      "name": "proposeProposalForCurrentNetwork",
      "outputs": [],
      "stateMutability": "nonpayable",
      "type": "function"
    },
    {
      "inputs": [
        {
          "components": [
            {
              "internalType": "uint256",
              "name": "nonce",
              "type": "uint256"
            },
            {
              "internalType": "uint256",
              "name": "chainId",
              "type": "uint256"
            },
            {
              "internalType": "uint256",
              "name": "expiryTimestamp",
              "type": "uint256"
            },
            {
              "internalType": "address[]",
              "name": "targets",
              "type": "address[]"
            },
            {
              "internalType": "uint256[]",
              "name": "values",
              "type": "uint256[]"
            },
            {
              "internalType": "bytes[]",
              "name": "calldatas",
              "type": "bytes[]"
            },
            {
              "internalType": "uint256[]",
              "name": "gasAmounts",
              "type": "uint256[]"
            }
          ],
          "internalType": "struct Proposal.ProposalDetail",
          "name": "_proposal",
          "type": "tuple"
        },
        {
          "internalType": "enum Ballot.VoteType[]",
          "name": "_supports",
          "type": "uint8[]"
        },
        {
          "components": [
            {
              "internalType": "uint8",
              "name": "v",
              "type": "uint8"
            },
            {
              "internalType": "bytes32",
              "name": "r",
              "type": "bytes32"
            },
            {
              "internalType": "bytes32",
              "name": "s",
              "type": "bytes32"
            }
          ],
          "internalType": "struct SignatureConsumer.Signature[]",
          "name": "_signatures",
          "type": "tuple[]"
        }
      ],
      "name": "proposeProposalStructAndCastVotes",
      "outputs": [],
      "stateMutability": "nonpayable",
      "type": "function"
    },
    {
      "inputs": [],
      "name": "roninChainId",
      "outputs": [
        {
          "internalType": "uint256",
          "name": "",
          "type": "uint256"
        }
      ],
      "stateMutability": "view",
      "type": "function"
    },
    {
      "inputs": [],
      "name": "roninTrustedOrganizationContract",
      "outputs": [
        {
          "internalType": "address",
          "name": "",
          "type": "address"
        }
      ],
      "stateMutability": "view",
      "type": "function"
    },
    {
      "inputs": [
        {
          "internalType": "uint256",
          "name": "",
          "type": "uint256"
        }
      ],
      "name": "round",
      "outputs": [
        {
          "internalType": "uint256",
          "name": "",
          "type": "uint256"
        }
      ],
      "stateMutability": "view",
      "type": "function"
    },
    {
      "inputs": [
        {
          "internalType": "address",
          "name": "_addr",
          "type": "address"
        }
      ],
      "name": "setBridgeContract",
      "outputs": [],
      "stateMutability": "nonpayable",
      "type": "function"
    },
    {
      "inputs": [
        {
          "internalType": "uint256",
          "name": "_expiryDuration",
          "type": "uint256"
        }
      ],
      "name": "setProposalExpiryDuration",
      "outputs": [],
      "stateMutability": "nonpayable",
      "type": "function"
    },
    {
      "inputs": [
        {
          "internalType": "address",
          "name": "_addr",
          "type": "address"
        }
      ],
      "name": "setRoninTrustedOrganizationContract",
      "outputs": [],
      "stateMutability": "nonpayable",
      "type": "function"
    },
    {
      "inputs": [
        {
          "internalType": "address",
          "name": "_addr",
          "type": "address"
        }
      ],
      "name": "setValidatorContract",
      "outputs": [],
      "stateMutability": "nonpayable",
      "type": "function"
    },
    {
      "inputs": [],
      "name": "validatorContract",
      "outputs": [
        {
          "internalType": "address",
          "name": "",
          "type": "address"
        }
      ],
      "stateMutability": "view",
      "type": "function"
    },
    {
      "inputs": [
        {
          "internalType": "uint256",
          "name": "",
          "type": "uint256"
        },
        {
          "internalType": "uint256",
          "name": "",
          "type": "uint256"
        }
      ],
      "name": "vote",
      "outputs": [
        {
          "internalType": "enum VoteStatusConsumer.VoteStatus",
          "name": "status",
          "type": "uint8"
        },
        {
          "internalType": "bytes32",
          "name": "hash",
          "type": "bytes32"
        },
        {
          "internalType": "uint256",
          "name": "againstVoteWeight",
          "type": "uint256"
        },
        {
          "internalType": "uint256",
          "name": "forVoteWeight",
          "type": "uint256"
        },
        {
          "internalType": "uint256",
          "name": "expiryTimestamp",
          "type": "uint256"
        }
      ],
      "stateMutability": "view",
      "type": "function"
    },
    {
      "inputs": [
        {
          "components": [
            {
              "internalType": "uint256",
              "name": "period",
              "type": "uint256"
            },
            {
              "internalType": "uint256",
              "name": "epoch",
              "type": "uint256"
            },
            {
              "internalType": "address[]",
              "name": "operators",
              "type": "address[]"
            }
          ],
          "internalType": "struct BridgeOperatorsBallot.BridgeOperatorSet",
          "name": "_ballot",
          "type": "tuple"
        },
        {
          "components": [
            {
              "internalType": "uint8",
              "name": "v",
              "type": "uint8"
            },
            {
              "internalType": "bytes32",
              "name": "r",
              "type": "bytes32"
            },
            {
              "internalType": "bytes32",
              "name": "s",
              "type": "bytes32"
            }
          ],
          "internalType": "struct SignatureConsumer.Signature[]",
          "name": "_signatures",
          "type": "tuple[]"
        }
      ],
      "name": "voteBridgeOperatorsBySignatures",
      "outputs": [],
      "stateMutability": "nonpayable",
      "type": "function"
    },
    {
      "inputs": [
        {
          "internalType": "bytes32",
          "name": "_voteHash",
          "type": "bytes32"
        },
        {
          "internalType": "address",
          "name": "_consensusAddr",
          "type": "address"
        },
        {
          "internalType": "address",
          "name": "_recipientAfterUnlockedFund",
          "type": "address"
        },
        {
          "internalType": "uint256",
          "name": "_requestedAt",
          "type": "uint256"
        },
        {
          "internalType": "uint256",
          "name": "_expiredAt",
          "type": "uint256"
        }
      ],
      "name": "voteEmergencyExit",
      "outputs": [],
      "stateMutability": "nonpayable",
      "type": "function"
    }
  ],
  "transactionHash": "0x37f4804cc93724546860e6f3a74f4c49fa54a1f645afd8170db7676f66692a9d",
  "args": [
    2021,
    "0x7507dc433a98E1fE105d69f19f3B40E4315A4F32",
    "0xCee681C9108c42C710c6A8A949307D5F13C9F3ca",
    "0x54B3AC74a90E64E8dDE60671b6fE8F8DDf18eC9d",
    1209600
  ],
  "numDeployments": 7,
  "solcInputHash": "2a8db5de0d3bfe0cb40ba15ae8460f16",
  "bytecode": "0x60806040523480156200001157600080fd5b5060405162005cd138038062005cd183398101604081905262000034916200027f565b84848483806200004381600255565b506005849055604080516020808201839052601660608301527f524f4e494e5f474f5645524e414e43455f41444d494e000000000000000000006080808401919091528284018890528351808403909101815260a0830184528051908201207f599a80fcaa47b95e2323ab4d34d34e0cc9feda4b843edafcc30c7bdf60ea15bf60c08401527f7e7935007966eb860f4a2ee3dcc9fd53fb3205ce2aa86b0126d4893d4d4c14b960e08401527fad7c5bef027816a800da1736444fb58a807ef4c9603b7848673f7e3a68eb14a561010084015261012080840191909152835180840390910181526101409092019092528051910120600655620001458362000170565b6200015082620001c8565b5050505062000165826200021560201b60201c565b5050505050620002f1565b600380546001600160a01b0319166001600160a01b0383161790556040517ffd6f5f93d69a07c593a09be0b208bff13ab4ffd6017df3b33433d63bdc59b4d790620001bd908390620002dd565b60405180910390a150565b600480546001600160a01b0319166001600160a01b0383161790556040517f5cbd8a0bb00196365d5eb3457c6734e7f06666c3c78e5469b4c9deec7edae04890620001bd908390620002dd565b600d80546001600160a01b0319166001600160a01b0383161790556040517fef40dc07567635f84f5edbd2f8dbc16b40d9d282dd8e7e6f4ff58236b683616990620001bd908390620002dd565b80516001600160a01b03811681146200027a57600080fd5b919050565b600080600080600060a086880312156200029857600080fd5b85519450620002aa6020870162000262565b9350620002ba6040870162000262565b9250620002ca6060870162000262565b9150608086015190509295509295909350565b6001600160a01b0391909116815260200190565b6159d080620003016000396000f3fe608060405234801561001057600080fd5b50600436106101955760003560e01c80624054b81461019a57806309fcd8c7146101af5780630b26cf66146101c25780630b881830146101d557806317ce2dd4146101e85780631c905e39146102045780631e23e04814610226578063204e1c7a146102475780632b5df351146102675780632c5e65201461028a5780632e96a6fb1461029d5780632faf925d146102b057806334d5f37b146102c35780633644e515146102e35780635511cde1146102ec57806360911e8e146102f457806362e52e5f14610307578063663ac0111461031c5780637eff275e1461032f578063988ef53c14610342578063994390891461036b5780639a7d3382146103735780639e0dc0b314610386578063a1819f9a14610399578063a2fae570146103ac578063a8a0e32c146103bf578063b384abef146103d2578063b5e337de1461042d578063bc96180b14610440578063cd59658314610448578063cdf64a7614610450578063dcc3eb1914610463578063f3b7dead14610476578063fb4f637114610489575b600080fd5b6101ad6101a83660046143ab565b61049c565b005b6101ad6101bd36600461443f565b6104e5565b6101ad6101d0366004614523565b6105a9565b6101ad6101e33660046143ab565b6105fe565b6101f160055481565b6040519081526020015b60405180910390f35b610217610212366004614540565b61060e565b6040516101fb93929190614615565b610239610234366004614540565b6109f9565b6040516101fb929190614688565b61025a610255366004614523565b610b7d565b6040516101fb91906146ad565b61027a6102753660046146c1565b610c49565b60405190151581526020016101fb565b61027a6102983660046146c1565b610c74565b6101ad6102ab3660046146fa565b610c97565b6101ad6102be366004614713565b610cbf565b6101f16102d13660046146fa565b60006020819052908152604090205481565b6101f160065481565b61025a610cdf565b6101ad61030236600461476c565b610cee565b61030f610dae565b6040516101fb91906147dc565b6101ad61032a366004614823565b610e50565b6101ad61033d366004614900565b610f5c565b6101f1610350366004614523565b6001600160a01b03166000908152600b602052604090205490565b61025a611049565b6101ad610381366004614540565b611058565b6101ad610394366004614939565b6110ce565b6101ad6103a736600461498b565b611331565b6101ad6103ba366004614a64565b611417565b6101ad6103cd366004614aaa565b6114bd565b61041c6103e0366004614540565b600160208181526000938452604080852090915291835291208054918101546002820154600383015460069093015460ff909416939192909185565b6040516101fb959493929190614af0565b6101ad61043b366004614523565b6114fc565b6101f161154e565b61025a61155e565b6101ad61045e366004614523565b61156d565b61027a610471366004614b25565b611601565b61025a610484366004614523565b611622565b6101ad610497366004614713565b61166c565b60006104a7336116bd565b116104cd5760405162461bcd60e51b81526004016104c490614b4a565b60405180910390fd5b6104de8585858585600654336117e4565b5050505050565b60006104f0336116bd565b1161050d5760405162461bcd60e51b81526004016104c490614b4a565b61059e89898989898080602002602001604051908101604052809392919081815260200183836020028082843760009201919091525061055392508a91508b9050614d19565b8787808060200260200160405190810160405280939291908181526020018383602002808284376000920191909152506105909250610cdf915050565b61059861155e565b3361184e565b505050505050505050565b3330146105c85760405162461bcd60e51b81526004016104c490614d26565b6000816001600160a01b03163b116105f25760405162461bcd60e51b81526004016104c490614d6d565b6105fb8161195d565b50565b6104de85858585856006546119b3565b600082815260016020908152604080832084845290915281206004810154600582015460609384938493909290916106468284614dc7565b9050806001600160401b0381111561066057610660614b96565b604051908082528060200260200182016040528015610689578160200160208202803683370190505b509550806001600160401b038111156106a4576106a4614b96565b6040519080825280602002602001820160405280156106dd57816020015b6106ca614275565b8152602001906001900390816106c25790505b509450806001600160401b038111156106f8576106f8614b96565b604051908082528060200260200182016040528015610721578160200160208202803683370190505b50965060005b8381101561088057600087828151811061074357610743614dda565b6020026020010190600181111561075c5761075c6145a6565b9081600181111561076f5761076f6145a6565b90525060008a81526001602090815260408083208c8452909152812060048701805460079092019291849081106107a8576107a8614dda565b60009182526020808320909101546001600160a01b0316835282810193909352604091820190208151606081018352815460ff1681526001820154938101939093526002015490820152865187908390811061080657610806614dda565b602002602001018190525084600401818154811061082657610826614dda565b9060005260206000200160009054906101000a90046001600160a01b031688828151811061085657610856614dda565b6001600160a01b03909216602092830291909101909101528061087881614df0565b915050610727565b5060005b828110156109ed576001876108998684614dc7565b815181106108a9576108a9614dda565b602002602001019060018111156108c2576108c26145a6565b908160018111156108d5576108d56145a6565b90525060008a81526001602090815260408083208c84529091528120600587018054600790920192918490811061090e5761090e614dda565b60009182526020808320909101546001600160a01b0316835282810193909352604091820190208151606081018352815460ff1681526001820154938101939093526002015490820152866109638684614dc7565b8151811061097357610973614dda565b602002602001018190525084600501818154811061099357610993614dda565b6000918252602090912001546001600160a01b0316886109b38684614dc7565b815181106109c3576109c3614dda565b6001600160a01b0390921660209283029190910190910152806109e581614df0565b915050610884565b50505050509250925092565b6000828152600c602090815260408083208484528252808320858452600a8352818420858552835292819020600501805482518185028101850190935280835260609485949093929190830182828015610a7c57602002820191906000526020600020905b81546001600160a01b03168152600190910190602001808311610a5e575b5050505050925082516001600160401b03811115610a9c57610a9c614b96565b604051908082528060200260200182016040528015610ad557816020015b610ac2614275565b815260200190600190039081610aba5790505b50915060005b8351811015610b7457816000858381518110610af957610af9614dda565b6020908102919091018101516001600160a01b031682528181019290925260409081016000208151606081018352815460ff16815260018201549381019390935260020154908201528351849083908110610b5657610b56614dda565b60200260200101819052508080610b6c90614df0565b915050610adb565b50509250929050565b60408051600481526024810182526020810180516001600160e01b0316635c60da1b60e01b908117909152915160009291839182916001600160a01b03871691610bc79190614e2d565b600060405180830381855afa9150503d8060008114610c02576040519150601f19603f3d011682016040523d82523d6000602084013e610c07565b606091505b509150915081610c2c578260405163411471c360e11b81526004016104c49190614e49565b80806020019051810190610c409190614e5e565b95945050505050565b6000838152600a602090815260408083208584529091528120610c6c9083611a3a565b949350505050565b60008381526001602090815260408083208584529091528120610c6c9083611a5b565b333014610cb65760405162461bcd60e51b81526004016104c490614d26565b6105fb81600255565b6104de8585858585600654610cd2610cdf565b610cda61155e565b611a7d565b6003546001600160a01b031690565b610d04838383610cfc611b1f565b600654611c39565b82356000908152600a6020908152604080832082870135845290915290206001815460ff166004811115610d3a57610d3a6145a6565b03610da857836007610d4c8282614ee8565b507f7c45875370690698791a915954b9c69729cc5f9373edc5a2e04436c07589f30d905084356020860135610d846040880188614e7b565b604051610d949493929190614fb6565b60405180910390a1805460ff191660021781555b50505050565b610dd260405180606001604052806000815260200160008152602001606081525090565b60408051606081018252600780548252600854602080840191909152600980548551818402810184018752818152949593949386019392830182828015610e4257602002820191906000526020600020905b81546001600160a01b03168152600190910190602001808311610e24575b505050505081525050905090565b6000610e5b336116bd565b11610e785760405162461bcd60e51b81526004016104c490614b4a565b60003390506000610f41468d8d8d80806020026020016040519081016040528093929190818152602001838360200280828437600081840152601f19601f820116905080830192505050505050508c8c80806020026020016040519081016040528093929190818152602001838360200280828437600092019190915250610f0692508d91508e9050614d19565b8a8a808060200260200160405190810160405280939291908181526020018383602002808284376000920191909152508b9250611f4d915050565b9050610f4e828285612035565b505050505050505050505050565b333014610f7b5760405162461bcd60e51b81526004016104c490614d26565b6040516308f2839760e41b906000906001600160a01b038516908390610fa59086906024016146ad565b60408051601f198184030181529181526020820180516001600160e01b03166001600160e01b0319909416939093179092529051610fe39190614e2d565b6000604051808303816000865af19150503d8060008114611020576040519150601f19603f3d011682016040523d82523d6000602084013e611025565b606091505b5050905080610da8578160405163411471c360e11b81526004016104c49190614e49565b600d546001600160a01b031690565b6000828152600160208181526040808420858552909152909120908101546110c55760405162461bcd60e51b815260206004820152602c602482015260008051602061591b83398151915260448201526b656d70747920766f74696e6760a01b60648201526084016104c4565b610da881612178565b60006110d9336116bd565b116110f65760405162461bcd60e51b81526004016104c490614b4a565b3360006111058686868661239a565b90508087146111665760405162461bcd60e51b815260206004820152602760248201527f526f6e696e476f7665726e616e636541646d696e3a20696e76616c696420766f6044820152660e8ca40d0c2e6d60cb1b60648201526084016104c4565b6000818152600e6020526040902060048101546111cd5760405162461bcd60e51b8152602060048201526031602482015260008051602061591b8339815191526044820152706e6f6e2d6578697374656e7420766f746560781b60648201526084016104c4565b6004815460ff1660048111156111e5576111e56145a6565b036112355760405162461bcd60e51b815260206004820152602c602482015260008051602061591b83398151915260448201526b6578706972656420766f746560a01b60648201526084016104c4565b6112408184846123f6565b600061124c82846124c1565b9050600061127061125b611b1f565b611264846125be565b859190600080896125f2565b90506001816004811115611286576112866145a6565b036112d857611295898961264c565b6040518481527fd3500576a0d4923326fbb893cf2169273e0df93f3cb6b94b83f2ca2e0ecb681b9060200160405180910390a1825460ff19166002178355611325565b60048160048111156112ec576112ec6145a6565b03611325576040518481527feecb3148acc573548e89cb64eb5f2023a61171f1c413ed8bf0fe506c19aeebe49060200160405180910390a15b50505050505050505050565b600061133c336116bd565b116113595760405162461bcd60e51b81526004016104c490614b4a565b61140a8a8a8a8a8080602002602001604051908101604052809392919081815260200183836020028082843760009201919091525050604080516020808e0282810182019093528d82529093508d92508c9182918501908490808284376000920191909152506113cf92508a91508b9050614d19565b878780806020026020016040519081016040528093929190818152602001838360200280828437600092019190915250339250611f4d915050565b5050505050505050505050565b33611420611049565b6001600160a01b03161461144757604051630e6444a160e31b815260040160405180910390fd5b60006114558585858561239a565b6000818152600e602052604090819020426004820155600381018590559051919250907f18ea835340bb2973a31996158138f109e9c5b9cfdb2424e999e6b1a9ce565de8906114ad9084908990899089908990615015565b60405180910390a1505050505050565b60006114c8336116bd565b116114e55760405162461bcd60e51b81526004016104c490614b4a565b6114f8336114f28461512e565b83612035565b5050565b33301461151b5760405162461bcd60e51b81526004016104c490614d26565b6000816001600160a01b03163b116115455760405162461bcd60e51b81526004016104c490614d6d565b6105fb8161270f565b600061155960025490565b905090565b6004546001600160a01b031690565b33301461158c5760405162461bcd60e51b81526004016104c490614d26565b6000816001600160a01b03163b116115f85760405162461bcd60e51b815260206004820152602960248201527f526f6e696e476f7665726e616e636541646d696e3a2073657420746f206e6f6e6044820152680b58dbdb9d1c9858dd60ba1b60648201526084016104c4565b6105fb8161275a565b6000828152600e602052604081206116199083611a3a565b90505b92915050565b60408051600481526024810182526020810180516001600160e01b03166303e1469160e61b908117909152915160009291839182916001600160a01b03871691610bc79190614e2d565b6000611677336116bd565b116116945760405162461bcd60e51b81526004016104c490614b4a565b6116b585858585856006546116a7610cdf565b6116af61155e565b336127a5565b505050505050565b6000631af0725f60e31b81806116d1610cdf565b6001600160a01b0316634bb5274a84876040516024016116f191906146ad565b60408051601f198184030181529181526020820180516001600160e01b03166001600160e01b0319909416939093179092529051611732919060240161522e565b6040516020818303038152906040529060e01b6020820180516001600160e01b03838183161783525050505060405161176b9190614e2d565b600060405180830381855afa9150503d80600081146117a6576040519150601f19603f3d011682016040523d82523d6000602084013e6117ab565b606091505b5091509150816117d0578260405163411471c360e11b81526004016104c49190614e49565b80806020019051810190610c409190615241565b6117f66117f08861512e565b82612807565b50600061180a6118058961512e565b6128d1565b90506118446118188961512e565b888888886118308961182b896000612a70565b612ac6565b61183f8a61182b8a6001612a70565b612aed565b5050505050505050565b600061185a6000612e26565b905060006040518060c001604052808381526020018c81526020018b8b808060200260200160405190810160405280939291908181526020018383602002808284376000920182905250938552505050602082018b9052604082018a905260609091018890529091506118ce828787612f29565b90506118e5600254826130f790919063ffffffff16565b60006118f0826128d1565b60008581526000805160206158fb8339815191526020526040902090915061191990828f6131f3565b808460008051602061597b8339815191528461193487613203565b878a604051611946949392919061535f565b60405180910390a350505050505050505050505050565b600480546001600160a01b0319166001600160a01b0383161790556040517f5cbd8a0bb00196365d5eb3457c6734e7f06666c3c78e5469b4c9deec7edae048906119a89083906146ad565b60405180910390a150565b60006119c16118058861512e565b6020808901356000908152600180835260408083208c35845290935291902001549091508114611a035760405162461bcd60e51b81526004016104c490615446565b611a31611a0f8861512e565b87878787611a228861182b896000612a70565b61183f8961182b8a6001612a70565b50505050505050565b6001600160a01b031660009081526002919091016020526040902054151590565b6001600160a01b03166000908152600891909101602052604090205460ff1690565b6000611a948383611a8d8c6154f9565b9190612f29565b90506000611aa9611aa48b6154f9565b613203565b9050611ab4826128d1565b600080805260016020818152855183526000805160206158fb83398151915290526040909120015414611af95760405162461bcd60e51b81526004016104c490615446565b611325828a8a8a8a611b108b61182b896000612a70565b61183f8c61182b8a6001612a70565b6000637de5dedd60e01b8180611b33610cdf565b6040805160048152602480820183526020820180516001600160e01b03166001600160e01b0319891617905291516001600160a01b039390931692634bb5274a92611b7f92910161522e565b6040516020818303038152906040529060e01b6020820180516001600160e01b038381831617835250505050604051611bb89190614e2d565b600060405180830381855afa9150503d8060008114611bf3576040519150601f19603f3d011682016040523d82523d6000602084013e611bf8565b606091505b509150915081611c1d578260405163411471c360e11b81526004016104c49190614e49565b80806020019051810190611c319190615241565b935050505090565b600754853510801590611c525750600854602086013510155b611cc45760405162461bcd60e51b815260206004820152603d60248201527f424f73476f7665726e616e636550726f706f73616c3a20717565727920666f7260448201527f206f7574646174656420627269646765206f70657261746f722073657400000060648201526084016104c4565b611ccd8561335d565b82611d2e5760405162461bcd60e51b815260206004820152602b60248201527f424f73476f7665726e616e636550726f706f73616c3a20696e76616c6964206160448201526a0e4e4c2f240d8cadccee8d60ab1b60648201526084016104c4565b6000806000611d3c8861351d565b90506000611d4a8583612ac6565b89356000818152600a60209081526040808320828f0135808552908352818420948452600c83528184209084529091528120929350909190805b8a811015611ec857368c8c83818110611d9f57611d9f614dda565b606002919091019150611dca905086611dbb60208401846155d2565b836020013584604001356135cf565b9850886001600160a01b0316886001600160a01b031610611e2f5760405162461bcd60e51b815260206004820152602b602482015260008051602061595b83398151915260448201526a34b3b732b91037b93232b960a91b60648201526084016104c4565b88975050611e3c886135f7565b15611eb6576001600160a01b0388166000908152600b60205260409020439055600191508b8b82818110611e7257611e72614dda565b9050606002018360008a6001600160a01b03166001600160a01b031681526020019081526020016000208181611ea891906155ef565b50611eb690508489886123f6565b80611ec081614df0565b915050611d84565b5080611f165760405162461bcd60e51b8152602060048201526029602482015260008051602061595b83398151915260448201526869676e61747572657360b81b60648201526084016104c4565b6000611f2284876124c1565b9050611f3d8a611f318361360a565b8691906000808b6125f2565b5050505050505050505050505050565b611f55614295565b87600003611f755760405162461bcd60e51b81526004016104c490615620565b6000611f8089612e26565b90506040518060e001604052808281526020018a8152602001898152602001888152602001878152602001868152602001858152509150611fcc600254836130f790919063ffffffff16565b6000611fd7836128d1565b60008b81526001602090815260408083208684529091529020909150611ffe90828b6131f3565b80828b60008051602061593b8339815191528688604051612020929190615655565b60405180910390a45050979650505050505050565b468260200151146120975760405162461bcd60e51b815260206004820152602660248201527f526f6e696e476f7665726e616e636541646d696e3a20696e76616c6964206368604482015265185a5b881a5960d21b60648201526084016104c4565b6120a0826128d1565b6020808401516000908152600180835260408083208751845290935291902001541461212b5760405162461bcd60e51b815260206004820152603460248201527f526f6e696e476f7665726e616e636541646d696e3a206361737420766f746520604482015273199bdc881a5b9d985b1a59081c1c9bdc1bdcd85b60621b60648201526084016104c4565b6000612135611b1f565b905060008161214261361e565b61214c919061567f565b612157906001614dc7565b9050612161614275565b611a31858585858a866121738d6116bd565b613632565b600080825460ff166004811115612191576121916145a6565b1480156121a2575042826006015411155b905080156123955760018201546040517f58f98006a7f2f253f8ae8f8b7cec9008ca05359633561cd7c22f3005682d4a5590600090a260005b60048301548110156122945782600801600084600401838154811061220257612202614dda565b60009182526020808320909101546001600160a01b031683528201929092526040018120805460ff19169055600484018054600786019291908490811061224b5761224b614dda565b60009182526020808320909101546001600160a01b031683528201929092526040018120805460ff1916815560018101829055600201558061228c81614df0565b9150506121db565b5060005b6005830154811015612351578260080160008460050183815481106122bf576122bf614dda565b60009182526020808320909101546001600160a01b031683528201929092526040018120805460ff19169055600584018054600786019291908490811061230857612308614dda565b60009182526020808320909101546001600160a01b031683528201929092526040018120805460ff1916815560018101829055600201558061234981614df0565b915050612298565b50815460ff19168255600060018301819055600283018190556003830181905561237f9060048401906142d2565b61238d6005830160006142d2565b600060068301555b919050565b6040516000906123d6907f697acba4deaf1a718d8c2d93e42860488cb7812696f28ca10eed17bac41e7027908790879087908790602001615015565b604051602081830303815290604052805190602001209050949350505050565b6000836003015411801561240e575042836003015411155b1561241f57825460ff191660041783555b6124298383611a3a565b1561247857612442826001600160a01b03166014613a39565b6040516020016124529190615692565b60408051601f198184030181529082905262461bcd60e51b82526104c49160040161522e565b6001600160a01b039091166000818152600284016020908152604082209390935560059093018054600181018255908452919092200180546001600160a01b0319169091179055565b60058201546060906000906001600160401b038111156124e3576124e3614b96565b60405190808252806020026020018201604052801561250c578160200160208202803683370190505b50915060005b82518110156125b557600085600501828154811061253257612532614dda565b60009182526020808320909101546001600160a01b0316808352600289019091526040909120549091508590036125a25780848461256f81614df0565b95508151811061258157612581614dda565b60200260200101906001600160a01b031690816001600160a01b0316815250505b50806125ad81614df0565b915050612512565b50815292915050565b6000635f14a1c360e01b81806125d2610cdf565b6001600160a01b0316634bb5274a84876040516024016116f191906156e6565b60008585101580156126045750838310155b801561262557506000875460ff166004811115612623576126236145a6565b145b1561263d57865460ff19166001908117885587018290555b5050935460ff16949350505050565b6361e45aeb60e11b600061265e611049565b6001600160a01b0316634bb5274a8386866040516024016126959291906001600160a01b0392831681529116602082015260400190565b60408051601f198184030181529181526020820180516001600160e01b03166001600160e01b03199094169390931790925290516126d6919060240161522e565b6040516020818303038152906040529060e01b6020820180516001600160e01b038381831617835250505050604051610fe39190614e2d565b600380546001600160a01b0319166001600160a01b0383161790556040517ffd6f5f93d69a07c593a09be0b208bff13ab4ffd6017df3b33433d63bdc59b4d7906119a89083906146ad565b600d80546001600160a01b0319166001600160a01b0383161790556040517fef40dc07567635f84f5edbd2f8dbc16b40d9d282dd8e7e6f4ff58236b6836169906119a89083906146ad565b6127ad614295565b6127c16127b98b6154f9565b858585613bd4565b905060006127d1611aa48c6154f9565b90506127f9828b8b8b8b6127ea8c61182b896000612a70565b61183f8d61182b8a6001612a70565b509998505050505050505050565b602082015160009080820361282e5760405162461bcd60e51b81526004016104c490615620565b60025461283c9085906130f7565b6000612847856128d1565b905061285282612e26565b6000838152600160209081526040808320848452909152908190209087015191945061287f9183906131f3565b8451831461289f5760405162461bcd60e51b81526004016104c4906156f9565b80838360008051602061593b83398151915288886040516128c1929190615655565b60405180910390a4505092915050565b6000806000806000808660800151905060008760600151905060008860a00151516001600160401b0381111561290957612909614b96565b604051908082528060200260200182016040528015612932578160200160208202803683370190505b5060c08a015190915060005b825181101561299b578a60a00151818151811061295d5761295d614dda565b60200260200101518051906020012083828151811061297e5761297e614dda565b60209081029190910101528061299381614df0565b91505061293e565b506020835102602084012097506020845102602085012096506020825102602083012095506020815102602082012094507fd051578048e6ff0bbc9fca3b65a42088dbde10f36ca841de566711087ad9b08a60001b8a600001518b602001518c604001518b8b8b8b604051602001612a4b989796959493929190978852602088019690965260408701949094526060860192909252608085015260a084015260c083015260e08201526101000190565b6040516020818303038152906040528051906020012098505050505050505050919050565b604051600090612aa8907fd900570327c4c0df8dd6bdd522b7da7e39145dd049d2fd4602276adcd511e3c2908590859060200161573f565b60405160208183030381529060405280519060200120905092915050565b60405161190160f01b60208201526022810183905260428101829052600090606201612aa8565b8415801590612afb57508483145b612b585760405162461bcd60e51b815260206004820152602860248201527f476f7665726e616e636550726f706f73616c3a20696e76616c696420617272616044820152670f240d8cadccee8d60c31b60648201526084016104c4565b6000612b62611b1f565b9050600081612b6f61361e565b612b79919061567f565b612b84906001614dc7565b9050600080366000805b89811015612dba578a8a82818110612ba857612ba8614dda565b606002919091019350600090508d8d83818110612bc757612bc7614dda565b9050602002016020810190612bdc9190615764565b6001811115612bed57612bed6145a6565b03612c1957612c1289612c0360208601866155d2565b856020013586604001356135cf565b9350612ccd565b60018d8d83818110612c2d57612c2d614dda565b9050602002016020810190612c429190615764565b6001811115612c5357612c536145a6565b03612c6957612c1288612c0360208601866155d2565b60405162461bcd60e51b815260206004820152603360248201527f476f7665726e616e636550726f706f73616c3a20717565727920666f7220756e604482015272737570706f7274656420766f7465207479706560681b60648201526084016104c4565b836001600160a01b0316856001600160a01b031610612d385760405162461bcd60e51b815260206004820152602160248201527f476f7665726e616e636550726f706f73616c3a20696e76616c6964206f7264656044820152603960f91b60648201526084016104c4565b8394506000612d46856116bd565b90508015612da75760019250612d958f8f8f85818110612d6857612d68614dda565b9050602002016020810190612d7d9190615764565b8a8a89612d8f368b90038b018b615781565b87613632565b15612da7575050505050505050611a31565b5080612db281614df0565b915050612b8e565b5080612e175760405162461bcd60e51b815260206004820152602660248201527f476f7665726e616e636550726f706f73616c3a20696e76616c6964207369676e60448201526561747572657360d01b60648201526084016104c4565b50505050505050505050505050565b60008181526020819052604081205490819003612e555750600090815260208190526040902060019081905590565b6000828152600160209081526040808320848452909152812090612e7882612178565b905080612f22576000825460ff166004811115612e9757612e976145a6565b03612efe5760405162461bcd60e51b815260206004820152603160248201527f436f7265476f7665726e616e63653a2063757272656e742070726f706f73616c604482015270081a5cc81b9bdd0818dbdb5c1b195d1959607a1b60648201526084016104c4565b60008481526020819052604081208054909190612f1a90614df0565b918290555092505b5050919050565b612f31614295565b83518152602080850151604080840191909152600091830191909152840151516001600160401b03811115612f6857612f68614b96565b604051908082528060200260200182016040528015612f91578160200160208202803683370190505b5060608083019190915284015160808083019190915284015160a08083019190915284015160c082015260005b8460400151518110156130ef57600185604001518281518110612fe357612fe3614dda565b60200260200101516001811115612ffc57612ffc6145a6565b0361303d57828260600151828151811061301857613018614dda565b60200260200101906001600160a01b031690816001600160a01b0316815250506130dd565b60008560400151828151811061305557613055614dda565b6020026020010151600181111561306e5761306e6145a6565b0361308a57838260600151828151811061301857613018614dda565b60405162461bcd60e51b815260206004820152602260248201527f476c6f62616c50726f706f73616c3a20756e737570706f727465642074617267604482015261195d60f21b60648201526084016104c4565b806130e781614df0565b915050612fbe565b509392505050565b60008260600151511180156131155750816080015151826060015151145b801561312a57508160a0015151826060015151145b801561313f57508160c0015151826060015151145b61318b5760405162461bcd60e51b815260206004820152601e60248201527f50726f706f73616c3a20696e76616c6964206172726179206c656e677468000060448201526064016104c4565b6131958142614dc7565b826040015111156114f85760405162461bcd60e51b815260206004820152602260248201527f50726f706f73616c3a20696e76616c6964206578706972792074696d6573746160448201526106d760f41b60648201526084016104c4565b6001830191909155600690910155565b6000806000806000808660600151905060008760400151905060008860800151516001600160401b0381111561323b5761323b614b96565b604051908082528060200260200182016040528015613264578160200160208202803683370190505b5060a08a015190915060005b82518110156132cd578a60800151818151811061328f5761328f614dda565b6020026020010151805190602001208382815181106132b0576132b0614dda565b6020908102919091010152806132c581614df0565b915050613270565b5082516020908102848201208551820286830120845183028584012084518402858501208e518f860151604080517f1463f426c05aff2c1a7a0957a71c9898bc8b47142540538e79ee25ee911413509881019890985287019190915260608601526080850184905260a0850183905260c0850182905260e08501819052929b509099509750955061010001612a4b565b600061336c6040830183614e7b565b9050116133cf5760405162461bcd60e51b815260206004820152602b60248201527f4272696467654f70657261746f727342616c6c6f743a20696e76616c6964206160448201526a0e4e4c2f240d8cadccee8d60ab1b60648201526084016104c4565b60006133de6040830183614e7b565b60008181106133ef576133ef614dda565b90506020020160208101906134049190614523565b905060015b6134166040840184614e7b565b90508110156135185761342c6040840184614e7b565b8281811061343c5761343c614dda565b90506020020160208101906134519190614523565b6001600160a01b0316826001600160a01b0316106134d25760405162461bcd60e51b815260206004820152603860248201527f4272696467654f70657261746f727342616c6c6f743a20696e76616c6964206f60448201527772646572206f6620627269646765206f70657261746f727360401b60648201526084016104c4565b6134df6040840184614e7b565b828181106134ef576134ef614dda565b90506020020160208101906135049190614523565b91508061351081614df0565b915050613409565b505050565b6000808061352e6040850185614e7b565b80806020026020016040519081016040528093929190818152602001838360200280828437600092019190915250508251602090810293810193909320604080517fd679a49e9e099fa9ed83a5446aaec83e746b03ec6723d6f5efb29d37d7f0b78a818701528935818301529885013560608a01526080808a01929092528051808a03909201825260a0909801909752505084519401939093209392505050565b60008060006135e087878787613ca6565b915091506135ed81613d89565b5095945050505050565b60008061360383613f3a565b1192915050565b600063d9d5dadb60e01b81806125d2610cdf565b600063926323d560e01b8180611b33610cdf565b6020808801518851600082815260018452604080822083835290945292832061365a81612178565b1561366b5760019350505050613a2e565b6020808c0151600090815290819052604090205482146136e65760405162461bcd60e51b815260206004820152603060248201527f436f7265476f7665726e616e63653a20717565727920666f7220696e76616c6960448201526f642070726f706f73616c206e6f6e636560801b60648201526084016104c4565b6000815460ff1660048111156136fe576136fe6145a6565b146137595760405162461bcd60e51b815260206004820152602560248201527f436f7265476f7665726e616e63653a2074686520766f74652069732066696e616044820152641b1a5e995960da1b60648201526084016104c4565b6137638188611a5b565b1561378c5761377c876001600160a01b03166014613a39565b60405160200161245291906157e2565b6001600160a01b03871660009081526008820160209081526040909120805460ff191660011790558601511515806137c75750604086015115155b806137d55750855160ff1615155b1561381c576001600160a01b03871660009081526007820160209081526040918290208851815460ff191660ff909116178155908801516001820155908701516002909101555b866001600160a01b031681600101547f1203f9e81c814a35f5f4cc24087b2a24c6fb7986a9f1406b68a9484882c93a238c8860405161385c929190615832565b60405180910390a3600080808c600181111561387a5761387a6145a6565b036138cf576004830180546001810182556000918252602082200180546001600160a01b0319166001600160a01b038c161790556003840180548992906138c2908490614dc7565b925050819055915061398e565b60018c60018111156138e3576138e36145a6565b03613938576005830180546001810182556000918252602082200180546001600160a01b0319166001600160a01b038c1617905560028401805489929061392b908490614dc7565b925050819055905061398e565b60405162461bcd60e51b815260206004820152602560248201527f436f7265476f7665726e616e63653a20756e737570706f7274656420766f7465604482015264207479706560d81b60648201526084016104c4565b8a82106139e257825460ff19166001908117845580840154604051919750907f5c819725ea53655a3b898f3df59b66489761935454e9212ca1e5ebd759953d0b90600090a26139dd838e613f4e565b613a28565b898110613a2857825460ff19166003178355600180840154604051919750907f55295d4ce992922fa2e5ffbf3a3dcdb367de0a15e125ace083456017fd22060f90600090a25b50505050505b979650505050505050565b60606000613a48836002614ec4565b613a53906002614dc7565b6001600160401b03811115613a6a57613a6a614b96565b6040519080825280601f01601f191660200182016040528015613a94576020820181803683370190505b509050600360fc1b81600081518110613aaf57613aaf614dda565b60200101906001600160f81b031916908160001a905350600f60fb1b81600181518110613ade57613ade614dda565b60200101906001600160f81b031916908160001a9053506000613b02846002614ec4565b613b0d906001614dc7565b90505b6001811115613b85576f181899199a1a9b1b9c1cb0b131b232b360811b85600f1660108110613b4157613b41614dda565b1a60f81b828281518110613b5757613b57614dda565b60200101906001600160f81b031916908160001a90535060049490941c93613b7e81615849565b9050613b10565b5083156116195760405162461bcd60e51b815260206004820181905260248201527f537472696e67733a20686578206c656e67746820696e73756666696369656e7460448201526064016104c4565b613bdc614295565b613be7858585612f29565b9050613bfe600254826130f790919063ffffffff16565b6000613c09826128d1565b90506000613c176000612e26565b60008181526000805160206158fb8339815191526020908152604090912090890151919250613c479184906131f3565b82518114613c675760405162461bcd60e51b81526004016104c4906156f9565b818160008051602061597b83398151915285613c828b613203565b8b89604051613c94949392919061535f565b60405180910390a35050949350505050565b6000806fa2a8918ca85bafe22016d0b997e4df60600160ff1b03831115613cd35750600090506003613d80565b8460ff16601b14158015613ceb57508460ff16601c14155b15613cfc5750600090506004613d80565b6040805160008082526020820180845289905260ff881692820192909252606081018690526080810185905260019060a0016020604051602081039080840390855afa158015613d50573d6000803e3d6000fd5b5050604051601f1901519150506001600160a01b038116613d7957600060019250925050613d80565b9150600090505b94509492505050565b6000816004811115613d9d57613d9d6145a6565b03613da55750565b6001816004811115613db957613db96145a6565b03613e015760405162461bcd60e51b815260206004820152601860248201527745434453413a20696e76616c6964207369676e617475726560401b60448201526064016104c4565b6002816004811115613e1557613e156145a6565b03613e625760405162461bcd60e51b815260206004820152601f60248201527f45434453413a20696e76616c6964207369676e6174757265206c656e6774680060448201526064016104c4565b6003816004811115613e7657613e766145a6565b03613ece5760405162461bcd60e51b815260206004820152602260248201527f45434453413a20696e76616c6964207369676e6174757265202773272076616c604482015261756560f01b60648201526084016104c4565b6004816004811115613ee257613ee26145a6565b036105fb5760405162461bcd60e51b815260206004820152602260248201527f45434453413a20696e76616c6964207369676e6174757265202776272076616c604482015261756560f01b60648201526084016104c4565b6000635624191160e01b81806116d1610cdf565b613f5781613fbb565b156114f857815460ff19166002178255600080613f7383613fd5565b9150915083600101547fe134987599ae266ec90edeff1b26125b287dbb57b10822649432d1bb26537fba8383604051613fad929190615860565b60405180910390a250505050565b600081602001516000148061161c57505060200151461490565b606080613fe183613fbb565b6140395760405162461bcd60e51b815260206004820152602360248201527f50726f706f73616c3a20717565727920666f7220696e76616c696420636861696044820152621b925960ea1b60648201526084016104c4565b8260600151516001600160401b0381111561405657614056614b96565b60405190808252806020026020018201604052801561407f578160200160208202803683370190505b5091508260600151516001600160401b0381111561409f5761409f614b96565b6040519080825280602002602001820160405280156140d257816020015b60608152602001906001900390816140bd5790505b50905060005b83606001515181101561426f578360c0015181815181106140fb576140fb614dda565b60200260200101515a1161414e5760405162461bcd60e51b815260206004820152601a60248201527950726f706f73616c3a20696e73756666696369656e742067617360301b60448201526064016104c4565b8360600151818151811061416457614164614dda565b60200260200101516001600160a01b03168460800151828151811061418b5761418b614dda565b60200260200101518560c0015183815181106141a9576141a9614dda565b6020026020010151908660a0015184815181106141c8576141c8614dda565b60200260200101516040516141dd9190614e2d565b600060405180830381858888f193505050503d806000811461421b576040519150601f19603f3d011682016040523d82523d6000602084013e614220565b606091505b5084838151811061423357614233614dda565b6020026020010184848151811061424c5761424c614dda565b6020908102919091010191909152901515905261426881614df0565b90506140d8565b50915091565b604080516060810182526000808252602082018190529181019190915290565b6040518060e00160405280600081526020016000815260200160008152602001606081526020016060815260200160608152602001606081525090565b50805460008255906000526020600020908101906105fb91905b8082111561430057600081556001016142ec565b5090565b600060e0828403121561431657600080fd5b50919050565b60008083601f84011261432e57600080fd5b5081356001600160401b0381111561434557600080fd5b6020830191508360208260051b850101111561436057600080fd5b9250929050565b60008083601f84011261437957600080fd5b5081356001600160401b0381111561439057600080fd5b60208301915083602060608302850101111561436057600080fd5b6000806000806000606086880312156143c357600080fd5b85356001600160401b03808211156143da57600080fd5b6143e689838a01614304565b965060208801359150808211156143fc57600080fd5b61440889838a0161431c565b9096509450604088013591508082111561442157600080fd5b5061442e88828901614367565b969995985093965092949392505050565b600080600080600080600080600060a08a8c03121561445d57600080fd5b8935985060208a01356001600160401b038082111561447b57600080fd5b6144878d838e0161431c565b909a50985060408c01359150808211156144a057600080fd5b6144ac8d838e0161431c565b909850965060608c01359150808211156144c557600080fd5b6144d18d838e0161431c565b909650945060808c01359150808211156144ea57600080fd5b506144f78c828d0161431c565b915080935050809150509295985092959850929598565b6001600160a01b03811681146105fb57600080fd5b60006020828403121561453557600080fd5b81356116198161450e565b6000806040838503121561455357600080fd5b50508035926020909101359150565b600081518084526020808501945080840160005b8381101561459b5781516001600160a01b031687529582019590820190600101614576565b509495945050505050565b634e487b7160e01b600052602160045260246000fd5b600281106105fb576105fb6145a6565b600081518084526020808501945080840160005b8381101561459b578151805160ff168852838101518489015260409081015190880152606090960195908201906001016145e0565b6060815260006146286060830186614562565b82810360208481019190915285518083528682019282019060005b81811015614668578451614656816145bc565b83529383019391830191600101614643565b5050848103604086015261467c81876145cc565b98975050505050505050565b60408152600061469b6040830185614562565b8281036020840152610c4081856145cc565b6001600160a01b0391909116815260200190565b6000806000606084860312156146d657600080fd5b833592506020840135915060408401356146ef8161450e565b809150509250925092565b60006020828403121561470c57600080fd5b5035919050565b60008060008060006060868803121561472b57600080fd5b85356001600160401b038082111561474257600080fd5b9087019060c0828a03121561475657600080fd5b909550602087013590808211156143fc57600080fd5b60008060006040848603121561478157600080fd5b83356001600160401b038082111561479857600080fd5b90850190606082880312156147ac57600080fd5b909350602085013590808211156147c257600080fd5b506147cf86828701614367565b9497909650939450505050565b60208152815160208201526020820151604082015260006040830151606080840152610c6c6080840182614562565b600281106105fb57600080fd5b80356123958161480b565b60008060008060008060008060008060c08b8d03121561484257600080fd5b8a35995060208b01356001600160401b038082111561486057600080fd5b61486c8e838f0161431c565b909b50995060408d013591508082111561488557600080fd5b6148918e838f0161431c565b909950975060608d01359150808211156148aa57600080fd5b6148b68e838f0161431c565b909750955060808d01359150808211156148cf57600080fd5b506148dc8d828e0161431c565b90945092506148ef905060a08c01614818565b90509295989b9194979a5092959850565b6000806040838503121561491357600080fd5b823561491e8161450e565b9150602083013561492e8161450e565b809150509250929050565b600080600080600060a0868803121561495157600080fd5b8535945060208601356149638161450e565b935060408601356149738161450e565b94979396509394606081013594506080013592915050565b60008060008060008060008060008060c08b8d0312156149aa57600080fd5b8a35995060208b0135985060408b01356001600160401b03808211156149cf57600080fd5b6149db8e838f0161431c565b909a50985060608d01359150808211156149f457600080fd5b614a008e838f0161431c565b909850965060808d0135915080821115614a1957600080fd5b614a258e838f0161431c565b909650945060a08d0135915080821115614a3e57600080fd5b50614a4b8d828e0161431c565b915080935050809150509295989b9194979a5092959850565b60008060008060808587031215614a7a57600080fd5b8435614a858161450e565b93506020850135614a958161450e565b93969395505050506040820135916060013590565b60008060408385031215614abd57600080fd5b82356001600160401b03811115614ad357600080fd5b614adf85828601614304565b925050602083013561492e8161480b565b60a0810160058710614b0457614b046145a6565b95815260208101949094526040840192909252606083015260809091015290565b60008060408385031215614b3857600080fd5b82359150602083013561492e8161450e565b6020808252602c908201527f526f6e696e476f7665726e616e636541646d696e3a2073656e6465722069732060408201526b3737ba1033b7bb32b93737b960a11b606082015260800190565b634e487b7160e01b600052604160045260246000fd5b60405160e081016001600160401b0381118282101715614bce57614bce614b96565b60405290565b60405160c081016001600160401b0381118282101715614bce57614bce614b96565b604051601f8201601f191681016001600160401b0381118282101715614c1e57614c1e614b96565b604052919050565b60006001600160401b03821115614c3f57614c3f614b96565b5060051b60200190565b6000614c5c614c5784614c26565b614bf6565b8381529050602080820190600585901b840186811115614c7b57600080fd5b845b81811015614d0e5780356001600160401b0380821115614c9d5760008081fd5b8188019150601f8a81840112614cb35760008081fd5b823582811115614cc557614cc5614b96565b614cd6818301601f19168801614bf6565b92508083528b87828601011115614cef57600091508182fd5b8087850188850137600090830187015250855250928201928201614c7d565b505050509392505050565b6000611619368484614c49565b60208082526027908201527f476f7665726e616e636541646d696e3a206f6e6c7920616c6c6f7765642073656040820152661b198b58d85b1b60ca1b606082015260800190565b60208082526024908201527f476f7665726e616e636541646d696e3a2073657420746f206e6f6e2d636f6e746040820152631c9858dd60e21b606082015260800190565b634e487b7160e01b600052601160045260246000fd5b8082018082111561161c5761161c614db1565b634e487b7160e01b600052603260045260246000fd5b600060018201614e0257614e02614db1565b5060010190565b60005b83811015614e24578181015183820152602001614e0c565b50506000910152565b60008251614e3f818460208701614e09565b9190910192915050565b6001600160e01b031991909116815260200190565b600060208284031215614e7057600080fd5b81516116198161450e565b6000808335601e19843603018112614e9257600080fd5b8301803591506001600160401b03821115614eac57600080fd5b6020019150600581901b360382131561436057600080fd5b808202811582820484141761161c5761161c614db1565b6000813561161c8161450e565b81358155600160208084013582840155600283016040850135601e19863603018112614f1357600080fd5b850180356001600160401b03811115614f2b57600080fd5b83820191508060051b3603821315614f4257600080fd5b600160401b811115614f5657614f56614b96565b825481845580821015614f8a5760008481528581208381019083015b80821015614f865782825590880190614f72565b5050505b50600092835260208320925b8181101561184457614fa783614edb565b84820155918401918501614f96565b84815260208082018590526060604083018190528201839052600090849060808401835b86811015615008578335614fed8161450e565b6001600160a01b031682529282019290820190600101614fda565b5098975050505050505050565b9485526001600160a01b0393841660208601529190921660408401526060830191909152608082015260a00190565b600082601f83011261505557600080fd5b81356020615065614c5783614c26565b82815260059290921b8401810191818101908684111561508457600080fd5b8286015b848110156150a857803561509b8161450e565b8352918301918301615088565b509695505050505050565b600082601f8301126150c457600080fd5b813560206150d4614c5783614c26565b82815260059290921b840181019181810190868411156150f357600080fd5b8286015b848110156150a857803583529183019183016150f7565b600082601f83011261511f57600080fd5b61161983833560208501614c49565b600060e0823603121561514057600080fd5b615148614bac565b82358152602080840135908201526040808401359082015260608301356001600160401b038082111561517a57600080fd5b61518636838701615044565b6060840152608085013591508082111561519f57600080fd5b6151ab368387016150b3565b608084015260a08501359150808211156151c457600080fd5b6151d03683870161510e565b60a084015260c08501359150808211156151e957600080fd5b506151f6368286016150b3565b60c08301525092915050565b6000815180845261521a816020860160208601614e09565b601f01601f19169290920160200192915050565b6020815260006116196020830184615202565b60006020828403121561525357600080fd5b5051919050565b600081518084526020808501945080840160005b8381101561459b5781518752958201959082019060010161526e565b600081518084526020808501808196508360051b8101915082860160005b858110156152d25782840389526152c0848351615202565b988501989350908401906001016152a8565b5091979650505050505050565b8051825260208101516020830152604081015160408301526000606082015160e0606085015261531260e0850182614562565b90506080830151848203608086015261532b828261525a565b91505060a083015184820360a0860152615345828261528a565b91505060c083015184820360c0860152610c40828261525a565b60808152600061537260808301876152df565b60208681850152838203604085015260c08201865183528187015182840152604087015160c0604085015281815180845260e0860191508483019350600092505b808310156153dc5783516153c6816145bc565b82529284019260019290920191908401906153b3565b506060890151935084810360608601526153f6818561525a565b935050505060808601518282036080840152615412828261528a565b91505060a086015182820360a084015261542c828261525a565b9350505050610c4060608301846001600160a01b03169052565b6020808252602f908201527f476f7665726e616e636541646d696e3a206361737420766f746520666f72206960408201526e1b9d985b1a59081c1c9bdc1bdcd85b608a1b606082015260800190565b600082601f8301126154a657600080fd5b813560206154b6614c5783614c26565b82815260059290921b840181019181810190868411156154d557600080fd5b8286015b848110156150a85780356154ec8161480b565b83529183019183016154d9565b600060c0823603121561550b57600080fd5b615513614bd4565b823581526020808401359082015260408301356001600160401b038082111561553b57600080fd5b61554736838701615495565b6040840152606085013591508082111561556057600080fd5b61556c368387016150b3565b6060840152608085013591508082111561558557600080fd5b6155913683870161510e565b608084015260a08501359150808211156155aa57600080fd5b506155b7368286016150b3565b60a08301525092915050565b60ff811681146105fb57600080fd5b6000602082840312156155e457600080fd5b8135611619816155c3565b81356155fa816155c3565b60ff811660ff198354161782555060208201356001820155604082013560028201555050565b6020808252818101527f436f7265476f7665726e616e63653a20696e76616c696420636861696e206964604082015260600190565b60408152600061566860408301856152df565b905060018060a01b03831660208301529392505050565b8181038181111561161c5761161c614db1565b73024b9b7b630ba32b223b7bb32b93730b731b29d160651b8152600082516156c1816014850160208701614e09565b6d08185b1c9958591e481d9bdd195960921b6014939091019283015250602201919050565b6020815260006116196020830184614562565b60208082526026908201527f436f7265476f7665726e616e63653a20696e76616c69642070726f706f73616c604082015265206e6f6e636560d01b606082015260800190565b8381526020810183905260608101615756836145bc565b826040830152949350505050565b60006020828403121561577657600080fd5b81356116198161480b565b60006060828403121561579357600080fd5b604051606081016001600160401b03811182821017156157b5576157b5614b96565b60405282356157c3816155c3565b8152602083810135908201526040928301359281019290925250919050565b6f021b7b932a3b7bb32b93730b731b29d160851b81526000825161580d816010850160208701614e09565b6d08185b1c9958591e481d9bdd195960921b6010939091019283015250601e01919050565b6040810161583f846145bc565b9281526020015290565b60008161585857615858614db1565b506000190190565b604080825283519082018190526000906020906060840190828701845b8281101561589b57815115158452928401929084019060010161587d565b50505083810382850152845180825282820190600581901b8301840187850160005b838110156158eb57601f198684030185526158d9838351615202565b948701949250908601906001016158bd565b5090999850505050505050505056fea6eef7e35abe7026729641147f7915573c7e97b47efa546f5f6e3230263bcb49526f6e696e476f7665726e616e636541646d696e3a20717565727920666f7220a57d40f1496988cf60ab7c9d5ba4ff83647f67d3898d441a3aaf21b651678fd9424f73476f7665726e616e636550726f706f73616c3a20696e76616c69642073771d78ae9e5fca95a532fb0971d575d0ce9b59d14823c063e08740137e0e0ecaa26469706673582212203defabe961291433baeb9e8dd4fcccf64e643b8f67b50068aac2a8da95c3cb1d64736f6c63430008110033",
  "devdoc": {
    "errors": {
      "ErrCallerMustBeBridgeContract()": [
        {
          "details": "Error of method caller must be bridge contract."
        }
      ],
      "ErrCallerMustBeRoninTrustedOrgContract()": [
        {
          "details": "Error of method caller must be Ronin trusted org contract."
        }
      ],
      "ErrCallerMustBeValidatorContract()": [
        {
          "details": "Error of method caller must be validator contract."
        }
      ],
      "ErrZeroCodeContract()": [
        {
          "details": "Error of set to non-contract."
        }
      ]
    },
    "kind": "dev",
    "methods": {
      "bridgeContract()": {
        "details": "Returns the bridge contract."
      },
      "bridgeOperatorsVoted(uint256,uint256,address)": {
        "details": "Returns whether the voter `_voter` casted vote for bridge operators at a specific period."
      },
      "castGlobalProposalBySignatures((uint256,uint256,uint8[],uint256[],bytes[],uint256[]),uint8[],(uint8,bytes32,bytes32)[])": {
        "details": "See `GovernanceProposal-_castGlobalProposalBySignatures`."
      },
      "castProposalBySignatures((uint256,uint256,uint256,address[],uint256[],bytes[],uint256[]),uint8[],(uint8,bytes32,bytes32)[])": {
        "details": "See `GovernanceProposal-_castProposalBySignatures`."
      },
      "castProposalVoteForCurrentNetwork((uint256,uint256,uint256,address[],uint256[],bytes[],uint256[]),uint8)": {
        "details": "Casts vote for a proposal on the current network. Requirements: - The method caller is governor."
      },
      "changeProxyAdmin(address,address)": {
        "details": "Changes the admin of `_proxy` to `newAdmin`. Requirements: - This contract must be the current admin of `_proxy`."
      },
      "createEmergencyExitPoll(address,address,uint256,uint256)": {
        "details": "Create a vote to agree that an emergency exit is valid and should return the locked funds back.a Requirements: - The method caller is validator contract."
      },
      "deleteExpired(uint256,uint256)": {
        "details": "Deletes the expired proposal by its chainId and nonce, without creating a new proposal. Requirements: - The proposal is already created."
      },
      "emergencyPollVoted(bytes32,address)": {
        "details": "Returns whether the voter casted vote for emergency exit poll."
      },
      "getBridgeOperatorVotingSignatures(uint256,uint256)": {
        "details": "Returns the voted signatures for bridge operators at a specific period."
      },
      "getProposalExpiryDuration()": {
        "details": "Returns the proposal expiry duration."
      },
      "getProposalSignatures(uint256,uint256)": {
        "details": "Returns the voted signatures for the proposals. Note: The signatures can be empty in case the proposal is voted on the current network."
      },
      "getProxyAdmin(address)": {
        "details": "Returns the current admin of `_proxy`. Requirements: - This contract must be the admin of `_proxy`."
      },
      "getProxyImplementation(address)": {
        "details": "Returns the current implementation of `_proxy`. Requirements: - This contract must be the admin of `_proxy`."
      },
      "lastSyncedBridgeOperatorSetInfo()": {
        "details": "Returns the synced bridge operator set info."
      },
      "lastVotedBlock(address)": {
        "details": "Returns the last voted block of the bridge voter."
      },
      "proposalVoted(uint256,uint256,address)": {
        "details": "Returns whether the voter `_voter` casted vote for the proposal."
      },
      "propose(uint256,uint256,address[],uint256[],bytes[],uint256[])": {
        "details": "See `CoreGovernance-_proposeProposal`. Requirements: - The method caller is governor."
      },
      "proposeGlobal(uint256,uint8[],uint256[],bytes[],uint256[])": {
        "details": "See `CoreGovernance-_proposeGlobal`. Requirements: - The method caller is governor."
      },
      "proposeGlobalProposalStructAndCastVotes((uint256,uint256,uint8[],uint256[],bytes[],uint256[]),uint8[],(uint8,bytes32,bytes32)[])": {
        "details": "See `GovernanceProposal-_proposeGlobalProposalStructAndCastVotes`. Requirements: - The method caller is governor."
      },
      "proposeProposalForCurrentNetwork(uint256,address[],uint256[],bytes[],uint256[],uint8)": {
        "details": "Proposes and casts vote for a proposal on the current network. Requirements: - The method caller is governor. - The proposal is for the current network."
      },
      "proposeProposalStructAndCastVotes((uint256,uint256,uint256,address[],uint256[],bytes[],uint256[]),uint8[],(uint8,bytes32,bytes32)[])": {
        "details": "See `GovernanceProposal-_proposeProposalStructAndCastVotes`. Requirements: - The method caller is governor. - The proposal is for the current network."
      },
      "roninTrustedOrganizationContract()": {
        "details": "Returns the ronin trusted organization contract."
      },
      "setBridgeContract(address)": {
        "details": "Sets the bridge contract. Requirements: - The method caller is admin. - The new address is a contract. Emits the event `BridgeContractUpdated`."
      },
      "setProposalExpiryDuration(uint256)": {
        "details": "Sets the expiry duration for a new proposal. Requirements: - Only allowing self-call to this method, since this contract does not have admin."
      },
      "setRoninTrustedOrganizationContract(address)": {
        "details": "Sets the ronin trusted organization contract. Requirements: - The method caller is admin. - The new address is a contract. Emits the event `RoninTrustedOrganizationContractUpdated`."
      },
      "setValidatorContract(address)": {
        "details": "Sets the validator contract. Requirements: - The method caller is admin. - The new address is a contract. Emits the event `ValidatorContractUpdated`."
      },
      "validatorContract()": {
        "details": "Returns the validator contract."
      },
      "voteBridgeOperatorsBySignatures((uint256,uint256,address[]),(uint8,bytes32,bytes32)[])": {
        "details": "See `BOsGovernanceProposal-_castVotesBySignatures`."
      },
      "voteEmergencyExit(bytes32,address,address,uint256,uint256)": {
        "details": "Votes for an emergency exit. Executes to unlock fund for the emergency exit's requester. Requirements: - The voter is governor. - The voting is existent. - The voting is not expired yet."
      }
    },
    "stateVariables": {
      "_emergencyExitPoll": {
        "details": "Mapping from request hash => emergency poll"
      }
    },
    "version": 1
  },
  "userdoc": {
    "kind": "user",
    "methods": {
      "round(uint256)": {
        "notice": "chain id = 0 for global proposal"
      }
    },
    "version": 1
  },
  "storageLayout": {
    "storage": [
      {
        "astId": 7413,
        "contract": "contracts/ronin/RoninGovernanceAdmin.sol:RoninGovernanceAdmin",
        "label": "round",
        "offset": 0,
        "slot": "0",
        "type": "t_mapping(t_uint256,t_uint256)"
      },
      {
        "astId": 7421,
        "contract": "contracts/ronin/RoninGovernanceAdmin.sol:RoninGovernanceAdmin",
        "label": "vote",
        "offset": 0,
        "slot": "1",
        "type": "t_mapping(t_uint256,t_mapping(t_uint256,t_struct(ProposalVote)7339_storage))"
      },
      {
        "astId": 7423,
        "contract": "contracts/ronin/RoninGovernanceAdmin.sol:RoninGovernanceAdmin",
        "label": "_proposalExpiryDuration",
        "offset": 0,
        "slot": "2",
        "type": "t_uint256"
      },
      {
        "astId": 6735,
        "contract": "contracts/ronin/RoninGovernanceAdmin.sol:RoninGovernanceAdmin",
        "label": "_roninTrustedOrganizationContract",
        "offset": 0,
        "slot": "3",
        "type": "t_contract(IRoninTrustedOrganization)10182"
      },
      {
        "astId": 6386,
        "contract": "contracts/ronin/RoninGovernanceAdmin.sol:RoninGovernanceAdmin",
        "label": "_bridgeContract",
        "offset": 0,
        "slot": "4",
        "type": "t_contract(IBridge)9212"
      },
      {
        "astId": 4545,
        "contract": "contracts/ronin/RoninGovernanceAdmin.sol:RoninGovernanceAdmin",
        "label": "roninChainId",
        "offset": 0,
        "slot": "5",
        "type": "t_uint256"
      },
      {
        "astId": 4548,
        "contract": "contracts/ronin/RoninGovernanceAdmin.sol:RoninGovernanceAdmin",
        "label": "DOMAIN_SEPARATOR",
        "offset": 0,
        "slot": "6",
        "type": "t_bytes32"
      },
      {
        "astId": 5882,
        "contract": "contracts/ronin/RoninGovernanceAdmin.sol:RoninGovernanceAdmin",
        "label": "_lastSyncedBridgeOperatorSetInfo",
        "offset": 0,
        "slot": "7",
        "type": "t_struct(BridgeOperatorSet)12484_storage"
      },
      {
        "astId": 5890,
        "contract": "contracts/ronin/RoninGovernanceAdmin.sol:RoninGovernanceAdmin",
        "label": "_bridgeOperatorVote",
        "offset": 0,
        "slot": "10",
        "type": "t_mapping(t_uint256,t_mapping(t_uint256,t_struct(Vote)12985_storage))"
      },
      {
        "astId": 5895,
        "contract": "contracts/ronin/RoninGovernanceAdmin.sol:RoninGovernanceAdmin",
        "label": "_lastVotedBlock",
        "offset": 0,
        "slot": "11",
        "type": "t_mapping(t_address,t_uint256)"
      },
      {
        "astId": 5905,
        "contract": "contracts/ronin/RoninGovernanceAdmin.sol:RoninGovernanceAdmin",
        "label": "_bridgeVoterSig",
        "offset": 0,
        "slot": "12",
        "type": "t_mapping(t_uint256,t_mapping(t_uint256,t_mapping(t_address,t_struct(Signature)10562_storage)))"
      },
      {
        "astId": 7051,
        "contract": "contracts/ronin/RoninGovernanceAdmin.sol:RoninGovernanceAdmin",
        "label": "_validatorContract",
        "offset": 0,
        "slot": "13",
        "type": "t_contract(IRoninValidatorSet)11973"
      },
      {
        "astId": 21520,
        "contract": "contracts/ronin/RoninGovernanceAdmin.sol:RoninGovernanceAdmin",
        "label": "_emergencyExitPoll",
        "offset": 0,
        "slot": "14",
        "type": "t_mapping(t_bytes32,t_struct(Vote)12985_storage)"
      }
    ],
    "types": {
      "t_address": {
        "encoding": "inplace",
        "label": "address",
        "numberOfBytes": "20"
      },
      "t_array(t_address)dyn_storage": {
        "base": "t_address",
        "encoding": "dynamic_array",
        "label": "address[]",
        "numberOfBytes": "32"
      },
      "t_bool": {
        "encoding": "inplace",
        "label": "bool",
        "numberOfBytes": "1"
      },
      "t_bytes32": {
        "encoding": "inplace",
        "label": "bytes32",
        "numberOfBytes": "32"
      },
      "t_contract(IBridge)9212": {
        "encoding": "inplace",
        "label": "contract IBridge",
        "numberOfBytes": "20"
      },
      "t_contract(IRoninTrustedOrganization)10182": {
        "encoding": "inplace",
        "label": "contract IRoninTrustedOrganization",
        "numberOfBytes": "20"
      },
      "t_contract(IRoninValidatorSet)11973": {
        "encoding": "inplace",
        "label": "contract IRoninValidatorSet",
        "numberOfBytes": "20"
      },
      "t_enum(VoteStatus)10571": {
        "encoding": "inplace",
        "label": "enum VoteStatusConsumer.VoteStatus",
        "numberOfBytes": "1"
      },
      "t_mapping(t_address,t_bool)": {
        "encoding": "mapping",
        "key": "t_address",
        "label": "mapping(address => bool)",
        "numberOfBytes": "32",
        "value": "t_bool"
      },
      "t_mapping(t_address,t_bytes32)": {
        "encoding": "mapping",
        "key": "t_address",
        "label": "mapping(address => bytes32)",
        "numberOfBytes": "32",
        "value": "t_bytes32"
      },
      "t_mapping(t_address,t_struct(Signature)10562_storage)": {
        "encoding": "mapping",
        "key": "t_address",
        "label": "mapping(address => struct SignatureConsumer.Signature)",
        "numberOfBytes": "32",
        "value": "t_struct(Signature)10562_storage"
      },
      "t_mapping(t_address,t_uint256)": {
        "encoding": "mapping",
        "key": "t_address",
        "label": "mapping(address => uint256)",
        "numberOfBytes": "32",
        "value": "t_uint256"
      },
      "t_mapping(t_bytes32,t_struct(Vote)12985_storage)": {
        "encoding": "mapping",
        "key": "t_bytes32",
        "label": "mapping(bytes32 => struct IsolatedGovernance.Vote)",
        "numberOfBytes": "32",
        "value": "t_struct(Vote)12985_storage"
      },
      "t_mapping(t_uint256,t_mapping(t_address,t_struct(Signature)10562_storage))": {
        "encoding": "mapping",
        "key": "t_uint256",
        "label": "mapping(uint256 => mapping(address => struct SignatureConsumer.Signature))",
        "numberOfBytes": "32",
        "value": "t_mapping(t_address,t_struct(Signature)10562_storage)"
      },
      "t_mapping(t_uint256,t_mapping(t_uint256,t_mapping(t_address,t_struct(Signature)10562_storage)))": {
        "encoding": "mapping",
        "key": "t_uint256",
        "label": "mapping(uint256 => mapping(uint256 => mapping(address => struct SignatureConsumer.Signature)))",
        "numberOfBytes": "32",
        "value": "t_mapping(t_uint256,t_mapping(t_address,t_struct(Signature)10562_storage))"
      },
      "t_mapping(t_uint256,t_mapping(t_uint256,t_struct(ProposalVote)7339_storage))": {
        "encoding": "mapping",
        "key": "t_uint256",
        "label": "mapping(uint256 => mapping(uint256 => struct CoreGovernance.ProposalVote))",
        "numberOfBytes": "32",
        "value": "t_mapping(t_uint256,t_struct(ProposalVote)7339_storage)"
      },
      "t_mapping(t_uint256,t_mapping(t_uint256,t_struct(Vote)12985_storage))": {
        "encoding": "mapping",
        "key": "t_uint256",
        "label": "mapping(uint256 => mapping(uint256 => struct IsolatedGovernance.Vote))",
        "numberOfBytes": "32",
        "value": "t_mapping(t_uint256,t_struct(Vote)12985_storage)"
      },
      "t_mapping(t_uint256,t_struct(ProposalVote)7339_storage)": {
        "encoding": "mapping",
        "key": "t_uint256",
        "label": "mapping(uint256 => struct CoreGovernance.ProposalVote)",
        "numberOfBytes": "32",
        "value": "t_struct(ProposalVote)7339_storage"
      },
      "t_mapping(t_uint256,t_struct(Vote)12985_storage)": {
        "encoding": "mapping",
        "key": "t_uint256",
        "label": "mapping(uint256 => struct IsolatedGovernance.Vote)",
        "numberOfBytes": "32",
        "value": "t_struct(Vote)12985_storage"
      },
      "t_mapping(t_uint256,t_uint256)": {
        "encoding": "mapping",
        "key": "t_uint256",
        "label": "mapping(uint256 => uint256)",
        "numberOfBytes": "32",
        "value": "t_uint256"
      },
      "t_struct(BridgeOperatorSet)12484_storage": {
        "encoding": "inplace",
        "label": "struct BridgeOperatorsBallot.BridgeOperatorSet",
        "members": [
          {
            "astId": 12478,
            "contract": "contracts/ronin/RoninGovernanceAdmin.sol:RoninGovernanceAdmin",
            "label": "period",
            "offset": 0,
            "slot": "0",
            "type": "t_uint256"
          },
          {
            "astId": 12480,
            "contract": "contracts/ronin/RoninGovernanceAdmin.sol:RoninGovernanceAdmin",
            "label": "epoch",
            "offset": 0,
            "slot": "1",
            "type": "t_uint256"
          },
          {
            "astId": 12483,
            "contract": "contracts/ronin/RoninGovernanceAdmin.sol:RoninGovernanceAdmin",
            "label": "operators",
            "offset": 0,
            "slot": "2",
            "type": "t_array(t_address)dyn_storage"
          }
        ],
        "numberOfBytes": "96"
      },
      "t_struct(ProposalVote)7339_storage": {
        "encoding": "inplace",
        "label": "struct CoreGovernance.ProposalVote",
        "members": [
          {
            "astId": 7315,
            "contract": "contracts/ronin/RoninGovernanceAdmin.sol:RoninGovernanceAdmin",
            "label": "status",
            "offset": 0,
            "slot": "0",
            "type": "t_enum(VoteStatus)10571"
          },
          {
            "astId": 7317,
            "contract": "contracts/ronin/RoninGovernanceAdmin.sol:RoninGovernanceAdmin",
            "label": "hash",
            "offset": 0,
            "slot": "1",
            "type": "t_bytes32"
          },
          {
            "astId": 7319,
            "contract": "contracts/ronin/RoninGovernanceAdmin.sol:RoninGovernanceAdmin",
            "label": "againstVoteWeight",
            "offset": 0,
            "slot": "2",
            "type": "t_uint256"
          },
          {
            "astId": 7321,
            "contract": "contracts/ronin/RoninGovernanceAdmin.sol:RoninGovernanceAdmin",
            "label": "forVoteWeight",
            "offset": 0,
            "slot": "3",
            "type": "t_uint256"
          },
          {
            "astId": 7324,
            "contract": "contracts/ronin/RoninGovernanceAdmin.sol:RoninGovernanceAdmin",
            "label": "forVoteds",
            "offset": 0,
            "slot": "4",
            "type": "t_array(t_address)dyn_storage"
          },
          {
            "astId": 7327,
            "contract": "contracts/ronin/RoninGovernanceAdmin.sol:RoninGovernanceAdmin",
            "label": "againstVoteds",
            "offset": 0,
            "slot": "5",
            "type": "t_array(t_address)dyn_storage"
          },
          {
            "astId": 7329,
            "contract": "contracts/ronin/RoninGovernanceAdmin.sol:RoninGovernanceAdmin",
            "label": "expiryTimestamp",
            "offset": 0,
            "slot": "6",
            "type": "t_uint256"
          },
          {
            "astId": 7334,
            "contract": "contracts/ronin/RoninGovernanceAdmin.sol:RoninGovernanceAdmin",
            "label": "sig",
            "offset": 0,
            "slot": "7",
            "type": "t_mapping(t_address,t_struct(Signature)10562_storage)"
          },
          {
            "astId": 7338,
            "contract": "contracts/ronin/RoninGovernanceAdmin.sol:RoninGovernanceAdmin",
            "label": "voted",
            "offset": 0,
            "slot": "8",
            "type": "t_mapping(t_address,t_bool)"
          }
        ],
        "numberOfBytes": "288"
      },
      "t_struct(Signature)10562_storage": {
        "encoding": "inplace",
        "label": "struct SignatureConsumer.Signature",
        "members": [
          {
            "astId": 10557,
            "contract": "contracts/ronin/RoninGovernanceAdmin.sol:RoninGovernanceAdmin",
            "label": "v",
            "offset": 0,
            "slot": "0",
            "type": "t_uint8"
          },
          {
            "astId": 10559,
            "contract": "contracts/ronin/RoninGovernanceAdmin.sol:RoninGovernanceAdmin",
            "label": "r",
            "offset": 0,
            "slot": "1",
            "type": "t_bytes32"
          },
          {
            "astId": 10561,
            "contract": "contracts/ronin/RoninGovernanceAdmin.sol:RoninGovernanceAdmin",
            "label": "s",
            "offset": 0,
            "slot": "2",
            "type": "t_bytes32"
          }
        ],
        "numberOfBytes": "96"
      },
      "t_struct(Vote)12985_storage": {
        "encoding": "inplace",
        "label": "struct IsolatedGovernance.Vote",
        "members": [
          {
            "astId": 12967,
            "contract": "contracts/ronin/RoninGovernanceAdmin.sol:RoninGovernanceAdmin",
            "label": "status",
            "offset": 0,
            "slot": "0",
            "type": "t_enum(VoteStatus)10571"
          },
          {
            "astId": 12969,
            "contract": "contracts/ronin/RoninGovernanceAdmin.sol:RoninGovernanceAdmin",
            "label": "finalHash",
            "offset": 0,
            "slot": "1",
            "type": "t_bytes32"
          },
          {
            "astId": 12974,
            "contract": "contracts/ronin/RoninGovernanceAdmin.sol:RoninGovernanceAdmin",
            "label": "voteHashOf",
            "offset": 0,
            "slot": "2",
            "type": "t_mapping(t_address,t_bytes32)"
          },
          {
            "astId": 12977,
            "contract": "contracts/ronin/RoninGovernanceAdmin.sol:RoninGovernanceAdmin",
            "label": "expiredAt",
            "offset": 0,
            "slot": "3",
            "type": "t_uint256"
          },
          {
            "astId": 12980,
            "contract": "contracts/ronin/RoninGovernanceAdmin.sol:RoninGovernanceAdmin",
            "label": "createdAt",
            "offset": 0,
            "slot": "4",
            "type": "t_uint256"
          },
          {
            "astId": 12984,
            "contract": "contracts/ronin/RoninGovernanceAdmin.sol:RoninGovernanceAdmin",
            "label": "voters",
            "offset": 0,
            "slot": "5",
            "type": "t_array(t_address)dyn_storage"
          }
        ],
        "numberOfBytes": "192"
      },
      "t_uint256": {
        "encoding": "inplace",
        "label": "uint256",
        "numberOfBytes": "32"
      },
      "t_uint8": {
        "encoding": "inplace",
        "label": "uint8",
        "numberOfBytes": "1"
      }
    }
  }
}