{
  "address": "0x668d4D4d1713099Ce48BD0b6BF9170e3B12DA1ab",
  "abi": [
    {
      "inputs": [
        {
          "internalType": "uint256",
          "name": "num",
          "type": "uint256"
        },
        {
          "internalType": "uint256",
          "name": "denom",
          "type": "uint256"
        },
        {
          "internalType": "uint256",
          "name": "roninChainId",
          "type": "uint256"
        },
        {
          "internalType": "uint256",
          "name": "expiryDuration",
          "type": "uint256"
        },
        {
          "internalType": "address",
          "name": "bridgeContract",
          "type": "address"
        },
        {
          "internalType": "address[]",
          "name": "callbackRegisters",
          "type": "address[]"
        },
        {
          "internalType": "address[]",
          "name": "bridgeOperators",
          "type": "address[]"
        },
        {
          "internalType": "address[]",
          "name": "governors",
          "type": "address[]"
        },
        {
          "internalType": "uint96[]",
          "name": "voteWeights",
          "type": "uint96[]"
        }
      ],
      "stateMutability": "payable",
      "type": "constructor"
    },
    {
      "inputs": [
        {
          "internalType": "address",
          "name": "addr",
          "type": "address"
        },
        {
          "internalType": "bytes32",
          "name": "codehash",
          "type": "bytes32"
        }
      ],
      "name": "ErrAddressIsNotCreatedEOA",
      "type": "error"
    },
    {
      "inputs": [
        {
          "internalType": "address",
          "name": "voter",
          "type": "address"
        }
      ],
      "name": "ErrAlreadyVoted",
      "type": "error"
    },
    {
      "inputs": [
        {
          "internalType": "address",
          "name": "bridgeOperator",
          "type": "address"
        }
      ],
      "name": "ErrBridgeOperatorAlreadyExisted",
      "type": "error"
    },
    {
      "inputs": [
        {
          "internalType": "address",
          "name": "bridgeOperator",
          "type": "address"
        }
      ],
      "name": "ErrBridgeOperatorUpdateFailed",
      "type": "error"
    },
    {
      "inputs": [
        {
          "internalType": "enum ContractType",
          "name": "contractType",
          "type": "uint8"
        }
      ],
      "name": "ErrContractTypeNotFound",
      "type": "error"
    },
    {
      "inputs": [],
      "name": "ErrCurrentProposalIsNotCompleted",
      "type": "error"
    },
    {
      "inputs": [
        {
          "internalType": "bytes4",
          "name": "msgSig",
          "type": "bytes4"
        }
      ],
      "name": "ErrDuplicated",
      "type": "error"
    },
    {
      "inputs": [
        {
          "internalType": "bytes32",
          "name": "proposalHash",
          "type": "bytes32"
        }
      ],
      "name": "ErrInsufficientGas",
      "type": "error"
    },
    {
      "inputs": [
        {
          "internalType": "bytes4",
          "name": "msgSig",
          "type": "bytes4"
        }
      ],
      "name": "ErrInvalidArguments",
      "type": "error"
    },
    {
      "inputs": [
        {
          "internalType": "bytes4",
          "name": "msgSig",
          "type": "bytes4"
        },
        {
          "internalType": "uint256",
          "name": "actual",
          "type": "uint256"
        },
        {
          "internalType": "uint256",
          "name": "expected",
          "type": "uint256"
        }
      ],
      "name": "ErrInvalidChainId",
      "type": "error"
    },
    {
      "inputs": [],
      "name": "ErrInvalidExpiryTimestamp",
      "type": "error"
    },
    {
      "inputs": [
        {
          "internalType": "bytes4",
          "name": "msgSig",
          "type": "bytes4"
        }
      ],
      "name": "ErrInvalidOrder",
      "type": "error"
    },
    {
      "inputs": [
        {
          "internalType": "bytes32",
          "name": "actual",
          "type": "bytes32"
        },
        {
          "internalType": "bytes32",
          "name": "expected",
          "type": "bytes32"
        }
      ],
      "name": "ErrInvalidProposal",
      "type": "error"
    },
    {
      "inputs": [
        {
          "internalType": "bytes4",
          "name": "msgSig",
          "type": "bytes4"
        }
      ],
      "name": "ErrInvalidProposalNonce",
      "type": "error"
    },
    {
      "inputs": [
        {
          "internalType": "bytes4",
          "name": "msgSig",
          "type": "bytes4"
        }
      ],
      "name": "ErrInvalidSignatures",
      "type": "error"
    },
    {
      "inputs": [
        {
          "internalType": "bytes4",
          "name": "msgSig",
          "type": "bytes4"
        }
      ],
      "name": "ErrInvalidThreshold",
      "type": "error"
    },
    {
      "inputs": [
        {
          "internalType": "bytes4",
          "name": "msgSig",
          "type": "bytes4"
        }
      ],
      "name": "ErrInvalidVoteWeight",
      "type": "error"
    },
    {
      "inputs": [
        {
          "internalType": "bytes4",
          "name": "msgSig",
          "type": "bytes4"
        }
      ],
      "name": "ErrLengthMismatch",
      "type": "error"
    },
    {
      "inputs": [
        {
          "internalType": "bytes4",
          "name": "msgSig",
          "type": "bytes4"
        }
      ],
      "name": "ErrOnlySelfCall",
      "type": "error"
    },
    {
      "inputs": [],
      "name": "ErrQueryForEmptyVote",
      "type": "error"
    },
    {
      "inputs": [
        {
          "internalType": "bytes4",
          "name": "msgSig",
          "type": "bytes4"
        },
        {
          "internalType": "enum RoleAccess",
          "name": "expectedRole",
          "type": "uint8"
        }
      ],
      "name": "ErrUnauthorized",
      "type": "error"
    },
    {
      "inputs": [
        {
          "internalType": "bytes32",
          "name": "proposalHash",
          "type": "bytes32"
        },
        {
          "internalType": "uint256",
          "name": "targetNumber",
          "type": "uint256"
        }
      ],
      "name": "ErrUnsupportedTarget",
      "type": "error"
    },
    {
      "inputs": [
        {
          "internalType": "bytes4",
          "name": "msgSig",
          "type": "bytes4"
        }
      ],
      "name": "ErrUnsupportedVoteType",
      "type": "error"
    },
    {
      "inputs": [],
      "name": "ErrVoteIsFinalized",
      "type": "error"
    },
    {
      "inputs": [
        {
          "internalType": "bytes4",
          "name": "msgSig",
          "type": "bytes4"
        }
      ],
      "name": "ErrZeroAddress",
      "type": "error"
    },
    {
      "inputs": [
        {
          "internalType": "address",
          "name": "addr",
          "type": "address"
        }
      ],
      "name": "ErrZeroCodeContract",
      "type": "error"
    },
    {
      "anonymous": false,
      "inputs": [
        {
          "indexed": true,
          "internalType": "address",
          "name": "governor",
          "type": "address"
        },
        {
          "indexed": true,
          "internalType": "address",
          "name": "fromBridgeOperator",
          "type": "address"
        },
        {
          "indexed": true,
          "internalType": "address",
          "name": "toBridgeOperator",
          "type": "address"
        }
      ],
      "name": "BridgeOperatorUpdated",
      "type": "event"
    },
    {
      "anonymous": false,
      "inputs": [
        {
          "indexed": false,
          "internalType": "bool[]",
          "name": "statuses",
          "type": "bool[]"
        },
        {
          "indexed": false,
          "internalType": "uint96[]",
          "name": "voteWeights",
          "type": "uint96[]"
        },
        {
          "indexed": false,
          "internalType": "address[]",
          "name": "governors",
          "type": "address[]"
        },
        {
          "indexed": false,
          "internalType": "address[]",
          "name": "bridgeOperators",
          "type": "address[]"
        }
      ],
      "name": "BridgeOperatorsAdded",
      "type": "event"
    },
    {
      "anonymous": false,
      "inputs": [
        {
          "indexed": false,
          "internalType": "bool[]",
          "name": "statuses",
          "type": "bool[]"
        },
        {
          "indexed": false,
          "internalType": "address[]",
          "name": "bridgeOperators",
          "type": "address[]"
        }
      ],
      "name": "BridgeOperatorsRemoved",
      "type": "event"
    },
    {
      "anonymous": false,
      "inputs": [
        {
          "indexed": true,
          "internalType": "enum ContractType",
          "name": "contractType",
          "type": "uint8"
        },
        {
          "indexed": true,
          "internalType": "address",
          "name": "addr",
          "type": "address"
        }
      ],
      "name": "ContractUpdated",
      "type": "event"
    },
    {
      "anonymous": false,
      "inputs": [
        {
          "indexed": true,
          "internalType": "uint256",
          "name": "round",
          "type": "uint256"
        },
        {
          "indexed": true,
          "internalType": "bytes32",
          "name": "proposalHash",
          "type": "bytes32"
        },
        {
          "components": [
            {
              "internalType": "uint256",
              "name": "nonce",
              "type": "uint256"
            },
            {
              "internalType": "uint256",
              "name": "chainId",
              "type": "uint256"
            },
            {
              "internalType": "uint256",
              "name": "expiryTimestamp",
              "type": "uint256"
            },
            {
              "internalType": "address[]",
              "name": "targets",
              "type": "address[]"
            },
            {
              "internalType": "uint256[]",
              "name": "values",
              "type": "uint256[]"
            },
            {
              "internalType": "bytes[]",
              "name": "calldatas",
              "type": "bytes[]"
            },
            {
              "internalType": "uint256[]",
              "name": "gasAmounts",
              "type": "uint256[]"
            }
          ],
          "indexed": false,
          "internalType": "struct Proposal.ProposalDetail",
          "name": "proposal",
          "type": "tuple"
        },
        {
          "indexed": false,
          "internalType": "bytes32",
          "name": "globalProposalHash",
          "type": "bytes32"
        },
        {
          "components": [
            {
              "internalType": "uint256",
              "name": "nonce",
              "type": "uint256"
            },
            {
              "internalType": "uint256",
              "name": "expiryTimestamp",
              "type": "uint256"
            },
            {
              "internalType": "enum GlobalProposal.TargetOption[]",
              "name": "targetOptions",
              "type": "uint8[]"
            },
            {
              "internalType": "uint256[]",
              "name": "values",
              "type": "uint256[]"
            },
            {
              "internalType": "bytes[]",
              "name": "calldatas",
              "type": "bytes[]"
            },
            {
              "internalType": "uint256[]",
              "name": "gasAmounts",
              "type": "uint256[]"
            }
          ],
          "indexed": false,
          "internalType": "struct GlobalProposal.GlobalProposalDetail",
          "name": "globalProposal",
          "type": "tuple"
        },
        {
          "indexed": false,
          "internalType": "address",
          "name": "creator",
          "type": "address"
        }
      ],
      "name": "GlobalProposalCreated",
      "type": "event"
    },
    {
      "anonymous": false,
      "inputs": [
        {
          "indexed": false,
          "internalType": "bytes",
          "name": "callData",
          "type": "bytes"
        },
        {
          "indexed": false,
          "internalType": "address[]",
          "name": "registers",
          "type": "address[]"
        },
        {
          "indexed": false,
          "internalType": "bool[]",
          "name": "statuses",
          "type": "bool[]"
        },
        {
          "indexed": false,
          "internalType": "bytes[]",
          "name": "returnDatas",
          "type": "bytes[]"
        }
      ],
      "name": "Notified",
      "type": "event"
    },
    {
      "anonymous": false,
      "inputs": [
        {
          "indexed": true,
          "internalType": "bytes32",
          "name": "proposalHash",
          "type": "bytes32"
        }
      ],
      "name": "ProposalApproved",
      "type": "event"
    },
    {
      "anonymous": false,
      "inputs": [
        {
          "indexed": true,
          "internalType": "uint256",
          "name": "chainId",
          "type": "uint256"
        },
        {
          "indexed": true,
          "internalType": "uint256",
          "name": "round",
          "type": "uint256"
        },
        {
          "indexed": true,
          "internalType": "bytes32",
          "name": "proposalHash",
          "type": "bytes32"
        },
        {
          "components": [
            {
              "internalType": "uint256",
              "name": "nonce",
              "type": "uint256"
            },
            {
              "internalType": "uint256",
              "name": "chainId",
              "type": "uint256"
            },
            {
              "internalType": "uint256",
              "name": "expiryTimestamp",
              "type": "uint256"
            },
            {
              "internalType": "address[]",
              "name": "targets",
              "type": "address[]"
            },
            {
              "internalType": "uint256[]",
              "name": "values",
              "type": "uint256[]"
            },
            {
              "internalType": "bytes[]",
              "name": "calldatas",
              "type": "bytes[]"
            },
            {
              "internalType": "uint256[]",
              "name": "gasAmounts",
              "type": "uint256[]"
            }
          ],
          "indexed": false,
          "internalType": "struct Proposal.ProposalDetail",
          "name": "proposal",
          "type": "tuple"
        },
        {
          "indexed": false,
          "internalType": "address",
          "name": "creator",
          "type": "address"
        }
      ],
      "name": "ProposalCreated",
      "type": "event"
    },
    {
      "anonymous": false,
      "inputs": [
        {
          "indexed": true,
          "internalType": "bytes32",
          "name": "proposalHash",
          "type": "bytes32"
        },
        {
          "indexed": false,
          "internalType": "bool[]",
          "name": "successCalls",
          "type": "bool[]"
        },
        {
          "indexed": false,
          "internalType": "bytes[]",
          "name": "returnDatas",
          "type": "bytes[]"
        }
      ],
      "name": "ProposalExecuted",
      "type": "event"
    },
    {
      "anonymous": false,
      "inputs": [
        {
          "indexed": true,
          "internalType": "bytes32",
          "name": "proposalHash",
          "type": "bytes32"
        }
      ],
      "name": "ProposalExpired",
      "type": "event"
    },
    {
      "anonymous": false,
      "inputs": [
        {
          "indexed": true,
          "internalType": "uint256",
          "name": "duration",
          "type": "uint256"
        }
      ],
      "name": "ProposalExpiryDurationChanged",
      "type": "event"
    },
    {
      "anonymous": false,
      "inputs": [
        {
          "indexed": true,
          "internalType": "bytes32",
          "name": "proposalHash",
          "type": "bytes32"
        }
      ],
      "name": "ProposalRejected",
      "type": "event"
    },
    {
      "anonymous": false,
      "inputs": [
        {
          "indexed": true,
          "internalType": "bytes32",
          "name": "proposalHash",
          "type": "bytes32"
        },
        {
          "indexed": true,
          "internalType": "address",
          "name": "voter",
          "type": "address"
        },
        {
          "indexed": false,
          "internalType": "enum Ballot.VoteType",
          "name": "support",
          "type": "uint8"
        },
        {
          "indexed": false,
          "internalType": "uint256",
          "name": "weight",
          "type": "uint256"
        }
      ],
      "name": "ProposalVoted",
      "type": "event"
    },
    {
      "anonymous": false,
      "inputs": [
        {
          "indexed": true,
          "internalType": "uint256",
          "name": "nonce",
          "type": "uint256"
        },
        {
          "indexed": true,
          "internalType": "uint256",
          "name": "numerator",
          "type": "uint256"
        },
        {
          "indexed": true,
          "internalType": "uint256",
          "name": "denominator",
          "type": "uint256"
        },
        {
          "indexed": false,
          "internalType": "uint256",
          "name": "previousNumerator",
          "type": "uint256"
        },
        {
          "indexed": false,
          "internalType": "uint256",
          "name": "previousDenominator",
          "type": "uint256"
        }
      ],
      "name": "ThresholdUpdated",
      "type": "event"
    },
    {
      "inputs": [],
      "name": "DOMAIN_SEPARATOR",
      "outputs": [
        {
          "internalType": "bytes32",
          "name": "",
          "type": "bytes32"
        }
      ],
      "stateMutability": "view",
      "type": "function"
    },
    {
      "inputs": [
        {
          "internalType": "uint96[]",
          "name": "voteWeights",
          "type": "uint96[]"
        },
        {
          "internalType": "address[]",
          "name": "governors",
          "type": "address[]"
        },
        {
          "internalType": "address[]",
          "name": "bridgeOperators",
          "type": "address[]"
        }
      ],
      "name": "addBridgeOperators",
      "outputs": [
        {
          "internalType": "bool[]",
          "name": "addeds",
          "type": "bool[]"
        }
      ],
      "stateMutability": "nonpayable",
      "type": "function"
    },
    {
      "inputs": [
        {
          "components": [
            {
              "internalType": "uint256",
              "name": "nonce",
              "type": "uint256"
            },
            {
              "internalType": "uint256",
              "name": "expiryTimestamp",
              "type": "uint256"
            },
            {
              "internalType": "enum GlobalProposal.TargetOption[]",
              "name": "targetOptions",
              "type": "uint8[]"
            },
            {
              "internalType": "uint256[]",
              "name": "values",
              "type": "uint256[]"
            },
            {
              "internalType": "bytes[]",
              "name": "calldatas",
              "type": "bytes[]"
            },
            {
              "internalType": "uint256[]",
              "name": "gasAmounts",
              "type": "uint256[]"
            }
          ],
          "internalType": "struct GlobalProposal.GlobalProposalDetail",
          "name": "_globalProposal",
          "type": "tuple"
        },
        {
          "internalType": "enum Ballot.VoteType[]",
          "name": "_supports",
          "type": "uint8[]"
        },
        {
          "components": [
            {
              "internalType": "uint8",
              "name": "v",
              "type": "uint8"
            },
            {
              "internalType": "bytes32",
              "name": "r",
              "type": "bytes32"
            },
            {
              "internalType": "bytes32",
              "name": "s",
              "type": "bytes32"
            }
          ],
          "internalType": "struct SignatureConsumer.Signature[]",
          "name": "_signatures",
          "type": "tuple[]"
        }
      ],
      "name": "castGlobalProposalBySignatures",
      "outputs": [],
      "stateMutability": "nonpayable",
      "type": "function"
    },
    {
      "inputs": [
        {
          "components": [
            {
              "internalType": "uint256",
              "name": "nonce",
              "type": "uint256"
            },
            {
              "internalType": "uint256",
              "name": "chainId",
              "type": "uint256"
            },
            {
              "internalType": "uint256",
              "name": "expiryTimestamp",
              "type": "uint256"
            },
            {
              "internalType": "address[]",
              "name": "targets",
              "type": "address[]"
            },
            {
              "internalType": "uint256[]",
              "name": "values",
              "type": "uint256[]"
            },
            {
              "internalType": "bytes[]",
              "name": "calldatas",
              "type": "bytes[]"
            },
            {
              "internalType": "uint256[]",
              "name": "gasAmounts",
              "type": "uint256[]"
            }
          ],
          "internalType": "struct Proposal.ProposalDetail",
          "name": "_proposal",
          "type": "tuple"
        },
        {
          "internalType": "enum Ballot.VoteType[]",
          "name": "_supports",
          "type": "uint8[]"
        },
        {
          "components": [
            {
              "internalType": "uint8",
              "name": "v",
              "type": "uint8"
            },
            {
              "internalType": "bytes32",
              "name": "r",
              "type": "bytes32"
            },
            {
              "internalType": "bytes32",
              "name": "s",
              "type": "bytes32"
            }
          ],
          "internalType": "struct SignatureConsumer.Signature[]",
          "name": "_signatures",
          "type": "tuple[]"
        }
      ],
      "name": "castProposalBySignatures",
      "outputs": [],
      "stateMutability": "nonpayable",
      "type": "function"
    },
    {
      "inputs": [
        {
          "components": [
            {
              "internalType": "uint256",
              "name": "nonce",
              "type": "uint256"
            },
            {
              "internalType": "uint256",
              "name": "chainId",
              "type": "uint256"
            },
            {
              "internalType": "uint256",
              "name": "expiryTimestamp",
              "type": "uint256"
            },
            {
              "internalType": "address[]",
              "name": "targets",
              "type": "address[]"
            },
            {
              "internalType": "uint256[]",
              "name": "values",
              "type": "uint256[]"
            },
            {
              "internalType": "bytes[]",
              "name": "calldatas",
              "type": "bytes[]"
            },
            {
              "internalType": "uint256[]",
              "name": "gasAmounts",
              "type": "uint256[]"
            }
          ],
          "internalType": "struct Proposal.ProposalDetail",
          "name": "_proposal",
          "type": "tuple"
        },
        {
          "internalType": "enum Ballot.VoteType",
          "name": "_support",
          "type": "uint8"
        }
      ],
      "name": "castProposalVoteForCurrentNetwork",
      "outputs": [],
      "stateMutability": "nonpayable",
      "type": "function"
    },
    {
      "inputs": [
        {
          "internalType": "uint256",
          "name": "_voteWeight",
          "type": "uint256"
        }
      ],
      "name": "checkThreshold",
      "outputs": [
        {
          "internalType": "bool",
          "name": "",
          "type": "bool"
        }
      ],
      "stateMutability": "view",
      "type": "function"
    },
    {
      "inputs": [
        {
          "internalType": "uint256",
          "name": "_chainId",
          "type": "uint256"
        },
        {
          "internalType": "uint256",
          "name": "_round",
          "type": "uint256"
        }
      ],
      "name": "deleteExpired",
      "outputs": [],
      "stateMutability": "nonpayable",
      "type": "function"
    },
    {
      "inputs": [
        {
          "internalType": "address[]",
          "name": "governors",
          "type": "address[]"
        }
      ],
      "name": "getBridgeOperatorOf",
      "outputs": [
        {
          "internalType": "address[]",
          "name": "bridgeOperators",
          "type": "address[]"
        }
      ],
      "stateMutability": "view",
      "type": "function"
    },
    {
      "inputs": [
        {
          "internalType": "address",
          "name": "bridgeOperator",
          "type": "address"
        }
      ],
      "name": "getBridgeOperatorWeight",
      "outputs": [
        {
          "internalType": "uint256",
          "name": "weight",
          "type": "uint256"
        }
      ],
      "stateMutability": "view",
      "type": "function"
    },
    {
      "inputs": [
        {
          "internalType": "address[]",
          "name": "bridgeOperators",
          "type": "address[]"
        }
      ],
      "name": "getBridgeOperatorWeights",
      "outputs": [
        {
          "internalType": "uint256[]",
          "name": "weights",
          "type": "uint256[]"
        }
      ],
      "stateMutability": "view",
      "type": "function"
    },
    {
      "inputs": [],
      "name": "getBridgeOperators",
      "outputs": [
        {
          "internalType": "address[]",
          "name": "",
          "type": "address[]"
        }
      ],
      "stateMutability": "view",
      "type": "function"
    },
    {
      "inputs": [],
      "name": "getCallbackRegisters",
      "outputs": [
        {
          "internalType": "address[]",
          "name": "registers",
          "type": "address[]"
        }
      ],
      "stateMutability": "view",
      "type": "function"
    },
    {
      "inputs": [
        {
          "internalType": "enum ContractType",
          "name": "contractType",
          "type": "uint8"
        }
      ],
      "name": "getContract",
      "outputs": [
        {
          "internalType": "address",
          "name": "contract_",
          "type": "address"
        }
      ],
      "stateMutability": "view",
      "type": "function"
    },
    {
      "inputs": [],
      "name": "getFullBridgeOperatorInfos",
      "outputs": [
        {
          "internalType": "address[]",
          "name": "governors",
          "type": "address[]"
        },
        {
          "internalType": "address[]",
          "name": "bridgeOperators",
          "type": "address[]"
        },
        {
          "internalType": "uint256[]",
          "name": "weights",
          "type": "uint256[]"
        }
      ],
      "stateMutability": "view",
      "type": "function"
    },
    {
      "inputs": [
        {
          "internalType": "uint256",
          "name": "_round",
          "type": "uint256"
        }
      ],
      "name": "getGlobalProposalSignatures",
      "outputs": [
        {
          "internalType": "address[]",
          "name": "_voters",
          "type": "address[]"
        },
        {
          "internalType": "enum Ballot.VoteType[]",
          "name": "_supports",
          "type": "uint8[]"
        },
        {
          "components": [
            {
              "internalType": "uint8",
              "name": "v",
              "type": "uint8"
            },
            {
              "internalType": "bytes32",
              "name": "r",
              "type": "bytes32"
            },
            {
              "internalType": "bytes32",
              "name": "s",
              "type": "bytes32"
            }
          ],
          "internalType": "struct SignatureConsumer.Signature[]",
          "name": "_signatures",
          "type": "tuple[]"
        }
      ],
      "stateMutability": "view",
      "type": "function"
    },
    {
      "inputs": [
        {
          "internalType": "address",
          "name": "governor",
          "type": "address"
        }
      ],
      "name": "getGovernorWeight",
      "outputs": [
        {
          "internalType": "uint256",
          "name": "weight",
          "type": "uint256"
        }
      ],
      "stateMutability": "view",
      "type": "function"
    },
    {
      "inputs": [
        {
          "internalType": "address[]",
          "name": "governors",
          "type": "address[]"
        }
      ],
      "name": "getGovernorWeights",
      "outputs": [
        {
          "internalType": "uint256[]",
          "name": "weights",
          "type": "uint256[]"
        }
      ],
      "stateMutability": "view",
      "type": "function"
    },
    {
      "inputs": [],
      "name": "getGovernors",
      "outputs": [
        {
          "internalType": "address[]",
          "name": "",
          "type": "address[]"
        }
      ],
      "stateMutability": "view",
      "type": "function"
    },
    {
      "inputs": [
        {
          "internalType": "address[]",
          "name": "bridgeOperators",
          "type": "address[]"
        }
      ],
      "name": "getGovernorsOf",
      "outputs": [
        {
          "internalType": "address[]",
          "name": "governors",
          "type": "address[]"
        }
      ],
      "stateMutability": "view",
      "type": "function"
    },
    {
      "inputs": [],
      "name": "getProposalExpiryDuration",
      "outputs": [
        {
          "internalType": "uint256",
          "name": "",
          "type": "uint256"
        }
      ],
      "stateMutability": "view",
      "type": "function"
    },
    {
      "inputs": [
        {
          "internalType": "uint256",
          "name": "_chainId",
          "type": "uint256"
        },
        {
          "internalType": "uint256",
          "name": "_round",
          "type": "uint256"
        }
      ],
      "name": "getProposalSignatures",
      "outputs": [
        {
          "internalType": "address[]",
          "name": "_voters",
          "type": "address[]"
        },
        {
          "internalType": "enum Ballot.VoteType[]",
          "name": "_supports",
          "type": "uint8[]"
        },
        {
          "components": [
            {
              "internalType": "uint8",
              "name": "v",
              "type": "uint8"
            },
            {
              "internalType": "bytes32",
              "name": "r",
              "type": "bytes32"
            },
            {
              "internalType": "bytes32",
              "name": "s",
              "type": "bytes32"
            }
          ],
          "internalType": "struct SignatureConsumer.Signature[]",
          "name": "_signatures",
          "type": "tuple[]"
        }
      ],
      "stateMutability": "view",
      "type": "function"
    },
    {
      "inputs": [],
      "name": "getThreshold",
      "outputs": [
        {
          "internalType": "uint256",
          "name": "num_",
          "type": "uint256"
        },
        {
          "internalType": "uint256",
          "name": "denom_",
          "type": "uint256"
        }
      ],
      "stateMutability": "view",
      "type": "function"
    },
    {
      "inputs": [],
      "name": "getTotalWeights",
      "outputs": [
        {
          "internalType": "uint256",
          "name": "",
          "type": "uint256"
        }
      ],
      "stateMutability": "view",
      "type": "function"
    },
    {
      "inputs": [
        {
          "internalType": "uint256",
          "name": "_round",
          "type": "uint256"
        },
        {
          "internalType": "address",
          "name": "_voter",
          "type": "address"
        }
      ],
      "name": "globalProposalVoted",
      "outputs": [
        {
          "internalType": "bool",
          "name": "",
          "type": "bool"
        }
      ],
      "stateMutability": "view",
      "type": "function"
    },
    {
      "inputs": [
        {
          "internalType": "address",
          "name": "addr",
          "type": "address"
        }
      ],
      "name": "isBridgeOperator",
      "outputs": [
        {
          "internalType": "bool",
          "name": "",
          "type": "bool"
        }
      ],
      "stateMutability": "view",
      "type": "function"
    },
    {
      "inputs": [],
      "name": "minimumVoteWeight",
      "outputs": [
        {
          "internalType": "uint256",
          "name": "",
          "type": "uint256"
        }
      ],
      "stateMutability": "view",
      "type": "function"
    },
    {
      "inputs": [
        {
          "internalType": "uint256",
          "name": "_chainId",
          "type": "uint256"
        },
        {
          "internalType": "uint256",
          "name": "_round",
          "type": "uint256"
        },
        {
          "internalType": "address",
          "name": "_voter",
          "type": "address"
        }
      ],
      "name": "proposalVoted",
      "outputs": [
        {
          "internalType": "bool",
          "name": "",
          "type": "bool"
        }
      ],
      "stateMutability": "view",
      "type": "function"
    },
    {
      "inputs": [
        {
          "internalType": "uint256",
          "name": "_chainId",
          "type": "uint256"
        },
        {
          "internalType": "uint256",
          "name": "_expiryTimestamp",
          "type": "uint256"
        },
        {
          "internalType": "address[]",
          "name": "_targets",
          "type": "address[]"
        },
        {
          "internalType": "uint256[]",
          "name": "_values",
          "type": "uint256[]"
        },
        {
          "internalType": "bytes[]",
          "name": "_calldatas",
          "type": "bytes[]"
        },
        {
          "internalType": "uint256[]",
          "name": "_gasAmounts",
          "type": "uint256[]"
        }
      ],
      "name": "propose",
      "outputs": [],
      "stateMutability": "nonpayable",
      "type": "function"
    },
    {
      "inputs": [
        {
          "internalType": "uint256",
          "name": "_expiryTimestamp",
          "type": "uint256"
        },
        {
          "internalType": "enum GlobalProposal.TargetOption[]",
          "name": "_targetOptions",
          "type": "uint8[]"
        },
        {
          "internalType": "uint256[]",
          "name": "_values",
          "type": "uint256[]"
        },
        {
          "internalType": "bytes[]",
          "name": "_calldatas",
          "type": "bytes[]"
        },
        {
          "internalType": "uint256[]",
          "name": "_gasAmounts",
          "type": "uint256[]"
        }
      ],
      "name": "proposeGlobal",
      "outputs": [],
      "stateMutability": "nonpayable",
      "type": "function"
    },
    {
      "inputs": [
        {
          "components": [
            {
              "internalType": "uint256",
              "name": "nonce",
              "type": "uint256"
            },
            {
              "internalType": "uint256",
              "name": "expiryTimestamp",
              "type": "uint256"
            },
            {
              "internalType": "enum GlobalProposal.TargetOption[]",
              "name": "targetOptions",
              "type": "uint8[]"
            },
            {
              "internalType": "uint256[]",
              "name": "values",
              "type": "uint256[]"
            },
            {
              "internalType": "bytes[]",
              "name": "calldatas",
              "type": "bytes[]"
            },
            {
              "internalType": "uint256[]",
              "name": "gasAmounts",
              "type": "uint256[]"
            }
          ],
          "internalType": "struct GlobalProposal.GlobalProposalDetail",
          "name": "_globalProposal",
          "type": "tuple"
        },
        {
          "internalType": "enum Ballot.VoteType[]",
          "name": "_supports",
          "type": "uint8[]"
        },
        {
          "components": [
            {
              "internalType": "uint8",
              "name": "v",
              "type": "uint8"
            },
            {
              "internalType": "bytes32",
              "name": "r",
              "type": "bytes32"
            },
            {
              "internalType": "bytes32",
              "name": "s",
              "type": "bytes32"
            }
          ],
          "internalType": "struct SignatureConsumer.Signature[]",
          "name": "_signatures",
          "type": "tuple[]"
        }
      ],
      "name": "proposeGlobalProposalStructAndCastVotes",
      "outputs": [],
      "stateMutability": "nonpayable",
      "type": "function"
    },
    {
      "inputs": [
        {
          "internalType": "uint256",
          "name": "_expiryTimestamp",
          "type": "uint256"
        },
        {
          "internalType": "address[]",
          "name": "_targets",
          "type": "address[]"
        },
        {
          "internalType": "uint256[]",
          "name": "_values",
          "type": "uint256[]"
        },
        {
          "internalType": "bytes[]",
          "name": "_calldatas",
          "type": "bytes[]"
        },
        {
          "internalType": "uint256[]",
          "name": "_gasAmounts",
          "type": "uint256[]"
        },
        {
          "internalType": "enum Ballot.VoteType",
          "name": "_support",
          "type": "uint8"
        }
      ],
      "name": "proposeProposalForCurrentNetwork",
      "outputs": [],
      "stateMutability": "nonpayable",
      "type": "function"
    },
    {
      "inputs": [
        {
          "components": [
            {
              "internalType": "uint256",
              "name": "nonce",
              "type": "uint256"
            },
            {
              "internalType": "uint256",
              "name": "chainId",
              "type": "uint256"
            },
            {
              "internalType": "uint256",
              "name": "expiryTimestamp",
              "type": "uint256"
            },
            {
              "internalType": "address[]",
              "name": "targets",
              "type": "address[]"
            },
            {
              "internalType": "uint256[]",
              "name": "values",
              "type": "uint256[]"
            },
            {
              "internalType": "bytes[]",
              "name": "calldatas",
              "type": "bytes[]"
            },
            {
              "internalType": "uint256[]",
              "name": "gasAmounts",
              "type": "uint256[]"
            }
          ],
          "internalType": "struct Proposal.ProposalDetail",
          "name": "_proposal",
          "type": "tuple"
        },
        {
          "internalType": "enum Ballot.VoteType[]",
          "name": "_supports",
          "type": "uint8[]"
        },
        {
          "components": [
            {
              "internalType": "uint8",
              "name": "v",
              "type": "uint8"
            },
            {
              "internalType": "bytes32",
              "name": "r",
              "type": "bytes32"
            },
            {
              "internalType": "bytes32",
              "name": "s",
              "type": "bytes32"
            }
          ],
          "internalType": "struct SignatureConsumer.Signature[]",
          "name": "_signatures",
          "type": "tuple[]"
        }
      ],
      "name": "proposeProposalStructAndCastVotes",
      "outputs": [],
      "stateMutability": "nonpayable",
      "type": "function"
    },
    {
      "inputs": [
        {
          "internalType": "address[]",
          "name": "registers",
          "type": "address[]"
        }
      ],
      "name": "registerCallbacks",
      "outputs": [
        {
          "internalType": "bool[]",
          "name": "registereds",
          "type": "bool[]"
        }
      ],
      "stateMutability": "nonpayable",
      "type": "function"
    },
    {
      "inputs": [
        {
          "internalType": "address[]",
          "name": "bridgeOperators",
          "type": "address[]"
        }
      ],
      "name": "removeBridgeOperators",
      "outputs": [
        {
          "internalType": "bool[]",
          "name": "removeds",
          "type": "bool[]"
        }
      ],
      "stateMutability": "nonpayable",
      "type": "function"
    },
    {
      "inputs": [
        {
          "internalType": "uint256",
          "name": "",
          "type": "uint256"
        }
      ],
      "name": "round",
      "outputs": [
        {
          "internalType": "uint256",
          "name": "",
          "type": "uint256"
        }
      ],
      "stateMutability": "view",
      "type": "function"
    },
    {
      "inputs": [
        {
          "internalType": "enum ContractType",
          "name": "contractType",
          "type": "uint8"
        },
        {
          "internalType": "address",
          "name": "addr",
          "type": "address"
        }
      ],
      "name": "setContract",
      "outputs": [],
      "stateMutability": "nonpayable",
      "type": "function"
    },
    {
      "inputs": [
        {
          "internalType": "uint256",
          "name": "numerator",
          "type": "uint256"
        },
        {
          "internalType": "uint256",
          "name": "denominator",
          "type": "uint256"
        }
      ],
      "name": "setThreshold",
      "outputs": [
        {
          "internalType": "uint256",
          "name": "",
          "type": "uint256"
        },
        {
          "internalType": "uint256",
          "name": "",
          "type": "uint256"
        }
      ],
      "stateMutability": "nonpayable",
      "type": "function"
    },
    {
      "inputs": [
        {
          "internalType": "address[]",
          "name": "governors",
          "type": "address[]"
        }
      ],
      "name": "sumGovernorsWeight",
      "outputs": [
        {
          "internalType": "uint256",
          "name": "sum",
          "type": "uint256"
        }
      ],
      "stateMutability": "view",
      "type": "function"
    },
    {
      "inputs": [],
      "name": "totalBridgeOperators",
      "outputs": [
        {
          "internalType": "uint256",
          "name": "",
          "type": "uint256"
        }
      ],
      "stateMutability": "view",
      "type": "function"
    },
    {
      "inputs": [
        {
          "internalType": "address[]",
          "name": "registers",
          "type": "address[]"
        }
      ],
      "name": "unregisterCallbacks",
      "outputs": [
        {
          "internalType": "bool[]",
          "name": "unregistereds",
          "type": "bool[]"
        }
      ],
      "stateMutability": "nonpayable",
      "type": "function"
    },
    {
      "inputs": [
        {
          "internalType": "address",
          "name": "newBridgeOperator",
          "type": "address"
        }
      ],
      "name": "updateBridgeOperator",
      "outputs": [],
      "stateMutability": "nonpayable",
      "type": "function"
    },
    {
      "inputs": [
        {
          "internalType": "uint256",
          "name": "",
          "type": "uint256"
        },
        {
          "internalType": "uint256",
          "name": "",
          "type": "uint256"
        }
      ],
      "name": "vote",
      "outputs": [
        {
          "internalType": "enum VoteStatusConsumer.VoteStatus",
          "name": "status",
          "type": "uint8"
        },
        {
          "internalType": "bytes32",
          "name": "hash",
          "type": "bytes32"
        },
        {
          "internalType": "uint256",
          "name": "againstVoteWeight",
          "type": "uint256"
        },
        {
          "internalType": "uint256",
          "name": "forVoteWeight",
          "type": "uint256"
        },
        {
          "internalType": "uint256",
          "name": "expiryTimestamp",
          "type": "uint256"
        }
      ],
      "stateMutability": "view",
      "type": "function"
    }
  ],
  "transactionHash": "0x6b7c4d5f3823700ba8ede3e7ea6adde36fb6b6f3335fbf75881b60fef5990329",
  "args": [
    70,
    100,
    2021,
    1209600,
    "0xCee681C9108c42C710c6A8A949307D5F13C9F3ca",
    [
      "0xE95d6e8A88C3036604538247DB3F0f7D3ee55499"
    ],
    [
      "0x2e82D2b56f858f79DeeF11B160bFC4631873da2B",
      "0xBcb61783dd2403FE8cC9B89B27B1A9Bb03d040Cb",
      "0xB266Bf53Cf7EAc4E2065A404598DCB0E15E9462c",
      "0xcc5fc5b6c8595f56306da736f6cd02ed9141c84a"
    ],
    [
      "0xd24D87DDc1917165435b306aAC68D99e0F49A3Fa",
      "0xb033ba62EC622dC54D0ABFE0254e79692147CA26",
      "0x087D08e3ba42e64E3948962dd1371F906D1278b9",
      "0x52ec2e6BBcE45AfFF8955Da6410bb13812F4289F"
    ],
    [
      100,
      100,
      100,
      100
    ]
  ],
  "numDeployments": 1,
  "solcInputHash": "178fd61415a2f08ac5a40f24b2de13c7",
  "bytecode": "0x60a060405260405162006ed738038062006ed7833981016040819052620000269162001071565b858989898888888888836200003b8162000217565b50506200007b60017f92872d32822c9d44b36a2537d3e0d4c46fc4de1ce154ccfaed560a8a58445f1d60001b6200032860201b6200139c1790919060201c565b620000b8887fc55405a488814eaa0e2a685a0131142785b8d033d311c8c8244e34a7c12ca40f60001b6200032860201b6200139c1790919060201c565b620000f5877fac1ff16a4f04f2a37a9ba5252a69baa100b460e517d1f8019c054a5ad698f9ff60001b6200032860201b6200139c1790919060201c565b620001026002866200032c565b604080516020808201839052600c60608301526b212924a223a2afa0a226a4a760a11b6080808401919091528284018a905283518084038201815260a0840185528051908301207f599a80fcaa47b95e2323ab4d34d34e0cc9feda4b843edafcc30c7bdf60ea15bf60c08501527f9d3fa1662ea89365eb7af36506f0ad5413bd7e078960d8481ff4718763aaa8e960e08501527fad7c5bef027816a800da1736444fb58a807ef4c9603b7848673f7e3a68eb14a5610100850152610120808501919091528451808503909101815261014090930190935281519101209052620001ed818385620003d6565b50505050505050505062000207816200086d60201b60201c565b505050505050505050506200143a565b6060816200022581620008a0565b8251806001600160401b0381111562000242576200024262000f0d565b6040519080825280602002602001820160405280156200026c578160200160208202803683370190505b509250806000036200027f575062000322565b60008051602062006eb783398151915260006314d72edb60e21b815b848110156200031c57878181518110620002b957620002b962001165565b60200260200101519250620002d483620008e760201b60201c565b620002ee83856200091f60201b620013a01790919060201c565b87828151811062000303576200030362001165565b911515602092830291909101909101526001016200029b565b50505050505b50919050565b9055565b807fdea3103d22025c269050bea94c0c84688877f12fa22b7e6d2d5d78a9a49aa1cb600084600d8111156200036557620003656200117b565b60ff168152602081019190915260400160002080546001600160a01b0319166001600160a01b03928316179055811682600d811115620003a957620003a96200117b565b6040517f865d1c228a8ea13709cfe61f346f7ff67f1bbd4a18ff31ad3e7147350d317c5990600090a35050565b6060620003f282846200093f60201b620013b51790919060201c565b620003fd81620008a0565b8251855181148015620004105750845181145b62000441576040516306b5667560e21b81526001600160e01b03196000351660048201526024015b60405180910390fd5b806001600160401b038111156200045c576200045c62000f0d565b60405190808252806020026020018201604052801562000486578160200160208202803683370190505b5092508060000362000499575062000865565b604080518082019091526000808252602082018190527f546f6b46ab35b030b6816596b352aef78857377176c8b24baa2046a62cf1998c917f8400683eb2cb350596d73644c0c89fe45f108600003457374f4ab3e87b4f3aa3917fd38c234075fde25875da8a6b7e36b58b86681d483271a99eeeee1d78e258a24d917f88547008e60f5748911f2e59feb3093b7e4c2e87b2dd69d61f112fcc932de8e3919081908190815b89811015620007a6578d81815181106200055c576200055c62001165565b602002602001015194508c81815181106200057b576200057b62001165565b60200260200101519350620005968562000a5d60201b60201c565b620005a18462000a5d565b8e8181518110620005b657620005b662001165565b60200260200101516001600160601b0316600003620005f757604051637f11b8a360e11b81526001600160e01b031960003516600482015260240162000438565b62000611858a62000acb60201b620014b51790919060201c565b8062000632575062000632848a62000acb60201b620014b51790919060201c565b8062000653575062000653858862000acb60201b620014b51790919060201c565b8062000674575062000674848862000acb60201b620014b51790919060201c565b158c82815181106200068a576200068a62001165565b6020026020010190151590811515815250508b8181518110620006b157620006b162001165565b6020026020010151156200079d57620006d9858a6200091f60201b620013a01790919060201c565b50620006f484886200091f60201b620013a01790919060201c565b506001600160a01b03848116600081815260208b90526040902080546001600160a01b0319169288169290921790915582528e518f90829081106200073d576200073d62001165565b6020908102919091018101516001600160601b031690830181905262000764908462001191565b6001600160a01b038087166000908152602089815260409091208551918601516001600160601b0316600160a01b029190921617905592505b6001016200053e565b50620007e4827f6924fe71b0c8b61aea02ca498b5f53b29bd95726278b1fe4eb791bb24a42644c60001b62000aee60201b620014d71790919060201c565b506200081c635ebae8a060e01b8d8d604051602001620008069291906200122d565b60408051601f1981840301815291905262000b08565b7f897810999654e525e272b5909785c4d0ceaee1bbf9c87d9091a37558b0423b788b8f8f8f6040516200085394939291906200125f565b60405180910390a15050505050505050505b509392505050565b600281905560405181907fe5cd1c123a8cf63fa1b7229678db61fe8ae99dbbd27889370b6667c8cae97da190600090a250565b620008b68162000d2860201b620014ee1760201c565b15620008e457604051630d697db160e11b81526001600160e01b031960003516600482015260240162000438565b50565b806001600160a01b03163b600003620008e457604051630bfc64a360e21b81526001600160a01b038216600482015260240162000438565b600062000936836001600160a01b03841662000dd3565b90505b92915050565b81518151606091908082016001600160401b0381111562000964576200096462000f0d565b6040519080825280602002602001820160405280156200098e578160200160208202803683370190505b50925060005b82811015620009f057858181518110620009b257620009b262001165565b6020026020010151848281518110620009cf57620009cf62001165565b6001600160a01b039092166020928302919091019091015260010162000994565b60005b8281101562000a535785818151811062000a115762000a1162001165565b602002602001015185838151811062000a2e5762000a2e62001165565b6001600160a01b039092166020928302919091019091015260019182019101620009f3565b5050505092915050565b62000a688162000e25565b6001600160a01b0381163f7fc5d2460186f7233c927e7db2dcc703c0e500b653ca82273b7bfad8045d85a470811462000ac757604051633c88494760e01b81526001600160a01b03831660048201526024810182905260440162000438565b5050565b6001600160a01b0381166000908152600183016020526040812054151562000936565b6000620009398362000b01818562000e5c565b9250829055565b600062000b2f60008051602062006eb783398151915262000e7c60201b6200158d1760201c565b8051909150600081900362000b445750505050565b6000816001600160401b0381111562000b615762000b6162000f0d565b60405190808252806020026020018201604052801562000b8b578160200160208202803683370190505b5090506000826001600160401b0381111562000bab5762000bab62000f0d565b60405190808252806020026020018201604052801562000be057816020015b606081526020019060019003908162000bca5790505b5090506000868660405160200162000bfa92919062001315565b604051602081830303815290604052905060005b8481101562000cdf5785818151811062000c2c5762000c2c62001165565b60200260200101516001600160a01b03168260405162000c4d919062001348565b6000604051808303816000865af19150503d806000811462000c8c576040519150601f19603f3d011682016040523d82523d6000602084013e62000c91565b606091505b5085838151811062000ca75762000ca762001165565b6020026020010185848151811062000cc35762000cc362001165565b6020908102919091010191909152901515905260010162000c0e565b507fc0b07a27e66788f39cc91405f012f34066b16f31b4bda9438c52f2dae0cc5b638186858560405162000d17949392919062001394565b60405180910390a150505050505050565b6000815160000362000d3c57506000919050565b60005b600183510381101562000dca57600181015b835181101562000dc05783818151811062000d705762000d7062001165565b60200260200101516001600160a01b031684838151811062000d965762000d9662001165565b60200260200101516001600160a01b03160362000db7575060019392505050565b60010162000d51565b5060010162000d3f565b50600092915050565b600081815260018301602052604081205462000e1c5750815460018181018455600084815260208082209093018490558454848252828601909352604090209190915562000939565b50600062000939565b6001600160a01b038116620008e45760405163104c66df60e31b81526001600160e01b031960003516600482015260240162000438565b81548101818110156200093957634e487b7160005260116020526024601cfd5b6060600062000e8b8362000e92565b9392505050565b60608160000180548060200260200160405190810160405280929190818152602001828054801562000ee457602002820191906000526020600020905b81548152602001906001019080831162000ecf575b50505050509050919050565b80516001600160a01b038116811462000f0857600080fd5b919050565b634e487b7160e01b600052604160045260246000fd5b604051601f8201601f191681016001600160401b038111828210171562000f4e5762000f4e62000f0d565b604052919050565b60006001600160401b0382111562000f725762000f7262000f0d565b5060051b60200190565b600082601f83011262000f8e57600080fd5b8151602062000fa762000fa18362000f56565b62000f23565b82815260059290921b8401810191818101908684111562000fc757600080fd5b8286015b8481101562000fed5762000fdf8162000ef0565b835291830191830162000fcb565b509695505050505050565b600082601f8301126200100a57600080fd5b815160206200101d62000fa18362000f56565b82815260059290921b840181019181810190868411156200103d57600080fd5b8286015b8481101562000fed5780516001600160601b0381168114620010635760008081fd5b835291830191830162001041565b60008060008060008060008060006101208a8c0312156200109157600080fd5b8951985060208a0151975060408a0151965060608a01519550620010b860808b0162000ef0565b60a08b01519095506001600160401b0380821115620010d657600080fd5b620010e48d838e0162000f7c565b955060c08c0151915080821115620010fb57600080fd5b620011098d838e0162000f7c565b945060e08c01519150808211156200112057600080fd5b6200112e8d838e0162000f7c565b93506101008c01519150808211156200114657600080fd5b50620011558c828d0162000ff8565b9150509295985092959850929598565b634e487b7160e01b600052603260045260246000fd5b634e487b7160e01b600052602160045260246000fd5b808201808211156200093957634e487b7160e01b600052601160045260246000fd5b600081518084526020808501945080840160005b83811015620011ee5781516001600160a01b031687529582019590820190600101620011c7565b509495945050505050565b600081518084526020808501945080840160005b83811015620011ee5781511515875295820195908201906001016200120d565b604081526000620012426040830185620011b3565b8281036020840152620012568185620011f9565b95945050505050565b608081526000620012746080830187620011f9565b82810360208481019190915286518083528782019282019060005b81811015620012b65784516001600160601b0316835293830193918301916001016200128f565b50508481036040860152620012cc8188620011b3565b925050508281036060840152620012e48185620011b3565b979650505050505050565b60005b838110156200130c578181015183820152602001620012f2565b50506000910152565b6001600160e01b03198316815281516000906200133a816004850160208701620012ef565b919091016004019392505050565b600082516200135c818460208701620012ef565b9190910192915050565b6000815180845262001380816020860160208601620012ef565b601f01601f19169290920160200192915050565b608081526000620013a9608083018762001366565b602083820381850152620013be8288620011b3565b91508382036040850152620013d48287620011f9565b915083820360608501528185518084528284019150828160051b85010183880160005b838110156200142957601f198784030185526200141683835162001366565b94860194925090850190600101620013f7565b50909b9a5050505050505050505050565b608051615a45620014726000396000818161039f01528181610684015281816108930152818161095501526112860152615a456000f3fe608060405234801561001057600080fd5b506004361061025d5760003560e01c80639b19dbfd11610146578063bc96180b116100c3578063de981f1b11610087578063de981f1b146105fd578063e75235b814610628578063e9c0349814610630578063f80b535214610643578063fb4f63711461064b578063fdc4fa471461065e57600080fd5b8063bc96180b146105a5578063c441c4a8146105ad578063cc7e6b3b146105c4578063d78392f8146105d7578063dafae408146105ea57600080fd5b8063b384abef1161010a578063b384abef146104e9578063b405aaf214610544578063b9c3620914610557578063bc4e068f1461057f578063bc9182fd1461059257600080fd5b80639b19dbfd146104a05780639b2ee437146104a8578063a1819f9a146104bb578063a8a0e32c146104ce578063ada86b24146104e157600080fd5b806334d5f37b116101df578063663ac011116101a3578063663ac011146103e95780637de5dedd146103fc578063828fc1a114610404578063865e6fd314610417578063901979d51461042a5780639a7d33821461048d57600080fd5b806334d5f37b1461036757806335da8121146103875780633644e5151461039a57806341b02cc7146103c1578063562d5304146103e157600080fd5b80630f7c3189116102265780630f7c3189146102e75780631c905e39146102fc5780631f4253381461031e5780632c5e6520146103315780632faf925d1461035457600080fd5b80624054b81461026257806301a5f43f1461027757806309fcd8c7146102a05780630a44fa43146102b35780630b881830146102d4575b600080fd5b610275610270366004614712565b610671565b005b61028a6102853660046147a6565b6106b0565b604051610297919061487c565b60405180910390f35b6102756102ae36600461488f565b610763565b6102c66102c136600461495e565b610804565b604051908152602001610297565b6102756102e2366004614712565b610889565b6102ef6108b7565b60405161029791906149d8565b61030f61030a3660046149eb565b6108d5565b60405161029793929190614a33565b61028a61032c36600461495e565b6108f1565b61034461033f366004614afd565b61093e565b6040519015158152602001610297565b610275610362366004614b32565b61094b565b6102c6610375366004614b8b565b60006020819052908152604090205481565b61028a61039536600461495e565b610984565b6102c67f000000000000000000000000000000000000000000000000000000000000000081565b6103d46103cf36600461495e565b6109ca565b6040516102979190614bd4565b6102c6610adc565b6102756103f7366004614bff565b610af5565b6102c6610be2565b610344610412366004614cdc565b610c5e565b610275610425366004614d17565b610c72565b6102c6610438366004614d41565b6001600160a01b0390811660009081526000805160206159d9833981519152602090815260408083205490931682526000805160206159b983398151915290522054600160a01b90046001600160601b031690565b61027561049b3660046149eb565b610c91565b6102ef610cdd565b6102756104b6366004614d41565b610ce7565b6102756104c9366004614d5c565b610e83565b6102756104dc366004614e35565b610f4a565b6102c6610f66565b6105336104f73660046149eb565b600160208181526000938452604080852090915291835291208054918101546002820154600383015460069093015460ff909416939192909185565b604051610297959493929190614e86565b610344610552366004614d41565b610f7e565b61056a6105653660046149eb565b610f98565b60408051928352602083019190915201610297565b61030f61058d366004614b8b565b610fb9565b6102ef6105a036600461495e565b610fd6565b6102c66110bd565b6105b56110c8565b60405161029793929190614ebb565b6103d46105d236600461495e565b6110f1565b6102c66105e5366004614d41565b61112f565b6103446105f8366004614b8b565b61113a565b61061061060b366004614efe565b611177565b6040516001600160a01b039091168152602001610297565b61056a6111f2565b61028a61063e36600461495e565b611223565b6102ef611269565b610275610659366004614b32565b611273565b6102ef61066c36600461495e565b6112be565b61067a3361159a565b6106a985858585857f0000000000000000000000000000000000000000000000000000000000000000336115d6565b5050505050565b60606106ba61167b565b61075887878080602002602001604051908101604052809392919081815260200183836020028082843760009201919091525050604080516020808b0282810182019093528a82529093508a92508991829185019084908082843760009201919091525050604080516020808a028281018201909352898252909350899250889182918501908490808284376000920191909152506116ab92505050565b979650505050505050565b61076c3361159a565b6107f98989898989808060200260200160405190810160405280939291908181526020018383602002808284376000920191909152506107b292508a91508b905061509c565b8787808060200260200160405190810160405280939291908181526020018383602002808284376000920191909152503092506107f3915060029050611177565b33611a27565b505050505050505050565b60008282808060200260200160405190810160405280939291908181526020018383602002808284376000920191909152506108459250839150611b499050565b610881848480806020026020016040519081016040528093929190818152602001838360200280828437600092019190915250611b7e92505050565b949350505050565b6106a985858585857f0000000000000000000000000000000000000000000000000000000000000000611c25565b60606108d060008051602061595983398151915261158d565b905090565b60608060606108e48585611cd9565b9250925092509250925092565b60606108fb61167b565b6109378383808060200260200160405190810160405280939291908181526020018383602002808284376000920191909152506120c292505050565b9392505050565b6000610881848484612184565b6106a985858585857f00000000000000000000000000000000000000000000000000000000000000003061097f6002611177565b6121ba565b606061098e61167b565b61093783838080602002602001604051908101604052809392919081815260200183836020028082843760009201919091525061229692505050565b606081806001600160401b038111156109e5576109e5614f19565b604051908082528060200260200182016040528015610a0e578160200160208202803683370190505b5091506000805160206159d98339815191526000805160206159b983398151915260005b83811015610ad2578160008460008a8a86818110610a5257610a526150a9565b9050602002016020810190610a679190614d41565b6001600160a01b039081168252602080830193909352604091820160009081205490911684529183019390935291019020548551600160a01b9091046001600160601b031690869083908110610abf57610abf6150a9565b6020908102919091010152600101610a32565b5050505092915050565b60006108d06000805160206159f983398151915261237e565b610afe3361159a565b60003390506000610bc7468d8d8d80806020026020016040519081016040528093929190818152602001838360200280828437600081840152601f19601f820116905080830192505050505050508c8c80806020026020016040519081016040528093929190818152602001838360200280828437600092019190915250610b8c92508d91508e905061509c565b8a8a808060200260200160405190810160405280939291908181526020018383602002808284376000920191909152508b9250612388915050565b9050610bd4828285612497565b505050505050505050505050565b6000610bfa6000805160206159798339815191525490565b6001610c126000805160206159798339815191525490565b610c40610c2b600080516020615a198339815191525490565b600080516020615999833981519152906125ad565b610c4a91906150d5565b610c5491906150e8565b6108d091906150fb565b600061093760008484612184565b92915050565b610c7a61167b565b610c83816125df565b610c8d8282612615565b5050565b6000828152600160208181526040808420858552909152822090810154909103610cce5760405163713b099760e11b815260040160405180910390fd5b610cd7816126b9565b50505050565b60606108d06128ce565b610cf03361159a565b610cf9816128e7565b3360009081526000805160206159b983398151915260208190526040909120546001600160a01b039081169083168103610d5657604051630669b93360e31b81526001600160a01b03841660048201526024015b60405180910390fd5b6000805160206159f98339815191526000610d71828461294d565b8015610d825750610d8282866113a0565b905080610dad5760405163080fab4b60e31b81526001600160a01b0386166004820152602401610d4d565b6001600160a01b0383811660008181526000805160206159d98339815191526020818152604080842080546001600160a01b0319908116909155958b16808552818520805488163390811790915585528a8352938190208054909616841790955584519081019390935292820152610e40906364b18d0960e11b906060015b604051602081830303815290604052612962565b6040516001600160a01b03808816919086169033907fcef34cd748f30a1b7a2f214fd1651779f79bc6c1be02785cad5c1f0ee877213d90600090a4505050505050565b610e8c3361159a565b610f3d8a8a8a8a8080602002602001604051908101604052809392919081815260200183836020028082843760009201919091525050604080516020808e0282810182019093528d82529093508d92508c918291850190849080828437600092019190915250610f0292508a91508b905061509c565b878780806020026020016040519081016040528093929190818152602001838360200280828437600092019190915250339250612388915050565b5050505050505050505050565b610f533361159a565b610c8d33610f6084615205565b83612497565b60006108d0600080516020615a198339815191525490565b6000610c6c6000805160206159f9833981519152836114b5565b600080610fa361167b565b610fad8484612b57565b915091505b9250929050565b6060806060610fc9600085611cd9565b9250925092509193909250565b606081806001600160401b03811115610ff157610ff1614f19565b60405190808252806020026020018201604052801561101a578160200160208202803683370190505b5091506000805160206159b983398151915260005b828110156110b45781600087878481811061104c5761104c6150a9565b90506020020160208101906110619190614d41565b6001600160a01b0390811682526020820192909252604001600020548551911690859083908110611094576110946150a9565b6001600160a01b039092166020928302919091019091015260010161102f565b50505092915050565b60006108d060025490565b60608060606110d5612c4c565b92506110df6128ce565b91506110ea83612c77565b9050909192565b6060610937838380806020026020016040519081016040528093929190818152602001838360200280828437600092019190915250612c7792505050565b6000610c6c82612d64565b6000611155610c2b600080516020615a198339815191525490565b6000805160206159798339815191525461116f90846152d9565b101592915050565b60007fdea3103d22025c269050bea94c0c84688877f12fa22b7e6d2d5d78a9a49aa1cb600083600d8111156111ae576111ae614a0d565b60ff1681526020810191909152604001600020546001600160a01b03169050806111ed578160405163409140df60e11b8152600401610d4d91906152f0565b919050565b60008061120b6000805160206159998339815191525490565b60008051602061597983398151915254915091509091565b606061122d61167b565b610937838380806020026020016040519081016040528093929190818152602001838360200280828437600092019190915250612d9c92505050565b60606108d0612c4c565b61127c3361159a565b6112b685858585857f0000000000000000000000000000000000000000000000000000000000000000306112b06002611177565b33613081565b505050505050565b606081806001600160401b038111156112d9576112d9614f19565b604051908082528060200260200182016040528015611302578160200160208202803683370190505b5091506000805160206159d983398151915260005b828110156110b457816000878784818110611334576113346150a9565b90506020020160208101906113499190614d41565b6001600160a01b039081168252602082019290925260400160002054855191169085908390811061137c5761137c6150a9565b6001600160a01b0390921660209283029190910190910152600101611317565b9055565b6000610937836001600160a01b0384166130d4565b81518151606091908082016001600160401b038111156113d7576113d7614f19565b604051908082528060200260200182016040528015611400578160200160208202803683370190505b50925060005b8281101561145a57858181518110611420576114206150a9565b602002602001015184828151811061143a5761143a6150a9565b6001600160a01b0390921660209283029190910190910152600101611406565b60005b82811015610ad257858181518110611477576114776150a9565b6020026020010151858381518110611491576114916150a9565b6001600160a01b03909216602092830291909101909101526001918201910161145d565b6001600160a01b03811660009081526001830160205260408120541515610937565b6000610c6c836114e78585613123565b9250829055565b6000815160000361150157506000919050565b60005b600183510381101561158457600181015b835181101561157b57838181518110611530576115306150a9565b60200260200101516001600160a01b0316848381518110611553576115536150a9565b60200260200101516001600160a01b031603611573575060019392505050565b600101611515565b50600101611504565b50600092915050565b6060600061093783613142565b6115a381612d64565b6000036115d3576000356001600160e01b0319166003604051620f948f60ea1b8152600401610d4d92919061530a565b50565b6115e86115e288615205565b8261319e565b5060006115fc6115f789615205565b61329d565b905061167161160a89615205565b8888888861165d8961161d8960006133dc565b60405161190160f01b6020820152602281018390526042810182905260009060620160405160208183030381529060405280519060200120905092915050565b61166c8a61161d8a60016133dc565b613415565b5050505050505050565b3330146116a9576000356001600160e01b0319166040516307337e1960e41b8152600401610d4d9190615338565b565b60606116b783836113b5565b6116c081611b49565b82518551811480156116d25750845181145b6116fd576000356001600160e01b0319166040516306b5667560e21b8152600401610d4d9190615338565b806001600160401b0381111561171557611715614f19565b60405190808252806020026020018201604052801561173e578160200160208202803683370190505b5092508060000361174f5750611a1f565b604080518082019091526000808252602082018190527f546f6b46ab35b030b6816596b352aef78857377176c8b24baa2046a62cf1998c916000805160206159d9833981519152916000805160206159f9833981519152916000805160206159b9833981519152919081908190815b898110156119a0578d81815181106117d8576117d86150a9565b602002602001015194508c81815181106117f4576117f46150a9565b60200260200101519350611807856128e7565b611810846128e7565b8e8181518110611822576118226150a9565b60200260200101516001600160601b0316600003611861576000356001600160e01b031916604051637f11b8a360e11b8152600401610d4d9190615338565b61186b89866114b5565b8061187b575061187b89856114b5565b8061188b575061188b87866114b5565b8061189b575061189b87856114b5565b158c82815181106118ae576118ae6150a9565b6020026020010190151590811515815250508b81815181106118d2576118d26150a9565b602002602001015115611998576118e989866113a0565b506118f487856113a0565b506001600160a01b03848116600081815260208b90526040902080546001600160a01b0319169288169290921790915582528e518f908290811061193a5761193a6150a9565b6020908102919091018101516001600160601b031690830181905261195f90846150d5565b6001600160a01b038087166000908152602089815260409091208551918601516001600160601b0316600160a01b029190921617905592505b6001016117be565b506119b9600080516020615a19833981519152836114d7565b506119d8635ebae8a060e01b8d8d604051602001610e2c92919061534d565b7f897810999654e525e272b5909785c4d0ceaee1bbf9c87d9091a37558b0423b788b8f8f8f604051611a0d949392919061537b565b60405180910390a15050505050505050505b509392505050565b6000611a33600061367a565b905060006040518060c001604052808381526020018c81526020018b8b808060200260200160405190810160405280939291908181526020018383602002808284376000920182905250938552505050602082018b9052604082018a90526060909101889052909150611aa782878761372a565b9050611abe600254826138c090919063ffffffff16565b6000611ac98261329d565b600085815260008051602061593983398151915260205260409020600181018290556006018e9055905080847f771d78ae9e5fca95a532fb0971d575d0ce9b59d14823c063e08740137e0e0eca84611b2087613961565b878a604051611b32949392919061551d565b60405180910390a350505050505050505050505050565b611b52816114ee565b156115d3576000356001600160e01b031916604051630d697db160e11b8152600401610d4d9190615338565b600081611b8a81611b49565b6000611ba36000805160206159f983398151915261237e565b90506000805160206159b983398151915260005b82811015611c1c57816000878381518110611bd457611bd46150a9565b6020908102919091018101516001600160a01b0316825281019190915260400160002054611c1290600160a01b90046001600160601b0316866150d5565b9450600101611bb7565b50505050919050565b6000611c336115f788615205565b6020808901356000908152600180835260408083208c35845290935291902001549091508114611ca2576020808801356000908152600180835260408083208b3584529093529082902001549051632bee7fdb60e21b8152610d4d918391600401918252602082015260400190565b611cd0611cae88615205565b87878787611cc18861161d8960006133dc565b61166c8961161d8a60016133dc565b50505050505050565b60008281526001602090815260408083208484529091528120600481015460058201546060938493849390929091611d1182846150d5565b9050806001600160401b03811115611d2b57611d2b614f19565b604051908082528060200260200182016040528015611d54578160200160208202803683370190505b509550806001600160401b03811115611d6f57611d6f614f19565b604051908082528060200260200182016040528015611dba57816020015b6040805160608101825260008082526020808301829052928201528252600019909201910181611d8d5790505b509450806001600160401b03811115611dd557611dd5614f19565b604051908082528060200260200182016040528015611dfe578160200160208202803683370190505b50965060005b83811015611f53576000878281518110611e2057611e206150a9565b60200260200101906001811115611e3957611e39614a0d565b90816001811115611e4c57611e4c614a0d565b90525060008a81526001602090815260408083208c845290915281206004870180546007909201929184908110611e8557611e856150a9565b60009182526020808320909101546001600160a01b0316835282810193909352604091820190208151606081018352815460ff16815260018201549381019390935260020154908201528651879083908110611ee357611ee36150a9565b6020026020010181905250846004018181548110611f0357611f036150a9565b9060005260206000200160009054906101000a90046001600160a01b0316888281518110611f3357611f336150a9565b6001600160a01b0390921660209283029190910190910152600101611e04565b5060005b828110156120b657600187611f6c86846150d5565b81518110611f7c57611f7c6150a9565b60200260200101906001811115611f9557611f95614a0d565b90816001811115611fa857611fa8614a0d565b90525060008a81526001602090815260408083208c845290915281206005870180546007909201929184908110611fe157611fe16150a9565b60009182526020808320909101546001600160a01b0316835282810193909352604091820190208151606081018352815460ff16815260018201549381019390935260020154908201528661203686846150d5565b81518110612046576120466150a9565b6020026020010181905250846005018181548110612066576120666150a9565b6000918252602090912001546001600160a01b03168861208686846150d5565b81518110612096576120966150a9565b6001600160a01b0390921660209283029190910190910152600101611f57565b50505050509250925092565b6060816120ce81611b49565b8251806001600160401b038111156120e8576120e8614f19565b604051908082528060200260200182016040528015612111578160200160208202803683370190505b50925060008051602061595983398151915260005b82811015611c1c5761215a868281518110612143576121436150a9565b60200260200101518361294d90919063ffffffff16565b85828151811061216c5761216c6150a9565b91151560209283029190910190910152600101612126565b600083815260016020908152604080832085845282528083206001600160a01b038516845260080190915281205460ff16610881565b60006121d183836121ca8c615668565b919061372a565b905060006121de8261329d565b60008080526001602081815285518352600080516020615939833981519152905260409091200154909150811461225b5760008080526001602081815284518352600080516020615939833981519152905260409182902001549051632bee7fdb60e21b8152610d4d918391600401918252602082015260400190565b600061226e6122698c615668565b613961565b9050610f3d838b8b8b8b6122878c61161d8960006133dc565b61166c8d61161d8a60016133dc565b6060816122a281611b49565b8251806001600160401b038111156122bc576122bc614f19565b6040519080825280602002602001820160405280156122e5578160200160208202803683370190505b509250806000036122f65750612378565b60008051602061595983398151915260006314d72edb60e21b815b848110156123725787818151811061232b5761232b6150a9565b6020026020010151925061233e836125df565b61234884846113a0565b87828151811061235a5761235a6150a9565b91151560209283029190910190910152600101612311565b50505050505b50919050565b6000610c6c825490565b612390614609565b876000036123c4576000356001600160e01b03191660004660405163092048d160e11b8152600401610d4d93929190615732565b60006123cf8961367a565b90506040518060e001604052808281526020018a815260200189815260200188815260200187815260200186815260200185815250915061241b600254836138c090919063ffffffff16565b60006124268361329d565b60008b81526001602081815260408084208785529091529091209081018290556006018a9055905080828b7fa57d40f1496988cf60ab7c9d5ba4ff83647f67d3898d441a3aaf21b651678fd98688604051612482929190615754565b60405180910390a45050979650505050505050565b468260200151146124d057602082015160405163092048d160e11b8152610d4d916001600160e01b031960003516914690600401615732565b60006124db8361329d565b602080850151600090815260018083526040808320885184529093529190200154909150811461254a57602080840151600090815260018083526040808320875184529093529082902001549051632bee7fdb60e21b8152610d4d918391600401918252602082015260400190565b6000612554613a98565b9050600081612561613aa2565b61256b91906150e8565b6125769060016150d5565b6040805160608101825260008082526020820181905291810191909152909150611671868685858b866125a88e61112f565b613aac565b6000825480156125d857828102915080820483146125d857634e487b7160005260116020526024601cfd5b5092915050565b806001600160a01b03163b6000036115d357604051630bfc64a360e21b81526001600160a01b0382166004820152602401610d4d565b807fdea3103d22025c269050bea94c0c84688877f12fa22b7e6d2d5d78a9a49aa1cb600084600d81111561264b5761264b614a0d565b60ff168152602081019190915260400160002080546001600160a01b0319166001600160a01b03928316179055811682600d81111561268c5761268c614a0d565b6040517f865d1c228a8ea13709cfe61f346f7ff67f1bbd4a18ff31ad3e7147350d317c5990600090a35050565b600080825460ff1660048111156126d2576126d2614a0d565b1480156126e3575042826006015411155b905080156111ed5760018201546040517f58f98006a7f2f253f8ae8f8b7cec9008ca05359633561cd7c22f3005682d4a5590600090a260005b60048301548110156127cf57826008016000846004018381548110612743576127436150a9565b60009182526020808320909101546001600160a01b031683528201929092526040018120805460ff19169055600484018054600786019291908490811061278c5761278c6150a9565b60009182526020808320909101546001600160a01b031683528201929092526040018120805460ff1916815560018181018390556002909101919091550161271c565b5060005b6005830154811015612886578260080160008460050183815481106127fa576127fa6150a9565b60009182526020808320909101546001600160a01b031683528201929092526040018120805460ff191690556005840180546007860192919084908110612843576128436150a9565b60009182526020808320909101546001600160a01b031683528201929092526040018120805460ff191681556001818101839055600290910191909155016127d3565b50815460ff1916825560006001830181905560028301819055600383018190556128b4906004840190614646565b6128c2600583016000614646565b60006006830155919050565b60606108d06000805160206159f983398151915261158d565b6128f081613df5565b6001600160a01b0381163f7fc5d2460186f7233c927e7db2dcc703c0e500b653ca82273b7bfad8045d85a4708114610c8d57604051633c88494760e01b81526001600160a01b038316600482015260248101829052604401610d4d565b6000610937836001600160a01b038416613e2a565b600061297b60008051602061595983398151915261158d565b8051909150600081900361298f5750505050565b6000816001600160401b038111156129a9576129a9614f19565b6040519080825280602002602001820160405280156129d2578160200160208202803683370190505b5090506000826001600160401b038111156129ef576129ef614f19565b604051908082528060200260200182016040528015612a2257816020015b6060815260200190600190039081612a0d5790505b50905060008686604051602001612a3a92919061577e565b604051602081830303815290604052905060005b84811015612b1057858181518110612a6857612a686150a9565b60200260200101516001600160a01b031682604051612a8791906157af565b6000604051808303816000865af19150503d8060008114612ac4576040519150601f19603f3d011682016040523d82523d6000602084013e612ac9565b606091505b50858381518110612adc57612adc6150a9565b60200260200101858481518110612af557612af56150a9565b60209081029190910101919091529015159052600101612a4e565b507fc0b07a27e66788f39cc91405f012f34066b16f31b4bda9438c52f2dae0cc5b6381868585604051612b4694939291906157cb565b60405180910390a150505050505050565b60008082841115612b89576000356001600160e01b0319166040516387f6f09560e01b8152600401610d4d9190615338565b600080516020615999833981519152549150612bb16000805160206159798339815191525490565b9050612bca600080516020615999833981519152859055565b612be1600080516020615979833981519152849055565b8284612c0c7f92872d32822c9d44b36a2537d3e0d4c46fc4de1ce154ccfaed560a8a58445f1d613f1d565b60408051868152602081018690527f976f8a9c5bdf8248dec172376d6e2b80a8e3df2f0328e381c6db8e1cf138c0f8910160405180910390a49250929050565b60606108d07f546f6b46ab35b030b6816596b352aef78857377176c8b24baa2046a62cf1998c61158d565b8051606090806001600160401b03811115612c9457612c94614f19565b604051908082528060200260200182016040528015612cbd578160200160208202803683370190505b5091506000805160206159b983398151915260005b82811015612d5c57816000868381518110612cef57612cef6150a9565b60200260200101516001600160a01b03166001600160a01b0316815260200190815260200160002060000160149054906101000a90046001600160601b03166001600160601b0316848281518110612d4957612d496150a9565b6020908102919091010152600101612cd2565b505050919050565b6001600160a01b031660009081526000805160206159b98339815191526020526040902054600160a01b90046001600160601b031690565b606081612da881611b49565b8251806001600160401b03811115612dc257612dc2614f19565b604051908082528060200260200182016040528015612deb578160200160208202803683370190505b50925080600003612dfc5750612378565b604080518082019091526000808252602082018190526000805160206159d9833981519152917f546f6b46ab35b030b6816596b352aef78857377176c8b24baa2046a62cf1998c916000805160206159f9833981519152916000805160206159b9833981519152919081908190815b89811015613001578c8181518110612e8557612e856150a9565b6020908102919091018101516001600160a01b038082166000908152928c905260409092205490911695509350612ebb85613df5565b612ec484613df5565b6001600160a01b0385811660009081526020888152604091829020825180840190935254808416808452600160a01b9091046001600160601b03169183019190915290935090851614612f38576000356001600160e01b03191660405163053265f160e01b8152600401610d4d9190615338565b612f4287856114b5565b8015612f535750612f5388866114b5565b8c8281518110612f6557612f656150a9565b6020026020010190151590811515815250508b8181518110612f8957612f896150a9565b602002602001015115612ff957612fa0888661294d565b50612fab878561294d565b506001600160a01b03808516600090815260208b8152604080832080546001600160a01b0319169055928816825288815291812055820151612ff6906001600160601b0316846150d5565b92505b600101612e6b565b5061301a600080516020615a1983398151915283613f38565b5061303963c48549de60e01b8d8d604051602001610e2c92919061534d565b7fdf3dcd7987202f64648f3acdbf12401e3a2bb23e77e19f99826b5475cbb863698b8d60405161306a929190615818565b60405180910390a150505050505050505050919050565b613089614609565b61309d6130958b615668565b858585613f48565b905060006130ad6122698c615668565b90506130c6828b8b8b8b6122878c61161d8960006133dc565b509998505050505050505050565b600081815260018301602052604081205461311b57508154600181810184556000848152602080822090930184905584548482528286019093526040902091909155610c6c565b506000610c6c565b8154810181811015610c6c57634e487b7160005260116020526024601cfd5b60608160000180548060200260200160405190810160405280929190818152602001828054801561319257602002820191906000526020600020905b81548152602001906001019080831161317e575b50505050509050919050565b60208201516000908082036131d9576000356001600160e01b03191660004660405163092048d160e11b8152600401610d4d93929190615732565b6002546131e79085906138c0565b60006131f28561329d565b90506131fd8261367a565b60008381526001602081815260408084208585529091529182902091880151908201849055600690910155925084518314613259576000356001600160e01b03191660405163d4cec26960e01b8152600401610d4d9190615338565b8083837fa57d40f1496988cf60ab7c9d5ba4ff83647f67d3898d441a3aaf21b651678fd9888860405161328d929190615754565b60405180910390a4505092915050565b6080810151606082015160a083015151600092919083906001600160401b038111156132cb576132cb614f19565b6040519080825280602002602001820160405280156132f4578160200160208202803683370190505b5060c086015190915060005b8251811015613353578660a00151818151811061331f5761331f6150a9565b602002602001015180519060200120838281518110613340576133406150a9565b6020908102919091010152600101613300565b50604080517fd051578048e6ff0bbc9fca3b65a42088dbde10f36ca841de566711087ad9b08a8152875160208083019190915280890151828401529790910151606082015283518702938701939093206080840152835186029386019390932060a0830152805185029085012060c082015281518402919093012060e083015250610100902090565b604080517fd900570327c4c0df8dd6bdd522b7da7e39145dd049d2fd4602276adcd511e3c2815260208101939093528201526060902090565b841580159061342357508483145b61344e576000356001600160e01b0319166040516306b5667560e21b8152600401610d4d9190615338565b6000613458613a98565b9050600081613465613aa2565b61346f91906150e8565b61347a9060016150d5565b9050600080366000805b8981101561363e578a8a8281811061349e5761349e6150a9565b606002919091019350600090508d8d838181106134bd576134bd6150a9565b90506020020160208101906134d2919061583d565b60018111156134e3576134e3614a0d565b0361350f57613508896134f9602086018661586b565b8560200135866040013561403c565b9350613586565b60018d8d83818110613523576135236150a9565b9050602002016020810190613538919061583d565b600181111561354957613549614a0d565b0361355f57613508886134f9602086018661586b565b6000356001600160e01b031916604051630612418f60e11b8152600401610d4d9190615338565b836001600160a01b0316856001600160a01b0316106135c6576000356001600160e01b031916604051635d3dcd3160e01b8152600401610d4d9190615338565b83945060006135d48561112f565b9050801561363557600192506136238f8f8f858181106135f6576135f66150a9565b905060200201602081019061360b919061583d565b8a8a8961361d368b90038b018b615886565b87613aac565b15613635575050505050505050611cd0565b50600101613484565b508061366b576000356001600160e01b03191660405163726b3acb60e01b8152600401610d4d9190615338565b50505050505050505050505050565b600081815260208190526040812054908190036136a95750600090815260208190526040902060019081905590565b60008281526001602090815260408083208484529091528120906136cc826126b9565b905080613723576000825460ff1660048111156136eb576136eb614a0d565b036137095760405163757a436360e01b815260040160405180910390fd5b600084815260208190526040902080546001019081905592505b5050919050565b613732614609565b83518152602080850151604080840191909152600091830191909152840151516001600160401b0381111561376957613769614f19565b604051908082528060200260200182016040528015613792578160200160208202803683370190505b5060608083019190915284015160808083019190915284015160a08083019190915284015160c082015260005b846040015151811015611a1f576001856040015182815181106137e4576137e46150a9565b602002602001015160018111156137fd576137fd614a0d565b0361383e578282606001518281518110613819576138196150a9565b60200260200101906001600160a01b031690816001600160a01b0316815250506138b8565b600085604001518281518110613856576138566150a9565b6020026020010151600181111561386f5761386f614a0d565b0361388b578382606001518281518110613819576138196150a9565b61389485613961565b60405163612ee33160e01b8152600481019190915260248101829052604401610d4d565b6001016137bf565b60008260600151511180156138de5750816080015151826060015151145b80156138f357508160a0015151826060015151145b801561390857508160c0015151826060015151145b613933576000356001600160e01b0319166040516306b5667560e21b8152600401610d4d9190615338565b61393d81426150d5565b82604001511115610c8d5760405163ad89be9d60e01b815260040160405180910390fd5b60608101516040820151608083015151600092919083906001600160401b0381111561398f5761398f614f19565b6040519080825280602002602001820160405280156139b8578160200160208202803683370190505b5060a086015190915060005b8251811015613a1757866080015181815181106139e3576139e36150a9565b602002602001015180519060200120838281518110613a0457613a046150a9565b60209081029190910101526001016139c4565b50604080517f1463f426c05aff2c1a7a0957a71c9898bc8b47142540538e79ee25ee911413508152875160208083019190915297880151918101919091528351870293870193909320606084015283518602938601939093206080830152805185029085012060a082015281518402919093012060c08301525060e0902090565b60006108d0610be2565b60006108d0610f66565b60208088015188516000828152600184526040808220838352909452928320613ad4816126b9565b15613ae55760019350505050610758565b6020808c015160009081529081905260409020548214613b26576000356001600160e01b03191660405163d4cec26960e01b8152600401610d4d9190615338565b6000815460ff166004811115613b3e57613b3e614a0d565b14613b5c576040516322de95ff60e21b815260040160405180910390fd5b6001600160a01b038716600090815260088201602052604090205460ff1615613ba35760405163025fd59560e41b81526001600160a01b0388166004820152602401610d4d565b6001600160a01b03871660009081526008820160209081526040909120805460ff19166001179055860151151580613bde5750604086015115155b80613bec5750855160ff1615155b15613c33576001600160a01b03871660009081526007820160209081526040918290208851815460ff191660ff909116178155908801516001820155908701516002909101555b866001600160a01b031681600101547f1203f9e81c814a35f5f4cc24087b2a24c6fb7986a9f1406b68a9484882c93a238c88604051613c739291906158e6565b60405180910390a3600080808c6001811115613c9157613c91614a0d565b03613ce6576004830180546001810182556000918252602082200180546001600160a01b0319166001600160a01b038c16179055600384018054899290613cd99084906150d5565b9250508190559150613d4b565b60018c6001811115613cfa57613cfa614a0d565b0361355f576005830180546001810182556000918252602082200180546001600160a01b0319166001600160a01b038c16179055600284018054899290613d429084906150d5565b92505081905590505b8a8210613d9f57825460ff19166001908117845580840154604051919750907f5c819725ea53655a3b898f3df59b66489761935454e9212ca1e5ebd759953d0b90600090a2613d9a838e614064565b613de5565b898110613de557825460ff19166003178355600180840154604051919750907f55295d4ce992922fa2e5ffbf3a3dcdb367de0a15e125ace083456017fd22060f90600090a25b5050505050979650505050505050565b6001600160a01b0381166115d3576000356001600160e01b03191660405163104c66df60e31b8152600401610d4d9190615338565b60008181526001830160205260408120548015613f13576000613e4e6001836150e8565b8554909150600090613e62906001906150e8565b9050818114613ec7576000866000018281548110613e8257613e826150a9565b9060005260206000200154905080876000018481548110613ea557613ea56150a9565b6000918252602080832090910192909255918252600188019052604090208390555b8554869080613ed857613ed86158fd565b600190038181906000526020600020016000905590558560010160008681526020019081526020016000206000905560019350505050610c6c565b6000915050610c6c565b6000613f27825490565b90506111ed8261139c8360016150d5565b6000610c6c836114e785856140d1565b613f50614609565b613f5b85858561372a565b9050613f72600254826138c090919063ffffffff16565b6000613f7d8261329d565b90506000613f8b600061367a565b6000818152600080516020615939833981519152602090815260409091209089015160018201859055600690910155905082518114613feb576000356001600160e01b03191660405163d4cec26960e01b8152600401610d4d9190615338565b81817f771d78ae9e5fca95a532fb0971d575d0ce9b59d14823c063e08740137e0e0eca856140188b613961565b8b8960405161402a949392919061551d565b60405180910390a35050949350505050565b600080600061404d878787876140fa565b9150915061405a816141e7565b5095945050505050565b61406d8161439d565b15610c8d57815460ff19166002178255600080614089836143b7565b9150915083600101547fe134987599ae266ec90edeff1b26125b287dbb57b10822649432d1bb26537fba83836040516140c3929190615913565b60405180910390a250505050565b60008254828110156140f057634e487b7160005260116020526024601cfd5b9190910392915050565b6000807f7fffffffffffffffffffffffffffffff5d576e7357a4501ddfe92f46681b20a083111561413157506000905060036141de565b8460ff16601b1415801561414957508460ff16601c14155b1561415a57506000905060046141de565b6040805160008082526020820180845289905260ff881692820192909252606081018690526080810185905260019060a0016020604051602081039080840390855afa1580156141ae573d6000803e3d6000fd5b5050604051601f1901519150506001600160a01b0381166141d7576000600192509250506141de565b9150600090505b94509492505050565b60008160048111156141fb576141fb614a0d565b036142035750565b600181600481111561421757614217614a0d565b036142645760405162461bcd60e51b815260206004820152601860248201527f45434453413a20696e76616c6964207369676e617475726500000000000000006044820152606401610d4d565b600281600481111561427857614278614a0d565b036142c55760405162461bcd60e51b815260206004820152601f60248201527f45434453413a20696e76616c6964207369676e6174757265206c656e677468006044820152606401610d4d565b60038160048111156142d9576142d9614a0d565b036143315760405162461bcd60e51b815260206004820152602260248201527f45434453413a20696e76616c6964207369676e6174757265202773272076616c604482015261756560f01b6064820152608401610d4d565b600481600481111561434557614345614a0d565b036115d35760405162461bcd60e51b815260206004820152602260248201527f45434453413a20696e76616c6964207369676e6174757265202776272076616c604482015261756560f01b6064820152608401610d4d565b6000816020015160001480610c6c57505060200151461490565b6060806143c38361439d565b6143f557602083015160405163092048d160e11b8152610d4d916001600160e01b031960003516914690600401615732565b8260600151516001600160401b0381111561441257614412614f19565b60405190808252806020026020018201604052801561443b578160200160208202803683370190505b5091508260600151516001600160401b0381111561445b5761445b614f19565b60405190808252806020026020018201604052801561448e57816020015b60608152602001906001900390816144795790505b50905060005b836060015151811015614603578360c0015181815181106144b7576144b76150a9565b60200260200101515a116144ea576144ce8461329d565b6040516307aec4ab60e21b8152600401610d4d91815260200190565b83606001518181518110614500576145006150a9565b60200260200101516001600160a01b031684608001518281518110614527576145276150a9565b60200260200101518560c001518381518110614545576145456150a9565b6020026020010151908660a001518481518110614564576145646150a9565b602002602001015160405161457991906157af565b600060405180830381858888f193505050503d80600081146145b7576040519150601f19603f3d011682016040523d82523d6000602084013e6145bc565b606091505b508483815181106145cf576145cf6150a9565b602002602001018484815181106145e8576145e86150a9565b60209081029190910101919091529015159052600101614494565b50915091565b6040518060e00160405280600081526020016000815260200160008152602001606081526020016060815260200160608152602001606081525090565b50805460008255906000526020600020908101906115d391905b808211156146745760008155600101614660565b5090565b600060e0828403121561237857600080fd5b60008083601f84011261469c57600080fd5b5081356001600160401b038111156146b357600080fd5b6020830191508360208260051b8501011115610fb257600080fd5b60008083601f8401126146e057600080fd5b5081356001600160401b038111156146f757600080fd5b602083019150836020606083028501011115610fb257600080fd5b60008060008060006060868803121561472a57600080fd5b85356001600160401b038082111561474157600080fd5b61474d89838a01614678565b9650602088013591508082111561476357600080fd5b61476f89838a0161468a565b9096509450604088013591508082111561478857600080fd5b50614795888289016146ce565b969995985093965092949392505050565b600080600080600080606087890312156147bf57600080fd5b86356001600160401b03808211156147d657600080fd5b6147e28a838b0161468a565b909850965060208901359150808211156147fb57600080fd5b6148078a838b0161468a565b9096509450604089013591508082111561482057600080fd5b5061482d89828a0161468a565b979a9699509497509295939492505050565b600081518084526020808501945080840160005b83811015614871578151151587529582019590820190600101614853565b509495945050505050565b602081526000610937602083018461483f565b600080600080600080600080600060a08a8c0312156148ad57600080fd5b8935985060208a01356001600160401b03808211156148cb57600080fd5b6148d78d838e0161468a565b909a50985060408c01359150808211156148f057600080fd5b6148fc8d838e0161468a565b909850965060608c013591508082111561491557600080fd5b6149218d838e0161468a565b909650945060808c013591508082111561493a57600080fd5b506149478c828d0161468a565b915080935050809150509295985092959850929598565b6000806020838503121561497157600080fd5b82356001600160401b0381111561498757600080fd5b6149938582860161468a565b90969095509350505050565b600081518084526020808501945080840160005b838110156148715781516001600160a01b0316875295820195908201906001016149b3565b602081526000610937602083018461499f565b600080604083850312156149fe57600080fd5b50508035926020909101359150565b634e487b7160e01b600052602160045260246000fd5b600281106115d3576115d3614a0d565b60006060808352614a468184018761499f565b83810360208581019190915286518083528782019282019060005b81811015614a86578451614a7481614a23565b83529383019391830191600101614a61565b505060409250858103838701528087518083528383019150838901925060005b81811015614ad6578351805160ff1684528581015186850152860151868401529284019291860191600101614aa6565b50909a9950505050505050505050565b80356001600160a01b03811681146111ed57600080fd5b600080600060608486031215614b1257600080fd5b8335925060208401359150614b2960408501614ae6565b90509250925092565b600080600080600060608688031215614b4a57600080fd5b85356001600160401b0380821115614b6157600080fd5b9087019060c0828a031215614b7557600080fd5b9095506020870135908082111561476357600080fd5b600060208284031215614b9d57600080fd5b5035919050565b600081518084526020808501945080840160005b8381101561487157815187529582019590820190600101614bb8565b6020815260006109376020830184614ba4565b600281106115d357600080fd5b80356111ed81614be7565b60008060008060008060008060008060c08b8d031215614c1e57600080fd5b8a35995060208b01356001600160401b0380821115614c3c57600080fd5b614c488e838f0161468a565b909b50995060408d0135915080821115614c6157600080fd5b614c6d8e838f0161468a565b909950975060608d0135915080821115614c8657600080fd5b614c928e838f0161468a565b909750955060808d0135915080821115614cab57600080fd5b50614cb88d828e0161468a565b9094509250614ccb905060a08c01614bf4565b90509295989b9194979a5092959850565b60008060408385031215614cef57600080fd5b82359150614cff60208401614ae6565b90509250929050565b8035600e81106111ed57600080fd5b60008060408385031215614d2a57600080fd5b614d3383614d08565b9150614cff60208401614ae6565b600060208284031215614d5357600080fd5b61093782614ae6565b60008060008060008060008060008060c08b8d031215614d7b57600080fd5b8a35995060208b0135985060408b01356001600160401b0380821115614da057600080fd5b614dac8e838f0161468a565b909a50985060608d0135915080821115614dc557600080fd5b614dd18e838f0161468a565b909850965060808d0135915080821115614dea57600080fd5b614df68e838f0161468a565b909650945060a08d0135915080821115614e0f57600080fd5b50614e1c8d828e0161468a565b915080935050809150509295989b9194979a5092959850565b60008060408385031215614e4857600080fd5b82356001600160401b03811115614e5e57600080fd5b614e6a85828601614678565b9250506020830135614e7b81614be7565b809150509250929050565b60a0810160058710614e9a57614e9a614a0d565b95815260208101949094526040840192909252606083015260809091015290565b606081526000614ece606083018661499f565b8281036020840152614ee0818661499f565b90508281036040840152614ef48185614ba4565b9695505050505050565b600060208284031215614f1057600080fd5b61093782614d08565b634e487b7160e01b600052604160045260246000fd5b60405160e081016001600160401b0381118282101715614f5157614f51614f19565b60405290565b60405160c081016001600160401b0381118282101715614f5157614f51614f19565b604051601f8201601f191681016001600160401b0381118282101715614fa157614fa1614f19565b604052919050565b60006001600160401b03821115614fc257614fc2614f19565b5060051b60200190565b6000614fdf614fda84614fa9565b614f79565b8381529050602080820190600585901b840186811115614ffe57600080fd5b845b818110156150915780356001600160401b03808211156150205760008081fd5b8188019150601f8a818401126150365760008081fd5b82358281111561504857615048614f19565b615059818301601f19168801614f79565b92508083528b8782860101111561507257600091508182fd5b8087850188850137600090830187015250855250928201928201615000565b505050509392505050565b6000610937368484614fcc565b634e487b7160e01b600052603260045260246000fd5b634e487b7160e01b600052601160045260246000fd5b80820180821115610c6c57610c6c6150bf565b81810381811115610c6c57610c6c6150bf565b60008261511857634e487b7160e01b600052601260045260246000fd5b500490565b600082601f83011261512e57600080fd5b8135602061513e614fda83614fa9565b82815260059290921b8401810191818101908684111561515d57600080fd5b8286015b8481101561517f5761517281614ae6565b8352918301918301615161565b509695505050505050565b600082601f83011261519b57600080fd5b813560206151ab614fda83614fa9565b82815260059290921b840181019181810190868411156151ca57600080fd5b8286015b8481101561517f57803583529183019183016151ce565b600082601f8301126151f657600080fd5b61093783833560208501614fcc565b600060e0823603121561521757600080fd5b61521f614f2f565b82358152602083013560208201526040830135604082015260608301356001600160401b038082111561525157600080fd5b61525d3683870161511d565b6060840152608085013591508082111561527657600080fd5b6152823683870161518a565b608084015260a085013591508082111561529b57600080fd5b6152a7368387016151e5565b60a084015260c08501359150808211156152c057600080fd5b506152cd3682860161518a565b60c08301525092915050565b8082028115828204841417610c6c57610c6c6150bf565b60208101600e831061530457615304614a0d565b91905290565b6001600160e01b031983168152604081016009831061532b5761532b614a0d565b8260208301529392505050565b6001600160e01b031991909116815260200190565b604081526000615360604083018561499f565b8281036020840152615372818561483f565b95945050505050565b60808152600061538e608083018761483f565b82810360208481019190915286518083528782019282019060005b818110156153ce5784516001600160601b0316835293830193918301916001016153a9565b505084810360408601526153e2818861499f565b925050508281036060840152610758818561499f565b60005b838110156154135781810151838201526020016153fb565b50506000910152565b600081518084526154348160208601602086016153f8565b601f01601f19169290920160200192915050565b600081518084526020808501808196508360051b8101915082860160005b8581101561549057828403895261547e84835161541c565b98850198935090840190600101615466565b5091979650505050505050565b8051825260208101516020830152604081015160408301526000606082015160e060608501526154d060e085018261499f565b9050608083015184820360808601526154e98282614ba4565b91505060a083015184820360a08601526155038282615448565b91505060c083015184820360c08601526153728282614ba4565b608081526000615530608083018761549d565b60208681850152838203604085015260c08201865183528187015182840152604087015160c0604085015281815180845260e0860191508483019350600092505b8083101561559a57835161558481614a23565b8252928401926001929092019190840190615571565b506060890151935084810360608601526155b48185614ba4565b9350505050608086015182820360808401526155d08282615448565b91505060a086015182820360a08401526155ea8282614ba4565b935050505061537260608301846001600160a01b03169052565b600082601f83011261561557600080fd5b81356020615625614fda83614fa9565b82815260059290921b8401810191818101908684111561564457600080fd5b8286015b8481101561517f57803561565b81614be7565b8352918301918301615648565b600060c0823603121561567a57600080fd5b615682614f57565b823581526020830135602082015260408301356001600160401b03808211156156aa57600080fd5b6156b636838701615604565b604084015260608501359150808211156156cf57600080fd5b6156db3683870161518a565b606084015260808501359150808211156156f457600080fd5b615700368387016151e5565b608084015260a085013591508082111561571957600080fd5b506157263682860161518a565b60a08301525092915050565b6001600160e01b03199390931683526020830191909152604082015260600190565b604081526000615767604083018561549d565b905060018060a01b03831660208301529392505050565b6001600160e01b03198316815281516000906157a18160048501602087016153f8565b919091016004019392505050565b600082516157c18184602087016153f8565b9190910192915050565b6080815260006157de608083018761541c565b82810360208401526157f0818761499f565b90508281036040840152615804818661483f565b905082810360608401526107588185615448565b60408152600061582b604083018561483f565b8281036020840152615372818561499f565b60006020828403121561584f57600080fd5b813561093781614be7565b803560ff811681146111ed57600080fd5b60006020828403121561587d57600080fd5b6109378261585a565b60006060828403121561589857600080fd5b604051606081018181106001600160401b03821117156158ba576158ba614f19565b6040526158c68361585a565b815260208301356020820152604083013560408201528091505092915050565b604081016158f384614a23565b9281526020015290565b634e487b7160e01b600052603160045260246000fd5b604081526000615926604083018561483f565b8281036020840152615372818561544856fea6eef7e35abe7026729641147f7915573c7e97b47efa546f5f6e3230263bcb495da136eb38f8d8e354915fc8a767c0dc81d49de5fb65d5477122a82ddd976240ac1ff16a4f04f2a37a9ba5252a69baa100b460e517d1f8019c054a5ad698f9ffc55405a488814eaa0e2a685a0131142785b8d033d311c8c8244e34a7c12ca40f88547008e60f5748911f2e59feb3093b7e4c2e87b2dd69d61f112fcc932de8e38400683eb2cb350596d73644c0c89fe45f108600003457374f4ab3e87b4f3aa3d38c234075fde25875da8a6b7e36b58b86681d483271a99eeeee1d78e258a24d6924fe71b0c8b61aea02ca498b5f53b29bd95726278b1fe4eb791bb24a42644ca164736f6c6343000811000a5da136eb38f8d8e354915fc8a767c0dc81d49de5fb65d5477122a82ddd976240",
  "devdoc": {
    "errors": {
      "ErrAddressIsNotCreatedEOA(address,bytes32)": [
        {
          "details": "Error thrown when an address is expected to be an already created externally owned account (EOA). This error indicates that the provided address is invalid for certain contract operations that require already created EOA."
        }
      ],
      "ErrAlreadyVoted(address)": [
        {
          "details": "Error indicating that a voter has already voted.",
          "params": {
            "voter": "The address of the voter who has already voted."
          }
        }
      ],
      "ErrBridgeOperatorAlreadyExisted(address)": [
        {
          "details": "Error thrown when attempting to add a bridge operator that already exists in the contract. This error indicates that the provided bridge operator address is already registered as a bridge operator in the contract."
        }
      ],
      "ErrBridgeOperatorUpdateFailed(address)": [
        {
          "details": "Error raised when a bridge operator update operation fails.",
          "params": {
            "bridgeOperator": "The address of the bridge operator that failed to update."
          }
        }
      ],
      "ErrContractTypeNotFound(uint8)": [
        {
          "details": "Error of invalid role."
        }
      ],
      "ErrCurrentProposalIsNotCompleted()": [
        {
          "details": "Error thrown when the current proposal is not completed."
        }
      ],
      "ErrDuplicated(bytes4)": [
        {
          "details": "Error thrown when a duplicated element is detected in an array.",
          "params": {
            "msgSig": "The function signature that invoke the error."
          }
        }
      ],
      "ErrInsufficientGas(bytes32)": [
        {
          "details": "Error thrown when there is insufficient gas to execute a function."
        }
      ],
      "ErrInvalidArguments(bytes4)": [
        {
          "details": "Error indicating that arguments are invalid."
        }
      ],
      "ErrInvalidChainId(bytes4,uint256,uint256)": [
        {
          "details": "Error indicating that the chain ID is invalid.",
          "params": {
            "actual": "Current chain ID that executing function.",
            "expected": "Expected chain ID required for the tx to success.",
            "msgSig": "The function signature (bytes4) of the operation that encountered an invalid chain ID."
          }
        }
      ],
      "ErrInvalidExpiryTimestamp()": [
        {
          "details": "Error thrown when an invalid expiry timestamp is provided."
        }
      ],
      "ErrInvalidOrder(bytes4)": [
        {
          "details": "Error indicating that an order is invalid.",
          "params": {
            "msgSig": "The function signature (bytes4) of the operation that encountered an invalid order."
          }
        }
      ],
      "ErrInvalidProposal(bytes32,bytes32)": [
        {
          "details": "Error thrown when an invalid proposal is encountered.",
          "params": {
            "actual": "The actual value of the proposal.",
            "expected": "The expected value of the proposal."
          }
        }
      ],
      "ErrInvalidProposalNonce(bytes4)": [
        {
          "details": "Error indicating that the proposal nonce is invalid.",
          "params": {
            "msgSig": "The function signature (bytes4) of the operation that encountered an invalid proposal nonce."
          }
        }
      ],
      "ErrInvalidSignatures(bytes4)": [
        {
          "details": "Error indicating that a signature is invalid for a specific function signature.",
          "params": {
            "msgSig": "The function signature (bytes4) that encountered an invalid signature."
          }
        }
      ],
      "ErrInvalidThreshold(bytes4)": [
        {
          "details": "Error indicating that the provided threshold is invalid for a specific function signature.",
          "params": {
            "msgSig": "The function signature (bytes4) that the invalid threshold applies to."
          }
        }
      ],
      "ErrInvalidVoteWeight(bytes4)": [
        {
          "details": "Error indicating that a vote weight is invalid for a specific function signature.",
          "params": {
            "msgSig": "The function signature (bytes4) that encountered an invalid vote weight."
          }
        }
      ],
      "ErrLengthMismatch(bytes4)": [
        {
          "details": "Error indicating a mismatch in the length of input parameters or arrays for a specific function.",
          "params": {
            "msgSig": "The function signature (bytes4) that has a length mismatch."
          }
        }
      ],
      "ErrOnlySelfCall(bytes4)": [
        {
          "details": "Error indicating that a function can only be called by the contract itself.",
          "params": {
            "msgSig": "The function signature (bytes4) that can only be called by the contract itself."
          }
        }
      ],
      "ErrQueryForEmptyVote()": [
        {
          "details": "Error thrown when querying for an empty vote."
        }
      ],
      "ErrUnauthorized(bytes4,uint8)": [
        {
          "details": "Error indicating that the caller is unauthorized to perform a specific function.",
          "params": {
            "expectedRole": "The role required to perform the function.",
            "msgSig": "The function signature (bytes4) that the caller is unauthorized to perform."
          }
        }
      ],
      "ErrUnsupportedTarget(bytes32,uint256)": [
        {
          "details": "Error thrown when attempting to interact with an unsupported target."
        }
      ],
      "ErrUnsupportedVoteType(bytes4)": [
        {
          "details": "Error indicating that a vote type is not supported.",
          "params": {
            "msgSig": "The function signature (bytes4) of the operation that encountered an unsupported vote type."
          }
        }
      ],
      "ErrVoteIsFinalized()": [
        {
          "details": "Error thrown when attempting to interact with a finalized vote."
        }
      ],
      "ErrZeroAddress(bytes4)": [
        {
          "details": "Error indicating that given address is null when it should not."
        }
      ],
      "ErrZeroCodeContract(address)": [
        {
          "details": "Error of set to non-contract."
        }
      ]
    },
    "kind": "dev",
    "methods": {
      "addBridgeOperators(uint96[],address[],address[])": {
        "details": "Adds multiple bridge operators.",
        "params": {
          "bridgeOperators": "An array of addresses representing the bridge operators to add.",
          "governors": "An array of addresses of hot/cold wallets for bridge operator to update their node address."
        },
        "returns": {
          "addeds": "An array of booleans indicating whether each bridge operator was added successfully. Note: return boolean array `addeds` indicates whether a group (voteWeight, governor, operator) are recorded. It is expected that FE/BE staticcall to the function first to get the return values and handle it correctly. Governors are expected to see the outcome of this function and decide if they want to vote for the proposal or not. Example Usage: Making an `eth_call` in ethers.js ``` const {addeds} = await bridgeManagerContract.callStatic.addBridgeOperators(  voteWeights,  governors,  bridgeOperators,  // overriding the caller to the contract itself since we use `onlySelfCall` guard  {from: bridgeManagerContract.address} ) const filteredOperators = bridgeOperators.filter((_, index) => addeds[index]); const filteredWeights = weights.filter((_, index) => addeds[index]); const filteredGovernors = governors.filter((_, index) => addeds[index]); // ... (Process or use the information as required) ... ```"
        }
      },
      "castGlobalProposalBySignatures((uint256,uint256,uint8[],uint256[],bytes[],uint256[]),uint8[],(uint8,bytes32,bytes32)[])": {
        "details": "See `GovernanceProposal-_castGlobalProposalBySignatures`."
      },
      "castProposalBySignatures((uint256,uint256,uint256,address[],uint256[],bytes[],uint256[]),uint8[],(uint8,bytes32,bytes32)[])": {
        "details": "See `GovernanceProposal-_castProposalBySignatures`."
      },
      "castProposalVoteForCurrentNetwork((uint256,uint256,uint256,address[],uint256[],bytes[],uint256[]),uint8)": {
        "details": "Casts vote for a proposal on the current network. Requirements: - The method caller is governor."
      },
      "checkThreshold(uint256)": {
        "details": "Checks whether the `_voteWeight` passes the threshold."
      },
      "deleteExpired(uint256,uint256)": {
        "details": "Deletes the expired proposal by its chainId and nonce, without creating a new proposal. Requirements: - The proposal is already created."
      },
      "getBridgeOperatorOf(address[])": {
        "details": "Returns an array of bridge operators correspoding to governor addresses.",
        "returns": {
          "bridgeOperators": "An array containing the addresses of all bridge operators."
        }
      },
      "getBridgeOperatorWeight(address)": {
        "details": "External function to retrieve the vote weight of a specific bridge operator.",
        "params": {
          "bridgeOperator": "The address of the bridge operator to get the vote weight for."
        },
        "returns": {
          "weight": "The vote weight of the specified bridge operator."
        }
      },
      "getBridgeOperatorWeights(address[])": {
        "details": "External function to retrieve the vote weights of multiple bridge operators.",
        "params": {
          "bridgeOperators": "An array containing the addresses of bridge operators to get the vote weights for."
        },
        "returns": {
          "weights": "An array of vote weights corresponding to the provided bridge operators."
        }
      },
      "getBridgeOperators()": {
        "details": "Returns an array of all bridge operators.",
        "returns": {
          "_0": "An array containing the addresses of all bridge operators."
        }
      },
      "getCallbackRegisters()": {
        "details": "Retrieves the addresses of registered callbacks.",
        "returns": {
          "registers": "An array containing the addresses of registered callbacks."
        }
      },
      "getContract(uint8)": {
        "details": "Returns the address of a contract with a specific role. Throws an error if no contract is set for the specified role.",
        "params": {
          "contractType": "The role of the contract to retrieve."
        },
        "returns": {
          "contract_": "The address of the contract with the specified role."
        }
      },
      "getFullBridgeOperatorInfos()": {
        "details": "Retrieves the full information of all registered bridge operators. This external function allows external callers to obtain the full information of all the registered bridge operators. The returned arrays include the addresses of governors, bridge operators, and their corresponding vote weights.",
        "returns": {
          "bridgeOperators": "An array of addresses representing the registered bridge operators.",
          "governors": "An array of addresses representing the governors of each bridge operator.",
          "weights": "An array of uint256 values representing the vote weights of each bridge operator. Note: The length of each array will be the same, and the order of elements corresponds to the same bridge operator. Example Usage: ``` (address[] memory governors, address[] memory bridgeOperators, uint256[] memory weights) = getFullBridgeOperatorInfos(); for (uint256 i = 0; i < bridgeOperators.length; i++) {     // Access individual information for each bridge operator.     address governor = governors[i];     address bridgeOperator = bridgeOperators[i];     uint256 weight = weights[i];     // ... (Process or use the information as required) ... } ```"
        }
      },
      "getGlobalProposalSignatures(uint256)": {
        "details": "See {CommonGovernanceProposal-_getProposalSignatures}"
      },
      "getGovernorWeight(address)": {
        "details": "External function to retrieve the vote weight of a specific governor.",
        "params": {
          "governor": "The address of the governor to get the vote weight for."
        },
        "returns": {
          "weight": "voteWeight The vote weight of the specified governor."
        }
      },
      "getGovernorWeights(address[])": {
        "details": "Returns the weights of a list of governor addresses."
      },
      "getGovernors()": {
        "details": "Returns an array of all governors.",
        "returns": {
          "_0": "An array containing the addresses of all governors."
        }
      },
      "getGovernorsOf(address[])": {
        "details": "Retrieves the governors corresponding to a given array of bridge operators. This external function allows external callers to obtain the governors associated with a given array of bridge operators. The function takes an input array `bridgeOperators` containing bridge operator addresses and returns an array of corresponding governors.",
        "params": {
          "bridgeOperators": "An array of bridge operator addresses for which governors are to be retrieved."
        },
        "returns": {
          "governors": "An array of addresses representing the governors corresponding to the provided bridge operators."
        }
      },
      "getProposalExpiryDuration()": {
        "details": "Returns the expiry duration for a new proposal."
      },
      "getProposalSignatures(uint256,uint256)": {
        "details": "See {CommonGovernanceProposal-_getProposalSignatures}"
      },
      "getThreshold()": {
        "details": "Returns the threshold."
      },
      "getTotalWeights()": {
        "details": "Returns total weights."
      },
      "globalProposalVoted(uint256,address)": {
        "details": "See {CommonGovernanceProposal-_proposalVoted}"
      },
      "isBridgeOperator(address)": {
        "details": "Checks if the given address is a bridge operator.",
        "params": {
          "addr": "The address to check."
        },
        "returns": {
          "_0": "A boolean indicating whether the address is a bridge operator."
        }
      },
      "minimumVoteWeight()": {
        "details": "Returns the minimum vote weight to pass the threshold."
      },
      "proposalVoted(uint256,uint256,address)": {
        "details": "See {CommonGovernanceProposal-_proposalVoted}"
      },
      "propose(uint256,uint256,address[],uint256[],bytes[],uint256[])": {
        "details": "See `CoreGovernance-_proposeProposal`. Requirements: - The method caller is governor."
      },
      "proposeGlobal(uint256,uint8[],uint256[],bytes[],uint256[])": {
        "details": "See `CoreGovernance-_proposeGlobal`. Requirements: - The method caller is governor."
      },
      "proposeGlobalProposalStructAndCastVotes((uint256,uint256,uint8[],uint256[],bytes[],uint256[]),uint8[],(uint8,bytes32,bytes32)[])": {
        "details": "See `GovernanceProposal-_proposeGlobalProposalStructAndCastVotes`. Requirements: - The method caller is governor."
      },
      "proposeProposalForCurrentNetwork(uint256,address[],uint256[],bytes[],uint256[],uint8)": {
        "details": "Proposes and casts vote for a proposal on the current network. Requirements: - The method caller is governor. - The proposal is for the current network."
      },
      "proposeProposalStructAndCastVotes((uint256,uint256,uint256,address[],uint256[],bytes[],uint256[]),uint8[],(uint8,bytes32,bytes32)[])": {
        "details": "See `GovernanceProposal-_proposeProposalStructAndCastVotes`. Requirements: - The method caller is governor. - The proposal is for the current network."
      },
      "registerCallbacks(address[])": {
        "details": "Registers multiple callbacks with the bridge.",
        "params": {
          "registers": "The array of callback addresses to register."
        },
        "returns": {
          "registereds": "An array indicating the success status of each registration."
        }
      },
      "removeBridgeOperators(address[])": {
        "details": "Removes multiple bridge operators.",
        "params": {
          "bridgeOperators": "An array of addresses representing the bridge operators to remove."
        },
        "returns": {
          "removeds": "An array of booleans indicating whether each bridge operator was removed successfully. * Note: return boolean array `removeds` indicates whether a group (voteWeight, governor, operator) are recorded. It is expected that FE/BE staticcall to the function first to get the return values and handle it correctly. Governors are expected to see the outcome of this function and decide if they want to vote for the proposal or not. Example Usage: Making an `eth_call` in ethers.js ``` const {removeds} = await bridgeManagerContract.callStatic.removeBridgeOperators(  bridgeOperators,  // overriding the caller to the contract itself since we use `onlySelfCall` guard  {from: bridgeManagerContract.address} ) const filteredOperators = bridgeOperators.filter((_, index) => removeds[index]); // ... (Process or use the information as required) ... ```"
        }
      },
      "setContract(uint8,address)": {
        "details": "Sets the address of a contract with a specific role. Emits the event {ContractUpdated}.",
        "params": {
          "addr": "The address of the contract to set.",
          "contractType": "The role of the contract to set."
        }
      },
      "setThreshold(uint256,uint256)": {
        "details": "Sets the threshold. Requirements: - The method caller is admin. Emits the `ThresholdUpdated` event."
      },
      "sumGovernorsWeight(address[])": {
        "details": "Returns total weights of the governor list."
      },
      "totalBridgeOperators()": {
        "details": "Returns the total number of bridge operators.",
        "returns": {
          "_0": "The total number of bridge operators."
        }
      },
      "unregisterCallbacks(address[])": {
        "details": "Unregisters multiple callbacks from the bridge.",
        "params": {
          "registers": "The array of callback addresses to unregister."
        },
        "returns": {
          "unregistereds": "An array indicating the success status of each unregistration."
        }
      },
      "updateBridgeOperator(address)": {
        "details": "Governor updates their corresponding governor and/or operator address. Requirements: - The caller must the governor of the operator that is requested changes.",
        "params": {
          "bridgeOperator": "The address of the bridge operator to update."
        }
      }
    },
    "version": 1
  },
  "userdoc": {
    "kind": "user",
    "methods": {
      "round(uint256)": {
        "notice": "chain id = 0 for global proposal"
      },
      "updateBridgeOperator(address)": {
        "notice": "This method checks authorization by querying the corresponding operator of the msg.sender and then attempts to remove it from the `_bridgeOperatorSet` for gas optimization. In case we allow a governor can leave their operator address blank null `address(0)`, consider add authorization check."
      }
    },
    "version": 1
  },
  "storageLayout": {
    "storage": [
      {
        "astId": 8220,
        "contract": "contracts/ronin/gateway/RoninBridgeManager.sol:RoninBridgeManager",
        "label": "round",
        "offset": 0,
        "slot": "0",
        "type": "t_mapping(t_uint256,t_uint256)"
      },
      {
        "astId": 8228,
        "contract": "contracts/ronin/gateway/RoninBridgeManager.sol:RoninBridgeManager",
        "label": "vote",
        "offset": 0,
        "slot": "1",
        "type": "t_mapping(t_uint256,t_mapping(t_uint256,t_struct(ProposalVote)8158_storage))"
      },
      {
        "astId": 8230,
        "contract": "contracts/ronin/gateway/RoninBridgeManager.sol:RoninBridgeManager",
        "label": "_proposalExpiryDuration",
        "offset": 0,
        "slot": "2",
        "type": "t_uint256"
      }
    ],
    "types": {
      "t_address": {
        "encoding": "inplace",
        "label": "address",
        "numberOfBytes": "20"
      },
      "t_array(t_address)dyn_storage": {
        "base": "t_address",
        "encoding": "dynamic_array",
        "label": "address[]",
        "numberOfBytes": "32"
      },
      "t_bool": {
        "encoding": "inplace",
        "label": "bool",
        "numberOfBytes": "1"
      },
      "t_bytes32": {
        "encoding": "inplace",
        "label": "bytes32",
        "numberOfBytes": "32"
      },
      "t_enum(VoteStatus)12618": {
        "encoding": "inplace",
        "label": "enum VoteStatusConsumer.VoteStatus",
        "numberOfBytes": "1"
      },
      "t_mapping(t_address,t_bool)": {
        "encoding": "mapping",
        "key": "t_address",
        "label": "mapping(address => bool)",
        "numberOfBytes": "32",
        "value": "t_bool"
      },
      "t_mapping(t_address,t_struct(Signature)12609_storage)": {
        "encoding": "mapping",
        "key": "t_address",
        "label": "mapping(address => struct SignatureConsumer.Signature)",
        "numberOfBytes": "32",
        "value": "t_struct(Signature)12609_storage"
      },
      "t_mapping(t_uint256,t_mapping(t_uint256,t_struct(ProposalVote)8158_storage))": {
        "encoding": "mapping",
        "key": "t_uint256",
        "label": "mapping(uint256 => mapping(uint256 => struct CoreGovernance.ProposalVote))",
        "numberOfBytes": "32",
        "value": "t_mapping(t_uint256,t_struct(ProposalVote)8158_storage)"
      },
      "t_mapping(t_uint256,t_struct(ProposalVote)8158_storage)": {
        "encoding": "mapping",
        "key": "t_uint256",
        "label": "mapping(uint256 => struct CoreGovernance.ProposalVote)",
        "numberOfBytes": "32",
        "value": "t_struct(ProposalVote)8158_storage"
      },
      "t_mapping(t_uint256,t_uint256)": {
        "encoding": "mapping",
        "key": "t_uint256",
        "label": "mapping(uint256 => uint256)",
        "numberOfBytes": "32",
        "value": "t_uint256"
      },
      "t_struct(ProposalVote)8158_storage": {
        "encoding": "inplace",
        "label": "struct CoreGovernance.ProposalVote",
        "members": [
          {
            "astId": 8134,
            "contract": "contracts/ronin/gateway/RoninBridgeManager.sol:RoninBridgeManager",
            "label": "status",
            "offset": 0,
            "slot": "0",
            "type": "t_enum(VoteStatus)12618"
          },
          {
            "astId": 8136,
            "contract": "contracts/ronin/gateway/RoninBridgeManager.sol:RoninBridgeManager",
            "label": "hash",
            "offset": 0,
            "slot": "1",
            "type": "t_bytes32"
          },
          {
            "astId": 8138,
            "contract": "contracts/ronin/gateway/RoninBridgeManager.sol:RoninBridgeManager",
            "label": "againstVoteWeight",
            "offset": 0,
            "slot": "2",
            "type": "t_uint256"
          },
          {
            "astId": 8140,
            "contract": "contracts/ronin/gateway/RoninBridgeManager.sol:RoninBridgeManager",
            "label": "forVoteWeight",
            "offset": 0,
            "slot": "3",
            "type": "t_uint256"
          },
          {
            "astId": 8143,
            "contract": "contracts/ronin/gateway/RoninBridgeManager.sol:RoninBridgeManager",
            "label": "forVoteds",
            "offset": 0,
            "slot": "4",
            "type": "t_array(t_address)dyn_storage"
          },
          {
            "astId": 8146,
            "contract": "contracts/ronin/gateway/RoninBridgeManager.sol:RoninBridgeManager",
            "label": "againstVoteds",
            "offset": 0,
            "slot": "5",
            "type": "t_array(t_address)dyn_storage"
          },
          {
            "astId": 8148,
            "contract": "contracts/ronin/gateway/RoninBridgeManager.sol:RoninBridgeManager",
            "label": "expiryTimestamp",
            "offset": 0,
            "slot": "6",
            "type": "t_uint256"
          },
          {
            "astId": 8153,
            "contract": "contracts/ronin/gateway/RoninBridgeManager.sol:RoninBridgeManager",
            "label": "sig",
            "offset": 0,
            "slot": "7",
            "type": "t_mapping(t_address,t_struct(Signature)12609_storage)"
          },
          {
            "astId": 8157,
            "contract": "contracts/ronin/gateway/RoninBridgeManager.sol:RoninBridgeManager",
            "label": "voted",
            "offset": 0,
            "slot": "8",
            "type": "t_mapping(t_address,t_bool)"
          }
        ],
        "numberOfBytes": "288"
      },
      "t_struct(Signature)12609_storage": {
        "encoding": "inplace",
        "label": "struct SignatureConsumer.Signature",
        "members": [
          {
            "astId": 12604,
            "contract": "contracts/ronin/gateway/RoninBridgeManager.sol:RoninBridgeManager",
            "label": "v",
            "offset": 0,
            "slot": "0",
            "type": "t_uint8"
          },
          {
            "astId": 12606,
            "contract": "contracts/ronin/gateway/RoninBridgeManager.sol:RoninBridgeManager",
            "label": "r",
            "offset": 0,
            "slot": "1",
            "type": "t_bytes32"
          },
          {
            "astId": 12608,
            "contract": "contracts/ronin/gateway/RoninBridgeManager.sol:RoninBridgeManager",
            "label": "s",
            "offset": 0,
            "slot": "2",
            "type": "t_bytes32"
          }
        ],
        "numberOfBytes": "96"
      },
      "t_uint256": {
        "encoding": "inplace",
        "label": "uint256",
        "numberOfBytes": "32"
      },
      "t_uint8": {
        "encoding": "inplace",
        "label": "uint8",
        "numberOfBytes": "1"
      }
    }
  }
}