{
  "address": "0x067FBFf8990c58Ab90BaE3c97241C5d736053F77",
  "abi": [
    {
      "anonymous": false,
      "inputs": [
        {
          "indexed": false,
          "internalType": "address",
          "name": "",
          "type": "address"
        }
      ],
      "name": "BridgeTrackingContractUpdated",
      "type": "event"
    },
    {
      "anonymous": false,
      "inputs": [
        {
          "indexed": false,
          "internalType": "bytes32",
          "name": "receiptHash",
          "type": "bytes32"
        },
        {
          "components": [
            {
              "internalType": "uint256",
              "name": "id",
              "type": "uint256"
            },
            {
              "internalType": "enum Transfer.Kind",
              "name": "kind",
              "type": "uint8"
            },
            {
              "components": [
                {
                  "internalType": "address",
                  "name": "addr",
                  "type": "address"
                },
                {
                  "internalType": "address",
                  "name": "tokenAddr",
                  "type": "address"
                },
                {
                  "internalType": "uint256",
                  "name": "chainId",
                  "type": "uint256"
                }
              ],
              "internalType": "struct Token.Owner",
              "name": "mainchain",
              "type": "tuple"
            },
            {
              "components": [
                {
                  "internalType": "address",
                  "name": "addr",
                  "type": "address"
                },
                {
                  "internalType": "address",
                  "name": "tokenAddr",
                  "type": "address"
                },
                {
                  "internalType": "uint256",
                  "name": "chainId",
                  "type": "uint256"
                }
              ],
              "internalType": "struct Token.Owner",
              "name": "ronin",
              "type": "tuple"
            },
            {
              "components": [
                {
                  "internalType": "enum Token.Standard",
                  "name": "erc",
                  "type": "uint8"
                },
                {
                  "internalType": "uint256",
                  "name": "id",
                  "type": "uint256"
                },
                {
                  "internalType": "uint256",
                  "name": "quantity",
                  "type": "uint256"
                }
              ],
              "internalType": "struct Token.Info",
              "name": "info",
              "type": "tuple"
            }
          ],
          "indexed": false,
          "internalType": "struct Transfer.Receipt",
          "name": "receipt",
          "type": "tuple"
        }
      ],
      "name": "Deposited",
      "type": "event"
    },
    {
      "anonymous": false,
      "inputs": [
        {
          "indexed": false,
          "internalType": "uint8",
          "name": "version",
          "type": "uint8"
        }
      ],
      "name": "Initialized",
      "type": "event"
    },
    {
      "anonymous": false,
      "inputs": [
        {
          "indexed": false,
          "internalType": "bytes32",
          "name": "receiptHash",
          "type": "bytes32"
        },
        {
          "components": [
            {
              "internalType": "uint256",
              "name": "id",
              "type": "uint256"
            },
            {
              "internalType": "enum Transfer.Kind",
              "name": "kind",
              "type": "uint8"
            },
            {
              "components": [
                {
                  "internalType": "address",
                  "name": "addr",
                  "type": "address"
                },
                {
                  "internalType": "address",
                  "name": "tokenAddr",
                  "type": "address"
                },
                {
                  "internalType": "uint256",
                  "name": "chainId",
                  "type": "uint256"
                }
              ],
              "internalType": "struct Token.Owner",
              "name": "mainchain",
              "type": "tuple"
            },
            {
              "components": [
                {
                  "internalType": "address",
                  "name": "addr",
                  "type": "address"
                },
                {
                  "internalType": "address",
                  "name": "tokenAddr",
                  "type": "address"
                },
                {
                  "internalType": "uint256",
                  "name": "chainId",
                  "type": "uint256"
                }
              ],
              "internalType": "struct Token.Owner",
              "name": "ronin",
              "type": "tuple"
            },
            {
              "components": [
                {
                  "internalType": "enum Token.Standard",
                  "name": "erc",
                  "type": "uint8"
                },
                {
                  "internalType": "uint256",
                  "name": "id",
                  "type": "uint256"
                },
                {
                  "internalType": "uint256",
                  "name": "quantity",
                  "type": "uint256"
                }
              ],
              "internalType": "struct Token.Info",
              "name": "info",
              "type": "tuple"
            }
          ],
          "indexed": false,
          "internalType": "struct Transfer.Receipt",
          "name": "receipt",
          "type": "tuple"
        }
      ],
      "name": "MainchainWithdrew",
      "type": "event"
    },
    {
      "anonymous": false,
      "inputs": [
        {
          "indexed": false,
          "internalType": "address[]",
          "name": "tokens",
          "type": "address[]"
        },
        {
          "indexed": false,
          "internalType": "uint256[]",
          "name": "threshold",
          "type": "uint256[]"
        }
      ],
      "name": "MinimumThresholdsUpdated",
      "type": "event"
    },
    {
      "anonymous": false,
      "inputs": [
        {
          "indexed": false,
          "internalType": "address",
          "name": "account",
          "type": "address"
        }
      ],
      "name": "Paused",
      "type": "event"
    },
    {
      "anonymous": false,
      "inputs": [
        {
          "indexed": true,
          "internalType": "bytes32",
          "name": "role",
          "type": "bytes32"
        },
        {
          "indexed": true,
          "internalType": "bytes32",
          "name": "previousAdminRole",
          "type": "bytes32"
        },
        {
          "indexed": true,
          "internalType": "bytes32",
          "name": "newAdminRole",
          "type": "bytes32"
        }
      ],
      "name": "RoleAdminChanged",
      "type": "event"
    },
    {
      "anonymous": false,
      "inputs": [
        {
          "indexed": true,
          "internalType": "bytes32",
          "name": "role",
          "type": "bytes32"
        },
        {
          "indexed": true,
          "internalType": "address",
          "name": "account",
          "type": "address"
        },
        {
          "indexed": true,
          "internalType": "address",
          "name": "sender",
          "type": "address"
        }
      ],
      "name": "RoleGranted",
      "type": "event"
    },
    {
      "anonymous": false,
      "inputs": [
        {
          "indexed": true,
          "internalType": "bytes32",
          "name": "role",
          "type": "bytes32"
        },
        {
          "indexed": true,
          "internalType": "address",
          "name": "account",
          "type": "address"
        },
        {
          "indexed": true,
          "internalType": "address",
          "name": "sender",
          "type": "address"
        }
      ],
      "name": "RoleRevoked",
      "type": "event"
    },
    {
      "anonymous": false,
      "inputs": [
        {
          "indexed": true,
          "internalType": "uint256",
          "name": "nonce",
          "type": "uint256"
        },
        {
          "indexed": true,
          "internalType": "uint256",
          "name": "numerator",
          "type": "uint256"
        },
        {
          "indexed": true,
          "internalType": "uint256",
          "name": "denominator",
          "type": "uint256"
        },
        {
          "indexed": false,
          "internalType": "uint256",
          "name": "previousNumerator",
          "type": "uint256"
        },
        {
          "indexed": false,
          "internalType": "uint256",
          "name": "previousDenominator",
          "type": "uint256"
        }
      ],
      "name": "ThresholdUpdated",
      "type": "event"
    },
    {
      "anonymous": false,
      "inputs": [
        {
          "indexed": false,
          "internalType": "address[]",
          "name": "roninTokens",
          "type": "address[]"
        },
        {
          "indexed": false,
          "internalType": "address[]",
          "name": "mainchainTokens",
          "type": "address[]"
        },
        {
          "indexed": false,
          "internalType": "uint256[]",
          "name": "chainIds",
          "type": "uint256[]"
        },
        {
          "indexed": false,
          "internalType": "enum Token.Standard[]",
          "name": "standards",
          "type": "uint8[]"
        }
      ],
      "name": "TokenMapped",
      "type": "event"
    },
    {
      "anonymous": false,
      "inputs": [
        {
          "indexed": false,
          "internalType": "address",
          "name": "account",
          "type": "address"
        }
      ],
      "name": "Unpaused",
      "type": "event"
    },
    {
      "anonymous": false,
      "inputs": [
        {
          "indexed": false,
          "internalType": "address",
          "name": "",
          "type": "address"
        }
      ],
      "name": "ValidatorContractUpdated",
      "type": "event"
    },
    {
      "anonymous": false,
      "inputs": [
        {
          "indexed": false,
          "internalType": "bytes32",
          "name": "receiptHash",
          "type": "bytes32"
        },
        {
          "components": [
            {
              "internalType": "uint256",
              "name": "id",
              "type": "uint256"
            },
            {
              "internalType": "enum Transfer.Kind",
              "name": "kind",
              "type": "uint8"
            },
            {
              "components": [
                {
                  "internalType": "address",
                  "name": "addr",
                  "type": "address"
                },
                {
                  "internalType": "address",
                  "name": "tokenAddr",
                  "type": "address"
                },
                {
                  "internalType": "uint256",
                  "name": "chainId",
                  "type": "uint256"
                }
              ],
              "internalType": "struct Token.Owner",
              "name": "mainchain",
              "type": "tuple"
            },
            {
              "components": [
                {
                  "internalType": "address",
                  "name": "addr",
                  "type": "address"
                },
                {
                  "internalType": "address",
                  "name": "tokenAddr",
                  "type": "address"
                },
                {
                  "internalType": "uint256",
                  "name": "chainId",
                  "type": "uint256"
                }
              ],
              "internalType": "struct Token.Owner",
              "name": "ronin",
              "type": "tuple"
            },
            {
              "components": [
                {
                  "internalType": "enum Token.Standard",
                  "name": "erc",
                  "type": "uint8"
                },
                {
                  "internalType": "uint256",
                  "name": "id",
                  "type": "uint256"
                },
                {
                  "internalType": "uint256",
                  "name": "quantity",
                  "type": "uint256"
                }
              ],
              "internalType": "struct Token.Info",
              "name": "info",
              "type": "tuple"
            }
          ],
          "indexed": false,
          "internalType": "struct Transfer.Receipt",
          "name": "",
          "type": "tuple"
        }
      ],
      "name": "WithdrawalRequested",
      "type": "event"
    },
    {
      "anonymous": false,
      "inputs": [
        {
          "indexed": false,
          "internalType": "bytes32",
          "name": "receiptHash",
          "type": "bytes32"
        },
        {
          "components": [
            {
              "internalType": "uint256",
              "name": "id",
              "type": "uint256"
            },
            {
              "internalType": "enum Transfer.Kind",
              "name": "kind",
              "type": "uint8"
            },
            {
              "components": [
                {
                  "internalType": "address",
                  "name": "addr",
                  "type": "address"
                },
                {
                  "internalType": "address",
                  "name": "tokenAddr",
                  "type": "address"
                },
                {
                  "internalType": "uint256",
                  "name": "chainId",
                  "type": "uint256"
                }
              ],
              "internalType": "struct Token.Owner",
              "name": "mainchain",
              "type": "tuple"
            },
            {
              "components": [
                {
                  "internalType": "address",
                  "name": "addr",
                  "type": "address"
                },
                {
                  "internalType": "address",
                  "name": "tokenAddr",
                  "type": "address"
                },
                {
                  "internalType": "uint256",
                  "name": "chainId",
                  "type": "uint256"
                }
              ],
              "internalType": "struct Token.Owner",
              "name": "ronin",
              "type": "tuple"
            },
            {
              "components": [
                {
                  "internalType": "enum Token.Standard",
                  "name": "erc",
                  "type": "uint8"
                },
                {
                  "internalType": "uint256",
                  "name": "id",
                  "type": "uint256"
                },
                {
                  "internalType": "uint256",
                  "name": "quantity",
                  "type": "uint256"
                }
              ],
              "internalType": "struct Token.Info",
              "name": "info",
              "type": "tuple"
            }
          ],
          "indexed": false,
          "internalType": "struct Transfer.Receipt",
          "name": "",
          "type": "tuple"
        }
      ],
      "name": "WithdrawalSignaturesRequested",
      "type": "event"
    },
    {
      "stateMutability": "payable",
      "type": "fallback"
    },
    {
      "inputs": [],
      "name": "DEFAULT_ADMIN_ROLE",
      "outputs": [
        {
          "internalType": "bytes32",
          "name": "",
          "type": "bytes32"
        }
      ],
      "stateMutability": "view",
      "type": "function"
    },
    {
      "inputs": [],
      "name": "WITHDRAWAL_MIGRATOR",
      "outputs": [
        {
          "internalType": "bytes32",
          "name": "",
          "type": "bytes32"
        }
      ],
      "stateMutability": "view",
      "type": "function"
    },
    {
      "inputs": [],
      "name": "bridgeTrackingContract",
      "outputs": [
        {
          "internalType": "address",
          "name": "",
          "type": "address"
        }
      ],
      "stateMutability": "view",
      "type": "function"
    },
    {
      "inputs": [
        {
          "components": [
            {
              "internalType": "address",
              "name": "recipientAddr",
              "type": "address"
            },
            {
              "internalType": "address",
              "name": "tokenAddr",
              "type": "address"
            },
            {
              "components": [
                {
                  "internalType": "enum Token.Standard",
                  "name": "erc",
                  "type": "uint8"
                },
                {
                  "internalType": "uint256",
                  "name": "id",
                  "type": "uint256"
                },
                {
                  "internalType": "uint256",
                  "name": "quantity",
                  "type": "uint256"
                }
              ],
              "internalType": "struct Token.Info",
              "name": "info",
              "type": "tuple"
            }
          ],
          "internalType": "struct Transfer.Request[]",
          "name": "_requests",
          "type": "tuple[]"
        },
        {
          "internalType": "uint256",
          "name": "_chainId",
          "type": "uint256"
        }
      ],
      "name": "bulkRequestWithdrawalFor",
      "outputs": [],
      "stateMutability": "nonpayable",
      "type": "function"
    },
    {
      "inputs": [
        {
          "internalType": "uint256[]",
          "name": "_withdrawals",
          "type": "uint256[]"
        },
        {
          "internalType": "bytes[]",
          "name": "_signatures",
          "type": "bytes[]"
        }
      ],
      "name": "bulkSubmitWithdrawalSignatures",
      "outputs": [],
      "stateMutability": "nonpayable",
      "type": "function"
    },
    {
      "inputs": [
        {
          "internalType": "uint256",
          "name": "_voteWeight",
          "type": "uint256"
        }
      ],
      "name": "checkThreshold",
      "outputs": [
        {
          "internalType": "bool",
          "name": "",
          "type": "bool"
        }
      ],
      "stateMutability": "view",
      "type": "function"
    },
    {
      "inputs": [
        {
          "components": [
            {
              "internalType": "uint256",
              "name": "id",
              "type": "uint256"
            },
            {
              "internalType": "enum Transfer.Kind",
              "name": "kind",
              "type": "uint8"
            },
            {
              "components": [
                {
                  "internalType": "address",
                  "name": "addr",
                  "type": "address"
                },
                {
                  "internalType": "address",
                  "name": "tokenAddr",
                  "type": "address"
                },
                {
                  "internalType": "uint256",
                  "name": "chainId",
                  "type": "uint256"
                }
              ],
              "internalType": "struct Token.Owner",
              "name": "mainchain",
              "type": "tuple"
            },
            {
              "components": [
                {
                  "internalType": "address",
                  "name": "addr",
                  "type": "address"
                },
                {
                  "internalType": "address",
                  "name": "tokenAddr",
                  "type": "address"
                },
                {
                  "internalType": "uint256",
                  "name": "chainId",
                  "type": "uint256"
                }
              ],
              "internalType": "struct Token.Owner",
              "name": "ronin",
              "type": "tuple"
            },
            {
              "components": [
                {
                  "internalType": "enum Token.Standard",
                  "name": "erc",
                  "type": "uint8"
                },
                {
                  "internalType": "uint256",
                  "name": "id",
                  "type": "uint256"
                },
                {
                  "internalType": "uint256",
                  "name": "quantity",
                  "type": "uint256"
                }
              ],
              "internalType": "struct Token.Info",
              "name": "info",
              "type": "tuple"
            }
          ],
          "internalType": "struct Transfer.Receipt",
          "name": "_receipt",
          "type": "tuple"
        }
      ],
      "name": "depositFor",
      "outputs": [],
      "stateMutability": "nonpayable",
      "type": "function"
    },
    {
      "inputs": [
        {
          "internalType": "uint256",
          "name": "",
          "type": "uint256"
        },
        {
          "internalType": "uint256",
          "name": "",
          "type": "uint256"
        }
      ],
      "name": "depositVote",
      "outputs": [
        {
          "internalType": "enum VoteStatusConsumer.VoteStatus",
          "name": "status",
          "type": "uint8"
        },
        {
          "internalType": "bytes32",
          "name": "finalHash",
          "type": "bytes32"
        }
      ],
      "stateMutability": "view",
      "type": "function"
    },
    {
      "inputs": [
        {
          "internalType": "uint256",
          "name": "_chainId",
          "type": "uint256"
        },
        {
          "internalType": "uint256",
          "name": "_depositId",
          "type": "uint256"
        },
        {
          "internalType": "address",
          "name": "_voter",
          "type": "address"
        }
      ],
      "name": "depositVoted",
      "outputs": [
        {
          "internalType": "bool",
          "name": "",
          "type": "bool"
        }
      ],
      "stateMutability": "view",
      "type": "function"
    },
    {
      "inputs": [
        {
          "internalType": "address",
          "name": "_roninToken",
          "type": "address"
        },
        {
          "internalType": "uint256",
          "name": "_chainId",
          "type": "uint256"
        }
      ],
      "name": "getMainchainToken",
      "outputs": [
        {
          "components": [
            {
              "internalType": "enum Token.Standard",
              "name": "erc",
              "type": "uint8"
            },
            {
              "internalType": "address",
              "name": "tokenAddr",
              "type": "address"
            }
          ],
          "internalType": "struct MappedTokenConsumer.MappedToken",
          "name": "_token",
          "type": "tuple"
        }
      ],
      "stateMutability": "view",
      "type": "function"
    },
    {
      "inputs": [
        {
          "internalType": "bytes32",
          "name": "role",
          "type": "bytes32"
        }
      ],
      "name": "getRoleAdmin",
      "outputs": [
        {
          "internalType": "bytes32",
          "name": "",
          "type": "bytes32"
        }
      ],
      "stateMutability": "view",
      "type": "function"
    },
    {
      "inputs": [
        {
          "internalType": "bytes32",
          "name": "role",
          "type": "bytes32"
        },
        {
          "internalType": "uint256",
          "name": "index",
          "type": "uint256"
        }
      ],
      "name": "getRoleMember",
      "outputs": [
        {
          "internalType": "address",
          "name": "",
          "type": "address"
        }
      ],
      "stateMutability": "view",
      "type": "function"
    },
    {
      "inputs": [
        {
          "internalType": "bytes32",
          "name": "role",
          "type": "bytes32"
        }
      ],
      "name": "getRoleMemberCount",
      "outputs": [
        {
          "internalType": "uint256",
          "name": "",
          "type": "uint256"
        }
      ],
      "stateMutability": "view",
      "type": "function"
    },
    {
      "inputs": [],
      "name": "getThreshold",
      "outputs": [
        {
          "internalType": "uint256",
          "name": "",
          "type": "uint256"
        },
        {
          "internalType": "uint256",
          "name": "",
          "type": "uint256"
        }
      ],
      "stateMutability": "view",
      "type": "function"
    },
    {
      "inputs": [
        {
          "internalType": "uint256",
          "name": "_withdrawalId",
          "type": "uint256"
        },
        {
          "internalType": "address[]",
          "name": "_validators",
          "type": "address[]"
        }
      ],
      "name": "getWithdrawalSignatures",
      "outputs": [
        {
          "internalType": "bytes[]",
          "name": "_signatures",
          "type": "bytes[]"
        }
      ],
      "stateMutability": "view",
      "type": "function"
    },
    {
      "inputs": [
        {
          "internalType": "bytes32",
          "name": "role",
          "type": "bytes32"
        },
        {
          "internalType": "address",
          "name": "account",
          "type": "address"
        }
      ],
      "name": "grantRole",
      "outputs": [],
      "stateMutability": "nonpayable",
      "type": "function"
    },
    {
      "inputs": [
        {
          "internalType": "bytes32",
          "name": "role",
          "type": "bytes32"
        },
        {
          "internalType": "address",
          "name": "account",
          "type": "address"
        }
      ],
      "name": "hasRole",
      "outputs": [
        {
          "internalType": "bool",
          "name": "",
          "type": "bool"
        }
      ],
      "stateMutability": "view",
      "type": "function"
    },
    {
      "inputs": [
        {
          "internalType": "address",
          "name": "_roleSetter",
          "type": "address"
        },
        {
          "internalType": "uint256",
          "name": "_numerator",
          "type": "uint256"
        },
        {
          "internalType": "uint256",
          "name": "_denominator",
          "type": "uint256"
        },
        {
          "internalType": "address[]",
          "name": "_withdrawalMigrators",
          "type": "address[]"
        },
        {
          "internalType": "address[][2]",
          "name": "_packedAddresses",
          "type": "address[][2]"
        },
        {
          "internalType": "uint256[][2]",
          "name": "_packedNumbers",
          "type": "uint256[][2]"
        },
        {
          "internalType": "enum Token.Standard[]",
          "name": "_standards",
          "type": "uint8[]"
        }
      ],
      "name": "initialize",
      "outputs": [],
      "stateMutability": "nonpayable",
      "type": "function"
    },
    {
      "inputs": [
        {
          "internalType": "uint256",
          "name": "_withdrawalId",
          "type": "uint256"
        }
      ],
      "name": "mainchainWithdrew",
      "outputs": [
        {
          "internalType": "bool",
          "name": "",
          "type": "bool"
        }
      ],
      "stateMutability": "view",
      "type": "function"
    },
    {
      "inputs": [
        {
          "internalType": "uint256",
          "name": "",
          "type": "uint256"
        }
      ],
      "name": "mainchainWithdrewVote",
      "outputs": [
        {
          "internalType": "enum VoteStatusConsumer.VoteStatus",
          "name": "status",
          "type": "uint8"
        },
        {
          "internalType": "bytes32",
          "name": "finalHash",
          "type": "bytes32"
        }
      ],
      "stateMutability": "view",
      "type": "function"
    },
    {
      "inputs": [
        {
          "internalType": "uint256",
          "name": "_withdrawalId",
          "type": "uint256"
        },
        {
          "internalType": "address",
          "name": "_voter",
          "type": "address"
        }
      ],
      "name": "mainchainWithdrewVoted",
      "outputs": [
        {
          "internalType": "bool",
          "name": "",
          "type": "bool"
        }
      ],
      "stateMutability": "view",
      "type": "function"
    },
    {
      "inputs": [
        {
          "internalType": "address[]",
          "name": "_roninTokens",
          "type": "address[]"
        },
        {
          "internalType": "address[]",
          "name": "_mainchainTokens",
          "type": "address[]"
        },
        {
          "internalType": "uint256[]",
          "name": "_chainIds",
          "type": "uint256[]"
        },
        {
          "internalType": "enum Token.Standard[]",
          "name": "_standards",
          "type": "uint8[]"
        }
      ],
      "name": "mapTokens",
      "outputs": [],
      "stateMutability": "nonpayable",
      "type": "function"
    },
    {
      "inputs": [],
      "name": "markWithdrawalMigrated",
      "outputs": [],
      "stateMutability": "nonpayable",
      "type": "function"
    },
    {
      "inputs": [
        {
          "components": [
            {
              "internalType": "address",
              "name": "recipientAddr",
              "type": "address"
            },
            {
              "internalType": "address",
              "name": "tokenAddr",
              "type": "address"
            },
            {
              "components": [
                {
                  "internalType": "enum Token.Standard",
                  "name": "erc",
                  "type": "uint8"
                },
                {
                  "internalType": "uint256",
                  "name": "id",
                  "type": "uint256"
                },
                {
                  "internalType": "uint256",
                  "name": "quantity",
                  "type": "uint256"
                }
              ],
              "internalType": "struct Token.Info",
              "name": "info",
              "type": "tuple"
            }
          ],
          "internalType": "struct Transfer.Request[]",
          "name": "_requests",
          "type": "tuple[]"
        },
        {
          "internalType": "address[]",
          "name": "_requesters",
          "type": "address[]"
        }
      ],
      "name": "migrateWithdrawals",
      "outputs": [],
      "stateMutability": "nonpayable",
      "type": "function"
    },
    {
      "inputs": [
        {
          "internalType": "address",
          "name": "",
          "type": "address"
        }
      ],
      "name": "minimumThreshold",
      "outputs": [
        {
          "internalType": "uint256",
          "name": "",
          "type": "uint256"
        }
      ],
      "stateMutability": "view",
      "type": "function"
    },
    {
      "inputs": [],
      "name": "minimumVoteWeight",
      "outputs": [
        {
          "internalType": "uint256",
          "name": "",
          "type": "uint256"
        }
      ],
      "stateMutability": "view",
      "type": "function"
    },
    {
      "inputs": [],
      "name": "nonce",
      "outputs": [
        {
          "internalType": "uint256",
          "name": "",
          "type": "uint256"
        }
      ],
      "stateMutability": "view",
      "type": "function"
    },
    {
      "inputs": [],
      "name": "pause",
      "outputs": [],
      "stateMutability": "nonpayable",
      "type": "function"
    },
    {
      "inputs": [],
      "name": "paused",
      "outputs": [
        {
          "internalType": "bool",
          "name": "",
          "type": "bool"
        }
      ],
      "stateMutability": "view",
      "type": "function"
    },
    {
      "inputs": [
        {
          "internalType": "bytes32",
          "name": "role",
          "type": "bytes32"
        },
        {
          "internalType": "address",
          "name": "account",
          "type": "address"
        }
      ],
      "name": "renounceRole",
      "outputs": [],
      "stateMutability": "nonpayable",
      "type": "function"
    },
    {
      "inputs": [
        {
          "components": [
            {
              "internalType": "address",
              "name": "recipientAddr",
              "type": "address"
            },
            {
              "internalType": "address",
              "name": "tokenAddr",
              "type": "address"
            },
            {
              "components": [
                {
                  "internalType": "enum Token.Standard",
                  "name": "erc",
                  "type": "uint8"
                },
                {
                  "internalType": "uint256",
                  "name": "id",
                  "type": "uint256"
                },
                {
                  "internalType": "uint256",
                  "name": "quantity",
                  "type": "uint256"
                }
              ],
              "internalType": "struct Token.Info",
              "name": "info",
              "type": "tuple"
            }
          ],
          "internalType": "struct Transfer.Request",
          "name": "_request",
          "type": "tuple"
        },
        {
          "internalType": "uint256",
          "name": "_chainId",
          "type": "uint256"
        }
      ],
      "name": "requestWithdrawalFor",
      "outputs": [],
      "stateMutability": "nonpayable",
      "type": "function"
    },
    {
      "inputs": [
        {
          "internalType": "uint256",
          "name": "_withdrawalId",
          "type": "uint256"
        }
      ],
      "name": "requestWithdrawalSignatures",
      "outputs": [],
      "stateMutability": "nonpayable",
      "type": "function"
    },
    {
      "inputs": [
        {
          "internalType": "bytes32",
          "name": "role",
          "type": "bytes32"
        },
        {
          "internalType": "address",
          "name": "account",
          "type": "address"
        }
      ],
      "name": "revokeRole",
      "outputs": [],
      "stateMutability": "nonpayable",
      "type": "function"
    },
    {
      "inputs": [
        {
          "internalType": "address",
          "name": "_addr",
          "type": "address"
        }
      ],
      "name": "setBridgeTrackingContract",
      "outputs": [],
      "stateMutability": "nonpayable",
      "type": "function"
    },
    {
      "inputs": [
        {
          "internalType": "address[]",
          "name": "_tokens",
          "type": "address[]"
        },
        {
          "internalType": "uint256[]",
          "name": "_thresholds",
          "type": "uint256[]"
        }
      ],
      "name": "setMinimumThresholds",
      "outputs": [],
      "stateMutability": "nonpayable",
      "type": "function"
    },
    {
      "inputs": [
        {
          "internalType": "uint256",
          "name": "_numerator",
          "type": "uint256"
        },
        {
          "internalType": "uint256",
          "name": "_denominator",
          "type": "uint256"
        }
      ],
      "name": "setThreshold",
      "outputs": [
        {
          "internalType": "uint256",
          "name": "",
          "type": "uint256"
        },
        {
          "internalType": "uint256",
          "name": "",
          "type": "uint256"
        }
      ],
      "stateMutability": "nonpayable",
      "type": "function"
    },
    {
      "inputs": [
        {
          "internalType": "address",
          "name": "_addr",
          "type": "address"
        }
      ],
      "name": "setValidatorContract",
      "outputs": [],
      "stateMutability": "nonpayable",
      "type": "function"
    },
    {
      "inputs": [
        {
          "internalType": "bytes4",
          "name": "interfaceId",
          "type": "bytes4"
        }
      ],
      "name": "supportsInterface",
      "outputs": [
        {
          "internalType": "bool",
          "name": "",
          "type": "bool"
        }
      ],
      "stateMutability": "view",
      "type": "function"
    },
    {
      "inputs": [
        {
          "internalType": "uint256[]",
          "name": "_withdrawalIds",
          "type": "uint256[]"
        }
      ],
      "name": "tryBulkAcknowledgeMainchainWithdrew",
      "outputs": [
        {
          "internalType": "bool[]",
          "name": "_executedReceipts",
          "type": "bool[]"
        }
      ],
      "stateMutability": "nonpayable",
      "type": "function"
    },
    {
      "inputs": [
        {
          "components": [
            {
              "internalType": "uint256",
              "name": "id",
              "type": "uint256"
            },
            {
              "internalType": "enum Transfer.Kind",
              "name": "kind",
              "type": "uint8"
            },
            {
              "components": [
                {
                  "internalType": "address",
                  "name": "addr",
                  "type": "address"
                },
                {
                  "internalType": "address",
                  "name": "tokenAddr",
                  "type": "address"
                },
                {
                  "internalType": "uint256",
                  "name": "chainId",
                  "type": "uint256"
                }
              ],
              "internalType": "struct Token.Owner",
              "name": "mainchain",
              "type": "tuple"
            },
            {
              "components": [
                {
                  "internalType": "address",
                  "name": "addr",
                  "type": "address"
                },
                {
                  "internalType": "address",
                  "name": "tokenAddr",
                  "type": "address"
                },
                {
                  "internalType": "uint256",
                  "name": "chainId",
                  "type": "uint256"
                }
              ],
              "internalType": "struct Token.Owner",
              "name": "ronin",
              "type": "tuple"
            },
            {
              "components": [
                {
                  "internalType": "enum Token.Standard",
                  "name": "erc",
                  "type": "uint8"
                },
                {
                  "internalType": "uint256",
                  "name": "id",
                  "type": "uint256"
                },
                {
                  "internalType": "uint256",
                  "name": "quantity",
                  "type": "uint256"
                }
              ],
              "internalType": "struct Token.Info",
              "name": "info",
              "type": "tuple"
            }
          ],
          "internalType": "struct Transfer.Receipt[]",
          "name": "_receipts",
          "type": "tuple[]"
        }
      ],
      "name": "tryBulkDepositFor",
      "outputs": [
        {
          "internalType": "bool[]",
          "name": "_executedReceipts",
          "type": "bool[]"
        }
      ],
      "stateMutability": "nonpayable",
      "type": "function"
    },
    {
      "inputs": [],
      "name": "unpause",
      "outputs": [],
      "stateMutability": "nonpayable",
      "type": "function"
    },
    {
      "inputs": [],
      "name": "validatorContract",
      "outputs": [
        {
          "internalType": "address",
          "name": "",
          "type": "address"
        }
      ],
      "stateMutability": "view",
      "type": "function"
    },
    {
      "inputs": [
        {
          "internalType": "uint256",
          "name": "",
          "type": "uint256"
        }
      ],
      "name": "withdrawal",
      "outputs": [
        {
          "internalType": "uint256",
          "name": "id",
          "type": "uint256"
        },
        {
          "internalType": "enum Transfer.Kind",
          "name": "kind",
          "type": "uint8"
        },
        {
          "components": [
            {
              "internalType": "address",
              "name": "addr",
              "type": "address"
            },
            {
              "internalType": "address",
              "name": "tokenAddr",
              "type": "address"
            },
            {
              "internalType": "uint256",
              "name": "chainId",
              "type": "uint256"
            }
          ],
          "internalType": "struct Token.Owner",
          "name": "mainchain",
          "type": "tuple"
        },
        {
          "components": [
            {
              "internalType": "address",
              "name": "addr",
              "type": "address"
            },
            {
              "internalType": "address",
              "name": "tokenAddr",
              "type": "address"
            },
            {
              "internalType": "uint256",
              "name": "chainId",
              "type": "uint256"
            }
          ],
          "internalType": "struct Token.Owner",
          "name": "ronin",
          "type": "tuple"
        },
        {
          "components": [
            {
              "internalType": "enum Token.Standard",
              "name": "erc",
              "type": "uint8"
            },
            {
              "internalType": "uint256",
              "name": "id",
              "type": "uint256"
            },
            {
              "internalType": "uint256",
              "name": "quantity",
              "type": "uint256"
            }
          ],
          "internalType": "struct Token.Info",
          "name": "info",
          "type": "tuple"
        }
      ],
      "stateMutability": "view",
      "type": "function"
    },
    {
      "inputs": [],
      "name": "withdrawalCount",
      "outputs": [
        {
          "internalType": "uint256",
          "name": "",
          "type": "uint256"
        }
      ],
      "stateMutability": "view",
      "type": "function"
    },
    {
      "inputs": [],
      "name": "withdrawalMigrated",
      "outputs": [
        {
          "internalType": "bool",
          "name": "",
          "type": "bool"
        }
      ],
      "stateMutability": "view",
      "type": "function"
    },
    {
      "stateMutability": "payable",
      "type": "receive"
    }
  ],
  "transactionHash": "0x54dd12898b9a81c379e632e82ed80077954ba7150932391841f73742fb639b31",
  "args": [],
  "numDeployments": 1,
  "solcInputHash": "0e0029e5f6489210962bd9d9c865993b",
  "bytecode": "0x608060405234801561001057600080fd5b506000805460ff191690556150c68061002a6000396000f3fe6080604052600436106102765760003560e01c80639010d07c1161014f578063ca15c873116100c1578063ecc836491161007a578063ecc83649146107cf578063f0ce418e146107fc578063f668214a14610836578063fa38965914610856578063fc6574bc14610876578063fe90d9c21461089657610285565b8063ca15c87314610717578063cdf64a7614610737578063d547741f14610757578063dafae40814610777578063dbd2ef6c14610797578063e75235b8146107b757610285565b8063a217fddf11610113578063a217fddf1461064a578063affed0e01461065f578063b11b767e14610675578063b9afa17714610695578063b9c36209146106b5578063bc7f0386146106ea57610285565b80639010d07c146105ac57806391d14854146105cc578063931ec987146105ec578063994390891461060c5780639c8d98da1461062a57610285565b806347b56b2c116101e85780635d6a9a90116101ac5780635d6a9a90146104ee57806364363f781461051b57806371706cbe1461053b5780637de5dedd14610551578063835fc6ca146105665780638456cb591461059757610285565b806347b56b2c146104295780634d92c4f0146104495780634f2717c71461049c5780635a7dd06a146104b65780635c975abb146104d657610285565b80632f2ff15d1161023a5780632f2ff15d1461036d57806336568abe1461038d5780633b5afc22146103ad5780633e4574ec146103c25780633f4ba83a146103e25780634493421e146103f757610285565b806301ffc9a71461028d5780630b1ff17f146102c2578063109679ef146102e257806317fa2ea114610302578063248a9ca31461032f57610285565b36610285576102836108b8565b005b6102836108b8565b34801561029957600080fd5b506102ad6102a8366004613def565b610905565b60405190151581526020015b60405180910390f35b3480156102ce57600080fd5b506102836102dd366004613e19565b610930565b3480156102ee57600080fd5b506102836102fd366004613e4a565b610947565b34801561030e57600080fd5b5061032261031d366004613ea7565b6109e3565b6040516102b99190613ee8565b34801561033b57600080fd5b5061035f61034a366004613f2e565b6000908152606b602052604090206001015490565b6040519081526020016102b9565b34801561037957600080fd5b50610283610388366004613f5e565b610d30565b34801561039957600080fd5b506102836103a8366004613f5e565b610d5a565b3480156103b957600080fd5b50610283610dd4565b3480156103ce57600080fd5b506102ad6103dd366004613f5e565b610e4b565b3480156103ee57600080fd5b50610283610e7b565b34801561040357600080fd5b506075546001600160a01b03165b6040516001600160a01b0390911681526020016102b9565b34801561043557600080fd5b50610283610444366004613f2e565b610ebd565b34801561045557600080fd5b5061048e610464366004613f8a565b606f6020908152600092835260408084209091529082529020805460019091015460ff9091169082565b6040516102b9929190613fc2565b3480156104a857600080fd5b50606d546102ad9060ff1681565b3480156104c257600080fd5b506102836104d1366004614024565b6110f7565b3480156104e257600080fd5b5060005460ff166102ad565b3480156104fa57600080fd5b5061050e61050936600461406f565b611191565b6040516102b991906140a9565b34801561052757600080fd5b506102836105363660046140d5565b61126e565b34801561054757600080fd5b5061035f606e5481565b34801561055d57600080fd5b5061035f6112cf565b34801561057257600080fd5b50610586610581366004613f2e565b6112e6565b6040516102b9959493929190614189565b3480156105a357600080fd5b506102836113b8565b3480156105b857600080fd5b506104116105c7366004613f8a565b6113f8565b3480156105d857600080fd5b506102ad6105e7366004613f5e565b611410565b3480156105f857600080fd5b506102836106073660046141d2565b61143b565b34801561061857600080fd5b506074546001600160a01b0316610411565b34801561063657600080fd5b5061028361064536600461420b565b6115f9565b34801561065657600080fd5b5061035f600081565b34801561066b57600080fd5b5061035f60045481565b34801561068157600080fd5b50610283610690366004614237565b611667565b3480156106a157600080fd5b506103226106b0366004614315565b61184b565b3480156106c157600080fd5b506106d56106d0366004613f8a565b6119dc565b604080519283526020830191909152016102b9565b3480156106f657600080fd5b5061035f61070536600461420b565b60386020526000908152604090205481565b34801561072357600080fd5b5061035f610732366004613f2e565b611a2d565b34801561074357600080fd5b5061028361075236600461420b565b611a44565b34801561076357600080fd5b50610283610772366004613f5e565b611aaf565b34801561078357600080fd5b506102ad610792366004613f2e565b611ad4565b3480156107a357600080fd5b506102836107b236600461438a565b611b00565b3480156107c357600080fd5b506001546002546106d5565b3480156107db57600080fd5b506107ef6107ea36600461444d565b611b6f565b6040516102b991906144f0565b34801561080857600080fd5b5061048e610817366004613f2e565b6070602052600090815260409020805460019091015460ff9091169082565b34801561084257600080fd5b506102ad610851366004613f2e565b611ce1565b34801561086257600080fd5b506102836108713660046140d5565b611d0f565b34801561088257600080fd5b506102ad610891366004614552565b611e37565b3480156108a257600080fd5b5061035f60008051602061507183398151915281565b60405162461bcd60e51b815260206004820152601f60248201527f526f6e696e4761746577617956323a20696e76616c696420726571756573740060448201526064015b60405180910390fd5b60006001600160e01b03198216635a05180f60e01b148061092a575061092a82611e70565b92915050565b610938611ea5565b610943823383611eeb565b5050565b3360006109538261202b565b90506109766109673685900385018561466d565b83836109716112cf565b6120e1565b60755460405163c7c4fea960e01b81526001600160a01b039091169063c7c4fea9906109ac90600090873590879060040161471c565b600060405180830381600087803b1580156109c657600080fd5b505af11580156109da573d6000803e3d6000fd5b50505050505050565b60603360006109f18261202b565b905060006109fd6112cf565b90506000856001600160401b03811115610a1957610a19614587565b604051908082528060200260200182016040528015610a42578160200160208202803683370190505b50945060005b86811015610d2557878782818110610a6257610a62614749565b60755460405163c7c4fea960e01b81526020909202939093013594506001600160a01b039092169163c7c4fea99150610aa49060029086908a9060040161471c565b600060405180830381600087803b158015610abe57600080fd5b505af1158015610ad2573d6000803e3d6000fd5b50505050610adf82611ce1565b15610b0d576001868281518110610af857610af8614749565b91151560209283029190910190910152610d13565b600082815260706020908152604080832060718352818420825160a081019093528054835260018082015492959491929184019160ff1690811115610b5457610b54613fac565b6001811115610b6557610b65613fac565b8152604080516060808201835260028501546001600160a01b039081168352600386015481166020848101919091526004870154848601528086019390935283518083018552600587015482168152600687015490911692810192909252600785015482840152828401919091528151808201909252600884018054919093019290829060ff166001811115610bfd57610bfd613fac565b6001811115610c0e57610c0e613fac565b81526001820154602082015260029091015460409091015290525090506000610c36826123a3565b90506000610c47848a8a8a8661242c565b90506001816003811115610c5d57610c5d613fac565b1415610d0e5760755460405163114fc47560e11b81526001600160a01b039091169063229f88ea90610c96906002908a9060040161475f565b600060405180830381600087803b158015610cb057600080fd5b505af1158015610cc4573d6000803e3d6000fd5b5050855460ff1916600217865550506040517f62520d049932cdee872e9b3c59c0f6073637147e5e9bc8b050b062430eaf5c9f90610d05908490869061477a565b60405180910390a15b505050505b80610d1d816147f1565b915050610a48565b505050505092915050565b6000828152606b6020526040902060010154610d4b81612528565b610d558383612532565b505050565b6001600160a01b0381163314610dca5760405162461bcd60e51b815260206004820152602f60248201527f416363657373436f6e74726f6c3a2063616e206f6e6c792072656e6f756e636560448201526e103937b632b9903337b91039b2b63360891b60648201526084016108fc565b6109438282612554565b610ddf600033611410565b80610dfd5750610dfd60008051602061507183398151915233611410565b610e195760405162461bcd60e51b81526004016108fc9061480c565b606d5460ff1615610e3c5760405162461bcd60e51b81526004016108fc9061484f565b606d805460ff19166001179055565b60008281526070602090815260408083206001600160a01b038516845260020190915281205415155b9392505050565b610e83612576565b6001600160a01b0316336001600160a01b031614610eb35760405162461bcd60e51b81526004016108fc90614893565b610ebb6125a4565b565b610ec5611ea5565b610ece81611ce1565b15610f315760405162461bcd60e51b815260206004820152602d60248201527f526f6e696e4761746577617956323a207769746864726577206f6e206d61696e60448201526c636861696e20616c726561647960981b60648201526084016108fc565b6000818152607160209081526040808320815160a0810190925280548252600180820154929391929184019160ff1690811115610f7057610f70613fac565b6001811115610f8157610f81613fac565b8152604080516060808201835260028501546001600160a01b039081168352600386015481166020848101919091526004870154848601528086019390935283518083018552600587015482168152600687015490911692810192909252600785015482840152828401919091528151808201909252600884018054919093019290829060ff16600181111561101957611019613fac565b600181111561102a5761102a613fac565b8152600182015460208201526002909101546040918201529152606083015101519192505046146110b25760405162461bcd60e51b815260206004820152602c60248201527f526f6e696e4761746577617956323a20717565727920666f7220696e76616c6960448201526b19081dda5d1a191c985dd85b60a21b60648201526084016108fc565b7f04e8cbd836dea43a2dc7eb19de345cca3a8e6978a2ef5225d924775500f67c7c6110dc826123a3565b826040516110eb92919061477a565b60405180910390a15050565b6110ff611ea5565b8161114c5760405162461bcd60e51b815260206004820152601b60248201527f526f6e696e4761746577617956323a20656d707479206172726179000000000060448201526064016108fc565b60005b8281101561118b5761117984848381811061116c5761116c614749565b905060a002013384611eeb565b80611183816147f1565b91505061114f565b50505050565b604080518082018252600080825260208083018290526001600160a01b038616825260738152838220858352905282902082518084019093528054919291829060ff1660018111156111e5576111e5613fac565b60018111156111f6576111f6613fac565b815290546001600160a01b036101009091048116602092830152908201519192501661092a5760405162461bcd60e51b815260206004820152602160248201527f526f6e696e4761746577617956323a20756e737570706f7274656420746f6b656044820152603760f91b60648201526084016108fc565b611276612576565b6001600160a01b0316336001600160a01b0316146112a65760405162461bcd60e51b81526004016108fc90614893565b826112c35760405162461bcd60e51b81526004016108fc906148d5565b61118b848484846125f6565b60006112e16112dc6126d4565b612751565b905090565b607160209081526000918252604091829020805460018083015485516060808201885260028601546001600160a01b03908116835260038701548116838901526004870154838a015288518083018a526005880154821681526006880154909116978101979097526007860154878901528751908101909752600885018054949760ff93841697929692959294909391928492169081111561138a5761138a613fac565b600181111561139b5761139b613fac565b815260200160018201548152602001600282015481525050905085565b6113c0612576565b6001600160a01b0316336001600160a01b0316146113f05760405162461bcd60e51b81526004016108fc90614893565b610ebb612787565b6000828152606c60205260408120610e7490836127c4565b6000918252606b602090815260408084206001600160a01b0393909316845291905290205460ff1690565b60008051602061507183398151915261145381612528565b606d5460ff16156114765760405162461bcd60e51b81526004016108fc9061484f565b818414801561148457508315155b6114de5760405162461bcd60e51b815260206004820152602560248201527f526f6e696e4761746577617956323a20696e76616c6964206172726179206c656044820152646e6774687360d81b60648201526084016108fc565b60005b848110156115f157600061151f87878481811061150057611500614749565b905060a002016020016020810190611518919061420b565b6001611191565b8051909150600181111561153557611535613fac565b87878481811061154757611547614749565b61156092606060a090920201908101915060400161491c565b600181111561157157611571613fac565b1461158e5760405162461bcd60e51b81526004016108fc90614939565b6115dc8787848181106115a3576115a3614749565b905060a0020160018787868181106115bd576115bd614749565b90506020020160208101906115d2919061420b565b84602001516127d0565b505080806115e9906147f1565b9150506114e1565b505050505050565b611601612576565b6001600160a01b0316336001600160a01b0316146116315760405162461bcd60e51b81526004016108fc90614893565b6000816001600160a01b03163b1161165b5760405162461bcd60e51b81526004016108fc9061497f565b6116648161295a565b50565b603754610100900460ff16158080156116875750603754600160ff909116105b806116a15750303b1580156116a1575060375460ff166001145b6117045760405162461bcd60e51b815260206004820152602e60248201527f496e697469616c697a61626c653a20636f6e747261637420697320616c72656160448201526d191e481a5b9a5d1a585b1a5e995960921b60648201526084016108fc565b6037805460ff191660011790558015611727576037805461ff0019166101001790555b61173260008b6129af565b61173c89896129b9565b506000905061174b86806149c2565b9050111561179d5761177e61176086806149c2565b61176d60208901896149c2565b61177789806149c2565b8989612a78565b61179d61178b86806149c2565b61179860208801886149c2565b6125f6565b60005b868110156117f8576117e66000805160206150718339815191528989848181106117cc576117cc614749565b90506020020160208101906117e1919061420b565b612532565b806117f0816147f1565b9150506117a0565b50801561183f576037805461ff0019169055604051600181527f7f26b83ff96e1f2b6a682f133852f6798a09c465da95921460cefb38474024989060200160405180910390a15b50505050505050505050565b60603360006118598261202b565b9050611863613ce9565b846001600160401b0381111561187b5761187b614587565b6040519080825280602002602001820160405280156118a4578160200160208202803683370190505b50935060006118b16112cf565b905060005b86811015610d25578787828181106118d0576118d0614749565b905061016002018036038101906118e7919061466d565b607554815160405163c7c4fea960e01b81529295506001600160a01b039091169163c7c4fea99161192091600091908a9060040161471c565b600060405180830381600087803b15801561193a57600080fd5b505af115801561194e573d6000803e3d6000fd5b506002925061195b915050565b6040808501518101516000908152606f6020908152828220875183529052205460ff16600381111561198f5761198f613fac565b14156119be5760018682815181106119a9576119a9614749565b911515602092830291909101909101526119ca565b6119ca838686856120e1565b806119d4816147f1565b9150506118b6565b6000806119e7612576565b6001600160a01b0316336001600160a01b031614611a175760405162461bcd60e51b81526004016108fc90614893565b611a2184846129b9565b915091505b9250929050565b6000818152606c6020526040812061092a90612c8e565b611a4c612576565b6001600160a01b0316336001600160a01b031614611a7c5760405162461bcd60e51b81526004016108fc90614893565b6000816001600160a01b03163b11611aa65760405162461bcd60e51b81526004016108fc9061497f565b61166481612c98565b6000828152606b6020526040902060010154611aca81612528565b610d558383612554565b6000611ade6126d4565b600154611aeb9190614a0b565b600254611af89084614a0b565b101592915050565b611b08612576565b6001600160a01b0316336001600160a01b031614611b385760405162461bcd60e51b81526004016108fc90614893565b86611b555760405162461bcd60e51b81526004016108fc90614a2a565b611b658888888888888888612a78565b5050505050505050565b6060816001600160401b03811115611b8957611b89614587565b604051908082528060200260200182016040528015611bbc57816020015b6060815260200190600190039081611ba75790505b50905060005b82811015611cd957600085815260726020526040812090858584818110611beb57611beb614749565b9050602002016020810190611c00919061420b565b6001600160a01b03166001600160a01b031681526020019081526020016000208054611c2b90614a6e565b80601f0160208091040260200160405190810160405280929190818152602001828054611c5790614a6e565b8015611ca45780601f10611c7957610100808354040283529160200191611ca4565b820191906000526020600020905b815481529060010190602001808311611c8757829003601f168201915b5050505050828281518110611cbb57611cbb614749565b60200260200101819052508080611cd1906147f1565b915050611bc2565b509392505050565b6000600260008381526070602052604090205460ff166003811115611d0857611d08613fac565b1492915050565b33611d198161202b565b508315801590611d2857508382145b611d445760405162461bcd60e51b81526004016108fc90614a2a565b6000805b858110156109da57868682818110611d6257611d62614749565b905060200201359150848482818110611d7d57611d7d614749565b9050602002810190611d8f9190614aa3565b60008481526072602090815260408083206001600160a01b03891684529091529020611dbc929091613d56565b5060755460405163c7c4fea960e01b81526001600160a01b039091169063c7c4fea990611df2906001908690889060040161471c565b600060405180830381600087803b158015611e0c57600080fd5b505af1158015611e20573d6000803e3d6000fd5b505050508080611e2f906147f1565b915050611d48565b6000838152606f6020908152604080832085845282528083206001600160a01b038516845260020190915281205415155b949350505050565b60006001600160e01b03198216637965db0b60e01b148061092a57506301ffc9a760e01b6001600160e01b031983161461092a565b60005460ff1615610ebb5760405162461bcd60e51b815260206004820152601060248201526f14185d5cd8589b194e881c185d5cd95960821b60448201526064016108fc565b611f05611f0036859003850160408601614ae9565b612ce6565b611f0e83612d86565b6000611f29611f23604086016020870161420b565b83611191565b80519091506001811115611f3f57611f3f613fac565b611f4f606086016040870161491c565b6001811115611f6057611f60613fac565b14611f7d5760405162461bcd60e51b81526004016108fc90614939565b611fac8330611f92604088016020890161420b565b611fa436899003890160408a01614ae9565b929190612e4b565b6000611fbe85848685602001516127d0565b60755460405163114fc47560e11b81529192506001600160a01b03169063229f88ea90611ff290600190859060040161475f565b600060405180830381600087803b15801561200c57600080fd5b505af1158015612020573d6000803e3d6000fd5b505050505050505050565b607454604051635a02d57960e11b81526001600160a01b038381166004830152600092169063b405aaf29060240160206040518083038186803b15801561207157600080fd5b505afa158015612085573d6000803e3d6000fd5b505050506040513d601f19601f820116820180604052508101906120a99190614b05565b6120b45760006120b7565b60015b60ff169050600081116120dc5760405162461bcd60e51b81526004016108fc9061480c565b919050565b835160808501516120f190612ce6565b60008560200151600181111561210957612109613fac565b146121625760405162461bcd60e51b8152602060048201526024808201527f526f6e696e4761746577617956323a20696e76616c69642072656365697074206044820152631ada5b9960e21b60648201526084016108fc565b46856060015160400151146121b95760405162461bcd60e51b815260206004820181905260248201527f526f6e696e4761746577617956323a20696e76616c696420636861696e20696460448201526064016108fc565b60006121d5866060015160200151876040015160400151611191565b60808701515190915060018111156121ef576121ef613fac565b8151600181111561220257612202613fac565b14801561222c57508560400151602001516001600160a01b031681602001516001600160a01b0316145b6122785760405162461bcd60e51b815260206004820152601f60248201527f526f6e696e4761746577617956323a20696e76616c696420726563656970740060448201526064016108fc565b6040808701518101516000908152606f60209081528282208583529052908120906122a2886123a3565b905060006122b3838989898661242c565b905060018160038111156122c9576122c9613fac565b141561202057607554895160405163114fc47560e11b81526001600160a01b039092169163229f88ea91612303916000919060040161475f565b600060405180830381600087803b15801561231d57600080fd5b505af1158015612331573d6000803e3d6000fd5b5050845460ff1916600217855550506060890151805160209091015160808b015161235f92909160006130bc565b7f8d20d8121a34dded9035ff5b43e901c142824f7a22126392992c353c37890524828a60405161239092919061477a565b60405180910390a1505050505050505050565b60007fb9d1fe7c9deeec5dc90a2f47ff1684239519f2545b2228d3d91fb27df3189eea60001b826000015183602001516123e0856040015161344f565b6123ed866060015161344f565b6123fa87608001516134b2565b60405160200161240f96959493929190614b27565b604051602081830303815290604052805190602001209050919050565b6001600160a01b03841660009081526002860160205260408120541561249657612460856001600160a01b031660146134f5565b6040516020016124709190614b61565b60408051601f198184030181529082905262461bcd60e51b82526108fc91600401614bb5565b6001600160a01b03851660009081526002870160209081526040808320859055848352600389019091528120805486919083906124d4908490614bc8565b925050819055905083811015801561250157506000875460ff1660038111156124ff576124ff613fac565b145b1561251957865460ff19166001908117885587018390555b5050935460ff16949350505050565b6116648133613690565b61253c82826136ce565b6000828152606c60205260409020610d559082613754565b61255e8282613769565b6000828152606c60205260409020610d5590826137d0565b7fb53127684a568b3173ae13b9f8a6016e243e63b6e8ee1178d6a717850b5d6103546001600160a01b031690565b6125ac6137e5565b6000805460ff191690557f5db9ee0a495bf2e6ff9c91a7834c1ba4fdd244a5e8aa4e537bd38aeae4b073aa335b6040516001600160a01b03909116815260200160405180910390a1565b8281146126155760405162461bcd60e51b81526004016108fc906148d5565b60005b838110156126905782828281811061263257612632614749565b905060200201356038600087878581811061264f5761264f614749565b9050602002016020810190612664919061420b565b6001600160a01b0316815260208101919091526040016000205580612688816147f1565b915050612618565b507f6f52f53a938df83439fa4c6055c7df0a6906d621aa6dfa4708187037fdfc41da848484846040516126c69493929190614c5d565b60405180910390a150505050565b6074546040805163158b54c160e21b815290516000926001600160a01b03169163562d5304916004808301926020929190829003018186803b15801561271957600080fd5b505afa15801561272d573d6000803e3d6000fd5b505050506040513d601f19601f820116820180604052508101906112e19190614c8f565b60006002546001600254846001546127699190614a0b565b6127739190614bc8565b61277d9190614ca8565b61092a9190614cbf565b61278f611ea5565b6000805460ff191660011790557f62e78cea01bee320cd4e420270b5ea74000d11b0c9f74754ebdbfc544b05a2586125d93390565b6000610e74838361382e565b606e8054600091826127e1836147f1565b9091555090506000612808848385886127ff368c90038c018c614ce1565b93929190613858565b60008381526071602090815260409091208251815590820151600180830180549495508594909160ff1990911690838181111561284757612847613fac565b021790555060408281015180516002840180546001600160a01b039283166001600160a01b03199182161790915560208084015160038701805491851691841691909117905592840151600486015560608601518051600587018054918516918416919091179055928301516006860180549190931691161790550151600782015560808201518051600883018054909190829060ff1916600183818111156128f2576128f2613fac565b0217905550602082015181600101556040820151816002015550509050507ff313c253a5be72c29d0deb2c8768a9543744ac03d6b3cafd50cc976f1c2632fc61293a826123a3565b8260405161294992919061477a565b60405180910390a150949350505050565b607580546001600160a01b0319166001600160a01b0383169081179091556040519081527f034c8da497df28467c79ddadbba1cc3cdd41f510ea73faae271e6f16a6111621906020015b60405180910390a150565b6109438282612532565b60008082841115612a0c5760405162461bcd60e51b815260206004820152601c60248201527f4761746577617956323a20696e76616c6964207468726573686f6c640000000060448201526064016108fc565b50506001805460028054928590558390556004805491929184918691906000612a34836147f1565b9091555060408051868152602081018690527f976f8a9c5bdf8248dec172376d6e2b80a8e3df2f0328e381c6db8e1cf138c0f8910160405180910390a49250929050565b8685148015612a8657508683145b612aa25760405162461bcd60e51b81526004016108fc90614a2a565b60005b87811015612c3e57868682818110612abf57612abf614749565b9050602002016020810190612ad4919061420b565b607360008b8b85818110612aea57612aea614749565b9050602002016020810190612aff919061420b565b6001600160a01b03166001600160a01b031681526020019081526020016000206000878785818110612b3357612b33614749565b90506020020135815260200190815260200160002060000160016101000a8154816001600160a01b0302191690836001600160a01b03160217905550828282818110612b8157612b81614749565b9050602002016020810190612b96919061491c565b607360008b8b85818110612bac57612bac614749565b9050602002016020810190612bc1919061420b565b6001600160a01b03166001600160a01b031681526020019081526020016000206000878785818110612bf557612bf5614749565b60209081029290920135835250810191909152604001600020805460ff191660018381811115612c2757612c27613fac565b021790555080612c36816147f1565b915050612aa5565b507f2544bff60c6d5b84946e06804af9f84e150bbee85238dbdee79efca4e0adf4018888888888888888604051612c7c989796959493929190614d30565b60405180910390a15050505050505050565b600061092a825490565b607480546001600160a01b0319166001600160a01b0383169081179091556040519081527fef40dc07567635f84f5edbd2f8dbc16b40d9d282dd8e7e6f4ff58236b6836169906020016129a4565b600081516001811115612cfb57612cfb613fac565b148015612d0c575060008160400151115b8015612d1a57506020810151155b80612d445750600181516001811115612d3557612d35613fac565b148015612d4457506040810151155b6116645760405162461bcd60e51b8152602060048201526013602482015272546f6b656e3a20696e76616c696420696e666f60681b60448201526064016108fc565b6000612d98606083016040840161491c565b6001811115612da957612da9613fac565b141580612de7575060386000612dc5604084016020850161420b565b6001600160a01b03168152602081019190915260400160002054608082013510155b6116645760405162461bcd60e51b815260206004820152602f60248201527f4d696e696d756d5769746864726177616c3a20717565727920666f7220746f6f60448201526e20736d616c6c207175616e7469747960881b60648201526084016108fc565b600060608186516001811115612e6357612e63613fac565b1415612f415760408681015181516001600160a01b038881166024830152878116604483015260648083019390935283518083039093018352608490910183526020820180516001600160e01b03166323b872dd60e01b179052915191851691612ecd9190614dbf565b6000604051808303816000865af19150503d8060008114612f0a576040519150601f19603f3d011682016040523d82523d6000602084013e612f0f565b606091505b509092509050818015612f3a575080511580612f3a575080806020019051810190612f3a9190614b05565b915061305f565b600186516001811115612f5657612f56613fac565b141561300d57602086810151604080516001600160a01b0389811660248301528881166044830152606480830194909452825180830390940184526084909101825292820180516001600160e01b03166323b872dd60e01b1790525191851691612fc09190614dbf565b6000604051808303816000865af19150503d8060008114612ffd576040519150601f19603f3d011682016040523d82523d6000602084013e613002565b606091505b50508092505061305f565b60405162461bcd60e51b815260206004820152602160248201527f546f6b656e3a20756e737570706f7274656420746f6b656e207374616e6461726044820152601960fa1b60648201526084016108fc565b816115f15761306d866138c4565b613081866001600160a01b031660146134f5565b613095866001600160a01b031660146134f5565b6130a9866001600160a01b031660146134f5565b6040516020016124709493929190614ddb565b6000816001600160a01b0316836001600160a01b0316141561316c5760408086015190516001600160a01b0386169180156108fc02916000818181858888f1935050505061316757816001600160a01b031663d0e30db086604001516040518263ffffffff1660e01b81526004016000604051808303818588803b15801561314357600080fd5b505af1158015613157573d6000803e3d6000fd5b5050505050613167858585613931565b613448565b60008551600181111561318157613181613fac565b1415613329576040516370a0823160e01b81523060048201526000906001600160a01b038516906370a082319060240160206040518083038186803b1580156131c957600080fd5b505afa1580156131dd573d6000803e3d6000fd5b505050506040513d601f19601f820116820180604052508101906132019190614c8f565b9050856040015181101561331857836001600160a01b03166340c10f193083896040015161322f9190614ca8565b6040516001600160a01b03909216602483015260448201526064016040516020818303038152906040529060e01b6020820180516001600160e01b0383818316178352505050506040516132839190614dbf565b6000604051808303816000865af19150503d80600081146132c0576040519150601f19603f3d011682016040523d82523d6000602084013e6132c5565b606091505b505080925050816133185760405162461bcd60e51b815260206004820152601b60248201527f546f6b656e3a204552433230206d696e74696e67206661696c6564000000000060448201526064016108fc565b613323868686613931565b50613448565b60018551600181111561333e5761333e613fac565b141561300d57613353838587602001516139d5565b61316757602085810151604080516001600160a01b038881166024830152604480830194909452825180830390940184526064909101825292820180516001600160e01b03166340c10f1960e01b17905251918516916133b39190614dbf565b6000604051808303816000865af19150503d80600081146133f0576040519150601f19603f3d011682016040523d82523d6000602084013e6133f5565b606091505b505080915050806131675760405162461bcd60e51b815260206004820152601c60248201527f546f6b656e3a20455243373231206d696e74696e67206661696c65640000000060448201526064016108fc565b5050505050565b8051602080830151604080850151905160009461240f947f353bdd8d69b9e3185b3972e08b03845c0c14a21a390215302776a7a34b0e87649491939192019384526001600160a01b03928316602085015291166040830152606082015260800190565b8051602080830151604080850151905160009461240f947f1e2b74b2a792d5c0f0b6e59b037fa9d43d84fbb759337f0112fcc15ca414fc8d949193919201614e94565b60606000613504836002614a0b565b61350f906002614bc8565b6001600160401b0381111561352657613526614587565b6040519080825280601f01601f191660200182016040528015613550576020820181803683370190505b509050600360fc1b8160008151811061356b5761356b614749565b60200101906001600160f81b031916908160001a905350600f60fb1b8160018151811061359a5761359a614749565b60200101906001600160f81b031916908160001a90535060006135be846002614a0b565b6135c9906001614bc8565b90505b6001811115613641576f181899199a1a9b1b9c1cb0b131b232b360811b85600f16601081106135fd576135fd614749565b1a60f81b82828151811061361357613613614749565b60200101906001600160f81b031916908160001a90535060049490941c9361363a81614ebf565b90506135cc565b508315610e745760405162461bcd60e51b815260206004820181905260248201527f537472696e67733a20686578206c656e67746820696e73756666696369656e7460448201526064016108fc565b61369a8282611410565b610943576136b2816001600160a01b031660146134f5565b6136bd8360206134f5565b604051602001612470929190614ed6565b6136d88282611410565b610943576000828152606b602090815260408083206001600160a01b03851684529091529020805460ff191660011790556137103390565b6001600160a01b0316816001600160a01b0316837f2f8788117e7eff1d82e926ec794901d17c78024a50270940304540a733656f0d60405160405180910390a45050565b6000610e74836001600160a01b038416613a80565b6137738282611410565b15610943576000828152606b602090815260408083206001600160a01b0385168085529252808320805460ff1916905551339285917ff6391f5c32d9c69d2a47ea670b442974b53935d1edc7fd64eb21e047a839171b9190a45050565b6000610e74836001600160a01b038416613acf565b60005460ff16610ebb5760405162461bcd60e51b815260206004820152601460248201527314185d5cd8589b194e881b9bdd081c185d5cd95960621b60448201526064016108fc565b600082600001828154811061384557613845614749565b9060005260206000200154905092915050565b613860613ce9565b92835260016020808501919091526060840180516001600160a01b0396871690528682015181519087169083015251466040918201528651818601805191881690915280519490961693909101929092529251810192909252910151608082015290565b60606138ef826000015160018111156138df576138df613fac565b6001600160a01b031660016134f5565b6138fc8360200151613bc2565b6139098460400151613bc2565b60405160200161391b93929190614f4b565b6040516020818303038152906040529050919050565b6000808451600181111561394757613947613fac565b14156139635761395c82848660400151613c16565b905061398d565b60018451600181111561397857613978613fac565b141561300d5761395c828486602001516139d5565b8061118b5761399b846138c4565b6139af846001600160a01b031660146134f5565b6139c3846001600160a01b031660146134f5565b60405160200161247093929190614fc9565b604080513060248201526001600160a01b038481166044830152606480830185905283518084039091018152608490920183526020820180516001600160e01b03166323b872dd60e01b1790529151600092861691613a3391614dbf565b6000604051808303816000865af19150503d8060008114613a70576040519150601f19603f3d011682016040523d82523d6000602084013e613a75565b606091505b509095945050505050565b6000818152600183016020526040812054613ac75750815460018181018455600084815260208082209093018490558454848252828601909352604090209190915561092a565b50600061092a565b60008181526001830160205260408120548015613bb8576000613af3600183614ca8565b8554909150600090613b0790600190614ca8565b9050818114613b6c576000866000018281548110613b2757613b27614749565b9060005260206000200154905080876000018481548110613b4a57613b4a614749565b6000918252602080832090910192909255918252600188019052604090208390555b8554869080613b7d57613b7d61505a565b60019003818190600052602060002001600090559055856001016000868152602001908152602001600020600090556001935050505061092a565b600091505061092a565b606081613be95750506040805180820190915260048152630307830360e41b602082015290565b8160005b8115613c0c5780613bfd816147f1565b915050600882901c9150613bed565b611e6884826134f5565b604080516001600160a01b038481166024830152604480830185905283518084039091018152606490920183526020820180516001600160e01b031663a9059cbb60e01b179052915160009260609290871691613c739190614dbf565b6000604051808303816000865af19150503d8060008114613cb0576040519150601f19603f3d011682016040523d82523d6000602084013e613cb5565b606091505b509092509050818015613ce0575080511580613ce0575080806020019051810190613ce09190614b05565b95945050505050565b6040805160a08101825260008082526020808301829052835160608082018652838252818301849052818601849052848601919091528451808201865283815280830184905280860184905281850152845190810185528281529081018290529283015290608082015290565b828054613d6290614a6e565b90600052602060002090601f016020900481019282613d845760008555613dca565b82601f10613d9d5782800160ff19823516178555613dca565b82800160010185558215613dca579182015b82811115613dca578235825591602001919060010190613daf565b50613dd6929150613dda565b5090565b5b80821115613dd65760008155600101613ddb565b600060208284031215613e0157600080fd5b81356001600160e01b031981168114610e7457600080fd5b60008082840360c0811215613e2d57600080fd5b60a0811215613e3b57600080fd5b50919360a08501359350915050565b60006101608284031215613e5d57600080fd5b50919050565b60008083601f840112613e7557600080fd5b5081356001600160401b03811115613e8c57600080fd5b6020830191508360208260051b8501011115611a2657600080fd5b60008060208385031215613eba57600080fd5b82356001600160401b03811115613ed057600080fd5b613edc85828601613e63565b90969095509350505050565b6020808252825182820181905260009190848201906040850190845b81811015613f22578351151583529284019291840191600101613f04565b50909695505050505050565b600060208284031215613f4057600080fd5b5035919050565b80356001600160a01b03811681146120dc57600080fd5b60008060408385031215613f7157600080fd5b82359150613f8160208401613f47565b90509250929050565b60008060408385031215613f9d57600080fd5b50508035926020909101359150565b634e487b7160e01b600052602160045260246000fd5b6040810160048410613fd657613fd6613fac565b9281526020015290565b60008083601f840112613ff257600080fd5b5081356001600160401b0381111561400957600080fd5b60208301915083602060a083028501011115611a2657600080fd5b60008060006040848603121561403957600080fd5b83356001600160401b0381111561404f57600080fd5b61405b86828701613fe0565b909790965060209590950135949350505050565b6000806040838503121561408257600080fd5b61408b83613f47565b946020939093013593505050565b6002811061166457611664613fac565b815160408201906140b981614099565b82526020928301516001600160a01b0316929091019190915290565b600080600080604085870312156140eb57600080fd5b84356001600160401b038082111561410257600080fd5b61410e88838901613e63565b9096509450602087013591508082111561412757600080fd5b5061413487828801613e63565b95989497509550505050565b80516001600160a01b03908116835260208083015190911690830152604090810151910152565b805161417281614099565b825260208181015190830152604090810151910152565b858152610160810161419a86614099565b8560208301526141ad6040830186614140565b6141ba60a0830185614140565b6141c8610100830184614167565b9695505050505050565b600080600080604085870312156141e857600080fd5b84356001600160401b03808211156141ff57600080fd5b61410e88838901613fe0565b60006020828403121561421d57600080fd5b610e7482613f47565b806040810183101561092a57600080fd5b600080600080600080600080600060e08a8c03121561425557600080fd5b61425e8a613f47565b985060208a0135975060408a0135965060608a01356001600160401b038082111561428857600080fd5b6142948d838e01613e63565b909850965060808c01359150808211156142ad57600080fd5b6142b98d838e01614226565b955060a08c01359150808211156142cf57600080fd5b6142db8d838e01614226565b945060c08c01359150808211156142f157600080fd5b506142fe8c828d01613e63565b915080935050809150509295985092959850929598565b6000806020838503121561432857600080fd5b82356001600160401b038082111561433f57600080fd5b818501915085601f83011261435357600080fd5b81358181111561436257600080fd5b8660206101608302850101111561437857600080fd5b60209290920196919550909350505050565b6000806000806000806000806080898b0312156143a657600080fd5b88356001600160401b03808211156143bd57600080fd5b6143c98c838d01613e63565b909a50985060208b01359150808211156143e257600080fd5b6143ee8c838d01613e63565b909850965060408b013591508082111561440757600080fd5b6144138c838d01613e63565b909650945060608b013591508082111561442c57600080fd5b506144398b828c01613e63565b999c989b5096995094979396929594505050565b60008060006040848603121561446257600080fd5b8335925060208401356001600160401b0381111561447f57600080fd5b61448b86828701613e63565b9497909650939450505050565b60005b838110156144b357818101518382015260200161449b565b8381111561118b5750506000910152565b600081518084526144dc816020860160208601614498565b601f01601f19169290920160200192915050565b6000602080830181845280855180835260408601915060408160051b870101925083870160005b8281101561454557603f198886030184526145338583516144c4565b94509285019290850190600101614517565b5092979650505050505050565b60008060006060848603121561456757600080fd5b833592506020840135915061457e60408501613f47565b90509250925092565b634e487b7160e01b600052604160045260246000fd5b604051606081016001600160401b03811182821017156145cd57634e487b7160e01b600052604160045260246000fd5b60405290565b6002811061166457600080fd5b6000606082840312156145f257600080fd5b6145fa61459d565b905061460582613f47565b815261461360208301613f47565b60208201526040820135604082015292915050565b60006060828403121561463a57600080fd5b61464261459d565b9050813561464f816145d3565b80825250602082013560208201526040820135604082015292915050565b6000610160828403121561468057600080fd5b60405160a081018181106001600160401b03821117156146b057634e487b7160e01b600052604160045260246000fd5b6040528235815260208301356146c5816145d3565b60208201526146d784604085016145e0565b60408201526146e98460a085016145e0565b60608201526146fc846101008501614628565b60808201529392505050565b6003811061471857614718613fac565b9052565b6060810161472a8286614708565b60208201939093526001600160a01b0391909116604090910152919050565b634e487b7160e01b600052603260045260246000fd5b6040810161476d8285614708565b8260208301529392505050565b60006101808201905083825282516020830152602083015161479b81614099565b8060408401525060408301516147b46060840182614140565b5060608301516147c760c0840182614140565b506080830151611cd9610120840182614167565b634e487b7160e01b600052601160045260246000fd5b6000600019821415614805576148056147db565b5060010190565b60208082526023908201527f526f6e696e4761746577617956323a20756e617574686f72697a65642073656e6040820152623232b960e91b606082015260800190565b60208082526024908201527f526f6e696e4761746577617956323a207769746864726177616c73206d696772604082015263185d195960e21b606082015260800190565b60208082526022908201527f48617350726f787941646d696e3a20756e617574686f72697a65642073656e6460408201526132b960f11b606082015260800190565b60208082526027908201527f4d696e696d756d5769746864726177616c3a20696e76616c6964206172726179604082015266040d8cadccee8d60cb1b606082015260800190565b60006020828403121561492e57600080fd5b8135610e74816145d3565b60208082526026908201527f526f6e696e4761746577617956323a20696e76616c696420746f6b656e207374604082015265185b99185c9960d21b606082015260800190565b60208082526023908201527f526f6e696e4761746577617956323a2073657420746f206e6f6e2d636f6e74726040820152621858dd60ea1b606082015260800190565b6000808335601e198436030181126149d957600080fd5b8301803591506001600160401b038211156149f357600080fd5b6020019150600581901b3603821315611a2657600080fd5b6000816000190483118215151615614a2557614a256147db565b500290565b60208082526024908201527f526f6e696e4761746577617956323a20696e76616c6964206172726179206c656040820152630dccee8d60e31b606082015260800190565b600181811c90821680614a8257607f821691505b60208210811415613e5d57634e487b7160e01b600052602260045260246000fd5b6000808335601e19843603018112614aba57600080fd5b8301803591506001600160401b03821115614ad457600080fd5b602001915036819003821315611a2657600080fd5b600060608284031215614afb57600080fd5b610e748383614628565b600060208284031215614b1757600080fd5b81518015158114610e7457600080fd5b8681526020810186905260c08101614b3e86614099565b8560408301528460608301528360808301528260a0830152979650505050505050565b73024b9b7b630ba32b223b7bb32b93730b731b29d160651b815260008251614b90816014850160208701614498565b6d08185b1c9958591e481d9bdd195960921b6014939091019283015250602201919050565b602081526000610e7460208301846144c4565b60008219821115614bdb57614bdb6147db565b500190565b8183526000602080850194508260005b85811015614c1c576001600160a01b03614c0983613f47565b1687529582019590820190600101614bf0565b509495945050505050565b81835260006001600160fb1b03831115614c4057600080fd5b8260051b8083602087013760009401602001938452509192915050565b604081526000614c71604083018688614be0565b8281036020840152614c84818587614c27565b979650505050505050565b600060208284031215614ca157600080fd5b5051919050565b600082821015614cba57614cba6147db565b500390565b600082614cdc57634e487b7160e01b600052601260045260246000fd5b500490565b600060a08284031215614cf357600080fd5b614cfb61459d565b614d0483613f47565b8152614d1260208401613f47565b6020820152614d248460408501614628565b60408201529392505050565b608081526000614d44608083018a8c614be0565b602083820381850152614d58828a8c614be0565b91508382036040850152614d6d82888a614c27565b8481036060860152858152869250810160005b86811015614dae578335614d93816145d3565b614d9c81614099565b82529282019290820190600101614d80565b509c9b505050505050505050505050565b60008251614dd1818460208701614498565b9190910192915050565b7f546f6b656e3a20636f756c64206e6f74207472616e73666572200000000000008152600085516020614e1482601a8601838b01614498565b65010333937b6960d51b601a928501928301528651614e3881838501848b01614498565b630103a37960e51b9201818101929092528551614e5b8160248501898501614498565b660103a37b5b2b7160cd1b602493909101928301528451614e8281602b8501848901614498565b91909101602b01979650505050505050565b84815260808101614ea485614099565b84602083015283604083015282606083015295945050505050565b600081614ece57614ece6147db565b506000190190565b7f416363657373436f6e74726f6c3a206163636f756e7420000000000000000000815260008351614f0e816017850160208801614498565b7001034b99036b4b9b9b4b733903937b6329607d1b6017918401918201528351614f3f816028840160208801614498565b01602801949350505050565b690a8ded6cadc92dcccde560b31b815260008451614f7081600a850160208901614498565b8083019050600b60fa1b80600a8301528551614f9381600b850160208a01614498565b600b9201918201528351614fae81600c840160208801614498565b602960f81b600c9290910191820152600d0195945050505050565b7f546f6b656e3a20636f756c64206e6f74207472616e736665722000000000000081526000845161500181601a850160208901614498565b630103a37960e51b601a91840191820152845161502581601e840160208901614498565b660103a37b5b2b7160cd1b601e9290910191820152835161504d816025840160208801614498565b0160250195945050505050565b634e487b7160e01b600052603160045260246000fdfe384495a48d92b97cd9b9d199c73ed783dd1aa0076a6ebcf9156ca7fef7d2cc40a2646970667358221220a2f37ebe4f37dc4b5bad94ba38a1e08137143bfb84d1c43ffcca20c53d82730364736f6c63430008090033",
  "devdoc": {
    "kind": "dev",
    "methods": {
      "bridgeTrackingContract()": {
        "details": "Returns the bridge tracking contract."
      },
      "bulkRequestWithdrawalFor((address,address,(uint8,uint256,uint256))[],uint256)": {
        "details": "{IRoninGatewayV2-bulkRequestWithdrawalFor}."
      },
      "bulkSubmitWithdrawalSignatures(uint256[],bytes[])": {
        "details": "{IRoninGatewayV2-bulkSubmitWithdrawalSignatures}."
      },
      "checkThreshold(uint256)": {
        "details": "See {IQuorum-checkThreshold}."
      },
      "depositFor((uint256,uint8,(address,address,uint256),(address,address,uint256),(uint8,uint256,uint256)))": {
        "details": "{IRoninGatewayV2-depositFor}."
      },
      "depositVoted(uint256,uint256,address)": {
        "details": "{IRoninGatewayV2-depositVoted}."
      },
      "getMainchainToken(address,uint256)": {
        "details": "{IRoninGatewayV2-getMainchainToken}."
      },
      "getRoleAdmin(bytes32)": {
        "details": "Returns the admin role that controls `role`. See {grantRole} and {revokeRole}. To change a role's admin, use {_setRoleAdmin}."
      },
      "getRoleMember(bytes32,uint256)": {
        "details": "Returns one of the accounts that have `role`. `index` must be a value between 0 and {getRoleMemberCount}, non-inclusive. Role bearers are not sorted in any particular way, and their ordering may change at any point. WARNING: When using {getRoleMember} and {getRoleMemberCount}, make sure you perform all queries on the same block. See the following https://forum.openzeppelin.com/t/iterating-over-elements-on-enumerableset-in-openzeppelin-contracts/2296[forum post] for more information."
      },
      "getRoleMemberCount(bytes32)": {
        "details": "Returns the number of accounts that have `role`. Can be used together with {getRoleMember} to enumerate all bearers of a role."
      },
      "getThreshold()": {
        "details": "See {IQuorum-getThreshold}."
      },
      "getWithdrawalSignatures(uint256,address[])": {
        "details": "{IRoninGatewayV2-getWithdrawalSignatures}."
      },
      "grantRole(bytes32,address)": {
        "details": "Grants `role` to `account`. If `account` had not been already granted `role`, emits a {RoleGranted} event. Requirements: - the caller must have ``role``'s admin role. May emit a {RoleGranted} event."
      },
      "hasRole(bytes32,address)": {
        "details": "Returns `true` if `account` has been granted `role`."
      },
      "initialize(address,uint256,uint256,address[],address[][2],uint256[][2],uint8[])": {
        "details": "Initializes contract storage."
      },
      "mainchainWithdrew(uint256)": {
        "details": "{IRoninGatewayV2-mainchainWithdrew}."
      },
      "mainchainWithdrewVoted(uint256,address)": {
        "details": "{IRoninGatewayV2-mainchainWithdrewVoted}."
      },
      "mapTokens(address[],address[],uint256[],uint8[])": {
        "details": "{IRoninGatewayV2-mapTokens}."
      },
      "markWithdrawalMigrated()": {
        "details": "Mark the migration as done."
      },
      "migrateWithdrawals((address,address,(uint8,uint256,uint256))[],address[])": {
        "details": "Migrates withdrawals. Requirements: - The method caller is the migrator. - The arrays have the same length and its length larger than 0."
      },
      "minimumVoteWeight()": {
        "details": "See {IQuorum-minimumVoteWeight}."
      },
      "pause()": {
        "details": "Triggers paused state."
      },
      "paused()": {
        "details": "Returns true if the contract is paused, and false otherwise."
      },
      "renounceRole(bytes32,address)": {
        "details": "Revokes `role` from the calling account. Roles are often managed via {grantRole} and {revokeRole}: this function's purpose is to provide a mechanism for accounts to lose their privileges if they are compromised (such as when a trusted device is misplaced). If the calling account had been revoked `role`, emits a {RoleRevoked} event. Requirements: - the caller must be `account`. May emit a {RoleRevoked} event."
      },
      "requestWithdrawalFor((address,address,(uint8,uint256,uint256)),uint256)": {
        "details": "{IRoninGatewayV2-requestWithdrawalFor}."
      },
      "requestWithdrawalSignatures(uint256)": {
        "details": "{IRoninGatewayV2-requestWithdrawalSignatures}."
      },
      "revokeRole(bytes32,address)": {
        "details": "Revokes `role` from `account`. If `account` had been granted `role`, emits a {RoleRevoked} event. Requirements: - the caller must have ``role``'s admin role. May emit a {RoleRevoked} event."
      },
      "setBridgeTrackingContract(address)": {
        "details": "Sets the bridge tracking contract. Requirements: - The method caller is admin. - The new address is a contract. Emits the event `BridgeTrackingContractUpdated`."
      },
      "setMinimumThresholds(address[],uint256[])": {
        "details": "Sets the minimum thresholds to withdraw. Requirements: - The method caller is admin. - The arrays have the same length and its length larger than 0. Emits the `MinimumThresholdsUpdated` event."
      },
      "setThreshold(uint256,uint256)": {
        "details": "See {IQuorum-setThreshold}."
      },
      "setValidatorContract(address)": {
        "details": "Sets the validator contract. Requirements: - The method caller is admin. - The new address is a contract. Emits the event `ValidatorContractUpdated`."
      },
      "supportsInterface(bytes4)": {
        "details": "See {IERC165-supportsInterface}."
      },
      "tryBulkAcknowledgeMainchainWithdrew(uint256[])": {
        "details": "{IRoninGatewayV2-tryBulkAcknowledgeMainchainWithdrew}."
      },
      "tryBulkDepositFor((uint256,uint8,(address,address,uint256),(address,address,uint256),(uint8,uint256,uint256))[])": {
        "details": "{IRoninGatewayV2-tryBulkDepositFor}."
      },
      "unpause()": {
        "details": "Triggers unpaused state."
      },
      "validatorContract()": {
        "details": "Returns the validator contract."
      }
    },
    "stateVariables": {
      "WITHDRAWAL_MIGRATOR": {
        "details": "Withdrawal unlocker role hash"
      },
      "_bridgeTrackingContract": {
        "details": "The bridge tracking contract"
      },
      "_mainchainToken": {
        "details": "Mapping from token address => chain id => mainchain token address"
      },
      "_validatorContract": {
        "details": "The ronin validator contract"
      },
      "_withdrawalSig": {
        "details": "Mapping from withdrawal id => validator address => signatures"
      },
      "depositVote": {
        "details": "Mapping from chain id => deposit id => deposit vote"
      },
      "mainchainWithdrewVote": {
        "details": "Mapping from withdrawal id => mainchain withdrew vote"
      },
      "withdrawal": {
        "details": "Mapping from withdrawal id => withdrawal receipt"
      },
      "withdrawalCount": {
        "details": "Total withdrawal"
      },
      "withdrawalMigrated": {
        "details": "Flag indicating whether the withdrawal migrate progress is done"
      }
    },
    "version": 1
  },
  "userdoc": {
    "kind": "user",
    "methods": {},
    "version": 1
  },
  "storageLayout": {
    "storage": [
      {
        "astId": 1535,
        "contract": "contracts/ronin/RoninGatewayV2.sol:RoninGatewayV2",
        "label": "_paused",
        "offset": 0,
        "slot": "0",
        "type": "t_bool"
      },
      {
        "astId": 4326,
        "contract": "contracts/ronin/RoninGatewayV2.sol:RoninGatewayV2",
        "label": "_num",
        "offset": 0,
        "slot": "1",
        "type": "t_uint256"
      },
      {
        "astId": 4328,
        "contract": "contracts/ronin/RoninGatewayV2.sol:RoninGatewayV2",
        "label": "_denom",
        "offset": 0,
        "slot": "2",
        "type": "t_uint256"
      },
      {
        "astId": 4330,
        "contract": "contracts/ronin/RoninGatewayV2.sol:RoninGatewayV2",
        "label": "______deprecated",
        "offset": 0,
        "slot": "3",
        "type": "t_address"
      },
      {
        "astId": 4332,
        "contract": "contracts/ronin/RoninGatewayV2.sol:RoninGatewayV2",
        "label": "nonce",
        "offset": 0,
        "slot": "4",
        "type": "t_uint256"
      },
      {
        "astId": 4337,
        "contract": "contracts/ronin/RoninGatewayV2.sol:RoninGatewayV2",
        "label": "______gap",
        "offset": 0,
        "slot": "5",
        "type": "t_array(t_uint256)50_storage"
      },
      {
        "astId": 1373,
        "contract": "contracts/ronin/RoninGatewayV2.sol:RoninGatewayV2",
        "label": "_initialized",
        "offset": 0,
        "slot": "55",
        "type": "t_uint8"
      },
      {
        "astId": 1376,
        "contract": "contracts/ronin/RoninGatewayV2.sol:RoninGatewayV2",
        "label": "_initializing",
        "offset": 1,
        "slot": "55",
        "type": "t_bool"
      },
      {
        "astId": 4802,
        "contract": "contracts/ronin/RoninGatewayV2.sol:RoninGatewayV2",
        "label": "minimumThreshold",
        "offset": 0,
        "slot": "56",
        "type": "t_mapping(t_address,t_uint256)"
      },
      {
        "astId": 4807,
        "contract": "contracts/ronin/RoninGatewayV2.sol:RoninGatewayV2",
        "label": "______gap",
        "offset": 0,
        "slot": "57",
        "type": "t_array(t_uint256)50_storage"
      },
      {
        "astId": 24,
        "contract": "contracts/ronin/RoninGatewayV2.sol:RoninGatewayV2",
        "label": "_roles",
        "offset": 0,
        "slot": "107",
        "type": "t_mapping(t_bytes32,t_struct(RoleData)19_storage)"
      },
      {
        "astId": 338,
        "contract": "contracts/ronin/RoninGatewayV2.sol:RoninGatewayV2",
        "label": "_roleMembers",
        "offset": 0,
        "slot": "108",
        "type": "t_mapping(t_bytes32,t_struct(AddressSet)4026_storage)"
      },
      {
        "astId": 19339,
        "contract": "contracts/ronin/RoninGatewayV2.sol:RoninGatewayV2",
        "label": "withdrawalMigrated",
        "offset": 0,
        "slot": "109",
        "type": "t_bool"
      },
      {
        "astId": 19342,
        "contract": "contracts/ronin/RoninGatewayV2.sol:RoninGatewayV2",
        "label": "withdrawalCount",
        "offset": 0,
        "slot": "110",
        "type": "t_uint256"
      },
      {
        "astId": 19350,
        "contract": "contracts/ronin/RoninGatewayV2.sol:RoninGatewayV2",
        "label": "depositVote",
        "offset": 0,
        "slot": "111",
        "type": "t_mapping(t_uint256,t_mapping(t_uint256,t_struct(IsolatedVote)6493_storage))"
      },
      {
        "astId": 19356,
        "contract": "contracts/ronin/RoninGatewayV2.sol:RoninGatewayV2",
        "label": "mainchainWithdrewVote",
        "offset": 0,
        "slot": "112",
        "type": "t_mapping(t_uint256,t_struct(IsolatedVote)6493_storage)"
      },
      {
        "astId": 19362,
        "contract": "contracts/ronin/RoninGatewayV2.sol:RoninGatewayV2",
        "label": "withdrawal",
        "offset": 0,
        "slot": "113",
        "type": "t_mapping(t_uint256,t_struct(Receipt)12695_storage)"
      },
      {
        "astId": 19369,
        "contract": "contracts/ronin/RoninGatewayV2.sol:RoninGatewayV2",
        "label": "_withdrawalSig",
        "offset": 0,
        "slot": "114",
        "type": "t_mapping(t_uint256,t_mapping(t_address,t_bytes_storage))"
      },
      {
        "astId": 19377,
        "contract": "contracts/ronin/RoninGatewayV2.sol:RoninGatewayV2",
        "label": "_mainchainToken",
        "offset": 0,
        "slot": "115",
        "type": "t_mapping(t_address,t_mapping(t_uint256,t_struct(MappedToken)10290_storage))"
      },
      {
        "astId": 19381,
        "contract": "contracts/ronin/RoninGatewayV2.sol:RoninGatewayV2",
        "label": "_validatorContract",
        "offset": 0,
        "slot": "116",
        "type": "t_contract(IRoninValidatorSet)9994"
      },
      {
        "astId": 19385,
        "contract": "contracts/ronin/RoninGatewayV2.sol:RoninGatewayV2",
        "label": "_bridgeTrackingContract",
        "offset": 0,
        "slot": "117",
        "type": "t_contract(IBridgeTracking)8709"
      }
    ],
    "types": {
      "t_address": {
        "encoding": "inplace",
        "label": "address",
        "numberOfBytes": "20"
      },
      "t_array(t_bytes32)dyn_storage": {
        "base": "t_bytes32",
        "encoding": "dynamic_array",
        "label": "bytes32[]",
        "numberOfBytes": "32"
      },
      "t_array(t_uint256)50_storage": {
        "base": "t_uint256",
        "encoding": "inplace",
        "label": "uint256[50]",
        "numberOfBytes": "1600"
      },
      "t_bool": {
        "encoding": "inplace",
        "label": "bool",
        "numberOfBytes": "1"
      },
      "t_bytes32": {
        "encoding": "inplace",
        "label": "bytes32",
        "numberOfBytes": "32"
      },
      "t_bytes_storage": {
        "encoding": "bytes",
        "label": "bytes",
        "numberOfBytes": "32"
      },
      "t_contract(IBridgeTracking)8709": {
        "encoding": "inplace",
        "label": "contract IBridgeTracking",
        "numberOfBytes": "20"
      },
      "t_contract(IRoninValidatorSet)9994": {
        "encoding": "inplace",
        "label": "contract IRoninValidatorSet",
        "numberOfBytes": "20"
      },
      "t_enum(Kind)12492": {
        "encoding": "inplace",
        "label": "enum Transfer.Kind",
        "numberOfBytes": "1"
      },
      "t_enum(Standard)11884": {
        "encoding": "inplace",
        "label": "enum Token.Standard",
        "numberOfBytes": "1"
      },
      "t_enum(VoteStatus)10316": {
        "encoding": "inplace",
        "label": "enum VoteStatusConsumer.VoteStatus",
        "numberOfBytes": "1"
      },
      "t_mapping(t_address,t_bool)": {
        "encoding": "mapping",
        "key": "t_address",
        "label": "mapping(address => bool)",
        "numberOfBytes": "32",
        "value": "t_bool"
      },
      "t_mapping(t_address,t_bytes32)": {
        "encoding": "mapping",
        "key": "t_address",
        "label": "mapping(address => bytes32)",
        "numberOfBytes": "32",
        "value": "t_bytes32"
      },
      "t_mapping(t_address,t_bytes_storage)": {
        "encoding": "mapping",
        "key": "t_address",
        "label": "mapping(address => bytes)",
        "numberOfBytes": "32",
        "value": "t_bytes_storage"
      },
      "t_mapping(t_address,t_mapping(t_uint256,t_struct(MappedToken)10290_storage))": {
        "encoding": "mapping",
        "key": "t_address",
        "label": "mapping(address => mapping(uint256 => struct MappedTokenConsumer.MappedToken))",
        "numberOfBytes": "32",
        "value": "t_mapping(t_uint256,t_struct(MappedToken)10290_storage)"
      },
      "t_mapping(t_address,t_uint256)": {
        "encoding": "mapping",
        "key": "t_address",
        "label": "mapping(address => uint256)",
        "numberOfBytes": "32",
        "value": "t_uint256"
      },
      "t_mapping(t_bytes32,t_struct(AddressSet)4026_storage)": {
        "encoding": "mapping",
        "key": "t_bytes32",
        "label": "mapping(bytes32 => struct EnumerableSet.AddressSet)",
        "numberOfBytes": "32",
        "value": "t_struct(AddressSet)4026_storage"
      },
      "t_mapping(t_bytes32,t_struct(RoleData)19_storage)": {
        "encoding": "mapping",
        "key": "t_bytes32",
        "label": "mapping(bytes32 => struct AccessControl.RoleData)",
        "numberOfBytes": "32",
        "value": "t_struct(RoleData)19_storage"
      },
      "t_mapping(t_bytes32,t_uint256)": {
        "encoding": "mapping",
        "key": "t_bytes32",
        "label": "mapping(bytes32 => uint256)",
        "numberOfBytes": "32",
        "value": "t_uint256"
      },
      "t_mapping(t_uint256,t_mapping(t_address,t_bytes_storage))": {
        "encoding": "mapping",
        "key": "t_uint256",
        "label": "mapping(uint256 => mapping(address => bytes))",
        "numberOfBytes": "32",
        "value": "t_mapping(t_address,t_bytes_storage)"
      },
      "t_mapping(t_uint256,t_mapping(t_uint256,t_struct(IsolatedVote)6493_storage))": {
        "encoding": "mapping",
        "key": "t_uint256",
        "label": "mapping(uint256 => mapping(uint256 => struct IsolatedGovernance.IsolatedVote))",
        "numberOfBytes": "32",
        "value": "t_mapping(t_uint256,t_struct(IsolatedVote)6493_storage)"
      },
      "t_mapping(t_uint256,t_struct(IsolatedVote)6493_storage)": {
        "encoding": "mapping",
        "key": "t_uint256",
        "label": "mapping(uint256 => struct IsolatedGovernance.IsolatedVote)",
        "numberOfBytes": "32",
        "value": "t_struct(IsolatedVote)6493_storage"
      },
      "t_mapping(t_uint256,t_struct(MappedToken)10290_storage)": {
        "encoding": "mapping",
        "key": "t_uint256",
        "label": "mapping(uint256 => struct MappedTokenConsumer.MappedToken)",
        "numberOfBytes": "32",
        "value": "t_struct(MappedToken)10290_storage"
      },
      "t_mapping(t_uint256,t_struct(Receipt)12695_storage)": {
        "encoding": "mapping",
        "key": "t_uint256",
        "label": "mapping(uint256 => struct Transfer.Receipt)",
        "numberOfBytes": "32",
        "value": "t_struct(Receipt)12695_storage"
      },
      "t_struct(AddressSet)4026_storage": {
        "encoding": "inplace",
        "label": "struct EnumerableSet.AddressSet",
        "members": [
          {
            "astId": 4025,
            "contract": "contracts/ronin/RoninGatewayV2.sol:RoninGatewayV2",
            "label": "_inner",
            "offset": 0,
            "slot": "0",
            "type": "t_struct(Set)3725_storage"
          }
        ],
        "numberOfBytes": "64"
      },
      "t_struct(Info)11892_storage": {
        "encoding": "inplace",
        "label": "struct Token.Info",
        "members": [
          {
            "astId": 11887,
            "contract": "contracts/ronin/RoninGatewayV2.sol:RoninGatewayV2",
            "label": "erc",
            "offset": 0,
            "slot": "0",
            "type": "t_enum(Standard)11884"
          },
          {
            "astId": 11889,
            "contract": "contracts/ronin/RoninGatewayV2.sol:RoninGatewayV2",
            "label": "id",
            "offset": 0,
            "slot": "1",
            "type": "t_uint256"
          },
          {
            "astId": 11891,
            "contract": "contracts/ronin/RoninGatewayV2.sol:RoninGatewayV2",
            "label": "quantity",
            "offset": 0,
            "slot": "2",
            "type": "t_uint256"
          }
        ],
        "numberOfBytes": "96"
      },
      "t_struct(IsolatedVote)6493_storage": {
        "encoding": "inplace",
        "label": "struct IsolatedGovernance.IsolatedVote",
        "members": [
          {
            "astId": 6480,
            "contract": "contracts/ronin/RoninGatewayV2.sol:RoninGatewayV2",
            "label": "status",
            "offset": 0,
            "slot": "0",
            "type": "t_enum(VoteStatus)10316"
          },
          {
            "astId": 6482,
            "contract": "contracts/ronin/RoninGatewayV2.sol:RoninGatewayV2",
            "label": "finalHash",
            "offset": 0,
            "slot": "1",
            "type": "t_bytes32"
          },
          {
            "astId": 6487,
            "contract": "contracts/ronin/RoninGatewayV2.sol:RoninGatewayV2",
            "label": "voteHashOf",
            "offset": 0,
            "slot": "2",
            "type": "t_mapping(t_address,t_bytes32)"
          },
          {
            "astId": 6492,
            "contract": "contracts/ronin/RoninGatewayV2.sol:RoninGatewayV2",
            "label": "weight",
            "offset": 0,
            "slot": "3",
            "type": "t_mapping(t_bytes32,t_uint256)"
          }
        ],
        "numberOfBytes": "128"
      },
      "t_struct(MappedToken)10290_storage": {
        "encoding": "inplace",
        "label": "struct MappedTokenConsumer.MappedToken",
        "members": [
          {
            "astId": 10287,
            "contract": "contracts/ronin/RoninGatewayV2.sol:RoninGatewayV2",
            "label": "erc",
            "offset": 0,
            "slot": "0",
            "type": "t_enum(Standard)11884"
          },
          {
            "astId": 10289,
            "contract": "contracts/ronin/RoninGatewayV2.sol:RoninGatewayV2",
            "label": "tokenAddr",
            "offset": 1,
            "slot": "0",
            "type": "t_address"
          }
        ],
        "numberOfBytes": "32"
      },
      "t_struct(Owner)12453_storage": {
        "encoding": "inplace",
        "label": "struct Token.Owner",
        "members": [
          {
            "astId": 12448,
            "contract": "contracts/ronin/RoninGatewayV2.sol:RoninGatewayV2",
            "label": "addr",
            "offset": 0,
            "slot": "0",
            "type": "t_address"
          },
          {
            "astId": 12450,
            "contract": "contracts/ronin/RoninGatewayV2.sol:RoninGatewayV2",
            "label": "tokenAddr",
            "offset": 0,
            "slot": "1",
            "type": "t_address"
          },
          {
            "astId": 12452,
            "contract": "contracts/ronin/RoninGatewayV2.sol:RoninGatewayV2",
            "label": "chainId",
            "offset": 0,
            "slot": "2",
            "type": "t_uint256"
          }
        ],
        "numberOfBytes": "96"
      },
      "t_struct(Receipt)12695_storage": {
        "encoding": "inplace",
        "label": "struct Transfer.Receipt",
        "members": [
          {
            "astId": 12682,
            "contract": "contracts/ronin/RoninGatewayV2.sol:RoninGatewayV2",
            "label": "id",
            "offset": 0,
            "slot": "0",
            "type": "t_uint256"
          },
          {
            "astId": 12685,
            "contract": "contracts/ronin/RoninGatewayV2.sol:RoninGatewayV2",
            "label": "kind",
            "offset": 0,
            "slot": "1",
            "type": "t_enum(Kind)12492"
          },
          {
            "astId": 12688,
            "contract": "contracts/ronin/RoninGatewayV2.sol:RoninGatewayV2",
            "label": "mainchain",
            "offset": 0,
            "slot": "2",
            "type": "t_struct(Owner)12453_storage"
          },
          {
            "astId": 12691,
            "contract": "contracts/ronin/RoninGatewayV2.sol:RoninGatewayV2",
            "label": "ronin",
            "offset": 0,
            "slot": "5",
            "type": "t_struct(Owner)12453_storage"
          },
          {
            "astId": 12694,
            "contract": "contracts/ronin/RoninGatewayV2.sol:RoninGatewayV2",
            "label": "info",
            "offset": 0,
            "slot": "8",
            "type": "t_struct(Info)11892_storage"
          }
        ],
        "numberOfBytes": "352"
      },
      "t_struct(RoleData)19_storage": {
        "encoding": "inplace",
        "label": "struct AccessControl.RoleData",
        "members": [
          {
            "astId": 16,
            "contract": "contracts/ronin/RoninGatewayV2.sol:RoninGatewayV2",
            "label": "members",
            "offset": 0,
            "slot": "0",
            "type": "t_mapping(t_address,t_bool)"
          },
          {
            "astId": 18,
            "contract": "contracts/ronin/RoninGatewayV2.sol:RoninGatewayV2",
            "label": "adminRole",
            "offset": 0,
            "slot": "1",
            "type": "t_bytes32"
          }
        ],
        "numberOfBytes": "64"
      },
      "t_struct(Set)3725_storage": {
        "encoding": "inplace",
        "label": "struct EnumerableSet.Set",
        "members": [
          {
            "astId": 3720,
            "contract": "contracts/ronin/RoninGatewayV2.sol:RoninGatewayV2",
            "label": "_values",
            "offset": 0,
            "slot": "0",
            "type": "t_array(t_bytes32)dyn_storage"
          },
          {
            "astId": 3724,
            "contract": "contracts/ronin/RoninGatewayV2.sol:RoninGatewayV2",
            "label": "_indexes",
            "offset": 0,
            "slot": "1",
            "type": "t_mapping(t_bytes32,t_uint256)"
          }
        ],
        "numberOfBytes": "64"
      },
      "t_uint256": {
        "encoding": "inplace",
        "label": "uint256",
        "numberOfBytes": "32"
      },
      "t_uint8": {
        "encoding": "inplace",
        "label": "uint8",
        "numberOfBytes": "1"
      }
    }
  }
}