{
  "address": "0x04880A6B03BEAcfDA3C7C30931bBC36Ed28a5928",
  "abi": [
    {
      "inputs": [],
      "stateMutability": "nonpayable",
      "type": "constructor"
    },
    {
      "anonymous": false,
      "inputs": [
        {
          "indexed": true,
          "internalType": "uint256",
          "name": "period",
          "type": "uint256"
        },
        {
          "indexed": false,
          "internalType": "address[]",
          "name": "consensusAddrs",
          "type": "address[]"
        }
      ],
      "name": "BlockProducerSetUpdated",
      "type": "event"
    },
    {
      "anonymous": false,
      "inputs": [
        {
          "indexed": true,
          "internalType": "address",
          "name": "coinbaseAddr",
          "type": "address"
        },
        {
          "indexed": false,
          "internalType": "uint256",
          "name": "rewardAmount",
          "type": "uint256"
        },
        {
          "indexed": false,
          "internalType": "enum ICoinbaseExecution.BlockRewardDeprecatedType",
          "name": "deprecatedType",
          "type": "uint8"
        }
      ],
      "name": "BlockRewardDeprecated",
      "type": "event"
    },
    {
      "anonymous": false,
      "inputs": [
        {
          "indexed": true,
          "internalType": "address",
          "name": "coinbaseAddr",
          "type": "address"
        },
        {
          "indexed": false,
          "internalType": "uint256",
          "name": "submittedAmount",
          "type": "uint256"
        },
        {
          "indexed": false,
          "internalType": "uint256",
          "name": "bonusAmount",
          "type": "uint256"
        }
      ],
      "name": "BlockRewardSubmitted",
      "type": "event"
    },
    {
      "anonymous": false,
      "inputs": [
        {
          "indexed": true,
          "internalType": "address",
          "name": "consensusAddr",
          "type": "address"
        },
        {
          "indexed": true,
          "internalType": "address",
          "name": "bridgeOperator",
          "type": "address"
        },
        {
          "indexed": true,
          "internalType": "address",
          "name": "recipientAddr",
          "type": "address"
        },
        {
          "indexed": false,
          "internalType": "uint256",
          "name": "amount",
          "type": "uint256"
        }
      ],
      "name": "BridgeOperatorRewardDistributed",
      "type": "event"
    },
    {
      "anonymous": false,
      "inputs": [
        {
          "indexed": true,
          "internalType": "address",
          "name": "consensusAddr",
          "type": "address"
        },
        {
          "indexed": true,
          "internalType": "address",
          "name": "bridgeOperator",
          "type": "address"
        },
        {
          "indexed": true,
          "internalType": "address",
          "name": "recipient",
          "type": "address"
        },
        {
          "indexed": false,
          "internalType": "uint256",
          "name": "amount",
          "type": "uint256"
        },
        {
          "indexed": false,
          "internalType": "uint256",
          "name": "contractBalance",
          "type": "uint256"
        }
      ],
      "name": "BridgeOperatorRewardDistributionFailed",
      "type": "event"
    },
    {
      "anonymous": false,
      "inputs": [
        {
          "indexed": true,
          "internalType": "uint256",
          "name": "period",
          "type": "uint256"
        },
        {
          "indexed": false,
          "internalType": "address[]",
          "name": "bridgeOperators",
          "type": "address[]"
        }
      ],
      "name": "BridgeOperatorSetUpdated",
      "type": "event"
    },
    {
      "anonymous": false,
      "inputs": [
        {
          "indexed": false,
          "internalType": "address",
          "name": "",
          "type": "address"
        }
      ],
      "name": "BridgeTrackingContractUpdated",
      "type": "event"
    },
    {
      "anonymous": false,
      "inputs": [
        {
          "indexed": true,
          "internalType": "address",
          "name": "consensusAddr",
          "type": "address"
        },
        {
          "indexed": true,
          "internalType": "address",
          "name": "treasuryAddr",
          "type": "address"
        },
        {
          "indexed": true,
          "internalType": "address",
          "name": "admin",
          "type": "address"
        },
        {
          "indexed": false,
          "internalType": "address",
          "name": "bridgeOperator",
          "type": "address"
        }
      ],
      "name": "CandidateGranted",
      "type": "event"
    },
    {
      "anonymous": false,
      "inputs": [
        {
          "indexed": true,
          "internalType": "address",
          "name": "consensusAddr",
          "type": "address"
        },
        {
          "indexed": false,
          "internalType": "uint256",
          "name": "revokingTimestamp",
          "type": "uint256"
        }
      ],
      "name": "CandidateRevokingTimestampUpdated",
      "type": "event"
    },
    {
      "anonymous": false,
      "inputs": [
        {
          "indexed": true,
          "internalType": "address",
          "name": "consensusAddr",
          "type": "address"
        },
        {
          "indexed": false,
          "internalType": "uint256",
          "name": "topupDeadline",
          "type": "uint256"
        }
      ],
      "name": "CandidateTopupDeadlineUpdated",
      "type": "event"
    },
    {
      "anonymous": false,
      "inputs": [
        {
          "indexed": false,
          "internalType": "address[]",
          "name": "consensusAddrs",
          "type": "address[]"
        }
      ],
      "name": "CandidatesRevoked",
      "type": "event"
    },
    {
      "anonymous": false,
      "inputs": [
        {
          "indexed": true,
          "internalType": "address",
          "name": "consensusAddr",
          "type": "address"
        },
        {
          "indexed": false,
          "internalType": "uint256",
          "name": "effectiveTimestamp",
          "type": "uint256"
        },
        {
          "indexed": false,
          "internalType": "uint256",
          "name": "rate",
          "type": "uint256"
        }
      ],
      "name": "CommissionRateUpdateScheduled",
      "type": "event"
    },
    {
      "anonymous": false,
      "inputs": [
        {
          "indexed": true,
          "internalType": "address",
          "name": "consensusAddr",
          "type": "address"
        },
        {
          "indexed": false,
          "internalType": "uint256",
          "name": "rate",
          "type": "uint256"
        }
      ],
      "name": "CommissionRateUpdated",
      "type": "event"
    },
    {
      "anonymous": false,
      "inputs": [
        {
          "indexed": true,
          "internalType": "address",
          "name": "recipientAddr",
          "type": "address"
        },
        {
          "indexed": false,
          "internalType": "uint256",
          "name": "amount",
          "type": "uint256"
        },
        {
          "indexed": false,
          "internalType": "uint256",
          "name": "balance",
          "type": "uint256"
        }
      ],
      "name": "DeprecatedRewardRecycleFailed",
      "type": "event"
    },
    {
      "anonymous": false,
      "inputs": [
        {
          "indexed": true,
          "internalType": "address",
          "name": "recipientAddr",
          "type": "address"
        },
        {
          "indexed": false,
          "internalType": "uint256",
          "name": "amount",
          "type": "uint256"
        }
      ],
      "name": "DeprecatedRewardRecycled",
      "type": "event"
    },
    {
      "anonymous": false,
      "inputs": [
        {
          "indexed": false,
          "internalType": "uint8",
          "name": "version",
          "type": "uint8"
        }
      ],
      "name": "Initialized",
      "type": "event"
    },
    {
      "anonymous": false,
      "inputs": [
        {
          "indexed": false,
          "internalType": "address",
          "name": "",
          "type": "address"
        }
      ],
      "name": "MaintenanceContractUpdated",
      "type": "event"
    },
    {
      "anonymous": false,
      "inputs": [
        {
          "indexed": false,
          "internalType": "uint256",
          "name": "",
          "type": "uint256"
        }
      ],
      "name": "MaxPrioritizedValidatorNumberUpdated",
      "type": "event"
    },
    {
      "anonymous": false,
      "inputs": [
        {
          "indexed": false,
          "internalType": "uint256",
          "name": "threshold",
          "type": "uint256"
        }
      ],
      "name": "MaxValidatorCandidateUpdated",
      "type": "event"
    },
    {
      "anonymous": false,
      "inputs": [
        {
          "indexed": false,
          "internalType": "uint256",
          "name": "",
          "type": "uint256"
        }
      ],
      "name": "MaxValidatorNumberUpdated",
      "type": "event"
    },
    {
      "anonymous": false,
      "inputs": [
        {
          "indexed": false,
          "internalType": "uint256",
          "name": "numOfDays",
          "type": "uint256"
        }
      ],
      "name": "MinEffectiveDaysOnwardsUpdated",
      "type": "event"
    },
    {
      "anonymous": false,
      "inputs": [
        {
          "indexed": true,
          "internalType": "address",
          "name": "consensusAddr",
          "type": "address"
        },
        {
          "indexed": true,
          "internalType": "address",
          "name": "recipient",
          "type": "address"
        },
        {
          "indexed": false,
          "internalType": "uint256",
          "name": "amount",
          "type": "uint256"
        }
      ],
      "name": "MiningRewardDistributed",
      "type": "event"
    },
    {
      "anonymous": false,
      "inputs": [
        {
          "indexed": true,
          "internalType": "address",
          "name": "consensusAddr",
          "type": "address"
        },
        {
          "indexed": true,
          "internalType": "address",
          "name": "recipient",
          "type": "address"
        },
        {
          "indexed": false,
          "internalType": "uint256",
          "name": "amount",
          "type": "uint256"
        },
        {
          "indexed": false,
          "internalType": "uint256",
          "name": "contractBalance",
          "type": "uint256"
        }
      ],
      "name": "MiningRewardDistributionFailed",
      "type": "event"
    },
    {
      "anonymous": false,
      "inputs": [
        {
          "indexed": false,
          "internalType": "address",
          "name": "",
          "type": "address"
        }
      ],
      "name": "RoninTrustedOrganizationContractUpdated",
      "type": "event"
    },
    {
      "anonymous": false,
      "inputs": [
        {
          "indexed": false,
          "internalType": "address",
          "name": "",
          "type": "address"
        }
      ],
      "name": "SlashIndicatorContractUpdated",
      "type": "event"
    },
    {
      "anonymous": false,
      "inputs": [
        {
          "indexed": false,
          "internalType": "address",
          "name": "",
          "type": "address"
        }
      ],
      "name": "StakingContractUpdated",
      "type": "event"
    },
    {
      "anonymous": false,
      "inputs": [
        {
          "indexed": false,
          "internalType": "uint256",
          "name": "amount",
          "type": "uint256"
        }
      ],
      "name": "StakingRewardDistributed",
      "type": "event"
    },
    {
      "anonymous": false,
      "inputs": [
        {
          "indexed": false,
          "internalType": "uint256",
          "name": "amount",
          "type": "uint256"
        },
        {
          "indexed": false,
          "internalType": "uint256",
          "name": "contractBalance",
          "type": "uint256"
        }
      ],
      "name": "StakingRewardDistributionFailed",
      "type": "event"
    },
    {
      "anonymous": false,
      "inputs": [
        {
          "indexed": false,
          "internalType": "address",
          "name": "",
          "type": "address"
        }
      ],
      "name": "StakingVestingContractUpdated",
      "type": "event"
    },
    {
      "anonymous": false,
      "inputs": [
        {
          "indexed": true,
          "internalType": "address",
          "name": "consensusAddr",
          "type": "address"
        },
        {
          "indexed": true,
          "internalType": "uint256",
          "name": "period",
          "type": "uint256"
        },
        {
          "indexed": false,
          "internalType": "uint256",
          "name": "jailedUntil",
          "type": "uint256"
        },
        {
          "indexed": false,
          "internalType": "uint256",
          "name": "deductedStakingAmount",
          "type": "uint256"
        },
        {
          "indexed": false,
          "internalType": "bool",
          "name": "blockProducerRewardDeprecated",
          "type": "bool"
        },
        {
          "indexed": false,
          "internalType": "bool",
          "name": "bridgeOperatorRewardDeprecated",
          "type": "bool"
        }
      ],
      "name": "ValidatorPunished",
      "type": "event"
    },
    {
      "anonymous": false,
      "inputs": [
        {
          "indexed": true,
          "internalType": "uint256",
          "name": "period",
          "type": "uint256"
        },
        {
          "indexed": false,
          "internalType": "address[]",
          "name": "consensusAddrs",
          "type": "address[]"
        }
      ],
      "name": "ValidatorSetUpdated",
      "type": "event"
    },
    {
      "anonymous": false,
      "inputs": [
        {
          "indexed": true,
          "internalType": "address",
          "name": "validator",
          "type": "address"
        },
        {
          "indexed": false,
          "internalType": "uint256",
          "name": "period",
          "type": "uint256"
        }
      ],
      "name": "ValidatorUnjailed",
      "type": "event"
    },
    {
      "anonymous": false,
      "inputs": [
        {
          "indexed": true,
          "internalType": "uint256",
          "name": "periodNumber",
          "type": "uint256"
        },
        {
          "indexed": true,
          "internalType": "uint256",
          "name": "epochNumber",
          "type": "uint256"
        },
        {
          "indexed": false,
          "internalType": "bool",
          "name": "periodEnding",
          "type": "bool"
        }
      ],
      "name": "WrappedUpEpoch",
      "type": "event"
    },
    {
      "stateMutability": "payable",
      "type": "fallback"
    },
    {
      "inputs": [
        {
          "internalType": "uint256",
          "name": "_newPeriod",
          "type": "uint256"
        }
      ],
      "name": "_isPeriodEnding",
      "outputs": [
        {
          "internalType": "bool",
          "name": "",
          "type": "bool"
        }
      ],
      "stateMutability": "view",
      "type": "function"
    },
    {
      "inputs": [],
      "name": "bridgeTrackingContract",
      "outputs": [
        {
          "internalType": "address",
          "name": "",
          "type": "address"
        }
      ],
      "stateMutability": "view",
      "type": "function"
    },
    {
      "inputs": [
        {
          "internalType": "address",
          "name": "_addr",
          "type": "address"
        }
      ],
      "name": "checkJailed",
      "outputs": [
        {
          "internalType": "bool",
          "name": "",
          "type": "bool"
        }
      ],
      "stateMutability": "view",
      "type": "function"
    },
    {
      "inputs": [
        {
          "internalType": "address",
          "name": "_addr",
          "type": "address"
        },
        {
          "internalType": "uint256",
          "name": "_blockNum",
          "type": "uint256"
        }
      ],
      "name": "checkJailedAtBlock",
      "outputs": [
        {
          "internalType": "bool",
          "name": "",
          "type": "bool"
        }
      ],
      "stateMutability": "view",
      "type": "function"
    },
    {
      "inputs": [
        {
          "internalType": "address[]",
          "name": "_addrList",
          "type": "address[]"
        }
      ],
      "name": "checkManyJailed",
      "outputs": [
        {
          "internalType": "bool[]",
          "name": "_result",
          "type": "bool[]"
        }
      ],
      "stateMutability": "view",
      "type": "function"
    },
    {
      "inputs": [
        {
          "internalType": "address[]",
          "name": "_blockProducers",
          "type": "address[]"
        }
      ],
      "name": "checkMiningRewardDeprecated",
      "outputs": [
        {
          "internalType": "bool[]",
          "name": "_result",
          "type": "bool[]"
        }
      ],
      "stateMutability": "view",
      "type": "function"
    },
    {
      "inputs": [
        {
          "internalType": "address[]",
          "name": "_blockProducers",
          "type": "address[]"
        },
        {
          "internalType": "uint256",
          "name": "_period",
          "type": "uint256"
        }
      ],
      "name": "checkMiningRewardDeprecatedAtPeriod",
      "outputs": [
        {
          "internalType": "bool[]",
          "name": "_result",
          "type": "bool[]"
        }
      ],
      "stateMutability": "view",
      "type": "function"
    },
    {
      "inputs": [],
      "name": "currentPeriod",
      "outputs": [
        {
          "internalType": "uint256",
          "name": "",
          "type": "uint256"
        }
      ],
      "stateMutability": "view",
      "type": "function"
    },
    {
      "inputs": [],
      "name": "currentPeriodStartAtBlock",
      "outputs": [
        {
          "internalType": "uint256",
          "name": "",
          "type": "uint256"
        }
      ],
      "stateMutability": "view",
      "type": "function"
    },
    {
      "inputs": [
        {
          "internalType": "uint256",
          "name": "_block",
          "type": "uint256"
        }
      ],
      "name": "epochEndingAt",
      "outputs": [
        {
          "internalType": "bool",
          "name": "",
          "type": "bool"
        }
      ],
      "stateMutability": "view",
      "type": "function"
    },
    {
      "inputs": [
        {
          "internalType": "uint256",
          "name": "_block",
          "type": "uint256"
        }
      ],
      "name": "epochOf",
      "outputs": [
        {
          "internalType": "uint256",
          "name": "",
          "type": "uint256"
        }
      ],
      "stateMutability": "view",
      "type": "function"
    },
    {
      "inputs": [
        {
          "internalType": "address",
          "name": "_validatorAddr",
          "type": "address"
        },
        {
          "internalType": "uint256",
          "name": "_period",
          "type": "uint256"
        }
      ],
      "name": "execBailOut",
      "outputs": [],
      "stateMutability": "nonpayable",
      "type": "function"
    },
    {
      "inputs": [
        {
          "internalType": "address",
          "name": "_consensusAddr",
          "type": "address"
        },
        {
          "internalType": "uint256",
          "name": "_effectiveDaysOnwards",
          "type": "uint256"
        },
        {
          "internalType": "uint256",
          "name": "_commissionRate",
          "type": "uint256"
        }
      ],
      "name": "execRequestUpdateCommissionRate",
      "outputs": [],
      "stateMutability": "nonpayable",
      "type": "function"
    },
    {
      "inputs": [
        {
          "internalType": "address",
          "name": "_validatorAddr",
          "type": "address"
        },
        {
          "internalType": "uint256",
          "name": "_newJailedUntil",
          "type": "uint256"
        },
        {
          "internalType": "uint256",
          "name": "_slashAmount",
          "type": "uint256"
        }
      ],
      "name": "execSlash",
      "outputs": [],
      "stateMutability": "nonpayable",
      "type": "function"
    },
    {
      "inputs": [],
      "name": "getBlockProducers",
      "outputs": [
        {
          "internalType": "address[]",
          "name": "_result",
          "type": "address[]"
        }
      ],
      "stateMutability": "view",
      "type": "function"
    },
    {
      "inputs": [],
      "name": "getBridgeOperators",
      "outputs": [
        {
          "internalType": "address[]",
          "name": "_bridgeOperatorList",
          "type": "address[]"
        }
      ],
      "stateMutability": "view",
      "type": "function"
    },
    {
      "inputs": [
        {
          "internalType": "address",
          "name": "_candidate",
          "type": "address"
        }
      ],
      "name": "getCandidateInfo",
      "outputs": [
        {
          "components": [
            {
              "internalType": "address",
              "name": "admin",
              "type": "address"
            },
            {
              "internalType": "address",
              "name": "consensusAddr",
              "type": "address"
            },
            {
              "internalType": "address payable",
              "name": "treasuryAddr",
              "type": "address"
            },
            {
              "internalType": "address",
              "name": "bridgeOperatorAddr",
              "type": "address"
            },
            {
              "internalType": "uint256",
              "name": "commissionRate",
              "type": "uint256"
            },
            {
              "internalType": "uint256",
              "name": "revokingTimestamp",
              "type": "uint256"
            },
            {
              "internalType": "uint256",
              "name": "topupDeadline",
              "type": "uint256"
            }
          ],
          "internalType": "struct ICandidateManager.ValidatorCandidate",
          "name": "",
          "type": "tuple"
        }
      ],
      "stateMutability": "view",
      "type": "function"
    },
    {
      "inputs": [],
      "name": "getCandidateInfos",
      "outputs": [
        {
          "components": [
            {
              "internalType": "address",
              "name": "admin",
              "type": "address"
            },
            {
              "internalType": "address",
              "name": "consensusAddr",
              "type": "address"
            },
            {
              "internalType": "address payable",
              "name": "treasuryAddr",
              "type": "address"
            },
            {
              "internalType": "address",
              "name": "bridgeOperatorAddr",
              "type": "address"
            },
            {
              "internalType": "uint256",
              "name": "commissionRate",
              "type": "uint256"
            },
            {
              "internalType": "uint256",
              "name": "revokingTimestamp",
              "type": "uint256"
            },
            {
              "internalType": "uint256",
              "name": "topupDeadline",
              "type": "uint256"
            }
          ],
          "internalType": "struct ICandidateManager.ValidatorCandidate[]",
          "name": "_list",
          "type": "tuple[]"
        }
      ],
      "stateMutability": "view",
      "type": "function"
    },
    {
      "inputs": [
        {
          "internalType": "address",
          "name": "_addr",
          "type": "address"
        }
      ],
      "name": "getJailedTimeLeft",
      "outputs": [
        {
          "internalType": "bool",
          "name": "isJailed_",
          "type": "bool"
        },
        {
          "internalType": "uint256",
          "name": "blockLeft_",
          "type": "uint256"
        },
        {
          "internalType": "uint256",
          "name": "epochLeft_",
          "type": "uint256"
        }
      ],
      "stateMutability": "view",
      "type": "function"
    },
    {
      "inputs": [
        {
          "internalType": "address",
          "name": "_addr",
          "type": "address"
        },
        {
          "internalType": "uint256",
          "name": "_blockNum",
          "type": "uint256"
        }
      ],
      "name": "getJailedTimeLeftAtBlock",
      "outputs": [
        {
          "internalType": "bool",
          "name": "isJailed_",
          "type": "bool"
        },
        {
          "internalType": "uint256",
          "name": "blockLeft_",
          "type": "uint256"
        },
        {
          "internalType": "uint256",
          "name": "epochLeft_",
          "type": "uint256"
        }
      ],
      "stateMutability": "view",
      "type": "function"
    },
    {
      "inputs": [],
      "name": "getLastUpdatedBlock",
      "outputs": [
        {
          "internalType": "uint256",
          "name": "",
          "type": "uint256"
        }
      ],
      "stateMutability": "view",
      "type": "function"
    },
    {
      "inputs": [],
      "name": "getValidatorCandidates",
      "outputs": [
        {
          "internalType": "address[]",
          "name": "",
          "type": "address[]"
        }
      ],
      "stateMutability": "view",
      "type": "function"
    },
    {
      "inputs": [],
      "name": "getValidators",
      "outputs": [
        {
          "internalType": "address[]",
          "name": "_validatorList",
          "type": "address[]"
        }
      ],
      "stateMutability": "view",
      "type": "function"
    },
    {
      "inputs": [
        {
          "internalType": "address",
          "name": "_admin",
          "type": "address"
        },
        {
          "internalType": "address",
          "name": "_consensusAddr",
          "type": "address"
        },
        {
          "internalType": "address payable",
          "name": "_treasuryAddr",
          "type": "address"
        },
        {
          "internalType": "address",
          "name": "_bridgeOperatorAddr",
          "type": "address"
        },
        {
          "internalType": "uint256",
          "name": "_commissionRate",
          "type": "uint256"
        }
      ],
      "name": "grantValidatorCandidate",
      "outputs": [],
      "stateMutability": "nonpayable",
      "type": "function"
    },
    {
      "inputs": [
        {
          "internalType": "address",
          "name": "__slashIndicatorContract",
          "type": "address"
        },
        {
          "internalType": "address",
          "name": "__stakingContract",
          "type": "address"
        },
        {
          "internalType": "address",
          "name": "__stakingVestingContract",
          "type": "address"
        },
        {
          "internalType": "address",
          "name": "__maintenanceContract",
          "type": "address"
        },
        {
          "internalType": "address",
          "name": "__roninTrustedOrganizationContract",
          "type": "address"
        },
        {
          "internalType": "address",
          "name": "__bridgeTrackingContract",
          "type": "address"
        },
        {
          "internalType": "uint256",
          "name": "__maxValidatorNumber",
          "type": "uint256"
        },
        {
          "internalType": "uint256",
          "name": "__maxValidatorCandidate",
          "type": "uint256"
        },
        {
          "internalType": "uint256",
          "name": "__maxPrioritizedValidatorNumber",
          "type": "uint256"
        },
        {
          "internalType": "uint256",
          "name": "__minEffectiveDaysOnwards",
          "type": "uint256"
        },
        {
          "internalType": "uint256",
          "name": "__numberOfBlocksInEpoch",
          "type": "uint256"
        }
      ],
      "name": "initialize",
      "outputs": [],
      "stateMutability": "nonpayable",
      "type": "function"
    },
    {
      "inputs": [
        {
          "internalType": "address",
          "name": "_addr",
          "type": "address"
        }
      ],
      "name": "isBlockProducer",
      "outputs": [
        {
          "internalType": "bool",
          "name": "",
          "type": "bool"
        }
      ],
      "stateMutability": "view",
      "type": "function"
    },
    {
      "inputs": [
        {
          "internalType": "address",
          "name": "_bridgeOperatorAddr",
          "type": "address"
        }
      ],
      "name": "isBridgeOperator",
      "outputs": [
        {
          "internalType": "bool",
          "name": "_result",
          "type": "bool"
        }
      ],
      "stateMutability": "view",
      "type": "function"
    },
    {
      "inputs": [
        {
          "internalType": "address",
          "name": "_candidate",
          "type": "address"
        },
        {
          "internalType": "address",
          "name": "_admin",
          "type": "address"
        }
      ],
      "name": "isCandidateAdmin",
      "outputs": [
        {
          "internalType": "bool",
          "name": "",
          "type": "bool"
        }
      ],
      "stateMutability": "view",
      "type": "function"
    },
    {
      "inputs": [],
      "name": "isPeriodEnding",
      "outputs": [
        {
          "internalType": "bool",
          "name": "",
          "type": "bool"
        }
      ],
      "stateMutability": "view",
      "type": "function"
    },
    {
      "inputs": [
        {
          "internalType": "address",
          "name": "_addr",
          "type": "address"
        }
      ],
      "name": "isValidator",
      "outputs": [
        {
          "internalType": "bool",
          "name": "",
          "type": "bool"
        }
      ],
      "stateMutability": "view",
      "type": "function"
    },
    {
      "inputs": [
        {
          "internalType": "address",
          "name": "_addr",
          "type": "address"
        }
      ],
      "name": "isValidatorCandidate",
      "outputs": [
        {
          "internalType": "bool",
          "name": "",
          "type": "bool"
        }
      ],
      "stateMutability": "view",
      "type": "function"
    },
    {
      "inputs": [],
      "name": "maintenanceContract",
      "outputs": [
        {
          "internalType": "address",
          "name": "",
          "type": "address"
        }
      ],
      "stateMutability": "view",
      "type": "function"
    },
    {
      "inputs": [],
      "name": "maxPrioritizedValidatorNumber",
      "outputs": [
        {
          "internalType": "uint256",
          "name": "_maximumPrioritizedValidatorNumber",
          "type": "uint256"
        }
      ],
      "stateMutability": "view",
      "type": "function"
    },
    {
      "inputs": [],
      "name": "maxValidatorCandidate",
      "outputs": [
        {
          "internalType": "uint256",
          "name": "",
          "type": "uint256"
        }
      ],
      "stateMutability": "view",
      "type": "function"
    },
    {
      "inputs": [],
      "name": "maxValidatorNumber",
      "outputs": [
        {
          "internalType": "uint256",
          "name": "_maximumValidatorNumber",
          "type": "uint256"
        }
      ],
      "stateMutability": "view",
      "type": "function"
    },
    {
      "inputs": [],
      "name": "minEffectiveDaysOnwards",
      "outputs": [
        {
          "internalType": "uint256",
          "name": "",
          "type": "uint256"
        }
      ],
      "stateMutability": "view",
      "type": "function"
    },
    {
      "inputs": [],
      "name": "numberOfBlocksInEpoch",
      "outputs": [
        {
          "internalType": "uint256",
          "name": "_numberOfBlocks",
          "type": "uint256"
        }
      ],
      "stateMutability": "view",
      "type": "function"
    },
    {
      "inputs": [],
      "name": "precompilePickValidatorSetAddress",
      "outputs": [
        {
          "internalType": "address",
          "name": "",
          "type": "address"
        }
      ],
      "stateMutability": "view",
      "type": "function"
    },
    {
      "inputs": [],
      "name": "precompileSortValidatorsAddress",
      "outputs": [
        {
          "internalType": "address",
          "name": "",
          "type": "address"
        }
      ],
      "stateMutability": "view",
      "type": "function"
    },
    {
      "inputs": [
        {
          "internalType": "address",
          "name": "_consensusAddr",
          "type": "address"
        },
        {
          "internalType": "uint256",
          "name": "_secsLeft",
          "type": "uint256"
        }
      ],
      "name": "requestRevokeCandidate",
      "outputs": [],
      "stateMutability": "nonpayable",
      "type": "function"
    },
    {
      "inputs": [],
      "name": "roninTrustedOrganizationContract",
      "outputs": [
        {
          "internalType": "address",
          "name": "",
          "type": "address"
        }
      ],
      "stateMutability": "view",
      "type": "function"
    },
    {
      "inputs": [
        {
          "internalType": "address",
          "name": "_addr",
          "type": "address"
        }
      ],
      "name": "setBridgeTrackingContract",
      "outputs": [],
      "stateMutability": "nonpayable",
      "type": "function"
    },
    {
      "inputs": [
        {
          "internalType": "address",
          "name": "_addr",
          "type": "address"
        }
      ],
      "name": "setMaintenanceContract",
      "outputs": [],
      "stateMutability": "nonpayable",
      "type": "function"
    },
    {
      "inputs": [
        {
          "internalType": "uint256",
          "name": "_number",
          "type": "uint256"
        }
      ],
      "name": "setMaxPrioritizedValidatorNumber",
      "outputs": [],
      "stateMutability": "nonpayable",
      "type": "function"
    },
    {
      "inputs": [
        {
          "internalType": "uint256",
          "name": "_number",
          "type": "uint256"
        }
      ],
      "name": "setMaxValidatorCandidate",
      "outputs": [],
      "stateMutability": "nonpayable",
      "type": "function"
    },
    {
      "inputs": [
        {
          "internalType": "uint256",
          "name": "_max",
          "type": "uint256"
        }
      ],
      "name": "setMaxValidatorNumber",
      "outputs": [],
      "stateMutability": "nonpayable",
      "type": "function"
    },
    {
      "inputs": [
        {
          "internalType": "uint256",
          "name": "_numOfDays",
          "type": "uint256"
        }
      ],
      "name": "setMinEffectiveDaysOnwards",
      "outputs": [],
      "stateMutability": "nonpayable",
      "type": "function"
    },
    {
      "inputs": [
        {
          "internalType": "address",
          "name": "_addr",
          "type": "address"
        }
      ],
      "name": "setRoninTrustedOrganizationContract",
      "outputs": [],
      "stateMutability": "nonpayable",
      "type": "function"
    },
    {
      "inputs": [
        {
          "internalType": "address",
          "name": "_addr",
          "type": "address"
        }
      ],
      "name": "setSlashIndicatorContract",
      "outputs": [],
      "stateMutability": "nonpayable",
      "type": "function"
    },
    {
      "inputs": [
        {
          "internalType": "address",
          "name": "_addr",
          "type": "address"
        }
      ],
      "name": "setStakingContract",
      "outputs": [],
      "stateMutability": "nonpayable",
      "type": "function"
    },
    {
      "inputs": [
        {
          "internalType": "address",
          "name": "_addr",
          "type": "address"
        }
      ],
      "name": "setStakingVestingContract",
      "outputs": [],
      "stateMutability": "nonpayable",
      "type": "function"
    },
    {
      "inputs": [],
      "name": "slashIndicatorContract",
      "outputs": [
        {
          "internalType": "address",
          "name": "",
          "type": "address"
        }
      ],
      "stateMutability": "view",
      "type": "function"
    },
    {
      "inputs": [],
      "name": "stakingContract",
      "outputs": [
        {
          "internalType": "address",
          "name": "",
          "type": "address"
        }
      ],
      "stateMutability": "view",
      "type": "function"
    },
    {
      "inputs": [],
      "name": "stakingVestingContract",
      "outputs": [
        {
          "internalType": "address",
          "name": "",
          "type": "address"
        }
      ],
      "stateMutability": "view",
      "type": "function"
    },
    {
      "inputs": [],
      "name": "submitBlockReward",
      "outputs": [],
      "stateMutability": "payable",
      "type": "function"
    },
    {
      "inputs": [],
      "name": "totalBlockProducers",
      "outputs": [
        {
          "internalType": "uint256",
          "name": "_total",
          "type": "uint256"
        }
      ],
      "stateMutability": "view",
      "type": "function"
    },
    {
      "inputs": [],
      "name": "totalBridgeOperators",
      "outputs": [
        {
          "internalType": "uint256",
          "name": "",
          "type": "uint256"
        }
      ],
      "stateMutability": "view",
      "type": "function"
    },
    {
      "inputs": [],
      "name": "totalDeprecatedReward",
      "outputs": [
        {
          "internalType": "uint256",
          "name": "",
          "type": "uint256"
        }
      ],
      "stateMutability": "view",
      "type": "function"
    },
    {
      "inputs": [],
      "name": "validatorCount",
      "outputs": [
        {
          "internalType": "uint256",
          "name": "",
          "type": "uint256"
        }
      ],
      "stateMutability": "view",
      "type": "function"
    },
    {
      "inputs": [],
      "name": "wrapUpEpoch",
      "outputs": [],
      "stateMutability": "payable",
      "type": "function"
    },
    {
      "stateMutability": "payable",
      "type": "receive"
    }
  ],
  "transactionHash": "0xabaa1473501465ee49d795b15db23bf2430fc8a9de25faed4cc094cd4c1f1310",
  "args": [],
  "numDeployments": 2,
  "solcInputHash": "7ee7c0f941167beb3dcb34451beb8d74",
  "bytecode": "0x60806040523480156200001157600080fd5b506200001c62000022565b620000e4565b600054610100900460ff16156200008f5760405162461bcd60e51b815260206004820152602760248201527f496e697469616c697a61626c653a20636f6e747261637420697320696e697469604482015266616c697a696e6760c81b606482015260840160405180910390fd5b60005460ff9081161015620000e2576000805460ff191660ff9081179091556040519081527f7f26b83ff96e1f2b6a682f133852f6798a09c465da95921460cefb38474024989060200160405180910390a15b565b6157ca80620000f46000396000f3fe60806040526004361061039a5760003560e01c80636aa1c2ef116101dc578063a3d545f511610102578063cba44de9116100a0578063ee99205c1161006f578063ee99205c14610a47578063eeb629a814610a65578063f2811bcc14610a7a578063facd743b14610a9a576103a9565b8063cba44de9146109df578063d09f1ab4146109f4578063d2cb215e14610a09578063e5125a1d14610a27576103a9565b8063b5e337de116100dc578063b5e337de14610975578063b7ab4db514610995578063ba77b06c146109aa578063c94aaa02146109bf576103a9565b8063a3d545f514610915578063ad29578314610935578063b405aaf214610955576103a9565b80638d559c381161017a5780639c8d98da116101495780639c8d98da146108885780639dd373b9146108a85780639e94b9ec146108c8578063a0c3f2d2146108dd576103a9565b80638d559c381461081d57806396585fc2146108315780639b19dbfd146108515780639b8c334b14610866576103a9565b8063733ec970116101b6578063733ec970146107a85780637593ff71146107c8578063823a7b9c146107e857806387c891bd14610808576103a9565b80636aa1c2ef1461076b5780636efa12bd1461078057806372e46810146107a0576103a9565b80633b3159b6116102c157806352091f171161025f578063570ccb131161022e578063570ccb13146106f85780635a08482d14610718578063605239a11461073657806365244ece1461074b576103a9565b806352091f171461069b5780635248184a146106a35780635511cde1146106c5578063562d5304146106e3576103a9565b806349096d261161029b57806349096d26146106245780634de2b735146106465780634ee4d72b146106665780634f2a693f1461067b576103a9565b80633b3159b6146105d25780634493421e146105e657806346fe931114610604576103a9565b80631b6e0a99116103395780632924de71116103085780632924de711461054b578063297a8fca1461056b5780632bcf3d15146105805780633529214b146105a0576103a9565b80631b6e0a99146104bc578063217f35c2146104e957806323c65eb0146104fe57806328bde1e11461051e576103a9565b80630f43a677116103755780630f43a6771461042957806311662dc21461043f5780631196ab661461047c57806315b5ebde1461049c576103a9565b80622f5fd7146103b157806304d971ab146103d15780630604061814610406576103a9565b366103a9576103a7610aba565b005b6103a7610aba565b3480156103bd57600080fd5b506103a76103cc366004614b93565b610b75565b3480156103dd57600080fd5b506103f16103ec366004614c47565b610ce8565b60405190151581526020015b60405180910390f35b34801561041257600080fd5b5061041b610d0f565b6040519081526020016103fd565b34801561043557600080fd5b5061041b60aa5481565b34801561044b57600080fd5b5061045f61045a366004614c80565b610d1f565b6040805193151584526020840192909252908201526060016103fd565b34801561048857600080fd5b506103a7610497366004614cac565b610da2565b3480156104a857600080fd5b506103a76104b7366004614c80565b610de6565b3480156104c857600080fd5b506104dc6104d7366004614d10565b610ed1565b6040516103fd9190614d5b565b3480156104f557600080fd5b506103f1610f8e565b34801561050a57600080fd5b506103f1610519366004614c80565b610f9c565b34801561052a57600080fd5b5061053e610539366004614da1565b610fc0565b6040516103fd9190614e12565b34801561055757600080fd5b506103f1610566366004614da1565b61109f565b34801561057757600080fd5b5060045461041b565b34801561058c57600080fd5b506103a761059b366004614da1565b6110ab565b3480156105ac57600080fd5b50606d546001600160a01b03165b6040516001600160a01b0390911681526020016103fd565b3480156105de57600080fd5b5060686105ba565b3480156105f257600080fd5b50606e546001600160a01b03166105ba565b34801561061057600080fd5b506103a761061f366004614da1565b61115d565b34801561063057600080fd5b5061063961120c565b6040516103fd9190614e64565b34801561065257600080fd5b506104dc610661366004614e77565b6112f5565b34801561067257600080fd5b5060e45461041b565b34801561068757600080fd5b506103a7610696366004614cac565b6113b0565b6103a76113f1565b3480156106af57600080fd5b506106b8611789565b6040516103fd9190614eb8565b3480156106d157600080fd5b5060a8546001600160a01b03166105ba565b3480156106ef57600080fd5b5060aa5461041b565b34801561070457600080fd5b506103a7610713366004614efa565b6118e7565b34801561072457600080fd5b506070546001600160a01b03166105ba565b34801561074257600080fd5b5060725461041b565b34801561075757600080fd5b506103f1610766366004614da1565b611ae5565b34801561077757600080fd5b5060015461041b565b34801561078c57600080fd5b506103a761079b366004614c80565b611b1f565b6103a7611c65565b3480156107b457600080fd5b506103a76107c3366004614f2f565b611ec1565b3480156107d457600080fd5b506103f16107e3366004614cac565b612271565b3480156107f457600080fd5b506103a7610803366004614cac565b612295565b34801561081457600080fd5b5060025461041b565b34801561082957600080fd5b5060666105ba565b34801561083d57600080fd5b5061045f61084c366004614da1565b6122d6565b34801561085d57600080fd5b506106396122f2565b34801561087257600080fd5b506103f1610881366004614cac565b6003541090565b34801561089457600080fd5b506103a76108a3366004614da1565b6123a3565b3480156108b457600080fd5b506103a76108c3366004614da1565b612455565b3480156108d457600080fd5b5061041b612500565b3480156108e957600080fd5b506103f16108f8366004614da1565b6001600160a01b0316600090815260746020526040902054151590565b34801561092157600080fd5b5061041b610930366004614cac565b612554565b34801561094157600080fd5b506103a7610950366004614da1565b61255f565b34801561096157600080fd5b506103f1610970366004614da1565b612611565b34801561098157600080fd5b506103a7610990366004614da1565b612673565b3480156109a157600080fd5b50610639612734565b3480156109b657600080fd5b506106396127e1565b3480156109cb57600080fd5b506103a76109da366004614cac565b612843565b3480156109eb57600080fd5b5060765461041b565b348015610a0057600080fd5b5060a95461041b565b348015610a1557600080fd5b50606f546001600160a01b03166105ba565b348015610a3357600080fd5b506103a7610a42366004614efa565b612884565b348015610a5357600080fd5b506071546001600160a01b03166105ba565b348015610a7157600080fd5b5060ad5461041b565b348015610a8657600080fd5b506104dc610a95366004614e77565b612a9c565b348015610aa657600080fd5b506103f1610ab5366004614da1565b612b65565b606d546001600160a01b0316331480610add57506071546001600160a01b031633145b610b735760405162461bcd60e51b815260206004820152605660248201527f526f6e696e56616c696461746f725365743a206f6e6c7920726563656976657360448201527f20524f4e2066726f6d207374616b696e672076657374696e6720636f6e74726160648201527518dd081bdc881cdd185ada5b99c818dbdb9d1c9858dd60521b608482015260a4015b60405180910390fd5b565b600054610100900460ff1615808015610b955750600054600160ff909116105b80610baf5750303b158015610baf575060005460ff166001145b610c125760405162461bcd60e51b815260206004820152602e60248201527f496e697469616c697a61626c653a20636f6e747261637420697320616c72656160448201526d191e481a5b9a5d1a585b1a5e995960921b6064820152608401610b6a565b6000805460ff191660011790558015610c35576000805461ff0019166101001790555b610c3e8c612ba2565b610c478b612bf7565b610c508a612c45565b610c5989612c93565b610c6287612ce1565b610c6b88612d2f565b610c7486612d7d565b610c7d85612db2565b610c8684612de7565b610c8f83612eba565b60018290558015610cda576000805461ff0019169055604051600181527f7f26b83ff96e1f2b6a682f133852f6798a09c465da95921460cefb38474024989060200160405180910390a15b505050505050505050505050565b6001600160a01b038281166000908152607560205260409020548116908216145b92915050565b6000610d1a60035490565b905090565b6001600160a01b0382166000908152603a60205260408120548190819084811015610d5557600080600093509350935050610d9b565b60019350610d638582614fa9565b610d6e906001614fbc565b9250610d7985612554565b610d8282612554565b610d8c9190614fa9565b610d97906001614fbc565b9150505b9250925092565b610daa612f5d565b6001600160a01b0316336001600160a01b031614610dda5760405162461bcd60e51b8152600401610b6a90614fcf565b610de381612eba565b50565b33610df96070546001600160a01b031690565b6001600160a01b031614610e1f5760405162461bcd60e51b8152600401610b6a90615011565b6001600160a01b038216600081815260386020908152604080832085845282528083208054600160ff199182168117909255948452603783528184208685529092529091208054909216909155610e769043614fa9565b6001600160a01b0383166000818152603a6020526040908190209290925590517f6bb2436cb6b6eb65d5a52fac2ae0373a77ade6661e523ef3004ee2d5524e6c6e90610ec59084815260200190565b60405180910390a25050565b6060826001600160401b03811115610eeb57610eeb615080565b604051908082528060200260200182016040528015610f14578160200160208202803683370190505b50905060005b83811015610f8657610f52858583818110610f3757610f37615096565b9050602002016020810190610f4c9190614da1565b84612f8b565b828281518110610f6457610f64615096565b9115156020928302919091019091015280610f7e816150ac565b915050610f1a565b509392505050565b6000610d1a61088142612fb6565b6001600160a01b0382166000908152603a60205260408120548211155b9392505050565b6040805160e08101825260008082526020808301829052828401829052606083018290526080830182905260a0830182905260c083018290526001600160a01b038516825260749052919091205461102a5760405162461bcd60e51b8152600401610b6a906150c5565b506001600160a01b03908116600090815260756020908152604091829020825160e081018452815485168152600182015485169281019290925260028101548416928201929092526003820154909216606083015260048101546080830152600581015460a08301526006015460c082015290565b6000610d098243610f9c565b6110b3612f5d565b6001600160a01b0316336001600160a01b0316146110e35760405162461bcd60e51b8152600401610b6a90614fcf565b6000816001600160a01b03163b116111545760405162461bcd60e51b815260206004820152602e60248201527f486173536c617368496e64696361746f72436f6e74726163743a20736574207460448201526d1bc81b9bdb8b58dbdb9d1c9858dd60921b6064820152608401610b6a565b610de381612ba2565b611165612f5d565b6001600160a01b0316336001600160a01b0316146111955760405162461bcd60e51b8152600401610b6a90614fcf565b6000816001600160a01b03163b116112035760405162461bcd60e51b815260206004820152602b60248201527f4861734d61696e74656e616e6365436f6e74726163743a2073657420746f206e60448201526a1bdb8b58dbdb9d1c9858dd60aa1b6064820152608401610b6a565b610de381612c93565b606060aa546001600160401b0381111561122857611228615080565b604051908082528060200260200182016040528015611251578160200160208202803683370190505b5090506000805b82518110156112ef57600081815260ab6020526040902054611282906001600160a01b0316611ae5565b156112dd57600081815260ab60205260409020546001600160a01b031683836112aa816150ac565b9450815181106112bc576112bc615096565b60200260200101906001600160a01b031690816001600160a01b0316815250505b806112e7816150ac565b915050611258565b50815290565b6060816001600160401b0381111561130f5761130f615080565b604051908082528060200260200182016040528015611338578160200160208202803683370190505b50905060005b828110156113a95761137584848381811061135b5761135b615096565b90506020020160208101906113709190614da1565b612fc5565b82828151811061138757611387615096565b91151560209283029190910190910152806113a1816150ac565b91505061133e565b5092915050565b6113b8612f5d565b6001600160a01b0316336001600160a01b0316146113e85760405162461bcd60e51b8152600401610b6a90614fcf565b610de381612db2565b3341146114105760405162461bcd60e51b8152600401610b6a90615117565b3433600061141d82611ae5565b801561142f575061142d82612fc5565b155b8015611449575061144782611442610d0f565b612f8b565b155b606d54604051630634f5b960e01b8152821515600482015260016024820181905292935060009182916001600160a01b0390911690630634f5b9906044016060604051808303816000875af11580156114a6573d6000803e3d6000fd5b505050506040513d601f19601f820116820180604052508101906114ca919061517d565b92509250508060e260008282546114e19190614fbc565b90915550849050611551578560e460008282546114fe9190614fbc565b92505081905550846001600160a01b03167f4042bb9a70998f80a86d9963f0d2132e9b11c8ad94d207c6141c8e34b05ce53e8760016040516115419291906151c8565b60405180910390a2505050505050565b60408051878152602081018490526001600160a01b038716917f0ede5c3be8625943fa64003cd4b91230089411249f3059bac6500873543ca9b1910160405180910390a2600061159f610d0f565b905060006115ad8489614fbc565b6001600160a01b03881660009081526038602090815260408083208684529091528120549192509060ff16156116ca576070546040805163631c8fd160e11b815290516000926001600160a01b03169163c6391fa29160048083019260809291908290030181865afa158015611627573d6000803e3d6000fd5b505050506040513d601f19601f8201168201806040525081019061164b91906151fa565b9350505050612710818461165f9190615230565b611669919061525d565b91508160e4600082825461167d9190614fbc565b92505081905550886001600160a01b03167f4042bb9a70998f80a86d9963f0d2132e9b11c8ad94d207c6141c8e34b05ce53e8360026040516116c09291906151c8565b60405180910390a2505b6116d48183614fa9565b6001600160a01b0389166000908152607560205260408120600401549193506127106117008584615230565b61170a919061525d565b6001600160a01b038b16600090815260e06020526040812080549293508392909190611737908490614fbc565b90915550600090506117498286614fa9565b6001600160a01b038c16600090815260e16020526040812080549293508392909190611776908490614fbc565b9091555050505050505050505050505050565b6073546060906001600160401b038111156117a6576117a6615080565b60405190808252806020026020018201604052801561180d57816020015b6040805160e08101825260008082526020808301829052928201819052606082018190526080820181905260a0820181905260c082015282526000199092019101816117c45790505b50905060005b81518110156118e357607560006073838154811061183357611833615096565b60009182526020808320909101546001600160a01b039081168452838201949094526040928301909120825160e081018452815485168152600182015485169281019290925260028101548416928201929092526003820154909216606083015260048101546080830152600581015460a08301526006015460c082015282518390839081106118c5576118c5615096565b602002602001018190525080806118db906150ac565b915050611813565b5090565b336118fa6070546001600160a01b031690565b6001600160a01b0316146119205760405162461bcd60e51b8152600401610b6a90615011565b600061192a610d0f565b6001600160a01b03851660008181526037602090815260408083208584528252808320805460ff1916600117905592825260e181528282205460e09091529190205491925061197891614fbc565b60e460008282546119899190614fbc565b90915550506001600160a01b038416600090815260e06020908152604080832083905560e18252808320839055603a9091529020548311156119e1576001600160a01b0384166000908152603a602052604090208390555b8115611a7a5760715460405163c905bb3560e01b81526001600160a01b03868116600483015260248201859052600092169063c905bb35906044016020604051808303816000875af1158015611a3b573d6000803e3d6000fd5b505050506040513d601f19601f82011682018060405250810190611a5f9190615271565b90508060e46000828254611a739190614fbc565b9091555050505b6001600160a01b0384166000818152603a6020908152604080832054815190815291820186905260019082015260608101919091528291907f54ce99c5ce1fc9f61656d4a0fb2697974d0c973ac32eecaefe06fcf18b8ef68a9060800160405180910390a350505050565b6001600160a01b038116600090815260ac6020526040812054610d099060019060ff166003811115611b1957611b196151b2565b90612fe6565b33611b326071546001600160a01b031690565b6001600160a01b031614611b585760405162461bcd60e51b8152600401610b6a9061528a565b6001600160a01b038216600090815260746020526040902054611b8d5760405162461bcd60e51b8152600401610b6a906150c5565b6001600160a01b0382166000908152607560205260409020600581015415611c0a5760405162461bcd60e51b815260206004820152602a60248201527f43616e6469646174654d616e616765723a20616c726561647920726571756573604482015269746564206265666f726560b01b6064820152608401610b6a565b6000611c168342614fbc565b600583018190556040518181529091506001600160a01b038516907fb9a1e33376bfbda9092f2d1e37662c1b435aab0d3fa8da3acc8f37ee222f99e7906020015b60405180910390a250505050565b334114611c845760405162461bcd60e51b8152600401610b6a90615117565b611c8d43612271565b611cf55760405162461bcd60e51b815260206004820152603360248201527f526f6e696e56616c696461746f725365743a206f6e6c7920616c6c6f776564206044820152720c2e840e8d0ca40cadcc840decc40cae0dec6d606b1b6064820152608401610b6a565b611cfe43612554565b611d09600254612554565b10611d745760405162461bcd60e51b815260206004820152603560248201527f526f6e696e56616c696461746f725365743a20717565727920666f7220616c726044820152740cac2c8f240eee4c2e0e0cac840eae040cae0dec6d605b1b6064820152608401610b6a565b436002556000611d8342612fb6565b90506000611d92826003541090565b9050611d9f436001614fbc565b6004556000611dac612734565b90506000611db943612554565b90506000611dc5610d0f565b90508315611e6e57611dd78184613019565b600080611de48386613266565b91509150611df4838684846134a3565b611dfc6135a6565b607054604051631da0214360e21b81526001600160a01b0390911690637680850c90611e2e90889087906004016152e7565b600060405180830381600087803b158015611e4857600080fd5b505af1158015611e5c573d6000803e3d6000fd5b50505050611e69876136ed565b945050505b611e7885846138b0565b81817f0195462033384fec211477c56217da64a58bd405e0bed331ba4ded67e4ae4ce786604051611ead911515815260200190565b60405180910390a350505060039190915550565b33611ed46071546001600160a01b031690565b6001600160a01b031614611efa5760405162461bcd60e51b8152600401610b6a9061528a565b6073546072548110611f6d5760405162461bcd60e51b815260206004820152603660248201527f43616e6469646174654d616e616765723a2065786365656473206d6178696d756044820152756d206e756d626572206f662063616e6469646174657360501b6064820152608401610b6a565b6001600160a01b03851660009081526074602052604090205415611ff25760405162461bcd60e51b815260206004820152603660248201527f43616e6469646174654d616e616765723a20717565727920666f7220616c7265604482015275616479206578697374656e742063616e64696461746560501b6064820152608401610b6a565b6127108211156120555760405162461bcd60e51b815260206004820152602860248201527f43616e6469646174654d616e616765723a20696e76616c696420636f6d697373604482015267696f6e207261746560c01b6064820152608401610b6a565b60005b607354811015612188576000607560006073848154811061207b5761207b615096565b60009182526020808320909101546001600160a01b039081168452908301939093526040909101902080549092508116908916036120fd576120c7886001600160a01b03166014613af4565b6040516020016120d7919061532d565b60408051601f198184030181529082905262461bcd60e51b8252610b6a916004016153a0565b60028101546001600160a01b039081169087160361213957612129866001600160a01b03166014613af4565b6040516020016120d791906153d3565b60038101546001600160a01b039081169086160361217557612165856001600160a01b03166014613af4565b6040516020016120d7919061543f565b5080612180816150ac565b915050612058565b506001600160a01b038581166000818152607460209081526040808320861990556073805460018082019092557ff79bde9ddd17963ebce6f7d021d60de7c2bd0db944d23c900c0c0e775f5300520180546001600160a01b031990811687179091556075845293829020805485168d88169081178255918101805486168717905560028101805486168c8916908117909155600382018054909616978b1697881790955560048101899055915195865290949093917fd690f592ed983cfbc05717fbcf06c4e10ae328432c309fe49246cf4a4be69fcd910160405180910390a450505050505050565b6000600180546122819190614fa9565b60015461228e908461548a565b1492915050565b61229d612f5d565b6001600160a01b0316336001600160a01b0316146122cd5760405162461bcd60e51b8152600401610b6a90614fcf565b610de381612d7d565b60008060006122e58443610d1f565b9250925092509193909250565b606060aa546001600160401b0381111561230e5761230e615080565b604051908082528060200260200182016040528015612337578160200160208202803683370190505b50905060005b81518110156118e357600081815260ab6020526040902054612367906001600160a01b0316613c8f565b82828151811061237957612379615096565b6001600160a01b03909216602092830291909101909101528061239b816150ac565b91505061233d565b6123ab612f5d565b6001600160a01b0316336001600160a01b0316146123db5760405162461bcd60e51b8152600401610b6a90614fcf565b6000816001600160a01b03163b1161244c5760405162461bcd60e51b815260206004820152602e60248201527f486173427269646765547261636b696e67436f6e74726163743a20736574207460448201526d1bc81b9bdb8b58dbdb9d1c9858dd60921b6064820152608401610b6a565b610de381612ce1565b61245d612f5d565b6001600160a01b0316336001600160a01b03161461248d5760405162461bcd60e51b8152600401610b6a90614fcf565b6000816001600160a01b03163b116124f75760405162461bcd60e51b815260206004820152602760248201527f4861735374616b696e67436f6e74726163743a2073657420746f206e6f6e2d636044820152661bdb9d1c9858dd60ca1b6064820152608401610b6a565b610de381612bf7565b6000805b60aa548110156118e357600081815260ab602052604090205461252f906001600160a01b0316611ae5565b15612542578161253e816150ac565b9250505b8061254c816150ac565b915050612504565b6000610d0982613c9a565b612567612f5d565b6001600160a01b0316336001600160a01b0316146125975760405162461bcd60e51b8152600401610b6a90614fcf565b6000816001600160a01b03163b116126085760405162461bcd60e51b815260206004820152602e60248201527f4861735374616b696e6756657374696e67436f6e74726163743a20736574207460448201526d1bc81b9bdb8b58dbdb9d1c9858dd60921b6064820152608401610b6a565b610de381612c45565b6000805b60aa5481101561266d57600081815260ab60205260409020546001600160a01b03808516916126449116613c8f565b6001600160a01b03160361265b576001915061266d565b80612665816150ac565b915050612615565b50919050565b61267b612f5d565b6001600160a01b0316336001600160a01b0316146126ab5760405162461bcd60e51b8152600401610b6a90614fcf565b6000816001600160a01b03163b1161272b5760405162461bcd60e51b815260206004820152603860248201527f486173526f6e696e547275737465644f7267616e697a6174696f6e436f6e747260448201527f6163743a2073657420746f206e6f6e2d636f6e747261637400000000000000006064820152608401610b6a565b610de381612d2f565b606060aa546001600160401b0381111561275057612750615080565b604051908082528060200260200182016040528015612779578160200160208202803683370190505b50905060005b81518110156118e357600081815260ab602052604090205482516001600160a01b03909116908390839081106127b7576127b7615096565b6001600160a01b0390921660209283029190910190910152806127d9816150ac565b91505061277f565b6060607380548060200260200160405190810160405280929190818152602001828054801561283957602002820191906000526020600020905b81546001600160a01b0316815260019091019060200180831161281b575b5050505050905090565b61284b612f5d565b6001600160a01b0316336001600160a01b03161461287b5760405162461bcd60e51b8152600401610b6a90614fcf565b610de381612de7565b336128976071546001600160a01b031690565b6001600160a01b0316146128bd5760405162461bcd60e51b8152600401610b6a9061528a565b6001600160a01b0383166000908152607760205260409020541561293f5760405162461bcd60e51b815260206004820152603360248201527f43616e6469646174654d616e616765723a20636f6d6d697373696f6e206368616044820152726e6765207363686564756c652065786973747360681b6064820152608401610b6a565b6127108111156129a35760405162461bcd60e51b815260206004820152602960248201527f43616e6469646174654d616e616765723a20696e76616c696420636f6d6d697360448201526873696f6e207261746560b81b6064820152608401610b6a565b607654821015612a065760405162461bcd60e51b815260206004820152602860248201527f43616e6469646174654d616e616765723a20696e76616c696420656666656374604482015267697665206461746560c01b6064820152608401610b6a565b6001600160a01b03831660009081526077602052604081209083612a2d620151804261525d565b612a379190614fbc565b612a449062015180615230565b8083556001830184905560408051828152602081018690529192506001600160a01b038716917f6ebafd1bb6316b2f63198a81b05cff2149c6eaae1784466a6d062b4391900f21910160405180910390a25050505050565b6060816001600160401b03811115612ab657612ab6615080565b604051908082528060200260200182016040528015612adf578160200160208202803683370190505b5090506000612aec610d0f565b905060005b83811015612b5d57612b29858583818110612b0e57612b0e615096565b9050602002016020810190612b239190614da1565b83612f8b565b838281518110612b3b57612b3b615096565b9115156020928302919091019091015280612b55816150ac565b915050612af1565b505092915050565b6001600160a01b038116600090815260ac6020526040812054612b9b9060ff166003811115612b9657612b966151b2565b613cb5565b1592915050565b607080546001600160a01b0319166001600160a01b0383169081179091556040519081527faa5b07dd43aa44c69b70a6a2b9c3fcfed12b6e5f6323596ba7ac91035ab80a4f906020015b60405180910390a150565b607180546001600160a01b0319166001600160a01b0383169081179091556040519081527f6397f5b135542bb3f477cb346cfab5abdec1251d08dc8f8d4efb4ffe122ea0bf90602001612bec565b606d80546001600160a01b0319166001600160a01b0383169081179091556040519081527fc328090a37d855191ab58469296f98f87a851ca57d5cdfd1e9ac3c83e9e7096d90602001612bec565b606f80546001600160a01b0319166001600160a01b0383169081179091556040519081527f31a33f126a5bae3c5bdf6cfc2cd6dcfffe2fe9634bdb09e21c44762993889e3b90602001612bec565b606e80546001600160a01b0319166001600160a01b0383169081179091556040519081527f034c8da497df28467c79ddadbba1cc3cdd41f510ea73faae271e6f16a611162190602001612bec565b60a880546001600160a01b0319166001600160a01b0383169081179091556040519081527ffd6f5f93d69a07c593a09be0b208bff13ab4ffd6017df3b33433d63bdc59b4d790602001612bec565b60a98190556040518181527fb5464c05fd0e0f000c535850116cda2742ee1f7b34384cb920ad7b8e802138b590602001612bec565b60728190556040518181527f82d5dc32d1b741512ad09c32404d7e7921e8934c6222343d95f55f7a2b9b2ab490602001612bec565b60a954811115612e855760405162461bcd60e51b815260206004820152605960248201527f526f6e696e56616c696461746f725365743a2063616e6e6f7420736574206e7560448201527f6d626572206f66207072696f726974697a65642067726561746572207468616e60648201527f206e756d626572206f66206d61782076616c696461746f727300000000000000608482015260a401610b6a565b60ad8190556040518181527fa9588dc77416849bd922605ce4fc806712281ad8a8f32d4238d6c8cca548e15e90602001612bec565b6001811015612f285760405162461bcd60e51b815260206004820152603460248201527f43616e6469646174654d616e616765723a20696e76616c6964206d696e206566604482015273666563746976652064617973206f6e776172647360601b6064820152608401610b6a565b60768190556040518181527f266d432ffe659e3565750d26ec685b822a58041eee724b67a5afec3168a2526790602001612bec565b7fb53127684a568b3173ae13b9f8a6016e243e63b6e8ee1178d6a717850b5d6103546001600160a01b031690565b6001600160a01b03919091166000908152603760209081526040808320938352929052205460ff1690565b6000610d09620151808361525d565b6001600160a01b0381166000908152603a6020526040812054431115610d09565b6000816003811115612ffa57612ffa6151b2565b83600381111561300c5761300c6151b2565b1660ff1615159392505050565b606e5460405163889998ef60e01b8152600481018490526001600160a01b0390911690600090829063889998ef90602401602060405180830381865afa158015613067573d6000803e3d6000fd5b505050506040513d601f19601f8201168201806040525081019061308b9190615271565b60405163033cdc2b60e31b8152600481018690529091506000906001600160a01b038416906319e6e15890602401602060405180830381865afa1580156130d6573d6000803e3d6000fd5b505050506040513d601f19601f820116820180604052508101906130fa9190615271565b90506000836001600160a01b031663f67e815287876040518363ffffffff1660e01b815260040161312c92919061549e565b600060405180830381865afa158015613149573d6000803e3d6000fd5b505050506040513d6000823e601f3d908101601f191682016040526131719190810190615512565b9050600080600080607060009054906101000a90046001600160a01b03166001600160a01b0316631079402a6040518163ffffffff1660e01b8152600401608060405180830381865afa1580156131cc573d6000803e3d6000fd5b505050506040513d601f19601f820116820180604052508101906131f091906151fa565b935093509350935060005b8951811015613259576132478b8b838151811061321a5761321a615096565b602002602001015188848151811061323457613234615096565b60200260200101518a8c8a8a8a8a613cd3565b80613251816150ac565b9150506131fb565b5050505050505050505050565b6000606060008084516001600160401b0381111561328657613286615080565b6040519080825280602002602001820160405280156132af578160200160208202803683370190505b50925060005b8551811015613493578581815181106132d0576132d0615096565b6020908102919091018101516001600160a01b03808216600090815260758452604080822060020154603986528183208d845290955290205491955091909116925060ff16613348576001600160a01b038084166000908152607560205260409020600301546133439185911684613fc9565b61337a565b6001600160a01b038316600090815260e3602052604081205460e4805491929091613374908490614fbc565b90915550505b61338383612fc5565b15801561339757506133958388612f8b565b155b1561340b576001600160a01b038316600090815260e160205260409020546133bf9086614fbc565b6001600160a01b038416600090815260e160205260409020548551919650908590839081106133f0576133f0615096565b60200260200101818152505061340683836140ac565b613451565b6001600160a01b038316600090815260e1602090815260408083205460e09092529091205461343a9190614fbc565b60e4600082825461344b9190614fbc565b90915550505b6001600160a01b038316600090815260e16020908152604080832083905560e0825280832083905560e39091528120558061348b816150ac565b9150506132b5565b5060e26000905550509250929050565b6071546001600160a01b0316821561359e576134bf8184614171565b1561356557604051633b8cb16b60e01b81526001600160a01b03821690633b8cb16b906134f490879086908a906004016155d7565b600060405180830381600087803b15801561350e57600080fd5b505af1158015613522573d6000803e3d6000fd5b505050507feb09b8cc1cefa77cd4ec30003e6364cf60afcedd20be8c09f26e717788baf1398360405161355791815260200190565b60405180910390a1506135a0565b604080518481524760208201527f0752cb1e4b6fb7b2beb1cf423d908acaec7acfb7782e67a88d158351b1c0c4a5910160405180910390a15b505b50505050565b60e4548015610de35760006135c3606d546001600160a01b031690565b600060e481905560408051600481526024810182526020810180516001600160e01b03166359f778df60e01b179052905192935090916001600160a01b038416918591613610919061560d565b60006040518083038185875af1925050503d806000811461364d576040519150601f19603f3d011682016040523d82523d6000602084013e613652565b606091505b5050905080156136a457816001600160a01b03167fc447c884574da5878be39c403db2245c22530c99b579ea7bcbb3720e1d110dc88460405161369791815260200190565b60405180910390a2505050565b604080518481524760208201526001600160a01b038416917fa0561a59abed308fcd0556834574739d778cc6229018039a24ddda0f86aa0b73910160405180910390a25b505050565b60606136f76141cd565b6071546040516391f8723f60e01b81526000916001600160a01b0316906391f8723f9061372990607390600401615667565b600060405180830381865afa158015613746573d6000803e3d6000fd5b505050506040513d6000823e601f3d908101601f1916820160405261376e9190810190615512565b60a854604051632907e73160e11b81529192506000916001600160a01b039091169063520fce62906137a590607390600401615667565b600060405180830381865afa1580156137c2573d6000803e3d6000fd5b505050506040513d6000823e601f3d908101601f191682016040526137ea9190810190615512565b90506000613859607380548060200260200160405190810160405280929190818152602001828054801561384757602002820191906000526020600020905b81546001600160a01b03168152600190910190602001808311613829575b5050505050848460a95460ad546146ba565b90945090506138698482876147d9565b847f8d7d519e81c2b8dc67b44fd645fd2c8805110d9ab1d643e3dd68b622bde331ff6138936122f2565b6040516138a09190614e64565b60405180910390a2505050919050565b606f546000906001600160a01b031663fdadda8160736138d1436001614fbc565b6040518363ffffffff1660e01b81526004016138ee92919061567a565b600060405180830381865afa15801561390b573d6000803e3d6000fd5b505050506040513d6000823e601f3d908101601f19168201604052613933919081019061568d565b905060005b8251811015613abc57600083828151811061395557613955615096565b60200260200101519050600061396a82611ae5565b9050600061397783612fc5565b80613998575084848151811061398f5761398f615096565b60200260200101515b159050811580156139a65750805b15613a24576001600160a01b038316600090815260ac60205260409020546139e59060019060ff1660038111156139df576139df6151b2565b90614951565b6001600160a01b038416600090815260ac60205260409020805460ff19166001836003811115613a1757613a176151b2565b0217905550505050613aaa565b818015613a2f575080155b15613aa6576001600160a01b038316600090815260ac6020526040902054613a6e9060019060ff166003811115613a6857613a686151b2565b9061498c565b6001600160a01b038416600090815260ac60205260409020805460ff19166001836003811115613aa057613aa06151b2565b02179055505b5050505b80613ab4816150ac565b915050613938565b50827f60324bb9c8b0d077621d76762c52d6cc937043427992a2f6a602b449315922ef613ae761120c565b6040516136979190614e64565b60606000613b03836002615230565b613b0e906002614fbc565b6001600160401b03811115613b2557613b25615080565b6040519080825280601f01601f191660200182016040528015613b4f576020820181803683370190505b509050600360fc1b81600081518110613b6a57613b6a615096565b60200101906001600160f81b031916908160001a905350600f60fb1b81600181518110613b9957613b99615096565b60200101906001600160f81b031916908160001a9053506000613bbd846002615230565b613bc8906001614fbc565b90505b6001811115613c40576f181899199a1a9b1b9c1cb0b131b232b360811b85600f1660108110613bfc57613bfc615096565b1a60f81b828281518110613c1257613c12615096565b60200101906001600160f81b031916908160001a90535060049490941c93613c3981615719565b9050613bcb565b508315610fb95760405162461bcd60e51b815260206004820181905260248201527f537472696e67733a20686578206c656e67746820696e73756666696369656e746044820152606401610b6a565b6000610d09826149c8565b600060015482613caa919061525d565b610d09906001614fbc565b6000816003811115613cc957613cc96151b2565b60ff161592915050565b8415808015613ce0575086155b15613d145760aa5460e254613cf5919061525d565b6001600160a01b038a16600090815260e3602052604090205550613fbe565b8015613d205750613fbe565b818711613d4057858860e254613d369190615230565b613cf5919061525d565b600087613d4f6127108b615230565b613d59919061525d565b90506000613d6982612710614fa9565b905085811115613eaa576001603960008d6001600160a01b03166001600160a01b0316815260200190815260200160002060008e815260200190815260200160002060006101000a81548160ff0219169083151502179055506001603760008d6001600160a01b03166001600160a01b0316815260200190815260200160002060008e815260200190815260200160002060006101000a81548160ff021916908315150217905550613e3e8543613e209190614fbc565b6001600160a01b038d166000908152603a60205260409020546149ed565b6001600160a01b038c166000818152603a60209081526040808320859055805194855290840191909152600190830181905260608301528d917f54ce99c5ce1fc9f61656d4a0fb2697974d0c973ac32eecaefe06fcf18b8ef68a906080015b60405180910390a3610cda565b86811115613f82576001603960008d6001600160a01b03166001600160a01b0316815260200190815260200160002060008e815260200190815260200160002060006101000a81548160ff0219169083151502179055508b8b6001600160a01b03167f54ce99c5ce1fc9f61656d4a0fb2697974d0c973ac32eecaefe06fcf18b8ef68a603a60008f6001600160a01b03166001600160a01b03168152602001908152602001600020546000806001604051613e9d94939291909384526020840192909252151560408301521515606082015260800190565b8715610cda57878a60e254613f979190615230565b613fa1919061525d565b6001600160a01b038c16600090815260e360205260409020555050505b505050505050505050565b6001600160a01b038316600090815260e3602052604090205480156135a057613ff28282614171565b1561405457816001600160a01b0316836001600160a01b0316856001600160a01b03167f72a57dc38837a1cba7881b7b1a5594d9e6b65cec6a985b54e2cee3e89369691c8460405161404691815260200190565b60405180910390a450505050565b816001600160a01b0316836001600160a01b0316856001600160a01b03167fd35d76d87d51ed89407fc7ceaaccf32cf72784b94530892ce33546540e141b728447604051614046929190918252602082015260400190565b6001600160a01b038216600090815260e0602052604090205480156136e8576140d58282614171565b1561412c57816001600160a01b0316836001600160a01b03167f1ce7a1c4702402cd393500acb1de5bd927727a54e144a587d328f1b679abe4ec8360405161411f91815260200190565b60405180910390a3505050565b604080518281524760208201526001600160a01b0380851692908616917f6c69e09ee5c5ac33c0cd57787261c5bade070a392ab34a4b5487c6868f723f6e910161411f565b6000826001600160a01b03168260405160006040518083038185875af1925050503d80600081146141be576040519150601f19603f3d011682016040523d82523d6000602084013e6141c3565b606091505b5090949350505050565b6071546040805163af24542960e01b815290516001600160a01b0390921691600091839163af245429916004808201926020929091908290030181865afa15801561421c573d6000803e3d6000fd5b505050506040513d601f19601f820116820180604052508101906142409190615271565b90506000826001600160a01b031663909791dd6040518163ffffffff1660e01b8152600401602060405180830381865afa158015614282573d6000803e3d6000fd5b505050506040513d601f19601f820116820180604052508101906142a69190615271565b90506000836001600160a01b03166342ef3c3460736040518263ffffffff1660e01b81526004016142d79190615667565b600060405180830381865afa1580156142f4573d6000803e3d6000fd5b505050506040513d6000823e601f3d908101601f1916820160405261431c9190810190615512565b607354909150600080826001600160401b0381111561433d5761433d615080565b604051908082528060200260200182016040528015614366578160200160208202803683370190505b50905060008060005b85831015614613576073838154811061438a5761438a615096565b60009182526020808320909101546001600160a01b0316808352607590915260409091206006810154895192945090925015159089908990869081106143d2576143d2615096565b60200260200101511015614440578061443b5760006143f18b42614fbc565b600684018190556040518181529091506001600160a01b038516907f88f854e137380c14d63f6ed99781bf13402167cf55bac49bcd44d4f2d6a342759060200160405180910390a2505b614493565b8015614493578160060160009055826001600160a01b03167f88f854e137380c14d63f6ed99781bf13402167cf55bac49bcd44d4f2d6a34275600060405161448a91815260200190565b60405180910390a25b600082600501546000141580156144ae575042836005015411155b9050600083600601546000141580156144cb575042846006015411155b905081806144d65750805b1561456c57896144e58a615719565b995089815181106144f8576144f8615096565b60200260200101518a878151811061451257614512615096565b6020908102919091010152848789614529816150ac565b9a508151811061453b5761453b615096565b60200260200101906001600160a01b031690816001600160a01b03168152505061456485614a04565b50505061436f565b6001600160a01b03851660009081526077602052604090205480158015906145945750428111155b156145fd576001600160a01b0386166000818152607760209081526040808320600181018054918590559390935560048901839055518281529192917f86d576c20e383fc2413ef692209cc48ddad5e52f25db5b32f8f7ec5076461ae9910160405180910390a2505b86614607816150ac565b9750505050505061436f565b5050821590506146b1578181527f4eaf233b9dc25a5552c1927feee1412eea69add17c2485c831c2e60e234f3c918160405161464f9190614e64565b60405180910390a16040516374d62f0360e11b81526001600160a01b0388169063e9ac5e0690614683908490600401614e64565b600060405180830381600087803b15801561469d57600080fd5b505af1158015613259573d6000803e3d6000fd5b50505050505050565b606060008060689050600088888888886040516024016146de959493929190615730565b60408051601f19818403018152919052602080820180516001600160e01b0316633bca0a8960e11b17905281518b51929350600192909160009161472191615230565b61472c906040614fbc565b90506020840181888483895afa61474257600093505b503d61474d57600092505b602087019650826147c65760405162461bcd60e51b815260206004820152603960248201527f507265636f6d70696c6555736167655069636b56616c696461746f725365743a60448201527f2063616c6c20746f20707265636f6d70696c65206661696c73000000000000006064820152608401610b6a565b8651955050505050509550959350505050565b815b60aa5481101561483757600081815260ab6020818152604080842080546001600160a01b0316855260ac8352908420805460ff19169055928490525280546001600160a01b03191690558061482f816150ac565b9150506147db565b506000805b8381101561491957600085828151811061485857614858615096565b602090810291909101810151600085815260ab9092526040909120549091506001600160a01b039081169082160361489d5782614894816150ac565b93505050614907565b600083815260ab6020818152604080842080546001600160a01b03908116865260ac8452828620805460ff19908116909155908716808752928620805490911660031790559387905291905281546001600160a01b03191617905582614902816150ac565b935050505b80614911816150ac565b91505061483c565b508060aa81905550817f3d0eea40644a206ec25781dd5bb3b60eb4fa1264b993c3bddf3c73b14f29ef5e85604051611c579190614e64565b6000816003811115614965576149656151b2565b836003811115614977576149776151b2565b1760ff166003811115610fb957610fb96151b2565b60008160038111156149a0576149a06151b2565b198360038111156149b3576149b36151b2565b1660ff166003811115610fb957610fb96151b2565b6001600160a01b03808216600090815260756020526040812060030154909116610d09565b6000818310156149fd5781610fb9565b5090919050565b6001600160a01b03811660009081526074602052604081205490819003614a29575050565b6001600160a01b038216600090815260756020908152604080832080546001600160a01b031990811682556001808301805483169055600283018054831690556003830180549092169091556004820185905560058201859055600690910184905560748352818420849055607790925282208281558101829055607380549091614ab391614fa9565b81548110614ac357614ac3615096565b6000918252602090912001546001600160a01b03908116915083168114614b46576001600160a01b0381166000908152607460205260409020829055607380548291908419908110614b1757614b17615096565b9060005260206000200160006101000a8154816001600160a01b0302191690836001600160a01b031602179055505b6073805480614b5757614b5761577e565b600082815260209020810160001990810180546001600160a01b0319169055019055505050565b6001600160a01b0381168114610de357600080fd5b60008060008060008060008060008060006101608c8e031215614bb557600080fd5b8b35614bc081614b7e565b9a5060208c0135614bd081614b7e565b995060408c0135614be081614b7e565b985060608c0135614bf081614b7e565b975060808c0135614c0081614b7e565b965060a08c0135614c1081614b7e565b9a9d999c50979a9699959895975050505060c08401359360e081013593610100820135935061012082013592506101409091013590565b60008060408385031215614c5a57600080fd5b8235614c6581614b7e565b91506020830135614c7581614b7e565b809150509250929050565b60008060408385031215614c9357600080fd5b8235614c9e81614b7e565b946020939093013593505050565b600060208284031215614cbe57600080fd5b5035919050565b60008083601f840112614cd757600080fd5b5081356001600160401b03811115614cee57600080fd5b6020830191508360208260051b8501011115614d0957600080fd5b9250929050565b600080600060408486031215614d2557600080fd5b83356001600160401b03811115614d3b57600080fd5b614d4786828701614cc5565b909790965060209590950135949350505050565b6020808252825182820181905260009190848201906040850190845b81811015614d95578351151583529284019291840191600101614d77565b50909695505050505050565b600060208284031215614db357600080fd5b8135610fb981614b7e565b60018060a01b03808251168352806020830151166020840152806040830151166040840152806060830151166060840152506080810151608083015260a081015160a083015260c081015160c08301525050565b60e08101610d098284614dbe565b600081518084526020808501945080840160005b83811015614e595781516001600160a01b031687529582019590820190600101614e34565b509495945050505050565b602081526000610fb96020830184614e20565b60008060208385031215614e8a57600080fd5b82356001600160401b03811115614ea057600080fd5b614eac85828601614cc5565b90969095509350505050565b6020808252825182820181905260009190848201906040850190845b81811015614d9557614ee7838551614dbe565b9284019260e09290920191600101614ed4565b600080600060608486031215614f0f57600080fd5b8335614f1a81614b7e565b95602085013595506040909401359392505050565b600080600080600060a08688031215614f4757600080fd5b8535614f5281614b7e565b94506020860135614f6281614b7e565b93506040860135614f7281614b7e565b92506060860135614f8281614b7e565b949793965091946080013592915050565b634e487b7160e01b600052601160045260246000fd5b81810381811115610d0957610d09614f93565b80820180821115610d0957610d09614f93565b60208082526022908201527f48617350726f787941646d696e3a20756e617574686f72697a65642073656e6460408201526132b960f11b606082015260800190565b60208082526049908201527f486173536c617368496e64696361746f72436f6e74726163743a206d6574686f60408201527f642063616c6c6572206d75737420626520736c61736820696e64696361746f726060820152680818dbdb9d1c9858dd60ba1b608082015260a00190565b634e487b7160e01b600052604160045260246000fd5b634e487b7160e01b600052603260045260246000fd5b6000600182016150be576150be614f93565b5060010190565b60208082526032908201527f43616e6469646174654d616e616765723a20717565727920666f72206e6f6e2d6040820152716578697374656e742063616e64696461746560701b606082015260800190565b60208082526031908201527f526f6e696e56616c696461746f725365743a206d6574686f642063616c6c6572604082015270206d75737420626520636f696e6261736560781b606082015260800190565b8051801515811461517857600080fd5b919050565b60008060006060848603121561519257600080fd5b61519b84615168565b925060208401519150604084015190509250925092565b634e487b7160e01b600052602160045260246000fd5b82815260408101600383106151ed57634e487b7160e01b600052602160045260246000fd5b8260208301529392505050565b6000806000806080858703121561521057600080fd5b505082516020840151604085015160609095015191969095509092509050565b8082028115828204841417610d0957610d09614f93565b634e487b7160e01b600052601260045260246000fd5b60008261526c5761526c615247565b500490565b60006020828403121561528357600080fd5b5051919050565b6020808252603a908201527f4861735374616b696e67436f6e74726163743a206d6574686f642063616c6c6560408201527f72206d757374206265207374616b696e6720636f6e7472616374000000000000606082015260800190565b6040815260006152fa6040830185614e20565b90508260208301529392505050565b60005b8381101561532457818101518382015260200161530c565b50506000910152565b7f43616e6469646174654d616e616765723a2063616e6469646174652061646d698152690371030b2323932b9b9960b51b60208201526000825161537881602a850160208701615309565b70081a5cc8185b1c9958591e48195e1a5cdd607a1b602a939091019283015250603b01919050565b60208152600082518060208401526153bf816040850160208701615309565b601f01601f19169190910160400192915050565b7f43616e6469646174654d616e616765723a207472656173757279206164647265815262039b9960ed1b602082015260008251615417816023850160208701615309565b70081a5cc8185b1c9958591e48195e1a5cdd607a1b6023939091019283015250603401919050565b7f43616e6469646174654d616e616765723a20627269646765206f70657261746f8152690391030b2323932b9b9960b51b60208201526000825161537881602a850160208701615309565b60008261549957615499615247565b500690565b8281526040602082015260006154b76040830184614e20565b949350505050565b604051601f8201601f191681016001600160401b03811182821017156154e7576154e7615080565b604052919050565b60006001600160401b0382111561550857615508615080565b5060051b60200190565b6000602080838503121561552557600080fd5b82516001600160401b0381111561553b57600080fd5b8301601f8101851361554c57600080fd5b805161555f61555a826154ef565b6154bf565b81815260059190911b8201830190838101908783111561557e57600080fd5b928401925b8284101561559c57835182529284019290840190615583565b979650505050505050565b600081518084526020808501945080840160005b83811015614e59578151875295820195908201906001016155bb565b6060815260006155ea6060830186614e20565b82810360208401526155fc81866155a7565b915050826040830152949350505050565b6000825161561f818460208701615309565b9190910192915050565b6000815480845260208085019450836000528060002060005b83811015614e595781546001600160a01b031687529582019560019182019101615642565b602081526000610fb96020830184615629565b6040815260006152fa6040830185615629565b600060208083850312156156a057600080fd5b82516001600160401b038111156156b657600080fd5b8301601f810185136156c757600080fd5b80516156d561555a826154ef565b81815260059190911b820183019083810190878311156156f457600080fd5b928401925b8284101561559c5761570a84615168565b825292840192908401906156f9565b60008161572857615728614f93565b506000190190565b60a08152600061574360a0830188614e20565b828103602084015261575581886155a7565b9050828103604084015261576981876155a7565b60608401959095525050608001529392505050565b634e487b7160e01b600052603160045260246000fdfea2646970667358221220adb59a845d708dc587c864fe8adf9b32f1b95b5bf2929a4a2e0173f0c007e17c64736f6c63430008110033",
  "devdoc": {
    "kind": "dev",
    "methods": {
      "_isPeriodEnding(uint256)": {
        "details": "See `ITimingInfo-isPeriodEnding`"
      },
      "bridgeTrackingContract()": {
        "details": "Returns the bridge tracking contract."
      },
      "checkJailed(address)": {
        "details": "Returns whether the validator are put in jail (cannot join the set of validators) during the current period."
      },
      "checkJailedAtBlock(address,uint256)": {
        "details": "Returns whether the validator are put in jail (cannot join the set of validators) at a specific block."
      },
      "checkManyJailed(address[])": {
        "details": "Returns whether the validators are put in jail (cannot join the set of validators) during the current period."
      },
      "checkMiningRewardDeprecated(address[])": {
        "details": "Returns whether the incoming reward of the block producers are deprecated during the current period."
      },
      "checkMiningRewardDeprecatedAtPeriod(address[],uint256)": {
        "details": "Returns whether the incoming reward of the block producers are deprecated during a specific period."
      },
      "currentPeriod()": {
        "details": "Returns the period index from the current block."
      },
      "currentPeriodStartAtBlock()": {
        "details": "Returns the block number that the current period starts at."
      },
      "epochEndingAt(uint256)": {
        "details": "Returns whether the epoch ending is at the block number `_block`."
      },
      "epochOf(uint256)": {
        "details": "Returns the epoch index from the block number."
      },
      "execBailOut(address,uint256)": {
        "details": "Finalize the bailout request from slash indicator contract. Requirements: - The method caller is slash indicator contract. Emits the event `ValidatorUnjailed`."
      },
      "execRequestUpdateCommissionRate(address,uint256,uint256)": {
        "details": "Fallback function of `CandidateStaking-requestUpdateCommissionRate`. Requirements: - The method caller is the staking contract. - The `_effectiveTimestamp` must be the beginning of a UTC day, and at least from 7 days onwards - The `_rate` must be in range of [0_00; 100_00]. Emits the event `CommissionRateUpdateScheduled`."
      },
      "execSlash(address,uint256,uint256)": {
        "details": "Finalize the slash request from slash indicator contract. Requirements: - The method caller is slash indicator contract. Emits the event `ValidatorPunished`."
      },
      "getBlockProducers()": {
        "details": "Returns the current block producer list."
      },
      "getBridgeOperators()": {
        "details": "Returns the current bridge operator list."
      },
      "getCandidateInfo(address)": {
        "details": "Returns the info of a candidate."
      },
      "getCandidateInfos()": {
        "details": "Returns all candidate info."
      },
      "getJailedTimeLeft(address)": {
        "details": "Returns whether the validator are put in jail and the number of block and epoch that he still is in the jail."
      },
      "getJailedTimeLeftAtBlock(address,uint256)": {
        "details": "Returns whether the validator are put in jail at a specific block and the number of block and epoch that he still is in the jail."
      },
      "getLastUpdatedBlock()": {
        "details": "Returns the block that validator set was updated."
      },
      "getValidatorCandidates()": {
        "details": "Returns the validator candidate."
      },
      "getValidators()": {
        "details": "Returns the current validator list."
      },
      "grantValidatorCandidate(address,address,address,address,uint256)": {
        "details": "Grants a validator candidate. Requirements: - The method caller is staking contract. Emits the event `CandidateGranted`."
      },
      "initialize(address,address,address,address,address,address,uint256,uint256,uint256,uint256,uint256)": {
        "details": "Initializes the contract storage."
      },
      "isBlockProducer(address)": {
        "details": "Returns whether the address is block producer or not."
      },
      "isBridgeOperator(address)": {
        "details": "Returns whether the address is bridge operator or not."
      },
      "isCandidateAdmin(address,address)": {
        "details": "Returns whether the address is the candidate admin."
      },
      "isPeriodEnding()": {
        "details": "Returns whether the period ending at the current block number."
      },
      "isValidator(address)": {
        "details": "Returns whether the address is either a bridge operator or a block producer."
      },
      "isValidatorCandidate(address)": {
        "details": "Returns whether the address is a validator (candidate)."
      },
      "maintenanceContract()": {
        "details": "Returns the maintenance contract."
      },
      "maxPrioritizedValidatorNumber()": {
        "details": "Returns the number of reserved slots for prioritized validators"
      },
      "maxValidatorCandidate()": {
        "details": "Returns the maximum number of validator candidate."
      },
      "maxValidatorNumber()": {
        "details": "Returns the maximum number of validators in the epoch"
      },
      "minEffectiveDaysOnwards()": {
        "details": "Returns the minimum number of days to the effective date of commission rate change."
      },
      "numberOfBlocksInEpoch()": {
        "details": "Returns the number of blocks in a epoch."
      },
      "precompilePickValidatorSetAddress()": {
        "details": "Gets the address of the precompile of picking validator set"
      },
      "precompileSortValidatorsAddress()": {
        "details": "Gets the address of the precompile of sorting validators"
      },
      "requestRevokeCandidate(address,uint256)": {
        "details": "Requests to revoke a validator candidate in next `_secsLeft` seconds. Requirements: - The method caller is staking contract. Emits the event `CandidateRevokingTimestampUpdated`."
      },
      "roninTrustedOrganizationContract()": {
        "details": "Returns the ronin trusted organization contract."
      },
      "setBridgeTrackingContract(address)": {
        "details": "Sets the bridge tracking contract. Requirements: - The method caller is admin. - The new address is a contract. Emits the event `BridgeTrackingContractUpdated`."
      },
      "setMaintenanceContract(address)": {
        "details": "Sets the maintenance contract. Requirements: - The method caller is admin. - The new address is a contract. Emits the event `MaintenanceContractUpdated`."
      },
      "setMaxPrioritizedValidatorNumber(uint256)": {
        "details": "Updates the number of reserved slots for prioritized validators Requirements: - The method caller is admin Emits the event `MaxPrioritizedValidatorNumberUpdated`"
      },
      "setMaxValidatorCandidate(uint256)": {
        "details": "Sets the maximum number of validator candidate. Requirements: - The method caller is admin. Emits the `MaxValidatorCandidateUpdated` event."
      },
      "setMaxValidatorNumber(uint256)": {
        "details": "Updates the max validator number Requirements: - The method caller is admin Emits the event `MaxValidatorNumberUpdated`"
      },
      "setMinEffectiveDaysOnwards(uint256)": {
        "details": "Sets the minimum number of days to the effective date of commision rate change. Requirements: - The method caller is admin. Emits the `MinEffectiveDaysOnwardsUpdated` event."
      },
      "setRoninTrustedOrganizationContract(address)": {
        "details": "Sets the ronin trusted organization contract. Requirements: - The method caller is admin. - The new address is a contract. Emits the event `RoninTrustedOrganizationContractUpdated`."
      },
      "setSlashIndicatorContract(address)": {
        "details": "Sets the slash indicator contract. Requirements: - The method caller is admin. - The new address is a contract. Emits the event `SlashIndicatorContractUpdated`."
      },
      "setStakingContract(address)": {
        "details": "Sets the staking contract. Requirements: - The method caller is admin. - The new address is a contract. Emits the event `StakingContractUpdated`."
      },
      "setStakingVestingContract(address)": {
        "details": "Sets the staking vesting contract. Requirements: - The method caller is admin. - The new address is a contract. Emits the event `StakingVestingContractUpdated`."
      },
      "slashIndicatorContract()": {
        "details": "Returns the slash indicator contract."
      },
      "stakingContract()": {
        "details": "Returns the staking contract."
      },
      "stakingVestingContract()": {
        "details": "Returns the staking vesting contract."
      },
      "submitBlockReward()": {
        "details": "Submits reward of the current block. Requirements: - The method caller is coinbase. Emits the event `MiningRewardDeprecated` if the coinbase is slashed or no longer be a block producer. Emits the event `BlockRewardSubmitted` for the valid call."
      },
      "totalBlockProducers()": {
        "details": "Returns total numbers of the block producers."
      },
      "totalBridgeOperators()": {
        "details": "Returns total numbers of the bridge operators."
      },
      "totalDeprecatedReward()": {
        "details": "Returns the total deprecated reward, which includes reward that is not sent for slashed validators and unsastified bridge operators"
      },
      "wrapUpEpoch()": {
        "details": "Wraps up the current epoch. Requirements: - The method must be called when the current epoch is ending. - The epoch is not wrapped yet. - The method caller is coinbase. Emits the event `MiningRewardDistributed` when some validator has reward distributed. Emits the event `StakingRewardDistributed` when some staking pool has reward distributed. Emits the event `BlockProducerSetUpdated` when the epoch is wrapped up. Emits the event `BridgeOperatorSetUpdated` when the epoch is wrapped up at period ending. Emits the event `ValidatorSetUpdated` when the epoch is wrapped up at period ending, and the validator set gets updated. Emits the event `WrappedUpEpoch`."
      }
    },
    "version": 1
  },
  "userdoc": {
    "kind": "user",
    "methods": {
      "totalBridgeOperators()": {
        "notice": "Notice: A validator is always a bride operator"
      }
    },
    "version": 1
  },
  "storageLayout": {
    "storage": [
      {
        "astId": 1373,
        "contract": "contracts/ronin/validator/RoninValidatorSet.sol:RoninValidatorSet",
        "label": "_initialized",
        "offset": 0,
        "slot": "0",
        "type": "t_uint8"
      },
      {
        "astId": 1376,
        "contract": "contracts/ronin/validator/RoninValidatorSet.sol:RoninValidatorSet",
        "label": "_initializing",
        "offset": 1,
        "slot": "0",
        "type": "t_bool"
      },
      {
        "astId": 28545,
        "contract": "contracts/ronin/validator/RoninValidatorSet.sol:RoninValidatorSet",
        "label": "_numberOfBlocksInEpoch",
        "offset": 0,
        "slot": "1",
        "type": "t_uint256"
      },
      {
        "astId": 28548,
        "contract": "contracts/ronin/validator/RoninValidatorSet.sol:RoninValidatorSet",
        "label": "_lastUpdatedBlock",
        "offset": 0,
        "slot": "2",
        "type": "t_uint256"
      },
      {
        "astId": 28551,
        "contract": "contracts/ronin/validator/RoninValidatorSet.sol:RoninValidatorSet",
        "label": "_lastUpdatedPeriod",
        "offset": 0,
        "slot": "3",
        "type": "t_uint256"
      },
      {
        "astId": 28554,
        "contract": "contracts/ronin/validator/RoninValidatorSet.sol:RoninValidatorSet",
        "label": "_currentPeriodStartAtBlock",
        "offset": 0,
        "slot": "4",
        "type": "t_uint256"
      },
      {
        "astId": 28559,
        "contract": "contracts/ronin/validator/RoninValidatorSet.sol:RoninValidatorSet",
        "label": "______gap",
        "offset": 0,
        "slot": "5",
        "type": "t_array(t_uint256)50_storage"
      },
      {
        "astId": 28181,
        "contract": "contracts/ronin/validator/RoninValidatorSet.sol:RoninValidatorSet",
        "label": "_miningRewardDeprecatedAtPeriod",
        "offset": 0,
        "slot": "55",
        "type": "t_mapping(t_address,t_mapping(t_uint256,t_bool))"
      },
      {
        "astId": 28188,
        "contract": "contracts/ronin/validator/RoninValidatorSet.sol:RoninValidatorSet",
        "label": "_miningRewardBailoutCutOffAtPeriod",
        "offset": 0,
        "slot": "56",
        "type": "t_mapping(t_address,t_mapping(t_uint256,t_bool))"
      },
      {
        "astId": 28195,
        "contract": "contracts/ronin/validator/RoninValidatorSet.sol:RoninValidatorSet",
        "label": "_bridgeRewardDeprecatedAtPeriod",
        "offset": 0,
        "slot": "57",
        "type": "t_mapping(t_address,t_mapping(t_uint256,t_bool))"
      },
      {
        "astId": 28200,
        "contract": "contracts/ronin/validator/RoninValidatorSet.sol:RoninValidatorSet",
        "label": "_jailedUntil",
        "offset": 0,
        "slot": "58",
        "type": "t_mapping(t_address,t_uint256)"
      },
      {
        "astId": 28205,
        "contract": "contracts/ronin/validator/RoninValidatorSet.sol:RoninValidatorSet",
        "label": "______gap",
        "offset": 0,
        "slot": "59",
        "type": "t_array(t_uint256)50_storage"
      },
      {
        "astId": 6319,
        "contract": "contracts/ronin/validator/RoninValidatorSet.sol:RoninValidatorSet",
        "label": "_stakingVestingContract",
        "offset": 0,
        "slot": "109",
        "type": "t_contract(IStakingVesting)9598"
      },
      {
        "astId": 5812,
        "contract": "contracts/ronin/validator/RoninValidatorSet.sol:RoninValidatorSet",
        "label": "_bridgeTrackingContract",
        "offset": 0,
        "slot": "110",
        "type": "t_contract(IBridgeTracking)8726"
      },
      {
        "astId": 5891,
        "contract": "contracts/ronin/validator/RoninValidatorSet.sol:RoninValidatorSet",
        "label": "_maintenanceContract",
        "offset": 0,
        "slot": "111",
        "type": "t_contract(IMaintenance)9075"
      },
      {
        "astId": 6161,
        "contract": "contracts/ronin/validator/RoninValidatorSet.sol:RoninValidatorSet",
        "label": "_slashIndicatorContract",
        "offset": 0,
        "slot": "112",
        "type": "t_contract(ISlashIndicator)10088"
      },
      {
        "astId": 6240,
        "contract": "contracts/ronin/validator/RoninValidatorSet.sol:RoninValidatorSet",
        "label": "_stakingContract",
        "offset": 0,
        "slot": "113",
        "type": "t_contract(IStaking)10616"
      },
      {
        "astId": 25687,
        "contract": "contracts/ronin/validator/RoninValidatorSet.sol:RoninValidatorSet",
        "label": "_maxValidatorCandidate",
        "offset": 0,
        "slot": "114",
        "type": "t_uint256"
      },
      {
        "astId": 25691,
        "contract": "contracts/ronin/validator/RoninValidatorSet.sol:RoninValidatorSet",
        "label": "_candidates",
        "offset": 0,
        "slot": "115",
        "type": "t_array(t_address)dyn_storage"
      },
      {
        "astId": 25696,
        "contract": "contracts/ronin/validator/RoninValidatorSet.sol:RoninValidatorSet",
        "label": "_candidateIndex",
        "offset": 0,
        "slot": "116",
        "type": "t_mapping(t_address,t_uint256)"
      },
      {
        "astId": 25702,
        "contract": "contracts/ronin/validator/RoninValidatorSet.sol:RoninValidatorSet",
        "label": "_candidateInfo",
        "offset": 0,
        "slot": "117",
        "type": "t_mapping(t_address,t_struct(ValidatorCandidate)10633_storage)"
      },
      {
        "astId": 25705,
        "contract": "contracts/ronin/validator/RoninValidatorSet.sol:RoninValidatorSet",
        "label": "_minEffectiveDaysOnwards",
        "offset": 0,
        "slot": "118",
        "type": "t_uint256"
      },
      {
        "astId": 25711,
        "contract": "contracts/ronin/validator/RoninValidatorSet.sol:RoninValidatorSet",
        "label": "_candidateCommissionChangeSchedule",
        "offset": 0,
        "slot": "119",
        "type": "t_mapping(t_address,t_struct(CommissionSchedule)10638_storage)"
      },
      {
        "astId": 25716,
        "contract": "contracts/ronin/validator/RoninValidatorSet.sol:RoninValidatorSet",
        "label": "______gap",
        "offset": 0,
        "slot": "120",
        "type": "t_array(t_uint256)48_storage"
      },
      {
        "astId": 6082,
        "contract": "contracts/ronin/validator/RoninValidatorSet.sol:RoninValidatorSet",
        "label": "_roninTrustedOrganizationContract",
        "offset": 0,
        "slot": "168",
        "type": "t_contract(IRoninTrustedOrganization)9509"
      },
      {
        "astId": 28691,
        "contract": "contracts/ronin/validator/RoninValidatorSet.sol:RoninValidatorSet",
        "label": "_maxValidatorNumber",
        "offset": 0,
        "slot": "169",
        "type": "t_uint256"
      },
      {
        "astId": 28694,
        "contract": "contracts/ronin/validator/RoninValidatorSet.sol:RoninValidatorSet",
        "label": "validatorCount",
        "offset": 0,
        "slot": "170",
        "type": "t_uint256"
      },
      {
        "astId": 28699,
        "contract": "contracts/ronin/validator/RoninValidatorSet.sol:RoninValidatorSet",
        "label": "_validators",
        "offset": 0,
        "slot": "171",
        "type": "t_mapping(t_uint256,t_address)"
      },
      {
        "astId": 28705,
        "contract": "contracts/ronin/validator/RoninValidatorSet.sol:RoninValidatorSet",
        "label": "_validatorMap",
        "offset": 0,
        "slot": "172",
        "type": "t_mapping(t_address,t_enum(ValidatorFlag)11372)"
      },
      {
        "astId": 28708,
        "contract": "contracts/ronin/validator/RoninValidatorSet.sol:RoninValidatorSet",
        "label": "_maxPrioritizedValidatorNumber",
        "offset": 0,
        "slot": "173",
        "type": "t_uint256"
      },
      {
        "astId": 28713,
        "contract": "contracts/ronin/validator/RoninValidatorSet.sol:RoninValidatorSet",
        "label": "______gap",
        "offset": 0,
        "slot": "174",
        "type": "t_array(t_uint256)50_storage"
      },
      {
        "astId": 28103,
        "contract": "contracts/ronin/validator/RoninValidatorSet.sol:RoninValidatorSet",
        "label": "_miningReward",
        "offset": 0,
        "slot": "224",
        "type": "t_mapping(t_address,t_uint256)"
      },
      {
        "astId": 28108,
        "contract": "contracts/ronin/validator/RoninValidatorSet.sol:RoninValidatorSet",
        "label": "_delegatingReward",
        "offset": 0,
        "slot": "225",
        "type": "t_mapping(t_address,t_uint256)"
      },
      {
        "astId": 28111,
        "contract": "contracts/ronin/validator/RoninValidatorSet.sol:RoninValidatorSet",
        "label": "_totalBridgeReward",
        "offset": 0,
        "slot": "226",
        "type": "t_uint256"
      },
      {
        "astId": 28116,
        "contract": "contracts/ronin/validator/RoninValidatorSet.sol:RoninValidatorSet",
        "label": "_bridgeOperatingReward",
        "offset": 0,
        "slot": "227",
        "type": "t_mapping(t_address,t_uint256)"
      },
      {
        "astId": 28119,
        "contract": "contracts/ronin/validator/RoninValidatorSet.sol:RoninValidatorSet",
        "label": "_totalDeprecatedReward",
        "offset": 0,
        "slot": "228",
        "type": "t_uint256"
      },
      {
        "astId": 28124,
        "contract": "contracts/ronin/validator/RoninValidatorSet.sol:RoninValidatorSet",
        "label": "______gap",
        "offset": 0,
        "slot": "229",
        "type": "t_array(t_uint256)49_storage"
      }
    ],
    "types": {
      "t_address": {
        "encoding": "inplace",
        "label": "address",
        "numberOfBytes": "20"
      },
      "t_address_payable": {
        "encoding": "inplace",
        "label": "address payable",
        "numberOfBytes": "20"
      },
      "t_array(t_address)dyn_storage": {
        "base": "t_address",
        "encoding": "dynamic_array",
        "label": "address[]",
        "numberOfBytes": "32"
      },
      "t_array(t_uint256)48_storage": {
        "base": "t_uint256",
        "encoding": "inplace",
        "label": "uint256[48]",
        "numberOfBytes": "1536"
      },
      "t_array(t_uint256)49_storage": {
        "base": "t_uint256",
        "encoding": "inplace",
        "label": "uint256[49]",
        "numberOfBytes": "1568"
      },
      "t_array(t_uint256)50_storage": {
        "base": "t_uint256",
        "encoding": "inplace",
        "label": "uint256[50]",
        "numberOfBytes": "1600"
      },
      "t_bool": {
        "encoding": "inplace",
        "label": "bool",
        "numberOfBytes": "1"
      },
      "t_contract(IBridgeTracking)8726": {
        "encoding": "inplace",
        "label": "contract IBridgeTracking",
        "numberOfBytes": "20"
      },
      "t_contract(IMaintenance)9075": {
        "encoding": "inplace",
        "label": "contract IMaintenance",
        "numberOfBytes": "20"
      },
      "t_contract(IRoninTrustedOrganization)9509": {
        "encoding": "inplace",
        "label": "contract IRoninTrustedOrganization",
        "numberOfBytes": "20"
      },
      "t_contract(ISlashIndicator)10088": {
        "encoding": "inplace",
        "label": "contract ISlashIndicator",
        "numberOfBytes": "20"
      },
      "t_contract(IStaking)10616": {
        "encoding": "inplace",
        "label": "contract IStaking",
        "numberOfBytes": "20"
      },
      "t_contract(IStakingVesting)9598": {
        "encoding": "inplace",
        "label": "contract IStakingVesting",
        "numberOfBytes": "20"
      },
      "t_enum(ValidatorFlag)11372": {
        "encoding": "inplace",
        "label": "enum EnumFlags.ValidatorFlag",
        "numberOfBytes": "1"
      },
      "t_mapping(t_address,t_enum(ValidatorFlag)11372)": {
        "encoding": "mapping",
        "key": "t_address",
        "label": "mapping(address => enum EnumFlags.ValidatorFlag)",
        "numberOfBytes": "32",
        "value": "t_enum(ValidatorFlag)11372"
      },
      "t_mapping(t_address,t_mapping(t_uint256,t_bool))": {
        "encoding": "mapping",
        "key": "t_address",
        "label": "mapping(address => mapping(uint256 => bool))",
        "numberOfBytes": "32",
        "value": "t_mapping(t_uint256,t_bool)"
      },
      "t_mapping(t_address,t_struct(CommissionSchedule)10638_storage)": {
        "encoding": "mapping",
        "key": "t_address",
        "label": "mapping(address => struct ICandidateManager.CommissionSchedule)",
        "numberOfBytes": "32",
        "value": "t_struct(CommissionSchedule)10638_storage"
      },
      "t_mapping(t_address,t_struct(ValidatorCandidate)10633_storage)": {
        "encoding": "mapping",
        "key": "t_address",
        "label": "mapping(address => struct ICandidateManager.ValidatorCandidate)",
        "numberOfBytes": "32",
        "value": "t_struct(ValidatorCandidate)10633_storage"
      },
      "t_mapping(t_address,t_uint256)": {
        "encoding": "mapping",
        "key": "t_address",
        "label": "mapping(address => uint256)",
        "numberOfBytes": "32",
        "value": "t_uint256"
      },
      "t_mapping(t_uint256,t_address)": {
        "encoding": "mapping",
        "key": "t_uint256",
        "label": "mapping(uint256 => address)",
        "numberOfBytes": "32",
        "value": "t_address"
      },
      "t_mapping(t_uint256,t_bool)": {
        "encoding": "mapping",
        "key": "t_uint256",
        "label": "mapping(uint256 => bool)",
        "numberOfBytes": "32",
        "value": "t_bool"
      },
      "t_struct(CommissionSchedule)10638_storage": {
        "encoding": "inplace",
        "label": "struct ICandidateManager.CommissionSchedule",
        "members": [
          {
            "astId": 10635,
            "contract": "contracts/ronin/validator/RoninValidatorSet.sol:RoninValidatorSet",
            "label": "effectiveTimestamp",
            "offset": 0,
            "slot": "0",
            "type": "t_uint256"
          },
          {
            "astId": 10637,
            "contract": "contracts/ronin/validator/RoninValidatorSet.sol:RoninValidatorSet",
            "label": "commissionRate",
            "offset": 0,
            "slot": "1",
            "type": "t_uint256"
          }
        ],
        "numberOfBytes": "64"
      },
      "t_struct(ValidatorCandidate)10633_storage": {
        "encoding": "inplace",
        "label": "struct ICandidateManager.ValidatorCandidate",
        "members": [
          {
            "astId": 10620,
            "contract": "contracts/ronin/validator/RoninValidatorSet.sol:RoninValidatorSet",
            "label": "admin",
            "offset": 0,
            "slot": "0",
            "type": "t_address"
          },
          {
            "astId": 10622,
            "contract": "contracts/ronin/validator/RoninValidatorSet.sol:RoninValidatorSet",
            "label": "consensusAddr",
            "offset": 0,
            "slot": "1",
            "type": "t_address"
          },
          {
            "astId": 10624,
            "contract": "contracts/ronin/validator/RoninValidatorSet.sol:RoninValidatorSet",
            "label": "treasuryAddr",
            "offset": 0,
            "slot": "2",
            "type": "t_address_payable"
          },
          {
            "astId": 10626,
            "contract": "contracts/ronin/validator/RoninValidatorSet.sol:RoninValidatorSet",
            "label": "bridgeOperatorAddr",
            "offset": 0,
            "slot": "3",
            "type": "t_address"
          },
          {
            "astId": 10628,
            "contract": "contracts/ronin/validator/RoninValidatorSet.sol:RoninValidatorSet",
            "label": "commissionRate",
            "offset": 0,
            "slot": "4",
            "type": "t_uint256"
          },
          {
            "astId": 10630,
            "contract": "contracts/ronin/validator/RoninValidatorSet.sol:RoninValidatorSet",
            "label": "revokingTimestamp",
            "offset": 0,
            "slot": "5",
            "type": "t_uint256"
          },
          {
            "astId": 10632,
            "contract": "contracts/ronin/validator/RoninValidatorSet.sol:RoninValidatorSet",
            "label": "topupDeadline",
            "offset": 0,
            "slot": "6",
            "type": "t_uint256"
          }
        ],
        "numberOfBytes": "224"
      },
      "t_uint256": {
        "encoding": "inplace",
        "label": "uint256",
        "numberOfBytes": "32"
      },
      "t_uint8": {
        "encoding": "inplace",
        "label": "uint8",
        "numberOfBytes": "1"
      }
    }
  }
}