{
  "address": "0x5B23a9D02d1a76E9610A3Ad7b2BBAbeE94a97D71",
  "abi": [
    {
      "anonymous": false,
      "inputs": [
        {
          "indexed": false,
          "internalType": "uint8",
          "name": "version",
          "type": "uint8"
        }
      ],
      "name": "Initialized",
      "type": "event"
    },
    {
      "anonymous": false,
      "inputs": [
        {
          "indexed": true,
          "internalType": "uint256",
          "name": "nonce",
          "type": "uint256"
        },
        {
          "indexed": true,
          "internalType": "uint256",
          "name": "numerator",
          "type": "uint256"
        },
        {
          "indexed": true,
          "internalType": "uint256",
          "name": "denominator",
          "type": "uint256"
        },
        {
          "indexed": false,
          "internalType": "uint256",
          "name": "previousNumerator",
          "type": "uint256"
        },
        {
          "indexed": false,
          "internalType": "uint256",
          "name": "previousDenominator",
          "type": "uint256"
        }
      ],
      "name": "ThresholdUpdated",
      "type": "event"
    },
    {
      "anonymous": false,
      "inputs": [
        {
          "components": [
            {
              "internalType": "address",
              "name": "consensusAddr",
              "type": "address"
            },
            {
              "internalType": "address",
              "name": "governor",
              "type": "address"
            },
            {
              "internalType": "address",
              "name": "bridgeVoter",
              "type": "address"
            },
            {
              "internalType": "uint256",
              "name": "weight",
              "type": "uint256"
            },
            {
              "internalType": "uint256",
              "name": "addedBlock",
              "type": "uint256"
            }
          ],
          "indexed": false,
          "internalType": "struct IRoninTrustedOrganization.TrustedOrganization[]",
          "name": "orgs",
          "type": "tuple[]"
        }
      ],
      "name": "TrustedOrganizationsAdded",
      "type": "event"
    },
    {
      "anonymous": false,
      "inputs": [
        {
          "indexed": false,
          "internalType": "address[]",
          "name": "orgs",
          "type": "address[]"
        }
      ],
      "name": "TrustedOrganizationsRemoved",
      "type": "event"
    },
    {
      "anonymous": false,
      "inputs": [
        {
          "components": [
            {
              "internalType": "address",
              "name": "consensusAddr",
              "type": "address"
            },
            {
              "internalType": "address",
              "name": "governor",
              "type": "address"
            },
            {
              "internalType": "address",
              "name": "bridgeVoter",
              "type": "address"
            },
            {
              "internalType": "uint256",
              "name": "weight",
              "type": "uint256"
            },
            {
              "internalType": "uint256",
              "name": "addedBlock",
              "type": "uint256"
            }
          ],
          "indexed": false,
          "internalType": "struct IRoninTrustedOrganization.TrustedOrganization[]",
          "name": "orgs",
          "type": "tuple[]"
        }
      ],
      "name": "TrustedOrganizationsUpdated",
      "type": "event"
    },
    {
      "inputs": [
        {
          "components": [
            {
              "internalType": "address",
              "name": "consensusAddr",
              "type": "address"
            },
            {
              "internalType": "address",
              "name": "governor",
              "type": "address"
            },
            {
              "internalType": "address",
              "name": "bridgeVoter",
              "type": "address"
            },
            {
              "internalType": "uint256",
              "name": "weight",
              "type": "uint256"
            },
            {
              "internalType": "uint256",
              "name": "addedBlock",
              "type": "uint256"
            }
          ],
          "internalType": "struct IRoninTrustedOrganization.TrustedOrganization[]",
          "name": "_list",
          "type": "tuple[]"
        }
      ],
      "name": "addTrustedOrganizations",
      "outputs": [],
      "stateMutability": "nonpayable",
      "type": "function"
    },
    {
      "inputs": [
        {
          "internalType": "uint256",
          "name": "_voteWeight",
          "type": "uint256"
        }
      ],
      "name": "checkThreshold",
      "outputs": [
        {
          "internalType": "bool",
          "name": "",
          "type": "bool"
        }
      ],
      "stateMutability": "view",
      "type": "function"
    },
    {
      "inputs": [],
      "name": "countTrustedOrganizations",
      "outputs": [
        {
          "internalType": "uint256",
          "name": "",
          "type": "uint256"
        }
      ],
      "stateMutability": "view",
      "type": "function"
    },
    {
      "inputs": [],
      "name": "getAllTrustedOrganizations",
      "outputs": [
        {
          "components": [
            {
              "internalType": "address",
              "name": "consensusAddr",
              "type": "address"
            },
            {
              "internalType": "address",
              "name": "governor",
              "type": "address"
            },
            {
              "internalType": "address",
              "name": "bridgeVoter",
              "type": "address"
            },
            {
              "internalType": "uint256",
              "name": "weight",
              "type": "uint256"
            },
            {
              "internalType": "uint256",
              "name": "addedBlock",
              "type": "uint256"
            }
          ],
          "internalType": "struct IRoninTrustedOrganization.TrustedOrganization[]",
          "name": "_list",
          "type": "tuple[]"
        }
      ],
      "stateMutability": "view",
      "type": "function"
    },
    {
      "inputs": [
        {
          "internalType": "address",
          "name": "_addr",
          "type": "address"
        }
      ],
      "name": "getBridgeVoterWeight",
      "outputs": [
        {
          "internalType": "uint256",
          "name": "",
          "type": "uint256"
        }
      ],
      "stateMutability": "view",
      "type": "function"
    },
    {
      "inputs": [
        {
          "internalType": "address[]",
          "name": "_list",
          "type": "address[]"
        }
      ],
      "name": "getBridgeVoterWeights",
      "outputs": [
        {
          "internalType": "uint256[]",
          "name": "_res",
          "type": "uint256[]"
        }
      ],
      "stateMutability": "view",
      "type": "function"
    },
    {
      "inputs": [
        {
          "internalType": "address",
          "name": "_consensusAddr",
          "type": "address"
        }
      ],
      "name": "getConsensusWeight",
      "outputs": [
        {
          "internalType": "uint256",
          "name": "",
          "type": "uint256"
        }
      ],
      "stateMutability": "view",
      "type": "function"
    },
    {
      "inputs": [
        {
          "internalType": "address[]",
          "name": "_list",
          "type": "address[]"
        }
      ],
      "name": "getConsensusWeights",
      "outputs": [
        {
          "internalType": "uint256[]",
          "name": "_res",
          "type": "uint256[]"
        }
      ],
      "stateMutability": "view",
      "type": "function"
    },
    {
      "inputs": [
        {
          "internalType": "address",
          "name": "_governor",
          "type": "address"
        }
      ],
      "name": "getGovernorWeight",
      "outputs": [
        {
          "internalType": "uint256",
          "name": "",
          "type": "uint256"
        }
      ],
      "stateMutability": "view",
      "type": "function"
    },
    {
      "inputs": [
        {
          "internalType": "address[]",
          "name": "_list",
          "type": "address[]"
        }
      ],
      "name": "getGovernorWeights",
      "outputs": [
        {
          "internalType": "uint256[]",
          "name": "_res",
          "type": "uint256[]"
        }
      ],
      "stateMutability": "view",
      "type": "function"
    },
    {
      "inputs": [],
      "name": "getThreshold",
      "outputs": [
        {
          "internalType": "uint256",
          "name": "",
          "type": "uint256"
        },
        {
          "internalType": "uint256",
          "name": "",
          "type": "uint256"
        }
      ],
      "stateMutability": "view",
      "type": "function"
    },
    {
      "inputs": [
        {
          "internalType": "address",
          "name": "_consensusAddr",
          "type": "address"
        }
      ],
      "name": "getTrustedOrganization",
      "outputs": [
        {
          "components": [
            {
              "internalType": "address",
              "name": "consensusAddr",
              "type": "address"
            },
            {
              "internalType": "address",
              "name": "governor",
              "type": "address"
            },
            {
              "internalType": "address",
              "name": "bridgeVoter",
              "type": "address"
            },
            {
              "internalType": "uint256",
              "name": "weight",
              "type": "uint256"
            },
            {
              "internalType": "uint256",
              "name": "addedBlock",
              "type": "uint256"
            }
          ],
          "internalType": "struct IRoninTrustedOrganization.TrustedOrganization",
          "name": "",
          "type": "tuple"
        }
      ],
      "stateMutability": "view",
      "type": "function"
    },
    {
      "inputs": [
        {
          "internalType": "uint256",
          "name": "_idx",
          "type": "uint256"
        }
      ],
      "name": "getTrustedOrganizationAt",
      "outputs": [
        {
          "components": [
            {
              "internalType": "address",
              "name": "consensusAddr",
              "type": "address"
            },
            {
              "internalType": "address",
              "name": "governor",
              "type": "address"
            },
            {
              "internalType": "address",
              "name": "bridgeVoter",
              "type": "address"
            },
            {
              "internalType": "uint256",
              "name": "weight",
              "type": "uint256"
            },
            {
              "internalType": "uint256",
              "name": "addedBlock",
              "type": "uint256"
            }
          ],
          "internalType": "struct IRoninTrustedOrganization.TrustedOrganization",
          "name": "",
          "type": "tuple"
        }
      ],
      "stateMutability": "view",
      "type": "function"
    },
    {
      "inputs": [
        {
          "components": [
            {
              "internalType": "address",
              "name": "consensusAddr",
              "type": "address"
            },
            {
              "internalType": "address",
              "name": "governor",
              "type": "address"
            },
            {
              "internalType": "address",
              "name": "bridgeVoter",
              "type": "address"
            },
            {
              "internalType": "uint256",
              "name": "weight",
              "type": "uint256"
            },
            {
              "internalType": "uint256",
              "name": "addedBlock",
              "type": "uint256"
            }
          ],
          "internalType": "struct IRoninTrustedOrganization.TrustedOrganization[]",
          "name": "_trustedOrgs",
          "type": "tuple[]"
        },
        {
          "internalType": "uint256",
          "name": "__num",
          "type": "uint256"
        },
        {
          "internalType": "uint256",
          "name": "__denom",
          "type": "uint256"
        }
      ],
      "name": "initialize",
      "outputs": [],
      "stateMutability": "nonpayable",
      "type": "function"
    },
    {
      "inputs": [],
      "name": "minimumVoteWeight",
      "outputs": [
        {
          "internalType": "uint256",
          "name": "",
          "type": "uint256"
        }
      ],
      "stateMutability": "view",
      "type": "function"
    },
    {
      "inputs": [
        {
          "internalType": "address[]",
          "name": "_list",
          "type": "address[]"
        }
      ],
      "name": "removeTrustedOrganizations",
      "outputs": [],
      "stateMutability": "nonpayable",
      "type": "function"
    },
    {
      "inputs": [
        {
          "internalType": "uint256",
          "name": "_numerator",
          "type": "uint256"
        },
        {
          "internalType": "uint256",
          "name": "_denominator",
          "type": "uint256"
        }
      ],
      "name": "setThreshold",
      "outputs": [
        {
          "internalType": "uint256",
          "name": "",
          "type": "uint256"
        },
        {
          "internalType": "uint256",
          "name": "",
          "type": "uint256"
        }
      ],
      "stateMutability": "nonpayable",
      "type": "function"
    },
    {
      "inputs": [
        {
          "internalType": "address[]",
          "name": "_list",
          "type": "address[]"
        }
      ],
      "name": "sumBridgeVoterWeights",
      "outputs": [
        {
          "internalType": "uint256",
          "name": "_res",
          "type": "uint256"
        }
      ],
      "stateMutability": "view",
      "type": "function"
    },
    {
      "inputs": [
        {
          "internalType": "address[]",
          "name": "_list",
          "type": "address[]"
        }
      ],
      "name": "sumConsensusWeights",
      "outputs": [
        {
          "internalType": "uint256",
          "name": "_res",
          "type": "uint256"
        }
      ],
      "stateMutability": "view",
      "type": "function"
    },
    {
      "inputs": [
        {
          "internalType": "address[]",
          "name": "_list",
          "type": "address[]"
        }
      ],
      "name": "sumGovernorWeights",
      "outputs": [
        {
          "internalType": "uint256",
          "name": "_res",
          "type": "uint256"
        }
      ],
      "stateMutability": "view",
      "type": "function"
    },
    {
      "inputs": [],
      "name": "totalWeights",
      "outputs": [
        {
          "internalType": "uint256",
          "name": "",
          "type": "uint256"
        }
      ],
      "stateMutability": "view",
      "type": "function"
    },
    {
      "inputs": [
        {
          "components": [
            {
              "internalType": "address",
              "name": "consensusAddr",
              "type": "address"
            },
            {
              "internalType": "address",
              "name": "governor",
              "type": "address"
            },
            {
              "internalType": "address",
              "name": "bridgeVoter",
              "type": "address"
            },
            {
              "internalType": "uint256",
              "name": "weight",
              "type": "uint256"
            },
            {
              "internalType": "uint256",
              "name": "addedBlock",
              "type": "uint256"
            }
          ],
          "internalType": "struct IRoninTrustedOrganization.TrustedOrganization[]",
          "name": "_list",
          "type": "tuple[]"
        }
      ],
      "name": "updateTrustedOrganizations",
      "outputs": [],
      "stateMutability": "nonpayable",
      "type": "function"
    }
  ],
  "transactionHash": "0x7e59800ea4e223cc1751be595722e26e64fce514c94dc6ba93aa2ebf75440e08",
  "args": [],
  "numDeployments": 2,
  "solcInputHash": "7ee7c0f941167beb3dcb34451beb8d74",
  "bytecode": "0x608060405234801561001057600080fd5b50612607806100206000396000f3fe608060405234801561001057600080fd5b50600436106101425760003560e01c8063b505a07c116100b8578063d9d5dadb1161007c578063d9d5dadb146102d5578063dafae408146102e8578063db6693a21461030b578063e75235b81461032b578063e8c0685e14610336578063f09267c21461034957600080fd5b8063b505a07c14610256578063b9c3620914610269578063cacf8fb514610291578063cc7e6b3b14610299578063d78392f8146102ac57600080fd5b80635f14a1c31161010a5780635f14a1c3146101fa578063708236251461020d5780637c37103c146102205780637de5dedd14610233578063926323d51461023b578063a85c7d6e1461024357600080fd5b80630ed285df14610147578063150740051461015c57806341feed1c1461017a578063520fce62146101b157806356241911146101d1575b600080fd5b61015a610155366004611e6b565b61035c565b005b6101646103ab565b6040516101719190611eea565b60405180910390f35b6101a3610188366004611f54565b6001600160a01b031660009081526005602052604090205490565b604051908152602001610171565b6101c46101bf366004611f6f565b6105a1565b6040516101719190611fe4565b6101a36101df366004611f54565b6001600160a01b031660009081526007602052604090205490565b6101a3610208366004611f6f565b610676565b6101c461021b366004611f6f565b6106e5565b61015a61022e36600461201c565b6107b3565b6101a36108dc565b6003546101a3565b61015a610251366004611f6f565b610919565b61015a610264366004611e6b565b6109f8565b61027c61027736600461206d565b610acc565b60408051928352602083019190915201610171565b6009546101a3565b6101c46102a7366004611f6f565b610b1d565b6101a36102ba366004611f54565b6001600160a01b031660009081526006602052604090205490565b6101a36102e3366004611f6f565b610beb565b6102fb6102f636600461208f565b610c5a565b6040519015158152602001610171565b61031e610319366004611f54565b610c81565b60405161017191906120a8565b60015460025461027c565b6101a3610344366004611f6f565b610d8a565b61031e61035736600461208f565b610df9565b610364610eff565b6001600160a01b0316336001600160a01b03161461039d5760405162461bcd60e51b8152600401610394906120b6565b60405180910390fd5b6103a78282610f2d565b5050565b60095460609067ffffffffffffffff8111156103c9576103c96120f8565b60405190808252806020026020018201604052801561042257816020015b6040805160a0810182526000808252602080830182905292820181905260608201819052608082015282526000199092019101816103e75790505b5090506000805b825181101561059c57600981815481106104455761044561210e565b9060005260206000200160009054906101000a90046001600160a01b03169150818382815181106104785761047861210e565b60209081029190910101516001600160a01b039091169052600a8054829081106104a4576104a461210e565b9060005260206000200160009054906101000a90046001600160a01b03168382815181106104d4576104d461210e565b6020026020010151602001906001600160a01b031690816001600160a01b031681525050600b818154811061050b5761050b61210e565b9060005260206000200160009054906101000a90046001600160a01b031683828151811061053b5761053b61210e565b6020908102919091018101516001600160a01b03928316604091820152918416600090815260059091522054835184908390811061057b5761057b61210e565b602090810291909101015160600152806105948161213a565b915050610429565b505090565b60608167ffffffffffffffff8111156105bc576105bc6120f8565b6040519080825280602002602001820160405280156105e5578160200160208202803683370190505b50905060005b815181101561066f576005600085858481811061060a5761060a61210e565b905060200201602081019061061f9190611f54565b6001600160a01b03166001600160a01b03168152602001908152602001600020548282815181106106525761065261210e565b6020908102919091010152806106678161213a565b9150506105eb565b5092915050565b6000805b8281101561066f57600660008585848181106106985761069861210e565b90506020020160208101906106ad9190611f54565b6001600160a01b031681526020810191909152604001600020546106d19083612153565b9150806106dd8161213a565b91505061067a565b60608167ffffffffffffffff811115610700576107006120f8565b604051908082528060200260200182016040528015610729578160200160208202803683370190505b50905060005b815181101561066f576007600085858481811061074e5761074e61210e565b90506020020160208101906107639190611f54565b6001600160a01b03166001600160a01b03168152602001908152602001600020548282815181106107965761079661210e565b6020908102919091010152806107ab8161213a565b91505061072f565b600054610100900460ff16158080156107d35750600054600160ff909116105b806107ed5750303b1580156107ed575060005460ff166001145b6108505760405162461bcd60e51b815260206004820152602e60248201527f496e697469616c697a61626c653a20636f6e747261637420697320616c72656160448201526d191e481a5b9a5d1a585b1a5e995960921b6064820152608401610394565b6000805460ff191660011790558015610873576000805461ff0019166101001790555b8315610883576108838585610f2d565b61088d8383610fac565b505080156108d5576000805461ff0019169055604051600181527f7f26b83ff96e1f2b6a682f133852f6798a09c465da95921460cefb38474024989060200160405180910390a15b5050505050565b600060025460016002546003546001546108f69190612166565b6109009190612153565b61090a919061217d565b6109149190612190565b905090565b610921610eff565b6001600160a01b0316336001600160a01b0316146109515760405162461bcd60e51b8152600401610394906120b6565b8061096e5760405162461bcd60e51b8152600401610394906121b2565b60005b818110156109ba576109a883838381811061098e5761098e61210e565b90506020020160208101906109a39190611f54565b61106d565b806109b28161213a565b915050610971565b507f121945697ac30ee0fc67821492cb685c65f0ea4d7f1b710fde44d6e2237f43a782826040516109ec9291906121ee565b60405180910390a15050565b610a00610eff565b6001600160a01b0316336001600160a01b031614610a305760405162461bcd60e51b8152600401610394906120b6565b80610a4d5760405162461bcd60e51b8152600401610394906121b2565b60005b81811015610a9a57610a88838383818110610a6d57610a6d61210e565b905060a00201803603810190610a83919061223a565b6113ff565b80610a928161213a565b915050610a50565b507fe887c8106c09d1770c0ef0bf8ca62c54766f18b07506801865501783376cbeda82826040516109ec9291906122cb565b600080610ad7610eff565b6001600160a01b0316336001600160a01b031614610b075760405162461bcd60e51b8152600401610394906120b6565b610b118484610fac565b915091505b9250929050565b60608167ffffffffffffffff811115610b3857610b386120f8565b604051908082528060200260200182016040528015610b61578160200160208202803683370190505b50905060005b815181101561066f5760066000858584818110610b8657610b8661210e565b9050602002016020810190610b9b9190611f54565b6001600160a01b03166001600160a01b0316815260200190815260200160002054828281518110610bce57610bce61210e565b602090810291909101015280610be38161213a565b915050610b67565b6000805b8281101561066f5760076000858584818110610c0d57610c0d61210e565b9050602002016020810190610c229190611f54565b6001600160a01b03168152602081019190915260400160002054610c469083612153565b915080610c528161213a565b915050610bef565b6000600354600154610c6c9190612166565b600254610c799084612166565b101592915050565b6040805160a0810182526000808252602082018190529181018290526060810182905260808101829052905b600954811015610d1057826001600160a01b031660098281548110610cd457610cd461210e565b6000918252602090912001546001600160a01b031603610cfe57610cf781610df9565b9392505050565b80610d088161213a565b915050610cad565b5060405162461bcd60e51b815260206004820152604260248201527f526f6e696e547275737465644f7267616e697a6174696f6e3a2071756572792060448201527f666f72206e6f6e2d6578697374656e7420636f6e73656e737573206164647265606482015261737360f01b608482015260a401610394565b6000805b8281101561066f5760056000858584818110610dac57610dac61210e565b9050602002016020810190610dc19190611f54565b6001600160a01b03168152602081019190915260400160002054610de59083612153565b915080610df18161213a565b915050610d8e565b6040805160a081018252600080825260208201819052918101829052606081018290526080810191909152600060098381548110610e3957610e3961210e565b9060005260206000200160009054906101000a90046001600160a01b031690506040518060a00160405280826001600160a01b03168152602001600a8581548110610e8657610e8661210e565b600091825260209182902001546001600160a01b03168252600b8054929091019186908110610eb757610eb761210e565b60009182526020808320909101546001600160a01b03908116845294909416808252600585526040808320548487015290825260089094528390205492019190915292915050565b7fb53127684a568b3173ae13b9f8a6016e243e63b6e8ee1178d6a717850b5d6103546001600160a01b031690565b60005b81811015610f7a57610f68838383818110610f4d57610f4d61210e565b905060a00201803603810190610f63919061223a565b6117e2565b80610f728161213a565b915050610f30565b507fc753dbf7952c70ff6b9fa7b626403aa1d2230d97136b635bd5e85bec72bcca6c82826040516109ec9291906122cb565b600080828411156110015760405162461bcd60e51b815260206004820152602b60248201526000805160206125b283398151915260448201526a19081d1a1c995cda1bdb1960aa1b6064820152608401610394565b505060018054600280549285905583905560048054919291849186919060006110298361213a565b9091555060408051868152602081018690527f976f8a9c5bdf8248dec172376d6e2b80a8e3df2f0328e381c6db8e1cf138c0f8910160405180910390a49250929050565b6001600160a01b038116600090815260056020526040812054908190036110d8576110a2826001600160a01b03166014611bba565b6040516020016110b291906123b6565b60408051601f198184030181529082905262461bcd60e51b8252610394916004016123f1565b600954600090815b8181101561113957846001600160a01b0316600982815481106111055761110561210e565b6000918252602090912001546001600160a01b03160361112757809250611139565b806111318161213a565b9150506110e0565b50826003600082825461114c919061217d565b90915550506001600160a01b03841660009081526008602090815260408083208390556005909152812055600961118460018361217d565b815481106111945761119461210e565b600091825260209091200154600980546001600160a01b0390921691849081106111c0576111c061210e565b9060005260206000200160006101000a8154816001600160a01b0302191690836001600160a01b0316021790555060098054806111ff576111ff612424565b6001900381819060005260206000200160006101000a8154906001600160a01b030219169055905560066000600a848154811061123e5761123e61210e565b60009182526020808320909101546001600160a01b03168352820192909252604001812055600a61127060018361217d565b815481106112805761128061210e565b600091825260209091200154600a80546001600160a01b0390921691849081106112ac576112ac61210e565b9060005260206000200160006101000a8154816001600160a01b0302191690836001600160a01b03160217905550600a8054806112eb576112eb612424565b6001900381819060005260206000200160006101000a8154906001600160a01b030219169055905560076000600b848154811061132a5761132a61210e565b60009182526020808320909101546001600160a01b03168352820192909252604001812055600b61135c60018361217d565b8154811061136c5761136c61210e565b600091825260209091200154600b80546001600160a01b0390921691849081106113985761139861210e565b9060005260206000200160006101000a8154816001600160a01b0302191690836001600160a01b03160217905550600b8054806113d7576113d7612424565b600082815260209020810160001990810180546001600160a01b031916905501905550505050565b60008160600151116114235760405162461bcd60e51b81526004016103949061243a565b80516001600160a01b03166000908152600560205260408120549081900361145b5781516110a2906001600160a01b03166014611bba565b60095460005b818110156117dc5783600001516001600160a01b03166009828154811061148a5761148a61210e565b6000918252602090912001546001600160a01b0316036117ca5782600360008282546114b6919061217d565b90915550506060840151600380546000906114d2908490612153565b9250508190555083602001516001600160a01b0316600a82815481106114fa576114fa61210e565b6000918252602090912001546001600160a01b03161461162a576020808501516001600160a01b0316600090815260069091526040902054156115a55760405162461bcd60e51b815260206004820152603760248201527f526f6e696e547275737465644f7267616e697a6174696f6e3a2071756572792060448201527f666f72206475706c69636174656420676f7665726e6f720000000000000000006064820152608401610394565b60066000600a83815481106115bc576115bc61210e565b60009182526020808320909101546001600160a01b03168352828101939093526040909101812055840151600a8054839081106115fb576115fb61210e565b9060005260206000200160006101000a8154816001600160a01b0302191690836001600160a01b031602179055505b83604001516001600160a01b0316600b828154811061164b5761164b61210e565b6000918252602090912001546001600160a01b031614611778576040808501516001600160a01b0316600090815260076020522054156116f35760405162461bcd60e51b815260206004820152603b60248201527f526f6e696e547275737465644f7267616e697a6174696f6e3a2071756572792060448201527f666f72206475706c6963617465642062726964676520766f74657200000000006064820152608401610394565b60076000600b838154811061170a5761170a61210e565b60009182526020808320909101546001600160a01b03168352828101939093526040909101812055840151600b8054839081106117495761174961210e565b9060005260206000200160006101000a8154816001600160a01b0302191690836001600160a01b031602179055505b50505060608101805182516001600160a01b0390811660009081526005602090815260408083209490945584518187015184168352600682528483205593519483015190911681526007909252902055565b806117d48161213a565b915050611461565b50505050565b6080810151156118345760405162461bcd60e51b815260206004820152602960248201526000805160206125b283398151915260448201526819081c995c5d595cdd60ba1b6064820152608401610394565b60008160600151116118585760405162461bcd60e51b81526004016103949061243a565b60408051600380825260808201909252600091602082016060803683370190505090508160000151816000815181106118935761189361210e565b60200260200101906001600160a01b031690816001600160a01b0316815250508160200151816001815181106118cb576118cb61210e565b60200260200101906001600160a01b031690816001600160a01b0316815250508160400151816002815181106119035761190361210e565b60200260200101906001600160a01b031690816001600160a01b03168152505061192c81611d5f565b1561199f5760405162461bcd60e51b815260206004820152603a60248201527f526f6e696e547275737465644f7267616e697a6174696f6e3a2074687265652060448201527f616464726573736573206d7573742062652064697374696e63740000000000006064820152608401610394565b81516001600160a01b0316600090815260056020526040902054156119e45781516119d4906001600160a01b03166014611bba565b6040516020016110b29190612470565b6020808301516001600160a01b031660009081526006909152604090205415611a2f57611a1f82602001516001600160a01b03166014611bba565b6040516020016110b291906124af565b6040808301516001600160a01b031660009081526007602052205415611a7757611a6782604001516001600160a01b03166014611bba565b6040516020016110b29190612522565b8151600980546001808201835560009283527f6e1540171b6c0c960b71a7020d9f60077f6af931a8bbf590da0223dacf75c7af90910180546001600160a01b03199081166001600160a01b0395861617909155606086018051875186168552600560209081526040808720929092558089018051600a805480890182559089527fc65a7bb8d6351c1cf70c95a316cc6a92839c986682d98bc35f958f4883f9d2a80180548716918a16919091179055835190518816875260068252828720558189018051600b8054978801815588527f0175b7a638427703f0dbe7bb9bbf987a2551717b34e79f33b5b1008d1fa01db9909601805490951695881695909517909355815193518616855260078352808520939093558651909416835260089052812043905590516003805491929091611bb1908490612153565b90915550505050565b60606000611bc9836002612166565b611bd4906002612153565b67ffffffffffffffff811115611bec57611bec6120f8565b6040519080825280601f01601f191660200182016040528015611c16576020820181803683370190505b509050600360fc1b81600081518110611c3157611c3161210e565b60200101906001600160f81b031916908160001a905350600f60fb1b81600181518110611c6057611c6061210e565b60200101906001600160f81b031916908160001a9053506000611c84846002612166565b611c8f906001612153565b90505b6001811115611d07576f181899199a1a9b1b9c1cb0b131b232b360811b85600f1660108110611cc357611cc361210e565b1a60f81b828281518110611cd957611cd961210e565b60200101906001600160f81b031916908160001a90535060049490941c93611d008161259a565b9050611c92565b508315611d565760405162461bcd60e51b815260206004820181905260248201527f537472696e67733a20686578206c656e67746820696e73756666696369656e746044820152606401610394565b90505b92915050565b60008151600003611d7257506000919050565b60005b60018351611d83919061217d565b811015611e1d576000611d97826001612153565b90505b8351811015611e0a57838181518110611db557611db561210e565b60200260200101516001600160a01b0316848381518110611dd857611dd861210e565b60200260200101516001600160a01b031603611df8575060019392505050565b80611e028161213a565b915050611d9a565b5080611e158161213a565b915050611d75565b50600092915050565b60008083601f840112611e3857600080fd5b50813567ffffffffffffffff811115611e5057600080fd5b60208301915083602060a083028501011115610b1657600080fd5b60008060208385031215611e7e57600080fd5b823567ffffffffffffffff811115611e9557600080fd5b611ea185828601611e26565b90969095509350505050565b80516001600160a01b0390811683526020808301518216908401526040808301519091169083015260608082015190830152608090810151910152565b6020808252825182820181905260009190848201906040850190845b81811015611f2c57611f19838551611ead565b9284019260a09290920191600101611f06565b50909695505050505050565b80356001600160a01b0381168114611f4f57600080fd5b919050565b600060208284031215611f6657600080fd5b610cf782611f38565b60008060208385031215611f8257600080fd5b823567ffffffffffffffff80821115611f9a57600080fd5b818501915085601f830112611fae57600080fd5b813581811115611fbd57600080fd5b8660208260051b8501011115611fd257600080fd5b60209290920196919550909350505050565b6020808252825182820181905260009190848201906040850190845b81811015611f2c57835183529284019291840191600101612000565b6000806000806060858703121561203257600080fd5b843567ffffffffffffffff81111561204957600080fd5b61205587828801611e26565b90989097506020870135966040013595509350505050565b6000806040838503121561208057600080fd5b50508035926020909101359150565b6000602082840312156120a157600080fd5b5035919050565b60a08101611d598284611ead565b60208082526022908201527f48617350726f787941646d696e3a20756e617574686f72697a65642073656e6460408201526132b960f11b606082015260800190565b634e487b7160e01b600052604160045260246000fd5b634e487b7160e01b600052603260045260246000fd5b634e487b7160e01b600052601160045260246000fd5b60006001820161214c5761214c612124565b5060010190565b80820180821115611d5957611d59612124565b8082028115828204841417611d5957611d59612124565b81810381811115611d5957611d59612124565b6000826121ad57634e487b7160e01b600052601260045260246000fd5b500490565b6020808252602e908201526000805160206125b283398151915260408201526d0c840c2e4e4c2f240d8cadccee8d60931b606082015260800190565b60208082528181018390526000908460408401835b8681101561222f576001600160a01b0361221c84611f38565b1682529183019190830190600101612203565b509695505050505050565b600060a0828403121561224c57600080fd5b60405160a0810181811067ffffffffffffffff8211171561227d57634e487b7160e01b600052604160045260246000fd5b60405261228983611f38565b815261229760208401611f38565b60208201526122a860408401611f38565b604082015260608301356060820152608083013560808201528091505092915050565b6020808252818101839052600090604080840186845b87811015612347576001600160a01b03806122fb84611f38565b1684528061230a878501611f38565b16868501528061231b868501611f38565b168486015250606082810135908401526080808301359084015260a092830192909101906001016122e1565b5090979650505050505050565b7f526f6e696e547275737465644f7267616e697a6174696f6e3a20636f6e73656e81526b039bab99030b2323932b9b9960a51b6020820152602c0190565b60005b838110156123ad578181015183820152602001612395565b50506000910152565b60006123c182612354565b83516123d1818360208801612392565b6c081a5cc81b9bdd081859191959609a1b9101908152600d019392505050565b6020815260008251806020840152612410816040850160208701612392565b601f01601f19169190910160400192915050565b634e487b7160e01b600052603160045260246000fd5b60208082526028908201526000805160206125b283398151915260408201526719081dd95a59da1d60c21b606082015260800190565b600061247b82612354565b835161248b818360208801612392565b7020697320616464656420616c726561647960781b91019081526011019392505050565b7f526f6e696e547275737465644f7267616e697a6174696f6e3a20676f76656e6f8152690391030b2323932b9b9960b51b6020820152600082516124fa81602a850160208701612392565b7020697320616464656420616c726561647960781b602a939091019283015250603b01919050565b7f526f6e696e547275737465644f7267616e697a6174696f6e3a2062726964676581526e0103b37ba32b91030b2323932b9b99608d1b60208201526000825161257281602f850160208701612392565b7020697320616464656420616c726561647960781b602f939091019283015250604001919050565b6000816125a9576125a9612124565b50600019019056fe526f6e696e547275737465644f7267616e697a6174696f6e3a20696e76616c69a2646970667358221220b934bd0a2c2c0cd788279ec260b0b758fb3b42ed9d0f096d2b90536610044a9564736f6c63430008110033",
  "devdoc": {
    "kind": "dev",
    "methods": {
      "addTrustedOrganizations((address,address,address,uint256,uint256)[])": {
        "details": "Adds a list of addresses into the trusted organization. Requirements: - The weights should larger than 0. - The method caller is admin. - The field `addedBlock` should be blank. Emits the event `TrustedOrganizationAdded` once an organization is added."
      },
      "checkThreshold(uint256)": {
        "details": "Checks whether the `_voteWeight` passes the threshold."
      },
      "countTrustedOrganizations()": {
        "details": "Returns the number of trusted organizations."
      },
      "getAllTrustedOrganizations()": {
        "details": "Returns all of the trusted organizations."
      },
      "getBridgeVoterWeight(address)": {
        "details": "Returns the weight of a bridge voter."
      },
      "getBridgeVoterWeights(address[])": {
        "details": "Returns the weights of a list of bridge voter addresses."
      },
      "getConsensusWeight(address)": {
        "details": "Returns the weight of a consensus."
      },
      "getConsensusWeights(address[])": {
        "details": "Returns the weights of a list of consensus addresses."
      },
      "getGovernorWeight(address)": {
        "details": "Returns the weight of a governor."
      },
      "getGovernorWeights(address[])": {
        "details": "Returns the weights of a list of governor addresses."
      },
      "getThreshold()": {
        "details": "Returns the threshold."
      },
      "getTrustedOrganization(address)": {
        "details": "Returns the trusted organization by consensus address. Reverts once the consensus address is non-existent."
      },
      "getTrustedOrganizationAt(uint256)": {
        "details": "Returns the trusted organization at `_index`."
      },
      "initialize((address,address,address,uint256,uint256)[],uint256,uint256)": {
        "details": "Initializes the contract storage."
      },
      "minimumVoteWeight()": {
        "details": "Returns the minimum vote weight to pass the threshold."
      },
      "removeTrustedOrganizations(address[])": {
        "details": "Removes a list of addresses from the trusted organization. Requirements: - The method caller is admin. Emits the event `TrustedOrganizationRemoved` once an organization is removed.",
        "params": {
          "_consensusAddrs": "The list of consensus addresses linked to corresponding trusted organization that to be removed."
        }
      },
      "setThreshold(uint256,uint256)": {
        "details": "Sets the threshold. Requirements: - The method caller is admin. Emits the `ThresholdUpdated` event."
      },
      "sumBridgeVoterWeights(address[])": {
        "details": "Returns total weights of the bridge voter list."
      },
      "sumConsensusWeights(address[])": {
        "details": "Returns total weights of the consensus list."
      },
      "sumGovernorWeights(address[])": {
        "details": "Returns total weights of the governor list."
      },
      "totalWeights()": {
        "details": "Returns total weights."
      },
      "updateTrustedOrganizations((address,address,address,uint256,uint256)[])": {
        "details": "Updates weights for a list of existent trusted organization. Requirements: - The weights should larger than 0. - The method caller is admin. Emits the `TrustedOrganizationUpdated` event."
      }
    },
    "stateVariables": {
      "_addedBlock": {
        "details": "Mapping from consensus address => added block"
      },
      "_bridgeVoterList": {
        "details": "Bridge voters array"
      },
      "_bridgeVoterWeight": {
        "details": "Mapping from bridge voter address => weight"
      },
      "_consensusList": {
        "details": "Consensus array"
      },
      "_consensusWeight": {
        "details": "Mapping from consensus address => weight"
      },
      "_governorList": {
        "details": "Governors array"
      },
      "_governorWeight": {
        "details": "Mapping from governor address => weight"
      }
    },
    "version": 1
  },
  "userdoc": {
    "kind": "user",
    "methods": {},
    "version": 1
  },
  "storageLayout": {
    "storage": [
      {
        "astId": 1373,
        "contract": "contracts/multi-chains/RoninTrustedOrganization.sol:RoninTrustedOrganization",
        "label": "_initialized",
        "offset": 0,
        "slot": "0",
        "type": "t_uint8"
      },
      {
        "astId": 1376,
        "contract": "contracts/multi-chains/RoninTrustedOrganization.sol:RoninTrustedOrganization",
        "label": "_initializing",
        "offset": 1,
        "slot": "0",
        "type": "t_bool"
      },
      {
        "astId": 17189,
        "contract": "contracts/multi-chains/RoninTrustedOrganization.sol:RoninTrustedOrganization",
        "label": "_num",
        "offset": 0,
        "slot": "1",
        "type": "t_uint256"
      },
      {
        "astId": 17191,
        "contract": "contracts/multi-chains/RoninTrustedOrganization.sol:RoninTrustedOrganization",
        "label": "_denom",
        "offset": 0,
        "slot": "2",
        "type": "t_uint256"
      },
      {
        "astId": 17193,
        "contract": "contracts/multi-chains/RoninTrustedOrganization.sol:RoninTrustedOrganization",
        "label": "_totalWeight",
        "offset": 0,
        "slot": "3",
        "type": "t_uint256"
      },
      {
        "astId": 17195,
        "contract": "contracts/multi-chains/RoninTrustedOrganization.sol:RoninTrustedOrganization",
        "label": "_nonce",
        "offset": 0,
        "slot": "4",
        "type": "t_uint256"
      },
      {
        "astId": 17200,
        "contract": "contracts/multi-chains/RoninTrustedOrganization.sol:RoninTrustedOrganization",
        "label": "_consensusWeight",
        "offset": 0,
        "slot": "5",
        "type": "t_mapping(t_address,t_uint256)"
      },
      {
        "astId": 17205,
        "contract": "contracts/multi-chains/RoninTrustedOrganization.sol:RoninTrustedOrganization",
        "label": "_governorWeight",
        "offset": 0,
        "slot": "6",
        "type": "t_mapping(t_address,t_uint256)"
      },
      {
        "astId": 17210,
        "contract": "contracts/multi-chains/RoninTrustedOrganization.sol:RoninTrustedOrganization",
        "label": "_bridgeVoterWeight",
        "offset": 0,
        "slot": "7",
        "type": "t_mapping(t_address,t_uint256)"
      },
      {
        "astId": 17215,
        "contract": "contracts/multi-chains/RoninTrustedOrganization.sol:RoninTrustedOrganization",
        "label": "_addedBlock",
        "offset": 0,
        "slot": "8",
        "type": "t_mapping(t_address,t_uint256)"
      },
      {
        "astId": 17219,
        "contract": "contracts/multi-chains/RoninTrustedOrganization.sol:RoninTrustedOrganization",
        "label": "_consensusList",
        "offset": 0,
        "slot": "9",
        "type": "t_array(t_address)dyn_storage"
      },
      {
        "astId": 17223,
        "contract": "contracts/multi-chains/RoninTrustedOrganization.sol:RoninTrustedOrganization",
        "label": "_governorList",
        "offset": 0,
        "slot": "10",
        "type": "t_array(t_address)dyn_storage"
      },
      {
        "astId": 17227,
        "contract": "contracts/multi-chains/RoninTrustedOrganization.sol:RoninTrustedOrganization",
        "label": "_bridgeVoterList",
        "offset": 0,
        "slot": "11",
        "type": "t_array(t_address)dyn_storage"
      }
    ],
    "types": {
      "t_address": {
        "encoding": "inplace",
        "label": "address",
        "numberOfBytes": "20"
      },
      "t_array(t_address)dyn_storage": {
        "base": "t_address",
        "encoding": "dynamic_array",
        "label": "address[]",
        "numberOfBytes": "32"
      },
      "t_bool": {
        "encoding": "inplace",
        "label": "bool",
        "numberOfBytes": "1"
      },
      "t_mapping(t_address,t_uint256)": {
        "encoding": "mapping",
        "key": "t_address",
        "label": "mapping(address => uint256)",
        "numberOfBytes": "32",
        "value": "t_uint256"
      },
      "t_uint256": {
        "encoding": "inplace",
        "label": "uint256",
        "numberOfBytes": "32"
      },
      "t_uint8": {
        "encoding": "inplace",
        "label": "uint8",
        "numberOfBytes": "1"
      }
    }
  }
}