{
  "address": "0x089cf8744bFDd793B0c84537319b4dE45785FB2c",
  "abi": [
    {
      "inputs": [],
      "stateMutability": "nonpayable",
      "type": "constructor"
    },
    {
      "inputs": [],
      "name": "ErrAlreadyRequestedEmergencyExit",
      "type": "error"
    },
    {
      "inputs": [],
      "name": "ErrAlreadyRequestedRevokingCandidate",
      "type": "error"
    },
    {
      "inputs": [],
      "name": "ErrAlreadyRequestedUpdatingCommissionRate",
      "type": "error"
    },
    {
      "inputs": [],
      "name": "ErrAlreadyWrappedEpoch",
      "type": "error"
    },
    {
      "inputs": [],
      "name": "ErrAtEndOfEpochOnly",
      "type": "error"
    },
    {
      "inputs": [],
      "name": "ErrCallPrecompiled",
      "type": "error"
    },
    {
      "inputs": [],
      "name": "ErrCallerMustBeCoinbase",
      "type": "error"
    },
    {
      "inputs": [
        {
          "internalType": "address",
          "name": "validator",
          "type": "address"
        }
      ],
      "name": "ErrCannotBailout",
      "type": "error"
    },
    {
      "inputs": [
        {
          "internalType": "enum ContractType",
          "name": "contractType",
          "type": "uint8"
        }
      ],
      "name": "ErrContractTypeNotFound",
      "type": "error"
    },
    {
      "inputs": [],
      "name": "ErrExceedsMaxNumberOfCandidate",
      "type": "error"
    },
    {
      "inputs": [
        {
          "internalType": "address",
          "name": "_bridgeOperatorAddr",
          "type": "address"
        }
      ],
      "name": "ErrExistentBridgeOperator",
      "type": "error"
    },
    {
      "inputs": [],
      "name": "ErrExistentCandidate",
      "type": "error"
    },
    {
      "inputs": [
        {
          "internalType": "address",
          "name": "_candidateAdminAddr",
          "type": "address"
        }
      ],
      "name": "ErrExistentCandidateAdmin",
      "type": "error"
    },
    {
      "inputs": [
        {
          "internalType": "address",
          "name": "_treasuryAddr",
          "type": "address"
        }
      ],
      "name": "ErrExistentTreasury",
      "type": "error"
    },
    {
      "inputs": [
        {
          "internalType": "bytes4",
          "name": "msgSig",
          "type": "bytes4"
        },
        {
          "internalType": "uint256",
          "name": "currentBalance",
          "type": "uint256"
        },
        {
          "internalType": "uint256",
          "name": "sendAmount",
          "type": "uint256"
        }
      ],
      "name": "ErrInsufficientBalance",
      "type": "error"
    },
    {
      "inputs": [],
      "name": "ErrInvalidCommissionRate",
      "type": "error"
    },
    {
      "inputs": [],
      "name": "ErrInvalidEffectiveDaysOnwards",
      "type": "error"
    },
    {
      "inputs": [],
      "name": "ErrInvalidMaxPrioritizedValidatorNumber",
      "type": "error"
    },
    {
      "inputs": [],
      "name": "ErrInvalidMinEffectiveDaysOnwards",
      "type": "error"
    },
    {
      "inputs": [],
      "name": "ErrNonExistentCandidate",
      "type": "error"
    },
    {
      "inputs": [
        {
          "internalType": "bytes4",
          "name": "msgSig",
          "type": "bytes4"
        }
      ],
      "name": "ErrRecipientRevert",
      "type": "error"
    },
    {
      "inputs": [],
      "name": "ErrTrustedOrgCannotRenounce",
      "type": "error"
    },
    {
      "inputs": [
        {
          "internalType": "bytes4",
          "name": "msgSig",
          "type": "bytes4"
        },
        {
          "internalType": "enum RoleAccess",
          "name": "expectedRole",
          "type": "uint8"
        }
      ],
      "name": "ErrUnauthorized",
      "type": "error"
    },
    {
      "inputs": [],
      "name": "ErrUnauthorizedReceiveRON",
      "type": "error"
    },
    {
      "inputs": [
        {
          "internalType": "bytes4",
          "name": "msgSig",
          "type": "bytes4"
        },
        {
          "internalType": "enum ContractType",
          "name": "expectedContractType",
          "type": "uint8"
        },
        {
          "internalType": "address",
          "name": "actual",
          "type": "address"
        }
      ],
      "name": "ErrUnexpectedInternalCall",
      "type": "error"
    },
    {
      "inputs": [
        {
          "internalType": "address",
          "name": "addr",
          "type": "address"
        }
      ],
      "name": "ErrZeroCodeContract",
      "type": "error"
    },
    {
      "inputs": [],
      "name": "NonExistentRecyclingInfo",
      "type": "error"
    },
    {
      "anonymous": false,
      "inputs": [
        {
          "indexed": true,
          "internalType": "uint256",
          "name": "period",
          "type": "uint256"
        },
        {
          "indexed": true,
          "internalType": "uint256",
          "name": "epoch",
          "type": "uint256"
        },
        {
          "indexed": false,
          "internalType": "address[]",
          "name": "consensusAddrs",
          "type": "address[]"
        }
      ],
      "name": "BlockProducerSetUpdated",
      "type": "event"
    },
    {
      "anonymous": false,
      "inputs": [
        {
          "indexed": true,
          "internalType": "address",
          "name": "coinbaseAddr",
          "type": "address"
        },
        {
          "indexed": false,
          "internalType": "uint256",
          "name": "rewardAmount",
          "type": "uint256"
        },
        {
          "indexed": false,
          "internalType": "enum ICoinbaseExecution.BlockRewardDeprecatedType",
          "name": "deprecatedType",
          "type": "uint8"
        }
      ],
      "name": "BlockRewardDeprecated",
      "type": "event"
    },
    {
      "anonymous": false,
      "inputs": [
        {
          "indexed": true,
          "internalType": "address",
          "name": "coinbaseAddr",
          "type": "address"
        },
        {
          "indexed": false,
          "internalType": "uint256",
          "name": "submittedAmount",
          "type": "uint256"
        },
        {
          "indexed": false,
          "internalType": "uint256",
          "name": "bonusAmount",
          "type": "uint256"
        }
      ],
      "name": "BlockRewardSubmitted",
      "type": "event"
    },
    {
      "anonymous": false,
      "inputs": [
        {
          "indexed": true,
          "internalType": "address",
          "name": "consensusAddr",
          "type": "address"
        },
        {
          "indexed": true,
          "internalType": "address",
          "name": "bridgeOperator",
          "type": "address"
        },
        {
          "indexed": true,
          "internalType": "address",
          "name": "recipientAddr",
          "type": "address"
        },
        {
          "indexed": false,
          "internalType": "uint256",
          "name": "amount",
          "type": "uint256"
        }
      ],
      "name": "BridgeOperatorRewardDistributed",
      "type": "event"
    },
    {
      "anonymous": false,
      "inputs": [
        {
          "indexed": true,
          "internalType": "address",
          "name": "consensusAddr",
          "type": "address"
        },
        {
          "indexed": true,
          "internalType": "address",
          "name": "bridgeOperator",
          "type": "address"
        },
        {
          "indexed": true,
          "internalType": "address",
          "name": "recipient",
          "type": "address"
        },
        {
          "indexed": false,
          "internalType": "uint256",
          "name": "amount",
          "type": "uint256"
        },
        {
          "indexed": false,
          "internalType": "uint256",
          "name": "contractBalance",
          "type": "uint256"
        }
      ],
      "name": "BridgeOperatorRewardDistributionFailed",
      "type": "event"
    },
    {
      "anonymous": false,
      "inputs": [
        {
          "indexed": true,
          "internalType": "uint256",
          "name": "period",
          "type": "uint256"
        },
        {
          "indexed": true,
          "internalType": "uint256",
          "name": "epoch",
          "type": "uint256"
        },
        {
          "indexed": false,
          "internalType": "address[]",
          "name": "bridgeOperators",
          "type": "address[]"
        }
      ],
      "name": "BridgeOperatorSetUpdated",
      "type": "event"
    },
    {
      "anonymous": false,
      "inputs": [],
      "name": "BridgeTrackingIncorrectlyResponded",
      "type": "event"
    },
    {
      "anonymous": false,
      "inputs": [
        {
          "indexed": true,
          "internalType": "address",
          "name": "consensusAddr",
          "type": "address"
        },
        {
          "indexed": true,
          "internalType": "address",
          "name": "treasuryAddr",
          "type": "address"
        },
        {
          "indexed": true,
          "internalType": "address",
          "name": "admin",
          "type": "address"
        },
        {
          "indexed": false,
          "internalType": "address",
          "name": "bridgeOperator",
          "type": "address"
        }
      ],
      "name": "CandidateGranted",
      "type": "event"
    },
    {
      "anonymous": false,
      "inputs": [
        {
          "indexed": true,
          "internalType": "address",
          "name": "consensusAddr",
          "type": "address"
        },
        {
          "indexed": false,
          "internalType": "uint256",
          "name": "revokingTimestamp",
          "type": "uint256"
        }
      ],
      "name": "CandidateRevokingTimestampUpdated",
      "type": "event"
    },
    {
      "anonymous": false,
      "inputs": [
        {
          "indexed": true,
          "internalType": "address",
          "name": "consensusAddr",
          "type": "address"
        },
        {
          "indexed": false,
          "internalType": "uint256",
          "name": "topupDeadline",
          "type": "uint256"
        }
      ],
      "name": "CandidateTopupDeadlineUpdated",
      "type": "event"
    },
    {
      "anonymous": false,
      "inputs": [
        {
          "indexed": false,
          "internalType": "address[]",
          "name": "consensusAddrs",
          "type": "address[]"
        }
      ],
      "name": "CandidatesRevoked",
      "type": "event"
    },
    {
      "anonymous": false,
      "inputs": [
        {
          "indexed": true,
          "internalType": "address",
          "name": "consensusAddr",
          "type": "address"
        },
        {
          "indexed": false,
          "internalType": "uint256",
          "name": "effectiveTimestamp",
          "type": "uint256"
        },
        {
          "indexed": false,
          "internalType": "uint256",
          "name": "rate",
          "type": "uint256"
        }
      ],
      "name": "CommissionRateUpdateScheduled",
      "type": "event"
    },
    {
      "anonymous": false,
      "inputs": [
        {
          "indexed": true,
          "internalType": "address",
          "name": "consensusAddr",
          "type": "address"
        },
        {
          "indexed": false,
          "internalType": "uint256",
          "name": "rate",
          "type": "uint256"
        }
      ],
      "name": "CommissionRateUpdated",
      "type": "event"
    },
    {
      "anonymous": false,
      "inputs": [
        {
          "indexed": true,
          "internalType": "enum ContractType",
          "name": "contractType",
          "type": "uint8"
        },
        {
          "indexed": true,
          "internalType": "address",
          "name": "addr",
          "type": "address"
        }
      ],
      "name": "ContractUpdated",
      "type": "event"
    },
    {
      "anonymous": false,
      "inputs": [
        {
          "indexed": true,
          "internalType": "address",
          "name": "recipientAddr",
          "type": "address"
        },
        {
          "indexed": false,
          "internalType": "uint256",
          "name": "amount",
          "type": "uint256"
        },
        {
          "indexed": false,
          "internalType": "uint256",
          "name": "balance",
          "type": "uint256"
        }
      ],
      "name": "DeprecatedRewardRecycleFailed",
      "type": "event"
    },
    {
      "anonymous": false,
      "inputs": [
        {
          "indexed": true,
          "internalType": "address",
          "name": "recipientAddr",
          "type": "address"
        },
        {
          "indexed": false,
          "internalType": "uint256",
          "name": "amount",
          "type": "uint256"
        }
      ],
      "name": "DeprecatedRewardRecycled",
      "type": "event"
    },
    {
      "anonymous": false,
      "inputs": [
        {
          "indexed": false,
          "internalType": "uint256",
          "name": "amount",
          "type": "uint256"
        }
      ],
      "name": "EmergencyExitLockedAmountUpdated",
      "type": "event"
    },
    {
      "anonymous": false,
      "inputs": [
        {
          "indexed": true,
          "internalType": "address",
          "name": "consensusAddr",
          "type": "address"
        },
        {
          "indexed": true,
          "internalType": "address",
          "name": "recipient",
          "type": "address"
        },
        {
          "indexed": false,
          "internalType": "uint256",
          "name": "unlockedAmount",
          "type": "uint256"
        }
      ],
      "name": "EmergencyExitLockedFundReleased",
      "type": "event"
    },
    {
      "anonymous": false,
      "inputs": [
        {
          "indexed": true,
          "internalType": "address",
          "name": "consensusAddr",
          "type": "address"
        },
        {
          "indexed": true,
          "internalType": "address",
          "name": "recipient",
          "type": "address"
        },
        {
          "indexed": false,
          "internalType": "uint256",
          "name": "unlockedAmount",
          "type": "uint256"
        },
        {
          "indexed": false,
          "internalType": "uint256",
          "name": "contractBalance",
          "type": "uint256"
        }
      ],
      "name": "EmergencyExitLockedFundReleasingFailed",
      "type": "event"
    },
    {
      "anonymous": false,
      "inputs": [
        {
          "indexed": true,
          "internalType": "address",
          "name": "consensusAddr",
          "type": "address"
        },
        {
          "indexed": false,
          "internalType": "uint256",
          "name": "lockedAmount",
          "type": "uint256"
        }
      ],
      "name": "EmergencyExitRequested",
      "type": "event"
    },
    {
      "anonymous": false,
      "inputs": [
        {
          "indexed": false,
          "internalType": "uint256",
          "name": "amount",
          "type": "uint256"
        }
      ],
      "name": "EmergencyExpiryDurationUpdated",
      "type": "event"
    },
    {
      "anonymous": false,
      "inputs": [
        {
          "indexed": false,
          "internalType": "uint8",
          "name": "version",
          "type": "uint8"
        }
      ],
      "name": "Initialized",
      "type": "event"
    },
    {
      "anonymous": false,
      "inputs": [
        {
          "indexed": false,
          "internalType": "uint256",
          "name": "",
          "type": "uint256"
        }
      ],
      "name": "MaxPrioritizedValidatorNumberUpdated",
      "type": "event"
    },
    {
      "anonymous": false,
      "inputs": [
        {
          "indexed": false,
          "internalType": "uint256",
          "name": "threshold",
          "type": "uint256"
        }
      ],
      "name": "MaxValidatorCandidateUpdated",
      "type": "event"
    },
    {
      "anonymous": false,
      "inputs": [
        {
          "indexed": false,
          "internalType": "uint256",
          "name": "",
          "type": "uint256"
        }
      ],
      "name": "MaxValidatorNumberUpdated",
      "type": "event"
    },
    {
      "anonymous": false,
      "inputs": [
        {
          "indexed": false,
          "internalType": "uint256",
          "name": "numOfDays",
          "type": "uint256"
        }
      ],
      "name": "MinEffectiveDaysOnwardsUpdated",
      "type": "event"
    },
    {
      "anonymous": false,
      "inputs": [
        {
          "indexed": true,
          "internalType": "address",
          "name": "consensusAddr",
          "type": "address"
        },
        {
          "indexed": true,
          "internalType": "address",
          "name": "recipient",
          "type": "address"
        },
        {
          "indexed": false,
          "internalType": "uint256",
          "name": "amount",
          "type": "uint256"
        }
      ],
      "name": "MiningRewardDistributed",
      "type": "event"
    },
    {
      "anonymous": false,
      "inputs": [
        {
          "indexed": true,
          "internalType": "address",
          "name": "consensusAddr",
          "type": "address"
        },
        {
          "indexed": true,
          "internalType": "address",
          "name": "recipient",
          "type": "address"
        },
        {
          "indexed": false,
          "internalType": "uint256",
          "name": "amount",
          "type": "uint256"
        },
        {
          "indexed": false,
          "internalType": "uint256",
          "name": "contractBalance",
          "type": "uint256"
        }
      ],
      "name": "MiningRewardDistributionFailed",
      "type": "event"
    },
    {
      "anonymous": false,
      "inputs": [
        {
          "indexed": false,
          "internalType": "uint256",
          "name": "totalAmount",
          "type": "uint256"
        },
        {
          "indexed": false,
          "internalType": "address[]",
          "name": "consensusAddrs",
          "type": "address[]"
        },
        {
          "indexed": false,
          "internalType": "uint256[]",
          "name": "amounts",
          "type": "uint256[]"
        }
      ],
      "name": "StakingRewardDistributed",
      "type": "event"
    },
    {
      "anonymous": false,
      "inputs": [
        {
          "indexed": false,
          "internalType": "uint256",
          "name": "totalAmount",
          "type": "uint256"
        },
        {
          "indexed": false,
          "internalType": "address[]",
          "name": "consensusAddrs",
          "type": "address[]"
        },
        {
          "indexed": false,
          "internalType": "uint256[]",
          "name": "amounts",
          "type": "uint256[]"
        },
        {
          "indexed": false,
          "internalType": "uint256",
          "name": "contractBalance",
          "type": "uint256"
        }
      ],
      "name": "StakingRewardDistributionFailed",
      "type": "event"
    },
    {
      "anonymous": false,
      "inputs": [
        {
          "indexed": true,
          "internalType": "address",
          "name": "consensusAddr",
          "type": "address"
        },
        {
          "indexed": true,
          "internalType": "uint256",
          "name": "period",
          "type": "uint256"
        },
        {
          "indexed": false,
          "internalType": "uint256",
          "name": "jailedUntil",
          "type": "uint256"
        },
        {
          "indexed": false,
          "internalType": "uint256",
          "name": "deductedStakingAmount",
          "type": "uint256"
        },
        {
          "indexed": false,
          "internalType": "bool",
          "name": "blockProducerRewardDeprecated",
          "type": "bool"
        },
        {
          "indexed": false,
          "internalType": "bool",
          "name": "bridgeOperatorRewardDeprecated",
          "type": "bool"
        }
      ],
      "name": "ValidatorPunished",
      "type": "event"
    },
    {
      "anonymous": false,
      "inputs": [
        {
          "indexed": true,
          "internalType": "uint256",
          "name": "period",
          "type": "uint256"
        },
        {
          "indexed": false,
          "internalType": "address[]",
          "name": "consensusAddrs",
          "type": "address[]"
        }
      ],
      "name": "ValidatorSetUpdated",
      "type": "event"
    },
    {
      "anonymous": false,
      "inputs": [
        {
          "indexed": true,
          "internalType": "address",
          "name": "validator",
          "type": "address"
        },
        {
          "indexed": false,
          "internalType": "uint256",
          "name": "period",
          "type": "uint256"
        }
      ],
      "name": "ValidatorUnjailed",
      "type": "event"
    },
    {
      "anonymous": false,
      "inputs": [
        {
          "indexed": true,
          "internalType": "uint256",
          "name": "periodNumber",
          "type": "uint256"
        },
        {
          "indexed": true,
          "internalType": "uint256",
          "name": "epochNumber",
          "type": "uint256"
        },
        {
          "indexed": false,
          "internalType": "bool",
          "name": "periodEnding",
          "type": "bool"
        }
      ],
      "name": "WrappedUpEpoch",
      "type": "event"
    },
    {
      "stateMutability": "payable",
      "type": "fallback"
    },
    {
      "inputs": [],
      "name": "DEFAULT_ADDITION_GAS",
      "outputs": [
        {
          "internalType": "uint256",
          "name": "",
          "type": "uint256"
        }
      ],
      "stateMutability": "view",
      "type": "function"
    },
    {
      "inputs": [],
      "name": "PERIOD_DURATION",
      "outputs": [
        {
          "internalType": "uint256",
          "name": "",
          "type": "uint256"
        }
      ],
      "stateMutability": "view",
      "type": "function"
    },
    {
      "inputs": [
        {
          "internalType": "address",
          "name": "_consensusAddr",
          "type": "address"
        }
      ],
      "name": "checkBridgeRewardDeprecatedAtLatestPeriod",
      "outputs": [
        {
          "internalType": "bool",
          "name": "_result",
          "type": "bool"
        }
      ],
      "stateMutability": "view",
      "type": "function"
    },
    {
      "inputs": [
        {
          "internalType": "address",
          "name": "_consensusAddr",
          "type": "address"
        },
        {
          "internalType": "uint256",
          "name": "_period",
          "type": "uint256"
        }
      ],
      "name": "checkBridgeRewardDeprecatedAtPeriod",
      "outputs": [
        {
          "internalType": "bool",
          "name": "_result",
          "type": "bool"
        }
      ],
      "stateMutability": "view",
      "type": "function"
    },
    {
      "inputs": [
        {
          "internalType": "address",
          "name": "_addr",
          "type": "address"
        }
      ],
      "name": "checkJailed",
      "outputs": [
        {
          "internalType": "bool",
          "name": "",
          "type": "bool"
        }
      ],
      "stateMutability": "view",
      "type": "function"
    },
    {
      "inputs": [
        {
          "internalType": "address",
          "name": "_addr",
          "type": "address"
        },
        {
          "internalType": "uint256",
          "name": "_blockNum",
          "type": "uint256"
        }
      ],
      "name": "checkJailedAtBlock",
      "outputs": [
        {
          "internalType": "bool",
          "name": "",
          "type": "bool"
        }
      ],
      "stateMutability": "view",
      "type": "function"
    },
    {
      "inputs": [
        {
          "internalType": "address[]",
          "name": "_addrList",
          "type": "address[]"
        }
      ],
      "name": "checkManyJailed",
      "outputs": [
        {
          "internalType": "bool[]",
          "name": "_result",
          "type": "bool[]"
        }
      ],
      "stateMutability": "view",
      "type": "function"
    },
    {
      "inputs": [
        {
          "internalType": "address",
          "name": "_blockProducer",
          "type": "address"
        }
      ],
      "name": "checkMiningRewardDeprecated",
      "outputs": [
        {
          "internalType": "bool",
          "name": "_result",
          "type": "bool"
        }
      ],
      "stateMutability": "view",
      "type": "function"
    },
    {
      "inputs": [
        {
          "internalType": "address",
          "name": "_blockProducer",
          "type": "address"
        },
        {
          "internalType": "uint256",
          "name": "_period",
          "type": "uint256"
        }
      ],
      "name": "checkMiningRewardDeprecatedAtPeriod",
      "outputs": [
        {
          "internalType": "bool",
          "name": "_result",
          "type": "bool"
        }
      ],
      "stateMutability": "view",
      "type": "function"
    },
    {
      "inputs": [],
      "name": "currentPeriod",
      "outputs": [
        {
          "internalType": "uint256",
          "name": "",
          "type": "uint256"
        }
      ],
      "stateMutability": "view",
      "type": "function"
    },
    {
      "inputs": [],
      "name": "currentPeriodStartAtBlock",
      "outputs": [
        {
          "internalType": "uint256",
          "name": "",
          "type": "uint256"
        }
      ],
      "stateMutability": "view",
      "type": "function"
    },
    {
      "inputs": [],
      "name": "emergencyExitLockedAmount",
      "outputs": [
        {
          "internalType": "uint256",
          "name": "",
          "type": "uint256"
        }
      ],
      "stateMutability": "view",
      "type": "function"
    },
    {
      "inputs": [],
      "name": "emergencyExpiryDuration",
      "outputs": [
        {
          "internalType": "uint256",
          "name": "",
          "type": "uint256"
        }
      ],
      "stateMutability": "view",
      "type": "function"
    },
    {
      "inputs": [
        {
          "internalType": "uint256",
          "name": "_block",
          "type": "uint256"
        }
      ],
      "name": "epochEndingAt",
      "outputs": [
        {
          "internalType": "bool",
          "name": "",
          "type": "bool"
        }
      ],
      "stateMutability": "view",
      "type": "function"
    },
    {
      "inputs": [
        {
          "internalType": "uint256",
          "name": "_block",
          "type": "uint256"
        }
      ],
      "name": "epochOf",
      "outputs": [
        {
          "internalType": "uint256",
          "name": "",
          "type": "uint256"
        }
      ],
      "stateMutability": "view",
      "type": "function"
    },
    {
      "inputs": [
        {
          "internalType": "address",
          "name": "_candidateAdmin",
          "type": "address"
        },
        {
          "internalType": "address",
          "name": "_consensusAddr",
          "type": "address"
        },
        {
          "internalType": "address payable",
          "name": "_treasuryAddr",
          "type": "address"
        },
        {
          "internalType": "address",
          "name": "_bridgeOperatorAddr",
          "type": "address"
        },
        {
          "internalType": "uint256",
          "name": "_commissionRate",
          "type": "uint256"
        }
      ],
      "name": "execApplyValidatorCandidate",
      "outputs": [],
      "stateMutability": "nonpayable",
      "type": "function"
    },
    {
      "inputs": [
        {
          "internalType": "address",
          "name": "_validatorAddr",
          "type": "address"
        },
        {
          "internalType": "uint256",
          "name": "_period",
          "type": "uint256"
        }
      ],
      "name": "execBailOut",
      "outputs": [],
      "stateMutability": "nonpayable",
      "type": "function"
    },
    {
      "inputs": [
        {
          "internalType": "address",
          "name": "_consensusAddr",
          "type": "address"
        },
        {
          "internalType": "uint256",
          "name": "_secLeftToRevoke",
          "type": "uint256"
        }
      ],
      "name": "execEmergencyExit",
      "outputs": [],
      "stateMutability": "nonpayable",
      "type": "function"
    },
    {
      "inputs": [
        {
          "internalType": "address",
          "name": "_consensusAddr",
          "type": "address"
        },
        {
          "internalType": "address payable",
          "name": "_recipient",
          "type": "address"
        }
      ],
      "name": "execReleaseLockedFundForEmergencyExitRequest",
      "outputs": [],
      "stateMutability": "nonpayable",
      "type": "function"
    },
    {
      "inputs": [
        {
          "internalType": "address",
          "name": "_consensusAddr",
          "type": "address"
        },
        {
          "internalType": "uint256",
          "name": "_secsLeft",
          "type": "uint256"
        }
      ],
      "name": "execRequestRenounceCandidate",
      "outputs": [],
      "stateMutability": "nonpayable",
      "type": "function"
    },
    {
      "inputs": [
        {
          "internalType": "address",
          "name": "_consensusAddr",
          "type": "address"
        },
        {
          "internalType": "uint256",
          "name": "_effectiveDaysOnwards",
          "type": "uint256"
        },
        {
          "internalType": "uint256",
          "name": "_commissionRate",
          "type": "uint256"
        }
      ],
      "name": "execRequestUpdateCommissionRate",
      "outputs": [],
      "stateMutability": "nonpayable",
      "type": "function"
    },
    {
      "inputs": [
        {
          "internalType": "address",
          "name": "_validatorAddr",
          "type": "address"
        },
        {
          "internalType": "uint256",
          "name": "_newJailedUntil",
          "type": "uint256"
        },
        {
          "internalType": "uint256",
          "name": "_slashAmount",
          "type": "uint256"
        },
        {
          "internalType": "bool",
          "name": "_cannotBailout",
          "type": "bool"
        }
      ],
      "name": "execSlash",
      "outputs": [],
      "stateMutability": "nonpayable",
      "type": "function"
    },
    {
      "inputs": [],
      "name": "getBlockProducers",
      "outputs": [
        {
          "internalType": "address[]",
          "name": "_result",
          "type": "address[]"
        }
      ],
      "stateMutability": "view",
      "type": "function"
    },
    {
      "inputs": [],
      "name": "getBridgeOperators",
      "outputs": [
        {
          "internalType": "address[]",
          "name": "_bridgeOperatorList",
          "type": "address[]"
        },
        {
          "internalType": "address[]",
          "name": "_validatorList",
          "type": "address[]"
        }
      ],
      "stateMutability": "view",
      "type": "function"
    },
    {
      "inputs": [
        {
          "internalType": "address[]",
          "name": "_validatorAddrs",
          "type": "address[]"
        }
      ],
      "name": "getBridgeOperatorsOf",
      "outputs": [
        {
          "internalType": "address[]",
          "name": "_bridgeOperatorList",
          "type": "address[]"
        }
      ],
      "stateMutability": "view",
      "type": "function"
    },
    {
      "inputs": [
        {
          "internalType": "address",
          "name": "_candidate",
          "type": "address"
        }
      ],
      "name": "getCandidateInfo",
      "outputs": [
        {
          "components": [
            {
              "internalType": "address",
              "name": "admin",
              "type": "address"
            },
            {
              "internalType": "address",
              "name": "consensusAddr",
              "type": "address"
            },
            {
              "internalType": "address payable",
              "name": "treasuryAddr",
              "type": "address"
            },
            {
              "internalType": "address",
              "name": "bridgeOperatorAddr",
              "type": "address"
            },
            {
              "internalType": "uint256",
              "name": "commissionRate",
              "type": "uint256"
            },
            {
              "internalType": "uint256",
              "name": "revokingTimestamp",
              "type": "uint256"
            },
            {
              "internalType": "uint256",
              "name": "topupDeadline",
              "type": "uint256"
            }
          ],
          "internalType": "struct ICandidateManager.ValidatorCandidate",
          "name": "",
          "type": "tuple"
        }
      ],
      "stateMutability": "view",
      "type": "function"
    },
    {
      "inputs": [],
      "name": "getCandidateInfos",
      "outputs": [
        {
          "components": [
            {
              "internalType": "address",
              "name": "admin",
              "type": "address"
            },
            {
              "internalType": "address",
              "name": "consensusAddr",
              "type": "address"
            },
            {
              "internalType": "address payable",
              "name": "treasuryAddr",
              "type": "address"
            },
            {
              "internalType": "address",
              "name": "bridgeOperatorAddr",
              "type": "address"
            },
            {
              "internalType": "uint256",
              "name": "commissionRate",
              "type": "uint256"
            },
            {
              "internalType": "uint256",
              "name": "revokingTimestamp",
              "type": "uint256"
            },
            {
              "internalType": "uint256",
              "name": "topupDeadline",
              "type": "uint256"
            }
          ],
          "internalType": "struct ICandidateManager.ValidatorCandidate[]",
          "name": "_list",
          "type": "tuple[]"
        }
      ],
      "stateMutability": "view",
      "type": "function"
    },
    {
      "inputs": [
        {
          "internalType": "address",
          "name": "_candidate",
          "type": "address"
        }
      ],
      "name": "getCommissionChangeSchedule",
      "outputs": [
        {
          "components": [
            {
              "internalType": "uint256",
              "name": "effectiveTimestamp",
              "type": "uint256"
            },
            {
              "internalType": "uint256",
              "name": "commissionRate",
              "type": "uint256"
            }
          ],
          "internalType": "struct ICandidateManager.CommissionSchedule",
          "name": "",
          "type": "tuple"
        }
      ],
      "stateMutability": "view",
      "type": "function"
    },
    {
      "inputs": [
        {
          "internalType": "enum ContractType",
          "name": "contractType",
          "type": "uint8"
        }
      ],
      "name": "getContract",
      "outputs": [
        {
          "internalType": "address",
          "name": "contract_",
          "type": "address"
        }
      ],
      "stateMutability": "view",
      "type": "function"
    },
    {
      "inputs": [
        {
          "internalType": "address",
          "name": "_consensusAddr",
          "type": "address"
        }
      ],
      "name": "getEmergencyExitInfo",
      "outputs": [
        {
          "components": [
            {
              "internalType": "uint256",
              "name": "lockedAmount",
              "type": "uint256"
            },
            {
              "internalType": "uint256",
              "name": "recyclingAt",
              "type": "uint256"
            }
          ],
          "internalType": "struct ICommonInfo.EmergencyExitInfo",
          "name": "_info",
          "type": "tuple"
        }
      ],
      "stateMutability": "view",
      "type": "function"
    },
    {
      "inputs": [
        {
          "internalType": "address",
          "name": "_addr",
          "type": "address"
        }
      ],
      "name": "getJailedTimeLeft",
      "outputs": [
        {
          "internalType": "bool",
          "name": "isJailed_",
          "type": "bool"
        },
        {
          "internalType": "uint256",
          "name": "blockLeft_",
          "type": "uint256"
        },
        {
          "internalType": "uint256",
          "name": "epochLeft_",
          "type": "uint256"
        }
      ],
      "stateMutability": "view",
      "type": "function"
    },
    {
      "inputs": [
        {
          "internalType": "address",
          "name": "_addr",
          "type": "address"
        },
        {
          "internalType": "uint256",
          "name": "_blockNum",
          "type": "uint256"
        }
      ],
      "name": "getJailedTimeLeftAtBlock",
      "outputs": [
        {
          "internalType": "bool",
          "name": "isJailed_",
          "type": "bool"
        },
        {
          "internalType": "uint256",
          "name": "blockLeft_",
          "type": "uint256"
        },
        {
          "internalType": "uint256",
          "name": "epochLeft_",
          "type": "uint256"
        }
      ],
      "stateMutability": "view",
      "type": "function"
    },
    {
      "inputs": [],
      "name": "getLastUpdatedBlock",
      "outputs": [
        {
          "internalType": "uint256",
          "name": "",
          "type": "uint256"
        }
      ],
      "stateMutability": "view",
      "type": "function"
    },
    {
      "inputs": [],
      "name": "getValidatorCandidates",
      "outputs": [
        {
          "internalType": "address[]",
          "name": "",
          "type": "address[]"
        }
      ],
      "stateMutability": "view",
      "type": "function"
    },
    {
      "inputs": [],
      "name": "getValidators",
      "outputs": [
        {
          "internalType": "address[]",
          "name": "_validatorList",
          "type": "address[]"
        },
        {
          "internalType": "address[]",
          "name": "_bridgeOperators",
          "type": "address[]"
        },
        {
          "internalType": "enum EnumFlags.ValidatorFlag[]",
          "name": "_flags",
          "type": "uint8[]"
        }
      ],
      "stateMutability": "view",
      "type": "function"
    },
    {
      "inputs": [
        {
          "internalType": "address",
          "name": "__slashIndicatorContract",
          "type": "address"
        },
        {
          "internalType": "address",
          "name": "__stakingContract",
          "type": "address"
        },
        {
          "internalType": "address",
          "name": "__stakingVestingContract",
          "type": "address"
        },
        {
          "internalType": "address",
          "name": "__maintenanceContract",
          "type": "address"
        },
        {
          "internalType": "address",
          "name": "__roninTrustedOrganizationContract",
          "type": "address"
        },
        {
          "internalType": "address",
          "name": "__bridgeTrackingContract",
          "type": "address"
        },
        {
          "internalType": "uint256",
          "name": "__maxValidatorNumber",
          "type": "uint256"
        },
        {
          "internalType": "uint256",
          "name": "__maxValidatorCandidate",
          "type": "uint256"
        },
        {
          "internalType": "uint256",
          "name": "__maxPrioritizedValidatorNumber",
          "type": "uint256"
        },
        {
          "internalType": "uint256",
          "name": "__minEffectiveDaysOnwards",
          "type": "uint256"
        },
        {
          "internalType": "uint256",
          "name": "__numberOfBlocksInEpoch",
          "type": "uint256"
        },
        {
          "internalType": "uint256[2]",
          "name": "__emergencyExitConfigs",
          "type": "uint256[2]"
        }
      ],
      "name": "initialize",
      "outputs": [],
      "stateMutability": "nonpayable",
      "type": "function"
    },
    {
      "inputs": [],
      "name": "initializeV2",
      "outputs": [],
      "stateMutability": "nonpayable",
      "type": "function"
    },
    {
      "inputs": [
        {
          "internalType": "address",
          "name": "_addr",
          "type": "address"
        }
      ],
      "name": "isBlockProducer",
      "outputs": [
        {
          "internalType": "bool",
          "name": "",
          "type": "bool"
        }
      ],
      "stateMutability": "view",
      "type": "function"
    },
    {
      "inputs": [
        {
          "internalType": "address",
          "name": "_bridgeOperatorAddr",
          "type": "address"
        }
      ],
      "name": "isBridgeOperator",
      "outputs": [
        {
          "internalType": "bool",
          "name": "_isOperator",
          "type": "bool"
        }
      ],
      "stateMutability": "view",
      "type": "function"
    },
    {
      "inputs": [
        {
          "internalType": "address",
          "name": "_candidate",
          "type": "address"
        },
        {
          "internalType": "address",
          "name": "_admin",
          "type": "address"
        }
      ],
      "name": "isCandidateAdmin",
      "outputs": [
        {
          "internalType": "bool",
          "name": "",
          "type": "bool"
        }
      ],
      "stateMutability": "view",
      "type": "function"
    },
    {
      "inputs": [
        {
          "internalType": "address",
          "name": "_consensusAddr",
          "type": "address"
        }
      ],
      "name": "isOperatingBridge",
      "outputs": [
        {
          "internalType": "bool",
          "name": "",
          "type": "bool"
        }
      ],
      "stateMutability": "view",
      "type": "function"
    },
    {
      "inputs": [],
      "name": "isPeriodEnding",
      "outputs": [
        {
          "internalType": "bool",
          "name": "",
          "type": "bool"
        }
      ],
      "stateMutability": "view",
      "type": "function"
    },
    {
      "inputs": [
        {
          "internalType": "address",
          "name": "_addr",
          "type": "address"
        }
      ],
      "name": "isValidator",
      "outputs": [
        {
          "internalType": "bool",
          "name": "",
          "type": "bool"
        }
      ],
      "stateMutability": "view",
      "type": "function"
    },
    {
      "inputs": [
        {
          "internalType": "address",
          "name": "_addr",
          "type": "address"
        }
      ],
      "name": "isValidatorCandidate",
      "outputs": [
        {
          "internalType": "bool",
          "name": "",
          "type": "bool"
        }
      ],
      "stateMutability": "view",
      "type": "function"
    },
    {
      "inputs": [],
      "name": "maxPrioritizedValidatorNumber",
      "outputs": [
        {
          "internalType": "uint256",
          "name": "_maximumPrioritizedValidatorNumber",
          "type": "uint256"
        }
      ],
      "stateMutability": "view",
      "type": "function"
    },
    {
      "inputs": [],
      "name": "maxValidatorCandidate",
      "outputs": [
        {
          "internalType": "uint256",
          "name": "",
          "type": "uint256"
        }
      ],
      "stateMutability": "view",
      "type": "function"
    },
    {
      "inputs": [],
      "name": "maxValidatorNumber",
      "outputs": [
        {
          "internalType": "uint256",
          "name": "_maximumValidatorNumber",
          "type": "uint256"
        }
      ],
      "stateMutability": "view",
      "type": "function"
    },
    {
      "inputs": [],
      "name": "minEffectiveDaysOnwards",
      "outputs": [
        {
          "internalType": "uint256",
          "name": "",
          "type": "uint256"
        }
      ],
      "stateMutability": "view",
      "type": "function"
    },
    {
      "inputs": [],
      "name": "numberOfBlocksInEpoch",
      "outputs": [
        {
          "internalType": "uint256",
          "name": "_numberOfBlocks",
          "type": "uint256"
        }
      ],
      "stateMutability": "view",
      "type": "function"
    },
    {
      "inputs": [],
      "name": "precompilePickValidatorSetAddress",
      "outputs": [
        {
          "internalType": "address",
          "name": "",
          "type": "address"
        }
      ],
      "stateMutability": "view",
      "type": "function"
    },
    {
      "inputs": [],
      "name": "precompileSortValidatorsAddress",
      "outputs": [
        {
          "internalType": "address",
          "name": "",
          "type": "address"
        }
      ],
      "stateMutability": "view",
      "type": "function"
    },
    {
      "inputs": [
        {
          "internalType": "enum ContractType",
          "name": "contractType",
          "type": "uint8"
        },
        {
          "internalType": "address",
          "name": "addr",
          "type": "address"
        }
      ],
      "name": "setContract",
      "outputs": [],
      "stateMutability": "nonpayable",
      "type": "function"
    },
    {
      "inputs": [
        {
          "internalType": "uint256",
          "name": "_emergencyExitLockedAmount",
          "type": "uint256"
        }
      ],
      "name": "setEmergencyExitLockedAmount",
      "outputs": [],
      "stateMutability": "nonpayable",
      "type": "function"
    },
    {
      "inputs": [
        {
          "internalType": "uint256",
          "name": "_emergencyExpiryDuration",
          "type": "uint256"
        }
      ],
      "name": "setEmergencyExpiryDuration",
      "outputs": [],
      "stateMutability": "nonpayable",
      "type": "function"
    },
    {
      "inputs": [
        {
          "internalType": "uint256",
          "name": "_number",
          "type": "uint256"
        }
      ],
      "name": "setMaxPrioritizedValidatorNumber",
      "outputs": [],
      "stateMutability": "nonpayable",
      "type": "function"
    },
    {
      "inputs": [
        {
          "internalType": "uint256",
          "name": "_number",
          "type": "uint256"
        }
      ],
      "name": "setMaxValidatorCandidate",
      "outputs": [],
      "stateMutability": "nonpayable",
      "type": "function"
    },
    {
      "inputs": [
        {
          "internalType": "uint256",
          "name": "_max",
          "type": "uint256"
        }
      ],
      "name": "setMaxValidatorNumber",
      "outputs": [],
      "stateMutability": "nonpayable",
      "type": "function"
    },
    {
      "inputs": [
        {
          "internalType": "uint256",
          "name": "_numOfDays",
          "type": "uint256"
        }
      ],
      "name": "setMinEffectiveDaysOnwards",
      "outputs": [],
      "stateMutability": "nonpayable",
      "type": "function"
    },
    {
      "inputs": [],
      "name": "submitBlockReward",
      "outputs": [],
      "stateMutability": "payable",
      "type": "function"
    },
    {
      "inputs": [],
      "name": "totalBlockProducers",
      "outputs": [
        {
          "internalType": "uint256",
          "name": "_total",
          "type": "uint256"
        }
      ],
      "stateMutability": "view",
      "type": "function"
    },
    {
      "inputs": [],
      "name": "totalBridgeOperators",
      "outputs": [
        {
          "internalType": "uint256",
          "name": "_total",
          "type": "uint256"
        }
      ],
      "stateMutability": "view",
      "type": "function"
    },
    {
      "inputs": [],
      "name": "totalDeprecatedReward",
      "outputs": [
        {
          "internalType": "uint256",
          "name": "",
          "type": "uint256"
        }
      ],
      "stateMutability": "view",
      "type": "function"
    },
    {
      "inputs": [
        {
          "internalType": "uint256",
          "name": "_epoch",
          "type": "uint256"
        }
      ],
      "name": "tryGetPeriodOfEpoch",
      "outputs": [
        {
          "internalType": "bool",
          "name": "_filled",
          "type": "bool"
        },
        {
          "internalType": "uint256",
          "name": "_periodNumber",
          "type": "uint256"
        }
      ],
      "stateMutability": "view",
      "type": "function"
    },
    {
      "inputs": [],
      "name": "validatorCount",
      "outputs": [
        {
          "internalType": "uint256",
          "name": "",
          "type": "uint256"
        }
      ],
      "stateMutability": "view",
      "type": "function"
    },
    {
      "inputs": [],
      "name": "wrapUpEpoch",
      "outputs": [],
      "stateMutability": "payable",
      "type": "function"
    },
    {
      "stateMutability": "payable",
      "type": "receive"
    }
  ],
  "transactionHash": "0x4f97dda367330709301cd86242fca40c230ef04aa3f48ff6ab13d5e99e4833e7",
  "args": [],
  "numDeployments": 9,
  "solcInputHash": "3299d34e365adc9e996c392b1b635253",
  "bytecode": "0x60806040523480156200001157600080fd5b506200001c62000022565b620000e4565b600054610100900460ff16156200008f5760405162461bcd60e51b815260206004820152602760248201527f496e697469616c697a61626c653a20636f6e747261637420697320696e697469604482015266616c697a696e6760c81b606482015260840160405180910390fd5b60005460ff9081161015620000e2576000805460ff191660ff9081179091556040519081527f7f26b83ff96e1f2b6a682f133852f6798a09c465da95921460cefb38474024989060200160405180910390a15b565b615bbf80620000f46000396000f3fe6080604052600436106102f25760003560e01c806365244ece1161018d57806365244ece1461070f5780636558954f1461072f5780636611f84314610746578063690b7536146107665780636aa1c2ef1461077b57806372e46810146107905780637593ff7114610798578063823a7b9c146107b8578063865e6fd3146107d8578063873a5a70146107f857806387c891bd146108185780638d559c381461082d57806396585fc2146108415780639b19dbfd146108615780639e94b9ec14610884578063a0c3f2d214610899578063a3d545f5146108b9578063a66c0f77146108d9578063a7c2f119146108ee578063b405aaf21461090e578063b7ab4db51461092e578063ba77b06c14610952578063c3c8b5d614610967578063c94aaa0214610987578063cba44de9146109a7578063d09f1ab4146109bc578063d5a0744f146109d1578063dd716ad3146109f1578063de981f1b14610a11578063e5125a1d14610a31578063edb194bb14610a51578063eeb629a814610ab3578063facd743b14610ac857610301565b8063038278841461030957806304d971ab1461033257806306040618146103625780630f43a677146103775780631104e5281461038d57806311662dc2146103ad5780631196ab66146103ea57806315b5ebde1461040a5780631ab4a34c1461042a5780631f6288011461044a578063217f35c21461046a57806323c65eb01461047f57806328bde1e11461049f5780632924de71146104cc578063297a8fca146104ec5780632d784a98146105015780632f78204c1461052e57806331a8aef51461054e578063367ec12b1461056e5780633b3159b61461058e5780634244d4c9146105ab578063468c96ae146105d857806349096d261461060f5780634d8df063146106245780634de2b735146106445780634ee4d72b146106715780634f2a693f1461068657806352091f17146106a65780635248184a146106ae578063562d5304146106d05780635cd8a76b146106e5578063605239a1146106fa57610301565b36610301576102ff610ae8565b005b6102ff610ae8565b34801561031557600080fd5b5061031f6104b081565b6040519081526020015b60405180910390f35b34801561033e57600080fd5b5061035261034d366004614ee3565b610b51565b6040519015158152602001610329565b34801561036e57600080fd5b5061031f610b78565b34801561038357600080fd5b5061031f60aa5481565b34801561039957600080fd5b506102ff6103a8366004614f1c565b610b88565b3480156103b957600080fd5b506103cd6103c8366004614f80565b610de5565b604080519315158452602084019290925290820152606001610329565b3480156103f657600080fd5b506102ff610405366004614fac565b610e68565b34801561041657600080fd5b506102ff610425366004614f80565b610e7c565b34801561043657600080fd5b50610352610445366004614fc5565b610f74565b34801561045657600080fd5b50610352610465366004614fc5565b610f9e565b34801561047657600080fd5b50610352610fd8565b34801561048b57600080fd5b5061035261049a366004614f80565b610fed565b3480156104ab57600080fd5b506104bf6104ba366004614fc5565b610ff9565b6040516103299190615036565b3480156104d857600080fd5b506103526104e7366004614fc5565b61109c565b3480156104f857600080fd5b5060045461031f565b34801561050d57600080fd5b5061052161051c366004614fc5565b6110a8565b6040516103299190615044565b34801561053a57600080fd5b506102ff610549366004615069565b61110a565b34801561055a57600080fd5b50610352610569366004614f80565b611308565b34801561057a57600080fd5b506102ff6105893660046150c4565b611314565b34801561059a57600080fd5b5060685b604051610329919061518a565b3480156105b757600080fd5b506105cb6105c6366004615207565b611452565b60405161032991906152e9565b3480156105e457600080fd5b506105f86105f3366004614fac565b6114ff565b604080519215158352602083019190915201610329565b34801561061b57600080fd5b506105cb61153d565b34801561063057600080fd5b506102ff61063f366004614fac565b61161c565b34801561065057600080fd5b5061066461065f3660046152fc565b61162d565b6040516103299190615370565b34801561067d57600080fd5b5060e45461031f565b34801561069257600080fd5b506102ff6106a1366004614fac565b6116de565b6102ff6116ef565b3480156106ba57600080fd5b506106c3611a8f565b60405161032991906153b6565b3480156106dc57600080fd5b5061031f611bb4565b3480156106f157600080fd5b506102ff611bf7565b34801561070657600080fd5b5060725461031f565b34801561071b57600080fd5b5061035261072a366004614fc5565b611d48565b34801561073b57600080fd5b5061031f6201518081565b34801561075257600080fd5b506102ff610761366004614fac565b611d7c565b34801561077257600080fd5b5060e55461031f565b34801561078757600080fd5b5060015461031f565b6102ff611d8d565b3480156107a457600080fd5b506103526107b3366004614fac565b611fdc565b3480156107c457600080fd5b506102ff6107d3366004614fac565b612000565b3480156107e457600080fd5b506102ff6107f3366004615407565b612011565b34801561080457600080fd5b50610352610813366004614fc5565b612030565b34801561082457600080fd5b5060025461031f565b34801561083957600080fd5b50606661059e565b34801561084d57600080fd5b506103cd61085c366004614fc5565b612047565b34801561086d57600080fd5b50610876612063565b604051610329929190615423565b34801561089057600080fd5b5061031f6121c6565b3480156108a557600080fd5b506103526108b4366004614fc5565b612209565b3480156108c557600080fd5b5061031f6108d4366004614fac565b612226565b3480156108e557600080fd5b5060e65461031f565b3480156108fa57600080fd5b506102ff610909366004614f80565b612231565b34801561091a57600080fd5b50610352610929366004614fc5565b6124ac565b34801561093a57600080fd5b50610943612527565b60405161032993929190615467565b34801561095e57600080fd5b506105cb6126fa565b34801561097357600080fd5b506102ff610982366004614ee3565b61275c565b34801561099357600080fd5b506102ff6109a2366004614fac565b6129b3565b3480156109b357600080fd5b5060765461031f565b3480156109c857600080fd5b5060a95461031f565b3480156109dd57600080fd5b506103526109ec366004614f80565b6129c4565b3480156109fd57600080fd5b506102ff610a0c366004614f80565b6129d0565b348015610a1d57600080fd5b5061059e610a2c3660046154e0565b612a56565b348015610a3d57600080fd5b506102ff610a4c3660046154fb565b612ab3565b348015610a5d57600080fd5b50610521610a6c366004614fc5565b6040805180820190915260008082526020820152506001600160a01b0316600090815260776020908152604091829020825180840190935280548352600101549082015290565b348015610abf57600080fd5b5060ad5461031f565b348015610ad457600080fd5b50610352610ae3366004614fc5565b612bc1565b610af26007612a56565b6001600160a01b0316336001600160a01b031614158015610b2e5750610b186009612a56565b6001600160a01b0316336001600160a01b031614155b15610b4f5760405160016234baed60e01b0319815260040160405180910390fd5b565b6001600160a01b038281166000908152607560205260409020548116908216145b92915050565b6000610b8360035490565b905090565b6009610b9381612bfe565b6073546072548110610bb857604051638616841b60e01b815260040160405180910390fd5b610bc186612209565b15610bdf57604051638ad9cdf960e01b815260040160405180910390fd5b612710831115610c0257604051631b8454a360e21b815260040160405180910390fd5b60005b607354811015610cf35760006075600060738481548110610c2857610c28615530565b60009182526020808320909101546001600160a01b039081168452908301939093526040909101902080549092508116908a1603610c84578860405163fc3d8c7560e01b8152600401610c7b919061518a565b60405180910390fd5b60028101546001600160a01b0390811690881603610cb75786604051632d33a7e760e11b8152600401610c7b919061518a565b60038101546001600160a01b0390811690871603610cea57856040516350e1263b60e01b8152600401610c7b919061518a565b50600101610c05565b506001600160a01b038681166000818152607460209081526040808320861990556073805460018082019092557ff79bde9ddd17963ebce6f7d021d60de7c2bd0db944d23c900c0c0e775f5300520180546001600160a01b03199081168717909155607590935292819020805483168d87169081178255938101805484168617905560028101805484168c8816908117909155600382018054909416968b1696909617909255600482018890555190939192907fd690f592ed983cfbc05717fbcf06c4e10ae328432c309fe49246cf4a4be69fcd90610dd3908a9061518a565b60405180910390a45050505050505050565b6001600160a01b0382166000908152603a60205260408120548190819084811015610e1b57600080600093509350935050610e61565b60019350610e29858261555c565b610e3490600161556f565b9250610e3f85612226565b610e4882612226565b610e52919061555c565b610e5d90600161556f565b9150505b9250925092565b610e70612c4a565b610e7981612c93565b50565b6006610e8781612bfe565b6001600160a01b0383166000908152603c60205260409020544311610ec157826040516353e0424d60e01b8152600401610c7b919061518a565b6001600160a01b038316600081815260386020908152604080832086845282528083208054600160ff199182168117909255948452603783528184208785529092529091208054909216909155610f18904361555c565b6001600160a01b0384166000818152603a6020526040908190209290925590517f6bb2436cb6b6eb65d5a52fac2ae0373a77ade6661e523ef3004ee2d5524e6c6e90610f679085815260200190565b60405180910390a2505050565b6000806001610f81610b78565b610f8b919061555c565b9050610f978382612cea565b9392505050565b6001600160a01b038116600090815260ac6020526040812054610b729060029060ff166003811115610fd257610fd2615451565b90612d15565b6000610b83610fe642612d48565b6003541090565b6000610f978383612d57565b611001614e92565b61100a82612209565b6110275760405163a64b34ad60e01b815260040160405180910390fd5b506001600160a01b03908116600090815260756020908152604091829020825160e081018452815485168152600182015485169281019290925260028101548416928201929092526003820154909216606083015260048101546080830152600581015460a08301526006015460c082015290565b6000610b728243610fed565b604080518082018252600080825260209182018190526001600160a01b038416815260e882528281208351808501909452805484526001015491830182905203611105576040516370fdd4f160e11b815260040160405180910390fd5b919050565b600661111581612bfe565b600061111f610b78565b6001600160a01b03871660008181526037602090815260408083208584528252808320805460ff1916600117905592825260e181528282205460e09091529190205491925061116d9161556f565b60e4600082825461117e919061556f565b90915550506001600160a01b038616600090815260e06020908152604080832083905560e18252808320839055603a9091529020546111be908690612d77565b6001600160a01b0387166000908152603a602052604090205583156112745760006111e96009612a56565b6001600160a01b0316632715805e88876040518363ffffffff1660e01b8152600401611216929190615582565b6020604051808303816000875af1158015611235573d6000803e3d6000fd5b505050506040513d601f19601f82011682018060405250810190611259919061559b565b90508060e4600082825461126d919061556f565b9091555050505b82156112b8576001600160a01b0386166000908152603c602052604090205461129e908690612d77565b6001600160a01b0387166000908152603c60205260409020555b6001600160a01b0386166000818152603a6020526040808220549051849392600080516020615b6a833981519152926112f89290918a91600191906155b4565b60405180910390a3505050505050565b6000610f978383612d8e565b600054610100900460ff16158080156113345750600054600160ff909116105b8061134e5750303b15801561134e575060005460ff166001145b61136a5760405162461bcd60e51b8152600401610c7b906155d3565b6000805460ff19166001179055801561138d576000805461ff0019166101001790555b61139860068e612db9565b6113a360098d612db9565b6113ae60078c612db9565b6113b960058b612db9565b6113c4600389612db9565b6113cf600a8a612db9565b6113d887612e44565b6113e186612e79565b6113ea85612eae565b6113f384612c93565b6113fd8235612f06565b61140a6020830135612f3b565b60018390558015611443576000805461ff001916905560405160018152600080516020615b4a8339815191529060200160405180910390a15b50505050505050505050505050565b606081516001600160401b0381111561146d5761146d61519e565b604051908082528060200260200182016040528015611496578160200160208202803683370190505b50905060005b81518110156114f9576114c78382815181106114ba576114ba615530565b6020026020010151612f70565b8282815181106114d9576114d9615530565b6001600160a01b039092166020928302919091019091015260010161149c565b50919050565b60008061150b43612226565b83111580611526575060008381526005602052604090205415155b600093845260056020526040909320549293915050565b606060aa546001600160401b038111156115595761155961519e565b604051908082528060200260200182016040528015611582578160200160208202803683370190505b5090506000805b825181101561161657600081815260ab60205260409020546115b3906001600160a01b0316611d48565b1561160e57600081815260ab60205260409020546001600160a01b031683836115db81615621565b9450815181106115ed576115ed615530565b60200260200101906001600160a01b031690816001600160a01b0316815250505b600101611589565b50815290565b611624612c4a565b610e7981612f3b565b6060816001600160401b038111156116475761164761519e565b604051908082528060200260200182016040528015611670578160200160208202803683370190505b50905060005b828110156116d7576116ad84848381811061169357611693615530565b90506020020160208101906116a89190614fc5565b612f7b565b8282815181106116bf576116bf615530565b91151560209283029190910190910152600101611676565b5092915050565b6116e6612c4a565b610e7981612e79565b6116f7612f87565b600061170233611d48565b8015611714575061171233612f7b565b155b801561172e575061172c33611727610b78565b612d8e565b155b905060008061173d6007612a56565b604051630634f5b960e01b81528415156004820152600160248201526001600160a01b039190911690630634f5b9906044016060604051808303816000875af115801561178e573d6000803e3d6000fd5b505050506040513d601f19601f820116820180604052508101906117b2919061563a565b92509250508060e260008282546117c9919061556f565b9091555083905061180e573460e460008282546117e6919061556f565b90915550506040513390600080516020615b2a83398151915290610f67903490600190615671565b336001600160a01b03167f0ede5c3be8625943fa64003cd4b91230089411249f3059bac6500873543ca9b13484604051611849929190615695565b60405180910390a2600061185b610b78565b90506000611869843461556f565b3360009081526038602090815260408083208684529091528120549192509060ff161561196157600061189c6006612a56565b6001600160a01b031663c6391fa26040518163ffffffff1660e01b8152600401608060405180830381865afa1580156118d9573d6000803e3d6000fd5b505050506040513d601f19601f820116820180604052508101906118fd91906156a3565b9350505050612710818461191191906156d9565b61191b9190615706565b91508160e4600082825461192f919061556f565b90915550506040513390600080516020615b2a83398151915290611957908590600290615671565b60405180910390a2505b61196b818361555c565b915060008061197a6009612a56565b6001600160a01b0316634530d2026040518163ffffffff1660e01b81526004016040805180830381865afa1580156119b6573d6000803e3d6000fd5b505050506040513d601f19601f820116820180604052508101906119da919061571a565b3360009081526075602052604081206004015492945090925090611a0890611a029084612fa7565b84612d77565b90506000612710611a1987846156d9565b611a239190615706565b33600090815260e06020526040812080549293508392909190611a4790849061556f565b9091555060009050611a59828861555c565b33600090815260e16020526040812080549293508392909190611a7d90849061556f565b90915550505050505050505050505050565b6073546060906001600160401b03811115611aac57611aac61519e565b604051908082528060200260200182016040528015611ae557816020015b611ad2614e92565b815260200190600190039081611aca5790505b50905060005b8151811015611bb0576075600060738381548110611b0b57611b0b615530565b60009182526020808320909101546001600160a01b039081168452838201949094526040928301909120825160e081018452815485168152600182015485169281019290925260028101548416928201929092526003820154909216606083015260048101546080830152600581015460a08301526006015460c08201528251839083908110611b9d57611b9d615530565b6020908102919091010152600101611aeb565b5090565b6000805b60aa54811015611bb057600081815260ab6020526040902054611be3906001600160a01b0316610f9e565b15611bef576001909101905b600101611bb8565b600054600290610100900460ff16158015611c19575060005460ff8083169116105b611c355760405162461bcd60e51b8152600401610c7b906155d3565b6000805461ffff191660ff831617610100179055607154611c61906009906001600160a01b0316612db9565b606f54611c79906005906001600160a01b0316612db9565b607054611c91906006906001600160a01b0316612db9565b606d54611ca9906007906001600160a01b0316612db9565b606e54611cc1906003906001600160a01b0316612db9565b60a854611cd990600a906001600160a01b0316612db9565b607180546001600160a01b0319908116909155606f8054821690556070805482169055606d805482169055606e80548216905560a8805490911690556000805461ff001916905560405160ff82168152600080516020615b4a833981519152906020015b60405180910390a150565b6001600160a01b038116600090815260ac6020526040812054610b729060019060ff166003811115610fd257610fd2615451565b611d84612c4a565b610e7981612f06565b611d95612f87565b611d9e43611fdc565b611dbb57604051636c74eecf60e01b815260040160405180910390fd5b611dc443612226565b611dcf600254612226565b10611ded57604051632458f64160e01b815260040160405180910390fd5b436002556000611dfc42612d48565b90506000611e0b826003541090565b90506000611e17612527565b5050905060606000611e2843612226565b90506000611e3782600161556f565b90506000611e43610b78565b90508515611f7657611e5481612fb6565b600080611e618388613319565b91509150611e7183888484613541565b611e7961364b565b611e8161379f565b6000611e8d6006612a56565b604051631da0214360e21b81529091506001600160a01b03821690637680850c90611ebe908b90889060040161573e565b600060405180830381600087803b158015611ed857600080fd5b505af1158015611eec573d6000803e3d6000fd5b50505050611ef98a6138c8565b8051919950975015611f64576040516303e1697b60e11b81526001600160a01b038216906307c2d2f690611f31908a906004016152e9565b600060405180830381600087803b158015611f4b57600080fd5b505af1158015611f5f573d6000803e3d6000fd5b505050505b611f6f43600161556f565b6004555050505b611f81878387613a59565b82817f0195462033384fec211477c56217da64a58bd405e0bed331ba4ded67e4ae4ce788604051611fb6911515815260200190565b60405180910390a350600090815260056020526040902085905550505060039190915550565b600060018054611fec919061555c565b600154611ff99084615760565b1492915050565b612008612c4a565b610e7981612e44565b612019612c4a565b61202281613e1f565b61202c8282612db9565b5050565b60008061203b610b78565b9050610f978382612d8e565b60008060006120568443610de5565b9250925092509193909250565b60aa546060908190806001600160401b038111156120835761208361519e565b6040519080825280602002602001820160405280156120ac578160200160208202803683370190505b509250806001600160401b038111156120c7576120c761519e565b6040519080825280602002602001820160405280156120f0578160200160208202803683370190505b5091506000805b828110156121bb57600081815260ab6020526040902054612120906001600160a01b0316610f9e565b156121b357600081815260ab60205260409020546001600160a01b031661214681612f70565b86848151811061215857612158615530565b60200260200101906001600160a01b031690816001600160a01b0316815250508085848060010195508151811061219157612191615530565b60200260200101906001600160a01b031690816001600160a01b031681525050505b6001016120f7565b508084528252509091565b6000805b60aa54811015611bb057600081815260ab60205260409020546121f5906001600160a01b0316611d48565b15612201576001909101905b6001016121ca565b6001600160a01b0316600090815260746020526040902054151590565b6000610b7282613e4c565b600961223c81612bfe565b6001600160a01b038316600090815260e8602052604090206001810154156122775760405163057aab3160e31b815260040160405180910390fd5b6000612283844261556f565b6001600160a01b03861660009081526075602052604090209091506122a89082613e67565b6001600160a01b0385166000908152603b60209081526040808320849055603990915281206001916122d8610b78565b8152602081019190915260409081016000908120805460ff19169315159390931790925560e554905163138ac02f60e11b81523391632715805e91612321918a91600401615582565b6020604051808303816000875af1158015612340573d6000803e3d6000fd5b505050506040513d601f19601f82011682018060405250810190612364919061559b565b9050801561246157600060e6544261237c919061556f565b60e78054600180820183556000929092527f6cb0db1d7354dfb4a1464318006df0643cafe2002a86a29ff8560f900fef28a10180546001600160a01b0319166001600160a01b038b16179055838655850181905590506123da613eea565b6001600160a01b0388811660008181526075602052604090819020600201549051630a2fae5760e41b81526004810192909252821660248201524260448201526064810184905291169063a2fae57090608401600060405180830381600087803b15801561244757600080fd5b505af115801561245b573d6000803e3d6000fd5b50505050505b856001600160a01b03167f77a1a819870c0f4d04c3ca4cc2881a0393136abc28bd651af50aedade94a27c48260405161249c91815260200190565b60405180910390a2505050505050565b6000805b60aa548110156114f957600081815260ab60205260409020546001600160a01b03808516916124df9116612f70565b6001600160a01b03161480156125115750600081815260ab6020526040902054612511906001600160a01b0316610f9e565b1561251f57600191506114f9565b6001016124b0565b606080606060aa546001600160401b038111156125465761254661519e565b60405190808252806020026020018201604052801561256f578160200160208202803683370190505b50925060aa546001600160401b0381111561258c5761258c61519e565b6040519080825280602002602001820160405280156125b5578160200160208202803683370190505b50915060aa546001600160401b038111156125d2576125d261519e565b6040519080825280602002602001820160405280156125fb578160200160208202803683370190505b50905060005b83518110156126f457600081815260ab602052604090205484516001600160a01b0390911690819086908490811061263b5761263b615530565b60200260200101906001600160a01b031690816001600160a01b03168152505061266481612f70565b84838151811061267657612676615530565b6001600160a01b03928316602091820292909201810191909152908216600090815260ac9091526040902054835160ff909116908490849081106126bc576126bc615530565b602002602001019060038111156126d5576126d5615451565b908160038111156126e8576126e8615451565b90525050600101612601565b50909192565b6060607380548060200260200160405190810160405280929190818152602001828054801561275257602002820191906000526020600020905b81546001600160a01b03168152600190910190602001808311612734575b5050505050905090565b612764612c4a565b6001600160a01b038216600090815260e860205260409020600101541561202c5760e7548060005b828110156127db57846001600160a01b031660e782815481106127b1576127b1615530565b6000918252602090912001546001600160a01b0316036127d3578091506127db565b60010161278c565b508181036127e95750505050565b6001600160a01b038416600090815260e8602052604090205480156129ac576001600160a01b038516600090815260e8602052604081208181556001908101919091558311156128ab5760e761284060018561555c565b8154811061285057612850615530565b60009182526020909120015460e780546001600160a01b03909216918490811061287c5761287c615530565b9060005260206000200160006101000a8154816001600160a01b0302191690836001600160a01b031602179055505b60e78054806128bc576128bc615774565b60008281526020808220830160001990810180546001600160a01b03191690559092019092556001600160a01b038716825260e9905260409020805460ff1916600117905561290e84826104b0613f18565b1561296757836001600160a01b0316856001600160a01b03167f7229136a18186c71a86246c012af3bb1df6460ef163934bbdccd6368abdd41e48360405161295891815260200190565b60405180910390a35050505050565b836001600160a01b0316856001600160a01b03167f3747d14eb72ad3e35cba9c3e00dab3b8d15b40cac6bdbd08402356e4f69f30a18347604051612958929190615695565b5050505050565b6129bb612c4a565b610e7981612eae565b6000610f978383612cea565b60096129db81612bfe565b6129e483613f78565b15612a025760405163030081e760e01b815260040160405180910390fd5b6001600160a01b0383166000908152607560205260409020600581015415612a3d5760405163fab9167360e01b815260040160405180910390fd5b612a5081612a4b854261556f565b613e67565b50505050565b6000612a60613ff8565b600083600a811115612a7457612a74615451565b60ff1681526020810191909152604001600020546001600160a01b0316905080611105578160405163409140df60e11b8152600401610c7b919061579e565b6009612abe81612bfe565b6001600160a01b03841660009081526077602052604090205415612af557604051632f32dcdd60e11b815260040160405180910390fd5b612710821115612b1857604051631b8454a360e21b815260040160405180910390fd5b607654831015612b3b5760405163fa0ae69360e01b815260040160405180910390fd5b6001600160a01b0384166000908152607760205260408120906201518085612b638242615706565b612b6d919061556f565b612b7791906156d9565b808355600183018590556040519091506001600160a01b038716907f6ebafd1bb6316b2f63198a81b05cff2149c6eaae1784466a6d062b4391900f219061249c9084908890615695565b6001600160a01b038116600090815260ac6020526040812054612bf79060ff166003811115612bf257612bf2615451565b61401c565b1592915050565b612c0781612a56565b6001600160a01b0316336001600160a01b031614610e79576000356001600160e01b03191681336040516320e0f98d60e21b8152600401610c7b939291906157ac565b612c52613eea565b6001600160a01b0316336001600160a01b031614610b4f576000356001600160e01b0319166001604051620f948f60ea1b8152600401610c7b9291906157e3565b6001811015612cb5576040516317b8970f60e01b815260040160405180910390fd5b60768190556040518181527f266d432ffe659e3565750d26ec685b822a58041eee724b67a5afec3168a2526790602001611d3d565b6001600160a01b03919091166000908152603960209081526040808320938352929052205460ff1690565b6000816003811115612d2957612d29615451565b836003811115612d3b57612d3b615451565b1660ff1615159392505050565b6000610b726201518083615706565b6001600160a01b03919091166000908152603a6020526040902054101590565b600081831015612d875781610f97565b5090919050565b6001600160a01b03919091166000908152603760209081526040808320938352929052205460ff1690565b80612dc2613ff8565b600084600a811115612dd657612dd6615451565b60ff168152602081019190915260400160002080546001600160a01b0319166001600160a01b03928316179055811682600a811115612e1757612e17615451565b6040517f865d1c228a8ea13709cfe61f346f7ff67f1bbd4a18ff31ad3e7147350d317c5990600090a35050565b60a98190556040518181527fb5464c05fd0e0f000c535850116cda2742ee1f7b34384cb920ad7b8e802138b590602001611d3d565b60728190556040518181527f82d5dc32d1b741512ad09c32404d7e7921e8934c6222343d95f55f7a2b9b2ab490602001611d3d565b60a954811115612ed1576040516355408ce960e11b815260040160405180910390fd5b60ad8190556040518181527fa9588dc77416849bd922605ce4fc806712281ad8a8f32d4238d6c8cca548e15e90602001611d3d565b60e58190556040518181527f17a6c3eb965cdd7439982da25abf85be88f0f772ca33198f548e2f99fee0289a90602001611d3d565b60e68190556040518181527f0a50c66137118f386332efb949231ddd3946100dbf880003daca37ddd9e0662b90602001611d3d565b6000610b728261403a565b6000610b728243612d57565b334114610b4f576040516309f358fd60e01b815260040160405180910390fd5b6000818310612d875781610f97565b6000612fc26003612a56565b60405163889998ef60e01b8152600481018490529091506000906001600160a01b0383169063889998ef90602401602060405180830381865afa15801561300d573d6000803e3d6000fd5b505050506040513d601f19601f82011682018060405250810190613031919061559b565b60405163033cdc2b60e31b8152600481018590529091506000906001600160a01b038416906319e6e15890602401602060405180830381865afa15801561307c573d6000803e3d6000fd5b505050506040513d601f19601f820116820180604052508101906130a0919061559b565b90506000806130ad612063565b915091506000856001600160a01b031663f67e815288856040518363ffffffff1660e01b81526004016130e1929190615804565b600060405180830381865afa1580156130fe573d6000803e3d6000fd5b505050506040513d6000823e601f3d908101601f191682016040526131269190810190615825565b905061313385858361405f565b158061313d575083155b156131a95760005b825181101561319f57825160e25461315d9190615706565b60e3600085848151811061317357613173615530565b6020908102919091018101516001600160a01b0316825281019190915260400160002055600101613145565b5050505050505050565b6000806000806131b96006612a56565b6001600160a01b0316631079402a6040518163ffffffff1660e01b8152600401608060405180830381865afa1580156131f6573d6000803e3d6000fd5b505050506040513d601f19601f8201168201806040525081019061321a91906156a3565b9296509094509250905080881160005b8751811015611443578a87828151811061324657613246615530565b602002602001015160e25461325b91906156d9565b6132659190615706565b60e360008a848151811061327b5761327b615530565b60200260200101516001600160a01b03166001600160a01b03168152602001908152602001600020819055508115613311576133118d8983815181106132c3576132c3615530565b60200260200101518c6127108b86815181106132e1576132e1615530565b60200260200101516132f391906156d9565b6132fd9190615706565b6133099061271061555c565b878a8a61410e565b60010161322a565b6000606060008084516001600160401b038111156133395761333961519e565b604051908082528060200260200182016040528015613362578160200160208202803683370190505b50925060005b85518110156135315785818151811061338357613383615530565b6020908102919091018101516001600160a01b03808216600090815260759093526040909220600201549094501691506133bd8388612cea565b6133f0576001600160a01b038084166000908152607560205260409020600301546133eb9185911684614379565b613422565b6001600160a01b038316600090815260e3602052604081205460e480549192909161341c90849061556f565b90915550505b61342b83612f7b565b15801561343f575061343d8388612d8e565b155b156134b3576001600160a01b038316600090815260e16020526040902054613467908661556f565b6001600160a01b038416600090815260e1602052604090205485519196509085908390811061349857613498615530565b6020026020010181815250506134ae8383614456565b6134f9565b6001600160a01b038316600090815260e1602090815260408083205460e0909252909120546134e2919061556f565b60e460008282546134f3919061556f565b90915550505b6001600160a01b038316600090815260e16020908152604080832083905560e0825280832083905560e3909152812055600101613368565b5060e26000905550509250929050565b600061354d6009612a56565b905082156129ac5761355f818461451e565b156136075760405163566bce2360e11b81526001600160a01b0382169063acd79c469061359490879086908a906004016158da565b600060405180830381600087803b1580156135ae57600080fd5b505af11580156135c2573d6000803e3d6000fd5b505050507f9e242ca1ef9dde96eb71ef8d19a3f0f6a619b63e4c0d3998771387103656d0878385846040516135f993929190615910565b60405180910390a150612a50565b7fe5668ec1bb2b6bb144a50f810e388da4b1d7d3fc05fcb9d588a1aac59d248f898385844760405161363c9493929190615945565b60405180910390a15050505050565b60e754600080805b83831015612a505760e7838154811061366e5761366e615530565b60009182526020808320909101546001600160a01b031680835260e8909152604090912060018101549193509150421061379457805460e480546000906136b690849061556f565b90915550506001600160a01b038216600090815260e8602052604081208181556001018190556136e585615982565b945084111561375c5760e7848154811061370157613701615530565b60009182526020909120015460e780546001600160a01b03909216918590811061372d5761372d615530565b9060005260206000200160006101000a8154816001600160a01b0302191690836001600160a01b031602179055505b60e780548061376d5761376d615774565b600082815260209020810160001990810180546001600160a01b0319169055019055613653565b600190920191613653565b60e4548015610e795760006137b46007612a56565b600060e481905560408051600481526024810182526020810180516001600160e01b03166359f778df60e01b179052905192935090916001600160a01b0384169185916138019190615999565b60006040518083038185875af1925050503d806000811461383e576040519150601f19603f3d011682016040523d82523d6000602084013e613843565b606091505b50509050801561388857816001600160a01b03167fc447c884574da5878be39c403db2245c22530c99b579ea7bcbb3720e1d110dc884604051610f6791815260200190565b816001600160a01b03167fa0561a59abed308fcd0556834574739d778cc6229018039a24ddda0f86aa0b738447604051610f67929190615695565b505050565b6060806138d48361457a565b905060006138e26009612a56565b6001600160a01b03166391f8723f60736040518263ffffffff1660e01b815260040161390e91906159c8565b600060405180830381865afa15801561392b573d6000803e3d6000fd5b505050506040513d6000823e601f3d908101601f191682016040526139539190810190615825565b90506000613961600a612a56565b6001600160a01b031663520fce6260736040518263ffffffff1660e01b815260040161398d91906159c8565b600060405180830381865afa1580156139aa573d6000803e3d6000fd5b505050506040513d6000823e601f3d908101601f191682016040526139d29190810190615825565b90506000613a416073805480602002602001604051908101604052809291908181526020018280548015613a2f57602002820191906000526020600020905b81546001600160a01b03168152600190910190602001808311613a11575b5050505050848460a95460ad54614a64565b9095509050613a51858288614b2e565b505050915091565b6000613a656005612a56565b6001600160a01b031663fdadda8183613a7f43600161556f565b6040518363ffffffff1660e01b8152600401613a9c92919061573e565b600060405180830381865afa158015613ab9573d6000803e3d6000fd5b505050506040513d6000823e601f3d908101601f19168201604052613ae19190810190615a0c565b905060005b8251811015613da0576000838281518110613b0357613b03615530565b6020908102919091018101516001600160a01b0381166000908152603b909252604082205490925042111590613b3883611d48565b90506000613b5084613b4b43600161556f565b612d57565b80613b715750858581518110613b6857613b68615530565b60200260200101515b80613b795750825b15905081158015613b875750805b15613c02576001600160a01b038416600090815260ac6020526040902054613bc69060019060ff166003811115613bc057613bc0615451565b90614c6e565b6001600160a01b038516600090815260ac60205260409020805460ff19166001836003811115613bf857613bf8615451565b0217905550613c84565b818015613c0d575080155b15613c84576001600160a01b038416600090815260ac6020526040902054613c4c9060019060ff166003811115613c4657613c46615451565b90614ca9565b6001600160a01b038516600090815260ac60205260409020805460ff19166001836003811115613c7e57613c7e615451565b02179055505b6000613c8f85610f9e565b9050831581158015613c9e5750805b15613d13576001600160a01b038616600090815260ac6020526040902054613cd79060029060ff166003811115613bc057613bc0615451565b6001600160a01b038716600090815260ac60205260409020805460ff19166001836003811115613d0957613d09615451565b0217905550613d8f565b818015613d1e575080155b15613d8f576001600160a01b038616600090815260ac6020526040902054613d579060029060ff166003811115613c4657613c46615451565b6001600160a01b038716600090815260ac60205260409020805460ff19166001836003811115613d8957613d89615451565b02179055505b866001019650505050505050613ae6565b506000613dab612063565b50905083857f283b50d76057d5f828df85bc87724c6af604e9b55c363a07c9faa2a2cd688b82613dd961153d565b604051613de691906152e9565b60405180910390a383857f773d1888df530d69716b183a92450d45f97fba49f2a4bb34fae3b23da0e2cc6f8360405161295891906152e9565b806001600160a01b03163b600003610e795780604051630bfc64a360e21b8152600401610c7b919061518a565b600060015482613e5c9190615706565b610b7290600161556f565b6001820154613e7e906001600160a01b0316612209565b613e9b5760405163a64b34ad60e01b815260040160405180910390fd5b6005820181905560018201546040518281526001600160a01b03909116907fb9a1e33376bfbda9092f2d1e37662c1b435aab0d3fa8da3acc8f37ee222f99e79060200160405180910390a25050565b7fb53127684a568b3173ae13b9f8a6016e243e63b6e8ee1178d6a717850b5d6103546001600160a01b031690565b6000836001600160a01b0316838390604051600060405180830381858888f193505050503d8060008114613f68576040519150601f19603f3d011682016040523d82523d6000602084013e613f6d565b606091505b509095945050505050565b600080613f85600a612a56565b6001600160a01b03166341feed1c846040518263ffffffff1660e01b8152600401613fb0919061518a565b602060405180830381865afa158015613fcd573d6000803e3d6000fd5b505050506040513d601f19601f82011682018060405250810190613ff1919061559b565b1192915050565b7fdea3103d22025c269050bea94c0c84688877f12fa22b7e6d2d5d78a9a49aa1cb90565b600081600381111561403057614030615451565b60ff161592915050565b6001600160a01b03808216600090815260756020526040812060030154909116610b72565b60016000805b83518110156140c7578484828151811061408157614081615530565b6020026020010151111561409857600092506140c7565b8381815181106140aa576140aa615530565b6020026020010151826140bd919061556f565b9150600101614065565b508180156140d55750848111155b915081614106576040517f64ba7143ea5a17abea37667aa9ae137e3afba5033c5f504770c02829c128189c90600090a15b509392505050565b600061411a6006612a56565b9050818510614296576001600160a01b03861660008181526039602090815260408083208b845282528083208054600160ff199182168117909255948452603783528184208c8552909252822080549093161790915561417a4386614ce5565b6001600160a01b0388166000908152603a60205260409020549091506141a1908290612d77565b6001600160a01b0388166000908152603a6020908152604080832093909355603c905220546141d1908290612d77565b6001600160a01b038089166000908152603c60205260409081902092909255905163c008ce3960e01b81529083169063c008ce3990614219908a906002908d90600401615a9a565b600060405180830381600087803b15801561423357600080fd5b505af1158015614247573d6000803e3d6000fd5b5050506001600160a01b0388166000818152603a60205260408082205490518c9450600080516020615b6a83398151915292614288929160019081906155b4565b60405180910390a350614370565b828510614370576001600160a01b0380871660009081526039602090815260408083208b845290915290819020805460ff19166001908117909155905163c008ce3960e01b81529183169163c008ce39916142f8918a91908c90600401615a9a565b600060405180830381600087803b15801561431257600080fd5b505af1158015614326573d6000803e3d6000fd5b5050506001600160a01b0387166000818152603a60205260408082205490518b9450600080516020615b6a83398151915292614367929181906001906155b4565b60405180910390a35b50505050505050565b6001600160a01b038316600090815260e360205260409020548015612a50576143a582826104b0613f18565b1561440757816001600160a01b0316836001600160a01b0316856001600160a01b03167f72a57dc38837a1cba7881b7b1a5594d9e6b65cec6a985b54e2cee3e89369691c846040516143f991815260200190565b60405180910390a450505050565b816001600160a01b0316836001600160a01b0316856001600160a01b03167fd35d76d87d51ed89407fc7ceaaccf32cf72784b94530892ce33546540e141b7284476040516143f9929190615695565b6001600160a01b038216600090815260e0602052604090205480156138c35761448282826104b0613f18565b156144d957816001600160a01b0316836001600160a01b03167f1ce7a1c4702402cd393500acb1de5bd927727a54e144a587d328f1b679abe4ec836040516144cc91815260200190565b60405180910390a3505050565b816001600160a01b0316836001600160a01b03167f6c69e09ee5c5ac33c0cd57787261c5bade070a392ab34a4b5487c6868f723f6e83476040516144cc929190615695565b6000826001600160a01b03168260405160006040518083038185875af1925050503d806000811461456b576040519150601f19603f3d011682016040523d82523d6000602084013e614570565b606091505b5090949350505050565b606060006145886009612a56565b90506000816001600160a01b031663af2454296040518163ffffffff1660e01b8152600401602060405180830381865afa1580156145ca573d6000803e3d6000fd5b505050506040513d601f19601f820116820180604052508101906145ee919061559b565b90506000826001600160a01b031663909791dd6040518163ffffffff1660e01b8152600401602060405180830381865afa158015614630573d6000803e3d6000fd5b505050506040513d601f19601f82011682018060405250810190614654919061559b565b90506000836001600160a01b03166342ef3c3460736040518263ffffffff1660e01b815260040161468591906159c8565b600060405180830381865afa1580156146a2573d6000803e3d6000fd5b505050506040513d6000823e601f3d908101601f191682016040526146ca9190810190615825565b6073549091506000816001600160401b038111156146ea576146ea61519e565b604051908082528060200260200182016040528015614713578160200160208202803683370190505b50965060008060005b848310156149b5576073838154811061473757614737615530565b60009182526020808320909101546001600160a01b03168083526075909152604090912060068101548851929450909250151590889088908690811061477f5761477f615530565b602002602001015110156147db57806147d657600061479e8a4261556f565b600684018190556040518181529091506001600160a01b03851690600080516020615b0a8339815191529060200160405180910390a2505b61481c565b801561481c578160060160009055826001600160a01b0316600080516020615b0a833981519152600060405161481391815260200190565b60405180910390a25b60008260050154600014158015614837575042836005015411155b8061485a57506001600160a01b038416600090815260e9602052604090205460ff165b905060008360060154600014158015614877575042846006015411155b905081806148825750805b15614914578861489189615982565b985088815181106148a4576148a4615530565b60200260200101518987815181106148be576148be615530565b602002602001018181525050848d88806001019950815181106148e3576148e3615530565b60200260200101906001600160a01b031690816001600160a01b03168152505061490c85614d00565b50505061471c565b6001600160a01b038516600090815260776020526040902054801580159061493c5750428111155b156149a5576001600160a01b0386166000818152607760209081526040808320600181018054918590559390935560048901839055518281529192917f86d576c20e383fc2413ef692209cc48ddad5e52f25db5b32f8f7ec5076461ae9910160405180910390a2505b50506001909401935061471c9050565b5050508087528015614a59577f4eaf233b9dc25a5552c1927feee1412eea69add17c2485c831c2e60e234f3c91876040516149f091906152e9565b60405180910390a160405163e22d1c9d60e01b81526001600160a01b0387169063e22d1c9d90614a26908a908c9060040161573e565b600060405180830381600087803b158015614a4057600080fd5b505af1158015614a54573d6000803e3d6000fd5b505050505b505050505050919050565b60606000806068905060008888888888604051602401614a88959493929190615abb565b60408051601f19818403018152919052602080820180516001600160e01b0316633bca0a8960e11b17905281518b519293506001929091600091614acb916156d9565b614ad690604061556f565b90506020840181888483895afa614aec57600093505b503d614af757600092505b60208701965082614b1b57604051630fc2632160e01b815260040160405180910390fd5b8651955050505050509550959350505050565b815b60aa54811015614b8257600081815260ab6020818152604080842080546001600160a01b0316855260ac8352908420805460ff19169055928490525280546001600160a01b0319169055600101614b30565b5060005b82811015614bc257600081815260ab60209081526040808320546001600160a01b0316835260ac9091529020805460ff19169055600101614b86565b5060005b82811015614c36576000848281518110614be257614be2615530565b6020908102919091018101516001600160a01b0316600081815260ac83526040808220805460ff1916600317905585825260ab9093529190912080546001600160a01b031916909117905550600101614bc6565b508160aa81905550807f3d0eea40644a206ec25781dd5bb3b60eb4fa1264b993c3bddf3c73b14f29ef5e84604051610f6791906152e9565b6000816003811115614c8257614c82615451565b836003811115614c9457614c94615451565b1760ff166003811115610f9757610f97615451565b6000816003811115614cbd57614cbd615451565b19836003811115614cd057614cd0615451565b1660ff166003811115610f9757610f97615451565b600081600003614cf6576000610f97565b610f97828461556f565b6001600160a01b038116600090815260e960209081526040808320805460ff191690556074909152812054610e7991839190819003614d3d575050565b6001600160a01b038216600090815260756020908152604080832080546001600160a01b031990811682556001808301805483169055600283018054831690556003830180549092169091556004820185905560058201859055600690910184905560748352818420849055607790925282208281558101829055607380549091614dc79161555c565b81548110614dd757614dd7615530565b6000918252602090912001546001600160a01b03908116915083168114614e5a576001600160a01b0381166000908152607460205260409020829055607380548291908419908110614e2b57614e2b615530565b9060005260206000200160006101000a8154816001600160a01b0302191690836001600160a01b031602179055505b6073805480614e6b57614e6b615774565b600082815260209020810160001990810180546001600160a01b0319169055019055505050565b6040805160e081018252600080825260208201819052918101829052606081018290526080810182905260a0810182905260c081019190915290565b6001600160a01b0381168114610e7957600080fd5b60008060408385031215614ef657600080fd5b8235614f0181614ece565b91506020830135614f1181614ece565b809150509250929050565b600080600080600060a08688031215614f3457600080fd5b8535614f3f81614ece565b94506020860135614f4f81614ece565b93506040860135614f5f81614ece565b92506060860135614f6f81614ece565b949793965091946080013592915050565b60008060408385031215614f9357600080fd5b8235614f9e81614ece565b946020939093013593505050565b600060208284031215614fbe57600080fd5b5035919050565b600060208284031215614fd757600080fd5b8135610f9781614ece565b60018060a01b03808251168352806020830151166020840152806040830151166040840152806060830151166060840152506080810151608083015260a081015160a083015260c081015160c08301525050565b60e08101610b728284614fe2565b815181526020808301519082015260408101610b72565b8015158114610e7957600080fd5b6000806000806080858703121561507f57600080fd5b843561508a81614ece565b9350602085013592506040850135915060608501356150a88161505b565b939692955090935050565b8060408101831015610b7257600080fd5b6000806000806000806000806000806000806101a08d8f0312156150e757600080fd5b8c356150f281614ece565b9b5060208d013561510281614ece565b9a5060408d013561511281614ece565b995060608d013561512281614ece565b985060808d013561513281614ece565b975060a08d013561514281614ece565b965060c08d0135955060e08d013594506101008d013593506101208d013592506101408d013591506151788e6101608f016150b3565b90509295989b509295989b509295989b565b6001600160a01b0391909116815260200190565b634e487b7160e01b600052604160045260246000fd5b604051601f8201601f191681016001600160401b03811182821017156151dc576151dc61519e565b604052919050565b60006001600160401b038211156151fd576151fd61519e565b5060051b60200190565b6000602080838503121561521a57600080fd5b82356001600160401b0381111561523057600080fd5b8301601f8101851361524157600080fd5b803561525461524f826151e4565b6151b4565b81815260059190911b8201830190838101908783111561527357600080fd5b928401925b8284101561529a57833561528b81614ece565b82529284019290840190615278565b979650505050505050565b600081518084526020808501945080840160005b838110156152de5781516001600160a01b0316875295820195908201906001016152b9565b509495945050505050565b602081526000610f9760208301846152a5565b6000806020838503121561530f57600080fd5b82356001600160401b038082111561532657600080fd5b818501915085601f83011261533a57600080fd5b81358181111561534957600080fd5b8660208260051b850101111561535e57600080fd5b60209290920196919550909350505050565b6020808252825182820181905260009190848201906040850190845b818110156153aa57835115158352928401929184019160010161538c565b50909695505050505050565b6020808252825182820181905260009190848201906040850190845b818110156153aa576153e5838551614fe2565b9284019260e092909201916001016153d2565b8035600b811061110557600080fd5b6000806040838503121561541a57600080fd5b614f01836153f8565b60408152600061543660408301856152a5565b828103602084015261544881856152a5565b95945050505050565b634e487b7160e01b600052602160045260246000fd5b60608152600061547a60608301866152a5565b60208382038185015261548d82876152a5565b8481036040860152855180825282870193509082019060005b818110156154d2578451600481106154c0576154c0615451565b835293830193918301916001016154a6565b509098975050505050505050565b6000602082840312156154f257600080fd5b610f97826153f8565b60008060006060848603121561551057600080fd5b833561551b81614ece565b95602085013595506040909401359392505050565b634e487b7160e01b600052603260045260246000fd5b634e487b7160e01b600052601160045260246000fd5b81810381811115610b7257610b72615546565b80820180821115610b7257610b72615546565b6001600160a01b03929092168252602082015260400190565b6000602082840312156155ad57600080fd5b5051919050565b9384526020840192909252151560408301521515606082015260800190565b6020808252602e908201527f496e697469616c697a61626c653a20636f6e747261637420697320616c72656160408201526d191e481a5b9a5d1a585b1a5e995960921b606082015260800190565b60006001820161563357615633615546565b5060010190565b60008060006060848603121561564f57600080fd5b835161565a8161505b565b602085015160409095015190969495509392505050565b828152604081016003831061568857615688615451565b8260208301529392505050565b918252602082015260400190565b600080600080608085870312156156b957600080fd5b505082516020840151604085015160609095015191969095509092509050565b8082028115828204841417610b7257610b72615546565b634e487b7160e01b600052601260045260246000fd5b600082615715576157156156f0565b500490565b6000806040838503121561572d57600080fd5b505080516020909101519092909150565b60408152600061575160408301856152a5565b90508260208301529392505050565b60008261576f5761576f6156f0565b500690565b634e487b7160e01b600052603160045260246000fd5b600b811061579a5761579a615451565b9052565b60208101610b72828461578a565b6001600160e01b031984168152606081016157ca602083018561578a565b6001600160a01b03929092166040919091015292915050565b6001600160e01b031983168152604081016009831061568857615688615451565b82815260406020820152600061581d60408301846152a5565b949350505050565b6000602080838503121561583857600080fd5b82516001600160401b0381111561584e57600080fd5b8301601f8101851361585f57600080fd5b805161586d61524f826151e4565b81815260059190911b8201830190838101908783111561588c57600080fd5b928401925b8284101561529a57835182529284019290840190615891565b600081518084526020808501945080840160005b838110156152de578151875295820195908201906001016158be565b6060815260006158ed60608301866152a5565b82810360208401526158ff81866158aa565b915050826040830152949350505050565b83815260606020820152600061592960608301856152a5565b828103604084015261593b81856158aa565b9695505050505050565b84815260806020820152600061595e60808301866152a5565b828103604084015261597081866158aa565b91505082606083015295945050505050565b60008161599157615991615546565b506000190190565b6000825160005b818110156159ba57602081860181015185830152016159a0565b506000920191825250919050565b6020808252825482820181905260008481528281209092916040850190845b818110156153aa5783546001600160a01b0316835260019384019392850192016159e7565b60006020808385031215615a1f57600080fd5b82516001600160401b03811115615a3557600080fd5b8301601f81018513615a4657600080fd5b8051615a5461524f826151e4565b81815260059190911b82018301908381019087831115615a7357600080fd5b928401925b8284101561529a578351615a8b8161505b565b82529284019290840190615a78565b6001600160a01b039390931683526020830191909152604082015260600190565b60a081526000615ace60a08301886152a5565b8281036020840152615ae081886158aa565b90508281036040840152615af481876158aa565b6060840195909552505060800152939250505056fe88f854e137380c14d63f6ed99781bf13402167cf55bac49bcd44d4f2d6a342754042bb9a70998f80a86d9963f0d2132e9b11c8ad94d207c6141c8e34b05ce53e7f26b83ff96e1f2b6a682f133852f6798a09c465da95921460cefb384740249854ce99c5ce1fc9f61656d4a0fb2697974d0c973ac32eecaefe06fcf18b8ef68aa2646970667358221220ca0da10a726a4041f48cc0162db4113edef299504b9e9f3dab3bbf08d3b26c4364736f6c63430008110033"
}