{
  "address": "0xbFa45d9D1a48f7eda7E7bac923Dfde25b072866c",
  "abi": [
    {
      "inputs": [
        {
          "internalType": "uint256",
          "name": "num",
          "type": "uint256"
        },
        {
          "internalType": "uint256",
          "name": "denom",
          "type": "uint256"
        },
        {
          "internalType": "uint256",
          "name": "roninChainId",
          "type": "uint256"
        },
        {
          "internalType": "uint256",
          "name": "expiryDuration",
          "type": "uint256"
        },
        {
          "internalType": "address",
          "name": "bridgeContract",
          "type": "address"
        },
        {
          "internalType": "address[]",
          "name": "callbackRegisters",
          "type": "address[]"
        },
        {
          "internalType": "address[]",
          "name": "bridgeOperators",
          "type": "address[]"
        },
        {
          "internalType": "address[]",
          "name": "governors",
          "type": "address[]"
        },
        {
          "internalType": "uint96[]",
          "name": "voteWeights",
          "type": "uint96[]"
        },
        {
          "internalType": "enum GlobalProposal.TargetOption[]",
          "name": "targetOptions",
          "type": "uint8[]"
        },
        {
          "internalType": "address[]",
          "name": "targets",
          "type": "address[]"
        }
      ],
      "stateMutability": "payable",
      "type": "constructor"
    },
    {
      "inputs": [
        {
          "internalType": "address",
          "name": "addr",
          "type": "address"
        },
        {
          "internalType": "bytes32",
          "name": "codehash",
          "type": "bytes32"
        }
      ],
      "name": "ErrAddressIsNotCreatedEOA",
      "type": "error"
    },
    {
      "inputs": [
        {
          "internalType": "address",
          "name": "voter",
          "type": "address"
        }
      ],
      "name": "ErrAlreadyVoted",
      "type": "error"
    },
    {
      "inputs": [
        {
          "internalType": "address",
          "name": "bridgeOperator",
          "type": "address"
        }
      ],
      "name": "ErrBridgeOperatorAlreadyExisted",
      "type": "error"
    },
    {
      "inputs": [
        {
          "internalType": "address",
          "name": "bridgeOperator",
          "type": "address"
        }
      ],
      "name": "ErrBridgeOperatorUpdateFailed",
      "type": "error"
    },
    {
      "inputs": [
        {
          "internalType": "enum ContractType",
          "name": "contractType",
          "type": "uint8"
        }
      ],
      "name": "ErrContractTypeNotFound",
      "type": "error"
    },
    {
      "inputs": [],
      "name": "ErrCurrentProposalIsNotCompleted",
      "type": "error"
    },
    {
      "inputs": [
        {
          "internalType": "bytes4",
          "name": "msgSig",
          "type": "bytes4"
        }
      ],
      "name": "ErrDuplicated",
      "type": "error"
    },
    {
      "inputs": [
        {
          "internalType": "bytes32",
          "name": "proposalHash",
          "type": "bytes32"
        }
      ],
      "name": "ErrInsufficientGas",
      "type": "error"
    },
    {
      "inputs": [
        {
          "internalType": "bytes4",
          "name": "msgSig",
          "type": "bytes4"
        }
      ],
      "name": "ErrInvalidArguments",
      "type": "error"
    },
    {
      "inputs": [
        {
          "internalType": "bytes4",
          "name": "msgSig",
          "type": "bytes4"
        },
        {
          "internalType": "uint256",
          "name": "actual",
          "type": "uint256"
        },
        {
          "internalType": "uint256",
          "name": "expected",
          "type": "uint256"
        }
      ],
      "name": "ErrInvalidChainId",
      "type": "error"
    },
    {
      "inputs": [],
      "name": "ErrInvalidExpiryTimestamp",
      "type": "error"
    },
    {
      "inputs": [
        {
          "internalType": "bytes4",
          "name": "msgSig",
          "type": "bytes4"
        }
      ],
      "name": "ErrInvalidOrder",
      "type": "error"
    },
    {
      "inputs": [
        {
          "internalType": "bytes32",
          "name": "actual",
          "type": "bytes32"
        },
        {
          "internalType": "bytes32",
          "name": "expected",
          "type": "bytes32"
        }
      ],
      "name": "ErrInvalidProposal",
      "type": "error"
    },
    {
      "inputs": [
        {
          "internalType": "bytes4",
          "name": "msgSig",
          "type": "bytes4"
        }
      ],
      "name": "ErrInvalidProposalNonce",
      "type": "error"
    },
    {
      "inputs": [
        {
          "internalType": "bytes4",
          "name": "msgSig",
          "type": "bytes4"
        }
      ],
      "name": "ErrInvalidSignatures",
      "type": "error"
    },
    {
      "inputs": [
        {
          "internalType": "bytes4",
          "name": "msgSig",
          "type": "bytes4"
        }
      ],
      "name": "ErrInvalidThreshold",
      "type": "error"
    },
    {
      "inputs": [
        {
          "internalType": "bytes4",
          "name": "msgSig",
          "type": "bytes4"
        }
      ],
      "name": "ErrInvalidVoteWeight",
      "type": "error"
    },
    {
      "inputs": [
        {
          "internalType": "bytes4",
          "name": "msgSig",
          "type": "bytes4"
        }
      ],
      "name": "ErrLengthMismatch",
      "type": "error"
    },
    {
      "inputs": [
        {
          "internalType": "bytes4",
          "name": "msgSig",
          "type": "bytes4"
        }
      ],
      "name": "ErrOnlySelfCall",
      "type": "error"
    },
    {
      "inputs": [],
      "name": "ErrQueryForEmptyVote",
      "type": "error"
    },
    {
      "inputs": [
        {
          "internalType": "bytes4",
          "name": "msgSig",
          "type": "bytes4"
        },
        {
          "internalType": "enum RoleAccess",
          "name": "expectedRole",
          "type": "uint8"
        }
      ],
      "name": "ErrUnauthorized",
      "type": "error"
    },
    {
      "inputs": [
        {
          "internalType": "bytes4",
          "name": "interfaceId",
          "type": "bytes4"
        },
        {
          "internalType": "address",
          "name": "addr",
          "type": "address"
        }
      ],
      "name": "ErrUnsupportedInterface",
      "type": "error"
    },
    {
      "inputs": [
        {
          "internalType": "bytes4",
          "name": "msgSig",
          "type": "bytes4"
        }
      ],
      "name": "ErrUnsupportedVoteType",
      "type": "error"
    },
    {
      "inputs": [],
      "name": "ErrVoteIsFinalized",
      "type": "error"
    },
    {
      "inputs": [
        {
          "internalType": "bytes4",
          "name": "msgSig",
          "type": "bytes4"
        }
      ],
      "name": "ErrZeroAddress",
      "type": "error"
    },
    {
      "inputs": [
        {
          "internalType": "address",
          "name": "addr",
          "type": "address"
        }
      ],
      "name": "ErrZeroCodeContract",
      "type": "error"
    },
    {
      "anonymous": false,
      "inputs": [
        {
          "indexed": true,
          "internalType": "address",
          "name": "governor",
          "type": "address"
        },
        {
          "indexed": true,
          "internalType": "address",
          "name": "fromBridgeOperator",
          "type": "address"
        },
        {
          "indexed": true,
          "internalType": "address",
          "name": "toBridgeOperator",
          "type": "address"
        }
      ],
      "name": "BridgeOperatorUpdated",
      "type": "event"
    },
    {
      "anonymous": false,
      "inputs": [
        {
          "indexed": false,
          "internalType": "bool[]",
          "name": "statuses",
          "type": "bool[]"
        },
        {
          "indexed": false,
          "internalType": "uint96[]",
          "name": "voteWeights",
          "type": "uint96[]"
        },
        {
          "indexed": false,
          "internalType": "address[]",
          "name": "governors",
          "type": "address[]"
        },
        {
          "indexed": false,
          "internalType": "address[]",
          "name": "bridgeOperators",
          "type": "address[]"
        }
      ],
      "name": "BridgeOperatorsAdded",
      "type": "event"
    },
    {
      "anonymous": false,
      "inputs": [
        {
          "indexed": false,
          "internalType": "bool[]",
          "name": "statuses",
          "type": "bool[]"
        },
        {
          "indexed": false,
          "internalType": "address[]",
          "name": "bridgeOperators",
          "type": "address[]"
        }
      ],
      "name": "BridgeOperatorsRemoved",
      "type": "event"
    },
    {
      "anonymous": false,
      "inputs": [
        {
          "indexed": true,
          "internalType": "enum ContractType",
          "name": "contractType",
          "type": "uint8"
        },
        {
          "indexed": true,
          "internalType": "address",
          "name": "addr",
          "type": "address"
        }
      ],
      "name": "ContractUpdated",
      "type": "event"
    },
    {
      "anonymous": false,
      "inputs": [
        {
          "indexed": true,
          "internalType": "uint256",
          "name": "round",
          "type": "uint256"
        },
        {
          "indexed": true,
          "internalType": "bytes32",
          "name": "proposalHash",
          "type": "bytes32"
        },
        {
          "components": [
            {
              "internalType": "uint256",
              "name": "nonce",
              "type": "uint256"
            },
            {
              "internalType": "uint256",
              "name": "chainId",
              "type": "uint256"
            },
            {
              "internalType": "uint256",
              "name": "expiryTimestamp",
              "type": "uint256"
            },
            {
              "internalType": "address[]",
              "name": "targets",
              "type": "address[]"
            },
            {
              "internalType": "uint256[]",
              "name": "values",
              "type": "uint256[]"
            },
            {
              "internalType": "bytes[]",
              "name": "calldatas",
              "type": "bytes[]"
            },
            {
              "internalType": "uint256[]",
              "name": "gasAmounts",
              "type": "uint256[]"
            }
          ],
          "indexed": false,
          "internalType": "struct Proposal.ProposalDetail",
          "name": "proposal",
          "type": "tuple"
        },
        {
          "indexed": false,
          "internalType": "bytes32",
          "name": "globalProposalHash",
          "type": "bytes32"
        },
        {
          "components": [
            {
              "internalType": "uint256",
              "name": "nonce",
              "type": "uint256"
            },
            {
              "internalType": "uint256",
              "name": "expiryTimestamp",
              "type": "uint256"
            },
            {
              "internalType": "enum GlobalProposal.TargetOption[]",
              "name": "targetOptions",
              "type": "uint8[]"
            },
            {
              "internalType": "uint256[]",
              "name": "values",
              "type": "uint256[]"
            },
            {
              "internalType": "bytes[]",
              "name": "calldatas",
              "type": "bytes[]"
            },
            {
              "internalType": "uint256[]",
              "name": "gasAmounts",
              "type": "uint256[]"
            }
          ],
          "indexed": false,
          "internalType": "struct GlobalProposal.GlobalProposalDetail",
          "name": "globalProposal",
          "type": "tuple"
        },
        {
          "indexed": false,
          "internalType": "address",
          "name": "creator",
          "type": "address"
        }
      ],
      "name": "GlobalProposalCreated",
      "type": "event"
    },
    {
      "anonymous": false,
      "inputs": [
        {
          "indexed": false,
          "internalType": "bytes",
          "name": "callData",
          "type": "bytes"
        },
        {
          "indexed": false,
          "internalType": "address[]",
          "name": "registers",
          "type": "address[]"
        },
        {
          "indexed": false,
          "internalType": "bool[]",
          "name": "statuses",
          "type": "bool[]"
        },
        {
          "indexed": false,
          "internalType": "bytes[]",
          "name": "returnDatas",
          "type": "bytes[]"
        }
      ],
      "name": "Notified",
      "type": "event"
    },
    {
      "anonymous": false,
      "inputs": [
        {
          "indexed": true,
          "internalType": "bytes32",
          "name": "proposalHash",
          "type": "bytes32"
        }
      ],
      "name": "ProposalApproved",
      "type": "event"
    },
    {
      "anonymous": false,
      "inputs": [
        {
          "indexed": true,
          "internalType": "uint256",
          "name": "chainId",
          "type": "uint256"
        },
        {
          "indexed": true,
          "internalType": "uint256",
          "name": "round",
          "type": "uint256"
        },
        {
          "indexed": true,
          "internalType": "bytes32",
          "name": "proposalHash",
          "type": "bytes32"
        },
        {
          "components": [
            {
              "internalType": "uint256",
              "name": "nonce",
              "type": "uint256"
            },
            {
              "internalType": "uint256",
              "name": "chainId",
              "type": "uint256"
            },
            {
              "internalType": "uint256",
              "name": "expiryTimestamp",
              "type": "uint256"
            },
            {
              "internalType": "address[]",
              "name": "targets",
              "type": "address[]"
            },
            {
              "internalType": "uint256[]",
              "name": "values",
              "type": "uint256[]"
            },
            {
              "internalType": "bytes[]",
              "name": "calldatas",
              "type": "bytes[]"
            },
            {
              "internalType": "uint256[]",
              "name": "gasAmounts",
              "type": "uint256[]"
            }
          ],
          "indexed": false,
          "internalType": "struct Proposal.ProposalDetail",
          "name": "proposal",
          "type": "tuple"
        },
        {
          "indexed": false,
          "internalType": "address",
          "name": "creator",
          "type": "address"
        }
      ],
      "name": "ProposalCreated",
      "type": "event"
    },
    {
      "anonymous": false,
      "inputs": [
        {
          "indexed": true,
          "internalType": "bytes32",
          "name": "proposalHash",
          "type": "bytes32"
        },
        {
          "indexed": false,
          "internalType": "bool[]",
          "name": "successCalls",
          "type": "bool[]"
        },
        {
          "indexed": false,
          "internalType": "bytes[]",
          "name": "returnDatas",
          "type": "bytes[]"
        }
      ],
      "name": "ProposalExecuted",
      "type": "event"
    },
    {
      "anonymous": false,
      "inputs": [
        {
          "indexed": true,
          "internalType": "bytes32",
          "name": "proposalHash",
          "type": "bytes32"
        }
      ],
      "name": "ProposalExpired",
      "type": "event"
    },
    {
      "anonymous": false,
      "inputs": [
        {
          "indexed": true,
          "internalType": "uint256",
          "name": "duration",
          "type": "uint256"
        }
      ],
      "name": "ProposalExpiryDurationChanged",
      "type": "event"
    },
    {
      "anonymous": false,
      "inputs": [
        {
          "indexed": true,
          "internalType": "bytes32",
          "name": "proposalHash",
          "type": "bytes32"
        }
      ],
      "name": "ProposalRejected",
      "type": "event"
    },
    {
      "anonymous": false,
      "inputs": [
        {
          "indexed": true,
          "internalType": "bytes32",
          "name": "proposalHash",
          "type": "bytes32"
        },
        {
          "indexed": true,
          "internalType": "address",
          "name": "voter",
          "type": "address"
        },
        {
          "indexed": false,
          "internalType": "enum Ballot.VoteType",
          "name": "support",
          "type": "uint8"
        },
        {
          "indexed": false,
          "internalType": "uint256",
          "name": "weight",
          "type": "uint256"
        }
      ],
      "name": "ProposalVoted",
      "type": "event"
    },
    {
      "anonymous": false,
      "inputs": [
        {
          "indexed": true,
          "internalType": "enum GlobalProposal.TargetOption[]",
          "name": "targetOptions",
          "type": "uint8[]"
        },
        {
          "indexed": true,
          "internalType": "address[]",
          "name": "addrs",
          "type": "address[]"
        }
      ],
      "name": "TargetOptionsUpdated",
      "type": "event"
    },
    {
      "anonymous": false,
      "inputs": [
        {
          "indexed": true,
          "internalType": "uint256",
          "name": "nonce",
          "type": "uint256"
        },
        {
          "indexed": true,
          "internalType": "uint256",
          "name": "numerator",
          "type": "uint256"
        },
        {
          "indexed": true,
          "internalType": "uint256",
          "name": "denominator",
          "type": "uint256"
        },
        {
          "indexed": false,
          "internalType": "uint256",
          "name": "previousNumerator",
          "type": "uint256"
        },
        {
          "indexed": false,
          "internalType": "uint256",
          "name": "previousDenominator",
          "type": "uint256"
        }
      ],
      "name": "ThresholdUpdated",
      "type": "event"
    },
    {
      "inputs": [],
      "name": "DOMAIN_SEPARATOR",
      "outputs": [
        {
          "internalType": "bytes32",
          "name": "",
          "type": "bytes32"
        }
      ],
      "stateMutability": "view",
      "type": "function"
    },
    {
      "inputs": [
        {
          "internalType": "uint96[]",
          "name": "voteWeights",
          "type": "uint96[]"
        },
        {
          "internalType": "address[]",
          "name": "governors",
          "type": "address[]"
        },
        {
          "internalType": "address[]",
          "name": "bridgeOperators",
          "type": "address[]"
        }
      ],
      "name": "addBridgeOperators",
      "outputs": [
        {
          "internalType": "bool[]",
          "name": "addeds",
          "type": "bool[]"
        }
      ],
      "stateMutability": "nonpayable",
      "type": "function"
    },
    {
      "inputs": [
        {
          "components": [
            {
              "internalType": "uint256",
              "name": "nonce",
              "type": "uint256"
            },
            {
              "internalType": "uint256",
              "name": "expiryTimestamp",
              "type": "uint256"
            },
            {
              "internalType": "enum GlobalProposal.TargetOption[]",
              "name": "targetOptions",
              "type": "uint8[]"
            },
            {
              "internalType": "uint256[]",
              "name": "values",
              "type": "uint256[]"
            },
            {
              "internalType": "bytes[]",
              "name": "calldatas",
              "type": "bytes[]"
            },
            {
              "internalType": "uint256[]",
              "name": "gasAmounts",
              "type": "uint256[]"
            }
          ],
          "internalType": "struct GlobalProposal.GlobalProposalDetail",
          "name": "globalProposal",
          "type": "tuple"
        },
        {
          "internalType": "enum Ballot.VoteType[]",
          "name": "supports_",
          "type": "uint8[]"
        },
        {
          "components": [
            {
              "internalType": "uint8",
              "name": "v",
              "type": "uint8"
            },
            {
              "internalType": "bytes32",
              "name": "r",
              "type": "bytes32"
            },
            {
              "internalType": "bytes32",
              "name": "s",
              "type": "bytes32"
            }
          ],
          "internalType": "struct SignatureConsumer.Signature[]",
          "name": "signatures",
          "type": "tuple[]"
        }
      ],
      "name": "castGlobalProposalBySignatures",
      "outputs": [],
      "stateMutability": "nonpayable",
      "type": "function"
    },
    {
      "inputs": [
        {
          "components": [
            {
              "internalType": "uint256",
              "name": "nonce",
              "type": "uint256"
            },
            {
              "internalType": "uint256",
              "name": "chainId",
              "type": "uint256"
            },
            {
              "internalType": "uint256",
              "name": "expiryTimestamp",
              "type": "uint256"
            },
            {
              "internalType": "address[]",
              "name": "targets",
              "type": "address[]"
            },
            {
              "internalType": "uint256[]",
              "name": "values",
              "type": "uint256[]"
            },
            {
              "internalType": "bytes[]",
              "name": "calldatas",
              "type": "bytes[]"
            },
            {
              "internalType": "uint256[]",
              "name": "gasAmounts",
              "type": "uint256[]"
            }
          ],
          "internalType": "struct Proposal.ProposalDetail",
          "name": "proposal",
          "type": "tuple"
        },
        {
          "internalType": "enum Ballot.VoteType[]",
          "name": "supports_",
          "type": "uint8[]"
        },
        {
          "components": [
            {
              "internalType": "uint8",
              "name": "v",
              "type": "uint8"
            },
            {
              "internalType": "bytes32",
              "name": "r",
              "type": "bytes32"
            },
            {
              "internalType": "bytes32",
              "name": "s",
              "type": "bytes32"
            }
          ],
          "internalType": "struct SignatureConsumer.Signature[]",
          "name": "signatures",
          "type": "tuple[]"
        }
      ],
      "name": "castProposalBySignatures",
      "outputs": [],
      "stateMutability": "nonpayable",
      "type": "function"
    },
    {
      "inputs": [
        {
          "components": [
            {
              "internalType": "uint256",
              "name": "nonce",
              "type": "uint256"
            },
            {
              "internalType": "uint256",
              "name": "chainId",
              "type": "uint256"
            },
            {
              "internalType": "uint256",
              "name": "expiryTimestamp",
              "type": "uint256"
            },
            {
              "internalType": "address[]",
              "name": "targets",
              "type": "address[]"
            },
            {
              "internalType": "uint256[]",
              "name": "values",
              "type": "uint256[]"
            },
            {
              "internalType": "bytes[]",
              "name": "calldatas",
              "type": "bytes[]"
            },
            {
              "internalType": "uint256[]",
              "name": "gasAmounts",
              "type": "uint256[]"
            }
          ],
          "internalType": "struct Proposal.ProposalDetail",
          "name": "proposal",
          "type": "tuple"
        },
        {
          "internalType": "enum Ballot.VoteType",
          "name": "support",
          "type": "uint8"
        }
      ],
      "name": "castProposalVoteForCurrentNetwork",
      "outputs": [],
      "stateMutability": "nonpayable",
      "type": "function"
    },
    {
      "inputs": [
        {
          "internalType": "uint256",
          "name": "_voteWeight",
          "type": "uint256"
        }
      ],
      "name": "checkThreshold",
      "outputs": [
        {
          "internalType": "bool",
          "name": "",
          "type": "bool"
        }
      ],
      "stateMutability": "view",
      "type": "function"
    },
    {
      "inputs": [
        {
          "internalType": "uint256",
          "name": "_chainId",
          "type": "uint256"
        },
        {
          "internalType": "uint256",
          "name": "_round",
          "type": "uint256"
        }
      ],
      "name": "deleteExpired",
      "outputs": [],
      "stateMutability": "nonpayable",
      "type": "function"
    },
    {
      "inputs": [
        {
          "internalType": "address[]",
          "name": "governors",
          "type": "address[]"
        }
      ],
      "name": "getBridgeOperatorOf",
      "outputs": [
        {
          "internalType": "address[]",
          "name": "bridgeOperators",
          "type": "address[]"
        }
      ],
      "stateMutability": "view",
      "type": "function"
    },
    {
      "inputs": [
        {
          "internalType": "address",
          "name": "bridgeOperator",
          "type": "address"
        }
      ],
      "name": "getBridgeOperatorWeight",
      "outputs": [
        {
          "internalType": "uint256",
          "name": "weight",
          "type": "uint256"
        }
      ],
      "stateMutability": "view",
      "type": "function"
    },
    {
      "inputs": [],
      "name": "getBridgeOperators",
      "outputs": [
        {
          "internalType": "address[]",
          "name": "",
          "type": "address[]"
        }
      ],
      "stateMutability": "view",
      "type": "function"
    },
    {
      "inputs": [],
      "name": "getCallbackRegisters",
      "outputs": [
        {
          "internalType": "address[]",
          "name": "registers",
          "type": "address[]"
        }
      ],
      "stateMutability": "view",
      "type": "function"
    },
    {
      "inputs": [
        {
          "internalType": "enum ContractType",
          "name": "contractType",
          "type": "uint8"
        }
      ],
      "name": "getContract",
      "outputs": [
        {
          "internalType": "address",
          "name": "contract_",
          "type": "address"
        }
      ],
      "stateMutability": "view",
      "type": "function"
    },
    {
      "inputs": [],
      "name": "getFullBridgeOperatorInfos",
      "outputs": [
        {
          "internalType": "address[]",
          "name": "governors",
          "type": "address[]"
        },
        {
          "internalType": "address[]",
          "name": "bridgeOperators",
          "type": "address[]"
        },
        {
          "internalType": "uint256[]",
          "name": "weights",
          "type": "uint256[]"
        }
      ],
      "stateMutability": "view",
      "type": "function"
    },
    {
      "inputs": [
        {
          "internalType": "uint256",
          "name": "round_",
          "type": "uint256"
        }
      ],
      "name": "getGlobalProposalSignatures",
      "outputs": [
        {
          "internalType": "address[]",
          "name": "voters",
          "type": "address[]"
        },
        {
          "internalType": "enum Ballot.VoteType[]",
          "name": "supports_",
          "type": "uint8[]"
        },
        {
          "components": [
            {
              "internalType": "uint8",
              "name": "v",
              "type": "uint8"
            },
            {
              "internalType": "bytes32",
              "name": "r",
              "type": "bytes32"
            },
            {
              "internalType": "bytes32",
              "name": "s",
              "type": "bytes32"
            }
          ],
          "internalType": "struct SignatureConsumer.Signature[]",
          "name": "signatures",
          "type": "tuple[]"
        }
      ],
      "stateMutability": "view",
      "type": "function"
    },
    {
      "inputs": [
        {
          "internalType": "address",
          "name": "governor",
          "type": "address"
        }
      ],
      "name": "getGovernorWeight",
      "outputs": [
        {
          "internalType": "uint256",
          "name": "weight",
          "type": "uint256"
        }
      ],
      "stateMutability": "view",
      "type": "function"
    },
    {
      "inputs": [
        {
          "internalType": "address[]",
          "name": "governors",
          "type": "address[]"
        }
      ],
      "name": "getGovernorWeights",
      "outputs": [
        {
          "internalType": "uint256[]",
          "name": "weights",
          "type": "uint256[]"
        }
      ],
      "stateMutability": "view",
      "type": "function"
    },
    {
      "inputs": [],
      "name": "getGovernors",
      "outputs": [
        {
          "internalType": "address[]",
          "name": "",
          "type": "address[]"
        }
      ],
      "stateMutability": "view",
      "type": "function"
    },
    {
      "inputs": [
        {
          "internalType": "address[]",
          "name": "bridgeOperators",
          "type": "address[]"
        }
      ],
      "name": "getGovernorsOf",
      "outputs": [
        {
          "internalType": "address[]",
          "name": "governors",
          "type": "address[]"
        }
      ],
      "stateMutability": "view",
      "type": "function"
    },
    {
      "inputs": [],
      "name": "getProposalExpiryDuration",
      "outputs": [
        {
          "internalType": "uint256",
          "name": "",
          "type": "uint256"
        }
      ],
      "stateMutability": "view",
      "type": "function"
    },
    {
      "inputs": [
        {
          "internalType": "uint256",
          "name": "_chainId",
          "type": "uint256"
        },
        {
          "internalType": "uint256",
          "name": "_round",
          "type": "uint256"
        }
      ],
      "name": "getProposalSignatures",
      "outputs": [
        {
          "internalType": "address[]",
          "name": "_voters",
          "type": "address[]"
        },
        {
          "internalType": "enum Ballot.VoteType[]",
          "name": "_supports",
          "type": "uint8[]"
        },
        {
          "components": [
            {
              "internalType": "uint8",
              "name": "v",
              "type": "uint8"
            },
            {
              "internalType": "bytes32",
              "name": "r",
              "type": "bytes32"
            },
            {
              "internalType": "bytes32",
              "name": "s",
              "type": "bytes32"
            }
          ],
          "internalType": "struct SignatureConsumer.Signature[]",
          "name": "_signatures",
          "type": "tuple[]"
        }
      ],
      "stateMutability": "view",
      "type": "function"
    },
    {
      "inputs": [],
      "name": "getThreshold",
      "outputs": [
        {
          "internalType": "uint256",
          "name": "num_",
          "type": "uint256"
        },
        {
          "internalType": "uint256",
          "name": "denom_",
          "type": "uint256"
        }
      ],
      "stateMutability": "view",
      "type": "function"
    },
    {
      "inputs": [],
      "name": "getTotalWeights",
      "outputs": [
        {
          "internalType": "uint256",
          "name": "",
          "type": "uint256"
        }
      ],
      "stateMutability": "view",
      "type": "function"
    },
    {
      "inputs": [
        {
          "internalType": "uint256",
          "name": "round_",
          "type": "uint256"
        },
        {
          "internalType": "address",
          "name": "voter",
          "type": "address"
        }
      ],
      "name": "globalProposalVoted",
      "outputs": [
        {
          "internalType": "bool",
          "name": "",
          "type": "bool"
        }
      ],
      "stateMutability": "view",
      "type": "function"
    },
    {
      "inputs": [
        {
          "internalType": "address",
          "name": "addr",
          "type": "address"
        }
      ],
      "name": "isBridgeOperator",
      "outputs": [
        {
          "internalType": "bool",
          "name": "",
          "type": "bool"
        }
      ],
      "stateMutability": "view",
      "type": "function"
    },
    {
      "inputs": [],
      "name": "minimumVoteWeight",
      "outputs": [
        {
          "internalType": "uint256",
          "name": "",
          "type": "uint256"
        }
      ],
      "stateMutability": "view",
      "type": "function"
    },
    {
      "inputs": [
        {
          "internalType": "uint256",
          "name": "_chainId",
          "type": "uint256"
        },
        {
          "internalType": "uint256",
          "name": "_round",
          "type": "uint256"
        },
        {
          "internalType": "address",
          "name": "_voter",
          "type": "address"
        }
      ],
      "name": "proposalVoted",
      "outputs": [
        {
          "internalType": "bool",
          "name": "",
          "type": "bool"
        }
      ],
      "stateMutability": "view",
      "type": "function"
    },
    {
      "inputs": [
        {
          "internalType": "uint256",
          "name": "_chainId",
          "type": "uint256"
        },
        {
          "internalType": "uint256",
          "name": "_expiryTimestamp",
          "type": "uint256"
        },
        {
          "internalType": "address[]",
          "name": "_targets",
          "type": "address[]"
        },
        {
          "internalType": "uint256[]",
          "name": "_values",
          "type": "uint256[]"
        },
        {
          "internalType": "bytes[]",
          "name": "_calldatas",
          "type": "bytes[]"
        },
        {
          "internalType": "uint256[]",
          "name": "_gasAmounts",
          "type": "uint256[]"
        }
      ],
      "name": "propose",
      "outputs": [],
      "stateMutability": "nonpayable",
      "type": "function"
    },
    {
      "inputs": [
        {
          "internalType": "uint256",
          "name": "expiryTimestamp",
          "type": "uint256"
        },
        {
          "internalType": "enum GlobalProposal.TargetOption[]",
          "name": "targetOptions",
          "type": "uint8[]"
        },
        {
          "internalType": "uint256[]",
          "name": "values",
          "type": "uint256[]"
        },
        {
          "internalType": "bytes[]",
          "name": "calldatas",
          "type": "bytes[]"
        },
        {
          "internalType": "uint256[]",
          "name": "gasAmounts",
          "type": "uint256[]"
        }
      ],
      "name": "proposeGlobal",
      "outputs": [],
      "stateMutability": "nonpayable",
      "type": "function"
    },
    {
      "inputs": [
        {
          "components": [
            {
              "internalType": "uint256",
              "name": "nonce",
              "type": "uint256"
            },
            {
              "internalType": "uint256",
              "name": "expiryTimestamp",
              "type": "uint256"
            },
            {
              "internalType": "enum GlobalProposal.TargetOption[]",
              "name": "targetOptions",
              "type": "uint8[]"
            },
            {
              "internalType": "uint256[]",
              "name": "values",
              "type": "uint256[]"
            },
            {
              "internalType": "bytes[]",
              "name": "calldatas",
              "type": "bytes[]"
            },
            {
              "internalType": "uint256[]",
              "name": "gasAmounts",
              "type": "uint256[]"
            }
          ],
          "internalType": "struct GlobalProposal.GlobalProposalDetail",
          "name": "globalProposal",
          "type": "tuple"
        },
        {
          "internalType": "enum Ballot.VoteType[]",
          "name": "supports_",
          "type": "uint8[]"
        },
        {
          "components": [
            {
              "internalType": "uint8",
              "name": "v",
              "type": "uint8"
            },
            {
              "internalType": "bytes32",
              "name": "r",
              "type": "bytes32"
            },
            {
              "internalType": "bytes32",
              "name": "s",
              "type": "bytes32"
            }
          ],
          "internalType": "struct SignatureConsumer.Signature[]",
          "name": "signatures",
          "type": "tuple[]"
        }
      ],
      "name": "proposeGlobalProposalStructAndCastVotes",
      "outputs": [],
      "stateMutability": "nonpayable",
      "type": "function"
    },
    {
      "inputs": [
        {
          "internalType": "uint256",
          "name": "expiryTimestamp",
          "type": "uint256"
        },
        {
          "internalType": "address[]",
          "name": "targets",
          "type": "address[]"
        },
        {
          "internalType": "uint256[]",
          "name": "values",
          "type": "uint256[]"
        },
        {
          "internalType": "bytes[]",
          "name": "calldatas",
          "type": "bytes[]"
        },
        {
          "internalType": "uint256[]",
          "name": "gasAmounts",
          "type": "uint256[]"
        },
        {
          "internalType": "enum Ballot.VoteType",
          "name": "support",
          "type": "uint8"
        }
      ],
      "name": "proposeProposalForCurrentNetwork",
      "outputs": [],
      "stateMutability": "nonpayable",
      "type": "function"
    },
    {
      "inputs": [
        {
          "components": [
            {
              "internalType": "uint256",
              "name": "nonce",
              "type": "uint256"
            },
            {
              "internalType": "uint256",
              "name": "chainId",
              "type": "uint256"
            },
            {
              "internalType": "uint256",
              "name": "expiryTimestamp",
              "type": "uint256"
            },
            {
              "internalType": "address[]",
              "name": "targets",
              "type": "address[]"
            },
            {
              "internalType": "uint256[]",
              "name": "values",
              "type": "uint256[]"
            },
            {
              "internalType": "bytes[]",
              "name": "calldatas",
              "type": "bytes[]"
            },
            {
              "internalType": "uint256[]",
              "name": "gasAmounts",
              "type": "uint256[]"
            }
          ],
          "internalType": "struct Proposal.ProposalDetail",
          "name": "_proposal",
          "type": "tuple"
        },
        {
          "internalType": "enum Ballot.VoteType[]",
          "name": "_supports",
          "type": "uint8[]"
        },
        {
          "components": [
            {
              "internalType": "uint8",
              "name": "v",
              "type": "uint8"
            },
            {
              "internalType": "bytes32",
              "name": "r",
              "type": "bytes32"
            },
            {
              "internalType": "bytes32",
              "name": "s",
              "type": "bytes32"
            }
          ],
          "internalType": "struct SignatureConsumer.Signature[]",
          "name": "_signatures",
          "type": "tuple[]"
        }
      ],
      "name": "proposeProposalStructAndCastVotes",
      "outputs": [],
      "stateMutability": "nonpayable",
      "type": "function"
    },
    {
      "inputs": [
        {
          "internalType": "address[]",
          "name": "registers",
          "type": "address[]"
        }
      ],
      "name": "registerCallbacks",
      "outputs": [
        {
          "internalType": "bool[]",
          "name": "registereds",
          "type": "bool[]"
        }
      ],
      "stateMutability": "nonpayable",
      "type": "function"
    },
    {
      "inputs": [
        {
          "internalType": "address[]",
          "name": "bridgeOperators",
          "type": "address[]"
        }
      ],
      "name": "removeBridgeOperators",
      "outputs": [
        {
          "internalType": "bool[]",
          "name": "removeds",
          "type": "bool[]"
        }
      ],
      "stateMutability": "nonpayable",
      "type": "function"
    },
    {
      "inputs": [
        {
          "internalType": "enum GlobalProposal.TargetOption[]",
          "name": "targetOptions",
          "type": "uint8[]"
        }
      ],
      "name": "resolveTargets",
      "outputs": [
        {
          "internalType": "address[]",
          "name": "targets",
          "type": "address[]"
        }
      ],
      "stateMutability": "view",
      "type": "function"
    },
    {
      "inputs": [
        {
          "internalType": "uint256",
          "name": "",
          "type": "uint256"
        }
      ],
      "name": "round",
      "outputs": [
        {
          "internalType": "uint256",
          "name": "",
          "type": "uint256"
        }
      ],
      "stateMutability": "view",
      "type": "function"
    },
    {
      "inputs": [
        {
          "internalType": "enum ContractType",
          "name": "contractType",
          "type": "uint8"
        },
        {
          "internalType": "address",
          "name": "addr",
          "type": "address"
        }
      ],
      "name": "setContract",
      "outputs": [],
      "stateMutability": "nonpayable",
      "type": "function"
    },
    {
      "inputs": [
        {
          "internalType": "uint256",
          "name": "numerator",
          "type": "uint256"
        },
        {
          "internalType": "uint256",
          "name": "denominator",
          "type": "uint256"
        }
      ],
      "name": "setThreshold",
      "outputs": [
        {
          "internalType": "uint256",
          "name": "",
          "type": "uint256"
        },
        {
          "internalType": "uint256",
          "name": "",
          "type": "uint256"
        }
      ],
      "stateMutability": "nonpayable",
      "type": "function"
    },
    {
      "inputs": [
        {
          "internalType": "address[]",
          "name": "governors",
          "type": "address[]"
        }
      ],
      "name": "sumGovernorsWeight",
      "outputs": [
        {
          "internalType": "uint256",
          "name": "sum",
          "type": "uint256"
        }
      ],
      "stateMutability": "view",
      "type": "function"
    },
    {
      "inputs": [],
      "name": "totalBridgeOperators",
      "outputs": [
        {
          "internalType": "uint256",
          "name": "",
          "type": "uint256"
        }
      ],
      "stateMutability": "view",
      "type": "function"
    },
    {
      "inputs": [
        {
          "internalType": "address[]",
          "name": "registers",
          "type": "address[]"
        }
      ],
      "name": "unregisterCallbacks",
      "outputs": [
        {
          "internalType": "bool[]",
          "name": "unregistereds",
          "type": "bool[]"
        }
      ],
      "stateMutability": "nonpayable",
      "type": "function"
    },
    {
      "inputs": [
        {
          "internalType": "address",
          "name": "newBridgeOperator",
          "type": "address"
        }
      ],
      "name": "updateBridgeOperator",
      "outputs": [],
      "stateMutability": "nonpayable",
      "type": "function"
    },
    {
      "inputs": [
        {
          "internalType": "enum GlobalProposal.TargetOption[]",
          "name": "targetOptions",
          "type": "uint8[]"
        },
        {
          "internalType": "address[]",
          "name": "targets",
          "type": "address[]"
        }
      ],
      "name": "updateTargetOptions",
      "outputs": [],
      "stateMutability": "nonpayable",
      "type": "function"
    },
    {
      "inputs": [
        {
          "internalType": "uint256",
          "name": "",
          "type": "uint256"
        },
        {
          "internalType": "uint256",
          "name": "",
          "type": "uint256"
        }
      ],
      "name": "vote",
      "outputs": [
        {
          "internalType": "enum VoteStatusConsumer.VoteStatus",
          "name": "status",
          "type": "uint8"
        },
        {
          "internalType": "bytes32",
          "name": "hash",
          "type": "bytes32"
        },
        {
          "internalType": "uint256",
          "name": "againstVoteWeight",
          "type": "uint256"
        },
        {
          "internalType": "uint256",
          "name": "forVoteWeight",
          "type": "uint256"
        },
        {
          "internalType": "uint256",
          "name": "expiryTimestamp",
          "type": "uint256"
        }
      ],
      "stateMutability": "view",
      "type": "function"
    }
  ],
  "transactionHash": "0xa3665339adb8c8aa3ea55da08ff5bb5721b20abf3a1554f93d049af593ef9f7c",
  "args": [
    70,
    100,
    2021,
    1209600,
    "0xCee681C9108c42C710c6A8A949307D5F13C9F3ca",
    [
      "0xEE0Ad92514E74afeD017da9be5bB4f707A8A4908"
    ],
    [
      "0x2e82D2b56f858f79DeeF11B160bFC4631873da2B",
      "0xBcb61783dd2403FE8cC9B89B27B1A9Bb03d040Cb",
      "0xB266Bf53Cf7EAc4E2065A404598DCB0E15E9462c",
      "0xcc5fc5b6c8595f56306da736f6cd02ed9141c84a"
    ],
    [
      "0xd24D87DDc1917165435b306aAC68D99e0F49A3Fa",
      "0xb033ba62EC622dC54D0ABFE0254e79692147CA26",
      "0x087D08e3ba42e64E3948962dd1371F906D1278b9",
      "0x52ec2e6BBcE45AfFF8955Da6410bb13812F4289F"
    ],
    [
      100,
      100,
      100,
      100
    ],
    [
      0,
      1,
      2,
      3
    ],
    [
      "0xbFa45d9D1a48f7eda7E7bac923Dfde25b072866c",
      "0xCee681C9108c42C710c6A8A949307D5F13C9F3ca",
      "0xd006158E7C2C015D16d017f4EB7A6Abc51A99937",
      "0xEE0Ad92514E74afeD017da9be5bB4f707A8A4908"
    ]
  ],
  "numDeployments": 3,
  "solcInputHash": "1c9545b53bd05cedc4599c9295449bf2",
  "bytecode": "0x60a060405260405162007877380380620078778339810160408190526200002691620013e6565b8181898d8d8d8c8c8c8c8c836200003d8162000229565b50506200007d60017f92872d32822c9d44b36a2537d3e0d4c46fc4de1ce154ccfaed560a8a58445f1d60001b6200034660201b620013141790919060201c565b620000ba887fc55405a488814eaa0e2a685a0131142785b8d033d311c8c8244e34a7c12ca40f60001b6200034660201b620013141790919060201c565b620000f7877fac1ff16a4f04f2a37a9ba5252a69baa100b460e517d1f8019c054a5ad698f9ff60001b6200034660201b620013141790919060201c565b620001046002866200034a565b604080516020808201839052600c60608301526b212924a223a2afa0a226a4a760a11b6080808401919091528284018a905283518084038201815260a0840185528051908301207f599a80fcaa47b95e2323ab4d34d34e0cc9feda4b843edafcc30c7bdf60ea15bf60c08501527f9d3fa1662ea89365eb7af36506f0ad5413bd7e078960d8481ff4718763aaa8e960e08501527fad7c5bef027816a800da1736444fb58a807ef4c9603b7848673f7e3a68eb14a5610100850152610120808501919091528451808503909101815261014090930190935281519101209052620001ef818385620003f4565b50505050505050505062000209816200088b60201b60201c565b50620002168282620008be565b50505050505050505050505050620018f9565b6060816200023781620009c5565b8251806001600160401b0381111562000254576200025462001211565b6040519080825280602002602001820160405280156200027e578160200160208202803683370190505b5092508060000362000291575062000340565b6000805160206200785783398151915260006314d72edb60e21b815b848110156200033a57878181518110620002cb57620002cb62001552565b60200260200101519250620002e68362000a0c60201b60201c565b620002f2838362000a44565b6200030c838562000c2360201b620013181790919060201c565b87828151811062000321576200032162001552565b91151560209283029190910190910152600101620002ad565b50505050505b50919050565b9055565b807fdea3103d22025c269050bea94c0c84688877f12fa22b7e6d2d5d78a9a49aa1cb600084600d81111562000383576200038362001568565b60ff168152602081019190915260400160002080546001600160a01b0319166001600160a01b03928316179055811682600d811115620003c757620003c762001568565b6040517f865d1c228a8ea13709cfe61f346f7ff67f1bbd4a18ff31ad3e7147350d317c5990600090a35050565b606062000410828462000c4360201b6200132d1790919060201c565b6200041b81620009c5565b82518551811480156200042e5750845181145b6200045f576040516306b5667560e21b81526001600160e01b03196000351660048201526024015b60405180910390fd5b806001600160401b038111156200047a576200047a62001211565b604051908082528060200260200182016040528015620004a4578160200160208202803683370190505b50925080600003620004b7575062000883565b604080518082019091526000808252602082018190527f546f6b46ab35b030b6816596b352aef78857377176c8b24baa2046a62cf1998c917f8400683eb2cb350596d73644c0c89fe45f108600003457374f4ab3e87b4f3aa3917fd38c234075fde25875da8a6b7e36b58b86681d483271a99eeeee1d78e258a24d917f88547008e60f5748911f2e59feb3093b7e4c2e87b2dd69d61f112fcc932de8e3919081908190815b89811015620007c4578d81815181106200057a576200057a62001552565b602002602001015194508c818151811062000599576200059962001552565b60200260200101519350620005b48562000d6160201b60201c565b620005bf8462000d61565b8e8181518110620005d457620005d462001552565b60200260200101516001600160601b03166000036200061557604051637f11b8a360e11b81526001600160e01b031960003516600482015260240162000456565b6200062f858a62000dcf60201b620014371790919060201c565b8062000650575062000650848a62000dcf60201b620014371790919060201c565b8062000671575062000671858862000dcf60201b620014371790919060201c565b8062000692575062000692848862000dcf60201b620014371790919060201c565b158c8281518110620006a857620006a862001552565b6020026020010190151590811515815250508b8181518110620006cf57620006cf62001552565b602002602001015115620007bb57620006f7858a62000c2360201b620013181790919060201c565b5062000712848862000c2360201b620013181790919060201c565b506001600160a01b03848116600081815260208b90526040902080546001600160a01b0319169288169290921790915582528e518f90829081106200075b576200075b62001552565b6020908102919091018101516001600160601b03169083018190526200078290846200157e565b6001600160a01b038087166000908152602089815260409091208551918601516001600160601b0316600160a01b029190921617905592505b6001016200055c565b5062000802827f6924fe71b0c8b61aea02ca498b5f53b29bd95726278b1fe4eb791bb24a42644c60001b62000df260201b620014591790919060201c565b506200083a635ebae8a060e01b8d8d604051602001620008249291906200161a565b60408051601f1981840301815291905262000e0c565b7f897810999654e525e272b5909785c4d0ceaee1bbf9c87d9091a37558b0423b788b8f8f8f6040516200087194939291906200164c565b60405180910390a15050505050505050505b509392505050565b600281905560405181907fe5cd1c123a8cf63fa1b7229678db61fe8ae99dbbd27889370b6667c8cae97da190600090a250565b60005b82518110156200096857818181518110620008e057620008e062001552565b60200260200101516003600085848151811062000901576200090162001552565b602002602001015160038111156200091d576200091d62001568565b600381111562000931576200093162001568565b8152602081019190915260400160002080546001600160a01b0319166001600160a01b0392909216919091179055600101620008c1565b5080604051620009799190620016dc565b6040518091039020826040516200099191906200171d565b604051908190038120907f548a12551fc2aae80bb0c0d82b00ff51bccce1648420bb7e8b0f4f03d65531da90600090a35050565b620009db816200102c60201b620014701760201c565b1562000a0957604051630d697db160e11b81526001600160e01b031960003516600482015260240162000456565b50565b806001600160a01b03163b60000362000a0957604051630bfc64a360e21b81526001600160a01b038216600482015260240162000456565b6040516001600160e01b03198216602482015260009060440160408051601f198184030181529181526020820180516001600160e01b03166301ffc9a760e01b1790525190915060009081906001600160a01b0386169062000aa89085906200179b565b600060405180830381855afa9150503d806000811462000ae5576040519150601f19603f3d011682016040523d82523d6000602084013e62000aea565b606091505b50915091508162000bcc57846001600160a01b03168360405160240162000b129190620017e7565b60408051601f198184030181529181526020820180516001600160e01b03166325da93a560e11b1790525162000b4991906200179b565b600060405180830381855afa9150503d806000811462000b86576040519150601f19603f3d011682016040523d82523d6000602084013e62000b8b565b606091505b5090925090508162000bcc5760405163069d427960e11b81526001600160e01b0319851660048201526001600160a01b038616602482015260440162000456565b8080602001905181019062000be29190620017fc565b62000c1c5760405163069d427960e11b81526001600160e01b0319851660048201526001600160a01b038616602482015260440162000456565b5050505050565b600062000c3a836001600160a01b038416620010d7565b90505b92915050565b81518151606091908082016001600160401b0381111562000c685762000c6862001211565b60405190808252806020026020018201604052801562000c92578160200160208202803683370190505b50925060005b8281101562000cf45785818151811062000cb65762000cb662001552565b602002602001015184828151811062000cd35762000cd362001552565b6001600160a01b039092166020928302919091019091015260010162000c98565b60005b8281101562000d575785818151811062000d155762000d1562001552565b602002602001015185838151811062000d325762000d3262001552565b6001600160a01b03909216602092830291909101909101526001918201910162000cf7565b5050505092915050565b62000d6c8162001129565b6001600160a01b0381163f7fc5d2460186f7233c927e7db2dcc703c0e500b653ca82273b7bfad8045d85a470811462000dcb57604051633c88494760e01b81526001600160a01b03831660048201526024810182905260440162000456565b5050565b6001600160a01b0381166000908152600183016020526040812054151562000c3a565b600062000c3d8362000e05818562001160565b9250829055565b600062000e33600080516020620078578339815191526200118060201b6200150f1760201c565b8051909150600081900362000e485750505050565b6000816001600160401b0381111562000e655762000e6562001211565b60405190808252806020026020018201604052801562000e8f578160200160208202803683370190505b5090506000826001600160401b0381111562000eaf5762000eaf62001211565b60405190808252806020026020018201604052801562000ee457816020015b606081526020019060019003908162000ece5790505b5090506000868660405160200162000efe92919062001820565b604051602081830303815290604052905060005b8481101562000fe35785818151811062000f305762000f3062001552565b60200260200101516001600160a01b03168260405162000f5191906200179b565b6000604051808303816000865af19150503d806000811462000f90576040519150601f19603f3d011682016040523d82523d6000602084013e62000f95565b606091505b5085838151811062000fab5762000fab62001552565b6020026020010185848151811062000fc75762000fc762001552565b6020908102919091010191909152901515905260010162000f12565b507fc0b07a27e66788f39cc91405f012f34066b16f31b4bda9438c52f2dae0cc5b63818685856040516200101b949392919062001853565b60405180910390a150505050505050565b600081516000036200104057506000919050565b60005b6001835103811015620010ce57600181015b8351811015620010c45783818151811062001074576200107462001552565b60200260200101516001600160a01b03168483815181106200109a576200109a62001552565b60200260200101516001600160a01b031603620010bb575060019392505050565b60010162001055565b5060010162001043565b50600092915050565b6000818152600183016020526040812054620011205750815460018181018455600084815260208082209093018490558454848252828601909352604090209190915562000c3d565b50600062000c3d565b6001600160a01b03811662000a095760405163104c66df60e31b81526001600160e01b031960003516600482015260240162000456565b815481018181101562000c3d57634e487b7160005260116020526024601cfd5b606060006200118f8362001196565b9392505050565b606081600001805480602002602001604051908101604052809291908181526020018280548015620011e857602002820191906000526020600020905b815481526020019060010190808311620011d3575b50505050509050919050565b80516001600160a01b03811681146200120c57600080fd5b919050565b634e487b7160e01b600052604160045260246000fd5b604051601f8201601f191681016001600160401b038111828210171562001252576200125262001211565b604052919050565b60006001600160401b0382111562001276576200127662001211565b5060051b60200190565b600082601f8301126200129257600080fd5b81516020620012ab620012a5836200125a565b62001227565b82815260059290921b84018101918181019086841115620012cb57600080fd5b8286015b84811015620012f157620012e381620011f4565b8352918301918301620012cf565b509695505050505050565b600082601f8301126200130e57600080fd5b8151602062001321620012a5836200125a565b82815260059290921b840181019181810190868411156200134157600080fd5b8286015b84811015620012f15780516001600160601b0381168114620013675760008081fd5b835291830191830162001345565b600082601f8301126200138757600080fd5b815160206200139a620012a5836200125a565b82815260059290921b84018101918181019086841115620013ba57600080fd5b8286015b84811015620012f157805160048110620013d85760008081fd5b8352918301918301620013be565b60008060008060008060008060008060006101608c8e0312156200140957600080fd5b8b519a5060208c0151995060408c0151985060608c015197506200143060808d01620011f4565b60a08d01519097506001600160401b038111156200144d57600080fd5b6200145b8e828f0162001280565b60c08e015190975090506001600160401b038111156200147a57600080fd5b620014888e828f0162001280565b60e08e015190965090506001600160401b03811115620014a757600080fd5b620014b58e828f0162001280565b6101008e015190955090506001600160401b03811115620014d557600080fd5b620014e38e828f01620012fc565b6101208e015190945090506001600160401b038111156200150357600080fd5b620015118e828f0162001375565b6101408e015190935090506001600160401b038111156200153157600080fd5b6200153f8e828f0162001280565b9150509295989b509295989b9093969950565b634e487b7160e01b600052603260045260246000fd5b634e487b7160e01b600052602160045260246000fd5b8082018082111562000c3d57634e487b7160e01b600052601160045260246000fd5b600081518084526020808501945080840160005b83811015620015db5781516001600160a01b031687529582019590820190600101620015b4565b509495945050505050565b600081518084526020808501945080840160005b83811015620015db578151151587529582019590820190600101620015fa565b6040815260006200162f6040830185620015a0565b8281036020840152620016438185620015e6565b95945050505050565b608081526000620016616080830187620015e6565b82810360208481019190915286518083528782019282019060005b81811015620016a35784516001600160601b0316835293830193918301916001016200167c565b50508481036040860152620016b98188620015a0565b925050508281036060840152620016d18185620015a0565b979650505050505050565b815160009082906020808601845b83811015620017115781516001600160a01b031685529382019390820190600101620016ea565b50929695505050505050565b81516000908290602080860184805b848110156200176857825160048082106200175457634e487b7160e01b845260218152602484fd5b50865294830194918301916001016200172c565b5093979650505050505050565b60005b838110156200179257818101518382015260200162001778565b50506000910152565b60008251620017af81846020870162001775565b9190910192915050565b60008151808452620017d381602086016020860162001775565b601f01601f19169290920160200192915050565b60208152600062000c3a6020830184620017b9565b6000602082840312156200180f57600080fd5b815180151581146200118f57600080fd5b6001600160e01b03198316815281516000906200184581600485016020870162001775565b919091016004019392505050565b608081526000620018686080830187620017b9565b6020838203818501526200187d8288620015a0565b91508382036040850152620018938287620015e6565b915083820360608501528185518084528284019150828160051b85010183880160005b83811015620018e857601f19878403018552620018d5838351620017b9565b94860194925090850190600101620018b6565b50909b9a5050505050505050505050565b608051615f2662001931600039600081816103d0015281816106a2015281816108a5015281816109f001526112000152615f266000f3fe608060405234801561001057600080fd5b50600436106102685760003560e01c80639a7d338211610151578063bc96180b116100c3578063de981f1b11610087578063de981f1b1461061b578063e75235b814610646578063e9c034981461064e578063f80b535214610661578063fb4f637114610669578063fdc4fa471461067c57600080fd5b8063bc96180b146105b6578063c441c4a8146105be578063cc7e6b3b146105d5578063d78392f8146105f5578063dafae4081461060857600080fd5b8063ada86b2411610115578063ada86b24146104f2578063b384abef146104fa578063b405aaf214610555578063b9c3620914610568578063bc4e068f14610590578063bc9182fd146105a357600080fd5b80639a7d33821461049e5780639b19dbfd146104b15780639b2ee437146104b9578063a1819f9a146104cc578063a8a0e32c146104df57600080fd5b80632d6d7d73116101ea578063562d5304116101ae578063562d5304146103f2578063663ac011146103fa5780637de5dedd1461040d578063828fc1a114610415578063865e6fd314610428578063901979d51461043b57600080fd5b80632d6d7d73146103725780632faf925d1461038557806334d5f37b1461039857806335da8121146103b85780633644e515146103cb57600080fd5b80630f7c3189116102315780630f7c3189146102f25780631c905e39146103075780631f4253381461032957806326ad49b01461033c5780632c5e65201461034f57600080fd5b80624054b81461026d57806301a5f43f1461028257806309fcd8c7146102ab5780630a44fa43146102be5780630b881830146102df575b600080fd5b61028061027b366004614a57565b61068f565b005b610295610290366004614aeb565b6106ce565b6040516102a29190614bc1565b60405180910390f35b6102806102b9366004614bd4565b610781565b6102d16102cc366004614ca3565b610816565b6040519081526020016102a2565b6102806102ed366004614a57565b61089b565b6102fa6108c9565b6040516102a29190614d1d565b61031a610315366004614d30565b6108e7565b6040516102a293929190614d7c565b610295610337366004614ca3565b610903565b61028061034a366004614fd2565b610950565b61036261035d366004615035565b610995565b60405190151581526020016102a2565b6102fa610380366004614ca3565b6109a2565b61028061039336600461506a565b6109e6565b6102d16103a63660046150c3565b60006020819052908152604090205481565b6102956103c6366004614ca3565b610a14565b6102d17f000000000000000000000000000000000000000000000000000000000000000081565b6102d1610a5a565b6102806104083660046150eb565b610a73565b6102d1610b60565b6103626104233660046151c8565b610bdc565b610280610436366004615203565b610bea565b6102d161044936600461522d565b6001600160a01b039081166000908152600080516020615eba83398151915260209081526040808320549093168252600080516020615e9a83398151915290522054600160a01b90046001600160601b031690565b6102806104ac366004614d30565b610c05565b6102fa610c51565b6102806104c736600461522d565b610c5b565b6102806104da366004615248565b610df2565b6102806104ed366004615321565b610eb9565b6102d1610ed5565b610544610508366004614d30565b600160208181526000938452604080852090915291835291208054918101546002820154600383015460069093015460ff909416939192909185565b6040516102a2959493929190615365565b61036261056336600461522d565b610eed565b61057b610576366004614d30565b610f07565b604080519283526020830191909152016102a2565b61031a61059e3660046150c3565b610f28565b6102fa6105b136600461539a565b610f45565b6102d1611036565b6105c6611041565b6040516102a2939291906153fe565b6105e86105e3366004614ca3565b61106b565b6040516102a29190615441565b6102d161060336600461522d565b6110a9565b6103626106163660046150c3565b6110b4565b61062e610629366004615454565b6110f1565b6040516001600160a01b0390911681526020016102a2565b61057b61116c565b61029561065c366004614ca3565b61119d565b6102fa6111e3565b61028061067736600461506a565b6111ed565b6102fa61068a366004614ca3565b61122d565b6106983361151c565b6106c785858585857f000000000000000000000000000000000000000000000000000000000000000033611558565b5050505050565b60606106d86115fd565b61077687878080602002602001604051908101604052809392919081815260200183836020028082843760009201919091525050604080516020808b0282810182019093528a82529093508a92508991829185019084908082843760009201919091525050604080516020808a0282810182019093528982529093508992508891829185019084908082843760009201919091525061162d92505050565b979650505050505050565b61078a3361151c565b61080b8989898989808060200260200160405190810160405280939291908181526020018383602002808284376000920191909152506107d092508a91508b905061553a565b8787808060200260200160405190810160405280939291908181526020018383602002808284376000920191909152503392506119a9915050565b505050505050505050565b60008282808060200260200160405190810160405280939291908181526020018383602002808284376000920191909152506108579250839150611b069050565b610893848480806020026020016040519081016040528093929190818152602001838360200280828437600092019190915250611b3b92505050565b949350505050565b6106c785858585857f0000000000000000000000000000000000000000000000000000000000000000611be2565b60606108e2600080516020615e3a83398151915261150f565b905090565b60608060606108f68585611c96565b9250925092509250925092565b606061090d6115fd565b61094983838080602002602001604051908101604052809392919081815260200183836020028082843760009201919091525061207f92505050565b9392505050565b333014610987576000356001600160e01b0319166040516307337e1960e41b815260040161097e9190615547565b60405180910390fd5b6109918282612141565b5050565b6000610893848484612236565b60606109498383808060200260200160405190810160405280939291908181526020018383602002808284376000920182905250925061226c915050565b92915050565b6106c785858585857f00000000000000000000000000000000000000000000000000000000000000006123c6565b6060610a1e6115fd565b6109498383808060200260200160405190810160405280939291908181526020018383602002808284376000920191909152506124e992505050565b60006108e2600080516020615eda8339815191526125db565b610a7c3361151c565b60003390506000610b45468d8d8d80806020026020016040519081016040528093929190818152602001838360200280828437600081840152601f19601f820116905080830192505050505050508c8c80806020026020016040519081016040528093929190818152602001838360200280828437600092019190915250610b0a92508d91508e905061553a565b8a8a808060200260200160405190810160405280939291908181526020018383602002808284376000920191909152508b92506125e5915050565b9050610b528282856126f4565b505050505050505050505050565b6000610b78600080516020615e5a8339815191525490565b6001610b90600080516020615e5a8339815191525490565b610bbe610ba9600080516020615efa8339815191525490565b600080516020615e7a8339815191529061280a565b610bc89190615572565b610bd29190615585565b6108e29190615598565b600061094960008484612236565b610bf26115fd565b610bfb81612835565b610991828261286b565b6000828152600160208181526040808420858552909152822090810154909103610c425760405163713b099760e11b815260040160405180910390fd5b610c4b8161290f565b50505050565b60606108e2612b24565b610c643361151c565b610c6d81612b3d565b336000908152600080516020615e9a83398151915260208190526040909120546001600160a01b039081169083168103610cc557604051630669b93360e31b81526001600160a01b038416600482015260240161097e565b600080516020615eda8339815191526000610ce08284612ba3565b8015610cf15750610cf18286611318565b905080610d1c5760405163080fab4b60e31b81526001600160a01b038616600482015260240161097e565b6001600160a01b038381166000818152600080516020615eba8339815191526020818152604080842080546001600160a01b0319908116909155958b16808552818520805488163390811790915585528a8352938190208054909616841790955584519081019390935292820152610daf906364b18d0960e11b906060015b604051602081830303815290604052612bb8565b6040516001600160a01b03808816919086169033907fcef34cd748f30a1b7a2f214fd1651779f79bc6c1be02785cad5c1f0ee877213d90600090a4505050505050565b610dfb3361151c565b610eac8a8a8a8a8080602002602001604051908101604052809392919081815260200183836020028082843760009201919091525050604080516020808e0282810182019093528d82529093508d92508c918291850190849080828437600092019190915250610e7192508a91508b905061553a565b8787808060200260200160405190810160405280939291908181526020018383602002808284376000920191909152503392506125e5915050565b5050505050505050505050565b610ec23361151c565b61099133610ecf84615635565b836126f4565b60006108e2600080516020615efa8339815191525490565b60006109e0600080516020615eda83398151915283611437565b600080610f126115fd565b610f1c8484612dad565b915091505b9250929050565b6060806060610f38600085611c96565b9250925092509193909250565b8051606090806001600160401b03811115610f6257610f62614e2d565b604051908082528060200260200182016040528015610f8b578160200160208202803683370190505b509150600080516020615e9a83398151915260005b8281101561102e57816000868381518110610fbd57610fbd615709565b60200260200101516001600160a01b03166001600160a01b0316815260200190815260200160002060000160009054906101000a90046001600160a01b031684828151811061100e5761100e615709565b6001600160a01b0390921660209283029190910190910152600101610fa0565b505050919050565b60006108e260025490565b606080606061104e612ea2565b925061105983610f45565b915061106483612ecd565b9050909192565b6060610949838380806020026020016040519081016040528093929190818152602001838360200280828437600092019190915250612ecd92505050565b60006109e082612fb2565b60006110cf610ba9600080516020615efa8339815191525490565b600080516020615e5a833981519152546110e9908461571f565b101592915050565b60007fdea3103d22025c269050bea94c0c84688877f12fa22b7e6d2d5d78a9a49aa1cb600083600d81111561112857611128614d52565b60ff1681526020810191909152604001600020546001600160a01b0316905080611167578160405163409140df60e11b815260040161097e9190615736565b919050565b600080611185600080516020615e7a8339815191525490565b600080516020615e5a83398151915254915091509091565b60606111a76115fd565b610949838380806020026020016040519081016040528093929190818152602001838360200280828437600092019190915250612fea92505050565b60606108e2612ea2565b6111f63361151c565b61122585858585857f0000000000000000000000000000000000000000000000000000000000000000336132cf565b505050505050565b606081806001600160401b0381111561124857611248614e2d565b604051908082528060200260200182016040528015611271578160200160208202803683370190505b509150600080516020615eba83398151915260005b8281101561130b578160008787848181106112a3576112a3615709565b90506020020160208101906112b8919061522d565b6001600160a01b03908116825260208201929092526040016000205485519116908590839081106112eb576112eb615709565b6001600160a01b0390921660209283029190910190910152600101611286565b50505092915050565b9055565b6000610949836001600160a01b03841661331e565b81518151606091908082016001600160401b0381111561134f5761134f614e2d565b604051908082528060200260200182016040528015611378578160200160208202803683370190505b50925060005b828110156113d25785818151811061139857611398615709565b60200260200101518482815181106113b2576113b2615709565b6001600160a01b039092166020928302919091019091015260010161137e565b60005b8281101561142d578581815181106113ef576113ef615709565b602002602001015185838151811061140957611409615709565b6001600160a01b0390921660209283029190910190910152600191820191016113d5565b5050505092915050565b6001600160a01b03811660009081526001830160205260408120541515610949565b60006109e083611469858561336d565b9250829055565b6000815160000361148357506000919050565b60005b600183510381101561150657600181015b83518110156114fd578381815181106114b2576114b2615709565b60200260200101516001600160a01b03168483815181106114d5576114d5615709565b60200260200101516001600160a01b0316036114f5575060019392505050565b600101611497565b50600101611486565b50600092915050565b606060006109498361338c565b61152581612fb2565b600003611555576000356001600160e01b0319166003604051620f948f60ea1b815260040161097e929190615750565b50565b61156a61156488615635565b826133e8565b50600061157e61157989615635565b6134e7565b90506115f361158c89615635565b888888886115df8961159f896000613626565b60405161190160f01b6020820152602281018390526042810182905260009060620160405160208183030381529060405280519060200120905092915050565b6115ee8a61159f8a6001613626565b61365f565b5050505050505050565b33301461162b576000356001600160e01b0319166040516307337e1960e41b815260040161097e9190615547565b565b6060611639838361132d565b61164281611b06565b82518551811480156116545750845181145b61167f576000356001600160e01b0319166040516306b5667560e21b815260040161097e9190615547565b806001600160401b0381111561169757611697614e2d565b6040519080825280602002602001820160405280156116c0578160200160208202803683370190505b509250806000036116d157506119a1565b604080518082019091526000808252602082018190527f546f6b46ab35b030b6816596b352aef78857377176c8b24baa2046a62cf1998c91600080516020615eba83398151915291600080516020615eda83398151915291600080516020615e9a833981519152919081908190815b89811015611922578d818151811061175a5761175a615709565b602002602001015194508c818151811061177657611776615709565b6020026020010151935061178985612b3d565b61179284612b3d565b8e81815181106117a4576117a4615709565b60200260200101516001600160601b03166000036117e3576000356001600160e01b031916604051637f11b8a360e11b815260040161097e9190615547565b6117ed8986611437565b806117fd57506117fd8985611437565b8061180d575061180d8786611437565b8061181d575061181d8785611437565b158c828151811061183057611830615709565b6020026020010190151590811515815250508b818151811061185457611854615709565b60200260200101511561191a5761186b8986611318565b506118768785611318565b506001600160a01b03848116600081815260208b90526040902080546001600160a01b0319169288169290921790915582528e518f90829081106118bc576118bc615709565b6020908102919091018101516001600160601b03169083018190526118e19084615572565b6001600160a01b038087166000908152602089815260409091208551918601516001600160601b0316600160a01b029190921617905592505b600101611740565b5061193b600080516020615efa83398151915283611459565b5061195a635ebae8a060e01b8d8d604051602001610d9b92919061577e565b7f897810999654e525e272b5909785c4d0ceaee1bbf9c87d9091a37558b0423b788b8f8f8f60405161198f94939291906157ac565b60405180910390a15050505050505050505b509392505050565b60006119b560006138c4565b905060006040518060c001604052808381526020018a8152602001898980806020026020016040519081016040528093929190818152602001838360200280828437600092018290525093855250505060208083018a905260408084018a9052606090930188905282518b820281810183019094528b81529394509092611a6692611a5f928d918d918291908501908490808284376000920191909152506001925061226c915050565b8390613974565b9050611a7d60025482613a6690919063ffffffff16565b6000611a88826134e7565b6000858152600080516020615e1a83398151915260205260409020600181018290556006018c9055905080847f771d78ae9e5fca95a532fb0971d575d0ce9b59d14823c063e08740137e0e0eca84611adf87613b07565b878a604051611af1949392919061595e565b60405180910390a35050505050505050505050565b611b0f81611470565b15611555576000356001600160e01b031916604051630d697db160e11b815260040161097e9190615547565b600081611b4781611b06565b6000611b60600080516020615eda8339815191526125db565b9050600080516020615e9a83398151915260005b82811015611bd957816000878381518110611b9157611b91615709565b6020908102919091018101516001600160a01b0316825281019190915260400160002054611bcf90600160a01b90046001600160601b031686615572565b9450600101611b74565b50505050919050565b6000611bf061157988615635565b6020808901356000908152600180835260408083208c35845290935291902001549091508114611c5f576020808801356000908152600180835260408083208b3584529093529082902001549051632bee7fdb60e21b815261097e918391600401918252602082015260400190565b611c8d611c6b88615635565b87878787611c7e8861159f896000613626565b6115ee8961159f8a6001613626565b50505050505050565b60008281526001602090815260408083208484529091528120600481015460058201546060938493849390929091611cce8284615572565b9050806001600160401b03811115611ce857611ce8614e2d565b604051908082528060200260200182016040528015611d11578160200160208202803683370190505b509550806001600160401b03811115611d2c57611d2c614e2d565b604051908082528060200260200182016040528015611d7757816020015b6040805160608101825260008082526020808301829052928201528252600019909201910181611d4a5790505b509450806001600160401b03811115611d9257611d92614e2d565b604051908082528060200260200182016040528015611dbb578160200160208202803683370190505b50965060005b83811015611f10576000878281518110611ddd57611ddd615709565b60200260200101906001811115611df657611df6614d52565b90816001811115611e0957611e09614d52565b90525060008a81526001602090815260408083208c845290915281206004870180546007909201929184908110611e4257611e42615709565b60009182526020808320909101546001600160a01b0316835282810193909352604091820190208151606081018352815460ff16815260018201549381019390935260020154908201528651879083908110611ea057611ea0615709565b6020026020010181905250846004018181548110611ec057611ec0615709565b9060005260206000200160009054906101000a90046001600160a01b0316888281518110611ef057611ef0615709565b6001600160a01b0390921660209283029190910190910152600101611dc1565b5060005b8281101561207357600187611f298684615572565b81518110611f3957611f39615709565b60200260200101906001811115611f5257611f52614d52565b90816001811115611f6557611f65614d52565b90525060008a81526001602090815260408083208c845290915281206005870180546007909201929184908110611f9e57611f9e615709565b60009182526020808320909101546001600160a01b0316835282810193909352604091820190208151606081018352815460ff168152600182015493810193909352600201549082015286611ff38684615572565b8151811061200357612003615709565b602002602001018190525084600501818154811061202357612023615709565b6000918252602090912001546001600160a01b0316886120438684615572565b8151811061205357612053615709565b6001600160a01b0390921660209283029190910190910152600101611f14565b50505050509250925092565b60608161208b81611b06565b8251806001600160401b038111156120a5576120a5614e2d565b6040519080825280602002602001820160405280156120ce578160200160208202803683370190505b509250600080516020615e3a83398151915260005b82811015611bd95761211786828151811061210057612100615709565b602002602001015183612ba390919063ffffffff16565b85828151811061212957612129615709565b911515602092830291909101909101526001016120e3565b60005b82518110156121dd5781818151811061215f5761215f615709565b60200260200101516003600085848151811061217d5761217d615709565b6020026020010151600381111561219657612196614d52565b60038111156121a7576121a7614d52565b8152602081019190915260400160002080546001600160a01b0319166001600160a01b0392909216919091179055600101612144565b50806040516121ec9190615a43565b6040518091039020826040516122029190615a82565b604051908190038120907f548a12551fc2aae80bb0c0d82b00ff51bccce1648420bb7e8b0f4f03d65531da90600090a35050565b600083815260016020908152604080832085845282528083206001600160a01b038516845260080190915281205460ff16610893565b606082516001600160401b0381111561228757612287614e2d565b6040519080825280602002602001820160405280156122b0578160200160208202803683370190505b50905060005b83518110156123bf57600360008583815181106122d5576122d5615709565b602002602001015160038111156122ee576122ee614d52565b60038111156122ff576122ff614d52565b815260200190815260200160002060009054906101000a90046001600160a01b031682828151811061233357612333615709565b60200260200101906001600160a01b031690816001600160a01b03168152505082801561238b575060006001600160a01b031682828151811061237857612378615709565b60200260200101516001600160a01b0316145b156123b7576000356001600160e01b03191660405163053265f160e01b815260040161097e9190615547565b6001016122b6565b5092915050565b60006124246124156123db60408a018a615ab3565b808060200260200160405190810160405280939291908181526020018383602002808284376000920191909152506001925061226c915050565b61241e89615afc565b90613974565b90506000612431826134e7565b60008080526001602081815285518352600080516020615e1a83398151915290526040909120015490915081146124ae5760008080526001602081815284518352600080516020615e1a833981519152905260409182902001549051632bee7fdb60e21b815261097e918391600401918252602082015260400190565b60006124c16124bc8a615afc565b613b07565b905061080b83898989896124da8a61159f896000613626565b6115ee8b61159f8a6001613626565b6060816124f581611b06565b8251806001600160401b0381111561250f5761250f614e2d565b604051908082528060200260200182016040528015612538578160200160208202803683370190505b5092508060000361254957506125d5565b600080516020615e3a83398151915260006314d72edb60e21b815b848110156125cf5787818151811061257e5761257e615709565b6020026020010151925061259183612835565b61259b8383613c3e565b6125a58484611318565b8782815181106125b7576125b7615709565b91151560209283029190910190910152600101612564565b50505050505b50919050565b60006109e0825490565b6125ed61494e565b87600003612621576000356001600160e01b03191660004660405163092048d160e11b815260040161097e93929190615bc6565b600061262c896138c4565b90506040518060e001604052808281526020018a815260200189815260200188815260200187815260200186815260200185815250915061267860025483613a6690919063ffffffff16565b6000612683836134e7565b60008b81526001602081815260408084208785529091529091209081018290556006018a9055905080828b7fa57d40f1496988cf60ab7c9d5ba4ff83647f67d3898d441a3aaf21b651678fd986886040516126df929190615be8565b60405180910390a45050979650505050505050565b4682602001511461272d57602082015160405163092048d160e11b815261097e916001600160e01b031960003516914690600401615bc6565b6000612738836134e7565b60208085015160009081526001808352604080832088518452909352919020015490915081146127a757602080840151600090815260018083526040808320875184529093529082902001549051632bee7fdb60e21b815261097e918391600401918252602082015260400190565b60006127b1613dd1565b90506000816127be613ddb565b6127c89190615585565b6127d3906001615572565b60408051606081018252600080825260208201819052918101919091529091506115f3868685858b866128058e6110a9565b613de5565b6000825480156123bf57828102915080820483146123bf57634e487b7160005260116020526024601cfd5b806001600160a01b03163b60000361155557604051630bfc64a360e21b81526001600160a01b038216600482015260240161097e565b807fdea3103d22025c269050bea94c0c84688877f12fa22b7e6d2d5d78a9a49aa1cb600084600d8111156128a1576128a1614d52565b60ff168152602081019190915260400160002080546001600160a01b0319166001600160a01b03928316179055811682600d8111156128e2576128e2614d52565b6040517f865d1c228a8ea13709cfe61f346f7ff67f1bbd4a18ff31ad3e7147350d317c5990600090a35050565b600080825460ff16600481111561292857612928614d52565b148015612939575042826006015411155b905080156111675760018201546040517f58f98006a7f2f253f8ae8f8b7cec9008ca05359633561cd7c22f3005682d4a5590600090a260005b6004830154811015612a255782600801600084600401838154811061299957612999615709565b60009182526020808320909101546001600160a01b031683528201929092526040018120805460ff1916905560048401805460078601929190849081106129e2576129e2615709565b60009182526020808320909101546001600160a01b031683528201929092526040018120805460ff19168155600181810183905560029091019190915501612972565b5060005b6005830154811015612adc57826008016000846005018381548110612a5057612a50615709565b60009182526020808320909101546001600160a01b031683528201929092526040018120805460ff191690556005840180546007860192919084908110612a9957612a99615709565b60009182526020808320909101546001600160a01b031683528201929092526040018120805460ff19168155600181810183905560029091019190915501612a29565b50815460ff191682556000600183018190556002830181905560038301819055612b0a90600484019061498b565b612b1860058301600061498b565b60006006830155919050565b60606108e2600080516020615eda83398151915261150f565b612b468161412e565b6001600160a01b0381163f7fc5d2460186f7233c927e7db2dcc703c0e500b653ca82273b7bfad8045d85a470811461099157604051633c88494760e01b81526001600160a01b03831660048201526024810182905260440161097e565b6000610949836001600160a01b038416614163565b6000612bd1600080516020615e3a83398151915261150f565b80519091506000819003612be55750505050565b6000816001600160401b03811115612bff57612bff614e2d565b604051908082528060200260200182016040528015612c28578160200160208202803683370190505b5090506000826001600160401b03811115612c4557612c45614e2d565b604051908082528060200260200182016040528015612c7857816020015b6060815260200190600190039081612c635790505b50905060008686604051602001612c90929190615c12565b604051602081830303815290604052905060005b84811015612d6657858181518110612cbe57612cbe615709565b60200260200101516001600160a01b031682604051612cdd9190615c43565b6000604051808303816000865af19150503d8060008114612d1a576040519150601f19603f3d011682016040523d82523d6000602084013e612d1f565b606091505b50858381518110612d3257612d32615709565b60200260200101858481518110612d4b57612d4b615709565b60209081029190910101919091529015159052600101612ca4565b507fc0b07a27e66788f39cc91405f012f34066b16f31b4bda9438c52f2dae0cc5b6381868585604051612d9c9493929190615c5f565b60405180910390a150505050505050565b60008082841115612ddf576000356001600160e01b0319166040516387f6f09560e01b815260040161097e9190615547565b600080516020615e7a833981519152549150612e07600080516020615e5a8339815191525490565b9050612e20600080516020615e7a833981519152859055565b612e37600080516020615e5a833981519152849055565b8284612e627f92872d32822c9d44b36a2537d3e0d4c46fc4de1ce154ccfaed560a8a58445f1d614256565b60408051868152602081018690527f976f8a9c5bdf8248dec172376d6e2b80a8e3df2f0328e381c6db8e1cf138c0f8910160405180910390a49250929050565b60606108e27f546f6b46ab35b030b6816596b352aef78857377176c8b24baa2046a62cf1998c61150f565b8051606090806001600160401b03811115612eea57612eea614e2d565b604051908082528060200260200182016040528015612f13578160200160208202803683370190505b509150600080516020615e9a83398151915260005b8281101561102e57816000868381518110612f4557612f45615709565b60200260200101516001600160a01b03166001600160a01b0316815260200190815260200160002060000160149054906101000a90046001600160601b03166001600160601b0316848281518110612f9f57612f9f615709565b6020908102919091010152600101612f28565b6001600160a01b03166000908152600080516020615e9a8339815191526020526040902054600160a01b90046001600160601b031690565b606081612ff681611b06565b8251806001600160401b0381111561301057613010614e2d565b604051908082528060200260200182016040528015613039578160200160208202803683370190505b5092508060000361304a57506125d5565b60408051808201909152600080825260208201819052600080516020615eba833981519152917f546f6b46ab35b030b6816596b352aef78857377176c8b24baa2046a62cf1998c91600080516020615eda83398151915291600080516020615e9a833981519152919081908190815b8981101561324f578c81815181106130d3576130d3615709565b6020908102919091018101516001600160a01b038082166000908152928c9052604090922054909116955093506131098561412e565b6131128461412e565b6001600160a01b0385811660009081526020888152604091829020825180840190935254808416808452600160a01b9091046001600160601b03169183019190915290935090851614613186576000356001600160e01b03191660405163053265f160e01b815260040161097e9190615547565b6131908785611437565b80156131a157506131a18886611437565b8c82815181106131b3576131b3615709565b6020026020010190151590811515815250508b81815181106131d7576131d7615709565b602002602001015115613247576131ee8886612ba3565b506131f98785612ba3565b506001600160a01b03808516600090815260208b8152604080832080546001600160a01b0319169055928816825288815291812055820151613244906001600160601b031684615572565b92505b6001016130b9565b50613268600080516020615efa83398151915283614271565b5061328763c48549de60e01b8d8d604051602001610d9b92919061577e565b7fdf3dcd7987202f64648f3acdbf12401e3a2bb23e77e19f99826b5475cbb863698b8d6040516132b8929190615cac565b60405180910390a150505050505050505050919050565b6132d761494e565b6132e96132e389615afc565b83614281565b905060006132f96124bc8a615afc565b905061331282898989896124da8a61159f896000613626565b50979650505050505050565b6000818152600183016020526040812054613365575081546001818101845560008481526020808220909301849055845484825282860190935260409020919091556109e0565b5060006109e0565b81548101818110156109e057634e487b7160005260116020526024601cfd5b6060816000018054806020026020016040519081016040528092919081815260200182805480156133dc57602002820191906000526020600020905b8154815260200190600101908083116133c8575b50505050509050919050565b6020820151600090808203613423576000356001600160e01b03191660004660405163092048d160e11b815260040161097e93929190615bc6565b600254613431908590613a66565b600061343c856134e7565b9050613447826138c4565b600083815260016020818152604080842085855290915291829020918801519082018490556006909101559250845183146134a3576000356001600160e01b03191660405163d4cec26960e01b815260040161097e9190615547565b8083837fa57d40f1496988cf60ab7c9d5ba4ff83647f67d3898d441a3aaf21b651678fd988886040516134d7929190615be8565b60405180910390a4505092915050565b6080810151606082015160a083015151600092919083906001600160401b0381111561351557613515614e2d565b60405190808252806020026020018201604052801561353e578160200160208202803683370190505b5060c086015190915060005b825181101561359d578660a00151818151811061356957613569615709565b60200260200101518051906020012083828151811061358a5761358a615709565b602090810291909101015260010161354a565b50604080517fd051578048e6ff0bbc9fca3b65a42088dbde10f36ca841de566711087ad9b08a8152875160208083019190915280890151828401529790910151606082015283518702938701939093206080840152835186029386019390932060a0830152805185029085012060c082015281518402919093012060e083015250610100902090565b604080517fd900570327c4c0df8dd6bdd522b7da7e39145dd049d2fd4602276adcd511e3c2815260208101939093528201526060902090565b841580159061366d57508483145b613698576000356001600160e01b0319166040516306b5667560e21b815260040161097e9190615547565b60006136a2613dd1565b90506000816136af613ddb565b6136b99190615585565b6136c4906001615572565b9050600080366000805b89811015613888578a8a828181106136e8576136e8615709565b606002919091019350600090508d8d8381811061370757613707615709565b905060200201602081019061371c9190615cd1565b600181111561372d5761372d614d52565b0361375957613752896137436020860186615cfd565b85602001358660400135614381565b93506137d0565b60018d8d8381811061376d5761376d615709565b90506020020160208101906137829190615cd1565b600181111561379357613793614d52565b036137a957613752886137436020860186615cfd565b6000356001600160e01b031916604051630612418f60e11b815260040161097e9190615547565b836001600160a01b0316856001600160a01b031610613810576000356001600160e01b031916604051635d3dcd3160e01b815260040161097e9190615547565b839450600061381e856110a9565b9050801561387f576001925061386d8f8f8f8581811061384057613840615709565b90506020020160208101906138559190615cd1565b8a8a89613867368b90038b018b615d18565b87613de5565b1561387f575050505050505050611c8d565b506001016136ce565b50806138b5576000356001600160e01b03191660405163726b3acb60e01b815260040161097e9190615547565b50505050505050505050505050565b600081815260208190526040812054908190036138f35750600090815260208190526040902060019081905590565b60008281526001602090815260408083208484529091528120906139168261290f565b90508061396d576000825460ff16600481111561393557613935614d52565b036139535760405163757a436360e01b815260040160405180910390fd5b600084815260208190526040902080546001019081905592505b5050919050565b61397c61494e565b82518152602080840151604080840191909152600091830191909152830151516001600160401b038111156139b3576139b3614e2d565b6040519080825280602002602001820160405280156139dc578160200160208202803683370190505b5060608083019190915283015160808083019190915283015160a08083019190915283015160c082015260005b8360400151518110156123bf57828181518110613a2857613a28615709565b602002602001015182606001518281518110613a4657613a46615709565b6001600160a01b0390921660209283029190910190910152600101613a09565b6000826060015151118015613a845750816080015151826060015151145b8015613a9957508160a0015151826060015151145b8015613aae57508160c0015151826060015151145b613ad9576000356001600160e01b0319166040516306b5667560e21b815260040161097e9190615547565b613ae38142615572565b826040015111156109915760405163ad89be9d60e01b815260040160405180910390fd5b60608101516040820151608083015151600092919083906001600160401b03811115613b3557613b35614e2d565b604051908082528060200260200182016040528015613b5e578160200160208202803683370190505b5060a086015190915060005b8251811015613bbd5786608001518181518110613b8957613b89615709565b602002602001015180519060200120838281518110613baa57613baa615709565b6020908102919091010152600101613b6a565b50604080517f1463f426c05aff2c1a7a0957a71c9898bc8b47142540538e79ee25ee911413508152875160208083019190915297880151918101919091528351870293870193909320606084015283518602938601939093206080830152805185029085012060a082015281518402919093012060c08301525060e0902090565b600081604051602401613c519190615547565b60408051601f198184030181529181526020820180516001600160e01b03166301ffc9a760e01b1790525190915060009081906001600160a01b03861690613c9a908590615c43565b600060405180830381855afa9150503d8060008114613cd5576040519150601f19603f3d011682016040523d82523d6000602084013e613cda565b606091505b509150915081613d9c57846001600160a01b031683604051602401613cff9190615d78565b60408051601f198184030181529181526020820180516001600160e01b03166325da93a560e11b17905251613d349190615c43565b600060405180830381855afa9150503d8060008114613d6f576040519150601f19603f3d011682016040523d82523d6000602084013e613d74565b606091505b50909250905081613d9c57838560405163069d427960e11b815260040161097e929190615d8b565b80806020019051810190613db09190615dae565b6106c757838560405163069d427960e11b815260040161097e929190615d8b565b60006108e2610b60565b60006108e2610ed5565b60208088015188516000828152600184526040808220838352909452928320613e0d8161290f565b15613e1e5760019350505050610776565b6020808c015160009081529081905260409020548214613e5f576000356001600160e01b03191660405163d4cec26960e01b815260040161097e9190615547565b6000815460ff166004811115613e7757613e77614d52565b14613e95576040516322de95ff60e21b815260040160405180910390fd5b6001600160a01b038716600090815260088201602052604090205460ff1615613edc5760405163025fd59560e41b81526001600160a01b038816600482015260240161097e565b6001600160a01b03871660009081526008820160209081526040909120805460ff19166001179055860151151580613f175750604086015115155b80613f255750855160ff1615155b15613f6c576001600160a01b03871660009081526007820160209081526040918290208851815460ff191660ff909116178155908801516001820155908701516002909101555b866001600160a01b031681600101547f1203f9e81c814a35f5f4cc24087b2a24c6fb7986a9f1406b68a9484882c93a238c88604051613fac929190615dd0565b60405180910390a3600080808c6001811115613fca57613fca614d52565b0361401f576004830180546001810182556000918252602082200180546001600160a01b0319166001600160a01b038c16179055600384018054899290614012908490615572565b9250508190559150614084565b60018c600181111561403357614033614d52565b036137a9576005830180546001810182556000918252602082200180546001600160a01b0319166001600160a01b038c1617905560028401805489929061407b908490615572565b92505081905590505b8a82106140d857825460ff19166001908117845580840154604051919750907f5c819725ea53655a3b898f3df59b66489761935454e9212ca1e5ebd759953d0b90600090a26140d3838e6143a9565b61411e565b89811061411e57825460ff19166003178355600180840154604051919750907f55295d4ce992922fa2e5ffbf3a3dcdb367de0a15e125ace083456017fd22060f90600090a25b5050505050979650505050505050565b6001600160a01b038116611555576000356001600160e01b03191660405163104c66df60e31b815260040161097e9190615547565b6000818152600183016020526040812054801561424c576000614187600183615585565b855490915060009061419b90600190615585565b90508181146142005760008660000182815481106141bb576141bb615709565b90600052602060002001549050808760000184815481106141de576141de615709565b6000918252602080832090910192909255918252600188019052604090208390555b855486908061421157614211615dde565b6001900381819060005260206000200160009055905585600101600086815260200190815260200160002060009055600193505050506109e0565b60009150506109e0565b6000614260825490565b905061116782611314836001615572565b60006109e0836114698585614416565b61428961494e565b6142a261429b8460400151600161226c565b8490613974565b90506142b960025482613a6690919063ffffffff16565b60006142c4826134e7565b905060006142d260006138c4565b6000818152600080516020615e1a833981519152602090815260409091209087015160018201859055600690910155905082518114614332576000356001600160e01b03191660405163d4cec26960e01b815260040161097e9190615547565b81817f771d78ae9e5fca95a532fb0971d575d0ce9b59d14823c063e08740137e0e0eca8561435f89613b07565b8989604051614371949392919061595e565b60405180910390a3505092915050565b60008060006143928787878761443f565b9150915061439f8161452c565b5095945050505050565b6143b2816146e2565b1561099157815460ff191660021782556000806143ce836146fc565b9150915083600101547fe134987599ae266ec90edeff1b26125b287dbb57b10822649432d1bb26537fba8383604051614408929190615df4565b60405180910390a250505050565b600082548281101561443557634e487b7160005260116020526024601cfd5b9190910392915050565b6000807f7fffffffffffffffffffffffffffffff5d576e7357a4501ddfe92f46681b20a08311156144765750600090506003614523565b8460ff16601b1415801561448e57508460ff16601c14155b1561449f5750600090506004614523565b6040805160008082526020820180845289905260ff881692820192909252606081018690526080810185905260019060a0016020604051602081039080840390855afa1580156144f3573d6000803e3d6000fd5b5050604051601f1901519150506001600160a01b03811661451c57600060019250925050614523565b9150600090505b94509492505050565b600081600481111561454057614540614d52565b036145485750565b600181600481111561455c5761455c614d52565b036145a95760405162461bcd60e51b815260206004820152601860248201527f45434453413a20696e76616c6964207369676e61747572650000000000000000604482015260640161097e565b60028160048111156145bd576145bd614d52565b0361460a5760405162461bcd60e51b815260206004820152601f60248201527f45434453413a20696e76616c6964207369676e6174757265206c656e67746800604482015260640161097e565b600381600481111561461e5761461e614d52565b036146765760405162461bcd60e51b815260206004820152602260248201527f45434453413a20696e76616c6964207369676e6174757265202773272076616c604482015261756560f01b606482015260840161097e565b600481600481111561468a5761468a614d52565b036115555760405162461bcd60e51b815260206004820152602260248201527f45434453413a20696e76616c6964207369676e6174757265202776272076616c604482015261756560f01b606482015260840161097e565b60008160200151600014806109e057505060200151461490565b606080614708836146e2565b61473a57602083015160405163092048d160e11b815261097e916001600160e01b031960003516914690600401615bc6565b8260600151516001600160401b0381111561475757614757614e2d565b604051908082528060200260200182016040528015614780578160200160208202803683370190505b5091508260600151516001600160401b038111156147a0576147a0614e2d565b6040519080825280602002602001820160405280156147d357816020015b60608152602001906001900390816147be5790505b50905060005b836060015151811015614948578360c0015181815181106147fc576147fc615709565b60200260200101515a1161482f57614813846134e7565b6040516307aec4ab60e21b815260040161097e91815260200190565b8360600151818151811061484557614845615709565b60200260200101516001600160a01b03168460800151828151811061486c5761486c615709565b60200260200101518560c00151838151811061488a5761488a615709565b6020026020010151908660a0015184815181106148a9576148a9615709565b60200260200101516040516148be9190615c43565b600060405180830381858888f193505050503d80600081146148fc576040519150601f19603f3d011682016040523d82523d6000602084013e614901565b606091505b5084838151811061491457614914615709565b6020026020010184848151811061492d5761492d615709565b602090810291909101019190915290151590526001016147d9565b50915091565b6040518060e00160405280600081526020016000815260200160008152602001606081526020016060815260200160608152602001606081525090565b508054600082559060005260206000209081019061155591905b808211156149b957600081556001016149a5565b5090565b600060e082840312156125d557600080fd5b60008083601f8401126149e157600080fd5b5081356001600160401b038111156149f857600080fd5b6020830191508360208260051b8501011115610f2157600080fd5b60008083601f840112614a2557600080fd5b5081356001600160401b03811115614a3c57600080fd5b602083019150836020606083028501011115610f2157600080fd5b600080600080600060608688031215614a6f57600080fd5b85356001600160401b0380821115614a8657600080fd5b614a9289838a016149bd565b96506020880135915080821115614aa857600080fd5b614ab489838a016149cf565b90965094506040880135915080821115614acd57600080fd5b50614ada88828901614a13565b969995985093965092949392505050565b60008060008060008060608789031215614b0457600080fd5b86356001600160401b0380821115614b1b57600080fd5b614b278a838b016149cf565b90985096506020890135915080821115614b4057600080fd5b614b4c8a838b016149cf565b90965094506040890135915080821115614b6557600080fd5b50614b7289828a016149cf565b979a9699509497509295939492505050565b600081518084526020808501945080840160005b83811015614bb6578151151587529582019590820190600101614b98565b509495945050505050565b6020815260006109496020830184614b84565b600080600080600080600080600060a08a8c031215614bf257600080fd5b8935985060208a01356001600160401b0380821115614c1057600080fd5b614c1c8d838e016149cf565b909a50985060408c0135915080821115614c3557600080fd5b614c418d838e016149cf565b909850965060608c0135915080821115614c5a57600080fd5b614c668d838e016149cf565b909650945060808c0135915080821115614c7f57600080fd5b50614c8c8c828d016149cf565b915080935050809150509295985092959850929598565b60008060208385031215614cb657600080fd5b82356001600160401b03811115614ccc57600080fd5b614cd8858286016149cf565b90969095509350505050565b600081518084526020808501945080840160005b83811015614bb65781516001600160a01b031687529582019590820190600101614cf8565b6020815260006109496020830184614ce4565b60008060408385031215614d4357600080fd5b50508035926020909101359150565b634e487b7160e01b600052602160045260246000fd5b60028110614d7857614d78614d52565b9052565b60006060808352614d8f81840187614ce4565b83810360208581019190915286518083528782019282019060005b81811015614dcd57614dbd838651614d68565b9383019391830191600101614daa565b505060409250858103838701528087518083528383019150838901925060005b81811015614e1d578351805160ff1684528581015186850152860151868401529284019291860191600101614ded565b50909a9950505050505050505050565b634e487b7160e01b600052604160045260246000fd5b60405160e081016001600160401b0381118282101715614e6557614e65614e2d565b60405290565b60405160c081016001600160401b0381118282101715614e6557614e65614e2d565b604051601f8201601f191681016001600160401b0381118282101715614eb557614eb5614e2d565b604052919050565b60006001600160401b03821115614ed657614ed6614e2d565b5060051b60200190565b600082601f830112614ef157600080fd5b81356020614f06614f0183614ebd565b614e8d565b82815260059290921b84018101918181019086841115614f2557600080fd5b8286015b84811015614f4e57803560048110614f415760008081fd5b8352918301918301614f29565b509695505050505050565b80356001600160a01b038116811461116757600080fd5b600082601f830112614f8157600080fd5b81356020614f91614f0183614ebd565b82815260059290921b84018101918181019086841115614fb057600080fd5b8286015b84811015614f4e57614fc581614f59565b8352918301918301614fb4565b60008060408385031215614fe557600080fd5b82356001600160401b0380821115614ffc57600080fd5b61500886838701614ee0565b9350602085013591508082111561501e57600080fd5b5061502b85828601614f70565b9150509250929050565b60008060006060848603121561504a57600080fd5b833592506020840135915061506160408501614f59565b90509250925092565b60008060008060006060868803121561508257600080fd5b85356001600160401b038082111561509957600080fd5b9087019060c0828a0312156150ad57600080fd5b90955060208701359080821115614aa857600080fd5b6000602082840312156150d557600080fd5b5035919050565b80356002811061116757600080fd5b60008060008060008060008060008060c08b8d03121561510a57600080fd5b8a35995060208b01356001600160401b038082111561512857600080fd5b6151348e838f016149cf565b909b50995060408d013591508082111561514d57600080fd5b6151598e838f016149cf565b909950975060608d013591508082111561517257600080fd5b61517e8e838f016149cf565b909750955060808d013591508082111561519757600080fd5b506151a48d828e016149cf565b90945092506151b7905060a08c016150dc565b90509295989b9194979a5092959850565b600080604083850312156151db57600080fd5b823591506151eb60208401614f59565b90509250929050565b8035600e811061116757600080fd5b6000806040838503121561521657600080fd5b61521f836151f4565b91506151eb60208401614f59565b60006020828403121561523f57600080fd5b61094982614f59565b60008060008060008060008060008060c08b8d03121561526757600080fd5b8a35995060208b0135985060408b01356001600160401b038082111561528c57600080fd5b6152988e838f016149cf565b909a50985060608d01359150808211156152b157600080fd5b6152bd8e838f016149cf565b909850965060808d01359150808211156152d657600080fd5b6152e28e838f016149cf565b909650945060a08d01359150808211156152fb57600080fd5b506153088d828e016149cf565b915080935050809150509295989b9194979a5092959850565b6000806040838503121561533457600080fd5b82356001600160401b0381111561534a57600080fd5b615356858286016149bd565b9250506151eb602084016150dc565b60a081016005871061537957615379614d52565b95815260208101949094526040840192909252606083015260809091015290565b6000602082840312156153ac57600080fd5b81356001600160401b038111156153c257600080fd5b61089384828501614f70565b600081518084526020808501945080840160005b83811015614bb6578151875295820195908201906001016153e2565b6060815260006154116060830186614ce4565b82810360208401526154238186614ce4565b9050828103604084015261543781856153ce565b9695505050505050565b60208152600061094960208301846153ce565b60006020828403121561546657600080fd5b610949826151f4565b600061547d614f0184614ebd565b8381529050602080820190600585901b84018681111561549c57600080fd5b845b8181101561552f5780356001600160401b03808211156154be5760008081fd5b8188019150601f8a818401126154d45760008081fd5b8235828111156154e6576154e6614e2d565b6154f7818301601f19168801614e8d565b92508083528b8782860101111561551057600091508182fd5b808785018885013760009083018701525085525092820192820161549e565b505050509392505050565b600061094936848461546f565b6001600160e01b031991909116815260200190565b634e487b7160e01b600052601160045260246000fd5b808201808211156109e0576109e061555c565b818103818111156109e0576109e061555c565b6000826155b557634e487b7160e01b600052601260045260246000fd5b500490565b600082601f8301126155cb57600080fd5b813560206155db614f0183614ebd565b82815260059290921b840181019181810190868411156155fa57600080fd5b8286015b84811015614f4e57803583529183019183016155fe565b600082601f83011261562657600080fd5b6109498383356020850161546f565b600060e0823603121561564757600080fd5b61564f614e43565b82358152602083013560208201526040830135604082015260608301356001600160401b038082111561568157600080fd5b61568d36838701614f70565b606084015260808501359150808211156156a657600080fd5b6156b2368387016155ba565b608084015260a08501359150808211156156cb57600080fd5b6156d736838701615615565b60a084015260c08501359150808211156156f057600080fd5b506156fd368286016155ba565b60c08301525092915050565b634e487b7160e01b600052603260045260246000fd5b80820281158282048414176109e0576109e061555c565b60208101600e831061574a5761574a614d52565b91905290565b6001600160e01b031983168152604081016009831061577157615771614d52565b8260208301529392505050565b6040815260006157916040830185614ce4565b82810360208401526157a38185614b84565b95945050505050565b6080815260006157bf6080830187614b84565b82810360208481019190915286518083528782019282019060005b818110156157ff5784516001600160601b0316835293830193918301916001016157da565b505084810360408601526158138188614ce4565b9250505082810360608401526107768185614ce4565b60005b8381101561584457818101518382015260200161582c565b50506000910152565b60008151808452615865816020860160208601615829565b601f01601f19169290920160200192915050565b600081518084526020808501808196508360051b8101915082860160005b858110156158c15782840389526158af84835161584d565b98850198935090840190600101615897565b5091979650505050505050565b8051825260208101516020830152604081015160408301526000606082015160e0606085015261590160e0850182614ce4565b90506080830151848203608086015261591a82826153ce565b91505060a083015184820360a08601526159348282615879565b91505060c083015184820360c08601526157a382826153ce565b60048110614d7857614d78614d52565b60808152600061597160808301876158ce565b60208681850152838203604085015260c08201865183528187015182840152604087015160c0604085015281815180845260e0860191508483019350600092505b808310156159d9576159c582855161594e565b9284019260019290920191908401906159b2565b506060890151935084810360608601526159f381856153ce565b935050505060808601518282036080840152615a0f8282615879565b91505060a086015182820360a0840152615a2982826153ce565b93505050506157a360608301846001600160a01b03169052565b815160009082906020808601845b83811015615a765781516001600160a01b031685529382019390820190600101615a51565b50929695505050505050565b815160009082906020808601845b83811015615a7657615aa385835161594e565b9382019390820190600101615a90565b6000808335601e19843603018112615aca57600080fd5b8301803591506001600160401b03821115615ae457600080fd5b6020019150600581901b3603821315610f2157600080fd5b600060c08236031215615b0e57600080fd5b615b16614e6b565b823581526020830135602082015260408301356001600160401b0380821115615b3e57600080fd5b615b4a36838701614ee0565b60408401526060850135915080821115615b6357600080fd5b615b6f368387016155ba565b60608401526080850135915080821115615b8857600080fd5b615b9436838701615615565b608084015260a0850135915080821115615bad57600080fd5b50615bba368286016155ba565b60a08301525092915050565b6001600160e01b03199390931683526020830191909152604082015260600190565b604081526000615bfb60408301856158ce565b905060018060a01b03831660208301529392505050565b6001600160e01b0319831681528151600090615c35816004850160208701615829565b919091016004019392505050565b60008251615c55818460208701615829565b9190910192915050565b608081526000615c72608083018761584d565b8281036020840152615c848187614ce4565b90508281036040840152615c988186614b84565b905082810360608401526107768185615879565b604081526000615cbf6040830185614b84565b82810360208401526157a38185614ce4565b600060208284031215615ce357600080fd5b610949826150dc565b803560ff8116811461116757600080fd5b600060208284031215615d0f57600080fd5b61094982615cec565b600060608284031215615d2a57600080fd5b604051606081018181106001600160401b0382111715615d4c57615d4c614e2d565b604052615d5883615cec565b815260208301356020820152604083013560408201528091505092915050565b602081526000610949602083018461584d565b6001600160e01b03199290921682526001600160a01b0316602082015260400190565b600060208284031215615dc057600080fd5b8151801515811461094957600080fd5b604081016157718285614d68565b634e487b7160e01b600052603160045260246000fd5b604081526000615e076040830185614b84565b82810360208401526157a3818561587956fea6eef7e35abe7026729641147f7915573c7e97b47efa546f5f6e3230263bcb495da136eb38f8d8e354915fc8a767c0dc81d49de5fb65d5477122a82ddd976240ac1ff16a4f04f2a37a9ba5252a69baa100b460e517d1f8019c054a5ad698f9ffc55405a488814eaa0e2a685a0131142785b8d033d311c8c8244e34a7c12ca40f88547008e60f5748911f2e59feb3093b7e4c2e87b2dd69d61f112fcc932de8e38400683eb2cb350596d73644c0c89fe45f108600003457374f4ab3e87b4f3aa3d38c234075fde25875da8a6b7e36b58b86681d483271a99eeeee1d78e258a24d6924fe71b0c8b61aea02ca498b5f53b29bd95726278b1fe4eb791bb24a42644ca164736f6c6343000811000a5da136eb38f8d8e354915fc8a767c0dc81d49de5fb65d5477122a82ddd976240",
  "devdoc": {
    "errors": {
      "ErrAddressIsNotCreatedEOA(address,bytes32)": [
        {
          "details": "Error thrown when an address is expected to be an already created externally owned account (EOA). This error indicates that the provided address is invalid for certain contract operations that require already created EOA."
        }
      ],
      "ErrAlreadyVoted(address)": [
        {
          "details": "Error indicating that a voter has already voted.",
          "params": {
            "voter": "The address of the voter who has already voted."
          }
        }
      ],
      "ErrBridgeOperatorAlreadyExisted(address)": [
        {
          "details": "Error thrown when attempting to add a bridge operator that already exists in the contract. This error indicates that the provided bridge operator address is already registered as a bridge operator in the contract."
        }
      ],
      "ErrBridgeOperatorUpdateFailed(address)": [
        {
          "details": "Error raised when a bridge operator update operation fails.",
          "params": {
            "bridgeOperator": "The address of the bridge operator that failed to update."
          }
        }
      ],
      "ErrContractTypeNotFound(uint8)": [
        {
          "details": "Error of invalid role."
        }
      ],
      "ErrCurrentProposalIsNotCompleted()": [
        {
          "details": "Error thrown when the current proposal is not completed."
        }
      ],
      "ErrDuplicated(bytes4)": [
        {
          "details": "Error thrown when a duplicated element is detected in an array.",
          "params": {
            "msgSig": "The function signature that invoke the error."
          }
        }
      ],
      "ErrInsufficientGas(bytes32)": [
        {
          "details": "Error thrown when there is insufficient gas to execute a function."
        }
      ],
      "ErrInvalidArguments(bytes4)": [
        {
          "details": "Error indicating that arguments are invalid."
        }
      ],
      "ErrInvalidChainId(bytes4,uint256,uint256)": [
        {
          "details": "Error indicating that the chain ID is invalid.",
          "params": {
            "actual": "Current chain ID that executing function.",
            "expected": "Expected chain ID required for the tx to success.",
            "msgSig": "The function signature (bytes4) of the operation that encountered an invalid chain ID."
          }
        }
      ],
      "ErrInvalidExpiryTimestamp()": [
        {
          "details": "Error thrown when an invalid expiry timestamp is provided."
        }
      ],
      "ErrInvalidOrder(bytes4)": [
        {
          "details": "Error indicating that an order is invalid.",
          "params": {
            "msgSig": "The function signature (bytes4) of the operation that encountered an invalid order."
          }
        }
      ],
      "ErrInvalidProposal(bytes32,bytes32)": [
        {
          "details": "Error thrown when an invalid proposal is encountered.",
          "params": {
            "actual": "The actual value of the proposal.",
            "expected": "The expected value of the proposal."
          }
        }
      ],
      "ErrInvalidProposalNonce(bytes4)": [
        {
          "details": "Error indicating that the proposal nonce is invalid.",
          "params": {
            "msgSig": "The function signature (bytes4) of the operation that encountered an invalid proposal nonce."
          }
        }
      ],
      "ErrInvalidSignatures(bytes4)": [
        {
          "details": "Error indicating that a signature is invalid for a specific function signature.",
          "params": {
            "msgSig": "The function signature (bytes4) that encountered an invalid signature."
          }
        }
      ],
      "ErrInvalidThreshold(bytes4)": [
        {
          "details": "Error indicating that the provided threshold is invalid for a specific function signature.",
          "params": {
            "msgSig": "The function signature (bytes4) that the invalid threshold applies to."
          }
        }
      ],
      "ErrInvalidVoteWeight(bytes4)": [
        {
          "details": "Error indicating that a vote weight is invalid for a specific function signature.",
          "params": {
            "msgSig": "The function signature (bytes4) that encountered an invalid vote weight."
          }
        }
      ],
      "ErrLengthMismatch(bytes4)": [
        {
          "details": "Error indicating a mismatch in the length of input parameters or arrays for a specific function.",
          "params": {
            "msgSig": "The function signature (bytes4) that has a length mismatch."
          }
        }
      ],
      "ErrOnlySelfCall(bytes4)": [
        {
          "details": "Error indicating that a function can only be called by the contract itself.",
          "params": {
            "msgSig": "The function signature (bytes4) that can only be called by the contract itself."
          }
        }
      ],
      "ErrQueryForEmptyVote()": [
        {
          "details": "Error thrown when querying for an empty vote."
        }
      ],
      "ErrUnauthorized(bytes4,uint8)": [
        {
          "details": "Error indicating that the caller is unauthorized to perform a specific function.",
          "params": {
            "expectedRole": "The role required to perform the function.",
            "msgSig": "The function signature (bytes4) that the caller is unauthorized to perform."
          }
        }
      ],
      "ErrUnsupportedInterface(bytes4,address)": [
        {
          "details": "The error indicating an unsupported interface.",
          "params": {
            "addr": "The address where the unsupported interface was encountered.",
            "interfaceId": "The bytes4 interface identifier that is not supported."
          }
        }
      ],
      "ErrUnsupportedVoteType(bytes4)": [
        {
          "details": "Error indicating that a vote type is not supported.",
          "params": {
            "msgSig": "The function signature (bytes4) of the operation that encountered an unsupported vote type."
          }
        }
      ],
      "ErrVoteIsFinalized()": [
        {
          "details": "Error thrown when attempting to interact with a finalized vote."
        }
      ],
      "ErrZeroAddress(bytes4)": [
        {
          "details": "Error indicating that given address is null when it should not."
        }
      ],
      "ErrZeroCodeContract(address)": [
        {
          "details": "Error of set to non-contract."
        }
      ]
    },
    "kind": "dev",
    "methods": {
      "addBridgeOperators(uint96[],address[],address[])": {
        "details": "Adds multiple bridge operators.",
        "params": {
          "bridgeOperators": "An array of addresses representing the bridge operators to add.",
          "governors": "An array of addresses of hot/cold wallets for bridge operator to update their node address."
        },
        "returns": {
          "addeds": "An array of booleans indicating whether each bridge operator was added successfully. Note: return boolean array `addeds` indicates whether a group (voteWeight, governor, operator) are recorded. It is expected that FE/BE staticcall to the function first to get the return values and handle it correctly. Governors are expected to see the outcome of this function and decide if they want to vote for the proposal or not. Example Usage: Making an `eth_call` in ethers.js ``` const {addeds} = await bridgeManagerContract.callStatic.addBridgeOperators(  voteWeights,  governors,  bridgeOperators,  // overriding the caller to the contract itself since we use `onlySelfCall` guard  {from: bridgeManagerContract.address} ) const filteredOperators = bridgeOperators.filter((_, index) => addeds[index]); const filteredWeights = weights.filter((_, index) => addeds[index]); const filteredGovernors = governors.filter((_, index) => addeds[index]); // ... (Process or use the information as required) ... ```"
        }
      },
      "castGlobalProposalBySignatures((uint256,uint256,uint8[],uint256[],bytes[],uint256[]),uint8[],(uint8,bytes32,bytes32)[])": {
        "details": "See `GovernanceProposal-_castGlobalProposalBySignatures`."
      },
      "castProposalBySignatures((uint256,uint256,uint256,address[],uint256[],bytes[],uint256[]),uint8[],(uint8,bytes32,bytes32)[])": {
        "details": "See `GovernanceProposal-_castProposalBySignatures`."
      },
      "castProposalVoteForCurrentNetwork((uint256,uint256,uint256,address[],uint256[],bytes[],uint256[]),uint8)": {
        "details": "Casts vote for a proposal on the current network. Requirements: - The method caller is governor."
      },
      "checkThreshold(uint256)": {
        "details": "Checks whether the `_voteWeight` passes the threshold."
      },
      "deleteExpired(uint256,uint256)": {
        "details": "Deletes the expired proposal by its chainId and nonce, without creating a new proposal. Requirements: - The proposal is already created."
      },
      "getBridgeOperatorOf(address[])": {
        "details": "Returns an array of bridge operators correspoding to governor addresses.",
        "returns": {
          "bridgeOperators": "An array containing the addresses of all bridge operators."
        }
      },
      "getBridgeOperatorWeight(address)": {
        "details": "External function to retrieve the vote weight of a specific bridge operator.",
        "params": {
          "bridgeOperator": "The address of the bridge operator to get the vote weight for."
        },
        "returns": {
          "weight": "The vote weight of the specified bridge operator."
        }
      },
      "getBridgeOperators()": {
        "details": "Returns an array of all bridge operators.",
        "returns": {
          "_0": "An array containing the addresses of all bridge operators."
        }
      },
      "getCallbackRegisters()": {
        "details": "Retrieves the addresses of registered callbacks.",
        "returns": {
          "registers": "An array containing the addresses of registered callbacks."
        }
      },
      "getContract(uint8)": {
        "details": "Returns the address of a contract with a specific role. Throws an error if no contract is set for the specified role.",
        "params": {
          "contractType": "The role of the contract to retrieve."
        },
        "returns": {
          "contract_": "The address of the contract with the specified role."
        }
      },
      "getFullBridgeOperatorInfos()": {
        "details": "Retrieves the full information of all registered bridge operators. This external function allows external callers to obtain the full information of all the registered bridge operators. The returned arrays include the addresses of governors, bridge operators, and their corresponding vote weights.",
        "returns": {
          "bridgeOperators": "An array of addresses representing the registered bridge operators.",
          "governors": "An array of addresses representing the governors of each bridge operator.",
          "weights": "An array of uint256 values representing the vote weights of each bridge operator. Note: The length of each array will be the same, and the order of elements corresponds to the same bridge operator. Example Usage: ``` (address[] memory governors, address[] memory bridgeOperators, uint256[] memory weights) = getFullBridgeOperatorInfos(); for (uint256 i = 0; i < bridgeOperators.length; i++) {     // Access individual information for each bridge operator.     address governor = governors[i];     address bridgeOperator = bridgeOperators[i];     uint256 weight = weights[i];     // ... (Process or use the information as required) ... } ```"
        }
      },
      "getGlobalProposalSignatures(uint256)": {
        "details": "See {CommonGovernanceProposal-_getProposalSignatures}"
      },
      "getGovernorWeight(address)": {
        "details": "External function to retrieve the vote weight of a specific governor.",
        "params": {
          "governor": "The address of the governor to get the vote weight for."
        },
        "returns": {
          "weight": "voteWeight The vote weight of the specified governor."
        }
      },
      "getGovernorWeights(address[])": {
        "details": "Returns the weights of a list of governor addresses."
      },
      "getGovernors()": {
        "details": "Returns an array of all governors.",
        "returns": {
          "_0": "An array containing the addresses of all governors."
        }
      },
      "getGovernorsOf(address[])": {
        "details": "Retrieves the governors corresponding to a given array of bridge operators. This external function allows external callers to obtain the governors associated with a given array of bridge operators. The function takes an input array `bridgeOperators` containing bridge operator addresses and returns an array of corresponding governors.",
        "params": {
          "bridgeOperators": "An array of bridge operator addresses for which governors are to be retrieved."
        },
        "returns": {
          "governors": "An array of addresses representing the governors corresponding to the provided bridge operators."
        }
      },
      "getProposalExpiryDuration()": {
        "details": "Returns the expiry duration for a new proposal."
      },
      "getProposalSignatures(uint256,uint256)": {
        "details": "See {CommonGovernanceProposal-_getProposalSignatures}"
      },
      "getThreshold()": {
        "details": "Returns the threshold."
      },
      "getTotalWeights()": {
        "details": "Returns total weights."
      },
      "globalProposalVoted(uint256,address)": {
        "details": "See {CommonGovernanceProposal-_proposalVoted}"
      },
      "isBridgeOperator(address)": {
        "details": "Checks if the given address is a bridge operator.",
        "params": {
          "addr": "The address to check."
        },
        "returns": {
          "_0": "A boolean indicating whether the address is a bridge operator."
        }
      },
      "minimumVoteWeight()": {
        "details": "Returns the minimum vote weight to pass the threshold."
      },
      "proposalVoted(uint256,uint256,address)": {
        "details": "See {CommonGovernanceProposal-_proposalVoted}"
      },
      "propose(uint256,uint256,address[],uint256[],bytes[],uint256[])": {
        "details": "See `CoreGovernance-_proposeProposal`. Requirements: - The method caller is governor."
      },
      "proposeGlobal(uint256,uint8[],uint256[],bytes[],uint256[])": {
        "details": "See `CoreGovernance-_proposeGlobal`. Requirements: - The method caller is governor."
      },
      "proposeGlobalProposalStructAndCastVotes((uint256,uint256,uint8[],uint256[],bytes[],uint256[]),uint8[],(uint8,bytes32,bytes32)[])": {
        "details": "See `GovernanceProposal-_proposeGlobalProposalStructAndCastVotes`. Requirements: - The method caller is governor."
      },
      "proposeProposalForCurrentNetwork(uint256,address[],uint256[],bytes[],uint256[],uint8)": {
        "details": "Proposes and casts vote for a proposal on the current network. Requirements: - The method caller is governor. - The proposal is for the current network."
      },
      "proposeProposalStructAndCastVotes((uint256,uint256,uint256,address[],uint256[],bytes[],uint256[]),uint8[],(uint8,bytes32,bytes32)[])": {
        "details": "See `GovernanceProposal-_proposeProposalStructAndCastVotes`. Requirements: - The method caller is governor. - The proposal is for the current network."
      },
      "registerCallbacks(address[])": {
        "details": "Registers multiple callbacks with the bridge.",
        "params": {
          "registers": "The array of callback addresses to register."
        },
        "returns": {
          "registereds": "An array indicating the success status of each registration."
        }
      },
      "removeBridgeOperators(address[])": {
        "details": "Removes multiple bridge operators.",
        "params": {
          "bridgeOperators": "An array of addresses representing the bridge operators to remove."
        },
        "returns": {
          "removeds": "An array of booleans indicating whether each bridge operator was removed successfully. * Note: return boolean array `removeds` indicates whether a group (voteWeight, governor, operator) are recorded. It is expected that FE/BE staticcall to the function first to get the return values and handle it correctly. Governors are expected to see the outcome of this function and decide if they want to vote for the proposal or not. Example Usage: Making an `eth_call` in ethers.js ``` const {removeds} = await bridgeManagerContract.callStatic.removeBridgeOperators(  bridgeOperators,  // overriding the caller to the contract itself since we use `onlySelfCall` guard  {from: bridgeManagerContract.address} ) const filteredOperators = bridgeOperators.filter((_, index) => removeds[index]); // ... (Process or use the information as required) ... ```"
        }
      },
      "resolveTargets(uint8[])": {
        "details": "Returns corresponding address of target options. Return address(0) on non-existent target."
      },
      "setContract(uint8,address)": {
        "details": "Sets the address of a contract with a specific role. Emits the event {ContractUpdated}.",
        "params": {
          "addr": "The address of the contract to set.",
          "contractType": "The role of the contract to set."
        }
      },
      "setThreshold(uint256,uint256)": {
        "details": "Sets the threshold. Requirements: - The method caller is admin. Emits the `ThresholdUpdated` event."
      },
      "sumGovernorsWeight(address[])": {
        "details": "Returns total weights of the governor list."
      },
      "totalBridgeOperators()": {
        "details": "Returns the total number of bridge operators.",
        "returns": {
          "_0": "The total number of bridge operators."
        }
      },
      "unregisterCallbacks(address[])": {
        "details": "Unregisters multiple callbacks from the bridge.",
        "params": {
          "registers": "The array of callback addresses to unregister."
        },
        "returns": {
          "unregistereds": "An array indicating the success status of each unregistration."
        }
      },
      "updateBridgeOperator(address)": {
        "details": "Governor updates their corresponding governor and/or operator address. Requirements: - The caller must the governor of the operator that is requested changes.",
        "params": {
          "bridgeOperator": "The address of the bridge operator to update."
        }
      },
      "updateTargetOptions(uint8[],address[])": {
        "details": "Updates list of `targetOptions to `targets`. Requirement: - Only allow self-call through proposal. "
      }
    },
    "version": 1
  },
  "userdoc": {
    "kind": "user",
    "methods": {
      "round(uint256)": {
        "notice": "chain id = 0 for global proposal"
      },
      "updateBridgeOperator(address)": {
        "notice": "This method checks authorization by querying the corresponding operator of the msg.sender and then attempts to remove it from the `_bridgeOperatorSet` for gas optimization. In case we allow a governor can leave their operator address blank null `address(0)`, consider add authorization check."
      }
    },
    "version": 1
  },
  "storageLayout": {
    "storage": [
      {
        "astId": 8162,
        "contract": "contracts/ronin/gateway/RoninBridgeManager.sol:RoninBridgeManager",
        "label": "round",
        "offset": 0,
        "slot": "0",
        "type": "t_mapping(t_uint256,t_uint256)"
      },
      {
        "astId": 8170,
        "contract": "contracts/ronin/gateway/RoninBridgeManager.sol:RoninBridgeManager",
        "label": "vote",
        "offset": 0,
        "slot": "1",
        "type": "t_mapping(t_uint256,t_mapping(t_uint256,t_struct(ProposalVote)8100_storage))"
      },
      {
        "astId": 8172,
        "contract": "contracts/ronin/gateway/RoninBridgeManager.sol:RoninBridgeManager",
        "label": "_proposalExpiryDuration",
        "offset": 0,
        "slot": "2",
        "type": "t_uint256"
      },
      {
        "astId": 8909,
        "contract": "contracts/ronin/gateway/RoninBridgeManager.sol:RoninBridgeManager",
        "label": "_targetOptionsMap",
        "offset": 0,
        "slot": "3",
        "type": "t_mapping(t_enum(TargetOption)15027,t_address)"
      }
    ],
    "types": {
      "t_address": {
        "encoding": "inplace",
        "label": "address",
        "numberOfBytes": "20"
      },
      "t_array(t_address)dyn_storage": {
        "base": "t_address",
        "encoding": "dynamic_array",
        "label": "address[]",
        "numberOfBytes": "32"
      },
      "t_bool": {
        "encoding": "inplace",
        "label": "bool",
        "numberOfBytes": "1"
      },
      "t_bytes32": {
        "encoding": "inplace",
        "label": "bytes32",
        "numberOfBytes": "32"
      },
      "t_enum(TargetOption)15027": {
        "encoding": "inplace",
        "label": "enum GlobalProposal.TargetOption",
        "numberOfBytes": "1"
      },
      "t_enum(VoteStatus)12714": {
        "encoding": "inplace",
        "label": "enum VoteStatusConsumer.VoteStatus",
        "numberOfBytes": "1"
      },
      "t_mapping(t_address,t_bool)": {
        "encoding": "mapping",
        "key": "t_address",
        "label": "mapping(address => bool)",
        "numberOfBytes": "32",
        "value": "t_bool"
      },
      "t_mapping(t_address,t_struct(Signature)12705_storage)": {
        "encoding": "mapping",
        "key": "t_address",
        "label": "mapping(address => struct SignatureConsumer.Signature)",
        "numberOfBytes": "32",
        "value": "t_struct(Signature)12705_storage"
      },
      "t_mapping(t_enum(TargetOption)15027,t_address)": {
        "encoding": "mapping",
        "key": "t_enum(TargetOption)15027",
        "label": "mapping(enum GlobalProposal.TargetOption => address)",
        "numberOfBytes": "32",
        "value": "t_address"
      },
      "t_mapping(t_uint256,t_mapping(t_uint256,t_struct(ProposalVote)8100_storage))": {
        "encoding": "mapping",
        "key": "t_uint256",
        "label": "mapping(uint256 => mapping(uint256 => struct CoreGovernance.ProposalVote))",
        "numberOfBytes": "32",
        "value": "t_mapping(t_uint256,t_struct(ProposalVote)8100_storage)"
      },
      "t_mapping(t_uint256,t_struct(ProposalVote)8100_storage)": {
        "encoding": "mapping",
        "key": "t_uint256",
        "label": "mapping(uint256 => struct CoreGovernance.ProposalVote)",
        "numberOfBytes": "32",
        "value": "t_struct(ProposalVote)8100_storage"
      },
      "t_mapping(t_uint256,t_uint256)": {
        "encoding": "mapping",
        "key": "t_uint256",
        "label": "mapping(uint256 => uint256)",
        "numberOfBytes": "32",
        "value": "t_uint256"
      },
      "t_struct(ProposalVote)8100_storage": {
        "encoding": "inplace",
        "label": "struct CoreGovernance.ProposalVote",
        "members": [
          {
            "astId": 8076,
            "contract": "contracts/ronin/gateway/RoninBridgeManager.sol:RoninBridgeManager",
            "label": "status",
            "offset": 0,
            "slot": "0",
            "type": "t_enum(VoteStatus)12714"
          },
          {
            "astId": 8078,
            "contract": "contracts/ronin/gateway/RoninBridgeManager.sol:RoninBridgeManager",
            "label": "hash",
            "offset": 0,
            "slot": "1",
            "type": "t_bytes32"
          },
          {
            "astId": 8080,
            "contract": "contracts/ronin/gateway/RoninBridgeManager.sol:RoninBridgeManager",
            "label": "againstVoteWeight",
            "offset": 0,
            "slot": "2",
            "type": "t_uint256"
          },
          {
            "astId": 8082,
            "contract": "contracts/ronin/gateway/RoninBridgeManager.sol:RoninBridgeManager",
            "label": "forVoteWeight",
            "offset": 0,
            "slot": "3",
            "type": "t_uint256"
          },
          {
            "astId": 8085,
            "contract": "contracts/ronin/gateway/RoninBridgeManager.sol:RoninBridgeManager",
            "label": "forVoteds",
            "offset": 0,
            "slot": "4",
            "type": "t_array(t_address)dyn_storage"
          },
          {
            "astId": 8088,
            "contract": "contracts/ronin/gateway/RoninBridgeManager.sol:RoninBridgeManager",
            "label": "againstVoteds",
            "offset": 0,
            "slot": "5",
            "type": "t_array(t_address)dyn_storage"
          },
          {
            "astId": 8090,
            "contract": "contracts/ronin/gateway/RoninBridgeManager.sol:RoninBridgeManager",
            "label": "expiryTimestamp",
            "offset": 0,
            "slot": "6",
            "type": "t_uint256"
          },
          {
            "astId": 8095,
            "contract": "contracts/ronin/gateway/RoninBridgeManager.sol:RoninBridgeManager",
            "label": "sig",
            "offset": 0,
            "slot": "7",
            "type": "t_mapping(t_address,t_struct(Signature)12705_storage)"
          },
          {
            "astId": 8099,
            "contract": "contracts/ronin/gateway/RoninBridgeManager.sol:RoninBridgeManager",
            "label": "voted",
            "offset": 0,
            "slot": "8",
            "type": "t_mapping(t_address,t_bool)"
          }
        ],
        "numberOfBytes": "288"
      },
      "t_struct(Signature)12705_storage": {
        "encoding": "inplace",
        "label": "struct SignatureConsumer.Signature",
        "members": [
          {
            "astId": 12700,
            "contract": "contracts/ronin/gateway/RoninBridgeManager.sol:RoninBridgeManager",
            "label": "v",
            "offset": 0,
            "slot": "0",
            "type": "t_uint8"
          },
          {
            "astId": 12702,
            "contract": "contracts/ronin/gateway/RoninBridgeManager.sol:RoninBridgeManager",
            "label": "r",
            "offset": 0,
            "slot": "1",
            "type": "t_bytes32"
          },
          {
            "astId": 12704,
            "contract": "contracts/ronin/gateway/RoninBridgeManager.sol:RoninBridgeManager",
            "label": "s",
            "offset": 0,
            "slot": "2",
            "type": "t_bytes32"
          }
        ],
        "numberOfBytes": "96"
      },
      "t_uint256": {
        "encoding": "inplace",
        "label": "uint256",
        "numberOfBytes": "32"
      },
      "t_uint8": {
        "encoding": "inplace",
        "label": "uint8",
        "numberOfBytes": "1"
      }
    }
  }
}