{
  "address": "0x02293Da6248e6E6B80F96E56E16F1ea389bF374a",
  "abi": [
    {
      "inputs": [
        {
          "internalType": "address",
          "name": "voter",
          "type": "address"
        }
      ],
      "name": "ErrAlreadyVoted",
      "type": "error"
    },
    {
      "inputs": [
        {
          "internalType": "enum ContractType",
          "name": "contractType",
          "type": "uint8"
        }
      ],
      "name": "ErrContractTypeNotFound",
      "type": "error"
    },
    {
      "inputs": [],
      "name": "ErrERC20MintingFailed",
      "type": "error"
    },
    {
      "inputs": [],
      "name": "ErrERC721MintingFailed",
      "type": "error"
    },
    {
      "inputs": [],
      "name": "ErrEmptyArray",
      "type": "error"
    },
    {
      "inputs": [
        {
          "internalType": "bytes4",
          "name": "msgSig",
          "type": "bytes4"
        },
        {
          "internalType": "uint256",
          "name": "actual",
          "type": "uint256"
        },
        {
          "internalType": "uint256",
          "name": "expected",
          "type": "uint256"
        }
      ],
      "name": "ErrInvalidChainId",
      "type": "error"
    },
    {
      "inputs": [],
      "name": "ErrInvalidInfo",
      "type": "error"
    },
    {
      "inputs": [],
      "name": "ErrInvalidReceipt",
      "type": "error"
    },
    {
      "inputs": [],
      "name": "ErrInvalidReceiptKind",
      "type": "error"
    },
    {
      "inputs": [],
      "name": "ErrInvalidRequest",
      "type": "error"
    },
    {
      "inputs": [
        {
          "internalType": "bytes4",
          "name": "msgSig",
          "type": "bytes4"
        }
      ],
      "name": "ErrInvalidThreshold",
      "type": "error"
    },
    {
      "inputs": [],
      "name": "ErrInvalidTokenStandard",
      "type": "error"
    },
    {
      "inputs": [],
      "name": "ErrInvalidTrustedThreshold",
      "type": "error"
    },
    {
      "inputs": [
        {
          "internalType": "bytes4",
          "name": "msgSig",
          "type": "bytes4"
        }
      ],
      "name": "ErrLengthMismatch",
      "type": "error"
    },
    {
      "inputs": [],
      "name": "ErrQueryForTooSmallQuantity",
      "type": "error"
    },
    {
      "inputs": [
        {
          "components": [
            {
              "internalType": "enum Token.Standard",
              "name": "erc",
              "type": "uint8"
            },
            {
              "internalType": "uint256",
              "name": "id",
              "type": "uint256"
            },
            {
              "internalType": "uint256",
              "name": "quantity",
              "type": "uint256"
            }
          ],
          "internalType": "struct Token.Info",
          "name": "tokenInfo",
          "type": "tuple"
        },
        {
          "internalType": "address",
          "name": "to",
          "type": "address"
        },
        {
          "internalType": "address",
          "name": "token",
          "type": "address"
        }
      ],
      "name": "ErrTokenCouldNotTransfer",
      "type": "error"
    },
    {
      "inputs": [
        {
          "components": [
            {
              "internalType": "enum Token.Standard",
              "name": "erc",
              "type": "uint8"
            },
            {
              "internalType": "uint256",
              "name": "id",
              "type": "uint256"
            },
            {
              "internalType": "uint256",
              "name": "quantity",
              "type": "uint256"
            }
          ],
          "internalType": "struct Token.Info",
          "name": "tokenInfo",
          "type": "tuple"
        },
        {
          "internalType": "address",
          "name": "from",
          "type": "address"
        },
        {
          "internalType": "address",
          "name": "to",
          "type": "address"
        },
        {
          "internalType": "address",
          "name": "token",
          "type": "address"
        }
      ],
      "name": "ErrTokenCouldNotTransferFrom",
      "type": "error"
    },
    {
      "inputs": [
        {
          "internalType": "bytes4",
          "name": "msgSig",
          "type": "bytes4"
        },
        {
          "internalType": "enum RoleAccess",
          "name": "expectedRole",
          "type": "uint8"
        }
      ],
      "name": "ErrUnauthorized",
      "type": "error"
    },
    {
      "inputs": [],
      "name": "ErrUnsupportedStandard",
      "type": "error"
    },
    {
      "inputs": [],
      "name": "ErrUnsupportedToken",
      "type": "error"
    },
    {
      "inputs": [],
      "name": "ErrWithdrawalsMigrated",
      "type": "error"
    },
    {
      "inputs": [],
      "name": "ErrWithdrawnOnMainchainAlready",
      "type": "error"
    },
    {
      "inputs": [
        {
          "internalType": "address",
          "name": "addr",
          "type": "address"
        }
      ],
      "name": "ErrZeroCodeContract",
      "type": "error"
    },
    {
      "anonymous": false,
      "inputs": [
        {
          "indexed": true,
          "internalType": "enum ContractType",
          "name": "contractType",
          "type": "uint8"
        },
        {
          "indexed": true,
          "internalType": "address",
          "name": "addr",
          "type": "address"
        }
      ],
      "name": "ContractUpdated",
      "type": "event"
    },
    {
      "anonymous": false,
      "inputs": [
        {
          "indexed": true,
          "internalType": "address",
          "name": "bridgeOperator",
          "type": "address"
        },
        {
          "indexed": true,
          "internalType": "uint256",
          "name": "id",
          "type": "uint256"
        },
        {
          "indexed": true,
          "internalType": "uint256",
          "name": "chainId",
          "type": "uint256"
        },
        {
          "indexed": false,
          "internalType": "bytes32",
          "name": "receiptHash",
          "type": "bytes32"
        }
      ],
      "name": "DepositVoted",
      "type": "event"
    },
    {
      "anonymous": false,
      "inputs": [
        {
          "indexed": false,
          "internalType": "bytes32",
          "name": "receiptHash",
          "type": "bytes32"
        },
        {
          "components": [
            {
              "internalType": "uint256",
              "name": "id",
              "type": "uint256"
            },
            {
              "internalType": "enum Transfer.Kind",
              "name": "kind",
              "type": "uint8"
            },
            {
              "components": [
                {
                  "internalType": "address",
                  "name": "addr",
                  "type": "address"
                },
                {
                  "internalType": "address",
                  "name": "tokenAddr",
                  "type": "address"
                },
                {
                  "internalType": "uint256",
                  "name": "chainId",
                  "type": "uint256"
                }
              ],
              "internalType": "struct Token.Owner",
              "name": "mainchain",
              "type": "tuple"
            },
            {
              "components": [
                {
                  "internalType": "address",
                  "name": "addr",
                  "type": "address"
                },
                {
                  "internalType": "address",
                  "name": "tokenAddr",
                  "type": "address"
                },
                {
                  "internalType": "uint256",
                  "name": "chainId",
                  "type": "uint256"
                }
              ],
              "internalType": "struct Token.Owner",
              "name": "ronin",
              "type": "tuple"
            },
            {
              "components": [
                {
                  "internalType": "enum Token.Standard",
                  "name": "erc",
                  "type": "uint8"
                },
                {
                  "internalType": "uint256",
                  "name": "id",
                  "type": "uint256"
                },
                {
                  "internalType": "uint256",
                  "name": "quantity",
                  "type": "uint256"
                }
              ],
              "internalType": "struct Token.Info",
              "name": "info",
              "type": "tuple"
            }
          ],
          "indexed": false,
          "internalType": "struct Transfer.Receipt",
          "name": "receipt",
          "type": "tuple"
        }
      ],
      "name": "Deposited",
      "type": "event"
    },
    {
      "anonymous": false,
      "inputs": [
        {
          "indexed": false,
          "internalType": "uint8",
          "name": "version",
          "type": "uint8"
        }
      ],
      "name": "Initialized",
      "type": "event"
    },
    {
      "anonymous": false,
      "inputs": [
        {
          "indexed": false,
          "internalType": "bytes32",
          "name": "receiptHash",
          "type": "bytes32"
        },
        {
          "components": [
            {
              "internalType": "uint256",
              "name": "id",
              "type": "uint256"
            },
            {
              "internalType": "enum Transfer.Kind",
              "name": "kind",
              "type": "uint8"
            },
            {
              "components": [
                {
                  "internalType": "address",
                  "name": "addr",
                  "type": "address"
                },
                {
                  "internalType": "address",
                  "name": "tokenAddr",
                  "type": "address"
                },
                {
                  "internalType": "uint256",
                  "name": "chainId",
                  "type": "uint256"
                }
              ],
              "internalType": "struct Token.Owner",
              "name": "mainchain",
              "type": "tuple"
            },
            {
              "components": [
                {
                  "internalType": "address",
                  "name": "addr",
                  "type": "address"
                },
                {
                  "internalType": "address",
                  "name": "tokenAddr",
                  "type": "address"
                },
                {
                  "internalType": "uint256",
                  "name": "chainId",
                  "type": "uint256"
                }
              ],
              "internalType": "struct Token.Owner",
              "name": "ronin",
              "type": "tuple"
            },
            {
              "components": [
                {
                  "internalType": "enum Token.Standard",
                  "name": "erc",
                  "type": "uint8"
                },
                {
                  "internalType": "uint256",
                  "name": "id",
                  "type": "uint256"
                },
                {
                  "internalType": "uint256",
                  "name": "quantity",
                  "type": "uint256"
                }
              ],
              "internalType": "struct Token.Info",
              "name": "info",
              "type": "tuple"
            }
          ],
          "indexed": false,
          "internalType": "struct Transfer.Receipt",
          "name": "receipt",
          "type": "tuple"
        }
      ],
      "name": "MainchainWithdrew",
      "type": "event"
    },
    {
      "anonymous": false,
      "inputs": [
        {
          "indexed": false,
          "internalType": "address[]",
          "name": "tokens",
          "type": "address[]"
        },
        {
          "indexed": false,
          "internalType": "uint256[]",
          "name": "threshold",
          "type": "uint256[]"
        }
      ],
      "name": "MinimumThresholdsUpdated",
      "type": "event"
    },
    {
      "anonymous": false,
      "inputs": [
        {
          "indexed": false,
          "internalType": "address",
          "name": "account",
          "type": "address"
        }
      ],
      "name": "Paused",
      "type": "event"
    },
    {
      "anonymous": false,
      "inputs": [
        {
          "indexed": true,
          "internalType": "bytes32",
          "name": "role",
          "type": "bytes32"
        },
        {
          "indexed": true,
          "internalType": "bytes32",
          "name": "previousAdminRole",
          "type": "bytes32"
        },
        {
          "indexed": true,
          "internalType": "bytes32",
          "name": "newAdminRole",
          "type": "bytes32"
        }
      ],
      "name": "RoleAdminChanged",
      "type": "event"
    },
    {
      "anonymous": false,
      "inputs": [
        {
          "indexed": true,
          "internalType": "bytes32",
          "name": "role",
          "type": "bytes32"
        },
        {
          "indexed": true,
          "internalType": "address",
          "name": "account",
          "type": "address"
        },
        {
          "indexed": true,
          "internalType": "address",
          "name": "sender",
          "type": "address"
        }
      ],
      "name": "RoleGranted",
      "type": "event"
    },
    {
      "anonymous": false,
      "inputs": [
        {
          "indexed": true,
          "internalType": "bytes32",
          "name": "role",
          "type": "bytes32"
        },
        {
          "indexed": true,
          "internalType": "address",
          "name": "account",
          "type": "address"
        },
        {
          "indexed": true,
          "internalType": "address",
          "name": "sender",
          "type": "address"
        }
      ],
      "name": "RoleRevoked",
      "type": "event"
    },
    {
      "anonymous": false,
      "inputs": [
        {
          "indexed": true,
          "internalType": "uint256",
          "name": "nonce",
          "type": "uint256"
        },
        {
          "indexed": true,
          "internalType": "uint256",
          "name": "numerator",
          "type": "uint256"
        },
        {
          "indexed": true,
          "internalType": "uint256",
          "name": "denominator",
          "type": "uint256"
        },
        {
          "indexed": false,
          "internalType": "uint256",
          "name": "previousNumerator",
          "type": "uint256"
        },
        {
          "indexed": false,
          "internalType": "uint256",
          "name": "previousDenominator",
          "type": "uint256"
        }
      ],
      "name": "ThresholdUpdated",
      "type": "event"
    },
    {
      "anonymous": false,
      "inputs": [
        {
          "indexed": false,
          "internalType": "address[]",
          "name": "roninTokens",
          "type": "address[]"
        },
        {
          "indexed": false,
          "internalType": "address[]",
          "name": "mainchainTokens",
          "type": "address[]"
        },
        {
          "indexed": false,
          "internalType": "uint256[]",
          "name": "chainIds",
          "type": "uint256[]"
        },
        {
          "indexed": false,
          "internalType": "enum Token.Standard[]",
          "name": "standards",
          "type": "uint8[]"
        }
      ],
      "name": "TokenMapped",
      "type": "event"
    },
    {
      "anonymous": false,
      "inputs": [
        {
          "indexed": true,
          "internalType": "uint256",
          "name": "nonce",
          "type": "uint256"
        },
        {
          "indexed": true,
          "internalType": "uint256",
          "name": "numerator",
          "type": "uint256"
        },
        {
          "indexed": true,
          "internalType": "uint256",
          "name": "denominator",
          "type": "uint256"
        },
        {
          "indexed": false,
          "internalType": "uint256",
          "name": "previousNumerator",
          "type": "uint256"
        },
        {
          "indexed": false,
          "internalType": "uint256",
          "name": "previousDenominator",
          "type": "uint256"
        }
      ],
      "name": "TrustedThresholdUpdated",
      "type": "event"
    },
    {
      "anonymous": false,
      "inputs": [
        {
          "indexed": false,
          "internalType": "address",
          "name": "account",
          "type": "address"
        }
      ],
      "name": "Unpaused",
      "type": "event"
    },
    {
      "anonymous": false,
      "inputs": [
        {
          "indexed": false,
          "internalType": "bytes32",
          "name": "receiptHash",
          "type": "bytes32"
        },
        {
          "components": [
            {
              "internalType": "uint256",
              "name": "id",
              "type": "uint256"
            },
            {
              "internalType": "enum Transfer.Kind",
              "name": "kind",
              "type": "uint8"
            },
            {
              "components": [
                {
                  "internalType": "address",
                  "name": "addr",
                  "type": "address"
                },
                {
                  "internalType": "address",
                  "name": "tokenAddr",
                  "type": "address"
                },
                {
                  "internalType": "uint256",
                  "name": "chainId",
                  "type": "uint256"
                }
              ],
              "internalType": "struct Token.Owner",
              "name": "mainchain",
              "type": "tuple"
            },
            {
              "components": [
                {
                  "internalType": "address",
                  "name": "addr",
                  "type": "address"
                },
                {
                  "internalType": "address",
                  "name": "tokenAddr",
                  "type": "address"
                },
                {
                  "internalType": "uint256",
                  "name": "chainId",
                  "type": "uint256"
                }
              ],
              "internalType": "struct Token.Owner",
              "name": "ronin",
              "type": "tuple"
            },
            {
              "components": [
                {
                  "internalType": "enum Token.Standard",
                  "name": "erc",
                  "type": "uint8"
                },
                {
                  "internalType": "uint256",
                  "name": "id",
                  "type": "uint256"
                },
                {
                  "internalType": "uint256",
                  "name": "quantity",
                  "type": "uint256"
                }
              ],
              "internalType": "struct Token.Info",
              "name": "info",
              "type": "tuple"
            }
          ],
          "indexed": false,
          "internalType": "struct Transfer.Receipt",
          "name": "",
          "type": "tuple"
        }
      ],
      "name": "WithdrawalRequested",
      "type": "event"
    },
    {
      "anonymous": false,
      "inputs": [
        {
          "indexed": false,
          "internalType": "bytes32",
          "name": "receiptHash",
          "type": "bytes32"
        },
        {
          "components": [
            {
              "internalType": "uint256",
              "name": "id",
              "type": "uint256"
            },
            {
              "internalType": "enum Transfer.Kind",
              "name": "kind",
              "type": "uint8"
            },
            {
              "components": [
                {
                  "internalType": "address",
                  "name": "addr",
                  "type": "address"
                },
                {
                  "internalType": "address",
                  "name": "tokenAddr",
                  "type": "address"
                },
                {
                  "internalType": "uint256",
                  "name": "chainId",
                  "type": "uint256"
                }
              ],
              "internalType": "struct Token.Owner",
              "name": "mainchain",
              "type": "tuple"
            },
            {
              "components": [
                {
                  "internalType": "address",
                  "name": "addr",
                  "type": "address"
                },
                {
                  "internalType": "address",
                  "name": "tokenAddr",
                  "type": "address"
                },
                {
                  "internalType": "uint256",
                  "name": "chainId",
                  "type": "uint256"
                }
              ],
              "internalType": "struct Token.Owner",
              "name": "ronin",
              "type": "tuple"
            },
            {
              "components": [
                {
                  "internalType": "enum Token.Standard",
                  "name": "erc",
                  "type": "uint8"
                },
                {
                  "internalType": "uint256",
                  "name": "id",
                  "type": "uint256"
                },
                {
                  "internalType": "uint256",
                  "name": "quantity",
                  "type": "uint256"
                }
              ],
              "internalType": "struct Token.Info",
              "name": "info",
              "type": "tuple"
            }
          ],
          "indexed": false,
          "internalType": "struct Transfer.Receipt",
          "name": "",
          "type": "tuple"
        }
      ],
      "name": "WithdrawalSignaturesRequested",
      "type": "event"
    },
    {
      "stateMutability": "payable",
      "type": "fallback"
    },
    {
      "inputs": [],
      "name": "DEFAULT_ADMIN_ROLE",
      "outputs": [
        {
          "internalType": "bytes32",
          "name": "",
          "type": "bytes32"
        }
      ],
      "stateMutability": "view",
      "type": "function"
    },
    {
      "inputs": [],
      "name": "WITHDRAWAL_MIGRATOR",
      "outputs": [
        {
          "internalType": "bytes32",
          "name": "",
          "type": "bytes32"
        }
      ],
      "stateMutability": "view",
      "type": "function"
    },
    {
      "inputs": [
        {
          "components": [
            {
              "internalType": "address",
              "name": "recipientAddr",
              "type": "address"
            },
            {
              "internalType": "address",
              "name": "tokenAddr",
              "type": "address"
            },
            {
              "components": [
                {
                  "internalType": "enum Token.Standard",
                  "name": "erc",
                  "type": "uint8"
                },
                {
                  "internalType": "uint256",
                  "name": "id",
                  "type": "uint256"
                },
                {
                  "internalType": "uint256",
                  "name": "quantity",
                  "type": "uint256"
                }
              ],
              "internalType": "struct Token.Info",
              "name": "info",
              "type": "tuple"
            }
          ],
          "internalType": "struct Transfer.Request[]",
          "name": "_requests",
          "type": "tuple[]"
        },
        {
          "internalType": "uint256",
          "name": "_chainId",
          "type": "uint256"
        }
      ],
      "name": "bulkRequestWithdrawalFor",
      "outputs": [],
      "stateMutability": "nonpayable",
      "type": "function"
    },
    {
      "inputs": [
        {
          "internalType": "uint256[]",
          "name": "_withdrawals",
          "type": "uint256[]"
        },
        {
          "internalType": "bytes[]",
          "name": "_signatures",
          "type": "bytes[]"
        }
      ],
      "name": "bulkSubmitWithdrawalSignatures",
      "outputs": [],
      "stateMutability": "nonpayable",
      "type": "function"
    },
    {
      "inputs": [
        {
          "internalType": "uint256",
          "name": "_voteWeight",
          "type": "uint256"
        }
      ],
      "name": "checkThreshold",
      "outputs": [
        {
          "internalType": "bool",
          "name": "",
          "type": "bool"
        }
      ],
      "stateMutability": "view",
      "type": "function"
    },
    {
      "inputs": [
        {
          "components": [
            {
              "internalType": "uint256",
              "name": "id",
              "type": "uint256"
            },
            {
              "internalType": "enum Transfer.Kind",
              "name": "kind",
              "type": "uint8"
            },
            {
              "components": [
                {
                  "internalType": "address",
                  "name": "addr",
                  "type": "address"
                },
                {
                  "internalType": "address",
                  "name": "tokenAddr",
                  "type": "address"
                },
                {
                  "internalType": "uint256",
                  "name": "chainId",
                  "type": "uint256"
                }
              ],
              "internalType": "struct Token.Owner",
              "name": "mainchain",
              "type": "tuple"
            },
            {
              "components": [
                {
                  "internalType": "address",
                  "name": "addr",
                  "type": "address"
                },
                {
                  "internalType": "address",
                  "name": "tokenAddr",
                  "type": "address"
                },
                {
                  "internalType": "uint256",
                  "name": "chainId",
                  "type": "uint256"
                }
              ],
              "internalType": "struct Token.Owner",
              "name": "ronin",
              "type": "tuple"
            },
            {
              "components": [
                {
                  "internalType": "enum Token.Standard",
                  "name": "erc",
                  "type": "uint8"
                },
                {
                  "internalType": "uint256",
                  "name": "id",
                  "type": "uint256"
                },
                {
                  "internalType": "uint256",
                  "name": "quantity",
                  "type": "uint256"
                }
              ],
              "internalType": "struct Token.Info",
              "name": "info",
              "type": "tuple"
            }
          ],
          "internalType": "struct Transfer.Receipt",
          "name": "_receipt",
          "type": "tuple"
        }
      ],
      "name": "depositFor",
      "outputs": [],
      "stateMutability": "nonpayable",
      "type": "function"
    },
    {
      "inputs": [
        {
          "internalType": "uint256",
          "name": "",
          "type": "uint256"
        },
        {
          "internalType": "uint256",
          "name": "",
          "type": "uint256"
        }
      ],
      "name": "depositVote",
      "outputs": [
        {
          "internalType": "enum VoteStatusConsumer.VoteStatus",
          "name": "status",
          "type": "uint8"
        },
        {
          "internalType": "bytes32",
          "name": "finalHash",
          "type": "bytes32"
        },
        {
          "internalType": "uint256",
          "name": "expiredAt",
          "type": "uint256"
        },
        {
          "internalType": "uint256",
          "name": "createdAt",
          "type": "uint256"
        }
      ],
      "stateMutability": "view",
      "type": "function"
    },
    {
      "inputs": [
        {
          "internalType": "uint256",
          "name": "_chainId",
          "type": "uint256"
        },
        {
          "internalType": "uint256",
          "name": "_depositId",
          "type": "uint256"
        },
        {
          "internalType": "address",
          "name": "_voter",
          "type": "address"
        }
      ],
      "name": "depositVoted",
      "outputs": [
        {
          "internalType": "bool",
          "name": "",
          "type": "bool"
        }
      ],
      "stateMutability": "view",
      "type": "function"
    },
    {
      "inputs": [],
      "name": "emergencyPauser",
      "outputs": [
        {
          "internalType": "address",
          "name": "",
          "type": "address"
        }
      ],
      "stateMutability": "view",
      "type": "function"
    },
    {
      "inputs": [
        {
          "internalType": "enum ContractType",
          "name": "contractType",
          "type": "uint8"
        }
      ],
      "name": "getContract",
      "outputs": [
        {
          "internalType": "address",
          "name": "contract_",
          "type": "address"
        }
      ],
      "stateMutability": "view",
      "type": "function"
    },
    {
      "inputs": [
        {
          "internalType": "address",
          "name": "_roninToken",
          "type": "address"
        },
        {
          "internalType": "uint256",
          "name": "_chainId",
          "type": "uint256"
        }
      ],
      "name": "getMainchainToken",
      "outputs": [
        {
          "components": [
            {
              "internalType": "enum Token.Standard",
              "name": "erc",
              "type": "uint8"
            },
            {
              "internalType": "address",
              "name": "tokenAddr",
              "type": "address"
            }
          ],
          "internalType": "struct MappedTokenConsumer.MappedToken",
          "name": "_token",
          "type": "tuple"
        }
      ],
      "stateMutability": "view",
      "type": "function"
    },
    {
      "inputs": [
        {
          "internalType": "bytes32",
          "name": "role",
          "type": "bytes32"
        }
      ],
      "name": "getRoleAdmin",
      "outputs": [
        {
          "internalType": "bytes32",
          "name": "",
          "type": "bytes32"
        }
      ],
      "stateMutability": "view",
      "type": "function"
    },
    {
      "inputs": [
        {
          "internalType": "bytes32",
          "name": "role",
          "type": "bytes32"
        },
        {
          "internalType": "uint256",
          "name": "index",
          "type": "uint256"
        }
      ],
      "name": "getRoleMember",
      "outputs": [
        {
          "internalType": "address",
          "name": "",
          "type": "address"
        }
      ],
      "stateMutability": "view",
      "type": "function"
    },
    {
      "inputs": [
        {
          "internalType": "bytes32",
          "name": "role",
          "type": "bytes32"
        }
      ],
      "name": "getRoleMemberCount",
      "outputs": [
        {
          "internalType": "uint256",
          "name": "",
          "type": "uint256"
        }
      ],
      "stateMutability": "view",
      "type": "function"
    },
    {
      "inputs": [],
      "name": "getThreshold",
      "outputs": [
        {
          "internalType": "uint256",
          "name": "num_",
          "type": "uint256"
        },
        {
          "internalType": "uint256",
          "name": "denom_",
          "type": "uint256"
        }
      ],
      "stateMutability": "view",
      "type": "function"
    },
    {
      "inputs": [],
      "name": "getTrustedThreshold",
      "outputs": [
        {
          "internalType": "uint256",
          "name": "trustedNum_",
          "type": "uint256"
        },
        {
          "internalType": "uint256",
          "name": "trustedDenom_",
          "type": "uint256"
        }
      ],
      "stateMutability": "view",
      "type": "function"
    },
    {
      "inputs": [
        {
          "internalType": "uint256",
          "name": "_withdrawalId",
          "type": "uint256"
        },
        {
          "internalType": "address[]",
          "name": "_validators",
          "type": "address[]"
        }
      ],
      "name": "getWithdrawalSignatures",
      "outputs": [
        {
          "internalType": "bytes[]",
          "name": "_signatures",
          "type": "bytes[]"
        }
      ],
      "stateMutability": "view",
      "type": "function"
    },
    {
      "inputs": [
        {
          "internalType": "bytes32",
          "name": "role",
          "type": "bytes32"
        },
        {
          "internalType": "address",
          "name": "account",
          "type": "address"
        }
      ],
      "name": "grantRole",
      "outputs": [],
      "stateMutability": "nonpayable",
      "type": "function"
    },
    {
      "inputs": [
        {
          "internalType": "bytes32",
          "name": "role",
          "type": "bytes32"
        },
        {
          "internalType": "address",
          "name": "account",
          "type": "address"
        }
      ],
      "name": "hasRole",
      "outputs": [
        {
          "internalType": "bool",
          "name": "",
          "type": "bool"
        }
      ],
      "stateMutability": "view",
      "type": "function"
    },
    {
      "inputs": [
        {
          "internalType": "address",
          "name": "_roleSetter",
          "type": "address"
        },
        {
          "internalType": "uint256",
          "name": "_numerator",
          "type": "uint256"
        },
        {
          "internalType": "uint256",
          "name": "_denominator",
          "type": "uint256"
        },
        {
          "internalType": "uint256",
          "name": "_trustedNumerator",
          "type": "uint256"
        },
        {
          "internalType": "uint256",
          "name": "_trustedDenominator",
          "type": "uint256"
        },
        {
          "internalType": "address[]",
          "name": "_withdrawalMigrators",
          "type": "address[]"
        },
        {
          "internalType": "address[][2]",
          "name": "_packedAddresses",
          "type": "address[][2]"
        },
        {
          "internalType": "uint256[][2]",
          "name": "_packedNumbers",
          "type": "uint256[][2]"
        },
        {
          "internalType": "enum Token.Standard[]",
          "name": "_standards",
          "type": "uint8[]"
        }
      ],
      "name": "initialize",
      "outputs": [],
      "stateMutability": "nonpayable",
      "type": "function"
    },
    {
      "inputs": [],
      "name": "initializeV2",
      "outputs": [],
      "stateMutability": "nonpayable",
      "type": "function"
    },
    {
      "inputs": [
        {
          "internalType": "uint256",
          "name": "_withdrawalId",
          "type": "uint256"
        }
      ],
      "name": "mainchainWithdrew",
      "outputs": [
        {
          "internalType": "bool",
          "name": "",
          "type": "bool"
        }
      ],
      "stateMutability": "view",
      "type": "function"
    },
    {
      "inputs": [
        {
          "internalType": "uint256",
          "name": "",
          "type": "uint256"
        }
      ],
      "name": "mainchainWithdrewVote",
      "outputs": [
        {
          "internalType": "enum VoteStatusConsumer.VoteStatus",
          "name": "status",
          "type": "uint8"
        },
        {
          "internalType": "bytes32",
          "name": "finalHash",
          "type": "bytes32"
        },
        {
          "internalType": "uint256",
          "name": "expiredAt",
          "type": "uint256"
        },
        {
          "internalType": "uint256",
          "name": "createdAt",
          "type": "uint256"
        }
      ],
      "stateMutability": "view",
      "type": "function"
    },
    {
      "inputs": [
        {
          "internalType": "uint256",
          "name": "_withdrawalId",
          "type": "uint256"
        },
        {
          "internalType": "address",
          "name": "_voter",
          "type": "address"
        }
      ],
      "name": "mainchainWithdrewVoted",
      "outputs": [
        {
          "internalType": "bool",
          "name": "",
          "type": "bool"
        }
      ],
      "stateMutability": "view",
      "type": "function"
    },
    {
      "inputs": [
        {
          "internalType": "address[]",
          "name": "_roninTokens",
          "type": "address[]"
        },
        {
          "internalType": "address[]",
          "name": "_mainchainTokens",
          "type": "address[]"
        },
        {
          "internalType": "uint256[]",
          "name": "_chainIds",
          "type": "uint256[]"
        },
        {
          "internalType": "enum Token.Standard[]",
          "name": "_standards",
          "type": "uint8[]"
        }
      ],
      "name": "mapTokens",
      "outputs": [],
      "stateMutability": "nonpayable",
      "type": "function"
    },
    {
      "inputs": [],
      "name": "markWithdrawalMigrated",
      "outputs": [],
      "stateMutability": "nonpayable",
      "type": "function"
    },
    {
      "inputs": [
        {
          "components": [
            {
              "internalType": "address",
              "name": "recipientAddr",
              "type": "address"
            },
            {
              "internalType": "address",
              "name": "tokenAddr",
              "type": "address"
            },
            {
              "components": [
                {
                  "internalType": "enum Token.Standard",
                  "name": "erc",
                  "type": "uint8"
                },
                {
                  "internalType": "uint256",
                  "name": "id",
                  "type": "uint256"
                },
                {
                  "internalType": "uint256",
                  "name": "quantity",
                  "type": "uint256"
                }
              ],
              "internalType": "struct Token.Info",
              "name": "info",
              "type": "tuple"
            }
          ],
          "internalType": "struct Transfer.Request[]",
          "name": "_requests",
          "type": "tuple[]"
        },
        {
          "internalType": "address[]",
          "name": "_requesters",
          "type": "address[]"
        }
      ],
      "name": "migrateWithdrawals",
      "outputs": [],
      "stateMutability": "nonpayable",
      "type": "function"
    },
    {
      "inputs": [
        {
          "internalType": "address",
          "name": "",
          "type": "address"
        }
      ],
      "name": "minimumThreshold",
      "outputs": [
        {
          "internalType": "uint256",
          "name": "",
          "type": "uint256"
        }
      ],
      "stateMutability": "view",
      "type": "function"
    },
    {
      "inputs": [],
      "name": "minimumTrustedVoteWeight",
      "outputs": [
        {
          "internalType": "uint256",
          "name": "",
          "type": "uint256"
        }
      ],
      "stateMutability": "view",
      "type": "function"
    },
    {
      "inputs": [],
      "name": "minimumVoteWeight",
      "outputs": [
        {
          "internalType": "uint256",
          "name": "",
          "type": "uint256"
        }
      ],
      "stateMutability": "view",
      "type": "function"
    },
    {
      "inputs": [],
      "name": "nonce",
      "outputs": [
        {
          "internalType": "uint256",
          "name": "",
          "type": "uint256"
        }
      ],
      "stateMutability": "view",
      "type": "function"
    },
    {
      "inputs": [],
      "name": "pause",
      "outputs": [],
      "stateMutability": "nonpayable",
      "type": "function"
    },
    {
      "inputs": [],
      "name": "paused",
      "outputs": [
        {
          "internalType": "bool",
          "name": "",
          "type": "bool"
        }
      ],
      "stateMutability": "view",
      "type": "function"
    },
    {
      "inputs": [
        {
          "internalType": "bytes32",
          "name": "role",
          "type": "bytes32"
        },
        {
          "internalType": "address",
          "name": "account",
          "type": "address"
        }
      ],
      "name": "renounceRole",
      "outputs": [],
      "stateMutability": "nonpayable",
      "type": "function"
    },
    {
      "inputs": [
        {
          "components": [
            {
              "internalType": "address",
              "name": "recipientAddr",
              "type": "address"
            },
            {
              "internalType": "address",
              "name": "tokenAddr",
              "type": "address"
            },
            {
              "components": [
                {
                  "internalType": "enum Token.Standard",
                  "name": "erc",
                  "type": "uint8"
                },
                {
                  "internalType": "uint256",
                  "name": "id",
                  "type": "uint256"
                },
                {
                  "internalType": "uint256",
                  "name": "quantity",
                  "type": "uint256"
                }
              ],
              "internalType": "struct Token.Info",
              "name": "info",
              "type": "tuple"
            }
          ],
          "internalType": "struct Transfer.Request",
          "name": "_request",
          "type": "tuple"
        },
        {
          "internalType": "uint256",
          "name": "_chainId",
          "type": "uint256"
        }
      ],
      "name": "requestWithdrawalFor",
      "outputs": [],
      "stateMutability": "nonpayable",
      "type": "function"
    },
    {
      "inputs": [
        {
          "internalType": "uint256",
          "name": "_withdrawalId",
          "type": "uint256"
        }
      ],
      "name": "requestWithdrawalSignatures",
      "outputs": [],
      "stateMutability": "nonpayable",
      "type": "function"
    },
    {
      "inputs": [
        {
          "internalType": "bytes32",
          "name": "role",
          "type": "bytes32"
        },
        {
          "internalType": "address",
          "name": "account",
          "type": "address"
        }
      ],
      "name": "revokeRole",
      "outputs": [],
      "stateMutability": "nonpayable",
      "type": "function"
    },
    {
      "inputs": [
        {
          "internalType": "enum ContractType",
          "name": "contractType",
          "type": "uint8"
        },
        {
          "internalType": "address",
          "name": "addr",
          "type": "address"
        }
      ],
      "name": "setContract",
      "outputs": [],
      "stateMutability": "nonpayable",
      "type": "function"
    },
    {
      "inputs": [
        {
          "internalType": "address",
          "name": "_addr",
          "type": "address"
        }
      ],
      "name": "setEmergencyPauser",
      "outputs": [],
      "stateMutability": "nonpayable",
      "type": "function"
    },
    {
      "inputs": [
        {
          "internalType": "address[]",
          "name": "_tokens",
          "type": "address[]"
        },
        {
          "internalType": "uint256[]",
          "name": "_thresholds",
          "type": "uint256[]"
        }
      ],
      "name": "setMinimumThresholds",
      "outputs": [],
      "stateMutability": "nonpayable",
      "type": "function"
    },
    {
      "inputs": [
        {
          "internalType": "uint256",
          "name": "_numerator",
          "type": "uint256"
        },
        {
          "internalType": "uint256",
          "name": "_denominator",
          "type": "uint256"
        }
      ],
      "name": "setThreshold",
      "outputs": [
        {
          "internalType": "uint256",
          "name": "",
          "type": "uint256"
        },
        {
          "internalType": "uint256",
          "name": "",
          "type": "uint256"
        }
      ],
      "stateMutability": "nonpayable",
      "type": "function"
    },
    {
      "inputs": [
        {
          "internalType": "uint256",
          "name": "_trustedNumerator",
          "type": "uint256"
        },
        {
          "internalType": "uint256",
          "name": "_trustedDenominator",
          "type": "uint256"
        }
      ],
      "name": "setTrustedThreshold",
      "outputs": [
        {
          "internalType": "uint256",
          "name": "",
          "type": "uint256"
        },
        {
          "internalType": "uint256",
          "name": "",
          "type": "uint256"
        }
      ],
      "stateMutability": "nonpayable",
      "type": "function"
    },
    {
      "inputs": [
        {
          "internalType": "bytes4",
          "name": "interfaceId",
          "type": "bytes4"
        }
      ],
      "name": "supportsInterface",
      "outputs": [
        {
          "internalType": "bool",
          "name": "",
          "type": "bool"
        }
      ],
      "stateMutability": "view",
      "type": "function"
    },
    {
      "inputs": [
        {
          "internalType": "uint256[]",
          "name": "_withdrawalIds",
          "type": "uint256[]"
        }
      ],
      "name": "tryBulkAcknowledgeMainchainWithdrew",
      "outputs": [
        {
          "internalType": "bool[]",
          "name": "_executedReceipts",
          "type": "bool[]"
        }
      ],
      "stateMutability": "nonpayable",
      "type": "function"
    },
    {
      "inputs": [
        {
          "components": [
            {
              "internalType": "uint256",
              "name": "id",
              "type": "uint256"
            },
            {
              "internalType": "enum Transfer.Kind",
              "name": "kind",
              "type": "uint8"
            },
            {
              "components": [
                {
                  "internalType": "address",
                  "name": "addr",
                  "type": "address"
                },
                {
                  "internalType": "address",
                  "name": "tokenAddr",
                  "type": "address"
                },
                {
                  "internalType": "uint256",
                  "name": "chainId",
                  "type": "uint256"
                }
              ],
              "internalType": "struct Token.Owner",
              "name": "mainchain",
              "type": "tuple"
            },
            {
              "components": [
                {
                  "internalType": "address",
                  "name": "addr",
                  "type": "address"
                },
                {
                  "internalType": "address",
                  "name": "tokenAddr",
                  "type": "address"
                },
                {
                  "internalType": "uint256",
                  "name": "chainId",
                  "type": "uint256"
                }
              ],
              "internalType": "struct Token.Owner",
              "name": "ronin",
              "type": "tuple"
            },
            {
              "components": [
                {
                  "internalType": "enum Token.Standard",
                  "name": "erc",
                  "type": "uint8"
                },
                {
                  "internalType": "uint256",
                  "name": "id",
                  "type": "uint256"
                },
                {
                  "internalType": "uint256",
                  "name": "quantity",
                  "type": "uint256"
                }
              ],
              "internalType": "struct Token.Info",
              "name": "info",
              "type": "tuple"
            }
          ],
          "internalType": "struct Transfer.Receipt[]",
          "name": "_receipts",
          "type": "tuple[]"
        }
      ],
      "name": "tryBulkDepositFor",
      "outputs": [
        {
          "internalType": "bool[]",
          "name": "_executedReceipts",
          "type": "bool[]"
        }
      ],
      "stateMutability": "nonpayable",
      "type": "function"
    },
    {
      "inputs": [],
      "name": "unpause",
      "outputs": [],
      "stateMutability": "nonpayable",
      "type": "function"
    },
    {
      "inputs": [
        {
          "internalType": "uint256",
          "name": "",
          "type": "uint256"
        }
      ],
      "name": "withdrawal",
      "outputs": [
        {
          "internalType": "uint256",
          "name": "id",
          "type": "uint256"
        },
        {
          "internalType": "enum Transfer.Kind",
          "name": "kind",
          "type": "uint8"
        },
        {
          "components": [
            {
              "internalType": "address",
              "name": "addr",
              "type": "address"
            },
            {
              "internalType": "address",
              "name": "tokenAddr",
              "type": "address"
            },
            {
              "internalType": "uint256",
              "name": "chainId",
              "type": "uint256"
            }
          ],
          "internalType": "struct Token.Owner",
          "name": "mainchain",
          "type": "tuple"
        },
        {
          "components": [
            {
              "internalType": "address",
              "name": "addr",
              "type": "address"
            },
            {
              "internalType": "address",
              "name": "tokenAddr",
              "type": "address"
            },
            {
              "internalType": "uint256",
              "name": "chainId",
              "type": "uint256"
            }
          ],
          "internalType": "struct Token.Owner",
          "name": "ronin",
          "type": "tuple"
        },
        {
          "components": [
            {
              "internalType": "enum Token.Standard",
              "name": "erc",
              "type": "uint8"
            },
            {
              "internalType": "uint256",
              "name": "id",
              "type": "uint256"
            },
            {
              "internalType": "uint256",
              "name": "quantity",
              "type": "uint256"
            }
          ],
          "internalType": "struct Token.Info",
          "name": "info",
          "type": "tuple"
        }
      ],
      "stateMutability": "view",
      "type": "function"
    },
    {
      "inputs": [],
      "name": "withdrawalCount",
      "outputs": [
        {
          "internalType": "uint256",
          "name": "",
          "type": "uint256"
        }
      ],
      "stateMutability": "view",
      "type": "function"
    },
    {
      "inputs": [],
      "name": "withdrawalMigrated",
      "outputs": [
        {
          "internalType": "bool",
          "name": "",
          "type": "bool"
        }
      ],
      "stateMutability": "view",
      "type": "function"
    },
    {
      "inputs": [
        {
          "internalType": "uint256",
          "name": "",
          "type": "uint256"
        }
      ],
      "name": "withdrawalStatVote",
      "outputs": [
        {
          "internalType": "enum VoteStatusConsumer.VoteStatus",
          "name": "status",
          "type": "uint8"
        },
        {
          "internalType": "bytes32",
          "name": "finalHash",
          "type": "bytes32"
        },
        {
          "internalType": "uint256",
          "name": "expiredAt",
          "type": "uint256"
        },
        {
          "internalType": "uint256",
          "name": "createdAt",
          "type": "uint256"
        }
      ],
      "stateMutability": "view",
      "type": "function"
    },
    {
      "stateMutability": "payable",
      "type": "receive"
    }
  ],
  "transactionHash": "0x6e778eb27d0af277481042746f35a1bfa71774822fb7102cd378f27c7c6e3e00",
  "args": [],
  "numDeployments": 1,
  "solcInputHash": "69cdeb5d1a6643a104aa4e9d6c9c4474",
  "bytecode": "0x608060405234801561001057600080fd5b506000805460ff191690556152608061002a6000396000f3fe6080604052600436106102cd5760003560e01c8063835fc6ca11610175578063c28f7894116100dc578063e75235b811610095578063f668214a1161006f578063f668214a14610953578063fa38965914610973578063fc6574bc14610993578063fe90d9c2146109e5576102dc565b8063e75235b8146108c8578063ecc83649146108e0578063f0ce418e1461090d576102dc565b8063c28f7894146107e2578063ca15c87314610828578063d547741f14610848578063dafae40814610868578063dbd2ef6c14610888578063de981f1b146108a8576102dc565b80639584a5921161012e5780639584a5921461072a578063a217fddf1461074a578063affed0e01461075f578063b9afa17714610775578063b9c3620914610795578063bc7f0386146107b5576102dc565b8063835fc6ca146106645780638456cb5914610695578063865e6fd3146106aa5780639010d07c146106ca57806391d14854146106ea578063931ec9871461070a576102dc565b80633f4ba83a116102345780635cd8a76b116101ed57806371706cbe116101c757806371706cbe1461060457806375535f861461061a5780637657990e1461063a5780637de5dedd1461064f576102dc565b80635cd8a76b146105a25780635d6a9a90146105b757806364363f78146105e4576102dc565b80633f4ba83a146104ba57806347b56b2c146104cf5780634d92c4f0146104ef5780634f2717c7146105505780635a7dd06a1461056a5780635c975abb1461058a576102dc565b8063248a9ca311610286578063248a9ca3146103e75780632f2ff15d1461042557806336568abe146104455780633b5afc22146104655780633e4574ec1461047a5780633e70838b1461049a576102dc565b806301ffc9a7146102e4578063065b3adf146103195780630b1ff17f14610351578063109679ef1461037157806317892f961461039157806317fa2ea1146103ba576102dc565b366102dc576102da610a07565b005b6102da610a07565b3480156102f057600080fd5b506103046102ff366004613f31565b610a20565b60405190151581526020015b60405180910390f35b34801561032557600080fd5b50600554610339906001600160a01b031681565b6040516001600160a01b039091168152602001610310565b34801561035d57600080fd5b506102da61036c366004613f5b565b610a4b565b34801561037d57600080fd5b506102da61038c366004613f8c565b610a62565b34801561039d57600080fd5b506078546079545b60408051928352602083019190915201610310565b3480156103c657600080fd5b506103da6103d5366004613fe9565b610b0f565b604051610310919061402a565b3480156103f357600080fd5b50610417610402366004614070565b6000908152606b602052604090206001015490565b604051908152602001610310565b34801561043157600080fd5b506102da6104403660046140a9565b610e5a565b34801561045157600080fd5b506102da6104603660046140a9565b610e84565b34801561047157600080fd5b506102da610f03565b34801561048657600080fd5b506103046104953660046140a9565b610f8c565b3480156104a657600080fd5b506102da6104b53660046140d9565b610fbc565b3480156104c657600080fd5b506102da610fe6565b3480156104db57600080fd5b506102da6104ea366004614070565b610ff8565b3480156104fb57600080fd5b5061054061050a3660046140f6565b606f602090815260009283526040808420909152908252902080546001820154600383015460049093015460ff90921692909184565b604051610310949392919061412e565b34801561055c57600080fd5b50606d546103049060ff1681565b34801561057657600080fd5b506102da6105853660046141a2565b6111cf565b34801561059657600080fd5b5060005460ff16610304565b3480156105ae57600080fd5b506102da611234565b3480156105c357600080fd5b506105d76105d23660046141ed565b611336565b6040516103109190614229565b3480156105f057600080fd5b506102da6105ff366004614255565b6113da565b34801561061057600080fd5b50610417606e5481565b34801561062657600080fd5b506103a56106353660046140f6565b611410565b34801561064657600080fd5b50610417611431565b34801561065b57600080fd5b50610417611448565b34801561067057600080fd5b5061068461067f366004614070565b61145a565b604051610310959493929190614309565b3480156106a157600080fd5b506102da61152c565b3480156106b657600080fd5b506102da6106c5366004614357565b61153c565b3480156106d657600080fd5b506103396106e53660046140f6565b611557565b3480156106f657600080fd5b506103046107053660046140a9565b61156f565b34801561071657600080fd5b506102da610725366004614383565b61159a565b34801561073657600080fd5b506102da6107453660046143cd565b611717565b34801561075657600080fd5b50610417600081565b34801561076b57600080fd5b5061041760045481565b34801561078157600080fd5b506103da6107903660046144c6565b6118b8565b3480156107a157600080fd5b506103a56107b03660046140f6565b611a57565b3480156107c157600080fd5b506104176107d03660046140d9565b60386020526000908152604090205481565b3480156107ee57600080fd5b506105406107fd366004614070565b607660205260009081526040902080546001820154600383015460049093015460ff90921692909184565b34801561083457600080fd5b50610417610843366004614070565b611a6c565b34801561085457600080fd5b506102da6108633660046140a9565b611a83565b34801561087457600080fd5b50610304610883366004614070565b611aa8565b34801561089457600080fd5b506102da6108a336600461453b565b611ad4565b3480156108b457600080fd5b506103396108c33660046145fe565b611b26565b3480156108d457600080fd5b506001546002546103a5565b3480156108ec57600080fd5b506109006108fb366004614619565b611ba1565b60405161031091906146b4565b34801561091957600080fd5b50610540610928366004614070565b607060205260009081526040902080546001820154600383015460049093015460ff90921692909184565b34801561095f57600080fd5b5061030461096e366004614070565b611d08565b34801561097f57600080fd5b506102da61098e366004614255565b611d36565b34801561099f57600080fd5b506103046109ae366004614716565b6000928352606f602090815260408085209385529281528284206001600160a01b0392909216845260029091019052902054151590565b3480156109f157600080fd5b5061041760008051602061523483398151915281565b60405163129c2ce160e31b815260040160405180910390fd5b60006001600160e01b03198216635a05180f60e01b1480610a455750610a4582611f3d565b92915050565b610a53611f72565b610a5e823383611fb8565b5050565b610a6a611f72565b610a72612090565b33610a9b610a853684900384018461485d565b82610a8e611448565b610a96611431565b612131565b610aa56003611b26565b60405163c7c4fea960e01b81526001600160a01b03919091169063c7c4fea990610ad99060009086359086906004016148fe565b600060405180830381600087803b158015610af357600080fd5b505af1158015610b07573d6000803e3d6000fd5b505050505050565b6060610b19612090565b336000610b24611448565b90506000610b30611431565b90506000856001600160401b03811115610b4c57610b4c61474f565b604051908082528060200260200182016040528015610b75578160200160208202803683370190505b5094506000610b846003611b26565b905060005b87811015610e4e57888882818110610ba357610ba361492b565b905060200201359250816001600160a01b031663c7c4fea9600285896040518463ffffffff1660e01b8152600401610bdd939291906148fe565b600060405180830381600087803b158015610bf757600080fd5b505af1158015610c0b573d6000803e3d6000fd5b50505050610c1883611d08565b15610c46576001878281518110610c3157610c3161492b565b91151560209283029190910190910152610e46565b600083815260706020908152604080832060718352818420825160a081019093528054835260018082015492959491929184019160ff1690811115610c8d57610c8d614118565b6001811115610c9e57610c9e614118565b8152604080516060808201835260028501546001600160a01b039081168352600386015481166020848101919091526004870154848601528086019390935283518083018552600587015482168152600687015490911692810192909252600785015482840152828401919091528151808201909252600884018054919093019290829060ff166001811115610d3657610d36614118565b6001811115610d4757610d47614118565b81526001820154602082015260029091015460409091015290525090506000610d6f826123d5565b90506000610d80848b8b8b8661249f565b90506001816004811115610d9657610d96614118565b03610e4157835460ff19166002908117855560405163114fc47560e11b81526001600160a01b0388169163229f88ea91610dd591908b90600401614941565b600060405180830381600087803b158015610def57600080fd5b505af1158015610e03573d6000803e3d6000fd5b505050507f62520d049932cdee872e9b3c59c0f6073637147e5e9bc8b050b062430eaf5c9f8284604051610e3892919061495c565b60405180910390a15b505050505b600101610b89565b50505050505092915050565b6000828152606b6020526040902060010154610e75816124d8565b610e7f83836124e5565b505050565b6001600160a01b0381163314610ef95760405162461bcd60e51b815260206004820152602f60248201527f416363657373436f6e74726f6c3a2063616e206f6e6c792072656e6f756e636560448201526e103937b632b9903337b91039b2b63360891b60648201526084015b60405180910390fd5b610a5e8282612507565b610f0e60003361156f565b80610f2c5750610f2c6000805160206152348339815191523361156f565b610f59576000356001600160e01b0319166005604051620f948f60ea1b8152600401610ef09291906149bd565b606d5460ff1615610f7d5760405163173492af60e31b815260040160405180910390fd5b606d805460ff19166001179055565b60008281526070602090815260408083206001600160a01b038516845260020190915281205415155b9392505050565b610fc4612529565b600580546001600160a01b0319166001600160a01b0392909216919091179055565b610fee612583565b610ff66125f2565b565b611000611f72565b61100981611d08565b15611027576040516327ddf84960e11b815260040160405180910390fd5b6000818152607160209081526040808320815160a0810190925280548252600180820154929391929184019160ff169081111561106657611066614118565b600181111561107757611077614118565b8152604080516060808201835260028501546001600160a01b039081168352600386015481166020848101919091526004870154848601528086019390935283518083018552600587015482168152600687015490911692810192909252600785015482840152828401919091528151808201909252600884018054919093019290829060ff16600181111561110f5761110f614118565b600181111561112057611120614118565b81526001820154602082015260029091015460409182015291526060830151015191925050461461118a576060810151604090810151905163092048d160e11b81526001600160e01b03196000351660048201526024810191909152466044820152606401610ef0565b7f04e8cbd836dea43a2dc7eb19de345cca3a8e6978a2ef5225d924775500f67c7c6111b4826123d5565b826040516111c392919061495c565b60405180910390a15050565b6111d7611f72565b60008290036111f9576040516316ee9d3b60e11b815260040160405180910390fd5b60005b8281101561122e576112268484838181106112195761121961492b565b905060a002013384611fb8565b6001016111fc565b50505050565b603754600290610100900460ff16158015611256575060375460ff8083169116105b6112725760405162461bcd60e51b8152600401610ef0906149de565b6037805461ffff191660ff83161761010017905560745461129e906008906001600160a01b0316612644565b6075546112b6906003906001600160a01b0316612644565b6077546112ce90600a906001600160a01b0316612644565b607480546001600160a01b031990811690915560758054821690556077805490911690556037805461ff001916905560405160ff821681527f7f26b83ff96e1f2b6a682f133852f6798a09c465da95921460cefb38474024989060200160405180910390a150565b604080518082018252600080825260208083018290526001600160a01b038616825260738152838220858352905282902082518084019093528054919291829060ff16600181111561138a5761138a614118565b600181111561139b5761139b614118565b815290546001600160a01b0361010090910481166020928301529082015191925016610a4557604051631b79f53b60e21b815260040160405180910390fd5b6113e2612529565b6000839003611404576040516316ee9d3b60e11b815260040160405180910390fd5b61122e848484846126e8565b60008061141b612529565b61142584846127cb565b915091505b9250929050565b600061144361143e612856565b6128c3565b905090565b60006114436114556128f9565b612942565b607160209081526000918252604091829020805460018083015485516060808201885260028601546001600160a01b03908116835260038701548116838901526004870154838a015288518083018a526005880154821681526006880154909116978101979097526007860154878901528751908101909752600885018054949760ff9384169792969295929490939192849216908111156114fe576114fe614118565b600181111561150f5761150f614118565b815260200160018201548152602001600282015481525050905085565b611534612583565b610ff661295a565b611544612529565b61154d81612997565b610a5e8282612644565b6000828152606c60205260408120610fb590836129cd565b6000918252606b602090815260408084206001600160a01b0393909316845291905290205460ff1690565b6000805160206152348339815191526115b2816124d8565b606d5460ff16156115d65760405163173492af60e31b815260040160405180910390fd5b81841480156115e457508315155b61160f576000356001600160e01b0319166040516306b5667560e21b8152600401610ef09190614a2c565b60005b84811015610b075760006116508787848181106116315761163161492b565b905060a00201602001602081019061164991906140d9565b6001611336565b8051909150600181111561166657611666614118565b8787848181106116785761167861492b565b61169192606060a0909202019081019150604001614a41565b60018111156116a2576116a2614118565b146116bf5760405162035e2b60ea1b815260040160405180910390fd5b61170d8787848181106116d4576116d461492b565b905060a0020160018787868181106116ee576116ee61492b565b905060200201602081019061170391906140d9565b84602001516129d9565b5050600101611612565b603754610100900460ff16158080156117375750603754600160ff909116105b806117515750303b158015611751575060375460ff166001145b61176d5760405162461bcd60e51b8152600401610ef0906149de565b6037805460ff191660011790558015611790576037805461ff0019166101001790555b61179b60008d612b63565b6117a58b8b612b6d565b50506117b189896127cb565b50600090506117c08680614a5e565b90501115611812576117f36117d58680614a5e565b6117e26020890189614a5e565b6117ec8980614a5e565b8989612bf9565b6118126118008680614a5e565b61180d6020880188614a5e565b6126e8565b60005b868110156118635761185b6000805160206152348339815191528989848181106118415761184161492b565b905060200201602081019061185691906140d9565b6124e5565b600101611815565b5080156118aa576037805461ff0019169055604051600181527f7f26b83ff96e1f2b6a682f133852f6798a09c465da95921460cefb38474024989060200160405180910390a15b505050505050505050505050565b60606118c2611f72565b6118ca612090565b336118d3613ec4565b836001600160401b038111156118eb576118eb61474f565b604051908082528060200260200182016040528015611914578160200160208202803683370190505b5092506000611921611448565b9050600061192d611431565b9050600061193b6003611b26565b905060005b87811015610e4e5788888281811061195a5761195a61492b565b90506101600201803603810190611971919061485d565b805160405163c7c4fea960e01b81529196506001600160a01b0384169163c7c4fea9916119a691600091908b906004016148fe565b600060405180830381600087803b1580156119c057600080fd5b505af11580156119d4573d6000803e3d6000fd5b50600292506119e1915050565b6040808701518101516000908152606f6020908152828220895183529052205460ff166004811115611a1557611a15614118565b03611a43576001878281518110611a2e57611a2e61492b565b91151560209283029190910190910152611a4f565b611a4f85878686612131565b600101611940565b600080611a62612529565b6114258484612b6d565b6000818152606c60205260408120610a4590612e14565b6000828152606b6020526040902060010154611a9e816124d8565b610e7f8383612507565b6000611ab26128f9565b600154611abf9190614abd565b600254611acc9084614abd565b101592915050565b611adc612529565b6000879003611b0c576000356001600160e01b0319166040516306b5667560e21b8152600401610ef09190614a2c565b611b1c8888888888888888612bf9565b5050505050505050565b60007fdea3103d22025c269050bea94c0c84688877f12fa22b7e6d2d5d78a9a49aa1cb600083600a811115611b5d57611b5d614118565b60ff1681526020810191909152604001600020546001600160a01b0316905080611b9c578160405163409140df60e11b8152600401610ef09190614ad4565b919050565b6060816001600160401b03811115611bbb57611bbb61474f565b604051908082528060200260200182016040528015611bee57816020015b6060815260200190600190039081611bd95790505b50905060005b82811015611d0057600085815260726020526040812090858584818110611c1d57611c1d61492b565b9050602002016020810190611c3291906140d9565b6001600160a01b03166001600160a01b031681526020019081526020016000208054611c5d90614aee565b80601f0160208091040260200160405190810160405280929190818152602001828054611c8990614aee565b8015611cd65780601f10611cab57610100808354040283529160200191611cd6565b820191906000526020600020905b815481529060010190602001808311611cb957829003601f168201915b5050505050828281518110611ced57611ced61492b565b6020908102919091010152600101611bf4565b509392505050565b6000600260008381526070602052604090205460ff166004811115611d2f57611d2f614118565b1492915050565b611d3e611f72565b611d46612090565b338315801590611d5557508382145b611d80576000356001600160e01b0319166040516306b5667560e21b8152600401610ef09190614a2c565b6000611d8a611448565b90506000611d96611431565b9050600080611da56003611b26565b905060005b88811015611f3157898982818110611dc457611dc461492b565b905060200201359250878782818110611ddf57611ddf61492b565b9050602002810190611df19190614b22565b60008581526072602090815260408083206001600160a01b038c168452909152902091611e1f919083614bae565b5060405163c7c4fea960e01b81526001600160a01b0383169063c7c4fea990611e519060019087908b906004016148fe565b600060405180830381600087803b158015611e6b57600080fd5b505af1158015611e7f573d6000803e3d6000fd5b50505060008481526076602052604081209150611e9f828989898961249f565b90506001816004811115611eb557611eb5614118565b03611f2757815460ff1916600217825560405163114fc47560e11b81526001600160a01b0385169063229f88ea90611ef4906001908990600401614941565b600060405180830381600087803b158015611f0e57600080fd5b505af1158015611f22573d6000803e3d6000fd5b505050505b5050600101611daa565b50505050505050505050565b60006001600160e01b03198216637965db0b60e01b1480610a4557506301ffc9a760e01b6001600160e01b0319831614610a45565b60005460ff1615610ff65760405162461bcd60e51b815260206004820152601060248201526f14185d5cd8589b194e881c185d5cd95960821b6044820152606401610ef0565b611fd2611fcd36859003850160408601614c6d565b612e1e565b611fdb83612e99565b6000611ff6611ff060408601602087016140d9565b83611336565b8051909150600181111561200c5761200c614118565b61201c6060860160408701614a41565b600181111561202d5761202d614118565b1461204a5760405162035e2b60ea1b815260040160405180910390fd5b612079833061205f60408801602089016140d9565b61207136899003890160408a01614c6d565b929190612f17565b61208984838584602001516129d9565b5050505050565b61209a6008611b26565b604051635a02d57960e11b81523360048201526001600160a01b03919091169063b405aaf290602401602060405180830381865afa1580156120e0573d6000803e3d6000fd5b505050506040513d601f19601f820116820180604052508101906121049190614c89565b610ff6576000356001600160e01b0319166006604051620f948f60ea1b8152600401610ef09291906149bd565b8351608085015161214190612e1e565b60008560200151600181111561215957612159614118565b146121775760405163182f3d8760e11b815260040160405180910390fd5b46856060015160400151146121c5576060850151604090810151905163092048d160e11b81526001600160e01b03196000351660048201526024810191909152466044820152606401610ef0565b60006121e1866060015160200151876040015160400151611336565b60808701515190915060018111156121fb576121fb614118565b8151600181111561220e5761220e614118565b14801561223857508560400151602001516001600160a01b031681602001516001600160a01b0316145b6122555760405163f4b8742f60e01b815260040160405180910390fd5b6040808701518101516000908152606f602090815282822085835290529081209061227f886123d5565b90506000612290838989898661249f565b905088604001516040015185896001600160a01b03167f48c4262ed68beb92fe5d7d48d70772e49cd50c317937dea60a99f15f794b6459856040516122d791815260200190565b60405180910390a460018160048111156122f3576122f3614118565b036123ca57825460ff191660021783556060890151805160209091015160808b01516123229290916000613116565b61232c6003611b26565b895160405163114fc47560e11b81526001600160a01b03929092169163229f88ea9161235e9160009190600401614941565b600060405180830381600087803b15801561237857600080fd5b505af115801561238c573d6000803e3d6000fd5b505050507f8d20d8121a34dded9035ff5b43e901c142824f7a22126392992c353c37890524828a6040516123c192919061495c565b60405180910390a15b505050505050505050565b6000806123e58360400151613432565b905060006123f68460600151613432565b9050600061244a8560800151604080517f1e2b74b2a792d5c0f0b6e59b037fa9d43d84fbb759337f0112fcc15ca414fc8d815282516020808301919091528301518183015291015160608201526080902090565b604080517fb9d1fe7c9deeec5dc90a2f47ff1684239519f2545b2228d3d91fb27df3189eea815287516020808301919091529097015190870152606086019390935250608084015260a08301525060c0902090565b60006124ac86868461347a565b6000806124b98885613530565b90925090506124cc888784888589613702565b98975050505050505050565b6124e2813361375e565b50565b6124ef82826137c2565b6000828152606c60205260409020610e7f9082613848565b612511828261385d565b6000828152606c60205260409020610e7f90826138c4565b7fb53127684a568b3173ae13b9f8a6016e243e63b6e8ee1178d6a717850b5d6103546001600160a01b03163314610ff6576000356001600160e01b0319166001604051620f948f60ea1b8152600401610ef09291906149bd565b7fb53127684a568b3173ae13b9f8a6016e243e63b6e8ee1178d6a717850b5d6103546001600160a01b03163314806125c557506005546001600160a01b031633145b610ff6576000356001600160e01b0319166001604051620f948f60ea1b8152600401610ef09291906149bd565b6125fa6138d9565b6000805460ff191690557f5db9ee0a495bf2e6ff9c91a7834c1ba4fdd244a5e8aa4e537bd38aeae4b073aa335b6040516001600160a01b03909116815260200160405180910390a1565b807fdea3103d22025c269050bea94c0c84688877f12fa22b7e6d2d5d78a9a49aa1cb600084600a81111561267a5761267a614118565b60ff168152602081019190915260400160002080546001600160a01b0319166001600160a01b03928316179055811682600a8111156126bb576126bb614118565b6040517f865d1c228a8ea13709cfe61f346f7ff67f1bbd4a18ff31ad3e7147350d317c5990600090a35050565b828114612716576000356001600160e01b0319166040516306b5667560e21b8152600401610ef09190614a2c565b60005b83811015612787578282828181106127335761273361492b565b90506020020135603860008787858181106127505761275061492b565b905060200201602081019061276591906140d9565b6001600160a01b03168152602081019190915260400160002055600101612719565b507f6f52f53a938df83439fa4c6055c7df0a6906d621aa6dfa4708187037fdfc41da848484846040516127bd9493929190614d26565b60405180910390a150505050565b600080828411156127ef5760405163964a4d2760e01b815260040160405180910390fd5b505060018054600254607885905560798490556004805493840190556040805183815260208101839052929391928592879290917feac82d4d949d2d4f77f96aa68ab6b1bb750da73f14e55d41a1b93f387471ecba91015b60405180910390a49250929050565b6000612862600a611b26565b6001600160a01b031663cacf8fb56040518163ffffffff1660e01b8152600401602060405180830381865afa15801561289f573d6000803e3d6000fd5b505050506040513d601f19601f820116820180604052508101906114439190614d58565b60006079546001607954846078546128db9190614abd565b6128e59190614d71565b6128ef9190614d84565b610a459190614d97565b60006129056008611b26565b6001600160a01b031663562d53046040518163ffffffff1660e01b8152600401602060405180830381865afa15801561289f573d6000803e3d6000fd5b60006002546001600254846001546128db9190614abd565b612962611f72565b6000805460ff191660011790557f62e78cea01bee320cd4e420270b5ea74000d11b0c9f74754ebdbfc544b05a2586126273390565b806001600160a01b03163b6000036124e257604051630bfc64a360e21b81526001600160a01b0382166004820152602401610ef0565b6000610fb58383613922565b606e8054600091826129ea83614db9565b9091555090506000612a1184838588612a08368c90038c018c614dd2565b9392919061394c565b60008381526071602090815260409091208251815590820151600180830180549495508594909160ff19909116908381811115612a5057612a50614118565b021790555060408281015180516002840180546001600160a01b039283166001600160a01b03199182161790915560208084015160038701805491851691841691909117905592840151600486015560608601518051600587018054918516918416919091179055928301516006860180549190931691161790550151600782015560808201518051600883018054909190829060ff191660018381811115612afb57612afb614118565b0217905550602082015181600101556040820151816002015550509050507ff313c253a5be72c29d0deb2c8768a9543744ac03d6b3cafd50cc976f1c2632fc612b43826123d5565b82604051612b5292919061495c565b60405180910390a150949350505050565b610a5e82826124e5565b60008082841115612b9f576000356001600160e01b0319166040516387f6f09560e01b8152600401610ef09190614a2c565b50506001805460028054858455908490556004805493840190556040805183815260208101839052929391928592879290917f976f8a9c5bdf8248dec172376d6e2b80a8e3df2f0328e381c6db8e1cf138c0f89101612847565b8685148015612c0757508683145b612c32576000356001600160e01b0319166040516306b5667560e21b8152600401610ef09190614a2c565b60005b87811015612dc457868682818110612c4f57612c4f61492b565b9050602002016020810190612c6491906140d9565b607360008b8b85818110612c7a57612c7a61492b565b9050602002016020810190612c8f91906140d9565b6001600160a01b03166001600160a01b031681526020019081526020016000206000878785818110612cc357612cc361492b565b90506020020135815260200190815260200160002060000160016101000a8154816001600160a01b0302191690836001600160a01b03160217905550828282818110612d1157612d1161492b565b9050602002016020810190612d269190614a41565b607360008b8b85818110612d3c57612d3c61492b565b9050602002016020810190612d5191906140d9565b6001600160a01b03166001600160a01b031681526020019081526020016000206000878785818110612d8557612d8561492b565b60209081029290920135835250810191909152604001600020805460ff191660018381811115612db757612db7614118565b0217905550600101612c35565b507f2544bff60c6d5b84946e06804af9f84e150bbee85238dbdee79efca4e0adf4018888888888888888604051612e02989796959493929190614e25565b60405180910390a15050505050505050565b6000610a45825490565b600081516001811115612e3357612e33614118565b148015612e44575060008160400151115b8015612e5257506020810151155b80612e7c5750600181516001811115612e6d57612e6d614118565b148015612e7c57506040810151155b6124e25760405163034992a760e51b815260040160405180910390fd5b6000612eab6060830160408401614a41565b6001811115612ebc57612ebc614118565b148015612ef9575060386000612ed860408401602085016140d9565b6001600160a01b031681526020810191909152604001600020546080820135105b156124e257604051636eff4a8560e11b815260040160405180910390fd5b600060608186516001811115612f2f57612f2f614118565b0361300c5760408681015181516001600160a01b038881166024830152878116604483015260648083019390935283518083039093018352608490910183526020820180516001600160e01b03166323b872dd60e01b179052915191851691612f989190614eb4565b6000604051808303816000865af19150503d8060008114612fd5576040519150601f19603f3d011682016040523d82523d6000602084013e612fda565b606091505b5090925090508180156130055750805115806130055750808060200190518101906130059190614c89565b91506130f0565b60018651600181111561302157613021614118565b036130d757602086810151604080516001600160a01b0389811660248301528881166044830152606480830194909452825180830390940184526084909101825292820180516001600160e01b03166323b872dd60e01b179052519185169161308a9190614eb4565b6000604051808303816000865af19150503d80600081146130c7576040519150601f19603f3d011682016040523d82523d6000602084013e6130cc565b606091505b5050809250506130f0565b6040516361e411a760e11b815260040160405180910390fd5b81610b075785858585604051639d2e4c6760e01b8152600401610ef09493929190614ed0565b6000816001600160a01b0316836001600160a01b0316036131c55760408086015190516001600160a01b0386169180156108fc02916000818181858888f193505050506131c057816001600160a01b031663d0e30db086604001516040518263ffffffff1660e01b81526004016000604051808303818588803b15801561319c57600080fd5b505af11580156131b0573d6000803e3d6000fd5b50505050506131c08585856139b8565b612089565b6000855160018111156131da576131da614118565b03613343576040516370a0823160e01b81523060048201526000906001600160a01b038516906370a0823190602401602060405180830381865afa158015613226573d6000803e3d6000fd5b505050506040513d601f19601f8201168201806040525081019061324a9190614d58565b9050856040015181101561333257836001600160a01b03166340c10f19308389604001516132789190614d84565b6040516001600160a01b03909216602483015260448201526064016040516020818303038152906040529060e01b6020820180516001600160e01b0383818316178352505050506040516132cc9190614eb4565b6000604051808303816000865af19150503d8060008114613309576040519150601f19603f3d011682016040523d82523d6000602084013e61330e565b606091505b5050809250508161333257604051632f739fff60e11b815260040160405180910390fd5b61333d8686866139b8565b50612089565b60018551600181111561335857613358614118565b036130d75761336c83858760200151613a36565b6131c057602085810151604080516001600160a01b038881166024830152604480830194909452825180830390940184526064909101825292820180516001600160e01b03166340c10f1960e01b17905251918516916133cc9190614eb4565b6000604051808303816000865af19150503d8060008114613409576040519150601f19603f3d011682016040523d82523d6000602084013e61340e565b606091505b505080915050806131c05760405163c8e3a09f60e01b815260040160405180910390fd5b604080517f353bdd8d69b9e3185b3972e08b03845c0c14a21a390215302776a7a34b0e8764815282516020808301919091528301518183015291015160608201526080902090565b60008360030154118015613492575042836003015411155b156134a357825460ff191660041783555b6001600160a01b0382166000908152600284016020526040902054156134e75760405163025fd59560e41b81526001600160a01b0383166004820152602401610ef0565b6001600160a01b039091166000818152600284016020908152604082209390935560059093018054600181018255908452919092200180546001600160a01b0319169091179055565b60008060008060006135426008611b26565b6001600160a01b031663b7ab4db56040518163ffffffff1660e01b8152600401600060405180830381865afa15801561357f573d6000803e3d6000fd5b505050506040513d6000823e601f3d908101601f191682016040526135a79190810190614f9d565b92509250925060006135b9600a611b26565b6001600160a01b031663520fce62856040518263ffffffff1660e01b81526004016135e49190615088565b600060405180830381865afa158015613601573d6000803e3d6000fd5b505050506040513d6000823e601f3d908101601f1916820160405261362991908101906150c9565b905060005b83518110156136f65761366d600284838151811061364e5761364e61492b565b6020026020010151600381111561366757613667614118565b90613ae1565b80156136b857508789600201600086848151811061368d5761368d61492b565b60200260200101516001600160a01b03166001600160a01b0316815260200190815260200160002054145b156136ee57868060010197505060008282815181106136d9576136d961492b565b602002602001015111156136ee576001909501945b60010161362e565b50505050509250929050565b60008585101580156137145750838310155b801561373557506000875460ff16600481111561373357613733614118565b145b1561374d57865460ff19166001908117885587018290555b50855460ff165b9695505050505050565b613768828261156f565b610a5e57613780816001600160a01b03166014613b14565b61378b836020613b14565b60405160200161379c92919061514e565b60408051601f198184030181529082905262461bcd60e51b8252610ef0916004016151c3565b6137cc828261156f565b610a5e576000828152606b602090815260408083206001600160a01b03851684529091529020805460ff191660011790556138043390565b6001600160a01b0316816001600160a01b0316837f2f8788117e7eff1d82e926ec794901d17c78024a50270940304540a733656f0d60405160405180910390a45050565b6000610fb5836001600160a01b038416613caf565b613867828261156f565b15610a5e576000828152606b602090815260408083206001600160a01b0385168085529252808320805460ff1916905551339285917ff6391f5c32d9c69d2a47ea670b442974b53935d1edc7fd64eb21e047a839171b9190a45050565b6000610fb5836001600160a01b038416613cfe565b60005460ff16610ff65760405162461bcd60e51b815260206004820152601460248201527314185d5cd8589b194e881b9bdd081c185d5cd95960621b6044820152606401610ef0565b60008260000182815481106139395761393961492b565b9060005260206000200154905092915050565b613954613ec4565b92835260016020808501919091526060840180516001600160a01b0396871690528682015181519087169083015251466040918201528651818601805191881690915280519490961693909101929092529251810192909252910151608082015290565b600080845160018111156139ce576139ce614118565b036139e9576139e282848660400151613df1565b9050613a12565b6001845160018111156139fe576139fe614118565b036130d7576139e282848660200151613a36565b8061122e578383836040516341bd7d9160e11b8152600401610ef0939291906151d6565b604080513060248201526001600160a01b038481166044830152606480830185905283518084039091018152608490920183526020820180516001600160e01b03166323b872dd60e01b1790529151600092861691613a9491614eb4565b6000604051808303816000865af19150503d8060008114613ad1576040519150601f19603f3d011682016040523d82523d6000602084013e613ad6565b606091505b509095945050505050565b6000816003811115613af557613af5614118565b836003811115613b0757613b07614118565b1660ff1615159392505050565b60606000613b23836002614abd565b613b2e906002614d71565b6001600160401b03811115613b4557613b4561474f565b6040519080825280601f01601f191660200182016040528015613b6f576020820181803683370190505b509050600360fc1b81600081518110613b8a57613b8a61492b565b60200101906001600160f81b031916908160001a905350600f60fb1b81600181518110613bb957613bb961492b565b60200101906001600160f81b031916908160001a9053506000613bdd846002614abd565b613be8906001614d71565b90505b6001811115613c60576f181899199a1a9b1b9c1cb0b131b232b360811b85600f1660108110613c1c57613c1c61492b565b1a60f81b828281518110613c3257613c3261492b565b60200101906001600160f81b031916908160001a90535060049490941c93613c5981615206565b9050613beb565b508315610fb55760405162461bcd60e51b815260206004820181905260248201527f537472696e67733a20686578206c656e67746820696e73756666696369656e746044820152606401610ef0565b6000818152600183016020526040812054613cf657508154600181810184556000848152602080822090930184905584548482528286019093526040902091909155610a45565b506000610a45565b60008181526001830160205260408120548015613de7576000613d22600183614d84565b8554909150600090613d3690600190614d84565b9050818114613d9b576000866000018281548110613d5657613d5661492b565b9060005260206000200154905080876000018481548110613d7957613d7961492b565b6000918252602080832090910192909255918252600188019052604090208390555b8554869080613dac57613dac61521d565b600190038181906000526020600020016000905590558560010160008681526020019081526020016000206000905560019350505050610a45565b6000915050610a45565b604080516001600160a01b038481166024830152604480830185905283518084039091018152606490920183526020820180516001600160e01b031663a9059cbb60e01b179052915160009260609290871691613e4e9190614eb4565b6000604051808303816000865af19150503d8060008114613e8b576040519150601f19603f3d011682016040523d82523d6000602084013e613e90565b606091505b509092509050818015613ebb575080511580613ebb575080806020019051810190613ebb9190614c89565b95945050505050565b6040805160a08101825260008082526020808301829052835160608082018652838252818301849052818601849052848601919091528451808201865283815280830184905280860184905281850152845190810185528281529081018290529283015290608082015290565b600060208284031215613f4357600080fd5b81356001600160e01b031981168114610fb557600080fd5b60008082840360c0811215613f6f57600080fd5b60a0811215613f7d57600080fd5b50919360a08501359350915050565b60006101608284031215613f9f57600080fd5b50919050565b60008083601f840112613fb757600080fd5b5081356001600160401b03811115613fce57600080fd5b6020830191508360208260051b850101111561142a57600080fd5b60008060208385031215613ffc57600080fd5b82356001600160401b0381111561401257600080fd5b61401e85828601613fa5565b90969095509350505050565b6020808252825182820181905260009190848201906040850190845b81811015614064578351151583529284019291840191600101614046565b50909695505050505050565b60006020828403121561408257600080fd5b5035919050565b6001600160a01b03811681146124e257600080fd5b8035611b9c81614089565b600080604083850312156140bc57600080fd5b8235915060208301356140ce81614089565b809150509250929050565b6000602082840312156140eb57600080fd5b8135610fb581614089565b6000806040838503121561410957600080fd5b50508035926020909101359150565b634e487b7160e01b600052602160045260246000fd5b608081016005861061414257614142614118565b9481526020810193909352604083019190915260609091015290565b60008083601f84011261417057600080fd5b5081356001600160401b0381111561418757600080fd5b60208301915083602060a08302850101111561142a57600080fd5b6000806000604084860312156141b757600080fd5b83356001600160401b038111156141cd57600080fd5b6141d98682870161415e565b909790965060209590950135949350505050565b6000806040838503121561420057600080fd5b823561420b81614089565b946020939093013593505050565b600281106124e2576124e2614118565b8151604082019061423981614219565b82526020928301516001600160a01b0316929091019190915290565b6000806000806040858703121561426b57600080fd5b84356001600160401b038082111561428257600080fd5b61428e88838901613fa5565b909650945060208701359150808211156142a757600080fd5b506142b487828801613fa5565b95989497509550505050565b80516001600160a01b03908116835260208083015190911690830152604090810151910152565b80516142f281614219565b825260208181015190830152604090810151910152565b858152610160810161431a86614219565b85602083015261432d60408301866142c0565b61433a60a08301856142c0565b6137546101008301846142e7565b8035600b8110611b9c57600080fd5b6000806040838503121561436a57600080fd5b61437383614348565b915060208301356140ce81614089565b6000806000806040858703121561439957600080fd5b84356001600160401b03808211156143b057600080fd5b61428e8883890161415e565b8060408101831015610a4557600080fd5b60008060008060008060008060008060006101208c8e0312156143ef57600080fd5b6143f88c61409e565b9a5060208c0135995060408c0135985060608c0135975060808c013596506001600160401b038060a08e0135111561442f57600080fd5b61443f8e60a08f01358f01613fa5565b909750955060c08d013581101561445557600080fd5b6144658e60c08f01358f016143bc565b94508060e08e0135111561447857600080fd5b6144888e60e08f01358f016143bc565b9350806101008e0135111561449c57600080fd5b506144ae8d6101008e01358e01613fa5565b81935080925050509295989b509295989b9093969950565b600080602083850312156144d957600080fd5b82356001600160401b03808211156144f057600080fd5b818501915085601f83011261450457600080fd5b81358181111561451357600080fd5b8660206101608302850101111561452957600080fd5b60209290920196919550909350505050565b6000806000806000806000806080898b03121561455757600080fd5b88356001600160401b038082111561456e57600080fd5b61457a8c838d01613fa5565b909a50985060208b013591508082111561459357600080fd5b61459f8c838d01613fa5565b909850965060408b01359150808211156145b857600080fd5b6145c48c838d01613fa5565b909650945060608b01359150808211156145dd57600080fd5b506145ea8b828c01613fa5565b999c989b5096995094979396929594505050565b60006020828403121561461057600080fd5b610fb582614348565b60008060006040848603121561462e57600080fd5b8335925060208401356001600160401b0381111561464b57600080fd5b61465786828701613fa5565b9497909650939450505050565b60005b8381101561467f578181015183820152602001614667565b50506000910152565b600081518084526146a0816020860160208601614664565b601f01601f19169290920160200192915050565b6000602080830181845280855180835260408601915060408160051b870101925083870160005b8281101561470957603f198886030184526146f7858351614688565b945092850192908501906001016146db565b5092979650505050505050565b60008060006060848603121561472b57600080fd5b8335925060208401359150604084013561474481614089565b809150509250925092565b634e487b7160e01b600052604160045260246000fd5b604051606081016001600160401b03811182821017156147875761478761474f565b60405290565b604051601f8201601f191681016001600160401b03811182821017156147b5576147b561474f565b604052919050565b600281106124e257600080fd5b6000606082840312156147dc57600080fd5b6147e4614765565b905081356147f181614089565b8152602082013561480181614089565b806020830152506040820135604082015292915050565b60006060828403121561482a57600080fd5b614832614765565b9050813561483f816147bd565b80825250602082013560208201526040820135604082015292915050565b6000610160828403121561487057600080fd5b60405160a081018181106001600160401b03821117156148925761489261474f565b6040528235815260208301356148a7816147bd565b60208201526148b984604085016147ca565b60408201526148cb8460a085016147ca565b60608201526148de846101008501614818565b60808201529392505050565b600381106148fa576148fa614118565b9052565b6060810161490c82866148ea565b60208201939093526001600160a01b0391909116604090910152919050565b634e487b7160e01b600052603260045260246000fd5b6040810161494f82856148ea565b8260208301529392505050565b60006101808201905083825282516020830152602083015161497d81614219565b80604084015250604083015161499660608401826142c0565b5060608301516149a960c08401826142c0565b506080830151611d006101208401826142e7565b6001600160e01b031983168152604081016009831061494f5761494f614118565b6020808252602e908201527f496e697469616c697a61626c653a20636f6e747261637420697320616c72656160408201526d191e481a5b9a5d1a585b1a5e995960921b606082015260800190565b6001600160e01b031991909116815260200190565b600060208284031215614a5357600080fd5b8135610fb5816147bd565b6000808335601e19843603018112614a7557600080fd5b8301803591506001600160401b03821115614a8f57600080fd5b6020019150600581901b360382131561142a57600080fd5b634e487b7160e01b600052601160045260246000fd5b8082028115828204841417610a4557610a45614aa7565b60208101600b8310614ae857614ae8614118565b91905290565b600181811c90821680614b0257607f821691505b602082108103613f9f57634e487b7160e01b600052602260045260246000fd5b6000808335601e19843603018112614b3957600080fd5b8301803591506001600160401b03821115614b5357600080fd5b60200191503681900382131561142a57600080fd5b601f821115610e7f57600081815260208120601f850160051c81016020861015614b8f5750805b601f850160051c820191505b81811015610b0757828155600101614b9b565b6001600160401b03831115614bc557614bc561474f565b614bd983614bd38354614aee565b83614b68565b6000601f841160018114614c0d5760008515614bf55750838201355b600019600387901b1c1916600186901b178355612089565b600083815260209020601f19861690835b82811015614c3e5786850135825560209485019460019092019101614c1e565b5086821015614c5b5760001960f88860031b161c19848701351681555b505060018560011b0183555050505050565b600060608284031215614c7f57600080fd5b610fb58383614818565b600060208284031215614c9b57600080fd5b81518015158114610fb557600080fd5b8183526000602080850194508260005b85811015614ce9578135614cce81614089565b6001600160a01b031687529582019590820190600101614cbb565b509495945050505050565b81835260006001600160fb1b03831115614d0d57600080fd5b8260051b80836020870137939093016020019392505050565b604081526000614d3a604083018688614cab565b8281036020840152614d4d818587614cf4565b979650505050505050565b600060208284031215614d6a57600080fd5b5051919050565b80820180821115610a4557610a45614aa7565b81810381811115610a4557610a45614aa7565b600082614db457634e487b7160e01b600052601260045260246000fd5b500490565b600060018201614dcb57614dcb614aa7565b5060010190565b600060a08284031215614de457600080fd5b614dec614765565b8235614df781614089565b81526020830135614e0781614089565b6020820152614e198460408501614818565b60408201529392505050565b608081526000614e39608083018a8c614cab565b602083820381850152614e4d828a8c614cab565b91508382036040850152614e6282888a614cf4565b8481036060860152858152869250810160005b86811015614ea3578335614e88816147bd565b614e9181614219565b82529282019290820190600101614e75565b509c9b505050505050505050505050565b60008251614ec6818460208701614664565b9190910192915050565b60c08101614ede82876142e7565b6001600160a01b0394851660608301529284166080820152921660a090920191909152919050565b60006001600160401b03821115614f1f57614f1f61474f565b5060051b60200190565b600082601f830112614f3a57600080fd5b81516020614f4f614f4a83614f06565b61478d565b82815260059290921b84018101918181019086841115614f6e57600080fd5b8286015b84811015614f92578051614f8581614089565b8352918301918301614f72565b509695505050505050565b600080600060608486031215614fb257600080fd5b83516001600160401b0380821115614fc957600080fd5b614fd587838801614f29565b9450602091508186015181811115614fec57600080fd5b614ff888828901614f29565b94505060408601518181111561500d57600080fd5b86019050601f8101871361502057600080fd5b805161502e614f4a82614f06565b81815260059190911b8201830190838101908983111561504d57600080fd5b928401925b828410156150795783516004811061506a5760008081fd5b82529284019290840190615052565b80955050505050509250925092565b6020808252825182820181905260009190848201906040850190845b818110156140645783516001600160a01b0316835292840192918401916001016150a4565b600060208083850312156150dc57600080fd5b82516001600160401b038111156150f257600080fd5b8301601f8101851361510357600080fd5b8051615111614f4a82614f06565b81815260059190911b8201830190838101908783111561513057600080fd5b928401925b82841015614d4d57835182529284019290840190615135565b7f416363657373436f6e74726f6c3a206163636f756e7420000000000000000000815260008351615186816017850160208801614664565b7001034b99036b4b9b9b4b733903937b6329607d1b60179184019182015283516151b7816028840160208801614664565b01602801949350505050565b602081526000610fb56020830184614688565b60a081016151e482866142e7565b6001600160a01b03938416606083015291909216608090920191909152919050565b60008161521557615215614aa7565b506000190190565b634e487b7160e01b600052603160045260246000fdfe384495a48d92b97cd9b9d199c73ed783dd1aa0076a6ebcf9156ca7fef7d2cc40a164736f6c6343000811000a",
  "devdoc": {
    "errors": {
      "ErrAlreadyVoted(address)": [
        {
          "details": "Error indicating that a voter has already voted.",
          "params": {
            "voter": "The address of the voter who has already voted."
          }
        }
      ],
      "ErrContractTypeNotFound(uint8)": [
        {
          "details": "Error of invalid role."
        }
      ],
      "ErrERC20MintingFailed()": [
        {
          "details": "Error indicating that the minting of ERC20 tokens has failed."
        }
      ],
      "ErrERC721MintingFailed()": [
        {
          "details": "Error indicating that the minting of ERC721 tokens has failed."
        }
      ],
      "ErrEmptyArray()": [
        {
          "details": "Error indicating that an array is empty when it should contain elements."
        }
      ],
      "ErrInvalidChainId(bytes4,uint256,uint256)": [
        {
          "details": "Error indicating that the chain ID is invalid.",
          "params": {
            "actual": "Current chain ID that executing function.",
            "expected": "Expected chain ID required for the tx to success.",
            "msgSig": "The function signature (bytes4) of the operation that encountered an invalid chain ID."
          }
        }
      ],
      "ErrInvalidInfo()": [
        {
          "details": "Error indicating that the provided information is invalid."
        }
      ],
      "ErrInvalidReceipt()": [
        {
          "details": "Error indicating that a receipt is invalid."
        }
      ],
      "ErrInvalidReceiptKind()": [
        {
          "details": "Error indicating that a receipt kind is invalid."
        }
      ],
      "ErrInvalidRequest()": [
        {
          "details": "Error indicating that a request is invalid."
        }
      ],
      "ErrInvalidThreshold(bytes4)": [
        {
          "details": "Error indicating that the provided threshold is invalid for a specific function signature.",
          "params": {
            "msgSig": "The function signature (bytes4) that the invalid threshold applies to."
          }
        }
      ],
      "ErrInvalidTokenStandard()": [
        {
          "details": "Error indicating that a token standard is invalid."
        }
      ],
      "ErrInvalidTrustedThreshold()": [
        {
          "details": "Error thrown when an invalid trusted threshold is specified."
        }
      ],
      "ErrLengthMismatch(bytes4)": [
        {
          "details": "Error indicating a mismatch in the length of input parameters or arrays for a specific function.",
          "params": {
            "msgSig": "The function signature (bytes4) that has a length mismatch."
          }
        }
      ],
      "ErrQueryForTooSmallQuantity()": [
        {
          "details": "Throwed when the ERC20 withdrawal quantity is less than the minimum threshold."
        }
      ],
      "ErrTokenCouldNotTransfer((uint8,uint256,uint256),address,address)": [
        {
          "details": "Error indicating that the `transfer` has failed.",
          "params": {
            "to": "Receiver of the token value.",
            "token": "Address of the token.",
            "tokenInfo": "Info of the token including ERC standard, id or quantity."
          }
        }
      ],
      "ErrTokenCouldNotTransferFrom((uint8,uint256,uint256),address,address,address)": [
        {
          "details": "Error indicating that the `transferFrom` has failed.",
          "params": {
            "from": "Owner of the token value.",
            "to": "Receiver of the token value.",
            "token": "Address of the token.",
            "tokenInfo": "Info of the token including ERC standard, id or quantity."
          }
        }
      ],
      "ErrUnauthorized(bytes4,uint8)": [
        {
          "details": "Error indicating that the caller is unauthorized to perform a specific function.",
          "params": {
            "expectedRole": "The role required to perform the function.",
            "msgSig": "The function signature (bytes4) that the caller is unauthorized to perform."
          }
        }
      ],
      "ErrUnsupportedStandard()": [
        {
          "details": "Error indicating that an unsupported standard is encountered."
        }
      ],
      "ErrUnsupportedToken()": [
        {
          "details": "Error indicating that a token is not supported."
        }
      ],
      "ErrWithdrawalsMigrated()": [
        {
          "details": "Error thrown when attempting to withdraw funds that have already been migrated."
        }
      ],
      "ErrWithdrawnOnMainchainAlready()": [
        {
          "details": "Error thrown when attempting to withdraw funds that have already been withdrawn on the mainchain."
        }
      ],
      "ErrZeroCodeContract(address)": [
        {
          "details": "Error of set to non-contract."
        }
      ]
    },
    "kind": "dev",
    "methods": {
      "bulkRequestWithdrawalFor((address,address,(uint8,uint256,uint256))[],uint256)": {
        "details": "Bulk requests withdrawals. Emits the `WithdrawalRequested` events."
      },
      "bulkSubmitWithdrawalSignatures(uint256[],bytes[])": {
        "details": "Submits withdrawal signatures. Requirements: - The method caller is a validator."
      },
      "checkThreshold(uint256)": {
        "details": "Checks whether the `_voteWeight` passes the threshold."
      },
      "depositFor((uint256,uint8,(address,address,uint256),(address,address,uint256),(uint8,uint256,uint256)))": {
        "details": "Deposits based on the receipt. Requirements: - The method caller is a validator. Emits the `Deposited` once the assets are released."
      },
      "depositVoted(uint256,uint256,address)": {
        "details": "Returns whether the deposit is casted by the voter."
      },
      "getContract(uint8)": {
        "details": "Returns the address of a contract with a specific role. Throws an error if no contract is set for the specified role.",
        "params": {
          "contractType": "The role of the contract to retrieve."
        },
        "returns": {
          "contract_": "The address of the contract with the specified role."
        }
      },
      "getMainchainToken(address,uint256)": {
        "details": "Returns mainchain token address. Reverts for unsupported token."
      },
      "getRoleAdmin(bytes32)": {
        "details": "Returns the admin role that controls `role`. See {grantRole} and {revokeRole}. To change a role's admin, use {_setRoleAdmin}."
      },
      "getRoleMember(bytes32,uint256)": {
        "details": "Returns one of the accounts that have `role`. `index` must be a value between 0 and {getRoleMemberCount}, non-inclusive. Role bearers are not sorted in any particular way, and their ordering may change at any point. WARNING: When using {getRoleMember} and {getRoleMemberCount}, make sure you perform all queries on the same block. See the following https://forum.openzeppelin.com/t/iterating-over-elements-on-enumerableset-in-openzeppelin-contracts/2296[forum post] for more information."
      },
      "getRoleMemberCount(bytes32)": {
        "details": "Returns the number of accounts that have `role`. Can be used together with {getRoleMember} to enumerate all bearers of a role."
      },
      "getThreshold()": {
        "details": "Returns the threshold."
      },
      "getTrustedThreshold()": {
        "details": "Returns the threshold about trusted org."
      },
      "getWithdrawalSignatures(uint256,address[])": {
        "details": "Returns withdrawal signatures."
      },
      "grantRole(bytes32,address)": {
        "details": "Grants `role` to `account`. If `account` had not been already granted `role`, emits a {RoleGranted} event. Requirements: - the caller must have ``role``'s admin role. May emit a {RoleGranted} event."
      },
      "hasRole(bytes32,address)": {
        "details": "Returns `true` if `account` has been granted `role`."
      },
      "initialize(address,uint256,uint256,uint256,uint256,address[],address[][2],uint256[][2],uint8[])": {
        "details": "Initializes contract storage."
      },
      "mainchainWithdrew(uint256)": {
        "details": "Returns whether the withdrawal is done on mainchain."
      },
      "mainchainWithdrewVoted(uint256,address)": {
        "details": "Returns whether the mainchain withdrew is casted by the voter."
      },
      "mapTokens(address[],address[],uint256[],uint8[])": {
        "details": "Maps Ronin tokens to mainchain networks. Requirement: - The method caller is admin. - The arrays have the same length and its length larger than 0. Emits the `TokenMapped` event."
      },
      "markWithdrawalMigrated()": {
        "details": "Mark the migration as done."
      },
      "migrateWithdrawals((address,address,(uint8,uint256,uint256))[],address[])": {
        "details": "Migrates withdrawals. Requirements: - The method caller is the migrator. - The arrays have the same length and its length larger than 0."
      },
      "minimumTrustedVoteWeight()": {
        "details": "Returns the minimum trusted vote weight to pass the threshold."
      },
      "minimumVoteWeight()": {
        "details": "Returns the minimum vote weight to pass the threshold."
      },
      "pause()": {
        "details": "Triggers paused state."
      },
      "paused()": {
        "details": "Returns true if the contract is paused, and false otherwise."
      },
      "renounceRole(bytes32,address)": {
        "details": "Revokes `role` from the calling account. Roles are often managed via {grantRole} and {revokeRole}: this function's purpose is to provide a mechanism for accounts to lose their privileges if they are compromised (such as when a trusted device is misplaced). If the calling account had been revoked `role`, emits a {RoleRevoked} event. Requirements: - the caller must be `account`. May emit a {RoleRevoked} event."
      },
      "requestWithdrawalFor((address,address,(uint8,uint256,uint256)),uint256)": {
        "details": "Locks the assets and request withdrawal. Emits the `WithdrawalRequested` event."
      },
      "requestWithdrawalSignatures(uint256)": {
        "details": "Requests withdrawal signatures for a specific withdrawal. Emits the `WithdrawalSignaturesRequested` event."
      },
      "revokeRole(bytes32,address)": {
        "details": "Revokes `role` from `account`. If `account` had been granted `role`, emits a {RoleRevoked} event. Requirements: - the caller must have ``role``'s admin role. May emit a {RoleRevoked} event."
      },
      "setContract(uint8,address)": {
        "details": "Sets the address of a contract with a specific role. Emits the event {ContractUpdated}.",
        "params": {
          "addr": "The address of the contract to set.",
          "contractType": "The role of the contract to set."
        }
      },
      "setEmergencyPauser(address)": {
        "details": "Grant emergency pauser role for `_addr`."
      },
      "setMinimumThresholds(address[],uint256[])": {
        "details": "Sets the minimum thresholds to withdraw. Requirements: - The method caller is admin. - The arrays have the same length and its length larger than 0. Emits the `MinimumThresholdsUpdated` event."
      },
      "setThreshold(uint256,uint256)": {
        "details": "Sets the threshold. Requirements: - The method caller is admin. Emits the `ThresholdUpdated` event."
      },
      "supportsInterface(bytes4)": {
        "details": "See {IERC165-supportsInterface}."
      },
      "tryBulkAcknowledgeMainchainWithdrew(uint256[])": {
        "details": "Marks the withdrawals are done on mainchain and returns the boolean array indicating whether the withdrawal vote is already done before. Requirements: - The method caller is a validator. Emits the `MainchainWithdrew` once the valid call passes the quorum threshold."
      },
      "tryBulkDepositFor((uint256,uint8,(address,address,uint256),(address,address,uint256),(uint8,uint256,uint256))[])": {
        "details": "Tries bulk deposits based on the receipts and returns the boolean array indicating whether the deposit vote is already done before. Reverts if the deposit is invalid or is voted by the validator again. Requirements: - The method caller is a validator. Emits the `Deposited` once the assets are released."
      },
      "unpause()": {
        "details": "Triggers unpaused state."
      }
    },
    "stateVariables": {
      "WITHDRAWAL_MIGRATOR": {
        "details": "Withdrawal unlocker role hash"
      },
      "____deprecated0": {
        "custom:deprecated": "Previously `_validatorContract` (non-zero value)"
      },
      "____deprecated1": {
        "custom:deprecated": "Previously `_bridgeTrackingContract` (non-zero value)"
      },
      "____deprecated2": {
        "custom:deprecated": "Previously `_trustedOrgContract` (non-zero value)"
      },
      "_mainchainToken": {
        "details": "Mapping from token address => chain id => mainchain token address"
      },
      "_withdrawalSig": {
        "details": "Mapping from withdrawal id => validator address => signatures"
      },
      "depositVote": {
        "details": "Mapping from chain id => deposit id => deposit vote"
      },
      "mainchainWithdrewVote": {
        "details": "Mapping from withdrawal id => mainchain withdrew vote"
      },
      "withdrawal": {
        "details": "Mapping from withdrawal id => withdrawal receipt"
      },
      "withdrawalCount": {
        "details": "Total withdrawal"
      },
      "withdrawalMigrated": {
        "details": "Flag indicating whether the withdrawal migrate progress is done"
      },
      "withdrawalStatVote": {
        "details": "Mapping from withdrawal id => vote for recording withdrawal stats"
      }
    },
    "version": 1
  },
  "userdoc": {
    "kind": "user",
    "methods": {
      "depositFor((uint256,uint8,(address,address,uint256),(address,address,uint256),(uint8,uint256,uint256)))": {
        "notice": "The assets will be transferred whenever the valid call passes the quorum threshold."
      },
      "tryBulkAcknowledgeMainchainWithdrew(uint256[])": {
        "notice": "Not reverting to avoid unnecessary failed transactions because the validators can send transactions at the same time."
      },
      "tryBulkDepositFor((uint256,uint8,(address,address,uint256),(address,address,uint256),(uint8,uint256,uint256))[])": {
        "notice": "The assets will be transferred whenever the valid call for the receipt passes the quorum threshold. Not reverting to avoid unnecessary failed transactions because the validators can send transactions at the same time."
      }
    },
    "version": 1
  },
  "storageLayout": {
    "storage": [
      {
        "astId": 1535,
        "contract": "contracts/ronin/gateway/RoninGatewayV2.sol:RoninGatewayV2",
        "label": "_paused",
        "offset": 0,
        "slot": "0",
        "type": "t_bool"
      },
      {
        "astId": 4326,
        "contract": "contracts/ronin/gateway/RoninGatewayV2.sol:RoninGatewayV2",
        "label": "_num",
        "offset": 0,
        "slot": "1",
        "type": "t_uint256"
      },
      {
        "astId": 4328,
        "contract": "contracts/ronin/gateway/RoninGatewayV2.sol:RoninGatewayV2",
        "label": "_denom",
        "offset": 0,
        "slot": "2",
        "type": "t_uint256"
      },
      {
        "astId": 4330,
        "contract": "contracts/ronin/gateway/RoninGatewayV2.sol:RoninGatewayV2",
        "label": "______deprecated",
        "offset": 0,
        "slot": "3",
        "type": "t_address"
      },
      {
        "astId": 4332,
        "contract": "contracts/ronin/gateway/RoninGatewayV2.sol:RoninGatewayV2",
        "label": "nonce",
        "offset": 0,
        "slot": "4",
        "type": "t_uint256"
      },
      {
        "astId": 4334,
        "contract": "contracts/ronin/gateway/RoninGatewayV2.sol:RoninGatewayV2",
        "label": "emergencyPauser",
        "offset": 0,
        "slot": "5",
        "type": "t_address"
      },
      {
        "astId": 4339,
        "contract": "contracts/ronin/gateway/RoninGatewayV2.sol:RoninGatewayV2",
        "label": "______gap",
        "offset": 0,
        "slot": "6",
        "type": "t_array(t_uint256)49_storage"
      },
      {
        "astId": 1373,
        "contract": "contracts/ronin/gateway/RoninGatewayV2.sol:RoninGatewayV2",
        "label": "_initialized",
        "offset": 0,
        "slot": "55",
        "type": "t_uint8"
      },
      {
        "astId": 1376,
        "contract": "contracts/ronin/gateway/RoninGatewayV2.sol:RoninGatewayV2",
        "label": "_initializing",
        "offset": 1,
        "slot": "55",
        "type": "t_bool"
      },
      {
        "astId": 4902,
        "contract": "contracts/ronin/gateway/RoninGatewayV2.sol:RoninGatewayV2",
        "label": "minimumThreshold",
        "offset": 0,
        "slot": "56",
        "type": "t_mapping(t_address,t_uint256)"
      },
      {
        "astId": 4907,
        "contract": "contracts/ronin/gateway/RoninGatewayV2.sol:RoninGatewayV2",
        "label": "______gap",
        "offset": 0,
        "slot": "57",
        "type": "t_array(t_uint256)50_storage"
      },
      {
        "astId": 24,
        "contract": "contracts/ronin/gateway/RoninGatewayV2.sol:RoninGatewayV2",
        "label": "_roles",
        "offset": 0,
        "slot": "107",
        "type": "t_mapping(t_bytes32,t_struct(RoleData)19_storage)"
      },
      {
        "astId": 338,
        "contract": "contracts/ronin/gateway/RoninGatewayV2.sol:RoninGatewayV2",
        "label": "_roleMembers",
        "offset": 0,
        "slot": "108",
        "type": "t_mapping(t_bytes32,t_struct(AddressSet)4026_storage)"
      },
      {
        "astId": 24356,
        "contract": "contracts/ronin/gateway/RoninGatewayV2.sol:RoninGatewayV2",
        "label": "withdrawalMigrated",
        "offset": 0,
        "slot": "109",
        "type": "t_bool"
      },
      {
        "astId": 24359,
        "contract": "contracts/ronin/gateway/RoninGatewayV2.sol:RoninGatewayV2",
        "label": "withdrawalCount",
        "offset": 0,
        "slot": "110",
        "type": "t_uint256"
      },
      {
        "astId": 24367,
        "contract": "contracts/ronin/gateway/RoninGatewayV2.sol:RoninGatewayV2",
        "label": "depositVote",
        "offset": 0,
        "slot": "111",
        "type": "t_mapping(t_uint256,t_mapping(t_uint256,t_struct(Vote)12791_storage))"
      },
      {
        "astId": 24373,
        "contract": "contracts/ronin/gateway/RoninGatewayV2.sol:RoninGatewayV2",
        "label": "mainchainWithdrewVote",
        "offset": 0,
        "slot": "112",
        "type": "t_mapping(t_uint256,t_struct(Vote)12791_storage)"
      },
      {
        "astId": 24379,
        "contract": "contracts/ronin/gateway/RoninGatewayV2.sol:RoninGatewayV2",
        "label": "withdrawal",
        "offset": 0,
        "slot": "113",
        "type": "t_mapping(t_uint256,t_struct(Receipt)14152_storage)"
      },
      {
        "astId": 24386,
        "contract": "contracts/ronin/gateway/RoninGatewayV2.sol:RoninGatewayV2",
        "label": "_withdrawalSig",
        "offset": 0,
        "slot": "114",
        "type": "t_mapping(t_uint256,t_mapping(t_address,t_bytes_storage))"
      },
      {
        "astId": 24394,
        "contract": "contracts/ronin/gateway/RoninGatewayV2.sol:RoninGatewayV2",
        "label": "_mainchainToken",
        "offset": 0,
        "slot": "115",
        "type": "t_mapping(t_address,t_mapping(t_uint256,t_struct(MappedToken)10320_storage))"
      },
      {
        "astId": 24397,
        "contract": "contracts/ronin/gateway/RoninGatewayV2.sol:RoninGatewayV2",
        "label": "____deprecated0",
        "offset": 0,
        "slot": "116",
        "type": "t_address"
      },
      {
        "astId": 24400,
        "contract": "contracts/ronin/gateway/RoninGatewayV2.sol:RoninGatewayV2",
        "label": "____deprecated1",
        "offset": 0,
        "slot": "117",
        "type": "t_address"
      },
      {
        "astId": 24406,
        "contract": "contracts/ronin/gateway/RoninGatewayV2.sol:RoninGatewayV2",
        "label": "withdrawalStatVote",
        "offset": 0,
        "slot": "118",
        "type": "t_mapping(t_uint256,t_struct(Vote)12791_storage)"
      },
      {
        "astId": 24409,
        "contract": "contracts/ronin/gateway/RoninGatewayV2.sol:RoninGatewayV2",
        "label": "____deprecated2",
        "offset": 0,
        "slot": "119",
        "type": "t_address"
      },
      {
        "astId": 24411,
        "contract": "contracts/ronin/gateway/RoninGatewayV2.sol:RoninGatewayV2",
        "label": "_trustedNum",
        "offset": 0,
        "slot": "120",
        "type": "t_uint256"
      },
      {
        "astId": 24413,
        "contract": "contracts/ronin/gateway/RoninGatewayV2.sol:RoninGatewayV2",
        "label": "_trustedDenom",
        "offset": 0,
        "slot": "121",
        "type": "t_uint256"
      }
    ],
    "types": {
      "t_address": {
        "encoding": "inplace",
        "label": "address",
        "numberOfBytes": "20"
      },
      "t_array(t_address)dyn_storage": {
        "base": "t_address",
        "encoding": "dynamic_array",
        "label": "address[]",
        "numberOfBytes": "32"
      },
      "t_array(t_bytes32)dyn_storage": {
        "base": "t_bytes32",
        "encoding": "dynamic_array",
        "label": "bytes32[]",
        "numberOfBytes": "32"
      },
      "t_array(t_uint256)49_storage": {
        "base": "t_uint256",
        "encoding": "inplace",
        "label": "uint256[49]",
        "numberOfBytes": "1568"
      },
      "t_array(t_uint256)50_storage": {
        "base": "t_uint256",
        "encoding": "inplace",
        "label": "uint256[50]",
        "numberOfBytes": "1600"
      },
      "t_bool": {
        "encoding": "inplace",
        "label": "bool",
        "numberOfBytes": "1"
      },
      "t_bytes32": {
        "encoding": "inplace",
        "label": "bytes32",
        "numberOfBytes": "32"
      },
      "t_bytes_storage": {
        "encoding": "bytes",
        "label": "bytes",
        "numberOfBytes": "32"
      },
      "t_enum(Kind)13949": {
        "encoding": "inplace",
        "label": "enum Transfer.Kind",
        "numberOfBytes": "1"
      },
      "t_enum(Standard)13467": {
        "encoding": "inplace",
        "label": "enum Token.Standard",
        "numberOfBytes": "1"
      },
      "t_enum(VoteStatus)10347": {
        "encoding": "inplace",
        "label": "enum VoteStatusConsumer.VoteStatus",
        "numberOfBytes": "1"
      },
      "t_mapping(t_address,t_bool)": {
        "encoding": "mapping",
        "key": "t_address",
        "label": "mapping(address => bool)",
        "numberOfBytes": "32",
        "value": "t_bool"
      },
      "t_mapping(t_address,t_bytes32)": {
        "encoding": "mapping",
        "key": "t_address",
        "label": "mapping(address => bytes32)",
        "numberOfBytes": "32",
        "value": "t_bytes32"
      },
      "t_mapping(t_address,t_bytes_storage)": {
        "encoding": "mapping",
        "key": "t_address",
        "label": "mapping(address => bytes)",
        "numberOfBytes": "32",
        "value": "t_bytes_storage"
      },
      "t_mapping(t_address,t_mapping(t_uint256,t_struct(MappedToken)10320_storage))": {
        "encoding": "mapping",
        "key": "t_address",
        "label": "mapping(address => mapping(uint256 => struct MappedTokenConsumer.MappedToken))",
        "numberOfBytes": "32",
        "value": "t_mapping(t_uint256,t_struct(MappedToken)10320_storage)"
      },
      "t_mapping(t_address,t_uint256)": {
        "encoding": "mapping",
        "key": "t_address",
        "label": "mapping(address => uint256)",
        "numberOfBytes": "32",
        "value": "t_uint256"
      },
      "t_mapping(t_bytes32,t_struct(AddressSet)4026_storage)": {
        "encoding": "mapping",
        "key": "t_bytes32",
        "label": "mapping(bytes32 => struct EnumerableSet.AddressSet)",
        "numberOfBytes": "32",
        "value": "t_struct(AddressSet)4026_storage"
      },
      "t_mapping(t_bytes32,t_struct(RoleData)19_storage)": {
        "encoding": "mapping",
        "key": "t_bytes32",
        "label": "mapping(bytes32 => struct AccessControl.RoleData)",
        "numberOfBytes": "32",
        "value": "t_struct(RoleData)19_storage"
      },
      "t_mapping(t_bytes32,t_uint256)": {
        "encoding": "mapping",
        "key": "t_bytes32",
        "label": "mapping(bytes32 => uint256)",
        "numberOfBytes": "32",
        "value": "t_uint256"
      },
      "t_mapping(t_uint256,t_mapping(t_address,t_bytes_storage))": {
        "encoding": "mapping",
        "key": "t_uint256",
        "label": "mapping(uint256 => mapping(address => bytes))",
        "numberOfBytes": "32",
        "value": "t_mapping(t_address,t_bytes_storage)"
      },
      "t_mapping(t_uint256,t_mapping(t_uint256,t_struct(Vote)12791_storage))": {
        "encoding": "mapping",
        "key": "t_uint256",
        "label": "mapping(uint256 => mapping(uint256 => struct IsolatedGovernance.Vote))",
        "numberOfBytes": "32",
        "value": "t_mapping(t_uint256,t_struct(Vote)12791_storage)"
      },
      "t_mapping(t_uint256,t_struct(MappedToken)10320_storage)": {
        "encoding": "mapping",
        "key": "t_uint256",
        "label": "mapping(uint256 => struct MappedTokenConsumer.MappedToken)",
        "numberOfBytes": "32",
        "value": "t_struct(MappedToken)10320_storage"
      },
      "t_mapping(t_uint256,t_struct(Receipt)14152_storage)": {
        "encoding": "mapping",
        "key": "t_uint256",
        "label": "mapping(uint256 => struct Transfer.Receipt)",
        "numberOfBytes": "32",
        "value": "t_struct(Receipt)14152_storage"
      },
      "t_mapping(t_uint256,t_struct(Vote)12791_storage)": {
        "encoding": "mapping",
        "key": "t_uint256",
        "label": "mapping(uint256 => struct IsolatedGovernance.Vote)",
        "numberOfBytes": "32",
        "value": "t_struct(Vote)12791_storage"
      },
      "t_struct(AddressSet)4026_storage": {
        "encoding": "inplace",
        "label": "struct EnumerableSet.AddressSet",
        "members": [
          {
            "astId": 4025,
            "contract": "contracts/ronin/gateway/RoninGatewayV2.sol:RoninGatewayV2",
            "label": "_inner",
            "offset": 0,
            "slot": "0",
            "type": "t_struct(Set)3725_storage"
          }
        ],
        "numberOfBytes": "64"
      },
      "t_struct(Info)13475_storage": {
        "encoding": "inplace",
        "label": "struct Token.Info",
        "members": [
          {
            "astId": 13470,
            "contract": "contracts/ronin/gateway/RoninGatewayV2.sol:RoninGatewayV2",
            "label": "erc",
            "offset": 0,
            "slot": "0",
            "type": "t_enum(Standard)13467"
          },
          {
            "astId": 13472,
            "contract": "contracts/ronin/gateway/RoninGatewayV2.sol:RoninGatewayV2",
            "label": "id",
            "offset": 0,
            "slot": "1",
            "type": "t_uint256"
          },
          {
            "astId": 13474,
            "contract": "contracts/ronin/gateway/RoninGatewayV2.sol:RoninGatewayV2",
            "label": "quantity",
            "offset": 0,
            "slot": "2",
            "type": "t_uint256"
          }
        ],
        "numberOfBytes": "96"
      },
      "t_struct(MappedToken)10320_storage": {
        "encoding": "inplace",
        "label": "struct MappedTokenConsumer.MappedToken",
        "members": [
          {
            "astId": 10317,
            "contract": "contracts/ronin/gateway/RoninGatewayV2.sol:RoninGatewayV2",
            "label": "erc",
            "offset": 0,
            "slot": "0",
            "type": "t_enum(Standard)13467"
          },
          {
            "astId": 10319,
            "contract": "contracts/ronin/gateway/RoninGatewayV2.sol:RoninGatewayV2",
            "label": "tokenAddr",
            "offset": 1,
            "slot": "0",
            "type": "t_address"
          }
        ],
        "numberOfBytes": "32"
      },
      "t_struct(Owner)13922_storage": {
        "encoding": "inplace",
        "label": "struct Token.Owner",
        "members": [
          {
            "astId": 13917,
            "contract": "contracts/ronin/gateway/RoninGatewayV2.sol:RoninGatewayV2",
            "label": "addr",
            "offset": 0,
            "slot": "0",
            "type": "t_address"
          },
          {
            "astId": 13919,
            "contract": "contracts/ronin/gateway/RoninGatewayV2.sol:RoninGatewayV2",
            "label": "tokenAddr",
            "offset": 0,
            "slot": "1",
            "type": "t_address"
          },
          {
            "astId": 13921,
            "contract": "contracts/ronin/gateway/RoninGatewayV2.sol:RoninGatewayV2",
            "label": "chainId",
            "offset": 0,
            "slot": "2",
            "type": "t_uint256"
          }
        ],
        "numberOfBytes": "96"
      },
      "t_struct(Receipt)14152_storage": {
        "encoding": "inplace",
        "label": "struct Transfer.Receipt",
        "members": [
          {
            "astId": 14139,
            "contract": "contracts/ronin/gateway/RoninGatewayV2.sol:RoninGatewayV2",
            "label": "id",
            "offset": 0,
            "slot": "0",
            "type": "t_uint256"
          },
          {
            "astId": 14142,
            "contract": "contracts/ronin/gateway/RoninGatewayV2.sol:RoninGatewayV2",
            "label": "kind",
            "offset": 0,
            "slot": "1",
            "type": "t_enum(Kind)13949"
          },
          {
            "astId": 14145,
            "contract": "contracts/ronin/gateway/RoninGatewayV2.sol:RoninGatewayV2",
            "label": "mainchain",
            "offset": 0,
            "slot": "2",
            "type": "t_struct(Owner)13922_storage"
          },
          {
            "astId": 14148,
            "contract": "contracts/ronin/gateway/RoninGatewayV2.sol:RoninGatewayV2",
            "label": "ronin",
            "offset": 0,
            "slot": "5",
            "type": "t_struct(Owner)13922_storage"
          },
          {
            "astId": 14151,
            "contract": "contracts/ronin/gateway/RoninGatewayV2.sol:RoninGatewayV2",
            "label": "info",
            "offset": 0,
            "slot": "8",
            "type": "t_struct(Info)13475_storage"
          }
        ],
        "numberOfBytes": "352"
      },
      "t_struct(RoleData)19_storage": {
        "encoding": "inplace",
        "label": "struct AccessControl.RoleData",
        "members": [
          {
            "astId": 16,
            "contract": "contracts/ronin/gateway/RoninGatewayV2.sol:RoninGatewayV2",
            "label": "members",
            "offset": 0,
            "slot": "0",
            "type": "t_mapping(t_address,t_bool)"
          },
          {
            "astId": 18,
            "contract": "contracts/ronin/gateway/RoninGatewayV2.sol:RoninGatewayV2",
            "label": "adminRole",
            "offset": 0,
            "slot": "1",
            "type": "t_bytes32"
          }
        ],
        "numberOfBytes": "64"
      },
      "t_struct(Set)3725_storage": {
        "encoding": "inplace",
        "label": "struct EnumerableSet.Set",
        "members": [
          {
            "astId": 3720,
            "contract": "contracts/ronin/gateway/RoninGatewayV2.sol:RoninGatewayV2",
            "label": "_values",
            "offset": 0,
            "slot": "0",
            "type": "t_array(t_bytes32)dyn_storage"
          },
          {
            "astId": 3724,
            "contract": "contracts/ronin/gateway/RoninGatewayV2.sol:RoninGatewayV2",
            "label": "_indexes",
            "offset": 0,
            "slot": "1",
            "type": "t_mapping(t_bytes32,t_uint256)"
          }
        ],
        "numberOfBytes": "64"
      },
      "t_struct(Vote)12791_storage": {
        "encoding": "inplace",
        "label": "struct IsolatedGovernance.Vote",
        "members": [
          {
            "astId": 12773,
            "contract": "contracts/ronin/gateway/RoninGatewayV2.sol:RoninGatewayV2",
            "label": "status",
            "offset": 0,
            "slot": "0",
            "type": "t_enum(VoteStatus)10347"
          },
          {
            "astId": 12775,
            "contract": "contracts/ronin/gateway/RoninGatewayV2.sol:RoninGatewayV2",
            "label": "finalHash",
            "offset": 0,
            "slot": "1",
            "type": "t_bytes32"
          },
          {
            "astId": 12780,
            "contract": "contracts/ronin/gateway/RoninGatewayV2.sol:RoninGatewayV2",
            "label": "voteHashOf",
            "offset": 0,
            "slot": "2",
            "type": "t_mapping(t_address,t_bytes32)"
          },
          {
            "astId": 12783,
            "contract": "contracts/ronin/gateway/RoninGatewayV2.sol:RoninGatewayV2",
            "label": "expiredAt",
            "offset": 0,
            "slot": "3",
            "type": "t_uint256"
          },
          {
            "astId": 12786,
            "contract": "contracts/ronin/gateway/RoninGatewayV2.sol:RoninGatewayV2",
            "label": "createdAt",
            "offset": 0,
            "slot": "4",
            "type": "t_uint256"
          },
          {
            "astId": 12790,
            "contract": "contracts/ronin/gateway/RoninGatewayV2.sol:RoninGatewayV2",
            "label": "voters",
            "offset": 0,
            "slot": "5",
            "type": "t_array(t_address)dyn_storage"
          }
        ],
        "numberOfBytes": "192"
      },
      "t_uint256": {
        "encoding": "inplace",
        "label": "uint256",
        "numberOfBytes": "32"
      },
      "t_uint8": {
        "encoding": "inplace",
        "label": "uint8",
        "numberOfBytes": "1"
      }
    }
  }
}