{
  "address": "0x6D22328422509F4fe5539e34D15Bf44F47A9df9F",
  "abi": [
    {
      "inputs": [
        {
          "internalType": "address",
          "name": "_roninTrustedOrganizationContract",
          "type": "address"
        },
        {
          "internalType": "address",
          "name": "_bridgeContract",
          "type": "address"
        },
        {
          "internalType": "uint256",
          "name": "_proposalExpiryDuration",
          "type": "uint256"
        }
      ],
      "stateMutability": "nonpayable",
      "type": "constructor"
    },
    {
      "anonymous": false,
      "inputs": [
        {
          "indexed": false,
          "internalType": "address",
          "name": "",
          "type": "address"
        }
      ],
      "name": "BridgeContractUpdated",
      "type": "event"
    },
    {
      "anonymous": false,
      "inputs": [
        {
          "indexed": false,
          "internalType": "uint256",
          "name": "_period",
          "type": "uint256"
        },
        {
          "indexed": false,
          "internalType": "address[]",
          "name": "_operators",
          "type": "address[]"
        }
      ],
      "name": "BridgeOperatorsApproved",
      "type": "event"
    },
    {
      "anonymous": false,
      "inputs": [
        {
          "indexed": true,
          "internalType": "uint256",
          "name": "round",
          "type": "uint256"
        },
        {
          "indexed": true,
          "internalType": "bytes32",
          "name": "proposalHash",
          "type": "bytes32"
        },
        {
          "components": [
            {
              "internalType": "uint256",
              "name": "nonce",
              "type": "uint256"
            },
            {
              "internalType": "uint256",
              "name": "chainId",
              "type": "uint256"
            },
            {
              "internalType": "uint256",
              "name": "expiryTimestamp",
              "type": "uint256"
            },
            {
              "internalType": "address[]",
              "name": "targets",
              "type": "address[]"
            },
            {
              "internalType": "uint256[]",
              "name": "values",
              "type": "uint256[]"
            },
            {
              "internalType": "bytes[]",
              "name": "calldatas",
              "type": "bytes[]"
            },
            {
              "internalType": "uint256[]",
              "name": "gasAmounts",
              "type": "uint256[]"
            }
          ],
          "indexed": false,
          "internalType": "struct Proposal.ProposalDetail",
          "name": "proposal",
          "type": "tuple"
        },
        {
          "indexed": false,
          "internalType": "bytes32",
          "name": "globalProposalHash",
          "type": "bytes32"
        },
        {
          "components": [
            {
              "internalType": "uint256",
              "name": "nonce",
              "type": "uint256"
            },
            {
              "internalType": "uint256",
              "name": "expiryTimestamp",
              "type": "uint256"
            },
            {
              "internalType": "enum GlobalProposal.TargetOption[]",
              "name": "targetOptions",
              "type": "uint8[]"
            },
            {
              "internalType": "uint256[]",
              "name": "values",
              "type": "uint256[]"
            },
            {
              "internalType": "bytes[]",
              "name": "calldatas",
              "type": "bytes[]"
            },
            {
              "internalType": "uint256[]",
              "name": "gasAmounts",
              "type": "uint256[]"
            }
          ],
          "indexed": false,
          "internalType": "struct GlobalProposal.GlobalProposalDetail",
          "name": "globalProposal",
          "type": "tuple"
        },
        {
          "indexed": false,
          "internalType": "address",
          "name": "creator",
          "type": "address"
        }
      ],
      "name": "GlobalProposalCreated",
      "type": "event"
    },
    {
      "anonymous": false,
      "inputs": [
        {
          "indexed": true,
          "internalType": "bytes32",
          "name": "proposalHash",
          "type": "bytes32"
        }
      ],
      "name": "ProposalApproved",
      "type": "event"
    },
    {
      "anonymous": false,
      "inputs": [
        {
          "indexed": true,
          "internalType": "uint256",
          "name": "chainId",
          "type": "uint256"
        },
        {
          "indexed": true,
          "internalType": "uint256",
          "name": "round",
          "type": "uint256"
        },
        {
          "indexed": true,
          "internalType": "bytes32",
          "name": "proposalHash",
          "type": "bytes32"
        },
        {
          "components": [
            {
              "internalType": "uint256",
              "name": "nonce",
              "type": "uint256"
            },
            {
              "internalType": "uint256",
              "name": "chainId",
              "type": "uint256"
            },
            {
              "internalType": "uint256",
              "name": "expiryTimestamp",
              "type": "uint256"
            },
            {
              "internalType": "address[]",
              "name": "targets",
              "type": "address[]"
            },
            {
              "internalType": "uint256[]",
              "name": "values",
              "type": "uint256[]"
            },
            {
              "internalType": "bytes[]",
              "name": "calldatas",
              "type": "bytes[]"
            },
            {
              "internalType": "uint256[]",
              "name": "gasAmounts",
              "type": "uint256[]"
            }
          ],
          "indexed": false,
          "internalType": "struct Proposal.ProposalDetail",
          "name": "proposal",
          "type": "tuple"
        },
        {
          "indexed": false,
          "internalType": "address",
          "name": "creator",
          "type": "address"
        }
      ],
      "name": "ProposalCreated",
      "type": "event"
    },
    {
      "anonymous": false,
      "inputs": [
        {
          "indexed": true,
          "internalType": "bytes32",
          "name": "proposalHash",
          "type": "bytes32"
        },
        {
          "indexed": false,
          "internalType": "bool[]",
          "name": "successCalls",
          "type": "bool[]"
        },
        {
          "indexed": false,
          "internalType": "bytes[]",
          "name": "returnDatas",
          "type": "bytes[]"
        }
      ],
      "name": "ProposalExecuted",
      "type": "event"
    },
    {
      "anonymous": false,
      "inputs": [
        {
          "indexed": true,
          "internalType": "bytes32",
          "name": "proposalHash",
          "type": "bytes32"
        }
      ],
      "name": "ProposalExpired",
      "type": "event"
    },
    {
      "anonymous": false,
      "inputs": [
        {
          "indexed": true,
          "internalType": "bytes32",
          "name": "proposalHash",
          "type": "bytes32"
        }
      ],
      "name": "ProposalRejected",
      "type": "event"
    },
    {
      "anonymous": false,
      "inputs": [
        {
          "indexed": true,
          "internalType": "bytes32",
          "name": "proposalHash",
          "type": "bytes32"
        },
        {
          "indexed": true,
          "internalType": "address",
          "name": "voter",
          "type": "address"
        },
        {
          "indexed": false,
          "internalType": "enum Ballot.VoteType",
          "name": "support",
          "type": "uint8"
        },
        {
          "indexed": false,
          "internalType": "uint256",
          "name": "weight",
          "type": "uint256"
        }
      ],
      "name": "ProposalVoted",
      "type": "event"
    },
    {
      "anonymous": false,
      "inputs": [
        {
          "indexed": false,
          "internalType": "address",
          "name": "",
          "type": "address"
        }
      ],
      "name": "RoninTrustedOrganizationContractUpdated",
      "type": "event"
    },
    {
      "inputs": [],
      "name": "DOMAIN_SEPARATOR",
      "outputs": [
        {
          "internalType": "bytes32",
          "name": "",
          "type": "bytes32"
        }
      ],
      "stateMutability": "view",
      "type": "function"
    },
    {
      "inputs": [],
      "name": "bridgeContract",
      "outputs": [
        {
          "internalType": "address",
          "name": "",
          "type": "address"
        }
      ],
      "stateMutability": "view",
      "type": "function"
    },
    {
      "inputs": [
        {
          "internalType": "uint256",
          "name": "_period",
          "type": "uint256"
        },
        {
          "internalType": "address",
          "name": "_voter",
          "type": "address"
        }
      ],
      "name": "bridgeOperatorsVoted",
      "outputs": [
        {
          "internalType": "bool",
          "name": "",
          "type": "bool"
        }
      ],
      "stateMutability": "view",
      "type": "function"
    },
    {
      "inputs": [
        {
          "components": [
            {
              "internalType": "uint256",
              "name": "nonce",
              "type": "uint256"
            },
            {
              "internalType": "uint256",
              "name": "expiryTimestamp",
              "type": "uint256"
            },
            {
              "internalType": "enum GlobalProposal.TargetOption[]",
              "name": "targetOptions",
              "type": "uint8[]"
            },
            {
              "internalType": "uint256[]",
              "name": "values",
              "type": "uint256[]"
            },
            {
              "internalType": "bytes[]",
              "name": "calldatas",
              "type": "bytes[]"
            },
            {
              "internalType": "uint256[]",
              "name": "gasAmounts",
              "type": "uint256[]"
            }
          ],
          "internalType": "struct GlobalProposal.GlobalProposalDetail",
          "name": "_globalProposal",
          "type": "tuple"
        },
        {
          "internalType": "enum Ballot.VoteType[]",
          "name": "_supports",
          "type": "uint8[]"
        },
        {
          "components": [
            {
              "internalType": "uint8",
              "name": "v",
              "type": "uint8"
            },
            {
              "internalType": "bytes32",
              "name": "r",
              "type": "bytes32"
            },
            {
              "internalType": "bytes32",
              "name": "s",
              "type": "bytes32"
            }
          ],
          "internalType": "struct SignatureConsumer.Signature[]",
          "name": "_signatures",
          "type": "tuple[]"
        }
      ],
      "name": "castGlobalProposalBySignatures",
      "outputs": [],
      "stateMutability": "nonpayable",
      "type": "function"
    },
    {
      "inputs": [
        {
          "components": [
            {
              "internalType": "uint256",
              "name": "nonce",
              "type": "uint256"
            },
            {
              "internalType": "uint256",
              "name": "chainId",
              "type": "uint256"
            },
            {
              "internalType": "uint256",
              "name": "expiryTimestamp",
              "type": "uint256"
            },
            {
              "internalType": "address[]",
              "name": "targets",
              "type": "address[]"
            },
            {
              "internalType": "uint256[]",
              "name": "values",
              "type": "uint256[]"
            },
            {
              "internalType": "bytes[]",
              "name": "calldatas",
              "type": "bytes[]"
            },
            {
              "internalType": "uint256[]",
              "name": "gasAmounts",
              "type": "uint256[]"
            }
          ],
          "internalType": "struct Proposal.ProposalDetail",
          "name": "_proposal",
          "type": "tuple"
        },
        {
          "internalType": "enum Ballot.VoteType[]",
          "name": "_supports",
          "type": "uint8[]"
        },
        {
          "components": [
            {
              "internalType": "uint8",
              "name": "v",
              "type": "uint8"
            },
            {
              "internalType": "bytes32",
              "name": "r",
              "type": "bytes32"
            },
            {
              "internalType": "bytes32",
              "name": "s",
              "type": "bytes32"
            }
          ],
          "internalType": "struct SignatureConsumer.Signature[]",
          "name": "_signatures",
          "type": "tuple[]"
        }
      ],
      "name": "castProposalBySignatures",
      "outputs": [],
      "stateMutability": "nonpayable",
      "type": "function"
    },
    {
      "inputs": [
        {
          "internalType": "address",
          "name": "_proxy",
          "type": "address"
        },
        {
          "internalType": "address",
          "name": "_newAdmin",
          "type": "address"
        }
      ],
      "name": "changeProxyAdmin",
      "outputs": [],
      "stateMutability": "nonpayable",
      "type": "function"
    },
    {
      "inputs": [
        {
          "internalType": "uint256",
          "name": "chainId",
          "type": "uint256"
        },
        {
          "internalType": "uint256",
          "name": "round",
          "type": "uint256"
        }
      ],
      "name": "deleteExpired",
      "outputs": [],
      "stateMutability": "nonpayable",
      "type": "function"
    },
    {
      "inputs": [
        {
          "internalType": "uint256",
          "name": "_period",
          "type": "uint256"
        },
        {
          "internalType": "address[]",
          "name": "_voters",
          "type": "address[]"
        }
      ],
      "name": "getBridgeOperatorVotingSignatures",
      "outputs": [
        {
          "components": [
            {
              "internalType": "uint8",
              "name": "v",
              "type": "uint8"
            },
            {
              "internalType": "bytes32",
              "name": "r",
              "type": "bytes32"
            },
            {
              "internalType": "bytes32",
              "name": "s",
              "type": "bytes32"
            }
          ],
          "internalType": "struct SignatureConsumer.Signature[]",
          "name": "_signatures",
          "type": "tuple[]"
        }
      ],
      "stateMutability": "view",
      "type": "function"
    },
    {
      "inputs": [],
      "name": "getProposalExpiryDuration",
      "outputs": [
        {
          "internalType": "uint256",
          "name": "",
          "type": "uint256"
        }
      ],
      "stateMutability": "view",
      "type": "function"
    },
    {
      "inputs": [
        {
          "internalType": "uint256",
          "name": "_chainId",
          "type": "uint256"
        },
        {
          "internalType": "uint256",
          "name": "_round",
          "type": "uint256"
        }
      ],
      "name": "getProposalSignatures",
      "outputs": [
        {
          "internalType": "enum Ballot.VoteType[]",
          "name": "_supports",
          "type": "uint8[]"
        },
        {
          "components": [
            {
              "internalType": "uint8",
              "name": "v",
              "type": "uint8"
            },
            {
              "internalType": "bytes32",
              "name": "r",
              "type": "bytes32"
            },
            {
              "internalType": "bytes32",
              "name": "s",
              "type": "bytes32"
            }
          ],
          "internalType": "struct SignatureConsumer.Signature[]",
          "name": "_signatures",
          "type": "tuple[]"
        }
      ],
      "stateMutability": "view",
      "type": "function"
    },
    {
      "inputs": [
        {
          "internalType": "address",
          "name": "_proxy",
          "type": "address"
        }
      ],
      "name": "getProxyAdmin",
      "outputs": [
        {
          "internalType": "address",
          "name": "",
          "type": "address"
        }
      ],
      "stateMutability": "view",
      "type": "function"
    },
    {
      "inputs": [
        {
          "internalType": "address",
          "name": "_proxy",
          "type": "address"
        }
      ],
      "name": "getProxyImplementation",
      "outputs": [
        {
          "internalType": "address",
          "name": "",
          "type": "address"
        }
      ],
      "stateMutability": "view",
      "type": "function"
    },
    {
      "inputs": [
        {
          "internalType": "address",
          "name": "_bridgeVoter",
          "type": "address"
        }
      ],
      "name": "lastVotedBlock",
      "outputs": [
        {
          "internalType": "uint256",
          "name": "",
          "type": "uint256"
        }
      ],
      "stateMutability": "view",
      "type": "function"
    },
    {
      "inputs": [
        {
          "internalType": "uint256",
          "name": "_chainId",
          "type": "uint256"
        },
        {
          "internalType": "uint256",
          "name": "_round",
          "type": "uint256"
        },
        {
          "internalType": "address",
          "name": "_voter",
          "type": "address"
        }
      ],
      "name": "proposalVoted",
      "outputs": [
        {
          "internalType": "bool",
          "name": "",
          "type": "bool"
        }
      ],
      "stateMutability": "view",
      "type": "function"
    },
    {
      "inputs": [
        {
          "internalType": "uint256",
          "name": "_chainId",
          "type": "uint256"
        },
        {
          "internalType": "uint256",
          "name": "_expiryTimestamp",
          "type": "uint256"
        },
        {
          "internalType": "address[]",
          "name": "_targets",
          "type": "address[]"
        },
        {
          "internalType": "uint256[]",
          "name": "_values",
          "type": "uint256[]"
        },
        {
          "internalType": "bytes[]",
          "name": "_calldatas",
          "type": "bytes[]"
        },
        {
          "internalType": "uint256[]",
          "name": "_gasAmounts",
          "type": "uint256[]"
        }
      ],
      "name": "propose",
      "outputs": [],
      "stateMutability": "nonpayable",
      "type": "function"
    },
    {
      "inputs": [
        {
          "internalType": "uint256",
          "name": "_expiryTimestamp",
          "type": "uint256"
        },
        {
          "internalType": "enum GlobalProposal.TargetOption[]",
          "name": "_targetOptions",
          "type": "uint8[]"
        },
        {
          "internalType": "uint256[]",
          "name": "_values",
          "type": "uint256[]"
        },
        {
          "internalType": "bytes[]",
          "name": "_calldatas",
          "type": "bytes[]"
        },
        {
          "internalType": "uint256[]",
          "name": "_gasAmounts",
          "type": "uint256[]"
        }
      ],
      "name": "proposeGlobal",
      "outputs": [],
      "stateMutability": "nonpayable",
      "type": "function"
    },
    {
      "inputs": [
        {
          "components": [
            {
              "internalType": "uint256",
              "name": "nonce",
              "type": "uint256"
            },
            {
              "internalType": "uint256",
              "name": "expiryTimestamp",
              "type": "uint256"
            },
            {
              "internalType": "enum GlobalProposal.TargetOption[]",
              "name": "targetOptions",
              "type": "uint8[]"
            },
            {
              "internalType": "uint256[]",
              "name": "values",
              "type": "uint256[]"
            },
            {
              "internalType": "bytes[]",
              "name": "calldatas",
              "type": "bytes[]"
            },
            {
              "internalType": "uint256[]",
              "name": "gasAmounts",
              "type": "uint256[]"
            }
          ],
          "internalType": "struct GlobalProposal.GlobalProposalDetail",
          "name": "_globalProposal",
          "type": "tuple"
        },
        {
          "internalType": "enum Ballot.VoteType[]",
          "name": "_supports",
          "type": "uint8[]"
        },
        {
          "components": [
            {
              "internalType": "uint8",
              "name": "v",
              "type": "uint8"
            },
            {
              "internalType": "bytes32",
              "name": "r",
              "type": "bytes32"
            },
            {
              "internalType": "bytes32",
              "name": "s",
              "type": "bytes32"
            }
          ],
          "internalType": "struct SignatureConsumer.Signature[]",
          "name": "_signatures",
          "type": "tuple[]"
        }
      ],
      "name": "proposeGlobalProposalStructAndCastVotes",
      "outputs": [],
      "stateMutability": "nonpayable",
      "type": "function"
    },
    {
      "inputs": [
        {
          "components": [
            {
              "internalType": "uint256",
              "name": "nonce",
              "type": "uint256"
            },
            {
              "internalType": "uint256",
              "name": "chainId",
              "type": "uint256"
            },
            {
              "internalType": "uint256",
              "name": "expiryTimestamp",
              "type": "uint256"
            },
            {
              "internalType": "address[]",
              "name": "targets",
              "type": "address[]"
            },
            {
              "internalType": "uint256[]",
              "name": "values",
              "type": "uint256[]"
            },
            {
              "internalType": "bytes[]",
              "name": "calldatas",
              "type": "bytes[]"
            },
            {
              "internalType": "uint256[]",
              "name": "gasAmounts",
              "type": "uint256[]"
            }
          ],
          "internalType": "struct Proposal.ProposalDetail",
          "name": "_proposal",
          "type": "tuple"
        },
        {
          "internalType": "enum Ballot.VoteType[]",
          "name": "_supports",
          "type": "uint8[]"
        },
        {
          "components": [
            {
              "internalType": "uint8",
              "name": "v",
              "type": "uint8"
            },
            {
              "internalType": "bytes32",
              "name": "r",
              "type": "bytes32"
            },
            {
              "internalType": "bytes32",
              "name": "s",
              "type": "bytes32"
            }
          ],
          "internalType": "struct SignatureConsumer.Signature[]",
          "name": "_signatures",
          "type": "tuple[]"
        }
      ],
      "name": "proposeProposalStructAndCastVotes",
      "outputs": [],
      "stateMutability": "nonpayable",
      "type": "function"
    },
    {
      "inputs": [],
      "name": "roninTrustedOrganizationContract",
      "outputs": [
        {
          "internalType": "address",
          "name": "",
          "type": "address"
        }
      ],
      "stateMutability": "view",
      "type": "function"
    },
    {
      "inputs": [
        {
          "internalType": "uint256",
          "name": "",
          "type": "uint256"
        }
      ],
      "name": "round",
      "outputs": [
        {
          "internalType": "uint256",
          "name": "",
          "type": "uint256"
        }
      ],
      "stateMutability": "view",
      "type": "function"
    },
    {
      "inputs": [
        {
          "internalType": "address",
          "name": "_addr",
          "type": "address"
        }
      ],
      "name": "setBridgeContract",
      "outputs": [],
      "stateMutability": "nonpayable",
      "type": "function"
    },
    {
      "inputs": [
        {
          "internalType": "uint256",
          "name": "_expiryDuration",
          "type": "uint256"
        }
      ],
      "name": "setProposalExpiryDuration",
      "outputs": [],
      "stateMutability": "nonpayable",
      "type": "function"
    },
    {
      "inputs": [
        {
          "internalType": "address",
          "name": "_addr",
          "type": "address"
        }
      ],
      "name": "setRoninTrustedOrganizationContract",
      "outputs": [],
      "stateMutability": "nonpayable",
      "type": "function"
    },
    {
      "inputs": [
        {
          "internalType": "uint256",
          "name": "",
          "type": "uint256"
        },
        {
          "internalType": "uint256",
          "name": "",
          "type": "uint256"
        }
      ],
      "name": "vote",
      "outputs": [
        {
          "internalType": "enum VoteStatusConsumer.VoteStatus",
          "name": "status",
          "type": "uint8"
        },
        {
          "internalType": "bytes32",
          "name": "hash",
          "type": "bytes32"
        },
        {
          "internalType": "uint256",
          "name": "againstVoteWeight",
          "type": "uint256"
        },
        {
          "internalType": "uint256",
          "name": "forVoteWeight",
          "type": "uint256"
        },
        {
          "internalType": "uint256",
          "name": "expiryTimestamp",
          "type": "uint256"
        }
      ],
      "stateMutability": "view",
      "type": "function"
    },
    {
      "inputs": [
        {
          "internalType": "uint256",
          "name": "_period",
          "type": "uint256"
        },
        {
          "internalType": "address[]",
          "name": "_operators",
          "type": "address[]"
        },
        {
          "components": [
            {
              "internalType": "uint8",
              "name": "v",
              "type": "uint8"
            },
            {
              "internalType": "bytes32",
              "name": "r",
              "type": "bytes32"
            },
            {
              "internalType": "bytes32",
              "name": "s",
              "type": "bytes32"
            }
          ],
          "internalType": "struct SignatureConsumer.Signature[]",
          "name": "_signatures",
          "type": "tuple[]"
        }
      ],
      "name": "voteBridgeOperatorsBySignatures",
      "outputs": [],
      "stateMutability": "nonpayable",
      "type": "function"
    }
  ],
  "transactionHash": "0x7136b4f159e79a157e27c3947dfffb316808e63f6c552fdb5b6b888426e5bd28",
  "args": [
    "0x7f46c5DD5f13FF0dd973317411d70800db248e7d",
    "0xCee681C9108c42C710c6A8A949307D5F13C9F3ca",
    1209600
  ],
  "numDeployments": 2,
  "solcInputHash": "306cfcffeca66af05c8925f3663c976b",
  "bytecode": "0x60806040523480156200001157600080fd5b5060405162004d4838038062004d48833981016040819052620000349162000288565b828282806200004281600255565b50604080516020808201839052601660608301527f524f4e494e5f474f5645524e414e43455f41444d494e000000000000000000006080808401919091526107e4838501528351808403909101815260a0830184528051908201207f599a80fcaa47b95e2323ab4d34d34e0cc9feda4b843edafcc30c7bdf60ea15bf60c08401527f7e7935007966eb860f4a2ee3dcc9fd53fb3205ce2aa86b0126d4893d4d4c14b960e08401527fc89efdaa54c0f20c7adf612882df0950f5a951637e0307cdcb4c672f298b8bc6610100840152610120808401919091528351808403909101815261014090920190925280519101207ff8704f8860d9e985bf6c52ec4738bd10fe31487599b36c0944f746ea09dc256b14620001a55760405162461bcd60e51b815260206004820152601f60248201527f476f7665726e616e636541646d696e3a20696e76616c696420646f6d61696e00604482015260640160405180910390fd5b620001b083620001c7565b620001bb826200021c565b505050505050620002c9565b600380546001600160a01b0319166001600160a01b0383169081179091556040519081527ffd6f5f93d69a07c593a09be0b208bff13ab4ffd6017df3b33433d63bdc59b4d7906020015b60405180910390a150565b600480546001600160a01b0319166001600160a01b0383169081179091556040519081527f5cbd8a0bb00196365d5eb3457c6734e7f06666c3c78e5469b4c9deec7edae0489060200162000211565b80516001600160a01b03811681146200028357600080fd5b919050565b6000806000606084860312156200029e57600080fd5b620002a9846200026b565b9250620002b9602085016200026b565b9150604084015190509250925092565b614a6f80620002d96000396000f3fe608060405234801561001057600080fd5b50600436106101725760003560e01c80633644e515116100de578063a1819f9a11610097578063bc96180b11610071578063bc96180b146103c9578063cd596583146103d1578063f3b7dead146103e2578063fb4f6371146103f557600080fd5b8063a1819f9a14610348578063b384abef1461035b578063b5e337de146103b657600080fd5b80633644e515146102c05780635511cde1146102d557806356e237e8146102e65780637eff275e146102f9578063988ef53c1461030c5780639a7d33821461033557600080fd5b8063204e1c7a11610130578063204e1c7a1461020e5780632c5e6520146102395780632e96a6fb1461024c5780632faf925d1461025f578063332635be1461027257806334d5f37b1461029257600080fd5b80624054b814610177578063055c68891461018c57806309fcd8c7146101b45780630b26cf66146101c75780630b881830146101da5780631c905e39146101ed575b600080fd5b61018a610185366004613949565b610408565b005b61019f61019a3660046139fa565b61045d565b60405190151581526020015b60405180910390f35b61018a6101c2366004613a2a565b61048f565b61018a6101d5366004613af9565b610558565b61018a6101e8366004613949565b6105ad565b6102006101fb366004613b16565b6105c9565b6040516101ab929190613bb2565b61022161021c366004613af9565b6108c7565b6040516001600160a01b0390911681526020016101ab565b61019f610247366004613c12565b6109b9565b61018a61025a366004613c4b565b6109ef565b61018a61026d366004613c64565b610a17565b610285610280366004613ca7565b610a51565b6040516101ab9190613cf2565b6102b26102a0366004613c4b565b60006020819052908152604090205481565b6040519081526020016101ab565b6102b2600080516020614a1a83398151915281565b6003546001600160a01b0316610221565b61018a6102f4366004613d05565b610b82565b61018a610307366004613d3b565b610c26565b6102b261031a366004613af9565b6001600160a01b031660009081526007602052604090205490565b61018a610343366004613b16565b610d57565b61018a610356366004613d69565b610d65565b6103a5610369366004613b16565b600160208181526000938452604080852090915291835291208054918101546002820154600383015460069093015460ff909416939192909185565b6040516101ab959493929190613e42565b61018a6103c4366004613af9565b610e4b565b6102b2610e9d565b6004546001600160a01b0316610221565b6102216103f0366004613af9565b610ead565b61018a610403366004613c64565b610f7a565b600061041333610fdd565b116104395760405162461bcd60e51b815260040161043090613e77565b60405180910390fd5b6104568585858585600080516020614a1a83398151915233611151565b5050505050565b60008281526006602090815260408083206001600160a01b038516845260020190915281205415155b90505b92915050565b600061049a33610fdd565b116104b75760405162461bcd60e51b815260040161043090613e77565b61054c8989898989808060200260200160405190810160405280939291908181526020018383602002808284376000920191909152506104fd92508a91508b9050614041565b87878080602002602001604051908101604052809392919081815260200183836020028082843760009201919091525061053a9250610b73915050565b6004546001600160a01b0316336111bb565b50505050505050505050565b3330146105775760405162461bcd60e51b81526004016104309061404e565b6000816001600160a01b03163b116105a15760405162461bcd60e51b815260040161043090614095565b6105aa816112f0565b50565b6104568585858585600080516020614a1a833981519152611345565b600082815260016020908152604080832084845290915281206004810154600582015460609384939291906105fe82846140ef565b9050806001600160401b0381111561061857610618613ebe565b604051908082528060200260200182016040528015610641578160200160208202803683370190505b509550806001600160401b0381111561065c5761065c613ebe565b6040519080825280602002602001820160405280156106a757816020015b604080516060810182526000808252602080830182905292820152825260001990920191018161067a5790505b50945060005b838110156107aa5760008782815181106106c9576106c9614102565b602002602001019060018111156106e2576106e2613b38565b908160018111156106f5576106f5613b38565b90525060008981526001602090815260408083208b84529091528120600487018054600790920192918490811061072e5761072e614102565b60009182526020808320909101546001600160a01b0316835282810193909352604091820190208151606081018352815460ff1681526001820154938101939093526002015490820152865187908390811061078c5761078c614102565b602002602001018190525080806107a290614118565b9150506106ad565b5060005b828110156108bb576001876107c386846140ef565b815181106107d3576107d3614102565b602002602001019060018111156107ec576107ec613b38565b908160018111156107ff576107ff613b38565b90525060008981526001602090815260408083208b84529091528120600587018054600790920192918490811061083857610838614102565b60009182526020808320909101546001600160a01b0316835282810193909352604091820190208151606081018352815460ff16815260018201549381019390935260020154908201528661088d86846140ef565b8151811061089d5761089d614102565b602002602001018190525080806108b390614118565b9150506107ae565b50505050509250929050565b6000806000836001600160a01b03166040516108ed90635c60da1b60e01b815260040190565b600060405180830381855afa9150503d8060008114610928576040519150601f19603f3d011682016040523d82523d6000602084013e61092d565b606091505b50915091508161099d5760405162461bcd60e51b815260206004820152603560248201527f476f7665726e616e636541646d696e3a2070726f78792063616c6c2060696d706044820152741b195b595b9d185d1a5bdb8a0a580819985a5b1959605a1b6064820152608401610430565b808060200190518101906109b19190614131565b949350505050565b600083815260016020818152604080842086855282528084206001600160a01b03861685526007019091528220015415156109b1565b333014610a0e5760405162461bcd60e51b81526004016104309061404e565b6105aa81600255565b6104568585858585600080516020614a1a833981519152610a406003546001600160a01b031690565b6004546001600160a01b03166113cc565b6060816001600160401b03811115610a6b57610a6b613ebe565b604051908082528060200260200182016040528015610ab657816020015b6040805160608101825260008082526020808301829052928201528252600019909201910181610a895790505b50905060005b82811015610b6b57600085815260086020526040812090858584818110610ae557610ae5614102565b9050602002016020810190610afa9190613af9565b6001600160a01b0316815260208082019290925260409081016000208151606081018352815460ff16815260018201549381019390935260020154908201528251839083908110610b4d57610b4d614102565b60200260200101819052508080610b6390614118565b915050610abc565b509392505050565b6003546001600160a01b031690565b610ba68484848489610b92611480565b600080516020614a1a8339815191526115ec565b60008581526006602052604090206001815460ff166003811115610bcc57610bcc613b38565b03610c1e5760058690556040517f1599b04a1104d19ef534dc177f3de0164ef5e4b99fad7485eda134600fca5f0290610c0a9088908890889061414e565b60405180910390a1805460ff191660021781555b505050505050565b333014610c455760405162461bcd60e51b81526004016104309061404e565b604080516001600160a01b0383811660248084019190915283518084039091018152604490920183526020820180516001600160e01b03166308f2839760e41b1790529151600092851691610c99916141ca565b6000604051808303816000865af19150503d8060008114610cd6576040519150601f19603f3d011682016040523d82523d6000602084013e610cdb565b606091505b5050905080610d525760405162461bcd60e51b815260206004820152603960248201527f476f7665726e616e636541646d696e3a2070726f78792063616c6c206063686160448201527f6e676541646d696e28616464726573732960206661696c6564000000000000006064820152608401610430565b505050565b610d618282611924565b5050565b6000610d7033610fdd565b11610d8d5760405162461bcd60e51b815260040161043090613e77565b610e3e8a8a8a8a8080602002602001604051908101604052809392919081815260200183836020028082843760009201919091525050604080516020808e0282810182019093528d82529093508d92508c918291850190849080828437600092019190915250610e0392508a91508b9050614041565b87878080602002602001604051908101604052809392919081815260200183836020028082843760009201919091525033925061194c915050565b5050505050505050505050565b333014610e6a5760405162461bcd60e51b81526004016104309061404e565b6000816001600160a01b03163b11610e945760405162461bcd60e51b815260040161043090614095565b6105aa81611a64565b6000610ea860025490565b905090565b6000806000836001600160a01b0316604051610ed3906303e1469160e61b815260040190565b600060405180830381855afa9150503d8060008114610f0e576040519150601f19603f3d011682016040523d82523d6000602084013e610f13565b606091505b50915091508161099d5760405162461bcd60e51b815260206004820152602c60248201527f476f7665726e616e636541646d696e3a2070726f78792063616c6c206061646d60448201526b1a5b8a0a580819985a5b195960a21b6064820152608401610430565b6000610f8533610fdd565b11610fa25760405162461bcd60e51b815260040161043090613e77565b610c1e8585858585600080516020614a1a833981519152610fcb6003546001600160a01b031690565b6004546001600160a01b031633611ab2565b6000806000610ff46003546001600160a01b031690565b604080516001600160a01b03878116602480840191909152835180840382018152604490930184526020830180516001600160e01b0316631af0725f60e31b1790529251931692634bb5274a9261104c929101614212565b6040516020818303038152906040529060e01b6020820180516001600160e01b03838183161783525050505060405161108591906141ca565b600060405180830381855afa9150503d80600081146110c0576040519150601f19603f3d011682016040523d82523d6000602084013e6110c5565b606091505b50915091508161113d5760405162461bcd60e51b815260206004820152603f60248201527f476f7665726e616e636541646d696e3a2070726f78792063616c6c206067657460448201527f476f7665726e6f7257656967687428616464726573732960206661696c6564006064820152608401610430565b808060200190518101906109b19190614225565b61116361115d88614328565b82611b15565b50600061117761117289614328565b611bfd565b90506111b161118589614328565b8888888861119d89611198896000611d9c565b611df2565b6111ac8a6111988a6001611d9c565b611e19565b5050505050505050565b6040805160c08101909152600080805260208190527fad3228b676f7d3cd4284a5443f17f1962b36e491b30a40b2405849e597ba5fb5549091829181906112039060016140ef565b81526020018c81526020018b8b808060200260200160405190810160405280939291908181526020018383602002808284376000920182905250938552505050602082018b9052604082018a90526060909101889052909150611267828787612172565b905061127e6002548261233890919063ffffffff16565b600061128982611bfd565b90506112976000828f612434565b935080847f771d78ae9e5fca95a532fb0971d575d0ce9b59d14823c063e08740137e0e0eca846112c687612562565b878a6040516112d89493929190614544565b60405180910390a35050509998505050505050505050565b600480546001600160a01b0319166001600160a01b0383169081179091556040519081527f5cbd8a0bb00196365d5eb3457c6734e7f06666c3c78e5469b4c9deec7edae048906020015b60405180910390a150565b600061135361117288614328565b6020808901356000908152600180835260408083208c358452909352919020015490915081146113955760405162461bcd60e51b81526004016104309061462b565b6113c36113a188614328565b878787876113b488611198896000611d9c565b6111ac896111988a6001611d9c565b50505050505050565b60006113e383836113dc8c6146eb565b9190612172565b905060006113f86113f38b6146eb565b612562565b905061140382611bfd565b600080805260016020818152855183527fa6eef7e35abe7026729641147f7915573c7e97b47efa546f5f6e3230263bcb499052604090912001541461145a5760405162461bcd60e51b81526004016104309061462b565b61054c828a8a8a8a6114718b611198896000611d9c565b6111ac8c6111988a6001611d9c565b60008060006114976003546001600160a01b031690565b6040805160048152602480820183526020820180516001600160e01b0316637de5dedd60e01b17905291516001600160a01b039390931692634bb5274a926114e0929101614212565b6040516020818303038152906040529060e01b6020820180516001600160e01b03838183161783525050505060405161151991906141ca565b600060405180830381855afa9150503d8060008114611554576040519150601f19603f3d011682016040523d82523d6000602084013e611559565b606091505b5091509150816115d15760405162461bcd60e51b815260206004820152603860248201527f476f7665726e616e636541646d696e3a2070726f78792063616c6c20606d696e60448201527f696d756d566f7465576569676874282960206661696c656400000000000000006064820152608401610430565b808060200190518101906115e59190614225565b9250505090565b6005548310156116575760405162461bcd60e51b815260206004820152603060248201527f424f73476f7665726e616e636550726f706f73616c3a20717565727920666f7260448201526f081bdd5d19185d1959081c195c9a5bd960821b6064820152608401610430565b851580159061166557508315155b6116c55760405162461bcd60e51b815260206004820152602b60248201527f424f73476f7665726e616e636550726f706f73616c3a20696e76616c6964206160448201526a0e4e4c2f240d8cadccee8d60ab1b6064820152608401610430565b60408051606081018252600080825260208201819052918101919091526000806000611724878c8c808060200260200160405190810160405280939291908181526020018383602002808284376000920191909152506126bc92505050565b905060006117328683611df2565b6000898152600660205260408120919250805b8b8110156118b4578c8c8281811061175f5761175f614102565b90506060020180360381019061177591906147b5565b975061178f8489600001518a602001518b6040015161271d565b9650866001600160a01b0316866001600160a01b0316106117fe5760405162461bcd60e51b8152602060048201526024808201527f424f73476f7665726e616e636550726f706f73616c3a20696e76616c6964206f604482015263393232b960e11b6064820152608401610430565b869550600061180c88612745565b905080156118a1576001600160a01b03881660008181526007602090815260408083204390558f835260088252808320938352928152908290208b51815460ff191660ff909116178155908b0151600180830191909155918b015160029091015592508261187d858a848f8b6128b0565b600381111561188e5761188e613b38565b036118a1575050505050505050506113c3565b50806118ac81614118565b915050611745565b50806119145760405162461bcd60e51b815260206004820152602960248201527f424f73476f7665726e616e636550726f706f73616c3a20696e76616c6964207360448201526869676e61747572657360b81b6064820152608401610430565b5050505050505050505050505050565b60008281526001602090815260408083208484529091529020611946816129ac565b50505050565b60008760000361199e5760405162461bcd60e51b815260206004820181905260248201527f436f7265476f7665726e616e63653a20696e76616c696420636861696e2069646044820152606401610430565b6040805160e08101825260008a815260208190529182205481906119c39060016140ef565b81526020018a8152602001898152602001888152602001878152602001868152602001858152509050611a016002548261233890919063ffffffff16565b6000611a0c82611bfd565b9050611a198a828b612434565b925080838b7fa57d40f1496988cf60ab7c9d5ba4ff83647f67d3898d441a3aaf21b651678fd98588604051611a4f92919061481c565b60405180910390a45050979650505050505050565b600380546001600160a01b0319166001600160a01b0383169081179091556040519081527ffd6f5f93d69a07c593a09be0b208bff13ab4ffd6017df3b33433d63bdc59b4d79060200161133a565b611aba61384b565b611ace611ac68b6146eb565b858585612b18565b5090506000611adf6113f38c6146eb565b9050611b07828b8b8b8b611af88c611198896000611d9c565b6111ac8d6111988a6001611d9c565b509998505050505050505050565b6020820151600090808203611b6c5760405162461bcd60e51b815260206004820181905260248201527f436f7265476f7665726e616e63653a20696e76616c696420636861696e2069646044820152606401610430565b600254611b7a908590612338565b6000611b8585611bfd565b9050611b9682828760400151612434565b85519093508314611bb95760405162461bcd60e51b815260040161043090614846565b8083837fa57d40f1496988cf60ab7c9d5ba4ff83647f67d3898d441a3aaf21b651678fd98888604051611bed92919061481c565b60405180910390a4505092915050565b6000806000806000808660800151905060008760600151905060008860a00151516001600160401b03811115611c3557611c35613ebe565b604051908082528060200260200182016040528015611c5e578160200160208202803683370190505b5060c08a015190915060005b8251811015611cc7578a60a001518181518110611c8957611c89614102565b602002602001015180519060200120838281518110611caa57611caa614102565b602090810291909101015280611cbf81614118565b915050611c6a565b506020835102602084012097506020845102602085012096506020825102602083012095506020815102602082012094507fd051578048e6ff0bbc9fca3b65a42088dbde10f36ca841de566711087ad9b08a60001b8a600001518b602001518c604001518b8b8b8b604051602001611d77989796959493929190978852602088019690965260408701949094526060860192909252608085015260a084015260c083015260e08201526101000190565b6040516020818303038152906040528051906020012098505050505050505050919050565b604051600090611dd4907fd900570327c4c0df8dd6bdd522b7da7e39145dd049d2fd4602276adcd511e3c2908590859060200161488c565b60405160208183030381529060405280519060200120905092915050565b60405161190160f01b60208201526022810183905260428101829052600090606201611dd4565b8415801590611e2757508483145b611e845760405162461bcd60e51b815260206004820152602860248201527f476f7665726e616e636550726f706f73616c3a20696e76616c696420617272616044820152670f240d8cadccee8d60c31b6064820152608401610430565b6000611e8e611480565b9050600081611e9b612bd5565b611ea591906148b1565b611eb09060016140ef565b9050600080611ed8604080516060810182526000808252602082018190529181019190915290565b6000805b89811015612106578a8a82818110611ef657611ef6614102565b905060600201803603810190611f0c91906147b5565b925060008d8d83818110611f2257611f22614102565b9050602002016020810190611f3791906148c4565b6001811115611f4857611f48613b38565b03611f6c57611f658984600001518560200151866040015161271d565b9350612027565b60018d8d83818110611f8057611f80614102565b9050602002016020810190611f9591906148c4565b6001811115611fa657611fa6613b38565b03611fc357611f658884600001518560200151866040015161271d565b60405162461bcd60e51b815260206004820152603360248201527f476f7665726e616e636550726f706f73616c3a20717565727920666f7220756e604482015272737570706f7274656420766f7465207479706560681b6064820152608401610430565b836001600160a01b0316856001600160a01b0316106120925760405162461bcd60e51b815260206004820152602160248201527f476f7665726e616e636550726f706f73616c3a20696e76616c6964206f7264656044820152603960f91b6064820152608401610430565b83945060006120a085610fdd565b905080156120f357600192506120e18f8f8f858181106120c2576120c2614102565b90506020020160208101906120d791906148c4565b8a8a898987612d1c565b156120f35750505050505050506113c3565b50806120fe81614118565b915050611edc565b50806121635760405162461bcd60e51b815260206004820152602660248201527f476f7665726e616e636550726f706f73616c3a20696e76616c6964207369676e60448201526561747572657360d01b6064820152608401610430565b50505050505050505050505050565b61217a61384b565b83518152602080850151604080840191909152600091830191909152840151516001600160401b038111156121b1576121b1613ebe565b6040519080825280602002602001820160405280156121da578160200160208202803683370190505b5060608083019190915284015160808083019190915284015160a08083019190915284015160c082015260005b846040015151811015610b6b5760018560400151828151811061222c5761222c614102565b6020026020010151600181111561224557612245613b38565b0361228657828260600151828151811061226157612261614102565b60200260200101906001600160a01b031690816001600160a01b031681525050612326565b60008560400151828151811061229e5761229e614102565b602002602001015160018111156122b7576122b7613b38565b036122d357838260600151828151811061226157612261614102565b60405162461bcd60e51b815260206004820152602260248201527f476c6f62616c50726f706f73616c3a20756e737570706f727465642074617267604482015261195d60f21b6064820152608401610430565b8061233081614118565b915050612207565b60008260600151511180156123565750816080015151826060015151145b801561236b57508160a0015151826060015151145b801561238057508160c0015151826060015151145b6123cc5760405162461bcd60e51b815260206004820152601e60248201527f50726f706f73616c3a20696e76616c6964206172726179206c656e67746800006044820152606401610430565b6123d681426140ef565b82604001511115610d615760405162461bcd60e51b815260206004820152602260248201527f50726f706f73616c3a20696e76616c6964206578706972792074696d6573746160448201526106d760f41b6064820152608401610430565b6000838152602081905260408120549081900361246557506000838152602081905260409020600190819055612535565b6000848152600160209081526040808320848452909152812090612488826129ac565b905080612532576000825460ff1660038111156124a7576124a7613b38565b0361250e5760405162461bcd60e51b815260206004820152603160248201527f436f7265476f7665726e616e63653a2063757272656e742070726f706f73616c604482015270081a5cc81b9bdd0818dbdb5c1b195d1959607a1b6064820152608401610430565b6000868152602081905260408120805490919061252a90614118565b918290555092505b50505b60009384526001602081815260408087208488529091529094209384019290925560069092019190915590565b6000806000806000808660600151905060008760400151905060008860800151516001600160401b0381111561259a5761259a613ebe565b6040519080825280602002602001820160405280156125c3578160200160208202803683370190505b5060a08a015190915060005b825181101561262c578a6080015181815181106125ee576125ee614102565b60200260200101518051906020012083828151811061260f5761260f614102565b60209081029190910101528061262481614118565b9150506125cf565b5082516020908102848201208551820286830120845183028584012084518402858501208e518f860151604080517f1463f426c05aff2c1a7a0957a71c9898bc8b47142540538e79ee25ee911413509881019890985287019190915260608601526080850184905260a0850183905260c0850182905260e08501819052929b509099509750955061010001611d77565b8051602090810291810191909120604080517feea5e3908ac28cbdbbce8853e49444c558a0a03597e98ef19e6ff86162ed9ae38185015280820194909452606080850192909252805180850390920182526080909301909252815191012090565b600080600061272e878787876130e3565b9150915061273b816131d0565b5095945050505050565b600080600061275c6003546001600160a01b031690565b604080516001600160a01b03878116602480840191909152835180840382018152604490930184526020830180516001600160e01b0316635624191160e01b1790529251931692634bb5274a926127b4929101614212565b6040516020818303038152906040529060e01b6020820180516001600160e01b0383818316178352505050506040516127ed91906141ca565b600060405180830381855afa9150503d8060008114612828576040519150601f19603f3d011682016040523d82523d6000602084013e61282d565b606091505b50915091508161113d5760405162461bcd60e51b815260206004820152604260248201527f476f7665726e616e636541646d696e3a2070726f78792063616c6c206067657460448201527f427269646765566f74657257656967687428616464726573732960206661696c606482015261195960f21b608482015260a401610430565b6001600160a01b03841660009081526002860160205260408120541561291a576128e4856001600160a01b03166014613386565b6040516020016128f491906148e1565b60408051601f198184030181529082905262461bcd60e51b825261043091600401614212565b6001600160a01b03851660009081526002870160209081526040808320859055848352600389019091528120805486919083906129589084906140ef565b925050819055905083811015801561298557506000875460ff16600381111561298357612983613b38565b145b1561299d57865460ff19166001908117885587018390555b5050935460ff16949350505050565b60068101544210801590612b135760018201546040517f58f98006a7f2f253f8ae8f8b7cec9008ca05359633561cd7c22f3005682d4a5590600090a260005b6004830154811015612a5b57826007016000846004018381548110612a1257612a12614102565b60009182526020808320909101546001600160a01b031683528201929092526040018120805460ff19168155600181018290556002015580612a5381614118565b9150506129eb565b5060005b6005830154811015612acf57826007016000846005018381548110612a8657612a86614102565b60009182526020808320909101546001600160a01b031683528201929092526040018120805460ff19168155600181018290556002015580612ac781614118565b915050612a5f565b50815460ff191682556000600183018190556002830181905560038301819055612afd906004840190613888565b612b0b600583016000613888565b600060068301555b919050565b612b2061384b565b6000612b2d868686612172565b9150612b446002548361233890919063ffffffff16565b6000612b4f83611bfd565b9050612b616000828960200151612434565b83519092508214612b845760405162461bcd60e51b815260040161043090614846565b80827f771d78ae9e5fca95a532fb0971d575d0ce9b59d14823c063e08740137e0e0eca85612bb18b612562565b8b89604051612bc39493929190614544565b60405180910390a35094509492505050565b6000806000612bec6003546001600160a01b031690565b6040805160048152602480820183526020820180516001600160e01b031663926323d560e01b17905291516001600160a01b039390931692634bb5274a92612c35929101614212565b6040516020818303038152906040529060e01b6020820180516001600160e01b038381831617835250505050604051612c6e91906141ca565b600060405180830381855afa9150503d8060008114612ca9576040519150601f19603f3d011682016040523d82523d6000602084013e612cae565b606091505b5091509150816115d15760405162461bcd60e51b815260206004820152603360248201527f476f7665726e616e636541646d696e3a2070726f78792063616c6c2060746f74604482015272185b15d95a59da1d1cca0a580819985a5b1959606a1b6064820152608401610430565b60208088015188516000828152600184526040808220838352909452928320612d44816129ac565b15612d5557600193505050506130d8565b6020808c015160009081529081905260409020548214612dd05760405162461bcd60e51b815260206004820152603060248201527f436f7265476f7665726e616e63653a20717565727920666f7220696e76616c6960448201526f642070726f706f73616c206e6f6e636560801b6064820152608401610430565b6000815460ff166003811115612de857612de8613b38565b14612e435760405162461bcd60e51b815260206004820152602560248201527f436f7265476f7665726e616e63653a2074686520766f74652069732066696e616044820152641b1a5e995960da1b6064820152608401610430565b6001600160a01b038716600090815260078201602052604090206001015415612e8a57612e7a876001600160a01b03166014613386565b6040516020016128f49190614935565b6001600160a01b03871660008181526007830160209081526040918290208951815460ff191660ff909116178155908901516001808301919091558983015160029092019190915583015490517f1203f9e81c814a35f5f4cc24087b2a24c6fb7986a9f1406b68a9484882c93a2390612f06908e908a90614985565b60405180910390a3600080808c6001811115612f2457612f24613b38565b03612f79576004830180546001810182556000918252602082200180546001600160a01b0319166001600160a01b038c16179055600384018054899290612f6c9084906140ef565b9250508190559150613038565b60018c6001811115612f8d57612f8d613b38565b03612fe2576005830180546001810182556000918252602082200180546001600160a01b0319166001600160a01b038c16179055600284018054899290612fd59084906140ef565b9250508190559050613038565b60405162461bcd60e51b815260206004820152602560248201527f436f7265476f7665726e616e63653a20756e737570706f7274656420766f7465604482015264207479706560d81b6064820152608401610430565b8a821061308c57825460ff19166001908117845580840154604051919750907f5c819725ea53655a3b898f3df59b66489761935454e9212ca1e5ebd759953d0b90600090a2613087838e613521565b6130d2565b8981106130d257825460ff19166003178355600180840154604051919750907f55295d4ce992922fa2e5ffbf3a3dcdb367de0a15e125ace083456017fd22060f90600090a25b50505050505b979650505050505050565b6000807f7fffffffffffffffffffffffffffffff5d576e7357a4501ddfe92f46681b20a083111561311a57506000905060036131c7565b8460ff16601b1415801561313257508460ff16601c14155b1561314357506000905060046131c7565b6040805160008082526020820180845289905260ff881692820192909252606081018690526080810185905260019060a0016020604051602081039080840390855afa158015613197573d6000803e3d6000fd5b5050604051601f1901519150506001600160a01b0381166131c0576000600192509250506131c7565b9150600090505b94509492505050565b60008160048111156131e4576131e4613b38565b036131ec5750565b600181600481111561320057613200613b38565b0361324d5760405162461bcd60e51b815260206004820152601860248201527f45434453413a20696e76616c6964207369676e617475726500000000000000006044820152606401610430565b600281600481111561326157613261613b38565b036132ae5760405162461bcd60e51b815260206004820152601f60248201527f45434453413a20696e76616c6964207369676e6174757265206c656e677468006044820152606401610430565b60038160048111156132c2576132c2613b38565b0361331a5760405162461bcd60e51b815260206004820152602260248201527f45434453413a20696e76616c6964207369676e6174757265202773272076616c604482015261756560f01b6064820152608401610430565b600481600481111561332e5761332e613b38565b036105aa5760405162461bcd60e51b815260206004820152602260248201527f45434453413a20696e76616c6964207369676e6174757265202776272076616c604482015261756560f01b6064820152608401610430565b6060600061339583600261499c565b6133a09060026140ef565b6001600160401b038111156133b7576133b7613ebe565b6040519080825280601f01601f1916602001820160405280156133e1576020820181803683370190505b509050600360fc1b816000815181106133fc576133fc614102565b60200101906001600160f81b031916908160001a905350600f60fb1b8160018151811061342b5761342b614102565b60200101906001600160f81b031916908160001a905350600061344f84600261499c565b61345a9060016140ef565b90505b60018111156134d2576f181899199a1a9b1b9c1cb0b131b232b360811b85600f166010811061348e5761348e614102565b1a60f81b8282815181106134a4576134a4614102565b60200101906001600160f81b031916908160001a90535060049490941c936134cb816149b3565b905061345d565b5083156104865760405162461bcd60e51b815260206004820181905260248201527f537472696e67733a20686578206c656e67746820696e73756666696369656e746044820152606401610430565b61352a8161358e565b15610d6157815460ff19166002178255600080613546836135a8565b9150915083600101547fe134987599ae266ec90edeff1b26125b287dbb57b10822649432d1bb26537fba83836040516135809291906149ca565b60405180910390a250505050565b600081602001516000148061048957505060200151461490565b6060806135b48361358e565b61360c5760405162461bcd60e51b815260206004820152602360248201527f50726f706f73616c3a20717565727920666f7220696e76616c696420636861696044820152621b925960ea1b6064820152608401610430565b8260600151516001600160401b0381111561362957613629613ebe565b604051908082528060200260200182016040528015613652578160200160208202803683370190505b5091508260600151516001600160401b0381111561367257613672613ebe565b6040519080825280602002602001820160405280156136a557816020015b60608152602001906001900390816136905790505b50905060005b836060015151811015613845578360c0015181815181106136ce576136ce614102565b60200260200101515a116137245760405162461bcd60e51b815260206004820152601a60248201527f50726f706f73616c3a20696e73756666696369656e74206761730000000000006044820152606401610430565b8360600151818151811061373a5761373a614102565b60200260200101516001600160a01b03168460800151828151811061376157613761614102565b60200260200101518560c00151838151811061377f5761377f614102565b6020026020010151908660a00151848151811061379e5761379e614102565b60200260200101516040516137b391906141ca565b600060405180830381858888f193505050503d80600081146137f1576040519150601f19603f3d011682016040523d82523d6000602084013e6137f6565b606091505b5084838151811061380957613809614102565b6020026020010184848151811061382257613822614102565b6020908102919091010191909152901515905261383e81614118565b90506136ab565b50915091565b6040518060e00160405280600081526020016000815260200160008152602001606081526020016060815260200160608152602001606081525090565b50805460008255906000526020600020908101906105aa91905b808211156138b657600081556001016138a2565b5090565b60008083601f8401126138cc57600080fd5b5081356001600160401b038111156138e357600080fd5b6020830191508360208260051b85010111156138fe57600080fd5b9250929050565b60008083601f84011261391757600080fd5b5081356001600160401b0381111561392e57600080fd5b6020830191508360206060830285010111156138fe57600080fd5b60008060008060006060868803121561396157600080fd5b85356001600160401b038082111561397857600080fd5b9087019060e0828a03121561398c57600080fd5b909550602087013590808211156139a257600080fd5b6139ae89838a016138ba565b909650945060408801359150808211156139c757600080fd5b506139d488828901613905565b969995985093965092949392505050565b6001600160a01b03811681146105aa57600080fd5b60008060408385031215613a0d57600080fd5b823591506020830135613a1f816139e5565b809150509250929050565b600080600080600080600080600060a08a8c031215613a4857600080fd5b8935985060208a01356001600160401b0380821115613a6657600080fd5b613a728d838e016138ba565b909a50985060408c0135915080821115613a8b57600080fd5b613a978d838e016138ba565b909850965060608c0135915080821115613ab057600080fd5b613abc8d838e016138ba565b909650945060808c0135915080821115613ad557600080fd5b50613ae28c828d016138ba565b915080935050809150509295985092959850929598565b600060208284031215613b0b57600080fd5b8135610486816139e5565b60008060408385031215613b2957600080fd5b50508035926020909101359150565b634e487b7160e01b600052602160045260246000fd5b600281106105aa576105aa613b38565b600081518084526020808501945080840160005b83811015613ba7578151805160ff16885283810151848901526040908101519088015260609096019590820190600101613b72565b509495945050505050565b604080825283519082018190526000906020906060840190828701845b82811015613bf4578151613be281613b4e565b84529284019290840190600101613bcf565b50505083810382850152613c088186613b5e565b9695505050505050565b600080600060608486031215613c2757600080fd5b83359250602084013591506040840135613c40816139e5565b809150509250925092565b600060208284031215613c5d57600080fd5b5035919050565b600080600080600060608688031215613c7c57600080fd5b85356001600160401b0380821115613c9357600080fd5b9087019060c0828a03121561398c57600080fd5b600080600060408486031215613cbc57600080fd5b8335925060208401356001600160401b03811115613cd957600080fd5b613ce5868287016138ba565b9497909650939450505050565b6020815260006104866020830184613b5e565b600080600080600060608688031215613d1d57600080fd5b8535945060208601356001600160401b03808211156139a257600080fd5b60008060408385031215613d4e57600080fd5b8235613d59816139e5565b91506020830135613a1f816139e5565b60008060008060008060008060008060c08b8d031215613d8857600080fd5b8a35995060208b0135985060408b01356001600160401b0380821115613dad57600080fd5b613db98e838f016138ba565b909a50985060608d0135915080821115613dd257600080fd5b613dde8e838f016138ba565b909850965060808d0135915080821115613df757600080fd5b613e038e838f016138ba565b909650945060a08d0135915080821115613e1c57600080fd5b50613e298d828e016138ba565b915080935050809150509295989b9194979a5092959850565b60a0810160048710613e5657613e56613b38565b95815260208101949094526040840192909252606083015260809091015290565b60208082526027908201527f476f7665726e616e636541646d696e3a2073656e646572206973206e6f74206760408201526637bb32b93737b960c91b606082015260800190565b634e487b7160e01b600052604160045260246000fd5b60405160e081016001600160401b0381118282101715613ef657613ef6613ebe565b60405290565b60405160c081016001600160401b0381118282101715613ef657613ef6613ebe565b604051601f8201601f191681016001600160401b0381118282101715613f4657613f46613ebe565b604052919050565b60006001600160401b03821115613f6757613f67613ebe565b5060051b60200190565b6000613f84613f7f84613f4e565b613f1e565b8381529050602080820190600585901b840186811115613fa357600080fd5b845b818110156140365780356001600160401b0380821115613fc55760008081fd5b8188019150601f8a81840112613fdb5760008081fd5b823582811115613fed57613fed613ebe565b613ffe818301601f19168801613f1e565b92508083528b8782860101111561401757600091508182fd5b8087850188850137600090830187015250855250928201928201613fa5565b505050509392505050565b6000610486368484613f71565b60208082526027908201527f476f7665726e616e636541646d696e3a206f6e6c7920616c6c6f7765642073656040820152661b198b58d85b1b60ca1b606082015260800190565b60208082526024908201527f476f7665726e616e636541646d696e3a2073657420746f206e6f6e2d636f6e746040820152631c9858dd60e21b606082015260800190565b634e487b7160e01b600052601160045260246000fd5b80820180821115610489576104896140d9565b634e487b7160e01b600052603260045260246000fd5b60006001820161412a5761412a6140d9565b5060010190565b60006020828403121561414357600080fd5b8151610486816139e5565b83815260406020808301829052908201839052600090849060608401835b8681101561419a57833561417f816139e5565b6001600160a01b03168252928201929082019060010161416c565b50979650505050505050565b60005b838110156141c15781810151838201526020016141a9565b50506000910152565b600082516141dc8184602087016141a6565b9190910192915050565b600081518084526141fe8160208601602086016141a6565b601f01601f19169290920160200192915050565b60208152600061048660208301846141e6565b60006020828403121561423757600080fd5b5051919050565b600082601f83011261424f57600080fd5b8135602061425f613f7f83613f4e565b82815260059290921b8401810191818101908684111561427e57600080fd5b8286015b848110156142a2578035614295816139e5565b8352918301918301614282565b509695505050505050565b600082601f8301126142be57600080fd5b813560206142ce613f7f83613f4e565b82815260059290921b840181019181810190868411156142ed57600080fd5b8286015b848110156142a257803583529183019183016142f1565b600082601f83011261431957600080fd5b61048683833560208501613f71565b600060e0823603121561433a57600080fd5b614342613ed4565b82358152602083013560208201526040830135604082015260608301356001600160401b038082111561437457600080fd5b6143803683870161423e565b6060840152608085013591508082111561439957600080fd5b6143a5368387016142ad565b608084015260a08501359150808211156143be57600080fd5b6143ca36838701614308565b60a084015260c08501359150808211156143e357600080fd5b506143f0368286016142ad565b60c08301525092915050565b600081518084526020808501945080840160005b83811015613ba757815187529582019590820190600101614410565b600081518084526020808501808196508360051b8101915082860160005b858110156144745782840389526144628483516141e6565b9885019893509084019060010161444a565b5091979650505050505050565b600060e08301825184526020808401518186015260408401516040860152606084015160e06060870152828151808552610100880191508383019450600092505b808310156144eb5784516001600160a01b031682529383019360019290920191908301906144c2565b5060808601519350868103608088015261450581856143fc565b935050505060a083015184820360a0860152614521828261442c565b91505060c083015184820360c086015261453b82826143fc565b95945050505050565b6080815260006145576080830187614481565b60208681850152838203604085015260c08201865183528187015182840152604087015160c0604085015281815180845260e0860191508483019350600092505b808310156145c15783516145ab81613b4e565b8252928401926001929092019190840190614598565b506060890151935084810360608601526145db81856143fc565b9350505050608086015182820360808401526145f7828261442c565b91505060a086015182820360a084015261461182826143fc565b935050505061453b60608301846001600160a01b03169052565b6020808252602f908201527f476f7665726e616e636541646d696e3a206361737420766f746520666f72206960408201526e1b9d985b1a59081c1c9bdc1bdcd85b608a1b606082015260800190565b600281106105aa57600080fd5b600082601f83011261469857600080fd5b813560206146a8613f7f83613f4e565b82815260059290921b840181019181810190868411156146c757600080fd5b8286015b848110156142a25780356146de8161467a565b83529183019183016146cb565b600060c082360312156146fd57600080fd5b614705613efc565b823581526020830135602082015260408301356001600160401b038082111561472d57600080fd5b61473936838701614687565b6040840152606085013591508082111561475257600080fd5b61475e368387016142ad565b6060840152608085013591508082111561477757600080fd5b61478336838701614308565b608084015260a085013591508082111561479c57600080fd5b506147a9368286016142ad565b60a08301525092915050565b6000606082840312156147c757600080fd5b604051606081018181106001600160401b03821117156147e9576147e9613ebe565b604052823560ff811681146147fd57600080fd5b8152602083810135908201526040928301359281019290925250919050565b60408152600061482f6040830185614481565b905060018060a01b03831660208301529392505050565b60208082526026908201527f436f7265476f7665726e616e63653a20696e76616c69642070726f706f73616c604082015265206e6f6e636560d01b606082015260800190565b83815260208101839052606081016148a383613b4e565b826040830152949350505050565b81810381811115610489576104896140d9565b6000602082840312156148d657600080fd5b81356104868161467a565b73024b9b7b630ba32b223b7bb32b93730b731b29d160651b8152600082516149108160148501602087016141a6565b6d08185b1c9958591e481d9bdd195960921b6014939091019283015250602201919050565b6f021b7b932a3b7bb32b93730b731b29d160851b8152600082516149608160108501602087016141a6565b6d08185b1c9958591e481d9bdd195960921b6010939091019283015250601e01919050565b6040810161499284613b4e565b9281526020015290565b8082028115828204841417610489576104896140d9565b6000816149c2576149c26140d9565b506000190190565b604080825283519082018190526000906020906060840190828701845b82811015614a055781511515845292840192908401906001016149e7565b50505083810382850152613c08818661442c56fef8704f8860d9e985bf6c52ec4738bd10fe31487599b36c0944f746ea09dc256ba2646970667358221220b8c44859a99fef98140e7036521676f05098a664fa30b41b44982148a6a7162764736f6c63430008110033",
  "devdoc": {
    "events": {
      "BridgeOperatorsApproved(uint256,address[])": {
        "details": "Emitted when the bridge operators are approved."
      }
    },
    "kind": "dev",
    "methods": {
      "bridgeContract()": {
        "details": "Returns the bridge contract."
      },
      "bridgeOperatorsVoted(uint256,address)": {
        "details": "Returns whether the voter `_voter` casted vote for bridge operators at a specific period."
      },
      "castGlobalProposalBySignatures((uint256,uint256,uint8[],uint256[],bytes[],uint256[]),uint8[],(uint8,bytes32,bytes32)[])": {
        "details": "See `GovernanceProposal-_castGlobalProposalBySignatures`."
      },
      "castProposalBySignatures((uint256,uint256,uint256,address[],uint256[],bytes[],uint256[]),uint8[],(uint8,bytes32,bytes32)[])": {
        "details": "See `GovernanceProposal-_castProposalBySignatures`."
      },
      "changeProxyAdmin(address,address)": {
        "details": "Changes the admin of `_proxy` to `newAdmin`. Requirements: - This contract must be the current admin of `_proxy`."
      },
      "deleteExpired(uint256,uint256)": {
        "details": "See `CoreGovernance-_deleteExpiredProposal`"
      },
      "getBridgeOperatorVotingSignatures(uint256,address[])": {
        "details": "Returns the voted signatures for bridge operators at a specific period. Note: Does not verify whether the voter casted vote for the proposal and the returned signature can be empty. Please consider filtering for empty signatures after calling this function."
      },
      "getProposalExpiryDuration()": {
        "details": "Returns the proposal expiry duration."
      },
      "getProposalSignatures(uint256,uint256)": {
        "details": "Returns the voted signatures for the proposals."
      },
      "getProxyAdmin(address)": {
        "details": "Returns the current admin of `_proxy`. Requirements: - This contract must be the admin of `_proxy`."
      },
      "getProxyImplementation(address)": {
        "details": "Returns the current implementation of `_proxy`. Requirements: - This contract must be the admin of `_proxy`."
      },
      "lastVotedBlock(address)": {
        "details": "Returns the last voted block of the bridge voter."
      },
      "proposalVoted(uint256,uint256,address)": {
        "details": "Returns whether the voter `_voter` casted vote for the proposal."
      },
      "propose(uint256,uint256,address[],uint256[],bytes[],uint256[])": {
        "details": "See `CoreGovernance-_proposeProposal`. Requirements: - The method caller is governor."
      },
      "proposeGlobal(uint256,uint8[],uint256[],bytes[],uint256[])": {
        "details": "See `CoreGovernance-_proposeGlobal`. Requirements: - The method caller is governor."
      },
      "proposeGlobalProposalStructAndCastVotes((uint256,uint256,uint8[],uint256[],bytes[],uint256[]),uint8[],(uint8,bytes32,bytes32)[])": {
        "details": "See `GovernanceProposal-_proposeGlobalProposalStructAndCastVotes`. Requirements: - The method caller is governor."
      },
      "proposeProposalStructAndCastVotes((uint256,uint256,uint256,address[],uint256[],bytes[],uint256[]),uint8[],(uint8,bytes32,bytes32)[])": {
        "details": "See `GovernanceProposal-_proposeProposalStructAndCastVotes`. Requirements: - The method caller is governor."
      },
      "roninTrustedOrganizationContract()": {
        "details": "Returns the ronin trusted organization contract."
      },
      "setBridgeContract(address)": {
        "details": "Sets the bridge contract. Requirements: - The method caller is admin. - The new address is a contract. Emits the event `BridgeContractUpdated`."
      },
      "setProposalExpiryDuration(uint256)": {
        "details": "Sets the expiry duration for a new proposal. Requirements: - Only allowing self-call to this method, since this contract does not have admin."
      },
      "setRoninTrustedOrganizationContract(address)": {
        "details": "Sets the ronin trusted organization contract. Requirements: - The method caller is admin. - The new address is a contract. Emits the event `RoninTrustedOrganizationContractUpdated`."
      },
      "voteBridgeOperatorsBySignatures(uint256,address[],(uint8,bytes32,bytes32)[])": {
        "details": "See `BOsGovernanceProposal-_castVotesBySignatures`."
      }
    },
    "version": 1
  },
  "userdoc": {
    "kind": "user",
    "methods": {
      "round(uint256)": {
        "notice": "chain id = 0 for global proposal"
      }
    },
    "version": 1
  },
  "storageLayout": {
    "storage": [
      {
        "astId": 7167,
        "contract": "contracts/ronin/RoninGovernanceAdmin.sol:RoninGovernanceAdmin",
        "label": "round",
        "offset": 0,
        "slot": "0",
        "type": "t_mapping(t_uint256,t_uint256)"
      },
      {
        "astId": 7175,
        "contract": "contracts/ronin/RoninGovernanceAdmin.sol:RoninGovernanceAdmin",
        "label": "vote",
        "offset": 0,
        "slot": "1",
        "type": "t_mapping(t_uint256,t_mapping(t_uint256,t_struct(ProposalVote)7093_storage))"
      },
      {
        "astId": 7177,
        "contract": "contracts/ronin/RoninGovernanceAdmin.sol:RoninGovernanceAdmin",
        "label": "_proposalExpiryDuration",
        "offset": 0,
        "slot": "2",
        "type": "t_uint256"
      },
      {
        "astId": 6111,
        "contract": "contracts/ronin/RoninGovernanceAdmin.sol:RoninGovernanceAdmin",
        "label": "_roninTrustedOrganizationContract",
        "offset": 0,
        "slot": "3",
        "type": "t_contract(IRoninTrustedOrganization)9772"
      },
      {
        "astId": 5762,
        "contract": "contracts/ronin/RoninGovernanceAdmin.sol:RoninGovernanceAdmin",
        "label": "_bridgeContract",
        "offset": 0,
        "slot": "4",
        "type": "t_contract(IBridge)8924"
      },
      {
        "astId": 6650,
        "contract": "contracts/ronin/RoninGovernanceAdmin.sol:RoninGovernanceAdmin",
        "label": "_lastSyncedPeriod",
        "offset": 0,
        "slot": "5",
        "type": "t_uint256"
      },
      {
        "astId": 6656,
        "contract": "contracts/ronin/RoninGovernanceAdmin.sol:RoninGovernanceAdmin",
        "label": "_vote",
        "offset": 0,
        "slot": "6",
        "type": "t_mapping(t_uint256,t_struct(IsolatedVote)6522_storage)"
      },
      {
        "astId": 6661,
        "contract": "contracts/ronin/RoninGovernanceAdmin.sol:RoninGovernanceAdmin",
        "label": "_lastVotedBlock",
        "offset": 0,
        "slot": "7",
        "type": "t_mapping(t_address,t_uint256)"
      },
      {
        "astId": 6669,
        "contract": "contracts/ronin/RoninGovernanceAdmin.sol:RoninGovernanceAdmin",
        "label": "_votingSig",
        "offset": 0,
        "slot": "8",
        "type": "t_mapping(t_uint256,t_mapping(t_address,t_struct(Signature)10092_storage))"
      }
    ],
    "types": {
      "t_address": {
        "encoding": "inplace",
        "label": "address",
        "numberOfBytes": "20"
      },
      "t_array(t_address)dyn_storage": {
        "base": "t_address",
        "encoding": "dynamic_array",
        "label": "address[]",
        "numberOfBytes": "32"
      },
      "t_bytes32": {
        "encoding": "inplace",
        "label": "bytes32",
        "numberOfBytes": "32"
      },
      "t_contract(IBridge)8924": {
        "encoding": "inplace",
        "label": "contract IBridge",
        "numberOfBytes": "20"
      },
      "t_contract(IRoninTrustedOrganization)9772": {
        "encoding": "inplace",
        "label": "contract IRoninTrustedOrganization",
        "numberOfBytes": "20"
      },
      "t_enum(VoteStatus)10100": {
        "encoding": "inplace",
        "label": "enum VoteStatusConsumer.VoteStatus",
        "numberOfBytes": "1"
      },
      "t_mapping(t_address,t_bytes32)": {
        "encoding": "mapping",
        "key": "t_address",
        "label": "mapping(address => bytes32)",
        "numberOfBytes": "32",
        "value": "t_bytes32"
      },
      "t_mapping(t_address,t_struct(Signature)10092_storage)": {
        "encoding": "mapping",
        "key": "t_address",
        "label": "mapping(address => struct SignatureConsumer.Signature)",
        "numberOfBytes": "32",
        "value": "t_struct(Signature)10092_storage"
      },
      "t_mapping(t_address,t_uint256)": {
        "encoding": "mapping",
        "key": "t_address",
        "label": "mapping(address => uint256)",
        "numberOfBytes": "32",
        "value": "t_uint256"
      },
      "t_mapping(t_bytes32,t_uint256)": {
        "encoding": "mapping",
        "key": "t_bytes32",
        "label": "mapping(bytes32 => uint256)",
        "numberOfBytes": "32",
        "value": "t_uint256"
      },
      "t_mapping(t_uint256,t_mapping(t_address,t_struct(Signature)10092_storage))": {
        "encoding": "mapping",
        "key": "t_uint256",
        "label": "mapping(uint256 => mapping(address => struct SignatureConsumer.Signature))",
        "numberOfBytes": "32",
        "value": "t_mapping(t_address,t_struct(Signature)10092_storage)"
      },
      "t_mapping(t_uint256,t_mapping(t_uint256,t_struct(ProposalVote)7093_storage))": {
        "encoding": "mapping",
        "key": "t_uint256",
        "label": "mapping(uint256 => mapping(uint256 => struct CoreGovernance.ProposalVote))",
        "numberOfBytes": "32",
        "value": "t_mapping(t_uint256,t_struct(ProposalVote)7093_storage)"
      },
      "t_mapping(t_uint256,t_struct(IsolatedVote)6522_storage)": {
        "encoding": "mapping",
        "key": "t_uint256",
        "label": "mapping(uint256 => struct IsolatedGovernance.IsolatedVote)",
        "numberOfBytes": "32",
        "value": "t_struct(IsolatedVote)6522_storage"
      },
      "t_mapping(t_uint256,t_struct(ProposalVote)7093_storage)": {
        "encoding": "mapping",
        "key": "t_uint256",
        "label": "mapping(uint256 => struct CoreGovernance.ProposalVote)",
        "numberOfBytes": "32",
        "value": "t_struct(ProposalVote)7093_storage"
      },
      "t_mapping(t_uint256,t_uint256)": {
        "encoding": "mapping",
        "key": "t_uint256",
        "label": "mapping(uint256 => uint256)",
        "numberOfBytes": "32",
        "value": "t_uint256"
      },
      "t_struct(IsolatedVote)6522_storage": {
        "encoding": "inplace",
        "label": "struct IsolatedGovernance.IsolatedVote",
        "members": [
          {
            "astId": 6509,
            "contract": "contracts/ronin/RoninGovernanceAdmin.sol:RoninGovernanceAdmin",
            "label": "status",
            "offset": 0,
            "slot": "0",
            "type": "t_enum(VoteStatus)10100"
          },
          {
            "astId": 6511,
            "contract": "contracts/ronin/RoninGovernanceAdmin.sol:RoninGovernanceAdmin",
            "label": "finalHash",
            "offset": 0,
            "slot": "1",
            "type": "t_bytes32"
          },
          {
            "astId": 6516,
            "contract": "contracts/ronin/RoninGovernanceAdmin.sol:RoninGovernanceAdmin",
            "label": "voteHashOf",
            "offset": 0,
            "slot": "2",
            "type": "t_mapping(t_address,t_bytes32)"
          },
          {
            "astId": 6521,
            "contract": "contracts/ronin/RoninGovernanceAdmin.sol:RoninGovernanceAdmin",
            "label": "weight",
            "offset": 0,
            "slot": "3",
            "type": "t_mapping(t_bytes32,t_uint256)"
          }
        ],
        "numberOfBytes": "128"
      },
      "t_struct(ProposalVote)7093_storage": {
        "encoding": "inplace",
        "label": "struct CoreGovernance.ProposalVote",
        "members": [
          {
            "astId": 7073,
            "contract": "contracts/ronin/RoninGovernanceAdmin.sol:RoninGovernanceAdmin",
            "label": "status",
            "offset": 0,
            "slot": "0",
            "type": "t_enum(VoteStatus)10100"
          },
          {
            "astId": 7075,
            "contract": "contracts/ronin/RoninGovernanceAdmin.sol:RoninGovernanceAdmin",
            "label": "hash",
            "offset": 0,
            "slot": "1",
            "type": "t_bytes32"
          },
          {
            "astId": 7077,
            "contract": "contracts/ronin/RoninGovernanceAdmin.sol:RoninGovernanceAdmin",
            "label": "againstVoteWeight",
            "offset": 0,
            "slot": "2",
            "type": "t_uint256"
          },
          {
            "astId": 7079,
            "contract": "contracts/ronin/RoninGovernanceAdmin.sol:RoninGovernanceAdmin",
            "label": "forVoteWeight",
            "offset": 0,
            "slot": "3",
            "type": "t_uint256"
          },
          {
            "astId": 7082,
            "contract": "contracts/ronin/RoninGovernanceAdmin.sol:RoninGovernanceAdmin",
            "label": "forVoteds",
            "offset": 0,
            "slot": "4",
            "type": "t_array(t_address)dyn_storage"
          },
          {
            "astId": 7085,
            "contract": "contracts/ronin/RoninGovernanceAdmin.sol:RoninGovernanceAdmin",
            "label": "againstVoteds",
            "offset": 0,
            "slot": "5",
            "type": "t_array(t_address)dyn_storage"
          },
          {
            "astId": 7087,
            "contract": "contracts/ronin/RoninGovernanceAdmin.sol:RoninGovernanceAdmin",
            "label": "expiryTimestamp",
            "offset": 0,
            "slot": "6",
            "type": "t_uint256"
          },
          {
            "astId": 7092,
            "contract": "contracts/ronin/RoninGovernanceAdmin.sol:RoninGovernanceAdmin",
            "label": "sig",
            "offset": 0,
            "slot": "7",
            "type": "t_mapping(t_address,t_struct(Signature)10092_storage)"
          }
        ],
        "numberOfBytes": "256"
      },
      "t_struct(Signature)10092_storage": {
        "encoding": "inplace",
        "label": "struct SignatureConsumer.Signature",
        "members": [
          {
            "astId": 10087,
            "contract": "contracts/ronin/RoninGovernanceAdmin.sol:RoninGovernanceAdmin",
            "label": "v",
            "offset": 0,
            "slot": "0",
            "type": "t_uint8"
          },
          {
            "astId": 10089,
            "contract": "contracts/ronin/RoninGovernanceAdmin.sol:RoninGovernanceAdmin",
            "label": "r",
            "offset": 0,
            "slot": "1",
            "type": "t_bytes32"
          },
          {
            "astId": 10091,
            "contract": "contracts/ronin/RoninGovernanceAdmin.sol:RoninGovernanceAdmin",
            "label": "s",
            "offset": 0,
            "slot": "2",
            "type": "t_bytes32"
          }
        ],
        "numberOfBytes": "96"
      },
      "t_uint256": {
        "encoding": "inplace",
        "label": "uint256",
        "numberOfBytes": "32"
      },
      "t_uint8": {
        "encoding": "inplace",
        "label": "uint8",
        "numberOfBytes": "1"
      }
    }
  }
}