{
  "address": "0xae55883e4155A2c216C4cBa9a84aC5910a17313b",
  "abi": [
    {
      "inputs": [],
      "stateMutability": "nonpayable",
      "type": "constructor"
    },
    {
      "inputs": [],
      "name": "ErrAlreadyRequestedEmergencyExit",
      "type": "error"
    },
    {
      "inputs": [],
      "name": "ErrAlreadyRequestedRevokingCandidate",
      "type": "error"
    },
    {
      "inputs": [],
      "name": "ErrAlreadyRequestedUpdatingCommissionRate",
      "type": "error"
    },
    {
      "inputs": [],
      "name": "ErrAlreadyWrappedEpoch",
      "type": "error"
    },
    {
      "inputs": [],
      "name": "ErrAtEndOfEpochOnly",
      "type": "error"
    },
    {
      "inputs": [],
      "name": "ErrCallPrecompiled",
      "type": "error"
    },
    {
      "inputs": [],
      "name": "ErrCallerMustBeCoinbase",
      "type": "error"
    },
    {
      "inputs": [
        {
          "internalType": "address",
          "name": "validator",
          "type": "address"
        }
      ],
      "name": "ErrCannotBailout",
      "type": "error"
    },
    {
      "inputs": [
        {
          "internalType": "enum ContractType",
          "name": "contractType",
          "type": "uint8"
        }
      ],
      "name": "ErrContractTypeNotFound",
      "type": "error"
    },
    {
      "inputs": [],
      "name": "ErrExceedsMaxNumberOfCandidate",
      "type": "error"
    },
    {
      "inputs": [],
      "name": "ErrExistentCandidate",
      "type": "error"
    },
    {
      "inputs": [
        {
          "internalType": "address",
          "name": "candidateAdminAddr",
          "type": "address"
        }
      ],
      "name": "ErrExistentCandidateAdmin",
      "type": "error"
    },
    {
      "inputs": [
        {
          "internalType": "address",
          "name": "_treasuryAddr",
          "type": "address"
        }
      ],
      "name": "ErrExistentTreasury",
      "type": "error"
    },
    {
      "inputs": [
        {
          "internalType": "bytes4",
          "name": "msgSig",
          "type": "bytes4"
        },
        {
          "internalType": "uint256",
          "name": "currentBalance",
          "type": "uint256"
        },
        {
          "internalType": "uint256",
          "name": "sendAmount",
          "type": "uint256"
        }
      ],
      "name": "ErrInsufficientBalance",
      "type": "error"
    },
    {
      "inputs": [],
      "name": "ErrInvalidCommissionRate",
      "type": "error"
    },
    {
      "inputs": [],
      "name": "ErrInvalidEffectiveDaysOnwards",
      "type": "error"
    },
    {
      "inputs": [],
      "name": "ErrInvalidMaxPrioritizedValidatorNumber",
      "type": "error"
    },
    {
      "inputs": [],
      "name": "ErrInvalidMinEffectiveDaysOnwards",
      "type": "error"
    },
    {
      "inputs": [
        {
          "internalType": "address",
          "name": "cid",
          "type": "address"
        }
      ],
      "name": "ErrLockedFundMightBeRecycled",
      "type": "error"
    },
    {
      "inputs": [
        {
          "internalType": "address",
          "name": "cid",
          "type": "address"
        }
      ],
      "name": "ErrLockedFundReleaseInfoNotFound",
      "type": "error"
    },
    {
      "inputs": [],
      "name": "ErrNonExistentCandidate",
      "type": "error"
    },
    {
      "inputs": [
        {
          "internalType": "bytes4",
          "name": "msgSig",
          "type": "bytes4"
        }
      ],
      "name": "ErrRecipientRevert",
      "type": "error"
    },
    {
      "inputs": [],
      "name": "ErrTrustedOrgCannotRenounce",
      "type": "error"
    },
    {
      "inputs": [
        {
          "internalType": "bytes4",
          "name": "msgSig",
          "type": "bytes4"
        },
        {
          "internalType": "enum RoleAccess",
          "name": "expectedRole",
          "type": "uint8"
        }
      ],
      "name": "ErrUnauthorized",
      "type": "error"
    },
    {
      "inputs": [],
      "name": "ErrUnauthorizedReceiveRON",
      "type": "error"
    },
    {
      "inputs": [
        {
          "internalType": "bytes4",
          "name": "msgSig",
          "type": "bytes4"
        },
        {
          "internalType": "enum ContractType",
          "name": "expectedContractType",
          "type": "uint8"
        },
        {
          "internalType": "address",
          "name": "actual",
          "type": "address"
        }
      ],
      "name": "ErrUnexpectedInternalCall",
      "type": "error"
    },
    {
      "inputs": [
        {
          "internalType": "address",
          "name": "addr",
          "type": "address"
        }
      ],
      "name": "ErrZeroCodeContract",
      "type": "error"
    },
    {
      "inputs": [],
      "name": "NonExistentRecyclingInfo",
      "type": "error"
    },
    {
      "anonymous": false,
      "inputs": [
        {
          "indexed": true,
          "internalType": "uint256",
          "name": "period",
          "type": "uint256"
        },
        {
          "indexed": true,
          "internalType": "uint256",
          "name": "epoch",
          "type": "uint256"
        },
        {
          "indexed": false,
          "internalType": "address[]",
          "name": "consensusAddrs",
          "type": "address[]"
        }
      ],
      "name": "BlockProducerSetUpdated",
      "type": "event"
    },
    {
      "anonymous": false,
      "inputs": [
        {
          "indexed": true,
          "internalType": "address",
          "name": "coinbaseAddr",
          "type": "address"
        },
        {
          "indexed": false,
          "internalType": "uint256",
          "name": "rewardAmount",
          "type": "uint256"
        },
        {
          "indexed": false,
          "internalType": "enum ICoinbaseExecution.BlockRewardDeprecatedType",
          "name": "deprecatedType",
          "type": "uint8"
        }
      ],
      "name": "BlockRewardDeprecated",
      "type": "event"
    },
    {
      "anonymous": false,
      "inputs": [
        {
          "indexed": true,
          "internalType": "address",
          "name": "coinbaseAddr",
          "type": "address"
        },
        {
          "indexed": false,
          "internalType": "uint256",
          "name": "submittedAmount",
          "type": "uint256"
        },
        {
          "indexed": false,
          "internalType": "uint256",
          "name": "bonusAmount",
          "type": "uint256"
        }
      ],
      "name": "BlockRewardSubmitted",
      "type": "event"
    },
    {
      "anonymous": false,
      "inputs": [
        {
          "indexed": true,
          "internalType": "address",
          "name": "consensusAddr",
          "type": "address"
        },
        {
          "indexed": true,
          "internalType": "address",
          "name": "bridgeOperator",
          "type": "address"
        },
        {
          "indexed": true,
          "internalType": "address",
          "name": "recipientAddr",
          "type": "address"
        },
        {
          "indexed": false,
          "internalType": "uint256",
          "name": "amount",
          "type": "uint256"
        }
      ],
      "name": "BridgeOperatorRewardDistributed",
      "type": "event"
    },
    {
      "anonymous": false,
      "inputs": [
        {
          "indexed": true,
          "internalType": "address",
          "name": "consensusAddr",
          "type": "address"
        },
        {
          "indexed": true,
          "internalType": "address",
          "name": "bridgeOperator",
          "type": "address"
        },
        {
          "indexed": true,
          "internalType": "address",
          "name": "recipient",
          "type": "address"
        },
        {
          "indexed": false,
          "internalType": "uint256",
          "name": "amount",
          "type": "uint256"
        },
        {
          "indexed": false,
          "internalType": "uint256",
          "name": "contractBalance",
          "type": "uint256"
        }
      ],
      "name": "BridgeOperatorRewardDistributionFailed",
      "type": "event"
    },
    {
      "anonymous": false,
      "inputs": [
        {
          "indexed": true,
          "internalType": "uint256",
          "name": "period",
          "type": "uint256"
        },
        {
          "indexed": true,
          "internalType": "uint256",
          "name": "epoch",
          "type": "uint256"
        },
        {
          "indexed": false,
          "internalType": "address[]",
          "name": "bridgeOperators",
          "type": "address[]"
        }
      ],
      "name": "BridgeOperatorSetUpdated",
      "type": "event"
    },
    {
      "anonymous": false,
      "inputs": [
        {
          "indexed": true,
          "internalType": "address",
          "name": "consensusAddr",
          "type": "address"
        },
        {
          "indexed": true,
          "internalType": "address",
          "name": "treasuryAddr",
          "type": "address"
        },
        {
          "indexed": true,
          "internalType": "address",
          "name": "admin",
          "type": "address"
        }
      ],
      "name": "CandidateGranted",
      "type": "event"
    },
    {
      "anonymous": false,
      "inputs": [
        {
          "indexed": true,
          "internalType": "address",
          "name": "cid",
          "type": "address"
        },
        {
          "indexed": false,
          "internalType": "uint256",
          "name": "revokingTimestamp",
          "type": "uint256"
        }
      ],
      "name": "CandidateRevokingTimestampUpdated",
      "type": "event"
    },
    {
      "anonymous": false,
      "inputs": [
        {
          "indexed": true,
          "internalType": "address",
          "name": "cid",
          "type": "address"
        },
        {
          "indexed": false,
          "internalType": "uint256",
          "name": "topupDeadline",
          "type": "uint256"
        }
      ],
      "name": "CandidateTopupDeadlineUpdated",
      "type": "event"
    },
    {
      "anonymous": false,
      "inputs": [
        {
          "indexed": false,
          "internalType": "address[]",
          "name": "consensusAddrs",
          "type": "address[]"
        }
      ],
      "name": "CandidatesRevoked",
      "type": "event"
    },
    {
      "anonymous": false,
      "inputs": [
        {
          "indexed": true,
          "internalType": "address",
          "name": "consensusAddr",
          "type": "address"
        },
        {
          "indexed": false,
          "internalType": "uint256",
          "name": "effectiveTimestamp",
          "type": "uint256"
        },
        {
          "indexed": false,
          "internalType": "uint256",
          "name": "rate",
          "type": "uint256"
        }
      ],
      "name": "CommissionRateUpdateScheduled",
      "type": "event"
    },
    {
      "anonymous": false,
      "inputs": [
        {
          "indexed": true,
          "internalType": "address",
          "name": "consensusAddr",
          "type": "address"
        },
        {
          "indexed": false,
          "internalType": "uint256",
          "name": "rate",
          "type": "uint256"
        }
      ],
      "name": "CommissionRateUpdated",
      "type": "event"
    },
    {
      "anonymous": false,
      "inputs": [
        {
          "indexed": true,
          "internalType": "enum ContractType",
          "name": "contractType",
          "type": "uint8"
        },
        {
          "indexed": true,
          "internalType": "address",
          "name": "addr",
          "type": "address"
        }
      ],
      "name": "ContractUpdated",
      "type": "event"
    },
    {
      "anonymous": false,
      "inputs": [
        {
          "indexed": true,
          "internalType": "address",
          "name": "recipientAddr",
          "type": "address"
        },
        {
          "indexed": false,
          "internalType": "uint256",
          "name": "amount",
          "type": "uint256"
        },
        {
          "indexed": false,
          "internalType": "uint256",
          "name": "balance",
          "type": "uint256"
        }
      ],
      "name": "DeprecatedRewardRecycleFailed",
      "type": "event"
    },
    {
      "anonymous": false,
      "inputs": [
        {
          "indexed": true,
          "internalType": "address",
          "name": "recipientAddr",
          "type": "address"
        },
        {
          "indexed": false,
          "internalType": "uint256",
          "name": "amount",
          "type": "uint256"
        }
      ],
      "name": "DeprecatedRewardRecycled",
      "type": "event"
    },
    {
      "anonymous": false,
      "inputs": [
        {
          "indexed": false,
          "internalType": "uint256",
          "name": "amount",
          "type": "uint256"
        }
      ],
      "name": "EmergencyExitLockedAmountUpdated",
      "type": "event"
    },
    {
      "anonymous": false,
      "inputs": [
        {
          "indexed": true,
          "internalType": "address",
          "name": "consensusAddr",
          "type": "address"
        },
        {
          "indexed": true,
          "internalType": "address",
          "name": "recipient",
          "type": "address"
        },
        {
          "indexed": false,
          "internalType": "uint256",
          "name": "unlockedAmount",
          "type": "uint256"
        }
      ],
      "name": "EmergencyExitLockedFundReleased",
      "type": "event"
    },
    {
      "anonymous": false,
      "inputs": [
        {
          "indexed": true,
          "internalType": "address",
          "name": "consensusAddr",
          "type": "address"
        },
        {
          "indexed": true,
          "internalType": "address",
          "name": "recipient",
          "type": "address"
        },
        {
          "indexed": false,
          "internalType": "uint256",
          "name": "unlockedAmount",
          "type": "uint256"
        },
        {
          "indexed": false,
          "internalType": "uint256",
          "name": "contractBalance",
          "type": "uint256"
        }
      ],
      "name": "EmergencyExitLockedFundReleasingFailed",
      "type": "event"
    },
    {
      "anonymous": false,
      "inputs": [
        {
          "indexed": true,
          "internalType": "address",
          "name": "consensusAddr",
          "type": "address"
        },
        {
          "indexed": false,
          "internalType": "uint256",
          "name": "lockedAmount",
          "type": "uint256"
        }
      ],
      "name": "EmergencyExitRequested",
      "type": "event"
    },
    {
      "anonymous": false,
      "inputs": [
        {
          "indexed": false,
          "internalType": "uint256",
          "name": "amount",
          "type": "uint256"
        }
      ],
      "name": "EmergencyExpiryDurationUpdated",
      "type": "event"
    },
    {
      "anonymous": false,
      "inputs": [
        {
          "indexed": true,
          "internalType": "address",
          "name": "consensusAddr",
          "type": "address"
        },
        {
          "indexed": true,
          "internalType": "address",
          "name": "recipient",
          "type": "address"
        },
        {
          "indexed": false,
          "internalType": "uint256",
          "name": "amount",
          "type": "uint256"
        }
      ],
      "name": "FastFinalityRewardDistributed",
      "type": "event"
    },
    {
      "anonymous": false,
      "inputs": [
        {
          "indexed": true,
          "internalType": "address",
          "name": "consensusAddr",
          "type": "address"
        },
        {
          "indexed": true,
          "internalType": "address",
          "name": "recipient",
          "type": "address"
        },
        {
          "indexed": false,
          "internalType": "uint256",
          "name": "amount",
          "type": "uint256"
        },
        {
          "indexed": false,
          "internalType": "uint256",
          "name": "contractBalance",
          "type": "uint256"
        }
      ],
      "name": "FastFinalityRewardDistributionFailed",
      "type": "event"
    },
    {
      "anonymous": false,
      "inputs": [
        {
          "indexed": false,
          "internalType": "uint8",
          "name": "version",
          "type": "uint8"
        }
      ],
      "name": "Initialized",
      "type": "event"
    },
    {
      "anonymous": false,
      "inputs": [
        {
          "indexed": false,
          "internalType": "uint256",
          "name": "",
          "type": "uint256"
        }
      ],
      "name": "MaxPrioritizedValidatorNumberUpdated",
      "type": "event"
    },
    {
      "anonymous": false,
      "inputs": [
        {
          "indexed": false,
          "internalType": "uint256",
          "name": "threshold",
          "type": "uint256"
        }
      ],
      "name": "MaxValidatorCandidateUpdated",
      "type": "event"
    },
    {
      "anonymous": false,
      "inputs": [
        {
          "indexed": false,
          "internalType": "uint256",
          "name": "",
          "type": "uint256"
        }
      ],
      "name": "MaxValidatorNumberUpdated",
      "type": "event"
    },
    {
      "anonymous": false,
      "inputs": [
        {
          "indexed": false,
          "internalType": "uint256",
          "name": "numOfDays",
          "type": "uint256"
        }
      ],
      "name": "MinEffectiveDaysOnwardsUpdated",
      "type": "event"
    },
    {
      "anonymous": false,
      "inputs": [
        {
          "indexed": true,
          "internalType": "address",
          "name": "consensusAddr",
          "type": "address"
        },
        {
          "indexed": true,
          "internalType": "address",
          "name": "recipient",
          "type": "address"
        },
        {
          "indexed": false,
          "internalType": "uint256",
          "name": "amount",
          "type": "uint256"
        }
      ],
      "name": "MiningRewardDistributed",
      "type": "event"
    },
    {
      "anonymous": false,
      "inputs": [
        {
          "indexed": true,
          "internalType": "address",
          "name": "consensusAddr",
          "type": "address"
        },
        {
          "indexed": true,
          "internalType": "address",
          "name": "recipient",
          "type": "address"
        },
        {
          "indexed": false,
          "internalType": "uint256",
          "name": "amount",
          "type": "uint256"
        },
        {
          "indexed": false,
          "internalType": "uint256",
          "name": "contractBalance",
          "type": "uint256"
        }
      ],
      "name": "MiningRewardDistributionFailed",
      "type": "event"
    },
    {
      "anonymous": false,
      "inputs": [
        {
          "indexed": false,
          "internalType": "uint256",
          "name": "totalAmount",
          "type": "uint256"
        },
        {
          "indexed": false,
          "internalType": "address[]",
          "name": "consensusAddrs",
          "type": "address[]"
        },
        {
          "indexed": false,
          "internalType": "uint256[]",
          "name": "amounts",
          "type": "uint256[]"
        }
      ],
      "name": "StakingRewardDistributed",
      "type": "event"
    },
    {
      "anonymous": false,
      "inputs": [
        {
          "indexed": false,
          "internalType": "uint256",
          "name": "totalAmount",
          "type": "uint256"
        },
        {
          "indexed": false,
          "internalType": "address[]",
          "name": "consensusAddrs",
          "type": "address[]"
        },
        {
          "indexed": false,
          "internalType": "uint256[]",
          "name": "amounts",
          "type": "uint256[]"
        },
        {
          "indexed": false,
          "internalType": "uint256",
          "name": "contractBalance",
          "type": "uint256"
        }
      ],
      "name": "StakingRewardDistributionFailed",
      "type": "event"
    },
    {
      "anonymous": false,
      "inputs": [
        {
          "indexed": true,
          "internalType": "address",
          "name": "cid",
          "type": "address"
        },
        {
          "indexed": true,
          "internalType": "uint256",
          "name": "period",
          "type": "uint256"
        },
        {
          "indexed": false,
          "internalType": "uint256",
          "name": "jailedUntil",
          "type": "uint256"
        },
        {
          "indexed": false,
          "internalType": "uint256",
          "name": "deductedStakingAmount",
          "type": "uint256"
        },
        {
          "indexed": false,
          "internalType": "bool",
          "name": "blockProducerRewardDeprecated",
          "type": "bool"
        },
        {
          "indexed": false,
          "internalType": "bool",
          "name": "bridgeOperatorRewardDeprecated",
          "type": "bool"
        }
      ],
      "name": "ValidatorPunished",
      "type": "event"
    },
    {
      "anonymous": false,
      "inputs": [
        {
          "indexed": true,
          "internalType": "uint256",
          "name": "period",
          "type": "uint256"
        },
        {
          "indexed": false,
          "internalType": "address[]",
          "name": "consensusAddrs",
          "type": "address[]"
        }
      ],
      "name": "ValidatorSetUpdated",
      "type": "event"
    },
    {
      "anonymous": false,
      "inputs": [
        {
          "indexed": true,
          "internalType": "address",
          "name": "cid",
          "type": "address"
        },
        {
          "indexed": false,
          "internalType": "uint256",
          "name": "period",
          "type": "uint256"
        }
      ],
      "name": "ValidatorUnjailed",
      "type": "event"
    },
    {
      "anonymous": false,
      "inputs": [
        {
          "indexed": true,
          "internalType": "uint256",
          "name": "periodNumber",
          "type": "uint256"
        },
        {
          "indexed": true,
          "internalType": "uint256",
          "name": "epochNumber",
          "type": "uint256"
        },
        {
          "indexed": false,
          "internalType": "bool",
          "name": "periodEnding",
          "type": "bool"
        }
      ],
      "name": "WrappedUpEpoch",
      "type": "event"
    },
    {
      "stateMutability": "payable",
      "type": "fallback"
    },
    {
      "inputs": [],
      "name": "DEFAULT_ADDITION_GAS",
      "outputs": [
        {
          "internalType": "uint256",
          "name": "",
          "type": "uint256"
        }
      ],
      "stateMutability": "view",
      "type": "function"
    },
    {
      "inputs": [],
      "name": "PERIOD_DURATION",
      "outputs": [
        {
          "internalType": "uint256",
          "name": "",
          "type": "uint256"
        }
      ],
      "stateMutability": "view",
      "type": "function"
    },
    {
      "inputs": [
        {
          "internalType": "TConsensus",
          "name": "consensus",
          "type": "address"
        }
      ],
      "name": "checkJailed",
      "outputs": [
        {
          "internalType": "bool",
          "name": "",
          "type": "bool"
        }
      ],
      "stateMutability": "view",
      "type": "function"
    },
    {
      "inputs": [
        {
          "internalType": "TConsensus",
          "name": "addr",
          "type": "address"
        },
        {
          "internalType": "uint256",
          "name": "blockNum",
          "type": "uint256"
        }
      ],
      "name": "checkJailedAtBlock",
      "outputs": [
        {
          "internalType": "bool",
          "name": "",
          "type": "bool"
        }
      ],
      "stateMutability": "view",
      "type": "function"
    },
    {
      "inputs": [
        {
          "internalType": "TConsensus[]",
          "name": "consensusList",
          "type": "address[]"
        }
      ],
      "name": "checkManyJailed",
      "outputs": [
        {
          "internalType": "bool[]",
          "name": "",
          "type": "bool[]"
        }
      ],
      "stateMutability": "view",
      "type": "function"
    },
    {
      "inputs": [
        {
          "internalType": "address[]",
          "name": "candidateIds",
          "type": "address[]"
        }
      ],
      "name": "checkManyJailedById",
      "outputs": [
        {
          "internalType": "bool[]",
          "name": "",
          "type": "bool[]"
        }
      ],
      "stateMutability": "view",
      "type": "function"
    },
    {
      "inputs": [
        {
          "internalType": "TConsensus",
          "name": "consensus",
          "type": "address"
        }
      ],
      "name": "checkMiningRewardDeprecated",
      "outputs": [
        {
          "internalType": "bool",
          "name": "",
          "type": "bool"
        }
      ],
      "stateMutability": "view",
      "type": "function"
    },
    {
      "inputs": [
        {
          "internalType": "TConsensus",
          "name": "consensus",
          "type": "address"
        },
        {
          "internalType": "uint256",
          "name": "period",
          "type": "uint256"
        }
      ],
      "name": "checkMiningRewardDeprecatedAtPeriod",
      "outputs": [
        {
          "internalType": "bool",
          "name": "",
          "type": "bool"
        }
      ],
      "stateMutability": "view",
      "type": "function"
    },
    {
      "inputs": [],
      "name": "currentPeriod",
      "outputs": [
        {
          "internalType": "uint256",
          "name": "",
          "type": "uint256"
        }
      ],
      "stateMutability": "view",
      "type": "function"
    },
    {
      "inputs": [],
      "name": "currentPeriodStartAtBlock",
      "outputs": [
        {
          "internalType": "uint256",
          "name": "",
          "type": "uint256"
        }
      ],
      "stateMutability": "view",
      "type": "function"
    },
    {
      "inputs": [],
      "name": "emergencyExitLockedAmount",
      "outputs": [
        {
          "internalType": "uint256",
          "name": "",
          "type": "uint256"
        }
      ],
      "stateMutability": "view",
      "type": "function"
    },
    {
      "inputs": [],
      "name": "emergencyExpiryDuration",
      "outputs": [
        {
          "internalType": "uint256",
          "name": "",
          "type": "uint256"
        }
      ],
      "stateMutability": "view",
      "type": "function"
    },
    {
      "inputs": [
        {
          "internalType": "uint256",
          "name": "_block",
          "type": "uint256"
        }
      ],
      "name": "epochEndingAt",
      "outputs": [
        {
          "internalType": "bool",
          "name": "",
          "type": "bool"
        }
      ],
      "stateMutability": "view",
      "type": "function"
    },
    {
      "inputs": [
        {
          "internalType": "uint256",
          "name": "_block",
          "type": "uint256"
        }
      ],
      "name": "epochOf",
      "outputs": [
        {
          "internalType": "uint256",
          "name": "",
          "type": "uint256"
        }
      ],
      "stateMutability": "view",
      "type": "function"
    },
    {
      "inputs": [
        {
          "internalType": "address",
          "name": "candidateAdmin",
          "type": "address"
        },
        {
          "internalType": "address",
          "name": "cid",
          "type": "address"
        },
        {
          "internalType": "address payable",
          "name": "treasuryAddr",
          "type": "address"
        },
        {
          "internalType": "uint256",
          "name": "commissionRate",
          "type": "uint256"
        }
      ],
      "name": "execApplyValidatorCandidate",
      "outputs": [],
      "stateMutability": "nonpayable",
      "type": "function"
    },
    {
      "inputs": [
        {
          "internalType": "address",
          "name": "validatorId",
          "type": "address"
        },
        {
          "internalType": "uint256",
          "name": "period",
          "type": "uint256"
        }
      ],
      "name": "execBailOut",
      "outputs": [],
      "stateMutability": "nonpayable",
      "type": "function"
    },
    {
      "inputs": [
        {
          "internalType": "address",
          "name": "cid",
          "type": "address"
        },
        {
          "internalType": "address",
          "name": "newAdmin",
          "type": "address"
        }
      ],
      "name": "execChangeAdminAddress",
      "outputs": [],
      "stateMutability": "nonpayable",
      "type": "function"
    },
    {
      "inputs": [
        {
          "internalType": "address",
          "name": "cid",
          "type": "address"
        },
        {
          "internalType": "TConsensus",
          "name": "newConsensusAddr",
          "type": "address"
        }
      ],
      "name": "execChangeConsensusAddress",
      "outputs": [],
      "stateMutability": "nonpayable",
      "type": "function"
    },
    {
      "inputs": [
        {
          "internalType": "address",
          "name": "cid",
          "type": "address"
        },
        {
          "internalType": "address payable",
          "name": "newTreasury",
          "type": "address"
        }
      ],
      "name": "execChangeTreasuryAddress",
      "outputs": [],
      "stateMutability": "nonpayable",
      "type": "function"
    },
    {
      "inputs": [
        {
          "internalType": "address",
          "name": "cid",
          "type": "address"
        },
        {
          "internalType": "address payable",
          "name": "recipient",
          "type": "address"
        }
      ],
      "name": "execReleaseLockedFundForEmergencyExitRequest",
      "outputs": [],
      "stateMutability": "nonpayable",
      "type": "function"
    },
    {
      "inputs": [
        {
          "internalType": "address",
          "name": "cid",
          "type": "address"
        },
        {
          "internalType": "uint256",
          "name": "secLeftToRevoke",
          "type": "uint256"
        }
      ],
      "name": "execRequestEmergencyExit",
      "outputs": [],
      "stateMutability": "nonpayable",
      "type": "function"
    },
    {
      "inputs": [
        {
          "internalType": "address",
          "name": "cid",
          "type": "address"
        },
        {
          "internalType": "uint256",
          "name": "secsLeft",
          "type": "uint256"
        }
      ],
      "name": "execRequestRenounceCandidate",
      "outputs": [],
      "stateMutability": "nonpayable",
      "type": "function"
    },
    {
      "inputs": [
        {
          "internalType": "address",
          "name": "cid",
          "type": "address"
        },
        {
          "internalType": "uint256",
          "name": "effectiveDaysOnwards",
          "type": "uint256"
        },
        {
          "internalType": "uint256",
          "name": "commissionRate",
          "type": "uint256"
        }
      ],
      "name": "execRequestUpdateCommissionRate",
      "outputs": [],
      "stateMutability": "nonpayable",
      "type": "function"
    },
    {
      "inputs": [
        {
          "internalType": "address",
          "name": "validatorId",
          "type": "address"
        },
        {
          "internalType": "uint256",
          "name": "newJailedUntil",
          "type": "uint256"
        },
        {
          "internalType": "uint256",
          "name": "slashAmount",
          "type": "uint256"
        },
        {
          "internalType": "bool",
          "name": "cannotBailout",
          "type": "bool"
        }
      ],
      "name": "execSlash",
      "outputs": [],
      "stateMutability": "nonpayable",
      "type": "function"
    },
    {
      "inputs": [],
      "name": "getBlockProducers",
      "outputs": [
        {
          "internalType": "address[]",
          "name": "result",
          "type": "address[]"
        }
      ],
      "stateMutability": "view",
      "type": "function"
    },
    {
      "inputs": [
        {
          "internalType": "TConsensus",
          "name": "consensus",
          "type": "address"
        }
      ],
      "name": "getCandidateInfo",
      "outputs": [
        {
          "components": [
            {
              "internalType": "address",
              "name": "__shadowedAdmin",
              "type": "address"
            },
            {
              "internalType": "TConsensus",
              "name": "__shadowedConsensus",
              "type": "address"
            },
            {
              "internalType": "address payable",
              "name": "__shadowedTreasury",
              "type": "address"
            },
            {
              "internalType": "address",
              "name": "____deprecatedBridgeOperatorAddr",
              "type": "address"
            },
            {
              "internalType": "uint256",
              "name": "commissionRate",
              "type": "uint256"
            },
            {
              "internalType": "uint256",
              "name": "revokingTimestamp",
              "type": "uint256"
            },
            {
              "internalType": "uint256",
              "name": "topupDeadline",
              "type": "uint256"
            }
          ],
          "internalType": "struct ICandidateManager.ValidatorCandidate",
          "name": "",
          "type": "tuple"
        }
      ],
      "stateMutability": "view",
      "type": "function"
    },
    {
      "inputs": [],
      "name": "getCandidateInfos",
      "outputs": [
        {
          "components": [
            {
              "internalType": "address",
              "name": "__shadowedAdmin",
              "type": "address"
            },
            {
              "internalType": "TConsensus",
              "name": "__shadowedConsensus",
              "type": "address"
            },
            {
              "internalType": "address payable",
              "name": "__shadowedTreasury",
              "type": "address"
            },
            {
              "internalType": "address",
              "name": "____deprecatedBridgeOperatorAddr",
              "type": "address"
            },
            {
              "internalType": "uint256",
              "name": "commissionRate",
              "type": "uint256"
            },
            {
              "internalType": "uint256",
              "name": "revokingTimestamp",
              "type": "uint256"
            },
            {
              "internalType": "uint256",
              "name": "topupDeadline",
              "type": "uint256"
            }
          ],
          "internalType": "struct ICandidateManager.ValidatorCandidate[]",
          "name": "list",
          "type": "tuple[]"
        }
      ],
      "stateMutability": "view",
      "type": "function"
    },
    {
      "inputs": [
        {
          "internalType": "TConsensus",
          "name": "consensus",
          "type": "address"
        }
      ],
      "name": "getCommissionChangeSchedule",
      "outputs": [
        {
          "components": [
            {
              "internalType": "uint256",
              "name": "effectiveTimestamp",
              "type": "uint256"
            },
            {
              "internalType": "uint256",
              "name": "commissionRate",
              "type": "uint256"
            }
          ],
          "internalType": "struct ICandidateManager.CommissionSchedule",
          "name": "",
          "type": "tuple"
        }
      ],
      "stateMutability": "view",
      "type": "function"
    },
    {
      "inputs": [
        {
          "internalType": "enum ContractType",
          "name": "contractType",
          "type": "uint8"
        }
      ],
      "name": "getContract",
      "outputs": [
        {
          "internalType": "address",
          "name": "contract_",
          "type": "address"
        }
      ],
      "stateMutability": "view",
      "type": "function"
    },
    {
      "inputs": [
        {
          "internalType": "TConsensus",
          "name": "consensus",
          "type": "address"
        }
      ],
      "name": "getEmergencyExitInfo",
      "outputs": [
        {
          "components": [
            {
              "internalType": "uint256",
              "name": "lockedAmount",
              "type": "uint256"
            },
            {
              "internalType": "uint256",
              "name": "recyclingAt",
              "type": "uint256"
            }
          ],
          "internalType": "struct ICommonInfo.EmergencyExitInfo",
          "name": "_info",
          "type": "tuple"
        }
      ],
      "stateMutability": "view",
      "type": "function"
    },
    {
      "inputs": [
        {
          "internalType": "TConsensus",
          "name": "consensus",
          "type": "address"
        }
      ],
      "name": "getJailedTimeLeft",
      "outputs": [
        {
          "internalType": "bool",
          "name": "isJailed_",
          "type": "bool"
        },
        {
          "internalType": "uint256",
          "name": "blockLeft_",
          "type": "uint256"
        },
        {
          "internalType": "uint256",
          "name": "epochLeft_",
          "type": "uint256"
        }
      ],
      "stateMutability": "view",
      "type": "function"
    },
    {
      "inputs": [
        {
          "internalType": "TConsensus",
          "name": "consensus",
          "type": "address"
        },
        {
          "internalType": "uint256",
          "name": "_blockNum",
          "type": "uint256"
        }
      ],
      "name": "getJailedTimeLeftAtBlock",
      "outputs": [
        {
          "internalType": "bool",
          "name": "isJailed_",
          "type": "bool"
        },
        {
          "internalType": "uint256",
          "name": "blockLeft_",
          "type": "uint256"
        },
        {
          "internalType": "uint256",
          "name": "epochLeft_",
          "type": "uint256"
        }
      ],
      "stateMutability": "view",
      "type": "function"
    },
    {
      "inputs": [],
      "name": "getLastUpdatedBlock",
      "outputs": [
        {
          "internalType": "uint256",
          "name": "",
          "type": "uint256"
        }
      ],
      "stateMutability": "view",
      "type": "function"
    },
    {
      "inputs": [],
      "name": "getValidatorCandidates",
      "outputs": [
        {
          "internalType": "address[]",
          "name": "",
          "type": "address[]"
        }
      ],
      "stateMutability": "view",
      "type": "function"
    },
    {
      "inputs": [],
      "name": "getValidators",
      "outputs": [
        {
          "internalType": "address[]",
          "name": "validatorList_",
          "type": "address[]"
        }
      ],
      "stateMutability": "view",
      "type": "function"
    },
    {
      "inputs": [
        {
          "internalType": "address",
          "name": "__slashIndicatorContract",
          "type": "address"
        },
        {
          "internalType": "address",
          "name": "__stakingContract",
          "type": "address"
        },
        {
          "internalType": "address",
          "name": "__stakingVestingContract",
          "type": "address"
        },
        {
          "internalType": "address",
          "name": "__maintenanceContract",
          "type": "address"
        },
        {
          "internalType": "address",
          "name": "__roninTrustedOrganizationContract",
          "type": "address"
        },
        {
          "internalType": "address",
          "name": "",
          "type": "address"
        },
        {
          "internalType": "uint256",
          "name": "__maxValidatorNumber",
          "type": "uint256"
        },
        {
          "internalType": "uint256",
          "name": "__maxValidatorCandidate",
          "type": "uint256"
        },
        {
          "internalType": "uint256",
          "name": "__maxPrioritizedValidatorNumber",
          "type": "uint256"
        },
        {
          "internalType": "uint256",
          "name": "__minEffectiveDaysOnwards",
          "type": "uint256"
        },
        {
          "internalType": "uint256",
          "name": "__numberOfBlocksInEpoch",
          "type": "uint256"
        },
        {
          "internalType": "uint256[2]",
          "name": "__emergencyExitConfigs",
          "type": "uint256[2]"
        }
      ],
      "name": "initialize",
      "outputs": [],
      "stateMutability": "nonpayable",
      "type": "function"
    },
    {
      "inputs": [],
      "name": "initializeV2",
      "outputs": [],
      "stateMutability": "nonpayable",
      "type": "function"
    },
    {
      "inputs": [
        {
          "internalType": "address",
          "name": "fastFinalityTrackingContract",
          "type": "address"
        }
      ],
      "name": "initializeV3",
      "outputs": [],
      "stateMutability": "nonpayable",
      "type": "function"
    },
    {
      "inputs": [
        {
          "internalType": "address",
          "name": "profileContract",
          "type": "address"
        }
      ],
      "name": "initializeV4",
      "outputs": [],
      "stateMutability": "nonpayable",
      "type": "function"
    },
    {
      "inputs": [
        {
          "internalType": "TConsensus",
          "name": "consensusAddr",
          "type": "address"
        }
      ],
      "name": "isBlockProducer",
      "outputs": [
        {
          "internalType": "bool",
          "name": "",
          "type": "bool"
        }
      ],
      "stateMutability": "view",
      "type": "function"
    },
    {
      "inputs": [
        {
          "internalType": "TConsensus",
          "name": "consensusAddr",
          "type": "address"
        },
        {
          "internalType": "address",
          "name": "admin",
          "type": "address"
        }
      ],
      "name": "isCandidateAdmin",
      "outputs": [
        {
          "internalType": "bool",
          "name": "",
          "type": "bool"
        }
      ],
      "stateMutability": "view",
      "type": "function"
    },
    {
      "inputs": [],
      "name": "isPeriodEnding",
      "outputs": [
        {
          "internalType": "bool",
          "name": "",
          "type": "bool"
        }
      ],
      "stateMutability": "view",
      "type": "function"
    },
    {
      "inputs": [
        {
          "internalType": "TConsensus",
          "name": "consensus",
          "type": "address"
        }
      ],
      "name": "isValidatorCandidate",
      "outputs": [
        {
          "internalType": "bool",
          "name": "",
          "type": "bool"
        }
      ],
      "stateMutability": "view",
      "type": "function"
    },
    {
      "inputs": [],
      "name": "maxPrioritizedValidatorNumber",
      "outputs": [
        {
          "internalType": "uint256",
          "name": "_maximumPrioritizedValidatorNumber",
          "type": "uint256"
        }
      ],
      "stateMutability": "view",
      "type": "function"
    },
    {
      "inputs": [],
      "name": "maxValidatorCandidate",
      "outputs": [
        {
          "internalType": "uint256",
          "name": "",
          "type": "uint256"
        }
      ],
      "stateMutability": "view",
      "type": "function"
    },
    {
      "inputs": [],
      "name": "maxValidatorNumber",
      "outputs": [
        {
          "internalType": "uint256",
          "name": "_maximumValidatorNumber",
          "type": "uint256"
        }
      ],
      "stateMutability": "view",
      "type": "function"
    },
    {
      "inputs": [],
      "name": "minEffectiveDaysOnward",
      "outputs": [
        {
          "internalType": "uint256",
          "name": "",
          "type": "uint256"
        }
      ],
      "stateMutability": "view",
      "type": "function"
    },
    {
      "inputs": [],
      "name": "numberOfBlocksInEpoch",
      "outputs": [
        {
          "internalType": "uint256",
          "name": "_numberOfBlocks",
          "type": "uint256"
        }
      ],
      "stateMutability": "view",
      "type": "function"
    },
    {
      "inputs": [],
      "name": "precompilePickValidatorSetAddress",
      "outputs": [
        {
          "internalType": "address",
          "name": "",
          "type": "address"
        }
      ],
      "stateMutability": "view",
      "type": "function"
    },
    {
      "inputs": [],
      "name": "precompileSortValidatorsAddress",
      "outputs": [
        {
          "internalType": "address",
          "name": "",
          "type": "address"
        }
      ],
      "stateMutability": "view",
      "type": "function"
    },
    {
      "inputs": [
        {
          "internalType": "enum ContractType",
          "name": "contractType",
          "type": "uint8"
        },
        {
          "internalType": "address",
          "name": "addr",
          "type": "address"
        }
      ],
      "name": "setContract",
      "outputs": [],
      "stateMutability": "nonpayable",
      "type": "function"
    },
    {
      "inputs": [
        {
          "internalType": "uint256",
          "name": "amount",
          "type": "uint256"
        }
      ],
      "name": "setEmergencyExitLockedAmount",
      "outputs": [],
      "stateMutability": "nonpayable",
      "type": "function"
    },
    {
      "inputs": [
        {
          "internalType": "uint256",
          "name": "duration",
          "type": "uint256"
        }
      ],
      "name": "setEmergencyExpiryDuration",
      "outputs": [],
      "stateMutability": "nonpayable",
      "type": "function"
    },
    {
      "inputs": [
        {
          "internalType": "uint256",
          "name": "_number",
          "type": "uint256"
        }
      ],
      "name": "setMaxPrioritizedValidatorNumber",
      "outputs": [],
      "stateMutability": "nonpayable",
      "type": "function"
    },
    {
      "inputs": [
        {
          "internalType": "uint256",
          "name": "_number",
          "type": "uint256"
        }
      ],
      "name": "setMaxValidatorCandidate",
      "outputs": [],
      "stateMutability": "nonpayable",
      "type": "function"
    },
    {
      "inputs": [
        {
          "internalType": "uint256",
          "name": "_max",
          "type": "uint256"
        }
      ],
      "name": "setMaxValidatorNumber",
      "outputs": [],
      "stateMutability": "nonpayable",
      "type": "function"
    },
    {
      "inputs": [
        {
          "internalType": "uint256",
          "name": "_numOfDays",
          "type": "uint256"
        }
      ],
      "name": "setMinEffectiveDaysOnwards",
      "outputs": [],
      "stateMutability": "nonpayable",
      "type": "function"
    },
    {
      "inputs": [],
      "name": "submitBlockReward",
      "outputs": [],
      "stateMutability": "payable",
      "type": "function"
    },
    {
      "inputs": [],
      "name": "totalBlockProducer",
      "outputs": [
        {
          "internalType": "uint256",
          "name": "total",
          "type": "uint256"
        }
      ],
      "stateMutability": "view",
      "type": "function"
    },
    {
      "inputs": [],
      "name": "totalDeprecatedReward",
      "outputs": [
        {
          "internalType": "uint256",
          "name": "",
          "type": "uint256"
        }
      ],
      "stateMutability": "view",
      "type": "function"
    },
    {
      "inputs": [
        {
          "internalType": "uint256",
          "name": "_epoch",
          "type": "uint256"
        }
      ],
      "name": "tryGetPeriodOfEpoch",
      "outputs": [
        {
          "internalType": "bool",
          "name": "_filled",
          "type": "bool"
        },
        {
          "internalType": "uint256",
          "name": "_periodNumber",
          "type": "uint256"
        }
      ],
      "stateMutability": "view",
      "type": "function"
    },
    {
      "inputs": [],
      "name": "validatorCount",
      "outputs": [
        {
          "internalType": "uint256",
          "name": "",
          "type": "uint256"
        }
      ],
      "stateMutability": "view",
      "type": "function"
    },
    {
      "inputs": [],
      "name": "wrapUpEpoch",
      "outputs": [],
      "stateMutability": "payable",
      "type": "function"
    },
    {
      "stateMutability": "payable",
      "type": "receive"
    }
  ],
  "transactionHash": "0x93fe52124812b4ac63df8b5909c6ef418af3a7abc832c6a8b2a46726338a9b58",
  "args": [],
  "numDeployments": 13,
  "solcInputHash": "0f25a5224eeb8772a3c38ebf9ab9bb4c",
  "bytecode": "0x60806040523480156200001157600080fd5b506200001c62000022565b620000e4565b600054610100900460ff16156200008f5760405162461bcd60e51b815260206004820152602760248201527f496e697469616c697a61626c653a20636f6e747261637420697320696e697469604482015266616c697a696e6760c81b606482015260840160405180910390fd5b60005460ff9081161015620000e2576000805460ff191660ff9081179091556040519081527f7f26b83ff96e1f2b6a682f133852f6798a09c465da95921460cefb38474024989060200160405180910390a15b565b61527180620000f46000396000f3fe6080604052600436106102dc5760003560e01c80636558954f116101825780636558954f146106d85780636611f843146106ef578063690b75361461070f5780636aa1c2ef1461072457806372e46810146107395780637593ff71146107415780637e1dc16f14610761578063823a7b9c14610781578063865e6fd3146107a1578063873a5a70146107c157806387c891bd146107e15780638d559c38146107f657806396585fc21461080a578063a0c3f2d21461082a578063a3d545f51461084a578063a66c0f771461086a578063afc69d731461087f578063b7ab4db514610894578063ba77b06c146108a9578063c3c8b5d6146108be578063c94aaa02146108de578063cdaa4e81146108fe578063d09f1ab41461091e578063d93fa30614610933578063dd716ad314610953578063de981f1b14610973578063e5125a1d14610993578063ea80d67d146109b3578063ecd850cc146109d3578063edb194bb146109f3578063eeb629a814610a13578063f883afaf14610a28576102eb565b806303827884146102f357806304d971ab1461031c578063060406181461034c5780630f43a67714610361578063110a83081461037657806311662dc2146103965780631196ab66146103d357806315b5ebde146103f3578063217f35c21461041357806323c65eb01461042857806328bde1e1146104485780632924de7114610475578063297a8fca146104955780632d784a98146104aa5780632f78204c146104d75780633101cfcb146104f757806331a8aef514610517578063367ec12b146105375780633b3159b614610557578063468c96ae1461057457806349096d26146105ab5780634d8df063146105cd5780634de2b735146105ed5780634ee4d72b1461061a5780634f2a693f1461062f57806352091f171461064f5780635248184a146106575780635cd8a76b14610679578063605239a11461068e578063612c8d98146106a357806365244ece146106b8576102eb565b366102eb576102e9610a48565b005b6102e9610a48565b3480156102ff57600080fd5b506103096104b081565b6040519081526020015b60405180910390f35b34801561032857600080fd5b5061033c610337366004614662565b610ab1565b6040519015158152602001610313565b34801561035857600080fd5b50610309610aeb565b34801561036d57600080fd5b5060aa54610309565b34801561038257600080fd5b506102e961039136600461469b565b610afb565b3480156103a257600080fd5b506103b66103b13660046146b8565b610b94565b604080519315158452602084019290925290820152606001610313565b3480156103df57600080fd5b506102e96103ee3660046146e4565b610bb9565b3480156103ff57600080fd5b506102e961040e3660046146b8565b610bcd565b34801561041f57600080fd5b5061033c610cc5565b34801561043457600080fd5b5061033c6104433660046146b8565b610cda565b34801561045457600080fd5b5061046861046336600461469b565b610cfa565b6040516103139190614751565b34801561048157600080fd5b5061033c61049036600461469b565b610dac565b3480156104a157600080fd5b50600454610309565b3480156104b657600080fd5b506104ca6104c536600461469b565b610dcb565b604051610313919061475f565b3480156104e357600080fd5b506102e96104f2366004614784565b610e46565b34801561050357600080fd5b506102e961051236600461469b565b611061565b34801561052357600080fd5b5061033c6105323660046146b8565b6110be565b34801561054357600080fd5b506102e96105523660046147df565b6110d2565b34801561056357600080fd5b5060685b60405161031391906148a5565b34801561058057600080fd5b5061059461058f3660046146e4565b611205565b604080519215158352602083019190915201610313565b3480156105b757600080fd5b506105c0611243565b60405161031391906148fd565b3480156105d957600080fd5b506102e96105e83660046146e4565b61130c565b3480156105f957600080fd5b5061060d61060836600461495b565b61131d565b604051610313919061499c565b34801561062657600080fd5b5060e454610309565b34801561063b57600080fd5b506102e961064a3660046146e4565b611363565b6102e9611374565b34801561066357600080fd5b5061066c611780565b60405161031391906149e2565b34801561068557600080fd5b506102e96118a5565b34801561069a57600080fd5b50607254610309565b3480156106af57600080fd5b50607654610309565b3480156106c457600080fd5b5061033c6106d336600461469b565b6119de565b3480156106e457600080fd5b506103096201518081565b3480156106fb57600080fd5b506102e961070a3660046146e4565b6119f1565b34801561071b57600080fd5b5060e554610309565b34801561073057600080fd5b50600154610309565b6102e9611a02565b34801561074d57600080fd5b5061033c61075c3660046146e4565b611c50565b34801561076d57600080fd5b5061060d61077c36600461495b565b611c74565b34801561078d57600080fd5b506102e961079c3660046146e4565b611cb2565b3480156107ad57600080fd5b506102e96107bc366004614a33565b611cc3565b3480156107cd57600080fd5b5061033c6107dc36600461469b565b611ce2565b3480156107ed57600080fd5b50600254610309565b34801561080257600080fd5b506066610567565b34801561081657600080fd5b506103b661082536600461469b565b611d01565b34801561083657600080fd5b5061033c61084536600461469b565b611d25565b34801561085657600080fd5b506103096108653660046146e4565b611d38565b34801561087657600080fd5b5060e654610309565b34801561088b57600080fd5b50610309611d43565b3480156108a057600080fd5b506105c0611d86565b3480156108b557600080fd5b506105c0611e32565b3480156108ca57600080fd5b506102e96108d9366004614662565b611e94565b3480156108ea57600080fd5b506102e96108f93660046146e4565b61211c565b34801561090a57600080fd5b506102e96109193660046146b8565b61212d565b34801561092a57600080fd5b5060a954610309565b34801561093f57600080fd5b506102e961094e366004614662565b612370565b34801561095f57600080fd5b506102e961096e3660046146b8565b6123ad565b34801561097f57600080fd5b5061056761098e366004614a4f565b612433565b34801561099f57600080fd5b506102e96109ae366004614a6a565b612490565b3480156109bf57600080fd5b506102e96109ce366004614662565b61259e565b3480156109df57600080fd5b506102e96109ee366004614662565b6125d8565b3480156109ff57600080fd5b506104ca610a0e36600461469b565b612615565b348015610a1f57600080fd5b5060ad54610309565b348015610a3457600080fd5b506102e9610a43366004614a9f565b61266f565b610a526007612433565b6001600160a01b0316336001600160a01b031614158015610a8e5750610a786009612433565b6001600160a01b0316336001600160a01b031614155b15610aaf5760405160016234baed60e01b0319815260040160405180910390fd5b565b6000610ae2610abf8461286d565b6001600160a01b0390811660009081526075602052604090205481169084161490565b90505b92915050565b6000610af660035490565b905090565b600054600490610100900460ff16158015610b1d575060005460ff8083169116105b610b425760405162461bcd60e51b8152600401610b3990614af0565b60405180910390fd5b6000805461ffff191660ff831617610100179055610b61600f836128e5565b6000805461ff001916905560405160ff821681526000805160206152458339815191529060200160405180910390a15050565b6000806000610bab610ba58661286d565b85612970565b9250925092505b9250925092565b610bc16129f2565b610bca81612a3b565b50565b6006610bd881612a92565b6001600160a01b0383166000908152603c60205260409020544311610c1257826040516353e0424d60e01b8152600401610b3991906148a5565b6001600160a01b038316600081815260386020908152604080832086845282528083208054600160ff199182168117909255948452603783528184208785529092529091208054909216909155610c699043614b54565b6001600160a01b0384166000818152603a6020526040908190209290925590517f6bb2436cb6b6eb65d5a52fac2ae0373a77ade6661e523ef3004ee2d5524e6c6e90610cb89085815260200190565b60405180910390a2505050565b6000610af6610cd342612ade565b6003541090565b600080610ce68461286d565b9050610cf28184612aed565b949350505050565b610d02614611565b6000610d0d8361286d565b9050610d1881612b0d565b610d355760405163a64b34ad60e01b815260040160405180910390fd5b6001600160a01b03908116600090815260756020908152604091829020825160e081018452815485168152600182015485169281019290925260028101548416928201929092526003820154909216606083015260048101546080830152600581015460a08301526006015460c082015292915050565b600080610db88361286d565b9050610dc48143612aed565b9392505050565b604080518082019091526000808252602082015260e86000610dec8461286d565b6001600160a01b03168152602080820192909252604090810160009081208251808401909352805483526001015492820183905290925003610e41576040516370fdd4f160e11b815260040160405180910390fd5b919050565b6006610e5181612a92565b6000610e5b610aeb565b6001600160a01b03871660008181526037602090815260408083208584528252808320805460ff1916600117905592825260e181528282205460e090915291902054919250610ea991614b67565b60e46000828254610eba9190614b67565b90915550506001600160a01b038616600090815260e06020908152604080832083905560e18252808320839055603a909152902054610efa908690612b2a565b6001600160a01b0387166000908152603a60205260409020558315610fb0576000610f256009612433565b6001600160a01b0316632715805e88876040518363ffffffff1660e01b8152600401610f52929190614b7a565b6020604051808303816000875af1158015610f71573d6000803e3d6000fd5b505050506040513d601f19601f82011682018060405250810190610f959190614b93565b90508060e46000828254610fa99190614b67565b9091555050505b8215610ff4576001600160a01b0386166000908152603c6020526040902054610fda908690612b2a565b6001600160a01b0387166000908152603c60205260409020555b6001600160a01b0386166000818152603a6020908152604080832054815190815291820188905260019082015260608101919091528291907f54ce99c5ce1fc9f61656d4a0fb2697974d0c973ac32eecaefe06fcf18b8ef68a9060800160405180910390a3505050505050565b600054600390610100900460ff16158015611083575060005460ff8083169116105b61109f5760405162461bcd60e51b8152600401610b3990614af0565b6000805461ffff191660ff831617610100179055610b61600e836128e5565b6000610ae26110cc8461286d565b83612b41565b600054610100900460ff16158080156110f25750600054600160ff909116105b8061110c5750303b15801561110c575060005460ff166001145b6111285760405162461bcd60e51b8152600401610b3990614af0565b6000805460ff19166001179055801561114b576000805461ff0019166101001790555b61115660068e6128e5565b61116160098d6128e5565b61116c60078c6128e5565b61117760058b6128e5565b611182600a8a6128e5565b61118b87612b6c565b61119486612ba1565b61119d85612bd6565b6111a684612a3b565b6111b08235612c2e565b6111bd6020830135612c63565b600183905580156111f6576000805461ff0019169055604051600181526000805160206152458339815191529060200160405180910390a15b50505050505050505050505050565b60008061121143611d38565b8311158061122c575060008381526005602052604090205415155b600093845260056020526040909320549293915050565b606060aa546001600160401b0381111561125f5761125f614bc2565b604051908082528060200260200182016040528015611288578160200160208202803683370190505b5090506000805b825181101561130657600081815260ab60205260409020546001600160a01b03166112b981612c98565b156112fd578084846112ca81614bd8565b9550815181106112dc576112dc614bac565b60200260200101906001600160a01b031690816001600160a01b0316815250505b5060010161128f565b50815290565b6113146129f2565b610bca81612c63565b6060610ae261135e848480806020026020016040519081016040528093929190818152602001838360200280828437600092019190915250612cd292505050565b612d4e565b61136b6129f2565b610bca81612ba1565b61137c612df3565b60006113873361286d565b9050600061139482612c98565b80156113a657506113a482612e13565b155b80156113c057506113be826113b9610aeb565b612b41565b155b90506000806113cf6007612433565b604051630634f5b960e01b81528415156004820152600060248201526001600160a01b039190911690630634f5b9906044016080604051808303816000875af1158015611420573d6000803e3d6000fd5b505050506040513d601f19601f820116820180604052508101906114449190614bf1565b935050925050826114a0573460e460008282546114619190614b67565b92505081905550836001600160a01b0316600080516020615225833981519152346001604051611492929190614c46565b60405180910390a250505050565b836001600160a01b03167f0ede5c3be8625943fa64003cd4b91230089411249f3059bac6500873543ca9b134846040516114db929190614c6a565b60405180910390a260006114ed610aeb565b905060006114fb8434614b67565b9050600061271061150c8584614c78565b6115169190614ca5565b905060006115248284614b54565b905060008260e2600082825461153a9190614b67565b909155505033600090815260386020908152604080832088845290915290205460ff161561163c57600061156e6006612433565b6001600160a01b031663c6391fa26040518163ffffffff1660e01b8152600401608060405180830381865afa1580156115ab573d6000803e3d6000fd5b505050506040513d601f19601f820116820180604052508101906115cf9190614cb9565b935050505061271081846115e39190614c78565b6115ed9190614ca5565b91508160e460008282546116019190614b67565b92505081905550896001600160a01b0316600080516020615225833981519152836002604051611632929190614c46565b60405180910390a2505b6116468183614b54565b91506000806116556009612433565b6001600160a01b0316634530d2026040518163ffffffff1660e01b81526004016040805180830381865afa158015611691573d6000803e3d6000fd5b505050506040513d601f19601f820116820180604052508101906116b59190614cef565b6001600160a01b038d16600090815260756020526040812060040154929450909250906116ec906116e69084612e1f565b84612b2a565b905060006127106116fd8784614c78565b6117079190614ca5565b6001600160a01b038e16600090815260e06020526040812080549293508392909190611734908490614b67565b9091555061174490508187614b54565b6001600160a01b038e16600090815260e160205260408120805490919061176c908490614b67565b909155505050505050505050505050505050565b6073546060906001600160401b0381111561179d5761179d614bc2565b6040519080825280602002602001820160405280156117d657816020015b6117c3614611565b8152602001906001900390816117bb5790505b50905060005b81518110156118a15760756000607383815481106117fc576117fc614bac565b60009182526020808320909101546001600160a01b039081168452838201949094526040928301909120825160e081018452815485168152600182015485169281019290925260028101548416928201929092526003820154909216606083015260048101546080830152600581015460a08301526006015460c0820152825183908390811061188e5761188e614bac565b60209081029190910101526001016117dc565b5090565b600054600290610100900460ff161580156118c7575060005460ff8083169116105b6118e35760405162461bcd60e51b8152600401610b3990614af0565b6000805461ffff191660ff83161761010017905560715461190f906009906001600160a01b03166128e5565b606f54611927906005906001600160a01b03166128e5565b60705461193f906006906001600160a01b03166128e5565b606d54611957906007906001600160a01b03166128e5565b60a85461196f90600a906001600160a01b03166128e5565b607180546001600160a01b0319908116909155606f8054821690556070805482169055606d805482169055606e80548216905560a8805490911690556000805461ff001916905560405160ff82168152600080516020615245833981519152906020015b60405180910390a150565b6000610ae56119ec8361286d565b612c98565b6119f96129f2565b610bca81612c2e565b611a0a612df3565b611a1343611c50565b611a3057604051636c74eecf60e01b815260040160405180910390fd5b611a3943611d38565b611a44600254611d38565b10611a6257604051632458f64160e01b815260040160405180910390fd5b436002556000611a7142612ade565b90506000611a80826003541090565b90506000611a8c611d86565b905060606000611a9b43611d38565b90506000611aaa826001614b67565b90506000611ab6610aeb565b9050611ac28386612e2e565b8515611bea57600080611ad58388612f9d565b91509150611ae58388848461316b565b611aed613275565b611af56133c9565b6000611b016006612433565b60405163185368db60e01b81529091506001600160a01b0382169063185368db90611b32908b908890600401614d13565b600060405180830381600087803b158015611b4c57600080fd5b505af1158015611b60573d6000803e3d6000fd5b50505050611b6d8a6134f2565b8051919950975015611bd8576040516303e1697b60e11b81526001600160a01b038216906307c2d2f690611ba5908a906004016148fd565b600060405180830381600087803b158015611bbf57600080fd5b505af1158015611bd3573d6000803e3d6000fd5b505050505b611be3436001614b67565b6004555050505b611bf5878387613683565b82817f0195462033384fec211477c56217da64a58bd405e0bed331ba4ded67e4ae4ce788604051611c2a911515815260200190565b60405180910390a350600090815260056020526040902085905550505060039190915550565b600060018054611c609190614b54565b600154611c6d9084614d35565b1492915050565b6060610ae2838380806020026020016040519081016040528093929190818152602001838360200280828437600092019190915250612d4e92505050565b611cba6129f2565b610bca81612b6c565b611ccb6129f2565b611cd481613904565b611cde82826128e5565b5050565b600080611ced610aeb565b9050610dc4611cfb8461286d565b82612b41565b6000806000611d18611d128561286d565b43612970565b9250925092509193909250565b6000610ae5611d338361286d565b612b0d565b6000610ae582613931565b6000805b60aa548110156118a157600081815260ab6020526040902054611d72906001600160a01b0316612c98565b15611d7e576001909101905b600101611d47565b606060aa546001600160401b03811115611da257611da2614bc2565b604051908082528060200260200182016040528015611dcb578160200160208202803683370190505b5090506000805b8251811015611e2d57600081815260ab602052604090205483516001600160a01b0390911692508290849083908110611e0d57611e0d614bac565b6001600160a01b0390921660209283029190910190910152600101611dd2565b505090565b60606073805480602002602001604051908101604052809291908181526020018280548015611e8a57602002820191906000526020600020905b81546001600160a01b03168152600190910190602001808311611e6c575b5050505050905090565b611e9c6129f2565b6001600160a01b038216600090815260e860205260408120600101549003611ed9578160405163e8e6d2dd60e01b8152600401610b3991906148a5565b60e7548060005b82811015611f2f57846001600160a01b031660e78281548110611f0557611f05614bac565b6000918252602090912001546001600160a01b031603611f2757809150611f2f565b600101611ee0565b50818103611f52578360405163b69ea42560e01b8152600401610b3991906148a5565b6001600160a01b038416600090815260e860205260409020548015612115576001600160a01b038516600090815260e8602052604081208181556001908101919091558311156120145760e7611fa9600185614b54565b81548110611fb957611fb9614bac565b60009182526020909120015460e780546001600160a01b039092169184908110611fe557611fe5614bac565b9060005260206000200160006101000a8154816001600160a01b0302191690836001600160a01b031602179055505b60e780548061202557612025614d49565b60008281526020808220830160001990810180546001600160a01b03191690559092019092556001600160a01b038716825260e9905260409020805460ff1916600117905561207784826104b061394c565b156120d057836001600160a01b0316856001600160a01b03167f7229136a18186c71a86246c012af3bb1df6460ef163934bbdccd6368abdd41e4836040516120c191815260200190565b60405180910390a35050505050565b836001600160a01b0316856001600160a01b03167f3747d14eb72ad3e35cba9c3e00dab3b8d15b40cac6bdbd08402356e4f69f30a183476040516120c1929190614c6a565b5050505050565b6121246129f2565b610bca81612bd6565b600961213881612a92565b6001600160a01b038316600090815260e8602052604090206001810154156121735760405163057aab3160e31b815260040160405180910390fd5b600061217f8442614b67565b6001600160a01b03861660009081526075602052604090209091506121a490826139ac565b6001600160a01b0385166000908152603b602052604080822083905560e554905163138ac02f60e11b81523391632715805e916121e5918a91600401614b7a565b6020604051808303816000875af1158015612204573d6000803e3d6000fd5b505050506040513d601f19601f820116820180604052508101906122289190614b93565b9050801561232557600060e654426122409190614b67565b60e78054600180820183556000929092527f6cb0db1d7354dfb4a1464318006df0643cafe2002a86a29ff8560f900fef28a10180546001600160a01b0319166001600160a01b038b161790558386558501819055905061229e613a30565b6001600160a01b0388811660008181526075602052604090819020600201549051630a2fae5760e41b81526004810192909252821660248201524260448201526064810184905291169063a2fae57090608401600060405180830381600087803b15801561230b57600080fd5b505af115801561231f573d6000803e3d6000fd5b50505050505b856001600160a01b03167f77a1a819870c0f4d04c3ca4cc2881a0393136abc28bd651af50aedade94a27c48260405161236091815260200190565b60405180910390a2505050505050565b600f61237b81612a92565b506001600160a01b03918216600090815260756020526040902060010180546001600160a01b03191691909216179055565b60096123b881612a92565b6123c183613a5e565b156123df5760405163030081e760e01b815260040160405180910390fd5b6001600160a01b038316600090815260756020526040902060058101541561241a5760405163fab9167360e01b815260040160405180910390fd5b61242d816124288542614b67565b6139ac565b50505050565b600061243d613ade565b600083600f81111561245157612451614c30565b60ff1681526020810191909152604001600020546001600160a01b0316905080610e41578160405163409140df60e11b8152600401610b399190614d73565b600961249b81612a92565b6001600160a01b038416600090815260776020526040902054156124d257604051632f32dcdd60e11b815260040160405180910390fd5b6127108211156124f557604051631b8454a360e21b815260040160405180910390fd5b6076548310156125185760405163fa0ae69360e01b815260040160405180910390fd5b6001600160a01b03841660009081526077602052604081209062015180856125408242614ca5565b61254a9190614b67565b6125549190614c78565b808355600183018590556040519091506001600160a01b038716907f6ebafd1bb6316b2f63198a81b05cff2149c6eaae1784466a6d062b4391900f21906123609084908890614c6a565b600f6125a981612a92565b506001600160a01b03918216600090815260756020526040902080546001600160a01b03191691909216179055565b600f6125e381612a92565b506001600160a01b03918216600090815260756020526040902060020180546001600160a01b03191691909216179055565b6040805180820190915260008082526020820152607760006126368461286d565b6001600160a01b031681526020808201929092526040908101600020815180830190925280548252600101549181019190915292915050565b600961267a81612a92565b607354607254811061269f57604051638616841b60e01b815260040160405180910390fd5b6126a885612b0d565b156126c657604051638ad9cdf960e01b815260040160405180910390fd5b6127108311156126e957604051631b8454a360e21b815260040160405180910390fd5b60005b8181101561279c576000607560006073848154811061270d5761270d614bac565b60009182526020808320909101546001600160a01b03908116845290830193909352604090910190208054909250811690891603612760578760405163fc3d8c7560e01b8152600401610b3991906148a5565b60028101546001600160a01b03908116908716036127935785604051632d33a7e760e11b8152600401610b3991906148a5565b506001016126ec565b506001600160a01b038581166000818152607460209081526040808320861990556073805460018082019092557ff79bde9ddd17963ebce6f7d021d60de7c2bd0db944d23c900c0c0e775f5300520180546001600160a01b031990811687179091556075909352818420805484168d881690811782559181018054851687179055600281018054909416968b1696871790935560048301899055905191949093909290917f1ca451a9920472b99355a9cf74185bf017604a7849c113f020888ecec9db93669190a450505050505050565b6000612879600f612433565b6001600160a01b03166350a9fc29836040518263ffffffff1660e01b81526004016128a491906148a5565b602060405180830381865afa1580156128c1573d6000803e3d6000fd5b505050506040513d601f19601f82011682018060405250810190610ae59190614d81565b806128ee613ade565b600084600f81111561290257612902614c30565b60ff168152602081019190915260400160002080546001600160a01b0319166001600160a01b03928316179055811682600f81111561294357612943614c30565b6040517f865d1c228a8ea13709cfe61f346f7ff67f1bbd4a18ff31ad3e7147350d317c5990600090a35050565b6001600160a01b0382166000908152603a602052604081205481908190848110156129a657600080600093509350935050610bb2565b600193506129b48582614b54565b6129bf906001614b67565b92506129ca85611d38565b6129d382611d38565b6129dd9190614b54565b6129e8906001614b67565b9150509250925092565b6129fa613a30565b6001600160a01b0316336001600160a01b031614610aaf576000356001600160e01b0319166001604051620f948f60ea1b8152600401610b39929190614d9e565b6001811015612a5d576040516317b8970f60e01b815260040160405180910390fd5b60768190556040518181527f266d432ffe659e3565750d26ec685b822a58041eee724b67a5afec3168a25267906020016119d3565b612a9b81612433565b6001600160a01b0316336001600160a01b031614610bca576000356001600160e01b03191681336040516320e0f98d60e21b8152600401610b3993929190614dbf565b6000610ae56201518083614ca5565b6001600160a01b03919091166000908152603a6020526040902054101590565b6001600160a01b0316600090815260746020526040902054151590565b600081831015612b3a5781610ae2565b5090919050565b6001600160a01b03919091166000908152603760209081526040808320938352929052205460ff1690565b60a98190556040518181527fb5464c05fd0e0f000c535850116cda2742ee1f7b34384cb920ad7b8e802138b5906020016119d3565b60728190556040518181527f82d5dc32d1b741512ad09c32404d7e7921e8934c6222343d95f55f7a2b9b2ab4906020016119d3565b60a954811115612bf9576040516355408ce960e11b815260040160405180910390fd5b60ad8190556040518181527fa9588dc77416849bd922605ce4fc806712281ad8a8f32d4238d6c8cca548e15e906020016119d3565b60e58190556040518181527f17a6c3eb965cdd7439982da25abf85be88f0f772ca33198f548e2f99fee0289a906020016119d3565b60e68190556040518181527f0a50c66137118f386332efb949231ddd3946100dbf880003daca37ddd9e0662b906020016119d3565b6001600160a01b038116600090815260ac6020526040812054610ae59060019060ff166003811115612ccc57612ccc614c30565b90613b02565b6060612cde600f612433565b6001600160a01b031663f9226b1a836040518263ffffffff1660e01b8152600401612d099190614df6565b600060405180830381865afa158015612d26573d6000803e3d6000fd5b505050506040513d6000823e601f3d908101601f19168201604052610ae59190810190614e8a565b606081516001600160401b03811115612d6957612d69614bc2565b604051908082528060200260200182016040528015612d92578160200160208202803683370190505b50905060005b8251811015612ded57612dc3838281518110612db657612db6614bac565b6020026020010151612e13565b828281518110612dd557612dd5614bac565b91151560209283029190910190910152600101612d98565b50919050565b334114610aaf576040516309f358fd60e01b815260040160405180910390fd5b6000610ae58243612aed565b6000818310612b3a5781610ae2565b6000612e3a600e612433565b6001600160a01b031663468d24be84846040518363ffffffff1660e01b8152600401612e67929190614f28565b600060405180830381865afa158015612e84573d6000803e3d6000fd5b505050506040513d6000823e601f3d908101601f19168201604052612eac9190810190614f41565b905060008251600154612ebf9190614c78565b60e25490915060009081805b8651811015612f6e5784868281518110612ee757612ee7614bac565b602002602001015184612efa9190614c78565b612f049190614ca5565b93508360e36000898481518110612f1d57612f1d614bac565b60200260200101516001600160a01b03166001600160a01b031681526020019081526020016000206000828254612f549190614b67565b90915550612f6490508483614b67565b9150600101612ecb565b50612f798183614b54565b60e46000828254612f8a9190614b67565b9091555050600060e25550505050505050565b6000606060008084516001600160401b03811115612fbd57612fbd614bc2565b604051908082528060200260200182016040528015612fe6578160200160208202803683370190505b50925060005b85518110156131615785818151811061300757613007614bac565b6020908102919091018101516001600160a01b038082166000908152607590935260409092206002015490945016915061304083612e13565b15801561305457506130528388612b41565b155b156130d2576001600160a01b038316600090815260e1602052604090205461307c9086614b67565b6001600160a01b038416600090815260e160205260409020548551919650908590839081106130ad576130ad614bac565b6020026020010181815250506130c38383613b35565b6130cd8383613bfd565b613129565b6001600160a01b038316600090815260e3602090815260408083205460e183528184205460e09093529220546131089190614b67565b6131129190614b67565b60e460008282546131239190614b67565b90915550505b6001600160a01b038316600090815260e16020908152604080832083905560e0825280832083905560e3909152812055600101612fec565b5050509250929050565b60006131776009612433565b90508215612115576131898184613cb8565b156132315760405163566bce2360e11b81526001600160a01b0382169063acd79c46906131be90879086908a90600401614ff6565b600060405180830381600087803b1580156131d857600080fd5b505af11580156131ec573d6000803e3d6000fd5b505050507f9e242ca1ef9dde96eb71ef8d19a3f0f6a619b63e4c0d3998771387103656d0878385846040516132239392919061502c565b60405180910390a15061242d565b7fe5668ec1bb2b6bb144a50f810e388da4b1d7d3fc05fcb9d588a1aac59d248f89838584476040516132669493929190615061565b60405180910390a15050505050565b60e754600080805b8383101561242d5760e7838154811061329857613298614bac565b60009182526020808320909101546001600160a01b031680835260e890915260409091206001810154919350915042106133be57805460e480546000906132e0908490614b67565b90915550506001600160a01b038216600090815260e86020526040812081815560010181905561330f8561509e565b94508411156133865760e7848154811061332b5761332b614bac565b60009182526020909120015460e780546001600160a01b03909216918590811061335757613357614bac565b9060005260206000200160006101000a8154816001600160a01b0302191690836001600160a01b031602179055505b60e780548061339757613397614d49565b600082815260209020810160001990810180546001600160a01b031916905501905561327d565b60019092019161327d565b60e4548015610bca5760006133de6007612433565b600060e481905560408051600481526024810182526020810180516001600160e01b03166359f778df60e01b179052905192935090916001600160a01b03841691859161342b91906150b5565b60006040518083038185875af1925050503d8060008114613468576040519150601f19603f3d011682016040523d82523d6000602084013e61346d565b606091505b5050905080156134b257816001600160a01b03167fc447c884574da5878be39c403db2245c22530c99b579ea7bcbb3720e1d110dc884604051610cb891815260200190565b816001600160a01b03167fa0561a59abed308fcd0556834574739d778cc6229018039a24ddda0f86aa0b738447604051610cb8929190614c6a565b505050565b6060806134fe83613d14565b9050600061350c6009612433565b6001600160a01b0316635a2ac07360736040518263ffffffff1660e01b815260040161353891906150e4565b600060405180830381865afa158015613555573d6000803e3d6000fd5b505050506040513d6000823e601f3d908101601f1916820160405261357d9190810190614f41565b9050600061358b600a612433565b6001600160a01b0316632cccb53c60736040518263ffffffff1660e01b81526004016135b791906150e4565b600060405180830381865afa1580156135d4573d6000803e3d6000fd5b505050506040513d6000823e601f3d908101601f191682016040526135fc9190810190614f41565b9050600061366b607380548060200260200160405190810160405280929190818152602001828054801561365957602002820191906000526020600020905b81546001600160a01b0316815260019091019060200180831161363b575b5050505050848460a95460ad546141fe565b909550905061367b8582886142c8565b505050915091565b600061368f6005612433565b6001600160a01b031663ac57bd76836136a9436001614b67565b6040518363ffffffff1660e01b81526004016136c6929190614d13565b600060405180830381865afa1580156136e3573d6000803e3d6000fd5b505050506040513d6000823e601f3d908101601f1916820160405261370b9190810190615128565b905060005b82518110156138bd57600083828151811061372d5761372d614bac565b6020908102919091018101516001600160a01b0381166000908152603b90925260408220549092504211159061376283612c98565b9050600061377a84613775436001614b67565b612aed565b8061379b575085858151811061379257613792614bac565b60200260200101515b806137a35750825b159050811580156137b15750805b1561382c576001600160a01b038416600090815260ac60205260409020546137f09060019060ff1660038111156137ea576137ea614c30565b90614408565b6001600160a01b038516600090815260ac60205260409020805460ff1916600183600381111561382257613822614c30565b02179055506138ae565b818015613837575080155b156138ae576001600160a01b038416600090815260ac60205260409020546138769060019060ff16600381111561387057613870614c30565b90614443565b6001600160a01b038516600090815260ac60205260409020805460ff191660018360038111156138a8576138a8614c30565b02179055505b84600101945050505050613710565b5082847f283b50d76057d5f828df85bc87724c6af604e9b55c363a07c9faa2a2cd688b826138e9611243565b6040516138f691906148fd565b60405180910390a350505050565b806001600160a01b03163b600003610bca5780604051630bfc64a360e21b8152600401610b3991906148a5565b6000600154826139419190614ca5565b610ae5906001614b67565b6000836001600160a01b0316838390604051600060405180830381858888f193505050503d806000811461399c576040519150601f19603f3d011682016040523d82523d6000602084013e6139a1565b606091505b509095945050505050565b60018201546000906139c6906001600160a01b031661286d565b90506139d181612b0d565b6139ee5760405163a64b34ad60e01b815260040160405180910390fd5b600583018290556040518281526001600160a01b038216907fb9a1e33376bfbda9092f2d1e37662c1b435aab0d3fa8da3acc8f37ee222f99e790602001610cb8565b7fb53127684a568b3173ae13b9f8a6016e243e63b6e8ee1178d6a717850b5d6103546001600160a01b031690565b600080613a6b600a612433565b6001600160a01b031663b8cc3a50846040518263ffffffff1660e01b8152600401613a9691906148a5565b602060405180830381865afa158015613ab3573d6000803e3d6000fd5b505050506040513d601f19601f82011682018060405250810190613ad79190614b93565b1192915050565b7fdea3103d22025c269050bea94c0c84688877f12fa22b7e6d2d5d78a9a49aa1cb90565b6000816003811115613b1657613b16614c30565b836003811115613b2857613b28614c30565b1660ff1615159392505050565b6001600160a01b038216600090815260e0602052604090205480156134ed57613b6182826104b061394c565b15613bb857816001600160a01b0316836001600160a01b03167f1ce7a1c4702402cd393500acb1de5bd927727a54e144a587d328f1b679abe4ec83604051613bab91815260200190565b60405180910390a3505050565b816001600160a01b0316836001600160a01b03167f6c69e09ee5c5ac33c0cd57787261c5bade070a392ab34a4b5487c6868f723f6e8347604051613bab929190614c6a565b6001600160a01b038216600090815260e3602052604090205480156134ed57613c2982826104b061394c565b15613c7357816001600160a01b0316836001600160a01b03167f0c4d6a43fc8470dee97db74874b5685e412cc517d9bdecfde1623c5e835b18e483604051613bab91815260200190565b816001600160a01b0316836001600160a01b03167f98697ee35f04a599a814432016fff3968c483d2d88dacb484926b9358f8e7cf98347604051613bab929190614c6a565b6000826001600160a01b03168260405160006040518083038185875af1925050503d8060008114613d05576040519150601f19603f3d011682016040523d82523d6000602084013e613d0a565b606091505b5090949350505050565b60606000613d226009612433565b90506000816001600160a01b031663af2454296040518163ffffffff1660e01b8152600401602060405180830381865afa158015613d64573d6000803e3d6000fd5b505050506040513d601f19601f82011682018060405250810190613d889190614b93565b90506000826001600160a01b031663909791dd6040518163ffffffff1660e01b8152600401602060405180830381865afa158015613dca573d6000803e3d6000fd5b505050506040513d601f19601f82011682018060405250810190613dee9190614b93565b90506000836001600160a01b031663446850a160736040518263ffffffff1660e01b8152600401613e1f91906150e4565b600060405180830381865afa158015613e3c573d6000803e3d6000fd5b505050506040513d6000823e601f3d908101601f19168201604052613e649190810190614f41565b6073549091506000816001600160401b03811115613e8457613e84614bc2565b604051908082528060200260200182016040528015613ead578160200160208202803683370190505b50965060008060005b8483101561414f5760738381548110613ed157613ed1614bac565b60009182526020808320909101546001600160a01b031680835260759091526040909120600681015488519294509092501515908890889086908110613f1957613f19614bac565b60200260200101511015613f755780613f70576000613f388a42614b67565b600684018190556040518181529091506001600160a01b038516906000805160206152058339815191529060200160405180910390a2505b613fb6565b8015613fb6578160060160009055826001600160a01b03166000805160206152058339815191526000604051613fad91815260200190565b60405180910390a25b60008260050154600014158015613fd1575042836005015411155b80613ff457506001600160a01b038416600090815260e9602052604090205460ff165b905060008360060154600014158015614011575042846006015411155b9050818061401c5750805b156140ae578861402b8961509e565b9850888151811061403e5761403e614bac565b602002602001015189878151811061405857614058614bac565b602002602001018181525050848d888060010199508151811061407d5761407d614bac565b60200260200101906001600160a01b031690816001600160a01b0316815250506140a68561447f565b505050613eb6565b6001600160a01b03851660009081526077602052604090205480158015906140d65750428111155b1561413f576001600160a01b0386166000818152607760209081526040808320600181018054918590559390935560048901839055518281529192917f86d576c20e383fc2413ef692209cc48ddad5e52f25db5b32f8f7ec5076461ae9910160405180910390a2505b505060019094019350613eb69050565b50505080875280156141f3577f4eaf233b9dc25a5552c1927feee1412eea69add17c2485c831c2e60e234f3c918760405161418a91906148fd565b60405180910390a160405163e22d1c9d60e01b81526001600160a01b0387169063e22d1c9d906141c0908a908c90600401614d13565b600060405180830381600087803b1580156141da57600080fd5b505af11580156141ee573d6000803e3d6000fd5b505050505b505050505050919050565b606060008060689050600088888888886040516024016142229594939291906151b6565b60408051601f19818403018152919052602080820180516001600160e01b0316633bca0a8960e11b17905281518b51929350600192909160009161426591614c78565b614270906040614b67565b90506020840181888483895afa61428657600093505b503d61429157600092505b602087019650826142b557604051630fc2632160e01b815260040160405180910390fd5b8651955050505050509550959350505050565b815b60aa5481101561431c57600081815260ab6020818152604080842080546001600160a01b0316855260ac8352908420805460ff19169055928490525280546001600160a01b03191690556001016142ca565b5060005b8281101561435c57600081815260ab60209081526040808320546001600160a01b0316835260ac9091529020805460ff19169055600101614320565b5060005b828110156143d057600084828151811061437c5761437c614bac565b6020908102919091018101516001600160a01b0316600081815260ac83526040808220805460ff1916600317905585825260ab9093529190912080546001600160a01b031916909117905550600101614360565b508160aa81905550807f3d0eea40644a206ec25781dd5bb3b60eb4fa1264b993c3bddf3c73b14f29ef5e84604051610cb891906148fd565b600081600381111561441c5761441c614c30565b83600381111561442e5761442e614c30565b1760ff166003811115610ae257610ae2614c30565b600081600381111561445757614457614c30565b1983600381111561446a5761446a614c30565b1660ff166003811115610ae257610ae2614c30565b6001600160a01b038116600090815260e960209081526040808320805460ff191690556074909152812054610bca918391908190036144bc575050565b6001600160a01b038216600090815260756020908152604080832080546001600160a01b03199081168255600180830180548316905560028301805483169055600383018054909216909155600482018590556005820185905560069091018490556074835281842084905560779092528220828155810182905560738054909161454691614b54565b8154811061455657614556614bac565b6000918252602090912001546001600160a01b039081169150831681146145d9576001600160a01b03811660009081526074602052604090208290556073805482919084199081106145aa576145aa614bac565b9060005260206000200160006101000a8154816001600160a01b0302191690836001600160a01b031602179055505b60738054806145ea576145ea614d49565b600082815260209020810160001990810180546001600160a01b0319169055019055505050565b6040805160e081018252600080825260208201819052918101829052606081018290526080810182905260a0810182905260c081019190915290565b6001600160a01b0381168114610bca57600080fd5b6000806040838503121561467557600080fd5b82356146808161464d565b915060208301356146908161464d565b809150509250929050565b6000602082840312156146ad57600080fd5b8135610dc48161464d565b600080604083850312156146cb57600080fd5b82356146d68161464d565b946020939093013593505050565b6000602082840312156146f657600080fd5b5035919050565b60018060a01b03808251168352806020830151166020840152806040830151166040840152806060830151166060840152506080810151608083015260a081015160a083015260c081015160c08301525050565b60e08101610ae582846146fd565b815181526020808301519082015260408101610ae5565b8015158114610bca57600080fd5b6000806000806080858703121561479a57600080fd5b84356147a58161464d565b9350602085013592506040850135915060608501356147c381614776565b939692955090935050565b8060408101831015610ae557600080fd5b6000806000806000806000806000806000806101a08d8f03121561480257600080fd5b8c3561480d8161464d565b9b5060208d013561481d8161464d565b9a5060408d013561482d8161464d565b995060608d013561483d8161464d565b985060808d013561484d8161464d565b975060a08d013561485d8161464d565b965060c08d0135955060e08d013594506101008d013593506101208d013592506101408d013591506148938e6101608f016147ce565b90509295989b509295989b509295989b565b6001600160a01b0391909116815260200190565b600081518084526020808501945080840160005b838110156148f25781516001600160a01b0316875295820195908201906001016148cd565b509495945050505050565b602081526000610ae260208301846148b9565b60008083601f84011261492257600080fd5b5081356001600160401b0381111561493957600080fd5b6020830191508360208260051b850101111561495457600080fd5b9250929050565b6000806020838503121561496e57600080fd5b82356001600160401b0381111561498457600080fd5b61499085828601614910565b90969095509350505050565b6020808252825182820181905260009190848201906040850190845b818110156149d65783511515835292840192918401916001016149b8565b50909695505050505050565b6020808252825182820181905260009190848201906040850190845b818110156149d657614a118385516146fd565b9284019260e092909201916001016149fe565b803560108110610e4157600080fd5b60008060408385031215614a4657600080fd5b61468083614a24565b600060208284031215614a6157600080fd5b610ae282614a24565b600080600060608486031215614a7f57600080fd5b8335614a8a8161464d565b95602085013595506040909401359392505050565b60008060008060808587031215614ab557600080fd5b8435614ac08161464d565b93506020850135614ad08161464d565b92506040850135614ae08161464d565b9396929550929360600135925050565b6020808252602e908201527f496e697469616c697a61626c653a20636f6e747261637420697320616c72656160408201526d191e481a5b9a5d1a585b1a5e995960921b606082015260800190565b634e487b7160e01b600052601160045260246000fd5b81810381811115610ae557610ae5614b3e565b80820180821115610ae557610ae5614b3e565b6001600160a01b03929092168252602082015260400190565b600060208284031215614ba557600080fd5b5051919050565b634e487b7160e01b600052603260045260246000fd5b634e487b7160e01b600052604160045260246000fd5b600060018201614bea57614bea614b3e565b5060010190565b60008060008060808587031215614c0757600080fd5b8451614c1281614776565b60208601516040870151606090970151919890975090945092505050565b634e487b7160e01b600052602160045260246000fd5b8281526040810160038310614c5d57614c5d614c30565b8260208301529392505050565b918252602082015260400190565b8082028115828204841417610ae557610ae5614b3e565b634e487b7160e01b600052601260045260246000fd5b600082614cb457614cb4614c8f565b500490565b60008060008060808587031215614ccf57600080fd5b505082516020840151604085015160609095015191969095509092509050565b60008060408385031215614d0257600080fd5b505080516020909101519092909150565b604081526000614d2660408301856148b9565b90508260208301529392505050565b600082614d4457614d44614c8f565b500690565b634e487b7160e01b600052603160045260246000fd5b60108110614d6f57614d6f614c30565b9052565b60208101610ae58284614d5f565b600060208284031215614d9357600080fd5b8151610dc48161464d565b6001600160e01b03198316815260408101600b8310614c5d57614c5d614c30565b6001600160e01b03198416815260608101614ddd6020830185614d5f565b6001600160a01b03929092166040919091015292915050565b6020808252825182820181905260009190848201906040850190845b818110156149d65783516001600160a01b031683529284019291840191600101614e12565b604051601f8201601f191681016001600160401b0381118282101715614e5f57614e5f614bc2565b604052919050565b60006001600160401b03821115614e8057614e80614bc2565b5060051b60200190565b60006020808385031215614e9d57600080fd5b82516001600160401b03811115614eb357600080fd5b8301601f81018513614ec457600080fd5b8051614ed7614ed282614e67565b614e37565b81815260059190911b82018301908381019087831115614ef657600080fd5b928401925b82841015614f1d578351614f0e8161464d565b82529284019290840190614efb565b979650505050505050565b828152604060208201526000610cf260408301846148b9565b60006020808385031215614f5457600080fd5b82516001600160401b03811115614f6a57600080fd5b8301601f81018513614f7b57600080fd5b8051614f89614ed282614e67565b81815260059190911b82018301908381019087831115614fa857600080fd5b928401925b82841015614f1d57835182529284019290840190614fad565b600081518084526020808501945080840160005b838110156148f257815187529582019590820190600101614fda565b60608152600061500960608301866148b9565b828103602084015261501b8186614fc6565b915050826040830152949350505050565b83815260606020820152600061504560608301856148b9565b82810360408401526150578185614fc6565b9695505050505050565b84815260806020820152600061507a60808301866148b9565b828103604084015261508c8186614fc6565b91505082606083015295945050505050565b6000816150ad576150ad614b3e565b506000190190565b6000825160005b818110156150d657602081860181015185830152016150bc565b506000920191825250919050565b6020808252825482820181905260008481528281209092916040850190845b818110156149d65783546001600160a01b031683526001938401939285019201615103565b6000602080838503121561513b57600080fd5b82516001600160401b0381111561515157600080fd5b8301601f8101851361516257600080fd5b8051615170614ed282614e67565b81815260059190911b8201830190838101908783111561518f57600080fd5b928401925b82841015614f1d5783516151a781614776565b82529284019290840190615194565b60a0815260006151c960a08301886148b9565b82810360208401526151db8188614fc6565b905082810360408401526151ef8187614fc6565b6060840195909552505060800152939250505056fe88f854e137380c14d63f6ed99781bf13402167cf55bac49bcd44d4f2d6a342754042bb9a70998f80a86d9963f0d2132e9b11c8ad94d207c6141c8e34b05ce53e7f26b83ff96e1f2b6a682f133852f6798a09c465da95921460cefb3847402498a164736f6c6343000813000a"
}