{
  "address": "0xcf3AFB510e3F488117D0FbB8e0584565Dee97442",
  "abi": [
    {
      "inputs": [],
      "stateMutability": "nonpayable",
      "type": "constructor"
    },
    {
      "anonymous": false,
      "inputs": [
        {
          "indexed": true,
          "internalType": "uint256",
          "name": "period",
          "type": "uint256"
        },
        {
          "indexed": false,
          "internalType": "address[]",
          "name": "consensusAddrs",
          "type": "address[]"
        }
      ],
      "name": "BlockProducerSetUpdated",
      "type": "event"
    },
    {
      "anonymous": false,
      "inputs": [
        {
          "indexed": true,
          "internalType": "address",
          "name": "coinbaseAddr",
          "type": "address"
        },
        {
          "indexed": false,
          "internalType": "uint256",
          "name": "rewardAmount",
          "type": "uint256"
        },
        {
          "indexed": false,
          "internalType": "enum ICoinbaseExecution.BlockRewardDeprecatedType",
          "name": "deprecatedType",
          "type": "uint8"
        }
      ],
      "name": "BlockRewardDeprecated",
      "type": "event"
    },
    {
      "anonymous": false,
      "inputs": [
        {
          "indexed": true,
          "internalType": "address",
          "name": "coinbaseAddr",
          "type": "address"
        },
        {
          "indexed": false,
          "internalType": "uint256",
          "name": "submittedAmount",
          "type": "uint256"
        },
        {
          "indexed": false,
          "internalType": "uint256",
          "name": "bonusAmount",
          "type": "uint256"
        }
      ],
      "name": "BlockRewardSubmitted",
      "type": "event"
    },
    {
      "anonymous": false,
      "inputs": [
        {
          "indexed": true,
          "internalType": "address",
          "name": "consensusAddr",
          "type": "address"
        },
        {
          "indexed": true,
          "internalType": "address",
          "name": "bridgeOperator",
          "type": "address"
        },
        {
          "indexed": true,
          "internalType": "address",
          "name": "recipientAddr",
          "type": "address"
        },
        {
          "indexed": false,
          "internalType": "uint256",
          "name": "amount",
          "type": "uint256"
        }
      ],
      "name": "BridgeOperatorRewardDistributed",
      "type": "event"
    },
    {
      "anonymous": false,
      "inputs": [
        {
          "indexed": true,
          "internalType": "address",
          "name": "consensusAddr",
          "type": "address"
        },
        {
          "indexed": true,
          "internalType": "address",
          "name": "bridgeOperator",
          "type": "address"
        },
        {
          "indexed": true,
          "internalType": "address",
          "name": "recipient",
          "type": "address"
        },
        {
          "indexed": false,
          "internalType": "uint256",
          "name": "amount",
          "type": "uint256"
        },
        {
          "indexed": false,
          "internalType": "uint256",
          "name": "contractBalance",
          "type": "uint256"
        }
      ],
      "name": "BridgeOperatorRewardDistributionFailed",
      "type": "event"
    },
    {
      "anonymous": false,
      "inputs": [
        {
          "indexed": true,
          "internalType": "uint256",
          "name": "period",
          "type": "uint256"
        },
        {
          "indexed": false,
          "internalType": "address[]",
          "name": "bridgeOperators",
          "type": "address[]"
        }
      ],
      "name": "BridgeOperatorSetUpdated",
      "type": "event"
    },
    {
      "anonymous": false,
      "inputs": [
        {
          "indexed": false,
          "internalType": "address",
          "name": "",
          "type": "address"
        }
      ],
      "name": "BridgeTrackingContractUpdated",
      "type": "event"
    },
    {
      "anonymous": false,
      "inputs": [
        {
          "indexed": true,
          "internalType": "address",
          "name": "consensusAddr",
          "type": "address"
        },
        {
          "indexed": true,
          "internalType": "address",
          "name": "treasuryAddr",
          "type": "address"
        },
        {
          "indexed": true,
          "internalType": "address",
          "name": "admin",
          "type": "address"
        },
        {
          "indexed": false,
          "internalType": "address",
          "name": "bridgeOperator",
          "type": "address"
        }
      ],
      "name": "CandidateGranted",
      "type": "event"
    },
    {
      "anonymous": false,
      "inputs": [
        {
          "indexed": true,
          "internalType": "address",
          "name": "consensusAddr",
          "type": "address"
        },
        {
          "indexed": false,
          "internalType": "uint256",
          "name": "revokedTimestamp",
          "type": "uint256"
        }
      ],
      "name": "CandidateRevokedTimestampUpdated",
      "type": "event"
    },
    {
      "anonymous": false,
      "inputs": [
        {
          "indexed": false,
          "internalType": "address[]",
          "name": "consensusAddrs",
          "type": "address[]"
        }
      ],
      "name": "CandidatesRevoked",
      "type": "event"
    },
    {
      "anonymous": false,
      "inputs": [
        {
          "indexed": false,
          "internalType": "uint8",
          "name": "version",
          "type": "uint8"
        }
      ],
      "name": "Initialized",
      "type": "event"
    },
    {
      "anonymous": false,
      "inputs": [
        {
          "indexed": false,
          "internalType": "address",
          "name": "",
          "type": "address"
        }
      ],
      "name": "MaintenanceContractUpdated",
      "type": "event"
    },
    {
      "anonymous": false,
      "inputs": [
        {
          "indexed": false,
          "internalType": "uint256",
          "name": "",
          "type": "uint256"
        }
      ],
      "name": "MaxPrioritizedValidatorNumberUpdated",
      "type": "event"
    },
    {
      "anonymous": false,
      "inputs": [
        {
          "indexed": false,
          "internalType": "uint256",
          "name": "threshold",
          "type": "uint256"
        }
      ],
      "name": "MaxValidatorCandidateUpdated",
      "type": "event"
    },
    {
      "anonymous": false,
      "inputs": [
        {
          "indexed": false,
          "internalType": "uint256",
          "name": "",
          "type": "uint256"
        }
      ],
      "name": "MaxValidatorNumberUpdated",
      "type": "event"
    },
    {
      "anonymous": false,
      "inputs": [
        {
          "indexed": true,
          "internalType": "address",
          "name": "consensusAddr",
          "type": "address"
        },
        {
          "indexed": true,
          "internalType": "address",
          "name": "recipient",
          "type": "address"
        },
        {
          "indexed": false,
          "internalType": "uint256",
          "name": "amount",
          "type": "uint256"
        }
      ],
      "name": "MiningRewardDistributed",
      "type": "event"
    },
    {
      "anonymous": false,
      "inputs": [
        {
          "indexed": true,
          "internalType": "address",
          "name": "consensusAddr",
          "type": "address"
        },
        {
          "indexed": true,
          "internalType": "address",
          "name": "recipient",
          "type": "address"
        },
        {
          "indexed": false,
          "internalType": "uint256",
          "name": "amount",
          "type": "uint256"
        },
        {
          "indexed": false,
          "internalType": "uint256",
          "name": "contractBalance",
          "type": "uint256"
        }
      ],
      "name": "MiningRewardDistributionFailed",
      "type": "event"
    },
    {
      "anonymous": false,
      "inputs": [
        {
          "indexed": false,
          "internalType": "address",
          "name": "",
          "type": "address"
        }
      ],
      "name": "RoninTrustedOrganizationContractUpdated",
      "type": "event"
    },
    {
      "anonymous": false,
      "inputs": [
        {
          "indexed": false,
          "internalType": "address",
          "name": "",
          "type": "address"
        }
      ],
      "name": "SlashIndicatorContractUpdated",
      "type": "event"
    },
    {
      "anonymous": false,
      "inputs": [
        {
          "indexed": false,
          "internalType": "address",
          "name": "",
          "type": "address"
        }
      ],
      "name": "StakingContractUpdated",
      "type": "event"
    },
    {
      "anonymous": false,
      "inputs": [
        {
          "indexed": false,
          "internalType": "uint256",
          "name": "amount",
          "type": "uint256"
        }
      ],
      "name": "StakingRewardDistributed",
      "type": "event"
    },
    {
      "anonymous": false,
      "inputs": [
        {
          "indexed": false,
          "internalType": "uint256",
          "name": "amount",
          "type": "uint256"
        },
        {
          "indexed": false,
          "internalType": "uint256",
          "name": "contractBalance",
          "type": "uint256"
        }
      ],
      "name": "StakingRewardDistributionFailed",
      "type": "event"
    },
    {
      "anonymous": false,
      "inputs": [
        {
          "indexed": false,
          "internalType": "address",
          "name": "",
          "type": "address"
        }
      ],
      "name": "StakingVestingContractUpdated",
      "type": "event"
    },
    {
      "anonymous": false,
      "inputs": [
        {
          "indexed": true,
          "internalType": "address",
          "name": "consensusAddr",
          "type": "address"
        },
        {
          "indexed": true,
          "internalType": "uint256",
          "name": "period",
          "type": "uint256"
        },
        {
          "indexed": false,
          "internalType": "uint256",
          "name": "jailedUntil",
          "type": "uint256"
        },
        {
          "indexed": false,
          "internalType": "uint256",
          "name": "deductedStakingAmount",
          "type": "uint256"
        },
        {
          "indexed": false,
          "internalType": "bool",
          "name": "blockProducerRewardDeprecated",
          "type": "bool"
        },
        {
          "indexed": false,
          "internalType": "bool",
          "name": "bridgeOperatorRewardDeprecated",
          "type": "bool"
        }
      ],
      "name": "ValidatorPunished",
      "type": "event"
    },
    {
      "anonymous": false,
      "inputs": [
        {
          "indexed": true,
          "internalType": "uint256",
          "name": "period",
          "type": "uint256"
        },
        {
          "indexed": false,
          "internalType": "address[]",
          "name": "consensusAddrs",
          "type": "address[]"
        }
      ],
      "name": "ValidatorSetUpdated",
      "type": "event"
    },
    {
      "anonymous": false,
      "inputs": [
        {
          "indexed": true,
          "internalType": "address",
          "name": "validator",
          "type": "address"
        },
        {
          "indexed": false,
          "internalType": "uint256",
          "name": "period",
          "type": "uint256"
        }
      ],
      "name": "ValidatorUnjailed",
      "type": "event"
    },
    {
      "anonymous": false,
      "inputs": [
        {
          "indexed": true,
          "internalType": "uint256",
          "name": "periodNumber",
          "type": "uint256"
        },
        {
          "indexed": true,
          "internalType": "uint256",
          "name": "epochNumber",
          "type": "uint256"
        },
        {
          "indexed": false,
          "internalType": "bool",
          "name": "periodEnding",
          "type": "bool"
        }
      ],
      "name": "WrappedUpEpoch",
      "type": "event"
    },
    {
      "stateMutability": "payable",
      "type": "fallback"
    },
    {
      "inputs": [
        {
          "internalType": "uint256",
          "name": "_newPeriod",
          "type": "uint256"
        }
      ],
      "name": "_isPeriodEnding",
      "outputs": [
        {
          "internalType": "bool",
          "name": "",
          "type": "bool"
        }
      ],
      "stateMutability": "view",
      "type": "function"
    },
    {
      "inputs": [],
      "name": "bridgeTrackingContract",
      "outputs": [
        {
          "internalType": "address",
          "name": "",
          "type": "address"
        }
      ],
      "stateMutability": "view",
      "type": "function"
    },
    {
      "inputs": [
        {
          "internalType": "address[]",
          "name": "_addrList",
          "type": "address[]"
        }
      ],
      "name": "bulkJailed",
      "outputs": [
        {
          "internalType": "bool[]",
          "name": "_result",
          "type": "bool[]"
        }
      ],
      "stateMutability": "view",
      "type": "function"
    },
    {
      "inputs": [],
      "name": "currentPeriod",
      "outputs": [
        {
          "internalType": "uint256",
          "name": "",
          "type": "uint256"
        }
      ],
      "stateMutability": "view",
      "type": "function"
    },
    {
      "inputs": [],
      "name": "currentPeriodStartAtBlock",
      "outputs": [
        {
          "internalType": "uint256",
          "name": "",
          "type": "uint256"
        }
      ],
      "stateMutability": "view",
      "type": "function"
    },
    {
      "inputs": [
        {
          "internalType": "uint256",
          "name": "_block",
          "type": "uint256"
        }
      ],
      "name": "epochEndingAt",
      "outputs": [
        {
          "internalType": "bool",
          "name": "",
          "type": "bool"
        }
      ],
      "stateMutability": "view",
      "type": "function"
    },
    {
      "inputs": [
        {
          "internalType": "uint256",
          "name": "_block",
          "type": "uint256"
        }
      ],
      "name": "epochOf",
      "outputs": [
        {
          "internalType": "uint256",
          "name": "",
          "type": "uint256"
        }
      ],
      "stateMutability": "view",
      "type": "function"
    },
    {
      "inputs": [
        {
          "internalType": "address",
          "name": "_validatorAddr",
          "type": "address"
        },
        {
          "internalType": "uint256",
          "name": "_period",
          "type": "uint256"
        }
      ],
      "name": "execBailOut",
      "outputs": [],
      "stateMutability": "nonpayable",
      "type": "function"
    },
    {
      "inputs": [
        {
          "internalType": "address",
          "name": "_validatorAddr",
          "type": "address"
        },
        {
          "internalType": "uint256",
          "name": "_newJailedUntil",
          "type": "uint256"
        },
        {
          "internalType": "uint256",
          "name": "_slashAmount",
          "type": "uint256"
        }
      ],
      "name": "execSlash",
      "outputs": [],
      "stateMutability": "nonpayable",
      "type": "function"
    },
    {
      "inputs": [],
      "name": "getBlockProducers",
      "outputs": [
        {
          "internalType": "address[]",
          "name": "_result",
          "type": "address[]"
        }
      ],
      "stateMutability": "view",
      "type": "function"
    },
    {
      "inputs": [],
      "name": "getBridgeOperators",
      "outputs": [
        {
          "internalType": "address[]",
          "name": "_bridgeOperatorList",
          "type": "address[]"
        }
      ],
      "stateMutability": "view",
      "type": "function"
    },
    {
      "inputs": [
        {
          "internalType": "address",
          "name": "_candidate",
          "type": "address"
        }
      ],
      "name": "getCandidateInfo",
      "outputs": [
        {
          "components": [
            {
              "internalType": "address",
              "name": "admin",
              "type": "address"
            },
            {
              "internalType": "address",
              "name": "consensusAddr",
              "type": "address"
            },
            {
              "internalType": "address payable",
              "name": "treasuryAddr",
              "type": "address"
            },
            {
              "internalType": "address",
              "name": "bridgeOperatorAddr",
              "type": "address"
            },
            {
              "internalType": "uint256",
              "name": "commissionRate",
              "type": "uint256"
            },
            {
              "internalType": "uint256",
              "name": "revokedTimestamp",
              "type": "uint256"
            },
            {
              "internalType": "bytes",
              "name": "extraData",
              "type": "bytes"
            }
          ],
          "internalType": "struct ICandidateManager.ValidatorCandidate",
          "name": "",
          "type": "tuple"
        }
      ],
      "stateMutability": "view",
      "type": "function"
    },
    {
      "inputs": [],
      "name": "getCandidateInfos",
      "outputs": [
        {
          "components": [
            {
              "internalType": "address",
              "name": "admin",
              "type": "address"
            },
            {
              "internalType": "address",
              "name": "consensusAddr",
              "type": "address"
            },
            {
              "internalType": "address payable",
              "name": "treasuryAddr",
              "type": "address"
            },
            {
              "internalType": "address",
              "name": "bridgeOperatorAddr",
              "type": "address"
            },
            {
              "internalType": "uint256",
              "name": "commissionRate",
              "type": "uint256"
            },
            {
              "internalType": "uint256",
              "name": "revokedTimestamp",
              "type": "uint256"
            },
            {
              "internalType": "bytes",
              "name": "extraData",
              "type": "bytes"
            }
          ],
          "internalType": "struct ICandidateManager.ValidatorCandidate[]",
          "name": "_list",
          "type": "tuple[]"
        }
      ],
      "stateMutability": "view",
      "type": "function"
    },
    {
      "inputs": [],
      "name": "getLastUpdatedBlock",
      "outputs": [
        {
          "internalType": "uint256",
          "name": "",
          "type": "uint256"
        }
      ],
      "stateMutability": "view",
      "type": "function"
    },
    {
      "inputs": [],
      "name": "getValidatorCandidates",
      "outputs": [
        {
          "internalType": "address[]",
          "name": "",
          "type": "address[]"
        }
      ],
      "stateMutability": "view",
      "type": "function"
    },
    {
      "inputs": [],
      "name": "getValidators",
      "outputs": [
        {
          "internalType": "address[]",
          "name": "_validatorList",
          "type": "address[]"
        }
      ],
      "stateMutability": "view",
      "type": "function"
    },
    {
      "inputs": [
        {
          "internalType": "address",
          "name": "_admin",
          "type": "address"
        },
        {
          "internalType": "address",
          "name": "_consensusAddr",
          "type": "address"
        },
        {
          "internalType": "address payable",
          "name": "_treasuryAddr",
          "type": "address"
        },
        {
          "internalType": "address",
          "name": "_bridgeOperatorAddr",
          "type": "address"
        },
        {
          "internalType": "uint256",
          "name": "_commissionRate",
          "type": "uint256"
        }
      ],
      "name": "grantValidatorCandidate",
      "outputs": [],
      "stateMutability": "nonpayable",
      "type": "function"
    },
    {
      "inputs": [
        {
          "internalType": "address",
          "name": "__slashIndicatorContract",
          "type": "address"
        },
        {
          "internalType": "address",
          "name": "__stakingContract",
          "type": "address"
        },
        {
          "internalType": "address",
          "name": "__stakingVestingContract",
          "type": "address"
        },
        {
          "internalType": "address",
          "name": "__maintenanceContract",
          "type": "address"
        },
        {
          "internalType": "address",
          "name": "__roninTrustedOrganizationContract",
          "type": "address"
        },
        {
          "internalType": "address",
          "name": "__bridgeTrackingContract",
          "type": "address"
        },
        {
          "internalType": "uint256",
          "name": "__maxValidatorNumber",
          "type": "uint256"
        },
        {
          "internalType": "uint256",
          "name": "__maxValidatorCandidate",
          "type": "uint256"
        },
        {
          "internalType": "uint256",
          "name": "__maxPrioritizedValidatorNumber",
          "type": "uint256"
        },
        {
          "internalType": "uint256",
          "name": "__numberOfBlocksInEpoch",
          "type": "uint256"
        }
      ],
      "name": "initialize",
      "outputs": [],
      "stateMutability": "nonpayable",
      "type": "function"
    },
    {
      "inputs": [
        {
          "internalType": "address",
          "name": "_addr",
          "type": "address"
        }
      ],
      "name": "isBlockProducer",
      "outputs": [
        {
          "internalType": "bool",
          "name": "",
          "type": "bool"
        }
      ],
      "stateMutability": "view",
      "type": "function"
    },
    {
      "inputs": [
        {
          "internalType": "address",
          "name": "_bridgeOperatorAddr",
          "type": "address"
        }
      ],
      "name": "isBridgeOperator",
      "outputs": [
        {
          "internalType": "bool",
          "name": "_result",
          "type": "bool"
        }
      ],
      "stateMutability": "view",
      "type": "function"
    },
    {
      "inputs": [
        {
          "internalType": "address",
          "name": "_candidate",
          "type": "address"
        },
        {
          "internalType": "address",
          "name": "_admin",
          "type": "address"
        }
      ],
      "name": "isCandidateAdmin",
      "outputs": [
        {
          "internalType": "bool",
          "name": "",
          "type": "bool"
        }
      ],
      "stateMutability": "view",
      "type": "function"
    },
    {
      "inputs": [],
      "name": "isPeriodEnding",
      "outputs": [
        {
          "internalType": "bool",
          "name": "",
          "type": "bool"
        }
      ],
      "stateMutability": "view",
      "type": "function"
    },
    {
      "inputs": [
        {
          "internalType": "address",
          "name": "_addr",
          "type": "address"
        }
      ],
      "name": "isValidator",
      "outputs": [
        {
          "internalType": "bool",
          "name": "",
          "type": "bool"
        }
      ],
      "stateMutability": "view",
      "type": "function"
    },
    {
      "inputs": [
        {
          "internalType": "address",
          "name": "_addr",
          "type": "address"
        }
      ],
      "name": "isValidatorCandidate",
      "outputs": [
        {
          "internalType": "bool",
          "name": "",
          "type": "bool"
        }
      ],
      "stateMutability": "view",
      "type": "function"
    },
    {
      "inputs": [
        {
          "internalType": "address",
          "name": "_addr",
          "type": "address"
        }
      ],
      "name": "jailed",
      "outputs": [
        {
          "internalType": "bool",
          "name": "",
          "type": "bool"
        }
      ],
      "stateMutability": "view",
      "type": "function"
    },
    {
      "inputs": [
        {
          "internalType": "address",
          "name": "_addr",
          "type": "address"
        },
        {
          "internalType": "uint256",
          "name": "_blockNum",
          "type": "uint256"
        }
      ],
      "name": "jailedAtBlock",
      "outputs": [
        {
          "internalType": "bool",
          "name": "",
          "type": "bool"
        }
      ],
      "stateMutability": "view",
      "type": "function"
    },
    {
      "inputs": [
        {
          "internalType": "address",
          "name": "_addr",
          "type": "address"
        }
      ],
      "name": "jailedTimeLeft",
      "outputs": [
        {
          "internalType": "bool",
          "name": "isJailed_",
          "type": "bool"
        },
        {
          "internalType": "uint256",
          "name": "blockLeft_",
          "type": "uint256"
        },
        {
          "internalType": "uint256",
          "name": "epochLeft_",
          "type": "uint256"
        }
      ],
      "stateMutability": "view",
      "type": "function"
    },
    {
      "inputs": [
        {
          "internalType": "address",
          "name": "_addr",
          "type": "address"
        },
        {
          "internalType": "uint256",
          "name": "_blockNum",
          "type": "uint256"
        }
      ],
      "name": "jailedTimeLeftAtBlock",
      "outputs": [
        {
          "internalType": "bool",
          "name": "isJailed_",
          "type": "bool"
        },
        {
          "internalType": "uint256",
          "name": "blockLeft_",
          "type": "uint256"
        },
        {
          "internalType": "uint256",
          "name": "epochLeft_",
          "type": "uint256"
        }
      ],
      "stateMutability": "view",
      "type": "function"
    },
    {
      "inputs": [],
      "name": "maintenanceContract",
      "outputs": [
        {
          "internalType": "address",
          "name": "",
          "type": "address"
        }
      ],
      "stateMutability": "view",
      "type": "function"
    },
    {
      "inputs": [],
      "name": "maxPrioritizedValidatorNumber",
      "outputs": [
        {
          "internalType": "uint256",
          "name": "_maximumPrioritizedValidatorNumber",
          "type": "uint256"
        }
      ],
      "stateMutability": "view",
      "type": "function"
    },
    {
      "inputs": [],
      "name": "maxValidatorCandidate",
      "outputs": [
        {
          "internalType": "uint256",
          "name": "",
          "type": "uint256"
        }
      ],
      "stateMutability": "view",
      "type": "function"
    },
    {
      "inputs": [],
      "name": "maxValidatorNumber",
      "outputs": [
        {
          "internalType": "uint256",
          "name": "_maximumValidatorNumber",
          "type": "uint256"
        }
      ],
      "stateMutability": "view",
      "type": "function"
    },
    {
      "inputs": [
        {
          "internalType": "address[]",
          "name": "_blockProducers",
          "type": "address[]"
        }
      ],
      "name": "miningRewardDeprecated",
      "outputs": [
        {
          "internalType": "bool[]",
          "name": "_result",
          "type": "bool[]"
        }
      ],
      "stateMutability": "view",
      "type": "function"
    },
    {
      "inputs": [
        {
          "internalType": "address[]",
          "name": "_blockProducers",
          "type": "address[]"
        },
        {
          "internalType": "uint256",
          "name": "_period",
          "type": "uint256"
        }
      ],
      "name": "miningRewardDeprecatedAtPeriod",
      "outputs": [
        {
          "internalType": "bool[]",
          "name": "_result",
          "type": "bool[]"
        }
      ],
      "stateMutability": "view",
      "type": "function"
    },
    {
      "inputs": [],
      "name": "numberOfBlocksInEpoch",
      "outputs": [
        {
          "internalType": "uint256",
          "name": "_numberOfBlocks",
          "type": "uint256"
        }
      ],
      "stateMutability": "view",
      "type": "function"
    },
    {
      "inputs": [],
      "name": "precompilePickValidatorSetAddress",
      "outputs": [
        {
          "internalType": "address",
          "name": "",
          "type": "address"
        }
      ],
      "stateMutability": "view",
      "type": "function"
    },
    {
      "inputs": [],
      "name": "precompileSortValidatorsAddress",
      "outputs": [
        {
          "internalType": "address",
          "name": "",
          "type": "address"
        }
      ],
      "stateMutability": "view",
      "type": "function"
    },
    {
      "inputs": [
        {
          "internalType": "address",
          "name": "_consensusAddr",
          "type": "address"
        },
        {
          "internalType": "uint256",
          "name": "_secsLeft",
          "type": "uint256"
        }
      ],
      "name": "requestRevokeCandidate",
      "outputs": [],
      "stateMutability": "nonpayable",
      "type": "function"
    },
    {
      "inputs": [],
      "name": "roninTrustedOrganizationContract",
      "outputs": [
        {
          "internalType": "address",
          "name": "",
          "type": "address"
        }
      ],
      "stateMutability": "view",
      "type": "function"
    },
    {
      "inputs": [
        {
          "internalType": "address",
          "name": "_addr",
          "type": "address"
        }
      ],
      "name": "setBridgeTrackingContract",
      "outputs": [],
      "stateMutability": "nonpayable",
      "type": "function"
    },
    {
      "inputs": [
        {
          "internalType": "address",
          "name": "_addr",
          "type": "address"
        }
      ],
      "name": "setMaintenanceContract",
      "outputs": [],
      "stateMutability": "nonpayable",
      "type": "function"
    },
    {
      "inputs": [
        {
          "internalType": "uint256",
          "name": "_number",
          "type": "uint256"
        }
      ],
      "name": "setMaxPrioritizedValidatorNumber",
      "outputs": [],
      "stateMutability": "nonpayable",
      "type": "function"
    },
    {
      "inputs": [
        {
          "internalType": "uint256",
          "name": "_number",
          "type": "uint256"
        }
      ],
      "name": "setMaxValidatorCandidate",
      "outputs": [],
      "stateMutability": "nonpayable",
      "type": "function"
    },
    {
      "inputs": [
        {
          "internalType": "uint256",
          "name": "_max",
          "type": "uint256"
        }
      ],
      "name": "setMaxValidatorNumber",
      "outputs": [],
      "stateMutability": "nonpayable",
      "type": "function"
    },
    {
      "inputs": [
        {
          "internalType": "address",
          "name": "_addr",
          "type": "address"
        }
      ],
      "name": "setRoninTrustedOrganizationContract",
      "outputs": [],
      "stateMutability": "nonpayable",
      "type": "function"
    },
    {
      "inputs": [
        {
          "internalType": "address",
          "name": "_addr",
          "type": "address"
        }
      ],
      "name": "setSlashIndicatorContract",
      "outputs": [],
      "stateMutability": "nonpayable",
      "type": "function"
    },
    {
      "inputs": [
        {
          "internalType": "address",
          "name": "_addr",
          "type": "address"
        }
      ],
      "name": "setStakingContract",
      "outputs": [],
      "stateMutability": "nonpayable",
      "type": "function"
    },
    {
      "inputs": [
        {
          "internalType": "address",
          "name": "_addr",
          "type": "address"
        }
      ],
      "name": "setStakingVestingContract",
      "outputs": [],
      "stateMutability": "nonpayable",
      "type": "function"
    },
    {
      "inputs": [],
      "name": "slashIndicatorContract",
      "outputs": [
        {
          "internalType": "address",
          "name": "",
          "type": "address"
        }
      ],
      "stateMutability": "view",
      "type": "function"
    },
    {
      "inputs": [],
      "name": "stakingContract",
      "outputs": [
        {
          "internalType": "address",
          "name": "",
          "type": "address"
        }
      ],
      "stateMutability": "view",
      "type": "function"
    },
    {
      "inputs": [],
      "name": "stakingVestingContract",
      "outputs": [
        {
          "internalType": "address",
          "name": "",
          "type": "address"
        }
      ],
      "stateMutability": "view",
      "type": "function"
    },
    {
      "inputs": [],
      "name": "submitBlockReward",
      "outputs": [],
      "stateMutability": "payable",
      "type": "function"
    },
    {
      "inputs": [],
      "name": "totalBlockProducers",
      "outputs": [
        {
          "internalType": "uint256",
          "name": "_total",
          "type": "uint256"
        }
      ],
      "stateMutability": "view",
      "type": "function"
    },
    {
      "inputs": [],
      "name": "totalBridgeOperators",
      "outputs": [
        {
          "internalType": "uint256",
          "name": "",
          "type": "uint256"
        }
      ],
      "stateMutability": "view",
      "type": "function"
    },
    {
      "inputs": [],
      "name": "validatorCount",
      "outputs": [
        {
          "internalType": "uint256",
          "name": "",
          "type": "uint256"
        }
      ],
      "stateMutability": "view",
      "type": "function"
    },
    {
      "inputs": [],
      "name": "wrapUpEpoch",
      "outputs": [],
      "stateMutability": "payable",
      "type": "function"
    },
    {
      "stateMutability": "payable",
      "type": "receive"
    }
  ],
  "transactionHash": "0x2930535c760d1dfdcc71d14085470b4f20c389ba66d22cff1dec5b18e3456d5f",
  "args": [],
  "numDeployments": 1,
  "solcInputHash": "2dccd829348aefebbef587667549cd38",
  "bytecode": "0x60806040523480156200001157600080fd5b506200001c62000022565b620000e4565b600054610100900460ff16156200008f5760405162461bcd60e51b815260206004820152602760248201527f496e697469616c697a61626c653a20636f6e747261637420697320696e697469604482015266616c697a696e6760c81b606482015260840160405180910390fd5b60005460ff9081161015620000e2576000805460ff191660ff9081179091556040519081527f7f26b83ff96e1f2b6a682f133852f6798a09c465da95921460cefb38474024989060200160405180910390a15b565b614e6c80620000f46000396000f3fe60806040526004361061036f5760003560e01c80637043e5dd116101c65780639e94b9ec116100f7578063ba77b06c11610095578063d2cb215e1161006f578063d2cb215e146109d1578063ee99205c146109ef578063eeb629a814610a0d578063facd743b14610a225761037e565b8063ba77b06c14610987578063c94aaa021461099c578063d09f1ab4146109bc5761037e565b8063ad295783116100d1578063ad29578314610912578063b405aaf214610932578063b5e337de14610952578063b7ab4db5146109725761037e565b80639e94b9ec146108a5578063a0c3f2d2146108ba578063a3d545f5146108f25761037e565b806387c891bd116101645780639b19dbfd1161013e5780639b19dbfd1461082e5780639b8c334b146108435780639c8d98da146108655780639dd373b9146108855761037e565b806387c891bd146107e55780638d559c38146107fa57806392a8c2e81461080e5761037e565b80637593ff71116101a05780637593ff711461074857806381f9535f14610768578063823a7b9c146107a557806385ad5aec146107c55761037e565b80637043e5dd1461070057806372e4681014610720578063733ec970146107285761037e565b806346fe9311116102a0578063562d53041161023e578063605239a111610218578063605239a11461069657806365244ece146106ab5780636aa1c2ef146106cb5780636efa12bd146106e05761037e565b8063562d530414610643578063570ccb13146106585780635a08482d146106785761037e565b80634f2a693f1161027a5780634f2a693f146105db57806352091f17146105fb5780635248184a146106035780635511cde1146106255761037e565b806346fe93111461057957806349096d26146105995780634a68f8c6146105bb5761037e565b8063297a8fca1161030d5780633986de6a116102e75780633986de6a146104fa5780633b3159b61461051a578063428483c31461052e5780634493421e1461055b5761037e565b8063297a8fca146104935780632bcf3d15146104a85780633529214b146104c85761037e565b806315b5ebde1161034957806315b5ebde14610411578063217f35c2146104315780632607d9191461044657806328bde1e1146104665761037e565b806304d971ab1461038657806306040618146103d85780630f43a677146103fb5761037e565b3661037e5761037c610a42565b005b61037c610a42565b34801561039257600080fd5b506103c36103a13660046142ed565b6001600160a01b03918216600090815260756020526040902054821691161490565b60405190151581526020015b60405180910390f35b3480156103e457600080fd5b506103ed610ad4565b6040519081526020016103cf565b34801561040757600080fd5b506103ed60aa5481565b34801561041d57600080fd5b5061037c61042c366004614326565b610ae4565b34801561043d57600080fd5b506103c3610bcf565b34801561045257600080fd5b506103c3610461366004614326565b610bdd565b34801561047257600080fd5b50610486610481366004614352565b610c01565b6040516103cf9190614417565b34801561049f57600080fd5b506004546103ed565b3480156104b457600080fd5b5061037c6104c3366004614352565b610d44565b3480156104d457600080fd5b50606d546001600160a01b03165b6040516001600160a01b0390911681526020016103cf565b34801561050657600080fd5b5061037c61051536600461442a565b610df9565b34801561052657600080fd5b5060686104e2565b34801561053a57600080fd5b5061054e61054936600461451f565b610f62565b6040516103cf9190614560565b34801561056757600080fd5b50606e546001600160a01b03166104e2565b34801561058557600080fd5b5061037c610594366004614352565b61101d565b3480156105a557600080fd5b506105ae6110cc565b6040516103cf91906145ea565b3480156105c757600080fd5b5061054e6105d636600461451f565b6111b5565b3480156105e757600080fd5b5061037c6105f63660046145fd565b61127e565b61037c6112bf565b34801561060f57600080fd5b50610618611643565b6040516103cf9190614616565b34801561063157600080fd5b5060a8546001600160a01b03166104e2565b34801561064f57600080fd5b5060aa546103ed565b34801561066457600080fd5b5061037c610673366004614678565b6117ff565b34801561068457600080fd5b506070546001600160a01b03166104e2565b3480156106a257600080fd5b506072546103ed565b3480156106b757600080fd5b506103c36106c6366004614352565b61198b565b3480156106d757600080fd5b506001546103ed565b3480156106ec57600080fd5b5061037c6106fb366004614326565b6119cb565b34801561070c57600080fd5b506103c361071b366004614352565b611b23565b61037c611b2f565b34801561073457600080fd5b5061037c6107433660046146ad565b611d79565b34801561075457600080fd5b506103c36107633660046145fd565b61207e565b34801561077457600080fd5b50610788610783366004614352565b6120a2565b6040805193151584526020840192909252908201526060016103cf565b3480156107b157600080fd5b5061037c6107c03660046145fd565b6120be565b3480156107d157600080fd5b506107886107e0366004614326565b6120ff565b3480156107f157600080fd5b506002546103ed565b34801561080657600080fd5b5060666104e2565b34801561081a57600080fd5b5061054e610829366004614711565b612182565b34801561083a57600080fd5b506105ae61223f565b34801561084f57600080fd5b506103c361085e3660046145fd565b6003541090565b34801561087157600080fd5b5061037c610880366004614352565b6122f0565b34801561089157600080fd5b5061037c6108a0366004614352565b6123a2565b3480156108b157600080fd5b506103ed61244d565b3480156108c657600080fd5b506103c36108d5366004614352565b6001600160a01b0316600090815260746020526040902054151590565b3480156108fe57600080fd5b506103ed61090d3660046145fd565b6124a1565b34801561091e57600080fd5b5061037c61092d366004614352565b6124ac565b34801561093e57600080fd5b506103c361094d366004614352565b61255e565b34801561095e57600080fd5b5061037c61096d366004614352565b6125c1565b34801561097e57600080fd5b506105ae612682565b34801561099357600080fd5b506105ae61272f565b3480156109a857600080fd5b5061037c6109b73660046145fd565b612791565b3480156109c857600080fd5b5060a9546103ed565b3480156109dd57600080fd5b50606f546001600160a01b03166104e2565b3480156109fb57600080fd5b506071546001600160a01b03166104e2565b348015610a1957600080fd5b5060ad546103ed565b348015610a2e57600080fd5b506103c3610a3d366004614352565b6127d2565b606d546001600160a01b03163314610ad25760405162461bcd60e51b815260206004820152604260248201527f526f6e696e56616c696461746f725365743a206f6e6c7920726563656976657360448201527f20524f4e2066726f6d207374616b696e672076657374696e6720636f6e74726160648201526118dd60f21b608482015260a4015b60405180910390fd5b565b6000610adf60035490565b905090565b33610af76070546001600160a01b031690565b6001600160a01b031614610b1d5760405162461bcd60e51b8152600401610ac99061475c565b6001600160a01b038216600081815260386020908152604080832085845282528083208054600160ff199182168117909255948452603783528184208685529092529091208054909216909155610b7490436147e1565b6001600160a01b0383166000818152603a6020526040908190209290925590517f6bb2436cb6b6eb65d5a52fac2ae0373a77ade6661e523ef3004ee2d5524e6c6e90610bc39084815260200190565b60405180910390a25050565b6000610adf61085e4261280f565b6001600160a01b0382166000908152603a60205260408120548211155b9392505050565b610c096141ac565b6001600160a01b038216600090815260746020526040902054610c3e5760405162461bcd60e51b8152600401610ac9906147f8565b6001600160a01b03808316600090815260756020908152604091829020825160e081018452815485168152600182015485169281019290925260028101548416928201929092526003820154909216606083015260048101546080830152600581015460a083015260068101805460c084019190610cbb9061484a565b80601f0160208091040260200160405190810160405280929190818152602001828054610ce79061484a565b8015610d345780601f10610d0957610100808354040283529160200191610d34565b820191906000526020600020905b815481529060010190602001808311610d1757829003601f168201915b5050505050815250509050919050565b610d4c61281e565b6001600160a01b0316336001600160a01b031614610d7c5760405162461bcd60e51b8152600401610ac99061487f565b6000816001600160a01b03163b11610ded5760405162461bcd60e51b815260206004820152602e60248201527f486173536c617368496e64696361746f72436f6e74726163743a20736574207460448201526d1bc81b9bdb8b58dbdb9d1c9858dd60921b6064820152608401610ac9565b610df68161284c565b50565b600054610100900460ff1615808015610e195750600054600160ff909116105b80610e335750303b158015610e33575060005460ff166001145b610e965760405162461bcd60e51b815260206004820152602e60248201527f496e697469616c697a61626c653a20636f6e747261637420697320616c72656160448201526d191e481a5b9a5d1a585b1a5e995960921b6064820152608401610ac9565b6000805460ff191660011790558015610eb9576000805461ff0019166101001790555b610ec28b61284c565b610ecb8a6128a1565b610ed4896128ef565b610edd8861293d565b610ee68661298b565b610eef876129d9565b610ef885612a27565b610f0184612a5c565b610f0a83612a91565b60018290558015610f55576000805461ff0019169055604051600181527f7f26b83ff96e1f2b6a682f133852f6798a09c465da95921460cefb38474024989060200160405180910390a15b5050505050505050505050565b6060816001600160401b03811115610f7c57610f7c6148c1565b604051908082528060200260200182016040528015610fa5578160200160208202803683370190505b50905060005b8281101561101657610fe2848483818110610fc857610fc86148d7565b9050602002016020810190610fdd9190614352565b612b64565b828281518110610ff457610ff46148d7565b911515602092830291909101909101528061100e816148ed565b915050610fab565b5092915050565b61102561281e565b6001600160a01b0316336001600160a01b0316146110555760405162461bcd60e51b8152600401610ac99061487f565b6000816001600160a01b03163b116110c35760405162461bcd60e51b815260206004820152602b60248201527f4861734d61696e74656e616e6365436f6e74726163743a2073657420746f206e60448201526a1bdb8b58dbdb9d1c9858dd60aa1b6064820152608401610ac9565b610df68161293d565b606060aa546001600160401b038111156110e8576110e86148c1565b604051908082528060200260200182016040528015611111578160200160208202803683370190505b5090506000805b82518110156111af57600081815260ab6020526040902054611142906001600160a01b031661198b565b1561119d57600081815260ab60205260409020546001600160a01b0316838361116a816148ed565b94508151811061117c5761117c6148d7565b60200260200101906001600160a01b031690816001600160a01b0316815250505b806111a7816148ed565b915050611118565b50815290565b6060816001600160401b038111156111cf576111cf6148c1565b6040519080825280602002602001820160405280156111f8578160200160208202803683370190505b5090506000611205610ad4565b905060005b8381101561127657611242858583818110611227576112276148d7565b905060200201602081019061123c9190614352565b83612b85565b838281518110611254576112546148d7565b911515602092830291909101909101528061126e816148ed565b91505061120a565b505092915050565b61128661281e565b6001600160a01b0316336001600160a01b0316146112b65760405162461bcd60e51b8152600401610ac99061487f565b610df681612a5c565b3341146112de5760405162461bcd60e51b8152600401610ac990614908565b343360006112eb8261198b565b80156112fd57506112fb82612b64565b155b8015611317575061131582611310610ad4565b612b85565b155b606d54604051630634f5b960e01b8152821515600482015260016024820181905292935060009182916001600160a01b0390911690630634f5b990604401606060405180830381600087803b15801561136f57600080fd5b505af1158015611383573d6000803e3d6000fd5b505050506040513d601f19601f820116820180604052508101906113a7919061496e565b92509250508060e260008282546113be91906149a3565b9091555084905061141557846001600160a01b03167f4042bb9a70998f80a86d9963f0d2132e9b11c8ad94d207c6141c8e34b05ce53e8760016040516114059291906149d1565b60405180910390a2505050505050565b60408051878152602081018490526001600160a01b038716917f0ede5c3be8625943fa64003cd4b91230089411249f3059bac6500873543ca9b1910160405180910390a26000611463610ad4565b9050600061147184896149a3565b6001600160a01b03881660009081526038602090815260408083208684529091528120549192509060ff1615611584576070546040805163631c8fd160e11b815290516000926001600160a01b03169163c6391fa2916004808301926080929190829003018186803b1580156114e657600080fd5b505afa1580156114fa573d6000803e3d6000fd5b505050506040513d601f19601f8201168201806040525081019061151e9190614a03565b935050505061271081846115329190614a39565b61153c9190614a6e565b9150886001600160a01b03167f4042bb9a70998f80a86d9963f0d2132e9b11c8ad94d207c6141c8e34b05ce53e83600260405161157a9291906149d1565b60405180910390a2505b61158e81836147e1565b6001600160a01b0389166000908152607560205260408120600401549193506127106115ba8584614a39565b6115c49190614a6e565b6001600160a01b038b16600090815260e060205260408120805492935083929091906115f19084906149a3565b909155506000905061160382866147e1565b6001600160a01b038c16600090815260e160205260408120805492935083929091906116309084906149a3565b9091555050505050505050505050505050565b6073546060906001600160401b03811115611660576116606148c1565b60405190808252806020026020018201604052801561169957816020015b6116866141ac565b81526020019060019003908161167e5790505b50905060005b81518110156117fb5760756000607383815481106116bf576116bf6148d7565b60009182526020808320909101546001600160a01b039081168452838201949094526040928301909120825160e081018452815485168152600182015485169281019290925260028101548416928201929092526003820154909216606083015260048101546080830152600581015460a083015260068101805460c0840191906117499061484a565b80601f01602080910402602001604051908101604052809291908181526020018280546117759061484a565b80156117c25780601f10611797576101008083540402835291602001916117c2565b820191906000526020600020905b8154815290600101906020018083116117a557829003601f168201915b5050505050815250508282815181106117dd576117dd6148d7565b602002602001018190525080806117f3906148ed565b91505061169f565b5090565b336118126070546001600160a01b031690565b6001600160a01b0316146118385760405162461bcd60e51b8152600401610ac99061475c565b6000611842610ad4565b6001600160a01b03851660008181526037602090815260408083208584528252808320805460ff1916600117905592825260e0815282822082905560e18152828220829055603a905220549091508311156118b3576001600160a01b0384166000908152603a602052604090208390555b81156119205760715460405163c905bb3560e01b81526001600160a01b038681166004830152602482018590529091169063c905bb3590604401600060405180830381600087803b15801561190757600080fd5b505af115801561191b573d6000803e3d6000fd5b505050505b6001600160a01b0384166000818152603a6020908152604080832054815190815291820186905260019082015260608101919091528291907f54ce99c5ce1fc9f61656d4a0fb2697974d0c973ac32eecaefe06fcf18b8ef68a9060800160405180910390a350505050565b6001600160a01b038116600090815260ac60205260408120546119c59060019060ff1660038111156119bf576119bf6149bb565b90612bb0565b92915050565b336119de6071546001600160a01b031690565b6001600160a01b031614611a045760405162461bcd60e51b8152600401610ac990614a82565b6001600160a01b038216600090815260746020526040902054611a395760405162461bcd60e51b8152600401610ac9906147f8565b6000611a4582426149a3565b6001600160a01b0384166000908152607560205260409020600501549091508110611ac65760405162461bcd60e51b815260206004820152602b60248201527f43616e6469646174654d616e616765723a20696e76616c6964207265766f6b6560448201526a0642074696d657374616d760ac1b6064820152608401610ac9565b6001600160a01b03831660008181526075602052604090819020600501839055517fdb451f2c533d44367eeca766bcee562bfc473b8d3f5d34f7b87befe026434aaa90611b169084815260200190565b60405180910390a2505050565b60006119c58243610bdd565b334114611b4e5760405162461bcd60e51b8152600401610ac990614908565b611b574361207e565b611bbf5760405162461bcd60e51b815260206004820152603360248201527f526f6e696e56616c696461746f725365743a206f6e6c7920616c6c6f776564206044820152720c2e840e8d0ca40cadcc840decc40cae0dec6d606b1b6064820152608401610ac9565b611bc8436124a1565b611bd36002546124a1565b10611c3e5760405162461bcd60e51b815260206004820152603560248201527f526f6e696e56616c696461746f725365743a20717565727920666f7220616c726044820152740cac2c8f240eee4c2e0e0cac840eae040cae0dec6d605b1b6064820152608401610ac9565b436002556000611c4d4261280f565b90506000611c5c826003541090565b9050611c694360016149a3565b6004556000611c76612682565b90506000611c83436124a1565b90506000611c8f610ad4565b90508315611d2657600080611ca48386612be3565b91509150611cb483868484613019565b60705460405163129fccc160e01b81526001600160a01b039091169063129fccc190611ce69088908790600401614adf565b600060405180830381600087803b158015611d0057600080fd5b505af1158015611d14573d6000803e3d6000fd5b50505050611d218761311c565b945050505b611d3085846132fd565b81817f0195462033384fec211477c56217da64a58bd405e0bed331ba4ded67e4ae4ce786604051611d65911515815260200190565b60405180910390a350505060039190915550565b33611d8c6071546001600160a01b031690565b6001600160a01b031614611db25760405162461bcd60e51b8152600401610ac990614a82565b6073546072548110611e255760405162461bcd60e51b815260206004820152603660248201527f43616e6469646174654d616e616765723a2065786365656473206d6178696d756044820152756d206e756d626572206f662063616e6469646174657360501b6064820152608401610ac9565b6001600160a01b03851660009081526074602052604090205415611eaa5760405162461bcd60e51b815260206004820152603660248201527f43616e6469646174654d616e616765723a20717565727920666f7220616c7265604482015275616479206578697374656e742063616e64696461746560501b6064820152608401610ac9565b612710821115611f0d5760405162461bcd60e51b815260206004820152602860248201527f43616e6469646174654d616e616765723a20696e76616c696420636f6d697373604482015267696f6e207261746560c01b6064820152608401610ac9565b6001600160a01b038581166000818152607460209081526040808320861990556073805460018082019092557ff79bde9ddd17963ebce6f7d021d60de7c2bd0db944d23c900c0c0e775f5300520180546001600160a01b03199081168717909155825160e0810184528d881681528085018781528c89168286019081528c8a1660608401908152608084018d815260001960a0860190815288518b8152808b018a5260c087019081529b8b5260758a5297909920845181548716908d16178155925195830180548616968c1696909617909555516002820180548516918b16919091179055925160038401805490931698169790971790559251600484015551600583015591518051919261202a9260068501929091019061420d565b50506040516001600160a01b038581168252808916925086811691908816907fd690f592ed983cfbc05717fbcf06c4e10ae328432c309fe49246cf4a4be69fcd9060200160405180910390a4505050505050565b60006001805461208e91906147e1565b60015461209b9084614b01565b1492915050565b60008060006120b184436120ff565b9250925092509193909250565b6120c661281e565b6001600160a01b0316336001600160a01b0316146120f65760405162461bcd60e51b8152600401610ac99061487f565b610df681612a27565b6001600160a01b0382166000908152603a602052604081205481908190848110156121355760008060009350935093505061217b565b6001935061214385826147e1565b61214e9060016149a3565b9250612159856124a1565b612162826124a1565b61216c91906147e1565b6121779060016149a3565b9150505b9250925092565b6060826001600160401b0381111561219c5761219c6148c1565b6040519080825280602002602001820160405280156121c5578160200160208202803683370190505b50905060005b83811015612237576122038585838181106121e8576121e86148d7565b90506020020160208101906121fd9190614352565b84612b85565b828281518110612215576122156148d7565b911515602092830291909101909101528061222f816148ed565b9150506121cb565b509392505050565b606060aa546001600160401b0381111561225b5761225b6148c1565b604051908082528060200260200182016040528015612284578160200160208202803683370190505b50905060005b81518110156117fb57600081815260ab60205260409020546122b4906001600160a01b0316613550565b8282815181106122c6576122c66148d7565b6001600160a01b0390921660209283029190910190910152806122e8816148ed565b91505061228a565b6122f861281e565b6001600160a01b0316336001600160a01b0316146123285760405162461bcd60e51b8152600401610ac99061487f565b6000816001600160a01b03163b116123995760405162461bcd60e51b815260206004820152602e60248201527f486173427269646765547261636b696e67436f6e74726163743a20736574207460448201526d1bc81b9bdb8b58dbdb9d1c9858dd60921b6064820152608401610ac9565b610df68161298b565b6123aa61281e565b6001600160a01b0316336001600160a01b0316146123da5760405162461bcd60e51b8152600401610ac99061487f565b6000816001600160a01b03163b116124445760405162461bcd60e51b815260206004820152602760248201527f4861735374616b696e67436f6e74726163743a2073657420746f206e6f6e2d636044820152661bdb9d1c9858dd60ca1b6064820152608401610ac9565b610df6816128a1565b6000805b60aa548110156117fb57600081815260ab602052604090205461247c906001600160a01b031661198b565b1561248f578161248b816148ed565b9250505b80612499816148ed565b915050612451565b60006119c58261355b565b6124b461281e565b6001600160a01b0316336001600160a01b0316146124e45760405162461bcd60e51b8152600401610ac99061487f565b6000816001600160a01b03163b116125555760405162461bcd60e51b815260206004820152602e60248201527f4861735374616b696e6756657374696e67436f6e74726163743a20736574207460448201526d1bc81b9bdb8b58dbdb9d1c9858dd60921b6064820152608401610ac9565b610df6816128ef565b6000805b60aa548110156125bb57600081815260ab60205260409020546001600160a01b03808516916125919116613550565b6001600160a01b031614156125a957600191506125bb565b806125b3816148ed565b915050612562565b50919050565b6125c961281e565b6001600160a01b0316336001600160a01b0316146125f95760405162461bcd60e51b8152600401610ac99061487f565b6000816001600160a01b03163b116126795760405162461bcd60e51b815260206004820152603860248201527f486173526f6e696e547275737465644f7267616e697a6174696f6e436f6e747260448201527f6163743a2073657420746f206e6f6e2d636f6e747261637400000000000000006064820152608401610ac9565b610df6816129d9565b606060aa546001600160401b0381111561269e5761269e6148c1565b6040519080825280602002602001820160405280156126c7578160200160208202803683370190505b50905060005b81518110156117fb57600081815260ab602052604090205482516001600160a01b0390911690839083908110612705576127056148d7565b6001600160a01b039092166020928302919091019091015280612727816148ed565b9150506126cd565b6060607380548060200260200160405190810160405280929190818152602001828054801561278757602002820191906000526020600020905b81546001600160a01b03168152600190910190602001808311612769575b5050505050905090565b61279961281e565b6001600160a01b0316336001600160a01b0316146127c95760405162461bcd60e51b8152600401610ac99061487f565b610df681612a91565b6001600160a01b038116600090815260ac60205260408120546128089060ff166003811115612803576128036149bb565b613576565b1592915050565b60006119c56201518083614a6e565b7fb53127684a568b3173ae13b9f8a6016e243e63b6e8ee1178d6a717850b5d6103546001600160a01b031690565b607080546001600160a01b0319166001600160a01b0383169081179091556040519081527faa5b07dd43aa44c69b70a6a2b9c3fcfed12b6e5f6323596ba7ac91035ab80a4f906020015b60405180910390a150565b607180546001600160a01b0319166001600160a01b0383169081179091556040519081527f6397f5b135542bb3f477cb346cfab5abdec1251d08dc8f8d4efb4ffe122ea0bf90602001612896565b606d80546001600160a01b0319166001600160a01b0383169081179091556040519081527fc328090a37d855191ab58469296f98f87a851ca57d5cdfd1e9ac3c83e9e7096d90602001612896565b606f80546001600160a01b0319166001600160a01b0383169081179091556040519081527f31a33f126a5bae3c5bdf6cfc2cd6dcfffe2fe9634bdb09e21c44762993889e3b90602001612896565b606e80546001600160a01b0319166001600160a01b0383169081179091556040519081527f034c8da497df28467c79ddadbba1cc3cdd41f510ea73faae271e6f16a611162190602001612896565b60a880546001600160a01b0319166001600160a01b0383169081179091556040519081527ffd6f5f93d69a07c593a09be0b208bff13ab4ffd6017df3b33433d63bdc59b4d790602001612896565b60a98190556040518181527fb5464c05fd0e0f000c535850116cda2742ee1f7b34384cb920ad7b8e802138b590602001612896565b60728190556040518181527f82d5dc32d1b741512ad09c32404d7e7921e8934c6222343d95f55f7a2b9b2ab490602001612896565b60a954811115612b2f5760405162461bcd60e51b815260206004820152605960248201527f526f6e696e56616c696461746f725365743a2063616e6e6f7420736574206e7560448201527f6d626572206f66207072696f726974697a65642067726561746572207468616e60648201527f206e756d626572206f66206d61782076616c696461746f727300000000000000608482015260a401610ac9565b60ad8190556040518181527fa9588dc77416849bd922605ce4fc806712281ad8a8f32d4238d6c8cca548e15e90602001612896565b6001600160a01b0381166000908152603a60205260408120544311156119c5565b6001600160a01b03919091166000908152603760209081526040808320938352929052205460ff1690565b6000816003811115612bc457612bc46149bb565b836003811115612bd657612bd66149bb565b1660ff1615159392505050565b6000606082516001600160401b03811115612c0057612c006148c1565b604051908082528060200260200182016040528015612c29578160200160208202803683370190505b50606e5460405163889998ef60e01b81526004810187905291925060009182916001600160a01b0316908290829063889998ef9060240160206040518083038186803b158015612c7857600080fd5b505afa158015612c8c573d6000803e3d6000fd5b505050506040513d601f19601f82011682018060405250810190612cb09190614b15565b60405163033cdc2b60e31b8152600481018a90529091506000906001600160a01b038416906319e6e1589060240160206040518083038186803b158015612cf657600080fd5b505afa158015612d0a573d6000803e3d6000fd5b505050506040513d601f19601f82011682018060405250810190612d2e9190614b15565b90506000836001600160a01b03166357daa1708b8b6040518363ffffffff1660e01b8152600401612d60929190614b2e565b60006040518083038186803b158015612d7857600080fd5b505afa158015612d8c573d6000803e3d6000fd5b505050506040513d6000823e601f3d908101601f19168201604052612db49190810190614ba2565b90506000806000607060009054906101000a90046001600160a01b03166001600160a01b0316631079402a6040518163ffffffff1660e01b815260040160606040518083038186803b158015612e0957600080fd5b505afa158015612e1d573d6000803e3d6000fd5b505050506040513d601f19601f82011682018060405250810190612e419190614c37565b92509250925060005b8c51811015613002578c8181518110612e6557612e656148d7565b60200260200101519950607560008b6001600160a01b03166001600160a01b0316815260200190815260200160002060020160009054906101000a90046001600160a01b03169850612ed68e8b878481518110612ec457612ec46148d7565b6020026020010151898b898989613594565b612f068a8f6001600160a01b03919091166000908152603960209081526040808320938352929052205460ff1690565b612f34576001600160a01b03808b16600090815260756020526040902060030154612f34918c91168b6137b0565b612f3d8a612b64565b158015612f515750612f4f8a8f612b85565b155b15612fc0576001600160a01b038a16600090815260e16020526040902054612f79908d6149a3565b6001600160a01b038b16600090815260e160205260409020548c51919d50908c9083908110612faa57612faa6148d7565b602002602001018181525050612fc08a8a613893565b6001600160a01b038a16600090815260e16020908152604080832083905560e0825280832083905560e390915281205580612ffa816148ed565b915050612e4a565b5060e2600090555050505050505050509250929050565b6071546001600160a01b0316821561311457613035818461395d565b156130db57604051633b8cb16b60e01b81526001600160a01b03821690633b8cb16b9061306a90879086908a90600401614c95565b600060405180830381600087803b15801561308457600080fd5b505af1158015613098573d6000803e3d6000fd5b505050507feb09b8cc1cefa77cd4ec30003e6364cf60afcedd20be8c09f26e717788baf139836040516130cd91815260200190565b60405180910390a150613116565b604080518481524760208201527f0752cb1e4b6fb7b2beb1cf423d908acaec7acfb7782e67a88d158351b1c0c4a5910160405180910390a15b505b50505050565b60606131266139b9565b6071546040516357e5970160e11b81526000916001600160a01b03169063afcb2e029061315890607390600401614d09565b60006040518083038186803b15801561317057600080fd5b505afa158015613184573d6000803e3d6000fd5b505050506040513d6000823e601f3d908101601f191682016040526131ac9190810190614ba2565b60a854604051632907e73160e11b81529192506000916001600160a01b039091169063520fce62906131e390607390600401614d09565b60006040518083038186803b1580156131fb57600080fd5b505afa15801561320f573d6000803e3d6000fd5b505050506040513d6000823e601f3d908101601f191682016040526132379190810190614ba2565b905060006132a6607380548060200260200160405190810160405280929190818152602001828054801561329457602002820191906000526020600020905b81546001600160a01b03168152600190910190602001808311613276575b5050505050848460a95460ad54613cd7565b90945090506132b6848287613df6565b847f8d7d519e81c2b8dc67b44fd645fd2c8805110d9ab1d643e3dd68b622bde331ff6132e061223f565b6040516132ed91906145ea565b60405180910390a2505050919050565b606f546000906001600160a01b031663f0a46709607361331e4360016149a3565b6040518363ffffffff1660e01b815260040161333b929190614d1c565b60006040518083038186803b15801561335357600080fd5b505afa158015613367573d6000803e3d6000fd5b505050506040513d6000823e601f3d908101601f1916820160405261338f9190810190614d2f565b905060005b82518110156135185760008382815181106133b1576133b16148d7565b6020026020010151905060006133c68261198b565b905060006133d383612b64565b806133f457508484815181106133eb576133eb6148d7565b60200260200101515b159050811580156134025750805b15613480576001600160a01b038316600090815260ac60205260409020546134419060019060ff16600381111561343b5761343b6149bb565b90613f7c565b6001600160a01b038416600090815260ac60205260409020805460ff19166001836003811115613473576134736149bb565b0217905550505050613506565b81801561348b575080155b15613502576001600160a01b038316600090815260ac60205260409020546134ca9060019060ff1660038111156134c4576134c46149bb565b90613fb7565b6001600160a01b038416600090815260ac60205260409020805460ff191660018360038111156134fc576134fc6149bb565b02179055505b5050505b80613510816148ed565b915050613394565b50827f60324bb9c8b0d077621d76762c52d6cc937043427992a2f6a602b449315922ef6135436110cc565b604051611b1691906145ea565b60006119c582613ff3565b60006001548261356b9190614a6e565b6119c59060016149a3565b600081600381111561358a5761358a6149bb565b60ff161592915050565b831580156135a0575084155b156135d35760aa5460e2546135b59190614a6e565b6001600160a01b038816600090815260e360205260409020556137a6565b6000856135e261271089614a39565b6135ec9190614a6e565b905060006135fc826127106147e1565b9050838111156136ea576001600160a01b03891660008181526039602090815260408083208e845282528083208054600160ff199182168117909255948452603783528184208f8552909252909120805490921617905561367e61366084436149a3565b6001600160a01b038b166000908152603a6020526040902054614018565b6001600160a01b038a166000818152603a60209081526040808320859055805194855290840191909152600190830181905260608301528b917f54ce99c5ce1fc9f61656d4a0fb2697974d0c973ac32eecaefe06fcf18b8ef68a906080015b60405180910390a36137a3565b84811115613775576001600160a01b03891660008181526039602090815260408083208e84528252808320805460ff19166001908117909155848452603a83528184205482519081529283018490529082019290925260608101919091528b91907f54ce99c5ce1fc9f61656d4a0fb2697974d0c973ac32eecaefe06fcf18b8ef68a906080016136dd565b85156137a3578560e2546137899190614a6e565b6001600160a01b038a16600090815260e360205260409020555b50505b5050505050505050565b6001600160a01b038316600090815260e360205260409020548015613116576137d9828261395d565b1561383b57816001600160a01b0316836001600160a01b0316856001600160a01b03167f72a57dc38837a1cba7881b7b1a5594d9e6b65cec6a985b54e2cee3e89369691c8460405161382d91815260200190565b60405180910390a450505050565b816001600160a01b0316836001600160a01b0316856001600160a01b03167fd35d76d87d51ed89407fc7ceaaccf32cf72784b94530892ce33546540e141b72844760405161382d929190918252602082015260400190565b6001600160a01b038216600090815260e060205260409020548015613958576138bc828261395d565b1561391357816001600160a01b0316836001600160a01b03167f1ce7a1c4702402cd393500acb1de5bd927727a54e144a587d328f1b679abe4ec8360405161390691815260200190565b60405180910390a3505050565b604080518281524760208201526001600160a01b0380851692908616917f6c69e09ee5c5ac33c0cd57787261c5bade070a392ab34a4b5487c6868f723f6e9101613906565b505050565b6000826001600160a01b03168260405160006040518083038185875af1925050503d80600081146139aa576040519150601f19603f3d011682016040523d82523d6000602084013e6139af565b606091505b5090949350505050565b6071546040805163909791dd60e01b815290516001600160a01b0390921691600091839163909791dd91600480820192602092909190829003018186803b158015613a0357600080fd5b505afa158015613a17573d6000803e3d6000fd5b505050506040513d601f19601f82011682018060405250810190613a3b9190614b15565b90506000826001600160a01b031663017dd95060736040518263ffffffff1660e01b8152600401613a6c9190614d09565b60006040518083038186803b158015613a8457600080fd5b505afa158015613a98573d6000803e3d6000fd5b505050506040513d6000823e601f3d908101601f19168201604052613ac09190810190614ba2565b607354909150600080826001600160401b03811115613ae157613ae16148c1565b604051908082528060200260200182016040528015613b0a578160200160208202803683370190505b5090506000805b84811015613c335760738181548110613b2c57613b2c6148d7565b9060005260206000200160009054906101000a90046001600160a01b0316915086868281518110613b5f57613b5f6148d7565b60200260200101511080613b8e57506001600160a01b0382166000908152607560205260409020600501544210155b15613c215785613b9d86614dbb565b95508581518110613bb057613bb06148d7565b6020026020010151868281518110613bca57613bca6148d7565b6020908102919091010152818385613be1816148ed565b965081518110613bf357613bf36148d7565b60200260200101906001600160a01b031690816001600160a01b031681525050613c1c8261402f565b613b11565b80613c2b816148ed565b915050613b11565b50508115613ccf578181527f4eaf233b9dc25a5552c1927feee1412eea69add17c2485c831c2e60e234f3c9181604051613c6d91906145ea565b60405180910390a16040516374d62f0360e11b81526001600160a01b0387169063e9ac5e0690613ca19084906004016145ea565b600060405180830381600087803b158015613cbb57600080fd5b505af11580156137a3573d6000803e3d6000fd5b505050505050565b60606000806068905060008888888888604051602401613cfb959493929190614dd2565b60408051601f19818403018152919052602080820180516001600160e01b0316633bca0a8960e11b17905281518b519293506001929091600091613d3e91614a39565b613d499060406149a3565b90506020840181888483895afa613d5f57600093505b503d613d6a57600092505b60208701965082613de35760405162461bcd60e51b815260206004820152603960248201527f507265636f6d70696c6555736167655069636b56616c696461746f725365743a60448201527f2063616c6c20746f20707265636f6d70696c65206661696c73000000000000006064820152608401610ac9565b8651955050505050509550959350505050565b815b60aa54811015613e5457600081815260ab6020818152604080842080546001600160a01b0316855260ac8352908420805460ff19169055928490525280546001600160a01b031916905580613e4c816148ed565b915050613df8565b506000805b83811015613f36576000858281518110613e7557613e756148d7565b602090810291909101810151600085815260ab9092526040909120549091506001600160a01b0380831691161415613eba5782613eb1816148ed565b93505050613f24565b600083815260ab6020818152604080842080546001600160a01b03908116865260ac8452828620805460ff19908116909155908716808752928620805490911660031790559387905291905281546001600160a01b03191617905582613f1f816148ed565b935050505b80613f2e816148ed565b915050613e59565b508060aa81905550817f3d0eea40644a206ec25781dd5bb3b60eb4fa1264b993c3bddf3c73b14f29ef5e85604051613f6e91906145ea565b60405180910390a250505050565b6000816003811115613f9057613f906149bb565b836003811115613fa257613fa26149bb565b1760ff166003811115610bfa57610bfa6149bb565b6000816003811115613fcb57613fcb6149bb565b19836003811115613fde57613fde6149bb565b1660ff166003811115610bfa57610bfa6149bb565b6001600160a01b038082166000908152607560205260408120600301549091166119c5565b6000818310156140285781610bfa565b5090919050565b6001600160a01b03811660009081526074602052604090205480614051575050565b6001600160a01b038216600090815260756020526040812080546001600160a01b03199081168255600182018054821690556002820180548216905560038201805490911690556004810182905560058101829055906140b4600683018261428d565b50506001600160a01b0382166000908152607460205260408120819055607380546140e1906001906147e1565b815481106140f1576140f16148d7565b6000918252602090912001546001600160a01b03908116915083168114614174576001600160a01b0381166000908152607460205260409020829055607380548291908419908110614145576141456148d7565b9060005260206000200160006101000a8154816001600160a01b0302191690836001600160a01b031602179055505b607380548061418557614185614e20565b600082815260209020810160001990810180546001600160a01b0319169055019055505050565b6040518060e0016040528060006001600160a01b0316815260200160006001600160a01b0316815260200160006001600160a01b0316815260200160006001600160a01b031681526020016000815260200160008152602001606081525090565b8280546142199061484a565b90600052602060002090601f01602090048101928261423b5760008555614281565b82601f1061425457805160ff1916838001178555614281565b82800160010185558215614281579182015b82811115614281578251825591602001919060010190614266565b506117fb9291506142c3565b5080546142999061484a565b6000825580601f106142a9575050565b601f016020900490600052602060002090810190610df691905b5b808211156117fb57600081556001016142c4565b6001600160a01b0381168114610df657600080fd5b6000806040838503121561430057600080fd5b823561430b816142d8565b9150602083013561431b816142d8565b809150509250929050565b6000806040838503121561433957600080fd5b8235614344816142d8565b946020939093013593505050565b60006020828403121561436457600080fd5b8135610bfa816142d8565b600060018060a01b038083511684526020818185015116818601528160408501511660408601528160608501511660608601526080840151608086015260a084015160a086015260c0840151915060e060c086015281518060e087015260005b818110156143ec57838101830151878201610100015282016143cf565b818111156143ff57600061010083890101525b50601f01601f19169490940161010001949350505050565b602081526000610bfa602083018461436f565b6000806000806000806000806000806101408b8d03121561444a57600080fd5b8a35614455816142d8565b995060208b0135614465816142d8565b985060408b0135614475816142d8565b975060608b0135614485816142d8565b965060808b0135614495816142d8565b955060a08b01356144a5816142d8565b999c989b5096999598949794965050505060c08301359260e08101359261010082013592506101209091013590565b60008083601f8401126144e657600080fd5b5081356001600160401b038111156144fd57600080fd5b6020830191508360208260051b850101111561451857600080fd5b9250929050565b6000806020838503121561453257600080fd5b82356001600160401b0381111561454857600080fd5b614554858286016144d4565b90969095509350505050565b6020808252825182820181905260009190848201906040850190845b8181101561459a57835115158352928401929184019160010161457c565b50909695505050505050565b600081518084526020808501945080840160005b838110156145df5781516001600160a01b0316875295820195908201906001016145ba565b509495945050505050565b602081526000610bfa60208301846145a6565b60006020828403121561460f57600080fd5b5035919050565b6000602080830181845280855180835260408601915060408160051b870101925083870160005b8281101561466b57603f1988860301845261465985835161436f565b9450928501929085019060010161463d565b5092979650505050505050565b60008060006060848603121561468d57600080fd5b8335614698816142d8565b95602085013595506040909401359392505050565b600080600080600060a086880312156146c557600080fd5b85356146d0816142d8565b945060208601356146e0816142d8565b935060408601356146f0816142d8565b92506060860135614700816142d8565b949793965091946080013592915050565b60008060006040848603121561472657600080fd5b83356001600160401b0381111561473c57600080fd5b614748868287016144d4565b909790965060209590950135949350505050565b60208082526049908201527f486173536c617368496e64696361746f72436f6e74726163743a206d6574686f60408201527f642063616c6c6572206d75737420626520736c61736820696e64696361746f726060820152680818dbdb9d1c9858dd60ba1b608082015260a00190565b634e487b7160e01b600052601160045260246000fd5b6000828210156147f3576147f36147cb565b500390565b60208082526032908201527f43616e6469646174654d616e616765723a20717565727920666f72206e6f6e2d6040820152716578697374656e742063616e64696461746560701b606082015260800190565b600181811c9082168061485e57607f821691505b602082108114156125bb57634e487b7160e01b600052602260045260246000fd5b60208082526022908201527f48617350726f787941646d696e3a20756e617574686f72697a65642073656e6460408201526132b960f11b606082015260800190565b634e487b7160e01b600052604160045260246000fd5b634e487b7160e01b600052603260045260246000fd5b6000600019821415614901576149016147cb565b5060010190565b60208082526031908201527f526f6e696e56616c696461746f725365743a206d6574686f642063616c6c6572604082015270206d75737420626520636f696e6261736560781b606082015260800190565b8051801515811461496957600080fd5b919050565b60008060006060848603121561498357600080fd5b61498c84614959565b925060208401519150604084015190509250925092565b600082198211156149b6576149b66147cb565b500190565b634e487b7160e01b600052602160045260246000fd5b82815260408101600383106149f657634e487b7160e01b600052602160045260246000fd5b8260208301529392505050565b60008060008060808587031215614a1957600080fd5b505082516020840151604085015160609095015191969095509092509050565b6000816000190483118215151615614a5357614a536147cb565b500290565b634e487b7160e01b600052601260045260246000fd5b600082614a7d57614a7d614a58565b500490565b6020808252603a908201527f4861735374616b696e67436f6e74726163743a206d6574686f642063616c6c6560408201527f72206d757374206265207374616b696e6720636f6e7472616374000000000000606082015260800190565b604081526000614af260408301856145a6565b90508260208301529392505050565b600082614b1057614b10614a58565b500690565b600060208284031215614b2757600080fd5b5051919050565b828152604060208201526000614b4760408301846145a6565b949350505050565b604051601f8201601f191681016001600160401b0381118282101715614b7757614b776148c1565b604052919050565b60006001600160401b03821115614b9857614b986148c1565b5060051b60200190565b60006020808385031215614bb557600080fd5b82516001600160401b03811115614bcb57600080fd5b8301601f81018513614bdc57600080fd5b8051614bef614bea82614b7f565b614b4f565b81815260059190911b82018301908381019087831115614c0e57600080fd5b928401925b82841015614c2c57835182529284019290840190614c13565b979650505050505050565b600080600060608486031215614c4c57600080fd5b8351925060208401519150604084015190509250925092565b600081518084526020808501945080840160005b838110156145df57815187529582019590820190600101614c79565b606081526000614ca860608301866145a6565b8281036020840152614cba8186614c65565b915050826040830152949350505050565b6000815480845260208085019450836000528060002060005b838110156145df5781546001600160a01b031687529582019560019182019101614ce4565b602081526000610bfa6020830184614ccb565b604081526000614af26040830185614ccb565b60006020808385031215614d4257600080fd5b82516001600160401b03811115614d5857600080fd5b8301601f81018513614d6957600080fd5b8051614d77614bea82614b7f565b81815260059190911b82018301908381019087831115614d9657600080fd5b928401925b82841015614c2c57614dac84614959565b82529284019290840190614d9b565b600081614dca57614dca6147cb565b506000190190565b60a081526000614de560a08301886145a6565b8281036020840152614df78188614c65565b90508281036040840152614e0b8187614c65565b60608401959095525050608001529392505050565b634e487b7160e01b600052603160045260246000fdfea2646970667358221220964bfab47d677ed3ce2a85301c3940a3d314dec6df390bb690f28a35b62204b164736f6c63430008090033",
  "devdoc": {
    "kind": "dev",
    "methods": {
      "_isPeriodEnding(uint256)": {
        "details": "See `ITimingInfo-isPeriodEnding`"
      },
      "bridgeTrackingContract()": {
        "details": "Returns the bridge tracking contract."
      },
      "bulkJailed(address[])": {
        "details": "Returns whether the validators are put in jail (cannot join the set of validators) during the current period."
      },
      "currentPeriod()": {
        "details": "See {ITimingInfo-currentPeriod}"
      },
      "currentPeriodStartAtBlock()": {
        "details": "Returns the block number that the current period starts at."
      },
      "epochEndingAt(uint256)": {
        "details": "Returns whether the epoch ending is at the block number `_block`."
      },
      "epochOf(uint256)": {
        "details": "See {ITimingInfo-epochOf}"
      },
      "execBailOut(address,uint256)": {
        "details": "Finalize the bailout request from slash indicator contract. Requirements: - The method caller is slash indicator contract. Emits the event `ValidatorUnjailed`."
      },
      "execSlash(address,uint256,uint256)": {
        "details": "Finalize the slash request from slash indicator contract. Requirements: - The method caller is slash indicator contract. Emits the event `ValidatorPunished`."
      },
      "getBlockProducers()": {
        "details": "Returns the current block producer list."
      },
      "getBridgeOperators()": {
        "details": "Returns the current bridge operator list."
      },
      "getCandidateInfo(address)": {
        "details": "Returns the info of a candidate."
      },
      "getCandidateInfos()": {
        "details": "Returns all candidate info."
      },
      "getLastUpdatedBlock()": {
        "details": "Returns the block that validator set was updated."
      },
      "getValidatorCandidates()": {
        "details": "Returns the validator candidate."
      },
      "getValidators()": {
        "details": "Returns the current validator list."
      },
      "grantValidatorCandidate(address,address,address,address,uint256)": {
        "details": "Grants a validator candidate. Requirements: - The method caller is staking contract. Emits the event `CandidateGranted`."
      },
      "initialize(address,address,address,address,address,address,uint256,uint256,uint256,uint256)": {
        "details": "Initializes the contract storage."
      },
      "isBlockProducer(address)": {
        "details": "Returns whether the address is block producer or not."
      },
      "isBridgeOperator(address)": {
        "details": "Returns whether the address is bridge operator or not."
      },
      "isCandidateAdmin(address,address)": {
        "details": "Returns whether the address is the candidate admin."
      },
      "isPeriodEnding()": {
        "details": "Returns whether the period ending at the current block number."
      },
      "isValidator(address)": {
        "details": "Returns whether the address is either a bridge operator or a block producer."
      },
      "isValidatorCandidate(address)": {
        "details": "Returns whether the address is a validator (candidate)."
      },
      "jailed(address)": {
        "details": "Returns whether the validator are put in jail (cannot join the set of validators) during the current period."
      },
      "jailedAtBlock(address,uint256)": {
        "details": "Returns whether the validator are put in jail (cannot join the set of validators) at a specific block."
      },
      "jailedTimeLeft(address)": {
        "details": "Returns whether the validator are put in jail and the number of block and epoch that he still is in the jail."
      },
      "jailedTimeLeftAtBlock(address,uint256)": {
        "details": "Returns whether the validator are put in jail at a specific block and the number of block and epoch that he still is in the jail."
      },
      "maintenanceContract()": {
        "details": "Returns the maintenance contract."
      },
      "maxPrioritizedValidatorNumber()": {
        "details": "Returns the number of reserved slots for prioritized validators"
      },
      "maxValidatorCandidate()": {
        "details": "Returns the maximum number of validator candidate."
      },
      "maxValidatorNumber()": {
        "details": "Returns the maximum number of validators in the epoch"
      },
      "miningRewardDeprecated(address[])": {
        "details": "Returns whether the incoming reward of the block producers are deprecated during the current period."
      },
      "miningRewardDeprecatedAtPeriod(address[],uint256)": {
        "details": "Returns whether the incoming reward of the block producers are deprecated during a specific period."
      },
      "numberOfBlocksInEpoch()": {
        "details": "Returns the number of blocks in a epoch."
      },
      "precompilePickValidatorSetAddress()": {
        "details": "Gets the address of the precompile of picking validator set"
      },
      "precompileSortValidatorsAddress()": {
        "details": "Gets the address of the precompile of sorting validators"
      },
      "requestRevokeCandidate(address,uint256)": {
        "details": "Requests to revoke a validator candidate in next `_secsLeft` seconds. Requirements: - The method caller is staking contract. Emits the event `CandidateRevokedTimestampUpdated`."
      },
      "roninTrustedOrganizationContract()": {
        "details": "Returns the ronin trusted organization contract."
      },
      "setBridgeTrackingContract(address)": {
        "details": "Sets the bridge tracking contract. Requirements: - The method caller is admin. - The new address is a contract. Emits the event `BridgeTrackingContractUpdated`."
      },
      "setMaintenanceContract(address)": {
        "details": "Sets the maintenance contract. Requirements: - The method caller is admin. - The new address is a contract. Emits the event `MaintenanceContractUpdated`."
      },
      "setMaxPrioritizedValidatorNumber(uint256)": {
        "details": "Updates the number of reserved slots for prioritized validators Requirements: - The method caller is admin Emits the event `MaxPrioritizedValidatorNumberUpdated`"
      },
      "setMaxValidatorCandidate(uint256)": {
        "details": "Sets the maximum number of validator candidate. Requirements: - The method caller is admin. Emits the `MaxValidatorCandidateUpdated` event."
      },
      "setMaxValidatorNumber(uint256)": {
        "details": "Updates the max validator number Requirements: - The method caller is admin Emits the event `MaxValidatorNumberUpdated`"
      },
      "setRoninTrustedOrganizationContract(address)": {
        "details": "Sets the ronin trusted organization contract. Requirements: - The method caller is admin. - The new address is a contract. Emits the event `RoninTrustedOrganizationContractUpdated`."
      },
      "setSlashIndicatorContract(address)": {
        "details": "Sets the slash indicator contract. Requirements: - The method caller is admin. - The new address is a contract. Emits the event `SlashIndicatorContractUpdated`."
      },
      "setStakingContract(address)": {
        "details": "Sets the staking contract. Requirements: - The method caller is admin. - The new address is a contract. Emits the event `StakingContractUpdated`."
      },
      "setStakingVestingContract(address)": {
        "details": "Sets the staking vesting contract. Requirements: - The method caller is admin. - The new address is a contract. Emits the event `StakingVestingContractUpdated`."
      },
      "slashIndicatorContract()": {
        "details": "Returns the slash indicator contract."
      },
      "stakingContract()": {
        "details": "Returns the staking contract."
      },
      "stakingVestingContract()": {
        "details": "Returns the staking vesting contract."
      },
      "submitBlockReward()": {
        "details": "Submits reward of the current block. Requirements: - The method caller is coinbase. Emits the event `MiningRewardDeprecated` if the coinbase is slashed or no longer be a block producer. Emits the event `BlockRewardSubmitted` for the valid call."
      },
      "totalBlockProducers()": {
        "details": "Returns total numbers of the block producers."
      },
      "totalBridgeOperators()": {
        "details": "Returns total numbers of the bridge operators."
      },
      "wrapUpEpoch()": {
        "details": "Wraps up the current epoch. Requirements: - The method must be called when the current epoch is ending. - The epoch is not wrapped yet. - The method caller is coinbase. Emits the event `MiningRewardDistributed` when some validator has reward distributed. Emits the event `StakingRewardDistributed` when some staking pool has reward distributed. Emits the event `BlockProducerSetUpdated` when the epoch is wrapped up. Emits the event `BridgeOperatorSetUpdated` when the epoch is wrapped up at period ending. Emits the event `ValidatorSetUpdated` when the epoch is wrapped up at period ending, and the validator set gets updated. Emits the event `WrappedUpEpoch`."
      }
    },
    "version": 1
  },
  "userdoc": {
    "kind": "user",
    "methods": {
      "totalBridgeOperators()": {
        "notice": "Notice: A validator is always a bride operator"
      }
    },
    "version": 1
  },
  "storageLayout": {
    "storage": [
      {
        "astId": 1373,
        "contract": "contracts/ronin/validator/RoninValidatorSet.sol:RoninValidatorSet",
        "label": "_initialized",
        "offset": 0,
        "slot": "0",
        "type": "t_uint8"
      },
      {
        "astId": 1376,
        "contract": "contracts/ronin/validator/RoninValidatorSet.sol:RoninValidatorSet",
        "label": "_initializing",
        "offset": 1,
        "slot": "0",
        "type": "t_bool"
      },
      {
        "astId": 27565,
        "contract": "contracts/ronin/validator/RoninValidatorSet.sol:RoninValidatorSet",
        "label": "_numberOfBlocksInEpoch",
        "offset": 0,
        "slot": "1",
        "type": "t_uint256"
      },
      {
        "astId": 27568,
        "contract": "contracts/ronin/validator/RoninValidatorSet.sol:RoninValidatorSet",
        "label": "_lastUpdatedBlock",
        "offset": 0,
        "slot": "2",
        "type": "t_uint256"
      },
      {
        "astId": 27571,
        "contract": "contracts/ronin/validator/RoninValidatorSet.sol:RoninValidatorSet",
        "label": "_lastUpdatedPeriod",
        "offset": 0,
        "slot": "3",
        "type": "t_uint256"
      },
      {
        "astId": 27574,
        "contract": "contracts/ronin/validator/RoninValidatorSet.sol:RoninValidatorSet",
        "label": "_currentPeriodStartAtBlock",
        "offset": 0,
        "slot": "4",
        "type": "t_uint256"
      },
      {
        "astId": 27579,
        "contract": "contracts/ronin/validator/RoninValidatorSet.sol:RoninValidatorSet",
        "label": "______gap",
        "offset": 0,
        "slot": "5",
        "type": "t_array(t_uint256)50_storage"
      },
      {
        "astId": 27201,
        "contract": "contracts/ronin/validator/RoninValidatorSet.sol:RoninValidatorSet",
        "label": "_miningRewardDeprecatedAtPeriod",
        "offset": 0,
        "slot": "55",
        "type": "t_mapping(t_address,t_mapping(t_uint256,t_bool))"
      },
      {
        "astId": 27208,
        "contract": "contracts/ronin/validator/RoninValidatorSet.sol:RoninValidatorSet",
        "label": "_miningRewardBailoutCutOffAtPeriod",
        "offset": 0,
        "slot": "56",
        "type": "t_mapping(t_address,t_mapping(t_uint256,t_bool))"
      },
      {
        "astId": 27215,
        "contract": "contracts/ronin/validator/RoninValidatorSet.sol:RoninValidatorSet",
        "label": "_bridgeRewardDeprecatedAtPeriod",
        "offset": 0,
        "slot": "57",
        "type": "t_mapping(t_address,t_mapping(t_uint256,t_bool))"
      },
      {
        "astId": 27220,
        "contract": "contracts/ronin/validator/RoninValidatorSet.sol:RoninValidatorSet",
        "label": "_jailedUntil",
        "offset": 0,
        "slot": "58",
        "type": "t_mapping(t_address,t_uint256)"
      },
      {
        "astId": 27225,
        "contract": "contracts/ronin/validator/RoninValidatorSet.sol:RoninValidatorSet",
        "label": "______gap",
        "offset": 0,
        "slot": "59",
        "type": "t_array(t_uint256)50_storage"
      },
      {
        "astId": 6319,
        "contract": "contracts/ronin/validator/RoninValidatorSet.sol:RoninValidatorSet",
        "label": "_stakingVestingContract",
        "offset": 0,
        "slot": "109",
        "type": "t_contract(IStakingVesting)9598"
      },
      {
        "astId": 5812,
        "contract": "contracts/ronin/validator/RoninValidatorSet.sol:RoninValidatorSet",
        "label": "_bridgeTrackingContract",
        "offset": 0,
        "slot": "110",
        "type": "t_contract(IBridgeTracking)8726"
      },
      {
        "astId": 5891,
        "contract": "contracts/ronin/validator/RoninValidatorSet.sol:RoninValidatorSet",
        "label": "_maintenanceContract",
        "offset": 0,
        "slot": "111",
        "type": "t_contract(IMaintenance)9075"
      },
      {
        "astId": 6161,
        "contract": "contracts/ronin/validator/RoninValidatorSet.sol:RoninValidatorSet",
        "label": "_slashIndicatorContract",
        "offset": 0,
        "slot": "112",
        "type": "t_contract(ISlashIndicator)10082"
      },
      {
        "astId": 6240,
        "contract": "contracts/ronin/validator/RoninValidatorSet.sol:RoninValidatorSet",
        "label": "_stakingContract",
        "offset": 0,
        "slot": "113",
        "type": "t_contract(IStaking)10587"
      },
      {
        "astId": 25270,
        "contract": "contracts/ronin/validator/RoninValidatorSet.sol:RoninValidatorSet",
        "label": "_maxValidatorCandidate",
        "offset": 0,
        "slot": "114",
        "type": "t_uint256"
      },
      {
        "astId": 25274,
        "contract": "contracts/ronin/validator/RoninValidatorSet.sol:RoninValidatorSet",
        "label": "_candidates",
        "offset": 0,
        "slot": "115",
        "type": "t_array(t_address)dyn_storage"
      },
      {
        "astId": 25279,
        "contract": "contracts/ronin/validator/RoninValidatorSet.sol:RoninValidatorSet",
        "label": "_candidateIndex",
        "offset": 0,
        "slot": "116",
        "type": "t_mapping(t_address,t_uint256)"
      },
      {
        "astId": 25285,
        "contract": "contracts/ronin/validator/RoninValidatorSet.sol:RoninValidatorSet",
        "label": "_candidateInfo",
        "offset": 0,
        "slot": "117",
        "type": "t_mapping(t_address,t_struct(ValidatorCandidate)10604_storage)"
      },
      {
        "astId": 25290,
        "contract": "contracts/ronin/validator/RoninValidatorSet.sol:RoninValidatorSet",
        "label": "______gap",
        "offset": 0,
        "slot": "118",
        "type": "t_array(t_uint256)50_storage"
      },
      {
        "astId": 6082,
        "contract": "contracts/ronin/validator/RoninValidatorSet.sol:RoninValidatorSet",
        "label": "_roninTrustedOrganizationContract",
        "offset": 0,
        "slot": "168",
        "type": "t_contract(IRoninTrustedOrganization)9509"
      },
      {
        "astId": 27711,
        "contract": "contracts/ronin/validator/RoninValidatorSet.sol:RoninValidatorSet",
        "label": "_maxValidatorNumber",
        "offset": 0,
        "slot": "169",
        "type": "t_uint256"
      },
      {
        "astId": 27714,
        "contract": "contracts/ronin/validator/RoninValidatorSet.sol:RoninValidatorSet",
        "label": "validatorCount",
        "offset": 0,
        "slot": "170",
        "type": "t_uint256"
      },
      {
        "astId": 27719,
        "contract": "contracts/ronin/validator/RoninValidatorSet.sol:RoninValidatorSet",
        "label": "_validators",
        "offset": 0,
        "slot": "171",
        "type": "t_mapping(t_uint256,t_address)"
      },
      {
        "astId": 27725,
        "contract": "contracts/ronin/validator/RoninValidatorSet.sol:RoninValidatorSet",
        "label": "_validatorMap",
        "offset": 0,
        "slot": "172",
        "type": "t_mapping(t_address,t_enum(ValidatorFlag)11202)"
      },
      {
        "astId": 27728,
        "contract": "contracts/ronin/validator/RoninValidatorSet.sol:RoninValidatorSet",
        "label": "_maxPrioritizedValidatorNumber",
        "offset": 0,
        "slot": "173",
        "type": "t_uint256"
      },
      {
        "astId": 27733,
        "contract": "contracts/ronin/validator/RoninValidatorSet.sol:RoninValidatorSet",
        "label": "______gap",
        "offset": 0,
        "slot": "174",
        "type": "t_array(t_uint256)50_storage"
      },
      {
        "astId": 27136,
        "contract": "contracts/ronin/validator/RoninValidatorSet.sol:RoninValidatorSet",
        "label": "_miningReward",
        "offset": 0,
        "slot": "224",
        "type": "t_mapping(t_address,t_uint256)"
      },
      {
        "astId": 27141,
        "contract": "contracts/ronin/validator/RoninValidatorSet.sol:RoninValidatorSet",
        "label": "_delegatingReward",
        "offset": 0,
        "slot": "225",
        "type": "t_mapping(t_address,t_uint256)"
      },
      {
        "astId": 27144,
        "contract": "contracts/ronin/validator/RoninValidatorSet.sol:RoninValidatorSet",
        "label": "_totalBridgeReward",
        "offset": 0,
        "slot": "226",
        "type": "t_uint256"
      },
      {
        "astId": 27149,
        "contract": "contracts/ronin/validator/RoninValidatorSet.sol:RoninValidatorSet",
        "label": "_bridgeOperatingReward",
        "offset": 0,
        "slot": "227",
        "type": "t_mapping(t_address,t_uint256)"
      },
      {
        "astId": 27154,
        "contract": "contracts/ronin/validator/RoninValidatorSet.sol:RoninValidatorSet",
        "label": "______gap",
        "offset": 0,
        "slot": "228",
        "type": "t_array(t_uint256)50_storage"
      }
    ],
    "types": {
      "t_address": {
        "encoding": "inplace",
        "label": "address",
        "numberOfBytes": "20"
      },
      "t_address_payable": {
        "encoding": "inplace",
        "label": "address payable",
        "numberOfBytes": "20"
      },
      "t_array(t_address)dyn_storage": {
        "base": "t_address",
        "encoding": "dynamic_array",
        "label": "address[]",
        "numberOfBytes": "32"
      },
      "t_array(t_uint256)50_storage": {
        "base": "t_uint256",
        "encoding": "inplace",
        "label": "uint256[50]",
        "numberOfBytes": "1600"
      },
      "t_bool": {
        "encoding": "inplace",
        "label": "bool",
        "numberOfBytes": "1"
      },
      "t_bytes_storage": {
        "encoding": "bytes",
        "label": "bytes",
        "numberOfBytes": "32"
      },
      "t_contract(IBridgeTracking)8726": {
        "encoding": "inplace",
        "label": "contract IBridgeTracking",
        "numberOfBytes": "20"
      },
      "t_contract(IMaintenance)9075": {
        "encoding": "inplace",
        "label": "contract IMaintenance",
        "numberOfBytes": "20"
      },
      "t_contract(IRoninTrustedOrganization)9509": {
        "encoding": "inplace",
        "label": "contract IRoninTrustedOrganization",
        "numberOfBytes": "20"
      },
      "t_contract(ISlashIndicator)10082": {
        "encoding": "inplace",
        "label": "contract ISlashIndicator",
        "numberOfBytes": "20"
      },
      "t_contract(IStaking)10587": {
        "encoding": "inplace",
        "label": "contract IStaking",
        "numberOfBytes": "20"
      },
      "t_contract(IStakingVesting)9598": {
        "encoding": "inplace",
        "label": "contract IStakingVesting",
        "numberOfBytes": "20"
      },
      "t_enum(ValidatorFlag)11202": {
        "encoding": "inplace",
        "label": "enum EnumFlags.ValidatorFlag",
        "numberOfBytes": "1"
      },
      "t_mapping(t_address,t_enum(ValidatorFlag)11202)": {
        "encoding": "mapping",
        "key": "t_address",
        "label": "mapping(address => enum EnumFlags.ValidatorFlag)",
        "numberOfBytes": "32",
        "value": "t_enum(ValidatorFlag)11202"
      },
      "t_mapping(t_address,t_mapping(t_uint256,t_bool))": {
        "encoding": "mapping",
        "key": "t_address",
        "label": "mapping(address => mapping(uint256 => bool))",
        "numberOfBytes": "32",
        "value": "t_mapping(t_uint256,t_bool)"
      },
      "t_mapping(t_address,t_struct(ValidatorCandidate)10604_storage)": {
        "encoding": "mapping",
        "key": "t_address",
        "label": "mapping(address => struct ICandidateManager.ValidatorCandidate)",
        "numberOfBytes": "32",
        "value": "t_struct(ValidatorCandidate)10604_storage"
      },
      "t_mapping(t_address,t_uint256)": {
        "encoding": "mapping",
        "key": "t_address",
        "label": "mapping(address => uint256)",
        "numberOfBytes": "32",
        "value": "t_uint256"
      },
      "t_mapping(t_uint256,t_address)": {
        "encoding": "mapping",
        "key": "t_uint256",
        "label": "mapping(uint256 => address)",
        "numberOfBytes": "32",
        "value": "t_address"
      },
      "t_mapping(t_uint256,t_bool)": {
        "encoding": "mapping",
        "key": "t_uint256",
        "label": "mapping(uint256 => bool)",
        "numberOfBytes": "32",
        "value": "t_bool"
      },
      "t_struct(ValidatorCandidate)10604_storage": {
        "encoding": "inplace",
        "label": "struct ICandidateManager.ValidatorCandidate",
        "members": [
          {
            "astId": 10591,
            "contract": "contracts/ronin/validator/RoninValidatorSet.sol:RoninValidatorSet",
            "label": "admin",
            "offset": 0,
            "slot": "0",
            "type": "t_address"
          },
          {
            "astId": 10593,
            "contract": "contracts/ronin/validator/RoninValidatorSet.sol:RoninValidatorSet",
            "label": "consensusAddr",
            "offset": 0,
            "slot": "1",
            "type": "t_address"
          },
          {
            "astId": 10595,
            "contract": "contracts/ronin/validator/RoninValidatorSet.sol:RoninValidatorSet",
            "label": "treasuryAddr",
            "offset": 0,
            "slot": "2",
            "type": "t_address_payable"
          },
          {
            "astId": 10597,
            "contract": "contracts/ronin/validator/RoninValidatorSet.sol:RoninValidatorSet",
            "label": "bridgeOperatorAddr",
            "offset": 0,
            "slot": "3",
            "type": "t_address"
          },
          {
            "astId": 10599,
            "contract": "contracts/ronin/validator/RoninValidatorSet.sol:RoninValidatorSet",
            "label": "commissionRate",
            "offset": 0,
            "slot": "4",
            "type": "t_uint256"
          },
          {
            "astId": 10601,
            "contract": "contracts/ronin/validator/RoninValidatorSet.sol:RoninValidatorSet",
            "label": "revokedTimestamp",
            "offset": 0,
            "slot": "5",
            "type": "t_uint256"
          },
          {
            "astId": 10603,
            "contract": "contracts/ronin/validator/RoninValidatorSet.sol:RoninValidatorSet",
            "label": "extraData",
            "offset": 0,
            "slot": "6",
            "type": "t_bytes_storage"
          }
        ],
        "numberOfBytes": "224"
      },
      "t_uint256": {
        "encoding": "inplace",
        "label": "uint256",
        "numberOfBytes": "32"
      },
      "t_uint8": {
        "encoding": "inplace",
        "label": "uint8",
        "numberOfBytes": "1"
      }
    }
  }
}