{
  "address": "0x13C26C1f5E9CD0AAF510dcb2d15DBADBeC9B8251",
  "abi": [
    {
      "inputs": [],
      "stateMutability": "nonpayable",
      "type": "constructor"
    },
    {
      "inputs": [],
      "name": "ErrCallPrecompiled",
      "type": "error"
    },
    {
      "inputs": [],
      "name": "ErrCallerMustBeJailedInTheCurrentPeriod",
      "type": "error"
    },
    {
      "inputs": [],
      "name": "ErrCannotSlashAValidatorTwiceOrSlashMoreThanOneValidatorInOneBlock",
      "type": "error"
    },
    {
      "inputs": [
        {
          "internalType": "enum ContractType",
          "name": "contractType",
          "type": "uint8"
        }
      ],
      "name": "ErrContractTypeNotFound",
      "type": "error"
    },
    {
      "inputs": [],
      "name": "ErrEvidenceAlreadySubmitted",
      "type": "error"
    },
    {
      "inputs": [],
      "name": "ErrInsufficientCreditScoreToBailOut",
      "type": "error"
    },
    {
      "inputs": [
        {
          "internalType": "bytes4",
          "name": "msgSig",
          "type": "bytes4"
        }
      ],
      "name": "ErrInvalidArguments",
      "type": "error"
    },
    {
      "inputs": [],
      "name": "ErrInvalidCreditScoreConfig",
      "type": "error"
    },
    {
      "inputs": [],
      "name": "ErrInvalidCutOffPercentageConfig",
      "type": "error"
    },
    {
      "inputs": [
        {
          "internalType": "bytes4",
          "name": "msgSig",
          "type": "bytes4"
        }
      ],
      "name": "ErrInvalidThreshold",
      "type": "error"
    },
    {
      "inputs": [
        {
          "internalType": "bytes4",
          "name": "msgSig",
          "type": "bytes4"
        },
        {
          "internalType": "enum RoleAccess",
          "name": "expectedRole",
          "type": "uint8"
        }
      ],
      "name": "ErrUnauthorized",
      "type": "error"
    },
    {
      "inputs": [
        {
          "internalType": "bytes4",
          "name": "msgSig",
          "type": "bytes4"
        },
        {
          "internalType": "enum ContractType",
          "name": "expectedContractType",
          "type": "uint8"
        },
        {
          "internalType": "address",
          "name": "actual",
          "type": "address"
        }
      ],
      "name": "ErrUnexpectedInternalCall",
      "type": "error"
    },
    {
      "inputs": [],
      "name": "ErrValidatorHasBailedOutPreviously",
      "type": "error"
    },
    {
      "inputs": [
        {
          "internalType": "address",
          "name": "addr",
          "type": "address"
        }
      ],
      "name": "ErrZeroCodeContract",
      "type": "error"
    },
    {
      "anonymous": false,
      "inputs": [
        {
          "indexed": true,
          "internalType": "TConsensus",
          "name": "consensus",
          "type": "address"
        },
        {
          "indexed": false,
          "internalType": "uint256",
          "name": "period",
          "type": "uint256"
        },
        {
          "indexed": false,
          "internalType": "uint256",
          "name": "usedCreditScore",
          "type": "uint256"
        }
      ],
      "name": "BailedOut",
      "type": "event"
    },
    {
      "anonymous": false,
      "inputs": [
        {
          "indexed": true,
          "internalType": "enum ContractType",
          "name": "contractType",
          "type": "uint8"
        },
        {
          "indexed": true,
          "internalType": "address",
          "name": "addr",
          "type": "address"
        }
      ],
      "name": "ContractUpdated",
      "type": "event"
    },
    {
      "anonymous": false,
      "inputs": [
        {
          "indexed": false,
          "internalType": "uint256",
          "name": "gainCreditScore",
          "type": "uint256"
        },
        {
          "indexed": false,
          "internalType": "uint256",
          "name": "maxCreditScore",
          "type": "uint256"
        },
        {
          "indexed": false,
          "internalType": "uint256",
          "name": "bailOutCostMultiplier",
          "type": "uint256"
        },
        {
          "indexed": false,
          "internalType": "uint256",
          "name": "cutOffPercentageAfterBailout",
          "type": "uint256"
        }
      ],
      "name": "CreditScoreConfigsUpdated",
      "type": "event"
    },
    {
      "anonymous": false,
      "inputs": [
        {
          "indexed": false,
          "internalType": "address[]",
          "name": "validators",
          "type": "address[]"
        },
        {
          "indexed": false,
          "internalType": "uint256[]",
          "name": "creditScores",
          "type": "uint256[]"
        }
      ],
      "name": "CreditScoresUpdated",
      "type": "event"
    },
    {
      "anonymous": false,
      "inputs": [
        {
          "indexed": false,
          "internalType": "uint256",
          "name": "slashDoubleSignAmount",
          "type": "uint256"
        },
        {
          "indexed": false,
          "internalType": "uint256",
          "name": "doubleSigningJailUntilBlock",
          "type": "uint256"
        },
        {
          "indexed": false,
          "internalType": "uint256",
          "name": "doubleSigningOffsetLimitBlock",
          "type": "uint256"
        }
      ],
      "name": "DoubleSignSlashingConfigsUpdated",
      "type": "event"
    },
    {
      "anonymous": false,
      "inputs": [
        {
          "indexed": false,
          "internalType": "uint256",
          "name": "slashFastFinalityAmount",
          "type": "uint256"
        },
        {
          "indexed": false,
          "internalType": "uint256",
          "name": "fastFinalityJailUntilBlock",
          "type": "uint256"
        }
      ],
      "name": "FastFinalitySlashingConfigsUpdated",
      "type": "event"
    },
    {
      "anonymous": false,
      "inputs": [
        {
          "indexed": false,
          "internalType": "uint8",
          "name": "version",
          "type": "uint8"
        }
      ],
      "name": "Initialized",
      "type": "event"
    },
    {
      "anonymous": false,
      "inputs": [
        {
          "indexed": true,
          "internalType": "address",
          "name": "validator",
          "type": "address"
        },
        {
          "indexed": false,
          "internalType": "enum IBaseSlash.SlashType",
          "name": "slashType",
          "type": "uint8"
        },
        {
          "indexed": false,
          "internalType": "uint256",
          "name": "period",
          "type": "uint256"
        }
      ],
      "name": "Slashed",
      "type": "event"
    },
    {
      "anonymous": false,
      "inputs": [
        {
          "indexed": false,
          "internalType": "uint256",
          "name": "unavailabilityTier1Threshold",
          "type": "uint256"
        },
        {
          "indexed": false,
          "internalType": "uint256",
          "name": "unavailabilityTier2Threshold",
          "type": "uint256"
        },
        {
          "indexed": false,
          "internalType": "uint256",
          "name": "slashAmountForUnavailabilityTier2Threshold",
          "type": "uint256"
        },
        {
          "indexed": false,
          "internalType": "uint256",
          "name": "jailDurationForUnavailabilityTier2Threshold",
          "type": "uint256"
        }
      ],
      "name": "UnavailabilitySlashingConfigsUpdated",
      "type": "event"
    },
    {
      "inputs": [
        {
          "internalType": "TConsensus",
          "name": "consensusAddr",
          "type": "address"
        }
      ],
      "name": "bailOut",
      "outputs": [],
      "stateMutability": "nonpayable",
      "type": "function"
    },
    {
      "inputs": [
        {
          "internalType": "TConsensus",
          "name": "consensus",
          "type": "address"
        },
        {
          "internalType": "uint256",
          "name": "period",
          "type": "uint256"
        }
      ],
      "name": "checkBailedOutAtPeriod",
      "outputs": [
        {
          "internalType": "bool",
          "name": "",
          "type": "bool"
        }
      ],
      "stateMutability": "view",
      "type": "function"
    },
    {
      "inputs": [
        {
          "internalType": "TConsensus",
          "name": "consensus",
          "type": "address"
        }
      ],
      "name": "currentUnavailabilityIndicator",
      "outputs": [
        {
          "internalType": "uint256",
          "name": "",
          "type": "uint256"
        }
      ],
      "stateMutability": "view",
      "type": "function"
    },
    {
      "inputs": [
        {
          "internalType": "address[]",
          "name": "validatorIds",
          "type": "address[]"
        }
      ],
      "name": "execResetCreditScores",
      "outputs": [],
      "stateMutability": "nonpayable",
      "type": "function"
    },
    {
      "inputs": [
        {
          "internalType": "address[]",
          "name": "validatorIds",
          "type": "address[]"
        },
        {
          "internalType": "uint256",
          "name": "period",
          "type": "uint256"
        }
      ],
      "name": "execUpdateCreditScores",
      "outputs": [],
      "stateMutability": "nonpayable",
      "type": "function"
    },
    {
      "inputs": [
        {
          "internalType": "enum ContractType",
          "name": "contractType",
          "type": "uint8"
        }
      ],
      "name": "getContract",
      "outputs": [
        {
          "internalType": "address",
          "name": "contract_",
          "type": "address"
        }
      ],
      "stateMutability": "view",
      "type": "function"
    },
    {
      "inputs": [
        {
          "internalType": "TConsensus",
          "name": "consensusAddr",
          "type": "address"
        }
      ],
      "name": "getCreditScore",
      "outputs": [
        {
          "internalType": "uint256",
          "name": "",
          "type": "uint256"
        }
      ],
      "stateMutability": "view",
      "type": "function"
    },
    {
      "inputs": [],
      "name": "getCreditScoreConfigs",
      "outputs": [
        {
          "internalType": "uint256",
          "name": "gainCreditScore_",
          "type": "uint256"
        },
        {
          "internalType": "uint256",
          "name": "maxCreditScore_",
          "type": "uint256"
        },
        {
          "internalType": "uint256",
          "name": "bailOutCostMultiplier_",
          "type": "uint256"
        },
        {
          "internalType": "uint256",
          "name": "cutOffPercentageAfterBailout_",
          "type": "uint256"
        }
      ],
      "stateMutability": "view",
      "type": "function"
    },
    {
      "inputs": [],
      "name": "getDoubleSignSlashingConfigs",
      "outputs": [
        {
          "internalType": "uint256",
          "name": "slashDoubleSignAmount_",
          "type": "uint256"
        },
        {
          "internalType": "uint256",
          "name": "doubleSigningJailUntilBlock_",
          "type": "uint256"
        },
        {
          "internalType": "uint256",
          "name": "doubleSigningOffsetLimitBlock_",
          "type": "uint256"
        }
      ],
      "stateMutability": "view",
      "type": "function"
    },
    {
      "inputs": [],
      "name": "getFastFinalitySlashingConfigs",
      "outputs": [
        {
          "internalType": "uint256",
          "name": "slashFastFinalityAmount_",
          "type": "uint256"
        },
        {
          "internalType": "uint256",
          "name": "fastFinalityJailUntilBlock_",
          "type": "uint256"
        }
      ],
      "stateMutability": "view",
      "type": "function"
    },
    {
      "inputs": [
        {
          "internalType": "TConsensus[]",
          "name": "consensusAddrs",
          "type": "address[]"
        }
      ],
      "name": "getManyCreditScores",
      "outputs": [
        {
          "internalType": "uint256[]",
          "name": "resultList",
          "type": "uint256[]"
        }
      ],
      "stateMutability": "view",
      "type": "function"
    },
    {
      "inputs": [
        {
          "internalType": "TConsensus",
          "name": "consensus",
          "type": "address"
        },
        {
          "internalType": "uint256",
          "name": "period",
          "type": "uint256"
        }
      ],
      "name": "getUnavailabilityIndicator",
      "outputs": [
        {
          "internalType": "uint256",
          "name": "",
          "type": "uint256"
        }
      ],
      "stateMutability": "view",
      "type": "function"
    },
    {
      "inputs": [],
      "name": "getUnavailabilitySlashingConfigs",
      "outputs": [
        {
          "internalType": "uint256",
          "name": "unavailabilityTier1Threshold_",
          "type": "uint256"
        },
        {
          "internalType": "uint256",
          "name": "unavailabilityTier2Threshold_",
          "type": "uint256"
        },
        {
          "internalType": "uint256",
          "name": "slashAmountForUnavailabilityTier2Threshold_",
          "type": "uint256"
        },
        {
          "internalType": "uint256",
          "name": "jailDurationForUnavailabilityTier2Threshold_",
          "type": "uint256"
        }
      ],
      "stateMutability": "view",
      "type": "function"
    },
    {
      "inputs": [
        {
          "internalType": "address",
          "name": "__validatorContract",
          "type": "address"
        },
        {
          "internalType": "address",
          "name": "__maintenanceContract",
          "type": "address"
        },
        {
          "internalType": "address",
          "name": "__roninTrustedOrganizationContract",
          "type": "address"
        },
        {
          "internalType": "address",
          "name": "__roninGovernanceAdminContract",
          "type": "address"
        },
        {
          "internalType": "uint256[4]",
          "name": "",
          "type": "uint256[4]"
        },
        {
          "internalType": "uint256[2]",
          "name": "",
          "type": "uint256[2]"
        },
        {
          "internalType": "uint256[3]",
          "name": "_doubleSignSlashingConfigs",
          "type": "uint256[3]"
        },
        {
          "internalType": "uint256[4]",
          "name": "_unavailabilitySlashingConfigs",
          "type": "uint256[4]"
        },
        {
          "internalType": "uint256[4]",
          "name": "_creditScoreConfigs",
          "type": "uint256[4]"
        }
      ],
      "name": "initialize",
      "outputs": [],
      "stateMutability": "nonpayable",
      "type": "function"
    },
    {
      "inputs": [
        {
          "internalType": "address",
          "name": "roninGovernanceAdminContract",
          "type": "address"
        }
      ],
      "name": "initializeV2",
      "outputs": [],
      "stateMutability": "nonpayable",
      "type": "function"
    },
    {
      "inputs": [
        {
          "internalType": "address",
          "name": "profileContract",
          "type": "address"
        }
      ],
      "name": "initializeV3",
      "outputs": [],
      "stateMutability": "nonpayable",
      "type": "function"
    },
    {
      "inputs": [],
      "name": "lastUnavailabilitySlashedBlock",
      "outputs": [
        {
          "internalType": "uint256",
          "name": "",
          "type": "uint256"
        }
      ],
      "stateMutability": "view",
      "type": "function"
    },
    {
      "inputs": [],
      "name": "precompileValidateDoubleSignAddress",
      "outputs": [
        {
          "internalType": "address",
          "name": "",
          "type": "address"
        }
      ],
      "stateMutability": "view",
      "type": "function"
    },
    {
      "inputs": [],
      "name": "precompileValidateFastFinalityAddress",
      "outputs": [
        {
          "internalType": "address",
          "name": "",
          "type": "address"
        }
      ],
      "stateMutability": "view",
      "type": "function"
    },
    {
      "inputs": [
        {
          "internalType": "enum ContractType",
          "name": "contractType",
          "type": "uint8"
        },
        {
          "internalType": "address",
          "name": "addr",
          "type": "address"
        }
      ],
      "name": "setContract",
      "outputs": [],
      "stateMutability": "nonpayable",
      "type": "function"
    },
    {
      "inputs": [
        {
          "internalType": "uint256",
          "name": "_gainScore",
          "type": "uint256"
        },
        {
          "internalType": "uint256",
          "name": "_maxScore",
          "type": "uint256"
        },
        {
          "internalType": "uint256",
          "name": "_bailOutMultiplier",
          "type": "uint256"
        },
        {
          "internalType": "uint256",
          "name": "_cutOffPercentage",
          "type": "uint256"
        }
      ],
      "name": "setCreditScoreConfigs",
      "outputs": [],
      "stateMutability": "nonpayable",
      "type": "function"
    },
    {
      "inputs": [
        {
          "internalType": "uint256",
          "name": "_slashAmount",
          "type": "uint256"
        },
        {
          "internalType": "uint256",
          "name": "_jailUntilBlock",
          "type": "uint256"
        },
        {
          "internalType": "uint256",
          "name": "_offsetLimitBlock",
          "type": "uint256"
        }
      ],
      "name": "setDoubleSignSlashingConfigs",
      "outputs": [],
      "stateMutability": "nonpayable",
      "type": "function"
    },
    {
      "inputs": [
        {
          "internalType": "uint256",
          "name": "slashAmount",
          "type": "uint256"
        },
        {
          "internalType": "uint256",
          "name": "jailUntilBlock",
          "type": "uint256"
        }
      ],
      "name": "setFastFinalitySlashingConfigs",
      "outputs": [],
      "stateMutability": "nonpayable",
      "type": "function"
    },
    {
      "inputs": [
        {
          "internalType": "uint256",
          "name": "_tier1Threshold",
          "type": "uint256"
        },
        {
          "internalType": "uint256",
          "name": "_tier2Threshold",
          "type": "uint256"
        },
        {
          "internalType": "uint256",
          "name": "_slashAmountForTier2Threshold",
          "type": "uint256"
        },
        {
          "internalType": "uint256",
          "name": "_jailDurationForTier2Threshold",
          "type": "uint256"
        }
      ],
      "name": "setUnavailabilitySlashingConfigs",
      "outputs": [],
      "stateMutability": "nonpayable",
      "type": "function"
    },
    {
      "inputs": [
        {
          "internalType": "TConsensus",
          "name": "consensusAddr",
          "type": "address"
        },
        {
          "internalType": "bytes",
          "name": "header1",
          "type": "bytes"
        },
        {
          "internalType": "bytes",
          "name": "header2",
          "type": "bytes"
        }
      ],
      "name": "slashDoubleSign",
      "outputs": [],
      "stateMutability": "nonpayable",
      "type": "function"
    },
    {
      "inputs": [
        {
          "internalType": "TConsensus",
          "name": "consensusAddr",
          "type": "address"
        },
        {
          "internalType": "bytes",
          "name": "voterPublicKey",
          "type": "bytes"
        },
        {
          "internalType": "uint256",
          "name": "targetBlockNumber",
          "type": "uint256"
        },
        {
          "internalType": "bytes32[2]",
          "name": "targetBlockHash",
          "type": "bytes32[2]"
        },
        {
          "internalType": "bytes[][2]",
          "name": "listOfPublicKey",
          "type": "bytes[][2]"
        },
        {
          "internalType": "bytes[2]",
          "name": "aggregatedSignature",
          "type": "bytes[2]"
        }
      ],
      "name": "slashFastFinality",
      "outputs": [],
      "stateMutability": "nonpayable",
      "type": "function"
    },
    {
      "inputs": [
        {
          "internalType": "TConsensus",
          "name": "consensusAddr",
          "type": "address"
        }
      ],
      "name": "slashUnavailability",
      "outputs": [],
      "stateMutability": "nonpayable",
      "type": "function"
    }
  ],
  "transactionHash": "0x4c8e02d57a74f671e48b63e0a3b2bf383d055b55d9aefc1bc5c87bd187372f22",
  "args": [],
  "numDeployments": 11,
  "solcInputHash": "f5939ebe47e4086c92eac99ab2681ceb",
  "bytecode": "0x60806040523480156200001157600080fd5b506200001c62000022565b620000e7565b61011354610100900460ff1615620000905760405162461bcd60e51b815260206004820152602760248201527f496e697469616c697a61626c653a20636f6e747261637420697320696e697469604482015266616c697a696e6760c81b606482015260840160405180910390fd5b6101135460ff9081161015620000e557610113805460ff191660ff9081179091556040519081527f7f26b83ff96e1f2b6a682f133852f6798a09c465da95921460cefb38474024989060200160405180910390a15b565b61310080620000f76000396000f3fe608060405234801561001057600080fd5b50600436106101a95760003560e01c8063a345ecb2116100f9578063d3dd2bdf11610097578063e9bb166611610071578063e9bb1666146103c1578063f1001e78146103c8578063f562b3c4146103e8578063fd422cd0146103f057600080fd5b8063d3dd2bdf14610377578063de981f1b1461038a578063df4b6ee01461039d57600080fd5b8063cf39d13c116100d3578063cf39d13c1461032b578063d1737e271461033e578063d1cf434314610351578063d1f992f71461036457600080fd5b8063a345ecb2146102f4578063c6391fa214610307578063ccbb72ed1461031857600080fd5b80633101cfcb1161016657806362ffe6cb1161014057806362ffe6cb146102a05780637c2b55a0146102b3578063865e6fd3146102ce57806399103f7b146102e157600080fd5b80633101cfcb146102455780633d48fd7d14610258578063487e00ea1461028557600080fd5b806307c2d2f6146101ae578063082e7420146101c3578063185368db146101e95780631e90b2a0146101fc57806329b6eca91461020f57806329ddc3c014610222575b600080fd5b6101c16101bc36600461227a565b610403565b005b6101d66101d13660046122d0565b610510565b6040519081526020015b60405180910390f35b6101c16101f73660046122ed565b610594565b6101c161020a366004612379565b6108aa565b6101c161021d3660046122d0565b610ab1565b6102356102303660046123fb565b610bd5565b60405190151581526020016101e0565b6101c16102533660046122d0565b610bf0565b60a45460a55460a65460a7545b6040805194855260208501939093529183015260608201526080016101e0565b601d54601e54604080519283526020830191909152016101e0565b6101d66102ae3660046123fb565b610c9d565b60675b6040516001600160a01b0390911681526020016101e0565b6101c16102dc366004612436565b610cb1565b6101c16102ef36600461248f565b610cd0565b6101c161030236600461254d565b610e13565b60dd5460de5460df5460e054610265565b6101c161032636600461256f565b610e25565b6101c16103393660046125a1565b610e3f565b6101c161034c36600461256f565b610e57565b6101c161035f3660046125cd565b610e6b565b6101c16103723660046122d0565b6111a6565b6101d66103853660046122d0565b6115a8565b6102b661039836600461268b565b6115d7565b600154600254600354604080519384526020840192909252908201526060016101e0565b60696102b6565b6103db6103d636600461227a565b611652565b6040516101e091906126e1565b60a2546101d6565b6101c16103fe3660046122d0565b611751565b600861040e81611a77565b6000826001600160401b03811115610428576104286126f4565b604051908082528060200260200182016040528015610451578160200160208202803683370190505b50905060005b838110156104ce5760008585838181106104735761047361270a565b905060200201602081019061048891906122d0565b6001600160a01b038116600090815260dc602052604081205583519091508390839081106104b8576104b861270a565b6000602091820292909201015250600101610457565b507f8c02b2ccee964dc50649a48bd0a0446f0f9e88ecdb72d099f4ace07c39c234808484836040516105029392919061275e565b60405180910390a150505050565b600061058e61051e83611ac3565b61052860086115d7565b6001600160a01b031663060406186040518163ffffffff1660e01b8152600401602060405180830381865afa158015610565573d6000803e3d6000fd5b505050506040513d601f19601f82011682018060405250810190610589919061278e565b611b3b565b92915050565b600861059f81611a77565b60003390506000816001600160a01b031663297a8fca6040518163ffffffff1660e01b8152600401602060405180830381865afa1580156105e4573d6000803e3d6000fd5b505050506040513d601f19601f82011682018060405250810190610608919061278e565b90506000826001600160a01b0316637e1dc16f88886040518363ffffffff1660e01b815260040161063a9291906127a7565b600060405180830381865afa158015610657573d6000803e3d6000fd5b505050506040513d6000823e601f3d908101601f1916820160405261067f9190810190612868565b9050600061068d60056115d7565b6001600160a01b0316638b042a72898986436040518563ffffffff1660e01b81526004016106be9493929190612904565b600060405180830381865afa1580156106db573d6000803e3d6000fd5b505050506040513d6000823e601f3d908101601f191682016040526107039190810190612868565b90506000876001600160401b0381111561071f5761071f6126f4565b604051908082528060200260200182016040528015610748578160200160208202803683370190505b50905060005b888110156108635760008a8a8381811061076a5761076a61270a565b905060200201602081019061077f91906122d0565b9050600061078d828b611b3b565b905060008684815181106107a3576107a361270a565b6020026020010151905060008685815181106107c1576107c161270a565b60200260200101519050600082806107d65750815b6107eb576107e660dd5485611b64565b6107ee565b60005b6001600160a01b038616600090815260dc602052604090205460de54919250610818918390611b7e565b6001600160a01b038616600090815260dc6020526040902081905587518890889081106108475761084761270a565b602002602001018181525050856001019550505050505061074e565b507f8c02b2ccee964dc50649a48bd0a0446f0f9e88ecdb72d099f4ace07c39c234808989836040516108979392919061275e565b60405180910390a1505050505050505050565b6108b2611b9b565b600084846040516108c492919061292b565b60405180910390209050600083836040516108e092919061292b565b604080519182900390912060008481526004602052919091205490915060ff1680610919575060008181526004602052604090205460ff165b156109375760405163f27b8ec960e01b815260040160405180910390fd5b600061094288611ac3565b90506001600160a01b0381166109555750865b6109628188888888611bf7565b15610aa757600061097360086115d7565b90506000816001600160a01b031663060406186040518163ffffffff1660e01b8152600401602060405180830381865afa1580156109b5573d6000803e3d6000fd5b505050506040513d601f19601f820116820180604052508101906109d9919061278e565b6000868152600460205260408082208054600160ff19918216811790925588845292829020805490931617909155519091506001600160a01b038416906000805160206130ab83398151915290610a34906003908590612951565b60405180910390a260025460018054604051630bde081360e21b81526001600160a01b03861693632f78204c93610a7293899390919060040161296f565b600060405180830381600087803b158015610a8c57600080fd5b505af1158015610aa0573d6000803e3d6000fd5b5050505050505b5050505050505050565b61011354600290610100900460ff16158015610ad557506101135460ff8083169116105b610afa5760405162461bcd60e51b8152600401610af190612997565b60405180910390fd5b610113805461ffff191660ff831617610100179055600054610b27906008906001600160a01b0316611ca1565b60da54610b3f906005906001600160a01b0316611ca1565b610b4a600483611ca1565b603554610b6290600a906001600160a01b0316611ca1565b600080546001600160a01b031990811690915560da8054821690556035805482169055603680549091169055610113805461ff001916905560405160ff821681527f7f26b83ff96e1f2b6a682f133852f6798a09c465da95921460cefb3847402498906020015b60405180910390a15050565b6000610be9610be384611ac3565b83611d45565b9392505050565b61011354600390610100900460ff16158015610c1457506101135460ff8083169116105b610c305760405162461bcd60e51b8152600401610af190612997565b610113805461ffff191660ff831617610100179055610c50600f83611ca1565b610c5e600154600254611d71565b610113805461ff001916905560405160ff821681527f7f26b83ff96e1f2b6a682f133852f6798a09c465da95921460cefb384740249890602001610bc9565b6000610be9610cab84611ac3565b83611b3b565b610cb9611b9b565b610cc281611db1565b610ccc8282611ca1565b5050565b61011354610100900460ff1615808015610cf2575061011354600160ff909116105b80610d0d5750303b158015610d0d57506101135460ff166001145b610d295760405162461bcd60e51b8152600401610af190612997565b610113805460ff191660011790558015610d4e57610113805461ff0019166101001790555b610d5960088b611ca1565b610d6460058a611ca1565b610d6f600488611ca1565b610d7a600a89611ca1565b610d8e843560208601356040870135611de7565b610da78335602085013560408601356060870135611e3c565b610dc08235602084013560408501356060860135611ec8565b8015610e0757610113805461ff0019169055604051600181527f7f26b83ff96e1f2b6a682f133852f6798a09c465da95921460cefb38474024989060200160405180910390a15b50505050505050505050565b610e1b611b9b565b610ccc8282611d71565b610e2d611b9b565b610e3984848484611ec8565b50505050565b610e47611b9b565b610e52838383611de7565b505050565b610e5f611b9b565b610e3984848484611e3c565b610e7433611f65565b600003610ea4576000356001600160e01b0319166003604051620f948f60ea1b8152600401610af19291906129e5565b6000610eaf88611ac3565b90506000610ebd600f6115d7565b6040516303d1982560e61b81526001600160a01b03848116600483015291925060009183169063f466094090602401600060405180830381865afa158015610f09573d6000803e3d6000fd5b505050506040513d6000823e601f3d908101601f19168201604052610f319190810190612aae565b60a00151905080805190602001208989604051610f4f92919061292b565b604051809103902014610f835760405163053265f160e01b81526001600160e01b0319600035166004820152602401610af1565b6040516bffffffffffffffffffffffff1960608c901b1660208201526034810188905260009060540160408051601f1981840301815291815281516020928301206000818152601f90935291205490915060ff1615610ff55760405163f27b8ec960e01b815260040160405180910390fd5b61106b8a8a8080601f016020809104026020016040519081016040528093929190818152602001838380828437600092019190915250506040805180820182528d935091508b90600290839083908082843760009201919091525061105d91508b9050612bc6565b6110668a612c9d565b611fdd565b15611199576000818152601f60205260408120805460ff1916600117905561109360086115d7565b90506000816001600160a01b031663060406186040518163ffffffff1660e01b8152600401602060405180830381865afa1580156110d5573d6000803e3d6000fd5b505050506040513d601f19601f820116820180604052508101906110f9919061278e565b9050856001600160a01b03166000805160206130ab833981519152600883604051611125929190612951565b60405180910390a2601e54601d54604051630bde081360e21b81526001600160a01b03851692632f78204c92611164928b92919060019060040161296f565b600060405180830381600087803b15801561117e57600080fd5b505af1158015611192573d6000803e3d6000fd5b5050505050505b5050505050505050505050565b60006111b182611ac3565b905060006111bf60086115d7565b604051635061f96960e11b81526001600160a01b0385811660048301529192509082169063a0c3f2d290602401602060405180830381865afa158015611209573d6000803e3d6000fd5b505050506040513d601f19601f8201168201806040525081019061122d9190612cf5565b61125a576000356001600160e01b0319166008604051620f948f60ea1b8152600401610af19291906129e5565b6040516304d971ab60e01b81526001600160a01b0384811660048301523360248301528216906304d971ab90604401602060405180830381865afa1580156112a6573d6000803e3d6000fd5b505050506040513d601f19601f820116820180604052508101906112ca9190612cf5565b6112f7576000356001600160e01b0319166004604051620f948f60ea1b8152600401610af19291906129e5565b604051634b2c2fe160e11b81526001600160a01b03848116600483015260009182918416906396585fc290602401606060405180830381865afa158015611342573d6000803e3d6000fd5b505050506040513d601f19601f820116820180604052508101906113669190612d10565b92505091508161138957604051636cd31b5960e01b815260040160405180910390fd5b6000836001600160a01b031663060406186040518163ffffffff1660e01b8152600401602060405180830381865afa1580156113c9573d6000803e3d6000fd5b505050506040513d601f19601f820116820180604052508101906113ed919061278e565b6001600160a01b038616600090815260db6020908152604080832084845290915290205490915060ff161561143557604051637674d6a960e01b815260040160405180910390fd5b6001600160a01b038516600090815260dc602052604081205460df5490919061145e9085612d5b565b9050808210156114815760405163462e593760e11b815260040160405180910390fd5b604051630adaf5ef60e11b81526001600160a01b038881166004830152602482018590528716906315b5ebde90604401600060405180830381600087803b1580156114cb57600080fd5b505af11580156114df573d6000803e3d6000fd5b505050506001600160a01b038716600090815260dc60205260408120805483929061150b908490612d72565b90915550506001600160a01b038716600090815260a3602090815260408083208684529091528120556001600160a01b03878116600090815260db60209081526040808320878452825291829020805460ff191660011790558151868152908101849052918a16917f7ff9f7032d565c7e8919332964b2faa33c320b53604a65d9dd1f8112e12cd39d910160405180910390a25050505050505050565b600060dc60006115b784611ac3565b6001600160a01b0316815260208101919091526040016000205492915050565b60007fdea3103d22025c269050bea94c0c84688877f12fa22b7e6d2d5d78a9a49aa1cb600083600f81111561160e5761160e61293b565b60ff1681526020810191909152604001600020546001600160a01b031690508061164d578160405163409140df60e11b8152600401610af19190612d99565b919050565b6060600061169284848080602002602001604051908101604052809392919081815260200183836020028082843760009201919091525061203892505050565b905080516001600160401b038111156116ad576116ad6126f4565b6040519080825280602002602001820160405280156116d6578160200160208202803683370190505b50915060005b82518110156117495760dc60008383815181106116fb576116fb61270a565b60200260200101516001600160a01b03166001600160a01b03168152602001908152602001600020548382815181106117365761173661270a565b60209081029190910101526001016116dc565b505092915050565b60a25443116117735760405163557fd09160e01b815260040160405180910390fd5b4360a2553341146117a7576000356001600160e01b0319166002604051620f948f60ea1b8152600401610af19291906129e5565b60006117b282611ac3565b90506117be82826120b4565b6117c6575050565b60006117d260086115d7565b90506000816001600160a01b031663060406186040518163ffffffff1660e01b8152600401602060405180830381865afa158015611814573d6000803e3d6000fd5b505050506040513d601f19601f82011682018060405250810190611838919061278e565b6001600160a01b038416600090815260a360209081526040808320848452909152812080546001019081905560a754929350916118769043906121e0565b905060a554820361191f57846001600160a01b03166000805160206130ab8339815191526002856040516118ab929190612951565b60405180910390a260a654604051630bde081360e21b81526001600160a01b03861691632f78204c916118e891899186919060009060040161296f565b600060405180830381600087803b15801561190257600080fd5b505af1158015611916573d6000803e3d6000fd5b50505050611a6e565b60a4548203611a6e5760006119348685611d45565b9050806119d757856001600160a01b03166000805160206130ab833981519152600186604051611965929190612951565b60405180910390a2604051630bde081360e21b81526001600160a01b03861690632f78204c906119a09089906000908190819060040161296f565b600060405180830381600087803b1580156119ba57600080fd5b505af11580156119ce573d6000803e3d6000fd5b50505050611a6c565b856001600160a01b03166000805160206130ab833981519152600786604051611a01929190612951565b60405180910390a260a654604051630bde081360e21b81526001600160a01b03871691632f78204c91611a3e918a9187919060019060040161296f565b600060405180830381600087803b158015611a5857600080fd5b505af1158015611199573d6000803e3d6000fd5b505b50505050505b50565b611a80816115d7565b6001600160a01b0316336001600160a01b031614611a74576000356001600160e01b03191681336040516320e0f98d60e21b8152600401610af193929190612da7565b6000611acf600f6115d7565b6040516350a9fc2960e01b81526001600160a01b03848116600483015291909116906350a9fc2990602401602060405180830381865afa158015611b17573d6000803e3d6000fd5b505050506040513d601f19601f8201168201806040525081019061058e9190612dde565b6001600160a01b038216600090815260a360209081526040808320848452909152812054610be9565b6000818311611b74576000610be9565b610be98284612d72565b6000611b93611b8d8486612dfb565b836121fb565b949350505050565b7fb53127684a568b3173ae13b9f8a6016e243e63b6e8ee1178d6a717850b5d6103546001600160a01b03163314611bf5576000356001600160e01b0319166001604051620f948f60ea1b8152600401610af19291906129e5565b565b6040516000906067906001908390611c1b908a908a908a908a908a90602401612e37565b60408051601f198184030181529190526020810180516001600160e01b0316637fc3567760e01b1790528051909150611c52612211565b602083016020828483895afa611c6757600094505b503d611c7257600093505b83611c9057604051630fc2632160e01b815260040160405180910390fd5b5115159a9950505050505050505050565b807fdea3103d22025c269050bea94c0c84688877f12fa22b7e6d2d5d78a9a49aa1cb600084600f811115611cd757611cd761293b565b60ff168152602081019190915260400160002080546001600160a01b0319166001600160a01b03928316179055811682600f811115611d1857611d1861293b565b6040517f865d1c228a8ea13709cfe61f346f7ff67f1bbd4a18ff31ad3e7147350d317c5990600090a35050565b6001600160a01b038216600090815260db6020908152604080832084845290915281205460ff16610be9565b601d829055601e81905560408051838152602081018390527f381ec200df2ed0875638486318f9f8a84e3550bdc686bf1400c9371a18d087f09101610bc9565b806001600160a01b03163b600003611a7457604051630bfc64a360e21b81526001600160a01b0382166004820152602401610af1565b60018390556002829055600381905560408051848152602081018490529081018290527f913da102149f952dde560cef3349db8e8002e9d580c41a7551d6d45329f4306b9060600160405180910390a1505050565b60a55460a4541115611e6f576040516387f6f09560e01b81526001600160e01b0319600035166004820152602401610af1565b60a484905560a583905560a682905560a78190556040805185815260208101859052908101839052606081018290527f442862e6143ad95854e7c13ff4947ec6e43bc87160e3b193e7c1abaf6e3aaa9890608001610502565b82841115611ee95760405163112af4d160e01b815260040160405180910390fd5b612710811115611f0c5760405163382c88a360e21b815260040160405180910390fd5b60dd84905560de83905560df82905560e08190556040805185815260208101859052908101839052606081018290527fe1f9c6c73554b5fa140eead3cfd4ec3e6d4824f3ed26fb25e38376f65b95470b90608001610502565b6000611f71600a6115d7565b604051631af0725f60e31b81526001600160a01b038481166004830152919091169063d78392f890602401602060405180830381865afa158015611fb9573d6000803e3d6000fd5b505050506040513d601f19601f8201168201806040525081019061058e919061278e565b6040516000906069906001908390612001908a908a908a908a908a90602401612eec565b60408051601f198184030181529190526020810180516001600160e01b0316637b47d06b60e01b1790528051909150611c52612211565b6060612044600f6115d7565b6001600160a01b031663f9226b1a836040518263ffffffff1660e01b815260040161206f9190612fcf565b600060405180830381865afa15801561208c573d6000803e3d6000fd5b505050506040513d6000823e601f3d908101601f1916820160405261058e919081019061301c565b6000336001600160a01b038416148015906120d85750336001600160a01b03831614155b801561215557506120e960086115d7565b604051633292276760e11b81526001600160a01b03858116600483015291909116906365244ece90602401602060405180830381865afa158015612131573d6000803e3d6000fd5b505050506040513d601f19601f820116820180604052508101906121559190612cf5565b8015610be9575061216660056115d7565b604051638d5b675960e01b81526001600160a01b0384811660048301524360248301529190911690638d5b675990604401602060405180830381865afa1580156121b4573d6000803e3d6000fd5b505050506040513d601f19601f820116820180604052508101906121d89190612cf5565b159392505050565b6000816000036121f1576000610be9565b610be98284612dfb565b600081831061220a5781610be9565b5090919050565b60405180602001604052806001906020820280368337509192915050565b60008083601f84011261224157600080fd5b5081356001600160401b0381111561225857600080fd5b6020830191508360208260051b850101111561227357600080fd5b9250929050565b6000806020838503121561228d57600080fd5b82356001600160401b038111156122a357600080fd5b6122af8582860161222f565b90969095509350505050565b6001600160a01b0381168114611a7457600080fd5b6000602082840312156122e257600080fd5b8135610be9816122bb565b60008060006040848603121561230257600080fd5b83356001600160401b0381111561231857600080fd5b6123248682870161222f565b909790965060209590950135949350505050565b60008083601f84011261234a57600080fd5b5081356001600160401b0381111561236157600080fd5b60208301915083602082850101111561227357600080fd5b60008060008060006060868803121561239157600080fd5b853561239c816122bb565b945060208601356001600160401b03808211156123b857600080fd5b6123c489838a01612338565b909650945060408801359150808211156123dd57600080fd5b506123ea88828901612338565b969995985093965092949392505050565b6000806040838503121561240e57600080fd5b8235612419816122bb565b946020939093013593505050565b80356010811061164d57600080fd5b6000806040838503121561244957600080fd5b61245283612427565b91506020830135612462816122bb565b809150509250929050565b806080810183101561058e57600080fd5b806040810183101561058e57600080fd5b60008060008060008060008060006102a08a8c0312156124ae57600080fd5b89356124b9816122bb565b985060208a01356124c9816122bb565b975060408a01356124d9816122bb565b965060608a01356124e9816122bb565b95506124f88b60808c0161246d565b94506125088b6101008c0161247e565b93506101a08a018b81111561251c57600080fd5b6101408b01935061252d8c8261246d565b92505061253e8b6102208c0161246d565b90509295985092959850929598565b6000806040838503121561256057600080fd5b50508035926020909101359150565b6000806000806080858703121561258557600080fd5b5050823594602084013594506040840135936060013592509050565b6000806000606084860312156125b657600080fd5b505081359360208301359350604090920135919050565b600080600080600080600060e0888a0312156125e857600080fd5b87356125f3816122bb565b965060208801356001600160401b038082111561260f57600080fd5b61261b8b838c01612338565b909850965060408a013595508691506126378b60608c0161247e565b945060a08a013591508082111561264d57600080fd5b6126598b838c0161247e565b935060c08a013591508082111561266f57600080fd5b5061267c8a828b0161247e565b91505092959891949750929550565b60006020828403121561269d57600080fd5b610be982612427565b600081518084526020808501945080840160005b838110156126d6578151875295820195908201906001016126ba565b509495945050505050565b602081526000610be960208301846126a6565b634e487b7160e01b600052604160045260246000fd5b634e487b7160e01b600052603260045260246000fd5b8183526000602080850194508260005b858110156126d6578135612743816122bb565b6001600160a01b031687529582019590820190600101612730565b604081526000612772604083018587612720565b828103602084015261278481856126a6565b9695505050505050565b6000602082840312156127a057600080fd5b5051919050565b602081526000611b93602083018486612720565b60405160c081016001600160401b03811182821017156127dd576127dd6126f4565b60405290565b604080519081016001600160401b03811182821017156127dd576127dd6126f4565b604051601f8201601f191681016001600160401b038111828210171561282d5761282d6126f4565b604052919050565b60006001600160401b0382111561284e5761284e6126f4565b5060051b60200190565b8051801515811461164d57600080fd5b6000602080838503121561287b57600080fd5b82516001600160401b0381111561289157600080fd5b8301601f810185136128a257600080fd5b80516128b56128b082612835565b612805565b81815260059190911b820183019083810190878311156128d457600080fd5b928401925b828410156128f9576128ea84612858565b825292840192908401906128d9565b979650505050505050565b606081526000612918606083018688612720565b6020830194909452506040015292915050565b8183823760009101908152919050565b634e487b7160e01b600052602160045260246000fd5b60408101600984106129655761296561293b565b9281526020015290565b6001600160a01b03949094168452602084019290925260408301521515606082015260800190565b6020808252602e908201527f496e697469616c697a61626c653a20636f6e747261637420697320616c72656160408201526d191e481a5b9a5d1a585b1a5e995960921b606082015260800190565b6001600160e01b03198316815260408101600b8310612a0657612a0661293b565b8260208301529392505050565b805161164d816122bb565b60006001600160401b03821115612a3757612a376126f4565b50601f01601f191660200190565b60005b83811015612a60578181015183820152602001612a48565b50506000910152565b600082601f830112612a7a57600080fd5b8151612a886128b082612a1e565b818152846020838601011115612a9d57600080fd5b611b93826020830160208701612a45565b600060208284031215612ac057600080fd5b81516001600160401b0380821115612ad757600080fd5b9083019060c08286031215612aeb57600080fd5b612af36127bb565b8251612afe816122bb565b81526020830151612b0e816122bb565b60208201526040830151612b21816122bb565b6040820152612b3260608401612a13565b6060820152612b4360808401612a13565b608082015260a083015182811115612b5a57600080fd5b612b6687828601612a69565b60a08301525095945050505050565b600082601f830112612b8657600080fd5b8135612b946128b082612a1e565b818152846020838601011115612ba957600080fd5b816020850160208301376000918101602001919091529392505050565b6000612bd06127e3565b806040840136811115612be257600080fd5b845b81811015612c935780356001600160401b0380821115612c045760008081fd5b9087019036601f830112612c185760008081fd5b81356020612c286128b083612835565b82815260059290921b84018101918181019036841115612c485760008081fd5b8286015b84811015612c8057803586811115612c645760008081fd5b612c723686838b0101612b75565b845250918301918301612c4c565b5089525090960195505050602001612be4565b5090949350505050565b6000612ca76127e3565b806040840136811115612cb957600080fd5b845b81811015612c935780356001600160401b03811115612cda5760008081fd5b612ce636828901612b75565b85525060209384019301612cbb565b600060208284031215612d0757600080fd5b610be982612858565b600080600060608486031215612d2557600080fd5b612d2e84612858565b925060208401519150604084015190509250925092565b634e487b7160e01b600052601160045260246000fd5b808202811582820484141761058e5761058e612d45565b8181038181111561058e5761058e612d45565b60108110612d9557612d9561293b565b9052565b6020810161058e8284612d85565b6001600160e01b03198416815260608101612dc56020830185612d85565b6001600160a01b03929092166040919091015292915050565b600060208284031215612df057600080fd5b8151610be9816122bb565b8082018082111561058e5761058e612d45565b81835281816020850137506000828201602090810191909152601f909101601f19169091010190565b6001600160a01b0386168152606060208201819052600090612e5c9083018688612e0e565b8281036040840152612e6f818587612e0e565b98975050505050505050565b60008151808452612e93816020860160208601612a45565b601f01601f19169290920160200192915050565b600082604081018360005b6002811015612ee1578383038752612ecb838351612e7b565b6020978801979093509190910190600101612eb2565b509095945050505050565b60c081526000612eff60c0830188612e7b565b60208781850152604084018760005b6002811015612f2b57815183529183019190830190600101612f0e565b505050838203608085015281604081018760005b6002811015612fac578583038452815180518085529086019086850190600581901b8601880160005b82811015612f9657601f19888303018452612f84828651612e7b565b948a0194938a01939150600101612f68565b5096880196955050509185019150600101612f3f565b505085810360a0870152612fc08188612ea7565b9b9a5050505050505050505050565b6020808252825182820181905260009190848201906040850190845b818110156130105783516001600160a01b031683529284019291840191600101612feb565b50909695505050505050565b6000602080838503121561302f57600080fd5b82516001600160401b0381111561304557600080fd5b8301601f8101851361305657600080fd5b80516130646128b082612835565b81815260059190911b8201830190838101908783111561308357600080fd5b928401925b828410156128f957835161309b816122bb565b8252928401929084019061308856fe607adba66cff84b627e3537d1c17d088a98556bccd0536a2f3590c56329023d9a264697066735822122044c31e0275363a320e2635619d2e64fac4ce28df081f0c7c841ba7a971c59c1864736f6c63430008130033",
  "devdoc": {
    "errors": {
      "ErrCallPrecompiled()": [
        {
          "details": "Error of call to precompile fails."
        }
      ],
      "ErrCallerMustBeJailedInTheCurrentPeriod()": [
        {
          "details": "Error thrown when the caller must be jailed in the current period."
        }
      ],
      "ErrCannotSlashAValidatorTwiceOrSlashMoreThanOneValidatorInOneBlock()": [
        {
          "details": "Error thrown when attempting to slash a validator twice or slash more than one validator in one block."
        }
      ],
      "ErrContractTypeNotFound(uint8)": [
        {
          "details": "Error of invalid role."
        }
      ],
      "ErrEvidenceAlreadySubmitted()": [
        {
          "details": "Error thrown when evidence has already been submitted."
        }
      ],
      "ErrInsufficientCreditScoreToBailOut()": [
        {
          "details": "Error thrown when the caller's credit score is insufficient to bail out a situation."
        }
      ],
      "ErrInvalidArguments(bytes4)": [
        {
          "details": "Error indicating that arguments are invalid."
        }
      ],
      "ErrInvalidCreditScoreConfig()": [
        {
          "details": "Error thrown when an invalid credit score configuration is provided."
        }
      ],
      "ErrInvalidCutOffPercentageConfig()": [
        {
          "details": "Error thrown when an invalid cut-off percentage configuration is provided."
        }
      ],
      "ErrInvalidThreshold(bytes4)": [
        {
          "details": "Error indicating that the provided threshold is invalid for a specific function signature.",
          "params": {
            "msgSig": "The function signature (bytes4) that the invalid threshold applies to."
          }
        }
      ],
      "ErrUnauthorized(bytes4,uint8)": [
        {
          "details": "Error indicating that the caller is unauthorized to perform a specific function.",
          "params": {
            "expectedRole": "The role required to perform the function.",
            "msgSig": "The function signature (bytes4) that the caller is unauthorized to perform."
          }
        }
      ],
      "ErrUnexpectedInternalCall(bytes4,uint8,address)": [
        {
          "details": "Error indicating that the caller is unauthorized to perform a specific function.",
          "params": {
            "actual": "The actual address that called to the function.",
            "expectedContractType": "The contract type required to perform the function.",
            "msgSig": "The function signature (bytes4)."
          }
        }
      ],
      "ErrValidatorHasBailedOutPreviously()": [
        {
          "details": "Error thrown when a validator has previously bailed out."
        }
      ],
      "ErrZeroCodeContract(address)": [
        {
          "details": "Error of set to non-contract."
        }
      ]
    },
    "events": {
      "BailedOut(address,uint256,uint256)": {
        "details": "Emitted when a validator bailed out of jail."
      },
      "ContractUpdated(uint8,address)": {
        "details": "Emitted when a contract is updated."
      },
      "CreditScoreConfigsUpdated(uint256,uint256,uint256,uint256)": {
        "details": "Emitted when the configs to credit score is updated. See the method `setCreditScoreConfigs` for param details."
      },
      "CreditScoresUpdated(address[],uint256[])": {
        "details": "Emitted the credit score of validators is updated."
      },
      "DoubleSignSlashingConfigsUpdated(uint256,uint256,uint256)": {
        "details": "Emitted when the configs to slash double sign is updated. See the method `getDoubleSignSlashingConfigs` for param details."
      },
      "FastFinalitySlashingConfigsUpdated(uint256,uint256)": {
        "details": "Emitted when the configs to slash fast finality is updated. See the method `getFastFinalitySlashingConfigs` for param details."
      },
      "Initialized(uint8)": {
        "details": "Triggered when the contract has been initialized or reinitialized."
      },
      "Slashed(address,uint8,uint256)": {
        "details": "Emitted when the validator is slashed."
      },
      "UnavailabilitySlashingConfigsUpdated(uint256,uint256,uint256,uint256)": {
        "details": "Emitted when the configs to slash bridge operator is updated. See the method `getUnavailabilitySlashingConfigs` for param details."
      }
    },
    "kind": "dev",
    "methods": {
      "bailOut(address)": {
        "details": "A slashed validator use this method to get out of jail. Requirements: - The `_consensusAddr` must be a validator. - Only validator's admin can call this method. Emits the event `BailedOut`."
      },
      "checkBailedOutAtPeriod(address,uint256)": {
        "details": "Returns the whether the `consensus` has been bailed out at the `period`."
      },
      "currentUnavailabilityIndicator(address)": {
        "details": "Returns the current unavailability indicator of a block producer."
      },
      "execResetCreditScores(address[])": {
        "details": "Resets the credit score for the revoked validators. Requirements: - Only validator contract can call this method. - This method is only called at the end of each period. Emits the event `CreditScoresUpdated`."
      },
      "execUpdateCreditScores(address[],uint256)": {
        "details": "Updates the credit score for the validators. Requirements: - Only validator contract can call this method. - This method is only called at the end of each period. Emits the event `CreditScoresUpdated`."
      },
      "getContract(uint8)": {
        "details": "Returns the address of a contract with a specific role. Throws an error if no contract is set for the specified role.",
        "params": {
          "contractType": "The role of the contract to retrieve."
        },
        "returns": {
          "contract_": "The address of the contract with the specified role."
        }
      },
      "getCreditScore(address)": {
        "details": "Returns the current credit score of the validator."
      },
      "getCreditScoreConfigs()": {
        "details": "Returns the configs related to credit score.",
        "returns": {
          "bailOutCostMultiplier_": "The number that will be multiplied with the remaining jailed time to get the cost of bailing out.",
          "cutOffPercentageAfterBailout_": "The percentage of reward that the block producer will be cut off from until the end of the period after bailing out.",
          "gainCreditScore_": "The score to gain per period.",
          "maxCreditScore_": "The max number of credit score that a validator can hold."
        }
      },
      "getDoubleSignSlashingConfigs()": {
        "details": "Returns the configs related to block producer slashing.",
        "params": {
          "_doubleSigningOffsetLimitBlock": "The number of block that the current block is at most far from the double signing block."
        },
        "returns": {
          "doubleSigningJailUntilBlock_": "The block number that the punished validator will be jailed until, due to double signing.",
          "slashDoubleSignAmount_": "The amount of RON to slash double sign."
        }
      },
      "getFastFinalitySlashingConfigs()": {
        "details": "Returns the configs related to block producer slashing.",
        "returns": {
          "fastFinalityJailUntilBlock_": "The block number that the punished validator will be jailed until, due to malicious fast finality.",
          "slashFastFinalityAmount_": "The amount of RON to slash fast finality."
        }
      },
      "getManyCreditScores(address[])": {
        "details": "Returns the current credit score of a list of validators."
      },
      "getUnavailabilityIndicator(address,uint256)": {
        "details": "Returns the unavailability indicator in the period `period` of a block producer."
      },
      "getUnavailabilitySlashingConfigs()": {
        "details": "Returns the configs related to block producer slashing.",
        "returns": {
          "jailDurationForUnavailabilityTier2Threshold_": "The number of blocks to jail a block producer when (s)he is slashed with tier-2 or tier-3.",
          "slashAmountForUnavailabilityTier2Threshold_": "The amount of RON to deduct from self-staking of a block producer when (s)he is slashed with tier-2 or tier-3.",
          "unavailabilityTier1Threshold_": "The mining reward will be deprecated, if (s)he missed more than this threshold. This threshold is applied for tier-1 and tier-3 slash.",
          "unavailabilityTier2Threshold_": " The mining reward will be deprecated, (s)he will be put in jailed, and will be deducted self-staking if (s)he misses more than this threshold. This threshold is applied for tier-2 slash."
        }
      },
      "initialize(address,address,address,address,uint256[4],uint256[2],uint256[3],uint256[4],uint256[4])": {
        "details": "Initializes the contract storage."
      },
      "lastUnavailabilitySlashedBlock()": {
        "details": "Returns the last block that a block producer is slashed for unavailability."
      },
      "precompileValidateDoubleSignAddress()": {
        "details": "Gets the address of the precompile of validating double sign evidence"
      },
      "precompileValidateFastFinalityAddress()": {
        "details": "Gets the address of the precompile of validating double sign evidence"
      },
      "setContract(uint8,address)": {
        "details": "Sets the address of a contract with a specific role. Emits the event {ContractUpdated}.",
        "params": {
          "addr": "The address of the contract to set.",
          "contractType": "The role of the contract to set."
        }
      },
      "setCreditScoreConfigs(uint256,uint256,uint256,uint256)": {
        "details": "Sets the configs to credit score. Requirements: - The method caller is admin. Emits the event `CreditScoreConfigsUpdated`.",
        "params": {
          "_bailOutMultiplier": "The number that will be multiplied with the remaining jailed time to get the cost of bailing out.",
          "_cutOffPercentage": "The percentage of reward that the block producer will be cut off from until the end of the period after bailing out.",
          "_gainScore": "The score to gain per period.",
          "_maxScore": "The max number of credit score that a validator can hold."
        }
      },
      "setDoubleSignSlashingConfigs(uint256,uint256,uint256)": {
        "details": "Sets the configs to slash block producers. Requirements: - The method caller is admin. Emits the event `DoubleSignSlashingConfigsUpdated`.",
        "params": {
          "_doubleSigningOffsetLimitBlock": "The number of block that the current block is at most far from the double signing block.",
          "_jailUntilBlock": "The block number that the punished validator will be jailed until, due to double signing.",
          "_slashAmount": "The amount of RON to slash double sign."
        }
      },
      "setFastFinalitySlashingConfigs(uint256,uint256)": {
        "details": "Sets the configs to slash block producers. Requirements: - The method caller is admin. Emits the event `FastFinalitySlashingConfigsUpdated`.",
        "params": {
          "jailUntilBlock": "The block number that the punished validator will be jailed until, due to fast finality.",
          "slashAmount": "The amount of RON to slash fast finality."
        }
      },
      "setUnavailabilitySlashingConfigs(uint256,uint256,uint256,uint256)": {
        "details": "Sets the configs to slash block producers. Requirements: - The method caller is admin. Emits the event `BridgeOperatorSlashingConfigsUpdated`.",
        "params": {
          "jailDurationForTier2Threshold": "The number of blocks to jail a block producer when (s)he is slashed tier-2.",
          "slashAmountForTier2Threshold": "The amount of RON to deduct from self-staking of a block producer when (s)he is slashed tier-2.",
          "tier1Threshold": "The mining reward will be deprecated, if (s)he missed more than this threshold.",
          "tier2Threshold": "The mining reward will be deprecated, (s)he will be put in jailed, and will be deducted self-staking if (s)he misses more than this threshold."
        }
      },
      "slashDoubleSign(address,bytes,bytes)": {
        "details": "Slashes for double signing. Requirements: - The method caller is coinbase. Emits the event `Slashed` if the double signing evidence of the two headers valid."
      },
      "slashFastFinality(address,bytes,uint256,bytes32[2],bytes[][2],bytes[2])": {
        "details": "Slashes for fast finality. Requirements: - Only whitelisted addresses are allowed to call. Emits the event `Slashed` if the fast finality evidence of the two headers valid."
      },
      "slashUnavailability(address)": {
        "details": "Slashes for unavailability by increasing the counter of block producer `consensusAddr`. Requirements: - The method caller is coinbase. Emits the event `Slashed` when the threshold is reached."
      }
    },
    "version": 1
  },
  "userdoc": {
    "kind": "user",
    "methods": {},
    "version": 1
  },
  "storageLayout": {
    "storage": [
      {
        "astId": 11044,
        "contract": "contracts/ronin/slash-indicator/SlashIndicator.sol:SlashIndicator",
        "label": "______deprecatedValidator",
        "offset": 0,
        "slot": "0",
        "type": "t_address"
      },
      {
        "astId": 9487,
        "contract": "contracts/ronin/slash-indicator/SlashIndicator.sol:SlashIndicator",
        "label": "_slashDoubleSignAmount",
        "offset": 0,
        "slot": "1",
        "type": "t_uint256"
      },
      {
        "astId": 9490,
        "contract": "contracts/ronin/slash-indicator/SlashIndicator.sol:SlashIndicator",
        "label": "_doubleSigningJailUntilBlock",
        "offset": 0,
        "slot": "2",
        "type": "t_uint256"
      },
      {
        "astId": 9493,
        "contract": "contracts/ronin/slash-indicator/SlashIndicator.sol:SlashIndicator",
        "label": "_doubleSigningOffsetLimitBlock",
        "offset": 0,
        "slot": "3",
        "type": "t_uint256"
      },
      {
        "astId": 9498,
        "contract": "contracts/ronin/slash-indicator/SlashIndicator.sol:SlashIndicator",
        "label": "_submittedEvidence",
        "offset": 0,
        "slot": "4",
        "type": "t_mapping(t_bytes32,t_bool)"
      },
      {
        "astId": 9503,
        "contract": "contracts/ronin/slash-indicator/SlashIndicator.sol:SlashIndicator",
        "label": "______gap",
        "offset": 0,
        "slot": "5",
        "type": "t_array(t_uint256)24_storage"
      },
      {
        "astId": 9721,
        "contract": "contracts/ronin/slash-indicator/SlashIndicator.sol:SlashIndicator",
        "label": "_slashFastFinalityAmount",
        "offset": 0,
        "slot": "29",
        "type": "t_uint256"
      },
      {
        "astId": 9724,
        "contract": "contracts/ronin/slash-indicator/SlashIndicator.sol:SlashIndicator",
        "label": "_fastFinalityJailUntilBlock",
        "offset": 0,
        "slot": "30",
        "type": "t_uint256"
      },
      {
        "astId": 9729,
        "contract": "contracts/ronin/slash-indicator/SlashIndicator.sol:SlashIndicator",
        "label": "_processedEvidence",
        "offset": 0,
        "slot": "31",
        "type": "t_mapping(t_bytes32,t_bool)"
      },
      {
        "astId": 9734,
        "contract": "contracts/ronin/slash-indicator/SlashIndicator.sol:SlashIndicator",
        "label": "______gap",
        "offset": 0,
        "slot": "32",
        "type": "t_array(t_uint256)21_storage"
      },
      {
        "astId": 11056,
        "contract": "contracts/ronin/slash-indicator/SlashIndicator.sol:SlashIndicator",
        "label": "______deprecatedTrustedOrg",
        "offset": 0,
        "slot": "53",
        "type": "t_address"
      },
      {
        "astId": 11060,
        "contract": "contracts/ronin/slash-indicator/SlashIndicator.sol:SlashIndicator",
        "label": "______deprecatedGovernanceAdmin",
        "offset": 0,
        "slot": "54",
        "type": "t_address"
      },
      {
        "astId": 9456,
        "contract": "contracts/ronin/slash-indicator/SlashIndicator.sol:SlashIndicator",
        "label": "__deprecatedBridgeVotingSlashed",
        "offset": 0,
        "slot": "55",
        "type": "t_mapping(t_address,t_mapping(t_uint256,t_bool))"
      },
      {
        "astId": 9459,
        "contract": "contracts/ronin/slash-indicator/SlashIndicator.sol:SlashIndicator",
        "label": "__deprecatedBridgeVotingThreshold",
        "offset": 0,
        "slot": "56",
        "type": "t_uint256"
      },
      {
        "astId": 9462,
        "contract": "contracts/ronin/slash-indicator/SlashIndicator.sol:SlashIndicator",
        "label": "__deprecatedBridgeVotingSlashAmount",
        "offset": 0,
        "slot": "57",
        "type": "t_uint256"
      },
      {
        "astId": 9467,
        "contract": "contracts/ronin/slash-indicator/SlashIndicator.sol:SlashIndicator",
        "label": "______gap",
        "offset": 0,
        "slot": "58",
        "type": "t_array(t_uint256)50_storage"
      },
      {
        "astId": 9419,
        "contract": "contracts/ronin/slash-indicator/SlashIndicator.sol:SlashIndicator",
        "label": "____deprecatedMissingVotesRatioTier1",
        "offset": 0,
        "slot": "108",
        "type": "t_uint256"
      },
      {
        "astId": 9422,
        "contract": "contracts/ronin/slash-indicator/SlashIndicator.sol:SlashIndicator",
        "label": "____deprecatedMissingVotesRatioTier2",
        "offset": 0,
        "slot": "109",
        "type": "t_uint256"
      },
      {
        "astId": 9425,
        "contract": "contracts/ronin/slash-indicator/SlashIndicator.sol:SlashIndicator",
        "label": "____deprecatedJailDurationForMissingVotesRatioTier2",
        "offset": 0,
        "slot": "110",
        "type": "t_uint256"
      },
      {
        "astId": 9428,
        "contract": "contracts/ronin/slash-indicator/SlashIndicator.sol:SlashIndicator",
        "label": "____deprecatedSkipBridgeOperatorSlashingThreshold",
        "offset": 0,
        "slot": "111",
        "type": "t_uint256"
      },
      {
        "astId": 9433,
        "contract": "contracts/ronin/slash-indicator/SlashIndicator.sol:SlashIndicator",
        "label": "______gap",
        "offset": 0,
        "slot": "112",
        "type": "t_array(t_uint256)50_storage"
      },
      {
        "astId": 10345,
        "contract": "contracts/ronin/slash-indicator/SlashIndicator.sol:SlashIndicator",
        "label": "_lastUnavailabilitySlashedBlock",
        "offset": 0,
        "slot": "162",
        "type": "t_uint256"
      },
      {
        "astId": 10352,
        "contract": "contracts/ronin/slash-indicator/SlashIndicator.sol:SlashIndicator",
        "label": "_unavailabilityIndicator",
        "offset": 0,
        "slot": "163",
        "type": "t_mapping(t_address,t_mapping(t_uint256,t_uint256))"
      },
      {
        "astId": 10355,
        "contract": "contracts/ronin/slash-indicator/SlashIndicator.sol:SlashIndicator",
        "label": "_unavailabilityTier1Threshold",
        "offset": 0,
        "slot": "164",
        "type": "t_uint256"
      },
      {
        "astId": 10358,
        "contract": "contracts/ronin/slash-indicator/SlashIndicator.sol:SlashIndicator",
        "label": "_unavailabilityTier2Threshold",
        "offset": 0,
        "slot": "165",
        "type": "t_uint256"
      },
      {
        "astId": 10361,
        "contract": "contracts/ronin/slash-indicator/SlashIndicator.sol:SlashIndicator",
        "label": "_slashAmountForUnavailabilityTier2Threshold",
        "offset": 0,
        "slot": "166",
        "type": "t_uint256"
      },
      {
        "astId": 10364,
        "contract": "contracts/ronin/slash-indicator/SlashIndicator.sol:SlashIndicator",
        "label": "_jailDurationForUnavailabilityTier2Threshold",
        "offset": 0,
        "slot": "167",
        "type": "t_uint256"
      },
      {
        "astId": 10369,
        "contract": "contracts/ronin/slash-indicator/SlashIndicator.sol:SlashIndicator",
        "label": "______gap",
        "offset": 0,
        "slot": "168",
        "type": "t_array(t_uint256)50_storage"
      },
      {
        "astId": 11052,
        "contract": "contracts/ronin/slash-indicator/SlashIndicator.sol:SlashIndicator",
        "label": "______deprecatedMaintenance",
        "offset": 0,
        "slot": "218",
        "type": "t_address"
      },
      {
        "astId": 8800,
        "contract": "contracts/ronin/slash-indicator/SlashIndicator.sol:SlashIndicator",
        "label": "_checkBailedOutAtPeriod",
        "offset": 0,
        "slot": "219",
        "type": "t_mapping(t_address,t_mapping(t_uint256,t_bool))"
      },
      {
        "astId": 8805,
        "contract": "contracts/ronin/slash-indicator/SlashIndicator.sol:SlashIndicator",
        "label": "_creditScore",
        "offset": 0,
        "slot": "220",
        "type": "t_mapping(t_address,t_uint256)"
      },
      {
        "astId": 8808,
        "contract": "contracts/ronin/slash-indicator/SlashIndicator.sol:SlashIndicator",
        "label": "_gainCreditScore",
        "offset": 0,
        "slot": "221",
        "type": "t_uint256"
      },
      {
        "astId": 8811,
        "contract": "contracts/ronin/slash-indicator/SlashIndicator.sol:SlashIndicator",
        "label": "_maxCreditScore",
        "offset": 0,
        "slot": "222",
        "type": "t_uint256"
      },
      {
        "astId": 8814,
        "contract": "contracts/ronin/slash-indicator/SlashIndicator.sol:SlashIndicator",
        "label": "_bailOutCostMultiplier",
        "offset": 0,
        "slot": "223",
        "type": "t_uint256"
      },
      {
        "astId": 8817,
        "contract": "contracts/ronin/slash-indicator/SlashIndicator.sol:SlashIndicator",
        "label": "_cutOffPercentageAfterBailout",
        "offset": 0,
        "slot": "224",
        "type": "t_uint256"
      },
      {
        "astId": 8822,
        "contract": "contracts/ronin/slash-indicator/SlashIndicator.sol:SlashIndicator",
        "label": "______gap",
        "offset": 0,
        "slot": "225",
        "type": "t_array(t_uint256)50_storage"
      },
      {
        "astId": 581,
        "contract": "contracts/ronin/slash-indicator/SlashIndicator.sol:SlashIndicator",
        "label": "_initialized",
        "offset": 0,
        "slot": "275",
        "type": "t_uint8"
      },
      {
        "astId": 584,
        "contract": "contracts/ronin/slash-indicator/SlashIndicator.sol:SlashIndicator",
        "label": "_initializing",
        "offset": 1,
        "slot": "275",
        "type": "t_bool"
      }
    ],
    "types": {
      "t_address": {
        "encoding": "inplace",
        "label": "address",
        "numberOfBytes": "20"
      },
      "t_array(t_uint256)21_storage": {
        "base": "t_uint256",
        "encoding": "inplace",
        "label": "uint256[21]",
        "numberOfBytes": "672"
      },
      "t_array(t_uint256)24_storage": {
        "base": "t_uint256",
        "encoding": "inplace",
        "label": "uint256[24]",
        "numberOfBytes": "768"
      },
      "t_array(t_uint256)50_storage": {
        "base": "t_uint256",
        "encoding": "inplace",
        "label": "uint256[50]",
        "numberOfBytes": "1600"
      },
      "t_bool": {
        "encoding": "inplace",
        "label": "bool",
        "numberOfBytes": "1"
      },
      "t_bytes32": {
        "encoding": "inplace",
        "label": "bytes32",
        "numberOfBytes": "32"
      },
      "t_mapping(t_address,t_mapping(t_uint256,t_bool))": {
        "encoding": "mapping",
        "key": "t_address",
        "label": "mapping(address => mapping(uint256 => bool))",
        "numberOfBytes": "32",
        "value": "t_mapping(t_uint256,t_bool)"
      },
      "t_mapping(t_address,t_mapping(t_uint256,t_uint256))": {
        "encoding": "mapping",
        "key": "t_address",
        "label": "mapping(address => mapping(uint256 => uint256))",
        "numberOfBytes": "32",
        "value": "t_mapping(t_uint256,t_uint256)"
      },
      "t_mapping(t_address,t_uint256)": {
        "encoding": "mapping",
        "key": "t_address",
        "label": "mapping(address => uint256)",
        "numberOfBytes": "32",
        "value": "t_uint256"
      },
      "t_mapping(t_bytes32,t_bool)": {
        "encoding": "mapping",
        "key": "t_bytes32",
        "label": "mapping(bytes32 => bool)",
        "numberOfBytes": "32",
        "value": "t_bool"
      },
      "t_mapping(t_uint256,t_bool)": {
        "encoding": "mapping",
        "key": "t_uint256",
        "label": "mapping(uint256 => bool)",
        "numberOfBytes": "32",
        "value": "t_bool"
      },
      "t_mapping(t_uint256,t_uint256)": {
        "encoding": "mapping",
        "key": "t_uint256",
        "label": "mapping(uint256 => uint256)",
        "numberOfBytes": "32",
        "value": "t_uint256"
      },
      "t_uint256": {
        "encoding": "inplace",
        "label": "uint256",
        "numberOfBytes": "32"
      },
      "t_uint8": {
        "encoding": "inplace",
        "label": "uint8",
        "numberOfBytes": "1"
      }
    }
  }
}