{
  "address": "0x5ed68c257c83bBAbB55586C26F3b5c39c3B92729",
  "abi": [
    {
      "inputs": [],
      "stateMutability": "nonpayable",
      "type": "constructor"
    },
    {
      "inputs": [],
      "name": "ErrCallPrecompiled",
      "type": "error"
    },
    {
      "inputs": [],
      "name": "ErrCallerMustBeGovernanceAdminContract",
      "type": "error"
    },
    {
      "inputs": [],
      "name": "ErrCallerMustBeMaintenanceContract",
      "type": "error"
    },
    {
      "inputs": [],
      "name": "ErrCallerMustBeRoninTrustedOrgContract",
      "type": "error"
    },
    {
      "inputs": [],
      "name": "ErrCallerMustBeValidatorContract",
      "type": "error"
    },
    {
      "inputs": [],
      "name": "ErrZeroCodeContract",
      "type": "error"
    },
    {
      "anonymous": false,
      "inputs": [
        {
          "indexed": true,
          "internalType": "address",
          "name": "validator",
          "type": "address"
        },
        {
          "indexed": false,
          "internalType": "uint256",
          "name": "period",
          "type": "uint256"
        },
        {
          "indexed": false,
          "internalType": "uint256",
          "name": "usedCreditScore",
          "type": "uint256"
        }
      ],
      "name": "BailedOut",
      "type": "event"
    },
    {
      "anonymous": false,
      "inputs": [
        {
          "indexed": false,
          "internalType": "uint256",
          "name": "missingVotesRatioTier1",
          "type": "uint256"
        },
        {
          "indexed": false,
          "internalType": "uint256",
          "name": "missingVotesRatioTier2",
          "type": "uint256"
        },
        {
          "indexed": false,
          "internalType": "uint256",
          "name": "jailDurationForMissingVotesRatioTier2",
          "type": "uint256"
        },
        {
          "indexed": false,
          "internalType": "uint256",
          "name": "skipBridgeOperatorSlashingThreshold",
          "type": "uint256"
        }
      ],
      "name": "BridgeOperatorSlashingConfigsUpdated",
      "type": "event"
    },
    {
      "anonymous": false,
      "inputs": [
        {
          "indexed": false,
          "internalType": "uint256",
          "name": "bridgeVotingThreshold",
          "type": "uint256"
        },
        {
          "indexed": false,
          "internalType": "uint256",
          "name": "bridgeVotingSlashAmount",
          "type": "uint256"
        }
      ],
      "name": "BridgeVotingSlashingConfigsUpdated",
      "type": "event"
    },
    {
      "anonymous": false,
      "inputs": [
        {
          "indexed": false,
          "internalType": "uint256",
          "name": "gainCreditScore",
          "type": "uint256"
        },
        {
          "indexed": false,
          "internalType": "uint256",
          "name": "maxCreditScore",
          "type": "uint256"
        },
        {
          "indexed": false,
          "internalType": "uint256",
          "name": "bailOutCostMultiplier",
          "type": "uint256"
        },
        {
          "indexed": false,
          "internalType": "uint256",
          "name": "cutOffPercentageAfterBailout",
          "type": "uint256"
        }
      ],
      "name": "CreditScoreConfigsUpdated",
      "type": "event"
    },
    {
      "anonymous": false,
      "inputs": [
        {
          "indexed": false,
          "internalType": "address[]",
          "name": "validators",
          "type": "address[]"
        },
        {
          "indexed": false,
          "internalType": "uint256[]",
          "name": "creditScores",
          "type": "uint256[]"
        }
      ],
      "name": "CreditScoresUpdated",
      "type": "event"
    },
    {
      "anonymous": false,
      "inputs": [
        {
          "indexed": false,
          "internalType": "uint256",
          "name": "slashDoubleSignAmount",
          "type": "uint256"
        },
        {
          "indexed": false,
          "internalType": "uint256",
          "name": "doubleSigningJailUntilBlock",
          "type": "uint256"
        },
        {
          "indexed": false,
          "internalType": "uint256",
          "name": "doubleSigningOffsetLimitBlock",
          "type": "uint256"
        }
      ],
      "name": "DoubleSignSlashingConfigsUpdated",
      "type": "event"
    },
    {
      "anonymous": false,
      "inputs": [
        {
          "indexed": false,
          "internalType": "uint8",
          "name": "version",
          "type": "uint8"
        }
      ],
      "name": "Initialized",
      "type": "event"
    },
    {
      "anonymous": false,
      "inputs": [
        {
          "indexed": false,
          "internalType": "address",
          "name": "",
          "type": "address"
        }
      ],
      "name": "MaintenanceContractUpdated",
      "type": "event"
    },
    {
      "anonymous": false,
      "inputs": [
        {
          "indexed": false,
          "internalType": "address",
          "name": "",
          "type": "address"
        }
      ],
      "name": "RoninGovernanceAdminContractUpdated",
      "type": "event"
    },
    {
      "anonymous": false,
      "inputs": [
        {
          "indexed": false,
          "internalType": "address",
          "name": "",
          "type": "address"
        }
      ],
      "name": "RoninTrustedOrganizationContractUpdated",
      "type": "event"
    },
    {
      "anonymous": false,
      "inputs": [
        {
          "indexed": true,
          "internalType": "address",
          "name": "validator",
          "type": "address"
        },
        {
          "indexed": false,
          "internalType": "enum IBaseSlash.SlashType",
          "name": "slashType",
          "type": "uint8"
        },
        {
          "indexed": false,
          "internalType": "uint256",
          "name": "period",
          "type": "uint256"
        }
      ],
      "name": "Slashed",
      "type": "event"
    },
    {
      "anonymous": false,
      "inputs": [
        {
          "indexed": false,
          "internalType": "uint256",
          "name": "unavailabilityTier1Threshold",
          "type": "uint256"
        },
        {
          "indexed": false,
          "internalType": "uint256",
          "name": "unavailabilityTier2Threshold",
          "type": "uint256"
        },
        {
          "indexed": false,
          "internalType": "uint256",
          "name": "slashAmountForUnavailabilityTier2Threshold",
          "type": "uint256"
        },
        {
          "indexed": false,
          "internalType": "uint256",
          "name": "jailDurationForUnavailabilityTier2Threshold",
          "type": "uint256"
        }
      ],
      "name": "UnavailabilitySlashingConfigsUpdated",
      "type": "event"
    },
    {
      "anonymous": false,
      "inputs": [
        {
          "indexed": false,
          "internalType": "address",
          "name": "",
          "type": "address"
        }
      ],
      "name": "ValidatorContractUpdated",
      "type": "event"
    },
    {
      "inputs": [
        {
          "internalType": "address",
          "name": "_consensusAddr",
          "type": "address"
        }
      ],
      "name": "bailOut",
      "outputs": [],
      "stateMutability": "nonpayable",
      "type": "function"
    },
    {
      "inputs": [
        {
          "internalType": "address",
          "name": "_validator",
          "type": "address"
        },
        {
          "internalType": "uint256",
          "name": "_period",
          "type": "uint256"
        }
      ],
      "name": "checkBailedOutAtPeriod",
      "outputs": [
        {
          "internalType": "bool",
          "name": "",
          "type": "bool"
        }
      ],
      "stateMutability": "view",
      "type": "function"
    },
    {
      "inputs": [
        {
          "internalType": "address",
          "name": "_validator",
          "type": "address"
        }
      ],
      "name": "currentUnavailabilityIndicator",
      "outputs": [
        {
          "internalType": "uint256",
          "name": "",
          "type": "uint256"
        }
      ],
      "stateMutability": "view",
      "type": "function"
    },
    {
      "inputs": [
        {
          "internalType": "address[]",
          "name": "_validators",
          "type": "address[]"
        }
      ],
      "name": "execResetCreditScores",
      "outputs": [],
      "stateMutability": "nonpayable",
      "type": "function"
    },
    {
      "inputs": [
        {
          "internalType": "address",
          "name": "_consensusAddr",
          "type": "address"
        },
        {
          "internalType": "uint256",
          "name": "_tier",
          "type": "uint256"
        },
        {
          "internalType": "uint256",
          "name": "_period",
          "type": "uint256"
        }
      ],
      "name": "execSlashBridgeOperator",
      "outputs": [],
      "stateMutability": "nonpayable",
      "type": "function"
    },
    {
      "inputs": [],
      "name": "getBridgeOperatorSlashingConfigs",
      "outputs": [
        {
          "internalType": "uint256",
          "name": "missingVotesRatioTier1_",
          "type": "uint256"
        },
        {
          "internalType": "uint256",
          "name": "missingVotesRatioTier2_",
          "type": "uint256"
        },
        {
          "internalType": "uint256",
          "name": "jailDurationForMissingVotesRatioTier2_",
          "type": "uint256"
        },
        {
          "internalType": "uint256",
          "name": "skipBridgeOperatorSlashingThreshold_",
          "type": "uint256"
        }
      ],
      "stateMutability": "view",
      "type": "function"
    },
    {
      "inputs": [],
      "name": "getBridgeVotingSlashingConfigs",
      "outputs": [
        {
          "internalType": "uint256",
          "name": "bridgeVotingThreshold_",
          "type": "uint256"
        },
        {
          "internalType": "uint256",
          "name": "bridgeVotingSlashAmount_",
          "type": "uint256"
        }
      ],
      "stateMutability": "view",
      "type": "function"
    },
    {
      "inputs": [
        {
          "internalType": "address",
          "name": "_validator",
          "type": "address"
        }
      ],
      "name": "getCreditScore",
      "outputs": [
        {
          "internalType": "uint256",
          "name": "",
          "type": "uint256"
        }
      ],
      "stateMutability": "view",
      "type": "function"
    },
    {
      "inputs": [],
      "name": "getCreditScoreConfigs",
      "outputs": [
        {
          "internalType": "uint256",
          "name": "gainCreditScore_",
          "type": "uint256"
        },
        {
          "internalType": "uint256",
          "name": "maxCreditScore_",
          "type": "uint256"
        },
        {
          "internalType": "uint256",
          "name": "bailOutCostMultiplier_",
          "type": "uint256"
        },
        {
          "internalType": "uint256",
          "name": "cutOffPercentageAfterBailout_",
          "type": "uint256"
        }
      ],
      "stateMutability": "view",
      "type": "function"
    },
    {
      "inputs": [],
      "name": "getDoubleSignSlashingConfigs",
      "outputs": [
        {
          "internalType": "uint256",
          "name": "slashDoubleSignAmount_",
          "type": "uint256"
        },
        {
          "internalType": "uint256",
          "name": "doubleSigningJailUntilBlock_",
          "type": "uint256"
        },
        {
          "internalType": "uint256",
          "name": "doubleSigningOffsetLimitBlock_",
          "type": "uint256"
        }
      ],
      "stateMutability": "view",
      "type": "function"
    },
    {
      "inputs": [
        {
          "internalType": "address[]",
          "name": "_validators",
          "type": "address[]"
        }
      ],
      "name": "getManyCreditScores",
      "outputs": [
        {
          "internalType": "uint256[]",
          "name": "_resultList",
          "type": "uint256[]"
        }
      ],
      "stateMutability": "view",
      "type": "function"
    },
    {
      "inputs": [
        {
          "internalType": "address",
          "name": "_validator",
          "type": "address"
        },
        {
          "internalType": "uint256",
          "name": "_period",
          "type": "uint256"
        }
      ],
      "name": "getUnavailabilityIndicator",
      "outputs": [
        {
          "internalType": "uint256",
          "name": "",
          "type": "uint256"
        }
      ],
      "stateMutability": "view",
      "type": "function"
    },
    {
      "inputs": [],
      "name": "getUnavailabilitySlashingConfigs",
      "outputs": [
        {
          "internalType": "uint256",
          "name": "unavailabilityTier1Threshold_",
          "type": "uint256"
        },
        {
          "internalType": "uint256",
          "name": "unavailabilityTier2Threshold_",
          "type": "uint256"
        },
        {
          "internalType": "uint256",
          "name": "slashAmountForUnavailabilityTier2Threshold_",
          "type": "uint256"
        },
        {
          "internalType": "uint256",
          "name": "jailDurationForUnavailabilityTier2Threshold_",
          "type": "uint256"
        }
      ],
      "stateMutability": "view",
      "type": "function"
    },
    {
      "inputs": [
        {
          "internalType": "address",
          "name": "__validatorContract",
          "type": "address"
        },
        {
          "internalType": "address",
          "name": "__maintenanceContract",
          "type": "address"
        },
        {
          "internalType": "address",
          "name": "__roninTrustedOrganizationContract",
          "type": "address"
        },
        {
          "internalType": "address",
          "name": "__roninGovernanceAdminContract",
          "type": "address"
        },
        {
          "internalType": "uint256[4]",
          "name": "_bridgeOperatorSlashingConfigs",
          "type": "uint256[4]"
        },
        {
          "internalType": "uint256[2]",
          "name": "_bridgeVotingSlashingConfigs",
          "type": "uint256[2]"
        },
        {
          "internalType": "uint256[3]",
          "name": "_doubleSignSlashingConfigs",
          "type": "uint256[3]"
        },
        {
          "internalType": "uint256[4]",
          "name": "_unavailabilitySlashingConfigs",
          "type": "uint256[4]"
        },
        {
          "internalType": "uint256[4]",
          "name": "_creditScoreConfigs",
          "type": "uint256[4]"
        }
      ],
      "name": "initialize",
      "outputs": [],
      "stateMutability": "nonpayable",
      "type": "function"
    },
    {
      "inputs": [],
      "name": "lastUnavailabilitySlashedBlock",
      "outputs": [
        {
          "internalType": "uint256",
          "name": "",
          "type": "uint256"
        }
      ],
      "stateMutability": "view",
      "type": "function"
    },
    {
      "inputs": [],
      "name": "maintenanceContract",
      "outputs": [
        {
          "internalType": "address",
          "name": "",
          "type": "address"
        }
      ],
      "stateMutability": "view",
      "type": "function"
    },
    {
      "inputs": [],
      "name": "precompileValidateDoubleSignAddress",
      "outputs": [
        {
          "internalType": "address",
          "name": "",
          "type": "address"
        }
      ],
      "stateMutability": "view",
      "type": "function"
    },
    {
      "inputs": [],
      "name": "roninGovernanceAdminContract",
      "outputs": [
        {
          "internalType": "address",
          "name": "",
          "type": "address"
        }
      ],
      "stateMutability": "view",
      "type": "function"
    },
    {
      "inputs": [],
      "name": "roninTrustedOrganizationContract",
      "outputs": [
        {
          "internalType": "address",
          "name": "",
          "type": "address"
        }
      ],
      "stateMutability": "view",
      "type": "function"
    },
    {
      "inputs": [
        {
          "internalType": "uint256",
          "name": "_ratioTier1",
          "type": "uint256"
        },
        {
          "internalType": "uint256",
          "name": "_ratioTier2",
          "type": "uint256"
        },
        {
          "internalType": "uint256",
          "name": "_jailDurationTier2",
          "type": "uint256"
        },
        {
          "internalType": "uint256",
          "name": "_skipSlashingThreshold",
          "type": "uint256"
        }
      ],
      "name": "setBridgeOperatorSlashingConfigs",
      "outputs": [],
      "stateMutability": "nonpayable",
      "type": "function"
    },
    {
      "inputs": [
        {
          "internalType": "uint256",
          "name": "_threshold",
          "type": "uint256"
        },
        {
          "internalType": "uint256",
          "name": "_slashAmount",
          "type": "uint256"
        }
      ],
      "name": "setBridgeVotingSlashingConfigs",
      "outputs": [],
      "stateMutability": "nonpayable",
      "type": "function"
    },
    {
      "inputs": [
        {
          "internalType": "uint256",
          "name": "_gainScore",
          "type": "uint256"
        },
        {
          "internalType": "uint256",
          "name": "_maxScore",
          "type": "uint256"
        },
        {
          "internalType": "uint256",
          "name": "_bailOutMultiplier",
          "type": "uint256"
        },
        {
          "internalType": "uint256",
          "name": "_cutOffPercentage",
          "type": "uint256"
        }
      ],
      "name": "setCreditScoreConfigs",
      "outputs": [],
      "stateMutability": "nonpayable",
      "type": "function"
    },
    {
      "inputs": [
        {
          "internalType": "uint256",
          "name": "_slashAmount",
          "type": "uint256"
        },
        {
          "internalType": "uint256",
          "name": "_jailUntilBlock",
          "type": "uint256"
        },
        {
          "internalType": "uint256",
          "name": "_offsetLimitBlock",
          "type": "uint256"
        }
      ],
      "name": "setDoubleSignSlashingConfigs",
      "outputs": [],
      "stateMutability": "nonpayable",
      "type": "function"
    },
    {
      "inputs": [
        {
          "internalType": "address",
          "name": "_addr",
          "type": "address"
        }
      ],
      "name": "setMaintenanceContract",
      "outputs": [],
      "stateMutability": "nonpayable",
      "type": "function"
    },
    {
      "inputs": [
        {
          "internalType": "address",
          "name": "_addr",
          "type": "address"
        }
      ],
      "name": "setRoninGovernanceAdminContract",
      "outputs": [],
      "stateMutability": "nonpayable",
      "type": "function"
    },
    {
      "inputs": [
        {
          "internalType": "address",
          "name": "_addr",
          "type": "address"
        }
      ],
      "name": "setRoninTrustedOrganizationContract",
      "outputs": [],
      "stateMutability": "nonpayable",
      "type": "function"
    },
    {
      "inputs": [
        {
          "internalType": "uint256",
          "name": "_tier1Threshold",
          "type": "uint256"
        },
        {
          "internalType": "uint256",
          "name": "_tier2Threshold",
          "type": "uint256"
        },
        {
          "internalType": "uint256",
          "name": "_slashAmountForTier2Threshold",
          "type": "uint256"
        },
        {
          "internalType": "uint256",
          "name": "_jailDurationForTier2Threshold",
          "type": "uint256"
        }
      ],
      "name": "setUnavailabilitySlashingConfigs",
      "outputs": [],
      "stateMutability": "nonpayable",
      "type": "function"
    },
    {
      "inputs": [
        {
          "internalType": "address",
          "name": "_addr",
          "type": "address"
        }
      ],
      "name": "setValidatorContract",
      "outputs": [],
      "stateMutability": "nonpayable",
      "type": "function"
    },
    {
      "inputs": [
        {
          "internalType": "address",
          "name": "_consensusAddr",
          "type": "address"
        }
      ],
      "name": "slashBridgeVoting",
      "outputs": [],
      "stateMutability": "nonpayable",
      "type": "function"
    },
    {
      "inputs": [
        {
          "internalType": "address",
          "name": "_consensusAddr",
          "type": "address"
        },
        {
          "internalType": "bytes",
          "name": "_header1",
          "type": "bytes"
        },
        {
          "internalType": "bytes",
          "name": "_header2",
          "type": "bytes"
        }
      ],
      "name": "slashDoubleSign",
      "outputs": [],
      "stateMutability": "nonpayable",
      "type": "function"
    },
    {
      "inputs": [
        {
          "internalType": "address",
          "name": "_validatorAddr",
          "type": "address"
        }
      ],
      "name": "slashUnavailability",
      "outputs": [],
      "stateMutability": "nonpayable",
      "type": "function"
    },
    {
      "inputs": [
        {
          "internalType": "address[]",
          "name": "_validators",
          "type": "address[]"
        },
        {
          "internalType": "uint256",
          "name": "_period",
          "type": "uint256"
        }
      ],
      "name": "updateCreditScores",
      "outputs": [],
      "stateMutability": "nonpayable",
      "type": "function"
    },
    {
      "inputs": [],
      "name": "validatorContract",
      "outputs": [
        {
          "internalType": "address",
          "name": "",
          "type": "address"
        }
      ],
      "stateMutability": "view",
      "type": "function"
    }
  ],
  "transactionHash": "0xce53ae77397dc6b42182315659624fc31c96dcaf5d8eb8d6ccf1dbf75d8a4a92",
  "args": [],
  "numDeployments": 5,
  "solcInputHash": "3c352db0d062e062f7c0c18610e9070b",
  "bytecode": "0x60806040523480156200001157600080fd5b506200001c62000022565b620000e7565b61011354610100900460ff1615620000905760405162461bcd60e51b815260206004820152602760248201527f496e697469616c697a61626c653a20636f6e747261637420697320696e697469604482015266616c697a696e6760c81b606482015260840160405180910390fd5b6101135460ff9081161015620000e557610113805460ff191660ff9081179091556040519081527f7f26b83ff96e1f2b6a682f133852f6798a09c465da95921460cefb38474024989060200160405180910390a15b565b612e1780620000f76000396000f3fe608060405234801561001057600080fd5b50600436106101fb5760003560e01c8063994390891161011a578063d1737e27116100ad578063d73e81b81161007c578063d73e81b81461046d578063df4b6ee014610480578063f1001e78146104a4578063f562b3c4146104c4578063fd422cd0146104cd57600080fd5b8063d1737e271461040d578063d1f992f714610420578063d2cb215e14610433578063d3dd2bdf1461044457600080fd5b8063c6391fa2116100e9578063c6391fa2146103c3578063ccbb72ed146103d4578063cdf64a76146103e7578063cf39d13c146103fa57600080fd5b80639943908914610371578063b5e337de14610382578063c008ce3914610395578063c2e524dc146103a857600080fd5b80633d48fd7d116101925780637680850c116101615780637680850c146103315780637c2b55a014610344578063853af1b71461034b57806399103f7b1461035e57600080fd5b80633d48fd7d146102e957806346fe9311146102fa5780635511cde11461030d57806362ffe6cb1461031e57600080fd5b80631a697341116101ce5780631a6973411461027b5780631e90b2a01461028e57806323368e47146102a157806329ddc3c0146102c657600080fd5b806307c2d2f614610200578063082e7420146102155780630e1512ac1461023b5780631079402a1461024e575b600080fd5b61021361020e36600461260c565b6104e0565b005b610228610223366004612663565b610626565b6040519081526020015b60405180910390f35b610213610249366004612680565b6106a7565b606d54606e54606f546070545b604080519485526020850193909352918301526060820152608001610232565b610213610289366004612663565b6106fa565b61021361029c3660046126f4565b610977565b6036546001600160a01b03165b6040516001600160a01b039091168152602001610232565b6102d96102d4366004612777565b610bdc565b6040519015158152602001610232565b60a55460a65460a75460a85461025b565b610213610308366004612663565b610c0b565b6035546001600160a01b03166102ae565b61022861032c366004612777565b610c7a565b61021361033f3660046127a3565b610ca3565b60676102ae565b6102136103593660046127ef565b611001565b61021361036c366004612822565b611047565b6000546001600160a01b03166102ae565b610213610390366004612663565b6111f1565b6102136103a33660046128e6565b61125d565b60385460395460408051928352602083019190915201610232565b60dd5460de5460df5460e05461025b565b6102136103e2366004612680565b61130d565b6102136103f5366004612663565b611351565b61021361040836600461291b565b6113bd565b61021361041b366004612680565b611400565b61021361042e366004612663565b611444565b606c546001600160a01b03166102ae565b610228610452366004612663565b6001600160a01b0316600090815260dc602052604090205490565b61021361047b366004612663565b6119b9565b60015460025460035460408051938452602084019290925290820152606001610232565b6104b76104b236600461260c565b611a25565b6040516102329190612982565b61022860a35481565b6102136104db366004612663565b611afa565b336104f36000546001600160a01b031690565b6001600160a01b03161461051a57604051630e6444a160e31b815260040160405180910390fd5b60008167ffffffffffffffff81111561053557610535612995565b60405190808252806020026020018201604052801561055e578160200160208202803683370190505b50905060005b828110156105e5576000848483818110610580576105806129ab565b90506020020160208101906105959190612663565b6001600160a01b038116600090815260dc602052604081205583519091508390839081106105c5576105c56129ab565b6020026020010160008152505080806105dd906129d7565b915050610564565b507f8c02b2ccee964dc50649a48bd0a0446f0f9e88ecdb72d099f4ace07c39c2348083838360405161061993929190612a2e565b60405180910390a1505050565b60006106a18260008054906101000a90046001600160a01b03166001600160a01b031663060406186040518163ffffffff1660e01b8152600401602060405180830381865afa15801561067d573d6000803e3d6000fd5b505050506040513d601f19601f8201168201806040525081019061032c9190612a5e565b92915050565b6106af611eea565b6001600160a01b0316336001600160a01b0316146106e85760405162461bcd60e51b81526004016106df90612a77565b60405180910390fd5b6106f484848484611f18565b50505050565b603554604051636db349d160e11b81526001600160a01b038381166004830152600092169063db6693a29060240160a060405180830381865afa158015610745573d6000803e3d6000fd5b505050506040513d601f19601f820116820180604052508101906107699190612aea565b6036546040828101519051632623bd4f60e21b81526001600160a01b0391821660048201529293506000926107f192919091169063988ef53c90602401602060405180830381865afa1580156107c3573d6000803e3d6000fd5b505050506040513d601f19601f820116820180604052508101906107e79190612a5e565b8360800151611fe7565b905060008060009054906101000a90046001600160a01b03166001600160a01b031663060406186040518163ffffffff1660e01b8152600401602060405180830381865afa158015610847573d6000803e3d6000fd5b505050506040513d601f19601f8201168201806040525081019061086b9190612a5e565b60385490915061087b8343612b72565b1180156108ac57506001600160a01b038416600090815260376020908152604080832084845290915290205460ff16155b156106f4576001600160a01b038416600081815260376020908152604080832085845290915290819020805460ff1916600117905551600080516020612dc283398151915290610900906004908590612b85565b60405180910390a260008054603954604051630bde081360e21b81526001600160a01b0390921692632f78204c9261093f928992918290600401612bb1565b600060405180830381600087803b15801561095957600080fd5b505af115801561096d573d6000803e3d6000fd5b5050505050505050565b61097f611eea565b6001600160a01b0316336001600160a01b0316146109af5760405162461bcd60e51b81526004016106df90612a77565b600084846040516109c1929190612bd9565b60405180910390209050600083836040516109dd929190612bd9565b604080519182900390912060008481526004602052919091205490915060ff16158015610a19575060008181526004602052604090205460ff16155b610a795760405162461bcd60e51b815260206004820152602b60248201527f536c617368446f75626c655369676e3a2065766964656e636520616c7265616460448201526a1e481cdd589b5a5d1d195960aa1b60648201526084016106df565b610a868787878787611ffe565b15610bd35760008060009054906101000a90046001600160a01b03166001600160a01b031663060406186040518163ffffffff1660e01b8152600401602060405180830381865afa158015610adf573d6000803e3d6000fd5b505050506040513d601f19601f82011682018060405250810190610b039190612a5e565b6000848152600460205260408082208054600160ff19918216811790925586845292829020805490931617909155519091506001600160a01b03891690600080516020612dc283398151915290610b5e906003908590612b85565b60405180910390a260005460025460018054604051630bde081360e21b81526001600160a01b0390941693632f78204c93610b9f938e939192600401612bb1565b600060405180830381600087803b158015610bb957600080fd5b505af1158015610bcd573d6000803e3d6000fd5b50505050505b50505050505050565b6001600160a01b038216600090815260db6020908152604080832084845290915281205460ff165b9392505050565b610c13611eea565b6001600160a01b0316336001600160a01b031614610c435760405162461bcd60e51b81526004016106df90612a77565b806001600160a01b03163b600003610c6e57604051637bcd509160e01b815260040160405180910390fd5b610c77816120a8565b50565b6001600160a01b038216600090815260a460209081526040808320848452909152812054610c04565b33610cb66000546001600160a01b031690565b6001600160a01b031614610cdd57604051630e6444a160e31b815260040160405180910390fd5b60008060009054906101000a90046001600160a01b03166001600160a01b031663297a8fca6040518163ffffffff1660e01b8152600401602060405180830381865afa158015610d31573d6000803e3d6000fd5b505050506040513d601f19601f82011682018060405250810190610d559190612a5e565b60008054604051634de2b73560e01b815292935090916001600160a01b0390911690634de2b73590610d8d9088908890600401612be9565b600060405180830381865afa158015610daa573d6000803e3d6000fd5b505050506040513d6000823e601f3d908101601f19168201604052610dd29190810190612c12565b606c5460405163ba30375560e01b81529192506000916001600160a01b039091169063ba30375590610e0e908990899088904390600401612cbf565b600060405180830381865afa158015610e2b573d6000803e3d6000fd5b505050506040513d6000823e601f3d908101601f19168201604052610e539190810190612c12565b905060008567ffffffffffffffff811115610e7057610e70612995565b604051908082528060200260200182016040528015610e99578160200160208202803683370190505b50905060005b86811015610fbc576000888883818110610ebb57610ebb6129ab565b9050602002016020810190610ed09190612663565b90506000610ede8289610c7a565b90506000868481518110610ef457610ef46129ab565b602002602001015190506000868581518110610f1257610f126129ab565b6020026020010151905060008280610f275750815b610f3c57610f3760dd54856120fd565b610f3f565b60005b6001600160a01b038616600090815260dc602052604090205460de54919250610f69918390612113565b6001600160a01b038616600090815260dc602052604090208190558751889088908110610f9857610f986129ab565b60200260200101818152505050505050508080610fb4906129d7565b915050610e9f565b507f8c02b2ccee964dc50649a48bd0a0446f0f9e88ecdb72d099f4ace07c39c23480878783604051610ff093929190612a2e565b60405180910390a150505050505050565b611009611eea565b6001600160a01b0316336001600160a01b0316146110395760405162461bcd60e51b81526004016106df90612a77565b6110438282612130565b5050565b61011354610100900460ff1615808015611069575061011354600160ff909116105b806110845750303b15801561108457506101135460ff166001145b6110e75760405162461bcd60e51b815260206004820152602e60248201527f496e697469616c697a61626c653a20636f6e747261637420697320616c72656160448201526d191e481a5b9a5d1a585b1a5e995960921b60648201526084016106df565b610113805460ff19166001179055801561110c57610113805461ff0019166101001790555b6111158a612177565b61111e896120a8565b611127886121c5565b61113087612213565b61114986356020880135604089013560608a0135611f18565b61115885356020870135612130565b61116c843560208601356040870135612261565b61118583356020850135604086013560608701356122ae565b61119e823560208401356040850135606086013561236a565b80156111e557610113805461ff0019169055604051600181527f7f26b83ff96e1f2b6a682f133852f6798a09c465da95921460cefb38474024989060200160405180910390a15b50505050505050505050565b6111f9611eea565b6001600160a01b0316336001600160a01b0316146112295760405162461bcd60e51b81526004016106df90612a77565b806001600160a01b03163b60000361125457604051637bcd509160e01b815260040160405180910390fd5b610c77816121c5565b336112706000546001600160a01b031690565b6001600160a01b03161461129757604051630e6444a160e31b815260040160405180910390fd5b816001036112d657826001600160a01b0316600080516020612dc28339815191526005836040516112c9929190612b85565b60405180910390a2505050565b8160020361130857826001600160a01b0316600080516020612dc28339815191526006836040516112c9929190612b85565b505050565b611315611eea565b6001600160a01b0316336001600160a01b0316146113455760405162461bcd60e51b81526004016106df90612a77565b6106f48484848461236a565b611359611eea565b6001600160a01b0316336001600160a01b0316146113895760405162461bcd60e51b81526004016106df90612a77565b806001600160a01b03163b6000036113b457604051637bcd509160e01b815260040160405180910390fd5b610c7781612177565b6113c5611eea565b6001600160a01b0316336001600160a01b0316146113f55760405162461bcd60e51b81526004016106df90612a77565b611308838383612261565b611408611eea565b6001600160a01b0316336001600160a01b0316146114385760405162461bcd60e51b81526004016106df90612a77565b6106f4848484846122ae565b600054604051635061f96960e11b81526001600160a01b0383811660048301529091169063a0c3f2d290602401602060405180830381865afa15801561148e573d6000803e3d6000fd5b505050506040513d601f19601f820116820180604052508101906114b29190612ce6565b6115245760405162461bcd60e51b815260206004820152603f60248201527f536c617368496e64696361746f723a20636f6e73656e7375732061646472657360448201527f73206d75737420626520612076616c696461746f722063616e6469646174650060648201526084016106df565b6000546040516304d971ab60e01b81526001600160a01b038381166004830152336024830152909116906304d971ab90604401602060405180830381865afa158015611574573d6000803e3d6000fd5b505050506040513d601f19601f820116820180604052508101906115989190612ce6565b61160a5760405162461bcd60e51b815260206004820152603760248201527f536c617368496e64696361746f723a206d6574686f642063616c6c6572206d7560448201527f737420626520612063616e6469646174652061646d696e00000000000000000060648201526084016106df565b60008054604051634b2c2fe160e11b81526001600160a01b038481166004830152839216906396585fc290602401606060405180830381865afa158015611655573d6000803e3d6000fd5b505050506040513d601f19601f820116820180604052508101906116799190612d01565b9250509150816116f15760405162461bcd60e51b815260206004820152603b60248201527f536c617368496e64696361746f723a2063616c6c6572206d757374206265206a60448201527f61696c656420696e207468652063757272656e7420706572696f64000000000060648201526084016106df565b60008060009054906101000a90046001600160a01b03166001600160a01b031663060406186040518163ffffffff1660e01b8152600401602060405180830381865afa158015611745573d6000803e3d6000fd5b505050506040513d601f19601f820116820180604052508101906117699190612a5e565b6001600160a01b038516600090815260db6020908152604080832084845290915290205490915060ff16156117fc5760405162461bcd60e51b815260206004820152603360248201527f536c617368496e64696361746f723a2076616c696461746f7220686173206261604482015272696c6564206f75742070726576696f75736c7960681b60648201526084016106df565b6001600160a01b038416600090815260dc602052604081205460df549091906118259085612d36565b9050808210156118955760405162461bcd60e51b815260206004820152603560248201527f536c617368496e64696361746f723a20696e73756666696369656e7420637265604482015274191a5d081cd8dbdc99481d1bc818985a5b081bdd5d605a1b60648201526084016106df565b600054604051630adaf5ef60e11b81526001600160a01b03888116600483015260248201869052909116906315b5ebde90604401600060405180830381600087803b1580156118e357600080fd5b505af11580156118f7573d6000803e3d6000fd5b505050506001600160a01b038616600090815260dc602052604081208054839290611923908490612b72565b90915550506001600160a01b038616600090815260a4602090815260408083208684529091528120556001600160a01b038616600081815260db60209081526040808320878452825291829020805460ff1916600117905581518681529081018490527f7ff9f7032d565c7e8919332964b2faa33c320b53604a65d9dd1f8112e12cd39d910160405180910390a2505050505050565b6119c1611eea565b6001600160a01b0316336001600160a01b0316146119f15760405162461bcd60e51b81526004016106df90612a77565b806001600160a01b03163b600003611a1c57604051637bcd509160e01b815260040160405180910390fd5b610c7781612213565b60608167ffffffffffffffff811115611a4057611a40612995565b604051908082528060200260200182016040528015611a69578160200160208202803683370190505b50905060005b8151811015611af35760dc6000858584818110611a8e57611a8e6129ab565b9050602002016020810190611aa39190612663565b6001600160a01b03166001600160a01b0316815260200190815260200160002054828281518110611ad657611ad66129ab565b602090810291909101015280611aeb816129d7565b915050611a6f565b5092915050565b60a3544311611b975760405162461bcd60e51b815260206004820152605c60248201527f536c617368496e64696361746f723a2063616e6e6f7420736c6173682061207660448201527f616c696461746f72207477696365206f7220736c617368206d6f72652074686160648201527f6e206f6e652076616c696461746f7220696e206f6e6520626c6f636b00000000608482015260a4016106df565b4360a355334114611c065760405162461bcd60e51b815260206004820152603360248201527f536c617368556e617661696c6162696c6974793a206d6574686f642063616c6c6044820152726572206d75737420626520636f696e6261736560681b60648201526084016106df565b611c0f8161248d565b15610c775760008060009054906101000a90046001600160a01b03166001600160a01b031663060406186040518163ffffffff1660e01b8152600401602060405180830381865afa158015611c68573d6000803e3d6000fd5b505050506040513d601f19601f82011682018060405250810190611c8c9190612a5e565b6001600160a01b038316600090815260a4602090815260408083208484529091528120805492935090918290611cc1906129d7565b919050819055905060a6548103611d7a57826001600160a01b0316600080516020612dc2833981519152600284604051611cfc929190612b85565b60405180910390a260005460a8546001600160a01b0390911690632f78204c908590611d289043612d4d565b60a75460006040518563ffffffff1660e01b8152600401611d4c9493929190612bb1565b600060405180830381600087803b158015611d6657600080fd5b505af1158015610bd3573d6000803e3d6000fd5b60a5548103611308576000611d8f8484610bdc565b905080611e3457836001600160a01b0316600080516020612dc2833981519152600185604051611dc0929190612b85565b60405180910390a260008054604051630bde081360e21b81526001600160a01b0390911691632f78204c91611dfd91889181908190600401612bb1565b600060405180830381600087803b158015611e1757600080fd5b505af1158015611e2b573d6000803e3d6000fd5b505050506106f4565b836001600160a01b0316600080516020612dc2833981519152600785604051611e5e929190612b85565b60405180910390a2600060a85443611e769190612d4d565b60005460a754604051630bde081360e21b81529293506001600160a01b0390911691632f78204c91611eb19189918691600190600401612bb1565b600060405180830381600087803b158015611ecb57600080fd5b505af1158015611edf573d6000803e3d6000fd5b505050505050505050565b7fb53127684a568b3173ae13b9f8a6016e243e63b6e8ee1178d6a717850b5d6103546001600160a01b031690565b828411158015611f2a57506127108411155b8015611f3857506127108311155b611f845760405162461bcd60e51b815260206004820152601e60248201527f536c617368496e64696361746f723a20696e76616c696420726174696f73000060448201526064016106df565b606d849055606e839055606f82905560708190556040805185815260208101859052908101839052606081018290527fd24c671da2227c139fe1a5b34de15e5a67bef9b46e912916b9e0d025d51b3e3b906080015b60405180910390a150505050565b600081831015611ff75781610c04565b5090919050565b6040516000906067906001908390612022908a908a908a908a908a90602401612d89565b60408051601f198184030181529190526020810180516001600160e01b0316637fc3567760e01b17905280519091506120596125a2565b602083016020828483895afa61206e57600094505b503d61207957600093505b8361209757604051630fc2632160e01b815260040160405180910390fd5b5115159a9950505050505050505050565b606c80546001600160a01b0319166001600160a01b0383169081179091556040519081527f31a33f126a5bae3c5bdf6cfc2cd6dcfffe2fe9634bdb09e21c44762993889e3b906020015b60405180910390a150565b60006121098383612593565b610c049084612b72565b60006121286121228486612d4d565b83612593565b949350505050565b6038829055603981905560408051838152602081018390527fbda9ec2980d7468ba6a9f363696315affca9f9770016396bdea2ac39c3e5d61a910160405180910390a15050565b600080546001600160a01b0319166001600160a01b0383169081179091556040519081527fef40dc07567635f84f5edbd2f8dbc16b40d9d282dd8e7e6f4ff58236b6836169906020016120f2565b603580546001600160a01b0319166001600160a01b0383169081179091556040519081527ffd6f5f93d69a07c593a09be0b208bff13ab4ffd6017df3b33433d63bdc59b4d7906020016120f2565b603680546001600160a01b0319166001600160a01b0383169081179091556040519081527f9125df97e014f5cc4f107fd784acd35e8e2188ca7c2a0f7caa478365747c1c83906020016120f2565b60018390556002829055600381905560408051848152602081018490529081018290527f913da102149f952dde560cef3349db8e8002e9d580c41a7551d6d45329f4306b90606001610619565b60a65460a55411156123115760405162461bcd60e51b815260206004820152602660248201527f536c617368556e617661696c6162696c6974793a20696e76616c696420746872604482015265195cda1bdb1960d21b60648201526084016106df565b60a584905560a683905560a782905560a88190556040805185815260208101859052908101839052606081018290527f442862e6143ad95854e7c13ff4947ec6e43bc87160e3b193e7c1abaf6e3aaa9890608001611fd9565b828411156123cb5760405162461bcd60e51b815260206004820152602860248201527f43726564697453636f72653a20696e76616c6964206372656469742073636f726044820152676520636f6e66696760c01b60648201526084016106df565b6127108111156124345760405162461bcd60e51b815260206004820152602e60248201527f43726564697453636f72653a20696e76616c696420637574206f66662070657260448201526d63656e7461676520636f6e66696760901b60648201526084016106df565b60dd84905560de83905560df82905560e08190556040805185815260208101859052908101839052606081018290527fe1f9c6c73554b5fa140eead3cfd4ec3e6d4824f3ed26fb25e38376f65b95470b90608001611fd9565b6000336001600160a01b038316148015906125115750600054604051633292276760e11b81526001600160a01b038481166004830152909116906365244ece90602401602060405180830381865afa1580156124ed573d6000803e3d6000fd5b505050506040513d601f19601f820116820180604052508101906125119190612ce6565b80156106a15750606c54604051630fbeb37f60e01b81526001600160a01b03848116600483015243602483015290911690630fbeb37f90604401602060405180830381865afa158015612568573d6000803e3d6000fd5b505050506040513d601f19601f8201168201806040525081019061258c9190612ce6565b1592915050565b6000818310611ff75781610c04565b60405180602001604052806001906020820280368337509192915050565b60008083601f8401126125d257600080fd5b50813567ffffffffffffffff8111156125ea57600080fd5b6020830191508360208260051b850101111561260557600080fd5b9250929050565b6000806020838503121561261f57600080fd5b823567ffffffffffffffff81111561263657600080fd5b612642858286016125c0565b90969095509350505050565b6001600160a01b0381168114610c7757600080fd5b60006020828403121561267557600080fd5b8135610c048161264e565b6000806000806080858703121561269657600080fd5b5050823594602084013594506040840135936060013592509050565b60008083601f8401126126c457600080fd5b50813567ffffffffffffffff8111156126dc57600080fd5b60208301915083602082850101111561260557600080fd5b60008060008060006060868803121561270c57600080fd5b85356127178161264e565b9450602086013567ffffffffffffffff8082111561273457600080fd5b61274089838a016126b2565b9096509450604088013591508082111561275957600080fd5b50612766888289016126b2565b969995985093965092949392505050565b6000806040838503121561278a57600080fd5b82356127958161264e565b946020939093013593505050565b6000806000604084860312156127b857600080fd5b833567ffffffffffffffff8111156127cf57600080fd5b6127db868287016125c0565b909790965060209590950135949350505050565b6000806040838503121561280257600080fd5b50508035926020909101359150565b80608081018310156106a157600080fd5b60008060008060008060008060006102a08a8c03121561284157600080fd5b893561284c8161264e565b985060208a013561285c8161264e565b975060408a013561286c8161264e565b965060608a013561287c8161264e565b955061288b8b60808c01612811565b94506101408a018b81111561289f57600080fd5b6101008b0194506101a08b018c8111156128b857600080fd5b8194506128c58d82612811565b935050506128d78b6102208c01612811565b90509295985092959850929598565b6000806000606084860312156128fb57600080fd5b83356129068161264e565b95602085013595506040909401359392505050565b60008060006060848603121561293057600080fd5b505081359360208301359350604090920135919050565b600081518084526020808501945080840160005b838110156129775781518752958201959082019060010161295b565b509495945050505050565b602081526000610c046020830184612947565b634e487b7160e01b600052604160045260246000fd5b634e487b7160e01b600052603260045260246000fd5b634e487b7160e01b600052601160045260246000fd5b6000600182016129e9576129e96129c1565b5060010190565b8183526000602080850194508260005b85811015612977578135612a138161264e565b6001600160a01b031687529582019590820190600101612a00565b604081526000612a426040830185876129f0565b8281036020840152612a548185612947565b9695505050505050565b600060208284031215612a7057600080fd5b5051919050565b60208082526022908201527f48617350726f787941646d696e3a20756e617574686f72697a65642073656e6460408201526132b960f11b606082015260800190565b604051601f8201601f1916810167ffffffffffffffff81118282101715612ae257612ae2612995565b604052919050565b600060a08284031215612afc57600080fd5b60405160a0810181811067ffffffffffffffff82111715612b1f57612b1f612995565b6040528251612b2d8161264e565b81526020830151612b3d8161264e565b60208201526040830151612b508161264e565b6040820152606083810151908201526080928301519281019290925250919050565b818103818111156106a1576106a16129c1565b6040810160088410612ba757634e487b7160e01b600052602160045260246000fd5b9281526020015290565b6001600160a01b03949094168452602084019290925260408301521515606082015260800190565b8183823760009101908152919050565b6020815260006121286020830184866129f0565b80518015158114612c0d57600080fd5b919050565b60006020808385031215612c2557600080fd5b825167ffffffffffffffff80821115612c3d57600080fd5b818501915085601f830112612c5157600080fd5b815181811115612c6357612c63612995565b8060051b9150612c74848301612ab9565b8181529183018401918481019088841115612c8e57600080fd5b938501935b83851015612cb357612ca485612bfd565b82529385019390850190612c93565b98975050505050505050565b606081526000612cd36060830186886129f0565b6020830194909452506040015292915050565b600060208284031215612cf857600080fd5b610c0482612bfd565b600080600060608486031215612d1657600080fd5b612d1f84612bfd565b925060208401519150604084015190509250925092565b80820281158282048414176106a1576106a16129c1565b808201808211156106a1576106a16129c1565b81835281816020850137506000828201602090810191909152601f909101601f19169091010190565b6001600160a01b0386168152606060208201819052600090612dae9083018688612d60565b8281036040840152612cb3818587612d6056fe607adba66cff84b627e3537d1c17d088a98556bccd0536a2f3590c56329023d9a264697066735822122052d46937559c29bd9386fa6f5c433cfee33a300aab406a067ccda8dc1528309464736f6c63430008110033",
  "devdoc": {
    "errors": {
      "ErrCallPrecompiled()": [
        {
          "details": "Error of call to precompile fails."
        }
      ],
      "ErrCallerMustBeGovernanceAdminContract()": [
        {
          "details": "Error of method caller must be goverance admin contract."
        }
      ],
      "ErrCallerMustBeMaintenanceContract()": [
        {
          "details": "Error of method caller must be maintenance contract."
        }
      ],
      "ErrCallerMustBeRoninTrustedOrgContract()": [
        {
          "details": "Error of method caller must be Ronin trusted org contract."
        }
      ],
      "ErrCallerMustBeValidatorContract()": [
        {
          "details": "Error of method caller must be validator contract."
        }
      ],
      "ErrZeroCodeContract()": [
        {
          "details": "Error of set to non-contract."
        }
      ]
    },
    "kind": "dev",
    "methods": {
      "bailOut(address)": {
        "details": "A slashed validator use this method to get out of jail. Requirements: - The `_consensusAddr` must be a validator. - Only validator's admin can call this method. Emits the event `BailedOut`."
      },
      "checkBailedOutAtPeriod(address,uint256)": {
        "details": "Returns the whether the `_validator` has been bailed out at the `_period`."
      },
      "currentUnavailabilityIndicator(address)": {
        "details": "Returns the current unavailability indicator of a block producer."
      },
      "execResetCreditScores(address[])": {
        "details": "Resets the credit score for the revoked validators. Requirements: - Only validator contract can call this method. - This method is only called at the end of each period. Emits the event `CreditScoresUpdated`."
      },
      "execSlashBridgeOperator(address,uint256,uint256)": {
        "details": "Acknowledges bridge operator slash and emit `Slashed` event correspondingly.",
        "params": {
          "_tier": "The tier of the slash, in value of {1, 2}, corresponding to `SlashType.BRIDGE_OPERATOR_MISSING_VOTE_TIER_1` and `SlashType.BRIDGE_OPERATOR_MISSING_VOTE_TIER_2` Requirements: - Only validator contract can invoke this method. - Should be called only at the end of period. - Should be called only when there is slash of bridge operator. Emits the event `Slashed`."
        }
      },
      "getBridgeOperatorSlashingConfigs()": {
        "details": "Returns the configs related to bridge operator slashing.",
        "returns": {
          "jailDurationForMissingVotesRatioTier2_": "The number of blocks to jail the corresponding block producer when its bridge operator is slashed tier-2.",
          "missingVotesRatioTier1_": "The bridge reward will be deprecated if (s)he missed more than this ratio.",
          "missingVotesRatioTier2_": "The bridge reward and mining reward will be deprecated and the corresponding block producer will be put in jail if (s)he misses more than this ratio.",
          "skipBridgeOperatorSlashingThreshold_": "The threshold to skip slashing the bridge operator in case the total number of votes in the bridge is too small."
        }
      },
      "getBridgeVotingSlashingConfigs()": {
        "details": "Returns the configs related to bridge voting slashing.",
        "returns": {
          "bridgeVotingSlashAmount_": "The amount of RON to slash bridge voting.",
          "bridgeVotingThreshold_": "The threshold to slash when a trusted organization does not vote for bridge operators."
        }
      },
      "getCreditScore(address)": {
        "details": "Returns the current credit score of the validator."
      },
      "getCreditScoreConfigs()": {
        "details": "Returns the configs related to credit score.",
        "returns": {
          "bailOutCostMultiplier_": "The number that will be multiplied with the remaining jailed time to get the cost of bailing out.",
          "cutOffPercentageAfterBailout_": "The percentage of reward that the block producer will be cut off from until the end of the period after bailing out.",
          "gainCreditScore_": "The score to gain per period.",
          "maxCreditScore_": "The max number of credit score that a validator can hold."
        }
      },
      "getDoubleSignSlashingConfigs()": {
        "details": "Returns the configs related to block producer slashing.",
        "params": {
          "_doubleSigningOffsetLimitBlock": "The number of block that the current block is at most far from the double signing block."
        },
        "returns": {
          "doubleSigningJailUntilBlock_": "The block number that the punished validator will be jailed until, due to double signing.",
          "slashDoubleSignAmount_": "The amount of RON to slash double sign."
        }
      },
      "getManyCreditScores(address[])": {
        "details": "Returns the current credit score of a list of validators."
      },
      "getUnavailabilityIndicator(address,uint256)": {
        "details": "Helper for CreditScore contract to query indicator of the validator."
      },
      "getUnavailabilitySlashingConfigs()": {
        "details": "Returns the configs related to block producer slashing.",
        "returns": {
          "jailDurationForUnavailabilityTier2Threshold_": "The number of blocks to jail a block producer when (s)he is slashed with tier-2 or tier-3.",
          "slashAmountForUnavailabilityTier2Threshold_": "The amount of RON to deduct from self-staking of a block producer when (s)he is slashed with tier-2 or tier-3.",
          "unavailabilityTier1Threshold_": "The mining reward will be deprecated, if (s)he missed more than this threshold. This threshold is applied for tier-1 and tier-3 slash.",
          "unavailabilityTier2Threshold_": " The mining reward will be deprecated, (s)he will be put in jailed, and will be deducted self-staking if (s)he misses more than this threshold. This threshold is applied for tier-2 slash."
        }
      },
      "initialize(address,address,address,address,uint256[4],uint256[2],uint256[3],uint256[4],uint256[4])": {
        "details": "Initializes the contract storage."
      },
      "maintenanceContract()": {
        "details": "Returns the maintenance contract."
      },
      "precompileValidateDoubleSignAddress()": {
        "details": "Gets the address of the precompile of validating double sign evidence"
      },
      "roninGovernanceAdminContract()": {
        "details": "Returns the ronin governance admin contract."
      },
      "roninTrustedOrganizationContract()": {
        "details": "Returns the ronin trusted organization contract."
      },
      "setBridgeOperatorSlashingConfigs(uint256,uint256,uint256,uint256)": {
        "details": "Sets the configs to slash bridge operators. Requirements: - The method caller is admin. Emits the event `BridgeOperatorSlashingConfigsUpdated`.",
        "params": {
          "_jailDurationTier2": "The number of blocks to jail the corresponding block producer when its bridge operator is slashed tier-2.",
          "_ratioTier1": "The bridge reward will be deprecated if (s)he missed more than this ratio. Values 0-10,000 map to 0%-100%.",
          "_ratioTier2": "The bridge reward and mining reward will be deprecated and the corresponding block producer will be put in jail if (s)he misses more than this ratio. Values 0-10,000 map to 0%-100%.",
          "_skipSlashingThreshold": "The threshold to skip slashing the bridge operator in case the total number of votes in the bridge is too small."
        }
      },
      "setBridgeVotingSlashingConfigs(uint256,uint256)": {
        "details": "Sets the configs to slash bridge voting. Requirements: - The method caller is admin. Emits the event `BridgeVotingSlashingConfigsUpdated`.",
        "params": {
          "_slashAmount": "The amount of RON to slash bridge voting.",
          "_threshold": "The threshold to slash when a trusted organization does not vote for bridge operators."
        }
      },
      "setCreditScoreConfigs(uint256,uint256,uint256,uint256)": {
        "details": "Sets the configs to credit score. Requirements: - The method caller is admin. Emits the event `CreditScoreConfigsUpdated`.",
        "params": {
          "_bailOutMultiplier": "The number that will be multiplied with the remaining jailed time to get the cost of bailing out.",
          "_cutOffPercentage": "The percentage of reward that the block producer will be cut off from until the end of the period after bailing out.",
          "_gainScore": "The score to gain per period.",
          "_maxScore": "The max number of credit score that a validator can hold."
        }
      },
      "setDoubleSignSlashingConfigs(uint256,uint256,uint256)": {
        "details": "Sets the configs to slash block producers. Requirements: - The method caller is admin. Emits the event `DoubleSignSlashingConfigsUpdated`.",
        "params": {
          "_doubleSigningOffsetLimitBlock": "The number of block that the current block is at most far from the double signing block.",
          "_jailUntilBlock": "The block number that the punished validator will be jailed until, due to double signing.",
          "_slashAmount": "The amount of RON to slash double sign."
        }
      },
      "setMaintenanceContract(address)": {
        "details": "Sets the maintenance contract. Requirements: - The method caller is admin. - The new address is a contract. Emits the event `MaintenanceContractUpdated`."
      },
      "setRoninGovernanceAdminContract(address)": {
        "details": "Sets the ronin governance admin contract. Requirements: - The method caller is admin. - The new address is a contract. Emits the event `RoninGovernanceAdminContractUpdated`."
      },
      "setRoninTrustedOrganizationContract(address)": {
        "details": "Sets the ronin trusted organization contract. Requirements: - The method caller is admin. - The new address is a contract. Emits the event `RoninTrustedOrganizationContractUpdated`."
      },
      "setUnavailabilitySlashingConfigs(uint256,uint256,uint256,uint256)": {
        "details": "Sets the configs to slash block producers. Requirements: - The method caller is admin. Emits the event `BridgeOperatorSlashingConfigsUpdated`.",
        "params": {
          "_jailDurationForTier2Threshold": "The number of blocks to jail a block producer when (s)he is slashed tier-2.",
          "_slashAmountForTier2Threshold": "The amount of RON to deduct from self-staking of a block producer when (s)he is slashed tier-2.",
          "_tier1Threshold": "The mining reward will be deprecated, if (s)he missed more than this threshold.",
          "_tier2Threshold": "The mining reward will be deprecated, (s)he will be put in jailed, and will be deducted self-staking if (s)he misses more than this threshold."
        }
      },
      "setValidatorContract(address)": {
        "details": "Sets the validator contract. Requirements: - The method caller is admin. - The new address is a contract. Emits the event `ValidatorContractUpdated`."
      },
      "slashBridgeVoting(address)": {
        "details": "Slashes for bridge voter governance. Emits the event `Slashed`."
      },
      "slashDoubleSign(address,bytes,bytes)": {
        "details": "Slashes for double signing. Requirements: - The method caller is coinbase. Emits the event `Slashed` if the double signing evidence of the two headers valid."
      },
      "slashUnavailability(address)": {
        "details": "Slashes for unavailability by increasing the counter of block producer `_consensusAddr`. Requirements: - The method caller is coinbase. Emits the event `Slashed` when the threshold is reached."
      },
      "updateCreditScores(address[],uint256)": {
        "details": "Updates the credit score for the validators. Requirements: - Only validator contract can call this method. - This method is only called at the end of each period. Emits the event `CreditScoresUpdated`."
      },
      "validatorContract()": {
        "details": "Returns the validator contract."
      }
    },
    "version": 1
  },
  "userdoc": {
    "kind": "user",
    "methods": {},
    "version": 1
  },
  "storageLayout": {
    "storage": [
      {
        "astId": 6462,
        "contract": "contracts/ronin/slash-indicator/SlashIndicator.sol:SlashIndicator",
        "label": "_validatorContract",
        "offset": 0,
        "slot": "0",
        "type": "t_contract(IRoninValidatorSet)11978"
      },
      {
        "astId": 25381,
        "contract": "contracts/ronin/slash-indicator/SlashIndicator.sol:SlashIndicator",
        "label": "_slashDoubleSignAmount",
        "offset": 0,
        "slot": "1",
        "type": "t_uint256"
      },
      {
        "astId": 25384,
        "contract": "contracts/ronin/slash-indicator/SlashIndicator.sol:SlashIndicator",
        "label": "_doubleSigningJailUntilBlock",
        "offset": 0,
        "slot": "2",
        "type": "t_uint256"
      },
      {
        "astId": 25387,
        "contract": "contracts/ronin/slash-indicator/SlashIndicator.sol:SlashIndicator",
        "label": "_doubleSigningOffsetLimitBlock",
        "offset": 0,
        "slot": "3",
        "type": "t_uint256"
      },
      {
        "astId": 25392,
        "contract": "contracts/ronin/slash-indicator/SlashIndicator.sol:SlashIndicator",
        "label": "_submittedEvidence",
        "offset": 0,
        "slot": "4",
        "type": "t_mapping(t_bytes32,t_bool)"
      },
      {
        "astId": 25397,
        "contract": "contracts/ronin/slash-indicator/SlashIndicator.sol:SlashIndicator",
        "label": "______gap",
        "offset": 0,
        "slot": "5",
        "type": "t_array(t_uint256)48_storage"
      },
      {
        "astId": 6146,
        "contract": "contracts/ronin/slash-indicator/SlashIndicator.sol:SlashIndicator",
        "label": "_roninTrustedOrganizationContract",
        "offset": 0,
        "slot": "53",
        "type": "t_contract(IRoninTrustedOrganization)10196"
      },
      {
        "astId": 6067,
        "contract": "contracts/ronin/slash-indicator/SlashIndicator.sol:SlashIndicator",
        "label": "_roninGovernanceAdminContract",
        "offset": 0,
        "slot": "54",
        "type": "t_contract(IRoninGovernanceAdmin)10017"
      },
      {
        "astId": 25227,
        "contract": "contracts/ronin/slash-indicator/SlashIndicator.sol:SlashIndicator",
        "label": "_bridgeVotingSlashed",
        "offset": 0,
        "slot": "55",
        "type": "t_mapping(t_address,t_mapping(t_uint256,t_bool))"
      },
      {
        "astId": 25230,
        "contract": "contracts/ronin/slash-indicator/SlashIndicator.sol:SlashIndicator",
        "label": "_bridgeVotingThreshold",
        "offset": 0,
        "slot": "56",
        "type": "t_uint256"
      },
      {
        "astId": 25233,
        "contract": "contracts/ronin/slash-indicator/SlashIndicator.sol:SlashIndicator",
        "label": "_bridgeVotingSlashAmount",
        "offset": 0,
        "slot": "57",
        "type": "t_uint256"
      },
      {
        "astId": 25238,
        "contract": "contracts/ronin/slash-indicator/SlashIndicator.sol:SlashIndicator",
        "label": "______gap",
        "offset": 0,
        "slot": "58",
        "type": "t_array(t_uint256)50_storage"
      },
      {
        "astId": 5955,
        "contract": "contracts/ronin/slash-indicator/SlashIndicator.sol:SlashIndicator",
        "label": "_maintenanceContract",
        "offset": 0,
        "slot": "108",
        "type": "t_contract(IMaintenance)9709"
      },
      {
        "astId": 25059,
        "contract": "contracts/ronin/slash-indicator/SlashIndicator.sol:SlashIndicator",
        "label": "_missingVotesRatioTier1",
        "offset": 0,
        "slot": "109",
        "type": "t_uint256"
      },
      {
        "astId": 25062,
        "contract": "contracts/ronin/slash-indicator/SlashIndicator.sol:SlashIndicator",
        "label": "_missingVotesRatioTier2",
        "offset": 0,
        "slot": "110",
        "type": "t_uint256"
      },
      {
        "astId": 25065,
        "contract": "contracts/ronin/slash-indicator/SlashIndicator.sol:SlashIndicator",
        "label": "_jailDurationForMissingVotesRatioTier2",
        "offset": 0,
        "slot": "111",
        "type": "t_uint256"
      },
      {
        "astId": 25068,
        "contract": "contracts/ronin/slash-indicator/SlashIndicator.sol:SlashIndicator",
        "label": "_skipBridgeOperatorSlashingThreshold",
        "offset": 0,
        "slot": "112",
        "type": "t_uint256"
      },
      {
        "astId": 25073,
        "contract": "contracts/ronin/slash-indicator/SlashIndicator.sol:SlashIndicator",
        "label": "______gap",
        "offset": 0,
        "slot": "113",
        "type": "t_array(t_uint256)50_storage"
      },
      {
        "astId": 25807,
        "contract": "contracts/ronin/slash-indicator/SlashIndicator.sol:SlashIndicator",
        "label": "lastUnavailabilitySlashedBlock",
        "offset": 0,
        "slot": "163",
        "type": "t_uint256"
      },
      {
        "astId": 25814,
        "contract": "contracts/ronin/slash-indicator/SlashIndicator.sol:SlashIndicator",
        "label": "_unavailabilityIndicator",
        "offset": 0,
        "slot": "164",
        "type": "t_mapping(t_address,t_mapping(t_uint256,t_uint256))"
      },
      {
        "astId": 25817,
        "contract": "contracts/ronin/slash-indicator/SlashIndicator.sol:SlashIndicator",
        "label": "_unavailabilityTier1Threshold",
        "offset": 0,
        "slot": "165",
        "type": "t_uint256"
      },
      {
        "astId": 25820,
        "contract": "contracts/ronin/slash-indicator/SlashIndicator.sol:SlashIndicator",
        "label": "_unavailabilityTier2Threshold",
        "offset": 0,
        "slot": "166",
        "type": "t_uint256"
      },
      {
        "astId": 25823,
        "contract": "contracts/ronin/slash-indicator/SlashIndicator.sol:SlashIndicator",
        "label": "_slashAmountForUnavailabilityTier2Threshold",
        "offset": 0,
        "slot": "167",
        "type": "t_uint256"
      },
      {
        "astId": 25826,
        "contract": "contracts/ronin/slash-indicator/SlashIndicator.sol:SlashIndicator",
        "label": "_jailDurationForUnavailabilityTier2Threshold",
        "offset": 0,
        "slot": "168",
        "type": "t_uint256"
      },
      {
        "astId": 25831,
        "contract": "contracts/ronin/slash-indicator/SlashIndicator.sol:SlashIndicator",
        "label": "______gap",
        "offset": 0,
        "slot": "169",
        "type": "t_array(t_uint256)50_storage"
      },
      {
        "astId": 24534,
        "contract": "contracts/ronin/slash-indicator/SlashIndicator.sol:SlashIndicator",
        "label": "_checkBailedOutAtPeriod",
        "offset": 0,
        "slot": "219",
        "type": "t_mapping(t_address,t_mapping(t_uint256,t_bool))"
      },
      {
        "astId": 24539,
        "contract": "contracts/ronin/slash-indicator/SlashIndicator.sol:SlashIndicator",
        "label": "_creditScore",
        "offset": 0,
        "slot": "220",
        "type": "t_mapping(t_address,t_uint256)"
      },
      {
        "astId": 24542,
        "contract": "contracts/ronin/slash-indicator/SlashIndicator.sol:SlashIndicator",
        "label": "_gainCreditScore",
        "offset": 0,
        "slot": "221",
        "type": "t_uint256"
      },
      {
        "astId": 24545,
        "contract": "contracts/ronin/slash-indicator/SlashIndicator.sol:SlashIndicator",
        "label": "_maxCreditScore",
        "offset": 0,
        "slot": "222",
        "type": "t_uint256"
      },
      {
        "astId": 24548,
        "contract": "contracts/ronin/slash-indicator/SlashIndicator.sol:SlashIndicator",
        "label": "_bailOutCostMultiplier",
        "offset": 0,
        "slot": "223",
        "type": "t_uint256"
      },
      {
        "astId": 24551,
        "contract": "contracts/ronin/slash-indicator/SlashIndicator.sol:SlashIndicator",
        "label": "_cutOffPercentageAfterBailout",
        "offset": 0,
        "slot": "224",
        "type": "t_uint256"
      },
      {
        "astId": 24556,
        "contract": "contracts/ronin/slash-indicator/SlashIndicator.sol:SlashIndicator",
        "label": "______gap",
        "offset": 0,
        "slot": "225",
        "type": "t_array(t_uint256)50_storage"
      },
      {
        "astId": 1373,
        "contract": "contracts/ronin/slash-indicator/SlashIndicator.sol:SlashIndicator",
        "label": "_initialized",
        "offset": 0,
        "slot": "275",
        "type": "t_uint8"
      },
      {
        "astId": 1376,
        "contract": "contracts/ronin/slash-indicator/SlashIndicator.sol:SlashIndicator",
        "label": "_initializing",
        "offset": 1,
        "slot": "275",
        "type": "t_bool"
      }
    ],
    "types": {
      "t_address": {
        "encoding": "inplace",
        "label": "address",
        "numberOfBytes": "20"
      },
      "t_array(t_uint256)48_storage": {
        "base": "t_uint256",
        "encoding": "inplace",
        "label": "uint256[48]",
        "numberOfBytes": "1536"
      },
      "t_array(t_uint256)50_storage": {
        "base": "t_uint256",
        "encoding": "inplace",
        "label": "uint256[50]",
        "numberOfBytes": "1600"
      },
      "t_bool": {
        "encoding": "inplace",
        "label": "bool",
        "numberOfBytes": "1"
      },
      "t_bytes32": {
        "encoding": "inplace",
        "label": "bytes32",
        "numberOfBytes": "32"
      },
      "t_contract(IMaintenance)9709": {
        "encoding": "inplace",
        "label": "contract IMaintenance",
        "numberOfBytes": "20"
      },
      "t_contract(IRoninGovernanceAdmin)10017": {
        "encoding": "inplace",
        "label": "contract IRoninGovernanceAdmin",
        "numberOfBytes": "20"
      },
      "t_contract(IRoninTrustedOrganization)10196": {
        "encoding": "inplace",
        "label": "contract IRoninTrustedOrganization",
        "numberOfBytes": "20"
      },
      "t_contract(IRoninValidatorSet)11978": {
        "encoding": "inplace",
        "label": "contract IRoninValidatorSet",
        "numberOfBytes": "20"
      },
      "t_mapping(t_address,t_mapping(t_uint256,t_bool))": {
        "encoding": "mapping",
        "key": "t_address",
        "label": "mapping(address => mapping(uint256 => bool))",
        "numberOfBytes": "32",
        "value": "t_mapping(t_uint256,t_bool)"
      },
      "t_mapping(t_address,t_mapping(t_uint256,t_uint256))": {
        "encoding": "mapping",
        "key": "t_address",
        "label": "mapping(address => mapping(uint256 => uint256))",
        "numberOfBytes": "32",
        "value": "t_mapping(t_uint256,t_uint256)"
      },
      "t_mapping(t_address,t_uint256)": {
        "encoding": "mapping",
        "key": "t_address",
        "label": "mapping(address => uint256)",
        "numberOfBytes": "32",
        "value": "t_uint256"
      },
      "t_mapping(t_bytes32,t_bool)": {
        "encoding": "mapping",
        "key": "t_bytes32",
        "label": "mapping(bytes32 => bool)",
        "numberOfBytes": "32",
        "value": "t_bool"
      },
      "t_mapping(t_uint256,t_bool)": {
        "encoding": "mapping",
        "key": "t_uint256",
        "label": "mapping(uint256 => bool)",
        "numberOfBytes": "32",
        "value": "t_bool"
      },
      "t_mapping(t_uint256,t_uint256)": {
        "encoding": "mapping",
        "key": "t_uint256",
        "label": "mapping(uint256 => uint256)",
        "numberOfBytes": "32",
        "value": "t_uint256"
      },
      "t_uint256": {
        "encoding": "inplace",
        "label": "uint256",
        "numberOfBytes": "32"
      },
      "t_uint8": {
        "encoding": "inplace",
        "label": "uint8",
        "numberOfBytes": "1"
      }
    }
  }
}