{
  "address": "0x00A369b923DED9E84806F983A1F7d63a0e5A09Aa",
  "abi": [
    {
      "inputs": [],
      "stateMutability": "nonpayable",
      "type": "constructor"
    },
    {
      "anonymous": false,
      "inputs": [
        {
          "indexed": true,
          "internalType": "address",
          "name": "validator",
          "type": "address"
        },
        {
          "indexed": false,
          "internalType": "uint256",
          "name": "period",
          "type": "uint256"
        }
      ],
      "name": "BailedOut",
      "type": "event"
    },
    {
      "anonymous": false,
      "inputs": [
        {
          "indexed": false,
          "internalType": "uint256",
          "name": "missingVotesRatioTier1",
          "type": "uint256"
        },
        {
          "indexed": false,
          "internalType": "uint256",
          "name": "missingVotesRatioTier2",
          "type": "uint256"
        },
        {
          "indexed": false,
          "internalType": "uint256",
          "name": "jailDurationForMissingVotesRatioTier2",
          "type": "uint256"
        }
      ],
      "name": "BridgeOperatorSlashingConfigsUpdated",
      "type": "event"
    },
    {
      "anonymous": false,
      "inputs": [
        {
          "indexed": false,
          "internalType": "uint256",
          "name": "bridgeVotingThreshold",
          "type": "uint256"
        },
        {
          "indexed": false,
          "internalType": "uint256",
          "name": "bridgeVotingSlashAmount",
          "type": "uint256"
        }
      ],
      "name": "BridgeVotingSlashingConfigsUpdated",
      "type": "event"
    },
    {
      "anonymous": false,
      "inputs": [
        {
          "indexed": false,
          "internalType": "uint256",
          "name": "gainCreditScore",
          "type": "uint256"
        },
        {
          "indexed": false,
          "internalType": "uint256",
          "name": "maxCreditScore",
          "type": "uint256"
        },
        {
          "indexed": false,
          "internalType": "uint256",
          "name": "bailOutCostMultiplier",
          "type": "uint256"
        },
        {
          "indexed": false,
          "internalType": "uint256",
          "name": "cutOffPercentageAfterBailout",
          "type": "uint256"
        }
      ],
      "name": "CreditScoreConfigsUpdated",
      "type": "event"
    },
    {
      "anonymous": false,
      "inputs": [
        {
          "indexed": false,
          "internalType": "address[]",
          "name": "validators",
          "type": "address[]"
        },
        {
          "indexed": false,
          "internalType": "uint256[]",
          "name": "creditScores",
          "type": "uint256[]"
        }
      ],
      "name": "CreditScoresUpdated",
      "type": "event"
    },
    {
      "anonymous": false,
      "inputs": [
        {
          "indexed": false,
          "internalType": "uint256",
          "name": "slashDoubleSignAmount",
          "type": "uint256"
        },
        {
          "indexed": false,
          "internalType": "uint256",
          "name": "doubleSigningJailUntilBlock",
          "type": "uint256"
        }
      ],
      "name": "DoubleSignSlashingConfigsUpdated",
      "type": "event"
    },
    {
      "anonymous": false,
      "inputs": [
        {
          "indexed": false,
          "internalType": "uint8",
          "name": "version",
          "type": "uint8"
        }
      ],
      "name": "Initialized",
      "type": "event"
    },
    {
      "anonymous": false,
      "inputs": [
        {
          "indexed": false,
          "internalType": "address",
          "name": "",
          "type": "address"
        }
      ],
      "name": "MaintenanceContractUpdated",
      "type": "event"
    },
    {
      "anonymous": false,
      "inputs": [
        {
          "indexed": false,
          "internalType": "address",
          "name": "",
          "type": "address"
        }
      ],
      "name": "RoninGovernanceAdminContractUpdated",
      "type": "event"
    },
    {
      "anonymous": false,
      "inputs": [
        {
          "indexed": false,
          "internalType": "address",
          "name": "",
          "type": "address"
        }
      ],
      "name": "RoninTrustedOrganizationContractUpdated",
      "type": "event"
    },
    {
      "anonymous": false,
      "inputs": [
        {
          "indexed": true,
          "internalType": "address",
          "name": "validator",
          "type": "address"
        },
        {
          "indexed": false,
          "internalType": "enum IBaseSlash.SlashType",
          "name": "slashType",
          "type": "uint8"
        },
        {
          "indexed": false,
          "internalType": "uint256",
          "name": "period",
          "type": "uint256"
        }
      ],
      "name": "Slashed",
      "type": "event"
    },
    {
      "anonymous": false,
      "inputs": [
        {
          "indexed": false,
          "internalType": "uint256",
          "name": "unavailabilityTier1Threshold",
          "type": "uint256"
        },
        {
          "indexed": false,
          "internalType": "uint256",
          "name": "unavailabilityTier2Threshold",
          "type": "uint256"
        },
        {
          "indexed": false,
          "internalType": "uint256",
          "name": "slashAmountForUnavailabilityTier2Threshold",
          "type": "uint256"
        },
        {
          "indexed": false,
          "internalType": "uint256",
          "name": "jailDurationForUnavailabilityTier2Threshold",
          "type": "uint256"
        }
      ],
      "name": "UnavailabilitySlashingConfigsUpdated",
      "type": "event"
    },
    {
      "anonymous": false,
      "inputs": [
        {
          "indexed": false,
          "internalType": "address",
          "name": "",
          "type": "address"
        }
      ],
      "name": "ValidatorContractUpdated",
      "type": "event"
    },
    {
      "inputs": [
        {
          "internalType": "address",
          "name": "_consensusAddr",
          "type": "address"
        }
      ],
      "name": "bailOut",
      "outputs": [],
      "stateMutability": "nonpayable",
      "type": "function"
    },
    {
      "inputs": [],
      "name": "bailOutCostMultiplier",
      "outputs": [
        {
          "internalType": "uint256",
          "name": "",
          "type": "uint256"
        }
      ],
      "stateMutability": "view",
      "type": "function"
    },
    {
      "inputs": [
        {
          "internalType": "address",
          "name": "_validator",
          "type": "address"
        },
        {
          "internalType": "uint256",
          "name": "_period",
          "type": "uint256"
        }
      ],
      "name": "bailedOutAtPeriod",
      "outputs": [
        {
          "internalType": "bool",
          "name": "",
          "type": "bool"
        }
      ],
      "stateMutability": "view",
      "type": "function"
    },
    {
      "inputs": [
        {
          "internalType": "address",
          "name": "_validator",
          "type": "address"
        }
      ],
      "name": "currentUnavailabilityIndicator",
      "outputs": [
        {
          "internalType": "uint256",
          "name": "",
          "type": "uint256"
        }
      ],
      "stateMutability": "view",
      "type": "function"
    },
    {
      "inputs": [],
      "name": "cutOffPercentageAfterBailout",
      "outputs": [
        {
          "internalType": "uint256",
          "name": "",
          "type": "uint256"
        }
      ],
      "stateMutability": "view",
      "type": "function"
    },
    {
      "inputs": [],
      "name": "gainCreditScore",
      "outputs": [
        {
          "internalType": "uint256",
          "name": "",
          "type": "uint256"
        }
      ],
      "stateMutability": "view",
      "type": "function"
    },
    {
      "inputs": [],
      "name": "getBridgeOperatorSlashingConfigs",
      "outputs": [
        {
          "internalType": "uint256",
          "name": "",
          "type": "uint256"
        },
        {
          "internalType": "uint256",
          "name": "",
          "type": "uint256"
        },
        {
          "internalType": "uint256",
          "name": "",
          "type": "uint256"
        }
      ],
      "stateMutability": "view",
      "type": "function"
    },
    {
      "inputs": [],
      "name": "getBridgeVotingSlashingConfigs",
      "outputs": [
        {
          "internalType": "uint256",
          "name": "",
          "type": "uint256"
        },
        {
          "internalType": "uint256",
          "name": "",
          "type": "uint256"
        }
      ],
      "stateMutability": "view",
      "type": "function"
    },
    {
      "inputs": [
        {
          "internalType": "address[]",
          "name": "_validators",
          "type": "address[]"
        }
      ],
      "name": "getBulkCreditScore",
      "outputs": [
        {
          "internalType": "uint256[]",
          "name": "_resultList",
          "type": "uint256[]"
        }
      ],
      "stateMutability": "view",
      "type": "function"
    },
    {
      "inputs": [
        {
          "internalType": "address",
          "name": "_validator",
          "type": "address"
        }
      ],
      "name": "getCreditScore",
      "outputs": [
        {
          "internalType": "uint256",
          "name": "",
          "type": "uint256"
        }
      ],
      "stateMutability": "view",
      "type": "function"
    },
    {
      "inputs": [],
      "name": "getCreditScoreConfigs",
      "outputs": [
        {
          "internalType": "uint256",
          "name": "_gainCreditScore",
          "type": "uint256"
        },
        {
          "internalType": "uint256",
          "name": "_maxCreditScore",
          "type": "uint256"
        },
        {
          "internalType": "uint256",
          "name": "_bailOutCostMultiplier",
          "type": "uint256"
        },
        {
          "internalType": "uint256",
          "name": "_cutOffPercentageAfterBailout",
          "type": "uint256"
        }
      ],
      "stateMutability": "view",
      "type": "function"
    },
    {
      "inputs": [],
      "name": "getDoubleSignSlashingConfigs",
      "outputs": [
        {
          "internalType": "uint256",
          "name": "",
          "type": "uint256"
        },
        {
          "internalType": "uint256",
          "name": "",
          "type": "uint256"
        }
      ],
      "stateMutability": "view",
      "type": "function"
    },
    {
      "inputs": [
        {
          "internalType": "address",
          "name": "_validator",
          "type": "address"
        },
        {
          "internalType": "uint256",
          "name": "_period",
          "type": "uint256"
        }
      ],
      "name": "getUnavailabilityIndicator",
      "outputs": [
        {
          "internalType": "uint256",
          "name": "",
          "type": "uint256"
        }
      ],
      "stateMutability": "view",
      "type": "function"
    },
    {
      "inputs": [],
      "name": "getUnavailabilitySlashingConfigs",
      "outputs": [
        {
          "internalType": "uint256",
          "name": "",
          "type": "uint256"
        },
        {
          "internalType": "uint256",
          "name": "",
          "type": "uint256"
        },
        {
          "internalType": "uint256",
          "name": "",
          "type": "uint256"
        },
        {
          "internalType": "uint256",
          "name": "",
          "type": "uint256"
        }
      ],
      "stateMutability": "view",
      "type": "function"
    },
    {
      "inputs": [
        {
          "internalType": "address",
          "name": "__validatorContract",
          "type": "address"
        },
        {
          "internalType": "address",
          "name": "__maintenanceContract",
          "type": "address"
        },
        {
          "internalType": "address",
          "name": "__roninTrustedOrganizationContract",
          "type": "address"
        },
        {
          "internalType": "address",
          "name": "__roninGovernanceAdminContract",
          "type": "address"
        },
        {
          "internalType": "uint256[3]",
          "name": "_bridgeOperatorSlashingConfigs",
          "type": "uint256[3]"
        },
        {
          "internalType": "uint256[2]",
          "name": "_bridgeVotingSlashingConfigs",
          "type": "uint256[2]"
        },
        {
          "internalType": "uint256[2]",
          "name": "_doubleSignSlashingConfigs",
          "type": "uint256[2]"
        },
        {
          "internalType": "uint256[4]",
          "name": "_unavailabilitySlashingConfigs",
          "type": "uint256[4]"
        },
        {
          "internalType": "uint256[4]",
          "name": "_creditScoreConfigs",
          "type": "uint256[4]"
        }
      ],
      "name": "initialize",
      "outputs": [],
      "stateMutability": "nonpayable",
      "type": "function"
    },
    {
      "inputs": [],
      "name": "lastUnavailabilitySlashedBlock",
      "outputs": [
        {
          "internalType": "uint256",
          "name": "",
          "type": "uint256"
        }
      ],
      "stateMutability": "view",
      "type": "function"
    },
    {
      "inputs": [],
      "name": "maintenanceContract",
      "outputs": [
        {
          "internalType": "address",
          "name": "",
          "type": "address"
        }
      ],
      "stateMutability": "view",
      "type": "function"
    },
    {
      "inputs": [],
      "name": "maxCreditScore",
      "outputs": [
        {
          "internalType": "uint256",
          "name": "",
          "type": "uint256"
        }
      ],
      "stateMutability": "view",
      "type": "function"
    },
    {
      "inputs": [],
      "name": "precompileValidateDoubleSignAddress",
      "outputs": [
        {
          "internalType": "address",
          "name": "",
          "type": "address"
        }
      ],
      "stateMutability": "view",
      "type": "function"
    },
    {
      "inputs": [],
      "name": "roninGovernanceAdminContract",
      "outputs": [
        {
          "internalType": "address",
          "name": "",
          "type": "address"
        }
      ],
      "stateMutability": "view",
      "type": "function"
    },
    {
      "inputs": [],
      "name": "roninTrustedOrganizationContract",
      "outputs": [
        {
          "internalType": "address",
          "name": "",
          "type": "address"
        }
      ],
      "stateMutability": "view",
      "type": "function"
    },
    {
      "inputs": [
        {
          "internalType": "uint256",
          "name": "_ratioTier1",
          "type": "uint256"
        },
        {
          "internalType": "uint256",
          "name": "_ratioTier2",
          "type": "uint256"
        },
        {
          "internalType": "uint256",
          "name": "_jailDurationTier2",
          "type": "uint256"
        }
      ],
      "name": "setBridgeOperatorSlashingConfigs",
      "outputs": [],
      "stateMutability": "nonpayable",
      "type": "function"
    },
    {
      "inputs": [
        {
          "internalType": "uint256",
          "name": "_threshold",
          "type": "uint256"
        },
        {
          "internalType": "uint256",
          "name": "_slashAmount",
          "type": "uint256"
        }
      ],
      "name": "setBridgeVotingSlashingConfigs",
      "outputs": [],
      "stateMutability": "nonpayable",
      "type": "function"
    },
    {
      "inputs": [
        {
          "internalType": "uint256",
          "name": "_gainCreditScore",
          "type": "uint256"
        },
        {
          "internalType": "uint256",
          "name": "_maxCreditScore",
          "type": "uint256"
        },
        {
          "internalType": "uint256",
          "name": "_bailOutCostMultiplier",
          "type": "uint256"
        },
        {
          "internalType": "uint256",
          "name": "_cutOffPercentageAfterBailout",
          "type": "uint256"
        }
      ],
      "name": "setCreditScoreConfigs",
      "outputs": [],
      "stateMutability": "nonpayable",
      "type": "function"
    },
    {
      "inputs": [
        {
          "internalType": "uint256",
          "name": "_slashAmount",
          "type": "uint256"
        },
        {
          "internalType": "uint256",
          "name": "_jailUntilBlock",
          "type": "uint256"
        }
      ],
      "name": "setDoubleSignSlashingConfigs",
      "outputs": [],
      "stateMutability": "nonpayable",
      "type": "function"
    },
    {
      "inputs": [
        {
          "internalType": "address",
          "name": "_addr",
          "type": "address"
        }
      ],
      "name": "setMaintenanceContract",
      "outputs": [],
      "stateMutability": "nonpayable",
      "type": "function"
    },
    {
      "inputs": [
        {
          "internalType": "address",
          "name": "_addr",
          "type": "address"
        }
      ],
      "name": "setRoninGovernanceAdminContract",
      "outputs": [],
      "stateMutability": "nonpayable",
      "type": "function"
    },
    {
      "inputs": [
        {
          "internalType": "address",
          "name": "_addr",
          "type": "address"
        }
      ],
      "name": "setRoninTrustedOrganizationContract",
      "outputs": [],
      "stateMutability": "nonpayable",
      "type": "function"
    },
    {
      "inputs": [
        {
          "internalType": "uint256",
          "name": "_tier1Threshold",
          "type": "uint256"
        },
        {
          "internalType": "uint256",
          "name": "_tier2Threshold",
          "type": "uint256"
        },
        {
          "internalType": "uint256",
          "name": "_slashAmountForTier2Threshold",
          "type": "uint256"
        },
        {
          "internalType": "uint256",
          "name": "_jailDurationForTier2Threshold",
          "type": "uint256"
        }
      ],
      "name": "setUnavailabilitySlashingConfigs",
      "outputs": [],
      "stateMutability": "nonpayable",
      "type": "function"
    },
    {
      "inputs": [
        {
          "internalType": "address",
          "name": "_addr",
          "type": "address"
        }
      ],
      "name": "setValidatorContract",
      "outputs": [],
      "stateMutability": "nonpayable",
      "type": "function"
    },
    {
      "inputs": [
        {
          "internalType": "address",
          "name": "_consensusAddr",
          "type": "address"
        }
      ],
      "name": "slashBridgeVoting",
      "outputs": [],
      "stateMutability": "nonpayable",
      "type": "function"
    },
    {
      "inputs": [
        {
          "internalType": "address",
          "name": "_consensuAddr",
          "type": "address"
        },
        {
          "internalType": "bytes",
          "name": "_header1",
          "type": "bytes"
        },
        {
          "internalType": "bytes",
          "name": "_header2",
          "type": "bytes"
        }
      ],
      "name": "slashDoubleSign",
      "outputs": [],
      "stateMutability": "nonpayable",
      "type": "function"
    },
    {
      "inputs": [
        {
          "internalType": "address",
          "name": "_validatorAddr",
          "type": "address"
        }
      ],
      "name": "slashUnavailability",
      "outputs": [],
      "stateMutability": "nonpayable",
      "type": "function"
    },
    {
      "inputs": [
        {
          "internalType": "address[]",
          "name": "_validators",
          "type": "address[]"
        },
        {
          "internalType": "uint256",
          "name": "_period",
          "type": "uint256"
        }
      ],
      "name": "updateCreditScore",
      "outputs": [],
      "stateMutability": "nonpayable",
      "type": "function"
    },
    {
      "inputs": [],
      "name": "validatorContract",
      "outputs": [
        {
          "internalType": "address",
          "name": "",
          "type": "address"
        }
      ],
      "stateMutability": "view",
      "type": "function"
    }
  ],
  "transactionHash": "0xbac11f9ef214a44111b90d2e03201cfb8528c870f64be5540da1428a80630fd7",
  "args": [],
  "numDeployments": 1,
  "solcInputHash": "2dccd829348aefebbef587667549cd38",
  "bytecode": "0x60806040523480156200001157600080fd5b506200001c62000022565b620000e7565b61011254610100900460ff1615620000905760405162461bcd60e51b815260206004820152602760248201527f496e697469616c697a61626c653a20636f6e747261637420697320696e697469604482015266616c697a696e6760c81b606482015260840160405180910390fd5b6101125460ff9081161015620000e557610112805460ff191660ff9081179091556040519081527f7f26b83ff96e1f2b6a682f133852f6798a09c465da95921460cefb38474024989060200160405180910390a15b565b612cab80620000f76000396000f3fe608060405234801561001057600080fd5b50600436106102115760003560e01c8063853af1b711610125578063cdf64a76116100ad578063d3dd2bdf1161007c578063d3dd2bdf146104b2578063d73e81b8146104db578063df4b6ee0146104ee578063f562b3c4146104f9578063fd422cd01461050257600080fd5b8063cdf64a7614610468578063d1737e271461047b578063d1f992f71461048e578063d2cb215e146104a157600080fd5b8063bbf94d5c116100f4578063bbf94d5c14610402578063be2be2b114610415578063c2e524dc14610428578063c6391fa214610444578063ccbb72ed1461045557600080fd5b8063853af1b7146103ab57806399439089146103be5780639c0b57d8146103cf578063b5e337de146103ef57600080fd5b80633be2ed8a116101a85780635511cde1116101775780635511cde11461032457806361d3b60b1461033557806362ffe6cb146103485780637c2b55a01461035b57806384146e291461036257600080fd5b80633be2ed8a146102d25780633d48fd7d146102db57806346fe9311146103085780634ee382301461031b57600080fd5b80631a697341116101e45780631a6973411461027e5780631e90b2a01461029157806323368e47146102a457806337c597ea146102c957600080fd5b8063016b641c14610216578063082e7420146102325780631079402a14610245578063129fccc114610269575b600080fd5b61021f60df5481565b6040519081526020015b60405180910390f35b61021f61024036600461249e565b610515565b606d54606e54606f5460408051938452602084019290925290820152606001610229565b61027c610277366004612507565b6105a5565b005b61027c61028c36600461249e565b6109b2565b61027c61029f366004612595565b610c5b565b6036546001600160a01b03165b6040516001600160a01b039091168152602001610229565b61021f60de5481565b61021f60dc5481565b60a45460a55460a65460a7545b604080519485526020850193909352918301526060820152608001610229565b61027c61031636600461249e565b610e10565b61021f60dd5481565b6035546001600160a01b03166102b1565b61027c610343366004612618565b610ec2565b61021f61035636600461263a565b610f08565b60676102b1565b61039b61037036600461263a565b6001600160a01b0391909116600090815260da60209081526040808320938352929052205460ff1690565b6040519015158152602001610229565b61027c6103b9366004612618565b610f34565b6000546001600160a01b03166102b1565b6103e26103dd366004612666565b610f76565b60405161022991906126e3565b61027c6103fd36600461249e565b61104b565b61027c610410366004612718565b61110c565b61027c6104233660046127d5565b6112ab565b6038546039545b60408051928352602083019190915201610229565b60dc5460dd5460de5460df546102e8565b61027c610463366004612801565b6112f3565b61027c61047636600461249e565b611337565b61027c610489366004612801565b6113e4565b61027c61049c36600461249e565b611428565b606c546001600160a01b03166102b1565b61021f6104c036600461249e565b6001600160a01b0316600090815260db602052604090205490565b61027c6104e936600461249e565b611995565b60015460025461042f565b61021f60a25481565b61027c61051036600461249e565b611a4d565b600061059f8260008054906101000a90046001600160a01b03166001600160a01b031663060406186040518163ffffffff1660e01b815260040160206040518083038186803b15801561056757600080fd5b505afa15801561057b573d6000803e3d6000fd5b505050506040513d601f19601f820116820180604052508101906103569190612833565b92915050565b336105b86000546001600160a01b031690565b6001600160a01b0316146106395760405162461bcd60e51b815260206004820152603e60248201527f48617356616c696461746f72436f6e74726163743a206d6574686f642063616c60448201527f6c6572206d7573742062652076616c696461746f7220636f6e7472616374000060648201526084015b60405180910390fd5b60008060009054906101000a90046001600160a01b03166001600160a01b031663297a8fca6040518163ffffffff1660e01b815260040160206040518083038186803b15801561068857600080fd5b505afa15801561069c573d6000803e3d6000fd5b505050506040513d601f19601f820116820180604052508101906106c09190612833565b6000805460405163428483c360e01b815292935090916001600160a01b039091169063428483c3906106f8908890889060040161288a565b60006040518083038186803b15801561071057600080fd5b505afa158015610724573d6000803e3d6000fd5b505050506040513d6000823e601f3d908101601f1916820160405261074c91908101906128fa565b606c54604051630819d79b60e11b81529192506000916001600160a01b0390911690631033af36906107889089908990889043906004016129a7565b60006040518083038186803b1580156107a057600080fd5b505afa1580156107b4573d6000803e3d6000fd5b505050506040513d6000823e601f3d908101601f191682016040526107dc91908101906128fa565b905060008567ffffffffffffffff8111156107f9576107f961289e565b604051908082528060200260200182016040528015610822578160200160208202803683370190505b50905060005b8681101561096d576000888883818110610844576108446129ce565b9050602002016020810190610859919061249e565b905060006108678289610f08565b9050600086848151811061087d5761087d6129ce565b60200260200101519050600086858151811061089b5761089b6129ce565b60200260200101519050600082806108b05750815b6108c5576108c060dc5485611d54565b6108c8565b60005b6001600160a01b038616600090815260db602052604081205460dd54929350916108f59083908590611d6a565b905080821461091a576001600160a01b038716600090815260db602052604090208190555b6001600160a01b038716600090815260db602052604090205489518a908a908110610947576109476129ce565b602002602001018181525050505050505050508080610965906129fa565b915050610828565b507f8c02b2ccee964dc50649a48bd0a0446f0f9e88ecdb72d099f4ace07c39c234808787836040516109a193929190612a15565b60405180910390a150505050505050565b603554604051636db349d160e11b81526001600160a01b038381166004830152600092169063db6693a29060240160a06040518083038186803b1580156109f857600080fd5b505afa158015610a0c573d6000803e3d6000fd5b505050506040513d601f19601f82011682018060405250810190610a309190612a45565b6036546040828101519051632623bd4f60e21b81526001600160a01b039182166004820152929350600092610ac792919091169063988ef53c9060240160206040518083038186803b158015610a8557600080fd5b505afa158015610a99573d6000803e3d6000fd5b505050506040513d601f19601f82011682018060405250810190610abd9190612833565b8360800151611d87565b905060008060009054906101000a90046001600160a01b03166001600160a01b031663060406186040518163ffffffff1660e01b815260040160206040518083038186803b158015610b1857600080fd5b505afa158015610b2c573d6000803e3d6000fd5b505050506040513d601f19601f82011682018060405250810190610b509190612833565b603854909150610b608343612acd565b118015610b9157506001600160a01b038416600090815260376020908152604080832084845290915290205460ff16155b15610c55576001600160a01b038416600081815260376020908152604080832085845290915290819020805460ff1916600117905551600080516020612c5683398151915290610be5906004908590612ae4565b60405180910390a26000805460395460405163570ccb1360e01b81526001600160a01b039092169263570ccb1392610c2292899291600401612b10565b600060405180830381600087803b158015610c3c57600080fd5b505af1158015610c50573d6000803e3d6000fd5b505050505b50505050565b334114610cc15760405162461bcd60e51b815260206004820152602e60248201527f536c617368496e64696361746f723a206d6574686f642063616c6c6572206d7560448201526d737420626520636f696e6261736560901b6064820152608401610630565b610cca85611d9e565b610cd357610e09565b610cdf84848484611ec2565b15610e095760008060009054906101000a90046001600160a01b03166001600160a01b031663060406186040518163ffffffff1660e01b815260040160206040518083038186803b158015610d3357600080fd5b505afa158015610d47573d6000803e3d6000fd5b505050506040513d601f19601f82011682018060405250810190610d6b9190612833565b9050856001600160a01b0316600080516020612c56833981519152600383604051610d97929190612ae4565b60405180910390a260005460025460015460405163570ccb1360e01b81526001600160a01b039093169263570ccb1392610dd5928b92600401612b10565b600060405180830381600087803b158015610def57600080fd5b505af1158015610e03573d6000803e3d6000fd5b50505050505b5050505050565b610e18611fbe565b6001600160a01b0316336001600160a01b031614610e485760405162461bcd60e51b815260040161063090612b31565b6000816001600160a01b03163b11610eb65760405162461bcd60e51b815260206004820152602b60248201527f4861734d61696e74656e616e6365436f6e74726163743a2073657420746f206e60448201526a1bdb8b58dbdb9d1c9858dd60aa1b6064820152608401610630565b610ebf81611fec565b50565b610eca611fbe565b6001600160a01b0316336001600160a01b031614610efa5760405162461bcd60e51b815260040161063090612b31565b610f048282612041565b5050565b6001600160a01b038216600090815260a3602090815260408083208484529091528120545b9392505050565b610f3c611fbe565b6001600160a01b0316336001600160a01b031614610f6c5760405162461bcd60e51b815260040161063090612b31565b610f048282612089565b60608167ffffffffffffffff811115610f9157610f9161289e565b604051908082528060200260200182016040528015610fba578160200160208202803683370190505b50905060005b81518110156110445760db6000858584818110610fdf57610fdf6129ce565b9050602002016020810190610ff4919061249e565b6001600160a01b03166001600160a01b0316815260200190815260200160002054828281518110611027576110276129ce565b60209081029190910101528061103c816129fa565b915050610fc0565b5092915050565b611053611fbe565b6001600160a01b0316336001600160a01b0316146110835760405162461bcd60e51b815260040161063090612b31565b6000816001600160a01b03163b116111035760405162461bcd60e51b815260206004820152603860248201527f486173526f6e696e547275737465644f7267616e697a6174696f6e436f6e747260448201527f6163743a2073657420746f206e6f6e2d636f6e747261637400000000000000006064820152608401610630565b610ebf816120c8565b61011254610100900460ff161580801561112e575061011254600160ff909116105b806111495750303b15801561114957506101125460ff166001145b6111ac5760405162461bcd60e51b815260206004820152602e60248201527f496e697469616c697a61626c653a20636f6e747261637420697320616c72656160448201526d191e481a5b9a5d1a585b1a5e995960921b6064820152608401610630565b610112805460ff1916600117905580156111d157610112805461ff0019166101001790555b6111da8a612116565b6111e389611fec565b6111ec886120c8565b6111f587612164565b6112098635602088013560408901356121b2565b61121885356020870135612089565b61122784356020860135612041565b6112408335602085013560408601356060870135612273565b6112598235602084013560408501356060860135612339565b8015610e0357610112805461ff0019169055604051600181527f7f26b83ff96e1f2b6a682f133852f6798a09c465da95921460cefb38474024989060200160405180910390a150505050505050505050565b6112b3611fbe565b6001600160a01b0316336001600160a01b0316146112e35760405162461bcd60e51b815260040161063090612b31565b6112ee8383836121b2565b505050565b6112fb611fbe565b6001600160a01b0316336001600160a01b03161461132b5760405162461bcd60e51b815260040161063090612b31565b610c5584848484612339565b61133f611fbe565b6001600160a01b0316336001600160a01b03161461136f5760405162461bcd60e51b815260040161063090612b31565b6000816001600160a01b03163b116113db5760405162461bcd60e51b815260206004820152602960248201527f48617356616c696461746f72436f6e74726163743a2073657420746f206e6f6e6044820152680b58dbdb9d1c9858dd60ba1b6064820152608401610630565b610ebf81612116565b6113ec611fbe565b6001600160a01b0316336001600160a01b03161461141c5760405162461bcd60e51b815260040161063090612b31565b610c5584848484612273565b600054604051635061f96960e11b81526001600160a01b0383811660048301529091169063a0c3f2d29060240160206040518083038186803b15801561146d57600080fd5b505afa158015611481573d6000803e3d6000fd5b505050506040513d601f19601f820116820180604052508101906114a59190612b73565b6115175760405162461bcd60e51b815260206004820152603f60248201527f536c617368496e64696361746f723a20636f6e73656e7375732061646472657360448201527f73206d75737420626520612076616c696461746f722063616e646964617465006064820152608401610630565b6000546040516304d971ab60e01b81526001600160a01b038381166004830152336024830152909116906304d971ab9060440160206040518083038186803b15801561156257600080fd5b505afa158015611576573d6000803e3d6000fd5b505050506040513d601f19601f8201168201806040525081019061159a9190612b73565b61160c5760405162461bcd60e51b815260206004820152603760248201527f536c617368496e64696361746f723a206d6574686f642063616c6c6572206d7560448201527f737420626520612063616e6469646174652061646d696e0000000000000000006064820152608401610630565b600080546040516381f9535f60e01b81526001600160a01b038481166004830152839216906381f9535f9060240160606040518083038186803b15801561165257600080fd5b505afa158015611666573d6000803e3d6000fd5b505050506040513d601f19601f8201168201806040525081019061168a9190612b8e565b9250509150816117025760405162461bcd60e51b815260206004820152603b60248201527f536c617368496e64696361746f723a2063616c6c6572206d757374206265206a60448201527f61696c656420696e207468652063757272656e7420706572696f6400000000006064820152608401610630565b60008060009054906101000a90046001600160a01b03166001600160a01b031663060406186040518163ffffffff1660e01b815260040160206040518083038186803b15801561175157600080fd5b505afa158015611765573d6000803e3d6000fd5b505050506040513d601f19601f820116820180604052508101906117899190612833565b6001600160a01b038516600090815260da6020908152604080832084845290915290205490915060ff161561181c5760405162461bcd60e51b815260206004820152603360248201527f536c617368496e64696361746f723a2076616c696461746f7220686173206261604482015272696c6564206f75742070726576696f75736c7960681b6064820152608401610630565b6001600160a01b038416600090815260db602052604081205460de549091906118459085612bc3565b9050808210156118b55760405162461bcd60e51b815260206004820152603560248201527f536c617368496e64696361746f723a20696e73756666696369656e7420637265604482015274191a5d081cd8dbdc99481d1bc818985a5b081bdd5d605a1b6064820152608401610630565b600054604051630adaf5ef60e11b81526001600160a01b03888116600483015260248201869052909116906315b5ebde90604401600060405180830381600087803b15801561190357600080fd5b505af1158015611917573d6000803e3d6000fd5b505050506001600160a01b038616600090815260db602052604081208054839290611943908490612acd565b909155505050506001600160a01b0393909316600081815260a360209081526040808320878452825280832083905592825260da815282822095825294909452909220805460ff191660011790555050565b61199d611fbe565b6001600160a01b0316336001600160a01b0316146119cd5760405162461bcd60e51b815260040161063090612b31565b6000816001600160a01b03163b11611a445760405162461bcd60e51b815260206004820152603460248201527f486173526f6e696e476f7665726e616e636541646d696e436f6e74726163743a604482015273081cd95d081d1bc81b9bdb8b58dbdb9d1c9858dd60621b6064820152608401610630565b610ebf81612164565b60a2544311611aea5760405162461bcd60e51b815260206004820152605c60248201527f536c617368496e64696361746f723a2063616e6e6f7420736c6173682061207660448201527f616c696461746f72207477696365206f7220736c617368206d6f72652074686160648201527f6e206f6e652076616c696461746f7220696e206f6e6520626c6f636b00000000608482015260a401610630565b4360a255334114611b595760405162461bcd60e51b815260206004820152603360248201527f536c617368556e617661696c6162696c6974793a206d6574686f642063616c6c6044820152726572206d75737420626520636f696e6261736560681b6064820152608401610630565b611b6281611d9e565b611b695750565b60008060009054906101000a90046001600160a01b03166001600160a01b031663060406186040518163ffffffff1660e01b815260040160206040518083038186803b158015611bb857600080fd5b505afa158015611bcc573d6000803e3d6000fd5b505050506040513d601f19601f82011682018060405250810190611bf09190612833565b6001600160a01b038316600090815260a3602090815260408083208484529091528120805492935090918290611c25906129fa565b919050819055905060a554811415611ce557826001600160a01b0316600080516020612c56833981519152600284604051611c61929190612ae4565b60405180910390a260005460a7546001600160a01b039091169063570ccb13908590611c8d9043612be2565b60a6546040518463ffffffff1660e01b8152600401611cae93929190612b10565b600060405180830381600087803b158015611cc857600080fd5b505af1158015611cdc573d6000803e3d6000fd5b50505050505050565b60a4548114156112ee57826001600160a01b0316600080516020612c56833981519152600184604051611d19929190612ae4565b60405180910390a26000805460405163570ccb1360e01b81526001600160a01b039091169163570ccb1391611cae9187918190600401612b10565b6000611d60838361245c565b610f2d9084612acd565b6000611d7f611d798486612be2565b8361245c565b949350505050565b600081831015611d975781610f2d565b5090919050565b6000336001600160a01b03831614801590611e315750600054604051633292276760e11b81526001600160a01b038481166004830152909116906365244ece9060240160206040518083038186803b158015611df957600080fd5b505afa158015611e0d573d6000803e3d6000fd5b505050506040513d601f19601f82011682018060405250810190611e319190612b73565b801561059f5750606c5460405163934e9a0360e01b81526001600160a01b0384811660048301524360248301529091169063934e9a039060440160206040518083038186803b158015611e8357600080fd5b505afa158015611e97573d6000803e3d6000fd5b505050506040513d601f19601f82011682018060405250810190611ebb9190612b73565b1592915050565b6040516000906067906001908390611ee4908990899089908990602401612c23565b60408051601f198184030181529190526020810180516001600160e01b031663580a316360e01b1790528051909150611f1b61246b565b602083016020828483895afa611f3057600094505b503d611f3b57600093505b83611fae5760405162461bcd60e51b815260206004820152603b60248201527f507265636f6d70696c65557361676556616c6964617465446f75626c6553696760448201527f6e3a2063616c6c20746f20707265636f6d70696c65206661696c7300000000006064820152608401610630565b5115159998505050505050505050565b7fb53127684a568b3173ae13b9f8a6016e243e63b6e8ee1178d6a717850b5d6103546001600160a01b031690565b606c80546001600160a01b0319166001600160a01b0383169081179091556040519081527f31a33f126a5bae3c5bdf6cfc2cd6dcfffe2fe9634bdb09e21c44762993889e3b906020015b60405180910390a150565b6001829055600281905560408051838152602081018390527f2f551c9d5c16e8a5444109ee232c78ed055e4e5cefe25e162b3bae190af0dedc91015b60405180910390a15050565b50603881905560395460408051838152602081018390527fbda9ec2980d7468ba6a9f363696315affca9f9770016396bdea2ac39c3e5d61a910161207d565b603580546001600160a01b0319166001600160a01b0383169081179091556040519081527ffd6f5f93d69a07c593a09be0b208bff13ab4ffd6017df3b33433d63bdc59b4d790602001612036565b600080546001600160a01b0319166001600160a01b0383169081179091556040519081527fef40dc07567635f84f5edbd2f8dbc16b40d9d282dd8e7e6f4ff58236b683616990602001612036565b603680546001600160a01b0319166001600160a01b0383169081179091556040519081527f9125df97e014f5cc4f107fd784acd35e8e2188ca7c2a0f7caa478365747c1c8390602001612036565b8183111580156121c457506127108311155b80156121d257506127108211155b61221e5760405162461bcd60e51b815260206004820152601e60248201527f536c617368496e64696361746f723a20696e76616c696420726174696f7300006044820152606401610630565b606d839055606e829055606f81905560408051848152602081018490529081018290527f48b79bd792893e8ce8de399a7c03796ca95a43d5782307ff7c775f492cdf7c829060600160405180910390a1505050565b60a55460a45411156122d65760405162461bcd60e51b815260206004820152602660248201527f536c617368556e617661696c6162696c6974793a20696e76616c696420746872604482015265195cda1bdb1960d21b6064820152608401610630565b60a484905560a583905560a682905560a78190556040805185815260208101859052908101839052606081018290527f442862e6143ad95854e7c13ff4947ec6e43bc87160e3b193e7c1abaf6e3aaa98906080015b60405180910390a150505050565b8284111561239a5760405162461bcd60e51b815260206004820152602860248201527f43726564697453636f72653a20696e76616c6964206372656469742073636f726044820152676520636f6e66696760c01b6064820152608401610630565b6127108111156124035760405162461bcd60e51b815260206004820152602e60248201527f43726564697453636f72653a20696e76616c696420637574206f66662070657260448201526d63656e7461676520636f6e66696760901b6064820152608401610630565b60dc84905560dd83905560de82905560df8190556040805185815260208101859052908101839052606081018290527fe1f9c6c73554b5fa140eead3cfd4ec3e6d4824f3ed26fb25e38376f65b95470b9060800161232b565b6000818310611d975781610f2d565b60405180602001604052806001906020820280368337509192915050565b6001600160a01b0381168114610ebf57600080fd5b6000602082840312156124b057600080fd5b8135610f2d81612489565b60008083601f8401126124cd57600080fd5b50813567ffffffffffffffff8111156124e557600080fd5b6020830191508360208260051b850101111561250057600080fd5b9250929050565b60008060006040848603121561251c57600080fd5b833567ffffffffffffffff81111561253357600080fd5b61253f868287016124bb565b909790965060209590950135949350505050565b60008083601f84011261256557600080fd5b50813567ffffffffffffffff81111561257d57600080fd5b60208301915083602082850101111561250057600080fd5b6000806000806000606086880312156125ad57600080fd5b85356125b881612489565b9450602086013567ffffffffffffffff808211156125d557600080fd5b6125e189838a01612553565b909650945060408801359150808211156125fa57600080fd5b5061260788828901612553565b969995985093965092949392505050565b6000806040838503121561262b57600080fd5b50508035926020909101359150565b6000806040838503121561264d57600080fd5b823561265881612489565b946020939093013593505050565b6000806020838503121561267957600080fd5b823567ffffffffffffffff81111561269057600080fd5b61269c858286016124bb565b90969095509350505050565b600081518084526020808501945080840160005b838110156126d8578151875295820195908201906001016126bc565b509495945050505050565b602081526000610f2d60208301846126a8565b806040810183101561059f57600080fd5b806080810183101561059f57600080fd5b60008060008060008060008060006102608a8c03121561273757600080fd5b893561274281612489565b985060208a013561275281612489565b975060408a013561276281612489565b965060608a013561277281612489565b955060e08a018b81111561278557600080fd5b60808b0195506127958c826126f6565b9450506127a68b6101208c016126f6565b92506127b68b6101608c01612707565b91506127c68b6101e08c01612707565b90509295985092959850929598565b6000806000606084860312156127ea57600080fd5b505081359360208301359350604090920135919050565b6000806000806080858703121561281757600080fd5b5050823594602084013594506040840135936060013592509050565b60006020828403121561284557600080fd5b5051919050565b8183526000602080850194508260005b858110156126d857813561286f81612489565b6001600160a01b03168752958201959082019060010161285c565b602081526000611d7f60208301848661284c565b634e487b7160e01b600052604160045260246000fd5b604051601f8201601f1916810167ffffffffffffffff811182821017156128dd576128dd61289e565b604052919050565b805180151581146128f557600080fd5b919050565b6000602080838503121561290d57600080fd5b825167ffffffffffffffff8082111561292557600080fd5b818501915085601f83011261293957600080fd5b81518181111561294b5761294b61289e565b8060051b915061295c8483016128b4565b818152918301840191848101908884111561297657600080fd5b938501935b8385101561299b5761298c856128e5565b8252938501939085019061297b565b98975050505050505050565b6060815260006129bb60608301868861284c565b6020830194909452506040015292915050565b634e487b7160e01b600052603260045260246000fd5b634e487b7160e01b600052601160045260246000fd5b6000600019821415612a0e57612a0e6129e4565b5060010190565b604081526000612a2960408301858761284c565b8281036020840152612a3b81856126a8565b9695505050505050565b600060a08284031215612a5757600080fd5b60405160a0810181811067ffffffffffffffff82111715612a7a57612a7a61289e565b6040528251612a8881612489565b81526020830151612a9881612489565b60208201526040830151612aab81612489565b6040820152606083810151908201526080928301519281019290925250919050565b600082821015612adf57612adf6129e4565b500390565b6040810160078410612b0657634e487b7160e01b600052602160045260246000fd5b9281526020015290565b6001600160a01b039390931683526020830191909152604082015260600190565b60208082526022908201527f48617350726f787941646d696e3a20756e617574686f72697a65642073656e6460408201526132b960f11b606082015260800190565b600060208284031215612b8557600080fd5b610f2d826128e5565b600080600060608486031215612ba357600080fd5b612bac846128e5565b925060208401519150604084015190509250925092565b6000816000190483118215151615612bdd57612bdd6129e4565b500290565b60008219821115612bf557612bf56129e4565b500190565b81835281816020850137506000828201602090810191909152601f909101601f19169091010190565b604081526000612c37604083018688612bfa565b8281036020840152612c4a818587612bfa565b97965050505050505056fe607adba66cff84b627e3537d1c17d088a98556bccd0536a2f3590c56329023d9a26469706673582212202ec1480d0f44c4c4ca1e102871d2d9c08fef70b07a8a1cb79aaf20f9cce73bc964736f6c63430008090033",
  "devdoc": {
    "kind": "dev",
    "methods": {
      "bailOut(address)": {
        "details": "A slashed validator use this method to get out of jail. Requirements: - The `_consensusAddr` must be a validator. - Only validator's admin can call this method. Emits the event `BailedOut`."
      },
      "bailedOutAtPeriod(address,uint256)": {
        "details": "Returns the whether the `_validator` has been bailed out at the `_period`."
      },
      "currentUnavailabilityIndicator(address)": {
        "details": "Returns the current unavailability indicator of a block producer."
      },
      "getBridgeOperatorSlashingConfigs()": {
        "details": "Returns the configs related to bridge operator slashing.",
        "returns": {
          "_0": "The bridge reward will be deprecated if (s)he missed more than this ratio.",
          "_1": "The bridge reward and mining reward will be deprecated and the corresponding block producer will be put in jail if (s)he misses more than this ratio.",
          "_2": "The number of blocks to jail the corresponding block producer when its bridge operator is slashed tier-2."
        }
      },
      "getBridgeVotingSlashingConfigs()": {
        "details": "Returns the configs related to bridge voting slashing.",
        "returns": {
          "_0": "The threshold to slash when a trusted organization does not vote for bridge operators.",
          "_1": "The amount of RON to slash bridge voting."
        }
      },
      "getBulkCreditScore(address[])": {
        "details": "Returns the current credit score of a list of validators."
      },
      "getCreditScore(address)": {
        "details": "Returns the current credit score of the validator."
      },
      "getCreditScoreConfigs()": {
        "details": "Returns the configs related to credit score.",
        "returns": {
          "_bailOutCostMultiplier": "The number that will be multiplied with the remaining jailed time to get the cost of bailing out.",
          "_cutOffPercentageAfterBailout": "The percentage of reward that the block producer will be cut off from until the end of the period after bailing out.",
          "_gainCreditScore": "The max gained number of credit score per period.",
          "_maxCreditScore": "The max number of credit score that a validator can hold."
        }
      },
      "getDoubleSignSlashingConfigs()": {
        "details": "Returns the configs related to block producer slashing.",
        "returns": {
          "_0": "The amount of RON to slash double sign.",
          "_1": "The block number that the punished validator will be jailed until, due to double signing."
        }
      },
      "getUnavailabilityIndicator(address,uint256)": {
        "details": "Helper for CreditScore contract to query indicator of the validator."
      },
      "getUnavailabilitySlashingConfigs()": {
        "details": "Returns the configs related to block producer slashing.",
        "returns": {
          "_0": "The mining reward will be deprecated, if (s)he missed more than this threshold.",
          "_1": " The mining reward will be deprecated, (s)he will be put in jailed, and will be deducted self-staking if (s)he misses more than this threshold.",
          "_2": "The amount of RON to deduct from self-staking of a block producer when (s)he is slashed tier-2.",
          "_3": "The number of blocks to jail a block producer when (s)he is slashed tier-2."
        }
      },
      "initialize(address,address,address,address,uint256[3],uint256[2],uint256[2],uint256[4],uint256[4])": {
        "details": "Initializes the contract storage."
      },
      "maintenanceContract()": {
        "details": "Returns the maintenance contract."
      },
      "precompileValidateDoubleSignAddress()": {
        "details": "Gets the address of the precompile of validating double sign evidence"
      },
      "roninGovernanceAdminContract()": {
        "details": "Returns the ronin governance admin contract."
      },
      "roninTrustedOrganizationContract()": {
        "details": "Returns the ronin trusted organization contract."
      },
      "setBridgeOperatorSlashingConfigs(uint256,uint256,uint256)": {
        "details": "Sets the configs to slash bridge operators. Requirements: - The method caller is admin. Emits the event `BridgeOperatorSlashingConfigsUpdated`.",
        "params": {
          "_jailDurationTier2": "The number of blocks to jail the corresponding block producer when its bridge operator is slashed tier-2.",
          "_ratioTier1": "The bridge reward will be deprecated if (s)he missed more than this ratio. Values 0-10,000 map to 0%-100%.",
          "_ratioTier2": "The bridge reward and mining reward will be deprecated and the corresponding block producer will be put in jail if (s)he misses more than this ratio. Values 0-10,000 map to 0%-100%."
        }
      },
      "setBridgeVotingSlashingConfigs(uint256,uint256)": {
        "details": "Sets the configs to slash bridge voting. Requirements: - The method caller is admin. Emits the event `BridgeVotingSlashingConfigsUpdated`.",
        "params": {
          "_slashAmount": "The amount of RON to slash bridge voting.",
          "_threshold": "The threshold to slash when a trusted organization does not vote for bridge operators."
        }
      },
      "setCreditScoreConfigs(uint256,uint256,uint256,uint256)": {
        "details": "Sets the configs to credit score. Requirements: - The method caller is admin. Emits the event `CreditScoreConfigsUpdated`.",
        "params": {
          "_bailOutCostMultiplier": "The number that will be multiplied with the remaining jailed time to get the cost of bailing out.",
          "_cutOffPercentageAfterBailout": "The percentage of reward that the block producer will be cut off from until the end of the period after bailing out.",
          "_gainCreditScore": "The max gained number of credit score per period.",
          "_maxCreditScore": "The max number of credit score that a validator can hold."
        }
      },
      "setDoubleSignSlashingConfigs(uint256,uint256)": {
        "details": "Sets the configs to slash block producers. Requirements: - The method caller is admin. Emits the event `DoubleSignSlashingConfigsUpdated`.",
        "params": {
          "_jailUntilBlock": "The block number that the punished validator will be jailed until, due to double signing.",
          "_slashAmount": "The amount of RON to slash double sign."
        }
      },
      "setMaintenanceContract(address)": {
        "details": "Sets the maintenance contract. Requirements: - The method caller is admin. - The new address is a contract. Emits the event `MaintenanceContractUpdated`."
      },
      "setRoninGovernanceAdminContract(address)": {
        "details": "Sets the ronin governance admin contract. Requirements: - The method caller is admin. - The new address is a contract. Emits the event `RoninGovernanceAdminContractUpdated`."
      },
      "setRoninTrustedOrganizationContract(address)": {
        "details": "Sets the ronin trusted organization contract. Requirements: - The method caller is admin. - The new address is a contract. Emits the event `RoninTrustedOrganizationContractUpdated`."
      },
      "setUnavailabilitySlashingConfigs(uint256,uint256,uint256,uint256)": {
        "details": "Sets the configs to slash block producers. Requirements: - The method caller is admin. Emits the event `BridgeOperatorSlashingConfigsUpdated`.",
        "params": {
          "_jailDurationForTier2Threshold": "The number of blocks to jail a block producer when (s)he is slashed tier-2.",
          "_slashAmountForTier2Threshold": "The amount of RON to deduct from self-staking of a block producer when (s)he is slashed tier-2.",
          "_tier1Threshold": "The mining reward will be deprecated, if (s)he missed more than this threshold.",
          "_tier2Threshold": "The mining reward will be deprecated, (s)he will be put in jailed, and will be deducted self-staking if (s)he misses more than this threshold."
        }
      },
      "setValidatorContract(address)": {
        "details": "Sets the validator contract. Requirements: - The method caller is admin. - The new address is a contract. Emits the event `ValidatorContractUpdated`."
      },
      "slashBridgeVoting(address)": {
        "details": "Slashes for bridge voter governance. Emits the event `Slashed`."
      },
      "slashDoubleSign(address,bytes,bytes)": {
        "details": "Slashes for double signing. Requirements: - The method caller is coinbase. Emits the event `Slashed` if the double signing evidence of the two headers valid."
      },
      "slashUnavailability(address)": {
        "details": "Slashes for unavailability by increasing the counter of block producer `_consensusAddr`. Requirements: - The method caller is coinbase. Emits the event `Slashed` when the threshold is reached."
      },
      "updateCreditScore(address[],uint256)": {
        "details": "Updates the credit score for the validators. Requirements: - Only validator contract can call this method. - This method is only called at the end of each period. Emits the event `CreditScoresUpdated`."
      },
      "validatorContract()": {
        "details": "Returns the validator contract."
      }
    },
    "version": 1
  },
  "userdoc": {
    "kind": "user",
    "methods": {},
    "version": 1
  },
  "storageLayout": {
    "storage": [
      {
        "astId": 6398,
        "contract": "contracts/ronin/slash-indicator/SlashIndicator.sol:SlashIndicator",
        "label": "_validatorContract",
        "offset": 0,
        "slot": "0",
        "type": "t_contract(IRoninValidatorSet)10851"
      },
      {
        "astId": 22392,
        "contract": "contracts/ronin/slash-indicator/SlashIndicator.sol:SlashIndicator",
        "label": "_slashDoubleSignAmount",
        "offset": 0,
        "slot": "1",
        "type": "t_uint256"
      },
      {
        "astId": 22395,
        "contract": "contracts/ronin/slash-indicator/SlashIndicator.sol:SlashIndicator",
        "label": "_doubleSigningJailUntilBlock",
        "offset": 0,
        "slot": "2",
        "type": "t_uint256"
      },
      {
        "astId": 22400,
        "contract": "contracts/ronin/slash-indicator/SlashIndicator.sol:SlashIndicator",
        "label": "______gap",
        "offset": 0,
        "slot": "3",
        "type": "t_array(t_uint256)50_storage"
      },
      {
        "astId": 6082,
        "contract": "contracts/ronin/slash-indicator/SlashIndicator.sol:SlashIndicator",
        "label": "_roninTrustedOrganizationContract",
        "offset": 0,
        "slot": "53",
        "type": "t_contract(IRoninTrustedOrganization)9509"
      },
      {
        "astId": 6003,
        "contract": "contracts/ronin/slash-indicator/SlashIndicator.sol:SlashIndicator",
        "label": "_roninGovernanceAdminContract",
        "offset": 0,
        "slot": "54",
        "type": "t_contract(IRoninGovernanceAdmin)9330"
      },
      {
        "astId": 22239,
        "contract": "contracts/ronin/slash-indicator/SlashIndicator.sol:SlashIndicator",
        "label": "_bridgeVotingSlashed",
        "offset": 0,
        "slot": "55",
        "type": "t_mapping(t_address,t_mapping(t_uint256,t_bool))"
      },
      {
        "astId": 22242,
        "contract": "contracts/ronin/slash-indicator/SlashIndicator.sol:SlashIndicator",
        "label": "_bridgeVotingThreshold",
        "offset": 0,
        "slot": "56",
        "type": "t_uint256"
      },
      {
        "astId": 22245,
        "contract": "contracts/ronin/slash-indicator/SlashIndicator.sol:SlashIndicator",
        "label": "_bridgeVotingSlashAmount",
        "offset": 0,
        "slot": "57",
        "type": "t_uint256"
      },
      {
        "astId": 22250,
        "contract": "contracts/ronin/slash-indicator/SlashIndicator.sol:SlashIndicator",
        "label": "______gap",
        "offset": 0,
        "slot": "58",
        "type": "t_array(t_uint256)50_storage"
      },
      {
        "astId": 5891,
        "contract": "contracts/ronin/slash-indicator/SlashIndicator.sol:SlashIndicator",
        "label": "_maintenanceContract",
        "offset": 0,
        "slot": "108",
        "type": "t_contract(IMaintenance)9075"
      },
      {
        "astId": 22124,
        "contract": "contracts/ronin/slash-indicator/SlashIndicator.sol:SlashIndicator",
        "label": "_missingVotesRatioTier1",
        "offset": 0,
        "slot": "109",
        "type": "t_uint256"
      },
      {
        "astId": 22127,
        "contract": "contracts/ronin/slash-indicator/SlashIndicator.sol:SlashIndicator",
        "label": "_missingVotesRatioTier2",
        "offset": 0,
        "slot": "110",
        "type": "t_uint256"
      },
      {
        "astId": 22130,
        "contract": "contracts/ronin/slash-indicator/SlashIndicator.sol:SlashIndicator",
        "label": "_jailDurationForMissingVotesRatioTier2",
        "offset": 0,
        "slot": "111",
        "type": "t_uint256"
      },
      {
        "astId": 22135,
        "contract": "contracts/ronin/slash-indicator/SlashIndicator.sol:SlashIndicator",
        "label": "______gap",
        "offset": 0,
        "slot": "112",
        "type": "t_array(t_uint256)50_storage"
      },
      {
        "astId": 22745,
        "contract": "contracts/ronin/slash-indicator/SlashIndicator.sol:SlashIndicator",
        "label": "lastUnavailabilitySlashedBlock",
        "offset": 0,
        "slot": "162",
        "type": "t_uint256"
      },
      {
        "astId": 22752,
        "contract": "contracts/ronin/slash-indicator/SlashIndicator.sol:SlashIndicator",
        "label": "_unavailabilityIndicator",
        "offset": 0,
        "slot": "163",
        "type": "t_mapping(t_address,t_mapping(t_uint256,t_uint256))"
      },
      {
        "astId": 22755,
        "contract": "contracts/ronin/slash-indicator/SlashIndicator.sol:SlashIndicator",
        "label": "_unavailabilityTier1Threshold",
        "offset": 0,
        "slot": "164",
        "type": "t_uint256"
      },
      {
        "astId": 22758,
        "contract": "contracts/ronin/slash-indicator/SlashIndicator.sol:SlashIndicator",
        "label": "_unavailabilityTier2Threshold",
        "offset": 0,
        "slot": "165",
        "type": "t_uint256"
      },
      {
        "astId": 22761,
        "contract": "contracts/ronin/slash-indicator/SlashIndicator.sol:SlashIndicator",
        "label": "_slashAmountForUnavailabilityTier2Threshold",
        "offset": 0,
        "slot": "166",
        "type": "t_uint256"
      },
      {
        "astId": 22764,
        "contract": "contracts/ronin/slash-indicator/SlashIndicator.sol:SlashIndicator",
        "label": "_jailDurationForUnavailabilityTier2Threshold",
        "offset": 0,
        "slot": "167",
        "type": "t_uint256"
      },
      {
        "astId": 22769,
        "contract": "contracts/ronin/slash-indicator/SlashIndicator.sol:SlashIndicator",
        "label": "______gap",
        "offset": 0,
        "slot": "168",
        "type": "t_array(t_uint256)50_storage"
      },
      {
        "astId": 21639,
        "contract": "contracts/ronin/slash-indicator/SlashIndicator.sol:SlashIndicator",
        "label": "_bailedOutAtPeriod",
        "offset": 0,
        "slot": "218",
        "type": "t_mapping(t_address,t_mapping(t_uint256,t_bool))"
      },
      {
        "astId": 21644,
        "contract": "contracts/ronin/slash-indicator/SlashIndicator.sol:SlashIndicator",
        "label": "_creditScore",
        "offset": 0,
        "slot": "219",
        "type": "t_mapping(t_address,t_uint256)"
      },
      {
        "astId": 21647,
        "contract": "contracts/ronin/slash-indicator/SlashIndicator.sol:SlashIndicator",
        "label": "gainCreditScore",
        "offset": 0,
        "slot": "220",
        "type": "t_uint256"
      },
      {
        "astId": 21650,
        "contract": "contracts/ronin/slash-indicator/SlashIndicator.sol:SlashIndicator",
        "label": "maxCreditScore",
        "offset": 0,
        "slot": "221",
        "type": "t_uint256"
      },
      {
        "astId": 21653,
        "contract": "contracts/ronin/slash-indicator/SlashIndicator.sol:SlashIndicator",
        "label": "bailOutCostMultiplier",
        "offset": 0,
        "slot": "222",
        "type": "t_uint256"
      },
      {
        "astId": 21656,
        "contract": "contracts/ronin/slash-indicator/SlashIndicator.sol:SlashIndicator",
        "label": "cutOffPercentageAfterBailout",
        "offset": 0,
        "slot": "223",
        "type": "t_uint256"
      },
      {
        "astId": 21661,
        "contract": "contracts/ronin/slash-indicator/SlashIndicator.sol:SlashIndicator",
        "label": "______gap",
        "offset": 0,
        "slot": "224",
        "type": "t_array(t_uint256)50_storage"
      },
      {
        "astId": 1373,
        "contract": "contracts/ronin/slash-indicator/SlashIndicator.sol:SlashIndicator",
        "label": "_initialized",
        "offset": 0,
        "slot": "274",
        "type": "t_uint8"
      },
      {
        "astId": 1376,
        "contract": "contracts/ronin/slash-indicator/SlashIndicator.sol:SlashIndicator",
        "label": "_initializing",
        "offset": 1,
        "slot": "274",
        "type": "t_bool"
      }
    ],
    "types": {
      "t_address": {
        "encoding": "inplace",
        "label": "address",
        "numberOfBytes": "20"
      },
      "t_array(t_uint256)50_storage": {
        "base": "t_uint256",
        "encoding": "inplace",
        "label": "uint256[50]",
        "numberOfBytes": "1600"
      },
      "t_bool": {
        "encoding": "inplace",
        "label": "bool",
        "numberOfBytes": "1"
      },
      "t_contract(IMaintenance)9075": {
        "encoding": "inplace",
        "label": "contract IMaintenance",
        "numberOfBytes": "20"
      },
      "t_contract(IRoninGovernanceAdmin)9330": {
        "encoding": "inplace",
        "label": "contract IRoninGovernanceAdmin",
        "numberOfBytes": "20"
      },
      "t_contract(IRoninTrustedOrganization)9509": {
        "encoding": "inplace",
        "label": "contract IRoninTrustedOrganization",
        "numberOfBytes": "20"
      },
      "t_contract(IRoninValidatorSet)10851": {
        "encoding": "inplace",
        "label": "contract IRoninValidatorSet",
        "numberOfBytes": "20"
      },
      "t_mapping(t_address,t_mapping(t_uint256,t_bool))": {
        "encoding": "mapping",
        "key": "t_address",
        "label": "mapping(address => mapping(uint256 => bool))",
        "numberOfBytes": "32",
        "value": "t_mapping(t_uint256,t_bool)"
      },
      "t_mapping(t_address,t_mapping(t_uint256,t_uint256))": {
        "encoding": "mapping",
        "key": "t_address",
        "label": "mapping(address => mapping(uint256 => uint256))",
        "numberOfBytes": "32",
        "value": "t_mapping(t_uint256,t_uint256)"
      },
      "t_mapping(t_address,t_uint256)": {
        "encoding": "mapping",
        "key": "t_address",
        "label": "mapping(address => uint256)",
        "numberOfBytes": "32",
        "value": "t_uint256"
      },
      "t_mapping(t_uint256,t_bool)": {
        "encoding": "mapping",
        "key": "t_uint256",
        "label": "mapping(uint256 => bool)",
        "numberOfBytes": "32",
        "value": "t_bool"
      },
      "t_mapping(t_uint256,t_uint256)": {
        "encoding": "mapping",
        "key": "t_uint256",
        "label": "mapping(uint256 => uint256)",
        "numberOfBytes": "32",
        "value": "t_uint256"
      },
      "t_uint256": {
        "encoding": "inplace",
        "label": "uint256",
        "numberOfBytes": "32"
      },
      "t_uint8": {
        "encoding": "inplace",
        "label": "uint8",
        "numberOfBytes": "1"
      }
    }
  }
}