{
  "address": "0xfe054b9e34f0C3CaB2043e289D646b3a98538AC9",
  "abi": [
    {
      "inputs": [],
      "stateMutability": "nonpayable",
      "type": "constructor"
    },
    {
      "inputs": [],
      "name": "ErrCallPrecompiled",
      "type": "error"
    },
    {
      "inputs": [],
      "name": "ErrCallerMustBeJailedInTheCurrentPeriod",
      "type": "error"
    },
    {
      "inputs": [],
      "name": "ErrCannotSlashAValidatorTwiceOrSlashMoreThanOneValidatorInOneBlock",
      "type": "error"
    },
    {
      "inputs": [
        {
          "internalType": "enum ContractType",
          "name": "contractType",
          "type": "uint8"
        }
      ],
      "name": "ErrContractTypeNotFound",
      "type": "error"
    },
    {
      "inputs": [],
      "name": "ErrEvidenceAlreadySubmitted",
      "type": "error"
    },
    {
      "inputs": [],
      "name": "ErrInsufficientCreditScoreToBailOut",
      "type": "error"
    },
    {
      "inputs": [],
      "name": "ErrInvalidCreditScoreConfig",
      "type": "error"
    },
    {
      "inputs": [],
      "name": "ErrInvalidCutOffPercentageConfig",
      "type": "error"
    },
    {
      "inputs": [],
      "name": "ErrInvalidRatios",
      "type": "error"
    },
    {
      "inputs": [],
      "name": "ErrInvalidSlash",
      "type": "error"
    },
    {
      "inputs": [
        {
          "internalType": "bytes4",
          "name": "msgSig",
          "type": "bytes4"
        }
      ],
      "name": "ErrInvalidThreshold",
      "type": "error"
    },
    {
      "inputs": [
        {
          "internalType": "bytes4",
          "name": "msgSig",
          "type": "bytes4"
        },
        {
          "internalType": "enum RoleAccess",
          "name": "expectedRole",
          "type": "uint8"
        }
      ],
      "name": "ErrUnauthorized",
      "type": "error"
    },
    {
      "inputs": [
        {
          "internalType": "bytes4",
          "name": "msgSig",
          "type": "bytes4"
        },
        {
          "internalType": "enum ContractType",
          "name": "expectedContractType",
          "type": "uint8"
        },
        {
          "internalType": "address",
          "name": "actual",
          "type": "address"
        }
      ],
      "name": "ErrUnexpectedInternalCall",
      "type": "error"
    },
    {
      "inputs": [],
      "name": "ErrValidatorHasBailedOutPreviously",
      "type": "error"
    },
    {
      "inputs": [
        {
          "internalType": "address",
          "name": "addr",
          "type": "address"
        }
      ],
      "name": "ErrZeroCodeContract",
      "type": "error"
    },
    {
      "anonymous": false,
      "inputs": [
        {
          "indexed": true,
          "internalType": "address",
          "name": "validator",
          "type": "address"
        },
        {
          "indexed": false,
          "internalType": "uint256",
          "name": "period",
          "type": "uint256"
        },
        {
          "indexed": false,
          "internalType": "uint256",
          "name": "usedCreditScore",
          "type": "uint256"
        }
      ],
      "name": "BailedOut",
      "type": "event"
    },
    {
      "anonymous": false,
      "inputs": [
        {
          "indexed": false,
          "internalType": "uint256",
          "name": "missingVotesRatioTier1",
          "type": "uint256"
        },
        {
          "indexed": false,
          "internalType": "uint256",
          "name": "missingVotesRatioTier2",
          "type": "uint256"
        },
        {
          "indexed": false,
          "internalType": "uint256",
          "name": "jailDurationForMissingVotesRatioTier2",
          "type": "uint256"
        },
        {
          "indexed": false,
          "internalType": "uint256",
          "name": "skipBridgeOperatorSlashingThreshold",
          "type": "uint256"
        }
      ],
      "name": "BridgeOperatorSlashingConfigsUpdated",
      "type": "event"
    },
    {
      "anonymous": false,
      "inputs": [
        {
          "indexed": false,
          "internalType": "uint256",
          "name": "bridgeVotingThreshold",
          "type": "uint256"
        },
        {
          "indexed": false,
          "internalType": "uint256",
          "name": "bridgeVotingSlashAmount",
          "type": "uint256"
        }
      ],
      "name": "BridgeVotingSlashingConfigsUpdated",
      "type": "event"
    },
    {
      "anonymous": false,
      "inputs": [
        {
          "indexed": true,
          "internalType": "enum ContractType",
          "name": "contractType",
          "type": "uint8"
        },
        {
          "indexed": true,
          "internalType": "address",
          "name": "addr",
          "type": "address"
        }
      ],
      "name": "ContractUpdated",
      "type": "event"
    },
    {
      "anonymous": false,
      "inputs": [
        {
          "indexed": false,
          "internalType": "uint256",
          "name": "gainCreditScore",
          "type": "uint256"
        },
        {
          "indexed": false,
          "internalType": "uint256",
          "name": "maxCreditScore",
          "type": "uint256"
        },
        {
          "indexed": false,
          "internalType": "uint256",
          "name": "bailOutCostMultiplier",
          "type": "uint256"
        },
        {
          "indexed": false,
          "internalType": "uint256",
          "name": "cutOffPercentageAfterBailout",
          "type": "uint256"
        }
      ],
      "name": "CreditScoreConfigsUpdated",
      "type": "event"
    },
    {
      "anonymous": false,
      "inputs": [
        {
          "indexed": false,
          "internalType": "address[]",
          "name": "validators",
          "type": "address[]"
        },
        {
          "indexed": false,
          "internalType": "uint256[]",
          "name": "creditScores",
          "type": "uint256[]"
        }
      ],
      "name": "CreditScoresUpdated",
      "type": "event"
    },
    {
      "anonymous": false,
      "inputs": [
        {
          "indexed": false,
          "internalType": "uint256",
          "name": "slashDoubleSignAmount",
          "type": "uint256"
        },
        {
          "indexed": false,
          "internalType": "uint256",
          "name": "doubleSigningJailUntilBlock",
          "type": "uint256"
        },
        {
          "indexed": false,
          "internalType": "uint256",
          "name": "doubleSigningOffsetLimitBlock",
          "type": "uint256"
        }
      ],
      "name": "DoubleSignSlashingConfigsUpdated",
      "type": "event"
    },
    {
      "anonymous": false,
      "inputs": [
        {
          "indexed": false,
          "internalType": "uint8",
          "name": "version",
          "type": "uint8"
        }
      ],
      "name": "Initialized",
      "type": "event"
    },
    {
      "anonymous": false,
      "inputs": [
        {
          "indexed": true,
          "internalType": "address",
          "name": "validator",
          "type": "address"
        },
        {
          "indexed": false,
          "internalType": "enum IBaseSlash.SlashType",
          "name": "slashType",
          "type": "uint8"
        },
        {
          "indexed": false,
          "internalType": "uint256",
          "name": "period",
          "type": "uint256"
        }
      ],
      "name": "Slashed",
      "type": "event"
    },
    {
      "anonymous": false,
      "inputs": [
        {
          "indexed": false,
          "internalType": "uint256",
          "name": "unavailabilityTier1Threshold",
          "type": "uint256"
        },
        {
          "indexed": false,
          "internalType": "uint256",
          "name": "unavailabilityTier2Threshold",
          "type": "uint256"
        },
        {
          "indexed": false,
          "internalType": "uint256",
          "name": "slashAmountForUnavailabilityTier2Threshold",
          "type": "uint256"
        },
        {
          "indexed": false,
          "internalType": "uint256",
          "name": "jailDurationForUnavailabilityTier2Threshold",
          "type": "uint256"
        }
      ],
      "name": "UnavailabilitySlashingConfigsUpdated",
      "type": "event"
    },
    {
      "inputs": [
        {
          "internalType": "address",
          "name": "_consensusAddr",
          "type": "address"
        }
      ],
      "name": "bailOut",
      "outputs": [],
      "stateMutability": "nonpayable",
      "type": "function"
    },
    {
      "inputs": [
        {
          "internalType": "address",
          "name": "_validator",
          "type": "address"
        },
        {
          "internalType": "uint256",
          "name": "_period",
          "type": "uint256"
        }
      ],
      "name": "checkBailedOutAtPeriod",
      "outputs": [
        {
          "internalType": "bool",
          "name": "",
          "type": "bool"
        }
      ],
      "stateMutability": "view",
      "type": "function"
    },
    {
      "inputs": [
        {
          "internalType": "address",
          "name": "_validator",
          "type": "address"
        }
      ],
      "name": "currentUnavailabilityIndicator",
      "outputs": [
        {
          "internalType": "uint256",
          "name": "",
          "type": "uint256"
        }
      ],
      "stateMutability": "view",
      "type": "function"
    },
    {
      "inputs": [
        {
          "internalType": "address[]",
          "name": "_validators",
          "type": "address[]"
        }
      ],
      "name": "execResetCreditScores",
      "outputs": [],
      "stateMutability": "nonpayable",
      "type": "function"
    },
    {
      "inputs": [
        {
          "internalType": "address",
          "name": "_consensusAddr",
          "type": "address"
        },
        {
          "internalType": "uint256",
          "name": "_tier",
          "type": "uint256"
        },
        {
          "internalType": "uint256",
          "name": "_period",
          "type": "uint256"
        }
      ],
      "name": "execSlashBridgeOperator",
      "outputs": [],
      "stateMutability": "nonpayable",
      "type": "function"
    },
    {
      "inputs": [],
      "name": "getBridgeOperatorSlashingConfigs",
      "outputs": [
        {
          "internalType": "uint256",
          "name": "missingVotesRatioTier1_",
          "type": "uint256"
        },
        {
          "internalType": "uint256",
          "name": "missingVotesRatioTier2_",
          "type": "uint256"
        },
        {
          "internalType": "uint256",
          "name": "jailDurationForMissingVotesRatioTier2_",
          "type": "uint256"
        },
        {
          "internalType": "uint256",
          "name": "skipBridgeOperatorSlashingThreshold_",
          "type": "uint256"
        }
      ],
      "stateMutability": "view",
      "type": "function"
    },
    {
      "inputs": [],
      "name": "getBridgeVotingSlashingConfigs",
      "outputs": [
        {
          "internalType": "uint256",
          "name": "bridgeVotingThreshold_",
          "type": "uint256"
        },
        {
          "internalType": "uint256",
          "name": "bridgeVotingSlashAmount_",
          "type": "uint256"
        }
      ],
      "stateMutability": "view",
      "type": "function"
    },
    {
      "inputs": [
        {
          "internalType": "enum ContractType",
          "name": "contractType",
          "type": "uint8"
        }
      ],
      "name": "getContract",
      "outputs": [
        {
          "internalType": "address",
          "name": "contract_",
          "type": "address"
        }
      ],
      "stateMutability": "view",
      "type": "function"
    },
    {
      "inputs": [
        {
          "internalType": "address",
          "name": "_validator",
          "type": "address"
        }
      ],
      "name": "getCreditScore",
      "outputs": [
        {
          "internalType": "uint256",
          "name": "",
          "type": "uint256"
        }
      ],
      "stateMutability": "view",
      "type": "function"
    },
    {
      "inputs": [],
      "name": "getCreditScoreConfigs",
      "outputs": [
        {
          "internalType": "uint256",
          "name": "gainCreditScore_",
          "type": "uint256"
        },
        {
          "internalType": "uint256",
          "name": "maxCreditScore_",
          "type": "uint256"
        },
        {
          "internalType": "uint256",
          "name": "bailOutCostMultiplier_",
          "type": "uint256"
        },
        {
          "internalType": "uint256",
          "name": "cutOffPercentageAfterBailout_",
          "type": "uint256"
        }
      ],
      "stateMutability": "view",
      "type": "function"
    },
    {
      "inputs": [],
      "name": "getDoubleSignSlashingConfigs",
      "outputs": [
        {
          "internalType": "uint256",
          "name": "slashDoubleSignAmount_",
          "type": "uint256"
        },
        {
          "internalType": "uint256",
          "name": "doubleSigningJailUntilBlock_",
          "type": "uint256"
        },
        {
          "internalType": "uint256",
          "name": "doubleSigningOffsetLimitBlock_",
          "type": "uint256"
        }
      ],
      "stateMutability": "view",
      "type": "function"
    },
    {
      "inputs": [
        {
          "internalType": "address[]",
          "name": "_validators",
          "type": "address[]"
        }
      ],
      "name": "getManyCreditScores",
      "outputs": [
        {
          "internalType": "uint256[]",
          "name": "_resultList",
          "type": "uint256[]"
        }
      ],
      "stateMutability": "view",
      "type": "function"
    },
    {
      "inputs": [
        {
          "internalType": "address",
          "name": "_validator",
          "type": "address"
        },
        {
          "internalType": "uint256",
          "name": "_period",
          "type": "uint256"
        }
      ],
      "name": "getUnavailabilityIndicator",
      "outputs": [
        {
          "internalType": "uint256",
          "name": "",
          "type": "uint256"
        }
      ],
      "stateMutability": "view",
      "type": "function"
    },
    {
      "inputs": [],
      "name": "getUnavailabilitySlashingConfigs",
      "outputs": [
        {
          "internalType": "uint256",
          "name": "unavailabilityTier1Threshold_",
          "type": "uint256"
        },
        {
          "internalType": "uint256",
          "name": "unavailabilityTier2Threshold_",
          "type": "uint256"
        },
        {
          "internalType": "uint256",
          "name": "slashAmountForUnavailabilityTier2Threshold_",
          "type": "uint256"
        },
        {
          "internalType": "uint256",
          "name": "jailDurationForUnavailabilityTier2Threshold_",
          "type": "uint256"
        }
      ],
      "stateMutability": "view",
      "type": "function"
    },
    {
      "inputs": [
        {
          "internalType": "address",
          "name": "__validatorContract",
          "type": "address"
        },
        {
          "internalType": "address",
          "name": "__maintenanceContract",
          "type": "address"
        },
        {
          "internalType": "address",
          "name": "__roninTrustedOrganizationContract",
          "type": "address"
        },
        {
          "internalType": "address",
          "name": "__roninGovernanceAdminContract",
          "type": "address"
        },
        {
          "internalType": "uint256[4]",
          "name": "_bridgeOperatorSlashingConfigs",
          "type": "uint256[4]"
        },
        {
          "internalType": "uint256[2]",
          "name": "_bridgeVotingSlashingConfigs",
          "type": "uint256[2]"
        },
        {
          "internalType": "uint256[3]",
          "name": "_doubleSignSlashingConfigs",
          "type": "uint256[3]"
        },
        {
          "internalType": "uint256[4]",
          "name": "_unavailabilitySlashingConfigs",
          "type": "uint256[4]"
        },
        {
          "internalType": "uint256[4]",
          "name": "_creditScoreConfigs",
          "type": "uint256[4]"
        }
      ],
      "name": "initialize",
      "outputs": [],
      "stateMutability": "nonpayable",
      "type": "function"
    },
    {
      "inputs": [
        {
          "internalType": "address",
          "name": "roninGovernanceAdminContract",
          "type": "address"
        }
      ],
      "name": "initializeV2",
      "outputs": [],
      "stateMutability": "nonpayable",
      "type": "function"
    },
    {
      "inputs": [],
      "name": "lastUnavailabilitySlashedBlock",
      "outputs": [
        {
          "internalType": "uint256",
          "name": "",
          "type": "uint256"
        }
      ],
      "stateMutability": "view",
      "type": "function"
    },
    {
      "inputs": [],
      "name": "precompileValidateDoubleSignAddress",
      "outputs": [
        {
          "internalType": "address",
          "name": "",
          "type": "address"
        }
      ],
      "stateMutability": "view",
      "type": "function"
    },
    {
      "inputs": [
        {
          "internalType": "uint256",
          "name": "_ratioTier1",
          "type": "uint256"
        },
        {
          "internalType": "uint256",
          "name": "_ratioTier2",
          "type": "uint256"
        },
        {
          "internalType": "uint256",
          "name": "_jailDurationTier2",
          "type": "uint256"
        },
        {
          "internalType": "uint256",
          "name": "_skipSlashingThreshold",
          "type": "uint256"
        }
      ],
      "name": "setBridgeOperatorSlashingConfigs",
      "outputs": [],
      "stateMutability": "nonpayable",
      "type": "function"
    },
    {
      "inputs": [
        {
          "internalType": "uint256",
          "name": "_threshold",
          "type": "uint256"
        },
        {
          "internalType": "uint256",
          "name": "_slashAmount",
          "type": "uint256"
        }
      ],
      "name": "setBridgeVotingSlashingConfigs",
      "outputs": [],
      "stateMutability": "nonpayable",
      "type": "function"
    },
    {
      "inputs": [
        {
          "internalType": "enum ContractType",
          "name": "contractType",
          "type": "uint8"
        },
        {
          "internalType": "address",
          "name": "addr",
          "type": "address"
        }
      ],
      "name": "setContract",
      "outputs": [],
      "stateMutability": "nonpayable",
      "type": "function"
    },
    {
      "inputs": [
        {
          "internalType": "uint256",
          "name": "_gainScore",
          "type": "uint256"
        },
        {
          "internalType": "uint256",
          "name": "_maxScore",
          "type": "uint256"
        },
        {
          "internalType": "uint256",
          "name": "_bailOutMultiplier",
          "type": "uint256"
        },
        {
          "internalType": "uint256",
          "name": "_cutOffPercentage",
          "type": "uint256"
        }
      ],
      "name": "setCreditScoreConfigs",
      "outputs": [],
      "stateMutability": "nonpayable",
      "type": "function"
    },
    {
      "inputs": [
        {
          "internalType": "uint256",
          "name": "_slashAmount",
          "type": "uint256"
        },
        {
          "internalType": "uint256",
          "name": "_jailUntilBlock",
          "type": "uint256"
        },
        {
          "internalType": "uint256",
          "name": "_offsetLimitBlock",
          "type": "uint256"
        }
      ],
      "name": "setDoubleSignSlashingConfigs",
      "outputs": [],
      "stateMutability": "nonpayable",
      "type": "function"
    },
    {
      "inputs": [
        {
          "internalType": "uint256",
          "name": "_tier1Threshold",
          "type": "uint256"
        },
        {
          "internalType": "uint256",
          "name": "_tier2Threshold",
          "type": "uint256"
        },
        {
          "internalType": "uint256",
          "name": "_slashAmountForTier2Threshold",
          "type": "uint256"
        },
        {
          "internalType": "uint256",
          "name": "_jailDurationForTier2Threshold",
          "type": "uint256"
        }
      ],
      "name": "setUnavailabilitySlashingConfigs",
      "outputs": [],
      "stateMutability": "nonpayable",
      "type": "function"
    },
    {
      "inputs": [
        {
          "internalType": "address",
          "name": "_consensusAddr",
          "type": "address"
        }
      ],
      "name": "slashBridgeVoting",
      "outputs": [],
      "stateMutability": "nonpayable",
      "type": "function"
    },
    {
      "inputs": [
        {
          "internalType": "address",
          "name": "_consensusAddr",
          "type": "address"
        },
        {
          "internalType": "bytes",
          "name": "_header1",
          "type": "bytes"
        },
        {
          "internalType": "bytes",
          "name": "_header2",
          "type": "bytes"
        }
      ],
      "name": "slashDoubleSign",
      "outputs": [],
      "stateMutability": "nonpayable",
      "type": "function"
    },
    {
      "inputs": [
        {
          "internalType": "address",
          "name": "_validatorAddr",
          "type": "address"
        }
      ],
      "name": "slashUnavailability",
      "outputs": [],
      "stateMutability": "nonpayable",
      "type": "function"
    },
    {
      "inputs": [
        {
          "internalType": "address[]",
          "name": "_validators",
          "type": "address[]"
        },
        {
          "internalType": "uint256",
          "name": "_period",
          "type": "uint256"
        }
      ],
      "name": "updateCreditScores",
      "outputs": [],
      "stateMutability": "nonpayable",
      "type": "function"
    }
  ],
  "transactionHash": "0x3e0ca970986fe4b58fd0cdc8d9bd4e98dd03eef925ba83cf177410d62778ed19",
  "args": [],
  "numDeployments": 7,
  "solcInputHash": "6bc16cc8f779fe2f1f4f2733e87f867e",
  "bytecode": "0x60806040523480156200001157600080fd5b506200001c62000022565b620000e7565b61011354610100900460ff1615620000905760405162461bcd60e51b815260206004820152602760248201527f496e697469616c697a61626c653a20636f6e747261637420697320696e697469604482015266616c697a696e6760c81b606482015260840160405180910390fd5b6101135460ff9081161015620000e557610113805460ff191660ff9081179091556040519081527f7f26b83ff96e1f2b6a682f133852f6798a09c465da95921460cefb38474024989060200160405180910390a15b565b6128f080620000f76000396000f3fe608060405234801561001057600080fd5b50600436106101c45760003560e01c806399103f7b116100f9578063d1f992f711610097578063df4b6ee011610071578063df4b6ee0146103f2578063f1001e7814610416578063f562b3c414610436578063fd422cd01461043f57600080fd5b8063d1f992f7146103a3578063d3dd2bdf146103b6578063de981f1b146103df57600080fd5b8063c6391fa2116100d3578063c6391fa214610359578063ccbb72ed1461036a578063cf39d13c1461037d578063d1737e271461039057600080fd5b806399103f7b14610318578063c008ce391461032b578063c2e524dc1461033e57600080fd5b806329ddc3c0116101665780637680850c116101405780637680850c146102c45780637c2b55a0146102d7578063853af1b7146102f2578063865e6fd31461030557600080fd5b806329ddc3c01461027d5780633d48fd7d146102a057806362ffe6cb146102b157600080fd5b80631079402a116101a25780631079402a146102175780631a697341146102445780631e90b2a01461025757806329b6eca91461026a57600080fd5b806307c2d2f6146101c9578063082e7420146101de5780630e1512ac14610204575b600080fd5b6101dc6101d7366004612030565b610452565b005b6101f16101ec366004612087565b610560565b6040519081526020015b60405180910390f35b6101dc6102123660046120a4565b6105d7565b606d54606e54606f546070545b6040805194855260208501939093529183015260608201526080016101fb565b6101dc610252366004612087565b6105f1565b6101dc610265366004612118565b610892565b6101dc610278366004612087565b610a7a565b61029061028b36600461219b565b610b9e565b60405190151581526020016101fb565b60a55460a65460a75460a854610224565b6101f16102bf36600461219b565b610bcd565b6101dc6102d23660046121c7565b610bf6565b60675b6040516001600160a01b0390911681526020016101fb565b6101dc610300366004612213565b610f0d565b6101dc610313366004612244565b610f23565b6101dc61032636600461228c565b610f3e565b6101dc610339366004612350565b6110a9565b603854603954604080519283526020830191909152016101fb565b60dd5460de5460df5460e054610224565b6101dc6103783660046120a4565b611133565b6101dc61038b366004612385565b611147565b6101dc61039e3660046120a4565b61115f565b6101dc6103b1366004612087565b611173565b6101f16103c4366004612087565b6001600160a01b0316600090815260dc602052604090205490565b6102da6103ed3660046123b1565b611562565b600154600254600354604080519384526020840192909252908201526060016101fb565b610429610424366004612030565b6115dd565b6040516101fb9190612407565b6101f160a35481565b6101dc61044d366004612087565b6116a8565b600861045d816119bc565b60008267ffffffffffffffff8111156104785761047861241a565b6040519080825280602002602001820160405280156104a1578160200160208202803683370190505b50905060005b8381101561051e5760008585838181106104c3576104c3612430565b90506020020160208101906104d89190612087565b6001600160a01b038116600090815260dc6020526040812055835190915083908390811061050857610508612430565b60006020918202929092010152506001016104a7565b507f8c02b2ccee964dc50649a48bd0a0446f0f9e88ecdb72d099f4ace07c39c2348084848360405161055293929190612484565b60405180910390a150505050565b60006105d1826105706008611562565b6001600160a01b031663060406186040518163ffffffff1660e01b8152600401602060405180830381865afa1580156105ad573d6000803e3d6000fd5b505050506040513d601f19601f820116820180604052508101906102bf91906124b4565b92915050565b6105df611a08565b6105eb84848484611a64565b50505050565b6105f9611a08565b6000610605600a611562565b604051636db349d160e11b81526001600160a01b038481166004830152919091169063db6693a29060240160a060405180830381865afa15801561064d573d6000803e3d6000fd5b505050506040513d601f19601f8201168201806040525081019061067191906124fe565b905060006106fb6106826004611562565b6040808501519051632623bd4f60e21b81526001600160a01b03918216600482015291169063988ef53c90602401602060405180830381865afa1580156106cd573d6000803e3d6000fd5b505050506040513d601f19601f820116820180604052508101906106f191906124b4565b8360800151611af6565b905060006107096008611562565b90506000816001600160a01b031663060406186040518163ffffffff1660e01b8152600401602060405180830381865afa15801561074b573d6000803e3d6000fd5b505050506040513d601f19601f8201168201806040525081019061076f91906124b4565b60385490915061077f844361259c565b1115806107af57506001600160a01b038516600090815260376020908152604080832084845290915290205460ff165b156107cd57604051632e308a0b60e11b815260040160405180910390fd5b6001600160a01b038516600081815260376020908152604080832085845290915290819020805460ff19166001179055516000805160206128c48339815191529061081c9060049085906125c5565b60405180910390a2603954604051630bde081360e21b81526001600160a01b03841691632f78204c916108599189916000919082906004016125e3565b600060405180830381600087803b15801561087357600080fd5b505af1158015610887573d6000803e3d6000fd5b505050505050505050565b61089a611a08565b600084846040516108ac92919061260b565b60405180910390209050600083836040516108c892919061260b565b604080519182900390912060008481526004602052919091205490915060ff1680610901575060008181526004602052604090205460ff165b1561091f5760405163f27b8ec960e01b815260040160405180910390fd5b61092c8787878787611b0d565b15610a7157600061093d6008611562565b90506000816001600160a01b031663060406186040518163ffffffff1660e01b8152600401602060405180830381865afa15801561097f573d6000803e3d6000fd5b505050506040513d601f19601f820116820180604052508101906109a391906124b4565b6000858152600460205260408082208054600160ff19918216811790925587845292829020805490931617909155519091506001600160a01b038a16906000805160206128c4833981519152906109fe9060039085906125c5565b60405180910390a260025460018054604051630bde081360e21b81526001600160a01b03861693632f78204c93610a3c938f939091906004016125e3565b600060405180830381600087803b158015610a5657600080fd5b505af1158015610a6a573d6000803e3d6000fd5b5050505050505b50505050505050565b61011354600290610100900460ff16158015610a9e57506101135460ff8083169116105b610ac35760405162461bcd60e51b8152600401610aba9061261b565b60405180910390fd5b610113805461ffff191660ff831617610100179055600054610af0906008906001600160a01b0316611bb7565b606c54610b08906005906001600160a01b0316611bb7565b610b13600483611bb7565b603554610b2b90600a906001600160a01b0316611bb7565b600080546001600160a01b0319908116909155606c8054821690556035805482169055603680549091169055610113805461ff001916905560405160ff821681527f7f26b83ff96e1f2b6a682f133852f6798a09c465da95921460cefb3847402498906020015b60405180910390a15050565b6001600160a01b038216600090815260db6020908152604080832084845290915281205460ff165b9392505050565b6001600160a01b038216600090815260a460209081526040808320848452909152812054610bc6565b6008610c01816119bc565b60003390506000816001600160a01b031663297a8fca6040518163ffffffff1660e01b8152600401602060405180830381865afa158015610c46573d6000803e3d6000fd5b505050506040513d601f19601f82011682018060405250810190610c6a91906124b4565b90506000826001600160a01b0316634de2b73588886040518363ffffffff1660e01b8152600401610c9c929190612669565b600060405180830381865afa158015610cb9573d6000803e3d6000fd5b505050506040513d6000823e601f3d908101601f19168201604052610ce1919081019061268d565b90506000610cef6005611562565b6001600160a01b031663ba303755898986436040518563ffffffff1660e01b8152600401610d20949392919061273a565b600060405180830381865afa158015610d3d573d6000803e3d6000fd5b505050506040513d6000823e601f3d908101601f19168201604052610d65919081019061268d565b905060008767ffffffffffffffff811115610d8257610d8261241a565b604051908082528060200260200182016040528015610dab578160200160208202803683370190505b50905060005b88811015610ec65760008a8a83818110610dcd57610dcd612430565b9050602002016020810190610de29190612087565b90506000610df0828b610bcd565b90506000868481518110610e0657610e06612430565b602002602001015190506000868581518110610e2457610e24612430565b6020026020010151905060008280610e395750815b610e4e57610e4960dd5485611c5b565b610e51565b60005b6001600160a01b038616600090815260dc602052604090205460de54919250610e7b918390611c75565b6001600160a01b038616600090815260dc602052604090208190558751889088908110610eaa57610eaa612430565b6020026020010181815250508560010195505050505050610db1565b507f8c02b2ccee964dc50649a48bd0a0446f0f9e88ecdb72d099f4ace07c39c23480898983604051610efa93929190612484565b60405180910390a1505050505050505050565b610f15611a08565b610f1f8282611c92565b5050565b610f2b611a08565b610f3481611cd2565b610f1f8282611bb7565b61011354610100900460ff1615808015610f60575061011354600160ff909116105b80610f7b5750303b158015610f7b57506101135460ff166001145b610f975760405162461bcd60e51b8152600401610aba9061261b565b610113805460ff191660011790558015610fbc57610113805461ff0019166101001790555b610fc760088b611bb7565b610fd260058a611bb7565b610fdd600488611bb7565b610fe8600a89611bb7565b61100186356020880135604089013560608a0135611a64565b61101085356020870135611c92565b611024843560208601356040870135611d08565b61103d8335602085013560408601356060870135611d5d565b6110568235602084013560408501356060860135611de9565b801561109d57610113805461ff0019169055604051600181527f7f26b83ff96e1f2b6a682f133852f6798a09c465da95921460cefb38474024989060200160405180910390a15b50505050505050505050565b60086110b4816119bc565b826001036110f357836001600160a01b03166000805160206128c48339815191526005846040516110e69291906125c5565b60405180910390a26105eb565b826002036105eb57836001600160a01b03166000805160206128c48339815191526006846040516111259291906125c5565b60405180910390a250505050565b61113b611a08565b6105eb84848484611de9565b61114f611a08565b61115a838383611d08565b505050565b611167611a08565b6105eb84848484611d5d565b600061117f6008611562565b604051635061f96960e11b81526001600160a01b0384811660048301529192509082169063a0c3f2d290602401602060405180830381865afa1580156111c9573d6000803e3d6000fd5b505050506040513d601f19601f820116820180604052508101906111ed9190612761565b61121a576000356001600160e01b0319166008604051620f948f60ea1b8152600401610aba92919061277c565b6040516304d971ab60e01b81526001600160a01b0383811660048301523360248301528216906304d971ab90604401602060405180830381865afa158015611266573d6000803e3d6000fd5b505050506040513d601f19601f8201168201806040525081019061128a9190612761565b6112b7576000356001600160e01b0319166004604051620f948f60ea1b8152600401610aba92919061277c565b604051634b2c2fe160e11b81526001600160a01b03838116600483015260009182918416906396585fc290602401606060405180830381865afa158015611302573d6000803e3d6000fd5b505050506040513d601f19601f8201168201806040525081019061132691906127aa565b92505091508161134957604051636cd31b5960e01b815260040160405180910390fd5b6000836001600160a01b031663060406186040518163ffffffff1660e01b8152600401602060405180830381865afa158015611389573d6000803e3d6000fd5b505050506040513d601f19601f820116820180604052508101906113ad91906124b4565b6001600160a01b038616600090815260db6020908152604080832084845290915290205490915060ff16156113f557604051637674d6a960e01b815260040160405180910390fd5b6001600160a01b038516600090815260dc602052604081205460df5490919061141e90856127df565b9050808210156114415760405163462e593760e11b815260040160405180910390fd5b604051630adaf5ef60e11b81526001600160a01b038881166004830152602482018590528716906315b5ebde90604401600060405180830381600087803b15801561148b57600080fd5b505af115801561149f573d6000803e3d6000fd5b505050506001600160a01b038716600090815260dc6020526040812080548392906114cb90849061259c565b90915550506001600160a01b038716600090815260a4602090815260408083208684529091528120556001600160a01b038716600081815260db60209081526040808320878452825291829020805460ff1916600117905581518681529081018490527f7ff9f7032d565c7e8919332964b2faa33c320b53604a65d9dd1f8112e12cd39d910160405180910390a250505050505050565b60007fdea3103d22025c269050bea94c0c84688877f12fa22b7e6d2d5d78a9a49aa1cb600083600a811115611599576115996125af565b60ff1681526020810191909152604001600020546001600160a01b03169050806115d8578160405163409140df60e11b8152600401610aba919061280a565b919050565b60608167ffffffffffffffff8111156115f8576115f861241a565b604051908082528060200260200182016040528015611621578160200160208202803683370190505b50905060005b81518110156116a15760dc600085858481811061164657611646612430565b905060200201602081019061165b9190612087565b6001600160a01b03166001600160a01b031681526020019081526020016000205482828151811061168e5761168e612430565b6020908102919091010152600101611627565b5092915050565b60a35443116116ca5760405163557fd09160e01b815260040160405180910390fd5b4360a3553341146116fe576000356001600160e01b0319166002604051620f948f60ea1b8152600401610aba92919061277c565b61170781611e86565b156119b95760006117186008611562565b90506000816001600160a01b031663060406186040518163ffffffff1660e01b8152600401602060405180830381865afa15801561175a573d6000803e3d6000fd5b505050506040513d601f19601f8201168201806040525081019061177e91906124b4565b6001600160a01b038416600090815260a460209081526040808320848452909152812080546001019081905560a854929350916117bc904390611f9c565b905060a654820361186557846001600160a01b03166000805160206128c48339815191526002856040516117f19291906125c5565b60405180910390a260a754604051630bde081360e21b81526001600160a01b03861691632f78204c9161182e9189918691906000906004016125e3565b600060405180830381600087803b15801561184857600080fd5b505af115801561185c573d6000803e3d6000fd5b505050506119b4565b60a55482036119b457600061187a8685610b9e565b90508061191d57856001600160a01b03166000805160206128c48339815191526001866040516118ab9291906125c5565b60405180910390a2604051630bde081360e21b81526001600160a01b03861690632f78204c906118e6908990600090819081906004016125e3565b600060405180830381600087803b15801561190057600080fd5b505af1158015611914573d6000803e3d6000fd5b505050506119b2565b856001600160a01b03166000805160206128c48339815191526007866040516119479291906125c5565b60405180910390a260a754604051630bde081360e21b81526001600160a01b03871691632f78204c91611984918a918791906001906004016125e3565b600060405180830381600087803b15801561199e57600080fd5b505af115801561109d573d6000803e3d6000fd5b505b505050505b50565b6119c581611562565b6001600160a01b0316336001600160a01b0316146119b9576000356001600160e01b03191681336040516320e0f98d60e21b8152600401610aba93929190612818565b7fb53127684a568b3173ae13b9f8a6016e243e63b6e8ee1178d6a717850b5d6103546001600160a01b03163314611a62576000356001600160e01b0319166001604051620f948f60ea1b8152600401610aba92919061277c565b565b82841180611a73575061271084115b80611a7f575061271083115b15611a9d57604051631cbe1abf60e11b815260040160405180910390fd5b606d849055606e839055606f82905560708190556040805185815260208101859052908101839052606081018290527fd24c671da2227c139fe1a5b34de15e5a67bef9b46e912916b9e0d025d51b3e3b90608001610552565b600081831015611b065781610bc6565b5090919050565b6040516000906067906001908390611b31908a908a908a908a908a90602401612878565b60408051601f198184030181529190526020810180516001600160e01b0316637fc3567760e01b1790528051909150611b68611fc6565b602083016020828483895afa611b7d57600094505b503d611b8857600093505b83611ba657604051630fc2632160e01b815260040160405180910390fd5b5115159a9950505050505050505050565b807fdea3103d22025c269050bea94c0c84688877f12fa22b7e6d2d5d78a9a49aa1cb600084600a811115611bed57611bed6125af565b60ff168152602081019190915260400160002080546001600160a01b0319166001600160a01b03928316179055811682600a811115611c2e57611c2e6125af565b6040517f865d1c228a8ea13709cfe61f346f7ff67f1bbd4a18ff31ad3e7147350d317c5990600090a35050565b6000818311611c6b576000610bc6565b610bc6828461259c565b6000611c8a611c8484866128b0565b83611fb7565b949350505050565b6038829055603981905560408051838152602081018390527fbda9ec2980d7468ba6a9f363696315affca9f9770016396bdea2ac39c3e5d61a9101610b92565b806001600160a01b03163b6000036119b957604051630bfc64a360e21b81526001600160a01b0382166004820152602401610aba565b60018390556002829055600381905560408051848152602081018490529081018290527f913da102149f952dde560cef3349db8e8002e9d580c41a7551d6d45329f4306b9060600160405180910390a1505050565b60a65460a5541115611d90576040516387f6f09560e01b81526001600160e01b0319600035166004820152602401610aba565b60a584905560a683905560a782905560a88190556040805185815260208101859052908101839052606081018290527f442862e6143ad95854e7c13ff4947ec6e43bc87160e3b193e7c1abaf6e3aaa9890608001610552565b82841115611e0a5760405163112af4d160e01b815260040160405180910390fd5b612710811115611e2d5760405163382c88a360e21b815260040160405180910390fd5b60dd84905560de83905560df82905560e08190556040805185815260208101859052908101839052606081018290527fe1f9c6c73554b5fa140eead3cfd4ec3e6d4824f3ed26fb25e38376f65b95470b90608001610552565b6000336001600160a01b03831614801590611f125750611ea66008611562565b604051633292276760e11b81526001600160a01b03848116600483015291909116906365244ece90602401602060405180830381865afa158015611eee573d6000803e3d6000fd5b505050506040513d601f19601f82011682018060405250810190611f129190612761565b80156105d15750611f236005611562565b604051630fbeb37f60e01b81526001600160a01b0384811660048301524360248301529190911690630fbeb37f90604401602060405180830381865afa158015611f71573d6000803e3d6000fd5b505050506040513d601f19601f82011682018060405250810190611f959190612761565b1592915050565b600081600003611fad576000610bc6565b610bc682846128b0565b6000818310611b065781610bc6565b60405180602001604052806001906020820280368337509192915050565b60008083601f840112611ff657600080fd5b50813567ffffffffffffffff81111561200e57600080fd5b6020830191508360208260051b850101111561202957600080fd5b9250929050565b6000806020838503121561204357600080fd5b823567ffffffffffffffff81111561205a57600080fd5b61206685828601611fe4565b90969095509350505050565b6001600160a01b03811681146119b957600080fd5b60006020828403121561209957600080fd5b8135610bc681612072565b600080600080608085870312156120ba57600080fd5b5050823594602084013594506040840135936060013592509050565b60008083601f8401126120e857600080fd5b50813567ffffffffffffffff81111561210057600080fd5b60208301915083602082850101111561202957600080fd5b60008060008060006060868803121561213057600080fd5b853561213b81612072565b9450602086013567ffffffffffffffff8082111561215857600080fd5b61216489838a016120d6565b9096509450604088013591508082111561217d57600080fd5b5061218a888289016120d6565b969995985093965092949392505050565b600080604083850312156121ae57600080fd5b82356121b981612072565b946020939093013593505050565b6000806000604084860312156121dc57600080fd5b833567ffffffffffffffff8111156121f357600080fd5b6121ff86828701611fe4565b909790965060209590950135949350505050565b6000806040838503121561222657600080fd5b50508035926020909101359150565b8035600b81106115d857600080fd5b6000806040838503121561225757600080fd5b61226083612235565b9150602083013561227081612072565b809150509250929050565b80608081018310156105d157600080fd5b60008060008060008060008060006102a08a8c0312156122ab57600080fd5b89356122b681612072565b985060208a01356122c681612072565b975060408a01356122d681612072565b965060608a01356122e681612072565b95506122f58b60808c0161227b565b94506101408a018b81111561230957600080fd5b6101008b0194506101a08b018c81111561232257600080fd5b81945061232f8d8261227b565b935050506123418b6102208c0161227b565b90509295985092959850929598565b60008060006060848603121561236557600080fd5b833561237081612072565b95602085013595506040909401359392505050565b60008060006060848603121561239a57600080fd5b505081359360208301359350604090920135919050565b6000602082840312156123c357600080fd5b610bc682612235565b600081518084526020808501945080840160005b838110156123fc578151875295820195908201906001016123e0565b509495945050505050565b602081526000610bc660208301846123cc565b634e487b7160e01b600052604160045260246000fd5b634e487b7160e01b600052603260045260246000fd5b8183526000602080850194508260005b858110156123fc57813561246981612072565b6001600160a01b031687529582019590820190600101612456565b604081526000612498604083018587612446565b82810360208401526124aa81856123cc565b9695505050505050565b6000602082840312156124c657600080fd5b5051919050565b604051601f8201601f1916810167ffffffffffffffff811182821017156124f6576124f661241a565b604052919050565b600060a0828403121561251057600080fd5b60405160a0810181811067ffffffffffffffff821117156125335761253361241a565b604052825161254181612072565b8152602083015161255181612072565b6020820152604083015161256481612072565b6040820152606083810151908201526080928301519281019290925250919050565b634e487b7160e01b600052601160045260246000fd5b818103818111156105d1576105d1612586565b634e487b7160e01b600052602160045260246000fd5b60408101600884106125d9576125d96125af565b9281526020015290565b6001600160a01b03949094168452602084019290925260408301521515606082015260800190565b8183823760009101908152919050565b6020808252602e908201527f496e697469616c697a61626c653a20636f6e747261637420697320616c72656160408201526d191e481a5b9a5d1a585b1a5e995960921b606082015260800190565b602081526000611c8a602083018486612446565b805180151581146115d857600080fd5b600060208083850312156126a057600080fd5b825167ffffffffffffffff808211156126b857600080fd5b818501915085601f8301126126cc57600080fd5b8151818111156126de576126de61241a565b8060051b91506126ef8483016124cd565b818152918301840191848101908884111561270957600080fd5b938501935b8385101561272e5761271f8561267d565b8252938501939085019061270e565b98975050505050505050565b60608152600061274e606083018688612446565b6020830194909452506040015292915050565b60006020828403121561277357600080fd5b610bc68261267d565b6001600160e01b031983168152604081016009831061279d5761279d6125af565b8260208301529392505050565b6000806000606084860312156127bf57600080fd5b6127c88461267d565b925060208401519150604084015190509250925092565b80820281158282048414176105d1576105d1612586565b600b8110612806576128066125af565b9052565b602081016105d182846127f6565b6001600160e01b0319841681526060810161283660208301856127f6565b6001600160a01b03929092166040919091015292915050565b81835281816020850137506000828201602090810191909152601f909101601f19169091010190565b6001600160a01b038616815260606020820181905260009061289d908301868861284f565b828103604084015261272e81858761284f565b808201808211156105d1576105d161258656fe607adba66cff84b627e3537d1c17d088a98556bccd0536a2f3590c56329023d9a164736f6c6343000811000a",
  "devdoc": {
    "errors": {
      "ErrCallPrecompiled()": [
        {
          "details": "Error of call to precompile fails."
        }
      ],
      "ErrCallerMustBeJailedInTheCurrentPeriod()": [
        {
          "details": "Error thrown when the caller must be jailed in the current period."
        }
      ],
      "ErrCannotSlashAValidatorTwiceOrSlashMoreThanOneValidatorInOneBlock()": [
        {
          "details": "Error thrown when attempting to slash a validator twice or slash more than one validator in one block."
        }
      ],
      "ErrContractTypeNotFound(uint8)": [
        {
          "details": "Error of invalid role."
        }
      ],
      "ErrEvidenceAlreadySubmitted()": [
        {
          "details": "Error thrown when evidence has already been submitted."
        }
      ],
      "ErrInsufficientCreditScoreToBailOut()": [
        {
          "details": "Error thrown when the caller's credit score is insufficient to bail out a situation."
        }
      ],
      "ErrInvalidCreditScoreConfig()": [
        {
          "details": "Error thrown when an invalid credit score configuration is provided."
        }
      ],
      "ErrInvalidCutOffPercentageConfig()": [
        {
          "details": "Error thrown when an invalid cut-off percentage configuration is provided."
        }
      ],
      "ErrInvalidRatios()": [
        {
          "details": "Error thrown when invalid ratios are provided."
        }
      ],
      "ErrInvalidSlash()": [
        {
          "details": "Error thrown when an invalid slash is encountered."
        }
      ],
      "ErrInvalidThreshold(bytes4)": [
        {
          "details": "Error indicating that the provided threshold is invalid for a specific function signature.",
          "params": {
            "msgSig": "The function signature (bytes4) that the invalid threshold applies to."
          }
        }
      ],
      "ErrUnauthorized(bytes4,uint8)": [
        {
          "details": "Error indicating that the caller is unauthorized to perform a specific function.",
          "params": {
            "expectedRole": "The role required to perform the function.",
            "msgSig": "The function signature (bytes4) that the caller is unauthorized to perform."
          }
        }
      ],
      "ErrUnexpectedInternalCall(bytes4,uint8,address)": [
        {
          "details": "Error indicating that the caller is unauthorized to perform a specific function.",
          "params": {
            "actual": "The actual address that called to the function.",
            "expectedContractType": "The contract type required to perform the function.",
            "msgSig": "The function signature (bytes4)."
          }
        }
      ],
      "ErrValidatorHasBailedOutPreviously()": [
        {
          "details": "Error thrown when a validator has previously bailed out."
        }
      ],
      "ErrZeroCodeContract(address)": [
        {
          "details": "Error of set to non-contract."
        }
      ]
    },
    "kind": "dev",
    "methods": {
      "bailOut(address)": {
        "details": "A slashed validator use this method to get out of jail. Requirements: - The `_consensusAddr` must be a validator. - Only validator's admin can call this method. Emits the event `BailedOut`."
      },
      "checkBailedOutAtPeriod(address,uint256)": {
        "details": "Returns the whether the `_validator` has been bailed out at the `_period`."
      },
      "currentUnavailabilityIndicator(address)": {
        "details": "Returns the current unavailability indicator of a block producer."
      },
      "execResetCreditScores(address[])": {
        "details": "Resets the credit score for the revoked validators. Requirements: - Only validator contract can call this method. - This method is only called at the end of each period. Emits the event `CreditScoresUpdated`."
      },
      "execSlashBridgeOperator(address,uint256,uint256)": {
        "details": "Acknowledges bridge operator slash and emit `Slashed` event correspondingly.",
        "params": {
          "_tier": "The tier of the slash, in value of {1, 2}, corresponding to `SlashType.BRIDGE_OPERATOR_MISSING_VOTE_TIER_1` and `SlashType.BRIDGE_OPERATOR_MISSING_VOTE_TIER_2` Requirements: - Only validator contract can invoke this method. - Should be called only at the end of period. - Should be called only when there is slash of bridge operator. Emits the event `Slashed`."
        }
      },
      "getBridgeOperatorSlashingConfigs()": {
        "details": "Returns the configs related to bridge operator slashing.",
        "returns": {
          "jailDurationForMissingVotesRatioTier2_": "The number of blocks to jail the corresponding block producer when its bridge operator is slashed tier-2.",
          "missingVotesRatioTier1_": "The bridge reward will be deprecated if (s)he missed more than this ratio.",
          "missingVotesRatioTier2_": "The bridge reward and mining reward will be deprecated and the corresponding block producer will be put in jail if (s)he misses more than this ratio.",
          "skipBridgeOperatorSlashingThreshold_": "The threshold to skip slashing the bridge operator in case the total number of votes in the bridge is too small."
        }
      },
      "getBridgeVotingSlashingConfigs()": {
        "details": "Returns the configs related to bridge voting slashing.",
        "returns": {
          "bridgeVotingSlashAmount_": "The amount of RON to slash bridge voting.",
          "bridgeVotingThreshold_": "The threshold to slash when a trusted organization does not vote for bridge operators."
        }
      },
      "getContract(uint8)": {
        "details": "Returns the address of a contract with a specific role. Throws an error if no contract is set for the specified role.",
        "params": {
          "contractType": "The role of the contract to retrieve."
        },
        "returns": {
          "contract_": "The address of the contract with the specified role."
        }
      },
      "getCreditScore(address)": {
        "details": "Returns the current credit score of the validator."
      },
      "getCreditScoreConfigs()": {
        "details": "Returns the configs related to credit score.",
        "returns": {
          "bailOutCostMultiplier_": "The number that will be multiplied with the remaining jailed time to get the cost of bailing out.",
          "cutOffPercentageAfterBailout_": "The percentage of reward that the block producer will be cut off from until the end of the period after bailing out.",
          "gainCreditScore_": "The score to gain per period.",
          "maxCreditScore_": "The max number of credit score that a validator can hold."
        }
      },
      "getDoubleSignSlashingConfigs()": {
        "details": "Returns the configs related to block producer slashing.",
        "params": {
          "_doubleSigningOffsetLimitBlock": "The number of block that the current block is at most far from the double signing block."
        },
        "returns": {
          "doubleSigningJailUntilBlock_": "The block number that the punished validator will be jailed until, due to double signing.",
          "slashDoubleSignAmount_": "The amount of RON to slash double sign."
        }
      },
      "getManyCreditScores(address[])": {
        "details": "Returns the current credit score of a list of validators."
      },
      "getUnavailabilityIndicator(address,uint256)": {
        "details": "Helper for CreditScore contract to query indicator of the validator."
      },
      "getUnavailabilitySlashingConfigs()": {
        "details": "Returns the configs related to block producer slashing.",
        "returns": {
          "jailDurationForUnavailabilityTier2Threshold_": "The number of blocks to jail a block producer when (s)he is slashed with tier-2 or tier-3.",
          "slashAmountForUnavailabilityTier2Threshold_": "The amount of RON to deduct from self-staking of a block producer when (s)he is slashed with tier-2 or tier-3.",
          "unavailabilityTier1Threshold_": "The mining reward will be deprecated, if (s)he missed more than this threshold. This threshold is applied for tier-1 and tier-3 slash.",
          "unavailabilityTier2Threshold_": " The mining reward will be deprecated, (s)he will be put in jailed, and will be deducted self-staking if (s)he misses more than this threshold. This threshold is applied for tier-2 slash."
        }
      },
      "initialize(address,address,address,address,uint256[4],uint256[2],uint256[3],uint256[4],uint256[4])": {
        "details": "Initializes the contract storage."
      },
      "precompileValidateDoubleSignAddress()": {
        "details": "Gets the address of the precompile of validating double sign evidence"
      },
      "setBridgeOperatorSlashingConfigs(uint256,uint256,uint256,uint256)": {
        "details": "Sets the configs to slash bridge operators. Requirements: - The method caller is admin. Emits the event `BridgeOperatorSlashingConfigsUpdated`.",
        "params": {
          "_jailDurationTier2": "The number of blocks to jail the corresponding block producer when its bridge operator is slashed tier-2.",
          "_ratioTier1": "The bridge reward will be deprecated if (s)he missed more than this ratio. Values 0-10,000 map to 0%-100%.",
          "_ratioTier2": "The bridge reward and mining reward will be deprecated and the corresponding block producer will be put in jail if (s)he misses more than this ratio. Values 0-10,000 map to 0%-100%.",
          "_skipSlashingThreshold": "The threshold to skip slashing the bridge operator in case the total number of votes in the bridge is too small."
        }
      },
      "setBridgeVotingSlashingConfigs(uint256,uint256)": {
        "details": "Sets the configs to slash bridge voting. Requirements: - The method caller is admin. Emits the event `BridgeVotingSlashingConfigsUpdated`.",
        "params": {
          "_slashAmount": "The amount of RON to slash bridge voting.",
          "_threshold": "The threshold to slash when a trusted organization does not vote for bridge operators."
        }
      },
      "setContract(uint8,address)": {
        "details": "Sets the address of a contract with a specific role. Emits the event {ContractUpdated}.",
        "params": {
          "addr": "The address of the contract to set.",
          "contractType": "The role of the contract to set."
        }
      },
      "setCreditScoreConfigs(uint256,uint256,uint256,uint256)": {
        "details": "Sets the configs to credit score. Requirements: - The method caller is admin. Emits the event `CreditScoreConfigsUpdated`.",
        "params": {
          "_bailOutMultiplier": "The number that will be multiplied with the remaining jailed time to get the cost of bailing out.",
          "_cutOffPercentage": "The percentage of reward that the block producer will be cut off from until the end of the period after bailing out.",
          "_gainScore": "The score to gain per period.",
          "_maxScore": "The max number of credit score that a validator can hold."
        }
      },
      "setDoubleSignSlashingConfigs(uint256,uint256,uint256)": {
        "details": "Sets the configs to slash block producers. Requirements: - The method caller is admin. Emits the event `DoubleSignSlashingConfigsUpdated`.",
        "params": {
          "_doubleSigningOffsetLimitBlock": "The number of block that the current block is at most far from the double signing block.",
          "_jailUntilBlock": "The block number that the punished validator will be jailed until, due to double signing.",
          "_slashAmount": "The amount of RON to slash double sign."
        }
      },
      "setUnavailabilitySlashingConfigs(uint256,uint256,uint256,uint256)": {
        "details": "Sets the configs to slash block producers. Requirements: - The method caller is admin. Emits the event `BridgeOperatorSlashingConfigsUpdated`.",
        "params": {
          "_jailDurationForTier2Threshold": "The number of blocks to jail a block producer when (s)he is slashed tier-2.",
          "_slashAmountForTier2Threshold": "The amount of RON to deduct from self-staking of a block producer when (s)he is slashed tier-2.",
          "_tier1Threshold": "The mining reward will be deprecated, if (s)he missed more than this threshold.",
          "_tier2Threshold": "The mining reward will be deprecated, (s)he will be put in jailed, and will be deducted self-staking if (s)he misses more than this threshold."
        }
      },
      "slashBridgeVoting(address)": {
        "details": "Slashes for bridge voter governance. Emits the event `Slashed`."
      },
      "slashDoubleSign(address,bytes,bytes)": {
        "details": "Slashes for double signing. Requirements: - The method caller is coinbase. Emits the event `Slashed` if the double signing evidence of the two headers valid."
      },
      "slashUnavailability(address)": {
        "details": "Slashes for unavailability by increasing the counter of block producer `_consensusAddr`. Requirements: - The method caller is coinbase. Emits the event `Slashed` when the threshold is reached."
      },
      "updateCreditScores(address[],uint256)": {
        "details": "Updates the credit score for the validators. Requirements: - Only validator contract can call this method. - This method is only called at the end of each period. Emits the event `CreditScoresUpdated`."
      }
    },
    "version": 1
  },
  "userdoc": {
    "kind": "user",
    "methods": {},
    "version": 1
  },
  "storageLayout": {
    "storage": [
      {
        "astId": 35464,
        "contract": "contracts/ronin/slash-indicator/SlashIndicator.sol:SlashIndicator",
        "label": "______deprecatedValidator",
        "offset": 0,
        "slot": "0",
        "type": "t_address"
      },
      {
        "astId": 27031,
        "contract": "contracts/ronin/slash-indicator/SlashIndicator.sol:SlashIndicator",
        "label": "_slashDoubleSignAmount",
        "offset": 0,
        "slot": "1",
        "type": "t_uint256"
      },
      {
        "astId": 27034,
        "contract": "contracts/ronin/slash-indicator/SlashIndicator.sol:SlashIndicator",
        "label": "_doubleSigningJailUntilBlock",
        "offset": 0,
        "slot": "2",
        "type": "t_uint256"
      },
      {
        "astId": 27037,
        "contract": "contracts/ronin/slash-indicator/SlashIndicator.sol:SlashIndicator",
        "label": "_doubleSigningOffsetLimitBlock",
        "offset": 0,
        "slot": "3",
        "type": "t_uint256"
      },
      {
        "astId": 27042,
        "contract": "contracts/ronin/slash-indicator/SlashIndicator.sol:SlashIndicator",
        "label": "_submittedEvidence",
        "offset": 0,
        "slot": "4",
        "type": "t_mapping(t_bytes32,t_bool)"
      },
      {
        "astId": 27047,
        "contract": "contracts/ronin/slash-indicator/SlashIndicator.sol:SlashIndicator",
        "label": "______gap",
        "offset": 0,
        "slot": "5",
        "type": "t_array(t_uint256)48_storage"
      },
      {
        "astId": 35476,
        "contract": "contracts/ronin/slash-indicator/SlashIndicator.sol:SlashIndicator",
        "label": "______deprecatedTrustedOrg",
        "offset": 0,
        "slot": "53",
        "type": "t_address"
      },
      {
        "astId": 35480,
        "contract": "contracts/ronin/slash-indicator/SlashIndicator.sol:SlashIndicator",
        "label": "______deprecatedGovernanceAdmin",
        "offset": 0,
        "slot": "54",
        "type": "t_address"
      },
      {
        "astId": 26849,
        "contract": "contracts/ronin/slash-indicator/SlashIndicator.sol:SlashIndicator",
        "label": "_bridgeVotingSlashed",
        "offset": 0,
        "slot": "55",
        "type": "t_mapping(t_address,t_mapping(t_uint256,t_bool))"
      },
      {
        "astId": 26852,
        "contract": "contracts/ronin/slash-indicator/SlashIndicator.sol:SlashIndicator",
        "label": "_bridgeVotingThreshold",
        "offset": 0,
        "slot": "56",
        "type": "t_uint256"
      },
      {
        "astId": 26855,
        "contract": "contracts/ronin/slash-indicator/SlashIndicator.sol:SlashIndicator",
        "label": "_bridgeVotingSlashAmount",
        "offset": 0,
        "slot": "57",
        "type": "t_uint256"
      },
      {
        "astId": 26860,
        "contract": "contracts/ronin/slash-indicator/SlashIndicator.sol:SlashIndicator",
        "label": "______gap",
        "offset": 0,
        "slot": "58",
        "type": "t_array(t_uint256)50_storage"
      },
      {
        "astId": 35472,
        "contract": "contracts/ronin/slash-indicator/SlashIndicator.sol:SlashIndicator",
        "label": "______deprecatedMaintenance",
        "offset": 0,
        "slot": "108",
        "type": "t_address"
      },
      {
        "astId": 26671,
        "contract": "contracts/ronin/slash-indicator/SlashIndicator.sol:SlashIndicator",
        "label": "_missingVotesRatioTier1",
        "offset": 0,
        "slot": "109",
        "type": "t_uint256"
      },
      {
        "astId": 26674,
        "contract": "contracts/ronin/slash-indicator/SlashIndicator.sol:SlashIndicator",
        "label": "_missingVotesRatioTier2",
        "offset": 0,
        "slot": "110",
        "type": "t_uint256"
      },
      {
        "astId": 26677,
        "contract": "contracts/ronin/slash-indicator/SlashIndicator.sol:SlashIndicator",
        "label": "_jailDurationForMissingVotesRatioTier2",
        "offset": 0,
        "slot": "111",
        "type": "t_uint256"
      },
      {
        "astId": 26680,
        "contract": "contracts/ronin/slash-indicator/SlashIndicator.sol:SlashIndicator",
        "label": "_skipBridgeOperatorSlashingThreshold",
        "offset": 0,
        "slot": "112",
        "type": "t_uint256"
      },
      {
        "astId": 26685,
        "contract": "contracts/ronin/slash-indicator/SlashIndicator.sol:SlashIndicator",
        "label": "______gap",
        "offset": 0,
        "slot": "113",
        "type": "t_array(t_uint256)50_storage"
      },
      {
        "astId": 27538,
        "contract": "contracts/ronin/slash-indicator/SlashIndicator.sol:SlashIndicator",
        "label": "lastUnavailabilitySlashedBlock",
        "offset": 0,
        "slot": "163",
        "type": "t_uint256"
      },
      {
        "astId": 27545,
        "contract": "contracts/ronin/slash-indicator/SlashIndicator.sol:SlashIndicator",
        "label": "_unavailabilityIndicator",
        "offset": 0,
        "slot": "164",
        "type": "t_mapping(t_address,t_mapping(t_uint256,t_uint256))"
      },
      {
        "astId": 27548,
        "contract": "contracts/ronin/slash-indicator/SlashIndicator.sol:SlashIndicator",
        "label": "_unavailabilityTier1Threshold",
        "offset": 0,
        "slot": "165",
        "type": "t_uint256"
      },
      {
        "astId": 27551,
        "contract": "contracts/ronin/slash-indicator/SlashIndicator.sol:SlashIndicator",
        "label": "_unavailabilityTier2Threshold",
        "offset": 0,
        "slot": "166",
        "type": "t_uint256"
      },
      {
        "astId": 27554,
        "contract": "contracts/ronin/slash-indicator/SlashIndicator.sol:SlashIndicator",
        "label": "_slashAmountForUnavailabilityTier2Threshold",
        "offset": 0,
        "slot": "167",
        "type": "t_uint256"
      },
      {
        "astId": 27557,
        "contract": "contracts/ronin/slash-indicator/SlashIndicator.sol:SlashIndicator",
        "label": "_jailDurationForUnavailabilityTier2Threshold",
        "offset": 0,
        "slot": "168",
        "type": "t_uint256"
      },
      {
        "astId": 27562,
        "contract": "contracts/ronin/slash-indicator/SlashIndicator.sol:SlashIndicator",
        "label": "______gap",
        "offset": 0,
        "slot": "169",
        "type": "t_array(t_uint256)50_storage"
      },
      {
        "astId": 26102,
        "contract": "contracts/ronin/slash-indicator/SlashIndicator.sol:SlashIndicator",
        "label": "_checkBailedOutAtPeriod",
        "offset": 0,
        "slot": "219",
        "type": "t_mapping(t_address,t_mapping(t_uint256,t_bool))"
      },
      {
        "astId": 26107,
        "contract": "contracts/ronin/slash-indicator/SlashIndicator.sol:SlashIndicator",
        "label": "_creditScore",
        "offset": 0,
        "slot": "220",
        "type": "t_mapping(t_address,t_uint256)"
      },
      {
        "astId": 26110,
        "contract": "contracts/ronin/slash-indicator/SlashIndicator.sol:SlashIndicator",
        "label": "_gainCreditScore",
        "offset": 0,
        "slot": "221",
        "type": "t_uint256"
      },
      {
        "astId": 26113,
        "contract": "contracts/ronin/slash-indicator/SlashIndicator.sol:SlashIndicator",
        "label": "_maxCreditScore",
        "offset": 0,
        "slot": "222",
        "type": "t_uint256"
      },
      {
        "astId": 26116,
        "contract": "contracts/ronin/slash-indicator/SlashIndicator.sol:SlashIndicator",
        "label": "_bailOutCostMultiplier",
        "offset": 0,
        "slot": "223",
        "type": "t_uint256"
      },
      {
        "astId": 26119,
        "contract": "contracts/ronin/slash-indicator/SlashIndicator.sol:SlashIndicator",
        "label": "_cutOffPercentageAfterBailout",
        "offset": 0,
        "slot": "224",
        "type": "t_uint256"
      },
      {
        "astId": 26124,
        "contract": "contracts/ronin/slash-indicator/SlashIndicator.sol:SlashIndicator",
        "label": "______gap",
        "offset": 0,
        "slot": "225",
        "type": "t_array(t_uint256)50_storage"
      },
      {
        "astId": 1373,
        "contract": "contracts/ronin/slash-indicator/SlashIndicator.sol:SlashIndicator",
        "label": "_initialized",
        "offset": 0,
        "slot": "275",
        "type": "t_uint8"
      },
      {
        "astId": 1376,
        "contract": "contracts/ronin/slash-indicator/SlashIndicator.sol:SlashIndicator",
        "label": "_initializing",
        "offset": 1,
        "slot": "275",
        "type": "t_bool"
      }
    ],
    "types": {
      "t_address": {
        "encoding": "inplace",
        "label": "address",
        "numberOfBytes": "20"
      },
      "t_array(t_uint256)48_storage": {
        "base": "t_uint256",
        "encoding": "inplace",
        "label": "uint256[48]",
        "numberOfBytes": "1536"
      },
      "t_array(t_uint256)50_storage": {
        "base": "t_uint256",
        "encoding": "inplace",
        "label": "uint256[50]",
        "numberOfBytes": "1600"
      },
      "t_bool": {
        "encoding": "inplace",
        "label": "bool",
        "numberOfBytes": "1"
      },
      "t_bytes32": {
        "encoding": "inplace",
        "label": "bytes32",
        "numberOfBytes": "32"
      },
      "t_mapping(t_address,t_mapping(t_uint256,t_bool))": {
        "encoding": "mapping",
        "key": "t_address",
        "label": "mapping(address => mapping(uint256 => bool))",
        "numberOfBytes": "32",
        "value": "t_mapping(t_uint256,t_bool)"
      },
      "t_mapping(t_address,t_mapping(t_uint256,t_uint256))": {
        "encoding": "mapping",
        "key": "t_address",
        "label": "mapping(address => mapping(uint256 => uint256))",
        "numberOfBytes": "32",
        "value": "t_mapping(t_uint256,t_uint256)"
      },
      "t_mapping(t_address,t_uint256)": {
        "encoding": "mapping",
        "key": "t_address",
        "label": "mapping(address => uint256)",
        "numberOfBytes": "32",
        "value": "t_uint256"
      },
      "t_mapping(t_bytes32,t_bool)": {
        "encoding": "mapping",
        "key": "t_bytes32",
        "label": "mapping(bytes32 => bool)",
        "numberOfBytes": "32",
        "value": "t_bool"
      },
      "t_mapping(t_uint256,t_bool)": {
        "encoding": "mapping",
        "key": "t_uint256",
        "label": "mapping(uint256 => bool)",
        "numberOfBytes": "32",
        "value": "t_bool"
      },
      "t_mapping(t_uint256,t_uint256)": {
        "encoding": "mapping",
        "key": "t_uint256",
        "label": "mapping(uint256 => uint256)",
        "numberOfBytes": "32",
        "value": "t_uint256"
      },
      "t_uint256": {
        "encoding": "inplace",
        "label": "uint256",
        "numberOfBytes": "32"
      },
      "t_uint8": {
        "encoding": "inplace",
        "label": "uint8",
        "numberOfBytes": "1"
      }
    }
  }
}