{
  "address": "0x83C5bdBce6d60038468a643c817CaDC6d1e12324",
  "abi": [
    {
      "inputs": [],
      "stateMutability": "nonpayable",
      "type": "constructor"
    },
    {
      "inputs": [],
      "name": "ErrCallPrecompiled",
      "type": "error"
    },
    {
      "inputs": [],
      "name": "ErrCallerMustBeJailedInTheCurrentPeriod",
      "type": "error"
    },
    {
      "inputs": [],
      "name": "ErrCannotSlashAValidatorTwiceOrSlashMoreThanOneValidatorInOneBlock",
      "type": "error"
    },
    {
      "inputs": [
        {
          "internalType": "enum ContractType",
          "name": "contractType",
          "type": "uint8"
        }
      ],
      "name": "ErrContractTypeNotFound",
      "type": "error"
    },
    {
      "inputs": [],
      "name": "ErrEvidenceAlreadySubmitted",
      "type": "error"
    },
    {
      "inputs": [],
      "name": "ErrInsufficientCreditScoreToBailOut",
      "type": "error"
    },
    {
      "inputs": [
        {
          "internalType": "bytes4",
          "name": "msgSig",
          "type": "bytes4"
        }
      ],
      "name": "ErrInvalidArguments",
      "type": "error"
    },
    {
      "inputs": [],
      "name": "ErrInvalidCreditScoreConfig",
      "type": "error"
    },
    {
      "inputs": [],
      "name": "ErrInvalidCutOffPercentageConfig",
      "type": "error"
    },
    {
      "inputs": [],
      "name": "ErrInvalidRatios",
      "type": "error"
    },
    {
      "inputs": [],
      "name": "ErrInvalidSlash",
      "type": "error"
    },
    {
      "inputs": [
        {
          "internalType": "bytes4",
          "name": "msgSig",
          "type": "bytes4"
        }
      ],
      "name": "ErrInvalidThreshold",
      "type": "error"
    },
    {
      "inputs": [
        {
          "internalType": "bytes4",
          "name": "msgSig",
          "type": "bytes4"
        },
        {
          "internalType": "enum RoleAccess",
          "name": "expectedRole",
          "type": "uint8"
        }
      ],
      "name": "ErrUnauthorized",
      "type": "error"
    },
    {
      "inputs": [
        {
          "internalType": "bytes4",
          "name": "msgSig",
          "type": "bytes4"
        },
        {
          "internalType": "enum ContractType",
          "name": "expectedContractType",
          "type": "uint8"
        },
        {
          "internalType": "address",
          "name": "actual",
          "type": "address"
        }
      ],
      "name": "ErrUnexpectedInternalCall",
      "type": "error"
    },
    {
      "inputs": [],
      "name": "ErrValidatorHasBailedOutPreviously",
      "type": "error"
    },
    {
      "inputs": [
        {
          "internalType": "address",
          "name": "addr",
          "type": "address"
        }
      ],
      "name": "ErrZeroCodeContract",
      "type": "error"
    },
    {
      "anonymous": false,
      "inputs": [
        {
          "indexed": true,
          "internalType": "address",
          "name": "validator",
          "type": "address"
        },
        {
          "indexed": false,
          "internalType": "uint256",
          "name": "period",
          "type": "uint256"
        },
        {
          "indexed": false,
          "internalType": "uint256",
          "name": "usedCreditScore",
          "type": "uint256"
        }
      ],
      "name": "BailedOut",
      "type": "event"
    },
    {
      "anonymous": false,
      "inputs": [
        {
          "indexed": false,
          "internalType": "uint256",
          "name": "missingVotesRatioTier1",
          "type": "uint256"
        },
        {
          "indexed": false,
          "internalType": "uint256",
          "name": "missingVotesRatioTier2",
          "type": "uint256"
        },
        {
          "indexed": false,
          "internalType": "uint256",
          "name": "jailDurationForMissingVotesRatioTier2",
          "type": "uint256"
        },
        {
          "indexed": false,
          "internalType": "uint256",
          "name": "skipBridgeOperatorSlashingThreshold",
          "type": "uint256"
        }
      ],
      "name": "BridgeOperatorSlashingConfigsUpdated",
      "type": "event"
    },
    {
      "anonymous": false,
      "inputs": [
        {
          "indexed": false,
          "internalType": "uint256",
          "name": "bridgeVotingThreshold",
          "type": "uint256"
        },
        {
          "indexed": false,
          "internalType": "uint256",
          "name": "bridgeVotingSlashAmount",
          "type": "uint256"
        }
      ],
      "name": "BridgeVotingSlashingConfigsUpdated",
      "type": "event"
    },
    {
      "anonymous": false,
      "inputs": [
        {
          "indexed": true,
          "internalType": "enum ContractType",
          "name": "contractType",
          "type": "uint8"
        },
        {
          "indexed": true,
          "internalType": "address",
          "name": "addr",
          "type": "address"
        }
      ],
      "name": "ContractUpdated",
      "type": "event"
    },
    {
      "anonymous": false,
      "inputs": [
        {
          "indexed": false,
          "internalType": "uint256",
          "name": "gainCreditScore",
          "type": "uint256"
        },
        {
          "indexed": false,
          "internalType": "uint256",
          "name": "maxCreditScore",
          "type": "uint256"
        },
        {
          "indexed": false,
          "internalType": "uint256",
          "name": "bailOutCostMultiplier",
          "type": "uint256"
        },
        {
          "indexed": false,
          "internalType": "uint256",
          "name": "cutOffPercentageAfterBailout",
          "type": "uint256"
        }
      ],
      "name": "CreditScoreConfigsUpdated",
      "type": "event"
    },
    {
      "anonymous": false,
      "inputs": [
        {
          "indexed": false,
          "internalType": "address[]",
          "name": "validators",
          "type": "address[]"
        },
        {
          "indexed": false,
          "internalType": "uint256[]",
          "name": "creditScores",
          "type": "uint256[]"
        }
      ],
      "name": "CreditScoresUpdated",
      "type": "event"
    },
    {
      "anonymous": false,
      "inputs": [
        {
          "indexed": false,
          "internalType": "uint256",
          "name": "slashDoubleSignAmount",
          "type": "uint256"
        },
        {
          "indexed": false,
          "internalType": "uint256",
          "name": "doubleSigningJailUntilBlock",
          "type": "uint256"
        },
        {
          "indexed": false,
          "internalType": "uint256",
          "name": "doubleSigningOffsetLimitBlock",
          "type": "uint256"
        }
      ],
      "name": "DoubleSignSlashingConfigsUpdated",
      "type": "event"
    },
    {
      "anonymous": false,
      "inputs": [
        {
          "indexed": false,
          "internalType": "uint256",
          "name": "slashFastFinalityAmount",
          "type": "uint256"
        },
        {
          "indexed": false,
          "internalType": "uint256",
          "name": "fastFinalityJailUntilBlock",
          "type": "uint256"
        }
      ],
      "name": "FastFinalitySlashingConfigsUpdated",
      "type": "event"
    },
    {
      "anonymous": false,
      "inputs": [
        {
          "indexed": false,
          "internalType": "uint8",
          "name": "version",
          "type": "uint8"
        }
      ],
      "name": "Initialized",
      "type": "event"
    },
    {
      "anonymous": false,
      "inputs": [
        {
          "indexed": true,
          "internalType": "address",
          "name": "validator",
          "type": "address"
        },
        {
          "indexed": false,
          "internalType": "enum IBaseSlash.SlashType",
          "name": "slashType",
          "type": "uint8"
        },
        {
          "indexed": false,
          "internalType": "uint256",
          "name": "period",
          "type": "uint256"
        }
      ],
      "name": "Slashed",
      "type": "event"
    },
    {
      "anonymous": false,
      "inputs": [
        {
          "indexed": false,
          "internalType": "uint256",
          "name": "unavailabilityTier1Threshold",
          "type": "uint256"
        },
        {
          "indexed": false,
          "internalType": "uint256",
          "name": "unavailabilityTier2Threshold",
          "type": "uint256"
        },
        {
          "indexed": false,
          "internalType": "uint256",
          "name": "slashAmountForUnavailabilityTier2Threshold",
          "type": "uint256"
        },
        {
          "indexed": false,
          "internalType": "uint256",
          "name": "jailDurationForUnavailabilityTier2Threshold",
          "type": "uint256"
        }
      ],
      "name": "UnavailabilitySlashingConfigsUpdated",
      "type": "event"
    },
    {
      "inputs": [
        {
          "internalType": "address",
          "name": "_consensusAddr",
          "type": "address"
        }
      ],
      "name": "bailOut",
      "outputs": [],
      "stateMutability": "nonpayable",
      "type": "function"
    },
    {
      "inputs": [
        {
          "internalType": "address",
          "name": "_validator",
          "type": "address"
        },
        {
          "internalType": "uint256",
          "name": "_period",
          "type": "uint256"
        }
      ],
      "name": "checkBailedOutAtPeriod",
      "outputs": [
        {
          "internalType": "bool",
          "name": "",
          "type": "bool"
        }
      ],
      "stateMutability": "view",
      "type": "function"
    },
    {
      "inputs": [
        {
          "internalType": "address",
          "name": "_validator",
          "type": "address"
        }
      ],
      "name": "currentUnavailabilityIndicator",
      "outputs": [
        {
          "internalType": "uint256",
          "name": "",
          "type": "uint256"
        }
      ],
      "stateMutability": "view",
      "type": "function"
    },
    {
      "inputs": [
        {
          "internalType": "address[]",
          "name": "_validators",
          "type": "address[]"
        }
      ],
      "name": "execResetCreditScores",
      "outputs": [],
      "stateMutability": "nonpayable",
      "type": "function"
    },
    {
      "inputs": [
        {
          "internalType": "address",
          "name": "_consensusAddr",
          "type": "address"
        },
        {
          "internalType": "uint256",
          "name": "_tier",
          "type": "uint256"
        },
        {
          "internalType": "uint256",
          "name": "_period",
          "type": "uint256"
        }
      ],
      "name": "execSlashBridgeOperator",
      "outputs": [],
      "stateMutability": "nonpayable",
      "type": "function"
    },
    {
      "inputs": [],
      "name": "getBridgeOperatorSlashingConfigs",
      "outputs": [
        {
          "internalType": "uint256",
          "name": "missingVotesRatioTier1_",
          "type": "uint256"
        },
        {
          "internalType": "uint256",
          "name": "missingVotesRatioTier2_",
          "type": "uint256"
        },
        {
          "internalType": "uint256",
          "name": "jailDurationForMissingVotesRatioTier2_",
          "type": "uint256"
        },
        {
          "internalType": "uint256",
          "name": "skipBridgeOperatorSlashingThreshold_",
          "type": "uint256"
        }
      ],
      "stateMutability": "view",
      "type": "function"
    },
    {
      "inputs": [],
      "name": "getBridgeVotingSlashingConfigs",
      "outputs": [
        {
          "internalType": "uint256",
          "name": "bridgeVotingThreshold_",
          "type": "uint256"
        },
        {
          "internalType": "uint256",
          "name": "bridgeVotingSlashAmount_",
          "type": "uint256"
        }
      ],
      "stateMutability": "view",
      "type": "function"
    },
    {
      "inputs": [
        {
          "internalType": "enum ContractType",
          "name": "contractType",
          "type": "uint8"
        }
      ],
      "name": "getContract",
      "outputs": [
        {
          "internalType": "address",
          "name": "contract_",
          "type": "address"
        }
      ],
      "stateMutability": "view",
      "type": "function"
    },
    {
      "inputs": [
        {
          "internalType": "address",
          "name": "_validator",
          "type": "address"
        }
      ],
      "name": "getCreditScore",
      "outputs": [
        {
          "internalType": "uint256",
          "name": "",
          "type": "uint256"
        }
      ],
      "stateMutability": "view",
      "type": "function"
    },
    {
      "inputs": [],
      "name": "getCreditScoreConfigs",
      "outputs": [
        {
          "internalType": "uint256",
          "name": "gainCreditScore_",
          "type": "uint256"
        },
        {
          "internalType": "uint256",
          "name": "maxCreditScore_",
          "type": "uint256"
        },
        {
          "internalType": "uint256",
          "name": "bailOutCostMultiplier_",
          "type": "uint256"
        },
        {
          "internalType": "uint256",
          "name": "cutOffPercentageAfterBailout_",
          "type": "uint256"
        }
      ],
      "stateMutability": "view",
      "type": "function"
    },
    {
      "inputs": [],
      "name": "getDoubleSignSlashingConfigs",
      "outputs": [
        {
          "internalType": "uint256",
          "name": "slashDoubleSignAmount_",
          "type": "uint256"
        },
        {
          "internalType": "uint256",
          "name": "doubleSigningJailUntilBlock_",
          "type": "uint256"
        },
        {
          "internalType": "uint256",
          "name": "doubleSigningOffsetLimitBlock_",
          "type": "uint256"
        }
      ],
      "stateMutability": "view",
      "type": "function"
    },
    {
      "inputs": [],
      "name": "getFastFinalitySlashingConfigs",
      "outputs": [
        {
          "internalType": "uint256",
          "name": "slashFastFinalityAmount_",
          "type": "uint256"
        },
        {
          "internalType": "uint256",
          "name": "fastFinalityJailUntilBlock_",
          "type": "uint256"
        }
      ],
      "stateMutability": "view",
      "type": "function"
    },
    {
      "inputs": [
        {
          "internalType": "address[]",
          "name": "_validators",
          "type": "address[]"
        }
      ],
      "name": "getManyCreditScores",
      "outputs": [
        {
          "internalType": "uint256[]",
          "name": "_resultList",
          "type": "uint256[]"
        }
      ],
      "stateMutability": "view",
      "type": "function"
    },
    {
      "inputs": [
        {
          "internalType": "address",
          "name": "_validator",
          "type": "address"
        },
        {
          "internalType": "uint256",
          "name": "_period",
          "type": "uint256"
        }
      ],
      "name": "getUnavailabilityIndicator",
      "outputs": [
        {
          "internalType": "uint256",
          "name": "",
          "type": "uint256"
        }
      ],
      "stateMutability": "view",
      "type": "function"
    },
    {
      "inputs": [],
      "name": "getUnavailabilitySlashingConfigs",
      "outputs": [
        {
          "internalType": "uint256",
          "name": "unavailabilityTier1Threshold_",
          "type": "uint256"
        },
        {
          "internalType": "uint256",
          "name": "unavailabilityTier2Threshold_",
          "type": "uint256"
        },
        {
          "internalType": "uint256",
          "name": "slashAmountForUnavailabilityTier2Threshold_",
          "type": "uint256"
        },
        {
          "internalType": "uint256",
          "name": "jailDurationForUnavailabilityTier2Threshold_",
          "type": "uint256"
        }
      ],
      "stateMutability": "view",
      "type": "function"
    },
    {
      "inputs": [
        {
          "internalType": "address",
          "name": "__validatorContract",
          "type": "address"
        },
        {
          "internalType": "address",
          "name": "__maintenanceContract",
          "type": "address"
        },
        {
          "internalType": "address",
          "name": "__roninTrustedOrganizationContract",
          "type": "address"
        },
        {
          "internalType": "address",
          "name": "__roninGovernanceAdminContract",
          "type": "address"
        },
        {
          "internalType": "uint256[4]",
          "name": "_bridgeOperatorSlashingConfigs",
          "type": "uint256[4]"
        },
        {
          "internalType": "uint256[2]",
          "name": "_bridgeVotingSlashingConfigs",
          "type": "uint256[2]"
        },
        {
          "internalType": "uint256[3]",
          "name": "_doubleSignSlashingConfigs",
          "type": "uint256[3]"
        },
        {
          "internalType": "uint256[4]",
          "name": "_unavailabilitySlashingConfigs",
          "type": "uint256[4]"
        },
        {
          "internalType": "uint256[4]",
          "name": "_creditScoreConfigs",
          "type": "uint256[4]"
        }
      ],
      "name": "initialize",
      "outputs": [],
      "stateMutability": "nonpayable",
      "type": "function"
    },
    {
      "inputs": [
        {
          "internalType": "address",
          "name": "roninGovernanceAdminContract",
          "type": "address"
        }
      ],
      "name": "initializeV2",
      "outputs": [],
      "stateMutability": "nonpayable",
      "type": "function"
    },
    {
      "inputs": [
        {
          "internalType": "address",
          "name": "profileContract",
          "type": "address"
        }
      ],
      "name": "initializeV3",
      "outputs": [],
      "stateMutability": "nonpayable",
      "type": "function"
    },
    {
      "inputs": [],
      "name": "lastUnavailabilitySlashedBlock",
      "outputs": [
        {
          "internalType": "uint256",
          "name": "",
          "type": "uint256"
        }
      ],
      "stateMutability": "view",
      "type": "function"
    },
    {
      "inputs": [],
      "name": "precompileValidateDoubleSignAddress",
      "outputs": [
        {
          "internalType": "address",
          "name": "",
          "type": "address"
        }
      ],
      "stateMutability": "view",
      "type": "function"
    },
    {
      "inputs": [],
      "name": "precompileValidateFastFinalityAddress",
      "outputs": [
        {
          "internalType": "address",
          "name": "",
          "type": "address"
        }
      ],
      "stateMutability": "view",
      "type": "function"
    },
    {
      "inputs": [
        {
          "internalType": "uint256",
          "name": "_ratioTier1",
          "type": "uint256"
        },
        {
          "internalType": "uint256",
          "name": "_ratioTier2",
          "type": "uint256"
        },
        {
          "internalType": "uint256",
          "name": "_jailDurationTier2",
          "type": "uint256"
        },
        {
          "internalType": "uint256",
          "name": "_skipSlashingThreshold",
          "type": "uint256"
        }
      ],
      "name": "setBridgeOperatorSlashingConfigs",
      "outputs": [],
      "stateMutability": "nonpayable",
      "type": "function"
    },
    {
      "inputs": [
        {
          "internalType": "uint256",
          "name": "_threshold",
          "type": "uint256"
        },
        {
          "internalType": "uint256",
          "name": "_slashAmount",
          "type": "uint256"
        }
      ],
      "name": "setBridgeVotingSlashingConfigs",
      "outputs": [],
      "stateMutability": "nonpayable",
      "type": "function"
    },
    {
      "inputs": [
        {
          "internalType": "enum ContractType",
          "name": "contractType",
          "type": "uint8"
        },
        {
          "internalType": "address",
          "name": "addr",
          "type": "address"
        }
      ],
      "name": "setContract",
      "outputs": [],
      "stateMutability": "nonpayable",
      "type": "function"
    },
    {
      "inputs": [
        {
          "internalType": "uint256",
          "name": "_gainScore",
          "type": "uint256"
        },
        {
          "internalType": "uint256",
          "name": "_maxScore",
          "type": "uint256"
        },
        {
          "internalType": "uint256",
          "name": "_bailOutMultiplier",
          "type": "uint256"
        },
        {
          "internalType": "uint256",
          "name": "_cutOffPercentage",
          "type": "uint256"
        }
      ],
      "name": "setCreditScoreConfigs",
      "outputs": [],
      "stateMutability": "nonpayable",
      "type": "function"
    },
    {
      "inputs": [
        {
          "internalType": "uint256",
          "name": "_slashAmount",
          "type": "uint256"
        },
        {
          "internalType": "uint256",
          "name": "_jailUntilBlock",
          "type": "uint256"
        },
        {
          "internalType": "uint256",
          "name": "_offsetLimitBlock",
          "type": "uint256"
        }
      ],
      "name": "setDoubleSignSlashingConfigs",
      "outputs": [],
      "stateMutability": "nonpayable",
      "type": "function"
    },
    {
      "inputs": [
        {
          "internalType": "uint256",
          "name": "slashAmount",
          "type": "uint256"
        },
        {
          "internalType": "uint256",
          "name": "jailUntilBlock",
          "type": "uint256"
        }
      ],
      "name": "setFastFinalitySlashingConfigs",
      "outputs": [],
      "stateMutability": "nonpayable",
      "type": "function"
    },
    {
      "inputs": [
        {
          "internalType": "uint256",
          "name": "_tier1Threshold",
          "type": "uint256"
        },
        {
          "internalType": "uint256",
          "name": "_tier2Threshold",
          "type": "uint256"
        },
        {
          "internalType": "uint256",
          "name": "_slashAmountForTier2Threshold",
          "type": "uint256"
        },
        {
          "internalType": "uint256",
          "name": "_jailDurationForTier2Threshold",
          "type": "uint256"
        }
      ],
      "name": "setUnavailabilitySlashingConfigs",
      "outputs": [],
      "stateMutability": "nonpayable",
      "type": "function"
    },
    {
      "inputs": [
        {
          "internalType": "address",
          "name": "_consensusAddr",
          "type": "address"
        }
      ],
      "name": "slashBridgeVoting",
      "outputs": [],
      "stateMutability": "nonpayable",
      "type": "function"
    },
    {
      "inputs": [
        {
          "internalType": "address",
          "name": "_consensusAddr",
          "type": "address"
        },
        {
          "internalType": "bytes",
          "name": "_header1",
          "type": "bytes"
        },
        {
          "internalType": "bytes",
          "name": "_header2",
          "type": "bytes"
        }
      ],
      "name": "slashDoubleSign",
      "outputs": [],
      "stateMutability": "nonpayable",
      "type": "function"
    },
    {
      "inputs": [
        {
          "internalType": "address",
          "name": "consensusAddr",
          "type": "address"
        },
        {
          "internalType": "bytes",
          "name": "voterPublicKey",
          "type": "bytes"
        },
        {
          "internalType": "uint256",
          "name": "targetBlockNumber",
          "type": "uint256"
        },
        {
          "internalType": "bytes32[2]",
          "name": "targetBlockHash",
          "type": "bytes32[2]"
        },
        {
          "internalType": "bytes[][2]",
          "name": "listOfPublicKey",
          "type": "bytes[][2]"
        },
        {
          "internalType": "bytes[2]",
          "name": "aggregatedSignature",
          "type": "bytes[2]"
        }
      ],
      "name": "slashFastFinality",
      "outputs": [],
      "stateMutability": "nonpayable",
      "type": "function"
    },
    {
      "inputs": [
        {
          "internalType": "address",
          "name": "_validatorAddr",
          "type": "address"
        }
      ],
      "name": "slashUnavailability",
      "outputs": [],
      "stateMutability": "nonpayable",
      "type": "function"
    },
    {
      "inputs": [
        {
          "internalType": "address[]",
          "name": "_validators",
          "type": "address[]"
        },
        {
          "internalType": "uint256",
          "name": "_period",
          "type": "uint256"
        }
      ],
      "name": "updateCreditScores",
      "outputs": [],
      "stateMutability": "nonpayable",
      "type": "function"
    }
  ],
  "transactionHash": "0xfd11f0458273b94a1199ed16b5ea2eb4c87f719a9274eab6d063b792e2d9360d",
  "args": [],
  "numDeployments": 10,
  "solcInputHash": "8de8f567dee21c26fd39413b873c2cc0",
  "bytecode": "0x60806040523480156200001157600080fd5b506200001c62000022565b620000e7565b61011354610100900460ff1615620000905760405162461bcd60e51b815260206004820152602760248201527f496e697469616c697a61626c653a20636f6e747261637420697320696e697469604482015266616c697a696e6760c81b606482015260840160405180910390fd5b6101135460ff9081161015620000e557610113805460ff191660ff9081179091556040519081527f7f26b83ff96e1f2b6a682f133852f6798a09c465da95921460cefb38474024989060200160405180910390a15b565b6133d080620000f76000396000f3fe608060405234801561001057600080fd5b50600436106101fb5760003560e01c806399103f7b1161011a578063d1cf4343116100ad578063df4b6ee01161007c578063df4b6ee01461046e578063e9bb166614610492578063f1001e7814610499578063f562b3c4146104b9578063fd422cd0146104c257600080fd5b8063d1cf43431461040c578063d1f992f71461041f578063d3dd2bdf14610432578063de981f1b1461045b57600080fd5b8063c6391fa2116100e9578063c6391fa2146103c2578063ccbb72ed146103d3578063cf39d13c146103e6578063d1737e27146103f957600080fd5b806399103f7b1461037e578063a345ecb214610391578063c008ce39146103a4578063c2e524dc146103b757600080fd5b80633101cfcb116101925780637680850c116101615780637680850c1461032a5780637c2b55a01461033d578063853af1b714610358578063865e6fd31461036b57600080fd5b80633101cfcb146102d75780633d48fd7d146102ea578063487e00ea146102fb57806362ffe6cb1461031757600080fd5b80631a697341116101ce5780631a6973411461027b5780631e90b2a01461028e57806329b6eca9146102a157806329ddc3c0146102b457600080fd5b806307c2d2f614610200578063082e7420146102155780630e1512ac1461023b5780631079402a1461024e575b600080fd5b61021361020e3660046125ad565b6104d5565b005b610228610223366004612603565b6105e2565b6040519081526020015b60405180910390f35b610213610249366004612620565b610659565b606d54606e54606f546070545b604080519485526020850193909352918301526060820152608001610232565b610213610289366004612603565b610673565b61021361029c366004612693565b610914565b6102136102af366004612603565b610afc565b6102c76102c2366004612715565b610c20565b6040519015158152602001610232565b6102136102e5366004612603565b610c4f565b60a55460a65460a75460a85461025b565b601d54601e545b60408051928352602083019190915201610232565b610228610325366004612715565b610cfc565b610213610338366004612741565b610d25565b60675b6040516001600160a01b039091168152602001610232565b61021361036636600461278c565b61103b565b6102136103793660046127bd565b611051565b61021361038c366004612816565b61106c565b61021361039f36600461278c565b6111d7565b6102136103b23660046128d4565b6111e9565b603854603954610302565b60dd5460de5460df5460e05461025b565b6102136103e1366004612620565b611273565b6102136103f4366004612909565b611287565b610213610407366004612620565b61129f565b61021361041a366004612935565b6112b3565b61021361042d366004612603565b6115df565b610228610440366004612603565b6001600160a01b0316600090815260dc602052604090205490565b6103406104693660046129f3565b6119ce565b60015460025460035460408051938452602084019290925290820152606001610232565b6069610340565b6104ac6104a73660046125ad565b611a49565b6040516102329190612a49565b61022860a35481565b6102136104d0366004612603565b611b13565b60086104e081611e27565b6000826001600160401b038111156104fa576104fa612a5c565b604051908082528060200260200182016040528015610523578160200160208202803683370190505b50905060005b838110156105a057600085858381811061054557610545612a72565b905060200201602081019061055a9190612603565b6001600160a01b038116600090815260dc6020526040812055835190915083908390811061058a5761058a612a72565b6000602091820292909201015250600101610529565b507f8c02b2ccee964dc50649a48bd0a0446f0f9e88ecdb72d099f4ace07c39c234808484836040516105d493929190612ac6565b60405180910390a150505050565b6000610653826105f260086119ce565b6001600160a01b031663060406186040518163ffffffff1660e01b8152600401602060405180830381865afa15801561062f573d6000803e3d6000fd5b505050506040513d601f19601f820116820180604052508101906103259190612af6565b92915050565b610661611e73565b61066d84848484611ecf565b50505050565b61067b611e73565b6000610687600a6119ce565b604051636db349d160e11b81526001600160a01b038481166004830152919091169063db6693a29060240160a060405180830381865afa1580156106cf573d6000803e3d6000fd5b505050506040513d601f19601f820116820180604052508101906106f39190612b94565b9050600061077d610704600b6119ce565b6040808501519051632623bd4f60e21b81526001600160a01b03918216600482015291169063988ef53c90602401602060405180830381865afa15801561074f573d6000803e3d6000fd5b505050506040513d601f19601f820116820180604052508101906107739190612af6565b8360800151611f61565b9050600061078b60086119ce565b90506000816001600160a01b031663060406186040518163ffffffff1660e01b8152600401602060405180830381865afa1580156107cd573d6000803e3d6000fd5b505050506040513d601f19601f820116820180604052508101906107f19190612af6565b6038549091506108018443612c31565b11158061083157506001600160a01b038516600090815260376020908152604080832084845290915290205460ff165b1561084f57604051632e308a0b60e11b815260040160405180910390fd5b6001600160a01b038516600081815260376020908152604080832085845290915290819020805460ff19166001179055516000805160206133a48339815191529061089e906004908590612c6a565b60405180910390a2603954604051630bde081360e21b81526001600160a01b03841691632f78204c916108db918991600091908290600401612c81565b600060405180830381600087803b1580156108f557600080fd5b505af1158015610909573d6000803e3d6000fd5b505050505050505050565b61091c611e73565b6000848460405161092e929190612ca9565b604051809103902090506000838360405161094a929190612ca9565b604080519182900390912060008481526004602052919091205490915060ff1680610983575060008181526004602052604090205460ff165b156109a15760405163f27b8ec960e01b815260040160405180910390fd5b6109ae8787878787611f78565b15610af35760006109bf60086119ce565b90506000816001600160a01b031663060406186040518163ffffffff1660e01b8152600401602060405180830381865afa158015610a01573d6000803e3d6000fd5b505050506040513d601f19601f82011682018060405250810190610a259190612af6565b6000858152600460205260408082208054600160ff19918216811790925587845292829020805490931617909155519091506001600160a01b038a16906000805160206133a483398151915290610a80906003908590612c6a565b60405180910390a260025460018054604051630bde081360e21b81526001600160a01b03861693632f78204c93610abe938f93909190600401612c81565b600060405180830381600087803b158015610ad857600080fd5b505af1158015610aec573d6000803e3d6000fd5b5050505050505b50505050505050565b61011354600290610100900460ff16158015610b2057506101135460ff8083169116105b610b455760405162461bcd60e51b8152600401610b3c90612cb9565b60405180910390fd5b610113805461ffff191660ff831617610100179055600054610b72906008906001600160a01b0316612022565b606c54610b8a906005906001600160a01b0316612022565b610b95600483612022565b603554610bad90600a906001600160a01b0316612022565b600080546001600160a01b0319908116909155606c8054821690556035805482169055603680549091169055610113805461ff001916905560405160ff821681527f7f26b83ff96e1f2b6a682f133852f6798a09c465da95921460cefb3847402498906020015b60405180910390a15050565b6001600160a01b038216600090815260db6020908152604080832084845290915281205460ff165b9392505050565b61011354600390610100900460ff16158015610c7357506101135460ff8083169116105b610c8f5760405162461bcd60e51b8152600401610b3c90612cb9565b610113805461ffff191660ff831617610100179055610caf600f83612022565b610cbd6001546002546120c6565b610113805461ff001916905560405160ff821681527f7f26b83ff96e1f2b6a682f133852f6798a09c465da95921460cefb384740249890602001610c14565b6001600160a01b038216600090815260a460209081526040808320848452909152812054610c48565b6008610d3081611e27565b60003390506000816001600160a01b031663297a8fca6040518163ffffffff1660e01b8152600401602060405180830381865afa158015610d75573d6000803e3d6000fd5b505050506040513d601f19601f82011682018060405250810190610d999190612af6565b90506000826001600160a01b0316634de2b73588886040518363ffffffff1660e01b8152600401610dcb929190612d07565b600060405180830381865afa158015610de8573d6000803e3d6000fd5b505050506040513d6000823e601f3d908101601f19168201604052610e109190810190612d4e565b90506000610e1e60056119ce565b6001600160a01b031663ba303755898986436040518563ffffffff1660e01b8152600401610e4f9493929190612dea565b600060405180830381865afa158015610e6c573d6000803e3d6000fd5b505050506040513d6000823e601f3d908101601f19168201604052610e949190810190612d4e565b90506000876001600160401b03811115610eb057610eb0612a5c565b604051908082528060200260200182016040528015610ed9578160200160208202803683370190505b50905060005b88811015610ff45760008a8a83818110610efb57610efb612a72565b9050602002016020810190610f109190612603565b90506000610f1e828b610cfc565b90506000868481518110610f3457610f34612a72565b602002602001015190506000868581518110610f5257610f52612a72565b6020026020010151905060008280610f675750815b610f7c57610f7760dd5485612106565b610f7f565b60005b6001600160a01b038616600090815260dc602052604090205460de54919250610fa9918390612120565b6001600160a01b038616600090815260dc602052604090208190558751889088908110610fd857610fd8612a72565b6020026020010181815250508560010195505050505050610edf565b507f8c02b2ccee964dc50649a48bd0a0446f0f9e88ecdb72d099f4ace07c39c2348089898360405161102893929190612ac6565b60405180910390a1505050505050505050565b611043611e73565b61104d828261213d565b5050565b611059611e73565b6110628161217d565b61104d8282612022565b61011354610100900460ff161580801561108e575061011354600160ff909116105b806110a95750303b1580156110a957506101135460ff166001145b6110c55760405162461bcd60e51b8152600401610b3c90612cb9565b610113805460ff1916600117905580156110ea57610113805461ff0019166101001790555b6110f560088b612022565b61110060058a612022565b61110b600488612022565b611116600a89612022565b61112f86356020880135604089013560608a0135611ecf565b61113e8535602087013561213d565b6111528435602086013560408701356121b3565b61116b8335602085013560408601356060870135612208565b6111848235602084013560408501356060860135612294565b80156111cb57610113805461ff0019169055604051600181527f7f26b83ff96e1f2b6a682f133852f6798a09c465da95921460cefb38474024989060200160405180910390a15b50505050505050505050565b6111df611e73565b61104d82826120c6565b60086111f481611e27565b8260010361123357836001600160a01b03166000805160206133a4833981519152600584604051611226929190612c6a565b60405180910390a261066d565b8260020361066d57836001600160a01b03166000805160206133a4833981519152600684604051611265929190612c6a565b60405180910390a250505050565b61127b611e73565b61066d84848484612294565b61128f611e73565b61129a8383836121b3565b505050565b6112a7611e73565b61066d84848484612208565b6112bc33612331565b6000036112ec576000356001600160e01b0319166003604051620f948f60ea1b8152600401610b3c929190612e11565b60006112f8600f6119ce565b6040516303d1982560e61b81526001600160a01b038a8116600483015291925060009183169063f466094090602401600060405180830381865afa158015611344573d6000803e3d6000fd5b505050506040513d6000823e601f3d908101601f1916820160405261136c9190810190612ec8565b60a0015190508080519060200120888860405161138a929190612ca9565b6040518091039020146113be5760405163053265f160e01b81526001600160e01b0319600035166004820152602401610b3c565b6040516bffffffffffffffffffffffff1960608b901b1660208201526034810187905260009060540160408051601f1981840301815291815281516020928301206000818152601f90935291205490915060ff16156114305760405163f27b8ec960e01b815260040160405180910390fd5b6114a689898080601f016020809104026020016040519081016040528093929190818152602001838380828437600092019190915250506040805180820182528c935091508a90600290839083908082843760009201919091525061149891508a9050612fe0565b6114a1896130b7565b6123a9565b156111cb576000818152601f60205260408120805460ff191660011790556114ce60086119ce565b90506000816001600160a01b031663060406186040518163ffffffff1660e01b8152600401602060405180830381865afa158015611510573d6000803e3d6000fd5b505050506040513d601f19601f820116820180604052508101906115349190612af6565b90508b6001600160a01b03166000805160206133a4833981519152600883604051611560929190612c6a565b60405180910390a2816001600160a01b0316632f78204c8d601e54601d5460016040518563ffffffff1660e01b815260040161159f9493929190612c81565b600060405180830381600087803b1580156115b957600080fd5b505af11580156115cd573d6000803e3d6000fd5b50505050505050505050505050505050565b60006115eb60086119ce565b604051635061f96960e11b81526001600160a01b0384811660048301529192509082169063a0c3f2d290602401602060405180830381865afa158015611635573d6000803e3d6000fd5b505050506040513d601f19601f82011682018060405250810190611659919061310f565b611686576000356001600160e01b0319166008604051620f948f60ea1b8152600401610b3c929190612e11565b6040516304d971ab60e01b81526001600160a01b0383811660048301523360248301528216906304d971ab90604401602060405180830381865afa1580156116d2573d6000803e3d6000fd5b505050506040513d601f19601f820116820180604052508101906116f6919061310f565b611723576000356001600160e01b0319166004604051620f948f60ea1b8152600401610b3c929190612e11565b604051634b2c2fe160e11b81526001600160a01b03838116600483015260009182918416906396585fc290602401606060405180830381865afa15801561176e573d6000803e3d6000fd5b505050506040513d601f19601f82011682018060405250810190611792919061312a565b9250509150816117b557604051636cd31b5960e01b815260040160405180910390fd5b6000836001600160a01b031663060406186040518163ffffffff1660e01b8152600401602060405180830381865afa1580156117f5573d6000803e3d6000fd5b505050506040513d601f19601f820116820180604052508101906118199190612af6565b6001600160a01b038616600090815260db6020908152604080832084845290915290205490915060ff161561186157604051637674d6a960e01b815260040160405180910390fd5b6001600160a01b038516600090815260dc602052604081205460df5490919061188a908561315f565b9050808210156118ad5760405163462e593760e11b815260040160405180910390fd5b604051630adaf5ef60e11b81526001600160a01b038881166004830152602482018590528716906315b5ebde90604401600060405180830381600087803b1580156118f757600080fd5b505af115801561190b573d6000803e3d6000fd5b505050506001600160a01b038716600090815260dc602052604081208054839290611937908490612c31565b90915550506001600160a01b038716600090815260a4602090815260408083208684529091528120556001600160a01b038716600081815260db60209081526040808320878452825291829020805460ff1916600117905581518681529081018490527f7ff9f7032d565c7e8919332964b2faa33c320b53604a65d9dd1f8112e12cd39d910160405180910390a250505050505050565b60007fdea3103d22025c269050bea94c0c84688877f12fa22b7e6d2d5d78a9a49aa1cb600083600f811115611a0557611a05612c44565b60ff1681526020810191909152604001600020546001600160a01b0316905080611a44578160405163409140df60e11b8152600401610b3c919061318a565b919050565b6060816001600160401b03811115611a6357611a63612a5c565b604051908082528060200260200182016040528015611a8c578160200160208202803683370190505b50905060005b8151811015611b0c5760dc6000858584818110611ab157611ab1612a72565b9050602002016020810190611ac69190612603565b6001600160a01b03166001600160a01b0316815260200190815260200160002054828281518110611af957611af9612a72565b6020908102919091010152600101611a92565b5092915050565b60a3544311611b355760405163557fd09160e01b815260040160405180910390fd5b4360a355334114611b69576000356001600160e01b0319166002604051620f948f60ea1b8152600401610b3c929190612e11565b611b7281612404565b15611e24576000611b8360086119ce565b90506000816001600160a01b031663060406186040518163ffffffff1660e01b8152600401602060405180830381865afa158015611bc5573d6000803e3d6000fd5b505050506040513d601f19601f82011682018060405250810190611be99190612af6565b6001600160a01b038416600090815260a460209081526040808320848452909152812080546001019081905560a85492935091611c2790439061251a565b905060a6548203611cd057846001600160a01b03166000805160206133a4833981519152600285604051611c5c929190612c6a565b60405180910390a260a754604051630bde081360e21b81526001600160a01b03861691632f78204c91611c99918991869190600090600401612c81565b600060405180830381600087803b158015611cb357600080fd5b505af1158015611cc7573d6000803e3d6000fd5b50505050611e1f565b60a5548203611e1f576000611ce58685610c20565b905080611d8857856001600160a01b03166000805160206133a4833981519152600186604051611d16929190612c6a565b60405180910390a2604051630bde081360e21b81526001600160a01b03861690632f78204c90611d5190899060009081908190600401612c81565b600060405180830381600087803b158015611d6b57600080fd5b505af1158015611d7f573d6000803e3d6000fd5b50505050611e1d565b856001600160a01b03166000805160206133a4833981519152600786604051611db2929190612c6a565b60405180910390a260a754604051630bde081360e21b81526001600160a01b03871691632f78204c91611def918a91879190600190600401612c81565b600060405180830381600087803b158015611e0957600080fd5b505af11580156111cb573d6000803e3d6000fd5b505b505050505b50565b611e30816119ce565b6001600160a01b0316336001600160a01b031614611e24576000356001600160e01b03191681336040516320e0f98d60e21b8152600401610b3c93929190613198565b7fb53127684a568b3173ae13b9f8a6016e243e63b6e8ee1178d6a717850b5d6103546001600160a01b03163314611ecd576000356001600160e01b0319166001604051620f948f60ea1b8152600401610b3c929190612e11565b565b82841180611ede575061271084115b80611eea575061271083115b15611f0857604051631cbe1abf60e11b815260040160405180910390fd5b606d849055606e839055606f82905560708190556040805185815260208101859052908101839052606081018290527fd24c671da2227c139fe1a5b34de15e5a67bef9b46e912916b9e0d025d51b3e3b906080016105d4565b600081831015611f715781610c48565b5090919050565b6040516000906067906001908390611f9c908a908a908a908a908a906024016131f8565b60408051601f198184030181529190526020810180516001600160e01b0316637fc3567760e01b1790528051909150611fd3612544565b602083016020828483895afa611fe857600094505b503d611ff357600093505b8361201157604051630fc2632160e01b815260040160405180910390fd5b5115159a9950505050505050505050565b807fdea3103d22025c269050bea94c0c84688877f12fa22b7e6d2d5d78a9a49aa1cb600084600f81111561205857612058612c44565b60ff168152602081019190915260400160002080546001600160a01b0319166001600160a01b03928316179055811682600f81111561209957612099612c44565b6040517f865d1c228a8ea13709cfe61f346f7ff67f1bbd4a18ff31ad3e7147350d317c5990600090a35050565b601d829055601e81905560408051838152602081018390527f381ec200df2ed0875638486318f9f8a84e3550bdc686bf1400c9371a18d087f09101610c14565b6000818311612116576000610c48565b610c488284612c31565b600061213561212f848661323c565b83612535565b949350505050565b6038829055603981905560408051838152602081018390527fbda9ec2980d7468ba6a9f363696315affca9f9770016396bdea2ac39c3e5d61a9101610c14565b806001600160a01b03163b600003611e2457604051630bfc64a360e21b81526001600160a01b0382166004820152602401610b3c565b60018390556002829055600381905560408051848152602081018490529081018290527f913da102149f952dde560cef3349db8e8002e9d580c41a7551d6d45329f4306b9060600160405180910390a1505050565b60a65460a554111561223b576040516387f6f09560e01b81526001600160e01b0319600035166004820152602401610b3c565b60a584905560a683905560a782905560a88190556040805185815260208101859052908101839052606081018290527f442862e6143ad95854e7c13ff4947ec6e43bc87160e3b193e7c1abaf6e3aaa98906080016105d4565b828411156122b55760405163112af4d160e01b815260040160405180910390fd5b6127108111156122d85760405163382c88a360e21b815260040160405180910390fd5b60dd84905560de83905560df82905560e08190556040805185815260208101859052908101839052606081018290527fe1f9c6c73554b5fa140eead3cfd4ec3e6d4824f3ed26fb25e38376f65b95470b906080016105d4565b600061233d600a6119ce565b604051631af0725f60e31b81526001600160a01b038481166004830152919091169063d78392f890602401602060405180830381865afa158015612385573d6000803e3d6000fd5b505050506040513d601f19601f820116820180604052508101906106539190612af6565b60405160009060699060019083906123cd908a908a908a908a908a906024016132c0565b60408051601f198184030181529190526020810180516001600160e01b0316637b47d06b60e01b1790528051909150611fd3612544565b6000336001600160a01b03831614801590612490575061242460086119ce565b604051633292276760e11b81526001600160a01b03848116600483015291909116906365244ece90602401602060405180830381865afa15801561246c573d6000803e3d6000fd5b505050506040513d601f19601f82011682018060405250810190612490919061310f565b801561065357506124a160056119ce565b604051630fbeb37f60e01b81526001600160a01b0384811660048301524360248301529190911690630fbeb37f90604401602060405180830381865afa1580156124ef573d6000803e3d6000fd5b505050506040513d601f19601f82011682018060405250810190612513919061310f565b1592915050565b60008160000361252b576000610c48565b610c48828461323c565b6000818310611f715781610c48565b60405180602001604052806001906020820280368337509192915050565b60008083601f84011261257457600080fd5b5081356001600160401b0381111561258b57600080fd5b6020830191508360208260051b85010111156125a657600080fd5b9250929050565b600080602083850312156125c057600080fd5b82356001600160401b038111156125d657600080fd5b6125e285828601612562565b90969095509350505050565b6001600160a01b0381168114611e2457600080fd5b60006020828403121561261557600080fd5b8135610c48816125ee565b6000806000806080858703121561263657600080fd5b5050823594602084013594506040840135936060013592509050565b60008083601f84011261266457600080fd5b5081356001600160401b0381111561267b57600080fd5b6020830191508360208285010111156125a657600080fd5b6000806000806000606086880312156126ab57600080fd5b85356126b6816125ee565b945060208601356001600160401b03808211156126d257600080fd5b6126de89838a01612652565b909650945060408801359150808211156126f757600080fd5b5061270488828901612652565b969995985093965092949392505050565b6000806040838503121561272857600080fd5b8235612733816125ee565b946020939093013593505050565b60008060006040848603121561275657600080fd5b83356001600160401b0381111561276c57600080fd5b61277886828701612562565b909790965060209590950135949350505050565b6000806040838503121561279f57600080fd5b50508035926020909101359150565b803560108110611a4457600080fd5b600080604083850312156127d057600080fd5b6127d9836127ae565b915060208301356127e9816125ee565b809150509250929050565b806080810183101561065357600080fd5b806040810183101561065357600080fd5b60008060008060008060008060006102a08a8c03121561283557600080fd5b8935612840816125ee565b985060208a0135612850816125ee565b975060408a0135612860816125ee565b965060608a0135612870816125ee565b955061287f8b60808c016127f4565b945061288f8b6101008c01612805565b93506101a08a018b8111156128a357600080fd5b6101408b0193506128b48c826127f4565b9250506128c58b6102208c016127f4565b90509295985092959850929598565b6000806000606084860312156128e957600080fd5b83356128f4816125ee565b95602085013595506040909401359392505050565b60008060006060848603121561291e57600080fd5b505081359360208301359350604090920135919050565b600080600080600080600060e0888a03121561295057600080fd5b873561295b816125ee565b965060208801356001600160401b038082111561297757600080fd5b6129838b838c01612652565b909850965060408a0135955086915061299f8b60608c01612805565b945060a08a01359150808211156129b557600080fd5b6129c18b838c01612805565b935060c08a01359150808211156129d757600080fd5b506129e48a828b01612805565b91505092959891949750929550565b600060208284031215612a0557600080fd5b610c48826127ae565b600081518084526020808501945080840160005b83811015612a3e57815187529582019590820190600101612a22565b509495945050505050565b602081526000610c486020830184612a0e565b634e487b7160e01b600052604160045260246000fd5b634e487b7160e01b600052603260045260246000fd5b8183526000602080850194508260005b85811015612a3e578135612aab816125ee565b6001600160a01b031687529582019590820190600101612a98565b604081526000612ada604083018587612a88565b8281036020840152612aec8185612a0e565b9695505050505050565b600060208284031215612b0857600080fd5b5051919050565b60405160c081016001600160401b0381118282101715612b3157612b31612a5c565b60405290565b604080519081016001600160401b0381118282101715612b3157612b31612a5c565b604051601f8201601f191681016001600160401b0381118282101715612b8157612b81612a5c565b604052919050565b8051611a44816125ee565b600060a08284031215612ba657600080fd5b60405160a081018181106001600160401b0382111715612bc857612bc8612a5c565b6040528251612bd6816125ee565b81526020830151612be6816125ee565b60208201526040830151612bf9816125ee565b6040820152606083810151908201526080928301519281019290925250919050565b634e487b7160e01b600052601160045260246000fd5b8181038181111561065357610653612c1b565b634e487b7160e01b600052602160045260246000fd5b60098110611e2457611e24612c44565b60408101612c7784612c5a565b9281526020015290565b6001600160a01b03949094168452602084019290925260408301521515606082015260800190565b8183823760009101908152919050565b6020808252602e908201527f496e697469616c697a61626c653a20636f6e747261637420697320616c72656160408201526d191e481a5b9a5d1a585b1a5e995960921b606082015260800190565b602081526000612135602083018486612a88565b60006001600160401b03821115612d3457612d34612a5c565b5060051b60200190565b80518015158114611a4457600080fd5b60006020808385031215612d6157600080fd5b82516001600160401b03811115612d7757600080fd5b8301601f81018513612d8857600080fd5b8051612d9b612d9682612d1b565b612b59565b81815260059190911b82018301908381019087831115612dba57600080fd5b928401925b82841015612ddf57612dd084612d3e565b82529284019290840190612dbf565b979650505050505050565b606081526000612dfe606083018688612a88565b6020830194909452506040015292915050565b6001600160e01b03198316815260408101612e2b83612c5a565b8260208301529392505050565b60006001600160401b03821115612e5157612e51612a5c565b50601f01601f191660200190565b60005b83811015612e7a578181015183820152602001612e62565b50506000910152565b600082601f830112612e9457600080fd5b8151612ea2612d9682612e38565b818152846020838601011115612eb757600080fd5b612135826020830160208701612e5f565b600060208284031215612eda57600080fd5b81516001600160401b0380821115612ef157600080fd5b9083019060c08286031215612f0557600080fd5b612f0d612b0f565b8251612f18816125ee565b81526020830151612f28816125ee565b60208201526040830151612f3b816125ee565b6040820152612f4c60608401612b89565b6060820152612f5d60808401612b89565b608082015260a083015182811115612f7457600080fd5b612f8087828601612e83565b60a08301525095945050505050565b600082601f830112612fa057600080fd5b8135612fae612d9682612e38565b818152846020838601011115612fc357600080fd5b816020850160208301376000918101602001919091529392505050565b6000612fea612b37565b806040840136811115612ffc57600080fd5b845b818110156130ad5780356001600160401b038082111561301e5760008081fd5b9087019036601f8301126130325760008081fd5b81356020613042612d9683612d1b565b82815260059290921b840181019181810190368411156130625760008081fd5b8286015b8481101561309a5780358681111561307e5760008081fd5b61308c3686838b0101612f8f565b845250918301918301613066565b5089525090960195505050602001612ffe565b5090949350505050565b60006130c1612b37565b8060408401368111156130d357600080fd5b845b818110156130ad5780356001600160401b038111156130f45760008081fd5b61310036828901612f8f565b855250602093840193016130d5565b60006020828403121561312157600080fd5b610c4882612d3e565b60008060006060848603121561313f57600080fd5b61314884612d3e565b925060208401519150604084015190509250925092565b808202811582820484141761065357610653612c1b565b6010811061318657613186612c44565b9052565b602081016106538284613176565b6001600160e01b031984168152606081016131b66020830185613176565b6001600160a01b03929092166040919091015292915050565b81835281816020850137506000828201602090810191909152601f909101601f19169091010190565b6001600160a01b038616815260606020820181905260009061321d90830186886131cf565b82810360408401526132308185876131cf565b98975050505050505050565b8082018082111561065357610653612c1b565b60008151808452613267816020860160208601612e5f565b601f01601f19169290920160200192915050565b600082604081018360005b60028110156132b557838303875261329f83835161324f565b6020978801979093509190910190600101613286565b509095945050505050565b60c0815260006132d360c083018861324f565b60208781850152604084018760005b60028110156132ff578151835291830191908301906001016132e2565b505050838203608085015281604081018760005b6002811015613380578583038452815180518085529086019086850190600581901b8601880160005b8281101561336a57601f1988830301845261335882865161324f565b948a0194938a0193915060010161333c565b5096880196955050509185019150600101613313565b505085810360a0870152613394818861327b565b9b9a505050505050505050505056fe607adba66cff84b627e3537d1c17d088a98556bccd0536a2f3590c56329023d9a164736f6c6343000811000a",
  "devdoc": {
    "errors": {
      "ErrCallPrecompiled()": [
        {
          "details": "Error of call to precompile fails."
        }
      ],
      "ErrCallerMustBeJailedInTheCurrentPeriod()": [
        {
          "details": "Error thrown when the caller must be jailed in the current period."
        }
      ],
      "ErrCannotSlashAValidatorTwiceOrSlashMoreThanOneValidatorInOneBlock()": [
        {
          "details": "Error thrown when attempting to slash a validator twice or slash more than one validator in one block."
        }
      ],
      "ErrContractTypeNotFound(uint8)": [
        {
          "details": "Error of invalid role."
        }
      ],
      "ErrEvidenceAlreadySubmitted()": [
        {
          "details": "Error thrown when evidence has already been submitted."
        }
      ],
      "ErrInsufficientCreditScoreToBailOut()": [
        {
          "details": "Error thrown when the caller's credit score is insufficient to bail out a situation."
        }
      ],
      "ErrInvalidArguments(bytes4)": [
        {
          "details": "Error indicating that arguments are invalid."
        }
      ],
      "ErrInvalidCreditScoreConfig()": [
        {
          "details": "Error thrown when an invalid credit score configuration is provided."
        }
      ],
      "ErrInvalidCutOffPercentageConfig()": [
        {
          "details": "Error thrown when an invalid cut-off percentage configuration is provided."
        }
      ],
      "ErrInvalidRatios()": [
        {
          "details": "Error thrown when invalid ratios are provided."
        }
      ],
      "ErrInvalidSlash()": [
        {
          "details": "Error thrown when an invalid slash is encountered."
        }
      ],
      "ErrInvalidThreshold(bytes4)": [
        {
          "details": "Error indicating that the provided threshold is invalid for a specific function signature.",
          "params": {
            "msgSig": "The function signature (bytes4) that the invalid threshold applies to."
          }
        }
      ],
      "ErrUnauthorized(bytes4,uint8)": [
        {
          "details": "Error indicating that the caller is unauthorized to perform a specific function.",
          "params": {
            "expectedRole": "The role required to perform the function.",
            "msgSig": "The function signature (bytes4) that the caller is unauthorized to perform."
          }
        }
      ],
      "ErrUnexpectedInternalCall(bytes4,uint8,address)": [
        {
          "details": "Error indicating that the caller is unauthorized to perform a specific function.",
          "params": {
            "actual": "The actual address that called to the function.",
            "expectedContractType": "The contract type required to perform the function.",
            "msgSig": "The function signature (bytes4)."
          }
        }
      ],
      "ErrValidatorHasBailedOutPreviously()": [
        {
          "details": "Error thrown when a validator has previously bailed out."
        }
      ],
      "ErrZeroCodeContract(address)": [
        {
          "details": "Error of set to non-contract."
        }
      ]
    },
    "kind": "dev",
    "methods": {
      "bailOut(address)": {
        "details": "A slashed validator use this method to get out of jail. Requirements: - The `_consensusAddr` must be a validator. - Only validator's admin can call this method. Emits the event `BailedOut`."
      },
      "checkBailedOutAtPeriod(address,uint256)": {
        "details": "Returns the whether the `_validator` has been bailed out at the `_period`."
      },
      "currentUnavailabilityIndicator(address)": {
        "details": "Returns the current unavailability indicator of a block producer."
      },
      "execResetCreditScores(address[])": {
        "details": "Resets the credit score for the revoked validators. Requirements: - Only validator contract can call this method. - This method is only called at the end of each period. Emits the event `CreditScoresUpdated`."
      },
      "execSlashBridgeOperator(address,uint256,uint256)": {
        "details": "Acknowledges bridge operator slash and emit `Slashed` event correspondingly.",
        "params": {
          "_tier": "The tier of the slash, in value of {1, 2}, corresponding to `SlashType.BRIDGE_OPERATOR_MISSING_VOTE_TIER_1` and `SlashType.BRIDGE_OPERATOR_MISSING_VOTE_TIER_2` Requirements: - Only validator contract can invoke this method. - Should be called only at the end of period. - Should be called only when there is slash of bridge operator. Emits the event `Slashed`."
        }
      },
      "getBridgeOperatorSlashingConfigs()": {
        "details": "Returns the configs related to bridge operator slashing.",
        "returns": {
          "jailDurationForMissingVotesRatioTier2_": "The number of blocks to jail the corresponding block producer when its bridge operator is slashed tier-2.",
          "missingVotesRatioTier1_": "The bridge reward will be deprecated if (s)he missed more than this ratio.",
          "missingVotesRatioTier2_": "The bridge reward and mining reward will be deprecated and the corresponding block producer will be put in jail if (s)he misses more than this ratio.",
          "skipBridgeOperatorSlashingThreshold_": "The threshold to skip slashing the bridge operator in case the total number of votes in the bridge is too small."
        }
      },
      "getBridgeVotingSlashingConfigs()": {
        "details": "Returns the configs related to bridge voting slashing.",
        "returns": {
          "bridgeVotingSlashAmount_": "The amount of RON to slash bridge voting.",
          "bridgeVotingThreshold_": "The threshold to slash when a trusted organization does not vote for bridge operators."
        }
      },
      "getContract(uint8)": {
        "details": "Returns the address of a contract with a specific role. Throws an error if no contract is set for the specified role.",
        "params": {
          "contractType": "The role of the contract to retrieve."
        },
        "returns": {
          "contract_": "The address of the contract with the specified role."
        }
      },
      "getCreditScore(address)": {
        "details": "Returns the current credit score of the validator."
      },
      "getCreditScoreConfigs()": {
        "details": "Returns the configs related to credit score.",
        "returns": {
          "bailOutCostMultiplier_": "The number that will be multiplied with the remaining jailed time to get the cost of bailing out.",
          "cutOffPercentageAfterBailout_": "The percentage of reward that the block producer will be cut off from until the end of the period after bailing out.",
          "gainCreditScore_": "The score to gain per period.",
          "maxCreditScore_": "The max number of credit score that a validator can hold."
        }
      },
      "getDoubleSignSlashingConfigs()": {
        "details": "Returns the configs related to block producer slashing.",
        "params": {
          "_doubleSigningOffsetLimitBlock": "The number of block that the current block is at most far from the double signing block."
        },
        "returns": {
          "doubleSigningJailUntilBlock_": "The block number that the punished validator will be jailed until, due to double signing.",
          "slashDoubleSignAmount_": "The amount of RON to slash double sign."
        }
      },
      "getFastFinalitySlashingConfigs()": {
        "details": "Returns the configs related to block producer slashing.",
        "returns": {
          "fastFinalityJailUntilBlock_": "The block number that the punished validator will be jailed until, due to malicious fast finality.",
          "slashFastFinalityAmount_": "The amount of RON to slash fast finality."
        }
      },
      "getManyCreditScores(address[])": {
        "details": "Returns the current credit score of a list of validators."
      },
      "getUnavailabilityIndicator(address,uint256)": {
        "details": "Helper for CreditScore contract to query indicator of the validator."
      },
      "getUnavailabilitySlashingConfigs()": {
        "details": "Returns the configs related to block producer slashing.",
        "returns": {
          "jailDurationForUnavailabilityTier2Threshold_": "The number of blocks to jail a block producer when (s)he is slashed with tier-2 or tier-3.",
          "slashAmountForUnavailabilityTier2Threshold_": "The amount of RON to deduct from self-staking of a block producer when (s)he is slashed with tier-2 or tier-3.",
          "unavailabilityTier1Threshold_": "The mining reward will be deprecated, if (s)he missed more than this threshold. This threshold is applied for tier-1 and tier-3 slash.",
          "unavailabilityTier2Threshold_": " The mining reward will be deprecated, (s)he will be put in jailed, and will be deducted self-staking if (s)he misses more than this threshold. This threshold is applied for tier-2 slash."
        }
      },
      "initialize(address,address,address,address,uint256[4],uint256[2],uint256[3],uint256[4],uint256[4])": {
        "details": "Initializes the contract storage."
      },
      "precompileValidateDoubleSignAddress()": {
        "details": "Gets the address of the precompile of validating double sign evidence"
      },
      "precompileValidateFastFinalityAddress()": {
        "details": "Gets the address of the precompile of validating double sign evidence"
      },
      "setBridgeOperatorSlashingConfigs(uint256,uint256,uint256,uint256)": {
        "details": "Sets the configs to slash bridge operators. Requirements: - The method caller is admin. Emits the event `BridgeOperatorSlashingConfigsUpdated`.",
        "params": {
          "_jailDurationTier2": "The number of blocks to jail the corresponding block producer when its bridge operator is slashed tier-2.",
          "_ratioTier1": "The bridge reward will be deprecated if (s)he missed more than this ratio. Values 0-10,000 map to 0%-100%.",
          "_ratioTier2": "The bridge reward and mining reward will be deprecated and the corresponding block producer will be put in jail if (s)he misses more than this ratio. Values 0-10,000 map to 0%-100%.",
          "_skipSlashingThreshold": "The threshold to skip slashing the bridge operator in case the total number of votes in the bridge is too small."
        }
      },
      "setBridgeVotingSlashingConfigs(uint256,uint256)": {
        "details": "Sets the configs to slash bridge voting. Requirements: - The method caller is admin. Emits the event `BridgeVotingSlashingConfigsUpdated`.",
        "params": {
          "_slashAmount": "The amount of RON to slash bridge voting.",
          "_threshold": "The threshold to slash when a trusted organization does not vote for bridge operators."
        }
      },
      "setContract(uint8,address)": {
        "details": "Sets the address of a contract with a specific role. Emits the event {ContractUpdated}.",
        "params": {
          "addr": "The address of the contract to set.",
          "contractType": "The role of the contract to set."
        }
      },
      "setCreditScoreConfigs(uint256,uint256,uint256,uint256)": {
        "details": "Sets the configs to credit score. Requirements: - The method caller is admin. Emits the event `CreditScoreConfigsUpdated`.",
        "params": {
          "_bailOutMultiplier": "The number that will be multiplied with the remaining jailed time to get the cost of bailing out.",
          "_cutOffPercentage": "The percentage of reward that the block producer will be cut off from until the end of the period after bailing out.",
          "_gainScore": "The score to gain per period.",
          "_maxScore": "The max number of credit score that a validator can hold."
        }
      },
      "setDoubleSignSlashingConfigs(uint256,uint256,uint256)": {
        "details": "Sets the configs to slash block producers. Requirements: - The method caller is admin. Emits the event `DoubleSignSlashingConfigsUpdated`.",
        "params": {
          "_doubleSigningOffsetLimitBlock": "The number of block that the current block is at most far from the double signing block.",
          "_jailUntilBlock": "The block number that the punished validator will be jailed until, due to double signing.",
          "_slashAmount": "The amount of RON to slash double sign."
        }
      },
      "setFastFinalitySlashingConfigs(uint256,uint256)": {
        "details": "Sets the configs to slash block producers. Requirements: - The method caller is admin. Emits the event `FastFinalitySlashingConfigsUpdated`.",
        "params": {
          "jailUntilBlock": "The block number that the punished validator will be jailed until, due to fast finality.",
          "slashAmount": "The amount of RON to slash fast finality."
        }
      },
      "setUnavailabilitySlashingConfigs(uint256,uint256,uint256,uint256)": {
        "details": "Sets the configs to slash block producers. Requirements: - The method caller is admin. Emits the event `BridgeOperatorSlashingConfigsUpdated`.",
        "params": {
          "_jailDurationForTier2Threshold": "The number of blocks to jail a block producer when (s)he is slashed tier-2.",
          "_slashAmountForTier2Threshold": "The amount of RON to deduct from self-staking of a block producer when (s)he is slashed tier-2.",
          "_tier1Threshold": "The mining reward will be deprecated, if (s)he missed more than this threshold.",
          "_tier2Threshold": "The mining reward will be deprecated, (s)he will be put in jailed, and will be deducted self-staking if (s)he misses more than this threshold."
        }
      },
      "slashBridgeVoting(address)": {
        "details": "Slashes for bridge voter governance. Emits the event `Slashed`."
      },
      "slashDoubleSign(address,bytes,bytes)": {
        "details": "Slashes for double signing. Requirements: - The method caller is coinbase. Emits the event `Slashed` if the double signing evidence of the two headers valid."
      },
      "slashFastFinality(address,bytes,uint256,bytes32[2],bytes[][2],bytes[2])": {
        "details": "Slashes for fast finality. Requirements: - Only whitelisted addresses are allowed to call. Emits the event `Slashed` if the fast finality evidence of the two headers valid."
      },
      "slashUnavailability(address)": {
        "details": "Slashes for unavailability by increasing the counter of block producer `_consensusAddr`. Requirements: - The method caller is coinbase. Emits the event `Slashed` when the threshold is reached."
      },
      "updateCreditScores(address[],uint256)": {
        "details": "Updates the credit score for the validators. Requirements: - Only validator contract can call this method. - This method is only called at the end of each period. Emits the event `CreditScoresUpdated`."
      }
    },
    "version": 1
  },
  "userdoc": {
    "kind": "user",
    "methods": {},
    "version": 1
  },
  "storageLayout": {
    "storage": [
      {
        "astId": 8212,
        "contract": "contracts/ronin/slash-indicator/SlashIndicator.sol:SlashIndicator",
        "label": "______deprecatedValidator",
        "offset": 0,
        "slot": "0",
        "type": "t_address"
      },
      {
        "astId": 6841,
        "contract": "contracts/ronin/slash-indicator/SlashIndicator.sol:SlashIndicator",
        "label": "_slashDoubleSignAmount",
        "offset": 0,
        "slot": "1",
        "type": "t_uint256"
      },
      {
        "astId": 6844,
        "contract": "contracts/ronin/slash-indicator/SlashIndicator.sol:SlashIndicator",
        "label": "_doubleSigningJailUntilBlock",
        "offset": 0,
        "slot": "2",
        "type": "t_uint256"
      },
      {
        "astId": 6847,
        "contract": "contracts/ronin/slash-indicator/SlashIndicator.sol:SlashIndicator",
        "label": "_doubleSigningOffsetLimitBlock",
        "offset": 0,
        "slot": "3",
        "type": "t_uint256"
      },
      {
        "astId": 6852,
        "contract": "contracts/ronin/slash-indicator/SlashIndicator.sol:SlashIndicator",
        "label": "_submittedEvidence",
        "offset": 0,
        "slot": "4",
        "type": "t_mapping(t_bytes32,t_bool)"
      },
      {
        "astId": 6857,
        "contract": "contracts/ronin/slash-indicator/SlashIndicator.sol:SlashIndicator",
        "label": "______gap",
        "offset": 0,
        "slot": "5",
        "type": "t_array(t_uint256)24_storage"
      },
      {
        "astId": 7042,
        "contract": "contracts/ronin/slash-indicator/SlashIndicator.sol:SlashIndicator",
        "label": "_slashFastFinalityAmount",
        "offset": 0,
        "slot": "29",
        "type": "t_uint256"
      },
      {
        "astId": 7045,
        "contract": "contracts/ronin/slash-indicator/SlashIndicator.sol:SlashIndicator",
        "label": "_fastFinalityJailUntilBlock",
        "offset": 0,
        "slot": "30",
        "type": "t_uint256"
      },
      {
        "astId": 7050,
        "contract": "contracts/ronin/slash-indicator/SlashIndicator.sol:SlashIndicator",
        "label": "_processedEvidence",
        "offset": 0,
        "slot": "31",
        "type": "t_mapping(t_bytes32,t_bool)"
      },
      {
        "astId": 7055,
        "contract": "contracts/ronin/slash-indicator/SlashIndicator.sol:SlashIndicator",
        "label": "______gap",
        "offset": 0,
        "slot": "32",
        "type": "t_array(t_uint256)21_storage"
      },
      {
        "astId": 8224,
        "contract": "contracts/ronin/slash-indicator/SlashIndicator.sol:SlashIndicator",
        "label": "______deprecatedTrustedOrg",
        "offset": 0,
        "slot": "53",
        "type": "t_address"
      },
      {
        "astId": 8228,
        "contract": "contracts/ronin/slash-indicator/SlashIndicator.sol:SlashIndicator",
        "label": "______deprecatedGovernanceAdmin",
        "offset": 0,
        "slot": "54",
        "type": "t_address"
      },
      {
        "astId": 6659,
        "contract": "contracts/ronin/slash-indicator/SlashIndicator.sol:SlashIndicator",
        "label": "_bridgeVotingSlashed",
        "offset": 0,
        "slot": "55",
        "type": "t_mapping(t_address,t_mapping(t_uint256,t_bool))"
      },
      {
        "astId": 6662,
        "contract": "contracts/ronin/slash-indicator/SlashIndicator.sol:SlashIndicator",
        "label": "_bridgeVotingThreshold",
        "offset": 0,
        "slot": "56",
        "type": "t_uint256"
      },
      {
        "astId": 6665,
        "contract": "contracts/ronin/slash-indicator/SlashIndicator.sol:SlashIndicator",
        "label": "_bridgeVotingSlashAmount",
        "offset": 0,
        "slot": "57",
        "type": "t_uint256"
      },
      {
        "astId": 6670,
        "contract": "contracts/ronin/slash-indicator/SlashIndicator.sol:SlashIndicator",
        "label": "______gap",
        "offset": 0,
        "slot": "58",
        "type": "t_array(t_uint256)50_storage"
      },
      {
        "astId": 8220,
        "contract": "contracts/ronin/slash-indicator/SlashIndicator.sol:SlashIndicator",
        "label": "______deprecatedMaintenance",
        "offset": 0,
        "slot": "108",
        "type": "t_address"
      },
      {
        "astId": 6480,
        "contract": "contracts/ronin/slash-indicator/SlashIndicator.sol:SlashIndicator",
        "label": "_missingVotesRatioTier1",
        "offset": 0,
        "slot": "109",
        "type": "t_uint256"
      },
      {
        "astId": 6483,
        "contract": "contracts/ronin/slash-indicator/SlashIndicator.sol:SlashIndicator",
        "label": "_missingVotesRatioTier2",
        "offset": 0,
        "slot": "110",
        "type": "t_uint256"
      },
      {
        "astId": 6486,
        "contract": "contracts/ronin/slash-indicator/SlashIndicator.sol:SlashIndicator",
        "label": "_jailDurationForMissingVotesRatioTier2",
        "offset": 0,
        "slot": "111",
        "type": "t_uint256"
      },
      {
        "astId": 6489,
        "contract": "contracts/ronin/slash-indicator/SlashIndicator.sol:SlashIndicator",
        "label": "_skipBridgeOperatorSlashingThreshold",
        "offset": 0,
        "slot": "112",
        "type": "t_uint256"
      },
      {
        "astId": 6494,
        "contract": "contracts/ronin/slash-indicator/SlashIndicator.sol:SlashIndicator",
        "label": "______gap",
        "offset": 0,
        "slot": "113",
        "type": "t_array(t_uint256)50_storage"
      },
      {
        "astId": 7619,
        "contract": "contracts/ronin/slash-indicator/SlashIndicator.sol:SlashIndicator",
        "label": "lastUnavailabilitySlashedBlock",
        "offset": 0,
        "slot": "163",
        "type": "t_uint256"
      },
      {
        "astId": 7626,
        "contract": "contracts/ronin/slash-indicator/SlashIndicator.sol:SlashIndicator",
        "label": "_unavailabilityIndicator",
        "offset": 0,
        "slot": "164",
        "type": "t_mapping(t_address,t_mapping(t_uint256,t_uint256))"
      },
      {
        "astId": 7629,
        "contract": "contracts/ronin/slash-indicator/SlashIndicator.sol:SlashIndicator",
        "label": "_unavailabilityTier1Threshold",
        "offset": 0,
        "slot": "165",
        "type": "t_uint256"
      },
      {
        "astId": 7632,
        "contract": "contracts/ronin/slash-indicator/SlashIndicator.sol:SlashIndicator",
        "label": "_unavailabilityTier2Threshold",
        "offset": 0,
        "slot": "166",
        "type": "t_uint256"
      },
      {
        "astId": 7635,
        "contract": "contracts/ronin/slash-indicator/SlashIndicator.sol:SlashIndicator",
        "label": "_slashAmountForUnavailabilityTier2Threshold",
        "offset": 0,
        "slot": "167",
        "type": "t_uint256"
      },
      {
        "astId": 7638,
        "contract": "contracts/ronin/slash-indicator/SlashIndicator.sol:SlashIndicator",
        "label": "_jailDurationForUnavailabilityTier2Threshold",
        "offset": 0,
        "slot": "168",
        "type": "t_uint256"
      },
      {
        "astId": 7643,
        "contract": "contracts/ronin/slash-indicator/SlashIndicator.sol:SlashIndicator",
        "label": "______gap",
        "offset": 0,
        "slot": "169",
        "type": "t_array(t_uint256)50_storage"
      },
      {
        "astId": 5911,
        "contract": "contracts/ronin/slash-indicator/SlashIndicator.sol:SlashIndicator",
        "label": "_checkBailedOutAtPeriod",
        "offset": 0,
        "slot": "219",
        "type": "t_mapping(t_address,t_mapping(t_uint256,t_bool))"
      },
      {
        "astId": 5916,
        "contract": "contracts/ronin/slash-indicator/SlashIndicator.sol:SlashIndicator",
        "label": "_creditScore",
        "offset": 0,
        "slot": "220",
        "type": "t_mapping(t_address,t_uint256)"
      },
      {
        "astId": 5919,
        "contract": "contracts/ronin/slash-indicator/SlashIndicator.sol:SlashIndicator",
        "label": "_gainCreditScore",
        "offset": 0,
        "slot": "221",
        "type": "t_uint256"
      },
      {
        "astId": 5922,
        "contract": "contracts/ronin/slash-indicator/SlashIndicator.sol:SlashIndicator",
        "label": "_maxCreditScore",
        "offset": 0,
        "slot": "222",
        "type": "t_uint256"
      },
      {
        "astId": 5925,
        "contract": "contracts/ronin/slash-indicator/SlashIndicator.sol:SlashIndicator",
        "label": "_bailOutCostMultiplier",
        "offset": 0,
        "slot": "223",
        "type": "t_uint256"
      },
      {
        "astId": 5928,
        "contract": "contracts/ronin/slash-indicator/SlashIndicator.sol:SlashIndicator",
        "label": "_cutOffPercentageAfterBailout",
        "offset": 0,
        "slot": "224",
        "type": "t_uint256"
      },
      {
        "astId": 5933,
        "contract": "contracts/ronin/slash-indicator/SlashIndicator.sol:SlashIndicator",
        "label": "______gap",
        "offset": 0,
        "slot": "225",
        "type": "t_array(t_uint256)50_storage"
      },
      {
        "astId": 581,
        "contract": "contracts/ronin/slash-indicator/SlashIndicator.sol:SlashIndicator",
        "label": "_initialized",
        "offset": 0,
        "slot": "275",
        "type": "t_uint8"
      },
      {
        "astId": 584,
        "contract": "contracts/ronin/slash-indicator/SlashIndicator.sol:SlashIndicator",
        "label": "_initializing",
        "offset": 1,
        "slot": "275",
        "type": "t_bool"
      }
    ],
    "types": {
      "t_address": {
        "encoding": "inplace",
        "label": "address",
        "numberOfBytes": "20"
      },
      "t_array(t_uint256)21_storage": {
        "base": "t_uint256",
        "encoding": "inplace",
        "label": "uint256[21]",
        "numberOfBytes": "672"
      },
      "t_array(t_uint256)24_storage": {
        "base": "t_uint256",
        "encoding": "inplace",
        "label": "uint256[24]",
        "numberOfBytes": "768"
      },
      "t_array(t_uint256)50_storage": {
        "base": "t_uint256",
        "encoding": "inplace",
        "label": "uint256[50]",
        "numberOfBytes": "1600"
      },
      "t_bool": {
        "encoding": "inplace",
        "label": "bool",
        "numberOfBytes": "1"
      },
      "t_bytes32": {
        "encoding": "inplace",
        "label": "bytes32",
        "numberOfBytes": "32"
      },
      "t_mapping(t_address,t_mapping(t_uint256,t_bool))": {
        "encoding": "mapping",
        "key": "t_address",
        "label": "mapping(address => mapping(uint256 => bool))",
        "numberOfBytes": "32",
        "value": "t_mapping(t_uint256,t_bool)"
      },
      "t_mapping(t_address,t_mapping(t_uint256,t_uint256))": {
        "encoding": "mapping",
        "key": "t_address",
        "label": "mapping(address => mapping(uint256 => uint256))",
        "numberOfBytes": "32",
        "value": "t_mapping(t_uint256,t_uint256)"
      },
      "t_mapping(t_address,t_uint256)": {
        "encoding": "mapping",
        "key": "t_address",
        "label": "mapping(address => uint256)",
        "numberOfBytes": "32",
        "value": "t_uint256"
      },
      "t_mapping(t_bytes32,t_bool)": {
        "encoding": "mapping",
        "key": "t_bytes32",
        "label": "mapping(bytes32 => bool)",
        "numberOfBytes": "32",
        "value": "t_bool"
      },
      "t_mapping(t_uint256,t_bool)": {
        "encoding": "mapping",
        "key": "t_uint256",
        "label": "mapping(uint256 => bool)",
        "numberOfBytes": "32",
        "value": "t_bool"
      },
      "t_mapping(t_uint256,t_uint256)": {
        "encoding": "mapping",
        "key": "t_uint256",
        "label": "mapping(uint256 => uint256)",
        "numberOfBytes": "32",
        "value": "t_uint256"
      },
      "t_uint256": {
        "encoding": "inplace",
        "label": "uint256",
        "numberOfBytes": "32"
      },
      "t_uint8": {
        "encoding": "inplace",
        "label": "uint8",
        "numberOfBytes": "1"
      }
    }
  }
}