{
  "address": "0xF7837778b6E180Df6696C8Fa986d62f8b6186752",
  "abi": [
    {
      "inputs": [
        {
          "internalType": "address",
          "name": "_logic",
          "type": "address"
        },
        {
          "internalType": "address",
          "name": "admin_",
          "type": "address"
        },
        {
          "internalType": "bytes",
          "name": "_data",
          "type": "bytes"
        }
      ],
      "stateMutability": "payable",
      "type": "constructor"
    },
    {
      "anonymous": false,
      "inputs": [
        {
          "indexed": false,
          "internalType": "address",
          "name": "previousAdmin",
          "type": "address"
        },
        {
          "indexed": false,
          "internalType": "address",
          "name": "newAdmin",
          "type": "address"
        }
      ],
      "name": "AdminChanged",
      "type": "event"
    },
    {
      "anonymous": false,
      "inputs": [
        {
          "indexed": true,
          "internalType": "address",
          "name": "beacon",
          "type": "address"
        }
      ],
      "name": "BeaconUpgraded",
      "type": "event"
    },
    {
      "anonymous": false,
      "inputs": [
        {
          "indexed": true,
          "internalType": "address",
          "name": "implementation",
          "type": "address"
        }
      ],
      "name": "Upgraded",
      "type": "event"
    },
    {
      "stateMutability": "payable",
      "type": "fallback"
    },
    {
      "inputs": [],
      "name": "admin",
      "outputs": [
        {
          "internalType": "address",
          "name": "admin_",
          "type": "address"
        }
      ],
      "stateMutability": "nonpayable",
      "type": "function"
    },
    {
      "inputs": [
        {
          "internalType": "address",
          "name": "newAdmin",
          "type": "address"
        }
      ],
      "name": "changeAdmin",
      "outputs": [],
      "stateMutability": "nonpayable",
      "type": "function"
    },
    {
      "inputs": [
        {
          "internalType": "bytes",
          "name": "_data",
          "type": "bytes"
        }
      ],
      "name": "functionDelegateCall",
      "outputs": [],
      "stateMutability": "payable",
      "type": "function"
    },
    {
      "inputs": [],
      "name": "implementation",
      "outputs": [
        {
          "internalType": "address",
          "name": "implementation_",
          "type": "address"
        }
      ],
      "stateMutability": "nonpayable",
      "type": "function"
    },
    {
      "inputs": [
        {
          "internalType": "address",
          "name": "newImplementation",
          "type": "address"
        }
      ],
      "name": "upgradeTo",
      "outputs": [],
      "stateMutability": "nonpayable",
      "type": "function"
    },
    {
      "inputs": [
        {
          "internalType": "address",
          "name": "newImplementation",
          "type": "address"
        },
        {
          "internalType": "bytes",
          "name": "data",
          "type": "bytes"
        }
      ],
      "name": "upgradeToAndCall",
      "outputs": [],
      "stateMutability": "payable",
      "type": "function"
    },
    {
      "stateMutability": "payable",
      "type": "receive"
    }
  ],
  "transactionHash": "0xf0499a73eaebe4bcda843ea3c914590db4600a20749416b577b5349763f78ab7",
  "args": [
    "0x00A369b923DED9E84806F983A1F7d63a0e5A09Aa",
    "0x8a320aFb578BEed1A5BB08823CF9A5f60Ea694f4",
    "0xbbf94d5c00000000000000000000000054b3ac74a90e64e8dde60671b6fe8f8ddf18ec9d0000000000000000000000004016c80d97ddcbe4286140446759a3f0c1d205840000000000000000000000007f46c5dd5f13ff0dd973317411d70800db248e7d0000000000000000000000008a320afb578beed1a5bb08823cf9a5f60ea694f400000000000000000000000000000000000000000000000000000000000003e800000000000000000000000000000000000000000000000000000000000007d0000000000000000000000000000000000000000000000000000000000000e100000000000000000000000000000000000000000000000000000000000001518000000000000000000000000000000000000000000000021e19e0c9bab24000000000000000000000000000000000000000000000000069e10de76676d0800000ffffffffffffffffffffffffffffffffffffffffffffffffffffffffffffffff0000000000000000000000000000000000000000000000000000000000000032000000000000000000000000000000000000000000000000000000000000009600000000000000000000000000000000000000000000021e19e0c9bab2400000000000000000000000000000000000000000000000000000000000000000e1000000000000000000000000000000000000000000000000000000000000000032000000000000000000000000000000000000000000000000000000000000025800000000000000000000000000000000000000000000000000000000000000050000000000000000000000000000000000000000000000000000000000001388"
  ],
  "numDeployments": 1,
  "solcInputHash": "2dccd829348aefebbef587667549cd38",
  "bytecode": "0x608060405260405162000fb638038062000fb6833981016040819052620000269162000496565b8282828281620000398282600062000053565b506200004790508262000090565b505050505050620005c9565b6200005e83620000eb565b6000825111806200006c5750805b156200008b576200008983836200012d60201b620002cd1760201c565b505b505050565b7f7e644d79422f17c01e4894b5f4f588d331ebfa28653d42ae832dc59e38c9798f620000bb6200015c565b604080516001600160a01b03928316815291841660208301520160405180910390a1620000e88162000195565b50565b620000f6816200024a565b6040516001600160a01b038216907fbc7cd75a20ee27fd9adebab32041f755214dbc6bffa90cc0225b39da2e5c2d3b90600090a250565b606062000155838360405180606001604052806027815260200162000f8f60279139620002fe565b9392505050565b60006200018660008051602062000f6f83398151915260001b620003e460201b620002751760201c565b546001600160a01b0316919050565b6001600160a01b038116620002005760405162461bcd60e51b815260206004820152602660248201527f455243313936373a206e65772061646d696e20697320746865207a65726f206160448201526564647265737360d01b60648201526084015b60405180910390fd5b806200022960008051602062000f6f83398151915260001b620003e460201b620002751760201c565b80546001600160a01b0319166001600160a01b039290921691909117905550565b6200026081620003e760201b620002f91760201c565b620002c45760405162461bcd60e51b815260206004820152602d60248201527f455243313936373a206e657720696d706c656d656e746174696f6e206973206e60448201526c1bdd08184818dbdb9d1c9858dd609a1b6064820152608401620001f7565b80620002297f360894a13ba1a3210667c828492db98dca3e2076cc3735a920a3ca505d382bbc60001b620003e460201b620002751760201c565b60606001600160a01b0384163b620003685760405162461bcd60e51b815260206004820152602660248201527f416464726573733a2064656c65676174652063616c6c20746f206e6f6e2d636f6044820152651b9d1c9858dd60d21b6064820152608401620001f7565b600080856001600160a01b03168560405162000385919062000576565b600060405180830381855af49150503d8060008114620003c2576040519150601f19603f3d011682016040523d82523d6000602084013e620003c7565b606091505b509092509050620003da828286620003f6565b9695505050505050565b90565b6001600160a01b03163b151590565b606083156200040757508162000155565b825115620004185782518084602001fd5b8160405162461bcd60e51b8152600401620001f7919062000594565b80516001600160a01b03811681146200044c57600080fd5b919050565b634e487b7160e01b600052604160045260246000fd5b60005b83811015620004845781810151838201526020016200046a565b83811115620000895750506000910152565b600080600060608486031215620004ac57600080fd5b620004b78462000434565b9250620004c76020850162000434565b60408501519092506001600160401b0380821115620004e557600080fd5b818601915086601f830112620004fa57600080fd5b8151818111156200050f576200050f62000451565b604051601f8201601f19908116603f011681019083821181831017156200053a576200053a62000451565b816040528281528960208487010111156200055457600080fd5b6200056783602083016020880162000467565b80955050505050509250925092565b600082516200058a81846020870162000467565b9190910192915050565b6020815260008251806020840152620005b581604085016020870162000467565b601f01601f19169190910160400192915050565b61099680620005d96000396000f3fe6080604052600436106100595760003560e01c80633659cfe6146100705780634bb5274a146100905780634f1ef286146100a35780635c60da1b146100b65780638f283970146100e7578063f851a4401461010757610068565b366100685761006661011c565b005b61006661011c565b34801561007c57600080fd5b5061006661008b366004610759565b610136565b61006661009e36600461078a565b61017d565b6100666100b136600461083b565b6101cc565b3480156100c257600080fd5b506100cb61023d565b6040516001600160a01b03909116815260200160405180910390f35b3480156100f357600080fd5b50610066610102366004610759565b610278565b34801561011357600080fd5b506100cb6102a2565b610124610308565b61013461012f6103a7565b6103b1565b565b61013e6103d0565b6001600160a01b0316336001600160a01b031614156101755761017281604051806020016040528060008152506000610403565b50565b61017261011c565b6101856103d0565b6001600160a01b0316336001600160a01b031614156101755760006101a86103a7565b9050600080835160208501845af43d6000803e8080156101c7573d6000f35b3d6000fd5b6101d46103d0565b6001600160a01b0316336001600160a01b03161415610235576102308383838080601f01602080910402602001604051908101604052809392919081815260200183838082843760009201919091525060019250610403915050565b505050565b61023061011c565b60006102476103d0565b6001600160a01b0316336001600160a01b0316141561026d576102686103a7565b905090565b61027561011c565b90565b6102806103d0565b6001600160a01b0316336001600160a01b03161415610175576101728161042e565b60006102ac6103d0565b6001600160a01b0316336001600160a01b0316141561026d576102686103d0565b60606102f2838360405180606001604052806027815260200161093a60279139610482565b9392505050565b6001600160a01b03163b151590565b6103106103d0565b6001600160a01b0316336001600160a01b031614156101345760405162461bcd60e51b815260206004820152604260248201527f5472616e73706172656e745570677261646561626c6550726f78793a2061646d60448201527f696e2063616e6e6f742066616c6c6261636b20746f2070726f78792074617267606482015261195d60f21b608482015260a4015b60405180910390fd5b600061026861055f565b3660008037600080366000845af43d6000803e8080156101c7573d6000f35b60007fb53127684a568b3173ae13b9f8a6016e243e63b6e8ee1178d6a717850b5d61035b546001600160a01b0316919050565b61040c83610587565b6000825111806104195750805b156102305761042883836102cd565b50505050565b7f7e644d79422f17c01e4894b5f4f588d331ebfa28653d42ae832dc59e38c9798f6104576103d0565b604080516001600160a01b03928316815291841660208301520160405180910390a1610172816105c7565b60606001600160a01b0384163b6104ea5760405162461bcd60e51b815260206004820152602660248201527f416464726573733a2064656c65676174652063616c6c20746f206e6f6e2d636f6044820152651b9d1c9858dd60d21b606482015260840161039e565b600080856001600160a01b03168560405161050591906108ea565b600060405180830381855af49150503d8060008114610540576040519150601f19603f3d011682016040523d82523d6000602084013e610545565b606091505b5091509150610555828286610670565b9695505050505050565b60007f360894a13ba1a3210667c828492db98dca3e2076cc3735a920a3ca505d382bbc6103f4565b610590816106a9565b6040516001600160a01b038216907fbc7cd75a20ee27fd9adebab32041f755214dbc6bffa90cc0225b39da2e5c2d3b90600090a250565b6001600160a01b03811661062c5760405162461bcd60e51b815260206004820152602660248201527f455243313936373a206e65772061646d696e20697320746865207a65726f206160448201526564647265737360d01b606482015260840161039e565b807fb53127684a568b3173ae13b9f8a6016e243e63b6e8ee1178d6a717850b5d61035b80546001600160a01b0319166001600160a01b039290921691909117905550565b6060831561067f5750816102f2565b82511561068f5782518084602001fd5b8160405162461bcd60e51b815260040161039e9190610906565b6001600160a01b0381163b6107165760405162461bcd60e51b815260206004820152602d60248201527f455243313936373a206e657720696d706c656d656e746174696f6e206973206e60448201526c1bdd08184818dbdb9d1c9858dd609a1b606482015260840161039e565b807f360894a13ba1a3210667c828492db98dca3e2076cc3735a920a3ca505d382bbc61064f565b80356001600160a01b038116811461075457600080fd5b919050565b60006020828403121561076b57600080fd5b6102f28261073d565b634e487b7160e01b600052604160045260246000fd5b60006020828403121561079c57600080fd5b813567ffffffffffffffff808211156107b457600080fd5b818401915084601f8301126107c857600080fd5b8135818111156107da576107da610774565b604051601f8201601f19908116603f0116810190838211818310171561080257610802610774565b8160405282815287602084870101111561081b57600080fd5b826020860160208301376000928101602001929092525095945050505050565b60008060006040848603121561085057600080fd5b6108598461073d565b9250602084013567ffffffffffffffff8082111561087657600080fd5b818601915086601f83011261088a57600080fd5b81358181111561089957600080fd5b8760208285010111156108ab57600080fd5b6020830194508093505050509250925092565b60005b838110156108d95781810151838201526020016108c1565b838111156104285750506000910152565b600082516108fc8184602087016108be565b9190910192915050565b60208152600082518060208401526109258160408501602087016108be565b601f01601f1916919091016040019291505056fe416464726573733a206c6f772d6c6576656c2064656c65676174652063616c6c206661696c6564a2646970667358221220e4b2c2f2999b268c2fadf720cefbd5856d50d8dcf502bc6b94d80fd6a82c72a264736f6c63430008090033b53127684a568b3173ae13b9f8a6016e243e63b6e8ee1178d6a717850b5d6103416464726573733a206c6f772d6c6576656c2064656c65676174652063616c6c206661696c6564",
  "devdoc": {
    "kind": "dev",
    "methods": {
      "admin()": {
        "details": "Returns the current admin. NOTE: Only the admin can call this function. See {ProxyAdmin-getProxyAdmin}. TIP: To get this value clients can read directly from the storage slot shown below (specified by EIP1967) using the https://eth.wiki/json-rpc/API#eth_getstorageat[`eth_getStorageAt`] RPC call. `0xb53127684a568b3173ae13b9f8a6016e243e63b6e8ee1178d6a717850b5d6103`"
      },
      "changeAdmin(address)": {
        "details": "Changes the admin of the proxy. Emits an {AdminChanged} event. NOTE: Only the admin can call this function. See {ProxyAdmin-changeProxyAdmin}."
      },
      "functionDelegateCall(bytes)": {
        "details": "Calls a function from the current implementation as specified by `_data`, which should be an encoded function call. Requirements: - Only the admin can call this function. Note: The proxy admin is not allowed to interact with the proxy logic through the fallback function to avoid triggering some unexpected logic. This is to allow the administrator to explicitly call the proxy, please consider reviewing the encoded data `_data` and the method which is called before using this."
      },
      "implementation()": {
        "details": "Returns the current implementation. NOTE: Only the admin can call this function. See {ProxyAdmin-getProxyImplementation}. TIP: To get this value clients can read directly from the storage slot shown below (specified by EIP1967) using the https://eth.wiki/json-rpc/API#eth_getstorageat[`eth_getStorageAt`] RPC call. `0x360894a13ba1a3210667c828492db98dca3e2076cc3735a920a3ca505d382bbc`"
      },
      "upgradeTo(address)": {
        "details": "Upgrade the implementation of the proxy. NOTE: Only the admin can call this function. See {ProxyAdmin-upgrade}."
      },
      "upgradeToAndCall(address,bytes)": {
        "details": "Upgrade the implementation of the proxy, and then call a function from the new implementation as specified by `data`, which should be an encoded function call. This is useful to initialize new storage variables in the proxied contract. NOTE: Only the admin can call this function. See {ProxyAdmin-upgradeAndCall}."
      }
    },
    "version": 1
  },
  "userdoc": {
    "kind": "user",
    "methods": {},
    "version": 1
  },
  "storageLayout": {
    "storage": [],
    "types": null
  }
}