{
  "address": "0x3ae2a924f8e7d798d9Dc8f9ECDcD21a3c72AA2C3",
  "abi": [
    {
      "inputs": [],
      "stateMutability": "nonpayable",
      "type": "constructor"
    },
    {
      "inputs": [],
      "name": "ErrCallPrecompiled",
      "type": "error"
    },
    {
      "inputs": [],
      "name": "ErrCallerMustBeGovernanceAdminContract",
      "type": "error"
    },
    {
      "inputs": [],
      "name": "ErrCallerMustBeMaintenanceContract",
      "type": "error"
    },
    {
      "inputs": [],
      "name": "ErrCallerMustBeRoninTrustedOrgContract",
      "type": "error"
    },
    {
      "inputs": [],
      "name": "ErrCallerMustBeValidatorContract",
      "type": "error"
    },
    {
      "inputs": [],
      "name": "ErrZeroCodeContract",
      "type": "error"
    },
    {
      "anonymous": false,
      "inputs": [
        {
          "indexed": true,
          "internalType": "address",
          "name": "validator",
          "type": "address"
        },
        {
          "indexed": false,
          "internalType": "uint256",
          "name": "period",
          "type": "uint256"
        }
      ],
      "name": "BailedOut",
      "type": "event"
    },
    {
      "anonymous": false,
      "inputs": [
        {
          "indexed": false,
          "internalType": "uint256",
          "name": "missingVotesRatioTier1",
          "type": "uint256"
        },
        {
          "indexed": false,
          "internalType": "uint256",
          "name": "missingVotesRatioTier2",
          "type": "uint256"
        },
        {
          "indexed": false,
          "internalType": "uint256",
          "name": "jailDurationForMissingVotesRatioTier2",
          "type": "uint256"
        },
        {
          "indexed": false,
          "internalType": "uint256",
          "name": "skipBridgeOperatorSlashingThreshold",
          "type": "uint256"
        }
      ],
      "name": "BridgeOperatorSlashingConfigsUpdated",
      "type": "event"
    },
    {
      "anonymous": false,
      "inputs": [
        {
          "indexed": false,
          "internalType": "uint256",
          "name": "bridgeVotingThreshold",
          "type": "uint256"
        },
        {
          "indexed": false,
          "internalType": "uint256",
          "name": "bridgeVotingSlashAmount",
          "type": "uint256"
        }
      ],
      "name": "BridgeVotingSlashingConfigsUpdated",
      "type": "event"
    },
    {
      "anonymous": false,
      "inputs": [
        {
          "indexed": false,
          "internalType": "uint256",
          "name": "gainCreditScore",
          "type": "uint256"
        },
        {
          "indexed": false,
          "internalType": "uint256",
          "name": "maxCreditScore",
          "type": "uint256"
        },
        {
          "indexed": false,
          "internalType": "uint256",
          "name": "bailOutCostMultiplier",
          "type": "uint256"
        },
        {
          "indexed": false,
          "internalType": "uint256",
          "name": "cutOffPercentageAfterBailout",
          "type": "uint256"
        }
      ],
      "name": "CreditScoreConfigsUpdated",
      "type": "event"
    },
    {
      "anonymous": false,
      "inputs": [
        {
          "indexed": false,
          "internalType": "address[]",
          "name": "validators",
          "type": "address[]"
        },
        {
          "indexed": false,
          "internalType": "uint256[]",
          "name": "creditScores",
          "type": "uint256[]"
        }
      ],
      "name": "CreditScoresUpdated",
      "type": "event"
    },
    {
      "anonymous": false,
      "inputs": [
        {
          "indexed": false,
          "internalType": "uint256",
          "name": "slashDoubleSignAmount",
          "type": "uint256"
        },
        {
          "indexed": false,
          "internalType": "uint256",
          "name": "doubleSigningJailUntilBlock",
          "type": "uint256"
        }
      ],
      "name": "DoubleSignSlashingConfigsUpdated",
      "type": "event"
    },
    {
      "anonymous": false,
      "inputs": [
        {
          "indexed": false,
          "internalType": "uint8",
          "name": "version",
          "type": "uint8"
        }
      ],
      "name": "Initialized",
      "type": "event"
    },
    {
      "anonymous": false,
      "inputs": [
        {
          "indexed": false,
          "internalType": "address",
          "name": "",
          "type": "address"
        }
      ],
      "name": "MaintenanceContractUpdated",
      "type": "event"
    },
    {
      "anonymous": false,
      "inputs": [
        {
          "indexed": false,
          "internalType": "address",
          "name": "",
          "type": "address"
        }
      ],
      "name": "RoninGovernanceAdminContractUpdated",
      "type": "event"
    },
    {
      "anonymous": false,
      "inputs": [
        {
          "indexed": false,
          "internalType": "address",
          "name": "",
          "type": "address"
        }
      ],
      "name": "RoninTrustedOrganizationContractUpdated",
      "type": "event"
    },
    {
      "anonymous": false,
      "inputs": [
        {
          "indexed": true,
          "internalType": "address",
          "name": "validator",
          "type": "address"
        },
        {
          "indexed": false,
          "internalType": "enum IBaseSlash.SlashType",
          "name": "slashType",
          "type": "uint8"
        },
        {
          "indexed": false,
          "internalType": "uint256",
          "name": "period",
          "type": "uint256"
        }
      ],
      "name": "Slashed",
      "type": "event"
    },
    {
      "anonymous": false,
      "inputs": [
        {
          "indexed": false,
          "internalType": "uint256",
          "name": "unavailabilityTier1Threshold",
          "type": "uint256"
        },
        {
          "indexed": false,
          "internalType": "uint256",
          "name": "unavailabilityTier2Threshold",
          "type": "uint256"
        },
        {
          "indexed": false,
          "internalType": "uint256",
          "name": "slashAmountForUnavailabilityTier2Threshold",
          "type": "uint256"
        },
        {
          "indexed": false,
          "internalType": "uint256",
          "name": "jailDurationForUnavailabilityTier2Threshold",
          "type": "uint256"
        }
      ],
      "name": "UnavailabilitySlashingConfigsUpdated",
      "type": "event"
    },
    {
      "anonymous": false,
      "inputs": [
        {
          "indexed": false,
          "internalType": "address",
          "name": "",
          "type": "address"
        }
      ],
      "name": "ValidatorContractUpdated",
      "type": "event"
    },
    {
      "inputs": [
        {
          "internalType": "address",
          "name": "_consensusAddr",
          "type": "address"
        }
      ],
      "name": "bailOut",
      "outputs": [],
      "stateMutability": "nonpayable",
      "type": "function"
    },
    {
      "inputs": [
        {
          "internalType": "address",
          "name": "_validator",
          "type": "address"
        },
        {
          "internalType": "uint256",
          "name": "_period",
          "type": "uint256"
        }
      ],
      "name": "checkBailedOutAtPeriod",
      "outputs": [
        {
          "internalType": "bool",
          "name": "",
          "type": "bool"
        }
      ],
      "stateMutability": "view",
      "type": "function"
    },
    {
      "inputs": [
        {
          "internalType": "address",
          "name": "_validator",
          "type": "address"
        }
      ],
      "name": "currentUnavailabilityIndicator",
      "outputs": [
        {
          "internalType": "uint256",
          "name": "",
          "type": "uint256"
        }
      ],
      "stateMutability": "view",
      "type": "function"
    },
    {
      "inputs": [],
      "name": "getBridgeOperatorSlashingConfigs",
      "outputs": [
        {
          "internalType": "uint256",
          "name": "missingVotesRatioTier1_",
          "type": "uint256"
        },
        {
          "internalType": "uint256",
          "name": "missingVotesRatioTier2_",
          "type": "uint256"
        },
        {
          "internalType": "uint256",
          "name": "jailDurationForMissingVotesRatioTier2_",
          "type": "uint256"
        },
        {
          "internalType": "uint256",
          "name": "skipBridgeOperatorSlashingThreshold_",
          "type": "uint256"
        }
      ],
      "stateMutability": "view",
      "type": "function"
    },
    {
      "inputs": [],
      "name": "getBridgeVotingSlashingConfigs",
      "outputs": [
        {
          "internalType": "uint256",
          "name": "bridgeVotingThreshold_",
          "type": "uint256"
        },
        {
          "internalType": "uint256",
          "name": "bridgeVotingSlashAmount_",
          "type": "uint256"
        }
      ],
      "stateMutability": "view",
      "type": "function"
    },
    {
      "inputs": [
        {
          "internalType": "address",
          "name": "_validator",
          "type": "address"
        }
      ],
      "name": "getCreditScore",
      "outputs": [
        {
          "internalType": "uint256",
          "name": "",
          "type": "uint256"
        }
      ],
      "stateMutability": "view",
      "type": "function"
    },
    {
      "inputs": [],
      "name": "getCreditScoreConfigs",
      "outputs": [
        {
          "internalType": "uint256",
          "name": "gainCreditScore_",
          "type": "uint256"
        },
        {
          "internalType": "uint256",
          "name": "maxCreditScore_",
          "type": "uint256"
        },
        {
          "internalType": "uint256",
          "name": "bailOutCostMultiplier_",
          "type": "uint256"
        },
        {
          "internalType": "uint256",
          "name": "cutOffPercentageAfterBailout_",
          "type": "uint256"
        }
      ],
      "stateMutability": "view",
      "type": "function"
    },
    {
      "inputs": [],
      "name": "getDoubleSignSlashingConfigs",
      "outputs": [
        {
          "internalType": "uint256",
          "name": "slashDoubleSignAmount_",
          "type": "uint256"
        },
        {
          "internalType": "uint256",
          "name": "doubleSigningJailUntilBlock_",
          "type": "uint256"
        }
      ],
      "stateMutability": "view",
      "type": "function"
    },
    {
      "inputs": [
        {
          "internalType": "address[]",
          "name": "_validators",
          "type": "address[]"
        }
      ],
      "name": "getManyCreditScores",
      "outputs": [
        {
          "internalType": "uint256[]",
          "name": "_resultList",
          "type": "uint256[]"
        }
      ],
      "stateMutability": "view",
      "type": "function"
    },
    {
      "inputs": [
        {
          "internalType": "address",
          "name": "_validator",
          "type": "address"
        },
        {
          "internalType": "uint256",
          "name": "_period",
          "type": "uint256"
        }
      ],
      "name": "getUnavailabilityIndicator",
      "outputs": [
        {
          "internalType": "uint256",
          "name": "",
          "type": "uint256"
        }
      ],
      "stateMutability": "view",
      "type": "function"
    },
    {
      "inputs": [],
      "name": "getUnavailabilitySlashingConfigs",
      "outputs": [
        {
          "internalType": "uint256",
          "name": "unavailabilityTier1Threshold_",
          "type": "uint256"
        },
        {
          "internalType": "uint256",
          "name": "unavailabilityTier2Threshold_",
          "type": "uint256"
        },
        {
          "internalType": "uint256",
          "name": "slashAmountForUnavailabilityTier2Threshold_",
          "type": "uint256"
        },
        {
          "internalType": "uint256",
          "name": "jailDurationForUnavailabilityTier2Threshold_",
          "type": "uint256"
        }
      ],
      "stateMutability": "view",
      "type": "function"
    },
    {
      "inputs": [
        {
          "internalType": "address",
          "name": "__validatorContract",
          "type": "address"
        },
        {
          "internalType": "address",
          "name": "__maintenanceContract",
          "type": "address"
        },
        {
          "internalType": "address",
          "name": "__roninTrustedOrganizationContract",
          "type": "address"
        },
        {
          "internalType": "address",
          "name": "__roninGovernanceAdminContract",
          "type": "address"
        },
        {
          "internalType": "uint256[4]",
          "name": "_bridgeOperatorSlashingConfigs",
          "type": "uint256[4]"
        },
        {
          "internalType": "uint256[2]",
          "name": "_bridgeVotingSlashingConfigs",
          "type": "uint256[2]"
        },
        {
          "internalType": "uint256[2]",
          "name": "_doubleSignSlashingConfigs",
          "type": "uint256[2]"
        },
        {
          "internalType": "uint256[4]",
          "name": "_unavailabilitySlashingConfigs",
          "type": "uint256[4]"
        },
        {
          "internalType": "uint256[4]",
          "name": "_creditScoreConfigs",
          "type": "uint256[4]"
        }
      ],
      "name": "initialize",
      "outputs": [],
      "stateMutability": "nonpayable",
      "type": "function"
    },
    {
      "inputs": [],
      "name": "lastUnavailabilitySlashedBlock",
      "outputs": [
        {
          "internalType": "uint256",
          "name": "",
          "type": "uint256"
        }
      ],
      "stateMutability": "view",
      "type": "function"
    },
    {
      "inputs": [],
      "name": "maintenanceContract",
      "outputs": [
        {
          "internalType": "address",
          "name": "",
          "type": "address"
        }
      ],
      "stateMutability": "view",
      "type": "function"
    },
    {
      "inputs": [],
      "name": "precompileValidateDoubleSignAddress",
      "outputs": [
        {
          "internalType": "address",
          "name": "",
          "type": "address"
        }
      ],
      "stateMutability": "view",
      "type": "function"
    },
    {
      "inputs": [],
      "name": "roninGovernanceAdminContract",
      "outputs": [
        {
          "internalType": "address",
          "name": "",
          "type": "address"
        }
      ],
      "stateMutability": "view",
      "type": "function"
    },
    {
      "inputs": [],
      "name": "roninTrustedOrganizationContract",
      "outputs": [
        {
          "internalType": "address",
          "name": "",
          "type": "address"
        }
      ],
      "stateMutability": "view",
      "type": "function"
    },
    {
      "inputs": [
        {
          "internalType": "uint256",
          "name": "_ratioTier1",
          "type": "uint256"
        },
        {
          "internalType": "uint256",
          "name": "_ratioTier2",
          "type": "uint256"
        },
        {
          "internalType": "uint256",
          "name": "_jailDurationTier2",
          "type": "uint256"
        },
        {
          "internalType": "uint256",
          "name": "_skipSlashingThreshold",
          "type": "uint256"
        }
      ],
      "name": "setBridgeOperatorSlashingConfigs",
      "outputs": [],
      "stateMutability": "nonpayable",
      "type": "function"
    },
    {
      "inputs": [
        {
          "internalType": "uint256",
          "name": "_threshold",
          "type": "uint256"
        },
        {
          "internalType": "uint256",
          "name": "_slashAmount",
          "type": "uint256"
        }
      ],
      "name": "setBridgeVotingSlashingConfigs",
      "outputs": [],
      "stateMutability": "nonpayable",
      "type": "function"
    },
    {
      "inputs": [
        {
          "internalType": "uint256",
          "name": "_gainScore",
          "type": "uint256"
        },
        {
          "internalType": "uint256",
          "name": "_maxScore",
          "type": "uint256"
        },
        {
          "internalType": "uint256",
          "name": "_bailOutMultiplier",
          "type": "uint256"
        },
        {
          "internalType": "uint256",
          "name": "_cutOffPercentage",
          "type": "uint256"
        }
      ],
      "name": "setCreditScoreConfigs",
      "outputs": [],
      "stateMutability": "nonpayable",
      "type": "function"
    },
    {
      "inputs": [
        {
          "internalType": "uint256",
          "name": "_slashAmount",
          "type": "uint256"
        },
        {
          "internalType": "uint256",
          "name": "_jailUntilBlock",
          "type": "uint256"
        }
      ],
      "name": "setDoubleSignSlashingConfigs",
      "outputs": [],
      "stateMutability": "nonpayable",
      "type": "function"
    },
    {
      "inputs": [
        {
          "internalType": "address",
          "name": "_addr",
          "type": "address"
        }
      ],
      "name": "setMaintenanceContract",
      "outputs": [],
      "stateMutability": "nonpayable",
      "type": "function"
    },
    {
      "inputs": [
        {
          "internalType": "address",
          "name": "_addr",
          "type": "address"
        }
      ],
      "name": "setRoninGovernanceAdminContract",
      "outputs": [],
      "stateMutability": "nonpayable",
      "type": "function"
    },
    {
      "inputs": [
        {
          "internalType": "address",
          "name": "_addr",
          "type": "address"
        }
      ],
      "name": "setRoninTrustedOrganizationContract",
      "outputs": [],
      "stateMutability": "nonpayable",
      "type": "function"
    },
    {
      "inputs": [
        {
          "internalType": "uint256",
          "name": "_tier1Threshold",
          "type": "uint256"
        },
        {
          "internalType": "uint256",
          "name": "_tier2Threshold",
          "type": "uint256"
        },
        {
          "internalType": "uint256",
          "name": "_slashAmountForTier2Threshold",
          "type": "uint256"
        },
        {
          "internalType": "uint256",
          "name": "_jailDurationForTier2Threshold",
          "type": "uint256"
        }
      ],
      "name": "setUnavailabilitySlashingConfigs",
      "outputs": [],
      "stateMutability": "nonpayable",
      "type": "function"
    },
    {
      "inputs": [
        {
          "internalType": "address",
          "name": "_addr",
          "type": "address"
        }
      ],
      "name": "setValidatorContract",
      "outputs": [],
      "stateMutability": "nonpayable",
      "type": "function"
    },
    {
      "inputs": [
        {
          "internalType": "address",
          "name": "_consensusAddr",
          "type": "address"
        }
      ],
      "name": "slashBridgeVoting",
      "outputs": [],
      "stateMutability": "nonpayable",
      "type": "function"
    },
    {
      "inputs": [
        {
          "internalType": "address",
          "name": "_consensuAddr",
          "type": "address"
        },
        {
          "internalType": "bytes",
          "name": "_header1",
          "type": "bytes"
        },
        {
          "internalType": "bytes",
          "name": "_header2",
          "type": "bytes"
        }
      ],
      "name": "slashDoubleSign",
      "outputs": [],
      "stateMutability": "nonpayable",
      "type": "function"
    },
    {
      "inputs": [
        {
          "internalType": "address",
          "name": "_validatorAddr",
          "type": "address"
        }
      ],
      "name": "slashUnavailability",
      "outputs": [],
      "stateMutability": "nonpayable",
      "type": "function"
    },
    {
      "inputs": [
        {
          "internalType": "address[]",
          "name": "_validators",
          "type": "address[]"
        },
        {
          "internalType": "uint256",
          "name": "_period",
          "type": "uint256"
        }
      ],
      "name": "updateCreditScores",
      "outputs": [],
      "stateMutability": "nonpayable",
      "type": "function"
    },
    {
      "inputs": [],
      "name": "validatorContract",
      "outputs": [
        {
          "internalType": "address",
          "name": "",
          "type": "address"
        }
      ],
      "stateMutability": "view",
      "type": "function"
    }
  ],
  "transactionHash": "0x24b0b576ada36f41d828a442a08d45f07808c9f786529431437425994d28de08",
  "args": [],
  "numDeployments": 4,
  "solcInputHash": "ea3bc1520c93e898c628ddb289c321fc",
  "bytecode": "0x60806040523480156200001157600080fd5b506200001c62000022565b620000e7565b61011354610100900460ff1615620000905760405162461bcd60e51b815260206004820152602760248201527f496e697469616c697a61626c653a20636f6e747261637420697320696e697469604482015266616c697a696e6760c81b606482015260840160405180910390fd5b6101135460ff9081161015620000e557610113805460ff191660ff9081179091556040519081527f7f26b83ff96e1f2b6a682f133852f6798a09c465da95921460cefb38474024989060200160405180910390a15b565b61293780620000f76000396000f3fe608060405234801561001057600080fd5b50600436106101e55760003560e01c8063994390891161010f578063d2cb215e116100a2578063e79b3f6711610071578063e79b3f6714610463578063f1001e7814610476578063f562b3c414610496578063fd422cd01461049f57600080fd5b8063d2cb215e1461040b578063d3dd2bdf1461041c578063d73e81b814610445578063df4b6ee01461045857600080fd5b8063ccbb72ed116100de578063ccbb72ed146103bf578063cdf64a76146103d2578063d1737e27146103e5578063d1f992f7146103f857600080fd5b8063994390891461036e578063b5e337de1461037f578063c2e524dc14610392578063c6391fa2146103ae57600080fd5b80633d48fd7d1161018757806362ffe6cb1161015657806362ffe6cb1461032e5780637680850c146103415780637c2b55a014610354578063853af1b71461035b57600080fd5b80633d48fd7d146102e657806346fe9311146102f75780635511cde11461030a57806361d3b60b1461031b57600080fd5b80631a697341116101c35780631a697341146102525780631e90b2a01461026557806323368e471461027857806329ddc3c01461029d57600080fd5b8063082e7420146101ea5780630e1512ac146102105780631079402a14610225575b600080fd5b6101fd6101f836600461216e565b6104b2565b6040519081526020015b60405180910390f35b61022361021e36600461218b565b610533565b005b606d54606e54606f546070545b604080519485526020850193909352918301526060820152608001610207565b61022361026036600461216e565b610586565b610223610273366004612206565b610801565b6036546001600160a01b03165b6040516001600160a01b039091168152602001610207565b6102d66102ab366004612289565b6001600160a01b0391909116600090815260db60209081526040808320938352929052205460ff1690565b6040519015158152602001610207565b60a55460a65460a75460a854610232565b61022361030536600461216e565b6109a3565b6035546001600160a01b0316610285565b6102236103293660046122b5565b610a12565b6101fd61033c366004612289565b610a58565b61022361034f36600461231c565b610a84565b6067610285565b6102236103693660046122b5565b610de2565b6000546001600160a01b0316610285565b61022361038d36600461216e565b610e24565b6038546039545b60408051928352602083019190915201610207565b60dd5460de5460df5460e054610232565b6102236103cd36600461218b565b610e90565b6102236103e036600461216e565b610ed4565b6102236103f336600461218b565b610f40565b61022361040636600461216e565b610f84565b606c546001600160a01b0316610285565b6101fd61042a36600461216e565b6001600160a01b0316600090815260dc602052604090205490565b61022361045336600461216e565b6114b5565b600154600254610399565b61022361047136600461238a565b611521565b610489610484366004612442565b6116c5565b60405161020791906124bf565b6101fd60a35481565b6102236104ad36600461216e565b61179a565b600061052d8260008054906101000a90046001600160a01b03166001600160a01b031663060406186040518163ffffffff1660e01b8152600401602060405180830381865afa158015610509573d6000803e3d6000fd5b505050506040513d601f19601f8201168201806040525081019061033c91906124d2565b92915050565b61053b611a93565b6001600160a01b0316336001600160a01b0316146105745760405162461bcd60e51b815260040161056b906124eb565b60405180910390fd5b61058084848484611ac1565b50505050565b603554604051636db349d160e11b81526001600160a01b038381166004830152600092169063db6693a29060240160a060405180830381865afa1580156105d1573d6000803e3d6000fd5b505050506040513d601f19601f820116820180604052508101906105f59190612574565b6036546040828101519051632623bd4f60e21b81526001600160a01b03918216600482015292935060009261067d92919091169063988ef53c90602401602060405180830381865afa15801561064f573d6000803e3d6000fd5b505050506040513d601f19601f8201168201806040525081019061067391906124d2565b8360800151611b90565b905060008060009054906101000a90046001600160a01b03166001600160a01b031663060406186040518163ffffffff1660e01b8152600401602060405180830381865afa1580156106d3573d6000803e3d6000fd5b505050506040513d601f19601f820116820180604052508101906106f791906124d2565b6038549091506107078343612612565b11801561073857506001600160a01b038416600090815260376020908152604080832084845290915290205460ff16155b15610580576001600160a01b038416600081815260376020908152604080832085845290915290819020805460ff19166001179055516000805160206128e28339815191529061078c906004908590612625565b60405180910390a26000805460395460405163570ccb1360e01b81526001600160a01b039092169263570ccb13926107c992899291600401612651565b600060405180830381600087803b1580156107e357600080fd5b505af11580156107f7573d6000803e3d6000fd5b5050505050505050565b3341146108675760405162461bcd60e51b815260206004820152602e60248201527f536c617368496e64696361746f723a206d6574686f642063616c6c6572206d7560448201526d737420626520636f696e6261736560901b606482015260840161056b565b61087085611ba7565b1561099c5761088184848484611cad565b1561099c5760008060009054906101000a90046001600160a01b03166001600160a01b031663060406186040518163ffffffff1660e01b8152600401602060405180830381865afa1580156108da573d6000803e3d6000fd5b505050506040513d601f19601f820116820180604052508101906108fe91906124d2565b9050856001600160a01b03166000805160206128e283398151915260038360405161092a929190612625565b60405180910390a260005460025460015460405163570ccb1360e01b81526001600160a01b039093169263570ccb1392610968928b92600401612651565b600060405180830381600087803b15801561098257600080fd5b505af1158015610996573d6000803e3d6000fd5b50505050505b5050505050565b6109ab611a93565b6001600160a01b0316336001600160a01b0316146109db5760405162461bcd60e51b815260040161056b906124eb565b806001600160a01b03163b600003610a0657604051637bcd509160e01b815260040160405180910390fd5b610a0f81611d54565b50565b610a1a611a93565b6001600160a01b0316336001600160a01b031614610a4a5760405162461bcd60e51b815260040161056b906124eb565b610a548282611da9565b5050565b6001600160a01b038216600090815260a4602090815260408083208484529091528120545b9392505050565b33610a976000546001600160a01b031690565b6001600160a01b031614610abe57604051630e6444a160e31b815260040160405180910390fd5b60008060009054906101000a90046001600160a01b03166001600160a01b031663297a8fca6040518163ffffffff1660e01b8152600401602060405180830381865afa158015610b12573d6000803e3d6000fd5b505050506040513d601f19601f82011682018060405250810190610b3691906124d2565b60008054604051634de2b73560e01b815292935090916001600160a01b0390911690634de2b73590610b6e90889088906004016126b0565b600060405180830381865afa158015610b8b573d6000803e3d6000fd5b505050506040513d6000823e601f3d908101601f19168201604052610bb391908101906126d9565b606c5460405163ba30375560e01b81529192506000916001600160a01b039091169063ba30375590610bef908990899088904390600401612786565b600060405180830381865afa158015610c0c573d6000803e3d6000fd5b505050506040513d6000823e601f3d908101601f19168201604052610c3491908101906126d9565b905060008567ffffffffffffffff811115610c5157610c5161252d565b604051908082528060200260200182016040528015610c7a578160200160208202803683370190505b50905060005b86811015610d9d576000888883818110610c9c57610c9c6127ad565b9050602002016020810190610cb1919061216e565b90506000610cbf8289610a58565b90506000868481518110610cd557610cd56127ad565b602002602001015190506000868581518110610cf357610cf36127ad565b6020026020010151905060008280610d085750815b610d1d57610d1860dd5485611df1565b610d20565b60005b6001600160a01b038616600090815260dc602052604090205460de54919250610d4a918390611e07565b6001600160a01b038616600090815260dc602052604090208190558751889088908110610d7957610d796127ad565b60200260200101818152505050505050508080610d95906127c3565b915050610c80565b507f8c02b2ccee964dc50649a48bd0a0446f0f9e88ecdb72d099f4ace07c39c23480878783604051610dd1939291906127dc565b60405180910390a150505050505050565b610dea611a93565b6001600160a01b0316336001600160a01b031614610e1a5760405162461bcd60e51b815260040161056b906124eb565b610a548282611e24565b610e2c611a93565b6001600160a01b0316336001600160a01b031614610e5c5760405162461bcd60e51b815260040161056b906124eb565b806001600160a01b03163b600003610e8757604051637bcd509160e01b815260040160405180910390fd5b610a0f81611e63565b610e98611a93565b6001600160a01b0316336001600160a01b031614610ec85760405162461bcd60e51b815260040161056b906124eb565b61058084848484611eb1565b610edc611a93565b6001600160a01b0316336001600160a01b031614610f0c5760405162461bcd60e51b815260040161056b906124eb565b806001600160a01b03163b600003610f3757604051637bcd509160e01b815260040160405180910390fd5b610a0f81611fd4565b610f48611a93565b6001600160a01b0316336001600160a01b031614610f785760405162461bcd60e51b815260040161056b906124eb565b61058084848484612022565b600054604051635061f96960e11b81526001600160a01b0383811660048301529091169063a0c3f2d290602401602060405180830381865afa158015610fce573d6000803e3d6000fd5b505050506040513d601f19601f82011682018060405250810190610ff2919061280c565b6110645760405162461bcd60e51b815260206004820152603f60248201527f536c617368496e64696361746f723a20636f6e73656e7375732061646472657360448201527f73206d75737420626520612076616c696461746f722063616e64696461746500606482015260840161056b565b6000546040516304d971ab60e01b81526001600160a01b038381166004830152336024830152909116906304d971ab90604401602060405180830381865afa1580156110b4573d6000803e3d6000fd5b505050506040513d601f19601f820116820180604052508101906110d8919061280c565b61114a5760405162461bcd60e51b815260206004820152603760248201527f536c617368496e64696361746f723a206d6574686f642063616c6c6572206d7560448201527f737420626520612063616e6469646174652061646d696e000000000000000000606482015260840161056b565b60008054604051634b2c2fe160e11b81526001600160a01b038481166004830152839216906396585fc290602401606060405180830381865afa158015611195573d6000803e3d6000fd5b505050506040513d601f19601f820116820180604052508101906111b99190612827565b9250509150816112315760405162461bcd60e51b815260206004820152603b60248201527f536c617368496e64696361746f723a2063616c6c6572206d757374206265206a60448201527f61696c656420696e207468652063757272656e7420706572696f640000000000606482015260840161056b565b60008060009054906101000a90046001600160a01b03166001600160a01b031663060406186040518163ffffffff1660e01b8152600401602060405180830381865afa158015611285573d6000803e3d6000fd5b505050506040513d601f19601f820116820180604052508101906112a991906124d2565b6001600160a01b038516600090815260db6020908152604080832084845290915290205490915060ff161561133c5760405162461bcd60e51b815260206004820152603360248201527f536c617368496e64696361746f723a2076616c696461746f7220686173206261604482015272696c6564206f75742070726576696f75736c7960681b606482015260840161056b565b6001600160a01b038416600090815260dc602052604081205460df54909190611365908561285c565b9050808210156113d55760405162461bcd60e51b815260206004820152603560248201527f536c617368496e64696361746f723a20696e73756666696369656e7420637265604482015274191a5d081cd8dbdc99481d1bc818985a5b081bdd5d605a1b606482015260840161056b565b600054604051630adaf5ef60e11b81526001600160a01b03888116600483015260248201869052909116906315b5ebde90604401600060405180830381600087803b15801561142357600080fd5b505af1158015611437573d6000803e3d6000fd5b505050506001600160a01b038616600090815260dc602052604081208054839290611463908490612612565b909155505050506001600160a01b0393909316600081815260a460209081526040808320878452825280832083905592825260db815282822095825294909452909220805460ff191660011790555050565b6114bd611a93565b6001600160a01b0316336001600160a01b0316146114ed5760405162461bcd60e51b815260040161056b906124eb565b806001600160a01b03163b60000361151857604051637bcd509160e01b815260040160405180910390fd5b610a0f816120de565b61011354610100900460ff1615808015611543575061011354600160ff909116105b8061155e5750303b15801561155e57506101135460ff166001145b6115c15760405162461bcd60e51b815260206004820152602e60248201527f496e697469616c697a61626c653a20636f6e747261637420697320616c72656160448201526d191e481a5b9a5d1a585b1a5e995960921b606482015260840161056b565b610113805460ff1916600117905580156115e657610113805461ff0019166101001790555b6115ef8a611fd4565b6115f889611d54565b61160188611e63565b61160a876120de565b61162386356020880135604089013560608a0135611ac1565b61163285356020870135611e24565b61164184356020860135611da9565b61165a8335602085013560408601356060870135612022565b6116738235602084013560408501356060860135611eb1565b801561099657610113805461ff0019169055604051600181527f7f26b83ff96e1f2b6a682f133852f6798a09c465da95921460cefb38474024989060200160405180910390a150505050505050505050565b60608167ffffffffffffffff8111156116e0576116e061252d565b604051908082528060200260200182016040528015611709578160200160208202803683370190505b50905060005b81518110156117935760dc600085858481811061172e5761172e6127ad565b9050602002016020810190611743919061216e565b6001600160a01b03166001600160a01b0316815260200190815260200160002054828281518110611776576117766127ad565b60209081029190910101528061178b816127c3565b91505061170f565b5092915050565b60a35443116118375760405162461bcd60e51b815260206004820152605c60248201527f536c617368496e64696361746f723a2063616e6e6f7420736c6173682061207660448201527f616c696461746f72207477696365206f7220736c617368206d6f72652074686160648201527f6e206f6e652076616c696461746f7220696e206f6e6520626c6f636b00000000608482015260a40161056b565b4360a3553341146118a65760405162461bcd60e51b815260206004820152603360248201527f536c617368556e617661696c6162696c6974793a206d6574686f642063616c6c6044820152726572206d75737420626520636f696e6261736560681b606482015260840161056b565b6118af81611ba7565b15610a0f5760008060009054906101000a90046001600160a01b03166001600160a01b031663060406186040518163ffffffff1660e01b8152600401602060405180830381865afa158015611908573d6000803e3d6000fd5b505050506040513d601f19601f8201168201806040525081019061192c91906124d2565b6001600160a01b038316600090815260a4602090815260408083208484529091528120805492935090918290611961906127c3565b919050819055905060a6548103611a2057826001600160a01b03166000805160206128e283398151915260028460405161199c929190612625565b60405180910390a260005460a8546001600160a01b039091169063570ccb139085906119c89043612873565b60a7546040518463ffffffff1660e01b81526004016119e993929190612651565b600060405180830381600087803b158015611a0357600080fd5b505af1158015611a17573d6000803e3d6000fd5b50505050505050565b60a5548103611a8e57826001600160a01b03166000805160206128e2833981519152600184604051611a53929190612625565b60405180910390a26000805460405163570ccb1360e01b81526001600160a01b039091169163570ccb13916119e99187918190600401612651565b505050565b7fb53127684a568b3173ae13b9f8a6016e243e63b6e8ee1178d6a717850b5d6103546001600160a01b031690565b828411158015611ad357506127108411155b8015611ae157506127108311155b611b2d5760405162461bcd60e51b815260206004820152601e60248201527f536c617368496e64696361746f723a20696e76616c696420726174696f730000604482015260640161056b565b606d849055606e839055606f82905560708190556040805185815260208101859052908101839052606081018290527fd24c671da2227c139fe1a5b34de15e5a67bef9b46e912916b9e0d025d51b3e3b906080015b60405180910390a150505050565b600081831015611ba05781610a7d565b5090919050565b6000336001600160a01b03831614801590611c2b5750600054604051633292276760e11b81526001600160a01b038481166004830152909116906365244ece90602401602060405180830381865afa158015611c07573d6000803e3d6000fd5b505050506040513d601f19601f82011682018060405250810190611c2b919061280c565b801561052d5750606c54604051630fbeb37f60e01b81526001600160a01b03848116600483015243602483015290911690630fbeb37f90604401602060405180830381865afa158015611c82573d6000803e3d6000fd5b505050506040513d601f19601f82011682018060405250810190611ca6919061280c565b1592915050565b6040516000906067906001908390611ccf9089908990899089906024016128af565b60408051601f198184030181529190526020810180516001600160e01b031663580a316360e01b1790528051909150611d0661213b565b602083016020828483895afa611d1b57600094505b503d611d2657600093505b83611d4457604051630fc2632160e01b815260040160405180910390fd5b5115159998505050505050505050565b606c80546001600160a01b0319166001600160a01b0383169081179091556040519081527f31a33f126a5bae3c5bdf6cfc2cd6dcfffe2fe9634bdb09e21c44762993889e3b906020015b60405180910390a150565b6001829055600281905560408051838152602081018390527f2f551c9d5c16e8a5444109ee232c78ed055e4e5cefe25e162b3bae190af0dedc91015b60405180910390a15050565b6000611dfd838361212c565b610a7d9084612612565b6000611e1c611e168486612873565b8361212c565b949350505050565b50603881905560395460408051838152602081018390527fbda9ec2980d7468ba6a9f363696315affca9f9770016396bdea2ac39c3e5d61a9101611de5565b603580546001600160a01b0319166001600160a01b0383169081179091556040519081527ffd6f5f93d69a07c593a09be0b208bff13ab4ffd6017df3b33433d63bdc59b4d790602001611d9e565b82841115611f125760405162461bcd60e51b815260206004820152602860248201527f43726564697453636f72653a20696e76616c6964206372656469742073636f726044820152676520636f6e66696760c01b606482015260840161056b565b612710811115611f7b5760405162461bcd60e51b815260206004820152602e60248201527f43726564697453636f72653a20696e76616c696420637574206f66662070657260448201526d63656e7461676520636f6e66696760901b606482015260840161056b565b60dd84905560de83905560df82905560e08190556040805185815260208101859052908101839052606081018290527fe1f9c6c73554b5fa140eead3cfd4ec3e6d4824f3ed26fb25e38376f65b95470b90608001611b82565b600080546001600160a01b0319166001600160a01b0383169081179091556040519081527fef40dc07567635f84f5edbd2f8dbc16b40d9d282dd8e7e6f4ff58236b683616990602001611d9e565b60a65460a55411156120855760405162461bcd60e51b815260206004820152602660248201527f536c617368556e617661696c6162696c6974793a20696e76616c696420746872604482015265195cda1bdb1960d21b606482015260840161056b565b60a584905560a683905560a782905560a88190556040805185815260208101859052908101839052606081018290527f442862e6143ad95854e7c13ff4947ec6e43bc87160e3b193e7c1abaf6e3aaa9890608001611b82565b603680546001600160a01b0319166001600160a01b0383169081179091556040519081527f9125df97e014f5cc4f107fd784acd35e8e2188ca7c2a0f7caa478365747c1c8390602001611d9e565b6000818310611ba05781610a7d565b60405180602001604052806001906020820280368337509192915050565b6001600160a01b0381168114610a0f57600080fd5b60006020828403121561218057600080fd5b8135610a7d81612159565b600080600080608085870312156121a157600080fd5b5050823594602084013594506040840135936060013592509050565b60008083601f8401126121cf57600080fd5b50813567ffffffffffffffff8111156121e757600080fd5b6020830191508360208285010111156121ff57600080fd5b9250929050565b60008060008060006060868803121561221e57600080fd5b853561222981612159565b9450602086013567ffffffffffffffff8082111561224657600080fd5b61225289838a016121bd565b9096509450604088013591508082111561226b57600080fd5b50612278888289016121bd565b969995985093965092949392505050565b6000806040838503121561229c57600080fd5b82356122a781612159565b946020939093013593505050565b600080604083850312156122c857600080fd5b50508035926020909101359150565b60008083601f8401126122e957600080fd5b50813567ffffffffffffffff81111561230157600080fd5b6020830191508360208260051b85010111156121ff57600080fd5b60008060006040848603121561233157600080fd5b833567ffffffffffffffff81111561234857600080fd5b612354868287016122d7565b909790965060209590950135949350505050565b806080810183101561052d57600080fd5b806040810183101561052d57600080fd5b60008060008060008060008060006102808a8c0312156123a957600080fd5b89356123b481612159565b985060208a01356123c481612159565b975060408a01356123d481612159565b965060608a01356123e481612159565b95506123f38b60808c01612368565b94506124038b6101008c01612379565b93506124138b6101408c01612379565b92506124238b6101808c01612368565b91506124338b6102008c01612368565b90509295985092959850929598565b6000806020838503121561245557600080fd5b823567ffffffffffffffff81111561246c57600080fd5b612478858286016122d7565b90969095509350505050565b600081518084526020808501945080840160005b838110156124b457815187529582019590820190600101612498565b509495945050505050565b602081526000610a7d6020830184612484565b6000602082840312156124e457600080fd5b5051919050565b60208082526022908201527f48617350726f787941646d696e3a20756e617574686f72697a65642073656e6460408201526132b960f11b606082015260800190565b634e487b7160e01b600052604160045260246000fd5b604051601f8201601f1916810167ffffffffffffffff8111828210171561256c5761256c61252d565b604052919050565b600060a0828403121561258657600080fd5b60405160a0810181811067ffffffffffffffff821117156125a9576125a961252d565b60405282516125b781612159565b815260208301516125c781612159565b602082015260408301516125da81612159565b6040820152606083810151908201526080928301519281019290925250919050565b634e487b7160e01b600052601160045260246000fd5b8181038181111561052d5761052d6125fc565b604081016007841061264757634e487b7160e01b600052602160045260246000fd5b9281526020015290565b6001600160a01b039390931683526020830191909152604082015260600190565b8183526000602080850194508260005b858110156124b457813561269581612159565b6001600160a01b031687529582019590820190600101612682565b602081526000611e1c602083018486612672565b805180151581146126d457600080fd5b919050565b600060208083850312156126ec57600080fd5b825167ffffffffffffffff8082111561270457600080fd5b818501915085601f83011261271857600080fd5b81518181111561272a5761272a61252d565b8060051b915061273b848301612543565b818152918301840191848101908884111561275557600080fd5b938501935b8385101561277a5761276b856126c4565b8252938501939085019061275a565b98975050505050505050565b60608152600061279a606083018688612672565b6020830194909452506040015292915050565b634e487b7160e01b600052603260045260246000fd5b6000600182016127d5576127d56125fc565b5060010190565b6040815260006127f0604083018587612672565b82810360208401526128028185612484565b9695505050505050565b60006020828403121561281e57600080fd5b610a7d826126c4565b60008060006060848603121561283c57600080fd5b612845846126c4565b925060208401519150604084015190509250925092565b808202811582820484141761052d5761052d6125fc565b8082018082111561052d5761052d6125fc565b81835281816020850137506000828201602090810191909152601f909101601f19169091010190565b6040815260006128c3604083018688612886565b82810360208401526128d6818587612886565b97965050505050505056fe607adba66cff84b627e3537d1c17d088a98556bccd0536a2f3590c56329023d9a26469706673582212203cdd25fc352e051f3a8d516ec12cbd30210856a949018f3c2b1f8ffa4de514ae64736f6c63430008110033",
  "devdoc": {
    "errors": {
      "ErrCallPrecompiled()": [
        {
          "details": "Error of call to precompile fails."
        }
      ],
      "ErrCallerMustBeGovernanceAdminContract()": [
        {
          "details": "Error of method caller must be goverance admin contract."
        }
      ],
      "ErrCallerMustBeMaintenanceContract()": [
        {
          "details": "Error of method caller must be maintenance contract."
        }
      ],
      "ErrCallerMustBeRoninTrustedOrgContract()": [
        {
          "details": "Error of method caller must be Ronin trusted org contract."
        }
      ],
      "ErrCallerMustBeValidatorContract()": [
        {
          "details": "Error of method caller must be validator contract."
        }
      ],
      "ErrZeroCodeContract()": [
        {
          "details": "Error of set to non-contract."
        }
      ]
    },
    "kind": "dev",
    "methods": {
      "bailOut(address)": {
        "details": "A slashed validator use this method to get out of jail. Requirements: - The `_consensusAddr` must be a validator. - Only validator's admin can call this method. Emits the event `BailedOut`."
      },
      "checkBailedOutAtPeriod(address,uint256)": {
        "details": "Returns the whether the `_validator` has been bailed out at the `_period`."
      },
      "currentUnavailabilityIndicator(address)": {
        "details": "Returns the current unavailability indicator of a block producer."
      },
      "getBridgeOperatorSlashingConfigs()": {
        "details": "Returns the configs related to bridge operator slashing.",
        "returns": {
          "jailDurationForMissingVotesRatioTier2_": "The number of blocks to jail the corresponding block producer when its bridge operator is slashed tier-2.",
          "missingVotesRatioTier1_": "The bridge reward will be deprecated if (s)he missed more than this ratio.",
          "missingVotesRatioTier2_": "The bridge reward and mining reward will be deprecated and the corresponding block producer will be put in jail if (s)he misses more than this ratio.",
          "skipBridgeOperatorSlashingThreshold_": "The threshold to skip slashing the bridge operator in case the total number of votes in the bridge is too small."
        }
      },
      "getBridgeVotingSlashingConfigs()": {
        "details": "Returns the configs related to bridge voting slashing.",
        "returns": {
          "bridgeVotingSlashAmount_": "The amount of RON to slash bridge voting.",
          "bridgeVotingThreshold_": "The threshold to slash when a trusted organization does not vote for bridge operators."
        }
      },
      "getCreditScore(address)": {
        "details": "Returns the current credit score of the validator."
      },
      "getCreditScoreConfigs()": {
        "details": "Returns the configs related to credit score.",
        "returns": {
          "bailOutCostMultiplier_": "The number that will be multiplied with the remaining jailed time to get the cost of bailing out.",
          "cutOffPercentageAfterBailout_": "The percentage of reward that the block producer will be cut off from until the end of the period after bailing out.",
          "gainCreditScore_": "The score to gain per period.",
          "maxCreditScore_": "The max number of credit score that a validator can hold."
        }
      },
      "getDoubleSignSlashingConfigs()": {
        "details": "Returns the configs related to block producer slashing.",
        "returns": {
          "doubleSigningJailUntilBlock_": "The block number that the punished validator will be jailed until, due to double signing.",
          "slashDoubleSignAmount_": "The amount of RON to slash double sign."
        }
      },
      "getManyCreditScores(address[])": {
        "details": "Returns the current credit score of a list of validators."
      },
      "getUnavailabilityIndicator(address,uint256)": {
        "details": "Helper for CreditScore contract to query indicator of the validator."
      },
      "getUnavailabilitySlashingConfigs()": {
        "details": "Returns the configs related to block producer slashing.",
        "returns": {
          "jailDurationForUnavailabilityTier2Threshold_": "The number of blocks to jail a block producer when (s)he is slashed tier-2.",
          "slashAmountForUnavailabilityTier2Threshold_": "The amount of RON to deduct from self-staking of a block producer when (s)he is slashed tier-2.",
          "unavailabilityTier1Threshold_": "The mining reward will be deprecated, if (s)he missed more than this threshold.",
          "unavailabilityTier2Threshold_": " The mining reward will be deprecated, (s)he will be put in jailed, and will be deducted self-staking if (s)he misses more than this threshold."
        }
      },
      "initialize(address,address,address,address,uint256[4],uint256[2],uint256[2],uint256[4],uint256[4])": {
        "details": "Initializes the contract storage."
      },
      "maintenanceContract()": {
        "details": "Returns the maintenance contract."
      },
      "precompileValidateDoubleSignAddress()": {
        "details": "Gets the address of the precompile of validating double sign evidence"
      },
      "roninGovernanceAdminContract()": {
        "details": "Returns the ronin governance admin contract."
      },
      "roninTrustedOrganizationContract()": {
        "details": "Returns the ronin trusted organization contract."
      },
      "setBridgeOperatorSlashingConfigs(uint256,uint256,uint256,uint256)": {
        "details": "Sets the configs to slash bridge operators. Requirements: - The method caller is admin. Emits the event `BridgeOperatorSlashingConfigsUpdated`.",
        "params": {
          "_jailDurationTier2": "The number of blocks to jail the corresponding block producer when its bridge operator is slashed tier-2.",
          "_ratioTier1": "The bridge reward will be deprecated if (s)he missed more than this ratio. Values 0-10,000 map to 0%-100%.",
          "_ratioTier2": "The bridge reward and mining reward will be deprecated and the corresponding block producer will be put in jail if (s)he misses more than this ratio. Values 0-10,000 map to 0%-100%.",
          "_skipSlashingThreshold": "The threshold to skip slashing the bridge operator in case the total number of votes in the bridge is too small."
        }
      },
      "setBridgeVotingSlashingConfigs(uint256,uint256)": {
        "details": "Sets the configs to slash bridge voting. Requirements: - The method caller is admin. Emits the event `BridgeVotingSlashingConfigsUpdated`.",
        "params": {
          "_slashAmount": "The amount of RON to slash bridge voting.",
          "_threshold": "The threshold to slash when a trusted organization does not vote for bridge operators."
        }
      },
      "setCreditScoreConfigs(uint256,uint256,uint256,uint256)": {
        "details": "Sets the configs to credit score. Requirements: - The method caller is admin. Emits the event `CreditScoreConfigsUpdated`.",
        "params": {
          "_bailOutMultiplier": "The number that will be multiplied with the remaining jailed time to get the cost of bailing out.",
          "_cutOffPercentage": "The percentage of reward that the block producer will be cut off from until the end of the period after bailing out.",
          "_gainScore": "The score to gain per period.",
          "_maxScore": "The max number of credit score that a validator can hold."
        }
      },
      "setDoubleSignSlashingConfigs(uint256,uint256)": {
        "details": "Sets the configs to slash block producers. Requirements: - The method caller is admin. Emits the event `DoubleSignSlashingConfigsUpdated`.",
        "params": {
          "_jailUntilBlock": "The block number that the punished validator will be jailed until, due to double signing.",
          "_slashAmount": "The amount of RON to slash double sign."
        }
      },
      "setMaintenanceContract(address)": {
        "details": "Sets the maintenance contract. Requirements: - The method caller is admin. - The new address is a contract. Emits the event `MaintenanceContractUpdated`."
      },
      "setRoninGovernanceAdminContract(address)": {
        "details": "Sets the ronin governance admin contract. Requirements: - The method caller is admin. - The new address is a contract. Emits the event `RoninGovernanceAdminContractUpdated`."
      },
      "setRoninTrustedOrganizationContract(address)": {
        "details": "Sets the ronin trusted organization contract. Requirements: - The method caller is admin. - The new address is a contract. Emits the event `RoninTrustedOrganizationContractUpdated`."
      },
      "setUnavailabilitySlashingConfigs(uint256,uint256,uint256,uint256)": {
        "details": "Sets the configs to slash block producers. Requirements: - The method caller is admin. Emits the event `BridgeOperatorSlashingConfigsUpdated`.",
        "params": {
          "_jailDurationForTier2Threshold": "The number of blocks to jail a block producer when (s)he is slashed tier-2.",
          "_slashAmountForTier2Threshold": "The amount of RON to deduct from self-staking of a block producer when (s)he is slashed tier-2.",
          "_tier1Threshold": "The mining reward will be deprecated, if (s)he missed more than this threshold.",
          "_tier2Threshold": "The mining reward will be deprecated, (s)he will be put in jailed, and will be deducted self-staking if (s)he misses more than this threshold."
        }
      },
      "setValidatorContract(address)": {
        "details": "Sets the validator contract. Requirements: - The method caller is admin. - The new address is a contract. Emits the event `ValidatorContractUpdated`."
      },
      "slashBridgeVoting(address)": {
        "details": "Slashes for bridge voter governance. Emits the event `Slashed`."
      },
      "slashDoubleSign(address,bytes,bytes)": {
        "details": "Slashes for double signing. Requirements: - The method caller is coinbase. Emits the event `Slashed` if the double signing evidence of the two headers valid."
      },
      "slashUnavailability(address)": {
        "details": "Slashes for unavailability by increasing the counter of block producer `_consensusAddr`. Requirements: - The method caller is coinbase. Emits the event `Slashed` when the threshold is reached."
      },
      "updateCreditScores(address[],uint256)": {
        "details": "Updates the credit score for the validators. Requirements: - Only validator contract can call this method. - This method is only called at the end of each period. Emits the event `CreditScoresUpdated`."
      },
      "validatorContract()": {
        "details": "Returns the validator contract."
      }
    },
    "version": 1
  },
  "userdoc": {
    "kind": "user",
    "methods": {},
    "version": 1
  },
  "storageLayout": {
    "storage": [
      {
        "astId": 6462,
        "contract": "contracts/ronin/slash-indicator/SlashIndicator.sol:SlashIndicator",
        "label": "_validatorContract",
        "offset": 0,
        "slot": "0",
        "type": "t_contract(IRoninValidatorSet)11908"
      },
      {
        "astId": 25032,
        "contract": "contracts/ronin/slash-indicator/SlashIndicator.sol:SlashIndicator",
        "label": "_slashDoubleSignAmount",
        "offset": 0,
        "slot": "1",
        "type": "t_uint256"
      },
      {
        "astId": 25035,
        "contract": "contracts/ronin/slash-indicator/SlashIndicator.sol:SlashIndicator",
        "label": "_doubleSigningJailUntilBlock",
        "offset": 0,
        "slot": "2",
        "type": "t_uint256"
      },
      {
        "astId": 25040,
        "contract": "contracts/ronin/slash-indicator/SlashIndicator.sol:SlashIndicator",
        "label": "______gap",
        "offset": 0,
        "slot": "3",
        "type": "t_array(t_uint256)50_storage"
      },
      {
        "astId": 6146,
        "contract": "contracts/ronin/slash-indicator/SlashIndicator.sol:SlashIndicator",
        "label": "_roninTrustedOrganizationContract",
        "offset": 0,
        "slot": "53",
        "type": "t_contract(IRoninTrustedOrganization)10177"
      },
      {
        "astId": 6067,
        "contract": "contracts/ronin/slash-indicator/SlashIndicator.sol:SlashIndicator",
        "label": "_roninGovernanceAdminContract",
        "offset": 0,
        "slot": "54",
        "type": "t_contract(IRoninGovernanceAdmin)9998"
      },
      {
        "astId": 24879,
        "contract": "contracts/ronin/slash-indicator/SlashIndicator.sol:SlashIndicator",
        "label": "_bridgeVotingSlashed",
        "offset": 0,
        "slot": "55",
        "type": "t_mapping(t_address,t_mapping(t_uint256,t_bool))"
      },
      {
        "astId": 24882,
        "contract": "contracts/ronin/slash-indicator/SlashIndicator.sol:SlashIndicator",
        "label": "_bridgeVotingThreshold",
        "offset": 0,
        "slot": "56",
        "type": "t_uint256"
      },
      {
        "astId": 24885,
        "contract": "contracts/ronin/slash-indicator/SlashIndicator.sol:SlashIndicator",
        "label": "_bridgeVotingSlashAmount",
        "offset": 0,
        "slot": "57",
        "type": "t_uint256"
      },
      {
        "astId": 24890,
        "contract": "contracts/ronin/slash-indicator/SlashIndicator.sol:SlashIndicator",
        "label": "______gap",
        "offset": 0,
        "slot": "58",
        "type": "t_array(t_uint256)50_storage"
      },
      {
        "astId": 5955,
        "contract": "contracts/ronin/slash-indicator/SlashIndicator.sol:SlashIndicator",
        "label": "_maintenanceContract",
        "offset": 0,
        "slot": "108",
        "type": "t_contract(IMaintenance)9690"
      },
      {
        "astId": 24748,
        "contract": "contracts/ronin/slash-indicator/SlashIndicator.sol:SlashIndicator",
        "label": "_missingVotesRatioTier1",
        "offset": 0,
        "slot": "109",
        "type": "t_uint256"
      },
      {
        "astId": 24751,
        "contract": "contracts/ronin/slash-indicator/SlashIndicator.sol:SlashIndicator",
        "label": "_missingVotesRatioTier2",
        "offset": 0,
        "slot": "110",
        "type": "t_uint256"
      },
      {
        "astId": 24754,
        "contract": "contracts/ronin/slash-indicator/SlashIndicator.sol:SlashIndicator",
        "label": "_jailDurationForMissingVotesRatioTier2",
        "offset": 0,
        "slot": "111",
        "type": "t_uint256"
      },
      {
        "astId": 24757,
        "contract": "contracts/ronin/slash-indicator/SlashIndicator.sol:SlashIndicator",
        "label": "_skipBridgeOperatorSlashingThreshold",
        "offset": 0,
        "slot": "112",
        "type": "t_uint256"
      },
      {
        "astId": 24762,
        "contract": "contracts/ronin/slash-indicator/SlashIndicator.sol:SlashIndicator",
        "label": "______gap",
        "offset": 0,
        "slot": "113",
        "type": "t_array(t_uint256)50_storage"
      },
      {
        "astId": 25388,
        "contract": "contracts/ronin/slash-indicator/SlashIndicator.sol:SlashIndicator",
        "label": "lastUnavailabilitySlashedBlock",
        "offset": 0,
        "slot": "163",
        "type": "t_uint256"
      },
      {
        "astId": 25395,
        "contract": "contracts/ronin/slash-indicator/SlashIndicator.sol:SlashIndicator",
        "label": "_unavailabilityIndicator",
        "offset": 0,
        "slot": "164",
        "type": "t_mapping(t_address,t_mapping(t_uint256,t_uint256))"
      },
      {
        "astId": 25398,
        "contract": "contracts/ronin/slash-indicator/SlashIndicator.sol:SlashIndicator",
        "label": "_unavailabilityTier1Threshold",
        "offset": 0,
        "slot": "165",
        "type": "t_uint256"
      },
      {
        "astId": 25401,
        "contract": "contracts/ronin/slash-indicator/SlashIndicator.sol:SlashIndicator",
        "label": "_unavailabilityTier2Threshold",
        "offset": 0,
        "slot": "166",
        "type": "t_uint256"
      },
      {
        "astId": 25404,
        "contract": "contracts/ronin/slash-indicator/SlashIndicator.sol:SlashIndicator",
        "label": "_slashAmountForUnavailabilityTier2Threshold",
        "offset": 0,
        "slot": "167",
        "type": "t_uint256"
      },
      {
        "astId": 25407,
        "contract": "contracts/ronin/slash-indicator/SlashIndicator.sol:SlashIndicator",
        "label": "_jailDurationForUnavailabilityTier2Threshold",
        "offset": 0,
        "slot": "168",
        "type": "t_uint256"
      },
      {
        "astId": 25412,
        "contract": "contracts/ronin/slash-indicator/SlashIndicator.sol:SlashIndicator",
        "label": "______gap",
        "offset": 0,
        "slot": "169",
        "type": "t_array(t_uint256)50_storage"
      },
      {
        "astId": 24288,
        "contract": "contracts/ronin/slash-indicator/SlashIndicator.sol:SlashIndicator",
        "label": "_checkBailedOutAtPeriod",
        "offset": 0,
        "slot": "219",
        "type": "t_mapping(t_address,t_mapping(t_uint256,t_bool))"
      },
      {
        "astId": 24293,
        "contract": "contracts/ronin/slash-indicator/SlashIndicator.sol:SlashIndicator",
        "label": "_creditScore",
        "offset": 0,
        "slot": "220",
        "type": "t_mapping(t_address,t_uint256)"
      },
      {
        "astId": 24296,
        "contract": "contracts/ronin/slash-indicator/SlashIndicator.sol:SlashIndicator",
        "label": "_gainCreditScore",
        "offset": 0,
        "slot": "221",
        "type": "t_uint256"
      },
      {
        "astId": 24299,
        "contract": "contracts/ronin/slash-indicator/SlashIndicator.sol:SlashIndicator",
        "label": "_maxCreditScore",
        "offset": 0,
        "slot": "222",
        "type": "t_uint256"
      },
      {
        "astId": 24302,
        "contract": "contracts/ronin/slash-indicator/SlashIndicator.sol:SlashIndicator",
        "label": "_bailOutCostMultiplier",
        "offset": 0,
        "slot": "223",
        "type": "t_uint256"
      },
      {
        "astId": 24305,
        "contract": "contracts/ronin/slash-indicator/SlashIndicator.sol:SlashIndicator",
        "label": "_cutOffPercentageAfterBailout",
        "offset": 0,
        "slot": "224",
        "type": "t_uint256"
      },
      {
        "astId": 24310,
        "contract": "contracts/ronin/slash-indicator/SlashIndicator.sol:SlashIndicator",
        "label": "______gap",
        "offset": 0,
        "slot": "225",
        "type": "t_array(t_uint256)50_storage"
      },
      {
        "astId": 1373,
        "contract": "contracts/ronin/slash-indicator/SlashIndicator.sol:SlashIndicator",
        "label": "_initialized",
        "offset": 0,
        "slot": "275",
        "type": "t_uint8"
      },
      {
        "astId": 1376,
        "contract": "contracts/ronin/slash-indicator/SlashIndicator.sol:SlashIndicator",
        "label": "_initializing",
        "offset": 1,
        "slot": "275",
        "type": "t_bool"
      }
    ],
    "types": {
      "t_address": {
        "encoding": "inplace",
        "label": "address",
        "numberOfBytes": "20"
      },
      "t_array(t_uint256)50_storage": {
        "base": "t_uint256",
        "encoding": "inplace",
        "label": "uint256[50]",
        "numberOfBytes": "1600"
      },
      "t_bool": {
        "encoding": "inplace",
        "label": "bool",
        "numberOfBytes": "1"
      },
      "t_contract(IMaintenance)9690": {
        "encoding": "inplace",
        "label": "contract IMaintenance",
        "numberOfBytes": "20"
      },
      "t_contract(IRoninGovernanceAdmin)9998": {
        "encoding": "inplace",
        "label": "contract IRoninGovernanceAdmin",
        "numberOfBytes": "20"
      },
      "t_contract(IRoninTrustedOrganization)10177": {
        "encoding": "inplace",
        "label": "contract IRoninTrustedOrganization",
        "numberOfBytes": "20"
      },
      "t_contract(IRoninValidatorSet)11908": {
        "encoding": "inplace",
        "label": "contract IRoninValidatorSet",
        "numberOfBytes": "20"
      },
      "t_mapping(t_address,t_mapping(t_uint256,t_bool))": {
        "encoding": "mapping",
        "key": "t_address",
        "label": "mapping(address => mapping(uint256 => bool))",
        "numberOfBytes": "32",
        "value": "t_mapping(t_uint256,t_bool)"
      },
      "t_mapping(t_address,t_mapping(t_uint256,t_uint256))": {
        "encoding": "mapping",
        "key": "t_address",
        "label": "mapping(address => mapping(uint256 => uint256))",
        "numberOfBytes": "32",
        "value": "t_mapping(t_uint256,t_uint256)"
      },
      "t_mapping(t_address,t_uint256)": {
        "encoding": "mapping",
        "key": "t_address",
        "label": "mapping(address => uint256)",
        "numberOfBytes": "32",
        "value": "t_uint256"
      },
      "t_mapping(t_uint256,t_bool)": {
        "encoding": "mapping",
        "key": "t_uint256",
        "label": "mapping(uint256 => bool)",
        "numberOfBytes": "32",
        "value": "t_bool"
      },
      "t_mapping(t_uint256,t_uint256)": {
        "encoding": "mapping",
        "key": "t_uint256",
        "label": "mapping(uint256 => uint256)",
        "numberOfBytes": "32",
        "value": "t_uint256"
      },
      "t_uint256": {
        "encoding": "inplace",
        "label": "uint256",
        "numberOfBytes": "32"
      },
      "t_uint8": {
        "encoding": "inplace",
        "label": "uint8",
        "numberOfBytes": "1"
      }
    }
  }
}