{
  "address": "0x82D8666b6017a88dd5Bd3F6cb2d40752366cFA5B",
  "abi": [
    {
      "inputs": [],
      "stateMutability": "nonpayable",
      "type": "constructor"
    },
    {
      "anonymous": false,
      "inputs": [
        {
          "indexed": true,
          "internalType": "address",
          "name": "validator",
          "type": "address"
        },
        {
          "indexed": false,
          "internalType": "uint256",
          "name": "period",
          "type": "uint256"
        }
      ],
      "name": "BailedOut",
      "type": "event"
    },
    {
      "anonymous": false,
      "inputs": [
        {
          "indexed": false,
          "internalType": "uint256",
          "name": "missingVotesRatioTier1",
          "type": "uint256"
        },
        {
          "indexed": false,
          "internalType": "uint256",
          "name": "missingVotesRatioTier2",
          "type": "uint256"
        },
        {
          "indexed": false,
          "internalType": "uint256",
          "name": "jailDurationForMissingVotesRatioTier2",
          "type": "uint256"
        },
        {
          "indexed": false,
          "internalType": "uint256",
          "name": "skipBridgeOperatorSlashingThreshold",
          "type": "uint256"
        }
      ],
      "name": "BridgeOperatorSlashingConfigsUpdated",
      "type": "event"
    },
    {
      "anonymous": false,
      "inputs": [
        {
          "indexed": false,
          "internalType": "uint256",
          "name": "bridgeVotingThreshold",
          "type": "uint256"
        },
        {
          "indexed": false,
          "internalType": "uint256",
          "name": "bridgeVotingSlashAmount",
          "type": "uint256"
        }
      ],
      "name": "BridgeVotingSlashingConfigsUpdated",
      "type": "event"
    },
    {
      "anonymous": false,
      "inputs": [
        {
          "indexed": false,
          "internalType": "uint256",
          "name": "gainCreditScore",
          "type": "uint256"
        },
        {
          "indexed": false,
          "internalType": "uint256",
          "name": "maxCreditScore",
          "type": "uint256"
        },
        {
          "indexed": false,
          "internalType": "uint256",
          "name": "bailOutCostMultiplier",
          "type": "uint256"
        },
        {
          "indexed": false,
          "internalType": "uint256",
          "name": "cutOffPercentageAfterBailout",
          "type": "uint256"
        }
      ],
      "name": "CreditScoreConfigsUpdated",
      "type": "event"
    },
    {
      "anonymous": false,
      "inputs": [
        {
          "indexed": false,
          "internalType": "address[]",
          "name": "validators",
          "type": "address[]"
        },
        {
          "indexed": false,
          "internalType": "uint256[]",
          "name": "creditScores",
          "type": "uint256[]"
        }
      ],
      "name": "CreditScoresUpdated",
      "type": "event"
    },
    {
      "anonymous": false,
      "inputs": [
        {
          "indexed": false,
          "internalType": "uint256",
          "name": "slashDoubleSignAmount",
          "type": "uint256"
        },
        {
          "indexed": false,
          "internalType": "uint256",
          "name": "doubleSigningJailUntilBlock",
          "type": "uint256"
        }
      ],
      "name": "DoubleSignSlashingConfigsUpdated",
      "type": "event"
    },
    {
      "anonymous": false,
      "inputs": [
        {
          "indexed": false,
          "internalType": "uint8",
          "name": "version",
          "type": "uint8"
        }
      ],
      "name": "Initialized",
      "type": "event"
    },
    {
      "anonymous": false,
      "inputs": [
        {
          "indexed": false,
          "internalType": "address",
          "name": "",
          "type": "address"
        }
      ],
      "name": "MaintenanceContractUpdated",
      "type": "event"
    },
    {
      "anonymous": false,
      "inputs": [
        {
          "indexed": false,
          "internalType": "address",
          "name": "",
          "type": "address"
        }
      ],
      "name": "RoninGovernanceAdminContractUpdated",
      "type": "event"
    },
    {
      "anonymous": false,
      "inputs": [
        {
          "indexed": false,
          "internalType": "address",
          "name": "",
          "type": "address"
        }
      ],
      "name": "RoninTrustedOrganizationContractUpdated",
      "type": "event"
    },
    {
      "anonymous": false,
      "inputs": [
        {
          "indexed": true,
          "internalType": "address",
          "name": "validator",
          "type": "address"
        },
        {
          "indexed": false,
          "internalType": "enum IBaseSlash.SlashType",
          "name": "slashType",
          "type": "uint8"
        },
        {
          "indexed": false,
          "internalType": "uint256",
          "name": "period",
          "type": "uint256"
        }
      ],
      "name": "Slashed",
      "type": "event"
    },
    {
      "anonymous": false,
      "inputs": [
        {
          "indexed": false,
          "internalType": "uint256",
          "name": "unavailabilityTier1Threshold",
          "type": "uint256"
        },
        {
          "indexed": false,
          "internalType": "uint256",
          "name": "unavailabilityTier2Threshold",
          "type": "uint256"
        },
        {
          "indexed": false,
          "internalType": "uint256",
          "name": "slashAmountForUnavailabilityTier2Threshold",
          "type": "uint256"
        },
        {
          "indexed": false,
          "internalType": "uint256",
          "name": "jailDurationForUnavailabilityTier2Threshold",
          "type": "uint256"
        }
      ],
      "name": "UnavailabilitySlashingConfigsUpdated",
      "type": "event"
    },
    {
      "anonymous": false,
      "inputs": [
        {
          "indexed": false,
          "internalType": "address",
          "name": "",
          "type": "address"
        }
      ],
      "name": "ValidatorContractUpdated",
      "type": "event"
    },
    {
      "inputs": [
        {
          "internalType": "address",
          "name": "_consensusAddr",
          "type": "address"
        }
      ],
      "name": "bailOut",
      "outputs": [],
      "stateMutability": "nonpayable",
      "type": "function"
    },
    {
      "inputs": [
        {
          "internalType": "address",
          "name": "_validator",
          "type": "address"
        },
        {
          "internalType": "uint256",
          "name": "_period",
          "type": "uint256"
        }
      ],
      "name": "checkBailedOutAtPeriod",
      "outputs": [
        {
          "internalType": "bool",
          "name": "",
          "type": "bool"
        }
      ],
      "stateMutability": "view",
      "type": "function"
    },
    {
      "inputs": [
        {
          "internalType": "address",
          "name": "_validator",
          "type": "address"
        }
      ],
      "name": "currentUnavailabilityIndicator",
      "outputs": [
        {
          "internalType": "uint256",
          "name": "",
          "type": "uint256"
        }
      ],
      "stateMutability": "view",
      "type": "function"
    },
    {
      "inputs": [],
      "name": "getBridgeOperatorSlashingConfigs",
      "outputs": [
        {
          "internalType": "uint256",
          "name": "",
          "type": "uint256"
        },
        {
          "internalType": "uint256",
          "name": "",
          "type": "uint256"
        },
        {
          "internalType": "uint256",
          "name": "",
          "type": "uint256"
        },
        {
          "internalType": "uint256",
          "name": "",
          "type": "uint256"
        }
      ],
      "stateMutability": "view",
      "type": "function"
    },
    {
      "inputs": [],
      "name": "getBridgeVotingSlashingConfigs",
      "outputs": [
        {
          "internalType": "uint256",
          "name": "",
          "type": "uint256"
        },
        {
          "internalType": "uint256",
          "name": "",
          "type": "uint256"
        }
      ],
      "stateMutability": "view",
      "type": "function"
    },
    {
      "inputs": [
        {
          "internalType": "address",
          "name": "_validator",
          "type": "address"
        }
      ],
      "name": "getCreditScore",
      "outputs": [
        {
          "internalType": "uint256",
          "name": "",
          "type": "uint256"
        }
      ],
      "stateMutability": "view",
      "type": "function"
    },
    {
      "inputs": [],
      "name": "getCreditScoreConfigs",
      "outputs": [
        {
          "internalType": "uint256",
          "name": "",
          "type": "uint256"
        },
        {
          "internalType": "uint256",
          "name": "",
          "type": "uint256"
        },
        {
          "internalType": "uint256",
          "name": "",
          "type": "uint256"
        },
        {
          "internalType": "uint256",
          "name": "",
          "type": "uint256"
        }
      ],
      "stateMutability": "view",
      "type": "function"
    },
    {
      "inputs": [],
      "name": "getDoubleSignSlashingConfigs",
      "outputs": [
        {
          "internalType": "uint256",
          "name": "",
          "type": "uint256"
        },
        {
          "internalType": "uint256",
          "name": "",
          "type": "uint256"
        }
      ],
      "stateMutability": "view",
      "type": "function"
    },
    {
      "inputs": [
        {
          "internalType": "address[]",
          "name": "_validators",
          "type": "address[]"
        }
      ],
      "name": "getManyCreditScores",
      "outputs": [
        {
          "internalType": "uint256[]",
          "name": "_resultList",
          "type": "uint256[]"
        }
      ],
      "stateMutability": "view",
      "type": "function"
    },
    {
      "inputs": [
        {
          "internalType": "address",
          "name": "_validator",
          "type": "address"
        },
        {
          "internalType": "uint256",
          "name": "_period",
          "type": "uint256"
        }
      ],
      "name": "getUnavailabilityIndicator",
      "outputs": [
        {
          "internalType": "uint256",
          "name": "",
          "type": "uint256"
        }
      ],
      "stateMutability": "view",
      "type": "function"
    },
    {
      "inputs": [],
      "name": "getUnavailabilitySlashingConfigs",
      "outputs": [
        {
          "internalType": "uint256",
          "name": "",
          "type": "uint256"
        },
        {
          "internalType": "uint256",
          "name": "",
          "type": "uint256"
        },
        {
          "internalType": "uint256",
          "name": "",
          "type": "uint256"
        },
        {
          "internalType": "uint256",
          "name": "",
          "type": "uint256"
        }
      ],
      "stateMutability": "view",
      "type": "function"
    },
    {
      "inputs": [
        {
          "internalType": "address",
          "name": "__validatorContract",
          "type": "address"
        },
        {
          "internalType": "address",
          "name": "__maintenanceContract",
          "type": "address"
        },
        {
          "internalType": "address",
          "name": "__roninTrustedOrganizationContract",
          "type": "address"
        },
        {
          "internalType": "address",
          "name": "__roninGovernanceAdminContract",
          "type": "address"
        },
        {
          "internalType": "uint256[4]",
          "name": "_bridgeOperatorSlashingConfigs",
          "type": "uint256[4]"
        },
        {
          "internalType": "uint256[2]",
          "name": "_bridgeVotingSlashingConfigs",
          "type": "uint256[2]"
        },
        {
          "internalType": "uint256[2]",
          "name": "_doubleSignSlashingConfigs",
          "type": "uint256[2]"
        },
        {
          "internalType": "uint256[4]",
          "name": "_unavailabilitySlashingConfigs",
          "type": "uint256[4]"
        },
        {
          "internalType": "uint256[4]",
          "name": "_creditScoreConfigs",
          "type": "uint256[4]"
        }
      ],
      "name": "initialize",
      "outputs": [],
      "stateMutability": "nonpayable",
      "type": "function"
    },
    {
      "inputs": [],
      "name": "lastUnavailabilitySlashedBlock",
      "outputs": [
        {
          "internalType": "uint256",
          "name": "",
          "type": "uint256"
        }
      ],
      "stateMutability": "view",
      "type": "function"
    },
    {
      "inputs": [],
      "name": "maintenanceContract",
      "outputs": [
        {
          "internalType": "address",
          "name": "",
          "type": "address"
        }
      ],
      "stateMutability": "view",
      "type": "function"
    },
    {
      "inputs": [],
      "name": "precompileValidateDoubleSignAddress",
      "outputs": [
        {
          "internalType": "address",
          "name": "",
          "type": "address"
        }
      ],
      "stateMutability": "view",
      "type": "function"
    },
    {
      "inputs": [],
      "name": "roninGovernanceAdminContract",
      "outputs": [
        {
          "internalType": "address",
          "name": "",
          "type": "address"
        }
      ],
      "stateMutability": "view",
      "type": "function"
    },
    {
      "inputs": [],
      "name": "roninTrustedOrganizationContract",
      "outputs": [
        {
          "internalType": "address",
          "name": "",
          "type": "address"
        }
      ],
      "stateMutability": "view",
      "type": "function"
    },
    {
      "inputs": [
        {
          "internalType": "uint256",
          "name": "_ratioTier1",
          "type": "uint256"
        },
        {
          "internalType": "uint256",
          "name": "_ratioTier2",
          "type": "uint256"
        },
        {
          "internalType": "uint256",
          "name": "_jailDurationTier2",
          "type": "uint256"
        },
        {
          "internalType": "uint256",
          "name": "_skipSlashingThreshold",
          "type": "uint256"
        }
      ],
      "name": "setBridgeOperatorSlashingConfigs",
      "outputs": [],
      "stateMutability": "nonpayable",
      "type": "function"
    },
    {
      "inputs": [
        {
          "internalType": "uint256",
          "name": "_threshold",
          "type": "uint256"
        },
        {
          "internalType": "uint256",
          "name": "_slashAmount",
          "type": "uint256"
        }
      ],
      "name": "setBridgeVotingSlashingConfigs",
      "outputs": [],
      "stateMutability": "nonpayable",
      "type": "function"
    },
    {
      "inputs": [
        {
          "internalType": "uint256",
          "name": "_gainScore",
          "type": "uint256"
        },
        {
          "internalType": "uint256",
          "name": "_maxScore",
          "type": "uint256"
        },
        {
          "internalType": "uint256",
          "name": "_bailOutMultiplier",
          "type": "uint256"
        },
        {
          "internalType": "uint256",
          "name": "_cutOffPercentage",
          "type": "uint256"
        }
      ],
      "name": "setCreditScoreConfigs",
      "outputs": [],
      "stateMutability": "nonpayable",
      "type": "function"
    },
    {
      "inputs": [
        {
          "internalType": "uint256",
          "name": "_slashAmount",
          "type": "uint256"
        },
        {
          "internalType": "uint256",
          "name": "_jailUntilBlock",
          "type": "uint256"
        }
      ],
      "name": "setDoubleSignSlashingConfigs",
      "outputs": [],
      "stateMutability": "nonpayable",
      "type": "function"
    },
    {
      "inputs": [
        {
          "internalType": "address",
          "name": "_addr",
          "type": "address"
        }
      ],
      "name": "setMaintenanceContract",
      "outputs": [],
      "stateMutability": "nonpayable",
      "type": "function"
    },
    {
      "inputs": [
        {
          "internalType": "address",
          "name": "_addr",
          "type": "address"
        }
      ],
      "name": "setRoninGovernanceAdminContract",
      "outputs": [],
      "stateMutability": "nonpayable",
      "type": "function"
    },
    {
      "inputs": [
        {
          "internalType": "address",
          "name": "_addr",
          "type": "address"
        }
      ],
      "name": "setRoninTrustedOrganizationContract",
      "outputs": [],
      "stateMutability": "nonpayable",
      "type": "function"
    },
    {
      "inputs": [
        {
          "internalType": "uint256",
          "name": "_tier1Threshold",
          "type": "uint256"
        },
        {
          "internalType": "uint256",
          "name": "_tier2Threshold",
          "type": "uint256"
        },
        {
          "internalType": "uint256",
          "name": "_slashAmountForTier2Threshold",
          "type": "uint256"
        },
        {
          "internalType": "uint256",
          "name": "_jailDurationForTier2Threshold",
          "type": "uint256"
        }
      ],
      "name": "setUnavailabilitySlashingConfigs",
      "outputs": [],
      "stateMutability": "nonpayable",
      "type": "function"
    },
    {
      "inputs": [
        {
          "internalType": "address",
          "name": "_addr",
          "type": "address"
        }
      ],
      "name": "setValidatorContract",
      "outputs": [],
      "stateMutability": "nonpayable",
      "type": "function"
    },
    {
      "inputs": [
        {
          "internalType": "address",
          "name": "_consensusAddr",
          "type": "address"
        }
      ],
      "name": "slashBridgeVoting",
      "outputs": [],
      "stateMutability": "nonpayable",
      "type": "function"
    },
    {
      "inputs": [
        {
          "internalType": "address",
          "name": "_consensuAddr",
          "type": "address"
        },
        {
          "internalType": "bytes",
          "name": "_header1",
          "type": "bytes"
        },
        {
          "internalType": "bytes",
          "name": "_header2",
          "type": "bytes"
        }
      ],
      "name": "slashDoubleSign",
      "outputs": [],
      "stateMutability": "nonpayable",
      "type": "function"
    },
    {
      "inputs": [
        {
          "internalType": "address",
          "name": "_validatorAddr",
          "type": "address"
        }
      ],
      "name": "slashUnavailability",
      "outputs": [],
      "stateMutability": "nonpayable",
      "type": "function"
    },
    {
      "inputs": [
        {
          "internalType": "address[]",
          "name": "_validators",
          "type": "address[]"
        },
        {
          "internalType": "uint256",
          "name": "_period",
          "type": "uint256"
        }
      ],
      "name": "updateCreditScores",
      "outputs": [],
      "stateMutability": "nonpayable",
      "type": "function"
    },
    {
      "inputs": [],
      "name": "validatorContract",
      "outputs": [
        {
          "internalType": "address",
          "name": "",
          "type": "address"
        }
      ],
      "stateMutability": "view",
      "type": "function"
    }
  ],
  "transactionHash": "0xea09cbed88cd3c8d39418f8ced4b9404874a505cbde501846d11e1af4062c02b",
  "args": [],
  "numDeployments": 2,
  "solcInputHash": "7ee7c0f941167beb3dcb34451beb8d74",
  "bytecode": "0x60806040523480156200001157600080fd5b506200001c62000022565b620000e7565b61011354610100900460ff1615620000905760405162461bcd60e51b815260206004820152602760248201527f496e697469616c697a61626c653a20636f6e747261637420697320696e697469604482015266616c697a696e6760c81b606482015260840160405180910390fd5b6101135460ff9081161015620000e557610113805460ff191660ff9081179091556040519081527f7f26b83ff96e1f2b6a682f133852f6798a09c465da95921460cefb38474024989060200160405180910390a15b565b612b2e80620000f76000396000f3fe608060405234801561001057600080fd5b50600436106101e55760003560e01c8063994390891161010f578063d2cb215e116100a2578063e79b3f6711610071578063e79b3f6714610463578063f1001e7814610476578063f562b3c414610496578063fd422cd01461049f57600080fd5b8063d2cb215e1461040b578063d3dd2bdf1461041c578063d73e81b814610445578063df4b6ee01461045857600080fd5b8063ccbb72ed116100de578063ccbb72ed146103bf578063cdf64a76146103d2578063d1737e27146103e5578063d1f992f7146103f857600080fd5b8063994390891461036e578063b5e337de1461037f578063c2e524dc14610392578063c6391fa2146103ae57600080fd5b80633d48fd7d1161018757806362ffe6cb1161015657806362ffe6cb1461032e5780637680850c146103415780637c2b55a014610354578063853af1b71461035b57600080fd5b80633d48fd7d146102e657806346fe9311146102f75780635511cde11461030a57806361d3b60b1461031b57600080fd5b80631a697341116101c35780631a697341146102525780631e90b2a01461026557806323368e471461027857806329ddc3c01461029d57600080fd5b8063082e7420146101ea5780630e1512ac146102105780631079402a14610225575b600080fd5b6101fd6101f8366004612365565b6104b2565b6040519081526020015b60405180910390f35b61022361021e366004612382565b610533565b005b606d54606e54606f546070545b604080519485526020850193909352918301526060820152608001610207565b610223610260366004612365565b610586565b6102236102733660046123fd565b610801565b6036546001600160a01b03165b6040516001600160a01b039091168152602001610207565b6102d66102ab366004612480565b6001600160a01b0391909116600090815260db60209081526040808320938352929052205460ff1690565b6040519015158152602001610207565b60a55460a65460a75460a854610232565b610223610305366004612365565b6109a3565b6035546001600160a01b0316610285565b6102236103293660046124ac565b610a55565b6101fd61033c366004612480565b610a9b565b61022361034f366004612513565b610ac7565b6067610285565b6102236103693660046124ac565b610ea2565b6000546001600160a01b0316610285565b61022361038d366004612365565b610ee4565b6038546039545b60408051928352602083019190915201610207565b60dd5460de5460df5460e054610232565b6102236103cd366004612382565b610fa5565b6102236103e0366004612365565b610fe9565b6102236103f3366004612382565b611096565b610223610406366004612365565b6110da565b606c546001600160a01b0316610285565b6101fd61042a366004612365565b6001600160a01b0316600090815260dc602052604090205490565b610223610453366004612365565b61160b565b600154600254610399565b610223610471366004612581565b6116c3565b610489610484366004612639565b611867565b60405161020791906126b6565b6101fd60a35481565b6102236104ad366004612365565b61193c565b600061052d8260008054906101000a90046001600160a01b03166001600160a01b031663060406186040518163ffffffff1660e01b8152600401602060405180830381865afa158015610509573d6000803e3d6000fd5b505050506040513d601f19601f8201168201806040525081019061033c91906126c9565b92915050565b61053b611c35565b6001600160a01b0316336001600160a01b0316146105745760405162461bcd60e51b815260040161056b906126e2565b60405180910390fd5b61058084848484611c63565b50505050565b603554604051636db349d160e11b81526001600160a01b038381166004830152600092169063db6693a29060240160a060405180830381865afa1580156105d1573d6000803e3d6000fd5b505050506040513d601f19601f820116820180604052508101906105f5919061276b565b6036546040828101519051632623bd4f60e21b81526001600160a01b03918216600482015292935060009261067d92919091169063988ef53c90602401602060405180830381865afa15801561064f573d6000803e3d6000fd5b505050506040513d601f19601f8201168201806040525081019061067391906126c9565b8360800151611d32565b905060008060009054906101000a90046001600160a01b03166001600160a01b031663060406186040518163ffffffff1660e01b8152600401602060405180830381865afa1580156106d3573d6000803e3d6000fd5b505050506040513d601f19601f820116820180604052508101906106f791906126c9565b6038549091506107078343612809565b11801561073857506001600160a01b038416600090815260376020908152604080832084845290915290205460ff16155b15610580576001600160a01b038416600081815260376020908152604080832085845290915290819020805460ff1916600117905551600080516020612ad98339815191529061078c90600490859061281c565b60405180910390a26000805460395460405163570ccb1360e01b81526001600160a01b039092169263570ccb13926107c992899291600401612848565b600060405180830381600087803b1580156107e357600080fd5b505af11580156107f7573d6000803e3d6000fd5b5050505050505050565b3341146108675760405162461bcd60e51b815260206004820152602e60248201527f536c617368496e64696361746f723a206d6574686f642063616c6c6572206d7560448201526d737420626520636f696e6261736560901b606482015260840161056b565b61087085611d49565b1561099c5761088184848484611e4f565b1561099c5760008060009054906101000a90046001600160a01b03166001600160a01b031663060406186040518163ffffffff1660e01b8152600401602060405180830381865afa1580156108da573d6000803e3d6000fd5b505050506040513d601f19601f820116820180604052508101906108fe91906126c9565b9050856001600160a01b0316600080516020612ad983398151915260038360405161092a92919061281c565b60405180910390a260005460025460015460405163570ccb1360e01b81526001600160a01b039093169263570ccb1392610968928b92600401612848565b600060405180830381600087803b15801561098257600080fd5b505af1158015610996573d6000803e3d6000fd5b50505050505b5050505050565b6109ab611c35565b6001600160a01b0316336001600160a01b0316146109db5760405162461bcd60e51b815260040161056b906126e2565b6000816001600160a01b03163b11610a495760405162461bcd60e51b815260206004820152602b60248201527f4861734d61696e74656e616e6365436f6e74726163743a2073657420746f206e60448201526a1bdb8b58dbdb9d1c9858dd60aa1b606482015260840161056b565b610a5281611f4b565b50565b610a5d611c35565b6001600160a01b0316336001600160a01b031614610a8d5760405162461bcd60e51b815260040161056b906126e2565b610a978282611fa0565b5050565b6001600160a01b038216600090815260a4602090815260408083208484529091528120545b9392505050565b33610ada6000546001600160a01b031690565b6001600160a01b031614610b565760405162461bcd60e51b815260206004820152603e60248201527f48617356616c696461746f72436f6e74726163743a206d6574686f642063616c60448201527f6c6572206d7573742062652076616c696461746f7220636f6e74726163740000606482015260840161056b565b60008060009054906101000a90046001600160a01b03166001600160a01b031663297a8fca6040518163ffffffff1660e01b8152600401602060405180830381865afa158015610baa573d6000803e3d6000fd5b505050506040513d601f19601f82011682018060405250810190610bce91906126c9565b60008054604051634de2b73560e01b815292935090916001600160a01b0390911690634de2b73590610c0690889088906004016128a7565b600060405180830381865afa158015610c23573d6000803e3d6000fd5b505050506040513d6000823e601f3d908101601f19168201604052610c4b91908101906128d0565b606c5460405163ba30375560e01b81529192506000916001600160a01b039091169063ba30375590610c8790899089908890439060040161297d565b600060405180830381865afa158015610ca4573d6000803e3d6000fd5b505050506040513d6000823e601f3d908101601f19168201604052610ccc91908101906128d0565b905060008567ffffffffffffffff811115610ce957610ce9612724565b604051908082528060200260200182016040528015610d12578160200160208202803683370190505b50905060005b86811015610e5d576000888883818110610d3457610d346129a4565b9050602002016020810190610d499190612365565b90506000610d578289610a9b565b90506000868481518110610d6d57610d6d6129a4565b602002602001015190506000868581518110610d8b57610d8b6129a4565b6020026020010151905060008280610da05750815b610db557610db060dd5485611fe8565b610db8565b60005b6001600160a01b038616600090815260dc602052604081205460de5492935091610de59083908590611ffe565b9050808214610e0a576001600160a01b038716600090815260dc602052604090208190555b6001600160a01b038716600090815260dc602052604090205489518a908a908110610e3757610e376129a4565b602002602001018181525050505050505050508080610e55906129ba565b915050610d18565b507f8c02b2ccee964dc50649a48bd0a0446f0f9e88ecdb72d099f4ace07c39c23480878783604051610e91939291906129d3565b60405180910390a150505050505050565b610eaa611c35565b6001600160a01b0316336001600160a01b031614610eda5760405162461bcd60e51b815260040161056b906126e2565b610a97828261201b565b610eec611c35565b6001600160a01b0316336001600160a01b031614610f1c5760405162461bcd60e51b815260040161056b906126e2565b6000816001600160a01b03163b11610f9c5760405162461bcd60e51b815260206004820152603860248201527f486173526f6e696e547275737465644f7267616e697a6174696f6e436f6e747260448201527f6163743a2073657420746f206e6f6e2d636f6e74726163740000000000000000606482015260840161056b565b610a528161205a565b610fad611c35565b6001600160a01b0316336001600160a01b031614610fdd5760405162461bcd60e51b815260040161056b906126e2565b610580848484846120a8565b610ff1611c35565b6001600160a01b0316336001600160a01b0316146110215760405162461bcd60e51b815260040161056b906126e2565b6000816001600160a01b03163b1161108d5760405162461bcd60e51b815260206004820152602960248201527f48617356616c696461746f72436f6e74726163743a2073657420746f206e6f6e6044820152680b58dbdb9d1c9858dd60ba1b606482015260840161056b565b610a52816121cb565b61109e611c35565b6001600160a01b0316336001600160a01b0316146110ce5760405162461bcd60e51b815260040161056b906126e2565b61058084848484612219565b600054604051635061f96960e11b81526001600160a01b0383811660048301529091169063a0c3f2d290602401602060405180830381865afa158015611124573d6000803e3d6000fd5b505050506040513d601f19601f820116820180604052508101906111489190612a03565b6111ba5760405162461bcd60e51b815260206004820152603f60248201527f536c617368496e64696361746f723a20636f6e73656e7375732061646472657360448201527f73206d75737420626520612076616c696461746f722063616e64696461746500606482015260840161056b565b6000546040516304d971ab60e01b81526001600160a01b038381166004830152336024830152909116906304d971ab90604401602060405180830381865afa15801561120a573d6000803e3d6000fd5b505050506040513d601f19601f8201168201806040525081019061122e9190612a03565b6112a05760405162461bcd60e51b815260206004820152603760248201527f536c617368496e64696361746f723a206d6574686f642063616c6c6572206d7560448201527f737420626520612063616e6469646174652061646d696e000000000000000000606482015260840161056b565b60008054604051634b2c2fe160e11b81526001600160a01b038481166004830152839216906396585fc290602401606060405180830381865afa1580156112eb573d6000803e3d6000fd5b505050506040513d601f19601f8201168201806040525081019061130f9190612a1e565b9250509150816113875760405162461bcd60e51b815260206004820152603b60248201527f536c617368496e64696361746f723a2063616c6c6572206d757374206265206a60448201527f61696c656420696e207468652063757272656e7420706572696f640000000000606482015260840161056b565b60008060009054906101000a90046001600160a01b03166001600160a01b031663060406186040518163ffffffff1660e01b8152600401602060405180830381865afa1580156113db573d6000803e3d6000fd5b505050506040513d601f19601f820116820180604052508101906113ff91906126c9565b6001600160a01b038516600090815260db6020908152604080832084845290915290205490915060ff16156114925760405162461bcd60e51b815260206004820152603360248201527f536c617368496e64696361746f723a2076616c696461746f7220686173206261604482015272696c6564206f75742070726576696f75736c7960681b606482015260840161056b565b6001600160a01b038416600090815260dc602052604081205460df549091906114bb9085612a53565b90508082101561152b5760405162461bcd60e51b815260206004820152603560248201527f536c617368496e64696361746f723a20696e73756666696369656e7420637265604482015274191a5d081cd8dbdc99481d1bc818985a5b081bdd5d605a1b606482015260840161056b565b600054604051630adaf5ef60e11b81526001600160a01b03888116600483015260248201869052909116906315b5ebde90604401600060405180830381600087803b15801561157957600080fd5b505af115801561158d573d6000803e3d6000fd5b505050506001600160a01b038616600090815260dc6020526040812080548392906115b9908490612809565b909155505050506001600160a01b0393909316600081815260a460209081526040808320878452825280832083905592825260db815282822095825294909452909220805460ff191660011790555050565b611613611c35565b6001600160a01b0316336001600160a01b0316146116435760405162461bcd60e51b815260040161056b906126e2565b6000816001600160a01b03163b116116ba5760405162461bcd60e51b815260206004820152603460248201527f486173526f6e696e476f7665726e616e636541646d696e436f6e74726163743a604482015273081cd95d081d1bc81b9bdb8b58dbdb9d1c9858dd60621b606482015260840161056b565b610a52816122d5565b61011354610100900460ff16158080156116e5575061011354600160ff909116105b806117005750303b15801561170057506101135460ff166001145b6117635760405162461bcd60e51b815260206004820152602e60248201527f496e697469616c697a61626c653a20636f6e747261637420697320616c72656160448201526d191e481a5b9a5d1a585b1a5e995960921b606482015260840161056b565b610113805460ff19166001179055801561178857610113805461ff0019166101001790555b6117918a6121cb565b61179a89611f4b565b6117a38861205a565b6117ac876122d5565b6117c586356020880135604089013560608a0135611c63565b6117d48535602087013561201b565b6117e384356020860135611fa0565b6117fc8335602085013560408601356060870135612219565b61181582356020840135604085013560608601356120a8565b801561099657610113805461ff0019169055604051600181527f7f26b83ff96e1f2b6a682f133852f6798a09c465da95921460cefb38474024989060200160405180910390a150505050505050505050565b60608167ffffffffffffffff81111561188257611882612724565b6040519080825280602002602001820160405280156118ab578160200160208202803683370190505b50905060005b81518110156119355760dc60008585848181106118d0576118d06129a4565b90506020020160208101906118e59190612365565b6001600160a01b03166001600160a01b0316815260200190815260200160002054828281518110611918576119186129a4565b60209081029190910101528061192d816129ba565b9150506118b1565b5092915050565b60a35443116119d95760405162461bcd60e51b815260206004820152605c60248201527f536c617368496e64696361746f723a2063616e6e6f7420736c6173682061207660448201527f616c696461746f72207477696365206f7220736c617368206d6f72652074686160648201527f6e206f6e652076616c696461746f7220696e206f6e6520626c6f636b00000000608482015260a40161056b565b4360a355334114611a485760405162461bcd60e51b815260206004820152603360248201527f536c617368556e617661696c6162696c6974793a206d6574686f642063616c6c6044820152726572206d75737420626520636f696e6261736560681b606482015260840161056b565b611a5181611d49565b15610a525760008060009054906101000a90046001600160a01b03166001600160a01b031663060406186040518163ffffffff1660e01b8152600401602060405180830381865afa158015611aaa573d6000803e3d6000fd5b505050506040513d601f19601f82011682018060405250810190611ace91906126c9565b6001600160a01b038316600090815260a4602090815260408083208484529091528120805492935090918290611b03906129ba565b919050819055905060a6548103611bc257826001600160a01b0316600080516020612ad9833981519152600284604051611b3e92919061281c565b60405180910390a260005460a8546001600160a01b039091169063570ccb13908590611b6a9043612a6a565b60a7546040518463ffffffff1660e01b8152600401611b8b93929190612848565b600060405180830381600087803b158015611ba557600080fd5b505af1158015611bb9573d6000803e3d6000fd5b50505050505050565b60a5548103611c3057826001600160a01b0316600080516020612ad9833981519152600184604051611bf592919061281c565b60405180910390a26000805460405163570ccb1360e01b81526001600160a01b039091169163570ccb1391611b8b9187918190600401612848565b505050565b7fb53127684a568b3173ae13b9f8a6016e243e63b6e8ee1178d6a717850b5d6103546001600160a01b031690565b828411158015611c7557506127108411155b8015611c8357506127108311155b611ccf5760405162461bcd60e51b815260206004820152601e60248201527f536c617368496e64696361746f723a20696e76616c696420726174696f730000604482015260640161056b565b606d849055606e839055606f82905560708190556040805185815260208101859052908101839052606081018290527fd24c671da2227c139fe1a5b34de15e5a67bef9b46e912916b9e0d025d51b3e3b906080015b60405180910390a150505050565b600081831015611d425781610ac0565b5090919050565b6000336001600160a01b03831614801590611dcd5750600054604051633292276760e11b81526001600160a01b038481166004830152909116906365244ece90602401602060405180830381865afa158015611da9573d6000803e3d6000fd5b505050506040513d601f19601f82011682018060405250810190611dcd9190612a03565b801561052d5750606c54604051630fbeb37f60e01b81526001600160a01b03848116600483015243602483015290911690630fbeb37f90604401602060405180830381865afa158015611e24573d6000803e3d6000fd5b505050506040513d601f19601f82011682018060405250810190611e489190612a03565b1592915050565b6040516000906067906001908390611e71908990899089908990602401612aa6565b60408051601f198184030181529190526020810180516001600160e01b031663580a316360e01b1790528051909150611ea8612332565b602083016020828483895afa611ebd57600094505b503d611ec857600093505b83611f3b5760405162461bcd60e51b815260206004820152603b60248201527f507265636f6d70696c65557361676556616c6964617465446f75626c6553696760448201527f6e3a2063616c6c20746f20707265636f6d70696c65206661696c730000000000606482015260840161056b565b5115159998505050505050505050565b606c80546001600160a01b0319166001600160a01b0383169081179091556040519081527f31a33f126a5bae3c5bdf6cfc2cd6dcfffe2fe9634bdb09e21c44762993889e3b906020015b60405180910390a150565b6001829055600281905560408051838152602081018390527f2f551c9d5c16e8a5444109ee232c78ed055e4e5cefe25e162b3bae190af0dedc91015b60405180910390a15050565b6000611ff48383612323565b610ac09084612809565b600061201361200d8486612a6a565b83612323565b949350505050565b50603881905560395460408051838152602081018390527fbda9ec2980d7468ba6a9f363696315affca9f9770016396bdea2ac39c3e5d61a9101611fdc565b603580546001600160a01b0319166001600160a01b0383169081179091556040519081527ffd6f5f93d69a07c593a09be0b208bff13ab4ffd6017df3b33433d63bdc59b4d790602001611f95565b828411156121095760405162461bcd60e51b815260206004820152602860248201527f43726564697453636f72653a20696e76616c6964206372656469742073636f726044820152676520636f6e66696760c01b606482015260840161056b565b6127108111156121725760405162461bcd60e51b815260206004820152602e60248201527f43726564697453636f72653a20696e76616c696420637574206f66662070657260448201526d63656e7461676520636f6e66696760901b606482015260840161056b565b60dd84905560de83905560df82905560e08190556040805185815260208101859052908101839052606081018290527fe1f9c6c73554b5fa140eead3cfd4ec3e6d4824f3ed26fb25e38376f65b95470b90608001611d24565b600080546001600160a01b0319166001600160a01b0383169081179091556040519081527fef40dc07567635f84f5edbd2f8dbc16b40d9d282dd8e7e6f4ff58236b683616990602001611f95565b60a65460a554111561227c5760405162461bcd60e51b815260206004820152602660248201527f536c617368556e617661696c6162696c6974793a20696e76616c696420746872604482015265195cda1bdb1960d21b606482015260840161056b565b60a584905560a683905560a782905560a88190556040805185815260208101859052908101839052606081018290527f442862e6143ad95854e7c13ff4947ec6e43bc87160e3b193e7c1abaf6e3aaa9890608001611d24565b603680546001600160a01b0319166001600160a01b0383169081179091556040519081527f9125df97e014f5cc4f107fd784acd35e8e2188ca7c2a0f7caa478365747c1c8390602001611f95565b6000818310611d425781610ac0565b60405180602001604052806001906020820280368337509192915050565b6001600160a01b0381168114610a5257600080fd5b60006020828403121561237757600080fd5b8135610ac081612350565b6000806000806080858703121561239857600080fd5b5050823594602084013594506040840135936060013592509050565b60008083601f8401126123c657600080fd5b50813567ffffffffffffffff8111156123de57600080fd5b6020830191508360208285010111156123f657600080fd5b9250929050565b60008060008060006060868803121561241557600080fd5b853561242081612350565b9450602086013567ffffffffffffffff8082111561243d57600080fd5b61244989838a016123b4565b9096509450604088013591508082111561246257600080fd5b5061246f888289016123b4565b969995985093965092949392505050565b6000806040838503121561249357600080fd5b823561249e81612350565b946020939093013593505050565b600080604083850312156124bf57600080fd5b50508035926020909101359150565b60008083601f8401126124e057600080fd5b50813567ffffffffffffffff8111156124f857600080fd5b6020830191508360208260051b85010111156123f657600080fd5b60008060006040848603121561252857600080fd5b833567ffffffffffffffff81111561253f57600080fd5b61254b868287016124ce565b909790965060209590950135949350505050565b806080810183101561052d57600080fd5b806040810183101561052d57600080fd5b60008060008060008060008060006102808a8c0312156125a057600080fd5b89356125ab81612350565b985060208a01356125bb81612350565b975060408a01356125cb81612350565b965060608a01356125db81612350565b95506125ea8b60808c0161255f565b94506125fa8b6101008c01612570565b935061260a8b6101408c01612570565b925061261a8b6101808c0161255f565b915061262a8b6102008c0161255f565b90509295985092959850929598565b6000806020838503121561264c57600080fd5b823567ffffffffffffffff81111561266357600080fd5b61266f858286016124ce565b90969095509350505050565b600081518084526020808501945080840160005b838110156126ab5781518752958201959082019060010161268f565b509495945050505050565b602081526000610ac0602083018461267b565b6000602082840312156126db57600080fd5b5051919050565b60208082526022908201527f48617350726f787941646d696e3a20756e617574686f72697a65642073656e6460408201526132b960f11b606082015260800190565b634e487b7160e01b600052604160045260246000fd5b604051601f8201601f1916810167ffffffffffffffff8111828210171561276357612763612724565b604052919050565b600060a0828403121561277d57600080fd5b60405160a0810181811067ffffffffffffffff821117156127a0576127a0612724565b60405282516127ae81612350565b815260208301516127be81612350565b602082015260408301516127d181612350565b6040820152606083810151908201526080928301519281019290925250919050565b634e487b7160e01b600052601160045260246000fd5b8181038181111561052d5761052d6127f3565b604081016007841061283e57634e487b7160e01b600052602160045260246000fd5b9281526020015290565b6001600160a01b039390931683526020830191909152604082015260600190565b8183526000602080850194508260005b858110156126ab57813561288c81612350565b6001600160a01b031687529582019590820190600101612879565b602081526000612013602083018486612869565b805180151581146128cb57600080fd5b919050565b600060208083850312156128e357600080fd5b825167ffffffffffffffff808211156128fb57600080fd5b818501915085601f83011261290f57600080fd5b81518181111561292157612921612724565b8060051b915061293284830161273a565b818152918301840191848101908884111561294c57600080fd5b938501935b8385101561297157612962856128bb565b82529385019390850190612951565b98975050505050505050565b606081526000612991606083018688612869565b6020830194909452506040015292915050565b634e487b7160e01b600052603260045260246000fd5b6000600182016129cc576129cc6127f3565b5060010190565b6040815260006129e7604083018587612869565b82810360208401526129f9818561267b565b9695505050505050565b600060208284031215612a1557600080fd5b610ac0826128bb565b600080600060608486031215612a3357600080fd5b612a3c846128bb565b925060208401519150604084015190509250925092565b808202811582820484141761052d5761052d6127f3565b8082018082111561052d5761052d6127f3565b81835281816020850137506000828201602090810191909152601f909101601f19169091010190565b604081526000612aba604083018688612a7d565b8281036020840152612acd818587612a7d565b97965050505050505056fe607adba66cff84b627e3537d1c17d088a98556bccd0536a2f3590c56329023d9a26469706673582212205631baffdebea1aedc5688ba57a42ffc445b6b40218942faf0f96372f4c9bdda64736f6c63430008110033",
  "devdoc": {
    "kind": "dev",
    "methods": {
      "bailOut(address)": {
        "details": "A slashed validator use this method to get out of jail. Requirements: - The `_consensusAddr` must be a validator. - Only validator's admin can call this method. Emits the event `BailedOut`."
      },
      "checkBailedOutAtPeriod(address,uint256)": {
        "details": "Returns the whether the `_validator` has been bailed out at the `_period`."
      },
      "currentUnavailabilityIndicator(address)": {
        "details": "Returns the current unavailability indicator of a block producer."
      },
      "getBridgeOperatorSlashingConfigs()": {
        "details": "Returns the configs related to bridge operator slashing.",
        "returns": {
          "_0": "The bridge reward will be deprecated if (s)he missed more than this ratio.",
          "_1": "The bridge reward and mining reward will be deprecated and the corresponding block producer will be put in jail if (s)he misses more than this ratio.",
          "_2": "The number of blocks to jail the corresponding block producer when its bridge operator is slashed tier-2.",
          "_3": "The threshold to skip slashing the bridge operator in case the total number of votes in the bridge is too small."
        }
      },
      "getBridgeVotingSlashingConfigs()": {
        "details": "Returns the configs related to bridge voting slashing.",
        "returns": {
          "_0": "The threshold to slash when a trusted organization does not vote for bridge operators.",
          "_1": "The amount of RON to slash bridge voting."
        }
      },
      "getCreditScore(address)": {
        "details": "Returns the current credit score of the validator."
      },
      "getCreditScoreConfigs()": {
        "details": "Returns the configs related to credit score.",
        "returns": {
          "_0": "The score to gain per period.",
          "_1": "The max number of credit score that a validator can hold.",
          "_2": "The number that will be multiplied with the remaining jailed time to get the cost of bailing out.",
          "_3": "The percentage of reward that the block producer will be cut off from until the end of the period after bailing out."
        }
      },
      "getDoubleSignSlashingConfigs()": {
        "details": "Returns the configs related to block producer slashing.",
        "returns": {
          "_0": "The amount of RON to slash double sign.",
          "_1": "The block number that the punished validator will be jailed until, due to double signing."
        }
      },
      "getManyCreditScores(address[])": {
        "details": "Returns the current credit score of a list of validators."
      },
      "getUnavailabilityIndicator(address,uint256)": {
        "details": "Helper for CreditScore contract to query indicator of the validator."
      },
      "getUnavailabilitySlashingConfigs()": {
        "details": "Returns the configs related to block producer slashing.",
        "returns": {
          "_0": "The mining reward will be deprecated, if (s)he missed more than this threshold.",
          "_1": " The mining reward will be deprecated, (s)he will be put in jailed, and will be deducted self-staking if (s)he misses more than this threshold.",
          "_2": "The amount of RON to deduct from self-staking of a block producer when (s)he is slashed tier-2.",
          "_3": "The number of blocks to jail a block producer when (s)he is slashed tier-2."
        }
      },
      "initialize(address,address,address,address,uint256[4],uint256[2],uint256[2],uint256[4],uint256[4])": {
        "details": "Initializes the contract storage."
      },
      "maintenanceContract()": {
        "details": "Returns the maintenance contract."
      },
      "precompileValidateDoubleSignAddress()": {
        "details": "Gets the address of the precompile of validating double sign evidence"
      },
      "roninGovernanceAdminContract()": {
        "details": "Returns the ronin governance admin contract."
      },
      "roninTrustedOrganizationContract()": {
        "details": "Returns the ronin trusted organization contract."
      },
      "setBridgeOperatorSlashingConfigs(uint256,uint256,uint256,uint256)": {
        "details": "Sets the configs to slash bridge operators. Requirements: - The method caller is admin. Emits the event `BridgeOperatorSlashingConfigsUpdated`.",
        "params": {
          "_jailDurationTier2": "The number of blocks to jail the corresponding block producer when its bridge operator is slashed tier-2.",
          "_ratioTier1": "The bridge reward will be deprecated if (s)he missed more than this ratio. Values 0-10,000 map to 0%-100%.",
          "_ratioTier2": "The bridge reward and mining reward will be deprecated and the corresponding block producer will be put in jail if (s)he misses more than this ratio. Values 0-10,000 map to 0%-100%.",
          "_skipSlashingThreshold": "The threshold to skip slashing the bridge operator in case the total number of votes in the bridge is too small."
        }
      },
      "setBridgeVotingSlashingConfigs(uint256,uint256)": {
        "details": "Sets the configs to slash bridge voting. Requirements: - The method caller is admin. Emits the event `BridgeVotingSlashingConfigsUpdated`.",
        "params": {
          "_slashAmount": "The amount of RON to slash bridge voting.",
          "_threshold": "The threshold to slash when a trusted organization does not vote for bridge operators."
        }
      },
      "setCreditScoreConfigs(uint256,uint256,uint256,uint256)": {
        "details": "Sets the configs to credit score. Requirements: - The method caller is admin. Emits the event `CreditScoreConfigsUpdated`.",
        "params": {
          "_bailOutMultiplier": "The number that will be multiplied with the remaining jailed time to get the cost of bailing out.",
          "_cutOffPercentage": "The percentage of reward that the block producer will be cut off from until the end of the period after bailing out.",
          "_gainScore": "The score to gain per period.",
          "_maxScore": "The max number of credit score that a validator can hold."
        }
      },
      "setDoubleSignSlashingConfigs(uint256,uint256)": {
        "details": "Sets the configs to slash block producers. Requirements: - The method caller is admin. Emits the event `DoubleSignSlashingConfigsUpdated`.",
        "params": {
          "_jailUntilBlock": "The block number that the punished validator will be jailed until, due to double signing.",
          "_slashAmount": "The amount of RON to slash double sign."
        }
      },
      "setMaintenanceContract(address)": {
        "details": "Sets the maintenance contract. Requirements: - The method caller is admin. - The new address is a contract. Emits the event `MaintenanceContractUpdated`."
      },
      "setRoninGovernanceAdminContract(address)": {
        "details": "Sets the ronin governance admin contract. Requirements: - The method caller is admin. - The new address is a contract. Emits the event `RoninGovernanceAdminContractUpdated`."
      },
      "setRoninTrustedOrganizationContract(address)": {
        "details": "Sets the ronin trusted organization contract. Requirements: - The method caller is admin. - The new address is a contract. Emits the event `RoninTrustedOrganizationContractUpdated`."
      },
      "setUnavailabilitySlashingConfigs(uint256,uint256,uint256,uint256)": {
        "details": "Sets the configs to slash block producers. Requirements: - The method caller is admin. Emits the event `BridgeOperatorSlashingConfigsUpdated`.",
        "params": {
          "_jailDurationForTier2Threshold": "The number of blocks to jail a block producer when (s)he is slashed tier-2.",
          "_slashAmountForTier2Threshold": "The amount of RON to deduct from self-staking of a block producer when (s)he is slashed tier-2.",
          "_tier1Threshold": "The mining reward will be deprecated, if (s)he missed more than this threshold.",
          "_tier2Threshold": "The mining reward will be deprecated, (s)he will be put in jailed, and will be deducted self-staking if (s)he misses more than this threshold."
        }
      },
      "setValidatorContract(address)": {
        "details": "Sets the validator contract. Requirements: - The method caller is admin. - The new address is a contract. Emits the event `ValidatorContractUpdated`."
      },
      "slashBridgeVoting(address)": {
        "details": "Slashes for bridge voter governance. Emits the event `Slashed`."
      },
      "slashDoubleSign(address,bytes,bytes)": {
        "details": "Slashes for double signing. Requirements: - The method caller is coinbase. Emits the event `Slashed` if the double signing evidence of the two headers valid."
      },
      "slashUnavailability(address)": {
        "details": "Slashes for unavailability by increasing the counter of block producer `_consensusAddr`. Requirements: - The method caller is coinbase. Emits the event `Slashed` when the threshold is reached."
      },
      "updateCreditScores(address[],uint256)": {
        "details": "Updates the credit score for the validators. Requirements: - Only validator contract can call this method. - This method is only called at the end of each period. Emits the event `CreditScoresUpdated`."
      },
      "validatorContract()": {
        "details": "Returns the validator contract."
      }
    },
    "version": 1
  },
  "userdoc": {
    "kind": "user",
    "methods": {},
    "version": 1
  },
  "storageLayout": {
    "storage": [
      {
        "astId": 6398,
        "contract": "contracts/ronin/slash-indicator/SlashIndicator.sol:SlashIndicator",
        "label": "_validatorContract",
        "offset": 0,
        "slot": "0",
        "type": "t_contract(IRoninValidatorSet)10935"
      },
      {
        "astId": 22625,
        "contract": "contracts/ronin/slash-indicator/SlashIndicator.sol:SlashIndicator",
        "label": "_slashDoubleSignAmount",
        "offset": 0,
        "slot": "1",
        "type": "t_uint256"
      },
      {
        "astId": 22628,
        "contract": "contracts/ronin/slash-indicator/SlashIndicator.sol:SlashIndicator",
        "label": "_doubleSigningJailUntilBlock",
        "offset": 0,
        "slot": "2",
        "type": "t_uint256"
      },
      {
        "astId": 22633,
        "contract": "contracts/ronin/slash-indicator/SlashIndicator.sol:SlashIndicator",
        "label": "______gap",
        "offset": 0,
        "slot": "3",
        "type": "t_array(t_uint256)50_storage"
      },
      {
        "astId": 6082,
        "contract": "contracts/ronin/slash-indicator/SlashIndicator.sol:SlashIndicator",
        "label": "_roninTrustedOrganizationContract",
        "offset": 0,
        "slot": "53",
        "type": "t_contract(IRoninTrustedOrganization)9509"
      },
      {
        "astId": 6003,
        "contract": "contracts/ronin/slash-indicator/SlashIndicator.sol:SlashIndicator",
        "label": "_roninGovernanceAdminContract",
        "offset": 0,
        "slot": "54",
        "type": "t_contract(IRoninGovernanceAdmin)9330"
      },
      {
        "astId": 22472,
        "contract": "contracts/ronin/slash-indicator/SlashIndicator.sol:SlashIndicator",
        "label": "_bridgeVotingSlashed",
        "offset": 0,
        "slot": "55",
        "type": "t_mapping(t_address,t_mapping(t_uint256,t_bool))"
      },
      {
        "astId": 22475,
        "contract": "contracts/ronin/slash-indicator/SlashIndicator.sol:SlashIndicator",
        "label": "_bridgeVotingThreshold",
        "offset": 0,
        "slot": "56",
        "type": "t_uint256"
      },
      {
        "astId": 22478,
        "contract": "contracts/ronin/slash-indicator/SlashIndicator.sol:SlashIndicator",
        "label": "_bridgeVotingSlashAmount",
        "offset": 0,
        "slot": "57",
        "type": "t_uint256"
      },
      {
        "astId": 22483,
        "contract": "contracts/ronin/slash-indicator/SlashIndicator.sol:SlashIndicator",
        "label": "______gap",
        "offset": 0,
        "slot": "58",
        "type": "t_array(t_uint256)50_storage"
      },
      {
        "astId": 5891,
        "contract": "contracts/ronin/slash-indicator/SlashIndicator.sol:SlashIndicator",
        "label": "_maintenanceContract",
        "offset": 0,
        "slot": "108",
        "type": "t_contract(IMaintenance)9075"
      },
      {
        "astId": 22341,
        "contract": "contracts/ronin/slash-indicator/SlashIndicator.sol:SlashIndicator",
        "label": "_missingVotesRatioTier1",
        "offset": 0,
        "slot": "109",
        "type": "t_uint256"
      },
      {
        "astId": 22344,
        "contract": "contracts/ronin/slash-indicator/SlashIndicator.sol:SlashIndicator",
        "label": "_missingVotesRatioTier2",
        "offset": 0,
        "slot": "110",
        "type": "t_uint256"
      },
      {
        "astId": 22347,
        "contract": "contracts/ronin/slash-indicator/SlashIndicator.sol:SlashIndicator",
        "label": "_jailDurationForMissingVotesRatioTier2",
        "offset": 0,
        "slot": "111",
        "type": "t_uint256"
      },
      {
        "astId": 22350,
        "contract": "contracts/ronin/slash-indicator/SlashIndicator.sol:SlashIndicator",
        "label": "_skipBridgeOperatorSlashingThreshold",
        "offset": 0,
        "slot": "112",
        "type": "t_uint256"
      },
      {
        "astId": 22355,
        "contract": "contracts/ronin/slash-indicator/SlashIndicator.sol:SlashIndicator",
        "label": "______gap",
        "offset": 0,
        "slot": "113",
        "type": "t_array(t_uint256)50_storage"
      },
      {
        "astId": 22981,
        "contract": "contracts/ronin/slash-indicator/SlashIndicator.sol:SlashIndicator",
        "label": "lastUnavailabilitySlashedBlock",
        "offset": 0,
        "slot": "163",
        "type": "t_uint256"
      },
      {
        "astId": 22988,
        "contract": "contracts/ronin/slash-indicator/SlashIndicator.sol:SlashIndicator",
        "label": "_unavailabilityIndicator",
        "offset": 0,
        "slot": "164",
        "type": "t_mapping(t_address,t_mapping(t_uint256,t_uint256))"
      },
      {
        "astId": 22991,
        "contract": "contracts/ronin/slash-indicator/SlashIndicator.sol:SlashIndicator",
        "label": "_unavailabilityTier1Threshold",
        "offset": 0,
        "slot": "165",
        "type": "t_uint256"
      },
      {
        "astId": 22994,
        "contract": "contracts/ronin/slash-indicator/SlashIndicator.sol:SlashIndicator",
        "label": "_unavailabilityTier2Threshold",
        "offset": 0,
        "slot": "166",
        "type": "t_uint256"
      },
      {
        "astId": 22997,
        "contract": "contracts/ronin/slash-indicator/SlashIndicator.sol:SlashIndicator",
        "label": "_slashAmountForUnavailabilityTier2Threshold",
        "offset": 0,
        "slot": "167",
        "type": "t_uint256"
      },
      {
        "astId": 23000,
        "contract": "contracts/ronin/slash-indicator/SlashIndicator.sol:SlashIndicator",
        "label": "_jailDurationForUnavailabilityTier2Threshold",
        "offset": 0,
        "slot": "168",
        "type": "t_uint256"
      },
      {
        "astId": 23005,
        "contract": "contracts/ronin/slash-indicator/SlashIndicator.sol:SlashIndicator",
        "label": "______gap",
        "offset": 0,
        "slot": "169",
        "type": "t_array(t_uint256)50_storage"
      },
      {
        "astId": 21866,
        "contract": "contracts/ronin/slash-indicator/SlashIndicator.sol:SlashIndicator",
        "label": "_checkBailedOutAtPeriod",
        "offset": 0,
        "slot": "219",
        "type": "t_mapping(t_address,t_mapping(t_uint256,t_bool))"
      },
      {
        "astId": 21871,
        "contract": "contracts/ronin/slash-indicator/SlashIndicator.sol:SlashIndicator",
        "label": "_creditScore",
        "offset": 0,
        "slot": "220",
        "type": "t_mapping(t_address,t_uint256)"
      },
      {
        "astId": 21874,
        "contract": "contracts/ronin/slash-indicator/SlashIndicator.sol:SlashIndicator",
        "label": "_gainCreditScore",
        "offset": 0,
        "slot": "221",
        "type": "t_uint256"
      },
      {
        "astId": 21877,
        "contract": "contracts/ronin/slash-indicator/SlashIndicator.sol:SlashIndicator",
        "label": "_maxCreditScore",
        "offset": 0,
        "slot": "222",
        "type": "t_uint256"
      },
      {
        "astId": 21880,
        "contract": "contracts/ronin/slash-indicator/SlashIndicator.sol:SlashIndicator",
        "label": "_bailOutCostMultiplier",
        "offset": 0,
        "slot": "223",
        "type": "t_uint256"
      },
      {
        "astId": 21883,
        "contract": "contracts/ronin/slash-indicator/SlashIndicator.sol:SlashIndicator",
        "label": "_cutOffPercentageAfterBailout",
        "offset": 0,
        "slot": "224",
        "type": "t_uint256"
      },
      {
        "astId": 21888,
        "contract": "contracts/ronin/slash-indicator/SlashIndicator.sol:SlashIndicator",
        "label": "______gap",
        "offset": 0,
        "slot": "225",
        "type": "t_array(t_uint256)50_storage"
      },
      {
        "astId": 1373,
        "contract": "contracts/ronin/slash-indicator/SlashIndicator.sol:SlashIndicator",
        "label": "_initialized",
        "offset": 0,
        "slot": "275",
        "type": "t_uint8"
      },
      {
        "astId": 1376,
        "contract": "contracts/ronin/slash-indicator/SlashIndicator.sol:SlashIndicator",
        "label": "_initializing",
        "offset": 1,
        "slot": "275",
        "type": "t_bool"
      }
    ],
    "types": {
      "t_address": {
        "encoding": "inplace",
        "label": "address",
        "numberOfBytes": "20"
      },
      "t_array(t_uint256)50_storage": {
        "base": "t_uint256",
        "encoding": "inplace",
        "label": "uint256[50]",
        "numberOfBytes": "1600"
      },
      "t_bool": {
        "encoding": "inplace",
        "label": "bool",
        "numberOfBytes": "1"
      },
      "t_contract(IMaintenance)9075": {
        "encoding": "inplace",
        "label": "contract IMaintenance",
        "numberOfBytes": "20"
      },
      "t_contract(IRoninGovernanceAdmin)9330": {
        "encoding": "inplace",
        "label": "contract IRoninGovernanceAdmin",
        "numberOfBytes": "20"
      },
      "t_contract(IRoninTrustedOrganization)9509": {
        "encoding": "inplace",
        "label": "contract IRoninTrustedOrganization",
        "numberOfBytes": "20"
      },
      "t_contract(IRoninValidatorSet)10935": {
        "encoding": "inplace",
        "label": "contract IRoninValidatorSet",
        "numberOfBytes": "20"
      },
      "t_mapping(t_address,t_mapping(t_uint256,t_bool))": {
        "encoding": "mapping",
        "key": "t_address",
        "label": "mapping(address => mapping(uint256 => bool))",
        "numberOfBytes": "32",
        "value": "t_mapping(t_uint256,t_bool)"
      },
      "t_mapping(t_address,t_mapping(t_uint256,t_uint256))": {
        "encoding": "mapping",
        "key": "t_address",
        "label": "mapping(address => mapping(uint256 => uint256))",
        "numberOfBytes": "32",
        "value": "t_mapping(t_uint256,t_uint256)"
      },
      "t_mapping(t_address,t_uint256)": {
        "encoding": "mapping",
        "key": "t_address",
        "label": "mapping(address => uint256)",
        "numberOfBytes": "32",
        "value": "t_uint256"
      },
      "t_mapping(t_uint256,t_bool)": {
        "encoding": "mapping",
        "key": "t_uint256",
        "label": "mapping(uint256 => bool)",
        "numberOfBytes": "32",
        "value": "t_bool"
      },
      "t_mapping(t_uint256,t_uint256)": {
        "encoding": "mapping",
        "key": "t_uint256",
        "label": "mapping(uint256 => uint256)",
        "numberOfBytes": "32",
        "value": "t_uint256"
      },
      "t_uint256": {
        "encoding": "inplace",
        "label": "uint256",
        "numberOfBytes": "32"
      },
      "t_uint8": {
        "encoding": "inplace",
        "label": "uint8",
        "numberOfBytes": "1"
      }
    }
  }
}