{
  "address": "0x0eFa0aD6D72088D903f2c8296E6eD9c364006176",
  "abi": [
    {
      "inputs": [],
      "stateMutability": "nonpayable",
      "type": "constructor"
    },
    {
      "inputs": [
        {
          "internalType": "address",
          "name": "admin",
          "type": "address"
        }
      ],
      "name": "ErrAdminOfAnyActivePoolForbidden",
      "type": "error"
    },
    {
      "inputs": [
        {
          "internalType": "address",
          "name": "addr",
          "type": "address"
        },
        {
          "internalType": "string",
          "name": "extraInfo",
          "type": "string"
        }
      ],
      "name": "ErrCannotInitTransferRON",
      "type": "error"
    },
    {
      "inputs": [],
      "name": "ErrCannotTransferRON",
      "type": "error"
    },
    {
      "inputs": [
        {
          "internalType": "enum ContractType",
          "name": "contractType",
          "type": "uint8"
        }
      ],
      "name": "ErrContractTypeNotFound",
      "type": "error"
    },
    {
      "inputs": [
        {
          "internalType": "bytes4",
          "name": "msgSig",
          "type": "bytes4"
        }
      ],
      "name": "ErrDuplicated",
      "type": "error"
    },
    {
      "inputs": [
        {
          "internalType": "address",
          "name": "poolAddr",
          "type": "address"
        }
      ],
      "name": "ErrInactivePool",
      "type": "error"
    },
    {
      "inputs": [
        {
          "internalType": "bytes4",
          "name": "msgSig",
          "type": "bytes4"
        },
        {
          "internalType": "uint256",
          "name": "currentBalance",
          "type": "uint256"
        },
        {
          "internalType": "uint256",
          "name": "sendAmount",
          "type": "uint256"
        }
      ],
      "name": "ErrInsufficientBalance",
      "type": "error"
    },
    {
      "inputs": [],
      "name": "ErrInsufficientDelegatingAmount",
      "type": "error"
    },
    {
      "inputs": [],
      "name": "ErrInsufficientStakingAmount",
      "type": "error"
    },
    {
      "inputs": [],
      "name": "ErrInvalidArrays",
      "type": "error"
    },
    {
      "inputs": [],
      "name": "ErrInvalidCommissionRate",
      "type": "error"
    },
    {
      "inputs": [],
      "name": "ErrInvalidPoolShare",
      "type": "error"
    },
    {
      "inputs": [],
      "name": "ErrOnlyPoolAdminAllowed",
      "type": "error"
    },
    {
      "inputs": [],
      "name": "ErrPoolAdminForbidden",
      "type": "error"
    },
    {
      "inputs": [
        {
          "internalType": "bytes4",
          "name": "msgSig",
          "type": "bytes4"
        }
      ],
      "name": "ErrRecipientRevert",
      "type": "error"
    },
    {
      "inputs": [],
      "name": "ErrStakingAmountLeft",
      "type": "error"
    },
    {
      "inputs": [],
      "name": "ErrThreeInteractionAddrsNotEqual",
      "type": "error"
    },
    {
      "inputs": [
        {
          "internalType": "bytes4",
          "name": "msgSig",
          "type": "bytes4"
        },
        {
          "internalType": "enum RoleAccess",
          "name": "expectedRole",
          "type": "uint8"
        }
      ],
      "name": "ErrUnauthorized",
      "type": "error"
    },
    {
      "inputs": [],
      "name": "ErrUndelegateTooEarly",
      "type": "error"
    },
    {
      "inputs": [],
      "name": "ErrUndelegateZeroAmount",
      "type": "error"
    },
    {
      "inputs": [
        {
          "internalType": "bytes4",
          "name": "msgSig",
          "type": "bytes4"
        },
        {
          "internalType": "enum ContractType",
          "name": "expectedContractType",
          "type": "uint8"
        },
        {
          "internalType": "address",
          "name": "actual",
          "type": "address"
        }
      ],
      "name": "ErrUnexpectedInternalCall",
      "type": "error"
    },
    {
      "inputs": [],
      "name": "ErrUnstakeTooEarly",
      "type": "error"
    },
    {
      "inputs": [],
      "name": "ErrUnstakeZeroAmount",
      "type": "error"
    },
    {
      "inputs": [
        {
          "internalType": "address",
          "name": "addr",
          "type": "address"
        }
      ],
      "name": "ErrZeroCodeContract",
      "type": "error"
    },
    {
      "inputs": [],
      "name": "ErrZeroValue",
      "type": "error"
    },
    {
      "anonymous": false,
      "inputs": [
        {
          "indexed": false,
          "internalType": "uint256",
          "name": "minRate",
          "type": "uint256"
        },
        {
          "indexed": false,
          "internalType": "uint256",
          "name": "maxRate",
          "type": "uint256"
        }
      ],
      "name": "CommissionRateRangeUpdated",
      "type": "event"
    },
    {
      "anonymous": false,
      "inputs": [
        {
          "indexed": true,
          "internalType": "enum ContractType",
          "name": "contractType",
          "type": "uint8"
        },
        {
          "indexed": true,
          "internalType": "address",
          "name": "addr",
          "type": "address"
        }
      ],
      "name": "ContractUpdated",
      "type": "event"
    },
    {
      "anonymous": false,
      "inputs": [
        {
          "indexed": false,
          "internalType": "uint256",
          "name": "minSecs",
          "type": "uint256"
        }
      ],
      "name": "CooldownSecsToUndelegateUpdated",
      "type": "event"
    },
    {
      "anonymous": false,
      "inputs": [
        {
          "indexed": true,
          "internalType": "address",
          "name": "delegator",
          "type": "address"
        },
        {
          "indexed": true,
          "internalType": "address",
          "name": "consensuAddr",
          "type": "address"
        },
        {
          "indexed": false,
          "internalType": "uint256",
          "name": "amount",
          "type": "uint256"
        }
      ],
      "name": "Delegated",
      "type": "event"
    },
    {
      "anonymous": false,
      "inputs": [
        {
          "indexed": false,
          "internalType": "uint8",
          "name": "version",
          "type": "uint8"
        }
      ],
      "name": "Initialized",
      "type": "event"
    },
    {
      "anonymous": false,
      "inputs": [
        {
          "indexed": false,
          "internalType": "uint256",
          "name": "threshold",
          "type": "uint256"
        }
      ],
      "name": "MinValidatorStakingAmountUpdated",
      "type": "event"
    },
    {
      "anonymous": false,
      "inputs": [
        {
          "indexed": true,
          "internalType": "address",
          "name": "validator",
          "type": "address"
        },
        {
          "indexed": true,
          "internalType": "address",
          "name": "admin",
          "type": "address"
        }
      ],
      "name": "PoolApproved",
      "type": "event"
    },
    {
      "anonymous": false,
      "inputs": [
        {
          "indexed": true,
          "internalType": "uint256",
          "name": "period",
          "type": "uint256"
        },
        {
          "indexed": true,
          "internalType": "address",
          "name": "poolAddr",
          "type": "address"
        },
        {
          "indexed": false,
          "internalType": "uint256",
          "name": "shares",
          "type": "uint256"
        }
      ],
      "name": "PoolSharesUpdated",
      "type": "event"
    },
    {
      "anonymous": false,
      "inputs": [
        {
          "indexed": false,
          "internalType": "address[]",
          "name": "validator",
          "type": "address[]"
        }
      ],
      "name": "PoolsDeprecated",
      "type": "event"
    },
    {
      "anonymous": false,
      "inputs": [
        {
          "indexed": true,
          "internalType": "uint256",
          "name": "period",
          "type": "uint256"
        },
        {
          "indexed": false,
          "internalType": "address[]",
          "name": "poolAddrs",
          "type": "address[]"
        }
      ],
      "name": "PoolsUpdateConflicted",
      "type": "event"
    },
    {
      "anonymous": false,
      "inputs": [
        {
          "indexed": true,
          "internalType": "uint256",
          "name": "period",
          "type": "uint256"
        },
        {
          "indexed": false,
          "internalType": "address[]",
          "name": "poolAddrs",
          "type": "address[]"
        },
        {
          "indexed": false,
          "internalType": "uint256[]",
          "name": "rewards",
          "type": "uint256[]"
        }
      ],
      "name": "PoolsUpdateFailed",
      "type": "event"
    },
    {
      "anonymous": false,
      "inputs": [
        {
          "indexed": true,
          "internalType": "uint256",
          "name": "period",
          "type": "uint256"
        },
        {
          "indexed": false,
          "internalType": "address[]",
          "name": "poolAddrs",
          "type": "address[]"
        },
        {
          "indexed": false,
          "internalType": "uint256[]",
          "name": "aRps",
          "type": "uint256[]"
        },
        {
          "indexed": false,
          "internalType": "uint256[]",
          "name": "shares",
          "type": "uint256[]"
        }
      ],
      "name": "PoolsUpdated",
      "type": "event"
    },
    {
      "anonymous": false,
      "inputs": [
        {
          "indexed": true,
          "internalType": "address",
          "name": "poolAddr",
          "type": "address"
        },
        {
          "indexed": true,
          "internalType": "address",
          "name": "user",
          "type": "address"
        },
        {
          "indexed": false,
          "internalType": "uint256",
          "name": "amount",
          "type": "uint256"
        }
      ],
      "name": "RewardClaimed",
      "type": "event"
    },
    {
      "anonymous": false,
      "inputs": [
        {
          "indexed": true,
          "internalType": "address",
          "name": "consensuAddr",
          "type": "address"
        },
        {
          "indexed": false,
          "internalType": "uint256",
          "name": "amount",
          "type": "uint256"
        }
      ],
      "name": "Staked",
      "type": "event"
    },
    {
      "anonymous": false,
      "inputs": [
        {
          "indexed": true,
          "internalType": "address",
          "name": "validator",
          "type": "address"
        },
        {
          "indexed": true,
          "internalType": "address",
          "name": "recipient",
          "type": "address"
        },
        {
          "indexed": false,
          "internalType": "uint256",
          "name": "amount",
          "type": "uint256"
        },
        {
          "indexed": false,
          "internalType": "uint256",
          "name": "contractBalance",
          "type": "uint256"
        }
      ],
      "name": "StakingAmountDeductFailed",
      "type": "event"
    },
    {
      "anonymous": false,
      "inputs": [
        {
          "indexed": true,
          "internalType": "address",
          "name": "validator",
          "type": "address"
        },
        {
          "indexed": true,
          "internalType": "address",
          "name": "admin",
          "type": "address"
        },
        {
          "indexed": false,
          "internalType": "uint256",
          "name": "amount",
          "type": "uint256"
        },
        {
          "indexed": false,
          "internalType": "uint256",
          "name": "contractBalance",
          "type": "uint256"
        }
      ],
      "name": "StakingAmountTransferFailed",
      "type": "event"
    },
    {
      "anonymous": false,
      "inputs": [
        {
          "indexed": true,
          "internalType": "address",
          "name": "delegator",
          "type": "address"
        },
        {
          "indexed": true,
          "internalType": "address",
          "name": "consensuAddr",
          "type": "address"
        },
        {
          "indexed": false,
          "internalType": "uint256",
          "name": "amount",
          "type": "uint256"
        }
      ],
      "name": "Undelegated",
      "type": "event"
    },
    {
      "anonymous": false,
      "inputs": [
        {
          "indexed": true,
          "internalType": "address",
          "name": "consensuAddr",
          "type": "address"
        },
        {
          "indexed": false,
          "internalType": "uint256",
          "name": "amount",
          "type": "uint256"
        }
      ],
      "name": "Unstaked",
      "type": "event"
    },
    {
      "anonymous": false,
      "inputs": [
        {
          "indexed": true,
          "internalType": "address",
          "name": "poolAddr",
          "type": "address"
        },
        {
          "indexed": true,
          "internalType": "address",
          "name": "user",
          "type": "address"
        },
        {
          "indexed": false,
          "internalType": "uint256",
          "name": "debited",
          "type": "uint256"
        }
      ],
      "name": "UserRewardUpdated",
      "type": "event"
    },
    {
      "anonymous": false,
      "inputs": [
        {
          "indexed": false,
          "internalType": "uint256",
          "name": "secs",
          "type": "uint256"
        }
      ],
      "name": "WaitingSecsToRevokeUpdated",
      "type": "event"
    },
    {
      "stateMutability": "payable",
      "type": "fallback"
    },
    {
      "inputs": [],
      "name": "DEFAULT_ADDITION_GAS",
      "outputs": [
        {
          "internalType": "uint256",
          "name": "",
          "type": "uint256"
        }
      ],
      "stateMutability": "view",
      "type": "function"
    },
    {
      "inputs": [],
      "name": "PERIOD_DURATION",
      "outputs": [
        {
          "internalType": "uint256",
          "name": "",
          "type": "uint256"
        }
      ],
      "stateMutability": "view",
      "type": "function"
    },
    {
      "inputs": [
        {
          "internalType": "address",
          "name": "_candidateAdmin",
          "type": "address"
        },
        {
          "internalType": "address",
          "name": "_consensusAddr",
          "type": "address"
        },
        {
          "internalType": "address payable",
          "name": "_treasuryAddr",
          "type": "address"
        },
        {
          "internalType": "address",
          "name": "_bridgeOperatorAddr",
          "type": "address"
        },
        {
          "internalType": "uint256",
          "name": "_commissionRate",
          "type": "uint256"
        }
      ],
      "name": "applyValidatorCandidate",
      "outputs": [],
      "stateMutability": "payable",
      "type": "function"
    },
    {
      "inputs": [
        {
          "internalType": "address[]",
          "name": "_consensusAddrs",
          "type": "address[]"
        },
        {
          "internalType": "uint256[]",
          "name": "_amounts",
          "type": "uint256[]"
        }
      ],
      "name": "bulkUndelegate",
      "outputs": [],
      "stateMutability": "nonpayable",
      "type": "function"
    },
    {
      "inputs": [
        {
          "internalType": "address[]",
          "name": "_consensusAddrList",
          "type": "address[]"
        }
      ],
      "name": "claimRewards",
      "outputs": [
        {
          "internalType": "uint256",
          "name": "_amount",
          "type": "uint256"
        }
      ],
      "stateMutability": "nonpayable",
      "type": "function"
    },
    {
      "inputs": [],
      "name": "cooldownSecsToUndelegate",
      "outputs": [
        {
          "internalType": "uint256",
          "name": "",
          "type": "uint256"
        }
      ],
      "stateMutability": "view",
      "type": "function"
    },
    {
      "inputs": [
        {
          "internalType": "address",
          "name": "_consensusAddr",
          "type": "address"
        }
      ],
      "name": "delegate",
      "outputs": [],
      "stateMutability": "payable",
      "type": "function"
    },
    {
      "inputs": [
        {
          "internalType": "address[]",
          "name": "_consensusAddrList",
          "type": "address[]"
        },
        {
          "internalType": "address",
          "name": "_consensusAddrDst",
          "type": "address"
        }
      ],
      "name": "delegateRewards",
      "outputs": [
        {
          "internalType": "uint256",
          "name": "_amount",
          "type": "uint256"
        }
      ],
      "stateMutability": "nonpayable",
      "type": "function"
    },
    {
      "inputs": [
        {
          "internalType": "address",
          "name": "_consensusAddr",
          "type": "address"
        },
        {
          "internalType": "uint256",
          "name": "_amount",
          "type": "uint256"
        }
      ],
      "name": "execDeductStakingAmount",
      "outputs": [
        {
          "internalType": "uint256",
          "name": "_actualDeductingAmount",
          "type": "uint256"
        }
      ],
      "stateMutability": "nonpayable",
      "type": "function"
    },
    {
      "inputs": [
        {
          "internalType": "address[]",
          "name": "_pools",
          "type": "address[]"
        },
        {
          "internalType": "uint256",
          "name": "_newPeriod",
          "type": "uint256"
        }
      ],
      "name": "execDeprecatePools",
      "outputs": [],
      "stateMutability": "nonpayable",
      "type": "function"
    },
    {
      "inputs": [
        {
          "internalType": "address[]",
          "name": "_consensusAddrs",
          "type": "address[]"
        },
        {
          "internalType": "uint256[]",
          "name": "_rewards",
          "type": "uint256[]"
        },
        {
          "internalType": "uint256",
          "name": "_period",
          "type": "uint256"
        }
      ],
      "name": "execRecordRewards",
      "outputs": [],
      "stateMutability": "payable",
      "type": "function"
    },
    {
      "inputs": [],
      "name": "getCommissionRateRange",
      "outputs": [
        {
          "internalType": "uint256",
          "name": "",
          "type": "uint256"
        },
        {
          "internalType": "uint256",
          "name": "",
          "type": "uint256"
        }
      ],
      "stateMutability": "view",
      "type": "function"
    },
    {
      "inputs": [
        {
          "internalType": "enum ContractType",
          "name": "contractType",
          "type": "uint8"
        }
      ],
      "name": "getContract",
      "outputs": [
        {
          "internalType": "address",
          "name": "contract_",
          "type": "address"
        }
      ],
      "stateMutability": "view",
      "type": "function"
    },
    {
      "inputs": [
        {
          "internalType": "address[]",
          "name": "_pools",
          "type": "address[]"
        }
      ],
      "name": "getManySelfStakings",
      "outputs": [
        {
          "internalType": "uint256[]",
          "name": "_selfStakings",
          "type": "uint256[]"
        }
      ],
      "stateMutability": "view",
      "type": "function"
    },
    {
      "inputs": [
        {
          "internalType": "address[]",
          "name": "_poolAddrs",
          "type": "address[]"
        },
        {
          "internalType": "address[]",
          "name": "_userList",
          "type": "address[]"
        }
      ],
      "name": "getManyStakingAmounts",
      "outputs": [
        {
          "internalType": "uint256[]",
          "name": "_stakingAmounts",
          "type": "uint256[]"
        }
      ],
      "stateMutability": "view",
      "type": "function"
    },
    {
      "inputs": [
        {
          "internalType": "address[]",
          "name": "_poolList",
          "type": "address[]"
        }
      ],
      "name": "getManyStakingTotals",
      "outputs": [
        {
          "internalType": "uint256[]",
          "name": "_stakingAmounts",
          "type": "uint256[]"
        }
      ],
      "stateMutability": "view",
      "type": "function"
    },
    {
      "inputs": [
        {
          "internalType": "address",
          "name": "_poolAdminAddr",
          "type": "address"
        }
      ],
      "name": "getPoolAddressOf",
      "outputs": [
        {
          "internalType": "address",
          "name": "",
          "type": "address"
        }
      ],
      "stateMutability": "view",
      "type": "function"
    },
    {
      "inputs": [
        {
          "internalType": "address",
          "name": "_poolAddr",
          "type": "address"
        }
      ],
      "name": "getPoolDetail",
      "outputs": [
        {
          "internalType": "address",
          "name": "_admin",
          "type": "address"
        },
        {
          "internalType": "uint256",
          "name": "_stakingAmount",
          "type": "uint256"
        },
        {
          "internalType": "uint256",
          "name": "_stakingTotal",
          "type": "uint256"
        }
      ],
      "stateMutability": "view",
      "type": "function"
    },
    {
      "inputs": [
        {
          "internalType": "address",
          "name": "_poolAddr",
          "type": "address"
        },
        {
          "internalType": "address",
          "name": "_user",
          "type": "address"
        }
      ],
      "name": "getReward",
      "outputs": [
        {
          "internalType": "uint256",
          "name": "",
          "type": "uint256"
        }
      ],
      "stateMutability": "view",
      "type": "function"
    },
    {
      "inputs": [
        {
          "internalType": "address",
          "name": "_user",
          "type": "address"
        },
        {
          "internalType": "address[]",
          "name": "_poolAddrList",
          "type": "address[]"
        }
      ],
      "name": "getRewards",
      "outputs": [
        {
          "internalType": "uint256[]",
          "name": "_rewards",
          "type": "uint256[]"
        }
      ],
      "stateMutability": "view",
      "type": "function"
    },
    {
      "inputs": [
        {
          "internalType": "address",
          "name": "_poolAddr",
          "type": "address"
        },
        {
          "internalType": "address",
          "name": "_user",
          "type": "address"
        }
      ],
      "name": "getStakingAmount",
      "outputs": [
        {
          "internalType": "uint256",
          "name": "",
          "type": "uint256"
        }
      ],
      "stateMutability": "view",
      "type": "function"
    },
    {
      "inputs": [
        {
          "internalType": "address",
          "name": "_poolAddr",
          "type": "address"
        }
      ],
      "name": "getStakingTotal",
      "outputs": [
        {
          "internalType": "uint256",
          "name": "",
          "type": "uint256"
        }
      ],
      "stateMutability": "view",
      "type": "function"
    },
    {
      "inputs": [
        {
          "internalType": "address",
          "name": "__validatorContract",
          "type": "address"
        },
        {
          "internalType": "uint256",
          "name": "__minValidatorStakingAmount",
          "type": "uint256"
        },
        {
          "internalType": "uint256",
          "name": "__maxCommissionRate",
          "type": "uint256"
        },
        {
          "internalType": "uint256",
          "name": "__cooldownSecsToUndelegate",
          "type": "uint256"
        },
        {
          "internalType": "uint256",
          "name": "__waitingSecsToRevoke",
          "type": "uint256"
        }
      ],
      "name": "initialize",
      "outputs": [],
      "stateMutability": "nonpayable",
      "type": "function"
    },
    {
      "inputs": [],
      "name": "initializeV2",
      "outputs": [],
      "stateMutability": "nonpayable",
      "type": "function"
    },
    {
      "inputs": [
        {
          "internalType": "address",
          "name": "_poolAdminAddr",
          "type": "address"
        }
      ],
      "name": "isAdminOfActivePool",
      "outputs": [
        {
          "internalType": "bool",
          "name": "",
          "type": "bool"
        }
      ],
      "stateMutability": "view",
      "type": "function"
    },
    {
      "inputs": [],
      "name": "minValidatorStakingAmount",
      "outputs": [
        {
          "internalType": "uint256",
          "name": "",
          "type": "uint256"
        }
      ],
      "stateMutability": "view",
      "type": "function"
    },
    {
      "inputs": [
        {
          "internalType": "address",
          "name": "_consensusAddrSrc",
          "type": "address"
        },
        {
          "internalType": "address",
          "name": "_consensusAddrDst",
          "type": "address"
        },
        {
          "internalType": "uint256",
          "name": "_amount",
          "type": "uint256"
        }
      ],
      "name": "redelegate",
      "outputs": [],
      "stateMutability": "nonpayable",
      "type": "function"
    },
    {
      "inputs": [
        {
          "internalType": "address",
          "name": "_consensusAddr",
          "type": "address"
        }
      ],
      "name": "requestEmergencyExit",
      "outputs": [],
      "stateMutability": "nonpayable",
      "type": "function"
    },
    {
      "inputs": [
        {
          "internalType": "address",
          "name": "_consensusAddr",
          "type": "address"
        }
      ],
      "name": "requestRenounce",
      "outputs": [],
      "stateMutability": "nonpayable",
      "type": "function"
    },
    {
      "inputs": [
        {
          "internalType": "address",
          "name": "_consensusAddr",
          "type": "address"
        },
        {
          "internalType": "uint256",
          "name": "_effectiveDaysOnwards",
          "type": "uint256"
        },
        {
          "internalType": "uint256",
          "name": "_commissionRate",
          "type": "uint256"
        }
      ],
      "name": "requestUpdateCommissionRate",
      "outputs": [],
      "stateMutability": "nonpayable",
      "type": "function"
    },
    {
      "inputs": [
        {
          "internalType": "uint256",
          "name": "_minRate",
          "type": "uint256"
        },
        {
          "internalType": "uint256",
          "name": "_maxRate",
          "type": "uint256"
        }
      ],
      "name": "setCommissionRateRange",
      "outputs": [],
      "stateMutability": "nonpayable",
      "type": "function"
    },
    {
      "inputs": [
        {
          "internalType": "enum ContractType",
          "name": "contractType",
          "type": "uint8"
        },
        {
          "internalType": "address",
          "name": "addr",
          "type": "address"
        }
      ],
      "name": "setContract",
      "outputs": [],
      "stateMutability": "nonpayable",
      "type": "function"
    },
    {
      "inputs": [
        {
          "internalType": "uint256",
          "name": "_cooldownSecs",
          "type": "uint256"
        }
      ],
      "name": "setCooldownSecsToUndelegate",
      "outputs": [],
      "stateMutability": "nonpayable",
      "type": "function"
    },
    {
      "inputs": [
        {
          "internalType": "uint256",
          "name": "_threshold",
          "type": "uint256"
        }
      ],
      "name": "setMinValidatorStakingAmount",
      "outputs": [],
      "stateMutability": "nonpayable",
      "type": "function"
    },
    {
      "inputs": [
        {
          "internalType": "uint256",
          "name": "_secs",
          "type": "uint256"
        }
      ],
      "name": "setWaitingSecsToRevoke",
      "outputs": [],
      "stateMutability": "nonpayable",
      "type": "function"
    },
    {
      "inputs": [
        {
          "internalType": "address",
          "name": "_consensusAddr",
          "type": "address"
        }
      ],
      "name": "stake",
      "outputs": [],
      "stateMutability": "payable",
      "type": "function"
    },
    {
      "inputs": [
        {
          "internalType": "address",
          "name": "_consensusAddr",
          "type": "address"
        },
        {
          "internalType": "uint256",
          "name": "_amount",
          "type": "uint256"
        }
      ],
      "name": "undelegate",
      "outputs": [],
      "stateMutability": "nonpayable",
      "type": "function"
    },
    {
      "inputs": [
        {
          "internalType": "address",
          "name": "_consensusAddr",
          "type": "address"
        },
        {
          "internalType": "uint256",
          "name": "_amount",
          "type": "uint256"
        }
      ],
      "name": "unstake",
      "outputs": [],
      "stateMutability": "nonpayable",
      "type": "function"
    },
    {
      "inputs": [],
      "name": "waitingSecsToRevoke",
      "outputs": [
        {
          "internalType": "uint256",
          "name": "",
          "type": "uint256"
        }
      ],
      "stateMutability": "view",
      "type": "function"
    },
    {
      "stateMutability": "payable",
      "type": "receive"
    }
  ],
  "transactionHash": "0x1fb7a10773437191ffff5dbda68a56fdb492b1bb1348931eae75eaf89924e729",
  "args": [],
  "numDeployments": 11,
  "solcInputHash": "6bc16cc8f779fe2f1f4f2733e87f867e",
  "bytecode": "0x60806040523480156200001157600080fd5b5060016000556200002162000027565b620000e9565b60d154610100900460ff1615620000945760405162461bcd60e51b815260206004820152602760248201527f496e697469616c697a61626c653a20636f6e747261637420697320696e697469604482015266616c697a696e6760c81b606482015260840160405180910390fd5b60d15460ff9081161015620000e75760d1805460ff191660ff9081179091556040519081527f7f26b83ff96e1f2b6a682f133852f6798a09c465da95921460cefb38474024989060200160405180910390a15b565b61391080620000f96000396000f3fe6080604052600436106102345760003560e01c806376664b651161012e578063acd79c46116100ab578063de981f1b1161006f578063de981f1b14610719578063e22d1c9d14610739578063e5376f5414610759578063f92ad2191461076c578063f9f031df1461078c57610246565b8063acd79c461461060f578063af24542914610622578063c2a672e014610637578063c508700314610657578063d01b8eed146106a857610246565b806391f8723f116100f257806391f8723f1461056f578063924f081e1461058f5780639488e4e9146105af578063969ffc14146105cf578063aa15a6fd146105ef57610246565b806376664b65146104c1578063865e6fd3146104e1578063888b9ae914610501578063895ab74214610521578063909791dd1461055a57610246565b806342ef3c34116101bc5780635cd8a76b116101805780635cd8a76b146104355780636558954f1461044a578063679a6e43146104615780636b091695146104815780636bd8f804146104a157610246565b806342ef3c341461039a5780634530d202146103ba5780634d99dd16146103e257806357473447146104025780635c19a95c1461042257610246565b80631658c86e116102035780631658c86e146102dc57806326476204146102fc5780632715805e1461030f5780633d8e846e1461032f57806342e0c4081461034f57610246565b806303827884146102515780630682e8fa1461027a578063095f64751461028f578063097e4a9d146102bc57610246565b36610246576008610244816107ac565b005b6008610244816107ac565b34801561025d57600080fd5b506102676104b081565b6040519081526020015b60405180910390f35b34801561028657600080fd5b50603854610267565b34801561029b57600080fd5b506102af6102aa366004613070565b610804565b6040516102719190613116565b3480156102c857600080fd5b506102676102d736600461313e565b61093c565b3480156102e857600080fd5b506102446102f7366004613194565b6109c2565b61024461030a366004613194565b610a66565b34801561031b57600080fd5b5061026761032a3660046131b8565b610a9f565b34801561033b57600080fd5b506102af61034a3660046131e4565b610b30565b34801561035b57600080fd5b5061038a61036a366004613194565b6001600160a01b039081166000908152603a602052604090205416151590565b6040519015158152602001610271565b3480156103a657600080fd5b506102af6103b5366004613238565b610c5e565b3480156103c657600080fd5b50606e54606d5460408051928352602083019190915201610271565b3480156103ee57600080fd5b506102446103fd3660046131b8565b610d2a565b34801561040e57600080fd5b5061024461041d366004613279565b610da6565b610244610430366004613194565b610db8565b34801561044157600080fd5b50610244610e26565b34801561045657600080fd5b506102676201518081565b34801561046d57600080fd5b5061024461047c36600461329b565b610ee5565b34801561048d57600080fd5b5061026761049c3660046132b4565b610ef6565b3480156104ad57600080fd5b506102446104bc3660046132ed565b610f18565b3480156104cd57600080fd5b506102676104dc3660046132b4565b610f9d565b3480156104ed57600080fd5b506102446104fc36600461333d565b610fcc565b34801561050d57600080fd5b5061024461051c36600461329b565b610fe7565b34801561052d57600080fd5b5061026761053c366004613194565b6001600160a01b031660009081526037602052604090206003015490565b34801561056657600080fd5b50606c54610267565b34801561057b57600080fd5b506102af61058a366004613238565b610ff8565b34801561059b57600080fd5b506102446105aa366004613359565b611098565b3480156105bb57600080fd5b506102446105ca366004613070565b611171565b3480156105db57600080fd5b506102446105ea36600461329b565b6112a0565b3480156105fb57600080fd5b5061024461060a366004613194565b6112b1565b61024461061d36600461338e565b611321565b34801561062e57600080fd5b50603954610267565b34801561064357600080fd5b506102446106523660046131b8565b611375565b34801561066357600080fd5b50610690610672366004613194565b6001600160a01b039081166000908152603a60205260409020541690565b6040516001600160a01b039091168152602001610271565b3480156106b457600080fd5b506106f46106c3366004613194565b6001600160a01b03808216600090815260376020526040902060018101546002820154600390920154921693909250565b604080516001600160a01b039094168452602084019290925290820152606001610271565b34801561072557600080fd5b50610690610734366004613401565b61142f565b34801561074557600080fd5b5061024461075436600461341c565b6114aa565b610244610767366004613467565b61166e565b34801561077857600080fd5b506102446107873660046134cb565b6117be565b34801561079857600080fd5b506102676107a7366004613238565b6118b5565b6107b58161142f565b6001600160a01b0316336001600160a01b031614610801576000356001600160e01b03191681336040516320e0f98d60e21b81526004016107f893929190613539565b60405180910390fd5b50565b6060838214610826576040516376081a7b60e11b815260040160405180910390fd5b836001600160401b0381111561083e5761083e613570565b604051908082528060200260200182016040528015610867578160200160208202803683370190505b50905060005b8151811015610933576037600087878481811061088c5761088c613586565b90506020020160208101906108a19190613194565b6001600160a01b03166001600160a01b0316815260200190815260200160002060040160008585848181106108d8576108d8613586565b90506020020160208101906108ed9190613194565b6001600160a01b03166001600160a01b031681526020019081526020016000205482828151811061092057610920613586565b602090810291909101015260010161086d565b50949350505050565b60006002600054036109605760405162461bcd60e51b81526004016107f89061359c565b60026000558161096f81611935565b336000908152603a60205260409020546001600160a01b0316156109a857604051632fc6bfb160e21b81523360048201526024016107f8565b6109b4338686866119d3565b600160005595945050505050565b806109cc81611935565b6001600160a01b0382166000908152603760205260409020336109ef8282611a40565b6109f9600861142f565b60395460405163dd716ad360e01b81526001600160a01b038781166004830152602482019290925291169063dd716ad3906044015b600060405180830381600087803b158015610a4857600080fd5b505af1158015610a5c573d6000803e3d6000fd5b5050505050505050565b610a6e611a70565b80610a7881611935565b6001600160a01b0382166000908152603760205260409020610a9b903334611a93565b5050565b60006008610aac816107ac565b6001600160a01b0384166000908152603760205260409020610ace9084611b3e565b915033610adb8184611bdb565b610b2857604080518481524760208201526001600160a01b0380841692908816917f63701cd972aa3c7f87898aab145c972e52185beab07d6e39380a998d334cf6c8910160405180910390a35b505092915050565b6060600080610b3f600861142f565b6001600160a01b031663060406186040518163ffffffff1660e01b8152600401602060405180830381865afa158015610b7c573d6000803e3d6000fd5b505050506040513d601f19601f82011682018060405250810190610ba091906135d3565b9050836001600160401b03811115610bba57610bba613570565b604051908082528060200260200182016040528015610be3578160200160208202803683370190505b50925060005b84811015610c5457858582818110610c0357610c03613586565b9050602002016020810190610c189190613194565b9250610c2f838884610c2a878c610f9d565b611c37565b848281518110610c4157610c41613586565b6020908102919091010152600101610be9565b5050509392505050565b6060816001600160401b03811115610c7857610c78613570565b604051908082528060200260200182016040528015610ca1578160200160208202803683370190505b50905060005b82811015610d235760376000858584818110610cc557610cc5613586565b9050602002016020810190610cda9190613194565b6001600160a01b03166001600160a01b0316815260200190815260200160002060020154828281518110610d1057610d10613586565b6020908102919091010152600101610ca7565b5092915050565b600260005403610d4c5760405162461bcd60e51b81526004016107f89061359c565b600260009081556001600160a01b03831681526037602052604090203390610d75908284611d33565b610d7f8183611f6b565b610d9c57604051635ff7115760e11b815260040160405180910390fd5b5050600160005550565b610dae611fb3565b610a9b828261200d565b610dc0611a70565b80610dca81611935565b336000908152603a60205260409020546001600160a01b031615610e0357604051632fc6bfb160e21b81523360048201526024016107f8565b6001600160a01b0382166000908152603760205260409020610a9b903334612081565b60d154600290610100900460ff16158015610e48575060d15460ff8083169116105b610e645760405162461bcd60e51b81526004016107f8906135ec565b60d1805461ffff191660ff831617610100179055603654610e90906008906001600160a01b0316612130565b603680546001600160a01b031916905560d1805461ff001916905560405160ff821681527f7f26b83ff96e1f2b6a682f133852f6798a09c465da95921460cefb3847402498906020015b60405180910390a150565b610eed611fb3565b610801816121d4565b6000610f0f8383610f05612209565b610c2a8787610f9d565b90505b92915050565b600260005403610f3a5760405162461bcd60e51b81526004016107f89061359c565b600260005581610f4981611935565b6001600160a01b03841660009081526037602052604090203390610f6e908285611d33565b6001600160a01b0384166000908152603760205260409020610f91908285612081565b50506001600055505050565b6001600160a01b0391821660009081526037602090815260408083209390941682526004909201909152205490565b610fd4611fb3565b610fdd8161227b565b610a9b8282612130565b610fef611fb3565b610801816122b1565b6060816001600160401b0381111561101257611012613570565b60405190808252806020026020018201604052801561103b578160200160208202803683370190505b50905060005b82811015610d235761107384848381811061105e5761105e613586565b905060200201602081019061053c9190613194565b82828151811061108557611085613586565b6020908102919091010152600101611041565b826110a281611935565b6001600160a01b0384166000908152603760205260409020336110c58282611a40565b606d548411806110d65750606e5484105b156110f457604051631b8454a360e21b815260040160405180910390fd5b6110fe600861142f565b60405163e5125a1d60e01b81526001600160a01b0388811660048301526024820188905260448201879052919091169063e5125a1d90606401600060405180830381600087803b15801561115157600080fd5b505af1158015611165573d6000803e3d6000fd5b50505050505050505050565b6002600054036111935760405162461bcd60e51b81526004016107f89061359c565b60026000558215806111a55750828114155b156111c3576040516376081a7b60e11b815260040160405180910390fd5b336000805b8581101561126b578484828181106111e2576111e2613586565b90506020020135826111f49190613650565b91506112636037600089898581811061120f5761120f613586565b90506020020160208101906112249190613194565b6001600160a01b03166001600160a01b031681526020019081526020016000208487878581811061125757611257613586565b90506020020135611d33565b6001016111c8565b506112768282611f6b565b61129357604051635ff7115760e11b815260040160405180910390fd5b5050600160005550505050565b6112a8611fb3565b610801816122e6565b806112bb81611935565b6001600160a01b0382166000908152603760205260409020336112de8282611a40565b6112e8600861142f565b60395460405163a7c2f11960e01b81526001600160a01b038781166004830152602482019290925291169063a7c2f11990604401610a2e565b600861132c816107ac565b61136d86868080602002602001604051908101604052809392919081815260200183836020028082843760009201919091525088925087915086905061231b565b505050505050565b6002600054036113975760405162461bcd60e51b81526004016107f89061359c565b6002600055816113a681611935565b816000036113c7576040516331d9f7d760e01b815260040160405180910390fd5b6001600160a01b038316600090815260376020526040812060028101543392906113f2908690613663565b9050606c548110156114175760405163ef0a995760e01b815260040160405180910390fd5b611422828487612749565b61127683866104b0612835565b60007fdea3103d22025c269050bea94c0c84688877f12fa22b7e6d2d5d78a9a49aa1cb600083600a8111156114665761146661350f565b60ff1681526020810191909152604001600020546001600160a01b03169050806114a5578160405163409140df60e11b81526004016107f89190613676565b919050565b60086114b5816107ac565b82156116685760005b8381101561162d576000603760008787858181106114de576114de613586565b90506020020160208101906114f39190613194565b6001600160a01b0390811682526020808301939093526040918201600090812060018101549092168152603a909352912080546001600160a01b0319169055600281015490915080156115ba5761154a8282611b3e565b506001820154611566906001600160a01b0316826104b0612835565b6115ba5760018201548254604080518481524760208201526001600160a01b0393841693909216917f7dc5115a5aba081f5a174f56a3d02eea582824783322a4ac03f7bd388f444194910160405180910390a35b60006115fa8888868181106115d1576115d1613586565b90506020020160208101906115e69190613194565b60018501546001600160a01b031688612895565b9050801561161f57600183015461161d906001600160a01b0316826104b0612835565b505b8360010193505050506114be565b507f4f257d3ba23679d338f1d94296086bba5724af341b7fa31aa0ff297bfcdc62d8848460405161165f929190613684565b60405180910390a15b50505050565b6002600054036116905760405162461bcd60e51b81526004016107f89061359c565b60026000908155338152603a60205260409020546001600160a01b0316156116cd57604051632fc6bfb160e21b81523360048201526024016107f8565b606d548111806116de5750606e5481105b156116fc57604051631b8454a360e21b815260040160405180910390fd5b343361170d818888888888886129a7565b6001600160a01b0380871660008181526037602081815260408084206001810180549789166001600160a01b0319988916811790915581548816871782558552603a83529084208054909616851790955592909152905261176f818385611a93565b816001600160a01b0316876001600160a01b03167ffc1f1e73948cbc47c5b7f90e5601b7daccd9ad7173218486ccc74bdd051d05e860405160405180910390a350506001600055505050505050565b60d154610100900460ff16158080156117de575060d154600160ff909116105b806117f85750303b1580156117f8575060d15460ff166001145b6118145760405162461bcd60e51b81526004016107f8906135ec565b60d1805460ff1916600117905580156118375760d1805461ff0019166101001790555b611842600887612130565b61184b856121d4565b61185660008561200d565b61185f836122b1565b611868826122e6565b801561136d5760d1805461ff0019169055604051600181527f7f26b83ff96e1f2b6a682f133852f6798a09c465da95921460cefb38474024989060200160405180910390a1505050505050565b60006002600054036118d95760405162461bcd60e51b81526004016107f89061359c565b600260008190555061191e33848480806020026020016040519081016040528093929190818152602001838360200280828437600092019190915250612c4292505050565b905061192a3382612c93565b600160005592915050565b61193f600861142f565b604051635061f96960e11b81526001600160a01b038381166004830152919091169063a0c3f2d290602401602060405180830381865afa158015611987573d6000803e3d6000fd5b505050506040513d601f19601f820116820180604052508101906119ab91906136d2565b61080157604051630fd0c64560e11b81526001600160a01b03821660048201526024016107f8565b6000611a1285858580806020026020016040519081016040528093929190818152602001838360200280828437600092019190915250612c4292505050565b6001600160a01b0383166000908152603760205260409020909150611a38908683612081565b949350505050565b60018201546001600160a01b03828116911614610a9b57604051637bc65bd760e11b815260040160405180910390fd5b34600003611a9157604051636dfcbde560e11b815260040160405180910390fd5b565b8282611a9f8282611a40565b82856002016000828254611ab39190613650565b92505081905550611ad985858760020154868960030154611ad49190613650565b612cc8565b6001600160a01b03808516600090815260058701602052604090819020429055865490519116907f9e71bc8eea02a63969f509818f2dafb9254532904319f9dbda79b67bd34a5f3d90611b2f9086815260200190565b60405180910390a25050505050565b6000611b4e836002015483612d03565b905080836002016000828254611b649190613663565b9091555050600183015460028401546003850154611b949286926001600160a01b0390911691611ad49086612d19565b82546040518281526001600160a01b03909116907f0f5bb82176feb1b5e747e28471aa92156a04d9f3ab9f45f28e2d704232b93f759060200160405180910390a292915050565b6000826001600160a01b03168260405160006040518083038185875af1925050503d8060008114611c28576040519150601f19603f3d011682016040523d82523d6000602084013e611c2d565b606091505b5090949350505050565b6001600160a01b03808516600090815260026020908152604080832093871683529290529081206003810154849003611c7257549050611a38565b6001600160a01b038616600090815260036020818152604080842060018084528286209487015486529390925283209182015483929015611cd75780546001860154909450611cc19085613663565b8560020154611cd091906136f4565b9250611cdf565b846001015493505b8154600090611cef908690613663565b611cf990896136f4565b9050670de0b6b3a7640000611d0e8286613650565b611d18919061370b565b8654611d249190613650565b9b9a5050505050505050505050565b8282611d3f8282612d33565b82600003611d6057604051637ab0c6ad60e11b815260040160405180910390fd5b6001600160a01b0384166000908152600486016020526040902054831115611d9b57604051630695534560e31b815260040160405180910390fd5b6000611da7600861142f565b8654604051635061f96960e11b81526001600160a01b03918216600482015291925082169063a0c3f2d290602401602060405180830381865afa158015611df2573d6000803e3d6000fd5b505050506040513d601f19601f82011682018060405250810190611e1691906136d2565b8015611e90575085546040516328bde1e160e01b81526001600160a01b039182166004820152908216906328bde1e19060240160e060405180830381865afa158015611e66573d6000803e3d6000fd5b505050506040513d601f19601f82011682018060405250810190611e8a9190613738565b60a00151155b8015611ec357506038546001600160a01b03861660009081526005880160205260409020544291611ec091613650565b10155b15611ee15760405163f19f52bd60e01b815260040160405180910390fd5b6001600160a01b0385166000908152600487016020526040902054611f1f9087908790611f0f908890613663565b878a60030154611ad49190613663565b85546040518581526001600160a01b03918216918716907f4d10bd049775c77bd7f255195afba5088028ecb3c7c277d393ccff7934f2f92c9060200160405180910390a3505050505050565b600081471015611fa9576040516302631c4f60e61b81526001600160e01b0319600035166004820152476024820152604481018390526064016107f8565b610f0f8383611bdb565b7fb53127684a568b3173ae13b9f8a6016e243e63b6e8ee1178d6a717850b5d6103546001600160a01b03163314611a91576000356001600160e01b0319166001604051620f948f60ea1b81526004016107f89291906137e3565b61271081118061201c57508082115b1561203a57604051631b8454a360e21b815260040160405180910390fd5b606d819055606e82905560408051838152602081018390527f677752f5bf9541b14288833909e5ec5a478103131c1ec08c4638943be5826c14910160405180910390a15050565b828261208d8282612d33565b6001600160a01b03841660009081526004860160205260409020546120cb90869086906120bb908790613650565b868960030154611ad49190613650565b6001600160a01b03808516600081815260058801602052604090819020429055875490519216917fe5541a6b6103d4fa7e021ed54fad39c66f27a76bd13d374cf6240ae6bd0bb72b906121219087815260200190565b60405180910390a35050505050565b807fdea3103d22025c269050bea94c0c84688877f12fa22b7e6d2d5d78a9a49aa1cb600084600a8111156121665761216661350f565b60ff168152602081019190915260400160002080546001600160a01b0319166001600160a01b03928316179055811682600a8111156121a7576121a761350f565b6040517f865d1c228a8ea13709cfe61f346f7ff67f1bbd4a18ff31ad3e7147350d317c5990600090a35050565b606c8190556040518181527f372bbdb8d72373b0012f84ee5a11671e5fb72b8bea902ebca93a19cb45d32be290602001610eda565b6000612215600861142f565b6001600160a01b031663060406186040518163ffffffff1660e01b8152600401602060405180830381865afa158015612252573d6000803e3d6000fd5b505050506040513d601f19601f8201168201806040525081019061227691906135d3565b905090565b806001600160a01b03163b60000361080157604051630bfc64a360e21b81526001600160a01b03821660048201526024016107f8565b60388190556040518181527f4956b65267b8f1e642284bcb5037116c69a9c78d9ca576beeae0974737a4872a90602001610eda565b60398190556040518181527f02be0b73b597f2c0f138aebee162b3b0e25d5b5a26854c15dcf79176e9a1c67890602001610eda565b8351821461236457807fae52c603227f64e4c6101dde593aa9790a16b3ac77546bd746d758511e9560a58585856040516123579392919061384a565b60405180910390a2611668565b600080600080600088516001600160401b0381111561238557612385613570565b6040519080825280602002602001820160405280156123ae578160200160208202803683370190505b509050600089516001600160401b038111156123cc576123cc613570565b6040519080825280602002602001820160405280156123f5578160200160208202803683370190505b50905060008a516001600160401b0381111561241357612413613570565b60405190808252806020026020018201604052801561243c578160200160208202803683370190505b50905060005b8b518110156126af578b818151811061245d5761245d613586565b6020908102919091018101516001600160a01b038116600090815260038084526040808320603790955290912001549097506001600160a01b03881660009081526001602081815260408084208f855290915290912001549096508a90036124fe57868389806001019a50815181106124d8576124d8613586565b60200260200101906001600160a01b031690816001600160a01b0316815250505061269d565b60028101548a111561252c57604080518082019091528681526020018a905260018101869055600281018a90555b6001810154156125765760018101548c8c8481811061254d5761254d613586565b90506020020135670de0b6b3a764000061256791906136f4565b612571919061370b565b612579565b60005b98508881600001600082825461258f9190613650565b91829055509050856125a18a85613663565b815181106125b1576125b1613586565b6020026020010181815250506040518060400160405280826000015481526020018b81525060016000896001600160a01b03166001600160a01b0316815260200190815260200160002060008c8152602001908152602001600020600082015181600001556020820151816001015590505085816001016000018190555080600101600001548489846126449190613663565b8151811061265457612654613586565b6020908102919091010152868d61266b8a85613663565b8151811061267b5761267b613586565b60200260200101906001600160a01b031690816001600160a01b031681525050505b806126a781613894565b915050612442565b5085156126f857858152858b51038b52877fee74f10cc50bf4b7e57fd36be7d46288795f3a9151dae97505b718b392ba14a3826040516126ef91906138ad565b60405180910390a25b8a511561273c57877f0e54e0485f70f0f63bc25889ddbf01ce1269ad6f07fdb2df573a0fbdb4d66f888c8585604051612733939291906138c0565b60405180910390a25b5050505050505050505050565b82826127558282611a40565b846002015483111561277a57604051630a8d7fa760e21b815260040160405180910390fd5b6038546001600160a01b038516600090815260058701602052604090205442916127a391613650565b11156127c2576040516303db082960e11b815260040160405180910390fd5b828560020160008282546127d69190613663565b925050819055506127f785858760020154868960030154611ad49190613663565b84546040518481526001600160a01b03909116907f0f5bb82176feb1b5e747e28471aa92156a04d9f3ab9f45f28e2d704232b93f7590602001611b2f565b6000836001600160a01b0316838390604051600060405180830381858888f193505050503d8060008114612885576040519150601f19603f3d011682016040523d82523d6000602084013e61288a565b606091505b509095945050505050565b6000806128a28585610f9d565b90506128b085858584611c37565b9150836001600160a01b0316856001600160a01b03167f0aa4d283470c904c551d18bb894d37e17674920f3261a7f854be501e25f421b7846040516128f791815260200190565b60405180910390a36001600160a01b038086166000818152600260209081526040808320948916835293815283822082815592825260039052919091206129419082868580612d63565b60038181018590556001600160a01b03878116600081815260209384526040808220546001870155519081529188169290917faa7c29611027fd4be148712bb54960253b7a7d5998c17769bfc424c2f5f185ad910160405180910390a350509392505050565b6129b58760006104b0612835565b612a00576040805163338f030160e01b81526001600160a01b03891660048201526024810191909152600a6044820152693837b7b61030b236b4b760b11b60648201526084016107f8565b612a0e8460006104b0612835565b612a57576040805163338f030160e01b81526001600160a01b038616600482015260248101919091526008604482015267747265617375727960c01b60648201526084016107f8565b606c54811015612a7a57604051630a8d7fa760e21b815260040160405180910390fd5b856001600160a01b0316876001600160a01b0316141580612aad5750836001600160a01b0316866001600160a01b031614155b15612acb5760405163dc1d04ff60e01b815260040160405180910390fd5b60408051600380825260808201909252600091602082016060803683370190505090508781600081518110612b0257612b02613586565b60200260200101906001600160a01b031690816001600160a01b0316815250508581600181518110612b3657612b36613586565b60200260200101906001600160a01b031690816001600160a01b0316815250508381600281518110612b6a57612b6a613586565b60200260200101906001600160a01b031690816001600160a01b031681525050612b9381612df5565b15612bbf57604051630d697db160e11b81526001600160e01b03196000351660048201526024016107f8565b50612bca600861142f565b6040516302209ca560e31b81526001600160a01b038881166004830152878116602483015286811660448301528581166064830152608482018590529190911690631104e5289060a401600060405180830381600087803b158015612c2e57600080fd5b505af115801561273c573d6000803e3d6000fd5b600080612c4d612209565b905060005b8351811015610b2857612c7f848281518110612c7057612c70613586565b60200260200101518684612895565b612c899084613650565b9250600101612c52565b612c9d8282611f6b565b610a9b576040516303b97b7760e41b81526001600160e01b03196000351660048201526024016107f8565b8354612cde906001600160a01b03168484612e94565b60038401556001600160a01b0390911660009081526004909201602052604090912055565b6000818310612d125781610f0f565b5090919050565b6000818311612d29576000610f0f565b610f0f8284613663565b60018201546001600160a01b03808316911603610a9b57604051639feb934760e01b815260040160405180910390fd5b8284600301541015612d7757600284018190555b6000612d87856002015484612d03565b90506000818660020154612d9b9190613663565b90508015612dec57600286018290556001870154811115612dcf576040516352e521bf60e11b815260040160405180910390fd5b80876001016000016000828254612de69190613663565b90915550505b50505050505050565b60008151600003612e0857506000919050565b60005b6001835103811015612e8b57600181015b8351811015612e8257838181518110612e3757612e37613586565b60200260200101516001600160a01b0316848381518110612e5a57612e5a613586565b60200260200101516001600160a01b031603612e7a575060019392505050565b600101612e1c565b50600101612e0b565b50600092915050565b6000612e9e612209565b6001600160a01b0385166000908152600360205260409020600181015460028201549293509091831115612f12576040518060400160405280612ef9886001600160a01b031660009081526037602052604090206003015490565b8152602090810185905281516001850155015160028301555b6001600160a01b038087166000908152600260209081526040808320938916835292905290812090612f448888610f9d565b90506000612f5489898885611c37565b83549091508114612fa6578083556040518181526001600160a01b0389811691908b16907faa7c29611027fd4be148712bb54960253b7a7d5998c17769bfc424c2f5f185ad9060200160405180910390a35b612fb38584888a86612d63565b845460018085019190915560038401879055850154841461301a57886001600160a01b0316867f81faf50e2aaf52eaba2ab841071efb9f6f0850a3e7d008b1336e6001d3d4963c876001016000015460405161301191815260200190565b60405180910390a35b505050505050505050565b60008083601f84011261303757600080fd5b5081356001600160401b0381111561304e57600080fd5b6020830191508360208260051b850101111561306957600080fd5b9250929050565b6000806000806040858703121561308657600080fd5b84356001600160401b038082111561309d57600080fd5b6130a988838901613025565b909650945060208701359150808211156130c257600080fd5b506130cf87828801613025565b95989497509550505050565b600081518084526020808501945080840160005b8381101561310b578151875295820195908201906001016130ef565b509495945050505050565b602081526000610f0f60208301846130db565b6001600160a01b038116811461080157600080fd5b60008060006040848603121561315357600080fd5b83356001600160401b0381111561316957600080fd5b61317586828701613025565b909450925050602084013561318981613129565b809150509250925092565b6000602082840312156131a657600080fd5b81356131b181613129565b9392505050565b600080604083850312156131cb57600080fd5b82356131d681613129565b946020939093013593505050565b6000806000604084860312156131f957600080fd5b833561320481613129565b925060208401356001600160401b0381111561321f57600080fd5b61322b86828701613025565b9497909650939450505050565b6000806020838503121561324b57600080fd5b82356001600160401b0381111561326157600080fd5b61326d85828601613025565b90969095509350505050565b6000806040838503121561328c57600080fd5b50508035926020909101359150565b6000602082840312156132ad57600080fd5b5035919050565b600080604083850312156132c757600080fd5b82356132d281613129565b915060208301356132e281613129565b809150509250929050565b60008060006060848603121561330257600080fd5b833561330d81613129565b9250602084013561331d81613129565b929592945050506040919091013590565b8035600b81106114a557600080fd5b6000806040838503121561335057600080fd5b6132d28361332e565b60008060006060848603121561336e57600080fd5b833561337981613129565b95602085013595506040909401359392505050565b6000806000806000606086880312156133a657600080fd5b85356001600160401b03808211156133bd57600080fd5b6133c989838a01613025565b909750955060208801359150808211156133e257600080fd5b506133ef88828901613025565b96999598509660400135949350505050565b60006020828403121561341357600080fd5b610f0f8261332e565b60008060006040848603121561343157600080fd5b83356001600160401b0381111561344757600080fd5b61345386828701613025565b909790965060209590950135949350505050565b600080600080600060a0868803121561347f57600080fd5b853561348a81613129565b9450602086013561349a81613129565b935060408601356134aa81613129565b925060608601356134ba81613129565b949793965091946080013592915050565b600080600080600060a086880312156134e357600080fd5b85356134ee81613129565b97602087013597506040870135966060810135965060800135945092505050565b634e487b7160e01b600052602160045260246000fd5b600b81106135355761353561350f565b9052565b6001600160e01b031984168152606081016135576020830185613525565b6001600160a01b03929092166040919091015292915050565b634e487b7160e01b600052604160045260246000fd5b634e487b7160e01b600052603260045260246000fd5b6020808252601f908201527f5265656e7472616e637947756172643a207265656e7472616e742063616c6c00604082015260600190565b6000602082840312156135e557600080fd5b5051919050565b6020808252602e908201527f496e697469616c697a61626c653a20636f6e747261637420697320616c72656160408201526d191e481a5b9a5d1a585b1a5e995960921b606082015260800190565b634e487b7160e01b600052601160045260246000fd5b80820180821115610f1257610f1261363a565b81810381811115610f1257610f1261363a565b60208101610f128284613525565b60208082528181018390526000908460408401835b868110156136c75782356136ac81613129565b6001600160a01b031682529183019190830190600101613699565b509695505050505050565b6000602082840312156136e457600080fd5b815180151581146131b157600080fd5b8082028115828204841417610f1257610f1261363a565b60008261372857634e487b7160e01b600052601260045260246000fd5b500490565b80516114a581613129565b600060e0828403121561374a57600080fd5b60405160e081018181106001600160401b038211171561377a57634e487b7160e01b600052604160045260246000fd5b6040526137868361372d565b81526137946020840161372d565b60208201526137a56040840161372d565b60408201526137b66060840161372d565b60608201526080830151608082015260a083015160a082015260c083015160c08201528091505092915050565b6001600160e01b03198316815260408101600983106138045761380461350f565b8260208301529392505050565b600081518084526020808501945080840160005b8381101561310b5781516001600160a01b031687529582019590820190600101613825565b60408152600061385d6040830186613811565b82810360208401528381526001600160fb1b0384111561387c57600080fd5b8360051b808660208401370160200195945050505050565b6000600182016138a6576138a661363a565b5060010190565b602081526000610f0f6020830184613811565b6060815260006138d36060830186613811565b82810360208401526138e581866130db565b905082810360408401526138f981856130db565b969550505050505056fea164736f6c6343000811000a",
  "devdoc": {
    "errors": {
      "ErrAdminOfAnyActivePoolForbidden(address)": [
        {
          "details": "Error of admin of any active pool cannot delegate."
        }
      ],
      "ErrCannotInitTransferRON(address,string)": [
        {
          "details": "Error of cannot transfer RON to specified target."
        }
      ],
      "ErrCannotTransferRON()": [
        {
          "details": "Error of cannot transfer RON."
        }
      ],
      "ErrContractTypeNotFound(uint8)": [
        {
          "details": "Error of invalid role."
        }
      ],
      "ErrDuplicated(bytes4)": [
        {
          "details": "Error thrown when a duplicated element is detected in an array.",
          "params": {
            "msgSig": "The function signature that invoke the error."
          }
        }
      ],
      "ErrInactivePool(address)": [
        {
          "details": "Error of querying inactive pool."
        }
      ],
      "ErrInsufficientBalance(bytes4,uint256,uint256)": [
        {
          "details": "Error of sender has insufficient balance."
        }
      ],
      "ErrInsufficientDelegatingAmount()": [
        {
          "details": "Error of undelegating insufficient amount."
        }
      ],
      "ErrInsufficientStakingAmount()": [
        {
          "details": "Error of insufficient staking amount for unstaking."
        }
      ],
      "ErrInvalidArrays()": [
        {
          "details": "Error of length of input arrays are not of the same."
        }
      ],
      "ErrInvalidCommissionRate()": [
        {
          "details": "Error of setting commission rate exceeds max allowed."
        }
      ],
      "ErrInvalidPoolShare()": [
        {
          "details": "Error of invalid pool share."
        }
      ],
      "ErrOnlyPoolAdminAllowed()": [
        {
          "details": "Error of no one is allowed to call but the pool's admin."
        }
      ],
      "ErrPoolAdminForbidden()": [
        {
          "details": "Error of pool admin is not allowed to call."
        }
      ],
      "ErrRecipientRevert(bytes4)": [
        {
          "details": "Error of recipient not accepting RON when transfer RON."
        }
      ],
      "ErrStakingAmountLeft()": [
        {
          "details": "Error of invalid staking amount left after deducted."
        }
      ],
      "ErrThreeInteractionAddrsNotEqual()": [
        {
          "details": "Error of three interaction addresses must be of the same in applying for validator candidate."
        }
      ],
      "ErrUnauthorized(bytes4,uint8)": [
        {
          "details": "Error indicating that the caller is unauthorized to perform a specific function.",
          "params": {
            "expectedRole": "The role required to perform the function.",
            "msgSig": "The function signature (bytes4) that the caller is unauthorized to perform."
          }
        }
      ],
      "ErrUndelegateTooEarly()": [
        {
          "details": "Error of undelegating too early."
        }
      ],
      "ErrUndelegateZeroAmount()": [
        {
          "details": "Error of undelegating zero amount."
        }
      ],
      "ErrUnexpectedInternalCall(bytes4,uint8,address)": [
        {
          "details": "Error indicating that the caller is unauthorized to perform a specific function.",
          "params": {
            "actual": "The actual address that called to the function.",
            "expectedContractType": "The contract type required to perform the function.",
            "msgSig": "The function signature (bytes4)."
          }
        }
      ],
      "ErrUnstakeTooEarly()": [
        {
          "details": "Error of unstaking too early."
        }
      ],
      "ErrUnstakeZeroAmount()": [
        {
          "details": "Error of unstaking zero amount."
        }
      ],
      "ErrZeroCodeContract(address)": [
        {
          "details": "Error of set to non-contract."
        }
      ],
      "ErrZeroValue()": [
        {
          "details": "Error of receiving zero message value."
        }
      ]
    },
    "kind": "dev",
    "methods": {
      "applyValidatorCandidate(address,address,address,address,uint256)": {
        "details": "Proposes a candidate to become a validator. Requirements: - The method caller is able to receive RON. - The treasury is able to receive RON. - The amount is larger than or equal to the minimum validator staking amount `minValidatorStakingAmount()`. Emits the event `PoolApproved`.",
        "params": {
          "_candidateAdmin": "the candidate admin will be stored in the validator contract, used for calling function that affects to its candidate, e.g. scheduling maintenance."
        }
      },
      "bulkUndelegate(address[],uint256[])": {
        "details": "Bulk unstakes from a list of candidates. Requirements: - The method caller is not the pool admin. Emits the events `Undelegated`."
      },
      "claimRewards(address[])": {
        "details": "Claims the reward of method caller. Emits the `RewardClaimed` event."
      },
      "cooldownSecsToUndelegate()": {
        "details": "Returns The cooldown time in seconds to undelegate from the last timestamp (s)he delegated."
      },
      "delegate(address)": {
        "details": "Stakes for a validator candidate `_consensusAddr`. Requirements: - The consensus address is a validator candidate. - The method caller is not the pool admin. Emits the `Delegated` event."
      },
      "delegateRewards(address[],address)": {
        "details": "Claims the rewards and delegates them to the consensus address. Requirements: - The method caller is not the pool admin. - The consensus address `_consensusAddrDst` is a validator candidate. Emits the `RewardClaimed` event and the `Delegated` event."
      },
      "execDeductStakingAmount(address,uint256)": {
        "details": "Deducts from staking amount of the validator `_consensusAddr` for `_amount`. Requirements: - The method caller must be validator contract. Emits the event `Unstaked`."
      },
      "execDeprecatePools(address[],uint256)": {
        "details": "Deprecates the pool. - Deduct self-staking amount of the pool admin to zero. - Transfer the deducted amount to the pool admin. - Deactivate the pool admin address in the mapping of active pool admins Requirements: - The method caller is validator contract. Emits the event `PoolsDeprecated` and `Unstaked` events. Emits the event `StakingAmountTransferFailed` if the contract cannot transfer RON back to the pool admin."
      },
      "execRecordRewards(address[],uint256[],uint256)": {
        "details": "Records the amount of rewards `_rewards` for the pools `_consensusAddrs`. Requirements: - The method caller must be validator contract. Emits the event `PoolsUpdated` once the contract recorded the rewards successfully. Emits the event `PoolsUpdateFailed` once the input array lengths are not equal. Emits the event `PoolsUpdateConflicted` when there are some pools which already updated in the period. Note: This method should be called once at the period ending."
      },
      "getCommissionRateRange()": {
        "details": "Returns the commission rate range that the candidate can set."
      },
      "getContract(uint8)": {
        "details": "Returns the address of a contract with a specific role. Throws an error if no contract is set for the specified role.",
        "params": {
          "contractType": "The role of the contract to retrieve."
        },
        "returns": {
          "contract_": "The address of the contract with the specified role."
        }
      },
      "getManySelfStakings(address[])": {
        "details": "Returns the self-staking amounts of the pools."
      },
      "getManyStakingAmounts(address[],address[])": {
        "details": "Returns the staking amounts of the users."
      },
      "getManyStakingTotals(address[])": {
        "details": "Returns the total staking amounts of all users for the pools `_poolAddrs`."
      },
      "getPoolAddressOf(address)": {
        "details": "Returns the consensus address corresponding to the pool admin."
      },
      "getPoolDetail(address)": {
        "details": "Returns the staking pool detail."
      },
      "getReward(address,address)": {
        "details": "Returns the reward amount that user claimable."
      },
      "getRewards(address,address[])": {
        "details": "Returns the claimable reward of the user `_user`."
      },
      "getStakingAmount(address,address)": {
        "details": "Returns the staking amount of an user."
      },
      "getStakingTotal(address)": {
        "details": "Returns the total staking amount of all users for a pool."
      },
      "initialize(address,uint256,uint256,uint256,uint256)": {
        "details": "Initializes the contract storage."
      },
      "isAdminOfActivePool(address)": {
        "details": "Returns whether the `_poolAdminAddr` is currently active."
      },
      "minValidatorStakingAmount()": {
        "details": "Returns the minimum threshold for being a validator candidate."
      },
      "redelegate(address,address,uint256)": {
        "details": "Unstakes an amount of RON from the `_consensusAddrSrc` and stake for `_consensusAddrDst`. Requirements: - The method caller is not the pool admin. - The consensus address `_consensusAddrDst` is a validator candidate. Emits the `Undelegated` event and the `Delegated` event."
      },
      "requestEmergencyExit(address)": {
        "details": "Renounces being a validator candidate and takes back the delegating/staking amount. Requirements: - The consensus address is a validator candidate. - The method caller is the pool admin."
      },
      "requestRenounce(address)": {
        "details": "Renounces being a validator candidate and takes back the delegating/staking amount. Requirements: - The consensus address is a validator candidate. - The method caller is the pool admin."
      },
      "requestUpdateCommissionRate(address,uint256,uint256)": {
        "details": "Pool admin requests update validator commission rate. The request will be forwarded to the candidate manager contract, and the value is getting updated in {ICandidateManager-execRequestUpdateCommissionRate}. Requirements: - The consensus address is a validator candidate. - The method caller is the pool admin. - The `_effectiveDaysOnwards` must be equal to or larger than the {CandidateManager-_minEffectiveDaysOnwards}. - The `_rate` must be in range of [0_00; 100_00]. Emits the event `CommissionRateUpdated`."
      },
      "setCommissionRateRange(uint256,uint256)": {
        "details": "Sets the commission rate range that a candidate can set. Requirements: - The method caller is admin. Emits the `CommissionRateRangeUpdated` event."
      },
      "setContract(uint8,address)": {
        "details": "Sets the address of a contract with a specific role. Emits the event {ContractUpdated}.",
        "params": {
          "addr": "The address of the contract to set.",
          "contractType": "The role of the contract to set."
        }
      },
      "setCooldownSecsToUndelegate(uint256)": {
        "details": "Sets the cooldown time in seconds to undelegate from the last timestamp (s)he delegated. Requirements: - The method caller is admin. Emits the event `CooldownSecsToUndelegateUpdated`."
      },
      "setMinValidatorStakingAmount(uint256)": {
        "details": "Sets the minimum threshold for being a validator candidate. Requirements: - The method caller is admin. Emits the `MinValidatorStakingAmountUpdated` event."
      },
      "setWaitingSecsToRevoke(uint256)": {
        "details": "Sets the number of seconds that a candidate must wait to be revoked. Requirements: - The method caller is admin. Emits the event `WaitingSecsToRevokeUpdated`."
      },
      "stake(address)": {
        "details": "Self-delegates to the validator candidate `_consensusAddr`. Requirements: - The consensus address is a validator candidate. - The method caller is the pool admin. - The `msg.value` is larger than 0. Emits the event `Staked`."
      },
      "undelegate(address,uint256)": {
        "details": "Unstakes from a validator candidate `_consensusAddr` for `_amount`. Requirements: - The method caller is not the pool admin. Emits the `Undelegated` event."
      },
      "unstake(address,uint256)": {
        "details": "Unstakes from the validator candidate `_consensusAddr` for `_amount`. Requirements: - The consensus address is a validator candidate. - The method caller is the pool admin. Emits the event `Unstaked`."
      },
      "waitingSecsToRevoke()": {
        "details": "Returns the number of seconds that a candidate must wait for the renounce request gets affected."
      }
    },
    "version": 1
  },
  "userdoc": {
    "kind": "user",
    "methods": {},
    "version": 1
  },
  "storageLayout": {
    "storage": [
      {
        "astId": 1636,
        "contract": "contracts/ronin/staking/Staking.sol:Staking",
        "label": "_status",
        "offset": 0,
        "slot": "0",
        "type": "t_uint256"
      },
      {
        "astId": 29742,
        "contract": "contracts/ronin/staking/Staking.sol:Staking",
        "label": "_accumulatedRps",
        "offset": 0,
        "slot": "1",
        "type": "t_mapping(t_address,t_mapping(t_uint256,t_struct(PeriodWrapper)10328_storage))"
      },
      {
        "astId": 29750,
        "contract": "contracts/ronin/staking/Staking.sol:Staking",
        "label": "_userReward",
        "offset": 0,
        "slot": "2",
        "type": "t_mapping(t_address,t_mapping(t_address,t_struct(UserRewardFields)11140_storage))"
      },
      {
        "astId": 29756,
        "contract": "contracts/ronin/staking/Staking.sol:Staking",
        "label": "_stakingPool",
        "offset": 0,
        "slot": "3",
        "type": "t_mapping(t_address,t_struct(PoolFields)11146_storage)"
      },
      {
        "astId": 29761,
        "contract": "contracts/ronin/staking/Staking.sol:Staking",
        "label": "______gap",
        "offset": 0,
        "slot": "4",
        "type": "t_array(t_uint256)50_storage"
      },
      {
        "astId": 35464,
        "contract": "contracts/ronin/staking/Staking.sol:Staking",
        "label": "______deprecatedValidator",
        "offset": 0,
        "slot": "54",
        "type": "t_address"
      },
      {
        "astId": 27913,
        "contract": "contracts/ronin/staking/Staking.sol:Staking",
        "label": "_stakingPool",
        "offset": 0,
        "slot": "55",
        "type": "t_mapping(t_address,t_struct(PoolDetail)10750_storage)"
      },
      {
        "astId": 27916,
        "contract": "contracts/ronin/staking/Staking.sol:Staking",
        "label": "_cooldownSecsToUndelegate",
        "offset": 0,
        "slot": "56",
        "type": "t_uint256"
      },
      {
        "astId": 27919,
        "contract": "contracts/ronin/staking/Staking.sol:Staking",
        "label": "_waitingSecsToRevoke",
        "offset": 0,
        "slot": "57",
        "type": "t_uint256"
      },
      {
        "astId": 27924,
        "contract": "contracts/ronin/staking/Staking.sol:Staking",
        "label": "_adminOfActivePoolMapping",
        "offset": 0,
        "slot": "58",
        "type": "t_mapping(t_address,t_address)"
      },
      {
        "astId": 27929,
        "contract": "contracts/ronin/staking/Staking.sol:Staking",
        "label": "______gap",
        "offset": 0,
        "slot": "59",
        "type": "t_array(t_uint256)49_storage"
      },
      {
        "astId": 28418,
        "contract": "contracts/ronin/staking/Staking.sol:Staking",
        "label": "_minValidatorStakingAmount",
        "offset": 0,
        "slot": "108",
        "type": "t_uint256"
      },
      {
        "astId": 28421,
        "contract": "contracts/ronin/staking/Staking.sol:Staking",
        "label": "_maxCommissionRate",
        "offset": 0,
        "slot": "109",
        "type": "t_uint256"
      },
      {
        "astId": 28424,
        "contract": "contracts/ronin/staking/Staking.sol:Staking",
        "label": "_minCommissionRate",
        "offset": 0,
        "slot": "110",
        "type": "t_uint256"
      },
      {
        "astId": 28429,
        "contract": "contracts/ronin/staking/Staking.sol:Staking",
        "label": "______gap",
        "offset": 0,
        "slot": "111",
        "type": "t_array(t_uint256)48_storage"
      },
      {
        "astId": 29197,
        "contract": "contracts/ronin/staking/Staking.sol:Staking",
        "label": "______gap",
        "offset": 0,
        "slot": "159",
        "type": "t_array(t_uint256)50_storage"
      },
      {
        "astId": 1373,
        "contract": "contracts/ronin/staking/Staking.sol:Staking",
        "label": "_initialized",
        "offset": 0,
        "slot": "209",
        "type": "t_uint8"
      },
      {
        "astId": 1376,
        "contract": "contracts/ronin/staking/Staking.sol:Staking",
        "label": "_initializing",
        "offset": 1,
        "slot": "209",
        "type": "t_bool"
      }
    ],
    "types": {
      "t_address": {
        "encoding": "inplace",
        "label": "address",
        "numberOfBytes": "20"
      },
      "t_array(t_uint256)48_storage": {
        "base": "t_uint256",
        "encoding": "inplace",
        "label": "uint256[48]",
        "numberOfBytes": "1536"
      },
      "t_array(t_uint256)49_storage": {
        "base": "t_uint256",
        "encoding": "inplace",
        "label": "uint256[49]",
        "numberOfBytes": "1568"
      },
      "t_array(t_uint256)50_storage": {
        "base": "t_uint256",
        "encoding": "inplace",
        "label": "uint256[50]",
        "numberOfBytes": "1600"
      },
      "t_bool": {
        "encoding": "inplace",
        "label": "bool",
        "numberOfBytes": "1"
      },
      "t_mapping(t_address,t_address)": {
        "encoding": "mapping",
        "key": "t_address",
        "label": "mapping(address => address)",
        "numberOfBytes": "32",
        "value": "t_address"
      },
      "t_mapping(t_address,t_mapping(t_address,t_struct(UserRewardFields)11140_storage))": {
        "encoding": "mapping",
        "key": "t_address",
        "label": "mapping(address => mapping(address => struct IRewardPool.UserRewardFields))",
        "numberOfBytes": "32",
        "value": "t_mapping(t_address,t_struct(UserRewardFields)11140_storage)"
      },
      "t_mapping(t_address,t_mapping(t_uint256,t_struct(PeriodWrapper)10328_storage))": {
        "encoding": "mapping",
        "key": "t_address",
        "label": "mapping(address => mapping(uint256 => struct PeriodWrapperConsumer.PeriodWrapper))",
        "numberOfBytes": "32",
        "value": "t_mapping(t_uint256,t_struct(PeriodWrapper)10328_storage)"
      },
      "t_mapping(t_address,t_struct(PoolDetail)10750_storage)": {
        "encoding": "mapping",
        "key": "t_address",
        "label": "mapping(address => struct IBaseStaking.PoolDetail)",
        "numberOfBytes": "32",
        "value": "t_struct(PoolDetail)10750_storage"
      },
      "t_mapping(t_address,t_struct(PoolFields)11146_storage)": {
        "encoding": "mapping",
        "key": "t_address",
        "label": "mapping(address => struct IRewardPool.PoolFields)",
        "numberOfBytes": "32",
        "value": "t_struct(PoolFields)11146_storage"
      },
      "t_mapping(t_address,t_struct(UserRewardFields)11140_storage)": {
        "encoding": "mapping",
        "key": "t_address",
        "label": "mapping(address => struct IRewardPool.UserRewardFields)",
        "numberOfBytes": "32",
        "value": "t_struct(UserRewardFields)11140_storage"
      },
      "t_mapping(t_address,t_uint256)": {
        "encoding": "mapping",
        "key": "t_address",
        "label": "mapping(address => uint256)",
        "numberOfBytes": "32",
        "value": "t_uint256"
      },
      "t_mapping(t_uint256,t_struct(PeriodWrapper)10328_storage)": {
        "encoding": "mapping",
        "key": "t_uint256",
        "label": "mapping(uint256 => struct PeriodWrapperConsumer.PeriodWrapper)",
        "numberOfBytes": "32",
        "value": "t_struct(PeriodWrapper)10328_storage"
      },
      "t_struct(PeriodWrapper)10328_storage": {
        "encoding": "inplace",
        "label": "struct PeriodWrapperConsumer.PeriodWrapper",
        "members": [
          {
            "astId": 10325,
            "contract": "contracts/ronin/staking/Staking.sol:Staking",
            "label": "inner",
            "offset": 0,
            "slot": "0",
            "type": "t_uint256"
          },
          {
            "astId": 10327,
            "contract": "contracts/ronin/staking/Staking.sol:Staking",
            "label": "lastPeriod",
            "offset": 0,
            "slot": "1",
            "type": "t_uint256"
          }
        ],
        "numberOfBytes": "64"
      },
      "t_struct(PoolDetail)10750_storage": {
        "encoding": "inplace",
        "label": "struct IBaseStaking.PoolDetail",
        "members": [
          {
            "astId": 10735,
            "contract": "contracts/ronin/staking/Staking.sol:Staking",
            "label": "addr",
            "offset": 0,
            "slot": "0",
            "type": "t_address"
          },
          {
            "astId": 10737,
            "contract": "contracts/ronin/staking/Staking.sol:Staking",
            "label": "admin",
            "offset": 0,
            "slot": "1",
            "type": "t_address"
          },
          {
            "astId": 10739,
            "contract": "contracts/ronin/staking/Staking.sol:Staking",
            "label": "stakingAmount",
            "offset": 0,
            "slot": "2",
            "type": "t_uint256"
          },
          {
            "astId": 10741,
            "contract": "contracts/ronin/staking/Staking.sol:Staking",
            "label": "stakingTotal",
            "offset": 0,
            "slot": "3",
            "type": "t_uint256"
          },
          {
            "astId": 10745,
            "contract": "contracts/ronin/staking/Staking.sol:Staking",
            "label": "delegatingAmount",
            "offset": 0,
            "slot": "4",
            "type": "t_mapping(t_address,t_uint256)"
          },
          {
            "astId": 10749,
            "contract": "contracts/ronin/staking/Staking.sol:Staking",
            "label": "lastDelegatingTimestamp",
            "offset": 0,
            "slot": "5",
            "type": "t_mapping(t_address,t_uint256)"
          }
        ],
        "numberOfBytes": "192"
      },
      "t_struct(PoolFields)11146_storage": {
        "encoding": "inplace",
        "label": "struct IRewardPool.PoolFields",
        "members": [
          {
            "astId": 11142,
            "contract": "contracts/ronin/staking/Staking.sol:Staking",
            "label": "aRps",
            "offset": 0,
            "slot": "0",
            "type": "t_uint256"
          },
          {
            "astId": 11145,
            "contract": "contracts/ronin/staking/Staking.sol:Staking",
            "label": "shares",
            "offset": 0,
            "slot": "1",
            "type": "t_struct(PeriodWrapper)10328_storage"
          }
        ],
        "numberOfBytes": "96"
      },
      "t_struct(UserRewardFields)11140_storage": {
        "encoding": "inplace",
        "label": "struct IRewardPool.UserRewardFields",
        "members": [
          {
            "astId": 11133,
            "contract": "contracts/ronin/staking/Staking.sol:Staking",
            "label": "debited",
            "offset": 0,
            "slot": "0",
            "type": "t_uint256"
          },
          {
            "astId": 11135,
            "contract": "contracts/ronin/staking/Staking.sol:Staking",
            "label": "aRps",
            "offset": 0,
            "slot": "1",
            "type": "t_uint256"
          },
          {
            "astId": 11137,
            "contract": "contracts/ronin/staking/Staking.sol:Staking",
            "label": "lowestAmount",
            "offset": 0,
            "slot": "2",
            "type": "t_uint256"
          },
          {
            "astId": 11139,
            "contract": "contracts/ronin/staking/Staking.sol:Staking",
            "label": "lastPeriod",
            "offset": 0,
            "slot": "3",
            "type": "t_uint256"
          }
        ],
        "numberOfBytes": "128"
      },
      "t_uint256": {
        "encoding": "inplace",
        "label": "uint256",
        "numberOfBytes": "32"
      },
      "t_uint8": {
        "encoding": "inplace",
        "label": "uint8",
        "numberOfBytes": "1"
      }
    }
  }
}