{
  "address": "0x312e8a5743DddC7aC6634437feA73781ADcCCa80",
  "abi": [
    {
      "inputs": [],
      "stateMutability": "nonpayable",
      "type": "constructor"
    },
    {
      "anonymous": false,
      "inputs": [
        {
          "indexed": false,
          "internalType": "uint256",
          "name": "minSecs",
          "type": "uint256"
        }
      ],
      "name": "CooldownSecsToUndelegateUpdated",
      "type": "event"
    },
    {
      "anonymous": false,
      "inputs": [
        {
          "indexed": true,
          "internalType": "address",
          "name": "delegator",
          "type": "address"
        },
        {
          "indexed": true,
          "internalType": "address",
          "name": "consensuAddr",
          "type": "address"
        },
        {
          "indexed": false,
          "internalType": "uint256",
          "name": "amount",
          "type": "uint256"
        }
      ],
      "name": "Delegated",
      "type": "event"
    },
    {
      "anonymous": false,
      "inputs": [
        {
          "indexed": false,
          "internalType": "uint8",
          "name": "version",
          "type": "uint8"
        }
      ],
      "name": "Initialized",
      "type": "event"
    },
    {
      "anonymous": false,
      "inputs": [
        {
          "indexed": false,
          "internalType": "uint256",
          "name": "threshold",
          "type": "uint256"
        }
      ],
      "name": "MinValidatorStakingAmountUpdated",
      "type": "event"
    },
    {
      "anonymous": false,
      "inputs": [
        {
          "indexed": true,
          "internalType": "address",
          "name": "validator",
          "type": "address"
        },
        {
          "indexed": true,
          "internalType": "address",
          "name": "admin",
          "type": "address"
        }
      ],
      "name": "PoolApproved",
      "type": "event"
    },
    {
      "anonymous": false,
      "inputs": [
        {
          "indexed": true,
          "internalType": "uint256",
          "name": "period",
          "type": "uint256"
        },
        {
          "indexed": true,
          "internalType": "address",
          "name": "poolAddr",
          "type": "address"
        },
        {
          "indexed": false,
          "internalType": "uint256",
          "name": "shares",
          "type": "uint256"
        }
      ],
      "name": "PoolSharesUpdated",
      "type": "event"
    },
    {
      "anonymous": false,
      "inputs": [
        {
          "indexed": false,
          "internalType": "address[]",
          "name": "validator",
          "type": "address[]"
        }
      ],
      "name": "PoolsDeprecated",
      "type": "event"
    },
    {
      "anonymous": false,
      "inputs": [
        {
          "indexed": true,
          "internalType": "uint256",
          "name": "period",
          "type": "uint256"
        },
        {
          "indexed": false,
          "internalType": "address[]",
          "name": "poolAddrs",
          "type": "address[]"
        }
      ],
      "name": "PoolsUpdateConflicted",
      "type": "event"
    },
    {
      "anonymous": false,
      "inputs": [
        {
          "indexed": true,
          "internalType": "uint256",
          "name": "period",
          "type": "uint256"
        },
        {
          "indexed": false,
          "internalType": "address[]",
          "name": "poolAddrs",
          "type": "address[]"
        },
        {
          "indexed": false,
          "internalType": "uint256[]",
          "name": "rewards",
          "type": "uint256[]"
        }
      ],
      "name": "PoolsUpdateFailed",
      "type": "event"
    },
    {
      "anonymous": false,
      "inputs": [
        {
          "indexed": true,
          "internalType": "uint256",
          "name": "period",
          "type": "uint256"
        },
        {
          "indexed": false,
          "internalType": "address[]",
          "name": "poolAddrs",
          "type": "address[]"
        },
        {
          "indexed": false,
          "internalType": "uint256[]",
          "name": "aRps",
          "type": "uint256[]"
        },
        {
          "indexed": false,
          "internalType": "uint256[]",
          "name": "shares",
          "type": "uint256[]"
        }
      ],
      "name": "PoolsUpdated",
      "type": "event"
    },
    {
      "anonymous": false,
      "inputs": [
        {
          "indexed": true,
          "internalType": "address",
          "name": "poolAddr",
          "type": "address"
        },
        {
          "indexed": true,
          "internalType": "address",
          "name": "user",
          "type": "address"
        },
        {
          "indexed": false,
          "internalType": "uint256",
          "name": "amount",
          "type": "uint256"
        }
      ],
      "name": "RewardClaimed",
      "type": "event"
    },
    {
      "anonymous": false,
      "inputs": [
        {
          "indexed": true,
          "internalType": "address",
          "name": "consensuAddr",
          "type": "address"
        },
        {
          "indexed": false,
          "internalType": "uint256",
          "name": "amount",
          "type": "uint256"
        }
      ],
      "name": "Staked",
      "type": "event"
    },
    {
      "anonymous": false,
      "inputs": [
        {
          "indexed": true,
          "internalType": "address",
          "name": "validator",
          "type": "address"
        },
        {
          "indexed": true,
          "internalType": "address",
          "name": "recipient",
          "type": "address"
        },
        {
          "indexed": false,
          "internalType": "uint256",
          "name": "amount",
          "type": "uint256"
        },
        {
          "indexed": false,
          "internalType": "uint256",
          "name": "contractBalance",
          "type": "uint256"
        }
      ],
      "name": "StakingAmountDeductFailed",
      "type": "event"
    },
    {
      "anonymous": false,
      "inputs": [
        {
          "indexed": true,
          "internalType": "address",
          "name": "validator",
          "type": "address"
        },
        {
          "indexed": true,
          "internalType": "address",
          "name": "admin",
          "type": "address"
        },
        {
          "indexed": false,
          "internalType": "uint256",
          "name": "amount",
          "type": "uint256"
        },
        {
          "indexed": false,
          "internalType": "uint256",
          "name": "contractBalance",
          "type": "uint256"
        }
      ],
      "name": "StakingAmountTransferFailed",
      "type": "event"
    },
    {
      "anonymous": false,
      "inputs": [
        {
          "indexed": true,
          "internalType": "address",
          "name": "delegator",
          "type": "address"
        },
        {
          "indexed": true,
          "internalType": "address",
          "name": "consensuAddr",
          "type": "address"
        },
        {
          "indexed": false,
          "internalType": "uint256",
          "name": "amount",
          "type": "uint256"
        }
      ],
      "name": "Undelegated",
      "type": "event"
    },
    {
      "anonymous": false,
      "inputs": [
        {
          "indexed": true,
          "internalType": "address",
          "name": "consensuAddr",
          "type": "address"
        },
        {
          "indexed": false,
          "internalType": "uint256",
          "name": "amount",
          "type": "uint256"
        }
      ],
      "name": "Unstaked",
      "type": "event"
    },
    {
      "anonymous": false,
      "inputs": [
        {
          "indexed": true,
          "internalType": "address",
          "name": "poolAddr",
          "type": "address"
        },
        {
          "indexed": true,
          "internalType": "address",
          "name": "user",
          "type": "address"
        },
        {
          "indexed": false,
          "internalType": "uint256",
          "name": "debited",
          "type": "uint256"
        }
      ],
      "name": "UserRewardUpdated",
      "type": "event"
    },
    {
      "anonymous": false,
      "inputs": [
        {
          "indexed": false,
          "internalType": "address",
          "name": "",
          "type": "address"
        }
      ],
      "name": "ValidatorContractUpdated",
      "type": "event"
    },
    {
      "anonymous": false,
      "inputs": [
        {
          "indexed": false,
          "internalType": "uint256",
          "name": "secs",
          "type": "uint256"
        }
      ],
      "name": "WaitingSecsToRevokeUpdated",
      "type": "event"
    },
    {
      "stateMutability": "payable",
      "type": "fallback"
    },
    {
      "inputs": [
        {
          "internalType": "address",
          "name": "_candidateAdmin",
          "type": "address"
        },
        {
          "internalType": "address",
          "name": "_consensusAddr",
          "type": "address"
        },
        {
          "internalType": "address payable",
          "name": "_treasuryAddr",
          "type": "address"
        },
        {
          "internalType": "address",
          "name": "_bridgeOperatorAddr",
          "type": "address"
        },
        {
          "internalType": "uint256",
          "name": "_commissionRate",
          "type": "uint256"
        }
      ],
      "name": "applyValidatorCandidate",
      "outputs": [],
      "stateMutability": "payable",
      "type": "function"
    },
    {
      "inputs": [
        {
          "internalType": "address[]",
          "name": "_consensusAddrs",
          "type": "address[]"
        },
        {
          "internalType": "uint256[]",
          "name": "_amounts",
          "type": "uint256[]"
        }
      ],
      "name": "bulkUndelegate",
      "outputs": [],
      "stateMutability": "nonpayable",
      "type": "function"
    },
    {
      "inputs": [
        {
          "internalType": "address[]",
          "name": "_consensusAddrList",
          "type": "address[]"
        }
      ],
      "name": "claimRewards",
      "outputs": [
        {
          "internalType": "uint256",
          "name": "_amount",
          "type": "uint256"
        }
      ],
      "stateMutability": "nonpayable",
      "type": "function"
    },
    {
      "inputs": [],
      "name": "cooldownSecsToUndelegate",
      "outputs": [
        {
          "internalType": "uint256",
          "name": "",
          "type": "uint256"
        }
      ],
      "stateMutability": "view",
      "type": "function"
    },
    {
      "inputs": [
        {
          "internalType": "address",
          "name": "_consensusAddr",
          "type": "address"
        },
        {
          "internalType": "uint256",
          "name": "_amount",
          "type": "uint256"
        }
      ],
      "name": "deductStakingAmount",
      "outputs": [
        {
          "internalType": "uint256",
          "name": "_actualDeductingAmount",
          "type": "uint256"
        }
      ],
      "stateMutability": "nonpayable",
      "type": "function"
    },
    {
      "inputs": [
        {
          "internalType": "address",
          "name": "_consensusAddr",
          "type": "address"
        }
      ],
      "name": "delegate",
      "outputs": [],
      "stateMutability": "payable",
      "type": "function"
    },
    {
      "inputs": [
        {
          "internalType": "address[]",
          "name": "_consensusAddrList",
          "type": "address[]"
        },
        {
          "internalType": "address",
          "name": "_consensusAddrDst",
          "type": "address"
        }
      ],
      "name": "delegateRewards",
      "outputs": [
        {
          "internalType": "uint256",
          "name": "_amount",
          "type": "uint256"
        }
      ],
      "stateMutability": "nonpayable",
      "type": "function"
    },
    {
      "inputs": [
        {
          "internalType": "address[]",
          "name": "_pools",
          "type": "address[]"
        }
      ],
      "name": "deprecatePools",
      "outputs": [],
      "stateMutability": "nonpayable",
      "type": "function"
    },
    {
      "inputs": [
        {
          "internalType": "address[]",
          "name": "_pools",
          "type": "address[]"
        }
      ],
      "name": "getManySelfStakings",
      "outputs": [
        {
          "internalType": "uint256[]",
          "name": "_selfStakings",
          "type": "uint256[]"
        }
      ],
      "stateMutability": "view",
      "type": "function"
    },
    {
      "inputs": [
        {
          "internalType": "address[]",
          "name": "_poolAddrs",
          "type": "address[]"
        },
        {
          "internalType": "address[]",
          "name": "_userList",
          "type": "address[]"
        }
      ],
      "name": "getManyStakingAmounts",
      "outputs": [
        {
          "internalType": "uint256[]",
          "name": "_stakingAmounts",
          "type": "uint256[]"
        }
      ],
      "stateMutability": "view",
      "type": "function"
    },
    {
      "inputs": [
        {
          "internalType": "address[]",
          "name": "_poolList",
          "type": "address[]"
        }
      ],
      "name": "getManyStakingTotals",
      "outputs": [
        {
          "internalType": "uint256[]",
          "name": "_stakingAmounts",
          "type": "uint256[]"
        }
      ],
      "stateMutability": "view",
      "type": "function"
    },
    {
      "inputs": [
        {
          "internalType": "address",
          "name": "_poolAddr",
          "type": "address"
        },
        {
          "internalType": "address",
          "name": "_user",
          "type": "address"
        }
      ],
      "name": "getReward",
      "outputs": [
        {
          "internalType": "uint256",
          "name": "",
          "type": "uint256"
        }
      ],
      "stateMutability": "view",
      "type": "function"
    },
    {
      "inputs": [
        {
          "internalType": "address",
          "name": "_user",
          "type": "address"
        },
        {
          "internalType": "address[]",
          "name": "_poolAddrList",
          "type": "address[]"
        }
      ],
      "name": "getRewards",
      "outputs": [
        {
          "internalType": "uint256[]",
          "name": "_rewards",
          "type": "uint256[]"
        }
      ],
      "stateMutability": "view",
      "type": "function"
    },
    {
      "inputs": [
        {
          "internalType": "address",
          "name": "_poolAddr",
          "type": "address"
        },
        {
          "internalType": "address",
          "name": "_user",
          "type": "address"
        }
      ],
      "name": "getStakingAmount",
      "outputs": [
        {
          "internalType": "uint256",
          "name": "",
          "type": "uint256"
        }
      ],
      "stateMutability": "view",
      "type": "function"
    },
    {
      "inputs": [
        {
          "internalType": "address",
          "name": "_poolAddr",
          "type": "address"
        }
      ],
      "name": "getStakingPool",
      "outputs": [
        {
          "internalType": "address",
          "name": "_admin",
          "type": "address"
        },
        {
          "internalType": "uint256",
          "name": "_stakingAmount",
          "type": "uint256"
        },
        {
          "internalType": "uint256",
          "name": "_stakingTotal",
          "type": "uint256"
        }
      ],
      "stateMutability": "view",
      "type": "function"
    },
    {
      "inputs": [
        {
          "internalType": "address",
          "name": "_poolAddr",
          "type": "address"
        }
      ],
      "name": "getStakingTotal",
      "outputs": [
        {
          "internalType": "uint256",
          "name": "",
          "type": "uint256"
        }
      ],
      "stateMutability": "view",
      "type": "function"
    },
    {
      "inputs": [
        {
          "internalType": "address",
          "name": "__validatorContract",
          "type": "address"
        },
        {
          "internalType": "uint256",
          "name": "__minValidatorStakingAmount",
          "type": "uint256"
        },
        {
          "internalType": "uint256",
          "name": "__cooldownSecsToUndelegate",
          "type": "uint256"
        },
        {
          "internalType": "uint256",
          "name": "__waitingSecsToRevoke",
          "type": "uint256"
        }
      ],
      "name": "initialize",
      "outputs": [],
      "stateMutability": "nonpayable",
      "type": "function"
    },
    {
      "inputs": [],
      "name": "minValidatorStakingAmount",
      "outputs": [
        {
          "internalType": "uint256",
          "name": "",
          "type": "uint256"
        }
      ],
      "stateMutability": "view",
      "type": "function"
    },
    {
      "inputs": [
        {
          "internalType": "address[]",
          "name": "_consensusAddrs",
          "type": "address[]"
        },
        {
          "internalType": "uint256[]",
          "name": "_rewards",
          "type": "uint256[]"
        },
        {
          "internalType": "uint256",
          "name": "_period",
          "type": "uint256"
        }
      ],
      "name": "recordRewards",
      "outputs": [],
      "stateMutability": "payable",
      "type": "function"
    },
    {
      "inputs": [
        {
          "internalType": "address",
          "name": "_consensusAddrSrc",
          "type": "address"
        },
        {
          "internalType": "address",
          "name": "_consensusAddrDst",
          "type": "address"
        },
        {
          "internalType": "uint256",
          "name": "_amount",
          "type": "uint256"
        }
      ],
      "name": "redelegate",
      "outputs": [],
      "stateMutability": "nonpayable",
      "type": "function"
    },
    {
      "inputs": [
        {
          "internalType": "address",
          "name": "_consensusAddr",
          "type": "address"
        }
      ],
      "name": "requestRenounce",
      "outputs": [],
      "stateMutability": "nonpayable",
      "type": "function"
    },
    {
      "inputs": [
        {
          "internalType": "address",
          "name": "_consensusAddr",
          "type": "address"
        },
        {
          "internalType": "uint256",
          "name": "_effectiveDaysOnwards",
          "type": "uint256"
        },
        {
          "internalType": "uint256",
          "name": "_commissionRate",
          "type": "uint256"
        }
      ],
      "name": "requestUpdateCommissionRate",
      "outputs": [],
      "stateMutability": "nonpayable",
      "type": "function"
    },
    {
      "inputs": [
        {
          "internalType": "uint256",
          "name": "_cooldownSecs",
          "type": "uint256"
        }
      ],
      "name": "setCooldownSecsToUndelegate",
      "outputs": [],
      "stateMutability": "nonpayable",
      "type": "function"
    },
    {
      "inputs": [
        {
          "internalType": "uint256",
          "name": "_threshold",
          "type": "uint256"
        }
      ],
      "name": "setMinValidatorStakingAmount",
      "outputs": [],
      "stateMutability": "nonpayable",
      "type": "function"
    },
    {
      "inputs": [
        {
          "internalType": "address",
          "name": "_addr",
          "type": "address"
        }
      ],
      "name": "setValidatorContract",
      "outputs": [],
      "stateMutability": "nonpayable",
      "type": "function"
    },
    {
      "inputs": [
        {
          "internalType": "uint256",
          "name": "_secs",
          "type": "uint256"
        }
      ],
      "name": "setWaitingSecsToRevoke",
      "outputs": [],
      "stateMutability": "nonpayable",
      "type": "function"
    },
    {
      "inputs": [
        {
          "internalType": "address",
          "name": "_consensusAddr",
          "type": "address"
        }
      ],
      "name": "stake",
      "outputs": [],
      "stateMutability": "payable",
      "type": "function"
    },
    {
      "inputs": [
        {
          "internalType": "address",
          "name": "_consensusAddr",
          "type": "address"
        },
        {
          "internalType": "uint256",
          "name": "_amount",
          "type": "uint256"
        }
      ],
      "name": "undelegate",
      "outputs": [],
      "stateMutability": "nonpayable",
      "type": "function"
    },
    {
      "inputs": [
        {
          "internalType": "address",
          "name": "_consensusAddr",
          "type": "address"
        },
        {
          "internalType": "uint256",
          "name": "_amount",
          "type": "uint256"
        }
      ],
      "name": "unstake",
      "outputs": [],
      "stateMutability": "nonpayable",
      "type": "function"
    },
    {
      "inputs": [],
      "name": "validatorContract",
      "outputs": [
        {
          "internalType": "address",
          "name": "",
          "type": "address"
        }
      ],
      "stateMutability": "view",
      "type": "function"
    },
    {
      "inputs": [],
      "name": "waitingSecsToRevoke",
      "outputs": [
        {
          "internalType": "uint256",
          "name": "",
          "type": "uint256"
        }
      ],
      "stateMutability": "view",
      "type": "function"
    },
    {
      "stateMutability": "payable",
      "type": "receive"
    }
  ],
  "transactionHash": "0x00e41c01eeca51f5bf13cd46af6db9f82eee54422eb67272a92266996cd02a9d",
  "args": [],
  "numDeployments": 2,
  "solcInputHash": "7ee7c0f941167beb3dcb34451beb8d74",
  "bytecode": "0x60806040523480156200001157600080fd5b5060016000556200002162000027565b620000e9565b60d154610100900460ff1615620000945760405162461bcd60e51b815260206004820152602760248201527f496e697469616c697a61626c653a20636f6e747261637420697320696e697469604482015266616c697a696e6760c81b606482015260840160405180910390fd5b60d15460ff9081161015620000e75760d1805460ff191660ff9081179091556040519081527f7f26b83ff96e1f2b6a682f133852f6798a09c465da95921460cefb38474024989060200160405180910390a15b565b613d2a80620000f96000396000f3fe6080604052600436106101dc5760003560e01c8063888b9ae9116101025780639e614e0e11610095578063cdf64a7611610064578063cdf64a76146105b2578063e5376f54146105d2578063e9ac5e06146105e5578063f9f031df1461060557610225565b80639e614e0e14610518578063af2454291461055d578063c2a672e014610572578063c905bb351461059257610225565b8063924f081e116100d1578063924f081e146104905780639488e4e9146104b0578063969ffc14146104d057806399439089146104f057610225565b8063888b9ae914610402578063895ab74214610422578063909791dd1461045b57806391f8723f1461047057610225565b806342ef3c341161017a578063679a6e4311610149578063679a6e43146103825780636b091695146103a25780636bd8f804146103c257806376664b65146103e257610225565b806342ef3c341461030f5780634d99dd161461032f5780634ec81af11461034f5780635c19a95c1461036f57610225565b80631658c86e116101b65780631658c86e146102a957806326476204146102c95780633b8cb16b146102dc5780633d8e846e146102ef57610225565b80630682e8fa14610238578063095f64751461025c578063097e4a9d1461028957610225565b3661022557336101f46036546001600160a01b031690565b6001600160a01b0316146102235760405162461bcd60e51b815260040161021a9061338f565b60405180910390fd5b005b336101f46036546001600160a01b031690565b34801561024457600080fd5b506038545b6040519081526020015b60405180910390f35b34801561026857600080fd5b5061027c610277366004613437565b610625565b60405161025391906134dd565b34801561029557600080fd5b506102496102a4366004613505565b610796565b3480156102b557600080fd5b506102236102c436600461355b565b610863565b6102236102d736600461355b565b61099d565b6102236102ea36600461357f565b610a6e565b3480156102fb57600080fd5b5061027c61030a3660046135f2565b610aef565b34801561031b57600080fd5b5061027c61032a366004613646565b610c33565b34801561033b57600080fd5b5061022361034a366004613687565b610d09565b34801561035b57600080fd5b5061022361036a3660046136b3565b610d84565b61022361037d36600461355b565b610eb4565b34801561038e57600080fd5b5061022361039d3660046136ee565b6110d4565b3480156103ae57600080fd5b506102496103bd366004613707565b611118565b3480156103ce57600080fd5b506102236103dd366004613740565b61113a565b3480156103ee57600080fd5b506102496103fd366004613707565b61123f565b34801561040e57600080fd5b5061022361041d3660046136ee565b61126e565b34801561042e57600080fd5b5061024961043d36600461355b565b6001600160a01b031660009081526037602052604090206003015490565b34801561046757600080fd5b50606c54610249565b34801561047c57600080fd5b5061027c61048b366004613646565b6112af565b34801561049c57600080fd5b506102236104ab366004613781565b611359565b3480156104bc57600080fd5b506102236104cb366004613437565b611499565b3480156104dc57600080fd5b506102236104eb3660046136ee565b61160f565b3480156104fc57600080fd5b506036546040516001600160a01b039091168152602001610253565b34801561052457600080fd5b5061053861053336600461355b565b611650565b604080516001600160a01b039094168452602084019290925290820152606001610253565b34801561056957600080fd5b50603954610249565b34801561057e57600080fd5b5061022361058d366004613687565b611716565b34801561059e57600080fd5b506102496105ad366004613687565b61191e565b3480156105be57600080fd5b506102236105cd36600461355b565b6119f0565b6102236105e03660046137b6565b611a9d565b3480156105f157600080fd5b50610223610600366004613646565b611b68565b34801561061157600080fd5b50610249610620366004613646565b611cd1565b60608382146106765760405162461bcd60e51b815260206004820181905260248201527f426173655374616b696e673a20696e76616c696420696e707574206172726179604482015260640161021a565b836001600160401b0381111561068e5761068e61381a565b6040519080825280602002602001820160405280156106b7578160200160208202803683370190505b50905060005b815181101561078d57603760008787848181106106dc576106dc613830565b90506020020160208101906106f1919061355b565b6001600160a01b03166001600160a01b03168152602001908152602001600020600401600085858481811061072857610728613830565b905060200201602081019061073d919061355b565b6001600160a01b03166001600160a01b031681526020019081526020016000205482828151811061077057610770613830565b6020908102919091010152806107858161385c565b9150506106bd565b50949350505050565b60006002600054036107ba5760405162461bcd60e51b815260040161021a90613875565b6002600055603654604051635061f96960e11b81526001600160a01b0380851660048301528492169063a0c3f2d290602401602060405180830381865afa158015610809573d6000803e3d6000fd5b505050506040513d601f19601f8201168201806040525081019061082d91906138ac565b6108495760405162461bcd60e51b815260040161021a906138ce565b61085533868686611d1c565b600160005595945050505050565b603654604051635061f96960e11b81526001600160a01b0380841660048301528392169063a0c3f2d290602401602060405180830381865afa1580156108ad573d6000803e3d6000fd5b505050506040513d601f19601f820116820180604052508101906108d191906138ac565b6108ed5760405162461bcd60e51b815260040161021a906138ce565b6001600160a01b03808316600090815260376020526040902060018101549091339116811461092e5760405162461bcd60e51b815260040161021a90613916565b603654603954604051636efa12bd60e01b81526001600160a01b0387811660048301526024820192909252911690636efa12bd90604401600060405180830381600087803b15801561097f57600080fd5b505af1158015610993573d6000803e3d6000fd5b5050505050505050565b600034116109bd5760405162461bcd60e51b815260040161021a90613963565b603654604051635061f96960e11b81526001600160a01b0380841660048301528392169063a0c3f2d290602401602060405180830381865afa158015610a07573d6000803e3d6000fd5b505050506040513d601f19601f82011682018060405250810190610a2b91906138ac565b610a475760405162461bcd60e51b815260040161021a906138ce565b6001600160a01b0382166000908152603760205260409020610a6a903334611d57565b5050565b33610a816036546001600160a01b031690565b6001600160a01b031614610aa75760405162461bcd60e51b815260040161021a9061338f565b610ae8858580806020026020016040519081016040528093929190818152602001838360200280828437600092019190915250879250869150859050611e29565b5050505050565b6060600080603660009054906101000a90046001600160a01b03166001600160a01b031663060406186040518163ffffffff1660e01b8152600401602060405180830381865afa158015610b47573d6000803e3d6000fd5b505050506040513d601f19601f82011682018060405250810190610b6b91906139a6565b9050836001600160401b03811115610b8557610b8561381a565b604051908082528060200260200182016040528015610bae578160200160208202803683370190505b50925060005b84811015610c2957858582818110610bce57610bce613830565b9050602002016020810190610be3919061355b565b9250610bfa838884610bf5878c61123f565b612262565b848281518110610c0c57610c0c613830565b602090810291909101015280610c218161385c565b915050610bb4565b5050509392505050565b6060816001600160401b03811115610c4d57610c4d61381a565b604051908082528060200260200182016040528015610c76578160200160208202803683370190505b50905060005b82811015610d025760376000858584818110610c9a57610c9a613830565b9050602002016020810190610caf919061355b565b6001600160a01b03166001600160a01b0316815260200190815260200160002060020154828281518110610ce557610ce5613830565b602090810291909101015280610cfa8161385c565b915050610c7c565b5092915050565b600260005403610d2b5760405162461bcd60e51b815260040161021a90613875565b600260009081556001600160a01b03831681526037602052604090203390610d54908284612384565b610d5e818361259c565b610d7a5760405162461bcd60e51b815260040161021a906139bf565b5050600160005550565b60d154610100900460ff1615808015610da4575060d154600160ff909116105b80610dbe5750303b158015610dbe575060d15460ff166001145b610e215760405162461bcd60e51b815260206004820152602e60248201527f496e697469616c697a61626c653a20636f6e747261637420697320616c72656160448201526d191e481a5b9a5d1a585b1a5e995960921b606482015260840161021a565b60d1805460ff191660011790558015610e445760d1805461ff0019166101001790555b610e4d85612602565b610e5684612657565b610e5f8361268c565b610e68826126c1565b8015610ae85760d1805461ff0019169055604051600181527f7f26b83ff96e1f2b6a682f133852f6798a09c465da95921460cefb38474024989060200160405180910390a15050505050565b60003411610ed45760405162461bcd60e51b815260040161021a90613963565b603654604051635061f96960e11b81526001600160a01b0380841660048301528392169063a0c3f2d290602401602060405180830381865afa158015610f1e573d6000803e3d6000fd5b505050506040513d601f19601f82011682018060405250810190610f4291906138ac565b610f5e5760405162461bcd60e51b815260040161021a906138ce565b60365460408051632e9dec1b60e21b815290516000926001600160a01b03169163ba77b06c91600480830192869291908290030181865afa158015610fa7573d6000803e3d6000fd5b505050506040513d6000823e601f3d908101601f19168201604052610fcf9190810190613a17565b905060005b81518110156110ab57600060376000848481518110610ff557610ff5613830565b6020908102919091018101516001600160a01b0390811683529082019290925260400160002060018101549092501633036110985760405162461bcd60e51b815260206004820152603c60248201527f44656c656761746f725374616b696e673a2061646d696e206f6620616e20617260448201527f6269747261727920706f6f6c2063616e6e6f742064656c656761746500000000606482015260840161021a565b50806110a38161385c565b915050610fd4565b506001600160a01b03831660009081526037602052604090206110cf9033346126f6565b505050565b6110dc6127bd565b6001600160a01b0316336001600160a01b03161461110c5760405162461bcd60e51b815260040161021a90613adb565b61111581612657565b50565b600061113183836111276127eb565b610bf5878761123f565b90505b92915050565b60026000540361115c5760405162461bcd60e51b815260040161021a90613875565b6002600055603654604051635061f96960e11b81526001600160a01b0380851660048301528492169063a0c3f2d290602401602060405180830381865afa1580156111ab573d6000803e3d6000fd5b505050506040513d601f19601f820116820180604052508101906111cf91906138ac565b6111eb5760405162461bcd60e51b815260040161021a906138ce565b6001600160a01b03841660009081526037602052604090203390611210908285612384565b6001600160a01b03841660009081526037602052604090206112339082856126f6565b50506001600055505050565b6001600160a01b0391821660009081526037602090815260408083209390941682526004909201909152205490565b6112766127bd565b6001600160a01b0316336001600160a01b0316146112a65760405162461bcd60e51b815260040161021a90613adb565b6111158161268c565b6060816001600160401b038111156112c9576112c961381a565b6040519080825280602002602001820160405280156112f2578160200160208202803683370190505b50905060005b82811015610d025761132a84848381811061131557611315613830565b905060200201602081019061043d919061355b565b82828151811061133c5761133c613830565b6020908102919091010152806113518161385c565b9150506112f8565b603654604051635061f96960e11b81526001600160a01b0380861660048301528592169063a0c3f2d290602401602060405180830381865afa1580156113a3573d6000803e3d6000fd5b505050506040513d601f19601f820116820180604052508101906113c791906138ac565b6113e35760405162461bcd60e51b815260040161021a906138ce565b6001600160a01b0380851660009081526037602052604090206001810154909133911681146114245760405162461bcd60e51b815260040161021a90613916565b60365460405163e5125a1d60e01b81526001600160a01b03888116600483015260248201889052604482018790529091169063e5125a1d90606401600060405180830381600087803b15801561147957600080fd5b505af115801561148d573d6000803e3d6000fd5b50505050505050505050565b6002600054036114bb5760405162461bcd60e51b815260040161021a90613875565b600260005582158015906114ce57508281145b6115295760405162461bcd60e51b815260206004820152602660248201527f44656c656761746f725374616b696e673a20696e76616c6964206172726179206044820152650d8cadccee8d60d31b606482015260840161021a565b336000805b858110156115db5784848281811061154857611548613830565b905060200201358261155a9190613b1d565b91506115c96037600089898581811061157557611575613830565b905060200201602081019061158a919061355b565b6001600160a01b03166001600160a01b03168152602001908152602001600020848787858181106115bd576115bd613830565b90506020020135612384565b806115d38161385c565b91505061152e565b506115e6828261259c565b6116025760405162461bcd60e51b815260040161021a906139bf565b5050600160005550505050565b6116176127bd565b6001600160a01b0316336001600160a01b0316146116475760405162461bcd60e51b815260040161021a90613adb565b611115816126c1565b603654604051635061f96960e11b81526001600160a01b038084166004830152600092839283928692169063a0c3f2d290602401602060405180830381865afa1580156116a1573d6000803e3d6000fd5b505050506040513d601f19601f820116820180604052508101906116c591906138ac565b6116e15760405162461bcd60e51b815260040161021a906138ce565b505050506001600160a01b03908116600090815260376020526040902060018101546002820154600390920154921692909190565b6002600054036117385760405162461bcd60e51b815260040161021a90613875565b6002600055603654604051635061f96960e11b81526001600160a01b0380851660048301528492169063a0c3f2d290602401602060405180830381865afa158015611787573d6000803e3d6000fd5b505050506040513d601f19601f820116820180604052508101906117ab91906138ac565b6117c75760405162461bcd60e51b815260040161021a906138ce565b600082116118175760405162461bcd60e51b815260206004820181905260248201527f43616e6469646174655374616b696e673a20696e76616c696420616d6f756e74604482015260640161021a565b6001600160a01b03831660009081526037602052604081206002810154339290611842908690613b30565b9050606c548110156118ac5760405162461bcd60e51b815260206004820152602d60248201527f43616e6469646174655374616b696e673a20696e76616c6964207374616b696e60448201526c19c8185b5bdd5b9d081b19599d609a1b606482015260840161021a565b6118b782848761285d565b6118c1838661259c565b6116025760405162461bcd60e51b815260206004820152602860248201527f43616e6469646174655374616b696e673a20636f756c64206e6f74207472616e60448201526739b332b9102927a760c11b606482015260840161021a565b6000336119336036546001600160a01b031690565b6001600160a01b0316146119595760405162461bcd60e51b815260040161021a9061338f565b6001600160a01b038316600090815260376020526040902061197b90836129f0565b905060006119916036546001600160a01b031690565b905061199d8183612a8e565b610d0257604080518381524760208201526001600160a01b0380841692908716917f63701cd972aa3c7f87898aab145c972e52185beab07d6e39380a998d334cf6c8910160405180910390a35092915050565b6119f86127bd565b6001600160a01b0316336001600160a01b031614611a285760405162461bcd60e51b815260040161021a90613adb565b6000816001600160a01b03163b11611a945760405162461bcd60e51b815260206004820152602960248201527f48617356616c696461746f72436f6e74726163743a2073657420746f206e6f6e6044820152680b58dbdb9d1c9858dd60ba1b606482015260840161021a565b61111581612602565b600260005403611abf5760405162461bcd60e51b815260040161021a90613875565b60026000553433611ad581888888888888612aea565b6001600160a01b0380871660008181526037602052604090206001810180549385166001600160a01b03199485161790558054909216178155611b19818385611d57565b816001600160a01b0316876001600160a01b03167ffc1f1e73948cbc47c5b7f90e5601b7daccd9ad7173218486ccc74bdd051d05e860405160405180910390a350506001600055505050505050565b33611b7b6036546001600160a01b031690565b6001600160a01b031614611ba15760405162461bcd60e51b815260040161021a9061338f565b8015610a6a576000805b82811015611c9257600060376000868685818110611bcb57611bcb613830565b9050602002016020810190611be0919061355b565b6001600160a01b0316815260208101919091526040016000206002810154935090508215611c7f57611c1281846129f0565b506001810154611c2b906001600160a01b031684612a8e565b611c7f5760018101548154604080518681524760208201526001600160a01b0393841693909216917f7dc5115a5aba081f5a174f56a3d02eea582824783322a4ac03f7bd388f444194910160405180910390a35b5080611c8a8161385c565b915050611bab565b507f4f257d3ba23679d338f1d94296086bba5724af341b7fa31aa0ff297bfcdc62d88383604051611cc4929190613b43565b60405180910390a1505050565b6000600260005403611cf55760405162461bcd60e51b815260040161021a90613875565b6002600055611d05338484612e45565b9050611d113382612ea7565b600160005592915050565b6000611d29858585612e45565b6001600160a01b0383166000908152603760205260409020909150611d4f9086836126f6565b949350505050565b6001830154839083906001600160a01b03808316911614611d8a5760405162461bcd60e51b815260040161021a90613916565b82856002016000828254611d9e9190613b1d565b92505081905550611dc485858760020154868960030154611dbf9190613b1d565b612f2e565b6001600160a01b03808516600090815260058701602052604090819020429055865490519116907f9e71bc8eea02a63969f509818f2dafb9254532904319f9dbda79b67bd34a5f3d90611e1a9086815260200190565b60405180910390a25050505050565b83518214611e7257807fae52c603227f64e4c6101dde593aa9790a16b3ac77546bd746d758511e9560a5858585604051611e6593929190613bca565b60405180910390a261225c565b600080600080600088516001600160401b03811115611e9357611e9361381a565b604051908082528060200260200182016040528015611ebc578160200160208202803683370190505b509050600089516001600160401b03811115611eda57611eda61381a565b604051908082528060200260200182016040528015611f03578160200160208202803683370190505b50905060008a516001600160401b03811115611f2157611f2161381a565b604051908082528060200260200182016040528015611f4a578160200160208202803683370190505b50905060005b8b518110156121c7578b8181518110611f6b57611f6b613830565b6020908102919091018101516001600160a01b038116600090815260038084526040808320603790955290912001549097506001600160a01b03881660009081526001602081815260408084208f855290915290912001549096508a900361201157868389611fd98161385c565b9a5081518110611feb57611feb613830565b60200260200101906001600160a01b031690816001600160a01b031681525050506121b5565b60028101548a111561203f57604080518082019091528681526020018a905260018101869055600281018a90555b6001810154156120895760018101548c8c8481811061206057612060613830565b90506020020135670de0b6b3a764000061207a9190613c14565b6120849190613c2b565b61208c565b60005b9850888160000160008282546120a29190613b1d565b91829055509050856120b48a85613b30565b815181106120c4576120c4613830565b6020026020010181815250506040518060400160405280826000015481526020018b81525060016000896001600160a01b03166001600160a01b0316815260200190815260200160002060008c815260200190815260200160002060008201518160000155602082015181600101559050508581600101600001541461214c57600181018690555b60018101548461215c8a85613b30565b8151811061216c5761216c613830565b6020908102919091010152868d6121838a85613b30565b8151811061219357612193613830565b60200260200101906001600160a01b031690816001600160a01b031681525050505b806121bf8161385c565b915050611f50565b50851561221057858152858b51038b52877fee74f10cc50bf4b7e57fd36be7d46288795f3a9151dae97505b718b392ba14a3826040516122079190613c4d565b60405180910390a25b8a511561225457877f0e54e0485f70f0f63bc25889ddbf01ce1269ad6f07fdb2df573a0fbdb4d66f888c858560405161224b93929190613c60565b60405180910390a25b505050505050505b50505050565b6001600160a01b0380851660009081526002602090815260408083209387168352929052908120600381015484900361229d57549050611d4f565b6001600160a01b038616600090815260036020818152604080842060018084528286209487015486529390925283209182015483929015612328576001600160a01b038a16600090815260016020818152604080842060038a0154855290915290912054908601549094506123129085613b30565b85600201546123219190613c14565b9250612330565b846001015493505b8154600090612340908690613b30565b61234a9089613c14565b9050670de0b6b3a764000061235f8286613b1d565b6123699190613c2b565b86546123759190613b1d565b9b9a5050505050505050505050565b6001830154839083906001600160a01b038083169116036123b75760405162461bcd60e51b815260040161021a90613ca3565b600083116124075760405162461bcd60e51b815260206004820181905260248201527f44656c656761746f725374616b696e673a20696e76616c696420616d6f756e74604482015260640161021a565b6001600160a01b038416600090815260048601602052604090205483111561248d5760405162461bcd60e51b815260206004820152603360248201527f44656c656761746f725374616b696e673a20696e73756666696369656e7420616044820152726d6f756e7420746f20756e64656c656761746560681b606482015260840161021a565b6038546001600160a01b038516600090815260058701602052604090205442916124b691613b1d565b106125125760405162461bcd60e51b815260206004820152602660248201527f44656c656761746f725374616b696e673a20756e64656c656761746520746f6f604482015265206561726c7960d01b606482015260840161021a565b6001600160a01b03841660009081526004860160205260409020546125509086908690612540908790613b30565b868960030154611dbf9190613b30565b84546040518481526001600160a01b03918216918616907f4d10bd049775c77bd7f255195afba5088028ecb3c7c277d393ccff7934f2f92c906020015b60405180910390a35050505050565b6000814710156125f85760405162461bcd60e51b815260206004820152602160248201527f524f4e5472616e736665723a20696e73756666696369656e742062616c616e636044820152606560f81b606482015260840161021a565b6111318383612a8e565b603680546001600160a01b0319166001600160a01b0383169081179091556040519081527fef40dc07567635f84f5edbd2f8dbc16b40d9d282dd8e7e6f4ff58236b6836169906020015b60405180910390a150565b606c8190556040518181527f372bbdb8d72373b0012f84ee5a11671e5fb72b8bea902ebca93a19cb45d32be29060200161264c565b60388190556040518181527f4956b65267b8f1e642284bcb5037116c69a9c78d9ca576beeae0974737a4872a9060200161264c565b60398190556040518181527f02be0b73b597f2c0f138aebee162b3b0e25d5b5a26854c15dcf79176e9a1c6789060200161264c565b6001830154839083906001600160a01b038083169116036127295760405162461bcd60e51b815260040161021a90613ca3565b6001600160a01b03841660009081526004860160205260409020546127679086908690612757908790613b1d565b868960030154611dbf9190613b1d565b6001600160a01b03808516600081815260058801602052604090819020429055875490519216917fe5541a6b6103d4fa7e021ed54fad39c66f27a76bd13d374cf6240ae6bd0bb72b9061258d9087815260200190565b7fb53127684a568b3173ae13b9f8a6016e243e63b6e8ee1178d6a717850b5d6103546001600160a01b031690565b6036546040805162c080c360e31b815290516000926001600160a01b03169163060406189160048083019260209291908290030181865afa158015612834573d6000803e3d6000fd5b505050506040513d601f19601f8201168201806040525081019061285891906139a6565b905090565b6001830154839083906001600160a01b038083169116146128905760405162461bcd60e51b815260040161021a90613916565b84600201548311156128fa5760405162461bcd60e51b815260206004820152602d60248201527f43616e6469646174655374616b696e673a20696e73756666696369656e74207360448201526c1d185ada5b99c8185b5bdd5b9d609a1b606482015260840161021a565b6038546001600160a01b0385166000908152600587016020526040902054429161292391613b1d565b111561297d5760405162461bcd60e51b815260206004820152602360248201527f43616e6469646174655374616b696e673a20756e7374616b6520746f6f206561604482015262726c7960e81b606482015260840161021a565b828560020160008282546129919190613b30565b925050819055506129b285858760020154868960030154611dbf9190613b30565b84546040518481526001600160a01b03909116907f0f5bb82176feb1b5e747e28471aa92156a04d9f3ab9f45f28e2d704232b93f7590602001611e1a565b6000612a00836002015483612f69565b905080836002016000828254612a169190613b30565b9091555050600183015460028401546003850154612a479286926001600160a01b0390911691611dbf908690613b30565b82546040518281526001600160a01b03909116907f0f5bb82176feb1b5e747e28471aa92156a04d9f3ab9f45f28e2d704232b93f759060200160405180910390a292915050565b6000826001600160a01b03168260405160006040518083038185875af1925050503d8060008114612adb576040519150601f19603f3d011682016040523d82523d6000602084013e612ae0565b606091505b5090949350505050565b612af587600061259c565b612b595760405162461bcd60e51b815260206004820152602f60248201527f43616e6469646174655374616b696e673a20706f6f6c2061646d696e2063616e60448201526e3737ba103932b1b2b4bb32902927a760891b606482015260840161021a565b612b6484600061259c565b612bc65760405162461bcd60e51b815260206004820152602d60248201527f43616e6469646174655374616b696e673a2074726561737572792063616e6e6f60448201526c3a103932b1b2b4bb32902927a760991b606482015260840161021a565b606c54811015612c265760405162461bcd60e51b815260206004820152602560248201527f43616e6469646174655374616b696e673a20696e73756666696369656e7420616044820152641b5bdd5b9d60da1b606482015260840161021a565b60408051600580825260c082019092526000916020820160a0803683370190505090508781600081518110612c5d57612c5d613830565b60200260200101906001600160a01b031690816001600160a01b0316815250508681600181518110612c9157612c91613830565b60200260200101906001600160a01b031690816001600160a01b0316815250508581600281518110612cc557612cc5613830565b60200260200101906001600160a01b031690816001600160a01b0316815250508481600381518110612cf957612cf9613830565b60200260200101906001600160a01b031690816001600160a01b0316815250508381600481518110612d2d57612d2d613830565b60200260200101906001600160a01b031690816001600160a01b031681525050612d5681612f7f565b15612dbd5760405162461bcd60e51b815260206004820152603160248201527f43616e6469646174655374616b696e673a206669766520616464726573736573604482015270081b5d5cdd08189948191a5cdd1a5b98dd607a1b606482015260840161021a565b603654604051630733ec9760e41b81526001600160a01b038981166004830152888116602483015287811660448301528681166064830152608482018690529091169063733ec9709060a401600060405180830381600087803b158015612e2357600080fd5b505af1158015612e37573d6000803e3d6000fd5b505050505050505050505050565b6000805b82811015612e9f57612e81848483818110612e6657612e66613830565b9050602002016020810190612e7b919061355b565b86613046565b612e8b9083613b1d565b915080612e978161385c565b915050612e49565b509392505050565b612eb1828261259c565b610a6a5760405162461bcd60e51b815260206004820152604260248201527f524f4e5472616e736665723a20756e61626c6520746f207472616e736665722060448201527f76616c75652c20726563697069656e74206d6179206861766520726576657274606482015261195960f21b608482015260a40161021a565b8354612f44906001600160a01b0316848461312e565b60038401556001600160a01b0390911660009081526004909201602052604090912055565b6000818310612f785781611131565b5090919050565b60008151600003612f9257506000919050565b60005b60018351612fa39190613b30565b81101561303d576000612fb7826001613b1d565b90505b835181101561302a57838181518110612fd557612fd5613830565b60200260200101516001600160a01b0316848381518110612ff857612ff8613830565b60200260200101516001600160a01b031603613018575060019392505050565b806130228161385c565b915050612fba565b50806130358161385c565b915050612f95565b50600092915050565b6000806130516127eb565b9050613063848483610bf5888861123f565b9150826001600160a01b0316846001600160a01b03167f0aa4d283470c904c551d18bb894d37e17674920f3261a7f854be501e25f421b7846040516130aa91815260200190565b60405180910390a36001600160a01b0384811660008181526002602090815260408083209488168084529482528083208381556003808201889055858552835281842054600182015590519283529392917faa7c29611027fd4be148712bb54960253b7a7d5998c17769bfc424c2f5f185ad910160405180910390a3505092915050565b60006131386127eb565b6001600160a01b03851660009081526003602052604090206001810154600282015492935090918311156131ac576040518060400160405280613193886001600160a01b031660009081526037602052604090206003015490565b8152602090810185905281516001850155015160028301555b6001600160a01b0380871660009081526002602090815260408083209389168352929052908120906131de888861123f565b905060006131ee89898885612262565b83549091508114613240578083556040518181526001600160a01b0389811691908b16907faa7c29611027fd4be148712bb54960253b7a7d5998c17769bfc424c2f5f185ad9060200160405180910390a35b61324d8584888a866132bf565b84546001808501919091556003840187905585015484146132b457886001600160a01b0316867f81faf50e2aaf52eaba2ab841071efb9f6f0850a3e7d008b1336e6001d3d4963c87600101600001546040516132ab91815260200190565b60405180910390a35b505050505050505050565b82846003015410156132d357600284018190555b60006132e3856002015484612f69565b905060008186600201546132f79190613b30565b90508015613386576002860182905560018701548111156133695760405162461bcd60e51b815260206004820152602660248201527f52657761726443616c63756c6174696f6e3a20696e76616c696420706f6f6c2060448201526573686172657360d01b606482015260840161021a565b808760010160000160008282546133809190613b30565b90915550505b50505050505050565b6020808252603e908201527f48617356616c696461746f72436f6e74726163743a206d6574686f642063616c60408201527f6c6572206d7573742062652076616c696461746f7220636f6e74726163740000606082015260800190565b60008083601f8401126133fe57600080fd5b5081356001600160401b0381111561341557600080fd5b6020830191508360208260051b850101111561343057600080fd5b9250929050565b6000806000806040858703121561344d57600080fd5b84356001600160401b038082111561346457600080fd5b613470888389016133ec565b9096509450602087013591508082111561348957600080fd5b50613496878288016133ec565b95989497509550505050565b600081518084526020808501945080840160005b838110156134d2578151875295820195908201906001016134b6565b509495945050505050565b60208152600061113160208301846134a2565b6001600160a01b038116811461111557600080fd5b60008060006040848603121561351a57600080fd5b83356001600160401b0381111561353057600080fd5b61353c868287016133ec565b9094509250506020840135613550816134f0565b809150509250925092565b60006020828403121561356d57600080fd5b8135613578816134f0565b9392505050565b60008060008060006060868803121561359757600080fd5b85356001600160401b03808211156135ae57600080fd5b6135ba89838a016133ec565b909750955060208801359150808211156135d357600080fd5b506135e0888289016133ec565b96999598509660400135949350505050565b60008060006040848603121561360757600080fd5b8335613612816134f0565b925060208401356001600160401b0381111561362d57600080fd5b613639868287016133ec565b9497909650939450505050565b6000806020838503121561365957600080fd5b82356001600160401b0381111561366f57600080fd5b61367b858286016133ec565b90969095509350505050565b6000806040838503121561369a57600080fd5b82356136a5816134f0565b946020939093013593505050565b600080600080608085870312156136c957600080fd5b84356136d4816134f0565b966020860135965060408601359560600135945092505050565b60006020828403121561370057600080fd5b5035919050565b6000806040838503121561371a57600080fd5b8235613725816134f0565b91506020830135613735816134f0565b809150509250929050565b60008060006060848603121561375557600080fd5b8335613760816134f0565b92506020840135613770816134f0565b929592945050506040919091013590565b60008060006060848603121561379657600080fd5b83356137a1816134f0565b95602085013595506040909401359392505050565b600080600080600060a086880312156137ce57600080fd5b85356137d9816134f0565b945060208601356137e9816134f0565b935060408601356137f9816134f0565b92506060860135613809816134f0565b949793965091946080013592915050565b634e487b7160e01b600052604160045260246000fd5b634e487b7160e01b600052603260045260246000fd5b634e487b7160e01b600052601160045260246000fd5b60006001820161386e5761386e613846565b5060010190565b6020808252601f908201527f5265656e7472616e637947756172643a207265656e7472616e742063616c6c00604082015260600190565b6000602082840312156138be57600080fd5b8151801515811461357857600080fd5b60208082526028908201527f426173655374616b696e673a20717565727920666f72206e6f6e2d6578697374604082015267195b9d081c1bdbdb60c21b606082015260800190565b6020808252602d908201527f426173655374616b696e673a20726571756573746572206d757374206265207460408201526c3432903837b7b61030b236b4b760991b606082015260800190565b60208082526023908201527f426173655374616b696e673a207175657279207769746820656d7074792076616040820152626c756560e81b606082015260800190565b6000602082840312156139b857600080fd5b5051919050565b60208082526028908201527f44656c656761746f725374616b696e673a20636f756c64206e6f74207472616e60408201526739b332b9102927a760c11b606082015260800190565b8051613a12816134f0565b919050565b60006020808385031215613a2a57600080fd5b82516001600160401b0380821115613a4157600080fd5b818501915085601f830112613a5557600080fd5b815181811115613a6757613a6761381a565b8060051b604051601f19603f83011681018181108582111715613a8c57613a8c61381a565b604052918252848201925083810185019188831115613aaa57600080fd5b938501935b82851015613acf57613ac085613a07565b84529385019392850192613aaf565b98975050505050505050565b60208082526022908201527f48617350726f787941646d696e3a20756e617574686f72697a65642073656e6460408201526132b960f11b606082015260800190565b8082018082111561113457611134613846565b8181038181111561113457611134613846565b60208082528181018390526000908460408401835b86811015613b86578235613b6b816134f0565b6001600160a01b031682529183019190830190600101613b58565b509695505050505050565b600081518084526020808501945080840160005b838110156134d25781516001600160a01b031687529582019590820190600101613ba5565b604081526000613bdd6040830186613b91565b82810360208401528381526001600160fb1b03841115613bfc57600080fd5b8360051b808660208401370160200195945050505050565b808202811582820484141761113457611134613846565b600082613c4857634e487b7160e01b600052601260045260246000fd5b500490565b6020815260006111316020830184613b91565b606081526000613c736060830186613b91565b8281036020840152613c8581866134a2565b90508281036040840152613c9981856134a2565b9695505050505050565b60208082526031908201527f426173655374616b696e673a2064656c656761746f72206d757374206e6f74206040820152703132903a3432903837b7b61030b236b4b760791b60608201526080019056fea26469706673582212201a694a930b578da6430248a1574eb61c187db0cdbdf1e57c436ae92bb825bf5664736f6c63430008110033",
  "devdoc": {
    "kind": "dev",
    "methods": {
      "applyValidatorCandidate(address,address,address,address,uint256)": {
        "details": "Proposes a candidate to become a validator. Requirements: - The method caller is able to receive RON. - The treasury is able to receive RON. - The amount is larger than or equal to the minimum validator staking amount `minValidatorStakingAmount()`. Emits the event `PoolApproved`.",
        "params": {
          "_candidateAdmin": "the candidate admin will be stored in the validator contract, used for calling function that affects to its candidate, e.g. scheduling maintenance."
        }
      },
      "bulkUndelegate(address[],uint256[])": {
        "details": "Bulk unstakes from a list of candidates. Requirements: - The method caller is not the pool admin. Emits the events `Undelegated`."
      },
      "claimRewards(address[])": {
        "details": "Claims the reward of method caller. Emits the `RewardClaimed` event."
      },
      "cooldownSecsToUndelegate()": {
        "details": "Returns The cooldown time in seconds to undelegate from the last timestamp (s)he delegated."
      },
      "deductStakingAmount(address,uint256)": {
        "details": "Deducts from staking amount of the validator `_consensusAddr` for `_amount`. Requirements: - The method caller is validator contract. Emits the event `Unstaked`."
      },
      "delegate(address)": {
        "details": "Stakes for a validator candidate `_consensusAddr`. Requirements: - The consensus address is a validator candidate. - The method caller is not the pool admin. Emits the `Delegated` event."
      },
      "delegateRewards(address[],address)": {
        "details": "Claims the rewards and delegates them to the consensus address. Requirements: - The method caller is not the pool admin. - The consensus address `_consensusAddrDst` is a validator candidate. Emits the `RewardClaimed` event and the `Delegated` event."
      },
      "deprecatePools(address[])": {
        "details": "Deprecates the pool. Requirements: - The method caller is validator contract. Emits the event `PoolsDeprecated` and `Unstaked` events. Emits the event `StakingAmountTransferFailed` if the contract cannot transfer RON back to the pool admin."
      },
      "getManySelfStakings(address[])": {
        "details": "Returns the self-staking amounts of the pools."
      },
      "getManyStakingAmounts(address[],address[])": {
        "details": "Returns the staking amounts of the users."
      },
      "getManyStakingTotals(address[])": {
        "details": "Returns the total staking amounts of all users for the pools `_poolAddrs`."
      },
      "getReward(address,address)": {
        "details": "Returns the reward amount that user claimable."
      },
      "getRewards(address,address[])": {
        "details": "Returns the claimable reward of the user `_user`."
      },
      "getStakingAmount(address,address)": {
        "details": "Returns the staking amount of an user."
      },
      "getStakingPool(address)": {
        "details": "Returns the staking pool detail."
      },
      "getStakingTotal(address)": {
        "details": "Returns the total staking amount of all users for a pool."
      },
      "initialize(address,uint256,uint256,uint256)": {
        "details": "Initializes the contract storage."
      },
      "minValidatorStakingAmount()": {
        "details": "Returns the minimum threshold for being a validator candidate."
      },
      "recordRewards(address[],uint256[],uint256)": {
        "details": "Records the amount of rewards `_rewards` for the pools `_consensusAddrs`. Requirements: - The method caller is validator contract. Emits the event `PoolsUpdated` once the contract recorded the rewards successfully. Emits the event `PoolsUpdateFailed` once the input array lengths are not equal. Emits the event `PoolsUpdateConflicted` when there are some pools which already updated in the period. Note: This method should be called once at the period ending."
      },
      "redelegate(address,address,uint256)": {
        "details": "Unstakes an amount of RON from the `_consensusAddrSrc` and stake for `_consensusAddrDst`. Requirements: - The method caller is not the pool admin. - The consensus address `_consensusAddrDst` is a validator candidate. Emits the `Undelegated` event and the `Delegated` event."
      },
      "requestRenounce(address)": {
        "details": "Renounces being a validator candidate and takes back the delegating/staking amount. Requirements: - The consensus address is a validator candidate. - The method caller is the pool admin."
      },
      "requestUpdateCommissionRate(address,uint256,uint256)": {
        "details": "Pool admin requests update validator commission rate. The request will be forwarded to the candidate manager contract, and the value is getting updated in {ICandidateManager-execRequestUpdateCommissionRate}. Requirements: - The consensus address is a validator candidate. - The method caller is the pool admin. - The `_effectiveDaysOnwards` must be equal to or larger than the {CandidateManager-_minEffectiveDaysOnwards}. - The `_rate` must be in range of [0_00; 100_00]. Emits the event `CommissionRateUpdated`."
      },
      "setCooldownSecsToUndelegate(uint256)": {
        "details": "Sets the cooldown time in seconds to undelegate from the last timestamp (s)he delegated. Requirements: - The method caller is admin. Emits the event `CooldownSecsToUndelegateUpdated`."
      },
      "setMinValidatorStakingAmount(uint256)": {
        "details": "Sets the minimum threshold for being a validator candidate. Requirements: - The method caller is admin. Emits the `MinValidatorStakingAmountUpdated` event."
      },
      "setValidatorContract(address)": {
        "details": "Sets the validator contract. Requirements: - The method caller is admin. - The new address is a contract. Emits the event `ValidatorContractUpdated`."
      },
      "setWaitingSecsToRevoke(uint256)": {
        "details": "Sets the number of seconds that a candidate must wait to be revoked. Requirements: - The method caller is admin. Emits the event `WaitingSecsToRevokeUpdated`."
      },
      "stake(address)": {
        "details": "Self-delegates to the validator candidate `_consensusAddr`. Requirements: - The consensus address is a validator candidate. - The method caller is the pool admin. - The `msg.value` is larger than 0. Emits the event `Staked`."
      },
      "undelegate(address,uint256)": {
        "details": "Unstakes from a validator candidate `_consensusAddr` for `_amount`. Requirements: - The method caller is not the pool admin. Emits the `Undelegated` event."
      },
      "unstake(address,uint256)": {
        "details": "Unstakes from the validator candidate `_consensusAddr` for `_amount`. Requirements: - The consensus address is a validator candidate. - The method caller is the pool admin. Emits the event `Unstaked`."
      },
      "validatorContract()": {
        "details": "Returns the validator contract."
      },
      "waitingSecsToRevoke()": {
        "details": "Returns the number of seconds that a candidate must wait for the renounce request gets affected."
      }
    },
    "version": 1
  },
  "userdoc": {
    "kind": "user",
    "methods": {},
    "version": 1
  },
  "storageLayout": {
    "storage": [
      {
        "astId": 1636,
        "contract": "contracts/ronin/staking/Staking.sol:Staking",
        "label": "_status",
        "offset": 0,
        "slot": "0",
        "type": "t_uint256"
      },
      {
        "astId": 24718,
        "contract": "contracts/ronin/staking/Staking.sol:Staking",
        "label": "_accumulatedRps",
        "offset": 0,
        "slot": "1",
        "type": "t_mapping(t_address,t_mapping(t_uint256,t_struct(PeriodWrapper)9813_storage))"
      },
      {
        "astId": 24726,
        "contract": "contracts/ronin/staking/Staking.sol:Staking",
        "label": "_userReward",
        "offset": 0,
        "slot": "2",
        "type": "t_mapping(t_address,t_mapping(t_address,t_struct(UserRewardFields)10440_storage))"
      },
      {
        "astId": 24732,
        "contract": "contracts/ronin/staking/Staking.sol:Staking",
        "label": "_stakingPool",
        "offset": 0,
        "slot": "3",
        "type": "t_mapping(t_address,t_struct(PoolFields)10446_storage)"
      },
      {
        "astId": 24737,
        "contract": "contracts/ronin/staking/Staking.sol:Staking",
        "label": "______gap",
        "offset": 0,
        "slot": "4",
        "type": "t_array(t_uint256)50_storage"
      },
      {
        "astId": 6398,
        "contract": "contracts/ronin/staking/Staking.sol:Staking",
        "label": "_validatorContract",
        "offset": 0,
        "slot": "54",
        "type": "t_contract(IRoninValidatorSet)10935"
      },
      {
        "astId": 23279,
        "contract": "contracts/ronin/staking/Staking.sol:Staking",
        "label": "_stakingPool",
        "offset": 0,
        "slot": "55",
        "type": "t_mapping(t_address,t_struct(PoolDetail)10178_storage)"
      },
      {
        "astId": 23282,
        "contract": "contracts/ronin/staking/Staking.sol:Staking",
        "label": "_cooldownSecsToUndelegate",
        "offset": 0,
        "slot": "56",
        "type": "t_uint256"
      },
      {
        "astId": 23285,
        "contract": "contracts/ronin/staking/Staking.sol:Staking",
        "label": "_waitingSecsToRevoke",
        "offset": 0,
        "slot": "57",
        "type": "t_uint256"
      },
      {
        "astId": 23290,
        "contract": "contracts/ronin/staking/Staking.sol:Staking",
        "label": "______gap",
        "offset": 0,
        "slot": "58",
        "type": "t_array(t_uint256)50_storage"
      },
      {
        "astId": 23613,
        "contract": "contracts/ronin/staking/Staking.sol:Staking",
        "label": "_minValidatorStakingAmount",
        "offset": 0,
        "slot": "108",
        "type": "t_uint256"
      },
      {
        "astId": 23618,
        "contract": "contracts/ronin/staking/Staking.sol:Staking",
        "label": "______gap",
        "offset": 0,
        "slot": "109",
        "type": "t_array(t_uint256)50_storage"
      },
      {
        "astId": 24194,
        "contract": "contracts/ronin/staking/Staking.sol:Staking",
        "label": "______gap",
        "offset": 0,
        "slot": "159",
        "type": "t_array(t_uint256)50_storage"
      },
      {
        "astId": 1373,
        "contract": "contracts/ronin/staking/Staking.sol:Staking",
        "label": "_initialized",
        "offset": 0,
        "slot": "209",
        "type": "t_uint8"
      },
      {
        "astId": 1376,
        "contract": "contracts/ronin/staking/Staking.sol:Staking",
        "label": "_initializing",
        "offset": 1,
        "slot": "209",
        "type": "t_bool"
      }
    ],
    "types": {
      "t_address": {
        "encoding": "inplace",
        "label": "address",
        "numberOfBytes": "20"
      },
      "t_array(t_uint256)50_storage": {
        "base": "t_uint256",
        "encoding": "inplace",
        "label": "uint256[50]",
        "numberOfBytes": "1600"
      },
      "t_bool": {
        "encoding": "inplace",
        "label": "bool",
        "numberOfBytes": "1"
      },
      "t_contract(IRoninValidatorSet)10935": {
        "encoding": "inplace",
        "label": "contract IRoninValidatorSet",
        "numberOfBytes": "20"
      },
      "t_mapping(t_address,t_mapping(t_address,t_struct(UserRewardFields)10440_storage))": {
        "encoding": "mapping",
        "key": "t_address",
        "label": "mapping(address => mapping(address => struct IRewardPool.UserRewardFields))",
        "numberOfBytes": "32",
        "value": "t_mapping(t_address,t_struct(UserRewardFields)10440_storage)"
      },
      "t_mapping(t_address,t_mapping(t_uint256,t_struct(PeriodWrapper)9813_storage))": {
        "encoding": "mapping",
        "key": "t_address",
        "label": "mapping(address => mapping(uint256 => struct PeriodWrapperConsumer.PeriodWrapper))",
        "numberOfBytes": "32",
        "value": "t_mapping(t_uint256,t_struct(PeriodWrapper)9813_storage)"
      },
      "t_mapping(t_address,t_struct(PoolDetail)10178_storage)": {
        "encoding": "mapping",
        "key": "t_address",
        "label": "mapping(address => struct IBaseStaking.PoolDetail)",
        "numberOfBytes": "32",
        "value": "t_struct(PoolDetail)10178_storage"
      },
      "t_mapping(t_address,t_struct(PoolFields)10446_storage)": {
        "encoding": "mapping",
        "key": "t_address",
        "label": "mapping(address => struct IRewardPool.PoolFields)",
        "numberOfBytes": "32",
        "value": "t_struct(PoolFields)10446_storage"
      },
      "t_mapping(t_address,t_struct(UserRewardFields)10440_storage)": {
        "encoding": "mapping",
        "key": "t_address",
        "label": "mapping(address => struct IRewardPool.UserRewardFields)",
        "numberOfBytes": "32",
        "value": "t_struct(UserRewardFields)10440_storage"
      },
      "t_mapping(t_address,t_uint256)": {
        "encoding": "mapping",
        "key": "t_address",
        "label": "mapping(address => uint256)",
        "numberOfBytes": "32",
        "value": "t_uint256"
      },
      "t_mapping(t_uint256,t_struct(PeriodWrapper)9813_storage)": {
        "encoding": "mapping",
        "key": "t_uint256",
        "label": "mapping(uint256 => struct PeriodWrapperConsumer.PeriodWrapper)",
        "numberOfBytes": "32",
        "value": "t_struct(PeriodWrapper)9813_storage"
      },
      "t_struct(PeriodWrapper)9813_storage": {
        "encoding": "inplace",
        "label": "struct PeriodWrapperConsumer.PeriodWrapper",
        "members": [
          {
            "astId": 9810,
            "contract": "contracts/ronin/staking/Staking.sol:Staking",
            "label": "inner",
            "offset": 0,
            "slot": "0",
            "type": "t_uint256"
          },
          {
            "astId": 9812,
            "contract": "contracts/ronin/staking/Staking.sol:Staking",
            "label": "lastPeriod",
            "offset": 0,
            "slot": "1",
            "type": "t_uint256"
          }
        ],
        "numberOfBytes": "64"
      },
      "t_struct(PoolDetail)10178_storage": {
        "encoding": "inplace",
        "label": "struct IBaseStaking.PoolDetail",
        "members": [
          {
            "astId": 10163,
            "contract": "contracts/ronin/staking/Staking.sol:Staking",
            "label": "addr",
            "offset": 0,
            "slot": "0",
            "type": "t_address"
          },
          {
            "astId": 10165,
            "contract": "contracts/ronin/staking/Staking.sol:Staking",
            "label": "admin",
            "offset": 0,
            "slot": "1",
            "type": "t_address"
          },
          {
            "astId": 10167,
            "contract": "contracts/ronin/staking/Staking.sol:Staking",
            "label": "stakingAmount",
            "offset": 0,
            "slot": "2",
            "type": "t_uint256"
          },
          {
            "astId": 10169,
            "contract": "contracts/ronin/staking/Staking.sol:Staking",
            "label": "stakingTotal",
            "offset": 0,
            "slot": "3",
            "type": "t_uint256"
          },
          {
            "astId": 10173,
            "contract": "contracts/ronin/staking/Staking.sol:Staking",
            "label": "delegatingAmount",
            "offset": 0,
            "slot": "4",
            "type": "t_mapping(t_address,t_uint256)"
          },
          {
            "astId": 10177,
            "contract": "contracts/ronin/staking/Staking.sol:Staking",
            "label": "lastDelegatingTimestamp",
            "offset": 0,
            "slot": "5",
            "type": "t_mapping(t_address,t_uint256)"
          }
        ],
        "numberOfBytes": "192"
      },
      "t_struct(PoolFields)10446_storage": {
        "encoding": "inplace",
        "label": "struct IRewardPool.PoolFields",
        "members": [
          {
            "astId": 10442,
            "contract": "contracts/ronin/staking/Staking.sol:Staking",
            "label": "aRps",
            "offset": 0,
            "slot": "0",
            "type": "t_uint256"
          },
          {
            "astId": 10445,
            "contract": "contracts/ronin/staking/Staking.sol:Staking",
            "label": "shares",
            "offset": 0,
            "slot": "1",
            "type": "t_struct(PeriodWrapper)9813_storage"
          }
        ],
        "numberOfBytes": "96"
      },
      "t_struct(UserRewardFields)10440_storage": {
        "encoding": "inplace",
        "label": "struct IRewardPool.UserRewardFields",
        "members": [
          {
            "astId": 10433,
            "contract": "contracts/ronin/staking/Staking.sol:Staking",
            "label": "debited",
            "offset": 0,
            "slot": "0",
            "type": "t_uint256"
          },
          {
            "astId": 10435,
            "contract": "contracts/ronin/staking/Staking.sol:Staking",
            "label": "aRps",
            "offset": 0,
            "slot": "1",
            "type": "t_uint256"
          },
          {
            "astId": 10437,
            "contract": "contracts/ronin/staking/Staking.sol:Staking",
            "label": "minAmount",
            "offset": 0,
            "slot": "2",
            "type": "t_uint256"
          },
          {
            "astId": 10439,
            "contract": "contracts/ronin/staking/Staking.sol:Staking",
            "label": "lastPeriod",
            "offset": 0,
            "slot": "3",
            "type": "t_uint256"
          }
        ],
        "numberOfBytes": "128"
      },
      "t_uint256": {
        "encoding": "inplace",
        "label": "uint256",
        "numberOfBytes": "32"
      },
      "t_uint8": {
        "encoding": "inplace",
        "label": "uint8",
        "numberOfBytes": "1"
      }
    }
  }
}