{
  "address": "0x84b089B600Bf550e1e70d2b9caa234EACcCA6b1F",
  "abi": [
    {
      "inputs": [],
      "stateMutability": "nonpayable",
      "type": "constructor"
    },
    {
      "anonymous": false,
      "inputs": [
        {
          "indexed": false,
          "internalType": "uint256",
          "name": "minSecs",
          "type": "uint256"
        }
      ],
      "name": "CooldownSecsToUndelegateUpdated",
      "type": "event"
    },
    {
      "anonymous": false,
      "inputs": [
        {
          "indexed": true,
          "internalType": "address",
          "name": "delegator",
          "type": "address"
        },
        {
          "indexed": true,
          "internalType": "address",
          "name": "consensuAddr",
          "type": "address"
        },
        {
          "indexed": false,
          "internalType": "uint256",
          "name": "amount",
          "type": "uint256"
        }
      ],
      "name": "Delegated",
      "type": "event"
    },
    {
      "anonymous": false,
      "inputs": [
        {
          "indexed": false,
          "internalType": "uint8",
          "name": "version",
          "type": "uint8"
        }
      ],
      "name": "Initialized",
      "type": "event"
    },
    {
      "anonymous": false,
      "inputs": [
        {
          "indexed": false,
          "internalType": "uint256",
          "name": "threshold",
          "type": "uint256"
        }
      ],
      "name": "MinValidatorStakingAmountUpdated",
      "type": "event"
    },
    {
      "anonymous": false,
      "inputs": [
        {
          "indexed": true,
          "internalType": "address",
          "name": "validator",
          "type": "address"
        },
        {
          "indexed": true,
          "internalType": "address",
          "name": "admin",
          "type": "address"
        }
      ],
      "name": "PoolApproved",
      "type": "event"
    },
    {
      "anonymous": false,
      "inputs": [
        {
          "indexed": true,
          "internalType": "uint256",
          "name": "period",
          "type": "uint256"
        },
        {
          "indexed": true,
          "internalType": "address",
          "name": "poolAddr",
          "type": "address"
        },
        {
          "indexed": false,
          "internalType": "uint256",
          "name": "shares",
          "type": "uint256"
        }
      ],
      "name": "PoolSharesUpdated",
      "type": "event"
    },
    {
      "anonymous": false,
      "inputs": [
        {
          "indexed": false,
          "internalType": "address[]",
          "name": "validator",
          "type": "address[]"
        }
      ],
      "name": "PoolsDeprecated",
      "type": "event"
    },
    {
      "anonymous": false,
      "inputs": [
        {
          "indexed": true,
          "internalType": "uint256",
          "name": "period",
          "type": "uint256"
        },
        {
          "indexed": false,
          "internalType": "address[]",
          "name": "poolAddrs",
          "type": "address[]"
        }
      ],
      "name": "PoolsUpdateConflicted",
      "type": "event"
    },
    {
      "anonymous": false,
      "inputs": [
        {
          "indexed": true,
          "internalType": "uint256",
          "name": "period",
          "type": "uint256"
        },
        {
          "indexed": false,
          "internalType": "address[]",
          "name": "poolAddrs",
          "type": "address[]"
        },
        {
          "indexed": false,
          "internalType": "uint256[]",
          "name": "rewards",
          "type": "uint256[]"
        }
      ],
      "name": "PoolsUpdateFailed",
      "type": "event"
    },
    {
      "anonymous": false,
      "inputs": [
        {
          "indexed": true,
          "internalType": "uint256",
          "name": "period",
          "type": "uint256"
        },
        {
          "indexed": false,
          "internalType": "address[]",
          "name": "poolAddrs",
          "type": "address[]"
        },
        {
          "indexed": false,
          "internalType": "uint256[]",
          "name": "aRps",
          "type": "uint256[]"
        },
        {
          "indexed": false,
          "internalType": "uint256[]",
          "name": "shares",
          "type": "uint256[]"
        }
      ],
      "name": "PoolsUpdated",
      "type": "event"
    },
    {
      "anonymous": false,
      "inputs": [
        {
          "indexed": true,
          "internalType": "address",
          "name": "poolAddr",
          "type": "address"
        },
        {
          "indexed": true,
          "internalType": "address",
          "name": "user",
          "type": "address"
        },
        {
          "indexed": false,
          "internalType": "uint256",
          "name": "amount",
          "type": "uint256"
        }
      ],
      "name": "RewardClaimed",
      "type": "event"
    },
    {
      "anonymous": false,
      "inputs": [
        {
          "indexed": true,
          "internalType": "address",
          "name": "consensuAddr",
          "type": "address"
        },
        {
          "indexed": false,
          "internalType": "uint256",
          "name": "amount",
          "type": "uint256"
        }
      ],
      "name": "Staked",
      "type": "event"
    },
    {
      "anonymous": false,
      "inputs": [
        {
          "indexed": true,
          "internalType": "address",
          "name": "validator",
          "type": "address"
        },
        {
          "indexed": true,
          "internalType": "address",
          "name": "recipient",
          "type": "address"
        },
        {
          "indexed": false,
          "internalType": "uint256",
          "name": "amount",
          "type": "uint256"
        },
        {
          "indexed": false,
          "internalType": "uint256",
          "name": "contractBalance",
          "type": "uint256"
        }
      ],
      "name": "StakingAmountDeductFailed",
      "type": "event"
    },
    {
      "anonymous": false,
      "inputs": [
        {
          "indexed": true,
          "internalType": "address",
          "name": "validator",
          "type": "address"
        },
        {
          "indexed": true,
          "internalType": "address",
          "name": "admin",
          "type": "address"
        },
        {
          "indexed": false,
          "internalType": "uint256",
          "name": "amount",
          "type": "uint256"
        },
        {
          "indexed": false,
          "internalType": "uint256",
          "name": "contractBalance",
          "type": "uint256"
        }
      ],
      "name": "StakingAmountTransferFailed",
      "type": "event"
    },
    {
      "anonymous": false,
      "inputs": [
        {
          "indexed": true,
          "internalType": "address",
          "name": "delegator",
          "type": "address"
        },
        {
          "indexed": true,
          "internalType": "address",
          "name": "consensuAddr",
          "type": "address"
        },
        {
          "indexed": false,
          "internalType": "uint256",
          "name": "amount",
          "type": "uint256"
        }
      ],
      "name": "Undelegated",
      "type": "event"
    },
    {
      "anonymous": false,
      "inputs": [
        {
          "indexed": true,
          "internalType": "address",
          "name": "consensuAddr",
          "type": "address"
        },
        {
          "indexed": false,
          "internalType": "uint256",
          "name": "amount",
          "type": "uint256"
        }
      ],
      "name": "Unstaked",
      "type": "event"
    },
    {
      "anonymous": false,
      "inputs": [
        {
          "indexed": true,
          "internalType": "address",
          "name": "poolAddr",
          "type": "address"
        },
        {
          "indexed": true,
          "internalType": "address",
          "name": "user",
          "type": "address"
        },
        {
          "indexed": false,
          "internalType": "uint256",
          "name": "debited",
          "type": "uint256"
        }
      ],
      "name": "UserRewardUpdated",
      "type": "event"
    },
    {
      "anonymous": false,
      "inputs": [
        {
          "indexed": false,
          "internalType": "address",
          "name": "",
          "type": "address"
        }
      ],
      "name": "ValidatorContractUpdated",
      "type": "event"
    },
    {
      "anonymous": false,
      "inputs": [
        {
          "indexed": false,
          "internalType": "uint256",
          "name": "secs",
          "type": "uint256"
        }
      ],
      "name": "WaitingSecsToRevokeUpdated",
      "type": "event"
    },
    {
      "stateMutability": "payable",
      "type": "fallback"
    },
    {
      "inputs": [
        {
          "internalType": "address",
          "name": "_candidateAdmin",
          "type": "address"
        },
        {
          "internalType": "address",
          "name": "_consensusAddr",
          "type": "address"
        },
        {
          "internalType": "address payable",
          "name": "_treasuryAddr",
          "type": "address"
        },
        {
          "internalType": "address",
          "name": "_bridgeOperatorAddr",
          "type": "address"
        },
        {
          "internalType": "uint256",
          "name": "_commissionRate",
          "type": "uint256"
        }
      ],
      "name": "applyValidatorCandidate",
      "outputs": [],
      "stateMutability": "payable",
      "type": "function"
    },
    {
      "inputs": [
        {
          "internalType": "address[]",
          "name": "_consensusAddrs",
          "type": "address[]"
        },
        {
          "internalType": "uint256[]",
          "name": "_amounts",
          "type": "uint256[]"
        }
      ],
      "name": "bulkUndelegate",
      "outputs": [],
      "stateMutability": "nonpayable",
      "type": "function"
    },
    {
      "inputs": [
        {
          "internalType": "address[]",
          "name": "_consensusAddrList",
          "type": "address[]"
        }
      ],
      "name": "claimRewards",
      "outputs": [
        {
          "internalType": "uint256",
          "name": "_amount",
          "type": "uint256"
        }
      ],
      "stateMutability": "nonpayable",
      "type": "function"
    },
    {
      "inputs": [],
      "name": "cooldownSecsToUndelegate",
      "outputs": [
        {
          "internalType": "uint256",
          "name": "",
          "type": "uint256"
        }
      ],
      "stateMutability": "view",
      "type": "function"
    },
    {
      "inputs": [
        {
          "internalType": "address",
          "name": "_consensusAddr",
          "type": "address"
        },
        {
          "internalType": "uint256",
          "name": "_amount",
          "type": "uint256"
        }
      ],
      "name": "deductStakingAmount",
      "outputs": [
        {
          "internalType": "uint256",
          "name": "_actualDeductingAmount",
          "type": "uint256"
        }
      ],
      "stateMutability": "nonpayable",
      "type": "function"
    },
    {
      "inputs": [
        {
          "internalType": "address",
          "name": "_consensusAddr",
          "type": "address"
        }
      ],
      "name": "delegate",
      "outputs": [],
      "stateMutability": "payable",
      "type": "function"
    },
    {
      "inputs": [
        {
          "internalType": "address[]",
          "name": "_consensusAddrList",
          "type": "address[]"
        },
        {
          "internalType": "address",
          "name": "_consensusAddrDst",
          "type": "address"
        }
      ],
      "name": "delegateRewards",
      "outputs": [
        {
          "internalType": "uint256",
          "name": "_amount",
          "type": "uint256"
        }
      ],
      "stateMutability": "nonpayable",
      "type": "function"
    },
    {
      "inputs": [
        {
          "internalType": "address[]",
          "name": "_pools",
          "type": "address[]"
        }
      ],
      "name": "deprecatePools",
      "outputs": [],
      "stateMutability": "nonpayable",
      "type": "function"
    },
    {
      "inputs": [
        {
          "internalType": "address[]",
          "name": "_pools",
          "type": "address[]"
        }
      ],
      "name": "getManySelfStakings",
      "outputs": [
        {
          "internalType": "uint256[]",
          "name": "_selfStakings",
          "type": "uint256[]"
        }
      ],
      "stateMutability": "view",
      "type": "function"
    },
    {
      "inputs": [
        {
          "internalType": "address[]",
          "name": "_poolAddrs",
          "type": "address[]"
        },
        {
          "internalType": "address[]",
          "name": "_userList",
          "type": "address[]"
        }
      ],
      "name": "getManyStakingAmounts",
      "outputs": [
        {
          "internalType": "uint256[]",
          "name": "_stakingAmounts",
          "type": "uint256[]"
        }
      ],
      "stateMutability": "view",
      "type": "function"
    },
    {
      "inputs": [
        {
          "internalType": "address[]",
          "name": "_poolList",
          "type": "address[]"
        }
      ],
      "name": "getManyStakingTotals",
      "outputs": [
        {
          "internalType": "uint256[]",
          "name": "_stakingAmounts",
          "type": "uint256[]"
        }
      ],
      "stateMutability": "view",
      "type": "function"
    },
    {
      "inputs": [
        {
          "internalType": "address",
          "name": "_poolAdminAddr",
          "type": "address"
        }
      ],
      "name": "getPoolAddressOf",
      "outputs": [
        {
          "internalType": "address",
          "name": "",
          "type": "address"
        }
      ],
      "stateMutability": "view",
      "type": "function"
    },
    {
      "inputs": [
        {
          "internalType": "address",
          "name": "_poolAddr",
          "type": "address"
        },
        {
          "internalType": "address",
          "name": "_user",
          "type": "address"
        }
      ],
      "name": "getReward",
      "outputs": [
        {
          "internalType": "uint256",
          "name": "",
          "type": "uint256"
        }
      ],
      "stateMutability": "view",
      "type": "function"
    },
    {
      "inputs": [
        {
          "internalType": "address",
          "name": "_user",
          "type": "address"
        },
        {
          "internalType": "address[]",
          "name": "_poolAddrList",
          "type": "address[]"
        }
      ],
      "name": "getRewards",
      "outputs": [
        {
          "internalType": "uint256[]",
          "name": "_rewards",
          "type": "uint256[]"
        }
      ],
      "stateMutability": "view",
      "type": "function"
    },
    {
      "inputs": [
        {
          "internalType": "address",
          "name": "_poolAddr",
          "type": "address"
        },
        {
          "internalType": "address",
          "name": "_user",
          "type": "address"
        }
      ],
      "name": "getStakingAmount",
      "outputs": [
        {
          "internalType": "uint256",
          "name": "",
          "type": "uint256"
        }
      ],
      "stateMutability": "view",
      "type": "function"
    },
    {
      "inputs": [
        {
          "internalType": "address",
          "name": "_poolAddr",
          "type": "address"
        }
      ],
      "name": "getStakingPool",
      "outputs": [
        {
          "internalType": "address",
          "name": "_admin",
          "type": "address"
        },
        {
          "internalType": "uint256",
          "name": "_stakingAmount",
          "type": "uint256"
        },
        {
          "internalType": "uint256",
          "name": "_stakingTotal",
          "type": "uint256"
        }
      ],
      "stateMutability": "view",
      "type": "function"
    },
    {
      "inputs": [
        {
          "internalType": "address",
          "name": "_poolAddr",
          "type": "address"
        }
      ],
      "name": "getStakingTotal",
      "outputs": [
        {
          "internalType": "uint256",
          "name": "",
          "type": "uint256"
        }
      ],
      "stateMutability": "view",
      "type": "function"
    },
    {
      "inputs": [
        {
          "internalType": "address",
          "name": "__validatorContract",
          "type": "address"
        },
        {
          "internalType": "uint256",
          "name": "__minValidatorStakingAmount",
          "type": "uint256"
        },
        {
          "internalType": "uint256",
          "name": "__cooldownSecsToUndelegate",
          "type": "uint256"
        },
        {
          "internalType": "uint256",
          "name": "__waitingSecsToRevoke",
          "type": "uint256"
        }
      ],
      "name": "initialize",
      "outputs": [],
      "stateMutability": "nonpayable",
      "type": "function"
    },
    {
      "inputs": [
        {
          "internalType": "address",
          "name": "_poolAdminAddr",
          "type": "address"
        }
      ],
      "name": "isActivePoolAdmin",
      "outputs": [
        {
          "internalType": "bool",
          "name": "",
          "type": "bool"
        }
      ],
      "stateMutability": "view",
      "type": "function"
    },
    {
      "inputs": [],
      "name": "minValidatorStakingAmount",
      "outputs": [
        {
          "internalType": "uint256",
          "name": "",
          "type": "uint256"
        }
      ],
      "stateMutability": "view",
      "type": "function"
    },
    {
      "inputs": [
        {
          "internalType": "address[]",
          "name": "_consensusAddrs",
          "type": "address[]"
        },
        {
          "internalType": "uint256[]",
          "name": "_rewards",
          "type": "uint256[]"
        },
        {
          "internalType": "uint256",
          "name": "_period",
          "type": "uint256"
        }
      ],
      "name": "recordRewards",
      "outputs": [],
      "stateMutability": "payable",
      "type": "function"
    },
    {
      "inputs": [
        {
          "internalType": "address",
          "name": "_consensusAddrSrc",
          "type": "address"
        },
        {
          "internalType": "address",
          "name": "_consensusAddrDst",
          "type": "address"
        },
        {
          "internalType": "uint256",
          "name": "_amount",
          "type": "uint256"
        }
      ],
      "name": "redelegate",
      "outputs": [],
      "stateMutability": "nonpayable",
      "type": "function"
    },
    {
      "inputs": [
        {
          "internalType": "address",
          "name": "_consensusAddr",
          "type": "address"
        }
      ],
      "name": "requestRenounce",
      "outputs": [],
      "stateMutability": "nonpayable",
      "type": "function"
    },
    {
      "inputs": [
        {
          "internalType": "address",
          "name": "_consensusAddr",
          "type": "address"
        },
        {
          "internalType": "uint256",
          "name": "_effectiveDaysOnwards",
          "type": "uint256"
        },
        {
          "internalType": "uint256",
          "name": "_commissionRate",
          "type": "uint256"
        }
      ],
      "name": "requestUpdateCommissionRate",
      "outputs": [],
      "stateMutability": "nonpayable",
      "type": "function"
    },
    {
      "inputs": [
        {
          "internalType": "uint256",
          "name": "_cooldownSecs",
          "type": "uint256"
        }
      ],
      "name": "setCooldownSecsToUndelegate",
      "outputs": [],
      "stateMutability": "nonpayable",
      "type": "function"
    },
    {
      "inputs": [
        {
          "internalType": "uint256",
          "name": "_threshold",
          "type": "uint256"
        }
      ],
      "name": "setMinValidatorStakingAmount",
      "outputs": [],
      "stateMutability": "nonpayable",
      "type": "function"
    },
    {
      "inputs": [
        {
          "internalType": "address",
          "name": "_addr",
          "type": "address"
        }
      ],
      "name": "setValidatorContract",
      "outputs": [],
      "stateMutability": "nonpayable",
      "type": "function"
    },
    {
      "inputs": [
        {
          "internalType": "uint256",
          "name": "_secs",
          "type": "uint256"
        }
      ],
      "name": "setWaitingSecsToRevoke",
      "outputs": [],
      "stateMutability": "nonpayable",
      "type": "function"
    },
    {
      "inputs": [
        {
          "internalType": "address",
          "name": "_consensusAddr",
          "type": "address"
        }
      ],
      "name": "stake",
      "outputs": [],
      "stateMutability": "payable",
      "type": "function"
    },
    {
      "inputs": [
        {
          "internalType": "address",
          "name": "_consensusAddr",
          "type": "address"
        },
        {
          "internalType": "uint256",
          "name": "_amount",
          "type": "uint256"
        }
      ],
      "name": "undelegate",
      "outputs": [],
      "stateMutability": "nonpayable",
      "type": "function"
    },
    {
      "inputs": [
        {
          "internalType": "address",
          "name": "_consensusAddr",
          "type": "address"
        },
        {
          "internalType": "uint256",
          "name": "_amount",
          "type": "uint256"
        }
      ],
      "name": "unstake",
      "outputs": [],
      "stateMutability": "nonpayable",
      "type": "function"
    },
    {
      "inputs": [],
      "name": "validatorContract",
      "outputs": [
        {
          "internalType": "address",
          "name": "",
          "type": "address"
        }
      ],
      "stateMutability": "view",
      "type": "function"
    },
    {
      "inputs": [],
      "name": "waitingSecsToRevoke",
      "outputs": [
        {
          "internalType": "uint256",
          "name": "",
          "type": "uint256"
        }
      ],
      "stateMutability": "view",
      "type": "function"
    },
    {
      "stateMutability": "payable",
      "type": "receive"
    }
  ],
  "transactionHash": "0xe41e107a06edd8d0c19148f194c7f87133715c47fd415b4c4884e155281cf916",
  "args": [],
  "numDeployments": 4,
  "solcInputHash": "9c14b324033beb5ee990c4b68d9e780e",
  "bytecode": "0x60806040523480156200001157600080fd5b5060016000556200002162000027565b620000e9565b60d154610100900460ff1615620000945760405162461bcd60e51b815260206004820152602760248201527f496e697469616c697a61626c653a20636f6e747261637420697320696e697469604482015266616c697a696e6760c81b606482015260840160405180910390fd5b60d15460ff9081161015620000e75760d1805460ff191660ff9081179091556040519081527f7f26b83ff96e1f2b6a682f133852f6798a09c465da95921460cefb38474024989060200160405180910390a15b565b613d3d80620000f96000396000f3fe6080604052600436106101f25760003560e01c8063895ab7421161010d578063af245429116100a0578063cdf64a761161006f578063cdf64a761461060b578063e115877b1461062b578063e5376f5414610676578063e9ac5e0614610689578063f9f031df146106a95761023b565b8063af2454291461057d578063c2a672e014610592578063c5087003146105b2578063c905bb35146105eb5761023b565b80639488e4e9116100dc5780639488e4e9146104c6578063969ffc14146104e657806399439089146105065780639e614e0e146105385761023b565b8063895ab74214610438578063909791dd1461047157806391f8723f14610486578063924f081e146104a65761023b565b80634d99dd16116101855780636b091695116101545780636b091695146103b85780636bd8f804146103d857806376664b65146103f8578063888b9ae9146104185761023b565b80634d99dd16146103455780634ec81af1146103655780635c19a95c14610385578063679a6e43146103985761023b565b806326476204116101c157806326476204146102df5780633b8cb16b146102f25780633d8e846e1461030557806342ef3c34146103255761023b565b80630682e8fa1461024e578063095f647514610272578063097e4a9d1461029f5780631658c86e146102bf5761023b565b3661023b573361020a6036546001600160a01b031690565b6001600160a01b0316146102395760405162461bcd60e51b815260040161023090613476565b60405180910390fd5b005b3361020a6036546001600160a01b031690565b34801561025a57600080fd5b506038545b6040519081526020015b60405180910390f35b34801561027e57600080fd5b5061029261028d36600461351e565b6106c9565b60405161026991906135c4565b3480156102ab57600080fd5b5061025f6102ba3660046135ec565b61083a565b3480156102cb57600080fd5b506102396102da366004613642565b610907565b6102396102ed366004613642565b610a41565b610239610300366004613666565b610b12565b34801561031157600080fd5b506102926103203660046136d9565b610b93565b34801561033157600080fd5b5061029261034036600461372d565b610cd7565b34801561035157600080fd5b5061023961036036600461376e565b610dad565b34801561037157600080fd5b5061023961038036600461379a565b610e28565b610239610393366004613642565b610f58565b3480156103a457600080fd5b506102396103b33660046137d5565b6110b1565b3480156103c457600080fd5b5061025f6103d33660046137ee565b6110f5565b3480156103e457600080fd5b506102396103f3366004613827565b611117565b34801561040457600080fd5b5061025f6104133660046137ee565b61121c565b34801561042457600080fd5b506102396104333660046137d5565b61124b565b34801561044457600080fd5b5061025f610453366004613642565b6001600160a01b031660009081526037602052604090206003015490565b34801561047d57600080fd5b50606c5461025f565b34801561049257600080fd5b506102926104a136600461372d565b61128c565b3480156104b257600080fd5b506102396104c1366004613868565b611336565b3480156104d257600080fd5b506102396104e136600461351e565b611476565b3480156104f257600080fd5b506102396105013660046137d5565b6115ec565b34801561051257600080fd5b506036546001600160a01b03165b6040516001600160a01b039091168152602001610269565b34801561054457600080fd5b50610558610553366004613642565b61162d565b604080516001600160a01b039094168452602084019290925290820152606001610269565b34801561058957600080fd5b5060395461025f565b34801561059e57600080fd5b506102396105ad36600461376e565b6116f3565b3480156105be57600080fd5b506105206105cd366004613642565b6001600160a01b039081166000908152603a60205260409020541690565b3480156105f757600080fd5b5061025f61060636600461376e565b6118fb565b34801561061757600080fd5b50610239610626366004613642565b6119cd565b34801561063757600080fd5b50610666610646366004613642565b6001600160a01b039081166000908152603a602052604090205416151590565b6040519015158152602001610269565b61023961068436600461389d565b611a7a565b34801561069557600080fd5b506102396106a436600461372d565b611bd7565b3480156106b557600080fd5b5061025f6106c436600461372d565b611d66565b606083821461071a5760405162461bcd60e51b815260206004820181905260248201527f426173655374616b696e673a20696e76616c696420696e7075742061727261796044820152606401610230565b836001600160401b0381111561073257610732613901565b60405190808252806020026020018201604052801561075b578160200160208202803683370190505b50905060005b8151811015610831576037600087878481811061078057610780613917565b90506020020160208101906107959190613642565b6001600160a01b03166001600160a01b0316815260200190815260200160002060040160008585848181106107cc576107cc613917565b90506020020160208101906107e19190613642565b6001600160a01b03166001600160a01b031681526020019081526020016000205482828151811061081457610814613917565b60209081029190910101528061082981613943565b915050610761565b50949350505050565b600060026000540361085e5760405162461bcd60e51b81526004016102309061395c565b6002600055603654604051635061f96960e11b81526001600160a01b0380851660048301528492169063a0c3f2d290602401602060405180830381865afa1580156108ad573d6000803e3d6000fd5b505050506040513d601f19601f820116820180604052508101906108d19190613993565b6108ed5760405162461bcd60e51b8152600401610230906139b5565b6108f933868686611db1565b600160005595945050505050565b603654604051635061f96960e11b81526001600160a01b0380841660048301528392169063a0c3f2d290602401602060405180830381865afa158015610951573d6000803e3d6000fd5b505050506040513d601f19601f820116820180604052508101906109759190613993565b6109915760405162461bcd60e51b8152600401610230906139b5565b6001600160a01b0380831660009081526037602052604090206001810154909133911681146109d25760405162461bcd60e51b8152600401610230906139fd565b603654603954604051636efa12bd60e01b81526001600160a01b0387811660048301526024820192909252911690636efa12bd90604401600060405180830381600087803b158015610a2357600080fd5b505af1158015610a37573d6000803e3d6000fd5b5050505050505050565b60003411610a615760405162461bcd60e51b815260040161023090613a4a565b603654604051635061f96960e11b81526001600160a01b0380841660048301528392169063a0c3f2d290602401602060405180830381865afa158015610aab573d6000803e3d6000fd5b505050506040513d601f19601f82011682018060405250810190610acf9190613993565b610aeb5760405162461bcd60e51b8152600401610230906139b5565b6001600160a01b0382166000908152603760205260409020610b0e903334611dec565b5050565b33610b256036546001600160a01b031690565b6001600160a01b031614610b4b5760405162461bcd60e51b815260040161023090613476565b610b8c858580806020026020016040519081016040528093929190818152602001838360200280828437600092019190915250879250869150859050611ebe565b5050505050565b6060600080603660009054906101000a90046001600160a01b03166001600160a01b031663060406186040518163ffffffff1660e01b8152600401602060405180830381865afa158015610beb573d6000803e3d6000fd5b505050506040513d601f19601f82011682018060405250810190610c0f9190613a8d565b9050836001600160401b03811115610c2957610c29613901565b604051908082528060200260200182016040528015610c52578160200160208202803683370190505b50925060005b84811015610ccd57858582818110610c7257610c72613917565b9050602002016020810190610c879190613642565b9250610c9e838884610c99878c61121c565b6122f7565b848281518110610cb057610cb0613917565b602090810291909101015280610cc581613943565b915050610c58565b5050509392505050565b6060816001600160401b03811115610cf157610cf1613901565b604051908082528060200260200182016040528015610d1a578160200160208202803683370190505b50905060005b82811015610da65760376000858584818110610d3e57610d3e613917565b9050602002016020810190610d539190613642565b6001600160a01b03166001600160a01b0316815260200190815260200160002060020154828281518110610d8957610d89613917565b602090810291909101015280610d9e81613943565b915050610d20565b5092915050565b600260005403610dcf5760405162461bcd60e51b81526004016102309061395c565b600260009081556001600160a01b03831681526037602052604090203390610df8908284612419565b610e028183612631565b610e1e5760405162461bcd60e51b815260040161023090613aa6565b5050600160005550565b60d154610100900460ff1615808015610e48575060d154600160ff909116105b80610e625750303b158015610e62575060d15460ff166001145b610ec55760405162461bcd60e51b815260206004820152602e60248201527f496e697469616c697a61626c653a20636f6e747261637420697320616c72656160448201526d191e481a5b9a5d1a585b1a5e995960921b6064820152608401610230565b60d1805460ff191660011790558015610ee85760d1805461ff0019166101001790555b610ef185612697565b610efa846126ec565b610f0383612721565b610f0c82612756565b8015610b8c5760d1805461ff0019169055604051600181527f7f26b83ff96e1f2b6a682f133852f6798a09c465da95921460cefb38474024989060200160405180910390a15050505050565b60003411610f785760405162461bcd60e51b815260040161023090613a4a565b603654604051635061f96960e11b81526001600160a01b0380841660048301528392169063a0c3f2d290602401602060405180830381865afa158015610fc2573d6000803e3d6000fd5b505050506040513d601f19601f82011682018060405250810190610fe69190613993565b6110025760405162461bcd60e51b8152600401610230906139b5565b336000908152603a60205260409020546001600160a01b03161561108e5760405162461bcd60e51b815260206004820152603960248201527f44656c656761746f725374616b696e673a2061646d696e206f6620616e20616360448201527f7469766520706f6f6c2063616e6e6f742064656c6567617465000000000000006064820152608401610230565b6001600160a01b0382166000908152603760205260409020610b0e90333461278b565b6110b9612852565b6001600160a01b0316336001600160a01b0316146110e95760405162461bcd60e51b815260040161023090613aee565b6110f2816126ec565b50565b600061110e8383611104612880565b610c99878761121c565b90505b92915050565b6002600054036111395760405162461bcd60e51b81526004016102309061395c565b6002600055603654604051635061f96960e11b81526001600160a01b0380851660048301528492169063a0c3f2d290602401602060405180830381865afa158015611188573d6000803e3d6000fd5b505050506040513d601f19601f820116820180604052508101906111ac9190613993565b6111c85760405162461bcd60e51b8152600401610230906139b5565b6001600160a01b038416600090815260376020526040902033906111ed908285612419565b6001600160a01b038416600090815260376020526040902061121090828561278b565b50506001600055505050565b6001600160a01b0391821660009081526037602090815260408083209390941682526004909201909152205490565b611253612852565b6001600160a01b0316336001600160a01b0316146112835760405162461bcd60e51b815260040161023090613aee565b6110f281612721565b6060816001600160401b038111156112a6576112a6613901565b6040519080825280602002602001820160405280156112cf578160200160208202803683370190505b50905060005b82811015610da6576113078484838181106112f2576112f2613917565b90506020020160208101906104539190613642565b82828151811061131957611319613917565b60209081029190910101528061132e81613943565b9150506112d5565b603654604051635061f96960e11b81526001600160a01b0380861660048301528592169063a0c3f2d290602401602060405180830381865afa158015611380573d6000803e3d6000fd5b505050506040513d601f19601f820116820180604052508101906113a49190613993565b6113c05760405162461bcd60e51b8152600401610230906139b5565b6001600160a01b0380851660009081526037602052604090206001810154909133911681146114015760405162461bcd60e51b8152600401610230906139fd565b60365460405163e5125a1d60e01b81526001600160a01b03888116600483015260248201889052604482018790529091169063e5125a1d90606401600060405180830381600087803b15801561145657600080fd5b505af115801561146a573d6000803e3d6000fd5b50505050505050505050565b6002600054036114985760405162461bcd60e51b81526004016102309061395c565b600260005582158015906114ab57508281145b6115065760405162461bcd60e51b815260206004820152602660248201527f44656c656761746f725374616b696e673a20696e76616c6964206172726179206044820152650d8cadccee8d60d31b6064820152608401610230565b336000805b858110156115b85784848281811061152557611525613917565b90506020020135826115379190613b30565b91506115a66037600089898581811061155257611552613917565b90506020020160208101906115679190613642565b6001600160a01b03166001600160a01b031681526020019081526020016000208487878581811061159a5761159a613917565b90506020020135612419565b806115b081613943565b91505061150b565b506115c38282612631565b6115df5760405162461bcd60e51b815260040161023090613aa6565b5050600160005550505050565b6115f4612852565b6001600160a01b0316336001600160a01b0316146116245760405162461bcd60e51b815260040161023090613aee565b6110f281612756565b603654604051635061f96960e11b81526001600160a01b038084166004830152600092839283928692169063a0c3f2d290602401602060405180830381865afa15801561167e573d6000803e3d6000fd5b505050506040513d601f19601f820116820180604052508101906116a29190613993565b6116be5760405162461bcd60e51b8152600401610230906139b5565b505050506001600160a01b03908116600090815260376020526040902060018101546002820154600390920154921692909190565b6002600054036117155760405162461bcd60e51b81526004016102309061395c565b6002600055603654604051635061f96960e11b81526001600160a01b0380851660048301528492169063a0c3f2d290602401602060405180830381865afa158015611764573d6000803e3d6000fd5b505050506040513d601f19601f820116820180604052508101906117889190613993565b6117a45760405162461bcd60e51b8152600401610230906139b5565b600082116117f45760405162461bcd60e51b815260206004820181905260248201527f43616e6469646174655374616b696e673a20696e76616c696420616d6f756e746044820152606401610230565b6001600160a01b0383166000908152603760205260408120600281015433929061181f908690613b43565b9050606c548110156118895760405162461bcd60e51b815260206004820152602d60248201527f43616e6469646174655374616b696e673a20696e76616c6964207374616b696e60448201526c19c8185b5bdd5b9d081b19599d609a1b6064820152608401610230565b6118948284876128f2565b61189e8386612631565b6115df5760405162461bcd60e51b815260206004820152602860248201527f43616e6469646174655374616b696e673a20636f756c64206e6f74207472616e60448201526739b332b9102927a760c11b6064820152608401610230565b6000336119106036546001600160a01b031690565b6001600160a01b0316146119365760405162461bcd60e51b815260040161023090613476565b6001600160a01b03831660009081526037602052604090206119589083612a85565b9050600061196e6036546001600160a01b031690565b905061197a8183612b23565b610da657604080518381524760208201526001600160a01b0380841692908716917f63701cd972aa3c7f87898aab145c972e52185beab07d6e39380a998d334cf6c8910160405180910390a35092915050565b6119d5612852565b6001600160a01b0316336001600160a01b031614611a055760405162461bcd60e51b815260040161023090613aee565b6000816001600160a01b03163b11611a715760405162461bcd60e51b815260206004820152602960248201527f48617356616c696461746f72436f6e74726163743a2073657420746f206e6f6e6044820152680b58dbdb9d1c9858dd60ba1b6064820152608401610230565b6110f281612697565b600260005403611a9c5760405162461bcd60e51b81526004016102309061395c565b60026000908155338152603a60205260409020546001600160a01b031615611b155760405162461bcd60e51b815260206004820152602660248201527f43616e6469646174655374616b696e673a20706f6f6c2061646d696e2069732060448201526561637469766560d01b6064820152608401610230565b3433611b2681888888888888612b7f565b6001600160a01b0380871660008181526037602081815260408084206001810180549789166001600160a01b0319988916811790915581548816871782558552603a835290842080549096168517909555929091529052611b88818385611dec565b816001600160a01b0316876001600160a01b03167ffc1f1e73948cbc47c5b7f90e5601b7daccd9ad7173218486ccc74bdd051d05e860405160405180910390a350506001600055505050505050565b33611bea6036546001600160a01b031690565b6001600160a01b031614611c105760405162461bcd60e51b815260040161023090613476565b8015610b0e576000805b82811015611d2757600060376000868685818110611c3a57611c3a613917565b9050602002016020810190611c4f9190613642565b6001600160a01b0390811682526020808301939093526040918201600090812060018101549092168152603a909352912080546001600160a01b03191690556002810154935090508215611d1457611ca78184612a85565b506001810154611cc0906001600160a01b031684612b23565b611d145760018101548154604080518681524760208201526001600160a01b0393841693909216917f7dc5115a5aba081f5a174f56a3d02eea582824783322a4ac03f7bd388f444194910160405180910390a35b5080611d1f81613943565b915050611c1a565b507f4f257d3ba23679d338f1d94296086bba5724af341b7fa31aa0ff297bfcdc62d88383604051611d59929190613b56565b60405180910390a1505050565b6000600260005403611d8a5760405162461bcd60e51b81526004016102309061395c565b6002600055611d9a338484612f2c565b9050611da63382612f8e565b600160005592915050565b6000611dbe858585612f2c565b6001600160a01b0383166000908152603760205260409020909150611de490868361278b565b949350505050565b6001830154839083906001600160a01b03808316911614611e1f5760405162461bcd60e51b8152600401610230906139fd565b82856002016000828254611e339190613b30565b92505081905550611e5985858760020154868960030154611e549190613b30565b613015565b6001600160a01b03808516600090815260058701602052604090819020429055865490519116907f9e71bc8eea02a63969f509818f2dafb9254532904319f9dbda79b67bd34a5f3d90611eaf9086815260200190565b60405180910390a25050505050565b83518214611f0757807fae52c603227f64e4c6101dde593aa9790a16b3ac77546bd746d758511e9560a5858585604051611efa93929190613bdd565b60405180910390a26122f1565b600080600080600088516001600160401b03811115611f2857611f28613901565b604051908082528060200260200182016040528015611f51578160200160208202803683370190505b509050600089516001600160401b03811115611f6f57611f6f613901565b604051908082528060200260200182016040528015611f98578160200160208202803683370190505b50905060008a516001600160401b03811115611fb657611fb6613901565b604051908082528060200260200182016040528015611fdf578160200160208202803683370190505b50905060005b8b5181101561225c578b818151811061200057612000613917565b6020908102919091018101516001600160a01b038116600090815260038084526040808320603790955290912001549097506001600160a01b03881660009081526001602081815260408084208f855290915290912001549096508a90036120a65786838961206e81613943565b9a508151811061208057612080613917565b60200260200101906001600160a01b031690816001600160a01b0316815250505061224a565b60028101548a11156120d457604080518082019091528681526020018a905260018101869055600281018a90555b60018101541561211e5760018101548c8c848181106120f5576120f5613917565b90506020020135670de0b6b3a764000061210f9190613c27565b6121199190613c3e565b612121565b60005b9850888160000160008282546121379190613b30565b91829055509050856121498a85613b43565b8151811061215957612159613917565b6020026020010181815250506040518060400160405280826000015481526020018b81525060016000896001600160a01b03166001600160a01b0316815260200190815260200160002060008c81526020019081526020016000206000820151816000015560208201518160010155905050858160010160000154146121e157600181018690555b6001810154846121f18a85613b43565b8151811061220157612201613917565b6020908102919091010152868d6122188a85613b43565b8151811061222857612228613917565b60200260200101906001600160a01b031690816001600160a01b031681525050505b8061225481613943565b915050611fe5565b5085156122a557858152858b51038b52877fee74f10cc50bf4b7e57fd36be7d46288795f3a9151dae97505b718b392ba14a38260405161229c9190613c60565b60405180910390a25b8a51156122e957877f0e54e0485f70f0f63bc25889ddbf01ce1269ad6f07fdb2df573a0fbdb4d66f888c85856040516122e093929190613c73565b60405180910390a25b505050505050505b50505050565b6001600160a01b0380851660009081526002602090815260408083209387168352929052908120600381015484900361233257549050611de4565b6001600160a01b0386166000908152600360208181526040808420600180845282862094870154865293909252832091820154839290156123bd576001600160a01b038a16600090815260016020818152604080842060038a0154855290915290912054908601549094506123a79085613b43565b85600201546123b69190613c27565b92506123c5565b846001015493505b81546000906123d5908690613b43565b6123df9089613c27565b9050670de0b6b3a76400006123f48286613b30565b6123fe9190613c3e565b865461240a9190613b30565b9b9a5050505050505050505050565b6001830154839083906001600160a01b0380831691160361244c5760405162461bcd60e51b815260040161023090613cb6565b6000831161249c5760405162461bcd60e51b815260206004820181905260248201527f44656c656761746f725374616b696e673a20696e76616c696420616d6f756e746044820152606401610230565b6001600160a01b03841660009081526004860160205260409020548311156125225760405162461bcd60e51b815260206004820152603360248201527f44656c656761746f725374616b696e673a20696e73756666696369656e7420616044820152726d6f756e7420746f20756e64656c656761746560681b6064820152608401610230565b6038546001600160a01b0385166000908152600587016020526040902054429161254b91613b30565b106125a75760405162461bcd60e51b815260206004820152602660248201527f44656c656761746f725374616b696e673a20756e64656c656761746520746f6f604482015265206561726c7960d01b6064820152608401610230565b6001600160a01b03841660009081526004860160205260409020546125e590869086906125d5908790613b43565b868960030154611e549190613b43565b84546040518481526001600160a01b03918216918616907f4d10bd049775c77bd7f255195afba5088028ecb3c7c277d393ccff7934f2f92c906020015b60405180910390a35050505050565b60008147101561268d5760405162461bcd60e51b815260206004820152602160248201527f524f4e5472616e736665723a20696e73756666696369656e742062616c616e636044820152606560f81b6064820152608401610230565b61110e8383612b23565b603680546001600160a01b0319166001600160a01b0383169081179091556040519081527fef40dc07567635f84f5edbd2f8dbc16b40d9d282dd8e7e6f4ff58236b6836169906020015b60405180910390a150565b606c8190556040518181527f372bbdb8d72373b0012f84ee5a11671e5fb72b8bea902ebca93a19cb45d32be2906020016126e1565b60388190556040518181527f4956b65267b8f1e642284bcb5037116c69a9c78d9ca576beeae0974737a4872a906020016126e1565b60398190556040518181527f02be0b73b597f2c0f138aebee162b3b0e25d5b5a26854c15dcf79176e9a1c678906020016126e1565b6001830154839083906001600160a01b038083169116036127be5760405162461bcd60e51b815260040161023090613cb6565b6001600160a01b03841660009081526004860160205260409020546127fc90869086906127ec908790613b30565b868960030154611e549190613b30565b6001600160a01b03808516600081815260058801602052604090819020429055875490519216917fe5541a6b6103d4fa7e021ed54fad39c66f27a76bd13d374cf6240ae6bd0bb72b906126229087815260200190565b7fb53127684a568b3173ae13b9f8a6016e243e63b6e8ee1178d6a717850b5d6103546001600160a01b031690565b6036546040805162c080c360e31b815290516000926001600160a01b03169163060406189160048083019260209291908290030181865afa1580156128c9573d6000803e3d6000fd5b505050506040513d601f19601f820116820180604052508101906128ed9190613a8d565b905090565b6001830154839083906001600160a01b038083169116146129255760405162461bcd60e51b8152600401610230906139fd565b846002015483111561298f5760405162461bcd60e51b815260206004820152602d60248201527f43616e6469646174655374616b696e673a20696e73756666696369656e74207360448201526c1d185ada5b99c8185b5bdd5b9d609a1b6064820152608401610230565b6038546001600160a01b038516600090815260058701602052604090205442916129b891613b30565b1115612a125760405162461bcd60e51b815260206004820152602360248201527f43616e6469646174655374616b696e673a20756e7374616b6520746f6f206561604482015262726c7960e81b6064820152608401610230565b82856002016000828254612a269190613b43565b92505081905550612a4785858760020154868960030154611e549190613b43565b84546040518481526001600160a01b03909116907f0f5bb82176feb1b5e747e28471aa92156a04d9f3ab9f45f28e2d704232b93f7590602001611eaf565b6000612a95836002015483613050565b905080836002016000828254612aab9190613b43565b9091555050600183015460028401546003850154612adc9286926001600160a01b0390911691611e54908690613b43565b82546040518281526001600160a01b03909116907f0f5bb82176feb1b5e747e28471aa92156a04d9f3ab9f45f28e2d704232b93f759060200160405180910390a292915050565b6000826001600160a01b03168260405160006040518083038185875af1925050503d8060008114612b70576040519150601f19603f3d011682016040523d82523d6000602084013e612b75565b606091505b5090949350505050565b612b8a876000612631565b612bee5760405162461bcd60e51b815260206004820152602f60248201527f43616e6469646174655374616b696e673a20706f6f6c2061646d696e2063616e60448201526e3737ba103932b1b2b4bb32902927a760891b6064820152608401610230565b612bf9846000612631565b612c5b5760405162461bcd60e51b815260206004820152602d60248201527f43616e6469646174655374616b696e673a2074726561737572792063616e6e6f60448201526c3a103932b1b2b4bb32902927a760991b6064820152608401610230565b606c54811015612cbb5760405162461bcd60e51b815260206004820152602560248201527f43616e6469646174655374616b696e673a20696e73756666696369656e7420616044820152641b5bdd5b9d60da1b6064820152608401610230565b856001600160a01b0316876001600160a01b0316148015612ced5750836001600160a01b0316866001600160a01b0316145b612d695760405162461bcd60e51b815260206004820152604160248201527f43616e6469646174655374616b696e673a20746872656520696e74657261637460448201527f696f6e20616464726573736573206d757374206265206f66207468652073616d6064820152606560f81b608482015260a401610230565b60408051600380825260808201909252600091602082016060803683370190505090508781600081518110612da057612da0613917565b60200260200101906001600160a01b031690816001600160a01b0316815250508581600181518110612dd457612dd4613917565b60200260200101906001600160a01b031690816001600160a01b0316815250508381600281518110612e0857612e08613917565b60200260200101906001600160a01b031690816001600160a01b031681525050612e3181613066565b15612ea45760405162461bcd60e51b815260206004820152603c60248201527f43616e6469646174655374616b696e673a207468726565206f7065726174696f60448201527f6e20616464726573736573206d7573742062652064697374696e6374000000006064820152608401610230565b603654604051630733ec9760e41b81526001600160a01b038981166004830152888116602483015287811660448301528681166064830152608482018690529091169063733ec9709060a401600060405180830381600087803b158015612f0a57600080fd5b505af1158015612f1e573d6000803e3d6000fd5b505050505050505050505050565b6000805b82811015612f8657612f68848483818110612f4d57612f4d613917565b9050602002016020810190612f629190613642565b8661312d565b612f729083613b30565b915080612f7e81613943565b915050612f30565b509392505050565b612f988282612631565b610b0e5760405162461bcd60e51b815260206004820152604260248201527f524f4e5472616e736665723a20756e61626c6520746f207472616e736665722060448201527f76616c75652c20726563697069656e74206d6179206861766520726576657274606482015261195960f21b608482015260a401610230565b835461302b906001600160a01b03168484613215565b60038401556001600160a01b0390911660009081526004909201602052604090912055565b600081831061305f578161110e565b5090919050565b6000815160000361307957506000919050565b60005b6001835161308a9190613b43565b81101561312457600061309e826001613b30565b90505b8351811015613111578381815181106130bc576130bc613917565b60200260200101516001600160a01b03168483815181106130df576130df613917565b60200260200101516001600160a01b0316036130ff575060019392505050565b8061310981613943565b9150506130a1565b508061311c81613943565b91505061307c565b50600092915050565b600080613138612880565b905061314a848483610c99888861121c565b9150826001600160a01b0316846001600160a01b03167f0aa4d283470c904c551d18bb894d37e17674920f3261a7f854be501e25f421b78460405161319191815260200190565b60405180910390a36001600160a01b0384811660008181526002602090815260408083209488168084529482528083208381556003808201889055858552835281842054600182015590519283529392917faa7c29611027fd4be148712bb54960253b7a7d5998c17769bfc424c2f5f185ad910160405180910390a3505092915050565b600061321f612880565b6001600160a01b038516600090815260036020526040902060018101546002820154929350909183111561329357604051806040016040528061327a886001600160a01b031660009081526037602052604090206003015490565b8152602090810185905281516001850155015160028301555b6001600160a01b0380871660009081526002602090815260408083209389168352929052908120906132c5888861121c565b905060006132d5898988856122f7565b83549091508114613327578083556040518181526001600160a01b0389811691908b16907faa7c29611027fd4be148712bb54960253b7a7d5998c17769bfc424c2f5f185ad9060200160405180910390a35b6133348584888a866133a6565b845460018085019190915560038401879055850154841461339b57886001600160a01b0316867f81faf50e2aaf52eaba2ab841071efb9f6f0850a3e7d008b1336e6001d3d4963c876001016000015460405161339291815260200190565b60405180910390a35b505050505050505050565b82846003015410156133ba57600284018190555b60006133ca856002015484613050565b905060008186600201546133de9190613b43565b9050801561346d576002860182905560018701548111156134505760405162461bcd60e51b815260206004820152602660248201527f52657761726443616c63756c6174696f6e3a20696e76616c696420706f6f6c2060448201526573686172657360d01b6064820152608401610230565b808760010160000160008282546134679190613b43565b90915550505b50505050505050565b6020808252603e908201527f48617356616c696461746f72436f6e74726163743a206d6574686f642063616c60408201527f6c6572206d7573742062652076616c696461746f7220636f6e74726163740000606082015260800190565b60008083601f8401126134e557600080fd5b5081356001600160401b038111156134fc57600080fd5b6020830191508360208260051b850101111561351757600080fd5b9250929050565b6000806000806040858703121561353457600080fd5b84356001600160401b038082111561354b57600080fd5b613557888389016134d3565b9096509450602087013591508082111561357057600080fd5b5061357d878288016134d3565b95989497509550505050565b600081518084526020808501945080840160005b838110156135b95781518752958201959082019060010161359d565b509495945050505050565b60208152600061110e6020830184613589565b6001600160a01b03811681146110f257600080fd5b60008060006040848603121561360157600080fd5b83356001600160401b0381111561361757600080fd5b613623868287016134d3565b9094509250506020840135613637816135d7565b809150509250925092565b60006020828403121561365457600080fd5b813561365f816135d7565b9392505050565b60008060008060006060868803121561367e57600080fd5b85356001600160401b038082111561369557600080fd5b6136a189838a016134d3565b909750955060208801359150808211156136ba57600080fd5b506136c7888289016134d3565b96999598509660400135949350505050565b6000806000604084860312156136ee57600080fd5b83356136f9816135d7565b925060208401356001600160401b0381111561371457600080fd5b613720868287016134d3565b9497909650939450505050565b6000806020838503121561374057600080fd5b82356001600160401b0381111561375657600080fd5b613762858286016134d3565b90969095509350505050565b6000806040838503121561378157600080fd5b823561378c816135d7565b946020939093013593505050565b600080600080608085870312156137b057600080fd5b84356137bb816135d7565b966020860135965060408601359560600135945092505050565b6000602082840312156137e757600080fd5b5035919050565b6000806040838503121561380157600080fd5b823561380c816135d7565b9150602083013561381c816135d7565b809150509250929050565b60008060006060848603121561383c57600080fd5b8335613847816135d7565b92506020840135613857816135d7565b929592945050506040919091013590565b60008060006060848603121561387d57600080fd5b8335613888816135d7565b95602085013595506040909401359392505050565b600080600080600060a086880312156138b557600080fd5b85356138c0816135d7565b945060208601356138d0816135d7565b935060408601356138e0816135d7565b925060608601356138f0816135d7565b949793965091946080013592915050565b634e487b7160e01b600052604160045260246000fd5b634e487b7160e01b600052603260045260246000fd5b634e487b7160e01b600052601160045260246000fd5b6000600182016139555761395561392d565b5060010190565b6020808252601f908201527f5265656e7472616e637947756172643a207265656e7472616e742063616c6c00604082015260600190565b6000602082840312156139a557600080fd5b8151801515811461365f57600080fd5b60208082526028908201527f426173655374616b696e673a20717565727920666f72206e6f6e2d6578697374604082015267195b9d081c1bdbdb60c21b606082015260800190565b6020808252602d908201527f426173655374616b696e673a20726571756573746572206d757374206265207460408201526c3432903837b7b61030b236b4b760991b606082015260800190565b60208082526023908201527f426173655374616b696e673a207175657279207769746820656d7074792076616040820152626c756560e81b606082015260800190565b600060208284031215613a9f57600080fd5b5051919050565b60208082526028908201527f44656c656761746f725374616b696e673a20636f756c64206e6f74207472616e60408201526739b332b9102927a760c11b606082015260800190565b60208082526022908201527f48617350726f787941646d696e3a20756e617574686f72697a65642073656e6460408201526132b960f11b606082015260800190565b808201808211156111115761111161392d565b818103818111156111115761111161392d565b60208082528181018390526000908460408401835b86811015613b99578235613b7e816135d7565b6001600160a01b031682529183019190830190600101613b6b565b509695505050505050565b600081518084526020808501945080840160005b838110156135b95781516001600160a01b031687529582019590820190600101613bb8565b604081526000613bf06040830186613ba4565b82810360208401528381526001600160fb1b03841115613c0f57600080fd5b8360051b808660208401370160200195945050505050565b80820281158282048414176111115761111161392d565b600082613c5b57634e487b7160e01b600052601260045260246000fd5b500490565b60208152600061110e6020830184613ba4565b606081526000613c866060830186613ba4565b8281036020840152613c988186613589565b90508281036040840152613cac8185613589565b9695505050505050565b60208082526031908201527f426173655374616b696e673a2064656c656761746f72206d757374206e6f74206040820152703132903a3432903837b7b61030b236b4b760791b60608201526080019056fea2646970667358221220e83be7b4fb217626c75492f6661dab51328551fb354334680cab37b9f5d5b0cf64736f6c63430008110033",
  "devdoc": {
    "kind": "dev",
    "methods": {
      "applyValidatorCandidate(address,address,address,address,uint256)": {
        "details": "Proposes a candidate to become a validator. Requirements: - The method caller is able to receive RON. - The treasury is able to receive RON. - The amount is larger than or equal to the minimum validator staking amount `minValidatorStakingAmount()`. Emits the event `PoolApproved`.",
        "params": {
          "_candidateAdmin": "the candidate admin will be stored in the validator contract, used for calling function that affects to its candidate, e.g. scheduling maintenance."
        }
      },
      "bulkUndelegate(address[],uint256[])": {
        "details": "Bulk unstakes from a list of candidates. Requirements: - The method caller is not the pool admin. Emits the events `Undelegated`."
      },
      "claimRewards(address[])": {
        "details": "Claims the reward of method caller. Emits the `RewardClaimed` event."
      },
      "cooldownSecsToUndelegate()": {
        "details": "Returns The cooldown time in seconds to undelegate from the last timestamp (s)he delegated."
      },
      "deductStakingAmount(address,uint256)": {
        "details": "Deducts from staking amount of the validator `_consensusAddr` for `_amount`. Requirements: - The method caller is validator contract. Emits the event `Unstaked`."
      },
      "delegate(address)": {
        "details": "Stakes for a validator candidate `_consensusAddr`. Requirements: - The consensus address is a validator candidate. - The method caller is not the pool admin. Emits the `Delegated` event."
      },
      "delegateRewards(address[],address)": {
        "details": "Claims the rewards and delegates them to the consensus address. Requirements: - The method caller is not the pool admin. - The consensus address `_consensusAddrDst` is a validator candidate. Emits the `RewardClaimed` event and the `Delegated` event."
      },
      "deprecatePools(address[])": {
        "details": "Deprecates the pool. - Deduct self-staking amount of the pool admin to zero. - Transfer the deducted amount to the pool admin. - Deactivate the pool admin address in the mapping of active pool admins Requirements: - The method caller is validator contract. Emits the event `PoolsDeprecated` and `Unstaked` events. Emits the event `StakingAmountTransferFailed` if the contract cannot transfer RON back to the pool admin."
      },
      "getManySelfStakings(address[])": {
        "details": "Returns the self-staking amounts of the pools."
      },
      "getManyStakingAmounts(address[],address[])": {
        "details": "Returns the staking amounts of the users."
      },
      "getManyStakingTotals(address[])": {
        "details": "Returns the total staking amounts of all users for the pools `_poolAddrs`."
      },
      "getPoolAddressOf(address)": {
        "details": "Returns the consensus address corresponding to the pool admin."
      },
      "getReward(address,address)": {
        "details": "Returns the reward amount that user claimable."
      },
      "getRewards(address,address[])": {
        "details": "Returns the claimable reward of the user `_user`."
      },
      "getStakingAmount(address,address)": {
        "details": "Returns the staking amount of an user."
      },
      "getStakingPool(address)": {
        "details": "Returns the staking pool detail."
      },
      "getStakingTotal(address)": {
        "details": "Returns the total staking amount of all users for a pool."
      },
      "initialize(address,uint256,uint256,uint256)": {
        "details": "Initializes the contract storage."
      },
      "isActivePoolAdmin(address)": {
        "details": "Returns whether the `_poolAdminAddr` is currently active."
      },
      "minValidatorStakingAmount()": {
        "details": "Returns the minimum threshold for being a validator candidate."
      },
      "recordRewards(address[],uint256[],uint256)": {
        "details": "Records the amount of rewards `_rewards` for the pools `_consensusAddrs`. Requirements: - The method caller is validator contract. Emits the event `PoolsUpdated` once the contract recorded the rewards successfully. Emits the event `PoolsUpdateFailed` once the input array lengths are not equal. Emits the event `PoolsUpdateConflicted` when there are some pools which already updated in the period. Note: This method should be called once at the period ending."
      },
      "redelegate(address,address,uint256)": {
        "details": "Unstakes an amount of RON from the `_consensusAddrSrc` and stake for `_consensusAddrDst`. Requirements: - The method caller is not the pool admin. - The consensus address `_consensusAddrDst` is a validator candidate. Emits the `Undelegated` event and the `Delegated` event."
      },
      "requestRenounce(address)": {
        "details": "Renounces being a validator candidate and takes back the delegating/staking amount. Requirements: - The consensus address is a validator candidate. - The method caller is the pool admin."
      },
      "requestUpdateCommissionRate(address,uint256,uint256)": {
        "details": "Pool admin requests update validator commission rate. The request will be forwarded to the candidate manager contract, and the value is getting updated in {ICandidateManager-execRequestUpdateCommissionRate}. Requirements: - The consensus address is a validator candidate. - The method caller is the pool admin. - The `_effectiveDaysOnwards` must be equal to or larger than the {CandidateManager-_minEffectiveDaysOnwards}. - The `_rate` must be in range of [0_00; 100_00]. Emits the event `CommissionRateUpdated`."
      },
      "setCooldownSecsToUndelegate(uint256)": {
        "details": "Sets the cooldown time in seconds to undelegate from the last timestamp (s)he delegated. Requirements: - The method caller is admin. Emits the event `CooldownSecsToUndelegateUpdated`."
      },
      "setMinValidatorStakingAmount(uint256)": {
        "details": "Sets the minimum threshold for being a validator candidate. Requirements: - The method caller is admin. Emits the `MinValidatorStakingAmountUpdated` event."
      },
      "setValidatorContract(address)": {
        "details": "Sets the validator contract. Requirements: - The method caller is admin. - The new address is a contract. Emits the event `ValidatorContractUpdated`."
      },
      "setWaitingSecsToRevoke(uint256)": {
        "details": "Sets the number of seconds that a candidate must wait to be revoked. Requirements: - The method caller is admin. Emits the event `WaitingSecsToRevokeUpdated`."
      },
      "stake(address)": {
        "details": "Self-delegates to the validator candidate `_consensusAddr`. Requirements: - The consensus address is a validator candidate. - The method caller is the pool admin. - The `msg.value` is larger than 0. Emits the event `Staked`."
      },
      "undelegate(address,uint256)": {
        "details": "Unstakes from a validator candidate `_consensusAddr` for `_amount`. Requirements: - The method caller is not the pool admin. Emits the `Undelegated` event."
      },
      "unstake(address,uint256)": {
        "details": "Unstakes from the validator candidate `_consensusAddr` for `_amount`. Requirements: - The consensus address is a validator candidate. - The method caller is the pool admin. Emits the event `Unstaked`."
      },
      "validatorContract()": {
        "details": "Returns the validator contract."
      },
      "waitingSecsToRevoke()": {
        "details": "Returns the number of seconds that a candidate must wait for the renounce request gets affected."
      }
    },
    "version": 1
  },
  "userdoc": {
    "kind": "user",
    "methods": {},
    "version": 1
  },
  "storageLayout": {
    "storage": [
      {
        "astId": 1636,
        "contract": "contracts/ronin/staking/Staking.sol:Staking",
        "label": "_status",
        "offset": 0,
        "slot": "0",
        "type": "t_uint256"
      },
      {
        "astId": 25497,
        "contract": "contracts/ronin/staking/Staking.sol:Staking",
        "label": "_accumulatedRps",
        "offset": 0,
        "slot": "1",
        "type": "t_mapping(t_address,t_mapping(t_uint256,t_struct(PeriodWrapper)10088_storage))"
      },
      {
        "astId": 25505,
        "contract": "contracts/ronin/staking/Staking.sol:Staking",
        "label": "_userReward",
        "offset": 0,
        "slot": "2",
        "type": "t_mapping(t_address,t_mapping(t_address,t_struct(UserRewardFields)10731_storage))"
      },
      {
        "astId": 25511,
        "contract": "contracts/ronin/staking/Staking.sol:Staking",
        "label": "_stakingPool",
        "offset": 0,
        "slot": "3",
        "type": "t_mapping(t_address,t_struct(PoolFields)10737_storage)"
      },
      {
        "astId": 25516,
        "contract": "contracts/ronin/staking/Staking.sol:Staking",
        "label": "______gap",
        "offset": 0,
        "slot": "4",
        "type": "t_array(t_uint256)50_storage"
      },
      {
        "astId": 6427,
        "contract": "contracts/ronin/staking/Staking.sol:Staking",
        "label": "_validatorContract",
        "offset": 0,
        "slot": "54",
        "type": "t_contract(IRoninValidatorSet)11235"
      },
      {
        "astId": 24031,
        "contract": "contracts/ronin/staking/Staking.sol:Staking",
        "label": "_stakingPool",
        "offset": 0,
        "slot": "55",
        "type": "t_mapping(t_address,t_struct(PoolDetail)10453_storage)"
      },
      {
        "astId": 24034,
        "contract": "contracts/ronin/staking/Staking.sol:Staking",
        "label": "_cooldownSecsToUndelegate",
        "offset": 0,
        "slot": "56",
        "type": "t_uint256"
      },
      {
        "astId": 24037,
        "contract": "contracts/ronin/staking/Staking.sol:Staking",
        "label": "_waitingSecsToRevoke",
        "offset": 0,
        "slot": "57",
        "type": "t_uint256"
      },
      {
        "astId": 24042,
        "contract": "contracts/ronin/staking/Staking.sol:Staking",
        "label": "_activePoolAdminMapping",
        "offset": 0,
        "slot": "58",
        "type": "t_mapping(t_address,t_address)"
      },
      {
        "astId": 24047,
        "contract": "contracts/ronin/staking/Staking.sol:Staking",
        "label": "______gap",
        "offset": 0,
        "slot": "59",
        "type": "t_array(t_uint256)49_storage"
      },
      {
        "astId": 24403,
        "contract": "contracts/ronin/staking/Staking.sol:Staking",
        "label": "_minValidatorStakingAmount",
        "offset": 0,
        "slot": "108",
        "type": "t_uint256"
      },
      {
        "astId": 24408,
        "contract": "contracts/ronin/staking/Staking.sol:Staking",
        "label": "______gap",
        "offset": 0,
        "slot": "109",
        "type": "t_array(t_uint256)50_storage"
      },
      {
        "astId": 25004,
        "contract": "contracts/ronin/staking/Staking.sol:Staking",
        "label": "______gap",
        "offset": 0,
        "slot": "159",
        "type": "t_array(t_uint256)50_storage"
      },
      {
        "astId": 1373,
        "contract": "contracts/ronin/staking/Staking.sol:Staking",
        "label": "_initialized",
        "offset": 0,
        "slot": "209",
        "type": "t_uint8"
      },
      {
        "astId": 1376,
        "contract": "contracts/ronin/staking/Staking.sol:Staking",
        "label": "_initializing",
        "offset": 1,
        "slot": "209",
        "type": "t_bool"
      }
    ],
    "types": {
      "t_address": {
        "encoding": "inplace",
        "label": "address",
        "numberOfBytes": "20"
      },
      "t_array(t_uint256)49_storage": {
        "base": "t_uint256",
        "encoding": "inplace",
        "label": "uint256[49]",
        "numberOfBytes": "1568"
      },
      "t_array(t_uint256)50_storage": {
        "base": "t_uint256",
        "encoding": "inplace",
        "label": "uint256[50]",
        "numberOfBytes": "1600"
      },
      "t_bool": {
        "encoding": "inplace",
        "label": "bool",
        "numberOfBytes": "1"
      },
      "t_contract(IRoninValidatorSet)11235": {
        "encoding": "inplace",
        "label": "contract IRoninValidatorSet",
        "numberOfBytes": "20"
      },
      "t_mapping(t_address,t_address)": {
        "encoding": "mapping",
        "key": "t_address",
        "label": "mapping(address => address)",
        "numberOfBytes": "32",
        "value": "t_address"
      },
      "t_mapping(t_address,t_mapping(t_address,t_struct(UserRewardFields)10731_storage))": {
        "encoding": "mapping",
        "key": "t_address",
        "label": "mapping(address => mapping(address => struct IRewardPool.UserRewardFields))",
        "numberOfBytes": "32",
        "value": "t_mapping(t_address,t_struct(UserRewardFields)10731_storage)"
      },
      "t_mapping(t_address,t_mapping(t_uint256,t_struct(PeriodWrapper)10088_storage))": {
        "encoding": "mapping",
        "key": "t_address",
        "label": "mapping(address => mapping(uint256 => struct PeriodWrapperConsumer.PeriodWrapper))",
        "numberOfBytes": "32",
        "value": "t_mapping(t_uint256,t_struct(PeriodWrapper)10088_storage)"
      },
      "t_mapping(t_address,t_struct(PoolDetail)10453_storage)": {
        "encoding": "mapping",
        "key": "t_address",
        "label": "mapping(address => struct IBaseStaking.PoolDetail)",
        "numberOfBytes": "32",
        "value": "t_struct(PoolDetail)10453_storage"
      },
      "t_mapping(t_address,t_struct(PoolFields)10737_storage)": {
        "encoding": "mapping",
        "key": "t_address",
        "label": "mapping(address => struct IRewardPool.PoolFields)",
        "numberOfBytes": "32",
        "value": "t_struct(PoolFields)10737_storage"
      },
      "t_mapping(t_address,t_struct(UserRewardFields)10731_storage)": {
        "encoding": "mapping",
        "key": "t_address",
        "label": "mapping(address => struct IRewardPool.UserRewardFields)",
        "numberOfBytes": "32",
        "value": "t_struct(UserRewardFields)10731_storage"
      },
      "t_mapping(t_address,t_uint256)": {
        "encoding": "mapping",
        "key": "t_address",
        "label": "mapping(address => uint256)",
        "numberOfBytes": "32",
        "value": "t_uint256"
      },
      "t_mapping(t_uint256,t_struct(PeriodWrapper)10088_storage)": {
        "encoding": "mapping",
        "key": "t_uint256",
        "label": "mapping(uint256 => struct PeriodWrapperConsumer.PeriodWrapper)",
        "numberOfBytes": "32",
        "value": "t_struct(PeriodWrapper)10088_storage"
      },
      "t_struct(PeriodWrapper)10088_storage": {
        "encoding": "inplace",
        "label": "struct PeriodWrapperConsumer.PeriodWrapper",
        "members": [
          {
            "astId": 10085,
            "contract": "contracts/ronin/staking/Staking.sol:Staking",
            "label": "inner",
            "offset": 0,
            "slot": "0",
            "type": "t_uint256"
          },
          {
            "astId": 10087,
            "contract": "contracts/ronin/staking/Staking.sol:Staking",
            "label": "lastPeriod",
            "offset": 0,
            "slot": "1",
            "type": "t_uint256"
          }
        ],
        "numberOfBytes": "64"
      },
      "t_struct(PoolDetail)10453_storage": {
        "encoding": "inplace",
        "label": "struct IBaseStaking.PoolDetail",
        "members": [
          {
            "astId": 10438,
            "contract": "contracts/ronin/staking/Staking.sol:Staking",
            "label": "addr",
            "offset": 0,
            "slot": "0",
            "type": "t_address"
          },
          {
            "astId": 10440,
            "contract": "contracts/ronin/staking/Staking.sol:Staking",
            "label": "admin",
            "offset": 0,
            "slot": "1",
            "type": "t_address"
          },
          {
            "astId": 10442,
            "contract": "contracts/ronin/staking/Staking.sol:Staking",
            "label": "stakingAmount",
            "offset": 0,
            "slot": "2",
            "type": "t_uint256"
          },
          {
            "astId": 10444,
            "contract": "contracts/ronin/staking/Staking.sol:Staking",
            "label": "stakingTotal",
            "offset": 0,
            "slot": "3",
            "type": "t_uint256"
          },
          {
            "astId": 10448,
            "contract": "contracts/ronin/staking/Staking.sol:Staking",
            "label": "delegatingAmount",
            "offset": 0,
            "slot": "4",
            "type": "t_mapping(t_address,t_uint256)"
          },
          {
            "astId": 10452,
            "contract": "contracts/ronin/staking/Staking.sol:Staking",
            "label": "lastDelegatingTimestamp",
            "offset": 0,
            "slot": "5",
            "type": "t_mapping(t_address,t_uint256)"
          }
        ],
        "numberOfBytes": "192"
      },
      "t_struct(PoolFields)10737_storage": {
        "encoding": "inplace",
        "label": "struct IRewardPool.PoolFields",
        "members": [
          {
            "astId": 10733,
            "contract": "contracts/ronin/staking/Staking.sol:Staking",
            "label": "aRps",
            "offset": 0,
            "slot": "0",
            "type": "t_uint256"
          },
          {
            "astId": 10736,
            "contract": "contracts/ronin/staking/Staking.sol:Staking",
            "label": "shares",
            "offset": 0,
            "slot": "1",
            "type": "t_struct(PeriodWrapper)10088_storage"
          }
        ],
        "numberOfBytes": "96"
      },
      "t_struct(UserRewardFields)10731_storage": {
        "encoding": "inplace",
        "label": "struct IRewardPool.UserRewardFields",
        "members": [
          {
            "astId": 10724,
            "contract": "contracts/ronin/staking/Staking.sol:Staking",
            "label": "debited",
            "offset": 0,
            "slot": "0",
            "type": "t_uint256"
          },
          {
            "astId": 10726,
            "contract": "contracts/ronin/staking/Staking.sol:Staking",
            "label": "aRps",
            "offset": 0,
            "slot": "1",
            "type": "t_uint256"
          },
          {
            "astId": 10728,
            "contract": "contracts/ronin/staking/Staking.sol:Staking",
            "label": "minAmount",
            "offset": 0,
            "slot": "2",
            "type": "t_uint256"
          },
          {
            "astId": 10730,
            "contract": "contracts/ronin/staking/Staking.sol:Staking",
            "label": "lastPeriod",
            "offset": 0,
            "slot": "3",
            "type": "t_uint256"
          }
        ],
        "numberOfBytes": "128"
      },
      "t_uint256": {
        "encoding": "inplace",
        "label": "uint256",
        "numberOfBytes": "32"
      },
      "t_uint8": {
        "encoding": "inplace",
        "label": "uint8",
        "numberOfBytes": "1"
      }
    }
  }
}