{
  "address": "0x3b62667358ae2b7611ae6451d5a244d9013db143",
  "abi": [
    {
      "inputs": [],
      "stateMutability": "nonpayable",
      "type": "constructor"
    },
    {
      "inputs": [],
      "name": "ErrBonusAlreadySent",
      "type": "error"
    },
    {
      "inputs": [
        {
          "internalType": "enum ContractType",
          "name": "contractType",
          "type": "uint8"
        }
      ],
      "name": "ErrContractTypeNotFound",
      "type": "error"
    },
    {
      "inputs": [
        {
          "internalType": "bytes4",
          "name": "msgSig",
          "type": "bytes4"
        },
        {
          "internalType": "uint256",
          "name": "currentBalance",
          "type": "uint256"
        },
        {
          "internalType": "uint256",
          "name": "sendAmount",
          "type": "uint256"
        }
      ],
      "name": "ErrInsufficientBalance",
      "type": "error"
    },
    {
      "inputs": [
        {
          "internalType": "bytes4",
          "name": "msgSig",
          "type": "bytes4"
        }
      ],
      "name": "ErrRecipientRevert",
      "type": "error"
    },
    {
      "inputs": [
        {
          "internalType": "bytes4",
          "name": "msgSig",
          "type": "bytes4"
        },
        {
          "internalType": "enum RoleAccess",
          "name": "expectedRole",
          "type": "uint8"
        }
      ],
      "name": "ErrUnauthorized",
      "type": "error"
    },
    {
      "inputs": [
        {
          "internalType": "bytes4",
          "name": "msgSig",
          "type": "bytes4"
        },
        {
          "internalType": "enum ContractType",
          "name": "expectedContractType",
          "type": "uint8"
        },
        {
          "internalType": "address",
          "name": "actual",
          "type": "address"
        }
      ],
      "name": "ErrUnexpectedInternalCall",
      "type": "error"
    },
    {
      "inputs": [
        {
          "internalType": "address",
          "name": "addr",
          "type": "address"
        }
      ],
      "name": "ErrZeroCodeContract",
      "type": "error"
    },
    {
      "anonymous": false,
      "inputs": [
        {
          "indexed": false,
          "internalType": "uint256",
          "name": "",
          "type": "uint256"
        }
      ],
      "name": "BlockProducerBonusPerBlockUpdated",
      "type": "event"
    },
    {
      "anonymous": false,
      "inputs": [
        {
          "indexed": true,
          "internalType": "uint256",
          "name": "blockNumber",
          "type": "uint256"
        },
        {
          "indexed": true,
          "internalType": "address",
          "name": "recipient",
          "type": "address"
        },
        {
          "indexed": false,
          "internalType": "uint256",
          "name": "blockProducerAmount",
          "type": "uint256"
        },
        {
          "indexed": false,
          "internalType": "uint256",
          "name": "bridgeOperatorAmount",
          "type": "uint256"
        },
        {
          "indexed": false,
          "internalType": "uint256",
          "name": "contractBalance",
          "type": "uint256"
        }
      ],
      "name": "BonusTransferFailed",
      "type": "event"
    },
    {
      "anonymous": false,
      "inputs": [
        {
          "indexed": true,
          "internalType": "uint256",
          "name": "blockNumber",
          "type": "uint256"
        },
        {
          "indexed": true,
          "internalType": "address",
          "name": "recipient",
          "type": "address"
        },
        {
          "indexed": false,
          "internalType": "uint256",
          "name": "blockProducerAmount",
          "type": "uint256"
        },
        {
          "indexed": false,
          "internalType": "uint256",
          "name": "bridgeOperatorAmount",
          "type": "uint256"
        }
      ],
      "name": "BonusTransferred",
      "type": "event"
    },
    {
      "anonymous": false,
      "inputs": [
        {
          "indexed": false,
          "internalType": "uint256",
          "name": "",
          "type": "uint256"
        }
      ],
      "name": "BridgeOperatorBonusPerBlockUpdated",
      "type": "event"
    },
    {
      "anonymous": false,
      "inputs": [
        {
          "indexed": true,
          "internalType": "enum ContractType",
          "name": "contractType",
          "type": "uint8"
        },
        {
          "indexed": true,
          "internalType": "address",
          "name": "addr",
          "type": "address"
        }
      ],
      "name": "ContractUpdated",
      "type": "event"
    },
    {
      "anonymous": false,
      "inputs": [
        {
          "indexed": false,
          "internalType": "uint8",
          "name": "version",
          "type": "uint8"
        }
      ],
      "name": "Initialized",
      "type": "event"
    },
    {
      "inputs": [
        {
          "internalType": "uint256",
          "name": "",
          "type": "uint256"
        }
      ],
      "name": "blockProducerBlockBonus",
      "outputs": [
        {
          "internalType": "uint256",
          "name": "",
          "type": "uint256"
        }
      ],
      "stateMutability": "view",
      "type": "function"
    },
    {
      "inputs": [
        {
          "internalType": "uint256",
          "name": "",
          "type": "uint256"
        }
      ],
      "name": "bridgeOperatorBlockBonus",
      "outputs": [
        {
          "internalType": "uint256",
          "name": "",
          "type": "uint256"
        }
      ],
      "stateMutability": "view",
      "type": "function"
    },
    {
      "inputs": [
        {
          "internalType": "enum ContractType",
          "name": "contractType",
          "type": "uint8"
        }
      ],
      "name": "getContract",
      "outputs": [
        {
          "internalType": "address",
          "name": "contract_",
          "type": "address"
        }
      ],
      "stateMutability": "view",
      "type": "function"
    },
    {
      "inputs": [
        {
          "internalType": "address",
          "name": "__validatorContract",
          "type": "address"
        },
        {
          "internalType": "uint256",
          "name": "__blockProducerBonusPerBlock",
          "type": "uint256"
        },
        {
          "internalType": "uint256",
          "name": "__bridgeOperatorBonusPerBlock",
          "type": "uint256"
        }
      ],
      "name": "initialize",
      "outputs": [],
      "stateMutability": "payable",
      "type": "function"
    },
    {
      "inputs": [],
      "name": "initializeV2",
      "outputs": [],
      "stateMutability": "nonpayable",
      "type": "function"
    },
    {
      "inputs": [],
      "name": "lastBlockSendingBonus",
      "outputs": [
        {
          "internalType": "uint256",
          "name": "",
          "type": "uint256"
        }
      ],
      "stateMutability": "view",
      "type": "function"
    },
    {
      "inputs": [],
      "name": "receiveRON",
      "outputs": [],
      "stateMutability": "payable",
      "type": "function"
    },
    {
      "inputs": [
        {
          "internalType": "bool",
          "name": "_forBlockProducer",
          "type": "bool"
        },
        {
          "internalType": "bool",
          "name": "_forBridgeOperator",
          "type": "bool"
        }
      ],
      "name": "requestBonus",
      "outputs": [
        {
          "internalType": "bool",
          "name": "_success",
          "type": "bool"
        },
        {
          "internalType": "uint256",
          "name": "_blockProducerBonus",
          "type": "uint256"
        },
        {
          "internalType": "uint256",
          "name": "_bridgeOperatorBonus",
          "type": "uint256"
        }
      ],
      "stateMutability": "nonpayable",
      "type": "function"
    },
    {
      "inputs": [
        {
          "internalType": "uint256",
          "name": "_amount",
          "type": "uint256"
        }
      ],
      "name": "setBlockProducerBonusPerBlock",
      "outputs": [],
      "stateMutability": "nonpayable",
      "type": "function"
    },
    {
      "inputs": [
        {
          "internalType": "uint256",
          "name": "_amount",
          "type": "uint256"
        }
      ],
      "name": "setBridgeOperatorBonusPerBlock",
      "outputs": [],
      "stateMutability": "nonpayable",
      "type": "function"
    },
    {
      "inputs": [
        {
          "internalType": "enum ContractType",
          "name": "contractType",
          "type": "uint8"
        },
        {
          "internalType": "address",
          "name": "addr",
          "type": "address"
        }
      ],
      "name": "setContract",
      "outputs": [],
      "stateMutability": "nonpayable",
      "type": "function"
    }
  ],
  "transactionHash": "0x5d61bc4c26833e2872337512bcce9b8a15e5fb5ecf9fe04472ffda7f54b1e061",
  "args": [],
  "numDeployments": 6,
  "solcInputHash": "04a9bbd243a024f931581fbb384106a3",
  "bytecode": "0x608060405234801561001057600080fd5b5061001961001e565b6100eb565b600054600160a81b900460ff161561008c5760405162461bcd60e51b815260206004820152602760248201527f496e697469616c697a61626c653a20636f6e747261637420697320696e697469604482015266616c697a696e6760c81b606482015260840160405180910390fd5b60005460ff600160a01b909104811610156100e9576000805460ff60a01b191660ff60a01b17905560405160ff81527f7f26b83ff96e1f2b6a682f133852f6798a09c465da95921460cefb38474024989060200160405180910390a15b565b610a38806100fa6000396000f3fe60806040526004361061009c5760003560e01c80637a1ac61e116100645780637a1ac61e1461013e578063865e6fd314610151578063d8209d0714610171578063de981f1b14610193578063f13ba644146101cb578063fa8674a1146101eb57600080fd5b80630634f5b9146100a15780630d9160e7146100e357806359f778df146101075780635cd8a76b1461010957806367e9941c1461011e575b600080fd5b3480156100ad57600080fd5b506100c16100bc366004610828565b61020d565b6040805193151584526020840192909252908201526060015b60405180910390f35b3480156100ef57600080fd5b506100f960035481565b6040519081526020016100da565b005b34801561011557600080fd5b5061010761033c565b34801561012a57600080fd5b5061010761013936600461085b565b610416565b61010761014c36600461088b565b61042a565b34801561015d57600080fd5b5061010761016c3660046108cd565b610527565b34801561017d57600080fd5b506100f961018c36600461085b565b5060015490565b34801561019f57600080fd5b506101b36101ae3660046108f7565b610546565b6040516001600160a01b0390911681526020016100da565b3480156101d757600080fd5b506101076101e636600461085b565b6105c1565b3480156101f757600080fd5b506100f961020636600461085b565b5060025490565b6000806000600861021d816105d2565b600354431161023f576040516301cb9f2b60e71b815260040160405180910390fd5b436003558561024f576000610253565b6001545b925084610261576000610265565b6002545b915060006102738385610919565b905080156103305733610286818361061e565b9550856102e8576040805186815260208101869052478183015290516001600160a01b0383169143917f137e697384eeada9cf7614b88e4ac940aeff18d0fef7e86bce1abdc812b95e099181900360600190a350600093508392506103329050565b60408051868152602081018690526001600160a01b0383169143917f60200441f885b45b3b7f1fdc45a47bb0d0a0884a6a17722f8dd7232830de9bd2910160405180910390a3505b505b509250925092565b565b600054600290600160a81b900460ff16158015610367575060005460ff808316600160a01b90920416105b61038c5760405162461bcd60e51b815260040161038390610940565b60405180910390fd5b6000805460ff60a81b1960ff8416600160a01b021661ffff60a01b1990911617600160a81b17908190556103cb906008906001600160a01b031661067a565b60008054600161ff0160a01b031916905560405160ff821681527f7f26b83ff96e1f2b6a682f133852f6798a09c465da95921460cefb3847402498906020015b60405180910390a150565b61041e61071e565b61042781610778565b50565b600054600160a81b900460ff161580801561045257506000546001600160a01b90910460ff16105b806104735750303b1580156104735750600054600160a01b900460ff166001145b61048f5760405162461bcd60e51b815260040161038390610940565b6000805460ff60a01b1916600160a01b17905580156104bc576000805460ff60a81b1916600160a81b1790555b6104c760088561067a565b6104d0836107ad565b6104d982610778565b8015610521576000805460ff60a81b19169055604051600181527f7f26b83ff96e1f2b6a682f133852f6798a09c465da95921460cefb38474024989060200160405180910390a15b50505050565b61052f61071e565b610538816107e2565b610542828261067a565b5050565b60007fdea3103d22025c269050bea94c0c84688877f12fa22b7e6d2d5d78a9a49aa1cb600083600d81111561057d5761057d61098e565b60ff1681526020810191909152604001600020546001600160a01b03169050806105bc578160405163409140df60e11b815260040161038391906109b8565b919050565b6105c961071e565b610427816107ad565b6105db81610546565b6001600160a01b0316336001600160a01b031614610427576000356001600160e01b03191681336040516320e0f98d60e21b8152600401610383939291906109c6565b6000826001600160a01b03168260405160006040518083038185875af1925050503d806000811461066b576040519150601f19603f3d011682016040523d82523d6000602084013e610670565b606091505b5090949350505050565b807fdea3103d22025c269050bea94c0c84688877f12fa22b7e6d2d5d78a9a49aa1cb600084600d8111156106b0576106b061098e565b60ff168152602081019190915260400160002080546001600160a01b0319166001600160a01b03928316179055811682600d8111156106f1576106f161098e565b6040517f865d1c228a8ea13709cfe61f346f7ff67f1bbd4a18ff31ad3e7147350d317c5990600090a35050565b7fb53127684a568b3173ae13b9f8a6016e243e63b6e8ee1178d6a717850b5d6103546001600160a01b0316331461033a576000356001600160e01b0319166001604051620f948f60ea1b81526004016103839291906109fd565b60028190556040518181527f57a23b4b11f619fb9dea21a5a8115bb90103c1043eb3318d773558829d25f12c9060200161040b565b60018190556040518181527f861f03c645467325a586235bb3155834f1dddf12413d0a802f416eb6d4035e6d9060200161040b565b806001600160a01b03163b60000361042757604051630bfc64a360e21b81526001600160a01b0382166004820152602401610383565b803580151581146105bc57600080fd5b6000806040838503121561083b57600080fd5b61084483610818565b915061085260208401610818565b90509250929050565b60006020828403121561086d57600080fd5b5035919050565b80356001600160a01b03811681146105bc57600080fd5b6000806000606084860312156108a057600080fd5b6108a984610874565b95602085013595506040909401359392505050565b8035600e81106105bc57600080fd5b600080604083850312156108e057600080fd5b6108e9836108be565b915061085260208401610874565b60006020828403121561090957600080fd5b610912826108be565b9392505050565b8082018082111561093a57634e487b7160e01b600052601160045260246000fd5b92915050565b6020808252602e908201527f496e697469616c697a61626c653a20636f6e747261637420697320616c72656160408201526d191e481a5b9a5d1a585b1a5e995960921b606082015260800190565b634e487b7160e01b600052602160045260246000fd5b600e81106109b4576109b461098e565b9052565b6020810161093a82846109a4565b6001600160e01b031984168152606081016109e460208301856109a4565b6001600160a01b03929092166040919091015292915050565b6001600160e01b0319831681526040810160098310610a1e57610a1e61098e565b826020830152939250505056fea164736f6c6343000811000a",
  "devdoc": {
    "errors": {
      "ErrBonusAlreadySent()": [
        {
          "details": "Error thrown when attempting to send a bonus that has already been sent."
        }
      ],
      "ErrContractTypeNotFound(uint8)": [
        {
          "details": "Error of invalid role."
        }
      ],
      "ErrInsufficientBalance(bytes4,uint256,uint256)": [
        {
          "details": "Error of sender has insufficient balance."
        }
      ],
      "ErrRecipientRevert(bytes4)": [
        {
          "details": "Error of recipient not accepting RON when transfer RON."
        }
      ],
      "ErrUnauthorized(bytes4,uint8)": [
        {
          "details": "Error indicating that the caller is unauthorized to perform a specific function.",
          "params": {
            "expectedRole": "The role required to perform the function.",
            "msgSig": "The function signature (bytes4) that the caller is unauthorized to perform."
          }
        }
      ],
      "ErrUnexpectedInternalCall(bytes4,uint8,address)": [
        {
          "details": "Error indicating that the caller is unauthorized to perform a specific function.",
          "params": {
            "actual": "The actual address that called to the function.",
            "expectedContractType": "The contract type required to perform the function.",
            "msgSig": "The function signature (bytes4)."
          }
        }
      ],
      "ErrZeroCodeContract(address)": [
        {
          "details": "Error of set to non-contract."
        }
      ]
    },
    "kind": "dev",
    "methods": {
      "blockProducerBlockBonus(uint256)": {
        "details": "Returns the bonus amount for the block producer at `_block`."
      },
      "bridgeOperatorBlockBonus(uint256)": {
        "details": "Returns the bonus amount for the bridge validator at `_block`."
      },
      "getContract(uint8)": {
        "details": "Returns the address of a contract with a specific role. Throws an error if no contract is set for the specified role.",
        "params": {
          "contractType": "The role of the contract to retrieve."
        },
        "returns": {
          "contract_": "The address of the contract with the specified role."
        }
      },
      "initialize(address,uint256,uint256)": {
        "details": "Initializes the contract storage."
      },
      "receiveRON()": {
        "details": "Receives RON from any address."
      },
      "requestBonus(bool,bool)": {
        "details": "Transfers the staking vesting for the block producer and the bridge operator whenever a new block is mined. Requirements: - The method caller must be validator contract. - The method must be called only once per block. Emits the event `BonusTransferred` or `BonusTransferFailed`. Notes: - The method does not revert when the contract balance is insufficient to send bonus. This assure the submit reward method will not be reverted, and the underlying nodes does not hang.",
        "params": {
          "_forBlockProducer": "Indicates whether requesting the bonus for the block procucer, in case of being in jail or relevance.",
          "_forBridgeOperator": "Indicates whether requesting the bonus for the bridge operator."
        },
        "returns": {
          "_blockProducerBonus": "The amount of bonus actually sent for the block producer, returns 0 when the transfer is failed.",
          "_bridgeOperatorBonus": "The amount of bonus actually sent for the bridge operator, returns 0 when the transfer is failed.",
          "_success": "Whether the transfer is successfully. This returns false mostly because this contract is out of balance."
        }
      },
      "setBlockProducerBonusPerBlock(uint256)": {
        "details": "Sets the bonus amount per block for block producer. Emits the event `BlockProducerBonusPerBlockUpdated`. Requirements: - The method caller is admin."
      },
      "setBridgeOperatorBonusPerBlock(uint256)": {
        "details": "Sets the bonus amount per block for bridge operator. Emits the event `BridgeOperatorBonusPerBlockUpdated`. Requirements: - The method caller is admin."
      },
      "setContract(uint8,address)": {
        "details": "Sets the address of a contract with a specific role. Emits the event {ContractUpdated}.",
        "params": {
          "addr": "The address of the contract to set.",
          "contractType": "The role of the contract to set."
        }
      }
    },
    "stateVariables": {
      "_blockProducerBonusPerBlock": {
        "details": "The block bonus for the block producer whenever a new block is mined."
      },
      "_bridgeOperatorBonusPerBlock": {
        "details": "The block bonus for the bridge operator whenever a new block is mined."
      },
      "lastBlockSendingBonus": {
        "details": "The last block number that the staking vesting sent."
      }
    },
    "version": 1
  },
  "userdoc": {
    "kind": "user",
    "methods": {},
    "version": 1
  },
  "storageLayout": {
    "storage": [
      {
        "astId": 39596,
        "contract": "contracts/ronin/StakingVesting.sol:StakingVesting",
        "label": "______deprecatedValidator",
        "offset": 0,
        "slot": "0",
        "type": "t_address"
      },
      {
        "astId": 1373,
        "contract": "contracts/ronin/StakingVesting.sol:StakingVesting",
        "label": "_initialized",
        "offset": 20,
        "slot": "0",
        "type": "t_uint8"
      },
      {
        "astId": 1376,
        "contract": "contracts/ronin/StakingVesting.sol:StakingVesting",
        "label": "_initializing",
        "offset": 21,
        "slot": "0",
        "type": "t_bool"
      },
      {
        "astId": 24939,
        "contract": "contracts/ronin/StakingVesting.sol:StakingVesting",
        "label": "_blockProducerBonusPerBlock",
        "offset": 0,
        "slot": "1",
        "type": "t_uint256"
      },
      {
        "astId": 24942,
        "contract": "contracts/ronin/StakingVesting.sol:StakingVesting",
        "label": "_bridgeOperatorBonusPerBlock",
        "offset": 0,
        "slot": "2",
        "type": "t_uint256"
      },
      {
        "astId": 24945,
        "contract": "contracts/ronin/StakingVesting.sol:StakingVesting",
        "label": "lastBlockSendingBonus",
        "offset": 0,
        "slot": "3",
        "type": "t_uint256"
      }
    ],
    "types": {
      "t_address": {
        "encoding": "inplace",
        "label": "address",
        "numberOfBytes": "20"
      },
      "t_bool": {
        "encoding": "inplace",
        "label": "bool",
        "numberOfBytes": "1"
      },
      "t_uint256": {
        "encoding": "inplace",
        "label": "uint256",
        "numberOfBytes": "32"
      },
      "t_uint8": {
        "encoding": "inplace",
        "label": "uint8",
        "numberOfBytes": "1"
      }
    }
  }
}