{
  "address": "0x023930A8ad88dc5AB3a3b8E8cb849BbD6a5c8441",
  "abi": [
    {
      "inputs": [],
      "stateMutability": "nonpayable",
      "type": "constructor"
    },
    {
      "anonymous": false,
      "inputs": [
        {
          "indexed": false,
          "internalType": "uint256",
          "name": "minSecs",
          "type": "uint256"
        }
      ],
      "name": "CooldownSecsToUndelegateUpdated",
      "type": "event"
    },
    {
      "anonymous": false,
      "inputs": [
        {
          "indexed": true,
          "internalType": "address",
          "name": "delegator",
          "type": "address"
        },
        {
          "indexed": true,
          "internalType": "address",
          "name": "consensuAddr",
          "type": "address"
        },
        {
          "indexed": false,
          "internalType": "uint256",
          "name": "amount",
          "type": "uint256"
        }
      ],
      "name": "Delegated",
      "type": "event"
    },
    {
      "anonymous": false,
      "inputs": [
        {
          "indexed": false,
          "internalType": "uint8",
          "name": "version",
          "type": "uint8"
        }
      ],
      "name": "Initialized",
      "type": "event"
    },
    {
      "anonymous": false,
      "inputs": [
        {
          "indexed": false,
          "internalType": "uint256",
          "name": "threshold",
          "type": "uint256"
        }
      ],
      "name": "MinValidatorStakingAmountUpdated",
      "type": "event"
    },
    {
      "anonymous": false,
      "inputs": [
        {
          "indexed": true,
          "internalType": "address",
          "name": "validator",
          "type": "address"
        },
        {
          "indexed": true,
          "internalType": "address",
          "name": "admin",
          "type": "address"
        }
      ],
      "name": "PoolApproved",
      "type": "event"
    },
    {
      "anonymous": false,
      "inputs": [
        {
          "indexed": true,
          "internalType": "uint256",
          "name": "period",
          "type": "uint256"
        },
        {
          "indexed": true,
          "internalType": "address",
          "name": "poolAddr",
          "type": "address"
        },
        {
          "indexed": false,
          "internalType": "uint256",
          "name": "shares",
          "type": "uint256"
        }
      ],
      "name": "PoolSharesUpdated",
      "type": "event"
    },
    {
      "anonymous": false,
      "inputs": [
        {
          "indexed": false,
          "internalType": "address[]",
          "name": "validator",
          "type": "address[]"
        }
      ],
      "name": "PoolsDeprecated",
      "type": "event"
    },
    {
      "anonymous": false,
      "inputs": [
        {
          "indexed": true,
          "internalType": "uint256",
          "name": "period",
          "type": "uint256"
        },
        {
          "indexed": false,
          "internalType": "address[]",
          "name": "poolAddrs",
          "type": "address[]"
        }
      ],
      "name": "PoolsUpdateConflicted",
      "type": "event"
    },
    {
      "anonymous": false,
      "inputs": [
        {
          "indexed": true,
          "internalType": "uint256",
          "name": "period",
          "type": "uint256"
        },
        {
          "indexed": false,
          "internalType": "address[]",
          "name": "poolAddrs",
          "type": "address[]"
        },
        {
          "indexed": false,
          "internalType": "uint256[]",
          "name": "rewards",
          "type": "uint256[]"
        }
      ],
      "name": "PoolsUpdateFailed",
      "type": "event"
    },
    {
      "anonymous": false,
      "inputs": [
        {
          "indexed": true,
          "internalType": "uint256",
          "name": "period",
          "type": "uint256"
        },
        {
          "indexed": false,
          "internalType": "address[]",
          "name": "poolAddrs",
          "type": "address[]"
        },
        {
          "indexed": false,
          "internalType": "uint256[]",
          "name": "aRps",
          "type": "uint256[]"
        },
        {
          "indexed": false,
          "internalType": "uint256[]",
          "name": "shares",
          "type": "uint256[]"
        }
      ],
      "name": "PoolsUpdated",
      "type": "event"
    },
    {
      "anonymous": false,
      "inputs": [
        {
          "indexed": true,
          "internalType": "address",
          "name": "poolAddr",
          "type": "address"
        },
        {
          "indexed": true,
          "internalType": "address",
          "name": "user",
          "type": "address"
        },
        {
          "indexed": false,
          "internalType": "uint256",
          "name": "amount",
          "type": "uint256"
        }
      ],
      "name": "RewardClaimed",
      "type": "event"
    },
    {
      "anonymous": false,
      "inputs": [
        {
          "indexed": true,
          "internalType": "address",
          "name": "consensuAddr",
          "type": "address"
        },
        {
          "indexed": false,
          "internalType": "uint256",
          "name": "amount",
          "type": "uint256"
        }
      ],
      "name": "Staked",
      "type": "event"
    },
    {
      "anonymous": false,
      "inputs": [
        {
          "indexed": true,
          "internalType": "address",
          "name": "validator",
          "type": "address"
        },
        {
          "indexed": true,
          "internalType": "address",
          "name": "admin",
          "type": "address"
        },
        {
          "indexed": false,
          "internalType": "uint256",
          "name": "amount",
          "type": "uint256"
        },
        {
          "indexed": false,
          "internalType": "uint256",
          "name": "contractBalance",
          "type": "uint256"
        }
      ],
      "name": "StakingAmountTransferFailed",
      "type": "event"
    },
    {
      "anonymous": false,
      "inputs": [
        {
          "indexed": true,
          "internalType": "address",
          "name": "delegator",
          "type": "address"
        },
        {
          "indexed": true,
          "internalType": "address",
          "name": "consensuAddr",
          "type": "address"
        },
        {
          "indexed": false,
          "internalType": "uint256",
          "name": "amount",
          "type": "uint256"
        }
      ],
      "name": "Undelegated",
      "type": "event"
    },
    {
      "anonymous": false,
      "inputs": [
        {
          "indexed": true,
          "internalType": "address",
          "name": "consensuAddr",
          "type": "address"
        },
        {
          "indexed": false,
          "internalType": "uint256",
          "name": "amount",
          "type": "uint256"
        }
      ],
      "name": "Unstaked",
      "type": "event"
    },
    {
      "anonymous": false,
      "inputs": [
        {
          "indexed": true,
          "internalType": "address",
          "name": "poolAddr",
          "type": "address"
        },
        {
          "indexed": true,
          "internalType": "address",
          "name": "user",
          "type": "address"
        },
        {
          "indexed": false,
          "internalType": "uint256",
          "name": "debited",
          "type": "uint256"
        }
      ],
      "name": "UserRewardUpdated",
      "type": "event"
    },
    {
      "anonymous": false,
      "inputs": [
        {
          "indexed": false,
          "internalType": "address",
          "name": "",
          "type": "address"
        }
      ],
      "name": "ValidatorContractUpdated",
      "type": "event"
    },
    {
      "anonymous": false,
      "inputs": [
        {
          "indexed": false,
          "internalType": "uint256",
          "name": "secs",
          "type": "uint256"
        }
      ],
      "name": "WaitingSecsToRevokeUpdated",
      "type": "event"
    },
    {
      "stateMutability": "payable",
      "type": "fallback"
    },
    {
      "inputs": [
        {
          "internalType": "address",
          "name": "_candidateAdmin",
          "type": "address"
        },
        {
          "internalType": "address",
          "name": "_consensusAddr",
          "type": "address"
        },
        {
          "internalType": "address payable",
          "name": "_treasuryAddr",
          "type": "address"
        },
        {
          "internalType": "address",
          "name": "_bridgeOperatorAddr",
          "type": "address"
        },
        {
          "internalType": "uint256",
          "name": "_commissionRate",
          "type": "uint256"
        }
      ],
      "name": "applyValidatorCandidate",
      "outputs": [],
      "stateMutability": "payable",
      "type": "function"
    },
    {
      "inputs": [
        {
          "internalType": "address[]",
          "name": "_pools",
          "type": "address[]"
        }
      ],
      "name": "bulkSelfStaking",
      "outputs": [
        {
          "internalType": "uint256[]",
          "name": "_selfStakings",
          "type": "uint256[]"
        }
      ],
      "stateMutability": "view",
      "type": "function"
    },
    {
      "inputs": [
        {
          "internalType": "address[]",
          "name": "_poolAddrs",
          "type": "address[]"
        },
        {
          "internalType": "address[]",
          "name": "_userList",
          "type": "address[]"
        }
      ],
      "name": "bulkStakingAmountOf",
      "outputs": [
        {
          "internalType": "uint256[]",
          "name": "_stakingAmounts",
          "type": "uint256[]"
        }
      ],
      "stateMutability": "view",
      "type": "function"
    },
    {
      "inputs": [
        {
          "internalType": "address[]",
          "name": "_poolList",
          "type": "address[]"
        }
      ],
      "name": "bulkStakingTotal",
      "outputs": [
        {
          "internalType": "uint256[]",
          "name": "_stakingAmounts",
          "type": "uint256[]"
        }
      ],
      "stateMutability": "view",
      "type": "function"
    },
    {
      "inputs": [
        {
          "internalType": "address[]",
          "name": "_consensusAddrs",
          "type": "address[]"
        },
        {
          "internalType": "uint256[]",
          "name": "_amounts",
          "type": "uint256[]"
        }
      ],
      "name": "bulkUndelegate",
      "outputs": [],
      "stateMutability": "nonpayable",
      "type": "function"
    },
    {
      "inputs": [
        {
          "internalType": "address[]",
          "name": "_consensusAddrList",
          "type": "address[]"
        }
      ],
      "name": "claimRewards",
      "outputs": [
        {
          "internalType": "uint256",
          "name": "_amount",
          "type": "uint256"
        }
      ],
      "stateMutability": "nonpayable",
      "type": "function"
    },
    {
      "inputs": [],
      "name": "cooldownSecsToUndelegate",
      "outputs": [
        {
          "internalType": "uint256",
          "name": "",
          "type": "uint256"
        }
      ],
      "stateMutability": "view",
      "type": "function"
    },
    {
      "inputs": [
        {
          "internalType": "address",
          "name": "_consensusAddr",
          "type": "address"
        },
        {
          "internalType": "uint256",
          "name": "_amount",
          "type": "uint256"
        }
      ],
      "name": "deductStakingAmount",
      "outputs": [],
      "stateMutability": "nonpayable",
      "type": "function"
    },
    {
      "inputs": [
        {
          "internalType": "address",
          "name": "_consensusAddr",
          "type": "address"
        }
      ],
      "name": "delegate",
      "outputs": [],
      "stateMutability": "payable",
      "type": "function"
    },
    {
      "inputs": [
        {
          "internalType": "address[]",
          "name": "_consensusAddrList",
          "type": "address[]"
        },
        {
          "internalType": "address",
          "name": "_consensusAddrDst",
          "type": "address"
        }
      ],
      "name": "delegateRewards",
      "outputs": [
        {
          "internalType": "uint256",
          "name": "_amount",
          "type": "uint256"
        }
      ],
      "stateMutability": "nonpayable",
      "type": "function"
    },
    {
      "inputs": [
        {
          "internalType": "address[]",
          "name": "_pools",
          "type": "address[]"
        }
      ],
      "name": "deprecatePools",
      "outputs": [],
      "stateMutability": "nonpayable",
      "type": "function"
    },
    {
      "inputs": [
        {
          "internalType": "address",
          "name": "_poolAddr",
          "type": "address"
        },
        {
          "internalType": "address",
          "name": "_user",
          "type": "address"
        }
      ],
      "name": "getReward",
      "outputs": [
        {
          "internalType": "uint256",
          "name": "",
          "type": "uint256"
        }
      ],
      "stateMutability": "view",
      "type": "function"
    },
    {
      "inputs": [
        {
          "internalType": "address",
          "name": "_user",
          "type": "address"
        },
        {
          "internalType": "address[]",
          "name": "_poolAddrList",
          "type": "address[]"
        }
      ],
      "name": "getRewards",
      "outputs": [
        {
          "internalType": "uint256[]",
          "name": "_rewards",
          "type": "uint256[]"
        }
      ],
      "stateMutability": "view",
      "type": "function"
    },
    {
      "inputs": [
        {
          "internalType": "address",
          "name": "_poolAddr",
          "type": "address"
        }
      ],
      "name": "getStakingPool",
      "outputs": [
        {
          "internalType": "address",
          "name": "_admin",
          "type": "address"
        },
        {
          "internalType": "uint256",
          "name": "_stakingAmount",
          "type": "uint256"
        },
        {
          "internalType": "uint256",
          "name": "_stakingTotal",
          "type": "uint256"
        }
      ],
      "stateMutability": "view",
      "type": "function"
    },
    {
      "inputs": [
        {
          "internalType": "address",
          "name": "__validatorContract",
          "type": "address"
        },
        {
          "internalType": "uint256",
          "name": "__minValidatorStakingAmount",
          "type": "uint256"
        },
        {
          "internalType": "uint256",
          "name": "__cooldownSecsToUndelegate",
          "type": "uint256"
        },
        {
          "internalType": "uint256",
          "name": "__waitingSecsToRevoke",
          "type": "uint256"
        }
      ],
      "name": "initialize",
      "outputs": [],
      "stateMutability": "nonpayable",
      "type": "function"
    },
    {
      "inputs": [],
      "name": "minValidatorStakingAmount",
      "outputs": [
        {
          "internalType": "uint256",
          "name": "",
          "type": "uint256"
        }
      ],
      "stateMutability": "view",
      "type": "function"
    },
    {
      "inputs": [
        {
          "internalType": "address[]",
          "name": "_consensusAddrs",
          "type": "address[]"
        },
        {
          "internalType": "uint256[]",
          "name": "_rewards",
          "type": "uint256[]"
        },
        {
          "internalType": "uint256",
          "name": "_period",
          "type": "uint256"
        }
      ],
      "name": "recordRewards",
      "outputs": [],
      "stateMutability": "payable",
      "type": "function"
    },
    {
      "inputs": [
        {
          "internalType": "address",
          "name": "_consensusAddrSrc",
          "type": "address"
        },
        {
          "internalType": "address",
          "name": "_consensusAddrDst",
          "type": "address"
        },
        {
          "internalType": "uint256",
          "name": "_amount",
          "type": "uint256"
        }
      ],
      "name": "redelegate",
      "outputs": [],
      "stateMutability": "nonpayable",
      "type": "function"
    },
    {
      "inputs": [
        {
          "internalType": "address",
          "name": "_consensusAddr",
          "type": "address"
        }
      ],
      "name": "requestRenounce",
      "outputs": [],
      "stateMutability": "nonpayable",
      "type": "function"
    },
    {
      "inputs": [
        {
          "internalType": "uint256",
          "name": "_cooldownSecs",
          "type": "uint256"
        }
      ],
      "name": "setCooldownSecsToUndelegate",
      "outputs": [],
      "stateMutability": "nonpayable",
      "type": "function"
    },
    {
      "inputs": [
        {
          "internalType": "uint256",
          "name": "_threshold",
          "type": "uint256"
        }
      ],
      "name": "setMinValidatorStakingAmount",
      "outputs": [],
      "stateMutability": "nonpayable",
      "type": "function"
    },
    {
      "inputs": [
        {
          "internalType": "address",
          "name": "_addr",
          "type": "address"
        }
      ],
      "name": "setValidatorContract",
      "outputs": [],
      "stateMutability": "nonpayable",
      "type": "function"
    },
    {
      "inputs": [
        {
          "internalType": "uint256",
          "name": "_secs",
          "type": "uint256"
        }
      ],
      "name": "setWaitingSecsToRevoke",
      "outputs": [],
      "stateMutability": "nonpayable",
      "type": "function"
    },
    {
      "inputs": [
        {
          "internalType": "address",
          "name": "_consensusAddr",
          "type": "address"
        }
      ],
      "name": "stake",
      "outputs": [],
      "stateMutability": "payable",
      "type": "function"
    },
    {
      "inputs": [
        {
          "internalType": "address",
          "name": "_poolAddr",
          "type": "address"
        },
        {
          "internalType": "address",
          "name": "_user",
          "type": "address"
        }
      ],
      "name": "stakingAmountOf",
      "outputs": [
        {
          "internalType": "uint256",
          "name": "",
          "type": "uint256"
        }
      ],
      "stateMutability": "view",
      "type": "function"
    },
    {
      "inputs": [
        {
          "internalType": "address",
          "name": "_poolAddr",
          "type": "address"
        }
      ],
      "name": "stakingTotal",
      "outputs": [
        {
          "internalType": "uint256",
          "name": "",
          "type": "uint256"
        }
      ],
      "stateMutability": "view",
      "type": "function"
    },
    {
      "inputs": [
        {
          "internalType": "address",
          "name": "_consensusAddr",
          "type": "address"
        },
        {
          "internalType": "uint256",
          "name": "_amount",
          "type": "uint256"
        }
      ],
      "name": "undelegate",
      "outputs": [],
      "stateMutability": "nonpayable",
      "type": "function"
    },
    {
      "inputs": [
        {
          "internalType": "address",
          "name": "_consensusAddr",
          "type": "address"
        },
        {
          "internalType": "uint256",
          "name": "_amount",
          "type": "uint256"
        }
      ],
      "name": "unstake",
      "outputs": [],
      "stateMutability": "nonpayable",
      "type": "function"
    },
    {
      "inputs": [],
      "name": "validatorContract",
      "outputs": [
        {
          "internalType": "address",
          "name": "",
          "type": "address"
        }
      ],
      "stateMutability": "view",
      "type": "function"
    },
    {
      "inputs": [],
      "name": "waitingSecsToRevoke",
      "outputs": [
        {
          "internalType": "uint256",
          "name": "",
          "type": "uint256"
        }
      ],
      "stateMutability": "view",
      "type": "function"
    },
    {
      "stateMutability": "payable",
      "type": "receive"
    }
  ],
  "transactionHash": "0x501a57184f837e34b275fbd1c0e0cae8a82017a31485c788691052f08b364b40",
  "args": [],
  "numDeployments": 1,
  "solcInputHash": "1d53902dd90cd91eebd679fc038e76a6",
  "bytecode": "0x60806040523480156200001157600080fd5b5060016000556200002162000027565b620000e9565b60d154610100900460ff1615620000945760405162461bcd60e51b815260206004820152602760248201527f496e697469616c697a61626c653a20636f6e747261637420697320696e697469604482015266616c697a696e6760c81b606482015260840160405180910390fd5b60d15460ff9081161015620000e75760d1805460ff191660ff9081179091556040519081527f7f26b83ff96e1f2b6a682f133852f6798a09c465da95921460cefb38474024989060200160405180910390a15b565b61367b80620000f96000396000f3fe6080604052600436106101d15760003560e01c8063888b9ae9116100f7578063afcb2e0211610095578063e5376f5411610064578063e5376f541461058b578063e793d5bc1461059e578063e9ac5e06146105be578063f9f031df146105de5761021a565b8063afcb2e021461050b578063c2a672e01461052b578063c905bb351461054b578063cdf64a761461056b5761021a565b8063969ffc14116100d1578063969ffc141461046957806399439089146104895780639e614e0e146104b1578063af245429146104f65761021a565b8063888b9ae914610414578063909791dd146104345780639488e4e9146104495761021a565b80633d8e846e1161016f578063679a6e431161013e578063679a6e431461037b5780636b0916951461039b5780636bd8f804146103bb57806382c47bce146103db5761021a565b80633d8e846e146103085780634d99dd16146103285780634ec81af1146103485780635c19a95c146103685761021a565b8063161a1daf116101ab578063161a1daf146102a25780631658c86e146102c257806326476204146102e25780633b8cb16b146102f55761021a565b8063017dd9501461022d5780630682e8fa14610263578063097e4a9d146102825761021a565b3661021a57336101e96036546001600160a01b031690565b6001600160a01b0316146102185760405162461bcd60e51b815260040161020f90612dd7565b60405180910390fd5b005b336101e96036546001600160a01b031690565b34801561023957600080fd5b5061024d610248366004612e7f565b6105fe565b60405161025a9190612efb565b60405180910390f35b34801561026f57600080fd5b506038545b60405190815260200161025a565b34801561028e57600080fd5b5061027461029d366004612f23565b6106d4565b3480156102ae57600080fd5b506102746102bd366004612f79565b6107b1565b3480156102ce57600080fd5b506102186102dd366004612fb2565b6107e0565b6102186102f0366004612fb2565b610929565b610218610303366004612fcf565b610a09565b34801561031457600080fd5b5061024d610323366004613042565b610a8a565b34801561033457600080fd5b50610218610343366004613096565b610bdd565b34801561035457600080fd5b506102186103633660046130c2565b610c59565b610218610376366004612fb2565b610d89565b34801561038757600080fd5b506102186103963660046130fd565b610e65565b3480156103a757600080fd5b506102746103b6366004612f79565b610ea9565b3480156103c757600080fd5b506102186103d6366004613116565b610ec9565b3480156103e757600080fd5b506102746103f6366004612fb2565b6001600160a01b031660009081526037602052604090206003015490565b34801561042057600080fd5b5061021861042f3660046130fd565b610fde565b34801561044057600080fd5b50606c54610274565b34801561045557600080fd5b50610218610464366004613157565b61101f565b34801561047557600080fd5b506102186104843660046130fd565b611196565b34801561049557600080fd5b506036546040516001600160a01b03909116815260200161025a565b3480156104bd57600080fd5b506104d16104cc366004612fb2565b6111d7565b604080516001600160a01b03909416845260208401929092529082015260600161025a565b34801561050257600080fd5b50603954610274565b34801561051757600080fd5b5061024d610526366004612e7f565b6112ac565b34801561053757600080fd5b50610218610546366004613096565b611356565b34801561055757600080fd5b50610218610566366004613096565b61156e565b34801561057757600080fd5b50610218610586366004612fb2565b6115c9565b6102186105993660046131c2565b61160a565b3480156105aa57600080fd5b5061024d6105b9366004613157565b6116d6565b3480156105ca57600080fd5b506102186105d9366004612e7f565b611847565b3480156105ea57600080fd5b506102746105f9366004612e7f565b6119b2565b6060816001600160401b0381111561061857610618613226565b604051908082528060200260200182016040528015610641578160200160208202803683370190505b50905060005b828110156106cd57603760008585848181106106655761066561323c565b905060200201602081019061067a9190612fb2565b6001600160a01b03166001600160a01b03168152602001908152602001600020600201548282815181106106b0576106b061323c565b6020908102919091010152806106c581613268565b915050610647565b5092915050565b6000600260005414156106f95760405162461bcd60e51b815260040161020f90613283565b6002600055603654604051635061f96960e11b81526001600160a01b0380851660048301528492169063a0c3f2d29060240160206040518083038186803b15801561074357600080fd5b505afa158015610757573d6000803e3d6000fd5b505050506040513d601f19601f8201168201806040525081019061077b91906132ba565b6107975760405162461bcd60e51b815260040161020f906132dc565b6107a3338686866119fe565b600160005595945050505050565b6001600160a01b0391821660009081526037602090815260408083209390941682526004909201909152205490565b603654604051635061f96960e11b81526001600160a01b0380841660048301528392169063a0c3f2d29060240160206040518083038186803b15801561082557600080fd5b505afa158015610839573d6000803e3d6000fd5b505050506040513d601f19601f8201168201806040525081019061085d91906132ba565b6108795760405162461bcd60e51b815260040161020f906132dc565b6001600160a01b0380831660009081526037602052604090206001810154909133911681146108ba5760405162461bcd60e51b815260040161020f90613324565b603654603954604051636efa12bd60e01b81526001600160a01b0387811660048301526024820192909252911690636efa12bd90604401600060405180830381600087803b15801561090b57600080fd5b505af115801561091f573d6000803e3d6000fd5b5050505050505050565b600034116109495760405162461bcd60e51b815260040161020f90613371565b603654604051635061f96960e11b81526001600160a01b0380841660048301528392169063a0c3f2d29060240160206040518083038186803b15801561098e57600080fd5b505afa1580156109a2573d6000803e3d6000fd5b505050506040513d601f19601f820116820180604052508101906109c691906132ba565b6109e25760405162461bcd60e51b815260040161020f906132dc565b6001600160a01b0382166000908152603760205260409020610a05903334611a39565b5050565b33610a1c6036546001600160a01b031690565b6001600160a01b031614610a425760405162461bcd60e51b815260040161020f90612dd7565b610a83858580806020026020016040519081016040528093929190818152602001838360200280828437600092019190915250879250869150859050611b0b565b5050505050565b6060600080603660009054906101000a90046001600160a01b03166001600160a01b031663060406186040518163ffffffff1660e01b815260040160206040518083038186803b158015610add57600080fd5b505afa158015610af1573d6000803e3d6000fd5b505050506040513d601f19601f82011682018060405250810190610b1591906133b4565b9050836001600160401b03811115610b2f57610b2f613226565b604051908082528060200260200182016040528015610b58578160200160208202803683370190505b50925060005b84811015610bd357858582818110610b7857610b7861323c565b9050602002016020810190610b8d9190612fb2565b9250610ba4838884610b9f878c6107b1565b611f44565b848281518110610bb657610bb661323c565b602090810291909101015280610bcb81613268565b915050610b5e565b5050509392505050565b60026000541415610c005760405162461bcd60e51b815260040161020f90613283565b600260009081556001600160a01b03831681526037602052604090203390610c2990828461202b565b610c338183612244565b610c4f5760405162461bcd60e51b815260040161020f906133cd565b5050600160005550565b60d154610100900460ff1615808015610c79575060d154600160ff909116105b80610c935750303b158015610c93575060d15460ff166001145b610cf65760405162461bcd60e51b815260206004820152602e60248201527f496e697469616c697a61626c653a20636f6e747261637420697320616c72656160448201526d191e481a5b9a5d1a585b1a5e995960921b606482015260840161020f565b60d1805460ff191660011790558015610d195760d1805461ff0019166101001790555b610d22856122aa565b610d2b846122ff565b610d3483612334565b610d3d82612369565b8015610a835760d1805461ff0019169055604051600181527f7f26b83ff96e1f2b6a682f133852f6798a09c465da95921460cefb38474024989060200160405180910390a15050505050565b60003411610da95760405162461bcd60e51b815260040161020f90613371565b603654604051635061f96960e11b81526001600160a01b0380841660048301528392169063a0c3f2d29060240160206040518083038186803b158015610dee57600080fd5b505afa158015610e02573d6000803e3d6000fd5b505050506040513d601f19601f82011682018060405250810190610e2691906132ba565b610e425760405162461bcd60e51b815260040161020f906132dc565b6001600160a01b0382166000908152603760205260409020610a0590333461239e565b610e6d612466565b6001600160a01b0316336001600160a01b031614610e9d5760405162461bcd60e51b815260040161020f90613415565b610ea6816122ff565b50565b6000610ec28383610eb8612494565b610b9f87876107b1565b9392505050565b60026000541415610eec5760405162461bcd60e51b815260040161020f90613283565b6002600055603654604051635061f96960e11b81526001600160a01b0380851660048301528492169063a0c3f2d29060240160206040518083038186803b158015610f3657600080fd5b505afa158015610f4a573d6000803e3d6000fd5b505050506040513d601f19601f82011682018060405250810190610f6e91906132ba565b610f8a5760405162461bcd60e51b815260040161020f906132dc565b6001600160a01b03841660009081526037602052604090203390610faf90828561202b565b6001600160a01b0384166000908152603760205260409020610fd290828561239e565b50506001600055505050565b610fe6612466565b6001600160a01b0316336001600160a01b0316146110165760405162461bcd60e51b815260040161020f90613415565b610ea681612334565b600260005414156110425760405162461bcd60e51b815260040161020f90613283565b6002600055821580159061105557508281145b6110b05760405162461bcd60e51b815260206004820152602660248201527f44656c656761746f725374616b696e673a20696e76616c6964206172726179206044820152650d8cadccee8d60d31b606482015260840161020f565b336000805b85811015611162578484828181106110cf576110cf61323c565b90506020020135826110e19190613457565b9150611150603760008989858181106110fc576110fc61323c565b90506020020160208101906111119190612fb2565b6001600160a01b03166001600160a01b03168152602001908152602001600020848787858181106111445761114461323c565b9050602002013561202b565b8061115a81613268565b9150506110b5565b5061116d8282612244565b6111895760405162461bcd60e51b815260040161020f906133cd565b5050600160005550505050565b61119e612466565b6001600160a01b0316336001600160a01b0316146111ce5760405162461bcd60e51b815260040161020f90613415565b610ea681612369565b603654604051635061f96960e11b81526001600160a01b038084166004830152600092839283928692169063a0c3f2d29060240160206040518083038186803b15801561122357600080fd5b505afa158015611237573d6000803e3d6000fd5b505050506040513d601f19601f8201168201806040525081019061125b91906132ba565b6112775760405162461bcd60e51b815260040161020f906132dc565b505050506001600160a01b03908116600090815260376020526040902060018101546002820154600390920154921692909190565b6060816001600160401b038111156112c6576112c6613226565b6040519080825280602002602001820160405280156112ef578160200160208202803683370190505b50905060005b828110156106cd576113278484838181106113125761131261323c565b90506020020160208101906103f69190612fb2565b8282815181106113395761133961323c565b60209081029190910101528061134e81613268565b9150506112f5565b600260005414156113795760405162461bcd60e51b815260040161020f90613283565b6002600055603654604051635061f96960e11b81526001600160a01b0380851660048301528492169063a0c3f2d29060240160206040518083038186803b1580156113c357600080fd5b505afa1580156113d7573d6000803e3d6000fd5b505050506040513d601f19601f820116820180604052508101906113fb91906132ba565b6114175760405162461bcd60e51b815260040161020f906132dc565b600082116114675760405162461bcd60e51b815260206004820181905260248201527f43616e6469646174655374616b696e673a20696e76616c696420616d6f756e74604482015260640161020f565b6001600160a01b0383166000908152603760205260408120600281015433929061149290869061346f565b9050606c548110156114fc5760405162461bcd60e51b815260206004820152602d60248201527f43616e6469646174655374616b696e673a20696e76616c6964207374616b696e60448201526c19c8185b5bdd5b9d081b19599d609a1b606482015260840161020f565b611507828487612515565b6115118386612244565b6111895760405162461bcd60e51b815260206004820152602860248201527f43616e6469646174655374616b696e673a20636f756c64206e6f74207472616e60448201526739b332b9102927a760c11b606482015260840161020f565b336115816036546001600160a01b031690565b6001600160a01b0316146115a75760405162461bcd60e51b815260040161020f90612dd7565b6001600160a01b0382166000908152603760205260409020610a0590826126a8565b6115d1612466565b6001600160a01b0316336001600160a01b0316146116015760405162461bcd60e51b815260040161020f90613415565b610ea6816122aa565b6002600054141561162d5760405162461bcd60e51b815260040161020f90613283565b6002600055343361164381888888888888612742565b6001600160a01b0380871660008181526037602052604090206001810180549385166001600160a01b03199485161790558054909216178155611687818385611a39565b816001600160a01b0316876001600160a01b03167ffc1f1e73948cbc47c5b7f90e5601b7daccd9ad7173218486ccc74bdd051d05e860405160405180910390a350506001600055505050505050565b60608382146117275760405162461bcd60e51b815260206004820181905260248201527f426173655374616b696e673a20696e76616c696420696e707574206172726179604482015260640161020f565b836001600160401b0381111561173f5761173f613226565b604051908082528060200260200182016040528015611768578160200160208202803683370190505b50905060005b815181101561183e576037600087878481811061178d5761178d61323c565b90506020020160208101906117a29190612fb2565b6001600160a01b03166001600160a01b0316815260200190815260200160002060040160008585848181106117d9576117d961323c565b90506020020160208101906117ee9190612fb2565b6001600160a01b03166001600160a01b03168152602001908152602001600020548282815181106118215761182161323c565b60209081029190910101528061183681613268565b91505061176e565b50949350505050565b3361185a6036546001600160a01b031690565b6001600160a01b0316146118805760405162461bcd60e51b815260040161020f90612dd7565b80611889575050565b6000805b82811015611973576000603760008686858181106118ad576118ad61323c565b90506020020160208101906118c29190612fb2565b6001600160a01b0316815260208101919091526040016000206002810154935090508215611960576118f481846126a8565b600181015461190c906001600160a01b0316846128f8565b6119605760018101548154604080518681524760208201526001600160a01b0393841693909216917f7dc5115a5aba081f5a174f56a3d02eea582824783322a4ac03f7bd388f444194910160405180910390a35b508061196b81613268565b91505061188d565b507f4f257d3ba23679d338f1d94296086bba5724af341b7fa31aa0ff297bfcdc62d883836040516119a5929190613486565b60405180910390a1505050565b6000600260005414156119d75760405162461bcd60e51b815260040161020f90613283565b60026000556119e7338484612954565b90506119f333826129b6565b600160005592915050565b6000611a0b858585612954565b6001600160a01b0383166000908152603760205260409020909150611a3190868361239e565b949350505050565b6001830154839083906001600160a01b03808316911614611a6c5760405162461bcd60e51b815260040161020f90613324565b82856002016000828254611a809190613457565b92505081905550611aa685858760020154868960030154611aa19190613457565b612a3d565b6001600160a01b03808516600090815260058701602052604090819020429055865490519116907f9e71bc8eea02a63969f509818f2dafb9254532904319f9dbda79b67bd34a5f3d90611afc9086815260200190565b60405180910390a25050505050565b83518214611b5457807fae52c603227f64e4c6101dde593aa9790a16b3ac77546bd746d758511e9560a5858585604051611b479392919061350d565b60405180910390a2611f3e565b600080600080600088516001600160401b03811115611b7557611b75613226565b604051908082528060200260200182016040528015611b9e578160200160208202803683370190505b509050600089516001600160401b03811115611bbc57611bbc613226565b604051908082528060200260200182016040528015611be5578160200160208202803683370190505b50905060008a516001600160401b03811115611c0357611c03613226565b604051908082528060200260200182016040528015611c2c578160200160208202803683370190505b50905060005b8b51811015611ea9578b8181518110611c4d57611c4d61323c565b6020908102919091018101516001600160a01b038116600090815260038084526040808320603790955290912001549097506001600160a01b03881660009081526001602081815260408084208f855290915290912001549096508a1415611cf357868389611cbb81613268565b9a5081518110611ccd57611ccd61323c565b60200260200101906001600160a01b031690816001600160a01b03168152505050611e97565b60028101548a1115611d2157604080518082019091528681526020018a905260018101869055600281018a90555b600181015415611d6b5760018101548c8c84818110611d4257611d4261323c565b90506020020135670de0b6b3a7640000611d5c919061355d565b611d66919061357c565b611d6e565b60005b985088816000016000828254611d849190613457565b9182905550905085611d968a8561346f565b81518110611da657611da661323c565b6020026020010181815250506040518060400160405280826000015481526020018b81525060016000896001600160a01b03166001600160a01b0316815260200190815260200160002060008c8152602001908152602001600020600082015181600001556020820151816001015590505085816001016000015414611e2e57600181018690555b600181015484611e3e8a8561346f565b81518110611e4e57611e4e61323c565b6020908102919091010152868d611e658a8561346f565b81518110611e7557611e7561323c565b60200260200101906001600160a01b031690816001600160a01b031681525050505b80611ea181613268565b915050611c32565b508515611ef257858152858b51038b52877fee74f10cc50bf4b7e57fd36be7d46288795f3a9151dae97505b718b392ba14a382604051611ee9919061359e565b60405180910390a25b8a5115611f3657877f0e54e0485f70f0f63bc25889ddbf01ce1269ad6f07fdb2df573a0fbdb4d66f888c8585604051611f2d939291906135b1565b60405180910390a25b505050505050505b50505050565b6001600160a01b03808516600090815260026020908152604080832093871683529290529081206003810154841415611f7f57549050611a31565b6001600160a01b038616600090815260036020818152604080842060028601546001808552838720958801548752949093529084205492850154909391929190611fc9908361346f565b611fd3908461355d565b90506000828560000154611fe7919061346f565b611ff1908961355d565b9050670de0b6b3a76400006120068284613457565b612010919061357c565b865461201c9190613457565b9b9a5050505050505050505050565b6001830154839083906001600160a01b038083169116141561205f5760405162461bcd60e51b815260040161020f906135f4565b600083116120af5760405162461bcd60e51b815260206004820181905260248201527f44656c656761746f725374616b696e673a20696e76616c696420616d6f756e74604482015260640161020f565b6001600160a01b03841660009081526004860160205260409020548311156121355760405162461bcd60e51b815260206004820152603360248201527f44656c656761746f725374616b696e673a20696e73756666696369656e7420616044820152726d6f756e7420746f20756e64656c656761746560681b606482015260840161020f565b6038546001600160a01b0385166000908152600587016020526040902054429161215e91613457565b106121ba5760405162461bcd60e51b815260206004820152602660248201527f44656c656761746f725374616b696e673a20756e64656c656761746520746f6f604482015265206561726c7960d01b606482015260840161020f565b6001600160a01b03841660009081526004860160205260409020546121f890869086906121e890879061346f565b868960030154611aa1919061346f565b84546040518481526001600160a01b03918216918616907f4d10bd049775c77bd7f255195afba5088028ecb3c7c277d393ccff7934f2f92c906020015b60405180910390a35050505050565b6000814710156122a05760405162461bcd60e51b815260206004820152602160248201527f524f4e5472616e736665723a20696e73756666696369656e742062616c616e636044820152606560f81b606482015260840161020f565b610ec283836128f8565b603680546001600160a01b0319166001600160a01b0383169081179091556040519081527fef40dc07567635f84f5edbd2f8dbc16b40d9d282dd8e7e6f4ff58236b6836169906020015b60405180910390a150565b606c8190556040518181527f372bbdb8d72373b0012f84ee5a11671e5fb72b8bea902ebca93a19cb45d32be2906020016122f4565b60388190556040518181527f4956b65267b8f1e642284bcb5037116c69a9c78d9ca576beeae0974737a4872a906020016122f4565b60398190556040518181527f02be0b73b597f2c0f138aebee162b3b0e25d5b5a26854c15dcf79176e9a1c678906020016122f4565b6001830154839083906001600160a01b03808316911614156123d25760405162461bcd60e51b815260040161020f906135f4565b6001600160a01b03841660009081526004860160205260409020546124109086908690612400908790613457565b868960030154611aa19190613457565b6001600160a01b03808516600081815260058801602052604090819020429055875490519216917fe5541a6b6103d4fa7e021ed54fad39c66f27a76bd13d374cf6240ae6bd0bb72b906122359087815260200190565b7fb53127684a568b3173ae13b9f8a6016e243e63b6e8ee1178d6a717850b5d6103546001600160a01b031690565b6036546040805162c080c360e31b815290516000926001600160a01b0316916306040618916004808301926020929190829003018186803b1580156124d857600080fd5b505afa1580156124ec573d6000803e3d6000fd5b505050506040513d601f19601f8201168201806040525081019061251091906133b4565b905090565b6001830154839083906001600160a01b038083169116146125485760405162461bcd60e51b815260040161020f90613324565b84600201548311156125b25760405162461bcd60e51b815260206004820152602d60248201527f43616e6469646174655374616b696e673a20696e73756666696369656e74207360448201526c1d185ada5b99c8185b5bdd5b9d609a1b606482015260840161020f565b6038546001600160a01b038516600090815260058701602052604090205442916125db91613457565b11156126355760405162461bcd60e51b815260206004820152602360248201527f43616e6469646174655374616b696e673a20756e7374616b6520746f6f206561604482015262726c7960e81b606482015260840161020f565b82856002016000828254612649919061346f565b9250508190555061266a85858760020154868960030154611aa1919061346f565b84546040518481526001600160a01b03909116907f0f5bb82176feb1b5e747e28471aa92156a04d9f3ab9f45f28e2d704232b93f7590602001611afc565b6126b6826002015482612a78565b9050808260020160008282546126cc919061346f565b90915550506001820154600283015460038401546126fd9285926001600160a01b0390911691611aa190869061346f565b81546040518281526001600160a01b03909116907f0f5bb82176feb1b5e747e28471aa92156a04d9f3ab9f45f28e2d704232b93f759060200160405180910390a25050565b61274d876000612244565b6127b15760405162461bcd60e51b815260206004820152602f60248201527f43616e6469646174655374616b696e673a20706f6f6c2061646d696e2063616e60448201526e3737ba103932b1b2b4bb32902927a760891b606482015260840161020f565b6127bc846000612244565b61281e5760405162461bcd60e51b815260206004820152602d60248201527f43616e6469646174655374616b696e673a2074726561737572792063616e6e6f60448201526c3a103932b1b2b4bb32902927a760991b606482015260840161020f565b606c5481101561287e5760405162461bcd60e51b815260206004820152602560248201527f43616e6469646174655374616b696e673a20696e73756666696369656e7420616044820152641b5bdd5b9d60da1b606482015260840161020f565b603654604051630733ec9760e41b81526001600160a01b038881166004830152878116602483015286811660448301528581166064830152608482018590529091169063733ec9709060a401600060405180830381600087803b1580156128e457600080fd5b505af1158015611f36573d6000803e3d6000fd5b6000826001600160a01b03168260405160006040518083038185875af1925050503d8060008114612945576040519150601f19603f3d011682016040523d82523d6000602084013e61294a565b606091505b5090949350505050565b6000805b828110156129ae576129908484838181106129755761297561323c565b905060200201602081019061298a9190612fb2565b86612a8e565b61299a9083613457565b9150806129a681613268565b915050612958565b509392505050565b6129c08282612244565b610a055760405162461bcd60e51b815260206004820152604260248201527f524f4e5472616e736665723a20756e61626c6520746f207472616e736665722060448201527f76616c75652c20726563697069656e74206d6179206861766520726576657274606482015261195960f21b608482015260a40161020f565b8354612a53906001600160a01b03168484612b76565b60038401556001600160a01b0390911660009081526004909201602052604090912055565b6000818310612a875781610ec2565b5090919050565b600080612a99612494565b9050612aab848483610b9f88886107b1565b9150826001600160a01b0316846001600160a01b03167f0aa4d283470c904c551d18bb894d37e17674920f3261a7f854be501e25f421b784604051612af291815260200190565b60405180910390a36001600160a01b0384811660008181526002602090815260408083209488168084529482528083208381556003808201889055858552835281842054600182015590519283529392917faa7c29611027fd4be148712bb54960253b7a7d5998c17769bfc424c2f5f185ad910160405180910390a3505092915050565b6000612b80612494565b6001600160a01b0385166000908152600360205260409020600181015460028201549293509091831115612bf4576040518060400160405280612bdb886001600160a01b031660009081526037602052604090206003015490565b8152602090810185905281516001850155015160028301555b6001600160a01b038087166000908152600260209081526040808320938916835292905290812090612c2688886107b1565b90506000612c3689898885611f44565b83549091508114612c88578083556040518181526001600160a01b0389811691908b16907faa7c29611027fd4be148712bb54960253b7a7d5998c17769bfc424c2f5f185ad9060200160405180910390a35b612c958584888a86612d07565b8454600180850191909155600384018790558501548414612cfc57886001600160a01b0316867f81faf50e2aaf52eaba2ab841071efb9f6f0850a3e7d008b1336e6001d3d4963c8760010160000154604051612cf391815260200190565b60405180910390a35b505050505050505050565b8284600301541015612d1b57600284018190555b6000612d2b856002015484612a78565b90506000818660020154612d3f919061346f565b90508015612dce57600286018290556001870154811115612db15760405162461bcd60e51b815260206004820152602660248201527f52657761726443616c63756c6174696f6e3a20696e76616c696420706f6f6c2060448201526573686172657360d01b606482015260840161020f565b80876001016000016000828254612dc8919061346f565b90915550505b50505050505050565b6020808252603e908201527f48617356616c696461746f72436f6e74726163743a206d6574686f642063616c60408201527f6c6572206d7573742062652076616c696461746f7220636f6e74726163740000606082015260800190565b60008083601f840112612e4657600080fd5b5081356001600160401b03811115612e5d57600080fd5b6020830191508360208260051b8501011115612e7857600080fd5b9250929050565b60008060208385031215612e9257600080fd5b82356001600160401b03811115612ea857600080fd5b612eb485828601612e34565b90969095509350505050565b600081518084526020808501945080840160005b83811015612ef057815187529582019590820190600101612ed4565b509495945050505050565b602081526000610ec26020830184612ec0565b6001600160a01b0381168114610ea657600080fd5b600080600060408486031215612f3857600080fd5b83356001600160401b03811115612f4e57600080fd5b612f5a86828701612e34565b9094509250506020840135612f6e81612f0e565b809150509250925092565b60008060408385031215612f8c57600080fd5b8235612f9781612f0e565b91506020830135612fa781612f0e565b809150509250929050565b600060208284031215612fc457600080fd5b8135610ec281612f0e565b600080600080600060608688031215612fe757600080fd5b85356001600160401b0380821115612ffe57600080fd5b61300a89838a01612e34565b9097509550602088013591508082111561302357600080fd5b5061303088828901612e34565b96999598509660400135949350505050565b60008060006040848603121561305757600080fd5b833561306281612f0e565b925060208401356001600160401b0381111561307d57600080fd5b61308986828701612e34565b9497909650939450505050565b600080604083850312156130a957600080fd5b82356130b481612f0e565b946020939093013593505050565b600080600080608085870312156130d857600080fd5b84356130e381612f0e565b966020860135965060408601359560600135945092505050565b60006020828403121561310f57600080fd5b5035919050565b60008060006060848603121561312b57600080fd5b833561313681612f0e565b9250602084013561314681612f0e565b929592945050506040919091013590565b6000806000806040858703121561316d57600080fd5b84356001600160401b038082111561318457600080fd5b61319088838901612e34565b909650945060208701359150808211156131a957600080fd5b506131b687828801612e34565b95989497509550505050565b600080600080600060a086880312156131da57600080fd5b85356131e581612f0e565b945060208601356131f581612f0e565b9350604086013561320581612f0e565b9250606086013561321581612f0e565b949793965091946080013592915050565b634e487b7160e01b600052604160045260246000fd5b634e487b7160e01b600052603260045260246000fd5b634e487b7160e01b600052601160045260246000fd5b600060001982141561327c5761327c613252565b5060010190565b6020808252601f908201527f5265656e7472616e637947756172643a207265656e7472616e742063616c6c00604082015260600190565b6000602082840312156132cc57600080fd5b81518015158114610ec257600080fd5b60208082526028908201527f426173655374616b696e673a20717565727920666f72206e6f6e2d6578697374604082015267195b9d081c1bdbdb60c21b606082015260800190565b6020808252602d908201527f426173655374616b696e673a20726571756573746572206d757374206265207460408201526c3432903837b7b61030b236b4b760991b606082015260800190565b60208082526023908201527f426173655374616b696e673a207175657279207769746820656d7074792076616040820152626c756560e81b606082015260800190565b6000602082840312156133c657600080fd5b5051919050565b60208082526028908201527f44656c656761746f725374616b696e673a20636f756c64206e6f74207472616e60408201526739b332b9102927a760c11b606082015260800190565b60208082526022908201527f48617350726f787941646d696e3a20756e617574686f72697a65642073656e6460408201526132b960f11b606082015260800190565b6000821982111561346a5761346a613252565b500190565b60008282101561348157613481613252565b500390565b60208082528181018390526000908460408401835b868110156134c95782356134ae81612f0e565b6001600160a01b03168252918301919083019060010161349b565b509695505050505050565b600081518084526020808501945080840160005b83811015612ef05781516001600160a01b0316875295820195908201906001016134e8565b60408152600061352060408301866134d4565b82810360208401528381526001600160fb1b0384111561353f57600080fd5b8360051b808660208401376000910160200190815295945050505050565b600081600019048311821515161561357757613577613252565b500290565b60008261359957634e487b7160e01b600052601260045260246000fd5b500490565b602081526000610ec260208301846134d4565b6060815260006135c460608301866134d4565b82810360208401526135d68186612ec0565b905082810360408401526135ea8185612ec0565b9695505050505050565b60208082526031908201527f426173655374616b696e673a2064656c656761746f72206d757374206e6f74206040820152703132903a3432903837b7b61030b236b4b760791b60608201526080019056fea26469706673582212200240b108d671d1f0e19771dbfece6bf0da4b1aee2485e37eccdc92b850fded3764736f6c63430008090033",
  "devdoc": {
    "kind": "dev",
    "methods": {
      "applyValidatorCandidate(address,address,address,address,uint256)": {
        "details": "Proposes a candidate to become a validator. Requirements: - The method caller is able to receive RON. - The treasury is able to receive RON. - The amount is larger than or equal to the minimum validator staking amount `minValidatorStakingAmount()`. Emits the event `PoolApproved`.",
        "params": {
          "_candidateAdmin": "the candidate admin will be stored in the validator contract, used for calling function that affects to its candidate, e.g. scheduling maintenance."
        }
      },
      "bulkSelfStaking(address[])": {
        "details": "Returns the self-staking amounts of the pools."
      },
      "bulkStakingAmountOf(address[],address[])": {
        "details": "Returns the staking amounts of the users."
      },
      "bulkStakingTotal(address[])": {
        "details": "Returns the total staking amounts of all users for the pools `_poolAddrs`."
      },
      "bulkUndelegate(address[],uint256[])": {
        "details": "Bulk unstakes from a list of candidates. Requirements: - The method caller is not the pool admin. Emits the events `Undelegated`."
      },
      "claimRewards(address[])": {
        "details": "Claims the reward of method caller. Emits the `RewardClaimed` event."
      },
      "cooldownSecsToUndelegate()": {
        "details": "Returns The cooldown time in seconds to undelegate from the last timestamp (s)he delegated."
      },
      "deductStakingAmount(address,uint256)": {
        "details": "Deducts from staking amount of the validator `_consensusAddr` for `_amount`. Requirements: - The method caller is validator contract. Emits the event `Unstaked`."
      },
      "delegate(address)": {
        "details": "Stakes for a validator candidate `_consensusAddr`. Requirements: - The consensus address is a validator candidate. - The method caller is not the pool admin. Emits the `Delegated` event."
      },
      "delegateRewards(address[],address)": {
        "details": "Claims the rewards and delegates them to the consensus address. Requirements: - The method caller is not the pool admin. - The consensus address `_consensusAddrDst` is a validator candidate. Emits the `RewardClaimed` event and the `Delegated` event."
      },
      "deprecatePools(address[])": {
        "details": "Deprecates the pool. Requirements: - The method caller is validator contract. Emits the event `PoolsDeprecated` and `Unstaked` events. Emits the event `StakingAmountTransferFailed` if the contract cannot transfer RON back to the pool admin."
      },
      "getReward(address,address)": {
        "details": "Returns the reward amount that user claimable."
      },
      "getRewards(address,address[])": {
        "details": "Returns the claimable reward of the user `_user`."
      },
      "getStakingPool(address)": {
        "details": "Returns the staking pool detail."
      },
      "initialize(address,uint256,uint256,uint256)": {
        "details": "Initializes the contract storage."
      },
      "minValidatorStakingAmount()": {
        "details": "Returns the minimum threshold for being a validator candidate."
      },
      "recordRewards(address[],uint256[],uint256)": {
        "details": "Records the amount of rewards `_rewards` for the pools `_consensusAddrs`. Requirements: - The method caller is validator contract. Emits the event `PoolsUpdated` once the contract recorded the rewards successfully. Emits the event `PoolsUpdateFailed` once the input array lengths are not equal. Emits the event `PoolsUpdateConflicted` when there are some pools which already updated in the period. Note: This method should be called once at the period ending."
      },
      "redelegate(address,address,uint256)": {
        "details": "Unstakes an amount of RON from the `_consensusAddrSrc` and stake for `_consensusAddrDst`. Requirements: - The method caller is not the pool admin. - The consensus address `_consensusAddrDst` is a validator candidate. Emits the `Undelegated` event and the `Delegated` event."
      },
      "requestRenounce(address)": {
        "details": "Renounces being a validator candidate and takes back the delegating/staking amount. Requirements: - The consensus address is a validator candidate. - The method caller is the pool admin."
      },
      "setCooldownSecsToUndelegate(uint256)": {
        "details": "Sets the cooldown time in seconds to undelegate from the last timestamp (s)he delegated. Requirements: - The method caller is admin. Emits the event `CooldownSecsToUndelegateUpdated`."
      },
      "setMinValidatorStakingAmount(uint256)": {
        "details": "Sets the minimum threshold for being a validator candidate. Requirements: - The method caller is admin. Emits the `MinValidatorStakingAmountUpdated` event."
      },
      "setValidatorContract(address)": {
        "details": "Sets the validator contract. Requirements: - The method caller is admin. - The new address is a contract. Emits the event `ValidatorContractUpdated`."
      },
      "setWaitingSecsToRevoke(uint256)": {
        "details": "Sets the number of seconds that a candidate must wait to be revoked. Requirements: - The method caller is admin. Emits the event `WaitingSecsToRevokeUpdated`."
      },
      "stake(address)": {
        "details": "Self-delegates to the validator candidate `_consensusAddr`. Requirements: - The consensus address is a validator candidate. - The method caller is the pool admin. - The `msg.value` is larger than 0. Emits the event `Staked`."
      },
      "stakingAmountOf(address,address)": {
        "details": "Returns the staking amount of an user."
      },
      "stakingTotal(address)": {
        "details": "Returns the total staking amount of all users for a pool."
      },
      "undelegate(address,uint256)": {
        "details": "Unstakes from a validator candidate `_consensusAddr` for `_amount`. Requirements: - The method caller is not the pool admin. Emits the `Undelegated` event."
      },
      "unstake(address,uint256)": {
        "details": "Unstakes from the validator candidate `_consensusAddr` for `_amount`. Requirements: - The consensus address is a validator candidate. - The method caller is the pool admin. Emits the event `Unstaked`."
      },
      "validatorContract()": {
        "details": "Returns the validator contract."
      },
      "waitingSecsToRevoke()": {
        "details": "Returns the number of seconds that a candidate must wait for the renounce request gets affected."
      }
    },
    "version": 1
  },
  "userdoc": {
    "kind": "user",
    "methods": {},
    "version": 1
  },
  "storageLayout": {
    "storage": [
      {
        "astId": 1636,
        "contract": "contracts/ronin/staking/Staking.sol:Staking",
        "label": "_status",
        "offset": 0,
        "slot": "0",
        "type": "t_uint256"
      },
      {
        "astId": 24113,
        "contract": "contracts/ronin/staking/Staking.sol:Staking",
        "label": "_accumulatedRps",
        "offset": 0,
        "slot": "1",
        "type": "t_mapping(t_address,t_mapping(t_uint256,t_struct(PeriodWrapper)10199_storage))"
      },
      {
        "astId": 24121,
        "contract": "contracts/ronin/staking/Staking.sol:Staking",
        "label": "_userReward",
        "offset": 0,
        "slot": "2",
        "type": "t_mapping(t_address,t_mapping(t_address,t_struct(UserRewardFields)10799_storage))"
      },
      {
        "astId": 24127,
        "contract": "contracts/ronin/staking/Staking.sol:Staking",
        "label": "_stakingPool",
        "offset": 0,
        "slot": "3",
        "type": "t_mapping(t_address,t_struct(PoolFields)10805_storage)"
      },
      {
        "astId": 24132,
        "contract": "contracts/ronin/staking/Staking.sol:Staking",
        "label": "______gap",
        "offset": 0,
        "slot": "4",
        "type": "t_array(t_uint256)50_storage"
      },
      {
        "astId": 6308,
        "contract": "contracts/ronin/staking/Staking.sol:Staking",
        "label": "_validatorContract",
        "offset": 0,
        "slot": "54",
        "type": "t_contract(IRoninValidatorSet)9895"
      },
      {
        "astId": 22798,
        "contract": "contracts/ronin/staking/Staking.sol:Staking",
        "label": "_stakingPool",
        "offset": 0,
        "slot": "55",
        "type": "t_mapping(t_address,t_struct(PoolDetail)10558_storage)"
      },
      {
        "astId": 22801,
        "contract": "contracts/ronin/staking/Staking.sol:Staking",
        "label": "_cooldownSecsToUndelegate",
        "offset": 0,
        "slot": "56",
        "type": "t_uint256"
      },
      {
        "astId": 22804,
        "contract": "contracts/ronin/staking/Staking.sol:Staking",
        "label": "_waitingSecsToRevoke",
        "offset": 0,
        "slot": "57",
        "type": "t_uint256"
      },
      {
        "astId": 22809,
        "contract": "contracts/ronin/staking/Staking.sol:Staking",
        "label": "______gap",
        "offset": 0,
        "slot": "58",
        "type": "t_array(t_uint256)50_storage"
      },
      {
        "astId": 23131,
        "contract": "contracts/ronin/staking/Staking.sol:Staking",
        "label": "_minValidatorStakingAmount",
        "offset": 0,
        "slot": "108",
        "type": "t_uint256"
      },
      {
        "astId": 23136,
        "contract": "contracts/ronin/staking/Staking.sol:Staking",
        "label": "______gap",
        "offset": 0,
        "slot": "109",
        "type": "t_array(t_uint256)50_storage"
      },
      {
        "astId": 23629,
        "contract": "contracts/ronin/staking/Staking.sol:Staking",
        "label": "______gap",
        "offset": 0,
        "slot": "159",
        "type": "t_array(t_uint256)50_storage"
      },
      {
        "astId": 1373,
        "contract": "contracts/ronin/staking/Staking.sol:Staking",
        "label": "_initialized",
        "offset": 0,
        "slot": "209",
        "type": "t_uint8"
      },
      {
        "astId": 1376,
        "contract": "contracts/ronin/staking/Staking.sol:Staking",
        "label": "_initializing",
        "offset": 1,
        "slot": "209",
        "type": "t_bool"
      }
    ],
    "types": {
      "t_address": {
        "encoding": "inplace",
        "label": "address",
        "numberOfBytes": "20"
      },
      "t_array(t_uint256)50_storage": {
        "base": "t_uint256",
        "encoding": "inplace",
        "label": "uint256[50]",
        "numberOfBytes": "1600"
      },
      "t_bool": {
        "encoding": "inplace",
        "label": "bool",
        "numberOfBytes": "1"
      },
      "t_contract(IRoninValidatorSet)9895": {
        "encoding": "inplace",
        "label": "contract IRoninValidatorSet",
        "numberOfBytes": "20"
      },
      "t_mapping(t_address,t_mapping(t_address,t_struct(UserRewardFields)10799_storage))": {
        "encoding": "mapping",
        "key": "t_address",
        "label": "mapping(address => mapping(address => struct IRewardPool.UserRewardFields))",
        "numberOfBytes": "32",
        "value": "t_mapping(t_address,t_struct(UserRewardFields)10799_storage)"
      },
      "t_mapping(t_address,t_mapping(t_uint256,t_struct(PeriodWrapper)10199_storage))": {
        "encoding": "mapping",
        "key": "t_address",
        "label": "mapping(address => mapping(uint256 => struct PeriodWrapperConsumer.PeriodWrapper))",
        "numberOfBytes": "32",
        "value": "t_mapping(t_uint256,t_struct(PeriodWrapper)10199_storage)"
      },
      "t_mapping(t_address,t_struct(PoolDetail)10558_storage)": {
        "encoding": "mapping",
        "key": "t_address",
        "label": "mapping(address => struct IBaseStaking.PoolDetail)",
        "numberOfBytes": "32",
        "value": "t_struct(PoolDetail)10558_storage"
      },
      "t_mapping(t_address,t_struct(PoolFields)10805_storage)": {
        "encoding": "mapping",
        "key": "t_address",
        "label": "mapping(address => struct IRewardPool.PoolFields)",
        "numberOfBytes": "32",
        "value": "t_struct(PoolFields)10805_storage"
      },
      "t_mapping(t_address,t_struct(UserRewardFields)10799_storage)": {
        "encoding": "mapping",
        "key": "t_address",
        "label": "mapping(address => struct IRewardPool.UserRewardFields)",
        "numberOfBytes": "32",
        "value": "t_struct(UserRewardFields)10799_storage"
      },
      "t_mapping(t_address,t_uint256)": {
        "encoding": "mapping",
        "key": "t_address",
        "label": "mapping(address => uint256)",
        "numberOfBytes": "32",
        "value": "t_uint256"
      },
      "t_mapping(t_uint256,t_struct(PeriodWrapper)10199_storage)": {
        "encoding": "mapping",
        "key": "t_uint256",
        "label": "mapping(uint256 => struct PeriodWrapperConsumer.PeriodWrapper)",
        "numberOfBytes": "32",
        "value": "t_struct(PeriodWrapper)10199_storage"
      },
      "t_struct(PeriodWrapper)10199_storage": {
        "encoding": "inplace",
        "label": "struct PeriodWrapperConsumer.PeriodWrapper",
        "members": [
          {
            "astId": 10196,
            "contract": "contracts/ronin/staking/Staking.sol:Staking",
            "label": "inner",
            "offset": 0,
            "slot": "0",
            "type": "t_uint256"
          },
          {
            "astId": 10198,
            "contract": "contracts/ronin/staking/Staking.sol:Staking",
            "label": "lastPeriod",
            "offset": 0,
            "slot": "1",
            "type": "t_uint256"
          }
        ],
        "numberOfBytes": "64"
      },
      "t_struct(PoolDetail)10558_storage": {
        "encoding": "inplace",
        "label": "struct IBaseStaking.PoolDetail",
        "members": [
          {
            "astId": 10543,
            "contract": "contracts/ronin/staking/Staking.sol:Staking",
            "label": "addr",
            "offset": 0,
            "slot": "0",
            "type": "t_address"
          },
          {
            "astId": 10545,
            "contract": "contracts/ronin/staking/Staking.sol:Staking",
            "label": "admin",
            "offset": 0,
            "slot": "1",
            "type": "t_address"
          },
          {
            "astId": 10547,
            "contract": "contracts/ronin/staking/Staking.sol:Staking",
            "label": "stakingAmount",
            "offset": 0,
            "slot": "2",
            "type": "t_uint256"
          },
          {
            "astId": 10549,
            "contract": "contracts/ronin/staking/Staking.sol:Staking",
            "label": "stakingTotal",
            "offset": 0,
            "slot": "3",
            "type": "t_uint256"
          },
          {
            "astId": 10553,
            "contract": "contracts/ronin/staking/Staking.sol:Staking",
            "label": "delegatingAmount",
            "offset": 0,
            "slot": "4",
            "type": "t_mapping(t_address,t_uint256)"
          },
          {
            "astId": 10557,
            "contract": "contracts/ronin/staking/Staking.sol:Staking",
            "label": "lastDelegatingTimestamp",
            "offset": 0,
            "slot": "5",
            "type": "t_mapping(t_address,t_uint256)"
          }
        ],
        "numberOfBytes": "192"
      },
      "t_struct(PoolFields)10805_storage": {
        "encoding": "inplace",
        "label": "struct IRewardPool.PoolFields",
        "members": [
          {
            "astId": 10801,
            "contract": "contracts/ronin/staking/Staking.sol:Staking",
            "label": "aRps",
            "offset": 0,
            "slot": "0",
            "type": "t_uint256"
          },
          {
            "astId": 10804,
            "contract": "contracts/ronin/staking/Staking.sol:Staking",
            "label": "shares",
            "offset": 0,
            "slot": "1",
            "type": "t_struct(PeriodWrapper)10199_storage"
          }
        ],
        "numberOfBytes": "96"
      },
      "t_struct(UserRewardFields)10799_storage": {
        "encoding": "inplace",
        "label": "struct IRewardPool.UserRewardFields",
        "members": [
          {
            "astId": 10792,
            "contract": "contracts/ronin/staking/Staking.sol:Staking",
            "label": "debited",
            "offset": 0,
            "slot": "0",
            "type": "t_uint256"
          },
          {
            "astId": 10794,
            "contract": "contracts/ronin/staking/Staking.sol:Staking",
            "label": "aRps",
            "offset": 0,
            "slot": "1",
            "type": "t_uint256"
          },
          {
            "astId": 10796,
            "contract": "contracts/ronin/staking/Staking.sol:Staking",
            "label": "minAmount",
            "offset": 0,
            "slot": "2",
            "type": "t_uint256"
          },
          {
            "astId": 10798,
            "contract": "contracts/ronin/staking/Staking.sol:Staking",
            "label": "lastPeriod",
            "offset": 0,
            "slot": "3",
            "type": "t_uint256"
          }
        ],
        "numberOfBytes": "128"
      },
      "t_uint256": {
        "encoding": "inplace",
        "label": "uint256",
        "numberOfBytes": "32"
      },
      "t_uint8": {
        "encoding": "inplace",
        "label": "uint8",
        "numberOfBytes": "1"
      }
    }
  }
}