{
  "address": "0x488b4bD19B8efD3993f0c6a0D65fBcF3d02985Ec",
  "abi": [
    {
      "inputs": [],
      "stateMutability": "nonpayable",
      "type": "constructor"
    },
    {
      "anonymous": false,
      "inputs": [
        {
          "indexed": false,
          "internalType": "uint256",
          "name": "",
          "type": "uint256"
        }
      ],
      "name": "BlockProducerBonusPerBlockUpdated",
      "type": "event"
    },
    {
      "anonymous": false,
      "inputs": [
        {
          "indexed": true,
          "internalType": "uint256",
          "name": "blockNumber",
          "type": "uint256"
        },
        {
          "indexed": true,
          "internalType": "address",
          "name": "recipient",
          "type": "address"
        },
        {
          "indexed": false,
          "internalType": "uint256",
          "name": "blockProducerAmount",
          "type": "uint256"
        },
        {
          "indexed": false,
          "internalType": "uint256",
          "name": "bridgeOperatorAmount",
          "type": "uint256"
        },
        {
          "indexed": false,
          "internalType": "uint256",
          "name": "contractBalance",
          "type": "uint256"
        }
      ],
      "name": "BonusTransferFailed",
      "type": "event"
    },
    {
      "anonymous": false,
      "inputs": [
        {
          "indexed": true,
          "internalType": "uint256",
          "name": "blockNumber",
          "type": "uint256"
        },
        {
          "indexed": true,
          "internalType": "address",
          "name": "recipient",
          "type": "address"
        },
        {
          "indexed": false,
          "internalType": "uint256",
          "name": "blockProducerAmount",
          "type": "uint256"
        },
        {
          "indexed": false,
          "internalType": "uint256",
          "name": "bridgeOperatorAmount",
          "type": "uint256"
        }
      ],
      "name": "BonusTransferred",
      "type": "event"
    },
    {
      "anonymous": false,
      "inputs": [
        {
          "indexed": false,
          "internalType": "uint256",
          "name": "",
          "type": "uint256"
        }
      ],
      "name": "BridgeOperatorBonusPerBlockUpdated",
      "type": "event"
    },
    {
      "anonymous": false,
      "inputs": [
        {
          "indexed": false,
          "internalType": "uint8",
          "name": "version",
          "type": "uint8"
        }
      ],
      "name": "Initialized",
      "type": "event"
    },
    {
      "anonymous": false,
      "inputs": [
        {
          "indexed": false,
          "internalType": "address",
          "name": "",
          "type": "address"
        }
      ],
      "name": "ValidatorContractUpdated",
      "type": "event"
    },
    {
      "inputs": [
        {
          "internalType": "uint256",
          "name": "",
          "type": "uint256"
        }
      ],
      "name": "blockProducerBlockBonus",
      "outputs": [
        {
          "internalType": "uint256",
          "name": "",
          "type": "uint256"
        }
      ],
      "stateMutability": "view",
      "type": "function"
    },
    {
      "inputs": [
        {
          "internalType": "uint256",
          "name": "",
          "type": "uint256"
        }
      ],
      "name": "bridgeOperatorBlockBonus",
      "outputs": [
        {
          "internalType": "uint256",
          "name": "",
          "type": "uint256"
        }
      ],
      "stateMutability": "view",
      "type": "function"
    },
    {
      "inputs": [
        {
          "internalType": "address",
          "name": "__validatorContract",
          "type": "address"
        },
        {
          "internalType": "uint256",
          "name": "__blockProducerBonusPerBlock",
          "type": "uint256"
        },
        {
          "internalType": "uint256",
          "name": "__bridgeOperatorBonusPerBlock",
          "type": "uint256"
        }
      ],
      "name": "initialize",
      "outputs": [],
      "stateMutability": "payable",
      "type": "function"
    },
    {
      "inputs": [],
      "name": "lastBlockSendingBonus",
      "outputs": [
        {
          "internalType": "uint256",
          "name": "",
          "type": "uint256"
        }
      ],
      "stateMutability": "view",
      "type": "function"
    },
    {
      "inputs": [],
      "name": "receiveRON",
      "outputs": [],
      "stateMutability": "payable",
      "type": "function"
    },
    {
      "inputs": [
        {
          "internalType": "bool",
          "name": "_forBlockProducer",
          "type": "bool"
        },
        {
          "internalType": "bool",
          "name": "_forBridgeOperator",
          "type": "bool"
        }
      ],
      "name": "requestBonus",
      "outputs": [
        {
          "internalType": "bool",
          "name": "_success",
          "type": "bool"
        },
        {
          "internalType": "uint256",
          "name": "_blockProducerBonus",
          "type": "uint256"
        },
        {
          "internalType": "uint256",
          "name": "_bridgeOperatorBonus",
          "type": "uint256"
        }
      ],
      "stateMutability": "nonpayable",
      "type": "function"
    },
    {
      "inputs": [
        {
          "internalType": "uint256",
          "name": "_amount",
          "type": "uint256"
        }
      ],
      "name": "setBlockProducerBonusPerBlock",
      "outputs": [],
      "stateMutability": "nonpayable",
      "type": "function"
    },
    {
      "inputs": [
        {
          "internalType": "uint256",
          "name": "_amount",
          "type": "uint256"
        }
      ],
      "name": "setBridgeOperatorBonusPerBlock",
      "outputs": [],
      "stateMutability": "nonpayable",
      "type": "function"
    },
    {
      "inputs": [
        {
          "internalType": "address",
          "name": "_addr",
          "type": "address"
        }
      ],
      "name": "setValidatorContract",
      "outputs": [],
      "stateMutability": "nonpayable",
      "type": "function"
    },
    {
      "inputs": [],
      "name": "validatorContract",
      "outputs": [
        {
          "internalType": "address",
          "name": "",
          "type": "address"
        }
      ],
      "stateMutability": "view",
      "type": "function"
    }
  ],
  "transactionHash": "0xd6aa0dcc1eb9888a1ee82a09166b8387cb790e81f7a30616e4ae33166141aa8d",
  "args": [],
  "numDeployments": 2,
  "solcInputHash": "7ee7c0f941167beb3dcb34451beb8d74",
  "bytecode": "0x608060405234801561001057600080fd5b5061001961001e565b6100eb565b600054600160a81b900460ff161561008c5760405162461bcd60e51b815260206004820152602760248201527f496e697469616c697a61626c653a20636f6e747261637420697320696e697469604482015266616c697a696e6760c81b606482015260840160405180910390fd5b60005460ff600160a01b909104811610156100e9576000805460ff60a01b191660ff60a01b17905560405160ff81527f7f26b83ff96e1f2b6a682f133852f6798a09c465da95921460cefb38474024989060200160405180910390a15b565b610903806100fa6000396000f3fe6080604052600436106100915760003560e01c806399439089116100595780639943908914610131578063cdf64a7614610159578063d8209d0714610179578063f13ba6441461019b578063fa8674a1146101bb57600080fd5b80630634f5b9146100965780630d9160e7146100d857806359f778df146100fc57806367e9941c146100fe5780637a1ac61e1461011e575b600080fd5b3480156100a257600080fd5b506100b66100b13660046107ac565b6101dd565b6040805193151584526020840192909252908201526060015b60405180910390f35b3480156100e457600080fd5b506100ee60035481565b6040519081526020016100cf565b005b34801561010a57600080fd5b506100fc6101193660046107df565b6103da565b6100fc61012c36600461080f565b61041e565b34801561013d57600080fd5b506000546040516001600160a01b0390911681526020016100cf565b34801561016557600080fd5b506100fc610174366004610842565b610560565b34801561018557600080fd5b506100ee6101943660046107df565b5060015490565b3480156101a757600080fd5b506100fc6101b63660046107df565b61060d565b3480156101c757600080fd5b506100ee6101d63660046107df565b5060025490565b60008080336101f46000546001600160a01b031690565b6001600160a01b0316146102755760405162461bcd60e51b815260206004820152603e60248201527f48617356616c696461746f72436f6e74726163743a206d6574686f642063616c60448201527f6c6572206d7573742062652076616c696461746f7220636f6e7472616374000060648201526084015b60405180910390fd5b60035443116102d55760405162461bcd60e51b815260206004820152602660248201527f5374616b696e6756657374696e673a20626f6e757320666f7220616c726561646044820152651e481cd95b9d60d21b606482015260840161026c565b43600355846102e55760006102e9565b6001545b9150836102f75760006102fb565b6002545b905060006103098284610864565b905080156103d1576000546001600160a01b0316610327818361064e565b945084610389576040805185815260208101859052478183015290516001600160a01b0383169143917f137e697384eeada9cf7614b88e4ac940aeff18d0fef7e86bce1abdc812b95e099181900360600190a350600092508291506103d39050565b60408051858152602081018590526001600160a01b0383169143917f60200441f885b45b3b7f1fdc45a47bb0d0a0884a6a17722f8dd7232830de9bd2910160405180910390a3505b505b9250925092565b6103e26106aa565b6001600160a01b0316336001600160a01b0316146104125760405162461bcd60e51b815260040161026c9061088b565b61041b816106d8565b50565b600054600160a81b900460ff161580801561044657506000546001600160a01b90910460ff16105b806104675750303b1580156104675750600054600160a01b900460ff166001145b6104ca5760405162461bcd60e51b815260206004820152602e60248201527f496e697469616c697a61626c653a20636f6e747261637420697320616c72656160448201526d191e481a5b9a5d1a585b1a5e995960921b606482015260840161026c565b6000805460ff60a01b1916600160a01b17905580156104f7576000805460ff60a81b1916600160a81b1790555b61050084610714565b61050983610762565b610512826106d8565b801561055a576000805460ff60a81b19169055604051600181527f7f26b83ff96e1f2b6a682f133852f6798a09c465da95921460cefb38474024989060200160405180910390a15b50505050565b6105686106aa565b6001600160a01b0316336001600160a01b0316146105985760405162461bcd60e51b815260040161026c9061088b565b6000816001600160a01b03163b116106045760405162461bcd60e51b815260206004820152602960248201527f48617356616c696461746f72436f6e74726163743a2073657420746f206e6f6e6044820152680b58dbdb9d1c9858dd60ba1b606482015260840161026c565b61041b81610714565b6106156106aa565b6001600160a01b0316336001600160a01b0316146106455760405162461bcd60e51b815260040161026c9061088b565b61041b81610762565b6000826001600160a01b03168260405160006040518083038185875af1925050503d806000811461069b576040519150601f19603f3d011682016040523d82523d6000602084013e6106a0565b606091505b5090949350505050565b7fb53127684a568b3173ae13b9f8a6016e243e63b6e8ee1178d6a717850b5d6103546001600160a01b031690565b60028190556040518181527f57a23b4b11f619fb9dea21a5a8115bb90103c1043eb3318d773558829d25f12c906020015b60405180910390a150565b600080546001600160a01b0319166001600160a01b0383169081179091556040519081527fef40dc07567635f84f5edbd2f8dbc16b40d9d282dd8e7e6f4ff58236b683616990602001610709565b60018190556040518181527f861f03c645467325a586235bb3155834f1dddf12413d0a802f416eb6d4035e6d90602001610709565b803580151581146107a757600080fd5b919050565b600080604083850312156107bf57600080fd5b6107c883610797565b91506107d660208401610797565b90509250929050565b6000602082840312156107f157600080fd5b5035919050565b80356001600160a01b03811681146107a757600080fd5b60008060006060848603121561082457600080fd5b61082d846107f8565b95602085013595506040909401359392505050565b60006020828403121561085457600080fd5b61085d826107f8565b9392505050565b8082018082111561088557634e487b7160e01b600052601160045260246000fd5b92915050565b60208082526022908201527f48617350726f787941646d696e3a20756e617574686f72697a65642073656e6460408201526132b960f11b60608201526080019056fea2646970667358221220861afc825fb8b38fcc2b71ca90ee9f7a8438d022ea39c2ae82efa02f3b2dcd4f64736f6c63430008110033",
  "devdoc": {
    "kind": "dev",
    "methods": {
      "blockProducerBlockBonus(uint256)": {
        "details": "Returns the bonus amount for the block producer at `_block`."
      },
      "bridgeOperatorBlockBonus(uint256)": {
        "details": "Returns the bonus amount for the bridge validator at `_block`."
      },
      "initialize(address,uint256,uint256)": {
        "details": "Initializes the contract storage."
      },
      "receiveRON()": {
        "details": "Receives RON from any address."
      },
      "requestBonus(bool,bool)": {
        "details": "Transfers the staking vesting for the block producer and the bridge operator whenever a new block is mined. Requirements: - The method caller must be validator contract. - The method must be called only once per block. Emits the event `BonusTransferred` or `BonusTransferFailed`. Notes: - The method does not revert when the contract balance is insufficient to send bonus. This assure the submit reward method will not be reverted, and the underlying nodes does not hang.",
        "params": {
          "_forBlockProducer": "Indicates whether requesting the bonus for the block procucer, in case of being in jail or relevance.",
          "_forBridgeOperator": "Indicates whether requesting the bonus for the bridge operator."
        },
        "returns": {
          "_blockProducerBonus": "The amount of bonus actually sent for the block producer, returns 0 when the transfer is failed.",
          "_bridgeOperatorBonus": "The amount of bonus actually sent for the bridge operator, returns 0 when the transfer is failed.",
          "_success": "Whether the transfer is successfully. This returns false mostly because this contract is out of balance."
        }
      },
      "setBlockProducerBonusPerBlock(uint256)": {
        "details": "Sets the bonus amount per block for block producer. Emits the event `BlockProducerBonusPerBlockUpdated`. Requirements: - The method caller is admin."
      },
      "setBridgeOperatorBonusPerBlock(uint256)": {
        "details": "Sets the bonus amount per block for bridge operator. Emits the event `BridgeOperatorBonusPerBlockUpdated`. Requirements: - The method caller is admin."
      },
      "setValidatorContract(address)": {
        "details": "Sets the validator contract. Requirements: - The method caller is admin. - The new address is a contract. Emits the event `ValidatorContractUpdated`."
      },
      "validatorContract()": {
        "details": "Returns the validator contract."
      }
    },
    "stateVariables": {
      "_blockProducerBonusPerBlock": {
        "details": "The block bonus for the block producer whenever a new block is mined."
      },
      "_bridgeOperatorBonusPerBlock": {
        "details": "The block bonus for the bridge operator whenever a new block is mined."
      },
      "lastBlockSendingBonus": {
        "details": "The last block number that the staking vesting sent."
      }
    },
    "version": 1
  },
  "userdoc": {
    "kind": "user",
    "methods": {},
    "version": 1
  },
  "storageLayout": {
    "storage": [
      {
        "astId": 6398,
        "contract": "contracts/ronin/StakingVesting.sol:StakingVesting",
        "label": "_validatorContract",
        "offset": 0,
        "slot": "0",
        "type": "t_contract(IRoninValidatorSet)10935"
      },
      {
        "astId": 1373,
        "contract": "contracts/ronin/StakingVesting.sol:StakingVesting",
        "label": "_initialized",
        "offset": 20,
        "slot": "0",
        "type": "t_uint8"
      },
      {
        "astId": 1376,
        "contract": "contracts/ronin/StakingVesting.sol:StakingVesting",
        "label": "_initializing",
        "offset": 21,
        "slot": "0",
        "type": "t_bool"
      },
      {
        "astId": 21611,
        "contract": "contracts/ronin/StakingVesting.sol:StakingVesting",
        "label": "_blockProducerBonusPerBlock",
        "offset": 0,
        "slot": "1",
        "type": "t_uint256"
      },
      {
        "astId": 21614,
        "contract": "contracts/ronin/StakingVesting.sol:StakingVesting",
        "label": "_bridgeOperatorBonusPerBlock",
        "offset": 0,
        "slot": "2",
        "type": "t_uint256"
      },
      {
        "astId": 21617,
        "contract": "contracts/ronin/StakingVesting.sol:StakingVesting",
        "label": "lastBlockSendingBonus",
        "offset": 0,
        "slot": "3",
        "type": "t_uint256"
      }
    ],
    "types": {
      "t_bool": {
        "encoding": "inplace",
        "label": "bool",
        "numberOfBytes": "1"
      },
      "t_contract(IRoninValidatorSet)10935": {
        "encoding": "inplace",
        "label": "contract IRoninValidatorSet",
        "numberOfBytes": "20"
      },
      "t_uint256": {
        "encoding": "inplace",
        "label": "uint256",
        "numberOfBytes": "32"
      },
      "t_uint8": {
        "encoding": "inplace",
        "label": "uint8",
        "numberOfBytes": "1"
      }
    }
  }
}