{
  "address": "0xEc7AC1cdda395094DCaC7711E6439c5E8caBcf2F",
  "abi": [
    {
      "inputs": [],
      "stateMutability": "nonpayable",
      "type": "constructor"
    },
    {
      "inputs": [
        {
          "internalType": "address",
          "name": "admin",
          "type": "address"
        }
      ],
      "name": "ErrAdminOfAnyActivePoolForbidden",
      "type": "error"
    },
    {
      "inputs": [
        {
          "internalType": "address",
          "name": "addr",
          "type": "address"
        },
        {
          "internalType": "string",
          "name": "extraInfo",
          "type": "string"
        }
      ],
      "name": "ErrCannotInitTransferRON",
      "type": "error"
    },
    {
      "inputs": [],
      "name": "ErrCannotTransferRON",
      "type": "error"
    },
    {
      "inputs": [
        {
          "internalType": "enum ContractType",
          "name": "contractType",
          "type": "uint8"
        }
      ],
      "name": "ErrContractTypeNotFound",
      "type": "error"
    },
    {
      "inputs": [
        {
          "internalType": "bytes4",
          "name": "msgSig",
          "type": "bytes4"
        }
      ],
      "name": "ErrDuplicated",
      "type": "error"
    },
    {
      "inputs": [
        {
          "internalType": "TConsensus",
          "name": "consensusAddr",
          "type": "address"
        },
        {
          "internalType": "address",
          "name": "poolAddr",
          "type": "address"
        }
      ],
      "name": "ErrInactivePool",
      "type": "error"
    },
    {
      "inputs": [
        {
          "internalType": "bytes4",
          "name": "msgSig",
          "type": "bytes4"
        },
        {
          "internalType": "uint256",
          "name": "currentBalance",
          "type": "uint256"
        },
        {
          "internalType": "uint256",
          "name": "sendAmount",
          "type": "uint256"
        }
      ],
      "name": "ErrInsufficientBalance",
      "type": "error"
    },
    {
      "inputs": [],
      "name": "ErrInsufficientDelegatingAmount",
      "type": "error"
    },
    {
      "inputs": [],
      "name": "ErrInsufficientStakingAmount",
      "type": "error"
    },
    {
      "inputs": [],
      "name": "ErrInvalidArrays",
      "type": "error"
    },
    {
      "inputs": [],
      "name": "ErrInvalidCommissionRate",
      "type": "error"
    },
    {
      "inputs": [],
      "name": "ErrInvalidPoolShare",
      "type": "error"
    },
    {
      "inputs": [],
      "name": "ErrOnlyPoolAdminAllowed",
      "type": "error"
    },
    {
      "inputs": [],
      "name": "ErrPoolAdminForbidden",
      "type": "error"
    },
    {
      "inputs": [
        {
          "internalType": "bytes4",
          "name": "msgSig",
          "type": "bytes4"
        }
      ],
      "name": "ErrRecipientRevert",
      "type": "error"
    },
    {
      "inputs": [],
      "name": "ErrStakingAmountLeft",
      "type": "error"
    },
    {
      "inputs": [],
      "name": "ErrThreeInteractionAddrsNotEqual",
      "type": "error"
    },
    {
      "inputs": [
        {
          "internalType": "bytes4",
          "name": "msgSig",
          "type": "bytes4"
        },
        {
          "internalType": "enum RoleAccess",
          "name": "expectedRole",
          "type": "uint8"
        }
      ],
      "name": "ErrUnauthorized",
      "type": "error"
    },
    {
      "inputs": [],
      "name": "ErrUndelegateTooEarly",
      "type": "error"
    },
    {
      "inputs": [],
      "name": "ErrUndelegateZeroAmount",
      "type": "error"
    },
    {
      "inputs": [
        {
          "internalType": "bytes4",
          "name": "msgSig",
          "type": "bytes4"
        },
        {
          "internalType": "enum ContractType",
          "name": "expectedContractType",
          "type": "uint8"
        },
        {
          "internalType": "address",
          "name": "actual",
          "type": "address"
        }
      ],
      "name": "ErrUnexpectedInternalCall",
      "type": "error"
    },
    {
      "inputs": [],
      "name": "ErrUnstakeTooEarly",
      "type": "error"
    },
    {
      "inputs": [],
      "name": "ErrUnstakeZeroAmount",
      "type": "error"
    },
    {
      "inputs": [
        {
          "internalType": "address",
          "name": "addr",
          "type": "address"
        }
      ],
      "name": "ErrZeroCodeContract",
      "type": "error"
    },
    {
      "inputs": [],
      "name": "ErrZeroValue",
      "type": "error"
    },
    {
      "anonymous": false,
      "inputs": [
        {
          "indexed": false,
          "internalType": "uint256",
          "name": "minRate",
          "type": "uint256"
        },
        {
          "indexed": false,
          "internalType": "uint256",
          "name": "maxRate",
          "type": "uint256"
        }
      ],
      "name": "CommissionRateRangeUpdated",
      "type": "event"
    },
    {
      "anonymous": false,
      "inputs": [
        {
          "indexed": true,
          "internalType": "enum ContractType",
          "name": "contractType",
          "type": "uint8"
        },
        {
          "indexed": true,
          "internalType": "address",
          "name": "addr",
          "type": "address"
        }
      ],
      "name": "ContractUpdated",
      "type": "event"
    },
    {
      "anonymous": false,
      "inputs": [
        {
          "indexed": false,
          "internalType": "uint256",
          "name": "minSecs",
          "type": "uint256"
        }
      ],
      "name": "CooldownSecsToUndelegateUpdated",
      "type": "event"
    },
    {
      "anonymous": false,
      "inputs": [
        {
          "indexed": true,
          "internalType": "address",
          "name": "delegator",
          "type": "address"
        },
        {
          "indexed": true,
          "internalType": "address",
          "name": "poolId",
          "type": "address"
        },
        {
          "indexed": false,
          "internalType": "uint256",
          "name": "amount",
          "type": "uint256"
        }
      ],
      "name": "Delegated",
      "type": "event"
    },
    {
      "anonymous": false,
      "inputs": [
        {
          "indexed": false,
          "internalType": "uint8",
          "name": "version",
          "type": "uint8"
        }
      ],
      "name": "Initialized",
      "type": "event"
    },
    {
      "anonymous": false,
      "inputs": [
        {
          "indexed": false,
          "internalType": "uint256",
          "name": "threshold",
          "type": "uint256"
        }
      ],
      "name": "MinValidatorStakingAmountUpdated",
      "type": "event"
    },
    {
      "anonymous": false,
      "inputs": [
        {
          "indexed": true,
          "internalType": "address",
          "name": "validator",
          "type": "address"
        },
        {
          "indexed": true,
          "internalType": "address",
          "name": "admin",
          "type": "address"
        }
      ],
      "name": "PoolApproved",
      "type": "event"
    },
    {
      "anonymous": false,
      "inputs": [
        {
          "indexed": true,
          "internalType": "uint256",
          "name": "period",
          "type": "uint256"
        },
        {
          "indexed": true,
          "internalType": "address",
          "name": "poolAddr",
          "type": "address"
        },
        {
          "indexed": false,
          "internalType": "uint256",
          "name": "shares",
          "type": "uint256"
        }
      ],
      "name": "PoolSharesUpdated",
      "type": "event"
    },
    {
      "anonymous": false,
      "inputs": [
        {
          "indexed": false,
          "internalType": "address[]",
          "name": "validator",
          "type": "address[]"
        }
      ],
      "name": "PoolsDeprecated",
      "type": "event"
    },
    {
      "anonymous": false,
      "inputs": [
        {
          "indexed": true,
          "internalType": "uint256",
          "name": "period",
          "type": "uint256"
        },
        {
          "indexed": false,
          "internalType": "address[]",
          "name": "poolAddrs",
          "type": "address[]"
        }
      ],
      "name": "PoolsUpdateConflicted",
      "type": "event"
    },
    {
      "anonymous": false,
      "inputs": [
        {
          "indexed": true,
          "internalType": "uint256",
          "name": "period",
          "type": "uint256"
        },
        {
          "indexed": false,
          "internalType": "address[]",
          "name": "poolAddrs",
          "type": "address[]"
        },
        {
          "indexed": false,
          "internalType": "uint256[]",
          "name": "rewards",
          "type": "uint256[]"
        }
      ],
      "name": "PoolsUpdateFailed",
      "type": "event"
    },
    {
      "anonymous": false,
      "inputs": [
        {
          "indexed": true,
          "internalType": "uint256",
          "name": "period",
          "type": "uint256"
        },
        {
          "indexed": false,
          "internalType": "address[]",
          "name": "poolAddrs",
          "type": "address[]"
        },
        {
          "indexed": false,
          "internalType": "uint256[]",
          "name": "aRps",
          "type": "uint256[]"
        },
        {
          "indexed": false,
          "internalType": "uint256[]",
          "name": "shares",
          "type": "uint256[]"
        }
      ],
      "name": "PoolsUpdated",
      "type": "event"
    },
    {
      "anonymous": false,
      "inputs": [
        {
          "indexed": true,
          "internalType": "address",
          "name": "poolAddr",
          "type": "address"
        },
        {
          "indexed": true,
          "internalType": "address",
          "name": "user",
          "type": "address"
        },
        {
          "indexed": false,
          "internalType": "uint256",
          "name": "amount",
          "type": "uint256"
        }
      ],
      "name": "RewardClaimed",
      "type": "event"
    },
    {
      "anonymous": false,
      "inputs": [
        {
          "indexed": true,
          "internalType": "address",
          "name": "poolId",
          "type": "address"
        },
        {
          "indexed": false,
          "internalType": "uint256",
          "name": "amount",
          "type": "uint256"
        }
      ],
      "name": "Staked",
      "type": "event"
    },
    {
      "anonymous": false,
      "inputs": [
        {
          "indexed": true,
          "internalType": "address",
          "name": "poolId",
          "type": "address"
        },
        {
          "indexed": true,
          "internalType": "address",
          "name": "recipient",
          "type": "address"
        },
        {
          "indexed": false,
          "internalType": "uint256",
          "name": "amount",
          "type": "uint256"
        },
        {
          "indexed": false,
          "internalType": "uint256",
          "name": "contractBalance",
          "type": "uint256"
        }
      ],
      "name": "StakingAmountDeductFailed",
      "type": "event"
    },
    {
      "anonymous": false,
      "inputs": [
        {
          "indexed": true,
          "internalType": "address",
          "name": "poolId",
          "type": "address"
        },
        {
          "indexed": true,
          "internalType": "address",
          "name": "admin",
          "type": "address"
        },
        {
          "indexed": false,
          "internalType": "uint256",
          "name": "amount",
          "type": "uint256"
        },
        {
          "indexed": false,
          "internalType": "uint256",
          "name": "contractBalance",
          "type": "uint256"
        }
      ],
      "name": "StakingAmountTransferFailed",
      "type": "event"
    },
    {
      "anonymous": false,
      "inputs": [
        {
          "indexed": true,
          "internalType": "address",
          "name": "delegator",
          "type": "address"
        },
        {
          "indexed": true,
          "internalType": "address",
          "name": "poolId",
          "type": "address"
        },
        {
          "indexed": false,
          "internalType": "uint256",
          "name": "amount",
          "type": "uint256"
        }
      ],
      "name": "Undelegated",
      "type": "event"
    },
    {
      "anonymous": false,
      "inputs": [
        {
          "indexed": true,
          "internalType": "address",
          "name": "poolId",
          "type": "address"
        },
        {
          "indexed": false,
          "internalType": "uint256",
          "name": "amount",
          "type": "uint256"
        }
      ],
      "name": "Unstaked",
      "type": "event"
    },
    {
      "anonymous": false,
      "inputs": [
        {
          "indexed": true,
          "internalType": "address",
          "name": "poolAddr",
          "type": "address"
        },
        {
          "indexed": true,
          "internalType": "address",
          "name": "user",
          "type": "address"
        },
        {
          "indexed": false,
          "internalType": "uint256",
          "name": "debited",
          "type": "uint256"
        }
      ],
      "name": "UserRewardUpdated",
      "type": "event"
    },
    {
      "anonymous": false,
      "inputs": [
        {
          "indexed": false,
          "internalType": "uint256",
          "name": "secs",
          "type": "uint256"
        }
      ],
      "name": "WaitingSecsToRevokeUpdated",
      "type": "event"
    },
    {
      "stateMutability": "payable",
      "type": "fallback"
    },
    {
      "inputs": [],
      "name": "DEFAULT_ADDITION_GAS",
      "outputs": [
        {
          "internalType": "uint256",
          "name": "",
          "type": "uint256"
        }
      ],
      "stateMutability": "view",
      "type": "function"
    },
    {
      "inputs": [],
      "name": "PERIOD_DURATION",
      "outputs": [
        {
          "internalType": "uint256",
          "name": "",
          "type": "uint256"
        }
      ],
      "stateMutability": "view",
      "type": "function"
    },
    {
      "inputs": [
        {
          "internalType": "address",
          "name": "candidateAdmin",
          "type": "address"
        },
        {
          "internalType": "TConsensus",
          "name": "consensusAddr",
          "type": "address"
        },
        {
          "internalType": "address payable",
          "name": "treasuryAddr",
          "type": "address"
        },
        {
          "internalType": "uint256",
          "name": "commissionRate",
          "type": "uint256"
        },
        {
          "internalType": "bytes",
          "name": "pubkey",
          "type": "bytes"
        }
      ],
      "name": "applyValidatorCandidate",
      "outputs": [],
      "stateMutability": "payable",
      "type": "function"
    },
    {
      "inputs": [
        {
          "internalType": "TConsensus[]",
          "name": "consensusAddrs",
          "type": "address[]"
        },
        {
          "internalType": "uint256[]",
          "name": "amounts",
          "type": "uint256[]"
        }
      ],
      "name": "bulkUndelegate",
      "outputs": [],
      "stateMutability": "nonpayable",
      "type": "function"
    },
    {
      "inputs": [
        {
          "internalType": "TConsensus[]",
          "name": "consensusAddrList",
          "type": "address[]"
        }
      ],
      "name": "claimRewards",
      "outputs": [
        {
          "internalType": "uint256",
          "name": "amount",
          "type": "uint256"
        }
      ],
      "stateMutability": "nonpayable",
      "type": "function"
    },
    {
      "inputs": [],
      "name": "cooldownSecsToUndelegate",
      "outputs": [
        {
          "internalType": "uint256",
          "name": "",
          "type": "uint256"
        }
      ],
      "stateMutability": "view",
      "type": "function"
    },
    {
      "inputs": [
        {
          "internalType": "TConsensus",
          "name": "consensusAddr",
          "type": "address"
        }
      ],
      "name": "delegate",
      "outputs": [],
      "stateMutability": "payable",
      "type": "function"
    },
    {
      "inputs": [
        {
          "internalType": "TConsensus[]",
          "name": "consensusAddrList",
          "type": "address[]"
        },
        {
          "internalType": "TConsensus",
          "name": "consensusAddrDst",
          "type": "address"
        }
      ],
      "name": "delegateRewards",
      "outputs": [
        {
          "internalType": "uint256",
          "name": "amount",
          "type": "uint256"
        }
      ],
      "stateMutability": "nonpayable",
      "type": "function"
    },
    {
      "inputs": [
        {
          "internalType": "address",
          "name": "poolAddr",
          "type": "address"
        },
        {
          "internalType": "address",
          "name": "newAdminAddr",
          "type": "address"
        }
      ],
      "name": "execChangeAdminAddress",
      "outputs": [],
      "stateMutability": "nonpayable",
      "type": "function"
    },
    {
      "inputs": [
        {
          "internalType": "address",
          "name": "poolId",
          "type": "address"
        },
        {
          "internalType": "uint256",
          "name": "amount",
          "type": "uint256"
        }
      ],
      "name": "execDeductStakingAmount",
      "outputs": [
        {
          "internalType": "uint256",
          "name": "actualDeductingAmount_",
          "type": "uint256"
        }
      ],
      "stateMutability": "nonpayable",
      "type": "function"
    },
    {
      "inputs": [
        {
          "internalType": "address[]",
          "name": "poolIds",
          "type": "address[]"
        },
        {
          "internalType": "uint256",
          "name": "newPeriod",
          "type": "uint256"
        }
      ],
      "name": "execDeprecatePools",
      "outputs": [],
      "stateMutability": "nonpayable",
      "type": "function"
    },
    {
      "inputs": [
        {
          "internalType": "address[]",
          "name": "poolIds",
          "type": "address[]"
        },
        {
          "internalType": "uint256[]",
          "name": "rewards",
          "type": "uint256[]"
        },
        {
          "internalType": "uint256",
          "name": "period",
          "type": "uint256"
        }
      ],
      "name": "execRecordRewards",
      "outputs": [],
      "stateMutability": "payable",
      "type": "function"
    },
    {
      "inputs": [],
      "name": "getCommissionRateRange",
      "outputs": [
        {
          "internalType": "uint256",
          "name": "",
          "type": "uint256"
        },
        {
          "internalType": "uint256",
          "name": "",
          "type": "uint256"
        }
      ],
      "stateMutability": "view",
      "type": "function"
    },
    {
      "inputs": [
        {
          "internalType": "enum ContractType",
          "name": "contractType",
          "type": "uint8"
        }
      ],
      "name": "getContract",
      "outputs": [
        {
          "internalType": "address",
          "name": "contract_",
          "type": "address"
        }
      ],
      "stateMutability": "view",
      "type": "function"
    },
    {
      "inputs": [
        {
          "internalType": "TConsensus[]",
          "name": "consensusAddrs",
          "type": "address[]"
        }
      ],
      "name": "getManySelfStakings",
      "outputs": [
        {
          "internalType": "uint256[]",
          "name": "selfStakings_",
          "type": "uint256[]"
        }
      ],
      "stateMutability": "view",
      "type": "function"
    },
    {
      "inputs": [
        {
          "internalType": "address[]",
          "name": "poolIds",
          "type": "address[]"
        }
      ],
      "name": "getManySelfStakingsById",
      "outputs": [
        {
          "internalType": "uint256[]",
          "name": "selfStakings_",
          "type": "uint256[]"
        }
      ],
      "stateMutability": "view",
      "type": "function"
    },
    {
      "inputs": [
        {
          "internalType": "TConsensus[]",
          "name": "consensusAddrs",
          "type": "address[]"
        },
        {
          "internalType": "address[]",
          "name": "userList",
          "type": "address[]"
        }
      ],
      "name": "getManyStakingAmounts",
      "outputs": [
        {
          "internalType": "uint256[]",
          "name": "stakingAmounts",
          "type": "uint256[]"
        }
      ],
      "stateMutability": "view",
      "type": "function"
    },
    {
      "inputs": [
        {
          "internalType": "address[]",
          "name": "poolIds",
          "type": "address[]"
        },
        {
          "internalType": "address[]",
          "name": "userList",
          "type": "address[]"
        }
      ],
      "name": "getManyStakingAmountsById",
      "outputs": [
        {
          "internalType": "uint256[]",
          "name": "stakingAmounts",
          "type": "uint256[]"
        }
      ],
      "stateMutability": "view",
      "type": "function"
    },
    {
      "inputs": [
        {
          "internalType": "TConsensus[]",
          "name": "consensusAddrs",
          "type": "address[]"
        }
      ],
      "name": "getManyStakingTotals",
      "outputs": [
        {
          "internalType": "uint256[]",
          "name": "stakingAmounts_",
          "type": "uint256[]"
        }
      ],
      "stateMutability": "view",
      "type": "function"
    },
    {
      "inputs": [
        {
          "internalType": "address[]",
          "name": "poolIds",
          "type": "address[]"
        }
      ],
      "name": "getManyStakingTotalsById",
      "outputs": [
        {
          "internalType": "uint256[]",
          "name": "stakingAmounts_",
          "type": "uint256[]"
        }
      ],
      "stateMutability": "view",
      "type": "function"
    },
    {
      "inputs": [
        {
          "internalType": "address",
          "name": "admin",
          "type": "address"
        }
      ],
      "name": "getPoolAddressOf",
      "outputs": [
        {
          "internalType": "address",
          "name": "",
          "type": "address"
        }
      ],
      "stateMutability": "view",
      "type": "function"
    },
    {
      "inputs": [
        {
          "internalType": "TConsensus",
          "name": "consensusAddr",
          "type": "address"
        }
      ],
      "name": "getPoolDetail",
      "outputs": [
        {
          "internalType": "address",
          "name": "admin",
          "type": "address"
        },
        {
          "internalType": "uint256",
          "name": "stakingAmount",
          "type": "uint256"
        },
        {
          "internalType": "uint256",
          "name": "stakingTotal",
          "type": "uint256"
        }
      ],
      "stateMutability": "view",
      "type": "function"
    },
    {
      "inputs": [
        {
          "internalType": "address",
          "name": "poolId",
          "type": "address"
        }
      ],
      "name": "getPoolDetailById",
      "outputs": [
        {
          "internalType": "address",
          "name": "admin",
          "type": "address"
        },
        {
          "internalType": "uint256",
          "name": "stakingAmount",
          "type": "uint256"
        },
        {
          "internalType": "uint256",
          "name": "stakingTotal",
          "type": "uint256"
        }
      ],
      "stateMutability": "view",
      "type": "function"
    },
    {
      "inputs": [
        {
          "internalType": "TConsensus",
          "name": "consensusAddr",
          "type": "address"
        },
        {
          "internalType": "address",
          "name": "user",
          "type": "address"
        }
      ],
      "name": "getReward",
      "outputs": [
        {
          "internalType": "uint256",
          "name": "",
          "type": "uint256"
        }
      ],
      "stateMutability": "view",
      "type": "function"
    },
    {
      "inputs": [
        {
          "internalType": "address",
          "name": "user",
          "type": "address"
        },
        {
          "internalType": "TConsensus[]",
          "name": "consensusAddrs",
          "type": "address[]"
        }
      ],
      "name": "getRewards",
      "outputs": [
        {
          "internalType": "uint256[]",
          "name": "rewards_",
          "type": "uint256[]"
        }
      ],
      "stateMutability": "view",
      "type": "function"
    },
    {
      "inputs": [
        {
          "internalType": "TConsensus",
          "name": "consensusAddr",
          "type": "address"
        },
        {
          "internalType": "address",
          "name": "user",
          "type": "address"
        }
      ],
      "name": "getStakingAmount",
      "outputs": [
        {
          "internalType": "uint256",
          "name": "",
          "type": "uint256"
        }
      ],
      "stateMutability": "view",
      "type": "function"
    },
    {
      "inputs": [
        {
          "internalType": "TConsensus",
          "name": "consensusAddr",
          "type": "address"
        }
      ],
      "name": "getStakingTotal",
      "outputs": [
        {
          "internalType": "uint256",
          "name": "",
          "type": "uint256"
        }
      ],
      "stateMutability": "view",
      "type": "function"
    },
    {
      "inputs": [
        {
          "internalType": "address",
          "name": "__validatorContract",
          "type": "address"
        },
        {
          "internalType": "uint256",
          "name": "__minValidatorStakingAmount",
          "type": "uint256"
        },
        {
          "internalType": "uint256",
          "name": "__maxCommissionRate",
          "type": "uint256"
        },
        {
          "internalType": "uint256",
          "name": "__cooldownSecsToUndelegate",
          "type": "uint256"
        },
        {
          "internalType": "uint256",
          "name": "__waitingSecsToRevoke",
          "type": "uint256"
        }
      ],
      "name": "initialize",
      "outputs": [],
      "stateMutability": "nonpayable",
      "type": "function"
    },
    {
      "inputs": [],
      "name": "initializeV2",
      "outputs": [],
      "stateMutability": "nonpayable",
      "type": "function"
    },
    {
      "inputs": [
        {
          "internalType": "address",
          "name": "__profileContract",
          "type": "address"
        }
      ],
      "name": "initializeV3",
      "outputs": [],
      "stateMutability": "nonpayable",
      "type": "function"
    },
    {
      "inputs": [
        {
          "internalType": "address",
          "name": "admin",
          "type": "address"
        }
      ],
      "name": "isAdminOfActivePool",
      "outputs": [
        {
          "internalType": "bool",
          "name": "",
          "type": "bool"
        }
      ],
      "stateMutability": "view",
      "type": "function"
    },
    {
      "inputs": [],
      "name": "minValidatorStakingAmount",
      "outputs": [
        {
          "internalType": "uint256",
          "name": "",
          "type": "uint256"
        }
      ],
      "stateMutability": "view",
      "type": "function"
    },
    {
      "inputs": [
        {
          "internalType": "TConsensus",
          "name": "consensusAddrSrc",
          "type": "address"
        },
        {
          "internalType": "TConsensus",
          "name": "consensusAddrDst",
          "type": "address"
        },
        {
          "internalType": "uint256",
          "name": "amount",
          "type": "uint256"
        }
      ],
      "name": "redelegate",
      "outputs": [],
      "stateMutability": "nonpayable",
      "type": "function"
    },
    {
      "inputs": [
        {
          "internalType": "TConsensus",
          "name": "consensusAddr",
          "type": "address"
        }
      ],
      "name": "requestEmergencyExit",
      "outputs": [],
      "stateMutability": "nonpayable",
      "type": "function"
    },
    {
      "inputs": [
        {
          "internalType": "TConsensus",
          "name": "consensusAddr",
          "type": "address"
        }
      ],
      "name": "requestRenounce",
      "outputs": [],
      "stateMutability": "nonpayable",
      "type": "function"
    },
    {
      "inputs": [
        {
          "internalType": "TConsensus",
          "name": "consensusAddr",
          "type": "address"
        },
        {
          "internalType": "uint256",
          "name": "effectiveDaysOnwards",
          "type": "uint256"
        },
        {
          "internalType": "uint256",
          "name": "commissionRate",
          "type": "uint256"
        }
      ],
      "name": "requestUpdateCommissionRate",
      "outputs": [],
      "stateMutability": "nonpayable",
      "type": "function"
    },
    {
      "inputs": [
        {
          "internalType": "uint256",
          "name": "minRate",
          "type": "uint256"
        },
        {
          "internalType": "uint256",
          "name": "maxRate",
          "type": "uint256"
        }
      ],
      "name": "setCommissionRateRange",
      "outputs": [],
      "stateMutability": "nonpayable",
      "type": "function"
    },
    {
      "inputs": [
        {
          "internalType": "enum ContractType",
          "name": "contractType",
          "type": "uint8"
        },
        {
          "internalType": "address",
          "name": "addr",
          "type": "address"
        }
      ],
      "name": "setContract",
      "outputs": [],
      "stateMutability": "nonpayable",
      "type": "function"
    },
    {
      "inputs": [
        {
          "internalType": "uint256",
          "name": "cooldownSecs",
          "type": "uint256"
        }
      ],
      "name": "setCooldownSecsToUndelegate",
      "outputs": [],
      "stateMutability": "nonpayable",
      "type": "function"
    },
    {
      "inputs": [
        {
          "internalType": "uint256",
          "name": "threshold",
          "type": "uint256"
        }
      ],
      "name": "setMinValidatorStakingAmount",
      "outputs": [],
      "stateMutability": "nonpayable",
      "type": "function"
    },
    {
      "inputs": [
        {
          "internalType": "uint256",
          "name": "secs",
          "type": "uint256"
        }
      ],
      "name": "setWaitingSecsToRevoke",
      "outputs": [],
      "stateMutability": "nonpayable",
      "type": "function"
    },
    {
      "inputs": [
        {
          "internalType": "TConsensus",
          "name": "consensusAddr",
          "type": "address"
        }
      ],
      "name": "stake",
      "outputs": [],
      "stateMutability": "payable",
      "type": "function"
    },
    {
      "inputs": [
        {
          "internalType": "TConsensus",
          "name": "consensusAddr",
          "type": "address"
        },
        {
          "internalType": "uint256",
          "name": "amount",
          "type": "uint256"
        }
      ],
      "name": "undelegate",
      "outputs": [],
      "stateMutability": "nonpayable",
      "type": "function"
    },
    {
      "inputs": [
        {
          "internalType": "TConsensus",
          "name": "consensusAddr",
          "type": "address"
        },
        {
          "internalType": "uint256",
          "name": "amount",
          "type": "uint256"
        }
      ],
      "name": "unstake",
      "outputs": [],
      "stateMutability": "nonpayable",
      "type": "function"
    },
    {
      "inputs": [],
      "name": "waitingSecsToRevoke",
      "outputs": [
        {
          "internalType": "uint256",
          "name": "",
          "type": "uint256"
        }
      ],
      "stateMutability": "view",
      "type": "function"
    },
    {
      "stateMutability": "payable",
      "type": "receive"
    }
  ],
  "transactionHash": "0x4dbcd5a87880cfa9bcde73081061691507d7eb80f75ebfea66b01ea511d681d3",
  "args": [],
  "numDeployments": 14,
  "solcInputHash": "b469203c60a069be0ec276c20622629d",
  "bytecode": "0x60806040523480156200001157600080fd5b5060016000556200002162000027565b620000e9565b60d154610100900460ff1615620000945760405162461bcd60e51b815260206004820152602760248201527f496e697469616c697a61626c653a20636f6e747261637420697320696e697469604482015266616c697a696e6760c81b606482015260840160405180910390fd5b60d15460ff9081161015620000e75760d1805460ff191660ff9081179091556040519081527f7f26b83ff96e1f2b6a682f133852f6798a09c465da95921460cefb38474024989060200160405180910390a15b565b61425380620000f96000396000f3fe6080604052600436106102765760003560e01c80636b0916951161014f578063aa15a6fd116100c1578063de981f1b1161007a578063de981f1b146107a9578063e22d1c9d146107c9578063ea80d67d146107e9578063ef9aa66514610809578063f92ad21914610829578063f9f031df1461084957610288565b8063aa15a6fd146106ab578063acd79c46146106cb578063af245429146106de578063c2a672e0146106f3578063c508700314610713578063d01b8eed1461076457610288565b8063895ab74211610113578063895ab742146105f6578063909791dd1461061657806391f8723f1461062b578063924f081e1461064b5780639488e4e91461066b578063969ffc141461068b57610288565b80636b091695146105565780636bd8f8041461057657806376664b6514610596578063865e6fd3146105b6578063888b9ae9146105d657610288565b806342ef3c34116101e857806357473447116101ac57806357473447146104b75780635a2ac073146104d75780635c19a95c146104f75780635cd8a76b1461050a5780636558954f1461051f578063679a6e431461053657610288565b806342ef3c341461040f578063435628ba1461042f578063446850a11461044f5780634530d2021461046f5780634d99dd161461049757610288565b806318a749a71161023a57806318a749a71461033e57806326476204146103515780632715805e146103645780633101cfcb146103845780633d8e846e146103a457806342e0c408146103c457610288565b806303827884146102935780630682e8fa146102bc578063095f6475146102d1578063097e4a9d146102fe5780631658c86e1461031e57610288565b3661028857600861028681610869565b005b600861028681610869565b34801561029f57600080fd5b506102a96104b081565b6040519081526020015b60405180910390f35b3480156102c857600080fd5b506038546102a9565b3480156102dd57600080fd5b506102f16102ec36600461379e565b6108c1565b6040516102b39190613844565b34801561030a57600080fd5b506102a961031936600461386c565b61094c565b34801561032a57600080fd5b506102866103393660046138c2565b610a20565b61028661034c3660046138df565b610aea565b61028661035f3660046138c2565b610c81565b34801561037057600080fd5b506102a961037f366004613991565b610cc9565b34801561039057600080fd5b5061028661039f3660046138c2565b610d5a565b3480156103b057600080fd5b506102f16103bf3660046139bd565b610dfd565b3480156103d057600080fd5b506103ff6103df3660046138c2565b6001600160a01b039081166000908152603a602052604090205416151590565b60405190151581526020016102b3565b34801561041b57600080fd5b506102f161042a366004613a11565b610f60565b34801561043b57600080fd5b506102f161044a36600461379e565b610fb5565b34801561045b57600080fd5b506102f161046a366004613a11565b61102d565b34801561047b57600080fd5b50606e54606d54604080519283526020830191909152016102b3565b3480156104a357600080fd5b506102866104b2366004613991565b611072565b3480156104c357600080fd5b506102866104d2366004613a52565b611107565b3480156104e357600080fd5b506102f16104f2366004613a11565b61111d565b6102866105053660046138c2565b61115b565b34801561051657600080fd5b506102866111dd565b34801561052b57600080fd5b506102a96201518081565b34801561054257600080fd5b50610286610551366004613a74565b61129c565b34801561056257600080fd5b506102a9610571366004613a8d565b6112ad565b34801561058257600080fd5b50610286610591366004613ac6565b6112c7565b3480156105a257600080fd5b506102a96105b1366004613a8d565b611374565b3480156105c257600080fd5b506102866105d1366004613b16565b61138c565b3480156105e257600080fd5b506102866105f1366004613a74565b6113a7565b34801561060257600080fd5b506102a96106113660046138c2565b6113b8565b34801561062257600080fd5b50606c546102a9565b34801561063757600080fd5b506102f1610646366004613a11565b6113e8565b34801561065757600080fd5b50610286610666366004613b32565b611433565b34801561067757600080fd5b5061028661068636600461379e565b611534565b34801561069757600080fd5b506102866106a6366004613a74565b6116c3565b3480156106b757600080fd5b506102866106c63660046138c2565b6116d4565b6102866106d9366004613b67565b611737565b3480156106ea57600080fd5b506039546102a9565b3480156106ff57600080fd5b5061028661070e366004613991565b61178b565b34801561071f57600080fd5b5061074c61072e3660046138c2565b6001600160a01b039081166000908152603a60205260409020541690565b6040516001600160a01b0390911681526020016102b3565b34801561077057600080fd5b5061078461077f3660046138c2565b611852565b604080516001600160a01b0390941684526020840192909252908201526060016102b3565b3480156107b557600080fd5b5061074c6107c4366004613bda565b611899565b3480156107d557600080fd5b506102866107e4366004613bf5565b611914565b3480156107f557600080fd5b50610286610804366004613a8d565b611aaf565b34801561081557600080fd5b506107846108243660046138c2565b611b18565b34801561083557600080fd5b50610286610844366004613c40565b611b5f565b34801561085557600080fd5b506102a9610864366004613a11565b611c56565b61087281611899565b6001600160a01b0316336001600160a01b0316146108be576000356001600160e01b03191681336040516320e0f98d60e21b81526004016108b593929190613cae565b60405180910390fd5b50565b60606000610901868680806020026020016040519081016040528093929190818152602001838360200280828437600092019190915250611cde92505050565b905061094081858580806020026020016040519081016040528093929190818152602001838360200280828437600092019190915250611d5a92505050565b9150505b949350505050565b60006002600054036109705760405162461bcd60e51b81526004016108b590613ce5565b60026000558161097f81611e37565b336000908152603a60205260409020546001600160a01b0316156109b857604051632fc6bfb160e21b81523360048201526024016108b5565b60006109f6868680806020026020016040519081016040528093929190818152602001838360200280828437600092019190915250611cde92505050565b90506000610a0385611ee7565b9050610a10338383611f5f565b6001600055979650505050505050565b80610a2a81611e37565b60376000610a3784611ee7565b6001600160a01b03166001600160a01b0316815260200190815260200160002033610a628282611f91565b610a6c6008611899565b6001600160a01b031663dd716ad3610a8386611ee7565b6039546040516001600160e01b031960e085901b1681526001600160a01b0390921660048301526024820152604401600060405180830381600087803b158015610acc57600080fd5b505af1158015610ae0573d6000803e3d6000fd5b5050505050505050565b600260005403610b0c5760405162461bcd60e51b81526004016108b590613ce5565b60026000908155338152603a60205260409020546001600160a01b031615610b4957604051632fc6bfb160e21b81523360048201526024016108b5565b606d54831180610b5a5750606e5483105b15610b7857604051631b8454a360e21b815260040160405180910390fd5b600034905060003390506000879050610bce828a838a89898080601f0160208091040260200160405190810160405280939291908181526020018383808284376000920191909152508e92508b9150611fc19050565b6001600160a01b038082166000818152603760208181526040808420600181018054978a166001600160a01b0319988916811790915581548816871782558552603a835290842080549096168517909555929091529052610c308184866122a1565b826001600160a01b0316826001600160a01b03167ffc1f1e73948cbc47c5b7f90e5601b7daccd9ad7173218486ccc74bdd051d05e860405160405180910390a3505060016000555050505050505050565b610c8961234c565b80610c9381611e37565b6000610c9e83611ee7565b6001600160a01b0381166000908152603760205260409020909150610cc49033346122a1565b505050565b60006008610cd681610869565b6001600160a01b0384166000908152603760205260409020610cf8908461236f565b915033610d05818461240c565b610d5257604080518481524760208201526001600160a01b0380841692908816917f63701cd972aa3c7f87898aab145c972e52185beab07d6e39380a998d334cf6c8910160405180910390a35b505092915050565b60d154600390610100900460ff16158015610d7c575060d15460ff8083169116105b610d985760405162461bcd60e51b81526004016108b590613d1c565b60d1805461ffff191660ff831617610100179055610db7600f83612468565b60d1805461ff001916905560405160ff821681527f7f26b83ff96e1f2b6a682f133852f6798a09c465da95921460cefb3847402498906020015b60405180910390a15050565b60606000610e0b6008611899565b6001600160a01b031663060406186040518163ffffffff1660e01b8152600401602060405180830381865afa158015610e48573d6000803e3d6000fd5b505050506040513d601f19601f82011682018060405250810190610e6c9190613d6a565b9050826001600160401b03811115610e8657610e86613d83565b604051908082528060200260200182016040528015610eaf578160200160208202803683370190505b5091506000610ef0858580806020026020016040519081016040528093929190818152602001838360200280828437600092019190915250611cde92505050565b905060005b84811015610f56576000828281518110610f1157610f11613d99565b60200260200101519050610f30818986610f2b858d61250c565b61253b565b858381518110610f4257610f42613d99565b602090810291909101015250600101610ef5565b5050509392505050565b60606000610fa0848480806020026020016040519081016040528093929190818152602001838360200280828437600092019190915250611cde92505050565b9050610fab81612637565b9150505b92915050565b606061102485858080602002602001604051908101604052809392919081815260200183836020028082843760009201919091525050604080516020808902828101820190935288825290935088925087918291850190849080828437600092019190915250611d5a92505050565b95945050505050565b606061106b83838080602002602001604051908101604052809392919081815260200183836020028082843760009201919091525061263792505050565b9392505050565b6002600054036110945760405162461bcd60e51b81526004016108b590613ce5565b6002600090815533906110d69084906037906110af83611ee7565b6001600160a01b03166001600160a01b0316815260200190815260200160002083856126f7565b6110e0818361292c565b6110fd57604051635ff7115760e11b815260040160405180910390fd5b5050600160005550565b61110f612974565b61111982826129ce565b5050565b606061106b838380806020026020016040519081016040528093929190818152602001838360200280828437600092019190915250612a3b92505050565b61116361234c565b8061116d81611e37565b336000908152603a60205260409020546001600160a01b0316156111a657604051632fc6bfb160e21b81523360048201526024016108b5565b611119603760006111b685611ee7565b6001600160a01b03166001600160a01b031681526020019081526020016000203334612aee565b60d154600290610100900460ff161580156111ff575060d15460ff8083169116105b61121b5760405162461bcd60e51b81526004016108b590613d1c565b60d1805461ffff191660ff831617610100179055603654611247906008906001600160a01b0316612468565b603680546001600160a01b031916905560d1805461ff001916905560405160ff821681527f7f26b83ff96e1f2b6a682f133852f6798a09c465da95921460cefb3847402498906020015b60405180910390a150565b6112a4612974565b6108be81612b9d565b600082610fab81846112bd612bd2565b610f2b858861250c565b6002600054036112e95760405162461bcd60e51b81526004016108b590613ce5565b6002600055816112f881611e37565b33611331856037600061130a83611ee7565b6001600160a01b03166001600160a01b0316815260200190815260200160002083866126f7565b6113686037600061134187611ee7565b6001600160a01b03166001600160a01b031681526020019081526020016000208285612aee565b50506001600055505050565b60008061138084611ee7565b9050610fab818461250c565b611394612974565b61139d81612c44565b6111198282612468565b6113af612974565b6108be81612c7a565b6000806113c483611ee7565b905061106b816001600160a01b031660009081526037602052604090206003015490565b60606000611428848480806020026020016040519081016040528093929190818152602001838360200280828437600092019190915250611cde92505050565b9050610fab81612a3b565b8261143d81611e37565b6037600061144a86611ee7565b6001600160a01b03166001600160a01b03168152602001908152602001600020336114758282611f91565b606d548411806114865750606e5484105b156114a457604051631b8454a360e21b815260040160405180910390fd5b6114ae6008611899565b6001600160a01b031663e5125a1d6114c588611ee7565b6040516001600160e01b031960e084901b1681526001600160a01b0390911660048201526024810188905260448101879052606401600060405180830381600087803b15801561151457600080fd5b505af1158015611528573d6000803e3d6000fd5b50505050505050505050565b6002600054036115565760405162461bcd60e51b81526004016108b590613ce5565b60026000558215806115685750828114155b15611586576040516376081a7b60e11b815260040160405180910390fd5b60003390506000806115ca878780806020026020016040519081016040528093929190818152602001838360200280828437600092019190915250611cde92505050565b905060005b815181101561168d578585828181106115ea576115ea613d99565b90506020020135836115fc9190613dc5565b925061168588888381811061161357611613613d99565b905060200201602081019061162891906138c2565b6037600085858151811061163e5761163e613d99565b60200260200101516001600160a01b03166001600160a01b031681526020019081526020016000208689898681811061167957611679613d99565b905060200201356126f7565b6001016115cf565b50611698838361292c565b6116b557604051635ff7115760e11b815260040160405180910390fd5b505060016000555050505050565b6116cb612974565b6108be81612caf565b806116de81611e37565b603760006116eb84611ee7565b6001600160a01b03166001600160a01b03168152602001908152602001600020336117168282611f91565b6117206008611899565b6001600160a01b031663cdaa4e81610a8386611ee7565b600861174281610869565b611783868680806020026020016040519081016040528093929190818152602001838360200280828437600092019190915250889250879150869050612ce4565b505050505050565b6002600054036117ad5760405162461bcd60e51b81526004016108b590613ce5565b6002600055816117bc81611e37565b816000036117dd576040516331d9f7d760e01b815260040160405180910390fd5b3360006117e985611ee7565b6001600160a01b0381166000908152603760205260408120600281015492935091611815908790613dd8565b9050606c5481101561183a5760405163ef0a995760e01b815260040160405180910390fd5b611845828588613112565b61169884876104b06131fe565b60008060008061186185611ee7565b6001600160a01b0390811660009081526037602052604090206001810154600282015460039092015492169790965090945092505050565b60007fdea3103d22025c269050bea94c0c84688877f12fa22b7e6d2d5d78a9a49aa1cb600083600f8111156118d0576118d0613c84565b60ff1681526020810191909152604001600020546001600160a01b031690508061190f578160405163409140df60e11b81526004016108b59190613deb565b919050565b600861191f81610869565b8215611aa95760005b83811015611a6e57600085858381811061194457611944613d99565b905060200201602081019061195991906138c2565b6001600160a01b03808216600090815260376020908152604080832060018101549094168352603a909152902080546001600160a01b03191690556002810154919250908015611a1d576119ad828261236f565b5060018201546119c9906001600160a01b0316826104b06131fe565b611a1d5760018201548254604080518481524760208201526001600160a01b0393841693909216917f7dc5115a5aba081f5a174f56a3d02eea582824783322a4ac03f7bd388f444194910160405180910390a35b6001820154600090611a3a9085906001600160a01b03168961325e565b90508015611a5f576001830154611a5d906001600160a01b0316826104b06131fe565b505b84600101945050505050611928565b507f4f257d3ba23679d338f1d94296086bba5724af341b7fa31aa0ff297bfcdc62d88484604051611aa0929190613df9565b60405180910390a15b50505050565b600f611aba81610869565b506001600160a01b039182166000818152603760209081526040808320600101805487168452603a90925280832080546001600160a01b03199081169091558254959096169486168517909155928152919091208054909216179055565b6000806000611b52846001600160a01b03808216600090815260376020526040902060018101546002820154600390920154921693909250565b9250925092509193909250565b60d154610100900460ff1615808015611b7f575060d154600160ff909116105b80611b995750303b158015611b99575060d15460ff166001145b611bb55760405162461bcd60e51b81526004016108b590613d1c565b60d1805460ff191660011790558015611bd85760d1805461ff0019166101001790555b611be3600887612468565b611bec85612b9d565b611bf76000856129ce565b611c0083612c7a565b611c0982612caf565b80156117835760d1805461ff0019169055604051600181527f7f26b83ff96e1f2b6a682f133852f6798a09c465da95921460cefb38474024989060200160405180910390a1505050505050565b6000600260005403611c7a5760405162461bcd60e51b81526004016108b590613ce5565b6002600081905550611cc733611cc2858580806020026020016040519081016040528093929190818152602001838360200280828437600092019190915250611cde92505050565b613370565b9050611cd333826133c1565b600160005592915050565b6060611cea600f611899565b6001600160a01b031663f9226b1a836040518263ffffffff1660e01b8152600401611d159190613e47565b600060405180830381865afa158015611d32573d6000803e3d6000fd5b505050506040513d6000823e601f3d908101601f19168201604052610faf9190810190613ec4565b60608151835114611d7e576040516376081a7b60e11b815260040160405180910390fd5b82516001600160401b03811115611d9757611d97613d83565b604051908082528060200260200182016040528015611dc0578160200160208202803683370190505b50905060005b8151811015611e3057611e0b848281518110611de457611de4613d99565b6020026020010151848381518110611dfe57611dfe613d99565b602002602001015161250c565b828281518110611e1d57611e1d613d99565b6020908102919091010152600101611dc6565b5092915050565b611e416008611899565b604051635061f96960e11b81526001600160a01b038381166004830152919091169063a0c3f2d290602401602060405180830381865afa158015611e89573d6000803e3d6000fd5b505050506040513d601f19601f82011682018060405250810190611ead9190613f75565b6108be5780611ebb82611ee7565b604051631299fe7160e11b81526001600160a01b039283166004820152911660248201526044016108b5565b6000611ef3600f611899565b6040516350a9fc2960e01b81526001600160a01b03848116600483015291909116906350a9fc2990602401602060405180830381865afa158015611f3b573d6000803e3d6000fd5b505050506040513d601f19601f82011682018060405250810190610faf9190613f97565b6000611f6b8484613370565b6001600160a01b038316600090815260376020526040902090915061106b908583612aee565b60018201546001600160a01b0382811691161461111957604051637bc65bd760e11b815260040160405180910390fd5b611fcf8760006104b06131fe565b61201a576040805163338f030160e01b81526001600160a01b03891660048201526024810191909152600a6044820152693837b7b61030b236b4b760b11b60648201526084016108b5565b6120288460006104b06131fe565b612071576040805163338f030160e01b81526001600160a01b038616600482015260248101919091526008604482015267747265617375727960c01b60648201526084016108b5565b606c5481101561209457604051630a8d7fa760e21b815260040160405180910390fd5b856001600160a01b0316876001600160a01b03161415806120c75750836001600160a01b0316866001600160a01b031614155b156120e55760405163dc1d04ff60e01b815260040160405180910390fd5b6040805160038082526080820190925260009160208201606080368337019050509050878160008151811061211c5761211c613d99565b60200260200101906001600160a01b031690816001600160a01b031681525050858160018151811061215057612150613d99565b60200260200101906001600160a01b031690816001600160a01b031681525050612179816133f6565b156121a557604051630d697db160e11b81526001600160e01b03196000351660048201526024016108b5565b506121b06008611899565b60405163f883afaf60e01b81526001600160a01b0388811660048301528781166024830152868116604483015260648201859052919091169063f883afaf90608401600060405180830381600087803b15801561220c57600080fd5b505af1158015612220573d6000803e3d6000fd5b505050506000612230600f611899565b6040516307768f2160e51b81529091506001600160a01b0382169063eed1e42090612265908a908a908a908a90600401613fb4565b600060405180830381600087803b15801561227f57600080fd5b505af1158015612293573d6000803e3d6000fd5b505050505050505050505050565b82826122ad8282611f91565b828560020160008282546122c19190613dc5565b925050819055506122e7858587600201548689600301546122e29190613dc5565b613495565b6001600160a01b03808516600090815260058701602052604090819020429055865490519116907f9e71bc8eea02a63969f509818f2dafb9254532904319f9dbda79b67bd34a5f3d9061233d9086815260200190565b60405180910390a25050505050565b3460000361236d57604051636dfcbde560e11b815260040160405180910390fd5b565b600061237f8360020154836134d0565b9050808360020160008282546123959190613dd8565b90915550506001830154600284015460038501546123c59286926001600160a01b03909116916122e290866134e6565b82546040518281526001600160a01b03909116907f0f5bb82176feb1b5e747e28471aa92156a04d9f3ab9f45f28e2d704232b93f759060200160405180910390a292915050565b6000826001600160a01b03168260405160006040518083038185875af1925050503d8060008114612459576040519150601f19603f3d011682016040523d82523d6000602084013e61245e565b606091505b5090949350505050565b807fdea3103d22025c269050bea94c0c84688877f12fa22b7e6d2d5d78a9a49aa1cb600084600f81111561249e5761249e613c84565b60ff168152602081019190915260400160002080546001600160a01b0319166001600160a01b03928316179055811682600f8111156124df576124df613c84565b6040517f865d1c228a8ea13709cfe61f346f7ff67f1bbd4a18ff31ad3e7147350d317c5990600090a35050565b6001600160a01b0391821660009081526037602090815260408083209390941682526004909201909152205490565b6001600160a01b0380851660009081526002602090815260408083209387168352929052908120600381015484900361257657549050610944565b6001600160a01b0386166000908152600360208181526040808420600180845282862094870154865293909252832091820154839290156125db57805460018601549094506125c59085613dd8565b85600201546125d49190614027565b92506125e3565b846001015493505b81546000906125f3908690613dd8565b6125fd9089614027565b9050670de0b6b3a76400006126128286613dc5565b61261c919061403e565b86546126289190613dc5565b9b9a5050505050505050505050565b606081516001600160401b0381111561265257612652613d83565b60405190808252806020026020018201604052801561267b578160200160208202803683370190505b50905060005b82518110156126f157603760008483815181106126a0576126a0613d99565b60200260200101516001600160a01b03166001600160a01b03168152602001908152602001600020600201548282815181106126de576126de613d99565b6020908102919091010152600101612681565b50919050565b82826127038282613500565b8260000361272457604051637ab0c6ad60e11b815260040160405180910390fd5b6001600160a01b038416600090815260048601602052604090205483111561275f57604051630695534560e31b815260040160405180910390fd5b600061276b6008611899565b604051635061f96960e11b81526001600160a01b0389811660048301529192509082169063a0c3f2d290602401602060405180830381865afa1580156127b5573d6000803e3d6000fd5b505050506040513d601f19601f820116820180604052508101906127d99190613f75565b801561285057506040516328bde1e160e01b81526001600160a01b0388811660048301528216906328bde1e19060240160e060405180830381865afa158015612826573d6000803e3d6000fd5b505050506040513d601f19601f8201168201806040525081019061284a9190614060565b60a00151155b801561288357506038546001600160a01b0386166000908152600588016020526040902054429161288091613dc5565b10155b156128a15760405163f19f52bd60e01b815260040160405180910390fd5b6001600160a01b03851660009081526004870160205260409020546128df90879087906128cf908890613dd8565b878a600301546122e29190613dd8565b85546040518581526001600160a01b03918216918716907f4d10bd049775c77bd7f255195afba5088028ecb3c7c277d393ccff7934f2f92c9060200160405180910390a350505050505050565b60008147101561296a576040516302631c4f60e61b81526001600160e01b0319600035166004820152476024820152604481018390526064016108b5565b61106b838361240c565b7fb53127684a568b3173ae13b9f8a6016e243e63b6e8ee1178d6a717850b5d6103546001600160a01b0316331461236d576000356001600160e01b0319166001604051620f948f60ea1b81526004016108b5929190614107565b6127108111806129dd57508082115b156129fb57604051631b8454a360e21b815260040160405180910390fd5b606d819055606e82905560408051838152602081018390527f677752f5bf9541b14288833909e5ec5a478103131c1ec08c4638943be5826c149101610df1565b606081516001600160401b03811115612a5657612a56613d83565b604051908082528060200260200182016040528015612a7f578160200160208202803683370190505b50905060005b82518110156126f157612ac9838281518110612aa357612aa3613d99565b60200260200101516001600160a01b031660009081526037602052604090206003015490565b828281518110612adb57612adb613d99565b6020908102919091010152600101612a85565b8282612afa8282613500565b6001600160a01b0384166000908152600486016020526040902054612b389086908690612b28908790613dc5565b8689600301546122e29190613dc5565b6001600160a01b03808516600081815260058801602052604090819020429055875490519216917fe5541a6b6103d4fa7e021ed54fad39c66f27a76bd13d374cf6240ae6bd0bb72b90612b8e9087815260200190565b60405180910390a35050505050565b606c8190556040518181527f372bbdb8d72373b0012f84ee5a11671e5fb72b8bea902ebca93a19cb45d32be290602001611291565b6000612bde6008611899565b6001600160a01b031663060406186040518163ffffffff1660e01b8152600401602060405180830381865afa158015612c1b573d6000803e3d6000fd5b505050506040513d601f19601f82011682018060405250810190612c3f9190613d6a565b905090565b806001600160a01b03163b6000036108be57604051630bfc64a360e21b81526001600160a01b03821660048201526024016108b5565b60388190556040518181527f4956b65267b8f1e642284bcb5037116c69a9c78d9ca576beeae0974737a4872a90602001611291565b60398190556040518181527f02be0b73b597f2c0f138aebee162b3b0e25d5b5a26854c15dcf79176e9a1c67890602001611291565b83518214612d2d57807fae52c603227f64e4c6101dde593aa9790a16b3ac77546bd746d758511e9560a5858585604051612d209392919061416e565b60405180910390a2611aa9565b600080600080600088516001600160401b03811115612d4e57612d4e613d83565b604051908082528060200260200182016040528015612d77578160200160208202803683370190505b509050600089516001600160401b03811115612d9557612d95613d83565b604051908082528060200260200182016040528015612dbe578160200160208202803683370190505b50905060008a516001600160401b03811115612ddc57612ddc613d83565b604051908082528060200260200182016040528015612e05578160200160208202803683370190505b50905060005b8b51811015613078578b8181518110612e2657612e26613d99565b6020908102919091018101516001600160a01b038116600090815260038084526040808320603790955290912001549097506001600160a01b03881660009081526001602081815260408084208f855290915290912001549096508a9003612ec757868389806001019a5081518110612ea157612ea1613d99565b60200260200101906001600160a01b031690816001600160a01b03168152505050613066565b60028101548a1115612ef557604080518082019091528681526020018a905260018101869055600281018a90555b600181015415612f3f5760018101548c8c84818110612f1657612f16613d99565b90506020020135670de0b6b3a7640000612f309190614027565b612f3a919061403e565b612f42565b60005b985088816000016000828254612f589190613dc5565b9182905550905085612f6a8a85613dd8565b81518110612f7a57612f7a613d99565b6020026020010181815250506040518060400160405280826000015481526020018b81525060016000896001600160a01b03166001600160a01b0316815260200190815260200160002060008c81526020019081526020016000206000820151816000015560208201518160010155905050858160010160000181905550806001016000015484898461300d9190613dd8565b8151811061301d5761301d613d99565b6020908102919091010152868d6130348a85613dd8565b8151811061304457613044613d99565b60200260200101906001600160a01b031690816001600160a01b031681525050505b80613070816141b8565b915050612e0b565b5085156130c157858152858b51038b52877fee74f10cc50bf4b7e57fd36be7d46288795f3a9151dae97505b718b392ba14a3826040516130b891906141d1565b60405180910390a25b8a511561310557877f0e54e0485f70f0f63bc25889ddbf01ce1269ad6f07fdb2df573a0fbdb4d66f888c85856040516130fc939291906141e4565b60405180910390a25b5050505050505050505050565b828261311e8282611f91565b846002015483111561314357604051630a8d7fa760e21b815260040160405180910390fd5b6038546001600160a01b0385166000908152600587016020526040902054429161316c91613dc5565b111561318b576040516303db082960e11b815260040160405180910390fd5b8285600201600082825461319f9190613dd8565b925050819055506131c0858587600201548689600301546122e29190613dd8565b84546040518481526001600160a01b03909116907f0f5bb82176feb1b5e747e28471aa92156a04d9f3ab9f45f28e2d704232b93f759060200161233d565b6000836001600160a01b0316838390604051600060405180830381858888f193505050503d806000811461324e576040519150601f19603f3d011682016040523d82523d6000602084013e613253565b606091505b509095945050505050565b60008061326b858561250c565b90506132798585858461253b565b9150836001600160a01b0316856001600160a01b03167f0aa4d283470c904c551d18bb894d37e17674920f3261a7f854be501e25f421b7846040516132c091815260200190565b60405180910390a36001600160a01b0380861660008181526002602090815260408083209489168352938152838220828155928252600390529190912061330a9082868580613530565b60038181018590556001600160a01b03878116600081815260209384526040808220546001870155519081529188169290917faa7c29611027fd4be148712bb54960253b7a7d5998c17769bfc424c2f5f185ad910160405180910390a350509392505050565b60008061337b612bd2565b905060005b8351811015610d52576133ad84828151811061339e5761339e613d99565b6020026020010151868461325e565b6133b79084613dc5565b9250600101613380565b6133cb828261292c565b611119576040516303b97b7760e41b81526001600160e01b03196000351660048201526024016108b5565b6000815160000361340957506000919050565b60005b600183510381101561348c57600181015b83518110156134835783818151811061343857613438613d99565b60200260200101516001600160a01b031684838151811061345b5761345b613d99565b60200260200101516001600160a01b03160361347b575060019392505050565b60010161341d565b5060010161340c565b50600092915050565b83546134ab906001600160a01b031684846135c2565b60038401556001600160a01b0390911660009081526004909201602052604090912055565b60008183106134df578161106b565b5090919050565b60008183116134f657600061106b565b61106b8284613dd8565b60018201546001600160a01b0380831691160361111957604051639feb934760e01b815260040160405180910390fd5b828460030154101561354457600284018190555b60006135548560020154846134d0565b905060008186600201546135689190613dd8565b905080156135b95760028601829055600187015481111561359c576040516352e521bf60e11b815260040160405180910390fd5b808760010160000160008282546135b39190613dd8565b90915550505b50505050505050565b60006135cc612bd2565b6001600160a01b0385166000908152600360205260409020600181015460028201549293509091831115613640576040518060400160405280613627886001600160a01b031660009081526037602052604090206003015490565b8152602090810185905281516001850155015160028301555b6001600160a01b038087166000908152600260209081526040808320938916835292905290812090613672888861250c565b905060006136828989888561253b565b835490915081146136d4578083556040518181526001600160a01b0389811691908b16907faa7c29611027fd4be148712bb54960253b7a7d5998c17769bfc424c2f5f185ad9060200160405180910390a35b6136e18584888a86613530565b845460018085019190915560038401879055850154841461374857886001600160a01b0316867f81faf50e2aaf52eaba2ab841071efb9f6f0850a3e7d008b1336e6001d3d4963c876001016000015460405161373f91815260200190565b60405180910390a35b505050505050505050565b60008083601f84011261376557600080fd5b5081356001600160401b0381111561377c57600080fd5b6020830191508360208260051b850101111561379757600080fd5b9250929050565b600080600080604085870312156137b457600080fd5b84356001600160401b03808211156137cb57600080fd5b6137d788838901613753565b909650945060208701359150808211156137f057600080fd5b506137fd87828801613753565b95989497509550505050565b600081518084526020808501945080840160005b838110156138395781518752958201959082019060010161381d565b509495945050505050565b60208152600061106b6020830184613809565b6001600160a01b03811681146108be57600080fd5b60008060006040848603121561388157600080fd5b83356001600160401b0381111561389757600080fd5b6138a386828701613753565b90945092505060208401356138b781613857565b809150509250925092565b6000602082840312156138d457600080fd5b813561106b81613857565b60008060008060008060a087890312156138f857600080fd5b863561390381613857565b9550602087013561391381613857565b9450604087013561392381613857565b93506060870135925060808701356001600160401b038082111561394657600080fd5b818901915089601f83011261395a57600080fd5b81358181111561396957600080fd5b8a602082850101111561397b57600080fd5b6020830194508093505050509295509295509295565b600080604083850312156139a457600080fd5b82356139af81613857565b946020939093013593505050565b6000806000604084860312156139d257600080fd5b83356139dd81613857565b925060208401356001600160401b038111156139f857600080fd5b613a0486828701613753565b9497909650939450505050565b60008060208385031215613a2457600080fd5b82356001600160401b03811115613a3a57600080fd5b613a4685828601613753565b90969095509350505050565b60008060408385031215613a6557600080fd5b50508035926020909101359150565b600060208284031215613a8657600080fd5b5035919050565b60008060408385031215613aa057600080fd5b8235613aab81613857565b91506020830135613abb81613857565b809150509250929050565b600080600060608486031215613adb57600080fd5b8335613ae681613857565b92506020840135613af681613857565b929592945050506040919091013590565b80356010811061190f57600080fd5b60008060408385031215613b2957600080fd5b613aab83613b07565b600080600060608486031215613b4757600080fd5b8335613b5281613857565b95602085013595506040909401359392505050565b600080600080600060608688031215613b7f57600080fd5b85356001600160401b0380821115613b9657600080fd5b613ba289838a01613753565b90975095506020880135915080821115613bbb57600080fd5b50613bc888828901613753565b96999598509660400135949350505050565b600060208284031215613bec57600080fd5b61106b82613b07565b600080600060408486031215613c0a57600080fd5b83356001600160401b03811115613c2057600080fd5b613c2c86828701613753565b909790965060209590950135949350505050565b600080600080600060a08688031215613c5857600080fd5b8535613c6381613857565b97602087013597506040870135966060810135965060800135945092505050565b634e487b7160e01b600052602160045260246000fd5b60108110613caa57613caa613c84565b9052565b6001600160e01b03198416815260608101613ccc6020830185613c9a565b6001600160a01b03929092166040919091015292915050565b6020808252601f908201527f5265656e7472616e637947756172643a207265656e7472616e742063616c6c00604082015260600190565b6020808252602e908201527f496e697469616c697a61626c653a20636f6e747261637420697320616c72656160408201526d191e481a5b9a5d1a585b1a5e995960921b606082015260800190565b600060208284031215613d7c57600080fd5b5051919050565b634e487b7160e01b600052604160045260246000fd5b634e487b7160e01b600052603260045260246000fd5b634e487b7160e01b600052601160045260246000fd5b80820180821115610faf57610faf613daf565b81810381811115610faf57610faf613daf565b60208101610faf8284613c9a565b60208082528181018390526000908460408401835b86811015613e3c578235613e2181613857565b6001600160a01b031682529183019190830190600101613e0e565b509695505050505050565b6020808252825182820181905260009190848201906040850190845b81811015613e885783516001600160a01b031683529284019291840191600101613e63565b50909695505050505050565b604051601f8201601f191681016001600160401b0381118282101715613ebc57613ebc613d83565b604052919050565b60006020808385031215613ed757600080fd5b82516001600160401b0380821115613eee57600080fd5b818501915085601f830112613f0257600080fd5b815181811115613f1457613f14613d83565b8060051b9150613f25848301613e94565b8181529183018401918481019088841115613f3f57600080fd5b938501935b83851015613f695784519250613f5983613857565b8282529385019390850190613f44565b98975050505050505050565b600060208284031215613f8757600080fd5b8151801515811461106b57600080fd5b600060208284031215613fa957600080fd5b815161106b81613857565b600060018060a01b0380871683526020818716818501528186166040850152608060608501528451915081608085015260005b828110156140035785810182015185820160a001528101613fe7565b5050600060a0828501015260a0601f19601f83011684010191505095945050505050565b8082028115828204841417610faf57610faf613daf565b60008261405b57634e487b7160e01b600052601260045260246000fd5b500490565b600060e0828403121561407257600080fd5b60405160e081018181106001600160401b038211171561409457614094613d83565b60405282516140a281613857565b815260208301516140b281613857565b602082015260408301516140c581613857565b604082015260608301516140d881613857565b806060830152506080830151608082015260a083015160a082015260c083015160c08201528091505092915050565b6001600160e01b03198316815260408101600b831061412857614128613c84565b8260208301529392505050565b600081518084526020808501945080840160005b838110156138395781516001600160a01b031687529582019590820190600101614149565b6040815260006141816040830186614135565b82810360208401528381526001600160fb1b038411156141a057600080fd5b8360051b808660208401370160200195945050505050565b6000600182016141ca576141ca613daf565b5060010190565b60208152600061106b6020830184614135565b6060815260006141f76060830186614135565b82810360208401526142098186613809565b90508281036040840152610940818561380956fea264697066735822122090fdbda614b62a56948043c2abe8dea25a67ea1f784be48d20947d38199e602864736f6c63430008130033",
  "devdoc": {
    "errors": {
      "ErrAdminOfAnyActivePoolForbidden(address)": [
        {
          "details": "Error of admin of any active pool cannot delegate."
        }
      ],
      "ErrCannotInitTransferRON(address,string)": [
        {
          "details": "Error of cannot transfer RON to specified target."
        }
      ],
      "ErrCannotTransferRON()": [
        {
          "details": "Error of cannot transfer RON."
        }
      ],
      "ErrContractTypeNotFound(uint8)": [
        {
          "details": "Error of invalid role."
        }
      ],
      "ErrDuplicated(bytes4)": [
        {
          "details": "Error thrown when a duplicated element is detected in an array.",
          "params": {
            "msgSig": "The function signature that invoke the error."
          }
        }
      ],
      "ErrInactivePool(address,address)": [
        {
          "details": "Error of querying inactive pool."
        }
      ],
      "ErrInsufficientBalance(bytes4,uint256,uint256)": [
        {
          "details": "Error of sender has insufficient balance."
        }
      ],
      "ErrInsufficientDelegatingAmount()": [
        {
          "details": "Error of undelegating insufficient amount."
        }
      ],
      "ErrInsufficientStakingAmount()": [
        {
          "details": "Error of insufficient staking amount for unstaking."
        }
      ],
      "ErrInvalidArrays()": [
        {
          "details": "Error of length of input arrays are not of the same."
        }
      ],
      "ErrInvalidCommissionRate()": [
        {
          "details": "Error of setting commission rate exceeds max allowed."
        }
      ],
      "ErrInvalidPoolShare()": [
        {
          "details": "Error of invalid pool share."
        }
      ],
      "ErrOnlyPoolAdminAllowed()": [
        {
          "details": "Error of no one is allowed to call but the pool's admin."
        }
      ],
      "ErrPoolAdminForbidden()": [
        {
          "details": "Error of pool admin is not allowed to call."
        }
      ],
      "ErrRecipientRevert(bytes4)": [
        {
          "details": "Error of recipient not accepting RON when transfer RON."
        }
      ],
      "ErrStakingAmountLeft()": [
        {
          "details": "Error of invalid staking amount left after deducted."
        }
      ],
      "ErrThreeInteractionAddrsNotEqual()": [
        {
          "details": "Error of three interaction addresses must be of the same in applying for validator candidate."
        }
      ],
      "ErrUnauthorized(bytes4,uint8)": [
        {
          "details": "Error indicating that the caller is unauthorized to perform a specific function.",
          "params": {
            "expectedRole": "The role required to perform the function.",
            "msgSig": "The function signature (bytes4) that the caller is unauthorized to perform."
          }
        }
      ],
      "ErrUndelegateTooEarly()": [
        {
          "details": "Error of undelegating too early."
        }
      ],
      "ErrUndelegateZeroAmount()": [
        {
          "details": "Error of undelegating zero amount."
        }
      ],
      "ErrUnexpectedInternalCall(bytes4,uint8,address)": [
        {
          "details": "Error indicating that the caller is unauthorized to perform a specific function.",
          "params": {
            "actual": "The actual address that called to the function.",
            "expectedContractType": "The contract type required to perform the function.",
            "msgSig": "The function signature (bytes4)."
          }
        }
      ],
      "ErrUnstakeTooEarly()": [
        {
          "details": "Error of unstaking too early."
        }
      ],
      "ErrUnstakeZeroAmount()": [
        {
          "details": "Error of unstaking zero amount."
        }
      ],
      "ErrZeroCodeContract(address)": [
        {
          "details": "Error of set to non-contract."
        }
      ],
      "ErrZeroValue()": [
        {
          "details": "Error of receiving zero message value."
        }
      ]
    },
    "events": {
      "CommissionRateRangeUpdated(uint256,uint256)": {
        "details": "Emitted when the commission rate range is updated."
      },
      "ContractUpdated(uint8,address)": {
        "details": "Emitted when a contract is updated."
      },
      "CooldownSecsToUndelegateUpdated(uint256)": {
        "details": "Emitted when the minium number of seconds to undelegate is updated."
      },
      "Delegated(address,address,uint256)": {
        "details": "Emitted when the delegator staked for a validator candidate."
      },
      "Initialized(uint8)": {
        "details": "Triggered when the contract has been initialized or reinitialized."
      },
      "MinValidatorStakingAmountUpdated(uint256)": {
        "details": "Emitted when the minimum staking amount for being a validator is updated."
      },
      "PoolApproved(address,address)": {
        "details": "Emitted when the validator pool is approved."
      },
      "PoolSharesUpdated(uint256,address,uint256)": {
        "details": "Emitted when the pool shares are updated"
      },
      "PoolsDeprecated(address[])": {
        "details": "Emitted when the validator pool is deprecated."
      },
      "PoolsUpdateConflicted(uint256,address[])": {
        "details": "Emitted when the contract fails when updating the pools that already set"
      },
      "PoolsUpdateFailed(uint256,address[],uint256[])": {
        "details": "Emitted when the contract fails when updating the pools"
      },
      "PoolsUpdated(uint256,address[],uint256[],uint256[])": {
        "details": "Emitted when the pools are updated"
      },
      "RewardClaimed(address,address,uint256)": {
        "details": "Emitted when the user claimed their reward"
      },
      "Staked(address,uint256)": {
        "details": "Emitted when the pool admin staked for themself."
      },
      "StakingAmountDeductFailed(address,address,uint256,uint256)": {
        "details": "Emitted when the staking amount deducted failed, e.g. when the validator gets slashed."
      },
      "StakingAmountTransferFailed(address,address,uint256,uint256)": {
        "details": "Emitted when the staking amount transfer failed."
      },
      "Undelegated(address,address,uint256)": {
        "details": "Emitted when the delegator unstaked from a validator candidate."
      },
      "Unstaked(address,uint256)": {
        "details": "Emitted when the pool admin unstaked the amount of RON from themself."
      },
      "UserRewardUpdated(address,address,uint256)": {
        "details": "Emitted when the fields to calculate pending reward for the user is updated."
      },
      "WaitingSecsToRevokeUpdated(uint256)": {
        "details": "Emitted when the number of seconds that a candidate must wait to be revoked."
      }
    },
    "kind": "dev",
    "methods": {
      "applyValidatorCandidate(address,address,address,uint256,bytes)": {
        "details": "Proposes a candidate to become a validator. Requirements: - The method caller is able to receive RON. - The treasury is able to receive RON. - The amount is larger than or equal to the minimum validator staking amount `minValidatorStakingAmount()`. Emits the event `PoolApproved`.",
        "params": {
          "candidateAdmin": "the candidate admin will be stored in the validator contract, used for calling function that affects to its candidate, e.g. scheduling maintenance."
        }
      },
      "bulkUndelegate(address[],uint256[])": {
        "details": "Bulk unstakes from a list of candidates. Requirements: - The method caller is not the pool admin. Emits the events `Undelegated`."
      },
      "claimRewards(address[])": {
        "details": "Claims the reward of method caller. Emits the `RewardClaimed` event."
      },
      "cooldownSecsToUndelegate()": {
        "details": "Returns The cooldown time in seconds to undelegate from the last timestamp (s)he delegated."
      },
      "delegate(address)": {
        "details": "Stakes for a validator candidate `_consensusAddr`. Requirements: - The consensus address is a validator candidate. - The method caller is not the pool admin. Emits the `Delegated` event."
      },
      "delegateRewards(address[],address)": {
        "details": "Claims the rewards and delegates them to the consensus address. Requirements: - The method caller is not the pool admin. - The consensus address `_consensusAddrDst` is a validator candidate. Emits the `RewardClaimed` event and the `Delegated` event."
      },
      "execChangeAdminAddress(address,address)": {
        "details": "Requirements: - Only Profile contract can call this method."
      },
      "execDeductStakingAmount(address,uint256)": {
        "details": "Deducts from staking amount of the validator `_consensusAddr` for `_amount`. Requirements: - The method caller must be validator contract. Emits the event `Unstaked`."
      },
      "execDeprecatePools(address[],uint256)": {
        "details": "Deprecates the pool. - Deduct self-staking amount of the pool admin to zero. - Transfer the deducted amount to the pool admin. - Deactivate the pool admin address in the mapping of active pool admins Requirements: - The method caller is validator contract. Emits the event `PoolsDeprecated` and `Unstaked` events. Emits the event `StakingAmountTransferFailed` if the contract cannot transfer RON back to the pool admin."
      },
      "execRecordRewards(address[],uint256[],uint256)": {
        "details": "Records the amount of rewards `_rewards` for the pools `_consensusAddrs`. Requirements: - The method caller must be validator contract. Emits the event `PoolsUpdated` once the contract recorded the rewards successfully. Emits the event `PoolsUpdateFailed` once the input array lengths are not equal. Emits the event `PoolsUpdateConflicted` when there are some pools which already updated in the period. Note: This method should be called once at the period ending."
      },
      "getCommissionRateRange()": {
        "details": "Returns the commission rate range that the candidate can set."
      },
      "getContract(uint8)": {
        "details": "Returns the address of a contract with a specific role. Throws an error if no contract is set for the specified role.",
        "params": {
          "contractType": "The role of the contract to retrieve."
        },
        "returns": {
          "contract_": "The address of the contract with the specified role."
        }
      },
      "getManySelfStakings(address[])": {
        "details": "Returns the self-staking amounts of the pools."
      },
      "getManySelfStakingsById(address[])": {
        "details": "Returns the self-staking amounts of the pools."
      },
      "getManyStakingAmounts(address[],address[])": {
        "details": "Returns the staking amounts of the users."
      },
      "getManyStakingTotals(address[])": {
        "details": "Returns the total staking amounts of all users for the pools `_poolAddrs`."
      },
      "getPoolAddressOf(address)": {
        "details": "Returns the consensus address corresponding to the pool admin."
      },
      "getPoolDetail(address)": {
        "details": "Returns the staking pool details."
      },
      "getReward(address,address)": {
        "details": "Returns the reward amount that user claimable."
      },
      "getRewards(address,address[])": {
        "details": "Returns the claimable reward of the user `_user`."
      },
      "getStakingAmount(address,address)": {
        "details": "Returns the staking amount of an user."
      },
      "getStakingTotal(address)": {
        "details": "Returns the total staking amount of all users for a pool."
      },
      "initialize(address,uint256,uint256,uint256,uint256)": {
        "details": "Initializes the contract storage."
      },
      "initializeV2()": {
        "details": "Initializes the contract storage V2."
      },
      "initializeV3(address)": {
        "details": "Initializes the contract storage V3."
      },
      "isAdminOfActivePool(address)": {
        "details": "Returns whether the `admin` is currently active."
      },
      "minValidatorStakingAmount()": {
        "details": "Returns the minimum threshold for being a validator candidate."
      },
      "redelegate(address,address,uint256)": {
        "details": "Unstakes an amount of RON from the `_consensusAddrSrc` and stake for `_consensusAddrDst`. Requirements: - The method caller is not the pool admin. - The consensus address `_consensusAddrDst` is a validator candidate. Emits the `Undelegated` event and the `Delegated` event."
      },
      "requestEmergencyExit(address)": {
        "details": "Renounces being a validator candidate and takes back the delegating/staking amount. Requirements: - The consensus address is a validator candidate. - The method caller is the pool admin."
      },
      "requestRenounce(address)": {
        "details": "Renounces being a validator candidate and takes back the delegating/staking amount. Requirements: - The consensus address is a validator candidate. - The method caller is the pool admin."
      },
      "requestUpdateCommissionRate(address,uint256,uint256)": {
        "details": "Pool admin requests update validator commission rate. The request will be forwarded to the candidate manager contract, and the value is getting updated in {ICandidateManager-execRequestUpdateCommissionRate}. Requirements: - The consensus address is a validator candidate. - The method caller is the pool admin. - The `_effectiveDaysOnwards` must be equal to or larger than the {CandidateManager-_minEffectiveDaysOnwards}. - The `_rate` must be in range of [0_00; 100_00]. Emits the event `CommissionRateUpdated`."
      },
      "setCommissionRateRange(uint256,uint256)": {
        "details": "Sets the commission rate range that a candidate can set. Requirements: - The method caller is admin. Emits the `CommissionRateRangeUpdated` event."
      },
      "setContract(uint8,address)": {
        "details": "Sets the address of a contract with a specific role. Emits the event {ContractUpdated}.",
        "params": {
          "addr": "The address of the contract to set.",
          "contractType": "The role of the contract to set."
        }
      },
      "setCooldownSecsToUndelegate(uint256)": {
        "details": "Sets the cooldown time in seconds to undelegate from the last timestamp (s)he delegated. Requirements: - The method caller is admin. Emits the event `CooldownSecsToUndelegateUpdated`."
      },
      "setMinValidatorStakingAmount(uint256)": {
        "details": "Sets the minimum threshold for being a validator candidate. Requirements: - The method caller is admin. Emits the `MinValidatorStakingAmountUpdated` event."
      },
      "setWaitingSecsToRevoke(uint256)": {
        "details": "Sets the number of seconds that a candidate must wait to be revoked. Requirements: - The method caller is admin. Emits the event `WaitingSecsToRevokeUpdated`."
      },
      "stake(address)": {
        "details": "Self-delegates to the validator candidate `consensusAddr`. Requirements: - The consensus address is a validator candidate. - The method caller is the pool admin. - The `msg.value` is larger than 0. Emits the event `Staked`."
      },
      "undelegate(address,uint256)": {
        "details": "Unstakes from a validator candidate `_consensusAddr` for `_amount`. Requirements: - The method caller is not the pool admin. Emits the `Undelegated` event."
      },
      "unstake(address,uint256)": {
        "details": "Unstakes from the validator candidate `consensusAddr` for `amount`. Requirements: - The consensus address is a validator candidate. - The method caller is the pool admin. Emits the event `Unstaked`."
      },
      "waitingSecsToRevoke()": {
        "details": "Returns the number of seconds that a candidate must wait for the renounce request gets affected."
      }
    },
    "version": 1
  },
  "userdoc": {
    "kind": "user",
    "methods": {},
    "version": 1
  },
  "storageLayout": {
    "storage": [
      {
        "astId": 1387,
        "contract": "contracts/ronin/staking/Staking.sol:Staking",
        "label": "_status",
        "offset": 0,
        "slot": "0",
        "type": "t_uint256"
      },
      {
        "astId": 25671,
        "contract": "contracts/ronin/staking/Staking.sol:Staking",
        "label": "_accumulatedRps",
        "offset": 0,
        "slot": "1",
        "type": "t_mapping(t_address,t_mapping(t_uint256,t_struct(PeriodWrapper)7612_storage))"
      },
      {
        "astId": 25679,
        "contract": "contracts/ronin/staking/Staking.sol:Staking",
        "label": "_userReward",
        "offset": 0,
        "slot": "2",
        "type": "t_mapping(t_address,t_mapping(t_address,t_struct(UserRewardFields)8442_storage))"
      },
      {
        "astId": 25685,
        "contract": "contracts/ronin/staking/Staking.sol:Staking",
        "label": "_stakingPool",
        "offset": 0,
        "slot": "3",
        "type": "t_mapping(t_address,t_struct(PoolFields)8448_storage)"
      },
      {
        "astId": 25690,
        "contract": "contracts/ronin/staking/Staking.sol:Staking",
        "label": "______gap",
        "offset": 0,
        "slot": "4",
        "type": "t_array(t_uint256)50_storage"
      },
      {
        "astId": 31444,
        "contract": "contracts/ronin/staking/Staking.sol:Staking",
        "label": "______deprecatedValidator",
        "offset": 0,
        "slot": "54",
        "type": "t_address"
      },
      {
        "astId": 23480,
        "contract": "contracts/ronin/staking/Staking.sol:Staking",
        "label": "_poolDetail",
        "offset": 0,
        "slot": "55",
        "type": "t_mapping(t_address,t_struct(PoolDetail)8008_storage)"
      },
      {
        "astId": 23483,
        "contract": "contracts/ronin/staking/Staking.sol:Staking",
        "label": "_cooldownSecsToUndelegate",
        "offset": 0,
        "slot": "56",
        "type": "t_uint256"
      },
      {
        "astId": 23486,
        "contract": "contracts/ronin/staking/Staking.sol:Staking",
        "label": "_waitingSecsToRevoke",
        "offset": 0,
        "slot": "57",
        "type": "t_uint256"
      },
      {
        "astId": 23491,
        "contract": "contracts/ronin/staking/Staking.sol:Staking",
        "label": "_adminOfActivePoolMapping",
        "offset": 0,
        "slot": "58",
        "type": "t_mapping(t_address,t_address)"
      },
      {
        "astId": 23496,
        "contract": "contracts/ronin/staking/Staking.sol:Staking",
        "label": "______gap",
        "offset": 0,
        "slot": "59",
        "type": "t_array(t_uint256)49_storage"
      },
      {
        "astId": 24237,
        "contract": "contracts/ronin/staking/Staking.sol:Staking",
        "label": "_minValidatorStakingAmount",
        "offset": 0,
        "slot": "108",
        "type": "t_uint256"
      },
      {
        "astId": 24240,
        "contract": "contracts/ronin/staking/Staking.sol:Staking",
        "label": "_maxCommissionRate",
        "offset": 0,
        "slot": "109",
        "type": "t_uint256"
      },
      {
        "astId": 24243,
        "contract": "contracts/ronin/staking/Staking.sol:Staking",
        "label": "_minCommissionRate",
        "offset": 0,
        "slot": "110",
        "type": "t_uint256"
      },
      {
        "astId": 24248,
        "contract": "contracts/ronin/staking/Staking.sol:Staking",
        "label": "______gap",
        "offset": 0,
        "slot": "111",
        "type": "t_array(t_uint256)48_storage"
      },
      {
        "astId": 25069,
        "contract": "contracts/ronin/staking/Staking.sol:Staking",
        "label": "______gap",
        "offset": 0,
        "slot": "159",
        "type": "t_array(t_uint256)50_storage"
      },
      {
        "astId": 1124,
        "contract": "contracts/ronin/staking/Staking.sol:Staking",
        "label": "_initialized",
        "offset": 0,
        "slot": "209",
        "type": "t_uint8"
      },
      {
        "astId": 1127,
        "contract": "contracts/ronin/staking/Staking.sol:Staking",
        "label": "_initializing",
        "offset": 1,
        "slot": "209",
        "type": "t_bool"
      }
    ],
    "types": {
      "t_address": {
        "encoding": "inplace",
        "label": "address",
        "numberOfBytes": "20"
      },
      "t_array(t_uint256)48_storage": {
        "base": "t_uint256",
        "encoding": "inplace",
        "label": "uint256[48]",
        "numberOfBytes": "1536"
      },
      "t_array(t_uint256)49_storage": {
        "base": "t_uint256",
        "encoding": "inplace",
        "label": "uint256[49]",
        "numberOfBytes": "1568"
      },
      "t_array(t_uint256)50_storage": {
        "base": "t_uint256",
        "encoding": "inplace",
        "label": "uint256[50]",
        "numberOfBytes": "1600"
      },
      "t_bool": {
        "encoding": "inplace",
        "label": "bool",
        "numberOfBytes": "1"
      },
      "t_mapping(t_address,t_address)": {
        "encoding": "mapping",
        "key": "t_address",
        "label": "mapping(address => address)",
        "numberOfBytes": "32",
        "value": "t_address"
      },
      "t_mapping(t_address,t_mapping(t_address,t_struct(UserRewardFields)8442_storage))": {
        "encoding": "mapping",
        "key": "t_address",
        "label": "mapping(address => mapping(address => struct IRewardPool.UserRewardFields))",
        "numberOfBytes": "32",
        "value": "t_mapping(t_address,t_struct(UserRewardFields)8442_storage)"
      },
      "t_mapping(t_address,t_mapping(t_uint256,t_struct(PeriodWrapper)7612_storage))": {
        "encoding": "mapping",
        "key": "t_address",
        "label": "mapping(address => mapping(uint256 => struct PeriodWrapperConsumer.PeriodWrapper))",
        "numberOfBytes": "32",
        "value": "t_mapping(t_uint256,t_struct(PeriodWrapper)7612_storage)"
      },
      "t_mapping(t_address,t_struct(PoolDetail)8008_storage)": {
        "encoding": "mapping",
        "key": "t_address",
        "label": "mapping(address => struct IBaseStaking.PoolDetail)",
        "numberOfBytes": "32",
        "value": "t_struct(PoolDetail)8008_storage"
      },
      "t_mapping(t_address,t_struct(PoolFields)8448_storage)": {
        "encoding": "mapping",
        "key": "t_address",
        "label": "mapping(address => struct IRewardPool.PoolFields)",
        "numberOfBytes": "32",
        "value": "t_struct(PoolFields)8448_storage"
      },
      "t_mapping(t_address,t_struct(UserRewardFields)8442_storage)": {
        "encoding": "mapping",
        "key": "t_address",
        "label": "mapping(address => struct IRewardPool.UserRewardFields)",
        "numberOfBytes": "32",
        "value": "t_struct(UserRewardFields)8442_storage"
      },
      "t_mapping(t_address,t_uint256)": {
        "encoding": "mapping",
        "key": "t_address",
        "label": "mapping(address => uint256)",
        "numberOfBytes": "32",
        "value": "t_uint256"
      },
      "t_mapping(t_uint256,t_struct(PeriodWrapper)7612_storage)": {
        "encoding": "mapping",
        "key": "t_uint256",
        "label": "mapping(uint256 => struct PeriodWrapperConsumer.PeriodWrapper)",
        "numberOfBytes": "32",
        "value": "t_struct(PeriodWrapper)7612_storage"
      },
      "t_struct(PeriodWrapper)7612_storage": {
        "encoding": "inplace",
        "label": "struct PeriodWrapperConsumer.PeriodWrapper",
        "members": [
          {
            "astId": 7609,
            "contract": "contracts/ronin/staking/Staking.sol:Staking",
            "label": "inner",
            "offset": 0,
            "slot": "0",
            "type": "t_uint256"
          },
          {
            "astId": 7611,
            "contract": "contracts/ronin/staking/Staking.sol:Staking",
            "label": "lastPeriod",
            "offset": 0,
            "slot": "1",
            "type": "t_uint256"
          }
        ],
        "numberOfBytes": "64"
      },
      "t_struct(PoolDetail)8008_storage": {
        "encoding": "inplace",
        "label": "struct IBaseStaking.PoolDetail",
        "members": [
          {
            "astId": 7988,
            "contract": "contracts/ronin/staking/Staking.sol:Staking",
            "label": "pid",
            "offset": 0,
            "slot": "0",
            "type": "t_address"
          },
          {
            "astId": 7991,
            "contract": "contracts/ronin/staking/Staking.sol:Staking",
            "label": "__shadowedPoolAdmin",
            "offset": 0,
            "slot": "1",
            "type": "t_address"
          },
          {
            "astId": 7994,
            "contract": "contracts/ronin/staking/Staking.sol:Staking",
            "label": "stakingAmount",
            "offset": 0,
            "slot": "2",
            "type": "t_uint256"
          },
          {
            "astId": 7997,
            "contract": "contracts/ronin/staking/Staking.sol:Staking",
            "label": "stakingTotal",
            "offset": 0,
            "slot": "3",
            "type": "t_uint256"
          },
          {
            "astId": 8002,
            "contract": "contracts/ronin/staking/Staking.sol:Staking",
            "label": "delegatingAmount",
            "offset": 0,
            "slot": "4",
            "type": "t_mapping(t_address,t_uint256)"
          },
          {
            "astId": 8007,
            "contract": "contracts/ronin/staking/Staking.sol:Staking",
            "label": "lastDelegatingTimestamp",
            "offset": 0,
            "slot": "5",
            "type": "t_mapping(t_address,t_uint256)"
          }
        ],
        "numberOfBytes": "192"
      },
      "t_struct(PoolFields)8448_storage": {
        "encoding": "inplace",
        "label": "struct IRewardPool.PoolFields",
        "members": [
          {
            "astId": 8444,
            "contract": "contracts/ronin/staking/Staking.sol:Staking",
            "label": "aRps",
            "offset": 0,
            "slot": "0",
            "type": "t_uint256"
          },
          {
            "astId": 8447,
            "contract": "contracts/ronin/staking/Staking.sol:Staking",
            "label": "shares",
            "offset": 0,
            "slot": "1",
            "type": "t_struct(PeriodWrapper)7612_storage"
          }
        ],
        "numberOfBytes": "96"
      },
      "t_struct(UserRewardFields)8442_storage": {
        "encoding": "inplace",
        "label": "struct IRewardPool.UserRewardFields",
        "members": [
          {
            "astId": 8435,
            "contract": "contracts/ronin/staking/Staking.sol:Staking",
            "label": "debited",
            "offset": 0,
            "slot": "0",
            "type": "t_uint256"
          },
          {
            "astId": 8437,
            "contract": "contracts/ronin/staking/Staking.sol:Staking",
            "label": "aRps",
            "offset": 0,
            "slot": "1",
            "type": "t_uint256"
          },
          {
            "astId": 8439,
            "contract": "contracts/ronin/staking/Staking.sol:Staking",
            "label": "lowestAmount",
            "offset": 0,
            "slot": "2",
            "type": "t_uint256"
          },
          {
            "astId": 8441,
            "contract": "contracts/ronin/staking/Staking.sol:Staking",
            "label": "lastPeriod",
            "offset": 0,
            "slot": "3",
            "type": "t_uint256"
          }
        ],
        "numberOfBytes": "128"
      },
      "t_uint256": {
        "encoding": "inplace",
        "label": "uint256",
        "numberOfBytes": "32"
      },
      "t_uint8": {
        "encoding": "inplace",
        "label": "uint8",
        "numberOfBytes": "1"
      }
    }
  }
}