{
  "address": "0x851eC2f96867486EF6cc85BAcDc151fBE9055b55",
  "abi": [
    {
      "inputs": [],
      "stateMutability": "nonpayable",
      "type": "constructor"
    },
    {
      "inputs": [
        {
          "internalType": "address",
          "name": "admin",
          "type": "address"
        }
      ],
      "name": "ErrAdminOfAnyActivePoolForbidden",
      "type": "error"
    },
    {
      "inputs": [],
      "name": "ErrCallerMustBeValidatorContract",
      "type": "error"
    },
    {
      "inputs": [
        {
          "internalType": "address",
          "name": "addr",
          "type": "address"
        },
        {
          "internalType": "string",
          "name": "extraInfo",
          "type": "string"
        }
      ],
      "name": "ErrCannotInitTransferRON",
      "type": "error"
    },
    {
      "inputs": [],
      "name": "ErrCannotTransferRON",
      "type": "error"
    },
    {
      "inputs": [
        {
          "internalType": "address",
          "name": "poolAddr",
          "type": "address"
        }
      ],
      "name": "ErrInactivePool",
      "type": "error"
    },
    {
      "inputs": [],
      "name": "ErrInsufficientBalance",
      "type": "error"
    },
    {
      "inputs": [],
      "name": "ErrInsufficientDelegatingAmount",
      "type": "error"
    },
    {
      "inputs": [],
      "name": "ErrInsufficientStakingAmount",
      "type": "error"
    },
    {
      "inputs": [],
      "name": "ErrInvalidArrays",
      "type": "error"
    },
    {
      "inputs": [],
      "name": "ErrInvalidCommissionRate",
      "type": "error"
    },
    {
      "inputs": [],
      "name": "ErrInvalidPoolShare",
      "type": "error"
    },
    {
      "inputs": [],
      "name": "ErrOnlyPoolAdminAllowed",
      "type": "error"
    },
    {
      "inputs": [],
      "name": "ErrPoolAdminForbidden",
      "type": "error"
    },
    {
      "inputs": [],
      "name": "ErrRecipientRevert",
      "type": "error"
    },
    {
      "inputs": [],
      "name": "ErrStakingAmountLeft",
      "type": "error"
    },
    {
      "inputs": [],
      "name": "ErrThreeInteractionAddrsNotEqual",
      "type": "error"
    },
    {
      "inputs": [],
      "name": "ErrThreeOperationAddrsNotDistinct",
      "type": "error"
    },
    {
      "inputs": [],
      "name": "ErrUndelegateTooEarly",
      "type": "error"
    },
    {
      "inputs": [],
      "name": "ErrUndelegateZeroAmount",
      "type": "error"
    },
    {
      "inputs": [],
      "name": "ErrUnstakeTooEarly",
      "type": "error"
    },
    {
      "inputs": [],
      "name": "ErrUnstakeZeroAmount",
      "type": "error"
    },
    {
      "inputs": [],
      "name": "ErrZeroCodeContract",
      "type": "error"
    },
    {
      "inputs": [],
      "name": "ErrZeroValue",
      "type": "error"
    },
    {
      "anonymous": false,
      "inputs": [
        {
          "indexed": false,
          "internalType": "uint256",
          "name": "minSecs",
          "type": "uint256"
        }
      ],
      "name": "CooldownSecsToUndelegateUpdated",
      "type": "event"
    },
    {
      "anonymous": false,
      "inputs": [
        {
          "indexed": true,
          "internalType": "address",
          "name": "delegator",
          "type": "address"
        },
        {
          "indexed": true,
          "internalType": "address",
          "name": "consensuAddr",
          "type": "address"
        },
        {
          "indexed": false,
          "internalType": "uint256",
          "name": "amount",
          "type": "uint256"
        }
      ],
      "name": "Delegated",
      "type": "event"
    },
    {
      "anonymous": false,
      "inputs": [
        {
          "indexed": false,
          "internalType": "uint8",
          "name": "version",
          "type": "uint8"
        }
      ],
      "name": "Initialized",
      "type": "event"
    },
    {
      "anonymous": false,
      "inputs": [
        {
          "indexed": false,
          "internalType": "uint256",
          "name": "maxRate",
          "type": "uint256"
        }
      ],
      "name": "MaxCommissionRateUpdated",
      "type": "event"
    },
    {
      "anonymous": false,
      "inputs": [
        {
          "indexed": false,
          "internalType": "uint256",
          "name": "threshold",
          "type": "uint256"
        }
      ],
      "name": "MinValidatorStakingAmountUpdated",
      "type": "event"
    },
    {
      "anonymous": false,
      "inputs": [
        {
          "indexed": true,
          "internalType": "address",
          "name": "validator",
          "type": "address"
        },
        {
          "indexed": true,
          "internalType": "address",
          "name": "admin",
          "type": "address"
        }
      ],
      "name": "PoolApproved",
      "type": "event"
    },
    {
      "anonymous": false,
      "inputs": [
        {
          "indexed": true,
          "internalType": "uint256",
          "name": "period",
          "type": "uint256"
        },
        {
          "indexed": true,
          "internalType": "address",
          "name": "poolAddr",
          "type": "address"
        },
        {
          "indexed": false,
          "internalType": "uint256",
          "name": "shares",
          "type": "uint256"
        }
      ],
      "name": "PoolSharesUpdated",
      "type": "event"
    },
    {
      "anonymous": false,
      "inputs": [
        {
          "indexed": false,
          "internalType": "address[]",
          "name": "validator",
          "type": "address[]"
        }
      ],
      "name": "PoolsDeprecated",
      "type": "event"
    },
    {
      "anonymous": false,
      "inputs": [
        {
          "indexed": true,
          "internalType": "uint256",
          "name": "period",
          "type": "uint256"
        },
        {
          "indexed": false,
          "internalType": "address[]",
          "name": "poolAddrs",
          "type": "address[]"
        }
      ],
      "name": "PoolsUpdateConflicted",
      "type": "event"
    },
    {
      "anonymous": false,
      "inputs": [
        {
          "indexed": true,
          "internalType": "uint256",
          "name": "period",
          "type": "uint256"
        },
        {
          "indexed": false,
          "internalType": "address[]",
          "name": "poolAddrs",
          "type": "address[]"
        },
        {
          "indexed": false,
          "internalType": "uint256[]",
          "name": "rewards",
          "type": "uint256[]"
        }
      ],
      "name": "PoolsUpdateFailed",
      "type": "event"
    },
    {
      "anonymous": false,
      "inputs": [
        {
          "indexed": true,
          "internalType": "uint256",
          "name": "period",
          "type": "uint256"
        },
        {
          "indexed": false,
          "internalType": "address[]",
          "name": "poolAddrs",
          "type": "address[]"
        },
        {
          "indexed": false,
          "internalType": "uint256[]",
          "name": "aRps",
          "type": "uint256[]"
        },
        {
          "indexed": false,
          "internalType": "uint256[]",
          "name": "shares",
          "type": "uint256[]"
        }
      ],
      "name": "PoolsUpdated",
      "type": "event"
    },
    {
      "anonymous": false,
      "inputs": [
        {
          "indexed": true,
          "internalType": "address",
          "name": "poolAddr",
          "type": "address"
        },
        {
          "indexed": true,
          "internalType": "address",
          "name": "user",
          "type": "address"
        },
        {
          "indexed": false,
          "internalType": "uint256",
          "name": "amount",
          "type": "uint256"
        }
      ],
      "name": "RewardClaimed",
      "type": "event"
    },
    {
      "anonymous": false,
      "inputs": [
        {
          "indexed": true,
          "internalType": "address",
          "name": "consensuAddr",
          "type": "address"
        },
        {
          "indexed": false,
          "internalType": "uint256",
          "name": "amount",
          "type": "uint256"
        }
      ],
      "name": "Staked",
      "type": "event"
    },
    {
      "anonymous": false,
      "inputs": [
        {
          "indexed": true,
          "internalType": "address",
          "name": "validator",
          "type": "address"
        },
        {
          "indexed": true,
          "internalType": "address",
          "name": "recipient",
          "type": "address"
        },
        {
          "indexed": false,
          "internalType": "uint256",
          "name": "amount",
          "type": "uint256"
        },
        {
          "indexed": false,
          "internalType": "uint256",
          "name": "contractBalance",
          "type": "uint256"
        }
      ],
      "name": "StakingAmountDeductFailed",
      "type": "event"
    },
    {
      "anonymous": false,
      "inputs": [
        {
          "indexed": true,
          "internalType": "address",
          "name": "validator",
          "type": "address"
        },
        {
          "indexed": true,
          "internalType": "address",
          "name": "admin",
          "type": "address"
        },
        {
          "indexed": false,
          "internalType": "uint256",
          "name": "amount",
          "type": "uint256"
        },
        {
          "indexed": false,
          "internalType": "uint256",
          "name": "contractBalance",
          "type": "uint256"
        }
      ],
      "name": "StakingAmountTransferFailed",
      "type": "event"
    },
    {
      "anonymous": false,
      "inputs": [
        {
          "indexed": true,
          "internalType": "address",
          "name": "delegator",
          "type": "address"
        },
        {
          "indexed": true,
          "internalType": "address",
          "name": "consensuAddr",
          "type": "address"
        },
        {
          "indexed": false,
          "internalType": "uint256",
          "name": "amount",
          "type": "uint256"
        }
      ],
      "name": "Undelegated",
      "type": "event"
    },
    {
      "anonymous": false,
      "inputs": [
        {
          "indexed": true,
          "internalType": "address",
          "name": "consensuAddr",
          "type": "address"
        },
        {
          "indexed": false,
          "internalType": "uint256",
          "name": "amount",
          "type": "uint256"
        }
      ],
      "name": "Unstaked",
      "type": "event"
    },
    {
      "anonymous": false,
      "inputs": [
        {
          "indexed": true,
          "internalType": "address",
          "name": "poolAddr",
          "type": "address"
        },
        {
          "indexed": true,
          "internalType": "address",
          "name": "user",
          "type": "address"
        },
        {
          "indexed": false,
          "internalType": "uint256",
          "name": "debited",
          "type": "uint256"
        }
      ],
      "name": "UserRewardUpdated",
      "type": "event"
    },
    {
      "anonymous": false,
      "inputs": [
        {
          "indexed": false,
          "internalType": "address",
          "name": "",
          "type": "address"
        }
      ],
      "name": "ValidatorContractUpdated",
      "type": "event"
    },
    {
      "anonymous": false,
      "inputs": [
        {
          "indexed": false,
          "internalType": "uint256",
          "name": "secs",
          "type": "uint256"
        }
      ],
      "name": "WaitingSecsToRevokeUpdated",
      "type": "event"
    },
    {
      "stateMutability": "payable",
      "type": "fallback"
    },
    {
      "inputs": [
        {
          "internalType": "address",
          "name": "_candidateAdmin",
          "type": "address"
        },
        {
          "internalType": "address",
          "name": "_consensusAddr",
          "type": "address"
        },
        {
          "internalType": "address payable",
          "name": "_treasuryAddr",
          "type": "address"
        },
        {
          "internalType": "address",
          "name": "_bridgeOperatorAddr",
          "type": "address"
        },
        {
          "internalType": "uint256",
          "name": "_commissionRate",
          "type": "uint256"
        }
      ],
      "name": "applyValidatorCandidate",
      "outputs": [],
      "stateMutability": "payable",
      "type": "function"
    },
    {
      "inputs": [
        {
          "internalType": "address[]",
          "name": "_consensusAddrs",
          "type": "address[]"
        },
        {
          "internalType": "uint256[]",
          "name": "_amounts",
          "type": "uint256[]"
        }
      ],
      "name": "bulkUndelegate",
      "outputs": [],
      "stateMutability": "nonpayable",
      "type": "function"
    },
    {
      "inputs": [
        {
          "internalType": "address[]",
          "name": "_consensusAddrList",
          "type": "address[]"
        }
      ],
      "name": "claimRewards",
      "outputs": [
        {
          "internalType": "uint256",
          "name": "_amount",
          "type": "uint256"
        }
      ],
      "stateMutability": "nonpayable",
      "type": "function"
    },
    {
      "inputs": [],
      "name": "cooldownSecsToUndelegate",
      "outputs": [
        {
          "internalType": "uint256",
          "name": "",
          "type": "uint256"
        }
      ],
      "stateMutability": "view",
      "type": "function"
    },
    {
      "inputs": [
        {
          "internalType": "address",
          "name": "_consensusAddr",
          "type": "address"
        }
      ],
      "name": "delegate",
      "outputs": [],
      "stateMutability": "payable",
      "type": "function"
    },
    {
      "inputs": [
        {
          "internalType": "address[]",
          "name": "_consensusAddrList",
          "type": "address[]"
        },
        {
          "internalType": "address",
          "name": "_consensusAddrDst",
          "type": "address"
        }
      ],
      "name": "delegateRewards",
      "outputs": [
        {
          "internalType": "uint256",
          "name": "_amount",
          "type": "uint256"
        }
      ],
      "stateMutability": "nonpayable",
      "type": "function"
    },
    {
      "inputs": [
        {
          "internalType": "address",
          "name": "_consensusAddr",
          "type": "address"
        },
        {
          "internalType": "uint256",
          "name": "_amount",
          "type": "uint256"
        }
      ],
      "name": "execDeductStakingAmount",
      "outputs": [
        {
          "internalType": "uint256",
          "name": "_actualDeductingAmount",
          "type": "uint256"
        }
      ],
      "stateMutability": "nonpayable",
      "type": "function"
    },
    {
      "inputs": [
        {
          "internalType": "address[]",
          "name": "_pools",
          "type": "address[]"
        },
        {
          "internalType": "uint256",
          "name": "_newPeriod",
          "type": "uint256"
        }
      ],
      "name": "execDeprecatePools",
      "outputs": [],
      "stateMutability": "nonpayable",
      "type": "function"
    },
    {
      "inputs": [
        {
          "internalType": "address[]",
          "name": "_consensusAddrs",
          "type": "address[]"
        },
        {
          "internalType": "uint256[]",
          "name": "_rewards",
          "type": "uint256[]"
        },
        {
          "internalType": "uint256",
          "name": "_period",
          "type": "uint256"
        }
      ],
      "name": "execRecordRewards",
      "outputs": [],
      "stateMutability": "payable",
      "type": "function"
    },
    {
      "inputs": [
        {
          "internalType": "address[]",
          "name": "_pools",
          "type": "address[]"
        }
      ],
      "name": "getManySelfStakings",
      "outputs": [
        {
          "internalType": "uint256[]",
          "name": "_selfStakings",
          "type": "uint256[]"
        }
      ],
      "stateMutability": "view",
      "type": "function"
    },
    {
      "inputs": [
        {
          "internalType": "address[]",
          "name": "_poolAddrs",
          "type": "address[]"
        },
        {
          "internalType": "address[]",
          "name": "_userList",
          "type": "address[]"
        }
      ],
      "name": "getManyStakingAmounts",
      "outputs": [
        {
          "internalType": "uint256[]",
          "name": "_stakingAmounts",
          "type": "uint256[]"
        }
      ],
      "stateMutability": "view",
      "type": "function"
    },
    {
      "inputs": [
        {
          "internalType": "address[]",
          "name": "_poolList",
          "type": "address[]"
        }
      ],
      "name": "getManyStakingTotals",
      "outputs": [
        {
          "internalType": "uint256[]",
          "name": "_stakingAmounts",
          "type": "uint256[]"
        }
      ],
      "stateMutability": "view",
      "type": "function"
    },
    {
      "inputs": [
        {
          "internalType": "address",
          "name": "_poolAdminAddr",
          "type": "address"
        }
      ],
      "name": "getPoolAddressOf",
      "outputs": [
        {
          "internalType": "address",
          "name": "",
          "type": "address"
        }
      ],
      "stateMutability": "view",
      "type": "function"
    },
    {
      "inputs": [
        {
          "internalType": "address",
          "name": "_poolAddr",
          "type": "address"
        }
      ],
      "name": "getPoolDetail",
      "outputs": [
        {
          "internalType": "address",
          "name": "_admin",
          "type": "address"
        },
        {
          "internalType": "uint256",
          "name": "_stakingAmount",
          "type": "uint256"
        },
        {
          "internalType": "uint256",
          "name": "_stakingTotal",
          "type": "uint256"
        }
      ],
      "stateMutability": "view",
      "type": "function"
    },
    {
      "inputs": [
        {
          "internalType": "address",
          "name": "_poolAddr",
          "type": "address"
        },
        {
          "internalType": "address",
          "name": "_user",
          "type": "address"
        }
      ],
      "name": "getReward",
      "outputs": [
        {
          "internalType": "uint256",
          "name": "",
          "type": "uint256"
        }
      ],
      "stateMutability": "view",
      "type": "function"
    },
    {
      "inputs": [
        {
          "internalType": "address",
          "name": "_user",
          "type": "address"
        },
        {
          "internalType": "address[]",
          "name": "_poolAddrList",
          "type": "address[]"
        }
      ],
      "name": "getRewards",
      "outputs": [
        {
          "internalType": "uint256[]",
          "name": "_rewards",
          "type": "uint256[]"
        }
      ],
      "stateMutability": "view",
      "type": "function"
    },
    {
      "inputs": [
        {
          "internalType": "address",
          "name": "_poolAddr",
          "type": "address"
        },
        {
          "internalType": "address",
          "name": "_user",
          "type": "address"
        }
      ],
      "name": "getStakingAmount",
      "outputs": [
        {
          "internalType": "uint256",
          "name": "",
          "type": "uint256"
        }
      ],
      "stateMutability": "view",
      "type": "function"
    },
    {
      "inputs": [
        {
          "internalType": "address",
          "name": "_poolAddr",
          "type": "address"
        }
      ],
      "name": "getStakingTotal",
      "outputs": [
        {
          "internalType": "uint256",
          "name": "",
          "type": "uint256"
        }
      ],
      "stateMutability": "view",
      "type": "function"
    },
    {
      "inputs": [
        {
          "internalType": "address",
          "name": "__validatorContract",
          "type": "address"
        },
        {
          "internalType": "uint256",
          "name": "__minValidatorStakingAmount",
          "type": "uint256"
        },
        {
          "internalType": "uint256",
          "name": "__maxCommissionRate",
          "type": "uint256"
        },
        {
          "internalType": "uint256",
          "name": "__cooldownSecsToUndelegate",
          "type": "uint256"
        },
        {
          "internalType": "uint256",
          "name": "__waitingSecsToRevoke",
          "type": "uint256"
        }
      ],
      "name": "initialize",
      "outputs": [],
      "stateMutability": "nonpayable",
      "type": "function"
    },
    {
      "inputs": [
        {
          "internalType": "address",
          "name": "_poolAdminAddr",
          "type": "address"
        }
      ],
      "name": "isAdminOfActivePool",
      "outputs": [
        {
          "internalType": "bool",
          "name": "",
          "type": "bool"
        }
      ],
      "stateMutability": "view",
      "type": "function"
    },
    {
      "inputs": [],
      "name": "maxCommissionRate",
      "outputs": [
        {
          "internalType": "uint256",
          "name": "",
          "type": "uint256"
        }
      ],
      "stateMutability": "view",
      "type": "function"
    },
    {
      "inputs": [],
      "name": "minValidatorStakingAmount",
      "outputs": [
        {
          "internalType": "uint256",
          "name": "",
          "type": "uint256"
        }
      ],
      "stateMutability": "view",
      "type": "function"
    },
    {
      "inputs": [
        {
          "internalType": "address",
          "name": "_consensusAddrSrc",
          "type": "address"
        },
        {
          "internalType": "address",
          "name": "_consensusAddrDst",
          "type": "address"
        },
        {
          "internalType": "uint256",
          "name": "_amount",
          "type": "uint256"
        }
      ],
      "name": "redelegate",
      "outputs": [],
      "stateMutability": "nonpayable",
      "type": "function"
    },
    {
      "inputs": [
        {
          "internalType": "address",
          "name": "_consensusAddr",
          "type": "address"
        }
      ],
      "name": "requestEmergencyExit",
      "outputs": [],
      "stateMutability": "nonpayable",
      "type": "function"
    },
    {
      "inputs": [
        {
          "internalType": "address",
          "name": "_consensusAddr",
          "type": "address"
        }
      ],
      "name": "requestRenounce",
      "outputs": [],
      "stateMutability": "nonpayable",
      "type": "function"
    },
    {
      "inputs": [
        {
          "internalType": "address",
          "name": "_consensusAddr",
          "type": "address"
        },
        {
          "internalType": "uint256",
          "name": "_effectiveDaysOnwards",
          "type": "uint256"
        },
        {
          "internalType": "uint256",
          "name": "_commissionRate",
          "type": "uint256"
        }
      ],
      "name": "requestUpdateCommissionRate",
      "outputs": [],
      "stateMutability": "nonpayable",
      "type": "function"
    },
    {
      "inputs": [
        {
          "internalType": "uint256",
          "name": "_cooldownSecs",
          "type": "uint256"
        }
      ],
      "name": "setCooldownSecsToUndelegate",
      "outputs": [],
      "stateMutability": "nonpayable",
      "type": "function"
    },
    {
      "inputs": [
        {
          "internalType": "uint256",
          "name": "_maxRate",
          "type": "uint256"
        }
      ],
      "name": "setMaxCommissionRate",
      "outputs": [],
      "stateMutability": "nonpayable",
      "type": "function"
    },
    {
      "inputs": [
        {
          "internalType": "uint256",
          "name": "_threshold",
          "type": "uint256"
        }
      ],
      "name": "setMinValidatorStakingAmount",
      "outputs": [],
      "stateMutability": "nonpayable",
      "type": "function"
    },
    {
      "inputs": [
        {
          "internalType": "address",
          "name": "_addr",
          "type": "address"
        }
      ],
      "name": "setValidatorContract",
      "outputs": [],
      "stateMutability": "nonpayable",
      "type": "function"
    },
    {
      "inputs": [
        {
          "internalType": "uint256",
          "name": "_secs",
          "type": "uint256"
        }
      ],
      "name": "setWaitingSecsToRevoke",
      "outputs": [],
      "stateMutability": "nonpayable",
      "type": "function"
    },
    {
      "inputs": [
        {
          "internalType": "address",
          "name": "_consensusAddr",
          "type": "address"
        }
      ],
      "name": "stake",
      "outputs": [],
      "stateMutability": "payable",
      "type": "function"
    },
    {
      "inputs": [
        {
          "internalType": "address",
          "name": "_consensusAddr",
          "type": "address"
        },
        {
          "internalType": "uint256",
          "name": "_amount",
          "type": "uint256"
        }
      ],
      "name": "undelegate",
      "outputs": [],
      "stateMutability": "nonpayable",
      "type": "function"
    },
    {
      "inputs": [
        {
          "internalType": "address",
          "name": "_consensusAddr",
          "type": "address"
        },
        {
          "internalType": "uint256",
          "name": "_amount",
          "type": "uint256"
        }
      ],
      "name": "unstake",
      "outputs": [],
      "stateMutability": "nonpayable",
      "type": "function"
    },
    {
      "inputs": [],
      "name": "validatorContract",
      "outputs": [
        {
          "internalType": "address",
          "name": "",
          "type": "address"
        }
      ],
      "stateMutability": "view",
      "type": "function"
    },
    {
      "inputs": [],
      "name": "waitingSecsToRevoke",
      "outputs": [
        {
          "internalType": "uint256",
          "name": "",
          "type": "uint256"
        }
      ],
      "stateMutability": "view",
      "type": "function"
    },
    {
      "stateMutability": "payable",
      "type": "receive"
    }
  ],
  "transactionHash": "0x5ccbeb37b1b66c23a0b7c0fee2e790d0888fc5a51b5fffd6693515c322acfde2",
  "args": [],
  "numDeployments": 9,
  "solcInputHash": "496d5ba113d6511f02e611e47b8a6065",
  "bytecode": "0x60806040523480156200001157600080fd5b5060016000556200002162000027565b620000e9565b60d154610100900460ff1615620000945760405162461bcd60e51b815260206004820152602760248201527f496e697469616c697a61626c653a20636f6e747261637420697320696e697469604482015266616c697a696e6760c81b606482015260840160405180910390fd5b60d15460ff9081161015620000e75760d1805460ff191660ff9081179091556040519081527f7f26b83ff96e1f2b6a682f133852f6798a09c465da95921460cefb38474024989060200160405180910390a15b565b613a4f80620000f96000396000f3fe6080604052600436106102135760003560e01c806391f8723f11610118578063c2a672e0116100a0578063d01b8eed1161006f578063d01b8eed1461067f578063e22d1c9d146106f0578063e5376f5414610710578063f92ad21914610723578063f9f031df1461074357610254565b8063c2a672e0146105f1578063c508700314610611578063c673316c1461064a578063cdf64a761461065f57610254565b806399439089116100e75780639943908914610557578063aa15a6fd14610589578063acd79c46146105a9578063af245429146105bc578063b78b5e41146105d157610254565b806391f8723f146104d7578063924f081e146104f75780639488e4e914610517578063969ffc141461053757610254565b80634d99dd161161019b5780636bd8f8041161016a5780636bd8f8041461042957806376664b6514610449578063888b9ae914610469578063895ab74214610489578063909791dd146104c257610254565b80634d99dd16146103b65780635c19a95c146103d6578063679a6e43146103e95780636b0916951461040957610254565b806326476204116101e257806326476204146102f85780632715805e1461030b5780633d8e846e1461032b57806342e0c4081461034b57806342ef3c341461039657610254565b80630682e8fa14610267578063095f64751461028b578063097e4a9d146102b85780631658c86e146102d857610254565b36610254573361022b6036546001600160a01b031690565b6001600160a01b03161461025257604051630e6444a160e31b815260040160405180910390fd5b005b3361022b6036546001600160a01b031690565b34801561027357600080fd5b506038545b6040519081526020015b60405180910390f35b34801561029757600080fd5b506102ab6102a636600461334d565b610763565b60405161028291906133f3565b3480156102c457600080fd5b506102786102d336600461341b565b6108a5565b3480156102e457600080fd5b506102526102f3366004613471565b6109c0565b610252610306366004613471565b610b08565b34801561031757600080fd5b50610278610326366004613495565b610be6565b34801561033757600080fd5b506102ab6103463660046134c1565b610cbd565b34801561035757600080fd5b50610386610366366004613471565b6001600160a01b039081166000908152603a602052604090205416151590565b6040519015158152602001610282565b3480156103a257600080fd5b506102ab6103b1366004613515565b610e01565b3480156103c257600080fd5b506102526103d1366004613495565b610ed0565b6102526103e4366004613471565b610f4c565b3480156103f557600080fd5b50610252610404366004613556565b61105f565b34801561041557600080fd5b5061027861042436600461356f565b6110a3565b34801561043557600080fd5b506102526104443660046135a8565b6110c5565b34801561045557600080fd5b5061027861046436600461356f565b6111d6565b34801561047557600080fd5b50610252610484366004613556565b611205565b34801561049557600080fd5b506102786104a4366004613471565b6001600160a01b031660009081526037602052604090206003015490565b3480156104ce57600080fd5b50606c54610278565b3480156104e357600080fd5b506102ab6104f2366004613515565b611246565b34801561050357600080fd5b506102526105123660046135e9565b6112f0565b34801561052357600080fd5b5061025261053236600461334d565b611460565b34801561054357600080fd5b50610252610552366004613556565b611599565b34801561056357600080fd5b506036546001600160a01b03165b6040516001600160a01b039091168152602001610282565b34801561059557600080fd5b506102526105a4366004613471565b6115da565b6102526105b736600461361e565b6116ee565b3480156105c857600080fd5b50603954610278565b3480156105dd57600080fd5b506102526105ec366004613556565b611770565b3480156105fd57600080fd5b5061025261060c366004613495565b6117b1565b34801561061d57600080fd5b5061057161062c366004613471565b6001600160a01b039081166000908152603a60205260409020541690565b34801561065657600080fd5b50606d54610278565b34801561066b57600080fd5b5061025261067a366004613471565b6118f7565b34801561068b57600080fd5b506106cb61069a366004613471565b6001600160a01b03808216600090815260376020526040902060018101546002820154600390920154921693909250565b604080516001600160a01b039094168452602084019290925290820152606001610282565b3480156106fc57600080fd5b5061025261070b366004613691565b611963565b61025261071e3660046136dc565b611b5d565b34801561072f57600080fd5b5061025261073e366004613740565b611ca1565b34801561074f57600080fd5b5061027861075e366004613515565b611ddc565b6060838214610785576040516376081a7b60e11b815260040160405180910390fd5b836001600160401b0381111561079d5761079d613784565b6040519080825280602002602001820160405280156107c6578160200160208202803683370190505b50905060005b815181101561089c57603760008787848181106107eb576107eb61379a565b90506020020160208101906108009190613471565b6001600160a01b03166001600160a01b0316815260200190815260200160002060040160008585848181106108375761083761379a565b905060200201602081019061084c9190613471565b6001600160a01b03166001600160a01b031681526020019081526020016000205482828151811061087f5761087f61379a565b602090810291909101015280610894816137c6565b9150506107cc565b50949350505050565b60006002600054036108d25760405162461bcd60e51b81526004016108c9906137df565b60405180910390fd5b6002600055603654604051635061f96960e11b81526001600160a01b0380851660048301528492169063a0c3f2d290602401602060405180830381865afa158015610921573d6000803e3d6000fd5b505050506040513d601f19601f820116820180604052508101906109459190613816565b61096d57604051630fd0c64560e11b81526001600160a01b03821660048201526024016108c9565b336000908152603a60205260409020546001600160a01b0316156109a657604051632fc6bfb160e21b81523360048201526024016108c9565b6109b233868686611e5c565b600160005595945050505050565b603654604051635061f96960e11b81526001600160a01b0380841660048301528392169063a0c3f2d290602401602060405180830381865afa158015610a0a573d6000803e3d6000fd5b505050506040513d601f19601f82011682018060405250810190610a2e9190613816565b610a5657604051630fd0c64560e11b81526001600160a01b03821660048201526024016108c9565b6001600160a01b038083166000908152603760205260409020600181015490913391168114610a9857604051637bc65bd760e11b815260040160405180910390fd5b60365460395460405163dd716ad360e01b81526001600160a01b038781166004830152602482019290925291169063dd716ad3906044015b600060405180830381600087803b158015610aea57600080fd5b505af1158015610afe573d6000803e3d6000fd5b5050505050505050565b34600003610b2957604051636dfcbde560e11b815260040160405180910390fd5b603654604051635061f96960e11b81526001600160a01b0380841660048301528392169063a0c3f2d290602401602060405180830381865afa158015610b73573d6000803e3d6000fd5b505050506040513d601f19601f82011682018060405250810190610b979190613816565b610bbf57604051630fd0c64560e11b81526001600160a01b03821660048201526024016108c9565b6001600160a01b0382166000908152603760205260409020610be2903334611ec9565b5050565b600033610bfb6036546001600160a01b031690565b6001600160a01b031614610c2257604051630e6444a160e31b815260040160405180910390fd5b6001600160a01b0383166000908152603760205260409020610c449083611f9c565b90506000610c5a6036546001600160a01b031690565b9050610c698183610dac61203a565b610cb657604080518381524760208201526001600160a01b0380841692908716917f63701cd972aa3c7f87898aab145c972e52185beab07d6e39380a998d334cf6c8910160405180910390a35b5092915050565b6060600080603660009054906101000a90046001600160a01b03166001600160a01b031663060406186040518163ffffffff1660e01b8152600401602060405180830381865afa158015610d15573d6000803e3d6000fd5b505050506040513d601f19601f82011682018060405250810190610d399190613838565b9050836001600160401b03811115610d5357610d53613784565b604051908082528060200260200182016040528015610d7c578160200160208202803683370190505b50925060005b84811015610df757858582818110610d9c57610d9c61379a565b9050602002016020810190610db19190613471565b9250610dc8838884610dc3878c6111d6565b61209a565b848281518110610dda57610dda61379a565b602090810291909101015280610def816137c6565b915050610d82565b5050509392505050565b6060816001600160401b03811115610e1b57610e1b613784565b604051908082528060200260200182016040528015610e44578160200160208202803683370190505b50905060005b82811015610cb65760376000858584818110610e6857610e6861379a565b9050602002016020810190610e7d9190613471565b6001600160a01b03166001600160a01b0316815260200190815260200160002060020154828281518110610eb357610eb361379a565b602090810291909101015280610ec8816137c6565b915050610e4a565b600260005403610ef25760405162461bcd60e51b81526004016108c9906137df565b600260009081556001600160a01b03831681526037602052604090203390610f1b908284612196565b610f2581836122f7565b610f4257604051635ff7115760e11b815260040160405180910390fd5b5050600160005550565b34600003610f6d57604051636dfcbde560e11b815260040160405180910390fd5b603654604051635061f96960e11b81526001600160a01b0380841660048301528392169063a0c3f2d290602401602060405180830381865afa158015610fb7573d6000803e3d6000fd5b505050506040513d601f19601f82011682018060405250810190610fdb9190613816565b61100357604051630fd0c64560e11b81526001600160a01b03821660048201526024016108c9565b336000908152603a60205260409020546001600160a01b03161561103c57604051632fc6bfb160e21b81523360048201526024016108c9565b6001600160a01b0382166000908152603760205260409020610be2903334612324565b6110676123ec565b6001600160a01b0316336001600160a01b0316146110975760405162461bcd60e51b81526004016108c990613851565b6110a08161241a565b50565b60006110bc83836110b2612456565b610dc387876111d6565b90505b92915050565b6002600054036110e75760405162461bcd60e51b81526004016108c9906137df565b6002600055603654604051635061f96960e11b81526001600160a01b0380851660048301528492169063a0c3f2d290602401602060405180830381865afa158015611136573d6000803e3d6000fd5b505050506040513d601f19601f8201168201806040525081019061115a9190613816565b61118257604051630fd0c64560e11b81526001600160a01b03821660048201526024016108c9565b6001600160a01b038416600090815260376020526040902033906111a7908285612196565b6001600160a01b03841660009081526037602052604090206111ca908285612324565b50506001600055505050565b6001600160a01b0391821660009081526037602090815260408083209390941682526004909201909152205490565b61120d6123ec565b6001600160a01b0316336001600160a01b03161461123d5760405162461bcd60e51b81526004016108c990613851565b6110a0816124c8565b6060816001600160401b0381111561126057611260613784565b604051908082528060200260200182016040528015611289578160200160208202803683370190505b50905060005b82811015610cb6576112c18484838181106112ac576112ac61379a565b90506020020160208101906104a49190613471565b8282815181106112d3576112d361379a565b6020908102919091010152806112e8816137c6565b91505061128f565b603654604051635061f96960e11b81526001600160a01b0380861660048301528592169063a0c3f2d290602401602060405180830381865afa15801561133a573d6000803e3d6000fd5b505050506040513d601f19601f8201168201806040525081019061135e9190613816565b61138657604051630fd0c64560e11b81526001600160a01b03821660048201526024016108c9565b6001600160a01b0380851660009081526037602052604090206001810154909133911681146113c857604051637bc65bd760e11b815260040160405180910390fd5b606d548411156113eb57604051631b8454a360e21b815260040160405180910390fd5b60365460405163e5125a1d60e01b81526001600160a01b03888116600483015260248201889052604482018790529091169063e5125a1d90606401600060405180830381600087803b15801561144057600080fd5b505af1158015611454573d6000803e3d6000fd5b50505050505050505050565b6002600054036114825760405162461bcd60e51b81526004016108c9906137df565b60026000558215806114945750828114155b156114b2576040516376081a7b60e11b815260040160405180910390fd5b336000805b85811015611564578484828181106114d1576114d161379a565b90506020020135826114e39190613893565b9150611552603760008989858181106114fe576114fe61379a565b90506020020160208101906115139190613471565b6001600160a01b03166001600160a01b03168152602001908152602001600020848787858181106115465761154661379a565b90506020020135612196565b8061155c816137c6565b9150506114b7565b5061156f82826122f7565b61158c57604051635ff7115760e11b815260040160405180910390fd5b5050600160005550505050565b6115a16123ec565b6001600160a01b0316336001600160a01b0316146115d15760405162461bcd60e51b81526004016108c990613851565b6110a0816124fd565b603654604051635061f96960e11b81526001600160a01b0380841660048301528392169063a0c3f2d290602401602060405180830381865afa158015611624573d6000803e3d6000fd5b505050506040513d601f19601f820116820180604052508101906116489190613816565b61167057604051630fd0c64560e11b81526001600160a01b03821660048201526024016108c9565b6001600160a01b0380831660009081526037602052604090206001810154909133911681146116b257604051637bc65bd760e11b815260040160405180910390fd5b60365460395460405163a7c2f11960e01b81526001600160a01b038781166004830152602482019290925291169063a7c2f11990604401610ad0565b336117016036546001600160a01b031690565b6001600160a01b03161461172857604051630e6444a160e31b815260040160405180910390fd5b611769858580806020026020016040519081016040528093929190818152602001838360200280828437600092019190915250879250869150859050612532565b5050505050565b6117786123ec565b6001600160a01b0316336001600160a01b0316146117a85760405162461bcd60e51b81526004016108c990613851565b6110a081612966565b6002600054036117d35760405162461bcd60e51b81526004016108c9906137df565b6002600055603654604051635061f96960e11b81526001600160a01b0380851660048301528492169063a0c3f2d290602401602060405180830381865afa158015611822573d6000803e3d6000fd5b505050506040513d601f19601f820116820180604052508101906118469190613816565b61186e57604051630fd0c64560e11b81526001600160a01b03821660048201526024016108c9565b8160000361188f576040516331d9f7d760e01b815260040160405180910390fd5b6001600160a01b038316600090815260376020526040812060028101543392906118ba9086906138a6565b9050606c548110156118df5760405163ef0a995760e01b815260040160405180910390fd5b6118ea8284876129be565b61156f8386610dac61203a565b6118ff6123ec565b6001600160a01b0316336001600160a01b03161461192f5760405162461bcd60e51b81526004016108c990613851565b806001600160a01b03163b60000361195a57604051637bcd509160e01b815260040160405180910390fd5b6110a081612ad2565b336119766036546001600160a01b031690565b6001600160a01b03161461199d57604051630e6444a160e31b815260040160405180910390fd5b8115611b585760005b82811015611b1d576000603760008686858181106119c6576119c661379a565b90506020020160208101906119db9190613471565b6001600160a01b0390811682526020808301939093526040918201600090812060018101549092168152603a909352912080546001600160a01b031916905560028101549091508015611aa257611a328282611f9c565b506001820154611a4e906001600160a01b031682610dac61203a565b611aa25760018201548254604080518481524760208201526001600160a01b0393841693909216917f7dc5115a5aba081f5a174f56a3d02eea582824783322a4ac03f7bd388f444194910160405180910390a35b6000611ae2878786818110611ab957611ab961379a565b9050602002016020810190611ace9190613471565b60018501546001600160a01b031687612b20565b90508015611b07576001830154611b05906001600160a01b031682610dac61203a565b505b5050508080611b15906137c6565b9150506119a6565b507f4f257d3ba23679d338f1d94296086bba5724af341b7fa31aa0ff297bfcdc62d88383604051611b4f9291906138b9565b60405180910390a15b505050565b600260005403611b7f5760405162461bcd60e51b81526004016108c9906137df565b60026000908155338152603a60205260409020546001600160a01b031615611bbc57604051632fc6bfb160e21b81523360048201526024016108c9565b606d54811115611bdf57604051631b8454a360e21b815260040160405180910390fd5b3433611bf081888888888888612c32565b6001600160a01b0380871660008181526037602081815260408084206001810180549789166001600160a01b0319988916811790915581548816871782558552603a835290842080549096168517909555929091529052611c52818385611ec9565b816001600160a01b0316876001600160a01b03167ffc1f1e73948cbc47c5b7f90e5601b7daccd9ad7173218486ccc74bdd051d05e860405160405180910390a350506001600055505050505050565b60d154610100900460ff1615808015611cc1575060d154600160ff909116105b80611cdb5750303b158015611cdb575060d15460ff166001145b611d3e5760405162461bcd60e51b815260206004820152602e60248201527f496e697469616c697a61626c653a20636f6e747261637420697320616c72656160448201526d191e481a5b9a5d1a585b1a5e995960921b60648201526084016108c9565b60d1805460ff191660011790558015611d615760d1805461ff0019166101001790555b611d6a86612ad2565b611d738561241a565b611d7c84612966565b611d85836124c8565b611d8e826124fd565b8015611dd45760d1805461ff0019169055604051600181527f7f26b83ff96e1f2b6a682f133852f6798a09c465da95921460cefb38474024989060200160405180910390a15b505050505050565b6000600260005403611e005760405162461bcd60e51b81526004016108c9906137df565b6002600081905550611e4533848480806020026020016040519081016040528093929190818152602001838360200280828437600092019190915250612ee192505050565b9050611e513382612f44565b600160005592915050565b6000611e9b85858580806020026020016040519081016040528093929190818152602001838360200280828437600092019190915250612ee192505050565b6001600160a01b0383166000908152603760205260409020909150611ec1908683612324565b949350505050565b6001830154839083906001600160a01b03808316911614611efd57604051637bc65bd760e11b815260040160405180910390fd5b82856002016000828254611f119190613893565b92505081905550611f3785858760020154868960030154611f329190613893565b612f6b565b6001600160a01b03808516600090815260058701602052604090819020429055865490519116907f9e71bc8eea02a63969f509818f2dafb9254532904319f9dbda79b67bd34a5f3d90611f8d9086815260200190565b60405180910390a25050505050565b6000611fac836002015483612fa6565b905080836002016000828254611fc291906138a6565b9091555050600183015460028401546003850154611ff39286926001600160a01b0390911691611f329086906138a6565b82546040518281526001600160a01b03909116907f0f5bb82176feb1b5e747e28471aa92156a04d9f3ab9f45f28e2d704232b93f759060200160405180910390a292915050565b6000836001600160a01b0316838390604051600060405180830381858888f193505050503d806000811461208a576040519150601f19603f3d011682016040523d82523d6000602084013e61208f565b606091505b509095945050505050565b6001600160a01b038085166000908152600260209081526040808320938716835292905290812060038101548490036120d557549050611ec1565b6001600160a01b03861660009081526003602081815260408084206001808452828620948701548652939092528320918201548392901561213a578054600186015490945061212490856138a6565b85600201546121339190613907565b9250612142565b846001015493505b81546000906121529086906138a6565b61215c9089613907565b9050670de0b6b3a76400006121718286613893565b61217b919061391e565b86546121879190613893565b9b9a5050505050505050505050565b6001830154839083906001600160a01b038083169116036121ca57604051639feb934760e01b815260040160405180910390fd5b826000036121eb57604051637ab0c6ad60e11b815260040160405180910390fd5b6001600160a01b038416600090815260048601602052604090205483111561222657604051630695534560e31b815260040160405180910390fd5b6038546001600160a01b0385166000908152600587016020526040902054429161224f91613893565b1061226d5760405163f19f52bd60e01b815260040160405180910390fd5b6001600160a01b03841660009081526004860160205260409020546122ab908690869061229b9087906138a6565b868960030154611f3291906138a6565b84546040518481526001600160a01b03918216918616907f4d10bd049775c77bd7f255195afba5088028ecb3c7c277d393ccff7934f2f92c906020015b60405180910390a35050505050565b60008147101561231a576040516304611a4560e11b815260040160405180910390fd5b6110bc8383612fbc565b6001830154839083906001600160a01b0380831691160361235857604051639feb934760e01b815260040160405180910390fd5b6001600160a01b03841660009081526004860160205260409020546123969086908690612386908790613893565b868960030154611f329190613893565b6001600160a01b03808516600081815260058801602052604090819020429055875490519216917fe5541a6b6103d4fa7e021ed54fad39c66f27a76bd13d374cf6240ae6bd0bb72b906122e89087815260200190565b7fb53127684a568b3173ae13b9f8a6016e243e63b6e8ee1178d6a717850b5d6103546001600160a01b031690565b606c8190556040518181527f372bbdb8d72373b0012f84ee5a11671e5fb72b8bea902ebca93a19cb45d32be2906020015b60405180910390a150565b6036546040805162c080c360e31b815290516000926001600160a01b03169163060406189160048083019260209291908290030181865afa15801561249f573d6000803e3d6000fd5b505050506040513d601f19601f820116820180604052508101906124c39190613838565b905090565b60388190556040518181527f4956b65267b8f1e642284bcb5037116c69a9c78d9ca576beeae0974737a4872a9060200161244b565b60398190556040518181527f02be0b73b597f2c0f138aebee162b3b0e25d5b5a26854c15dcf79176e9a1c6789060200161244b565b8351821461257b57807fae52c603227f64e4c6101dde593aa9790a16b3ac77546bd746d758511e9560a585858560405161256e93929190613979565b60405180910390a2612960565b600080600080600088516001600160401b0381111561259c5761259c613784565b6040519080825280602002602001820160405280156125c5578160200160208202803683370190505b509050600089516001600160401b038111156125e3576125e3613784565b60405190808252806020026020018201604052801561260c578160200160208202803683370190505b50905060008a516001600160401b0381111561262a5761262a613784565b604051908082528060200260200182016040528015612653578160200160208202803683370190505b50905060005b8b518110156128cb578b81815181106126745761267461379a565b6020908102919091018101516001600160a01b038116600090815260038084526040808320603790955290912001549097506001600160a01b03881660009081526001602081815260408084208f855290915290912001549096508a900361271a578683896126e2816137c6565b9a50815181106126f4576126f461379a565b60200260200101906001600160a01b031690816001600160a01b031681525050506128b9565b60028101548a111561274857604080518082019091528681526020018a905260018101869055600281018a90555b6001810154156127925760018101548c8c848181106127695761276961379a565b90506020020135670de0b6b3a76400006127839190613907565b61278d919061391e565b612795565b60005b9850888160000160008282546127ab9190613893565b91829055509050856127bd8a856138a6565b815181106127cd576127cd61379a565b6020026020010181815250506040518060400160405280826000015481526020018b81525060016000896001600160a01b03166001600160a01b0316815260200190815260200160002060008c81526020019081526020016000206000820151816000015560208201518160010155905050858160010160000181905550806001016000015484898461286091906138a6565b815181106128705761287061379a565b6020908102919091010152868d6128878a856138a6565b815181106128975761289761379a565b60200260200101906001600160a01b031690816001600160a01b031681525050505b806128c3816137c6565b915050612659565b50851561291457858152858b51038b52877fee74f10cc50bf4b7e57fd36be7d46288795f3a9151dae97505b718b392ba14a38260405161290b91906139c3565b60405180910390a25b8a511561295857877f0e54e0485f70f0f63bc25889ddbf01ce1269ad6f07fdb2df573a0fbdb4d66f888c858560405161294f939291906139d6565b60405180910390a25b505050505050505b50505050565b61271081111561298957604051631b8454a360e21b815260040160405180910390fd5b606d8190556040518181527f774069781371d65424b3b0b101c1d40014532cac040f979595b99a3fcf8ce08c9060200161244b565b6001830154839083906001600160a01b038083169116146129f257604051637bc65bd760e11b815260040160405180910390fd5b8460020154831115612a1757604051630a8d7fa760e21b815260040160405180910390fd5b6038546001600160a01b03851660009081526005870160205260409020544291612a4091613893565b1115612a5f576040516303db082960e11b815260040160405180910390fd5b82856002016000828254612a7391906138a6565b92505081905550612a9485858760020154868960030154611f3291906138a6565b84546040518481526001600160a01b03909116907f0f5bb82176feb1b5e747e28471aa92156a04d9f3ab9f45f28e2d704232b93f7590602001611f8d565b603680546001600160a01b0319166001600160a01b0383169081179091556040519081527fef40dc07567635f84f5edbd2f8dbc16b40d9d282dd8e7e6f4ff58236b68361699060200161244b565b600080612b2d85856111d6565b9050612b3b8585858461209a565b9150836001600160a01b0316856001600160a01b03167f0aa4d283470c904c551d18bb894d37e17674920f3261a7f854be501e25f421b784604051612b8291815260200190565b60405180910390a36001600160a01b03808616600081815260026020908152604080832094891683529381528382208281559282526003905291909120612bcc9082868580613018565b60038181018590556001600160a01b03878116600081815260209384526040808220546001870155519081529188169290917faa7c29611027fd4be148712bb54960253b7a7d5998c17769bfc424c2f5f185ad910160405180910390a350509392505050565b612c3d876000612fbc565b612c88576040805163338f030160e01b81526001600160a01b03891660048201526024810191909152600a6044820152693837b7b61030b236b4b760b11b60648201526084016108c9565b612c93846000612fbc565b612cdc576040805163338f030160e01b81526001600160a01b038616600482015260248101919091526008604482015267747265617375727960c01b60648201526084016108c9565b606c54811015612cff57604051630a8d7fa760e21b815260040160405180910390fd5b606d54821115612d2257604051631b8454a360e21b815260040160405180910390fd5b856001600160a01b0316876001600160a01b0316141580612d555750836001600160a01b0316866001600160a01b031614155b15612d735760405163dc1d04ff60e01b815260040160405180910390fd5b60408051600380825260808201909252600091602082016060803683370190505090508781600081518110612daa57612daa61379a565b60200260200101906001600160a01b031690816001600160a01b0316815250508581600181518110612dde57612dde61379a565b60200260200101906001600160a01b031690816001600160a01b0316815250508381600281518110612e1257612e1261379a565b60200260200101906001600160a01b031690816001600160a01b031681525050612e3b816130aa565b15612e59576040516329d55f9360e11b815260040160405180910390fd5b6036546040516302209ca560e31b81526001600160a01b0389811660048301528881166024830152878116604483015286811660648301526084820186905290911690631104e5289060a401600060405180830381600087803b158015612ebf57600080fd5b505af1158015612ed3573d6000803e3d6000fd5b505050505050505050505050565b600080612eec612456565b905060005b8351811015612f3c57612f1e848281518110612f0f57612f0f61379a565b60200260200101518684612b20565b612f289084613893565b925080612f34816137c6565b915050612ef1565b505092915050565b612f4e82826122f7565b610be257604051630c3e69bb60e11b815260040160405180910390fd5b8354612f81906001600160a01b03168484613171565b60038401556001600160a01b0390911660009081526004909201602052604090912055565b6000818310612fb557816110bc565b5090919050565b6000826001600160a01b03168260405160006040518083038185875af1925050503d8060008114613009576040519150601f19603f3d011682016040523d82523d6000602084013e61300e565b606091505b5090949350505050565b828460030154101561302c57600284018190555b600061303c856002015484612fa6565b9050600081866002015461305091906138a6565b905080156130a157600286018290556001870154811115613084576040516352e521bf60e11b815260040160405180910390fd5b8087600101600001600082825461309b91906138a6565b90915550505b50505050505050565b600081516000036130bd57506000919050565b60005b600183516130ce91906138a6565b8110156131685760006130e2826001613893565b90505b8351811015613155578381815181106131005761310061379a565b60200260200101516001600160a01b03168483815181106131235761312361379a565b60200260200101516001600160a01b031603613143575060019392505050565b8061314d816137c6565b9150506130e5565b5080613160816137c6565b9150506130c0565b50600092915050565b600061317b612456565b6001600160a01b03851660009081526003602052604090206001810154600282015492935090918311156131ef5760405180604001604052806131d6886001600160a01b031660009081526037602052604090206003015490565b8152602090810185905281516001850155015160028301555b6001600160a01b03808716600090815260026020908152604080832093891683529290529081209061322188886111d6565b905060006132318989888561209a565b83549091508114613283578083556040518181526001600160a01b0389811691908b16907faa7c29611027fd4be148712bb54960253b7a7d5998c17769bfc424c2f5f185ad9060200160405180910390a35b6132908584888a86613018565b84546001808501919091556003840187905585015484146132f757886001600160a01b0316867f81faf50e2aaf52eaba2ab841071efb9f6f0850a3e7d008b1336e6001d3d4963c87600101600001546040516132ee91815260200190565b60405180910390a35b505050505050505050565b60008083601f84011261331457600080fd5b5081356001600160401b0381111561332b57600080fd5b6020830191508360208260051b850101111561334657600080fd5b9250929050565b6000806000806040858703121561336357600080fd5b84356001600160401b038082111561337a57600080fd5b61338688838901613302565b9096509450602087013591508082111561339f57600080fd5b506133ac87828801613302565b95989497509550505050565b600081518084526020808501945080840160005b838110156133e8578151875295820195908201906001016133cc565b509495945050505050565b6020815260006110bc60208301846133b8565b6001600160a01b03811681146110a057600080fd5b60008060006040848603121561343057600080fd5b83356001600160401b0381111561344657600080fd5b61345286828701613302565b909450925050602084013561346681613406565b809150509250925092565b60006020828403121561348357600080fd5b813561348e81613406565b9392505050565b600080604083850312156134a857600080fd5b82356134b381613406565b946020939093013593505050565b6000806000604084860312156134d657600080fd5b83356134e181613406565b925060208401356001600160401b038111156134fc57600080fd5b61350886828701613302565b9497909650939450505050565b6000806020838503121561352857600080fd5b82356001600160401b0381111561353e57600080fd5b61354a85828601613302565b90969095509350505050565b60006020828403121561356857600080fd5b5035919050565b6000806040838503121561358257600080fd5b823561358d81613406565b9150602083013561359d81613406565b809150509250929050565b6000806000606084860312156135bd57600080fd5b83356135c881613406565b925060208401356135d881613406565b929592945050506040919091013590565b6000806000606084860312156135fe57600080fd5b833561360981613406565b95602085013595506040909401359392505050565b60008060008060006060868803121561363657600080fd5b85356001600160401b038082111561364d57600080fd5b61365989838a01613302565b9097509550602088013591508082111561367257600080fd5b5061367f88828901613302565b96999598509660400135949350505050565b6000806000604084860312156136a657600080fd5b83356001600160401b038111156136bc57600080fd5b6136c886828701613302565b909790965060209590950135949350505050565b600080600080600060a086880312156136f457600080fd5b85356136ff81613406565b9450602086013561370f81613406565b9350604086013561371f81613406565b9250606086013561372f81613406565b949793965091946080013592915050565b600080600080600060a0868803121561375857600080fd5b853561376381613406565b97602087013597506040870135966060810135965060800135945092505050565b634e487b7160e01b600052604160045260246000fd5b634e487b7160e01b600052603260045260246000fd5b634e487b7160e01b600052601160045260246000fd5b6000600182016137d8576137d86137b0565b5060010190565b6020808252601f908201527f5265656e7472616e637947756172643a207265656e7472616e742063616c6c00604082015260600190565b60006020828403121561382857600080fd5b8151801515811461348e57600080fd5b60006020828403121561384a57600080fd5b5051919050565b60208082526022908201527f48617350726f787941646d696e3a20756e617574686f72697a65642073656e6460408201526132b960f11b606082015260800190565b808201808211156110bf576110bf6137b0565b818103818111156110bf576110bf6137b0565b60208082528181018390526000908460408401835b868110156138fc5782356138e181613406565b6001600160a01b0316825291830191908301906001016138ce565b509695505050505050565b80820281158282048414176110bf576110bf6137b0565b60008261393b57634e487b7160e01b600052601260045260246000fd5b500490565b600081518084526020808501945080840160005b838110156133e85781516001600160a01b031687529582019590820190600101613954565b60408152600061398c6040830186613940565b82810360208401528381526001600160fb1b038411156139ab57600080fd5b8360051b808660208401370160200195945050505050565b6020815260006110bc6020830184613940565b6060815260006139e96060830186613940565b82810360208401526139fb81866133b8565b90508281036040840152613a0f81856133b8565b969550505050505056fea2646970667358221220839f85d23f0ab1f03cccdeafa2f98f931424069923da73144e66990297f8743064736f6c63430008110033",
  "devdoc": {
    "errors": {
      "ErrAdminOfAnyActivePoolForbidden(address)": [
        {
          "details": "Error of admin of any active pool cannot delegate."
        }
      ],
      "ErrCallerMustBeValidatorContract()": [
        {
          "details": "Error of method caller must be validator contract."
        }
      ],
      "ErrCannotInitTransferRON(address,string)": [
        {
          "details": "Error of cannot transfer RON to specified target."
        }
      ],
      "ErrCannotTransferRON()": [
        {
          "details": "Error of cannot transfer RON."
        }
      ],
      "ErrInactivePool(address)": [
        {
          "details": "Error of querying inactive pool."
        }
      ],
      "ErrInsufficientBalance()": [
        {
          "details": "Error of sender has insufficient balance."
        }
      ],
      "ErrInsufficientDelegatingAmount()": [
        {
          "details": "Error of undelegating insufficient amount."
        }
      ],
      "ErrInsufficientStakingAmount()": [
        {
          "details": "Error of insufficient staking amount for unstaking."
        }
      ],
      "ErrInvalidArrays()": [
        {
          "details": "Error of length of input arrays are not of the same."
        }
      ],
      "ErrInvalidCommissionRate()": [
        {
          "details": "Error of setting commission rate exceeds max allowed."
        }
      ],
      "ErrInvalidPoolShare()": [
        {
          "details": "Error of invalid pool share."
        }
      ],
      "ErrOnlyPoolAdminAllowed()": [
        {
          "details": "Error of no one is allowed to call but the pool's admin."
        }
      ],
      "ErrPoolAdminForbidden()": [
        {
          "details": "Error of pool admin is not allowed to call."
        }
      ],
      "ErrRecipientRevert()": [
        {
          "details": "Error of recipient not accepting RON when transfer RON."
        }
      ],
      "ErrStakingAmountLeft()": [
        {
          "details": "Error of invalid staking amount left after deducted."
        }
      ],
      "ErrThreeInteractionAddrsNotEqual()": [
        {
          "details": "Error of three interaction addresses must be of the same in applying for validator candidate."
        }
      ],
      "ErrThreeOperationAddrsNotDistinct()": [
        {
          "details": "Error of three operation addresses must be distinct in applying for validator candidate."
        }
      ],
      "ErrUndelegateTooEarly()": [
        {
          "details": "Error of undelegating too early."
        }
      ],
      "ErrUndelegateZeroAmount()": [
        {
          "details": "Error of undelegating zero amount."
        }
      ],
      "ErrUnstakeTooEarly()": [
        {
          "details": "Error of unstaking too early."
        }
      ],
      "ErrUnstakeZeroAmount()": [
        {
          "details": "Error of unstaking zero amount."
        }
      ],
      "ErrZeroCodeContract()": [
        {
          "details": "Error of set to non-contract."
        }
      ],
      "ErrZeroValue()": [
        {
          "details": "Error of receiving zero message value."
        }
      ]
    },
    "kind": "dev",
    "methods": {
      "applyValidatorCandidate(address,address,address,address,uint256)": {
        "details": "Proposes a candidate to become a validator. Requirements: - The method caller is able to receive RON. - The treasury is able to receive RON. - The amount is larger than or equal to the minimum validator staking amount `minValidatorStakingAmount()`. Emits the event `PoolApproved`.",
        "params": {
          "_candidateAdmin": "the candidate admin will be stored in the validator contract, used for calling function that affects to its candidate, e.g. scheduling maintenance."
        }
      },
      "bulkUndelegate(address[],uint256[])": {
        "details": "Bulk unstakes from a list of candidates. Requirements: - The method caller is not the pool admin. Emits the events `Undelegated`."
      },
      "claimRewards(address[])": {
        "details": "Claims the reward of method caller. Emits the `RewardClaimed` event."
      },
      "cooldownSecsToUndelegate()": {
        "details": "Returns The cooldown time in seconds to undelegate from the last timestamp (s)he delegated."
      },
      "delegate(address)": {
        "details": "Stakes for a validator candidate `_consensusAddr`. Requirements: - The consensus address is a validator candidate. - The method caller is not the pool admin. Emits the `Delegated` event."
      },
      "delegateRewards(address[],address)": {
        "details": "Claims the rewards and delegates them to the consensus address. Requirements: - The method caller is not the pool admin. - The consensus address `_consensusAddrDst` is a validator candidate. Emits the `RewardClaimed` event and the `Delegated` event."
      },
      "execDeductStakingAmount(address,uint256)": {
        "details": "Deducts from staking amount of the validator `_consensusAddr` for `_amount`. Requirements: - The method caller must be validator contract. Emits the event `Unstaked`."
      },
      "execDeprecatePools(address[],uint256)": {
        "details": "Deprecates the pool. - Deduct self-staking amount of the pool admin to zero. - Transfer the deducted amount to the pool admin. - Deactivate the pool admin address in the mapping of active pool admins Requirements: - The method caller is validator contract. Emits the event `PoolsDeprecated` and `Unstaked` events. Emits the event `StakingAmountTransferFailed` if the contract cannot transfer RON back to the pool admin."
      },
      "execRecordRewards(address[],uint256[],uint256)": {
        "details": "Records the amount of rewards `_rewards` for the pools `_consensusAddrs`. Requirements: - The method caller must be validator contract. Emits the event `PoolsUpdated` once the contract recorded the rewards successfully. Emits the event `PoolsUpdateFailed` once the input array lengths are not equal. Emits the event `PoolsUpdateConflicted` when there are some pools which already updated in the period. Note: This method should be called once at the period ending."
      },
      "getManySelfStakings(address[])": {
        "details": "Returns the self-staking amounts of the pools."
      },
      "getManyStakingAmounts(address[],address[])": {
        "details": "Returns the staking amounts of the users."
      },
      "getManyStakingTotals(address[])": {
        "details": "Returns the total staking amounts of all users for the pools `_poolAddrs`."
      },
      "getPoolAddressOf(address)": {
        "details": "Returns the consensus address corresponding to the pool admin."
      },
      "getPoolDetail(address)": {
        "details": "Returns the staking pool detail."
      },
      "getReward(address,address)": {
        "details": "Returns the reward amount that user claimable."
      },
      "getRewards(address,address[])": {
        "details": "Returns the claimable reward of the user `_user`."
      },
      "getStakingAmount(address,address)": {
        "details": "Returns the staking amount of an user."
      },
      "getStakingTotal(address)": {
        "details": "Returns the total staking amount of all users for a pool."
      },
      "initialize(address,uint256,uint256,uint256,uint256)": {
        "details": "Initializes the contract storage."
      },
      "isAdminOfActivePool(address)": {
        "details": "Returns whether the `_poolAdminAddr` is currently active."
      },
      "maxCommissionRate()": {
        "details": "Returns the max commission rate that the candidate can set."
      },
      "minValidatorStakingAmount()": {
        "details": "Returns the minimum threshold for being a validator candidate."
      },
      "redelegate(address,address,uint256)": {
        "details": "Unstakes an amount of RON from the `_consensusAddrSrc` and stake for `_consensusAddrDst`. Requirements: - The method caller is not the pool admin. - The consensus address `_consensusAddrDst` is a validator candidate. Emits the `Undelegated` event and the `Delegated` event."
      },
      "requestEmergencyExit(address)": {
        "details": "Renounces being a validator candidate and takes back the delegating/staking amount. Requirements: - The consensus address is a validator candidate. - The method caller is the pool admin."
      },
      "requestRenounce(address)": {
        "details": "Renounces being a validator candidate and takes back the delegating/staking amount. Requirements: - The consensus address is a validator candidate. - The method caller is the pool admin."
      },
      "requestUpdateCommissionRate(address,uint256,uint256)": {
        "details": "Pool admin requests update validator commission rate. The request will be forwarded to the candidate manager contract, and the value is getting updated in {ICandidateManager-execRequestUpdateCommissionRate}. Requirements: - The consensus address is a validator candidate. - The method caller is the pool admin. - The `_effectiveDaysOnwards` must be equal to or larger than the {CandidateManager-_minEffectiveDaysOnwards}. - The `_rate` must be in range of [0_00; 100_00]. Emits the event `CommissionRateUpdated`."
      },
      "setCooldownSecsToUndelegate(uint256)": {
        "details": "Sets the cooldown time in seconds to undelegate from the last timestamp (s)he delegated. Requirements: - The method caller is admin. Emits the event `CooldownSecsToUndelegateUpdated`."
      },
      "setMaxCommissionRate(uint256)": {
        "details": "Sets the max commission rate that a candidate can set. Requirements: - The method caller is admin. Emits the `MaxCommissionRateUpdated` event."
      },
      "setMinValidatorStakingAmount(uint256)": {
        "details": "Sets the minimum threshold for being a validator candidate. Requirements: - The method caller is admin. Emits the `MinValidatorStakingAmountUpdated` event."
      },
      "setValidatorContract(address)": {
        "details": "Sets the validator contract. Requirements: - The method caller is admin. - The new address is a contract. Emits the event `ValidatorContractUpdated`."
      },
      "setWaitingSecsToRevoke(uint256)": {
        "details": "Sets the number of seconds that a candidate must wait to be revoked. Requirements: - The method caller is admin. Emits the event `WaitingSecsToRevokeUpdated`."
      },
      "stake(address)": {
        "details": "Self-delegates to the validator candidate `_consensusAddr`. Requirements: - The consensus address is a validator candidate. - The method caller is the pool admin. - The `msg.value` is larger than 0. Emits the event `Staked`."
      },
      "undelegate(address,uint256)": {
        "details": "Unstakes from a validator candidate `_consensusAddr` for `_amount`. Requirements: - The method caller is not the pool admin. Emits the `Undelegated` event."
      },
      "unstake(address,uint256)": {
        "details": "Unstakes from the validator candidate `_consensusAddr` for `_amount`. Requirements: - The consensus address is a validator candidate. - The method caller is the pool admin. Emits the event `Unstaked`."
      },
      "validatorContract()": {
        "details": "Returns the validator contract."
      },
      "waitingSecsToRevoke()": {
        "details": "Returns the number of seconds that a candidate must wait for the renounce request gets affected."
      }
    },
    "version": 1
  },
  "userdoc": {
    "kind": "user",
    "methods": {},
    "version": 1
  },
  "storageLayout": {
    "storage": [
      {
        "astId": 1636,
        "contract": "contracts/ronin/staking/Staking.sol:Staking",
        "label": "_status",
        "offset": 0,
        "slot": "0",
        "type": "t_uint256"
      },
      {
        "astId": 28050,
        "contract": "contracts/ronin/staking/Staking.sol:Staking",
        "label": "_accumulatedRps",
        "offset": 0,
        "slot": "1",
        "type": "t_mapping(t_address,t_mapping(t_uint256,t_struct(PeriodWrapper)10572_storage))"
      },
      {
        "astId": 28058,
        "contract": "contracts/ronin/staking/Staking.sol:Staking",
        "label": "_userReward",
        "offset": 0,
        "slot": "2",
        "type": "t_mapping(t_address,t_mapping(t_address,t_struct(UserRewardFields)11346_storage))"
      },
      {
        "astId": 28064,
        "contract": "contracts/ronin/staking/Staking.sol:Staking",
        "label": "_stakingPool",
        "offset": 0,
        "slot": "3",
        "type": "t_mapping(t_address,t_struct(PoolFields)11352_storage)"
      },
      {
        "astId": 28069,
        "contract": "contracts/ronin/staking/Staking.sol:Staking",
        "label": "______gap",
        "offset": 0,
        "slot": "4",
        "type": "t_array(t_uint256)50_storage"
      },
      {
        "astId": 6462,
        "contract": "contracts/ronin/staking/Staking.sol:Staking",
        "label": "_validatorContract",
        "offset": 0,
        "slot": "54",
        "type": "t_contract(IRoninValidatorSet)11984"
      },
      {
        "astId": 26357,
        "contract": "contracts/ronin/staking/Staking.sol:Staking",
        "label": "_stakingPool",
        "offset": 0,
        "slot": "55",
        "type": "t_mapping(t_address,t_struct(PoolDetail)10959_storage)"
      },
      {
        "astId": 26360,
        "contract": "contracts/ronin/staking/Staking.sol:Staking",
        "label": "_cooldownSecsToUndelegate",
        "offset": 0,
        "slot": "56",
        "type": "t_uint256"
      },
      {
        "astId": 26363,
        "contract": "contracts/ronin/staking/Staking.sol:Staking",
        "label": "_waitingSecsToRevoke",
        "offset": 0,
        "slot": "57",
        "type": "t_uint256"
      },
      {
        "astId": 26368,
        "contract": "contracts/ronin/staking/Staking.sol:Staking",
        "label": "_adminOfActivePoolMapping",
        "offset": 0,
        "slot": "58",
        "type": "t_mapping(t_address,t_address)"
      },
      {
        "astId": 26373,
        "contract": "contracts/ronin/staking/Staking.sol:Staking",
        "label": "______gap",
        "offset": 0,
        "slot": "59",
        "type": "t_array(t_uint256)49_storage"
      },
      {
        "astId": 26806,
        "contract": "contracts/ronin/staking/Staking.sol:Staking",
        "label": "_minValidatorStakingAmount",
        "offset": 0,
        "slot": "108",
        "type": "t_uint256"
      },
      {
        "astId": 26809,
        "contract": "contracts/ronin/staking/Staking.sol:Staking",
        "label": "_maxCommissionRate",
        "offset": 0,
        "slot": "109",
        "type": "t_uint256"
      },
      {
        "astId": 26814,
        "contract": "contracts/ronin/staking/Staking.sol:Staking",
        "label": "______gap",
        "offset": 0,
        "slot": "110",
        "type": "t_array(t_uint256)49_storage"
      },
      {
        "astId": 27537,
        "contract": "contracts/ronin/staking/Staking.sol:Staking",
        "label": "______gap",
        "offset": 0,
        "slot": "159",
        "type": "t_array(t_uint256)50_storage"
      },
      {
        "astId": 1373,
        "contract": "contracts/ronin/staking/Staking.sol:Staking",
        "label": "_initialized",
        "offset": 0,
        "slot": "209",
        "type": "t_uint8"
      },
      {
        "astId": 1376,
        "contract": "contracts/ronin/staking/Staking.sol:Staking",
        "label": "_initializing",
        "offset": 1,
        "slot": "209",
        "type": "t_bool"
      }
    ],
    "types": {
      "t_address": {
        "encoding": "inplace",
        "label": "address",
        "numberOfBytes": "20"
      },
      "t_array(t_uint256)49_storage": {
        "base": "t_uint256",
        "encoding": "inplace",
        "label": "uint256[49]",
        "numberOfBytes": "1568"
      },
      "t_array(t_uint256)50_storage": {
        "base": "t_uint256",
        "encoding": "inplace",
        "label": "uint256[50]",
        "numberOfBytes": "1600"
      },
      "t_bool": {
        "encoding": "inplace",
        "label": "bool",
        "numberOfBytes": "1"
      },
      "t_contract(IRoninValidatorSet)11984": {
        "encoding": "inplace",
        "label": "contract IRoninValidatorSet",
        "numberOfBytes": "20"
      },
      "t_mapping(t_address,t_address)": {
        "encoding": "mapping",
        "key": "t_address",
        "label": "mapping(address => address)",
        "numberOfBytes": "32",
        "value": "t_address"
      },
      "t_mapping(t_address,t_mapping(t_address,t_struct(UserRewardFields)11346_storage))": {
        "encoding": "mapping",
        "key": "t_address",
        "label": "mapping(address => mapping(address => struct IRewardPool.UserRewardFields))",
        "numberOfBytes": "32",
        "value": "t_mapping(t_address,t_struct(UserRewardFields)11346_storage)"
      },
      "t_mapping(t_address,t_mapping(t_uint256,t_struct(PeriodWrapper)10572_storage))": {
        "encoding": "mapping",
        "key": "t_address",
        "label": "mapping(address => mapping(uint256 => struct PeriodWrapperConsumer.PeriodWrapper))",
        "numberOfBytes": "32",
        "value": "t_mapping(t_uint256,t_struct(PeriodWrapper)10572_storage)"
      },
      "t_mapping(t_address,t_struct(PoolDetail)10959_storage)": {
        "encoding": "mapping",
        "key": "t_address",
        "label": "mapping(address => struct IBaseStaking.PoolDetail)",
        "numberOfBytes": "32",
        "value": "t_struct(PoolDetail)10959_storage"
      },
      "t_mapping(t_address,t_struct(PoolFields)11352_storage)": {
        "encoding": "mapping",
        "key": "t_address",
        "label": "mapping(address => struct IRewardPool.PoolFields)",
        "numberOfBytes": "32",
        "value": "t_struct(PoolFields)11352_storage"
      },
      "t_mapping(t_address,t_struct(UserRewardFields)11346_storage)": {
        "encoding": "mapping",
        "key": "t_address",
        "label": "mapping(address => struct IRewardPool.UserRewardFields)",
        "numberOfBytes": "32",
        "value": "t_struct(UserRewardFields)11346_storage"
      },
      "t_mapping(t_address,t_uint256)": {
        "encoding": "mapping",
        "key": "t_address",
        "label": "mapping(address => uint256)",
        "numberOfBytes": "32",
        "value": "t_uint256"
      },
      "t_mapping(t_uint256,t_struct(PeriodWrapper)10572_storage)": {
        "encoding": "mapping",
        "key": "t_uint256",
        "label": "mapping(uint256 => struct PeriodWrapperConsumer.PeriodWrapper)",
        "numberOfBytes": "32",
        "value": "t_struct(PeriodWrapper)10572_storage"
      },
      "t_struct(PeriodWrapper)10572_storage": {
        "encoding": "inplace",
        "label": "struct PeriodWrapperConsumer.PeriodWrapper",
        "members": [
          {
            "astId": 10569,
            "contract": "contracts/ronin/staking/Staking.sol:Staking",
            "label": "inner",
            "offset": 0,
            "slot": "0",
            "type": "t_uint256"
          },
          {
            "astId": 10571,
            "contract": "contracts/ronin/staking/Staking.sol:Staking",
            "label": "lastPeriod",
            "offset": 0,
            "slot": "1",
            "type": "t_uint256"
          }
        ],
        "numberOfBytes": "64"
      },
      "t_struct(PoolDetail)10959_storage": {
        "encoding": "inplace",
        "label": "struct IBaseStaking.PoolDetail",
        "members": [
          {
            "astId": 10944,
            "contract": "contracts/ronin/staking/Staking.sol:Staking",
            "label": "addr",
            "offset": 0,
            "slot": "0",
            "type": "t_address"
          },
          {
            "astId": 10946,
            "contract": "contracts/ronin/staking/Staking.sol:Staking",
            "label": "admin",
            "offset": 0,
            "slot": "1",
            "type": "t_address"
          },
          {
            "astId": 10948,
            "contract": "contracts/ronin/staking/Staking.sol:Staking",
            "label": "stakingAmount",
            "offset": 0,
            "slot": "2",
            "type": "t_uint256"
          },
          {
            "astId": 10950,
            "contract": "contracts/ronin/staking/Staking.sol:Staking",
            "label": "stakingTotal",
            "offset": 0,
            "slot": "3",
            "type": "t_uint256"
          },
          {
            "astId": 10954,
            "contract": "contracts/ronin/staking/Staking.sol:Staking",
            "label": "delegatingAmount",
            "offset": 0,
            "slot": "4",
            "type": "t_mapping(t_address,t_uint256)"
          },
          {
            "astId": 10958,
            "contract": "contracts/ronin/staking/Staking.sol:Staking",
            "label": "lastDelegatingTimestamp",
            "offset": 0,
            "slot": "5",
            "type": "t_mapping(t_address,t_uint256)"
          }
        ],
        "numberOfBytes": "192"
      },
      "t_struct(PoolFields)11352_storage": {
        "encoding": "inplace",
        "label": "struct IRewardPool.PoolFields",
        "members": [
          {
            "astId": 11348,
            "contract": "contracts/ronin/staking/Staking.sol:Staking",
            "label": "aRps",
            "offset": 0,
            "slot": "0",
            "type": "t_uint256"
          },
          {
            "astId": 11351,
            "contract": "contracts/ronin/staking/Staking.sol:Staking",
            "label": "shares",
            "offset": 0,
            "slot": "1",
            "type": "t_struct(PeriodWrapper)10572_storage"
          }
        ],
        "numberOfBytes": "96"
      },
      "t_struct(UserRewardFields)11346_storage": {
        "encoding": "inplace",
        "label": "struct IRewardPool.UserRewardFields",
        "members": [
          {
            "astId": 11339,
            "contract": "contracts/ronin/staking/Staking.sol:Staking",
            "label": "debited",
            "offset": 0,
            "slot": "0",
            "type": "t_uint256"
          },
          {
            "astId": 11341,
            "contract": "contracts/ronin/staking/Staking.sol:Staking",
            "label": "aRps",
            "offset": 0,
            "slot": "1",
            "type": "t_uint256"
          },
          {
            "astId": 11343,
            "contract": "contracts/ronin/staking/Staking.sol:Staking",
            "label": "lowestAmount",
            "offset": 0,
            "slot": "2",
            "type": "t_uint256"
          },
          {
            "astId": 11345,
            "contract": "contracts/ronin/staking/Staking.sol:Staking",
            "label": "lastPeriod",
            "offset": 0,
            "slot": "3",
            "type": "t_uint256"
          }
        ],
        "numberOfBytes": "128"
      },
      "t_uint256": {
        "encoding": "inplace",
        "label": "uint256",
        "numberOfBytes": "32"
      },
      "t_uint8": {
        "encoding": "inplace",
        "label": "uint8",
        "numberOfBytes": "1"
      }
    }
  }
}