{
  "address": "0xeC97D6E75295495b53bac049D9F2E39EfC3ef9DA",
  "abi": [
    {
      "inputs": [
        {
          "internalType": "address[]",
          "name": "_targets",
          "type": "address[]"
        },
        {
          "internalType": "address",
          "name": "_admin",
          "type": "address"
        },
        {
          "internalType": "address",
          "name": "_mod",
          "type": "address"
        }
      ],
      "stateMutability": "nonpayable",
      "type": "constructor"
    },
    {
      "inputs": [],
      "name": "ErrInsufficientBalance",
      "type": "error"
    },
    {
      "inputs": [],
      "name": "ErrRecipientRevert",
      "type": "error"
    },
    {
      "anonymous": false,
      "inputs": [
        {
          "indexed": true,
          "internalType": "address",
          "name": "_recipient",
          "type": "address"
        },
        {
          "indexed": false,
          "internalType": "uint256",
          "name": "_value",
          "type": "uint256"
        }
      ],
      "name": "ForwarderRONWithdrawn",
      "type": "event"
    },
    {
      "anonymous": false,
      "inputs": [
        {
          "indexed": true,
          "internalType": "bytes32",
          "name": "role",
          "type": "bytes32"
        },
        {
          "indexed": true,
          "internalType": "bytes32",
          "name": "previousAdminRole",
          "type": "bytes32"
        },
        {
          "indexed": true,
          "internalType": "bytes32",
          "name": "newAdminRole",
          "type": "bytes32"
        }
      ],
      "name": "RoleAdminChanged",
      "type": "event"
    },
    {
      "anonymous": false,
      "inputs": [
        {
          "indexed": true,
          "internalType": "bytes32",
          "name": "role",
          "type": "bytes32"
        },
        {
          "indexed": true,
          "internalType": "address",
          "name": "account",
          "type": "address"
        },
        {
          "indexed": true,
          "internalType": "address",
          "name": "sender",
          "type": "address"
        }
      ],
      "name": "RoleGranted",
      "type": "event"
    },
    {
      "anonymous": false,
      "inputs": [
        {
          "indexed": true,
          "internalType": "bytes32",
          "name": "role",
          "type": "bytes32"
        },
        {
          "indexed": true,
          "internalType": "address",
          "name": "account",
          "type": "address"
        },
        {
          "indexed": true,
          "internalType": "address",
          "name": "sender",
          "type": "address"
        }
      ],
      "name": "RoleRevoked",
      "type": "event"
    },
    {
      "stateMutability": "payable",
      "type": "fallback"
    },
    {
      "inputs": [],
      "name": "DEFAULT_ADMIN_ROLE",
      "outputs": [
        {
          "internalType": "bytes32",
          "name": "",
          "type": "bytes32"
        }
      ],
      "stateMutability": "view",
      "type": "function"
    },
    {
      "inputs": [],
      "name": "MODERATOR_ROLE",
      "outputs": [
        {
          "internalType": "bytes32",
          "name": "",
          "type": "bytes32"
        }
      ],
      "stateMutability": "view",
      "type": "function"
    },
    {
      "inputs": [],
      "name": "TARGET_ROLE",
      "outputs": [
        {
          "internalType": "bytes32",
          "name": "",
          "type": "bytes32"
        }
      ],
      "stateMutability": "view",
      "type": "function"
    },
    {
      "inputs": [
        {
          "internalType": "address",
          "name": "_target",
          "type": "address"
        },
        {
          "internalType": "bytes",
          "name": "_data",
          "type": "bytes"
        },
        {
          "internalType": "uint256",
          "name": "_val",
          "type": "uint256"
        }
      ],
      "name": "functionCall",
      "outputs": [],
      "stateMutability": "payable",
      "type": "function"
    },
    {
      "inputs": [
        {
          "internalType": "bytes32",
          "name": "role",
          "type": "bytes32"
        }
      ],
      "name": "getRoleAdmin",
      "outputs": [
        {
          "internalType": "bytes32",
          "name": "",
          "type": "bytes32"
        }
      ],
      "stateMutability": "view",
      "type": "function"
    },
    {
      "inputs": [
        {
          "internalType": "bytes32",
          "name": "role",
          "type": "bytes32"
        },
        {
          "internalType": "uint256",
          "name": "index",
          "type": "uint256"
        }
      ],
      "name": "getRoleMember",
      "outputs": [
        {
          "internalType": "address",
          "name": "",
          "type": "address"
        }
      ],
      "stateMutability": "view",
      "type": "function"
    },
    {
      "inputs": [
        {
          "internalType": "bytes32",
          "name": "role",
          "type": "bytes32"
        }
      ],
      "name": "getRoleMemberCount",
      "outputs": [
        {
          "internalType": "uint256",
          "name": "",
          "type": "uint256"
        }
      ],
      "stateMutability": "view",
      "type": "function"
    },
    {
      "inputs": [
        {
          "internalType": "bytes32",
          "name": "role",
          "type": "bytes32"
        },
        {
          "internalType": "address",
          "name": "account",
          "type": "address"
        }
      ],
      "name": "grantRole",
      "outputs": [],
      "stateMutability": "nonpayable",
      "type": "function"
    },
    {
      "inputs": [
        {
          "internalType": "bytes32",
          "name": "role",
          "type": "bytes32"
        },
        {
          "internalType": "address",
          "name": "account",
          "type": "address"
        }
      ],
      "name": "hasRole",
      "outputs": [
        {
          "internalType": "bool",
          "name": "",
          "type": "bool"
        }
      ],
      "stateMutability": "view",
      "type": "function"
    },
    {
      "inputs": [
        {
          "internalType": "bytes32",
          "name": "role",
          "type": "bytes32"
        },
        {
          "internalType": "address",
          "name": "account",
          "type": "address"
        }
      ],
      "name": "renounceRole",
      "outputs": [],
      "stateMutability": "nonpayable",
      "type": "function"
    },
    {
      "inputs": [
        {
          "internalType": "bytes32",
          "name": "role",
          "type": "bytes32"
        },
        {
          "internalType": "address",
          "name": "account",
          "type": "address"
        }
      ],
      "name": "revokeRole",
      "outputs": [],
      "stateMutability": "nonpayable",
      "type": "function"
    },
    {
      "inputs": [
        {
          "internalType": "bytes4",
          "name": "interfaceId",
          "type": "bytes4"
        }
      ],
      "name": "supportsInterface",
      "outputs": [
        {
          "internalType": "bool",
          "name": "",
          "type": "bool"
        }
      ],
      "stateMutability": "view",
      "type": "function"
    },
    {
      "inputs": [],
      "name": "withdrawAll",
      "outputs": [],
      "stateMutability": "nonpayable",
      "type": "function"
    },
    {
      "stateMutability": "payable",
      "type": "receive"
    }
  ],
  "transactionHash": "0xb1a402fabc319124962abd0763658531060b27c97a5c0127f0643eae4fae57dd",
  "args": [
    [
      "0x8a320aFb578BEed1A5BB08823CF9A5f60Ea694f4",
      "0x7f46c5DD5f13FF0dd973317411d70800db248e7d",
      "0x4016C80D97DDCbe4286140446759a3f0c1d20584",
      "0xF7837778b6E180Df6696C8Fa986d62f8b6186752",
      "0x9C245671791834daf3885533D24dce516B763B28",
      "0x54B3AC74a90E64E8dDE60671b6fE8F8DDf18eC9d",
      "0x61626ba084aDdc5dBFCdFfA257e66F8618d3feAB"
    ],
    "0x968D0Cd7343f711216817E617d3f92a23dC91c07",
    "0x8643c5d7048d149297229ded82fd7ac1ec099999"
  ],
  "numDeployments": 1,
  "solcInputHash": "df83b9bf4eb9555928fe59c42cc1073a",
  "bytecode": "0x60806040523480156200001157600080fd5b50604051620012c9380380620012c9833981016040819052620000349162000285565b82828260005b8351811015620000a757620000927f7eae605229c67d878c4d7fbf24379ada222941e36ec4e2a7c261d740a528b16f8583815181106200007e576200007e6200037d565b6020026020010151620000ed60201b60201c565b806200009e8162000393565b9150506200003a565b50620000b5600083620000ed565b620000e17f71f3d55856e4058ed06ee057d79ada615f65cdf5f9ee88181b914225088f834f82620000ed565b505050505050620003bb565b620000f98282620000fd565b5050565b6200011482826200014060201b620005211760201c565b60008281526001602090815260409091206200013b918390620005a5620001e0821b17901c565b505050565b6000828152602081815260408083206001600160a01b038516845290915290205460ff16620000f9576000828152602081815260408083206001600160a01b03851684529091529020805460ff191660011790556200019c3390565b6001600160a01b0316816001600160a01b0316837f2f8788117e7eff1d82e926ec794901d17c78024a50270940304540a733656f0d60405160405180910390a45050565b6000620001f7836001600160a01b03841662000200565b90505b92915050565b60008181526001830160205260408120546200024957508154600181810184556000848152602080822090930184905584548482528286019093526040902091909155620001fa565b506000620001fa565b634e487b7160e01b600052604160045260246000fd5b80516001600160a01b03811681146200028057600080fd5b919050565b6000806000606084860312156200029b57600080fd5b83516001600160401b0380821115620002b357600080fd5b818601915086601f830112620002c857600080fd5b8151602082821115620002df57620002df62000252565b8160051b604051601f19603f8301168101818110868211171562000307576200030762000252565b60405292835281830193508481018201928a8411156200032657600080fd5b948201945b838610156200034f576200033f8662000268565b855294820194938201936200032b565b975062000360905088820162000268565b955050505050620003746040850162000268565b90509250925092565b634e487b7160e01b600052603260045260246000fd5b600060018201620003b457634e487b7160e01b600052601160045260246000fd5b5060010190565b610efe80620003cb6000396000f3fe6080604052600436106100bd5760003560e01c80638080d2a61161007957806391d148541161005657806391d1485414610241578063a217fddf14610261578063ca15c87314610276578063d547741f1461029657005b80638080d2a6146101c0578063853828b6146101f45780639010d07c1461020957005b806301ffc9a7146100c6578063248a9ca3146100fb5780632f2ff15d1461013957806336568abe146101595780634a94d48714610179578063797669c91461018c57005b366100c457005b005b3480156100d257600080fd5b506100e66100e1366004610bbc565b6102b6565b60405190151581526020015b60405180910390f35b34801561010757600080fd5b5061012b610116366004610be6565b60009081526020819052604090206001015490565b6040519081526020016100f2565b34801561014557600080fd5b506100c4610154366004610c1b565b6102e1565b34801561016557600080fd5b506100c4610174366004610c1b565b61030b565b6100c4610187366004610c5d565b61038e565b34801561019857600080fd5b5061012b7f71f3d55856e4058ed06ee057d79ada615f65cdf5f9ee88181b914225088f834f81565b3480156101cc57600080fd5b5061012b7f7eae605229c67d878c4d7fbf24379ada222941e36ec4e2a7c261d740a528b16f81565b34801561020057600080fd5b506100c4610451565b34801561021557600080fd5b50610229610224366004610d28565b61049d565b6040516001600160a01b0390911681526020016100f2565b34801561024d57600080fd5b506100e661025c366004610c1b565b6104bc565b34801561026d57600080fd5b5061012b600081565b34801561028257600080fd5b5061012b610291366004610be6565b6104e5565b3480156102a257600080fd5b506100c46102b1366004610c1b565b6104fc565b60006001600160e01b03198216635a05180f60e01b14806102db57506102db826105ba565b92915050565b6000828152602081905260409020600101546102fc816105ef565b61030683836105fc565b505050565b6001600160a01b03811633146103805760405162461bcd60e51b815260206004820152602f60248201527f416363657373436f6e74726f6c3a2063616e206f6e6c792072656e6f756e636560448201526e103937b632b9903337b91039b2b63360891b60648201526084015b60405180910390fd5b61038a828261061e565b5050565b826103b97f7eae605229c67d878c4d7fbf24379ada222941e36ec4e2a7c261d740a528b16f82610640565b7f71f3d55856e4058ed06ee057d79ada615f65cdf5f9ee88181b914225088f834f6103e3816105ef565b4783111561043f5760405162461bcd60e51b815260206004820152602360248201527f466f727761726465723a20696e76616c696420666f7277617264696e672076616044820152626c756560e81b6064820152608401610377565b61044a8585856106a4565b5050505050565b600061045c816105ef565b604051478082529033907f318d600455a28c7c807dd305ff8116d33e5a74efa5ba64c1603075e3b9ca72d59060200160405180910390a261038a3382610774565b60008281526001602052604081206104b5908361079b565b9392505050565b6000918252602082815260408084206001600160a01b0393909316845291905290205460ff1690565b60008181526001602052604081206102db906107a7565b600082815260208190526040902060010154610517816105ef565b610306838361061e565b61052b82826104bc565b61038a576000828152602081815260408083206001600160a01b03851684529091529020805460ff191660011790556105613390565b6001600160a01b0316816001600160a01b0316837f2f8788117e7eff1d82e926ec794901d17c78024a50270940304540a733656f0d60405160405180910390a45050565b60006104b5836001600160a01b0384166107b1565b60006001600160e01b03198216637965db0b60e01b14806102db57506301ffc9a760e01b6001600160e01b03198316146102db565b6105f98133610640565b50565b6106068282610521565b600082815260016020526040902061030690826105a5565b6106288282610800565b60008281526001602052604090206103069082610865565b61064a82826104bc565b61038a57610662816001600160a01b0316601461087a565b61066d83602061087a565b60405160200161067e929190610d6e565b60408051601f198184030181529082905262461bcd60e51b825261037791600401610de3565b600080846001600160a01b031683856040516106c09190610e16565b60006040518083038185875af1925050503d80600081146106fd576040519150601f19603f3d011682016040523d82523d6000602084013e610702565b606091505b50915091508161044a578051600481101561076a5760405162461bcd60e51b815260206004820152602260248201527f466f727761726465723a2074617267657420726576657274732073696c656e746044820152616c7960f01b6064820152608401610377565b6020820191508082fd5b61077e8282610a16565b61038a57604051630c3e69bb60e11b815260040160405180910390fd5b60006104b58383610a43565b60006102db825490565b60008181526001830160205260408120546107f8575081546001818101845560008481526020808220909301849055845484825282860190935260409020919091556102db565b5060006102db565b61080a82826104bc565b1561038a576000828152602081815260408083206001600160a01b0385168085529252808320805460ff1916905551339285917ff6391f5c32d9c69d2a47ea670b442974b53935d1edc7fd64eb21e047a839171b9190a45050565b60006104b5836001600160a01b038416610a6d565b60606000610889836002610e48565b610894906002610e5f565b67ffffffffffffffff8111156108ac576108ac610c47565b6040519080825280601f01601f1916602001820160405280156108d6576020820181803683370190505b509050600360fc1b816000815181106108f1576108f1610e72565b60200101906001600160f81b031916908160001a905350600f60fb1b8160018151811061092057610920610e72565b60200101906001600160f81b031916908160001a9053506000610944846002610e48565b61094f906001610e5f565b90505b60018111156109c7576f181899199a1a9b1b9c1cb0b131b232b360811b85600f166010811061098357610983610e72565b1a60f81b82828151811061099957610999610e72565b60200101906001600160f81b031916908160001a90535060049490941c936109c081610e88565b9050610952565b5083156104b55760405162461bcd60e51b815260206004820181905260248201527f537472696e67733a20686578206c656e67746820696e73756666696369656e746044820152606401610377565b600081471015610a39576040516304611a4560e11b815260040160405180910390fd5b6104b58383610b60565b6000826000018281548110610a5a57610a5a610e72565b9060005260206000200154905092915050565b60008181526001830160205260408120548015610b56576000610a91600183610e9f565b8554909150600090610aa590600190610e9f565b9050818114610b0a576000866000018281548110610ac557610ac5610e72565b9060005260206000200154905080876000018481548110610ae857610ae8610e72565b6000918252602080832090910192909255918252600188019052604090208390555b8554869080610b1b57610b1b610eb2565b6001900381819060005260206000200160009055905585600101600086815260200190815260200160002060009055600193505050506102db565b60009150506102db565b6000826001600160a01b03168260405160006040518083038185875af1925050503d8060008114610bad576040519150601f19603f3d011682016040523d82523d6000602084013e610bb2565b606091505b5090949350505050565b600060208284031215610bce57600080fd5b81356001600160e01b0319811681146104b557600080fd5b600060208284031215610bf857600080fd5b5035919050565b80356001600160a01b0381168114610c1657600080fd5b919050565b60008060408385031215610c2e57600080fd5b82359150610c3e60208401610bff565b90509250929050565b634e487b7160e01b600052604160045260246000fd5b600080600060608486031215610c7257600080fd5b610c7b84610bff565b9250602084013567ffffffffffffffff80821115610c9857600080fd5b818601915086601f830112610cac57600080fd5b813581811115610cbe57610cbe610c47565b604051601f8201601f19908116603f01168101908382118183101715610ce657610ce6610c47565b81604052828152896020848701011115610cff57600080fd5b826020860160208301376000602084830101528096505050505050604084013590509250925092565b60008060408385031215610d3b57600080fd5b50508035926020909101359150565b60005b83811015610d65578181015183820152602001610d4d565b50506000910152565b7f416363657373436f6e74726f6c3a206163636f756e7420000000000000000000815260008351610da6816017850160208801610d4a565b7001034b99036b4b9b9b4b733903937b6329607d1b6017918401918201528351610dd7816028840160208801610d4a565b01602801949350505050565b6020815260008251806020840152610e02816040850160208701610d4a565b601f01601f19169190910160400192915050565b60008251610e28818460208701610d4a565b9190910192915050565b634e487b7160e01b600052601160045260246000fd5b80820281158282048414176102db576102db610e32565b808201808211156102db576102db610e32565b634e487b7160e01b600052603260045260246000fd5b600081610e9757610e97610e32565b506000190190565b818103818111156102db576102db610e32565b634e487b7160e01b600052603160045260246000fdfea264697066735822122084e3fbd7ef4489039214cdcffda3ece242960d41c8a5746545ca2724b474d63564736f6c63430008110033",
  "devdoc": {
    "details": "There are three roles of interaction: - Admin: top-up and withdraw RON to the vault, cannot forward call to the target. - Moderator: forward all calls to the target, can top-up RON, cannot withdraw RON. - Others: can top-up RON, cannot execute any other actions.",
    "errors": {
      "ErrInsufficientBalance()": [
        {
          "details": "Error of sender has insufficient balance."
        }
      ],
      "ErrRecipientRevert()": [
        {
          "details": "Error of recipient not accepting RON when transfer RON."
        }
      ]
    },
    "events": {
      "ForwarderRONWithdrawn(address,uint256)": {
        "details": "Emitted when the admin withdraws all RON from the forwarder contract."
      }
    },
    "kind": "dev",
    "methods": {
      "functionCall(address,bytes,uint256)": {
        "details": "Forwards the encoded call specified by `_data` to the target. The forwarder attachs `_val` value from the forwarder contract and sends along with the call. Requirements: - Only target with {TARGET_ROLE} can be called to. - Only user with {MODERATOR_ROLE} can call this method."
      },
      "getRoleAdmin(bytes32)": {
        "details": "Returns the admin role that controls `role`. See {grantRole} and {revokeRole}. To change a role's admin, use {_setRoleAdmin}."
      },
      "getRoleMember(bytes32,uint256)": {
        "details": "Returns one of the accounts that have `role`. `index` must be a value between 0 and {getRoleMemberCount}, non-inclusive. Role bearers are not sorted in any particular way, and their ordering may change at any point. WARNING: When using {getRoleMember} and {getRoleMemberCount}, make sure you perform all queries on the same block. See the following https://forum.openzeppelin.com/t/iterating-over-elements-on-enumerableset-in-openzeppelin-contracts/2296[forum post] for more information."
      },
      "getRoleMemberCount(bytes32)": {
        "details": "Returns the number of accounts that have `role`. Can be used together with {getRoleMember} to enumerate all bearers of a role."
      },
      "grantRole(bytes32,address)": {
        "details": "Grants `role` to `account`. If `account` had not been already granted `role`, emits a {RoleGranted} event. Requirements: - the caller must have ``role``'s admin role. May emit a {RoleGranted} event."
      },
      "hasRole(bytes32,address)": {
        "details": "Returns `true` if `account` has been granted `role`."
      },
      "renounceRole(bytes32,address)": {
        "details": "Revokes `role` from the calling account. Roles are often managed via {grantRole} and {revokeRole}: this function's purpose is to provide a mechanism for accounts to lose their privileges if they are compromised (such as when a trusted device is misplaced). If the calling account had been revoked `role`, emits a {RoleRevoked} event. Requirements: - the caller must be `account`. May emit a {RoleRevoked} event."
      },
      "revokeRole(bytes32,address)": {
        "details": "Revokes `role` from `account`. If `account` had been granted `role`, emits a {RoleRevoked} event. Requirements: - the caller must have ``role``'s admin role. May emit a {RoleRevoked} event."
      },
      "supportsInterface(bytes4)": {
        "details": "See {IERC165-supportsInterface}."
      },
      "withdrawAll()": {
        "details": "Withdraws all balance from the transfer to the admin. Requirements: - Only the admin can call this method."
      }
    },
    "title": "A vault contract that keeps RON, and behaves as an EOA account to interact with a target contract.",
    "version": 1
  },
  "userdoc": {
    "kind": "user",
    "methods": {},
    "version": 1
  },
  "storageLayout": {
    "storage": [
      {
        "astId": 24,
        "contract": "contracts/ronin/VaultForwarder.sol:VaultForwarder",
        "label": "_roles",
        "offset": 0,
        "slot": "0",
        "type": "t_mapping(t_bytes32,t_struct(RoleData)19_storage)"
      },
      {
        "astId": 338,
        "contract": "contracts/ronin/VaultForwarder.sol:VaultForwarder",
        "label": "_roleMembers",
        "offset": 0,
        "slot": "1",
        "type": "t_mapping(t_bytes32,t_struct(AddressSet)4026_storage)"
      }
    ],
    "types": {
      "t_address": {
        "encoding": "inplace",
        "label": "address",
        "numberOfBytes": "20"
      },
      "t_array(t_bytes32)dyn_storage": {
        "base": "t_bytes32",
        "encoding": "dynamic_array",
        "label": "bytes32[]",
        "numberOfBytes": "32"
      },
      "t_bool": {
        "encoding": "inplace",
        "label": "bool",
        "numberOfBytes": "1"
      },
      "t_bytes32": {
        "encoding": "inplace",
        "label": "bytes32",
        "numberOfBytes": "32"
      },
      "t_mapping(t_address,t_bool)": {
        "encoding": "mapping",
        "key": "t_address",
        "label": "mapping(address => bool)",
        "numberOfBytes": "32",
        "value": "t_bool"
      },
      "t_mapping(t_bytes32,t_struct(AddressSet)4026_storage)": {
        "encoding": "mapping",
        "key": "t_bytes32",
        "label": "mapping(bytes32 => struct EnumerableSet.AddressSet)",
        "numberOfBytes": "32",
        "value": "t_struct(AddressSet)4026_storage"
      },
      "t_mapping(t_bytes32,t_struct(RoleData)19_storage)": {
        "encoding": "mapping",
        "key": "t_bytes32",
        "label": "mapping(bytes32 => struct AccessControl.RoleData)",
        "numberOfBytes": "32",
        "value": "t_struct(RoleData)19_storage"
      },
      "t_mapping(t_bytes32,t_uint256)": {
        "encoding": "mapping",
        "key": "t_bytes32",
        "label": "mapping(bytes32 => uint256)",
        "numberOfBytes": "32",
        "value": "t_uint256"
      },
      "t_struct(AddressSet)4026_storage": {
        "encoding": "inplace",
        "label": "struct EnumerableSet.AddressSet",
        "members": [
          {
            "astId": 4025,
            "contract": "contracts/ronin/VaultForwarder.sol:VaultForwarder",
            "label": "_inner",
            "offset": 0,
            "slot": "0",
            "type": "t_struct(Set)3725_storage"
          }
        ],
        "numberOfBytes": "64"
      },
      "t_struct(RoleData)19_storage": {
        "encoding": "inplace",
        "label": "struct AccessControl.RoleData",
        "members": [
          {
            "astId": 16,
            "contract": "contracts/ronin/VaultForwarder.sol:VaultForwarder",
            "label": "members",
            "offset": 0,
            "slot": "0",
            "type": "t_mapping(t_address,t_bool)"
          },
          {
            "astId": 18,
            "contract": "contracts/ronin/VaultForwarder.sol:VaultForwarder",
            "label": "adminRole",
            "offset": 0,
            "slot": "1",
            "type": "t_bytes32"
          }
        ],
        "numberOfBytes": "64"
      },
      "t_struct(Set)3725_storage": {
        "encoding": "inplace",
        "label": "struct EnumerableSet.Set",
        "members": [
          {
            "astId": 3720,
            "contract": "contracts/ronin/VaultForwarder.sol:VaultForwarder",
            "label": "_values",
            "offset": 0,
            "slot": "0",
            "type": "t_array(t_bytes32)dyn_storage"
          },
          {
            "astId": 3724,
            "contract": "contracts/ronin/VaultForwarder.sol:VaultForwarder",
            "label": "_indexes",
            "offset": 0,
            "slot": "1",
            "type": "t_mapping(t_bytes32,t_uint256)"
          }
        ],
        "numberOfBytes": "64"
      },
      "t_uint256": {
        "encoding": "inplace",
        "label": "uint256",
        "numberOfBytes": "32"
      }
    }
  }
}